{
  "_format": "hh-sol-artifact-1",
  "contractName": "CompoundingIndexFactory",
  "sourceName": "contracts/deployment/CompoundingIndexFactory.sol",
  "abi": [
    {
      "anonymous": false,
      "inputs": [
        {
          "indexed": false,
          "internalType": "address",
          "name": "indexAddress",
          "type": "address"
        }
      ],
      "name": "IndexDeployed",
      "type": "event"
    },
    {
      "inputs": [
        {
          "internalType": "address",
          "name": "owner_",
          "type": "address"
        }
      ],
      "name": "deployIndex",
      "outputs": [],
      "stateMutability": "nonpayable",
      "type": "function"
    }
  ],
  "bytecode": "0x608060405234801561001057600080fd5b506113e2806100206000396000f3fe608060405234801561001057600080fd5b506004361061002b5760003560e01c8063aa1b0c4914610030575b600080fd5b61004a600480360381019061004591906100e1565b61004c565b005b60008160405161005b906100bf565b6100659190610119565b604051809103906000f080158015610081573d6000803e3d6000fd5b5090507fd39b51a4de67a6a7fa8893e1dc7569990bb869c0ca1ca2e74f7482783081324f816040516100b39190610119565b60405180910390a15050565b61122f8061017e83390190565b6000813590506100db81610166565b92915050565b6000602082840312156100f357600080fd5b6000610101848285016100cc565b91505092915050565b61011381610134565b82525050565b600060208201905061012e600083018461010a565b92915050565b600061013f82610146565b9050919050565b600073ffffffffffffffffffffffffffffffffffffffff82169050919050565b61016f81610134565b811461017a57600080fd5b5056fe608060405242600155670de0b6b3a76400006002556001546003553480156200002757600080fd5b506040516200122f3803806200122f83398181016040528101906200004d9190620002dd565b6200006d62000061620000bb60201b60201c565b620000c360201b60201c565b600073ffffffffffffffffffffffffffffffffffffffff168173ffffffffffffffffffffffffffffffffffffffff1614620000b457620000b3816200018760201b60201c565b5b5062000472565b600033905090565b60008060009054906101000a900473ffffffffffffffffffffffffffffffffffffffff169050816000806101000a81548173ffffffffffffffffffffffffffffffffffffffff021916908373ffffffffffffffffffffffffffffffffffffffff1602179055508173ffffffffffffffffffffffffffffffffffffffff168173ffffffffffffffffffffffffffffffffffffffff167f8be0079c531659141344cd1fd0a4f28419497f9722a3daafe3b4186f6b6457e060405160405180910390a35050565b62000197620000bb60201b60201c565b73ffffffffffffffffffffffffffffffffffffffff16620001bd6200029d60201b60201c565b73ffffffffffffffffffffffffffffffffffffffff161462000216576040517f08c379a00000000000000000000000000000000000000000000000000000000081526004016200020d9062000379565b60405180910390fd5b600073ffffffffffffffffffffffffffffffffffffffff168173ffffffffffffffffffffffffffffffffffffffff16141562000289576040517f08c379a0000000000000000000000000000000000000000000000000000000008152600401620002809062000357565b60405180910390fd5b6200029a81620000c360201b60201c565b50565b60008060009054906101000a900473ffffffffffffffffffffffffffffffffffffffff16905090565b600081519050620002d78162000458565b92915050565b600060208284031215620002f057600080fd5b60006200030084828501620002c6565b91505092915050565b6000620003186026836200039b565b91506200032582620003e0565b604082019050919050565b60006200033f6020836200039b565b91506200034c826200042f565b602082019050919050565b60006020820190508181036000830152620003728162000309565b9050919050565b60006020820190508181036000830152620003948162000330565b9050919050565b600082825260208201905092915050565b6000620003b982620003c0565b9050919050565b600073ffffffffffffffffffffffffffffffffffffffff82169050919050565b7f4f776e61626c653a206e6577206f776e657220697320746865207a65726f206160008201527f6464726573730000000000000000000000000000000000000000000000000000602082015250565b7f4f776e61626c653a2063616c6c6572206973206e6f7420746865206f776e6572600082015250565b6200046381620003ac565b81146200046f57600080fd5b50565b610dad80620004826000396000f3fe608060405234801561001057600080fd5b50600436106100a95760003560e01c806381045ead1161007157806381045ead1461012e5780638da5cb5b1461014c578063966da8891461016a578063be9a65551461019a578063ed03b336146101b8578063f2fde38b146101d4576100a9565b80632986c0e5146100ae5780632c4e722e146100cc57806334fcf437146100ea578063715018a614610106578063798d1df714610110575b600080fd5b6100b66101f0565b6040516100c39190610ac5565b60405180910390f35b6100d46101f6565b6040516100e19190610ac5565b60405180910390f35b61010460048036038101906100ff91906109a1565b6101fc565b005b61010e6102c3565b005b61011861034b565b6040516101259190610ac5565b60405180910390f35b610136610351565b6040516101439190610ac5565b60405180910390f35b6101546103ac565b6040516101619190610a6a565b60405180910390f35b610184600480360381019061017f91906109ca565b6103d5565b6040516101919190610ac5565b60405180910390f35b6101a261049e565b6040516101af9190610ac5565b60405180910390f35b6101d260048036038101906101cd9190610978565b6104a4565b005b6101ee60048036038101906101e99190610978565b610586565b005b60025481565b60065481565b61020461067e565b73ffffffffffffffffffffffffffffffffffffffff166102226103ac565b73ffffffffffffffffffffffffffffffffffffffff1614610278576040517f08c379a000000000000000000000000000000000000000000000000000000000815260040161026f90610aa5565b60405180910390fd5b610280610686565b806006819055507fe65c987b2e4668e09ba867026921588005b2b2063607a1e7e7d91683c8f91b7b6006546040516102b89190610ac5565b60405180910390a150565b6102cb61067e565b73ffffffffffffffffffffffffffffffffffffffff166102e96103ac565b73ffffffffffffffffffffffffffffffffffffffff161461033f576040517f08c379a000000000000000000000000000000000000000000000000000000000815260040161033690610aa5565b60405180910390fd5b61034960006106b9565b565b60035481565b600080600354426103629190610bd2565b905060008111156103a25761039a61039561037c8361077d565b6103876002546107c4565b6107dd90919063ffffffff16565b61082d565b9150506103a9565b6002549150505b90565b60008060009054906101000a900473ffffffffffffffffffffffffffffffffffffffff16905090565b600080600560008473ffffffffffffffffffffffffffffffffffffffff1673ffffffffffffffffffffffffffffffffffffffff168152602001908152602001600020549050600080821461043c576004600083815260200190815260200160002054610446565b670de0b6b3a76400005b905061049461048f610457836107c4565b61048161046a610465610351565b6107c4565b6104738a6107c4565b6107dd90919063ffffffff16565b61086690919063ffffffff16565b61082d565b9250505092915050565b60015481565b6104ac61067e565b73ffffffffffffffffffffffffffffffffffffffff166104ca6103ac565b73ffffffffffffffffffffffffffffffffffffffff1614610520576040517f08c379a000000000000000000000000000000000000000000000000000000000815260040161051790610aa5565b60405180910390fd5b42600560008373ffffffffffffffffffffffffffffffffffffffff1673ffffffffffffffffffffffffffffffffffffffff1681526020019081526020016000208190555061056c610351565b600460004281526020019081526020016000208190555050565b61058e61067e565b73ffffffffffffffffffffffffffffffffffffffff166105ac6103ac565b73ffffffffffffffffffffffffffffffffffffffff1614610602576040517f08c379a00000000000000000000000000000000000000000000000000000000081526004016105f990610aa5565b60405180910390fd5b600073ffffffffffffffffffffffffffffffffffffffff168173ffffffffffffffffffffffffffffffffffffffff161415610672576040517f08c379a000000000000000000000000000000000000000000000000000000000815260040161066990610a85565b60405180910390fd5b61067b816106b9565b50565b600033905090565b600254600460006003548152602001908152602001600020819055506106aa610351565b60028190555042600381905550565b60008060009054906101000a900473ffffffffffffffffffffffffffffffffffffffff169050816000806101000a81548173ffffffffffffffffffffffffffffffffffffffff021916908373ffffffffffffffffffffffffffffffffffffffff1602179055508173ffffffffffffffffffffffffffffffffffffffff168173ffffffffffffffffffffffffffffffffffffffff167f8be0079c531659141344cd1fd0a4f28419497f9722a3daafe3b4186f6b6457e060405160405180910390a35050565b60006107bd8261078b6108af565b6301e1338061079b6006546107c4565b6107a59190610b47565b6107af9190610af1565b6108c390919063ffffffff16565b9050919050565b6000633b9aca00826107d69190610b78565b9050919050565b60006b033b2e3c9fd0803ce800000082846107f89190610b78565b60026b033b2e3c9fd0803ce80000006108119190610b47565b61081b9190610af1565b6108259190610b47565b905092915050565b6000806002633b9aca006108419190610b47565b9050633b9aca0083826108549190610af1565b61085e9190610b47565b915050919050565b6000806002836108769190610b47565b9050826b033b2e3c9fd0803ce8000000856108919190610b78565b8261089c9190610af1565b6108a69190610b47565b91505092915050565b60006b033b2e3c9fd0803ce8000000905090565b6000806002836108d39190610c42565b14156108eb576b033b2e3c9fd0803ce80000006108ed565b825b90506002826108fc9190610b47565b91505b600082146109485761091183846107dd565b925060006002836109229190610c42565b146109345761093181846107dd565b90505b6002826109419190610b47565b91506108ff565b92915050565b60008135905061095d81610d49565b92915050565b60008135905061097281610d60565b92915050565b60006020828403121561098a57600080fd5b60006109988482850161094e565b91505092915050565b6000602082840312156109b357600080fd5b60006109c184828501610963565b91505092915050565b600080604083850312156109dd57600080fd5b60006109eb85828601610963565b92505060206109fc8582860161094e565b9150509250929050565b610a0f81610c06565b82525050565b6000610a22602683610ae0565b9150610a2d82610cd1565b604082019050919050565b6000610a45602083610ae0565b9150610a5082610d20565b602082019050919050565b610a6481610c38565b82525050565b6000602082019050610a7f6000830184610a06565b92915050565b60006020820190508181036000830152610a9e81610a15565b9050919050565b60006020820190508181036000830152610abe81610a38565b9050919050565b6000602082019050610ada6000830184610a5b565b92915050565b600082825260208201905092915050565b6000610afc82610c38565b9150610b0783610c38565b9250827fffffffffffffffffffffffffffffffffffffffffffffffffffffffffffffffff03821115610b3c57610b3b610c73565b5b828201905092915050565b6000610b5282610c38565b9150610b5d83610c38565b925082610b6d57610b6c610ca2565b5b828204905092915050565b6000610b8382610c38565b9150610b8e83610c38565b9250817fffffffffffffffffffffffffffffffffffffffffffffffffffffffffffffffff0483118215151615610bc757610bc6610c73565b5b828202905092915050565b6000610bdd82610c38565b9150610be883610c38565b925082821015610bfb57610bfa610c73565b5b828203905092915050565b6000610c1182610c18565b9050919050565b600073ffffffffffffffffffffffffffffffffffffffff82169050919050565b6000819050919050565b6000610c4d82610c38565b9150610c5883610c38565b925082610c6857610c67610ca2565b5b828206905092915050565b7f4e487b7100000000000000000000000000000000000000000000000000000000600052601160045260246000fd5b7f4e487b7100000000000000000000000000000000000000000000000000000000600052601260045260246000fd5b7f4f776e61626c653a206e6577206f776e657220697320746865207a65726f206160008201527f6464726573730000000000000000000000000000000000000000000000000000602082015250565b7f4f776e61626c653a2063616c6c6572206973206e6f7420746865206f776e6572600082015250565b610d5281610c06565b8114610d5d57600080fd5b50565b610d6981610c38565b8114610d7457600080fd5b5056fea2646970667358221220a327ec7e3979dc2d2b172f6fbf974224921531a5278f6d089f8599f01d47022364736f6c63430008040033a2646970667358221220177713cb7e3a7a8b976e4703f0f31b52e1477a0462462fc12a1c9e5144b142d164736f6c63430008040033",
  "linkReferences": {},
  "deployedLinkReferences": {}
}