{
  "_format": "hh-sol-artifact-1",
  "contractName": "MockUpgradedSmartLoansFactory",
  "sourceName": "contracts/mock/MockUpgradedSmartLoansFactory.sol",
  "abi": [
    {
      "anonymous": false,
      "inputs": [
        {
          "indexed": true,
          "internalType": "address",
          "name": "previousOwner",
          "type": "address"
        },
        {
          "indexed": true,
          "internalType": "address",
          "name": "newOwner",
          "type": "address"
        }
      ],
      "name": "OwnershipTransferred",
      "type": "event"
    },
    {
      "anonymous": false,
      "inputs": [
        {
          "indexed": true,
          "internalType": "address",
          "name": "accountAddress",
          "type": "address"
        },
        {
          "indexed": true,
          "internalType": "address",
          "name": "creator",
          "type": "address"
        },
        {
          "indexed": false,
          "internalType": "uint256",
          "name": "initialCollateral",
          "type": "uint256"
        },
        {
          "indexed": false,
          "internalType": "uint256",
          "name": "initialDebt",
          "type": "uint256"
        }
      ],
      "name": "SmartLoanCreated",
      "type": "event"
    },
    {
      "inputs": [
        {
          "internalType": "address",
          "name": "_account",
          "type": "address"
        }
      ],
      "name": "canBorrow",
      "outputs": [
        {
          "internalType": "bool",
          "name": "",
          "type": "bool"
        }
      ],
      "stateMutability": "view",
      "type": "function"
    },
    {
      "inputs": [
        {
          "internalType": "uint256",
          "name": "_initialDebt",
          "type": "uint256"
        }
      ],
      "name": "createAndFundLoan",
      "outputs": [
        {
          "internalType": "contract SmartLoan",
          "name": "",
          "type": "address"
        }
      ],
      "stateMutability": "payable",
      "type": "function"
    },
    {
      "inputs": [],
      "name": "createLoan",
      "outputs": [
        {
          "internalType": "contract SmartLoan",
          "name": "",
          "type": "address"
        }
      ],
      "stateMutability": "nonpayable",
      "type": "function"
    },
    {
      "inputs": [],
      "name": "getAllLoans",
      "outputs": [
        {
          "internalType": "contract SmartLoan[]",
          "name": "",
          "type": "address[]"
        }
      ],
      "stateMutability": "view",
      "type": "function"
    },
    {
      "inputs": [
        {
          "internalType": "address",
          "name": "_user",
          "type": "address"
        }
      ],
      "name": "getLoanForOwner",
      "outputs": [
        {
          "internalType": "address",
          "name": "",
          "type": "address"
        }
      ],
      "stateMutability": "view",
      "type": "function"
    },
    {
      "inputs": [
        {
          "internalType": "address",
          "name": "_loan",
          "type": "address"
        }
      ],
      "name": "getOwnerOfLoan",
      "outputs": [
        {
          "internalType": "address",
          "name": "",
          "type": "address"
        }
      ],
      "stateMutability": "view",
      "type": "function"
    },
    {
      "inputs": [
        {
          "internalType": "contract SmartLoan",
          "name": "_smartLoanImplementation",
          "type": "address"
        }
      ],
      "name": "initialize",
      "outputs": [],
      "stateMutability": "nonpayable",
      "type": "function"
    },
    {
      "inputs": [
        {
          "internalType": "address",
          "name": "",
          "type": "address"
        }
      ],
      "name": "loansToOwners",
      "outputs": [
        {
          "internalType": "address",
          "name": "",
          "type": "address"
        }
      ],
      "stateMutability": "view",
      "type": "function"
    },
    {
      "inputs": [],
      "name": "newMockedFunction",
      "outputs": [
        {
          "internalType": "uint256",
          "name": "",
          "type": "uint256"
        }
      ],
      "stateMutability": "view",
      "type": "function"
    },
    {
      "inputs": [],
      "name": "owner",
      "outputs": [
        {
          "internalType": "address",
          "name": "",
          "type": "address"
        }
      ],
      "stateMutability": "view",
      "type": "function"
    },
    {
      "inputs": [
        {
          "internalType": "address",
          "name": "",
          "type": "address"
        }
      ],
      "name": "ownersToLoans",
      "outputs": [
        {
          "internalType": "address",
          "name": "",
          "type": "address"
        }
      ],
      "stateMutability": "view",
      "type": "function"
    },
    {
      "inputs": [],
      "name": "renounceOwnership",
      "outputs": [],
      "stateMutability": "nonpayable",
      "type": "function"
    },
    {
      "inputs": [
        {
          "internalType": "address",
          "name": "newOwner",
          "type": "address"
        }
      ],
      "name": "transferOwnership",
      "outputs": [],
      "stateMutability": "nonpayable",
      "type": "function"
    },
    {
      "inputs": [],
      "name": "upgradeableBeacon",
      "outputs": [
        {
          "internalType": "contract UpgradeableBeacon",
          "name": "",
          "type": "address"
        }
      ],
      "stateMutability": "view",
      "type": "function"
    }
  ],
  "bytecode": "0x608060405234801561001057600080fd5b50613a81806100206000396000f3fe608060405260043610620000f25760003560e01c80638da5cb5b116200008b578063c4d66de81162000061578063c4d66de81462000325578063d26095201462000353578063e78fd9311462000383578063f2fde38b14620003b957620000f2565b80638da5cb5b14620002955780639891d03e14620002c5578063a5bfd16a14620002f557620000f2565b8063357719ef11620000cd578063357719ef14620001c35780635b012546146200020757806365ec1a45146200024b578063715018a6146200027b57620000f2565b80630e7fc86414620000f75780631f278b74146200013b5780633344a555146200017f575b600080fd5b3480156200010457600080fd5b506200012360048036038101906200011d919062001584565b620003e7565b60405162000132919062001915565b60405180910390f35b3480156200014857600080fd5b5062000167600480360381019062000161919062001584565b6200047f565b604051620001769190620018a0565b60405180910390f35b3480156200018c57600080fd5b50620001ab6004803603810190620001a5919062001584565b620004b2565b604051620001ba9190620018a0565b60405180910390f35b348015620001d057600080fd5b50620001ef6004803603810190620001e9919062001584565b6200051b565b604051620001fe9190620018a0565b60405180910390f35b3480156200021457600080fd5b506200023360048036038101906200022d919062001584565b6200054e565b604051620002429190620018a0565b60405180910390f35b3480156200025857600080fd5b5062000263620005b7565b60405162000272919062001932565b60405180910390f35b3480156200028857600080fd5b506200029362000853565b005b348015620002a257600080fd5b50620002ad620008e4565b604051620002bc9190620018a0565b60405180910390f35b348015620002d257600080fd5b50620002dd6200090e565b604051620002ec919062001a82565b60405180910390f35b3480156200030257600080fd5b506200030d62000918565b6040516200031c9190620018f1565b60405180910390f35b3480156200033257600080fd5b506200035160048036038101906200034b9190620015b0565b620009a8565b005b3480156200036057600080fd5b506200036b62000baa565b6040516200037a91906200194f565b60405180910390f35b620003a160048036038101906200039b9190620015dc565b62000bd0565b604051620003b0919062001932565b60405180910390f35b348015620003c657600080fd5b50620003e56004803603810190620003df919062001584565b62000f46565b005b60008073ffffffffffffffffffffffffffffffffffffffff16606760008473ffffffffffffffffffffffffffffffffffffffff1673ffffffffffffffffffffffffffffffffffffffff16815260200190815260200160002060009054906101000a900473ffffffffffffffffffffffffffffffffffffffff1673ffffffffffffffffffffffffffffffffffffffff1614159050919050565b60676020528060005260406000206000915054906101000a900473ffffffffffffffffffffffffffffffffffffffff1681565b6000606660008373ffffffffffffffffffffffffffffffffffffffff1673ffffffffffffffffffffffffffffffffffffffff16815260200190815260200160002060009054906101000a900473ffffffffffffffffffffffffffffffffffffffff169050919050565b60666020528060005260406000206000915054906101000a900473ffffffffffffffffffffffffffffffffffffffff1681565b6000606760008373ffffffffffffffffffffffffffffffffffffffff1673ffffffffffffffffffffffffffffffffffffffff16815260200190815260200160002060009054906101000a900473ffffffffffffffffffffffffffffffffffffffff169050919050565b60008073ffffffffffffffffffffffffffffffffffffffff16606660003373ffffffffffffffffffffffffffffffffffffffff1673ffffffffffffffffffffffffffffffffffffffff16815260200190815260200160002060009054906101000a900473ffffffffffffffffffffffffffffffffffffffff1673ffffffffffffffffffffffffffffffffffffffff161462000689576040517f08c379a00000000000000000000000000000000000000000000000000000000081526004016200068090620019d8565b60405180910390fd5b6000606560009054906101000a900473ffffffffffffffffffffffffffffffffffffffff16638129fc1c60e01b6000604051602401620006ca91906200196c565b604051602081830303815290604052907bffffffffffffffffffffffffffffffffffffffffffffffffffffffff19166020820180517bffffffffffffffffffffffffffffffffffffffffffffffffffffffff8381831617835250505050604051620007359062001523565b62000742929190620018bd565b604051809103906000f0801580156200075f573d6000803e3d6000fd5b509050600081905062000772816200104a565b8073ffffffffffffffffffffffffffffffffffffffff1663f2fde38b336040518263ffffffff1660e01b8152600401620007ad9190620018a0565b600060405180830381600087803b158015620007c857600080fd5b505af1158015620007dd573d6000803e3d6000fd5b505050503373ffffffffffffffffffffffffffffffffffffffff168173ffffffffffffffffffffffffffffffffffffffff167f74f440674c6106c61951acc831efcdce60effebf4fea0fdc74f0e5ad72f56a106000806040516200084392919062001989565b60405180910390a3809250505090565b6200085d620011ac565b73ffffffffffffffffffffffffffffffffffffffff166200087d620008e4565b73ffffffffffffffffffffffffffffffffffffffff1614620008d6576040517f08c379a0000000000000000000000000000000000000000000000000000000008152600401620008cd9062001a3e565b60405180910390fd5b620008e26000620011b4565b565b6000603360009054906101000a900473ffffffffffffffffffffffffffffffffffffffff16905090565b6000610539905090565b606060688054806020026020016040519081016040528092919081815260200182805480156200099e57602002820191906000526020600020905b8160009054906101000a900473ffffffffffffffffffffffffffffffffffffffff1673ffffffffffffffffffffffffffffffffffffffff168152602001906001019080831162000953575b5050505050905090565b600060019054906101000a900460ff16620009d25760008054906101000a900460ff1615620009dd565b620009dc6200127a565b5b62000a1f576040517f08c379a000000000000000000000000000000000000000000000000000000000815260040162000a1690620019fa565b60405180910390fd5b60008060019054906101000a900460ff16159050801562000a70576001600060016101000a81548160ff02191690831515021790555060016000806101000a81548160ff0219169083151502179055505b8160405162000a7f9062001531565b62000a8b9190620018a0565b604051809103906000f08015801562000aa8573d6000803e3d6000fd5b50606560006101000a81548173ffffffffffffffffffffffffffffffffffffffff021916908373ffffffffffffffffffffffffffffffffffffffff160217905550606560009054906101000a900473ffffffffffffffffffffffffffffffffffffffff1673ffffffffffffffffffffffffffffffffffffffff1663f2fde38b336040518263ffffffff1660e01b815260040162000b469190620018a0565b600060405180830381600087803b15801562000b6157600080fd5b505af115801562000b76573d6000803e3d6000fd5b5050505062000b846200128d565b801562000ba65760008060016101000a81548160ff0219169083151502179055505b5050565b606560009054906101000a900473ffffffffffffffffffffffffffffffffffffffff1681565b60008073ffffffffffffffffffffffffffffffffffffffff16606660003373ffffffffffffffffffffffffffffffffffffffff1673ffffffffffffffffffffffffffffffffffffffff16815260200190815260200160002060009054906101000a900473ffffffffffffffffffffffffffffffffffffffff1673ffffffffffffffffffffffffffffffffffffffff161462000ca2576040517f08c379a000000000000000000000000000000000000000000000000000000000815260040162000c9990620019d8565b60405180910390fd5b6000606560009054906101000a900473ffffffffffffffffffffffffffffffffffffffff16638129fc1c60e01b604051602401604051602081830303815290604052907bffffffffffffffffffffffffffffffffffffffffffffffffffffffff19166020820180517bffffffffffffffffffffffffffffffffffffffffffffffffffffffff838183161783525050505060405162000d409062001523565b62000d4d929190620018bd565b604051809103906000f08015801562000d6a573d6000803e3d6000fd5b509050600081905062000d7d816200104a565b8073ffffffffffffffffffffffffffffffffffffffff1663b60d4288346040518263ffffffff1660e01b81526004016000604051808303818588803b15801562000dc657600080fd5b505af115801562000ddb573d6000803e3d6000fd5b505050505062000e638163c5ebeaec60e01b8660405160240162000e00919062001a82565b604051602081830303815290604052907bffffffffffffffffffffffffffffffffffffffffffffffffffffffff19166020820180517bffffffffffffffffffffffffffffffffffffffffffffffffffffffff8381831617835250505050620012eb565b508073ffffffffffffffffffffffffffffffffffffffff1663f2fde38b336040518263ffffffff1660e01b815260040162000e9f9190620018a0565b600060405180830381600087803b15801562000eba57600080fd5b505af115801562000ecf573d6000803e3d6000fd5b505050503373ffffffffffffffffffffffffffffffffffffffff168173ffffffffffffffffffffffffffffffffffffffff167f74f440674c6106c61951acc831efcdce60effebf4fea0fdc74f0e5ad72f56a10348760405162000f3492919062001a9f565b60405180910390a38092505050919050565b62000f50620011ac565b73ffffffffffffffffffffffffffffffffffffffff1662000f70620008e4565b73ffffffffffffffffffffffffffffffffffffffff161462000fc9576040517f08c379a000000000000000000000000000000000000000000000000000000000815260040162000fc09062001a3e565b60405180910390fd5b600073ffffffffffffffffffffffffffffffffffffffff168173ffffffffffffffffffffffffffffffffffffffff1614156200103c576040517f08c379a00000000000000000000000000000000000000000000000000000000081526004016200103390620019b6565b60405180910390fd5b6200104781620011b4565b50565b80606660003373ffffffffffffffffffffffffffffffffffffffff1673ffffffffffffffffffffffffffffffffffffffff16815260200190815260200160002060006101000a81548173ffffffffffffffffffffffffffffffffffffffff021916908373ffffffffffffffffffffffffffffffffffffffff16021790555033606760008373ffffffffffffffffffffffffffffffffffffffff1673ffffffffffffffffffffffffffffffffffffffff16815260200190815260200160002060006101000a81548173ffffffffffffffffffffffffffffffffffffffff021916908373ffffffffffffffffffffffffffffffffffffffff1602179055506068819080600181540180825580915050600190039060005260206000200160009091909190916101000a81548173ffffffffffffffffffffffffffffffffffffffff021916908373ffffffffffffffffffffffffffffffffffffffff16021790555050565b600033905090565b6000603360009054906101000a900473ffffffffffffffffffffffffffffffffffffffff16905081603360006101000a81548173ffffffffffffffffffffffffffffffffffffffff021916908373ffffffffffffffffffffffffffffffffffffffff1602179055508173ffffffffffffffffffffffffffffffffffffffff168173ffffffffffffffffffffffffffffffffffffffff167f8be0079c531659141344cd1fd0a4f28419497f9722a3daafe3b4186f6b6457e060405160405180910390a35050565b6000620012873062001386565b15905090565b600060019054906101000a900460ff16620012df576040517f08c379a0000000000000000000000000000000000000000000000000000000008152600401620012d69062001a60565b60405180910390fd5b620012e9620013a9565b565b60606000620012fa8362001411565b90506000808573ffffffffffffffffffffffffffffffffffffffff168360405162001326919062001887565b6000604051808303816000865af19150503d806000811462001365576040519150601f19603f3d011682016040523d82523d6000602084013e6200136a565b606091505b50915091506200137b8282620014c1565b935050505092915050565b6000808273ffffffffffffffffffffffffffffffffffffffff163b119050919050565b600060019054906101000a900460ff16620013fb576040517f08c379a0000000000000000000000000000000000000000000000000000000008152600401620013f29062001a60565b60405180910390fd5b6200140f62001409620011ac565b620011b4565b565b6060600060613603359050600060416001602060408560ff1662001436919062001b7c565b62001442919062001b3d565b6200144e919062001b3d565b6200145a919062001b3d565b90506000845190506000606060405190508383018152600091505b828210156200149e57816020028760200101518260200282602001015260018201915062001475565b838436038460200183013760208385018201016040528095505050505050919050565b6060826200151a57600082511115620014dd5781518083602001fd5b6040517f08c379a0000000000000000000000000000000000000000000000000000000008152600401620015119062001a1c565b60405180910390fd5b81905092915050565b61105d8062001f5383390190565b610a9c8062002fb083390190565b600081359050620015508162001f04565b92915050565b600081359050620015678162001f1e565b92915050565b6000813590506200157e8162001f38565b92915050565b6000602082840312156200159757600080fd5b6000620015a7848285016200153f565b91505092915050565b600060208284031215620015c357600080fd5b6000620015d38482850162001556565b91505092915050565b600060208284031215620015ef57600080fd5b6000620015ff848285016200156d565b91505092915050565b600062001616838362001737565b60208301905092915050565b6200162d8162001c4c565b82525050565b6200163e8162001bbf565b82525050565b6000620016518262001adc565b6200165d818562001aff565b93506200166a8362001acc565b8060005b83811015620016a157815162001685888262001608565b9750620016928362001af2565b9250506001810190506200166e565b5085935050505092915050565b620016b98162001be7565b82525050565b6000620016cc8262001ae7565b620016d8818562001b10565b9350620016ea81856020860162001d00565b620016f58162001d65565b840191505092915050565b60006200170d8262001ae7565b62001719818562001b21565b93506200172b81856020860162001d00565b80840191505092915050565b620017428162001c60565b82525050565b620017538162001c60565b82525050565b620017648162001c88565b82525050565b620017758162001cb0565b82525050565b620017868162001cc4565b82525050565b60006200179b60268362001b2c565b9150620017a88262001d76565b604082019050919050565b6000620017c260228362001b2c565b9150620017cf8262001dc5565b604082019050919050565b6000620017e9602e8362001b2c565b9150620017f68262001e14565b604082019050919050565b600062001810601b8362001b2c565b91506200181d8262001e63565b602082019050919050565b60006200183760208362001b2c565b9150620018448262001e8c565b602082019050919050565b60006200185e602b8362001b2c565b91506200186b8262001eb5565b604082019050919050565b620018818162001c35565b82525050565b600062001895828462001700565b915081905092915050565b6000602082019050620018b7600083018462001633565b92915050565b6000604082019050620018d4600083018562001622565b8181036020830152620018e88184620016bf565b90509392505050565b600060208201905081810360008301526200190d818462001644565b905092915050565b60006020820190506200192c6000830184620016ae565b92915050565b600060208201905062001949600083018462001748565b92915050565b600060208201905062001966600083018462001759565b92915050565b60006020820190506200198360008301846200177b565b92915050565b6000604082019050620019a060008301856200176a565b620019af60208301846200176a565b9392505050565b60006020820190508181036000830152620019d1816200178c565b9050919050565b60006020820190508181036000830152620019f381620017b3565b9050919050565b6000602082019050818103600083015262001a1581620017da565b9050919050565b6000602082019050818103600083015262001a378162001801565b9050919050565b6000602082019050818103600083015262001a598162001828565b9050919050565b6000602082019050818103600083015262001a7b816200184f565b9050919050565b600060208201905062001a99600083018462001876565b92915050565b600060408201905062001ab6600083018562001876565b62001ac5602083018462001876565b9392505050565b6000819050602082019050919050565b600081519050919050565b600081519050919050565b6000602082019050919050565b600082825260208201905092915050565b600082825260208201905092915050565b600081905092915050565b600082825260208201905092915050565b600062001b4a8262001c07565b915062001b578362001c07565b92508261ffff0382111562001b715762001b7062001d36565b5b828201905092915050565b600062001b898262001c07565b915062001b968362001c07565b92508161ffff048311821515161562001bb45762001bb362001d36565b5b828202905092915050565b600062001bcc8262001c15565b9050919050565b600062001be08262001c15565b9050919050565b60008115159050919050565b600062001c008262001bd3565b9050919050565b600061ffff82169050919050565b600073ffffffffffffffffffffffffffffffffffffffff82169050919050565b6000819050919050565b600060ff82169050919050565b600062001c598262001cd8565b9050919050565b600062001c6d8262001c74565b9050919050565b600062001c818262001c15565b9050919050565b600062001c958262001c9c565b9050919050565b600062001ca98262001c15565b9050919050565b600062001cbd8262001c35565b9050919050565b600062001cd18262001c3f565b9050919050565b600062001ce58262001cec565b9050919050565b600062001cf98262001c15565b9050919050565b60005b8381101562001d2057808201518184015260208101905062001d03565b8381111562001d30576000848401525b50505050565b7f4e487b7100000000000000000000000000000000000000000000000000000000600052601160045260246000fd5b6000601f19601f8301169050919050565b7f4f776e61626c653a206e6577206f776e657220697320746865207a65726f206160008201527f6464726573730000000000000000000000000000000000000000000000000000602082015250565b7f4f6e6c79206f6e65206c6f616e20706572206f776e657220697320616c6c6f7760008201527f6564000000000000000000000000000000000000000000000000000000000000602082015250565b7f496e697469616c697a61626c653a20636f6e747261637420697320616c72656160008201527f647920696e697469616c697a6564000000000000000000000000000000000000602082015250565b7f50726f787920636f6e6e6563746f722063616c6c206661696c65640000000000600082015250565b7f4f776e61626c653a2063616c6c6572206973206e6f7420746865206f776e6572600082015250565b7f496e697469616c697a61626c653a20636f6e7472616374206973206e6f74206960008201527f6e697469616c697a696e67000000000000000000000000000000000000000000602082015250565b62001f0f8162001bbf565b811462001f1b57600080fd5b50565b62001f298162001bf3565b811462001f3557600080fd5b50565b62001f438162001c35565b811462001f4f57600080fd5b5056fe60806040526040516200105d3803806200105d8339818101604052810190620000299190620005f1565b60017fa3f0ad74e5423aebfd80d3ef4346578335a9a72aeaee59ff6cb3582b35133d5160001c6200005b91906200086c565b60001b7fa3f0ad74e5423aebfd80d3ef4346578335a9a72aeaee59ff6cb3582b35133d5060001b14620000b7577f4e487b7100000000000000000000000000000000000000000000000000000000600052600160045260246000fd5b620000cb82826000620000d360201b60201c565b505062000ac7565b620000e483620001da60201b60201c565b8273ffffffffffffffffffffffffffffffffffffffff167f1cf3b03a6cf19fa2baba4df148e9dcabedea7f8a5c07840e207e5c089be95d3e60405160405180910390a2600082511180620001355750805b15620001d557620001d38373ffffffffffffffffffffffffffffffffffffffff16635c60da1b6040518163ffffffff1660e01b815260040160206040518083038186803b1580156200018657600080fd5b505afa1580156200019b573d6000803e3d6000fd5b505050506040513d601f19601f82011682018060405250810190620001c19190620005c5565b836200038960201b620000371760201c565b505b505050565b620001f081620003bf60201b620000641760201c565b62000232576040517f08c379a0000000000000000000000000000000000000000000000000000000008152600401620002299062000775565b60405180910390fd5b620002c98173ffffffffffffffffffffffffffffffffffffffff16635c60da1b6040518163ffffffff1660e01b815260040160206040518083038186803b1580156200027d57600080fd5b505afa15801562000292573d6000803e3d6000fd5b505050506040513d601f19601f82011682018060405250810190620002b89190620005c5565b620003bf60201b620000641760201c565b6200030b576040517f08c379a00000000000000000000000000000000000000000000000000000000081526004016200030290620007b9565b60405180910390fd5b80620003457fa3f0ad74e5423aebfd80d3ef4346578335a9a72aeaee59ff6cb3582b35133d5060001b620003e260201b620000871760201c565b60000160006101000a81548173ffffffffffffffffffffffffffffffffffffffff021916908373ffffffffffffffffffffffffffffffffffffffff16021790555050565b6060620003b783836040518060600160405280602781526020016200103660279139620003ec60201b60201c565b905092915050565b6000808273ffffffffffffffffffffffffffffffffffffffff163b119050919050565b6000819050919050565b6060620003ff84620003bf60201b60201c565b62000441576040517f08c379a0000000000000000000000000000000000000000000000000000000008152600401620004389062000797565b60405180910390fd5b6000808573ffffffffffffffffffffffffffffffffffffffff16856040516200046b919062000738565b600060405180830381855af49150503d8060008114620004a8576040519150601f19603f3d011682016040523d82523d6000602084013e620004ad565b606091505b5091509150620004c5828286620004d060201b60201c565b925050509392505050565b60608315620004e25782905062000535565b600083511115620004f65782518084602001fd5b816040517f08c379a00000000000000000000000000000000000000000000000000000000081526004016200052c919062000751565b60405180910390fd5b9392505050565b6000620005536200054d8462000804565b620007db565b9050828152602081018484840111156200056c57600080fd5b62000579848285620008e5565b509392505050565b600081519050620005928162000aad565b92915050565b600082601f830112620005aa57600080fd5b8151620005bc8482602086016200053c565b91505092915050565b600060208284031215620005d857600080fd5b6000620005e88482850162000581565b91505092915050565b600080604083850312156200060557600080fd5b6000620006158582860162000581565b925050602083015167ffffffffffffffff8111156200063357600080fd5b620006418582860162000598565b9150509250929050565b600062000658826200083a565b62000664818562000850565b935062000676818560208601620008e5565b80840191505092915050565b60006200068f8262000845565b6200069b81856200085b565b9350620006ad818560208601620008e5565b620006b881620009af565b840191505092915050565b6000620006d26025836200085b565b9150620006df82620009c0565b604082019050919050565b6000620006f96026836200085b565b9150620007068262000a0f565b604082019050919050565b6000620007206030836200085b565b91506200072d8262000a5e565b604082019050919050565b60006200074682846200064b565b915081905092915050565b600060208201905081810360008301526200076d818462000682565b905092915050565b600060208201905081810360008301526200079081620006c3565b9050919050565b60006020820190508181036000830152620007b281620006ea565b9050919050565b60006020820190508181036000830152620007d48162000711565b9050919050565b6000620007e7620007fa565b9050620007f582826200091b565b919050565b6000604051905090565b600067ffffffffffffffff82111562000822576200082162000980565b5b6200082d82620009af565b9050602081019050919050565b600081519050919050565b600081519050919050565b600081905092915050565b600082825260208201905092915050565b60006200087982620008db565b91506200088683620008db565b9250828210156200089c576200089b62000951565b5b828203905092915050565b6000620008b482620008bb565b9050919050565b600073ffffffffffffffffffffffffffffffffffffffff82169050919050565b6000819050919050565b60005b8381101562000905578082015181840152602081019050620008e8565b8381111562000915576000848401525b50505050565b6200092682620009af565b810181811067ffffffffffffffff8211171562000948576200094762000980565b5b80604052505050565b7f4e487b7100000000000000000000000000000000000000000000000000000000600052601160045260246000fd5b7f4e487b7100000000000000000000000000000000000000000000000000000000600052604160045260246000fd5b6000601f19601f8301169050919050565b7f455243313936373a206e657720626561636f6e206973206e6f74206120636f6e60008201527f7472616374000000000000000000000000000000000000000000000000000000602082015250565b7f416464726573733a2064656c65676174652063616c6c20746f206e6f6e2d636f60008201527f6e74726163740000000000000000000000000000000000000000000000000000602082015250565b7f455243313936373a20626561636f6e20696d706c656d656e746174696f6e206960008201527f73206e6f74206120636f6e747261637400000000000000000000000000000000602082015250565b62000ab881620008a7565b811462000ac457600080fd5b50565b61055f8062000ad76000396000f3fe6080604052366100135761001161001d565b005b61001b61001d565b005b610025610091565b610035610030610093565b61011f565b565b606061005c838360405180606001604052806027815260200161050360279139610145565b905092915050565b6000808273ffffffffffffffffffffffffffffffffffffffff163b119050919050565b6000819050919050565b565b600061009d610212565b73ffffffffffffffffffffffffffffffffffffffff16635c60da1b6040518163ffffffff1660e01b815260040160206040518083038186803b1580156100e257600080fd5b505afa1580156100f6573d6000803e3d6000fd5b505050506040513d601f19601f8201168201806040525081019061011a91906102e5565b905090565b3660008037600080366000845af43d6000803e8060008114610140573d6000f35b3d6000fd5b606061015084610064565b61018f576040517f08c379a0000000000000000000000000000000000000000000000000000000008152600401610186906103d4565b60405180910390fd5b6000808573ffffffffffffffffffffffffffffffffffffffff16856040516101b7919061039b565b600060405180830381855af49150503d80600081146101f2576040519150601f19603f3d011682016040523d82523d6000602084013e6101f7565b606091505b5091509150610207828286610269565b925050509392505050565b60006102407fa3f0ad74e5423aebfd80d3ef4346578335a9a72aeaee59ff6cb3582b35133d5060001b610087565b60000160009054906101000a900473ffffffffffffffffffffffffffffffffffffffff16905090565b60608315610279578290506102c9565b60008351111561028c5782518084602001fd5b816040517f08c379a00000000000000000000000000000000000000000000000000000000081526004016102c091906103b2565b60405180910390fd5b9392505050565b6000815190506102df816104eb565b92915050565b6000602082840312156102f757600080fd5b6000610305848285016102d0565b91505092915050565b6000610319826103f4565b610323818561040a565b9350610333818560208601610458565b80840191505092915050565b600061034a826103ff565b6103548185610415565b9350610364818560208601610458565b61036d8161048b565b840191505092915050565b6000610385602683610415565b91506103908261049c565b604082019050919050565b60006103a7828461030e565b915081905092915050565b600060208201905081810360008301526103cc818461033f565b905092915050565b600060208201905081810360008301526103ed81610378565b9050919050565b600081519050919050565b600081519050919050565b600081905092915050565b600082825260208201905092915050565b600061043182610438565b9050919050565b600073ffffffffffffffffffffffffffffffffffffffff82169050919050565b60005b8381101561047657808201518184015260208101905061045b565b83811115610485576000848401525b50505050565b6000601f19601f8301169050919050565b7f416464726573733a2064656c65676174652063616c6c20746f206e6f6e2d636f60008201527f6e74726163740000000000000000000000000000000000000000000000000000602082015250565b6104f481610426565b81146104ff57600080fd5b5056fe416464726573733a206c6f772d6c6576656c2064656c65676174652063616c6c206661696c6564a2646970667358221220e315b5ae13d755f35a30ac5193a3d7551961da99f1fa532c06319914f1bfec5064736f6c63430008040033416464726573733a206c6f772d6c6576656c2064656c65676174652063616c6c206661696c6564608060405234801561001057600080fd5b50604051610a9c380380610a9c833981810160405281019061003291906101fd565b61004e61004361006360201b60201c565b61006b60201b60201c565b61005d8161012f60201b60201c565b50610312565b600033905090565b60008060009054906101000a900473ffffffffffffffffffffffffffffffffffffffff169050816000806101000a81548173ffffffffffffffffffffffffffffffffffffffff021916908373ffffffffffffffffffffffffffffffffffffffff1602179055508173ffffffffffffffffffffffffffffffffffffffff168173ffffffffffffffffffffffffffffffffffffffff167f8be0079c531659141344cd1fd0a4f28419497f9722a3daafe3b4186f6b6457e060405160405180910390a35050565b610142816101c560201b6103781760201c565b610181576040517f08c379a000000000000000000000000000000000000000000000000000000000815260040161017890610249565b60405180910390fd5b80600160006101000a81548173ffffffffffffffffffffffffffffffffffffffff021916908373ffffffffffffffffffffffffffffffffffffffff16021790555050565b6000808273ffffffffffffffffffffffffffffffffffffffff163b119050919050565b6000815190506101f7816102fb565b92915050565b60006020828403121561020f57600080fd5b600061021d848285016101e8565b91505092915050565b6000610233603383610269565b915061023e826102ac565b604082019050919050565b6000602082019050818103600083015261026281610226565b9050919050565b600082825260208201905092915050565b60006102858261028c565b9050919050565b600073ffffffffffffffffffffffffffffffffffffffff82169050919050565b7f5570677261646561626c65426561636f6e3a20696d706c656d656e746174696f60008201527f6e206973206e6f74206120636f6e747261637400000000000000000000000000602082015250565b6103048161027a565b811461030f57600080fd5b50565b61077b806103216000396000f3fe608060405234801561001057600080fd5b50600436106100575760003560e01c80633659cfe61461005c5780635c60da1b14610078578063715018a6146100965780638da5cb5b146100a0578063f2fde38b146100be575b600080fd5b61007660048036038101906100719190610508565b6100da565b005b6100806101a5565b60405161008d91906105a9565b60405180910390f35b61009e6101cf565b005b6100a8610257565b6040516100b591906105a9565b60405180910390f35b6100d860048036038101906100d39190610508565b610280565b005b6100e261039b565b73ffffffffffffffffffffffffffffffffffffffff16610100610257565b73ffffffffffffffffffffffffffffffffffffffff1614610156576040517f08c379a000000000000000000000000000000000000000000000000000000000815260040161014d90610604565b60405180910390fd5b61015f816103a3565b8073ffffffffffffffffffffffffffffffffffffffff167fbc7cd75a20ee27fd9adebab32041f755214dbc6bffa90cc0225b39da2e5c2d3b60405160405180910390a250565b6000600160009054906101000a900473ffffffffffffffffffffffffffffffffffffffff16905090565b6101d761039b565b73ffffffffffffffffffffffffffffffffffffffff166101f5610257565b73ffffffffffffffffffffffffffffffffffffffff161461024b576040517f08c379a000000000000000000000000000000000000000000000000000000000815260040161024290610604565b60405180910390fd5b610255600061042f565b565b60008060009054906101000a900473ffffffffffffffffffffffffffffffffffffffff16905090565b61028861039b565b73ffffffffffffffffffffffffffffffffffffffff166102a6610257565b73ffffffffffffffffffffffffffffffffffffffff16146102fc576040517f08c379a00000000000000000000000000000000000000000000000000000000081526004016102f390610604565b60405180910390fd5b600073ffffffffffffffffffffffffffffffffffffffff168173ffffffffffffffffffffffffffffffffffffffff16141561036c576040517f08c379a0000000000000000000000000000000000000000000000000000000008152600401610363906105c4565b60405180910390fd5b6103758161042f565b50565b6000808273ffffffffffffffffffffffffffffffffffffffff163b119050919050565b600033905090565b6103ac81610378565b6103eb576040517f08c379a00000000000000000000000000000000000000000000000000000000081526004016103e2906105e4565b60405180910390fd5b80600160006101000a81548173ffffffffffffffffffffffffffffffffffffffff021916908373ffffffffffffffffffffffffffffffffffffffff16021790555050565b60008060009054906101000a900473ffffffffffffffffffffffffffffffffffffffff169050816000806101000a81548173ffffffffffffffffffffffffffffffffffffffff021916908373ffffffffffffffffffffffffffffffffffffffff1602179055508173ffffffffffffffffffffffffffffffffffffffff168173ffffffffffffffffffffffffffffffffffffffff167f8be0079c531659141344cd1fd0a4f28419497f9722a3daafe3b4186f6b6457e060405160405180910390a35050565b6000813590506105028161072e565b92915050565b60006020828403121561051a57600080fd5b6000610528848285016104f3565b91505092915050565b61053a81610635565b82525050565b600061054d602683610624565b915061055882610667565b604082019050919050565b6000610570603383610624565b915061057b826106b6565b604082019050919050565b6000610593602083610624565b915061059e82610705565b602082019050919050565b60006020820190506105be6000830184610531565b92915050565b600060208201905081810360008301526105dd81610540565b9050919050565b600060208201905081810360008301526105fd81610563565b9050919050565b6000602082019050818103600083015261061d81610586565b9050919050565b600082825260208201905092915050565b600061064082610647565b9050919050565b600073ffffffffffffffffffffffffffffffffffffffff82169050919050565b7f4f776e61626c653a206e6577206f776e657220697320746865207a65726f206160008201527f6464726573730000000000000000000000000000000000000000000000000000602082015250565b7f5570677261646561626c65426561636f6e3a20696d706c656d656e746174696f60008201527f6e206973206e6f74206120636f6e747261637400000000000000000000000000602082015250565b7f4f776e61626c653a2063616c6c6572206973206e6f7420746865206f776e6572600082015250565b61073781610635565b811461074257600080fd5b5056fea2646970667358221220151149c73270d1d35004fd185e9ecf2410985d323d9acbd45abd8d5e4166665664736f6c63430008040033a26469706673582212200fac128f1ce401c8e052e508bf5e65d0a1c7357eca58c9f73ee6c234b73ea0bb64736f6c63430008040033",
  "linkReferences": {},
  "deployedLinkReferences": {}
}