{
  "_format": "hh-sol-artifact-1",
  "contractName": "FixedRatesCalculator",
  "sourceName": "contracts/deprecated/FixedRatesCalculator.sol",
  "abi": [
    {
      "inputs": [
        {
          "internalType": "uint256",
          "name": "_depositRate",
          "type": "uint256"
        },
        {
          "internalType": "uint256",
          "name": "_borrowingRate",
          "type": "uint256"
        }
      ],
      "stateMutability": "nonpayable",
      "type": "constructor"
    },
    {
      "anonymous": false,
      "inputs": [
        {
          "indexed": true,
          "internalType": "address",
          "name": "previousOwner",
          "type": "address"
        },
        {
          "indexed": true,
          "internalType": "address",
          "name": "newOwner",
          "type": "address"
        }
      ],
      "name": "OwnershipTransferred",
      "type": "event"
    },
    {
      "anonymous": false,
      "inputs": [
        {
          "indexed": false,
          "internalType": "uint256",
          "name": "updatedDepositRate",
          "type": "uint256"
        },
        {
          "indexed": false,
          "internalType": "uint256",
          "name": "updatedBorrowingRate",
          "type": "uint256"
        }
      ],
      "name": "RatesUpdated",
      "type": "event"
    },
    {
      "inputs": [
        {
          "internalType": "uint256",
          "name": "totalLoans",
          "type": "uint256"
        },
        {
          "internalType": "uint256",
          "name": "totalDeposits",
          "type": "uint256"
        }
      ],
      "name": "calculateBorrowingRate",
      "outputs": [
        {
          "internalType": "uint256",
          "name": "",
          "type": "uint256"
        }
      ],
      "stateMutability": "view",
      "type": "function"
    },
    {
      "inputs": [
        {
          "internalType": "uint256",
          "name": "totalLoans",
          "type": "uint256"
        },
        {
          "internalType": "uint256",
          "name": "totalDeposits",
          "type": "uint256"
        }
      ],
      "name": "calculateDepositRate",
      "outputs": [
        {
          "internalType": "uint256",
          "name": "",
          "type": "uint256"
        }
      ],
      "stateMutability": "view",
      "type": "function"
    },
    {
      "inputs": [],
      "name": "owner",
      "outputs": [
        {
          "internalType": "address",
          "name": "",
          "type": "address"
        }
      ],
      "stateMutability": "view",
      "type": "function"
    },
    {
      "inputs": [],
      "name": "renounceOwnership",
      "outputs": [],
      "stateMutability": "nonpayable",
      "type": "function"
    },
    {
      "inputs": [
        {
          "internalType": "uint256",
          "name": "_depositRate",
          "type": "uint256"
        },
        {
          "internalType": "uint256",
          "name": "_borrowingRate",
          "type": "uint256"
        }
      ],
      "name": "setRates",
      "outputs": [],
      "stateMutability": "nonpayable",
      "type": "function"
    },
    {
      "inputs": [
        {
          "internalType": "address",
          "name": "newOwner",
          "type": "address"
        }
      ],
      "name": "transferOwnership",
      "outputs": [],
      "stateMutability": "nonpayable",
      "type": "function"
    }
  ],
  "bytecode": "0x60806040523480156200001157600080fd5b5060405162000c8238038062000c828339818101604052810190620000379190620002a3565b620000576200004b6200007160201b60201c565b6200007960201b60201c565b6200006982826200013d60201b60201c565b505062000461565b600033905090565b60008060009054906101000a900473ffffffffffffffffffffffffffffffffffffffff169050816000806101000a81548173ffffffffffffffffffffffffffffffffffffffff021916908373ffffffffffffffffffffffffffffffffffffffff1602179055508173ffffffffffffffffffffffffffffffffffffffff168173ffffffffffffffffffffffffffffffffffffffff167f8be0079c531659141344cd1fd0a4f28419497f9722a3daafe3b4186f6b6457e060405160405180910390a35050565b6200014d6200007160201b60201c565b73ffffffffffffffffffffffffffffffffffffffff16620001736200026360201b60201c565b73ffffffffffffffffffffffffffffffffffffffff1614620001cc576040517f08c379a0000000000000000000000000000000000000000000000000000000008152600401620001c39062000365565b60405180910390fd5b8082111562000212576040517f08c379a0000000000000000000000000000000000000000000000000000000008152600401620002099062000343565b60405180910390fd5b81600181905550806002819055507f0cf6ce3db485f79e960e63b1550af071fe0c99c09834149273e0fa8b32018ff86001546002546040516200025792919062000387565b60405180910390a15050565b60008060009054906101000a900473ffffffffffffffffffffffffffffffffffffffff16905090565b6000815190506200029d8162000447565b92915050565b60008060408385031215620002b757600080fd5b6000620002c7858286016200028c565b9250506020620002da858286016200028c565b9150509250929050565b6000620002f3603683620003b4565b91506200030082620003cf565b604082019050919050565b60006200031a602083620003b4565b915062000327826200041e565b602082019050919050565b6200033d81620003c5565b82525050565b600060208201905081810360008301526200035e81620002e4565b9050919050565b6000602082019050818103600083015262000380816200030b565b9050919050565b60006040820190506200039e600083018562000332565b620003ad602083018462000332565b9392505050565b600082825260208201905092915050565b6000819050919050565b7f4120626f72726f77696e6720726174652063616e6e6f74206265206c6f77657260008201527f207468616e20746865206465706f736974207261746500000000000000000000602082015250565b7f4f776e61626c653a2063616c6c6572206973206e6f7420746865206f776e6572600082015250565b6200045281620003c5565b81146200045e57600080fd5b50565b61081180620004716000396000f3fe608060405234801561001057600080fd5b50600436106100625760003560e01c8063715018a6146100675780637cd08331146100715780638da5cb5b146100a1578063ac6af280146100bf578063df841eec146100db578063f2fde38b1461010b575b600080fd5b61006f610127565b005b61008b60048036038101906100869190610517565b6101af565b6040516100989190610655565b60405180910390f35b6100a96101bc565b6040516100b691906105da565b60405180910390f35b6100d960048036038101906100d49190610517565b6101e5565b005b6100f560048036038101906100f09190610517565b6102f3565b6040516101029190610655565b60405180910390f35b610125600480360381019061012091906104ee565b610300565b005b61012f6103f8565b73ffffffffffffffffffffffffffffffffffffffff1661014d6101bc565b73ffffffffffffffffffffffffffffffffffffffff16146101a3576040517f08c379a000000000000000000000000000000000000000000000000000000000815260040161019a90610635565b60405180910390fd5b6101ad6000610400565b565b6000600154905092915050565b60008060009054906101000a900473ffffffffffffffffffffffffffffffffffffffff16905090565b6101ed6103f8565b73ffffffffffffffffffffffffffffffffffffffff1661020b6101bc565b73ffffffffffffffffffffffffffffffffffffffff1614610261576040517f08c379a000000000000000000000000000000000000000000000000000000000815260040161025890610635565b60405180910390fd5b808211156102a4576040517f08c379a000000000000000000000000000000000000000000000000000000000815260040161029b90610615565b60405180910390fd5b81600181905550806002819055507f0cf6ce3db485f79e960e63b1550af071fe0c99c09834149273e0fa8b32018ff86001546002546040516102e7929190610670565b60405180910390a15050565b6000600254905092915050565b6103086103f8565b73ffffffffffffffffffffffffffffffffffffffff166103266101bc565b73ffffffffffffffffffffffffffffffffffffffff161461037c576040517f08c379a000000000000000000000000000000000000000000000000000000000815260040161037390610635565b60405180910390fd5b600073ffffffffffffffffffffffffffffffffffffffff168173ffffffffffffffffffffffffffffffffffffffff1614156103ec576040517f08c379a00000000000000000000000000000000000000000000000000000000081526004016103e3906105f5565b60405180910390fd5b6103f581610400565b50565b600033905090565b60008060009054906101000a900473ffffffffffffffffffffffffffffffffffffffff169050816000806101000a81548173ffffffffffffffffffffffffffffffffffffffff021916908373ffffffffffffffffffffffffffffffffffffffff1602179055508173ffffffffffffffffffffffffffffffffffffffff168173ffffffffffffffffffffffffffffffffffffffff167f8be0079c531659141344cd1fd0a4f28419497f9722a3daafe3b4186f6b6457e060405160405180910390a35050565b6000813590506104d3816107ad565b92915050565b6000813590506104e8816107c4565b92915050565b60006020828403121561050057600080fd5b600061050e848285016104c4565b91505092915050565b6000806040838503121561052a57600080fd5b6000610538858286016104d9565b9250506020610549858286016104d9565b9150509250929050565b61055c816106aa565b82525050565b600061056f602683610699565b915061057a826106e6565b604082019050919050565b6000610592603683610699565b915061059d82610735565b604082019050919050565b60006105b5602083610699565b91506105c082610784565b602082019050919050565b6105d4816106dc565b82525050565b60006020820190506105ef6000830184610553565b92915050565b6000602082019050818103600083015261060e81610562565b9050919050565b6000602082019050818103600083015261062e81610585565b9050919050565b6000602082019050818103600083015261064e816105a8565b9050919050565b600060208201905061066a60008301846105cb565b92915050565b600060408201905061068560008301856105cb565b61069260208301846105cb565b9392505050565b600082825260208201905092915050565b60006106b5826106bc565b9050919050565b600073ffffffffffffffffffffffffffffffffffffffff82169050919050565b6000819050919050565b7f4f776e61626c653a206e6577206f776e657220697320746865207a65726f206160008201527f6464726573730000000000000000000000000000000000000000000000000000602082015250565b7f4120626f72726f77696e6720726174652063616e6e6f74206265206c6f77657260008201527f207468616e20746865206465706f736974207261746500000000000000000000602082015250565b7f4f776e61626c653a2063616c6c6572206973206e6f7420746865206f776e6572600082015250565b6107b6816106aa565b81146107c157600080fd5b50565b6107cd816106dc565b81146107d857600080fd5b5056fea2646970667358221220df24bf82c4bd6313c8e036c81d9a1593dcb4bb166639656c81329ba017e03d6a64736f6c63430008040033",
  "linkReferences": {},
  "deployedLinkReferences": {}
}