{
  "_format": "hh-sol-artifact-1",
  "contractName": "MockUpgradedPool",
  "sourceName": "contracts/mock/MockUpgradedPool.sol",
  "abi": [
    {
      "anonymous": false,
      "inputs": [
        {
          "indexed": true,
          "internalType": "address",
          "name": "owner",
          "type": "address"
        },
        {
          "indexed": true,
          "internalType": "address",
          "name": "spender",
          "type": "address"
        },
        {
          "indexed": false,
          "internalType": "uint256",
          "name": "value",
          "type": "uint256"
        }
      ],
      "name": "Approval",
      "type": "event"
    },
    {
      "anonymous": false,
      "inputs": [
        {
          "indexed": true,
          "internalType": "address",
          "name": "registry",
          "type": "address"
        },
        {
          "indexed": false,
          "internalType": "uint256",
          "name": "timestamp",
          "type": "uint256"
        }
      ],
      "name": "BorrowersRegistryChanged",
      "type": "event"
    },
    {
      "anonymous": false,
      "inputs": [
        {
          "indexed": true,
          "internalType": "address",
          "name": "user",
          "type": "address"
        },
        {
          "indexed": false,
          "internalType": "uint256",
          "name": "value",
          "type": "uint256"
        },
        {
          "indexed": false,
          "internalType": "uint256",
          "name": "timestamp",
          "type": "uint256"
        }
      ],
      "name": "Borrowing",
      "type": "event"
    },
    {
      "anonymous": false,
      "inputs": [
        {
          "indexed": true,
          "internalType": "address",
          "name": "user",
          "type": "address"
        },
        {
          "indexed": false,
          "internalType": "uint256",
          "name": "value",
          "type": "uint256"
        },
        {
          "indexed": false,
          "internalType": "uint256",
          "name": "timestamp",
          "type": "uint256"
        }
      ],
      "name": "Deposit",
      "type": "event"
    },
    {
      "anonymous": false,
      "inputs": [
        {
          "indexed": true,
          "internalType": "address",
          "name": "user",
          "type": "address"
        },
        {
          "indexed": false,
          "internalType": "uint256",
          "name": "value",
          "type": "uint256"
        },
        {
          "indexed": false,
          "internalType": "uint256",
          "name": "timestamp",
          "type": "uint256"
        }
      ],
      "name": "InterestCollected",
      "type": "event"
    },
    {
      "anonymous": false,
      "inputs": [
        {
          "indexed": true,
          "internalType": "address",
          "name": "previousOwner",
          "type": "address"
        },
        {
          "indexed": true,
          "internalType": "address",
          "name": "newOwner",
          "type": "address"
        }
      ],
      "name": "OwnershipTransferred",
      "type": "event"
    },
    {
      "anonymous": false,
      "inputs": [
        {
          "indexed": true,
          "internalType": "address",
          "name": "user",
          "type": "address"
        },
        {
          "indexed": false,
          "internalType": "uint256",
          "name": "value",
          "type": "uint256"
        },
        {
          "indexed": false,
          "internalType": "uint256",
          "name": "timestamp",
          "type": "uint256"
        }
      ],
      "name": "Repayment",
      "type": "event"
    },
    {
      "anonymous": false,
      "inputs": [
        {
          "indexed": true,
          "internalType": "address",
          "name": "from",
          "type": "address"
        },
        {
          "indexed": true,
          "internalType": "address",
          "name": "to",
          "type": "address"
        },
        {
          "indexed": false,
          "internalType": "uint256",
          "name": "value",
          "type": "uint256"
        }
      ],
      "name": "Transfer",
      "type": "event"
    },
    {
      "anonymous": false,
      "inputs": [
        {
          "indexed": true,
          "internalType": "address",
          "name": "user",
          "type": "address"
        },
        {
          "indexed": false,
          "internalType": "uint256",
          "name": "value",
          "type": "uint256"
        },
        {
          "indexed": false,
          "internalType": "uint256",
          "name": "timestamp",
          "type": "uint256"
        }
      ],
      "name": "Withdrawal",
      "type": "event"
    },
    {
      "inputs": [],
      "name": "MAX_POOL_UTILISATION_FOR_BORROWING",
      "outputs": [
        {
          "internalType": "uint256",
          "name": "",
          "type": "uint256"
        }
      ],
      "stateMutability": "view",
      "type": "function"
    },
    {
      "inputs": [
        {
          "internalType": "address",
          "name": "owner",
          "type": "address"
        },
        {
          "internalType": "address",
          "name": "spender",
          "type": "address"
        }
      ],
      "name": "allowance",
      "outputs": [
        {
          "internalType": "uint256",
          "name": "",
          "type": "uint256"
        }
      ],
      "stateMutability": "view",
      "type": "function"
    },
    {
      "inputs": [
        {
          "internalType": "address",
          "name": "spender",
          "type": "address"
        },
        {
          "internalType": "uint256",
          "name": "amount",
          "type": "uint256"
        }
      ],
      "name": "approve",
      "outputs": [
        {
          "internalType": "bool",
          "name": "",
          "type": "bool"
        }
      ],
      "stateMutability": "nonpayable",
      "type": "function"
    },
    {
      "inputs": [
        {
          "internalType": "address",
          "name": "user",
          "type": "address"
        }
      ],
      "name": "balanceOf",
      "outputs": [
        {
          "internalType": "uint256",
          "name": "",
          "type": "uint256"
        }
      ],
      "stateMutability": "view",
      "type": "function"
    },
    {
      "inputs": [
        {
          "internalType": "uint256",
          "name": "_amount",
          "type": "uint256"
        }
      ],
      "name": "borrow",
      "outputs": [],
      "stateMutability": "nonpayable",
      "type": "function"
    },
    {
      "inputs": [
        {
          "internalType": "address",
          "name": "",
          "type": "address"
        }
      ],
      "name": "borrowed",
      "outputs": [
        {
          "internalType": "uint256",
          "name": "",
          "type": "uint256"
        }
      ],
      "stateMutability": "view",
      "type": "function"
    },
    {
      "inputs": [
        {
          "internalType": "address",
          "name": "spender",
          "type": "address"
        },
        {
          "internalType": "uint256",
          "name": "subtractedValue",
          "type": "uint256"
        }
      ],
      "name": "decreaseAllowance",
      "outputs": [
        {
          "internalType": "bool",
          "name": "",
          "type": "bool"
        }
      ],
      "stateMutability": "nonpayable",
      "type": "function"
    },
    {
      "inputs": [],
      "name": "deposit",
      "outputs": [],
      "stateMutability": "payable",
      "type": "function"
    },
    {
      "inputs": [
        {
          "internalType": "address",
          "name": "_user",
          "type": "address"
        }
      ],
      "name": "getBorrowed",
      "outputs": [
        {
          "internalType": "uint256",
          "name": "",
          "type": "uint256"
        }
      ],
      "stateMutability": "view",
      "type": "function"
    },
    {
      "inputs": [],
      "name": "getBorrowingRate",
      "outputs": [
        {
          "internalType": "uint256",
          "name": "",
          "type": "uint256"
        }
      ],
      "stateMutability": "view",
      "type": "function"
    },
    {
      "inputs": [],
      "name": "getDepositRate",
      "outputs": [
        {
          "internalType": "uint256",
          "name": "",
          "type": "uint256"
        }
      ],
      "stateMutability": "view",
      "type": "function"
    },
    {
      "inputs": [
        {
          "internalType": "address",
          "name": "spender",
          "type": "address"
        },
        {
          "internalType": "uint256",
          "name": "addedValue",
          "type": "uint256"
        }
      ],
      "name": "increaseAllowance",
      "outputs": [
        {
          "internalType": "bool",
          "name": "",
          "type": "bool"
        }
      ],
      "stateMutability": "nonpayable",
      "type": "function"
    },
    {
      "inputs": [
        {
          "internalType": "contract IRatesCalculator",
          "name": "ratesCalculator_",
          "type": "address"
        },
        {
          "internalType": "contract IBorrowersRegistry",
          "name": "borrowersRegistry_",
          "type": "address"
        },
        {
          "internalType": "contract CompoundingIndex",
          "name": "depositIndex_",
          "type": "address"
        },
        {
          "internalType": "contract CompoundingIndex",
          "name": "borrowIndex_",
          "type": "address"
        }
      ],
      "name": "initialize",
      "outputs": [],
      "stateMutability": "nonpayable",
      "type": "function"
    },
    {
      "inputs": [],
      "name": "owner",
      "outputs": [
        {
          "internalType": "address",
          "name": "",
          "type": "address"
        }
      ],
      "stateMutability": "view",
      "type": "function"
    },
    {
      "inputs": [
        {
          "internalType": "uint256",
          "name": "amount",
          "type": "uint256"
        },
        {
          "internalType": "address",
          "name": "account",
          "type": "address"
        }
      ],
      "name": "recoverSurplus",
      "outputs": [],
      "stateMutability": "nonpayable",
      "type": "function"
    },
    {
      "inputs": [],
      "name": "renounceOwnership",
      "outputs": [],
      "stateMutability": "nonpayable",
      "type": "function"
    },
    {
      "inputs": [],
      "name": "repay",
      "outputs": [],
      "stateMutability": "payable",
      "type": "function"
    },
    {
      "inputs": [
        {
          "internalType": "contract IBorrowersRegistry",
          "name": "borrowersRegistry_",
          "type": "address"
        }
      ],
      "name": "setBorrowersRegistry",
      "outputs": [],
      "stateMutability": "nonpayable",
      "type": "function"
    },
    {
      "inputs": [
        {
          "internalType": "contract IRatesCalculator",
          "name": "ratesCalculator_",
          "type": "address"
        }
      ],
      "name": "setRatesCalculator",
      "outputs": [],
      "stateMutability": "nonpayable",
      "type": "function"
    },
    {
      "inputs": [],
      "name": "totalBorrowed",
      "outputs": [
        {
          "internalType": "uint256",
          "name": "",
          "type": "uint256"
        }
      ],
      "stateMutability": "view",
      "type": "function"
    },
    {
      "inputs": [],
      "name": "totalSupply",
      "outputs": [
        {
          "internalType": "uint256",
          "name": "",
          "type": "uint256"
        }
      ],
      "stateMutability": "view",
      "type": "function"
    },
    {
      "inputs": [
        {
          "internalType": "address",
          "name": "recipient",
          "type": "address"
        },
        {
          "internalType": "uint256",
          "name": "amount",
          "type": "uint256"
        }
      ],
      "name": "transfer",
      "outputs": [
        {
          "internalType": "bool",
          "name": "",
          "type": "bool"
        }
      ],
      "stateMutability": "nonpayable",
      "type": "function"
    },
    {
      "inputs": [
        {
          "internalType": "address",
          "name": "sender",
          "type": "address"
        },
        {
          "internalType": "address",
          "name": "recipient",
          "type": "address"
        },
        {
          "internalType": "uint256",
          "name": "amount",
          "type": "uint256"
        }
      ],
      "name": "transferFrom",
      "outputs": [
        {
          "internalType": "bool",
          "name": "",
          "type": "bool"
        }
      ],
      "stateMutability": "nonpayable",
      "type": "function"
    },
    {
      "inputs": [
        {
          "internalType": "address",
          "name": "newOwner",
          "type": "address"
        }
      ],
      "name": "transferOwnership",
      "outputs": [],
      "stateMutability": "nonpayable",
      "type": "function"
    },
    {
      "inputs": [
        {
          "internalType": "uint256",
          "name": "_amount",
          "type": "uint256"
        }
      ],
      "name": "withdraw",
      "outputs": [],
      "stateMutability": "nonpayable",
      "type": "function"
    }
  ],
  "bytecode": "0x608060405234801561001057600080fd5b50614abf806100206000396000f3fe6080604052600436106101665760003560e01c8063715018a6116100d1578063c5ebeaec1161008a578063f2fde38b11610064578063f2fde38b14610536578063f36b24251461055f578063f8c8765e1461058a578063fc68f661146105b357610166565b8063c5ebeaec146104c6578063d0e30db0146104ef578063dd62ed3e146104f957610166565b8063715018a6146103b45780638da5cb5b146103cb5780639dcee9a4146103f6578063a457c2d714610421578063a9059cbb1461045e578063b790634e1461049b57610166565b80633950935111610123578063395093511461029f578063402d8883146102dc5780634c19386c146102e65780636011163e1461031157806370a082311461034e57806370d4cea01461038b57610166565b80630790ef9a1461016b5780630941cb3d14610194578063095ea7b3146101d157806318160ddd1461020e57806323b872dd146102395780632e1a7d4d14610276575b600080fd5b34801561017757600080fd5b50610192600480360381019061018d919061376c565b6105dc565b005b3480156101a057600080fd5b506101bb60048036038101906101b6919061354c565b61078b565b6040516101c89190613f64565b60405180910390f35b3480156101dd57600080fd5b506101f860048036038101906101f39190613600565b6107a3565b6040516102059190613be9565b60405180910390f35b34801561021a57600080fd5b50610223610904565b6040516102309190613f64565b60405180910390f35b34801561024557600080fd5b50610260600480360381019061025b91906135b1565b610914565b60405161026d9190613be9565b60405180910390f35b34801561028257600080fd5b5061029d6004803603810190610298919061371a565b610cf7565b005b3480156102ab57600080fd5b506102c660048036038101906102c19190613600565b610e27565b6040516102d39190613be9565b60405180910390f35b6102e4611015565b005b3480156102f257600080fd5b506102fb6111fc565b6040516103089190613f64565b60405180910390f35b34801561031d57600080fd5b506103386004803603810190610333919061354c565b61120c565b6040516103459190613f64565b60405180910390f35b34801561035a57600080fd5b506103756004803603810190610370919061354c565b611301565b6040516103829190613f64565b60405180910390f35b34801561039757600080fd5b506103b260048036038101906103ad919061368e565b6113f6565b005b3480156103c057600080fd5b506103c9611572565b005b3480156103d757600080fd5b506103e06115fa565b6040516103ed9190613bce565b60405180910390f35b34801561040257600080fd5b5061040b611624565b6040516104189190613f64565b60405180910390f35b34801561042d57600080fd5b5061044860048036038101906104439190613600565b611630565b6040516104559190613be9565b60405180910390f35b34801561046a57600080fd5b5061048560048036038101906104809190613600565b611867565b6040516104929190613be9565b60405180910390f35b3480156104a757600080fd5b506104b0611aed565b6040516104bd9190613f64565b60405180910390f35b3480156104d257600080fd5b506104ed60048036038101906104e8919061371a565b611baf565b005b6104f7611fbf565b005b34801561050557600080fd5b50610520600480360381019061051b9190613575565b612038565b60405161052d9190613f64565b60405180910390f35b34801561054257600080fd5b5061055d6004803603810190610558919061354c565b6120bf565b005b34801561056b57600080fd5b506105746121b7565b6040516105819190613f64565b60405180910390f35b34801561059657600080fd5b506105b160048036038101906105ac91906136b7565b612279565b005b3480156105bf57600080fd5b506105da60048036038101906105d59190613665565b6124c5565b005b6105e461268b565b73ffffffffffffffffffffffffffffffffffffffff166106026115fa565b73ffffffffffffffffffffffffffffffffffffffff1614610658576040517f08c379a000000000000000000000000000000000000000000000000000000000815260040161064f90613e64565b60405180910390fd5b6002606554141561069e576040517f08c379a000000000000000000000000000000000000000000000000000000000815260040161069590613f04565b60405180910390fd5b600260658190555060006106b0610904565b6106b86111fc565b476106c39190613ff8565b6106cd91906140d9565b905047831115610712576040517f08c379a000000000000000000000000000000000000000000000000000000000815260040161070990613e24565b60405180910390fd5b80831115610755576040517f08c379a000000000000000000000000000000000000000000000000000000000815260040161074c90613f24565b60405180910390fd5b61077e838373ffffffffffffffffffffffffffffffffffffffff1661269390919063ffffffff16565b5060016065819055505050565b60996020528060005260406000206000915090505481565b60008073ffffffffffffffffffffffffffffffffffffffff168373ffffffffffffffffffffffffffffffffffffffff161415610814576040517f08c379a000000000000000000000000000000000000000000000000000000000815260040161080b90613ea4565b60405180910390fd5b81609760003373ffffffffffffffffffffffffffffffffffffffff1673ffffffffffffffffffffffffffffffffffffffff16815260200190815260200160002060008573ffffffffffffffffffffffffffffffffffffffff1673ffffffffffffffffffffffffffffffffffffffff168152602001908152602001600020819055508273ffffffffffffffffffffffffffffffffffffffff163373ffffffffffffffffffffffffffffffffffffffff167f8c5be1e5ebec7d5bd14f71427d1e84f3dd0314c0f7b2291e5b200ac8c7c3b925846040516108f29190613f64565b60405180910390a36001905092915050565b600061090f30611301565b905090565b600081609760008673ffffffffffffffffffffffffffffffffffffffff1673ffffffffffffffffffffffffffffffffffffffff16815260200190815260200160002060003373ffffffffffffffffffffffffffffffffffffffff1673ffffffffffffffffffffffffffffffffffffffff1681526020019081526020016000205410156109d5576040517f08c379a00000000000000000000000000000000000000000000000000000000081526004016109cc90613d64565b60405180910390fd5b600073ffffffffffffffffffffffffffffffffffffffff168373ffffffffffffffffffffffffffffffffffffffff161415610a45576040517f08c379a0000000000000000000000000000000000000000000000000000000008152600401610a3c90613cc4565b60405180910390fd5b3073ffffffffffffffffffffffffffffffffffffffff168373ffffffffffffffffffffffffffffffffffffffff161415610ab4576040517f08c379a0000000000000000000000000000000000000000000000000000000008152600401610aab90613e84565b60405180910390fd5b610abd336127b9565b81609860008673ffffffffffffffffffffffffffffffffffffffff1673ffffffffffffffffffffffffffffffffffffffff168152602001908152602001600020541015610b3f576040517f08c379a0000000000000000000000000000000000000000000000000000000008152600401610b3690613ce4565b60405180910390fd5b81609860008673ffffffffffffffffffffffffffffffffffffffff1673ffffffffffffffffffffffffffffffffffffffff1681526020019081526020016000206000828254610b8e91906140d9565b9250508190555081609760008673ffffffffffffffffffffffffffffffffffffffff1673ffffffffffffffffffffffffffffffffffffffff16815260200190815260200160002060003373ffffffffffffffffffffffffffffffffffffffff1673ffffffffffffffffffffffffffffffffffffffff1681526020019081526020016000206000828254610c2191906140d9565b92505081905550610c31836127b9565b81609860008573ffffffffffffffffffffffffffffffffffffffff1673ffffffffffffffffffffffffffffffffffffffff1681526020019081526020016000206000828254610c809190613ff8565b925050819055508273ffffffffffffffffffffffffffffffffffffffff168473ffffffffffffffffffffffffffffffffffffffff167fddf252ad1be2c89b69c2b068fc378daa952ba7f163c4a11628f55a4df523b3ef84604051610ce49190613f64565b60405180910390a3600190509392505050565b60026065541415610d3d576040517f08c379a0000000000000000000000000000000000000000000000000000000008152600401610d3490613f04565b60405180910390fd5b600260658190555080471015610d88576040517f08c379a0000000000000000000000000000000000000000000000000000000008152600401610d7f90613f44565b60405180910390fd5b610d91336127b9565b610d9b338261298e565b610dc4813373ffffffffffffffffffffffffffffffffffffffff1661269390919063ffffffff16565b610dcc612b96565b3373ffffffffffffffffffffffffffffffffffffffff167fdf273cb619d95419a9cd0ec88123a0538c85064229baa6363788f743fff90deb8242604051610e14929190613fa8565b60405180910390a2600160658190555050565b60008073ffffffffffffffffffffffffffffffffffffffff168373ffffffffffffffffffffffffffffffffffffffff161415610e98576040517f08c379a0000000000000000000000000000000000000000000000000000000008152600401610e8f90613ea4565b60405180910390fd5b600082609760003373ffffffffffffffffffffffffffffffffffffffff1673ffffffffffffffffffffffffffffffffffffffff16815260200190815260200160002060008673ffffffffffffffffffffffffffffffffffffffff1673ffffffffffffffffffffffffffffffffffffffff16815260200190815260200160002054610f229190613ff8565b905080609760003373ffffffffffffffffffffffffffffffffffffffff1673ffffffffffffffffffffffffffffffffffffffff16815260200190815260200160002060008673ffffffffffffffffffffffffffffffffffffffff1673ffffffffffffffffffffffffffffffffffffffff168152602001908152602001600020819055508373ffffffffffffffffffffffffffffffffffffffff163373ffffffffffffffffffffffffffffffffffffffff167f8c5be1e5ebec7d5bd14f71427d1e84f3dd0314c0f7b2291e5b200ac8c7c3b925836040516110029190613f64565b60405180910390a3600191505092915050565b6002606554141561105b576040517f08c379a000000000000000000000000000000000000000000000000000000000815260040161105290613f04565b60405180910390fd5b600260658190555061106c33612eb8565b34609960003373ffffffffffffffffffffffffffffffffffffffff1673ffffffffffffffffffffffffffffffffffffffff1681526020019081526020016000205410156110ee576040517f08c379a00000000000000000000000000000000000000000000000000000000081526004016110e590613c64565b60405180910390fd5b34609960003373ffffffffffffffffffffffffffffffffffffffff1673ffffffffffffffffffffffffffffffffffffffff168152602001908152602001600020600082825461113d91906140d9565b9250508190555034609960003073ffffffffffffffffffffffffffffffffffffffff1673ffffffffffffffffffffffffffffffffffffffff168152602001908152602001600020600082825461119391906140d9565b925050819055506111a2612b96565b3373ffffffffffffffffffffffffffffffffffffffff167f24fcca58a997b1b2eff6db8107e860458544c09ddd3693b3b779e1df6c0d6c5d34426040516111ea929190613fa8565b60405180910390a26001606581905550565b60006112073061120c565b905090565b6000609d60009054906101000a900473ffffffffffffffffffffffffffffffffffffffff1673ffffffffffffffffffffffffffffffffffffffff1663966da889609960008573ffffffffffffffffffffffffffffffffffffffff1673ffffffffffffffffffffffffffffffffffffffff16815260200190815260200160002054846040518363ffffffff1660e01b81526004016112aa929190613f7f565b60206040518083038186803b1580156112c257600080fd5b505afa1580156112d6573d6000803e3d6000fd5b505050506040513d601f19601f820116820180604052508101906112fa9190613743565b9050919050565b6000609c60009054906101000a900473ffffffffffffffffffffffffffffffffffffffff1673ffffffffffffffffffffffffffffffffffffffff1663966da889609860008573ffffffffffffffffffffffffffffffffffffffff1673ffffffffffffffffffffffffffffffffffffffff16815260200190815260200160002054846040518363ffffffff1660e01b815260040161139f929190613f7f565b60206040518083038186803b1580156113b757600080fd5b505afa1580156113cb573d6000803e3d6000fd5b505050506040513d601f19601f820116820180604052508101906113ef9190613743565b9050919050565b6113fe61268b565b73ffffffffffffffffffffffffffffffffffffffff1661141c6115fa565b73ffffffffffffffffffffffffffffffffffffffff1614611472576040517f08c379a000000000000000000000000000000000000000000000000000000000815260040161146990613e64565b60405180910390fd5b61147b816130cd565b806114b25750600073ffffffffffffffffffffffffffffffffffffffff168173ffffffffffffffffffffffffffffffffffffffff16145b6114f1576040517f08c379a00000000000000000000000000000000000000000000000000000000081526004016114e890613d24565b60405180910390fd5b80609a60006101000a81548173ffffffffffffffffffffffffffffffffffffffff021916908373ffffffffffffffffffffffffffffffffffffffff160217905550600073ffffffffffffffffffffffffffffffffffffffff168173ffffffffffffffffffffffffffffffffffffffff161461156f5761156e612b96565b5b50565b61157a61268b565b73ffffffffffffffffffffffffffffffffffffffff166115986115fa565b73ffffffffffffffffffffffffffffffffffffffff16146115ee576040517f08c379a00000000000000000000000000000000000000000000000000000000081526004016115e590613e64565b60405180910390fd5b6115f860006130f0565b565b6000603360009054906101000a900473ffffffffffffffffffffffffffffffffffffffff16905090565b670d2f13f7789f000081565b60008073ffffffffffffffffffffffffffffffffffffffff168373ffffffffffffffffffffffffffffffffffffffff1614156116a1576040517f08c379a000000000000000000000000000000000000000000000000000000000815260040161169890613ea4565b60405180910390fd5b6000609760003373ffffffffffffffffffffffffffffffffffffffff1673ffffffffffffffffffffffffffffffffffffffff16815260200190815260200160002060008573ffffffffffffffffffffffffffffffffffffffff1673ffffffffffffffffffffffffffffffffffffffff16815260200190815260200160002054905082811015611765576040517f08c379a000000000000000000000000000000000000000000000000000000000815260040161175c90613da4565b60405180910390fd5b6000838261177391906140d9565b905080609760003373ffffffffffffffffffffffffffffffffffffffff1673ffffffffffffffffffffffffffffffffffffffff16815260200190815260200160002060008773ffffffffffffffffffffffffffffffffffffffff1673ffffffffffffffffffffffffffffffffffffffff168152602001908152602001600020819055508473ffffffffffffffffffffffffffffffffffffffff163373ffffffffffffffffffffffffffffffffffffffff167f8c5be1e5ebec7d5bd14f71427d1e84f3dd0314c0f7b2291e5b200ac8c7c3b925836040516118539190613f64565b60405180910390a360019250505092915050565b60008073ffffffffffffffffffffffffffffffffffffffff168373ffffffffffffffffffffffffffffffffffffffff1614156118d8576040517f08c379a00000000000000000000000000000000000000000000000000000000081526004016118cf90613cc4565b60405180910390fd5b3073ffffffffffffffffffffffffffffffffffffffff168373ffffffffffffffffffffffffffffffffffffffff161415611947576040517f08c379a000000000000000000000000000000000000000000000000000000000815260040161193e90613e84565b60405180910390fd5b611950336127b9565b81609860003373ffffffffffffffffffffffffffffffffffffffff1673ffffffffffffffffffffffffffffffffffffffff1681526020019081526020016000205410156119d2576040517f08c379a00000000000000000000000000000000000000000000000000000000081526004016119c990613ce4565b60405180910390fd5b81609860003373ffffffffffffffffffffffffffffffffffffffff1673ffffffffffffffffffffffffffffffffffffffff16815260200190815260200160002060008282540392505081905550611a28836127b9565b81609860008573ffffffffffffffffffffffffffffffffffffffff1673ffffffffffffffffffffffffffffffffffffffff1681526020019081526020016000206000828254611a779190613ff8565b925050819055508273ffffffffffffffffffffffffffffffffffffffff163373ffffffffffffffffffffffffffffffffffffffff167fddf252ad1be2c89b69c2b068fc378daa952ba7f163c4a11628f55a4df523b3ef84604051611adb9190613f64565b60405180910390a36001905092915050565b6000609a60009054906101000a900473ffffffffffffffffffffffffffffffffffffffff1673ffffffffffffffffffffffffffffffffffffffff16637cd08331611b356111fc565b611b3d610904565b6040518363ffffffff1660e01b8152600401611b5a929190613fa8565b60206040518083038186803b158015611b7257600080fd5b505afa158015611b86573d6000803e3d6000fd5b505050506040513d601f19601f82011682018060405250810190611baa9190613743565b905090565b600073ffffffffffffffffffffffffffffffffffffffff16609b60009054906101000a900473ffffffffffffffffffffffffffffffffffffffff1673ffffffffffffffffffffffffffffffffffffffff161415611c41576040517f08c379a0000000000000000000000000000000000000000000000000000000008152600401611c3890613e04565b60405180910390fd5b609b60009054906101000a900473ffffffffffffffffffffffffffffffffffffffff1673ffffffffffffffffffffffffffffffffffffffff16630e7fc864336040518263ffffffff1660e01b8152600401611c9c9190613bce565b60206040518083038186803b158015611cb457600080fd5b505afa158015611cc8573d6000803e3d6000fd5b505050506040513d601f19601f82011682018060405250810190611cec919061363c565b611d2b576040517f08c379a0000000000000000000000000000000000000000000000000000000008152600401611d2290613c44565b60405180910390fd5b6000611d35610904565b1415611d76576040517f08c379a0000000000000000000000000000000000000000000000000000000008152600401611d6d90613de4565b60405180910390fd5b60026065541415611dbc576040517f08c379a0000000000000000000000000000000000000000000000000000000008152600401611db390613f04565b60405180910390fd5b600260658190555080471015611e07576040517f08c379a0000000000000000000000000000000000000000000000000000000008152600401611dfe90613c04565b60405180910390fd5b611e1033612eb8565b80609960003373ffffffffffffffffffffffffffffffffffffffff1673ffffffffffffffffffffffffffffffffffffffff1681526020019081526020016000206000828254611e5f9190613ff8565b9250508190555080609960003073ffffffffffffffffffffffffffffffffffffffff1673ffffffffffffffffffffffffffffffffffffffff1681526020019081526020016000206000828254611eb59190613ff8565b92505081905550611ee5813373ffffffffffffffffffffffffffffffffffffffff1661269390919063ffffffff16565b611eed612b96565b3373ffffffffffffffffffffffffffffffffffffffff167fd6b37be10b58108f696d9ed067fedad0bff7cb417ef4c28d2f8a25d6d83c98d58242604051611f35929190613fa8565b60405180910390a26001606581905550670d2f13f7789f0000611f56610904565b670de0b6b3a7640000611f676111fc565b611f71919061407f565b611f7b919061404e565b1115611fbc576040517f08c379a0000000000000000000000000000000000000000000000000000000008152600401611fb390613ca4565b60405180910390fd5b50565b611fc8336127b9565b611fde33600234611fd9919061407f565b6131b6565b611fe6612b96565b3373ffffffffffffffffffffffffffffffffffffffff167f90890809c654f11d6e72a28fa60149770a0d11ec6c92319d6ceb2bb0a4ea1a15344260405161202e929190613fa8565b60405180910390a2565b6000609760008473ffffffffffffffffffffffffffffffffffffffff1673ffffffffffffffffffffffffffffffffffffffff16815260200190815260200160002060008373ffffffffffffffffffffffffffffffffffffffff1673ffffffffffffffffffffffffffffffffffffffff16815260200190815260200160002054905092915050565b6120c761268b565b73ffffffffffffffffffffffffffffffffffffffff166120e56115fa565b73ffffffffffffffffffffffffffffffffffffffff161461213b576040517f08c379a000000000000000000000000000000000000000000000000000000000815260040161213290613e64565b60405180910390fd5b600073ffffffffffffffffffffffffffffffffffffffff168173ffffffffffffffffffffffffffffffffffffffff1614156121ab576040517f08c379a00000000000000000000000000000000000000000000000000000000081526004016121a290613c84565b60405180910390fd5b6121b4816130f0565b50565b6000609a60009054906101000a900473ffffffffffffffffffffffffffffffffffffffff1673ffffffffffffffffffffffffffffffffffffffff1663df841eec6121ff6111fc565b612207610904565b6040518363ffffffff1660e01b8152600401612224929190613fa8565b60206040518083038186803b15801561223c57600080fd5b505afa158015612250573d6000803e3d6000fd5b505050506040513d601f19601f820116820180604052508101906122749190613743565b905090565b600060019054906101000a900460ff166122a15760008054906101000a900460ff16156122aa565b6122a961333c565b5b6122e9576040517f08c379a00000000000000000000000000000000000000000000000000000000081526004016122e090613dc4565b60405180910390fd5b60008060019054906101000a900460ff161590508015612339576001600060016101000a81548160ff02191690831515021790555060016000806101000a81548160ff0219169083151502179055505b612342846130cd565b612381576040517f08c379a000000000000000000000000000000000000000000000000000000000815260040161237890613d24565b60405180910390fd5b83609b60006101000a81548173ffffffffffffffffffffffffffffffffffffffff021916908373ffffffffffffffffffffffffffffffffffffffff16021790555084609a60006101000a81548173ffffffffffffffffffffffffffffffffffffffff021916908373ffffffffffffffffffffffffffffffffffffffff16021790555082609c60006101000a81548173ffffffffffffffffffffffffffffffffffffffff021916908373ffffffffffffffffffffffffffffffffffffffff16021790555081609d60006101000a81548173ffffffffffffffffffffffffffffffffffffffff021916908373ffffffffffffffffffffffffffffffffffffffff16021790555061248d61334d565b6124956133a6565b61249d612b96565b80156124be5760008060016101000a81548160ff0219169083151502179055505b5050505050565b6124cd61268b565b73ffffffffffffffffffffffffffffffffffffffff166124eb6115fa565b73ffffffffffffffffffffffffffffffffffffffff1614612541576040517f08c379a000000000000000000000000000000000000000000000000000000000815260040161253890613e64565b60405180910390fd5b600073ffffffffffffffffffffffffffffffffffffffff168173ffffffffffffffffffffffffffffffffffffffff1614156125b1576040517f08c379a00000000000000000000000000000000000000000000000000000000081526004016125a890613ee4565b60405180910390fd5b6125ba816130cd565b6125f9576040517f08c379a00000000000000000000000000000000000000000000000000000000081526004016125f090613d24565b60405180910390fd5b80609b60006101000a81548173ffffffffffffffffffffffffffffffffffffffff021916908373ffffffffffffffffffffffffffffffffffffffff1602179055508073ffffffffffffffffffffffffffffffffffffffff167f04dce7d074f7e287a2e6e3516c802271d58d5c14e0dede83a49719eb6b920469426040516126809190613f64565b60405180910390a250565b600033905090565b60008273ffffffffffffffffffffffffffffffffffffffff1682600067ffffffffffffffff8111156126ee577f4e487b7100000000000000000000000000000000000000000000000000000000600052604160045260246000fd5b6040519080825280601f01601f1916602001820160405280156127205781602001600182028036833780820191505090505b5060405161272e9190613bb7565b60006040518083038185875af1925050503d806000811461276b576040519150601f19603f3d011682016040523d82523d6000602084013e612770565b606091505b50509050806127b4576040517f08c379a00000000000000000000000000000000000000000000000000000000081526004016127ab90613d04565b60405180910390fd5b505050565b60006127c482611301565b90506000609860008473ffffffffffffffffffffffffffffffffffffffff1673ffffffffffffffffffffffffffffffffffffffff168152602001908152602001600020548261281391906140d9565b905061281f83826131b6565b8273ffffffffffffffffffffffffffffffffffffffff167f9bbd517758fbae61197f1c1c04c8614064e89512dbaf4350dcdf76fcaa5e21618242604051612867929190613fa8565b60405180910390a2609c60009054906101000a900473ffffffffffffffffffffffffffffffffffffffff1673ffffffffffffffffffffffffffffffffffffffff1663ed03b336846040518263ffffffff1660e01b81526004016128ca9190613bce565b600060405180830381600087803b1580156128e457600080fd5b505af11580156128f8573d6000803e3d6000fd5b50505050609c60009054906101000a900473ffffffffffffffffffffffffffffffffffffffff1673ffffffffffffffffffffffffffffffffffffffff1663ed03b336306040518263ffffffff1660e01b81526004016129579190613bce565b600060405180830381600087803b15801561297157600080fd5b505af1158015612985573d6000803e3d6000fd5b50505050505050565b80609860008473ffffffffffffffffffffffffffffffffffffffff1673ffffffffffffffffffffffffffffffffffffffff168152602001908152602001600020541015612a10576040517f08c379a0000000000000000000000000000000000000000000000000000000008152600401612a0790613d44565b60405180910390fd5b80609860003073ffffffffffffffffffffffffffffffffffffffff1673ffffffffffffffffffffffffffffffffffffffff168152602001908152602001600020541015612a92576040517f08c379a0000000000000000000000000000000000000000000000000000000008152600401612a8990613d84565b60405180910390fd5b80609860008473ffffffffffffffffffffffffffffffffffffffff1673ffffffffffffffffffffffffffffffffffffffff1681526020019081526020016000206000828254039250508190555080609860003073ffffffffffffffffffffffffffffffffffffffff1673ffffffffffffffffffffffffffffffffffffffff16815260200190815260200160002060008282540392505081905550600073ffffffffffffffffffffffffffffffffffffffff168273ffffffffffffffffffffffffffffffffffffffff167fddf252ad1be2c89b69c2b068fc378daa952ba7f163c4a11628f55a4df523b3ef83604051612b8a9190613f64565b60405180910390a35050565b600073ffffffffffffffffffffffffffffffffffffffff16609a60009054906101000a900473ffffffffffffffffffffffffffffffffffffffff1673ffffffffffffffffffffffffffffffffffffffff161415612c28576040517f08c379a0000000000000000000000000000000000000000000000000000000008152600401612c1f90613c24565b60405180910390fd5b609c60009054906101000a900473ffffffffffffffffffffffffffffffffffffffff1673ffffffffffffffffffffffffffffffffffffffff166334fcf437609a60009054906101000a900473ffffffffffffffffffffffffffffffffffffffff1673ffffffffffffffffffffffffffffffffffffffff16637cd08331612cac6111fc565b612cb4610904565b6040518363ffffffff1660e01b8152600401612cd1929190613fa8565b60206040518083038186803b158015612ce957600080fd5b505afa158015612cfd573d6000803e3d6000fd5b505050506040513d601f19601f82011682018060405250810190612d219190613743565b6040518263ffffffff1660e01b8152600401612d3d9190613f64565b600060405180830381600087803b158015612d5757600080fd5b505af1158015612d6b573d6000803e3d6000fd5b50505050609d60009054906101000a900473ffffffffffffffffffffffffffffffffffffffff1673ffffffffffffffffffffffffffffffffffffffff166334fcf437609a60009054906101000a900473ffffffffffffffffffffffffffffffffffffffff1673ffffffffffffffffffffffffffffffffffffffff1663df841eec612df36111fc565b612dfb610904565b6040518363ffffffff1660e01b8152600401612e18929190613fa8565b60206040518083038186803b158015612e3057600080fd5b505afa158015612e44573d6000803e3d6000fd5b505050506040513d601f19601f82011682018060405250810190612e689190613743565b6040518263ffffffff1660e01b8152600401612e849190613f64565b600060405180830381600087803b158015612e9e57600080fd5b505af1158015612eb2573d6000803e3d6000fd5b50505050565b6000612ec38261120c565b90506000609960008473ffffffffffffffffffffffffffffffffffffffff1673ffffffffffffffffffffffffffffffffffffffff1681526020019081526020016000205482612f1291906140d9565b905081609960008573ffffffffffffffffffffffffffffffffffffffff1673ffffffffffffffffffffffffffffffffffffffff1681526020019081526020016000208190555080609960003073ffffffffffffffffffffffffffffffffffffffff1673ffffffffffffffffffffffffffffffffffffffff1681526020019081526020016000206000828254612fa79190613ff8565b92505081905550609d60009054906101000a900473ffffffffffffffffffffffffffffffffffffffff1673ffffffffffffffffffffffffffffffffffffffff1663ed03b336846040518263ffffffff1660e01b81526004016130099190613bce565b600060405180830381600087803b15801561302357600080fd5b505af1158015613037573d6000803e3d6000fd5b50505050609d60009054906101000a900473ffffffffffffffffffffffffffffffffffffffff1673ffffffffffffffffffffffffffffffffffffffff1663ed03b336306040518263ffffffff1660e01b81526004016130969190613bce565b600060405180830381600087803b1580156130b057600080fd5b505af11580156130c4573d6000803e3d6000fd5b50505050505050565b6000808273ffffffffffffffffffffffffffffffffffffffff163b119050919050565b6000603360009054906101000a900473ffffffffffffffffffffffffffffffffffffffff16905081603360006101000a81548173ffffffffffffffffffffffffffffffffffffffff021916908373ffffffffffffffffffffffffffffffffffffffff1602179055508173ffffffffffffffffffffffffffffffffffffffff168173ffffffffffffffffffffffffffffffffffffffff167f8be0079c531659141344cd1fd0a4f28419497f9722a3daafe3b4186f6b6457e060405160405180910390a35050565b600073ffffffffffffffffffffffffffffffffffffffff168273ffffffffffffffffffffffffffffffffffffffff161415613226576040517f08c379a000000000000000000000000000000000000000000000000000000000815260040161321d90613e44565b60405180910390fd5b80609860008473ffffffffffffffffffffffffffffffffffffffff1673ffffffffffffffffffffffffffffffffffffffff16815260200190815260200160002060008282546132759190613ff8565b9250508190555080609860003073ffffffffffffffffffffffffffffffffffffffff1673ffffffffffffffffffffffffffffffffffffffff16815260200190815260200160002060008282546132cb9190613ff8565b925050819055508173ffffffffffffffffffffffffffffffffffffffff16600073ffffffffffffffffffffffffffffffffffffffff167fddf252ad1be2c89b69c2b068fc378daa952ba7f163c4a11628f55a4df523b3ef836040516133309190613f64565b60405180910390a35050565b6000613347306130cd565b15905090565b600060019054906101000a900460ff1661339c576040517f08c379a000000000000000000000000000000000000000000000000000000000815260040161339390613ec4565b60405180910390fd5b6133a46133ff565b565b600060019054906101000a900460ff166133f5576040517f08c379a00000000000000000000000000000000000000000000000000000000081526004016133ec90613ec4565b60405180910390fd5b6133fd613460565b565b600060019054906101000a900460ff1661344e576040517f08c379a000000000000000000000000000000000000000000000000000000000815260040161344590613ec4565b60405180910390fd5b61345e61345961268b565b6130f0565b565b600060019054906101000a900460ff166134af576040517f08c379a00000000000000000000000000000000000000000000000000000000081526004016134a690613ec4565b60405180910390fd5b6001606581905550565b6000813590506134c8816149ff565b92915050565b6000815190506134dd81614a16565b92915050565b6000813590506134f281614a2d565b92915050565b60008135905061350781614a44565b92915050565b60008135905061351c81614a5b565b92915050565b60008135905061353181614a72565b92915050565b60008151905061354681614a72565b92915050565b60006020828403121561355e57600080fd5b600061356c848285016134b9565b91505092915050565b6000806040838503121561358857600080fd5b6000613596858286016134b9565b92505060206135a7858286016134b9565b9150509250929050565b6000806000606084860312156135c657600080fd5b60006135d4868287016134b9565b93505060206135e5868287016134b9565b92505060406135f686828701613522565b9150509250925092565b6000806040838503121561361357600080fd5b6000613621858286016134b9565b925050602061363285828601613522565b9150509250929050565b60006020828403121561364e57600080fd5b600061365c848285016134ce565b91505092915050565b60006020828403121561367757600080fd5b6000613685848285016134f8565b91505092915050565b6000602082840312156136a057600080fd5b60006136ae8482850161350d565b91505092915050565b600080600080608085870312156136cd57600080fd5b60006136db8782880161350d565b94505060206136ec878288016134f8565b93505060406136fd878288016134e3565b925050606061370e878288016134e3565b91505092959194509250565b60006020828403121561372c57600080fd5b600061373a84828501613522565b91505092915050565b60006020828403121561375557600080fd5b600061376384828501613537565b91505092915050565b6000806040838503121561377f57600080fd5b600061378d85828601613522565b925050602061379e858286016134b9565b9150509250929050565b6137b18161410d565b82525050565b6137c08161411f565b82525050565b60006137d182613fd1565b6137db8185613fdc565b93506137eb81856020860161418b565b80840191505092915050565b6000613804603683613fe7565b915061380f8261421c565b604082019050919050565b6000613827604d83613fe7565b91506138328261426b565b606082019050919050565b600061384a603d83613fe7565b9150613855826142e0565b604082019050919050565b600061386d603883613fe7565b91506138788261432f565b604082019050919050565b6000613890602683613fe7565b915061389b8261437e565b604082019050919050565b60006138b3602f83613fe7565b91506138be826143cd565b604082019050919050565b60006138d6602a83613fe7565b91506138e18261441c565b604082019050919050565b60006138f9602683613fe7565b91506139048261446b565b604082019050919050565b600061391c603483613fe7565b9150613927826144ba565b604082019050919050565b600061393f601283613fe7565b915061394a82614509565b602082019050919050565b6000613962602783613fe7565b915061396d82614532565b604082019050919050565b6000613985603583613fe7565b915061399082614581565b604082019050919050565b60006139a8603783613fe7565b91506139b3826145d0565b604082019050919050565b60006139cb603583613fe7565b91506139d68261461f565b604082019050919050565b60006139ee602e83613fe7565b91506139f98261466e565b604082019050919050565b6000613a11602083613fe7565b9150613a1c826146bd565b602082019050919050565b6000613a34602483613fe7565b9150613a3f826146e6565b604082019050919050565b6000613a57603683613fe7565b9150613a6282614735565b604082019050919050565b6000613a7a602683613fe7565b9150613a8582614784565b604082019050919050565b6000613a9d602083613fe7565b9150613aa8826147d3565b602082019050919050565b6000613ac0602a83613fe7565b9150613acb826147fc565b604082019050919050565b6000613ae3602a83613fe7565b9150613aee8261484b565b604082019050919050565b6000613b06602b83613fe7565b9150613b118261489a565b604082019050919050565b6000613b29603383613fe7565b9150613b34826148e9565b604082019050919050565b6000613b4c601f83613fe7565b9150613b5782614938565b602082019050919050565b6000613b6f603183613fe7565b9150613b7a82614961565b604082019050919050565b6000613b92602f83613fe7565b9150613b9d826149b0565b604082019050919050565b613bb181614181565b82525050565b6000613bc382846137c6565b915081905092915050565b6000602082019050613be360008301846137a8565b92915050565b6000602082019050613bfe60008301846137b7565b92915050565b60006020820190508181036000830152613c1d816137f7565b9050919050565b60006020820190508181036000830152613c3d8161381a565b9050919050565b60006020820190508181036000830152613c5d8161383d565b9050919050565b60006020820190508181036000830152613c7d81613860565b9050919050565b60006020820190508181036000830152613c9d81613883565b9050919050565b60006020820190508181036000830152613cbd816138a6565b9050919050565b60006020820190508181036000830152613cdd816138c9565b9050919050565b60006020820190508181036000830152613cfd816138ec565b9050919050565b60006020820190508181036000830152613d1d8161390f565b9050919050565b60006020820190508181036000830152613d3d81613932565b9050919050565b60006020820190508181036000830152613d5d81613955565b9050919050565b60006020820190508181036000830152613d7d81613978565b9050919050565b60006020820190508181036000830152613d9d8161399b565b9050919050565b60006020820190508181036000830152613dbd816139be565b9050919050565b60006020820190508181036000830152613ddd816139e1565b9050919050565b60006020820190508181036000830152613dfd81613a04565b9050919050565b60006020820190508181036000830152613e1d81613a27565b9050919050565b60006020820190508181036000830152613e3d81613a4a565b9050919050565b60006020820190508181036000830152613e5d81613a6d565b9050919050565b60006020820190508181036000830152613e7d81613a90565b9050919050565b60006020820190508181036000830152613e9d81613ab3565b9050919050565b60006020820190508181036000830152613ebd81613ad6565b9050919050565b60006020820190508181036000830152613edd81613af9565b9050919050565b60006020820190508181036000830152613efd81613b1c565b9050919050565b60006020820190508181036000830152613f1d81613b3f565b9050919050565b60006020820190508181036000830152613f3d81613b62565b9050919050565b60006020820190508181036000830152613f5d81613b85565b9050919050565b6000602082019050613f796000830184613ba8565b92915050565b6000604082019050613f946000830185613ba8565b613fa160208301846137a8565b9392505050565b6000604082019050613fbd6000830185613ba8565b613fca6020830184613ba8565b9392505050565b600081519050919050565b600081905092915050565b600082825260208201905092915050565b600061400382614181565b915061400e83614181565b9250827fffffffffffffffffffffffffffffffffffffffffffffffffffffffffffffffff03821115614043576140426141be565b5b828201905092915050565b600061405982614181565b915061406483614181565b925082614074576140736141ed565b5b828204905092915050565b600061408a82614181565b915061409583614181565b9250817fffffffffffffffffffffffffffffffffffffffffffffffffffffffffffffffff04831182151516156140ce576140cd6141be565b5b828202905092915050565b60006140e482614181565b91506140ef83614181565b925082821015614102576141016141be565b5b828203905092915050565b600061411882614161565b9050919050565b60008115159050919050565b60006141368261410d565b9050919050565b60006141488261410d565b9050919050565b600061415a8261410d565b9050919050565b600073ffffffffffffffffffffffffffffffffffffffff82169050919050565b6000819050919050565b60005b838110156141a957808201518184015260208101905061418e565b838111156141b8576000848401525b50505050565b7f4e487b7100000000000000000000000000000000000000000000000000000000600052601160045260246000fd5b7f4e487b7100000000000000000000000000000000000000000000000000000000600052601260045260246000fd5b7f5468657265206973206e6f7420656e6f7567682066756e647320696e2074686560008201527f20706f6f6c20746f2066756e6420746865206c6f616e00000000000000000000602082015250565b7f506f6f6c2069732066726f7a656e3a2063616e6e6f7420706572666f726d206460008201527f65706f7369742c2077697468647261772c20626f72726f7720616e642072657060208201527f6179206f7065726174696f6e7300000000000000000000000000000000000000604082015250565b7f4f6e6c7920746865206163636f756e747320617574686f72697365642062792060008201527f626f72726f77657273207265676973747279206d617920626f72726f77000000602082015250565b7f596f752061726520747279696e6720746f207265706179206d6f72652074686160008201527f742077617320626f72726f776564206279206120757365720000000000000000602082015250565b7f4f776e61626c653a206e6577206f776e657220697320746865207a65726f206160008201527f6464726573730000000000000000000000000000000000000000000000000000602082015250565b7f54686520706f6f6c207574696c69736174696f6e2063616e6e6f74206265206760008201527f726561746572207468616e203935250000000000000000000000000000000000602082015250565b7f45524332303a2063616e6e6f74207472616e7366657220746f20746865207a6560008201527f726f206164647265737300000000000000000000000000000000000000000000602082015250565b7f45524332303a207472616e7366657220616d6f756e742065786365656473206260008201527f616c616e63650000000000000000000000000000000000000000000000000000602082015250565b7f5472616e7366657248656c7065723a3a736166655472616e736665724554483a60008201527f20455448207472616e73666572206661696c6564000000000000000000000000602082015250565b7f4d757374206265206120636f6e74726163740000000000000000000000000000600082015250565b7f45524332303a206275726e20616d6f756e74206578636565647320757365722060008201527f62616c616e636500000000000000000000000000000000000000000000000000602082015250565b7f4e6f7420656e6f75676820746f6b656e7320616c6c6f77656420746f2074726160008201527f6e7366657220726571756972656420616d6f756e740000000000000000000000602082015250565b7f45524332303a206275726e20616d6f756e74206578636565647320637572726560008201527f6e7420706f6f6c20696e64657865642062616c616e6365000000000000000000602082015250565b7f43757272656e7420616c6c6f77616e636520697320736d616c6c65722074686160008201527f6e20746865207375627472616374656456616c75650000000000000000000000602082015250565b7f496e697469616c697a61626c653a20636f6e747261637420697320616c72656160008201527f647920696e697469616c697a6564000000000000000000000000000000000000602082015250565b7f43616e6e6f7420626f72726f772066726f6d20616e20656d70747920706f6f6c600082015250565b7f426f72726f77657273207265676973747279206973206e6f7420636f6e66696760008201527f7572656400000000000000000000000000000000000000000000000000000000602082015250565b7f547279696e6720746f207265636f766572206d6f726520737572706c7573206660008201527f756e6473207468616e20706f6f6c2062616c616e636500000000000000000000602082015250565b7f45524332303a2063616e6e6f74206d696e7420746f20746865207a65726f206160008201527f6464726573730000000000000000000000000000000000000000000000000000602082015250565b7f4f776e61626c653a2063616c6c6572206973206e6f7420746865206f776e6572600082015250565b7f45524332303a2063616e6e6f74207472616e7366657220746f2074686520706f60008201527f6f6c206164647265737300000000000000000000000000000000000000000000602082015250565b7f416c6c6f77616e6365207370656e6465722063616e6e6f742062652061207a6560008201527f726f206164647265737300000000000000000000000000000000000000000000602082015250565b7f496e697469616c697a61626c653a20636f6e7472616374206973206e6f74206960008201527f6e697469616c697a696e67000000000000000000000000000000000000000000602082015250565b7f54686520626f72726f776572732072656769737472792063616e6e6f7420736560008201527f7420746f2061206e756c6c206164647265737300000000000000000000000000602082015250565b7f5265656e7472616e637947756172643a207265656e7472616e742063616c6c00600082015250565b7f547279696e6720746f207265636f766572206d6f72652066756e64732074686160008201527f6e2063757272656e7420737572706c7573000000000000000000000000000000602082015250565b7f5468657265206973206e6f7420656e6f75676820617661696c61626c6520667560008201527f6e647320746f2077697468647261770000000000000000000000000000000000602082015250565b614a088161410d565b8114614a1357600080fd5b50565b614a1f8161411f565b8114614a2a57600080fd5b50565b614a368161412b565b8114614a4157600080fd5b50565b614a4d8161413d565b8114614a5857600080fd5b50565b614a648161414f565b8114614a6f57600080fd5b50565b614a7b81614181565b8114614a8657600080fd5b5056fea2646970667358221220de3ecbbaa29091b963d59d6aa3a160a5732ce5cd173d9e54429b6a086eaedef564736f6c63430008040033",
  "linkReferences": {},
  "deployedLinkReferences": {}
}