{
  "_format": "hh-sol-artifact-1",
  "contractName": "SmartLoansFactory",
  "sourceName": "contracts/SmartLoansFactory.sol",
  "abi": [
    {
      "inputs": [],
      "name": "CalldataMustHaveValidPayload",
      "type": "error"
    },
    {
      "inputs": [],
      "name": "CalldataOverOrUnderFlow",
      "type": "error"
    },
    {
      "inputs": [],
      "name": "EachSignerMustProvideTheSameValue",
      "type": "error"
    },
    {
      "inputs": [],
      "name": "EmptyCalldataPointersArr",
      "type": "error"
    },
    {
      "inputs": [],
      "name": "IncorrectUnsignedMetadataSize",
      "type": "error"
    },
    {
      "inputs": [
        {
          "internalType": "uint256",
          "name": "receviedSignersCount",
          "type": "uint256"
        },
        {
          "internalType": "uint256",
          "name": "requiredSignersCount",
          "type": "uint256"
        }
      ],
      "name": "InsufficientNumberOfUniqueSigners",
      "type": "error"
    },
    {
      "inputs": [],
      "name": "InvalidCalldataPointer",
      "type": "error"
    },
    {
      "inputs": [
        {
          "internalType": "bytes",
          "name": "result",
          "type": "bytes"
        }
      ],
      "name": "ProxyCalldataFailedWithCustomError",
      "type": "error"
    },
    {
      "inputs": [
        {
          "internalType": "string",
          "name": "message",
          "type": "string"
        }
      ],
      "name": "ProxyCalldataFailedWithStringMessage",
      "type": "error"
    },
    {
      "inputs": [],
      "name": "ProxyCalldataFailedWithoutErrMsg",
      "type": "error"
    },
    {
      "inputs": [
        {
          "internalType": "address",
          "name": "receivedSigner",
          "type": "address"
        }
      ],
      "name": "SignerNotAuthorised",
      "type": "error"
    },
    {
      "anonymous": false,
      "inputs": [
        {
          "indexed": true,
          "internalType": "address",
          "name": "previousOwner",
          "type": "address"
        },
        {
          "indexed": true,
          "internalType": "address",
          "name": "newOwner",
          "type": "address"
        }
      ],
      "name": "OwnershipTransferred",
      "type": "event"
    },
    {
      "anonymous": false,
      "inputs": [
        {
          "indexed": true,
          "internalType": "address",
          "name": "accountAddress",
          "type": "address"
        },
        {
          "indexed": true,
          "internalType": "address",
          "name": "creator",
          "type": "address"
        },
        {
          "indexed": false,
          "internalType": "bytes32",
          "name": "collateralAsset",
          "type": "bytes32"
        },
        {
          "indexed": false,
          "internalType": "uint256",
          "name": "collateralAmount",
          "type": "uint256"
        }
      ],
      "name": "SmartLoanCreated",
      "type": "event"
    },
    {
      "inputs": [
        {
          "internalType": "address",
          "name": "_account",
          "type": "address"
        }
      ],
      "name": "canBorrow",
      "outputs": [
        {
          "internalType": "bool",
          "name": "",
          "type": "bool"
        }
      ],
      "stateMutability": "view",
      "type": "function"
    },
    {
      "inputs": [
        {
          "internalType": "address",
          "name": "_newOwner",
          "type": "address"
        }
      ],
      "name": "changeOwnership",
      "outputs": [],
      "stateMutability": "nonpayable",
      "type": "function"
    },
    {
      "inputs": [
        {
          "internalType": "bytes32",
          "name": "_fundedAsset",
          "type": "bytes32"
        },
        {
          "internalType": "address",
          "name": "_assetAddress",
          "type": "address"
        },
        {
          "internalType": "uint256",
          "name": "_amount",
          "type": "uint256"
        }
      ],
      "name": "createAndFundLoan",
      "outputs": [
        {
          "internalType": "contract SmartLoanDiamondBeacon",
          "name": "",
          "type": "address"
        }
      ],
      "stateMutability": "nonpayable",
      "type": "function"
    },
    {
      "inputs": [],
      "name": "createLoan",
      "outputs": [
        {
          "internalType": "contract SmartLoanDiamondBeacon",
          "name": "",
          "type": "address"
        }
      ],
      "stateMutability": "nonpayable",
      "type": "function"
    },
    {
      "inputs": [],
      "name": "getAllLoans",
      "outputs": [
        {
          "internalType": "address[]",
          "name": "",
          "type": "address[]"
        }
      ],
      "stateMutability": "view",
      "type": "function"
    },
    {
      "inputs": [
        {
          "internalType": "address",
          "name": "_user",
          "type": "address"
        }
      ],
      "name": "getLoanForOwner",
      "outputs": [
        {
          "internalType": "address",
          "name": "",
          "type": "address"
        }
      ],
      "stateMutability": "view",
      "type": "function"
    },
    {
      "inputs": [
        {
          "internalType": "address",
          "name": "_loan",
          "type": "address"
        }
      ],
      "name": "getOwnerOfLoan",
      "outputs": [
        {
          "internalType": "address",
          "name": "",
          "type": "address"
        }
      ],
      "stateMutability": "view",
      "type": "function"
    },
    {
      "inputs": [
        {
          "internalType": "address payable",
          "name": "_smartLoanDiamond",
          "type": "address"
        }
      ],
      "name": "initialize",
      "outputs": [],
      "stateMutability": "nonpayable",
      "type": "function"
    },
    {
      "inputs": [
        {
          "internalType": "address",
          "name": "",
          "type": "address"
        }
      ],
      "name": "loansToOwners",
      "outputs": [
        {
          "internalType": "address",
          "name": "",
          "type": "address"
        }
      ],
      "stateMutability": "view",
      "type": "function"
    },
    {
      "inputs": [],
      "name": "owner",
      "outputs": [
        {
          "internalType": "address",
          "name": "",
          "type": "address"
        }
      ],
      "stateMutability": "view",
      "type": "function"
    },
    {
      "inputs": [
        {
          "internalType": "address",
          "name": "",
          "type": "address"
        }
      ],
      "name": "ownersToLoans",
      "outputs": [
        {
          "internalType": "address",
          "name": "",
          "type": "address"
        }
      ],
      "stateMutability": "view",
      "type": "function"
    },
    {
      "inputs": [],
      "name": "renounceOwnership",
      "outputs": [],
      "stateMutability": "nonpayable",
      "type": "function"
    },
    {
      "inputs": [],
      "name": "smartLoanDiamond",
      "outputs": [
        {
          "internalType": "contract SmartLoanDiamondBeacon",
          "name": "",
          "type": "address"
        }
      ],
      "stateMutability": "view",
      "type": "function"
    },
    {
      "inputs": [
        {
          "internalType": "address",
          "name": "newOwner",
          "type": "address"
        }
      ],
      "name": "transferOwnership",
      "outputs": [],
      "stateMutability": "nonpayable",
      "type": "function"
    }
  ],
  "bytecode": "0x608060405234801561001057600080fd5b50613518806100206000396000f3fe60806040523480156200001157600080fd5b5060043610620001005760003560e01c8063715018a61162000099578063ab54b33c116200006f578063ab54b33c14620002a5578063c4d66de814620002c7578063c95ebb0314620002e7578063f2fde38b146200031d5762000100565b8063715018a614620002555780638da5cb5b1462000261578063a5bfd16a14620002835762000100565b80633344a55511620000db5780633344a5551462000191578063357719ef14620001c75780635b01254614620001fd57806365ec1a4514620002335762000100565b80630e7fc86414620001055780631f278b74146200013b5780632af4c31e1462000171575b600080fd5b6200012360048036038101906200011d919062001755565b6200033d565b604051620001329190620017a4565b60405180910390f35b62000159600480360381019062000153919062001755565b620003d5565b604051620001689190620017d2565b60405180910390f35b6200018f600480360381019062000189919062001755565b62000408565b005b620001af6004803603810190620001a9919062001755565b620006b1565b604051620001be9190620017d2565b60405180910390f35b620001e56004803603810190620001df919062001755565b6200071a565b604051620001f49190620017d2565b60405180910390f35b6200021b600480360381019062000215919062001755565b6200074d565b6040516200022a9190620017d2565b60405180910390f35b6200023d620007b6565b6040516200024c91906200185a565b60405180910390f35b6200025f6200095f565b005b6200026b62000961565b6040516200027a9190620017d2565b60405180910390f35b6200028d6200098b565b6040516200029c919062001945565b60405180910390f35b620002af62000a1b565b604051620002be91906200185a565b60405180910390f35b620002e56004803603810190620002df9190620019ae565b62000a41565b005b620003056004803603810190620002ff919062001a56565b62000b7a565b6040516200031491906200185a565b60405180910390f35b6200033b600480360381019062000335919062001755565b62000e85565b005b60008073ffffffffffffffffffffffffffffffffffffffff16606760008473ffffffffffffffffffffffffffffffffffffffff1673ffffffffffffffffffffffffffffffffffffffff16815260200190815260200160002060009054906101000a900473ffffffffffffffffffffffffffffffffffffffff1673ffffffffffffffffffffffffffffffffffffffff1614159050919050565b60676020528060005260406000206000915054906101000a900473ffffffffffffffffffffffffffffffffffffffff1681565b60003390506000606760008373ffffffffffffffffffffffffffffffffffffffff1673ffffffffffffffffffffffffffffffffffffffff16815260200190815260200160002060009054906101000a900473ffffffffffffffffffffffffffffffffffffffff169050600073ffffffffffffffffffffffffffffffffffffffff168173ffffffffffffffffffffffffffffffffffffffff1603620004e3576040517f08c379a0000000000000000000000000000000000000000000000000000000008152600401620004da9062001b39565b60405180910390fd5b620004ee8362000f88565b1562000531576040517f08c379a0000000000000000000000000000000000000000000000000000000008152600401620005289062001bab565b60405180910390fd5b6000606660008373ffffffffffffffffffffffffffffffffffffffff1673ffffffffffffffffffffffffffffffffffffffff16815260200190815260200160002060006101000a81548173ffffffffffffffffffffffffffffffffffffffff021916908373ffffffffffffffffffffffffffffffffffffffff16021790555081606660008573ffffffffffffffffffffffffffffffffffffffff1673ffffffffffffffffffffffffffffffffffffffff16815260200190815260200160002060006101000a81548173ffffffffffffffffffffffffffffffffffffffff021916908373ffffffffffffffffffffffffffffffffffffffff16021790555082606760008473ffffffffffffffffffffffffffffffffffffffff1673ffffffffffffffffffffffffffffffffffffffff16815260200190815260200160002060006101000a81548173ffffffffffffffffffffffffffffffffffffffff021916908373ffffffffffffffffffffffffffffffffffffffff160217905550505050565b6000606660008373ffffffffffffffffffffffffffffffffffffffff1673ffffffffffffffffffffffffffffffffffffffff16815260200190815260200160002060009054906101000a900473ffffffffffffffffffffffffffffffffffffffff169050919050565b60666020528060005260406000206000915054906101000a900473ffffffffffffffffffffffffffffffffffffffff1681565b6000606760008373ffffffffffffffffffffffffffffffffffffffff1673ffffffffffffffffffffffffffffffffffffffff16815260200190815260200160002060009054906101000a900473ffffffffffffffffffffffffffffffffffffffff169050919050565b6000620007c33362000f88565b1562000806576040517f08c379a0000000000000000000000000000000000000000000000000000000008152600401620007fd9062001c43565b60405180910390fd5b6000606560009054906101000a900473ffffffffffffffffffffffffffffffffffffffff1663c4d66de860e01b33604051602401620008469190620017d2565b604051602081830303815290604052907bffffffffffffffffffffffffffffffffffffffffffffffffffffffff19166020820180517bffffffffffffffffffffffffffffffffffffffffffffffffffffffff8381831617835250505050604051620008b190620016dd565b620008be92919062001d38565b604051809103906000f080158015620008db573d6000803e3d6000fd5b5090506000819050620008ef813362001020565b3373ffffffffffffffffffffffffffffffffffffffff168173ffffffffffffffffffffffffffffffffffffffff167f3c5330cb261eae74426865a348927ace59eae441485c71a110df598f825b636960006040516200094f919062001db6565b60405180910390a3809250505090565b565b6000603360009054906101000a900473ffffffffffffffffffffffffffffffffffffffff16905090565b6060606880548060200260200160405190810160405280929190818152602001828054801562000a1157602002820191906000526020600020905b8160009054906101000a900473ffffffffffffffffffffffffffffffffffffffff1673ffffffffffffffffffffffffffffffffffffffff1681526020019060010190808311620009c6575b5050505050905090565b606560009054906101000a900473ffffffffffffffffffffffffffffffffffffffff1681565b600060019054906101000a900460ff1662000a6b5760008054906101000a900460ff161562000a76565b62000a7562001183565b5b62000ab8576040517f08c379a000000000000000000000000000000000000000000000000000000000815260040162000aaf9062001e57565b60405180910390fd5b60008060019054906101000a900460ff16159050801562000b09576001600060016101000a81548160ff02191690831515021790555060016000806101000a81548160ff0219169083151502179055505b81606560006101000a81548173ffffffffffffffffffffffffffffffffffffffff021916908373ffffffffffffffffffffffffffffffffffffffff16021790555062000b5462001196565b801562000b765760008060016101000a81548160ff0219169083151502179055505b5050565b600062000b873362000f88565b1562000bca576040517f08c379a000000000000000000000000000000000000000000000000000000000815260040162000bc19062001c43565b60405180910390fd5b6000606560009054906101000a900473ffffffffffffffffffffffffffffffffffffffff1663c4d66de860e01b3360405160240162000c0a9190620017d2565b604051602081830303815290604052907bffffffffffffffffffffffffffffffffffffffffffffffffffffffff19166020820180517bffffffffffffffffffffffffffffffffffffffffffffffffffffffff838183161783525050505060405162000c7590620016dd565b62000c8292919062001d38565b604051809103906000f08015801562000c9f573d6000803e3d6000fd5b5090506000819050600085905062000cdb3330878473ffffffffffffffffffffffffffffffffffffffff16620011f4909392919063ffffffff16565b62000d0882868373ffffffffffffffffffffffffffffffffffffffff166200133a9092919063ffffffff16565b62000d14823362001020565b6000808373ffffffffffffffffffffffffffffffffffffffff1663e46bbc9e60e01b8a8960405160240162000d4b92919062001e9b565b604051602081830303815290604052907bffffffffffffffffffffffffffffffffffffffffffffffffffffffff19166020820180517bffffffffffffffffffffffffffffffffffffffffffffffffffffffff838183161783525050505060405162000db7919062001f0a565b6000604051808303816000865af19150503d806000811462000df6576040519150601f19603f3d011682016040523d82523d6000602084013e62000dfb565b606091505b509150915062000e0c82826200147d565b503373ffffffffffffffffffffffffffffffffffffffff168473ffffffffffffffffffffffffffffffffffffffff167f3c5330cb261eae74426865a348927ace59eae441485c71a110df598f825b63698b8a60405162000e6e92919062001e9b565b60405180910390a383955050505050509392505050565b62000e8f62001584565b73ffffffffffffffffffffffffffffffffffffffff1662000eaf62000961565b73ffffffffffffffffffffffffffffffffffffffff161462000f08576040517f08c379a000000000000000000000000000000000000000000000000000000000815260040162000eff9062001f73565b60405180910390fd5b600073ffffffffffffffffffffffffffffffffffffffff168173ffffffffffffffffffffffffffffffffffffffff160362000f7a576040517f08c379a000000000000000000000000000000000000000000000000000000000815260040162000f71906200200b565b60405180910390fd5b62000f85816200158c565b50565b60008073ffffffffffffffffffffffffffffffffffffffff16606660008473ffffffffffffffffffffffffffffffffffffffff1673ffffffffffffffffffffffffffffffffffffffff16815260200190815260200160002060009054906101000a900473ffffffffffffffffffffffffffffffffffffffff1673ffffffffffffffffffffffffffffffffffffffff1614159050919050565b81606660008373ffffffffffffffffffffffffffffffffffffffff1673ffffffffffffffffffffffffffffffffffffffff16815260200190815260200160002060006101000a81548173ffffffffffffffffffffffffffffffffffffffff021916908373ffffffffffffffffffffffffffffffffffffffff16021790555080606760008473ffffffffffffffffffffffffffffffffffffffff1673ffffffffffffffffffffffffffffffffffffffff16815260200190815260200160002060006101000a81548173ffffffffffffffffffffffffffffffffffffffff021916908373ffffffffffffffffffffffffffffffffffffffff1602179055506068829080600181540180825580915050600190039060005260206000200160009091909190916101000a81548173ffffffffffffffffffffffffffffffffffffffff021916908373ffffffffffffffffffffffffffffffffffffffff1602179055505050565b6000620011903062001652565b15905090565b600060019054906101000a900460ff16620011e8576040517f08c379a0000000000000000000000000000000000000000000000000000000008152600401620011df90620020a3565b60405180910390fd5b620011f262001675565b565b6000808573ffffffffffffffffffffffffffffffffffffffff166323b872dd8686866040516024016200122a93929190620020c5565b6040516020818303038152906040529060e01b6020820180517bffffffffffffffffffffffffffffffffffffffffffffffffffffffff83818316178352505050506040516200127a919062001f0a565b6000604051808303816000865af19150503d8060008114620012b9576040519150601f19603f3d011682016040523d82523d6000602084013e620012be565b606091505b5091509150818015620012f05750600081511480620012ef575080806020019051810190620012ee919062002133565b5b5b62001332576040517f08c379a00000000000000000000000000000000000000000000000000000000081526004016200132990620021db565b60405180910390fd5b505050505050565b6000808473ffffffffffffffffffffffffffffffffffffffff1663095ea7b385856040516024016200136e929190620021fd565b6040516020818303038152906040529060e01b6020820180517bffffffffffffffffffffffffffffffffffffffffffffffffffffffff8381831617835250505050604051620013be919062001f0a565b6000604051808303816000865af19150503d8060008114620013fd576040519150601f19603f3d011682016040523d82523d6000602084013e62001402565b606091505b50915091508180156200143457506000815114806200143357508080602001905181019062001432919062002133565b5b5b62001476576040517f08c379a00000000000000000000000000000000000000000000000000000000081526004016200146d90620022a0565b60405180910390fd5b5050505050565b6060826200157b576000825103620014c1576040517f567fe27a00000000000000000000000000000000000000000000000000000000815260040160405180910390fd5b600060208301517f08c379a000000000000000000000000000000000000000000000000000000000811491505080156200153c576060604484019050806040517f0f7e82780000000000000000000000000000000000000000000000000000000081526004016200153391906200230e565b60405180910390fd5b826040517ffd36fde300000000000000000000000000000000000000000000000000000000815260040162001572919062002332565b60405180910390fd5b81905092915050565b600033905090565b6000603360009054906101000a900473ffffffffffffffffffffffffffffffffffffffff16905081603360006101000a81548173ffffffffffffffffffffffffffffffffffffffff021916908373ffffffffffffffffffffffffffffffffffffffff1602179055508173ffffffffffffffffffffffffffffffffffffffff168173ffffffffffffffffffffffffffffffffffffffff167f8be0079c531659141344cd1fd0a4f28419497f9722a3daafe3b4186f6b6457e060405160405180910390a35050565b6000808273ffffffffffffffffffffffffffffffffffffffff163b119050919050565b600060019054906101000a900460ff16620016c7576040517f08c379a0000000000000000000000000000000000000000000000000000000008152600401620016be90620020a3565b60405180910390fd5b620016db620016d562001584565b6200158c565b565b61118c806200235783390190565b600080fd5b600073ffffffffffffffffffffffffffffffffffffffff82169050919050565b60006200171d82620016f0565b9050919050565b6200172f8162001710565b81146200173b57600080fd5b50565b6000813590506200174f8162001724565b92915050565b6000602082840312156200176e576200176d620016eb565b5b60006200177e848285016200173e565b91505092915050565b60008115159050919050565b6200179e8162001787565b82525050565b6000602082019050620017bb600083018462001793565b92915050565b620017cc8162001710565b82525050565b6000602082019050620017e96000830184620017c1565b92915050565b6000819050919050565b60006200181a620018146200180e84620016f0565b620017ef565b620016f0565b9050919050565b60006200182e82620017f9565b9050919050565b6000620018428262001821565b9050919050565b620018548162001835565b82525050565b600060208201905062001871600083018462001849565b92915050565b600081519050919050565b600082825260208201905092915050565b6000819050602082019050919050565b620018ae8162001710565b82525050565b6000620018c28383620018a3565b60208301905092915050565b6000602082019050919050565b6000620018e88262001877565b620018f4818562001882565b9350620019018362001893565b8060005b83811015620019385781516200191c8882620018b4565b97506200192983620018ce565b92505060018101905062001905565b5085935050505092915050565b60006020820190508181036000830152620019618184620018db565b905092915050565b60006200197682620016f0565b9050919050565b620019888162001969565b81146200199457600080fd5b50565b600081359050620019a8816200197d565b92915050565b600060208284031215620019c757620019c6620016eb565b5b6000620019d78482850162001997565b91505092915050565b6000819050919050565b620019f581620019e0565b811462001a0157600080fd5b50565b60008135905062001a1581620019ea565b92915050565b6000819050919050565b62001a308162001a1b565b811462001a3c57600080fd5b50565b60008135905062001a508162001a25565b92915050565b60008060006060848603121562001a725762001a71620016eb565b5b600062001a828682870162001a04565b935050602062001a95868287016200173e565b925050604062001aa88682870162001a3f565b9150509250925092565b600082825260208201905092915050565b7f4f6e6c79206120536d6172744c6f616e2063616e206368616e6765206974277360008201527f206f776e65720000000000000000000000000000000000000000000000000000602082015250565b600062001b2160268362001ab2565b915062001b2e8262001ac3565b604082019050919050565b6000602082019050818103600083015262001b548162001b12565b9050919050565b7f4e6577206f776e657220616c7265616479206861732061206c6f616e00000000600082015250565b600062001b93601c8362001ab2565b915062001ba08262001b5b565b602082019050919050565b6000602082019050818103600083015262001bc68162001b84565b9050919050565b7f4f6e6c79206f6e65206c6f616e20706572206f776e657220697320616c6c6f7760008201527f6564000000000000000000000000000000000000000000000000000000000000602082015250565b600062001c2b60228362001ab2565b915062001c388262001bcd565b604082019050919050565b6000602082019050818103600083015262001c5e8162001c1c565b9050919050565b600062001c7282620017f9565b9050919050565b600062001c868262001c65565b9050919050565b62001c988162001c79565b82525050565b600081519050919050565b600082825260208201905092915050565b60005b8381101562001cda57808201518184015260208101905062001cbd565b60008484015250505050565b6000601f19601f8301169050919050565b600062001d048262001c9e565b62001d10818562001ca9565b935062001d2281856020860162001cba565b62001d2d8162001ce6565b840191505092915050565b600060408201905062001d4f600083018562001c8d565b818103602083015262001d63818462001cf7565b90509392505050565b6000815250565b6000819050919050565b600062001d9e62001d9862001d928462001d73565b620017ef565b62001a1b565b9050919050565b62001db08162001d7d565b82525050565b600060408201905062001dcc6000830162001d6c565b62001ddb602083018462001da5565b92915050565b7f496e697469616c697a61626c653a20636f6e747261637420697320616c72656160008201527f647920696e697469616c697a6564000000000000000000000000000000000000602082015250565b600062001e3f602e8362001ab2565b915062001e4c8262001de1565b604082019050919050565b6000602082019050818103600083015262001e728162001e30565b9050919050565b62001e8481620019e0565b82525050565b62001e958162001a1b565b82525050565b600060408201905062001eb2600083018562001e79565b62001ec1602083018462001e8a565b9392505050565b600081905092915050565b600062001ee08262001c9e565b62001eec818562001ec8565b935062001efe81856020860162001cba565b80840191505092915050565b600062001f18828462001ed3565b915081905092915050565b7f4f776e61626c653a2063616c6c6572206973206e6f7420746865206f776e6572600082015250565b600062001f5b60208362001ab2565b915062001f688262001f23565b602082019050919050565b6000602082019050818103600083015262001f8e8162001f4c565b9050919050565b7f4f776e61626c653a206e6577206f776e657220697320746865207a65726f206160008201527f6464726573730000000000000000000000000000000000000000000000000000602082015250565b600062001ff360268362001ab2565b9150620020008262001f95565b604082019050919050565b60006020820190508181036000830152620020268162001fe4565b9050919050565b7f496e697469616c697a61626c653a20636f6e7472616374206973206e6f74206960008201527f6e697469616c697a696e67000000000000000000000000000000000000000000602082015250565b60006200208b602b8362001ab2565b915062002098826200202d565b604082019050919050565b60006020820190508181036000830152620020be816200207c565b9050919050565b6000606082019050620020dc6000830186620017c1565b620020eb6020830185620017c1565b620020fa604083018462001e8a565b949350505050565b6200210d8162001787565b81146200211957600080fd5b50565b6000815190506200212d8162002102565b92915050565b6000602082840312156200214c576200214b620016eb565b5b60006200215c848285016200211c565b91505092915050565b7f5472616e7366657248656c7065723a3a7472616e7366657246726f6d3a20747260008201527f616e7366657246726f6d206661696c6564000000000000000000000000000000602082015250565b6000620021c360318362001ab2565b9150620021d08262002165565b604082019050919050565b60006020820190508181036000830152620021f681620021b4565b9050919050565b6000604082019050620022146000830185620017c1565b62002223602083018462001e8a565b9392505050565b7f5472616e7366657248656c7065723a3a73616665417070726f76653a2061707060008201527f726f7665206661696c6564000000000000000000000000000000000000000000602082015250565b600062002288602b8362001ab2565b915062002295826200222a565b604082019050919050565b60006020820190508181036000830152620022bb8162002279565b9050919050565b600081519050919050565b6000620022da82620022c2565b620022e6818562001ab2565b9350620022f881856020860162001cba565b620023038162001ce6565b840191505092915050565b600060208201905081810360008301526200232a8184620022cd565b905092915050565b600060208201905081810360008301526200234e818462001cf7565b90509291505056fe60806040526040516200118c3803806200118c833981810160405281019062000029919062000705565b818160017fa3f0ad74e5423aebfd80d3ef4346578335a9a72aeaee59ff6cb3582b35133d5160001c6200005d9190620007a4565b60001b7fa3f0ad74e5423aebfd80d3ef4346578335a9a72aeaee59ff6cb3582b35133d5060001b14620000955762000094620007df565b5b620000a982826000620000b360201b60201c565b5050505062000b88565b620000c483620001bb60201b60201c565b8273ffffffffffffffffffffffffffffffffffffffff167f1cf3b03a6cf19fa2baba4df148e9dcabedea7f8a5c07840e207e5c089be95d3e60405160405180910390a2600082511180620001155750805b15620001b657620001b48373ffffffffffffffffffffffffffffffffffffffff16630d74157763c4d66de86040518263ffffffff1660e01b81526004016200015e91906200088a565b602060405180830381865afa1580156200017c573d6000803e3d6000fd5b505050506040513d601f19601f82011682018060405250810190620001a29190620008a7565b836200035a60201b6200002f1760201c565b505b505050565b620001d1816200039060201b6200005c1760201c565b62000213576040517f08c379a00000000000000000000000000000000000000000000000000000000081526004016200020a9062000960565b60405180910390fd5b6200029a8173ffffffffffffffffffffffffffffffffffffffff16635c60da1b6040518163ffffffff1660e01b8152600401602060405180830381865afa15801562000263573d6000803e3d6000fd5b505050506040513d601f19601f82011682018060405250810190620002899190620008a7565b6200039060201b6200005c1760201c565b620002dc576040517f08c379a0000000000000000000000000000000000000000000000000000000008152600401620002d390620009f8565b60405180910390fd5b80620003167fa3f0ad74e5423aebfd80d3ef4346578335a9a72aeaee59ff6cb3582b35133d5060001b620003b360201b6200007f1760201c565b60000160006101000a81548173ffffffffffffffffffffffffffffffffffffffff021916908373ffffffffffffffffffffffffffffffffffffffff16021790555050565b60606200038883836040518060600160405280602781526020016200116560279139620003bd60201b60201c565b905092915050565b6000808273ffffffffffffffffffffffffffffffffffffffff163b119050919050565b6000819050919050565b6060620003d0846200039060201b60201c565b62000412576040517f08c379a0000000000000000000000000000000000000000000000000000000008152600401620004099062000a90565b60405180910390fd5b6000808573ffffffffffffffffffffffffffffffffffffffff16856040516200043c919062000aff565b600060405180830381855af49150503d806000811462000479576040519150601f19603f3d011682016040523d82523d6000602084013e6200047e565b606091505b509150915062000496828286620004a160201b60201c565b925050509392505050565b60608315620004b35782905062000506565b600083511115620004c75782518084602001fd5b816040517f08c379a0000000000000000000000000000000000000000000000000000000008152600401620004fd919062000b64565b60405180910390fd5b9392505050565b6000604051905090565b600080fd5b600080fd5b600073ffffffffffffffffffffffffffffffffffffffff82169050919050565b60006200054e8262000521565b9050919050565b620005608162000541565b81146200056c57600080fd5b50565b600081519050620005808162000555565b92915050565b600080fd5b600080fd5b6000601f19601f8301169050919050565b7f4e487b7100000000000000000000000000000000000000000000000000000000600052604160045260246000fd5b620005db8262000590565b810181811067ffffffffffffffff82111715620005fd57620005fc620005a1565b5b80604052505050565b6000620006126200050d565b9050620006208282620005d0565b919050565b600067ffffffffffffffff821115620006435762000642620005a1565b5b6200064e8262000590565b9050602081019050919050565b60005b838110156200067b5780820151818401526020810190506200065e565b60008484015250505050565b60006200069e620006988462000625565b62000606565b905082815260208101848484011115620006bd57620006bc6200058b565b5b620006ca8482856200065b565b509392505050565b600082601f830112620006ea57620006e962000586565b5b8151620006fc84826020860162000687565b91505092915050565b600080604083850312156200071f576200071e62000517565b5b60006200072f858286016200056f565b925050602083015167ffffffffffffffff8111156200075357620007526200051c565b5b6200076185828601620006d2565b9150509250929050565b6000819050919050565b7f4e487b7100000000000000000000000000000000000000000000000000000000600052601160045260246000fd5b6000620007b1826200076b565b9150620007be836200076b565b9250828203905081811115620007d957620007d862000775565b5b92915050565b7f4e487b7100000000000000000000000000000000000000000000000000000000600052600160045260246000fd5b6000819050919050565b60007fffffffff0000000000000000000000000000000000000000000000000000000082169050919050565b60008160e01b9050919050565b6000620008726200086c62000866846200080e565b62000844565b62000818565b9050919050565b620008848162000851565b82525050565b6000602082019050620008a1600083018462000879565b92915050565b600060208284031215620008c057620008bf62000517565b5b6000620008d0848285016200056f565b91505092915050565b600082825260208201905092915050565b7f455243313936373a206e657720626561636f6e206973206e6f74206120636f6e60008201527f7472616374000000000000000000000000000000000000000000000000000000602082015250565b600062000948602583620008d9565b91506200095582620008ea565b604082019050919050565b600060208201905081810360008301526200097b8162000939565b9050919050565b7f455243313936373a20626561636f6e20696d706c656d656e746174696f6e206960008201527f73206e6f74206120636f6e747261637400000000000000000000000000000000602082015250565b6000620009e0603083620008d9565b9150620009ed8262000982565b604082019050919050565b6000602082019050818103600083015262000a1381620009d1565b9050919050565b7f416464726573733a2064656c65676174652063616c6c20746f206e6f6e2d636f60008201527f6e74726163740000000000000000000000000000000000000000000000000000602082015250565b600062000a78602683620008d9565b915062000a858262000a1a565b604082019050919050565b6000602082019050818103600083015262000aab8162000a69565b9050919050565b600081519050919050565b600081905092915050565b600062000ad58262000ab2565b62000ae1818562000abd565b935062000af38185602086016200065b565b80840191505092915050565b600062000b0d828462000ac8565b915081905092915050565b600081519050919050565b600062000b308262000b18565b62000b3c8185620008d9565b935062000b4e8185602086016200065b565b62000b598162000590565b840191505092915050565b6000602082019050818103600083015262000b80818462000b23565b905092915050565b6105cd8062000b986000396000f3fe60806040523661000b57005b610013610015565b005b61001d610089565b61002d61002861008b565b610137565b565b606061005483836040518060600160405280602781526020016105716027913961015d565b905092915050565b6000808273ffffffffffffffffffffffffffffffffffffffff163b119050919050565b6000819050919050565b565b600061009561022a565b73ffffffffffffffffffffffffffffffffffffffff16630d7415776000357fffffffff00000000000000000000000000000000000000000000000000000000166040518263ffffffff1660e01b81526004016100f19190610323565b602060405180830381865afa15801561010e573d6000803e3d6000fd5b505050506040513d601f19601f8201168201806040525081019061013291906103a1565b905090565b3660008037600080366000845af43d6000803e8060008114610158573d6000f35b3d6000fd5b60606101688461005c565b6101a7576040517f08c379a000000000000000000000000000000000000000000000000000000000815260040161019e90610451565b60405180910390fd5b6000808573ffffffffffffffffffffffffffffffffffffffff16856040516101cf91906104e2565b600060405180830381855af49150503d806000811461020a576040519150601f19603f3d011682016040523d82523d6000602084013e61020f565b606091505b509150915061021f828286610281565b925050509392505050565b60006102587fa3f0ad74e5423aebfd80d3ef4346578335a9a72aeaee59ff6cb3582b35133d5060001b61007f565b60000160009054906101000a900473ffffffffffffffffffffffffffffffffffffffff16905090565b60608315610291578290506102e1565b6000835111156102a45782518084602001fd5b816040517f08c379a00000000000000000000000000000000000000000000000000000000081526004016102d8919061054e565b60405180910390fd5b9392505050565b60007fffffffff0000000000000000000000000000000000000000000000000000000082169050919050565b61031d816102e8565b82525050565b60006020820190506103386000830184610314565b92915050565b600080fd5b600073ffffffffffffffffffffffffffffffffffffffff82169050919050565b600061036e82610343565b9050919050565b61037e81610363565b811461038957600080fd5b50565b60008151905061039b81610375565b92915050565b6000602082840312156103b7576103b661033e565b5b60006103c58482850161038c565b91505092915050565b600082825260208201905092915050565b7f416464726573733a2064656c65676174652063616c6c20746f206e6f6e2d636f60008201527f6e74726163740000000000000000000000000000000000000000000000000000602082015250565b600061043b6026836103ce565b9150610446826103df565b604082019050919050565b6000602082019050818103600083015261046a8161042e565b9050919050565b600081519050919050565b600081905092915050565b60005b838110156104a557808201518184015260208101905061048a565b60008484015250505050565b60006104bc82610471565b6104c6818561047c565b93506104d6818560208601610487565b80840191505092915050565b60006104ee82846104b1565b915081905092915050565b600081519050919050565b6000601f19601f8301169050919050565b6000610520826104f9565b61052a81856103ce565b935061053a818560208601610487565b61054381610504565b840191505092915050565b600060208201905081810360008301526105688184610515565b90509291505056fe416464726573733a206c6f772d6c6576656c2064656c65676174652063616c6c206661696c6564a264697066735822122020663806139109aa5c082f097e681397619964882feea883016880ce5707bf3864736f6c63430008110033416464726573733a206c6f772d6c6576656c2064656c65676174652063616c6c206661696c6564a2646970667358221220ac7194253083e4b0199e7598d0ce0e12ccf2d62311081923534a2b3b2b60c3f464736f6c63430008110033",
  "linkReferences": {},
  "deployedLinkReferences": {}
}