{
  "_format": "hh-sol-artifact-1",
  "contractName": "CompoundingIndexDebug",
  "sourceName": "contracts/mock/CompoundingIndexDebug.sol",
  "abi": [
    {
      "anonymous": false,
      "inputs": [
        {
          "indexed": true,
          "internalType": "address",
          "name": "previousOwner",
          "type": "address"
        },
        {
          "indexed": true,
          "internalType": "address",
          "name": "newOwner",
          "type": "address"
        }
      ],
      "name": "OwnershipTransferred",
      "type": "event"
    },
    {
      "inputs": [],
      "name": "getIndex",
      "outputs": [
        {
          "internalType": "uint256",
          "name": "",
          "type": "uint256"
        }
      ],
      "stateMutability": "view",
      "type": "function"
    },
    {
      "inputs": [
        {
          "internalType": "uint256",
          "name": "value",
          "type": "uint256"
        },
        {
          "internalType": "address",
          "name": "user",
          "type": "address"
        }
      ],
      "name": "getIndexedValue",
      "outputs": [
        {
          "internalType": "uint256",
          "name": "",
          "type": "uint256"
        }
      ],
      "stateMutability": "view",
      "type": "function"
    },
    {
      "inputs": [],
      "name": "index",
      "outputs": [
        {
          "internalType": "uint256",
          "name": "",
          "type": "uint256"
        }
      ],
      "stateMutability": "view",
      "type": "function"
    },
    {
      "inputs": [],
      "name": "indexUpdateTime",
      "outputs": [
        {
          "internalType": "uint256",
          "name": "",
          "type": "uint256"
        }
      ],
      "stateMutability": "view",
      "type": "function"
    },
    {
      "inputs": [],
      "name": "owner",
      "outputs": [
        {
          "internalType": "address",
          "name": "",
          "type": "address"
        }
      ],
      "stateMutability": "view",
      "type": "function"
    },
    {
      "inputs": [],
      "name": "rate",
      "outputs": [
        {
          "internalType": "uint256",
          "name": "",
          "type": "uint256"
        }
      ],
      "stateMutability": "view",
      "type": "function"
    },
    {
      "inputs": [],
      "name": "renounceOwnership",
      "outputs": [],
      "stateMutability": "nonpayable",
      "type": "function"
    },
    {
      "inputs": [
        {
          "internalType": "uint256",
          "name": "_rate",
          "type": "uint256"
        }
      ],
      "name": "setRate",
      "outputs": [],
      "stateMutability": "nonpayable",
      "type": "function"
    },
    {
      "inputs": [],
      "name": "start",
      "outputs": [
        {
          "internalType": "uint256",
          "name": "",
          "type": "uint256"
        }
      ],
      "stateMutability": "view",
      "type": "function"
    },
    {
      "inputs": [
        {
          "internalType": "address",
          "name": "newOwner",
          "type": "address"
        }
      ],
      "name": "transferOwnership",
      "outputs": [],
      "stateMutability": "nonpayable",
      "type": "function"
    },
    {
      "inputs": [
        {
          "internalType": "address",
          "name": "user",
          "type": "address"
        }
      ],
      "name": "updateUser",
      "outputs": [],
      "stateMutability": "nonpayable",
      "type": "function"
    }
  ],
  "bytecode": "0x608060405242600155670de0b6b3a764000060025560015460035534801561002657600080fd5b5061004361003861004860201b60201c565b61005060201b60201c565b610114565b600033905090565b60008060009054906101000a900473ffffffffffffffffffffffffffffffffffffffff169050816000806101000a81548173ffffffffffffffffffffffffffffffffffffffff021916908373ffffffffffffffffffffffffffffffffffffffff1602179055508173ffffffffffffffffffffffffffffffffffffffff168173ffffffffffffffffffffffffffffffffffffffff167f8be0079c531659141344cd1fd0a4f28419497f9722a3daafe3b4186f6b6457e060405160405180910390a35050565b610db4806101236000396000f3fe608060405234801561001057600080fd5b50600436106100a95760003560e01c806381045ead1161007157806381045ead1461012e5780638da5cb5b1461014c578063966da8891461016a578063be9a65551461019a578063ed03b336146101b8578063f2fde38b146101d4576100a9565b80632986c0e5146100ae5780632c4e722e146100cc57806334fcf437146100ea578063715018a614610106578063798d1df714610110575b600080fd5b6100b66101f0565b6040516100c39190610acc565b60405180910390f35b6100d46101f6565b6040516100e19190610acc565b60405180910390f35b61010460048036038101906100ff91906109a8565b6101fc565b005b61010e61028a565b005b610118610312565b6040516101259190610acc565b60405180910390f35b610136610318565b6040516101439190610acc565b60405180910390f35b610154610373565b6040516101619190610a71565b60405180910390f35b610184600480360381019061017f91906109d1565b61039c565b6040516101919190610acc565b60405180910390f35b6101a261040d565b6040516101af9190610acc565b60405180910390f35b6101d260048036038101906101cd919061097f565b610413565b005b6101ee60048036038101906101e9919061097f565b6104f5565b005b60025481565b60065481565b6102046105ed565b73ffffffffffffffffffffffffffffffffffffffff16610222610373565b73ffffffffffffffffffffffffffffffffffffffff1614610278576040517f08c379a000000000000000000000000000000000000000000000000000000000815260040161026f90610aac565b60405180910390fd5b6102806105f5565b8060068190555050565b6102926105ed565b73ffffffffffffffffffffffffffffffffffffffff166102b0610373565b73ffffffffffffffffffffffffffffffffffffffff1614610306576040517f08c379a00000000000000000000000000000000000000000000000000000000081526004016102fd90610aac565b60405180910390fd5b6103106000610628565b565b60035481565b600080600354426103299190610bd9565b905060008111156103695761036161035c610343836106ec565b61034e600254610733565b61074c90919063ffffffff16565b61079c565b915050610370565b6002549150505b90565b60008060009054906101000a900473ffffffffffffffffffffffffffffffffffffffff16905090565b60006104056104006103c8600460006103b4876107d5565b815260200190815260200160002054610733565b6103f26103db6103d6610318565b610733565b6103e488610733565b61074c90919063ffffffff16565b61086d90919063ffffffff16565b61079c565b905092915050565b60015481565b61041b6105ed565b73ffffffffffffffffffffffffffffffffffffffff16610439610373565b73ffffffffffffffffffffffffffffffffffffffff161461048f576040517f08c379a000000000000000000000000000000000000000000000000000000000815260040161048690610aac565b60405180910390fd5b42600560008373ffffffffffffffffffffffffffffffffffffffff1673ffffffffffffffffffffffffffffffffffffffff168152602001908152602001600020819055506104db610318565b600460004281526020019081526020016000208190555050565b6104fd6105ed565b73ffffffffffffffffffffffffffffffffffffffff1661051b610373565b73ffffffffffffffffffffffffffffffffffffffff1614610571576040517f08c379a000000000000000000000000000000000000000000000000000000000815260040161056890610aac565b60405180910390fd5b600073ffffffffffffffffffffffffffffffffffffffff168173ffffffffffffffffffffffffffffffffffffffff1614156105e1576040517f08c379a00000000000000000000000000000000000000000000000000000000081526004016105d890610a8c565b60405180910390fd5b6105ea81610628565b50565b600033905090565b60025460046000600354815260200190815260200160002081905550610619610318565b60028190555042600381905550565b60008060009054906101000a900473ffffffffffffffffffffffffffffffffffffffff169050816000806101000a81548173ffffffffffffffffffffffffffffffffffffffff021916908373ffffffffffffffffffffffffffffffffffffffff1602179055508173ffffffffffffffffffffffffffffffffffffffff168173ffffffffffffffffffffffffffffffffffffffff167f8be0079c531659141344cd1fd0a4f28419497f9722a3daafe3b4186f6b6457e060405160405180910390a35050565b600061072c826106fa6108b6565b6301e1338061070a600654610733565b6107149190610b4e565b61071e9190610af8565b6108ca90919063ffffffff16565b9050919050565b6000633b9aca00826107459190610b7f565b9050919050565b60006b033b2e3c9fd0803ce800000082846107679190610b7f565b60026b033b2e3c9fd0803ce80000006107809190610b4e565b61078a9190610af8565b6107949190610b4e565b905092915050565b6000806002633b9aca006107b09190610b4e565b9050633b9aca0083826107c39190610af8565b6107cd9190610b4e565b915050919050565b600080600560008473ffffffffffffffffffffffffffffffffffffffff1673ffffffffffffffffffffffffffffffffffffffff168152602001908152602001600020541461086257600560008373ffffffffffffffffffffffffffffffffffffffff1673ffffffffffffffffffffffffffffffffffffffff16815260200190815260200160002054610866565b6001545b9050919050565b60008060028361087d9190610b4e565b9050826b033b2e3c9fd0803ce8000000856108989190610b7f565b826108a39190610af8565b6108ad9190610b4e565b91505092915050565b60006b033b2e3c9fd0803ce8000000905090565b6000806002836108da9190610c49565b14156108f2576b033b2e3c9fd0803ce80000006108f4565b825b90506002826109039190610b4e565b91505b6000821461094f57610918838461074c565b925060006002836109299190610c49565b1461093b57610938818461074c565b90505b6002826109489190610b4e565b9150610906565b92915050565b60008135905061096481610d50565b92915050565b60008135905061097981610d67565b92915050565b60006020828403121561099157600080fd5b600061099f84828501610955565b91505092915050565b6000602082840312156109ba57600080fd5b60006109c88482850161096a565b91505092915050565b600080604083850312156109e457600080fd5b60006109f28582860161096a565b9250506020610a0385828601610955565b9150509250929050565b610a1681610c0d565b82525050565b6000610a29602683610ae7565b9150610a3482610cd8565b604082019050919050565b6000610a4c602083610ae7565b9150610a5782610d27565b602082019050919050565b610a6b81610c3f565b82525050565b6000602082019050610a866000830184610a0d565b92915050565b60006020820190508181036000830152610aa581610a1c565b9050919050565b60006020820190508181036000830152610ac581610a3f565b9050919050565b6000602082019050610ae16000830184610a62565b92915050565b600082825260208201905092915050565b6000610b0382610c3f565b9150610b0e83610c3f565b9250827fffffffffffffffffffffffffffffffffffffffffffffffffffffffffffffffff03821115610b4357610b42610c7a565b5b828201905092915050565b6000610b5982610c3f565b9150610b6483610c3f565b925082610b7457610b73610ca9565b5b828204905092915050565b6000610b8a82610c3f565b9150610b9583610c3f565b9250817fffffffffffffffffffffffffffffffffffffffffffffffffffffffffffffffff0483118215151615610bce57610bcd610c7a565b5b828202905092915050565b6000610be482610c3f565b9150610bef83610c3f565b925082821015610c0257610c01610c7a565b5b828203905092915050565b6000610c1882610c1f565b9050919050565b600073ffffffffffffffffffffffffffffffffffffffff82169050919050565b6000819050919050565b6000610c5482610c3f565b9150610c5f83610c3f565b925082610c6f57610c6e610ca9565b5b828206905092915050565b7f4e487b7100000000000000000000000000000000000000000000000000000000600052601160045260246000fd5b7f4e487b7100000000000000000000000000000000000000000000000000000000600052601260045260246000fd5b7f4f776e61626c653a206e6577206f776e657220697320746865207a65726f206160008201527f6464726573730000000000000000000000000000000000000000000000000000602082015250565b7f4f776e61626c653a2063616c6c6572206973206e6f7420746865206f776e6572600082015250565b610d5981610c0d565b8114610d6457600080fd5b50565b610d7081610c3f565b8114610d7b57600080fd5b5056fea26469706673582212204f4bd5f2672b7c6c9d80905bcb7630b75c6b5ff69da35d1fd4d05425608e93c864736f6c63430008040033",
  "linkReferences": {},
  "deployedLinkReferences": {}
}