{
  "_format": "hh-sol-artifact-1",
  "contractName": "SmartLoanLimitedCollateral",
  "sourceName": "contracts/upgraded/SmartLoanLimitedCollateral.sol",
  "abi": [
    {
      "anonymous": false,
      "inputs": [
        {
          "indexed": true,
          "internalType": "address",
          "name": "borrower",
          "type": "address"
        },
        {
          "indexed": false,
          "internalType": "uint256",
          "name": "amount",
          "type": "uint256"
        },
        {
          "indexed": false,
          "internalType": "uint256",
          "name": "timestamp",
          "type": "uint256"
        }
      ],
      "name": "Borrowed",
      "type": "event"
    },
    {
      "anonymous": false,
      "inputs": [
        {
          "indexed": true,
          "internalType": "address",
          "name": "funder",
          "type": "address"
        },
        {
          "indexed": false,
          "internalType": "uint256",
          "name": "amount",
          "type": "uint256"
        },
        {
          "indexed": false,
          "internalType": "uint256",
          "name": "timestamp",
          "type": "uint256"
        }
      ],
      "name": "Funded",
      "type": "event"
    },
    {
      "anonymous": false,
      "inputs": [
        {
          "indexed": true,
          "internalType": "address",
          "name": "investor",
          "type": "address"
        },
        {
          "indexed": true,
          "internalType": "bytes32",
          "name": "asset",
          "type": "bytes32"
        },
        {
          "indexed": false,
          "internalType": "uint256",
          "name": "amount",
          "type": "uint256"
        },
        {
          "indexed": false,
          "internalType": "uint256",
          "name": "timestamp",
          "type": "uint256"
        }
      ],
      "name": "Invested",
      "type": "event"
    },
    {
      "anonymous": false,
      "inputs": [
        {
          "indexed": true,
          "internalType": "address",
          "name": "liquidator",
          "type": "address"
        },
        {
          "indexed": false,
          "internalType": "uint256",
          "name": "repayAmount",
          "type": "uint256"
        },
        {
          "indexed": false,
          "internalType": "uint256",
          "name": "bonus",
          "type": "uint256"
        },
        {
          "indexed": false,
          "internalType": "uint256",
          "name": "ltv",
          "type": "uint256"
        },
        {
          "indexed": false,
          "internalType": "uint256",
          "name": "timestamp",
          "type": "uint256"
        }
      ],
      "name": "Liquidated",
      "type": "event"
    },
    {
      "anonymous": false,
      "inputs": [
        {
          "indexed": false,
          "internalType": "uint256",
          "name": "debtRepaid",
          "type": "uint256"
        },
        {
          "indexed": false,
          "internalType": "uint256",
          "name": "withdrawalAmount",
          "type": "uint256"
        },
        {
          "indexed": false,
          "internalType": "uint256",
          "name": "timestamp",
          "type": "uint256"
        }
      ],
      "name": "LoanClosed",
      "type": "event"
    },
    {
      "anonymous": false,
      "inputs": [
        {
          "indexed": true,
          "internalType": "address",
          "name": "previousOwner",
          "type": "address"
        },
        {
          "indexed": true,
          "internalType": "address",
          "name": "newOwner",
          "type": "address"
        }
      ],
      "name": "OwnershipTransferred",
      "type": "event"
    },
    {
      "anonymous": false,
      "inputs": [
        {
          "indexed": true,
          "internalType": "address",
          "name": "investor",
          "type": "address"
        },
        {
          "indexed": true,
          "internalType": "bytes32",
          "name": "asset",
          "type": "bytes32"
        },
        {
          "indexed": false,
          "internalType": "uint256",
          "name": "amount",
          "type": "uint256"
        },
        {
          "indexed": false,
          "internalType": "uint256",
          "name": "timestamp",
          "type": "uint256"
        }
      ],
      "name": "Redeemed",
      "type": "event"
    },
    {
      "anonymous": false,
      "inputs": [
        {
          "indexed": true,
          "internalType": "address",
          "name": "borrower",
          "type": "address"
        },
        {
          "indexed": false,
          "internalType": "uint256",
          "name": "amount",
          "type": "uint256"
        },
        {
          "indexed": false,
          "internalType": "uint256",
          "name": "timestamp",
          "type": "uint256"
        }
      ],
      "name": "Repaid",
      "type": "event"
    },
    {
      "anonymous": false,
      "inputs": [
        {
          "indexed": true,
          "internalType": "address",
          "name": "owner",
          "type": "address"
        },
        {
          "indexed": false,
          "internalType": "uint256",
          "name": "amount",
          "type": "uint256"
        },
        {
          "indexed": false,
          "internalType": "uint256",
          "name": "timestamp",
          "type": "uint256"
        }
      ],
      "name": "Withdrawn",
      "type": "event"
    },
    {
      "inputs": [
        {
          "internalType": "uint256",
          "name": "_amount",
          "type": "uint256"
        }
      ],
      "name": "borrow",
      "outputs": [],
      "stateMutability": "nonpayable",
      "type": "function"
    },
    {
      "inputs": [],
      "name": "closeLoan",
      "outputs": [],
      "stateMutability": "payable",
      "type": "function"
    },
    {
      "inputs": [],
      "name": "fund",
      "outputs": [],
      "stateMutability": "payable",
      "type": "function"
    },
    {
      "inputs": [],
      "name": "getAllAssetsBalances",
      "outputs": [
        {
          "internalType": "uint256[]",
          "name": "",
          "type": "uint256[]"
        }
      ],
      "stateMutability": "view",
      "type": "function"
    },
    {
      "inputs": [],
      "name": "getAllAssetsPrices",
      "outputs": [
        {
          "internalType": "uint256[]",
          "name": "",
          "type": "uint256[]"
        }
      ],
      "stateMutability": "view",
      "type": "function"
    },
    {
      "inputs": [
        {
          "internalType": "address",
          "name": "_user",
          "type": "address"
        },
        {
          "internalType": "bytes32",
          "name": "_asset",
          "type": "bytes32"
        }
      ],
      "name": "getBalance",
      "outputs": [
        {
          "internalType": "uint256",
          "name": "",
          "type": "uint256"
        }
      ],
      "stateMutability": "view",
      "type": "function"
    },
    {
      "inputs": [],
      "name": "getDebt",
      "outputs": [
        {
          "internalType": "uint256",
          "name": "",
          "type": "uint256"
        }
      ],
      "stateMutability": "view",
      "type": "function"
    },
    {
      "inputs": [],
      "name": "getExchange",
      "outputs": [
        {
          "internalType": "contract IAssetsExchange",
          "name": "",
          "type": "address"
        }
      ],
      "stateMutability": "view",
      "type": "function"
    },
    {
      "inputs": [],
      "name": "getFullLoanStatus",
      "outputs": [
        {
          "internalType": "uint256[4]",
          "name": "",
          "type": "uint256[4]"
        }
      ],
      "stateMutability": "view",
      "type": "function"
    },
    {
      "inputs": [],
      "name": "getLTV",
      "outputs": [
        {
          "internalType": "uint256",
          "name": "",
          "type": "uint256"
        }
      ],
      "stateMutability": "view",
      "type": "function"
    },
    {
      "inputs": [],
      "name": "getLiquidationBonus",
      "outputs": [
        {
          "internalType": "uint256",
          "name": "",
          "type": "uint256"
        }
      ],
      "stateMutability": "view",
      "type": "function"
    },
    {
      "inputs": [],
      "name": "getMaxBlockTimestampDelay",
      "outputs": [
        {
          "internalType": "uint256",
          "name": "",
          "type": "uint256"
        }
      ],
      "stateMutability": "view",
      "type": "function"
    },
    {
      "inputs": [],
      "name": "getMaxDataTimestampDelay",
      "outputs": [
        {
          "internalType": "uint256",
          "name": "",
          "type": "uint256"
        }
      ],
      "stateMutability": "view",
      "type": "function"
    },
    {
      "inputs": [],
      "name": "getMaxLtv",
      "outputs": [
        {
          "internalType": "uint256",
          "name": "",
          "type": "uint256"
        }
      ],
      "stateMutability": "view",
      "type": "function"
    },
    {
      "inputs": [],
      "name": "getMinSelloutLtv",
      "outputs": [
        {
          "internalType": "uint256",
          "name": "",
          "type": "uint256"
        }
      ],
      "stateMutability": "view",
      "type": "function"
    },
    {
      "inputs": [],
      "name": "getPercentagePrecision",
      "outputs": [
        {
          "internalType": "uint256",
          "name": "",
          "type": "uint256"
        }
      ],
      "stateMutability": "view",
      "type": "function"
    },
    {
      "inputs": [],
      "name": "getPool",
      "outputs": [
        {
          "internalType": "contract Pool",
          "name": "",
          "type": "address"
        }
      ],
      "stateMutability": "view",
      "type": "function"
    },
    {
      "inputs": [],
      "name": "getPriceProvider1",
      "outputs": [
        {
          "internalType": "address",
          "name": "",
          "type": "address"
        }
      ],
      "stateMutability": "view",
      "type": "function"
    },
    {
      "inputs": [],
      "name": "getPriceProvider2",
      "outputs": [
        {
          "internalType": "address",
          "name": "",
          "type": "address"
        }
      ],
      "stateMutability": "view",
      "type": "function"
    },
    {
      "inputs": [],
      "name": "getTotalValue",
      "outputs": [
        {
          "internalType": "uint256",
          "name": "",
          "type": "uint256"
        }
      ],
      "stateMutability": "view",
      "type": "function"
    },
    {
      "inputs": [],
      "name": "initialize",
      "outputs": [],
      "stateMutability": "nonpayable",
      "type": "function"
    },
    {
      "inputs": [
        {
          "internalType": "bytes32",
          "name": "_asset",
          "type": "bytes32"
        },
        {
          "internalType": "uint256",
          "name": "_exactERC20AmountOut",
          "type": "uint256"
        },
        {
          "internalType": "uint256",
          "name": "_maxAvaxAmountIn",
          "type": "uint256"
        }
      ],
      "name": "invest",
      "outputs": [],
      "stateMutability": "nonpayable",
      "type": "function"
    },
    {
      "inputs": [
        {
          "internalType": "address",
          "name": "_receivedSigner",
          "type": "address"
        }
      ],
      "name": "isSignerAuthorized",
      "outputs": [
        {
          "internalType": "bool",
          "name": "",
          "type": "bool"
        }
      ],
      "stateMutability": "view",
      "type": "function"
    },
    {
      "inputs": [],
      "name": "isSolvent",
      "outputs": [
        {
          "internalType": "bool",
          "name": "",
          "type": "bool"
        }
      ],
      "stateMutability": "view",
      "type": "function"
    },
    {
      "inputs": [
        {
          "internalType": "uint256",
          "name": "_receivedTimestamp",
          "type": "uint256"
        }
      ],
      "name": "isTimestampValid",
      "outputs": [
        {
          "internalType": "bool",
          "name": "",
          "type": "bool"
        }
      ],
      "stateMutability": "view",
      "type": "function"
    },
    {
      "inputs": [
        {
          "internalType": "uint256",
          "name": "repayAmount",
          "type": "uint256"
        }
      ],
      "name": "liquidateLoan",
      "outputs": [],
      "stateMutability": "payable",
      "type": "function"
    },
    {
      "inputs": [],
      "name": "owner",
      "outputs": [
        {
          "internalType": "address",
          "name": "",
          "type": "address"
        }
      ],
      "stateMutability": "view",
      "type": "function"
    },
    {
      "inputs": [
        {
          "internalType": "bytes32",
          "name": "_asset",
          "type": "bytes32"
        },
        {
          "internalType": "uint256",
          "name": "_exactERC20AmountIn",
          "type": "uint256"
        },
        {
          "internalType": "uint256",
          "name": "_minAvaxAmountOut",
          "type": "uint256"
        }
      ],
      "name": "redeem",
      "outputs": [],
      "stateMutability": "nonpayable",
      "type": "function"
    },
    {
      "inputs": [],
      "name": "renounceOwnership",
      "outputs": [],
      "stateMutability": "nonpayable",
      "type": "function"
    },
    {
      "inputs": [
        {
          "internalType": "uint256",
          "name": "_amount",
          "type": "uint256"
        }
      ],
      "name": "repay",
      "outputs": [],
      "stateMutability": "payable",
      "type": "function"
    },
    {
      "inputs": [
        {
          "internalType": "address",
          "name": "newOwner",
          "type": "address"
        }
      ],
      "name": "transferOwnership",
      "outputs": [],
      "stateMutability": "nonpayable",
      "type": "function"
    },
    {
      "inputs": [
        {
          "internalType": "uint256",
          "name": "_amount",
          "type": "uint256"
        }
      ],
      "name": "withdraw",
      "outputs": [],
      "stateMutability": "nonpayable",
      "type": "function"
    },
    {
      "inputs": [
        {
          "internalType": "bytes32",
          "name": "asset",
          "type": "bytes32"
        },
        {
          "internalType": "uint256",
          "name": "amount",
          "type": "uint256"
        }
      ],
      "name": "withdrawAsset",
      "outputs": [],
      "stateMutability": "nonpayable",
      "type": "function"
    },
    {
      "stateMutability": "payable",
      "type": "receive"
    }
  ],
  "bytecode": "0x608060405260008060006101000a81548160ff02191690831515021790555034801561002a57600080fd5b506154ed8061003a6000396000f3fe6080604052600436106101f25760003560e01c8063715018a61161010d578063c5ebeaec116100a0578063d2b29d701161006f578063d2b29d7014610658578063d44e282b14610681578063f2fde38b146106ac578063f31a210a146106d5578063f807cd2214610700576101f9565b8063c5ebeaec146105ab578063c79d5ec5146105d4578063caa648b414610611578063ccdd9f5d1461063c576101f9565b80638da5cb5b116100dc5780638da5cb5b14610520578063a935310f1461054b578063b5dbd7f014610576578063b60d4288146105a1576101f9565b8063715018a61461048c57806375058205146104a35780638129fc1c146104e05780638a027cb3146104f7576101f9565b8063371fd8e61161018557806352154a261161015457806352154a26146103e057806359aa9e721461040b5780635ce23950146104365780636b6c92d914610461576101f9565b8063371fd8e6146103435780634ed2b8ac1461035f5780634fcaf08f1461038a5780635118af5a146103b5576101f9565b806314a6bf0f116101c157806314a6bf0f146102ba578063232fa733146102e55780632802fdc8146102ef5780632e1a7d4d1461031a576101f9565b8063026b1d5f146101fe57806305d58c211461022957806311c89b1014610252578063132e1d391461028f576101f9565b366101f957005b600080fd5b34801561020a57600080fd5b5061021361072b565b6040516102209190614200565b60405180910390f35b34801561023557600080fd5b50610250600480360381019061024b91906139e5565b610747565b005b34801561025e57600080fd5b50610279600480360381019061027491906138ed565b61089d565b604051610286919061410a565b60405180910390f35b34801561029b57600080fd5b506102a4610919565b6040516102b1919061457b565b60405180910390f35b3480156102c657600080fd5b506102cf610923565b6040516102dc919061457b565b60405180910390f35b6102ed6109ba565b005b3480156102fb57600080fd5b50610304610dcd565b6040516103119190614089565b60405180910390f35b34801561032657600080fd5b50610341600480360381019061033c9190613a70565b610de9565b005b61035d60048036038101906103589190613a70565b610e57565b005b34801561036b57600080fd5b50610374610fd2565b604051610381919061457b565b60405180910390f35b34801561039657600080fd5b5061039f611049565b6040516103ac9190614089565b60405180910390f35b3480156103c157600080fd5b506103ca611065565b6040516103d7919061457b565b60405180910390f35b3480156103ec57600080fd5b506103f561106e565b604051610402919061457b565b60405180910390f35b34801561041757600080fd5b50610420611078565b60405161042d919061457b565b60405180910390f35b34801561044257600080fd5b5061044b611081565b604051610458919061410a565b60405180910390f35b34801561046d57600080fd5b50610476611099565b60405161048391906140e8565b60405180910390f35b34801561049857600080fd5b506104a1611254565b005b3480156104af57600080fd5b506104ca60048036038101906104c59190613a70565b6112dc565b6040516104d7919061410a565b60405180910390f35b3480156104ec57600080fd5b506104f5611358565b005b34801561050357600080fd5b5061051e60048036038101906105199190613a21565b61144f565b005b34801561052c57600080fd5b506105356116db565b6040516105429190614089565b60405180910390f35b34801561055757600080fd5b50610560611705565b60405161056d91906140e8565b60405180910390f35b34801561058257600080fd5b5061058b6117a4565b604051610598919061457b565b60405180910390f35b6105a96117ae565b005b3480156105b757600080fd5b506105d260048036038101906105cd9190613a70565b611853565b005b3480156105e057600080fd5b506105fb60048036038101906105f6919061393f565b6119db565b604051610608919061457b565b60405180910390f35b34801561061d57600080fd5b50610626611b02565b604051610633919061457b565b60405180910390f35b61065660048036038101906106519190613a70565b611e4d565b005b34801561066457600080fd5b5061067f600480360381019061067a9190613a21565b6120c7565b005b34801561068d57600080fd5b50610696612351565b6040516106a391906140cd565b60405180910390f35b3480156106b857600080fd5b506106d360048036038101906106ce91906138ed565b6123a9565b005b3480156106e157600080fd5b506106ea6124a1565b6040516106f7919061457b565b60405180910390f35b34801561070c57600080fd5b506107156124aa565b60405161072291906141e5565b60405180910390f35b6000735ff1de6091871adaae64e2ec4fed754628482868905090565b61074f6124c6565b73ffffffffffffffffffffffffffffffffffffffff1661076d6116db565b73ffffffffffffffffffffffffffffffffffffffff16146107c3576040517f08c379a00000000000000000000000000000000000000000000000000000000081526004016107ba9061445b565b60405180910390fd5b60026065541415610809576040517f08c379a00000000000000000000000000000000000000000000000000000000081526004016108009061455b565b60405180910390fd5b6002606581905550600061081c836124ce565b905061084933838373ffffffffffffffffffffffffffffffffffffffff166125729092919063ffffffff16565b50610852611081565b610891576040517f08c379a00000000000000000000000000000000000000000000000000000000081526004016108889061447b565b60405180910390fd5b60016065819055505050565b60006108a7610dcd565b73ffffffffffffffffffffffffffffffffffffffff168273ffffffffffffffffffffffffffffffffffffffff16148061091257506108e3611049565b73ffffffffffffffffffffffffffffffffffffffff168273ffffffffffffffffffffffffffffffffffffffff16145b9050919050565b60006103e8905090565b600061092d61072b565b73ffffffffffffffffffffffffffffffffffffffff16636011163e306040518263ffffffff1660e01b81526004016109659190614089565b60206040518083038186803b15801561097d57600080fd5b505afa158015610991573d6000803e3d6000fd5b505050506040513d601f19601f820116820180604052508101906109b59190613a99565b905090565b6109c26124c6565b73ffffffffffffffffffffffffffffffffffffffff166109e06116db565b73ffffffffffffffffffffffffffffffffffffffff1614610a36576040517f08c379a0000000000000000000000000000000000000000000000000000000008152600401610a2d9061445b565b60405180910390fd5b60026065541415610a7c576040517f08c379a0000000000000000000000000000000000000000000000000000000008152600401610a739061455b565b60405180910390fd5b60026065819055506000610a8e6124aa565b73ffffffffffffffffffffffffffffffffffffffff16632acada4d6040518163ffffffff1660e01b815260040160006040518083038186803b158015610ad357600080fd5b505afa158015610ae7573d6000803e3d6000fd5b505050506040513d6000823e3d601f19601f82011682018060405250810190610b10919061397b565b905060005b8151811015610c5d576000610b69838381518110610b5c577f4e487b7100000000000000000000000000000000000000000000000000000000600052603260045260246000fd5b60200260200101516124ce565b73ffffffffffffffffffffffffffffffffffffffff166370a08231306040518263ffffffff1660e01b8152600401610ba19190614089565b60206040518083038186803b158015610bb957600080fd5b505afa158015610bcd573d6000803e3d6000fd5b505050506040513d601f19601f82011682018060405250810190610bf19190613a99565b90506000811115610c4957610c48838381518110610c38577f4e487b7100000000000000000000000000000000000000000000000000000000600052603260045260246000fd5b60200260200101518260006126a8565b5b508080610c5590614b60565b915050610b15565b506000610c68610923565b905080471015610cad576040517f08c379a0000000000000000000000000000000000000000000000000000000008152600401610ca49061427b565b60405180910390fd5b610cb681610e57565b7f4acb957de3799dd3d95bb7da6bcfbca6f5a33812d69ad37816ed87e79b6327d6814742604051610ce9939291906145e8565b60405180910390a160004790506000811115610d7957610d28813373ffffffffffffffffffffffffffffffffffffffff1661278490919063ffffffff16565b3373ffffffffffffffffffffffffffffffffffffffff167f92ccf450a286a957af52509bc1c9939d1a6a481783e142e41e2499f0bb66ebc68242604051610d709291906145bf565b60405180910390a25b505050610d84611081565b610dc3576040517f08c379a0000000000000000000000000000000000000000000000000000000008152600401610dba9061447b565b60405180910390fd5b6001606581905550565b600073981bda8276ae93f567922497153de7a5683708d3905090565b610df2816128aa565b600060017f4e62f1e61cb3124bafeea7becf303f483383d07c7a6ebfa279ac013c045a63ac60001c610e249190614a13565b60001b905060008154905080831115610e405760009050610e4f565b8281610e4c9190614a13565b90505b808255505050565b610e5f611081565b8015610e7c57506000151560008054906101000a900460ff161515145b15610ec157610e896116db565b73ffffffffffffffffffffffffffffffffffffffff163373ffffffffffffffffffffffffffffffffffffffff1614610ec057600080fd5b5b610ed281610ecd610923565b612a82565b905080471015610f17576040517f08c379a0000000000000000000000000000000000000000000000000000000008152600401610f0e906142bb565b60405180910390fd5b610f1f61072b565b73ffffffffffffffffffffffffffffffffffffffff1663402d8883826040518263ffffffff1660e01b81526004016000604051808303818588803b158015610f6657600080fd5b505af1158015610f7a573d6000803e3d6000fd5b50505050503373ffffffffffffffffffffffffffffffffffffffff167f1b8cd61ed43bec7c6bdad3a18ffee613f99c853d16c50678d248d879e1b434388242604051610fc79291906145bf565b60405180910390a250565b600080610fdd610923565b90506000610fe9611b02565b90506000821415610fff57600092505050611046565b808210156110395781816110139190614a13565b61101b610919565b8361102691906149b9565b61103091906147db565b92505050611046565b6110416117a4565b925050505b90565b6000733befdd935b50f172e696a5187dbacfef0d208e48905090565b6000601e905090565b6000610fa0905090565b60006064905090565b600061108b6117a4565b611093610fd2565b10905090565b606060006110a56124aa565b73ffffffffffffffffffffffffffffffffffffffff16632acada4d6040518163ffffffff1660e01b815260040160006040518083038186803b1580156110ea57600080fd5b505afa1580156110fe573d6000803e3d6000fd5b505050506040513d6000823e3d601f19601f82011682018060405250810190611127919061397b565b90506000815167ffffffffffffffff81111561116c577f4e487b7100000000000000000000000000000000000000000000000000000000600052604160045260246000fd5b60405190808252806020026020018201604052801561119a5781602001602082028036833780820191505090505b50905060005b825181101561124b576111f3308483815181106111e6577f4e487b7100000000000000000000000000000000000000000000000000000000600052603260045260246000fd5b60200260200101516119db565b82828151811061122c577f4e487b7100000000000000000000000000000000000000000000000000000000600052603260045260246000fd5b602002602001018181525050808061124390614b60565b9150506111a0565b50809250505090565b61125c6124c6565b73ffffffffffffffffffffffffffffffffffffffff1661127a6116db565b73ffffffffffffffffffffffffffffffffffffffff16146112d0576040517f08c379a00000000000000000000000000000000000000000000000000000000081526004016112c79061445b565b60405180910390fd5b6112da6000612a9b565b565b6000816112e7611065565b426112f29190614785565b11611332576040517f08c379a0000000000000000000000000000000000000000000000000000000008152600401611329906144db565b60405180910390fd5b8142108061135157506113436124a1565b824261134f9190614a13565b105b9050919050565b600060029054906101000a900460ff1661138257600060019054906101000a900460ff161561138b565b61138a612b61565b5b6113ca576040517f08c379a00000000000000000000000000000000000000000000000000000000081526004016113c1906143fb565b60405180910390fd5b60008060029054906101000a900460ff16159050801561141b576001600060026101000a81548160ff0219169083151502179055506001600060016101000a81548160ff0219169083151502179055505b611423612b72565b61142b612bcb565b801561144c5760008060026101000a81548160ff0219169083151502179055505b50565b6114576124c6565b73ffffffffffffffffffffffffffffffffffffffff166114756116db565b73ffffffffffffffffffffffffffffffffffffffff16146114cb576040517f08c379a00000000000000000000000000000000000000000000000000000000081526004016114c29061445b565b60405180910390fd5b60026065541415611511576040517f08c379a00000000000000000000000000000000000000000000000000000000081526004016115089061455b565b60405180910390fd5b60026065819055508047101561155c576040517f08c379a00000000000000000000000000000000000000000000000000000000081526004016115539061451b565b60405180910390fd5b60006115666124aa565b73ffffffffffffffffffffffffffffffffffffffff16635d8874e98386866040518463ffffffff1660e01b81526004016115a1929190614140565b6020604051808303818588803b1580156115ba57600080fd5b505af11580156115ce573d6000803e3d6000fd5b50505050506040513d601f19601f820116820180604052508101906115f391906139bc565b905080611635576040517f08c379a000000000000000000000000000000000000000000000000000000000815260040161162c9061453b565b60405180910390fd5b833373ffffffffffffffffffffffffffffffffffffffff167f8c4f7b2f9ad7fde21c3ebf69d91938c2731761edd5820e45c17ea61d9c2ab90a854260405161167e9291906145bf565b60405180910390a35061168f611081565b6116ce576040517f08c379a00000000000000000000000000000000000000000000000000000000081526004016116c59061447b565b60405180910390fd5b6001606581905550505050565b6000603360009054906101000a900473ffffffffffffffffffffffffffffffffffffffff16905090565b606060006117116124aa565b73ffffffffffffffffffffffffffffffffffffffff16632acada4d6040518163ffffffff1660e01b815260040160006040518083038186803b15801561175657600080fd5b505afa15801561176a573d6000803e3d6000fd5b505050506040513d6000823e3d601f19601f82011682018060405250810190611793919061397b565b905061179e81612c24565b91505090565b6000611388905090565b600060017f4e62f1e61cb3124bafeea7becf303f483383d07c7a6ebfa279ac013c045a63ac60001c6117e09190614a13565b60001b905060008154905034816117f79190614785565b9050671158e460913d0000811115611844576040517f08c379a000000000000000000000000000000000000000000000000000000000815260040161183b9061429b565b60405180910390fd5b80825561184f612d8c565b5050565b61185b6124c6565b73ffffffffffffffffffffffffffffffffffffffff166118796116db565b73ffffffffffffffffffffffffffffffffffffffff16146118cf576040517f08c379a00000000000000000000000000000000000000000000000000000000081526004016118c69061445b565b60405180910390fd5b6118d761072b565b73ffffffffffffffffffffffffffffffffffffffff1663c5ebeaec826040518263ffffffff1660e01b815260040161190f919061457b565b600060405180830381600087803b15801561192957600080fd5b505af115801561193d573d6000803e3d6000fd5b505050503373ffffffffffffffffffffffffffffffffffffffff167feae9cfbc77fdd40ca899f36b608256063b2bc9d8178b0220f7ad513e178d673082426040516119899291906145bf565b60405180910390a2611999611081565b6119d8576040517f08c379a00000000000000000000000000000000000000000000000000000000081526004016119cf9061447b565b60405180910390fd5b50565b6000806119e66124aa565b73ffffffffffffffffffffffffffffffffffffffff166376d02895846040518263ffffffff1660e01b8152600401611a1e9190614125565b60206040518083038186803b158015611a3657600080fd5b505afa158015611a4a573d6000803e3d6000fd5b505050506040513d601f19601f82011682018060405250810190611a6e9190613916565b90508073ffffffffffffffffffffffffffffffffffffffff166370a08231856040518263ffffffff1660e01b8152600401611aa99190614089565b60206040518083038186803b158015611ac157600080fd5b505afa158015611ad5573d6000803e3d6000fd5b505050506040513d601f19601f82011682018060405250810190611af99190613a99565b91505092915050565b6000804790506000611b126124aa565b73ffffffffffffffffffffffffffffffffffffffff16632acada4d6040518163ffffffff1660e01b815260040160006040518083038186803b158015611b5757600080fd5b505afa158015611b6b573d6000803e3d6000fd5b505050506040513d6000823e3d601f19601f82011682018060405250810190611b94919061397b565b90506000611ba182612c24565b9050600081600081518110611bdf577f4e487b7100000000000000000000000000000000000000000000000000000000600052603260045260246000fd5b602002602001015190506000811415611c2d576040517f08c379a0000000000000000000000000000000000000000000000000000000008152600401611c249061433b565b60405180910390fd5b6000600190505b8251811015611e42576000838281518110611c78577f4e487b7100000000000000000000000000000000000000000000000000000000600052603260045260246000fd5b60200260200101511415611cc1576040517f08c379a0000000000000000000000000000000000000000000000000000000008152600401611cb8906143db565b60405180910390fd5b6000848281518110611cfc577f4e487b7100000000000000000000000000000000000000000000000000000000600052603260045260246000fd5b602002602001015190506000611d11826124ce565b90506000611d1f30846119db565b90508173ffffffffffffffffffffffffffffffffffffffff1663313ce5676040518163ffffffff1660e01b815260040160206040518083038186803b158015611d6757600080fd5b505afa158015611d7b573d6000803e3d6000fd5b505050506040513d601f19601f82011682018060405250810190611d9f9190613ac2565b600a611dab919061485f565b85611db691906149b9565b81670de0b6b3a7640000888781518110611df9577f4e487b7100000000000000000000000000000000000000000000000000000000600052603260045260246000fd5b6020026020010151611e0b91906149b9565b611e1591906149b9565b611e1f91906147db565b88611e2a9190614785565b97505050508080611e3a90614b60565b915050611c34565b508394505050505090565b60026065541415611e93576040517f08c379a0000000000000000000000000000000000000000000000000000000008152600401611e8a9061455b565b60405180910390fd5b6002606581905550611ea3611081565b15611ee3576040517f08c379a0000000000000000000000000000000000000000000000000000000008152600401611eda9061437b565b60405180910390fd5b60016000806101000a81548160ff0219169083151502179055506000611f07610923565b905080821115611f15578091505b6000611f1f610919565b611f27611078565b84611f3291906149b9565b611f3c91906147db565b905060008184611f4c9190614785565b9050611f5781612dde565b611f6084612ef1565b611f6982612f06565b3373ffffffffffffffffffffffffffffffffffffffff167f7abe212d4944ae75cf0a0477af92aa0db98c15aaf21d06c37c97c641427b8eb38584611fab610fd2565b42604051611fbc949392919061461f565b60405180910390a25050506000611fd1610fd2565b9050611fdb6116db565b73ffffffffffffffffffffffffffffffffffffffff163373ffffffffffffffffffffffffffffffffffffffff16146120585761201561106e565b811015612057576040517f08c379a000000000000000000000000000000000000000000000000000000000815260040161204e9061443b565b60405180910390fd5b5b6120606117a4565b81106120a1576040517f08c379a00000000000000000000000000000000000000000000000000000000081526004016120989061431b565b60405180910390fd5b60008060006101000a81548160ff02191690831515021790555050600160658190555050565b6002606554141561210d576040517f08c379a00000000000000000000000000000000000000000000000000000000081526004016121049061455b565b60405180910390fd5b600260658190555061211d6124c6565b73ffffffffffffffffffffffffffffffffffffffff1661213b6116db565b73ffffffffffffffffffffffffffffffffffffffff1614612191576040517f08c379a00000000000000000000000000000000000000000000000000000000081526004016121889061445b565b60405180910390fd5b600061219c846124ce565b90506121d06121a96124aa565b848373ffffffffffffffffffffffffffffffffffffffff166125729092919063ffffffff16565b60006121da6124aa565b73ffffffffffffffffffffffffffffffffffffffff166348eedd6b8686866040518463ffffffff1660e01b815260040161221693929190614169565b602060405180830381600087803b15801561223057600080fd5b505af1158015612244573d6000803e3d6000fd5b505050506040513d601f19601f8201168201806040525081019061226891906139bc565b9050806122aa576040517f08c379a00000000000000000000000000000000000000000000000000000000081526004016122a19061449b565b60405180910390fd5b843373ffffffffffffffffffffffffffffffffffffffff167fc95bd7ebbed9b9c3e9477753bcb60d02b328f1e5bce8b1a25986d6c73991c18286426040516122f39291906145bf565b60405180910390a35050612305611081565b612344576040517f08c379a000000000000000000000000000000000000000000000000000000000815260040161233b9061447b565b60405180910390fd5b6001606581905550505050565b61235961378d565b604051806080016040528061236c611b02565b8152602001612379610923565b8152602001612386610fd2565b8152602001612393611081565b61239e5760006123a1565b60015b815250905090565b6123b16124c6565b73ffffffffffffffffffffffffffffffffffffffff166123cf6116db565b73ffffffffffffffffffffffffffffffffffffffff1614612425576040517f08c379a000000000000000000000000000000000000000000000000000000000815260040161241c9061445b565b60405180910390fd5b600073ffffffffffffffffffffffffffffffffffffffff168173ffffffffffffffffffffffffffffffffffffffff161415612495576040517f08c379a000000000000000000000000000000000000000000000000000000000815260040161248c906142db565b60405180910390fd5b61249e81612a9b565b50565b600060b4905090565b6000730278438423f433e277f65d14c0e002b8828702ba905090565b600033905090565b6000806124d96124aa565b73ffffffffffffffffffffffffffffffffffffffff166376d02895846040518263ffffffff1660e01b81526004016125119190614125565b60206040518083038186803b15801561252957600080fd5b505afa15801561253d573d6000803e3d6000fd5b505050506040513d601f19601f820116820180604052508101906125619190613916565b905060008190508092505050919050565b6000808473ffffffffffffffffffffffffffffffffffffffff1663a9059cbb85856040516024016125a49291906140a4565b6040516020818303038152906040529060e01b6020820180517bffffffffffffffffffffffffffffffffffffffffffffffffffffffff83818316178352505050506040516125f2919061404c565b6000604051808303816000865af19150503d806000811461262f576040519150601f19603f3d011682016040523d82523d6000602084013e612634565b606091505b5091509150818015612662575060008151148061266157508080602001905181019061266091906139bc565b5b5b6126a1576040517f08c379a0000000000000000000000000000000000000000000000000000000008152600401612698906144fb565b60405180910390fd5b5050505050565b60006126b3846124ce565b90506126e76126c06124aa565b848373ffffffffffffffffffffffffffffffffffffffff166125729092919063ffffffff16565b6126ef6124aa565b73ffffffffffffffffffffffffffffffffffffffff166348eedd6b8585856040518463ffffffff1660e01b815260040161272b93929190614169565b602060405180830381600087803b15801561274557600080fd5b505af1158015612759573d6000803e3d6000fd5b505050506040513d601f19601f8201168201806040525081019061277d91906139bc565b5050505050565b60008273ffffffffffffffffffffffffffffffffffffffff1682600067ffffffffffffffff8111156127df577f4e487b7100000000000000000000000000000000000000000000000000000000600052604160045260246000fd5b6040519080825280601f01601f1916602001820160405280156128115781602001600182028036833780820191505090505b5060405161281f919061404c565b60006040518083038185875af1925050503d806000811461285c576040519150601f19603f3d011682016040523d82523d6000602084013e612861565b606091505b50509050806128a5576040517f08c379a000000000000000000000000000000000000000000000000000000000815260040161289c9061435b565b60405180910390fd5b505050565b6128b26124c6565b73ffffffffffffffffffffffffffffffffffffffff166128d06116db565b73ffffffffffffffffffffffffffffffffffffffff1614612926576040517f08c379a000000000000000000000000000000000000000000000000000000000815260040161291d9061445b565b60405180910390fd5b6002606554141561296c576040517f08c379a00000000000000000000000000000000000000000000000000000000081526004016129639061455b565b60405180910390fd5b6002606581905550804710156129b7576040517f08c379a00000000000000000000000000000000000000000000000000000000081526004016129ae906143bb565b60405180910390fd5b6129e0813373ffffffffffffffffffffffffffffffffffffffff1661278490919063ffffffff16565b3373ffffffffffffffffffffffffffffffffffffffff167f92ccf450a286a957af52509bc1c9939d1a6a481783e142e41e2499f0bb66ebc68242604051612a289291906145bf565b60405180910390a2612a38611081565b612a77576040517f08c379a0000000000000000000000000000000000000000000000000000000008152600401612a6e9061447b565b60405180910390fd5b600160658190555050565b6000818310612a915781612a93565b825b905092915050565b6000603360009054906101000a900473ffffffffffffffffffffffffffffffffffffffff16905081603360006101000a81548173ffffffffffffffffffffffffffffffffffffffff021916908373ffffffffffffffffffffffffffffffffffffffff1602179055508173ffffffffffffffffffffffffffffffffffffffff168173ffffffffffffffffffffffffffffffffffffffff167f8be0079c531659141344cd1fd0a4f28419497f9722a3daafe3b4186f6b6457e060405160405180910390a35050565b6000612b6c30612f3b565b15905090565b600060029054906101000a900460ff16612bc1576040517f08c379a0000000000000000000000000000000000000000000000000000000008152600401612bb8906144bb565b60405180910390fd5b612bc9612f5e565b565b600060029054906101000a900460ff16612c1a576040517f08c379a0000000000000000000000000000000000000000000000000000000008152600401612c11906144bb565b60405180910390fd5b612c22612fbf565b565b60606000606136033590506000602060408360ff16612c43919061497d565b612c4d919061474d565b90506060604051905081815281604283013603602083013760208101604052600081805190602001209050600081604051602001612c8b9190614063565b604051602081830303815290604052805190602001209050606060405190506041815260418036036020830137602081016040526000612cd4828461301890919063ffffffff16565b9050612cdf8161089d565b612d1e576040517f08c379a0000000000000000000000000000000000000000000000000000000008152600401612d15906142fb565b60405180910390fd5b600060623603359050612d30816112dc565b612d6f576040517f08c379a0000000000000000000000000000000000000000000000000000000008152600401612d669061425b565b60405180910390fd5b612d7d8a8960ff168961303f565b98505050505050505050919050565b3373ffffffffffffffffffffffffffffffffffffffff167fcd909ec339185c4598a4096e174308fbdf136d117f230960f873a2f2e81f63af3442604051612dd49291906145bf565b60405180910390a2565b6000612de86124aa565b73ffffffffffffffffffffffffffffffffffffffff16632acada4d6040518163ffffffff1660e01b815260040160006040518083038186803b158015612e2d57600080fd5b505afa158015612e41573d6000803e3d6000fd5b505050506040513d6000823e3d601f19601f82011682018060405250810190612e6a919061397b565b905060005b8151811015612eec57824710612e8457612eec565b612ed9828281518110612ec0577f4e487b7100000000000000000000000000000000000000000000000000000000600052603260045260246000fd5b60200260200101514785612ed49190614a13565b6130e5565b8080612ee490614b60565b915050612e6f565b505050565b612f03612efe4783612a82565b610e57565b50565b612f38612f138247612a82565b3373ffffffffffffffffffffffffffffffffffffffff1661278490919063ffffffff16565b50565b6000808273ffffffffffffffffffffffffffffffffffffffff163b119050919050565b600060029054906101000a900460ff16612fad576040517f08c379a0000000000000000000000000000000000000000000000000000000008152600401612fa4906144bb565b60405180910390fd5b612fbd612fb86124c6565b612a9b565b565b600060029054906101000a900460ff1661300e576040517f08c379a0000000000000000000000000000000000000000000000000000000008152600401613005906144bb565b60405180910390fd5b6001606581905550565b6000806000613027858561324d565b91509150613034816132d0565b819250505092915050565b6060806000806000806042870136035995508951865260208a51026020870101604052600094505b888510156130d557604085028101359150600093505b89518410156130ca57816020850260208c01015114156130b25760206040860282010135602085026020880101526001830192505b89518314156130bf578894505b60018401935061307d565b600185019450613067565b5084955050505050509392505050565b60006130f0836124ce565b905060008173ffffffffffffffffffffffffffffffffffffffff166370a08231306040518263ffffffff1660e01b815260040161312d9190614089565b60206040518083038186803b15801561314557600080fd5b505afa158015613159573d6000803e3d6000fd5b505050506040513d601f19601f8201168201806040525081019061317d9190613a99565b905060008111156132475760006131926124aa565b73ffffffffffffffffffffffffffffffffffffffff16639ac34dd385856040518363ffffffff1660e01b81526004016131cc929190614596565b602060405180830381600087803b1580156131e657600080fd5b505af11580156131fa573d6000803e3d6000fd5b505050506040513d601f19601f8201168201806040525081019061321e9190613a99565b90508082101561323957613234858360006126a8565b613245565b6132448582866126a8565b5b505b50505050565b60008060418351141561328f5760008060006020860151925060408601519150606086015160001a905061328387828585613621565b945094505050506132c9565b6040835114156132c05760008060208501519150604085015190506132b586838361372e565b9350935050506132c9565b60006002915091505b9250929050565b6000600481111561330a577f4e487b7100000000000000000000000000000000000000000000000000000000600052602160045260246000fd5b816004811115613343577f4e487b7100000000000000000000000000000000000000000000000000000000600052602160045260246000fd5b141561334e5761361e565b60016004811115613388577f4e487b7100000000000000000000000000000000000000000000000000000000600052602160045260246000fd5b8160048111156133c1577f4e487b7100000000000000000000000000000000000000000000000000000000600052602160045260246000fd5b1415613402576040517f08c379a00000000000000000000000000000000000000000000000000000000081526004016133f99061421b565b60405180910390fd5b6002600481111561343c577f4e487b7100000000000000000000000000000000000000000000000000000000600052602160045260246000fd5b816004811115613475577f4e487b7100000000000000000000000000000000000000000000000000000000600052602160045260246000fd5b14156134b6576040517f08c379a00000000000000000000000000000000000000000000000000000000081526004016134ad9061423b565b60405180910390fd5b600360048111156134f0577f4e487b7100000000000000000000000000000000000000000000000000000000600052602160045260246000fd5b816004811115613529577f4e487b7100000000000000000000000000000000000000000000000000000000600052602160045260246000fd5b141561356a576040517f08c379a00000000000000000000000000000000000000000000000000000000081526004016135619061439b565b60405180910390fd5b6004808111156135a3577f4e487b7100000000000000000000000000000000000000000000000000000000600052602160045260246000fd5b8160048111156135dc577f4e487b7100000000000000000000000000000000000000000000000000000000600052602160045260246000fd5b141561361d576040517f08c379a00000000000000000000000000000000000000000000000000000000081526004016136149061441b565b60405180910390fd5b5b50565b6000807f7fffffffffffffffffffffffffffffff5d576e7357a4501ddfe92f46681b20a08360001c111561365c576000600391509150613725565b601b8560ff16141580156136745750601c8560ff1614155b15613686576000600491509150613725565b6000600187878787604051600081526020016040526040516136ab94939291906141a0565b6020604051602081039080840390855afa1580156136cd573d6000803e3d6000fd5b505050602060405103519050600073ffffffffffffffffffffffffffffffffffffffff168173ffffffffffffffffffffffffffffffffffffffff16141561371c57600060019250925050613725565b80600092509250505b94509492505050565b60008060007f7fffffffffffffffffffffffffffffffffffffffffffffffffffffffffffffff60001b841690506000601b60ff8660001c901c6137719190614785565b905061377f87828885613621565b935093505050935093915050565b6040518060800160405280600490602082028036833780820191505090505090565b60006137c26137bd84614689565b614664565b905080838252602082019050828560208602820111156137e157600080fd5b60005b8581101561381157816137f78882613899565b8452602084019350602083019250506001810190506137e4565b5050509392505050565b60008135905061382a81615444565b92915050565b60008151905061383f81615444565b92915050565b600082601f83011261385657600080fd5b81516138668482602086016137af565b91505092915050565b60008151905061387e8161545b565b92915050565b60008135905061389381615472565b92915050565b6000815190506138a881615472565b92915050565b6000813590506138bd81615489565b92915050565b6000815190506138d281615489565b92915050565b6000815190506138e7816154a0565b92915050565b6000602082840312156138ff57600080fd5b600061390d8482850161381b565b91505092915050565b60006020828403121561392857600080fd5b600061393684828501613830565b91505092915050565b6000806040838503121561395257600080fd5b60006139608582860161381b565b925050602061397185828601613884565b9150509250929050565b60006020828403121561398d57600080fd5b600082015167ffffffffffffffff8111156139a757600080fd5b6139b384828501613845565b91505092915050565b6000602082840312156139ce57600080fd5b60006139dc8482850161386f565b91505092915050565b600080604083850312156139f857600080fd5b6000613a0685828601613884565b9250506020613a17858286016138ae565b9150509250929050565b600080600060608486031215613a3657600080fd5b6000613a4486828701613884565b9350506020613a55868287016138ae565b9250506040613a66868287016138ae565b9150509250925092565b600060208284031215613a8257600080fd5b6000613a90848285016138ae565b91505092915050565b600060208284031215613aab57600080fd5b6000613ab9848285016138c3565b91505092915050565b600060208284031215613ad457600080fd5b6000613ae2848285016138d8565b91505092915050565b6000613af7838361401f565b60208301905092915050565b613b0c81614a47565b82525050565b613b1b816146cf565b613b25818461470a565b9250613b30826146b5565b8060005b83811015613b61578151613b488782613aeb565b9650613b53836146f0565b925050600181019050613b34565b505050505050565b6000613b74826146da565b613b7e8185614715565b9350613b89836146bf565b8060005b83811015613bba578151613ba18882613aeb565b9750613bac836146fd565b925050600181019050613b8d565b5085935050505092915050565b613bd081614a59565b82525050565b613bdf81614a65565b82525050565b613bf6613bf182614a65565b614ba9565b82525050565b6000613c07826146e5565b613c118185614726565b9350613c21818560208601614afc565b80840191505092915050565b613c3681614ab4565b82525050565b613c4581614ad8565b82525050565b6000613c58601883614731565b9150613c6382614c5e565b602082019050919050565b6000613c7b601f83614731565b9150613c8682614c87565b602082019050919050565b6000613c9e601c83614742565b9150613ca982614cb0565b601c82019050919050565b6000613cc1601983614731565b9150613ccc82614cd9565b602082019050919050565b6000613ce4604583614731565b9150613cef82614d02565b606082019050919050565b6000613d07602983614731565b9150613d1282614d77565b604082019050919050565b6000613d2a602b83614731565b9150613d3582614dc6565b604082019050919050565b6000613d4d602683614731565b9150613d5882614e15565b604082019050919050565b6000613d70601583614731565b9150613d7b82614e64565b602082019050919050565b6000613d93604c83614731565b9150613d9e82614e8d565b606082019050919050565b6000613db6602783614731565b9150613dc182614f02565b604082019050919050565b6000613dd9603483614731565b9150613de482614f51565b604082019050919050565b6000613dfc602083614731565b9150613e0782614fa0565b602082019050919050565b6000613e1f602283614731565b9150613e2a82614fc9565b604082019050919050565b6000613e42602583614731565b9150613e4d82615018565b604082019050919050565b6000613e65602883614731565b9150613e7082615067565b604082019050919050565b6000613e88602e83614731565b9150613e93826150b6565b604082019050919050565b6000613eab602283614731565b9150613eb682615105565b604082019050919050565b6000613ece609283614731565b9150613ed982615154565b60a082019050919050565b6000613ef1602083614731565b9150613efc82615215565b602082019050919050565b6000613f14603383614731565b9150613f1f8261523e565b604082019050919050565b6000613f37601183614731565b9150613f428261528d565b602082019050919050565b6000613f5a602b83614731565b9150613f65826152b6565b604082019050919050565b6000613f7d602a83614731565b9150613f8882615305565b604082019050919050565b6000613fa0602d83614731565b9150613fab82615354565b604082019050919050565b6000613fc3603483614731565b9150613fce826153a3565b604082019050919050565b6000613fe6601183614731565b9150613ff1826153f2565b602082019050919050565b6000614009601f83614731565b91506140148261541b565b602082019050919050565b61402881614a9d565b82525050565b61403781614a9d565b82525050565b61404681614aa7565b82525050565b60006140588284613bfc565b915081905092915050565b600061406e82613c91565b915061407a8284613be5565b60208201915081905092915050565b600060208201905061409e6000830184613b03565b92915050565b60006040820190506140b96000830185613b03565b6140c6602083018461402e565b9392505050565b60006080820190506140e26000830184613b12565b92915050565b600060208201905081810360008301526141028184613b69565b905092915050565b600060208201905061411f6000830184613bc7565b92915050565b600060208201905061413a6000830184613bd6565b92915050565b60006040820190506141556000830185613bd6565b614162602083018461402e565b9392505050565b600060608201905061417e6000830186613bd6565b61418b602083018561402e565b614198604083018461402e565b949350505050565b60006080820190506141b56000830187613bd6565b6141c2602083018661403d565b6141cf6040830185613bd6565b6141dc6060830184613bd6565b95945050505050565b60006020820190506141fa6000830184613c2d565b92915050565b60006020820190506142156000830184613c3c565b92915050565b6000602082019050818103600083015261423481613c4b565b9050919050565b6000602082019050818103600083015261425481613c6e565b9050919050565b6000602082019050818103600083015261427481613cb4565b9050919050565b6000602082019050818103600083015261429481613cd7565b9050919050565b600060208201905081810360008301526142b481613cfa565b9050919050565b600060208201905081810360008301526142d481613d1d565b9050919050565b600060208201905081810360008301526142f481613d40565b9050919050565b6000602082019050818103600083015261431481613d63565b9050919050565b6000602082019050818103600083015261433481613d86565b9050919050565b6000602082019050818103600083015261435481613da9565b9050919050565b6000602082019050818103600083015261437481613dcc565b9050919050565b6000602082019050818103600083015261439481613def565b9050919050565b600060208201905081810360008301526143b481613e12565b9050919050565b600060208201905081810360008301526143d481613e35565b9050919050565b600060208201905081810360008301526143f481613e58565b9050919050565b6000602082019050818103600083015261441481613e7b565b9050919050565b6000602082019050818103600083015261443481613e9e565b9050919050565b6000602082019050818103600083015261445481613ec1565b9050919050565b6000602082019050818103600083015261447481613ee4565b9050919050565b6000602082019050818103600083015261449481613f07565b9050919050565b600060208201905081810360008301526144b481613f2a565b9050919050565b600060208201905081810360008301526144d481613f4d565b9050919050565b600060208201905081810360008301526144f481613f70565b9050919050565b6000602082019050818103600083015261451481613f93565b9050919050565b6000602082019050818103600083015261453481613fb6565b9050919050565b6000602082019050818103600083015261455481613fd9565b9050919050565b6000602082019050818103600083015261457481613ffc565b9050919050565b6000602082019050614590600083018461402e565b92915050565b60006040820190506145ab600083018561402e565b6145b86020830184613b03565b9392505050565b60006040820190506145d4600083018561402e565b6145e1602083018461402e565b9392505050565b60006060820190506145fd600083018661402e565b61460a602083018561402e565b614617604083018461402e565b949350505050565b6000608082019050614634600083018761402e565b614641602083018661402e565b61464e604083018561402e565b61465b606083018461402e565b95945050505050565b600061466e61467f565b905061467a8282614b2f565b919050565b6000604051905090565b600067ffffffffffffffff8211156146a4576146a3614c11565b5b602082029050602081019050919050565b6000819050919050565b6000819050602082019050919050565b600060049050919050565b600081519050919050565b600081519050919050565b6000602082019050919050565b6000602082019050919050565b600081905092915050565b600082825260208201905092915050565b600081905092915050565b600082825260208201905092915050565b600081905092915050565b600061475882614a6f565b915061476383614a6f565b92508261ffff0382111561477a57614779614bb3565b5b828201905092915050565b600061479082614a9d565b915061479b83614a9d565b9250827fffffffffffffffffffffffffffffffffffffffffffffffffffffffffffffffff038211156147d0576147cf614bb3565b5b828201905092915050565b60006147e682614a9d565b91506147f183614a9d565b92508261480157614800614be2565b5b828204905092915050565b6000808291508390505b60018511156148565780860481111561483257614831614bb3565b5b60018516156148415780820291505b808102905061484f85614c51565b9450614816565b94509492505050565b600061486a82614a9d565b915061487583614aa7565b92506148a27fffffffffffffffffffffffffffffffffffffffffffffffffffffffffffffffff84846148aa565b905092915050565b6000826148ba5760019050614976565b816148c85760009050614976565b81600181146148de57600281146148e857614917565b6001915050614976565b60ff8411156148fa576148f9614bb3565b5b8360020a91508482111561491157614910614bb3565b5b50614976565b5060208310610133831016604e8410600b841016171561494c5782820a90508381111561494757614946614bb3565b5b614976565b614959848484600161480c565b925090508184048111156149705761496f614bb3565b5b81810290505b9392505050565b600061498882614a6f565b915061499383614a6f565b92508161ffff04831182151516156149ae576149ad614bb3565b5b828202905092915050565b60006149c482614a9d565b91506149cf83614a9d565b9250817fffffffffffffffffffffffffffffffffffffffffffffffffffffffffffffffff0483118215151615614a0857614a07614bb3565b5b828202905092915050565b6000614a1e82614a9d565b9150614a2983614a9d565b925082821015614a3c57614a3b614bb3565b5b828203905092915050565b6000614a5282614a7d565b9050919050565b60008115159050919050565b6000819050919050565b600061ffff82169050919050565b600073ffffffffffffffffffffffffffffffffffffffff82169050919050565b6000819050919050565b600060ff82169050919050565b6000614abf82614ac6565b9050919050565b6000614ad182614a7d565b9050919050565b6000614ae382614aea565b9050919050565b6000614af582614a7d565b9050919050565b60005b83811015614b1a578082015181840152602081019050614aff565b83811115614b29576000848401525b50505050565b614b3882614c40565b810181811067ffffffffffffffff82111715614b5757614b56614c11565b5b80604052505050565b6000614b6b82614a9d565b91507fffffffffffffffffffffffffffffffffffffffffffffffffffffffffffffffff821415614b9e57614b9d614bb3565b5b600182019050919050565b6000819050919050565b7f4e487b7100000000000000000000000000000000000000000000000000000000600052601160045260246000fd5b7f4e487b7100000000000000000000000000000000000000000000000000000000600052601260045260246000fd5b7f4e487b7100000000000000000000000000000000000000000000000000000000600052604160045260246000fd5b6000601f19601f8301169050919050565b60008160011c9050919050565b7f45434453413a20696e76616c6964207369676e61747572650000000000000000600082015250565b7f45434453413a20696e76616c6964207369676e6174757265206c656e67746800600082015250565b7f19457468657265756d205369676e6564204d6573736167653a0a333200000000600082015250565b7f446174612074696d657374616d7020697320696e76616c696400000000000000600082015250565b7f53656c6c696e67206f757420616c6c2061737365747320776974686f7574207260008201527f65706179696e67207468652077686f6c652064656274206973206e6f7420616c60208201527f6c6f776564000000000000000000000000000000000000000000000000000000604082015250565b7f416464696e67206d6f7265207468616e20312e32352041564158206973206e6f60008201527f7420616c6c6f7765640000000000000000000000000000000000000000000000602082015250565b7f5468657265206973206e6f7420656e6f7567682066756e647320746f2072657060008201527f617920746865206c6f616e000000000000000000000000000000000000000000602082015250565b7f4f776e61626c653a206e6577206f776e657220697320746865207a65726f206160008201527f6464726573730000000000000000000000000000000000000000000000000000602082015250565b7f5369676e6572206e6f7420617574686f72697a65640000000000000000000000600082015250565b7f54686973206f7065726174696f6e20776f756c64206e6f7420726573756c742060008201527f696e206272696e67696e6720746865206c6f616e206261636b20746f2061207360208201527f6f6c76656e742073746174650000000000000000000000000000000000000000604082015250565b7f417661782070726963652072657475726e65642066726f6d206f7261636c652060008201527f6973207a65726f00000000000000000000000000000000000000000000000000602082015250565b7f5472616e7366657248656c7065723a3a736166655472616e736665724554483a60008201527f20455448207472616e73666572206661696c6564000000000000000000000000602082015250565b7f43616e6e6f742073656c6c6f7574206120736f6c76656e74206163636f756e74600082015250565b7f45434453413a20696e76616c6964207369676e6174757265202773272076616c60008201527f7565000000000000000000000000000000000000000000000000000000000000602082015250565b7f5468657265206973206e6f7420656e6f7567682066756e647320746f2077697460008201527f6864726177000000000000000000000000000000000000000000000000000000602082015250565b7f41737365742070726963652072657475726e65642066726f6d206f7261636c6560008201527f206973207a65726f000000000000000000000000000000000000000000000000602082015250565b7f496e697469616c697a61626c653a20636f6e747261637420697320616c72656160008201527f647920696e697469616c697a6564000000000000000000000000000000000000602082015250565b7f45434453413a20696e76616c6964207369676e6174757265202776272076616c60008201527f7565000000000000000000000000000000000000000000000000000000000000602082015250565b7f54686973206f7065726174696f6e20776f756c6420726573756c7420696e206160008201527f206c6f616e2077697468204c5456206c6f776572207468616e204d696e696d6160208201527f6c2053656c6c6f7574204c545620776869636820776f756c6420707574206c6f60408201527f616e2773206f776e657220696e2061207269736b206f6620616e20756e6e656360608201527f6573736172696c792068696768206c6f73730000000000000000000000000000608082015250565b7f4f776e61626c653a2063616c6c6572206973206e6f7420746865206f776e6572600082015250565b7f54686520616374696f6e206d617920636175736520616e206163636f756e742060008201527f746f206265636f6d6520696e736f6c76656e7400000000000000000000000000602082015250565b7f526564656d7074696f6e206661696c6564000000000000000000000000000000600082015250565b7f496e697469616c697a61626c653a20636f6e7472616374206973206e6f74206960008201527f6e697469616c697a696e67000000000000000000000000000000000000000000602082015250565b7f446174612077697468206675747572652074696d657374616d7073206973206e60008201527f6f7420616c6c6f77656400000000000000000000000000000000000000000000602082015250565b7f5472616e7366657248656c7065723a3a736166655472616e736665723a20747260008201527f616e73666572206661696c656400000000000000000000000000000000000000602082015250565b7f4e6f7420656e6f7567682066756e64732061726520617661696c61626c65207460008201527f6f20696e7665737420696e20616e206173736574000000000000000000000000602082015250565b7f496e766573746d656e74206661696c6564000000000000000000000000000000600082015250565b7f5265656e7472616e637947756172643a207265656e7472616e742063616c6c00600082015250565b61544d81614a47565b811461545857600080fd5b50565b61546481614a59565b811461546f57600080fd5b50565b61547b81614a65565b811461548657600080fd5b50565b61549281614a9d565b811461549d57600080fd5b50565b6154a981614aa7565b81146154b457600080fd5b5056fea2646970667358221220478fbdfce3bf4f032e938329cbb0c321327af4d6389263392c85d368657deb1564736f6c63430008040033",
  "linkReferences": {},
  "deployedLinkReferences": {}
}