{
  "_format": "hh-sol-artifact-1",
  "contractName": "Pool",
  "sourceName": "contracts/Pool.sol",
  "abi": [
    {
      "inputs": [],
      "name": "BorrowersRegistryNotConfigured",
      "type": "error"
    },
    {
      "inputs": [],
      "name": "BurnAmountExceedsAvailableForUser",
      "type": "error"
    },
    {
      "inputs": [],
      "name": "BurnAmountExceedsBalance",
      "type": "error"
    },
    {
      "inputs": [
        {
          "internalType": "uint256",
          "name": "requested",
          "type": "uint256"
        },
        {
          "internalType": "uint256",
          "name": "allowance",
          "type": "uint256"
        }
      ],
      "name": "InsufficientAllowance",
      "type": "error"
    },
    {
      "inputs": [],
      "name": "InsufficientPoolFunds",
      "type": "error"
    },
    {
      "inputs": [],
      "name": "InsufficientSurplus",
      "type": "error"
    },
    {
      "inputs": [],
      "name": "MaxPoolUtilisationBreached",
      "type": "error"
    },
    {
      "inputs": [],
      "name": "MintToAddressZero",
      "type": "error"
    },
    {
      "inputs": [
        {
          "internalType": "address",
          "name": "target",
          "type": "address"
        }
      ],
      "name": "NotAContract",
      "type": "error"
    },
    {
      "inputs": [],
      "name": "NotAuthorizedToBorrow",
      "type": "error"
    },
    {
      "inputs": [],
      "name": "PoolFrozen",
      "type": "error"
    },
    {
      "inputs": [],
      "name": "RepayingMoreThanWasBorrowed",
      "type": "error"
    },
    {
      "inputs": [],
      "name": "SpenderZeroAddress",
      "type": "error"
    },
    {
      "inputs": [],
      "name": "TotalSupplyCapBreached",
      "type": "error"
    },
    {
      "inputs": [
        {
          "internalType": "uint256",
          "name": "amount",
          "type": "uint256"
        },
        {
          "internalType": "uint256",
          "name": "balance",
          "type": "uint256"
        }
      ],
      "name": "TransferAmountExceedsBalance",
      "type": "error"
    },
    {
      "inputs": [],
      "name": "TransferToPoolAddress",
      "type": "error"
    },
    {
      "inputs": [],
      "name": "TransferToZeroAddress",
      "type": "error"
    },
    {
      "inputs": [],
      "name": "ZeroDepositAmount",
      "type": "error"
    },
    {
      "anonymous": false,
      "inputs": [
        {
          "indexed": true,
          "internalType": "address",
          "name": "owner",
          "type": "address"
        },
        {
          "indexed": true,
          "internalType": "address",
          "name": "spender",
          "type": "address"
        },
        {
          "indexed": false,
          "internalType": "uint256",
          "name": "value",
          "type": "uint256"
        }
      ],
      "name": "Approval",
      "type": "event"
    },
    {
      "anonymous": false,
      "inputs": [
        {
          "indexed": true,
          "internalType": "address",
          "name": "registry",
          "type": "address"
        },
        {
          "indexed": false,
          "internalType": "uint256",
          "name": "timestamp",
          "type": "uint256"
        }
      ],
      "name": "BorrowersRegistryChanged",
      "type": "event"
    },
    {
      "anonymous": false,
      "inputs": [
        {
          "indexed": true,
          "internalType": "address",
          "name": "user",
          "type": "address"
        },
        {
          "indexed": false,
          "internalType": "uint256",
          "name": "value",
          "type": "uint256"
        },
        {
          "indexed": false,
          "internalType": "uint256",
          "name": "timestamp",
          "type": "uint256"
        }
      ],
      "name": "Borrowing",
      "type": "event"
    },
    {
      "anonymous": false,
      "inputs": [
        {
          "indexed": true,
          "internalType": "address",
          "name": "user",
          "type": "address"
        },
        {
          "indexed": false,
          "internalType": "uint256",
          "name": "value",
          "type": "uint256"
        },
        {
          "indexed": false,
          "internalType": "uint256",
          "name": "timestamp",
          "type": "uint256"
        }
      ],
      "name": "Deposit",
      "type": "event"
    },
    {
      "anonymous": false,
      "inputs": [
        {
          "indexed": true,
          "internalType": "address",
          "name": "user",
          "type": "address"
        },
        {
          "indexed": true,
          "internalType": "address",
          "name": "_of",
          "type": "address"
        },
        {
          "indexed": false,
          "internalType": "uint256",
          "name": "value",
          "type": "uint256"
        },
        {
          "indexed": false,
          "internalType": "uint256",
          "name": "timestamp",
          "type": "uint256"
        }
      ],
      "name": "DepositOnBehalfOf",
      "type": "event"
    },
    {
      "anonymous": false,
      "inputs": [
        {
          "indexed": true,
          "internalType": "address",
          "name": "user",
          "type": "address"
        },
        {
          "indexed": false,
          "internalType": "uint256",
          "name": "value",
          "type": "uint256"
        },
        {
          "indexed": false,
          "internalType": "uint256",
          "name": "timestamp",
          "type": "uint256"
        }
      ],
      "name": "InterestCollected",
      "type": "event"
    },
    {
      "anonymous": false,
      "inputs": [
        {
          "indexed": true,
          "internalType": "address",
          "name": "previousOwner",
          "type": "address"
        },
        {
          "indexed": true,
          "internalType": "address",
          "name": "newOwner",
          "type": "address"
        }
      ],
      "name": "OwnershipTransferred",
      "type": "event"
    },
    {
      "anonymous": false,
      "inputs": [
        {
          "indexed": true,
          "internalType": "address",
          "name": "poolRewarder",
          "type": "address"
        },
        {
          "indexed": false,
          "internalType": "uint256",
          "name": "timestamp",
          "type": "uint256"
        }
      ],
      "name": "PoolRewarderChanged",
      "type": "event"
    },
    {
      "anonymous": false,
      "inputs": [
        {
          "indexed": true,
          "internalType": "address",
          "name": "calculator",
          "type": "address"
        },
        {
          "indexed": false,
          "internalType": "uint256",
          "name": "timestamp",
          "type": "uint256"
        }
      ],
      "name": "RatesCalculatorChanged",
      "type": "event"
    },
    {
      "anonymous": false,
      "inputs": [
        {
          "indexed": true,
          "internalType": "address",
          "name": "user",
          "type": "address"
        },
        {
          "indexed": false,
          "internalType": "uint256",
          "name": "value",
          "type": "uint256"
        },
        {
          "indexed": false,
          "internalType": "uint256",
          "name": "timestamp",
          "type": "uint256"
        }
      ],
      "name": "Repayment",
      "type": "event"
    },
    {
      "anonymous": false,
      "inputs": [
        {
          "indexed": true,
          "internalType": "address",
          "name": "from",
          "type": "address"
        },
        {
          "indexed": true,
          "internalType": "address",
          "name": "to",
          "type": "address"
        },
        {
          "indexed": false,
          "internalType": "uint256",
          "name": "value",
          "type": "uint256"
        }
      ],
      "name": "Transfer",
      "type": "event"
    },
    {
      "anonymous": false,
      "inputs": [
        {
          "indexed": true,
          "internalType": "address",
          "name": "distributor",
          "type": "address"
        },
        {
          "indexed": false,
          "internalType": "uint256",
          "name": "timestamp",
          "type": "uint256"
        }
      ],
      "name": "VestingDistributorChanged",
      "type": "event"
    },
    {
      "anonymous": false,
      "inputs": [
        {
          "indexed": true,
          "internalType": "address",
          "name": "user",
          "type": "address"
        },
        {
          "indexed": false,
          "internalType": "uint256",
          "name": "value",
          "type": "uint256"
        },
        {
          "indexed": false,
          "internalType": "uint256",
          "name": "timestamp",
          "type": "uint256"
        }
      ],
      "name": "Withdrawal",
      "type": "event"
    },
    {
      "inputs": [
        {
          "internalType": "address",
          "name": "owner",
          "type": "address"
        },
        {
          "internalType": "address",
          "name": "spender",
          "type": "address"
        }
      ],
      "name": "allowance",
      "outputs": [
        {
          "internalType": "uint256",
          "name": "",
          "type": "uint256"
        }
      ],
      "stateMutability": "view",
      "type": "function"
    },
    {
      "inputs": [
        {
          "internalType": "address",
          "name": "spender",
          "type": "address"
        },
        {
          "internalType": "uint256",
          "name": "amount",
          "type": "uint256"
        }
      ],
      "name": "approve",
      "outputs": [
        {
          "internalType": "bool",
          "name": "",
          "type": "bool"
        }
      ],
      "stateMutability": "nonpayable",
      "type": "function"
    },
    {
      "inputs": [
        {
          "internalType": "address",
          "name": "user",
          "type": "address"
        }
      ],
      "name": "balanceOf",
      "outputs": [
        {
          "internalType": "uint256",
          "name": "",
          "type": "uint256"
        }
      ],
      "stateMutability": "view",
      "type": "function"
    },
    {
      "inputs": [
        {
          "internalType": "uint256",
          "name": "_amount",
          "type": "uint256"
        }
      ],
      "name": "borrow",
      "outputs": [],
      "stateMutability": "nonpayable",
      "type": "function"
    },
    {
      "inputs": [],
      "name": "borrowIndex",
      "outputs": [
        {
          "internalType": "contract IIndex",
          "name": "",
          "type": "address"
        }
      ],
      "stateMutability": "view",
      "type": "function"
    },
    {
      "inputs": [
        {
          "internalType": "address",
          "name": "",
          "type": "address"
        }
      ],
      "name": "borrowed",
      "outputs": [
        {
          "internalType": "uint256",
          "name": "",
          "type": "uint256"
        }
      ],
      "stateMutability": "view",
      "type": "function"
    },
    {
      "inputs": [],
      "name": "borrowersRegistry",
      "outputs": [
        {
          "internalType": "contract IBorrowersRegistry",
          "name": "",
          "type": "address"
        }
      ],
      "stateMutability": "view",
      "type": "function"
    },
    {
      "inputs": [],
      "name": "checkRewards",
      "outputs": [
        {
          "internalType": "uint256",
          "name": "",
          "type": "uint256"
        }
      ],
      "stateMutability": "view",
      "type": "function"
    },
    {
      "inputs": [],
      "name": "decimals",
      "outputs": [
        {
          "internalType": "uint8",
          "name": "",
          "type": "uint8"
        }
      ],
      "stateMutability": "view",
      "type": "function"
    },
    {
      "inputs": [
        {
          "internalType": "address",
          "name": "spender",
          "type": "address"
        },
        {
          "internalType": "uint256",
          "name": "subtractedValue",
          "type": "uint256"
        }
      ],
      "name": "decreaseAllowance",
      "outputs": [
        {
          "internalType": "bool",
          "name": "",
          "type": "bool"
        }
      ],
      "stateMutability": "nonpayable",
      "type": "function"
    },
    {
      "inputs": [
        {
          "internalType": "uint256",
          "name": "_amount",
          "type": "uint256"
        }
      ],
      "name": "deposit",
      "outputs": [],
      "stateMutability": "nonpayable",
      "type": "function"
    },
    {
      "inputs": [],
      "name": "depositIndex",
      "outputs": [
        {
          "internalType": "contract IIndex",
          "name": "",
          "type": "address"
        }
      ],
      "stateMutability": "view",
      "type": "function"
    },
    {
      "inputs": [
        {
          "internalType": "uint256",
          "name": "_amount",
          "type": "uint256"
        },
        {
          "internalType": "address",
          "name": "_of",
          "type": "address"
        }
      ],
      "name": "depositOnBehalf",
      "outputs": [],
      "stateMutability": "nonpayable",
      "type": "function"
    },
    {
      "inputs": [
        {
          "internalType": "address",
          "name": "_user",
          "type": "address"
        }
      ],
      "name": "getBorrowed",
      "outputs": [
        {
          "internalType": "uint256",
          "name": "",
          "type": "uint256"
        }
      ],
      "stateMutability": "view",
      "type": "function"
    },
    {
      "inputs": [],
      "name": "getBorrowingRate",
      "outputs": [
        {
          "internalType": "uint256",
          "name": "",
          "type": "uint256"
        }
      ],
      "stateMutability": "view",
      "type": "function"
    },
    {
      "inputs": [],
      "name": "getDepositRate",
      "outputs": [
        {
          "internalType": "uint256",
          "name": "",
          "type": "uint256"
        }
      ],
      "stateMutability": "view",
      "type": "function"
    },
    {
      "inputs": [],
      "name": "getFullPoolStatus",
      "outputs": [
        {
          "internalType": "uint256[5]",
          "name": "",
          "type": "uint256[5]"
        }
      ],
      "stateMutability": "view",
      "type": "function"
    },
    {
      "inputs": [],
      "name": "getMaxPoolUtilisationForBorrowing",
      "outputs": [
        {
          "internalType": "uint256",
          "name": "",
          "type": "uint256"
        }
      ],
      "stateMutability": "view",
      "type": "function"
    },
    {
      "inputs": [],
      "name": "getRewards",
      "outputs": [],
      "stateMutability": "nonpayable",
      "type": "function"
    },
    {
      "inputs": [
        {
          "internalType": "address",
          "name": "spender",
          "type": "address"
        },
        {
          "internalType": "uint256",
          "name": "addedValue",
          "type": "uint256"
        }
      ],
      "name": "increaseAllowance",
      "outputs": [
        {
          "internalType": "bool",
          "name": "",
          "type": "bool"
        }
      ],
      "stateMutability": "nonpayable",
      "type": "function"
    },
    {
      "inputs": [
        {
          "internalType": "contract IRatesCalculator",
          "name": "ratesCalculator_",
          "type": "address"
        },
        {
          "internalType": "contract IBorrowersRegistry",
          "name": "borrowersRegistry_",
          "type": "address"
        },
        {
          "internalType": "contract IIndex",
          "name": "depositIndex_",
          "type": "address"
        },
        {
          "internalType": "contract IIndex",
          "name": "borrowIndex_",
          "type": "address"
        },
        {
          "internalType": "address payable",
          "name": "tokenAddress_",
          "type": "address"
        },
        {
          "internalType": "contract IPoolRewarder",
          "name": "poolRewarder_",
          "type": "address"
        },
        {
          "internalType": "uint256",
          "name": "_totalSupplyCap",
          "type": "uint256"
        }
      ],
      "name": "initialize",
      "outputs": [],
      "stateMutability": "nonpayable",
      "type": "function"
    },
    {
      "inputs": [],
      "name": "name",
      "outputs": [
        {
          "internalType": "string",
          "name": "_name",
          "type": "string"
        }
      ],
      "stateMutability": "pure",
      "type": "function"
    },
    {
      "inputs": [],
      "name": "owner",
      "outputs": [
        {
          "internalType": "address",
          "name": "",
          "type": "address"
        }
      ],
      "stateMutability": "view",
      "type": "function"
    },
    {
      "inputs": [],
      "name": "poolRewarder",
      "outputs": [
        {
          "internalType": "contract IPoolRewarder",
          "name": "",
          "type": "address"
        }
      ],
      "stateMutability": "view",
      "type": "function"
    },
    {
      "inputs": [],
      "name": "ratesCalculator",
      "outputs": [
        {
          "internalType": "contract IRatesCalculator",
          "name": "",
          "type": "address"
        }
      ],
      "stateMutability": "view",
      "type": "function"
    },
    {
      "inputs": [
        {
          "internalType": "uint256",
          "name": "amount",
          "type": "uint256"
        },
        {
          "internalType": "address",
          "name": "account",
          "type": "address"
        }
      ],
      "name": "recoverSurplus",
      "outputs": [],
      "stateMutability": "nonpayable",
      "type": "function"
    },
    {
      "inputs": [],
      "name": "renounceOwnership",
      "outputs": [],
      "stateMutability": "nonpayable",
      "type": "function"
    },
    {
      "inputs": [
        {
          "internalType": "uint256",
          "name": "amount",
          "type": "uint256"
        }
      ],
      "name": "repay",
      "outputs": [],
      "stateMutability": "nonpayable",
      "type": "function"
    },
    {
      "inputs": [
        {
          "internalType": "contract IBorrowersRegistry",
          "name": "borrowersRegistry_",
          "type": "address"
        }
      ],
      "name": "setBorrowersRegistry",
      "outputs": [],
      "stateMutability": "nonpayable",
      "type": "function"
    },
    {
      "inputs": [
        {
          "internalType": "contract IPoolRewarder",
          "name": "_poolRewarder",
          "type": "address"
        }
      ],
      "name": "setPoolRewarder",
      "outputs": [],
      "stateMutability": "nonpayable",
      "type": "function"
    },
    {
      "inputs": [
        {
          "internalType": "contract IRatesCalculator",
          "name": "ratesCalculator_",
          "type": "address"
        }
      ],
      "name": "setRatesCalculator",
      "outputs": [],
      "stateMutability": "nonpayable",
      "type": "function"
    },
    {
      "inputs": [
        {
          "internalType": "uint256",
          "name": "_newTotalSupplyCap",
          "type": "uint256"
        }
      ],
      "name": "setTotalSupplyCap",
      "outputs": [],
      "stateMutability": "nonpayable",
      "type": "function"
    },
    {
      "inputs": [
        {
          "internalType": "address",
          "name": "_distributor",
          "type": "address"
        }
      ],
      "name": "setVestingDistributor",
      "outputs": [],
      "stateMutability": "nonpayable",
      "type": "function"
    },
    {
      "inputs": [],
      "name": "symbol",
      "outputs": [
        {
          "internalType": "string",
          "name": "_symbol",
          "type": "string"
        }
      ],
      "stateMutability": "pure",
      "type": "function"
    },
    {
      "inputs": [],
      "name": "tokenAddress",
      "outputs": [
        {
          "internalType": "address payable",
          "name": "",
          "type": "address"
        }
      ],
      "stateMutability": "view",
      "type": "function"
    },
    {
      "inputs": [],
      "name": "totalBorrowed",
      "outputs": [
        {
          "internalType": "uint256",
          "name": "",
          "type": "uint256"
        }
      ],
      "stateMutability": "view",
      "type": "function"
    },
    {
      "inputs": [],
      "name": "totalSupply",
      "outputs": [
        {
          "internalType": "uint256",
          "name": "",
          "type": "uint256"
        }
      ],
      "stateMutability": "view",
      "type": "function"
    },
    {
      "inputs": [],
      "name": "totalSupplyCap",
      "outputs": [
        {
          "internalType": "uint256",
          "name": "",
          "type": "uint256"
        }
      ],
      "stateMutability": "view",
      "type": "function"
    },
    {
      "inputs": [
        {
          "internalType": "address",
          "name": "recipient",
          "type": "address"
        },
        {
          "internalType": "uint256",
          "name": "amount",
          "type": "uint256"
        }
      ],
      "name": "transfer",
      "outputs": [
        {
          "internalType": "bool",
          "name": "",
          "type": "bool"
        }
      ],
      "stateMutability": "nonpayable",
      "type": "function"
    },
    {
      "inputs": [
        {
          "internalType": "address",
          "name": "sender",
          "type": "address"
        },
        {
          "internalType": "address",
          "name": "recipient",
          "type": "address"
        },
        {
          "internalType": "uint256",
          "name": "amount",
          "type": "uint256"
        }
      ],
      "name": "transferFrom",
      "outputs": [
        {
          "internalType": "bool",
          "name": "",
          "type": "bool"
        }
      ],
      "stateMutability": "nonpayable",
      "type": "function"
    },
    {
      "inputs": [
        {
          "internalType": "address",
          "name": "newOwner",
          "type": "address"
        }
      ],
      "name": "transferOwnership",
      "outputs": [],
      "stateMutability": "nonpayable",
      "type": "function"
    },
    {
      "inputs": [],
      "name": "vestingDistributor",
      "outputs": [
        {
          "internalType": "contract VestingDistributor",
          "name": "",
          "type": "address"
        }
      ],
      "stateMutability": "view",
      "type": "function"
    },
    {
      "inputs": [
        {
          "internalType": "uint256",
          "name": "_amount",
          "type": "uint256"
        }
      ],
      "name": "withdraw",
      "outputs": [],
      "stateMutability": "nonpayable",
      "type": "function"
    }
  ],
  "bytecode": "0x608060405234801561001057600080fd5b50612ef5806100206000396000f3fe608060405234801561001057600080fd5b50600436106101f95760003560e01c80630572b0cc146101fe57806306fdde03146102085780630790ef9a1461022b57806307bbebdd1461023e5780630941cb3d1461025e578063095ea7b31461028c5780631457db34146102af5780631460e390146102c257806318160ddd146102d557806323b872dd146102dd5780632aeaa291146102f05780632e1a7d4d146102f8578063313ce5671461030b57806331d05b111461032a578063371fd8e61461033d57806339509351146103505780634c19386c146103635780636011163e1461036b57806361215aa81461037e5780636ca6d5d01461038c5780636cf55ea21461039f57806370a08231146103b257806370d4cea0146103c5578063715018a6146102065780637b898939146103d85780638c1a3811146103eb5780638da5cb5b146103fe57806395d89b41146102085780639d76ea5814610406578063a457c2d714610419578063a9059cbb1461042c578063aa5af0fd1461043f578063b6b55f2514610452578063b75c42bd14610465578063b790634e1461047a578063bb102aea14610482578063c5ebeaec1461048b578063d06dca891461049e578063dd62ed3e146104b1578063ee61bd6e146104ea578063f2fde38b146104fd578063f36b242514610510578063fc68f66114610518575b600080fd5b61020661052b565b005b604080516020810182526000815290516102229190612a80565b60405180910390f35b610206610239366004612ac8565b61058f565b60a154610251906001600160a01b031681565b6040516102229190612af8565b61027e61026c366004612b0c565b609a6020526000908152604090205481565b604051908152602001610222565b61029f61029a366004612b29565b6106e1565b6040519015158152602001610222565b6102066102bd366004612b0c565b61075d565b6102066102d0366004612b55565b61082a565b61027e610a83565b61029f6102eb366004612be2565b610a93565b61027e610dac565b610206610306366004612c23565b610e1c565b60a154600160a01b900460ff1660405160ff9091168152602001610222565b610206610338366004612c23565b61102e565b61020661034b366004612c23565b611062565b61029f61035e366004612b29565b611158565b61027e611205565b61027e610379366004612b0c565b61120c565b670cd64299613c800061027e565b609d54610251906001600160a01b031681565b6102066103ad366004612ac8565b611293565b61027e6103c0366004612b0c565b611552565b6102066103d3366004612b0c565b611598565b609e54610251906001600160a01b031681565b6102066103f9366004612b0c565b61166d565b610251611728565b60a054610251906001600160a01b031681565b61029f610427366004612b29565b611737565b61029f61043a366004612b29565b61180b565b609f54610251906001600160a01b031681565b610206610460366004612c23565b611a73565b61046d611a80565b6040516102229190612c3c565b61027e611ad7565b61027e60975481565b610206610499366004612c23565b611b18565b609c54610251906001600160a01b031681565b61027e6104bf366004612c6d565b6001600160a01b03918216600090815260986020908152604080832093909416825291909152205490565b609b54610251906001600160a01b031681565b61020661050b366004612b0c565b611daf565b61027e611e4c565b610206610526366004612b0c565b611e68565b609d546040516311305c1f60e11b81526001600160a01b0390911690632260b83e9061055b903390600401612af8565b600060405180830381600087803b15801561057557600080fd5b505af1158015610589573d6000803e3d6000fd5b50505050565b33610598611728565b6001600160a01b0316146105c75760405162461bcd60e51b81526004016105be90612c9b565b60405180910390fd5b6002606554036105e95760405162461bcd60e51b81526004016105be90612cd0565b600260655560a0546040516370a0823160e01b81526000916001600160a01b0316906370a082319061061f903090600401612af8565b602060405180830381865afa15801561063c573d6000803e3d6000fd5b505050506040513d601f19601f820116820180604052508101906106609190612d07565b9050600061066c610a83565b610674611205565b61067e9084612d36565b6106889190612d49565b9050818411156106ab576040516316d5c93f60e21b815260040160405180910390fd5b838110156106cc576040516394290ab960e01b815260040160405180910390fd5b6106d68385611f0d565b505060016065555050565b60006001600160a01b03831661070a57604051633d6601c760e11b815260040160405180910390fd5b3360008181526098602090815260408083206001600160a01b0388168085529083529281902086905551858152919291600080516020612ea0833981519152910160405180910390a35060015b92915050565b33610766611728565b6001600160a01b03161461078c5760405162461bcd60e51b81526004016105be90612c9b565b61079581611f28565b1580156107aa57506001600160a01b03811615155b156107d557609d546040516322a2d07b60e21b81526105be916001600160a01b031690600401612af8565b609d80546001600160a01b0319166001600160a01b0383169081179091556040514281527f85796821ee1d670b0fdb986f256b5c1a29b9019038831c7f09df2061879cf9e5906020015b60405180910390a250565b600054610100900460ff166108455760005460ff161561084d565b61084d611f37565b6108b05760405162461bcd60e51b815260206004820152602e60248201527f496e697469616c697a61626c653a20636f6e747261637420697320616c72656160448201526d191e481a5b9a5d1a585b1a5e995960921b60648201526084016105be565b600054610100900460ff161580156108d2576000805461ffff19166101011790555b6108db88611f28565b80156108eb57506108eb87611f28565b80156108fb57506108fb86611f28565b801561090b575061090b85611f28565b801561092d575061091b83611f28565b8061092d57506001600160a01b038316155b6109705760405162461bcd60e51b815260206004820152601460248201527357726f6e6720696e697420617267756d656e747360601b60448201526064016105be565b609c80546001600160a01b03199081166001600160a01b038a811691909117909255609b805482168b8416179055609e80548216898416179055609f80548216888416179055609d8054821686841617905560a08054909116918616918217905560978390556040805163313ce56760e01b8152905163313ce567916004818101926020929091908290030181865afa158015610a11573d6000803e3d6000fd5b505050506040513d601f19601f82011682018060405250810190610a359190612d5c565b60a160146101000a81548160ff021916908360ff160217905550610a57611f48565b610a5f611f77565b610a67611fa6565b8015610a79576000805461ff00191690555b5050505050505050565b6000610a8e30611552565b905090565b6000600260655403610ab75760405162461bcd60e51b81526004016105be90612cd0565b60026065556001600160a01b0384166000908152609860209081526040808320338452909152902054821115610b27576001600160a01b03841660009081526098602090815260408083203384529091529081902054905163054365bb60e31b81526105be918491600401612d7f565b6001600160a01b038316610b4e57604051633a954ecd60e21b815260040160405180910390fd5b306001600160a01b03841603610b775760405163ed728e5760e01b815260040160405180910390fd5b610b8084612189565b600080610b8c866122b4565b9150915080841115610bb55783816040516350d2479d60e11b81526004016105be929190612d7f565b610bc0868584612407565b6001600160a01b03861660009081526099602052604081208054869290610be8908490612d49565b90915550506001600160a01b038616600090815260986020908152604080832033845290915281208054869290610c20908490612d49565b90915550610c2f905085612189565b6001600160a01b03851660009081526099602052604081208054869290610c57908490612d36565b9091555050609d546001600160a01b031615801590610c7557508315155b15610d5f57609d54604051630d5dbdb360e21b81526000916001600160a01b031690633576f6cc90610cad9088908b90600401612d8d565b6020604051808303816000875af1158015610ccc573d6000803e3d6000fd5b505050506040513d601f19601f82011682018060405250810190610cf09190612d07565b90508015610d5d57609d546040516328ba35d960e11b81526001600160a01b03909116906351746bb290610d2a9084908a90600401612d8d565b600060405180830381600087803b158015610d4457600080fd5b505af1158015610d58573d6000803e3d6000fd5b505050505b505b846001600160a01b0316866001600160a01b0316600080516020612e8083398151915286604051610d9291815260200190565b60405180910390a360019250505060016065559392505050565b609d546040516246613160e11b81526000916001600160a01b031690628cc26290610ddb903390600401612af8565b602060405180830381865afa158015610df8573d6000803e3d6000fd5b505050506040513d601f19601f82011682018060405250810190610a8e9190612d07565b600260655403610e3e5760405162461bcd60e51b81526004016105be90612cd0565b6002606555610e4c33612189565b33600090815260996020526040902054610e679082906124b2565b60a0546040516370a0823160e01b81529192506001600160a01b0316906370a0823190610e98903090600401612af8565b602060405180830381865afa158015610eb5573d6000803e3d6000fd5b505050506040513d601f19601f82011682018060405250810190610ed99190612d07565b811115610ef9576040516316d5c93f60e21b815260040160405180910390fd5b30600090815260996020526040902054811115610f2957604051630bba337f60e11b815260040160405180910390fd5b30600090815260996020526040902080548290039055610f4933826124ca565b610f51611fa6565b610f5b3382611f0d565b609d546001600160a01b031615610fe357609d54604051630d5dbdb360e21b81526001600160a01b0390911690633576f6cc90610f9e9084903390600401612d8d565b6020604051808303816000875af1158015610fbd573d6000803e3d6000fd5b505050506040513d601f19601f82011682018060405250810190610fe19190612d07565b505b336001600160a01b03167fdf273cb619d95419a9cd0ec88123a0538c85064229baa6363788f743fff90deb824260405161101e929190612d7f565b60405180910390a2506001606555565b33611037611728565b6001600160a01b03161461105d5760405162461bcd60e51b81526004016105be90612c9b565b609755565b6002606554036110845760405162461bcd60e51b81526004016105be90612cd0565b600260655561109233612587565b336000908152609a60205260409020548111156110c257604051630dcad43360e11b815260040160405180910390fd5b6110cc338261268d565b336000908152609a6020526040812080548392906110eb908490612d49565b9091555050306000908152609a60205260408120805483929061110f908490612d49565b9091555061111d9050611fa6565b336001600160a01b03167f24fcca58a997b1b2eff6db8107e860458544c09ddd3693b3b779e1df6c0d6c5d824260405161101e929190612d7f565b60006001600160a01b03831661118157604051633d6601c760e11b815260040160405180910390fd5b3360009081526098602090815260408083206001600160a01b03871684529091528120546111b0908490612d36565b3360008181526098602090815260408083206001600160a01b038a1680855290835292819020859055518481529394509092600080516020612ea0833981519152910160405180910390a35060019392505050565b6000610a8e305b609f546001600160a01b038281166000908152609a602052604080822054905163966da88960e01b81529193929092169163966da8899161125291908690600401612d8d565b602060405180830381865afa15801561126f573d6000803e3d6000fd5b505050506040513d601f19601f820116820180604052508101906107579190612d07565b6002606554036112b55760405162461bcd60e51b81526004016105be90612cd0565b600260655560008290036112dc5760405163078e1d8560e01b815260040160405180910390fd5b6001600160a01b0381166113215760405162461bcd60e51b815260206004820152600c60248201526b41646472657373207a65726f60a01b60448201526064016105be565b306001600160a01b038216036113795760405162461bcd60e51b815260206004820181905260248201527f43616e6e6f74206465706f736974206f6e20626568616c66206f6620706f6f6c60448201526064016105be565b60a0546040516370a0823160e01b81526113f59184916001600160a01b03909116906370a08231906113af903390600401612af8565b602060405180830381865afa1580156113cc573d6000803e3d6000fd5b505050506040513d601f19601f820116820180604052508101906113f09190612d07565b6124b2565b915061140081612189565b609754156114455760975430600090815260996020526040902054611426908490612d36565b111561144557604051633f27d61760e01b815260040160405180910390fd5b61144f338361268d565b61145981836126a5565b3060009081526099602052604081208054849290611478908490612d36565b909155506114869050611fa6565b609d546001600160a01b0316156114fc57609d546040516328ba35d960e11b81526001600160a01b03909116906351746bb2906114c99085908590600401612d8d565b600060405180830381600087803b1580156114e357600080fd5b505af11580156114f7573d6000803e3d6000fd5b505050505b806001600160a01b0316336001600160a01b03167fef0ada5ca19bede6a40b575865a6ce451938d26835b7215e6a5e03bb2c4392128442604051611541929190612d7f565b60405180910390a350506001606555565b609e546001600160a01b0382811660009081526099602052604080822054905163966da88960e01b81529193929092169163966da8899161125291908690600401612d8d565b336115a1611728565b6001600160a01b0316146115c75760405162461bcd60e51b81526004016105be90612c9b565b6115d081611f28565b1580156115e557506001600160a01b03811615155b1561160557806040516322a2d07b60e21b81526004016105be9190612af8565b609b80546001600160a01b0319166001600160a01b0383169081179091551561163057611630611fa6565b806001600160a01b03167fef1b7e9216e08b283cc613824ccb26ea505227777839a4f3c6810d64594e01824260405161081f91815260200190565b565b33611676611728565b6001600160a01b03161461169c5760405162461bcd60e51b81526004016105be90612c9b565b6116a581611f28565b1580156116ba57506001600160a01b03811615155b156116da57806040516322a2d07b60e21b81526004016105be9190612af8565b60a180546001600160a01b0319166001600160a01b0383169081179091556040514281527f8e6481d1924c9bb8cdfd9d6140f3e5570c34c6c580d915144728bbbf394eed0a9060200161081f565b6033546001600160a01b031690565b60006001600160a01b03831661176057604051633d6601c760e11b815260040160405180910390fd5b3360009081526098602090815260408083206001600160a01b0387168452909152902054828110156117a957828160405163054365bb60e31b81526004016105be929190612d7f565b60006117b58483612d49565b3360008181526098602090815260408083206001600160a01b038b1680855290835292819020859055518481529394509092600080516020612ea0833981519152910160405180910390a3506001949350505050565b600060026065540361182f5760405162461bcd60e51b81526004016105be90612cd0565b60026065556001600160a01b03831661185b57604051633a954ecd60e21b815260040160405180910390fd5b306001600160a01b038416036118845760405163ed728e5760e01b815260040160405180910390fd5b3361188e81612189565b60008061189a836122b4565b91509150808511156118c35784816040516350d2479d60e11b81526004016105be929190612d7f565b6118ce838684612407565b6001600160a01b0383166000908152609960205260409020805486900390556118f686612189565b6001600160a01b0386166000908152609960205260408120805487929061191e908490612d36565b9091555050609d546001600160a01b03161580159061193c57508415155b15611a2657609d54604051630d5dbdb360e21b81526000916001600160a01b031690633576f6cc906119749089908890600401612d8d565b6020604051808303816000875af1158015611993573d6000803e3d6000fd5b505050506040513d601f19601f820116820180604052508101906119b79190612d07565b90508015611a2457609d546040516328ba35d960e11b81526001600160a01b03909116906351746bb2906119f19084908b90600401612d8d565b600060405180830381600087803b158015611a0b57600080fd5b505af1158015611a1f573d6000803e3d6000fd5b505050505b505b856001600160a01b0316836001600160a01b0316600080516020612e8083398151915287604051611a5991815260200190565b60405180910390a360019350505050600160655592915050565b611a7d8133611293565b50565b611a88612a3e565b6040518060a00160405280611a9b610a83565b8152602001611aa8611ad7565b8152602001611ab5611e4c565b8152602001611ac2611205565b8152602001670cd64299613c80009052919050565b609b546000906001600160a01b0316637cd08331611af3611205565b611afb610a83565b6040518363ffffffff1660e01b8152600401610ddb929190612d7f565b609c546001600160a01b0316611b4157604051631c038dab60e21b815260040160405180910390fd5b609c5460405163039ff21960e21b81526001600160a01b0390911690630e7fc86490611b71903390600401612af8565b602060405180830381865afa158015611b8e573d6000803e3d6000fd5b505050506040513d601f19601f82011682018060405250810190611bb29190612da4565b611bcf57604051637582fa9b60e11b815260040160405180910390fd5b611bd7610a83565b600003611bf7576040516316d5c93f60e21b815260040160405180910390fd5b600260655403611c195760405162461bcd60e51b81526004016105be90612cd0565b600260655560a0546040516370a0823160e01b81526001600160a01b03909116906370a0823190611c4e903090600401612af8565b602060405180830381865afa158015611c6b573d6000803e3d6000fd5b505050506040513d601f19601f82011682018060405250810190611c8f9190612d07565b811115611caf576040516316d5c93f60e21b815260040160405180910390fd5b611cb833612587565b336000908152609a602052604081208054839290611cd7908490612d36565b9091555050306000908152609a602052604081208054839290611cfb908490612d36565b90915550611d0b90503382611f0d565b611d13611fa6565b336001600160a01b03167fd6b37be10b58108f696d9ed067fedad0bff7cb417ef4c28d2f8a25d6d83c98d58242604051611d4e929190612d7f565b60405180910390a26001606555670cd64299613c8000611d6c610a83565b611d74611205565b611d8690670de0b6b3a7640000612dc6565b611d909190612ddd565b1115611a7d576040516372b9ce3f60e11b815260040160405180910390fd5b33611db8611728565b6001600160a01b031614611dde5760405162461bcd60e51b81526004016105be90612c9b565b6001600160a01b038116611e435760405162461bcd60e51b815260206004820152602660248201527f4f776e61626c653a206e6577206f776e657220697320746865207a65726f206160448201526564647265737360d01b60648201526084016105be565b611a7d8161272c565b609b546000906001600160a01b031663df841eec611af3611205565b33611e71611728565b6001600160a01b031614611e975760405162461bcd60e51b81526004016105be90612c9b565b611ea081611f28565b611ebf57806040516322a2d07b60e21b81526004016105be9190612af8565b609c80546001600160a01b0319166001600160a01b0383169081179091556040514281527f04dce7d074f7e287a2e6e3516c802271d58d5c14e0dede83a49719eb6b9204699060200161081f565b60a054611f24906001600160a01b0316838361277e565b5050565b6001600160a01b03163b151590565b6000611f4230611f28565b15905090565b600054610100900460ff16611f6f5760405162461bcd60e51b81526004016105be90612dff565b61166b6128aa565b600054610100900460ff16611f9e5760405162461bcd60e51b81526004016105be90612dff565b61166b6128da565b6000611fb0611205565b90506000611fbc610a83565b609b549091506001600160a01b0316611fe85760405163fd4851e960e01b815260040160405180910390fd5b609e54609b54604051637cd0833160e01b81526001600160a01b03928316926334fcf437921690637cd08331906120259087908790600401612d7f565b602060405180830381865afa158015612042573d6000803e3d6000fd5b505050506040513d601f19601f820116820180604052508101906120669190612d07565b6040518263ffffffff1660e01b815260040161208491815260200190565b600060405180830381600087803b15801561209e57600080fd5b505af11580156120b2573d6000803e3d6000fd5b5050609f54609b546040516337e107bb60e21b81526001600160a01b0392831694506334fcf437935091169063df841eec906120f49087908790600401612d7f565b602060405180830381865afa158015612111573d6000803e3d6000fd5b505050506040513d601f19601f820116820180604052508101906121359190612d07565b6040518263ffffffff1660e01b815260040161215391815260200190565b600060405180830381600087803b15801561216d57600080fd5b505af1158015612181573d6000803e3d6000fd5b505050505050565b6001600160a01b0381166000908152609960205260408120546121ab83611552565b6121b59190612d49565b90506121c182826126a5565b6121ca30611552565b306000908152609960205260409081902091909155516001600160a01b038316907f9bbd517758fbae61197f1c1c04c8614064e89512dbaf4350dcdf76fcaa5e21619061221a9084904290612d7f565b60405180910390a2609e54604051637681d99b60e11b81526001600160a01b039091169063ed03b33690612252908590600401612af8565b600060405180830381600087803b15801561226c57600080fd5b505af1158015612280573d6000803e3d6000fd5b5050609e54604051637681d99b60e11b81526001600160a01b03909116925063ed03b3369150612153903090600401612af8565b60a15460009081906001600160a01b0316156123e85760a15460405163cbf9fe5f60e01b81526001600160a01b039091169063cbf9fe5f906122fa908690600401612af8565b602060405180830381865afa158015612317573d6000803e3d6000fd5b505050506040513d601f19601f8201168201806040525081019061233b9190612d07565b915081156123e85760a15460405163512edc6760e11b81526001600160a01b039091169063a25db8ce90612373908690600401612af8565b602060405180830381865afa158015612390573d6000803e3d6000fd5b505050506040513d601f19601f820116820180604052508101906123b49190612d07565b6123be9083612d49565b6001600160a01b0384166000908152609960205260409020546123e19190612d49565b9050915091565b506001600160a01b038216600090815260996020526040902054915091565b6001600160a01b03831660009081526099602052604081205461242b908390612d49565b90508083118015612446575060a1546001600160a01b031615155b156105895760a1546001600160a01b03166349c1de3f856124678487612d49565b6040518363ffffffff1660e01b8152600401612484929190612e4a565b600060405180830381600087803b15801561249e57600080fd5b505af1158015610a79573d6000803e3d6000fd5b60008183106124c157816124c3565b825b9392505050565b6001600160a01b03821660009081526099602052604090205481111561250357604051630bba337f60e11b815260040160405180910390fd5b60008061250f846122b4565b91509150808311156125345760405163a06a83a160e01b815260040160405180910390fd5b61253f848484612407565b6001600160a01b03841660008181526099602090815260408083208054889003905551868152919291600080516020612e80833981519152910160405180910390a350505050565b6125908161120c565b6001600160a01b0382166000908152609a60205260409020556125b23061120c565b306000908152609a60205260409081902091909155609f549051637681d99b60e11b81526001600160a01b039091169063ed03b336906125f6908490600401612af8565b600060405180830381600087803b15801561261057600080fd5b505af1158015612624573d6000803e3d6000fd5b5050609f54604051637681d99b60e11b81526001600160a01b03909116925063ed03b3369150612658903090600401612af8565b600060405180830381600087803b15801561267257600080fd5b505af1158015612686573d6000803e3d6000fd5b5050505050565b60a054611f24906001600160a01b0316833084612908565b6001600160a01b0382166126cc576040516346dbfb6d60e11b815260040160405180910390fd5b6001600160a01b038216600090815260996020526040812080548392906126f4908490612d36565b90915550506040518181526001600160a01b03831690600090600080516020612e808339815191529060200160405180910390a35050565b603380546001600160a01b038381166001600160a01b0319831681179093556040519116919082907f8be0079c531659141344cd1fd0a4f28419497f9722a3daafe3b4186f6b6457e090600090a35050565b600080846001600160a01b031663a9059cbb85856040516024016127a3929190612e4a565b6040516020818303038152906040529060e01b6020820180516001600160e01b0383818316178352505050506040516127dc9190612e63565b6000604051808303816000865af19150503d8060008114612819576040519150601f19603f3d011682016040523d82523d6000602084013e61281e565b606091505b50915091508180156128485750805115806128485750808060200190518101906128489190612da4565b6126865760405162461bcd60e51b815260206004820152602d60248201527f5472616e7366657248656c7065723a3a736166655472616e736665723a20747260448201526c185b9cd9995c8819985a5b1959609a1b60648201526084016105be565b600054610100900460ff166128d15760405162461bcd60e51b81526004016105be90612dff565b61166b3361272c565b600054610100900460ff166129015760405162461bcd60e51b81526004016105be90612dff565b6001606555565b604080516001600160a01b0385811660248301528481166044830152606480830185905283518084039091018152608490920183526020820180516001600160e01b03166323b872dd60e01b179052915160009283929088169161296c9190612e63565b6000604051808303816000865af19150503d80600081146129a9576040519150601f19603f3d011682016040523d82523d6000602084013e6129ae565b606091505b50915091508180156129d85750805115806129d85750808060200190518101906129d89190612da4565b6121815760405162461bcd60e51b815260206004820152603160248201527f5472616e7366657248656c7065723a3a7472616e7366657246726f6d3a207472604482015270185b9cd9995c919c9bdb4819985a5b1959607a1b60648201526084016105be565b6040518060a001604052806005906020820280368337509192915050565b60005b83811015612a77578181015183820152602001612a5f565b50506000910152565b6020815260008251806020840152612a9f816040850160208701612a5c565b601f01601f19169190910160400192915050565b6001600160a01b0381168114611a7d57600080fd5b60008060408385031215612adb57600080fd5b823591506020830135612aed81612ab3565b809150509250929050565b6001600160a01b0391909116815260200190565b600060208284031215612b1e57600080fd5b81356124c381612ab3565b60008060408385031215612b3c57600080fd5b8235612b4781612ab3565b946020939093013593505050565b600080600080600080600060e0888a031215612b7057600080fd5b8735612b7b81612ab3565b96506020880135612b8b81612ab3565b95506040880135612b9b81612ab3565b94506060880135612bab81612ab3565b93506080880135612bbb81612ab3565b925060a0880135612bcb81612ab3565b8092505060c0880135905092959891949750929550565b600080600060608486031215612bf757600080fd5b8335612c0281612ab3565b92506020840135612c1281612ab3565b929592945050506040919091013590565b600060208284031215612c3557600080fd5b5035919050565b60a08101818360005b6005811015612c64578151835260209283019290910190600101612c45565b50505092915050565b60008060408385031215612c8057600080fd5b8235612c8b81612ab3565b91506020830135612aed81612ab3565b6020808252818101527f4f776e61626c653a2063616c6c6572206973206e6f7420746865206f776e6572604082015260600190565b6020808252601f908201527f5265656e7472616e637947756172643a207265656e7472616e742063616c6c00604082015260600190565b600060208284031215612d1957600080fd5b5051919050565b634e487b7160e01b600052601160045260246000fd5b8082018082111561075757610757612d20565b8181038181111561075757610757612d20565b600060208284031215612d6e57600080fd5b815160ff811681146124c357600080fd5b918252602082015260400190565b9182526001600160a01b0316602082015260400190565b600060208284031215612db657600080fd5b815180151581146124c357600080fd5b808202811582820484141761075757610757612d20565b600082612dfa57634e487b7160e01b600052601260045260246000fd5b500490565b6020808252602b908201527f496e697469616c697a61626c653a20636f6e7472616374206973206e6f74206960408201526a6e697469616c697a696e6760a81b606082015260800190565b6001600160a01b03929092168252602082015260400190565b60008251612e75818460208701612a5c565b919091019291505056feddf252ad1be2c89b69c2b068fc378daa952ba7f163c4a11628f55a4df523b3ef8c5be1e5ebec7d5bd14f71427d1e84f3dd0314c0f7b2291e5b200ac8c7c3b925a2646970667358221220b23827cbb23a04c6478e99306417e4dea7e4435d14cd23f3553f2dc0f9fa012064736f6c63430008110033",
  "linkReferences": {},
  "deployedLinkReferences": {}
}