{
  "_format": "hh-sol-artifact-1",
  "contractName": "SmartLoansFactory",
  "sourceName": "contracts/SmartLoansFactory.sol",
  "abi": [
    {
      "inputs": [],
      "name": "CalldataMustHaveValidPayload",
      "type": "error"
    },
    {
      "inputs": [],
      "name": "CalldataOverOrUnderFlow",
      "type": "error"
    },
    {
      "inputs": [],
      "name": "DataPackageTimestampMustNotBeZero",
      "type": "error"
    },
    {
      "inputs": [],
      "name": "DataPackageTimestampsMustBeEqual",
      "type": "error"
    },
    {
      "inputs": [],
      "name": "EachSignerMustProvideTheSameValue",
      "type": "error"
    },
    {
      "inputs": [],
      "name": "EmptyCalldataPointersArr",
      "type": "error"
    },
    {
      "inputs": [],
      "name": "IncorrectUnsignedMetadataSize",
      "type": "error"
    },
    {
      "inputs": [
        {
          "internalType": "uint256",
          "name": "receivedSignersCount",
          "type": "uint256"
        },
        {
          "internalType": "uint256",
          "name": "requiredSignersCount",
          "type": "uint256"
        }
      ],
      "name": "InsufficientNumberOfUniqueSigners",
      "type": "error"
    },
    {
      "inputs": [],
      "name": "InvalidCalldataPointer",
      "type": "error"
    },
    {
      "inputs": [
        {
          "internalType": "bytes",
          "name": "result",
          "type": "bytes"
        }
      ],
      "name": "ProxyCalldataFailedWithCustomError",
      "type": "error"
    },
    {
      "inputs": [
        {
          "internalType": "string",
          "name": "message",
          "type": "string"
        }
      ],
      "name": "ProxyCalldataFailedWithStringMessage",
      "type": "error"
    },
    {
      "inputs": [],
      "name": "ProxyCalldataFailedWithoutErrMsg",
      "type": "error"
    },
    {
      "inputs": [],
      "name": "RedstonePayloadMustHaveAtLeastOneDataPackage",
      "type": "error"
    },
    {
      "inputs": [
        {
          "internalType": "address",
          "name": "receivedSigner",
          "type": "address"
        }
      ],
      "name": "SignerNotAuthorised",
      "type": "error"
    },
    {
      "anonymous": false,
      "inputs": [
        {
          "indexed": true,
          "internalType": "address",
          "name": "previousOwner",
          "type": "address"
        },
        {
          "indexed": true,
          "internalType": "address",
          "name": "newOwner",
          "type": "address"
        }
      ],
      "name": "OwnershipTransferred",
      "type": "event"
    },
    {
      "anonymous": false,
      "inputs": [
        {
          "indexed": true,
          "internalType": "address",
          "name": "accountAddress",
          "type": "address"
        },
        {
          "indexed": true,
          "internalType": "address",
          "name": "creator",
          "type": "address"
        },
        {
          "indexed": false,
          "internalType": "bytes32",
          "name": "collateralAsset",
          "type": "bytes32"
        },
        {
          "indexed": false,
          "internalType": "uint256",
          "name": "collateralAmount",
          "type": "uint256"
        }
      ],
      "name": "SmartLoanCreated",
      "type": "event"
    },
    {
      "inputs": [
        {
          "internalType": "address",
          "name": "_account",
          "type": "address"
        }
      ],
      "name": "canBorrow",
      "outputs": [
        {
          "internalType": "bool",
          "name": "",
          "type": "bool"
        }
      ],
      "stateMutability": "view",
      "type": "function"
    },
    {
      "inputs": [
        {
          "internalType": "address",
          "name": "_newOwner",
          "type": "address"
        }
      ],
      "name": "changeOwnership",
      "outputs": [],
      "stateMutability": "nonpayable",
      "type": "function"
    },
    {
      "inputs": [
        {
          "internalType": "bytes32",
          "name": "_fundedAsset",
          "type": "bytes32"
        },
        {
          "internalType": "address",
          "name": "_assetAddress",
          "type": "address"
        },
        {
          "internalType": "uint256",
          "name": "_amount",
          "type": "uint256"
        }
      ],
      "name": "createAndFundLoan",
      "outputs": [
        {
          "internalType": "contract SmartLoanDiamondBeacon",
          "name": "",
          "type": "address"
        }
      ],
      "stateMutability": "nonpayable",
      "type": "function"
    },
    {
      "inputs": [],
      "name": "createLoan",
      "outputs": [
        {
          "internalType": "contract SmartLoanDiamondBeacon",
          "name": "",
          "type": "address"
        }
      ],
      "stateMutability": "nonpayable",
      "type": "function"
    },
    {
      "inputs": [],
      "name": "extractTimestampsAndAssertAllAreEqual",
      "outputs": [
        {
          "internalType": "uint256",
          "name": "extractedTimestamp",
          "type": "uint256"
        }
      ],
      "stateMutability": "pure",
      "type": "function"
    },
    {
      "inputs": [],
      "name": "getAllLoans",
      "outputs": [
        {
          "internalType": "address[]",
          "name": "",
          "type": "address[]"
        }
      ],
      "stateMutability": "view",
      "type": "function"
    },
    {
      "inputs": [
        {
          "internalType": "address",
          "name": "_user",
          "type": "address"
        }
      ],
      "name": "getLoanForOwner",
      "outputs": [
        {
          "internalType": "address",
          "name": "",
          "type": "address"
        }
      ],
      "stateMutability": "view",
      "type": "function"
    },
    {
      "inputs": [
        {
          "internalType": "uint256",
          "name": "_from",
          "type": "uint256"
        },
        {
          "internalType": "uint256",
          "name": "_count",
          "type": "uint256"
        }
      ],
      "name": "getLoans",
      "outputs": [
        {
          "internalType": "address[]",
          "name": "_loans",
          "type": "address[]"
        }
      ],
      "stateMutability": "view",
      "type": "function"
    },
    {
      "inputs": [],
      "name": "getLoansLength",
      "outputs": [
        {
          "internalType": "uint256",
          "name": "",
          "type": "uint256"
        }
      ],
      "stateMutability": "view",
      "type": "function"
    },
    {
      "inputs": [
        {
          "internalType": "address",
          "name": "_loan",
          "type": "address"
        }
      ],
      "name": "getOwnerOfLoan",
      "outputs": [
        {
          "internalType": "address",
          "name": "",
          "type": "address"
        }
      ],
      "stateMutability": "view",
      "type": "function"
    },
    {
      "inputs": [
        {
          "internalType": "address payable",
          "name": "_smartLoanDiamond",
          "type": "address"
        }
      ],
      "name": "initialize",
      "outputs": [],
      "stateMutability": "nonpayable",
      "type": "function"
    },
    {
      "inputs": [
        {
          "internalType": "address",
          "name": "",
          "type": "address"
        }
      ],
      "name": "loansToOwners",
      "outputs": [
        {
          "internalType": "address",
          "name": "",
          "type": "address"
        }
      ],
      "stateMutability": "view",
      "type": "function"
    },
    {
      "inputs": [],
      "name": "owner",
      "outputs": [
        {
          "internalType": "address",
          "name": "",
          "type": "address"
        }
      ],
      "stateMutability": "view",
      "type": "function"
    },
    {
      "inputs": [
        {
          "internalType": "address",
          "name": "",
          "type": "address"
        }
      ],
      "name": "ownersToLoans",
      "outputs": [
        {
          "internalType": "address",
          "name": "",
          "type": "address"
        }
      ],
      "stateMutability": "view",
      "type": "function"
    },
    {
      "inputs": [],
      "name": "renounceOwnership",
      "outputs": [],
      "stateMutability": "nonpayable",
      "type": "function"
    },
    {
      "inputs": [],
      "name": "smartLoanDiamond",
      "outputs": [
        {
          "internalType": "contract SmartLoanDiamondBeacon",
          "name": "",
          "type": "address"
        }
      ],
      "stateMutability": "view",
      "type": "function"
    },
    {
      "inputs": [
        {
          "internalType": "address",
          "name": "newOwner",
          "type": "address"
        }
      ],
      "name": "transferOwnership",
      "outputs": [],
      "stateMutability": "nonpayable",
      "type": "function"
    }
  ],
  "bytecode": "0x608060405234801561001057600080fd5b506120e5806100206000396000f3fe60806040523480156200001157600080fd5b5060043610620001215760003560e01c8063715018a611620000af578063ab54b33c116200007a578063ab54b33c14620002b9578063c4d66de814620002cd578063c95ebb0314620002e4578063f2fde38b14620002fb578063f89dcbfd146200031257600080fd5b8063715018a614620001c857806386b2010414620002775780638da5cb5b146200029d578063a5bfd16a14620002af57600080fd5b8063357719ef11620000f0578063357719ef14620001f957806355a547d514620002255780635b012546146200023e57806365ec1a45146200026d57600080fd5b80630e7fc86414620001265780631f278b74146200016c5780632af4c31e14620001b15780633344a55514620001ca575b600080fd5b620001576200013736600462001445565b6001600160a01b0390811660009081526067602052604090205416151590565b60405190151581526020015b60405180910390f35b620001986200017d36600462001445565b6067602052600090815260409020546001600160a01b031681565b6040516001600160a01b03909116815260200162000163565b620001c8620001c236600462001445565b6200031b565b005b62000198620001db36600462001445565b6001600160a01b039081166000908152606660205260409020541690565b620001986200020a36600462001445565b6066602052600090815260409020546001600160a01b031681565b6200022f62000459565b60405190815260200162000163565b620001986200024f36600462001445565b6001600160a01b039081166000908152606760205260409020541690565b6200019862000588565b6200028e6200028836600462001465565b620007f4565b60405162000163919062001488565b6033546001600160a01b031662000198565b6200028e62000918565b60655462000198906001600160a01b031681565b620001c8620002de36600462001445565b6200097c565b62000198620002f5366004620014d7565b62000a61565b620001c86200030c36600462001445565b62000d71565b6068546200022f565b336000818152606760205260409020546001600160a01b031680620003965760405162461bcd60e51b815260206004820152602660248201527f4f6e6c79206120536d6172744c6f616e2063616e206368616e676520697427736044820152651037bbb732b960d11b60648201526084015b60405180910390fd5b6001600160a01b038084166000908152606660205260409020541615620004005760405162461bcd60e51b815260206004820152601c60248201527f4e6577206f776e657220616c7265616479206861732061206c6f616e0000000060448201526064016200038d565b6001600160a01b03908116600090815260666020908152604080832080546001600160a01b0319908116909155958416808452818420805496909516958716861790945593825260679052919091208054909216179055565b6000806200046662000e42565b90506000620004758262000ef2565b61ffff169050806000036200049d57604051632154bfcf60e21b815260040160405180910390fd5b620004aa60028362001528565b915060005b8181101562000582576000620004c58462000f2f565b9050600080620004d760688762001528565b90506000620004e782366200153e565b9050803592508265ffffffffffff166000036200051757604051630336dc9d60e41b815260040160405180910390fd5b8760000362000531578265ffffffffffff1697506200055a565b878365ffffffffffff16146200055a5760405163d9d1f46560e01b815260040160405180910390fd5b62000566848862001528565b9650505050508080620005799062001554565b915050620004af565b50505090565b336000908152606660205260408120546001600160a01b031615620005c15760405162461bcd60e51b81526004016200038d9062001570565b730e5bad4108a6a5a8b06820f98026a7f3a77466b2331480620005f75750732ffa7e9624b923fa811d9b9995aa34b715db194533145b80620006165750730d7137fea34bc97819f05544ec7de5c98617989c33145b8062000635575073c6ba6bb819f1be84efeb2e3f2697ad9818151e5d33145b806200065457507314f69f9c351b798df31fc53e33c09dd29bfab54733145b80620006735750735c23bd1bd272d22766eb3708b8f874cb93b7524833145b806200068f575070f406ca147030be7069149e4a7423e3a26433145b80620006ae5750735d80a1c0a5084163f1d2620c1b1f43209cd4db1233145b80620006cd5750736c21a841d6f029243af87ef01f6772f05832144b33145b15620007b457606554604080513360248083019190915282518083039091018152604490910182526020810180516001600160e01b031663189acdbd60e31b17905290516000926001600160a01b031691906200072a9062001421565b6200073792919062001606565b604051809103906000f08015801562000754573d6000803e3d6000fd5b5090508062000764813362000f73565b604080516000808252602082015233916001600160a01b038416917f3c5330cb261eae74426865a348927ace59eae441485c71a110df598f825b6369910160405180910390a39150620007ef9050565b60405162461bcd60e51b815260206004820152600f60248201526e139bdd081dda1a5d195b1a5cdd1959608a1b60448201526064016200038d565b90565b565b6068546060908084106200081957505060408051600081526020810190915262000912565b6200082584826200153e565b8311156200083c576200083984826200153e565b92505b8267ffffffffffffffff8111156200085857620008586200162c565b60405190808252806020026020018201604052801562000882578160200160208202803683370190505b50915060005b8381146200090f5760686200089e828762001528565b81548110620008b157620008b162001642565b9060005260206000200160009054906101000a90046001600160a01b0316838281518110620008e457620008e462001642565b6001600160a01b0390921660209283029190910190910152620009078162001554565b905062000888565b50505b92915050565b606060688054806020026020016040519081016040528092919081815260200182805480156200097257602002820191906000526020600020905b81546001600160a01b0316815260019091019060200180831162000953575b5050505050905090565b600054610100900460ff16620009995760005460ff16156200099d565b303b155b62000a025760405162461bcd60e51b815260206004820152602e60248201527f496e697469616c697a61626c653a20636f6e747261637420697320616c72656160448201526d191e481a5b9a5d1a585b1a5e995960921b60648201526084016200038d565b600054610100900460ff1615801562000a25576000805461ffff19166101011790555b606580546001600160a01b0319166001600160a01b03841617905562000a4a62000ff4565b801562000a5d576000805461ff00191690555b5050565b336000908152606660205260408120546001600160a01b03161562000a9a5760405162461bcd60e51b81526004016200038d9062001570565b730e5bad4108a6a5a8b06820f98026a7f3a77466b233148062000ad05750732ffa7e9624b923fa811d9b9995aa34b715db194533145b8062000aef5750730d7137fea34bc97819f05544ec7de5c98617989c33145b8062000b0e575073c6ba6bb819f1be84efeb2e3f2697ad9818151e5d33145b8062000b2d57507314f69f9c351b798df31fc53e33c09dd29bfab54733145b8062000b4c5750735c23bd1bd272d22766eb3708b8f874cb93b7524833145b8062000b68575070f406ca147030be7069149e4a7423e3a26433145b8062000b875750735d80a1c0a5084163f1d2620c1b1f43209cd4db1233145b8062000ba65750736c21a841d6f029243af87ef01f6772f05832144b33145b15620007b457606554604080513360248083019190915282518083039091018152604490910182526020810180516001600160e01b031663189acdbd60e31b17905290516000926001600160a01b0316919062000c039062001421565b62000c1092919062001606565b604051809103906000f08015801562000c2d573d6000803e3d6000fd5b509050808462000c496001600160a01b03821633308862001028565b62000c5f6001600160a01b038216838762001170565b62000c6b823362000f73565b6040805160248101899052604480820188905282518083039091018152606490910182526020810180516001600160e01b0316637235de4f60e11b179052905160009182916001600160a01b0386169162000cc69162001658565b6000604051808303816000865af19150503d806000811462000d05576040519150601f19603f3d011682016040523d82523d6000602084013e62000d0a565b606091505b509150915062000d1b8282620012a9565b50604080518a81526020810189905233916001600160a01b038716917f3c5330cb261eae74426865a348927ace59eae441485c71a110df598f825b6369910160405180910390a3509193505050505b9392505050565b6033546001600160a01b0316331462000dcd5760405162461bcd60e51b815260206004820181905260248201527f4f776e61626c653a2063616c6c6572206973206e6f7420746865206f776e657260448201526064016200038d565b6001600160a01b03811662000e345760405162461bcd60e51b815260206004820152602660248201527f4f776e61626c653a206e6577206f776e657220697320746865207a65726f206160448201526564647265737360d01b60648201526084016200038d565b62000e3f816200132d565b50565b60006602ed57011e0000601f193601358116148062000e74576040516373bb264f60e11b815260040160405180910390fd5b6000366029111562000e9957604051632bcb7bc560e11b815260040160405180910390fd5b506028193601356000600962000eb6600362ffffff851662001528565b62000ec2919062001528565b90503662000ed260028362001528565b111562000d6a5760405163c30a7bd760e01b815260040160405180910390fd5b60008062000f0260208462001528565b90503681111562000f2657604051632bcb7bc560e11b815260040160405180910390fd5b36033592915050565b600080600062000f3f846200137f565b9092509050604e62000f5382602062001528565b62000f5f908462001676565b62000f6b919062001528565b949350505050565b6001600160a01b0390811660008181526066602090815260408083208054959096166001600160a01b0319958616811790965585835260679091528120805484169092179091556068805460018101825591527fa2153420d844928b4421650203c77babc8b33d7f2e7b450e2966db0c220977530180549091169091179055565b600054610100900460ff166200101e5760405162461bcd60e51b81526004016200038d9062001690565b620007f2620013de565b604080516001600160a01b0385811660248301528481166044830152606480830185905283518084039091018152608490920183526020820180516001600160e01b03166323b872dd60e01b17905291516000928392908816916200108e919062001658565b6000604051808303816000865af19150503d8060008114620010cd576040519150601f19603f3d011682016040523d82523d6000602084013e620010d2565b606091505b50915091508180156200110057508051158062001100575080806020019051810190620011009190620016db565b620011685760405162461bcd60e51b815260206004820152603160248201527f5472616e7366657248656c7065723a3a7472616e7366657246726f6d3a207472604482015270185b9cd9995c919c9bdb4819985a5b1959607a1b60648201526084016200038d565b505050505050565b604080516001600160a01b038481166024830152604480830185905283518084039091018152606490920183526020820180516001600160e01b031663095ea7b360e01b1790529151600092839290871691620011ce919062001658565b6000604051808303816000865af19150503d80600081146200120d576040519150601f19603f3d011682016040523d82523d6000602084013e62001212565b606091505b50915091508180156200124057508051158062001240575080806020019051810190620012409190620016db565b620012a25760405162461bcd60e51b815260206004820152602b60248201527f5472616e7366657248656c7065723a3a73616665417070726f76653a2061707060448201526a1c9bdd994819985a5b195960aa1b60648201526084016200038d565b5050505050565b60608262001327578151600003620012d457604051632b3ff13d60e11b815260040160405180910390fd5b602082015162461bcd60e51b1480156200130a576040516301efd04f60e31b815260448401906200038d908290600401620016ff565b8260405163fd36fde360e01b81526004016200038d9190620016ff565b50919050565b603380546001600160a01b038381166001600160a01b0319831681179093556040519116919082907f8be0079c531659141344cd1fd0a4f28419497f9722a3daafe3b4186f6b6457e090600090a35050565b6000808080806200139260418762001528565b90506000620013af620013a760208462001528565b369062001413565b803594509050620013c281600362001413565b62ffffff9490941697933563ffffffff16965092945050505050565b600054610100900460ff16620014085760405162461bcd60e51b81526004016200038d9062001690565b620007f2336200132d565b600062000d6a82846200153e565b61099b806200171583390190565b6001600160a01b038116811462000e3f57600080fd5b6000602082840312156200145857600080fd5b813562000d6a816200142f565b600080604083850312156200147957600080fd5b50508035926020909101359150565b6020808252825182820181905260009190848201906040850190845b81811015620014cb5783516001600160a01b031683529284019291840191600101620014a4565b50909695505050505050565b600080600060608486031215620014ed57600080fd5b83359250602084013562001501816200142f565b929592945050506040919091013590565b634e487b7160e01b600052601160045260246000fd5b8082018082111562000912576200091262001512565b8181038181111562000912576200091262001512565b60006001820162001569576200156962001512565b5060010190565b60208082526022908201527f4f6e6c79206f6e65206c6f616e20706572206f776e657220697320616c6c6f77604082015261195960f21b606082015260800190565b60005b83811015620015cf578181015183820152602001620015b5565b50506000910152565b60008151808452620015f2816020860160208601620015b2565b601f01601f19169290920160200192915050565b6001600160a01b038316815260406020820181905260009062000f6b90830184620015d8565b634e487b7160e01b600052604160045260246000fd5b634e487b7160e01b600052603260045260246000fd5b600082516200166c818460208701620015b2565b9190910192915050565b808202811582820484141762000912576200091262001512565b6020808252602b908201527f496e697469616c697a61626c653a20636f6e7472616374206973206e6f74206960408201526a6e697469616c697a696e6760a81b606082015260800190565b600060208284031215620016ee57600080fd5b8151801515811462000d6a57600080fd5b60208152600062000d6a6020830184620015d856fe608060405260405161099b38038061099b83398101604081905261002291610499565b818161004f60017fa3f0ad74e5423aebfd80d3ef4346578335a9a72aeaee59ff6cb3582b35133d51610559565b6000805160206109548339815191521461006b5761006b61057a565b61007782826000610080565b505050506105fa565b61008983610159565b6040516001600160a01b038416907f1cf3b03a6cf19fa2baba4df148e9dcabedea7f8a5c07840e207e5c089be95d3e90600090a26000825111806100ca5750805b1561015457604051630d74157760e01b815263189acdbd60e31b6004820152610152906001600160a01b03851690630d74157790602401602060405180830381865afa15801561011e573d6000803e3d6000fd5b505050506040513d601f19601f820116820180604052508101906101429190610590565b836102ea60201b6100271760201c565b505b505050565b61016c8161031860201b6100531760201c565b6101cb5760405162461bcd60e51b815260206004820152602560248201527f455243313936373a206e657720626561636f6e206973206e6f74206120636f6e6044820152641d1c9858dd60da1b60648201526084015b60405180910390fd5b61023f816001600160a01b0316635c60da1b6040518163ffffffff1660e01b8152600401602060405180830381865afa15801561020c573d6000803e3d6000fd5b505050506040513d601f19601f820116820180604052508101906102309190610590565b61031860201b6100531760201c565b6102a45760405162461bcd60e51b815260206004820152603060248201527f455243313936373a20626561636f6e20696d706c656d656e746174696f6e206960448201526f1cc81b9bdd08184818dbdb9d1c9858dd60821b60648201526084016101c2565b806102c960008051602061095483398151915260001b61032760201b6100621760201c565b80546001600160a01b0319166001600160a01b039290921691909117905550565b606061030f83836040518060600160405280602781526020016109746027913961032a565b90505b92915050565b6001600160a01b03163b151590565b90565b60606001600160a01b0384163b6103925760405162461bcd60e51b815260206004820152602660248201527f416464726573733a2064656c65676174652063616c6c20746f206e6f6e2d636f6044820152651b9d1c9858dd60d21b60648201526084016101c2565b600080856001600160a01b0316856040516103ad91906105ab565b600060405180830381855af49150503d80600081146103e8576040519150601f19603f3d011682016040523d82523d6000602084013e6103ed565b606091505b5090925090506103fe82828661040a565b925050505b9392505050565b60608315610419575081610403565b8251156104295782518084602001fd5b8160405162461bcd60e51b81526004016101c291906105c7565b80516001600160a01b038116811461045a57600080fd5b919050565b634e487b7160e01b600052604160045260246000fd5b60005b83811015610490578181015183820152602001610478565b50506000910152565b600080604083850312156104ac57600080fd5b6104b583610443565b60208401519092506001600160401b03808211156104d257600080fd5b818501915085601f8301126104e657600080fd5b8151818111156104f8576104f861045f565b604051601f8201601f19908116603f011681019083821181831017156105205761052061045f565b8160405282815288602084870101111561053957600080fd5b61054a836020830160208801610475565b80955050505050509250929050565b8181038181111561031257634e487b7160e01b600052601160045260246000fd5b634e487b7160e01b600052600160045260246000fd5b6000602082840312156105a257600080fd5b61030f82610443565b600082516105bd818460208701610475565b9190910192915050565b60208152600082518060208401526105e6816040850160208701610475565b601f01601f19169190910160400192915050565b61034b806106096000396000f3fe60806040523661000b57005b610013610015565b005b610025610020610065565b610113565b565b606061004c83836040518060600160405280602781526020016102ef60279139610137565b9392505050565b6001600160a01b03163b151590565b90565b60006100987fa3f0ad74e5423aebfd80d3ef4346578335a9a72aeaee59ff6cb3582b35133d50546001600160a01b031690565b604051630d74157760e01b81526001600160e01b03196000351660048201526001600160a01b039190911690630d74157790602401602060405180830381865afa1580156100ea573d6000803e3d6000fd5b505050506040513d601f19601f8201168201806040525081019061010e9190610252565b905090565b3660008037600080366000845af43d6000803e808015610132573d6000f35b3d6000fd5b60606001600160a01b0384163b6101a45760405162461bcd60e51b815260206004820152602660248201527f416464726573733a2064656c65676174652063616c6c20746f206e6f6e2d636f6044820152651b9d1c9858dd60d21b60648201526084015b60405180910390fd5b600080856001600160a01b0316856040516101bf919061029f565b600060405180830381855af49150503d80600081146101fa576040519150601f19603f3d011682016040523d82523d6000602084013e6101ff565b606091505b509150915061020f828286610219565b9695505050505050565b6060831561022857508161004c565b8251156102385782518084602001fd5b8160405162461bcd60e51b815260040161019b91906102bb565b60006020828403121561026457600080fd5b81516001600160a01b038116811461004c57600080fd5b60005b8381101561029657818101518382015260200161027e565b50506000910152565b600082516102b181846020870161027b565b9190910192915050565b60208152600082518060208401526102da81604085016020870161027b565b601f01601f1916919091016040019291505056fe416464726573733a206c6f772d6c6576656c2064656c65676174652063616c6c206661696c6564a2646970667358221220181c6649a713a56e982ff1c5c3fc624d4fb42a7ae5f98328eff754fa92b1a78564736f6c63430008110033a3f0ad74e5423aebfd80d3ef4346578335a9a72aeaee59ff6cb3582b35133d50416464726573733a206c6f772d6c6576656c2064656c65676174652063616c6c206661696c6564a2646970667358221220d271007c630eac9e8a29ad04c6454fa0c48c9b9619e960a17a11a0d86c9d9f0c64736f6c63430008110033",
  "linkReferences": {},
  "deployedLinkReferences": {}
}