{
  "_format": "hh-sol-artifact-1",
  "contractName": "MockUpgradedSolvencySmartLoan",
  "sourceName": "contracts/mock/MockUpgradedSolvencySmartLoan.sol",
  "abi": [
    {
      "anonymous": false,
      "inputs": [
        {
          "indexed": true,
          "internalType": "address",
          "name": "borrower",
          "type": "address"
        },
        {
          "indexed": false,
          "internalType": "uint256",
          "name": "amount",
          "type": "uint256"
        },
        {
          "indexed": false,
          "internalType": "uint256",
          "name": "timestamp",
          "type": "uint256"
        }
      ],
      "name": "Borrowed",
      "type": "event"
    },
    {
      "anonymous": false,
      "inputs": [
        {
          "indexed": true,
          "internalType": "address",
          "name": "funder",
          "type": "address"
        },
        {
          "indexed": false,
          "internalType": "uint256",
          "name": "amount",
          "type": "uint256"
        },
        {
          "indexed": false,
          "internalType": "uint256",
          "name": "timestamp",
          "type": "uint256"
        }
      ],
      "name": "Funded",
      "type": "event"
    },
    {
      "anonymous": false,
      "inputs": [
        {
          "indexed": true,
          "internalType": "address",
          "name": "investor",
          "type": "address"
        },
        {
          "indexed": true,
          "internalType": "bytes32",
          "name": "asset",
          "type": "bytes32"
        },
        {
          "indexed": false,
          "internalType": "uint256",
          "name": "amount",
          "type": "uint256"
        },
        {
          "indexed": false,
          "internalType": "uint256",
          "name": "timestamp",
          "type": "uint256"
        }
      ],
      "name": "Invested",
      "type": "event"
    },
    {
      "anonymous": false,
      "inputs": [
        {
          "indexed": true,
          "internalType": "address",
          "name": "liquidator",
          "type": "address"
        },
        {
          "indexed": false,
          "internalType": "uint256",
          "name": "repayAmount",
          "type": "uint256"
        },
        {
          "indexed": false,
          "internalType": "uint256",
          "name": "bonus",
          "type": "uint256"
        },
        {
          "indexed": false,
          "internalType": "uint256",
          "name": "ltv",
          "type": "uint256"
        },
        {
          "indexed": false,
          "internalType": "uint256",
          "name": "timestamp",
          "type": "uint256"
        }
      ],
      "name": "Liquidated",
      "type": "event"
    },
    {
      "anonymous": false,
      "inputs": [
        {
          "indexed": false,
          "internalType": "uint256",
          "name": "debtRepaid",
          "type": "uint256"
        },
        {
          "indexed": false,
          "internalType": "uint256",
          "name": "withdrawalAmount",
          "type": "uint256"
        },
        {
          "indexed": false,
          "internalType": "uint256",
          "name": "timestamp",
          "type": "uint256"
        }
      ],
      "name": "LoanClosed",
      "type": "event"
    },
    {
      "anonymous": false,
      "inputs": [
        {
          "indexed": true,
          "internalType": "address",
          "name": "previousOwner",
          "type": "address"
        },
        {
          "indexed": true,
          "internalType": "address",
          "name": "newOwner",
          "type": "address"
        }
      ],
      "name": "OwnershipTransferred",
      "type": "event"
    },
    {
      "anonymous": false,
      "inputs": [
        {
          "indexed": true,
          "internalType": "address",
          "name": "investor",
          "type": "address"
        },
        {
          "indexed": true,
          "internalType": "bytes32",
          "name": "asset",
          "type": "bytes32"
        },
        {
          "indexed": false,
          "internalType": "uint256",
          "name": "amount",
          "type": "uint256"
        },
        {
          "indexed": false,
          "internalType": "uint256",
          "name": "timestamp",
          "type": "uint256"
        }
      ],
      "name": "Redeemed",
      "type": "event"
    },
    {
      "anonymous": false,
      "inputs": [
        {
          "indexed": true,
          "internalType": "address",
          "name": "borrower",
          "type": "address"
        },
        {
          "indexed": false,
          "internalType": "uint256",
          "name": "amount",
          "type": "uint256"
        },
        {
          "indexed": false,
          "internalType": "uint256",
          "name": "timestamp",
          "type": "uint256"
        }
      ],
      "name": "Repaid",
      "type": "event"
    },
    {
      "anonymous": false,
      "inputs": [
        {
          "indexed": true,
          "internalType": "address",
          "name": "owner",
          "type": "address"
        },
        {
          "indexed": false,
          "internalType": "uint256",
          "name": "amount",
          "type": "uint256"
        },
        {
          "indexed": false,
          "internalType": "uint256",
          "name": "timestamp",
          "type": "uint256"
        }
      ],
      "name": "Withdrawn",
      "type": "event"
    },
    {
      "inputs": [
        {
          "internalType": "uint256",
          "name": "_amount",
          "type": "uint256"
        }
      ],
      "name": "borrow",
      "outputs": [],
      "stateMutability": "nonpayable",
      "type": "function"
    },
    {
      "inputs": [],
      "name": "closeLoan",
      "outputs": [],
      "stateMutability": "payable",
      "type": "function"
    },
    {
      "inputs": [],
      "name": "executeGetAllAssetsPrices",
      "outputs": [
        {
          "internalType": "uint256[]",
          "name": "",
          "type": "uint256[]"
        }
      ],
      "stateMutability": "nonpayable",
      "type": "function"
    },
    {
      "inputs": [],
      "name": "executeGetTotalValue",
      "outputs": [
        {
          "internalType": "uint256",
          "name": "",
          "type": "uint256"
        }
      ],
      "stateMutability": "nonpayable",
      "type": "function"
    },
    {
      "inputs": [],
      "name": "fund",
      "outputs": [],
      "stateMutability": "payable",
      "type": "function"
    },
    {
      "inputs": [],
      "name": "getAllAssetsBalances",
      "outputs": [
        {
          "internalType": "uint256[]",
          "name": "",
          "type": "uint256[]"
        }
      ],
      "stateMutability": "view",
      "type": "function"
    },
    {
      "inputs": [],
      "name": "getAllAssetsPrices",
      "outputs": [
        {
          "internalType": "uint256[]",
          "name": "",
          "type": "uint256[]"
        }
      ],
      "stateMutability": "view",
      "type": "function"
    },
    {
      "inputs": [
        {
          "internalType": "address",
          "name": "_user",
          "type": "address"
        },
        {
          "internalType": "bytes32",
          "name": "_asset",
          "type": "bytes32"
        }
      ],
      "name": "getBalance",
      "outputs": [
        {
          "internalType": "uint256",
          "name": "",
          "type": "uint256"
        }
      ],
      "stateMutability": "view",
      "type": "function"
    },
    {
      "inputs": [],
      "name": "getDebt",
      "outputs": [
        {
          "internalType": "uint256",
          "name": "",
          "type": "uint256"
        }
      ],
      "stateMutability": "view",
      "type": "function"
    },
    {
      "inputs": [],
      "name": "getExchange",
      "outputs": [
        {
          "internalType": "contract IAssetsExchange",
          "name": "",
          "type": "address"
        }
      ],
      "stateMutability": "view",
      "type": "function"
    },
    {
      "inputs": [],
      "name": "getFullLoanStatus",
      "outputs": [
        {
          "internalType": "uint256[4]",
          "name": "",
          "type": "uint256[4]"
        }
      ],
      "stateMutability": "view",
      "type": "function"
    },
    {
      "inputs": [],
      "name": "getLTV",
      "outputs": [
        {
          "internalType": "uint256",
          "name": "",
          "type": "uint256"
        }
      ],
      "stateMutability": "view",
      "type": "function"
    },
    {
      "inputs": [],
      "name": "getLiquidationBonus",
      "outputs": [
        {
          "internalType": "uint256",
          "name": "",
          "type": "uint256"
        }
      ],
      "stateMutability": "view",
      "type": "function"
    },
    {
      "inputs": [],
      "name": "getMaxBlockTimestampDelay",
      "outputs": [
        {
          "internalType": "uint256",
          "name": "",
          "type": "uint256"
        }
      ],
      "stateMutability": "view",
      "type": "function"
    },
    {
      "inputs": [],
      "name": "getMaxDataTimestampDelay",
      "outputs": [
        {
          "internalType": "uint256",
          "name": "",
          "type": "uint256"
        }
      ],
      "stateMutability": "view",
      "type": "function"
    },
    {
      "inputs": [],
      "name": "getMaxLtv",
      "outputs": [
        {
          "internalType": "uint256",
          "name": "",
          "type": "uint256"
        }
      ],
      "stateMutability": "pure",
      "type": "function"
    },
    {
      "inputs": [],
      "name": "getMinSelloutLtv",
      "outputs": [
        {
          "internalType": "uint256",
          "name": "",
          "type": "uint256"
        }
      ],
      "stateMutability": "view",
      "type": "function"
    },
    {
      "inputs": [],
      "name": "getPercentagePrecision",
      "outputs": [
        {
          "internalType": "uint256",
          "name": "",
          "type": "uint256"
        }
      ],
      "stateMutability": "view",
      "type": "function"
    },
    {
      "inputs": [],
      "name": "getPool",
      "outputs": [
        {
          "internalType": "contract Pool",
          "name": "",
          "type": "address"
        }
      ],
      "stateMutability": "view",
      "type": "function"
    },
    {
      "inputs": [],
      "name": "getPriceProvider1",
      "outputs": [
        {
          "internalType": "address",
          "name": "",
          "type": "address"
        }
      ],
      "stateMutability": "view",
      "type": "function"
    },
    {
      "inputs": [],
      "name": "getPriceProvider2",
      "outputs": [
        {
          "internalType": "address",
          "name": "",
          "type": "address"
        }
      ],
      "stateMutability": "view",
      "type": "function"
    },
    {
      "inputs": [],
      "name": "getTotalValue",
      "outputs": [
        {
          "internalType": "uint256",
          "name": "",
          "type": "uint256"
        }
      ],
      "stateMutability": "view",
      "type": "function"
    },
    {
      "inputs": [],
      "name": "initialize",
      "outputs": [],
      "stateMutability": "nonpayable",
      "type": "function"
    },
    {
      "inputs": [
        {
          "internalType": "bytes32",
          "name": "_asset",
          "type": "bytes32"
        },
        {
          "internalType": "uint256",
          "name": "_exactERC20AmountOut",
          "type": "uint256"
        },
        {
          "internalType": "uint256",
          "name": "_maxAvaxAmountIn",
          "type": "uint256"
        }
      ],
      "name": "invest",
      "outputs": [],
      "stateMutability": "nonpayable",
      "type": "function"
    },
    {
      "inputs": [
        {
          "internalType": "address",
          "name": "_receivedSigner",
          "type": "address"
        }
      ],
      "name": "isSignerAuthorized",
      "outputs": [
        {
          "internalType": "bool",
          "name": "",
          "type": "bool"
        }
      ],
      "stateMutability": "view",
      "type": "function"
    },
    {
      "inputs": [],
      "name": "isSolvent",
      "outputs": [
        {
          "internalType": "bool",
          "name": "",
          "type": "bool"
        }
      ],
      "stateMutability": "view",
      "type": "function"
    },
    {
      "inputs": [
        {
          "internalType": "uint256",
          "name": "_receivedTimestamp",
          "type": "uint256"
        }
      ],
      "name": "isTimestampValid",
      "outputs": [
        {
          "internalType": "bool",
          "name": "",
          "type": "bool"
        }
      ],
      "stateMutability": "view",
      "type": "function"
    },
    {
      "inputs": [
        {
          "internalType": "uint256",
          "name": "repayAmount",
          "type": "uint256"
        }
      ],
      "name": "liquidateLoan",
      "outputs": [],
      "stateMutability": "payable",
      "type": "function"
    },
    {
      "inputs": [],
      "name": "owner",
      "outputs": [
        {
          "internalType": "address",
          "name": "",
          "type": "address"
        }
      ],
      "stateMutability": "view",
      "type": "function"
    },
    {
      "inputs": [
        {
          "internalType": "bytes32",
          "name": "_asset",
          "type": "bytes32"
        },
        {
          "internalType": "uint256",
          "name": "_exactERC20AmountIn",
          "type": "uint256"
        },
        {
          "internalType": "uint256",
          "name": "_minAvaxAmountOut",
          "type": "uint256"
        }
      ],
      "name": "redeem",
      "outputs": [],
      "stateMutability": "nonpayable",
      "type": "function"
    },
    {
      "inputs": [],
      "name": "renounceOwnership",
      "outputs": [],
      "stateMutability": "nonpayable",
      "type": "function"
    },
    {
      "inputs": [
        {
          "internalType": "uint256",
          "name": "_amount",
          "type": "uint256"
        }
      ],
      "name": "repay",
      "outputs": [],
      "stateMutability": "payable",
      "type": "function"
    },
    {
      "inputs": [
        {
          "internalType": "address",
          "name": "newOwner",
          "type": "address"
        }
      ],
      "name": "transferOwnership",
      "outputs": [],
      "stateMutability": "nonpayable",
      "type": "function"
    },
    {
      "inputs": [
        {
          "internalType": "uint256",
          "name": "_amount",
          "type": "uint256"
        }
      ],
      "name": "withdraw",
      "outputs": [],
      "stateMutability": "nonpayable",
      "type": "function"
    },
    {
      "inputs": [
        {
          "internalType": "bytes32",
          "name": "asset",
          "type": "bytes32"
        },
        {
          "internalType": "uint256",
          "name": "amount",
          "type": "uint256"
        }
      ],
      "name": "withdrawAsset",
      "outputs": [],
      "stateMutability": "nonpayable",
      "type": "function"
    },
    {
      "stateMutability": "payable",
      "type": "receive"
    }
  ],
  "bytecode": "0x608060405260008060006101000a81548160ff02191690831515021790555034801561002a57600080fd5b506153d28061003a6000396000f3fe6080604052600436106102085760003560e01c80637505820511610118578063c79d5ec5116100a0578063d44e282b1161006f578063d44e282b146106c2578063d5f47289146106ed578063f2fde38b14610718578063f31a210a14610741578063f807cd221461076c5761020f565b8063c79d5ec514610615578063caa648b414610652578063ccdd9f5d1461067d578063d2b29d70146106995761020f565b80639ee90e0d116100e75780639ee90e0d14610561578063a935310f1461058c578063b5dbd7f0146105b7578063b60d4288146105e2578063c5ebeaec146105ec5761020f565b806375058205146104b95780638129fc1c146104f65780638a027cb31461050d5780638da5cb5b146105365761020f565b8063371fd8e61161019b57806352154a261161016a57806352154a26146103f657806359aa9e72146104215780635ce239501461044c5780636b6c92d914610477578063715018a6146104a25761020f565b8063371fd8e6146103595780634ed2b8ac146103755780634fcaf08f146103a05780635118af5a146103cb5761020f565b806314a6bf0f116101d757806314a6bf0f146102d0578063232fa733146102fb5780632802fdc8146103055780632e1a7d4d146103305761020f565b8063026b1d5f1461021457806305d58c211461023f57806311c89b1014610268578063132e1d39146102a55761020f565b3661020f57005b600080fd5b34801561022057600080fd5b50610229610797565b6040516102369190614154565b60405180910390f35b34801561024b57600080fd5b506102666004803603810190610261919061395c565b6107b3565b005b34801561027457600080fd5b5061028f600480360381019061028a9190613864565b610909565b60405161029c919061405e565b60405180910390f35b3480156102b157600080fd5b506102ba610985565b6040516102c791906144af565b60405180910390f35b3480156102dc57600080fd5b506102e561098f565b6040516102f291906144af565b60405180910390f35b610303610a26565b005b34801561031157600080fd5b5061031a610e39565b6040516103279190613fdd565b60405180910390f35b34801561033c57600080fd5b50610357600480360381019061035291906139e7565b610e55565b005b610373600480360381019061036e91906139e7565b61102d565b005b34801561038157600080fd5b5061038a6111a8565b60405161039791906144af565b60405180910390f35b3480156103ac57600080fd5b506103b561121f565b6040516103c29190613fdd565b60405180910390f35b3480156103d757600080fd5b506103e061123b565b6040516103ed91906144af565b60405180910390f35b34801561040257600080fd5b5061040b611245565b60405161041891906144af565b60405180910390f35b34801561042d57600080fd5b5061043661124f565b60405161044391906144af565b60405180910390f35b34801561045857600080fd5b50610461611258565b60405161046e919061405e565b60405180910390f35b34801561048357600080fd5b5061048c611270565b604051610499919061403c565b60405180910390f35b3480156104ae57600080fd5b506104b761142b565b005b3480156104c557600080fd5b506104e060048036038101906104db91906139e7565b6114b3565b6040516104ed919061405e565b60405180910390f35b34801561050257600080fd5b5061050b61152f565b005b34801561051957600080fd5b50610534600480360381019061052f9190613998565b611626565b005b34801561054257600080fd5b5061054b6118b2565b6040516105589190613fdd565b60405180910390f35b34801561056d57600080fd5b506105766118dc565b60405161058391906144af565b60405180910390f35b34801561059857600080fd5b506105a16118eb565b6040516105ae919061403c565b60405180910390f35b3480156105c357600080fd5b506105cc61198a565b6040516105d991906144af565b60405180910390f35b6105ea611993565b005b3480156105f857600080fd5b50610613600480360381019061060e91906139e7565b6119e5565b005b34801561062157600080fd5b5061063c600480360381019061063791906138b6565b611b6d565b60405161064991906144af565b60405180910390f35b34801561065e57600080fd5b50610667611c94565b60405161067491906144af565b60405180910390f35b610697600480360381019061069291906139e7565b611fdf565b005b3480156106a557600080fd5b506106c060048036038101906106bb9190613998565b612259565b005b3480156106ce57600080fd5b506106d76124e3565b6040516106e49190614021565b60405180910390f35b3480156106f957600080fd5b5061070261253b565b60405161070f919061403c565b60405180910390f35b34801561072457600080fd5b5061073f600480360381019061073a9190613864565b61254a565b005b34801561074d57600080fd5b50610756612642565b60405161076391906144af565b60405180910390f35b34801561077857600080fd5b5061078161264b565b60405161078e9190614139565b60405180910390f35b6000735ff1de6091871adaae64e2ec4fed754628482868905090565b6107bb612667565b73ffffffffffffffffffffffffffffffffffffffff166107d96118b2565b73ffffffffffffffffffffffffffffffffffffffff161461082f576040517f08c379a00000000000000000000000000000000000000000000000000000000081526004016108269061438f565b60405180910390fd5b60026065541415610875576040517f08c379a000000000000000000000000000000000000000000000000000000000815260040161086c9061448f565b60405180910390fd5b600260658190555060006108888361266f565b90506108b533838373ffffffffffffffffffffffffffffffffffffffff166127139092919063ffffffff16565b506108be611258565b6108fd576040517f08c379a00000000000000000000000000000000000000000000000000000000081526004016108f4906143af565b60405180910390fd5b60016065819055505050565b6000610913610e39565b73ffffffffffffffffffffffffffffffffffffffff168273ffffffffffffffffffffffffffffffffffffffff16148061097e575061094f61121f565b73ffffffffffffffffffffffffffffffffffffffff168273ffffffffffffffffffffffffffffffffffffffff16145b9050919050565b60006103e8905090565b6000610999610797565b73ffffffffffffffffffffffffffffffffffffffff16636011163e306040518263ffffffff1660e01b81526004016109d19190613fdd565b60206040518083038186803b1580156109e957600080fd5b505afa1580156109fd573d6000803e3d6000fd5b505050506040513d601f19601f82011682018060405250810190610a219190613a10565b905090565b610a2e612667565b73ffffffffffffffffffffffffffffffffffffffff16610a4c6118b2565b73ffffffffffffffffffffffffffffffffffffffff1614610aa2576040517f08c379a0000000000000000000000000000000000000000000000000000000008152600401610a999061438f565b60405180910390fd5b60026065541415610ae8576040517f08c379a0000000000000000000000000000000000000000000000000000000008152600401610adf9061448f565b60405180910390fd5b60026065819055506000610afa61264b565b73ffffffffffffffffffffffffffffffffffffffff16632acada4d6040518163ffffffff1660e01b815260040160006040518083038186803b158015610b3f57600080fd5b505afa158015610b53573d6000803e3d6000fd5b505050506040513d6000823e3d601f19601f82011682018060405250810190610b7c91906138f2565b905060005b8151811015610cc9576000610bd5838381518110610bc8577f4e487b7100000000000000000000000000000000000000000000000000000000600052603260045260246000fd5b602002602001015161266f565b73ffffffffffffffffffffffffffffffffffffffff166370a08231306040518263ffffffff1660e01b8152600401610c0d9190613fdd565b60206040518083038186803b158015610c2557600080fd5b505afa158015610c39573d6000803e3d6000fd5b505050506040513d601f19601f82011682018060405250810190610c5d9190613a10565b90506000811115610cb557610cb4838381518110610ca4577f4e487b7100000000000000000000000000000000000000000000000000000000600052603260045260246000fd5b6020026020010151826000612849565b5b508080610cc190614a94565b915050610b81565b506000610cd461098f565b905080471015610d19576040517f08c379a0000000000000000000000000000000000000000000000000000000008152600401610d10906141cf565b60405180910390fd5b610d228161102d565b7f4acb957de3799dd3d95bb7da6bcfbca6f5a33812d69ad37816ed87e79b6327d6814742604051610d559392919061451c565b60405180910390a160004790506000811115610de557610d94813373ffffffffffffffffffffffffffffffffffffffff1661292590919063ffffffff16565b3373ffffffffffffffffffffffffffffffffffffffff167f92ccf450a286a957af52509bc1c9939d1a6a481783e142e41e2499f0bb66ebc68242604051610ddc9291906144f3565b60405180910390a25b505050610df0611258565b610e2f576040517f08c379a0000000000000000000000000000000000000000000000000000000008152600401610e26906143af565b60405180910390fd5b6001606581905550565b600073fe71e9691b9524bc932c23d0eed5c9ce41161884905090565b610e5d612667565b73ffffffffffffffffffffffffffffffffffffffff16610e7b6118b2565b73ffffffffffffffffffffffffffffffffffffffff1614610ed1576040517f08c379a0000000000000000000000000000000000000000000000000000000008152600401610ec89061438f565b60405180910390fd5b60026065541415610f17576040517f08c379a0000000000000000000000000000000000000000000000000000000008152600401610f0e9061448f565b60405180910390fd5b600260658190555080471015610f62576040517f08c379a0000000000000000000000000000000000000000000000000000000008152600401610f59906142ef565b60405180910390fd5b610f8b813373ffffffffffffffffffffffffffffffffffffffff1661292590919063ffffffff16565b3373ffffffffffffffffffffffffffffffffffffffff167f92ccf450a286a957af52509bc1c9939d1a6a481783e142e41e2499f0bb66ebc68242604051610fd39291906144f3565b60405180910390a2610fe3611258565b611022576040517f08c379a0000000000000000000000000000000000000000000000000000000008152600401611019906143af565b60405180910390fd5b600160658190555050565b611035611258565b801561105257506000151560008054906101000a900460ff161515145b156110975761105f6118b2565b73ffffffffffffffffffffffffffffffffffffffff163373ffffffffffffffffffffffffffffffffffffffff161461109657600080fd5b5b6110a8816110a361098f565b612a4b565b9050804710156110ed576040517f08c379a00000000000000000000000000000000000000000000000000000000081526004016110e4906141ef565b60405180910390fd5b6110f5610797565b73ffffffffffffffffffffffffffffffffffffffff1663402d8883826040518263ffffffff1660e01b81526004016000604051808303818588803b15801561113c57600080fd5b505af1158015611150573d6000803e3d6000fd5b50505050503373ffffffffffffffffffffffffffffffffffffffff167f1b8cd61ed43bec7c6bdad3a18ffee613f99c853d16c50678d248d879e1b43438824260405161119d9291906144f3565b60405180910390a250565b6000806111b361098f565b905060006111bf611c94565b905060008214156111d55760009250505061121c565b8082101561120f5781816111e99190614947565b6111f1610985565b836111fc91906148ed565b611206919061470f565b9250505061121c565b61121761198a565b925050505b90565b6000733befdd935b50f172e696a5187dbacfef0d208e48905090565b600061012c905090565b6000610fa0905090565b60006064905090565b600061126261198a565b61126a6111a8565b10905090565b6060600061127c61264b565b73ffffffffffffffffffffffffffffffffffffffff16632acada4d6040518163ffffffff1660e01b815260040160006040518083038186803b1580156112c157600080fd5b505afa1580156112d5573d6000803e3d6000fd5b505050506040513d6000823e3d601f19601f820116820180604052508101906112fe91906138f2565b90506000815167ffffffffffffffff811115611343577f4e487b7100000000000000000000000000000000000000000000000000000000600052604160045260246000fd5b6040519080825280602002602001820160405280156113715781602001602082028036833780820191505090505b50905060005b8251811015611422576113ca308483815181106113bd577f4e487b7100000000000000000000000000000000000000000000000000000000600052603260045260246000fd5b6020026020010151611b6d565b828281518110611403577f4e487b7100000000000000000000000000000000000000000000000000000000600052603260045260246000fd5b602002602001018181525050808061141a90614a94565b915050611377565b50809250505090565b611433612667565b73ffffffffffffffffffffffffffffffffffffffff166114516118b2565b73ffffffffffffffffffffffffffffffffffffffff16146114a7576040517f08c379a000000000000000000000000000000000000000000000000000000000815260040161149e9061438f565b60405180910390fd5b6114b16000612a64565b565b6000816114be61123b565b426114c991906146b9565b11611509576040517f08c379a00000000000000000000000000000000000000000000000000000000081526004016115009061440f565b60405180910390fd5b81421080611528575061151a612642565b82426115269190614947565b105b9050919050565b600060029054906101000a900460ff1661155957600060019054906101000a900460ff1615611562565b611561612b2a565b5b6115a1576040517f08c379a00000000000000000000000000000000000000000000000000000000081526004016115989061432f565b60405180910390fd5b60008060029054906101000a900460ff1615905080156115f2576001600060026101000a81548160ff0219169083151502179055506001600060016101000a81548160ff0219169083151502179055505b6115fa612b3b565b611602612b94565b80156116235760008060026101000a81548160ff0219169083151502179055505b50565b61162e612667565b73ffffffffffffffffffffffffffffffffffffffff1661164c6118b2565b73ffffffffffffffffffffffffffffffffffffffff16146116a2576040517f08c379a00000000000000000000000000000000000000000000000000000000081526004016116999061438f565b60405180910390fd5b600260655414156116e8576040517f08c379a00000000000000000000000000000000000000000000000000000000081526004016116df9061448f565b60405180910390fd5b600260658190555080471015611733576040517f08c379a000000000000000000000000000000000000000000000000000000000815260040161172a9061444f565b60405180910390fd5b600061173d61264b565b73ffffffffffffffffffffffffffffffffffffffff16635d8874e98386866040518463ffffffff1660e01b8152600401611778929190614094565b6020604051808303818588803b15801561179157600080fd5b505af11580156117a5573d6000803e3d6000fd5b50505050506040513d601f19601f820116820180604052508101906117ca9190613933565b90508061180c576040517f08c379a00000000000000000000000000000000000000000000000000000000081526004016118039061446f565b60405180910390fd5b833373ffffffffffffffffffffffffffffffffffffffff167f8c4f7b2f9ad7fde21c3ebf69d91938c2731761edd5820e45c17ea61d9c2ab90a85426040516118559291906144f3565b60405180910390a350611866611258565b6118a5576040517f08c379a000000000000000000000000000000000000000000000000000000000815260040161189c906143af565b60405180910390fd5b6001606581905550505050565b6000603360009054906101000a900473ffffffffffffffffffffffffffffffffffffffff16905090565b60006118e6611c94565b905090565b606060006118f761264b565b73ffffffffffffffffffffffffffffffffffffffff16632acada4d6040518163ffffffff1660e01b815260040160006040518083038186803b15801561193c57600080fd5b505afa158015611950573d6000803e3d6000fd5b505050506040513d6000823e3d601f19601f8201168201806040525081019061197991906138f2565b905061198481612bed565b91505090565b600060c8905090565b3373ffffffffffffffffffffffffffffffffffffffff167fcd909ec339185c4598a4096e174308fbdf136d117f230960f873a2f2e81f63af34426040516119db9291906144f3565b60405180910390a2565b6119ed612667565b73ffffffffffffffffffffffffffffffffffffffff16611a0b6118b2565b73ffffffffffffffffffffffffffffffffffffffff1614611a61576040517f08c379a0000000000000000000000000000000000000000000000000000000008152600401611a589061438f565b60405180910390fd5b611a69610797565b73ffffffffffffffffffffffffffffffffffffffff1663c5ebeaec826040518263ffffffff1660e01b8152600401611aa191906144af565b600060405180830381600087803b158015611abb57600080fd5b505af1158015611acf573d6000803e3d6000fd5b505050503373ffffffffffffffffffffffffffffffffffffffff167feae9cfbc77fdd40ca899f36b608256063b2bc9d8178b0220f7ad513e178d67308242604051611b1b9291906144f3565b60405180910390a2611b2b611258565b611b6a576040517f08c379a0000000000000000000000000000000000000000000000000000000008152600401611b61906143af565b60405180910390fd5b50565b600080611b7861264b565b73ffffffffffffffffffffffffffffffffffffffff166376d02895846040518263ffffffff1660e01b8152600401611bb09190614079565b60206040518083038186803b158015611bc857600080fd5b505afa158015611bdc573d6000803e3d6000fd5b505050506040513d601f19601f82011682018060405250810190611c00919061388d565b90508073ffffffffffffffffffffffffffffffffffffffff166370a08231856040518263ffffffff1660e01b8152600401611c3b9190613fdd565b60206040518083038186803b158015611c5357600080fd5b505afa158015611c67573d6000803e3d6000fd5b505050506040513d601f19601f82011682018060405250810190611c8b9190613a10565b91505092915050565b6000804790506000611ca461264b565b73ffffffffffffffffffffffffffffffffffffffff16632acada4d6040518163ffffffff1660e01b815260040160006040518083038186803b158015611ce957600080fd5b505afa158015611cfd573d6000803e3d6000fd5b505050506040513d6000823e3d601f19601f82011682018060405250810190611d2691906138f2565b90506000611d3382612bed565b9050600081600081518110611d71577f4e487b7100000000000000000000000000000000000000000000000000000000600052603260045260246000fd5b602002602001015190506000811415611dbf576040517f08c379a0000000000000000000000000000000000000000000000000000000008152600401611db69061426f565b60405180910390fd5b6000600190505b8251811015611fd4576000838281518110611e0a577f4e487b7100000000000000000000000000000000000000000000000000000000600052603260045260246000fd5b60200260200101511415611e53576040517f08c379a0000000000000000000000000000000000000000000000000000000008152600401611e4a9061430f565b60405180910390fd5b6000848281518110611e8e577f4e487b7100000000000000000000000000000000000000000000000000000000600052603260045260246000fd5b602002602001015190506000611ea38261266f565b90506000611eb13084611b6d565b90508173ffffffffffffffffffffffffffffffffffffffff1663313ce5676040518163ffffffff1660e01b815260040160206040518083038186803b158015611ef957600080fd5b505afa158015611f0d573d6000803e3d6000fd5b505050506040513d601f19601f82011682018060405250810190611f319190613a39565b600a611f3d9190614793565b85611f4891906148ed565b81670de0b6b3a7640000888781518110611f8b577f4e487b7100000000000000000000000000000000000000000000000000000000600052603260045260246000fd5b6020026020010151611f9d91906148ed565b611fa791906148ed565b611fb1919061470f565b88611fbc91906146b9565b97505050508080611fcc90614a94565b915050611dc6565b508394505050505090565b60026065541415612025576040517f08c379a000000000000000000000000000000000000000000000000000000000815260040161201c9061448f565b60405180910390fd5b6002606581905550612035611258565b15612075576040517f08c379a000000000000000000000000000000000000000000000000000000000815260040161206c906142af565b60405180910390fd5b60016000806101000a81548160ff021916908315150217905550600061209961098f565b9050808211156120a7578091505b60006120b1610985565b6120b961124f565b846120c491906148ed565b6120ce919061470f565b9050600081846120de91906146b9565b90506120e981612d55565b6120f284612e68565b6120fb82612e7d565b3373ffffffffffffffffffffffffffffffffffffffff167f7abe212d4944ae75cf0a0477af92aa0db98c15aaf21d06c37c97c641427b8eb3858461213d6111a8565b4260405161214e9493929190614553565b60405180910390a250505060006121636111a8565b905061216d6118b2565b73ffffffffffffffffffffffffffffffffffffffff163373ffffffffffffffffffffffffffffffffffffffff16146121ea576121a7611245565b8110156121e9576040517f08c379a00000000000000000000000000000000000000000000000000000000081526004016121e09061436f565b60405180910390fd5b5b6121f261198a565b8110612233576040517f08c379a000000000000000000000000000000000000000000000000000000000815260040161222a9061424f565b60405180910390fd5b60008060006101000a81548160ff02191690831515021790555050600160658190555050565b6002606554141561229f576040517f08c379a00000000000000000000000000000000000000000000000000000000081526004016122969061448f565b60405180910390fd5b60026065819055506122af612667565b73ffffffffffffffffffffffffffffffffffffffff166122cd6118b2565b73ffffffffffffffffffffffffffffffffffffffff1614612323576040517f08c379a000000000000000000000000000000000000000000000000000000000815260040161231a9061438f565b60405180910390fd5b600061232e8461266f565b905061236261233b61264b565b848373ffffffffffffffffffffffffffffffffffffffff166127139092919063ffffffff16565b600061236c61264b565b73ffffffffffffffffffffffffffffffffffffffff166348eedd6b8686866040518463ffffffff1660e01b81526004016123a8939291906140bd565b602060405180830381600087803b1580156123c257600080fd5b505af11580156123d6573d6000803e3d6000fd5b505050506040513d601f19601f820116820180604052508101906123fa9190613933565b90508061243c576040517f08c379a0000000000000000000000000000000000000000000000000000000008152600401612433906143cf565b60405180910390fd5b843373ffffffffffffffffffffffffffffffffffffffff167fc95bd7ebbed9b9c3e9477753bcb60d02b328f1e5bce8b1a25986d6c73991c18286426040516124859291906144f3565b60405180910390a35050612497611258565b6124d6576040517f08c379a00000000000000000000000000000000000000000000000000000000081526004016124cd906143af565b60405180910390fd5b6001606581905550505050565b6124eb613704565b60405180608001604052806124fe611c94565b815260200161250b61098f565b81526020016125186111a8565b8152602001612525611258565b612530576000612533565b60015b815250905090565b60606125456118eb565b905090565b612552612667565b73ffffffffffffffffffffffffffffffffffffffff166125706118b2565b73ffffffffffffffffffffffffffffffffffffffff16146125c6576040517f08c379a00000000000000000000000000000000000000000000000000000000081526004016125bd9061438f565b60405180910390fd5b600073ffffffffffffffffffffffffffffffffffffffff168173ffffffffffffffffffffffffffffffffffffffff161415612636576040517f08c379a000000000000000000000000000000000000000000000000000000000815260040161262d9061420f565b60405180910390fd5b61263f81612a64565b50565b600060b4905090565b6000730278438423f433e277f65d14c0e002b8828702ba905090565b600033905090565b60008061267a61264b565b73ffffffffffffffffffffffffffffffffffffffff166376d02895846040518263ffffffff1660e01b81526004016126b29190614079565b60206040518083038186803b1580156126ca57600080fd5b505afa1580156126de573d6000803e3d6000fd5b505050506040513d601f19601f82011682018060405250810190612702919061388d565b905060008190508092505050919050565b6000808473ffffffffffffffffffffffffffffffffffffffff1663a9059cbb8585604051602401612745929190613ff8565b6040516020818303038152906040529060e01b6020820180517bffffffffffffffffffffffffffffffffffffffffffffffffffffffff83818316178352505050506040516127939190613fa0565b6000604051808303816000865af19150503d80600081146127d0576040519150601f19603f3d011682016040523d82523d6000602084013e6127d5565b606091505b509150915081801561280357506000815114806128025750808060200190518101906128019190613933565b5b5b612842576040517f08c379a00000000000000000000000000000000000000000000000000000000081526004016128399061442f565b60405180910390fd5b5050505050565b60006128548461266f565b905061288861286161264b565b848373ffffffffffffffffffffffffffffffffffffffff166127139092919063ffffffff16565b61289061264b565b73ffffffffffffffffffffffffffffffffffffffff166348eedd6b8585856040518463ffffffff1660e01b81526004016128cc939291906140bd565b602060405180830381600087803b1580156128e657600080fd5b505af11580156128fa573d6000803e3d6000fd5b505050506040513d601f19601f8201168201806040525081019061291e9190613933565b5050505050565b60008273ffffffffffffffffffffffffffffffffffffffff1682600067ffffffffffffffff811115612980577f4e487b7100000000000000000000000000000000000000000000000000000000600052604160045260246000fd5b6040519080825280601f01601f1916602001820160405280156129b25781602001600182028036833780820191505090505b506040516129c09190613fa0565b60006040518083038185875af1925050503d80600081146129fd576040519150601f19603f3d011682016040523d82523d6000602084013e612a02565b606091505b5050905080612a46576040517f08c379a0000000000000000000000000000000000000000000000000000000008152600401612a3d9061428f565b60405180910390fd5b505050565b6000818310612a5a5781612a5c565b825b905092915050565b6000603360009054906101000a900473ffffffffffffffffffffffffffffffffffffffff16905081603360006101000a81548173ffffffffffffffffffffffffffffffffffffffff021916908373ffffffffffffffffffffffffffffffffffffffff1602179055508173ffffffffffffffffffffffffffffffffffffffff168173ffffffffffffffffffffffffffffffffffffffff167f8be0079c531659141344cd1fd0a4f28419497f9722a3daafe3b4186f6b6457e060405160405180910390a35050565b6000612b3530612eb2565b15905090565b600060029054906101000a900460ff16612b8a576040517f08c379a0000000000000000000000000000000000000000000000000000000008152600401612b81906143ef565b60405180910390fd5b612b92612ed5565b565b600060029054906101000a900460ff16612be3576040517f08c379a0000000000000000000000000000000000000000000000000000000008152600401612bda906143ef565b60405180910390fd5b612beb612f36565b565b60606000606136033590506000602060408360ff16612c0c91906148b1565b612c169190614681565b90506060604051905081815281604283013603602083013760208101604052600081805190602001209050600081604051602001612c549190613fb7565b604051602081830303815290604052805190602001209050606060405190506041815260418036036020830137602081016040526000612c9d8284612f8f90919063ffffffff16565b9050612ca881610909565b612ce7576040517f08c379a0000000000000000000000000000000000000000000000000000000008152600401612cde9061422f565b60405180910390fd5b600060623603359050612cf9816114b3565b612d38576040517f08c379a0000000000000000000000000000000000000000000000000000000008152600401612d2f906141af565b60405180910390fd5b612d468a8960ff1689612fb6565b98505050505050505050919050565b6000612d5f61264b565b73ffffffffffffffffffffffffffffffffffffffff16632acada4d6040518163ffffffff1660e01b815260040160006040518083038186803b158015612da457600080fd5b505afa158015612db8573d6000803e3d6000fd5b505050506040513d6000823e3d601f19601f82011682018060405250810190612de191906138f2565b905060005b8151811015612e6357824710612dfb57612e63565b612e50828281518110612e37577f4e487b7100000000000000000000000000000000000000000000000000000000600052603260045260246000fd5b60200260200101514785612e4b9190614947565b61305c565b8080612e5b90614a94565b915050612de6565b505050565b612e7a612e754783612a4b565b61102d565b50565b612eaf612e8a8247612a4b565b3373ffffffffffffffffffffffffffffffffffffffff1661292590919063ffffffff16565b50565b6000808273ffffffffffffffffffffffffffffffffffffffff163b119050919050565b600060029054906101000a900460ff16612f24576040517f08c379a0000000000000000000000000000000000000000000000000000000008152600401612f1b906143ef565b60405180910390fd5b612f34612f2f612667565b612a64565b565b600060029054906101000a900460ff16612f85576040517f08c379a0000000000000000000000000000000000000000000000000000000008152600401612f7c906143ef565b60405180910390fd5b6001606581905550565b6000806000612f9e85856131c4565b91509150612fab81613247565b819250505092915050565b6060806000806000806042870136035995508951865260208a51026020870101604052600094505b8885101561304c57604085028101359150600093505b895184101561304157816020850260208c01015114156130295760206040860282010135602085026020880101526001830192505b8951831415613036578894505b600184019350612ff4565b600185019450612fde565b5084955050505050509392505050565b60006130678361266f565b905060008173ffffffffffffffffffffffffffffffffffffffff166370a08231306040518263ffffffff1660e01b81526004016130a49190613fdd565b60206040518083038186803b1580156130bc57600080fd5b505afa1580156130d0573d6000803e3d6000fd5b505050506040513d601f19601f820116820180604052508101906130f49190613a10565b905060008111156131be57600061310961264b565b73ffffffffffffffffffffffffffffffffffffffff16639ac34dd385856040518363ffffffff1660e01b81526004016131439291906144ca565b602060405180830381600087803b15801561315d57600080fd5b505af1158015613171573d6000803e3d6000fd5b505050506040513d601f19601f820116820180604052508101906131959190613a10565b9050808210156131b0576131ab85836000612849565b6131bc565b6131bb858286612849565b5b505b50505050565b6000806041835114156132065760008060006020860151925060408601519150606086015160001a90506131fa87828585613598565b94509450505050613240565b60408351141561323757600080602085015191506040850151905061322c8683836136a5565b935093505050613240565b60006002915091505b9250929050565b60006004811115613281577f4e487b7100000000000000000000000000000000000000000000000000000000600052602160045260246000fd5b8160048111156132ba577f4e487b7100000000000000000000000000000000000000000000000000000000600052602160045260246000fd5b14156132c557613595565b600160048111156132ff577f4e487b7100000000000000000000000000000000000000000000000000000000600052602160045260246000fd5b816004811115613338577f4e487b7100000000000000000000000000000000000000000000000000000000600052602160045260246000fd5b1415613379576040517f08c379a00000000000000000000000000000000000000000000000000000000081526004016133709061416f565b60405180910390fd5b600260048111156133b3577f4e487b7100000000000000000000000000000000000000000000000000000000600052602160045260246000fd5b8160048111156133ec577f4e487b7100000000000000000000000000000000000000000000000000000000600052602160045260246000fd5b141561342d576040517f08c379a00000000000000000000000000000000000000000000000000000000081526004016134249061418f565b60405180910390fd5b60036004811115613467577f4e487b7100000000000000000000000000000000000000000000000000000000600052602160045260246000fd5b8160048111156134a0577f4e487b7100000000000000000000000000000000000000000000000000000000600052602160045260246000fd5b14156134e1576040517f08c379a00000000000000000000000000000000000000000000000000000000081526004016134d8906142cf565b60405180910390fd5b60048081111561351a577f4e487b7100000000000000000000000000000000000000000000000000000000600052602160045260246000fd5b816004811115613553577f4e487b7100000000000000000000000000000000000000000000000000000000600052602160045260246000fd5b1415613594576040517f08c379a000000000000000000000000000000000000000000000000000000000815260040161358b9061434f565b60405180910390fd5b5b50565b6000807f7fffffffffffffffffffffffffffffff5d576e7357a4501ddfe92f46681b20a08360001c11156135d357600060039150915061369c565b601b8560ff16141580156135eb5750601c8560ff1614155b156135fd57600060049150915061369c565b60006001878787876040516000815260200160405260405161362294939291906140f4565b6020604051602081039080840390855afa158015613644573d6000803e3d6000fd5b505050602060405103519050600073ffffffffffffffffffffffffffffffffffffffff168173ffffffffffffffffffffffffffffffffffffffff1614156136935760006001925092505061369c565b80600092509250505b94509492505050565b60008060007f7fffffffffffffffffffffffffffffffffffffffffffffffffffffffffffffff60001b841690506000601b60ff8660001c901c6136e891906146b9565b90506136f687828885613598565b935093505050935093915050565b6040518060800160405280600490602082028036833780820191505090505090565b6000613739613734846145bd565b614598565b9050808382526020820190508285602086028201111561375857600080fd5b60005b85811015613788578161376e8882613810565b84526020840193506020830192505060018101905061375b565b5050509392505050565b6000813590506137a181615329565b92915050565b6000815190506137b681615329565b92915050565b600082601f8301126137cd57600080fd5b81516137dd848260208601613726565b91505092915050565b6000815190506137f581615340565b92915050565b60008135905061380a81615357565b92915050565b60008151905061381f81615357565b92915050565b6000813590506138348161536e565b92915050565b6000815190506138498161536e565b92915050565b60008151905061385e81615385565b92915050565b60006020828403121561387657600080fd5b600061388484828501613792565b91505092915050565b60006020828403121561389f57600080fd5b60006138ad848285016137a7565b91505092915050565b600080604083850312156138c957600080fd5b60006138d785828601613792565b92505060206138e8858286016137fb565b9150509250929050565b60006020828403121561390457600080fd5b600082015167ffffffffffffffff81111561391e57600080fd5b61392a848285016137bc565b91505092915050565b60006020828403121561394557600080fd5b6000613953848285016137e6565b91505092915050565b6000806040838503121561396f57600080fd5b600061397d858286016137fb565b925050602061398e85828601613825565b9150509250929050565b6000806000606084860312156139ad57600080fd5b60006139bb868287016137fb565b93505060206139cc86828701613825565b92505060406139dd86828701613825565b9150509250925092565b6000602082840312156139f957600080fd5b6000613a0784828501613825565b91505092915050565b600060208284031215613a2257600080fd5b6000613a308482850161383a565b91505092915050565b600060208284031215613a4b57600080fd5b6000613a598482850161384f565b91505092915050565b6000613a6e8383613f73565b60208301905092915050565b613a838161497b565b82525050565b613a9281614603565b613a9c818461463e565b9250613aa7826145e9565b8060005b83811015613ad8578151613abf8782613a62565b9650613aca83614624565b925050600181019050613aab565b505050505050565b6000613aeb8261460e565b613af58185614649565b9350613b00836145f3565b8060005b83811015613b31578151613b188882613a62565b9750613b2383614631565b925050600181019050613b04565b5085935050505092915050565b613b478161498d565b82525050565b613b5681614999565b82525050565b613b6d613b6882614999565b614add565b82525050565b6000613b7e82614619565b613b88818561465a565b9350613b98818560208601614a30565b80840191505092915050565b613bad816149e8565b82525050565b613bbc81614a0c565b82525050565b6000613bcf601883614665565b9150613bda82614b92565b602082019050919050565b6000613bf2601f83614665565b9150613bfd82614bbb565b602082019050919050565b6000613c15601c83614676565b9150613c2082614be4565b601c82019050919050565b6000613c38601983614665565b9150613c4382614c0d565b602082019050919050565b6000613c5b604583614665565b9150613c6682614c36565b606082019050919050565b6000613c7e602b83614665565b9150613c8982614cab565b604082019050919050565b6000613ca1602683614665565b9150613cac82614cfa565b604082019050919050565b6000613cc4601583614665565b9150613ccf82614d49565b602082019050919050565b6000613ce7604c83614665565b9150613cf282614d72565b606082019050919050565b6000613d0a602783614665565b9150613d1582614de7565b604082019050919050565b6000613d2d603483614665565b9150613d3882614e36565b604082019050919050565b6000613d50602083614665565b9150613d5b82614e85565b602082019050919050565b6000613d73602283614665565b9150613d7e82614eae565b604082019050919050565b6000613d96602583614665565b9150613da182614efd565b604082019050919050565b6000613db9602883614665565b9150613dc482614f4c565b604082019050919050565b6000613ddc602e83614665565b9150613de782614f9b565b604082019050919050565b6000613dff602283614665565b9150613e0a82614fea565b604082019050919050565b6000613e22609283614665565b9150613e2d82615039565b60a082019050919050565b6000613e45602083614665565b9150613e50826150fa565b602082019050919050565b6000613e68603383614665565b9150613e7382615123565b604082019050919050565b6000613e8b601183614665565b9150613e9682615172565b602082019050919050565b6000613eae602b83614665565b9150613eb98261519b565b604082019050919050565b6000613ed1602a83614665565b9150613edc826151ea565b604082019050919050565b6000613ef4602d83614665565b9150613eff82615239565b604082019050919050565b6000613f17603483614665565b9150613f2282615288565b604082019050919050565b6000613f3a601183614665565b9150613f45826152d7565b602082019050919050565b6000613f5d601f83614665565b9150613f6882615300565b602082019050919050565b613f7c816149d1565b82525050565b613f8b816149d1565b82525050565b613f9a816149db565b82525050565b6000613fac8284613b73565b915081905092915050565b6000613fc282613c08565b9150613fce8284613b5c565b60208201915081905092915050565b6000602082019050613ff26000830184613a7a565b92915050565b600060408201905061400d6000830185613a7a565b61401a6020830184613f82565b9392505050565b60006080820190506140366000830184613a89565b92915050565b600060208201905081810360008301526140568184613ae0565b905092915050565b60006020820190506140736000830184613b3e565b92915050565b600060208201905061408e6000830184613b4d565b92915050565b60006040820190506140a96000830185613b4d565b6140b66020830184613f82565b9392505050565b60006060820190506140d26000830186613b4d565b6140df6020830185613f82565b6140ec6040830184613f82565b949350505050565b60006080820190506141096000830187613b4d565b6141166020830186613f91565b6141236040830185613b4d565b6141306060830184613b4d565b95945050505050565b600060208201905061414e6000830184613ba4565b92915050565b60006020820190506141696000830184613bb3565b92915050565b6000602082019050818103600083015261418881613bc2565b9050919050565b600060208201905081810360008301526141a881613be5565b9050919050565b600060208201905081810360008301526141c881613c2b565b9050919050565b600060208201905081810360008301526141e881613c4e565b9050919050565b6000602082019050818103600083015261420881613c71565b9050919050565b6000602082019050818103600083015261422881613c94565b9050919050565b6000602082019050818103600083015261424881613cb7565b9050919050565b6000602082019050818103600083015261426881613cda565b9050919050565b6000602082019050818103600083015261428881613cfd565b9050919050565b600060208201905081810360008301526142a881613d20565b9050919050565b600060208201905081810360008301526142c881613d43565b9050919050565b600060208201905081810360008301526142e881613d66565b9050919050565b6000602082019050818103600083015261430881613d89565b9050919050565b6000602082019050818103600083015261432881613dac565b9050919050565b6000602082019050818103600083015261434881613dcf565b9050919050565b6000602082019050818103600083015261436881613df2565b9050919050565b6000602082019050818103600083015261438881613e15565b9050919050565b600060208201905081810360008301526143a881613e38565b9050919050565b600060208201905081810360008301526143c881613e5b565b9050919050565b600060208201905081810360008301526143e881613e7e565b9050919050565b6000602082019050818103600083015261440881613ea1565b9050919050565b6000602082019050818103600083015261442881613ec4565b9050919050565b6000602082019050818103600083015261444881613ee7565b9050919050565b6000602082019050818103600083015261446881613f0a565b9050919050565b6000602082019050818103600083015261448881613f2d565b9050919050565b600060208201905081810360008301526144a881613f50565b9050919050565b60006020820190506144c46000830184613f82565b92915050565b60006040820190506144df6000830185613f82565b6144ec6020830184613a7a565b9392505050565b60006040820190506145086000830185613f82565b6145156020830184613f82565b9392505050565b60006060820190506145316000830186613f82565b61453e6020830185613f82565b61454b6040830184613f82565b949350505050565b60006080820190506145686000830187613f82565b6145756020830186613f82565b6145826040830185613f82565b61458f6060830184613f82565b95945050505050565b60006145a26145b3565b90506145ae8282614a63565b919050565b6000604051905090565b600067ffffffffffffffff8211156145d8576145d7614b45565b5b602082029050602081019050919050565b6000819050919050565b6000819050602082019050919050565b600060049050919050565b600081519050919050565b600081519050919050565b6000602082019050919050565b6000602082019050919050565b600081905092915050565b600082825260208201905092915050565b600081905092915050565b600082825260208201905092915050565b600081905092915050565b600061468c826149a3565b9150614697836149a3565b92508261ffff038211156146ae576146ad614ae7565b5b828201905092915050565b60006146c4826149d1565b91506146cf836149d1565b9250827fffffffffffffffffffffffffffffffffffffffffffffffffffffffffffffffff0382111561470457614703614ae7565b5b828201905092915050565b600061471a826149d1565b9150614725836149d1565b92508261473557614734614b16565b5b828204905092915050565b6000808291508390505b600185111561478a5780860481111561476657614765614ae7565b5b60018516156147755780820291505b808102905061478385614b85565b945061474a565b94509492505050565b600061479e826149d1565b91506147a9836149db565b92506147d67fffffffffffffffffffffffffffffffffffffffffffffffffffffffffffffffff84846147de565b905092915050565b6000826147ee57600190506148aa565b816147fc57600090506148aa565b8160018114614812576002811461481c5761484b565b60019150506148aa565b60ff84111561482e5761482d614ae7565b5b8360020a91508482111561484557614844614ae7565b5b506148aa565b5060208310610133831016604e8410600b84101617156148805782820a90508381111561487b5761487a614ae7565b5b6148aa565b61488d8484846001614740565b925090508184048111156148a4576148a3614ae7565b5b81810290505b9392505050565b60006148bc826149a3565b91506148c7836149a3565b92508161ffff04831182151516156148e2576148e1614ae7565b5b828202905092915050565b60006148f8826149d1565b9150614903836149d1565b9250817fffffffffffffffffffffffffffffffffffffffffffffffffffffffffffffffff048311821515161561493c5761493b614ae7565b5b828202905092915050565b6000614952826149d1565b915061495d836149d1565b9250828210156149705761496f614ae7565b5b828203905092915050565b6000614986826149b1565b9050919050565b60008115159050919050565b6000819050919050565b600061ffff82169050919050565b600073ffffffffffffffffffffffffffffffffffffffff82169050919050565b6000819050919050565b600060ff82169050919050565b60006149f3826149fa565b9050919050565b6000614a05826149b1565b9050919050565b6000614a1782614a1e565b9050919050565b6000614a29826149b1565b9050919050565b60005b83811015614a4e578082015181840152602081019050614a33565b83811115614a5d576000848401525b50505050565b614a6c82614b74565b810181811067ffffffffffffffff82111715614a8b57614a8a614b45565b5b80604052505050565b6000614a9f826149d1565b91507fffffffffffffffffffffffffffffffffffffffffffffffffffffffffffffffff821415614ad257614ad1614ae7565b5b600182019050919050565b6000819050919050565b7f4e487b7100000000000000000000000000000000000000000000000000000000600052601160045260246000fd5b7f4e487b7100000000000000000000000000000000000000000000000000000000600052601260045260246000fd5b7f4e487b7100000000000000000000000000000000000000000000000000000000600052604160045260246000fd5b6000601f19601f8301169050919050565b60008160011c9050919050565b7f45434453413a20696e76616c6964207369676e61747572650000000000000000600082015250565b7f45434453413a20696e76616c6964207369676e6174757265206c656e67746800600082015250565b7f19457468657265756d205369676e6564204d6573736167653a0a333200000000600082015250565b7f446174612074696d657374616d7020697320696e76616c696400000000000000600082015250565b7f53656c6c696e67206f757420616c6c2061737365747320776974686f7574207260008201527f65706179696e67207468652077686f6c652064656274206973206e6f7420616c60208201527f6c6f776564000000000000000000000000000000000000000000000000000000604082015250565b7f5468657265206973206e6f7420656e6f7567682066756e647320746f2072657060008201527f617920746865206c6f616e000000000000000000000000000000000000000000602082015250565b7f4f776e61626c653a206e6577206f776e657220697320746865207a65726f206160008201527f6464726573730000000000000000000000000000000000000000000000000000602082015250565b7f5369676e6572206e6f7420617574686f72697a65640000000000000000000000600082015250565b7f54686973206f7065726174696f6e20776f756c64206e6f7420726573756c742060008201527f696e206272696e67696e6720746865206c6f616e206261636b20746f2061207360208201527f6f6c76656e742073746174650000000000000000000000000000000000000000604082015250565b7f417661782070726963652072657475726e65642066726f6d206f7261636c652060008201527f6973207a65726f00000000000000000000000000000000000000000000000000602082015250565b7f5472616e7366657248656c7065723a3a736166655472616e736665724554483a60008201527f20455448207472616e73666572206661696c6564000000000000000000000000602082015250565b7f43616e6e6f742073656c6c6f7574206120736f6c76656e74206163636f756e74600082015250565b7f45434453413a20696e76616c6964207369676e6174757265202773272076616c60008201527f7565000000000000000000000000000000000000000000000000000000000000602082015250565b7f5468657265206973206e6f7420656e6f7567682066756e647320746f2077697460008201527f6864726177000000000000000000000000000000000000000000000000000000602082015250565b7f41737365742070726963652072657475726e65642066726f6d206f7261636c6560008201527f206973207a65726f000000000000000000000000000000000000000000000000602082015250565b7f496e697469616c697a61626c653a20636f6e747261637420697320616c72656160008201527f647920696e697469616c697a6564000000000000000000000000000000000000602082015250565b7f45434453413a20696e76616c6964207369676e6174757265202776272076616c60008201527f7565000000000000000000000000000000000000000000000000000000000000602082015250565b7f54686973206f7065726174696f6e20776f756c6420726573756c7420696e206160008201527f206c6f616e2077697468204c5456206c6f776572207468616e204d696e696d6160208201527f6c2053656c6c6f7574204c545620776869636820776f756c6420707574206c6f60408201527f616e2773206f776e657220696e2061207269736b206f6620616e20756e6e656360608201527f6573736172696c792068696768206c6f73730000000000000000000000000000608082015250565b7f4f776e61626c653a2063616c6c6572206973206e6f7420746865206f776e6572600082015250565b7f54686520616374696f6e206d617920636175736520616e206163636f756e742060008201527f746f206265636f6d6520696e736f6c76656e7400000000000000000000000000602082015250565b7f526564656d7074696f6e206661696c6564000000000000000000000000000000600082015250565b7f496e697469616c697a61626c653a20636f6e7472616374206973206e6f74206960008201527f6e697469616c697a696e67000000000000000000000000000000000000000000602082015250565b7f446174612077697468206675747572652074696d657374616d7073206973206e60008201527f6f7420616c6c6f77656400000000000000000000000000000000000000000000602082015250565b7f5472616e7366657248656c7065723a3a736166655472616e736665723a20747260008201527f616e73666572206661696c656400000000000000000000000000000000000000602082015250565b7f4e6f7420656e6f7567682066756e64732061726520617661696c61626c65207460008201527f6f20696e7665737420696e20616e206173736574000000000000000000000000602082015250565b7f496e766573746d656e74206661696c6564000000000000000000000000000000600082015250565b7f5265656e7472616e637947756172643a207265656e7472616e742063616c6c00600082015250565b6153328161497b565b811461533d57600080fd5b50565b6153498161498d565b811461535457600080fd5b50565b61536081614999565b811461536b57600080fd5b50565b615377816149d1565b811461538257600080fd5b50565b61538e816149db565b811461539957600080fd5b5056fea2646970667358221220a12283ca076e5facb8b4ea6a333ac42cf9970f90e8e14c5e6e843426c13817e864736f6c63430008040033",
  "linkReferences": {},
  "deployedLinkReferences": {}
}