{
  "_format": "hh-sol-artifact-1",
  "contractName": "MockSmartLoansFactoryWithAccessNFT",
  "sourceName": "contracts/mock/MockSmartLoansFactoryWithAccessNFT.sol",
  "abi": [
    {
      "anonymous": false,
      "inputs": [
        {
          "indexed": true,
          "internalType": "address",
          "name": "previousOwner",
          "type": "address"
        },
        {
          "indexed": true,
          "internalType": "address",
          "name": "newOwner",
          "type": "address"
        }
      ],
      "name": "OwnershipTransferred",
      "type": "event"
    },
    {
      "anonymous": false,
      "inputs": [
        {
          "indexed": true,
          "internalType": "address",
          "name": "accountAddress",
          "type": "address"
        },
        {
          "indexed": true,
          "internalType": "address",
          "name": "creator",
          "type": "address"
        },
        {
          "indexed": false,
          "internalType": "uint256",
          "name": "initialCollateral",
          "type": "uint256"
        },
        {
          "indexed": false,
          "internalType": "uint256",
          "name": "initialDebt",
          "type": "uint256"
        }
      ],
      "name": "SmartLoanCreated",
      "type": "event"
    },
    {
      "inputs": [
        {
          "internalType": "address",
          "name": "_account",
          "type": "address"
        }
      ],
      "name": "canBorrow",
      "outputs": [
        {
          "internalType": "bool",
          "name": "",
          "type": "bool"
        }
      ],
      "stateMutability": "view",
      "type": "function"
    },
    {
      "inputs": [
        {
          "internalType": "uint256",
          "name": "_initialDebt",
          "type": "uint256"
        }
      ],
      "name": "createAndFundLoan",
      "outputs": [
        {
          "internalType": "contract SmartLoan",
          "name": "",
          "type": "address"
        }
      ],
      "stateMutability": "payable",
      "type": "function"
    },
    {
      "inputs": [],
      "name": "createLoan",
      "outputs": [
        {
          "internalType": "contract SmartLoan",
          "name": "",
          "type": "address"
        }
      ],
      "stateMutability": "nonpayable",
      "type": "function"
    },
    {
      "inputs": [],
      "name": "getAccessNFT",
      "outputs": [
        {
          "internalType": "contract ERC721",
          "name": "accessNFT",
          "type": "address"
        }
      ],
      "stateMutability": "view",
      "type": "function"
    },
    {
      "inputs": [],
      "name": "getAllLoans",
      "outputs": [
        {
          "internalType": "contract SmartLoan[]",
          "name": "",
          "type": "address[]"
        }
      ],
      "stateMutability": "view",
      "type": "function"
    },
    {
      "inputs": [
        {
          "internalType": "address",
          "name": "_user",
          "type": "address"
        }
      ],
      "name": "getLoanForOwner",
      "outputs": [
        {
          "internalType": "address",
          "name": "",
          "type": "address"
        }
      ],
      "stateMutability": "view",
      "type": "function"
    },
    {
      "inputs": [
        {
          "internalType": "address",
          "name": "_loan",
          "type": "address"
        }
      ],
      "name": "getOwnerOfLoan",
      "outputs": [
        {
          "internalType": "address",
          "name": "",
          "type": "address"
        }
      ],
      "stateMutability": "view",
      "type": "function"
    },
    {
      "inputs": [
        {
          "internalType": "contract SmartLoan",
          "name": "_smartLoanImplementation",
          "type": "address"
        }
      ],
      "name": "initialize",
      "outputs": [],
      "stateMutability": "nonpayable",
      "type": "function"
    },
    {
      "inputs": [
        {
          "internalType": "address",
          "name": "",
          "type": "address"
        }
      ],
      "name": "loansToOwners",
      "outputs": [
        {
          "internalType": "address",
          "name": "",
          "type": "address"
        }
      ],
      "stateMutability": "view",
      "type": "function"
    },
    {
      "inputs": [],
      "name": "owner",
      "outputs": [
        {
          "internalType": "address",
          "name": "",
          "type": "address"
        }
      ],
      "stateMutability": "view",
      "type": "function"
    },
    {
      "inputs": [
        {
          "internalType": "address",
          "name": "",
          "type": "address"
        }
      ],
      "name": "ownersToLoans",
      "outputs": [
        {
          "internalType": "address",
          "name": "",
          "type": "address"
        }
      ],
      "stateMutability": "view",
      "type": "function"
    },
    {
      "inputs": [],
      "name": "renounceOwnership",
      "outputs": [],
      "stateMutability": "nonpayable",
      "type": "function"
    },
    {
      "inputs": [
        {
          "internalType": "contract ERC721",
          "name": "nftAddress",
          "type": "address"
        }
      ],
      "name": "setAccessNFT",
      "outputs": [],
      "stateMutability": "nonpayable",
      "type": "function"
    },
    {
      "inputs": [
        {
          "internalType": "address",
          "name": "newOwner",
          "type": "address"
        }
      ],
      "name": "transferOwnership",
      "outputs": [],
      "stateMutability": "nonpayable",
      "type": "function"
    },
    {
      "inputs": [],
      "name": "upgradeableBeacon",
      "outputs": [
        {
          "internalType": "contract UpgradeableBeacon",
          "name": "",
          "type": "address"
        }
      ],
      "stateMutability": "view",
      "type": "function"
    }
  ],
  "bytecode": "0x608060405234801561001057600080fd5b5061432e806100206000396000f3fe608060405260043610620000fe5760003560e01c8063715018a61162000097578063d26095201162000061578063d2609520146200035d578063e3fcd8d1146200038d578063e78fd93114620003bd578063f2fde38b14620003f357620000fe565b8063715018a614620002b55780638da5cb5b14620002cf578063a5bfd16a14620002ff578063c4d66de8146200032f57620000fe565b8063357719ef11620000d9578063357719ef14620001cf578063429c9a5a14620002135780635b012546146200024157806365ec1a45146200028557620000fe565b80630e7fc86414620001035780631f278b7414620001475780633344a555146200018b575b600080fd5b3480156200011057600080fd5b506200012f600480360381019062000129919062001b78565b62000421565b6040516200013e919062001fe7565b60405180910390f35b3480156200015457600080fd5b506200017360048036038101906200016d919062001b78565b620004b9565b60405162000182919062001f72565b60405180910390f35b3480156200019857600080fd5b50620001b76004803603810190620001b1919062001b78565b620004ec565b604051620001c6919062001f72565b60405180910390f35b348015620001dc57600080fd5b50620001fb6004803603810190620001f5919062001b78565b62000555565b6040516200020a919062001f72565b60405180910390f35b3480156200022057600080fd5b506200023f600480360381019062000239919062001ba4565b62000588565b005b3480156200024e57600080fd5b506200026d600480360381019062000267919062001b78565b62000823565b6040516200027c919062001f72565b60405180910390f35b3480156200029257600080fd5b506200029d6200088c565b604051620002ac919062002021565b60405180910390f35b348015620002c257600080fd5b50620002cd620009e7565b005b348015620002dc57600080fd5b50620002e762000a78565b604051620002f6919062001f72565b60405180910390f35b3480156200030c57600080fd5b506200031762000aa2565b60405162000326919062001fc3565b60405180910390f35b3480156200033c57600080fd5b506200035b600480360381019062000355919062001bd0565b62000b32565b005b3480156200036a57600080fd5b506200037562000d34565b6040516200038491906200203e565b60405180910390f35b3480156200039a57600080fd5b50620003a562000d5a565b604051620003b4919062002004565b60405180910390f35b620003db6004803603810190620003d5919062001bfc565b62000d9c565b604051620003ea919062002021565b60405180910390f35b3480156200040057600080fd5b506200041f600480360381019062000419919062001b78565b62000efa565b005b60008073ffffffffffffffffffffffffffffffffffffffff16606760008473ffffffffffffffffffffffffffffffffffffffff1673ffffffffffffffffffffffffffffffffffffffff16815260200190815260200160002060009054906101000a900473ffffffffffffffffffffffffffffffffffffffff1673ffffffffffffffffffffffffffffffffffffffff1614159050919050565b60676020528060005260406000206000915054906101000a900473ffffffffffffffffffffffffffffffffffffffff1681565b6000606660008373ffffffffffffffffffffffffffffffffffffffff1673ffffffffffffffffffffffffffffffffffffffff16815260200190815260200160002060009054906101000a900473ffffffffffffffffffffffffffffffffffffffff169050919050565b60666020528060005260406000206000915054906101000a900473ffffffffffffffffffffffffffffffffffffffff1681565b6200059262000ffe565b73ffffffffffffffffffffffffffffffffffffffff16620005b262000a78565b73ffffffffffffffffffffffffffffffffffffffff16146200060b576040517f08c379a000000000000000000000000000000000000000000000000000000000815260040162000602906200214f565b60405180910390fd5b600073ffffffffffffffffffffffffffffffffffffffff168173ffffffffffffffffffffffffffffffffffffffff1614620007e3576200064b8162001006565b6200068d576040517f08c379a0000000000000000000000000000000000000000000000000000000008152600401620006849062002171565b60405180910390fd5b6000808273ffffffffffffffffffffffffffffffffffffffff1633604051602401620006ba919062001f72565b6040516020818303038152906040527f70a08231000000000000000000000000000000000000000000000000000000007bffffffffffffffffffffffffffffffffffffffffffffffffffffffff19166020820180517bffffffffffffffffffffffffffffffffffffffffffffffffffffffff838183161783525050505060405162000746919062001f59565b6000604051808303816000865af19150503d806000811462000785576040519150601f19603f3d011682016040523d82523d6000602084013e6200078a565b606091505b50915091508180156200079e575060008151115b620007e0576040517f08c379a0000000000000000000000000000000000000000000000000000000008152600401620007d790620020c7565b60405180910390fd5b50505b600060017f05df0919f17c81dab74a24e96f8e9fcaf2f7ae9ec785467bc9a30e698771439060001c62000817919062002314565b60001b90508181555050565b6000606760008373ffffffffffffffffffffffffffffffffffffffff1673ffffffffffffffffffffffffffffffffffffffff16815260200190815260200160002060009054906101000a900473ffffffffffffffffffffffffffffffffffffffff169050919050565b60008060017f05df0919f17c81dab74a24e96f8e9fcaf2f7ae9ec785467bc9a30e698771439060001c620008c1919062002314565b60001b9050600081549050600073ffffffffffffffffffffffffffffffffffffffff168173ffffffffffffffffffffffffffffffffffffffff1614620009d65760008173ffffffffffffffffffffffffffffffffffffffff166370a08231336040518263ffffffff1660e01b81526004016200093e919062001f72565b60206040518083038186803b1580156200095757600080fd5b505afa1580156200096c573d6000803e3d6000fd5b505050506040513d601f19601f8201168201806040525081019062000992919062001c28565b11620009d5576040517f08c379a0000000000000000000000000000000000000000000000000000000008152600401620009cc90620021b5565b60405180910390fd5b5b620009e062001029565b9250505090565b620009f162000ffe565b73ffffffffffffffffffffffffffffffffffffffff1662000a1162000a78565b73ffffffffffffffffffffffffffffffffffffffff161462000a6a576040517f08c379a000000000000000000000000000000000000000000000000000000000815260040162000a61906200214f565b60405180910390fd5b62000a766000620012c5565b565b6000603360009054906101000a900473ffffffffffffffffffffffffffffffffffffffff16905090565b6060606880548060200260200160405190810160405280929190818152602001828054801562000b2857602002820191906000526020600020905b8160009054906101000a900473ffffffffffffffffffffffffffffffffffffffff1673ffffffffffffffffffffffffffffffffffffffff168152602001906001019080831162000add575b5050505050905090565b600060019054906101000a900460ff1662000b5c5760008054906101000a900460ff161562000b67565b62000b666200138b565b5b62000ba9576040517f08c379a000000000000000000000000000000000000000000000000000000000815260040162000ba0906200210b565b60405180910390fd5b60008060019054906101000a900460ff16159050801562000bfa576001600060016101000a81548160ff02191690831515021790555060016000806101000a81548160ff0219169083151502179055505b8160405162000c099062001ae9565b62000c15919062001f72565b604051809103906000f08015801562000c32573d6000803e3d6000fd5b50606560006101000a81548173ffffffffffffffffffffffffffffffffffffffff021916908373ffffffffffffffffffffffffffffffffffffffff160217905550606560009054906101000a900473ffffffffffffffffffffffffffffffffffffffff1673ffffffffffffffffffffffffffffffffffffffff1663f2fde38b336040518263ffffffff1660e01b815260040162000cd0919062001f72565b600060405180830381600087803b15801562000ceb57600080fd5b505af115801562000d00573d6000803e3d6000fd5b5050505062000d0e6200139e565b801562000d305760008060016101000a81548160ff0219169083151502179055505b5050565b606560009054906101000a900473ffffffffffffffffffffffffffffffffffffffff1681565b60008060017f05df0919f17c81dab74a24e96f8e9fcaf2f7ae9ec785467bc9a30e698771439060001c62000d8f919062002314565b60001b9050805491505090565b60008060017f05df0919f17c81dab74a24e96f8e9fcaf2f7ae9ec785467bc9a30e698771439060001c62000dd1919062002314565b60001b9050600081549050600073ffffffffffffffffffffffffffffffffffffffff168173ffffffffffffffffffffffffffffffffffffffff161462000ee65760008173ffffffffffffffffffffffffffffffffffffffff166370a08231336040518263ffffffff1660e01b815260040162000e4e919062001f72565b60206040518083038186803b15801562000e6757600080fd5b505afa15801562000e7c573d6000803e3d6000fd5b505050506040513d601f19601f8201168201806040525081019062000ea2919062001c28565b1162000ee5576040517f08c379a000000000000000000000000000000000000000000000000000000000815260040162000edc90620021b5565b60405180910390fd5b5b62000ef184620013fc565b92505050919050565b62000f0462000ffe565b73ffffffffffffffffffffffffffffffffffffffff1662000f2462000a78565b73ffffffffffffffffffffffffffffffffffffffff161462000f7d576040517f08c379a000000000000000000000000000000000000000000000000000000000815260040162000f74906200214f565b60405180910390fd5b600073ffffffffffffffffffffffffffffffffffffffff168173ffffffffffffffffffffffffffffffffffffffff16141562000ff0576040517f08c379a000000000000000000000000000000000000000000000000000000000815260040162000fe790620020a5565b60405180910390fd5b62000ffb81620012c5565b50565b600033905090565b6000808273ffffffffffffffffffffffffffffffffffffffff163b119050919050565b60008073ffffffffffffffffffffffffffffffffffffffff16606660003373ffffffffffffffffffffffffffffffffffffffff1673ffffffffffffffffffffffffffffffffffffffff16815260200190815260200160002060009054906101000a900473ffffffffffffffffffffffffffffffffffffffff1673ffffffffffffffffffffffffffffffffffffffff1614620010fb576040517f08c379a0000000000000000000000000000000000000000000000000000000008152600401620010f290620020e9565b60405180910390fd5b6000606560009054906101000a900473ffffffffffffffffffffffffffffffffffffffff16638129fc1c60e01b60006040516024016200113c91906200205b565b604051602081830303815290604052907bffffffffffffffffffffffffffffffffffffffffffffffffffffffff19166020820180517bffffffffffffffffffffffffffffffffffffffffffffffffffffffff8381831617835250505050604051620011a79062001af7565b620011b492919062001f8f565b604051809103906000f080158015620011d1573d6000803e3d6000fd5b5090506000819050620011e48162001772565b8073ffffffffffffffffffffffffffffffffffffffff1663f2fde38b336040518263ffffffff1660e01b81526004016200121f919062001f72565b600060405180830381600087803b1580156200123a57600080fd5b505af11580156200124f573d6000803e3d6000fd5b505050503373ffffffffffffffffffffffffffffffffffffffff168173ffffffffffffffffffffffffffffffffffffffff167f74f440674c6106c61951acc831efcdce60effebf4fea0fdc74f0e5ad72f56a10600080604051620012b592919062002078565b60405180910390a3809250505090565b6000603360009054906101000a900473ffffffffffffffffffffffffffffffffffffffff16905081603360006101000a81548173ffffffffffffffffffffffffffffffffffffffff021916908373ffffffffffffffffffffffffffffffffffffffff1602179055508173ffffffffffffffffffffffffffffffffffffffff168173ffffffffffffffffffffffffffffffffffffffff167f8be0079c531659141344cd1fd0a4f28419497f9722a3daafe3b4186f6b6457e060405160405180910390a35050565b6000620013983062001006565b15905090565b600060019054906101000a900460ff16620013f0576040517f08c379a0000000000000000000000000000000000000000000000000000000008152600401620013e79062002193565b60405180910390fd5b620013fa620018d4565b565b60008073ffffffffffffffffffffffffffffffffffffffff16606660003373ffffffffffffffffffffffffffffffffffffffff1673ffffffffffffffffffffffffffffffffffffffff16815260200190815260200160002060009054906101000a900473ffffffffffffffffffffffffffffffffffffffff1673ffffffffffffffffffffffffffffffffffffffff1614620014ce576040517f08c379a0000000000000000000000000000000000000000000000000000000008152600401620014c590620020e9565b60405180910390fd5b6000606560009054906101000a900473ffffffffffffffffffffffffffffffffffffffff16638129fc1c60e01b604051602401604051602081830303815290604052907bffffffffffffffffffffffffffffffffffffffffffffffffffffffff19166020820180517bffffffffffffffffffffffffffffffffffffffffffffffffffffffff83818316178352505050506040516200156c9062001af7565b6200157992919062001f8f565b604051809103906000f08015801562001596573d6000803e3d6000fd5b5090506000819050620015a98162001772565b8073ffffffffffffffffffffffffffffffffffffffff1663b60d4288346040518263ffffffff1660e01b81526004016000604051808303818588803b158015620015f257600080fd5b505af115801562001607573d6000803e3d6000fd5b50505050506200168f8163c5ebeaec60e01b866040516024016200162c9190620021d7565b604051602081830303815290604052907bffffffffffffffffffffffffffffffffffffffffffffffffffffffff19166020820180517bffffffffffffffffffffffffffffffffffffffffffffffffffffffff83818316178352505050506200193c565b508073ffffffffffffffffffffffffffffffffffffffff1663f2fde38b336040518263ffffffff1660e01b8152600401620016cb919062001f72565b600060405180830381600087803b158015620016e657600080fd5b505af1158015620016fb573d6000803e3d6000fd5b505050503373ffffffffffffffffffffffffffffffffffffffff168173ffffffffffffffffffffffffffffffffffffffff167f74f440674c6106c61951acc831efcdce60effebf4fea0fdc74f0e5ad72f56a10348760405162001760929190620021f4565b60405180910390a38092505050919050565b80606660003373ffffffffffffffffffffffffffffffffffffffff1673ffffffffffffffffffffffffffffffffffffffff16815260200190815260200160002060006101000a81548173ffffffffffffffffffffffffffffffffffffffff021916908373ffffffffffffffffffffffffffffffffffffffff16021790555033606760008373ffffffffffffffffffffffffffffffffffffffff1673ffffffffffffffffffffffffffffffffffffffff16815260200190815260200160002060006101000a81548173ffffffffffffffffffffffffffffffffffffffff021916908373ffffffffffffffffffffffffffffffffffffffff1602179055506068819080600181540180825580915050600190039060005260206000200160009091909190916101000a81548173ffffffffffffffffffffffffffffffffffffffff021916908373ffffffffffffffffffffffffffffffffffffffff16021790555050565b600060019054906101000a900460ff1662001926576040517f08c379a00000000000000000000000000000000000000000000000000000000081526004016200191d9062002193565b60405180910390fd5b6200193a6200193462000ffe565b620012c5565b565b606060006200194b83620019d7565b90506000808573ffffffffffffffffffffffffffffffffffffffff168360405162001977919062001f59565b6000604051808303816000865af19150503d8060008114620019b6576040519150601f19603f3d011682016040523d82523d6000602084013e620019bb565b606091505b5091509150620019cc828262001a87565b935050505092915050565b6060600060613603359050600060416001602060408560ff16620019fc9190620022d1565b62001a08919062002292565b62001a14919062002292565b62001a20919062002292565b90506000845190506000606060405190508383018152600091505b8282101562001a6457816020028760200101518260200282602001015260018201915062001a3b565b838436038460200183013760208385018201016040528095505050505050919050565b60608262001ae05760008251111562001aa35781518083602001fd5b6040517f08c379a000000000000000000000000000000000000000000000000000000000815260040162001ad7906200212d565b60405180910390fd5b81905092915050565b610a9c806200280083390190565b61105d806200329c83390190565b60008135905062001b168162002797565b92915050565b60008135905062001b2d81620027b1565b92915050565b60008135905062001b4481620027cb565b92915050565b60008135905062001b5b81620027e5565b92915050565b60008151905062001b7281620027e5565b92915050565b60006020828403121562001b8b57600080fd5b600062001b9b8482850162001b05565b91505092915050565b60006020828403121562001bb757600080fd5b600062001bc78482850162001b1c565b91505092915050565b60006020828403121562001be357600080fd5b600062001bf38482850162001b33565b91505092915050565b60006020828403121562001c0f57600080fd5b600062001c1f8482850162001b4a565b91505092915050565b60006020828403121562001c3b57600080fd5b600062001c4b8482850162001b61565b91505092915050565b600062001c62838362001d94565b60208301905092915050565b62001c7981620023f0565b82525050565b62001c8a816200234f565b82525050565b600062001c9d8262002231565b62001ca9818562002254565b935062001cb68362002221565b8060005b8381101562001ced57815162001cd1888262001c54565b975062001cde8362002247565b92505060018101905062001cba565b5085935050505092915050565b62001d058162002377565b82525050565b600062001d18826200223c565b62001d24818562002265565b935062001d36818560208601620024cc565b62001d418162002531565b840191505092915050565b600062001d59826200223c565b62001d65818562002276565b935062001d77818560208601620024cc565b80840191505092915050565b62001d8e8162002404565b82525050565b62001d9f816200242c565b82525050565b62001db0816200242c565b82525050565b62001dc18162002454565b82525050565b62001dd2816200247c565b82525050565b62001de38162002490565b82525050565b600062001df860268362002281565b915062001e058262002542565b604082019050919050565b600062001e1f60388362002281565b915062001e2c8262002591565b604082019050919050565b600062001e4660228362002281565b915062001e5382620025e0565b604082019050919050565b600062001e6d602e8362002281565b915062001e7a826200262f565b604082019050919050565b600062001e94601b8362002281565b915062001ea1826200267e565b602082019050919050565b600062001ebb60208362002281565b915062001ec882620026a7565b602082019050919050565b600062001ee260308362002281565b915062001eef82620026d0565b604082019050919050565b600062001f09602b8362002281565b915062001f16826200271f565b604082019050919050565b600062001f3060138362002281565b915062001f3d826200276e565b602082019050919050565b62001f5381620023d9565b82525050565b600062001f67828462001d4c565b915081905092915050565b600060208201905062001f89600083018462001c7f565b92915050565b600060408201905062001fa6600083018562001c6e565b818103602083015262001fba818462001d0b565b90509392505050565b6000602082019050818103600083015262001fdf818462001c90565b905092915050565b600060208201905062001ffe600083018462001cfa565b92915050565b60006020820190506200201b600083018462001d83565b92915050565b600060208201905062002038600083018462001da5565b92915050565b600060208201905062002055600083018462001db6565b92915050565b600060208201905062002072600083018462001dd8565b92915050565b60006040820190506200208f600083018562001dc7565b6200209e602083018462001dc7565b9392505050565b60006020820190508181036000830152620020c08162001de9565b9050919050565b60006020820190508181036000830152620020e28162001e10565b9050919050565b60006020820190508181036000830152620021048162001e37565b9050919050565b60006020820190508181036000830152620021268162001e5e565b9050919050565b60006020820190508181036000830152620021488162001e85565b9050919050565b600060208201905081810360008301526200216a8162001eac565b9050919050565b600060208201905081810360008301526200218c8162001ed3565b9050919050565b60006020820190508181036000830152620021ae8162001efa565b9050919050565b60006020820190508181036000830152620021d08162001f21565b9050919050565b6000602082019050620021ee600083018462001f48565b92915050565b60006040820190506200220b600083018562001f48565b6200221a602083018462001f48565b9392505050565b6000819050602082019050919050565b600081519050919050565b600081519050919050565b6000602082019050919050565b600082825260208201905092915050565b600082825260208201905092915050565b600081905092915050565b600082825260208201905092915050565b60006200229f82620023ab565b9150620022ac83620023ab565b92508261ffff03821115620022c657620022c562002502565b5b828201905092915050565b6000620022de82620023ab565b9150620022eb83620023ab565b92508161ffff048311821515161562002309576200230862002502565b5b828202905092915050565b60006200232182620023d9565b91506200232e83620023d9565b92508282101562002344576200234362002502565b5b828203905092915050565b60006200235c82620023b9565b9050919050565b60006200237082620023b9565b9050919050565b60008115159050919050565b600062002390826200234f565b9050919050565b6000620023a48262002363565b9050919050565b600061ffff82169050919050565b600073ffffffffffffffffffffffffffffffffffffffff82169050919050565b6000819050919050565b600060ff82169050919050565b6000620023fd82620024a4565b9050919050565b6000620024118262002418565b9050919050565b60006200242582620023b9565b9050919050565b6000620024398262002440565b9050919050565b60006200244d82620023b9565b9050919050565b6000620024618262002468565b9050919050565b60006200247582620023b9565b9050919050565b60006200248982620023d9565b9050919050565b60006200249d82620023e3565b9050919050565b6000620024b182620024b8565b9050919050565b6000620024c582620023b9565b9050919050565b60005b83811015620024ec578082015181840152602081019050620024cf565b83811115620024fc576000848401525b50505050565b7f4e487b7100000000000000000000000000000000000000000000000000000000600052601160045260246000fd5b6000601f19601f8301169050919050565b7f4f776e61626c653a206e6577206f776e657220697320746865207a65726f206160008201527f6464726573730000000000000000000000000000000000000000000000000000602082015250565b7f436f6e74726163742068617320746f20737570706f727420746865204552433760008201527f32312062616c616e63654f66282920696e746572666163650000000000000000602082015250565b7f4f6e6c79206f6e65206c6f616e20706572206f776e657220697320616c6c6f7760008201527f6564000000000000000000000000000000000000000000000000000000000000602082015250565b7f496e697469616c697a61626c653a20636f6e747261637420697320616c72656160008201527f647920696e697469616c697a6564000000000000000000000000000000000000602082015250565b7f50726f787920636f6e6e6563746f722063616c6c206661696c65640000000000600082015250565b7f4f776e61626c653a2063616c6c6572206973206e6f7420746865206f776e6572600082015250565b7f43616e6e6f7420736574206e66744164647265737320746f2061206e6f6e2d6360008201527f6f6e747261637420696e7374616e636500000000000000000000000000000000602082015250565b7f496e697469616c697a61626c653a20636f6e7472616374206973206e6f74206960008201527f6e697469616c697a696e67000000000000000000000000000000000000000000602082015250565b7f416363657373204e465420726571756972656400000000000000000000000000600082015250565b620027a2816200234f565b8114620027ae57600080fd5b50565b620027bc8162002383565b8114620027c857600080fd5b50565b620027d68162002397565b8114620027e257600080fd5b50565b620027f081620023d9565b8114620027fc57600080fd5b5056fe608060405234801561001057600080fd5b50604051610a9c380380610a9c833981810160405281019061003291906101fd565b61004e61004361006360201b60201c565b61006b60201b60201c565b61005d8161012f60201b60201c565b50610312565b600033905090565b60008060009054906101000a900473ffffffffffffffffffffffffffffffffffffffff169050816000806101000a81548173ffffffffffffffffffffffffffffffffffffffff021916908373ffffffffffffffffffffffffffffffffffffffff1602179055508173ffffffffffffffffffffffffffffffffffffffff168173ffffffffffffffffffffffffffffffffffffffff167f8be0079c531659141344cd1fd0a4f28419497f9722a3daafe3b4186f6b6457e060405160405180910390a35050565b610142816101c560201b6103781760201c565b610181576040517f08c379a000000000000000000000000000000000000000000000000000000000815260040161017890610249565b60405180910390fd5b80600160006101000a81548173ffffffffffffffffffffffffffffffffffffffff021916908373ffffffffffffffffffffffffffffffffffffffff16021790555050565b6000808273ffffffffffffffffffffffffffffffffffffffff163b119050919050565b6000815190506101f7816102fb565b92915050565b60006020828403121561020f57600080fd5b600061021d848285016101e8565b91505092915050565b6000610233603383610269565b915061023e826102ac565b604082019050919050565b6000602082019050818103600083015261026281610226565b9050919050565b600082825260208201905092915050565b60006102858261028c565b9050919050565b600073ffffffffffffffffffffffffffffffffffffffff82169050919050565b7f5570677261646561626c65426561636f6e3a20696d706c656d656e746174696f60008201527f6e206973206e6f74206120636f6e747261637400000000000000000000000000602082015250565b6103048161027a565b811461030f57600080fd5b50565b61077b806103216000396000f3fe608060405234801561001057600080fd5b50600436106100575760003560e01c80633659cfe61461005c5780635c60da1b14610078578063715018a6146100965780638da5cb5b146100a0578063f2fde38b146100be575b600080fd5b61007660048036038101906100719190610508565b6100da565b005b6100806101a5565b60405161008d91906105a9565b60405180910390f35b61009e6101cf565b005b6100a8610257565b6040516100b591906105a9565b60405180910390f35b6100d860048036038101906100d39190610508565b610280565b005b6100e261039b565b73ffffffffffffffffffffffffffffffffffffffff16610100610257565b73ffffffffffffffffffffffffffffffffffffffff1614610156576040517f08c379a000000000000000000000000000000000000000000000000000000000815260040161014d90610604565b60405180910390fd5b61015f816103a3565b8073ffffffffffffffffffffffffffffffffffffffff167fbc7cd75a20ee27fd9adebab32041f755214dbc6bffa90cc0225b39da2e5c2d3b60405160405180910390a250565b6000600160009054906101000a900473ffffffffffffffffffffffffffffffffffffffff16905090565b6101d761039b565b73ffffffffffffffffffffffffffffffffffffffff166101f5610257565b73ffffffffffffffffffffffffffffffffffffffff161461024b576040517f08c379a000000000000000000000000000000000000000000000000000000000815260040161024290610604565b60405180910390fd5b610255600061042f565b565b60008060009054906101000a900473ffffffffffffffffffffffffffffffffffffffff16905090565b61028861039b565b73ffffffffffffffffffffffffffffffffffffffff166102a6610257565b73ffffffffffffffffffffffffffffffffffffffff16146102fc576040517f08c379a00000000000000000000000000000000000000000000000000000000081526004016102f390610604565b60405180910390fd5b600073ffffffffffffffffffffffffffffffffffffffff168173ffffffffffffffffffffffffffffffffffffffff16141561036c576040517f08c379a0000000000000000000000000000000000000000000000000000000008152600401610363906105c4565b60405180910390fd5b6103758161042f565b50565b6000808273ffffffffffffffffffffffffffffffffffffffff163b119050919050565b600033905090565b6103ac81610378565b6103eb576040517f08c379a00000000000000000000000000000000000000000000000000000000081526004016103e2906105e4565b60405180910390fd5b80600160006101000a81548173ffffffffffffffffffffffffffffffffffffffff021916908373ffffffffffffffffffffffffffffffffffffffff16021790555050565b60008060009054906101000a900473ffffffffffffffffffffffffffffffffffffffff169050816000806101000a81548173ffffffffffffffffffffffffffffffffffffffff021916908373ffffffffffffffffffffffffffffffffffffffff1602179055508173ffffffffffffffffffffffffffffffffffffffff168173ffffffffffffffffffffffffffffffffffffffff167f8be0079c531659141344cd1fd0a4f28419497f9722a3daafe3b4186f6b6457e060405160405180910390a35050565b6000813590506105028161072e565b92915050565b60006020828403121561051a57600080fd5b6000610528848285016104f3565b91505092915050565b61053a81610635565b82525050565b600061054d602683610624565b915061055882610667565b604082019050919050565b6000610570603383610624565b915061057b826106b6565b604082019050919050565b6000610593602083610624565b915061059e82610705565b602082019050919050565b60006020820190506105be6000830184610531565b92915050565b600060208201905081810360008301526105dd81610540565b9050919050565b600060208201905081810360008301526105fd81610563565b9050919050565b6000602082019050818103600083015261061d81610586565b9050919050565b600082825260208201905092915050565b600061064082610647565b9050919050565b600073ffffffffffffffffffffffffffffffffffffffff82169050919050565b7f4f776e61626c653a206e6577206f776e657220697320746865207a65726f206160008201527f6464726573730000000000000000000000000000000000000000000000000000602082015250565b7f5570677261646561626c65426561636f6e3a20696d706c656d656e746174696f60008201527f6e206973206e6f74206120636f6e747261637400000000000000000000000000602082015250565b7f4f776e61626c653a2063616c6c6572206973206e6f7420746865206f776e6572600082015250565b61073781610635565b811461074257600080fd5b5056fea2646970667358221220151149c73270d1d35004fd185e9ecf2410985d323d9acbd45abd8d5e4166665664736f6c6343000804003360806040526040516200105d3803806200105d8339818101604052810190620000299190620005f1565b60017fa3f0ad74e5423aebfd80d3ef4346578335a9a72aeaee59ff6cb3582b35133d5160001c6200005b91906200086c565b60001b7fa3f0ad74e5423aebfd80d3ef4346578335a9a72aeaee59ff6cb3582b35133d5060001b14620000b7577f4e487b7100000000000000000000000000000000000000000000000000000000600052600160045260246000fd5b620000cb82826000620000d360201b60201c565b505062000ac7565b620000e483620001da60201b60201c565b8273ffffffffffffffffffffffffffffffffffffffff167f1cf3b03a6cf19fa2baba4df148e9dcabedea7f8a5c07840e207e5c089be95d3e60405160405180910390a2600082511180620001355750805b15620001d557620001d38373ffffffffffffffffffffffffffffffffffffffff16635c60da1b6040518163ffffffff1660e01b815260040160206040518083038186803b1580156200018657600080fd5b505afa1580156200019b573d6000803e3d6000fd5b505050506040513d601f19601f82011682018060405250810190620001c19190620005c5565b836200038960201b620000371760201c565b505b505050565b620001f081620003bf60201b620000641760201c565b62000232576040517f08c379a0000000000000000000000000000000000000000000000000000000008152600401620002299062000775565b60405180910390fd5b620002c98173ffffffffffffffffffffffffffffffffffffffff16635c60da1b6040518163ffffffff1660e01b815260040160206040518083038186803b1580156200027d57600080fd5b505afa15801562000292573d6000803e3d6000fd5b505050506040513d601f19601f82011682018060405250810190620002b89190620005c5565b620003bf60201b620000641760201c565b6200030b576040517f08c379a00000000000000000000000000000000000000000000000000000000081526004016200030290620007b9565b60405180910390fd5b80620003457fa3f0ad74e5423aebfd80d3ef4346578335a9a72aeaee59ff6cb3582b35133d5060001b620003e260201b620000871760201c565b60000160006101000a81548173ffffffffffffffffffffffffffffffffffffffff021916908373ffffffffffffffffffffffffffffffffffffffff16021790555050565b6060620003b783836040518060600160405280602781526020016200103660279139620003ec60201b60201c565b905092915050565b6000808273ffffffffffffffffffffffffffffffffffffffff163b119050919050565b6000819050919050565b6060620003ff84620003bf60201b60201c565b62000441576040517f08c379a0000000000000000000000000000000000000000000000000000000008152600401620004389062000797565b60405180910390fd5b6000808573ffffffffffffffffffffffffffffffffffffffff16856040516200046b919062000738565b600060405180830381855af49150503d8060008114620004a8576040519150601f19603f3d011682016040523d82523d6000602084013e620004ad565b606091505b5091509150620004c5828286620004d060201b60201c565b925050509392505050565b60608315620004e25782905062000535565b600083511115620004f65782518084602001fd5b816040517f08c379a00000000000000000000000000000000000000000000000000000000081526004016200052c919062000751565b60405180910390fd5b9392505050565b6000620005536200054d8462000804565b620007db565b9050828152602081018484840111156200056c57600080fd5b62000579848285620008e5565b509392505050565b600081519050620005928162000aad565b92915050565b600082601f830112620005aa57600080fd5b8151620005bc8482602086016200053c565b91505092915050565b600060208284031215620005d857600080fd5b6000620005e88482850162000581565b91505092915050565b600080604083850312156200060557600080fd5b6000620006158582860162000581565b925050602083015167ffffffffffffffff8111156200063357600080fd5b620006418582860162000598565b9150509250929050565b600062000658826200083a565b62000664818562000850565b935062000676818560208601620008e5565b80840191505092915050565b60006200068f8262000845565b6200069b81856200085b565b9350620006ad818560208601620008e5565b620006b881620009af565b840191505092915050565b6000620006d26025836200085b565b9150620006df82620009c0565b604082019050919050565b6000620006f96026836200085b565b9150620007068262000a0f565b604082019050919050565b6000620007206030836200085b565b91506200072d8262000a5e565b604082019050919050565b60006200074682846200064b565b915081905092915050565b600060208201905081810360008301526200076d818462000682565b905092915050565b600060208201905081810360008301526200079081620006c3565b9050919050565b60006020820190508181036000830152620007b281620006ea565b9050919050565b60006020820190508181036000830152620007d48162000711565b9050919050565b6000620007e7620007fa565b9050620007f582826200091b565b919050565b6000604051905090565b600067ffffffffffffffff82111562000822576200082162000980565b5b6200082d82620009af565b9050602081019050919050565b600081519050919050565b600081519050919050565b600081905092915050565b600082825260208201905092915050565b60006200087982620008db565b91506200088683620008db565b9250828210156200089c576200089b62000951565b5b828203905092915050565b6000620008b482620008bb565b9050919050565b600073ffffffffffffffffffffffffffffffffffffffff82169050919050565b6000819050919050565b60005b8381101562000905578082015181840152602081019050620008e8565b8381111562000915576000848401525b50505050565b6200092682620009af565b810181811067ffffffffffffffff8211171562000948576200094762000980565b5b80604052505050565b7f4e487b7100000000000000000000000000000000000000000000000000000000600052601160045260246000fd5b7f4e487b7100000000000000000000000000000000000000000000000000000000600052604160045260246000fd5b6000601f19601f8301169050919050565b7f455243313936373a206e657720626561636f6e206973206e6f74206120636f6e60008201527f7472616374000000000000000000000000000000000000000000000000000000602082015250565b7f416464726573733a2064656c65676174652063616c6c20746f206e6f6e2d636f60008201527f6e74726163740000000000000000000000000000000000000000000000000000602082015250565b7f455243313936373a20626561636f6e20696d706c656d656e746174696f6e206960008201527f73206e6f74206120636f6e747261637400000000000000000000000000000000602082015250565b62000ab881620008a7565b811462000ac457600080fd5b50565b61055f8062000ad76000396000f3fe6080604052366100135761001161001d565b005b61001b61001d565b005b610025610091565b610035610030610093565b61011f565b565b606061005c838360405180606001604052806027815260200161050360279139610145565b905092915050565b6000808273ffffffffffffffffffffffffffffffffffffffff163b119050919050565b6000819050919050565b565b600061009d610212565b73ffffffffffffffffffffffffffffffffffffffff16635c60da1b6040518163ffffffff1660e01b815260040160206040518083038186803b1580156100e257600080fd5b505afa1580156100f6573d6000803e3d6000fd5b505050506040513d601f19601f8201168201806040525081019061011a91906102e5565b905090565b3660008037600080366000845af43d6000803e8060008114610140573d6000f35b3d6000fd5b606061015084610064565b61018f576040517f08c379a0000000000000000000000000000000000000000000000000000000008152600401610186906103d4565b60405180910390fd5b6000808573ffffffffffffffffffffffffffffffffffffffff16856040516101b7919061039b565b600060405180830381855af49150503d80600081146101f2576040519150601f19603f3d011682016040523d82523d6000602084013e6101f7565b606091505b5091509150610207828286610269565b925050509392505050565b60006102407fa3f0ad74e5423aebfd80d3ef4346578335a9a72aeaee59ff6cb3582b35133d5060001b610087565b60000160009054906101000a900473ffffffffffffffffffffffffffffffffffffffff16905090565b60608315610279578290506102c9565b60008351111561028c5782518084602001fd5b816040517f08c379a00000000000000000000000000000000000000000000000000000000081526004016102c091906103b2565b60405180910390fd5b9392505050565b6000815190506102df816104eb565b92915050565b6000602082840312156102f757600080fd5b6000610305848285016102d0565b91505092915050565b6000610319826103f4565b610323818561040a565b9350610333818560208601610458565b80840191505092915050565b600061034a826103ff565b6103548185610415565b9350610364818560208601610458565b61036d8161048b565b840191505092915050565b6000610385602683610415565b91506103908261049c565b604082019050919050565b60006103a7828461030e565b915081905092915050565b600060208201905081810360008301526103cc818461033f565b905092915050565b600060208201905081810360008301526103ed81610378565b9050919050565b600081519050919050565b600081519050919050565b600081905092915050565b600082825260208201905092915050565b600061043182610438565b9050919050565b600073ffffffffffffffffffffffffffffffffffffffff82169050919050565b60005b8381101561047657808201518184015260208101905061045b565b83811115610485576000848401525b50505050565b6000601f19601f8301169050919050565b7f416464726573733a2064656c65676174652063616c6c20746f206e6f6e2d636f60008201527f6e74726163740000000000000000000000000000000000000000000000000000602082015250565b6104f481610426565b81146104ff57600080fd5b5056fe416464726573733a206c6f772d6c6576656c2064656c65676174652063616c6c206661696c6564a2646970667358221220e315b5ae13d755f35a30ac5193a3d7551961da99f1fa532c06319914f1bfec5064736f6c63430008040033416464726573733a206c6f772d6c6576656c2064656c65676174652063616c6c206661696c6564a2646970667358221220eff30d5ed9c7d7a2a34110ca34e468dbdaa72a575899f7b2c6f8e3a80c48d22064736f6c63430008040033",
  "linkReferences": {},
  "deployedLinkReferences": {}
}