{
  "_format": "hh-sol-artifact-1",
  "contractName": "MockNFTAccess",
  "sourceName": "contracts/mock/MockNFTAccess.sol",
  "abi": [
    {
      "anonymous": false,
      "inputs": [
        {
          "indexed": true,
          "internalType": "address",
          "name": "previousOwner",
          "type": "address"
        },
        {
          "indexed": true,
          "internalType": "address",
          "name": "newOwner",
          "type": "address"
        }
      ],
      "name": "OwnershipTransferred",
      "type": "event"
    },
    {
      "inputs": [],
      "name": "getAccessNFT",
      "outputs": [
        {
          "internalType": "contract ERC721",
          "name": "accessNFT",
          "type": "address"
        }
      ],
      "stateMutability": "view",
      "type": "function"
    },
    {
      "inputs": [],
      "name": "initialize",
      "outputs": [],
      "stateMutability": "nonpayable",
      "type": "function"
    },
    {
      "inputs": [],
      "name": "nftAccessFunction",
      "outputs": [
        {
          "internalType": "uint256",
          "name": "mockResult",
          "type": "uint256"
        }
      ],
      "stateMutability": "view",
      "type": "function"
    },
    {
      "inputs": [],
      "name": "owner",
      "outputs": [
        {
          "internalType": "address",
          "name": "",
          "type": "address"
        }
      ],
      "stateMutability": "view",
      "type": "function"
    },
    {
      "inputs": [],
      "name": "renounceOwnership",
      "outputs": [],
      "stateMutability": "nonpayable",
      "type": "function"
    },
    {
      "inputs": [
        {
          "internalType": "contract ERC721",
          "name": "nftAddress",
          "type": "address"
        }
      ],
      "name": "setAccessNFT",
      "outputs": [],
      "stateMutability": "nonpayable",
      "type": "function"
    },
    {
      "inputs": [
        {
          "internalType": "address",
          "name": "newOwner",
          "type": "address"
        }
      ],
      "name": "transferOwnership",
      "outputs": [],
      "stateMutability": "nonpayable",
      "type": "function"
    }
  ],
  "bytecode": "0x608060405234801561001057600080fd5b50611060806100206000396000f3fe608060405234801561001057600080fd5b506004361061007d5760003560e01c80638129fc1c1161005b5780638129fc1c146100c65780638da5cb5b146100d0578063e3fcd8d1146100ee578063f2fde38b1461010c5761007d565b8063429c9a5a1461008257806345da758e1461009e578063715018a6146100bc575b600080fd5b61009c600480360381019061009791906109ec565b610128565b005b6100a66103aa565b6040516100b39190610cbe565b60405180910390f35b6100c46104f2565b005b6100ce61057a565b005b6100d8610666565b6040516100e59190610ba8565b60405180910390f35b6100f6610690565b6040516101039190610bc3565b60405180910390f35b610126600480360381019061012191906109c3565b6106d0565b005b6101306107c8565b73ffffffffffffffffffffffffffffffffffffffff1661014e610666565b73ffffffffffffffffffffffffffffffffffffffff16146101a4576040517f08c379a000000000000000000000000000000000000000000000000000000000815260040161019b90610c3e565b60405180910390fd5b600073ffffffffffffffffffffffffffffffffffffffff168173ffffffffffffffffffffffffffffffffffffffff161461036c576101e1816107d0565b610220576040517f08c379a000000000000000000000000000000000000000000000000000000000815260040161021790610c5e565b60405180910390fd5b6000808273ffffffffffffffffffffffffffffffffffffffff163360405160240161024b9190610ba8565b6040516020818303038152906040527f70a08231000000000000000000000000000000000000000000000000000000007bffffffffffffffffffffffffffffffffffffffffffffffffffffffff19166020820180517bffffffffffffffffffffffffffffffffffffffffffffffffffffffff83818316178352505050506040516102d59190610b91565b6000604051808303816000865af19150503d8060008114610312576040519150601f19603f3d011682016040523d82523d6000602084013e610317565b606091505b509150915081801561032a575060008151115b610369576040517f08c379a000000000000000000000000000000000000000000000000000000000815260040161036090610bfe565b60405180910390fd5b50505b600060017f05df0919f17c81dab74a24e96f8e9fcaf2f7ae9ec785467bc9a30e698771439060001c61039e9190610d00565b60001b90508181555050565b60008060017f05df0919f17c81dab74a24e96f8e9fcaf2f7ae9ec785467bc9a30e698771439060001c6103dd9190610d00565b60001b9050600081549050600073ffffffffffffffffffffffffffffffffffffffff168173ffffffffffffffffffffffffffffffffffffffff16146104e85760008173ffffffffffffffffffffffffffffffffffffffff166370a08231336040518263ffffffff1660e01b81526004016104579190610ba8565b60206040518083038186803b15801561046f57600080fd5b505afa158015610483573d6000803e3d6000fd5b505050506040513d601f19601f820116820180604052508101906104a79190610a15565b116104e7576040517f08c379a00000000000000000000000000000000000000000000000000000000081526004016104de90610c9e565b60405180910390fd5b5b6103099250505090565b6104fa6107c8565b73ffffffffffffffffffffffffffffffffffffffff16610518610666565b73ffffffffffffffffffffffffffffffffffffffff161461056e576040517f08c379a000000000000000000000000000000000000000000000000000000000815260040161056590610c3e565b60405180910390fd5b61057860006107f3565b565b600060019054906101000a900460ff166105a25760008054906101000a900460ff16156105ab565b6105aa6108b9565b5b6105ea576040517f08c379a00000000000000000000000000000000000000000000000000000000081526004016105e190610c1e565b60405180910390fd5b60008060019054906101000a900460ff16159050801561063a576001600060016101000a81548160ff02191690831515021790555060016000806101000a81548160ff0219169083151502179055505b6106426108ca565b80156106635760008060016101000a81548160ff0219169083151502179055505b50565b6000603360009054906101000a900473ffffffffffffffffffffffffffffffffffffffff16905090565b60008060017f05df0919f17c81dab74a24e96f8e9fcaf2f7ae9ec785467bc9a30e698771439060001c6106c39190610d00565b60001b9050805491505090565b6106d86107c8565b73ffffffffffffffffffffffffffffffffffffffff166106f6610666565b73ffffffffffffffffffffffffffffffffffffffff161461074c576040517f08c379a000000000000000000000000000000000000000000000000000000000815260040161074390610c3e565b60405180910390fd5b600073ffffffffffffffffffffffffffffffffffffffff168173ffffffffffffffffffffffffffffffffffffffff1614156107bc576040517f08c379a00000000000000000000000000000000000000000000000000000000081526004016107b390610bde565b60405180910390fd5b6107c5816107f3565b50565b600033905090565b6000808273ffffffffffffffffffffffffffffffffffffffff163b119050919050565b6000603360009054906101000a900473ffffffffffffffffffffffffffffffffffffffff16905081603360006101000a81548173ffffffffffffffffffffffffffffffffffffffff021916908373ffffffffffffffffffffffffffffffffffffffff1602179055508173ffffffffffffffffffffffffffffffffffffffff168173ffffffffffffffffffffffffffffffffffffffff167f8be0079c531659141344cd1fd0a4f28419497f9722a3daafe3b4186f6b6457e060405160405180910390a35050565b60006108c4306107d0565b15905090565b600060019054906101000a900460ff16610919576040517f08c379a000000000000000000000000000000000000000000000000000000000815260040161091090610c7e565b60405180910390fd5b610921610923565b565b600060019054906101000a900460ff16610972576040517f08c379a000000000000000000000000000000000000000000000000000000000815260040161096990610c7e565b60405180910390fd5b61098261097d6107c8565b6107f3565b565b60008135905061099381610fe5565b92915050565b6000813590506109a881610ffc565b92915050565b6000815190506109bd81611013565b92915050565b6000602082840312156109d557600080fd5b60006109e384828501610984565b91505092915050565b6000602082840312156109fe57600080fd5b6000610a0c84828501610999565b91505092915050565b600060208284031215610a2757600080fd5b6000610a35848285016109ae565b91505092915050565b610a4781610d34565b82525050565b6000610a5882610cd9565b610a628185610ce4565b9350610a72818560208601610da6565b80840191505092915050565b610a8781610d82565b82525050565b6000610a9a602683610cef565b9150610aa582610e08565b604082019050919050565b6000610abd603883610cef565b9150610ac882610e57565b604082019050919050565b6000610ae0602e83610cef565b9150610aeb82610ea6565b604082019050919050565b6000610b03602083610cef565b9150610b0e82610ef5565b602082019050919050565b6000610b26603083610cef565b9150610b3182610f1e565b604082019050919050565b6000610b49602b83610cef565b9150610b5482610f6d565b604082019050919050565b6000610b6c601383610cef565b9150610b7782610fbc565b602082019050919050565b610b8b81610d78565b82525050565b6000610b9d8284610a4d565b915081905092915050565b6000602082019050610bbd6000830184610a3e565b92915050565b6000602082019050610bd86000830184610a7e565b92915050565b60006020820190508181036000830152610bf781610a8d565b9050919050565b60006020820190508181036000830152610c1781610ab0565b9050919050565b60006020820190508181036000830152610c3781610ad3565b9050919050565b60006020820190508181036000830152610c5781610af6565b9050919050565b60006020820190508181036000830152610c7781610b19565b9050919050565b60006020820190508181036000830152610c9781610b3c565b9050919050565b60006020820190508181036000830152610cb781610b5f565b9050919050565b6000602082019050610cd36000830184610b82565b92915050565b600081519050919050565b600081905092915050565b600082825260208201905092915050565b6000610d0b82610d78565b9150610d1683610d78565b925082821015610d2957610d28610dd9565b5b828203905092915050565b6000610d3f82610d58565b9050919050565b6000610d5182610d34565b9050919050565b600073ffffffffffffffffffffffffffffffffffffffff82169050919050565b6000819050919050565b6000610d8d82610d94565b9050919050565b6000610d9f82610d58565b9050919050565b60005b83811015610dc4578082015181840152602081019050610da9565b83811115610dd3576000848401525b50505050565b7f4e487b7100000000000000000000000000000000000000000000000000000000600052601160045260246000fd5b7f4f776e61626c653a206e6577206f776e657220697320746865207a65726f206160008201527f6464726573730000000000000000000000000000000000000000000000000000602082015250565b7f436f6e74726163742068617320746f20737570706f727420746865204552433760008201527f32312062616c616e63654f66282920696e746572666163650000000000000000602082015250565b7f496e697469616c697a61626c653a20636f6e747261637420697320616c72656160008201527f647920696e697469616c697a6564000000000000000000000000000000000000602082015250565b7f4f776e61626c653a2063616c6c6572206973206e6f7420746865206f776e6572600082015250565b7f43616e6e6f7420736574206e66744164647265737320746f2061206e6f6e2d6360008201527f6f6e747261637420696e7374616e636500000000000000000000000000000000602082015250565b7f496e697469616c697a61626c653a20636f6e7472616374206973206e6f74206960008201527f6e697469616c697a696e67000000000000000000000000000000000000000000602082015250565b7f416363657373204e465420726571756972656400000000000000000000000000600082015250565b610fee81610d34565b8114610ff957600080fd5b50565b61100581610d46565b811461101057600080fd5b50565b61101c81610d78565b811461102757600080fd5b5056fea26469706673582212201af6a6cf7a063cb6860155ad37e521576504156d3b3fc9f62ffa48aa1c7ef3bd64736f6c63430008040033",
  "linkReferences": {},
  "deployedLinkReferences": {}
}