{
  "address": "0xE657d0D17CA06c28A19c2CCaFB4092cFAa4EA3A8",
  "abi": [
    {
      "inputs": [],
      "name": "CalldataMustHaveValidPayload",
      "type": "error"
    },
    {
      "inputs": [],
      "name": "CalldataOverOrUnderFlow",
      "type": "error"
    },
    {
      "inputs": [],
      "name": "EachSignerMustProvideTheSameValue",
      "type": "error"
    },
    {
      "inputs": [],
      "name": "EmptyCalldataPointersArr",
      "type": "error"
    },
    {
      "inputs": [],
      "name": "IncorrectUnsignedMetadataSize",
      "type": "error"
    },
    {
      "inputs": [
        {
          "internalType": "uint256",
          "name": "receivedSignersCount",
          "type": "uint256"
        },
        {
          "internalType": "uint256",
          "name": "requiredSignersCount",
          "type": "uint256"
        }
      ],
      "name": "InsufficientNumberOfUniqueSigners",
      "type": "error"
    },
    {
      "inputs": [],
      "name": "InvalidCalldataPointer",
      "type": "error"
    },
    {
      "inputs": [
        {
          "internalType": "bytes",
          "name": "result",
          "type": "bytes"
        }
      ],
      "name": "ProxyCalldataFailedWithCustomError",
      "type": "error"
    },
    {
      "inputs": [
        {
          "internalType": "string",
          "name": "message",
          "type": "string"
        }
      ],
      "name": "ProxyCalldataFailedWithStringMessage",
      "type": "error"
    },
    {
      "inputs": [],
      "name": "ProxyCalldataFailedWithoutErrMsg",
      "type": "error"
    },
    {
      "inputs": [
        {
          "internalType": "address",
          "name": "receivedSigner",
          "type": "address"
        }
      ],
      "name": "SignerNotAuthorised",
      "type": "error"
    },
    {
      "anonymous": false,
      "inputs": [
        {
          "indexed": true,
          "internalType": "address",
          "name": "user",
          "type": "address"
        },
        {
          "indexed": true,
          "internalType": "bytes32",
          "name": "asset",
          "type": "bytes32"
        },
        {
          "indexed": false,
          "internalType": "uint256",
          "name": "amount",
          "type": "uint256"
        },
        {
          "indexed": false,
          "internalType": "uint256",
          "name": "timestamp",
          "type": "uint256"
        }
      ],
      "name": "Borrowed",
      "type": "event"
    },
    {
      "anonymous": false,
      "inputs": [
        {
          "indexed": true,
          "internalType": "address",
          "name": "user",
          "type": "address"
        },
        {
          "indexed": true,
          "internalType": "address",
          "name": "fromToken",
          "type": "address"
        },
        {
          "indexed": true,
          "internalType": "address",
          "name": "toToken",
          "type": "address"
        },
        {
          "indexed": false,
          "internalType": "uint256",
          "name": "repayAmount",
          "type": "uint256"
        },
        {
          "indexed": false,
          "internalType": "uint256",
          "name": "borrowAmount",
          "type": "uint256"
        },
        {
          "indexed": false,
          "internalType": "uint256",
          "name": "timestamp",
          "type": "uint256"
        }
      ],
      "name": "DebtSwap",
      "type": "event"
    },
    {
      "anonymous": false,
      "inputs": [
        {
          "indexed": true,
          "internalType": "address",
          "name": "user",
          "type": "address"
        },
        {
          "indexed": true,
          "internalType": "bytes32",
          "name": "asset",
          "type": "bytes32"
        },
        {
          "indexed": false,
          "internalType": "uint256",
          "name": "amount",
          "type": "uint256"
        },
        {
          "indexed": false,
          "internalType": "uint256",
          "name": "timestamp",
          "type": "uint256"
        }
      ],
      "name": "Funded",
      "type": "event"
    },
    {
      "anonymous": false,
      "inputs": [
        {
          "indexed": true,
          "internalType": "address",
          "name": "user",
          "type": "address"
        },
        {
          "indexed": true,
          "internalType": "bytes32",
          "name": "asset",
          "type": "bytes32"
        },
        {
          "indexed": false,
          "internalType": "uint256",
          "name": "amount",
          "type": "uint256"
        },
        {
          "indexed": false,
          "internalType": "uint256",
          "name": "timestamp",
          "type": "uint256"
        }
      ],
      "name": "Repaid",
      "type": "event"
    },
    {
      "anonymous": false,
      "inputs": [
        {
          "indexed": true,
          "internalType": "address",
          "name": "user",
          "type": "address"
        },
        {
          "indexed": true,
          "internalType": "bytes32",
          "name": "asset",
          "type": "bytes32"
        },
        {
          "indexed": false,
          "internalType": "uint256",
          "name": "amount",
          "type": "uint256"
        },
        {
          "indexed": false,
          "internalType": "uint256",
          "name": "timestamp",
          "type": "uint256"
        }
      ],
      "name": "Withdrawn",
      "type": "event"
    },
    {
      "inputs": [
        {
          "internalType": "bytes32[]",
          "name": "assetsToRepay",
          "type": "bytes32[]"
        }
      ],
      "name": "_getAllPricesForLiquidation",
      "outputs": [
        {
          "components": [
            {
              "components": [
                {
                  "internalType": "bytes32",
                  "name": "asset",
                  "type": "bytes32"
                },
                {
                  "internalType": "uint256",
                  "name": "price",
                  "type": "uint256"
                }
              ],
              "internalType": "struct SolvencyFacetProd.AssetPrice[]",
              "name": "ownedAssetsPrices",
              "type": "tuple[]"
            },
            {
              "components": [
                {
                  "internalType": "bytes32",
                  "name": "asset",
                  "type": "bytes32"
                },
                {
                  "internalType": "uint256",
                  "name": "price",
                  "type": "uint256"
                }
              ],
              "internalType": "struct SolvencyFacetProd.AssetPrice[]",
              "name": "debtAssetsPrices",
              "type": "tuple[]"
            },
            {
              "components": [
                {
                  "internalType": "bytes32",
                  "name": "asset",
                  "type": "bytes32"
                },
                {
                  "internalType": "uint256",
                  "name": "price",
                  "type": "uint256"
                }
              ],
              "internalType": "struct SolvencyFacetProd.AssetPrice[]",
              "name": "stakedPositionsPrices",
              "type": "tuple[]"
            },
            {
              "components": [
                {
                  "internalType": "bytes32",
                  "name": "asset",
                  "type": "bytes32"
                },
                {
                  "internalType": "uint256",
                  "name": "price",
                  "type": "uint256"
                }
              ],
              "internalType": "struct SolvencyFacetProd.AssetPrice[]",
              "name": "assetsToRepayPrices",
              "type": "tuple[]"
            }
          ],
          "internalType": "struct SolvencyFacetProd.CachedPrices",
          "name": "result",
          "type": "tuple"
        }
      ],
      "stateMutability": "nonpayable",
      "type": "function"
    },
    {
      "inputs": [],
      "name": "_getHealthRatio",
      "outputs": [
        {
          "internalType": "uint256",
          "name": "health",
          "type": "uint256"
        }
      ],
      "stateMutability": "nonpayable",
      "type": "function"
    },
    {
      "inputs": [
        {
          "components": [
            {
              "components": [
                {
                  "internalType": "bytes32",
                  "name": "asset",
                  "type": "bytes32"
                },
                {
                  "internalType": "uint256",
                  "name": "price",
                  "type": "uint256"
                }
              ],
              "internalType": "struct SolvencyFacetProd.AssetPrice[]",
              "name": "ownedAssetsPrices",
              "type": "tuple[]"
            },
            {
              "components": [
                {
                  "internalType": "bytes32",
                  "name": "asset",
                  "type": "bytes32"
                },
                {
                  "internalType": "uint256",
                  "name": "price",
                  "type": "uint256"
                }
              ],
              "internalType": "struct SolvencyFacetProd.AssetPrice[]",
              "name": "debtAssetsPrices",
              "type": "tuple[]"
            },
            {
              "components": [
                {
                  "internalType": "bytes32",
                  "name": "asset",
                  "type": "bytes32"
                },
                {
                  "internalType": "uint256",
                  "name": "price",
                  "type": "uint256"
                }
              ],
              "internalType": "struct SolvencyFacetProd.AssetPrice[]",
              "name": "stakedPositionsPrices",
              "type": "tuple[]"
            },
            {
              "components": [
                {
                  "internalType": "bytes32",
                  "name": "asset",
                  "type": "bytes32"
                },
                {
                  "internalType": "uint256",
                  "name": "price",
                  "type": "uint256"
                }
              ],
              "internalType": "struct SolvencyFacetProd.AssetPrice[]",
              "name": "assetsToRepayPrices",
              "type": "tuple[]"
            }
          ],
          "internalType": "struct SolvencyFacetProd.CachedPrices",
          "name": "cachedPrices",
          "type": "tuple"
        }
      ],
      "name": "_getHealthRatioWithPrices",
      "outputs": [
        {
          "internalType": "uint256",
          "name": "health",
          "type": "uint256"
        }
      ],
      "stateMutability": "nonpayable",
      "type": "function"
    },
    {
      "inputs": [],
      "name": "_resetPrimeAccountAssetsExposure",
      "outputs": [],
      "stateMutability": "nonpayable",
      "type": "function"
    },
    {
      "inputs": [],
      "name": "_setPrimeAccountAssetsExposure",
      "outputs": [],
      "stateMutability": "nonpayable",
      "type": "function"
    },
    {
      "inputs": [
        {
          "internalType": "bytes32",
          "name": "_asset",
          "type": "bytes32"
        },
        {
          "internalType": "uint256",
          "name": "_amount",
          "type": "uint256"
        }
      ],
      "name": "borrow",
      "outputs": [],
      "stateMutability": "nonpayable",
      "type": "function"
    },
    {
      "inputs": [
        {
          "internalType": "bytes32",
          "name": "_fundedAsset",
          "type": "bytes32"
        },
        {
          "internalType": "uint256",
          "name": "_amount",
          "type": "uint256"
        }
      ],
      "name": "fund",
      "outputs": [],
      "stateMutability": "nonpayable",
      "type": "function"
    },
    {
      "inputs": [
        {
          "internalType": "uint256",
          "name": "_amount",
          "type": "uint256"
        }
      ],
      "name": "fundGLP",
      "outputs": [],
      "stateMutability": "nonpayable",
      "type": "function"
    },
    {
      "inputs": [
        {
          "internalType": "bytes32",
          "name": "symbol",
          "type": "bytes32"
        }
      ],
      "name": "getPrice",
      "outputs": [
        {
          "internalType": "uint256",
          "name": "price",
          "type": "uint256"
        }
      ],
      "stateMutability": "nonpayable",
      "type": "function"
    },
    {
      "inputs": [
        {
          "internalType": "bytes32[]",
          "name": "symbols",
          "type": "bytes32[]"
        }
      ],
      "name": "getPrices",
      "outputs": [
        {
          "internalType": "uint256[]",
          "name": "prices",
          "type": "uint256[]"
        }
      ],
      "stateMutability": "nonpayable",
      "type": "function"
    },
    {
      "inputs": [
        {
          "internalType": "bytes32",
          "name": "_asset",
          "type": "bytes32"
        },
        {
          "internalType": "uint256",
          "name": "_amount",
          "type": "uint256"
        }
      ],
      "name": "repay",
      "outputs": [],
      "stateMutability": "payable",
      "type": "function"
    },
    {
      "inputs": [
        {
          "internalType": "bytes32",
          "name": "_fromAsset",
          "type": "bytes32"
        },
        {
          "internalType": "bytes32",
          "name": "_toAsset",
          "type": "bytes32"
        },
        {
          "internalType": "uint256",
          "name": "_repayAmount",
          "type": "uint256"
        },
        {
          "internalType": "uint256",
          "name": "_borrowAmount",
          "type": "uint256"
        },
        {
          "internalType": "address[]",
          "name": "_path",
          "type": "address[]"
        },
        {
          "internalType": "address[]",
          "name": "_adapters",
          "type": "address[]"
        }
      ],
      "name": "swapDebt",
      "outputs": [],
      "stateMutability": "nonpayable",
      "type": "function"
    },
    {
      "inputs": [
        {
          "internalType": "bytes32",
          "name": "_withdrawnAsset",
          "type": "bytes32"
        },
        {
          "internalType": "uint256",
          "name": "_amount",
          "type": "uint256"
        }
      ],
      "name": "withdraw",
      "outputs": [],
      "stateMutability": "nonpayable",
      "type": "function"
    },
    {
      "inputs": [
        {
          "internalType": "uint256",
          "name": "_amount",
          "type": "uint256"
        }
      ],
      "name": "withdrawGLP",
      "outputs": [],
      "stateMutability": "nonpayable",
      "type": "function"
    }
  ],
  "transactionHash": "0x17947ba3134c9bb0e74fcac9def747494bcb958ecc068720cc7338d9310562b5",
  "args": [],
  "numDeployments": 10,
  "solcInputHash": "8e42f8e6e28155dd141ec5f81fee1cfb",
  "bytecode": "0x608060405234801561001057600080fd5b506001600081905550614d40806100286000396000f3fe6080604052600436106100dc5760003560e01c80636e3bfe9f1161007f578063b2d40e7311610059578063b2d40e731461029a578063d66e2979146102d7578063e46bbc9e14610300578063f8f1855314610329576100dc565b80636e3bfe9f1461020b5780637c93ec30146102485780639d9a355e14610271576100dc565b806326ee4836116100bb57806326ee48361461014f57806331d98b3f1461018c57806339e2719e146101c95780635b4fad9c146101f4576100dc565b8062f989ad146100e1578063040cf020146100fd5780631281f5fe14610126575b600080fd5b6100fb60048036038101906100f69190613156565b610340565b005b34801561010957600080fd5b50610124600480360381019061011f9190613156565b6106cf565b005b34801561013257600080fd5b5061014d600480360381019061014891906131fb565b610a7f565b005b34801561015b57600080fd5b5061017660048036038101906101719190613419565b6110e9565b6040516101839190613520565b60405180910390f35b34801561019857600080fd5b506101b360048036038101906101ae9190613542565b611193565b6040516101c0919061357e565b60405180910390f35b3480156101d557600080fd5b506101de61123d565b6040516101eb919061357e565b60405180910390f35b34801561020057600080fd5b506102096112da565b005b34801561021757600080fd5b50610232600480360381019061022d919061379e565b611360565b60405161023f919061357e565b60405180910390f35b34801561025457600080fd5b5061026f600480360381019061026a9190613156565b61140a565b005b34801561027d57600080fd5b50610298600480360381019061029391906137e7565b611658565b005b3480156102a657600080fd5b506102c160048036038101906102bc9190613419565b611a7f565b6040516102ce9190613979565b60405180910390f35b3480156102e357600080fd5b506102fe60048036038101906102f991906137e7565b611b2f565b005b34801561030c57600080fd5b5061032760048036038101906103229190613156565b611d94565b005b34801561033557600080fd5b5061033e61204a565b005b600061034d8360016120d0565b905061035761215d565b15610365576103646121fa565b5b600061036f612295565b73ffffffffffffffffffffffffffffffffffffffff16630edc25b6856040518263ffffffff1660e01b81526004016103a791906139aa565b602060405180830381865afa1580156103c4573d6000803e3d6000fd5b505050506040513d601f19601f820116820180604052508101906103e89190613a23565b905061046d838273ffffffffffffffffffffffffffffffffffffffff16636011163e306040518263ffffffff1660e01b81526004016104279190613a5f565b602060405180830381865afa158015610444573d6000803e3d6000fd5b505050506040513d601f19601f820116820180604052508101906104689190613a8f565b6122b1565b9250828273ffffffffffffffffffffffffffffffffffffffff166370a08231306040518263ffffffff1660e01b81526004016104a99190613a5f565b602060405180830381865afa1580156104c6573d6000803e3d6000fd5b505050506040513d601f19601f820116820180604052508101906104ea9190613a8f565b101561052b576040517f08c379a000000000000000000000000000000000000000000000000000000000815260040161052290613b3f565b60405180910390fd5b6105578160008473ffffffffffffffffffffffffffffffffffffffff166122ca9092919063ffffffff16565b61058281848473ffffffffffffffffffffffffffffffffffffffff166122ca9092919063ffffffff16565b8073ffffffffffffffffffffffffffffffffffffffff1663371fd8e6846040518263ffffffff1660e01b81526004016105bb919061357e565b600060405180830381600087803b1580156105d557600080fd5b505af11580156105e9573d6000803e3d6000fd5b5050505060008273ffffffffffffffffffffffffffffffffffffffff166370a08231306040518263ffffffff1660e01b81526004016106289190613a5f565b602060405180830381865afa158015610645573d6000803e3d6000fd5b505050506040513d601f19601f820116820180604052508101906106699190613a8f565b036106785761067784612400565b5b833373ffffffffffffffffffffffffffffffffffffffff167fa2f4fa14f0b0fee8b10babfdacfbfff6d29bbce82209ad5e7b2ac1dc2c35ab9b85426040516106c1929190613b5f565b60405180910390a350505050565b6106d76121fa565b60006106e161241e565b9050600281600001540361072a576040517f08c379a000000000000000000000000000000000000000000000000000000000815260040161072190613bd4565b60405180910390fd5b6002816000018190555060006107418460016120d0565b90506107c6838273ffffffffffffffffffffffffffffffffffffffff166370a08231306040518263ffffffff1660e01b81526004016107809190613a5f565b602060405180830381865afa15801561079d573d6000803e3d6000fd5b505050506040513d601f19601f820116820180604052508101906107c19190613a8f565b6122b1565b92506107f333848373ffffffffffffffffffffffffffffffffffffffff1661244b9092919063ffffffff16565b60008173ffffffffffffffffffffffffffffffffffffffff166370a08231306040518263ffffffff1660e01b815260040161082e9190613a5f565b602060405180830381865afa15801561084b573d6000803e3d6000fd5b505050506040513d601f19601f8201168201806040525081019061086f9190613a8f565b0361087e5761087d84612400565b5b6000610888612295565b90508073ffffffffffffffffffffffffffffffffffffffff1663adfe6a0f868473ffffffffffffffffffffffffffffffffffffffff1663313ce5676040518163ffffffff1660e01b8152600401602060405180830381865afa1580156108f2573d6000803e3d6000fd5b505050506040513d601f19601f820116820180604052508101906109169190613c2d565b600a6109229190613dbc565b670de0b6b3a7640000886109369190613e07565b6109409190613e78565b6040518363ffffffff1660e01b815260040161095d929190613ea9565b600060405180830381600087803b15801561097757600080fd5b505af115801561098b573d6000803e3d6000fd5b50505050843373ffffffffffffffffffffffffffffffffffffffff167f2c2b206b9475386bb995c366956ade2de7bd0e3208dd1fb3833c280929a9300586426040516109d8929190613b5f565b60405180910390a350506109ea61215d565b610a29576040517f08c379a0000000000000000000000000000000000000000000000000000000008152600401610a2090613f44565b60405180910390fd5b610a31612581565b610a70576040517f08c379a0000000000000000000000000000000000000000000000000000000008152600401610a6790613fd6565b60405180910390fd5b60018160000181905550505050565b610a876121fa565b6000610a9161241e565b90506002816000015403610ada576040517f08c379a0000000000000000000000000000000000000000000000000000000008152600401610ad190613bd4565b60405180910390fd5b600281600001819055506000610aee612295565b905060008173ffffffffffffffffffffffffffffffffffffffff16630edc25b68c6040518263ffffffff1660e01b8152600401610b2b91906139aa565b602060405180830381865afa158015610b48573d6000803e3d6000fd5b505050506040513d601f19601f82011682018060405250810190610b6c9190613a23565b9050610bf1898273ffffffffffffffffffffffffffffffffffffffff16636011163e306040518263ffffffff1660e01b8152600401610bab9190613a5f565b602060405180830381865afa158015610bc8573d6000803e3d6000fd5b505050506040513d601f19601f82011682018060405250810190610bec9190613a8f565b6122b1565b98506000610c008b60006120d0565b90506000610c0f8d60006120d0565b905060008473ffffffffffffffffffffffffffffffffffffffff16630edc25b68e6040518263ffffffff1660e01b8152600401610c4c91906139aa565b602060405180830381865afa158015610c69573d6000803e3d6000fd5b505050506040513d601f19601f82011682018060405250810190610c8d9190613a23565b90508073ffffffffffffffffffffffffffffffffffffffff1663c5ebeaec8c6040518263ffffffff1660e01b8152600401610cc8919061357e565b600060405180830381600087803b158015610ce257600080fd5b505af1158015610cf6573d6000803e3d6000fd5b50505050610d3a73c4729e56b831d74bbc18797e0e17a295fa77488c60008573ffffffffffffffffffffffffffffffffffffffff166122ca9092919063ffffffff16565b610d7973c4729e56b831d74bbc18797e0e17a295fa77488c8c8573ffffffffffffffffffffffffffffffffffffffff166122ca9092919063ffffffff16565b600073c4729e56b831d74bbc18797e0e17a295fa77488c9050600060405180608001604052808e81526020018f81526020018d8d80806020026020016040519081016040528093929190818152602001838360200280828437600081840152601f19601f8201169050808301925050505050505081526020018b8b80806020026020016040519081016040528093929190818152602001838360200280828437600081840152601f19601f8201169050808301925050505050505081525090508173ffffffffffffffffffffffffffffffffffffffff16636bf2df86823060006040518463ffffffff1660e01b8152600401610e7793929190614163565b600060405180830381600087803b158015610e9157600080fd5b505af1158015610ea5573d6000803e3d6000fd5b505050505050610ed78460008473ffffffffffffffffffffffffffffffffffffffff166122ca9092919063ffffffff16565b610f02848d8473ffffffffffffffffffffffffffffffffffffffff166122ca9092919063ffffffff16565b8373ffffffffffffffffffffffffffffffffffffffff1663371fd8e68d6040518263ffffffff1660e01b8152600401610f3b919061357e565b600060405180830381600087803b158015610f5557600080fd5b505af1158015610f69573d6000803e3d6000fd5b5050505060008273ffffffffffffffffffffffffffffffffffffffff166370a08231306040518263ffffffff1660e01b8152600401610fa89190613a5f565b602060405180830381865afa158015610fc5573d6000803e3d6000fd5b505050506040513d601f19601f82011682018060405250810190610fe99190613a8f565b1115610ffe57610ff98e8361261e565b611008565b6110078e612400565b5b8273ffffffffffffffffffffffffffffffffffffffff168273ffffffffffffffffffffffffffffffffffffffff163373ffffffffffffffffffffffffffffffffffffffff167f748fff53294fa79798345b252110328971a595b971caf6adc7933174d722597d8f8f42604051611080939291906141a1565b60405180910390a4505050505060018160000181905550506110a061215d565b6110df576040517f08c379a00000000000000000000000000000000000000000000000000000000081526004016110d690613f44565b60405180910390fd5b5050505050505050565b60606111796110fe6326ee483660e01b6126f0565b6326ee483660e01b846040516024016111179190614287565b604051602081830303815290604052907bffffffffffffffffffffffffffffffffffffffffffffffffffffffff19166020820180517bffffffffffffffffffffffffffffffffffffffffffffffffffffffff838183161783525050505061277a565b80602001905181019061118c919061436c565b9050919050565b60006112236111a86331d98b3f60e01b6126f0565b6331d98b3f60e01b846040516024016111c191906139aa565b604051602081830303815290604052907bffffffffffffffffffffffffffffffffffffffffffffffffffffffff19166020820180517bffffffffffffffffffffffffffffffffffffffffffffffffffffffff838183161783525050505061277a565b8060200190518101906112369190613a8f565b9050919050565b60006112c2611252637914334f60e01b6126f0565b637914334f60e01b604051602401604051602081830303815290604052907bffffffffffffffffffffffffffffffffffffffffffffffffffffffff19166020820180517bffffffffffffffffffffffffffffffffffffffffffffffffffffffff838183161783525050505061277a565b8060200190518101906112d59190613a8f565b905090565b61135d6112ed63b1c9fbc160e01b6126f0565b63b1c9fbc160e01b604051602401604051602081830303815290604052907bffffffffffffffffffffffffffffffffffffffffffffffffffffffff19166020820180517bffffffffffffffffffffffffffffffffffffffffffffffffffffffff838183161783525050505061277a565b50565b60006113f061137563360398a360e01b6126f0565b63360398a360e01b8460405160240161138e9190613979565b604051602081830303815290604052907bffffffffffffffffffffffffffffffffffffffffffffffffffffffff19166020820180517bffffffffffffffffffffffffffffffffffffffffffffffffffffffff838183161783525050505061277a565b8060200190518101906114039190613a8f565b9050919050565b6114126121fa565b600061141c61280b565b90504281600601819055506000611431612295565b905060008173ffffffffffffffffffffffffffffffffffffffff16630edc25b6866040518263ffffffff1660e01b815260040161146e91906139aa565b602060405180830381865afa15801561148b573d6000803e3d6000fd5b505050506040513d601f19601f820116820180604052508101906114af9190613a23565b90508073ffffffffffffffffffffffffffffffffffffffff1663c5ebeaec856040518263ffffffff1660e01b81526004016114ea919061357e565b600060405180830381600087803b15801561150457600080fd5b505af1158015611518573d6000803e3d6000fd5b5050505060006115298660006120d0565b905060008173ffffffffffffffffffffffffffffffffffffffff166370a08231306040518263ffffffff1660e01b81526004016115669190613a5f565b602060405180830381865afa158015611583573d6000803e3d6000fd5b505050506040513d601f19601f820116820180604052508101906115a79190613a8f565b11156115b8576115b7868261261e565b5b853373ffffffffffffffffffffffffffffffffffffffff167fb44d1174a7e8b37725504ef78b9e681eb337ec859b8829dafb4a817ac9ab7c3f8742604051611601929190613b5f565b60405180910390a35050505061161561215d565b611654576040517f08c379a000000000000000000000000000000000000000000000000000000000815260040161164b90613f44565b60405180910390fd5b5050565b6116606121fa565b600061166a61241e565b905060028160000154036116b3576040517f08c379a00000000000000000000000000000000000000000000000000000000081526004016116aa90613bd4565b60405180910390fd5b6002816000018190555060006116ea7f474c50000000000000000000000000000000000000000000000000000000000060016120d0565b9050600073ae64d55a6f09e4263421737397d1fdfa71896a6990506117888273ffffffffffffffffffffffffffffffffffffffff166370a08231306040518263ffffffff1660e01b81526004016117419190613a5f565b602060405180830381865afa15801561175e573d6000803e3d6000fd5b505050506040513d601f19601f820116820180604052508101906117829190613a8f565b856122b1565b93506117b533858373ffffffffffffffffffffffffffffffffffffffff1661244b9092919063ffffffff16565b60008273ffffffffffffffffffffffffffffffffffffffff166370a08231306040518263ffffffff1660e01b81526004016117f09190613a5f565b602060405180830381865afa15801561180d573d6000803e3d6000fd5b505050506040513d601f19601f820116820180604052508101906118319190613a8f565b036118605761185f7f474c500000000000000000000000000000000000000000000000000000000000612400565b5b600061186a612295565b90508073ffffffffffffffffffffffffffffffffffffffff1663adfe6a0f8473ffffffffffffffffffffffffffffffffffffffff1663313ce5676040518163ffffffff1660e01b8152600401602060405180830381865afa1580156118d3573d6000803e3d6000fd5b505050506040513d601f19601f820116820180604052508101906118f79190613c2d565b600a6119039190613dbc565b670de0b6b3a7640000886119179190613e07565b6119219190613e78565b6040518263ffffffff1660e01b815260040161193d91906143db565b600060405180830381600087803b15801561195757600080fd5b505af115801561196b573d6000803e3d6000fd5b505050507f474c5000000000000000000000000000000000000000000000000000000000003373ffffffffffffffffffffffffffffffffffffffff167f2c2b206b9475386bb995c366956ade2de7bd0e3208dd1fb3833c280929a9300587426040516119d8929190613b5f565b60405180910390a35050506119eb61215d565b611a2a576040517f08c379a0000000000000000000000000000000000000000000000000000000008152600401611a2190613f44565b60405180910390fd5b611a32612581565b611a71576040517f08c379a0000000000000000000000000000000000000000000000000000000008152600401611a6890613fd6565b60405180910390fd5b600181600001819055505050565b611a876130ae565b611b15611a9a63a3aa8d1e60e01b6126f0565b63a3aa8d1e60e01b84604051602401611ab39190614287565b604051602081830303815290604052907bffffffffffffffffffffffffffffffffffffffffffffffffffffffff19166020820180517bffffffffffffffffffffffffffffffffffffffffffffffffffffffff838183161783525050505061277a565b806020019051810190611b2891906145e6565b9050919050565b600073ae64d55a6f09e4263421737397d1fdfa71896a699050611bcb828273ffffffffffffffffffffffffffffffffffffffff166370a08231336040518263ffffffff1660e01b8152600401611b859190613a5f565b602060405180830381865afa158015611ba2573d6000803e3d6000fd5b505050506040513d601f19601f82011682018060405250810190611bc69190613a8f565b6122b1565b9150611bfa3330848473ffffffffffffffffffffffffffffffffffffffff16612838909392919063ffffffff16565b60008173ffffffffffffffffffffffffffffffffffffffff166370a08231306040518263ffffffff1660e01b8152600401611c359190613a5f565b602060405180830381865afa158015611c52573d6000803e3d6000fd5b505050506040513d601f19601f82011682018060405250810190611c769190613a8f565b1115611ca757611ca67f474c5000000000000000000000000000000000000000000000000000000000008261261e565b5b6000611cb1612295565b90508073ffffffffffffffffffffffffffffffffffffffff1663c3cc6c7a846040518263ffffffff1660e01b8152600401611cec91906143db565b600060405180830381600087803b158015611d0657600080fd5b505af1158015611d1a573d6000803e3d6000fd5b505050507f474c5000000000000000000000000000000000000000000000000000000000003373ffffffffffffffffffffffffffffffffffffffff167f2d66a92de57f2082107528ba4d5d87f02f49967bfc7aab0013f4d664610335478542604051611d87929190613b5f565b60405180910390a3505050565b6000611da18360006120d0565b9050611e26828273ffffffffffffffffffffffffffffffffffffffff166370a08231336040518263ffffffff1660e01b8152600401611de09190613a5f565b602060405180830381865afa158015611dfd573d6000803e3d6000fd5b505050506040513d601f19601f82011682018060405250810190611e219190613a8f565b6122b1565b9150611e553330848473ffffffffffffffffffffffffffffffffffffffff16612838909392919063ffffffff16565b60008173ffffffffffffffffffffffffffffffffffffffff166370a08231306040518263ffffffff1660e01b8152600401611e909190613a5f565b602060405180830381865afa158015611ead573d6000803e3d6000fd5b505050506040513d601f19601f82011682018060405250810190611ed19190613a8f565b1115611ee257611ee1838261261e565b5b6000611eec612295565b90508073ffffffffffffffffffffffffffffffffffffffff1663c3cc6c7a858473ffffffffffffffffffffffffffffffffffffffff1663313ce5676040518163ffffffff1660e01b8152600401602060405180830381865afa158015611f56573d6000803e3d6000fd5b505050506040513d601f19601f82011682018060405250810190611f7a9190613c2d565b600a611f869190613dbc565b670de0b6b3a764000087611f9a9190613e07565b611fa49190613e78565b6040518363ffffffff1660e01b8152600401611fc1929190613ea9565b600060405180830381600087803b158015611fdb57600080fd5b505af1158015611fef573d6000803e3d6000fd5b50505050833373ffffffffffffffffffffffffffffffffffffffff167f2d66a92de57f2082107528ba4d5d87f02f49967bfc7aab0013f4d66461033547854260405161203c929190613b5f565b60405180910390a350505050565b6120cd61205d63e017e12560e01b6126f0565b63e017e12560e01b604051602401604051602081830303815290604052907bffffffffffffffffffffffffffffffffffffffffffffffffffffffff19166020820180517bffffffffffffffffffffffffffffffffffffffffffffffffffffffff838183161783525050505061277a565b50565b60006120da612295565b73ffffffffffffffffffffffffffffffffffffffff166325eb876f84846040518363ffffffff1660e01b815260040161211492919061464a565b602060405180830381865afa158015612131573d6000803e3d6000fd5b505050506040513d601f19601f820116820180604052508101906121559190613a23565b905092915050565b60006121e2612172635ce2395060e01b6126f0565b635ce2395060e01b604051602401604051602081830303815290604052907bffffffffffffffffffffffffffffffffffffffffffffffffffffffff19166020820180517bffffffffffffffffffffffffffffffffffffffffffffffffffffffff838183161783525050505061277a565b8060200190518101906121f5919061469f565b905090565b612202612971565b60010160009054906101000a900473ffffffffffffffffffffffffffffffffffffffff1673ffffffffffffffffffffffffffffffffffffffff163373ffffffffffffffffffffffffffffffffffffffff1614612293576040517f08c379a000000000000000000000000000000000000000000000000000000000815260040161228a9061473e565b60405180910390fd5b565b600073f3978209b7cff2b90100c6f87cec77de928ed58e905090565b60008183106122c057816122c2565b825b905092915050565b6000808473ffffffffffffffffffffffffffffffffffffffff1663095ea7b385856040516024016122fc92919061475e565b6040516020818303038152906040529060e01b6020820180517bffffffffffffffffffffffffffffffffffffffffffffffffffffffff838183161783525050505060405161234a91906147f8565b6000604051808303816000865af19150503d8060008114612387576040519150601f19603f3d011682016040523d82523d6000602084013e61238c565b606091505b50915091508180156123ba57506000815114806123b95750808060200190518101906123b8919061469f565b5b5b6123f9576040517f08c379a00000000000000000000000000000000000000000000000000000000081526004016123f090614881565b60405180910390fd5b5050505050565b600061240a612971565b9050612419816004018361299e565b505050565b6000807f1c85eba10a4cf2d29c83fc15f97931886b9fd3caeb70d8c377aeedc58b919e3b90508091505090565b6000808473ffffffffffffffffffffffffffffffffffffffff1663a9059cbb858560405160240161247d92919061475e565b6040516020818303038152906040529060e01b6020820180517bffffffffffffffffffffffffffffffffffffffffffffffffffffffff83818316178352505050506040516124cb91906147f8565b6000604051808303816000865af19150503d8060008114612508576040519150601f19603f3d011682016040523d82523d6000602084013e61250d565b606091505b509150915081801561253b575060008151148061253a575080806020019051810190612539919061469f565b5b5b61257a576040517f08c379a000000000000000000000000000000000000000000000000000000000815260040161257190614913565b60405180910390fd5b5050505050565b6000612606612596633942a52e60e01b6126f0565b633942a52e60e01b604051602401604051602081830303815290604052907bffffffffffffffffffffffffffffffffffffffffffffffffffffffff19166020820180517bffffffffffffffffffffffffffffffffffffffffffffffffffffffff838183161783525050505061277a565b806020019051810190612619919061469f565b905090565b60008203612661576040517f08c379a00000000000000000000000000000000000000000000000000000000081526004016126589061497f565b60405180910390fd5b600073ffffffffffffffffffffffffffffffffffffffff168173ffffffffffffffffffffffffffffffffffffffff16036126d0576040517f08c379a00000000000000000000000000000000000000000000000000000000081526004016126c7906149eb565b60405180910390fd5b60006126da612971565b90506126ea8160040184846129b5565b50505050565b60006126fa6129e7565b73ffffffffffffffffffffffffffffffffffffffff16630d741577836040518263ffffffff1660e01b81526004016127329190614a46565b602060405180830381865afa15801561274f573d6000803e3d6000fd5b505050506040513d601f19601f820116820180604052508101906127739190613a23565b9050919050565b6060600061278783612a03565b90506000808573ffffffffffffffffffffffffffffffffffffffff16836040516127b191906147f8565b600060405180830381855af49150503d80600081146127ec576040519150601f19603f3d011682016040523d82523d6000602084013e6127f1565b606091505b50915091506128008282612abd565b935050505092915050565b6000807fc8fcad8db84d3cc18b4c41d551ea0ee66dd599cde068d998e57d5e09332c131c90508091505090565b6000808573ffffffffffffffffffffffffffffffffffffffff166323b872dd86868660405160240161286c93929190614a61565b6040516020818303038152906040529060e01b6020820180517bffffffffffffffffffffffffffffffffffffffffffffffffffffffff83818316178352505050506040516128ba91906147f8565b6000604051808303816000865af19150503d80600081146128f7576040519150601f19603f3d011682016040523d82523d6000602084013e6128fc565b606091505b509150915081801561292a5750600081511480612929575080806020019051810190612928919061469f565b5b5b612969576040517f08c379a000000000000000000000000000000000000000000000000000000000815260040161296090614b0a565b60405180910390fd5b505050505050565b6000807f8d5bb42e0ac1496a2c326edc9c00758985246e6c2bb146d6c2f4a0d509e0960a90508091505090565b60006129ad8360000183612bbd565b905092915050565b60006129de84600001848473ffffffffffffffffffffffffffffffffffffffff1660001b612bf6565b90509392505050565b6000732916b3bf7c35bd21e63d01c93c62fb0d4994e56d905090565b60606000825190506000612a15612c31565b905060008183612a259190614b2a565b90506000369050821115612a65576040517f5796f78a00000000000000000000000000000000000000000000000000000000815260040160405180910390fd5b6060604051905081815285602001848101826020015b81831015612a985782518152602083019250602081019050612a7b565b5050508283360385602001830137602084840182010160405280945050505050919050565b606082612bb4576000825103612aff576040517f567fe27a00000000000000000000000000000000000000000000000000000000815260040160405180910390fd5b600060208301517f08c379a00000000000000000000000000000000000000000000000000000000081149150508015612b77576060604484019050806040517f0f7e8278000000000000000000000000000000000000000000000000000000008152600401612b6e9190614ba2565b60405180910390fd5b826040517ffd36fde3000000000000000000000000000000000000000000000000000000008152600401612bab9190614c0e565b60405180910390fd5b81905092915050565b600082600201600083815260200190815260200160002060009055612bee8284600001612ca190919063ffffffff16565b905092915050565b60008184600201600085815260200190815260200160002081905550612c288385600001612cb890919063ffffffff16565b90509392505050565b600080612c3c612ccf565b90506000612c4982612de0565b61ffff169050600282612c5c9190614b2a565b915060005b81811015612c98576000612c7484612e3c565b90508084612c829190614b2a565b9350508080612c9090614c30565b915050612c61565b50819250505090565b6000612cb08360000183612e7b565b905092915050565b6000612cc78360000183612f8f565b905092915050565b60008060203603356602ed57011e000081166602ed57011e00001491505080612d24576040517fe7764c9e00000000000000000000000000000000000000000000000000000000815260040160405180910390fd5b60008036905060291115612d64576040517f5796f78a00000000000000000000000000000000000000000000000000000000815260040160405180910390fd5b602936033590506000600960038362ffffff16612d819190614b2a565b612d8b9190614b2a565b90506000369050600282612d9f9190614b2a565b1115612dd7576040517fc30a7bd700000000000000000000000000000000000000000000000000000000815260040160405180910390fd5b80935050505090565b600080602083612df09190614b2a565b90506000369050811115612e30576040517f5796f78a00000000000000000000000000000000000000000000000000000000815260040160405180910390fd5b80360335915050919050565b6000806000612e4a84612fff565b91509150604e816020612e5d9190614b2a565b83612e689190613e07565b612e729190614b2a565b92505050919050565b60008083600101600084815260200190815260200160002054905060008114612f83576000600182612ead9190614c78565b9050600060018660000180549050612ec59190614c78565b9050818114612f34576000866000018281548110612ee657612ee5614cac565b5b9060005260206000200154905080876000018481548110612f0a57612f09614cac565b5b90600052602060002001819055508387600101600083815260200190815260200160002081905550505b85600001805480612f4857612f47614cdb565b5b600190038181906000526020600020016000905590558560010160008681526020019081526020016000206000905560019350505050612f89565b60009150505b92915050565b6000612f9b8383613075565b612ff4578260000182908060018154018082558091505060019003906000526020600020016000909190919091505582600001805490508360010160008481526020019081526020016000208190555060019050612ff9565b600090505b92915050565b60008060008060006041866130149190614b2a565b9050600061303b6020836130289190614b2a565b600036905061309890919063ffffffff16565b90508035935061305560038261309890919063ffffffff16565b9050803592508362ffffff1695508263ffffffff16945050505050915091565b600080836001016000848152602001908152602001600020541415905092915050565b600081836130a69190614c78565b905092915050565b6040518060800160405280606081526020016060815260200160608152602001606081525090565b6000604051905090565b600080fd5b600080fd5b6000819050919050565b6130fd816130ea565b811461310857600080fd5b50565b60008135905061311a816130f4565b92915050565b6000819050919050565b61313381613120565b811461313e57600080fd5b50565b6000813590506131508161312a565b92915050565b6000806040838503121561316d5761316c6130e0565b5b600061317b8582860161310b565b925050602061318c85828601613141565b9150509250929050565b600080fd5b600080fd5b600080fd5b60008083601f8401126131bb576131ba613196565b5b8235905067ffffffffffffffff8111156131d8576131d761319b565b5b6020830191508360208202830111156131f4576131f36131a0565b5b9250929050565b60008060008060008060008060c0898b03121561321b5761321a6130e0565b5b60006132298b828c0161310b565b985050602061323a8b828c0161310b565b975050604061324b8b828c01613141565b965050606061325c8b828c01613141565b955050608089013567ffffffffffffffff81111561327d5761327c6130e5565b5b6132898b828c016131a5565b945094505060a089013567ffffffffffffffff8111156132ac576132ab6130e5565b5b6132b88b828c016131a5565b92509250509295985092959890939650565b6000601f19601f8301169050919050565b7f4e487b7100000000000000000000000000000000000000000000000000000000600052604160045260246000fd5b613313826132ca565b810181811067ffffffffffffffff82111715613332576133316132db565b5b80604052505050565b60006133456130d6565b9050613351828261330a565b919050565b600067ffffffffffffffff821115613371576133706132db565b5b602082029050602081019050919050565b600061339561339084613356565b61333b565b905080838252602082019050602084028301858111156133b8576133b76131a0565b5b835b818110156133e157806133cd888261310b565b8452602084019350506020810190506133ba565b5050509392505050565b600082601f830112613400576133ff613196565b5b8135613410848260208601613382565b91505092915050565b60006020828403121561342f5761342e6130e0565b5b600082013567ffffffffffffffff81111561344d5761344c6130e5565b5b613459848285016133eb565b91505092915050565b600081519050919050565b600082825260208201905092915050565b6000819050602082019050919050565b61349781613120565b82525050565b60006134a9838361348e565b60208301905092915050565b6000602082019050919050565b60006134cd82613462565b6134d7818561346d565b93506134e28361347e565b8060005b838110156135135781516134fa888261349d565b9750613505836134b5565b9250506001810190506134e6565b5085935050505092915050565b6000602082019050818103600083015261353a81846134c2565b905092915050565b600060208284031215613558576135576130e0565b5b60006135668482850161310b565b91505092915050565b61357881613120565b82525050565b6000602082019050613593600083018461356f565b92915050565b600080fd5b600080fd5b600067ffffffffffffffff8211156135be576135bd6132db565b5b602082029050602081019050919050565b6000604082840312156135e5576135e4613599565b5b6135ef604061333b565b905060006135ff8482850161310b565b600083015250602061361384828501613141565b60208301525092915050565b600061363261362d846135a3565b61333b565b90508083825260208201905060408402830185811115613655576136546131a0565b5b835b8181101561367e578061366a88826135cf565b845260208401935050604081019050613657565b5050509392505050565b600082601f83011261369d5761369c613196565b5b81356136ad84826020860161361f565b91505092915050565b6000608082840312156136cc576136cb613599565b5b6136d6608061333b565b9050600082013567ffffffffffffffff8111156136f6576136f561359e565b5b61370284828501613688565b600083015250602082013567ffffffffffffffff8111156137265761372561359e565b5b61373284828501613688565b602083015250604082013567ffffffffffffffff8111156137565761375561359e565b5b61376284828501613688565b604083015250606082013567ffffffffffffffff8111156137865761378561359e565b5b61379284828501613688565b60608301525092915050565b6000602082840312156137b4576137b36130e0565b5b600082013567ffffffffffffffff8111156137d2576137d16130e5565b5b6137de848285016136b6565b91505092915050565b6000602082840312156137fd576137fc6130e0565b5b600061380b84828501613141565b91505092915050565b600081519050919050565b600082825260208201905092915050565b6000819050602082019050919050565b613849816130ea565b82525050565b6040820160008201516138656000850182613840565b506020820151613878602085018261348e565b50505050565b600061388a838361384f565b60408301905092915050565b6000602082019050919050565b60006138ae82613814565b6138b8818561381f565b93506138c383613830565b8060005b838110156138f45781516138db888261387e565b97506138e683613896565b9250506001810190506138c7565b5085935050505092915050565b6000608083016000830151848203600086015261391e82826138a3565b9150506020830151848203602086015261393882826138a3565b9150506040830151848203604086015261395282826138a3565b9150506060830151848203606086015261396c82826138a3565b9150508091505092915050565b600060208201905081810360008301526139938184613901565b905092915050565b6139a4816130ea565b82525050565b60006020820190506139bf600083018461399b565b92915050565b600073ffffffffffffffffffffffffffffffffffffffff82169050919050565b60006139f0826139c5565b9050919050565b613a00816139e5565b8114613a0b57600080fd5b50565b600081519050613a1d816139f7565b92915050565b600060208284031215613a3957613a386130e0565b5b6000613a4784828501613a0e565b91505092915050565b613a59816139e5565b82525050565b6000602082019050613a746000830184613a50565b92915050565b600081519050613a898161312a565b92915050565b600060208284031215613aa557613aa46130e0565b5b6000613ab384828501613a7a565b91505092915050565b600082825260208201905092915050565b7f5468657265206973206e6f7420656e6f7567682066756e647320746f2072657060008201527f6179000000000000000000000000000000000000000000000000000000000000602082015250565b6000613b29602283613abc565b9150613b3482613acd565b604082019050919050565b60006020820190508181036000830152613b5881613b1c565b9050919050565b6000604082019050613b74600083018561356f565b613b81602083018461356f565b9392505050565b7f5265656e7472616e637947756172643a207265656e7472616e742063616c6c00600082015250565b6000613bbe601f83613abc565b9150613bc982613b88565b602082019050919050565b60006020820190508181036000830152613bed81613bb1565b9050919050565b600060ff82169050919050565b613c0a81613bf4565b8114613c1557600080fd5b50565b600081519050613c2781613c01565b92915050565b600060208284031215613c4357613c426130e0565b5b6000613c5184828501613c18565b91505092915050565b7f4e487b7100000000000000000000000000000000000000000000000000000000600052601160045260246000fd5b60008160011c9050919050565b6000808291508390505b6001851115613ce057808604811115613cbc57613cbb613c5a565b5b6001851615613ccb5780820291505b8081029050613cd985613c89565b9450613ca0565b94509492505050565b600082613cf95760019050613db5565b81613d075760009050613db5565b8160018114613d1d5760028114613d2757613d56565b6001915050613db5565b60ff841115613d3957613d38613c5a565b5b8360020a915084821115613d5057613d4f613c5a565b5b50613db5565b5060208310610133831016604e8410600b8410161715613d8b5782820a905083811115613d8657613d85613c5a565b5b613db5565b613d988484846001613c96565b92509050818404811115613daf57613dae613c5a565b5b81810290505b9392505050565b6000613dc782613120565b9150613dd283613bf4565b9250613dff7fffffffffffffffffffffffffffffffffffffffffffffffffffffffffffffffff8484613ce9565b905092915050565b6000613e1282613120565b9150613e1d83613120565b9250828202613e2b81613120565b91508282048414831517613e4257613e41613c5a565b5b5092915050565b7f4e487b7100000000000000000000000000000000000000000000000000000000600052601260045260246000fd5b6000613e8382613120565b9150613e8e83613120565b925082613e9e57613e9d613e49565b5b828204905092915050565b6000604082019050613ebe600083018561399b565b613ecb602083018461356f565b9392505050565b7f54686520616374696f6e206d617920636175736520616e206163636f756e742060008201527f746f206265636f6d6520696e736f6c76656e7400000000000000000000000000602082015250565b6000613f2e603383613abc565b9150613f3982613ed2565b604082019050919050565b60006020820190508181036000830152613f5d81613f21565b9050919050565b7f496e73756666696369656e742061737365747320746f2066756c6c792072657060008201527f6179207468652064656274000000000000000000000000000000000000000000602082015250565b6000613fc0602b83613abc565b9150613fcb82613f64565b604082019050919050565b60006020820190508181036000830152613fef81613fb3565b9050919050565b600081519050919050565b600082825260208201905092915050565b6000819050602082019050919050565b61402b816139e5565b82525050565b600061403d8383614022565b60208301905092915050565b6000602082019050919050565b600061406182613ff6565b61406b8185614001565b935061407683614012565b8060005b838110156140a757815161408e8882614031565b975061409983614049565b92505060018101905061407a565b5085935050505092915050565b60006080830160008301516140cc600086018261348e565b5060208301516140df602086018261348e565b50604083015184820360408601526140f78282614056565b915050606083015184820360608601526141118282614056565b9150508091505092915050565b6000819050919050565b6000819050919050565b600061414d6141486141438461411e565b614128565b613120565b9050919050565b61415d81614132565b82525050565b6000606082019050818103600083015261417d81866140b4565b905061418c6020830185613a50565b6141996040830184614154565b949350505050565b60006060820190506141b6600083018661356f565b6141c3602083018561356f565b6141d0604083018461356f565b949350505050565b600081519050919050565b600082825260208201905092915050565b6000819050602082019050919050565b60006142108383613840565b60208301905092915050565b6000602082019050919050565b6000614234826141d8565b61423e81856141e3565b9350614249836141f4565b8060005b8381101561427a5781516142618882614204565b975061426c8361421c565b92505060018101905061424d565b5085935050505092915050565b600060208201905081810360008301526142a18184614229565b905092915050565b600067ffffffffffffffff8211156142c4576142c36132db565b5b602082029050602081019050919050565b60006142e86142e3846142a9565b61333b565b9050808382526020820190506020840283018581111561430b5761430a6131a0565b5b835b8181101561433457806143208882613a7a565b84526020840193505060208101905061430d565b5050509392505050565b600082601f83011261435357614352613196565b5b81516143638482602086016142d5565b91505092915050565b600060208284031215614382576143816130e0565b5b600082015167ffffffffffffffff8111156143a05761439f6130e5565b5b6143ac8482850161433e565b91505092915050565b7f474c500000000000000000000000000000000000000000000000000000000000815250565b60006040820190506143ef600083016143b5565b6143fc602083018461356f565b92915050565b600081519050614411816130f4565b92915050565b60006040828403121561442d5761442c613599565b5b614437604061333b565b9050600061444784828501614402565b600083015250602061445b84828501613a7a565b60208301525092915050565b600061447a614475846135a3565b61333b565b9050808382526020820190506040840283018581111561449d5761449c6131a0565b5b835b818110156144c657806144b28882614417565b84526020840193505060408101905061449f565b5050509392505050565b600082601f8301126144e5576144e4613196565b5b81516144f5848260208601614467565b91505092915050565b60006080828403121561451457614513613599565b5b61451e608061333b565b9050600082015167ffffffffffffffff81111561453e5761453d61359e565b5b61454a848285016144d0565b600083015250602082015167ffffffffffffffff81111561456e5761456d61359e565b5b61457a848285016144d0565b602083015250604082015167ffffffffffffffff81111561459e5761459d61359e565b5b6145aa848285016144d0565b604083015250606082015167ffffffffffffffff8111156145ce576145cd61359e565b5b6145da848285016144d0565b60608301525092915050565b6000602082840312156145fc576145fb6130e0565b5b600082015167ffffffffffffffff81111561461a576146196130e5565b5b614626848285016144fe565b91505092915050565b60008115159050919050565b6146448161462f565b82525050565b600060408201905061465f600083018561399b565b61466c602083018461463b565b9392505050565b61467c8161462f565b811461468757600080fd5b50565b60008151905061469981614673565b92915050565b6000602082840312156146b5576146b46130e0565b5b60006146c38482850161468a565b91505092915050565b7f4469616d6f6e6453746f726167654c69623a204d75737420626520636f6e747260008201527f616374206f776e65720000000000000000000000000000000000000000000000602082015250565b6000614728602983613abc565b9150614733826146cc565b604082019050919050565b600060208201905081810360008301526147578161471b565b9050919050565b60006040820190506147736000830185613a50565b614780602083018461356f565b9392505050565b600081519050919050565b600081905092915050565b60005b838110156147bb5780820151818401526020810190506147a0565b60008484015250505050565b60006147d282614787565b6147dc8185614792565b93506147ec81856020860161479d565b80840191505092915050565b600061480482846147c7565b915081905092915050565b7f5472616e7366657248656c7065723a3a73616665417070726f76653a2061707060008201527f726f7665206661696c6564000000000000000000000000000000000000000000602082015250565b600061486b602b83613abc565b91506148768261480f565b604082019050919050565b6000602082019050818103600083015261489a8161485e565b9050919050565b7f5472616e7366657248656c7065723a3a736166655472616e736665723a20747260008201527f616e73666572206661696c656400000000000000000000000000000000000000602082015250565b60006148fd602d83613abc565b9150614908826148a1565b604082019050919050565b6000602082019050818103600083015261492c816148f0565b9050919050565b7f53796d626f6c2063616e6e6f7420626520656d70747900000000000000000000600082015250565b6000614969601683613abc565b915061497482614933565b602082019050919050565b600060208201905081810360008301526149988161495c565b9050919050565b7f496e76616c696420416464726573735a65726f00000000000000000000000000600082015250565b60006149d5601383613abc565b91506149e08261499f565b602082019050919050565b60006020820190508181036000830152614a04816149c8565b9050919050565b60007fffffffff0000000000000000000000000000000000000000000000000000000082169050919050565b614a4081614a0b565b82525050565b6000602082019050614a5b6000830184614a37565b92915050565b6000606082019050614a766000830186613a50565b614a836020830185613a50565b614a90604083018461356f565b949350505050565b7f5472616e7366657248656c7065723a3a7472616e7366657246726f6d3a20747260008201527f616e7366657246726f6d206661696c6564000000000000000000000000000000602082015250565b6000614af4603183613abc565b9150614aff82614a98565b604082019050919050565b60006020820190508181036000830152614b2381614ae7565b9050919050565b6000614b3582613120565b9150614b4083613120565b9250828201905080821115614b5857614b57613c5a565b5b92915050565b600081519050919050565b6000614b7482614b5e565b614b7e8185613abc565b9350614b8e81856020860161479d565b614b97816132ca565b840191505092915050565b60006020820190508181036000830152614bbc8184614b69565b905092915050565b600082825260208201905092915050565b6000614be082614787565b614bea8185614bc4565b9350614bfa81856020860161479d565b614c03816132ca565b840191505092915050565b60006020820190508181036000830152614c288184614bd5565b905092915050565b6000614c3b82613120565b91507fffffffffffffffffffffffffffffffffffffffffffffffffffffffffffffffff8203614c6d57614c6c613c5a565b5b600182019050919050565b6000614c8382613120565b9150614c8e83613120565b9250828203905081811115614ca657614ca5613c5a565b5b92915050565b7f4e487b7100000000000000000000000000000000000000000000000000000000600052603260045260246000fd5b7f4e487b7100000000000000000000000000000000000000000000000000000000600052603160045260246000fdfea26469706673582212209962df45cf2f4a649372c6272c143c21b433927cb0aadb2d7945c99dda10bc4064736f6c63430008110033",
  "devdoc": {
    "events": {
      "Borrowed(address,bytes32,uint256,uint256)": {
        "details": "emitted when funds are borrowed from the pool",
        "params": {
          "amount": "of the borrowed funds",
          "asset": "borrowed by an= user",
          "timestamp": "time of the borrowing*",
          "user": "the address of borrower"
        }
      },
      "DebtSwap(address,address,address,uint256,uint256,uint256)": {
        "details": "emitted after a debt swap",
        "params": {
          "borrowAmount": "the amount of toToken that was borrowed",
          "fromToken": "token that was repaid",
          "repayAmount": "the amount of fromToken that was repaid",
          "timestamp": "time of debt swap*",
          "toToken": "token that was borrowed",
          "user": "the address which performed the debt swap"
        }
      },
      "Funded(address,bytes32,uint256,uint256)": {
        "details": "emitted after a loan is funded",
        "params": {
          "amount": "the amount of funds",
          "asset": "funded by a user",
          "timestamp": "time of funding*",
          "user": "the address which funded the loan"
        }
      },
      "Repaid(address,bytes32,uint256,uint256)": {
        "details": "emitted when funds are repaid to the pool",
        "params": {
          "amount": "of repaid funds",
          "asset": "asset repaid by a user",
          "timestamp": "of the repayment*",
          "user": "the address initiating repayment"
        }
      },
      "Withdrawn(address,bytes32,uint256,uint256)": {
        "details": "emitted after the funds are withdrawn from the loan",
        "params": {
          "amount": "of funds withdrawn",
          "asset": "withdrawn by a user",
          "timestamp": "of the withdrawal*",
          "user": "the address which withdraws funds from the loan"
        }
      }
    },
    "kind": "dev",
    "methods": {
      "borrow(bytes32,uint256)": {
        "details": "This function uses the redstone-evm-connector",
        "params": {
          "_amount": "of funds to borrow*",
          "_asset": "to be borrowed"
        }
      },
      "fund(bytes32,uint256)": {
        "details": "Requires approval for ERC20 token on frontend side",
        "params": {
          "_amount": "to be funded*",
          "_fundedAsset": "asset to be funded"
        }
      },
      "fundGLP(uint256)": {
        "details": "Requires approval for stakedGLP token on frontend side",
        "params": {
          "_amount": "to be funded*"
        }
      },
      "repay(bytes32,uint256)": {
        "details": "This function uses the redstone-evm-connector",
        "params": {
          "_amount": "of funds to repay*",
          "_asset": "to be repaid"
        }
      },
      "swapDebt(bytes32,bytes32,uint256,uint256,address[],address[])": {
        "details": "This function uses the redstone-evm-connector_repayAmount and __borrowAmount can be used to control the slippage.",
        "params": {
          "_adapters": "yield yak swap adapters",
          "_borrowAmount": "debt borrow amount",
          "_fromAsset": "existing debt asset",
          "_path": "yield yak swap path",
          "_repayAmount": "debt repay amount",
          "_toAsset": "new debt asset"
        }
      },
      "withdraw(bytes32,uint256)": {
        "details": "This function uses the redstone-evm-connector",
        "params": {
          "_amount": "to be withdrawn*",
          "_withdrawnAsset": "asset to be withdrawn"
        }
      },
      "withdrawGLP(uint256)": {
        "params": {
          "_amount": "to be withdrawn*"
        }
      }
    },
    "version": 1
  },
  "userdoc": {
    "kind": "user",
    "methods": {
      "borrow(bytes32,uint256)": {
        "notice": "Borrows funds from the pool"
      },
      "fund(bytes32,uint256)": {
        "notice": "Funds the loan with a specified amount of a defined token"
      },
      "fundGLP(uint256)": {
        "notice": "Funds the loan with a specified amount of a GLP"
      },
      "repay(bytes32,uint256)": {
        "notice": "Repays funds to the pool"
      },
      "swapDebt(bytes32,bytes32,uint256,uint256,address[],address[])": {
        "notice": "Swap existing debt to another debt"
      },
      "withdraw(bytes32,uint256)": {
        "notice": "Withdraws an amount of a defined asset from the loan This method could be used to cash out profits from investments The loan needs to remain solvent after the withdrawal"
      },
      "withdrawGLP(uint256)": {
        "notice": "Withdraws specified amount of a GLP"
      }
    },
    "version": 1
  },
  "storageLayout": {
    "storage": [
      {
        "astId": 7963,
        "contract": "contracts/facets/AssetsOperationsFacet.sol:AssetsOperationsFacet",
        "label": "_status",
        "offset": 0,
        "slot": "0",
        "type": "t_uint256"
      }
    ],
    "types": {
      "t_uint256": {
        "encoding": "inplace",
        "label": "uint256",
        "numberOfBytes": "32"
      }
    }
  }
}