{
  "address": "0x9f0798AF8eDb4b91301E6716948aE813Db31fb95",
  "abi": [
    {
      "inputs": [],
      "name": "resetPrimeAccountAssetsExposure",
      "outputs": [],
      "stateMutability": "nonpayable",
      "type": "function"
    },
    {
      "inputs": [],
      "name": "setPrimeAccountAssetsExposure",
      "outputs": [],
      "stateMutability": "nonpayable",
      "type": "function"
    }
  ],
  "transactionHash": "0xa32a5cbad339590c0fde43542b76db8d6b04c28ad60eca34e364e8cd6e114f6c",
  "args": [],
  "numDeployments": 1,
  "solcInputHash": "fa23c61f86cec8c7de13e8bfa631887b",
  "bytecode": "0x608060405234801561001057600080fd5b5061122e806100206000396000f3fe608060405234801561001057600080fd5b50600436106100365760003560e01c8063b1c9fbc11461003b578063e017e12514610045575b600080fd5b61004361004f565b005b61004d6105e4565b005b6000610059610b79565b90506000610065610bec565b90506000610071610bfe565b905060005b83518110156102c65760008273ffffffffffffffffffffffffffffffffffffffff166325eb876f8684815181106100b0576100af610c47565b5b602002602001015160016040518363ffffffff1660e01b81526004016100d7929190610caa565b602060405180830381865afa1580156100f4573d6000803e3d6000fd5b505050506040513d601f19601f820116820180604052508101906101189190610d36565b90508273ffffffffffffffffffffffffffffffffffffffff1663adfe6a0f86848151811061014957610148610c47565b5b60200260200101518373ffffffffffffffffffffffffffffffffffffffff1663313ce5676040518163ffffffff1660e01b8152600401602060405180830381865afa15801561019c573d6000803e3d6000fd5b505050506040513d601f19601f820116820180604052508101906101c09190610d9c565b600a6101cc9190610f35565b670de0b6b3a76400008573ffffffffffffffffffffffffffffffffffffffff166370a08231306040518263ffffffff1660e01b815260040161020e9190610f8f565b602060405180830381865afa15801561022b573d6000803e3d6000fd5b505050506040513d601f19601f8201168201806040525081019061024f9190610fd6565b6102599190611003565b6102639190611074565b6040518363ffffffff1660e01b81526004016102809291906110b4565b600060405180830381600087803b15801561029a57600080fd5b505af11580156102ae573d6000803e3d6000fd5b505050505080806102be906110dd565b915050610076565b5060005b82805490508110156105de576000803073ffffffffffffffffffffffffffffffffffffffff1685848154811061030357610302610c47565b5b906000526020600020906004020160030160009054906101000a900460e01b604051602401604051602081830303815290604052907bffffffffffffffffffffffffffffffffffffffffffffffffffffffff19166020820180517bffffffffffffffffffffffffffffffffffffffffffffffffffffffff83818316178352505050506040516103929190611196565b600060405180830381855afa9150503d80600081146103cd576040519150601f19603f3d011682016040523d82523d6000602084013e6103d2565b606091505b509150915081156105c9576000818060200190518101906103f39190610fd6565b905060008573ffffffffffffffffffffffffffffffffffffffff166325eb876f88878154811061042657610425610c47565b5b90600052602060002090600402016001015460016040518363ffffffff1660e01b8152600401610457929190610caa565b602060405180830381865afa158015610474573d6000803e3d6000fd5b505050506040513d601f19601f820116820180604052508101906104989190610d36565b73ffffffffffffffffffffffffffffffffffffffff1663313ce5676040518163ffffffff1660e01b8152600401602060405180830381865afa1580156104e2573d6000803e3d6000fd5b505050506040513d601f19601f820116820180604052508101906105069190610d9c565b60ff1690508573ffffffffffffffffffffffffffffffffffffffff1663adfe6a0f88878154811061053a57610539610c47565b5b90600052602060002090600402016002015483600a61055991906111ad565b670de0b6b3a76400008661056d9190611003565b6105779190611074565b6040518363ffffffff1660e01b81526004016105949291906110b4565b600060405180830381600087803b1580156105ae57600080fd5b505af11580156105c2573d6000803e3d6000fd5b5050505050505b505080806105d6906110dd565b9150506102ca565b50505050565b60006105ee610b79565b905060006105fa610bec565b90506000610606610bfe565b905060005b835181101561085b5760008273ffffffffffffffffffffffffffffffffffffffff166325eb876f86848151811061064557610644610c47565b5b602002602001015160016040518363ffffffff1660e01b815260040161066c929190610caa565b602060405180830381865afa158015610689573d6000803e3d6000fd5b505050506040513d601f19601f820116820180604052508101906106ad9190610d36565b90508273ffffffffffffffffffffffffffffffffffffffff1663c3cc6c7a8684815181106106de576106dd610c47565b5b60200260200101518373ffffffffffffffffffffffffffffffffffffffff1663313ce5676040518163ffffffff1660e01b8152600401602060405180830381865afa158015610731573d6000803e3d6000fd5b505050506040513d601f19601f820116820180604052508101906107559190610d9c565b600a6107619190610f35565b670de0b6b3a76400008573ffffffffffffffffffffffffffffffffffffffff166370a08231306040518263ffffffff1660e01b81526004016107a39190610f8f565b602060405180830381865afa1580156107c0573d6000803e3d6000fd5b505050506040513d601f19601f820116820180604052508101906107e49190610fd6565b6107ee9190611003565b6107f89190611074565b6040518363ffffffff1660e01b81526004016108159291906110b4565b600060405180830381600087803b15801561082f57600080fd5b505af1158015610843573d6000803e3d6000fd5b50505050508080610853906110dd565b91505061060b565b5060005b8280549050811015610b73576000803073ffffffffffffffffffffffffffffffffffffffff1685848154811061089857610897610c47565b5b906000526020600020906004020160030160009054906101000a900460e01b604051602401604051602081830303815290604052907bffffffffffffffffffffffffffffffffffffffffffffffffffffffff19166020820180517bffffffffffffffffffffffffffffffffffffffffffffffffffffffff83818316178352505050506040516109279190611196565b600060405180830381855afa9150503d8060008114610962576040519150601f19603f3d011682016040523d82523d6000602084013e610967565b606091505b50915091508115610b5e576000818060200190518101906109889190610fd6565b905060008573ffffffffffffffffffffffffffffffffffffffff166325eb876f8887815481106109bb576109ba610c47565b5b90600052602060002090600402016001015460016040518363ffffffff1660e01b81526004016109ec929190610caa565b602060405180830381865afa158015610a09573d6000803e3d6000fd5b505050506040513d601f19601f82011682018060405250810190610a2d9190610d36565b73ffffffffffffffffffffffffffffffffffffffff1663313ce5676040518163ffffffff1660e01b8152600401602060405180830381865afa158015610a77573d6000803e3d6000fd5b505050506040513d601f19601f82011682018060405250810190610a9b9190610d9c565b60ff1690508573ffffffffffffffffffffffffffffffffffffffff1663c3cc6c7a888781548110610acf57610ace610c47565b5b90600052602060002090600402016002015483600a610aee91906111ad565b670de0b6b3a764000086610b029190611003565b610b0c9190611074565b6040518363ffffffff1660e01b8152600401610b299291906110b4565b600060405180830381600087803b158015610b4357600080fd5b505af1158015610b57573d6000803e3d6000fd5b5050505050505b50508080610b6b906110dd565b91505061085f565b50505050565b60606000610b85610c1a565b905080600401600001600001600001600001805480602002602001604051908101604052809291908181526020018280548015610be157602002820191906000526020600020905b815481526020019060010190808311610bcd575b505050505091505090565b6000610bf6610c1a565b600701905090565b600073f3978209b7cff2b90100c6f87cec77de928ed58e905090565b6000807f8d5bb42e0ac1496a2c326edc9c00758985246e6c2bb146d6c2f4a0d509e0960a90508091505090565b7f4e487b7100000000000000000000000000000000000000000000000000000000600052603260045260246000fd5b6000819050919050565b610c8981610c76565b82525050565b60008115159050919050565b610ca481610c8f565b82525050565b6000604082019050610cbf6000830185610c80565b610ccc6020830184610c9b565b9392505050565b600080fd5b600073ffffffffffffffffffffffffffffffffffffffff82169050919050565b6000610d0382610cd8565b9050919050565b610d1381610cf8565b8114610d1e57600080fd5b50565b600081519050610d3081610d0a565b92915050565b600060208284031215610d4c57610d4b610cd3565b5b6000610d5a84828501610d21565b91505092915050565b600060ff82169050919050565b610d7981610d63565b8114610d8457600080fd5b50565b600081519050610d9681610d70565b92915050565b600060208284031215610db257610db1610cd3565b5b6000610dc084828501610d87565b91505092915050565b7f4e487b7100000000000000000000000000000000000000000000000000000000600052601160045260246000fd5b60008160011c9050919050565b6000808291508390505b6001851115610e4f57808604811115610e2b57610e2a610dc9565b5b6001851615610e3a5780820291505b8081029050610e4885610df8565b9450610e0f565b94509492505050565b600082610e685760019050610f24565b81610e765760009050610f24565b8160018114610e8c5760028114610e9657610ec5565b6001915050610f24565b60ff841115610ea857610ea7610dc9565b5b8360020a915084821115610ebf57610ebe610dc9565b5b50610f24565b5060208310610133831016604e8410600b8410161715610efa5782820a905083811115610ef557610ef4610dc9565b5b610f24565b610f078484846001610e05565b92509050818404811115610f1e57610f1d610dc9565b5b81810290505b9392505050565b6000819050919050565b6000610f4082610f2b565b9150610f4b83610d63565b9250610f787fffffffffffffffffffffffffffffffffffffffffffffffffffffffffffffffff8484610e58565b905092915050565b610f8981610cf8565b82525050565b6000602082019050610fa46000830184610f80565b92915050565b610fb381610f2b565b8114610fbe57600080fd5b50565b600081519050610fd081610faa565b92915050565b600060208284031215610fec57610feb610cd3565b5b6000610ffa84828501610fc1565b91505092915050565b600061100e82610f2b565b915061101983610f2b565b925082820261102781610f2b565b9150828204841483151761103e5761103d610dc9565b5b5092915050565b7f4e487b7100000000000000000000000000000000000000000000000000000000600052601260045260246000fd5b600061107f82610f2b565b915061108a83610f2b565b92508261109a57611099611045565b5b828204905092915050565b6110ae81610f2b565b82525050565b60006040820190506110c96000830185610c80565b6110d660208301846110a5565b9392505050565b60006110e882610f2b565b91507fffffffffffffffffffffffffffffffffffffffffffffffffffffffffffffffff820361111a57611119610dc9565b5b600182019050919050565b600081519050919050565b600081905092915050565b60005b8381101561115957808201518184015260208101905061113e565b60008484015250505050565b600061117082611125565b61117a8185611130565b935061118a81856020860161113b565b80840191505092915050565b60006111a28284611165565b915081905092915050565b60006111b882610f2b565b91506111c383610f2b565b92506111f07fffffffffffffffffffffffffffffffffffffffffffffffffffffffffffffffff8484610e58565b90509291505056fea2646970667358221220e634962e28811c6f212b804c7ac2950a76a8dc2e1c5dd42ac273fe767afd206e64736f6c63430008110033",
  "devdoc": {
    "kind": "dev",
    "methods": {},
    "version": 1
  },
  "userdoc": {
    "kind": "user",
    "methods": {},
    "version": 1
  },
  "storageLayout": {
    "storage": [],
    "types": null
  }
}