{
  "address": "0x5ddeb4AcFC36DC92A581E4154ab97335fbd4d064",
  "abi": [
    {
      "inputs": [],
      "name": "CalldataMustHaveValidPayload",
      "type": "error"
    },
    {
      "inputs": [],
      "name": "CalldataOverOrUnderFlow",
      "type": "error"
    },
    {
      "inputs": [],
      "name": "EachSignerMustProvideTheSameValue",
      "type": "error"
    },
    {
      "inputs": [],
      "name": "EmptyCalldataPointersArr",
      "type": "error"
    },
    {
      "inputs": [],
      "name": "IncorrectUnsignedMetadataSize",
      "type": "error"
    },
    {
      "inputs": [
        {
          "internalType": "uint256",
          "name": "receviedSignersCount",
          "type": "uint256"
        },
        {
          "internalType": "uint256",
          "name": "requiredSignersCount",
          "type": "uint256"
        }
      ],
      "name": "InsufficientNumberOfUniqueSigners",
      "type": "error"
    },
    {
      "inputs": [],
      "name": "InvalidCalldataPointer",
      "type": "error"
    },
    {
      "inputs": [
        {
          "internalType": "bytes",
          "name": "result",
          "type": "bytes"
        }
      ],
      "name": "ProxyCalldataFailedWithCustomError",
      "type": "error"
    },
    {
      "inputs": [
        {
          "internalType": "string",
          "name": "message",
          "type": "string"
        }
      ],
      "name": "ProxyCalldataFailedWithStringMessage",
      "type": "error"
    },
    {
      "inputs": [],
      "name": "ProxyCalldataFailedWithoutErrMsg",
      "type": "error"
    },
    {
      "inputs": [
        {
          "internalType": "address",
          "name": "receivedSigner",
          "type": "address"
        }
      ],
      "name": "SignerNotAuthorised",
      "type": "error"
    },
    {
      "anonymous": false,
      "inputs": [
        {
          "indexed": true,
          "internalType": "address",
          "name": "user",
          "type": "address"
        },
        {
          "indexed": true,
          "internalType": "bytes32",
          "name": "asset",
          "type": "bytes32"
        },
        {
          "indexed": false,
          "internalType": "uint256",
          "name": "amount",
          "type": "uint256"
        },
        {
          "indexed": false,
          "internalType": "uint256",
          "name": "timestamp",
          "type": "uint256"
        }
      ],
      "name": "Borrowed",
      "type": "event"
    },
    {
      "anonymous": false,
      "inputs": [
        {
          "indexed": true,
          "internalType": "address",
          "name": "user",
          "type": "address"
        },
        {
          "indexed": true,
          "internalType": "bytes32",
          "name": "asset",
          "type": "bytes32"
        },
        {
          "indexed": false,
          "internalType": "uint256",
          "name": "amount",
          "type": "uint256"
        },
        {
          "indexed": false,
          "internalType": "uint256",
          "name": "timestamp",
          "type": "uint256"
        }
      ],
      "name": "Funded",
      "type": "event"
    },
    {
      "anonymous": false,
      "inputs": [
        {
          "indexed": true,
          "internalType": "address",
          "name": "user",
          "type": "address"
        },
        {
          "indexed": true,
          "internalType": "bytes32",
          "name": "asset",
          "type": "bytes32"
        },
        {
          "indexed": false,
          "internalType": "uint256",
          "name": "amount",
          "type": "uint256"
        },
        {
          "indexed": false,
          "internalType": "uint256",
          "name": "timestamp",
          "type": "uint256"
        }
      ],
      "name": "Repaid",
      "type": "event"
    },
    {
      "anonymous": false,
      "inputs": [
        {
          "indexed": true,
          "internalType": "address",
          "name": "user",
          "type": "address"
        },
        {
          "indexed": true,
          "internalType": "bytes32",
          "name": "asset",
          "type": "bytes32"
        },
        {
          "indexed": false,
          "internalType": "uint256",
          "name": "amount",
          "type": "uint256"
        },
        {
          "indexed": false,
          "internalType": "uint256",
          "name": "timestamp",
          "type": "uint256"
        }
      ],
      "name": "Withdrawn",
      "type": "event"
    },
    {
      "inputs": [
        {
          "internalType": "bytes32[]",
          "name": "assetsToRepay",
          "type": "bytes32[]"
        }
      ],
      "name": "_getAllPricesForLiquidation",
      "outputs": [
        {
          "components": [
            {
              "components": [
                {
                  "internalType": "bytes32",
                  "name": "asset",
                  "type": "bytes32"
                },
                {
                  "internalType": "uint256",
                  "name": "price",
                  "type": "uint256"
                }
              ],
              "internalType": "struct SolvencyFacetProd.AssetPrice[]",
              "name": "ownedAssetsPrices",
              "type": "tuple[]"
            },
            {
              "components": [
                {
                  "internalType": "bytes32",
                  "name": "asset",
                  "type": "bytes32"
                },
                {
                  "internalType": "uint256",
                  "name": "price",
                  "type": "uint256"
                }
              ],
              "internalType": "struct SolvencyFacetProd.AssetPrice[]",
              "name": "debtAssetsPrices",
              "type": "tuple[]"
            },
            {
              "components": [
                {
                  "internalType": "bytes32",
                  "name": "asset",
                  "type": "bytes32"
                },
                {
                  "internalType": "uint256",
                  "name": "price",
                  "type": "uint256"
                }
              ],
              "internalType": "struct SolvencyFacetProd.AssetPrice[]",
              "name": "stakedPositionsPrices",
              "type": "tuple[]"
            },
            {
              "components": [
                {
                  "internalType": "bytes32",
                  "name": "asset",
                  "type": "bytes32"
                },
                {
                  "internalType": "uint256",
                  "name": "price",
                  "type": "uint256"
                }
              ],
              "internalType": "struct SolvencyFacetProd.AssetPrice[]",
              "name": "assetsToRepayPrices",
              "type": "tuple[]"
            }
          ],
          "internalType": "struct SolvencyFacetProd.CachedPrices",
          "name": "result",
          "type": "tuple"
        }
      ],
      "stateMutability": "nonpayable",
      "type": "function"
    },
    {
      "inputs": [],
      "name": "_getHealthRatio",
      "outputs": [
        {
          "internalType": "uint256",
          "name": "health",
          "type": "uint256"
        }
      ],
      "stateMutability": "nonpayable",
      "type": "function"
    },
    {
      "inputs": [
        {
          "components": [
            {
              "components": [
                {
                  "internalType": "bytes32",
                  "name": "asset",
                  "type": "bytes32"
                },
                {
                  "internalType": "uint256",
                  "name": "price",
                  "type": "uint256"
                }
              ],
              "internalType": "struct SolvencyFacetProd.AssetPrice[]",
              "name": "ownedAssetsPrices",
              "type": "tuple[]"
            },
            {
              "components": [
                {
                  "internalType": "bytes32",
                  "name": "asset",
                  "type": "bytes32"
                },
                {
                  "internalType": "uint256",
                  "name": "price",
                  "type": "uint256"
                }
              ],
              "internalType": "struct SolvencyFacetProd.AssetPrice[]",
              "name": "debtAssetsPrices",
              "type": "tuple[]"
            },
            {
              "components": [
                {
                  "internalType": "bytes32",
                  "name": "asset",
                  "type": "bytes32"
                },
                {
                  "internalType": "uint256",
                  "name": "price",
                  "type": "uint256"
                }
              ],
              "internalType": "struct SolvencyFacetProd.AssetPrice[]",
              "name": "stakedPositionsPrices",
              "type": "tuple[]"
            },
            {
              "components": [
                {
                  "internalType": "bytes32",
                  "name": "asset",
                  "type": "bytes32"
                },
                {
                  "internalType": "uint256",
                  "name": "price",
                  "type": "uint256"
                }
              ],
              "internalType": "struct SolvencyFacetProd.AssetPrice[]",
              "name": "assetsToRepayPrices",
              "type": "tuple[]"
            }
          ],
          "internalType": "struct SolvencyFacetProd.CachedPrices",
          "name": "cachedPrices",
          "type": "tuple"
        }
      ],
      "name": "_getHealthRatioWithPrices",
      "outputs": [
        {
          "internalType": "uint256",
          "name": "health",
          "type": "uint256"
        }
      ],
      "stateMutability": "nonpayable",
      "type": "function"
    },
    {
      "inputs": [],
      "name": "_resetPrimeAccountAssetsExposure",
      "outputs": [],
      "stateMutability": "nonpayable",
      "type": "function"
    },
    {
      "inputs": [],
      "name": "_setPrimeAccountAssetsExposure",
      "outputs": [],
      "stateMutability": "nonpayable",
      "type": "function"
    },
    {
      "inputs": [
        {
          "internalType": "bytes32",
          "name": "_asset",
          "type": "bytes32"
        },
        {
          "internalType": "uint256",
          "name": "_amount",
          "type": "uint256"
        }
      ],
      "name": "borrow",
      "outputs": [],
      "stateMutability": "nonpayable",
      "type": "function"
    },
    {
      "inputs": [
        {
          "internalType": "bytes32",
          "name": "_fundedAsset",
          "type": "bytes32"
        },
        {
          "internalType": "uint256",
          "name": "_amount",
          "type": "uint256"
        }
      ],
      "name": "fund",
      "outputs": [],
      "stateMutability": "nonpayable",
      "type": "function"
    },
    {
      "inputs": [
        {
          "internalType": "bytes32",
          "name": "symbol",
          "type": "bytes32"
        }
      ],
      "name": "getPrice",
      "outputs": [
        {
          "internalType": "uint256",
          "name": "price",
          "type": "uint256"
        }
      ],
      "stateMutability": "nonpayable",
      "type": "function"
    },
    {
      "inputs": [
        {
          "internalType": "bytes32[]",
          "name": "symbols",
          "type": "bytes32[]"
        }
      ],
      "name": "getPrices",
      "outputs": [
        {
          "internalType": "uint256[]",
          "name": "prices",
          "type": "uint256[]"
        }
      ],
      "stateMutability": "nonpayable",
      "type": "function"
    },
    {
      "inputs": [
        {
          "internalType": "bytes32",
          "name": "_asset",
          "type": "bytes32"
        },
        {
          "internalType": "uint256",
          "name": "_amount",
          "type": "uint256"
        }
      ],
      "name": "repay",
      "outputs": [],
      "stateMutability": "payable",
      "type": "function"
    },
    {
      "inputs": [
        {
          "internalType": "bytes32",
          "name": "_withdrawnAsset",
          "type": "bytes32"
        },
        {
          "internalType": "uint256",
          "name": "_amount",
          "type": "uint256"
        }
      ],
      "name": "withdraw",
      "outputs": [],
      "stateMutability": "nonpayable",
      "type": "function"
    }
  ],
  "transactionHash": "0x54d72330e31d76801b8e5ed743caed8984caab375e04ad3f50d8cc945c673ac5",
  "args": [],
  "numDeployments": 4,
  "solcInputHash": "fa23c61f86cec8c7de13e8bfa631887b",
  "bytecode": "0x608060405234801561001057600080fd5b506001600081905550613ce6806100286000396000f3fe60806040526004361061009b5760003560e01c80635b4fad9c116100645780635b4fad9c1461018a5780636e3bfe9f146101a15780637c93ec30146101de578063b2d40e7314610207578063e46bbc9e14610244578063f8f185531461026d5761009b565b8062f989ad146100a0578063040cf020146100bc57806326ee4836146100e557806331d98b3f1461012257806339e2719e1461015f575b600080fd5b6100ba60048036038101906100b591906123f0565b610284565b005b3480156100c857600080fd5b506100e360048036038101906100de91906123f0565b610613565b005b3480156100f157600080fd5b5061010c60048036038101906101079190612589565b610989565b6040516101199190612690565b60405180910390f35b34801561012e57600080fd5b50610149600480360381019061014491906126b2565b610a33565b60405161015691906126ee565b60405180910390f35b34801561016b57600080fd5b50610174610add565b60405161018191906126ee565b60405180910390f35b34801561019657600080fd5b5061019f610b7a565b005b3480156101ad57600080fd5b506101c860048036038101906101c3919061290e565b610c00565b6040516101d591906126ee565b60405180910390f35b3480156101ea57600080fd5b50610205600480360381019061020091906123f0565b610caa565b005b34801561021357600080fd5b5061022e60048036038101906102299190612589565b610ef8565b60405161023b9190612abc565b60405180910390f35b34801561025057600080fd5b5061026b600480360381019061026691906123f0565b610fa8565b005b34801561027957600080fd5b506102826111d9565b005b600061029183600161125f565b905061029b6112ec565b156102a9576102a8611389565b5b60006102b3611424565b73ffffffffffffffffffffffffffffffffffffffff16630edc25b6856040518263ffffffff1660e01b81526004016102eb9190612aed565b602060405180830381865afa158015610308573d6000803e3d6000fd5b505050506040513d601f19601f8201168201806040525081019061032c9190612b66565b90506103b1838273ffffffffffffffffffffffffffffffffffffffff16636011163e306040518263ffffffff1660e01b815260040161036b9190612ba2565b602060405180830381865afa158015610388573d6000803e3d6000fd5b505050506040513d601f19601f820116820180604052508101906103ac9190612bd2565b611440565b9250828273ffffffffffffffffffffffffffffffffffffffff166370a08231306040518263ffffffff1660e01b81526004016103ed9190612ba2565b602060405180830381865afa15801561040a573d6000803e3d6000fd5b505050506040513d601f19601f8201168201806040525081019061042e9190612bd2565b101561046f576040517f08c379a000000000000000000000000000000000000000000000000000000000815260040161046690612c82565b60405180910390fd5b61049b8160008473ffffffffffffffffffffffffffffffffffffffff166114599092919063ffffffff16565b6104c681848473ffffffffffffffffffffffffffffffffffffffff166114599092919063ffffffff16565b8073ffffffffffffffffffffffffffffffffffffffff1663371fd8e6846040518263ffffffff1660e01b81526004016104ff91906126ee565b600060405180830381600087803b15801561051957600080fd5b505af115801561052d573d6000803e3d6000fd5b5050505060008273ffffffffffffffffffffffffffffffffffffffff166370a08231306040518263ffffffff1660e01b815260040161056c9190612ba2565b602060405180830381865afa158015610589573d6000803e3d6000fd5b505050506040513d601f19601f820116820180604052508101906105ad9190612bd2565b036105bc576105bb8461158f565b5b833373ffffffffffffffffffffffffffffffffffffffff167fa2f4fa14f0b0fee8b10babfdacfbfff6d29bbce82209ad5e7b2ac1dc2c35ab9b8542604051610605929190612ca2565b60405180910390a350505050565b61061b611389565b60006106256115ad565b9050600281600001540361066e576040517f08c379a000000000000000000000000000000000000000000000000000000000815260040161066590612d17565b60405180910390fd5b60028160000181905550600061068584600161125f565b905082610691856115da565b10156106d2576040517f08c379a00000000000000000000000000000000000000000000000000000000081526004016106c990612da9565b60405180910390fd5b6106fd33848373ffffffffffffffffffffffffffffffffffffffff166116e59092919063ffffffff16565b60008173ffffffffffffffffffffffffffffffffffffffff166370a08231306040518263ffffffff1660e01b81526004016107389190612ba2565b602060405180830381865afa158015610755573d6000803e3d6000fd5b505050506040513d601f19601f820116820180604052508101906107799190612bd2565b03610788576107878461158f565b5b6000610792611424565b90508073ffffffffffffffffffffffffffffffffffffffff1663adfe6a0f868473ffffffffffffffffffffffffffffffffffffffff1663313ce5676040518163ffffffff1660e01b8152600401602060405180830381865afa1580156107fc573d6000803e3d6000fd5b505050506040513d601f19601f820116820180604052508101906108209190612e02565b600a61082c9190612f91565b670de0b6b3a7640000886108409190612fdc565b61084a919061304d565b6040518363ffffffff1660e01b815260040161086792919061307e565b600060405180830381600087803b15801561088157600080fd5b505af1158015610895573d6000803e3d6000fd5b50505050843373ffffffffffffffffffffffffffffffffffffffff167f2c2b206b9475386bb995c366956ade2de7bd0e3208dd1fb3833c280929a9300586426040516108e2929190612ca2565b60405180910390a350506108f46112ec565b610933576040517f08c379a000000000000000000000000000000000000000000000000000000000815260040161092a90613119565b60405180910390fd5b61093b61181b565b61097a576040517f08c379a0000000000000000000000000000000000000000000000000000000008152600401610971906131ab565b60405180910390fd5b60018160000181905550505050565b6060610a1961099e6326ee483660e01b6118b8565b6326ee483660e01b846040516024016109b7919061327a565b604051602081830303815290604052907bffffffffffffffffffffffffffffffffffffffffffffffffffffffff19166020820180517bffffffffffffffffffffffffffffffffffffffffffffffffffffffff8381831617835250505050611942565b806020019051810190610a2c919061335f565b9050919050565b6000610ac3610a486331d98b3f60e01b6118b8565b6331d98b3f60e01b84604051602401610a619190612aed565b604051602081830303815290604052907bffffffffffffffffffffffffffffffffffffffffffffffffffffffff19166020820180517bffffffffffffffffffffffffffffffffffffffffffffffffffffffff8381831617835250505050611942565b806020019051810190610ad69190612bd2565b9050919050565b6000610b62610af2637914334f60e01b6118b8565b637914334f60e01b604051602401604051602081830303815290604052907bffffffffffffffffffffffffffffffffffffffffffffffffffffffff19166020820180517bffffffffffffffffffffffffffffffffffffffffffffffffffffffff8381831617835250505050611942565b806020019051810190610b759190612bd2565b905090565b610bfd610b8d63b1c9fbc160e01b6118b8565b63b1c9fbc160e01b604051602401604051602081830303815290604052907bffffffffffffffffffffffffffffffffffffffffffffffffffffffff19166020820180517bffffffffffffffffffffffffffffffffffffffffffffffffffffffff8381831617835250505050611942565b50565b6000610c90610c1563360398a360e01b6118b8565b63360398a360e01b84604051602401610c2e9190612abc565b604051602081830303815290604052907bffffffffffffffffffffffffffffffffffffffffffffffffffffffff19166020820180517bffffffffffffffffffffffffffffffffffffffffffffffffffffffff8381831617835250505050611942565b806020019051810190610ca39190612bd2565b9050919050565b610cb2611389565b6000610cbc6119d3565b90504281600601819055506000610cd1611424565b905060008173ffffffffffffffffffffffffffffffffffffffff16630edc25b6866040518263ffffffff1660e01b8152600401610d0e9190612aed565b602060405180830381865afa158015610d2b573d6000803e3d6000fd5b505050506040513d601f19601f82011682018060405250810190610d4f9190612b66565b90508073ffffffffffffffffffffffffffffffffffffffff1663c5ebeaec856040518263ffffffff1660e01b8152600401610d8a91906126ee565b600060405180830381600087803b158015610da457600080fd5b505af1158015610db8573d6000803e3d6000fd5b505050506000610dc986600061125f565b905060008173ffffffffffffffffffffffffffffffffffffffff166370a08231306040518263ffffffff1660e01b8152600401610e069190612ba2565b602060405180830381865afa158015610e23573d6000803e3d6000fd5b505050506040513d601f19601f82011682018060405250810190610e479190612bd2565b1115610e5857610e578682611a00565b5b853373ffffffffffffffffffffffffffffffffffffffff167fb44d1174a7e8b37725504ef78b9e681eb337ec859b8829dafb4a817ac9ab7c3f8742604051610ea1929190612ca2565b60405180910390a350505050610eb56112ec565b610ef4576040517f08c379a0000000000000000000000000000000000000000000000000000000008152600401610eeb90613119565b60405180910390fd5b5050565b610f00612348565b610f8e610f1363a3aa8d1e60e01b6118b8565b63a3aa8d1e60e01b84604051602401610f2c919061327a565b604051602081830303815290604052907bffffffffffffffffffffffffffffffffffffffffffffffffffffffff19166020820180517bffffffffffffffffffffffffffffffffffffffffffffffffffffffff8381831617835250505050611942565b806020019051810190610fa1919061358c565b9050919050565b6000610fb583600061125f565b9050610fe43330848473ffffffffffffffffffffffffffffffffffffffff16611ad2909392919063ffffffff16565b60008173ffffffffffffffffffffffffffffffffffffffff166370a08231306040518263ffffffff1660e01b815260040161101f9190612ba2565b602060405180830381865afa15801561103c573d6000803e3d6000fd5b505050506040513d601f19601f820116820180604052508101906110609190612bd2565b1115611071576110708382611a00565b5b600061107b611424565b90508073ffffffffffffffffffffffffffffffffffffffff1663c3cc6c7a858473ffffffffffffffffffffffffffffffffffffffff1663313ce5676040518163ffffffff1660e01b8152600401602060405180830381865afa1580156110e5573d6000803e3d6000fd5b505050506040513d601f19601f820116820180604052508101906111099190612e02565b600a6111159190612f91565b670de0b6b3a7640000876111299190612fdc565b611133919061304d565b6040518363ffffffff1660e01b815260040161115092919061307e565b600060405180830381600087803b15801561116a57600080fd5b505af115801561117e573d6000803e3d6000fd5b50505050833373ffffffffffffffffffffffffffffffffffffffff167f2d66a92de57f2082107528ba4d5d87f02f49967bfc7aab0013f4d6646103354785426040516111cb929190612ca2565b60405180910390a350505050565b61125c6111ec63e017e12560e01b6118b8565b63e017e12560e01b604051602401604051602081830303815290604052907bffffffffffffffffffffffffffffffffffffffffffffffffffffffff19166020820180517bffffffffffffffffffffffffffffffffffffffffffffffffffffffff8381831617835250505050611942565b50565b6000611269611424565b73ffffffffffffffffffffffffffffffffffffffff166325eb876f84846040518363ffffffff1660e01b81526004016112a39291906135f0565b602060405180830381865afa1580156112c0573d6000803e3d6000fd5b505050506040513d601f19601f820116820180604052508101906112e49190612b66565b905092915050565b6000611371611301635ce2395060e01b6118b8565b635ce2395060e01b604051602401604051602081830303815290604052907bffffffffffffffffffffffffffffffffffffffffffffffffffffffff19166020820180517bffffffffffffffffffffffffffffffffffffffffffffffffffffffff8381831617835250505050611942565b8060200190518101906113849190613645565b905090565b611391611c0b565b60010160009054906101000a900473ffffffffffffffffffffffffffffffffffffffff1673ffffffffffffffffffffffffffffffffffffffff163373ffffffffffffffffffffffffffffffffffffffff1614611422576040517f08c379a0000000000000000000000000000000000000000000000000000000008152600401611419906136e4565b60405180910390fd5b565b600073f3978209b7cff2b90100c6f87cec77de928ed58e905090565b600081831061144f5781611451565b825b905092915050565b6000808473ffffffffffffffffffffffffffffffffffffffff1663095ea7b3858560405160240161148b929190613704565b6040516020818303038152906040529060e01b6020820180517bffffffffffffffffffffffffffffffffffffffffffffffffffffffff83818316178352505050506040516114d9919061379e565b6000604051808303816000865af19150503d8060008114611516576040519150601f19603f3d011682016040523d82523d6000602084013e61151b565b606091505b509150915081801561154957506000815114806115485750808060200190518101906115479190613645565b5b5b611588576040517f08c379a000000000000000000000000000000000000000000000000000000000815260040161157f90613827565b60405180910390fd5b5050505050565b6000611599611c0b565b90506115a88160040183611c38565b505050565b6000807f1c85eba10a4cf2d29c83fc15f97931886b9fd3caeb70d8c377aeedc58b919e3b90508091505090565b6000806115e5611424565b73ffffffffffffffffffffffffffffffffffffffff166325eb876f8460016040518363ffffffff1660e01b81526004016116209291906135f0565b602060405180830381865afa15801561163d573d6000803e3d6000fd5b505050506040513d601f19601f820116820180604052508101906116619190612b66565b90508073ffffffffffffffffffffffffffffffffffffffff166370a08231306040518263ffffffff1660e01b815260040161169c9190612ba2565b602060405180830381865afa1580156116b9573d6000803e3d6000fd5b505050506040513d601f19601f820116820180604052508101906116dd9190612bd2565b915050919050565b6000808473ffffffffffffffffffffffffffffffffffffffff1663a9059cbb8585604051602401611717929190613704565b6040516020818303038152906040529060e01b6020820180517bffffffffffffffffffffffffffffffffffffffffffffffffffffffff8381831617835250505050604051611765919061379e565b6000604051808303816000865af19150503d80600081146117a2576040519150601f19603f3d011682016040523d82523d6000602084013e6117a7565b606091505b50915091508180156117d557506000815114806117d45750808060200190518101906117d39190613645565b5b5b611814576040517f08c379a000000000000000000000000000000000000000000000000000000000815260040161180b906138b9565b60405180910390fd5b5050505050565b60006118a0611830633942a52e60e01b6118b8565b633942a52e60e01b604051602401604051602081830303815290604052907bffffffffffffffffffffffffffffffffffffffffffffffffffffffff19166020820180517bffffffffffffffffffffffffffffffffffffffffffffffffffffffff8381831617835250505050611942565b8060200190518101906118b39190613645565b905090565b60006118c2611c4f565b73ffffffffffffffffffffffffffffffffffffffff16630d741577836040518263ffffffff1660e01b81526004016118fa9190613914565b602060405180830381865afa158015611917573d6000803e3d6000fd5b505050506040513d601f19601f8201168201806040525081019061193b9190612b66565b9050919050565b6060600061194f83611c6b565b90506000808573ffffffffffffffffffffffffffffffffffffffff1683604051611979919061379e565b600060405180830381855af49150503d80600081146119b4576040519150601f19603f3d011682016040523d82523d6000602084013e6119b9565b606091505b50915091506119c88282611d25565b935050505092915050565b6000807fc8fcad8db84d3cc18b4c41d551ea0ee66dd599cde068d998e57d5e09332c131c90508091505090565b60008203611a43576040517f08c379a0000000000000000000000000000000000000000000000000000000008152600401611a3a9061397b565b60405180910390fd5b600073ffffffffffffffffffffffffffffffffffffffff168173ffffffffffffffffffffffffffffffffffffffff1603611ab2576040517f08c379a0000000000000000000000000000000000000000000000000000000008152600401611aa9906139e7565b60405180910390fd5b6000611abc611c0b565b9050611acc816004018484611e25565b50505050565b6000808573ffffffffffffffffffffffffffffffffffffffff166323b872dd868686604051602401611b0693929190613a07565b6040516020818303038152906040529060e01b6020820180517bffffffffffffffffffffffffffffffffffffffffffffffffffffffff8381831617835250505050604051611b54919061379e565b6000604051808303816000865af19150503d8060008114611b91576040519150601f19603f3d011682016040523d82523d6000602084013e611b96565b606091505b5091509150818015611bc45750600081511480611bc3575080806020019051810190611bc29190613645565b5b5b611c03576040517f08c379a0000000000000000000000000000000000000000000000000000000008152600401611bfa90613ab0565b60405180910390fd5b505050505050565b6000807f8d5bb42e0ac1496a2c326edc9c00758985246e6c2bb146d6c2f4a0d509e0960a90508091505090565b6000611c478360000183611e57565b905092915050565b6000732916b3bf7c35bd21e63d01c93c62fb0d4994e56d905090565b60606000825190506000611c7d611e90565b905060008183611c8d9190613ad0565b90506000369050821115611ccd576040517f5796f78a00000000000000000000000000000000000000000000000000000000815260040160405180910390fd5b6060604051905081815285602001848101826020015b81831015611d005782518152602083019250602081019050611ce3565b5050508283360385602001830137602084840182010160405280945050505050919050565b606082611e1c576000825103611d67576040517f567fe27a00000000000000000000000000000000000000000000000000000000815260040160405180910390fd5b600060208301517f08c379a00000000000000000000000000000000000000000000000000000000081149150508015611ddf576060604484019050806040517f0f7e8278000000000000000000000000000000000000000000000000000000008152600401611dd69190613b48565b60405180910390fd5b826040517ffd36fde3000000000000000000000000000000000000000000000000000000008152600401611e139190613bb4565b60405180910390fd5b81905092915050565b6000611e4e84600001848473ffffffffffffffffffffffffffffffffffffffff1660001b611f00565b90509392505050565b600082600201600083815260200190815260200160002060009055611e888284600001611f3b90919063ffffffff16565b905092915050565b600080611e9b611f52565b90506000611ea882612063565b61ffff169050600282611ebb9190613ad0565b915060005b81811015611ef7576000611ed3846120bf565b90508084611ee19190613ad0565b9350508080611eef90613bd6565b915050611ec0565b50819250505090565b60008184600201600085815260200190815260200160002081905550611f3283856000016120fe90919063ffffffff16565b90509392505050565b6000611f4a8360000183612115565b905092915050565b60008060203603356602ed57011e000081166602ed57011e00001491505080611fa7576040517fe7764c9e00000000000000000000000000000000000000000000000000000000815260040160405180910390fd5b60008036905060291115611fe7576040517f5796f78a00000000000000000000000000000000000000000000000000000000815260040160405180910390fd5b602936033590506000600960038362ffffff166120049190613ad0565b61200e9190613ad0565b905060003690506002826120229190613ad0565b111561205a576040517fc30a7bd700000000000000000000000000000000000000000000000000000000815260040160405180910390fd5b80935050505090565b6000806020836120739190613ad0565b905060003690508111156120b3576040517f5796f78a00000000000000000000000000000000000000000000000000000000815260040160405180910390fd5b80360335915050919050565b60008060006120cd84612229565b91509150604e8160206120e09190613ad0565b836120eb9190612fdc565b6120f59190613ad0565b92505050919050565b600061210d836000018361229f565b905092915050565b6000808360010160008481526020019081526020016000205490506000811461221d5760006001826121479190613c1e565b905060006001866000018054905061215f9190613c1e565b90508181146121ce5760008660000182815481106121805761217f613c52565b5b90600052602060002001549050808760000184815481106121a4576121a3613c52565b5b90600052602060002001819055508387600101600083815260200190815260200160002081905550505b856000018054806121e2576121e1613c81565b5b600190038181906000526020600020016000905590558560010160008681526020019081526020016000206000905560019350505050612223565b60009150505b92915050565b600080600080600060418661223e9190613ad0565b905060006122656020836122529190613ad0565b600036905061230f90919063ffffffff16565b90508035935061227f60038261230f90919063ffffffff16565b9050803592508362ffffff1695508263ffffffff16945050505050915091565b60006122ab8383612325565b612304578260000182908060018154018082558091505060019003906000526020600020016000909190919091505582600001805490508360010160008481526020019081526020016000208190555060019050612309565b600090505b92915050565b6000818361231d9190613c1e565b905092915050565b600080836001016000848152602001908152602001600020541415905092915050565b6040518060800160405280606081526020016060815260200160608152602001606081525090565b6000604051905090565b600080fd5b600080fd5b6000819050919050565b61239781612384565b81146123a257600080fd5b50565b6000813590506123b48161238e565b92915050565b6000819050919050565b6123cd816123ba565b81146123d857600080fd5b50565b6000813590506123ea816123c4565b92915050565b600080604083850312156124075761240661237a565b5b6000612415858286016123a5565b9250506020612426858286016123db565b9150509250929050565b600080fd5b6000601f19601f8301169050919050565b7f4e487b7100000000000000000000000000000000000000000000000000000000600052604160045260246000fd5b61247e82612435565b810181811067ffffffffffffffff8211171561249d5761249c612446565b5b80604052505050565b60006124b0612370565b90506124bc8282612475565b919050565b600067ffffffffffffffff8211156124dc576124db612446565b5b602082029050602081019050919050565b600080fd5b6000612505612500846124c1565b6124a6565b90508083825260208201905060208402830185811115612528576125276124ed565b5b835b81811015612551578061253d88826123a5565b84526020840193505060208101905061252a565b5050509392505050565b600082601f8301126125705761256f612430565b5b81356125808482602086016124f2565b91505092915050565b60006020828403121561259f5761259e61237a565b5b600082013567ffffffffffffffff8111156125bd576125bc61237f565b5b6125c98482850161255b565b91505092915050565b600081519050919050565b600082825260208201905092915050565b6000819050602082019050919050565b612607816123ba565b82525050565b600061261983836125fe565b60208301905092915050565b6000602082019050919050565b600061263d826125d2565b61264781856125dd565b9350612652836125ee565b8060005b8381101561268357815161266a888261260d565b975061267583612625565b925050600181019050612656565b5085935050505092915050565b600060208201905081810360008301526126aa8184612632565b905092915050565b6000602082840312156126c8576126c761237a565b5b60006126d6848285016123a5565b91505092915050565b6126e8816123ba565b82525050565b600060208201905061270360008301846126df565b92915050565b600080fd5b600080fd5b600067ffffffffffffffff82111561272e5761272d612446565b5b602082029050602081019050919050565b60006040828403121561275557612754612709565b5b61275f60406124a6565b9050600061276f848285016123a5565b6000830152506020612783848285016123db565b60208301525092915050565b60006127a261279d84612713565b6124a6565b905080838252602082019050604084028301858111156127c5576127c46124ed565b5b835b818110156127ee57806127da888261273f565b8452602084019350506040810190506127c7565b5050509392505050565b600082601f83011261280d5761280c612430565b5b813561281d84826020860161278f565b91505092915050565b60006080828403121561283c5761283b612709565b5b61284660806124a6565b9050600082013567ffffffffffffffff8111156128665761286561270e565b5b612872848285016127f8565b600083015250602082013567ffffffffffffffff8111156128965761289561270e565b5b6128a2848285016127f8565b602083015250604082013567ffffffffffffffff8111156128c6576128c561270e565b5b6128d2848285016127f8565b604083015250606082013567ffffffffffffffff8111156128f6576128f561270e565b5b612902848285016127f8565b60608301525092915050565b6000602082840312156129245761292361237a565b5b600082013567ffffffffffffffff8111156129425761294161237f565b5b61294e84828501612826565b91505092915050565b600081519050919050565b600082825260208201905092915050565b6000819050602082019050919050565b61298c81612384565b82525050565b6040820160008201516129a86000850182612983565b5060208201516129bb60208501826125fe565b50505050565b60006129cd8383612992565b60408301905092915050565b6000602082019050919050565b60006129f182612957565b6129fb8185612962565b9350612a0683612973565b8060005b83811015612a37578151612a1e88826129c1565b9750612a29836129d9565b925050600181019050612a0a565b5085935050505092915050565b60006080830160008301518482036000860152612a6182826129e6565b91505060208301518482036020860152612a7b82826129e6565b91505060408301518482036040860152612a9582826129e6565b91505060608301518482036060860152612aaf82826129e6565b9150508091505092915050565b60006020820190508181036000830152612ad68184612a44565b905092915050565b612ae781612384565b82525050565b6000602082019050612b026000830184612ade565b92915050565b600073ffffffffffffffffffffffffffffffffffffffff82169050919050565b6000612b3382612b08565b9050919050565b612b4381612b28565b8114612b4e57600080fd5b50565b600081519050612b6081612b3a565b92915050565b600060208284031215612b7c57612b7b61237a565b5b6000612b8a84828501612b51565b91505092915050565b612b9c81612b28565b82525050565b6000602082019050612bb76000830184612b93565b92915050565b600081519050612bcc816123c4565b92915050565b600060208284031215612be857612be761237a565b5b6000612bf684828501612bbd565b91505092915050565b600082825260208201905092915050565b7f5468657265206973206e6f7420656e6f7567682066756e647320746f2072657060008201527f6179000000000000000000000000000000000000000000000000000000000000602082015250565b6000612c6c602283612bff565b9150612c7782612c10565b604082019050919050565b60006020820190508181036000830152612c9b81612c5f565b9050919050565b6000604082019050612cb760008301856126df565b612cc460208301846126df565b9392505050565b7f5265656e7472616e637947756172643a207265656e7472616e742063616c6c00600082015250565b6000612d01601f83612bff565b9150612d0c82612ccb565b602082019050919050565b60006020820190508181036000830152612d3081612cf4565b9050919050565b7f5468657265206973206e6f7420656e6f7567682066756e647320746f2077697460008201527f6864726177000000000000000000000000000000000000000000000000000000602082015250565b6000612d93602583612bff565b9150612d9e82612d37565b604082019050919050565b60006020820190508181036000830152612dc281612d86565b9050919050565b600060ff82169050919050565b612ddf81612dc9565b8114612dea57600080fd5b50565b600081519050612dfc81612dd6565b92915050565b600060208284031215612e1857612e1761237a565b5b6000612e2684828501612ded565b91505092915050565b7f4e487b7100000000000000000000000000000000000000000000000000000000600052601160045260246000fd5b60008160011c9050919050565b6000808291508390505b6001851115612eb557808604811115612e9157612e90612e2f565b5b6001851615612ea05780820291505b8081029050612eae85612e5e565b9450612e75565b94509492505050565b600082612ece5760019050612f8a565b81612edc5760009050612f8a565b8160018114612ef25760028114612efc57612f2b565b6001915050612f8a565b60ff841115612f0e57612f0d612e2f565b5b8360020a915084821115612f2557612f24612e2f565b5b50612f8a565b5060208310610133831016604e8410600b8410161715612f605782820a905083811115612f5b57612f5a612e2f565b5b612f8a565b612f6d8484846001612e6b565b92509050818404811115612f8457612f83612e2f565b5b81810290505b9392505050565b6000612f9c826123ba565b9150612fa783612dc9565b9250612fd47fffffffffffffffffffffffffffffffffffffffffffffffffffffffffffffffff8484612ebe565b905092915050565b6000612fe7826123ba565b9150612ff2836123ba565b9250828202613000816123ba565b9150828204841483151761301757613016612e2f565b5b5092915050565b7f4e487b7100000000000000000000000000000000000000000000000000000000600052601260045260246000fd5b6000613058826123ba565b9150613063836123ba565b9250826130735761307261301e565b5b828204905092915050565b60006040820190506130936000830185612ade565b6130a060208301846126df565b9392505050565b7f54686520616374696f6e206d617920636175736520616e206163636f756e742060008201527f746f206265636f6d6520696e736f6c76656e7400000000000000000000000000602082015250565b6000613103603383612bff565b915061310e826130a7565b604082019050919050565b60006020820190508181036000830152613132816130f6565b9050919050565b7f496e73756666696369656e742061737365747320746f2066756c6c792072657060008201527f6179207468652064656274000000000000000000000000000000000000000000602082015250565b6000613195602b83612bff565b91506131a082613139565b604082019050919050565b600060208201905081810360008301526131c481613188565b9050919050565b600081519050919050565b600082825260208201905092915050565b6000819050602082019050919050565b60006132038383612983565b60208301905092915050565b6000602082019050919050565b6000613227826131cb565b61323181856131d6565b935061323c836131e7565b8060005b8381101561326d57815161325488826131f7565b975061325f8361320f565b925050600181019050613240565b5085935050505092915050565b60006020820190508181036000830152613294818461321c565b905092915050565b600067ffffffffffffffff8211156132b7576132b6612446565b5b602082029050602081019050919050565b60006132db6132d68461329c565b6124a6565b905080838252602082019050602084028301858111156132fe576132fd6124ed565b5b835b8181101561332757806133138882612bbd565b845260208401935050602081019050613300565b5050509392505050565b600082601f83011261334657613345612430565b5b81516133568482602086016132c8565b91505092915050565b6000602082840312156133755761337461237a565b5b600082015167ffffffffffffffff8111156133935761339261237f565b5b61339f84828501613331565b91505092915050565b6000815190506133b78161238e565b92915050565b6000604082840312156133d3576133d2612709565b5b6133dd60406124a6565b905060006133ed848285016133a8565b600083015250602061340184828501612bbd565b60208301525092915050565b600061342061341b84612713565b6124a6565b90508083825260208201905060408402830185811115613443576134426124ed565b5b835b8181101561346c578061345888826133bd565b845260208401935050604081019050613445565b5050509392505050565b600082601f83011261348b5761348a612430565b5b815161349b84826020860161340d565b91505092915050565b6000608082840312156134ba576134b9612709565b5b6134c460806124a6565b9050600082015167ffffffffffffffff8111156134e4576134e361270e565b5b6134f084828501613476565b600083015250602082015167ffffffffffffffff8111156135145761351361270e565b5b61352084828501613476565b602083015250604082015167ffffffffffffffff8111156135445761354361270e565b5b61355084828501613476565b604083015250606082015167ffffffffffffffff8111156135745761357361270e565b5b61358084828501613476565b60608301525092915050565b6000602082840312156135a2576135a161237a565b5b600082015167ffffffffffffffff8111156135c0576135bf61237f565b5b6135cc848285016134a4565b91505092915050565b60008115159050919050565b6135ea816135d5565b82525050565b60006040820190506136056000830185612ade565b61361260208301846135e1565b9392505050565b613622816135d5565b811461362d57600080fd5b50565b60008151905061363f81613619565b92915050565b60006020828403121561365b5761365a61237a565b5b600061366984828501613630565b91505092915050565b7f4469616d6f6e6453746f726167654c69623a204d75737420626520636f6e747260008201527f616374206f776e65720000000000000000000000000000000000000000000000602082015250565b60006136ce602983612bff565b91506136d982613672565b604082019050919050565b600060208201905081810360008301526136fd816136c1565b9050919050565b60006040820190506137196000830185612b93565b61372660208301846126df565b9392505050565b600081519050919050565b600081905092915050565b60005b83811015613761578082015181840152602081019050613746565b60008484015250505050565b60006137788261372d565b6137828185613738565b9350613792818560208601613743565b80840191505092915050565b60006137aa828461376d565b915081905092915050565b7f5472616e7366657248656c7065723a3a73616665417070726f76653a2061707060008201527f726f7665206661696c6564000000000000000000000000000000000000000000602082015250565b6000613811602b83612bff565b915061381c826137b5565b604082019050919050565b6000602082019050818103600083015261384081613804565b9050919050565b7f5472616e7366657248656c7065723a3a736166655472616e736665723a20747260008201527f616e73666572206661696c656400000000000000000000000000000000000000602082015250565b60006138a3602d83612bff565b91506138ae82613847565b604082019050919050565b600060208201905081810360008301526138d281613896565b9050919050565b60007fffffffff0000000000000000000000000000000000000000000000000000000082169050919050565b61390e816138d9565b82525050565b60006020820190506139296000830184613905565b92915050565b7f53796d626f6c2063616e6e6f7420626520656d70747900000000000000000000600082015250565b6000613965601683612bff565b91506139708261392f565b602082019050919050565b6000602082019050818103600083015261399481613958565b9050919050565b7f496e76616c696420416464726573735a65726f00000000000000000000000000600082015250565b60006139d1601383612bff565b91506139dc8261399b565b602082019050919050565b60006020820190508181036000830152613a00816139c4565b9050919050565b6000606082019050613a1c6000830186612b93565b613a296020830185612b93565b613a3660408301846126df565b949350505050565b7f5472616e7366657248656c7065723a3a7472616e7366657246726f6d3a20747260008201527f616e7366657246726f6d206661696c6564000000000000000000000000000000602082015250565b6000613a9a603183612bff565b9150613aa582613a3e565b604082019050919050565b60006020820190508181036000830152613ac981613a8d565b9050919050565b6000613adb826123ba565b9150613ae6836123ba565b9250828201905080821115613afe57613afd612e2f565b5b92915050565b600081519050919050565b6000613b1a82613b04565b613b248185612bff565b9350613b34818560208601613743565b613b3d81612435565b840191505092915050565b60006020820190508181036000830152613b628184613b0f565b905092915050565b600082825260208201905092915050565b6000613b868261372d565b613b908185613b6a565b9350613ba0818560208601613743565b613ba981612435565b840191505092915050565b60006020820190508181036000830152613bce8184613b7b565b905092915050565b6000613be1826123ba565b91507fffffffffffffffffffffffffffffffffffffffffffffffffffffffffffffffff8203613c1357613c12612e2f565b5b600182019050919050565b6000613c29826123ba565b9150613c34836123ba565b9250828203905081811115613c4c57613c4b612e2f565b5b92915050565b7f4e487b7100000000000000000000000000000000000000000000000000000000600052603260045260246000fd5b7f4e487b7100000000000000000000000000000000000000000000000000000000600052603160045260246000fdfea26469706673582212201718aa210237af1d5dbcf0d8debd552e665d47a12c35f8cc3f7f84cc60b3e94b64736f6c63430008110033",
  "devdoc": {
    "events": {
      "Borrowed(address,bytes32,uint256,uint256)": {
        "details": "emitted when funds are borrowed from the pool",
        "params": {
          "amount": "of the borrowed funds",
          "asset": "borrowed by an= user",
          "timestamp": "time of the borrowing*",
          "user": "the address of borrower"
        }
      },
      "Funded(address,bytes32,uint256,uint256)": {
        "details": "emitted after a loan is funded",
        "params": {
          "amount": "the amount of funds",
          "asset": "funded by a user",
          "timestamp": "time of funding*",
          "user": "the address which funded the loan"
        }
      },
      "Repaid(address,bytes32,uint256,uint256)": {
        "details": "emitted when funds are repaid to the pool",
        "params": {
          "amount": "of repaid funds",
          "asset": "asset repaid by a user",
          "timestamp": "of the repayment*",
          "user": "the address initiating repayment"
        }
      },
      "Withdrawn(address,bytes32,uint256,uint256)": {
        "details": "emitted after the funds are withdrawn from the loan",
        "params": {
          "amount": "of funds withdrawn",
          "asset": "withdrawn by a user",
          "timestamp": "of the withdrawal*",
          "user": "the address which withdraws funds from the loan"
        }
      }
    },
    "kind": "dev",
    "methods": {
      "borrow(bytes32,uint256)": {
        "details": "This function uses the redstone-evm-connector",
        "params": {
          "_amount": "of funds to borrow*",
          "_asset": "to be borrowed"
        }
      },
      "fund(bytes32,uint256)": {
        "details": "Requires approval for ERC20 token on frontend side",
        "params": {
          "_amount": "to be funded*",
          "_fundedAsset": "asset to be funded"
        }
      },
      "repay(bytes32,uint256)": {
        "details": "This function uses the redstone-evm-connector",
        "params": {
          "_amount": "of funds to repay*",
          "_asset": "to be repaid"
        }
      },
      "withdraw(bytes32,uint256)": {
        "details": "This function uses the redstone-evm-connector",
        "params": {
          "_amount": "to be withdrawn*",
          "_withdrawnAsset": "asset to be withdrawn"
        }
      }
    },
    "version": 1
  },
  "userdoc": {
    "kind": "user",
    "methods": {
      "borrow(bytes32,uint256)": {
        "notice": "Borrows funds from the pool"
      },
      "fund(bytes32,uint256)": {
        "notice": "Funds the loan with a specified amount of a defined token"
      },
      "repay(bytes32,uint256)": {
        "notice": "Repays funds to the pool"
      },
      "withdraw(bytes32,uint256)": {
        "notice": "Withdraws an amount of a defined asset from the loan This method could be used to cash out profits from investments The loan needs to remain solvent after the withdrawal"
      }
    },
    "version": 1
  },
  "storageLayout": {
    "storage": [
      {
        "astId": 12650,
        "contract": "contracts/facets/AssetsOperationsFacet.sol:AssetsOperationsFacet",
        "label": "_status",
        "offset": 0,
        "slot": "0",
        "type": "t_uint256"
      }
    ],
    "types": {
      "t_uint256": {
        "encoding": "inplace",
        "label": "uint256",
        "numberOfBytes": "32"
      }
    }
  }
}