{
  "address": "0xe05d082F270fd98F405Cb5ed64299dfE91665D59",
  "abi": [
    {
      "inputs": [],
      "name": "CalldataMustHaveValidPayload",
      "type": "error"
    },
    {
      "inputs": [],
      "name": "CalldataOverOrUnderFlow",
      "type": "error"
    },
    {
      "inputs": [],
      "name": "EachSignerMustProvideTheSameValue",
      "type": "error"
    },
    {
      "inputs": [],
      "name": "EmptyCalldataPointersArr",
      "type": "error"
    },
    {
      "inputs": [],
      "name": "IncorrectUnsignedMetadataSize",
      "type": "error"
    },
    {
      "inputs": [
        {
          "internalType": "uint256",
          "name": "receviedSignersCount",
          "type": "uint256"
        },
        {
          "internalType": "uint256",
          "name": "requiredSignersCount",
          "type": "uint256"
        }
      ],
      "name": "InsufficientNumberOfUniqueSigners",
      "type": "error"
    },
    {
      "inputs": [],
      "name": "InvalidCalldataPointer",
      "type": "error"
    },
    {
      "inputs": [
        {
          "internalType": "bytes",
          "name": "result",
          "type": "bytes"
        }
      ],
      "name": "ProxyCalldataFailedWithCustomError",
      "type": "error"
    },
    {
      "inputs": [
        {
          "internalType": "string",
          "name": "message",
          "type": "string"
        }
      ],
      "name": "ProxyCalldataFailedWithStringMessage",
      "type": "error"
    },
    {
      "inputs": [],
      "name": "ProxyCalldataFailedWithoutErrMsg",
      "type": "error"
    },
    {
      "inputs": [
        {
          "internalType": "address",
          "name": "receivedSigner",
          "type": "address"
        }
      ],
      "name": "SignerNotAuthorised",
      "type": "error"
    },
    {
      "anonymous": false,
      "inputs": [
        {
          "indexed": true,
          "internalType": "address",
          "name": "user",
          "type": "address"
        },
        {
          "indexed": true,
          "internalType": "bytes32",
          "name": "asset",
          "type": "bytes32"
        },
        {
          "indexed": false,
          "internalType": "uint256",
          "name": "amount",
          "type": "uint256"
        },
        {
          "indexed": false,
          "internalType": "uint256",
          "name": "timestamp",
          "type": "uint256"
        }
      ],
      "name": "Borrowed",
      "type": "event"
    },
    {
      "anonymous": false,
      "inputs": [
        {
          "indexed": true,
          "internalType": "address",
          "name": "user",
          "type": "address"
        },
        {
          "indexed": true,
          "internalType": "bytes32",
          "name": "asset",
          "type": "bytes32"
        },
        {
          "indexed": false,
          "internalType": "uint256",
          "name": "amount",
          "type": "uint256"
        },
        {
          "indexed": false,
          "internalType": "uint256",
          "name": "timestamp",
          "type": "uint256"
        }
      ],
      "name": "Funded",
      "type": "event"
    },
    {
      "anonymous": false,
      "inputs": [
        {
          "indexed": true,
          "internalType": "address",
          "name": "user",
          "type": "address"
        },
        {
          "indexed": true,
          "internalType": "bytes32",
          "name": "asset",
          "type": "bytes32"
        },
        {
          "indexed": false,
          "internalType": "uint256",
          "name": "amount",
          "type": "uint256"
        },
        {
          "indexed": false,
          "internalType": "uint256",
          "name": "timestamp",
          "type": "uint256"
        }
      ],
      "name": "Repaid",
      "type": "event"
    },
    {
      "anonymous": false,
      "inputs": [
        {
          "indexed": true,
          "internalType": "address",
          "name": "user",
          "type": "address"
        },
        {
          "indexed": true,
          "internalType": "bytes32",
          "name": "asset",
          "type": "bytes32"
        },
        {
          "indexed": false,
          "internalType": "uint256",
          "name": "amount",
          "type": "uint256"
        },
        {
          "indexed": false,
          "internalType": "uint256",
          "name": "timestamp",
          "type": "uint256"
        }
      ],
      "name": "Withdrawn",
      "type": "event"
    },
    {
      "inputs": [
        {
          "internalType": "bytes32[]",
          "name": "assetsToRepay",
          "type": "bytes32[]"
        }
      ],
      "name": "_getAllPricesForLiquidation",
      "outputs": [
        {
          "components": [
            {
              "components": [
                {
                  "internalType": "bytes32",
                  "name": "asset",
                  "type": "bytes32"
                },
                {
                  "internalType": "uint256",
                  "name": "price",
                  "type": "uint256"
                }
              ],
              "internalType": "struct SolvencyFacetProd.AssetPrice[]",
              "name": "ownedAssetsPrices",
              "type": "tuple[]"
            },
            {
              "components": [
                {
                  "internalType": "bytes32",
                  "name": "asset",
                  "type": "bytes32"
                },
                {
                  "internalType": "uint256",
                  "name": "price",
                  "type": "uint256"
                }
              ],
              "internalType": "struct SolvencyFacetProd.AssetPrice[]",
              "name": "debtAssetsPrices",
              "type": "tuple[]"
            },
            {
              "components": [
                {
                  "internalType": "bytes32",
                  "name": "asset",
                  "type": "bytes32"
                },
                {
                  "internalType": "uint256",
                  "name": "price",
                  "type": "uint256"
                }
              ],
              "internalType": "struct SolvencyFacetProd.AssetPrice[]",
              "name": "stakedPositionsPrices",
              "type": "tuple[]"
            },
            {
              "components": [
                {
                  "internalType": "bytes32",
                  "name": "asset",
                  "type": "bytes32"
                },
                {
                  "internalType": "uint256",
                  "name": "price",
                  "type": "uint256"
                }
              ],
              "internalType": "struct SolvencyFacetProd.AssetPrice[]",
              "name": "assetsToRepayPrices",
              "type": "tuple[]"
            }
          ],
          "internalType": "struct SolvencyFacetProd.CachedPrices",
          "name": "result",
          "type": "tuple"
        }
      ],
      "stateMutability": "nonpayable",
      "type": "function"
    },
    {
      "inputs": [],
      "name": "_getHealthRatio",
      "outputs": [
        {
          "internalType": "uint256",
          "name": "health",
          "type": "uint256"
        }
      ],
      "stateMutability": "nonpayable",
      "type": "function"
    },
    {
      "inputs": [
        {
          "components": [
            {
              "components": [
                {
                  "internalType": "bytes32",
                  "name": "asset",
                  "type": "bytes32"
                },
                {
                  "internalType": "uint256",
                  "name": "price",
                  "type": "uint256"
                }
              ],
              "internalType": "struct SolvencyFacetProd.AssetPrice[]",
              "name": "ownedAssetsPrices",
              "type": "tuple[]"
            },
            {
              "components": [
                {
                  "internalType": "bytes32",
                  "name": "asset",
                  "type": "bytes32"
                },
                {
                  "internalType": "uint256",
                  "name": "price",
                  "type": "uint256"
                }
              ],
              "internalType": "struct SolvencyFacetProd.AssetPrice[]",
              "name": "debtAssetsPrices",
              "type": "tuple[]"
            },
            {
              "components": [
                {
                  "internalType": "bytes32",
                  "name": "asset",
                  "type": "bytes32"
                },
                {
                  "internalType": "uint256",
                  "name": "price",
                  "type": "uint256"
                }
              ],
              "internalType": "struct SolvencyFacetProd.AssetPrice[]",
              "name": "stakedPositionsPrices",
              "type": "tuple[]"
            },
            {
              "components": [
                {
                  "internalType": "bytes32",
                  "name": "asset",
                  "type": "bytes32"
                },
                {
                  "internalType": "uint256",
                  "name": "price",
                  "type": "uint256"
                }
              ],
              "internalType": "struct SolvencyFacetProd.AssetPrice[]",
              "name": "assetsToRepayPrices",
              "type": "tuple[]"
            }
          ],
          "internalType": "struct SolvencyFacetProd.CachedPrices",
          "name": "cachedPrices",
          "type": "tuple"
        }
      ],
      "name": "_getHealthRatioWithPrices",
      "outputs": [
        {
          "internalType": "uint256",
          "name": "health",
          "type": "uint256"
        }
      ],
      "stateMutability": "nonpayable",
      "type": "function"
    },
    {
      "inputs": [
        {
          "internalType": "bytes32",
          "name": "_asset",
          "type": "bytes32"
        },
        {
          "internalType": "uint256",
          "name": "_amount",
          "type": "uint256"
        }
      ],
      "name": "borrow",
      "outputs": [],
      "stateMutability": "nonpayable",
      "type": "function"
    },
    {
      "inputs": [
        {
          "internalType": "bytes32",
          "name": "_fundedAsset",
          "type": "bytes32"
        },
        {
          "internalType": "uint256",
          "name": "_amount",
          "type": "uint256"
        }
      ],
      "name": "fund",
      "outputs": [],
      "stateMutability": "nonpayable",
      "type": "function"
    },
    {
      "inputs": [
        {
          "internalType": "bytes32",
          "name": "symbol",
          "type": "bytes32"
        }
      ],
      "name": "getPrice",
      "outputs": [
        {
          "internalType": "uint256",
          "name": "price",
          "type": "uint256"
        }
      ],
      "stateMutability": "nonpayable",
      "type": "function"
    },
    {
      "inputs": [
        {
          "internalType": "bytes32[]",
          "name": "symbols",
          "type": "bytes32[]"
        }
      ],
      "name": "getPrices",
      "outputs": [
        {
          "internalType": "uint256[]",
          "name": "prices",
          "type": "uint256[]"
        }
      ],
      "stateMutability": "nonpayable",
      "type": "function"
    },
    {
      "inputs": [
        {
          "internalType": "bytes32",
          "name": "_asset",
          "type": "bytes32"
        },
        {
          "internalType": "uint256",
          "name": "_amount",
          "type": "uint256"
        }
      ],
      "name": "repay",
      "outputs": [],
      "stateMutability": "payable",
      "type": "function"
    },
    {
      "inputs": [
        {
          "internalType": "bytes32",
          "name": "_withdrawnAsset",
          "type": "bytes32"
        },
        {
          "internalType": "uint256",
          "name": "_amount",
          "type": "uint256"
        }
      ],
      "name": "withdraw",
      "outputs": [],
      "stateMutability": "nonpayable",
      "type": "function"
    }
  ],
  "transactionHash": "0x1ca3421a9119656359c00f5aeb67729572bbfc0fcbe9341d6aec2fadeae290fa",
  "args": [],
  "numDeployments": 3,
  "solcInputHash": "4189fcbc2823c20856a851b757c21c8f",
  "bytecode": "0x608060405234801561001057600080fd5b506001600081905550613705806100286000396000f3fe6080604052600436106100855760003560e01c806339e2719e1161005957806339e2719e146101495780636e3bfe9f146101745780637c93ec30146101b1578063b2d40e73146101da578063e46bbc9e1461021757610085565b8062f989ad1461008a578063040cf020146100a657806326ee4836146100cf57806331d98b3f1461010c575b600080fd5b6100a4600480360381019061009f919061207c565b610240565b005b3480156100b257600080fd5b506100cd60048036038101906100c8919061207c565b6105cf565b005b3480156100db57600080fd5b506100f660048036038101906100f19190612215565b610833565b604051610103919061231c565b60405180910390f35b34801561011857600080fd5b50610133600480360381019061012e919061233e565b6108dd565b604051610140919061237a565b60405180910390f35b34801561015557600080fd5b5061015e610987565b60405161016b919061237a565b60405180910390f35b34801561018057600080fd5b5061019b6004803603810190610196919061259a565b610a24565b6040516101a8919061237a565b60405180910390f35b3480156101bd57600080fd5b506101d860048036038101906101d3919061207c565b610ace565b005b3480156101e657600080fd5b5061020160048036038101906101fc9190612215565b610d1c565b60405161020e9190612748565b60405180910390f35b34801561022357600080fd5b5061023e6004803603810190610239919061207c565b610dcc565b005b600061024d836001610eeb565b9050610257610f78565b1561026557610264611015565b5b600061026f6110b0565b73ffffffffffffffffffffffffffffffffffffffff16630edc25b6856040518263ffffffff1660e01b81526004016102a79190612779565b602060405180830381865afa1580156102c4573d6000803e3d6000fd5b505050506040513d601f19601f820116820180604052508101906102e891906127f2565b905061036d838273ffffffffffffffffffffffffffffffffffffffff16636011163e306040518263ffffffff1660e01b8152600401610327919061282e565b602060405180830381865afa158015610344573d6000803e3d6000fd5b505050506040513d601f19601f82011682018060405250810190610368919061285e565b6110cc565b9250828273ffffffffffffffffffffffffffffffffffffffff166370a08231306040518263ffffffff1660e01b81526004016103a9919061282e565b602060405180830381865afa1580156103c6573d6000803e3d6000fd5b505050506040513d601f19601f820116820180604052508101906103ea919061285e565b101561042b576040517f08c379a00000000000000000000000000000000000000000000000000000000081526004016104229061290e565b60405180910390fd5b6104578160008473ffffffffffffffffffffffffffffffffffffffff166110e59092919063ffffffff16565b61048281848473ffffffffffffffffffffffffffffffffffffffff166110e59092919063ffffffff16565b8073ffffffffffffffffffffffffffffffffffffffff1663371fd8e6846040518263ffffffff1660e01b81526004016104bb919061237a565b600060405180830381600087803b1580156104d557600080fd5b505af11580156104e9573d6000803e3d6000fd5b5050505060008273ffffffffffffffffffffffffffffffffffffffff166370a08231306040518263ffffffff1660e01b8152600401610528919061282e565b602060405180830381865afa158015610545573d6000803e3d6000fd5b505050506040513d601f19601f82011682018060405250810190610569919061285e565b03610578576105778461121b565b5b833373ffffffffffffffffffffffffffffffffffffffff167fa2f4fa14f0b0fee8b10babfdacfbfff6d29bbce82209ad5e7b2ac1dc2c35ab9b85426040516105c192919061292e565b60405180910390a350505050565b6105d7611015565b60006105e1611239565b9050600281600001540361062a576040517f08c379a0000000000000000000000000000000000000000000000000000000008152600401610621906129a3565b60405180910390fd5b600281600001819055506000610641846001610eeb565b90508261064d85611266565b101561068e576040517f08c379a000000000000000000000000000000000000000000000000000000000815260040161068590612a35565b60405180910390fd5b6106b933848373ffffffffffffffffffffffffffffffffffffffff166113719092919063ffffffff16565b60008173ffffffffffffffffffffffffffffffffffffffff166370a08231306040518263ffffffff1660e01b81526004016106f4919061282e565b602060405180830381865afa158015610711573d6000803e3d6000fd5b505050506040513d601f19601f82011682018060405250810190610735919061285e565b03610744576107438461121b565b5b833373ffffffffffffffffffffffffffffffffffffffff167f2c2b206b9475386bb995c366956ade2de7bd0e3208dd1fb3833c280929a93005854260405161078d92919061292e565b60405180910390a35061079e610f78565b6107dd576040517f08c379a00000000000000000000000000000000000000000000000000000000081526004016107d490612ac7565b60405180910390fd5b6107e56114a7565b610824576040517f08c379a000000000000000000000000000000000000000000000000000000000815260040161081b90612b59565b60405180910390fd5b60018160000181905550505050565b60606108c36108486326ee483660e01b611544565b6326ee483660e01b846040516024016108619190612c28565b604051602081830303815290604052907bffffffffffffffffffffffffffffffffffffffffffffffffffffffff19166020820180517bffffffffffffffffffffffffffffffffffffffffffffffffffffffff83818316178352505050506115ce565b8060200190518101906108d69190612d0d565b9050919050565b600061096d6108f26331d98b3f60e01b611544565b6331d98b3f60e01b8460405160240161090b9190612779565b604051602081830303815290604052907bffffffffffffffffffffffffffffffffffffffffffffffffffffffff19166020820180517bffffffffffffffffffffffffffffffffffffffffffffffffffffffff83818316178352505050506115ce565b806020019051810190610980919061285e565b9050919050565b6000610a0c61099c637914334f60e01b611544565b637914334f60e01b604051602401604051602081830303815290604052907bffffffffffffffffffffffffffffffffffffffffffffffffffffffff19166020820180517bffffffffffffffffffffffffffffffffffffffffffffffffffffffff83818316178352505050506115ce565b806020019051810190610a1f919061285e565b905090565b6000610ab4610a3963360398a360e01b611544565b63360398a360e01b84604051602401610a529190612748565b604051602081830303815290604052907bffffffffffffffffffffffffffffffffffffffffffffffffffffffff19166020820180517bffffffffffffffffffffffffffffffffffffffffffffffffffffffff83818316178352505050506115ce565b806020019051810190610ac7919061285e565b9050919050565b610ad6611015565b6000610ae061165f565b90504281600601819055506000610af56110b0565b905060008173ffffffffffffffffffffffffffffffffffffffff16630edc25b6866040518263ffffffff1660e01b8152600401610b329190612779565b602060405180830381865afa158015610b4f573d6000803e3d6000fd5b505050506040513d601f19601f82011682018060405250810190610b7391906127f2565b90508073ffffffffffffffffffffffffffffffffffffffff1663c5ebeaec856040518263ffffffff1660e01b8152600401610bae919061237a565b600060405180830381600087803b158015610bc857600080fd5b505af1158015610bdc573d6000803e3d6000fd5b505050506000610bed866000610eeb565b905060008173ffffffffffffffffffffffffffffffffffffffff166370a08231306040518263ffffffff1660e01b8152600401610c2a919061282e565b602060405180830381865afa158015610c47573d6000803e3d6000fd5b505050506040513d601f19601f82011682018060405250810190610c6b919061285e565b1115610c7c57610c7b868261168c565b5b853373ffffffffffffffffffffffffffffffffffffffff167fb44d1174a7e8b37725504ef78b9e681eb337ec859b8829dafb4a817ac9ab7c3f8742604051610cc592919061292e565b60405180910390a350505050610cd9610f78565b610d18576040517f08c379a0000000000000000000000000000000000000000000000000000000008152600401610d0f90612ac7565b60405180910390fd5b5050565b610d24611fd4565b610db2610d3763a3aa8d1e60e01b611544565b63a3aa8d1e60e01b84604051602401610d509190612c28565b604051602081830303815290604052907bffffffffffffffffffffffffffffffffffffffffffffffffffffffff19166020820180517bffffffffffffffffffffffffffffffffffffffffffffffffffffffff83818316178352505050506115ce565b806020019051810190610dc59190612f3a565b9050919050565b6000610dd9836000610eeb565b9050610e083330848473ffffffffffffffffffffffffffffffffffffffff1661175e909392919063ffffffff16565b60008173ffffffffffffffffffffffffffffffffffffffff166370a08231306040518263ffffffff1660e01b8152600401610e43919061282e565b602060405180830381865afa158015610e60573d6000803e3d6000fd5b505050506040513d601f19601f82011682018060405250810190610e84919061285e565b1115610e9557610e94838261168c565b5b823373ffffffffffffffffffffffffffffffffffffffff167f2d66a92de57f2082107528ba4d5d87f02f49967bfc7aab0013f4d664610335478442604051610ede92919061292e565b60405180910390a3505050565b6000610ef56110b0565b73ffffffffffffffffffffffffffffffffffffffff166325eb876f84846040518363ffffffff1660e01b8152600401610f2f929190612f9e565b602060405180830381865afa158015610f4c573d6000803e3d6000fd5b505050506040513d601f19601f82011682018060405250810190610f7091906127f2565b905092915050565b6000610ffd610f8d635ce2395060e01b611544565b635ce2395060e01b604051602401604051602081830303815290604052907bffffffffffffffffffffffffffffffffffffffffffffffffffffffff19166020820180517bffffffffffffffffffffffffffffffffffffffffffffffffffffffff83818316178352505050506115ce565b8060200190518101906110109190612ff3565b905090565b61101d611897565b60010160009054906101000a900473ffffffffffffffffffffffffffffffffffffffff1673ffffffffffffffffffffffffffffffffffffffff163373ffffffffffffffffffffffffffffffffffffffff16146110ae576040517f08c379a00000000000000000000000000000000000000000000000000000000081526004016110a590613092565b60405180910390fd5b565b600073f3978209b7cff2b90100c6f87cec77de928ed58e905090565b60008183106110db57816110dd565b825b905092915050565b6000808473ffffffffffffffffffffffffffffffffffffffff1663095ea7b385856040516024016111179291906130b2565b6040516020818303038152906040529060e01b6020820180517bffffffffffffffffffffffffffffffffffffffffffffffffffffffff8381831617835250505050604051611165919061314c565b6000604051808303816000865af19150503d80600081146111a2576040519150601f19603f3d011682016040523d82523d6000602084013e6111a7565b606091505b50915091508180156111d557506000815114806111d45750808060200190518101906111d39190612ff3565b5b5b611214576040517f08c379a000000000000000000000000000000000000000000000000000000000815260040161120b906131d5565b60405180910390fd5b5050505050565b6000611225611897565b905061123481600401836118c4565b505050565b6000807f1c85eba10a4cf2d29c83fc15f97931886b9fd3caeb70d8c377aeedc58b919e3b90508091505090565b6000806112716110b0565b73ffffffffffffffffffffffffffffffffffffffff166325eb876f8460016040518363ffffffff1660e01b81526004016112ac929190612f9e565b602060405180830381865afa1580156112c9573d6000803e3d6000fd5b505050506040513d601f19601f820116820180604052508101906112ed91906127f2565b90508073ffffffffffffffffffffffffffffffffffffffff166370a08231306040518263ffffffff1660e01b8152600401611328919061282e565b602060405180830381865afa158015611345573d6000803e3d6000fd5b505050506040513d601f19601f82011682018060405250810190611369919061285e565b915050919050565b6000808473ffffffffffffffffffffffffffffffffffffffff1663a9059cbb85856040516024016113a39291906130b2565b6040516020818303038152906040529060e01b6020820180517bffffffffffffffffffffffffffffffffffffffffffffffffffffffff83818316178352505050506040516113f1919061314c565b6000604051808303816000865af19150503d806000811461142e576040519150601f19603f3d011682016040523d82523d6000602084013e611433565b606091505b5091509150818015611461575060008151148061146057508080602001905181019061145f9190612ff3565b5b5b6114a0576040517f08c379a000000000000000000000000000000000000000000000000000000000815260040161149790613267565b60405180910390fd5b5050505050565b600061152c6114bc633942a52e60e01b611544565b633942a52e60e01b604051602401604051602081830303815290604052907bffffffffffffffffffffffffffffffffffffffffffffffffffffffff19166020820180517bffffffffffffffffffffffffffffffffffffffffffffffffffffffff83818316178352505050506115ce565b80602001905181019061153f9190612ff3565b905090565b600061154e6118db565b73ffffffffffffffffffffffffffffffffffffffff16630d741577836040518263ffffffff1660e01b815260040161158691906132c2565b602060405180830381865afa1580156115a3573d6000803e3d6000fd5b505050506040513d601f19601f820116820180604052508101906115c791906127f2565b9050919050565b606060006115db836118f7565b90506000808573ffffffffffffffffffffffffffffffffffffffff1683604051611605919061314c565b600060405180830381855af49150503d8060008114611640576040519150601f19603f3d011682016040523d82523d6000602084013e611645565b606091505b509150915061165482826119b1565b935050505092915050565b6000807fc8fcad8db84d3cc18b4c41d551ea0ee66dd599cde068d998e57d5e09332c131c90508091505090565b600082036116cf576040517f08c379a00000000000000000000000000000000000000000000000000000000081526004016116c690613329565b60405180910390fd5b600073ffffffffffffffffffffffffffffffffffffffff168173ffffffffffffffffffffffffffffffffffffffff160361173e576040517f08c379a000000000000000000000000000000000000000000000000000000000815260040161173590613395565b60405180910390fd5b6000611748611897565b9050611758816004018484611ab1565b50505050565b6000808573ffffffffffffffffffffffffffffffffffffffff166323b872dd868686604051602401611792939291906133b5565b6040516020818303038152906040529060e01b6020820180517bffffffffffffffffffffffffffffffffffffffffffffffffffffffff83818316178352505050506040516117e0919061314c565b6000604051808303816000865af19150503d806000811461181d576040519150601f19603f3d011682016040523d82523d6000602084013e611822565b606091505b5091509150818015611850575060008151148061184f57508080602001905181019061184e9190612ff3565b5b5b61188f576040517f08c379a00000000000000000000000000000000000000000000000000000000081526004016118869061345e565b60405180910390fd5b505050505050565b6000807f8d5bb42e0ac1496a2c326edc9c00758985246e6c2bb146d6c2f4a0d509e0960a90508091505090565b60006118d38360000183611ae3565b905092915050565b6000732916b3bf7c35bd21e63d01c93c62fb0d4994e56d905090565b60606000825190506000611909611b1c565b90506000818361191991906134ad565b90506000369050821115611959576040517f5796f78a00000000000000000000000000000000000000000000000000000000815260040160405180910390fd5b6060604051905081815285602001848101826020015b8183101561198c578251815260208301925060208101905061196f565b5050508283360385602001830137602084840182010160405280945050505050919050565b606082611aa85760008251036119f3576040517f567fe27a00000000000000000000000000000000000000000000000000000000815260040160405180910390fd5b600060208301517f08c379a00000000000000000000000000000000000000000000000000000000081149150508015611a6b576060604484019050806040517f0f7e8278000000000000000000000000000000000000000000000000000000008152600401611a629190613525565b60405180910390fd5b826040517ffd36fde3000000000000000000000000000000000000000000000000000000008152600401611a9f9190613591565b60405180910390fd5b81905092915050565b6000611ada84600001848473ffffffffffffffffffffffffffffffffffffffff1660001b611b8c565b90509392505050565b600082600201600083815260200190815260200160002060009055611b148284600001611bc790919063ffffffff16565b905092915050565b600080611b27611bde565b90506000611b3482611cef565b61ffff169050600282611b4791906134ad565b915060005b81811015611b83576000611b5f84611d4b565b90508084611b6d91906134ad565b9350508080611b7b906135b3565b915050611b4c565b50819250505090565b60008184600201600085815260200190815260200160002081905550611bbe8385600001611d8a90919063ffffffff16565b90509392505050565b6000611bd68360000183611da1565b905092915050565b60008060203603356602ed57011e000081166602ed57011e00001491505080611c33576040517fe7764c9e00000000000000000000000000000000000000000000000000000000815260040160405180910390fd5b60008036905060291115611c73576040517f5796f78a00000000000000000000000000000000000000000000000000000000815260040160405180910390fd5b602936033590506000600960038362ffffff16611c9091906134ad565b611c9a91906134ad565b90506000369050600282611cae91906134ad565b1115611ce6576040517fc30a7bd700000000000000000000000000000000000000000000000000000000815260040160405180910390fd5b80935050505090565b600080602083611cff91906134ad565b90506000369050811115611d3f576040517f5796f78a00000000000000000000000000000000000000000000000000000000815260040160405180910390fd5b80360335915050919050565b6000806000611d5984611eb5565b91509150604e816020611d6c91906134ad565b83611d7791906135fb565b611d8191906134ad565b92505050919050565b6000611d998360000183611f2b565b905092915050565b60008083600101600084815260200190815260200160002054905060008114611ea9576000600182611dd3919061363d565b9050600060018660000180549050611deb919061363d565b9050818114611e5a576000866000018281548110611e0c57611e0b613671565b5b9060005260206000200154905080876000018481548110611e3057611e2f613671565b5b90600052602060002001819055508387600101600083815260200190815260200160002081905550505b85600001805480611e6e57611e6d6136a0565b5b600190038181906000526020600020016000905590558560010160008681526020019081526020016000206000905560019350505050611eaf565b60009150505b92915050565b6000806000806000604186611eca91906134ad565b90506000611ef1602083611ede91906134ad565b6000369050611f9b90919063ffffffff16565b905080359350611f0b600382611f9b90919063ffffffff16565b9050803592508362ffffff1695508263ffffffff16945050505050915091565b6000611f378383611fb1565b611f90578260000182908060018154018082558091505060019003906000526020600020016000909190919091505582600001805490508360010160008481526020019081526020016000208190555060019050611f95565b600090505b92915050565b60008183611fa9919061363d565b905092915050565b600080836001016000848152602001908152602001600020541415905092915050565b6040518060800160405280606081526020016060815260200160608152602001606081525090565b6000604051905090565b600080fd5b600080fd5b6000819050919050565b61202381612010565b811461202e57600080fd5b50565b6000813590506120408161201a565b92915050565b6000819050919050565b61205981612046565b811461206457600080fd5b50565b60008135905061207681612050565b92915050565b6000806040838503121561209357612092612006565b5b60006120a185828601612031565b92505060206120b285828601612067565b9150509250929050565b600080fd5b6000601f19601f8301169050919050565b7f4e487b7100000000000000000000000000000000000000000000000000000000600052604160045260246000fd5b61210a826120c1565b810181811067ffffffffffffffff82111715612129576121286120d2565b5b80604052505050565b600061213c611ffc565b90506121488282612101565b919050565b600067ffffffffffffffff821115612168576121676120d2565b5b602082029050602081019050919050565b600080fd5b600061219161218c8461214d565b612132565b905080838252602082019050602084028301858111156121b4576121b3612179565b5b835b818110156121dd57806121c98882612031565b8452602084019350506020810190506121b6565b5050509392505050565b600082601f8301126121fc576121fb6120bc565b5b813561220c84826020860161217e565b91505092915050565b60006020828403121561222b5761222a612006565b5b600082013567ffffffffffffffff8111156122495761224861200b565b5b612255848285016121e7565b91505092915050565b600081519050919050565b600082825260208201905092915050565b6000819050602082019050919050565b61229381612046565b82525050565b60006122a5838361228a565b60208301905092915050565b6000602082019050919050565b60006122c98261225e565b6122d38185612269565b93506122de8361227a565b8060005b8381101561230f5781516122f68882612299565b9750612301836122b1565b9250506001810190506122e2565b5085935050505092915050565b6000602082019050818103600083015261233681846122be565b905092915050565b60006020828403121561235457612353612006565b5b600061236284828501612031565b91505092915050565b61237481612046565b82525050565b600060208201905061238f600083018461236b565b92915050565b600080fd5b600080fd5b600067ffffffffffffffff8211156123ba576123b96120d2565b5b602082029050602081019050919050565b6000604082840312156123e1576123e0612395565b5b6123eb6040612132565b905060006123fb84828501612031565b600083015250602061240f84828501612067565b60208301525092915050565b600061242e6124298461239f565b612132565b9050808382526020820190506040840283018581111561245157612450612179565b5b835b8181101561247a578061246688826123cb565b845260208401935050604081019050612453565b5050509392505050565b600082601f830112612499576124986120bc565b5b81356124a984826020860161241b565b91505092915050565b6000608082840312156124c8576124c7612395565b5b6124d26080612132565b9050600082013567ffffffffffffffff8111156124f2576124f161239a565b5b6124fe84828501612484565b600083015250602082013567ffffffffffffffff8111156125225761252161239a565b5b61252e84828501612484565b602083015250604082013567ffffffffffffffff8111156125525761255161239a565b5b61255e84828501612484565b604083015250606082013567ffffffffffffffff8111156125825761258161239a565b5b61258e84828501612484565b60608301525092915050565b6000602082840312156125b0576125af612006565b5b600082013567ffffffffffffffff8111156125ce576125cd61200b565b5b6125da848285016124b2565b91505092915050565b600081519050919050565b600082825260208201905092915050565b6000819050602082019050919050565b61261881612010565b82525050565b604082016000820151612634600085018261260f565b506020820151612647602085018261228a565b50505050565b6000612659838361261e565b60408301905092915050565b6000602082019050919050565b600061267d826125e3565b61268781856125ee565b9350612692836125ff565b8060005b838110156126c35781516126aa888261264d565b97506126b583612665565b925050600181019050612696565b5085935050505092915050565b600060808301600083015184820360008601526126ed8282612672565b915050602083015184820360208601526127078282612672565b915050604083015184820360408601526127218282612672565b9150506060830151848203606086015261273b8282612672565b9150508091505092915050565b6000602082019050818103600083015261276281846126d0565b905092915050565b61277381612010565b82525050565b600060208201905061278e600083018461276a565b92915050565b600073ffffffffffffffffffffffffffffffffffffffff82169050919050565b60006127bf82612794565b9050919050565b6127cf816127b4565b81146127da57600080fd5b50565b6000815190506127ec816127c6565b92915050565b60006020828403121561280857612807612006565b5b6000612816848285016127dd565b91505092915050565b612828816127b4565b82525050565b6000602082019050612843600083018461281f565b92915050565b60008151905061285881612050565b92915050565b60006020828403121561287457612873612006565b5b600061288284828501612849565b91505092915050565b600082825260208201905092915050565b7f5468657265206973206e6f7420656e6f7567682066756e647320746f2072657060008201527f6179000000000000000000000000000000000000000000000000000000000000602082015250565b60006128f860228361288b565b91506129038261289c565b604082019050919050565b60006020820190508181036000830152612927816128eb565b9050919050565b6000604082019050612943600083018561236b565b612950602083018461236b565b9392505050565b7f5265656e7472616e637947756172643a207265656e7472616e742063616c6c00600082015250565b600061298d601f8361288b565b915061299882612957565b602082019050919050565b600060208201905081810360008301526129bc81612980565b9050919050565b7f5468657265206973206e6f7420656e6f7567682066756e647320746f2077697460008201527f6864726177000000000000000000000000000000000000000000000000000000602082015250565b6000612a1f60258361288b565b9150612a2a826129c3565b604082019050919050565b60006020820190508181036000830152612a4e81612a12565b9050919050565b7f54686520616374696f6e206d617920636175736520616e206163636f756e742060008201527f746f206265636f6d6520696e736f6c76656e7400000000000000000000000000602082015250565b6000612ab160338361288b565b9150612abc82612a55565b604082019050919050565b60006020820190508181036000830152612ae081612aa4565b9050919050565b7f496e73756666696369656e742061737365747320746f2066756c6c792072657060008201527f6179207468652064656274000000000000000000000000000000000000000000602082015250565b6000612b43602b8361288b565b9150612b4e82612ae7565b604082019050919050565b60006020820190508181036000830152612b7281612b36565b9050919050565b600081519050919050565b600082825260208201905092915050565b6000819050602082019050919050565b6000612bb1838361260f565b60208301905092915050565b6000602082019050919050565b6000612bd582612b79565b612bdf8185612b84565b9350612bea83612b95565b8060005b83811015612c1b578151612c028882612ba5565b9750612c0d83612bbd565b925050600181019050612bee565b5085935050505092915050565b60006020820190508181036000830152612c428184612bca565b905092915050565b600067ffffffffffffffff821115612c6557612c646120d2565b5b602082029050602081019050919050565b6000612c89612c8484612c4a565b612132565b90508083825260208201905060208402830185811115612cac57612cab612179565b5b835b81811015612cd55780612cc18882612849565b845260208401935050602081019050612cae565b5050509392505050565b600082601f830112612cf457612cf36120bc565b5b8151612d04848260208601612c76565b91505092915050565b600060208284031215612d2357612d22612006565b5b600082015167ffffffffffffffff811115612d4157612d4061200b565b5b612d4d84828501612cdf565b91505092915050565b600081519050612d658161201a565b92915050565b600060408284031215612d8157612d80612395565b5b612d8b6040612132565b90506000612d9b84828501612d56565b6000830152506020612daf84828501612849565b60208301525092915050565b6000612dce612dc98461239f565b612132565b90508083825260208201905060408402830185811115612df157612df0612179565b5b835b81811015612e1a5780612e068882612d6b565b845260208401935050604081019050612df3565b5050509392505050565b600082601f830112612e3957612e386120bc565b5b8151612e49848260208601612dbb565b91505092915050565b600060808284031215612e6857612e67612395565b5b612e726080612132565b9050600082015167ffffffffffffffff811115612e9257612e9161239a565b5b612e9e84828501612e24565b600083015250602082015167ffffffffffffffff811115612ec257612ec161239a565b5b612ece84828501612e24565b602083015250604082015167ffffffffffffffff811115612ef257612ef161239a565b5b612efe84828501612e24565b604083015250606082015167ffffffffffffffff811115612f2257612f2161239a565b5b612f2e84828501612e24565b60608301525092915050565b600060208284031215612f5057612f4f612006565b5b600082015167ffffffffffffffff811115612f6e57612f6d61200b565b5b612f7a84828501612e52565b91505092915050565b60008115159050919050565b612f9881612f83565b82525050565b6000604082019050612fb3600083018561276a565b612fc06020830184612f8f565b9392505050565b612fd081612f83565b8114612fdb57600080fd5b50565b600081519050612fed81612fc7565b92915050565b60006020828403121561300957613008612006565b5b600061301784828501612fde565b91505092915050565b7f4469616d6f6e6453746f726167654c69623a204d75737420626520636f6e747260008201527f616374206f776e65720000000000000000000000000000000000000000000000602082015250565b600061307c60298361288b565b915061308782613020565b604082019050919050565b600060208201905081810360008301526130ab8161306f565b9050919050565b60006040820190506130c7600083018561281f565b6130d4602083018461236b565b9392505050565b600081519050919050565b600081905092915050565b60005b8381101561310f5780820151818401526020810190506130f4565b60008484015250505050565b6000613126826130db565b61313081856130e6565b93506131408185602086016130f1565b80840191505092915050565b6000613158828461311b565b915081905092915050565b7f5472616e7366657248656c7065723a3a73616665417070726f76653a2061707060008201527f726f7665206661696c6564000000000000000000000000000000000000000000602082015250565b60006131bf602b8361288b565b91506131ca82613163565b604082019050919050565b600060208201905081810360008301526131ee816131b2565b9050919050565b7f5472616e7366657248656c7065723a3a736166655472616e736665723a20747260008201527f616e73666572206661696c656400000000000000000000000000000000000000602082015250565b6000613251602d8361288b565b915061325c826131f5565b604082019050919050565b6000602082019050818103600083015261328081613244565b9050919050565b60007fffffffff0000000000000000000000000000000000000000000000000000000082169050919050565b6132bc81613287565b82525050565b60006020820190506132d760008301846132b3565b92915050565b7f53796d626f6c2063616e6e6f7420626520656d70747900000000000000000000600082015250565b600061331360168361288b565b915061331e826132dd565b602082019050919050565b6000602082019050818103600083015261334281613306565b9050919050565b7f496e76616c696420416464726573735a65726f00000000000000000000000000600082015250565b600061337f60138361288b565b915061338a82613349565b602082019050919050565b600060208201905081810360008301526133ae81613372565b9050919050565b60006060820190506133ca600083018661281f565b6133d7602083018561281f565b6133e4604083018461236b565b949350505050565b7f5472616e7366657248656c7065723a3a7472616e7366657246726f6d3a20747260008201527f616e7366657246726f6d206661696c6564000000000000000000000000000000602082015250565b600061344860318361288b565b9150613453826133ec565b604082019050919050565b600060208201905081810360008301526134778161343b565b9050919050565b7f4e487b7100000000000000000000000000000000000000000000000000000000600052601160045260246000fd5b60006134b882612046565b91506134c383612046565b92508282019050808211156134db576134da61347e565b5b92915050565b600081519050919050565b60006134f7826134e1565b613501818561288b565b93506135118185602086016130f1565b61351a816120c1565b840191505092915050565b6000602082019050818103600083015261353f81846134ec565b905092915050565b600082825260208201905092915050565b6000613563826130db565b61356d8185613547565b935061357d8185602086016130f1565b613586816120c1565b840191505092915050565b600060208201905081810360008301526135ab8184613558565b905092915050565b60006135be82612046565b91507fffffffffffffffffffffffffffffffffffffffffffffffffffffffffffffffff82036135f0576135ef61347e565b5b600182019050919050565b600061360682612046565b915061361183612046565b925082820261361f81612046565b915082820484148315176136365761363561347e565b5b5092915050565b600061364882612046565b915061365383612046565b925082820390508181111561366b5761366a61347e565b5b92915050565b7f4e487b7100000000000000000000000000000000000000000000000000000000600052603260045260246000fd5b7f4e487b7100000000000000000000000000000000000000000000000000000000600052603160045260246000fdfea26469706673582212205a6e064b3ed79e95ef76d2fa22d6d4442432b84f650b261fb4934d1cfb454f4464736f6c63430008110033",
  "devdoc": {
    "events": {
      "Borrowed(address,bytes32,uint256,uint256)": {
        "details": "emitted when funds are borrowed from the pool",
        "params": {
          "amount": "of the borrowed funds",
          "asset": "borrowed by an= user",
          "timestamp": "time of the borrowing*",
          "user": "the address of borrower"
        }
      },
      "Funded(address,bytes32,uint256,uint256)": {
        "details": "emitted after a loan is funded",
        "params": {
          "amount": "the amount of funds",
          "asset": "funded by a user",
          "timestamp": "time of funding*",
          "user": "the address which funded the loan"
        }
      },
      "Repaid(address,bytes32,uint256,uint256)": {
        "details": "emitted when funds are repaid to the pool",
        "params": {
          "amount": "of repaid funds",
          "asset": "asset repaid by a user",
          "timestamp": "of the repayment*",
          "user": "the address initiating repayment"
        }
      },
      "Withdrawn(address,bytes32,uint256,uint256)": {
        "details": "emitted after the funds are withdrawn from the loan",
        "params": {
          "amount": "of funds withdrawn",
          "asset": "withdrawn by a user",
          "timestamp": "of the withdrawal*",
          "user": "the address which withdraws funds from the loan"
        }
      }
    },
    "kind": "dev",
    "methods": {
      "borrow(bytes32,uint256)": {
        "details": "This function uses the redstone-evm-connector",
        "params": {
          "_amount": "of funds to borrow*",
          "_asset": "to be borrowed"
        }
      },
      "fund(bytes32,uint256)": {
        "details": "Requires approval for ERC20 token on frontend side",
        "params": {
          "_amount": "to be funded*",
          "_fundedAsset": "asset to be funded"
        }
      },
      "repay(bytes32,uint256)": {
        "details": "This function uses the redstone-evm-connector",
        "params": {
          "_amount": "of funds to repay*",
          "_asset": "to be repaid"
        }
      },
      "withdraw(bytes32,uint256)": {
        "details": "This function uses the redstone-evm-connector",
        "params": {
          "_amount": "to be withdrawn*",
          "_withdrawnAsset": "asset to be withdrawn"
        }
      }
    },
    "version": 1
  },
  "userdoc": {
    "kind": "user",
    "methods": {
      "borrow(bytes32,uint256)": {
        "notice": "Borrows funds from the pool"
      },
      "fund(bytes32,uint256)": {
        "notice": "Funds the loan with a specified amount of a defined token"
      },
      "repay(bytes32,uint256)": {
        "notice": "Repays funds to the pool"
      },
      "withdraw(bytes32,uint256)": {
        "notice": "Withdraws an amount of a defined asset from the loan This method could be used to cash out profits from investments The loan needs to remain solvent after the withdrawal"
      }
    },
    "version": 1
  },
  "storageLayout": {
    "storage": [
      {
        "astId": 9633,
        "contract": "contracts/facets/AssetsOperationsFacet.sol:AssetsOperationsFacet",
        "label": "_status",
        "offset": 0,
        "slot": "0",
        "type": "t_uint256"
      }
    ],
    "types": {
      "t_uint256": {
        "encoding": "inplace",
        "label": "uint256",
        "numberOfBytes": "32"
      }
    }
  }
}