{
  "address": "0xc004A70f5CDa28d12764B64cF29950917275A096",
  "abi": [
    {
      "inputs": [],
      "name": "BorrowersRegistryNotConfigured",
      "type": "error"
    },
    {
      "inputs": [],
      "name": "BurnAmountExceedsAvailableForUser",
      "type": "error"
    },
    {
      "inputs": [],
      "name": "BurnAmountExceedsBalance",
      "type": "error"
    },
    {
      "inputs": [
        {
          "internalType": "uint256",
          "name": "requested",
          "type": "uint256"
        },
        {
          "internalType": "uint256",
          "name": "allowance",
          "type": "uint256"
        }
      ],
      "name": "InsufficientAllowance",
      "type": "error"
    },
    {
      "inputs": [],
      "name": "InsufficientPoolFunds",
      "type": "error"
    },
    {
      "inputs": [],
      "name": "InsufficientSurplus",
      "type": "error"
    },
    {
      "inputs": [],
      "name": "MaxPoolUtilisationBreached",
      "type": "error"
    },
    {
      "inputs": [],
      "name": "MintToAddressZero",
      "type": "error"
    },
    {
      "inputs": [
        {
          "internalType": "address",
          "name": "target",
          "type": "address"
        }
      ],
      "name": "NotAContract",
      "type": "error"
    },
    {
      "inputs": [],
      "name": "NotAuthorizedToBorrow",
      "type": "error"
    },
    {
      "inputs": [],
      "name": "PoolFrozen",
      "type": "error"
    },
    {
      "inputs": [],
      "name": "RepayingMoreThanWasBorrowed",
      "type": "error"
    },
    {
      "inputs": [],
      "name": "SpenderZeroAddress",
      "type": "error"
    },
    {
      "inputs": [],
      "name": "TotalSupplyCapBreached",
      "type": "error"
    },
    {
      "inputs": [
        {
          "internalType": "uint256",
          "name": "amount",
          "type": "uint256"
        },
        {
          "internalType": "uint256",
          "name": "balance",
          "type": "uint256"
        }
      ],
      "name": "TransferAmountExceedsBalance",
      "type": "error"
    },
    {
      "inputs": [],
      "name": "TransferToPoolAddress",
      "type": "error"
    },
    {
      "inputs": [],
      "name": "TransferToZeroAddress",
      "type": "error"
    },
    {
      "inputs": [],
      "name": "ZeroDepositAmount",
      "type": "error"
    },
    {
      "anonymous": false,
      "inputs": [
        {
          "indexed": true,
          "internalType": "address",
          "name": "owner",
          "type": "address"
        },
        {
          "indexed": true,
          "internalType": "address",
          "name": "spender",
          "type": "address"
        },
        {
          "indexed": false,
          "internalType": "uint256",
          "name": "value",
          "type": "uint256"
        }
      ],
      "name": "Approval",
      "type": "event"
    },
    {
      "anonymous": false,
      "inputs": [
        {
          "indexed": true,
          "internalType": "address",
          "name": "registry",
          "type": "address"
        },
        {
          "indexed": false,
          "internalType": "uint256",
          "name": "timestamp",
          "type": "uint256"
        }
      ],
      "name": "BorrowersRegistryChanged",
      "type": "event"
    },
    {
      "anonymous": false,
      "inputs": [
        {
          "indexed": true,
          "internalType": "address",
          "name": "user",
          "type": "address"
        },
        {
          "indexed": false,
          "internalType": "uint256",
          "name": "value",
          "type": "uint256"
        },
        {
          "indexed": false,
          "internalType": "uint256",
          "name": "timestamp",
          "type": "uint256"
        }
      ],
      "name": "Borrowing",
      "type": "event"
    },
    {
      "anonymous": false,
      "inputs": [
        {
          "indexed": true,
          "internalType": "address",
          "name": "user",
          "type": "address"
        },
        {
          "indexed": false,
          "internalType": "uint256",
          "name": "value",
          "type": "uint256"
        },
        {
          "indexed": false,
          "internalType": "uint256",
          "name": "timestamp",
          "type": "uint256"
        }
      ],
      "name": "Deposit",
      "type": "event"
    },
    {
      "anonymous": false,
      "inputs": [
        {
          "indexed": true,
          "internalType": "address",
          "name": "user",
          "type": "address"
        },
        {
          "indexed": true,
          "internalType": "address",
          "name": "_of",
          "type": "address"
        },
        {
          "indexed": false,
          "internalType": "uint256",
          "name": "value",
          "type": "uint256"
        },
        {
          "indexed": false,
          "internalType": "uint256",
          "name": "timestamp",
          "type": "uint256"
        }
      ],
      "name": "DepositOnBehalfOf",
      "type": "event"
    },
    {
      "anonymous": false,
      "inputs": [
        {
          "indexed": false,
          "internalType": "uint8",
          "name": "version",
          "type": "uint8"
        }
      ],
      "name": "Initialized",
      "type": "event"
    },
    {
      "anonymous": false,
      "inputs": [
        {
          "indexed": true,
          "internalType": "address",
          "name": "user",
          "type": "address"
        },
        {
          "indexed": false,
          "internalType": "uint256",
          "name": "value",
          "type": "uint256"
        },
        {
          "indexed": false,
          "internalType": "uint256",
          "name": "timestamp",
          "type": "uint256"
        }
      ],
      "name": "InterestCollected",
      "type": "event"
    },
    {
      "anonymous": false,
      "inputs": [
        {
          "indexed": true,
          "internalType": "address",
          "name": "previousOwner",
          "type": "address"
        },
        {
          "indexed": true,
          "internalType": "address",
          "name": "newOwner",
          "type": "address"
        }
      ],
      "name": "OwnershipTransferred",
      "type": "event"
    },
    {
      "anonymous": false,
      "inputs": [
        {
          "indexed": true,
          "internalType": "address",
          "name": "poolRewarder",
          "type": "address"
        },
        {
          "indexed": false,
          "internalType": "uint256",
          "name": "timestamp",
          "type": "uint256"
        }
      ],
      "name": "PoolRewarderChanged",
      "type": "event"
    },
    {
      "anonymous": false,
      "inputs": [
        {
          "indexed": true,
          "internalType": "address",
          "name": "calculator",
          "type": "address"
        },
        {
          "indexed": false,
          "internalType": "uint256",
          "name": "timestamp",
          "type": "uint256"
        }
      ],
      "name": "RatesCalculatorChanged",
      "type": "event"
    },
    {
      "anonymous": false,
      "inputs": [
        {
          "indexed": true,
          "internalType": "address",
          "name": "user",
          "type": "address"
        },
        {
          "indexed": false,
          "internalType": "uint256",
          "name": "value",
          "type": "uint256"
        },
        {
          "indexed": false,
          "internalType": "uint256",
          "name": "timestamp",
          "type": "uint256"
        }
      ],
      "name": "Repayment",
      "type": "event"
    },
    {
      "anonymous": false,
      "inputs": [
        {
          "indexed": true,
          "internalType": "address",
          "name": "from",
          "type": "address"
        },
        {
          "indexed": true,
          "internalType": "address",
          "name": "to",
          "type": "address"
        },
        {
          "indexed": false,
          "internalType": "uint256",
          "name": "value",
          "type": "uint256"
        }
      ],
      "name": "Transfer",
      "type": "event"
    },
    {
      "anonymous": false,
      "inputs": [
        {
          "indexed": true,
          "internalType": "address",
          "name": "distributor",
          "type": "address"
        },
        {
          "indexed": false,
          "internalType": "uint256",
          "name": "timestamp",
          "type": "uint256"
        }
      ],
      "name": "VestingDistributorChanged",
      "type": "event"
    },
    {
      "anonymous": false,
      "inputs": [
        {
          "indexed": true,
          "internalType": "address",
          "name": "user",
          "type": "address"
        },
        {
          "indexed": false,
          "internalType": "uint256",
          "name": "value",
          "type": "uint256"
        },
        {
          "indexed": false,
          "internalType": "uint256",
          "name": "timestamp",
          "type": "uint256"
        }
      ],
      "name": "Withdrawal",
      "type": "event"
    },
    {
      "inputs": [
        {
          "internalType": "address",
          "name": "owner",
          "type": "address"
        },
        {
          "internalType": "address",
          "name": "spender",
          "type": "address"
        }
      ],
      "name": "allowance",
      "outputs": [
        {
          "internalType": "uint256",
          "name": "",
          "type": "uint256"
        }
      ],
      "stateMutability": "view",
      "type": "function"
    },
    {
      "inputs": [
        {
          "internalType": "address",
          "name": "spender",
          "type": "address"
        },
        {
          "internalType": "uint256",
          "name": "amount",
          "type": "uint256"
        }
      ],
      "name": "approve",
      "outputs": [
        {
          "internalType": "bool",
          "name": "",
          "type": "bool"
        }
      ],
      "stateMutability": "nonpayable",
      "type": "function"
    },
    {
      "inputs": [
        {
          "internalType": "address",
          "name": "user",
          "type": "address"
        }
      ],
      "name": "balanceOf",
      "outputs": [
        {
          "internalType": "uint256",
          "name": "",
          "type": "uint256"
        }
      ],
      "stateMutability": "view",
      "type": "function"
    },
    {
      "inputs": [
        {
          "internalType": "uint256",
          "name": "_amount",
          "type": "uint256"
        }
      ],
      "name": "borrow",
      "outputs": [],
      "stateMutability": "nonpayable",
      "type": "function"
    },
    {
      "inputs": [],
      "name": "borrowIndex",
      "outputs": [
        {
          "internalType": "contract IIndex",
          "name": "",
          "type": "address"
        }
      ],
      "stateMutability": "view",
      "type": "function"
    },
    {
      "inputs": [
        {
          "internalType": "address",
          "name": "",
          "type": "address"
        }
      ],
      "name": "borrowed",
      "outputs": [
        {
          "internalType": "uint256",
          "name": "",
          "type": "uint256"
        }
      ],
      "stateMutability": "view",
      "type": "function"
    },
    {
      "inputs": [],
      "name": "borrowersRegistry",
      "outputs": [
        {
          "internalType": "contract IBorrowersRegistry",
          "name": "",
          "type": "address"
        }
      ],
      "stateMutability": "view",
      "type": "function"
    },
    {
      "inputs": [],
      "name": "checkRewards",
      "outputs": [
        {
          "internalType": "uint256",
          "name": "",
          "type": "uint256"
        }
      ],
      "stateMutability": "view",
      "type": "function"
    },
    {
      "inputs": [],
      "name": "decimals",
      "outputs": [
        {
          "internalType": "uint8",
          "name": "decimals",
          "type": "uint8"
        }
      ],
      "stateMutability": "pure",
      "type": "function"
    },
    {
      "inputs": [
        {
          "internalType": "address",
          "name": "spender",
          "type": "address"
        },
        {
          "internalType": "uint256",
          "name": "subtractedValue",
          "type": "uint256"
        }
      ],
      "name": "decreaseAllowance",
      "outputs": [
        {
          "internalType": "bool",
          "name": "",
          "type": "bool"
        }
      ],
      "stateMutability": "nonpayable",
      "type": "function"
    },
    {
      "inputs": [
        {
          "internalType": "uint256",
          "name": "_amount",
          "type": "uint256"
        }
      ],
      "name": "deposit",
      "outputs": [],
      "stateMutability": "nonpayable",
      "type": "function"
    },
    {
      "inputs": [],
      "name": "depositIndex",
      "outputs": [
        {
          "internalType": "contract IIndex",
          "name": "",
          "type": "address"
        }
      ],
      "stateMutability": "view",
      "type": "function"
    },
    {
      "inputs": [
        {
          "internalType": "uint256",
          "name": "_amount",
          "type": "uint256"
        },
        {
          "internalType": "address",
          "name": "_of",
          "type": "address"
        }
      ],
      "name": "depositOnBehalf",
      "outputs": [],
      "stateMutability": "nonpayable",
      "type": "function"
    },
    {
      "inputs": [
        {
          "internalType": "address",
          "name": "_user",
          "type": "address"
        }
      ],
      "name": "getBorrowed",
      "outputs": [
        {
          "internalType": "uint256",
          "name": "",
          "type": "uint256"
        }
      ],
      "stateMutability": "view",
      "type": "function"
    },
    {
      "inputs": [],
      "name": "getBorrowingRate",
      "outputs": [
        {
          "internalType": "uint256",
          "name": "",
          "type": "uint256"
        }
      ],
      "stateMutability": "view",
      "type": "function"
    },
    {
      "inputs": [],
      "name": "getDepositRate",
      "outputs": [
        {
          "internalType": "uint256",
          "name": "",
          "type": "uint256"
        }
      ],
      "stateMutability": "view",
      "type": "function"
    },
    {
      "inputs": [],
      "name": "getFullPoolStatus",
      "outputs": [
        {
          "internalType": "uint256[5]",
          "name": "",
          "type": "uint256[5]"
        }
      ],
      "stateMutability": "view",
      "type": "function"
    },
    {
      "inputs": [],
      "name": "getMaxPoolUtilisationForBorrowing",
      "outputs": [
        {
          "internalType": "uint256",
          "name": "",
          "type": "uint256"
        }
      ],
      "stateMutability": "view",
      "type": "function"
    },
    {
      "inputs": [],
      "name": "getRewards",
      "outputs": [],
      "stateMutability": "nonpayable",
      "type": "function"
    },
    {
      "inputs": [
        {
          "internalType": "address",
          "name": "spender",
          "type": "address"
        },
        {
          "internalType": "uint256",
          "name": "addedValue",
          "type": "uint256"
        }
      ],
      "name": "increaseAllowance",
      "outputs": [
        {
          "internalType": "bool",
          "name": "",
          "type": "bool"
        }
      ],
      "stateMutability": "nonpayable",
      "type": "function"
    },
    {
      "inputs": [
        {
          "internalType": "contract IRatesCalculator",
          "name": "ratesCalculator_",
          "type": "address"
        },
        {
          "internalType": "contract IBorrowersRegistry",
          "name": "borrowersRegistry_",
          "type": "address"
        },
        {
          "internalType": "contract IIndex",
          "name": "depositIndex_",
          "type": "address"
        },
        {
          "internalType": "contract IIndex",
          "name": "borrowIndex_",
          "type": "address"
        },
        {
          "internalType": "address payable",
          "name": "tokenAddress_",
          "type": "address"
        },
        {
          "internalType": "contract IPoolRewarder",
          "name": "poolRewarder_",
          "type": "address"
        },
        {
          "internalType": "uint256",
          "name": "_totalSupplyCap",
          "type": "uint256"
        }
      ],
      "name": "initialize",
      "outputs": [],
      "stateMutability": "nonpayable",
      "type": "function"
    },
    {
      "inputs": [],
      "name": "name",
      "outputs": [
        {
          "internalType": "string",
          "name": "_name",
          "type": "string"
        }
      ],
      "stateMutability": "pure",
      "type": "function"
    },
    {
      "inputs": [],
      "name": "owner",
      "outputs": [
        {
          "internalType": "address",
          "name": "",
          "type": "address"
        }
      ],
      "stateMutability": "view",
      "type": "function"
    },
    {
      "inputs": [],
      "name": "poolRewarder",
      "outputs": [
        {
          "internalType": "contract IPoolRewarder",
          "name": "",
          "type": "address"
        }
      ],
      "stateMutability": "view",
      "type": "function"
    },
    {
      "inputs": [],
      "name": "ratesCalculator",
      "outputs": [
        {
          "internalType": "contract IRatesCalculator",
          "name": "",
          "type": "address"
        }
      ],
      "stateMutability": "view",
      "type": "function"
    },
    {
      "inputs": [
        {
          "internalType": "uint256",
          "name": "amount",
          "type": "uint256"
        },
        {
          "internalType": "address",
          "name": "account",
          "type": "address"
        }
      ],
      "name": "recoverSurplus",
      "outputs": [],
      "stateMutability": "nonpayable",
      "type": "function"
    },
    {
      "inputs": [],
      "name": "renounceOwnership",
      "outputs": [],
      "stateMutability": "nonpayable",
      "type": "function"
    },
    {
      "inputs": [
        {
          "internalType": "uint256",
          "name": "amount",
          "type": "uint256"
        }
      ],
      "name": "repay",
      "outputs": [],
      "stateMutability": "nonpayable",
      "type": "function"
    },
    {
      "inputs": [
        {
          "internalType": "contract IBorrowersRegistry",
          "name": "borrowersRegistry_",
          "type": "address"
        }
      ],
      "name": "setBorrowersRegistry",
      "outputs": [],
      "stateMutability": "nonpayable",
      "type": "function"
    },
    {
      "inputs": [
        {
          "internalType": "contract IPoolRewarder",
          "name": "_poolRewarder",
          "type": "address"
        }
      ],
      "name": "setPoolRewarder",
      "outputs": [],
      "stateMutability": "nonpayable",
      "type": "function"
    },
    {
      "inputs": [
        {
          "internalType": "contract IRatesCalculator",
          "name": "ratesCalculator_",
          "type": "address"
        }
      ],
      "name": "setRatesCalculator",
      "outputs": [],
      "stateMutability": "nonpayable",
      "type": "function"
    },
    {
      "inputs": [
        {
          "internalType": "uint256",
          "name": "_newTotalSupplyCap",
          "type": "uint256"
        }
      ],
      "name": "setTotalSupplyCap",
      "outputs": [],
      "stateMutability": "nonpayable",
      "type": "function"
    },
    {
      "inputs": [
        {
          "internalType": "address",
          "name": "_distributor",
          "type": "address"
        }
      ],
      "name": "setVestingDistributor",
      "outputs": [],
      "stateMutability": "nonpayable",
      "type": "function"
    },
    {
      "inputs": [],
      "name": "symbol",
      "outputs": [
        {
          "internalType": "string",
          "name": "_symbol",
          "type": "string"
        }
      ],
      "stateMutability": "pure",
      "type": "function"
    },
    {
      "inputs": [],
      "name": "tokenAddress",
      "outputs": [
        {
          "internalType": "address payable",
          "name": "",
          "type": "address"
        }
      ],
      "stateMutability": "view",
      "type": "function"
    },
    {
      "inputs": [],
      "name": "totalBorrowed",
      "outputs": [
        {
          "internalType": "uint256",
          "name": "",
          "type": "uint256"
        }
      ],
      "stateMutability": "view",
      "type": "function"
    },
    {
      "inputs": [],
      "name": "totalSupply",
      "outputs": [
        {
          "internalType": "uint256",
          "name": "",
          "type": "uint256"
        }
      ],
      "stateMutability": "view",
      "type": "function"
    },
    {
      "inputs": [],
      "name": "totalSupplyCap",
      "outputs": [
        {
          "internalType": "uint256",
          "name": "",
          "type": "uint256"
        }
      ],
      "stateMutability": "view",
      "type": "function"
    },
    {
      "inputs": [
        {
          "internalType": "address",
          "name": "recipient",
          "type": "address"
        },
        {
          "internalType": "uint256",
          "name": "amount",
          "type": "uint256"
        }
      ],
      "name": "transfer",
      "outputs": [
        {
          "internalType": "bool",
          "name": "",
          "type": "bool"
        }
      ],
      "stateMutability": "nonpayable",
      "type": "function"
    },
    {
      "inputs": [
        {
          "internalType": "address",
          "name": "sender",
          "type": "address"
        },
        {
          "internalType": "address",
          "name": "recipient",
          "type": "address"
        },
        {
          "internalType": "uint256",
          "name": "amount",
          "type": "uint256"
        }
      ],
      "name": "transferFrom",
      "outputs": [
        {
          "internalType": "bool",
          "name": "",
          "type": "bool"
        }
      ],
      "stateMutability": "nonpayable",
      "type": "function"
    },
    {
      "inputs": [
        {
          "internalType": "address",
          "name": "newOwner",
          "type": "address"
        }
      ],
      "name": "transferOwnership",
      "outputs": [],
      "stateMutability": "nonpayable",
      "type": "function"
    },
    {
      "inputs": [],
      "name": "vestingDistributor",
      "outputs": [
        {
          "internalType": "contract VestingDistributor",
          "name": "",
          "type": "address"
        }
      ],
      "stateMutability": "view",
      "type": "function"
    },
    {
      "inputs": [
        {
          "internalType": "uint256",
          "name": "_amount",
          "type": "uint256"
        }
      ],
      "name": "withdraw",
      "outputs": [],
      "stateMutability": "nonpayable",
      "type": "function"
    }
  ],
  "transactionHash": "0x8eab2c4200db0be68b5de02654a67d0bbda84d48b21c2b9391edbe9f880736e6",
  "args": [],
  "numDeployments": 3,
  "solcInputHash": "6d2d8d528ac45cd14f39361cb38d8be2",
  "bytecode": "0x608060405234801561001057600080fd5b50612e31806100206000396000f3fe608060405234801561001057600080fd5b50600436106102695760003560e01c806370a0823111610151578063b6b55f25116100c3578063d06dca8911610087578063d06dca8914610545578063dd62ed3e14610558578063ee61bd6e14610591578063f2fde38b146105a4578063f36b2425146105b7578063fc68f661146105bf57600080fd5b8063b6b55f25146104f9578063b75c42bd1461050c578063b790634e14610521578063bb102aea14610529578063c5ebeaec1461053257600080fd5b80638da5cb5b116101155780638da5cb5b1461047a57806395d89b411461048b5780639d76ea58146104ad578063a457c2d7146104c0578063a9059cbb146104d3578063aa5af0fd146104e657600080fd5b806370a082311461042e57806370d4cea014610441578063715018a6146102765780637b898939146104545780638c1a38111461046757600080fd5b80632aeaa291116101ea57806339509351116101ae57806339509351146103cc5780634c19386c146103df5780636011163e146103e757806361215aa8146103fa5780636ca6d5d0146104085780636cf55ea21461041b57600080fd5b80632aeaa2911461037c5780632e1a7d4d14610384578063313ce5671461039757806331d05b11146103a6578063371fd8e6146103b957600080fd5b8063095ea7b311610231578063095ea7b3146103185780631457db341461033b5780631460e3901461034e57806318160ddd1461036157806323b872dd1461036957600080fd5b80630572b0cc1461026e57806306fdde03146102785780630790ef9a146102b757806307bbebdd146102ca5780630941cb3d146102ea575b600080fd5b6102766105d2565b005b6040805180820190915260118152702232b63a30a83934b6b2a134ba31b7b4b760791b60208201525b6040516102ae9190612a4f565b60405180910390f35b6102766102c5366004612a97565b610636565b60a1546102dd906001600160a01b031681565b6040516102ae9190612ac7565b61030a6102f8366004612adb565b609a6020526000908152604090205481565b6040519081526020016102ae565b61032b610326366004612af8565b61073e565b60405190151581526020016102ae565b610276610349366004612adb565b6107ba565b61027661035c366004612b24565b610869565b61030a610b15565b61032b610377366004612bb1565b610b25565b61030a610e33565b610276610392366004612bf2565b610ea3565b604051600881526020016102ae565b6102766103b4366004612bf2565b611093565b6102766103c7366004612bf2565b6110a0565b61032b6103da366004612af8565b611173565b61030a611220565b61030a6103f5366004612adb565b611227565b670cd64299613c800061030a565b609d546102dd906001600160a01b031681565b610276610429366004612a97565b6112ae565b61030a61043c366004612adb565b611546565b61027661044f366004612adb565b61158c565b609e546102dd906001600160a01b031681565b610276610475366004612adb565b61163a565b6033546001600160a01b03166102dd565b6040805180820190915260068152652228212a21b160d11b60208201526102a1565b60a0546102dd906001600160a01b031681565b61032b6104ce366004612af8565b6116ce565b61032b6104e1366004612af8565b6117a8565b609f546102dd906001600160a01b031681565b610276610507366004612bf2565b6119f6565b610514611a00565b6040516102ae9190612c0b565b61030a611a57565b61030a60975481565b610276610540366004612bf2565b611aa4565b609c546102dd906001600160a01b031681565b61030a610566366004612c3c565b6001600160a01b03918216600090815260986020908152604080832093909416825291909152205490565b609b546102dd906001600160a01b031681565b6102766105b2366004612adb565b611d18565b61030a611d8e565b6102766105cd366004612adb565b611daa565b609d546040516311305c1f60e11b81526001600160a01b0390911690632260b83e90610602903390600401612ac7565b600060405180830381600087803b15801561061c57600080fd5b505af1158015610630573d6000803e3d6000fd5b50505050565b61063e611e28565b610646611e82565b60a0546040516370a0823160e01b81526000916001600160a01b0316906370a0823190610677903090600401612ac7565b602060405180830381865afa158015610694573d6000803e3d6000fd5b505050506040513d601f19601f820116820180604052508101906106b89190612c6a565b905060006106c4610b15565b6106cc611220565b6106d69084612c99565b6106e09190612cac565b905081841115610703576040516316d5c93f60e21b815260040160405180910390fd5b83811015610724576040516394290ab960e01b815260040160405180910390fd5b61072e8385611edb565b505061073a6001606555565b5050565b60006001600160a01b03831661076757604051633d6601c760e11b815260040160405180910390fd5b3360008181526098602090815260408083206001600160a01b0388168085529083529281902086905551858152919291600080516020612ddc833981519152910160405180910390a35060015b92915050565b6107c2611e28565b6107cb81611ef9565b1580156107e057506001600160a01b03811615155b1561081457609d546040516322a2d07b60e21b815261080b916001600160a01b031690600401612ac7565b60405180910390fd5b609d80546001600160a01b0319166001600160a01b0383169081179091556040514281527f85796821ee1d670b0fdb986f256b5c1a29b9019038831c7f09df2061879cf9e5906020015b60405180910390a250565b600054610100900460ff16158080156108895750600054600160ff909116105b806108aa575061089830611ef9565b1580156108aa575060005460ff166001145b61090d5760405162461bcd60e51b815260206004820152602e60248201527f496e697469616c697a61626c653a20636f6e747261637420697320616c72656160448201526d191e481a5b9a5d1a585b1a5e995960921b606482015260840161080b565b6000805460ff191660011790558015610930576000805461ff0019166101001790555b61093988611ef9565b8015610949575061094987611ef9565b8015610959575061095986611ef9565b8015610969575061096985611ef9565b801561098b575061097983611ef9565b8061098b57506001600160a01b038316155b6109ce5760405162461bcd60e51b815260206004820152601460248201527357726f6e6720696e697420617267756d656e747360601b604482015260640161080b565b609c80546001600160a01b03199081166001600160a01b038a811691909117909255609b805482168b8416179055609e80548216898416179055609f80548216888416179055609d8054821686841617905560a08054909116918616918217905560978390556040805163313ce56760e01b8152905163313ce567916004818101926020929091908290030181865afa158015610a6f573d6000803e3d6000fd5b505050506040513d601f19601f82011682018060405250810190610a939190612cbf565b60a160146101000a81548160ff021916908360ff160217905550610ab5611f08565b610abd611f37565b610ac5611f66565b8015610b0b576000805461ff0019169055604051600181527f7f26b83ff96e1f2b6a682f133852f6798a09c465da95921460cefb38474024989060200160405180910390a15b5050505050505050565b6000610b2030611546565b905090565b6000610b2f611e82565b6001600160a01b0384166000908152609860209081526040808320338452909152902054821115610ba3576001600160a01b03841660009081526098602090815260408083203384529091529081902054905163054365bb60e31b815261080b918491600401918252602082015260400190565b6001600160a01b038316610bca57604051633a954ecd60e21b815260040160405180910390fd5b306001600160a01b03841603610bf35760405163ed728e5760e01b815260040160405180910390fd5b610bfc8461214b565b600080610c088661227f565b9150915080841115610c37576040516350d2479d60e11b8152600481018590526024810182905260440161080b565b610c428685846123d2565b6001600160a01b03861660009081526099602052604081208054869290610c6a908490612cac565b90915550506001600160a01b038616600090815260986020908152604080832033845290915281208054869290610ca2908490612cac565b90915550610cb190508561214b565b6001600160a01b03851660009081526099602052604081208054869290610cd9908490612c99565b9091555050609d546001600160a01b031615801590610cf757508315155b15610de157609d54604051630d5dbdb360e21b81526000916001600160a01b031690633576f6cc90610d2f9088908b90600401612ce2565b6020604051808303816000875af1158015610d4e573d6000803e3d6000fd5b505050506040513d601f19601f82011682018060405250810190610d729190612c6a565b90508015610ddf57609d546040516328ba35d960e11b81526001600160a01b03909116906351746bb290610dac9084908a90600401612ce2565b600060405180830381600087803b158015610dc657600080fd5b505af1158015610dda573d6000803e3d6000fd5b505050505b505b846001600160a01b0316866001600160a01b0316600080516020612dbc83398151915286604051610e1491815260200190565b60405180910390a3600192505050610e2c6001606555565b9392505050565b609d546040516246613160e11b81526000916001600160a01b031690628cc26290610e62903390600401612ac7565b602060405180830381865afa158015610e7f573d6000803e3d6000fd5b505050506040513d601f19601f82011682018060405250810190610b209190612c6a565b610eab611e82565b610eb43361214b565b33600090815260996020526040902054610ecf90829061248c565b60a0546040516370a0823160e01b81529192506001600160a01b0316906370a0823190610f00903090600401612ac7565b602060405180830381865afa158015610f1d573d6000803e3d6000fd5b505050506040513d601f19601f82011682018060405250810190610f419190612c6a565b811115610f61576040516316d5c93f60e21b815260040160405180910390fd5b30600090815260996020526040902054811115610f9157604051630bba337f60e11b815260040160405180910390fd5b30600090815260996020526040902080548290039055610fb133826124a2565b610fb9611f66565b610fc33382611edb565b609d546001600160a01b03161561104b57609d54604051630d5dbdb360e21b81526001600160a01b0390911690633576f6cc906110069084903390600401612ce2565b6020604051808303816000875af1158015611025573d6000803e3d6000fd5b505050506040513d601f19601f820116820180604052508101906110499190612c6a565b505b6040805182815242602082015233917fdf273cb619d95419a9cd0ec88123a0538c85064229baa6363788f743fff90deb91015b60405180910390a26110906001606555565b50565b61109b611e28565b609755565b6110a8611e82565b6110b13361255f565b336000908152609a60205260409020548111156110e157604051630dcad43360e11b815260040160405180910390fd5b6110eb3382612665565b336000908152609a60205260408120805483929061110a908490612cac565b9091555050306000908152609a60205260408120805483929061112e908490612cac565b9091555061113c9050611f66565b6040805182815242602082015233917f24fcca58a997b1b2eff6db8107e860458544c09ddd3693b3b779e1df6c0d6c5d910161107e565b60006001600160a01b03831661119c57604051633d6601c760e11b815260040160405180910390fd5b3360009081526098602090815260408083206001600160a01b03871684529091528120546111cb908490612c99565b3360008181526098602090815260408083206001600160a01b038a1680855290835292819020859055518481529394509092600080516020612ddc833981519152910160405180910390a35060019392505050565b6000610b20305b609f546001600160a01b038281166000908152609a602052604080822054905163966da88960e01b81529193929092169163966da8899161126d91908690600401612ce2565b602060405180830381865afa15801561128a573d6000803e3d6000fd5b505050506040513d601f19601f820116820180604052508101906107b49190612c6a565b6112b6611e82565b816000036112d75760405163078e1d8560e01b815260040160405180910390fd5b6001600160a01b03811661131c5760405162461bcd60e51b815260206004820152600c60248201526b41646472657373207a65726f60a01b604482015260640161080b565b306001600160a01b038216036113745760405162461bcd60e51b815260206004820181905260248201527f43616e6e6f74206465706f736974206f6e20626568616c66206f6620706f6f6c604482015260640161080b565b60a0546040516370a0823160e01b81526113f09184916001600160a01b03909116906370a08231906113aa903390600401612ac7565b602060405180830381865afa1580156113c7573d6000803e3d6000fd5b505050506040513d601f19601f820116820180604052508101906113eb9190612c6a565b61248c565b91506113fb8161214b565b609754156114405760975430600090815260996020526040902054611421908490612c99565b111561144057604051633f27d61760e01b815260040160405180910390fd5b61144a3383612665565b611454818361267d565b3060009081526099602052604081208054849290611473908490612c99565b909155506114819050611f66565b609d546001600160a01b0316156114f757609d546040516328ba35d960e11b81526001600160a01b03909116906351746bb2906114c49085908590600401612ce2565b600060405180830381600087803b1580156114de57600080fd5b505af11580156114f2573d6000803e3d6000fd5b505050505b604080518381524260208201526001600160a01b0383169133917fef0ada5ca19bede6a40b575865a6ce451938d26835b7215e6a5e03bb2c439212910160405180910390a361073a6001606555565b609e546001600160a01b0382811660009081526099602052604080822054905163966da88960e01b81529193929092169163966da8899161126d91908690600401612ce2565b611594611e28565b61159d81611ef9565b1580156115b257506001600160a01b03811615155b156115d257806040516322a2d07b60e21b815260040161080b9190612ac7565b609b80546001600160a01b0319166001600160a01b038316908117909155156115fd576115fd611f66565b806001600160a01b03167fef1b7e9216e08b283cc613824ccb26ea505227777839a4f3c6810d64594e01824260405161085e91815260200190565b565b611642611e28565b61164b81611ef9565b15801561166057506001600160a01b03811615155b1561168057806040516322a2d07b60e21b815260040161080b9190612ac7565b60a180546001600160a01b0319166001600160a01b0383169081179091556040514281527f8e6481d1924c9bb8cdfd9d6140f3e5570c34c6c580d915144728bbbf394eed0a9060200161085e565b60006001600160a01b0383166116f757604051633d6601c760e11b815260040160405180910390fd5b3360009081526098602090815260408083206001600160a01b0387168452909152902054828110156117465760405163054365bb60e31b8152600481018490526024810182905260440161080b565b60006117528483612cac565b3360008181526098602090815260408083206001600160a01b038b1680855290835292819020859055518481529394509092600080516020612ddc833981519152910160405180910390a3506001949350505050565b60006117b2611e82565b6001600160a01b0383166117d957604051633a954ecd60e21b815260040160405180910390fd5b306001600160a01b038416036118025760405163ed728e5760e01b815260040160405180910390fd5b3361180c8161214b565b6000806118188361227f565b9150915080851115611847576040516350d2479d60e11b8152600481018690526024810182905260440161080b565b6118528386846123d2565b6001600160a01b03831660009081526099602052604090208054869003905561187a8661214b565b6001600160a01b038616600090815260996020526040812080548792906118a2908490612c99565b9091555050609d546001600160a01b0316158015906118c057508415155b156119aa57609d54604051630d5dbdb360e21b81526000916001600160a01b031690633576f6cc906118f89089908890600401612ce2565b6020604051808303816000875af1158015611917573d6000803e3d6000fd5b505050506040513d601f19601f8201168201806040525081019061193b9190612c6a565b905080156119a857609d546040516328ba35d960e11b81526001600160a01b03909116906351746bb2906119759084908b90600401612ce2565b600060405180830381600087803b15801561198f57600080fd5b505af11580156119a3573d6000803e3d6000fd5b505050505b505b856001600160a01b0316836001600160a01b0316600080516020612dbc833981519152876040516119dd91815260200190565b60405180910390a3600193505050506107b46001606555565b61109081336112ae565b611a08612a0d565b6040518060a00160405280611a1b610b15565b8152602001611a28611a57565b8152602001611a35611d8e565b8152602001611a42611220565b8152602001670cd64299613c80009052919050565b609b546000906001600160a01b0316637cd08331611a73611220565b611a7b610b15565b6040516001600160e01b031960e085901b16815260048101929092526024820152604401610e62565b609c546001600160a01b0316611acd57604051631c038dab60e21b815260040160405180910390fd5b609c5460405163039ff21960e21b81526001600160a01b0390911690630e7fc86490611afd903390600401612ac7565b602060405180830381865afa158015611b1a573d6000803e3d6000fd5b505050506040513d601f19601f82011682018060405250810190611b3e9190612cf9565b611b5b57604051637582fa9b60e11b815260040160405180910390fd5b611b63610b15565b600003611b83576040516316d5c93f60e21b815260040160405180910390fd5b611b8b611e82565b60a0546040516370a0823160e01b81526001600160a01b03909116906370a0823190611bbb903090600401612ac7565b602060405180830381865afa158015611bd8573d6000803e3d6000fd5b505050506040513d601f19601f82011682018060405250810190611bfc9190612c6a565b811115611c1c576040516316d5c93f60e21b815260040160405180910390fd5b611c253361255f565b336000908152609a602052604081208054839290611c44908490612c99565b9091555050306000908152609a602052604081208054839290611c68908490612c99565b90915550611c7890503382611edb565b611c80611f66565b6040805182815242602082015233917fd6b37be10b58108f696d9ed067fedad0bff7cb417ef4c28d2f8a25d6d83c98d5910160405180910390a2611cc46001606555565b670cd64299613c8000611cd5610b15565b611cdd611220565b611cef90670de0b6b3a7640000612d1b565b611cf99190612d32565b1115611090576040516372b9ce3f60e11b815260040160405180910390fd5b611d20611e28565b6001600160a01b038116611d855760405162461bcd60e51b815260206004820152602660248201527f4f776e61626c653a206e6577206f776e657220697320746865207a65726f206160448201526564647265737360d01b606482015260840161080b565b61109081612704565b609b546000906001600160a01b031663df841eec611a73611220565b611db2611e28565b611dbb81611ef9565b611dda57806040516322a2d07b60e21b815260040161080b9190612ac7565b609c80546001600160a01b0319166001600160a01b0383169081179091556040514281527f04dce7d074f7e287a2e6e3516c802271d58d5c14e0dede83a49719eb6b9204699060200161085e565b6033546001600160a01b031633146116385760405162461bcd60e51b815260206004820181905260248201527f4f776e61626c653a2063616c6c6572206973206e6f7420746865206f776e6572604482015260640161080b565b600260655403611ed45760405162461bcd60e51b815260206004820152601f60248201527f5265656e7472616e637947756172643a207265656e7472616e742063616c6c00604482015260640161080b565b6002606555565b60a05461073a906001600160a01b03168383612756565b6001606555565b6001600160a01b03163b151590565b600054610100900460ff16611f2f5760405162461bcd60e51b815260040161080b90612d54565b611638612880565b600054610100900460ff16611f5e5760405162461bcd60e51b815260040161080b90612d54565b6116386128b0565b6000611f70611220565b90506000611f7c610b15565b609b549091506001600160a01b0316611fa85760405163fd4851e960e01b815260040160405180910390fd5b609e54609b54604051637cd0833160e01b815260048101859052602481018490526001600160a01b03928316926334fcf437921690637cd0833190604401602060405180830381865afa158015612003573d6000803e3d6000fd5b505050506040513d601f19601f820116820180604052508101906120279190612c6a565b6040518263ffffffff1660e01b815260040161204591815260200190565b600060405180830381600087803b15801561205f57600080fd5b505af1158015612073573d6000803e3d6000fd5b5050609f54609b546040516337e107bb60e21b815260048101879052602481018690526001600160a01b0392831694506334fcf437935091169063df841eec90604401602060405180830381865afa1580156120d3573d6000803e3d6000fd5b505050506040513d601f19601f820116820180604052508101906120f79190612c6a565b6040518263ffffffff1660e01b815260040161211591815260200190565b600060405180830381600087803b15801561212f57600080fd5b505af1158015612143573d6000803e3d6000fd5b505050505050565b6001600160a01b03811660009081526099602052604081205461216d83611546565b6121779190612cac565b9050612183828261267d565b61218c30611546565b306000908152609960205260409081902091909155516001600160a01b038316907f9bbd517758fbae61197f1c1c04c8614064e89512dbaf4350dcdf76fcaa5e2161906121e59084904290918252602082015260400190565b60405180910390a2609e54604051637681d99b60e11b81526001600160a01b039091169063ed03b3369061221d908590600401612ac7565b600060405180830381600087803b15801561223757600080fd5b505af115801561224b573d6000803e3d6000fd5b5050609e54604051637681d99b60e11b81526001600160a01b03909116925063ed03b3369150612115903090600401612ac7565b60a15460009081906001600160a01b0316156123b35760a15460405163cbf9fe5f60e01b81526001600160a01b039091169063cbf9fe5f906122c5908690600401612ac7565b602060405180830381865afa1580156122e2573d6000803e3d6000fd5b505050506040513d601f19601f820116820180604052508101906123069190612c6a565b915081156123b35760a15460405163512edc6760e11b81526001600160a01b039091169063a25db8ce9061233e908690600401612ac7565b602060405180830381865afa15801561235b573d6000803e3d6000fd5b505050506040513d601f19601f8201168201806040525081019061237f9190612c6a565b6123899083612cac565b6001600160a01b0384166000908152609960205260409020546123ac9190612cac565b9050915091565b506001600160a01b038216600090815260996020526040902054915091565b6001600160a01b0383166000908152609960205260408120546123f6908390612cac565b90508083118015612411575060a1546001600160a01b031615155b156106305760a1546001600160a01b03166349c1de3f856124328487612cac565b6040516001600160e01b031960e085901b1681526001600160a01b0390921660048301526024820152604401600060405180830381600087803b15801561247857600080fd5b505af1158015610b0b573d6000803e3d6000fd5b600081831061249b5781610e2c565b5090919050565b6001600160a01b0382166000908152609960205260409020548111156124db57604051630bba337f60e11b815260040160405180910390fd5b6000806124e78461227f565b915091508083111561250c5760405163a06a83a160e01b815260040160405180910390fd5b6125178484846123d2565b6001600160a01b03841660008181526099602090815260408083208054889003905551868152919291600080516020612dbc833981519152910160405180910390a350505050565b61256881611227565b6001600160a01b0382166000908152609a602052604090205561258a30611227565b306000908152609a60205260409081902091909155609f549051637681d99b60e11b81526001600160a01b039091169063ed03b336906125ce908490600401612ac7565b600060405180830381600087803b1580156125e857600080fd5b505af11580156125fc573d6000803e3d6000fd5b5050609f54604051637681d99b60e11b81526001600160a01b03909116925063ed03b3369150612630903090600401612ac7565b600060405180830381600087803b15801561264a57600080fd5b505af115801561265e573d6000803e3d6000fd5b5050505050565b60a05461073a906001600160a01b03168330846128d7565b6001600160a01b0382166126a4576040516346dbfb6d60e11b815260040160405180910390fd5b6001600160a01b038216600090815260996020526040812080548392906126cc908490612c99565b90915550506040518181526001600160a01b03831690600090600080516020612dbc8339815191529060200160405180910390a35050565b603380546001600160a01b038381166001600160a01b0319831681179093556040519116919082907f8be0079c531659141344cd1fd0a4f28419497f9722a3daafe3b4186f6b6457e090600090a35050565b604080516001600160a01b038481166024830152604480830185905283518084039091018152606490920183526020820180516001600160e01b031663a9059cbb60e01b17905291516000928392908716916127b29190612d9f565b6000604051808303816000865af19150503d80600081146127ef576040519150601f19603f3d011682016040523d82523d6000602084013e6127f4565b606091505b509150915081801561281e57508051158061281e57508080602001905181019061281e9190612cf9565b61265e5760405162461bcd60e51b815260206004820152602d60248201527f5472616e7366657248656c7065723a3a736166655472616e736665723a20747260448201526c185b9cd9995c8819985a5b1959609a1b606482015260840161080b565b600054610100900460ff166128a75760405162461bcd60e51b815260040161080b90612d54565b61163833612704565b600054610100900460ff16611ef25760405162461bcd60e51b815260040161080b90612d54565b604080516001600160a01b0385811660248301528481166044830152606480830185905283518084039091018152608490920183526020820180516001600160e01b03166323b872dd60e01b179052915160009283929088169161293b9190612d9f565b6000604051808303816000865af19150503d8060008114612978576040519150601f19603f3d011682016040523d82523d6000602084013e61297d565b606091505b50915091508180156129a75750805115806129a75750808060200190518101906129a79190612cf9565b6121435760405162461bcd60e51b815260206004820152603160248201527f5472616e7366657248656c7065723a3a7472616e7366657246726f6d3a207472604482015270185b9cd9995c919c9bdb4819985a5b1959607a1b606482015260840161080b565b6040518060a001604052806005906020820280368337509192915050565b60005b83811015612a46578181015183820152602001612a2e565b50506000910152565b6020815260008251806020840152612a6e816040850160208701612a2b565b601f01601f19169190910160400192915050565b6001600160a01b038116811461109057600080fd5b60008060408385031215612aaa57600080fd5b823591506020830135612abc81612a82565b809150509250929050565b6001600160a01b0391909116815260200190565b600060208284031215612aed57600080fd5b8135610e2c81612a82565b60008060408385031215612b0b57600080fd5b8235612b1681612a82565b946020939093013593505050565b600080600080600080600060e0888a031215612b3f57600080fd5b8735612b4a81612a82565b96506020880135612b5a81612a82565b95506040880135612b6a81612a82565b94506060880135612b7a81612a82565b93506080880135612b8a81612a82565b925060a0880135612b9a81612a82565b8092505060c0880135905092959891949750929550565b600080600060608486031215612bc657600080fd5b8335612bd181612a82565b92506020840135612be181612a82565b929592945050506040919091013590565b600060208284031215612c0457600080fd5b5035919050565b60a08101818360005b6005811015612c33578151835260209283019290910190600101612c14565b50505092915050565b60008060408385031215612c4f57600080fd5b8235612c5a81612a82565b91506020830135612abc81612a82565b600060208284031215612c7c57600080fd5b5051919050565b634e487b7160e01b600052601160045260246000fd5b808201808211156107b4576107b4612c83565b818103818111156107b4576107b4612c83565b600060208284031215612cd157600080fd5b815160ff81168114610e2c57600080fd5b9182526001600160a01b0316602082015260400190565b600060208284031215612d0b57600080fd5b81518015158114610e2c57600080fd5b80820281158282048414176107b4576107b4612c83565b600082612d4f57634e487b7160e01b600052601260045260246000fd5b500490565b6020808252602b908201527f496e697469616c697a61626c653a20636f6e7472616374206973206e6f74206960408201526a6e697469616c697a696e6760a81b606082015260800190565b60008251612db1818460208701612a2b565b919091019291505056feddf252ad1be2c89b69c2b068fc378daa952ba7f163c4a11628f55a4df523b3ef8c5be1e5ebec7d5bd14f71427d1e84f3dd0314c0f7b2291e5b200ac8c7c3b925a2646970667358221220ce6c98166fbf5c358bb48bf3de0fd363e21d6d2bb9fe7322165b6e2bbc44c82e64736f6c63430008110033",
  "devdoc": {
    "details": "Contract allowing user to deposit to and borrow BTC.b from a dedicated user account",
    "errors": {
      "InsufficientAllowance(uint256,uint256)": [
        {
          "params": {
            "allowance": "current allowance",
            "requested": "requested transfer amount"
          }
        }
      ],
      "TransferAmountExceedsBalance(uint256,uint256)": [
        {
          "params": {
            "amount": "transfer amount",
            "balance": "available balance"
          }
        }
      ]
    },
    "kind": "dev",
    "methods": {
      "allowance(address,address)": {
        "details": "Returns the remaining number of tokens that `spender` will be allowed to spend on behalf of `owner` through {transferFrom}. This is zero by default. This value changes when {approve} or {transferFrom} are called."
      },
      "approve(address,uint256)": {
        "details": "Sets `amount` as the allowance of `spender` over the caller's tokens. Returns a boolean value indicating whether the operation succeeded. IMPORTANT: Beware that changing an allowance with this method brings the risk that someone may use both the old and the new allowance by unfortunate transaction ordering. One possible solution to mitigate this race condition is to first reduce the spender's allowance to 0 and set the desired value afterwards: https://github.com/ethereum/EIPs/issues/20#issuecomment-263524729 Emits an {Approval} event."
      },
      "balanceOf(address)": {
        "details": "_user the address of queried depositor*"
      },
      "borrow(uint256)": {
        "details": "_amount the amount to be borrowedIt is only meant to be used by a SmartLoanDiamondProxy*"
      },
      "owner()": {
        "details": "Returns the address of the current owner."
      },
      "renounceOwnership()": {
        "details": "Leaves the contract without owner. It will not be possible to call `onlyOwner` functions. Can only be called by the current owner. NOTE: Renouncing ownership will leave the contract without an owner, thereby disabling any functionality that is only available to the owner."
      },
      "repay(uint256)": {
        "details": "It is only meant to be used by a SmartLoanDiamondProxy*"
      },
      "setBorrowersRegistry(address)": {
        "details": "borrowersRegistry the address of borrowers registry*"
      },
      "setPoolRewarder(address)": {
        "details": "_poolRewarder the address of PoolRewarder*"
      },
      "setRatesCalculator(address)": {
        "details": "ratesCalculator the address of rates calculator*"
      },
      "setTotalSupplyCap(uint256)": {
        "details": "_newTotalSupplyCap new deposit cap*"
      },
      "setVestingDistributor(address)": {
        "details": "_poolRewarder the address of PoolRewarder*"
      },
      "totalSupply()": {
        "details": "Returns the amount of tokens in existence."
      },
      "transferOwnership(address)": {
        "details": "Transfers ownership of the contract to a new account (`newOwner`). Can only be called by the current owner."
      },
      "withdraw(uint256)": {
        "details": "_amount the amount to be withdrawn*"
      }
    },
    "title": "BtcPool",
    "version": 1
  },
  "userdoc": {
    "kind": "user",
    "methods": {
      "balanceOf(address)": {
        "notice": "Returns the current deposited amount for the given user The value includes the interest rates earned at the current moment"
      },
      "borrow(uint256)": {
        "notice": "Borrows the specified amount It updates user borrowed balance, total borrowed amount and rates"
      },
      "deposit(uint256)": {
        "notice": "Deposits the amount It updates user deposited balance, total deposited and rates*"
      },
      "depositOnBehalf(uint256,address)": {
        "notice": "Deposits the amount on behalf of `_of` user. It updates `_of` user deposited balance, total deposited and rates*"
      },
      "getBorrowingRate()": {
        "notice": "Returns the current interest rate for borrowings*"
      },
      "getDepositRate()": {
        "notice": "Returns the current interest rate for deposits*"
      },
      "getFullPoolStatus()": {
        "notice": "Returns full pool status"
      },
      "recoverSurplus(uint256,address)": {
        "notice": "Recovers the surplus funds resultant from difference between deposit and borrowing rates*"
      },
      "repay(uint256)": {
        "notice": "Repays the amount It updates user borrowed balance, total borrowed amount and rates"
      },
      "setBorrowersRegistry(address)": {
        "notice": "Sets the new borrowers registry contract. The borrowers registry decides if an account can borrow funds. Only the owner of the Contract can execute this function."
      },
      "setPoolRewarder(address)": {
        "notice": "Sets the new Pool Rewarder. The IPoolRewarder that distributes additional token rewards to people having a stake in this pool proportionally to their stake and time of participance. Only the owner of the Contract can execute this function."
      },
      "setRatesCalculator(address)": {
        "notice": "Sets the new rate calculator. The calculator is an external contract that contains the logic for calculating deposit and borrowing rates. Only the owner of the Contract can execute this function."
      },
      "setTotalSupplyCap(uint256)": {
        "notice": "Sets new totalSupplyCap limiting how much in total can be deposited to the Pool. Only the owner of the Contract can execute this function."
      },
      "setVestingDistributor(address)": {
        "notice": "Sets the new Pool Rewarder. The IPoolRewarder that distributes additional token rewards to people having a stake in this pool proportionally to their stake and time of participance. Only the owner of the Contract can execute this function."
      },
      "withdraw(uint256)": {
        "notice": "Withdraws selected amount from the user deposits"
      }
    },
    "version": 1
  },
  "storageLayout": {
    "storage": [
      {
        "astId": 138,
        "contract": "contracts/deployment/avalanche/BtcPool.sol:BtcPool",
        "label": "_initialized",
        "offset": 0,
        "slot": "0",
        "type": "t_uint8"
      },
      {
        "astId": 141,
        "contract": "contracts/deployment/avalanche/BtcPool.sol:BtcPool",
        "label": "_initializing",
        "offset": 1,
        "slot": "0",
        "type": "t_bool"
      },
      {
        "astId": 755,
        "contract": "contracts/deployment/avalanche/BtcPool.sol:BtcPool",
        "label": "__gap",
        "offset": 0,
        "slot": "1",
        "type": "t_array(t_uint256)50_storage"
      },
      {
        "astId": 10,
        "contract": "contracts/deployment/avalanche/BtcPool.sol:BtcPool",
        "label": "_owner",
        "offset": 0,
        "slot": "51",
        "type": "t_address"
      },
      {
        "astId": 130,
        "contract": "contracts/deployment/avalanche/BtcPool.sol:BtcPool",
        "label": "__gap",
        "offset": 0,
        "slot": "52",
        "type": "t_array(t_uint256)49_storage"
      },
      {
        "astId": 314,
        "contract": "contracts/deployment/avalanche/BtcPool.sol:BtcPool",
        "label": "_status",
        "offset": 0,
        "slot": "101",
        "type": "t_uint256"
      },
      {
        "astId": 383,
        "contract": "contracts/deployment/avalanche/BtcPool.sol:BtcPool",
        "label": "__gap",
        "offset": 0,
        "slot": "102",
        "type": "t_array(t_uint256)49_storage"
      },
      {
        "astId": 1910,
        "contract": "contracts/deployment/avalanche/BtcPool.sol:BtcPool",
        "label": "totalSupplyCap",
        "offset": 0,
        "slot": "151",
        "type": "t_uint256"
      },
      {
        "astId": 1916,
        "contract": "contracts/deployment/avalanche/BtcPool.sol:BtcPool",
        "label": "_allowed",
        "offset": 0,
        "slot": "152",
        "type": "t_mapping(t_address,t_mapping(t_address,t_uint256))"
      },
      {
        "astId": 1920,
        "contract": "contracts/deployment/avalanche/BtcPool.sol:BtcPool",
        "label": "_deposited",
        "offset": 0,
        "slot": "153",
        "type": "t_mapping(t_address,t_uint256)"
      },
      {
        "astId": 1924,
        "contract": "contracts/deployment/avalanche/BtcPool.sol:BtcPool",
        "label": "borrowed",
        "offset": 0,
        "slot": "154",
        "type": "t_mapping(t_address,t_uint256)"
      },
      {
        "astId": 1927,
        "contract": "contracts/deployment/avalanche/BtcPool.sol:BtcPool",
        "label": "ratesCalculator",
        "offset": 0,
        "slot": "155",
        "type": "t_contract(IRatesCalculator)5102"
      },
      {
        "astId": 1930,
        "contract": "contracts/deployment/avalanche/BtcPool.sol:BtcPool",
        "label": "borrowersRegistry",
        "offset": 0,
        "slot": "156",
        "type": "t_contract(IBorrowersRegistry)5015"
      },
      {
        "astId": 1933,
        "contract": "contracts/deployment/avalanche/BtcPool.sol:BtcPool",
        "label": "poolRewarder",
        "offset": 0,
        "slot": "157",
        "type": "t_contract(IPoolRewarder)5080"
      },
      {
        "astId": 1936,
        "contract": "contracts/deployment/avalanche/BtcPool.sol:BtcPool",
        "label": "depositIndex",
        "offset": 0,
        "slot": "158",
        "type": "t_contract(IIndex)5042"
      },
      {
        "astId": 1939,
        "contract": "contracts/deployment/avalanche/BtcPool.sol:BtcPool",
        "label": "borrowIndex",
        "offset": 0,
        "slot": "159",
        "type": "t_contract(IIndex)5042"
      },
      {
        "astId": 1941,
        "contract": "contracts/deployment/avalanche/BtcPool.sol:BtcPool",
        "label": "tokenAddress",
        "offset": 0,
        "slot": "160",
        "type": "t_address_payable"
      },
      {
        "astId": 1944,
        "contract": "contracts/deployment/avalanche/BtcPool.sol:BtcPool",
        "label": "vestingDistributor",
        "offset": 0,
        "slot": "161",
        "type": "t_contract(VestingDistributor)4904"
      },
      {
        "astId": 1946,
        "contract": "contracts/deployment/avalanche/BtcPool.sol:BtcPool",
        "label": "_decimals",
        "offset": 20,
        "slot": "161",
        "type": "t_uint8"
      }
    ],
    "types": {
      "t_address": {
        "encoding": "inplace",
        "label": "address",
        "numberOfBytes": "20"
      },
      "t_address_payable": {
        "encoding": "inplace",
        "label": "address payable",
        "numberOfBytes": "20"
      },
      "t_array(t_uint256)49_storage": {
        "base": "t_uint256",
        "encoding": "inplace",
        "label": "uint256[49]",
        "numberOfBytes": "1568"
      },
      "t_array(t_uint256)50_storage": {
        "base": "t_uint256",
        "encoding": "inplace",
        "label": "uint256[50]",
        "numberOfBytes": "1600"
      },
      "t_bool": {
        "encoding": "inplace",
        "label": "bool",
        "numberOfBytes": "1"
      },
      "t_contract(IBorrowersRegistry)5015": {
        "encoding": "inplace",
        "label": "contract IBorrowersRegistry",
        "numberOfBytes": "20"
      },
      "t_contract(IIndex)5042": {
        "encoding": "inplace",
        "label": "contract IIndex",
        "numberOfBytes": "20"
      },
      "t_contract(IPoolRewarder)5080": {
        "encoding": "inplace",
        "label": "contract IPoolRewarder",
        "numberOfBytes": "20"
      },
      "t_contract(IRatesCalculator)5102": {
        "encoding": "inplace",
        "label": "contract IRatesCalculator",
        "numberOfBytes": "20"
      },
      "t_contract(VestingDistributor)4904": {
        "encoding": "inplace",
        "label": "contract VestingDistributor",
        "numberOfBytes": "20"
      },
      "t_mapping(t_address,t_mapping(t_address,t_uint256))": {
        "encoding": "mapping",
        "key": "t_address",
        "label": "mapping(address => mapping(address => uint256))",
        "numberOfBytes": "32",
        "value": "t_mapping(t_address,t_uint256)"
      },
      "t_mapping(t_address,t_uint256)": {
        "encoding": "mapping",
        "key": "t_address",
        "label": "mapping(address => uint256)",
        "numberOfBytes": "32",
        "value": "t_uint256"
      },
      "t_uint256": {
        "encoding": "inplace",
        "label": "uint256",
        "numberOfBytes": "32"
      },
      "t_uint8": {
        "encoding": "inplace",
        "label": "uint8",
        "numberOfBytes": "1"
      }
    }
  }
}