{
  "address": "0xf394240A115e21FbeAd80F02ba7aEaAb54A31fEE",
  "abi": [
    {
      "inputs": [
        {
          "internalType": "address",
          "name": "pool_",
          "type": "address"
        }
      ],
      "stateMutability": "nonpayable",
      "type": "constructor"
    },
    {
      "inputs": [],
      "name": "InvalidAddress",
      "type": "error"
    },
    {
      "inputs": [],
      "name": "Unauthorized",
      "type": "error"
    },
    {
      "anonymous": false,
      "inputs": [
        {
          "indexed": false,
          "internalType": "address[]",
          "name": "accounts",
          "type": "address[]"
        },
        {
          "indexed": false,
          "internalType": "uint256",
          "name": "timestamp",
          "type": "uint256"
        }
      ],
      "name": "BatchDeposited",
      "type": "event"
    },
    {
      "anonymous": false,
      "inputs": [
        {
          "indexed": true,
          "internalType": "address",
          "name": "account",
          "type": "address"
        },
        {
          "indexed": true,
          "internalType": "uint256",
          "name": "amount",
          "type": "uint256"
        },
        {
          "indexed": false,
          "internalType": "uint256",
          "name": "timestamp",
          "type": "uint256"
        }
      ],
      "name": "Deposited",
      "type": "event"
    },
    {
      "anonymous": false,
      "inputs": [
        {
          "indexed": true,
          "internalType": "address",
          "name": "previousOwner",
          "type": "address"
        },
        {
          "indexed": true,
          "internalType": "address",
          "name": "newOwner",
          "type": "address"
        }
      ],
      "name": "OwnershipTransferred",
      "type": "event"
    },
    {
      "anonymous": false,
      "inputs": [
        {
          "indexed": true,
          "internalType": "address",
          "name": "account",
          "type": "address"
        },
        {
          "indexed": true,
          "internalType": "uint256",
          "name": "amount",
          "type": "uint256"
        },
        {
          "indexed": false,
          "internalType": "uint256",
          "name": "timestamp",
          "type": "uint256"
        }
      ],
      "name": "Withdrawn",
      "type": "event"
    },
    {
      "inputs": [
        {
          "internalType": "address[]",
          "name": "accounts",
          "type": "address[]"
        }
      ],
      "name": "addDeposits",
      "outputs": [],
      "stateMutability": "nonpayable",
      "type": "function"
    },
    {
      "inputs": [
        {
          "internalType": "address",
          "name": "",
          "type": "address"
        }
      ],
      "name": "balanceOf",
      "outputs": [
        {
          "internalType": "uint256",
          "name": "",
          "type": "uint256"
        }
      ],
      "stateMutability": "view",
      "type": "function"
    },
    {
      "inputs": [],
      "name": "duration",
      "outputs": [
        {
          "internalType": "uint256",
          "name": "",
          "type": "uint256"
        }
      ],
      "stateMutability": "view",
      "type": "function"
    },
    {
      "inputs": [
        {
          "internalType": "address",
          "name": "_account",
          "type": "address"
        }
      ],
      "name": "earned",
      "outputs": [
        {
          "internalType": "uint256",
          "name": "",
          "type": "uint256"
        }
      ],
      "stateMutability": "view",
      "type": "function"
    },
    {
      "inputs": [],
      "name": "finishAt",
      "outputs": [
        {
          "internalType": "uint256",
          "name": "",
          "type": "uint256"
        }
      ],
      "stateMutability": "view",
      "type": "function"
    },
    {
      "inputs": [
        {
          "internalType": "address payable",
          "name": "_user",
          "type": "address"
        }
      ],
      "name": "getRewardsFor",
      "outputs": [],
      "stateMutability": "nonpayable",
      "type": "function"
    },
    {
      "inputs": [],
      "name": "lastTimeRewardApplicable",
      "outputs": [
        {
          "internalType": "uint256",
          "name": "",
          "type": "uint256"
        }
      ],
      "stateMutability": "view",
      "type": "function"
    },
    {
      "inputs": [],
      "name": "notifyRewardAmount",
      "outputs": [],
      "stateMutability": "payable",
      "type": "function"
    },
    {
      "inputs": [],
      "name": "owner",
      "outputs": [
        {
          "internalType": "address",
          "name": "",
          "type": "address"
        }
      ],
      "stateMutability": "view",
      "type": "function"
    },
    {
      "inputs": [],
      "name": "pool",
      "outputs": [
        {
          "internalType": "address",
          "name": "",
          "type": "address"
        }
      ],
      "stateMutability": "view",
      "type": "function"
    },
    {
      "inputs": [],
      "name": "renounceOwnership",
      "outputs": [],
      "stateMutability": "nonpayable",
      "type": "function"
    },
    {
      "inputs": [],
      "name": "rewardPerToken",
      "outputs": [
        {
          "internalType": "uint256",
          "name": "",
          "type": "uint256"
        }
      ],
      "stateMutability": "view",
      "type": "function"
    },
    {
      "inputs": [],
      "name": "rewardPerTokenStored",
      "outputs": [
        {
          "internalType": "uint256",
          "name": "",
          "type": "uint256"
        }
      ],
      "stateMutability": "view",
      "type": "function"
    },
    {
      "inputs": [],
      "name": "rewardRate",
      "outputs": [
        {
          "internalType": "uint256",
          "name": "",
          "type": "uint256"
        }
      ],
      "stateMutability": "view",
      "type": "function"
    },
    {
      "inputs": [
        {
          "internalType": "address",
          "name": "",
          "type": "address"
        }
      ],
      "name": "rewards",
      "outputs": [
        {
          "internalType": "uint256",
          "name": "",
          "type": "uint256"
        }
      ],
      "stateMutability": "view",
      "type": "function"
    },
    {
      "inputs": [
        {
          "internalType": "uint256",
          "name": "_duration",
          "type": "uint256"
        }
      ],
      "name": "setRewardsDuration",
      "outputs": [],
      "stateMutability": "nonpayable",
      "type": "function"
    },
    {
      "inputs": [
        {
          "internalType": "uint256",
          "name": "amount",
          "type": "uint256"
        },
        {
          "internalType": "address",
          "name": "account",
          "type": "address"
        }
      ],
      "name": "stakeFor",
      "outputs": [],
      "stateMutability": "nonpayable",
      "type": "function"
    },
    {
      "inputs": [],
      "name": "totalSupply",
      "outputs": [
        {
          "internalType": "uint256",
          "name": "",
          "type": "uint256"
        }
      ],
      "stateMutability": "view",
      "type": "function"
    },
    {
      "inputs": [
        {
          "internalType": "address",
          "name": "newOwner",
          "type": "address"
        }
      ],
      "name": "transferOwnership",
      "outputs": [],
      "stateMutability": "nonpayable",
      "type": "function"
    },
    {
      "inputs": [],
      "name": "updatedAt",
      "outputs": [
        {
          "internalType": "uint256",
          "name": "",
          "type": "uint256"
        }
      ],
      "stateMutability": "view",
      "type": "function"
    },
    {
      "inputs": [
        {
          "internalType": "address",
          "name": "",
          "type": "address"
        }
      ],
      "name": "userRewardPerTokenPaid",
      "outputs": [
        {
          "internalType": "uint256",
          "name": "",
          "type": "uint256"
        }
      ],
      "stateMutability": "view",
      "type": "function"
    },
    {
      "inputs": [
        {
          "internalType": "uint256",
          "name": "amount",
          "type": "uint256"
        },
        {
          "internalType": "address",
          "name": "account",
          "type": "address"
        }
      ],
      "name": "withdrawFor",
      "outputs": [
        {
          "internalType": "uint256",
          "name": "",
          "type": "uint256"
        }
      ],
      "stateMutability": "nonpayable",
      "type": "function"
    }
  ],
  "transactionHash": "0x83a579f7d45f5fe2f549cb11745035b5da92f31341b1af19e81e92ff9422526f",
  "args": [
    "0xD26E504fc642B96751fD55D3E68AF295806542f5"
  ],
  "numDeployments": 2,
  "solcInputHash": "ae5bc0488db0c59d8955cae7beb34910",
  "bytecode": "0x608060405234801561001057600080fd5b506040516110ee3803806110ee83398101604081905261002f916100d8565b61003833610088565b600180556001600160a01b0381166100635760405163e6c4247b60e01b815260040160405180910390fd5b600280546001600160a01b0319166001600160a01b0392909216919091179055610108565b600080546001600160a01b038381166001600160a01b0319831681178455604051919092169283917f8be0079c531659141344cd1fd0a4f28419497f9722a3daafe3b4186f6b6457e09190a35050565b6000602082840312156100ea57600080fd5b81516001600160a01b038116811461010157600080fd5b9392505050565b610fd7806101176000396000f3fe6080604052600436106101045760003560e01c80628cc262146101095780630700037d1461013c5780630c51dde4146101695780630fb5a6b41461017357806316f0115b1461018957806318160ddd146101b65780632260b83e146101cc5780633576f6cc146101ec57806351746bb21461020c57806367d3b4881461022c57806370a0823114610242578063715018a61461026f5780637519ab50146102845780637b0a47ee1461029a57806380faa57d146102b05780638b876347146102c55780638da5cb5b146102f2578063a9b2885e14610307578063cc1a378f14610327578063cd3daf9d14610347578063df136d651461035c578063f2fde38b14610372575b600080fd5b34801561011557600080fd5b50610129610124366004610d3f565b610392565b6040519081526020015b60405180910390f35b34801561014857600080fd5b50610129610157366004610d3f565b60096020526000908152604090205481565b61017161040f565b005b34801561017f57600080fd5b5061012960035481565b34801561019557600080fd5b506002546101a9906001600160a01b031681565b6040516101339190610d5c565b3480156101c257600080fd5b50610129600a5481565b3480156101d857600080fd5b506101716101e7366004610d3f565b610586565b3480156101f857600080fd5b50610129610207366004610d70565b6106c6565b34801561021857600080fd5b50610171610227366004610d70565b610804565b34801561023857600080fd5b5061012960045481565b34801561024e57600080fd5b5061012961025d366004610d3f565b600b6020526000908152604090205481565b34801561027b57600080fd5b50610171610914565b34801561029057600080fd5b5061012960055481565b3480156102a657600080fd5b5061012960065481565b3480156102bc57600080fd5b50610129610928565b3480156102d157600080fd5b506101296102e0366004610d3f565b60086020526000908152604090205481565b3480156102fe57600080fd5b506101a961093b565b34801561031357600080fd5b50610171610322366004610db6565b61094a565b34801561033357600080fd5b50610171610342366004610e7a565b610ab6565b34801561035357600080fd5b50610129610b13565b34801561036857600080fd5b5061012960075481565b34801561037e57600080fd5b5061017161038d366004610d3f565b610b74565b6001600160a01b0381166000908152600960209081526040808320546008909252822054670de0b6b3a7640000906103c8610b13565b6103d29190610ea9565b6001600160a01b0385166000908152600b60205260409020546103f59190610ebc565b6103ff9190610ed3565b6104099190610ef5565b92915050565b610417610bea565b6000610421610b13565b60075561042c610928565b6005556001600160a01b038116156104735761044781610392565b6001600160a01b0382166000908152600960209081526040808320939093556007546008909152919020555b6004544210610491576003546104899034610ed3565b6006556104cd565b6000600654426004546104a49190610ea9565b6104ae9190610ebc565b6003549091506104be8234610ef5565b6104c89190610ed3565b600655505b6000600654116105165760405162461bcd60e51b815260206004820152600f60248201526e07265776172642072617465203d203608c1b60448201526064015b60405180910390fd5b476003546006546105279190610ebc565b111561056f5760405162461bcd60e51b815260206004820152601760248201527672657761726420616d6f756e74203e2062616c616e636560481b604482015260640161050d565b60035461057c9042610ef5565b6004555042600555565b61058e610c49565b80610597610b13565b6007556105a2610928565b6005556001600160a01b038116156105e9576105bd81610392565b6001600160a01b0382166000908152600960209081526040808320939093556007546008909152919020555b6001600160a01b03821660009081526009602052604090205480156106b8576001600160a01b0383166000818152600960205260408082208290555190919083908381818185875af1925050503d8060008114610662576040519150601f19603f3d011682016040523d82523d6000602084013e610667565b606091505b50509050806106b65760405162461bcd60e51b815260206004820152601b60248201527a2330b4b632b2103a379039b2b732103730ba34bb32903a37b5b2b760291b604482015260640161050d565b505b50506106c360018055565b50565b6002546000906001600160a01b031633146106f3576040516282b42960e81b815260040160405180910390fd5b816106fc610b13565b600755610707610928565b6005556001600160a01b0381161561074e5761072281610392565b6001600160a01b0382166000908152600960209081526040808320939093556007546008909152919020555b6001600160a01b0383166000908152600b60205260409020546107719085610ca2565b6001600160a01b0384166000908152600b602052604081208054929650869290919061079e908490610ea9565b9250508190555083600a60008282546107b79190610ea9565b909155505060405142815284906001600160a01b038516907f92ccf450a286a957af52509bc1c9939d1a6a481783e142e41e2499f0bb66ebc69060200160405180910390a3509192915050565b6002546001600160a01b0316331461082e576040516282b42960e81b815260040160405180910390fd5b80610837610b13565b600755610842610928565b6005556001600160a01b038116156108895761085d81610392565b6001600160a01b0382166000908152600960209081526040808320939093556007546008909152919020555b6001600160a01b0382166000908152600b6020526040812080548592906108b1908490610ef5565b9250508190555082600a60008282546108ca9190610ef5565b909155505060405142815283906001600160a01b038416907f73a19dd210f1a7f902193214c0ee91dd35ee5b4d920cba8d519eca65a7b488ca9060200160405180910390a3505050565b61091c610bea565b6109266000610cba565b565b600061093660045442610d0a565b905090565b6000546001600160a01b031690565b610952610bea565b61095a610b13565b600755610965610928565b600555805160005b818114610a7857600083828151811061098857610988610f08565b60209081029190910101516002546040516370a0823160e01b81529192506000916001600160a01b03909116906370a08231906109c9908590600401610d5c565b602060405180830381865afa1580156109e6573d6000803e3d6000fd5b505050506040513d601f19601f82011682018060405250810190610a0a9190610f1e565b6001600160a01b0383166000908152600b60205260409020805490829055600a54919250908190610a3c908490610ef5565b610a469190610ea9565b600a5550506007546001600160a01b03909116600090815260086020526040902055610a7181610f37565b905061096d565b507fadd305b988eae1d23a6cd76b1b23848646076794417bfcc1289e14b62b415dec8242604051610aaa929190610f50565b60405180910390a15050565b610abe610bea565b4260045410610b0e5760405162461bcd60e51b815260206004820152601c60248201527b1c995dd85c9908191d5c985d1a5bdb881b9bdd08199a5b9a5cda195960221b604482015260640161050d565b600355565b6000600a54600003610b26575060075490565b600a54600554610b34610928565b610b3e9190610ea9565b600654610b4b9190610ebc565b610b5d90670de0b6b3a7640000610ebc565b610b679190610ed3565b6007546109369190610ef5565b610b7c610bea565b6001600160a01b038116610be15760405162461bcd60e51b815260206004820152602660248201527f4f776e61626c653a206e6577206f776e657220697320746865207a65726f206160448201526564647265737360d01b606482015260840161050d565b6106c381610cba565b33610bf361093b565b6001600160a01b0316146109265760405162461bcd60e51b815260206004820181905260248201527f4f776e61626c653a2063616c6c6572206973206e6f7420746865206f776e6572604482015260640161050d565b600260015403610c9b5760405162461bcd60e51b815260206004820152601f60248201527f5265656e7472616e637947756172643a207265656e7472616e742063616c6c00604482015260640161050d565b6002600155565b6000818310610cb15781610cb3565b825b9392505050565b600080546001600160a01b038381166001600160a01b0319831681178455604051919092169283917f8be0079c531659141344cd1fd0a4f28419497f9722a3daafe3b4186f6b6457e09190a35050565b600081831115610cb15781610cb3565b6001600160a01b03811681146106c357600080fd5b8035610d3a81610d1a565b919050565b600060208284031215610d5157600080fd5b8135610cb381610d1a565b6001600160a01b0391909116815260200190565b60008060408385031215610d8357600080fd5b823591506020830135610d9581610d1a565b809150509250929050565b634e487b7160e01b600052604160045260246000fd5b60006020808385031215610dc957600080fd5b82356001600160401b0380821115610de057600080fd5b818501915085601f830112610df457600080fd5b813581811115610e0657610e06610da0565b8060051b604051601f19603f83011681018181108582111715610e2b57610e2b610da0565b604052918252848201925083810185019188831115610e4957600080fd5b938501935b82851015610e6e57610e5f85610d2f565b84529385019392850192610e4e565b98975050505050505050565b600060208284031215610e8c57600080fd5b5035919050565b634e487b7160e01b600052601160045260246000fd5b8181038181111561040957610409610e93565b808202811582820484141761040957610409610e93565b600082610ef057634e487b7160e01b600052601260045260246000fd5b500490565b8082018082111561040957610409610e93565b634e487b7160e01b600052603260045260246000fd5b600060208284031215610f3057600080fd5b5051919050565b600060018201610f4957610f49610e93565b5060010190565b604080825283519082018190526000906020906060840190828701845b82811015610f925781516001600160a01b031684529284019290840190600101610f6d565b5050509201929092529291505056fea26469706673582212209e1ba1c31c06dd14e539f79074dcef285921aabf86478e292b764f518123bab464736f6c63430008110033",
  "devdoc": {
    "kind": "dev",
    "methods": {
      "owner()": {
        "details": "Returns the address of the current owner."
      },
      "renounceOwnership()": {
        "details": "Leaves the contract without owner. It will not be possible to call `onlyOwner` functions. Can only be called by the current owner. NOTE: Renouncing ownership will leave the contract without an owner, thereby disabling any functionality that is only available to the owner."
      },
      "transferOwnership(address)": {
        "details": "Transfers ownership of the contract to a new account (`newOwner`). Can only be called by the current owner."
      }
    },
    "version": 1
  },
  "userdoc": {
    "errors": {
      "InvalidAddress()": [
        {
          "notice": "Error for when an address parameter passed is invalid"
        }
      ],
      "Unauthorized()": [
        {
          "notice": "Error for when msg.sender is unauthorized"
        }
      ]
    },
    "kind": "user",
    "methods": {
      "balanceOf(address)": {
        "notice": "User address => deposited amount"
      },
      "duration()": {
        "notice": "Duration of rewards to be paid out (in seconds)"
      },
      "finishAt()": {
        "notice": "Timestamp of when the rewards finish"
      },
      "pool()": {
        "notice": "Pool address"
      },
      "rewardPerTokenStored()": {
        "notice": "Sum of (reward rate * dt * 1e18 / total supply)"
      },
      "rewardRate()": {
        "notice": "Reward to be paid out per second"
      },
      "rewards(address)": {
        "notice": "User address => rewards to be claimed"
      },
      "totalSupply()": {
        "notice": "Total deposited"
      },
      "updatedAt()": {
        "notice": "Minimum of last updated time and reward finish time"
      },
      "userRewardPerTokenPaid(address)": {
        "notice": "User address => rewardPerTokenStored"
      }
    },
    "version": 1
  },
  "storageLayout": {
    "storage": [
      {
        "astId": 7,
        "contract": "contracts/DepositRewarder.sol:DepositRewarder",
        "label": "_owner",
        "offset": 0,
        "slot": "0",
        "type": "t_address"
      },
      {
        "astId": 123,
        "contract": "contracts/DepositRewarder.sol:DepositRewarder",
        "label": "_status",
        "offset": 0,
        "slot": "1",
        "type": "t_uint256"
      },
      {
        "astId": 1906,
        "contract": "contracts/DepositRewarder.sol:DepositRewarder",
        "label": "pool",
        "offset": 0,
        "slot": "2",
        "type": "t_address"
      },
      {
        "astId": 1909,
        "contract": "contracts/DepositRewarder.sol:DepositRewarder",
        "label": "duration",
        "offset": 0,
        "slot": "3",
        "type": "t_uint256"
      },
      {
        "astId": 1912,
        "contract": "contracts/DepositRewarder.sol:DepositRewarder",
        "label": "finishAt",
        "offset": 0,
        "slot": "4",
        "type": "t_uint256"
      },
      {
        "astId": 1915,
        "contract": "contracts/DepositRewarder.sol:DepositRewarder",
        "label": "updatedAt",
        "offset": 0,
        "slot": "5",
        "type": "t_uint256"
      },
      {
        "astId": 1918,
        "contract": "contracts/DepositRewarder.sol:DepositRewarder",
        "label": "rewardRate",
        "offset": 0,
        "slot": "6",
        "type": "t_uint256"
      },
      {
        "astId": 1921,
        "contract": "contracts/DepositRewarder.sol:DepositRewarder",
        "label": "rewardPerTokenStored",
        "offset": 0,
        "slot": "7",
        "type": "t_uint256"
      },
      {
        "astId": 1926,
        "contract": "contracts/DepositRewarder.sol:DepositRewarder",
        "label": "userRewardPerTokenPaid",
        "offset": 0,
        "slot": "8",
        "type": "t_mapping(t_address,t_uint256)"
      },
      {
        "astId": 1931,
        "contract": "contracts/DepositRewarder.sol:DepositRewarder",
        "label": "rewards",
        "offset": 0,
        "slot": "9",
        "type": "t_mapping(t_address,t_uint256)"
      },
      {
        "astId": 1934,
        "contract": "contracts/DepositRewarder.sol:DepositRewarder",
        "label": "totalSupply",
        "offset": 0,
        "slot": "10",
        "type": "t_uint256"
      },
      {
        "astId": 1939,
        "contract": "contracts/DepositRewarder.sol:DepositRewarder",
        "label": "balanceOf",
        "offset": 0,
        "slot": "11",
        "type": "t_mapping(t_address,t_uint256)"
      }
    ],
    "types": {
      "t_address": {
        "encoding": "inplace",
        "label": "address",
        "numberOfBytes": "20"
      },
      "t_mapping(t_address,t_uint256)": {
        "encoding": "mapping",
        "key": "t_address",
        "label": "mapping(address => uint256)",
        "numberOfBytes": "32",
        "value": "t_uint256"
      },
      "t_uint256": {
        "encoding": "inplace",
        "label": "uint256",
        "numberOfBytes": "32"
      }
    }
  }
}