{
  "address": "0xa0170E529f94C955f77Fcf14F57C7A7cDf0FDb71",
  "abi": [
    {
      "inputs": [],
      "name": "BTC",
      "outputs": [
        {
          "internalType": "address",
          "name": "",
          "type": "address"
        }
      ],
      "stateMutability": "view",
      "type": "function"
    },
    {
      "inputs": [],
      "name": "BTC_POOL_TUP",
      "outputs": [
        {
          "internalType": "address",
          "name": "",
          "type": "address"
        }
      ],
      "stateMutability": "view",
      "type": "function"
    },
    {
      "inputs": [],
      "name": "ETH_POOL_TUP",
      "outputs": [
        {
          "internalType": "address",
          "name": "",
          "type": "address"
        }
      ],
      "stateMutability": "view",
      "type": "function"
    },
    {
      "inputs": [],
      "name": "USDC",
      "outputs": [
        {
          "internalType": "address",
          "name": "",
          "type": "address"
        }
      ],
      "stateMutability": "view",
      "type": "function"
    },
    {
      "inputs": [],
      "name": "USDC_POOL_TUP",
      "outputs": [
        {
          "internalType": "address",
          "name": "",
          "type": "address"
        }
      ],
      "stateMutability": "view",
      "type": "function"
    },
    {
      "inputs": [],
      "name": "USDT",
      "outputs": [
        {
          "internalType": "address",
          "name": "",
          "type": "address"
        }
      ],
      "stateMutability": "view",
      "type": "function"
    },
    {
      "inputs": [],
      "name": "USDT_POOL_TUP",
      "outputs": [
        {
          "internalType": "address",
          "name": "",
          "type": "address"
        }
      ],
      "stateMutability": "view",
      "type": "function"
    },
    {
      "inputs": [],
      "name": "WAVAX",
      "outputs": [
        {
          "internalType": "address",
          "name": "",
          "type": "address"
        }
      ],
      "stateMutability": "view",
      "type": "function"
    },
    {
      "inputs": [],
      "name": "WAVAX_POOL_TUP",
      "outputs": [
        {
          "internalType": "address",
          "name": "",
          "type": "address"
        }
      ],
      "stateMutability": "view",
      "type": "function"
    },
    {
      "inputs": [],
      "name": "WETH",
      "outputs": [
        {
          "internalType": "address",
          "name": "",
          "type": "address"
        }
      ],
      "stateMutability": "view",
      "type": "function"
    },
    {
      "inputs": [
        {
          "internalType": "uint256",
          "name": "amountFromToken",
          "type": "uint256"
        },
        {
          "internalType": "uint256",
          "name": "minAmountToToken",
          "type": "uint256"
        },
        {
          "internalType": "address[]",
          "name": "path",
          "type": "address[]"
        },
        {
          "internalType": "address[]",
          "name": "adapters",
          "type": "address[]"
        }
      ],
      "name": "depositSwap",
      "outputs": [],
      "stateMutability": "nonpayable",
      "type": "function"
    },
    {
      "inputs": [
        {
          "internalType": "bytes4",
          "name": "selector",
          "type": "bytes4"
        },
        {
          "internalType": "bytes",
          "name": "data",
          "type": "bytes"
        },
        {
          "internalType": "address",
          "name": "fromToken",
          "type": "address"
        },
        {
          "internalType": "uint256",
          "name": "fromAmount",
          "type": "uint256"
        },
        {
          "internalType": "address",
          "name": "toToken",
          "type": "address"
        },
        {
          "internalType": "uint256",
          "name": "minOut",
          "type": "uint256"
        }
      ],
      "name": "depositSwapParaSwap",
      "outputs": [],
      "stateMutability": "nonpayable",
      "type": "function"
    }
  ],
  "transactionHash": "0xde09947105c9bc7826d292a4413ec7fcf8238c4dde5d25cf1df4b4705f1235b8",
  "args": [],
  "numDeployments": 3,
  "solcInputHash": "78ca239682a56c2d986712bc32ea58f2",
  "bytecode": "0x608060405234801561001057600080fd5b50611fd3806100206000396000f3fe608060405234801561001057600080fd5b50600436106100a45760003560e01c80630e98f812146100a95780632792949d146100da578063355cedad146100f55780633e8df5e9146101105780634a84271a1461012557806373b295c21461013857806389a3027114610153578063a2f319141461016e578063ad5c464814610189578063b6ae245d146101a4578063b80a3fee146101bf578063c54e44eb146101da575b600080fd5b6100c473d26e504fc642b96751fd55d3e68af295806542f581565b6040516100d19190611b0d565b60405180910390f35b6100c473152b9d0fdc40c096757f570a51e494bd4b943e5081565b6100c473475589b0ed87591a893df42ec6076d2499bb63d081565b61012361011e366004611b53565b6101f5565b005b610123610133366004611ca1565b610584565b6100c473b31f66aa3c1e785363f0875a1b74e27b85fd66c781565b6100c473b97ef9ef8734c71904d8002f8b6bc66dd9c48a6e81565b6100c4732323dac85c6ab9bd6a8b5fb75b0581e31232d12b81565b6100c47349d5c2bdffac6ce2bfdb6640f4f80f226bc10bab81565b6100c473d7feb276ba254cd9b34804a986ce9a8c3e35914881565b6100c473d222e10d7fe6b7f9608f14a8b5cf703c74efbca181565b6100c4739702230a8ea53601f5cd2dc00fdbc13d4df4a8c781565b6101fe84610757565b6102235760405162461bcd60e51b815260040161021a90611d23565b60405180910390fd5b61022c82610757565b6102485760405162461bcd60e51b815260040161021a90611d54565b600081116102915760405162461bcd60e51b815260206004820152601660248201527506d696e4f7574206e6565647320746f206265203e20360541b604482015260640161021a565b600083116102f25760405162461bcd60e51b815260206004820152602860248201527f416d6f756e74206f6620746f6b656e7320746f2073656c6c206e65656473207460448201526706f206265203e20360c41b606482015260840161021a565b60006102fd8561082a565b9050600061030a8461082a565b6040516370a0823160e01b81529091503390610386906001600160a01b038516906370a082319061033f908590600401611b0d565b602060405180830381865afa15801561035c573d6000803e3d6000fd5b505050506040513d601f19601f820116820180604052508101906103809190611d83565b876109a9565b9550610394838888846109c3565b6103bd6001600160a01b03881673216b4b4ba9f3e719726886d34a177484278bfcae6000610fce565b6103e56001600160a01b03881673216b4b4ba9f3e719726886d34a177484278bfcae88610fce565b600073def171fe48cf0115b1d80b88dc8eab59176fee576001600160a01b03168a8a604051602001610418929190611dc0565b60408051601f198184030181529082905261043291611df1565b6000604051808303816000865af19150503d806000811461046f576040519150601f19603f3d011682016040523d82523d6000602084013e610474565b606091505b50509050806104b35760405162461bcd60e51b815260206004820152600b60248201526a14ddd85c0819985a5b195960aa1b604482015260640161021a565b6040516370a0823160e01b81526000906001600160a01b038816906370a08231906104e2903090600401611b0d565b602060405180830381865afa1580156104ff573d6000803e3d6000fd5b505050506040513d601f19601f820116820180604052508101906105239190611d83565b90508581101561056b5760405162461bcd60e51b8152602060048201526013602482015272151bdbc81b1a5d1d1b19481c9958d95a5d9959606a1b604482015260640161021a565b6105778488838661110e565b5050505050505050505050565b60008484600081811061059957610599611e0d565b90506020020160208101906105ae9190611e23565b9050600085856105bf600182611e54565b8181106105ce576105ce611e0d565b90506020020160208101906105e39190611e23565b90506105ee82610757565b61060a5760405162461bcd60e51b815260040161021a90611d23565b61061381610757565b61062f5760405162461bcd60e51b815260040161021a90611d54565b600061063a8361082a565b905060006106478361082a565b6040516370a0823160e01b815290915033906106c3906001600160a01b038516906370a082319061067c908590600401611b0d565b602060405180830381865afa158015610699573d6000803e3d6000fd5b505050506040513d601f19601f820116820180604052508101906106bd9190611d83565b8c6109a9565b9a506106d183868d846109c3565b6106df898989898f8f61172b565b6105778285866001600160a01b03166370a08231306040518263ffffffff1660e01b81526004016107109190611b0d565b602060405180830381865afa15801561072d573d6000803e3d6000fd5b505050506040513d601f19601f820116820180604052508101906107519190611d83565b8461110e565b60006001600160a01b03821673b31f66aa3c1e785363f0875a1b74e27b85fd66c714806107a057506001600160a01b0382167349d5c2bdffac6ce2bfdb6640f4f80f226bc10bab145b806107c757506001600160a01b03821673b97ef9ef8734c71904d8002f8b6bc66dd9c48a6e145b806107ee57506001600160a01b038216739702230a8ea53601f5cd2dc00fdbc13d4df4a8c7145b8061081557506001600160a01b03821673152b9d0fdc40c096757f570a51e494bd4b943e50145b1561082257506001919050565b506000919050565b600073b31f66aa3c1e785363f0875a1b74e27b85fd66c6196001600160a01b0383160161086c575073d26e504fc642b96751fd55d3e68af295806542f5919050565b7349d5c2bdffac6ce2bfdb6640f4f80f226bc10baa196001600160a01b038316016108ac575073d7feb276ba254cd9b34804a986ce9a8c3e359148919050565b73b97ef9ef8734c71904d8002f8b6bc66dd9c48a6d196001600160a01b038316016108ec5750732323dac85c6ab9bd6a8b5fb75b0581e31232d12b919050565b739702230a8ea53601f5cd2dc00fdbc13d4df4a8c6196001600160a01b0383160161092c575073d222e10d7fe6b7f9608f14a8b5cf703c74efbca1919050565b73152b9d0fdc40c096757f570a51e494bd4b943e4f196001600160a01b0383160161096c575073475589b0ed87591a893df42ec6076d2499bb63d0919050565b60405162461bcd60e51b8152602060048201526012602482015271141bdbdb081b9bdd081cdd5c1c1bdc9d195960721b604482015260640161021a565b60008183106109b857816109ba565b825b90505b92915050565b6040516370a0823160e01b81526000906001600160a01b038616906370a08231906109f2908590600401611b0d565b602060405180830381865afa158015610a0f573d6000803e3d6000fd5b505050506040513d601f19601f82011682018060405250810190610a339190611d83565b90506000856001600160a01b03166370a08231306040518263ffffffff1660e01b8152600401610a639190611b0d565b602060405180830381865afa158015610a80573d6000803e3d6000fd5b505050506040513d601f19601f82011682018060405250810190610aa49190611d83565b905083821015610b055760405162461bcd60e51b815260206004820152602660248201527f496e73756666696369656e742066726f6d546f6b656e206465706f7369742062604482015265616c616e636560d01b606482015260840161021a565b6040516323b872dd60e01b81526001600160a01b038481166004830152306024830152604482018690528716906323b872dd906064016020604051808303816000875af1158015610b5a573d6000803e3d6000fd5b505050506040513d601f19601f82011682018060405250810190610b7e9190611e67565b508381876001600160a01b03166370a08231306040518263ffffffff1660e01b8152600401610bad9190611b0d565b602060405180830381865afa158015610bca573d6000803e3d6000fd5b505050506040513d601f19601f82011682018060405250810190610bee9190611d83565b610bf89190611e54565b14610c695760405162461bcd60e51b815260206004820152603b60248201527f616d6f756e7446726f6d546f6b656e20616e6420706f73742d7472616e73666560448201527a0e440c6dedce8e4c2c6e840c4c2d8c2dcc6ca40dad2e6dac2e8c6d602b1b606482015260840161021a565b610c738483611e54565b6040516370a0823160e01b81526001600160a01b038816906370a0823190610c9f908790600401611b0d565b602060405180830381865afa158015610cbc573d6000803e3d6000fd5b505050506040513d601f19601f82011682018060405250810190610ce09190611d83565b14610d3d5760405162461bcd60e51b815260206004820152602760248201527f7573657220706f73742d7472616e736665722062616c616e636520697320696e60448201526618dbdc9c9958dd60ca1b606482015260840161021a565b6040516370a0823160e01b81526000906001600160a01b038716906370a0823190610d6c903090600401611b0d565b602060405180830381865afa158015610d89573d6000803e3d6000fd5b505050506040513d601f19601f82011682018060405250810190610dad9190611d83565b604051632e1a7d4d60e01b8152600481018790529091506001600160a01b03881690632e1a7d4d90602401600060405180830381600087803b158015610df257600080fd5b505af1158015610e06573d6000803e3d6000fd5b50506040516370a0823160e01b81528492506001600160a01b038a1691506370a0823190610e38903090600401611b0d565b602060405180830381865afa158015610e55573d6000803e3d6000fd5b505050506040513d601f19601f82011682018060405250810190610e799190611d83565b14610ee15760405162461bcd60e51b815260206004820152603260248201527f506f73742d7769746864726177616c20636f6e7472616374206465706f73697460448201527102062616c616e6365206d75737420626520360741b606482015260840161021a565b610eeb8582611e90565b6040516370a0823160e01b81526001600160a01b038816906370a0823190610f17903090600401611b0d565b602060405180830381865afa158015610f34573d6000803e3d6000fd5b505050506040513d601f19601f82011682018060405250810190610f589190611d83565b14610fc55760405162461bcd60e51b815260206004820152603760248201527f506f73742d7769746864726177616c20636f6e74726163742066726f6d546f6b604482015276195b8818985b185b98d9481a5cc81a5b98dbdc9c9958dd604a1b606482015260840161021a565b50505050505050565b8015806110485750604051636eb1769f60e11b81523060048201526001600160a01b03838116602483015284169063dd62ed3e90604401602060405180830381865afa158015611022573d6000803e3d6000fd5b505050506040513d601f19601f820116820180604052508101906110469190611d83565b155b6110b35760405162461bcd60e51b815260206004820152603660248201527f5361666545524332303a20617070726f76652066726f6d206e6f6e2d7a65726f60448201527520746f206e6f6e2d7a65726f20616c6c6f77616e636560501b606482015260840161021a565b6111098363095ea7b360e01b84846040516024016110d2929190611ea3565b60408051601f198184030181529190526020810180516001600160e01b03166001600160e01b031990931692909217909152611890565b505050565b6040516370a0823160e01b81526000906001600160a01b038516906370a082319061113d903090600401611b0d565b602060405180830381865afa15801561115a573d6000803e3d6000fd5b505050506040513d601f19601f8201168201806040525081019061117e9190611d83565b90506000856001600160a01b03166370a08231846040518263ffffffff1660e01b81526004016111ae9190611b0d565b602060405180830381865afa1580156111cb573d6000803e3d6000fd5b505050506040513d601f19601f820116820180604052508101906111ef9190611d83565b90506000866001600160a01b03166370a08231306040518263ffffffff1660e01b815260040161121f9190611b0d565b602060405180830381865afa15801561123c573d6000803e3d6000fd5b505050506040513d601f19601f820116820180604052508101906112609190611d83565b9050848310156112c05760405162461bcd60e51b815260206004820152602560248201527f496e73756666696369656e7420636f6e747261637420746f546f6b656e2062616044820152646c616e636560d81b606482015260840161021a565b6112d56001600160a01b038716886000610fce565b6112e96001600160a01b0387168887610fce565b60405163b6b55f2560e01b8152600481018690526001600160a01b0388169063b6b55f2590602401600060405180830381600087803b15801561132b57600080fd5b505af115801561133f573d6000803e3d6000fd5b50505050848361134f9190611e54565b6040516370a0823160e01b81526001600160a01b038816906370a082319061137b903090600401611b0d565b602060405180830381865afa158015611398573d6000803e3d6000fd5b505050506040513d601f19601f820116820180604052508101906113bc9190611d83565b146114215760405162461bcd60e51b815260206004820152602f60248201527f506f73742d6465706f73697420636f6e747261637420746f546f6b656e20626160448201526e06c616e6365206d757374206265203608c1b606482015260840161021a565b61142b8582611e90565b6040516370a0823160e01b81526001600160a01b038916906370a0823190611457903090600401611b0d565b602060405180830381865afa158015611474573d6000803e3d6000fd5b505050506040513d601f19601f820116820180604052508101906114989190611d83565b146115005760405162461bcd60e51b815260206004820152603260248201527f506f73742d6465706f73697420636f6e7472616374206465706f7369742062616044820152711b185b98d9481a5cc81a5b98dbdc9c9958dd60721b606482015260840161021a565b60405163a9059cbb60e01b81526001600160a01b0388169063a9059cbb9061152e9087908990600401611ea3565b6020604051808303816000875af115801561154d573d6000803e3d6000fd5b505050506040513d601f19601f820116820180604052508101906115719190611e67565b5061157c8584611e54565b6040516370a0823160e01b81526001600160a01b038816906370a08231906115a8903090600401611b0d565b602060405180830381865afa1580156115c5573d6000803e3d6000fd5b505050506040513d601f19601f820116820180604052508101906115e99190611d83565b1461164f5760405162461bcd60e51b815260206004820152603060248201527f506f73742d7472616e7366657220636f6e7472616374206465706f736974206260448201526f0616c616e6365206d75737420626520360841b606482015260840161021a565b6116598583611e90565b6040516370a0823160e01b81526001600160a01b038916906370a0823190611685908890600401611b0d565b602060405180830381865afa1580156116a2573d6000803e3d6000fd5b505050506040513d601f19601f820116820180604052508101906116c69190611d83565b14610fc55760405162461bcd60e51b815260206004820152602f60248201527f506f73742d7472616e736665722075736572206465706f7369742062616c616e60448201526e18d9481a5cc81a5b98dbdc9c9958dd608a1b606482015260840161021a565b611770611736611965565b60008888600081811061174b5761174b611e0d565b90506020020160208101906117609190611e23565b6001600160a01b03169190610fce565b61178f61177b611965565b838888600081811061174b5761174b611e0d565b6000611799611965565b90506000604051806080016040528085815260200184815260200189898080602002602001604051908101604052809392919081815260200183836020028082843760009201919091525050509082525060408051602089810282810182019093528982529283019290918a918a91829185019084908082843760009201829052509390945250506040516335f96fc360e11b81529293506001600160a01b03851692636bf2df869250611854918591309190600401611f00565b600060405180830381600087803b15801561186e57600080fd5b505af1158015611882573d6000803e3d6000fd5b505050505050505050505050565b60006118e5826040518060400160405280602081526020017f5361666545524332303a206c6f772d6c6576656c2063616c6c206661696c6564815250856001600160a01b031661197d9092919063ffffffff16565b90508051600014806119065750808060200190518101906119069190611e67565b6111095760405162461bcd60e51b815260206004820152602a60248201527f5361666545524332303a204552433230206f7065726174696f6e20646964206e6044820152691bdd081cdd58d8d9595960b21b606482015260840161021a565b73c4729e56b831d74bbc18797e0e17a295fa77488c90565b606061198c8484600085611994565b949350505050565b6060824710156119f55760405162461bcd60e51b815260206004820152602660248201527f416464726573733a20696e73756666696369656e742062616c616e636520666f6044820152651c8818d85b1b60d21b606482015260840161021a565b600080866001600160a01b03168587604051611a119190611df1565b60006040518083038185875af1925050503d8060008114611a4e576040519150601f19603f3d011682016040523d82523d6000602084013e611a53565b606091505b5091509150611a6487838387611a6f565b979650505050505050565b60608315611ade578251600003611ad7576001600160a01b0385163b611ad75760405162461bcd60e51b815260206004820152601d60248201527f416464726573733a2063616c6c20746f206e6f6e2d636f6e7472616374000000604482015260640161021a565b508161198c565b61198c8383815115611af35781518083602001fd5b8060405162461bcd60e51b815260040161021a9190611f6a565b6001600160a01b0391909116815260200190565b634e487b7160e01b600052604160045260246000fd5b80356001600160a01b0381168114611b4e57600080fd5b919050565b60008060008060008060c08789031215611b6c57600080fd5b86356001600160e01b031981168114611b8457600080fd5b955060208701356001600160401b0380821115611ba057600080fd5b818901915089601f830112611bb457600080fd5b813581811115611bc657611bc6611b21565b604051601f8201601f19908116603f01168101908382118183101715611bee57611bee611b21565b816040528281528c6020848701011115611c0757600080fd5b826020860160208301376000602084830101528099505050505050611c2e60408801611b37565b935060608701359250611c4360808801611b37565b915060a087013590509295509295509295565b60008083601f840112611c6857600080fd5b5081356001600160401b03811115611c7f57600080fd5b6020830191508360208260051b8501011115611c9a57600080fd5b9250929050565b60008060008060008060808789031215611cba57600080fd5b863595506020870135945060408701356001600160401b0380821115611cdf57600080fd5b611ceb8a838b01611c56565b90965094506060890135915080821115611d0457600080fd5b50611d1189828a01611c56565b979a9699509497509295939492505050565b602080825260179082015276199c9bdb551bdad95b881b9bdd081cdd5c1c1bdc9d1959604a1b604082015260600190565b6020808252601590820152741d1bd51bdad95b881b9bdd081cdd5c1c1bdc9d1959605a1b604082015260600190565b600060208284031215611d9557600080fd5b5051919050565b60005b83811015611db7578181015183820152602001611d9f565b50506000910152565b6001600160e01b0319831681528151600090611de3816004850160208701611d9c565b919091016004019392505050565b60008251611e03818460208701611d9c565b9190910192915050565b634e487b7160e01b600052603260045260246000fd5b600060208284031215611e3557600080fd5b6109ba82611b37565b634e487b7160e01b600052601160045260246000fd5b818103818111156109bd576109bd611e3e565b600060208284031215611e7957600080fd5b81518015158114611e8957600080fd5b9392505050565b808201808211156109bd576109bd611e3e565b6001600160a01b03929092168252602082015260400190565b600081518084526020808501945080840160005b83811015611ef55781516001600160a01b031687529582019590820190600101611ed0565b509495945050505050565b60608152835160608201526020840151608082015260006040850151608060a0840152611f3060e0840182611ebc565b90506060860151605f198483030160c0850152611f4d8282611ebc565b6001600160a01b0396909616602085015250505060400152919050565b6020815260008251806020840152611f89816040850160208701611d9c565b601f01601f1916919091016040019291505056fea264697066735822122063dd00d5b77ed9f72a744cbc63cf24fa9604db450f57f8d6e366539481771c3964736f6c63430008110033",
  "devdoc": {
    "kind": "dev",
    "methods": {},
    "version": 1
  },
  "userdoc": {
    "kind": "user",
    "methods": {},
    "version": 1
  },
  "storageLayout": {
    "storage": [],
    "types": null
  }
}