{
  "address": "0x74B5C3499AbDe6D85B6287617195813455051713",
  "abi": [
    {
      "inputs": [],
      "name": "BTC",
      "outputs": [
        {
          "internalType": "address",
          "name": "",
          "type": "address"
        }
      ],
      "stateMutability": "view",
      "type": "function"
    },
    {
      "inputs": [],
      "name": "BTC_POOL_TUP",
      "outputs": [
        {
          "internalType": "address",
          "name": "",
          "type": "address"
        }
      ],
      "stateMutability": "view",
      "type": "function"
    },
    {
      "inputs": [],
      "name": "ETH_POOL_TUP",
      "outputs": [
        {
          "internalType": "address",
          "name": "",
          "type": "address"
        }
      ],
      "stateMutability": "view",
      "type": "function"
    },
    {
      "inputs": [],
      "name": "USDC",
      "outputs": [
        {
          "internalType": "address",
          "name": "",
          "type": "address"
        }
      ],
      "stateMutability": "view",
      "type": "function"
    },
    {
      "inputs": [],
      "name": "USDC_POOL_TUP",
      "outputs": [
        {
          "internalType": "address",
          "name": "",
          "type": "address"
        }
      ],
      "stateMutability": "view",
      "type": "function"
    },
    {
      "inputs": [],
      "name": "USDT",
      "outputs": [
        {
          "internalType": "address",
          "name": "",
          "type": "address"
        }
      ],
      "stateMutability": "view",
      "type": "function"
    },
    {
      "inputs": [],
      "name": "USDT_POOL_TUP",
      "outputs": [
        {
          "internalType": "address",
          "name": "",
          "type": "address"
        }
      ],
      "stateMutability": "view",
      "type": "function"
    },
    {
      "inputs": [],
      "name": "WAVAX",
      "outputs": [
        {
          "internalType": "address",
          "name": "",
          "type": "address"
        }
      ],
      "stateMutability": "view",
      "type": "function"
    },
    {
      "inputs": [],
      "name": "WAVAX_POOL_TUP",
      "outputs": [
        {
          "internalType": "address",
          "name": "",
          "type": "address"
        }
      ],
      "stateMutability": "view",
      "type": "function"
    },
    {
      "inputs": [],
      "name": "WETH",
      "outputs": [
        {
          "internalType": "address",
          "name": "",
          "type": "address"
        }
      ],
      "stateMutability": "view",
      "type": "function"
    },
    {
      "inputs": [
        {
          "internalType": "uint256",
          "name": "amountFromToken",
          "type": "uint256"
        },
        {
          "internalType": "uint256",
          "name": "minAmountToToken",
          "type": "uint256"
        },
        {
          "internalType": "address[]",
          "name": "path",
          "type": "address[]"
        },
        {
          "internalType": "address[]",
          "name": "adapters",
          "type": "address[]"
        }
      ],
      "name": "depositSwap",
      "outputs": [],
      "stateMutability": "nonpayable",
      "type": "function"
    }
  ],
  "transactionHash": "0x22a277f15d73e518730d16c8fcb9446fc9cb0b2b64a7613578c69a0a76daf313",
  "args": [],
  "numDeployments": 2,
  "solcInputHash": "84e2e19a133e3daa2abdb71c07fcabe3",
  "bytecode": "0x608060405234801561001057600080fd5b506124d4806100206000396000f3fe608060405234801561001057600080fd5b50600436106100a95760003560e01c806389a302711161007157806389a3027114610142578063a2f3191414610160578063ad5c46481461017e578063b6ae245d1461019c578063b80a3fee146101ba578063c54e44eb146101d8576100a9565b80630e98f812146100ae5780632792949d146100cc578063355cedad146100ea5780634a84271a1461010857806373b295c214610124575b600080fd5b6100b66101f6565b6040516100c39190611700565b60405180910390f35b6100d461020e565b6040516100e19190611700565b60405180910390f35b6100f2610226565b6040516100ff9190611700565b60405180910390f35b610122600480360381019061011d91906117c0565b61023e565b005b61012c610486565b6040516101399190611700565b60405180910390f35b61014a61049e565b6040516101579190611700565b60405180910390f35b6101686104b6565b6040516101759190611700565b60405180910390f35b6101866104ce565b6040516101939190611700565b60405180910390f35b6101a46104e6565b6040516101b19190611700565b60405180910390f35b6101c26104fe565b6040516101cf9190611700565b60405180910390f35b6101e0610516565b6040516101ed9190611700565b60405180910390f35b73d26e504fc642b96751fd55d3e68af295806542f581565b73152b9d0fdc40c096757f570a51e494bd4b943e5081565b73475589b0ed87591a893df42ec6076d2499bb63d081565b60008484600081811061025457610253611867565b5b905060200201602081019061026991906118c2565b90506000858560018888905061027f919061191e565b81811061028f5761028e611867565b5b90506020020160208101906102a491906118c2565b90506102af8261052e565b6102ee576040517f08c379a00000000000000000000000000000000000000000000000000000000081526004016102e5906119af565b60405180910390fd5b6102f78161052e565b610336576040517f08c379a000000000000000000000000000000000000000000000000000000000815260040161032d90611a1b565b60405180910390fd5b6000610341836106b3565b9050600061034e836106b3565b905060003390506103d88373ffffffffffffffffffffffffffffffffffffffff166370a08231836040518263ffffffff1660e01b81526004016103919190611700565b602060405180830381865afa1580156103ae573d6000803e3d6000fd5b505050506040513d601f19601f820116820180604052508101906103d29190611a50565b8c6108e4565b9a506103e683868d846108fd565b6103f4898989898f8f610f21565b61047982858673ffffffffffffffffffffffffffffffffffffffff166370a08231306040518263ffffffff1660e01b81526004016104329190611700565b602060405180830381865afa15801561044f573d6000803e3d6000fd5b505050506040513d601f19601f820116820180604052508101906104739190611a50565b84611116565b5050505050505050505050565b73b31f66aa3c1e785363f0875a1b74e27b85fd66c781565b73b97ef9ef8734c71904d8002f8b6bc66dd9c48a6e81565b732323dac85c6ab9bd6a8b5fb75b0581e31232d12b81565b7349d5c2bdffac6ce2bfdb6640f4f80f226bc10bab81565b73d7feb276ba254cd9b34804a986ce9a8c3e35914881565b73d222e10d7fe6b7f9608f14a8b5cf703c74efbca181565b739702230a8ea53601f5cd2dc00fdbc13d4df4a8c781565b600073b31f66aa3c1e785363f0875a1b74e27b85fd66c773ffffffffffffffffffffffffffffffffffffffff168273ffffffffffffffffffffffffffffffffffffffff1614806105bd57507349d5c2bdffac6ce2bfdb6640f4f80f226bc10bab73ffffffffffffffffffffffffffffffffffffffff168273ffffffffffffffffffffffffffffffffffffffff16145b80610607575073b97ef9ef8734c71904d8002f8b6bc66dd9c48a6e73ffffffffffffffffffffffffffffffffffffffff168273ffffffffffffffffffffffffffffffffffffffff16145b806106515750739702230a8ea53601f5cd2dc00fdbc13d4df4a8c773ffffffffffffffffffffffffffffffffffffffff168273ffffffffffffffffffffffffffffffffffffffff16145b8061069b575073152b9d0fdc40c096757f570a51e494bd4b943e5073ffffffffffffffffffffffffffffffffffffffff168273ffffffffffffffffffffffffffffffffffffffff16145b156106a957600190506106ae565b600090505b919050565b600073b31f66aa3c1e785363f0875a1b74e27b85fd66c773ffffffffffffffffffffffffffffffffffffffff168273ffffffffffffffffffffffffffffffffffffffff16036107185773d26e504fc642b96751fd55d3e68af295806542f590506108df565b7349d5c2bdffac6ce2bfdb6640f4f80f226bc10bab73ffffffffffffffffffffffffffffffffffffffff168273ffffffffffffffffffffffffffffffffffffffff160361077b5773d7feb276ba254cd9b34804a986ce9a8c3e35914890506108df565b73b97ef9ef8734c71904d8002f8b6bc66dd9c48a6e73ffffffffffffffffffffffffffffffffffffffff168273ffffffffffffffffffffffffffffffffffffffff16036107de57732323dac85c6ab9bd6a8b5fb75b0581e31232d12b90506108df565b739702230a8ea53601f5cd2dc00fdbc13d4df4a8c773ffffffffffffffffffffffffffffffffffffffff168273ffffffffffffffffffffffffffffffffffffffff16036108415773d222e10d7fe6b7f9608f14a8b5cf703c74efbca190506108df565b73152b9d0fdc40c096757f570a51e494bd4b943e5073ffffffffffffffffffffffffffffffffffffffff168273ffffffffffffffffffffffffffffffffffffffff16036108a45773475589b0ed87591a893df42ec6076d2499bb63d090506108df565b6040517f08c379a00000000000000000000000000000000000000000000000000000000081526004016108d690611ac9565b60405180910390fd5b919050565b60008183106108f357816108f5565b825b905092915050565b60008473ffffffffffffffffffffffffffffffffffffffff166370a08231836040518263ffffffff1660e01b81526004016109389190611700565b602060405180830381865afa158015610955573d6000803e3d6000fd5b505050506040513d601f19601f820116820180604052508101906109799190611a50565b9050828110156109be576040517f08c379a00000000000000000000000000000000000000000000000000000000081526004016109b590611b5b565b60405180910390fd5b60008573ffffffffffffffffffffffffffffffffffffffff166370a08231306040518263ffffffff1660e01b81526004016109f99190611700565b602060405180830381865afa158015610a16573d6000803e3d6000fd5b505050506040513d601f19601f82011682018060405250810190610a3a9190611a50565b14610a7a576040517f08c379a0000000000000000000000000000000000000000000000000000000008152600401610a7190611bed565b60405180910390fd5b60008473ffffffffffffffffffffffffffffffffffffffff166370a08231306040518263ffffffff1660e01b8152600401610ab59190611700565b602060405180830381865afa158015610ad2573d6000803e3d6000fd5b505050506040513d601f19601f82011682018060405250810190610af69190611a50565b14610b36576040517f08c379a0000000000000000000000000000000000000000000000000000000008152600401610b2d90611c7f565b60405180910390fd5b8473ffffffffffffffffffffffffffffffffffffffff166323b872dd8330866040518463ffffffff1660e01b8152600401610b7393929190611cae565b6020604051808303816000875af1158015610b92573d6000803e3d6000fd5b505050506040513d601f19601f82011682018060405250810190610bb69190611d1d565b50828573ffffffffffffffffffffffffffffffffffffffff166370a08231306040518263ffffffff1660e01b8152600401610bf19190611700565b602060405180830381865afa158015610c0e573d6000803e3d6000fd5b505050506040513d601f19601f82011682018060405250810190610c329190611a50565b14610c72576040517f08c379a0000000000000000000000000000000000000000000000000000000008152600401610c6990611dbc565b60405180910390fd5b8281610c7e919061191e565b8573ffffffffffffffffffffffffffffffffffffffff166370a08231846040518263ffffffff1660e01b8152600401610cb79190611700565b602060405180830381865afa158015610cd4573d6000803e3d6000fd5b505050506040513d601f19601f82011682018060405250810190610cf89190611a50565b14610d38576040517f08c379a0000000000000000000000000000000000000000000000000000000008152600401610d2f90611e4e565b60405180910390fd5b8473ffffffffffffffffffffffffffffffffffffffff16632e1a7d4d846040518263ffffffff1660e01b8152600401610d719190611e6e565b600060405180830381600087803b158015610d8b57600080fd5b505af1158015610d9f573d6000803e3d6000fd5b5050505060008573ffffffffffffffffffffffffffffffffffffffff166370a08231306040518263ffffffff1660e01b8152600401610dde9190611700565b602060405180830381865afa158015610dfb573d6000803e3d6000fd5b505050506040513d601f19601f82011682018060405250810190610e1f9190611a50565b14610e5f576040517f08c379a0000000000000000000000000000000000000000000000000000000008152600401610e5690611efb565b60405180910390fd5b828473ffffffffffffffffffffffffffffffffffffffff166370a08231306040518263ffffffff1660e01b8152600401610e999190611700565b602060405180830381865afa158015610eb6573d6000803e3d6000fd5b505050506040513d601f19601f82011682018060405250810190610eda9190611a50565b14610f1a576040517f08c379a0000000000000000000000000000000000000000000000000000000008152600401610f1190611f8d565b60405180910390fd5b5050505050565b85856000818110610f3557610f34611867565b5b9050602002016020810190610f4a91906118c2565b73ffffffffffffffffffffffffffffffffffffffff1663095ea7b373c4729e56b831d74bbc18797e0e17a295fa77488c846040518363ffffffff1660e01b8152600401610f98929190611fad565b6020604051808303816000875af1158015610fb7573d6000803e3d6000fd5b505050506040513d601f19601f82011682018060405250810190610fdb9190611d1d565b50600073c4729e56b831d74bbc18797e0e17a295fa77488c905060006040518060800160405280858152602001848152602001898980806020026020016040519081016040528093929190818152602001838360200280828437600081840152601f19601f820116905080830192505050505050508152602001878780806020026020016040519081016040528093929190818152602001838360200280828437600081840152601f19601f8201169050808301925050505050505081525090508173ffffffffffffffffffffffffffffffffffffffff16636bf2df86823060006040518463ffffffff1660e01b81526004016110da93929190612152565b600060405180830381600087803b1580156110f457600080fd5b505af1158015611108573d6000803e3d6000fd5b505050505050505050505050565b60008373ffffffffffffffffffffffffffffffffffffffff166370a08231306040518263ffffffff1660e01b81526004016111519190611700565b602060405180830381865afa15801561116e573d6000803e3d6000fd5b505050506040513d601f19601f820116820180604052508101906111929190611a50565b905060008573ffffffffffffffffffffffffffffffffffffffff166370a08231846040518263ffffffff1660e01b81526004016111cf9190611700565b602060405180830381865afa1580156111ec573d6000803e3d6000fd5b505050506040513d601f19601f820116820180604052508101906112109190611a50565b905083821015611255576040517f08c379a000000000000000000000000000000000000000000000000000000000815260040161124c90612202565b60405180910390fd5b8473ffffffffffffffffffffffffffffffffffffffff1663095ea7b387866040518363ffffffff1660e01b8152600401611290929190611fad565b6020604051808303816000875af11580156112af573d6000803e3d6000fd5b505050506040513d601f19601f820116820180604052508101906112d39190611d1d565b508573ffffffffffffffffffffffffffffffffffffffff1663b6b55f25856040518263ffffffff1660e01b815260040161130d9190611e6e565b600060405180830381600087803b15801561132757600080fd5b505af115801561133b573d6000803e3d6000fd5b5050505060008573ffffffffffffffffffffffffffffffffffffffff166370a08231306040518263ffffffff1660e01b815260040161137a9190611700565b602060405180830381865afa158015611397573d6000803e3d6000fd5b505050506040513d601f19601f820116820180604052508101906113bb9190611a50565b146113fb576040517f08c379a00000000000000000000000000000000000000000000000000000000081526004016113f290612294565b60405180910390fd5b838673ffffffffffffffffffffffffffffffffffffffff166370a08231306040518263ffffffff1660e01b81526004016114359190611700565b602060405180830381865afa158015611452573d6000803e3d6000fd5b505050506040513d601f19601f820116820180604052508101906114769190611a50565b146114b6576040517f08c379a00000000000000000000000000000000000000000000000000000000081526004016114ad90612326565b60405180910390fd5b8573ffffffffffffffffffffffffffffffffffffffff1663a9059cbb84866040518363ffffffff1660e01b81526004016114f1929190611fad565b6020604051808303816000875af1158015611510573d6000803e3d6000fd5b505050506040513d601f19601f820116820180604052508101906115349190611d1d565b5060008573ffffffffffffffffffffffffffffffffffffffff166370a08231306040518263ffffffff1660e01b81526004016115709190611700565b602060405180830381865afa15801561158d573d6000803e3d6000fd5b505050506040513d601f19601f820116820180604052508101906115b19190611a50565b146115f1576040517f08c379a00000000000000000000000000000000000000000000000000000000081526004016115e8906123b8565b60405180910390fd5b83816115fd91906123d8565b8673ffffffffffffffffffffffffffffffffffffffff166370a08231856040518263ffffffff1660e01b81526004016116369190611700565b602060405180830381865afa158015611653573d6000803e3d6000fd5b505050506040513d601f19601f820116820180604052508101906116779190611a50565b146116b7576040517f08c379a00000000000000000000000000000000000000000000000000000000081526004016116ae9061247e565b60405180910390fd5b505050505050565b600073ffffffffffffffffffffffffffffffffffffffff82169050919050565b60006116ea826116bf565b9050919050565b6116fa816116df565b82525050565b600060208201905061171560008301846116f1565b92915050565b600080fd5b600080fd5b6000819050919050565b61173881611725565b811461174357600080fd5b50565b6000813590506117558161172f565b92915050565b600080fd5b600080fd5b600080fd5b60008083601f8401126117805761177f61175b565b5b8235905067ffffffffffffffff81111561179d5761179c611760565b5b6020830191508360208202830111156117b9576117b8611765565b5b9250929050565b600080600080600080608087890312156117dd576117dc61171b565b5b60006117eb89828a01611746565b96505060206117fc89828a01611746565b955050604087013567ffffffffffffffff81111561181d5761181c611720565b5b61182989828a0161176a565b9450945050606087013567ffffffffffffffff81111561184c5761184b611720565b5b61185889828a0161176a565b92509250509295509295509295565b7f4e487b7100000000000000000000000000000000000000000000000000000000600052603260045260246000fd5b61189f816116df565b81146118aa57600080fd5b50565b6000813590506118bc81611896565b92915050565b6000602082840312156118d8576118d761171b565b5b60006118e6848285016118ad565b91505092915050565b7f4e487b7100000000000000000000000000000000000000000000000000000000600052601160045260246000fd5b600061192982611725565b915061193483611725565b925082820390508181111561194c5761194b6118ef565b5b92915050565b600082825260208201905092915050565b7f66726f6d546f6b656e206e6f7420737570706f72746564000000000000000000600082015250565b6000611999601783611952565b91506119a482611963565b602082019050919050565b600060208201905081810360008301526119c88161198c565b9050919050565b7f746f546f6b656e206e6f7420737570706f727465640000000000000000000000600082015250565b6000611a05601583611952565b9150611a10826119cf565b602082019050919050565b60006020820190508181036000830152611a34816119f8565b9050919050565b600081519050611a4a8161172f565b92915050565b600060208284031215611a6657611a6561171b565b5b6000611a7484828501611a3b565b91505092915050565b7f506f6f6c206e6f7420737570706f727465640000000000000000000000000000600082015250565b6000611ab3601283611952565b9150611abe82611a7d565b602082019050919050565b60006020820190508181036000830152611ae281611aa6565b9050919050565b7f496e73756666696369656e742066726f6d546f6b656e206465706f736974206260008201527f616c616e63650000000000000000000000000000000000000000000000000000602082015250565b6000611b45602683611952565b9150611b5082611ae9565b604082019050919050565b60006020820190508181036000830152611b7481611b38565b9050919050565b7f436f6e747261637420696e697469616c206465706f7369742062616c616e636560008201527f2073686f756c6420626520300000000000000000000000000000000000000000602082015250565b6000611bd7602c83611952565b9150611be282611b7b565b604082019050919050565b60006020820190508181036000830152611c0681611bca565b9050919050565b7f436f6e747261637420696e697469616c2066726f6d546f6b656e2062616c616e60008201527f6365206d75737420626520300000000000000000000000000000000000000000602082015250565b6000611c69602c83611952565b9150611c7482611c0d565b604082019050919050565b60006020820190508181036000830152611c9881611c5c565b9050919050565b611ca881611725565b82525050565b6000606082019050611cc360008301866116f1565b611cd060208301856116f1565b611cdd6040830184611c9f565b949350505050565b60008115159050919050565b611cfa81611ce5565b8114611d0557600080fd5b50565b600081519050611d1781611cf1565b92915050565b600060208284031215611d3357611d3261171b565b5b6000611d4184828501611d08565b91505092915050565b7f616d6f756e7446726f6d546f6b656e20616e6420706f73742d7472616e73666560008201527f7220636f6e74726163742062616c616e6365206d69736d617463680000000000602082015250565b6000611da6603b83611952565b9150611db182611d4a565b604082019050919050565b60006020820190508181036000830152611dd581611d99565b9050919050565b7f7573657220706f73742d7472616e736665722062616c616e636520697320696e60008201527f636f727265637400000000000000000000000000000000000000000000000000602082015250565b6000611e38602783611952565b9150611e4382611ddc565b604082019050919050565b60006020820190508181036000830152611e6781611e2b565b9050919050565b6000602082019050611e836000830184611c9f565b92915050565b7f506f73742d7769746864726177616c20636f6e7472616374206465706f73697460008201527f2062616c616e6365206d75737420626520300000000000000000000000000000602082015250565b6000611ee5603283611952565b9150611ef082611e89565b604082019050919050565b60006020820190508181036000830152611f1481611ed8565b9050919050565b7f506f73742d7769746864726177616c20636f6e74726163742066726f6d546f6b60008201527f656e2062616c616e636520697320696e636f7272656374000000000000000000602082015250565b6000611f77603783611952565b9150611f8282611f1b565b604082019050919050565b60006020820190508181036000830152611fa681611f6a565b9050919050565b6000604082019050611fc260008301856116f1565b611fcf6020830184611c9f565b9392505050565b611fdf81611725565b82525050565b600081519050919050565b600082825260208201905092915050565b6000819050602082019050919050565b61201a816116df565b82525050565b600061202c8383612011565b60208301905092915050565b6000602082019050919050565b600061205082611fe5565b61205a8185611ff0565b935061206583612001565b8060005b8381101561209657815161207d8882612020565b975061208883612038565b925050600181019050612069565b5085935050505092915050565b60006080830160008301516120bb6000860182611fd6565b5060208301516120ce6020860182611fd6565b50604083015184820360408601526120e68282612045565b915050606083015184820360608601526121008282612045565b9150508091505092915050565b6000819050919050565b6000819050919050565b600061213c6121376121328461210d565b612117565b611725565b9050919050565b61214c81612121565b82525050565b6000606082019050818103600083015261216c81866120a3565b905061217b60208301856116f1565b6121886040830184612143565b949350505050565b7f496e73756666696369656e7420636f6e747261637420746f546f6b656e20626160008201527f6c616e6365000000000000000000000000000000000000000000000000000000602082015250565b60006121ec602583611952565b91506121f782612190565b604082019050919050565b6000602082019050818103600083015261221b816121df565b9050919050565b7f506f73742d6465706f73697420636f6e747261637420746f546f6b656e20626160008201527f6c616e6365206d75737420626520300000000000000000000000000000000000602082015250565b600061227e602f83611952565b915061228982612222565b604082019050919050565b600060208201905081810360008301526122ad81612271565b9050919050565b7f506f73742d6465706f73697420636f6e7472616374206465706f73697420626160008201527f6c616e636520697320696e636f72726563740000000000000000000000000000602082015250565b6000612310603283611952565b915061231b826122b4565b604082019050919050565b6000602082019050818103600083015261233f81612303565b9050919050565b7f506f73742d7472616e7366657220636f6e7472616374206465706f736974206260008201527f616c616e6365206d757374206265203000000000000000000000000000000000602082015250565b60006123a2603083611952565b91506123ad82612346565b604082019050919050565b600060208201905081810360008301526123d181612395565b9050919050565b60006123e382611725565b91506123ee83611725565b9250828201905080821115612406576124056118ef565b5b92915050565b7f506f73742d7472616e736665722075736572206465706f7369742062616c616e60008201527f636520697320696e636f72726563740000000000000000000000000000000000602082015250565b6000612468602f83611952565b91506124738261240c565b604082019050919050565b600060208201905081810360008301526124978161245b565b905091905056fea2646970667358221220d15195a3e5c9b8e87250a6be0ea8abbd58f873433d40e55ae107199602d0f7a264736f6c63430008110033",
  "devdoc": {
    "kind": "dev",
    "methods": {},
    "version": 1
  },
  "userdoc": {
    "kind": "user",
    "methods": {},
    "version": 1
  },
  "storageLayout": {
    "storage": [],
    "types": null
  }
}