{
  "address": "0x23C69155Bd7CC8F63CAC203b364eDB0E96DD7B93",
  "abi": [
    {
      "anonymous": false,
      "inputs": [
        {
          "indexed": true,
          "internalType": "address",
          "name": "previousOwner",
          "type": "address"
        },
        {
          "indexed": true,
          "internalType": "address",
          "name": "newOwner",
          "type": "address"
        }
      ],
      "name": "OwnershipTransferred",
      "type": "event"
    },
    {
      "anonymous": false,
      "inputs": [
        {
          "indexed": false,
          "internalType": "uint256",
          "name": "updatedRate",
          "type": "uint256"
        },
        {
          "indexed": false,
          "internalType": "uint256",
          "name": "timestamp",
          "type": "uint256"
        }
      ],
      "name": "RateUpdated",
      "type": "event"
    },
    {
      "inputs": [],
      "name": "getIndex",
      "outputs": [
        {
          "internalType": "uint256",
          "name": "",
          "type": "uint256"
        }
      ],
      "stateMutability": "view",
      "type": "function"
    },
    {
      "inputs": [
        {
          "internalType": "uint256",
          "name": "value",
          "type": "uint256"
        },
        {
          "internalType": "address",
          "name": "user",
          "type": "address"
        }
      ],
      "name": "getIndexedValue",
      "outputs": [
        {
          "internalType": "uint256",
          "name": "",
          "type": "uint256"
        }
      ],
      "stateMutability": "view",
      "type": "function"
    },
    {
      "inputs": [],
      "name": "index",
      "outputs": [
        {
          "internalType": "uint256",
          "name": "",
          "type": "uint256"
        }
      ],
      "stateMutability": "view",
      "type": "function"
    },
    {
      "inputs": [],
      "name": "indexUpdateTime",
      "outputs": [
        {
          "internalType": "uint256",
          "name": "",
          "type": "uint256"
        }
      ],
      "stateMutability": "view",
      "type": "function"
    },
    {
      "inputs": [
        {
          "internalType": "address",
          "name": "owner_",
          "type": "address"
        }
      ],
      "name": "initialize",
      "outputs": [],
      "stateMutability": "nonpayable",
      "type": "function"
    },
    {
      "inputs": [],
      "name": "owner",
      "outputs": [
        {
          "internalType": "address",
          "name": "",
          "type": "address"
        }
      ],
      "stateMutability": "view",
      "type": "function"
    },
    {
      "inputs": [],
      "name": "rate",
      "outputs": [
        {
          "internalType": "uint256",
          "name": "",
          "type": "uint256"
        }
      ],
      "stateMutability": "view",
      "type": "function"
    },
    {
      "inputs": [],
      "name": "renounceOwnership",
      "outputs": [],
      "stateMutability": "nonpayable",
      "type": "function"
    },
    {
      "inputs": [
        {
          "internalType": "uint256",
          "name": "_rate",
          "type": "uint256"
        }
      ],
      "name": "setRate",
      "outputs": [],
      "stateMutability": "nonpayable",
      "type": "function"
    },
    {
      "inputs": [
        {
          "internalType": "address",
          "name": "newOwner",
          "type": "address"
        }
      ],
      "name": "transferOwnership",
      "outputs": [],
      "stateMutability": "nonpayable",
      "type": "function"
    },
    {
      "inputs": [
        {
          "internalType": "address",
          "name": "user",
          "type": "address"
        }
      ],
      "name": "updateUser",
      "outputs": [],
      "stateMutability": "nonpayable",
      "type": "function"
    }
  ],
  "transactionHash": "0x550201f2ffd8a08b24753f59f59c338d25a902920cc2fbe8ff7aba73991aeadf",
  "args": [],
  "numDeployments": 1,
  "solcInputHash": "522114ab067503f705e1d1a86bdc9da4",
  "bytecode": "0x608060405234801561001057600080fd5b50610e92806100206000396000f3fe608060405234801561001057600080fd5b50600436106100a95760003560e01c806381045ead1161007157806381045ead1461012e5780638da5cb5b1461014c578063966da8891461016a578063c4d66de81461019a578063ed03b336146101b6578063f2fde38b146101d2576100a9565b80632986c0e5146100ae5780632c4e722e146100cc57806334fcf437146100ea578063715018a614610106578063798d1df714610110575b600080fd5b6100b66101ee565b6040516100c39190610959565b60405180910390f35b6100d46101f4565b6040516100e19190610959565b60405180910390f35b61010460048036038101906100ff91906109a5565b6101fa565b005b61010e6102c3565b005b6101186102c5565b6040516101259190610959565b60405180910390f35b6101366102cb565b6040516101439190610959565b60405180910390f35b610154610326565b6040516101619190610a13565b60405180910390f35b610184600480360381019061017f9190610a5a565b610350565b6040516101919190610959565b60405180910390f35b6101b460048036038101906101af9190610a9a565b6103eb565b005b6101d060048036038101906101cb9190610a9a565b61052c565b005b6101ec60048036038101906101e79190610a9a565b61060e565b005b60655481565b60695481565b610202610705565b73ffffffffffffffffffffffffffffffffffffffff16610220610326565b73ffffffffffffffffffffffffffffffffffffffff1614610276576040517f08c379a000000000000000000000000000000000000000000000000000000000815260040161026d90610b24565b60405180910390fd5b61027e61070d565b806069819055507fb38780ddde1f073d91c150de2696f3f7085883648ba21cc5ef01029cb21d1916606954426040516102b8929190610b44565b60405180910390a150565b565b60665481565b600080606654426102dc9190610b9c565b9050600081111561031c576b033b2e3c9fd0803ce80000006102fd82610740565b60655461030a9190610bd0565b6103149190610c41565b915050610323565b6065549150505b90565b6000603360009054906101000a900473ffffffffffffffffffffffffffffffffffffffff16905090565b600080606860008473ffffffffffffffffffffffffffffffffffffffff1673ffffffffffffffffffffffffffffffffffffffff16815260200190815260200160002054905060008082146103b75760676000838152602001908152602001600020546103c1565b670de0b6b3a76400005b9050806103cc6102cb565b866103d79190610bd0565b6103e19190610c41565b9250505092915050565b600060019054906101000a900460ff166104135760008054906101000a900460ff161561041c565b61041b61078c565b5b61045b576040517f08c379a000000000000000000000000000000000000000000000000000000000815260040161045290610ce4565b60405180910390fd5b60008060019054906101000a900460ff1615905080156104ab576001600060016101000a81548160ff02191690831515021790555060016000806101000a81548160ff0219169083151502179055505b670de0b6b3a7640000606581905550426066819055506104c961079d565b600073ffffffffffffffffffffffffffffffffffffffff168273ffffffffffffffffffffffffffffffffffffffff1614610507576105068261060e565b5b80156105285760008060016101000a81548160ff0219169083151502179055505b5050565b610534610705565b73ffffffffffffffffffffffffffffffffffffffff16610552610326565b73ffffffffffffffffffffffffffffffffffffffff16146105a8576040517f08c379a000000000000000000000000000000000000000000000000000000000815260040161059f90610b24565b60405180910390fd5b42606860008373ffffffffffffffffffffffffffffffffffffffff1673ffffffffffffffffffffffffffffffffffffffff168152602001908152602001600020819055506105f46102cb565b606760004281526020019081526020016000208190555050565b610616610705565b73ffffffffffffffffffffffffffffffffffffffff16610634610326565b73ffffffffffffffffffffffffffffffffffffffff161461068a576040517f08c379a000000000000000000000000000000000000000000000000000000000815260040161068190610b24565b60405180910390fd5b600073ffffffffffffffffffffffffffffffffffffffff168173ffffffffffffffffffffffffffffffffffffffff16036106f9576040517f08c379a00000000000000000000000000000000000000000000000000000000081526004016106f090610d76565b60405180910390fd5b610702816107f6565b50565b600033905090565b606554606760006066548152602001908152602001600020819055506107316102cb565b60658190555042606681905550565b60006b033b2e3c9fd0803ce80000006301e13380633b9aca00846069546107679190610bd0565b6107719190610bd0565b61077b9190610c41565b6107859190610d96565b9050919050565b6000610797306108bc565b15905090565b600060019054906101000a900460ff166107ec576040517f08c379a00000000000000000000000000000000000000000000000000000000081526004016107e390610e3c565b60405180910390fd5b6107f46108df565b565b6000603360009054906101000a900473ffffffffffffffffffffffffffffffffffffffff16905081603360006101000a81548173ffffffffffffffffffffffffffffffffffffffff021916908373ffffffffffffffffffffffffffffffffffffffff1602179055508173ffffffffffffffffffffffffffffffffffffffff168173ffffffffffffffffffffffffffffffffffffffff167f8be0079c531659141344cd1fd0a4f28419497f9722a3daafe3b4186f6b6457e060405160405180910390a35050565b6000808273ffffffffffffffffffffffffffffffffffffffff163b119050919050565b600060019054906101000a900460ff1661092e576040517f08c379a000000000000000000000000000000000000000000000000000000000815260040161092590610e3c565b60405180910390fd5b61093e610939610705565b6107f6565b565b6000819050919050565b61095381610940565b82525050565b600060208201905061096e600083018461094a565b92915050565b600080fd5b61098281610940565b811461098d57600080fd5b50565b60008135905061099f81610979565b92915050565b6000602082840312156109bb576109ba610974565b5b60006109c984828501610990565b91505092915050565b600073ffffffffffffffffffffffffffffffffffffffff82169050919050565b60006109fd826109d2565b9050919050565b610a0d816109f2565b82525050565b6000602082019050610a286000830184610a04565b92915050565b610a37816109f2565b8114610a4257600080fd5b50565b600081359050610a5481610a2e565b92915050565b60008060408385031215610a7157610a70610974565b5b6000610a7f85828601610990565b9250506020610a9085828601610a45565b9150509250929050565b600060208284031215610ab057610aaf610974565b5b6000610abe84828501610a45565b91505092915050565b600082825260208201905092915050565b7f4f776e61626c653a2063616c6c6572206973206e6f7420746865206f776e6572600082015250565b6000610b0e602083610ac7565b9150610b1982610ad8565b602082019050919050565b60006020820190508181036000830152610b3d81610b01565b9050919050565b6000604082019050610b59600083018561094a565b610b66602083018461094a565b9392505050565b7f4e487b7100000000000000000000000000000000000000000000000000000000600052601160045260246000fd5b6000610ba782610940565b9150610bb283610940565b9250828203905081811115610bca57610bc9610b6d565b5b92915050565b6000610bdb82610940565b9150610be683610940565b9250828202610bf481610940565b91508282048414831517610c0b57610c0a610b6d565b5b5092915050565b7f4e487b7100000000000000000000000000000000000000000000000000000000600052601260045260246000fd5b6000610c4c82610940565b9150610c5783610940565b925082610c6757610c66610c12565b5b828204905092915050565b7f496e697469616c697a61626c653a20636f6e747261637420697320616c72656160008201527f647920696e697469616c697a6564000000000000000000000000000000000000602082015250565b6000610cce602e83610ac7565b9150610cd982610c72565b604082019050919050565b60006020820190508181036000830152610cfd81610cc1565b9050919050565b7f4f776e61626c653a206e6577206f776e657220697320746865207a65726f206160008201527f6464726573730000000000000000000000000000000000000000000000000000602082015250565b6000610d60602683610ac7565b9150610d6b82610d04565b604082019050919050565b60006020820190508181036000830152610d8f81610d53565b9050919050565b6000610da182610940565b9150610dac83610940565b9250828201905080821115610dc457610dc3610b6d565b5b92915050565b7f496e697469616c697a61626c653a20636f6e7472616374206973206e6f74206960008201527f6e697469616c697a696e67000000000000000000000000000000000000000000602082015250565b6000610e26602b83610ac7565b9150610e3182610dca565b604082019050919050565b60006020820190508181036000830152610e5581610e19565b905091905056fea264697066735822122049224a99dc467d4cb1acf4ccee9837c09ea6612671730601caa8f765c89c861364736f6c63430008110033",
  "devdoc": {
    "kind": "dev",
    "methods": {
      "owner()": {
        "details": "Returns the address of the current owner."
      },
      "renounceOwnership()": {
        "details": "Leaves the contract without owner. It will not be possible to call `onlyOwner` functions anymore. Can only be called by the current owner. NOTE: Renouncing ownership will leave the contract without an owner, thereby removing any functionality that is only available to the owner."
      },
      "setRate(uint256)": {
        "details": "_rate the value of updated rate*"
      },
      "transferOwnership(address)": {
        "details": "Transfers ownership of the contract to a new account (`newOwner`). Can only be called by the current owner."
      },
      "updateUser(address)": {
        "details": "user address of the index owner*"
      }
    },
    "version": 1
  },
  "userdoc": {
    "kind": "user",
    "methods": {
      "getIndex()": {
        "notice": "Gets current value of the linear index It recalculates the value on-demand without updating the storage*"
      },
      "getIndexedValue(uint256,address)": {
        "notice": "Gets the user value recalculated to the current index It recalculates the value on-demand without updating the storage Ray operations round up the result, but it is only an issue for very small values (with an order of magnitude of 1 Wei)*"
      },
      "setRate(uint256)": {
        "notice": "Sets the new rate Before the new rate is set, the index is updated accumulating interest"
      },
      "updateUser(address)": {
        "notice": "Updates user index It persists the update time and the update index time->index mapping"
      }
    },
    "version": 1
  },
  "storageLayout": {
    "storage": [
      {
        "astId": 130,
        "contract": "contracts/deployment/avalanche/EthBorrowIndex.sol:EthBorrowIndex",
        "label": "_initialized",
        "offset": 0,
        "slot": "0",
        "type": "t_bool"
      },
      {
        "astId": 133,
        "contract": "contracts/deployment/avalanche/EthBorrowIndex.sol:EthBorrowIndex",
        "label": "_initializing",
        "offset": 1,
        "slot": "0",
        "type": "t_bool"
      },
      {
        "astId": 481,
        "contract": "contracts/deployment/avalanche/EthBorrowIndex.sol:EthBorrowIndex",
        "label": "__gap",
        "offset": 0,
        "slot": "1",
        "type": "t_array(t_uint256)50_storage"
      },
      {
        "astId": 10,
        "contract": "contracts/deployment/avalanche/EthBorrowIndex.sol:EthBorrowIndex",
        "label": "_owner",
        "offset": 0,
        "slot": "51",
        "type": "t_address"
      },
      {
        "astId": 122,
        "contract": "contracts/deployment/avalanche/EthBorrowIndex.sol:EthBorrowIndex",
        "label": "__gap",
        "offset": 0,
        "slot": "52",
        "type": "t_array(t_uint256)49_storage"
      },
      {
        "astId": 499,
        "contract": "contracts/deployment/avalanche/EthBorrowIndex.sol:EthBorrowIndex",
        "label": "index",
        "offset": 0,
        "slot": "101",
        "type": "t_uint256"
      },
      {
        "astId": 501,
        "contract": "contracts/deployment/avalanche/EthBorrowIndex.sol:EthBorrowIndex",
        "label": "indexUpdateTime",
        "offset": 0,
        "slot": "102",
        "type": "t_uint256"
      },
      {
        "astId": 505,
        "contract": "contracts/deployment/avalanche/EthBorrowIndex.sol:EthBorrowIndex",
        "label": "prevIndex",
        "offset": 0,
        "slot": "103",
        "type": "t_mapping(t_uint256,t_uint256)"
      },
      {
        "astId": 509,
        "contract": "contracts/deployment/avalanche/EthBorrowIndex.sol:EthBorrowIndex",
        "label": "userUpdateTime",
        "offset": 0,
        "slot": "104",
        "type": "t_mapping(t_address,t_uint256)"
      },
      {
        "astId": 511,
        "contract": "contracts/deployment/avalanche/EthBorrowIndex.sol:EthBorrowIndex",
        "label": "rate",
        "offset": 0,
        "slot": "105",
        "type": "t_uint256"
      }
    ],
    "types": {
      "t_address": {
        "encoding": "inplace",
        "label": "address",
        "numberOfBytes": "20"
      },
      "t_array(t_uint256)49_storage": {
        "base": "t_uint256",
        "encoding": "inplace",
        "label": "uint256[49]",
        "numberOfBytes": "1568"
      },
      "t_array(t_uint256)50_storage": {
        "base": "t_uint256",
        "encoding": "inplace",
        "label": "uint256[50]",
        "numberOfBytes": "1600"
      },
      "t_bool": {
        "encoding": "inplace",
        "label": "bool",
        "numberOfBytes": "1"
      },
      "t_mapping(t_address,t_uint256)": {
        "encoding": "mapping",
        "key": "t_address",
        "label": "mapping(address => uint256)",
        "numberOfBytes": "32",
        "value": "t_uint256"
      },
      "t_mapping(t_uint256,t_uint256)": {
        "encoding": "mapping",
        "key": "t_uint256",
        "label": "mapping(uint256 => uint256)",
        "numberOfBytes": "32",
        "value": "t_uint256"
      },
      "t_uint256": {
        "encoding": "inplace",
        "label": "uint256",
        "numberOfBytes": "32"
      }
    }
  }
}