{
  "address": "0x9Ff80E9f112428D7E7E9435d14034Df5Af3f3607",
  "abi": [
    {
      "inputs": [],
      "name": "BorrowersRegistryNotConfigured",
      "type": "error"
    },
    {
      "inputs": [],
      "name": "BurnAmountExceedsAvailableForUser",
      "type": "error"
    },
    {
      "inputs": [],
      "name": "BurnAmountExceedsBalance",
      "type": "error"
    },
    {
      "inputs": [],
      "name": "CalldataMustHaveValidPayload",
      "type": "error"
    },
    {
      "inputs": [],
      "name": "CalldataOverOrUnderFlow",
      "type": "error"
    },
    {
      "inputs": [],
      "name": "DataPackageTimestampMustNotBeZero",
      "type": "error"
    },
    {
      "inputs": [],
      "name": "DataPackageTimestampsMustBeEqual",
      "type": "error"
    },
    {
      "inputs": [],
      "name": "EachSignerMustProvideTheSameValue",
      "type": "error"
    },
    {
      "inputs": [],
      "name": "EmptyCalldataPointersArr",
      "type": "error"
    },
    {
      "inputs": [],
      "name": "IncorrectUnsignedMetadataSize",
      "type": "error"
    },
    {
      "inputs": [
        {
          "internalType": "uint256",
          "name": "requested",
          "type": "uint256"
        },
        {
          "internalType": "uint256",
          "name": "allowance",
          "type": "uint256"
        }
      ],
      "name": "InsufficientAllowance",
      "type": "error"
    },
    {
      "inputs": [
        {
          "internalType": "uint256",
          "name": "receivedSignersCount",
          "type": "uint256"
        },
        {
          "internalType": "uint256",
          "name": "requiredSignersCount",
          "type": "uint256"
        }
      ],
      "name": "InsufficientNumberOfUniqueSigners",
      "type": "error"
    },
    {
      "inputs": [],
      "name": "InsufficientPoolFunds",
      "type": "error"
    },
    {
      "inputs": [],
      "name": "InsufficientSurplus",
      "type": "error"
    },
    {
      "inputs": [],
      "name": "InvalidCalldataPointer",
      "type": "error"
    },
    {
      "inputs": [],
      "name": "MaxPoolUtilisationBreached",
      "type": "error"
    },
    {
      "inputs": [],
      "name": "MintToAddressZero",
      "type": "error"
    },
    {
      "inputs": [
        {
          "internalType": "address",
          "name": "target",
          "type": "address"
        }
      ],
      "name": "NotAContract",
      "type": "error"
    },
    {
      "inputs": [],
      "name": "NotAuthorizedToBorrow",
      "type": "error"
    },
    {
      "inputs": [],
      "name": "PoolFrozen",
      "type": "error"
    },
    {
      "inputs": [
        {
          "internalType": "bytes",
          "name": "result",
          "type": "bytes"
        }
      ],
      "name": "ProxyCalldataFailedWithCustomError",
      "type": "error"
    },
    {
      "inputs": [
        {
          "internalType": "string",
          "name": "message",
          "type": "string"
        }
      ],
      "name": "ProxyCalldataFailedWithStringMessage",
      "type": "error"
    },
    {
      "inputs": [],
      "name": "ProxyCalldataFailedWithoutErrMsg",
      "type": "error"
    },
    {
      "inputs": [],
      "name": "RedstonePayloadMustHaveAtLeastOneDataPackage",
      "type": "error"
    },
    {
      "inputs": [],
      "name": "RepayingMoreThanWasBorrowed",
      "type": "error"
    },
    {
      "inputs": [
        {
          "internalType": "address",
          "name": "receivedSigner",
          "type": "address"
        }
      ],
      "name": "SignerNotAuthorised",
      "type": "error"
    },
    {
      "inputs": [],
      "name": "SpenderZeroAddress",
      "type": "error"
    },
    {
      "inputs": [],
      "name": "TotalSupplyCapBreached",
      "type": "error"
    },
    {
      "inputs": [
        {
          "internalType": "uint256",
          "name": "amount",
          "type": "uint256"
        },
        {
          "internalType": "uint256",
          "name": "balance",
          "type": "uint256"
        }
      ],
      "name": "TransferAmountExceedsBalance",
      "type": "error"
    },
    {
      "inputs": [],
      "name": "TransferToPoolAddress",
      "type": "error"
    },
    {
      "inputs": [],
      "name": "TransferToZeroAddress",
      "type": "error"
    },
    {
      "inputs": [],
      "name": "ZeroDepositAmount",
      "type": "error"
    },
    {
      "anonymous": false,
      "inputs": [
        {
          "indexed": true,
          "internalType": "address",
          "name": "owner",
          "type": "address"
        },
        {
          "indexed": true,
          "internalType": "address",
          "name": "spender",
          "type": "address"
        },
        {
          "indexed": false,
          "internalType": "uint256",
          "name": "value",
          "type": "uint256"
        }
      ],
      "name": "Approval",
      "type": "event"
    },
    {
      "anonymous": false,
      "inputs": [
        {
          "indexed": true,
          "internalType": "address",
          "name": "registry",
          "type": "address"
        },
        {
          "indexed": false,
          "internalType": "uint256",
          "name": "timestamp",
          "type": "uint256"
        }
      ],
      "name": "BorrowersRegistryChanged",
      "type": "event"
    },
    {
      "anonymous": false,
      "inputs": [
        {
          "indexed": true,
          "internalType": "address",
          "name": "user",
          "type": "address"
        },
        {
          "indexed": false,
          "internalType": "uint256",
          "name": "value",
          "type": "uint256"
        },
        {
          "indexed": false,
          "internalType": "uint256",
          "name": "timestamp",
          "type": "uint256"
        }
      ],
      "name": "Borrowing",
      "type": "event"
    },
    {
      "anonymous": false,
      "inputs": [
        {
          "indexed": true,
          "internalType": "address",
          "name": "user",
          "type": "address"
        },
        {
          "indexed": false,
          "internalType": "uint256",
          "name": "value",
          "type": "uint256"
        },
        {
          "indexed": false,
          "internalType": "uint256",
          "name": "timestamp",
          "type": "uint256"
        }
      ],
      "name": "Deposit",
      "type": "event"
    },
    {
      "anonymous": false,
      "inputs": [
        {
          "indexed": true,
          "internalType": "address",
          "name": "user",
          "type": "address"
        },
        {
          "indexed": false,
          "internalType": "uint256",
          "name": "amount",
          "type": "uint256"
        },
        {
          "indexed": false,
          "internalType": "uint256",
          "name": "lockTime",
          "type": "uint256"
        },
        {
          "indexed": false,
          "internalType": "uint256",
          "name": "unlockTime",
          "type": "uint256"
        }
      ],
      "name": "DepositLocked",
      "type": "event"
    },
    {
      "anonymous": false,
      "inputs": [
        {
          "indexed": true,
          "internalType": "address",
          "name": "user",
          "type": "address"
        },
        {
          "indexed": true,
          "internalType": "address",
          "name": "_of",
          "type": "address"
        },
        {
          "indexed": false,
          "internalType": "uint256",
          "name": "value",
          "type": "uint256"
        },
        {
          "indexed": false,
          "internalType": "uint256",
          "name": "timestamp",
          "type": "uint256"
        }
      ],
      "name": "DepositOnBehalfOf",
      "type": "event"
    },
    {
      "anonymous": false,
      "inputs": [
        {
          "indexed": false,
          "internalType": "uint8",
          "name": "version",
          "type": "uint8"
        }
      ],
      "name": "Initialized",
      "type": "event"
    },
    {
      "anonymous": false,
      "inputs": [
        {
          "indexed": true,
          "internalType": "address",
          "name": "user",
          "type": "address"
        },
        {
          "indexed": false,
          "internalType": "uint256",
          "name": "value",
          "type": "uint256"
        },
        {
          "indexed": false,
          "internalType": "uint256",
          "name": "timestamp",
          "type": "uint256"
        }
      ],
      "name": "InterestCollected",
      "type": "event"
    },
    {
      "anonymous": false,
      "inputs": [
        {
          "indexed": true,
          "internalType": "address",
          "name": "from",
          "type": "address"
        },
        {
          "indexed": true,
          "internalType": "address",
          "name": "to",
          "type": "address"
        }
      ],
      "name": "OwnershipTransferRequested",
      "type": "event"
    },
    {
      "anonymous": false,
      "inputs": [
        {
          "indexed": true,
          "internalType": "address",
          "name": "previousOwner",
          "type": "address"
        },
        {
          "indexed": true,
          "internalType": "address",
          "name": "newOwner",
          "type": "address"
        }
      ],
      "name": "OwnershipTransferred",
      "type": "event"
    },
    {
      "anonymous": false,
      "inputs": [
        {
          "indexed": true,
          "internalType": "address",
          "name": "poolRewarder",
          "type": "address"
        },
        {
          "indexed": false,
          "internalType": "uint256",
          "name": "timestamp",
          "type": "uint256"
        }
      ],
      "name": "PoolRewarderChanged",
      "type": "event"
    },
    {
      "anonymous": false,
      "inputs": [
        {
          "indexed": true,
          "internalType": "address",
          "name": "calculator",
          "type": "address"
        },
        {
          "indexed": false,
          "internalType": "uint256",
          "name": "timestamp",
          "type": "uint256"
        }
      ],
      "name": "RatesCalculatorChanged",
      "type": "event"
    },
    {
      "anonymous": false,
      "inputs": [
        {
          "indexed": true,
          "internalType": "address",
          "name": "user",
          "type": "address"
        },
        {
          "indexed": false,
          "internalType": "uint256",
          "name": "value",
          "type": "uint256"
        },
        {
          "indexed": false,
          "internalType": "uint256",
          "name": "timestamp",
          "type": "uint256"
        }
      ],
      "name": "Repayment",
      "type": "event"
    },
    {
      "anonymous": false,
      "inputs": [
        {
          "indexed": true,
          "internalType": "address",
          "name": "from",
          "type": "address"
        },
        {
          "indexed": true,
          "internalType": "address",
          "name": "to",
          "type": "address"
        },
        {
          "indexed": false,
          "internalType": "uint256",
          "name": "value",
          "type": "uint256"
        }
      ],
      "name": "Transfer",
      "type": "event"
    },
    {
      "anonymous": false,
      "inputs": [
        {
          "indexed": true,
          "internalType": "address",
          "name": "user",
          "type": "address"
        },
        {
          "indexed": false,
          "internalType": "uint256",
          "name": "value",
          "type": "uint256"
        },
        {
          "indexed": false,
          "internalType": "uint256",
          "name": "timestamp",
          "type": "uint256"
        }
      ],
      "name": "Withdrawal",
      "type": "event"
    },
    {
      "inputs": [],
      "name": "MAX_LOCK_TIME",
      "outputs": [
        {
          "internalType": "uint256",
          "name": "",
          "type": "uint256"
        }
      ],
      "stateMutability": "view",
      "type": "function"
    },
    {
      "inputs": [],
      "name": "acceptOwnership",
      "outputs": [],
      "stateMutability": "nonpayable",
      "type": "function"
    },
    {
      "inputs": [
        {
          "internalType": "address",
          "name": "owner",
          "type": "address"
        },
        {
          "internalType": "address",
          "name": "spender",
          "type": "address"
        }
      ],
      "name": "allowance",
      "outputs": [
        {
          "internalType": "uint256",
          "name": "",
          "type": "uint256"
        }
      ],
      "stateMutability": "view",
      "type": "function"
    },
    {
      "inputs": [
        {
          "internalType": "address",
          "name": "spender",
          "type": "address"
        },
        {
          "internalType": "uint256",
          "name": "amount",
          "type": "uint256"
        }
      ],
      "name": "approve",
      "outputs": [
        {
          "internalType": "bool",
          "name": "",
          "type": "bool"
        }
      ],
      "stateMutability": "nonpayable",
      "type": "function"
    },
    {
      "inputs": [
        {
          "internalType": "address",
          "name": "user",
          "type": "address"
        }
      ],
      "name": "balanceOf",
      "outputs": [
        {
          "internalType": "uint256",
          "name": "",
          "type": "uint256"
        }
      ],
      "stateMutability": "view",
      "type": "function"
    },
    {
      "inputs": [
        {
          "internalType": "uint256",
          "name": "_amount",
          "type": "uint256"
        }
      ],
      "name": "borrow",
      "outputs": [],
      "stateMutability": "nonpayable",
      "type": "function"
    },
    {
      "inputs": [],
      "name": "borrowIndex",
      "outputs": [
        {
          "internalType": "contract IIndex",
          "name": "",
          "type": "address"
        }
      ],
      "stateMutability": "view",
      "type": "function"
    },
    {
      "inputs": [
        {
          "internalType": "address",
          "name": "",
          "type": "address"
        }
      ],
      "name": "borrowed",
      "outputs": [
        {
          "internalType": "uint256",
          "name": "",
          "type": "uint256"
        }
      ],
      "stateMutability": "view",
      "type": "function"
    },
    {
      "inputs": [],
      "name": "borrowersRegistry",
      "outputs": [
        {
          "internalType": "contract IBorrowersRegistry",
          "name": "",
          "type": "address"
        }
      ],
      "stateMutability": "view",
      "type": "function"
    },
    {
      "inputs": [],
      "name": "checkRewards",
      "outputs": [
        {
          "internalType": "uint256",
          "name": "",
          "type": "uint256"
        }
      ],
      "stateMutability": "view",
      "type": "function"
    },
    {
      "inputs": [],
      "name": "decimals",
      "outputs": [
        {
          "internalType": "uint8",
          "name": "decimals",
          "type": "uint8"
        }
      ],
      "stateMutability": "pure",
      "type": "function"
    },
    {
      "inputs": [
        {
          "internalType": "address",
          "name": "spender",
          "type": "address"
        },
        {
          "internalType": "uint256",
          "name": "subtractedValue",
          "type": "uint256"
        }
      ],
      "name": "decreaseAllowance",
      "outputs": [
        {
          "internalType": "bool",
          "name": "",
          "type": "bool"
        }
      ],
      "stateMutability": "nonpayable",
      "type": "function"
    },
    {
      "inputs": [
        {
          "internalType": "uint256",
          "name": "_amount",
          "type": "uint256"
        }
      ],
      "name": "deposit",
      "outputs": [],
      "stateMutability": "nonpayable",
      "type": "function"
    },
    {
      "inputs": [],
      "name": "depositIndex",
      "outputs": [
        {
          "internalType": "contract IIndex",
          "name": "",
          "type": "address"
        }
      ],
      "stateMutability": "view",
      "type": "function"
    },
    {
      "inputs": [
        {
          "internalType": "uint256",
          "name": "_amount",
          "type": "uint256"
        },
        {
          "internalType": "address",
          "name": "_of",
          "type": "address"
        }
      ],
      "name": "depositOnBehalf",
      "outputs": [],
      "stateMutability": "nonpayable",
      "type": "function"
    },
    {
      "inputs": [],
      "name": "extractTimestampsAndAssertAllAreEqual",
      "outputs": [
        {
          "internalType": "uint256",
          "name": "extractedTimestamp",
          "type": "uint256"
        }
      ],
      "stateMutability": "pure",
      "type": "function"
    },
    {
      "inputs": [
        {
          "internalType": "address",
          "name": "_user",
          "type": "address"
        }
      ],
      "name": "getBorrowed",
      "outputs": [
        {
          "internalType": "uint256",
          "name": "",
          "type": "uint256"
        }
      ],
      "stateMutability": "view",
      "type": "function"
    },
    {
      "inputs": [],
      "name": "getBorrowingRate",
      "outputs": [
        {
          "internalType": "uint256",
          "name": "",
          "type": "uint256"
        }
      ],
      "stateMutability": "view",
      "type": "function"
    },
    {
      "inputs": [],
      "name": "getDepositRate",
      "outputs": [
        {
          "internalType": "uint256",
          "name": "",
          "type": "uint256"
        }
      ],
      "stateMutability": "view",
      "type": "function"
    },
    {
      "inputs": [],
      "name": "getFullPoolStatus",
      "outputs": [
        {
          "internalType": "uint256[5]",
          "name": "",
          "type": "uint256[5]"
        }
      ],
      "stateMutability": "view",
      "type": "function"
    },
    {
      "inputs": [
        {
          "internalType": "address",
          "name": "account",
          "type": "address"
        }
      ],
      "name": "getFullyVestedLockedBalance",
      "outputs": [
        {
          "internalType": "uint256",
          "name": "fullyVestedBalance",
          "type": "uint256"
        }
      ],
      "stateMutability": "view",
      "type": "function"
    },
    {
      "inputs": [
        {
          "internalType": "address",
          "name": "account",
          "type": "address"
        }
      ],
      "name": "getLockedBalance",
      "outputs": [
        {
          "internalType": "uint256",
          "name": "",
          "type": "uint256"
        }
      ],
      "stateMutability": "view",
      "type": "function"
    },
    {
      "inputs": [],
      "name": "getMaxPoolUtilisationForBorrowing",
      "outputs": [
        {
          "internalType": "uint256",
          "name": "",
          "type": "uint256"
        }
      ],
      "stateMutability": "view",
      "type": "function"
    },
    {
      "inputs": [
        {
          "internalType": "address",
          "name": "account",
          "type": "address"
        }
      ],
      "name": "getNotLockedBalance",
      "outputs": [
        {
          "internalType": "uint256",
          "name": "notLockedBalance",
          "type": "uint256"
        }
      ],
      "stateMutability": "view",
      "type": "function"
    },
    {
      "inputs": [],
      "name": "getRewards",
      "outputs": [],
      "stateMutability": "nonpayable",
      "type": "function"
    },
    {
      "inputs": [],
      "name": "getVPrimeControllerAddress",
      "outputs": [
        {
          "internalType": "address",
          "name": "",
          "type": "address"
        }
      ],
      "stateMutability": "view",
      "type": "function"
    },
    {
      "inputs": [
        {
          "internalType": "address",
          "name": "spender",
          "type": "address"
        },
        {
          "internalType": "uint256",
          "name": "addedValue",
          "type": "uint256"
        }
      ],
      "name": "increaseAllowance",
      "outputs": [
        {
          "internalType": "bool",
          "name": "",
          "type": "bool"
        }
      ],
      "stateMutability": "nonpayable",
      "type": "function"
    },
    {
      "inputs": [
        {
          "internalType": "contract IRatesCalculator",
          "name": "ratesCalculator_",
          "type": "address"
        },
        {
          "internalType": "contract IBorrowersRegistry",
          "name": "borrowersRegistry_",
          "type": "address"
        },
        {
          "internalType": "contract IIndex",
          "name": "depositIndex_",
          "type": "address"
        },
        {
          "internalType": "contract IIndex",
          "name": "borrowIndex_",
          "type": "address"
        },
        {
          "internalType": "address payable",
          "name": "tokenAddress_",
          "type": "address"
        },
        {
          "internalType": "contract IPoolRewarder",
          "name": "poolRewarder_",
          "type": "address"
        },
        {
          "internalType": "uint256",
          "name": "_totalSupplyCap",
          "type": "uint256"
        }
      ],
      "name": "initialize",
      "outputs": [],
      "stateMutability": "nonpayable",
      "type": "function"
    },
    {
      "inputs": [
        {
          "internalType": "address",
          "name": "account",
          "type": "address"
        },
        {
          "internalType": "uint256",
          "name": "amount",
          "type": "uint256"
        }
      ],
      "name": "isWithdrawalAmountAvailable",
      "outputs": [
        {
          "internalType": "bool",
          "name": "",
          "type": "bool"
        }
      ],
      "stateMutability": "view",
      "type": "function"
    },
    {
      "inputs": [
        {
          "internalType": "uint256",
          "name": "amount",
          "type": "uint256"
        },
        {
          "internalType": "uint256",
          "name": "lockTime",
          "type": "uint256"
        }
      ],
      "name": "lockDeposit",
      "outputs": [],
      "stateMutability": "nonpayable",
      "type": "function"
    },
    {
      "inputs": [
        {
          "internalType": "address",
          "name": "",
          "type": "address"
        },
        {
          "internalType": "uint256",
          "name": "",
          "type": "uint256"
        }
      ],
      "name": "locks",
      "outputs": [
        {
          "internalType": "uint256",
          "name": "lockTime",
          "type": "uint256"
        },
        {
          "internalType": "uint256",
          "name": "amount",
          "type": "uint256"
        },
        {
          "internalType": "uint256",
          "name": "unlockTime",
          "type": "uint256"
        }
      ],
      "stateMutability": "view",
      "type": "function"
    },
    {
      "inputs": [],
      "name": "name",
      "outputs": [
        {
          "internalType": "string",
          "name": "_name",
          "type": "string"
        }
      ],
      "stateMutability": "pure",
      "type": "function"
    },
    {
      "inputs": [],
      "name": "owner",
      "outputs": [
        {
          "internalType": "address",
          "name": "",
          "type": "address"
        }
      ],
      "stateMutability": "view",
      "type": "function"
    },
    {
      "inputs": [],
      "name": "pendingOwner",
      "outputs": [
        {
          "internalType": "address",
          "name": "",
          "type": "address"
        }
      ],
      "stateMutability": "view",
      "type": "function"
    },
    {
      "inputs": [],
      "name": "poolRewarder",
      "outputs": [
        {
          "internalType": "contract IPoolRewarder",
          "name": "",
          "type": "address"
        }
      ],
      "stateMutability": "view",
      "type": "function"
    },
    {
      "inputs": [],
      "name": "ratesCalculator",
      "outputs": [
        {
          "internalType": "contract IRatesCalculator",
          "name": "",
          "type": "address"
        }
      ],
      "stateMutability": "view",
      "type": "function"
    },
    {
      "inputs": [
        {
          "internalType": "uint256",
          "name": "amount",
          "type": "uint256"
        },
        {
          "internalType": "address",
          "name": "account",
          "type": "address"
        }
      ],
      "name": "recoverSurplus",
      "outputs": [],
      "stateMutability": "nonpayable",
      "type": "function"
    },
    {
      "inputs": [],
      "name": "renounceOwnership",
      "outputs": [],
      "stateMutability": "nonpayable",
      "type": "function"
    },
    {
      "inputs": [
        {
          "internalType": "uint256",
          "name": "amount",
          "type": "uint256"
        }
      ],
      "name": "repay",
      "outputs": [],
      "stateMutability": "nonpayable",
      "type": "function"
    },
    {
      "inputs": [
        {
          "internalType": "contract IBorrowersRegistry",
          "name": "borrowersRegistry_",
          "type": "address"
        }
      ],
      "name": "setBorrowersRegistry",
      "outputs": [],
      "stateMutability": "nonpayable",
      "type": "function"
    },
    {
      "inputs": [
        {
          "internalType": "contract IPoolRewarder",
          "name": "_poolRewarder",
          "type": "address"
        }
      ],
      "name": "setPoolRewarder",
      "outputs": [],
      "stateMutability": "nonpayable",
      "type": "function"
    },
    {
      "inputs": [
        {
          "internalType": "contract IRatesCalculator",
          "name": "ratesCalculator_",
          "type": "address"
        }
      ],
      "name": "setRatesCalculator",
      "outputs": [],
      "stateMutability": "nonpayable",
      "type": "function"
    },
    {
      "inputs": [
        {
          "internalType": "contract ITokenManager",
          "name": "_tokenManager",
          "type": "address"
        }
      ],
      "name": "setTokenManager",
      "outputs": [],
      "stateMutability": "nonpayable",
      "type": "function"
    },
    {
      "inputs": [
        {
          "internalType": "uint256",
          "name": "_newTotalSupplyCap",
          "type": "uint256"
        }
      ],
      "name": "setTotalSupplyCap",
      "outputs": [],
      "stateMutability": "nonpayable",
      "type": "function"
    },
    {
      "inputs": [],
      "name": "symbol",
      "outputs": [
        {
          "internalType": "string",
          "name": "_symbol",
          "type": "string"
        }
      ],
      "stateMutability": "pure",
      "type": "function"
    },
    {
      "inputs": [],
      "name": "tokenAddress",
      "outputs": [
        {
          "internalType": "address payable",
          "name": "",
          "type": "address"
        }
      ],
      "stateMutability": "view",
      "type": "function"
    },
    {
      "inputs": [],
      "name": "tokenManager",
      "outputs": [
        {
          "internalType": "contract ITokenManager",
          "name": "",
          "type": "address"
        }
      ],
      "stateMutability": "view",
      "type": "function"
    },
    {
      "inputs": [],
      "name": "totalBorrowed",
      "outputs": [
        {
          "internalType": "uint256",
          "name": "",
          "type": "uint256"
        }
      ],
      "stateMutability": "view",
      "type": "function"
    },
    {
      "inputs": [],
      "name": "totalSupply",
      "outputs": [
        {
          "internalType": "uint256",
          "name": "",
          "type": "uint256"
        }
      ],
      "stateMutability": "view",
      "type": "function"
    },
    {
      "inputs": [],
      "name": "totalSupplyCap",
      "outputs": [
        {
          "internalType": "uint256",
          "name": "",
          "type": "uint256"
        }
      ],
      "stateMutability": "view",
      "type": "function"
    },
    {
      "inputs": [
        {
          "internalType": "address",
          "name": "recipient",
          "type": "address"
        },
        {
          "internalType": "uint256",
          "name": "amount",
          "type": "uint256"
        }
      ],
      "name": "transfer",
      "outputs": [
        {
          "internalType": "bool",
          "name": "",
          "type": "bool"
        }
      ],
      "stateMutability": "nonpayable",
      "type": "function"
    },
    {
      "inputs": [
        {
          "internalType": "address",
          "name": "sender",
          "type": "address"
        },
        {
          "internalType": "address",
          "name": "recipient",
          "type": "address"
        },
        {
          "internalType": "uint256",
          "name": "amount",
          "type": "uint256"
        }
      ],
      "name": "transferFrom",
      "outputs": [
        {
          "internalType": "bool",
          "name": "",
          "type": "bool"
        }
      ],
      "stateMutability": "nonpayable",
      "type": "function"
    },
    {
      "inputs": [
        {
          "internalType": "address",
          "name": "newOwner",
          "type": "address"
        }
      ],
      "name": "transferOwnership",
      "outputs": [],
      "stateMutability": "nonpayable",
      "type": "function"
    },
    {
      "inputs": [],
      "name": "vestingDistributor",
      "outputs": [
        {
          "internalType": "contract VestingDistributor",
          "name": "",
          "type": "address"
        }
      ],
      "stateMutability": "view",
      "type": "function"
    },
    {
      "inputs": [
        {
          "internalType": "uint256",
          "name": "_amount",
          "type": "uint256"
        }
      ],
      "name": "withdraw",
      "outputs": [],
      "stateMutability": "nonpayable",
      "type": "function"
    }
  ],
  "transactionHash": "0x98eb9ae0e64c29dd6f5c03091d718007e64ce3743355721c58002d5ea700b11a",
  "args": [],
  "numDeployments": 1,
  "solcInputHash": "2d4a2829eb647faaae6d46c43e1cc771",
  "bytecode": "0x608060405234801561001057600080fd5b506137f8806100206000396000f3fe608060405234801561001057600080fd5b506004361061027d5760003560e01c80630572b0cc1461028257806306fdde031461028c5780630790ef9a146102d057806307bbebdd146102e35780630941cb3d14610303578063095ea7b3146103315780631457db34146103545780631460e3901461036757806318160ddd1461037a57806323b872dd146103825780632a709b14146103955780632aeaa291146103a85780632e1a7d4d146103b0578063313ce567146103c357806331d05b11146103d2578063371fd8e6146103e557806339509351146103f857806341da9b541461040b5780634c19386c1461041e57806355a547d5146104265780636011163e1461042e57806361215aa8146104415780636ca6d5d01461044f5780636cf55ea21461046257806370a082311461047557806370d4cea014610488578063715018a61461028a578063726cd4151461049b57806379ba5097146104a35780637b898939146104ab5780637cb2b79c146104be5780637f75ad0f146104d15780638da5cb5b146104e457806395d89b41146104ec5780639d76ea581461050f578063a457c2d714610522578063a9059cbb14610535578063aa5af0fd14610548578063b425f8021461055b578063b6b55f2514610589578063b75c42bd1461059c578063b790634e146105b1578063bb102aea146105b9578063c4086893146105c2578063c4ce6358146105d5578063c5ebeaec146105e8578063d06dca89146105fb578063dd62ed3e1461060e578063e2b9442e14610647578063e30c39781461065a578063ee61bd6e14610662578063f2fde38b14610675578063f36b242514610688578063fa78668f14610690578063fc68f6611461069b575b600080fd5b61028a6106ae565b005b6040805180820190915260168152752232b63a30a83934b6b2abb930b83832b222ba3432b960511b60208201525b6040516102c7919061336f565b60405180910390f35b61028a6102de366004613397565b610712565b60a1546102f6906001600160a01b031681565b6040516102c791906133c7565b6103236103113660046133db565b609a6020526000908152604090205481565b6040519081526020016102c7565b61034461033f3660046133f8565b61081a565b60405190151581526020016102c7565b61028a6103623660046133db565b610896565b61028a610375366004613424565b610945565b610323610bf1565b6103446103903660046134b1565b610c01565b60a3546102f6906001600160a01b031681565b610323610f4f565b61028a6103be3660046134f2565b610fbf565b604051601281526020016102c7565b61028a6103e03660046134f2565b6111fa565b61028a6103f33660046134f2565b611207565b6103446104063660046133f8565b6112f0565b6103446104193660046133f8565b61139d565b6103236113b2565b6103236113bd565b61032361043c3660046133db565b6114d5565b670cd64299613c8000610323565b609d546102f6906001600160a01b031681565b61028a610470366004613397565b61155c565b6103236104833660046133db565b611819565b61028a6104963660046133db565b61185f565b6102f661190d565b61028a61197b565b609e546102f6906001600160a01b031681565b61028a6104cc3660046133db565b611a0a565b6103236104df3660046133db565b611a34565b6102f6611a79565b6040805180820190915260078152664450574554486560c81b60208201526102ba565b60a0546102f6906001600160a01b031681565b6103446105303660046133f8565b611a88565b6103446105433660046133f8565b611b5c565b609f546102f6906001600160a01b031681565b61056e6105693660046133f8565b611da0565b604080519384526020840192909252908201526060016102c7565b61028a6105973660046134f2565b611de2565b6105a4611dec565b6040516102c7919061350b565b610323611e43565b61032360975481565b6103236105d03660046133db565b611e84565b6103236105e33660046133db565b611f51565b61028a6105f63660046134f2565b612071565b609c546102f6906001600160a01b031681565b61032361061c36600461353c565b6001600160a01b03918216600090815260986020908152604080832093909416825291909152205490565b61028a61065536600461356a565b6122ee565b6102f6612466565b609b546102f6906001600160a01b031681565b61028a6106833660046133db565b612470565b610323612537565b6103236305a39a8081565b61028a6106a93660046133db565b612553565b609d546040516311305c1f60e11b81526001600160a01b0390911690632260b83e906106de9033906004016133c7565b600060405180830381600087803b1580156106f857600080fd5b505af115801561070c573d6000803e3d6000fd5b50505050565b61071a6125d1565b610722612630565b60a0546040516370a0823160e01b81526000916001600160a01b0316906370a08231906107539030906004016133c7565b602060405180830381865afa158015610770573d6000803e3d6000fd5b505050506040513d601f19601f82011682018060405250810190610794919061358c565b905060006107a0610bf1565b6107a86113b2565b6107b290846135bb565b6107bc91906135ce565b9050818411156107df576040516316d5c93f60e21b815260040160405180910390fd5b83811015610800576040516394290ab960e01b815260040160405180910390fd5b61080a8385612689565b50506108166001606555565b5050565b60006001600160a01b03831661084357604051633d6601c760e11b815260040160405180910390fd5b3360008181526098602090815260408083206001600160a01b03881680855290835292819020869055518581529192916000805160206137a3833981519152910160405180910390a35060015b92915050565b61089e6125d1565b6108a7816126a7565b1580156108bc57506001600160a01b03811615155b156108f057609d546040516322a2d07b60e21b81526108e7916001600160a01b0316906004016133c7565b60405180910390fd5b609d80546001600160a01b0319166001600160a01b0383169081179091556040514281527f85796821ee1d670b0fdb986f256b5c1a29b9019038831c7f09df2061879cf9e5906020015b60405180910390a250565b600054610100900460ff16158080156109655750600054600160ff909116105b806109865750610974306126a7565b158015610986575060005460ff166001145b6109e95760405162461bcd60e51b815260206004820152602e60248201527f496e697469616c697a61626c653a20636f6e747261637420697320616c72656160448201526d191e481a5b9a5d1a585b1a5e995960921b60648201526084016108e7565b6000805460ff191660011790558015610a0c576000805461ff0019166101001790555b610a15886126a7565b8015610a255750610a25876126a7565b8015610a355750610a35866126a7565b8015610a455750610a45856126a7565b8015610a675750610a55836126a7565b80610a6757506001600160a01b038316155b610aaa5760405162461bcd60e51b815260206004820152601460248201527357726f6e6720696e697420617267756d656e747360601b60448201526064016108e7565b609c80546001600160a01b03199081166001600160a01b038a811691909117909255609b805482168b8416179055609e80548216898416179055609f80548216888416179055609d8054821686841617905560a08054909116918616918217905560978390556040805163313ce56760e01b8152905163313ce567916004818101926020929091908290030181865afa158015610b4b573d6000803e3d6000fd5b505050506040513d601f19601f82011682018060405250810190610b6f91906135e1565b60a160146101000a81548160ff021916908360ff160217905550610b916126b6565b610b996126e5565b610ba1612714565b8015610be7576000805461ff0019169055604051600181527f7f26b83ff96e1f2b6a682f133852f6798a09c465da95921460cefb38474024989060200160405180910390a15b5050505050505050565b6000610bfc30611819565b905090565b6000610c0b612630565b610c15848361139d565b610c315760405162461bcd60e51b81526004016108e790613604565b6001600160a01b0384166000908152609860209081526040808320338452909152902054821115610c9c576001600160a01b03841660009081526098602090815260408083203384529091529081902054905163054365bb60e31b81526108e791849160040161362f565b6001600160a01b038316610cc357604051633a954ecd60e21b815260040160405180910390fd5b306001600160a01b03841603610cec5760405163ed728e5760e01b815260040160405180910390fd5b610cf5846128f7565b6001600160a01b03841660009081526099602052604081208054849290610d1d9084906135ce565b90915550506001600160a01b038416600090815260986020908152604080832033845290915281208054849290610d559084906135ce565b90915550610d649050836128f7565b6001600160a01b03831660009081526099602052604081208054849290610d8c9084906135bb565b9091555050609d546001600160a01b031615801590610daa57508115155b15610e9457609d54604051630d5dbdb360e21b81526000916001600160a01b031690633576f6cc90610de2908690899060040161363d565b6020604051808303816000875af1158015610e01573d6000803e3d6000fd5b505050506040513d601f19601f82011682018060405250810190610e25919061358c565b90508015610e9257609d546040516328ba35d960e11b81526001600160a01b03909116906351746bb290610e5f908490889060040161363d565b600060405180830381600087803b158015610e7957600080fd5b505af1158015610e8d573d6000803e3d6000fd5b505050505b505b826001600160a01b0316846001600160a01b031660008051602061378383398151915284604051610ec791815260200190565b60405180910390a3610f1c610eda61190d565b85604051602401610eeb91906133c7565b60408051601f198184030181529190526020810180516001600160e01b0316636cec346160e01b1790526000612a22565b50610f39610f2861190d565b84604051602401610eeb91906133c7565b5060019050610f486001606555565b9392505050565b609d546040516246613160e11b81526000916001600160a01b031690628cc26290610f7e9033906004016133c7565b602060405180830381865afa158015610f9b573d6000803e3d6000fd5b505050506040513d601f19601f82011682018060405250810190610bfc919061358c565b610fc7612630565b610fd1338261139d565b610fed5760405162461bcd60e51b81526004016108e790613604565b610ff6336128f7565b33600090815260996020526040902054611011908290612ab6565b60a0546040516370a0823160e01b81529192506001600160a01b0316906370a08231906110429030906004016133c7565b602060405180830381865afa15801561105f573d6000803e3d6000fd5b505050506040513d601f19601f82011682018060405250810190611083919061358c565b8111156110a3576040516316d5c93f60e21b815260040160405180910390fd5b306000908152609960205260409020548111156110d357604051630bba337f60e11b815260040160405180910390fd5b306000908152609960205260409020805482900390556110f33382612acc565b6110fb612714565b6111053382612689565b609d546001600160a01b03161561118d57609d54604051630d5dbdb360e21b81526001600160a01b0390911690633576f6cc90611148908490339060040161363d565b6020604051808303816000875af1158015611167573d6000803e3d6000fd5b505050506040513d601f19601f8201168201806040525081019061118b919061358c565b505b336001600160a01b03167fdf273cb619d95419a9cd0ec88123a0538c85064229baa6363788f743fff90deb82426040516111c892919061362f565b60405180910390a26111ec6111db61190d565b33604051602401610eeb91906133c7565b506111f76001606555565b50565b6112026125d1565b609755565b61120f612630565b61121833612b4c565b336000908152609a602052604090205481111561124857604051630dcad43360e11b815260040160405180910390fd5b6112523382612c52565b336000908152609a6020526040812080548392906112719084906135ce565b9091555050306000908152609a6020526040812080548392906112959084906135ce565b909155506112a39050612714565b336001600160a01b03167f24fcca58a997b1b2eff6db8107e860458544c09ddd3693b3b779e1df6c0d6c5d82426040516112de92919061362f565b60405180910390a26111f76001606555565b60006001600160a01b03831661131957604051633d6601c760e11b815260040160405180910390fd5b3360009081526098602090815260408083206001600160a01b03871684529091528120546113489084906135bb565b3360008181526098602090815260408083206001600160a01b038a16808552908352928190208590555184815293945090926000805160206137a3833981519152910160405180910390a35060019392505050565b60006113a883611a34565b9091111592915050565b6000610bfc306114d5565b6000806113c8612c6a565b905060006113d582612d11565b61ffff169050806000036113fc57604051632154bfcf60e21b815260040160405180910390fd5b6114076002836135bb565b915060005b818110156114cf57600061141f84612d4b565b905060008061142f6068876135bb565b9050600061143d82366135ce565b9050803592508265ffffffffffff1660000361146c57604051630336dc9d60e41b815260040160405180910390fd5b87600003611484578265ffffffffffff1697506114ac565b878365ffffffffffff16146114ac5760405163d9d1f46560e01b815260040160405180910390fd5b6114b684886135bb565b96505050505080806114c790613654565b91505061140c565b50505090565b609f546001600160a01b038281166000908152609a602052604080822054905163966da88960e01b81529193929092169163966da8899161151b9190869060040161363d565b602060405180830381865afa158015611538573d6000803e3d6000fd5b505050506040513d601f19601f82011682018060405250810190610890919061358c565b611564612630565b816000036115855760405163078e1d8560e01b815260040160405180910390fd5b6001600160a01b0381166115ca5760405162461bcd60e51b815260206004820152600c60248201526b41646472657373207a65726f60a01b60448201526064016108e7565b306001600160a01b038216036116225760405162461bcd60e51b815260206004820181905260248201527f43616e6e6f74206465706f736974206f6e20626568616c66206f6620706f6f6c60448201526064016108e7565b60a0546040516370a0823160e01b815261169e9184916001600160a01b03909116906370a08231906116589033906004016133c7565b602060405180830381865afa158015611675573d6000803e3d6000fd5b505050506040513d601f19601f82011682018060405250810190611699919061358c565b612ab6565b91506116a9816128f7565b609754156116ee57609754306000908152609960205260409020546116cf9084906135bb565b11156116ee57604051633f27d61760e01b815260040160405180910390fd5b6116f83383612c52565b6117028183612d7f565b30600090815260996020526040812080548492906117219084906135bb565b9091555061172f9050612714565b609d546001600160a01b0316156117a557609d546040516328ba35d960e11b81526001600160a01b03909116906351746bb290611772908590859060040161363d565b600060405180830381600087803b15801561178c57600080fd5b505af11580156117a0573d6000803e3d6000fd5b505050505b806001600160a01b0316336001600160a01b03167fef0ada5ca19bede6a40b575865a6ce451938d26835b7215e6a5e03bb2c43921284426040516117ea92919061362f565b60405180910390a361180e6117fd61190d565b82604051602401610eeb91906133c7565b506108166001606555565b609e546001600160a01b0382811660009081526099602052604080822054905163966da88960e01b81529193929092169163966da8899161151b9190869060040161363d565b6118676125d1565b611870816126a7565b15801561188557506001600160a01b03811615155b156118a557806040516322a2d07b60e21b81526004016108e791906133c7565b609b80546001600160a01b0319166001600160a01b038316908117909155156118d0576118d0612714565b806001600160a01b03167fef1b7e9216e08b283cc613824ccb26ea505227777839a4f3c6810d64594e01824260405161093a91815260200190565b565b60a3546040805163726cd41560e01b815290516000926001600160a01b03169163726cd4159160048083019260209291908290030181865afa158015611957573d6000803e3d6000fd5b505050506040513d601f19601f82011682018060405250810190610bfc919061366d565b6000611985612dff565b9050336001600160a01b038216146119f75760405162461bcd60e51b815260206004820152602f60248201527f50656e64696e674f776e61626c653a2063616c6c6572206973206e6f7420746860448201526e32903832b73234b7339037bbb732b960891b60648201526084016108e7565b611a0081612e12565b6111f76000612e64565b611a126125d1565b60a380546001600160a01b0319166001600160a01b0392909216919091179055565b600080611a4083611e84565b90506000611a4d84611819565b905081811015611a605760009250611a72565b611a6a82826135ce565b949350505050565b5050919050565b6033546001600160a01b031690565b60006001600160a01b038316611ab157604051633d6601c760e11b815260040160405180910390fd5b3360009081526098602090815260408083206001600160a01b038716845290915290205482811015611afa57828160405163054365bb60e31b81526004016108e792919061362f565b6000611b0684836135ce565b3360008181526098602090815260408083206001600160a01b038b16808552908352928190208590555184815293945090926000805160206137a3833981519152910160405180910390a3506001949350505050565b6000611b66612630565b611b70338361139d565b611b8c5760405162461bcd60e51b81526004016108e790613604565b6001600160a01b038316611bb357604051633a954ecd60e21b815260040160405180910390fd5b306001600160a01b03841603611bdc5760405163ed728e5760e01b815260040160405180910390fd5b33611be6816128f7565b6001600160a01b038116600090815260996020526040902080548490039055611c0e846128f7565b6001600160a01b03841660009081526099602052604081208054859290611c369084906135bb565b9091555050609d546001600160a01b031615801590611c5457508215155b15611d3e57609d54604051630d5dbdb360e21b81526000916001600160a01b031690633576f6cc90611c8c908790869060040161363d565b6020604051808303816000875af1158015611cab573d6000803e3d6000fd5b505050506040513d601f19601f82011682018060405250810190611ccf919061358c565b90508015611d3c57609d546040516328ba35d960e11b81526001600160a01b03909116906351746bb290611d09908490899060040161363d565b600060405180830381600087803b158015611d2357600080fd5b505af1158015611d37573d6000803e3d6000fd5b505050505b505b836001600160a01b0316816001600160a01b031660008051602061378383398151915285604051611d7191815260200190565b60405180910390a3611d846111db61190d565b50611d90610eda61190d565b5060019150506108906001606555565b60a26020528160005260406000208181548110611dbc57600080fd5b600091825260209091206003909102018054600182015460029092015490935090915083565b6111f7813361155c565b611df4613301565b6040518060a00160405280611e07610bf1565b8152602001611e14611e43565b8152602001611e21612537565b8152602001611e2e6113b2565b8152602001670cd64299613c80009052919050565b609b546000906001600160a01b0316637cd08331611e5f6113b2565b611e67610bf1565b6040518363ffffffff1660e01b8152600401610f7e92919061362f565b600080805b6001600160a01b038416600090815260a26020526040902054811015611f4a576001600160a01b038416600090815260a260205260409020805442919083908110611ed657611ed661368a565b9060005260206000209060030201600201541115611f38576001600160a01b038416600090815260a260205260409020805482908110611f1857611f1861368a565b90600052602060002090600302016001015482611f3591906135bb565b91505b80611f4281613654565b915050611e89565b5092915050565b6000805b6001600160a01b038316600090815260a2602052604090205481101561206b576001600160a01b038316600090815260a260205260409020805442919083908110611fa257611fa261368a565b9060005260206000209060030201600201541115612059576001600160a01b038316600090815260a26020526040902080546305a39a80919083908110611feb57611feb61368a565b600091825260208083206003909202909101546001600160a01b038716835260a290915260409091208054849081106120265761202661368a565b90600052602060002090600302016001015461204291906136a0565b61204c91906136b7565b61205690836135bb565b91505b8061206381613654565b915050611f55565b50919050565b609c546001600160a01b031661209a57604051631c038dab60e21b815260040160405180910390fd5b609c5460405163039ff21960e21b81526001600160a01b0390911690630e7fc864906120ca9033906004016133c7565b602060405180830381865afa1580156120e7573d6000803e3d6000fd5b505050506040513d601f19601f8201168201806040525081019061210b91906136d9565b61212857604051637582fa9b60e11b815260040160405180910390fd5b612130610bf1565b600003612150576040516316d5c93f60e21b815260040160405180910390fd5b612158612630565b60a0546040516370a0823160e01b81526001600160a01b03909116906370a08231906121889030906004016133c7565b602060405180830381865afa1580156121a5573d6000803e3d6000fd5b505050506040513d601f19601f820116820180604052508101906121c9919061358c565b8111156121e9576040516316d5c93f60e21b815260040160405180910390fd5b6121f233612b4c565b336000908152609a6020526040812080548392906122119084906135bb565b9091555050306000908152609a6020526040812080548392906122359084906135bb565b9091555061224590503382612689565b61224d612714565b336001600160a01b03167fd6b37be10b58108f696d9ed067fedad0bff7cb417ef4c28d2f8a25d6d83c98d5824260405161228892919061362f565b60405180910390a261229a6001606555565b670cd64299613c80006122ab610bf1565b6122b36113b2565b6122c590670de0b6b3a76400006136a0565b6122cf91906136b7565b11156111f7576040516372b9ce3f60e11b815260040160405180910390fd5b816122f833611a34565b10156123455760405162461bcd60e51b815260206004820152601c60248201527b496e73756666696369656e742062616c616e636520746f206c6f636b60201b60448201526064016108e7565b6305a39a808111156123a35760405162461bcd60e51b815260206004820152602160248201527f43616e6e6f74206c6f636b20666f72206d6f7265207468616e203320796561726044820152607360f81b60648201526084016108e7565b33600090815260a2602090815260409182902082516060810184528481529182018590529181016123d484426135bb565b905281546001818101845560009384526020938490208351600390930201918255928201519281019290925560400151600290910155337fada80de846c2fa6289ae8db8bd0145346851ca76d49946df18240ebbf97200a7838361243881426135bb565b6040805193845260208401929092529082015260600160405180910390a26124616111db61190d565b505050565b6000610bfc612dff565b6124786125d1565b6001600160a01b0381166124e45760405162461bcd60e51b815260206004820152602d60248201527f50656e64696e674f776e61626c653a206e6577206f776e65722069732074686560448201526c207a65726f206164647265737360981b60648201526084016108e7565b6124ed81612e64565b806001600160a01b03166124ff611a79565b6001600160a01b03167fed8889f560326eb138920d842192f0eb3dd22b4f139c87a2c57538e05bae127860405160405180910390a350565b609b546000906001600160a01b031663df841eec611e5f6113b2565b61255b6125d1565b612564816126a7565b61258357806040516322a2d07b60e21b81526004016108e791906133c7565b609c80546001600160a01b0319166001600160a01b0383169081179091556040514281527f04dce7d074f7e287a2e6e3516c802271d58d5c14e0dede83a49719eb6b9204699060200161093a565b336125da611a79565b6001600160a01b03161461190b5760405162461bcd60e51b815260206004820181905260248201527f4f776e61626c653a2063616c6c6572206973206e6f7420746865206f776e657260448201526064016108e7565b6002606554036126825760405162461bcd60e51b815260206004820152601f60248201527f5265656e7472616e637947756172643a207265656e7472616e742063616c6c0060448201526064016108e7565b6002606555565b60a054610816906001600160a01b03168383612e76565b6001606555565b6001600160a01b03163b151590565b600054610100900460ff166126dd5760405162461bcd60e51b81526004016108e7906136fb565b61190b612fa0565b600054610100900460ff1661270c5760405162461bcd60e51b81526004016108e7906136fb565b61190b612fd0565b600061271e6113b2565b9050600061272a610bf1565b609b549091506001600160a01b03166127565760405163fd4851e960e01b815260040160405180910390fd5b609e54609b54604051637cd0833160e01b81526001600160a01b03928316926334fcf437921690637cd0833190612793908790879060040161362f565b602060405180830381865afa1580156127b0573d6000803e3d6000fd5b505050506040513d601f19601f820116820180604052508101906127d4919061358c565b6040518263ffffffff1660e01b81526004016127f291815260200190565b600060405180830381600087803b15801561280c57600080fd5b505af1158015612820573d6000803e3d6000fd5b5050609f54609b546040516337e107bb60e21b81526001600160a01b0392831694506334fcf437935091169063df841eec90612862908790879060040161362f565b602060405180830381865afa15801561287f573d6000803e3d6000fd5b505050506040513d601f19601f820116820180604052508101906128a3919061358c565b6040518263ffffffff1660e01b81526004016128c191815260200190565b600060405180830381600087803b1580156128db57600080fd5b505af11580156128ef573d6000803e3d6000fd5b505050505050565b6001600160a01b03811660009081526099602052604081205461291983611819565b61292391906135ce565b905061292f8282612d7f565b61293830611819565b306000908152609960205260409081902091909155516001600160a01b038316907f9bbd517758fbae61197f1c1c04c8614064e89512dbaf4350dcdf76fcaa5e216190612988908490429061362f565b60405180910390a2609e54604051637681d99b60e11b81526001600160a01b039091169063ed03b336906129c09085906004016133c7565b600060405180830381600087803b1580156129da57600080fd5b505af11580156129ee573d6000803e3d6000fd5b5050609e54604051637681d99b60e11b81526001600160a01b03909116925063ed03b33691506128c19030906004016133c7565b60606000612a2f84612ff7565b9050600080866001600160a01b031685612a4a576000612a4c565b345b84604051612a5a9190613746565b60006040518083038185875af1925050503d8060008114612a97576040519150601f19603f3d011682016040523d82523d6000602084013e612a9c565b606091505b5091509150612aab8282613086565b979650505050505050565b6000818310612ac55781610f48565b5090919050565b6001600160a01b038216600090815260996020526040902054811115612b0557604051630bba337f60e11b815260040160405180910390fd5b6001600160a01b0382166000818152609960209081526040808320805486900390555184815291929160008051602061378383398151915291015b60405180910390a35050565b612b55816114d5565b6001600160a01b0382166000908152609a6020526040902055612b77306114d5565b306000908152609a60205260409081902091909155609f549051637681d99b60e11b81526001600160a01b039091169063ed03b33690612bbb9084906004016133c7565b600060405180830381600087803b158015612bd557600080fd5b505af1158015612be9573d6000803e3d6000fd5b5050609f54604051637681d99b60e11b81526001600160a01b03909116925063ed03b3369150612c1d9030906004016133c7565b600060405180830381600087803b158015612c3757600080fd5b505af1158015612c4b573d6000803e3d6000fd5b5050505050565b60a054610816906001600160a01b03168330846130fd565b60006602ed57011e0000601f1936013581161480612c9b576040516373bb264f60e11b815260040160405180910390fd5b60003660291115612cbf57604051632bcb7bc560e11b815260040160405180910390fd5b5060281936013560006009612cda600362ffffff85166135bb565b612ce491906135bb565b905036612cf26002836135bb565b1115610f485760405163c30a7bd760e01b815260040160405180910390fd5b600080612d1f6020846135bb565b905036811115612d4257604051632bcb7bc560e11b815260040160405180910390fd5b36033592915050565b6000806000612d5984613233565b9092509050604e612d6b8260206135bb565b612d7590846136a0565b611a6a91906135bb565b6001600160a01b038216612da6576040516346dbfb6d60e11b815260040160405180910390fd5b6001600160a01b03821660009081526099602052604081208054839290612dce9084906135bb565b90915550506040518181526001600160a01b0383169060009060008051602061378383398151915290602001612b40565b6000805160206137638339815191525490565b603380546001600160a01b038381166001600160a01b0319831681179093556040519116919082907f8be0079c531659141344cd1fd0a4f28419497f9722a3daafe3b4186f6b6457e090600090a35050565b60008051602061376383398151915255565b604080516001600160a01b038481166024830152604480830185905283518084039091018152606490920183526020820180516001600160e01b031663a9059cbb60e01b1790529151600092839290871691612ed29190613746565b6000604051808303816000865af19150503d8060008114612f0f576040519150601f19603f3d011682016040523d82523d6000602084013e612f14565b606091505b5091509150818015612f3e575080511580612f3e575080806020019051810190612f3e91906136d9565b612c4b5760405162461bcd60e51b815260206004820152602d60248201527f5472616e7366657248656c7065723a3a736166655472616e736665723a20747260448201526c185b9cd9995c8819985a5b1959609a1b60648201526084016108e7565b600054610100900460ff16612fc75760405162461bcd60e51b81526004016108e7906136fb565b61190b33612e12565b600054610100900460ff166126a05760405162461bcd60e51b81526004016108e7906136fb565b8051606090600061300661328a565b9050600061301482846135bb565b90503682111561303757604051632bcb7bc560e11b815260040160405180910390fd5b6060604051905081815285602001848101826020015b8183101561306557825181526020928301920161304d565b50505082833603856020018301379190920181016020016040529392505050565b60608261206b5781516000036130af57604051632b3ff13d60e11b815260040160405180910390fd5b602082015162461bcd60e51b1480156130e2576040516301efd04f60e31b815260448401906108e790829060040161336f565b8260405163fd36fde360e01b81526004016108e7919061336f565b604080516001600160a01b0385811660248301528481166044830152606480830185905283518084039091018152608490920183526020820180516001600160e01b03166323b872dd60e01b17905291516000928392908816916131619190613746565b6000604051808303816000865af19150503d806000811461319e576040519150601f19603f3d011682016040523d82523d6000602084013e6131a3565b606091505b50915091508180156131cd5750805115806131cd5750808060200190518101906131cd91906136d9565b6128ef5760405162461bcd60e51b815260206004820152603160248201527f5472616e7366657248656c7065723a3a7472616e7366657246726f6d3a207472604482015270185b9cd9995c919c9bdb4819985a5b1959607a1b60648201526084016108e7565b6000808080806132446041876135bb565b9050600061325d6132566020846135bb565b36906132f5565b80359450905061326e8160036132f5565b62ffffff9490941697933563ffffffff16965092945050505050565b600080613295612c6a565b905060006132a282612d11565b61ffff1690506132b36002836135bb565b915060005b818110156132ed5760006132cb84612d4b565b90506132d781856135bb565b93505080806132e590613654565b9150506132b8565b509092915050565b6000610f4882846135ce565b6040518060a001604052806005906020820280368337509192915050565b60005b8381101561333a578181015183820152602001613322565b50506000910152565b6000815180845261335b81602086016020860161331f565b601f01601f19169290920160200192915050565b602081526000610f486020830184613343565b6001600160a01b03811681146111f757600080fd5b600080604083850312156133aa57600080fd5b8235915060208301356133bc81613382565b809150509250929050565b6001600160a01b0391909116815260200190565b6000602082840312156133ed57600080fd5b8135610f4881613382565b6000806040838503121561340b57600080fd5b823561341681613382565b946020939093013593505050565b600080600080600080600060e0888a03121561343f57600080fd5b873561344a81613382565b9650602088013561345a81613382565b9550604088013561346a81613382565b9450606088013561347a81613382565b9350608088013561348a81613382565b925060a088013561349a81613382565b8092505060c0880135905092959891949750929550565b6000806000606084860312156134c657600080fd5b83356134d181613382565b925060208401356134e181613382565b929592945050506040919091013590565b60006020828403121561350457600080fd5b5035919050565b60a08101818360005b6005811015613533578151835260209283019290910190600101613514565b50505092915050565b6000806040838503121561354f57600080fd5b823561355a81613382565b915060208301356133bc81613382565b6000806040838503121561357d57600080fd5b50508035926020909101359150565b60006020828403121561359e57600080fd5b5051919050565b634e487b7160e01b600052601160045260246000fd5b80820180821115610890576108906135a5565b81810381811115610890576108906135a5565b6000602082840312156135f357600080fd5b815160ff81168114610f4857600080fd5b60208082526011908201527010985b185b98d9481a5cc81b1bd8dad959607a1b604082015260600190565b918252602082015260400190565b9182526001600160a01b0316602082015260400190565b600060018201613666576136666135a5565b5060010190565b60006020828403121561367f57600080fd5b8151610f4881613382565b634e487b7160e01b600052603260045260246000fd5b8082028115828204841417610890576108906135a5565b6000826136d457634e487b7160e01b600052601260045260246000fd5b500490565b6000602082840312156136eb57600080fd5b81518015158114610f4857600080fd5b6020808252602b908201527f496e697469616c697a61626c653a20636f6e7472616374206973206e6f74206960408201526a6e697469616c697a696e6760a81b606082015260800190565b6000825161375881846020870161331f565b919091019291505056fe63a0d9df49fae3f1b9d24f8dc819a568c429a1b11d0d8e9de63df53a0194acb2ddf252ad1be2c89b69c2b068fc378daa952ba7f163c4a11628f55a4df523b3ef8c5be1e5ebec7d5bd14f71427d1e84f3dd0314c0f7b2291e5b200ac8c7c3b925a2646970667358221220cc871f9269750e73a63e6ec0df8f0be810cf3613110ff99ebccff519f7e7b2c964736f6c63430008110033",
  "devdoc": {
    "details": "Contract allowing user to deposit to and borrow WETH.e from a dedicated user account",
    "errors": {
      "InsufficientAllowance(uint256,uint256)": [
        {
          "params": {
            "allowance": "current allowance",
            "requested": "requested transfer amount"
          }
        }
      ],
      "TransferAmountExceedsBalance(uint256,uint256)": [
        {
          "params": {
            "amount": "transfer amount",
            "balance": "available balance"
          }
        }
      ]
    },
    "kind": "dev",
    "methods": {
      "allowance(address,address)": {
        "details": "Returns the remaining number of tokens that `spender` will be allowed to spend on behalf of `owner` through {transferFrom}. This is zero by default. This value changes when {approve} or {transferFrom} are called."
      },
      "approve(address,uint256)": {
        "details": "Sets `amount` as the allowance of `spender` over the caller's tokens. Returns a boolean value indicating whether the operation succeeded. IMPORTANT: Beware that changing an allowance with this method brings the risk that someone may use both the old and the new allowance by unfortunate transaction ordering. One possible solution to mitigate this race condition is to first reduce the spender's allowance to 0 and set the desired value afterwards: https://github.com/ethereum/EIPs/issues/20#issuecomment-263524729 Emits an {Approval} event."
      },
      "balanceOf(address)": {
        "details": "_user the address of queried depositor*"
      },
      "borrow(uint256)": {
        "details": "_amount the amount to be borrowedIt is only meant to be used by a SmartLoanDiamondProxy*"
      },
      "getFullyVestedLockedBalance(address)": {
        "details": "The fully vested locked balance is used in the governance mechanism of the system, specifically for the allocation of vPrime tokens. The method calculates the fully vested locked balance by iterating over all the locks of the account and summing up the amounts of those locks that are still active (i.e., their `unlockTime` is greater than the current block timestamp). However, the amount of each lock is scaled by the ratio of its `lockTime` to the `MAX_LOCK_TIME` (3 years). This means that the longer the lock time, the larger the contribution of the lock to the fully vested locked balance. The fully vested locked balance is used to calculate the maximum vPrime allocation for a user. Users accrue vPrime over a period of 3 years, from 0 to the maximum vPrime based on their 10-1 pairs of pool-deposit and sPrime. Locking pool deposits and sPrime immediately vests the vPrime.",
        "params": {
          "account": "The address of the account for which to calculate the fully vested locked balance."
        },
        "returns": {
          "fullyVestedBalance": "The fully vested locked balance of the provided account."
        }
      },
      "owner()": {
        "details": "Returns the address of the current owner."
      },
      "renounceOwnership()": {
        "details": "Leaves the contract without owner. It will not be possible to call `onlyOwner` functions. Can only be called by the current owner. NOTE: Renouncing ownership will leave the contract without an owner, thereby disabling any functionality that is only available to the owner."
      },
      "repay(uint256)": {
        "details": "It is only meant to be used by a SmartLoanDiamondProxy*"
      },
      "setBorrowersRegistry(address)": {
        "details": "borrowersRegistry the address of borrowers registry*"
      },
      "setPoolRewarder(address)": {
        "details": "_poolRewarder the address of PoolRewarder*"
      },
      "setRatesCalculator(address)": {
        "details": "ratesCalculator the address of rates calculator*"
      },
      "setTotalSupplyCap(uint256)": {
        "details": "_newTotalSupplyCap new deposit cap*"
      },
      "totalSupply()": {
        "details": "Returns the amount of tokens in existence."
      },
      "withdraw(uint256)": {
        "details": "_amount the amount to be withdrawn*"
      }
    },
    "title": "EthPool",
    "version": 1
  },
  "userdoc": {
    "kind": "user",
    "methods": {
      "balanceOf(address)": {
        "notice": "Returns the current deposited amount for the given user The value includes the interest rates earned at the current moment"
      },
      "borrow(uint256)": {
        "notice": "Borrows the specified amount It updates user borrowed balance, total borrowed amount and rates"
      },
      "deposit(uint256)": {
        "notice": "Deposits the amount It updates user deposited balance, total deposited and rates*"
      },
      "depositOnBehalf(uint256,address)": {
        "notice": "Deposits the amount on behalf of `_of` user. It updates `_of` user deposited balance, total deposited and rates*"
      },
      "getBorrowingRate()": {
        "notice": "Returns the current interest rate for borrowings*"
      },
      "getDepositRate()": {
        "notice": "Returns the current interest rate for deposits*"
      },
      "getFullPoolStatus()": {
        "notice": "Returns full pool status"
      },
      "getFullyVestedLockedBalance(address)": {
        "notice": "Calculates and returns the fully vested locked balance for a given account."
      },
      "recoverSurplus(uint256,address)": {
        "notice": "Recovers the surplus funds resultant from difference between deposit and borrowing rates*"
      },
      "repay(uint256)": {
        "notice": "Repays the amount It updates user borrowed balance, total borrowed amount and rates"
      },
      "setBorrowersRegistry(address)": {
        "notice": "Sets the new borrowers registry contract. The borrowers registry decides if an account can borrow funds. Only the owner of the Contract can execute this function."
      },
      "setPoolRewarder(address)": {
        "notice": "Sets the new Pool Rewarder. The IPoolRewarder that distributes additional token rewards to people having a stake in this pool proportionally to their stake and time of participance. Only the owner of the Contract can execute this function."
      },
      "setRatesCalculator(address)": {
        "notice": "Sets the new rate calculator. The calculator is an external contract that contains the logic for calculating deposit and borrowing rates. Only the owner of the Contract can execute this function."
      },
      "setTotalSupplyCap(uint256)": {
        "notice": "Sets new totalSupplyCap limiting how much in total can be deposited to the Pool. Only the owner of the Contract can execute this function."
      },
      "withdraw(uint256)": {
        "notice": "Withdraws selected amount from the user deposits"
      }
    },
    "version": 1
  },
  "storageLayout": {
    "storage": [
      {
        "astId": 138,
        "contract": "contracts/deployment/avalanche/EthPool.sol:EthPool",
        "label": "_initialized",
        "offset": 0,
        "slot": "0",
        "type": "t_uint8"
      },
      {
        "astId": 141,
        "contract": "contracts/deployment/avalanche/EthPool.sol:EthPool",
        "label": "_initializing",
        "offset": 1,
        "slot": "0",
        "type": "t_bool"
      },
      {
        "astId": 755,
        "contract": "contracts/deployment/avalanche/EthPool.sol:EthPool",
        "label": "__gap",
        "offset": 0,
        "slot": "1",
        "type": "t_array(t_uint256)50_storage"
      },
      {
        "astId": 10,
        "contract": "contracts/deployment/avalanche/EthPool.sol:EthPool",
        "label": "_owner",
        "offset": 0,
        "slot": "51",
        "type": "t_address"
      },
      {
        "astId": 130,
        "contract": "contracts/deployment/avalanche/EthPool.sol:EthPool",
        "label": "__gap",
        "offset": 0,
        "slot": "52",
        "type": "t_array(t_uint256)49_storage"
      },
      {
        "astId": 314,
        "contract": "contracts/deployment/avalanche/EthPool.sol:EthPool",
        "label": "_status",
        "offset": 0,
        "slot": "101",
        "type": "t_uint256"
      },
      {
        "astId": 383,
        "contract": "contracts/deployment/avalanche/EthPool.sol:EthPool",
        "label": "__gap",
        "offset": 0,
        "slot": "102",
        "type": "t_array(t_uint256)49_storage"
      },
      {
        "astId": 2878,
        "contract": "contracts/deployment/avalanche/EthPool.sol:EthPool",
        "label": "totalSupplyCap",
        "offset": 0,
        "slot": "151",
        "type": "t_uint256"
      },
      {
        "astId": 2884,
        "contract": "contracts/deployment/avalanche/EthPool.sol:EthPool",
        "label": "_allowed",
        "offset": 0,
        "slot": "152",
        "type": "t_mapping(t_address,t_mapping(t_address,t_uint256))"
      },
      {
        "astId": 2888,
        "contract": "contracts/deployment/avalanche/EthPool.sol:EthPool",
        "label": "_deposited",
        "offset": 0,
        "slot": "153",
        "type": "t_mapping(t_address,t_uint256)"
      },
      {
        "astId": 2892,
        "contract": "contracts/deployment/avalanche/EthPool.sol:EthPool",
        "label": "borrowed",
        "offset": 0,
        "slot": "154",
        "type": "t_mapping(t_address,t_uint256)"
      },
      {
        "astId": 2895,
        "contract": "contracts/deployment/avalanche/EthPool.sol:EthPool",
        "label": "ratesCalculator",
        "offset": 0,
        "slot": "155",
        "type": "t_contract(IRatesCalculator)6363"
      },
      {
        "astId": 2898,
        "contract": "contracts/deployment/avalanche/EthPool.sol:EthPool",
        "label": "borrowersRegistry",
        "offset": 0,
        "slot": "156",
        "type": "t_contract(IBorrowersRegistry)6260"
      },
      {
        "astId": 2901,
        "contract": "contracts/deployment/avalanche/EthPool.sol:EthPool",
        "label": "poolRewarder",
        "offset": 0,
        "slot": "157",
        "type": "t_contract(IPoolRewarder)6341"
      },
      {
        "astId": 2904,
        "contract": "contracts/deployment/avalanche/EthPool.sol:EthPool",
        "label": "depositIndex",
        "offset": 0,
        "slot": "158",
        "type": "t_contract(IIndex)6287"
      },
      {
        "astId": 2907,
        "contract": "contracts/deployment/avalanche/EthPool.sol:EthPool",
        "label": "borrowIndex",
        "offset": 0,
        "slot": "159",
        "type": "t_contract(IIndex)6287"
      },
      {
        "astId": 2909,
        "contract": "contracts/deployment/avalanche/EthPool.sol:EthPool",
        "label": "tokenAddress",
        "offset": 0,
        "slot": "160",
        "type": "t_address_payable"
      },
      {
        "astId": 2912,
        "contract": "contracts/deployment/avalanche/EthPool.sol:EthPool",
        "label": "vestingDistributor",
        "offset": 0,
        "slot": "161",
        "type": "t_contract(VestingDistributor)6025"
      },
      {
        "astId": 2914,
        "contract": "contracts/deployment/avalanche/EthPool.sol:EthPool",
        "label": "_decimals",
        "offset": 20,
        "slot": "161",
        "type": "t_uint8"
      },
      {
        "astId": 2927,
        "contract": "contracts/deployment/avalanche/EthPool.sol:EthPool",
        "label": "locks",
        "offset": 0,
        "slot": "162",
        "type": "t_mapping(t_address,t_array(t_struct(LockDetails)2921_storage)dyn_storage)"
      },
      {
        "astId": 2935,
        "contract": "contracts/deployment/avalanche/EthPool.sol:EthPool",
        "label": "tokenManager",
        "offset": 0,
        "slot": "163",
        "type": "t_contract(ITokenManager)6587"
      }
    ],
    "types": {
      "t_address": {
        "encoding": "inplace",
        "label": "address",
        "numberOfBytes": "20"
      },
      "t_address_payable": {
        "encoding": "inplace",
        "label": "address payable",
        "numberOfBytes": "20"
      },
      "t_array(t_struct(LockDetails)2921_storage)dyn_storage": {
        "base": "t_struct(LockDetails)2921_storage",
        "encoding": "dynamic_array",
        "label": "struct Pool.LockDetails[]",
        "numberOfBytes": "32"
      },
      "t_array(t_uint256)49_storage": {
        "base": "t_uint256",
        "encoding": "inplace",
        "label": "uint256[49]",
        "numberOfBytes": "1568"
      },
      "t_array(t_uint256)50_storage": {
        "base": "t_uint256",
        "encoding": "inplace",
        "label": "uint256[50]",
        "numberOfBytes": "1600"
      },
      "t_bool": {
        "encoding": "inplace",
        "label": "bool",
        "numberOfBytes": "1"
      },
      "t_contract(IBorrowersRegistry)6260": {
        "encoding": "inplace",
        "label": "contract IBorrowersRegistry",
        "numberOfBytes": "20"
      },
      "t_contract(IIndex)6287": {
        "encoding": "inplace",
        "label": "contract IIndex",
        "numberOfBytes": "20"
      },
      "t_contract(IPoolRewarder)6341": {
        "encoding": "inplace",
        "label": "contract IPoolRewarder",
        "numberOfBytes": "20"
      },
      "t_contract(IRatesCalculator)6363": {
        "encoding": "inplace",
        "label": "contract IRatesCalculator",
        "numberOfBytes": "20"
      },
      "t_contract(ITokenManager)6587": {
        "encoding": "inplace",
        "label": "contract ITokenManager",
        "numberOfBytes": "20"
      },
      "t_contract(VestingDistributor)6025": {
        "encoding": "inplace",
        "label": "contract VestingDistributor",
        "numberOfBytes": "20"
      },
      "t_mapping(t_address,t_array(t_struct(LockDetails)2921_storage)dyn_storage)": {
        "encoding": "mapping",
        "key": "t_address",
        "label": "mapping(address => struct Pool.LockDetails[])",
        "numberOfBytes": "32",
        "value": "t_array(t_struct(LockDetails)2921_storage)dyn_storage"
      },
      "t_mapping(t_address,t_mapping(t_address,t_uint256))": {
        "encoding": "mapping",
        "key": "t_address",
        "label": "mapping(address => mapping(address => uint256))",
        "numberOfBytes": "32",
        "value": "t_mapping(t_address,t_uint256)"
      },
      "t_mapping(t_address,t_uint256)": {
        "encoding": "mapping",
        "key": "t_address",
        "label": "mapping(address => uint256)",
        "numberOfBytes": "32",
        "value": "t_uint256"
      },
      "t_struct(LockDetails)2921_storage": {
        "encoding": "inplace",
        "label": "struct Pool.LockDetails",
        "members": [
          {
            "astId": 2916,
            "contract": "contracts/deployment/avalanche/EthPool.sol:EthPool",
            "label": "lockTime",
            "offset": 0,
            "slot": "0",
            "type": "t_uint256"
          },
          {
            "astId": 2918,
            "contract": "contracts/deployment/avalanche/EthPool.sol:EthPool",
            "label": "amount",
            "offset": 0,
            "slot": "1",
            "type": "t_uint256"
          },
          {
            "astId": 2920,
            "contract": "contracts/deployment/avalanche/EthPool.sol:EthPool",
            "label": "unlockTime",
            "offset": 0,
            "slot": "2",
            "type": "t_uint256"
          }
        ],
        "numberOfBytes": "96"
      },
      "t_uint256": {
        "encoding": "inplace",
        "label": "uint256",
        "numberOfBytes": "32"
      },
      "t_uint8": {
        "encoding": "inplace",
        "label": "uint8",
        "numberOfBytes": "1"
      }
    }
  }
}