{
  "address": "0x677ED839e596b58FBd511DeA0398cB60259bc12d",
  "abi": [
    {
      "anonymous": false,
      "inputs": [
        {
          "indexed": true,
          "internalType": "address",
          "name": "accountAddress",
          "type": "address"
        },
        {
          "indexed": true,
          "internalType": "address",
          "name": "market",
          "type": "address"
        },
        {
          "indexed": false,
          "internalType": "uint256",
          "name": "executionFee",
          "type": "uint256"
        }
      ],
      "name": "DepositCancelled",
      "type": "event"
    },
    {
      "anonymous": false,
      "inputs": [
        {
          "indexed": true,
          "internalType": "address",
          "name": "accountAddress",
          "type": "address"
        },
        {
          "indexed": true,
          "internalType": "address",
          "name": "market",
          "type": "address"
        },
        {
          "indexed": false,
          "internalType": "uint256",
          "name": "gmAmount",
          "type": "uint256"
        },
        {
          "indexed": false,
          "internalType": "uint256",
          "name": "executionFee",
          "type": "uint256"
        }
      ],
      "name": "DepositExecuted",
      "type": "event"
    },
    {
      "anonymous": false,
      "inputs": [
        {
          "indexed": true,
          "internalType": "address",
          "name": "accountAddress",
          "type": "address"
        },
        {
          "indexed": true,
          "internalType": "address",
          "name": "market",
          "type": "address"
        },
        {
          "indexed": false,
          "internalType": "uint256",
          "name": "executionFee",
          "type": "uint256"
        }
      ],
      "name": "WithdrawalCancelled",
      "type": "event"
    },
    {
      "anonymous": false,
      "inputs": [
        {
          "indexed": true,
          "internalType": "address",
          "name": "accountAddress",
          "type": "address"
        },
        {
          "indexed": true,
          "internalType": "address",
          "name": "market",
          "type": "address"
        },
        {
          "indexed": false,
          "internalType": "uint256",
          "name": "longTokenAmount",
          "type": "uint256"
        },
        {
          "indexed": false,
          "internalType": "uint256",
          "name": "shortTokenAmount",
          "type": "uint256"
        },
        {
          "indexed": false,
          "internalType": "uint256",
          "name": "executionFee",
          "type": "uint256"
        }
      ],
      "name": "WithdrawalExecuted",
      "type": "event"
    },
    {
      "inputs": [],
      "name": "CONTROLLER",
      "outputs": [
        {
          "internalType": "bytes32",
          "name": "",
          "type": "bytes32"
        }
      ],
      "stateMutability": "view",
      "type": "function"
    },
    {
      "inputs": [
        {
          "internalType": "bytes32",
          "name": "key",
          "type": "bytes32"
        },
        {
          "components": [
            {
              "components": [
                {
                  "internalType": "address",
                  "name": "account",
                  "type": "address"
                },
                {
                  "internalType": "address",
                  "name": "receiver",
                  "type": "address"
                },
                {
                  "internalType": "address",
                  "name": "callbackContract",
                  "type": "address"
                },
                {
                  "internalType": "address",
                  "name": "uiFeeReceiver",
                  "type": "address"
                },
                {
                  "internalType": "address",
                  "name": "market",
                  "type": "address"
                },
                {
                  "internalType": "address",
                  "name": "initialLongToken",
                  "type": "address"
                },
                {
                  "internalType": "address",
                  "name": "initialShortToken",
                  "type": "address"
                },
                {
                  "internalType": "address[]",
                  "name": "longTokenSwapPath",
                  "type": "address[]"
                },
                {
                  "internalType": "address[]",
                  "name": "shortTokenSwapPath",
                  "type": "address[]"
                }
              ],
              "internalType": "struct Deposit.Addresses",
              "name": "addresses",
              "type": "tuple"
            },
            {
              "components": [
                {
                  "internalType": "uint256",
                  "name": "initialLongTokenAmount",
                  "type": "uint256"
                },
                {
                  "internalType": "uint256",
                  "name": "initialShortTokenAmount",
                  "type": "uint256"
                },
                {
                  "internalType": "uint256",
                  "name": "minMarketTokens",
                  "type": "uint256"
                },
                {
                  "internalType": "uint256",
                  "name": "updatedAtBlock",
                  "type": "uint256"
                },
                {
                  "internalType": "uint256",
                  "name": "executionFee",
                  "type": "uint256"
                },
                {
                  "internalType": "uint256",
                  "name": "callbackGasLimit",
                  "type": "uint256"
                }
              ],
              "internalType": "struct Deposit.Numbers",
              "name": "numbers",
              "type": "tuple"
            },
            {
              "components": [
                {
                  "internalType": "bool",
                  "name": "shouldUnwrapNativeToken",
                  "type": "bool"
                }
              ],
              "internalType": "struct Deposit.Flags",
              "name": "flags",
              "type": "tuple"
            }
          ],
          "internalType": "struct Deposit.Props",
          "name": "deposit",
          "type": "tuple"
        },
        {
          "components": [
            {
              "components": [
                {
                  "components": [
                    {
                      "internalType": "string",
                      "name": "key",
                      "type": "string"
                    },
                    {
                      "internalType": "address",
                      "name": "value",
                      "type": "address"
                    }
                  ],
                  "internalType": "struct EventUtils.AddressKeyValue[]",
                  "name": "items",
                  "type": "tuple[]"
                },
                {
                  "components": [
                    {
                      "internalType": "string",
                      "name": "key",
                      "type": "string"
                    },
                    {
                      "internalType": "address[]",
                      "name": "value",
                      "type": "address[]"
                    }
                  ],
                  "internalType": "struct EventUtils.AddressArrayKeyValue[]",
                  "name": "arrayItems",
                  "type": "tuple[]"
                }
              ],
              "internalType": "struct EventUtils.AddressItems",
              "name": "addressItems",
              "type": "tuple"
            },
            {
              "components": [
                {
                  "components": [
                    {
                      "internalType": "string",
                      "name": "key",
                      "type": "string"
                    },
                    {
                      "internalType": "uint256",
                      "name": "value",
                      "type": "uint256"
                    }
                  ],
                  "internalType": "struct EventUtils.UintKeyValue[]",
                  "name": "items",
                  "type": "tuple[]"
                },
                {
                  "components": [
                    {
                      "internalType": "string",
                      "name": "key",
                      "type": "string"
                    },
                    {
                      "internalType": "uint256[]",
                      "name": "value",
                      "type": "uint256[]"
                    }
                  ],
                  "internalType": "struct EventUtils.UintArrayKeyValue[]",
                  "name": "arrayItems",
                  "type": "tuple[]"
                }
              ],
              "internalType": "struct EventUtils.UintItems",
              "name": "uintItems",
              "type": "tuple"
            },
            {
              "components": [
                {
                  "components": [
                    {
                      "internalType": "string",
                      "name": "key",
                      "type": "string"
                    },
                    {
                      "internalType": "int256",
                      "name": "value",
                      "type": "int256"
                    }
                  ],
                  "internalType": "struct EventUtils.IntKeyValue[]",
                  "name": "items",
                  "type": "tuple[]"
                },
                {
                  "components": [
                    {
                      "internalType": "string",
                      "name": "key",
                      "type": "string"
                    },
                    {
                      "internalType": "int256[]",
                      "name": "value",
                      "type": "int256[]"
                    }
                  ],
                  "internalType": "struct EventUtils.IntArrayKeyValue[]",
                  "name": "arrayItems",
                  "type": "tuple[]"
                }
              ],
              "internalType": "struct EventUtils.IntItems",
              "name": "intItems",
              "type": "tuple"
            },
            {
              "components": [
                {
                  "components": [
                    {
                      "internalType": "string",
                      "name": "key",
                      "type": "string"
                    },
                    {
                      "internalType": "bool",
                      "name": "value",
                      "type": "bool"
                    }
                  ],
                  "internalType": "struct EventUtils.BoolKeyValue[]",
                  "name": "items",
                  "type": "tuple[]"
                },
                {
                  "components": [
                    {
                      "internalType": "string",
                      "name": "key",
                      "type": "string"
                    },
                    {
                      "internalType": "bool[]",
                      "name": "value",
                      "type": "bool[]"
                    }
                  ],
                  "internalType": "struct EventUtils.BoolArrayKeyValue[]",
                  "name": "arrayItems",
                  "type": "tuple[]"
                }
              ],
              "internalType": "struct EventUtils.BoolItems",
              "name": "boolItems",
              "type": "tuple"
            },
            {
              "components": [
                {
                  "components": [
                    {
                      "internalType": "string",
                      "name": "key",
                      "type": "string"
                    },
                    {
                      "internalType": "bytes32",
                      "name": "value",
                      "type": "bytes32"
                    }
                  ],
                  "internalType": "struct EventUtils.Bytes32KeyValue[]",
                  "name": "items",
                  "type": "tuple[]"
                },
                {
                  "components": [
                    {
                      "internalType": "string",
                      "name": "key",
                      "type": "string"
                    },
                    {
                      "internalType": "bytes32[]",
                      "name": "value",
                      "type": "bytes32[]"
                    }
                  ],
                  "internalType": "struct EventUtils.Bytes32ArrayKeyValue[]",
                  "name": "arrayItems",
                  "type": "tuple[]"
                }
              ],
              "internalType": "struct EventUtils.Bytes32Items",
              "name": "bytes32Items",
              "type": "tuple"
            },
            {
              "components": [
                {
                  "components": [
                    {
                      "internalType": "string",
                      "name": "key",
                      "type": "string"
                    },
                    {
                      "internalType": "bytes",
                      "name": "value",
                      "type": "bytes"
                    }
                  ],
                  "internalType": "struct EventUtils.BytesKeyValue[]",
                  "name": "items",
                  "type": "tuple[]"
                },
                {
                  "components": [
                    {
                      "internalType": "string",
                      "name": "key",
                      "type": "string"
                    },
                    {
                      "internalType": "bytes[]",
                      "name": "value",
                      "type": "bytes[]"
                    }
                  ],
                  "internalType": "struct EventUtils.BytesArrayKeyValue[]",
                  "name": "arrayItems",
                  "type": "tuple[]"
                }
              ],
              "internalType": "struct EventUtils.BytesItems",
              "name": "bytesItems",
              "type": "tuple"
            },
            {
              "components": [
                {
                  "components": [
                    {
                      "internalType": "string",
                      "name": "key",
                      "type": "string"
                    },
                    {
                      "internalType": "string",
                      "name": "value",
                      "type": "string"
                    }
                  ],
                  "internalType": "struct EventUtils.StringKeyValue[]",
                  "name": "items",
                  "type": "tuple[]"
                },
                {
                  "components": [
                    {
                      "internalType": "string",
                      "name": "key",
                      "type": "string"
                    },
                    {
                      "internalType": "string[]",
                      "name": "value",
                      "type": "string[]"
                    }
                  ],
                  "internalType": "struct EventUtils.StringArrayKeyValue[]",
                  "name": "arrayItems",
                  "type": "tuple[]"
                }
              ],
              "internalType": "struct EventUtils.StringItems",
              "name": "stringItems",
              "type": "tuple"
            }
          ],
          "internalType": "struct EventUtils.EventLogData",
          "name": "eventData",
          "type": "tuple"
        }
      ],
      "name": "afterDepositCancellation",
      "outputs": [],
      "stateMutability": "nonpayable",
      "type": "function"
    },
    {
      "inputs": [
        {
          "internalType": "bytes32",
          "name": "key",
          "type": "bytes32"
        },
        {
          "components": [
            {
              "components": [
                {
                  "internalType": "address",
                  "name": "account",
                  "type": "address"
                },
                {
                  "internalType": "address",
                  "name": "receiver",
                  "type": "address"
                },
                {
                  "internalType": "address",
                  "name": "callbackContract",
                  "type": "address"
                },
                {
                  "internalType": "address",
                  "name": "uiFeeReceiver",
                  "type": "address"
                },
                {
                  "internalType": "address",
                  "name": "market",
                  "type": "address"
                },
                {
                  "internalType": "address",
                  "name": "initialLongToken",
                  "type": "address"
                },
                {
                  "internalType": "address",
                  "name": "initialShortToken",
                  "type": "address"
                },
                {
                  "internalType": "address[]",
                  "name": "longTokenSwapPath",
                  "type": "address[]"
                },
                {
                  "internalType": "address[]",
                  "name": "shortTokenSwapPath",
                  "type": "address[]"
                }
              ],
              "internalType": "struct Deposit.Addresses",
              "name": "addresses",
              "type": "tuple"
            },
            {
              "components": [
                {
                  "internalType": "uint256",
                  "name": "initialLongTokenAmount",
                  "type": "uint256"
                },
                {
                  "internalType": "uint256",
                  "name": "initialShortTokenAmount",
                  "type": "uint256"
                },
                {
                  "internalType": "uint256",
                  "name": "minMarketTokens",
                  "type": "uint256"
                },
                {
                  "internalType": "uint256",
                  "name": "updatedAtBlock",
                  "type": "uint256"
                },
                {
                  "internalType": "uint256",
                  "name": "executionFee",
                  "type": "uint256"
                },
                {
                  "internalType": "uint256",
                  "name": "callbackGasLimit",
                  "type": "uint256"
                }
              ],
              "internalType": "struct Deposit.Numbers",
              "name": "numbers",
              "type": "tuple"
            },
            {
              "components": [
                {
                  "internalType": "bool",
                  "name": "shouldUnwrapNativeToken",
                  "type": "bool"
                }
              ],
              "internalType": "struct Deposit.Flags",
              "name": "flags",
              "type": "tuple"
            }
          ],
          "internalType": "struct Deposit.Props",
          "name": "deposit",
          "type": "tuple"
        },
        {
          "components": [
            {
              "components": [
                {
                  "components": [
                    {
                      "internalType": "string",
                      "name": "key",
                      "type": "string"
                    },
                    {
                      "internalType": "address",
                      "name": "value",
                      "type": "address"
                    }
                  ],
                  "internalType": "struct EventUtils.AddressKeyValue[]",
                  "name": "items",
                  "type": "tuple[]"
                },
                {
                  "components": [
                    {
                      "internalType": "string",
                      "name": "key",
                      "type": "string"
                    },
                    {
                      "internalType": "address[]",
                      "name": "value",
                      "type": "address[]"
                    }
                  ],
                  "internalType": "struct EventUtils.AddressArrayKeyValue[]",
                  "name": "arrayItems",
                  "type": "tuple[]"
                }
              ],
              "internalType": "struct EventUtils.AddressItems",
              "name": "addressItems",
              "type": "tuple"
            },
            {
              "components": [
                {
                  "components": [
                    {
                      "internalType": "string",
                      "name": "key",
                      "type": "string"
                    },
                    {
                      "internalType": "uint256",
                      "name": "value",
                      "type": "uint256"
                    }
                  ],
                  "internalType": "struct EventUtils.UintKeyValue[]",
                  "name": "items",
                  "type": "tuple[]"
                },
                {
                  "components": [
                    {
                      "internalType": "string",
                      "name": "key",
                      "type": "string"
                    },
                    {
                      "internalType": "uint256[]",
                      "name": "value",
                      "type": "uint256[]"
                    }
                  ],
                  "internalType": "struct EventUtils.UintArrayKeyValue[]",
                  "name": "arrayItems",
                  "type": "tuple[]"
                }
              ],
              "internalType": "struct EventUtils.UintItems",
              "name": "uintItems",
              "type": "tuple"
            },
            {
              "components": [
                {
                  "components": [
                    {
                      "internalType": "string",
                      "name": "key",
                      "type": "string"
                    },
                    {
                      "internalType": "int256",
                      "name": "value",
                      "type": "int256"
                    }
                  ],
                  "internalType": "struct EventUtils.IntKeyValue[]",
                  "name": "items",
                  "type": "tuple[]"
                },
                {
                  "components": [
                    {
                      "internalType": "string",
                      "name": "key",
                      "type": "string"
                    },
                    {
                      "internalType": "int256[]",
                      "name": "value",
                      "type": "int256[]"
                    }
                  ],
                  "internalType": "struct EventUtils.IntArrayKeyValue[]",
                  "name": "arrayItems",
                  "type": "tuple[]"
                }
              ],
              "internalType": "struct EventUtils.IntItems",
              "name": "intItems",
              "type": "tuple"
            },
            {
              "components": [
                {
                  "components": [
                    {
                      "internalType": "string",
                      "name": "key",
                      "type": "string"
                    },
                    {
                      "internalType": "bool",
                      "name": "value",
                      "type": "bool"
                    }
                  ],
                  "internalType": "struct EventUtils.BoolKeyValue[]",
                  "name": "items",
                  "type": "tuple[]"
                },
                {
                  "components": [
                    {
                      "internalType": "string",
                      "name": "key",
                      "type": "string"
                    },
                    {
                      "internalType": "bool[]",
                      "name": "value",
                      "type": "bool[]"
                    }
                  ],
                  "internalType": "struct EventUtils.BoolArrayKeyValue[]",
                  "name": "arrayItems",
                  "type": "tuple[]"
                }
              ],
              "internalType": "struct EventUtils.BoolItems",
              "name": "boolItems",
              "type": "tuple"
            },
            {
              "components": [
                {
                  "components": [
                    {
                      "internalType": "string",
                      "name": "key",
                      "type": "string"
                    },
                    {
                      "internalType": "bytes32",
                      "name": "value",
                      "type": "bytes32"
                    }
                  ],
                  "internalType": "struct EventUtils.Bytes32KeyValue[]",
                  "name": "items",
                  "type": "tuple[]"
                },
                {
                  "components": [
                    {
                      "internalType": "string",
                      "name": "key",
                      "type": "string"
                    },
                    {
                      "internalType": "bytes32[]",
                      "name": "value",
                      "type": "bytes32[]"
                    }
                  ],
                  "internalType": "struct EventUtils.Bytes32ArrayKeyValue[]",
                  "name": "arrayItems",
                  "type": "tuple[]"
                }
              ],
              "internalType": "struct EventUtils.Bytes32Items",
              "name": "bytes32Items",
              "type": "tuple"
            },
            {
              "components": [
                {
                  "components": [
                    {
                      "internalType": "string",
                      "name": "key",
                      "type": "string"
                    },
                    {
                      "internalType": "bytes",
                      "name": "value",
                      "type": "bytes"
                    }
                  ],
                  "internalType": "struct EventUtils.BytesKeyValue[]",
                  "name": "items",
                  "type": "tuple[]"
                },
                {
                  "components": [
                    {
                      "internalType": "string",
                      "name": "key",
                      "type": "string"
                    },
                    {
                      "internalType": "bytes[]",
                      "name": "value",
                      "type": "bytes[]"
                    }
                  ],
                  "internalType": "struct EventUtils.BytesArrayKeyValue[]",
                  "name": "arrayItems",
                  "type": "tuple[]"
                }
              ],
              "internalType": "struct EventUtils.BytesItems",
              "name": "bytesItems",
              "type": "tuple"
            },
            {
              "components": [
                {
                  "components": [
                    {
                      "internalType": "string",
                      "name": "key",
                      "type": "string"
                    },
                    {
                      "internalType": "string",
                      "name": "value",
                      "type": "string"
                    }
                  ],
                  "internalType": "struct EventUtils.StringKeyValue[]",
                  "name": "items",
                  "type": "tuple[]"
                },
                {
                  "components": [
                    {
                      "internalType": "string",
                      "name": "key",
                      "type": "string"
                    },
                    {
                      "internalType": "string[]",
                      "name": "value",
                      "type": "string[]"
                    }
                  ],
                  "internalType": "struct EventUtils.StringArrayKeyValue[]",
                  "name": "arrayItems",
                  "type": "tuple[]"
                }
              ],
              "internalType": "struct EventUtils.StringItems",
              "name": "stringItems",
              "type": "tuple"
            }
          ],
          "internalType": "struct EventUtils.EventLogData",
          "name": "eventData",
          "type": "tuple"
        }
      ],
      "name": "afterDepositExecution",
      "outputs": [],
      "stateMutability": "nonpayable",
      "type": "function"
    },
    {
      "inputs": [
        {
          "internalType": "bytes32",
          "name": "key",
          "type": "bytes32"
        },
        {
          "components": [
            {
              "components": [
                {
                  "internalType": "address",
                  "name": "account",
                  "type": "address"
                },
                {
                  "internalType": "address",
                  "name": "receiver",
                  "type": "address"
                },
                {
                  "internalType": "address",
                  "name": "callbackContract",
                  "type": "address"
                },
                {
                  "internalType": "address",
                  "name": "uiFeeReceiver",
                  "type": "address"
                },
                {
                  "internalType": "address",
                  "name": "market",
                  "type": "address"
                },
                {
                  "internalType": "address[]",
                  "name": "longTokenSwapPath",
                  "type": "address[]"
                },
                {
                  "internalType": "address[]",
                  "name": "shortTokenSwapPath",
                  "type": "address[]"
                }
              ],
              "internalType": "struct Withdrawal.Addresses",
              "name": "addresses",
              "type": "tuple"
            },
            {
              "components": [
                {
                  "internalType": "uint256",
                  "name": "marketTokenAmount",
                  "type": "uint256"
                },
                {
                  "internalType": "uint256",
                  "name": "minLongTokenAmount",
                  "type": "uint256"
                },
                {
                  "internalType": "uint256",
                  "name": "minShortTokenAmount",
                  "type": "uint256"
                },
                {
                  "internalType": "uint256",
                  "name": "updatedAtBlock",
                  "type": "uint256"
                },
                {
                  "internalType": "uint256",
                  "name": "executionFee",
                  "type": "uint256"
                },
                {
                  "internalType": "uint256",
                  "name": "callbackGasLimit",
                  "type": "uint256"
                }
              ],
              "internalType": "struct Withdrawal.Numbers",
              "name": "numbers",
              "type": "tuple"
            },
            {
              "components": [
                {
                  "internalType": "bool",
                  "name": "shouldUnwrapNativeToken",
                  "type": "bool"
                }
              ],
              "internalType": "struct Withdrawal.Flags",
              "name": "flags",
              "type": "tuple"
            }
          ],
          "internalType": "struct Withdrawal.Props",
          "name": "withdrawal",
          "type": "tuple"
        },
        {
          "components": [
            {
              "components": [
                {
                  "components": [
                    {
                      "internalType": "string",
                      "name": "key",
                      "type": "string"
                    },
                    {
                      "internalType": "address",
                      "name": "value",
                      "type": "address"
                    }
                  ],
                  "internalType": "struct EventUtils.AddressKeyValue[]",
                  "name": "items",
                  "type": "tuple[]"
                },
                {
                  "components": [
                    {
                      "internalType": "string",
                      "name": "key",
                      "type": "string"
                    },
                    {
                      "internalType": "address[]",
                      "name": "value",
                      "type": "address[]"
                    }
                  ],
                  "internalType": "struct EventUtils.AddressArrayKeyValue[]",
                  "name": "arrayItems",
                  "type": "tuple[]"
                }
              ],
              "internalType": "struct EventUtils.AddressItems",
              "name": "addressItems",
              "type": "tuple"
            },
            {
              "components": [
                {
                  "components": [
                    {
                      "internalType": "string",
                      "name": "key",
                      "type": "string"
                    },
                    {
                      "internalType": "uint256",
                      "name": "value",
                      "type": "uint256"
                    }
                  ],
                  "internalType": "struct EventUtils.UintKeyValue[]",
                  "name": "items",
                  "type": "tuple[]"
                },
                {
                  "components": [
                    {
                      "internalType": "string",
                      "name": "key",
                      "type": "string"
                    },
                    {
                      "internalType": "uint256[]",
                      "name": "value",
                      "type": "uint256[]"
                    }
                  ],
                  "internalType": "struct EventUtils.UintArrayKeyValue[]",
                  "name": "arrayItems",
                  "type": "tuple[]"
                }
              ],
              "internalType": "struct EventUtils.UintItems",
              "name": "uintItems",
              "type": "tuple"
            },
            {
              "components": [
                {
                  "components": [
                    {
                      "internalType": "string",
                      "name": "key",
                      "type": "string"
                    },
                    {
                      "internalType": "int256",
                      "name": "value",
                      "type": "int256"
                    }
                  ],
                  "internalType": "struct EventUtils.IntKeyValue[]",
                  "name": "items",
                  "type": "tuple[]"
                },
                {
                  "components": [
                    {
                      "internalType": "string",
                      "name": "key",
                      "type": "string"
                    },
                    {
                      "internalType": "int256[]",
                      "name": "value",
                      "type": "int256[]"
                    }
                  ],
                  "internalType": "struct EventUtils.IntArrayKeyValue[]",
                  "name": "arrayItems",
                  "type": "tuple[]"
                }
              ],
              "internalType": "struct EventUtils.IntItems",
              "name": "intItems",
              "type": "tuple"
            },
            {
              "components": [
                {
                  "components": [
                    {
                      "internalType": "string",
                      "name": "key",
                      "type": "string"
                    },
                    {
                      "internalType": "bool",
                      "name": "value",
                      "type": "bool"
                    }
                  ],
                  "internalType": "struct EventUtils.BoolKeyValue[]",
                  "name": "items",
                  "type": "tuple[]"
                },
                {
                  "components": [
                    {
                      "internalType": "string",
                      "name": "key",
                      "type": "string"
                    },
                    {
                      "internalType": "bool[]",
                      "name": "value",
                      "type": "bool[]"
                    }
                  ],
                  "internalType": "struct EventUtils.BoolArrayKeyValue[]",
                  "name": "arrayItems",
                  "type": "tuple[]"
                }
              ],
              "internalType": "struct EventUtils.BoolItems",
              "name": "boolItems",
              "type": "tuple"
            },
            {
              "components": [
                {
                  "components": [
                    {
                      "internalType": "string",
                      "name": "key",
                      "type": "string"
                    },
                    {
                      "internalType": "bytes32",
                      "name": "value",
                      "type": "bytes32"
                    }
                  ],
                  "internalType": "struct EventUtils.Bytes32KeyValue[]",
                  "name": "items",
                  "type": "tuple[]"
                },
                {
                  "components": [
                    {
                      "internalType": "string",
                      "name": "key",
                      "type": "string"
                    },
                    {
                      "internalType": "bytes32[]",
                      "name": "value",
                      "type": "bytes32[]"
                    }
                  ],
                  "internalType": "struct EventUtils.Bytes32ArrayKeyValue[]",
                  "name": "arrayItems",
                  "type": "tuple[]"
                }
              ],
              "internalType": "struct EventUtils.Bytes32Items",
              "name": "bytes32Items",
              "type": "tuple"
            },
            {
              "components": [
                {
                  "components": [
                    {
                      "internalType": "string",
                      "name": "key",
                      "type": "string"
                    },
                    {
                      "internalType": "bytes",
                      "name": "value",
                      "type": "bytes"
                    }
                  ],
                  "internalType": "struct EventUtils.BytesKeyValue[]",
                  "name": "items",
                  "type": "tuple[]"
                },
                {
                  "components": [
                    {
                      "internalType": "string",
                      "name": "key",
                      "type": "string"
                    },
                    {
                      "internalType": "bytes[]",
                      "name": "value",
                      "type": "bytes[]"
                    }
                  ],
                  "internalType": "struct EventUtils.BytesArrayKeyValue[]",
                  "name": "arrayItems",
                  "type": "tuple[]"
                }
              ],
              "internalType": "struct EventUtils.BytesItems",
              "name": "bytesItems",
              "type": "tuple"
            },
            {
              "components": [
                {
                  "components": [
                    {
                      "internalType": "string",
                      "name": "key",
                      "type": "string"
                    },
                    {
                      "internalType": "string",
                      "name": "value",
                      "type": "string"
                    }
                  ],
                  "internalType": "struct EventUtils.StringKeyValue[]",
                  "name": "items",
                  "type": "tuple[]"
                },
                {
                  "components": [
                    {
                      "internalType": "string",
                      "name": "key",
                      "type": "string"
                    },
                    {
                      "internalType": "string[]",
                      "name": "value",
                      "type": "string[]"
                    }
                  ],
                  "internalType": "struct EventUtils.StringArrayKeyValue[]",
                  "name": "arrayItems",
                  "type": "tuple[]"
                }
              ],
              "internalType": "struct EventUtils.StringItems",
              "name": "stringItems",
              "type": "tuple"
            }
          ],
          "internalType": "struct EventUtils.EventLogData",
          "name": "eventData",
          "type": "tuple"
        }
      ],
      "name": "afterWithdrawalCancellation",
      "outputs": [],
      "stateMutability": "nonpayable",
      "type": "function"
    },
    {
      "inputs": [
        {
          "internalType": "bytes32",
          "name": "key",
          "type": "bytes32"
        },
        {
          "components": [
            {
              "components": [
                {
                  "internalType": "address",
                  "name": "account",
                  "type": "address"
                },
                {
                  "internalType": "address",
                  "name": "receiver",
                  "type": "address"
                },
                {
                  "internalType": "address",
                  "name": "callbackContract",
                  "type": "address"
                },
                {
                  "internalType": "address",
                  "name": "uiFeeReceiver",
                  "type": "address"
                },
                {
                  "internalType": "address",
                  "name": "market",
                  "type": "address"
                },
                {
                  "internalType": "address[]",
                  "name": "longTokenSwapPath",
                  "type": "address[]"
                },
                {
                  "internalType": "address[]",
                  "name": "shortTokenSwapPath",
                  "type": "address[]"
                }
              ],
              "internalType": "struct Withdrawal.Addresses",
              "name": "addresses",
              "type": "tuple"
            },
            {
              "components": [
                {
                  "internalType": "uint256",
                  "name": "marketTokenAmount",
                  "type": "uint256"
                },
                {
                  "internalType": "uint256",
                  "name": "minLongTokenAmount",
                  "type": "uint256"
                },
                {
                  "internalType": "uint256",
                  "name": "minShortTokenAmount",
                  "type": "uint256"
                },
                {
                  "internalType": "uint256",
                  "name": "updatedAtBlock",
                  "type": "uint256"
                },
                {
                  "internalType": "uint256",
                  "name": "executionFee",
                  "type": "uint256"
                },
                {
                  "internalType": "uint256",
                  "name": "callbackGasLimit",
                  "type": "uint256"
                }
              ],
              "internalType": "struct Withdrawal.Numbers",
              "name": "numbers",
              "type": "tuple"
            },
            {
              "components": [
                {
                  "internalType": "bool",
                  "name": "shouldUnwrapNativeToken",
                  "type": "bool"
                }
              ],
              "internalType": "struct Withdrawal.Flags",
              "name": "flags",
              "type": "tuple"
            }
          ],
          "internalType": "struct Withdrawal.Props",
          "name": "withdrawal",
          "type": "tuple"
        },
        {
          "components": [
            {
              "components": [
                {
                  "components": [
                    {
                      "internalType": "string",
                      "name": "key",
                      "type": "string"
                    },
                    {
                      "internalType": "address",
                      "name": "value",
                      "type": "address"
                    }
                  ],
                  "internalType": "struct EventUtils.AddressKeyValue[]",
                  "name": "items",
                  "type": "tuple[]"
                },
                {
                  "components": [
                    {
                      "internalType": "string",
                      "name": "key",
                      "type": "string"
                    },
                    {
                      "internalType": "address[]",
                      "name": "value",
                      "type": "address[]"
                    }
                  ],
                  "internalType": "struct EventUtils.AddressArrayKeyValue[]",
                  "name": "arrayItems",
                  "type": "tuple[]"
                }
              ],
              "internalType": "struct EventUtils.AddressItems",
              "name": "addressItems",
              "type": "tuple"
            },
            {
              "components": [
                {
                  "components": [
                    {
                      "internalType": "string",
                      "name": "key",
                      "type": "string"
                    },
                    {
                      "internalType": "uint256",
                      "name": "value",
                      "type": "uint256"
                    }
                  ],
                  "internalType": "struct EventUtils.UintKeyValue[]",
                  "name": "items",
                  "type": "tuple[]"
                },
                {
                  "components": [
                    {
                      "internalType": "string",
                      "name": "key",
                      "type": "string"
                    },
                    {
                      "internalType": "uint256[]",
                      "name": "value",
                      "type": "uint256[]"
                    }
                  ],
                  "internalType": "struct EventUtils.UintArrayKeyValue[]",
                  "name": "arrayItems",
                  "type": "tuple[]"
                }
              ],
              "internalType": "struct EventUtils.UintItems",
              "name": "uintItems",
              "type": "tuple"
            },
            {
              "components": [
                {
                  "components": [
                    {
                      "internalType": "string",
                      "name": "key",
                      "type": "string"
                    },
                    {
                      "internalType": "int256",
                      "name": "value",
                      "type": "int256"
                    }
                  ],
                  "internalType": "struct EventUtils.IntKeyValue[]",
                  "name": "items",
                  "type": "tuple[]"
                },
                {
                  "components": [
                    {
                      "internalType": "string",
                      "name": "key",
                      "type": "string"
                    },
                    {
                      "internalType": "int256[]",
                      "name": "value",
                      "type": "int256[]"
                    }
                  ],
                  "internalType": "struct EventUtils.IntArrayKeyValue[]",
                  "name": "arrayItems",
                  "type": "tuple[]"
                }
              ],
              "internalType": "struct EventUtils.IntItems",
              "name": "intItems",
              "type": "tuple"
            },
            {
              "components": [
                {
                  "components": [
                    {
                      "internalType": "string",
                      "name": "key",
                      "type": "string"
                    },
                    {
                      "internalType": "bool",
                      "name": "value",
                      "type": "bool"
                    }
                  ],
                  "internalType": "struct EventUtils.BoolKeyValue[]",
                  "name": "items",
                  "type": "tuple[]"
                },
                {
                  "components": [
                    {
                      "internalType": "string",
                      "name": "key",
                      "type": "string"
                    },
                    {
                      "internalType": "bool[]",
                      "name": "value",
                      "type": "bool[]"
                    }
                  ],
                  "internalType": "struct EventUtils.BoolArrayKeyValue[]",
                  "name": "arrayItems",
                  "type": "tuple[]"
                }
              ],
              "internalType": "struct EventUtils.BoolItems",
              "name": "boolItems",
              "type": "tuple"
            },
            {
              "components": [
                {
                  "components": [
                    {
                      "internalType": "string",
                      "name": "key",
                      "type": "string"
                    },
                    {
                      "internalType": "bytes32",
                      "name": "value",
                      "type": "bytes32"
                    }
                  ],
                  "internalType": "struct EventUtils.Bytes32KeyValue[]",
                  "name": "items",
                  "type": "tuple[]"
                },
                {
                  "components": [
                    {
                      "internalType": "string",
                      "name": "key",
                      "type": "string"
                    },
                    {
                      "internalType": "bytes32[]",
                      "name": "value",
                      "type": "bytes32[]"
                    }
                  ],
                  "internalType": "struct EventUtils.Bytes32ArrayKeyValue[]",
                  "name": "arrayItems",
                  "type": "tuple[]"
                }
              ],
              "internalType": "struct EventUtils.Bytes32Items",
              "name": "bytes32Items",
              "type": "tuple"
            },
            {
              "components": [
                {
                  "components": [
                    {
                      "internalType": "string",
                      "name": "key",
                      "type": "string"
                    },
                    {
                      "internalType": "bytes",
                      "name": "value",
                      "type": "bytes"
                    }
                  ],
                  "internalType": "struct EventUtils.BytesKeyValue[]",
                  "name": "items",
                  "type": "tuple[]"
                },
                {
                  "components": [
                    {
                      "internalType": "string",
                      "name": "key",
                      "type": "string"
                    },
                    {
                      "internalType": "bytes[]",
                      "name": "value",
                      "type": "bytes[]"
                    }
                  ],
                  "internalType": "struct EventUtils.BytesArrayKeyValue[]",
                  "name": "arrayItems",
                  "type": "tuple[]"
                }
              ],
              "internalType": "struct EventUtils.BytesItems",
              "name": "bytesItems",
              "type": "tuple"
            },
            {
              "components": [
                {
                  "components": [
                    {
                      "internalType": "string",
                      "name": "key",
                      "type": "string"
                    },
                    {
                      "internalType": "string",
                      "name": "value",
                      "type": "string"
                    }
                  ],
                  "internalType": "struct EventUtils.StringKeyValue[]",
                  "name": "items",
                  "type": "tuple[]"
                },
                {
                  "components": [
                    {
                      "internalType": "string",
                      "name": "key",
                      "type": "string"
                    },
                    {
                      "internalType": "string[]",
                      "name": "value",
                      "type": "string[]"
                    }
                  ],
                  "internalType": "struct EventUtils.StringArrayKeyValue[]",
                  "name": "arrayItems",
                  "type": "tuple[]"
                }
              ],
              "internalType": "struct EventUtils.StringItems",
              "name": "stringItems",
              "type": "tuple"
            }
          ],
          "internalType": "struct EventUtils.EventLogData",
          "name": "eventData",
          "type": "tuple"
        }
      ],
      "name": "afterWithdrawalExecution",
      "outputs": [],
      "stateMutability": "nonpayable",
      "type": "function"
    }
  ],
  "transactionHash": "0x3969296f9190d46e2250442bdf5e871018b9bf08b46b48af0151fc32ff959c1f",
  "args": [],
  "numDeployments": 1,
  "solcInputHash": "7eaafd6cd407151e85d714c602175e8f",
  "bytecode": "0x608060405234801561001057600080fd5b50600160005561334f806100256000396000f3fe608060405234801561001057600080fd5b50600436106100575760003560e01c80634ef189b81461005c578063a02ba64d14610071578063a224323b14610084578063c3fa402b14610097578063ee0fc121146100aa575b600080fd5b61006f61006a366004612db2565b6100c4565b005b61006f61007f366004612db2565b61073d565b61006f610092366004612f3c565b610b10565b61006f6100a5366004612f3c565b61127e565b6100b261175d565b60405190815260200160405180910390f35b6100cd33611785565b6100f25760405162461bcd60e51b81526004016100e99061308b565b60405180910390fd5b60006100fc61185d565b8054909150600119016101215760405162461bcd60e51b81526004016100e9906130cd565b60028155600061012f611881565b90506000610144856000015160800151611899565b9050600061015986600001516080015161199f565b90506000826001600160a01b03166370a08231306040518263ffffffff1660e01b81526004016101899190613104565b602060405180830381865afa1580156101a6573d6000803e3d6000fd5b505050506040513d601f19601f820116820180604052508101906101ca9190613118565b1115610247576040516307c11f8f60e51b8152610247906001600160a01b0385169063f823f1e090610200908690600401613104565b602060405180830381865afa15801561021d573d6000803e3d6000fd5b505050506040513d601f19601f820116820180604052508101906102419190613118565b83611a61565b6040516370a0823160e01b81526000906001600160a01b038316906370a0823190610276903090600401613104565b602060405180830381865afa158015610293573d6000803e3d6000fd5b505050506040513d601f19601f820116820180604052508101906102b79190613118565b1115610334576040516307c11f8f60e51b8152610334906001600160a01b0385169063f823f1e0906102ed908590600401613104565b602060405180830381865afa15801561030a573d6000803e3d6000fd5b505050506040513d601f19601f8201168201806040525081019061032e9190613118565b82611a61565b61033c611b50565b6020860151511561049b576040516307c11f8f60e51b81526001600160a01b0384169063c3cc6c7a90829063f823f1e09061037b908790600401613104565b602060405180830381865afa158015610398573d6000803e3d6000fd5b505050506040513d601f19601f820116820180604052508101906103bc9190613118565b846001600160a01b031663313ce5676040518163ffffffff1660e01b8152600401602060405180830381865afa1580156103fa573d6000803e3d6000fd5b505050506040513d601f19601f8201168201806040525081019061041e9190613131565b61042990600a613255565b60208a01515161044190670de0b6b3a7640000613264565b61044b919061327b565b6040518363ffffffff1660e01b815260040161046892919061329d565b600060405180830381600087803b15801561048257600080fd5b505af1158015610496573d6000803e3d6000fd5b505050505b6020808701510151156105fe576040516307c11f8f60e51b81526001600160a01b0384169063c3cc6c7a90829063f823f1e0906104dc908690600401613104565b602060405180830381865afa1580156104f9573d6000803e3d6000fd5b505050506040513d601f19601f8201168201806040525081019061051d9190613118565b836001600160a01b031663313ce5676040518163ffffffff1660e01b8152600401602060405180830381865afa15801561055b573d6000803e3d6000fd5b505050506040513d601f19601f8201168201806040525081019061057f9190613131565b61058a90600a613255565b6020808b015101516105a490670de0b6b3a7640000613264565b6105ae919061327b565b6040518363ffffffff1660e01b81526004016105cb92919061329d565b600060405180830381600087803b1580156105e557600080fd5b505af11580156105f9573d6000803e3d6000fd5b505050505b8551608001516040516307c11f8f60e51b81526001600160a01b0385169163ed0994cd91839163f823f1e0916106379190600401613104565b602060405180830381865afa158015610654573d6000803e3d6000fd5b505050506040513d601f19601f820116820180604052508101906106789190613118565b8851516040518363ffffffff1660e01b81526004016106989291906132ab565b600060405180830381600087803b1580156106b257600080fd5b505af11580156106c6573d6000803e3d6000fd5b505050506106d333611bd8565b8560000151608001516001600160a01b0316336001600160a01b03167fa9d54d01b9c80d333d155788c57b7d54ee17d436024e3dac5ea05137476d278588602001516080015160405161072891815260200190565b60405180910390a35050600190915550505050565b61074633611785565b6107625760405162461bcd60e51b81526004016100e99061308b565b600061076c61185d565b8054909150600119016107915760405162461bcd60e51b81526004016100e9906130cd565b60028155600061079f611881565b905060008360200151600001516000815181106107be576107be6132c2565b6020026020010151602001519050600085600001516080015190506000816001600160a01b03166370a08231306040518263ffffffff1660e01b81526004016108079190613104565b602060405180830381865afa158015610824573d6000803e3d6000fd5b505050506040513d601f19601f820116820180604052508101906108489190613118565b90508015610880576040516307c11f8f60e51b8152610880906001600160a01b0386169063f823f1e090610200908690600401613104565b610888611b50565b6040516307c11f8f60e51b81526001600160a01b0385169063c3cc6c7a90829063f823f1e0906108bc908790600401613104565b602060405180830381865afa1580156108d9573d6000803e3d6000fd5b505050506040513d601f19601f820116820180604052508101906108fd9190613118565b846001600160a01b031663313ce5676040518163ffffffff1660e01b8152600401602060405180830381865afa15801561093b573d6000803e3d6000fd5b505050506040513d601f19601f8201168201806040525081019061095f9190613131565b61096a90600a613255565b61097c87670de0b6b3a7640000613264565b610986919061327b565b6040518363ffffffff1660e01b81526004016109a392919061329d565b600060405180830381600087803b1580156109bd57600080fd5b505af11580156109d1573d6000803e3d6000fd5b50506040516307c11f8f60e51b81526001600160a01b038716925063ed0994cd9150829063f823f1e090610a09908790600401613104565b602060405180830381865afa158015610a26573d6000803e3d6000fd5b505050506040513d601f19601f82011682018060405250810190610a4a9190613118565b8951516040518363ffffffff1660e01b8152600401610a6a9291906132ab565b600060405180830381600087803b158015610a8457600080fd5b505af1158015610a98573d6000803e3d6000fd5b50505050610aa533611bd8565b8660000151608001516001600160a01b0316336001600160a01b03167fe1e067eab571218f837c5015c854ebbbc631dc6ec63b28e9deb6718d78a858b7858a6020015160800151604051610afa92919061329d565b60405180910390a3505060019092555050505050565b610b1933611785565b610b355760405162461bcd60e51b81526004016100e99061308b565b6000610b3f61185d565b805490915060011901610b645760405162461bcd60e51b81526004016100e9906130cd565b600281556000610b72611881565b90506000610b87856000015160800151611899565b90506000610b9c86600001516080015161199f565b90506000856020015160000151600081518110610bbb57610bbb6132c2565b60200260200101516020015190506000866020015160000151600181518110610be657610be66132c2565b60200260200101516020015190506000846001600160a01b03166370a08231306040518263ffffffff1660e01b8152600401610c229190613104565b602060405180830381865afa158015610c3f573d6000803e3d6000fd5b505050506040513d601f19601f82011682018060405250810190610c639190613118565b1115610ce0576040516307c11f8f60e51b8152610ce0906001600160a01b0387169063f823f1e090610c99908890600401613104565b602060405180830381865afa158015610cb6573d6000803e3d6000fd5b505050506040513d601f19601f82011682018060405250810190610cda9190613118565b85611a61565b6040516370a0823160e01b81526000906001600160a01b038516906370a0823190610d0f903090600401613104565b602060405180830381865afa158015610d2c573d6000803e3d6000fd5b505050506040513d601f19601f82011682018060405250810190610d509190613118565b1115610dcd576040516307c11f8f60e51b8152610dcd906001600160a01b0387169063f823f1e090610d86908790600401613104565b602060405180830381865afa158015610da3573d6000803e3d6000fd5b505050506040513d601f19601f82011682018060405250810190610dc79190613118565b84611a61565b8115610f21576040516307c11f8f60e51b81526001600160a01b0386169063c3cc6c7a90829063f823f1e090610e07908990600401613104565b602060405180830381865afa158015610e24573d6000803e3d6000fd5b505050506040513d601f19601f82011682018060405250810190610e489190613118565b866001600160a01b031663313ce5676040518163ffffffff1660e01b8152600401602060405180830381865afa158015610e86573d6000803e3d6000fd5b505050506040513d601f19601f82011682018060405250810190610eaa9190613131565b610eb590600a613255565b610ec786670de0b6b3a7640000613264565b610ed1919061327b565b6040518363ffffffff1660e01b8152600401610eee92919061329d565b600060405180830381600087803b158015610f0857600080fd5b505af1158015610f1c573d6000803e3d6000fd5b505050505b8015611075576040516307c11f8f60e51b81526001600160a01b0386169063c3cc6c7a90829063f823f1e090610f5b908890600401613104565b602060405180830381865afa158015610f78573d6000803e3d6000fd5b505050506040513d601f19601f82011682018060405250810190610f9c9190613118565b856001600160a01b031663313ce5676040518163ffffffff1660e01b8152600401602060405180830381865afa158015610fda573d6000803e3d6000fd5b505050506040513d601f19601f82011682018060405250810190610ffe9190613131565b61100990600a613255565b61101b85670de0b6b3a7640000613264565b611025919061327b565b6040518363ffffffff1660e01b815260040161104292919061329d565b600060405180830381600087803b15801561105c57600080fd5b505af1158015611070573d6000803e3d6000fd5b505050505b6040516307c11f8f60e51b81526001600160a01b0386169063ed0994cd90829063f823f1e0906110a9908990600401613104565b602060405180830381865afa1580156110c6573d6000803e3d6000fd5b505050506040513d601f19601f820116820180604052508101906110ea9190613118565b8a51516040518363ffffffff1660e01b815260040161110a9291906132ab565b600060405180830381600087803b15801561112457600080fd5b505af1158015611138573d6000803e3d6000fd5b50506040516307c11f8f60e51b81526001600160a01b038816925063ed0994cd9150829063f823f1e090611170908890600401613104565b602060405180830381865afa15801561118d573d6000803e3d6000fd5b505050506040513d601f19601f820116820180604052508101906111b19190613118565b8a51516040518363ffffffff1660e01b81526004016111d19291906132ab565b600060405180830381600087803b1580156111eb57600080fd5b505af11580156111ff573d6000803e3d6000fd5b5050505061120b611b50565b61121433611bd8565b87516080908101516020808b015190920151604080518681529384018590528301526001600160a01b03169033907f0f00ca74793891bdff0dfe249f88fde6f2c5bb8452bbf09514b669abb92bc0a29060600160405180910390a350506001909355505050505050565b61128733611785565b6112a35760405162461bcd60e51b81526004016100e99061308b565b60006112ad61185d565b8054909150600119016112d25760405162461bcd60e51b81526004016100e9906130cd565b6002815560006112e0611881565b905060006112f5856000015160800151611899565b9050600061130a86600001516080015161199f565b905060008660000151608001516001600160a01b03166370a08231306040518263ffffffff1660e01b81526004016113429190613104565b602060405180830381865afa15801561135f573d6000803e3d6000fd5b505050506040513d601f19601f820116820180604052508101906113839190613118565b1115611409578551608001516040516307c11f8f60e51b8152611409916001600160a01b0386169163f823f1e0916113bd91600401613104565b602060405180830381865afa1580156113da573d6000803e3d6000fd5b505050506040513d601f19601f820116820180604052508101906113fe9190613118565b875160800151611a61565b611411611b50565b8551608001516040516307c11f8f60e51b81526001600160a01b0385169163c3cc6c7a91839163f823f1e09161144a9190600401613104565b602060405180830381865afa158015611467573d6000803e3d6000fd5b505050506040513d601f19601f8201168201806040525081019061148b9190613118565b8860000151608001516001600160a01b031663313ce5676040518163ffffffff1660e01b8152600401602060405180830381865afa1580156114d1573d6000803e3d6000fd5b505050506040513d601f19601f820116820180604052508101906114f59190613131565b61150090600a613255565b60208a01515161151890670de0b6b3a7640000613264565b611522919061327b565b6040518363ffffffff1660e01b815260040161153f92919061329d565b600060405180830381600087803b15801561155957600080fd5b505af115801561156d573d6000803e3d6000fd5b50506040516307c11f8f60e51b81526001600160a01b038616925063ed0994cd9150829063f823f1e0906115a5908790600401613104565b602060405180830381865afa1580156115c2573d6000803e3d6000fd5b505050506040513d601f19601f820116820180604052508101906115e69190613118565b8851516040518363ffffffff1660e01b81526004016116069291906132ab565b600060405180830381600087803b15801561162057600080fd5b505af1158015611634573d6000803e3d6000fd5b50506040516307c11f8f60e51b81526001600160a01b038616925063ed0994cd9150829063f823f1e09061166c908690600401613104565b602060405180830381865afa158015611689573d6000803e3d6000fd5b505050506040513d601f19601f820116820180604052508101906116ad9190613118565b8851516040518363ffffffff1660e01b81526004016116cd9291906132ab565b600060405180830381600087803b1580156116e757600080fd5b505af11580156116fb573d6000803e3d6000fd5b5050505061170833611bd8565b8560000151608001516001600160a01b0316336001600160a01b03167f75f1e929bc3763cbb44e9f41114fbc63fb4dc8b10ecb29e801d0970fddb3077988602001516080015160405161072891815260200190565b60405160200161176c906132d8565b6040516020818303038152906040528051906020012081565b60008073a44f830b6a2b6fa76657a3b92c1fe74fcb7c6afd9050806001600160a01b031663ac4ab3fb846040516020016117be906132d8565b604051602081830303815290604052805190602001206040518363ffffffff1660e01b81526004016118059291906001600160a01b03929092168252602082015260400190565b602060405180830381865afa158015611822573d6000803e3d6000fd5b505050506040513d601f19601f8201168201806040525081019061184691906132fc565b156118545750600192915050565b50600092915050565b7f1c85eba10a4cf2d29c83fc15f97931886b9fd3caeb70d8c377aeedc58b919e3b90565b73f3978209b7cff2b90100c6f87cec77de928ed58e90565b600073fb02132333a79c8b5bd0b64e3abcca5f7faf2936196001600160a01b038316016118db575073152b9d0fdc40c096757f570a51e494bd4b943e50919050565b73b7e69749e3d2edd90ea59a4932efea2d41e245d6196001600160a01b0383160161191b57507349d5c2bdffac6ce2bfdb6640f4f80f226bc10bab919050565b73913c1f46b48b3ed35e7dc3cf754d4ae8499f31ce196001600160a01b0383160161195b575073b31f66aa3c1e785363f0875a1b74e27b85fd66c7919050565b60405162461bcd60e51b815260206004820152601460248201527313585c9ad95d081b9bdd081cdd5c1c1bdc9d195960621b60448201526064016100e9565b919050565b600073fb02132333a79c8b5bd0b64e3abcca5f7faf2936196001600160a01b038316016119e1575073b97ef9ef8734c71904d8002f8b6bc66dd9c48a6e919050565b73b7e69749e3d2edd90ea59a4932efea2d41e245d6196001600160a01b03831601611a21575073b97ef9ef8734c71904d8002f8b6bc66dd9c48a6e919050565b73913c1f46b48b3ed35e7dc3cf754d4ae8499f31ce196001600160a01b0383160161195b575073b97ef9ef8734c71904d8002f8b6bc66dd9c48a6e919050565b81600003611aaa5760405162461bcd60e51b815260206004820152601660248201527553796d626f6c2063616e6e6f7420626520656d70747960501b60448201526064016100e9565b6001600160a01b038116611af65760405162461bcd60e51b8152602060048201526013602482015272496e76616c696420416464726573735a65726f60681b60448201526064016100e9565b6000611b00611c79565b9050611b10816004018484611c9d565b50827f21eab7d98872eb1399cd56d99a43442b9b50720f3222e49563d2be182c6a6a3f42604051611b4391815260200190565b60405180910390a2505050565b4715611bd6576000611b60611cbb565b9050806001600160a01b031663d0e30db0476040518263ffffffff1660e01b81526004016000604051808303818588803b158015611b9d57600080fd5b505af1158015611bb1573d6000803e3d6000fd5b5050505050611bd4611bc763082ac82b60e31b90565b611bcf611cbb565b611a61565b505b565b6000611be2611c79565b90508060080154600003611c305760405162461bcd60e51b815260206004820152601560248201527420b1b1b7bab73a1034b9903737ba10333937bd32b760591b60448201526064016100e9565b600060088201556040514281526001600160a01b038316907fd1857c2ae6a9e5e353aa7eef9b8377c98206ccbd4578e56fbe5b6b27e503e56f9060200160405180910390a25050565b7f8d5bb42e0ac1496a2c326edc9c00758985246e6c2bb146d6c2f4a0d509e0960a90565b6000611cb384846001600160a01b038516611cd3565b949350505050565b73b31f66aa3c1e785363f0875a1b74e27b85fd66c790565b60008281526002840160205260408120829055611cb384846000611cf78383611d00565b90505b92915050565b6000818152600183016020526040812054611d4757508154600181810184556000848152602080822090930184905584548482528286019093526040902091909155611cfa565b506000611cfa565b634e487b7160e01b600052604160045260246000fd5b604080519081016001600160401b0381118282101715611d8757611d87611d4f565b60405290565b60405160e081016001600160401b0381118282101715611d8757611d87611d4f565b604051606081016001600160401b0381118282101715611d8757611d87611d4f565b60405161012081016001600160401b0381118282101715611d8757611d87611d4f565b604051601f8201601f191681016001600160401b0381118282101715611e1c57611e1c611d4f565b604052919050565b80356001600160a01b038116811461199a57600080fd5b60006001600160401b03821115611e5457611e54611d4f565b5060051b60200190565b600082601f830112611e6f57600080fd5b81356020611e84611e7f83611e3b565b611df4565b82815260059290921b84018101918181019086841115611ea357600080fd5b8286015b84811015611ec557611eb881611e24565b8352918301918301611ea7565b509695505050505050565b600060c08284031215611ee257600080fd5b60405160c081016001600160401b0381118282101715611f0457611f04611d4f565b8060405250809150823581526020830135602082015260408301356040820152606083013560608201526080830135608082015260a083013560a08201525092915050565b8015158114611bd457600080fd5b600060208284031215611f6957600080fd5b604051602081016001600160401b0381118282101715611f8b57611f8b611d4f565b6040529050808235611f9c81611f49565b905292915050565b600082601f830112611fb557600080fd5b81356001600160401b03811115611fce57611fce611d4f565b611fe1601f8201601f1916602001611df4565b818152846020838601011115611ff657600080fd5b816020850160208301376000918101602001919091529392505050565b600082601f83011261202457600080fd5b81356020612034611e7f83611e3b565b82815260059290921b8401810191818101908684111561205357600080fd5b8286015b84811015611ec55780356001600160401b03808211156120775760008081fd5b908801906040828b03601f19018113156120915760008081fd5b612099611d65565b87840135838111156120ab5760008081fd5b6120b98d8a83880101611fa4565b8252509083013590828211156120cf5760008081fd5b6120dd8c8984870101611e5e565b818901528652505050918301918301612057565b6000604080838503121561210457600080fd5b61210c611d65565b915082356001600160401b038082111561212557600080fd5b818501915085601f83011261213957600080fd5b81356020612149611e7f83611e3b565b82815260059290921b8401810191818101908984111561216857600080fd5b8286015b848110156121e2578035868111156121845760008081fd5b8701808c03601f190189131561219a5760008081fd5b6121a2611d65565b85820135888111156121b45760008081fd5b6121c28e8883860101611fa4565b8252506121d08a8301611e24565b8187015284525091830191830161216c565b50875250868101359450828511156121f957600080fd5b61220588868901612013565b81870152505050505092915050565b600082601f83011261222557600080fd5b81356020612235611e7f83611e3b565b828152600592831b850182019282820191908785111561225457600080fd5b8387015b858110156123495780356001600160401b03808211156122785760008081fd5b908901906040828c03601f19018113156122925760008081fd5b61229a611d65565b88840135838111156122ac5760008081fd5b6122ba8e8b83880101611fa4565b82525081840135838111156122cf5760008081fd5b8085019450508c603f8501126122e757600092508283fd5b8884013592506122f9611e7f84611e3b565b83815292861b8401820192898101908e8511156123165760008081fd5b948301945b848610156123345785358252948a0194908a019061231b565b828b0152508752505050928401928401612258565b5090979650505050505050565b6000604080838503121561236957600080fd5b612371611d65565b915082356001600160401b038082111561238a57600080fd5b818501915085601f83011261239e57600080fd5b813560206123ae611e7f83611e3b565b82815260059290921b840181019181810190898411156123cd57600080fd5b8286015b8481101561243f578035868111156123e95760008081fd5b8701808c03601f19018913156123ff5760008081fd5b612407611d65565b85820135888111156124195760008081fd5b6124278e8883860101611fa4565b825250908901358582015283529183019183016123d1565b508752508681013594508285111561245657600080fd5b61220588868901612214565b6000604080838503121561247557600080fd5b61247d611d65565b915082356001600160401b038082111561249657600080fd5b818501915085601f8301126124aa57600080fd5b813560206124ba611e7f83611e3b565b82815260059290921b840181019181810190898411156124d957600080fd5b8286015b8481101561243f578035868111156124f55760008081fd5b8701808c03601f190189131561250b5760008081fd5b612513611d65565b85820135888111156125255760008081fd5b6125338e8883860101611fa4565b825250908901358582015283529183019183016124dd565b600082601f83011261255c57600080fd5b8135602061256c611e7f83611e3b565b828152600592831b850182019282820191908785111561258b57600080fd5b8387015b858110156123495780356001600160401b03808211156125af5760008081fd5b908901906040828c03601f19018113156125c95760008081fd5b6125d1611d65565b88840135838111156125e35760008081fd5b6125f18e8b83880101611fa4565b82525081840135838111156126065760008081fd5b8085019450508c603f85011261261e57600092508283fd5b888401359250612630611e7f84611e3b565b83815292861b8401820192898101908e85111561264d5760008081fd5b948301945b84861015612677578535935061266784611f49565b838252948a0194908a0190612652565b828b015250875250505092840192840161258f565b6000604080838503121561269f57600080fd5b6126a7611d65565b915082356001600160401b03808211156126c057600080fd5b818501915085601f8301126126d457600080fd5b813560206126e4611e7f83611e3b565b82815260059290921b8401810191818101908984111561270357600080fd5b8286015b848110156127825780358681111561271f5760008081fd5b8701808c03601f19018913156127355760008081fd5b61273d611d65565b858201358881111561274f5760008081fd5b61275d8e8883860101611fa4565b825250908901359061276e82611f49565b808601919091528352918301918301612707565b508752508681013594508285111561279957600080fd5b6122058886890161254b565b600082601f8301126127b657600080fd5b813560206127c6611e7f83611e3b565b82815260059290921b840181019181810190868411156127e557600080fd5b8286015b84811015611ec5576001600160401b03813581101561280757600080fd5b813588016040818b03601f1901121561281f57600080fd5b612827611d65565b868201358381111561283857600080fd5b6128468c8983860101611fa4565b82525060408201358381111561285b57600080fd5b8083019250508a603f83011261287057600080fd5b86820135612880611e7f82611e3b565b81815260059190911b830160400190888101908d8311156128a057600080fd5b604085015b838110156128d85786813511156128bb57600080fd5b6128cb8f60408335890101611fa4565b8352918a01918a016128a5565b50838a01525050855250509183019183016127e9565b6000604080838503121561290157600080fd5b612909611d65565b915082356001600160401b038082111561292257600080fd5b818501915085601f83011261293657600080fd5b81356020612946611e7f83611e3b565b82815260059290921b8401810191818101908984111561296557600080fd5b8286015b848110156129f5578035868111156129815760008081fd5b8701808c03601f19018913156129975760008081fd5b61299f611d65565b85820135888111156129b15760008081fd5b6129bf8e8883860101611fa4565b82525089820135888111156129d45760008081fd5b6129e28e8883860101611fa4565b8288015250845250918301918301612969565b5087525086810135945082851115612a0c57600080fd5b612205888689016127a5565b600082601f830112612a2957600080fd5b81356020612a39611e7f83611e3b565b82815260059290921b84018101918181019086841115612a5857600080fd5b8286015b84811015611ec5576001600160401b038135811015612a7a57600080fd5b813588016040818b03601f19011215612a9257600080fd5b612a9a611d65565b8682013583811115612aab57600080fd5b612ab98c8983860101611fa4565b825250604082013583811115612ace57600080fd5b8083019250508a603f830112612ae357600080fd5b86820135612af3611e7f82611e3b565b81815260059190911b830160400190888101908d831115612b1357600080fd5b604085015b83811015612b4b578681351115612b2e57600080fd5b612b3e8f60408335890101611fa4565b8352918a01918a01612b18565b50838a0152505085525050918301918301612a5c565b60006040808385031215612b7457600080fd5b612b7c611d65565b915082356001600160401b0380821115612b9557600080fd5b818501915085601f830112612ba957600080fd5b81356020612bb9611e7f83611e3b565b82815260059290921b84018101918181019089841115612bd857600080fd5b8286015b84811015612c6857803586811115612bf45760008081fd5b8701808c03601f1901891315612c0a5760008081fd5b612c12611d65565b8582013588811115612c245760008081fd5b612c328e8883860101611fa4565b8252508982013588811115612c475760008081fd5b612c558e8883860101611fa4565b8288015250845250918301918301612bdc565b5087525086810135945082851115612c7f57600080fd5b61220588868901612a18565b600060e08284031215612c9d57600080fd5b612ca5611d8d565b905081356001600160401b0380821115612cbe57600080fd5b612cca858386016120f1565b83526020840135915080821115612ce057600080fd5b612cec85838601612356565b60208401526040840135915080821115612d0557600080fd5b612d1185838601612462565b60408401526060840135915080821115612d2a57600080fd5b612d368583860161268c565b60608401526080840135915080821115612d4f57600080fd5b612d5b85838601612356565b608084015260a0840135915080821115612d7457600080fd5b612d80858386016128ee565b60a084015260c0840135915080821115612d9957600080fd5b50612da684828501612b61565b60c08301525092915050565b600080600060608486031215612dc757600080fd5b8335925060208401356001600160401b0380821115612de557600080fd5b8186019150610100808389031215612dfc57600080fd5b612e04611daf565b833583811115612e1357600080fd5b8401610120818b031215612e2657600080fd5b612e2e611dd1565b612e3782611e24565b8152612e4560208301611e24565b6020820152612e5660408301611e24565b6040820152612e6760608301611e24565b6060820152612e7860808301611e24565b6080820152612e8960a08301611e24565b60a0820152612e9a60c08301611e24565b60c082015260e082013585811115612eb157600080fd5b612ebd8c828501611e5e565b60e0830152508382013585811115612ed457600080fd5b612ee08c828501611e5e565b8286015250825250612ef58960208601611ed0565b6020820152612f078960e08601611f57565b604082015280955050506040860135915080821115612f2557600080fd5b50612f3286828701612c8b565b9150509250925092565b600080600060608486031215612f5157600080fd5b8335925060208401356001600160401b0380821115612f6f57600080fd5b908501906101008288031215612f8457600080fd5b612f8c611daf565b823582811115612f9b57600080fd5b830160e0818a031215612fad57600080fd5b612fb5611d8d565b612fbe82611e24565b8152612fcc60208301611e24565b6020820152612fdd60408301611e24565b6040820152612fee60608301611e24565b6060820152612fff60808301611e24565b608082015260a08201358481111561301657600080fd5b6130228b828501611e5e565b60a08301525060c08201358481111561303a57600080fd5b6130468b828501611e5e565b60c08301525082525061305c8860208501611ed0565b602082015261306e8860e08501611f57565b6040820152809450506040860135915080821115612f2557600080fd5b60208082526022908201527f4d757374206265206120474d5820563220617574686f72697a6564204b65657060408201526132b960f11b606082015260800190565b6020808252601f908201527f5265656e7472616e637947756172643a207265656e7472616e742063616c6c00604082015260600190565b6001600160a01b0391909116815260200190565b60006020828403121561312a57600080fd5b5051919050565b60006020828403121561314357600080fd5b815160ff8116811461315457600080fd5b9392505050565b634e487b7160e01b600052601160045260246000fd5b600181815b808511156131ac5781600019048211156131925761319261315b565b8085161561319f57918102915b93841c9390800290613176565b509250929050565b6000826131c357506001611cfa565b816131d057506000611cfa565b81600181146131e657600281146131f05761320c565b6001915050611cfa565b60ff8411156132015761320161315b565b50506001821b611cfa565b5060208310610133831016604e8410600b841016171561322f575081810a611cfa565b6132398383613171565b806000190482111561324d5761324d61315b565b029392505050565b6000611cf760ff8416836131b4565b8082028115828204841417611cfa57611cfa61315b565b60008261329857634e487b7160e01b600052601260045260246000fd5b500490565b918252602082015260400190565b9182526001600160a01b0316602082015260400190565b634e487b7160e01b600052603260045260246000fd5b6020808252600a908201526921a7a72a2927a62622a960b11b604082015260600190565b60006020828403121561330e57600080fd5b815161315481611f4956fea2646970667358221220434cf18fa430777190a6a32c1ab1bc17b94ba367273d72ed1ecbe871c975615b64736f6c63430008110033",
  "devdoc": {
    "kind": "dev",
    "methods": {},
    "version": 1
  },
  "userdoc": {
    "kind": "user",
    "methods": {},
    "version": 1
  },
  "storageLayout": {
    "storage": [
      {
        "astId": 900,
        "contract": "contracts/facets/avalanche/GmxV2CallbacksFacetAvalanche.sol:GmxV2CallbacksFacetAvalanche",
        "label": "_status",
        "offset": 0,
        "slot": "0",
        "type": "t_uint256"
      }
    ],
    "types": {
      "t_uint256": {
        "encoding": "inplace",
        "label": "uint256",
        "numberOfBytes": "32"
      }
    }
  }
}