{
  "address": "0x0728D6016c1eAcA3DDCDB9936E4Bfb56e76DCb4f",
  "abi": [
    {
      "inputs": [],
      "name": "CalldataMustHaveValidPayload",
      "type": "error"
    },
    {
      "inputs": [],
      "name": "CalldataOverOrUnderFlow",
      "type": "error"
    },
    {
      "inputs": [],
      "name": "CanNotPickMedianOfEmptyArray",
      "type": "error"
    },
    {
      "inputs": [],
      "name": "DataPackageTimestampMustNotBeZero",
      "type": "error"
    },
    {
      "inputs": [],
      "name": "DataPackageTimestampsMustBeEqual",
      "type": "error"
    },
    {
      "inputs": [],
      "name": "EachSignerMustProvideTheSameValue",
      "type": "error"
    },
    {
      "inputs": [],
      "name": "EmptyCalldataPointersArr",
      "type": "error"
    },
    {
      "inputs": [],
      "name": "GetDataServiceIdNotImplemented",
      "type": "error"
    },
    {
      "inputs": [],
      "name": "IncorrectUnsignedMetadataSize",
      "type": "error"
    },
    {
      "inputs": [
        {
          "internalType": "uint256",
          "name": "receivedSignersCount",
          "type": "uint256"
        },
        {
          "internalType": "uint256",
          "name": "requiredSignersCount",
          "type": "uint256"
        }
      ],
      "name": "InsufficientNumberOfUniqueSigners",
      "type": "error"
    },
    {
      "inputs": [],
      "name": "InvalidCalldataPointer",
      "type": "error"
    },
    {
      "inputs": [],
      "name": "RedstonePayloadMustHaveAtLeastOneDataPackage",
      "type": "error"
    },
    {
      "inputs": [
        {
          "internalType": "address",
          "name": "receivedSigner",
          "type": "address"
        }
      ],
      "name": "SignerNotAuthorised",
      "type": "error"
    },
    {
      "inputs": [
        {
          "internalType": "uint256",
          "name": "receivedTimestampSeconds",
          "type": "uint256"
        },
        {
          "internalType": "uint256",
          "name": "blockTimestamp",
          "type": "uint256"
        }
      ],
      "name": "TimestampFromTooLongFuture",
      "type": "error"
    },
    {
      "inputs": [
        {
          "internalType": "uint256",
          "name": "receivedTimestampSeconds",
          "type": "uint256"
        },
        {
          "internalType": "uint256",
          "name": "blockTimestamp",
          "type": "uint256"
        }
      ],
      "name": "TimestampIsTooOld",
      "type": "error"
    },
    {
      "inputs": [
        {
          "internalType": "uint256[]",
          "name": "values",
          "type": "uint256[]"
        }
      ],
      "name": "aggregateValues",
      "outputs": [
        {
          "internalType": "uint256",
          "name": "",
          "type": "uint256"
        }
      ],
      "stateMutability": "view",
      "type": "function"
    },
    {
      "inputs": [],
      "name": "extractTimestampsAndAssertAllAreEqual",
      "outputs": [
        {
          "internalType": "uint256",
          "name": "extractedTimestamp",
          "type": "uint256"
        }
      ],
      "stateMutability": "pure",
      "type": "function"
    },
    {
      "inputs": [
        {
          "internalType": "address",
          "name": "signerAddress",
          "type": "address"
        }
      ],
      "name": "getAuthorisedSignerIndex",
      "outputs": [
        {
          "internalType": "uint8",
          "name": "",
          "type": "uint8"
        }
      ],
      "stateMutability": "view",
      "type": "function"
    },
    {
      "inputs": [],
      "name": "getDataServiceId",
      "outputs": [
        {
          "internalType": "string",
          "name": "",
          "type": "string"
        }
      ],
      "stateMutability": "view",
      "type": "function"
    },
    {
      "inputs": [],
      "name": "getHealthMeter",
      "outputs": [
        {
          "internalType": "uint256",
          "name": "",
          "type": "uint256"
        }
      ],
      "stateMutability": "view",
      "type": "function"
    },
    {
      "inputs": [],
      "name": "getUniqueSignersThreshold",
      "outputs": [
        {
          "internalType": "uint8",
          "name": "",
          "type": "uint8"
        }
      ],
      "stateMutability": "view",
      "type": "function"
    },
    {
      "inputs": [
        {
          "internalType": "uint256",
          "name": "receivedTimestampMilliseconds",
          "type": "uint256"
        }
      ],
      "name": "validateTimestamp",
      "outputs": [],
      "stateMutability": "view",
      "type": "function"
    }
  ],
  "transactionHash": "0x9312c0900213e89593d7d9e7eb886e89a4867912e1887834f6627689ece492eb",
  "args": [],
  "numDeployments": 2,
  "solcInputHash": "31d10b47f4bbc39bf760e4b83c06259f",
  "bytecode": "0x608060405234801561001057600080fd5b50611d82806100206000396000f3fe608060405234801561001057600080fd5b506004361061006d5760003560e01c80633ce142f51461007257806355a547d51461009c5780639104c640146100b2578063b24ebfcc146100ba578063c274583a146100cd578063f50b2efe14610106578063f90c49241461011b575b600080fd5b6100856100803660046119e1565b610122565b60405160ff90911681526020015b60405180910390f35b6100a4610224565b604051908152602001610093565b6100a461033c565b6100a46100c8366004611a14565b610d07565b60408051808201825260178152761c99591cdd1bdb994b585d985b185b98da194b5c1c9bd9604a1b602082015290516100939190611ac5565b610119610114366004611b13565b610d18565b005b6003610085565b60006001600160a01b038216731ea62d73edf8ac05dfcea1a34b9796e937a29eff0361015057506000919050565b6001600160a01b038216732c59617248994d12816ee1fa77ce0a64eeb456bf0361017c57506001919050565b6001600160a01b0382167312470f7aba85c8b81d63137dd5925d6ee114952b036101a857506002919050565b6001600160a01b03821673109b4a318a4f5ddcbca6349b45f881b4137deafb036101d457506003919050565b6001600160a01b0382167383cba8c619fb629b81a65c2e67fe15cf3e3c97470361020057506004919050565b816040516303b1166f60e61b815260040161021b9190611b2c565b60405180910390fd5b60008061022f610d24565b9050600061023c82610dd2565b61ffff1690508060000361026357604051632154bfcf60e21b815260040160405180910390fd5b61026e600283611b56565b915060005b8181101561033657600061028684610e0c565b9050600080610296606887611b56565b905060006102a48236611b69565b9050803592508265ffffffffffff166000036102d357604051630336dc9d60e41b815260040160405180910390fd5b876000036102eb578265ffffffffffff169750610313565b878365ffffffffffff16146103135760405163d9d1f46560e01b815260040160405180910390fd5b61031d8488611b56565b965050505050808061032e90611b7c565b915050610273565b50505090565b600080610347610e48565b90506000610353610f47565b9050600073f3978209b7cff2b90100c6f87cec77de928ed58e6040516325eb876f60e01b8152600481018490526001602482015290915060009081906a52b7d2dcc80cd2e4000000906001600160a01b03851690636953c06c9082906325eb876f90604401602060405180830381865afa1580156103d5573d6000803e3d6000fd5b505050506040513d601f19601f820116820180604052508101906103f99190611b95565b6040518263ffffffff1660e01b81526004016104159190611b2c565b602060405180830381865afa158015610432573d6000803e3d6000fd5b505050506040513d601f19601f820116820180604052508101906104569190611bb2565b478760008151811061046a5761046a611bcb565b6020026020010151602001516104809190611be1565b61048a9190611be1565b6104949190611c0e565b90506000806000805b8851811015610c6b576000876001600160a01b03166325eb876f8b84815181106104c9576104c9611bcb565b6020908102919091010151516040516001600160e01b031960e084901b168152600481019190915260016024820152604401602060405180830381865afa158015610518573d6000803e3d6000fd5b505050506040513d601f19601f8201168201806040525081019061053c9190611b95565b90506000816001600160a01b03166370a08231306040518263ffffffff1660e01b815260040161056c9190611b2c565b602060405180830381865afa158015610589573d6000803e3d6000fd5b505050506040513d601f19601f820116820180604052508101906105ad9190611bb2565b90506000896001600160a01b0316630edc25b68d86815181106105d2576105d2611bcb565b6020026020010151600001516040518263ffffffff1660e01b81526004016105fc91815260200190565b602060405180830381865afa925050508015610635575060408051601f3d908101601f1916820190925261063291810190611b95565b60015b61077257826001600160a01b031663313ce5676040518163ffffffff1660e01b8152600401602060405180830381865afa158015610677573d6000803e3d6000fd5b505050506040513d601f19601f8201168201806040525081019061069b9190611c22565b6106a690600a611d29565b6106b4906305f5e100611be1565b604051631a54f01b60e21b81526001600160a01b038c1690636953c06c906106e0908790600401611b2c565b602060405180830381865afa1580156106fd573d6000803e3d6000fd5b505050506040513d601f19601f820116820180604052508101906107219190611bb2565b838e878151811061073457610734611bcb565b60200260200101516020015161074a9190611be1565b6107549190611be1565b61075e9190611c0e565b6107689089611b56565b9750505050610c59565b90506040516330088b1f60e11b81526000906001600160a01b03831690636011163e906107a3903090600401611b2c565b602060405180830381865afa1580156107c0573d6000803e3d6000fd5b505050506040513d601f19601f820116820180604052508101906107e49190611bb2565b90508083111561092d57836001600160a01b031663313ce5676040518163ffffffff1660e01b8152600401602060405180830381865afa15801561082c573d6000803e3d6000fd5b505050506040513d601f19601f820116820180604052508101906108509190611c22565b61085b90600a611d29565b610869906305f5e100611be1565b604051631a54f01b60e21b81526001600160a01b038d1690636953c06c90610895908890600401611b2c565b602060405180830381865afa1580156108b2573d6000803e3d6000fd5b505050506040513d601f19601f820116820180604052508101906108d69190611bb2565b6108e08386611b69565b8f88815181106108f2576108f2611bcb565b6020026020010151602001516109089190611be1565b6109129190611be1565b61091c9190611c0e565b610926908a611b56565b9850610a68565b836001600160a01b031663313ce5676040518163ffffffff1660e01b8152600401602060405180830381865afa15801561096b573d6000803e3d6000fd5b505050506040513d601f19601f8201168201806040525081019061098f9190611c22565b61099a90600a611d29565b6109a8906305f5e100611be1565b604051631a54f01b60e21b81526001600160a01b038d1690636953c06c906109d4908890600401611b2c565b602060405180830381865afa1580156109f1573d6000803e3d6000fd5b505050506040513d601f19601f82011682018060405250810190610a159190611bb2565b610a1f8584611b69565b8f8881518110610a3157610a31611bcb565b602002602001015160200151610a479190611be1565b610a519190611be1565b610a5b9190611c0e565b610a659089611b56565b97505b836001600160a01b031663313ce5676040518163ffffffff1660e01b8152600401602060405180830381865afa158015610aa6573d6000803e3d6000fd5b505050506040513d601f19601f82011682018060405250810190610aca9190611c22565b610ad590600a611d29565b610ae3906305f5e100611be1565b604051631a54f01b60e21b81526001600160a01b038d1690636953c06c90610b0f908890600401611b2c565b602060405180830381865afa158015610b2c573d6000803e3d6000fd5b505050506040513d601f19601f82011682018060405250810190610b509190611bb2565b828f8881518110610b6357610b63611bcb565b602002602001015160200151610b799190611be1565b610b839190611be1565b610b8d9190611c0e565b610b979088611b56565b9650836001600160a01b031663313ce5676040518163ffffffff1660e01b8152600401602060405180830381865afa158015610bd7573d6000803e3d6000fd5b505050506040513d601f19601f82011682018060405250810190610bfb9190611c22565b610c0690600a611d29565b818e8781518110610c1957610c19611bcb565b602002602001015160200151610c2f9190611be1565b610c3e906402540be400611be1565b610c489190611c0e565b610c529087611b56565b9550505050505b80610c6381611b7c565b91505061049d565b5082841115610c8157610c7e8385611b69565b94505b68056bc75e2d631000006000829003610ca1579998505050505050505050565b600086118015610cb9575081610cb78488611b56565b115b15610cf757858183610ccb8684611b56565b610cd59190611b69565b610cdf9190611be1565b610ce99190611c0e565b995050505050505050505090565b6000995050505050505050505090565b6000610d1282610f52565b92915050565b610d2181610f5d565b50565b60006602ed57011e0000601f1936013581161480610d55576040516373bb264f60e11b815260040160405180910390fd5b60003660291115610d7957604051632bcb7bc560e11b815260040160405180910390fd5b5060281936013560006009610d94600362ffffff8516611b56565b610d9e9190611b56565b905036610dac600283611b56565b1115610dcb5760405163c30a7bd760e01b815260040160405180910390fd5b9392505050565b600080610de0602084611b56565b905036811115610e0357604051632bcb7bc560e11b815260040160405180910390fd5b36033592915050565b6000806000610e1a84610fe1565b9092509050604e610e2c826020611b56565b610e369084611be1565b610e409190611b56565b949350505050565b60606000610e54611038565b90506000610e618261116f565b905081516001600160401b03811115610e7c57610e7c6119fe565b604051908082528060200260200182016040528015610ec157816020015b6040805180820190915260008082526020820152815260200190600190039081610e9a5790505b50925060005b8251811015610336576040518060400160405280848381518110610eed57610eed611bcb565b60200260200101518152602001838381518110610f0c57610f0c611bcb565b6020026020010151815250848281518110610f2957610f29611bcb565b60200260200101819052508080610f3f90611b7c565b915050610ec7565b63082ac82b60e31b90565b6000610d128261117a565b6000610f6b6103e883611c0e565b905080421015610fad57603c610f814283611b69565b1115610fa95760405163b6b0916d60e01b81526004810182905242602482015260440161021b565b5050565b60b4610fb98242611b69565b1115610fa957604051630321d0b560e01b81526004810182905242602482015260440161021b565b600080808080610ff2604187611b56565b9050600061100b611004602084611b56565b3690611245565b80359450905061101c816003611245565b62ffffff9490941697933563ffffffff16965092945050505050565b60606000611044611251565b90506000611050610f47565b9050600061105d826112b3565b61107357825161106e906001611b56565b611076565b82515b90506000816001600160401b03811115611092576110926119fe565b6040519080825280602002602001820160405280156110bb578160200160208202803683370190505b509050600083826000815181106110d4576110d4611bcb565b60200260200101818152505060005b855181101561116457848682815181106110ff576110ff611bcb565b60200260200101511461115257611117600183611b56565b915085818151811061112b5761112b611bcb565b602002602001015183838151811061114557611145611bcb565b6020026020010181815250505b8061115c81611b7c565b9150506110e3565b509095945050505050565b6060610d12826112cd565b6000815160000361119e57604051639e198af960e01b815260040160405180910390fd5b6111a78261148f565b6000600283516111b79190611c0e565b9050600283516111c79190611d38565b600003611223576000611216846111df600185611b69565b815181106111ef576111ef611bcb565b602002602001015185848151811061120957611209611bcb565b60200260200101516114dd565b9050610e40600282611c0e565b82818151811061123557611235611bcb565b6020026020010151915050919050565b6000610dcb8284611b69565b6060600061125d6114e9565b600481018054604080516020808402820181019092528281529394508301828280156112a857602002820191906000526020600020905b815481526020019060010190808311611294575b505050505091505090565b6000806112be6114e9565b9050610dcb600482018461150d565b6060600082516001600160401b038111156112ea576112ea6119fe565b604051908082528060200260200182016040528015611313578160200160208202803683370190505b509050600083516001600160401b03811115611331576113316119fe565b60405190808252806020026020018201604052801561135a578160200160208202803683370190505b509050600084516001600160401b03811115611378576113786119fe565b6040519080825280602002602001820160405280156113ab57816020015b60608152602001906001900390816113965790505b50905060005b855181101561140957604080516003808252608082019092529060208201606080368337019050508282815181106113eb576113eb611bcb565b6020026020010181905250808061140190611b7c565b9150506113b1565b506000611414610d24565b9050600061142182610dd2565b61ffff169050611432600283611b56565b60405190925060005b828110156114785760006114528a89898989611519565b905061145e8186611b56565b94508260405250808061147090611b7c565b91505061143b565b5061148384876117b2565b98975050505050505050565b8051602082016020820281019150805b828110156114d757815b818110156114ce5781518151808210156114c4578084528183525b50506020016114a9565b5060200161149f565b50505050565b6000610dcb8284611b56565b7f8d5bb42e0ac1496a2c326edc9c00758985246e6c2bb146d6c2f4a0d509e0960a90565b6000610dcb83836118ca565b60008060008061152885610fe1565b909250905060008080606081600d61154b611544602089611b56565b89906118e9565b6115559190611b56565b9050600061156761100460688d611b56565b905060006115848361157a60418f611b56565b6110049190611b56565b905061159083826115a3565b93508260208501209450813596506115c7565b60408051838152602081850181019092526000910183838237601f19019392505050565b6115d88765ffffffffffff16610d18565b6115ec856115e760418f611b56565b6118f5565b95506115f786610122565b60ff1699505050505050505060008060005b8481101561177f5761161c88858361196d565b909350915060005b8c5181101561176c578c818151811061163f5761163f611bcb565b6020026020010151840361175a5760008b828151811061166157611661611bcb565b6020026020010151905061167a81896001901b16151590565b1580156116a35750600360ff168d838151811061169957611699611bcb565b6020026020010151105b15611754578c82815181106116ba576116ba611bcb565b6020026020010180518091906116cf90611b7c565b81525050838b83815181106116e6576116e6611bcb565b602002602001015160018f858151811061170257611702611bcb565b60200260200101516117149190611b69565b8151811061172457611724611bcb565b60209081029190910101526001881b81178c838151811061174757611747611bcb565b6020026020010181815250505b5061176c565b8061176481611b7c565b915050611624565b508061177781611b7c565b915050611609565b505050816020826117909190611b56565b61179a9190611be1565b6117a590604e611b56565b9998505050505050505050565b6060600083516001600160401b038111156117cf576117cf6119fe565b6040519080825280602002602001820160405280156117f8578160200160208202803683370190505b509050600360005b85518110156118c0578185828151811061181c5761181c611bcb565b602002602001015110156118695784818151811061183c5761183c611bcb565b602002602001015182604051632b13aef560e01b815260040161021b929190918252602082015260400190565b600061188d87838151811061188057611880611bcb565b6020026020010151610d07565b9050808483815181106118a2576118a2611bcb565b602090810291909101015250806118b881611b7c565b915050611800565b5090949350505050565b6000610dcb838360008181526001830160205260408120541515610dcb565b6000610dcb8284611be1565b60408051600080825260208083018085528690523685900380850135831a948401859052803560608501819052910135608084018190529193909260019060a0016020604051602081039080840390855afa158015611958573d6000803e3d6000fd5b5050604051601f190151979650505050505050565b6000808061197c604e87611b56565b905060006119a96119a2611991602089611b56565b61199c886001611b56565b906118e9565b83906114dd565b905060006119b73683611245565b80359960209091013598509650505050505050565b6001600160a01b0381168114610d2157600080fd5b6000602082840312156119f357600080fd5b8135610dcb816119cc565b634e487b7160e01b600052604160045260246000fd5b60006020808385031215611a2757600080fd5b82356001600160401b0380821115611a3e57600080fd5b818501915085601f830112611a5257600080fd5b813581811115611a6457611a646119fe565b8060051b604051601f19603f83011681018181108582111715611a8957611a896119fe565b604052918252848201925083810185019188831115611aa757600080fd5b938501935b8285101561148357843584529385019392850192611aac565b600060208083528351808285015260005b81811015611af257858101830151858201604001528201611ad6565b506000604082860101526040601f19601f8301168501019250505092915050565b600060208284031215611b2557600080fd5b5035919050565b6001600160a01b0391909116815260200190565b634e487b7160e01b600052601160045260246000fd5b80820180821115610d1257610d12611b40565b81810381811115610d1257610d12611b40565b600060018201611b8e57611b8e611b40565b5060010190565b600060208284031215611ba757600080fd5b8151610dcb816119cc565b600060208284031215611bc457600080fd5b5051919050565b634e487b7160e01b600052603260045260246000fd5b8082028115828204841417610d1257610d12611b40565b634e487b7160e01b600052601260045260246000fd5b600082611c1d57611c1d611bf8565b500490565b600060208284031215611c3457600080fd5b815160ff81168114610dcb57600080fd5b600181815b80851115611c80578160001904821115611c6657611c66611b40565b80851615611c7357918102915b93841c9390800290611c4a565b509250929050565b600082611c9757506001610d12565b81611ca457506000610d12565b8160018114611cba5760028114611cc457611ce0565b6001915050610d12565b60ff841115611cd557611cd5611b40565b50506001821b610d12565b5060208310610133831016604e8410600b8410161715611d03575081810a610d12565b611d0d8383611c45565b8060001904821115611d2157611d21611b40565b029392505050565b6000610dcb60ff841683611c88565b600082611d4757611d47611bf8565b50069056fea2646970667358221220dcf2ea062a78ead38f4caff4eebbe7d2574361b898f3f88cc7c31943c8296f9a64736f6c63430008110033",
  "devdoc": {
    "kind": "dev",
    "methods": {
      "aggregateValues(uint256[])": {
        "details": "This function may be overridden by the child consumer contract. It should aggregate values from different signers to a single uint value. By default, it calculates the median value",
        "params": {
          "values": "An array of uint256 values from different signers"
        },
        "returns": {
          "_0": "Result of the aggregation in the form of a single number"
        }
      },
      "getDataServiceId()": {
        "details": "This function must be implemented by the child consumer contract. It should return dataServiceId which DataServiceWrapper will use if not provided explicitly . If not overridden, value will always have to be provided explicitly in DataServiceWrapper.",
        "returns": {
          "_0": "dataServiceId being consumed by contract"
        }
      },
      "getHealthMeter()": {
        "details": "This function uses the redstone-evm-connector"
      },
      "getUniqueSignersThreshold()": {
        "details": "This function should be overridden by the child consumer contract.",
        "returns": {
          "_0": "The minimum required value of unique authorised signers"
        }
      },
      "validateTimestamp(uint256)": {
        "details": "This function may be overridden by the child consumer contract. It should validate the timestamp against the current time (block.timestamp) It should revert with a helpful message if the timestamp is not valid",
        "params": {
          "receivedTimestampMilliseconds": "Timestamp extracted from calldata"
        }
      }
    },
    "version": 1
  },
  "userdoc": {
    "kind": "user",
    "methods": {
      "getHealthMeter()": {
        "notice": "Returns current health meter (0% - 100%) associated with the loan"
      }
    },
    "version": 1
  },
  "storageLayout": {
    "storage": [],
    "types": null
  }
}