{
  "address": "0xfa9a2c6C0c0c56772A6f961B2734042fa5F04743",
  "abi": [
    {
      "inputs": [],
      "name": "CalldataMustHaveValidPayload",
      "type": "error"
    },
    {
      "inputs": [],
      "name": "CalldataOverOrUnderFlow",
      "type": "error"
    },
    {
      "inputs": [],
      "name": "CanNotPickMedianOfEmptyArray",
      "type": "error"
    },
    {
      "inputs": [],
      "name": "EachSignerMustProvideTheSameValue",
      "type": "error"
    },
    {
      "inputs": [],
      "name": "EmptyCalldataPointersArr",
      "type": "error"
    },
    {
      "inputs": [],
      "name": "IncorrectUnsignedMetadataSize",
      "type": "error"
    },
    {
      "inputs": [
        {
          "internalType": "uint256",
          "name": "receivedSignersCount",
          "type": "uint256"
        },
        {
          "internalType": "uint256",
          "name": "requiredSignersCount",
          "type": "uint256"
        }
      ],
      "name": "InsufficientNumberOfUniqueSigners",
      "type": "error"
    },
    {
      "inputs": [],
      "name": "InvalidCalldataPointer",
      "type": "error"
    },
    {
      "inputs": [
        {
          "internalType": "address",
          "name": "receivedSigner",
          "type": "address"
        }
      ],
      "name": "SignerNotAuthorised",
      "type": "error"
    },
    {
      "inputs": [
        {
          "internalType": "uint256",
          "name": "receivedTimestampSeconds",
          "type": "uint256"
        },
        {
          "internalType": "uint256",
          "name": "blockTimestamp",
          "type": "uint256"
        }
      ],
      "name": "TimestampFromTooLongFuture",
      "type": "error"
    },
    {
      "inputs": [
        {
          "internalType": "uint256",
          "name": "receivedTimestampSeconds",
          "type": "uint256"
        },
        {
          "internalType": "uint256",
          "name": "blockTimestamp",
          "type": "uint256"
        }
      ],
      "name": "TimestampIsTooOld",
      "type": "error"
    },
    {
      "inputs": [
        {
          "internalType": "uint256[]",
          "name": "values",
          "type": "uint256[]"
        }
      ],
      "name": "aggregateValues",
      "outputs": [
        {
          "internalType": "uint256",
          "name": "",
          "type": "uint256"
        }
      ],
      "stateMutability": "view",
      "type": "function"
    },
    {
      "inputs": [
        {
          "internalType": "address",
          "name": "signerAddress",
          "type": "address"
        }
      ],
      "name": "getAuthorisedSignerIndex",
      "outputs": [
        {
          "internalType": "uint8",
          "name": "",
          "type": "uint8"
        }
      ],
      "stateMutability": "view",
      "type": "function"
    },
    {
      "inputs": [],
      "name": "getHealthMeter",
      "outputs": [
        {
          "internalType": "uint256",
          "name": "",
          "type": "uint256"
        }
      ],
      "stateMutability": "view",
      "type": "function"
    },
    {
      "inputs": [],
      "name": "getUniqueSignersThreshold",
      "outputs": [
        {
          "internalType": "uint8",
          "name": "",
          "type": "uint8"
        }
      ],
      "stateMutability": "view",
      "type": "function"
    },
    {
      "inputs": [
        {
          "internalType": "uint256",
          "name": "receivedTimestampMilliseconds",
          "type": "uint256"
        }
      ],
      "name": "validateTimestamp",
      "outputs": [],
      "stateMutability": "view",
      "type": "function"
    }
  ],
  "transactionHash": "0x0f74411d78e48c0356ebe097d671ffda46851102e4ae07c0e68c564c8abc968d",
  "args": [],
  "numDeployments": 1,
  "solcInputHash": "df1283a8a5dce28cc53341ca24ade9cb",
  "bytecode": "0x608060405234801561001057600080fd5b50612513806100206000396000f3fe608060405234801561001057600080fd5b50600436106100575760003560e01c80633ce142f51461005c5780639104c6401461008c578063b24ebfcc146100aa578063f50b2efe146100da578063f90c4924146100f6575b600080fd5b61007660048036038101906100719190611cfe565b610114565b6040516100839190611d47565b60405180910390f35b6100946102e8565b6040516100a19190611d7b565b60405180910390f35b6100c460048036038101906100bf9190611f1b565b610ca6565b6040516100d19190611d7b565b60405180910390f35b6100f460048036038101906100ef9190611f64565b610cb8565b005b6100fe610cc4565b60405161010b9190611d47565b60405180910390f35b6000731ea62d73edf8ac05dfcea1a34b9796e937a29eff73ffffffffffffffffffffffffffffffffffffffff168273ffffffffffffffffffffffffffffffffffffffff160361016657600090506102e3565b732c59617248994d12816ee1fa77ce0a64eeb456bf73ffffffffffffffffffffffffffffffffffffffff168273ffffffffffffffffffffffffffffffffffffffff16036101b657600190506102e3565b7312470f7aba85c8b81d63137dd5925d6ee114952b73ffffffffffffffffffffffffffffffffffffffff168273ffffffffffffffffffffffffffffffffffffffff160361020657600290506102e3565b73109b4a318a4f5ddcbca6349b45f881b4137deafb73ffffffffffffffffffffffffffffffffffffffff168273ffffffffffffffffffffffffffffffffffffffff160361025657600390506102e3565b7383cba8c619fb629b81a65c2e67fe15cf3e3c974773ffffffffffffffffffffffffffffffffffffffff168273ffffffffffffffffffffffffffffffffffffffff16036102a657600490506102e3565b816040517fec459bc00000000000000000000000000000000000000000000000000000000081526004016102da9190611fa0565b60405180910390fd5b919050565b6000806102f3610ccd565b905060006102ff610dcb565b9050600061030b610df3565b90506000806a52b7d2dcc80cd2e40000008373ffffffffffffffffffffffffffffffffffffffff16636953c06c8573ffffffffffffffffffffffffffffffffffffffff166325eb876f8860016040518363ffffffff1660e01b8152600401610374929190611fef565b602060405180830381865afa158015610391573d6000803e3d6000fd5b505050506040513d601f19601f820116820180604052508101906103b5919061202d565b6040518263ffffffff1660e01b81526004016103d19190611fa0565b602060405180830381865afa1580156103ee573d6000803e3d6000fd5b505050506040513d601f19601f82011682018060405250810190610412919061206f565b47876000815181106104275761042661209c565b5b60200260200101516020015161043d91906120fa565b61044791906120fa565b610451919061216b565b90506000806000805b8851811015610bfa5760008773ffffffffffffffffffffffffffffffffffffffff16630edc25b68b84815181106104945761049361209c565b5b6020026020010151600001516040518263ffffffff1660e01b81526004016104bc919061219c565b602060405180830381865afa1580156104d9573d6000803e3d6000fd5b505050506040513d601f19601f820116820180604052508101906104fd919061202d565b905060008873ffffffffffffffffffffffffffffffffffffffff166325eb876f8c85815181106105305761052f61209c565b5b60200260200101516000015160016040518363ffffffff1660e01b815260040161055b929190611fef565b602060405180830381865afa158015610578573d6000803e3d6000fd5b505050506040513d601f19601f8201168201806040525081019061059c919061202d565b905060008173ffffffffffffffffffffffffffffffffffffffff166370a08231306040518263ffffffff1660e01b81526004016105d99190611fa0565b602060405180830381865afa1580156105f6573d6000803e3d6000fd5b505050506040513d601f19601f8201168201806040525081019061061a919061206f565b905060008373ffffffffffffffffffffffffffffffffffffffff16636011163e306040518263ffffffff1660e01b81526004016106579190611fa0565b602060405180830381865afa158015610674573d6000803e3d6000fd5b505050506040513d601f19601f82011682018060405250810190610698919061206f565b905080821115610801576305f5e1008373ffffffffffffffffffffffffffffffffffffffff1663313ce5676040518163ffffffff1660e01b8152600401602060405180830381865afa1580156106f2573d6000803e3d6000fd5b505050506040513d601f19601f8201168201806040525081019061071691906121e3565b600a6107229190612343565b61072c91906120fa565b8b73ffffffffffffffffffffffffffffffffffffffff16636953c06c856040518263ffffffff1660e01b81526004016107659190611fa0565b602060405180830381865afa158015610782573d6000803e3d6000fd5b505050506040513d601f19601f820116820180604052508101906107a6919061206f565b82846107b2919061238e565b8f88815181106107c5576107c461209c565b5b6020026020010151602001516107db91906120fa565b6107e591906120fa565b6107ef919061216b565b896107fa91906123c2565b985061095c565b6305f5e1008373ffffffffffffffffffffffffffffffffffffffff1663313ce5676040518163ffffffff1660e01b8152600401602060405180830381865afa158015610851573d6000803e3d6000fd5b505050506040513d601f19601f8201168201806040525081019061087591906121e3565b600a6108819190612343565b61088b91906120fa565b8b73ffffffffffffffffffffffffffffffffffffffff16636953c06c856040518263ffffffff1660e01b81526004016108c49190611fa0565b602060405180830381865afa1580156108e1573d6000803e3d6000fd5b505050506040513d601f19601f82011682018060405250810190610905919061206f565b8383610911919061238e565b8f88815181106109245761092361209c565b5b60200260200101516020015161093a91906120fa565b61094491906120fa565b61094e919061216b565b8861095991906123c2565b97505b6305f5e1008373ffffffffffffffffffffffffffffffffffffffff1663313ce5676040518163ffffffff1660e01b8152600401602060405180830381865afa1580156109ac573d6000803e3d6000fd5b505050506040513d601f19601f820116820180604052508101906109d091906121e3565b600a6109dc9190612343565b6109e691906120fa565b8b73ffffffffffffffffffffffffffffffffffffffff16636953c06c856040518263ffffffff1660e01b8152600401610a1f9190611fa0565b602060405180830381865afa158015610a3c573d6000803e3d6000fd5b505050506040513d601f19601f82011682018060405250810190610a60919061206f565b8573ffffffffffffffffffffffffffffffffffffffff16636011163e306040518263ffffffff1660e01b8152600401610a999190611fa0565b602060405180830381865afa158015610ab6573d6000803e3d6000fd5b505050506040513d601f19601f82011682018060405250810190610ada919061206f565b8f8881518110610aed57610aec61209c565b5b602002602001015160200151610b0391906120fa565b610b0d91906120fa565b610b17919061216b565b87610b2291906123c2565b96506305f5e1008473ffffffffffffffffffffffffffffffffffffffff16636011163e306040518263ffffffff1660e01b8152600401610b629190611fa0565b602060405180830381865afa158015610b7f573d6000803e3d6000fd5b505050506040513d601f19601f82011682018060405250810190610ba3919061206f565b8e8781518110610bb657610bb561209c565b5b602002602001015160200151610bcc91906120fa565b610bd6919061216b565b86610be191906123c2565b9550505050508080610bf2906123f6565b91505061045a565b5082841115610c12578284610c0f919061238e565b94505b600068056bc75e2d63100000905060008203610c3957809950505050505050505050610ca3565b600086118015610c535750818387610c5191906123c2565b115b15610c95578581838589610c6791906123c2565b610c71919061238e565b610c7b91906120fa565b610c85919061216b565b9950505050505050505050610ca3565b600099505050505050505050505b90565b6000610cb182610e0f565b9050919050565b610cc181610e21565b50565b60006003905090565b60606000610cd9610eeb565b90506000610ce682611032565b9050815167ffffffffffffffff811115610d0357610d02611dac565b5b604051908082528060200260200182016040528015610d3c57816020015b610d29611c6f565b815260200190600190039081610d215790505b50925060005b8251811015610dc5576040518060400160405280848381518110610d6957610d6861209c565b5b60200260200101518152602001838381518110610d8957610d8861209c565b5b6020026020010151815250848281518110610da757610da661209c565b5b60200260200101819052508080610dbd906123f6565b915050610d42565b50505090565b60007f4156415800000000000000000000000000000000000000000000000000000000905090565b600073f3978209b7cff2b90100c6f87cec77de928ed58e905090565b6000610e1a82611044565b9050919050565b60006103e882610e31919061216b565b905080421015610e9357603c4282610e49919061238e565b1115610e8e5780426040517fb6b0916d000000000000000000000000000000000000000000000000000000008152600401610e8592919061243e565b60405180910390fd5b610ee7565b60b48142610ea1919061238e565b1115610ee65780426040517f0321d0b5000000000000000000000000000000000000000000000000000000008152600401610edd92919061243e565b60405180910390fd5b5b5050565b60606000610ef7611138565b90506000610f03610dcb565b90506000610f10826111ab565b610f275760018351610f2291906123c2565b610f2a565b82515b905060008167ffffffffffffffff811115610f4857610f47611dac565b5b604051908082528060200260200182016040528015610f765781602001602082028036833780820191505090505b50905060008382600081518110610f9057610f8f61209c565b5b60200260200101818152505060005b85518110156110265784868281518110610fbc57610fbb61209c565b5b60200260200101511461101357600182610fd691906123c2565b9150858181518110610feb57610fea61209c565b5b60200260200101518383815181106110065761100561209c565b5b6020026020010181815250505b808061101e906123f6565b915050610f9f565b50819550505050505090565b606061103d826111d6565b9050919050565b600080825103611080576040517f9e198af900000000000000000000000000000000000000000000000000000000815260040160405180910390fd5b611089826113e5565b600060028351611099919061216b565b90506000600284516110ab9190612467565b036111145760006110fc846001846110c3919061238e565b815181106110d4576110d361209c565b5b60200260200101518584815181106110ef576110ee61209c565b5b6020026020010151611438565b905060028161110b919061216b565b92505050611133565b8281815181106111275761112661209c565b5b60200260200101519150505b919050565b6060600061114461144e565b9050806004016000016000016000016000018054806020026020016040519081016040528092919081815260200182805480156111a057602002820191906000526020600020905b81548152602001906001019080831161118c575b505050505091505090565b6000806111b661144e565b90506111ce838260040161147b90919063ffffffff16565b915050919050565b60606000825167ffffffffffffffff8111156111f5576111f4611dac565b5b6040519080825280602002602001820160405280156112235781602001602082028036833780820191505090505b5090506000835167ffffffffffffffff81111561124357611242611dac565b5b6040519080825280602002602001820160405280156112715781602001602082028036833780820191505090505b5090506000845167ffffffffffffffff81111561129157611290611dac565b5b6040519080825280602002602001820160405280156112c457816020015b60608152602001906001900390816112af5790505b50905060005b8551811015611357576112db610cc4565b60ff1667ffffffffffffffff8111156112f7576112f6611dac565b5b6040519080825280602002602001820160405280156113255781602001602082028036833780820191505090505b508282815181106113395761133861209c565b5b6020026020010181905250808061134f906123f6565b9150506112ca565b506000611362611492565b9050600061136f826115a3565b61ffff16905060028261138291906123c2565b91506000604051905060005b828110156113cd5760006113a58a898989896115ff565b905080856113b391906123c2565b9450826040525080806113c5906123f6565b91505061138e565b506113d884876118f7565b9650505050505050919050565b805160208201602082028101815b8181101561143157825b81811015611425578151815180821015611418578084528183525b50506020810190506113fd565b506020810190506113f3565b5050505050565b6000818361144691906123c2565b905092915050565b6000807f8d5bb42e0ac1496a2c326edc9c00758985246e6c2bb146d6c2f4a0d509e0960a90508091505090565b600061148a8360000183611a44565b905092915050565b60008060203603356602ed57011e000081166602ed57011e000014915050806114e7576040517fe7764c9e00000000000000000000000000000000000000000000000000000000815260040160405180910390fd5b60008036905060291115611527576040517f5796f78a00000000000000000000000000000000000000000000000000000000815260040160405180910390fd5b602936033590506000600960038362ffffff1661154491906123c2565b61154e91906123c2565b9050600036905060028261156291906123c2565b111561159a576040517fc30a7bd700000000000000000000000000000000000000000000000000000000815260040160405180910390fd5b80935050505090565b6000806020836115b391906123c2565b905060003690508111156115f3576040517f5796f78a00000000000000000000000000000000000000000000000000000000815260040160405180910390fd5b80360335915050919050565b60008060008061160e85611a64565b91509150600080600060606000600d61163c60208861162d91906123c2565b89611ada90919063ffffffff16565b61164691906123c2565b9050600061166d60688c61165a91906123c2565b6000369050611af090919063ffffffff16565b9050600061169f8360418e61168291906123c2565b61168c91906123c2565b6000369050611af090919063ffffffff16565b90506116ab83826116d9565b93508260208501209450813596506116f5565b60006040519050818152602081019050818101604052919050565b60006116e4836116be565b838382376020810391505092915050565b6117068765ffffffffffff16610cb8565b61171c8560418e61171791906123c2565b611b06565b955061172786610114565b60ff1699505050505050505060008060005b848110156118c25761174c888583611b85565b809350819450505060005b8c518110156118ae578c81815181106117735761177261209c565b5b6020026020010151840361189b5760008b82815181106117965761179561209c565b5b602002602001015190506117aa8189611c0b565b1580156117da57506117ba610cc4565b60ff168d83815181106117d0576117cf61209c565b5b6020026020010151105b15611895578c82815181106117f2576117f161209c565b5b602002602001018051809190611807906123f6565b81525050838b838151811061181f5761181e61209c565b5b602002602001015160018f858151811061183c5761183b61209c565b5b602002602001015161184e919061238e565b8151811061185f5761185e61209c565b5b6020026020010181815250506118758189611c24565b8c83815181106118885761188761209c565b5b6020026020010181815250505b506118ae565b80806118a6906123f6565b915050611757565b5080806118ba906123f6565b915050611739565b505050816020826118d391906123c2565b6118dd91906120fa565b604e6118e991906123c2565b935050505095945050505050565b60606000835167ffffffffffffffff81111561191657611915611dac565b5b6040519080825280602002602001820160405280156119445781602001602082028036833780820191505090505b5090506000611951610cc4565b60ff16905060005b8551811015611a3857818582815181106119765761197561209c565b5b602002602001015110156119dd578481815181106119975761199661209c565b5b6020026020010151826040517f2b13aef50000000000000000000000000000000000000000000000000000000081526004016119d492919061243e565b60405180910390fd5b6000611a028783815181106119f5576119f461209c565b5b6020026020010151610ca6565b905080848381518110611a1857611a1761209c565b5b602002602001018181525050508080611a30906123f6565b915050611959565b50819250505092915050565b6000611a5c8284600001611c3590919063ffffffff16565b905092915050565b6000806000806000604186611a7991906123c2565b90506000611aa0602083611a8d91906123c2565b6000369050611af090919063ffffffff16565b905080359350611aba600382611af090919063ffffffff16565b9050803592508362ffffff1695508263ffffffff16945050505050915091565b60008183611ae891906120fa565b905092915050565b60008183611afe919061238e565b905092915050565b6000806000808436038035935060208101905080359250602081019050803560001a91505060018682858560405160008152602001604052604051611b4e9493929190612498565b6020604051602081039080840390855afa158015611b70573d6000803e3d6000fd5b50505060206040510351935050505092915050565b6000806000604e86611b9791906123c2565b90506000611bd8611bc9602088611bae91906123c2565b876001611bbb91906123c2565b611ada90919063ffffffff16565b8361143890919063ffffffff16565b90506000611bf3826000369050611af090919063ffffffff16565b90508035945060208101359350505050935093915050565b600080826001901b841690506000811191505092915050565b6000816001901b8317905092915050565b6000611c448360000183611c4c565b905092915050565b600080836001016000848152602001908152602001600020541415905092915050565b604051806040016040528060008019168152602001600081525090565b6000604051905090565b600080fd5b600080fd5b600073ffffffffffffffffffffffffffffffffffffffff82169050919050565b6000611ccb82611ca0565b9050919050565b611cdb81611cc0565b8114611ce657600080fd5b50565b600081359050611cf881611cd2565b92915050565b600060208284031215611d1457611d13611c96565b5b6000611d2284828501611ce9565b91505092915050565b600060ff82169050919050565b611d4181611d2b565b82525050565b6000602082019050611d5c6000830184611d38565b92915050565b6000819050919050565b611d7581611d62565b82525050565b6000602082019050611d906000830184611d6c565b92915050565b600080fd5b6000601f19601f8301169050919050565b7f4e487b7100000000000000000000000000000000000000000000000000000000600052604160045260246000fd5b611de482611d9b565b810181811067ffffffffffffffff82111715611e0357611e02611dac565b5b80604052505050565b6000611e16611c8c565b9050611e228282611ddb565b919050565b600067ffffffffffffffff821115611e4257611e41611dac565b5b602082029050602081019050919050565b600080fd5b611e6181611d62565b8114611e6c57600080fd5b50565b600081359050611e7e81611e58565b92915050565b6000611e97611e9284611e27565b611e0c565b90508083825260208201905060208402830185811115611eba57611eb9611e53565b5b835b81811015611ee35780611ecf8882611e6f565b845260208401935050602081019050611ebc565b5050509392505050565b600082601f830112611f0257611f01611d96565b5b8135611f12848260208601611e84565b91505092915050565b600060208284031215611f3157611f30611c96565b5b600082013567ffffffffffffffff811115611f4f57611f4e611c9b565b5b611f5b84828501611eed565b91505092915050565b600060208284031215611f7a57611f79611c96565b5b6000611f8884828501611e6f565b91505092915050565b611f9a81611cc0565b82525050565b6000602082019050611fb56000830184611f91565b92915050565b6000819050919050565b611fce81611fbb565b82525050565b60008115159050919050565b611fe981611fd4565b82525050565b60006040820190506120046000830185611fc5565b6120116020830184611fe0565b9392505050565b60008151905061202781611cd2565b92915050565b60006020828403121561204357612042611c96565b5b600061205184828501612018565b91505092915050565b60008151905061206981611e58565b92915050565b60006020828403121561208557612084611c96565b5b60006120938482850161205a565b91505092915050565b7f4e487b7100000000000000000000000000000000000000000000000000000000600052603260045260246000fd5b7f4e487b7100000000000000000000000000000000000000000000000000000000600052601160045260246000fd5b600061210582611d62565b915061211083611d62565b925082820261211e81611d62565b91508282048414831517612135576121346120cb565b5b5092915050565b7f4e487b7100000000000000000000000000000000000000000000000000000000600052601260045260246000fd5b600061217682611d62565b915061218183611d62565b9250826121915761219061213c565b5b828204905092915050565b60006020820190506121b16000830184611fc5565b92915050565b6121c081611d2b565b81146121cb57600080fd5b50565b6000815190506121dd816121b7565b92915050565b6000602082840312156121f9576121f8611c96565b5b6000612207848285016121ce565b91505092915050565b60008160011c9050919050565b6000808291508390505b600185111561226757808604811115612243576122426120cb565b5b60018516156122525780820291505b808102905061226085612210565b9450612227565b94509492505050565b600082612280576001905061233c565b8161228e576000905061233c565b81600181146122a457600281146122ae576122dd565b600191505061233c565b60ff8411156122c0576122bf6120cb565b5b8360020a9150848211156122d7576122d66120cb565b5b5061233c565b5060208310610133831016604e8410600b84101617156123125782820a90508381111561230d5761230c6120cb565b5b61233c565b61231f848484600161221d565b92509050818404811115612336576123356120cb565b5b81810290505b9392505050565b600061234e82611d62565b915061235983611d2b565b92506123867fffffffffffffffffffffffffffffffffffffffffffffffffffffffffffffffff8484612270565b905092915050565b600061239982611d62565b91506123a483611d62565b92508282039050818111156123bc576123bb6120cb565b5b92915050565b60006123cd82611d62565b91506123d883611d62565b92508282019050808211156123f0576123ef6120cb565b5b92915050565b600061240182611d62565b91507fffffffffffffffffffffffffffffffffffffffffffffffffffffffffffffffff8203612433576124326120cb565b5b600182019050919050565b60006040820190506124536000830185611d6c565b6124606020830184611d6c565b9392505050565b600061247282611d62565b915061247d83611d62565b92508261248d5761248c61213c565b5b828206905092915050565b60006080820190506124ad6000830187611fc5565b6124ba6020830186611d38565b6124c76040830185611fc5565b6124d46060830184611fc5565b9594505050505056fea264697066735822122022b150679e1e27f92e1714243c5d2f1ca901f5616735bf6ca68db59361414b3f64736f6c63430008110033",
  "devdoc": {
    "kind": "dev",
    "methods": {
      "aggregateValues(uint256[])": {
        "details": "This function may be overridden by the child consumer contract. It should aggregate values from different signers to a single uint value. By default, it calculates the median value",
        "params": {
          "values": "An array of uint256 values from different signers"
        },
        "returns": {
          "_0": "Result of the aggregation in the form of a single number"
        }
      },
      "getHealthMeter()": {
        "details": "This function uses the redstone-evm-connector"
      },
      "getUniqueSignersThreshold()": {
        "details": "This function should be overridden by the child consumer contract.",
        "returns": {
          "_0": "The minimum required value of unique authorised signers"
        }
      },
      "validateTimestamp(uint256)": {
        "details": "This function may be overridden by the child consumer contract. It should validate the timestamp against the current time (block.timestamp) It should revert with a helpful message if the timestamp is not valid",
        "params": {
          "receivedTimestampMilliseconds": "Timestamp extracted from calldata"
        }
      }
    },
    "version": 1
  },
  "userdoc": {
    "kind": "user",
    "methods": {
      "getHealthMeter()": {
        "notice": "Returns current health meter (0% - 100%) associated with the loan"
      }
    },
    "version": 1
  },
  "storageLayout": {
    "storage": [],
    "types": null
  }
}