{
  "address": "0x912751Febb68fE9bC2b4dBe7042274fD581b8865",
  "abi": [
    {
      "inputs": [],
      "name": "CalldataMustHaveValidPayload",
      "type": "error"
    },
    {
      "inputs": [],
      "name": "CalldataOverOrUnderFlow",
      "type": "error"
    },
    {
      "inputs": [],
      "name": "CanNotPickMedianOfEmptyArray",
      "type": "error"
    },
    {
      "inputs": [],
      "name": "DataPackageTimestampMustNotBeZero",
      "type": "error"
    },
    {
      "inputs": [],
      "name": "DataPackageTimestampsMustBeEqual",
      "type": "error"
    },
    {
      "inputs": [],
      "name": "EachSignerMustProvideTheSameValue",
      "type": "error"
    },
    {
      "inputs": [],
      "name": "EmptyCalldataPointersArr",
      "type": "error"
    },
    {
      "inputs": [],
      "name": "GetDataServiceIdNotImplemented",
      "type": "error"
    },
    {
      "inputs": [],
      "name": "IncorrectUnsignedMetadataSize",
      "type": "error"
    },
    {
      "inputs": [
        {
          "internalType": "uint256",
          "name": "receivedSignersCount",
          "type": "uint256"
        },
        {
          "internalType": "uint256",
          "name": "requiredSignersCount",
          "type": "uint256"
        }
      ],
      "name": "InsufficientNumberOfUniqueSigners",
      "type": "error"
    },
    {
      "inputs": [],
      "name": "InvalidCalldataPointer",
      "type": "error"
    },
    {
      "inputs": [],
      "name": "PriceSymbolPositionMismatch",
      "type": "error"
    },
    {
      "inputs": [],
      "name": "RedstonePayloadMustHaveAtLeastOneDataPackage",
      "type": "error"
    },
    {
      "inputs": [
        {
          "internalType": "address",
          "name": "receivedSigner",
          "type": "address"
        }
      ],
      "name": "SignerNotAuthorised",
      "type": "error"
    },
    {
      "inputs": [
        {
          "internalType": "uint256",
          "name": "receivedTimestampSeconds",
          "type": "uint256"
        },
        {
          "internalType": "uint256",
          "name": "blockTimestamp",
          "type": "uint256"
        }
      ],
      "name": "TimestampFromTooLongFuture",
      "type": "error"
    },
    {
      "inputs": [
        {
          "internalType": "uint256",
          "name": "receivedTimestampSeconds",
          "type": "uint256"
        },
        {
          "internalType": "uint256",
          "name": "blockTimestamp",
          "type": "uint256"
        }
      ],
      "name": "TimestampIsTooOld",
      "type": "error"
    },
    {
      "inputs": [],
      "name": "Uint256x256Math__MulDivOverflow",
      "type": "error"
    },
    {
      "inputs": [],
      "name": "Uint256x256Math__MulShiftOverflow",
      "type": "error"
    },
    {
      "inputs": [
        {
          "internalType": "uint256[]",
          "name": "values",
          "type": "uint256[]"
        }
      ],
      "name": "aggregateValues",
      "outputs": [
        {
          "internalType": "uint256",
          "name": "",
          "type": "uint256"
        }
      ],
      "stateMutability": "view",
      "type": "function"
    },
    {
      "inputs": [],
      "name": "extractTimestampsAndAssertAllAreEqual",
      "outputs": [
        {
          "internalType": "uint256",
          "name": "extractedTimestamp",
          "type": "uint256"
        }
      ],
      "stateMutability": "pure",
      "type": "function"
    },
    {
      "inputs": [
        {
          "internalType": "address",
          "name": "signerAddress",
          "type": "address"
        }
      ],
      "name": "getAuthorisedSignerIndex",
      "outputs": [
        {
          "internalType": "uint8",
          "name": "",
          "type": "uint8"
        }
      ],
      "stateMutability": "view",
      "type": "function"
    },
    {
      "inputs": [],
      "name": "getDataServiceId",
      "outputs": [
        {
          "internalType": "string",
          "name": "",
          "type": "string"
        }
      ],
      "stateMutability": "view",
      "type": "function"
    },
    {
      "inputs": [],
      "name": "getHealthMeter",
      "outputs": [
        {
          "internalType": "uint256",
          "name": "",
          "type": "uint256"
        }
      ],
      "stateMutability": "view",
      "type": "function"
    },
    {
      "inputs": [],
      "name": "getStakedPositionsPrices",
      "outputs": [
        {
          "components": [
            {
              "internalType": "bytes32",
              "name": "asset",
              "type": "bytes32"
            },
            {
              "internalType": "uint256",
              "name": "price",
              "type": "uint256"
            }
          ],
          "internalType": "struct HealthMeterFacetProd.AssetPrice[]",
          "name": "result",
          "type": "tuple[]"
        }
      ],
      "stateMutability": "view",
      "type": "function"
    },
    {
      "inputs": [],
      "name": "getUniqueSignersThreshold",
      "outputs": [
        {
          "internalType": "uint8",
          "name": "",
          "type": "uint8"
        }
      ],
      "stateMutability": "view",
      "type": "function"
    },
    {
      "inputs": [
        {
          "internalType": "uint256",
          "name": "receivedTimestampMilliseconds",
          "type": "uint256"
        }
      ],
      "name": "validateTimestamp",
      "outputs": [],
      "stateMutability": "view",
      "type": "function"
    }
  ],
  "transactionHash": "0x4fa4a0cf43ffe3bb6606ea9360d32d276fe04d17a64ab0cfd27292680d3d5113",
  "args": [],
  "numDeployments": 3,
  "solcInputHash": "926648424d0d5d1436089b68a5df80c2",
  "bytecode": "0x608060405234801561001057600080fd5b50613325806100206000396000f3fe608060405234801561001057600080fd5b50600436106100785760003560e01c80633ce142f51461007d57806355a547d5146100a75780638be3471a146100bd5780639104c640146100d2578063b24ebfcc146100da578063c274583a146100ed578063f50b2efe14610126578063f90c49241461013b575b600080fd5b61009061008b366004612ec6565b610142565b60405160ff90911681526020015b60405180910390f35b6100af610249565b60405190815260200161009e565b6100c5610361565b60405161009e9190612ee3565b6100af610504565b6100af6100e8366004612f48565b610eeb565b60408051808201825260178152761c99591cdd1bdb994b585d985b185b98da194b5c1c9bd9604a1b6020820152905161009e919061301d565b610139610134366004613050565b610efc565b005b6003610090565b60006001600160a01b038216731ea62d73edf8ac05dfcea1a34b9796e937a29eff0361017057506000919050565b6001600160a01b038216732c59617248994d12816ee1fa77ce0a64eeb456bf0361019c57506001919050565b6001600160a01b0382167312470f7aba85c8b81d63137dd5925d6ee114952b036101c857506002919050565b6001600160a01b03821673109b4a318a4f5ddcbca6349b45f881b4137deafb036101f457506003919050565b6001600160a01b0382167383cba8c619fb629b81a65c2e67fe15cf3e3c97470361022057506004919050565b816040516303b1166f60e61b815260040161023b9190613069565b60405180910390fd5b919050565b600080610254610f08565b9050600061026182610fb6565b61ffff1690508060000361028857604051632154bfcf60e21b815260040160405180910390fd5b610293600283613093565b915060005b8181101561035b5760006102ab84610ff0565b90506000806102bb606887613093565b905060006102c982366130a6565b9050803592508265ffffffffffff166000036102f857604051630336dc9d60e41b815260040160405180910390fd5b87600003610310578265ffffffffffff169750610338565b878365ffffffffffff16146103385760405163d9d1f46560e01b815260040160405180910390fd5b6103428488613093565b9650505050508080610353906130b9565b915050610298565b50505090565b6060600061036d61102c565b80549091506000906001600160401b0381111561038c5761038c612f32565b6040519080825280602002602001820160405280156103b5578160200160208202803683370190505b50905060005b8254811015610417578281815481106103d6576103d66130d2565b9060005260206000209060040201600101548282815181106103fa576103fa6130d2565b60209081029190910101528061040f816130b9565b9150506103bb565b5060006104238261103e565b905080516001600160401b0381111561043e5761043e612f32565b60405190808252806020026020018201604052801561047757816020015b610464612e9a565b81526020019060019003908161045c5790505b50935060005b81518110156104fd5760405180604001604052808483815181106104a3576104a36130d2565b602002602001015181526020018383815181106104c2576104c26130d2565b60200260200101518152508582815181106104df576104df6130d2565b602002602001018190525080806104f5906130b9565b91505061047d565b5050505090565b60008061050f61126b565b9050600061051b61135e565b90506000610527611369565b6040516325eb876f60e01b8152600481018490526001602482015290915060009081906a52b7d2dcc80cd2e4000000906001600160a01b03851690636953c06c9082906325eb876f90604401602060405180830381865afa158015610590573d6000803e3d6000fd5b505050506040513d601f19601f820116820180604052508101906105b491906130e8565b6040518263ffffffff1660e01b81526004016105d09190613069565b602060405180830381865afa1580156105ed573d6000803e3d6000fd5b505050506040513d601f19601f820116820180604052508101906106119190613105565b4787600081518110610625576106256130d2565b60200260200101516020015161063b919061311e565b610645919061311e565b61064f919061314b565b9050600080600061065e611381565b6106689085613093565b9350610672611eea565b61067c9085613093565b935060005b8851811015610e4f576000876001600160a01b03166325eb876f8b84815181106106ad576106ad6130d2565b6020908102919091010151516040516001600160e01b031960e084901b168152600481019190915260016024820152604401602060405180830381865afa1580156106fc573d6000803e3d6000fd5b505050506040513d601f19601f8201168201806040525081019061072091906130e8565b90506000816001600160a01b03166370a08231306040518263ffffffff1660e01b81526004016107509190613069565b602060405180830381865afa15801561076d573d6000803e3d6000fd5b505050506040513d601f19601f820116820180604052508101906107919190613105565b90506000896001600160a01b0316630edc25b68d86815181106107b6576107b66130d2565b6020026020010151600001516040518263ffffffff1660e01b81526004016107e091815260200190565b602060405180830381865afa925050508015610819575060408051601f3d908101601f19168201909252610816918101906130e8565b60015b61095657826001600160a01b031663313ce5676040518163ffffffff1660e01b8152600401602060405180830381865afa15801561085b573d6000803e3d6000fd5b505050506040513d601f19601f8201168201806040525081019061087f919061315f565b61088a90600a613266565b610898906305f5e10061311e565b604051631a54f01b60e21b81526001600160a01b038c1690636953c06c906108c4908790600401613069565b602060405180830381865afa1580156108e1573d6000803e3d6000fd5b505050506040513d601f19601f820116820180604052508101906109059190613105565b838e8781518110610918576109186130d2565b60200260200101516020015161092e919061311e565b610938919061311e565b610942919061314b565b61094c9089613093565b9750505050610e3d565b90506040516330088b1f60e11b81526000906001600160a01b03831690636011163e90610987903090600401613069565b602060405180830381865afa1580156109a4573d6000803e3d6000fd5b505050506040513d601f19601f820116820180604052508101906109c89190613105565b905080831115610b1157836001600160a01b031663313ce5676040518163ffffffff1660e01b8152600401602060405180830381865afa158015610a10573d6000803e3d6000fd5b505050506040513d601f19601f82011682018060405250810190610a34919061315f565b610a3f90600a613266565b610a4d906305f5e10061311e565b604051631a54f01b60e21b81526001600160a01b038d1690636953c06c90610a79908890600401613069565b602060405180830381865afa158015610a96573d6000803e3d6000fd5b505050506040513d601f19601f82011682018060405250810190610aba9190613105565b610ac483866130a6565b8f8881518110610ad657610ad66130d2565b602002602001015160200151610aec919061311e565b610af6919061311e565b610b00919061314b565b610b0a908a613093565b9850610c4c565b836001600160a01b031663313ce5676040518163ffffffff1660e01b8152600401602060405180830381865afa158015610b4f573d6000803e3d6000fd5b505050506040513d601f19601f82011682018060405250810190610b73919061315f565b610b7e90600a613266565b610b8c906305f5e10061311e565b604051631a54f01b60e21b81526001600160a01b038d1690636953c06c90610bb8908890600401613069565b602060405180830381865afa158015610bd5573d6000803e3d6000fd5b505050506040513d601f19601f82011682018060405250810190610bf99190613105565b610c0385846130a6565b8f8881518110610c1557610c156130d2565b602002602001015160200151610c2b919061311e565b610c35919061311e565b610c3f919061314b565b610c499089613093565b97505b836001600160a01b031663313ce5676040518163ffffffff1660e01b8152600401602060405180830381865afa158015610c8a573d6000803e3d6000fd5b505050506040513d601f19601f82011682018060405250810190610cae919061315f565b610cb990600a613266565b610cc7906305f5e10061311e565b604051631a54f01b60e21b81526001600160a01b038d1690636953c06c90610cf3908890600401613069565b602060405180830381865afa158015610d10573d6000803e3d6000fd5b505050506040513d601f19601f82011682018060405250810190610d349190613105565b828f8881518110610d4757610d476130d2565b602002602001015160200151610d5d919061311e565b610d67919061311e565b610d71919061314b565b610d7b9088613093565b9650836001600160a01b031663313ce5676040518163ffffffff1660e01b8152600401602060405180830381865afa158015610dbb573d6000803e3d6000fd5b505050506040513d601f19601f82011682018060405250810190610ddf919061315f565b610dea90600a613266565b818e8781518110610dfd57610dfd6130d2565b602002602001015160200151610e13919061311e565b610e22906402540be40061311e565b610e2c919061314b565b610e369087613093565b9550505050505b80610e47816130b9565b915050610681565b5082841115610e6557610e6283856130a6565b94505b68056bc75e2d631000006000829003610e85579998505050505050505050565b600086118015610e9d575081610e9b8488613093565b115b15610edb57858183610eaf8684613093565b610eb991906130a6565b610ec3919061311e565b610ecd919061314b565b995050505050505050505090565b6000995050505050505050505090565b6000610ef682612268565b92915050565b610f0581612273565b50565b60006602ed57011e0000601f1936013581161480610f39576040516373bb264f60e11b815260040160405180910390fd5b60003660291115610f5d57604051632bcb7bc560e11b815260040160405180910390fd5b5060281936013560006009610f78600362ffffff8516613093565b610f829190613093565b905036610f90600283613093565b1115610faf5760405163c30a7bd760e01b815260040160405180910390fd5b9392505050565b600080610fc4602084613093565b905036811115610fe757604051632bcb7bc560e11b815260040160405180910390fd5b36033592915050565b6000806000610ffe846122f7565b9092509050604e611010826020613093565b61101a908461311e565b6110249190613093565b949350505050565b600061103661234e565b600701905090565b6060600082516001600160401b0381111561105b5761105b612f32565b604051908082528060200260200182016040528015611084578160200160208202803683370190505b509050600080805b8551811015611155576000925060005b828110156110f8578682815181106110b6576110b66130d2565b60200260200101518582815181106110d0576110d06130d2565b6020026020010151036110e657600193506110f8565b806110f0816130b9565b91505061109c565b508261114357858181518110611110576111106130d2565b602002602001015184838151811061112a5761112a6130d2565b60209081029190910101528161113f816130b9565b9250505b8061114d816130b9565b91505061108c565b50808352600061116484612372565b9050600086516001600160401b0381111561118157611181612f32565b6040519080825280602002602001820160405280156111aa578160200160208202803683370190505b50905060005b87518110156112605760005b865181101561124d578681815181106111d7576111d76130d2565b60200260200101518983815181106111f1576111f16130d2565b60200260200101510361123b57838181518110611210576112106130d2565b602002602001015183838151811061122a5761122a6130d2565b60200260200101818152505061124d565b80611245816130b9565b9150506111bc565b5080611258816130b9565b9150506111b0565b509695505050505050565b6060600061127761237d565b9050600061128482612372565b905081516001600160401b0381111561129f5761129f612f32565b6040519080825280602002602001820160405280156112d857816020015b6112c5612e9a565b8152602001906001900390816112bd5790505b50925060005b825181101561035b576040518060400160405280848381518110611304576113046130d2565b60200260200101518152602001838381518110611323576113236130d2565b6020026020010151815250848281518110611340576113406130d2565b60200260200101819052508080611356906130b9565b9150506112de565b63082ac82b60e31b90565b73f3978209b7cff2b90100c6f87cec77de928ed58e90565b600080600061138e6124b4565b805480602002602001604051908101604052809291908181526020016000905b828210156113f957600084815260209081902060408051808201909152908401546001600160a01b0381168252600160a01b900462ffffff16818301528252600190920191016113ae565b50505050905061143c604051806080016040528060006001600160a01b0316815260200160006001600160a01b0316815260200160008152602001600081525090565b815115611ee05760005b8251811015611ed7576000838281518110611463576114636130d2565b60200260200101519050600080600083600001516001600160a01b03166305e8746d6040518163ffffffff1660e01b8152600401602060405180830381865afa1580156114b4573d6000803e3d6000fd5b505050506040513d601f19601f820116820180604052508101906114d891906130e8565b9050600084600001516001600160a01b031663da10610c6040518163ffffffff1660e01b8152600401602060405180830381865afa15801561151e573d6000803e3d6000fd5b505050506040513d601f19601f8201168201806040525081019061154291906130e8565b9050816001600160a01b031687600001516001600160a01b031614158061157f5750806001600160a01b031687602001516001600160a01b031614155b15611744576040805160028082526060820183526000926020830190803683370190505090506115ad611369565b6001600160a01b031663f823f1e0846040518263ffffffff1660e01b81526004016115d89190613069565b602060405180830381865afa1580156115f5573d6000803e3d6000fd5b505050506040513d601f19601f820116820180604052508101906116199190613105565b8160008151811061162c5761162c6130d2565b602002602001018181525050611640611369565b6001600160a01b031663f823f1e0836040518263ffffffff1660e01b815260040161166b9190613069565b602060405180830381865afa158015611688573d6000803e3d6000fd5b505050506040513d601f19601f820116820180604052508101906116ac9190613105565b816001815181106116bf576116bf6130d2565b60200260200101818152505060006116d682612372565b90506040518060800160405280856001600160a01b03168152602001846001600160a01b0316815260200182600081518110611714576117146130d2565b6020026020010151815260200182600181518110611734576117346130d2565b6020026020010151815250985050505b505082516020840151604051630157d2d160e31b815262ffffff909116600482015260009182916001600160a01b0390911690630abe9688906024016040805180830381865afa15801561179c573d6000803e3d6000fd5b505050506040513d601f19601f820116820180604052508101906117c0919061328c565b86516020880151604051634c7cffbd60e01b815262ffffff9091166004820152929450909250611845916001600160a01b0390911690634c7cffbd90602401602060405180830381865afa15801561181c573d6000803e3d6000fd5b505050506040513d601f19601f820116820180604052508101906118409190613105565b6124dd565b9350806001600160801b0316670de0b6b3a7640000836001600160801b03168661186f919061311e565b611879919061314b565b6118839190613093565b925050506000611891611369565b6001600160a01b0316636953c06c85600001516001600160a01b03166305e8746d6040518163ffffffff1660e01b8152600401602060405180830381865afa1580156118e1573d6000803e3d6000fd5b505050506040513d601f19601f8201168201806040525081019061190591906130e8565b6040518263ffffffff1660e01b81526004016119219190613069565b602060405180830381865afa15801561193e573d6000803e3d6000fd5b505050506040513d601f19601f820116820180604052508101906119629190613105565b9050600061196e611369565b6001600160a01b0316636953c06c86600001516001600160a01b031663da10610c6040518163ffffffff1660e01b8152600401602060405180830381865afa1580156119be573d6000803e3d6000fd5b505050506040513d601f19601f820116820180604052508101906119e291906130e8565b6040518263ffffffff1660e01b81526004016119fe9190613069565b602060405180830381865afa158015611a1b573d6000803e3d6000fd5b505050506040513d601f19601f82011682018060405250810190611a3f9190613105565b8551602087015160405163bd85b03960e01b815262ffffff9091166004820152919250611eb391670de0b6b3a7640000916001600160a01b03169063bd85b03990602401602060405180830381865afa158015611aa0573d6000803e3d6000fd5b505050506040513d601f19601f82011682018060405250810190611ac49190613105565b87516020890151604051627eeac760e11b815230600482015262ffffff9091166024820152611eac916001600160a01b03169062fdd58e90604401602060405180830381865afa158015611b1c573d6000803e3d6000fd5b505050506040513d601f19601f82011682018060405250810190611b409190613105565b670de0b6b3a7640000611eac69d3c21bcecceda10000008b11611c83576305f5e1008e604001518d600001516001600160a01b03166305e8746d6040518163ffffffff1660e01b8152600401602060405180830381865afa158015611ba9573d6000803e3d6000fd5b505050506040513d601f19601f82011682018060405250810190611bcd91906130e8565b6001600160a01b031663313ce5676040518163ffffffff1660e01b8152600401602060405180830381865afa158015611c0a573d6000803e3d6000fd5b505050506040513d601f19601f82011682018060405250810190611c2e919061315f565b611c3990600a613266565b8d611c448e8e61311e565b611c4e919061314b565b611c6090670de0b6b3a764000061311e565b611c6a919061314b565b611c74919061311e565b611c7e919061314b565b611da3565b6305f5e1008e604001518d600001516001600160a01b03166305e8746d6040518163ffffffff1660e01b8152600401602060405180830381865afa158015611ccf573d6000803e3d6000fd5b505050506040513d601f19601f82011682018060405250810190611cf391906130e8565b6001600160a01b031663313ce5676040518163ffffffff1660e01b8152600401602060405180830381865afa158015611d30573d6000803e3d6000fd5b505050506040513d601f19601f82011682018060405250810190611d54919061315f565b611d5f90600a613266565b611d71670de0b6b3a76400008f61314b565b611d7b8e8e61311e565b611d85919061314b565b611d8f919061314b565b611d99919061311e565b611da3919061314b565b6305f5e1008f606001518e600001516001600160a01b031663da10610c6040518163ffffffff1660e01b8152600401602060405180830381865afa158015611def573d6000803e3d6000fd5b505050506040513d601f19601f82011682018060405250810190611e1391906130e8565b6001600160a01b031663313ce5676040518163ffffffff1660e01b8152600401602060405180830381865afa158015611e50573d6000803e3d6000fd5b505050506040513d601f19601f82011682018060405250810190611e74919061315f565b611e7f90600a613266565b611e898e8d61311e565b611e93919061314b565b611e9d919061311e565b611ea7919061314b565b6124f3565b9190612509565b611ebd908a613093565b985050505050508080611ecf906130b9565b915050611446565b50919392505050565b6000935050505090565b600080611ef5610361565b90506000611f01611369565b90506000611f0d61102c565b90506000805b825481101561225f57828181548110611f2e57611f2e6130d2565b906000526020600020906004020160010154858281518110611f5257611f526130d2565b60200260200101516000015114611f7c57604051631132068d60e31b815260040160405180910390fd5b600080306001600160a01b0316858481548110611f9b57611f9b6130d2565b60009182526020918290206004918202016003015460408051928352602483018152928201805160e09290921b6001600160e01b0319166001600160e01b039092169190911790529051611fef91906132bf565b600060405180830381855afa9150503d806000811461202a576040519150601f19603f3d011682016040523d82523d6000602084013e61202f565b606091505b5091509150811561224a576000818060200190518101906120509190613105565b9050600061205c611369565b6001600160a01b03166325eb876f8a878151811061207c5761207c6130d2565b6020908102919091010151516040516001600160e01b031960e084901b168152600481019190915260016024820152604401602060405180830381865afa1580156120cb573d6000803e3d6000fd5b505050506040513d601f19601f820116820180604052508101906120ef91906130e8565b9050806001600160a01b031663313ce5676040518163ffffffff1660e01b8152600401602060405180830381865afa15801561212f573d6000803e3d6000fd5b505050506040513d601f19601f82011682018060405250810190612153919061315f565b61215e90600a613266565b61216c906305f5e10061311e565b886001600160a01b0316633f8ef5c889888154811061218d5761218d6130d2565b9060005260206000209060040201600201546040518263ffffffff1660e01b81526004016121bd91815260200190565b602060405180830381865afa1580156121da573d6000803e3d6000fd5b505050506040513d601f19601f820116820180604052508101906121fe9190613105565b838b8881518110612211576122116130d2565b602002602001015160200151612227919061311e565b612231919061311e565b61223b919061314b565b6122459087613093565b955050505b50508080612257906130b9565b915050611f13565b50949350505050565b6000610ef682612533565b60006122816103e88361314b565b9050804210156122c357603c61229742836130a6565b11156122bf5760405163b6b0916d60e01b81526004810182905242602482015260440161023b565b5050565b60b46122cf82426130a6565b11156122bf57604051630321d0b560e01b81526004810182905242602482015260440161023b565b600080808080612308604187613093565b9050600061232161231a602084613093565b36906125fe565b8035945090506123328160036125fe565b62ffffff9490941697933563ffffffff16965092945050505050565b7f8d5bb42e0ac1496a2c326edc9c00758985246e6c2bb146d6c2f4a0d509e0960a90565b6060610ef68261260a565b606060006123896127cc565b9050600061239561135e565b905060006123a28261282e565b6123b85782516123b3906001613093565b6123bb565b82515b90506000816001600160401b038111156123d7576123d7612f32565b604051908082528060200260200182016040528015612400578160200160208202803683370190505b50905060008382600081518110612419576124196130d2565b60200260200101818152505060005b85518110156124a95784868281518110612444576124446130d2565b6020026020010151146124975761245c600183613093565b9150858181518110612470576124706130d2565b602002602001015183838151811061248a5761248a6130d2565b6020026020010181815250505b806124a1816130b9565b915050612428565b509095945050505050565b6000807fec548c64bcf9d557a690fde0c6b4431edcdb8662fd4787104fa8658b4664cc61610ef6565b6000610ef682670de0b6b3a76400006080612848565b60008183106125025781610faf565b5090919050565b600080600061251886866128b6565b9150915061252986868685856128d5565b9695505050505050565b6000815160000361255757604051639e198af960e01b815260040160405180910390fd5b61256082612985565b600060028351612570919061314b565b90506002835161258091906132db565b6000036125dc5760006125cf846125986001856130a6565b815181106125a8576125a86130d2565b60200260200101518584815181106125c2576125c26130d2565b60200260200101516129d3565b905061102460028261314b565b8281815181106125ee576125ee6130d2565b6020026020010151915050919050565b6000610faf82846130a6565b6060600082516001600160401b0381111561262757612627612f32565b604051908082528060200260200182016040528015612650578160200160208202803683370190505b509050600083516001600160401b0381111561266e5761266e612f32565b604051908082528060200260200182016040528015612697578160200160208202803683370190505b509050600084516001600160401b038111156126b5576126b5612f32565b6040519080825280602002602001820160405280156126e857816020015b60608152602001906001900390816126d35790505b50905060005b85518110156127465760408051600380825260808201909252906020820160608036833701905050828281518110612728576127286130d2565b6020026020010181905250808061273e906130b9565b9150506126ee565b506000612751610f08565b9050600061275e82610fb6565b61ffff16905061276f600283613093565b60405190925060005b828110156127b557600061278f8a898989896129df565b905061279b8186613093565b9450826040525080806127ad906130b9565b915050612778565b506127c08487612c78565b98975050505050505050565b606060006127d861234e565b6004810180546040805160208084028201810190925282815293945083018282801561282357602002820191906000526020600020905b81548152602001906001019080831161280f575b505050505091505090565b60008061283961234e565b9050610faf6004820184612d90565b600080600061285786866128b6565b915091508160001461286d578360ff1682901c92505b80156128ad57600160ff85161b811061289957604051638e471a8960e01b815260040160405180910390fd5b8360ff166101000361ffff1681901b830192505b50509392505050565b6000806000198385098385029250828110838203039150509250929050565b6000816000036128f6578383816128ee576128ee613135565b04905061297c565b838210612916576040516313eae71560e01b815260040160405180910390fd5b60008486880960018619810187169687900496600081900381900490910186831190950394850291909503949094049390931792505060026003840281188085028203028085028203028085028203028085028203028085028203028085029091030282025b95945050505050565b8051602082016020820281019150805b828110156129cd57815b818110156129c45781518151808210156129ba578084528183525b505060200161299f565b50602001612995565b50505050565b6000610faf8284613093565b6000806000806129ee856122f7565b909250905060008080606081600d612a11612a0a602089613093565b8990612db7565b612a1b9190613093565b90506000612a2d61231a60688d613093565b90506000612a4a83612a4060418f613093565b61231a9190613093565b9050612a568382612a69565b9350826020850120945081359650612a8d565b60408051838152602081850181019092526000910183838237601f19019392505050565b612a9e8765ffffffffffff16610efc565b612ab285612aad60418f613093565b612dc3565b9550612abd86610142565b60ff1699505050505050505060008060005b84811015612c4557612ae2888583612e3b565b909350915060005b8c51811015612c32578c8181518110612b0557612b056130d2565b60200260200101518403612c205760008b8281518110612b2757612b276130d2565b60200260200101519050612b4081896001901b16151590565b158015612b695750600360ff168d8381518110612b5f57612b5f6130d2565b6020026020010151105b15612c1a578c8281518110612b8057612b806130d2565b602002602001018051809190612b95906130b9565b81525050838b8381518110612bac57612bac6130d2565b602002602001015160018f8581518110612bc857612bc86130d2565b6020026020010151612bda91906130a6565b81518110612bea57612bea6130d2565b60209081029190910101526001881b81178c8381518110612c0d57612c0d6130d2565b6020026020010181815250505b50612c32565b80612c2a816130b9565b915050612aea565b5080612c3d816130b9565b915050612acf565b50505081602082612c569190613093565b612c60919061311e565b612c6b90604e613093565b9998505050505050505050565b6060600083516001600160401b03811115612c9557612c95612f32565b604051908082528060200260200182016040528015612cbe578160200160208202803683370190505b509050600360005b8551811015612d865781858281518110612ce257612ce26130d2565b60200260200101511015612d2f57848181518110612d0257612d026130d2565b602002602001015182604051632b13aef560e01b815260040161023b929190918252602082015260400190565b6000612d53878381518110612d4657612d466130d2565b6020026020010151610eeb565b905080848381518110612d6857612d686130d2565b60209081029190910101525080612d7e816130b9565b915050612cc6565b5090949350505050565b6000610faf83836000818152600183016020526040812054610faf90849084908490151584565b6000610faf828461311e565b60408051600080825260208083018085528690523685900380850135831a948401859052803560608501819052910135608084018190529193909260019060a0016020604051602081039080840390855afa158015612e26573d6000803e3d6000fd5b5050604051601f190151979650505050505050565b60008080612e4a604e87613093565b90506000612e77612e70612e5f602089613093565b612e6a886001613093565b90612db7565b83906129d3565b90506000612e8536836125fe565b80359960209091013598509650505050505050565b604080518082019091526000808252602082015290565b6001600160a01b0381168114610f0557600080fd5b600060208284031215612ed857600080fd5b8135610faf81612eb1565b602080825282518282018190526000919060409081850190868401855b82811015612f2557815180518552860151868501529284019290850190600101612f00565b5091979650505050505050565b634e487b7160e01b600052604160045260246000fd5b60006020808385031215612f5b57600080fd5b82356001600160401b0380821115612f7257600080fd5b818501915085601f830112612f8657600080fd5b813581811115612f9857612f98612f32565b8060051b604051601f19603f83011681018181108582111715612fbd57612fbd612f32565b604052918252848201925083810185019188831115612fdb57600080fd5b938501935b828510156127c057843584529385019392850192612fe0565b60005b83811015613014578181015183820152602001612ffc565b50506000910152565b602081526000825180602084015261303c816040850160208701612ff9565b601f01601f19169190910160400192915050565b60006020828403121561306257600080fd5b5035919050565b6001600160a01b0391909116815260200190565b634e487b7160e01b600052601160045260246000fd5b80820180821115610ef657610ef661307d565b81810381811115610ef657610ef661307d565b6000600182016130cb576130cb61307d565b5060010190565b634e487b7160e01b600052603260045260246000fd5b6000602082840312156130fa57600080fd5b8151610faf81612eb1565b60006020828403121561311757600080fd5b5051919050565b8082028115828204841417610ef657610ef661307d565b634e487b7160e01b600052601260045260246000fd5b60008261315a5761315a613135565b500490565b60006020828403121561317157600080fd5b815160ff81168114610faf57600080fd5b600181815b808511156131bd5781600019048211156131a3576131a361307d565b808516156131b057918102915b93841c9390800290613187565b509250929050565b6000826131d457506001610ef6565b816131e157506000610ef6565b81600181146131f757600281146132015761321d565b6001915050610ef6565b60ff8411156132125761321261307d565b50506001821b610ef6565b5060208310610133831016604e8410600b8410161715613240575081810a610ef6565b61324a8383613182565b806000190482111561325e5761325e61307d565b029392505050565b6000610faf60ff8416836131c5565b80516001600160801b038116811461024457600080fd5b6000806040838503121561329f57600080fd5b6132a883613275565b91506132b660208401613275565b90509250929050565b600082516132d1818460208701612ff9565b9190910192915050565b6000826132ea576132ea613135565b50069056fea26469706673582212207036b0494d010f56fa23726a8921bab1d61ea8bd0ee501b55740fd32553f2ac464736f6c63430008110033",
  "devdoc": {
    "kind": "dev",
    "methods": {
      "aggregateValues(uint256[])": {
        "details": "This function may be overridden by the child consumer contract. It should aggregate values from different signers to a single uint value. By default, it calculates the median value",
        "params": {
          "values": "An array of uint256 values from different signers"
        },
        "returns": {
          "_0": "Result of the aggregation in the form of a single number"
        }
      },
      "getDataServiceId()": {
        "details": "This function must be implemented by the child consumer contract. It should return dataServiceId which DataServiceWrapper will use if not provided explicitly . If not overridden, value will always have to be provided explicitly in DataServiceWrapper.",
        "returns": {
          "_0": "dataServiceId being consumed by contract"
        }
      },
      "getHealthMeter()": {
        "details": "This function uses the redstone-evm-connector"
      },
      "getUniqueSignersThreshold()": {
        "details": "This function should be overridden by the child consumer contract.",
        "returns": {
          "_0": "The minimum required value of unique authorised signers"
        }
      },
      "validateTimestamp(uint256)": {
        "details": "This function may be overridden by the child consumer contract. It should validate the timestamp against the current time (block.timestamp) It should revert with a helpful message if the timestamp is not valid",
        "params": {
          "receivedTimestampMilliseconds": "Timestamp extracted from calldata"
        }
      }
    },
    "version": 1
  },
  "userdoc": {
    "kind": "user",
    "methods": {
      "getHealthMeter()": {
        "notice": "Returns current health meter (0% - 100%) associated with the loan"
      }
    },
    "version": 1
  },
  "storageLayout": {
    "storage": [],
    "types": null
  }
}