{
  "address": "0x61FF2aF3ff697D60817f9E5d76d8241Ed174680e",
  "abi": [
    {
      "inputs": [],
      "name": "CalldataMustHaveValidPayload",
      "type": "error"
    },
    {
      "inputs": [],
      "name": "CalldataOverOrUnderFlow",
      "type": "error"
    },
    {
      "inputs": [],
      "name": "EachSignerMustProvideTheSameValue",
      "type": "error"
    },
    {
      "inputs": [],
      "name": "EmptyCalldataPointersArr",
      "type": "error"
    },
    {
      "inputs": [],
      "name": "IncorrectUnsignedMetadataSize",
      "type": "error"
    },
    {
      "inputs": [
        {
          "internalType": "uint256",
          "name": "receviedSignersCount",
          "type": "uint256"
        },
        {
          "internalType": "uint256",
          "name": "requiredSignersCount",
          "type": "uint256"
        }
      ],
      "name": "InsufficientNumberOfUniqueSigners",
      "type": "error"
    },
    {
      "inputs": [],
      "name": "InvalidCalldataPointer",
      "type": "error"
    },
    {
      "inputs": [
        {
          "internalType": "bytes",
          "name": "result",
          "type": "bytes"
        }
      ],
      "name": "ProxyCalldataFailedWithCustomError",
      "type": "error"
    },
    {
      "inputs": [
        {
          "internalType": "string",
          "name": "message",
          "type": "string"
        }
      ],
      "name": "ProxyCalldataFailedWithStringMessage",
      "type": "error"
    },
    {
      "inputs": [],
      "name": "ProxyCalldataFailedWithoutErrMsg",
      "type": "error"
    },
    {
      "inputs": [
        {
          "internalType": "address",
          "name": "receivedSigner",
          "type": "address"
        }
      ],
      "name": "SignerNotAuthorised",
      "type": "error"
    },
    {
      "anonymous": false,
      "inputs": [
        {
          "indexed": true,
          "internalType": "address",
          "name": "user",
          "type": "address"
        },
        {
          "indexed": true,
          "internalType": "address",
          "name": "lpToken",
          "type": "address"
        },
        {
          "indexed": false,
          "internalType": "bytes32",
          "name": "firstAsset",
          "type": "bytes32"
        },
        {
          "indexed": false,
          "internalType": "bytes32",
          "name": "secondAsset",
          "type": "bytes32"
        },
        {
          "indexed": false,
          "internalType": "uint256",
          "name": "liquidity",
          "type": "uint256"
        },
        {
          "indexed": false,
          "internalType": "uint256",
          "name": "firstAmount",
          "type": "uint256"
        },
        {
          "indexed": false,
          "internalType": "uint256",
          "name": "secondAmount",
          "type": "uint256"
        },
        {
          "indexed": false,
          "internalType": "uint256",
          "name": "timestamp",
          "type": "uint256"
        }
      ],
      "name": "AddLiquidity",
      "type": "event"
    },
    {
      "anonymous": false,
      "inputs": [
        {
          "indexed": true,
          "internalType": "address",
          "name": "user",
          "type": "address"
        },
        {
          "indexed": true,
          "internalType": "address",
          "name": "lpToken",
          "type": "address"
        },
        {
          "indexed": false,
          "internalType": "bytes32",
          "name": "firstAsset",
          "type": "bytes32"
        },
        {
          "indexed": false,
          "internalType": "bytes32",
          "name": "secondAsset",
          "type": "bytes32"
        },
        {
          "indexed": false,
          "internalType": "uint256",
          "name": "liquidity",
          "type": "uint256"
        },
        {
          "indexed": false,
          "internalType": "uint256",
          "name": "firstAmount",
          "type": "uint256"
        },
        {
          "indexed": false,
          "internalType": "uint256",
          "name": "secondAmount",
          "type": "uint256"
        },
        {
          "indexed": false,
          "internalType": "uint256",
          "name": "timestamp",
          "type": "uint256"
        }
      ],
      "name": "RemoveLiquidity",
      "type": "event"
    },
    {
      "anonymous": false,
      "inputs": [
        {
          "indexed": true,
          "internalType": "address",
          "name": "user",
          "type": "address"
        },
        {
          "indexed": true,
          "internalType": "bytes32",
          "name": "soldAsset",
          "type": "bytes32"
        },
        {
          "indexed": true,
          "internalType": "bytes32",
          "name": "boughtAsset",
          "type": "bytes32"
        },
        {
          "indexed": false,
          "internalType": "uint256",
          "name": "maximumSold",
          "type": "uint256"
        },
        {
          "indexed": false,
          "internalType": "uint256",
          "name": "minimumBought",
          "type": "uint256"
        },
        {
          "indexed": false,
          "internalType": "uint256",
          "name": "timestamp",
          "type": "uint256"
        }
      ],
      "name": "Swap",
      "type": "event"
    },
    {
      "inputs": [
        {
          "internalType": "bytes32[]",
          "name": "assetsToRepay",
          "type": "bytes32[]"
        }
      ],
      "name": "_getAllPricesForLiquidation",
      "outputs": [
        {
          "components": [
            {
              "components": [
                {
                  "internalType": "bytes32",
                  "name": "asset",
                  "type": "bytes32"
                },
                {
                  "internalType": "uint256",
                  "name": "price",
                  "type": "uint256"
                }
              ],
              "internalType": "struct SolvencyFacetProd.AssetPrice[]",
              "name": "ownedAssetsPrices",
              "type": "tuple[]"
            },
            {
              "components": [
                {
                  "internalType": "bytes32",
                  "name": "asset",
                  "type": "bytes32"
                },
                {
                  "internalType": "uint256",
                  "name": "price",
                  "type": "uint256"
                }
              ],
              "internalType": "struct SolvencyFacetProd.AssetPrice[]",
              "name": "debtAssetsPrices",
              "type": "tuple[]"
            },
            {
              "components": [
                {
                  "internalType": "bytes32",
                  "name": "asset",
                  "type": "bytes32"
                },
                {
                  "internalType": "uint256",
                  "name": "price",
                  "type": "uint256"
                }
              ],
              "internalType": "struct SolvencyFacetProd.AssetPrice[]",
              "name": "stakedPositionsPrices",
              "type": "tuple[]"
            },
            {
              "components": [
                {
                  "internalType": "bytes32",
                  "name": "asset",
                  "type": "bytes32"
                },
                {
                  "internalType": "uint256",
                  "name": "price",
                  "type": "uint256"
                }
              ],
              "internalType": "struct SolvencyFacetProd.AssetPrice[]",
              "name": "assetsToRepayPrices",
              "type": "tuple[]"
            }
          ],
          "internalType": "struct SolvencyFacetProd.CachedPrices",
          "name": "result",
          "type": "tuple"
        }
      ],
      "stateMutability": "nonpayable",
      "type": "function"
    },
    {
      "inputs": [],
      "name": "_getHealthRatio",
      "outputs": [
        {
          "internalType": "uint256",
          "name": "health",
          "type": "uint256"
        }
      ],
      "stateMutability": "nonpayable",
      "type": "function"
    },
    {
      "inputs": [
        {
          "components": [
            {
              "components": [
                {
                  "internalType": "bytes32",
                  "name": "asset",
                  "type": "bytes32"
                },
                {
                  "internalType": "uint256",
                  "name": "price",
                  "type": "uint256"
                }
              ],
              "internalType": "struct SolvencyFacetProd.AssetPrice[]",
              "name": "ownedAssetsPrices",
              "type": "tuple[]"
            },
            {
              "components": [
                {
                  "internalType": "bytes32",
                  "name": "asset",
                  "type": "bytes32"
                },
                {
                  "internalType": "uint256",
                  "name": "price",
                  "type": "uint256"
                }
              ],
              "internalType": "struct SolvencyFacetProd.AssetPrice[]",
              "name": "debtAssetsPrices",
              "type": "tuple[]"
            },
            {
              "components": [
                {
                  "internalType": "bytes32",
                  "name": "asset",
                  "type": "bytes32"
                },
                {
                  "internalType": "uint256",
                  "name": "price",
                  "type": "uint256"
                }
              ],
              "internalType": "struct SolvencyFacetProd.AssetPrice[]",
              "name": "stakedPositionsPrices",
              "type": "tuple[]"
            },
            {
              "components": [
                {
                  "internalType": "bytes32",
                  "name": "asset",
                  "type": "bytes32"
                },
                {
                  "internalType": "uint256",
                  "name": "price",
                  "type": "uint256"
                }
              ],
              "internalType": "struct SolvencyFacetProd.AssetPrice[]",
              "name": "assetsToRepayPrices",
              "type": "tuple[]"
            }
          ],
          "internalType": "struct SolvencyFacetProd.CachedPrices",
          "name": "cachedPrices",
          "type": "tuple"
        }
      ],
      "name": "_getHealthRatioWithPrices",
      "outputs": [
        {
          "internalType": "uint256",
          "name": "health",
          "type": "uint256"
        }
      ],
      "stateMutability": "nonpayable",
      "type": "function"
    },
    {
      "inputs": [],
      "name": "_resetPrimeAccountAssetsExposure",
      "outputs": [],
      "stateMutability": "nonpayable",
      "type": "function"
    },
    {
      "inputs": [],
      "name": "_setPrimeAccountAssetsExposure",
      "outputs": [],
      "stateMutability": "nonpayable",
      "type": "function"
    },
    {
      "inputs": [
        {
          "internalType": "bytes32",
          "name": "_firstAsset",
          "type": "bytes32"
        },
        {
          "internalType": "bytes32",
          "name": "_secondAsset",
          "type": "bytes32"
        },
        {
          "internalType": "uint256",
          "name": "amountADesired",
          "type": "uint256"
        },
        {
          "internalType": "uint256",
          "name": "amountBDesired",
          "type": "uint256"
        },
        {
          "internalType": "uint256",
          "name": "amountAMin",
          "type": "uint256"
        },
        {
          "internalType": "uint256",
          "name": "amountBMin",
          "type": "uint256"
        }
      ],
      "name": "addLiquidityPangolin",
      "outputs": [],
      "stateMutability": "nonpayable",
      "type": "function"
    },
    {
      "inputs": [
        {
          "internalType": "bytes32",
          "name": "_bytes32",
          "type": "bytes32"
        }
      ],
      "name": "bytes32ToString",
      "outputs": [
        {
          "internalType": "string",
          "name": "",
          "type": "string"
        }
      ],
      "stateMutability": "pure",
      "type": "function"
    },
    {
      "inputs": [],
      "name": "getExchangeIntermediaryContract",
      "outputs": [
        {
          "internalType": "address",
          "name": "",
          "type": "address"
        }
      ],
      "stateMutability": "nonpayable",
      "type": "function"
    },
    {
      "inputs": [
        {
          "internalType": "bytes32",
          "name": "symbol",
          "type": "bytes32"
        }
      ],
      "name": "getPrice",
      "outputs": [
        {
          "internalType": "uint256",
          "name": "price",
          "type": "uint256"
        }
      ],
      "stateMutability": "nonpayable",
      "type": "function"
    },
    {
      "inputs": [
        {
          "internalType": "bytes32[]",
          "name": "symbols",
          "type": "bytes32[]"
        }
      ],
      "name": "getPrices",
      "outputs": [
        {
          "internalType": "uint256[]",
          "name": "prices",
          "type": "uint256[]"
        }
      ],
      "stateMutability": "nonpayable",
      "type": "function"
    },
    {
      "inputs": [
        {
          "internalType": "bytes32",
          "name": "_firstAsset",
          "type": "bytes32"
        },
        {
          "internalType": "bytes32",
          "name": "_secondAsset",
          "type": "bytes32"
        },
        {
          "internalType": "uint256",
          "name": "liquidity",
          "type": "uint256"
        },
        {
          "internalType": "uint256",
          "name": "amountAMin",
          "type": "uint256"
        },
        {
          "internalType": "uint256",
          "name": "amountBMin",
          "type": "uint256"
        }
      ],
      "name": "removeLiquidityPangolin",
      "outputs": [],
      "stateMutability": "nonpayable",
      "type": "function"
    },
    {
      "inputs": [
        {
          "internalType": "string",
          "name": "source",
          "type": "string"
        }
      ],
      "name": "stringToBytes32",
      "outputs": [
        {
          "internalType": "bytes32",
          "name": "result",
          "type": "bytes32"
        }
      ],
      "stateMutability": "pure",
      "type": "function"
    },
    {
      "inputs": [
        {
          "internalType": "bytes32",
          "name": "_soldAsset",
          "type": "bytes32"
        },
        {
          "internalType": "bytes32",
          "name": "_boughtAsset",
          "type": "bytes32"
        },
        {
          "internalType": "uint256",
          "name": "_exactSold",
          "type": "uint256"
        },
        {
          "internalType": "uint256",
          "name": "_minimumBought",
          "type": "uint256"
        }
      ],
      "name": "swapPangolin",
      "outputs": [
        {
          "internalType": "uint256[]",
          "name": "",
          "type": "uint256[]"
        }
      ],
      "stateMutability": "nonpayable",
      "type": "function"
    }
  ],
  "transactionHash": "0x6705d73853fd7376fb765fc92b27b2ec55dd59070d1d2d4e49856f4491ae7bd1",
  "args": [],
  "numDeployments": 5,
  "solcInputHash": "bb91896e53489a50d2501e35092f78c3",
  "bytecode": "0x608060405234801561001057600080fd5b506001600081905550614089806100286000396000f3fe608060405234801561001057600080fd5b50600436106100cf5760003560e01c80636e3bfe9f1161008c5780639201de55116100665780639201de5514610212578063b2d40e7314610242578063cfb5192814610272578063f8f18553146102a2576100cf565b80636e3bfe9f146101aa5780637fe65943146101da578063838986f8146101f6576100cf565b806326ee4836146100d457806331d98b3f1461010457806339e2719e146101345780634e543900146101525780635b4fad9c14610182578063640adf781461018c575b600080fd5b6100ee60048036038101906100e9919061264b565b6102ac565b6040516100fb919061275c565b60405180910390f35b61011e6004803603810190610119919061277e565b610356565b60405161012b91906127ba565b60405180910390f35b61013c610400565b60405161014991906127ba565b60405180910390f35b61016c60048036038101906101679190612801565b61049d565b604051610179919061275c565b60405180910390f35b61018a610510565b005b610194610596565b6040516101a191906128a9565b60405180910390f35b6101c460048036038101906101bf9190612ac9565b6105b2565b6040516101d191906127ba565b60405180910390f35b6101f460048036038101906101ef9190612b12565b61065c565b005b610210600480360381019061020b9190612b8d565b610670565b005b61022c6004803603810190610227919061277e565b61068e565b6040516102399190612c99565b60405180910390f35b61025c6004803603810190610257919061264b565b610829565b6040516102699190612e20565b60405180910390f35b61028c60048036038101906102879190612ef7565b6108d9565b6040516102999190612f4f565b60405180910390f35b6102aa610902565b005b606061033c6102c16326ee483660e01b610988565b6326ee483660e01b846040516024016102da9190613019565b604051602081830303815290604052907bffffffffffffffffffffffffffffffffffffffffffffffffffffffff19166020820180517bffffffffffffffffffffffffffffffffffffffffffffffffffffffff8381831617835250505050610a12565b80602001905181019061034f9190613113565b9050919050565b60006103e661036b6331d98b3f60e01b610988565b6331d98b3f60e01b846040516024016103849190612f4f565b604051602081830303815290604052907bffffffffffffffffffffffffffffffffffffffffffffffffffffffff19166020820180517bffffffffffffffffffffffffffffffffffffffffffffffffffffffff8381831617835250505050610a12565b8060200190518101906103f9919061315c565b9050919050565b6000610485610415637914334f60e01b610988565b637914334f60e01b604051602401604051602081830303815290604052907bffffffffffffffffffffffffffffffffffffffffffffffffffffffff19166020820180517bffffffffffffffffffffffffffffffffffffffffffffffffffffffff8381831617835250505050610a12565b806020019051810190610498919061315c565b905090565b606060006104a9610aa3565b9050428160060154036104f1576040517f08c379a00000000000000000000000000000000000000000000000000000000081526004016104e8906131fb565b60405180910390fd5b6104f9610ad0565b61050586868686610b6b565b915050949350505050565b61059361052363b1c9fbc160e01b610988565b63b1c9fbc160e01b604051602401604051602081830303815290604052907bffffffffffffffffffffffffffffffffffffffffffffffffffffffff19166020820180517bffffffffffffffffffffffffffffffffffffffffffffffffffffffff8381831617835250505050610a12565b50565b600073db5d94b8ed491b058f3e74d029775a14477cf7fa905090565b60006106426105c763360398a360e01b610988565b63360398a360e01b846040516024016105e09190612e20565b604051602081830303815290604052907bffffffffffffffffffffffffffffffffffffffffffffffffffffffff19166020820180517bffffffffffffffffffffffffffffffffffffffffffffffffffffffff8381831617835250505050610a12565b806020019051810190610655919061315c565b9050919050565b6106698585858585610fb3565b5050505050565b610678610ad0565b610686868686868686611403565b505050505050565b606060005b60208160ff161080156106e55750600060f81b838260ff16602081106106bc576106bb61321b565b5b1a60f81b7effffffffffffffffffffffffffffffffffffffffffffffffffffffffffffff191614155b156106fd5780806106f590613286565b915050610693565b60008160ff1667ffffffffffffffff81111561071c5761071b6124d2565b5b6040519080825280601f01601f19166020018201604052801561074e5781602001600182028036833780820191505090505b509050600091505b60208260ff161080156107a85750600060f81b848360ff166020811061077f5761077e61321b565b5b1a60f81b7effffffffffffffffffffffffffffffffffffffffffffffffffffffffffffff191614155b1561081f57838260ff16602081106107c3576107c261321b565b5b1a60f81b818360ff16815181106107dd576107dc61321b565b5b60200101907effffffffffffffffffffffffffffffffffffffffffffffffffffffffffffff1916908160001a905350818061081790613286565b925050610756565b8092505050919050565b610831612480565b6108bf61084463a3aa8d1e60e01b610988565b63a3aa8d1e60e01b8460405160240161085d9190613019565b604051602081830303815290604052907bffffffffffffffffffffffffffffffffffffffffffffffffffffffff19166020820180517bffffffffffffffffffffffffffffffffffffffffffffffffffffffff8381831617835250505050610a12565b8060200190518101906108d29190613493565b9050919050565b60008082905060008151036108f4576000801b9150506108fd565b60208301519150505b919050565b61098561091563e017e12560e01b610988565b63e017e12560e01b604051602401604051602081830303815290604052907bffffffffffffffffffffffffffffffffffffffffffffffffffffffff19166020820180517bffffffffffffffffffffffffffffffffffffffffffffffffffffffff8381831617835250505050610a12565b50565b6000610992611927565b73ffffffffffffffffffffffffffffffffffffffff16630d741577836040518263ffffffff1660e01b81526004016109ca9190613517565b602060405180830381865afa1580156109e7573d6000803e3d6000fd5b505050506040513d601f19601f82011682018060405250810190610a0b919061355e565b9050919050565b60606000610a1f83611943565b90506000808573ffffffffffffffffffffffffffffffffffffffff1683604051610a4991906135d2565b600060405180830381855af49150503d8060008114610a84576040519150601f19603f3d011682016040523d82523d6000602084013e610a89565b606091505b5091509150610a9882826119fd565b935050505092915050565b6000807fc8fcad8db84d3cc18b4c41d551ea0ee66dd599cde068d998e57d5e09332c131c90508091505090565b610ad8611afd565b60010160009054906101000a900473ffffffffffffffffffffffffffffffffffffffff1673ffffffffffffffffffffffffffffffffffffffff163373ffffffffffffffffffffffffffffffffffffffff1614610b69576040517f08c379a0000000000000000000000000000000000000000000000000000000008152600401610b609061365b565b60405180910390fd5b565b6060610b75610510565b6000610b82866001611b2a565b90506000610b91866000611b2a565b9050848273ffffffffffffffffffffffffffffffffffffffff166370a08231306040518263ffffffff1660e01b8152600401610bcd91906128a9565b602060405180830381865afa158015610bea573d6000803e3d6000fd5b505050506040513d601f19601f82011682018060405250810190610c0e919061315c565b1015610c4f576040517f08c379a0000000000000000000000000000000000000000000000000000000008152600401610c46906136c7565b60405180910390fd5b610c81610c5a610596565b868473ffffffffffffffffffffffffffffffffffffffff16611bb79092919063ffffffff16565b6000610c8b610596565b905060008173ffffffffffffffffffffffffffffffffffffffff1663fe02915685858a8a6040518563ffffffff1660e01b8152600401610cce94939291906136e7565b6000604051808303816000875af1158015610ced573d6000803e3d6000fd5b505050506040513d6000823e3d601f19601f82011682018060405250810190610d169190613113565b90506000610d22611ced565b905060008173ffffffffffffffffffffffffffffffffffffffff166325eb876f8b60006040518363ffffffff1660e01b8152600401610d62929190613747565b602060405180830381865afa158015610d7f573d6000803e3d6000fd5b505050506040513d601f19601f82011682018060405250810190610da3919061355e565b905060008573ffffffffffffffffffffffffffffffffffffffff166370a08231306040518263ffffffff1660e01b8152600401610de091906128a9565b602060405180830381865afa158015610dfd573d6000803e3d6000fd5b505050506040513d601f19601f82011682018060405250810190610e21919061315c565b1115610e3257610e318a82611d09565b5b60008673ffffffffffffffffffffffffffffffffffffffff166370a08231306040518263ffffffff1660e01b8152600401610e6d91906128a9565b602060405180830381865afa158015610e8a573d6000803e3d6000fd5b505050506040513d601f19601f82011682018060405250810190610eae919061315c565b03610ebd57610ebc8b611ddb565b5b898b3373ffffffffffffffffffffffffffffffffffffffff167f4cb7ea834525f7e7be14143ffc68be9c6735559e936d23502fff335d39a2e8e286600081518110610f0b57610f0a61321b565b5b60200260200101518760018951610f229190613770565b81518110610f3357610f3261321b565b5b602002602001015142604051610f4b939291906137a4565b60405180910390a4829650505050505050610f64611df9565b610fa3576040517f08c379a0000000000000000000000000000000000000000000000000000000008152600401610f9a9061384d565b60405180910390fd5b610fab610902565b949350505050565b610fbb610510565b6000610fc5611df9565b90508015610fda57610fd5610ad0565b61109b565b610fe2611927565b73ffffffffffffffffffffffffffffffffffffffff1663e319fccc336040518263ffffffff1660e01b815260040161101a91906128a9565b602060405180830381865afa158015611037573d6000803e3d6000fd5b505050506040513d601f19601f8201168201806040525081019061105b9190613899565b61109a576040517f08c379a000000000000000000000000000000000000000000000000000000000815260040161109190613938565b60405180910390fd5b5b60006110a8876001611b2a565b905060006110b7876001611b2a565b905060006110c3610596565b905060008173ffffffffffffffffffffffffffffffffffffffff1663e6a4390585856040518363ffffffff1660e01b8152600401611102929190613958565b6020604051808303816000875af1158015611121573d6000803e3d6000fd5b505050506040513d601f19601f82011682018060405250810190611145919061355e565b90506111ca888273ffffffffffffffffffffffffffffffffffffffff166370a08231306040518263ffffffff1660e01b815260040161118491906128a9565b602060405180830381865afa1580156111a1573d6000803e3d6000fd5b505050506040513d601f19601f820116820180604052508101906111c5919061315c565b611e96565b97506111fe6111d7610596565b898373ffffffffffffffffffffffffffffffffffffffff16611bb79092919063ffffffff16565b6000808373ffffffffffffffffffffffffffffffffffffffff1663e2dc85dc87878d8d8d6040518663ffffffff1660e01b8152600401611242959493929190613981565b60408051808303816000875af1158015611260573d6000803e3d6000fd5b505050506040513d601f19601f8201168201806040525081019061128491906139d4565b9150915060008373ffffffffffffffffffffffffffffffffffffffff166370a08231306040518263ffffffff1660e01b81526004016112c391906128a9565b602060405180830381865afa1580156112e0573d6000803e3d6000fd5b505050506040513d601f19601f82011682018060405250810190611304919061315c565b0361131c5761131b6113168d8d611eaf565b611ddb565b5b6113268c87611d09565b6113308b86611d09565b8273ffffffffffffffffffffffffffffffffffffffff163373ffffffffffffffffffffffffffffffffffffffff167f60d6d04a69b63b07bc4612079adf2399fcc2b9da68fe609fe66ffbe16fca76f48e8e8e87874260405161139796959493929190613a14565b60405180910390a350505050505080156113f3576113b3611df9565b6113f2576040517f08c379a00000000000000000000000000000000000000000000000000000000081526004016113e990613ac1565b60405180910390fd5b5b506113fc610902565b5050505050565b61140b610510565b6000611418876000611b2a565b90506000611427876000611b2a565b9050858273ffffffffffffffffffffffffffffffffffffffff166370a08231306040518263ffffffff1660e01b815260040161146391906128a9565b602060405180830381865afa158015611480573d6000803e3d6000fd5b505050506040513d601f19601f820116820180604052508101906114a4919061315c565b10156114e5576040517f08c379a00000000000000000000000000000000000000000000000000000000081526004016114dc90613b2d565b60405180910390fd5b848173ffffffffffffffffffffffffffffffffffffffff166370a08231306040518263ffffffff1660e01b815260040161151f91906128a9565b602060405180830381865afa15801561153c573d6000803e3d6000fd5b505050506040513d601f19601f82011682018060405250810190611560919061315c565b10156115a1576040517f08c379a000000000000000000000000000000000000000000000000000000000815260040161159890613b99565b60405180910390fd5b6115d36115ac610596565b878473ffffffffffffffffffffffffffffffffffffffff16611bb79092919063ffffffff16565b6116056115de610596565b868373ffffffffffffffffffffffffffffffffffffffff16611bb79092919063ffffffff16565b600061160f610596565b90506000808273ffffffffffffffffffffffffffffffffffffffff16633351733f86868c8c8c8c6040518763ffffffff1660e01b815260040161165796959493929190613bb9565b6080604051808303816000875af1158015611676573d6000803e3d6000fd5b505050506040513d601f19601f8201168201806040525081019061169a9190613c1a565b809450819b50829c508395505050505060008273ffffffffffffffffffffffffffffffffffffffff166370a08231306040518263ffffffff1660e01b81526004016116e591906128a9565b602060405180830381865afa158015611702573d6000803e3d6000fd5b505050506040513d601f19601f82011682018060405250810190611726919061315c565b11156117465760006117388c8c611eaf565b90506117448184611d09565b505b60008573ffffffffffffffffffffffffffffffffffffffff166370a08231306040518263ffffffff1660e01b815260040161178191906128a9565b602060405180830381865afa15801561179e573d6000803e3d6000fd5b505050506040513d601f19601f820116820180604052508101906117c2919061315c565b036117d1576117d08b611ddb565b5b60008473ffffffffffffffffffffffffffffffffffffffff166370a08231306040518263ffffffff1660e01b815260040161180c91906128a9565b602060405180830381865afa158015611829573d6000803e3d6000fd5b505050506040513d601f19601f8201168201806040525081019061184d919061315c565b0361185c5761185b8a611ddb565b5b8173ffffffffffffffffffffffffffffffffffffffff163373ffffffffffffffffffffffffffffffffffffffff167fee6437c12e66102495172228742a18765355debe1f046d82bcd14f8dc66f11678d8d858e8e426040516118c396959493929190613a14565b60405180910390a350505050506118d8611df9565b611917576040517f08c379a000000000000000000000000000000000000000000000000000000000815260040161190e9061384d565b60405180910390fd5b61191f610902565b505050505050565b6000732916b3bf7c35bd21e63d01c93c62fb0d4994e56d905090565b60606000825190506000611955611f1e565b9050600081836119659190613c81565b905060003690508211156119a5576040517f5796f78a00000000000000000000000000000000000000000000000000000000815260040160405180910390fd5b6060604051905081815285602001848101826020015b818310156119d857825181526020830192506020810190506119bb565b5050508283360385602001830137602084840182010160405280945050505050919050565b606082611af4576000825103611a3f576040517f567fe27a00000000000000000000000000000000000000000000000000000000815260040160405180910390fd5b600060208301517f08c379a00000000000000000000000000000000000000000000000000000000081149150508015611ab7576060604484019050806040517f0f7e8278000000000000000000000000000000000000000000000000000000008152600401611aae9190612c99565b60405180910390fd5b826040517ffd36fde3000000000000000000000000000000000000000000000000000000008152600401611aeb9190613cff565b60405180910390fd5b81905092915050565b6000807f8d5bb42e0ac1496a2c326edc9c00758985246e6c2bb146d6c2f4a0d509e0960a90508091505090565b6000611b34611ced565b73ffffffffffffffffffffffffffffffffffffffff166325eb876f84846040518363ffffffff1660e01b8152600401611b6e929190613747565b602060405180830381865afa158015611b8b573d6000803e3d6000fd5b505050506040513d601f19601f82011682018060405250810190611baf919061355e565b905092915050565b6000808473ffffffffffffffffffffffffffffffffffffffff1663a9059cbb8585604051602401611be9929190613d21565b6040516020818303038152906040529060e01b6020820180517bffffffffffffffffffffffffffffffffffffffffffffffffffffffff8381831617835250505050604051611c3791906135d2565b6000604051808303816000865af19150503d8060008114611c74576040519150601f19603f3d011682016040523d82523d6000602084013e611c79565b606091505b5091509150818015611ca75750600081511480611ca6575080806020019051810190611ca59190613899565b5b5b611ce6576040517f08c379a0000000000000000000000000000000000000000000000000000000008152600401611cdd90613dbc565b60405180910390fd5b5050505050565b600073f3978209b7cff2b90100c6f87cec77de928ed58e905090565b60008203611d4c576040517f08c379a0000000000000000000000000000000000000000000000000000000008152600401611d4390613e28565b60405180910390fd5b600073ffffffffffffffffffffffffffffffffffffffff168173ffffffffffffffffffffffffffffffffffffffff1603611dbb576040517f08c379a0000000000000000000000000000000000000000000000000000000008152600401611db290613e94565b60405180910390fd5b6000611dc5611afd565b9050611dd5816004018484611f8e565b50505050565b6000611de5611afd565b9050611df48160040183611fc0565b505050565b6000611e7e611e0e635ce2395060e01b610988565b635ce2395060e01b604051602401604051602081830303815290604052907bffffffffffffffffffffffffffffffffffffffffffffffffffffffff19166020820180517bffffffffffffffffffffffffffffffffffffffffffffffffffffffff8381831617835250505050610a12565b806020019051810190611e919190613899565b905090565b6000818310611ea55781611ea7565b825b905092915050565b6000806000838510611ec2578385611ec5565b84845b91509150611f14611edc611ed7611fd7565b61068e565b611ee58461068e565b611eee8461068e565b604051602001611f0093929190613f3c565b6040516020818303038152906040526108d9565b9250505092915050565b600080611f29611fff565b90506000611f3682612110565b61ffff169050600282611f499190613c81565b915060005b81811015611f85576000611f618461216c565b90508084611f6f9190613c81565b9350508080611f7d90613f9a565b915050611f4e565b50819250505090565b6000611fb784600001848473ffffffffffffffffffffffffffffffffffffffff1660001b6121ab565b90509392505050565b6000611fcf83600001836121e6565b905092915050565b60007f504e470000000000000000000000000000000000000000000000000000000000905090565b60008060203603356602ed57011e000081166602ed57011e00001491505080612054576040517fe7764c9e00000000000000000000000000000000000000000000000000000000815260040160405180910390fd5b60008036905060291115612094576040517f5796f78a00000000000000000000000000000000000000000000000000000000815260040160405180910390fd5b602936033590506000600960038362ffffff166120b19190613c81565b6120bb9190613c81565b905060003690506002826120cf9190613c81565b1115612107576040517fc30a7bd700000000000000000000000000000000000000000000000000000000815260040160405180910390fd5b80935050505090565b6000806020836121209190613c81565b90506000369050811115612160576040517f5796f78a00000000000000000000000000000000000000000000000000000000815260040160405180910390fd5b80360335915050919050565b600080600061217a8461221f565b91509150604e81602061218d9190613c81565b836121989190613fe2565b6121a29190613c81565b92505050919050565b600081846002016000858152602001908152602001600020819055506121dd838560000161229590919063ffffffff16565b90509392505050565b60008260020160008381526020019081526020016000206000905561221782846000016122ac90919063ffffffff16565b905092915050565b60008060008060006041866122349190613c81565b9050600061225b6020836122489190613c81565b60003690506122c390919063ffffffff16565b9050803593506122756003826122c390919063ffffffff16565b9050803592508362ffffff1695508263ffffffff16945050505050915091565b60006122a483600001836122d9565b905092915050565b60006122bb8360000183612349565b905092915050565b600081836122d19190613770565b905092915050565b60006122e5838361245d565b61233e578260000182908060018154018082558091505060019003906000526020600020016000909190919091505582600001805490508360010160008481526020019081526020016000208190555060019050612343565b600090505b92915050565b6000808360010160008481526020019081526020016000205490506000811461245157600060018261237b9190613770565b90506000600186600001805490506123939190613770565b90508181146124025760008660000182815481106123b4576123b361321b565b5b90600052602060002001549050808760000184815481106123d8576123d761321b565b5b90600052602060002001819055508387600101600083815260200190815260200160002081905550505b8560000180548061241657612415614024565b5b600190038181906000526020600020016000905590558560010160008681526020019081526020016000206000905560019350505050612457565b60009150505b92915050565b600080836001016000848152602001908152602001600020541415905092915050565b6040518060800160405280606081526020016060815260200160608152602001606081525090565b6000604051905090565b600080fd5b600080fd5b600080fd5b6000601f19601f8301169050919050565b7f4e487b7100000000000000000000000000000000000000000000000000000000600052604160045260246000fd5b61250a826124c1565b810181811067ffffffffffffffff82111715612529576125286124d2565b5b80604052505050565b600061253c6124a8565b90506125488282612501565b919050565b600067ffffffffffffffff821115612568576125676124d2565b5b602082029050602081019050919050565b600080fd5b6000819050919050565b6125918161257e565b811461259c57600080fd5b50565b6000813590506125ae81612588565b92915050565b60006125c76125c28461254d565b612532565b905080838252602082019050602084028301858111156125ea576125e9612579565b5b835b8181101561261357806125ff888261259f565b8452602084019350506020810190506125ec565b5050509392505050565b600082601f830112612632576126316124bc565b5b81356126428482602086016125b4565b91505092915050565b600060208284031215612661576126606124b2565b5b600082013567ffffffffffffffff81111561267f5761267e6124b7565b5b61268b8482850161261d565b91505092915050565b600081519050919050565b600082825260208201905092915050565b6000819050602082019050919050565b6000819050919050565b6126d3816126c0565b82525050565b60006126e583836126ca565b60208301905092915050565b6000602082019050919050565b600061270982612694565b612713818561269f565b935061271e836126b0565b8060005b8381101561274f57815161273688826126d9565b9750612741836126f1565b925050600181019050612722565b5085935050505092915050565b6000602082019050818103600083015261277681846126fe565b905092915050565b600060208284031215612794576127936124b2565b5b60006127a28482850161259f565b91505092915050565b6127b4816126c0565b82525050565b60006020820190506127cf60008301846127ab565b92915050565b6127de816126c0565b81146127e957600080fd5b50565b6000813590506127fb816127d5565b92915050565b6000806000806080858703121561281b5761281a6124b2565b5b60006128298782880161259f565b945050602061283a8782880161259f565b935050604061284b878288016127ec565b925050606061285c878288016127ec565b91505092959194509250565b600073ffffffffffffffffffffffffffffffffffffffff82169050919050565b600061289382612868565b9050919050565b6128a381612888565b82525050565b60006020820190506128be600083018461289a565b92915050565b600080fd5b600080fd5b600067ffffffffffffffff8211156128e9576128e86124d2565b5b602082029050602081019050919050565b6000604082840312156129105761290f6128c4565b5b61291a6040612532565b9050600061292a8482850161259f565b600083015250602061293e848285016127ec565b60208301525092915050565b600061295d612958846128ce565b612532565b905080838252602082019050604084028301858111156129805761297f612579565b5b835b818110156129a9578061299588826128fa565b845260208401935050604081019050612982565b5050509392505050565b600082601f8301126129c8576129c76124bc565b5b81356129d884826020860161294a565b91505092915050565b6000608082840312156129f7576129f66128c4565b5b612a016080612532565b9050600082013567ffffffffffffffff811115612a2157612a206128c9565b5b612a2d848285016129b3565b600083015250602082013567ffffffffffffffff811115612a5157612a506128c9565b5b612a5d848285016129b3565b602083015250604082013567ffffffffffffffff811115612a8157612a806128c9565b5b612a8d848285016129b3565b604083015250606082013567ffffffffffffffff811115612ab157612ab06128c9565b5b612abd848285016129b3565b60608301525092915050565b600060208284031215612adf57612ade6124b2565b5b600082013567ffffffffffffffff811115612afd57612afc6124b7565b5b612b09848285016129e1565b91505092915050565b600080600080600060a08688031215612b2e57612b2d6124b2565b5b6000612b3c8882890161259f565b9550506020612b4d8882890161259f565b9450506040612b5e888289016127ec565b9350506060612b6f888289016127ec565b9250506080612b80888289016127ec565b9150509295509295909350565b60008060008060008060c08789031215612baa57612ba96124b2565b5b6000612bb889828a0161259f565b9650506020612bc989828a0161259f565b9550506040612bda89828a016127ec565b9450506060612beb89828a016127ec565b9350506080612bfc89828a016127ec565b92505060a0612c0d89828a016127ec565b9150509295509295509295565b600081519050919050565b600082825260208201905092915050565b60005b83811015612c54578082015181840152602081019050612c39565b60008484015250505050565b6000612c6b82612c1a565b612c758185612c25565b9350612c85818560208601612c36565b612c8e816124c1565b840191505092915050565b60006020820190508181036000830152612cb38184612c60565b905092915050565b600081519050919050565b600082825260208201905092915050565b6000819050602082019050919050565b612cf08161257e565b82525050565b604082016000820151612d0c6000850182612ce7565b506020820151612d1f60208501826126ca565b50505050565b6000612d318383612cf6565b60408301905092915050565b6000602082019050919050565b6000612d5582612cbb565b612d5f8185612cc6565b9350612d6a83612cd7565b8060005b83811015612d9b578151612d828882612d25565b9750612d8d83612d3d565b925050600181019050612d6e565b5085935050505092915050565b60006080830160008301518482036000860152612dc58282612d4a565b91505060208301518482036020860152612ddf8282612d4a565b91505060408301518482036040860152612df98282612d4a565b91505060608301518482036060860152612e138282612d4a565b9150508091505092915050565b60006020820190508181036000830152612e3a8184612da8565b905092915050565b600080fd5b600067ffffffffffffffff821115612e6257612e616124d2565b5b612e6b826124c1565b9050602081019050919050565b82818337600083830152505050565b6000612e9a612e9584612e47565b612532565b905082815260208101848484011115612eb657612eb5612e42565b5b612ec1848285612e78565b509392505050565b600082601f830112612ede57612edd6124bc565b5b8135612eee848260208601612e87565b91505092915050565b600060208284031215612f0d57612f0c6124b2565b5b600082013567ffffffffffffffff811115612f2b57612f2a6124b7565b5b612f3784828501612ec9565b91505092915050565b612f498161257e565b82525050565b6000602082019050612f646000830184612f40565b92915050565b600081519050919050565b600082825260208201905092915050565b6000819050602082019050919050565b6000612fa28383612ce7565b60208301905092915050565b6000602082019050919050565b6000612fc682612f6a565b612fd08185612f75565b9350612fdb83612f86565b8060005b8381101561300c578151612ff38882612f96565b9750612ffe83612fae565b925050600181019050612fdf565b5085935050505092915050565b600060208201905081810360008301526130338184612fbb565b905092915050565b600067ffffffffffffffff821115613056576130556124d2565b5b602082029050602081019050919050565b600081519050613076816127d5565b92915050565b600061308f61308a8461303b565b612532565b905080838252602082019050602084028301858111156130b2576130b1612579565b5b835b818110156130db57806130c78882613067565b8452602084019350506020810190506130b4565b5050509392505050565b600082601f8301126130fa576130f96124bc565b5b815161310a84826020860161307c565b91505092915050565b600060208284031215613129576131286124b2565b5b600082015167ffffffffffffffff811115613147576131466124b7565b5b613153848285016130e5565b91505092915050565b600060208284031215613172576131716124b2565b5b600061318084828501613067565b91505092915050565b7f426f72726f77696e67206d7573742068617070656e20696e2061207374616e6460008201527f616c6f6e65207472616e73616374696f6e000000000000000000000000000000602082015250565b60006131e5603183612c25565b91506131f082613189565b604082019050919050565b60006020820190508181036000830152613214816131d8565b9050919050565b7f4e487b7100000000000000000000000000000000000000000000000000000000600052603260045260246000fd5b7f4e487b7100000000000000000000000000000000000000000000000000000000600052601160045260246000fd5b600060ff82169050919050565b600061329182613279565b915060ff82036132a4576132a361324a565b5b600182019050919050565b6000815190506132be81612588565b92915050565b6000604082840312156132da576132d96128c4565b5b6132e46040612532565b905060006132f4848285016132af565b600083015250602061330884828501613067565b60208301525092915050565b6000613327613322846128ce565b612532565b9050808382526020820190506040840283018581111561334a57613349612579565b5b835b81811015613373578061335f88826132c4565b84526020840193505060408101905061334c565b5050509392505050565b600082601f830112613392576133916124bc565b5b81516133a2848260208601613314565b91505092915050565b6000608082840312156133c1576133c06128c4565b5b6133cb6080612532565b9050600082015167ffffffffffffffff8111156133eb576133ea6128c9565b5b6133f78482850161337d565b600083015250602082015167ffffffffffffffff81111561341b5761341a6128c9565b5b6134278482850161337d565b602083015250604082015167ffffffffffffffff81111561344b5761344a6128c9565b5b6134578482850161337d565b604083015250606082015167ffffffffffffffff81111561347b5761347a6128c9565b5b6134878482850161337d565b60608301525092915050565b6000602082840312156134a9576134a86124b2565b5b600082015167ffffffffffffffff8111156134c7576134c66124b7565b5b6134d3848285016133ab565b91505092915050565b60007fffffffff0000000000000000000000000000000000000000000000000000000082169050919050565b613511816134dc565b82525050565b600060208201905061352c6000830184613508565b92915050565b61353b81612888565b811461354657600080fd5b50565b60008151905061355881613532565b92915050565b600060208284031215613574576135736124b2565b5b600061358284828501613549565b91505092915050565b600081519050919050565b600081905092915050565b60006135ac8261358b565b6135b68185613596565b93506135c6818560208601612c36565b80840191505092915050565b60006135de82846135a1565b915081905092915050565b7f4469616d6f6e6453746f726167654c69623a204d75737420626520636f6e747260008201527f616374206f776e65720000000000000000000000000000000000000000000000602082015250565b6000613645602983612c25565b9150613650826135e9565b604082019050919050565b6000602082019050818103600083015261367481613638565b9050919050565b7f4e6f7420656e6f75676820746f6b656e20746f2073656c6c0000000000000000600082015250565b60006136b1601883612c25565b91506136bc8261367b565b602082019050919050565b600060208201905081810360008301526136e0816136a4565b9050919050565b60006080820190506136fc600083018761289a565b613709602083018661289a565b61371660408301856127ab565b61372360608301846127ab565b95945050505050565b60008115159050919050565b6137418161372c565b82525050565b600060408201905061375c6000830185612f40565b6137696020830184613738565b9392505050565b600061377b826126c0565b9150613786836126c0565b925082820390508181111561379e5761379d61324a565b5b92915050565b60006060820190506137b960008301866127ab565b6137c660208301856127ab565b6137d360408301846127ab565b949350505050565b7f54686520616374696f6e206d617920636175736520616e206163636f756e742060008201527f746f206265636f6d6520696e736f6c76656e7400000000000000000000000000602082015250565b6000613837603383612c25565b9150613842826137db565b604082019050919050565b600060208201905081810360008301526138668161382a565b9050919050565b6138768161372c565b811461388157600080fd5b50565b6000815190506138938161386d565b92915050565b6000602082840312156138af576138ae6124b2565b5b60006138bd84828501613884565b91505092915050565b7f4f6e6c792077686974656c6973746564206163636f756e74732063616e20706560008201527f72666f726d207468697320616374696f6e000000000000000000000000000000602082015250565b6000613922603183612c25565b915061392d826138c6565b604082019050919050565b6000602082019050818103600083015261395181613915565b9050919050565b600060408201905061396d600083018561289a565b61397a602083018461289a565b9392505050565b600060a082019050613996600083018861289a565b6139a3602083018761289a565b6139b060408301866127ab565b6139bd60608301856127ab565b6139ca60808301846127ab565b9695505050505050565b600080604083850312156139eb576139ea6124b2565b5b60006139f985828601613067565b9250506020613a0a85828601613067565b9150509250929050565b600060c082019050613a296000830189612f40565b613a366020830188612f40565b613a4360408301876127ab565b613a5060608301866127ab565b613a5d60808301856127ab565b613a6a60a08301846127ab565b979650505050505050565b7f4d757374207374617920736f6c76656e74000000000000000000000000000000600082015250565b6000613aab601183612c25565b9150613ab682613a75565b602082019050919050565b60006020820190508181036000830152613ada81613a9e565b9050919050565b7f4e6f7420656e6f75676820746f6b656e4120746f2070726f7669646500000000600082015250565b6000613b17601c83612c25565b9150613b2282613ae1565b602082019050919050565b60006020820190508181036000830152613b4681613b0a565b9050919050565b7f4e6f7420656e6f75676820746f6b656e4220746f2070726f7669646500000000600082015250565b6000613b83601c83612c25565b9150613b8e82613b4d565b602082019050919050565b60006020820190508181036000830152613bb281613b76565b9050919050565b600060c082019050613bce600083018961289a565b613bdb602083018861289a565b613be860408301876127ab565b613bf560608301866127ab565b613c0260808301856127ab565b613c0f60a08301846127ab565b979650505050505050565b60008060008060808587031215613c3457613c336124b2565b5b6000613c4287828801613549565b9450506020613c5387828801613067565b9350506040613c6487828801613067565b9250506060613c7587828801613067565b91505092959194509250565b6000613c8c826126c0565b9150613c97836126c0565b9250828201905080821115613caf57613cae61324a565b5b92915050565b600082825260208201905092915050565b6000613cd18261358b565b613cdb8185613cb5565b9350613ceb818560208601612c36565b613cf4816124c1565b840191505092915050565b60006020820190508181036000830152613d198184613cc6565b905092915050565b6000604082019050613d36600083018561289a565b613d4360208301846127ab565b9392505050565b7f5472616e7366657248656c7065723a3a736166655472616e736665723a20747260008201527f616e73666572206661696c656400000000000000000000000000000000000000602082015250565b6000613da6602d83612c25565b9150613db182613d4a565b604082019050919050565b60006020820190508181036000830152613dd581613d99565b9050919050565b7f53796d626f6c2063616e6e6f7420626520656d70747900000000000000000000600082015250565b6000613e12601683612c25565b9150613e1d82613ddc565b602082019050919050565b60006020820190508181036000830152613e4181613e05565b9050919050565b7f496e76616c696420416464726573735a65726f00000000000000000000000000600082015250565b6000613e7e601383612c25565b9150613e8982613e48565b602082019050919050565b60006020820190508181036000830152613ead81613e71565b9050919050565b600081905092915050565b6000613eca82612c1a565b613ed48185613eb4565b9350613ee4818560208601612c36565b80840191505092915050565b7f5f00000000000000000000000000000000000000000000000000000000000000815250565b7f5f4c500000000000000000000000000000000000000000000000000000000000815250565b6000613f488286613ebf565b9150613f5382613ef0565b600182019150613f638285613ebf565b9150613f6e82613ef0565b600182019150613f7e8284613ebf565b9150613f8982613f16565b600382019150819050949350505050565b6000613fa5826126c0565b91507fffffffffffffffffffffffffffffffffffffffffffffffffffffffffffffffff8203613fd757613fd661324a565b5b600182019050919050565b6000613fed826126c0565b9150613ff8836126c0565b9250828202614006816126c0565b9150828204841483151761401d5761401c61324a565b5b5092915050565b7f4e487b7100000000000000000000000000000000000000000000000000000000600052603160045260246000fdfea2646970667358221220b3a9f99db114c3028d8221c98cf0728fbc961a4ff2dd2e82e7b01286a0a07b7164736f6c63430008110033",
  "devdoc": {
    "kind": "dev",
    "methods": {
      "swapPangolin(bytes32,bytes32,uint256,uint256)": {
        "details": "This function uses the redstone-evm-connector",
        "params": {
          "_boughtAsset": "asset to be bought",
          "_exactSold": "exact amount of asset to be sold",
          "_minimumBought": "minimum amount of asset to be bought*",
          "_soldAsset": "asset to be sold"
        }
      }
    },
    "version": 1
  },
  "userdoc": {
    "kind": "user",
    "methods": {
      "getExchangeIntermediaryContract()": {
        "notice": "Returns address of UniswapV2-like exchange*"
      },
      "swapPangolin(bytes32,bytes32,uint256,uint256)": {
        "notice": "Swaps one asset to another"
      }
    },
    "version": 1
  },
  "storageLayout": {
    "storage": [
      {
        "astId": 6661,
        "contract": "contracts/facets/avalanche/PangolinDEXFacet.sol:PangolinDEXFacet",
        "label": "_status",
        "offset": 0,
        "slot": "0",
        "type": "t_uint256"
      }
    ],
    "types": {
      "t_uint256": {
        "encoding": "inplace",
        "label": "uint256",
        "numberOfBytes": "32"
      }
    }
  }
}