{
  "address": "0x280027359Db03B38A2c765a49457b5D02208e90d",
  "abi": [
    {
      "inputs": [],
      "name": "CalldataMustHaveValidPayload",
      "type": "error"
    },
    {
      "inputs": [],
      "name": "CalldataOverOrUnderFlow",
      "type": "error"
    },
    {
      "inputs": [],
      "name": "EachSignerMustProvideTheSameValue",
      "type": "error"
    },
    {
      "inputs": [],
      "name": "EmptyCalldataPointersArr",
      "type": "error"
    },
    {
      "inputs": [],
      "name": "IncorrectUnsignedMetadataSize",
      "type": "error"
    },
    {
      "inputs": [
        {
          "internalType": "uint256",
          "name": "receviedSignersCount",
          "type": "uint256"
        },
        {
          "internalType": "uint256",
          "name": "requiredSignersCount",
          "type": "uint256"
        }
      ],
      "name": "InsufficientNumberOfUniqueSigners",
      "type": "error"
    },
    {
      "inputs": [],
      "name": "InvalidCalldataPointer",
      "type": "error"
    },
    {
      "inputs": [
        {
          "internalType": "bytes",
          "name": "result",
          "type": "bytes"
        }
      ],
      "name": "ProxyCalldataFailedWithCustomError",
      "type": "error"
    },
    {
      "inputs": [
        {
          "internalType": "string",
          "name": "message",
          "type": "string"
        }
      ],
      "name": "ProxyCalldataFailedWithStringMessage",
      "type": "error"
    },
    {
      "inputs": [],
      "name": "ProxyCalldataFailedWithoutErrMsg",
      "type": "error"
    },
    {
      "inputs": [
        {
          "internalType": "address",
          "name": "receivedSigner",
          "type": "address"
        }
      ],
      "name": "SignerNotAuthorised",
      "type": "error"
    },
    {
      "anonymous": false,
      "inputs": [
        {
          "indexed": true,
          "internalType": "address",
          "name": "user",
          "type": "address"
        },
        {
          "indexed": true,
          "internalType": "address",
          "name": "lpToken",
          "type": "address"
        },
        {
          "indexed": false,
          "internalType": "bytes32",
          "name": "firstAsset",
          "type": "bytes32"
        },
        {
          "indexed": false,
          "internalType": "bytes32",
          "name": "secondAsset",
          "type": "bytes32"
        },
        {
          "indexed": false,
          "internalType": "uint256",
          "name": "liquidity",
          "type": "uint256"
        },
        {
          "indexed": false,
          "internalType": "uint256",
          "name": "firstAmount",
          "type": "uint256"
        },
        {
          "indexed": false,
          "internalType": "uint256",
          "name": "secondAmount",
          "type": "uint256"
        },
        {
          "indexed": false,
          "internalType": "uint256",
          "name": "timestamp",
          "type": "uint256"
        }
      ],
      "name": "AddLiquidity",
      "type": "event"
    },
    {
      "anonymous": false,
      "inputs": [
        {
          "indexed": true,
          "internalType": "address",
          "name": "user",
          "type": "address"
        },
        {
          "indexed": true,
          "internalType": "address",
          "name": "lpToken",
          "type": "address"
        },
        {
          "indexed": false,
          "internalType": "bytes32",
          "name": "firstAsset",
          "type": "bytes32"
        },
        {
          "indexed": false,
          "internalType": "bytes32",
          "name": "secondAsset",
          "type": "bytes32"
        },
        {
          "indexed": false,
          "internalType": "uint256",
          "name": "liquidity",
          "type": "uint256"
        },
        {
          "indexed": false,
          "internalType": "uint256",
          "name": "firstAmount",
          "type": "uint256"
        },
        {
          "indexed": false,
          "internalType": "uint256",
          "name": "secondAmount",
          "type": "uint256"
        },
        {
          "indexed": false,
          "internalType": "uint256",
          "name": "timestamp",
          "type": "uint256"
        }
      ],
      "name": "RemoveLiquidity",
      "type": "event"
    },
    {
      "anonymous": false,
      "inputs": [
        {
          "indexed": true,
          "internalType": "address",
          "name": "user",
          "type": "address"
        },
        {
          "indexed": true,
          "internalType": "bytes32",
          "name": "soldAsset",
          "type": "bytes32"
        },
        {
          "indexed": true,
          "internalType": "bytes32",
          "name": "boughtAsset",
          "type": "bytes32"
        },
        {
          "indexed": false,
          "internalType": "uint256",
          "name": "maximumSold",
          "type": "uint256"
        },
        {
          "indexed": false,
          "internalType": "uint256",
          "name": "minimumBought",
          "type": "uint256"
        },
        {
          "indexed": false,
          "internalType": "uint256",
          "name": "timestamp",
          "type": "uint256"
        }
      ],
      "name": "Swap",
      "type": "event"
    },
    {
      "inputs": [
        {
          "internalType": "bytes32[]",
          "name": "assetsToRepay",
          "type": "bytes32[]"
        }
      ],
      "name": "_getAllPricesForLiquidation",
      "outputs": [
        {
          "components": [
            {
              "components": [
                {
                  "internalType": "bytes32",
                  "name": "asset",
                  "type": "bytes32"
                },
                {
                  "internalType": "uint256",
                  "name": "price",
                  "type": "uint256"
                }
              ],
              "internalType": "struct SolvencyFacetProd.AssetPrice[]",
              "name": "ownedAssetsPrices",
              "type": "tuple[]"
            },
            {
              "components": [
                {
                  "internalType": "bytes32",
                  "name": "asset",
                  "type": "bytes32"
                },
                {
                  "internalType": "uint256",
                  "name": "price",
                  "type": "uint256"
                }
              ],
              "internalType": "struct SolvencyFacetProd.AssetPrice[]",
              "name": "debtAssetsPrices",
              "type": "tuple[]"
            },
            {
              "components": [
                {
                  "internalType": "bytes32",
                  "name": "asset",
                  "type": "bytes32"
                },
                {
                  "internalType": "uint256",
                  "name": "price",
                  "type": "uint256"
                }
              ],
              "internalType": "struct SolvencyFacetProd.AssetPrice[]",
              "name": "stakedPositionsPrices",
              "type": "tuple[]"
            },
            {
              "components": [
                {
                  "internalType": "bytes32",
                  "name": "asset",
                  "type": "bytes32"
                },
                {
                  "internalType": "uint256",
                  "name": "price",
                  "type": "uint256"
                }
              ],
              "internalType": "struct SolvencyFacetProd.AssetPrice[]",
              "name": "assetsToRepayPrices",
              "type": "tuple[]"
            }
          ],
          "internalType": "struct SolvencyFacetProd.CachedPrices",
          "name": "result",
          "type": "tuple"
        }
      ],
      "stateMutability": "nonpayable",
      "type": "function"
    },
    {
      "inputs": [],
      "name": "_getHealthRatio",
      "outputs": [
        {
          "internalType": "uint256",
          "name": "health",
          "type": "uint256"
        }
      ],
      "stateMutability": "nonpayable",
      "type": "function"
    },
    {
      "inputs": [
        {
          "components": [
            {
              "components": [
                {
                  "internalType": "bytes32",
                  "name": "asset",
                  "type": "bytes32"
                },
                {
                  "internalType": "uint256",
                  "name": "price",
                  "type": "uint256"
                }
              ],
              "internalType": "struct SolvencyFacetProd.AssetPrice[]",
              "name": "ownedAssetsPrices",
              "type": "tuple[]"
            },
            {
              "components": [
                {
                  "internalType": "bytes32",
                  "name": "asset",
                  "type": "bytes32"
                },
                {
                  "internalType": "uint256",
                  "name": "price",
                  "type": "uint256"
                }
              ],
              "internalType": "struct SolvencyFacetProd.AssetPrice[]",
              "name": "debtAssetsPrices",
              "type": "tuple[]"
            },
            {
              "components": [
                {
                  "internalType": "bytes32",
                  "name": "asset",
                  "type": "bytes32"
                },
                {
                  "internalType": "uint256",
                  "name": "price",
                  "type": "uint256"
                }
              ],
              "internalType": "struct SolvencyFacetProd.AssetPrice[]",
              "name": "stakedPositionsPrices",
              "type": "tuple[]"
            },
            {
              "components": [
                {
                  "internalType": "bytes32",
                  "name": "asset",
                  "type": "bytes32"
                },
                {
                  "internalType": "uint256",
                  "name": "price",
                  "type": "uint256"
                }
              ],
              "internalType": "struct SolvencyFacetProd.AssetPrice[]",
              "name": "assetsToRepayPrices",
              "type": "tuple[]"
            }
          ],
          "internalType": "struct SolvencyFacetProd.CachedPrices",
          "name": "cachedPrices",
          "type": "tuple"
        }
      ],
      "name": "_getHealthRatioWithPrices",
      "outputs": [
        {
          "internalType": "uint256",
          "name": "health",
          "type": "uint256"
        }
      ],
      "stateMutability": "nonpayable",
      "type": "function"
    },
    {
      "inputs": [
        {
          "internalType": "bytes32",
          "name": "_firstAsset",
          "type": "bytes32"
        },
        {
          "internalType": "bytes32",
          "name": "_secondAsset",
          "type": "bytes32"
        },
        {
          "internalType": "uint256",
          "name": "amountADesired",
          "type": "uint256"
        },
        {
          "internalType": "uint256",
          "name": "amountBDesired",
          "type": "uint256"
        },
        {
          "internalType": "uint256",
          "name": "amountAMin",
          "type": "uint256"
        },
        {
          "internalType": "uint256",
          "name": "amountBMin",
          "type": "uint256"
        }
      ],
      "name": "addLiquidityPangolin",
      "outputs": [],
      "stateMutability": "nonpayable",
      "type": "function"
    },
    {
      "inputs": [
        {
          "internalType": "bytes32",
          "name": "_bytes32",
          "type": "bytes32"
        }
      ],
      "name": "bytes32ToString",
      "outputs": [
        {
          "internalType": "string",
          "name": "",
          "type": "string"
        }
      ],
      "stateMutability": "pure",
      "type": "function"
    },
    {
      "inputs": [],
      "name": "getExchangeIntermediaryContract",
      "outputs": [
        {
          "internalType": "address",
          "name": "",
          "type": "address"
        }
      ],
      "stateMutability": "nonpayable",
      "type": "function"
    },
    {
      "inputs": [
        {
          "internalType": "bytes32",
          "name": "symbol",
          "type": "bytes32"
        }
      ],
      "name": "getPrice",
      "outputs": [
        {
          "internalType": "uint256",
          "name": "price",
          "type": "uint256"
        }
      ],
      "stateMutability": "nonpayable",
      "type": "function"
    },
    {
      "inputs": [
        {
          "internalType": "bytes32[]",
          "name": "symbols",
          "type": "bytes32[]"
        }
      ],
      "name": "getPrices",
      "outputs": [
        {
          "internalType": "uint256[]",
          "name": "prices",
          "type": "uint256[]"
        }
      ],
      "stateMutability": "nonpayable",
      "type": "function"
    },
    {
      "inputs": [
        {
          "internalType": "bytes32",
          "name": "_firstAsset",
          "type": "bytes32"
        },
        {
          "internalType": "bytes32",
          "name": "_secondAsset",
          "type": "bytes32"
        },
        {
          "internalType": "uint256",
          "name": "liquidity",
          "type": "uint256"
        },
        {
          "internalType": "uint256",
          "name": "amountAMin",
          "type": "uint256"
        },
        {
          "internalType": "uint256",
          "name": "amountBMin",
          "type": "uint256"
        }
      ],
      "name": "removeLiquidityPangolin",
      "outputs": [],
      "stateMutability": "nonpayable",
      "type": "function"
    },
    {
      "inputs": [
        {
          "internalType": "string",
          "name": "source",
          "type": "string"
        }
      ],
      "name": "stringToBytes32",
      "outputs": [
        {
          "internalType": "bytes32",
          "name": "result",
          "type": "bytes32"
        }
      ],
      "stateMutability": "pure",
      "type": "function"
    },
    {
      "inputs": [
        {
          "internalType": "bytes32",
          "name": "_soldAsset",
          "type": "bytes32"
        },
        {
          "internalType": "bytes32",
          "name": "_boughtAsset",
          "type": "bytes32"
        },
        {
          "internalType": "uint256",
          "name": "_exactSold",
          "type": "uint256"
        },
        {
          "internalType": "uint256",
          "name": "_minimumBought",
          "type": "uint256"
        }
      ],
      "name": "swapPangolin",
      "outputs": [
        {
          "internalType": "uint256[]",
          "name": "",
          "type": "uint256[]"
        }
      ],
      "stateMutability": "nonpayable",
      "type": "function"
    }
  ],
  "transactionHash": "0xf117d203ad1efd14eb21a4ce69aa687beeffc9a102ca5033070ad7178a1cdfc9",
  "args": [],
  "numDeployments": 1,
  "solcInputHash": "4e8993e97e80f2a1e8df3f67476f343b",
  "bytecode": "0x608060405234801561001057600080fd5b506001600081905550613ba5806100286000396000f3fe608060405234801561001057600080fd5b50600436106100a95760003560e01c80636e3bfe9f116100715780636e3bfe9f1461017a5780637fe65943146101aa578063838986f8146101c65780639201de55146101e2578063b2d40e7314610212578063cfb5192814610242576100a9565b806326ee4836146100ae57806331d98b3f146100de57806339e2719e1461010e5780634e5439001461012c578063640adf781461015c575b600080fd5b6100c860048036038101906100c391906122f7565b610272565b6040516100d59190612408565b60405180910390f35b6100f860048036038101906100f3919061242a565b61031c565b6040516101059190612466565b60405180910390f35b6101166103c6565b6040516101239190612466565b60405180910390f35b610146600480360381019061014191906124ad565b610463565b6040516101539190612408565b60405180910390f35b610164610483565b6040516101719190612555565b60405180910390f35b610194600480360381019061018f9190612775565b61049f565b6040516101a19190612466565b60405180910390f35b6101c460048036038101906101bf91906127be565b610549565b005b6101e060048036038101906101db9190612839565b610565565b005b6101fc60048036038101906101f7919061242a565b610583565b6040516102099190612945565b60405180910390f35b61022c600480360381019061022791906122f7565b61071e565b6040516102399190612acc565b60405180910390f35b61025c60048036038101906102579190612ba3565b6107ce565b6040516102699190612bfb565b60405180910390f35b60606103026102876326ee483660e01b6107f7565b6326ee483660e01b846040516024016102a09190612cc5565b604051602081830303815290604052907bffffffffffffffffffffffffffffffffffffffffffffffffffffffff19166020820180517bffffffffffffffffffffffffffffffffffffffffffffffffffffffff8381831617835250505050610881565b8060200190518101906103159190612dbf565b9050919050565b60006103ac6103316331d98b3f60e01b6107f7565b6331d98b3f60e01b8460405160240161034a9190612bfb565b604051602081830303815290604052907bffffffffffffffffffffffffffffffffffffffffffffffffffffffff19166020820180517bffffffffffffffffffffffffffffffffffffffffffffffffffffffff8381831617835250505050610881565b8060200190518101906103bf9190612e08565b9050919050565b600061044b6103db637914334f60e01b6107f7565b637914334f60e01b604051602401604051602081830303815290604052907bffffffffffffffffffffffffffffffffffffffffffffffffffffffff19166020820180517bffffffffffffffffffffffffffffffffffffffffffffffffffffffff8381831617835250505050610881565b80602001905181019061045e9190612e08565b905090565b606061046d610912565b610479858585856109ad565b9050949350505050565b600073771b8299ec07ae868fcd6c2bd76718f0f1bb4901905090565b600061052f6104b463360398a360e01b6107f7565b63360398a360e01b846040516024016104cd9190612acc565b604051602081830303815290604052907bffffffffffffffffffffffffffffffffffffffffffffffffffffffff19166020820180517bffffffffffffffffffffffffffffffffffffffffffffffffffffffff8381831617835250505050610881565b8060200190518101906105429190612e08565b9050919050565b610551610912565b61055e8585858585610de5565b5050505050565b61056d610912565b61057b8686868686866110d8565b505050505050565b606060005b60208160ff161080156105da5750600060f81b838260ff16602081106105b1576105b0612e35565b5b1a60f81b7effffffffffffffffffffffffffffffffffffffffffffffffffffffffffffff191614155b156105f25780806105ea90612ea0565b915050610588565b60008160ff1667ffffffffffffffff8111156106115761061061217e565b5b6040519080825280601f01601f1916602001820160405280156106435781602001600182028036833780820191505090505b509050600091505b60208260ff1610801561069d5750600060f81b848360ff166020811061067457610673612e35565b5b1a60f81b7effffffffffffffffffffffffffffffffffffffffffffffffffffffffffffff191614155b1561071457838260ff16602081106106b8576106b7612e35565b5b1a60f81b818360ff16815181106106d2576106d1612e35565b5b60200101907effffffffffffffffffffffffffffffffffffffffffffffffffffffffffffff1916908160001a905350818061070c90612ea0565b92505061064b565b8092505050919050565b61072661212c565b6107b461073963a3aa8d1e60e01b6107f7565b63a3aa8d1e60e01b846040516024016107529190612cc5565b604051602081830303815290604052907bffffffffffffffffffffffffffffffffffffffffffffffffffffffff19166020820180517bffffffffffffffffffffffffffffffffffffffffffffffffffffffff8381831617835250505050610881565b8060200190518101906107c791906130ad565b9050919050565b60008082905060008151036107e9576000801b9150506107f2565b60208301519150505b919050565b6000610801611606565b73ffffffffffffffffffffffffffffffffffffffff16630d741577836040518263ffffffff1660e01b81526004016108399190613131565b602060405180830381865afa158015610856573d6000803e3d6000fd5b505050506040513d601f19601f8201168201806040525081019061087a9190613178565b9050919050565b6060600061088e83611622565b90506000808573ffffffffffffffffffffffffffffffffffffffff16836040516108b891906131ec565b600060405180830381855af49150503d80600081146108f3576040519150601f19603f3d011682016040523d82523d6000602084013e6108f8565b606091505b509150915061090782826116dc565b935050505092915050565b61091a6117dc565b60010160009054906101000a900473ffffffffffffffffffffffffffffffffffffffff1673ffffffffffffffffffffffffffffffffffffffff163373ffffffffffffffffffffffffffffffffffffffff16146109ab576040517f08c379a00000000000000000000000000000000000000000000000000000000081526004016109a290613275565b60405180910390fd5b565b606060006109bc866001611809565b905060006109cb866000611809565b9050848273ffffffffffffffffffffffffffffffffffffffff166370a08231306040518263ffffffff1660e01b8152600401610a079190612555565b602060405180830381865afa158015610a24573d6000803e3d6000fd5b505050506040513d601f19601f82011682018060405250810190610a489190612e08565b1015610a89576040517f08c379a0000000000000000000000000000000000000000000000000000000008152600401610a80906132e1565b60405180910390fd5b610abb610a94610483565b868473ffffffffffffffffffffffffffffffffffffffff166118969092919063ffffffff16565b6000610ac5610483565b905060008173ffffffffffffffffffffffffffffffffffffffff1663fe02915685858a8a6040518563ffffffff1660e01b8152600401610b089493929190613301565b6000604051808303816000875af1158015610b27573d6000803e3d6000fd5b505050506040513d6000823e3d601f19601f82011682018060405250810190610b509190612dbf565b90506000610b5c6119cc565b905060008173ffffffffffffffffffffffffffffffffffffffff166325eb876f8b60006040518363ffffffff1660e01b8152600401610b9c929190613361565b602060405180830381865afa158015610bb9573d6000803e3d6000fd5b505050506040513d601f19601f82011682018060405250810190610bdd9190613178565b905060008573ffffffffffffffffffffffffffffffffffffffff166370a08231306040518263ffffffff1660e01b8152600401610c1a9190612555565b602060405180830381865afa158015610c37573d6000803e3d6000fd5b505050506040513d601f19601f82011682018060405250810190610c5b9190612e08565b1115610c6c57610c6b8a826119e8565b5b60008673ffffffffffffffffffffffffffffffffffffffff166370a08231306040518263ffffffff1660e01b8152600401610ca79190612555565b602060405180830381865afa158015610cc4573d6000803e3d6000fd5b505050506040513d601f19601f82011682018060405250810190610ce89190612e08565b03610cf757610cf68b611aba565b5b898b3373ffffffffffffffffffffffffffffffffffffffff167f4cb7ea834525f7e7be14143ffc68be9c6735559e936d23502fff335d39a2e8e286600081518110610d4557610d44612e35565b5b60200260200101518760018951610d5c919061338a565b81518110610d6d57610d6c612e35565b5b602002602001015142604051610d85939291906133be565b60405180910390a4829650505050505050610d9e611ad8565b610ddd576040517f08c379a0000000000000000000000000000000000000000000000000000000008152600401610dd490613467565b60405180910390fd5b949350505050565b6000610df2866001611809565b90506000610e01866001611809565b90506000610e0d610483565b905060008173ffffffffffffffffffffffffffffffffffffffff1663e6a4390585856040518363ffffffff1660e01b8152600401610e4c929190613487565b6020604051808303816000875af1158015610e6b573d6000803e3d6000fd5b505050506040513d601f19601f82011682018060405250810190610e8f9190613178565b9050610ec3610e9c610483565b888373ffffffffffffffffffffffffffffffffffffffff166118969092919063ffffffff16565b6000808373ffffffffffffffffffffffffffffffffffffffff1663e2dc85dc87878c8c8c6040518663ffffffff1660e01b8152600401610f079594939291906134b0565b60408051808303816000875af1158015610f25573d6000803e3d6000fd5b505050506040513d601f19601f82011682018060405250810190610f499190613503565b9150915060008373ffffffffffffffffffffffffffffffffffffffff166370a08231306040518263ffffffff1660e01b8152600401610f889190612555565b602060405180830381865afa158015610fa5573d6000803e3d6000fd5b505050506040513d601f19601f82011682018060405250810190610fc99190612e08565b03611001576000808b8d10610fdf578b8d610fe2565b8c8c5b915091506000610ff28383611b75565b9050610ffd81611aba565b5050505b61100b8b876119e8565b6110158a866119e8565b8273ffffffffffffffffffffffffffffffffffffffff163373ffffffffffffffffffffffffffffffffffffffff167f60d6d04a69b63b07bc4612079adf2399fcc2b9da68fe609fe66ffbe16fca76f48d8d8d87874260405161107c96959493929190613543565b60405180910390a3505050505050611092611ad8565b6110d1576040517f08c379a00000000000000000000000000000000000000000000000000000000081526004016110c890613467565b60405180910390fd5b5050505050565b60006110e5876000611809565b905060006110f4876000611809565b9050858273ffffffffffffffffffffffffffffffffffffffff166370a08231306040518263ffffffff1660e01b81526004016111309190612555565b602060405180830381865afa15801561114d573d6000803e3d6000fd5b505050506040513d601f19601f820116820180604052508101906111719190612e08565b10156111b2576040517f08c379a00000000000000000000000000000000000000000000000000000000081526004016111a9906135f0565b60405180910390fd5b848173ffffffffffffffffffffffffffffffffffffffff166370a08231306040518263ffffffff1660e01b81526004016111ec9190612555565b602060405180830381865afa158015611209573d6000803e3d6000fd5b505050506040513d601f19601f8201168201806040525081019061122d9190612e08565b101561126e576040517f08c379a00000000000000000000000000000000000000000000000000000000081526004016112659061365c565b60405180910390fd5b6112a0611279610483565b878473ffffffffffffffffffffffffffffffffffffffff166118969092919063ffffffff16565b6112d26112ab610483565b868373ffffffffffffffffffffffffffffffffffffffff166118969092919063ffffffff16565b60006112dc610483565b90506000808273ffffffffffffffffffffffffffffffffffffffff16633351733f86868c8c8c8c6040518763ffffffff1660e01b81526004016113249695949392919061367c565b6080604051808303816000875af1158015611343573d6000803e3d6000fd5b505050506040513d601f19601f8201168201806040525081019061136791906136dd565b809450819b50829c508395505050505060008273ffffffffffffffffffffffffffffffffffffffff166370a08231306040518263ffffffff1660e01b81526004016113b29190612555565b602060405180830381865afa1580156113cf573d6000803e3d6000fd5b505050506040513d601f19601f820116820180604052508101906113f39190612e08565b111561142d576000808b8d1061140a578b8d61140d565b8c8c5b91509150600061141d8383611b75565b905061142981866119e8565b5050505b60008573ffffffffffffffffffffffffffffffffffffffff166370a08231306040518263ffffffff1660e01b81526004016114689190612555565b602060405180830381865afa158015611485573d6000803e3d6000fd5b505050506040513d601f19601f820116820180604052508101906114a99190612e08565b036114b8576114b78b611aba565b5b60008473ffffffffffffffffffffffffffffffffffffffff166370a08231306040518263ffffffff1660e01b81526004016114f39190612555565b602060405180830381865afa158015611510573d6000803e3d6000fd5b505050506040513d601f19601f820116820180604052508101906115349190612e08565b03611543576115428a611aba565b5b8173ffffffffffffffffffffffffffffffffffffffff163373ffffffffffffffffffffffffffffffffffffffff167fee6437c12e66102495172228742a18765355debe1f046d82bcd14f8dc66f11678d8d858e8e426040516115aa96959493929190613543565b60405180910390a350505050506115bf611ad8565b6115fe576040517f08c379a00000000000000000000000000000000000000000000000000000000081526004016115f590613467565b60405180910390fd5b505050505050565b600073023da3e0d49ee05704773271b11484c6d1e76ccb905090565b60606000825190506000611634611bca565b9050600081836116449190613744565b90506000369050821115611684576040517f5796f78a00000000000000000000000000000000000000000000000000000000815260040160405180910390fd5b6060604051905081815285602001848101826020015b818310156116b7578251815260208301925060208101905061169a565b5050508283360385602001830137602084840182010160405280945050505050919050565b6060826117d357600082510361171e576040517f567fe27a00000000000000000000000000000000000000000000000000000000815260040160405180910390fd5b600060208301517f08c379a00000000000000000000000000000000000000000000000000000000081149150508015611796576060604484019050806040517f0f7e827800000000000000000000000000000000000000000000000000000000815260040161178d9190612945565b60405180910390fd5b826040517ffd36fde30000000000000000000000000000000000000000000000000000000081526004016117ca91906137c2565b60405180910390fd5b81905092915050565b6000807f8d5bb42e0ac1496a2c326edc9c00758985246e6c2bb146d6c2f4a0d509e0960a90508091505090565b60006118136119cc565b73ffffffffffffffffffffffffffffffffffffffff166325eb876f84846040518363ffffffff1660e01b815260040161184d929190613361565b602060405180830381865afa15801561186a573d6000803e3d6000fd5b505050506040513d601f19601f8201168201806040525081019061188e9190613178565b905092915050565b6000808473ffffffffffffffffffffffffffffffffffffffff1663a9059cbb85856040516024016118c89291906137e4565b6040516020818303038152906040529060e01b6020820180517bffffffffffffffffffffffffffffffffffffffffffffffffffffffff838183161783525050505060405161191691906131ec565b6000604051808303816000865af19150503d8060008114611953576040519150601f19603f3d011682016040523d82523d6000602084013e611958565b606091505b509150915081801561198657506000815114806119855750808060200190518101906119849190613839565b5b5b6119c5576040517f08c379a00000000000000000000000000000000000000000000000000000000081526004016119bc906138d8565b60405180910390fd5b5050505050565b60007365602433458f95a6c57477c03fd18f6d52a6e5f6905090565b60008203611a2b576040517f08c379a0000000000000000000000000000000000000000000000000000000008152600401611a2290613944565b60405180910390fd5b600073ffffffffffffffffffffffffffffffffffffffff168173ffffffffffffffffffffffffffffffffffffffff1603611a9a576040517f08c379a0000000000000000000000000000000000000000000000000000000008152600401611a91906139b0565b60405180910390fd5b6000611aa46117dc565b9050611ab4816004018484611c3a565b50505050565b6000611ac46117dc565b9050611ad38160040183611c6c565b505050565b6000611b5d611aed635ce2395060e01b6107f7565b635ce2395060e01b604051602401604051602081830303815290604052907bffffffffffffffffffffffffffffffffffffffffffffffffffffffff19166020820180517bffffffffffffffffffffffffffffffffffffffffffffffffffffffff8381831617835250505050610881565b806020019051810190611b709190613839565b905090565b6000611bc2611b8a611b85611c83565b610583565b611b9385610583565b611b9c85610583565b604051602001611bae93929190613a58565b6040516020818303038152906040526107ce565b905092915050565b600080611bd5611cab565b90506000611be282611dbc565b61ffff169050600282611bf59190613744565b915060005b81811015611c31576000611c0d84611e18565b90508084611c1b9190613744565b9350508080611c2990613ab6565b915050611bfa565b50819250505090565b6000611c6384600001848473ffffffffffffffffffffffffffffffffffffffff1660001b611e57565b90509392505050565b6000611c7b8360000183611e92565b905092915050565b60007f504e470000000000000000000000000000000000000000000000000000000000905090565b60008060203603356602ed57011e000081166602ed57011e00001491505080611d00576040517fe7764c9e00000000000000000000000000000000000000000000000000000000815260040160405180910390fd5b60008036905060291115611d40576040517f5796f78a00000000000000000000000000000000000000000000000000000000815260040160405180910390fd5b602936033590506000600960038362ffffff16611d5d9190613744565b611d679190613744565b90506000369050600282611d7b9190613744565b1115611db3576040517fc30a7bd700000000000000000000000000000000000000000000000000000000815260040160405180910390fd5b80935050505090565b600080602083611dcc9190613744565b90506000369050811115611e0c576040517f5796f78a00000000000000000000000000000000000000000000000000000000815260040160405180910390fd5b80360335915050919050565b6000806000611e2684611ecb565b91509150604e816020611e399190613744565b83611e449190613afe565b611e4e9190613744565b92505050919050565b60008184600201600085815260200190815260200160002081905550611e898385600001611f4190919063ffffffff16565b90509392505050565b600082600201600083815260200190815260200160002060009055611ec38284600001611f5890919063ffffffff16565b905092915050565b6000806000806000604186611ee09190613744565b90506000611f07602083611ef49190613744565b6000369050611f6f90919063ffffffff16565b905080359350611f21600382611f6f90919063ffffffff16565b9050803592508362ffffff1695508263ffffffff16945050505050915091565b6000611f508360000183611f85565b905092915050565b6000611f678360000183611ff5565b905092915050565b60008183611f7d919061338a565b905092915050565b6000611f918383612109565b611fea578260000182908060018154018082558091505060019003906000526020600020016000909190919091505582600001805490508360010160008481526020019081526020016000208190555060019050611fef565b600090505b92915050565b600080836001016000848152602001908152602001600020549050600081146120fd576000600182612027919061338a565b905060006001866000018054905061203f919061338a565b90508181146120ae5760008660000182815481106120605761205f612e35565b5b906000526020600020015490508087600001848154811061208457612083612e35565b5b90600052602060002001819055508387600101600083815260200190815260200160002081905550505b856000018054806120c2576120c1613b40565b5b600190038181906000526020600020016000905590558560010160008681526020019081526020016000206000905560019350505050612103565b60009150505b92915050565b600080836001016000848152602001908152602001600020541415905092915050565b6040518060800160405280606081526020016060815260200160608152602001606081525090565b6000604051905090565b600080fd5b600080fd5b600080fd5b6000601f19601f8301169050919050565b7f4e487b7100000000000000000000000000000000000000000000000000000000600052604160045260246000fd5b6121b68261216d565b810181811067ffffffffffffffff821117156121d5576121d461217e565b5b80604052505050565b60006121e8612154565b90506121f482826121ad565b919050565b600067ffffffffffffffff8211156122145761221361217e565b5b602082029050602081019050919050565b600080fd5b6000819050919050565b61223d8161222a565b811461224857600080fd5b50565b60008135905061225a81612234565b92915050565b600061227361226e846121f9565b6121de565b9050808382526020820190506020840283018581111561229657612295612225565b5b835b818110156122bf57806122ab888261224b565b845260208401935050602081019050612298565b5050509392505050565b600082601f8301126122de576122dd612168565b5b81356122ee848260208601612260565b91505092915050565b60006020828403121561230d5761230c61215e565b5b600082013567ffffffffffffffff81111561232b5761232a612163565b5b612337848285016122c9565b91505092915050565b600081519050919050565b600082825260208201905092915050565b6000819050602082019050919050565b6000819050919050565b61237f8161236c565b82525050565b60006123918383612376565b60208301905092915050565b6000602082019050919050565b60006123b582612340565b6123bf818561234b565b93506123ca8361235c565b8060005b838110156123fb5781516123e28882612385565b97506123ed8361239d565b9250506001810190506123ce565b5085935050505092915050565b6000602082019050818103600083015261242281846123aa565b905092915050565b6000602082840312156124405761243f61215e565b5b600061244e8482850161224b565b91505092915050565b6124608161236c565b82525050565b600060208201905061247b6000830184612457565b92915050565b61248a8161236c565b811461249557600080fd5b50565b6000813590506124a781612481565b92915050565b600080600080608085870312156124c7576124c661215e565b5b60006124d58782880161224b565b94505060206124e68782880161224b565b93505060406124f787828801612498565b925050606061250887828801612498565b91505092959194509250565b600073ffffffffffffffffffffffffffffffffffffffff82169050919050565b600061253f82612514565b9050919050565b61254f81612534565b82525050565b600060208201905061256a6000830184612546565b92915050565b600080fd5b600080fd5b600067ffffffffffffffff8211156125955761259461217e565b5b602082029050602081019050919050565b6000604082840312156125bc576125bb612570565b5b6125c660406121de565b905060006125d68482850161224b565b60008301525060206125ea84828501612498565b60208301525092915050565b60006126096126048461257a565b6121de565b9050808382526020820190506040840283018581111561262c5761262b612225565b5b835b81811015612655578061264188826125a6565b84526020840193505060408101905061262e565b5050509392505050565b600082601f83011261267457612673612168565b5b81356126848482602086016125f6565b91505092915050565b6000608082840312156126a3576126a2612570565b5b6126ad60806121de565b9050600082013567ffffffffffffffff8111156126cd576126cc612575565b5b6126d98482850161265f565b600083015250602082013567ffffffffffffffff8111156126fd576126fc612575565b5b6127098482850161265f565b602083015250604082013567ffffffffffffffff81111561272d5761272c612575565b5b6127398482850161265f565b604083015250606082013567ffffffffffffffff81111561275d5761275c612575565b5b6127698482850161265f565b60608301525092915050565b60006020828403121561278b5761278a61215e565b5b600082013567ffffffffffffffff8111156127a9576127a8612163565b5b6127b58482850161268d565b91505092915050565b600080600080600060a086880312156127da576127d961215e565b5b60006127e88882890161224b565b95505060206127f98882890161224b565b945050604061280a88828901612498565b935050606061281b88828901612498565b925050608061282c88828901612498565b9150509295509295909350565b60008060008060008060c087890312156128565761285561215e565b5b600061286489828a0161224b565b965050602061287589828a0161224b565b955050604061288689828a01612498565b945050606061289789828a01612498565b93505060806128a889828a01612498565b92505060a06128b989828a01612498565b9150509295509295509295565b600081519050919050565b600082825260208201905092915050565b60005b838110156129005780820151818401526020810190506128e5565b60008484015250505050565b6000612917826128c6565b61292181856128d1565b93506129318185602086016128e2565b61293a8161216d565b840191505092915050565b6000602082019050818103600083015261295f818461290c565b905092915050565b600081519050919050565b600082825260208201905092915050565b6000819050602082019050919050565b61299c8161222a565b82525050565b6040820160008201516129b86000850182612993565b5060208201516129cb6020850182612376565b50505050565b60006129dd83836129a2565b60408301905092915050565b6000602082019050919050565b6000612a0182612967565b612a0b8185612972565b9350612a1683612983565b8060005b83811015612a47578151612a2e88826129d1565b9750612a39836129e9565b925050600181019050612a1a565b5085935050505092915050565b60006080830160008301518482036000860152612a7182826129f6565b91505060208301518482036020860152612a8b82826129f6565b91505060408301518482036040860152612aa582826129f6565b91505060608301518482036060860152612abf82826129f6565b9150508091505092915050565b60006020820190508181036000830152612ae68184612a54565b905092915050565b600080fd5b600067ffffffffffffffff821115612b0e57612b0d61217e565b5b612b178261216d565b9050602081019050919050565b82818337600083830152505050565b6000612b46612b4184612af3565b6121de565b905082815260208101848484011115612b6257612b61612aee565b5b612b6d848285612b24565b509392505050565b600082601f830112612b8a57612b89612168565b5b8135612b9a848260208601612b33565b91505092915050565b600060208284031215612bb957612bb861215e565b5b600082013567ffffffffffffffff811115612bd757612bd6612163565b5b612be384828501612b75565b91505092915050565b612bf58161222a565b82525050565b6000602082019050612c106000830184612bec565b92915050565b600081519050919050565b600082825260208201905092915050565b6000819050602082019050919050565b6000612c4e8383612993565b60208301905092915050565b6000602082019050919050565b6000612c7282612c16565b612c7c8185612c21565b9350612c8783612c32565b8060005b83811015612cb8578151612c9f8882612c42565b9750612caa83612c5a565b925050600181019050612c8b565b5085935050505092915050565b60006020820190508181036000830152612cdf8184612c67565b905092915050565b600067ffffffffffffffff821115612d0257612d0161217e565b5b602082029050602081019050919050565b600081519050612d2281612481565b92915050565b6000612d3b612d3684612ce7565b6121de565b90508083825260208201905060208402830185811115612d5e57612d5d612225565b5b835b81811015612d875780612d738882612d13565b845260208401935050602081019050612d60565b5050509392505050565b600082601f830112612da657612da5612168565b5b8151612db6848260208601612d28565b91505092915050565b600060208284031215612dd557612dd461215e565b5b600082015167ffffffffffffffff811115612df357612df2612163565b5b612dff84828501612d91565b91505092915050565b600060208284031215612e1e57612e1d61215e565b5b6000612e2c84828501612d13565b91505092915050565b7f4e487b7100000000000000000000000000000000000000000000000000000000600052603260045260246000fd5b7f4e487b7100000000000000000000000000000000000000000000000000000000600052601160045260246000fd5b600060ff82169050919050565b6000612eab82612e93565b915060ff8203612ebe57612ebd612e64565b5b600182019050919050565b600081519050612ed881612234565b92915050565b600060408284031215612ef457612ef3612570565b5b612efe60406121de565b90506000612f0e84828501612ec9565b6000830152506020612f2284828501612d13565b60208301525092915050565b6000612f41612f3c8461257a565b6121de565b90508083825260208201905060408402830185811115612f6457612f63612225565b5b835b81811015612f8d5780612f798882612ede565b845260208401935050604081019050612f66565b5050509392505050565b600082601f830112612fac57612fab612168565b5b8151612fbc848260208601612f2e565b91505092915050565b600060808284031215612fdb57612fda612570565b5b612fe560806121de565b9050600082015167ffffffffffffffff81111561300557613004612575565b5b61301184828501612f97565b600083015250602082015167ffffffffffffffff81111561303557613034612575565b5b61304184828501612f97565b602083015250604082015167ffffffffffffffff81111561306557613064612575565b5b61307184828501612f97565b604083015250606082015167ffffffffffffffff81111561309557613094612575565b5b6130a184828501612f97565b60608301525092915050565b6000602082840312156130c3576130c261215e565b5b600082015167ffffffffffffffff8111156130e1576130e0612163565b5b6130ed84828501612fc5565b91505092915050565b60007fffffffff0000000000000000000000000000000000000000000000000000000082169050919050565b61312b816130f6565b82525050565b60006020820190506131466000830184613122565b92915050565b61315581612534565b811461316057600080fd5b50565b6000815190506131728161314c565b92915050565b60006020828403121561318e5761318d61215e565b5b600061319c84828501613163565b91505092915050565b600081519050919050565b600081905092915050565b60006131c6826131a5565b6131d081856131b0565b93506131e08185602086016128e2565b80840191505092915050565b60006131f882846131bb565b915081905092915050565b7f4469616d6f6e6453746f726167654c69623a204d75737420626520636f6e747260008201527f616374206f776e65720000000000000000000000000000000000000000000000602082015250565b600061325f6029836128d1565b915061326a82613203565b604082019050919050565b6000602082019050818103600083015261328e81613252565b9050919050565b7f4e6f7420656e6f75676820746f6b656e20746f2073656c6c0000000000000000600082015250565b60006132cb6018836128d1565b91506132d682613295565b602082019050919050565b600060208201905081810360008301526132fa816132be565b9050919050565b60006080820190506133166000830187612546565b6133236020830186612546565b6133306040830185612457565b61333d6060830184612457565b95945050505050565b60008115159050919050565b61335b81613346565b82525050565b60006040820190506133766000830185612bec565b6133836020830184613352565b9392505050565b60006133958261236c565b91506133a08361236c565b92508282039050818111156133b8576133b7612e64565b5b92915050565b60006060820190506133d36000830186612457565b6133e06020830185612457565b6133ed6040830184612457565b949350505050565b7f54686520616374696f6e206d617920636175736520616e206163636f756e742060008201527f746f206265636f6d6520696e736f6c76656e7400000000000000000000000000602082015250565b60006134516033836128d1565b915061345c826133f5565b604082019050919050565b6000602082019050818103600083015261348081613444565b9050919050565b600060408201905061349c6000830185612546565b6134a96020830184612546565b9392505050565b600060a0820190506134c56000830188612546565b6134d26020830187612546565b6134df6040830186612457565b6134ec6060830185612457565b6134f96080830184612457565b9695505050505050565b6000806040838503121561351a5761351961215e565b5b600061352885828601612d13565b925050602061353985828601612d13565b9150509250929050565b600060c0820190506135586000830189612bec565b6135656020830188612bec565b6135726040830187612457565b61357f6060830186612457565b61358c6080830185612457565b61359960a0830184612457565b979650505050505050565b7f4e6f7420656e6f75676820746f6b656e4120746f2070726f7669646500000000600082015250565b60006135da601c836128d1565b91506135e5826135a4565b602082019050919050565b60006020820190508181036000830152613609816135cd565b9050919050565b7f4e6f7420656e6f75676820746f6b656e4220746f2070726f7669646500000000600082015250565b6000613646601c836128d1565b915061365182613610565b602082019050919050565b6000602082019050818103600083015261367581613639565b9050919050565b600060c0820190506136916000830189612546565b61369e6020830188612546565b6136ab6040830187612457565b6136b86060830186612457565b6136c56080830185612457565b6136d260a0830184612457565b979650505050505050565b600080600080608085870312156136f7576136f661215e565b5b600061370587828801613163565b945050602061371687828801612d13565b935050604061372787828801612d13565b925050606061373887828801612d13565b91505092959194509250565b600061374f8261236c565b915061375a8361236c565b925082820190508082111561377257613771612e64565b5b92915050565b600082825260208201905092915050565b6000613794826131a5565b61379e8185613778565b93506137ae8185602086016128e2565b6137b78161216d565b840191505092915050565b600060208201905081810360008301526137dc8184613789565b905092915050565b60006040820190506137f96000830185612546565b6138066020830184612457565b9392505050565b61381681613346565b811461382157600080fd5b50565b6000815190506138338161380d565b92915050565b60006020828403121561384f5761384e61215e565b5b600061385d84828501613824565b91505092915050565b7f5472616e7366657248656c7065723a3a736166655472616e736665723a20747260008201527f616e73666572206661696c656400000000000000000000000000000000000000602082015250565b60006138c2602d836128d1565b91506138cd82613866565b604082019050919050565b600060208201905081810360008301526138f1816138b5565b9050919050565b7f53796d626f6c2063616e6e6f7420626520656d70747900000000000000000000600082015250565b600061392e6016836128d1565b9150613939826138f8565b602082019050919050565b6000602082019050818103600083015261395d81613921565b9050919050565b7f496e76616c696420416464726573735a65726f00000000000000000000000000600082015250565b600061399a6013836128d1565b91506139a582613964565b602082019050919050565b600060208201905081810360008301526139c98161398d565b9050919050565b600081905092915050565b60006139e6826128c6565b6139f081856139d0565b9350613a008185602086016128e2565b80840191505092915050565b7f5f00000000000000000000000000000000000000000000000000000000000000815250565b7f5f4c500000000000000000000000000000000000000000000000000000000000815250565b6000613a6482866139db565b9150613a6f82613a0c565b600182019150613a7f82856139db565b9150613a8a82613a0c565b600182019150613a9a82846139db565b9150613aa582613a32565b600382019150819050949350505050565b6000613ac18261236c565b91507fffffffffffffffffffffffffffffffffffffffffffffffffffffffffffffffff8203613af357613af2612e64565b5b600182019050919050565b6000613b098261236c565b9150613b148361236c565b9250828202613b228161236c565b91508282048414831517613b3957613b38612e64565b5b5092915050565b7f4e487b7100000000000000000000000000000000000000000000000000000000600052603160045260246000fdfea26469706673582212208ca539d5460fe1798caa53cfb18031bf9dd2205fec5d18508fad1859b2dcd0ca64736f6c63430008110033",
  "devdoc": {
    "kind": "dev",
    "methods": {
      "swapPangolin(bytes32,bytes32,uint256,uint256)": {
        "details": "This function uses the redstone-evm-connector",
        "params": {
          "_boughtAsset": "asset to be bought",
          "_exactSold": "exact amount of asset to be sold",
          "_minimumBought": "minimum amount of asset to be bought*",
          "_soldAsset": "asset to be sold"
        }
      }
    },
    "version": 1
  },
  "userdoc": {
    "kind": "user",
    "methods": {
      "getExchangeIntermediaryContract()": {
        "notice": "Returns address of UniswapV2-like exchange*"
      },
      "swapPangolin(bytes32,bytes32,uint256,uint256)": {
        "notice": "Swaps one asset to another"
      }
    },
    "version": 1
  },
  "storageLayout": {
    "storage": [
      {
        "astId": 9094,
        "contract": "contracts/facets/avalanche/PangolinDEXFacet.sol:PangolinDEXFacet",
        "label": "_status",
        "offset": 0,
        "slot": "0",
        "type": "t_uint256"
      }
    ],
    "types": {
      "t_uint256": {
        "encoding": "inplace",
        "label": "uint256",
        "numberOfBytes": "32"
      }
    }
  }
}