{
  "address": "0xe29E0fC62dbACF84f6D14DfEA0C11FA44eed796E",
  "abi": [
    {
      "inputs": [],
      "name": "CalldataMustHaveValidPayload",
      "type": "error"
    },
    {
      "inputs": [],
      "name": "CalldataOverOrUnderFlow",
      "type": "error"
    },
    {
      "inputs": [],
      "name": "EachSignerMustProvideTheSameValue",
      "type": "error"
    },
    {
      "inputs": [],
      "name": "EmptyCalldataPointersArr",
      "type": "error"
    },
    {
      "inputs": [],
      "name": "IncorrectUnsignedMetadataSize",
      "type": "error"
    },
    {
      "inputs": [
        {
          "internalType": "uint256",
          "name": "receviedSignersCount",
          "type": "uint256"
        },
        {
          "internalType": "uint256",
          "name": "requiredSignersCount",
          "type": "uint256"
        }
      ],
      "name": "InsufficientNumberOfUniqueSigners",
      "type": "error"
    },
    {
      "inputs": [],
      "name": "InvalidCalldataPointer",
      "type": "error"
    },
    {
      "inputs": [
        {
          "internalType": "bytes",
          "name": "result",
          "type": "bytes"
        }
      ],
      "name": "ProxyCalldataFailedWithCustomError",
      "type": "error"
    },
    {
      "inputs": [
        {
          "internalType": "string",
          "name": "message",
          "type": "string"
        }
      ],
      "name": "ProxyCalldataFailedWithStringMessage",
      "type": "error"
    },
    {
      "inputs": [],
      "name": "ProxyCalldataFailedWithoutErrMsg",
      "type": "error"
    },
    {
      "inputs": [
        {
          "internalType": "address",
          "name": "receivedSigner",
          "type": "address"
        }
      ],
      "name": "SignerNotAuthorised",
      "type": "error"
    },
    {
      "anonymous": false,
      "inputs": [
        {
          "indexed": true,
          "internalType": "address",
          "name": "user",
          "type": "address"
        },
        {
          "indexed": true,
          "internalType": "address",
          "name": "lpToken",
          "type": "address"
        },
        {
          "indexed": false,
          "internalType": "bytes32",
          "name": "firstAsset",
          "type": "bytes32"
        },
        {
          "indexed": false,
          "internalType": "bytes32",
          "name": "secondAsset",
          "type": "bytes32"
        },
        {
          "indexed": false,
          "internalType": "uint256",
          "name": "liquidity",
          "type": "uint256"
        },
        {
          "indexed": false,
          "internalType": "uint256",
          "name": "firstAmount",
          "type": "uint256"
        },
        {
          "indexed": false,
          "internalType": "uint256",
          "name": "secondAmount",
          "type": "uint256"
        },
        {
          "indexed": false,
          "internalType": "uint256",
          "name": "timestamp",
          "type": "uint256"
        }
      ],
      "name": "AddLiquidity",
      "type": "event"
    },
    {
      "anonymous": false,
      "inputs": [
        {
          "indexed": true,
          "internalType": "address",
          "name": "user",
          "type": "address"
        },
        {
          "indexed": true,
          "internalType": "address",
          "name": "lpToken",
          "type": "address"
        },
        {
          "indexed": false,
          "internalType": "bytes32",
          "name": "firstAsset",
          "type": "bytes32"
        },
        {
          "indexed": false,
          "internalType": "bytes32",
          "name": "secondAsset",
          "type": "bytes32"
        },
        {
          "indexed": false,
          "internalType": "uint256",
          "name": "liquidity",
          "type": "uint256"
        },
        {
          "indexed": false,
          "internalType": "uint256",
          "name": "firstAmount",
          "type": "uint256"
        },
        {
          "indexed": false,
          "internalType": "uint256",
          "name": "secondAmount",
          "type": "uint256"
        },
        {
          "indexed": false,
          "internalType": "uint256",
          "name": "timestamp",
          "type": "uint256"
        }
      ],
      "name": "RemoveLiquidity",
      "type": "event"
    },
    {
      "anonymous": false,
      "inputs": [
        {
          "indexed": true,
          "internalType": "address",
          "name": "user",
          "type": "address"
        },
        {
          "indexed": true,
          "internalType": "bytes32",
          "name": "soldAsset",
          "type": "bytes32"
        },
        {
          "indexed": true,
          "internalType": "bytes32",
          "name": "boughtAsset",
          "type": "bytes32"
        },
        {
          "indexed": false,
          "internalType": "uint256",
          "name": "maximumSold",
          "type": "uint256"
        },
        {
          "indexed": false,
          "internalType": "uint256",
          "name": "minimumBought",
          "type": "uint256"
        },
        {
          "indexed": false,
          "internalType": "uint256",
          "name": "timestamp",
          "type": "uint256"
        }
      ],
      "name": "Swap",
      "type": "event"
    },
    {
      "inputs": [
        {
          "internalType": "bytes32[]",
          "name": "assetsToRepay",
          "type": "bytes32[]"
        }
      ],
      "name": "_getAllPricesForLiquidation",
      "outputs": [
        {
          "components": [
            {
              "components": [
                {
                  "internalType": "bytes32",
                  "name": "asset",
                  "type": "bytes32"
                },
                {
                  "internalType": "uint256",
                  "name": "price",
                  "type": "uint256"
                }
              ],
              "internalType": "struct SolvencyFacetProd.AssetPrice[]",
              "name": "ownedAssetsPrices",
              "type": "tuple[]"
            },
            {
              "components": [
                {
                  "internalType": "bytes32",
                  "name": "asset",
                  "type": "bytes32"
                },
                {
                  "internalType": "uint256",
                  "name": "price",
                  "type": "uint256"
                }
              ],
              "internalType": "struct SolvencyFacetProd.AssetPrice[]",
              "name": "debtAssetsPrices",
              "type": "tuple[]"
            },
            {
              "components": [
                {
                  "internalType": "bytes32",
                  "name": "asset",
                  "type": "bytes32"
                },
                {
                  "internalType": "uint256",
                  "name": "price",
                  "type": "uint256"
                }
              ],
              "internalType": "struct SolvencyFacetProd.AssetPrice[]",
              "name": "stakedPositionsPrices",
              "type": "tuple[]"
            },
            {
              "components": [
                {
                  "internalType": "bytes32",
                  "name": "asset",
                  "type": "bytes32"
                },
                {
                  "internalType": "uint256",
                  "name": "price",
                  "type": "uint256"
                }
              ],
              "internalType": "struct SolvencyFacetProd.AssetPrice[]",
              "name": "assetsToRepayPrices",
              "type": "tuple[]"
            }
          ],
          "internalType": "struct SolvencyFacetProd.CachedPrices",
          "name": "result",
          "type": "tuple"
        }
      ],
      "stateMutability": "nonpayable",
      "type": "function"
    },
    {
      "inputs": [],
      "name": "_getHealthRatio",
      "outputs": [
        {
          "internalType": "uint256",
          "name": "health",
          "type": "uint256"
        }
      ],
      "stateMutability": "nonpayable",
      "type": "function"
    },
    {
      "inputs": [
        {
          "components": [
            {
              "components": [
                {
                  "internalType": "bytes32",
                  "name": "asset",
                  "type": "bytes32"
                },
                {
                  "internalType": "uint256",
                  "name": "price",
                  "type": "uint256"
                }
              ],
              "internalType": "struct SolvencyFacetProd.AssetPrice[]",
              "name": "ownedAssetsPrices",
              "type": "tuple[]"
            },
            {
              "components": [
                {
                  "internalType": "bytes32",
                  "name": "asset",
                  "type": "bytes32"
                },
                {
                  "internalType": "uint256",
                  "name": "price",
                  "type": "uint256"
                }
              ],
              "internalType": "struct SolvencyFacetProd.AssetPrice[]",
              "name": "debtAssetsPrices",
              "type": "tuple[]"
            },
            {
              "components": [
                {
                  "internalType": "bytes32",
                  "name": "asset",
                  "type": "bytes32"
                },
                {
                  "internalType": "uint256",
                  "name": "price",
                  "type": "uint256"
                }
              ],
              "internalType": "struct SolvencyFacetProd.AssetPrice[]",
              "name": "stakedPositionsPrices",
              "type": "tuple[]"
            },
            {
              "components": [
                {
                  "internalType": "bytes32",
                  "name": "asset",
                  "type": "bytes32"
                },
                {
                  "internalType": "uint256",
                  "name": "price",
                  "type": "uint256"
                }
              ],
              "internalType": "struct SolvencyFacetProd.AssetPrice[]",
              "name": "assetsToRepayPrices",
              "type": "tuple[]"
            }
          ],
          "internalType": "struct SolvencyFacetProd.CachedPrices",
          "name": "cachedPrices",
          "type": "tuple"
        }
      ],
      "name": "_getHealthRatioWithPrices",
      "outputs": [
        {
          "internalType": "uint256",
          "name": "health",
          "type": "uint256"
        }
      ],
      "stateMutability": "nonpayable",
      "type": "function"
    },
    {
      "inputs": [
        {
          "internalType": "bytes32",
          "name": "_firstAsset",
          "type": "bytes32"
        },
        {
          "internalType": "bytes32",
          "name": "_secondAsset",
          "type": "bytes32"
        },
        {
          "internalType": "uint256",
          "name": "amountADesired",
          "type": "uint256"
        },
        {
          "internalType": "uint256",
          "name": "amountBDesired",
          "type": "uint256"
        },
        {
          "internalType": "uint256",
          "name": "amountAMin",
          "type": "uint256"
        },
        {
          "internalType": "uint256",
          "name": "amountBMin",
          "type": "uint256"
        }
      ],
      "name": "addLiquidityPangolin",
      "outputs": [],
      "stateMutability": "nonpayable",
      "type": "function"
    },
    {
      "inputs": [
        {
          "internalType": "bytes32",
          "name": "_bytes32",
          "type": "bytes32"
        }
      ],
      "name": "bytes32ToString",
      "outputs": [
        {
          "internalType": "string",
          "name": "",
          "type": "string"
        }
      ],
      "stateMutability": "pure",
      "type": "function"
    },
    {
      "inputs": [],
      "name": "getExchangeIntermediaryContract",
      "outputs": [
        {
          "internalType": "address",
          "name": "",
          "type": "address"
        }
      ],
      "stateMutability": "nonpayable",
      "type": "function"
    },
    {
      "inputs": [
        {
          "internalType": "bytes32",
          "name": "symbol",
          "type": "bytes32"
        }
      ],
      "name": "getPrice",
      "outputs": [
        {
          "internalType": "uint256",
          "name": "price",
          "type": "uint256"
        }
      ],
      "stateMutability": "nonpayable",
      "type": "function"
    },
    {
      "inputs": [
        {
          "internalType": "bytes32[]",
          "name": "symbols",
          "type": "bytes32[]"
        }
      ],
      "name": "getPrices",
      "outputs": [
        {
          "internalType": "uint256[]",
          "name": "prices",
          "type": "uint256[]"
        }
      ],
      "stateMutability": "nonpayable",
      "type": "function"
    },
    {
      "inputs": [
        {
          "internalType": "bytes32",
          "name": "_firstAsset",
          "type": "bytes32"
        },
        {
          "internalType": "bytes32",
          "name": "_secondAsset",
          "type": "bytes32"
        },
        {
          "internalType": "uint256",
          "name": "liquidity",
          "type": "uint256"
        },
        {
          "internalType": "uint256",
          "name": "amountAMin",
          "type": "uint256"
        },
        {
          "internalType": "uint256",
          "name": "amountBMin",
          "type": "uint256"
        }
      ],
      "name": "removeLiquidityPangolin",
      "outputs": [],
      "stateMutability": "nonpayable",
      "type": "function"
    },
    {
      "inputs": [
        {
          "internalType": "string",
          "name": "source",
          "type": "string"
        }
      ],
      "name": "stringToBytes32",
      "outputs": [
        {
          "internalType": "bytes32",
          "name": "result",
          "type": "bytes32"
        }
      ],
      "stateMutability": "pure",
      "type": "function"
    },
    {
      "inputs": [
        {
          "internalType": "bytes32",
          "name": "_soldAsset",
          "type": "bytes32"
        },
        {
          "internalType": "bytes32",
          "name": "_boughtAsset",
          "type": "bytes32"
        },
        {
          "internalType": "uint256",
          "name": "_exactSold",
          "type": "uint256"
        },
        {
          "internalType": "uint256",
          "name": "_minimumBought",
          "type": "uint256"
        }
      ],
      "name": "swapPangolin",
      "outputs": [
        {
          "internalType": "uint256[]",
          "name": "",
          "type": "uint256[]"
        }
      ],
      "stateMutability": "nonpayable",
      "type": "function"
    }
  ],
  "transactionHash": "0x02deb688ec29efc8aa703dd8fa1829495c4ed0f768beb68b52215a1988484a1b",
  "args": [],
  "numDeployments": 3,
  "solcInputHash": "4189fcbc2823c20856a851b757c21c8f",
  "bytecode": "0x608060405234801561001057600080fd5b506001600081905550613cb7806100286000396000f3fe608060405234801561001057600080fd5b50600436106100a95760003560e01c80636e3bfe9f116100715780636e3bfe9f1461017a5780637fe65943146101aa578063838986f8146101c65780639201de55146101e2578063b2d40e7314610212578063cfb5192814610242576100a9565b806326ee4836146100ae57806331d98b3f146100de57806339e2719e1461010e5780634e5439001461012c578063640adf781461015c575b600080fd5b6100c860048036038101906100c39190612377565b610272565b6040516100d59190612488565b60405180910390f35b6100f860048036038101906100f391906124aa565b61031c565b60405161010591906124e6565b60405180910390f35b6101166103c6565b60405161012391906124e6565b60405180910390f35b6101466004803603810190610141919061252d565b610463565b6040516101539190612488565b60405180910390f35b6101646104d6565b60405161017191906125d5565b60405180910390f35b610194600480360381019061018f91906127f5565b6104f2565b6040516101a191906124e6565b60405180910390f35b6101c460048036038101906101bf919061283e565b61059c565b005b6101e060048036038101906101db91906128b9565b6105b8565b005b6101fc60048036038101906101f791906124aa565b6105d6565b60405161020991906129c5565b60405180910390f35b61022c60048036038101906102279190612377565b610771565b6040516102399190612b4c565b60405180910390f35b61025c60048036038101906102579190612c23565b610821565b6040516102699190612c7b565b60405180910390f35b60606103026102876326ee483660e01b61084a565b6326ee483660e01b846040516024016102a09190612d45565b604051602081830303815290604052907bffffffffffffffffffffffffffffffffffffffffffffffffffffffff19166020820180517bffffffffffffffffffffffffffffffffffffffffffffffffffffffff83818316178352505050506108d4565b8060200190518101906103159190612e3f565b9050919050565b60006103ac6103316331d98b3f60e01b61084a565b6331d98b3f60e01b8460405160240161034a9190612c7b565b604051602081830303815290604052907bffffffffffffffffffffffffffffffffffffffffffffffffffffffff19166020820180517bffffffffffffffffffffffffffffffffffffffffffffffffffffffff83818316178352505050506108d4565b8060200190518101906103bf9190612e88565b9050919050565b600061044b6103db637914334f60e01b61084a565b637914334f60e01b604051602401604051602081830303815290604052907bffffffffffffffffffffffffffffffffffffffffffffffffffffffff19166020820180517bffffffffffffffffffffffffffffffffffffffffffffffffffffffff83818316178352505050506108d4565b80602001905181019061045e9190612e88565b905090565b6060600061046f610965565b9050428160060154036104b7576040517f08c379a00000000000000000000000000000000000000000000000000000000081526004016104ae90612f27565b60405180910390fd5b6104bf610992565b6104cb86868686610a2d565b915050949350505050565b600073db5d94b8ed491b058f3e74d029775a14477cf7fa905090565b600061058261050763360398a360e01b61084a565b63360398a360e01b846040516024016105209190612b4c565b604051602081830303815290604052907bffffffffffffffffffffffffffffffffffffffffffffffffffffffff19166020820180517bffffffffffffffffffffffffffffffffffffffffffffffffffffffff83818316178352505050506108d4565b8060200190518101906105959190612e88565b9050919050565b6105a4610992565b6105b18585858585610e65565b5050505050565b6105c0610992565b6105ce868686868686611158565b505050505050565b606060005b60208160ff1610801561062d5750600060f81b838260ff166020811061060457610603612f47565b5b1a60f81b7effffffffffffffffffffffffffffffffffffffffffffffffffffffffffffff191614155b1561064557808061063d90612fb2565b9150506105db565b60008160ff1667ffffffffffffffff811115610664576106636121fe565b5b6040519080825280601f01601f1916602001820160405280156106965781602001600182028036833780820191505090505b509050600091505b60208260ff161080156106f05750600060f81b848360ff16602081106106c7576106c6612f47565b5b1a60f81b7effffffffffffffffffffffffffffffffffffffffffffffffffffffffffffff191614155b1561076757838260ff166020811061070b5761070a612f47565b5b1a60f81b818360ff168151811061072557610724612f47565b5b60200101907effffffffffffffffffffffffffffffffffffffffffffffffffffffffffffff1916908160001a905350818061075f90612fb2565b92505061069e565b8092505050919050565b6107796121ac565b61080761078c63a3aa8d1e60e01b61084a565b63a3aa8d1e60e01b846040516024016107a59190612d45565b604051602081830303815290604052907bffffffffffffffffffffffffffffffffffffffffffffffffffffffff19166020820180517bffffffffffffffffffffffffffffffffffffffffffffffffffffffff83818316178352505050506108d4565b80602001905181019061081a91906131bf565b9050919050565b600080829050600081510361083c576000801b915050610845565b60208301519150505b919050565b6000610854611686565b73ffffffffffffffffffffffffffffffffffffffff16630d741577836040518263ffffffff1660e01b815260040161088c9190613243565b602060405180830381865afa1580156108a9573d6000803e3d6000fd5b505050506040513d601f19601f820116820180604052508101906108cd919061328a565b9050919050565b606060006108e1836116a2565b90506000808573ffffffffffffffffffffffffffffffffffffffff168360405161090b91906132fe565b600060405180830381855af49150503d8060008114610946576040519150601f19603f3d011682016040523d82523d6000602084013e61094b565b606091505b509150915061095a828261175c565b935050505092915050565b6000807fc8fcad8db84d3cc18b4c41d551ea0ee66dd599cde068d998e57d5e09332c131c90508091505090565b61099a61185c565b60010160009054906101000a900473ffffffffffffffffffffffffffffffffffffffff1673ffffffffffffffffffffffffffffffffffffffff163373ffffffffffffffffffffffffffffffffffffffff1614610a2b576040517f08c379a0000000000000000000000000000000000000000000000000000000008152600401610a2290613387565b60405180910390fd5b565b60606000610a3c866001611889565b90506000610a4b866000611889565b9050848273ffffffffffffffffffffffffffffffffffffffff166370a08231306040518263ffffffff1660e01b8152600401610a8791906125d5565b602060405180830381865afa158015610aa4573d6000803e3d6000fd5b505050506040513d601f19601f82011682018060405250810190610ac89190612e88565b1015610b09576040517f08c379a0000000000000000000000000000000000000000000000000000000008152600401610b00906133f3565b60405180910390fd5b610b3b610b146104d6565b868473ffffffffffffffffffffffffffffffffffffffff166119169092919063ffffffff16565b6000610b456104d6565b905060008173ffffffffffffffffffffffffffffffffffffffff1663fe02915685858a8a6040518563ffffffff1660e01b8152600401610b889493929190613413565b6000604051808303816000875af1158015610ba7573d6000803e3d6000fd5b505050506040513d6000823e3d601f19601f82011682018060405250810190610bd09190612e3f565b90506000610bdc611a4c565b905060008173ffffffffffffffffffffffffffffffffffffffff166325eb876f8b60006040518363ffffffff1660e01b8152600401610c1c929190613473565b602060405180830381865afa158015610c39573d6000803e3d6000fd5b505050506040513d601f19601f82011682018060405250810190610c5d919061328a565b905060008573ffffffffffffffffffffffffffffffffffffffff166370a08231306040518263ffffffff1660e01b8152600401610c9a91906125d5565b602060405180830381865afa158015610cb7573d6000803e3d6000fd5b505050506040513d601f19601f82011682018060405250810190610cdb9190612e88565b1115610cec57610ceb8a82611a68565b5b60008673ffffffffffffffffffffffffffffffffffffffff166370a08231306040518263ffffffff1660e01b8152600401610d2791906125d5565b602060405180830381865afa158015610d44573d6000803e3d6000fd5b505050506040513d601f19601f82011682018060405250810190610d689190612e88565b03610d7757610d768b611b3a565b5b898b3373ffffffffffffffffffffffffffffffffffffffff167f4cb7ea834525f7e7be14143ffc68be9c6735559e936d23502fff335d39a2e8e286600081518110610dc557610dc4612f47565b5b60200260200101518760018951610ddc919061349c565b81518110610ded57610dec612f47565b5b602002602001015142604051610e05939291906134d0565b60405180910390a4829650505050505050610e1e611b58565b610e5d576040517f08c379a0000000000000000000000000000000000000000000000000000000008152600401610e5490613579565b60405180910390fd5b949350505050565b6000610e72866001611889565b90506000610e81866001611889565b90506000610e8d6104d6565b905060008173ffffffffffffffffffffffffffffffffffffffff1663e6a4390585856040518363ffffffff1660e01b8152600401610ecc929190613599565b6020604051808303816000875af1158015610eeb573d6000803e3d6000fd5b505050506040513d601f19601f82011682018060405250810190610f0f919061328a565b9050610f43610f1c6104d6565b888373ffffffffffffffffffffffffffffffffffffffff166119169092919063ffffffff16565b6000808373ffffffffffffffffffffffffffffffffffffffff1663e2dc85dc87878c8c8c6040518663ffffffff1660e01b8152600401610f879594939291906135c2565b60408051808303816000875af1158015610fa5573d6000803e3d6000fd5b505050506040513d601f19601f82011682018060405250810190610fc99190613615565b9150915060008373ffffffffffffffffffffffffffffffffffffffff166370a08231306040518263ffffffff1660e01b815260040161100891906125d5565b602060405180830381865afa158015611025573d6000803e3d6000fd5b505050506040513d601f19601f820116820180604052508101906110499190612e88565b03611081576000808b8d1061105f578b8d611062565b8c8c5b9150915060006110728383611bf5565b905061107d81611b3a565b5050505b61108b8b87611a68565b6110958a86611a68565b8273ffffffffffffffffffffffffffffffffffffffff163373ffffffffffffffffffffffffffffffffffffffff167f60d6d04a69b63b07bc4612079adf2399fcc2b9da68fe609fe66ffbe16fca76f48d8d8d8787426040516110fc96959493929190613655565b60405180910390a3505050505050611112611b58565b611151576040517f08c379a000000000000000000000000000000000000000000000000000000000815260040161114890613579565b60405180910390fd5b5050505050565b6000611165876000611889565b90506000611174876000611889565b9050858273ffffffffffffffffffffffffffffffffffffffff166370a08231306040518263ffffffff1660e01b81526004016111b091906125d5565b602060405180830381865afa1580156111cd573d6000803e3d6000fd5b505050506040513d601f19601f820116820180604052508101906111f19190612e88565b1015611232576040517f08c379a000000000000000000000000000000000000000000000000000000000815260040161122990613702565b60405180910390fd5b848173ffffffffffffffffffffffffffffffffffffffff166370a08231306040518263ffffffff1660e01b815260040161126c91906125d5565b602060405180830381865afa158015611289573d6000803e3d6000fd5b505050506040513d601f19601f820116820180604052508101906112ad9190612e88565b10156112ee576040517f08c379a00000000000000000000000000000000000000000000000000000000081526004016112e59061376e565b60405180910390fd5b6113206112f96104d6565b878473ffffffffffffffffffffffffffffffffffffffff166119169092919063ffffffff16565b61135261132b6104d6565b868373ffffffffffffffffffffffffffffffffffffffff166119169092919063ffffffff16565b600061135c6104d6565b90506000808273ffffffffffffffffffffffffffffffffffffffff16633351733f86868c8c8c8c6040518763ffffffff1660e01b81526004016113a49695949392919061378e565b6080604051808303816000875af11580156113c3573d6000803e3d6000fd5b505050506040513d601f19601f820116820180604052508101906113e791906137ef565b809450819b50829c508395505050505060008273ffffffffffffffffffffffffffffffffffffffff166370a08231306040518263ffffffff1660e01b815260040161143291906125d5565b602060405180830381865afa15801561144f573d6000803e3d6000fd5b505050506040513d601f19601f820116820180604052508101906114739190612e88565b11156114ad576000808b8d1061148a578b8d61148d565b8c8c5b91509150600061149d8383611bf5565b90506114a98186611a68565b5050505b60008573ffffffffffffffffffffffffffffffffffffffff166370a08231306040518263ffffffff1660e01b81526004016114e891906125d5565b602060405180830381865afa158015611505573d6000803e3d6000fd5b505050506040513d601f19601f820116820180604052508101906115299190612e88565b03611538576115378b611b3a565b5b60008473ffffffffffffffffffffffffffffffffffffffff166370a08231306040518263ffffffff1660e01b815260040161157391906125d5565b602060405180830381865afa158015611590573d6000803e3d6000fd5b505050506040513d601f19601f820116820180604052508101906115b49190612e88565b036115c3576115c28a611b3a565b5b8173ffffffffffffffffffffffffffffffffffffffff163373ffffffffffffffffffffffffffffffffffffffff167fee6437c12e66102495172228742a18765355debe1f046d82bcd14f8dc66f11678d8d858e8e4260405161162a96959493929190613655565b60405180910390a3505050505061163f611b58565b61167e576040517f08c379a000000000000000000000000000000000000000000000000000000000815260040161167590613579565b60405180910390fd5b505050505050565b6000732916b3bf7c35bd21e63d01c93c62fb0d4994e56d905090565b606060008251905060006116b4611c4a565b9050600081836116c49190613856565b90506000369050821115611704576040517f5796f78a00000000000000000000000000000000000000000000000000000000815260040160405180910390fd5b6060604051905081815285602001848101826020015b81831015611737578251815260208301925060208101905061171a565b5050508283360385602001830137602084840182010160405280945050505050919050565b60608261185357600082510361179e576040517f567fe27a00000000000000000000000000000000000000000000000000000000815260040160405180910390fd5b600060208301517f08c379a00000000000000000000000000000000000000000000000000000000081149150508015611816576060604484019050806040517f0f7e827800000000000000000000000000000000000000000000000000000000815260040161180d91906129c5565b60405180910390fd5b826040517ffd36fde300000000000000000000000000000000000000000000000000000000815260040161184a91906138d4565b60405180910390fd5b81905092915050565b6000807f8d5bb42e0ac1496a2c326edc9c00758985246e6c2bb146d6c2f4a0d509e0960a90508091505090565b6000611893611a4c565b73ffffffffffffffffffffffffffffffffffffffff166325eb876f84846040518363ffffffff1660e01b81526004016118cd929190613473565b602060405180830381865afa1580156118ea573d6000803e3d6000fd5b505050506040513d601f19601f8201168201806040525081019061190e919061328a565b905092915050565b6000808473ffffffffffffffffffffffffffffffffffffffff1663a9059cbb85856040516024016119489291906138f6565b6040516020818303038152906040529060e01b6020820180517bffffffffffffffffffffffffffffffffffffffffffffffffffffffff838183161783525050505060405161199691906132fe565b6000604051808303816000865af19150503d80600081146119d3576040519150601f19603f3d011682016040523d82523d6000602084013e6119d8565b606091505b5091509150818015611a065750600081511480611a05575080806020019051810190611a04919061394b565b5b5b611a45576040517f08c379a0000000000000000000000000000000000000000000000000000000008152600401611a3c906139ea565b60405180910390fd5b5050505050565b600073f3978209b7cff2b90100c6f87cec77de928ed58e905090565b60008203611aab576040517f08c379a0000000000000000000000000000000000000000000000000000000008152600401611aa290613a56565b60405180910390fd5b600073ffffffffffffffffffffffffffffffffffffffff168173ffffffffffffffffffffffffffffffffffffffff1603611b1a576040517f08c379a0000000000000000000000000000000000000000000000000000000008152600401611b1190613ac2565b60405180910390fd5b6000611b2461185c565b9050611b34816004018484611cba565b50505050565b6000611b4461185c565b9050611b538160040183611cec565b505050565b6000611bdd611b6d635ce2395060e01b61084a565b635ce2395060e01b604051602401604051602081830303815290604052907bffffffffffffffffffffffffffffffffffffffffffffffffffffffff19166020820180517bffffffffffffffffffffffffffffffffffffffffffffffffffffffff83818316178352505050506108d4565b806020019051810190611bf0919061394b565b905090565b6000611c42611c0a611c05611d03565b6105d6565b611c13856105d6565b611c1c856105d6565b604051602001611c2e93929190613b6a565b604051602081830303815290604052610821565b905092915050565b600080611c55611d2b565b90506000611c6282611e3c565b61ffff169050600282611c759190613856565b915060005b81811015611cb1576000611c8d84611e98565b90508084611c9b9190613856565b9350508080611ca990613bc8565b915050611c7a565b50819250505090565b6000611ce384600001848473ffffffffffffffffffffffffffffffffffffffff1660001b611ed7565b90509392505050565b6000611cfb8360000183611f12565b905092915050565b60007f504e470000000000000000000000000000000000000000000000000000000000905090565b60008060203603356602ed57011e000081166602ed57011e00001491505080611d80576040517fe7764c9e00000000000000000000000000000000000000000000000000000000815260040160405180910390fd5b60008036905060291115611dc0576040517f5796f78a00000000000000000000000000000000000000000000000000000000815260040160405180910390fd5b602936033590506000600960038362ffffff16611ddd9190613856565b611de79190613856565b90506000369050600282611dfb9190613856565b1115611e33576040517fc30a7bd700000000000000000000000000000000000000000000000000000000815260040160405180910390fd5b80935050505090565b600080602083611e4c9190613856565b90506000369050811115611e8c576040517f5796f78a00000000000000000000000000000000000000000000000000000000815260040160405180910390fd5b80360335915050919050565b6000806000611ea684611f4b565b91509150604e816020611eb99190613856565b83611ec49190613c10565b611ece9190613856565b92505050919050565b60008184600201600085815260200190815260200160002081905550611f098385600001611fc190919063ffffffff16565b90509392505050565b600082600201600083815260200190815260200160002060009055611f438284600001611fd890919063ffffffff16565b905092915050565b6000806000806000604186611f609190613856565b90506000611f87602083611f749190613856565b6000369050611fef90919063ffffffff16565b905080359350611fa1600382611fef90919063ffffffff16565b9050803592508362ffffff1695508263ffffffff16945050505050915091565b6000611fd08360000183612005565b905092915050565b6000611fe78360000183612075565b905092915050565b60008183611ffd919061349c565b905092915050565b60006120118383612189565b61206a57826000018290806001815401808255809150506001900390600052602060002001600090919091909150558260000180549050836001016000848152602001908152602001600020819055506001905061206f565b600090505b92915050565b6000808360010160008481526020019081526020016000205490506000811461217d5760006001826120a7919061349c565b90506000600186600001805490506120bf919061349c565b905081811461212e5760008660000182815481106120e0576120df612f47565b5b906000526020600020015490508087600001848154811061210457612103612f47565b5b90600052602060002001819055508387600101600083815260200190815260200160002081905550505b8560000180548061214257612141613c52565b5b600190038181906000526020600020016000905590558560010160008681526020019081526020016000206000905560019350505050612183565b60009150505b92915050565b600080836001016000848152602001908152602001600020541415905092915050565b6040518060800160405280606081526020016060815260200160608152602001606081525090565b6000604051905090565b600080fd5b600080fd5b600080fd5b6000601f19601f8301169050919050565b7f4e487b7100000000000000000000000000000000000000000000000000000000600052604160045260246000fd5b612236826121ed565b810181811067ffffffffffffffff82111715612255576122546121fe565b5b80604052505050565b60006122686121d4565b9050612274828261222d565b919050565b600067ffffffffffffffff821115612294576122936121fe565b5b602082029050602081019050919050565b600080fd5b6000819050919050565b6122bd816122aa565b81146122c857600080fd5b50565b6000813590506122da816122b4565b92915050565b60006122f36122ee84612279565b61225e565b90508083825260208201905060208402830185811115612316576123156122a5565b5b835b8181101561233f578061232b88826122cb565b845260208401935050602081019050612318565b5050509392505050565b600082601f83011261235e5761235d6121e8565b5b813561236e8482602086016122e0565b91505092915050565b60006020828403121561238d5761238c6121de565b5b600082013567ffffffffffffffff8111156123ab576123aa6121e3565b5b6123b784828501612349565b91505092915050565b600081519050919050565b600082825260208201905092915050565b6000819050602082019050919050565b6000819050919050565b6123ff816123ec565b82525050565b600061241183836123f6565b60208301905092915050565b6000602082019050919050565b6000612435826123c0565b61243f81856123cb565b935061244a836123dc565b8060005b8381101561247b5781516124628882612405565b975061246d8361241d565b92505060018101905061244e565b5085935050505092915050565b600060208201905081810360008301526124a2818461242a565b905092915050565b6000602082840312156124c0576124bf6121de565b5b60006124ce848285016122cb565b91505092915050565b6124e0816123ec565b82525050565b60006020820190506124fb60008301846124d7565b92915050565b61250a816123ec565b811461251557600080fd5b50565b60008135905061252781612501565b92915050565b60008060008060808587031215612547576125466121de565b5b6000612555878288016122cb565b9450506020612566878288016122cb565b935050604061257787828801612518565b925050606061258887828801612518565b91505092959194509250565b600073ffffffffffffffffffffffffffffffffffffffff82169050919050565b60006125bf82612594565b9050919050565b6125cf816125b4565b82525050565b60006020820190506125ea60008301846125c6565b92915050565b600080fd5b600080fd5b600067ffffffffffffffff821115612615576126146121fe565b5b602082029050602081019050919050565b60006040828403121561263c5761263b6125f0565b5b612646604061225e565b90506000612656848285016122cb565b600083015250602061266a84828501612518565b60208301525092915050565b6000612689612684846125fa565b61225e565b905080838252602082019050604084028301858111156126ac576126ab6122a5565b5b835b818110156126d557806126c18882612626565b8452602084019350506040810190506126ae565b5050509392505050565b600082601f8301126126f4576126f36121e8565b5b8135612704848260208601612676565b91505092915050565b600060808284031215612723576127226125f0565b5b61272d608061225e565b9050600082013567ffffffffffffffff81111561274d5761274c6125f5565b5b612759848285016126df565b600083015250602082013567ffffffffffffffff81111561277d5761277c6125f5565b5b612789848285016126df565b602083015250604082013567ffffffffffffffff8111156127ad576127ac6125f5565b5b6127b9848285016126df565b604083015250606082013567ffffffffffffffff8111156127dd576127dc6125f5565b5b6127e9848285016126df565b60608301525092915050565b60006020828403121561280b5761280a6121de565b5b600082013567ffffffffffffffff811115612829576128286121e3565b5b6128358482850161270d565b91505092915050565b600080600080600060a0868803121561285a576128596121de565b5b6000612868888289016122cb565b9550506020612879888289016122cb565b945050604061288a88828901612518565b935050606061289b88828901612518565b92505060806128ac88828901612518565b9150509295509295909350565b60008060008060008060c087890312156128d6576128d56121de565b5b60006128e489828a016122cb565b96505060206128f589828a016122cb565b955050604061290689828a01612518565b945050606061291789828a01612518565b935050608061292889828a01612518565b92505060a061293989828a01612518565b9150509295509295509295565b600081519050919050565b600082825260208201905092915050565b60005b83811015612980578082015181840152602081019050612965565b60008484015250505050565b600061299782612946565b6129a18185612951565b93506129b1818560208601612962565b6129ba816121ed565b840191505092915050565b600060208201905081810360008301526129df818461298c565b905092915050565b600081519050919050565b600082825260208201905092915050565b6000819050602082019050919050565b612a1c816122aa565b82525050565b604082016000820151612a386000850182612a13565b506020820151612a4b60208501826123f6565b50505050565b6000612a5d8383612a22565b60408301905092915050565b6000602082019050919050565b6000612a81826129e7565b612a8b81856129f2565b9350612a9683612a03565b8060005b83811015612ac7578151612aae8882612a51565b9750612ab983612a69565b925050600181019050612a9a565b5085935050505092915050565b60006080830160008301518482036000860152612af18282612a76565b91505060208301518482036020860152612b0b8282612a76565b91505060408301518482036040860152612b258282612a76565b91505060608301518482036060860152612b3f8282612a76565b9150508091505092915050565b60006020820190508181036000830152612b668184612ad4565b905092915050565b600080fd5b600067ffffffffffffffff821115612b8e57612b8d6121fe565b5b612b97826121ed565b9050602081019050919050565b82818337600083830152505050565b6000612bc6612bc184612b73565b61225e565b905082815260208101848484011115612be257612be1612b6e565b5b612bed848285612ba4565b509392505050565b600082601f830112612c0a57612c096121e8565b5b8135612c1a848260208601612bb3565b91505092915050565b600060208284031215612c3957612c386121de565b5b600082013567ffffffffffffffff811115612c5757612c566121e3565b5b612c6384828501612bf5565b91505092915050565b612c75816122aa565b82525050565b6000602082019050612c906000830184612c6c565b92915050565b600081519050919050565b600082825260208201905092915050565b6000819050602082019050919050565b6000612cce8383612a13565b60208301905092915050565b6000602082019050919050565b6000612cf282612c96565b612cfc8185612ca1565b9350612d0783612cb2565b8060005b83811015612d38578151612d1f8882612cc2565b9750612d2a83612cda565b925050600181019050612d0b565b5085935050505092915050565b60006020820190508181036000830152612d5f8184612ce7565b905092915050565b600067ffffffffffffffff821115612d8257612d816121fe565b5b602082029050602081019050919050565b600081519050612da281612501565b92915050565b6000612dbb612db684612d67565b61225e565b90508083825260208201905060208402830185811115612dde57612ddd6122a5565b5b835b81811015612e075780612df38882612d93565b845260208401935050602081019050612de0565b5050509392505050565b600082601f830112612e2657612e256121e8565b5b8151612e36848260208601612da8565b91505092915050565b600060208284031215612e5557612e546121de565b5b600082015167ffffffffffffffff811115612e7357612e726121e3565b5b612e7f84828501612e11565b91505092915050565b600060208284031215612e9e57612e9d6121de565b5b6000612eac84828501612d93565b91505092915050565b7f426f72726f77696e67206d7573742068617070656e20696e2061207374616e6460008201527f616c6f6e65207472616e73616374696f6e000000000000000000000000000000602082015250565b6000612f11603183612951565b9150612f1c82612eb5565b604082019050919050565b60006020820190508181036000830152612f4081612f04565b9050919050565b7f4e487b7100000000000000000000000000000000000000000000000000000000600052603260045260246000fd5b7f4e487b7100000000000000000000000000000000000000000000000000000000600052601160045260246000fd5b600060ff82169050919050565b6000612fbd82612fa5565b915060ff8203612fd057612fcf612f76565b5b600182019050919050565b600081519050612fea816122b4565b92915050565b600060408284031215613006576130056125f0565b5b613010604061225e565b9050600061302084828501612fdb565b600083015250602061303484828501612d93565b60208301525092915050565b600061305361304e846125fa565b61225e565b90508083825260208201905060408402830185811115613076576130756122a5565b5b835b8181101561309f578061308b8882612ff0565b845260208401935050604081019050613078565b5050509392505050565b600082601f8301126130be576130bd6121e8565b5b81516130ce848260208601613040565b91505092915050565b6000608082840312156130ed576130ec6125f0565b5b6130f7608061225e565b9050600082015167ffffffffffffffff811115613117576131166125f5565b5b613123848285016130a9565b600083015250602082015167ffffffffffffffff811115613147576131466125f5565b5b613153848285016130a9565b602083015250604082015167ffffffffffffffff811115613177576131766125f5565b5b613183848285016130a9565b604083015250606082015167ffffffffffffffff8111156131a7576131a66125f5565b5b6131b3848285016130a9565b60608301525092915050565b6000602082840312156131d5576131d46121de565b5b600082015167ffffffffffffffff8111156131f3576131f26121e3565b5b6131ff848285016130d7565b91505092915050565b60007fffffffff0000000000000000000000000000000000000000000000000000000082169050919050565b61323d81613208565b82525050565b60006020820190506132586000830184613234565b92915050565b613267816125b4565b811461327257600080fd5b50565b6000815190506132848161325e565b92915050565b6000602082840312156132a05761329f6121de565b5b60006132ae84828501613275565b91505092915050565b600081519050919050565b600081905092915050565b60006132d8826132b7565b6132e281856132c2565b93506132f2818560208601612962565b80840191505092915050565b600061330a82846132cd565b915081905092915050565b7f4469616d6f6e6453746f726167654c69623a204d75737420626520636f6e747260008201527f616374206f776e65720000000000000000000000000000000000000000000000602082015250565b6000613371602983612951565b915061337c82613315565b604082019050919050565b600060208201905081810360008301526133a081613364565b9050919050565b7f4e6f7420656e6f75676820746f6b656e20746f2073656c6c0000000000000000600082015250565b60006133dd601883612951565b91506133e8826133a7565b602082019050919050565b6000602082019050818103600083015261340c816133d0565b9050919050565b600060808201905061342860008301876125c6565b61343560208301866125c6565b61344260408301856124d7565b61344f60608301846124d7565b95945050505050565b60008115159050919050565b61346d81613458565b82525050565b60006040820190506134886000830185612c6c565b6134956020830184613464565b9392505050565b60006134a7826123ec565b91506134b2836123ec565b92508282039050818111156134ca576134c9612f76565b5b92915050565b60006060820190506134e560008301866124d7565b6134f260208301856124d7565b6134ff60408301846124d7565b949350505050565b7f54686520616374696f6e206d617920636175736520616e206163636f756e742060008201527f746f206265636f6d6520696e736f6c76656e7400000000000000000000000000602082015250565b6000613563603383612951565b915061356e82613507565b604082019050919050565b6000602082019050818103600083015261359281613556565b9050919050565b60006040820190506135ae60008301856125c6565b6135bb60208301846125c6565b9392505050565b600060a0820190506135d760008301886125c6565b6135e460208301876125c6565b6135f160408301866124d7565b6135fe60608301856124d7565b61360b60808301846124d7565b9695505050505050565b6000806040838503121561362c5761362b6121de565b5b600061363a85828601612d93565b925050602061364b85828601612d93565b9150509250929050565b600060c08201905061366a6000830189612c6c565b6136776020830188612c6c565b61368460408301876124d7565b61369160608301866124d7565b61369e60808301856124d7565b6136ab60a08301846124d7565b979650505050505050565b7f4e6f7420656e6f75676820746f6b656e4120746f2070726f7669646500000000600082015250565b60006136ec601c83612951565b91506136f7826136b6565b602082019050919050565b6000602082019050818103600083015261371b816136df565b9050919050565b7f4e6f7420656e6f75676820746f6b656e4220746f2070726f7669646500000000600082015250565b6000613758601c83612951565b915061376382613722565b602082019050919050565b600060208201905081810360008301526137878161374b565b9050919050565b600060c0820190506137a360008301896125c6565b6137b060208301886125c6565b6137bd60408301876124d7565b6137ca60608301866124d7565b6137d760808301856124d7565b6137e460a08301846124d7565b979650505050505050565b60008060008060808587031215613809576138086121de565b5b600061381787828801613275565b945050602061382887828801612d93565b935050604061383987828801612d93565b925050606061384a87828801612d93565b91505092959194509250565b6000613861826123ec565b915061386c836123ec565b925082820190508082111561388457613883612f76565b5b92915050565b600082825260208201905092915050565b60006138a6826132b7565b6138b0818561388a565b93506138c0818560208601612962565b6138c9816121ed565b840191505092915050565b600060208201905081810360008301526138ee818461389b565b905092915050565b600060408201905061390b60008301856125c6565b61391860208301846124d7565b9392505050565b61392881613458565b811461393357600080fd5b50565b6000815190506139458161391f565b92915050565b600060208284031215613961576139606121de565b5b600061396f84828501613936565b91505092915050565b7f5472616e7366657248656c7065723a3a736166655472616e736665723a20747260008201527f616e73666572206661696c656400000000000000000000000000000000000000602082015250565b60006139d4602d83612951565b91506139df82613978565b604082019050919050565b60006020820190508181036000830152613a03816139c7565b9050919050565b7f53796d626f6c2063616e6e6f7420626520656d70747900000000000000000000600082015250565b6000613a40601683612951565b9150613a4b82613a0a565b602082019050919050565b60006020820190508181036000830152613a6f81613a33565b9050919050565b7f496e76616c696420416464726573735a65726f00000000000000000000000000600082015250565b6000613aac601383612951565b9150613ab782613a76565b602082019050919050565b60006020820190508181036000830152613adb81613a9f565b9050919050565b600081905092915050565b6000613af882612946565b613b028185613ae2565b9350613b12818560208601612962565b80840191505092915050565b7f5f00000000000000000000000000000000000000000000000000000000000000815250565b7f5f4c500000000000000000000000000000000000000000000000000000000000815250565b6000613b768286613aed565b9150613b8182613b1e565b600182019150613b918285613aed565b9150613b9c82613b1e565b600182019150613bac8284613aed565b9150613bb782613b44565b600382019150819050949350505050565b6000613bd3826123ec565b91507fffffffffffffffffffffffffffffffffffffffffffffffffffffffffffffffff8203613c0557613c04612f76565b5b600182019050919050565b6000613c1b826123ec565b9150613c26836123ec565b9250828202613c34816123ec565b91508282048414831517613c4b57613c4a612f76565b5b5092915050565b7f4e487b7100000000000000000000000000000000000000000000000000000000600052603160045260246000fdfea26469706673582212207e4f052e1fa7997c295385460a79c9434ea92a31726f01bc6f543cd3c8469ef264736f6c63430008110033",
  "devdoc": {
    "kind": "dev",
    "methods": {
      "swapPangolin(bytes32,bytes32,uint256,uint256)": {
        "details": "This function uses the redstone-evm-connector",
        "params": {
          "_boughtAsset": "asset to be bought",
          "_exactSold": "exact amount of asset to be sold",
          "_minimumBought": "minimum amount of asset to be bought*",
          "_soldAsset": "asset to be sold"
        }
      }
    },
    "version": 1
  },
  "userdoc": {
    "kind": "user",
    "methods": {
      "getExchangeIntermediaryContract()": {
        "notice": "Returns address of UniswapV2-like exchange*"
      },
      "swapPangolin(bytes32,bytes32,uint256,uint256)": {
        "notice": "Swaps one asset to another"
      }
    },
    "version": 1
  },
  "storageLayout": {
    "storage": [
      {
        "astId": 9633,
        "contract": "contracts/facets/avalanche/PangolinDEXFacet.sol:PangolinDEXFacet",
        "label": "_status",
        "offset": 0,
        "slot": "0",
        "type": "t_uint256"
      }
    ],
    "types": {
      "t_uint256": {
        "encoding": "inplace",
        "label": "uint256",
        "numberOfBytes": "32"
      }
    }
  }
}