{
  "address": "0x13652F4a37235293a90a1dE5B878c9435EAf4c58",
  "abi": [
    {
      "inputs": [],
      "stateMutability": "nonpayable",
      "type": "constructor"
    },
    {
      "anonymous": false,
      "inputs": [
        {
          "indexed": true,
          "internalType": "address",
          "name": "owner",
          "type": "address"
        },
        {
          "indexed": true,
          "internalType": "address",
          "name": "approved",
          "type": "address"
        },
        {
          "indexed": true,
          "internalType": "uint256",
          "name": "tokenId",
          "type": "uint256"
        }
      ],
      "name": "Approval",
      "type": "event"
    },
    {
      "anonymous": false,
      "inputs": [
        {
          "indexed": true,
          "internalType": "address",
          "name": "owner",
          "type": "address"
        },
        {
          "indexed": true,
          "internalType": "address",
          "name": "operator",
          "type": "address"
        },
        {
          "indexed": false,
          "internalType": "bool",
          "name": "approved",
          "type": "bool"
        }
      ],
      "name": "ApprovalForAll",
      "type": "event"
    },
    {
      "anonymous": false,
      "inputs": [
        {
          "indexed": true,
          "internalType": "address",
          "name": "previousOwner",
          "type": "address"
        },
        {
          "indexed": true,
          "internalType": "address",
          "name": "newOwner",
          "type": "address"
        }
      ],
      "name": "OwnershipTransferred",
      "type": "event"
    },
    {
      "anonymous": false,
      "inputs": [
        {
          "indexed": false,
          "internalType": "contract ISPrimeTraderJoe",
          "name": "prime",
          "type": "address"
        }
      ],
      "name": "SPrimeUpdated",
      "type": "event"
    },
    {
      "anonymous": false,
      "inputs": [
        {
          "indexed": true,
          "internalType": "address",
          "name": "from",
          "type": "address"
        },
        {
          "indexed": true,
          "internalType": "address",
          "name": "to",
          "type": "address"
        },
        {
          "indexed": true,
          "internalType": "uint256",
          "name": "tokenId",
          "type": "uint256"
        }
      ],
      "name": "Transfer",
      "type": "event"
    },
    {
      "inputs": [
        {
          "internalType": "address",
          "name": "to",
          "type": "address"
        },
        {
          "internalType": "uint256",
          "name": "tokenId",
          "type": "uint256"
        }
      ],
      "name": "approve",
      "outputs": [],
      "stateMutability": "nonpayable",
      "type": "function"
    },
    {
      "inputs": [
        {
          "internalType": "address",
          "name": "owner",
          "type": "address"
        }
      ],
      "name": "balanceOf",
      "outputs": [
        {
          "internalType": "uint256",
          "name": "",
          "type": "uint256"
        }
      ],
      "stateMutability": "view",
      "type": "function"
    },
    {
      "inputs": [
        {
          "internalType": "uint256",
          "name": "tokenId",
          "type": "uint256"
        }
      ],
      "name": "burn",
      "outputs": [],
      "stateMutability": "nonpayable",
      "type": "function"
    },
    {
      "inputs": [
        {
          "internalType": "address",
          "name": "from",
          "type": "address"
        },
        {
          "internalType": "address",
          "name": "to",
          "type": "address"
        },
        {
          "internalType": "uint256",
          "name": "tokenId",
          "type": "uint256"
        }
      ],
      "name": "forceTransfer",
      "outputs": [],
      "stateMutability": "nonpayable",
      "type": "function"
    },
    {
      "inputs": [
        {
          "internalType": "uint256",
          "name": "tokenId",
          "type": "uint256"
        }
      ],
      "name": "getApproved",
      "outputs": [
        {
          "internalType": "address",
          "name": "",
          "type": "address"
        }
      ],
      "stateMutability": "view",
      "type": "function"
    },
    {
      "inputs": [
        {
          "internalType": "uint256",
          "name": "centerId",
          "type": "uint256"
        }
      ],
      "name": "getDepositConfig",
      "outputs": [
        {
          "components": [
            {
              "internalType": "uint256[]",
              "name": "depositIds",
              "type": "uint256[]"
            },
            {
              "internalType": "bytes32[]",
              "name": "liquidityConfigs",
              "type": "bytes32[]"
            }
          ],
          "internalType": "struct IPositionManager.DepositConfig",
          "name": "",
          "type": "tuple"
        }
      ],
      "stateMutability": "view",
      "type": "function"
    },
    {
      "inputs": [
        {
          "internalType": "uint256",
          "name": "tokenId",
          "type": "uint256"
        }
      ],
      "name": "getDepositConfigFromTokenId",
      "outputs": [
        {
          "components": [
            {
              "internalType": "uint256[]",
              "name": "depositIds",
              "type": "uint256[]"
            },
            {
              "internalType": "bytes32[]",
              "name": "liquidityConfigs",
              "type": "bytes32[]"
            }
          ],
          "internalType": "struct IPositionManager.DepositConfig",
          "name": "",
          "type": "tuple"
        }
      ],
      "stateMutability": "view",
      "type": "function"
    },
    {
      "inputs": [
        {
          "internalType": "address",
          "name": "owner",
          "type": "address"
        },
        {
          "internalType": "address",
          "name": "operator",
          "type": "address"
        }
      ],
      "name": "isApprovedForAll",
      "outputs": [
        {
          "internalType": "bool",
          "name": "",
          "type": "bool"
        }
      ],
      "stateMutability": "view",
      "type": "function"
    },
    {
      "inputs": [
        {
          "components": [
            {
              "internalType": "address",
              "name": "recipient",
              "type": "address"
            },
            {
              "internalType": "uint256",
              "name": "totalShare",
              "type": "uint256"
            },
            {
              "internalType": "uint256",
              "name": "centerId",
              "type": "uint256"
            },
            {
              "internalType": "uint256[]",
              "name": "liquidityMinted",
              "type": "uint256[]"
            },
            {
              "internalType": "bytes32[]",
              "name": "liquidityConfigs",
              "type": "bytes32[]"
            },
            {
              "internalType": "uint256[]",
              "name": "depositIds",
              "type": "uint256[]"
            }
          ],
          "internalType": "struct IPositionManager.MintParams",
          "name": "params",
          "type": "tuple"
        }
      ],
      "name": "mint",
      "outputs": [
        {
          "internalType": "uint256",
          "name": "tokenId",
          "type": "uint256"
        }
      ],
      "stateMutability": "nonpayable",
      "type": "function"
    },
    {
      "inputs": [],
      "name": "name",
      "outputs": [
        {
          "internalType": "string",
          "name": "",
          "type": "string"
        }
      ],
      "stateMutability": "view",
      "type": "function"
    },
    {
      "inputs": [],
      "name": "owner",
      "outputs": [
        {
          "internalType": "address",
          "name": "",
          "type": "address"
        }
      ],
      "stateMutability": "view",
      "type": "function"
    },
    {
      "inputs": [
        {
          "internalType": "uint256",
          "name": "tokenId",
          "type": "uint256"
        }
      ],
      "name": "ownerOf",
      "outputs": [
        {
          "internalType": "address",
          "name": "",
          "type": "address"
        }
      ],
      "stateMutability": "view",
      "type": "function"
    },
    {
      "inputs": [
        {
          "internalType": "uint256",
          "name": "tokenId",
          "type": "uint256"
        }
      ],
      "name": "positions",
      "outputs": [
        {
          "internalType": "contract IERC20",
          "name": "token0",
          "type": "address"
        },
        {
          "internalType": "contract IERC20",
          "name": "token1",
          "type": "address"
        },
        {
          "internalType": "contract ILBPair",
          "name": "pairAddr",
          "type": "address"
        },
        {
          "internalType": "uint256",
          "name": "totalShare",
          "type": "uint256"
        },
        {
          "internalType": "uint256",
          "name": "centerId",
          "type": "uint256"
        },
        {
          "internalType": "uint256[]",
          "name": "liquidityMinted",
          "type": "uint256[]"
        }
      ],
      "stateMutability": "view",
      "type": "function"
    },
    {
      "inputs": [],
      "name": "renounceOwnership",
      "outputs": [],
      "stateMutability": "nonpayable",
      "type": "function"
    },
    {
      "inputs": [],
      "name": "sPrime",
      "outputs": [
        {
          "internalType": "contract ISPrimeTraderJoe",
          "name": "",
          "type": "address"
        }
      ],
      "stateMutability": "view",
      "type": "function"
    },
    {
      "inputs": [
        {
          "internalType": "address",
          "name": "from",
          "type": "address"
        },
        {
          "internalType": "address",
          "name": "to",
          "type": "address"
        },
        {
          "internalType": "uint256",
          "name": "tokenId",
          "type": "uint256"
        }
      ],
      "name": "safeTransferFrom",
      "outputs": [],
      "stateMutability": "nonpayable",
      "type": "function"
    },
    {
      "inputs": [
        {
          "internalType": "address",
          "name": "from",
          "type": "address"
        },
        {
          "internalType": "address",
          "name": "to",
          "type": "address"
        },
        {
          "internalType": "uint256",
          "name": "tokenId",
          "type": "uint256"
        },
        {
          "internalType": "bytes",
          "name": "data",
          "type": "bytes"
        }
      ],
      "name": "safeTransferFrom",
      "outputs": [],
      "stateMutability": "nonpayable",
      "type": "function"
    },
    {
      "inputs": [
        {
          "internalType": "address",
          "name": "operator",
          "type": "address"
        },
        {
          "internalType": "bool",
          "name": "approved",
          "type": "bool"
        }
      ],
      "name": "setApprovalForAll",
      "outputs": [],
      "stateMutability": "nonpayable",
      "type": "function"
    },
    {
      "inputs": [
        {
          "internalType": "contract ISPrimeTraderJoe",
          "name": "sPrime_",
          "type": "address"
        }
      ],
      "name": "setSPrime",
      "outputs": [],
      "stateMutability": "nonpayable",
      "type": "function"
    },
    {
      "inputs": [
        {
          "internalType": "bytes4",
          "name": "interfaceId",
          "type": "bytes4"
        }
      ],
      "name": "supportsInterface",
      "outputs": [
        {
          "internalType": "bool",
          "name": "",
          "type": "bool"
        }
      ],
      "stateMutability": "view",
      "type": "function"
    },
    {
      "inputs": [],
      "name": "symbol",
      "outputs": [
        {
          "internalType": "string",
          "name": "",
          "type": "string"
        }
      ],
      "stateMutability": "view",
      "type": "function"
    },
    {
      "inputs": [
        {
          "internalType": "uint256",
          "name": "index",
          "type": "uint256"
        }
      ],
      "name": "tokenByIndex",
      "outputs": [
        {
          "internalType": "uint256",
          "name": "",
          "type": "uint256"
        }
      ],
      "stateMutability": "view",
      "type": "function"
    },
    {
      "inputs": [
        {
          "internalType": "address",
          "name": "owner",
          "type": "address"
        },
        {
          "internalType": "uint256",
          "name": "index",
          "type": "uint256"
        }
      ],
      "name": "tokenOfOwnerByIndex",
      "outputs": [
        {
          "internalType": "uint256",
          "name": "",
          "type": "uint256"
        }
      ],
      "stateMutability": "view",
      "type": "function"
    },
    {
      "inputs": [
        {
          "internalType": "uint256",
          "name": "tokenId",
          "type": "uint256"
        }
      ],
      "name": "tokenURI",
      "outputs": [
        {
          "internalType": "string",
          "name": "",
          "type": "string"
        }
      ],
      "stateMutability": "view",
      "type": "function"
    },
    {
      "inputs": [],
      "name": "totalSupply",
      "outputs": [
        {
          "internalType": "uint256",
          "name": "",
          "type": "uint256"
        }
      ],
      "stateMutability": "view",
      "type": "function"
    },
    {
      "inputs": [
        {
          "internalType": "address",
          "name": "from",
          "type": "address"
        },
        {
          "internalType": "address",
          "name": "to",
          "type": "address"
        },
        {
          "internalType": "uint256",
          "name": "tokenId",
          "type": "uint256"
        }
      ],
      "name": "transferFrom",
      "outputs": [],
      "stateMutability": "nonpayable",
      "type": "function"
    },
    {
      "inputs": [
        {
          "internalType": "address",
          "name": "newOwner",
          "type": "address"
        }
      ],
      "name": "transferOwnership",
      "outputs": [],
      "stateMutability": "nonpayable",
      "type": "function"
    },
    {
      "inputs": [
        {
          "components": [
            {
              "internalType": "uint256",
              "name": "tokenId",
              "type": "uint256"
            },
            {
              "internalType": "uint256",
              "name": "share",
              "type": "uint256"
            },
            {
              "internalType": "uint256[]",
              "name": "liquidityAmounts",
              "type": "uint256[]"
            },
            {
              "internalType": "bool",
              "name": "isAdd",
              "type": "bool"
            }
          ],
          "internalType": "struct IPositionManager.UpdateParams",
          "name": "params",
          "type": "tuple"
        }
      ],
      "name": "update",
      "outputs": [],
      "stateMutability": "nonpayable",
      "type": "function"
    }
  ],
  "transactionHash": "0x7370c2835a7871ca1de7dbb8ee208152f8daf900f2915ce4e5ef12e4eea9b2df",
  "args": [],
  "numDeployments": 1,
  "solcInputHash": "0614b63bea7d297236d078d08a60ab04",
  "bytecode": "0x6080604052600d80546001600160b01b03191660011790553480156200002457600080fd5b506040518060400160405280601381526020017f535072696d6520506f736974696f6e204e4654000000000000000000000000008152506040518060400160405280600a815260200169535052494d452d504f5360b01b81525081600090816200008f9190620001bc565b5060016200009e8282620001bc565b505050620000bb620000b5620000c160201b60201c565b620000c5565b62000288565b3390565b600a80546001600160a01b038381166001600160a01b0319831681179093556040519116919082907f8be0079c531659141344cd1fd0a4f28419497f9722a3daafe3b4186f6b6457e090600090a35050565b634e487b7160e01b600052604160045260246000fd5b600181811c908216806200014257607f821691505b6020821081036200016357634e487b7160e01b600052602260045260246000fd5b50919050565b601f821115620001b757600081815260208120601f850160051c81016020861015620001925750805b601f850160051c820191505b81811015620001b3578281556001016200019e565b5050505b505050565b81516001600160401b03811115620001d857620001d862000117565b620001f081620001e984546200012d565b8462000169565b602080601f8311600181146200022857600084156200020f5750858301515b600019600386901b1c1916600185901b178555620001b3565b600085815260208120601f198616915b82811015620002595788860151825594840194600190910190840162000238565b5085821015620002785787850151600019600388901b60f8161c191681555b5050505050600190811b01905550565b61239680620002986000396000f3fe608060405234801561001057600080fd5b50600436106101545760003560e01c806301ffc9a71461015957806306fdde0314610181578063081812fc14610196578063095ea7b3146101b657806312431a63146101cb578063124f70a9146101eb57806318160ddd1461020c57806323b872dd146102145780632f745c591461022757806333bebb771461023a57806342842e0e1461024d57806342966c68146102605780634f6ccce7146102735780635d75169e146102865780636352211e1461029957806370a08231146102ac578063715018a6146102bf5780638da5cb5b146102c757806395d89b41146102cf57806397e71374146102d757806399fbab88146102ea578063a22cb4651461030f578063b88d4fde14610322578063b91e526f14610335578063c87b56dd14610348578063e985e9c51461035b578063f2fde38b1461036e578063face292d14610381575b600080fd5b61016c610167366004611bc8565b610394565b60405190151581526020015b60405180910390f35b6101896103bf565b6040516101789190611c32565b6101a96101a4366004611c45565b610451565b6040516101789190611c5e565b6101c96101c4366004611c87565b610478565b005b6101de6101d9366004611c45565b610592565b6040516101789190611cb3565b6101fe6101f9366004611d48565b610670565b604051908152602001610178565b6008546101fe565b6101c9610222366004611d82565b6107f1565b6101fe610235366004611c87565b610822565b6101c9610248366004611d82565b610817565b6101c961025b366004611d82565b6108b8565b6101c961026e366004611c45565b6108d3565b6101fe610281366004611c45565b610902565b600e546101a9906001600160a01b031681565b6101a96102a7366004611c45565b610995565b6101fe6102ba366004611dc3565b6109c9565b6101c9610a4f565b6101a9610a63565b610189610a72565b6101c96102e5366004611de0565b610a81565b6102fd6102f8366004611c45565b610c6b565b60405161017896959493929190611e1a565b6101c961031d366004611ea8565b610e89565b6101c9610330366004611ef3565b610e94565b6101de610343366004611c45565b610ecc565b610189610356366004611c45565b610f9a565b61016c610369366004611fd2565b610fc2565b6101c961037c366004611dc3565b610ff0565b6101c961038f366004611dc3565b611069565b60006001600160e01b0319821663780e9d6360e01b14806103b957506103b9826110c7565b92915050565b6060600080546103ce9061200b565b80601f01602080910402602001604051908101604052809291908181526020018280546103fa9061200b565b80156104475780601f1061041c57610100808354040283529160200191610447565b820191906000526020600020905b81548152906001019060200180831161042a57829003601f168201915b5050505050905090565b600061045c82611117565b506000908152600460205260409020546001600160a01b031690565b600061048382610995565b9050806001600160a01b0316836001600160a01b0316036104f55760405162461bcd60e51b815260206004820152602160248201527f4552433732313a20617070726f76616c20746f2063757272656e74206f776e656044820152603960f91b60648201526084015b60405180910390fd5b336001600160a01b038216148061051157506105118133610fc2565b6105835760405162461bcd60e51b815260206004820152603d60248201527f4552433732313a20617070726f76652063616c6c6572206973206e6f7420746f60448201527f6b656e206f776e6572206f7220617070726f76656420666f7220616c6c00000060648201526084016104ec565b61058d838361113c565b505050565b61059a611ae3565b6000828152600b6020908152604080832060010154808452600c83529281902081518154606094810282018501845292810183815290939192849284919084018282801561060757602002820191906000526020600020905b8154815260200190600101908083116105f3575b505050505081526020016001820180548060200260200160405190810160405280929190818152602001828054801561065f57602002820191906000526020600020905b81548152602001906001019080831161064b575b505050505081525050915050919050565b600e546000906001600160a01b0316331461069d5760405162461bcd60e51b81526004016104ec9061203f565b6106fb6106ad6020840184611dc3565b600d80546001600160b01b03169060006106c683612079565b91906101000a8154816001600160b01b0302191690836001600160b01b031602179055506001600160b01b03169250826111aa565b6040518060600160405280836020013581526020018360400135815260200183806060019061072a91906120a7565b808060200260200160405190810160405280939291908181526020018383602002808284376000920182905250939094525050838152600b6020908152604091829020845181558482015160018201559184015180519293506107969260028501929190910190611afd565b5050506040808301356000908152600c60205290812080549091036107eb576107c260a08401846120a7565b6107cd918391611b48565b506107db60808401846120a7565b6107e9916001840191611b48565b505b50919050565b6107fb33826112b3565b6108175760405162461bcd60e51b81526004016104ec906120f7565b61058d838383611312565b600061082d836109c9565b821061088f5760405162461bcd60e51b815260206004820152602b60248201527f455243373231456e756d657261626c653a206f776e657220696e646578206f7560448201526a74206f6620626f756e647360a81b60648201526084016104ec565b506001600160a01b03919091166000908152600660209081526040808320938352929052205490565b61058d83838360405180602001604052806000815250610e94565b6108dc81611471565b6000818152600b60205260408120818155600181018290559061058d6002830182611b83565b600061090d60085490565b82106109705760405162461bcd60e51b815260206004820152602c60248201527f455243373231456e756d657261626c653a20676c6f62616c20696e646578206f60448201526b7574206f6620626f756e647360a01b60648201526084016104ec565b6008828154811061098357610983612144565b90600052602060002001549050919050565b6000806109a183611502565b90506001600160a01b0381166103b95760405162461bcd60e51b81526004016104ec9061215a565b60006001600160a01b038216610a335760405162461bcd60e51b815260206004820152602960248201527f4552433732313a2061646472657373207a65726f206973206e6f7420612076616044820152683634b21037bbb732b960b91b60648201526084016104ec565b506001600160a01b031660009081526003602052604090205490565b610a5761151d565b610a61600061157c565b565b600a546001600160a01b031690565b6060600180546103ce9061200b565b600e546001600160a01b03163314610aab5760405162461bcd60e51b81526004016104ec9061203f565b80356000908152600b60205260409081902090610aca908301836120a7565b6002830154149050610b105760405162461bcd60e51b815260206004820152600f60248201526e098cadccee8d04088d2e6dac2e8c6d608b1b60448201526064016104ec565b610b20608083016060840161218c565b15610bc6578160200135816000016000828254610b3d91906121a7565b90915550600090505b610b5360408401846120a7565b905081101561058d57610b6960408401846120a7565b82818110610b7957610b79612144565b90506020020135826002018281548110610b9557610b95612144565b906000526020600020016000828254610bae91906121a7565b90915550819050610bbe816121ba565b915050610b46565b8160200135816000016000828254610bde91906121d3565b90915550600090505b610bf460408401846120a7565b905081101561058d57610c0a60408401846120a7565b82818110610c1a57610c1a612144565b90506020020135826002018281548110610c3657610c36612144565b906000526020600020016000828254610c4f91906121d3565b90915550819050610c5f816121ba565b915050610be7565b5050565b600080600080600060606000600b6000898152602001908152602001600020604051806060016040529081600082015481526020016001820154815260200160028201805480602002602001604051908101604052809291908181526020018280548015610cf857602002820191906000526020600020905b815481526020019060010190808311610ce4575b5050505050815250509050600e60009054906101000a90046001600160a01b03166001600160a01b03166305e8746d6040518163ffffffff1660e01b8152600401602060405180830381865afa158015610d56573d6000803e3d6000fd5b505050506040513d601f19601f82011682018060405250810190610d7a91906121e6565b600e60009054906101000a90046001600160a01b03166001600160a01b031663da10610c6040518163ffffffff1660e01b8152600401602060405180830381865afa158015610dcd573d6000803e3d6000fd5b505050506040513d601f19601f82011682018060405250810190610df191906121e6565b600e60009054906101000a90046001600160a01b03166001600160a01b0316635f9c01b16040518163ffffffff1660e01b8152600401602060405180830381865afa158015610e44573d6000803e3d6000fd5b505050506040513d601f19601f82011682018060405250810190610e6891906121e6565b83516020850151604090950151939c929b5090995097509195509350915050565b610c673383836115ce565b610e9e33836112b3565b610eba5760405162461bcd60e51b81526004016104ec906120f7565b610ec684848484611698565b50505050565b610ed4611ae3565b6000828152600c60209081526040918290208251815460609381028201840185529381018481529093919284928491840182828015610f3257602002820191906000526020600020905b815481526020019060010190808311610f1e575b5050505050815260200160018201805480602002602001604051908101604052809291908181526020018280548015610f8a57602002820191906000526020600020905b815481526020019060010190808311610f76575b5050505050815250509050919050565b6060610fa5826116cb565b610fae57600080fd5b505060408051602081019091526000815290565b6001600160a01b03918216600090815260056020908152604080832093909416825291909152205460ff1690565b610ff861151d565b6001600160a01b03811661105d5760405162461bcd60e51b815260206004820152602660248201527f4f776e61626c653a206e6577206f776e657220697320746865207a65726f206160448201526564647265737360d01b60648201526084016104ec565b6110668161157c565b50565b61107161151d565b600e80546001600160a01b0319166001600160a01b0383161790556040517fa133d1c633054e7d0713f5eb0a45cadc3356b12604e59bc776620fb2f58eb983906110bc908390611c5e565b60405180910390a150565b60006001600160e01b031982166380ac58cd60e01b14806110f857506001600160e01b03198216635b5e139f60e01b145b806103b957506301ffc9a760e01b6001600160e01b03198316146103b9565b611120816116cb565b6110665760405162461bcd60e51b81526004016104ec9061215a565b600081815260046020526040902080546001600160a01b0319166001600160a01b038416908117909155819061117182610995565b6001600160a01b03167f8c5be1e5ebec7d5bd14f71427d1e84f3dd0314c0f7b2291e5b200ac8c7c3b92560405160405180910390a45050565b6001600160a01b0382166112005760405162461bcd60e51b815260206004820181905260248201527f4552433732313a206d696e7420746f20746865207a65726f206164647265737360448201526064016104ec565b611209816116cb565b156112265760405162461bcd60e51b81526004016104ec90612203565b6112346000838360016116e8565b61123d816116cb565b1561125a5760405162461bcd60e51b81526004016104ec90612203565b6001600160a01b038216600081815260036020908152604080832080546001019055848352600290915280822080546001600160a01b031916841790555183929190600080516020612341833981519152908290a45050565b6000806112bf83610995565b9050806001600160a01b0316846001600160a01b031614806112e657506112e68185610fc2565b8061130a5750836001600160a01b03166112ff84610451565b6001600160a01b0316145b949350505050565b826001600160a01b031661132582610995565b6001600160a01b03161461134b5760405162461bcd60e51b81526004016104ec90612239565b6001600160a01b0382166113ad5760405162461bcd60e51b8152602060048201526024808201527f4552433732313a207472616e7366657220746f20746865207a65726f206164646044820152637265737360e01b60648201526084016104ec565b6113ba83838360016116e8565b826001600160a01b03166113cd82610995565b6001600160a01b0316146113f35760405162461bcd60e51b81526004016104ec90612239565b600081815260046020908152604080832080546001600160a01b03199081169091556001600160a01b03878116808652600385528386208054600019019055908716808652838620805460010190558686526002909452828520805490921684179091559051849360008051602061234183398151915291a4505050565b600061147c82610995565b905061148c8160008460016116e8565b61149582610995565b600083815260046020908152604080832080546001600160a01b03199081169091556001600160a01b038516808552600384528285208054600019019055878552600290935281842080549091169055519293508492600080516020612341833981519152908390a45050565b6000908152600260205260409020546001600160a01b031690565b33611526610a63565b6001600160a01b031614610a615760405162461bcd60e51b815260206004820181905260248201527f4f776e61626c653a2063616c6c6572206973206e6f7420746865206f776e657260448201526064016104ec565b600a80546001600160a01b038381166001600160a01b0319831681179093556040519116919082907f8be0079c531659141344cd1fd0a4f28419497f9722a3daafe3b4186f6b6457e090600090a35050565b816001600160a01b0316836001600160a01b03160361162b5760405162461bcd60e51b815260206004820152601960248201527822a9219b99189d1030b8383937bb32903a379031b0b63632b960391b60448201526064016104ec565b6001600160a01b03838116600081815260056020908152604080832094871680845294825291829020805460ff191686151590811790915591519182527f17307eab39ab6107e8899845ad3d59bd9653f200f220920489ca2b5937696c31910160405180910390a3505050565b6116a3848484611312565b6116af8484848461171e565b610ec65760405162461bcd60e51b81526004016104ec9061227e565b6000806116d783611502565b6001600160a01b0316141592915050565b600e546001600160a01b031633146117125760405162461bcd60e51b81526004016104ec9061203f565b610ec68484848461181f565b60006001600160a01b0384163b1561181457604051630a85bd0160e11b81526001600160a01b0385169063150b7a02906117629033908990889088906004016122d0565b6020604051808303816000875af192505050801561179d575060408051601f3d908101601f1916820190925261179a9181019061230d565b60015b6117fa573d8080156117cb576040519150601f19603f3d011682016040523d82523d6000602084013e6117d0565b606091505b5080516000036117f25760405162461bcd60e51b81526004016104ec9061227e565b805181602001fd5b6001600160e01b031916630a85bd0160e11b14905061130a565b506001949350505050565b600181111561188e5760405162461bcd60e51b815260206004820152603560248201527f455243373231456e756d657261626c653a20636f6e7365637574697665207472604482015274185b9cd9995c9cc81b9bdd081cdd5c1c1bdc9d1959605a1b60648201526084016104ec565b816001600160a01b0385166118ea576118e581600880546000838152600960205260408120829055600182018355919091527ff3f7a9fe364faab93b216da50a3214154f22a0a2b415b23a84c8169e8b636ee30155565b61190d565b836001600160a01b0316856001600160a01b03161461190d5761190d8582611953565b6001600160a01b03841661192957611924816119f0565b61194c565b846001600160a01b0316846001600160a01b03161461194c5761194c8482611a9f565b5050505050565b60006001611960846109c9565b61196a91906121d3565b6000838152600760205260409020549091508082146119bd576001600160a01b03841660009081526006602090815260408083208584528252808320548484528184208190558352600790915290208190555b5060009182526007602090815260408084208490556001600160a01b039094168352600681528383209183525290812055565b600854600090611a02906001906121d3565b60008381526009602052604081205460088054939450909284908110611a2a57611a2a612144565b906000526020600020015490508060088381548110611a4b57611a4b612144565b6000918252602080832090910192909255828152600990915260408082208490558582528120556008805480611a8357611a8361232a565b6001900381819060005260206000200160009055905550505050565b6000611aaa836109c9565b6001600160a01b039093166000908152600660209081526040808320868452825280832085905593825260079052919091209190915550565b604051806040016040528060608152602001606081525090565b828054828255906000526020600020908101928215611b38579160200282015b82811115611b38578251825591602001919060010190611b1d565b50611b44929150611b9d565b5090565b828054828255906000526020600020908101928215611b38579160200282015b82811115611b38578235825591602001919060010190611b68565b508054600082559060005260206000209081019061106691905b5b80821115611b445760008155600101611b9e565b6001600160e01b03198116811461106657600080fd5b600060208284031215611bda57600080fd5b8135611be581611bb2565b9392505050565b6000815180845260005b81811015611c1257602081850181015186830182015201611bf6565b506000602082860101526020601f19601f83011685010191505092915050565b602081526000611be56020830184611bec565b600060208284031215611c5757600080fd5b5035919050565b6001600160a01b0391909116815260200190565b6001600160a01b038116811461106657600080fd5b60008060408385031215611c9a57600080fd5b8235611ca581611c72565b946020939093013593505050565b6020808252825160408383015280516060840181905260009291820190839060808601905b80831015611cf85783518252928401926001929092019190840190611cd8565b5086840151868203601f190160408801528051808352908501935090840191506000905b80821015611d3c5783518352928401929184019160019190910190611d1c565b50909695505050505050565b600060208284031215611d5a57600080fd5b81356001600160401b03811115611d7057600080fd5b820160c08185031215611be557600080fd5b600080600060608486031215611d9757600080fd5b8335611da281611c72565b92506020840135611db281611c72565b929592945050506040919091013590565b600060208284031215611dd557600080fd5b8135611be581611c72565b600060208284031215611df257600080fd5b81356001600160401b03811115611e0857600080fd5b820160808185031215611be557600080fd5b600060c0820160018060a01b03808a1684526020818a1681860152818916604086015287606086015286608086015260c060a0860152829150855180845260e086019250818701935060005b81811015611e8257845184529382019392820192600101611e66565b50919b9a5050505050505050505050565b80358015158114611ea357600080fd5b919050565b60008060408385031215611ebb57600080fd5b8235611ec681611c72565b9150611ed460208401611e93565b90509250929050565b634e487b7160e01b600052604160045260246000fd5b60008060008060808587031215611f0957600080fd5b8435611f1481611c72565b93506020850135611f2481611c72565b92506040850135915060608501356001600160401b0380821115611f4757600080fd5b818701915087601f830112611f5b57600080fd5b813581811115611f6d57611f6d611edd565b604051601f8201601f19908116603f01168101908382118183101715611f9557611f95611edd565b816040528281528a6020848701011115611fae57600080fd5b82602086016020830137600060208483010152809550505050505092959194509250565b60008060408385031215611fe557600080fd5b8235611ff081611c72565b9150602083013561200081611c72565b809150509250929050565b600181811c9082168061201f57607f821691505b6020821081036107eb57634e487b7160e01b600052602260045260246000fd5b6020808252600a90820152694e6f7420735072696d6560b01b604082015260600190565b634e487b7160e01b600052601160045260246000fd5b60006001600160b01b038281166002600160b01b0319810161209d5761209d612063565b6001019392505050565b6000808335601e198436030181126120be57600080fd5b8301803591506001600160401b038211156120d857600080fd5b6020019150600581901b36038213156120f057600080fd5b9250929050565b6020808252602d908201527f4552433732313a2063616c6c6572206973206e6f7420746f6b656e206f776e6560408201526c1c881bdc88185c1c1c9bdd9959609a1b606082015260800190565b634e487b7160e01b600052603260045260246000fd5b602080825260189082015277115490cdcc8c4e881a5b9d985b1a59081d1bdad95b88125160421b604082015260600190565b60006020828403121561219e57600080fd5b611be582611e93565b808201808211156103b9576103b9612063565b6000600182016121cc576121cc612063565b5060010190565b818103818111156103b9576103b9612063565b6000602082840312156121f857600080fd5b8151611be581611c72565b6020808252601c908201527b115490cdcc8c4e881d1bdad95b88185b1c9958591e481b5a5b9d195960221b604082015260600190565b60208082526025908201527f4552433732313a207472616e736665722066726f6d20696e636f72726563742060408201526437bbb732b960d91b606082015260800190565b60208082526032908201527f4552433732313a207472616e7366657220746f206e6f6e20455243373231526560408201527131b2b4bb32b91034b6b83632b6b2b73a32b960711b606082015260800190565b6001600160a01b038581168252841660208201526040810183905260806060820181905260009061230390830184611bec565b9695505050505050565b60006020828403121561231f57600080fd5b8151611be581611bb2565b634e487b7160e01b600052603160045260246000fdfeddf252ad1be2c89b69c2b068fc378daa952ba7f163c4a11628f55a4df523b3efa2646970667358221220814f771ded9c2dcc12d1f6d1a1eaf70248233ea097878c1997538855e474fd8064736f6c63430008110033",
  "devdoc": {
    "kind": "dev",
    "methods": {
      "approve(address,uint256)": {
        "details": "See {IERC721-approve}."
      },
      "balanceOf(address)": {
        "details": "See {IERC721-balanceOf}."
      },
      "getApproved(uint256)": {
        "details": "See {IERC721-getApproved}."
      },
      "isApprovedForAll(address,address)": {
        "details": "See {IERC721-isApprovedForAll}."
      },
      "name()": {
        "details": "See {IERC721Metadata-name}."
      },
      "owner()": {
        "details": "Returns the address of the current owner."
      },
      "ownerOf(uint256)": {
        "details": "See {IERC721-ownerOf}."
      },
      "renounceOwnership()": {
        "details": "Leaves the contract without owner. It will not be possible to call `onlyOwner` functions. Can only be called by the current owner. NOTE: Renouncing ownership will leave the contract without an owner, thereby disabling any functionality that is only available to the owner."
      },
      "safeTransferFrom(address,address,uint256)": {
        "details": "See {IERC721-safeTransferFrom}."
      },
      "safeTransferFrom(address,address,uint256,bytes)": {
        "details": "See {IERC721-safeTransferFrom}."
      },
      "setApprovalForAll(address,bool)": {
        "details": "See {IERC721-setApprovalForAll}."
      },
      "supportsInterface(bytes4)": {
        "details": "See {IERC165-supportsInterface}."
      },
      "symbol()": {
        "details": "See {IERC721Metadata-symbol}."
      },
      "tokenByIndex(uint256)": {
        "details": "See {IERC721Enumerable-tokenByIndex}."
      },
      "tokenOfOwnerByIndex(address,uint256)": {
        "details": "See {IERC721Enumerable-tokenOfOwnerByIndex}."
      },
      "tokenURI(uint256)": {
        "details": "See {IERC721Metadata-tokenURI}."
      },
      "totalSupply()": {
        "details": "See {IERC721Enumerable-totalSupply}."
      },
      "transferFrom(address,address,uint256)": {
        "details": "See {IERC721-transferFrom}."
      },
      "transferOwnership(address)": {
        "details": "Transfers ownership of the contract to a new account (`newOwner`). Can only be called by the current owner."
      }
    },
    "title": "NFT positions",
    "version": 1
  },
  "userdoc": {
    "kind": "user",
    "methods": {},
    "version": 1
  },
  "storageLayout": {
    "storage": [
      {
        "astId": 216,
        "contract": "contracts/token/NonfungibleNFT/PositionManager.sol:PositionManager",
        "label": "_name",
        "offset": 0,
        "slot": "0",
        "type": "t_string_storage"
      },
      {
        "astId": 218,
        "contract": "contracts/token/NonfungibleNFT/PositionManager.sol:PositionManager",
        "label": "_symbol",
        "offset": 0,
        "slot": "1",
        "type": "t_string_storage"
      },
      {
        "astId": 222,
        "contract": "contracts/token/NonfungibleNFT/PositionManager.sol:PositionManager",
        "label": "_owners",
        "offset": 0,
        "slot": "2",
        "type": "t_mapping(t_uint256,t_address)"
      },
      {
        "astId": 226,
        "contract": "contracts/token/NonfungibleNFT/PositionManager.sol:PositionManager",
        "label": "_balances",
        "offset": 0,
        "slot": "3",
        "type": "t_mapping(t_address,t_uint256)"
      },
      {
        "astId": 230,
        "contract": "contracts/token/NonfungibleNFT/PositionManager.sol:PositionManager",
        "label": "_tokenApprovals",
        "offset": 0,
        "slot": "4",
        "type": "t_mapping(t_uint256,t_address)"
      },
      {
        "astId": 236,
        "contract": "contracts/token/NonfungibleNFT/PositionManager.sol:PositionManager",
        "label": "_operatorApprovals",
        "offset": 0,
        "slot": "5",
        "type": "t_mapping(t_address,t_mapping(t_address,t_bool))"
      },
      {
        "astId": 1266,
        "contract": "contracts/token/NonfungibleNFT/PositionManager.sol:PositionManager",
        "label": "_ownedTokens",
        "offset": 0,
        "slot": "6",
        "type": "t_mapping(t_address,t_mapping(t_uint256,t_uint256))"
      },
      {
        "astId": 1270,
        "contract": "contracts/token/NonfungibleNFT/PositionManager.sol:PositionManager",
        "label": "_ownedTokensIndex",
        "offset": 0,
        "slot": "7",
        "type": "t_mapping(t_uint256,t_uint256)"
      },
      {
        "astId": 1273,
        "contract": "contracts/token/NonfungibleNFT/PositionManager.sol:PositionManager",
        "label": "_allTokens",
        "offset": 0,
        "slot": "8",
        "type": "t_array(t_uint256)dyn_storage"
      },
      {
        "astId": 1277,
        "contract": "contracts/token/NonfungibleNFT/PositionManager.sol:PositionManager",
        "label": "_allTokensIndex",
        "offset": 0,
        "slot": "9",
        "type": "t_mapping(t_uint256,t_uint256)"
      },
      {
        "astId": 7,
        "contract": "contracts/token/NonfungibleNFT/PositionManager.sol:PositionManager",
        "label": "_owner",
        "offset": 0,
        "slot": "10",
        "type": "t_address"
      },
      {
        "astId": 4518,
        "contract": "contracts/token/NonfungibleNFT/PositionManager.sol:PositionManager",
        "label": "_positions",
        "offset": 0,
        "slot": "11",
        "type": "t_mapping(t_uint256,t_struct(Position)3265_storage)"
      },
      {
        "astId": 4523,
        "contract": "contracts/token/NonfungibleNFT/PositionManager.sol:PositionManager",
        "label": "_binInfo",
        "offset": 0,
        "slot": "12",
        "type": "t_mapping(t_uint256,t_struct(DepositConfig)3272_storage)"
      },
      {
        "astId": 4526,
        "contract": "contracts/token/NonfungibleNFT/PositionManager.sol:PositionManager",
        "label": "_nextId",
        "offset": 0,
        "slot": "13",
        "type": "t_uint176"
      },
      {
        "astId": 4529,
        "contract": "contracts/token/NonfungibleNFT/PositionManager.sol:PositionManager",
        "label": "sPrime",
        "offset": 0,
        "slot": "14",
        "type": "t_contract(ISPrimeTraderJoe)3455"
      }
    ],
    "types": {
      "t_address": {
        "encoding": "inplace",
        "label": "address",
        "numberOfBytes": "20"
      },
      "t_array(t_bytes32)dyn_storage": {
        "base": "t_bytes32",
        "encoding": "dynamic_array",
        "label": "bytes32[]",
        "numberOfBytes": "32"
      },
      "t_array(t_uint256)dyn_storage": {
        "base": "t_uint256",
        "encoding": "dynamic_array",
        "label": "uint256[]",
        "numberOfBytes": "32"
      },
      "t_bool": {
        "encoding": "inplace",
        "label": "bool",
        "numberOfBytes": "1"
      },
      "t_bytes32": {
        "encoding": "inplace",
        "label": "bytes32",
        "numberOfBytes": "32"
      },
      "t_contract(ISPrimeTraderJoe)3455": {
        "encoding": "inplace",
        "label": "contract ISPrimeTraderJoe",
        "numberOfBytes": "20"
      },
      "t_mapping(t_address,t_bool)": {
        "encoding": "mapping",
        "key": "t_address",
        "label": "mapping(address => bool)",
        "numberOfBytes": "32",
        "value": "t_bool"
      },
      "t_mapping(t_address,t_mapping(t_address,t_bool))": {
        "encoding": "mapping",
        "key": "t_address",
        "label": "mapping(address => mapping(address => bool))",
        "numberOfBytes": "32",
        "value": "t_mapping(t_address,t_bool)"
      },
      "t_mapping(t_address,t_mapping(t_uint256,t_uint256))": {
        "encoding": "mapping",
        "key": "t_address",
        "label": "mapping(address => mapping(uint256 => uint256))",
        "numberOfBytes": "32",
        "value": "t_mapping(t_uint256,t_uint256)"
      },
      "t_mapping(t_address,t_uint256)": {
        "encoding": "mapping",
        "key": "t_address",
        "label": "mapping(address => uint256)",
        "numberOfBytes": "32",
        "value": "t_uint256"
      },
      "t_mapping(t_uint256,t_address)": {
        "encoding": "mapping",
        "key": "t_uint256",
        "label": "mapping(uint256 => address)",
        "numberOfBytes": "32",
        "value": "t_address"
      },
      "t_mapping(t_uint256,t_struct(DepositConfig)3272_storage)": {
        "encoding": "mapping",
        "key": "t_uint256",
        "label": "mapping(uint256 => struct IPositionManager.DepositConfig)",
        "numberOfBytes": "32",
        "value": "t_struct(DepositConfig)3272_storage"
      },
      "t_mapping(t_uint256,t_struct(Position)3265_storage)": {
        "encoding": "mapping",
        "key": "t_uint256",
        "label": "mapping(uint256 => struct IPositionManager.Position)",
        "numberOfBytes": "32",
        "value": "t_struct(Position)3265_storage"
      },
      "t_mapping(t_uint256,t_uint256)": {
        "encoding": "mapping",
        "key": "t_uint256",
        "label": "mapping(uint256 => uint256)",
        "numberOfBytes": "32",
        "value": "t_uint256"
      },
      "t_string_storage": {
        "encoding": "bytes",
        "label": "string",
        "numberOfBytes": "32"
      },
      "t_struct(DepositConfig)3272_storage": {
        "encoding": "inplace",
        "label": "struct IPositionManager.DepositConfig",
        "members": [
          {
            "astId": 3268,
            "contract": "contracts/token/NonfungibleNFT/PositionManager.sol:PositionManager",
            "label": "depositIds",
            "offset": 0,
            "slot": "0",
            "type": "t_array(t_uint256)dyn_storage"
          },
          {
            "astId": 3271,
            "contract": "contracts/token/NonfungibleNFT/PositionManager.sol:PositionManager",
            "label": "liquidityConfigs",
            "offset": 0,
            "slot": "1",
            "type": "t_array(t_bytes32)dyn_storage"
          }
        ],
        "numberOfBytes": "64"
      },
      "t_struct(Position)3265_storage": {
        "encoding": "inplace",
        "label": "struct IPositionManager.Position",
        "members": [
          {
            "astId": 3259,
            "contract": "contracts/token/NonfungibleNFT/PositionManager.sol:PositionManager",
            "label": "totalShare",
            "offset": 0,
            "slot": "0",
            "type": "t_uint256"
          },
          {
            "astId": 3261,
            "contract": "contracts/token/NonfungibleNFT/PositionManager.sol:PositionManager",
            "label": "centerId",
            "offset": 0,
            "slot": "1",
            "type": "t_uint256"
          },
          {
            "astId": 3264,
            "contract": "contracts/token/NonfungibleNFT/PositionManager.sol:PositionManager",
            "label": "liquidityMinted",
            "offset": 0,
            "slot": "2",
            "type": "t_array(t_uint256)dyn_storage"
          }
        ],
        "numberOfBytes": "96"
      },
      "t_uint176": {
        "encoding": "inplace",
        "label": "uint176",
        "numberOfBytes": "22"
      },
      "t_uint256": {
        "encoding": "inplace",
        "label": "uint256",
        "numberOfBytes": "32"
      }
    }
  }
}