{
  "address": "0x35643752F4ea0ba70456F0CA1e2778f783206a20",
  "abi": [
    {
      "inputs": [
        {
          "internalType": "contract IERC20",
          "name": "_token",
          "type": "address"
        },
        {
          "internalType": "uint8",
          "name": "_sharedDecimals",
          "type": "uint8"
        },
        {
          "internalType": "address",
          "name": "_lzEndpoint",
          "type": "address"
        }
      ],
      "stateMutability": "nonpayable",
      "type": "constructor"
    },
    {
      "anonymous": false,
      "inputs": [
        {
          "indexed": true,
          "internalType": "uint16",
          "name": "_srcChainId",
          "type": "uint16"
        },
        {
          "indexed": false,
          "internalType": "bytes",
          "name": "_srcAddress",
          "type": "bytes"
        },
        {
          "indexed": false,
          "internalType": "uint64",
          "name": "_nonce",
          "type": "uint64"
        },
        {
          "indexed": false,
          "internalType": "bytes32",
          "name": "_hash",
          "type": "bytes32"
        }
      ],
      "name": "CallOFTReceivedSuccess",
      "type": "event"
    },
    {
      "anonymous": false,
      "inputs": [
        {
          "indexed": false,
          "internalType": "uint16",
          "name": "_srcChainId",
          "type": "uint16"
        },
        {
          "indexed": false,
          "internalType": "bytes",
          "name": "_srcAddress",
          "type": "bytes"
        },
        {
          "indexed": false,
          "internalType": "uint64",
          "name": "_nonce",
          "type": "uint64"
        },
        {
          "indexed": false,
          "internalType": "bytes",
          "name": "_payload",
          "type": "bytes"
        },
        {
          "indexed": false,
          "internalType": "bytes",
          "name": "_reason",
          "type": "bytes"
        }
      ],
      "name": "MessageFailed",
      "type": "event"
    },
    {
      "anonymous": false,
      "inputs": [
        {
          "indexed": false,
          "internalType": "address",
          "name": "_address",
          "type": "address"
        }
      ],
      "name": "NonContractAddress",
      "type": "event"
    },
    {
      "anonymous": false,
      "inputs": [
        {
          "indexed": true,
          "internalType": "address",
          "name": "previousOwner",
          "type": "address"
        },
        {
          "indexed": true,
          "internalType": "address",
          "name": "newOwner",
          "type": "address"
        }
      ],
      "name": "OwnershipTransferred",
      "type": "event"
    },
    {
      "anonymous": false,
      "inputs": [
        {
          "indexed": true,
          "internalType": "uint16",
          "name": "_srcChainId",
          "type": "uint16"
        },
        {
          "indexed": true,
          "internalType": "address",
          "name": "_to",
          "type": "address"
        },
        {
          "indexed": false,
          "internalType": "uint256",
          "name": "_amount",
          "type": "uint256"
        }
      ],
      "name": "ReceiveFromChain",
      "type": "event"
    },
    {
      "anonymous": false,
      "inputs": [
        {
          "indexed": false,
          "internalType": "uint16",
          "name": "_srcChainId",
          "type": "uint16"
        },
        {
          "indexed": false,
          "internalType": "bytes",
          "name": "_srcAddress",
          "type": "bytes"
        },
        {
          "indexed": false,
          "internalType": "uint64",
          "name": "_nonce",
          "type": "uint64"
        },
        {
          "indexed": false,
          "internalType": "bytes32",
          "name": "_payloadHash",
          "type": "bytes32"
        }
      ],
      "name": "RetryMessageSuccess",
      "type": "event"
    },
    {
      "anonymous": false,
      "inputs": [
        {
          "indexed": true,
          "internalType": "uint16",
          "name": "_dstChainId",
          "type": "uint16"
        },
        {
          "indexed": true,
          "internalType": "address",
          "name": "_from",
          "type": "address"
        },
        {
          "indexed": true,
          "internalType": "bytes32",
          "name": "_toAddress",
          "type": "bytes32"
        },
        {
          "indexed": false,
          "internalType": "uint256",
          "name": "_amount",
          "type": "uint256"
        }
      ],
      "name": "SendToChain",
      "type": "event"
    },
    {
      "anonymous": false,
      "inputs": [
        {
          "indexed": false,
          "internalType": "uint16",
          "name": "_dstChainId",
          "type": "uint16"
        },
        {
          "indexed": false,
          "internalType": "uint16",
          "name": "_type",
          "type": "uint16"
        },
        {
          "indexed": false,
          "internalType": "uint256",
          "name": "_minDstGas",
          "type": "uint256"
        }
      ],
      "name": "SetMinDstGas",
      "type": "event"
    },
    {
      "anonymous": false,
      "inputs": [
        {
          "indexed": false,
          "internalType": "address",
          "name": "precrime",
          "type": "address"
        }
      ],
      "name": "SetPrecrime",
      "type": "event"
    },
    {
      "anonymous": false,
      "inputs": [
        {
          "indexed": false,
          "internalType": "uint16",
          "name": "_remoteChainId",
          "type": "uint16"
        },
        {
          "indexed": false,
          "internalType": "bytes",
          "name": "_path",
          "type": "bytes"
        }
      ],
      "name": "SetTrustedRemote",
      "type": "event"
    },
    {
      "anonymous": false,
      "inputs": [
        {
          "indexed": false,
          "internalType": "uint16",
          "name": "_remoteChainId",
          "type": "uint16"
        },
        {
          "indexed": false,
          "internalType": "bytes",
          "name": "_remoteAddress",
          "type": "bytes"
        }
      ],
      "name": "SetTrustedRemoteAddress",
      "type": "event"
    },
    {
      "inputs": [],
      "name": "DEFAULT_PAYLOAD_SIZE_LIMIT",
      "outputs": [
        {
          "internalType": "uint256",
          "name": "",
          "type": "uint256"
        }
      ],
      "stateMutability": "view",
      "type": "function"
    },
    {
      "inputs": [],
      "name": "NO_EXTRA_GAS",
      "outputs": [
        {
          "internalType": "uint256",
          "name": "",
          "type": "uint256"
        }
      ],
      "stateMutability": "view",
      "type": "function"
    },
    {
      "inputs": [],
      "name": "PT_SEND",
      "outputs": [
        {
          "internalType": "uint8",
          "name": "",
          "type": "uint8"
        }
      ],
      "stateMutability": "view",
      "type": "function"
    },
    {
      "inputs": [],
      "name": "PT_SEND_AND_CALL",
      "outputs": [
        {
          "internalType": "uint8",
          "name": "",
          "type": "uint8"
        }
      ],
      "stateMutability": "view",
      "type": "function"
    },
    {
      "inputs": [
        {
          "internalType": "uint16",
          "name": "_srcChainId",
          "type": "uint16"
        },
        {
          "internalType": "bytes",
          "name": "_srcAddress",
          "type": "bytes"
        },
        {
          "internalType": "uint64",
          "name": "_nonce",
          "type": "uint64"
        },
        {
          "internalType": "bytes32",
          "name": "_from",
          "type": "bytes32"
        },
        {
          "internalType": "address",
          "name": "_to",
          "type": "address"
        },
        {
          "internalType": "uint256",
          "name": "_amount",
          "type": "uint256"
        },
        {
          "internalType": "bytes",
          "name": "_payload",
          "type": "bytes"
        },
        {
          "internalType": "uint256",
          "name": "_gasForCall",
          "type": "uint256"
        }
      ],
      "name": "callOnOFTReceived",
      "outputs": [],
      "stateMutability": "nonpayable",
      "type": "function"
    },
    {
      "inputs": [],
      "name": "circulatingSupply",
      "outputs": [
        {
          "internalType": "uint256",
          "name": "",
          "type": "uint256"
        }
      ],
      "stateMutability": "view",
      "type": "function"
    },
    {
      "inputs": [
        {
          "internalType": "uint16",
          "name": "",
          "type": "uint16"
        },
        {
          "internalType": "bytes",
          "name": "",
          "type": "bytes"
        },
        {
          "internalType": "uint64",
          "name": "",
          "type": "uint64"
        }
      ],
      "name": "creditedPackets",
      "outputs": [
        {
          "internalType": "bool",
          "name": "",
          "type": "bool"
        }
      ],
      "stateMutability": "view",
      "type": "function"
    },
    {
      "inputs": [
        {
          "internalType": "uint16",
          "name": "_dstChainId",
          "type": "uint16"
        },
        {
          "internalType": "bytes32",
          "name": "_toAddress",
          "type": "bytes32"
        },
        {
          "internalType": "uint256",
          "name": "_amount",
          "type": "uint256"
        },
        {
          "internalType": "bytes",
          "name": "_payload",
          "type": "bytes"
        },
        {
          "internalType": "uint64",
          "name": "_dstGasForCall",
          "type": "uint64"
        },
        {
          "internalType": "bool",
          "name": "_useZro",
          "type": "bool"
        },
        {
          "internalType": "bytes",
          "name": "_adapterParams",
          "type": "bytes"
        }
      ],
      "name": "estimateSendAndCallFee",
      "outputs": [
        {
          "internalType": "uint256",
          "name": "nativeFee",
          "type": "uint256"
        },
        {
          "internalType": "uint256",
          "name": "zroFee",
          "type": "uint256"
        }
      ],
      "stateMutability": "view",
      "type": "function"
    },
    {
      "inputs": [
        {
          "internalType": "uint16",
          "name": "_dstChainId",
          "type": "uint16"
        },
        {
          "internalType": "bytes32",
          "name": "_toAddress",
          "type": "bytes32"
        },
        {
          "internalType": "uint256",
          "name": "_amount",
          "type": "uint256"
        },
        {
          "internalType": "bool",
          "name": "_useZro",
          "type": "bool"
        },
        {
          "internalType": "bytes",
          "name": "_adapterParams",
          "type": "bytes"
        }
      ],
      "name": "estimateSendFee",
      "outputs": [
        {
          "internalType": "uint256",
          "name": "nativeFee",
          "type": "uint256"
        },
        {
          "internalType": "uint256",
          "name": "zroFee",
          "type": "uint256"
        }
      ],
      "stateMutability": "view",
      "type": "function"
    },
    {
      "inputs": [
        {
          "internalType": "uint16",
          "name": "",
          "type": "uint16"
        },
        {
          "internalType": "bytes",
          "name": "",
          "type": "bytes"
        },
        {
          "internalType": "uint64",
          "name": "",
          "type": "uint64"
        }
      ],
      "name": "failedMessages",
      "outputs": [
        {
          "internalType": "bytes32",
          "name": "",
          "type": "bytes32"
        }
      ],
      "stateMutability": "view",
      "type": "function"
    },
    {
      "inputs": [
        {
          "internalType": "uint16",
          "name": "_srcChainId",
          "type": "uint16"
        },
        {
          "internalType": "bytes",
          "name": "_srcAddress",
          "type": "bytes"
        }
      ],
      "name": "forceResumeReceive",
      "outputs": [],
      "stateMutability": "nonpayable",
      "type": "function"
    },
    {
      "inputs": [
        {
          "internalType": "uint16",
          "name": "_version",
          "type": "uint16"
        },
        {
          "internalType": "uint16",
          "name": "_chainId",
          "type": "uint16"
        },
        {
          "internalType": "address",
          "name": "",
          "type": "address"
        },
        {
          "internalType": "uint256",
          "name": "_configType",
          "type": "uint256"
        }
      ],
      "name": "getConfig",
      "outputs": [
        {
          "internalType": "bytes",
          "name": "",
          "type": "bytes"
        }
      ],
      "stateMutability": "view",
      "type": "function"
    },
    {
      "inputs": [
        {
          "internalType": "uint16",
          "name": "_remoteChainId",
          "type": "uint16"
        }
      ],
      "name": "getTrustedRemoteAddress",
      "outputs": [
        {
          "internalType": "bytes",
          "name": "",
          "type": "bytes"
        }
      ],
      "stateMutability": "view",
      "type": "function"
    },
    {
      "inputs": [
        {
          "internalType": "uint16",
          "name": "_srcChainId",
          "type": "uint16"
        },
        {
          "internalType": "bytes",
          "name": "_srcAddress",
          "type": "bytes"
        }
      ],
      "name": "isTrustedRemote",
      "outputs": [
        {
          "internalType": "bool",
          "name": "",
          "type": "bool"
        }
      ],
      "stateMutability": "view",
      "type": "function"
    },
    {
      "inputs": [],
      "name": "lzEndpoint",
      "outputs": [
        {
          "internalType": "contract ILayerZeroEndpoint",
          "name": "",
          "type": "address"
        }
      ],
      "stateMutability": "view",
      "type": "function"
    },
    {
      "inputs": [
        {
          "internalType": "uint16",
          "name": "_srcChainId",
          "type": "uint16"
        },
        {
          "internalType": "bytes",
          "name": "_srcAddress",
          "type": "bytes"
        },
        {
          "internalType": "uint64",
          "name": "_nonce",
          "type": "uint64"
        },
        {
          "internalType": "bytes",
          "name": "_payload",
          "type": "bytes"
        }
      ],
      "name": "lzReceive",
      "outputs": [],
      "stateMutability": "nonpayable",
      "type": "function"
    },
    {
      "inputs": [
        {
          "internalType": "uint16",
          "name": "",
          "type": "uint16"
        },
        {
          "internalType": "uint16",
          "name": "",
          "type": "uint16"
        }
      ],
      "name": "minDstGasLookup",
      "outputs": [
        {
          "internalType": "uint256",
          "name": "",
          "type": "uint256"
        }
      ],
      "stateMutability": "view",
      "type": "function"
    },
    {
      "inputs": [
        {
          "internalType": "uint16",
          "name": "_srcChainId",
          "type": "uint16"
        },
        {
          "internalType": "bytes",
          "name": "_srcAddress",
          "type": "bytes"
        },
        {
          "internalType": "uint64",
          "name": "_nonce",
          "type": "uint64"
        },
        {
          "internalType": "bytes",
          "name": "_payload",
          "type": "bytes"
        }
      ],
      "name": "nonblockingLzReceive",
      "outputs": [],
      "stateMutability": "nonpayable",
      "type": "function"
    },
    {
      "inputs": [],
      "name": "outboundAmount",
      "outputs": [
        {
          "internalType": "uint256",
          "name": "",
          "type": "uint256"
        }
      ],
      "stateMutability": "view",
      "type": "function"
    },
    {
      "inputs": [],
      "name": "owner",
      "outputs": [
        {
          "internalType": "address",
          "name": "",
          "type": "address"
        }
      ],
      "stateMutability": "view",
      "type": "function"
    },
    {
      "inputs": [
        {
          "internalType": "uint16",
          "name": "",
          "type": "uint16"
        }
      ],
      "name": "payloadSizeLimitLookup",
      "outputs": [
        {
          "internalType": "uint256",
          "name": "",
          "type": "uint256"
        }
      ],
      "stateMutability": "view",
      "type": "function"
    },
    {
      "inputs": [],
      "name": "precrime",
      "outputs": [
        {
          "internalType": "address",
          "name": "",
          "type": "address"
        }
      ],
      "stateMutability": "view",
      "type": "function"
    },
    {
      "inputs": [],
      "name": "renounceOwnership",
      "outputs": [],
      "stateMutability": "nonpayable",
      "type": "function"
    },
    {
      "inputs": [
        {
          "internalType": "uint16",
          "name": "_srcChainId",
          "type": "uint16"
        },
        {
          "internalType": "bytes",
          "name": "_srcAddress",
          "type": "bytes"
        },
        {
          "internalType": "uint64",
          "name": "_nonce",
          "type": "uint64"
        },
        {
          "internalType": "bytes",
          "name": "_payload",
          "type": "bytes"
        }
      ],
      "name": "retryMessage",
      "outputs": [],
      "stateMutability": "payable",
      "type": "function"
    },
    {
      "inputs": [
        {
          "internalType": "address",
          "name": "_from",
          "type": "address"
        },
        {
          "internalType": "uint16",
          "name": "_dstChainId",
          "type": "uint16"
        },
        {
          "internalType": "bytes32",
          "name": "_toAddress",
          "type": "bytes32"
        },
        {
          "internalType": "uint256",
          "name": "_amount",
          "type": "uint256"
        },
        {
          "internalType": "bytes",
          "name": "_payload",
          "type": "bytes"
        },
        {
          "internalType": "uint64",
          "name": "_dstGasForCall",
          "type": "uint64"
        },
        {
          "components": [
            {
              "internalType": "address payable",
              "name": "refundAddress",
              "type": "address"
            },
            {
              "internalType": "address",
              "name": "zroPaymentAddress",
              "type": "address"
            },
            {
              "internalType": "bytes",
              "name": "adapterParams",
              "type": "bytes"
            }
          ],
          "internalType": "struct ICommonOFT.LzCallParams",
          "name": "_callParams",
          "type": "tuple"
        }
      ],
      "name": "sendAndCall",
      "outputs": [],
      "stateMutability": "payable",
      "type": "function"
    },
    {
      "inputs": [
        {
          "internalType": "address",
          "name": "_from",
          "type": "address"
        },
        {
          "internalType": "uint16",
          "name": "_dstChainId",
          "type": "uint16"
        },
        {
          "internalType": "bytes32",
          "name": "_toAddress",
          "type": "bytes32"
        },
        {
          "internalType": "uint256",
          "name": "_amount",
          "type": "uint256"
        },
        {
          "components": [
            {
              "internalType": "address payable",
              "name": "refundAddress",
              "type": "address"
            },
            {
              "internalType": "address",
              "name": "zroPaymentAddress",
              "type": "address"
            },
            {
              "internalType": "bytes",
              "name": "adapterParams",
              "type": "bytes"
            }
          ],
          "internalType": "struct ICommonOFT.LzCallParams",
          "name": "_callParams",
          "type": "tuple"
        }
      ],
      "name": "sendFrom",
      "outputs": [],
      "stateMutability": "payable",
      "type": "function"
    },
    {
      "inputs": [
        {
          "internalType": "uint16",
          "name": "_version",
          "type": "uint16"
        },
        {
          "internalType": "uint16",
          "name": "_chainId",
          "type": "uint16"
        },
        {
          "internalType": "uint256",
          "name": "_configType",
          "type": "uint256"
        },
        {
          "internalType": "bytes",
          "name": "_config",
          "type": "bytes"
        }
      ],
      "name": "setConfig",
      "outputs": [],
      "stateMutability": "nonpayable",
      "type": "function"
    },
    {
      "inputs": [
        {
          "internalType": "uint16",
          "name": "_dstChainId",
          "type": "uint16"
        },
        {
          "internalType": "uint16",
          "name": "_packetType",
          "type": "uint16"
        },
        {
          "internalType": "uint256",
          "name": "_minGas",
          "type": "uint256"
        }
      ],
      "name": "setMinDstGas",
      "outputs": [],
      "stateMutability": "nonpayable",
      "type": "function"
    },
    {
      "inputs": [
        {
          "internalType": "uint16",
          "name": "_dstChainId",
          "type": "uint16"
        },
        {
          "internalType": "uint256",
          "name": "_size",
          "type": "uint256"
        }
      ],
      "name": "setPayloadSizeLimit",
      "outputs": [],
      "stateMutability": "nonpayable",
      "type": "function"
    },
    {
      "inputs": [
        {
          "internalType": "address",
          "name": "_precrime",
          "type": "address"
        }
      ],
      "name": "setPrecrime",
      "outputs": [],
      "stateMutability": "nonpayable",
      "type": "function"
    },
    {
      "inputs": [
        {
          "internalType": "uint16",
          "name": "_version",
          "type": "uint16"
        }
      ],
      "name": "setReceiveVersion",
      "outputs": [],
      "stateMutability": "nonpayable",
      "type": "function"
    },
    {
      "inputs": [
        {
          "internalType": "uint16",
          "name": "_version",
          "type": "uint16"
        }
      ],
      "name": "setSendVersion",
      "outputs": [],
      "stateMutability": "nonpayable",
      "type": "function"
    },
    {
      "inputs": [
        {
          "internalType": "uint16",
          "name": "_remoteChainId",
          "type": "uint16"
        },
        {
          "internalType": "bytes",
          "name": "_path",
          "type": "bytes"
        }
      ],
      "name": "setTrustedRemote",
      "outputs": [],
      "stateMutability": "nonpayable",
      "type": "function"
    },
    {
      "inputs": [
        {
          "internalType": "uint16",
          "name": "_remoteChainId",
          "type": "uint16"
        },
        {
          "internalType": "bytes",
          "name": "_remoteAddress",
          "type": "bytes"
        }
      ],
      "name": "setTrustedRemoteAddress",
      "outputs": [],
      "stateMutability": "nonpayable",
      "type": "function"
    },
    {
      "inputs": [],
      "name": "sharedDecimals",
      "outputs": [
        {
          "internalType": "uint8",
          "name": "",
          "type": "uint8"
        }
      ],
      "stateMutability": "view",
      "type": "function"
    },
    {
      "inputs": [
        {
          "internalType": "bytes4",
          "name": "interfaceId",
          "type": "bytes4"
        }
      ],
      "name": "supportsInterface",
      "outputs": [
        {
          "internalType": "bool",
          "name": "",
          "type": "bool"
        }
      ],
      "stateMutability": "view",
      "type": "function"
    },
    {
      "inputs": [],
      "name": "token",
      "outputs": [
        {
          "internalType": "address",
          "name": "",
          "type": "address"
        }
      ],
      "stateMutability": "view",
      "type": "function"
    },
    {
      "inputs": [
        {
          "internalType": "address",
          "name": "newOwner",
          "type": "address"
        }
      ],
      "name": "transferOwnership",
      "outputs": [],
      "stateMutability": "nonpayable",
      "type": "function"
    },
    {
      "inputs": [
        {
          "internalType": "uint16",
          "name": "",
          "type": "uint16"
        }
      ],
      "name": "trustedRemoteLookup",
      "outputs": [
        {
          "internalType": "bytes",
          "name": "",
          "type": "bytes"
        }
      ],
      "stateMutability": "view",
      "type": "function"
    }
  ],
  "transactionHash": "0xd73c00d674253e761a31101e8e2db739ebdc8b192526dedf55ffe7273f7734a1",
  "args": [
    "0x33C8036E99082B0C395374832FECF70c42C7F298",
    "6",
    "0x3c2269811836af69497E5F486A85D7316753cf62"
  ],
  "numDeployments": 2,
  "solcInputHash": "f9c77802e5b1576db6f53c4e4abec34e",
  "bytecode": "0x6101006040523480156200001257600080fd5b50604051620042fb380380620042fb83398101604081905262000035916200027b565b8181818180806200004633620001fb565b6001600160a01b0390811660805260ff90931660a0525050851660c081905260408051600481526024810182526020810180516001600160e01b031663313ce56760e01b179052905160009450849350620000a29190620002cb565b600060405180830381855afa9150503d8060008114620000df576040519150601f19603f3d011682016040523d82523d6000602084013e620000e4565b606091505b5091509150816200014b5760405162461bcd60e51b815260206004820152602660248201527f50726f78794f46543a206661696c656420746f2067657420746f6b656e20646560448201526563696d616c7360d01b60648201526084015b60405180910390fd5b600081806020019051810190620001639190620002fc565b90508060ff168560ff161115620001d25760405162461bcd60e51b815260206004820152602c60248201527f50726f78794f46543a20736861726564446563696d616c73206d75737420626560448201526b203c3d20646563696d616c7360a01b606482015260840162000142565b620001de858262000337565b620001eb90600a62000456565b60e0525062000467945050505050565b600080546001600160a01b038381166001600160a01b0319831681178455604051919092169283917f8be0079c531659141344cd1fd0a4f28419497f9722a3daafe3b4186f6b6457e09190a35050565b6001600160a01b03811681146200026157600080fd5b50565b805160ff811681146200027657600080fd5b919050565b6000806000606084860312156200029157600080fd5b83516200029e816200024b565b9250620002ae6020850162000264565b91506040840151620002c0816200024b565b809150509250925092565b6000825160005b81811015620002ee5760208186018101518583015201620002d2565b506000920191825250919050565b6000602082840312156200030f57600080fd5b6200031a8262000264565b9392505050565b634e487b7160e01b600052601160045260246000fd5b60ff828116828216039081111562000353576200035362000321565b92915050565b600181815b808511156200039a5781600019048211156200037e576200037e62000321565b808516156200038c57918102915b93841c93908002906200035e565b509250929050565b600082620003b35750600162000353565b81620003c25750600062000353565b8160018114620003db5760028114620003e65762000406565b600191505062000353565b60ff841115620003fa57620003fa62000321565b50506001821b62000353565b5060208310610133831016604e8410600b84101617156200042b575081810a62000353565b62000437838362000359565b80600019048211156200044e576200044e62000321565b029392505050565b60006200031a60ff841683620003a2565b60805160a05160c05160e051613df16200050a600039600061289201526000818161072a01528181610f1801528181611da001528181611e4a01528181611e8301528181611ec4015261254f015260006104500152600081816105db01528181610751015281816109d701528181610a7f01528181610bf70152818161124b015281816117470152818161190901528181611d0d01526127330152613df16000f3fe6080604052600436106101bf5760003560e01c80621d3567146101c457806301ffc9a7146101e657806307e0db171461021b5780630df374831461023b57806310ddb1371461025b578063365260b41461027b5780633d8b38f6146102b05780633f1f4fa4146102d057806342d65a8d1461030b578063447705151461032b5780634c42899a146103405780635b8c41e61461036757806366ad5c8a146103b6578063695ef6bf146103d6578063715018a6146103e95780637533d788146103fe57806376203b481461042b578063857749b01461043e5780638cfd8f5c146104725780638da5cb5b146104aa5780639358928b146104cc578063950c8a74146104e15780639689cb05146105015780639bdb9812146105175780639f38369a14610569578063a4c51df514610589578063a6c3d165146105a9578063b353aaa7146105c9578063baf3292d146105fd578063c44618341461061d578063cbed8b9c14610633578063d1deba1f14610653578063df2a5b3b14610666578063e6a20ae614610686578063eaffd49a1461069b578063eb8d72b7146106bb578063f2fde38b146106db578063f5ecbdbc146106fb578063fc0c546a1461071b575b600080fd5b3480156101d057600080fd5b506101e46101df366004612e60565b61074e565b005b3480156101f257600080fd5b50610206610201366004612ef3565b61097f565b60405190151581526020015b60405180910390f35b34801561022757600080fd5b506101e4610236366004612f1d565b6109b6565b34801561024757600080fd5b506101e4610256366004612f38565b610a3f565b34801561026757600080fd5b506101e4610276366004612f1d565b610a5e565b34801561028757600080fd5b5061029b610296366004612f70565b610ab6565b60408051928352602083019190915201610212565b3480156102bc57600080fd5b506102066102cb366004612fd7565b610b0b565b3480156102dc57600080fd5b506102fd6102eb366004612f1d565b60036020526000908152604090205481565b604051908152602001610212565b34801561031757600080fd5b506101e4610326366004612fd7565b610bd8565b34801561033757600080fd5b506102fd600081565b34801561034c57600080fd5b50610355600081565b60405160ff9091168152602001610212565b34801561037357600080fd5b506102fd610382366004613096565b6005602090815260009384526040808520845180860184018051928152908401958401959095209452929052825290205481565b3480156103c257600080fd5b506101e46103d1366004612e60565b610c5e565b6101e46103e4366004613163565b610d3a565b3480156103f557600080fd5b506101e4610da5565b34801561040a57600080fd5b5061041e610419366004612f1d565b610db9565b6040516102129190613226565b6101e4610439366004613239565b610e53565b34801561044a57600080fd5b506103557f000000000000000000000000000000000000000000000000000000000000000081565b34801561047e57600080fd5b506102fd61048d3660046132eb565b600260209081526000928352604080842090915290825290205481565b3480156104b657600080fd5b506104bf610f02565b604051610212919061331e565b3480156104d857600080fd5b506102fd610f11565b3480156104ed57600080fd5b506004546104bf906001600160a01b031681565b34801561050d57600080fd5b506102fd60075481565b34801561052357600080fd5b50610206610532366004613096565b6006602090815260009384526040808520845180860184018051928152908401958401959095209452929052825290205460ff1681565b34801561057557600080fd5b5061041e610584366004612f1d565b610fa7565b34801561059557600080fd5b5061029b6105a4366004613332565b6110b6565b3480156105b557600080fd5b506101e46105c4366004612fd7565b611145565b3480156105d557600080fd5b506104bf7f000000000000000000000000000000000000000000000000000000000000000081565b34801561060957600080fd5b506101e46106183660046133ef565b6111ce565b34801561062957600080fd5b506102fd61271081565b34801561063f57600080fd5b506101e461064e36600461340c565b61122c565b6101e4610661366004612e60565b6112b6565b34801561067257600080fd5b506101e461068136600461347a565b6114cc565b34801561069257600080fd5b50610355600181565b3480156106a757600080fd5b506101e46106b63660046134b6565b611536565b3480156106c757600080fd5b506101e46106d6366004612fd7565b611643565b3480156106e757600080fd5b506101e46106f63660046133ef565b61169d565b34801561070757600080fd5b5061041e61071636600461357e565b611716565b34801561072757600080fd5b507f00000000000000000000000000000000000000000000000000000000000000006104bf565b337f00000000000000000000000000000000000000000000000000000000000000006001600160a01b0316146107cb5760405162461bcd60e51b815260206004820152601e60248201527f4c7a4170703a20696e76616c696420656e64706f696e742063616c6c6572000060448201526064015b60405180910390fd5b61ffff8616600090815260016020526040812080546107e9906135cb565b80601f0160208091040260200160405190810160405280929190818152602001828054610815906135cb565b80156108625780601f1061083757610100808354040283529160200191610862565b820191906000526020600020905b81548152906001019060200180831161084557829003601f168201915b5050505050905080518686905014801561087d575060008151115b80156108a557508051602082012060405161089b90889088906135ff565b6040518091039020145b6109005760405162461bcd60e51b815260206004820152602660248201527f4c7a4170703a20696e76616c696420736f757263652073656e64696e6720636f6044820152651b9d1c9858dd60d21b60648201526084016107c2565b6109768787878080601f01602080910402602001604051908101604052809392919081815260200183838082843760009201919091525050604080516020601f8a018190048102820181019092528881528a9350915088908890819084018382808284376000920191909152506117c992505050565b50505050505050565b60006001600160e01b03198216631f7ecdf760e01b14806109b057506301ffc9a760e01b6001600160e01b03198316145b92915050565b6109be611842565b6040516307e0db1760e01b815261ffff821660048201527f00000000000000000000000000000000000000000000000000000000000000006001600160a01b0316906307e0db17906024015b600060405180830381600087803b158015610a2457600080fd5b505af1158015610a38573d6000803e3d6000fd5b5050505050565b610a47611842565b61ffff909116600090815260036020526040902055565b610a66611842565b6040516310ddb13760e01b815261ffff821660048201527f00000000000000000000000000000000000000000000000000000000000000006001600160a01b0316906310ddb13790602401610a0a565b600080610afc8888888888888080601f0160208091040260200160405190810160405280939291908181526020018383808284376000920191909152506118a192505050565b91509150965096945050505050565b61ffff831660009081526001602052604081208054829190610b2c906135cb565b80601f0160208091040260200160405190810160405280929190818152602001828054610b58906135cb565b8015610ba55780601f10610b7a57610100808354040283529160200191610ba5565b820191906000526020600020905b815481529060010190602001808311610b8857829003601f168201915b505050505090508383604051610bbc9291906135ff565b60405180910390208180519060200120149150505b9392505050565b610be0611842565b6040516342d65a8d60e01b81526001600160a01b037f000000000000000000000000000000000000000000000000000000000000000016906342d65a8d90610c3090869086908690600401613638565b600060405180830381600087803b158015610c4a57600080fd5b505af1158015610976573d6000803e3d6000fd5b333014610cbc5760405162461bcd60e51b815260206004820152602660248201527f4e6f6e626c6f636b696e674c7a4170703a2063616c6c6572206d7573742062656044820152650204c7a4170760d41b60648201526084016107c2565b610d328686868080601f01602080910402602001604051908101604052809392919081815260200183838082843760009201919091525050604080516020601f89018190048102820181019092528781528993509150879087908190840183828082843760009201919091525061199592505050565b505050505050565b610d3285858585610d4e60208701876133ef565b610d5e60408801602089016133ef565b610d6b6040890189613656565b8080601f016020809104026020016040519081016040528093929190818152602001838380828437600092019190915250611a1b92505050565b610dad611842565b610db76000611ac5565b565b60016020526000908152604090208054610dd2906135cb565b80601f0160208091040260200160405190810160405280929190818152602001828054610dfe906135cb565b8015610e4b5780601f10610e2057610100808354040283529160200191610e4b565b820191906000526020600020905b815481529060010190602001808311610e2e57829003601f168201915b505050505081565b610ef78888888888888080601f0160208091040260200160405190810160405280939291908181526020018383808284376000920191909152508a9250610ea091505060208901896133ef565b610eb060408a0160208b016133ef565b610ebd60408b018b613656565b8080601f016020809104026020016040519081016040528093929190818152602001838380828437600092019190915250611b1592505050565b505050505050505050565b6000546001600160a01b031690565b60006007547f00000000000000000000000000000000000000000000000000000000000000006001600160a01b03166318160ddd6040518163ffffffff1660e01b8152600401602060405180830381865afa158015610f74573d6000803e3d6000fd5b505050506040513d601f19601f82011682018060405250810190610f98919061369c565b610fa291906136cb565b905090565b61ffff8116600090815260016020526040812080546060929190610fca906135cb565b80601f0160208091040260200160405190810160405280929190818152602001828054610ff6906135cb565b80156110435780601f1061101857610100808354040283529160200191611043565b820191906000526020600020905b81548152906001019060200180831161102657829003601f168201915b50505050509050805160000361109b5760405162461bcd60e51b815260206004820152601d60248201527f4c7a4170703a206e6f20747275737465642070617468207265636f726400000060448201526064016107c2565b610bd16000601483516110ae91906136cb565b839190611bd3565b6000806111338b8b8b8b8b8080601f01602080910402602001604051908101604052809392919081815260200183838082843760009201919091525050604080516020601f8d018190048102820181019092528b81528e93508d9250908c908c9081908401838280828437600092019190915250611ce092505050565b91509150995099975050505050505050565b61114d611842565b818130604051602001611162939291906136de565b60408051601f1981840301815291815261ffff851660009081526001602052209061118d908261375a565b507f8c0400cfe2d1199b1a725c78960bcc2a344d869b80590d0f2bd005db15a572ce8383836040516111c193929190613638565b60405180910390a1505050565b6111d6611842565b600480546001600160a01b0319166001600160a01b0383161790556040517f5db758e995a17ec1ad84bdef7e8c3293a0bd6179bcce400dff5d4c3d87db726b9061122190839061331e565b60405180910390a150565b611234611842565b6040516332fb62e760e21b81526001600160a01b037f0000000000000000000000000000000000000000000000000000000000000000169063cbed8b9c906112889088908890889088908890600401613813565b600060405180830381600087803b1580156112a257600080fd5b505af1158015610ef7573d6000803e3d6000fd5b61ffff861660009081526005602052604080822090516112d990889088906135ff565b90815260408051602092819003830190206001600160401b038716600090815292529020549050806113595760405162461bcd60e51b815260206004820152602360248201527f4e6f6e626c6f636b696e674c7a4170703a206e6f2073746f726564206d65737360448201526261676560e81b60648201526084016107c2565b80838360405161136a9291906135ff565b6040518091039020146113c95760405162461bcd60e51b815260206004820152602160248201527f4e6f6e626c6f636b696e674c7a4170703a20696e76616c6964207061796c6f616044820152601960fa1b60648201526084016107c2565b61ffff871660009081526005602052604080822090516113ec90899089906135ff565b90815260408051602092819003830181206001600160401b038916600090815290845282902093909355601f88018290048202830182019052868252611484918991899089908190840183828082843760009201919091525050604080516020601f8a018190048102820181019092528881528a93509150889088908190840183828082843760009201919091525061199592505050565b7fc264d91f3adc5588250e1551f547752ca0cfa8f6b530d243b9f9f4cab10ea8e587878787856040516114bb959493929190613841565b60405180910390a150505050505050565b6114d4611842565b61ffff83811660008181526002602090815260408083209487168084529482529182902085905581519283528201929092529081018290527f9d5c7c0b934da8fefa9c7760c98383778a12dfbfc0c3b3106518f43fb9508ac0906060016111c1565b3330146115855760405162461bcd60e51b815260206004820152601f60248201527f4f4654436f72653a2063616c6c6572206d757374206265204f4654436f72650060448201526064016107c2565b611590308686611d9b565b9350846001600160a01b03168a61ffff16600080516020613d9c833981519152866040516115c091815260200190565b60405180910390a3604051633fe79aed60e11b81526001600160a01b03861690637fcf35da908390611604908e908e908e908e908e908d908d908d9060040161387c565b600060405180830381600088803b15801561161e57600080fd5b5087f1158015611632573d6000803e3d6000fd5b505050505050505050505050505050565b61164b611842565b61ffff831660009081526001602052604090206116698284836138d9565b507ffa41487ad5d6728f0b19276fa1eddc16558578f5109fc39d2dc33c3230470dab8383836040516111c193929190613638565b6116a5611842565b6001600160a01b03811661170a5760405162461bcd60e51b815260206004820152602660248201527f4f776e61626c653a206e6577206f776e657220697320746865207a65726f206160448201526564647265737360d01b60648201526084016107c2565b61171381611ac5565b50565b604051633d7b2f6f60e21b815261ffff808616600483015284166024820152306044820152606481018290526060907f00000000000000000000000000000000000000000000000000000000000000006001600160a01b03169063f5ecbdbc90608401600060405180830381865afa158015611796573d6000803e3d6000fd5b505050506040513d6000823e601f3d908101601f191682016040526117be9190810190613992565b90505b949350505050565b60008061182c5a60966366ad5c8a60e01b898989896040516024016117f194939291906139ff565b60408051601f198184030181529190526020810180516001600160e01b03166001600160e01b03199093169290921790915230929190611f4d565b9150915081610d3257610d328686868685611fd7565b3361184b610f02565b6001600160a01b031614610db75760405162461bcd60e51b815260206004820181905260248201527f4f776e61626c653a2063616c6c6572206973206e6f7420746865206f776e657260448201526064016107c2565b60008060006118ef876118b388612074565b6040805160006020820152602181019390935260c09190911b6001600160c01b0319166041830152805160298184030181526049909201905290565b60405163040a7bb160e41b81529091506001600160a01b037f000000000000000000000000000000000000000000000000000000000000000016906340a7bb1090611946908b90309086908b908b90600401613a3d565b6040805180830381865afa158015611962573d6000803e3d6000fd5b505050506040513d601f19601f820116820180604052508101906119869190613a91565b92509250509550959350505050565b60006119a182826120df565b905060ff81166119bc576119b78585858561213b565b610a38565b60001960ff8216016119d4576119b7858585856121b9565b60405162461bcd60e51b815260206004820152601c60248201527b4f4654436f72653a20756e6b6e6f776e207061636b6574207479706560201b60448201526064016107c2565b6000611a29878284816123c1565b611a3285612491565b509050611a41888888846124b9565b905060008111611a635760405162461bcd60e51b81526004016107c290613ab5565b6000611a72876118b384612074565b9050611a8288828787873461260a565b86896001600160a01b03168961ffff16600080516020613d7c83398151915285604051611ab191815260200190565b60405180910390a450979650505050505050565b600080546001600160a01b038381166001600160a01b0319831681178455604051919092169283917f8be0079c531659141344cd1fd0a4f28419497f9722a3daafe3b4186f6b6457e09190a35050565b6000611b2d896001846001600160401b0389166123c1565b611b3687612491565b509050611b458a8a8a846124b9565b905060008111611b675760405162461bcd60e51b81526004016107c290613ab5565b6000611b7e338a611b7785612074565b8a8a6127af565b9050611b8e8a828787873461260a565b888b6001600160a01b03168b61ffff16600080516020613d7c83398151915285604051611bbd91815260200190565b60405180910390a4509998505050505050505050565b606081611be181601f613ae8565b1015611c205760405162461bcd60e51b815260206004820152600e60248201526d736c6963655f6f766572666c6f7760901b60448201526064016107c2565b611c2a8284613ae8565b84511015611c6e5760405162461bcd60e51b8152602060048201526011602482015270736c6963655f6f75744f66426f756e647360781b60448201526064016107c2565b606082158015611c8d5760405191506000825260208201604052611cd7565b6040519150601f8416801560200281840101858101878315602002848b0101015b81831015611cc6578051835260209283019201611cae565b5050858452601f01601f1916604052505b50949350505050565b6000806000611cf3338a611b778b612074565b60405163040a7bb160e41b81529091506001600160a01b037f000000000000000000000000000000000000000000000000000000000000000016906340a7bb1090611d4a908d90309086908b908b90600401613a3d565b6040805180830381865afa158015611d66573d6000803e3d6000fd5b505050506040513d601f19601f82011682018060405250810190611d8a9190613a91565b925092505097509795505050505050565b6000807f00000000000000000000000000000000000000000000000000000000000000006001600160a01b03166370a08231856040518263ffffffff1660e01b8152600401611dea919061331e565b602060405180830381865afa158015611e07573d6000803e3d6000fd5b505050506040513d601f19601f82011682018060405250810190611e2b919061369c565b9050306001600160a01b03861603611e7657611e716001600160a01b037f00000000000000000000000000000000000000000000000000000000000000001685856127f0565b611eab565b611eab6001600160a01b037f000000000000000000000000000000000000000000000000000000000000000016868686612858565b6040516370a0823160e01b815281906001600160a01b037f000000000000000000000000000000000000000000000000000000000000000016906370a0823190611ef990889060040161331e565b602060405180830381865afa158015611f16573d6000803e3d6000fd5b505050506040513d601f19601f82011682018060405250810190611f3a919061369c565b611f4491906136cb565b95945050505050565b6000606060008060008661ffff166001600160401b03811115611f7257611f72613029565b6040519080825280601f01601f191660200182016040528015611f9c576020820181803683370190505b50905060008087516020890160008d8df191503d925086831115611fbe578692505b828152826000602083013e909890975095505050505050565b8180519060200120600560008761ffff1661ffff168152602001908152602001600020856040516120089190613afb565b9081526040805191829003602090810183206001600160401b0388166000908152915220919091557fe183f33de2837795525b4792ca4cd60535bd77c53b7e7030060bfcf5734d6b0c906120659087908790879087908790613b17565b60405180910390a15050505050565b60008061207f612890565b6120899084613b7f565b90506001600160401b038111156109b05760405162461bcd60e51b815260206004820152601a6024820152794f4654436f72653a20616d6f756e745344206f766572666c6f7760301b60448201526064016107c2565b60006120ec826001613ae8565b835110156121325760405162461bcd60e51b8152602060048201526013602482015272746f55696e74385f6f75744f66426f756e647360681b60448201526064016107c2565b50016001015190565b600080612147836128b4565b90925090506001600160a01b0382166121605761dead91505b600061216b8261290e565b905061217887848361292b565b9050826001600160a01b03168761ffff16600080516020613d9c833981519152836040516121a891815260200190565b60405180910390a350505050505050565b60008060008060006121ca8661296d565b945094509450945094506000600660008b61ffff1661ffff168152602001908152602001600020896040516121ff9190613afb565b90815260408051602092819003830190206001600160401b038b166000908152925281205460ff1691506122328561290e565b9050816122a0576122448b308361292b565b61ffff8c1660009081526006602052604090819020905191925060019161226c908d90613afb565b90815260408051602092819003830190206001600160401b038d16600090815292529020805460ff19169115159190911790555b6122a9866129f9565b6122f0577f9aedf5fdba8716db3b6705ca00150643309995d4f818a249ed6dde6677e7792d866040516122dc919061331e565b60405180910390a1505050505050506123bb565b8a8a8a8a8a8a868a60008a61230e578b6001600160401b0316612310565b5a5b90506000806123425a609663eaffd49a60e01b8e8e8e8d8d8d8d8d6040516024016117f1989796959493929190613b93565b91509150811561239b578751602089012060405161ffff8d16907fb8890edbfc1c74692f527444645f95489c3703cc2df42e4a366f5d06fa6cd8849061238d908e908e908690613c07565b60405180910390a2506123a8565b6123a88b8b8b8b85611fd7565b5050505050505050505050505050505050505b50505050565b60006123cc83612a08565b61ffff8087166000908152600260209081526040808320938916835292905220549091508061243a5760405162461bcd60e51b815260206004820152601a602482015279131e905c1c0e881b5a5b91d85cd31a5b5a5d081b9bdd081cd95d60321b60448201526064016107c2565b6124448382613ae8565b821015610d325760405162461bcd60e51b815260206004820152601b60248201527a4c7a4170703a20676173206c696d697420697320746f6f206c6f7760281b60448201526064016107c2565b60008061249c612890565b6124a69084613c35565b90506124b281846136cb565b9150915091565b60006001600160a01b038516331461251e5760405162461bcd60e51b815260206004820152602260248201527f50726f78794f46543a206f776e6572206973206e6f742073656e642063616c6c60448201526132b960f11b60648201526084016107c2565b612529853084611d9b565b915060008061253784612491565b90925090508015612576576125766001600160a01b037f00000000000000000000000000000000000000000000000000000000000000001688836127f0565b81600760008282546125889190613ae8565b90915550600090506125a06001600160401b0361290e565b90506007548110156125fe5760405162461bcd60e51b815260206004820152602160248201527f50726f78794f46543a206f7574626f756e64416d6f756e74206f766572666c6f6044820152607760f81b60648201526084016107c2565b50909695505050505050565b61ffff861660009081526001602052604081208054612628906135cb565b80601f0160208091040260200160405190810160405280929190818152602001828054612654906135cb565b80156126a15780601f10612676576101008083540402835291602001916126a1565b820191906000526020600020905b81548152906001019060200180831161268457829003601f168201915b5050505050905080516000036127125760405162461bcd60e51b815260206004820152603060248201527f4c7a4170703a2064657374696e6174696f6e20636861696e206973206e6f742060448201526f61207472757374656420736f7572636560801b60648201526084016107c2565b61271d878751612a63565b60405162c5803160e81b81526001600160a01b037f0000000000000000000000000000000000000000000000000000000000000000169063c5803100908490612774908b9086908c908c908c908c90600401613c49565b6000604051808303818588803b15801561278d57600080fd5b505af11580156127a1573d6000803e3d6000fd5b505050505050505050505050565b6060600185856001600160a01b03891685876040516020016127d696959493929190613cb0565b604051602081830303815290604052905095945050505050565b6040516001600160a01b03831660248201526044810182905261285390849063a9059cbb60e01b906064015b60408051601f198184030181529190526020810180516001600160e01b03166001600160e01b031990931692909217909152612ad4565b505050565b6040516001600160a01b03808516602483015283166044820152606481018290526123bb9085906323b872dd60e01b9060840161281c565b7f000000000000000000000000000000000000000000000000000000000000000090565b600080806128c284826120df565b60ff161480156128d3575082516029145b6128ef5760405162461bcd60e51b81526004016107c290613d15565b6128fa83600d612ba9565b9150612907836021612c0e565b9050915091565b6000612918612890565b6109b0906001600160401b038416613d47565b6000816007600082825461293f91906136cb565b9091555050306001600160a01b0384160361295b575080610bd1565b612966308484611d9b565b9050610bd1565b60008080606081600161298087836120df565b60ff16146129a05760405162461bcd60e51b81526004016107c290613d15565b6129ab86600d612ba9565b93506129b8866021612c0e565b92506129c5866029612c6b565b94506129d2866049612c0e565b90506129ee60518088516129e691906136cb565b889190611bd3565b915091939590929450565b6001600160a01b03163b151590565b6000602282511015612a5b5760405162461bcd60e51b815260206004820152601c60248201527b4c7a4170703a20696e76616c69642061646170746572506172616d7360201b60448201526064016107c2565b506022015190565b61ffff821660009081526003602052604081205490819003612a8457506127105b808211156128535760405162461bcd60e51b815260206004820181905260248201527f4c7a4170703a207061796c6f61642073697a6520697320746f6f206c6172676560448201526064016107c2565b6000612b29826040518060400160405280602081526020017f5361666545524332303a206c6f772d6c6576656c2063616c6c206661696c6564815250856001600160a01b0316612cc99092919063ffffffff16565b9050805160001480612b4a575080806020019051810190612b4a9190613d5e565b6128535760405162461bcd60e51b815260206004820152602a60248201527f5361666545524332303a204552433230206f7065726174696f6e20646964206e6044820152691bdd081cdd58d8d9595960b21b60648201526084016107c2565b6000612bb6826014613ae8565b83511015612bfe5760405162461bcd60e51b8152602060048201526015602482015274746f416464726573735f6f75744f66426f756e647360581b60448201526064016107c2565b500160200151600160601b900490565b6000612c1b826008613ae8565b83511015612c625760405162461bcd60e51b8152602060048201526014602482015273746f55696e7436345f6f75744f66426f756e647360601b60448201526064016107c2565b50016008015190565b6000612c78826020613ae8565b83511015612cc05760405162461bcd60e51b8152602060048201526015602482015274746f427974657333325f6f75744f66426f756e647360581b60448201526064016107c2565b50016020015190565b60606117c1848460008585600080866001600160a01b03168587604051612cf09190613afb565b60006040518083038185875af1925050503d8060008114612d2d576040519150601f19603f3d011682016040523d82523d6000602084013e612d32565b606091505b5091509150612d4387838387612d4e565b979650505050505050565b60608315612dbb578251600003612db457612d68856129f9565b612db45760405162461bcd60e51b815260206004820152601d60248201527f416464726573733a2063616c6c20746f206e6f6e2d636f6e747261637400000060448201526064016107c2565b50816117c1565b6117c18383815115612dd05781518083602001fd5b8060405162461bcd60e51b81526004016107c29190613226565b803561ffff81168114612dfc57600080fd5b919050565b60008083601f840112612e1357600080fd5b5081356001600160401b03811115612e2a57600080fd5b602083019150836020828501011115612e4257600080fd5b9250929050565b80356001600160401b0381168114612dfc57600080fd5b60008060008060008060808789031215612e7957600080fd5b612e8287612dea565b955060208701356001600160401b0380821115612e9e57600080fd5b612eaa8a838b01612e01565b9097509550859150612ebe60408a01612e49565b94506060890135915080821115612ed457600080fd5b50612ee189828a01612e01565b979a9699509497509295939492505050565b600060208284031215612f0557600080fd5b81356001600160e01b031981168114610bd157600080fd5b600060208284031215612f2f57600080fd5b610bd182612dea565b60008060408385031215612f4b57600080fd5b612f5483612dea565b946020939093013593505050565b801515811461171357600080fd5b60008060008060008060a08789031215612f8957600080fd5b612f9287612dea565b955060208701359450604087013593506060870135612fb081612f62565b925060808701356001600160401b03811115612fcb57600080fd5b612ee189828a01612e01565b600080600060408486031215612fec57600080fd5b612ff584612dea565b925060208401356001600160401b0381111561301057600080fd5b61301c86828701612e01565b9497909650939450505050565b634e487b7160e01b600052604160045260246000fd5b604051601f8201601f191681016001600160401b038111828210171561306757613067613029565b604052919050565b60006001600160401b0382111561308857613088613029565b50601f01601f191660200190565b6000806000606084860312156130ab57600080fd5b6130b484612dea565b925060208401356001600160401b038111156130cf57600080fd5b8401601f810186136130e057600080fd5b80356130f36130ee8261306f565b61303f565b81815287602083850101111561310857600080fd5b8160208401602083013760006020838301015280945050505061312d60408501612e49565b90509250925092565b6001600160a01b038116811461171357600080fd5b60006060828403121561315d57600080fd5b50919050565b600080600080600060a0868803121561317b57600080fd5b853561318681613136565b945061319460208701612dea565b9350604086013592506060860135915060808601356001600160401b038111156131bd57600080fd5b6131c98882890161314b565b9150509295509295909350565b60005b838110156131f15781810151838201526020016131d9565b50506000910152565b600081518084526132128160208601602086016131d6565b601f01601f19169290920160200192915050565b602081526000610bd160208301846131fa565b60008060008060008060008060e0898b03121561325557600080fd5b883561326081613136565b975061326e60208a01612dea565b9650604089013595506060890135945060808901356001600160401b038082111561329857600080fd5b6132a48c838d01612e01565b90965094508491506132b860a08c01612e49565b935060c08b01359150808211156132ce57600080fd5b506132db8b828c0161314b565b9150509295985092959890939650565b600080604083850312156132fe57600080fd5b61330783612dea565b915061331560208401612dea565b90509250929050565b6001600160a01b0391909116815260200190565b600080600080600080600080600060e08a8c03121561335057600080fd5b6133598a612dea565b985060208a0135975060408a0135965060608a01356001600160401b038082111561338357600080fd5b61338f8d838e01612e01565b90985096508691506133a360808d01612e49565b955060a08c013591506133b582612f62565b90935060c08b013590808211156133cb57600080fd5b506133d88c828d01612e01565b915080935050809150509295985092959850929598565b60006020828403121561340157600080fd5b8135610bd181613136565b60008060008060006080868803121561342457600080fd5b61342d86612dea565b945061343b60208701612dea565b93506040860135925060608601356001600160401b0381111561345d57600080fd5b61346988828901612e01565b969995985093965092949392505050565b60008060006060848603121561348f57600080fd5b61349884612dea565b92506134a660208501612dea565b9150604084013590509250925092565b6000806000806000806000806000806101008b8d0312156134d657600080fd5b6134df8b612dea565b995060208b01356001600160401b03808211156134fb57600080fd5b6135078e838f01612e01565b909b50995089915061351b60408e01612e49565b985060608d0135975060808d0135915061353482613136565b90955060a08c0135945060c08c0135908082111561355157600080fd5b5061355e8d828e01612e01565b9150809450508092505060e08b013590509295989b9194979a5092959850565b6000806000806080858703121561359457600080fd5b61359d85612dea565b93506135ab60208601612dea565b925060408501356135bb81613136565b9396929550929360600135925050565b600181811c908216806135df57607f821691505b60208210810361315d57634e487b7160e01b600052602260045260246000fd5b8183823760009101908152919050565b81835281816020850137506000828201602090810191909152601f909101601f19169091010190565b61ffff841681526040602082015260006117be60408301848661360f565b6000808335601e1984360301811261366d57600080fd5b8301803591506001600160401b0382111561368757600080fd5b602001915036819003821315612e4257600080fd5b6000602082840312156136ae57600080fd5b5051919050565b634e487b7160e01b600052601160045260246000fd5b818103818111156109b0576109b06136b5565b8284823760609190911b6001600160601b0319169101908152601401919050565b601f82111561285357600081815260208120601f850160051c810160208610156137265750805b601f850160051c820191505b81811015610d3257828155600101613732565b600019600383901b1c191660019190911b1790565b81516001600160401b0381111561377357613773613029565b6137878161378184546135cb565b846136ff565b602080601f8311600181146137b657600084156137a45750858301515b6137ae8582613745565b865550610d32565b600085815260208120601f198616915b828110156137e5578886015182559484019460019091019084016137c6565b50858210156138035787850151600019600388901b60f8161c191681555b5050505050600190811b01905550565b600061ffff808816835280871660208401525084604083015260806060830152612d4360808301848661360f565b61ffff8616815260806020820152600061385f60808301868861360f565b6001600160401b0394909416604083015250606001529392505050565b61ffff8916815260c06020820152600061389a60c08301898b61360f565b6001600160401b0388166040840152606083018790526080830186905282810360a08401526138ca81858761360f565b9b9a5050505050505050505050565b6001600160401b038311156138f0576138f0613029565b613904836138fe83546135cb565b836136ff565b6000601f84116001811461393257600085156139205750838201355b61392a8682613745565b845550610a38565b600083815260209020601f19861690835b828110156139635786850135825560209485019460019092019101613943565b50868210156139805760001960f88860031b161c19848701351681555b505060018560011b0183555050505050565b6000602082840312156139a457600080fd5b81516001600160401b038111156139ba57600080fd5b8201601f810184136139cb57600080fd5b80516139d96130ee8261306f565b8181528560208385010111156139ee57600080fd5b611f448260208301602086016131d6565b61ffff85168152608060208201526000613a1c60808301866131fa565b6001600160401b03851660408401528281036060840152612d4381856131fa565b61ffff861681526001600160a01b038516602082015260a060408201819052600090613a6b908301866131fa565b84151560608401528281036080840152613a8581856131fa565b98975050505050505050565b60008060408385031215613aa457600080fd5b505080516020909101519092909150565b60208082526019908201527813d19510dbdc994e88185b5bdd5b9d081d1bdbc81cdb585b1b603a1b604082015260600190565b808201808211156109b0576109b06136b5565b60008251613b0d8184602087016131d6565b9190910192915050565b61ffff8616815260a060208201526000613b3460a08301876131fa565b6001600160401b03861660408401528281036060840152613b5581866131fa565b90508281036080840152613a8581856131fa565b634e487b7160e01b600052601260045260246000fd5b600082613b8e57613b8e613b69565b500490565b600061010061ffff8b168352806020840152613bb18184018b6131fa565b6001600160401b038a166040850152606084018990526001600160a01b038816608085015260a0840187905283810360c08501529050613bf181866131fa565b9150508260e08301529998505050505050505050565b606081526000613c1a60608301866131fa565b6001600160401b039490941660208301525060400152919050565b600082613c4457613c44613b69565b500690565b61ffff8716815260c060208201526000613c6660c08301886131fa565b8281036040840152613c7881886131fa565b6001600160a01b0387811660608601528616608085015283810360a08501529050613ca381856131fa565b9998505050505050505050565b6001600160f81b031960f888901b168152600181018690526001600160c01b031960c086811b821660218401526029830186905284901b1660498201528151600090613d038160518501602087016131d6565b91909101605101979650505050505050565b60208082526018908201527713d19510dbdc994e881a5b9d985b1a59081c185e5b1bd85960421b604082015260600190565b80820281158282048414176109b0576109b06136b5565b600060208284031215613d7057600080fd5b8151610bd181612f6256fed81fc9b8523134ed613870ed029d6170cbb73aa6a6bc311b9a642689fb9df59abf551ec93859b170f9b2141bd9298bf3f64322c6f7beb2543a0cb669834118bfa2646970667358221220ee68cb6d1210fe0ae80b23bc9a9585476771c6a1f05d7359a9710c91801c8e8364736f6c63430008110033",
  "devdoc": {
    "kind": "dev",
    "methods": {
      "circulatingSupply()": {
        "details": "returns the circulating amount of tokens on current chain"
      },
      "estimateSendFee(uint16,bytes32,uint256,bool,bytes)": {
        "details": "estimate send token `_tokenId` to (`_dstChainId`, `_toAddress`) _dstChainId - L0 defined chain id to send tokens too _toAddress - dynamic bytes array which contains the address to whom you are sending tokens to on the dstChain _amount - amount of the tokens to transfer _useZro - indicates to use zro to pay L0 fees _adapterParam - flexible bytes array to indicate messaging adapter services in L0"
      },
      "owner()": {
        "details": "Returns the address of the current owner."
      },
      "renounceOwnership()": {
        "details": "Leaves the contract without owner. It will not be possible to call `onlyOwner` functions. Can only be called by the current owner. NOTE: Renouncing ownership will leave the contract without an owner, thereby disabling any functionality that is only available to the owner."
      },
      "sendFrom(address,uint16,bytes32,uint256,(address,address,bytes))": {
        "details": "send `_amount` amount of token to (`_dstChainId`, `_toAddress`) from `_from` `_from` the owner of token `_dstChainId` the destination chain identifier `_toAddress` can be any size depending on the `dstChainId`. `_amount` the quantity of tokens in wei `_refundAddress` the address LayerZero refunds if too much message fee is sent `_zroPaymentAddress` set to address(0x0) if not paying in ZRO (LayerZero Token) `_adapterParams` is a flexible bytes array to indicate messaging adapter services"
      },
      "token()": {
        "details": "returns the address of the ERC20 token"
      },
      "transferOwnership(address)": {
        "details": "Transfers ownership of the contract to a new account (`newOwner`). Can only be called by the current owner."
      }
    },
    "version": 1
  },
  "userdoc": {
    "kind": "user",
    "methods": {},
    "version": 1
  },
  "storageLayout": {
    "storage": [
      {
        "astId": 2672,
        "contract": "contracts/token/PrimeBridge.sol:PrimeBridge",
        "label": "_owner",
        "offset": 0,
        "slot": "0",
        "type": "t_address"
      },
      {
        "astId": 455,
        "contract": "contracts/token/PrimeBridge.sol:PrimeBridge",
        "label": "trustedRemoteLookup",
        "offset": 0,
        "slot": "1",
        "type": "t_mapping(t_uint16,t_bytes_storage)"
      },
      {
        "astId": 461,
        "contract": "contracts/token/PrimeBridge.sol:PrimeBridge",
        "label": "minDstGasLookup",
        "offset": 0,
        "slot": "2",
        "type": "t_mapping(t_uint16,t_mapping(t_uint16,t_uint256))"
      },
      {
        "astId": 465,
        "contract": "contracts/token/PrimeBridge.sol:PrimeBridge",
        "label": "payloadSizeLimitLookup",
        "offset": 0,
        "slot": "3",
        "type": "t_mapping(t_uint16,t_uint256)"
      },
      {
        "astId": 467,
        "contract": "contracts/token/PrimeBridge.sol:PrimeBridge",
        "label": "precrime",
        "offset": 0,
        "slot": "4",
        "type": "t_address"
      },
      {
        "astId": 997,
        "contract": "contracts/token/PrimeBridge.sol:PrimeBridge",
        "label": "failedMessages",
        "offset": 0,
        "slot": "5",
        "type": "t_mapping(t_uint16,t_mapping(t_bytes_memory_ptr,t_mapping(t_uint64,t_bytes32)))"
      },
      {
        "astId": 1618,
        "contract": "contracts/token/PrimeBridge.sol:PrimeBridge",
        "label": "creditedPackets",
        "offset": 0,
        "slot": "6",
        "type": "t_mapping(t_uint16,t_mapping(t_bytes_memory_ptr,t_mapping(t_uint64,t_bool)))"
      },
      {
        "astId": 3673,
        "contract": "contracts/token/PrimeBridge.sol:PrimeBridge",
        "label": "outboundAmount",
        "offset": 0,
        "slot": "7",
        "type": "t_uint256"
      }
    ],
    "types": {
      "t_address": {
        "encoding": "inplace",
        "label": "address",
        "numberOfBytes": "20"
      },
      "t_bool": {
        "encoding": "inplace",
        "label": "bool",
        "numberOfBytes": "1"
      },
      "t_bytes32": {
        "encoding": "inplace",
        "label": "bytes32",
        "numberOfBytes": "32"
      },
      "t_bytes_memory_ptr": {
        "encoding": "bytes",
        "label": "bytes",
        "numberOfBytes": "32"
      },
      "t_bytes_storage": {
        "encoding": "bytes",
        "label": "bytes",
        "numberOfBytes": "32"
      },
      "t_mapping(t_bytes_memory_ptr,t_mapping(t_uint64,t_bool))": {
        "encoding": "mapping",
        "key": "t_bytes_memory_ptr",
        "label": "mapping(bytes => mapping(uint64 => bool))",
        "numberOfBytes": "32",
        "value": "t_mapping(t_uint64,t_bool)"
      },
      "t_mapping(t_bytes_memory_ptr,t_mapping(t_uint64,t_bytes32))": {
        "encoding": "mapping",
        "key": "t_bytes_memory_ptr",
        "label": "mapping(bytes => mapping(uint64 => bytes32))",
        "numberOfBytes": "32",
        "value": "t_mapping(t_uint64,t_bytes32)"
      },
      "t_mapping(t_uint16,t_bytes_storage)": {
        "encoding": "mapping",
        "key": "t_uint16",
        "label": "mapping(uint16 => bytes)",
        "numberOfBytes": "32",
        "value": "t_bytes_storage"
      },
      "t_mapping(t_uint16,t_mapping(t_bytes_memory_ptr,t_mapping(t_uint64,t_bool)))": {
        "encoding": "mapping",
        "key": "t_uint16",
        "label": "mapping(uint16 => mapping(bytes => mapping(uint64 => bool)))",
        "numberOfBytes": "32",
        "value": "t_mapping(t_bytes_memory_ptr,t_mapping(t_uint64,t_bool))"
      },
      "t_mapping(t_uint16,t_mapping(t_bytes_memory_ptr,t_mapping(t_uint64,t_bytes32)))": {
        "encoding": "mapping",
        "key": "t_uint16",
        "label": "mapping(uint16 => mapping(bytes => mapping(uint64 => bytes32)))",
        "numberOfBytes": "32",
        "value": "t_mapping(t_bytes_memory_ptr,t_mapping(t_uint64,t_bytes32))"
      },
      "t_mapping(t_uint16,t_mapping(t_uint16,t_uint256))": {
        "encoding": "mapping",
        "key": "t_uint16",
        "label": "mapping(uint16 => mapping(uint16 => uint256))",
        "numberOfBytes": "32",
        "value": "t_mapping(t_uint16,t_uint256)"
      },
      "t_mapping(t_uint16,t_uint256)": {
        "encoding": "mapping",
        "key": "t_uint16",
        "label": "mapping(uint16 => uint256)",
        "numberOfBytes": "32",
        "value": "t_uint256"
      },
      "t_mapping(t_uint64,t_bool)": {
        "encoding": "mapping",
        "key": "t_uint64",
        "label": "mapping(uint64 => bool)",
        "numberOfBytes": "32",
        "value": "t_bool"
      },
      "t_mapping(t_uint64,t_bytes32)": {
        "encoding": "mapping",
        "key": "t_uint64",
        "label": "mapping(uint64 => bytes32)",
        "numberOfBytes": "32",
        "value": "t_bytes32"
      },
      "t_uint16": {
        "encoding": "inplace",
        "label": "uint16",
        "numberOfBytes": "2"
      },
      "t_uint256": {
        "encoding": "inplace",
        "label": "uint256",
        "numberOfBytes": "32"
      },
      "t_uint64": {
        "encoding": "inplace",
        "label": "uint64",
        "numberOfBytes": "8"
      }
    }
  }
}