{
  "address": "0x881fa171A7b5bf5c84d213043037ab867ce4688c",
  "abi": [
    {
      "inputs": [
        {
          "internalType": "address",
          "name": "primeToken_",
          "type": "address"
        },
        {
          "internalType": "uint256",
          "name": "startTime_",
          "type": "uint256"
        }
      ],
      "stateMutability": "nonpayable",
      "type": "constructor"
    },
    {
      "inputs": [],
      "name": "AlreadyInitialized",
      "type": "error"
    },
    {
      "inputs": [],
      "name": "InputLengthMismatch",
      "type": "error"
    },
    {
      "inputs": [],
      "name": "InsufficientAllowance",
      "type": "error"
    },
    {
      "inputs": [],
      "name": "InsufficientBalance",
      "type": "error"
    },
    {
      "inputs": [],
      "name": "InvalidAddress",
      "type": "error"
    },
    {
      "inputs": [],
      "name": "InvalidStartTime",
      "type": "error"
    },
    {
      "inputs": [],
      "name": "InvalidVestingPeriod",
      "type": "error"
    },
    {
      "inputs": [],
      "name": "NotInitialized",
      "type": "error"
    },
    {
      "inputs": [],
      "name": "NothingToClaim",
      "type": "error"
    },
    {
      "inputs": [],
      "name": "Unauthorized",
      "type": "error"
    },
    {
      "inputs": [],
      "name": "UserExists",
      "type": "error"
    },
    {
      "inputs": [],
      "name": "VestingAlreadyStarted",
      "type": "error"
    },
    {
      "inputs": [],
      "name": "ZeroClaimAmount",
      "type": "error"
    },
    {
      "anonymous": false,
      "inputs": [
        {
          "indexed": true,
          "internalType": "address",
          "name": "user",
          "type": "address"
        },
        {
          "indexed": true,
          "internalType": "address",
          "name": "claimant",
          "type": "address"
        },
        {
          "indexed": true,
          "internalType": "uint256",
          "name": "amount",
          "type": "uint256"
        },
        {
          "indexed": false,
          "internalType": "uint256",
          "name": "timestamp",
          "type": "uint256"
        }
      ],
      "name": "Claimed",
      "type": "event"
    },
    {
      "anonymous": false,
      "inputs": [
        {
          "indexed": true,
          "internalType": "address",
          "name": "previousOwner",
          "type": "address"
        },
        {
          "indexed": true,
          "internalType": "address",
          "name": "newOwner",
          "type": "address"
        }
      ],
      "name": "OwnershipTransferred",
      "type": "event"
    },
    {
      "anonymous": false,
      "inputs": [
        {
          "indexed": true,
          "internalType": "address",
          "name": "user",
          "type": "address"
        },
        {
          "indexed": true,
          "internalType": "uint256",
          "name": "totalAmount",
          "type": "uint256"
        },
        {
          "indexed": false,
          "internalType": "uint256",
          "name": "cliffPeriod",
          "type": "uint256"
        },
        {
          "indexed": false,
          "internalType": "uint256",
          "name": "vestingPeriod",
          "type": "uint256"
        },
        {
          "indexed": false,
          "internalType": "uint256",
          "name": "timestamp",
          "type": "uint256"
        }
      ],
      "name": "VestingUserAdded",
      "type": "event"
    },
    {
      "inputs": [],
      "name": "claim",
      "outputs": [],
      "stateMutability": "nonpayable",
      "type": "function"
    },
    {
      "inputs": [
        {
          "internalType": "address",
          "name": "user",
          "type": "address"
        }
      ],
      "name": "claimFor",
      "outputs": [],
      "stateMutability": "nonpayable",
      "type": "function"
    },
    {
      "inputs": [
        {
          "internalType": "address",
          "name": "user",
          "type": "address"
        },
        {
          "internalType": "uint256",
          "name": "amount",
          "type": "uint256"
        }
      ],
      "name": "claimForWithAmount",
      "outputs": [],
      "stateMutability": "nonpayable",
      "type": "function"
    },
    {
      "inputs": [
        {
          "internalType": "uint256",
          "name": "amount",
          "type": "uint256"
        }
      ],
      "name": "claimWithAmount",
      "outputs": [],
      "stateMutability": "nonpayable",
      "type": "function"
    },
    {
      "inputs": [
        {
          "internalType": "address",
          "name": "user",
          "type": "address"
        }
      ],
      "name": "claimable",
      "outputs": [
        {
          "internalType": "uint256",
          "name": "",
          "type": "uint256"
        }
      ],
      "stateMutability": "view",
      "type": "function"
    },
    {
      "inputs": [
        {
          "internalType": "address[]",
          "name": "users_",
          "type": "address[]"
        },
        {
          "components": [
            {
              "internalType": "uint32",
              "name": "cliffPeriod",
              "type": "uint32"
            },
            {
              "internalType": "uint32",
              "name": "vestingPeriod",
              "type": "uint32"
            },
            {
              "internalType": "address",
              "name": "grantClaimRightTo",
              "type": "address"
            },
            {
              "internalType": "uint256",
              "name": "totalAmount",
              "type": "uint256"
            }
          ],
          "internalType": "struct PrimeVesting.VestingInfo[]",
          "name": "vestingInfos_",
          "type": "tuple[]"
        },
        {
          "internalType": "bool",
          "name": "isLastBatch",
          "type": "bool"
        }
      ],
      "name": "initializeVesting",
      "outputs": [],
      "stateMutability": "nonpayable",
      "type": "function"
    },
    {
      "inputs": [],
      "name": "owner",
      "outputs": [
        {
          "internalType": "address",
          "name": "",
          "type": "address"
        }
      ],
      "stateMutability": "view",
      "type": "function"
    },
    {
      "inputs": [],
      "name": "primeToken",
      "outputs": [
        {
          "internalType": "contract IERC20",
          "name": "",
          "type": "address"
        }
      ],
      "stateMutability": "view",
      "type": "function"
    },
    {
      "inputs": [],
      "name": "renounceOwnership",
      "outputs": [],
      "stateMutability": "nonpayable",
      "type": "function"
    },
    {
      "inputs": [],
      "name": "sendTokensToVesting",
      "outputs": [],
      "stateMutability": "nonpayable",
      "type": "function"
    },
    {
      "inputs": [],
      "name": "startTime",
      "outputs": [
        {
          "internalType": "uint256",
          "name": "",
          "type": "uint256"
        }
      ],
      "stateMutability": "view",
      "type": "function"
    },
    {
      "inputs": [],
      "name": "totalAmount",
      "outputs": [
        {
          "internalType": "uint256",
          "name": "",
          "type": "uint256"
        }
      ],
      "stateMutability": "view",
      "type": "function"
    },
    {
      "inputs": [
        {
          "internalType": "address",
          "name": "newOwner",
          "type": "address"
        }
      ],
      "name": "transferOwnership",
      "outputs": [],
      "stateMutability": "nonpayable",
      "type": "function"
    },
    {
      "inputs": [
        {
          "internalType": "address",
          "name": "",
          "type": "address"
        }
      ],
      "name": "userInfos",
      "outputs": [
        {
          "components": [
            {
              "internalType": "uint32",
              "name": "cliffPeriod",
              "type": "uint32"
            },
            {
              "internalType": "uint32",
              "name": "vestingPeriod",
              "type": "uint32"
            },
            {
              "internalType": "address",
              "name": "grantClaimRightTo",
              "type": "address"
            },
            {
              "internalType": "uint256",
              "name": "totalAmount",
              "type": "uint256"
            }
          ],
          "internalType": "struct PrimeVesting.VestingInfo",
          "name": "info",
          "type": "tuple"
        },
        {
          "internalType": "uint256",
          "name": "claimed",
          "type": "uint256"
        }
      ],
      "stateMutability": "view",
      "type": "function"
    },
    {
      "inputs": [],
      "name": "vestingInitialized",
      "outputs": [
        {
          "internalType": "bool",
          "name": "",
          "type": "bool"
        }
      ],
      "stateMutability": "view",
      "type": "function"
    }
  ],
  "transactionHash": "0x54c8ff026348c1e7438fc8c99d556ab48b4ddcc392ac4d4e5929d2218ee722b2",
  "args": [
    "0x33C8036E99082B0C395374832FECF70c42C7F298",
    1719853200
  ],
  "numDeployments": 1,
  "solcInputHash": "a9f111f5427ac91540e0f38f0c98066c",
  "bytecode": "0x60c060405234801561001057600080fd5b5060405161148f38038061148f83398101604081905261002f916100ea565b6100383361009a565b600180554281101561005d57604051632ca4094f60e21b815260040160405180910390fd5b6001600160a01b0382166100845760405163e6c4247b60e01b815260040160405180910390fd5b6001600160a01b0390911660805260a052610124565b600080546001600160a01b038381166001600160a01b0319831681178455604051919092169283917f8be0079c531659141344cd1fd0a4f28419497f9722a3daafe3b4186f6b6457e09190a35050565b600080604083850312156100fd57600080fd5b82516001600160a01b038116811461011457600080fd5b6020939093015192949293505050565b60805160a05161131c610173600039600081816101f90152818161073301526108ff015260008181610289015281816105b90152818161066f015281816107890152610ad7015261131c6000f3fe608060405234801561001057600080fd5b50600436106100c55760003560e01c80631a39d8ef146100ca57806329ad504f146100e6578063402914f5146100fb57806343b0215f1461010e5780634e71d92d146101c7578063715018a6146101cf578063721d3f7c146101d757806378e97925146101f45780638da5cb5b1461021b578063a4557a1114610230578063a8ed0c0614610243578063ddeae0331461024b578063e2c153781461025e578063f2fde38b14610271578063fe5a451a14610284575b600080fd5b6100d360025481565b6040519081526020015b60405180910390f35b6100f96100f4366004611058565b6102ab565b005b6100d3610109366004611127565b61050a565b61017c61011c366004611127565b6004602090815260009182526040918290208251608081018452815463ffffffff8082168352600160201b82041693820193909352600160401b9092046001600160a01b0316928201929092526001820154606082015260029091015482565b60408051835163ffffffff908116825260208086015190911690820152838201516001600160a01b03169181019190915260609283015192810192909252608082015260a0016100dd565b6100f961051b565b6100f9610541565b6003546101e49060ff1681565b60405190151581526020016100dd565b6100d37f000000000000000000000000000000000000000000000000000000000000000081565b610223610553565b6040516100dd9190611142565b6100f961023e366004611156565b610562565b6100f9610581565b6100f9610259366004611127565b6107b2565b6100f961026c36600461116f565b6107c8565b6100f961027f366004611127565b6107e8565b6102237f000000000000000000000000000000000000000000000000000000000000000081565b6102b3610863565b60035460ff16156102d65760405162dc149f60e41b815260040160405180910390fd5b81518351146102f85760405163aaad13f760e01b815260040160405180910390fd5b8251600090815b8181146104d757600086828151811061031a5761031a611199565b6020026020010151905060006001600160a01b0316816001600160a01b0316036103575760405163e6c4247b60e01b815260040160405180910390fd5b85828151811061036957610369611199565b60200260200101516020015163ffffffff1660000361039b5760405163ca6075df60e01b815260040160405180910390fd5b6001600160a01b03811660009081526004602052604090206001810154156103d65760405163877ee34960e01b815260040160405180910390fd5b8683815181106103e8576103e8611199565b602090810291909101810151805183549282015160408301516001600160a01b0316600160401b02600160401b600160e01b031963ffffffff928316600160201b026001600160401b031990961692909316919091179390931716919091178255606001516001820181905561045e90866111c5565b600182015482546040805163ffffffff8084168252600160201b90930490921660208301524290820152919650906001600160a01b038416907f7e182484e259c2dce5375595d9c324ebcce431c378614bd30bf2824bec10010d9060600160405180910390a35050806104d0906111d8565b90506102ff565b5081600260008282546104ea91906111c5565b90915550508215610503576003805460ff191660011790555b5050505050565b6000610515826108c2565b92915050565b6105236109a1565b6105363333610531336108c2565b6109fa565b61053f60018055565b565b610549610863565b61053f6000610b53565b6000546001600160a01b031690565b61056a6109a1565b6105753333836109fa565b61057e60018055565b50565b6105896109a1565b610591610863565b60035460ff166105b4576040516321c4e35760e21b815260040160405180910390fd5b6002547f00000000000000000000000000000000000000000000000000000000000000006001600160a01b03166370a082316105ee610553565b6040518263ffffffff1660e01b815260040161060a9190611142565b602060405180830381865afa158015610627573d6000803e3d6000fd5b505050506040513d601f19601f8201168201806040525081019061064b91906111f1565b101561066a57604051631e9acf1760e31b815260040160405180910390fd5b6002547f00000000000000000000000000000000000000000000000000000000000000006001600160a01b031663dd62ed3e6106a4610553565b6040516001600160e01b031960e084901b1681526001600160a01b039091166004820152306024820152604401602060405180830381865afa1580156106ee573d6000803e3d6000fd5b505050506040513d601f19601f8201168201806040525081019061071291906111f1565b1015610731576040516313be252b60e01b815260040160405180910390fd5b7f00000000000000000000000000000000000000000000000000000000000000004210610771576040516372de7acd60e01b815260040160405180910390fd5b61053661077c610553565b6002546001600160a01b037f00000000000000000000000000000000000000000000000000000000000000001691903090610ba3565b6107ba6109a1565b6105758133610531846108c2565b6107d06109a1565b6107db8233836109fa565b6107e460018055565b5050565b6107f0610863565b6001600160a01b03811661085a5760405162461bcd60e51b815260206004820152602660248201527f4f776e61626c653a206e6577206f776e657220697320746865207a65726f206160448201526564647265737360d01b60648201526084015b60405180910390fd5b61057e81610b53565b3361086c610553565b6001600160a01b03161461053f5760405162461bcd60e51b815260206004820181905260248201527f4f776e61626c653a2063616c6c6572206973206e6f7420746865206f776e65726044820152606401610851565b6001600160a01b0381166000908152600460205260408120600181015482036108ee5750600092915050565b80546000906109239063ffffffff167f00000000000000000000000000000000000000000000000000000000000000006111c5565b9050428110610936575060009392505050565b6000610959610945834261120a565b8454600160201b900463ffffffff16610c14565b6002840154845460018601549293509091600160201b90910463ffffffff169061098490849061121d565b61098e9190611234565b610998919061120a565b95945050505050565b6002600154036109f35760405162461bcd60e51b815260206004820152601f60248201527f5265656e7472616e637947756172643a207265656e7472616e742063616c6c006044820152606401610851565b6002600155565b6001600160a01b03808416600081815260046020526040902091841614801590610a38575080546001600160a01b03848116600160401b9092041614155b15610a55576040516282b42960e81b815260040160405180910390fd5b6000610a60856108c2565b905080600003610a83576040516312d37ee560e31b815260040160405180910390fd5b610a8d8382610c14565b925082600003610ab0576040516360640efd60e11b815260040160405180910390fd5b82826002016000828254610ac491906111c5565b90915550610afe90506001600160a01b037f0000000000000000000000000000000000000000000000000000000000000000168685610c2c565b82846001600160a01b0316866001600160a01b03167f2f6639d24651730c7bf57c95ddbf96d66d11477e4ec626876f92c22e5f365e6842604051610b4491815260200190565b60405180910390a45050505050565b600080546001600160a01b038381166001600160a01b0319831681178455604051919092169283917f8be0079c531659141344cd1fd0a4f28419497f9722a3daafe3b4186f6b6457e09190a35050565b6040516001600160a01b0380851660248301528316604482015260648101829052610c0e9085906323b872dd60e01b906084015b60408051601f198184030181529190526020810180516001600160e01b03166001600160e01b031990931692909217909152610c61565b50505050565b6000818310610c235781610c25565b825b9392505050565b6040516001600160a01b038316602482015260448101829052610c5c90849063a9059cbb60e01b90606401610bd7565b505050565b6000610cb6826040518060400160405280602081526020017f5361666545524332303a206c6f772d6c6576656c2063616c6c206661696c6564815250856001600160a01b0316610d369092919063ffffffff16565b9050805160001480610cd7575080806020019051810190610cd79190611256565b610c5c5760405162461bcd60e51b815260206004820152602a60248201527f5361666545524332303a204552433230206f7065726174696f6e20646964206e6044820152691bdd081cdd58d8d9595960b21b6064820152608401610851565b6060610d458484600085610d4d565b949350505050565b606082471015610dae5760405162461bcd60e51b815260206004820152602660248201527f416464726573733a20696e73756666696369656e742062616c616e636520666f6044820152651c8818d85b1b60d21b6064820152608401610851565b600080866001600160a01b03168587604051610dca9190611297565b60006040518083038185875af1925050503d8060008114610e07576040519150601f19603f3d011682016040523d82523d6000602084013e610e0c565b606091505b5091509150610e1d87838387610e28565b979650505050505050565b60608315610e97578251600003610e90576001600160a01b0385163b610e905760405162461bcd60e51b815260206004820152601d60248201527f416464726573733a2063616c6c20746f206e6f6e2d636f6e74726163740000006044820152606401610851565b5081610d45565b610d458383815115610eac5781518083602001fd5b8060405162461bcd60e51b815260040161085191906112b3565b634e487b7160e01b600052604160045260246000fd5b604051608081016001600160401b0381118282101715610efe57610efe610ec6565b60405290565b604051601f8201601f191681016001600160401b0381118282101715610f2c57610f2c610ec6565b604052919050565b60006001600160401b03821115610f4d57610f4d610ec6565b5060051b60200190565b80356001600160a01b0381168114610f6e57600080fd5b919050565b803563ffffffff81168114610f6e57600080fd5b600082601f830112610f9857600080fd5b81356020610fad610fa883610f34565b610f04565b82815260079290921b84018101918181019086841115610fcc57600080fd5b8286015b848110156110345760808189031215610fe95760008081fd5b610ff1610edc565b610ffa82610f73565b8152611007858301610f73565b858201526040611018818401610f57565b9082015260608281013590820152835291830191608001610fd0565b509695505050505050565b801515811461057e57600080fd5b8035610f6e8161103f565b60008060006060848603121561106d57600080fd5b83356001600160401b038082111561108457600080fd5b818601915086601f83011261109857600080fd5b813560206110a8610fa883610f34565b82815260059290921b8401810191818101908a8411156110c757600080fd5b948201945b838610156110ec576110dd86610f57565b825294820194908201906110cc565b9750508701359250508082111561110257600080fd5b5061110f86828701610f87565b92505061111e6040850161104d565b90509250925092565b60006020828403121561113957600080fd5b610c2582610f57565b6001600160a01b0391909116815260200190565b60006020828403121561116857600080fd5b5035919050565b6000806040838503121561118257600080fd5b61118b83610f57565b946020939093013593505050565b634e487b7160e01b600052603260045260246000fd5b634e487b7160e01b600052601160045260246000fd5b80820180821115610515576105156111af565b6000600182016111ea576111ea6111af565b5060010190565b60006020828403121561120357600080fd5b5051919050565b81810381811115610515576105156111af565b8082028115828204841417610515576105156111af565b60008261125157634e487b7160e01b600052601260045260246000fd5b500490565b60006020828403121561126857600080fd5b8151610c258161103f565b60005b8381101561128e578181015183820152602001611276565b50506000910152565b600082516112a9818460208701611273565b9190910192915050565b60208152600082518060208401526112d2816040850160208701611273565b601f01601f1916919091016040019291505056fea26469706673582212208019c9dca1d11c70f09f11b9dc6b47e5491d7a5b3fd3601c7f9fd843923119f364736f6c63430008110033",
  "devdoc": {
    "details": "Contract distributing PRIME among vesting participants.",
    "errors": {
      "AlreadyInitialized()": [
        {
          "details": "Vesting already initialized"
        }
      ],
      "InputLengthMismatch()": [
        {
          "details": "Input array lengths do not match"
        }
      ],
      "InsufficientAllowance()": [
        {
          "details": "Insufficient allowance"
        }
      ],
      "InsufficientBalance()": [
        {
          "details": "Insufficient balance"
        }
      ],
      "InvalidAddress()": [
        {
          "details": "Invalid address"
        }
      ],
      "InvalidStartTime()": [
        {
          "details": "Invalid vesting start time"
        }
      ],
      "InvalidVestingPeriod()": [
        {
          "details": "Invalid vesting period"
        }
      ],
      "NotInitialized()": [
        {
          "details": "Vesting not initialized"
        }
      ],
      "NothingToClaim()": [
        {
          "details": "No claim available"
        }
      ],
      "Unauthorized()": [
        {
          "details": "Trying to claim from unautorized account"
        }
      ],
      "UserExists()": [
        {
          "details": "User already exists"
        }
      ],
      "VestingAlreadyStarted()": [
        {
          "details": "Vesting already started"
        }
      ],
      "ZeroClaimAmount()": [
        {
          "details": "Trying to claim 0 amount"
        }
      ]
    },
    "kind": "dev",
    "methods": {
      "owner()": {
        "details": "Returns the address of the current owner."
      },
      "renounceOwnership()": {
        "details": "Leaves the contract without owner. It will not be possible to call `onlyOwner` functions. Can only be called by the current owner. NOTE: Renouncing ownership will leave the contract without an owner, thereby disabling any functionality that is only available to the owner."
      },
      "transferOwnership(address)": {
        "details": "Transfers ownership of the contract to a new account (`newOwner`). Can only be called by the current owner."
      }
    },
    "title": "PRIME vesting contract",
    "version": 1
  },
  "userdoc": {
    "events": {
      "Claimed(address,address,uint256,uint256)": {
        "notice": "Events"
      }
    },
    "kind": "user",
    "methods": {
      "claim()": {
        "notice": "Public functions"
      },
      "constructor": {
        "notice": "Constructor"
      }
    },
    "version": 1
  },
  "storageLayout": {
    "storage": [
      {
        "astId": 7,
        "contract": "contracts/PrimeVesting.sol:PrimeVesting",
        "label": "_owner",
        "offset": 0,
        "slot": "0",
        "type": "t_address"
      },
      {
        "astId": 123,
        "contract": "contracts/PrimeVesting.sol:PrimeVesting",
        "label": "_status",
        "offset": 0,
        "slot": "1",
        "type": "t_uint256"
      },
      {
        "astId": 1923,
        "contract": "contracts/PrimeVesting.sol:PrimeVesting",
        "label": "totalAmount",
        "offset": 0,
        "slot": "2",
        "type": "t_uint256"
      },
      {
        "astId": 1925,
        "contract": "contracts/PrimeVesting.sol:PrimeVesting",
        "label": "vestingInitialized",
        "offset": 0,
        "slot": "3",
        "type": "t_bool"
      },
      {
        "astId": 1930,
        "contract": "contracts/PrimeVesting.sol:PrimeVesting",
        "label": "userInfos",
        "offset": 0,
        "slot": "4",
        "type": "t_mapping(t_address,t_struct(UserInfo)1916_storage)"
      }
    ],
    "types": {
      "t_address": {
        "encoding": "inplace",
        "label": "address",
        "numberOfBytes": "20"
      },
      "t_bool": {
        "encoding": "inplace",
        "label": "bool",
        "numberOfBytes": "1"
      },
      "t_mapping(t_address,t_struct(UserInfo)1916_storage)": {
        "encoding": "mapping",
        "key": "t_address",
        "label": "mapping(address => struct PrimeVesting.UserInfo)",
        "numberOfBytes": "32",
        "value": "t_struct(UserInfo)1916_storage"
      },
      "t_struct(UserInfo)1916_storage": {
        "encoding": "inplace",
        "label": "struct PrimeVesting.UserInfo",
        "members": [
          {
            "astId": 1913,
            "contract": "contracts/PrimeVesting.sol:PrimeVesting",
            "label": "info",
            "offset": 0,
            "slot": "0",
            "type": "t_struct(VestingInfo)1910_storage"
          },
          {
            "astId": 1915,
            "contract": "contracts/PrimeVesting.sol:PrimeVesting",
            "label": "claimed",
            "offset": 0,
            "slot": "2",
            "type": "t_uint256"
          }
        ],
        "numberOfBytes": "96"
      },
      "t_struct(VestingInfo)1910_storage": {
        "encoding": "inplace",
        "label": "struct PrimeVesting.VestingInfo",
        "members": [
          {
            "astId": 1903,
            "contract": "contracts/PrimeVesting.sol:PrimeVesting",
            "label": "cliffPeriod",
            "offset": 0,
            "slot": "0",
            "type": "t_uint32"
          },
          {
            "astId": 1905,
            "contract": "contracts/PrimeVesting.sol:PrimeVesting",
            "label": "vestingPeriod",
            "offset": 4,
            "slot": "0",
            "type": "t_uint32"
          },
          {
            "astId": 1907,
            "contract": "contracts/PrimeVesting.sol:PrimeVesting",
            "label": "grantClaimRightTo",
            "offset": 8,
            "slot": "0",
            "type": "t_address"
          },
          {
            "astId": 1909,
            "contract": "contracts/PrimeVesting.sol:PrimeVesting",
            "label": "totalAmount",
            "offset": 0,
            "slot": "1",
            "type": "t_uint256"
          }
        ],
        "numberOfBytes": "64"
      },
      "t_uint256": {
        "encoding": "inplace",
        "label": "uint256",
        "numberOfBytes": "32"
      },
      "t_uint32": {
        "encoding": "inplace",
        "label": "uint32",
        "numberOfBytes": "4"
      }
    }
  }
}