{
  "address": "0x86122ca8A19bb33B937030Cb227955861B910e29",
  "abi": [
    {
      "inputs": [
        {
          "internalType": "address",
          "name": "primeToken_",
          "type": "address"
        },
        {
          "internalType": "uint256",
          "name": "startTime_",
          "type": "uint256"
        },
        {
          "internalType": "address[]",
          "name": "users_",
          "type": "address[]"
        },
        {
          "components": [
            {
              "internalType": "uint32",
              "name": "cliffPeriod",
              "type": "uint32"
            },
            {
              "internalType": "uint32",
              "name": "vestingPeriod",
              "type": "uint32"
            },
            {
              "internalType": "address",
              "name": "grantClaimRightTo",
              "type": "address"
            },
            {
              "internalType": "uint256",
              "name": "totalAmount",
              "type": "uint256"
            }
          ],
          "internalType": "struct PrimeVesting.VestingInfo[]",
          "name": "vestingInfos_",
          "type": "tuple[]"
        }
      ],
      "stateMutability": "nonpayable",
      "type": "constructor"
    },
    {
      "inputs": [],
      "name": "InputLengthMismatch",
      "type": "error"
    },
    {
      "inputs": [],
      "name": "InvalidAddress",
      "type": "error"
    },
    {
      "inputs": [],
      "name": "InvalidStartTime",
      "type": "error"
    },
    {
      "inputs": [],
      "name": "NothingToClaim",
      "type": "error"
    },
    {
      "inputs": [],
      "name": "Unauthorized",
      "type": "error"
    },
    {
      "inputs": [],
      "name": "ZeroClaimAmount",
      "type": "error"
    },
    {
      "anonymous": false,
      "inputs": [
        {
          "indexed": true,
          "internalType": "address",
          "name": "user",
          "type": "address"
        },
        {
          "indexed": true,
          "internalType": "address",
          "name": "claimant",
          "type": "address"
        },
        {
          "indexed": true,
          "internalType": "uint256",
          "name": "amount",
          "type": "uint256"
        },
        {
          "indexed": false,
          "internalType": "uint256",
          "name": "timestamp",
          "type": "uint256"
        }
      ],
      "name": "Claimed",
      "type": "event"
    },
    {
      "anonymous": false,
      "inputs": [
        {
          "indexed": true,
          "internalType": "address",
          "name": "previousOwner",
          "type": "address"
        },
        {
          "indexed": true,
          "internalType": "address",
          "name": "newOwner",
          "type": "address"
        }
      ],
      "name": "OwnershipTransferred",
      "type": "event"
    },
    {
      "inputs": [
        {
          "internalType": "uint256",
          "name": "amount",
          "type": "uint256"
        }
      ],
      "name": "claim",
      "outputs": [],
      "stateMutability": "nonpayable",
      "type": "function"
    },
    {
      "inputs": [
        {
          "internalType": "address",
          "name": "user",
          "type": "address"
        },
        {
          "internalType": "uint256",
          "name": "amount",
          "type": "uint256"
        }
      ],
      "name": "claimFor",
      "outputs": [],
      "stateMutability": "nonpayable",
      "type": "function"
    },
    {
      "inputs": [
        {
          "internalType": "address",
          "name": "user",
          "type": "address"
        }
      ],
      "name": "claimable",
      "outputs": [
        {
          "internalType": "uint256",
          "name": "",
          "type": "uint256"
        }
      ],
      "stateMutability": "view",
      "type": "function"
    },
    {
      "inputs": [],
      "name": "owner",
      "outputs": [
        {
          "internalType": "address",
          "name": "",
          "type": "address"
        }
      ],
      "stateMutability": "view",
      "type": "function"
    },
    {
      "inputs": [],
      "name": "primeToken",
      "outputs": [
        {
          "internalType": "contract IERC20",
          "name": "",
          "type": "address"
        }
      ],
      "stateMutability": "view",
      "type": "function"
    },
    {
      "inputs": [],
      "name": "renounceOwnership",
      "outputs": [],
      "stateMutability": "nonpayable",
      "type": "function"
    },
    {
      "inputs": [],
      "name": "startTime",
      "outputs": [
        {
          "internalType": "uint256",
          "name": "",
          "type": "uint256"
        }
      ],
      "stateMutability": "view",
      "type": "function"
    },
    {
      "inputs": [
        {
          "internalType": "address",
          "name": "newOwner",
          "type": "address"
        }
      ],
      "name": "transferOwnership",
      "outputs": [],
      "stateMutability": "nonpayable",
      "type": "function"
    },
    {
      "inputs": [
        {
          "internalType": "address",
          "name": "",
          "type": "address"
        }
      ],
      "name": "userInfos",
      "outputs": [
        {
          "components": [
            {
              "internalType": "uint32",
              "name": "cliffPeriod",
              "type": "uint32"
            },
            {
              "internalType": "uint32",
              "name": "vestingPeriod",
              "type": "uint32"
            },
            {
              "internalType": "address",
              "name": "grantClaimRightTo",
              "type": "address"
            },
            {
              "internalType": "uint256",
              "name": "totalAmount",
              "type": "uint256"
            }
          ],
          "internalType": "struct PrimeVesting.VestingInfo",
          "name": "info",
          "type": "tuple"
        },
        {
          "internalType": "uint256",
          "name": "claimed",
          "type": "uint256"
        }
      ],
      "stateMutability": "view",
      "type": "function"
    }
  ],
  "transactionHash": "0x370087f3efec04b9d1d5b8ead8c9219bf5d4a729e6e92a330f02f42ab011fe84",
  "args": [
    "0x8B1e2420e0d453a718d4b70e3a043263Eab77851",
    1719522000,
    [
      "0x003E3336764DE10a898916B84C626B69D7294339",
      "0xFC078F7ea5c7648CD78E0cA40799B6d2090f83Dd",
      "0x72bf67eCBaaB144a84Fb4a81f011Cd27b3cF05a1",
      "0xE214fba86BeED196AaC68934bF4822C1Cff6B0b8"
    ],
    [
      {
        "cliffPeriod": 21600,
        "vestingPeriod": 172800,
        "grantClaimRightTo": "0x0000000000000000000000000000000000000000",
        "totalAmount": "999000000000000000000"
      },
      {
        "cliffPeriod": 0,
        "vestingPeriod": 259200,
        "grantClaimRightTo": "0x83C3c4B58b70067BFb23B7875FEb63241F9e7668",
        "totalAmount": "12345000000000000000000"
      },
      {
        "cliffPeriod": 7200,
        "vestingPeriod": 172800,
        "grantClaimRightTo": "0x0000000000000000000000000000000000000000",
        "totalAmount": "40000000000000000000000"
      },
      {
        "cliffPeriod": 28800,
        "vestingPeriod": 259200,
        "grantClaimRightTo": "0xC29ee4509F01e3534307645Fc62F30Da3Ec65751",
        "totalAmount": "2137000000000000000000"
      }
    ]
  ],
  "numDeployments": 1,
  "solcInputHash": "c0d3afd4307eff306b88804ef593929e",
  "bytecode": "0x60c06040523480156200001157600080fd5b5060405162000f6838038062000f688339810160408190526200003491620003c5565b6200003f33620001e0565b8051825114620000625760405163aaad13f760e01b815260040160405180910390fd5b428310156200008457604051632ca4094f60e21b815260040160405180910390fd5b6001600160a01b038416620000ac5760405163e6c4247b60e01b815260040160405180910390fd5b6001600160a01b03841660805260a0839052815160005b818114620001d4576000848281518110620000e257620000e2620004b3565b6020026020010151905060006001600160a01b0316816001600160a01b031603620001205760405163e6c4247b60e01b815260040160405180910390fd5b6001600160a01b038116600090815260016020526040902084518590849081106200014f576200014f620004b3565b602090810291909101810151805183549282015160408301516001600160a01b03166801000000000000000002600160401b600160e01b031963ffffffff928316640100000000026001600160401b0319909616929093169190911793909317169190911782556060015160019091015550620001cc81620004c9565b9050620000c3565b505050505050620004f1565b600080546001600160a01b038381166001600160a01b0319831681178455604051919092169283917f8be0079c531659141344cd1fd0a4f28419497f9722a3daafe3b4186f6b6457e09190a35050565b80516001600160a01b03811681146200024857600080fd5b919050565b634e487b7160e01b600052604160045260246000fd5b604051608081016001600160401b03811182821017156200028857620002886200024d565b60405290565b604051601f8201601f191681016001600160401b0381118282101715620002b957620002b96200024d565b604052919050565b60006001600160401b03821115620002dd57620002dd6200024d565b5060051b60200190565b805163ffffffff811681146200024857600080fd5b600082601f8301126200030e57600080fd5b81516020620003276200032183620002c1565b6200028e565b82815260079290921b840181019181810190868411156200034757600080fd5b8286015b84811015620003ba5760808189031215620003665760008081fd5b6200037062000263565b6200037b82620002e7565b81526200038a858301620002e7565b8582015260406200039d81840162000230565b90820152606082810151908201528352918301916080016200034b565b509695505050505050565b60008060008060808587031215620003dc57600080fd5b620003e78562000230565b60208681015160408801519296509450906001600160401b03808211156200040e57600080fd5b818801915088601f8301126200042357600080fd5b8151620004346200032182620002c1565b81815260059190911b8301840190848101908b8311156200045457600080fd5b938501935b828510156200047d576200046d8562000230565b8252938501939085019062000459565b60608b015190975094505050808311156200049757600080fd5b5050620004a787828801620002fc565b91505092959194509250565b634e487b7160e01b600052603260045260246000fd5b600060018201620004ea57634e487b7160e01b600052601160045260246000fd5b5060010190565b60805160a051610a43620005256000396000818161019b01526104640152600081816101f501526103c00152610a436000f3fe608060405234801561001057600080fd5b50600436106100835760003560e01c80630de0565914610088578063379607f51461009d578063402914f5146100b057806343b0215f146100d6578063715018a61461018e57806378e97925146101965780638da5cb5b146101bd578063f2fde38b146101dd578063fe5a451a146101f0575b600080fd5b61009b6100963660046108a5565b610217565b005b61009b6100ab3660046108cf565b610226565b6100c36100be3660046108e8565b610234565b6040519081526020015b60405180910390f35b6101436100e43660046108e8565b6001602081815260009283526040928390208351608081018552815463ffffffff8082168352600160201b82041693820193909352600160401b9092046001600160a01b03169382019390935290820154606082015260029091015482565b60408051835163ffffffff908116825260208086015190911690820152838201516001600160a01b03169181019190915260609283015192810192909252608082015260a0016100cd565b61009b610245565b6100c37f000000000000000000000000000000000000000000000000000000000000000081565b6101c5610259565b6040516001600160a01b0390911681526020016100cd565b61009b6101eb3660046108e8565b610268565b6101c57f000000000000000000000000000000000000000000000000000000000000000081565b6102228233836102e3565b5050565b6102313333836102e3565b50565b600061023f8261043c565b92915050565b61024d610506565b6102576000610565565b565b6000546001600160a01b031690565b610270610506565b6001600160a01b0381166102da5760405162461bcd60e51b815260206004820152602660248201527f4f776e61626c653a206e6577206f776e657220697320746865207a65726f206160448201526564647265737360d01b60648201526084015b60405180910390fd5b61023181610565565b6001600160a01b03808416600081815260016020526040902091841614801590610321575080546001600160a01b03848116600160401b9092041614155b1561033e576040516282b42960e81b815260040160405180910390fd5b60006103498561043c565b90508060000361036c576040516312d37ee560e31b815260040160405180910390fd5b61037683826105b5565b925082600003610399576040516360640efd60e11b815260040160405180910390fd5b828260020160008282546103ad9190610919565b909155506103e790506001600160a01b037f00000000000000000000000000000000000000000000000000000000000000001686856105cd565b82846001600160a01b0316866001600160a01b03167f2f6639d24651730c7bf57c95ddbf96d66d11477e4ec626876f92c22e5f365e684260405161042d91815260200190565b60405180910390a45050505050565b6001600160a01b0381166000908152600160205260408120805482906104889063ffffffff167f0000000000000000000000000000000000000000000000000000000000000000610919565b905042811061049b575060009392505050565b60006104be6104aa834261092c565b8454600160201b900463ffffffff166105b5565b6002840154845460018601549293509091600160201b90910463ffffffff16906104e990849061093f565b6104f39190610956565b6104fd919061092c565b95945050505050565b3361050f610259565b6001600160a01b0316146102575760405162461bcd60e51b815260206004820181905260248201527f4f776e61626c653a2063616c6c6572206973206e6f7420746865206f776e657260448201526064016102d1565b600080546001600160a01b038381166001600160a01b0319831681178455604051919092169283917f8be0079c531659141344cd1fd0a4f28419497f9722a3daafe3b4186f6b6457e09190a35050565b60008183106105c457816105c6565b825b9392505050565b604080516001600160a01b038416602482015260448082018490528251808303909101815260649091019091526020810180516001600160e01b031663a9059cbb60e01b17905261061f908490610624565b505050565b6000610679826040518060400160405280602081526020017f5361666545524332303a206c6f772d6c6576656c2063616c6c206661696c6564815250856001600160a01b03166106f99092919063ffffffff16565b905080516000148061069a57508080602001905181019061069a9190610978565b61061f5760405162461bcd60e51b815260206004820152602a60248201527f5361666545524332303a204552433230206f7065726174696f6e20646964206e6044820152691bdd081cdd58d8d9595960b21b60648201526084016102d1565b60606107088484600085610710565b949350505050565b6060824710156107715760405162461bcd60e51b815260206004820152602660248201527f416464726573733a20696e73756666696369656e742062616c616e636520666f6044820152651c8818d85b1b60d21b60648201526084016102d1565b600080866001600160a01b0316858760405161078d91906109be565b60006040518083038185875af1925050503d80600081146107ca576040519150601f19603f3d011682016040523d82523d6000602084013e6107cf565b606091505b50915091506107e0878383876107eb565b979650505050505050565b6060831561085a578251600003610853576001600160a01b0385163b6108535760405162461bcd60e51b815260206004820152601d60248201527f416464726573733a2063616c6c20746f206e6f6e2d636f6e747261637400000060448201526064016102d1565b5081610708565b610708838381511561086f5781518083602001fd5b8060405162461bcd60e51b81526004016102d191906109da565b80356001600160a01b03811681146108a057600080fd5b919050565b600080604083850312156108b857600080fd5b6108c183610889565b946020939093013593505050565b6000602082840312156108e157600080fd5b5035919050565b6000602082840312156108fa57600080fd5b6105c682610889565b634e487b7160e01b600052601160045260246000fd5b8082018082111561023f5761023f610903565b8181038181111561023f5761023f610903565b808202811582820484141761023f5761023f610903565b60008261097357634e487b7160e01b600052601260045260246000fd5b500490565b60006020828403121561098a57600080fd5b815180151581146105c657600080fd5b60005b838110156109b557818101518382015260200161099d565b50506000910152565b600082516109d081846020870161099a565b9190910192915050565b60208152600082518060208401526109f981604085016020870161099a565b601f01601f1916919091016040019291505056fea264697066735822122059121f8deabc4a2fa27ab7454c9bd409e17b167be169579c939fc1998afa837c64736f6c63430008110033",
  "devdoc": {
    "details": "Contract distributing PRIME among vesting participants.",
    "errors": {
      "InputLengthMismatch()": [
        {
          "details": "Input array lengths do not match"
        }
      ],
      "InvalidAddress()": [
        {
          "details": "Invalid address"
        }
      ],
      "InvalidStartTime()": [
        {
          "details": "Invalid vesting start time"
        }
      ],
      "NothingToClaim()": [
        {
          "details": "No claim available"
        }
      ],
      "Unauthorized()": [
        {
          "details": "Trying to claim from unautorized account"
        }
      ],
      "ZeroClaimAmount()": [
        {
          "details": "Trying to claim 0 amount"
        }
      ]
    },
    "kind": "dev",
    "methods": {
      "owner()": {
        "details": "Returns the address of the current owner."
      },
      "renounceOwnership()": {
        "details": "Leaves the contract without owner. It will not be possible to call `onlyOwner` functions. Can only be called by the current owner. NOTE: Renouncing ownership will leave the contract without an owner, thereby disabling any functionality that is only available to the owner."
      },
      "transferOwnership(address)": {
        "details": "Transfers ownership of the contract to a new account (`newOwner`). Can only be called by the current owner."
      }
    },
    "title": "PRIME vesting contract",
    "version": 1
  },
  "userdoc": {
    "events": {
      "Claimed(address,address,uint256,uint256)": {
        "notice": "Events"
      }
    },
    "kind": "user",
    "methods": {
      "claim(uint256)": {
        "notice": "Public functions"
      },
      "constructor": {
        "notice": "Constructor"
      }
    },
    "version": 1
  },
  "storageLayout": {
    "storage": [
      {
        "astId": 7,
        "contract": "contracts/PrimeVesting.sol:PrimeVesting",
        "label": "_owner",
        "offset": 0,
        "slot": "0",
        "type": "t_address"
      },
      {
        "astId": 1858,
        "contract": "contracts/PrimeVesting.sol:PrimeVesting",
        "label": "userInfos",
        "offset": 0,
        "slot": "1",
        "type": "t_mapping(t_address,t_struct(UserInfo)1848_storage)"
      }
    ],
    "types": {
      "t_address": {
        "encoding": "inplace",
        "label": "address",
        "numberOfBytes": "20"
      },
      "t_mapping(t_address,t_struct(UserInfo)1848_storage)": {
        "encoding": "mapping",
        "key": "t_address",
        "label": "mapping(address => struct PrimeVesting.UserInfo)",
        "numberOfBytes": "32",
        "value": "t_struct(UserInfo)1848_storage"
      },
      "t_struct(UserInfo)1848_storage": {
        "encoding": "inplace",
        "label": "struct PrimeVesting.UserInfo",
        "members": [
          {
            "astId": 1845,
            "contract": "contracts/PrimeVesting.sol:PrimeVesting",
            "label": "info",
            "offset": 0,
            "slot": "0",
            "type": "t_struct(VestingInfo)1842_storage"
          },
          {
            "astId": 1847,
            "contract": "contracts/PrimeVesting.sol:PrimeVesting",
            "label": "claimed",
            "offset": 0,
            "slot": "2",
            "type": "t_uint256"
          }
        ],
        "numberOfBytes": "96"
      },
      "t_struct(VestingInfo)1842_storage": {
        "encoding": "inplace",
        "label": "struct PrimeVesting.VestingInfo",
        "members": [
          {
            "astId": 1835,
            "contract": "contracts/PrimeVesting.sol:PrimeVesting",
            "label": "cliffPeriod",
            "offset": 0,
            "slot": "0",
            "type": "t_uint32"
          },
          {
            "astId": 1837,
            "contract": "contracts/PrimeVesting.sol:PrimeVesting",
            "label": "vestingPeriod",
            "offset": 4,
            "slot": "0",
            "type": "t_uint32"
          },
          {
            "astId": 1839,
            "contract": "contracts/PrimeVesting.sol:PrimeVesting",
            "label": "grantClaimRightTo",
            "offset": 8,
            "slot": "0",
            "type": "t_address"
          },
          {
            "astId": 1841,
            "contract": "contracts/PrimeVesting.sol:PrimeVesting",
            "label": "totalAmount",
            "offset": 0,
            "slot": "1",
            "type": "t_uint256"
          }
        ],
        "numberOfBytes": "64"
      },
      "t_uint256": {
        "encoding": "inplace",
        "label": "uint256",
        "numberOfBytes": "32"
      },
      "t_uint32": {
        "encoding": "inplace",
        "label": "uint32",
        "numberOfBytes": "4"
      }
    }
  }
}