{
  "address": "0xa384b0aF911F6ecBB5ffcCAe11Ba427d8459D812",
  "abi": [
    {
      "inputs": [
        {
          "internalType": "address",
          "name": "_btcEligibleUsersList",
          "type": "address"
        }
      ],
      "stateMutability": "nonpayable",
      "type": "constructor"
    },
    {
      "anonymous": false,
      "inputs": [
        {
          "indexed": true,
          "internalType": "address",
          "name": "from",
          "type": "address"
        },
        {
          "indexed": true,
          "internalType": "address",
          "name": "to",
          "type": "address"
        }
      ],
      "name": "OwnershipTransferRequested",
      "type": "event"
    },
    {
      "anonymous": false,
      "inputs": [
        {
          "indexed": true,
          "internalType": "address",
          "name": "from",
          "type": "address"
        },
        {
          "indexed": true,
          "internalType": "address",
          "name": "to",
          "type": "address"
        }
      ],
      "name": "OwnershipTransferred",
      "type": "event"
    },
    {
      "anonymous": false,
      "inputs": [
        {
          "indexed": false,
          "internalType": "uint256",
          "name": "requestId",
          "type": "uint256"
        },
        {
          "indexed": false,
          "internalType": "uint32",
          "name": "numWords",
          "type": "uint32"
        }
      ],
      "name": "RequestSent",
      "type": "event"
    },
    {
      "anonymous": false,
      "inputs": [
        {
          "indexed": true,
          "internalType": "address",
          "name": "winner",
          "type": "address"
        },
        {
          "indexed": true,
          "internalType": "address",
          "name": "rewardToken",
          "type": "address"
        },
        {
          "indexed": false,
          "internalType": "uint256",
          "name": "amount",
          "type": "uint256"
        },
        {
          "indexed": false,
          "internalType": "uint256",
          "name": "blockNumber",
          "type": "uint256"
        }
      ],
      "name": "RewardTransferred",
      "type": "event"
    },
    {
      "inputs": [],
      "name": "acceptOwnership",
      "outputs": [],
      "stateMutability": "nonpayable",
      "type": "function"
    },
    {
      "inputs": [],
      "name": "btcEligibleUsersList",
      "outputs": [
        {
          "internalType": "contract BtcEligibleUsersList",
          "name": "",
          "type": "address"
        }
      ],
      "stateMutability": "view",
      "type": "function"
    },
    {
      "inputs": [],
      "name": "linkAddress",
      "outputs": [
        {
          "internalType": "address",
          "name": "",
          "type": "address"
        }
      ],
      "stateMutability": "view",
      "type": "function"
    },
    {
      "inputs": [],
      "name": "owner",
      "outputs": [
        {
          "internalType": "address",
          "name": "",
          "type": "address"
        }
      ],
      "stateMutability": "view",
      "type": "function"
    },
    {
      "inputs": [
        {
          "internalType": "uint256",
          "name": "_requestId",
          "type": "uint256"
        },
        {
          "internalType": "uint256[]",
          "name": "_randomWords",
          "type": "uint256[]"
        }
      ],
      "name": "rawFulfillRandomWords",
      "outputs": [],
      "stateMutability": "nonpayable",
      "type": "function"
    },
    {
      "inputs": [],
      "name": "requestRewardDistributionWithRandomWords",
      "outputs": [
        {
          "internalType": "uint256",
          "name": "requestId",
          "type": "uint256"
        }
      ],
      "stateMutability": "nonpayable",
      "type": "function"
    },
    {
      "inputs": [],
      "name": "rewardToken",
      "outputs": [
        {
          "internalType": "address",
          "name": "",
          "type": "address"
        }
      ],
      "stateMutability": "view",
      "type": "function"
    },
    {
      "inputs": [
        {
          "internalType": "address",
          "name": "_rewardToken",
          "type": "address"
        }
      ],
      "name": "setRewardToken",
      "outputs": [],
      "stateMutability": "nonpayable",
      "type": "function"
    },
    {
      "inputs": [
        {
          "internalType": "address",
          "name": "to",
          "type": "address"
        }
      ],
      "name": "transferOwnership",
      "outputs": [],
      "stateMutability": "nonpayable",
      "type": "function"
    },
    {
      "inputs": [
        {
          "internalType": "address",
          "name": "_token",
          "type": "address"
        },
        {
          "internalType": "address",
          "name": "_to",
          "type": "address"
        },
        {
          "internalType": "uint256",
          "name": "_amount",
          "type": "uint256"
        }
      ],
      "name": "withdrawERC20",
      "outputs": [],
      "stateMutability": "nonpayable",
      "type": "function"
    },
    {
      "inputs": [],
      "name": "wrapperAddress",
      "outputs": [
        {
          "internalType": "address",
          "name": "",
          "type": "address"
        }
      ],
      "stateMutability": "view",
      "type": "function"
    }
  ],
  "transactionHash": "0x0a1afffe0c60ea0df5b0c658652393e9781d0d5af8f65ee79e4909a12292dc2f",
  "args": [
    "0x4109d34B4fB8427ABc03D9D0C76c04bBe453D640"
  ],
  "numDeployments": 2,
  "solcInputHash": "19a1cc1b7dcbd3f6ee5681e7c8852d2a",
  "bytecode": "0x60c0604052600180546504000c003d0960a61b600160a01b600160f01b0319909116179055600280546001600160a01b031990811673b97ef9ef8734c71904d8002f8b6bc66dd9c48a6e17909155600480548216735947bb275c521040051d82396192181b413227a31790556005805490911673721dfbc5cfe53d32ab00a9bdfa605d3b8e1f3f4217905534801561009657600080fd5b50604051610e61380380610e618339810160408190526100b591610225565b6004546005546001600160a01b039182166080521660a05233806000816101235760405162461bcd60e51b815260206004820152601860248201527f43616e6e6f7420736574206f776e657220746f207a65726f000000000000000060448201526064015b60405180910390fd5b600080546001600160a01b0319166001600160a01b0384811691909117909155811615610153576101538161017c565b5050600380546001600160a01b0319166001600160a01b03939093169290921790915550610255565b336001600160a01b038216036101d45760405162461bcd60e51b815260206004820152601760248201527f43616e6e6f74207472616e7366657220746f2073656c66000000000000000000604482015260640161011a565b600180546001600160a01b0319166001600160a01b0383811691821790925560008054604051929316917fed8889f560326eb138920d842192f0eb3dd22b4f139c87a2c57538e05bae12789190a350565b60006020828403121561023757600080fd5b81516001600160a01b038116811461024e57600080fd5b9392505050565b60805160a051610bd961028860003960008181610188015281816106f401526107fd015260006106ca0152610bd96000f3fe608060405234801561001057600080fd5b50600436106100995760003560e01c80631fe543e31461009e578063235cea98146100b35780633d82abd9146100dc57806344004cc1146100ef57806379ba5097146101025780637df8b8021461010a5780638aee81271461011d5780638da5cb5b14610130578063e4be1f2014610141578063f2fde38b14610157578063f7c618c11461016a575b600080fd5b6100b16100ac36600461093e565b61017d565b005b6004546100c6906001600160a01b031681565b6040516100d39190610a07565b60405180910390f35b6003546100c6906001600160a01b031681565b6100b16100fd366004610a30565b610208565b6100b1610287565b6005546100c6906001600160a01b031681565b6100b161012b366004610a71565b610331565b6000546001600160a01b03166100c6565b61014961035b565b6040519081526020016100d3565b6100b1610165366004610a71565b6103e3565b6002546100c6906001600160a01b031681565b336001600160a01b037f000000000000000000000000000000000000000000000000000000000000000016146101fa5760405162461bcd60e51b815260206004820152601f60248201527f6f6e6c792056524620563220777261707065722063616e2066756c66696c6c0060448201526064015b60405180910390fd5b61020482826103f7565b5050565b61021061064f565b60405163a9059cbb60e01b81526001600160a01b0384169063a9059cbb9061023e9085908590600401610a95565b6020604051808303816000875af115801561025d573d6000803e3d6000fd5b505050506040513d601f19601f820116820180604052508101906102819190610aae565b50505050565b6001546001600160a01b031633146102da5760405162461bcd60e51b815260206004820152601660248201527526bab9ba10313290383937b837b9b2b21037bbb732b960511b60448201526064016101f1565b60008054336001600160a01b0319808316821784556001805490911690556040516001600160a01b0390921692909183917f8be0079c531659141344cd1fd0a4f28419497f9722a3daafe3b4186f6b6457e091a350565b61033961064f565b600280546001600160a01b0319166001600160a01b0392909216919091179055565b600061036561064f565b6001546103959063ffffffff600160a01b820481169161ffff600160c01b82041691600160d01b909104166106a4565b60015460408051838152600160d01b90920463ffffffff1660208301529192507fcc58b13ad3eab50626c6a6300b1d139cd6ebb1688a7cced9461c2f7e762665ee910160405180910390a190565b6103eb61064f565b6103f481610885565b50565b60008160008151811061040c5761040c610ad0565b602002602001015190506000600360009054906101000a90046001600160a01b03166001600160a01b0316639d2ef1696040518163ffffffff1660e01b8152600401602060405180830381865afa15801561046b573d6000803e3d6000fd5b505050506040513d601f19601f8201168201806040525081019061048f9190610ae6565b6003549091506000906001600160a01b03166381c2afb46104b08486610aff565b6040518263ffffffff1660e01b81526004016104ce91815260200190565b602060405180830381865afa1580156104eb573d6000803e3d6000fd5b505050506040513d601f19601f8201168201806040525081019061050f9190610b21565b6002546040516370a0823160e01b81529192506000916001600160a01b03909116906370a0823190610545903090600401610a07565b602060405180830381865afa158015610562573d6000803e3d6000fd5b505050506040513d601f19601f820116820180604052508101906105869190610ae6565b60025460405163a9059cbb60e01b81529192506001600160a01b03169063a9059cbb906105b99085908590600401610a95565b6020604051808303816000875af11580156105d8573d6000803e3d6000fd5b505050506040513d601f19601f820116820180604052508101906105fc9190610aae565b50600254604080518381524360208201526001600160a01b03928316928516917f94b38fc2f9c89289a2069bfd540ed939c23a6d93b78d39879d4a92d263a1c68e910160405180910390a3505050505050565b6000546001600160a01b031633146106a25760405162461bcd60e51b815260206004820152601660248201527527b7363c9031b0b63630b1363290313c9037bbb732b960511b60448201526064016101f1565b565b6040516310c1b4d560e21b815263ffffffff841660048201526000906001600160a01b037f0000000000000000000000000000000000000000000000000000000000000000811691634000aea0917f00000000000000000000000000000000000000000000000000000000000000009190821690634306d35490602401602060405180830381865afa15801561073e573d6000803e3d6000fd5b505050506040513d601f19601f820116820180604052508101906107629190610ae6565b6040805163ffffffff808b16602083015261ffff8a169282019290925290871660608201526080016040516020818303038152906040526040518463ffffffff1660e01b81526004016107b793929190610b3e565b6020604051808303816000875af11580156107d6573d6000803e3d6000fd5b505050506040513d601f19601f820116820180604052508101906107fa9190610aae565b507f00000000000000000000000000000000000000000000000000000000000000006001600160a01b031663fc2a88c36040518163ffffffff1660e01b8152600401602060405180830381865afa158015610859573d6000803e3d6000fd5b505050506040513d601f19601f8201168201806040525081019061087d9190610ae6565b949350505050565b336001600160a01b038216036108d75760405162461bcd60e51b815260206004820152601760248201527621b0b73737ba103a3930b739b332b9103a379039b2b63360491b60448201526064016101f1565b600180546001600160a01b0319166001600160a01b0383811691821790925560008054604051929316917fed8889f560326eb138920d842192f0eb3dd22b4f139c87a2c57538e05bae12789190a350565b634e487b7160e01b600052604160045260246000fd5b6000806040838503121561095157600080fd5b823591506020808401356001600160401b038082111561097057600080fd5b818601915086601f83011261098457600080fd5b81358181111561099657610996610928565b8060051b604051601f19603f830116810181811085821117156109bb576109bb610928565b6040529182528482019250838101850191898311156109d957600080fd5b938501935b828510156109f7578435845293850193928501926109de565b8096505050505050509250929050565b6001600160a01b0391909116815260200190565b6001600160a01b03811681146103f457600080fd5b600080600060608486031215610a4557600080fd5b8335610a5081610a1b565b92506020840135610a6081610a1b565b929592945050506040919091013590565b600060208284031215610a8357600080fd5b8135610a8e81610a1b565b9392505050565b6001600160a01b03929092168252602082015260400190565b600060208284031215610ac057600080fd5b81518015158114610a8e57600080fd5b634e487b7160e01b600052603260045260246000fd5b600060208284031215610af857600080fd5b5051919050565b600082610b1c57634e487b7160e01b600052601260045260246000fd5b500690565b600060208284031215610b3357600080fd5b8151610a8e81610a1b565b60018060a01b038416815260006020848184015260606040840152835180606085015260005b81811015610b8057858101830151858201608001528201610b64565b506000608082860101526080601f19601f8301168501019250505094935050505056fea26469706673582212205d11192dae6f4e04097b2eb0a412b117f734e129cfe9afe2e763ffb98286700a64736f6c63430008110033",
  "devdoc": {
    "kind": "dev",
    "methods": {},
    "version": 1
  },
  "userdoc": {
    "kind": "user",
    "methods": {
      "acceptOwnership()": {
        "notice": "Allows an ownership transfer to be completed by the recipient."
      },
      "owner()": {
        "notice": "Get the current owner"
      },
      "transferOwnership(address)": {
        "notice": "Allows an owner to begin transferring ownership to a new address, pending."
      }
    },
    "version": 1
  },
  "storageLayout": {
    "storage": [
      {
        "astId": 54,
        "contract": "contracts/RandomTokenRewarder.sol:RandomTokenRewarder",
        "label": "s_owner",
        "offset": 0,
        "slot": "0",
        "type": "t_address"
      },
      {
        "astId": 56,
        "contract": "contracts/RandomTokenRewarder.sol:RandomTokenRewarder",
        "label": "s_pendingOwner",
        "offset": 0,
        "slot": "1",
        "type": "t_address"
      },
      {
        "astId": 868,
        "contract": "contracts/RandomTokenRewarder.sol:RandomTokenRewarder",
        "label": "callbackGasLimit",
        "offset": 20,
        "slot": "1",
        "type": "t_uint32"
      },
      {
        "astId": 871,
        "contract": "contracts/RandomTokenRewarder.sol:RandomTokenRewarder",
        "label": "requestConfirmations",
        "offset": 24,
        "slot": "1",
        "type": "t_uint16"
      },
      {
        "astId": 874,
        "contract": "contracts/RandomTokenRewarder.sol:RandomTokenRewarder",
        "label": "numWords",
        "offset": 26,
        "slot": "1",
        "type": "t_uint32"
      },
      {
        "astId": 877,
        "contract": "contracts/RandomTokenRewarder.sol:RandomTokenRewarder",
        "label": "rewardToken",
        "offset": 0,
        "slot": "2",
        "type": "t_address"
      },
      {
        "astId": 880,
        "contract": "contracts/RandomTokenRewarder.sol:RandomTokenRewarder",
        "label": "btcEligibleUsersList",
        "offset": 0,
        "slot": "3",
        "type": "t_contract(BtcEligibleUsersList)835"
      },
      {
        "astId": 915,
        "contract": "contracts/RandomTokenRewarder.sol:RandomTokenRewarder",
        "label": "linkAddress",
        "offset": 0,
        "slot": "4",
        "type": "t_address"
      },
      {
        "astId": 918,
        "contract": "contracts/RandomTokenRewarder.sol:RandomTokenRewarder",
        "label": "wrapperAddress",
        "offset": 0,
        "slot": "5",
        "type": "t_address"
      }
    ],
    "types": {
      "t_address": {
        "encoding": "inplace",
        "label": "address",
        "numberOfBytes": "20"
      },
      "t_contract(BtcEligibleUsersList)835": {
        "encoding": "inplace",
        "label": "contract BtcEligibleUsersList",
        "numberOfBytes": "20"
      },
      "t_uint16": {
        "encoding": "inplace",
        "label": "uint16",
        "numberOfBytes": "2"
      },
      "t_uint32": {
        "encoding": "inplace",
        "label": "uint32",
        "numberOfBytes": "4"
      }
    }
  }
}