{
  "address": "0x1396D82800aE1BE1e8aDB6972593aceC6cc9a21e",
  "abi": [
    {
      "inputs": [],
      "name": "CalldataMustHaveValidPayload",
      "type": "error"
    },
    {
      "inputs": [],
      "name": "CalldataOverOrUnderFlow",
      "type": "error"
    },
    {
      "inputs": [],
      "name": "EachSignerMustProvideTheSameValue",
      "type": "error"
    },
    {
      "inputs": [],
      "name": "EmptyCalldataPointersArr",
      "type": "error"
    },
    {
      "inputs": [],
      "name": "IncorrectUnsignedMetadataSize",
      "type": "error"
    },
    {
      "inputs": [
        {
          "internalType": "uint256",
          "name": "receviedSignersCount",
          "type": "uint256"
        },
        {
          "internalType": "uint256",
          "name": "requiredSignersCount",
          "type": "uint256"
        }
      ],
      "name": "InsufficientNumberOfUniqueSigners",
      "type": "error"
    },
    {
      "inputs": [],
      "name": "InvalidCalldataPointer",
      "type": "error"
    },
    {
      "inputs": [
        {
          "internalType": "bytes",
          "name": "result",
          "type": "bytes"
        }
      ],
      "name": "ProxyCalldataFailedWithCustomError",
      "type": "error"
    },
    {
      "inputs": [
        {
          "internalType": "string",
          "name": "message",
          "type": "string"
        }
      ],
      "name": "ProxyCalldataFailedWithStringMessage",
      "type": "error"
    },
    {
      "inputs": [],
      "name": "ProxyCalldataFailedWithoutErrMsg",
      "type": "error"
    },
    {
      "inputs": [
        {
          "internalType": "address",
          "name": "receivedSigner",
          "type": "address"
        }
      ],
      "name": "SignerNotAuthorised",
      "type": "error"
    },
    {
      "anonymous": false,
      "inputs": [
        {
          "indexed": true,
          "internalType": "address",
          "name": "liquidator",
          "type": "address"
        },
        {
          "indexed": true,
          "internalType": "bool",
          "name": "healing",
          "type": "bool"
        },
        {
          "indexed": false,
          "internalType": "uint256",
          "name": "initialTotal",
          "type": "uint256"
        },
        {
          "indexed": false,
          "internalType": "uint256",
          "name": "initialDebt",
          "type": "uint256"
        },
        {
          "indexed": false,
          "internalType": "uint256",
          "name": "repayAmount",
          "type": "uint256"
        },
        {
          "indexed": false,
          "internalType": "uint256",
          "name": "bonusInUSD",
          "type": "uint256"
        },
        {
          "indexed": false,
          "internalType": "uint256",
          "name": "health",
          "type": "uint256"
        },
        {
          "indexed": false,
          "internalType": "uint256",
          "name": "timestamp",
          "type": "uint256"
        }
      ],
      "name": "Liquidated",
      "type": "event"
    },
    {
      "anonymous": false,
      "inputs": [
        {
          "indexed": true,
          "internalType": "address",
          "name": "liquidator",
          "type": "address"
        },
        {
          "indexed": true,
          "internalType": "bytes32",
          "name": "asset",
          "type": "bytes32"
        },
        {
          "indexed": false,
          "internalType": "uint256",
          "name": "amount",
          "type": "uint256"
        },
        {
          "indexed": false,
          "internalType": "uint256",
          "name": "timestamp",
          "type": "uint256"
        }
      ],
      "name": "LiquidationRepay",
      "type": "event"
    },
    {
      "anonymous": false,
      "inputs": [
        {
          "indexed": true,
          "internalType": "address",
          "name": "liquidator",
          "type": "address"
        },
        {
          "indexed": true,
          "internalType": "bytes32",
          "name": "asset",
          "type": "bytes32"
        },
        {
          "indexed": false,
          "internalType": "uint256",
          "name": "amount",
          "type": "uint256"
        },
        {
          "indexed": false,
          "internalType": "uint256",
          "name": "timestamp",
          "type": "uint256"
        }
      ],
      "name": "LiquidationTransfer",
      "type": "event"
    },
    {
      "anonymous": false,
      "inputs": [
        {
          "indexed": true,
          "internalType": "address",
          "name": "liquidator",
          "type": "address"
        },
        {
          "indexed": false,
          "internalType": "address",
          "name": "performer",
          "type": "address"
        },
        {
          "indexed": false,
          "internalType": "uint256",
          "name": "timestamp",
          "type": "uint256"
        }
      ],
      "name": "LiquidatorDelisted",
      "type": "event"
    },
    {
      "anonymous": false,
      "inputs": [
        {
          "indexed": true,
          "internalType": "address",
          "name": "liquidator",
          "type": "address"
        },
        {
          "indexed": false,
          "internalType": "address",
          "name": "performer",
          "type": "address"
        },
        {
          "indexed": false,
          "internalType": "uint256",
          "name": "timestamp",
          "type": "uint256"
        }
      ],
      "name": "LiquidatorWhitelisted",
      "type": "event"
    },
    {
      "inputs": [
        {
          "internalType": "bytes32[]",
          "name": "assetsToRepay",
          "type": "bytes32[]"
        }
      ],
      "name": "_getAllPricesForLiquidation",
      "outputs": [
        {
          "components": [
            {
              "components": [
                {
                  "internalType": "bytes32",
                  "name": "asset",
                  "type": "bytes32"
                },
                {
                  "internalType": "uint256",
                  "name": "price",
                  "type": "uint256"
                }
              ],
              "internalType": "struct SolvencyFacetProd.AssetPrice[]",
              "name": "ownedAssetsPrices",
              "type": "tuple[]"
            },
            {
              "components": [
                {
                  "internalType": "bytes32",
                  "name": "asset",
                  "type": "bytes32"
                },
                {
                  "internalType": "uint256",
                  "name": "price",
                  "type": "uint256"
                }
              ],
              "internalType": "struct SolvencyFacetProd.AssetPrice[]",
              "name": "debtAssetsPrices",
              "type": "tuple[]"
            },
            {
              "components": [
                {
                  "internalType": "bytes32",
                  "name": "asset",
                  "type": "bytes32"
                },
                {
                  "internalType": "uint256",
                  "name": "price",
                  "type": "uint256"
                }
              ],
              "internalType": "struct SolvencyFacetProd.AssetPrice[]",
              "name": "stakedPositionsPrices",
              "type": "tuple[]"
            },
            {
              "components": [
                {
                  "internalType": "bytes32",
                  "name": "asset",
                  "type": "bytes32"
                },
                {
                  "internalType": "uint256",
                  "name": "price",
                  "type": "uint256"
                }
              ],
              "internalType": "struct SolvencyFacetProd.AssetPrice[]",
              "name": "assetsToRepayPrices",
              "type": "tuple[]"
            }
          ],
          "internalType": "struct SolvencyFacetProd.CachedPrices",
          "name": "result",
          "type": "tuple"
        }
      ],
      "stateMutability": "nonpayable",
      "type": "function"
    },
    {
      "inputs": [],
      "name": "_getHealthRatio",
      "outputs": [
        {
          "internalType": "uint256",
          "name": "health",
          "type": "uint256"
        }
      ],
      "stateMutability": "nonpayable",
      "type": "function"
    },
    {
      "inputs": [
        {
          "components": [
            {
              "components": [
                {
                  "internalType": "bytes32",
                  "name": "asset",
                  "type": "bytes32"
                },
                {
                  "internalType": "uint256",
                  "name": "price",
                  "type": "uint256"
                }
              ],
              "internalType": "struct SolvencyFacetProd.AssetPrice[]",
              "name": "ownedAssetsPrices",
              "type": "tuple[]"
            },
            {
              "components": [
                {
                  "internalType": "bytes32",
                  "name": "asset",
                  "type": "bytes32"
                },
                {
                  "internalType": "uint256",
                  "name": "price",
                  "type": "uint256"
                }
              ],
              "internalType": "struct SolvencyFacetProd.AssetPrice[]",
              "name": "debtAssetsPrices",
              "type": "tuple[]"
            },
            {
              "components": [
                {
                  "internalType": "bytes32",
                  "name": "asset",
                  "type": "bytes32"
                },
                {
                  "internalType": "uint256",
                  "name": "price",
                  "type": "uint256"
                }
              ],
              "internalType": "struct SolvencyFacetProd.AssetPrice[]",
              "name": "stakedPositionsPrices",
              "type": "tuple[]"
            },
            {
              "components": [
                {
                  "internalType": "bytes32",
                  "name": "asset",
                  "type": "bytes32"
                },
                {
                  "internalType": "uint256",
                  "name": "price",
                  "type": "uint256"
                }
              ],
              "internalType": "struct SolvencyFacetProd.AssetPrice[]",
              "name": "assetsToRepayPrices",
              "type": "tuple[]"
            }
          ],
          "internalType": "struct SolvencyFacetProd.CachedPrices",
          "name": "cachedPrices",
          "type": "tuple"
        }
      ],
      "name": "_getHealthRatioWithPrices",
      "outputs": [
        {
          "internalType": "uint256",
          "name": "health",
          "type": "uint256"
        }
      ],
      "stateMutability": "nonpayable",
      "type": "function"
    },
    {
      "inputs": [
        {
          "internalType": "address[]",
          "name": "_liquidators",
          "type": "address[]"
        }
      ],
      "name": "delistLiquidators",
      "outputs": [],
      "stateMutability": "nonpayable",
      "type": "function"
    },
    {
      "inputs": [],
      "name": "getMaxHealthAfterLiquidation",
      "outputs": [
        {
          "internalType": "uint256",
          "name": "",
          "type": "uint256"
        }
      ],
      "stateMutability": "pure",
      "type": "function"
    },
    {
      "inputs": [],
      "name": "getMaxLiquidationBonus",
      "outputs": [
        {
          "internalType": "uint256",
          "name": "",
          "type": "uint256"
        }
      ],
      "stateMutability": "pure",
      "type": "function"
    },
    {
      "inputs": [
        {
          "internalType": "bytes32",
          "name": "symbol",
          "type": "bytes32"
        }
      ],
      "name": "getPrice",
      "outputs": [
        {
          "internalType": "uint256",
          "name": "price",
          "type": "uint256"
        }
      ],
      "stateMutability": "nonpayable",
      "type": "function"
    },
    {
      "inputs": [
        {
          "internalType": "bytes32[]",
          "name": "symbols",
          "type": "bytes32[]"
        }
      ],
      "name": "getPrices",
      "outputs": [
        {
          "internalType": "uint256[]",
          "name": "prices",
          "type": "uint256[]"
        }
      ],
      "stateMutability": "nonpayable",
      "type": "function"
    },
    {
      "inputs": [
        {
          "internalType": "address",
          "name": "_liquidator",
          "type": "address"
        }
      ],
      "name": "isLiquidatorWhitelisted",
      "outputs": [
        {
          "internalType": "bool",
          "name": "",
          "type": "bool"
        }
      ],
      "stateMutability": "view",
      "type": "function"
    },
    {
      "inputs": [
        {
          "internalType": "bytes32[]",
          "name": "assetsToRepay",
          "type": "bytes32[]"
        },
        {
          "internalType": "uint256[]",
          "name": "amountsToRepay",
          "type": "uint256[]"
        },
        {
          "internalType": "uint256",
          "name": "_liquidationBonusPercent",
          "type": "uint256"
        }
      ],
      "name": "liquidateLoan",
      "outputs": [],
      "stateMutability": "payable",
      "type": "function"
    },
    {
      "inputs": [
        {
          "internalType": "bytes32[]",
          "name": "assetsToRepay",
          "type": "bytes32[]"
        },
        {
          "internalType": "uint256[]",
          "name": "amountsToRepay",
          "type": "uint256[]"
        },
        {
          "internalType": "uint256",
          "name": "_liquidationBonusPercent",
          "type": "uint256"
        }
      ],
      "name": "unsafeLiquidateLoan",
      "outputs": [],
      "stateMutability": "payable",
      "type": "function"
    },
    {
      "inputs": [
        {
          "internalType": "address[]",
          "name": "_liquidators",
          "type": "address[]"
        }
      ],
      "name": "whitelistLiquidators",
      "outputs": [],
      "stateMutability": "nonpayable",
      "type": "function"
    }
  ],
  "transactionHash": "0xb49219c328cda7cc841daf48c964565a1689af44fc1f7e662804f724aa7985f4",
  "args": [],
  "numDeployments": 2,
  "solcInputHash": "4189fcbc2823c20856a851b757c21c8f",
  "bytecode": "0x608060405234801561001057600080fd5b50600160008190555061472a806100286000396000f3fe6080604052600436106100a75760003560e01c80639a327205116100645780639a327205146101d3578063b2d40e73146101fe578063b859791c1461023b578063e319fccc14610266578063e799d994146102a3578063f1e873d6146102bf576100a7565b806326ee4836146100ac57806331d98b3f146100e957806338df9add1461012657806339e2719e146101425780636e3bfe9f1461016d5780638e437cd3146101aa575b600080fd5b3480156100b857600080fd5b506100d360048036038101906100ce9190612998565b6102e8565b6040516100e09190612aa9565b60405180910390f35b3480156100f557600080fd5b50610110600480360381019061010b9190612acb565b610392565b60405161011d9190612b07565b60405180910390f35b610140600480360381019061013b9190612c11565b61043c565b005b34801561014e57600080fd5b50610157610595565b6040516101649190612b07565b60405180910390f35b34801561017957600080fd5b50610194600480360381019061018f9190612ea1565b610632565b6040516101a19190612b07565b60405180910390f35b3480156101b657600080fd5b506101d160048036038101906101cc919061300b565b6106dc565b005b3480156101df57600080fd5b506101e86107f2565b6040516101f59190612b07565b60405180910390f35b34801561020a57600080fd5b5061022560048036038101906102209190612998565b610802565b60405161023291906131b9565b60405180910390f35b34801561024757600080fd5b506102506108b2565b60405161025d9190612b07565b60405180910390f35b34801561027257600080fd5b5061028d600480360381019061028891906131db565b6108bb565b60405161029a9190613223565b60405180910390f35b6102bd60048036038101906102b89190612c11565b61091f565b005b3480156102cb57600080fd5b506102e660048036038101906102e1919061300b565b610a78565b005b60606103786102fd6326ee483660e01b610b8e565b6326ee483660e01b8460405160240161031691906132ed565b604051602081830303815290604052907bffffffffffffffffffffffffffffffffffffffffffffffffffffffff19166020820180517bffffffffffffffffffffffffffffffffffffffffffffffffffffffff8381831617835250505050610c18565b80602001905181019061038b91906133bb565b9050919050565b60006104226103a76331d98b3f60e01b610b8e565b6331d98b3f60e01b846040516024016103c09190613413565b604051602081830303815290604052907bffffffffffffffffffffffffffffffffffffffffffffffffffffffff19166020820180517bffffffffffffffffffffffffffffffffffffffffffffffffffffffff8381831617835250505050610c18565b806020019051810190610435919061342e565b9050919050565b610444610ca9565b73ffffffffffffffffffffffffffffffffffffffff1663e319fccc336040518263ffffffff1660e01b815260040161047c919061346a565b602060405180830381865afa158015610499573d6000803e3d6000fd5b505050506040513d601f19601f820116820180604052508101906104bd91906134b1565b6104fc576040517f08c379a00000000000000000000000000000000000000000000000000000000081526004016104f390613561565b60405180910390fd5b6000610506610cc5565b9050600281600001540361054f576040517f08c379a0000000000000000000000000000000000000000000000000000000008152600401610546906135cd565b60405180910390fd5b60028160000181905550610585604051806080016040528086815260200185815260200184815260200160001515815250610cf2565b6001816000018190555050505050565b600061061a6105aa637914334f60e01b610b8e565b637914334f60e01b604051602401604051602081830303815290604052907bffffffffffffffffffffffffffffffffffffffffffffffffffffffff19166020820180517bffffffffffffffffffffffffffffffffffffffffffffffffffffffff8381831617835250505050610c18565b80602001905181019061062d919061342e565b905090565b60006106c261064763360398a360e01b610b8e565b63360398a360e01b8460405160240161066091906131b9565b604051602081830303815290604052907bffffffffffffffffffffffffffffffffffffffffffffffffffffffff19166020820180517bffffffffffffffffffffffffffffffffffffffffffffffffffffffff8381831617835250505050610c18565b8060200190518101906106d5919061342e565b9050919050565b6106e46118f8565b60006106ee611993565b905060005b82518110156107ed576000826000016000858481518110610717576107166135ed565b5b602002602001015173ffffffffffffffffffffffffffffffffffffffff1673ffffffffffffffffffffffffffffffffffffffff16815260200190815260200160002060006101000a81548160ff021916908315150217905550828181518110610783576107826135ed565b5b602002602001015173ffffffffffffffffffffffffffffffffffffffff167fec18f7bc75684ccb5c27f95c22a5f0e40f039a71edd5b0054662e2e59e2bd6b233426040516107d292919061361c565b60405180910390a280806107e590613674565b9150506106f3565b505050565b6000670e75ed7aaff50000905090565b61080a6127cd565b61089861081d63a3aa8d1e60e01b610b8e565b63a3aa8d1e60e01b8460405160240161083691906132ed565b604051602081830303815290604052907bffffffffffffffffffffffffffffffffffffffffffffffffffffffff19166020820180517bffffffffffffffffffffffffffffffffffffffffffffffffffffffff8381831617835250505050610c18565b8060200190518101906108ab91906138a0565b9050919050565b60006064905090565b6000806108c6611993565b90508060000160008473ffffffffffffffffffffffffffffffffffffffff1673ffffffffffffffffffffffffffffffffffffffff16815260200190815260200160002060009054906101000a900460ff16915050919050565b610927610ca9565b73ffffffffffffffffffffffffffffffffffffffff1663e319fccc336040518263ffffffff1660e01b815260040161095f919061346a565b602060405180830381865afa15801561097c573d6000803e3d6000fd5b505050506040513d601f19601f820116820180604052508101906109a091906134b1565b6109df576040517f08c379a00000000000000000000000000000000000000000000000000000000081526004016109d690613561565b60405180910390fd5b60006109e9610cc5565b90506002816000015403610a32576040517f08c379a0000000000000000000000000000000000000000000000000000000008152600401610a29906135cd565b60405180910390fd5b60028160000181905550610a68604051806080016040528086815260200185815260200184815260200160011515815250610cf2565b6001816000018190555050505050565b610a806118f8565b6000610a8a611993565b905060005b8251811015610b89576001826000016000858481518110610ab357610ab26135ed565b5b602002602001015173ffffffffffffffffffffffffffffffffffffffff1673ffffffffffffffffffffffffffffffffffffffff16815260200190815260200160002060006101000a81548160ff021916908315150217905550828181518110610b1f57610b1e6135ed565b5b602002602001015173ffffffffffffffffffffffffffffffffffffffff167fd9866c1dfd8cf4391787e91d20e9db9a63c58e8edcc69cdfe460a0afae1e62f23342604051610b6e92919061361c565b60405180910390a28080610b8190613674565b915050610a8f565b505050565b6000610b98610ca9565b73ffffffffffffffffffffffffffffffffffffffff16630d741577836040518263ffffffff1660e01b8152600401610bd09190613924565b602060405180830381865afa158015610bed573d6000803e3d6000fd5b505050506040513d601f19601f82011682018060405250810190610c119190613954565b9050919050565b60606000610c25836119c0565b90506000808573ffffffffffffffffffffffffffffffffffffffff1683604051610c4f91906139f2565b600060405180830381855af49150503d8060008114610c8a576040519150601f19603f3d011682016040523d82523d6000602084013e610c8f565b606091505b5091509150610c9e8282611a7a565b935050505092915050565b6000732916b3bf7c35bd21e63d01c93c62fb0d4994e56d905090565b6000807f1c85eba10a4cf2d29c83fc15f97931886b9fd3caeb70d8c377aeedc58b919e3b90508091505090565b6000610d018260000151610802565b90506000610d1782600001518360400151611b7a565b90506000610d288360200151611c27565b9050610d326108b2565b84604001511115610d78576040517f08c379a0000000000000000000000000000000000000000000000000000000008152600401610d6f90613a7b565b60405180910390fd5b610d8183611cd1565b15610dc1576040517f08c379a0000000000000000000000000000000000000000000000000000000008152600401610db890613ae7565b60405180910390fd5b60008282119050801580610dd6575084606001515b610e15576040517f08c379a0000000000000000000000000000000000000000000000000000000008152600401610e0c90613b79565b60405180910390fd5b6000806000610e22611d7b565b905060005b8860000151518110156114b05760008273ffffffffffffffffffffffffffffffffffffffff166325eb876f8b600001518481518110610e6957610e686135ed565b5b602002602001015160016040518363ffffffff1660e01b8152600401610e90929190613b99565b602060405180830381865afa158015610ead573d6000803e3d6000fd5b505050506040513d601f19601f82011682018060405250810190610ed19190613954565b905060008173ffffffffffffffffffffffffffffffffffffffff166370a08231306040518263ffffffff1660e01b8152600401610f0e919061346a565b602060405180830381865afa158015610f2b573d6000803e3d6000fd5b505050506040513d601f19601f82011682018060405250810190610f4f919061342e565b905060008b602001518481518110610f6a57610f696135ed565b5b6020026020010151821015610fa657818c602001518581518110610f9157610f906135ed565b5b6020026020010151610fa39190613bc2565b90505b60008111156110ad57610fdc3330838673ffffffffffffffffffffffffffffffffffffffff16611d97909392919063ffffffff16565b8273ffffffffffffffffffffffffffffffffffffffff1663313ce5676040518163ffffffff1660e01b8152600401602060405180830381865afa158015611027573d6000803e3d6000fd5b505050506040513d601f19601f8201168201806040525081019061104b9190613c2f565b600a6110579190613d8f565b6402540be4008c606001518681518110611074576110736135ed565b5b6020026020010151602001518361108b9190613dda565b6110959190613dda565b61109f9190613e4b565b876110aa9190613e7c565b96505b60008573ffffffffffffffffffffffffffffffffffffffff16630edc25b68e6000015187815181106110e2576110e16135ed565b5b60200260200101516040518263ffffffff1660e01b81526004016111069190613413565b602060405180830381865afa158015611123573d6000803e3d6000fd5b505050506040513d601f19601f820116820180604052508101906111479190613954565b905060006111ec8273ffffffffffffffffffffffffffffffffffffffff16636011163e306040518263ffffffff1660e01b8152600401611187919061346a565b602060405180830381865afa1580156111a4573d6000803e3d6000fd5b505050506040513d601f19601f820116820180604052508101906111c8919061342e565b8f6020015188815181106111df576111de6135ed565b5b6020026020010151611ed0565b905061121a8260008773ffffffffffffffffffffffffffffffffffffffff16611ee99092919063ffffffff16565b61124582828773ffffffffffffffffffffffffffffffffffffffff16611ee99092919063ffffffff16565b8473ffffffffffffffffffffffffffffffffffffffff1663313ce5676040518163ffffffff1660e01b8152600401602060405180830381865afa158015611290573d6000803e3d6000fd5b505050506040513d601f19601f820116820180604052508101906112b49190613c2f565b600a6112c09190613d8f565b6402540be4008e6060015188815181106112dd576112dc6135ed565b5b602002602001015160200151836112f49190613dda565b6112fe9190613dda565b6113089190613e4b565b886113139190613e7c565b97508173ffffffffffffffffffffffffffffffffffffffff1663371fd8e6826040518263ffffffff1660e01b815260040161134e9190612b07565b600060405180830381600087803b15801561136857600080fd5b505af115801561137c573d6000803e3d6000fd5b5050505060008573ffffffffffffffffffffffffffffffffffffffff166370a08231306040518263ffffffff1660e01b81526004016113bb919061346a565b602060405180830381865afa1580156113d8573d6000803e3d6000fd5b505050506040513d601f19601f820116820180604052508101906113fc919061342e565b03611429576114288e60000151878151811061141b5761141a6135ed565b5b602002602001015161201f565b5b8d6000015186815181106114405761143f6135ed565b5b60200260200101513373ffffffffffffffffffffffffffffffffffffffff167fbbcbf19996438658763b0f9ad172f8c59ff19bfff8c292350b982fee454a94bb8342604051611490929190613eb0565b60405180910390a3505050505080806114a890613674565b915050610e27565b5060006114bb61203d565b905060006114c76120b0565b8a60400151856114d79190613dda565b6114e19190613e4b565b90506000670de0b6b3a7640000905060006115048b600001518c60400151611b7a565b90508715801561151f5750828761151b9190613e7c565b8110155b156115515780670de0b6b3a7640000848961153a9190613e7c565b6115449190613dda565b61154e9190613e4b565b91505b60004711156115a2576115a1670de0b6b3a764000083476115729190613dda565b61157c9190613e4b565b3373ffffffffffffffffffffffffffffffffffffffff166120ba90919063ffffffff16565b5b60005b845181101561173c5760006115d58683815181106115c6576115c56135ed565b5b602002602001015160016121ba565b905060008173ffffffffffffffffffffffffffffffffffffffff166370a08231306040518263ffffffff1660e01b8152600401611612919061346a565b602060405180830381865afa15801561162f573d6000803e3d6000fd5b505050506040513d601f19601f82011682018060405250810190611653919061342e565b905061169e33670de0b6b3a7640000878461166e9190613dda565b6116789190613e4b565b8473ffffffffffffffffffffffffffffffffffffffff166122479092919063ffffffff16565b8683815181106116b1576116b06135ed565b5b60200260200101513373ffffffffffffffffffffffffffffffffffffffff167f1f2bf5ae7d7e593826dd3036889af15fa84a420d83ef136e4e90b0dd5dca181f670de0b6b3a764000088856117069190613dda565b6117109190613e4b565b4260405161171f929190613eb0565b60405180910390a35050808061173490613674565b9150506115a5565b5060006117488c610632565b905088156117f857600061175f8d60200151611c27565b1461179f576040517f08c379a000000000000000000000000000000000000000000000000000000000815260040161179690613f4b565b60405180910390fd5b60006117b38d600001518e60400151611b7a565b146117f3576040517f08c379a00000000000000000000000000000000000000000000000000000000081526004016117ea90613fdd565b60405180910390fd5b611843565b6118006107f2565b811115611842576040517f08c379a0000000000000000000000000000000000000000000000000000000008152600401611839906140e1565b60405180910390fd5b5b670de0b6b3a764000081101561188e576040517f08c379a000000000000000000000000000000000000000000000000000000000815260040161188590614199565b60405180910390fd5b8815153373ffffffffffffffffffffffffffffffffffffffff167f567a14a68e97f07d1b5c5362f179dd20f286531d7d15e7d1318315e7777698fa8d8d8b8987426040516118e1969594939291906141b9565b60405180910390a350505050505050505050505050565b61190061237d565b60010160009054906101000a900473ffffffffffffffffffffffffffffffffffffffff1673ffffffffffffffffffffffffffffffffffffffff163373ffffffffffffffffffffffffffffffffffffffff1614611991576040517f08c379a00000000000000000000000000000000000000000000000000000000081526004016119889061428c565b60405180910390fd5b565b6000807fd1108d050817594bf0342a1efabf4b67ac957933bf3086e13db796e80bc6b66690508091505090565b606060008251905060006119d26123aa565b9050600081836119e29190613e7c565b90506000369050821115611a22576040517f5796f78a00000000000000000000000000000000000000000000000000000000815260040160405180910390fd5b6060604051905081815285602001848101826020015b81831015611a555782518152602083019250602081019050611a38565b5050508283360385602001830137602084840182010160405280945050505050919050565b606082611b71576000825103611abc576040517f567fe27a00000000000000000000000000000000000000000000000000000000815260040160405180910390fd5b600060208301517f08c379a00000000000000000000000000000000000000000000000000000000081149150508015611b34576060604484019050806040517f0f7e8278000000000000000000000000000000000000000000000000000000008152600401611b2b91906142f0565b60405180910390fd5b826040517ffd36fde3000000000000000000000000000000000000000000000000000000008152600401611b68919061435c565b60405180910390fd5b81905092915050565b6000611c0c611b8f637a70bcce60e01b610b8e565b637a70bcce60e01b8585604051602401611baa9291906143ed565b604051602081830303815290604052907bffffffffffffffffffffffffffffffffffffffffffffffffffffffff19166020820180517bffffffffffffffffffffffffffffffffffffffffffffffffffffffff8381831617835250505050610c18565b806020019051810190611c1f919061342e565b905092915050565b6000611cb7611c3c63e28a5ad360e01b610b8e565b63e28a5ad360e01b84604051602401611c559190614424565b604051602081830303815290604052907bffffffffffffffffffffffffffffffffffffffffffffffffffffffff19166020820180517bffffffffffffffffffffffffffffffffffffffffffffffffffffffff8381831617835250505050610c18565b806020019051810190611cca919061342e565b9050919050565b6000611d61611ce663c3abc37660e01b610b8e565b63c3abc37660e01b84604051602401611cff91906131b9565b604051602081830303815290604052907bffffffffffffffffffffffffffffffffffffffffffffffffffffffff19166020820180517bffffffffffffffffffffffffffffffffffffffffffffffffffffffff8381831617835250505050610c18565b806020019051810190611d7491906134b1565b9050919050565b600073f3978209b7cff2b90100c6f87cec77de928ed58e905090565b6000808573ffffffffffffffffffffffffffffffffffffffff166323b872dd868686604051602401611dcb93929190614446565b6040516020818303038152906040529060e01b6020820180517bffffffffffffffffffffffffffffffffffffffffffffffffffffffff8381831617835250505050604051611e1991906139f2565b6000604051808303816000865af19150503d8060008114611e56576040519150601f19603f3d011682016040523d82523d6000602084013e611e5b565b606091505b5091509150818015611e895750600081511480611e88575080806020019051810190611e8791906134b1565b5b5b611ec8576040517f08c379a0000000000000000000000000000000000000000000000000000000008152600401611ebf906144ef565b60405180910390fd5b505050505050565b6000818310611edf5781611ee1565b825b905092915050565b6000808473ffffffffffffffffffffffffffffffffffffffff1663095ea7b38585604051602401611f1b92919061361c565b6040516020818303038152906040529060e01b6020820180517bffffffffffffffffffffffffffffffffffffffffffffffffffffffff8381831617835250505050604051611f6991906139f2565b6000604051808303816000865af19150503d8060008114611fa6576040519150601f19603f3d011682016040523d82523d6000602084013e611fab565b606091505b5091509150818015611fd95750600081511480611fd8575080806020019051810190611fd791906134b1565b5b5b612018576040517f08c379a000000000000000000000000000000000000000000000000000000000815260040161200f90614581565b60405180910390fd5b5050505050565b600061202961237d565b9050612038816004018361241a565b505050565b6060600061204961237d565b9050806004016000016000016000016000018054806020026020016040519081016040528092919081815260200182805480156120a557602002820191906000526020600020905b815481526020019060010190808311612091575b505050505091505090565b60006103e8905090565b60008273ffffffffffffffffffffffffffffffffffffffff1682600067ffffffffffffffff8111156120ef576120ee61281f565b5b6040519080825280601f01601f1916602001820160405280156121215781602001600182028036833780820191505090505b5060405161212f91906139f2565b60006040518083038185875af1925050503d806000811461216c576040519150601f19603f3d011682016040523d82523d6000602084013e612171565b606091505b50509050806121b5576040517f08c379a00000000000000000000000000000000000000000000000000000000081526004016121ac90614613565b60405180910390fd5b505050565b60006121c4611d7b565b73ffffffffffffffffffffffffffffffffffffffff166325eb876f84846040518363ffffffff1660e01b81526004016121fe929190613b99565b602060405180830381865afa15801561221b573d6000803e3d6000fd5b505050506040513d601f19601f8201168201806040525081019061223f9190613954565b905092915050565b6000808473ffffffffffffffffffffffffffffffffffffffff1663a9059cbb858560405160240161227992919061361c565b6040516020818303038152906040529060e01b6020820180517bffffffffffffffffffffffffffffffffffffffffffffffffffffffff83818316178352505050506040516122c791906139f2565b6000604051808303816000865af19150503d8060008114612304576040519150601f19603f3d011682016040523d82523d6000602084013e612309565b606091505b5091509150818015612337575060008151148061233657508080602001905181019061233591906134b1565b5b5b612376576040517f08c379a000000000000000000000000000000000000000000000000000000000815260040161236d906146a5565b60405180910390fd5b5050505050565b6000807f8d5bb42e0ac1496a2c326edc9c00758985246e6c2bb146d6c2f4a0d509e0960a90508091505090565b6000806123b5612431565b905060006123c282612542565b61ffff1690506002826123d59190613e7c565b915060005b818110156124115760006123ed8461259e565b905080846123fb9190613e7c565b935050808061240990613674565b9150506123da565b50819250505090565b600061242983600001836125dd565b905092915050565b60008060203603356602ed57011e000081166602ed57011e00001491505080612486576040517fe7764c9e00000000000000000000000000000000000000000000000000000000815260040160405180910390fd5b600080369050602911156124c6576040517f5796f78a00000000000000000000000000000000000000000000000000000000815260040160405180910390fd5b602936033590506000600960038362ffffff166124e39190613e7c565b6124ed9190613e7c565b905060003690506002826125019190613e7c565b1115612539576040517fc30a7bd700000000000000000000000000000000000000000000000000000000815260040160405180910390fd5b80935050505090565b6000806020836125529190613e7c565b90506000369050811115612592576040517f5796f78a00000000000000000000000000000000000000000000000000000000815260040160405180910390fd5b80360335915050919050565b60008060006125ac84612616565b91509150604e8160206125bf9190613e7c565b836125ca9190613dda565b6125d49190613e7c565b92505050919050565b60008260020160008381526020019081526020016000206000905561260e828460000161268c90919063ffffffff16565b905092915050565b600080600080600060418661262b9190613e7c565b9050600061265260208361263f9190613e7c565b60003690506126a390919063ffffffff16565b90508035935061266c6003826126a390919063ffffffff16565b9050803592508362ffffff1695508263ffffffff16945050505050915091565b600061269b83600001836126b9565b905092915050565b600081836126b19190613bc2565b905092915050565b600080836001016000848152602001908152602001600020549050600081146127c15760006001826126eb9190613bc2565b90506000600186600001805490506127039190613bc2565b9050818114612772576000866000018281548110612724576127236135ed565b5b9060005260206000200154905080876000018481548110612748576127476135ed565b5b90600052602060002001819055508387600101600083815260200190815260200160002081905550505b85600001805480612786576127856146c5565b5b6001900381819060005260206000200160009055905585600101600086815260200190815260200160002060009055600193505050506127c7565b60009150505b92915050565b6040518060800160405280606081526020016060815260200160608152602001606081525090565b6000604051905090565b600080fd5b600080fd5b600080fd5b6000601f19601f8301169050919050565b7f4e487b7100000000000000000000000000000000000000000000000000000000600052604160045260246000fd5b6128578261280e565b810181811067ffffffffffffffff821117156128765761287561281f565b5b80604052505050565b60006128896127f5565b9050612895828261284e565b919050565b600067ffffffffffffffff8211156128b5576128b461281f565b5b602082029050602081019050919050565b600080fd5b6000819050919050565b6128de816128cb565b81146128e957600080fd5b50565b6000813590506128fb816128d5565b92915050565b600061291461290f8461289a565b61287f565b90508083825260208201905060208402830185811115612937576129366128c6565b5b835b81811015612960578061294c88826128ec565b845260208401935050602081019050612939565b5050509392505050565b600082601f83011261297f5761297e612809565b5b813561298f848260208601612901565b91505092915050565b6000602082840312156129ae576129ad6127ff565b5b600082013567ffffffffffffffff8111156129cc576129cb612804565b5b6129d88482850161296a565b91505092915050565b600081519050919050565b600082825260208201905092915050565b6000819050602082019050919050565b6000819050919050565b612a2081612a0d565b82525050565b6000612a328383612a17565b60208301905092915050565b6000602082019050919050565b6000612a56826129e1565b612a6081856129ec565b9350612a6b836129fd565b8060005b83811015612a9c578151612a838882612a26565b9750612a8e83612a3e565b925050600181019050612a6f565b5085935050505092915050565b60006020820190508181036000830152612ac38184612a4b565b905092915050565b600060208284031215612ae157612ae06127ff565b5b6000612aef848285016128ec565b91505092915050565b612b0181612a0d565b82525050565b6000602082019050612b1c6000830184612af8565b92915050565b600067ffffffffffffffff821115612b3d57612b3c61281f565b5b602082029050602081019050919050565b612b5781612a0d565b8114612b6257600080fd5b50565b600081359050612b7481612b4e565b92915050565b6000612b8d612b8884612b22565b61287f565b90508083825260208201905060208402830185811115612bb057612baf6128c6565b5b835b81811015612bd95780612bc58882612b65565b845260208401935050602081019050612bb2565b5050509392505050565b600082601f830112612bf857612bf7612809565b5b8135612c08848260208601612b7a565b91505092915050565b600080600060608486031215612c2a57612c296127ff565b5b600084013567ffffffffffffffff811115612c4857612c47612804565b5b612c548682870161296a565b935050602084013567ffffffffffffffff811115612c7557612c74612804565b5b612c8186828701612be3565b9250506040612c9286828701612b65565b9150509250925092565b600080fd5b600080fd5b600067ffffffffffffffff821115612cc157612cc061281f565b5b602082029050602081019050919050565b600060408284031215612ce857612ce7612c9c565b5b612cf2604061287f565b90506000612d02848285016128ec565b6000830152506020612d1684828501612b65565b60208301525092915050565b6000612d35612d3084612ca6565b61287f565b90508083825260208201905060408402830185811115612d5857612d576128c6565b5b835b81811015612d815780612d6d8882612cd2565b845260208401935050604081019050612d5a565b5050509392505050565b600082601f830112612da057612d9f612809565b5b8135612db0848260208601612d22565b91505092915050565b600060808284031215612dcf57612dce612c9c565b5b612dd9608061287f565b9050600082013567ffffffffffffffff811115612df957612df8612ca1565b5b612e0584828501612d8b565b600083015250602082013567ffffffffffffffff811115612e2957612e28612ca1565b5b612e3584828501612d8b565b602083015250604082013567ffffffffffffffff811115612e5957612e58612ca1565b5b612e6584828501612d8b565b604083015250606082013567ffffffffffffffff811115612e8957612e88612ca1565b5b612e9584828501612d8b565b60608301525092915050565b600060208284031215612eb757612eb66127ff565b5b600082013567ffffffffffffffff811115612ed557612ed4612804565b5b612ee184828501612db9565b91505092915050565b600067ffffffffffffffff821115612f0557612f0461281f565b5b602082029050602081019050919050565b600073ffffffffffffffffffffffffffffffffffffffff82169050919050565b6000612f4182612f16565b9050919050565b612f5181612f36565b8114612f5c57600080fd5b50565b600081359050612f6e81612f48565b92915050565b6000612f87612f8284612eea565b61287f565b90508083825260208201905060208402830185811115612faa57612fa96128c6565b5b835b81811015612fd35780612fbf8882612f5f565b845260208401935050602081019050612fac565b5050509392505050565b600082601f830112612ff257612ff1612809565b5b8135613002848260208601612f74565b91505092915050565b600060208284031215613021576130206127ff565b5b600082013567ffffffffffffffff81111561303f5761303e612804565b5b61304b84828501612fdd565b91505092915050565b600081519050919050565b600082825260208201905092915050565b6000819050602082019050919050565b613089816128cb565b82525050565b6040820160008201516130a56000850182613080565b5060208201516130b86020850182612a17565b50505050565b60006130ca838361308f565b60408301905092915050565b6000602082019050919050565b60006130ee82613054565b6130f8818561305f565b935061310383613070565b8060005b8381101561313457815161311b88826130be565b9750613126836130d6565b925050600181019050613107565b5085935050505092915050565b6000608083016000830151848203600086015261315e82826130e3565b9150506020830151848203602086015261317882826130e3565b9150506040830151848203604086015261319282826130e3565b915050606083015184820360608601526131ac82826130e3565b9150508091505092915050565b600060208201905081810360008301526131d38184613141565b905092915050565b6000602082840312156131f1576131f06127ff565b5b60006131ff84828501612f5f565b91505092915050565b60008115159050919050565b61321d81613208565b82525050565b60006020820190506132386000830184613214565b92915050565b600081519050919050565b600082825260208201905092915050565b6000819050602082019050919050565b60006132768383613080565b60208301905092915050565b6000602082019050919050565b600061329a8261323e565b6132a48185613249565b93506132af8361325a565b8060005b838110156132e05781516132c7888261326a565b97506132d283613282565b9250506001810190506132b3565b5085935050505092915050565b60006020820190508181036000830152613307818461328f565b905092915050565b60008151905061331e81612b4e565b92915050565b600061333761333284612b22565b61287f565b9050808382526020820190506020840283018581111561335a576133596128c6565b5b835b81811015613383578061336f888261330f565b84526020840193505060208101905061335c565b5050509392505050565b600082601f8301126133a2576133a1612809565b5b81516133b2848260208601613324565b91505092915050565b6000602082840312156133d1576133d06127ff565b5b600082015167ffffffffffffffff8111156133ef576133ee612804565b5b6133fb8482850161338d565b91505092915050565b61340d816128cb565b82525050565b60006020820190506134286000830184613404565b92915050565b600060208284031215613444576134436127ff565b5b60006134528482850161330f565b91505092915050565b61346481612f36565b82525050565b600060208201905061347f600083018461345b565b92915050565b61348e81613208565b811461349957600080fd5b50565b6000815190506134ab81613485565b92915050565b6000602082840312156134c7576134c66127ff565b5b60006134d58482850161349c565b91505092915050565b600082825260208201905092915050565b7f4f6e6c792077686974656c6973746564206c697175696461746f72732063616e60008201527f20657865637574652074686973206d6574686f64000000000000000000000000602082015250565b600061354b6034836134de565b9150613556826134ef565b604082019050919050565b6000602082019050818103600083015261357a8161353e565b9050919050565b7f5265656e7472616e637947756172643a207265656e7472616e742063616c6c00600082015250565b60006135b7601f836134de565b91506135c282613581565b602082019050919050565b600060208201905081810360008301526135e6816135aa565b9050919050565b7f4e487b7100000000000000000000000000000000000000000000000000000000600052603260045260246000fd5b6000604082019050613631600083018561345b565b61363e6020830184612af8565b9392505050565b7f4e487b7100000000000000000000000000000000000000000000000000000000600052601160045260246000fd5b600061367f82612a0d565b91507fffffffffffffffffffffffffffffffffffffffffffffffffffffffffffffffff82036136b1576136b0613645565b5b600182019050919050565b6000815190506136cb816128d5565b92915050565b6000604082840312156136e7576136e6612c9c565b5b6136f1604061287f565b90506000613701848285016136bc565b60008301525060206137158482850161330f565b60208301525092915050565b600061373461372f84612ca6565b61287f565b90508083825260208201905060408402830185811115613757576137566128c6565b5b835b81811015613780578061376c88826136d1565b845260208401935050604081019050613759565b5050509392505050565b600082601f83011261379f5761379e612809565b5b81516137af848260208601613721565b91505092915050565b6000608082840312156137ce576137cd612c9c565b5b6137d8608061287f565b9050600082015167ffffffffffffffff8111156137f8576137f7612ca1565b5b6138048482850161378a565b600083015250602082015167ffffffffffffffff81111561382857613827612ca1565b5b6138348482850161378a565b602083015250604082015167ffffffffffffffff81111561385857613857612ca1565b5b6138648482850161378a565b604083015250606082015167ffffffffffffffff81111561388857613887612ca1565b5b6138948482850161378a565b60608301525092915050565b6000602082840312156138b6576138b56127ff565b5b600082015167ffffffffffffffff8111156138d4576138d3612804565b5b6138e0848285016137b8565b91505092915050565b60007fffffffff0000000000000000000000000000000000000000000000000000000082169050919050565b61391e816138e9565b82525050565b60006020820190506139396000830184613915565b92915050565b60008151905061394e81612f48565b92915050565b60006020828403121561396a576139696127ff565b5b60006139788482850161393f565b91505092915050565b600081519050919050565b600081905092915050565b60005b838110156139b557808201518184015260208101905061399a565b60008484015250505050565b60006139cc82613981565b6139d6818561398c565b93506139e6818560208601613997565b80840191505092915050565b60006139fe82846139c1565b915081905092915050565b7f446566696e6564206c69717569646174696f6e20626f6e75732068696768657260008201527f207468616e206d61782e2076616c756500000000000000000000000000000000602082015250565b6000613a656030836134de565b9150613a7082613a09565b604082019050919050565b60006020820190508181036000830152613a9481613a58565b9050919050565b7f43616e6e6f742073656c6c6f7574206120736f6c76656e74206163636f756e74600082015250565b6000613ad16020836134de565b9150613adc82613a9b565b602082019050919050565b60006020820190508181036000830152613b0081613ac4565b9050919050565b7f547279696e6720746f206c69717569646174652062616e6b72757074206c6f6160008201527f6e00000000000000000000000000000000000000000000000000000000000000602082015250565b6000613b636021836134de565b9150613b6e82613b07565b604082019050919050565b60006020820190508181036000830152613b9281613b56565b9050919050565b6000604082019050613bae6000830185613404565b613bbb6020830184613214565b9392505050565b6000613bcd82612a0d565b9150613bd883612a0d565b9250828203905081811115613bf057613bef613645565b5b92915050565b600060ff82169050919050565b613c0c81613bf6565b8114613c1757600080fd5b50565b600081519050613c2981613c03565b92915050565b600060208284031215613c4557613c446127ff565b5b6000613c5384828501613c1a565b91505092915050565b60008160011c9050919050565b6000808291508390505b6001851115613cb357808604811115613c8f57613c8e613645565b5b6001851615613c9e5780820291505b8081029050613cac85613c5c565b9450613c73565b94509492505050565b600082613ccc5760019050613d88565b81613cda5760009050613d88565b8160018114613cf05760028114613cfa57613d29565b6001915050613d88565b60ff841115613d0c57613d0b613645565b5b8360020a915084821115613d2357613d22613645565b5b50613d88565b5060208310610133831016604e8410600b8410161715613d5e5782820a905083811115613d5957613d58613645565b5b613d88565b613d6b8484846001613c69565b92509050818404811115613d8257613d81613645565b5b81810290505b9392505050565b6000613d9a82612a0d565b9150613da583613bf6565b9250613dd27fffffffffffffffffffffffffffffffffffffffffffffffffffffffffffffffff8484613cbc565b905092915050565b6000613de582612a0d565b9150613df083612a0d565b9250828202613dfe81612a0d565b91508282048414831517613e1557613e14613645565b5b5092915050565b7f4e487b7100000000000000000000000000000000000000000000000000000000600052601260045260246000fd5b6000613e5682612a0d565b9150613e6183612a0d565b925082613e7157613e70613e1c565b5b828204905092915050565b6000613e8782612a0d565b9150613e9283612a0d565b9250828201905080821115613eaa57613ea9613645565b5b92915050565b6000604082019050613ec56000830185612af8565b613ed26020830184612af8565b9392505050565b7f4865616c696e672061206c6f616e206d75737420656e6420757020776974682060008201527f3020646562740000000000000000000000000000000000000000000000000000602082015250565b6000613f356026836134de565b9150613f4082613ed9565b604082019050919050565b60006020820190508181036000830152613f6481613f28565b9050919050565b7f4865616c696e672061206c6f616e206d75737420656e6420757020776974682060008201527f3020746f74616c2076616c756500000000000000000000000000000000000000602082015250565b6000613fc7602d836134de565b9150613fd282613f6b565b604082019050919050565b60006020820190508181036000830152613ff681613fba565b9050919050565b7f54686973206f7065726174696f6e20776f756c6420726573756c7420696e206160008201527f206c6f616e2077697468206865616c746820726174696f20686967686572207460208201527f68616e204d617869756d204865616c746820526174696f20776869636820776f60408201527f756c6420707574206c6f616e2773206f776e657220696e2061207269736b206f60608201527f6620616e20756e6e65636573736172696c792068696768206c6f737300000000608082015250565b60006140cb609c836134de565b91506140d682613ffd565b60a082019050919050565b600060208201905081810360008301526140fa816140be565b9050919050565b7f54686973206f7065726174696f6e20776f756c64206e6f7420726573756c742060008201527f696e206272696e67696e6720746865206c6f616e206261636b20746f2061207360208201527f6f6c76656e742073746174650000000000000000000000000000000000000000604082015250565b6000614183604c836134de565b915061418e82614101565b606082019050919050565b600060208201905081810360008301526141b281614176565b9050919050565b600060c0820190506141ce6000830189612af8565b6141db6020830188612af8565b6141e86040830187612af8565b6141f56060830186612af8565b6142026080830185612af8565b61420f60a0830184612af8565b979650505050505050565b7f4469616d6f6e6453746f726167654c69623a204d75737420626520636f6e747260008201527f616374206f776e65720000000000000000000000000000000000000000000000602082015250565b60006142766029836134de565b91506142818261421a565b604082019050919050565b600060208201905081810360008301526142a581614269565b9050919050565b600081519050919050565b60006142c2826142ac565b6142cc81856134de565b93506142dc818560208601613997565b6142e58161280e565b840191505092915050565b6000602082019050818103600083015261430a81846142b7565b905092915050565b600082825260208201905092915050565b600061432e82613981565b6143388185614312565b9350614348818560208601613997565b6143518161280e565b840191505092915050565b600060208201905081810360008301526143768184614323565b905092915050565b600082825260208201905092915050565b600061439a82613054565b6143a4818561437e565b93506143af83613070565b8060005b838110156143e05781516143c788826130be565b97506143d2836130d6565b9250506001810190506143b3565b5085935050505092915050565b60006040820190508181036000830152614407818561438f565b9050818103602083015261441b818461438f565b90509392505050565b6000602082019050818103600083015261443e818461438f565b905092915050565b600060608201905061445b600083018661345b565b614468602083018561345b565b6144756040830184612af8565b949350505050565b7f5472616e7366657248656c7065723a3a7472616e7366657246726f6d3a20747260008201527f616e7366657246726f6d206661696c6564000000000000000000000000000000602082015250565b60006144d96031836134de565b91506144e48261447d565b604082019050919050565b60006020820190508181036000830152614508816144cc565b9050919050565b7f5472616e7366657248656c7065723a3a73616665417070726f76653a2061707060008201527f726f7665206661696c6564000000000000000000000000000000000000000000602082015250565b600061456b602b836134de565b91506145768261450f565b604082019050919050565b6000602082019050818103600083015261459a8161455e565b9050919050565b7f5472616e7366657248656c7065723a3a736166655472616e736665724554483a60008201527f20455448207472616e73666572206661696c6564000000000000000000000000602082015250565b60006145fd6034836134de565b9150614608826145a1565b604082019050919050565b6000602082019050818103600083015261462c816145f0565b9050919050565b7f5472616e7366657248656c7065723a3a736166655472616e736665723a20747260008201527f616e73666572206661696c656400000000000000000000000000000000000000602082015250565b600061468f602d836134de565b915061469a82614633565b604082019050919050565b600060208201905081810360008301526146be81614682565b9050919050565b7f4e487b7100000000000000000000000000000000000000000000000000000000600052603160045260246000fdfea2646970667358221220dbcd05355188ab69673d79642eb81ee5d52785ca095ed80c9c3222181589d42864736f6c63430008110033",
  "devdoc": {
    "events": {
      "Liquidated(address,bool,uint256,uint256,uint256,uint256,uint256,uint256)": {
        "details": "emitted after a successful liquidation operation",
        "params": {
          "bonusInUSD": "an amount of bonus (USD) received by the liquidator",
          "healing": "was the liquidation covering the bad debt (unprofitable liquidation)",
          "health": "a new health ratio after the liquidation operation",
          "initialDebt": "sum of all debts before the liquidation",
          "initialTotal": "total value of assets before the liquidation",
          "liquidator": "the address that initiated the liquidation operation",
          "repayAmount": "requested amount (USD) of liquidation",
          "timestamp": "a time of the liquidation*"
        }
      },
      "LiquidationRepay(address,bytes32,uint256,uint256)": {
        "details": "emitted when funds are repaid to the pool during a liquidation",
        "params": {
          "amount": "of repaid funds",
          "asset": "asset repaid by a liquidator",
          "liquidator": "the address initiating repayment",
          "timestamp": "of the repayment*"
        }
      },
      "LiquidationTransfer(address,bytes32,uint256,uint256)": {
        "details": "emitted when funds are sent to liquidator during liquidation",
        "params": {
          "amount": "of sent funds",
          "asset": "token sent to a liquidator",
          "liquidator": "the address initiating repayment",
          "timestamp": "of the transfer*"
        }
      },
      "LiquidatorDelisted(address,address,uint256)": {
        "details": "emitted when a liquidator gets delisted",
        "params": {
          "liquidator": "the address being delisted",
          "performer": "the address initiating delisting",
          "timestamp": "of the delisting*"
        }
      },
      "LiquidatorWhitelisted(address,address,uint256)": {
        "details": "emitted when a new liquidator gets whitelisted",
        "params": {
          "liquidator": "the address being whitelisted",
          "performer": "the address initiating whitelisting",
          "timestamp": "of the whitelisting*"
        }
      }
    },
    "kind": "dev",
    "methods": {
      "liquidateLoan(bytes32[],uint256[],uint256)": {
        "details": "This function uses the redstone-evm-connector",
        "params": {
          "_liquidationBonusPercent": "per mille bonus for liquidator. Must be lower than or equal to  getMaxLiquidationBonus()*",
          "amountsToRepay": "utin256[] amounts of tokens provided by liquidator for repayment",
          "assetsToRepay": "bytes32[] names of tokens provided by liquidator for repayment"
        }
      },
      "unsafeLiquidateLoan(bytes32[],uint256[],uint256)": {
        "details": "This function uses the redstone-evm-connector",
        "params": {
          "_liquidationBonusPercent": "per mille bonus for liquidator. Must be lower than or equal to getMaxliquidationBonus()*",
          "amountsToRepay": "utin256[] amounts of tokens provided by liquidator for repayment",
          "assetsToRepay": "bytes32[] names of tokens provided by liquidator for repayment"
        }
      }
    },
    "version": 1
  },
  "userdoc": {
    "kind": "user",
    "methods": {
      "getMaxHealthAfterLiquidation()": {
        "notice": "Returns maximum acceptable health ratio after liquidation*"
      },
      "getMaxLiquidationBonus()": {
        "notice": "Returns maximum acceptable liquidation bonus (bonus is provided by a liquidator)*"
      },
      "liquidateLoan(bytes32[],uint256[],uint256)": {
        "notice": "This function can be accessed by any user when Prime Account is insolvent and liquidate part of the loan with his approved tokens. A liquidator has to approve adequate amount of tokens to repay debts to liquidity pools if there is not enough of them in a SmartLoan. For that he will receive the corresponding amount from SmartLoan with the same USD value + bonus."
      },
      "unsafeLiquidateLoan(bytes32[],uint256[],uint256)": {
        "notice": "This function can be accessed by any user when Prime Account is insolvent or bankrupt and repay part of the loan with his approved tokens. BE CAREFUL: in contrast to liquidateLoan() method, this one doesn't necessarily return tokens to liquidator, nor give him a bonus. It's purpose is to bring the loan to a solvent position even if it's unprofitable for liquidator."
      }
    },
    "version": 1
  },
  "storageLayout": {
    "storage": [
      {
        "astId": 9633,
        "contract": "contracts/facets/SmartLoanLiquidationFacet.sol:SmartLoanLiquidationFacet",
        "label": "_status",
        "offset": 0,
        "slot": "0",
        "type": "t_uint256"
      }
    ],
    "types": {
      "t_uint256": {
        "encoding": "inplace",
        "label": "uint256",
        "numberOfBytes": "32"
      }
    }
  }
}