{
  "address": "0x42F6420BeB11bc760761Ba4263ee813dd61Aba7A",
  "abi": [
    {
      "inputs": [],
      "name": "CalldataMustHaveValidPayload",
      "type": "error"
    },
    {
      "inputs": [],
      "name": "CalldataOverOrUnderFlow",
      "type": "error"
    },
    {
      "inputs": [],
      "name": "EachSignerMustProvideTheSameValue",
      "type": "error"
    },
    {
      "inputs": [],
      "name": "EmptyCalldataPointersArr",
      "type": "error"
    },
    {
      "inputs": [],
      "name": "IncorrectUnsignedMetadataSize",
      "type": "error"
    },
    {
      "inputs": [
        {
          "internalType": "uint256",
          "name": "receviedSignersCount",
          "type": "uint256"
        },
        {
          "internalType": "uint256",
          "name": "requiredSignersCount",
          "type": "uint256"
        }
      ],
      "name": "InsufficientNumberOfUniqueSigners",
      "type": "error"
    },
    {
      "inputs": [],
      "name": "InvalidCalldataPointer",
      "type": "error"
    },
    {
      "inputs": [
        {
          "internalType": "bytes",
          "name": "result",
          "type": "bytes"
        }
      ],
      "name": "ProxyCalldataFailedWithCustomError",
      "type": "error"
    },
    {
      "inputs": [
        {
          "internalType": "string",
          "name": "message",
          "type": "string"
        }
      ],
      "name": "ProxyCalldataFailedWithStringMessage",
      "type": "error"
    },
    {
      "inputs": [],
      "name": "ProxyCalldataFailedWithoutErrMsg",
      "type": "error"
    },
    {
      "inputs": [
        {
          "internalType": "address",
          "name": "receivedSigner",
          "type": "address"
        }
      ],
      "name": "SignerNotAuthorised",
      "type": "error"
    },
    {
      "anonymous": false,
      "inputs": [
        {
          "indexed": true,
          "internalType": "address",
          "name": "user",
          "type": "address"
        },
        {
          "indexed": false,
          "internalType": "uint256",
          "name": "amount",
          "type": "uint256"
        },
        {
          "indexed": false,
          "internalType": "uint256",
          "name": "timestamp",
          "type": "uint256"
        }
      ],
      "name": "DepositNative",
      "type": "event"
    },
    {
      "anonymous": false,
      "inputs": [
        {
          "indexed": true,
          "internalType": "address",
          "name": "user",
          "type": "address"
        },
        {
          "indexed": false,
          "internalType": "uint256",
          "name": "amount",
          "type": "uint256"
        },
        {
          "indexed": false,
          "internalType": "uint256",
          "name": "timestamp",
          "type": "uint256"
        }
      ],
      "name": "UnwrapAndWithdraw",
      "type": "event"
    },
    {
      "anonymous": false,
      "inputs": [
        {
          "indexed": true,
          "internalType": "address",
          "name": "user",
          "type": "address"
        },
        {
          "indexed": false,
          "internalType": "uint256",
          "name": "amount",
          "type": "uint256"
        },
        {
          "indexed": false,
          "internalType": "uint256",
          "name": "timestamp",
          "type": "uint256"
        }
      ],
      "name": "WrapNative",
      "type": "event"
    },
    {
      "inputs": [
        {
          "internalType": "bytes32[]",
          "name": "assetsToRepay",
          "type": "bytes32[]"
        }
      ],
      "name": "_getAllPricesForLiquidation",
      "outputs": [
        {
          "components": [
            {
              "components": [
                {
                  "internalType": "bytes32",
                  "name": "asset",
                  "type": "bytes32"
                },
                {
                  "internalType": "uint256",
                  "name": "price",
                  "type": "uint256"
                }
              ],
              "internalType": "struct SolvencyFacetProd.AssetPrice[]",
              "name": "ownedAssetsPrices",
              "type": "tuple[]"
            },
            {
              "components": [
                {
                  "internalType": "bytes32",
                  "name": "asset",
                  "type": "bytes32"
                },
                {
                  "internalType": "uint256",
                  "name": "price",
                  "type": "uint256"
                }
              ],
              "internalType": "struct SolvencyFacetProd.AssetPrice[]",
              "name": "debtAssetsPrices",
              "type": "tuple[]"
            },
            {
              "components": [
                {
                  "internalType": "bytes32",
                  "name": "asset",
                  "type": "bytes32"
                },
                {
                  "internalType": "uint256",
                  "name": "price",
                  "type": "uint256"
                }
              ],
              "internalType": "struct SolvencyFacetProd.AssetPrice[]",
              "name": "stakedPositionsPrices",
              "type": "tuple[]"
            },
            {
              "components": [
                {
                  "internalType": "bytes32",
                  "name": "asset",
                  "type": "bytes32"
                },
                {
                  "internalType": "uint256",
                  "name": "price",
                  "type": "uint256"
                }
              ],
              "internalType": "struct SolvencyFacetProd.AssetPrice[]",
              "name": "assetsToRepayPrices",
              "type": "tuple[]"
            }
          ],
          "internalType": "struct SolvencyFacetProd.CachedPrices",
          "name": "result",
          "type": "tuple"
        }
      ],
      "stateMutability": "nonpayable",
      "type": "function"
    },
    {
      "inputs": [],
      "name": "_getHealthRatio",
      "outputs": [
        {
          "internalType": "uint256",
          "name": "health",
          "type": "uint256"
        }
      ],
      "stateMutability": "nonpayable",
      "type": "function"
    },
    {
      "inputs": [
        {
          "components": [
            {
              "components": [
                {
                  "internalType": "bytes32",
                  "name": "asset",
                  "type": "bytes32"
                },
                {
                  "internalType": "uint256",
                  "name": "price",
                  "type": "uint256"
                }
              ],
              "internalType": "struct SolvencyFacetProd.AssetPrice[]",
              "name": "ownedAssetsPrices",
              "type": "tuple[]"
            },
            {
              "components": [
                {
                  "internalType": "bytes32",
                  "name": "asset",
                  "type": "bytes32"
                },
                {
                  "internalType": "uint256",
                  "name": "price",
                  "type": "uint256"
                }
              ],
              "internalType": "struct SolvencyFacetProd.AssetPrice[]",
              "name": "debtAssetsPrices",
              "type": "tuple[]"
            },
            {
              "components": [
                {
                  "internalType": "bytes32",
                  "name": "asset",
                  "type": "bytes32"
                },
                {
                  "internalType": "uint256",
                  "name": "price",
                  "type": "uint256"
                }
              ],
              "internalType": "struct SolvencyFacetProd.AssetPrice[]",
              "name": "stakedPositionsPrices",
              "type": "tuple[]"
            },
            {
              "components": [
                {
                  "internalType": "bytes32",
                  "name": "asset",
                  "type": "bytes32"
                },
                {
                  "internalType": "uint256",
                  "name": "price",
                  "type": "uint256"
                }
              ],
              "internalType": "struct SolvencyFacetProd.AssetPrice[]",
              "name": "assetsToRepayPrices",
              "type": "tuple[]"
            }
          ],
          "internalType": "struct SolvencyFacetProd.CachedPrices",
          "name": "cachedPrices",
          "type": "tuple"
        }
      ],
      "name": "_getHealthRatioWithPrices",
      "outputs": [
        {
          "internalType": "uint256",
          "name": "health",
          "type": "uint256"
        }
      ],
      "stateMutability": "nonpayable",
      "type": "function"
    },
    {
      "inputs": [],
      "name": "_resetPrimeAccountAssetsExposure",
      "outputs": [],
      "stateMutability": "nonpayable",
      "type": "function"
    },
    {
      "inputs": [],
      "name": "_setPrimeAccountAssetsExposure",
      "outputs": [],
      "stateMutability": "nonpayable",
      "type": "function"
    },
    {
      "inputs": [],
      "name": "depositNativeToken",
      "outputs": [],
      "stateMutability": "payable",
      "type": "function"
    },
    {
      "inputs": [
        {
          "internalType": "bytes32",
          "name": "symbol",
          "type": "bytes32"
        }
      ],
      "name": "getPrice",
      "outputs": [
        {
          "internalType": "uint256",
          "name": "price",
          "type": "uint256"
        }
      ],
      "stateMutability": "nonpayable",
      "type": "function"
    },
    {
      "inputs": [
        {
          "internalType": "bytes32[]",
          "name": "symbols",
          "type": "bytes32[]"
        }
      ],
      "name": "getPrices",
      "outputs": [
        {
          "internalType": "uint256[]",
          "name": "prices",
          "type": "uint256[]"
        }
      ],
      "stateMutability": "nonpayable",
      "type": "function"
    },
    {
      "inputs": [
        {
          "internalType": "uint256",
          "name": "_amount",
          "type": "uint256"
        }
      ],
      "name": "unwrapAndWithdraw",
      "outputs": [],
      "stateMutability": "payable",
      "type": "function"
    },
    {
      "inputs": [
        {
          "internalType": "uint256",
          "name": "amount",
          "type": "uint256"
        }
      ],
      "name": "wrapNativeToken",
      "outputs": [],
      "stateMutability": "nonpayable",
      "type": "function"
    }
  ],
  "transactionHash": "0xee40dc8a37017c3e7662f3f2986a854870dccb8a12922be77c3d00baba59de01",
  "args": [],
  "numDeployments": 3,
  "solcInputHash": "fa23c61f86cec8c7de13e8bfa631887b",
  "bytecode": "0x608060405234801561001057600080fd5b50612ecb806100206000396000f3fe6080604052600436106100915760003560e01c80637614738f116100595780637614738f1461018f57806379433d8b146101ab578063b2d40e73146101b5578063d75c7462146101f2578063f8f185531461021b57610091565b806326ee48361461009657806331d98b3f146100d357806339e2719e146101105780635b4fad9c1461013b5780636e3bfe9f14610152575b600080fd5b3480156100a257600080fd5b506100bd60048036038101906100b89190611b9d565b610232565b6040516100ca9190611cae565b60405180910390f35b3480156100df57600080fd5b506100fa60048036038101906100f59190611cd0565b6102dc565b6040516101079190611d0c565b60405180910390f35b34801561011c57600080fd5b50610125610386565b6040516101329190611d0c565b60405180910390f35b34801561014757600080fd5b50610150610423565b005b34801561015e57600080fd5b5061017960048036038101906101749190611f58565b6104a9565b6040516101869190611d0c565b60405180910390f35b6101a960048036038101906101a49190611fa1565b610553565b005b6101b36108ac565b005b3480156101c157600080fd5b506101dc60048036038101906101d79190611b9d565b610a80565b6040516101e99190612133565b60405180910390f35b3480156101fe57600080fd5b5061021960048036038101906102149190611fa1565b610b30565b005b34801561022757600080fd5b50610230610ccf565b005b60606102c26102476326ee483660e01b610d55565b6326ee483660e01b846040516024016102609190612204565b604051602081830303815290604052907bffffffffffffffffffffffffffffffffffffffffffffffffffffffff19166020820180517bffffffffffffffffffffffffffffffffffffffffffffffffffffffff8381831617835250505050610ddf565b8060200190518101906102d591906122fe565b9050919050565b600061036c6102f16331d98b3f60e01b610d55565b6331d98b3f60e01b8460405160240161030a9190612356565b604051602081830303815290604052907bffffffffffffffffffffffffffffffffffffffffffffffffffffffff19166020820180517bffffffffffffffffffffffffffffffffffffffffffffffffffffffff8381831617835250505050610ddf565b80602001905181019061037f9190612371565b9050919050565b600061040b61039b637914334f60e01b610d55565b637914334f60e01b604051602401604051602081830303815290604052907bffffffffffffffffffffffffffffffffffffffffffffffffffffffff19166020820180517bffffffffffffffffffffffffffffffffffffffffffffffffffffffff8381831617835250505050610ddf565b80602001905181019061041e9190612371565b905090565b6104a661043663b1c9fbc160e01b610d55565b63b1c9fbc160e01b604051602401604051602081830303815290604052907bffffffffffffffffffffffffffffffffffffffffffffffffffffffff19166020820180517bffffffffffffffffffffffffffffffffffffffffffffffffffffffff8381831617835250505050610ddf565b50565b60006105396104be63360398a360e01b610d55565b63360398a360e01b846040516024016104d79190612133565b604051602081830303815290604052907bffffffffffffffffffffffffffffffffffffffffffffffffffffffff19166020820180517bffffffffffffffffffffffffffffffffffffffffffffffffffffffff8381831617835250505050610ddf565b80602001905181019061054c9190612371565b9050919050565b61055b610e70565b6000610565610f0b565b9050818173ffffffffffffffffffffffffffffffffffffffff166370a08231306040518263ffffffff1660e01b81526004016105a191906123df565b602060405180830381865afa1580156105be573d6000803e3d6000fd5b505050506040513d601f19601f820116820180604052508101906105e29190612371565b1015610623576040517f08c379a000000000000000000000000000000000000000000000000000000000815260040161061a9061247d565b60405180910390fd5b8073ffffffffffffffffffffffffffffffffffffffff16632e1a7d4d836040518263ffffffff1660e01b815260040161065c9190611d0c565b600060405180830381600087803b15801561067657600080fd5b505af115801561068a573d6000803e3d6000fd5b5050505060008173ffffffffffffffffffffffffffffffffffffffff166370a08231306040518263ffffffff1660e01b81526004016106c991906123df565b602060405180830381865afa1580156106e6573d6000803e3d6000fd5b505050506040513d601f19601f8201168201806040525081019061070a9190612371565b036107205761071f61071a610f27565b610f4f565b5b600061072a610f6d565b90508073ffffffffffffffffffffffffffffffffffffffff1663adfe6a0f610750610f27565b856040518363ffffffff1660e01b815260040161076e92919061249d565b600060405180830381600087803b15801561078857600080fd5b505af115801561079c573d6000803e3d6000fd5b505050506107c9833373ffffffffffffffffffffffffffffffffffffffff16610f8990919063ffffffff16565b3373ffffffffffffffffffffffffffffffffffffffff167f83749ca044109081c911aa9255ba07ed5474bc491b48cce7fb0f503d368d5f3f34426040516108119291906124c6565b60405180910390a25050610823611089565b610862576040517f08c379a000000000000000000000000000000000000000000000000000000000815260040161085990612561565b60405180910390fd5b61086a611126565b6108a9576040517f08c379a00000000000000000000000000000000000000000000000000000000081526004016108a0906125f3565b60405180910390fd5b50565b60006108b6610f0b565b90508073ffffffffffffffffffffffffffffffffffffffff1663d0e30db0346040518263ffffffff1660e01b81526004016000604051808303818588803b15801561090057600080fd5b505af1158015610914573d6000803e3d6000fd5b505050505060008173ffffffffffffffffffffffffffffffffffffffff166370a08231306040518263ffffffff1660e01b815260040161095491906123df565b602060405180830381865afa158015610971573d6000803e3d6000fd5b505050506040513d601f19601f820116820180604052508101906109959190612371565b146109ac576109ab6109a5610f27565b826111c3565b5b60006109b6610f6d565b90508073ffffffffffffffffffffffffffffffffffffffff1663c3cc6c7a6109dc610f27565b346040518363ffffffff1660e01b81526004016109fa92919061249d565b600060405180830381600087803b158015610a1457600080fd5b505af1158015610a28573d6000803e3d6000fd5b505050503373ffffffffffffffffffffffffffffffffffffffff167f6bb902f8baf2580ae3dae24e58f4b874ecca85152076af921bfd172dce1c7e283442604051610a749291906124c6565b60405180910390a25050565b610a886119d2565b610b16610a9b63a3aa8d1e60e01b610d55565b63a3aa8d1e60e01b84604051602401610ab49190612204565b604051602081830303815290604052907bffffffffffffffffffffffffffffffffffffffffffffffffffffffff19166020820180517bffffffffffffffffffffffffffffffffffffffffffffffffffffffff8381831617835250505050610ddf565b806020019051810190610b2991906127f7565b9050919050565b610b38610e70565b47811115610b7b576040517f08c379a0000000000000000000000000000000000000000000000000000000008152600401610b729061288c565b60405180910390fd5b6000610b85610f0b565b90508073ffffffffffffffffffffffffffffffffffffffff1663d0e30db0836040518263ffffffff1660e01b81526004016000604051808303818588803b158015610bcf57600080fd5b505af1158015610be3573d6000803e3d6000fd5b505050505060008173ffffffffffffffffffffffffffffffffffffffff166370a08231306040518263ffffffff1660e01b8152600401610c2391906123df565b602060405180830381865afa158015610c40573d6000803e3d6000fd5b505050506040513d601f19601f82011682018060405250810190610c649190612371565b14610c7b57610c7a610c74610f27565b826111c3565b5b3373ffffffffffffffffffffffffffffffffffffffff167f31940b66d3ccbdf0631c8148b09a02f62900b42df4ac81ade597bd6bb610d5698342604051610cc39291906124c6565b60405180910390a25050565b610d52610ce263e017e12560e01b610d55565b63e017e12560e01b604051602401604051602081830303815290604052907bffffffffffffffffffffffffffffffffffffffffffffffffffffffff19166020820180517bffffffffffffffffffffffffffffffffffffffffffffffffffffffff8381831617835250505050610ddf565b50565b6000610d5f611295565b73ffffffffffffffffffffffffffffffffffffffff16630d741577836040518263ffffffff1660e01b8152600401610d9791906128e7565b602060405180830381865afa158015610db4573d6000803e3d6000fd5b505050506040513d601f19601f82011682018060405250810190610dd8919061292e565b9050919050565b60606000610dec836112b1565b90506000808573ffffffffffffffffffffffffffffffffffffffff1683604051610e1691906129cc565b600060405180830381855af49150503d8060008114610e51576040519150601f19603f3d011682016040523d82523d6000602084013e610e56565b606091505b5091509150610e65828261136b565b935050505092915050565b610e7861146b565b60010160009054906101000a900473ffffffffffffffffffffffffffffffffffffffff1673ffffffffffffffffffffffffffffffffffffffff163373ffffffffffffffffffffffffffffffffffffffff1614610f09576040517f08c379a0000000000000000000000000000000000000000000000000000000008152600401610f0090612a55565b60405180910390fd5b565b600073b31f66aa3c1e785363f0875a1b74e27b85fd66c7905090565b60007f4156415800000000000000000000000000000000000000000000000000000000905090565b6000610f5961146b565b9050610f688160040183611498565b505050565b600073f3978209b7cff2b90100c6f87cec77de928ed58e905090565b60008273ffffffffffffffffffffffffffffffffffffffff1682600067ffffffffffffffff811115610fbe57610fbd611a24565b5b6040519080825280601f01601f191660200182016040528015610ff05781602001600182028036833780820191505090505b50604051610ffe91906129cc565b60006040518083038185875af1925050503d806000811461103b576040519150601f19603f3d011682016040523d82523d6000602084013e611040565b606091505b5050905080611084576040517f08c379a000000000000000000000000000000000000000000000000000000000815260040161107b90612ae7565b60405180910390fd5b505050565b600061110e61109e633942a52e60e01b610d55565b633942a52e60e01b604051602401604051602081830303815290604052907bffffffffffffffffffffffffffffffffffffffffffffffffffffffff19166020820180517bffffffffffffffffffffffffffffffffffffffffffffffffffffffff8381831617835250505050610ddf565b8060200190518101906111219190612b3f565b905090565b60006111ab61113b635ce2395060e01b610d55565b635ce2395060e01b604051602401604051602081830303815290604052907bffffffffffffffffffffffffffffffffffffffffffffffffffffffff19166020820180517bffffffffffffffffffffffffffffffffffffffffffffffffffffffff8381831617835250505050610ddf565b8060200190518101906111be9190612b3f565b905090565b60008203611206576040517f08c379a00000000000000000000000000000000000000000000000000000000081526004016111fd90612bb8565b60405180910390fd5b600073ffffffffffffffffffffffffffffffffffffffff168173ffffffffffffffffffffffffffffffffffffffff1603611275576040517f08c379a000000000000000000000000000000000000000000000000000000000815260040161126c90612c24565b60405180910390fd5b600061127f61146b565b905061128f8160040184846114af565b50505050565b6000732916b3bf7c35bd21e63d01c93c62fb0d4994e56d905090565b606060008251905060006112c36114e1565b9050600081836112d39190612c73565b90506000369050821115611313576040517f5796f78a00000000000000000000000000000000000000000000000000000000815260040160405180910390fd5b6060604051905081815285602001848101826020015b818310156113465782518152602083019250602081019050611329565b5050508283360385602001830137602084840182010160405280945050505050919050565b6060826114625760008251036113ad576040517f567fe27a00000000000000000000000000000000000000000000000000000000815260040160405180910390fd5b600060208301517f08c379a00000000000000000000000000000000000000000000000000000000081149150508015611425576060604484019050806040517f0f7e827800000000000000000000000000000000000000000000000000000000815260040161141c9190612ceb565b60405180910390fd5b826040517ffd36fde30000000000000000000000000000000000000000000000000000000081526004016114599190612d57565b60405180910390fd5b81905092915050565b6000807f8d5bb42e0ac1496a2c326edc9c00758985246e6c2bb146d6c2f4a0d509e0960a90508091505090565b60006114a78360000183611551565b905092915050565b60006114d884600001848473ffffffffffffffffffffffffffffffffffffffff1660001b61158a565b90509392505050565b6000806114ec6115c5565b905060006114f9826116d6565b61ffff16905060028261150c9190612c73565b915060005b8181101561154857600061152484611732565b905080846115329190612c73565b935050808061154090612d79565b915050611511565b50819250505090565b600082600201600083815260200190815260200160002060009055611582828460000161177190919063ffffffff16565b905092915050565b600081846002016000858152602001908152602001600020819055506115bc838560000161178890919063ffffffff16565b90509392505050565b60008060203603356602ed57011e000081166602ed57011e0000149150508061161a576040517fe7764c9e00000000000000000000000000000000000000000000000000000000815260040160405180910390fd5b6000803690506029111561165a576040517f5796f78a00000000000000000000000000000000000000000000000000000000815260040160405180910390fd5b602936033590506000600960038362ffffff166116779190612c73565b6116819190612c73565b905060003690506002826116959190612c73565b11156116cd576040517fc30a7bd700000000000000000000000000000000000000000000000000000000815260040160405180910390fd5b80935050505090565b6000806020836116e69190612c73565b90506000369050811115611726576040517f5796f78a00000000000000000000000000000000000000000000000000000000815260040160405180910390fd5b80360335915050919050565b60008060006117408461179f565b91509150604e8160206117539190612c73565b8361175e9190612dc1565b6117689190612c73565b92505050919050565b60006117808360000183611815565b905092915050565b60006117978360000183611929565b905092915050565b60008060008060006041866117b49190612c73565b905060006117db6020836117c89190612c73565b600036905061199990919063ffffffff16565b9050803593506117f560038261199990919063ffffffff16565b9050803592508362ffffff1695508263ffffffff16945050505050915091565b6000808360010160008481526020019081526020016000205490506000811461191d5760006001826118479190612e03565b905060006001866000018054905061185f9190612e03565b90508181146118ce5760008660000182815481106118805761187f612e37565b5b90600052602060002001549050808760000184815481106118a4576118a3612e37565b5b90600052602060002001819055508387600101600083815260200190815260200160002081905550505b856000018054806118e2576118e1612e66565b5b600190038181906000526020600020016000905590558560010160008681526020019081526020016000206000905560019350505050611923565b60009150505b92915050565b600061193583836119af565b61198e578260000182908060018154018082558091505060019003906000526020600020016000909190919091505582600001805490508360010160008481526020019081526020016000208190555060019050611993565b600090505b92915050565b600081836119a79190612e03565b905092915050565b600080836001016000848152602001908152602001600020541415905092915050565b6040518060800160405280606081526020016060815260200160608152602001606081525090565b6000604051905090565b600080fd5b600080fd5b600080fd5b6000601f19601f8301169050919050565b7f4e487b7100000000000000000000000000000000000000000000000000000000600052604160045260246000fd5b611a5c82611a13565b810181811067ffffffffffffffff82111715611a7b57611a7a611a24565b5b80604052505050565b6000611a8e6119fa565b9050611a9a8282611a53565b919050565b600067ffffffffffffffff821115611aba57611ab9611a24565b5b602082029050602081019050919050565b600080fd5b6000819050919050565b611ae381611ad0565b8114611aee57600080fd5b50565b600081359050611b0081611ada565b92915050565b6000611b19611b1484611a9f565b611a84565b90508083825260208201905060208402830185811115611b3c57611b3b611acb565b5b835b81811015611b655780611b518882611af1565b845260208401935050602081019050611b3e565b5050509392505050565b600082601f830112611b8457611b83611a0e565b5b8135611b94848260208601611b06565b91505092915050565b600060208284031215611bb357611bb2611a04565b5b600082013567ffffffffffffffff811115611bd157611bd0611a09565b5b611bdd84828501611b6f565b91505092915050565b600081519050919050565b600082825260208201905092915050565b6000819050602082019050919050565b6000819050919050565b611c2581611c12565b82525050565b6000611c378383611c1c565b60208301905092915050565b6000602082019050919050565b6000611c5b82611be6565b611c658185611bf1565b9350611c7083611c02565b8060005b83811015611ca1578151611c888882611c2b565b9750611c9383611c43565b925050600181019050611c74565b5085935050505092915050565b60006020820190508181036000830152611cc88184611c50565b905092915050565b600060208284031215611ce657611ce5611a04565b5b6000611cf484828501611af1565b91505092915050565b611d0681611c12565b82525050565b6000602082019050611d216000830184611cfd565b92915050565b600080fd5b600080fd5b600067ffffffffffffffff821115611d4c57611d4b611a24565b5b602082029050602081019050919050565b611d6681611c12565b8114611d7157600080fd5b50565b600081359050611d8381611d5d565b92915050565b600060408284031215611d9f57611d9e611d27565b5b611da96040611a84565b90506000611db984828501611af1565b6000830152506020611dcd84828501611d74565b60208301525092915050565b6000611dec611de784611d31565b611a84565b90508083825260208201905060408402830185811115611e0f57611e0e611acb565b5b835b81811015611e385780611e248882611d89565b845260208401935050604081019050611e11565b5050509392505050565b600082601f830112611e5757611e56611a0e565b5b8135611e67848260208601611dd9565b91505092915050565b600060808284031215611e8657611e85611d27565b5b611e906080611a84565b9050600082013567ffffffffffffffff811115611eb057611eaf611d2c565b5b611ebc84828501611e42565b600083015250602082013567ffffffffffffffff811115611ee057611edf611d2c565b5b611eec84828501611e42565b602083015250604082013567ffffffffffffffff811115611f1057611f0f611d2c565b5b611f1c84828501611e42565b604083015250606082013567ffffffffffffffff811115611f4057611f3f611d2c565b5b611f4c84828501611e42565b60608301525092915050565b600060208284031215611f6e57611f6d611a04565b5b600082013567ffffffffffffffff811115611f8c57611f8b611a09565b5b611f9884828501611e70565b91505092915050565b600060208284031215611fb757611fb6611a04565b5b6000611fc584828501611d74565b91505092915050565b600081519050919050565b600082825260208201905092915050565b6000819050602082019050919050565b61200381611ad0565b82525050565b60408201600082015161201f6000850182611ffa565b5060208201516120326020850182611c1c565b50505050565b60006120448383612009565b60408301905092915050565b6000602082019050919050565b600061206882611fce565b6120728185611fd9565b935061207d83611fea565b8060005b838110156120ae5781516120958882612038565b97506120a083612050565b925050600181019050612081565b5085935050505092915050565b600060808301600083015184820360008601526120d8828261205d565b915050602083015184820360208601526120f2828261205d565b9150506040830151848203604086015261210c828261205d565b91505060608301518482036060860152612126828261205d565b9150508091505092915050565b6000602082019050818103600083015261214d81846120bb565b905092915050565b600081519050919050565b600082825260208201905092915050565b6000819050602082019050919050565b600061218d8383611ffa565b60208301905092915050565b6000602082019050919050565b60006121b182612155565b6121bb8185612160565b93506121c683612171565b8060005b838110156121f75781516121de8882612181565b97506121e983612199565b9250506001810190506121ca565b5085935050505092915050565b6000602082019050818103600083015261221e81846121a6565b905092915050565b600067ffffffffffffffff82111561224157612240611a24565b5b602082029050602081019050919050565b60008151905061226181611d5d565b92915050565b600061227a61227584612226565b611a84565b9050808382526020820190506020840283018581111561229d5761229c611acb565b5b835b818110156122c657806122b28882612252565b84526020840193505060208101905061229f565b5050509392505050565b600082601f8301126122e5576122e4611a0e565b5b81516122f5848260208601612267565b91505092915050565b60006020828403121561231457612313611a04565b5b600082015167ffffffffffffffff81111561233257612331611a09565b5b61233e848285016122d0565b91505092915050565b61235081611ad0565b82525050565b600060208201905061236b6000830184612347565b92915050565b60006020828403121561238757612386611a04565b5b600061239584828501612252565b91505092915050565b600073ffffffffffffffffffffffffffffffffffffffff82169050919050565b60006123c98261239e565b9050919050565b6123d9816123be565b82525050565b60006020820190506123f460008301846123d0565b92915050565b600082825260208201905092915050565b7f4e6f7420656e6f756768206e617469766520746f6b656e20746f20756e77726160008201527f7020616e64207769746864726177000000000000000000000000000000000000602082015250565b6000612467602e836123fa565b91506124728261240b565b604082019050919050565b600060208201905081810360008301526124968161245a565b9050919050565b60006040820190506124b26000830185612347565b6124bf6020830184611cfd565b9392505050565b60006040820190506124db6000830185611cfd565b6124e86020830184611cfd565b9392505050565b7f496e73756666696369656e742061737365747320746f2066756c6c792072657060008201527f6179207468652064656274000000000000000000000000000000000000000000602082015250565b600061254b602b836123fa565b9150612556826124ef565b604082019050919050565b6000602082019050818103600083015261257a8161253e565b9050919050565b7f54686520616374696f6e206d617920636175736520616e206163636f756e742060008201527f746f206265636f6d6520696e736f6c76656e7400000000000000000000000000602082015250565b60006125dd6033836123fa565b91506125e882612581565b604082019050919050565b6000602082019050818103600083015261260c816125d0565b9050919050565b60008151905061262281611ada565b92915050565b60006040828403121561263e5761263d611d27565b5b6126486040611a84565b9050600061265884828501612613565b600083015250602061266c84828501612252565b60208301525092915050565b600061268b61268684611d31565b611a84565b905080838252602082019050604084028301858111156126ae576126ad611acb565b5b835b818110156126d757806126c38882612628565b8452602084019350506040810190506126b0565b5050509392505050565b600082601f8301126126f6576126f5611a0e565b5b8151612706848260208601612678565b91505092915050565b60006080828403121561272557612724611d27565b5b61272f6080611a84565b9050600082015167ffffffffffffffff81111561274f5761274e611d2c565b5b61275b848285016126e1565b600083015250602082015167ffffffffffffffff81111561277f5761277e611d2c565b5b61278b848285016126e1565b602083015250604082015167ffffffffffffffff8111156127af576127ae611d2c565b5b6127bb848285016126e1565b604083015250606082015167ffffffffffffffff8111156127df576127de611d2c565b5b6127eb848285016126e1565b60608301525092915050565b60006020828403121561280d5761280c611a04565b5b600082015167ffffffffffffffff81111561282b5761282a611a09565b5b6128378482850161270f565b91505092915050565b7f4e6f7420656e6f756768206e617469766520746f6b656e20746f207772617000600082015250565b6000612876601f836123fa565b915061288182612840565b602082019050919050565b600060208201905081810360008301526128a581612869565b9050919050565b60007fffffffff0000000000000000000000000000000000000000000000000000000082169050919050565b6128e1816128ac565b82525050565b60006020820190506128fc60008301846128d8565b92915050565b61290b816123be565b811461291657600080fd5b50565b60008151905061292881612902565b92915050565b60006020828403121561294457612943611a04565b5b600061295284828501612919565b91505092915050565b600081519050919050565b600081905092915050565b60005b8381101561298f578082015181840152602081019050612974565b60008484015250505050565b60006129a68261295b565b6129b08185612966565b93506129c0818560208601612971565b80840191505092915050565b60006129d8828461299b565b915081905092915050565b7f4469616d6f6e6453746f726167654c69623a204d75737420626520636f6e747260008201527f616374206f776e65720000000000000000000000000000000000000000000000602082015250565b6000612a3f6029836123fa565b9150612a4a826129e3565b604082019050919050565b60006020820190508181036000830152612a6e81612a32565b9050919050565b7f5472616e7366657248656c7065723a3a736166655472616e736665724554483a60008201527f20455448207472616e73666572206661696c6564000000000000000000000000602082015250565b6000612ad16034836123fa565b9150612adc82612a75565b604082019050919050565b60006020820190508181036000830152612b0081612ac4565b9050919050565b60008115159050919050565b612b1c81612b07565b8114612b2757600080fd5b50565b600081519050612b3981612b13565b92915050565b600060208284031215612b5557612b54611a04565b5b6000612b6384828501612b2a565b91505092915050565b7f53796d626f6c2063616e6e6f7420626520656d70747900000000000000000000600082015250565b6000612ba26016836123fa565b9150612bad82612b6c565b602082019050919050565b60006020820190508181036000830152612bd181612b95565b9050919050565b7f496e76616c696420416464726573735a65726f00000000000000000000000000600082015250565b6000612c0e6013836123fa565b9150612c1982612bd8565b602082019050919050565b60006020820190508181036000830152612c3d81612c01565b9050919050565b7f4e487b7100000000000000000000000000000000000000000000000000000000600052601160045260246000fd5b6000612c7e82611c12565b9150612c8983611c12565b9250828201905080821115612ca157612ca0612c44565b5b92915050565b600081519050919050565b6000612cbd82612ca7565b612cc781856123fa565b9350612cd7818560208601612971565b612ce081611a13565b840191505092915050565b60006020820190508181036000830152612d058184612cb2565b905092915050565b600082825260208201905092915050565b6000612d298261295b565b612d338185612d0d565b9350612d43818560208601612971565b612d4c81611a13565b840191505092915050565b60006020820190508181036000830152612d718184612d1e565b905092915050565b6000612d8482611c12565b91507fffffffffffffffffffffffffffffffffffffffffffffffffffffffffffffffff8203612db657612db5612c44565b5b600182019050919050565b6000612dcc82611c12565b9150612dd783611c12565b9250828202612de581611c12565b91508282048414831517612dfc57612dfb612c44565b5b5092915050565b6000612e0e82611c12565b9150612e1983611c12565b9250828203905081811115612e3157612e30612c44565b5b92915050565b7f4e487b7100000000000000000000000000000000000000000000000000000000600052603260045260246000fd5b7f4e487b7100000000000000000000000000000000000000000000000000000000600052603160045260246000fdfea26469706673582212207a49fe74267fdc7b268a6624faaf85a5d52f53a1cf81132e2a54923c8e08d3f464736f6c63430008110033",
  "devdoc": {
    "events": {
      "DepositNative(address,uint256,uint256)": {
        "details": "emitted when native tokens are deposited to the SmartLoan",
        "params": {
          "amount": "of deposited funds",
          "timestamp": "of deposit*",
          "user": "the address initiating deposit of native token"
        }
      },
      "UnwrapAndWithdraw(address,uint256,uint256)": {
        "details": "emitted when native tokens are unwrapped and withdrawn from the SmartLoan",
        "params": {
          "amount": "of unwrapped and withdrawn funds",
          "timestamp": "of unwrap and withdraw*",
          "user": "the address initiating unwrap and withdraw of native token"
        }
      },
      "WrapNative(address,uint256,uint256)": {
        "details": "emitted when native tokens are wrapped in the SmartLoan",
        "params": {
          "amount": "of wrapped funds",
          "timestamp": "of wrap*",
          "user": "the address initiating wrap"
        }
      }
    },
    "kind": "dev",
    "methods": {},
    "version": 1
  },
  "userdoc": {
    "kind": "user",
    "methods": {},
    "version": 1
  },
  "storageLayout": {
    "storage": [],
    "types": null
  }
}