{
  "address": "0xa31316625eB85bAFa44F9183E01038a1Ba12d39B",
  "abi": [
    {
      "inputs": [],
      "name": "CalldataMustHaveValidPayload",
      "type": "error"
    },
    {
      "inputs": [],
      "name": "CalldataOverOrUnderFlow",
      "type": "error"
    },
    {
      "inputs": [],
      "name": "EachSignerMustProvideTheSameValue",
      "type": "error"
    },
    {
      "inputs": [],
      "name": "EmptyCalldataPointersArr",
      "type": "error"
    },
    {
      "inputs": [],
      "name": "IncorrectUnsignedMetadataSize",
      "type": "error"
    },
    {
      "inputs": [
        {
          "internalType": "uint256",
          "name": "receviedSignersCount",
          "type": "uint256"
        },
        {
          "internalType": "uint256",
          "name": "requiredSignersCount",
          "type": "uint256"
        }
      ],
      "name": "InsufficientNumberOfUniqueSigners",
      "type": "error"
    },
    {
      "inputs": [],
      "name": "InvalidCalldataPointer",
      "type": "error"
    },
    {
      "inputs": [
        {
          "internalType": "bytes",
          "name": "result",
          "type": "bytes"
        }
      ],
      "name": "ProxyCalldataFailedWithCustomError",
      "type": "error"
    },
    {
      "inputs": [
        {
          "internalType": "string",
          "name": "message",
          "type": "string"
        }
      ],
      "name": "ProxyCalldataFailedWithStringMessage",
      "type": "error"
    },
    {
      "inputs": [],
      "name": "ProxyCalldataFailedWithoutErrMsg",
      "type": "error"
    },
    {
      "inputs": [
        {
          "internalType": "address",
          "name": "receivedSigner",
          "type": "address"
        }
      ],
      "name": "SignerNotAuthorised",
      "type": "error"
    },
    {
      "inputs": [
        {
          "internalType": "bytes32[]",
          "name": "assetsToRepay",
          "type": "bytes32[]"
        }
      ],
      "name": "_getAllPricesForLiquidation",
      "outputs": [
        {
          "components": [
            {
              "components": [
                {
                  "internalType": "bytes32",
                  "name": "asset",
                  "type": "bytes32"
                },
                {
                  "internalType": "uint256",
                  "name": "price",
                  "type": "uint256"
                }
              ],
              "internalType": "struct SolvencyFacetProd.AssetPrice[]",
              "name": "ownedAssetsPrices",
              "type": "tuple[]"
            },
            {
              "components": [
                {
                  "internalType": "bytes32",
                  "name": "asset",
                  "type": "bytes32"
                },
                {
                  "internalType": "uint256",
                  "name": "price",
                  "type": "uint256"
                }
              ],
              "internalType": "struct SolvencyFacetProd.AssetPrice[]",
              "name": "debtAssetsPrices",
              "type": "tuple[]"
            },
            {
              "components": [
                {
                  "internalType": "bytes32",
                  "name": "asset",
                  "type": "bytes32"
                },
                {
                  "internalType": "uint256",
                  "name": "price",
                  "type": "uint256"
                }
              ],
              "internalType": "struct SolvencyFacetProd.AssetPrice[]",
              "name": "stakedPositionsPrices",
              "type": "tuple[]"
            },
            {
              "components": [
                {
                  "internalType": "bytes32",
                  "name": "asset",
                  "type": "bytes32"
                },
                {
                  "internalType": "uint256",
                  "name": "price",
                  "type": "uint256"
                }
              ],
              "internalType": "struct SolvencyFacetProd.AssetPrice[]",
              "name": "assetsToRepayPrices",
              "type": "tuple[]"
            }
          ],
          "internalType": "struct SolvencyFacetProd.CachedPrices",
          "name": "result",
          "type": "tuple"
        }
      ],
      "stateMutability": "nonpayable",
      "type": "function"
    },
    {
      "inputs": [],
      "name": "_getHealthRatio",
      "outputs": [
        {
          "internalType": "uint256",
          "name": "health",
          "type": "uint256"
        }
      ],
      "stateMutability": "nonpayable",
      "type": "function"
    },
    {
      "inputs": [
        {
          "components": [
            {
              "components": [
                {
                  "internalType": "bytes32",
                  "name": "asset",
                  "type": "bytes32"
                },
                {
                  "internalType": "uint256",
                  "name": "price",
                  "type": "uint256"
                }
              ],
              "internalType": "struct SolvencyFacetProd.AssetPrice[]",
              "name": "ownedAssetsPrices",
              "type": "tuple[]"
            },
            {
              "components": [
                {
                  "internalType": "bytes32",
                  "name": "asset",
                  "type": "bytes32"
                },
                {
                  "internalType": "uint256",
                  "name": "price",
                  "type": "uint256"
                }
              ],
              "internalType": "struct SolvencyFacetProd.AssetPrice[]",
              "name": "debtAssetsPrices",
              "type": "tuple[]"
            },
            {
              "components": [
                {
                  "internalType": "bytes32",
                  "name": "asset",
                  "type": "bytes32"
                },
                {
                  "internalType": "uint256",
                  "name": "price",
                  "type": "uint256"
                }
              ],
              "internalType": "struct SolvencyFacetProd.AssetPrice[]",
              "name": "stakedPositionsPrices",
              "type": "tuple[]"
            },
            {
              "components": [
                {
                  "internalType": "bytes32",
                  "name": "asset",
                  "type": "bytes32"
                },
                {
                  "internalType": "uint256",
                  "name": "price",
                  "type": "uint256"
                }
              ],
              "internalType": "struct SolvencyFacetProd.AssetPrice[]",
              "name": "assetsToRepayPrices",
              "type": "tuple[]"
            }
          ],
          "internalType": "struct SolvencyFacetProd.CachedPrices",
          "name": "cachedPrices",
          "type": "tuple"
        }
      ],
      "name": "_getHealthRatioWithPrices",
      "outputs": [
        {
          "internalType": "uint256",
          "name": "health",
          "type": "uint256"
        }
      ],
      "stateMutability": "nonpayable",
      "type": "function"
    },
    {
      "inputs": [],
      "name": "getAllAssetsBalances",
      "outputs": [
        {
          "components": [
            {
              "internalType": "bytes32",
              "name": "name",
              "type": "bytes32"
            },
            {
              "internalType": "uint256",
              "name": "balance",
              "type": "uint256"
            }
          ],
          "internalType": "struct SmartLoanViewFacet.AssetNameBalance[]",
          "name": "",
          "type": "tuple[]"
        }
      ],
      "stateMutability": "view",
      "type": "function"
    },
    {
      "inputs": [],
      "name": "getAllAssetsPrices",
      "outputs": [
        {
          "components": [
            {
              "internalType": "bytes32",
              "name": "name",
              "type": "bytes32"
            },
            {
              "internalType": "uint256",
              "name": "price",
              "type": "uint256"
            }
          ],
          "internalType": "struct SmartLoanViewFacet.AssetNamePrice[]",
          "name": "",
          "type": "tuple[]"
        }
      ],
      "stateMutability": "nonpayable",
      "type": "function"
    },
    {
      "inputs": [],
      "name": "getAllOwnedAssets",
      "outputs": [
        {
          "internalType": "bytes32[]",
          "name": "result",
          "type": "bytes32[]"
        }
      ],
      "stateMutability": "view",
      "type": "function"
    },
    {
      "inputs": [
        {
          "internalType": "bytes32",
          "name": "_asset",
          "type": "bytes32"
        }
      ],
      "name": "getBalance",
      "outputs": [
        {
          "internalType": "uint256",
          "name": "",
          "type": "uint256"
        }
      ],
      "stateMutability": "view",
      "type": "function"
    },
    {
      "inputs": [],
      "name": "getContractOwner",
      "outputs": [
        {
          "internalType": "address",
          "name": "_owner",
          "type": "address"
        }
      ],
      "stateMutability": "view",
      "type": "function"
    },
    {
      "inputs": [],
      "name": "getDebts",
      "outputs": [
        {
          "components": [
            {
              "internalType": "bytes32",
              "name": "name",
              "type": "bytes32"
            },
            {
              "internalType": "uint256",
              "name": "debt",
              "type": "uint256"
            }
          ],
          "internalType": "struct SmartLoanViewFacet.AssetNameDebt[]",
          "name": "",
          "type": "tuple[]"
        }
      ],
      "stateMutability": "view",
      "type": "function"
    },
    {
      "inputs": [],
      "name": "getPercentagePrecision",
      "outputs": [
        {
          "internalType": "uint256",
          "name": "",
          "type": "uint256"
        }
      ],
      "stateMutability": "view",
      "type": "function"
    },
    {
      "inputs": [
        {
          "internalType": "bytes32",
          "name": "symbol",
          "type": "bytes32"
        }
      ],
      "name": "getPrice",
      "outputs": [
        {
          "internalType": "uint256",
          "name": "price",
          "type": "uint256"
        }
      ],
      "stateMutability": "nonpayable",
      "type": "function"
    },
    {
      "inputs": [
        {
          "internalType": "bytes32[]",
          "name": "symbols",
          "type": "bytes32[]"
        }
      ],
      "name": "getPrices",
      "outputs": [
        {
          "internalType": "uint256[]",
          "name": "prices",
          "type": "uint256[]"
        }
      ],
      "stateMutability": "nonpayable",
      "type": "function"
    },
    {
      "inputs": [],
      "name": "getProposedOwner",
      "outputs": [
        {
          "internalType": "address",
          "name": "_proposed",
          "type": "address"
        }
      ],
      "stateMutability": "view",
      "type": "function"
    },
    {
      "inputs": [],
      "name": "getStakedPositions",
      "outputs": [
        {
          "components": [
            {
              "internalType": "address",
              "name": "vault",
              "type": "address"
            },
            {
              "internalType": "bytes32",
              "name": "symbol",
              "type": "bytes32"
            },
            {
              "internalType": "bytes4",
              "name": "balanceSelector",
              "type": "bytes4"
            },
            {
              "internalType": "bytes4",
              "name": "unstakeSelector",
              "type": "bytes4"
            }
          ],
          "internalType": "struct IStakingPositions.StakedPosition[]",
          "name": "_positions",
          "type": "tuple[]"
        }
      ],
      "stateMutability": "view",
      "type": "function"
    },
    {
      "inputs": [],
      "name": "getSupportedTokensAddresses",
      "outputs": [
        {
          "internalType": "address[]",
          "name": "",
          "type": "address[]"
        }
      ],
      "stateMutability": "view",
      "type": "function"
    },
    {
      "inputs": [
        {
          "internalType": "address",
          "name": "owner",
          "type": "address"
        }
      ],
      "name": "initialize",
      "outputs": [],
      "stateMutability": "nonpayable",
      "type": "function"
    }
  ],
  "transactionHash": "0x51d8c8439c4d137d8c15fea8fbac9cf009fbe7b96d0a11019b0f82fa55531909",
  "args": [],
  "numDeployments": 2,
  "solcInputHash": "4189fcbc2823c20856a851b757c21c8f",
  "bytecode": "0x608060405234801561001057600080fd5b506001600081905550613177806100286000396000f3fe608060405234801561001057600080fd5b50600436106101005760003560e01c80636e3bfe9f11610097578063b643813911610066578063b6438139146102c7578063c4d66de8146102e5578063c836ef2e14610301578063eae5a62d1461031f57610100565b80636e3bfe9f146102195780638e73946114610249578063a935310f14610279578063b2d40e731461029757610100565b806331d98b3f116100d357806331d98b3f1461018f57806339e2719e146101bf578063442890d5146101dd5780636b6c92d9146101fb57610100565b8063132e1d391461010557806321f880971461012357806326ee4836146101415780632df4c10614610171575b600080fd5b61010d61033d565b60405161011a9190611945565b60405180910390f35b61012b61034c565b6040516101389190611a50565b60405180910390f35b61015b60048036038101906101569190611c15565b6103d4565b6040516101689190611d1c565b60405180910390f35b61017961047e565b6040516101869190611e8c565b60405180910390f35b6101a960048036038101906101a49190611eae565b6105ed565b6040516101b69190611945565b60405180910390f35b6101c7610697565b6040516101d49190611945565b60405180910390f35b6101e5610734565b6040516101f29190611eea565b60405180910390f35b610203610743565b6040516102109190611fe3565b60405180910390f35b610233600480360381019061022e9190612236565b6109a7565b6040516102409190611945565b60405180910390f35b610263600480360381019061025e9190611eae565b610a51565b6040516102709190611945565b60405180910390f35b610281610b5c565b60405161028e919061235d565b60405180910390f35b6102b160048036038101906102ac9190611c15565b610cd3565b6040516102be91906124d5565b60405180910390f35b6102cf610d83565b6040516102dc91906125a6565b60405180910390f35b6102ff60048036038101906102fa91906125f4565b610d92565b005b610309610e89565b60405161031691906126ff565b60405180910390f35b6103276110f0565b6040516103349190611eea565b60405180910390f35b60006103476110ff565b905090565b60606000610358611109565b90508073ffffffffffffffffffffffffffffffffffffffff166321f880976040518163ffffffff1660e01b8152600401600060405180830381865afa1580156103a5573d6000803e3d6000fd5b505050506040513d6000823e3d601f19601f820116820180604052508101906103ce91906127f9565b91505090565b60606104646103e96326ee483660e01b611125565b6326ee483660e01b8460405160240161040291906125a6565b604051602081830303815290604052907bffffffffffffffffffffffffffffffffffffffffffffffffffffffff19166020820180517bffffffffffffffffffffffffffffffffffffffffffffffffffffffff83818316178352505050506111af565b806020019051810190610477919061291a565b9050919050565b6060610488611240565b805480602002602001604051908101604052809291908181526020016000905b828210156105e457838290600052602060002090600302016040518060800160405290816000820160009054906101000a900473ffffffffffffffffffffffffffffffffffffffff1673ffffffffffffffffffffffffffffffffffffffff1673ffffffffffffffffffffffffffffffffffffffff168152602001600182015481526020016002820160009054906101000a900460e01b7bffffffffffffffffffffffffffffffffffffffffffffffffffffffff19167bffffffffffffffffffffffffffffffffffffffffffffffffffffffff191681526020016002820160049054906101000a900460e01b7bffffffffffffffffffffffffffffffffffffffffffffffffffffffff19167bffffffffffffffffffffffffffffffffffffffffffffffffffffffff191681525050815260200190600101906104a8565b50505050905090565b600061067d6106026331d98b3f60e01b611125565b6331d98b3f60e01b8460405160240161061b9190612972565b604051602081830303815290604052907bffffffffffffffffffffffffffffffffffffffffffffffffffffffff19166020820180517bffffffffffffffffffffffffffffffffffffffffffffffffffffffff83818316178352505050506111af565b806020019051810190610690919061298d565b9050919050565b600061071c6106ac637914334f60e01b611125565b637914334f60e01b604051602401604051602081830303815290604052907bffffffffffffffffffffffffffffffffffffffffffffffffffffffff19166020820180517bffffffffffffffffffffffffffffffffffffffffffffffffffffffff83818316178352505050506111af565b80602001905181019061072f919061298d565b905090565b600061073e611252565b905090565b6060600061074f611109565b905060008173ffffffffffffffffffffffffffffffffffffffff1663869c490d6040518163ffffffff1660e01b8152600401600060405180830381865afa15801561079e573d6000803e3d6000fd5b505050506040513d6000823e3d601f19601f820116820180604052508101906107c79190612a66565b90506000815167ffffffffffffffff8111156107e6576107e5611a9c565b5b60405190808252806020026020018201604052801561081f57816020015b61080c6118ad565b8152602001906001900390816108045790505b50905060005b825181101561099d57604051806040016040528084838151811061084c5761084b612aaf565b5b602002602001015181526020018573ffffffffffffffffffffffffffffffffffffffff166325eb876f86858151811061088857610887612aaf565b5b602002602001015160016040518363ffffffff1660e01b81526004016108af929190612af9565b602060405180830381865afa1580156108cc573d6000803e3d6000fd5b505050506040513d601f19601f820116820180604052508101906108f09190612b22565b73ffffffffffffffffffffffffffffffffffffffff166370a08231306040518263ffffffff1660e01b81526004016109289190611eea565b602060405180830381865afa158015610945573d6000803e3d6000fd5b505050506040513d601f19601f82011682018060405250810190610969919061298d565b81525082828151811061097f5761097e612aaf565b5b6020026020010181905250808061099590612b7e565b915050610825565b5080935050505090565b6000610a376109bc63360398a360e01b611125565b63360398a360e01b846040516024016109d591906124d5565b604051602081830303815290604052907bffffffffffffffffffffffffffffffffffffffffffffffffffffffff19166020820180517bffffffffffffffffffffffffffffffffffffffffffffffffffffffff83818316178352505050506111af565b806020019051810190610a4a919061298d565b9050919050565b600080610a5c611109565b73ffffffffffffffffffffffffffffffffffffffff166325eb876f8460016040518363ffffffff1660e01b8152600401610a97929190612af9565b602060405180830381865afa158015610ab4573d6000803e3d6000fd5b505050506040513d601f19601f82011682018060405250810190610ad89190612b22565b90508073ffffffffffffffffffffffffffffffffffffffff166370a08231306040518263ffffffff1660e01b8152600401610b139190611eea565b602060405180830381865afa158015610b30573d6000803e3d6000fd5b505050506040513d601f19601f82011682018060405250810190610b54919061298d565b915050919050565b60606000610b68611109565b73ffffffffffffffffffffffffffffffffffffffff1663869c490d6040518163ffffffff1660e01b8152600401600060405180830381865afa158015610bb2573d6000803e3d6000fd5b505050506040513d6000823e3d601f19601f82011682018060405250810190610bdb9190612a66565b90506000610be8826103d4565b90506000825167ffffffffffffffff811115610c0757610c06611a9c565b5b604051908082528060200260200182016040528015610c4057816020015b610c2d6118ca565b815260200190600190039081610c255790505b50905060005b8351811015610cc9576040518060400160405280858381518110610c6d57610c6c612aaf565b5b60200260200101518152602001848381518110610c8d57610c8c612aaf565b5b6020026020010151815250828281518110610cab57610caa612aaf565b5b60200260200101819052508080610cc190612b7e565b915050610c46565b5080935050505090565b610cdb6118e7565b610d69610cee63a3aa8d1e60e01b611125565b63a3aa8d1e60e01b84604051602401610d0791906125a6565b604051602081830303815290604052907bffffffffffffffffffffffffffffffffffffffffffffffffffffffff19166020820180517bffffffffffffffffffffffffffffffffffffffffffffffffffffffff83818316178352505050506111af565b806020019051810190610d7c9190612d95565b9050919050565b6060610d8d611285565b905090565b600073ffffffffffffffffffffffffffffffffffffffff168173ffffffffffffffffffffffffffffffffffffffff1603610e01576040517f08c379a0000000000000000000000000000000000000000000000000000000008152600401610df890612e61565b60405180910390fd5b6000610e0b6112f8565b90508060030160149054906101000a900460ff1615610e5f576040517f08c379a0000000000000000000000000000000000000000000000000000000008152600401610e5690612ef3565b60405180910390fd5b610e6882611325565b60018160030160146101000a81548160ff0219169083151502179055505050565b60606000610e95611109565b905060008173ffffffffffffffffffffffffffffffffffffffff166366273c196040518163ffffffff1660e01b8152600401600060405180830381865afa158015610ee4573d6000803e3d6000fd5b505050506040513d6000823e3d601f19601f82011682018060405250810190610f0d9190612a66565b90506000815167ffffffffffffffff811115610f2c57610f2b611a9c565b5b604051908082528060200260200182016040528015610f6557816020015b610f5261190f565b815260200190600190039081610f4a5790505b50905060005b82518110156110e65760008473ffffffffffffffffffffffffffffffffffffffff16630edc25b6858481518110610fa557610fa4612aaf565b5b60200260200101516040518263ffffffff1660e01b8152600401610fc99190612972565b602060405180830381865afa158015610fe6573d6000803e3d6000fd5b505050506040513d601f19601f8201168201806040525081019061100a9190612b22565b9050604051806040016040528085848151811061102a57611029612aaf565b5b602002602001015181526020018273ffffffffffffffffffffffffffffffffffffffff16636011163e306040518263ffffffff1660e01b81526004016110709190611eea565b602060405180830381865afa15801561108d573d6000803e3d6000fd5b505050506040513d601f19601f820116820180604052508101906110b1919061298d565b8152508383815181106110c7576110c6612aaf565b5b60200260200101819052505080806110de90612b7e565b915050610f6b565b5080935050505090565b60006110fa6113fc565b905090565b60006103e8905090565b600073f3978209b7cff2b90100c6f87cec77de928ed58e905090565b600061112f61142f565b73ffffffffffffffffffffffffffffffffffffffff16630d741577836040518263ffffffff1660e01b81526004016111679190612f22565b602060405180830381865afa158015611184573d6000803e3d6000fd5b505050506040513d601f19601f820116820180604052508101906111a89190612b22565b9050919050565b606060006111bc8361144b565b90506000808573ffffffffffffffffffffffffffffffffffffffff16836040516111e69190612fae565b600060405180830381855af49150503d8060008114611221576040519150601f19603f3d011682016040523d82523d6000602084013e611226565b606091505b50915091506112358282611505565b935050505092915050565b600061124a6112f8565b600701905090565b600061125c6112f8565b60010160009054906101000a900473ffffffffffffffffffffffffffffffffffffffff16905090565b606060006112916112f8565b9050806004016000016000016000016000018054806020026020016040519081016040528092919081815260200182805480156112ed57602002820191906000526020600020905b8154815260200190600101908083116112d9575b505050505091505090565b6000807f8d5bb42e0ac1496a2c326edc9c00758985246e6c2bb146d6c2f4a0d509e0960a90508091505090565b600061132f6112f8565b905060008160010160009054906101000a900473ffffffffffffffffffffffffffffffffffffffff169050828260010160006101000a81548173ffffffffffffffffffffffffffffffffffffffff021916908373ffffffffffffffffffffffffffffffffffffffff1602179055508273ffffffffffffffffffffffffffffffffffffffff168173ffffffffffffffffffffffffffffffffffffffff167f8be0079c531659141344cd1fd0a4f28419497f9722a3daafe3b4186f6b6457e060405160405180910390a3505050565b60006114066112f8565b60020160009054906101000a900473ffffffffffffffffffffffffffffffffffffffff16905090565b6000732916b3bf7c35bd21e63d01c93c62fb0d4994e56d905090565b6060600082519050600061145d611605565b90506000818361146d9190612fc5565b905060003690508211156114ad576040517f5796f78a00000000000000000000000000000000000000000000000000000000815260040160405180910390fd5b6060604051905081815285602001848101826020015b818310156114e057825181526020830192506020810190506114c3565b5050508283360385602001830137602084840182010160405280945050505050919050565b6060826115fc576000825103611547576040517f567fe27a00000000000000000000000000000000000000000000000000000000815260040160405180910390fd5b600060208301517f08c379a000000000000000000000000000000000000000000000000000000000811491505080156115bf576060604484019050806040517f0f7e82780000000000000000000000000000000000000000000000000000000081526004016115b6919061303d565b60405180910390fd5b826040517ffd36fde30000000000000000000000000000000000000000000000000000000081526004016115f391906130a9565b60405180910390fd5b81905092915050565b600080611610611675565b9050600061161d82611786565b61ffff1690506002826116309190612fc5565b915060005b8181101561166c576000611648846117e2565b905080846116569190612fc5565b935050808061166490612b7e565b915050611635565b50819250505090565b60008060203603356602ed57011e000081166602ed57011e000014915050806116ca576040517fe7764c9e00000000000000000000000000000000000000000000000000000000815260040160405180910390fd5b6000803690506029111561170a576040517f5796f78a00000000000000000000000000000000000000000000000000000000815260040160405180910390fd5b602936033590506000600960038362ffffff166117279190612fc5565b6117319190612fc5565b905060003690506002826117459190612fc5565b111561177d576040517fc30a7bd700000000000000000000000000000000000000000000000000000000815260040160405180910390fd5b80935050505090565b6000806020836117969190612fc5565b905060003690508111156117d6576040517f5796f78a00000000000000000000000000000000000000000000000000000000815260040160405180910390fd5b80360335915050919050565b60008060006117f084611821565b91509150604e8160206118039190612fc5565b8361180e91906130cb565b6118189190612fc5565b92505050919050565b60008060008060006041866118369190612fc5565b9050600061185d60208361184a9190612fc5565b600036905061189790919063ffffffff16565b90508035935061187760038261189790919063ffffffff16565b9050803592508362ffffff1695508263ffffffff16945050505050915091565b600081836118a5919061310d565b905092915050565b604051806040016040528060008019168152602001600081525090565b604051806040016040528060008019168152602001600081525090565b6040518060800160405280606081526020016060815260200160608152602001606081525090565b604051806040016040528060008019168152602001600081525090565b6000819050919050565b61193f8161192c565b82525050565b600060208201905061195a6000830184611936565b92915050565b600081519050919050565b600082825260208201905092915050565b6000819050602082019050919050565b600073ffffffffffffffffffffffffffffffffffffffff82169050919050565b60006119b78261198c565b9050919050565b6119c7816119ac565b82525050565b60006119d983836119be565b60208301905092915050565b6000602082019050919050565b60006119fd82611960565b611a07818561196b565b9350611a128361197c565b8060005b83811015611a43578151611a2a88826119cd565b9750611a35836119e5565b925050600181019050611a16565b5085935050505092915050565b60006020820190508181036000830152611a6a81846119f2565b905092915050565b6000604051905090565b600080fd5b600080fd5b600080fd5b6000601f19601f8301169050919050565b7f4e487b7100000000000000000000000000000000000000000000000000000000600052604160045260246000fd5b611ad482611a8b565b810181811067ffffffffffffffff82111715611af357611af2611a9c565b5b80604052505050565b6000611b06611a72565b9050611b128282611acb565b919050565b600067ffffffffffffffff821115611b3257611b31611a9c565b5b602082029050602081019050919050565b600080fd5b6000819050919050565b611b5b81611b48565b8114611b6657600080fd5b50565b600081359050611b7881611b52565b92915050565b6000611b91611b8c84611b17565b611afc565b90508083825260208201905060208402830185811115611bb457611bb3611b43565b5b835b81811015611bdd5780611bc98882611b69565b845260208401935050602081019050611bb6565b5050509392505050565b600082601f830112611bfc57611bfb611a86565b5b8135611c0c848260208601611b7e565b91505092915050565b600060208284031215611c2b57611c2a611a7c565b5b600082013567ffffffffffffffff811115611c4957611c48611a81565b5b611c5584828501611be7565b91505092915050565b600081519050919050565b600082825260208201905092915050565b6000819050602082019050919050565b611c938161192c565b82525050565b6000611ca58383611c8a565b60208301905092915050565b6000602082019050919050565b6000611cc982611c5e565b611cd38185611c69565b9350611cde83611c7a565b8060005b83811015611d0f578151611cf68882611c99565b9750611d0183611cb1565b925050600181019050611ce2565b5085935050505092915050565b60006020820190508181036000830152611d368184611cbe565b905092915050565b600081519050919050565b600082825260208201905092915050565b6000819050602082019050919050565b611d7381611b48565b82525050565b60007fffffffff0000000000000000000000000000000000000000000000000000000082169050919050565b611dae81611d79565b82525050565b608082016000820151611dca60008501826119be565b506020820151611ddd6020850182611d6a565b506040820151611df06040850182611da5565b506060820151611e036060850182611da5565b50505050565b6000611e158383611db4565b60808301905092915050565b6000602082019050919050565b6000611e3982611d3e565b611e438185611d49565b9350611e4e83611d5a565b8060005b83811015611e7f578151611e668882611e09565b9750611e7183611e21565b925050600181019050611e52565b5085935050505092915050565b60006020820190508181036000830152611ea68184611e2e565b905092915050565b600060208284031215611ec457611ec3611a7c565b5b6000611ed284828501611b69565b91505092915050565b611ee4816119ac565b82525050565b6000602082019050611eff6000830184611edb565b92915050565b600081519050919050565b600082825260208201905092915050565b6000819050602082019050919050565b604082016000820151611f476000850182611d6a565b506020820151611f5a6020850182611c8a565b50505050565b6000611f6c8383611f31565b60408301905092915050565b6000602082019050919050565b6000611f9082611f05565b611f9a8185611f10565b9350611fa583611f21565b8060005b83811015611fd6578151611fbd8882611f60565b9750611fc883611f78565b925050600181019050611fa9565b5085935050505092915050565b60006020820190508181036000830152611ffd8184611f85565b905092915050565b600080fd5b600080fd5b600067ffffffffffffffff82111561202a57612029611a9c565b5b602082029050602081019050919050565b6120448161192c565b811461204f57600080fd5b50565b6000813590506120618161203b565b92915050565b60006040828403121561207d5761207c612005565b5b6120876040611afc565b9050600061209784828501611b69565b60008301525060206120ab84828501612052565b60208301525092915050565b60006120ca6120c58461200f565b611afc565b905080838252602082019050604084028301858111156120ed576120ec611b43565b5b835b8181101561211657806121028882612067565b8452602084019350506040810190506120ef565b5050509392505050565b600082601f83011261213557612134611a86565b5b81356121458482602086016120b7565b91505092915050565b60006080828403121561216457612163612005565b5b61216e6080611afc565b9050600082013567ffffffffffffffff81111561218e5761218d61200a565b5b61219a84828501612120565b600083015250602082013567ffffffffffffffff8111156121be576121bd61200a565b5b6121ca84828501612120565b602083015250604082013567ffffffffffffffff8111156121ee576121ed61200a565b5b6121fa84828501612120565b604083015250606082013567ffffffffffffffff81111561221e5761221d61200a565b5b61222a84828501612120565b60608301525092915050565b60006020828403121561224c5761224b611a7c565b5b600082013567ffffffffffffffff81111561226a57612269611a81565b5b6122768482850161214e565b91505092915050565b600081519050919050565b600082825260208201905092915050565b6000819050602082019050919050565b6040820160008201516122c16000850182611d6a565b5060208201516122d46020850182611c8a565b50505050565b60006122e683836122ab565b60408301905092915050565b6000602082019050919050565b600061230a8261227f565b612314818561228a565b935061231f8361229b565b8060005b8381101561235057815161233788826122da565b9750612342836122f2565b925050600181019050612323565b5085935050505092915050565b6000602082019050818103600083015261237781846122ff565b905092915050565b600081519050919050565b600082825260208201905092915050565b6000819050602082019050919050565b6040820160008201516123c16000850182611d6a565b5060208201516123d46020850182611c8a565b50505050565b60006123e683836123ab565b60408301905092915050565b6000602082019050919050565b600061240a8261237f565b612414818561238a565b935061241f8361239b565b8060005b8381101561245057815161243788826123da565b9750612442836123f2565b925050600181019050612423565b5085935050505092915050565b6000608083016000830151848203600086015261247a82826123ff565b9150506020830151848203602086015261249482826123ff565b915050604083015184820360408601526124ae82826123ff565b915050606083015184820360608601526124c882826123ff565b9150508091505092915050565b600060208201905081810360008301526124ef818461245d565b905092915050565b600081519050919050565b600082825260208201905092915050565b6000819050602082019050919050565b600061252f8383611d6a565b60208301905092915050565b6000602082019050919050565b6000612553826124f7565b61255d8185612502565b935061256883612513565b8060005b838110156125995781516125808882612523565b975061258b8361253b565b92505060018101905061256c565b5085935050505092915050565b600060208201905081810360008301526125c08184612548565b905092915050565b6125d1816119ac565b81146125dc57600080fd5b50565b6000813590506125ee816125c8565b92915050565b60006020828403121561260a57612609611a7c565b5b6000612618848285016125df565b91505092915050565b600081519050919050565b600082825260208201905092915050565b6000819050602082019050919050565b6040820160008201516126636000850182611d6a565b5060208201516126766020850182611c8a565b50505050565b6000612688838361264d565b60408301905092915050565b6000602082019050919050565b60006126ac82612621565b6126b6818561262c565b93506126c18361263d565b8060005b838110156126f25781516126d9888261267c565b97506126e483612694565b9250506001810190506126c5565b5085935050505092915050565b6000602082019050818103600083015261271981846126a1565b905092915050565b600067ffffffffffffffff82111561273c5761273b611a9c565b5b602082029050602081019050919050565b60008151905061275c816125c8565b92915050565b600061277561277084612721565b611afc565b9050808382526020820190506020840283018581111561279857612797611b43565b5b835b818110156127c157806127ad888261274d565b84526020840193505060208101905061279a565b5050509392505050565b600082601f8301126127e0576127df611a86565b5b81516127f0848260208601612762565b91505092915050565b60006020828403121561280f5761280e611a7c565b5b600082015167ffffffffffffffff81111561282d5761282c611a81565b5b612839848285016127cb565b91505092915050565b600067ffffffffffffffff82111561285d5761285c611a9c565b5b602082029050602081019050919050565b60008151905061287d8161203b565b92915050565b600061289661289184612842565b611afc565b905080838252602082019050602084028301858111156128b9576128b8611b43565b5b835b818110156128e257806128ce888261286e565b8452602084019350506020810190506128bb565b5050509392505050565b600082601f83011261290157612900611a86565b5b8151612911848260208601612883565b91505092915050565b6000602082840312156129305761292f611a7c565b5b600082015167ffffffffffffffff81111561294e5761294d611a81565b5b61295a848285016128ec565b91505092915050565b61296c81611b48565b82525050565b60006020820190506129876000830184612963565b92915050565b6000602082840312156129a3576129a2611a7c565b5b60006129b18482850161286e565b91505092915050565b6000815190506129c981611b52565b92915050565b60006129e26129dd84611b17565b611afc565b90508083825260208201905060208402830185811115612a0557612a04611b43565b5b835b81811015612a2e5780612a1a88826129ba565b845260208401935050602081019050612a07565b5050509392505050565b600082601f830112612a4d57612a4c611a86565b5b8151612a5d8482602086016129cf565b91505092915050565b600060208284031215612a7c57612a7b611a7c565b5b600082015167ffffffffffffffff811115612a9a57612a99611a81565b5b612aa684828501612a38565b91505092915050565b7f4e487b7100000000000000000000000000000000000000000000000000000000600052603260045260246000fd5b60008115159050919050565b612af381612ade565b82525050565b6000604082019050612b0e6000830185612963565b612b1b6020830184612aea565b9392505050565b600060208284031215612b3857612b37611a7c565b5b6000612b468482850161274d565b91505092915050565b7f4e487b7100000000000000000000000000000000000000000000000000000000600052601160045260246000fd5b6000612b898261192c565b91507fffffffffffffffffffffffffffffffffffffffffffffffffffffffffffffffff8203612bbb57612bba612b4f565b5b600182019050919050565b600060408284031215612bdc57612bdb612005565b5b612be66040611afc565b90506000612bf6848285016129ba565b6000830152506020612c0a8482850161286e565b60208301525092915050565b6000612c29612c248461200f565b611afc565b90508083825260208201905060408402830185811115612c4c57612c4b611b43565b5b835b81811015612c755780612c618882612bc6565b845260208401935050604081019050612c4e565b5050509392505050565b600082601f830112612c9457612c93611a86565b5b8151612ca4848260208601612c16565b91505092915050565b600060808284031215612cc357612cc2612005565b5b612ccd6080611afc565b9050600082015167ffffffffffffffff811115612ced57612cec61200a565b5b612cf984828501612c7f565b600083015250602082015167ffffffffffffffff811115612d1d57612d1c61200a565b5b612d2984828501612c7f565b602083015250604082015167ffffffffffffffff811115612d4d57612d4c61200a565b5b612d5984828501612c7f565b604083015250606082015167ffffffffffffffff811115612d7d57612d7c61200a565b5b612d8984828501612c7f565b60608301525092915050565b600060208284031215612dab57612daa611a7c565b5b600082015167ffffffffffffffff811115612dc957612dc8611a81565b5b612dd584828501612cad565b91505092915050565b600082825260208201905092915050565b7f496e697469616c697a653a2043616e6e6f742073657420746865206f776e657260008201527f20746f2061207a65726f20616464726573730000000000000000000000000000602082015250565b6000612e4b603283612dde565b9150612e5682612def565b604082019050919050565b60006020820190508181036000830152612e7a81612e3e565b9050919050565b7f4469616d6f6e64496e69743a20636f6e747261637420697320616c726561647960008201527f20696e697469616c697a65640000000000000000000000000000000000000000602082015250565b6000612edd602c83612dde565b9150612ee882612e81565b604082019050919050565b60006020820190508181036000830152612f0c81612ed0565b9050919050565b612f1c81611d79565b82525050565b6000602082019050612f376000830184612f13565b92915050565b600081519050919050565b600081905092915050565b60005b83811015612f71578082015181840152602081019050612f56565b60008484015250505050565b6000612f8882612f3d565b612f928185612f48565b9350612fa2818560208601612f53565b80840191505092915050565b6000612fba8284612f7d565b915081905092915050565b6000612fd08261192c565b9150612fdb8361192c565b9250828201905080821115612ff357612ff2612b4f565b5b92915050565b600081519050919050565b600061300f82612ff9565b6130198185612dde565b9350613029818560208601612f53565b61303281611a8b565b840191505092915050565b600060208201905081810360008301526130578184613004565b905092915050565b600082825260208201905092915050565b600061307b82612f3d565b613085818561305f565b9350613095818560208601612f53565b61309e81611a8b565b840191505092915050565b600060208201905081810360008301526130c38184613070565b905092915050565b60006130d68261192c565b91506130e18361192c565b92508282026130ef8161192c565b9150828204841483151761310657613105612b4f565b5b5092915050565b60006131188261192c565b91506131238361192c565b925082820390508181111561313b5761313a612b4f565b5b9291505056fea26469706673582212202590ccf487b27e59e687d6a1ee793103d9a5de905e0d47ab1e4e5b853ce8452664736f6c63430008110033",
  "devdoc": {
    "kind": "dev",
    "methods": {
      "getAllAssetsPrices()": {
        "details": "This function uses the redstone-evm-connector*"
      },
      "getBalance(bytes32)": {
        "params": {
          "_asset": "the code of an asset*"
        }
      }
    },
    "version": 1
  },
  "userdoc": {
    "kind": "user",
    "methods": {
      "getAllAssetsPrices()": {
        "notice": "Returns the prices of all assets supported by the TokenManager It could be used as a helper method for UI"
      },
      "getBalance(bytes32)": {
        "notice": "Returns a current balance of the asset held by the smart loan"
      }
    },
    "version": 1
  },
  "storageLayout": {
    "storage": [
      {
        "astId": 9633,
        "contract": "contracts/facets/SmartLoanViewFacet.sol:SmartLoanViewFacet",
        "label": "_status",
        "offset": 0,
        "slot": "0",
        "type": "t_uint256"
      }
    ],
    "types": {
      "t_uint256": {
        "encoding": "inplace",
        "label": "uint256",
        "numberOfBytes": "32"
      }
    }
  }
}