{
  "address": "0x3658549C388E31f7219b053F3c14246E642E3702",
  "abi": [
    {
      "inputs": [],
      "name": "CalldataMustHaveValidPayload",
      "type": "error"
    },
    {
      "inputs": [],
      "name": "CalldataOverOrUnderFlow",
      "type": "error"
    },
    {
      "inputs": [],
      "name": "EachSignerMustProvideTheSameValue",
      "type": "error"
    },
    {
      "inputs": [],
      "name": "EmptyCalldataPointersArr",
      "type": "error"
    },
    {
      "inputs": [],
      "name": "IncorrectUnsignedMetadataSize",
      "type": "error"
    },
    {
      "inputs": [
        {
          "internalType": "uint256",
          "name": "receviedSignersCount",
          "type": "uint256"
        },
        {
          "internalType": "uint256",
          "name": "requiredSignersCount",
          "type": "uint256"
        }
      ],
      "name": "InsufficientNumberOfUniqueSigners",
      "type": "error"
    },
    {
      "inputs": [],
      "name": "InvalidCalldataPointer",
      "type": "error"
    },
    {
      "inputs": [
        {
          "internalType": "bytes",
          "name": "result",
          "type": "bytes"
        }
      ],
      "name": "ProxyCalldataFailedWithCustomError",
      "type": "error"
    },
    {
      "inputs": [
        {
          "internalType": "string",
          "name": "message",
          "type": "string"
        }
      ],
      "name": "ProxyCalldataFailedWithStringMessage",
      "type": "error"
    },
    {
      "inputs": [],
      "name": "ProxyCalldataFailedWithoutErrMsg",
      "type": "error"
    },
    {
      "inputs": [
        {
          "internalType": "address",
          "name": "receivedSigner",
          "type": "address"
        }
      ],
      "name": "SignerNotAuthorised",
      "type": "error"
    },
    {
      "anonymous": false,
      "inputs": [
        {
          "indexed": true,
          "internalType": "address",
          "name": "liquidator",
          "type": "address"
        },
        {
          "indexed": true,
          "internalType": "bool",
          "name": "healing",
          "type": "bool"
        },
        {
          "indexed": false,
          "internalType": "uint256",
          "name": "initialTotal",
          "type": "uint256"
        },
        {
          "indexed": false,
          "internalType": "uint256",
          "name": "initialDebt",
          "type": "uint256"
        },
        {
          "indexed": false,
          "internalType": "uint256",
          "name": "repayAmount",
          "type": "uint256"
        },
        {
          "indexed": false,
          "internalType": "uint256",
          "name": "bonusInUSD",
          "type": "uint256"
        },
        {
          "indexed": false,
          "internalType": "uint256",
          "name": "health",
          "type": "uint256"
        },
        {
          "indexed": false,
          "internalType": "uint256",
          "name": "timestamp",
          "type": "uint256"
        }
      ],
      "name": "Liquidated",
      "type": "event"
    },
    {
      "anonymous": false,
      "inputs": [
        {
          "indexed": true,
          "internalType": "address",
          "name": "liquidator",
          "type": "address"
        },
        {
          "indexed": true,
          "internalType": "bytes32",
          "name": "asset",
          "type": "bytes32"
        },
        {
          "indexed": false,
          "internalType": "uint256",
          "name": "amount",
          "type": "uint256"
        },
        {
          "indexed": false,
          "internalType": "uint256",
          "name": "timestamp",
          "type": "uint256"
        }
      ],
      "name": "LiquidationRepay",
      "type": "event"
    },
    {
      "anonymous": false,
      "inputs": [
        {
          "indexed": true,
          "internalType": "address",
          "name": "liquidator",
          "type": "address"
        },
        {
          "indexed": true,
          "internalType": "bytes32",
          "name": "asset",
          "type": "bytes32"
        },
        {
          "indexed": false,
          "internalType": "uint256",
          "name": "amount",
          "type": "uint256"
        },
        {
          "indexed": false,
          "internalType": "uint256",
          "name": "timestamp",
          "type": "uint256"
        }
      ],
      "name": "LiquidationTransfer",
      "type": "event"
    },
    {
      "inputs": [
        {
          "internalType": "bytes32[]",
          "name": "assetsToRepay",
          "type": "bytes32[]"
        }
      ],
      "name": "_getAllPricesForLiquidation",
      "outputs": [
        {
          "components": [
            {
              "components": [
                {
                  "internalType": "bytes32",
                  "name": "asset",
                  "type": "bytes32"
                },
                {
                  "internalType": "uint256",
                  "name": "price",
                  "type": "uint256"
                }
              ],
              "internalType": "struct SolvencyFacetProd.AssetPrice[]",
              "name": "ownedAssetsPrices",
              "type": "tuple[]"
            },
            {
              "components": [
                {
                  "internalType": "bytes32",
                  "name": "asset",
                  "type": "bytes32"
                },
                {
                  "internalType": "uint256",
                  "name": "price",
                  "type": "uint256"
                }
              ],
              "internalType": "struct SolvencyFacetProd.AssetPrice[]",
              "name": "debtAssetsPrices",
              "type": "tuple[]"
            },
            {
              "components": [
                {
                  "internalType": "bytes32",
                  "name": "asset",
                  "type": "bytes32"
                },
                {
                  "internalType": "uint256",
                  "name": "price",
                  "type": "uint256"
                }
              ],
              "internalType": "struct SolvencyFacetProd.AssetPrice[]",
              "name": "stakedPositionsPrices",
              "type": "tuple[]"
            },
            {
              "components": [
                {
                  "internalType": "bytes32",
                  "name": "asset",
                  "type": "bytes32"
                },
                {
                  "internalType": "uint256",
                  "name": "price",
                  "type": "uint256"
                }
              ],
              "internalType": "struct SolvencyFacetProd.AssetPrice[]",
              "name": "assetsToRepayPrices",
              "type": "tuple[]"
            }
          ],
          "internalType": "struct SolvencyFacetProd.CachedPrices",
          "name": "result",
          "type": "tuple"
        }
      ],
      "stateMutability": "nonpayable",
      "type": "function"
    },
    {
      "inputs": [],
      "name": "_getHealthRatio",
      "outputs": [
        {
          "internalType": "uint256",
          "name": "health",
          "type": "uint256"
        }
      ],
      "stateMutability": "nonpayable",
      "type": "function"
    },
    {
      "inputs": [
        {
          "components": [
            {
              "components": [
                {
                  "internalType": "bytes32",
                  "name": "asset",
                  "type": "bytes32"
                },
                {
                  "internalType": "uint256",
                  "name": "price",
                  "type": "uint256"
                }
              ],
              "internalType": "struct SolvencyFacetProd.AssetPrice[]",
              "name": "ownedAssetsPrices",
              "type": "tuple[]"
            },
            {
              "components": [
                {
                  "internalType": "bytes32",
                  "name": "asset",
                  "type": "bytes32"
                },
                {
                  "internalType": "uint256",
                  "name": "price",
                  "type": "uint256"
                }
              ],
              "internalType": "struct SolvencyFacetProd.AssetPrice[]",
              "name": "debtAssetsPrices",
              "type": "tuple[]"
            },
            {
              "components": [
                {
                  "internalType": "bytes32",
                  "name": "asset",
                  "type": "bytes32"
                },
                {
                  "internalType": "uint256",
                  "name": "price",
                  "type": "uint256"
                }
              ],
              "internalType": "struct SolvencyFacetProd.AssetPrice[]",
              "name": "stakedPositionsPrices",
              "type": "tuple[]"
            },
            {
              "components": [
                {
                  "internalType": "bytes32",
                  "name": "asset",
                  "type": "bytes32"
                },
                {
                  "internalType": "uint256",
                  "name": "price",
                  "type": "uint256"
                }
              ],
              "internalType": "struct SolvencyFacetProd.AssetPrice[]",
              "name": "assetsToRepayPrices",
              "type": "tuple[]"
            }
          ],
          "internalType": "struct SolvencyFacetProd.CachedPrices",
          "name": "cachedPrices",
          "type": "tuple"
        }
      ],
      "name": "_getHealthRatioWithPrices",
      "outputs": [
        {
          "internalType": "uint256",
          "name": "health",
          "type": "uint256"
        }
      ],
      "stateMutability": "nonpayable",
      "type": "function"
    },
    {
      "inputs": [],
      "name": "getMaxHealthAfterLiquidation",
      "outputs": [
        {
          "internalType": "uint256",
          "name": "",
          "type": "uint256"
        }
      ],
      "stateMutability": "pure",
      "type": "function"
    },
    {
      "inputs": [],
      "name": "getMaxLiquidationBonus",
      "outputs": [
        {
          "internalType": "uint256",
          "name": "",
          "type": "uint256"
        }
      ],
      "stateMutability": "pure",
      "type": "function"
    },
    {
      "inputs": [
        {
          "internalType": "bytes32",
          "name": "symbol",
          "type": "bytes32"
        }
      ],
      "name": "getPrice",
      "outputs": [
        {
          "internalType": "uint256",
          "name": "price",
          "type": "uint256"
        }
      ],
      "stateMutability": "nonpayable",
      "type": "function"
    },
    {
      "inputs": [
        {
          "internalType": "bytes32[]",
          "name": "symbols",
          "type": "bytes32[]"
        }
      ],
      "name": "getPrices",
      "outputs": [
        {
          "internalType": "uint256[]",
          "name": "prices",
          "type": "uint256[]"
        }
      ],
      "stateMutability": "nonpayable",
      "type": "function"
    },
    {
      "inputs": [
        {
          "internalType": "bytes32[]",
          "name": "assetsToRepay",
          "type": "bytes32[]"
        },
        {
          "internalType": "uint256[]",
          "name": "amountsToRepay",
          "type": "uint256[]"
        },
        {
          "internalType": "uint256",
          "name": "_liquidationBonusPercent",
          "type": "uint256"
        }
      ],
      "name": "liquidateLoan",
      "outputs": [],
      "stateMutability": "payable",
      "type": "function"
    },
    {
      "inputs": [
        {
          "internalType": "bytes32[]",
          "name": "assetsToRepay",
          "type": "bytes32[]"
        },
        {
          "internalType": "uint256[]",
          "name": "amountsToRepay",
          "type": "uint256[]"
        },
        {
          "internalType": "uint256",
          "name": "_liquidationBonusPercent",
          "type": "uint256"
        }
      ],
      "name": "unsafeLiquidateLoan",
      "outputs": [],
      "stateMutability": "payable",
      "type": "function"
    }
  ],
  "transactionHash": "0x2e86165cc6a1573ce01b146ce35066b04e9073a14042d57b46b7253b10931245",
  "args": [],
  "numDeployments": 1,
  "solcInputHash": "b4afded9ae06050a783df8dea6028bc0",
  "bytecode": "0x608060405234801561001057600080fd5b506001600081905550613f15806100286000396000f3fe6080604052600436106100865760003560e01c80636e3bfe9f116100595780636e3bfe9f1461014c5780639a32720514610189578063b2d40e73146101b4578063b859791c146101f1578063e799d9941461021c57610086565b806326ee48361461008b57806331d98b3f146100c857806338df9add1461010557806339e2719e14610121575b600080fd5b34801561009757600080fd5b506100b260048036038101906100ad9190612410565b610238565b6040516100bf9190612521565b60405180910390f35b3480156100d457600080fd5b506100ef60048036038101906100ea9190612543565b6102e2565b6040516100fc919061257f565b60405180910390f35b61011f600480360381019061011a9190612689565b61038c565b005b34801561012d57600080fd5b50610136610425565b604051610143919061257f565b60405180910390f35b34801561015857600080fd5b50610173600480360381019061016e9190612919565b6104c2565b604051610180919061257f565b60405180910390f35b34801561019557600080fd5b5061019e61056c565b6040516101ab919061257f565b60405180910390f35b3480156101c057600080fd5b506101db60048036038101906101d69190612410565b61057c565b6040516101e89190612ac7565b60405180910390f35b3480156101fd57600080fd5b5061020661062c565b604051610213919061257f565b60405180910390f35b61023660048036038101906102319190612689565b610635565b005b60606102c861024d6326ee483660e01b6106ce565b6326ee483660e01b846040516024016102669190612b98565b604051602081830303815290604052907bffffffffffffffffffffffffffffffffffffffffffffffffffffffff19166020820180517bffffffffffffffffffffffffffffffffffffffffffffffffffffffff8381831617835250505050610758565b8060200190518101906102db9190612c66565b9050919050565b60006103726102f76331d98b3f60e01b6106ce565b6331d98b3f60e01b846040516024016103109190612cbe565b604051602081830303815290604052907bffffffffffffffffffffffffffffffffffffffffffffffffffffffff19166020820180517bffffffffffffffffffffffffffffffffffffffffffffffffffffffff8381831617835250505050610758565b8060200190518101906103859190612cd9565b9050919050565b60006103966107e9565b905060028160000154036103df576040517f08c379a00000000000000000000000000000000000000000000000000000000081526004016103d690612d63565b60405180910390fd5b60028160000181905550610415604051806080016040528086815260200185815260200184815260200160001515815250610816565b6001816000018190555050505050565b60006104aa61043a637914334f60e01b6106ce565b637914334f60e01b604051602401604051602081830303815290604052907bffffffffffffffffffffffffffffffffffffffffffffffffffffffff19166020820180517bffffffffffffffffffffffffffffffffffffffffffffffffffffffff8381831617835250505050610758565b8060200190518101906104bd9190612cd9565b905090565b60006105526104d763360398a360e01b6106ce565b63360398a360e01b846040516024016104f09190612ac7565b604051602081830303815290604052907bffffffffffffffffffffffffffffffffffffffffffffffffffffffff19166020820180517bffffffffffffffffffffffffffffffffffffffffffffffffffffffff8381831617835250505050610758565b8060200190518101906105659190612cd9565b9050919050565b6000670e75ed7aaff50000905090565b610584612245565b61061261059763a3aa8d1e60e01b6106ce565b63a3aa8d1e60e01b846040516024016105b09190612b98565b604051602081830303815290604052907bffffffffffffffffffffffffffffffffffffffffffffffffffffffff19166020820180517bffffffffffffffffffffffffffffffffffffffffffffffffffffffff8381831617835250505050610758565b8060200190518101906106259190612f67565b9050919050565b60006064905090565b600061063f6107e9565b90506002816000015403610688576040517f08c379a000000000000000000000000000000000000000000000000000000000815260040161067f90612d63565b60405180910390fd5b600281600001819055506106be604051806080016040528086815260200185815260200184815260200160011515815250610816565b6001816000018190555050505050565b60006106d861141c565b73ffffffffffffffffffffffffffffffffffffffff16630d741577836040518263ffffffff1660e01b81526004016107109190612feb565b602060405180830381865afa15801561072d573d6000803e3d6000fd5b505050506040513d601f19601f820116820180604052508101906107519190613064565b9050919050565b6060600061076583611438565b90506000808573ffffffffffffffffffffffffffffffffffffffff168360405161078f9190613102565b600060405180830381855af49150503d80600081146107ca576040519150601f19603f3d011682016040523d82523d6000602084013e6107cf565b606091505b50915091506107de82826114f2565b935050505092915050565b6000807f1c85eba10a4cf2d29c83fc15f97931886b9fd3caeb70d8c377aeedc58b919e3b90508091505090565b6000610825826000015161057c565b9050600061083b826000015183604001516115f2565b9050600061084c836020015161169f565b905061085661062c565b8460400151111561089c576040517f08c379a00000000000000000000000000000000000000000000000000000000081526004016108939061318b565b60405180910390fd5b6108a583611749565b156108e5576040517f08c379a00000000000000000000000000000000000000000000000000000000081526004016108dc906131f7565b60405180910390fd5b600082821190508015806108fa575084606001515b610939576040517f08c379a000000000000000000000000000000000000000000000000000000000815260040161093090613289565b60405180910390fd5b60008060006109466117f3565b905060005b886000015151811015610fd45760008273ffffffffffffffffffffffffffffffffffffffff166325eb876f8b60000151848151811061098d5761098c6132a9565b5b602002602001015160016040518363ffffffff1660e01b81526004016109b49291906132f3565b602060405180830381865afa1580156109d1573d6000803e3d6000fd5b505050506040513d601f19601f820116820180604052508101906109f59190613064565b905060008173ffffffffffffffffffffffffffffffffffffffff166370a08231306040518263ffffffff1660e01b8152600401610a32919061332b565b602060405180830381865afa158015610a4f573d6000803e3d6000fd5b505050506040513d601f19601f82011682018060405250810190610a739190612cd9565b905060008b602001518481518110610a8e57610a8d6132a9565b5b6020026020010151821015610aca57818c602001518581518110610ab557610ab46132a9565b5b6020026020010151610ac79190613375565b90505b6000811115610bd157610b003330838673ffffffffffffffffffffffffffffffffffffffff1661180f909392919063ffffffff16565b8273ffffffffffffffffffffffffffffffffffffffff1663313ce5676040518163ffffffff1660e01b8152600401602060405180830381865afa158015610b4b573d6000803e3d6000fd5b505050506040513d601f19601f82011682018060405250810190610b6f91906133e2565b600a610b7b9190613542565b6402540be4008c606001518681518110610b9857610b976132a9565b5b60200260200101516020015183610baf919061358d565b610bb9919061358d565b610bc391906135fe565b87610bce919061362f565b96505b60008573ffffffffffffffffffffffffffffffffffffffff16630edc25b68e600001518781518110610c0657610c056132a9565b5b60200260200101516040518263ffffffff1660e01b8152600401610c2a9190612cbe565b602060405180830381865afa158015610c47573d6000803e3d6000fd5b505050506040513d601f19601f82011682018060405250810190610c6b9190613064565b90506000610d108273ffffffffffffffffffffffffffffffffffffffff16636011163e306040518263ffffffff1660e01b8152600401610cab919061332b565b602060405180830381865afa158015610cc8573d6000803e3d6000fd5b505050506040513d601f19601f82011682018060405250810190610cec9190612cd9565b8f602001518881518110610d0357610d026132a9565b5b6020026020010151611948565b9050610d3e8260008773ffffffffffffffffffffffffffffffffffffffff166119619092919063ffffffff16565b610d6982828773ffffffffffffffffffffffffffffffffffffffff166119619092919063ffffffff16565b8473ffffffffffffffffffffffffffffffffffffffff1663313ce5676040518163ffffffff1660e01b8152600401602060405180830381865afa158015610db4573d6000803e3d6000fd5b505050506040513d601f19601f82011682018060405250810190610dd891906133e2565b600a610de49190613542565b6402540be4008e606001518881518110610e0157610e006132a9565b5b60200260200101516020015183610e18919061358d565b610e22919061358d565b610e2c91906135fe565b88610e37919061362f565b97508173ffffffffffffffffffffffffffffffffffffffff1663371fd8e6826040518263ffffffff1660e01b8152600401610e72919061257f565b600060405180830381600087803b158015610e8c57600080fd5b505af1158015610ea0573d6000803e3d6000fd5b5050505060008573ffffffffffffffffffffffffffffffffffffffff166370a08231306040518263ffffffff1660e01b8152600401610edf919061332b565b602060405180830381865afa158015610efc573d6000803e3d6000fd5b505050506040513d601f19601f82011682018060405250810190610f209190612cd9565b03610f4d57610f4c8e600001518781518110610f3f57610f3e6132a9565b5b6020026020010151611a97565b5b8d600001518681518110610f6457610f636132a9565b5b60200260200101513373ffffffffffffffffffffffffffffffffffffffff167fbbcbf19996438658763b0f9ad172f8c59ff19bfff8c292350b982fee454a94bb8342604051610fb4929190613663565b60405180910390a350505050508080610fcc9061368c565b91505061094b565b506000610fdf611ab5565b90506000610feb611b28565b8a6040015185610ffb919061358d565b61100591906135fe565b90506000670de0b6b3a7640000905060006110288b600001518c604001516115f2565b9050871580156110435750828761103f919061362f565b8110155b156110755780670de0b6b3a7640000848961105e919061362f565b611068919061358d565b61107291906135fe565b91505b60004711156110c6576110c5670de0b6b3a76400008347611096919061358d565b6110a091906135fe565b3373ffffffffffffffffffffffffffffffffffffffff16611b3290919063ffffffff16565b5b60005b84518110156112605760006110f98683815181106110ea576110e96132a9565b5b60200260200101516001611c32565b905060008173ffffffffffffffffffffffffffffffffffffffff166370a08231306040518263ffffffff1660e01b8152600401611136919061332b565b602060405180830381865afa158015611153573d6000803e3d6000fd5b505050506040513d601f19601f820116820180604052508101906111779190612cd9565b90506111c233670de0b6b3a76400008784611192919061358d565b61119c91906135fe565b8473ffffffffffffffffffffffffffffffffffffffff16611cbf9092919063ffffffff16565b8683815181106111d5576111d46132a9565b5b60200260200101513373ffffffffffffffffffffffffffffffffffffffff167f1f2bf5ae7d7e593826dd3036889af15fa84a420d83ef136e4e90b0dd5dca181f670de0b6b3a7640000888561122a919061358d565b61123491906135fe565b42604051611243929190613663565b60405180910390a3505080806112589061368c565b9150506110c9565b50600061126c8c6104c2565b9050881561131c5760006112838d6020015161169f565b146112c3576040517f08c379a00000000000000000000000000000000000000000000000000000000081526004016112ba90613746565b60405180910390fd5b60006112d78d600001518e604001516115f2565b14611317576040517f08c379a000000000000000000000000000000000000000000000000000000000815260040161130e906137d8565b60405180910390fd5b611367565b61132461056c565b811115611366576040517f08c379a000000000000000000000000000000000000000000000000000000000815260040161135d906138dc565b60405180910390fd5b5b670de0b6b3a76400008110156113b2576040517f08c379a00000000000000000000000000000000000000000000000000000000081526004016113a990613994565b60405180910390fd5b8815153373ffffffffffffffffffffffffffffffffffffffff167f567a14a68e97f07d1b5c5362f179dd20f286531d7d15e7d1318315e7777698fa8d8d8b898742604051611405969594939291906139b4565b60405180910390a350505050505050505050505050565b600073023da3e0d49ee05704773271b11484c6d1e76ccb905090565b6060600082519050600061144a611df5565b90506000818361145a919061362f565b9050600036905082111561149a576040517f5796f78a00000000000000000000000000000000000000000000000000000000815260040160405180910390fd5b6060604051905081815285602001848101826020015b818310156114cd57825181526020830192506020810190506114b0565b5050508283360385602001830137602084840182010160405280945050505050919050565b6060826115e9576000825103611534576040517f567fe27a00000000000000000000000000000000000000000000000000000000815260040160405180910390fd5b600060208301517f08c379a000000000000000000000000000000000000000000000000000000000811491505080156115ac576060604484019050806040517f0f7e82780000000000000000000000000000000000000000000000000000000081526004016115a39190613a59565b60405180910390fd5b826040517ffd36fde30000000000000000000000000000000000000000000000000000000081526004016115e09190613ac5565b60405180910390fd5b81905092915050565b6000611684611607637a70bcce60e01b6106ce565b637a70bcce60e01b8585604051602401611622929190613b56565b604051602081830303815290604052907bffffffffffffffffffffffffffffffffffffffffffffffffffffffff19166020820180517bffffffffffffffffffffffffffffffffffffffffffffffffffffffff8381831617835250505050610758565b8060200190518101906116979190612cd9565b905092915050565b600061172f6116b463e28a5ad360e01b6106ce565b63e28a5ad360e01b846040516024016116cd9190613b8d565b604051602081830303815290604052907bffffffffffffffffffffffffffffffffffffffffffffffffffffffff19166020820180517bffffffffffffffffffffffffffffffffffffffffffffffffffffffff8381831617835250505050610758565b8060200190518101906117429190612cd9565b9050919050565b60006117d961175e63c3abc37660e01b6106ce565b63c3abc37660e01b846040516024016117779190612ac7565b604051602081830303815290604052907bffffffffffffffffffffffffffffffffffffffffffffffffffffffff19166020820180517bffffffffffffffffffffffffffffffffffffffffffffffffffffffff8381831617835250505050610758565b8060200190518101906117ec9190613bdb565b9050919050565b60007334cb5fc3b28215713682de95daf2b00a4619db03905090565b6000808573ffffffffffffffffffffffffffffffffffffffff166323b872dd86868660405160240161184393929190613c08565b6040516020818303038152906040529060e01b6020820180517bffffffffffffffffffffffffffffffffffffffffffffffffffffffff83818316178352505050506040516118919190613102565b6000604051808303816000865af19150503d80600081146118ce576040519150601f19603f3d011682016040523d82523d6000602084013e6118d3565b606091505b509150915081801561190157506000815114806119005750808060200190518101906118ff9190613bdb565b5b5b611940576040517f08c379a000000000000000000000000000000000000000000000000000000000815260040161193790613cb1565b60405180910390fd5b505050505050565b60008183106119575781611959565b825b905092915050565b6000808473ffffffffffffffffffffffffffffffffffffffff1663095ea7b38585604051602401611993929190613cd1565b6040516020818303038152906040529060e01b6020820180517bffffffffffffffffffffffffffffffffffffffffffffffffffffffff83818316178352505050506040516119e19190613102565b6000604051808303816000865af19150503d8060008114611a1e576040519150601f19603f3d011682016040523d82523d6000602084013e611a23565b606091505b5091509150818015611a515750600081511480611a50575080806020019051810190611a4f9190613bdb565b5b5b611a90576040517f08c379a0000000000000000000000000000000000000000000000000000000008152600401611a8790613d6c565b60405180910390fd5b5050505050565b6000611aa1611e65565b9050611ab08160040183611e92565b505050565b60606000611ac1611e65565b905080600401600001600001600001600001805480602002602001604051908101604052809291908181526020018280548015611b1d57602002820191906000526020600020905b815481526020019060010190808311611b09575b505050505091505090565b60006103e8905090565b60008273ffffffffffffffffffffffffffffffffffffffff1682600067ffffffffffffffff811115611b6757611b66612297565b5b6040519080825280601f01601f191660200182016040528015611b995781602001600182028036833780820191505090505b50604051611ba79190613102565b60006040518083038185875af1925050503d8060008114611be4576040519150601f19603f3d011682016040523d82523d6000602084013e611be9565b606091505b5050905080611c2d576040517f08c379a0000000000000000000000000000000000000000000000000000000008152600401611c2490613dfe565b60405180910390fd5b505050565b6000611c3c6117f3565b73ffffffffffffffffffffffffffffffffffffffff166325eb876f84846040518363ffffffff1660e01b8152600401611c769291906132f3565b602060405180830381865afa158015611c93573d6000803e3d6000fd5b505050506040513d601f19601f82011682018060405250810190611cb79190613064565b905092915050565b6000808473ffffffffffffffffffffffffffffffffffffffff1663a9059cbb8585604051602401611cf1929190613cd1565b6040516020818303038152906040529060e01b6020820180517bffffffffffffffffffffffffffffffffffffffffffffffffffffffff8381831617835250505050604051611d3f9190613102565b6000604051808303816000865af19150503d8060008114611d7c576040519150601f19603f3d011682016040523d82523d6000602084013e611d81565b606091505b5091509150818015611daf5750600081511480611dae575080806020019051810190611dad9190613bdb565b5b5b611dee576040517f08c379a0000000000000000000000000000000000000000000000000000000008152600401611de590613e90565b60405180910390fd5b5050505050565b600080611e00611ea9565b90506000611e0d82611fba565b61ffff169050600282611e20919061362f565b915060005b81811015611e5c576000611e3884612016565b90508084611e46919061362f565b9350508080611e549061368c565b915050611e25565b50819250505090565b6000807f8d5bb42e0ac1496a2c326edc9c00758985246e6c2bb146d6c2f4a0d509e0960a90508091505090565b6000611ea18360000183612055565b905092915050565b60008060203603356602ed57011e000081166602ed57011e00001491505080611efe576040517fe7764c9e00000000000000000000000000000000000000000000000000000000815260040160405180910390fd5b60008036905060291115611f3e576040517f5796f78a00000000000000000000000000000000000000000000000000000000815260040160405180910390fd5b602936033590506000600960038362ffffff16611f5b919061362f565b611f65919061362f565b90506000369050600282611f79919061362f565b1115611fb1576040517fc30a7bd700000000000000000000000000000000000000000000000000000000815260040160405180910390fd5b80935050505090565b600080602083611fca919061362f565b9050600036905081111561200a576040517f5796f78a00000000000000000000000000000000000000000000000000000000815260040160405180910390fd5b80360335915050919050565b60008060006120248461208e565b91509150604e816020612037919061362f565b83612042919061358d565b61204c919061362f565b92505050919050565b600082600201600083815260200190815260200160002060009055612086828460000161210490919063ffffffff16565b905092915050565b60008060008060006041866120a3919061362f565b905060006120ca6020836120b7919061362f565b600036905061211b90919063ffffffff16565b9050803593506120e460038261211b90919063ffffffff16565b9050803592508362ffffff1695508263ffffffff16945050505050915091565b60006121138360000183612131565b905092915050565b600081836121299190613375565b905092915050565b600080836001016000848152602001908152602001600020549050600081146122395760006001826121639190613375565b905060006001866000018054905061217b9190613375565b90508181146121ea57600086600001828154811061219c5761219b6132a9565b5b90600052602060002001549050808760000184815481106121c0576121bf6132a9565b5b90600052602060002001819055508387600101600083815260200190815260200160002081905550505b856000018054806121fe576121fd613eb0565b5b60019003818190600052602060002001600090559055856001016000868152602001908152602001600020600090556001935050505061223f565b60009150505b92915050565b6040518060800160405280606081526020016060815260200160608152602001606081525090565b6000604051905090565b600080fd5b600080fd5b600080fd5b6000601f19601f8301169050919050565b7f4e487b7100000000000000000000000000000000000000000000000000000000600052604160045260246000fd5b6122cf82612286565b810181811067ffffffffffffffff821117156122ee576122ed612297565b5b80604052505050565b600061230161226d565b905061230d82826122c6565b919050565b600067ffffffffffffffff82111561232d5761232c612297565b5b602082029050602081019050919050565b600080fd5b6000819050919050565b61235681612343565b811461236157600080fd5b50565b6000813590506123738161234d565b92915050565b600061238c61238784612312565b6122f7565b905080838252602082019050602084028301858111156123af576123ae61233e565b5b835b818110156123d857806123c48882612364565b8452602084019350506020810190506123b1565b5050509392505050565b600082601f8301126123f7576123f6612281565b5b8135612407848260208601612379565b91505092915050565b60006020828403121561242657612425612277565b5b600082013567ffffffffffffffff8111156124445761244361227c565b5b612450848285016123e2565b91505092915050565b600081519050919050565b600082825260208201905092915050565b6000819050602082019050919050565b6000819050919050565b61249881612485565b82525050565b60006124aa838361248f565b60208301905092915050565b6000602082019050919050565b60006124ce82612459565b6124d88185612464565b93506124e383612475565b8060005b838110156125145781516124fb888261249e565b9750612506836124b6565b9250506001810190506124e7565b5085935050505092915050565b6000602082019050818103600083015261253b81846124c3565b905092915050565b60006020828403121561255957612558612277565b5b600061256784828501612364565b91505092915050565b61257981612485565b82525050565b60006020820190506125946000830184612570565b92915050565b600067ffffffffffffffff8211156125b5576125b4612297565b5b602082029050602081019050919050565b6125cf81612485565b81146125da57600080fd5b50565b6000813590506125ec816125c6565b92915050565b60006126056126008461259a565b6122f7565b905080838252602082019050602084028301858111156126285761262761233e565b5b835b81811015612651578061263d88826125dd565b84526020840193505060208101905061262a565b5050509392505050565b600082601f8301126126705761266f612281565b5b81356126808482602086016125f2565b91505092915050565b6000806000606084860312156126a2576126a1612277565b5b600084013567ffffffffffffffff8111156126c0576126bf61227c565b5b6126cc868287016123e2565b935050602084013567ffffffffffffffff8111156126ed576126ec61227c565b5b6126f98682870161265b565b925050604061270a868287016125dd565b9150509250925092565b600080fd5b600080fd5b600067ffffffffffffffff82111561273957612738612297565b5b602082029050602081019050919050565b6000604082840312156127605761275f612714565b5b61276a60406122f7565b9050600061277a84828501612364565b600083015250602061278e848285016125dd565b60208301525092915050565b60006127ad6127a88461271e565b6122f7565b905080838252602082019050604084028301858111156127d0576127cf61233e565b5b835b818110156127f957806127e5888261274a565b8452602084019350506040810190506127d2565b5050509392505050565b600082601f83011261281857612817612281565b5b813561282884826020860161279a565b91505092915050565b60006080828403121561284757612846612714565b5b61285160806122f7565b9050600082013567ffffffffffffffff81111561287157612870612719565b5b61287d84828501612803565b600083015250602082013567ffffffffffffffff8111156128a1576128a0612719565b5b6128ad84828501612803565b602083015250604082013567ffffffffffffffff8111156128d1576128d0612719565b5b6128dd84828501612803565b604083015250606082013567ffffffffffffffff81111561290157612900612719565b5b61290d84828501612803565b60608301525092915050565b60006020828403121561292f5761292e612277565b5b600082013567ffffffffffffffff81111561294d5761294c61227c565b5b61295984828501612831565b91505092915050565b600081519050919050565b600082825260208201905092915050565b6000819050602082019050919050565b61299781612343565b82525050565b6040820160008201516129b3600085018261298e565b5060208201516129c6602085018261248f565b50505050565b60006129d8838361299d565b60408301905092915050565b6000602082019050919050565b60006129fc82612962565b612a06818561296d565b9350612a118361297e565b8060005b83811015612a42578151612a2988826129cc565b9750612a34836129e4565b925050600181019050612a15565b5085935050505092915050565b60006080830160008301518482036000860152612a6c82826129f1565b91505060208301518482036020860152612a8682826129f1565b91505060408301518482036040860152612aa082826129f1565b91505060608301518482036060860152612aba82826129f1565b9150508091505092915050565b60006020820190508181036000830152612ae18184612a4f565b905092915050565b600081519050919050565b600082825260208201905092915050565b6000819050602082019050919050565b6000612b21838361298e565b60208301905092915050565b6000602082019050919050565b6000612b4582612ae9565b612b4f8185612af4565b9350612b5a83612b05565b8060005b83811015612b8b578151612b728882612b15565b9750612b7d83612b2d565b925050600181019050612b5e565b5085935050505092915050565b60006020820190508181036000830152612bb28184612b3a565b905092915050565b600081519050612bc9816125c6565b92915050565b6000612be2612bdd8461259a565b6122f7565b90508083825260208201905060208402830185811115612c0557612c0461233e565b5b835b81811015612c2e5780612c1a8882612bba565b845260208401935050602081019050612c07565b5050509392505050565b600082601f830112612c4d57612c4c612281565b5b8151612c5d848260208601612bcf565b91505092915050565b600060208284031215612c7c57612c7b612277565b5b600082015167ffffffffffffffff811115612c9a57612c9961227c565b5b612ca684828501612c38565b91505092915050565b612cb881612343565b82525050565b6000602082019050612cd36000830184612caf565b92915050565b600060208284031215612cef57612cee612277565b5b6000612cfd84828501612bba565b91505092915050565b600082825260208201905092915050565b7f5265656e7472616e637947756172643a207265656e7472616e742063616c6c00600082015250565b6000612d4d601f83612d06565b9150612d5882612d17565b602082019050919050565b60006020820190508181036000830152612d7c81612d40565b9050919050565b600081519050612d928161234d565b92915050565b600060408284031215612dae57612dad612714565b5b612db860406122f7565b90506000612dc884828501612d83565b6000830152506020612ddc84828501612bba565b60208301525092915050565b6000612dfb612df68461271e565b6122f7565b90508083825260208201905060408402830185811115612e1e57612e1d61233e565b5b835b81811015612e475780612e338882612d98565b845260208401935050604081019050612e20565b5050509392505050565b600082601f830112612e6657612e65612281565b5b8151612e76848260208601612de8565b91505092915050565b600060808284031215612e9557612e94612714565b5b612e9f60806122f7565b9050600082015167ffffffffffffffff811115612ebf57612ebe612719565b5b612ecb84828501612e51565b600083015250602082015167ffffffffffffffff811115612eef57612eee612719565b5b612efb84828501612e51565b602083015250604082015167ffffffffffffffff811115612f1f57612f1e612719565b5b612f2b84828501612e51565b604083015250606082015167ffffffffffffffff811115612f4f57612f4e612719565b5b612f5b84828501612e51565b60608301525092915050565b600060208284031215612f7d57612f7c612277565b5b600082015167ffffffffffffffff811115612f9b57612f9a61227c565b5b612fa784828501612e7f565b91505092915050565b60007fffffffff0000000000000000000000000000000000000000000000000000000082169050919050565b612fe581612fb0565b82525050565b60006020820190506130006000830184612fdc565b92915050565b600073ffffffffffffffffffffffffffffffffffffffff82169050919050565b600061303182613006565b9050919050565b61304181613026565b811461304c57600080fd5b50565b60008151905061305e81613038565b92915050565b60006020828403121561307a57613079612277565b5b60006130888482850161304f565b91505092915050565b600081519050919050565b600081905092915050565b60005b838110156130c55780820151818401526020810190506130aa565b60008484015250505050565b60006130dc82613091565b6130e6818561309c565b93506130f68185602086016130a7565b80840191505092915050565b600061310e82846130d1565b915081905092915050565b7f446566696e6564206c69717569646174696f6e20626f6e75732068696768657260008201527f207468616e206d61782e2076616c756500000000000000000000000000000000602082015250565b6000613175603083612d06565b915061318082613119565b604082019050919050565b600060208201905081810360008301526131a481613168565b9050919050565b7f43616e6e6f742073656c6c6f7574206120736f6c76656e74206163636f756e74600082015250565b60006131e1602083612d06565b91506131ec826131ab565b602082019050919050565b60006020820190508181036000830152613210816131d4565b9050919050565b7f547279696e6720746f206c69717569646174652062616e6b72757074206c6f6160008201527f6e00000000000000000000000000000000000000000000000000000000000000602082015250565b6000613273602183612d06565b915061327e82613217565b604082019050919050565b600060208201905081810360008301526132a281613266565b9050919050565b7f4e487b7100000000000000000000000000000000000000000000000000000000600052603260045260246000fd5b60008115159050919050565b6132ed816132d8565b82525050565b60006040820190506133086000830185612caf565b61331560208301846132e4565b9392505050565b61332581613026565b82525050565b6000602082019050613340600083018461331c565b92915050565b7f4e487b7100000000000000000000000000000000000000000000000000000000600052601160045260246000fd5b600061338082612485565b915061338b83612485565b92508282039050818111156133a3576133a2613346565b5b92915050565b600060ff82169050919050565b6133bf816133a9565b81146133ca57600080fd5b50565b6000815190506133dc816133b6565b92915050565b6000602082840312156133f8576133f7612277565b5b6000613406848285016133cd565b91505092915050565b60008160011c9050919050565b6000808291508390505b60018511156134665780860481111561344257613441613346565b5b60018516156134515780820291505b808102905061345f8561340f565b9450613426565b94509492505050565b60008261347f576001905061353b565b8161348d576000905061353b565b81600181146134a357600281146134ad576134dc565b600191505061353b565b60ff8411156134bf576134be613346565b5b8360020a9150848211156134d6576134d5613346565b5b5061353b565b5060208310610133831016604e8410600b84101617156135115782820a90508381111561350c5761350b613346565b5b61353b565b61351e848484600161341c565b9250905081840481111561353557613534613346565b5b81810290505b9392505050565b600061354d82612485565b9150613558836133a9565b92506135857fffffffffffffffffffffffffffffffffffffffffffffffffffffffffffffffff848461346f565b905092915050565b600061359882612485565b91506135a383612485565b92508282026135b181612485565b915082820484148315176135c8576135c7613346565b5b5092915050565b7f4e487b7100000000000000000000000000000000000000000000000000000000600052601260045260246000fd5b600061360982612485565b915061361483612485565b925082613624576136236135cf565b5b828204905092915050565b600061363a82612485565b915061364583612485565b925082820190508082111561365d5761365c613346565b5b92915050565b60006040820190506136786000830185612570565b6136856020830184612570565b9392505050565b600061369782612485565b91507fffffffffffffffffffffffffffffffffffffffffffffffffffffffffffffffff82036136c9576136c8613346565b5b600182019050919050565b7f4865616c696e672061206c6f616e206d75737420656e6420757020776974682060008201527f3020646562740000000000000000000000000000000000000000000000000000602082015250565b6000613730602683612d06565b915061373b826136d4565b604082019050919050565b6000602082019050818103600083015261375f81613723565b9050919050565b7f4865616c696e672061206c6f616e206d75737420656e6420757020776974682060008201527f3020746f74616c2076616c756500000000000000000000000000000000000000602082015250565b60006137c2602d83612d06565b91506137cd82613766565b604082019050919050565b600060208201905081810360008301526137f1816137b5565b9050919050565b7f54686973206f7065726174696f6e20776f756c6420726573756c7420696e206160008201527f206c6f616e2077697468206865616c746820726174696f20686967686572207460208201527f68616e204d617869756d204865616c746820526174696f20776869636820776f60408201527f756c6420707574206c6f616e2773206f776e657220696e2061207269736b206f60608201527f6620616e20756e6e65636573736172696c792068696768206c6f737300000000608082015250565b60006138c6609c83612d06565b91506138d1826137f8565b60a082019050919050565b600060208201905081810360008301526138f5816138b9565b9050919050565b7f54686973206f7065726174696f6e20776f756c64206e6f7420726573756c742060008201527f696e206272696e67696e6720746865206c6f616e206261636b20746f2061207360208201527f6f6c76656e742073746174650000000000000000000000000000000000000000604082015250565b600061397e604c83612d06565b9150613989826138fc565b606082019050919050565b600060208201905081810360008301526139ad81613971565b9050919050565b600060c0820190506139c96000830189612570565b6139d66020830188612570565b6139e36040830187612570565b6139f06060830186612570565b6139fd6080830185612570565b613a0a60a0830184612570565b979650505050505050565b600081519050919050565b6000613a2b82613a15565b613a358185612d06565b9350613a458185602086016130a7565b613a4e81612286565b840191505092915050565b60006020820190508181036000830152613a738184613a20565b905092915050565b600082825260208201905092915050565b6000613a9782613091565b613aa18185613a7b565b9350613ab18185602086016130a7565b613aba81612286565b840191505092915050565b60006020820190508181036000830152613adf8184613a8c565b905092915050565b600082825260208201905092915050565b6000613b0382612962565b613b0d8185613ae7565b9350613b188361297e565b8060005b83811015613b49578151613b3088826129cc565b9750613b3b836129e4565b925050600181019050613b1c565b5085935050505092915050565b60006040820190508181036000830152613b708185613af8565b90508181036020830152613b848184613af8565b90509392505050565b60006020820190508181036000830152613ba78184613af8565b905092915050565b613bb8816132d8565b8114613bc357600080fd5b50565b600081519050613bd581613baf565b92915050565b600060208284031215613bf157613bf0612277565b5b6000613bff84828501613bc6565b91505092915050565b6000606082019050613c1d600083018661331c565b613c2a602083018561331c565b613c376040830184612570565b949350505050565b7f5472616e7366657248656c7065723a3a7472616e7366657246726f6d3a20747260008201527f616e7366657246726f6d206661696c6564000000000000000000000000000000602082015250565b6000613c9b603183612d06565b9150613ca682613c3f565b604082019050919050565b60006020820190508181036000830152613cca81613c8e565b9050919050565b6000604082019050613ce6600083018561331c565b613cf36020830184612570565b9392505050565b7f5472616e7366657248656c7065723a3a73616665417070726f76653a2061707060008201527f726f7665206661696c6564000000000000000000000000000000000000000000602082015250565b6000613d56602b83612d06565b9150613d6182613cfa565b604082019050919050565b60006020820190508181036000830152613d8581613d49565b9050919050565b7f5472616e7366657248656c7065723a3a736166655472616e736665724554483a60008201527f20455448207472616e73666572206661696c6564000000000000000000000000602082015250565b6000613de8603483612d06565b9150613df382613d8c565b604082019050919050565b60006020820190508181036000830152613e1781613ddb565b9050919050565b7f5472616e7366657248656c7065723a3a736166655472616e736665723a20747260008201527f616e73666572206661696c656400000000000000000000000000000000000000602082015250565b6000613e7a602d83612d06565b9150613e8582613e1e565b604082019050919050565b60006020820190508181036000830152613ea981613e6d565b9050919050565b7f4e487b7100000000000000000000000000000000000000000000000000000000600052603160045260246000fdfea264697066735822122031760c44637354fc87f733e754334dc1183f0cb5751d7478c921145289f62f3b64736f6c63430008110033",
  "devdoc": {
    "events": {
      "Liquidated(address,bool,uint256,uint256,uint256,uint256,uint256,uint256)": {
        "details": "emitted after a successful liquidation operation",
        "params": {
          "bonusInUSD": "an amount of bonus (USD) received by the liquidator",
          "healing": "was the liquidation covering the bad debt (unprofitable liquidation)",
          "health": "a new health ratio after the liquidation operation",
          "initialDebt": "sum of all debts before the liquidation",
          "initialTotal": "total value of assets before the liquidation",
          "liquidator": "the address that initiated the liquidation operation",
          "repayAmount": "requested amount (USD) of liquidation",
          "timestamp": "a time of the liquidation*"
        }
      },
      "LiquidationRepay(address,bytes32,uint256,uint256)": {
        "details": "emitted when funds are repaid to the pool during a liquidation",
        "params": {
          "amount": "of repaid funds",
          "asset": "asset repaid by a liquidator",
          "liquidator": "the address initiating repayment",
          "timestamp": "of the repayment*"
        }
      },
      "LiquidationTransfer(address,bytes32,uint256,uint256)": {
        "details": "emitted when funds are sent to liquidator during liquidation",
        "params": {
          "amount": "of sent funds",
          "asset": "token sent to a liquidator",
          "liquidator": "the address initiating repayment",
          "timestamp": "of the transfer*"
        }
      }
    },
    "kind": "dev",
    "methods": {
      "liquidateLoan(bytes32[],uint256[],uint256)": {
        "details": "This function uses the redstone-evm-connector",
        "params": {
          "_liquidationBonusPercent": "per mille bonus for liquidator. Must be lower than or equal to  getMaxLiquidationBonus()*",
          "amountsToRepay": "utin256[] amounts of tokens provided by liquidator for repayment",
          "assetsToRepay": "bytes32[] names of tokens provided by liquidator for repayment"
        }
      },
      "unsafeLiquidateLoan(bytes32[],uint256[],uint256)": {
        "details": "This function uses the redstone-evm-connector",
        "params": {
          "_liquidationBonusPercent": "per mille bonus for liquidator. Must be lower than or equal to getMaxliquidationBonus()*",
          "amountsToRepay": "utin256[] amounts of tokens provided by liquidator for repayment",
          "assetsToRepay": "bytes32[] names of tokens provided by liquidator for repayment"
        }
      }
    },
    "version": 1
  },
  "userdoc": {
    "kind": "user",
    "methods": {
      "getMaxHealthAfterLiquidation()": {
        "notice": "Returns maximum acceptable health ratio after liquidation*"
      },
      "getMaxLiquidationBonus()": {
        "notice": "Returns maximum acceptable liquidation bonus (bonus is provided by a liquidator)*"
      },
      "liquidateLoan(bytes32[],uint256[],uint256)": {
        "notice": "This function can be accessed by any user when Prime Account is insolvent and liquidate part of the loan with his approved tokens. A liquidator has to approve adequate amount of tokens to repay debts to liquidity pools if there is not enough of them in a SmartLoan. For that he will receive the corresponding amount from SmartLoan with the same USD value + bonus."
      },
      "unsafeLiquidateLoan(bytes32[],uint256[],uint256)": {
        "notice": "This function can be accessed by any user when Prime Account is insolvent or bankrupt and repay part of the loan with his approved tokens. BE CAREFUL: in contrast to liquidateLoan() method, this one doesn't necessarily return tokens to liquidator, nor give him a bonus. It's purpose is to bring the loan to a solvent position even if it's unprofitable for liquidator."
      }
    },
    "version": 1
  },
  "storageLayout": {
    "storage": [
      {
        "astId": 9094,
        "contract": "contracts/facets/SmartLoanLiquidationFacet.sol:SmartLoanLiquidationFacet",
        "label": "_status",
        "offset": 0,
        "slot": "0",
        "type": "t_uint256"
      }
    ],
    "types": {
      "t_uint256": {
        "encoding": "inplace",
        "label": "uint256",
        "numberOfBytes": "32"
      }
    }
  }
}