{
  "address": "0x8e2Bd83111e72556942F9161ec8920E92bCEf70a",
  "abi": [
    {
      "inputs": [],
      "name": "CalldataMustHaveValidPayload",
      "type": "error"
    },
    {
      "inputs": [],
      "name": "CalldataOverOrUnderFlow",
      "type": "error"
    },
    {
      "inputs": [],
      "name": "EachSignerMustProvideTheSameValue",
      "type": "error"
    },
    {
      "inputs": [],
      "name": "EmptyCalldataPointersArr",
      "type": "error"
    },
    {
      "inputs": [],
      "name": "IncorrectUnsignedMetadataSize",
      "type": "error"
    },
    {
      "inputs": [
        {
          "internalType": "uint256",
          "name": "receviedSignersCount",
          "type": "uint256"
        },
        {
          "internalType": "uint256",
          "name": "requiredSignersCount",
          "type": "uint256"
        }
      ],
      "name": "InsufficientNumberOfUniqueSigners",
      "type": "error"
    },
    {
      "inputs": [],
      "name": "InvalidCalldataPointer",
      "type": "error"
    },
    {
      "inputs": [
        {
          "internalType": "bytes",
          "name": "result",
          "type": "bytes"
        }
      ],
      "name": "ProxyCalldataFailedWithCustomError",
      "type": "error"
    },
    {
      "inputs": [
        {
          "internalType": "string",
          "name": "message",
          "type": "string"
        }
      ],
      "name": "ProxyCalldataFailedWithStringMessage",
      "type": "error"
    },
    {
      "inputs": [],
      "name": "ProxyCalldataFailedWithoutErrMsg",
      "type": "error"
    },
    {
      "inputs": [
        {
          "internalType": "address",
          "name": "receivedSigner",
          "type": "address"
        }
      ],
      "name": "SignerNotAuthorised",
      "type": "error"
    },
    {
      "inputs": [
        {
          "internalType": "bytes32[]",
          "name": "assetsToRepay",
          "type": "bytes32[]"
        }
      ],
      "name": "_getAllPricesForLiquidation",
      "outputs": [
        {
          "components": [
            {
              "components": [
                {
                  "internalType": "bytes32",
                  "name": "asset",
                  "type": "bytes32"
                },
                {
                  "internalType": "uint256",
                  "name": "price",
                  "type": "uint256"
                }
              ],
              "internalType": "struct SolvencyFacetProd.AssetPrice[]",
              "name": "ownedAssetsPrices",
              "type": "tuple[]"
            },
            {
              "components": [
                {
                  "internalType": "bytes32",
                  "name": "asset",
                  "type": "bytes32"
                },
                {
                  "internalType": "uint256",
                  "name": "price",
                  "type": "uint256"
                }
              ],
              "internalType": "struct SolvencyFacetProd.AssetPrice[]",
              "name": "debtAssetsPrices",
              "type": "tuple[]"
            },
            {
              "components": [
                {
                  "internalType": "bytes32",
                  "name": "asset",
                  "type": "bytes32"
                },
                {
                  "internalType": "uint256",
                  "name": "price",
                  "type": "uint256"
                }
              ],
              "internalType": "struct SolvencyFacetProd.AssetPrice[]",
              "name": "stakedPositionsPrices",
              "type": "tuple[]"
            },
            {
              "components": [
                {
                  "internalType": "bytes32",
                  "name": "asset",
                  "type": "bytes32"
                },
                {
                  "internalType": "uint256",
                  "name": "price",
                  "type": "uint256"
                }
              ],
              "internalType": "struct SolvencyFacetProd.AssetPrice[]",
              "name": "assetsToRepayPrices",
              "type": "tuple[]"
            }
          ],
          "internalType": "struct SolvencyFacetProd.CachedPrices",
          "name": "result",
          "type": "tuple"
        }
      ],
      "stateMutability": "nonpayable",
      "type": "function"
    },
    {
      "inputs": [],
      "name": "_getHealthRatio",
      "outputs": [
        {
          "internalType": "uint256",
          "name": "health",
          "type": "uint256"
        }
      ],
      "stateMutability": "nonpayable",
      "type": "function"
    },
    {
      "inputs": [
        {
          "components": [
            {
              "components": [
                {
                  "internalType": "bytes32",
                  "name": "asset",
                  "type": "bytes32"
                },
                {
                  "internalType": "uint256",
                  "name": "price",
                  "type": "uint256"
                }
              ],
              "internalType": "struct SolvencyFacetProd.AssetPrice[]",
              "name": "ownedAssetsPrices",
              "type": "tuple[]"
            },
            {
              "components": [
                {
                  "internalType": "bytes32",
                  "name": "asset",
                  "type": "bytes32"
                },
                {
                  "internalType": "uint256",
                  "name": "price",
                  "type": "uint256"
                }
              ],
              "internalType": "struct SolvencyFacetProd.AssetPrice[]",
              "name": "debtAssetsPrices",
              "type": "tuple[]"
            },
            {
              "components": [
                {
                  "internalType": "bytes32",
                  "name": "asset",
                  "type": "bytes32"
                },
                {
                  "internalType": "uint256",
                  "name": "price",
                  "type": "uint256"
                }
              ],
              "internalType": "struct SolvencyFacetProd.AssetPrice[]",
              "name": "stakedPositionsPrices",
              "type": "tuple[]"
            },
            {
              "components": [
                {
                  "internalType": "bytes32",
                  "name": "asset",
                  "type": "bytes32"
                },
                {
                  "internalType": "uint256",
                  "name": "price",
                  "type": "uint256"
                }
              ],
              "internalType": "struct SolvencyFacetProd.AssetPrice[]",
              "name": "assetsToRepayPrices",
              "type": "tuple[]"
            }
          ],
          "internalType": "struct SolvencyFacetProd.CachedPrices",
          "name": "cachedPrices",
          "type": "tuple"
        }
      ],
      "name": "_getHealthRatioWithPrices",
      "outputs": [
        {
          "internalType": "uint256",
          "name": "health",
          "type": "uint256"
        }
      ],
      "stateMutability": "nonpayable",
      "type": "function"
    },
    {
      "inputs": [],
      "name": "getAllAssetsBalances",
      "outputs": [
        {
          "components": [
            {
              "internalType": "bytes32",
              "name": "name",
              "type": "bytes32"
            },
            {
              "internalType": "uint256",
              "name": "balance",
              "type": "uint256"
            }
          ],
          "internalType": "struct SmartLoanViewFacet.AssetNameBalance[]",
          "name": "",
          "type": "tuple[]"
        }
      ],
      "stateMutability": "view",
      "type": "function"
    },
    {
      "inputs": [],
      "name": "getAllAssetsPrices",
      "outputs": [
        {
          "components": [
            {
              "internalType": "bytes32",
              "name": "name",
              "type": "bytes32"
            },
            {
              "internalType": "uint256",
              "name": "price",
              "type": "uint256"
            }
          ],
          "internalType": "struct SmartLoanViewFacet.AssetNamePrice[]",
          "name": "",
          "type": "tuple[]"
        }
      ],
      "stateMutability": "nonpayable",
      "type": "function"
    },
    {
      "inputs": [],
      "name": "getAllOwnedAssets",
      "outputs": [
        {
          "internalType": "bytes32[]",
          "name": "result",
          "type": "bytes32[]"
        }
      ],
      "stateMutability": "view",
      "type": "function"
    },
    {
      "inputs": [
        {
          "internalType": "bytes32",
          "name": "_asset",
          "type": "bytes32"
        }
      ],
      "name": "getBalance",
      "outputs": [
        {
          "internalType": "uint256",
          "name": "",
          "type": "uint256"
        }
      ],
      "stateMutability": "view",
      "type": "function"
    },
    {
      "inputs": [],
      "name": "getContractOwner",
      "outputs": [
        {
          "internalType": "address",
          "name": "_owner",
          "type": "address"
        }
      ],
      "stateMutability": "view",
      "type": "function"
    },
    {
      "inputs": [],
      "name": "getDebts",
      "outputs": [
        {
          "components": [
            {
              "internalType": "bytes32",
              "name": "name",
              "type": "bytes32"
            },
            {
              "internalType": "uint256",
              "name": "debt",
              "type": "uint256"
            }
          ],
          "internalType": "struct SmartLoanViewFacet.AssetNameDebt[]",
          "name": "",
          "type": "tuple[]"
        }
      ],
      "stateMutability": "view",
      "type": "function"
    },
    {
      "inputs": [],
      "name": "getPercentagePrecision",
      "outputs": [
        {
          "internalType": "uint256",
          "name": "",
          "type": "uint256"
        }
      ],
      "stateMutability": "view",
      "type": "function"
    },
    {
      "inputs": [
        {
          "internalType": "bytes32",
          "name": "symbol",
          "type": "bytes32"
        }
      ],
      "name": "getPrice",
      "outputs": [
        {
          "internalType": "uint256",
          "name": "price",
          "type": "uint256"
        }
      ],
      "stateMutability": "nonpayable",
      "type": "function"
    },
    {
      "inputs": [
        {
          "internalType": "bytes32[]",
          "name": "symbols",
          "type": "bytes32[]"
        }
      ],
      "name": "getPrices",
      "outputs": [
        {
          "internalType": "uint256[]",
          "name": "prices",
          "type": "uint256[]"
        }
      ],
      "stateMutability": "nonpayable",
      "type": "function"
    },
    {
      "inputs": [],
      "name": "getProposedOwner",
      "outputs": [
        {
          "internalType": "address",
          "name": "_proposed",
          "type": "address"
        }
      ],
      "stateMutability": "view",
      "type": "function"
    },
    {
      "inputs": [],
      "name": "getStakedPositions",
      "outputs": [
        {
          "components": [
            {
              "internalType": "address",
              "name": "asset",
              "type": "address"
            },
            {
              "internalType": "bytes32",
              "name": "symbol",
              "type": "bytes32"
            },
            {
              "internalType": "bytes32",
              "name": "identifier",
              "type": "bytes32"
            },
            {
              "internalType": "bytes4",
              "name": "balanceSelector",
              "type": "bytes4"
            },
            {
              "internalType": "bytes4",
              "name": "unstakeSelector",
              "type": "bytes4"
            }
          ],
          "internalType": "struct IStakingPositions.StakedPosition[]",
          "name": "_positions",
          "type": "tuple[]"
        }
      ],
      "stateMutability": "view",
      "type": "function"
    },
    {
      "inputs": [],
      "name": "getSupportedTokensAddresses",
      "outputs": [
        {
          "internalType": "address[]",
          "name": "",
          "type": "address[]"
        }
      ],
      "stateMutability": "view",
      "type": "function"
    },
    {
      "inputs": [
        {
          "internalType": "address",
          "name": "owner",
          "type": "address"
        }
      ],
      "name": "initialize",
      "outputs": [],
      "stateMutability": "nonpayable",
      "type": "function"
    }
  ],
  "transactionHash": "0xe354acf44b9f72ce68347c98d1a7284744ced3f8e93883fbbe12a35b0c755e00",
  "args": [],
  "numDeployments": 3,
  "solcInputHash": "cd3f9197b8ad066370c37e47aeef1280",
  "bytecode": "0x608060405234801561001057600080fd5b506001600081905550613194806100286000396000f3fe608060405234801561001057600080fd5b50600436106101005760003560e01c80636e3bfe9f11610097578063b643813911610066578063b6438139146102c7578063c4d66de8146102e5578063c836ef2e14610301578063eae5a62d1461031f57610100565b80636e3bfe9f146102195780638e73946114610249578063a935310f14610279578063b2d40e731461029757610100565b806331d98b3f116100d357806331d98b3f1461018f57806339e2719e146101bf578063442890d5146101dd5780636b6c92d9146101fb57610100565b8063132e1d391461010557806321f880971461012357806326ee4836146101415780632df4c10614610171575b600080fd5b61010d61033d565b60405161011a919061194f565b60405180910390f35b61012b61034c565b6040516101389190611a5a565b60405180910390f35b61015b60048036038101906101569190611c1f565b6103d4565b6040516101689190611d26565b60405180910390f35b61017961047e565b6040516101869190611ea9565b60405180910390f35b6101a960048036038101906101a49190611ecb565b6105f7565b6040516101b6919061194f565b60405180910390f35b6101c76106a1565b6040516101d4919061194f565b60405180910390f35b6101e561073e565b6040516101f29190611f07565b60405180910390f35b61020361074d565b6040516102109190612000565b60405180910390f35b610233600480360381019061022e9190612253565b6109b1565b604051610240919061194f565b60405180910390f35b610263600480360381019061025e9190611ecb565b610a5b565b604051610270919061194f565b60405180910390f35b610281610b66565b60405161028e919061237a565b60405180910390f35b6102b160048036038101906102ac9190611c1f565b610cdd565b6040516102be91906124f2565b60405180910390f35b6102cf610d8d565b6040516102dc91906125c3565b60405180910390f35b6102ff60048036038101906102fa9190612611565b610d9c565b005b610309610e93565b604051610316919061271c565b60405180910390f35b6103276110fa565b6040516103349190611f07565b60405180910390f35b6000610347611109565b905090565b60606000610358611113565b90508073ffffffffffffffffffffffffffffffffffffffff166321f880976040518163ffffffff1660e01b8152600401600060405180830381865afa1580156103a5573d6000803e3d6000fd5b505050506040513d6000823e3d601f19601f820116820180604052508101906103ce9190612816565b91505090565b60606104646103e96326ee483660e01b61112f565b6326ee483660e01b8460405160240161040291906125c3565b604051602081830303815290604052907bffffffffffffffffffffffffffffffffffffffffffffffffffffffff19166020820180517bffffffffffffffffffffffffffffffffffffffffffffffffffffffff83818316178352505050506111b9565b8060200190518101906104779190612937565b9050919050565b606061048861124a565b805480602002602001604051908101604052809291908181526020016000905b828210156105ee57838290600052602060002090600402016040518060a00160405290816000820160009054906101000a900473ffffffffffffffffffffffffffffffffffffffff1673ffffffffffffffffffffffffffffffffffffffff1673ffffffffffffffffffffffffffffffffffffffff16815260200160018201548152602001600282015481526020016003820160009054906101000a900460e01b7bffffffffffffffffffffffffffffffffffffffffffffffffffffffff19167bffffffffffffffffffffffffffffffffffffffffffffffffffffffff191681526020016003820160049054906101000a900460e01b7bffffffffffffffffffffffffffffffffffffffffffffffffffffffff19167bffffffffffffffffffffffffffffffffffffffffffffffffffffffff191681525050815260200190600101906104a8565b50505050905090565b600061068761060c6331d98b3f60e01b61112f565b6331d98b3f60e01b84604051602401610625919061298f565b604051602081830303815290604052907bffffffffffffffffffffffffffffffffffffffffffffffffffffffff19166020820180517bffffffffffffffffffffffffffffffffffffffffffffffffffffffff83818316178352505050506111b9565b80602001905181019061069a91906129aa565b9050919050565b60006107266106b6637914334f60e01b61112f565b637914334f60e01b604051602401604051602081830303815290604052907bffffffffffffffffffffffffffffffffffffffffffffffffffffffff19166020820180517bffffffffffffffffffffffffffffffffffffffffffffffffffffffff83818316178352505050506111b9565b80602001905181019061073991906129aa565b905090565b600061074861125c565b905090565b60606000610759611113565b905060008173ffffffffffffffffffffffffffffffffffffffff1663869c490d6040518163ffffffff1660e01b8152600401600060405180830381865afa1580156107a8573d6000803e3d6000fd5b505050506040513d6000823e3d601f19601f820116820180604052508101906107d19190612a83565b90506000815167ffffffffffffffff8111156107f0576107ef611aa6565b5b60405190808252806020026020018201604052801561082957816020015b6108166118b7565b81526020019060019003908161080e5790505b50905060005b82518110156109a757604051806040016040528084838151811061085657610855612acc565b5b602002602001015181526020018573ffffffffffffffffffffffffffffffffffffffff166325eb876f86858151811061089257610891612acc565b5b602002602001015160016040518363ffffffff1660e01b81526004016108b9929190612b16565b602060405180830381865afa1580156108d6573d6000803e3d6000fd5b505050506040513d601f19601f820116820180604052508101906108fa9190612b3f565b73ffffffffffffffffffffffffffffffffffffffff166370a08231306040518263ffffffff1660e01b81526004016109329190611f07565b602060405180830381865afa15801561094f573d6000803e3d6000fd5b505050506040513d601f19601f8201168201806040525081019061097391906129aa565b81525082828151811061098957610988612acc565b5b6020026020010181905250808061099f90612b9b565b91505061082f565b5080935050505090565b6000610a416109c663360398a360e01b61112f565b63360398a360e01b846040516024016109df91906124f2565b604051602081830303815290604052907bffffffffffffffffffffffffffffffffffffffffffffffffffffffff19166020820180517bffffffffffffffffffffffffffffffffffffffffffffffffffffffff83818316178352505050506111b9565b806020019051810190610a5491906129aa565b9050919050565b600080610a66611113565b73ffffffffffffffffffffffffffffffffffffffff166325eb876f8460016040518363ffffffff1660e01b8152600401610aa1929190612b16565b602060405180830381865afa158015610abe573d6000803e3d6000fd5b505050506040513d601f19601f82011682018060405250810190610ae29190612b3f565b90508073ffffffffffffffffffffffffffffffffffffffff166370a08231306040518263ffffffff1660e01b8152600401610b1d9190611f07565b602060405180830381865afa158015610b3a573d6000803e3d6000fd5b505050506040513d601f19601f82011682018060405250810190610b5e91906129aa565b915050919050565b60606000610b72611113565b73ffffffffffffffffffffffffffffffffffffffff1663869c490d6040518163ffffffff1660e01b8152600401600060405180830381865afa158015610bbc573d6000803e3d6000fd5b505050506040513d6000823e3d601f19601f82011682018060405250810190610be59190612a83565b90506000610bf2826103d4565b90506000825167ffffffffffffffff811115610c1157610c10611aa6565b5b604051908082528060200260200182016040528015610c4a57816020015b610c376118d4565b815260200190600190039081610c2f5790505b50905060005b8351811015610cd3576040518060400160405280858381518110610c7757610c76612acc565b5b60200260200101518152602001848381518110610c9757610c96612acc565b5b6020026020010151815250828281518110610cb557610cb4612acc565b5b60200260200101819052508080610ccb90612b9b565b915050610c50565b5080935050505090565b610ce56118f1565b610d73610cf863a3aa8d1e60e01b61112f565b63a3aa8d1e60e01b84604051602401610d1191906125c3565b604051602081830303815290604052907bffffffffffffffffffffffffffffffffffffffffffffffffffffffff19166020820180517bffffffffffffffffffffffffffffffffffffffffffffffffffffffff83818316178352505050506111b9565b806020019051810190610d869190612db2565b9050919050565b6060610d9761128f565b905090565b600073ffffffffffffffffffffffffffffffffffffffff168173ffffffffffffffffffffffffffffffffffffffff1603610e0b576040517f08c379a0000000000000000000000000000000000000000000000000000000008152600401610e0290612e7e565b60405180910390fd5b6000610e15611302565b90508060030160149054906101000a900460ff1615610e69576040517f08c379a0000000000000000000000000000000000000000000000000000000008152600401610e6090612f10565b60405180910390fd5b610e728261132f565b60018160030160146101000a81548160ff0219169083151502179055505050565b60606000610e9f611113565b905060008173ffffffffffffffffffffffffffffffffffffffff166366273c196040518163ffffffff1660e01b8152600401600060405180830381865afa158015610eee573d6000803e3d6000fd5b505050506040513d6000823e3d601f19601f82011682018060405250810190610f179190612a83565b90506000815167ffffffffffffffff811115610f3657610f35611aa6565b5b604051908082528060200260200182016040528015610f6f57816020015b610f5c611919565b815260200190600190039081610f545790505b50905060005b82518110156110f05760008473ffffffffffffffffffffffffffffffffffffffff16630edc25b6858481518110610faf57610fae612acc565b5b60200260200101516040518263ffffffff1660e01b8152600401610fd3919061298f565b602060405180830381865afa158015610ff0573d6000803e3d6000fd5b505050506040513d601f19601f820116820180604052508101906110149190612b3f565b9050604051806040016040528085848151811061103457611033612acc565b5b602002602001015181526020018273ffffffffffffffffffffffffffffffffffffffff16636011163e306040518263ffffffff1660e01b815260040161107a9190611f07565b602060405180830381865afa158015611097573d6000803e3d6000fd5b505050506040513d601f19601f820116820180604052508101906110bb91906129aa565b8152508383815181106110d1576110d0612acc565b5b60200260200101819052505080806110e890612b9b565b915050610f75565b5080935050505090565b6000611104611406565b905090565b60006103e8905090565b600073f3978209b7cff2b90100c6f87cec77de928ed58e905090565b6000611139611439565b73ffffffffffffffffffffffffffffffffffffffff16630d741577836040518263ffffffff1660e01b81526004016111719190612f3f565b602060405180830381865afa15801561118e573d6000803e3d6000fd5b505050506040513d601f19601f820116820180604052508101906111b29190612b3f565b9050919050565b606060006111c683611455565b90506000808573ffffffffffffffffffffffffffffffffffffffff16836040516111f09190612fcb565b600060405180830381855af49150503d806000811461122b576040519150601f19603f3d011682016040523d82523d6000602084013e611230565b606091505b509150915061123f828261150f565b935050505092915050565b6000611254611302565b600701905090565b6000611266611302565b60010160009054906101000a900473ffffffffffffffffffffffffffffffffffffffff16905090565b6060600061129b611302565b9050806004016000016000016000016000018054806020026020016040519081016040528092919081815260200182805480156112f757602002820191906000526020600020905b8154815260200190600101908083116112e3575b505050505091505090565b6000807f8d5bb42e0ac1496a2c326edc9c00758985246e6c2bb146d6c2f4a0d509e0960a90508091505090565b6000611339611302565b905060008160010160009054906101000a900473ffffffffffffffffffffffffffffffffffffffff169050828260010160006101000a81548173ffffffffffffffffffffffffffffffffffffffff021916908373ffffffffffffffffffffffffffffffffffffffff1602179055508273ffffffffffffffffffffffffffffffffffffffff168173ffffffffffffffffffffffffffffffffffffffff167f8be0079c531659141344cd1fd0a4f28419497f9722a3daafe3b4186f6b6457e060405160405180910390a3505050565b6000611410611302565b60020160009054906101000a900473ffffffffffffffffffffffffffffffffffffffff16905090565b6000732916b3bf7c35bd21e63d01c93c62fb0d4994e56d905090565b6060600082519050600061146761160f565b9050600081836114779190612fe2565b905060003690508211156114b7576040517f5796f78a00000000000000000000000000000000000000000000000000000000815260040160405180910390fd5b6060604051905081815285602001848101826020015b818310156114ea57825181526020830192506020810190506114cd565b5050508283360385602001830137602084840182010160405280945050505050919050565b606082611606576000825103611551576040517f567fe27a00000000000000000000000000000000000000000000000000000000815260040160405180910390fd5b600060208301517f08c379a000000000000000000000000000000000000000000000000000000000811491505080156115c9576060604484019050806040517f0f7e82780000000000000000000000000000000000000000000000000000000081526004016115c0919061305a565b60405180910390fd5b826040517ffd36fde30000000000000000000000000000000000000000000000000000000081526004016115fd91906130c6565b60405180910390fd5b81905092915050565b60008061161a61167f565b9050600061162782611790565b61ffff16905060028261163a9190612fe2565b915060005b81811015611676576000611652846117ec565b905080846116609190612fe2565b935050808061166e90612b9b565b91505061163f565b50819250505090565b60008060203603356602ed57011e000081166602ed57011e000014915050806116d4576040517fe7764c9e00000000000000000000000000000000000000000000000000000000815260040160405180910390fd5b60008036905060291115611714576040517f5796f78a00000000000000000000000000000000000000000000000000000000815260040160405180910390fd5b602936033590506000600960038362ffffff166117319190612fe2565b61173b9190612fe2565b9050600036905060028261174f9190612fe2565b1115611787576040517fc30a7bd700000000000000000000000000000000000000000000000000000000815260040160405180910390fd5b80935050505090565b6000806020836117a09190612fe2565b905060003690508111156117e0576040517f5796f78a00000000000000000000000000000000000000000000000000000000815260040160405180910390fd5b80360335915050919050565b60008060006117fa8461182b565b91509150604e81602061180d9190612fe2565b8361181891906130e8565b6118229190612fe2565b92505050919050565b60008060008060006041866118409190612fe2565b905060006118676020836118549190612fe2565b60003690506118a190919063ffffffff16565b9050803593506118816003826118a190919063ffffffff16565b9050803592508362ffffff1695508263ffffffff16945050505050915091565b600081836118af919061312a565b905092915050565b604051806040016040528060008019168152602001600081525090565b604051806040016040528060008019168152602001600081525090565b6040518060800160405280606081526020016060815260200160608152602001606081525090565b604051806040016040528060008019168152602001600081525090565b6000819050919050565b61194981611936565b82525050565b60006020820190506119646000830184611940565b92915050565b600081519050919050565b600082825260208201905092915050565b6000819050602082019050919050565b600073ffffffffffffffffffffffffffffffffffffffff82169050919050565b60006119c182611996565b9050919050565b6119d1816119b6565b82525050565b60006119e383836119c8565b60208301905092915050565b6000602082019050919050565b6000611a078261196a565b611a118185611975565b9350611a1c83611986565b8060005b83811015611a4d578151611a3488826119d7565b9750611a3f836119ef565b925050600181019050611a20565b5085935050505092915050565b60006020820190508181036000830152611a7481846119fc565b905092915050565b6000604051905090565b600080fd5b600080fd5b600080fd5b6000601f19601f8301169050919050565b7f4e487b7100000000000000000000000000000000000000000000000000000000600052604160045260246000fd5b611ade82611a95565b810181811067ffffffffffffffff82111715611afd57611afc611aa6565b5b80604052505050565b6000611b10611a7c565b9050611b1c8282611ad5565b919050565b600067ffffffffffffffff821115611b3c57611b3b611aa6565b5b602082029050602081019050919050565b600080fd5b6000819050919050565b611b6581611b52565b8114611b7057600080fd5b50565b600081359050611b8281611b5c565b92915050565b6000611b9b611b9684611b21565b611b06565b90508083825260208201905060208402830185811115611bbe57611bbd611b4d565b5b835b81811015611be75780611bd38882611b73565b845260208401935050602081019050611bc0565b5050509392505050565b600082601f830112611c0657611c05611a90565b5b8135611c16848260208601611b88565b91505092915050565b600060208284031215611c3557611c34611a86565b5b600082013567ffffffffffffffff811115611c5357611c52611a8b565b5b611c5f84828501611bf1565b91505092915050565b600081519050919050565b600082825260208201905092915050565b6000819050602082019050919050565b611c9d81611936565b82525050565b6000611caf8383611c94565b60208301905092915050565b6000602082019050919050565b6000611cd382611c68565b611cdd8185611c73565b9350611ce883611c84565b8060005b83811015611d19578151611d008882611ca3565b9750611d0b83611cbb565b925050600181019050611cec565b5085935050505092915050565b60006020820190508181036000830152611d408184611cc8565b905092915050565b600081519050919050565b600082825260208201905092915050565b6000819050602082019050919050565b611d7d81611b52565b82525050565b60007fffffffff0000000000000000000000000000000000000000000000000000000082169050919050565b611db881611d83565b82525050565b60a082016000820151611dd460008501826119c8565b506020820151611de76020850182611d74565b506040820151611dfa6040850182611d74565b506060820151611e0d6060850182611daf565b506080820151611e206080850182611daf565b50505050565b6000611e328383611dbe565b60a08301905092915050565b6000602082019050919050565b6000611e5682611d48565b611e608185611d53565b9350611e6b83611d64565b8060005b83811015611e9c578151611e838882611e26565b9750611e8e83611e3e565b925050600181019050611e6f565b5085935050505092915050565b60006020820190508181036000830152611ec38184611e4b565b905092915050565b600060208284031215611ee157611ee0611a86565b5b6000611eef84828501611b73565b91505092915050565b611f01816119b6565b82525050565b6000602082019050611f1c6000830184611ef8565b92915050565b600081519050919050565b600082825260208201905092915050565b6000819050602082019050919050565b604082016000820151611f646000850182611d74565b506020820151611f776020850182611c94565b50505050565b6000611f898383611f4e565b60408301905092915050565b6000602082019050919050565b6000611fad82611f22565b611fb78185611f2d565b9350611fc283611f3e565b8060005b83811015611ff3578151611fda8882611f7d565b9750611fe583611f95565b925050600181019050611fc6565b5085935050505092915050565b6000602082019050818103600083015261201a8184611fa2565b905092915050565b600080fd5b600080fd5b600067ffffffffffffffff82111561204757612046611aa6565b5b602082029050602081019050919050565b61206181611936565b811461206c57600080fd5b50565b60008135905061207e81612058565b92915050565b60006040828403121561209a57612099612022565b5b6120a46040611b06565b905060006120b484828501611b73565b60008301525060206120c88482850161206f565b60208301525092915050565b60006120e76120e28461202c565b611b06565b9050808382526020820190506040840283018581111561210a57612109611b4d565b5b835b81811015612133578061211f8882612084565b84526020840193505060408101905061210c565b5050509392505050565b600082601f83011261215257612151611a90565b5b81356121628482602086016120d4565b91505092915050565b60006080828403121561218157612180612022565b5b61218b6080611b06565b9050600082013567ffffffffffffffff8111156121ab576121aa612027565b5b6121b78482850161213d565b600083015250602082013567ffffffffffffffff8111156121db576121da612027565b5b6121e78482850161213d565b602083015250604082013567ffffffffffffffff81111561220b5761220a612027565b5b6122178482850161213d565b604083015250606082013567ffffffffffffffff81111561223b5761223a612027565b5b6122478482850161213d565b60608301525092915050565b60006020828403121561226957612268611a86565b5b600082013567ffffffffffffffff81111561228757612286611a8b565b5b6122938482850161216b565b91505092915050565b600081519050919050565b600082825260208201905092915050565b6000819050602082019050919050565b6040820160008201516122de6000850182611d74565b5060208201516122f16020850182611c94565b50505050565b600061230383836122c8565b60408301905092915050565b6000602082019050919050565b60006123278261229c565b61233181856122a7565b935061233c836122b8565b8060005b8381101561236d57815161235488826122f7565b975061235f8361230f565b925050600181019050612340565b5085935050505092915050565b60006020820190508181036000830152612394818461231c565b905092915050565b600081519050919050565b600082825260208201905092915050565b6000819050602082019050919050565b6040820160008201516123de6000850182611d74565b5060208201516123f16020850182611c94565b50505050565b600061240383836123c8565b60408301905092915050565b6000602082019050919050565b60006124278261239c565b61243181856123a7565b935061243c836123b8565b8060005b8381101561246d57815161245488826123f7565b975061245f8361240f565b925050600181019050612440565b5085935050505092915050565b60006080830160008301518482036000860152612497828261241c565b915050602083015184820360208601526124b1828261241c565b915050604083015184820360408601526124cb828261241c565b915050606083015184820360608601526124e5828261241c565b9150508091505092915050565b6000602082019050818103600083015261250c818461247a565b905092915050565b600081519050919050565b600082825260208201905092915050565b6000819050602082019050919050565b600061254c8383611d74565b60208301905092915050565b6000602082019050919050565b600061257082612514565b61257a818561251f565b935061258583612530565b8060005b838110156125b657815161259d8882612540565b97506125a883612558565b925050600181019050612589565b5085935050505092915050565b600060208201905081810360008301526125dd8184612565565b905092915050565b6125ee816119b6565b81146125f957600080fd5b50565b60008135905061260b816125e5565b92915050565b60006020828403121561262757612626611a86565b5b6000612635848285016125fc565b91505092915050565b600081519050919050565b600082825260208201905092915050565b6000819050602082019050919050565b6040820160008201516126806000850182611d74565b5060208201516126936020850182611c94565b50505050565b60006126a5838361266a565b60408301905092915050565b6000602082019050919050565b60006126c98261263e565b6126d38185612649565b93506126de8361265a565b8060005b8381101561270f5781516126f68882612699565b9750612701836126b1565b9250506001810190506126e2565b5085935050505092915050565b6000602082019050818103600083015261273681846126be565b905092915050565b600067ffffffffffffffff82111561275957612758611aa6565b5b602082029050602081019050919050565b600081519050612779816125e5565b92915050565b600061279261278d8461273e565b611b06565b905080838252602082019050602084028301858111156127b5576127b4611b4d565b5b835b818110156127de57806127ca888261276a565b8452602084019350506020810190506127b7565b5050509392505050565b600082601f8301126127fd576127fc611a90565b5b815161280d84826020860161277f565b91505092915050565b60006020828403121561282c5761282b611a86565b5b600082015167ffffffffffffffff81111561284a57612849611a8b565b5b612856848285016127e8565b91505092915050565b600067ffffffffffffffff82111561287a57612879611aa6565b5b602082029050602081019050919050565b60008151905061289a81612058565b92915050565b60006128b36128ae8461285f565b611b06565b905080838252602082019050602084028301858111156128d6576128d5611b4d565b5b835b818110156128ff57806128eb888261288b565b8452602084019350506020810190506128d8565b5050509392505050565b600082601f83011261291e5761291d611a90565b5b815161292e8482602086016128a0565b91505092915050565b60006020828403121561294d5761294c611a86565b5b600082015167ffffffffffffffff81111561296b5761296a611a8b565b5b61297784828501612909565b91505092915050565b61298981611b52565b82525050565b60006020820190506129a46000830184612980565b92915050565b6000602082840312156129c0576129bf611a86565b5b60006129ce8482850161288b565b91505092915050565b6000815190506129e681611b5c565b92915050565b60006129ff6129fa84611b21565b611b06565b90508083825260208201905060208402830185811115612a2257612a21611b4d565b5b835b81811015612a4b5780612a3788826129d7565b845260208401935050602081019050612a24565b5050509392505050565b600082601f830112612a6a57612a69611a90565b5b8151612a7a8482602086016129ec565b91505092915050565b600060208284031215612a9957612a98611a86565b5b600082015167ffffffffffffffff811115612ab757612ab6611a8b565b5b612ac384828501612a55565b91505092915050565b7f4e487b7100000000000000000000000000000000000000000000000000000000600052603260045260246000fd5b60008115159050919050565b612b1081612afb565b82525050565b6000604082019050612b2b6000830185612980565b612b386020830184612b07565b9392505050565b600060208284031215612b5557612b54611a86565b5b6000612b638482850161276a565b91505092915050565b7f4e487b7100000000000000000000000000000000000000000000000000000000600052601160045260246000fd5b6000612ba682611936565b91507fffffffffffffffffffffffffffffffffffffffffffffffffffffffffffffffff8203612bd857612bd7612b6c565b5b600182019050919050565b600060408284031215612bf957612bf8612022565b5b612c036040611b06565b90506000612c13848285016129d7565b6000830152506020612c278482850161288b565b60208301525092915050565b6000612c46612c418461202c565b611b06565b90508083825260208201905060408402830185811115612c6957612c68611b4d565b5b835b81811015612c925780612c7e8882612be3565b845260208401935050604081019050612c6b565b5050509392505050565b600082601f830112612cb157612cb0611a90565b5b8151612cc1848260208601612c33565b91505092915050565b600060808284031215612ce057612cdf612022565b5b612cea6080611b06565b9050600082015167ffffffffffffffff811115612d0a57612d09612027565b5b612d1684828501612c9c565b600083015250602082015167ffffffffffffffff811115612d3a57612d39612027565b5b612d4684828501612c9c565b602083015250604082015167ffffffffffffffff811115612d6a57612d69612027565b5b612d7684828501612c9c565b604083015250606082015167ffffffffffffffff811115612d9a57612d99612027565b5b612da684828501612c9c565b60608301525092915050565b600060208284031215612dc857612dc7611a86565b5b600082015167ffffffffffffffff811115612de657612de5611a8b565b5b612df284828501612cca565b91505092915050565b600082825260208201905092915050565b7f496e697469616c697a653a2043616e6e6f742073657420746865206f776e657260008201527f20746f2061207a65726f20616464726573730000000000000000000000000000602082015250565b6000612e68603283612dfb565b9150612e7382612e0c565b604082019050919050565b60006020820190508181036000830152612e9781612e5b565b9050919050565b7f4469616d6f6e64496e69743a20636f6e747261637420697320616c726561647960008201527f20696e697469616c697a65640000000000000000000000000000000000000000602082015250565b6000612efa602c83612dfb565b9150612f0582612e9e565b604082019050919050565b60006020820190508181036000830152612f2981612eed565b9050919050565b612f3981611d83565b82525050565b6000602082019050612f546000830184612f30565b92915050565b600081519050919050565b600081905092915050565b60005b83811015612f8e578082015181840152602081019050612f73565b60008484015250505050565b6000612fa582612f5a565b612faf8185612f65565b9350612fbf818560208601612f70565b80840191505092915050565b6000612fd78284612f9a565b915081905092915050565b6000612fed82611936565b9150612ff883611936565b92508282019050808211156130105761300f612b6c565b5b92915050565b600081519050919050565b600061302c82613016565b6130368185612dfb565b9350613046818560208601612f70565b61304f81611a95565b840191505092915050565b600060208201905081810360008301526130748184613021565b905092915050565b600082825260208201905092915050565b600061309882612f5a565b6130a2818561307c565b93506130b2818560208601612f70565b6130bb81611a95565b840191505092915050565b600060208201905081810360008301526130e0818461308d565b905092915050565b60006130f382611936565b91506130fe83611936565b925082820261310c81611936565b9150828204841483151761312357613122612b6c565b5b5092915050565b600061313582611936565b915061314083611936565b925082820390508181111561315857613157612b6c565b5b9291505056fea2646970667358221220cc35921b9961dc520d976b1b18573071a44a4611f9d75ee9b5022dfa12ec9a7164736f6c63430008110033",
  "devdoc": {
    "kind": "dev",
    "methods": {
      "getAllAssetsPrices()": {
        "details": "This function uses the redstone-evm-connector*"
      },
      "getBalance(bytes32)": {
        "params": {
          "_asset": "the code of an asset*"
        }
      }
    },
    "version": 1
  },
  "userdoc": {
    "kind": "user",
    "methods": {
      "getAllAssetsPrices()": {
        "notice": "Returns the prices of all assets supported by the TokenManager It could be used as a helper method for UI"
      },
      "getBalance(bytes32)": {
        "notice": "Returns a current balance of the asset held by the smart loan"
      }
    },
    "version": 1
  },
  "storageLayout": {
    "storage": [
      {
        "astId": 9658,
        "contract": "contracts/facets/SmartLoanViewFacet.sol:SmartLoanViewFacet",
        "label": "_status",
        "offset": 0,
        "slot": "0",
        "type": "t_uint256"
      }
    ],
    "types": {
      "t_uint256": {
        "encoding": "inplace",
        "label": "uint256",
        "numberOfBytes": "32"
      }
    }
  }
}