{
  "address": "0x2916B3bf7C35bd21e63D01C93C62FB0d4994e56D",
  "abi": [
    {
      "inputs": [
        {
          "internalType": "address",
          "name": "_contractOwner",
          "type": "address"
        },
        {
          "internalType": "address",
          "name": "_diamondCutFacet",
          "type": "address"
        }
      ],
      "stateMutability": "payable",
      "type": "constructor"
    },
    {
      "anonymous": false,
      "inputs": [
        {
          "indexed": true,
          "internalType": "address",
          "name": "newOwner",
          "type": "address"
        }
      ],
      "name": "OwnershipProposalAccepted",
      "type": "event"
    },
    {
      "anonymous": false,
      "inputs": [
        {
          "indexed": true,
          "internalType": "address",
          "name": "owner",
          "type": "address"
        },
        {
          "indexed": true,
          "internalType": "address",
          "name": "proposed",
          "type": "address"
        }
      ],
      "name": "OwnershipProposalCreated",
      "type": "event"
    },
    {
      "anonymous": false,
      "inputs": [
        {
          "indexed": true,
          "internalType": "address",
          "name": "newPauseAdmin",
          "type": "address"
        }
      ],
      "name": "PauseAdminOwnershipProposalAccepted",
      "type": "event"
    },
    {
      "anonymous": false,
      "inputs": [
        {
          "indexed": true,
          "internalType": "address",
          "name": "pauseAdmin",
          "type": "address"
        },
        {
          "indexed": true,
          "internalType": "address",
          "name": "proposed",
          "type": "address"
        }
      ],
      "name": "PauseAdminOwnershipProposalCreated",
      "type": "event"
    },
    {
      "stateMutability": "payable",
      "type": "fallback"
    },
    {
      "inputs": [],
      "name": "acceptBeaconOwnership",
      "outputs": [],
      "stateMutability": "nonpayable",
      "type": "function"
    },
    {
      "inputs": [],
      "name": "acceptBeaconPauseAdminOwnership",
      "outputs": [],
      "stateMutability": "nonpayable",
      "type": "function"
    },
    {
      "inputs": [
        {
          "internalType": "bytes4",
          "name": "methodSig",
          "type": "bytes4"
        }
      ],
      "name": "canBeExecutedWhenPaused",
      "outputs": [
        {
          "internalType": "bool",
          "name": "",
          "type": "bool"
        }
      ],
      "stateMutability": "view",
      "type": "function"
    },
    {
      "inputs": [],
      "name": "getStatus",
      "outputs": [
        {
          "internalType": "bool",
          "name": "",
          "type": "bool"
        }
      ],
      "stateMutability": "view",
      "type": "function"
    },
    {
      "inputs": [
        {
          "internalType": "bytes4",
          "name": "funcSignature",
          "type": "bytes4"
        }
      ],
      "name": "implementation",
      "outputs": [
        {
          "internalType": "address",
          "name": "",
          "type": "address"
        }
      ],
      "stateMutability": "view",
      "type": "function"
    },
    {
      "inputs": [],
      "name": "implementation",
      "outputs": [
        {
          "internalType": "address",
          "name": "",
          "type": "address"
        }
      ],
      "stateMutability": "view",
      "type": "function"
    },
    {
      "inputs": [
        {
          "internalType": "address",
          "name": "_newOwner",
          "type": "address"
        }
      ],
      "name": "proposeBeaconOwnershipTransfer",
      "outputs": [],
      "stateMutability": "nonpayable",
      "type": "function"
    },
    {
      "inputs": [
        {
          "internalType": "address",
          "name": "_newPauseAdmin",
          "type": "address"
        }
      ],
      "name": "proposeBeaconPauseAdminOwnershipTransfer",
      "outputs": [],
      "stateMutability": "nonpayable",
      "type": "function"
    },
    {
      "inputs": [
        {
          "internalType": "bytes4[]",
          "name": "methodSigs",
          "type": "bytes4[]"
        },
        {
          "internalType": "bool[]",
          "name": "values",
          "type": "bool[]"
        }
      ],
      "name": "setPausedMethodExemptions",
      "outputs": [],
      "stateMutability": "nonpayable",
      "type": "function"
    }
  ],
  "transactionHash": "0x7035afcf6d86888ba1b2a2ca2c7d7582c376bc5af28b3734b774bcb039903ce0",
  "args": [
    "0xbAc44698844f13cF0AF423b19040659b688ef036",
    "0x5EfFfdeD487B62ba912A9BdE3536ABAb0c703818"
  ],
  "numDeployments": 2,
  "solcInputHash": "e3dcf5c44837e0e1cd9cd2c4090d8abd",
  "bytecode": "0x60806040526040516200601738038062006017833981810160405281019062000029919062001b8a565b6200003f82620003a560201b620009391760201c565b62000055826200048460201b62000a101760201c565b6000600167ffffffffffffffff81111562000075576200007462001bd1565b5b604051908082528060200260200182016040528015620000b257816020015b6200009e62001ad4565b815260200190600190039081620000945790505b5090506000600367ffffffffffffffff811115620000d557620000d462001bd1565b5b604051908082528060200260200182016040528015620001045781602001602082028036833780820191505090505b509050631f931c1c60e01b8160008151811062000126576200012562001c00565b5b60200260200101907bffffffffffffffffffffffffffffffffffffffffffffffffffffffff191690817bffffffffffffffffffffffffffffffffffffffffffffffffffffffff191681525050638456cb5960e01b8160018151811062000191576200019062001c00565b5b60200260200101907bffffffffffffffffffffffffffffffffffffffffffffffffffffffff191690817bffffffffffffffffffffffffffffffffffffffffffffffffffffffff191681525050633f4ba83a60e01b81600281518110620001fc57620001fb62001c00565b5b60200260200101907bffffffffffffffffffffffffffffffffffffffffffffffffffffffff191690817bffffffffffffffffffffffffffffffffffffffffffffffffffffffff19168152505060405180606001604052808473ffffffffffffffffffffffffffffffffffffffff1681526020016000600281111562000286576200028562001c2f565b5b81526020018281525082600081518110620002a657620002a562001c00565b5b6020026020010181905250620002d9826000604051806020016040528060008152506200056360201b62000ae71760201c565b6000620002f0620007e760201b62000d161760201c565b90506001816004016000631f931c1c60e01b7bffffffffffffffffffffffffffffffffffffffffffffffffffffffff1916815260200190815260200160002060006101000a81548160ff0219169083151502179055506001816004016000633f4ba83a60e01b7bffffffffffffffffffffffffffffffffffffffffffffffffffffffff1916815260200190815260200160002060006101000a81548160ff0219169083151502179055505050505050620028c7565b6000620003b76200081460201b60201c565b905060008160010160009054906101000a900473ffffffffffffffffffffffffffffffffffffffff169050828260010160006101000a81548173ffffffffffffffffffffffffffffffffffffffff021916908373ffffffffffffffffffffffffffffffffffffffff1602179055508273ffffffffffffffffffffffffffffffffffffffff168173ffffffffffffffffffffffffffffffffffffffff167f8be0079c531659141344cd1fd0a4f28419497f9722a3daafe3b4186f6b6457e060405160405180910390a3505050565b6000620004966200081460201b60201c565b905060008160000160009054906101000a900473ffffffffffffffffffffffffffffffffffffffff169050828260000160006101000a81548173ffffffffffffffffffffffffffffffffffffffff021916908373ffffffffffffffffffffffffffffffffffffffff1602179055508273ffffffffffffffffffffffffffffffffffffffff168173ffffffffffffffffffffffffffffffffffffffff167fa9b6c2526b044187e4744e292867fd1f6b7e6be882e40ec94d7949b26f8088b260405160405180910390a3505050565b60005b83518110156200079257600084828151811062000588576200058762001c00565b5b602002602001015160200151905060006002811115620005ad57620005ac62001c2f565b5b816002811115620005c357620005c262001c2f565b5b0362000623576200061d858381518110620005e357620005e262001c00565b5b60200260200101516000015186848151811062000605576200060462001c00565b5b6020026020010151604001516200084160201b60201c565b6200077b565b600160028111156200063a576200063962001c2f565b5b81600281111562000650576200064f62001c2f565b5b03620006b057620006aa85838151811062000670576200066f62001c00565b5b60200260200101516000015186848151811062000692576200069162001c00565b5b60200260200101516040015162000ae360201b60201c565b6200077a565b600280811115620006c657620006c562001c2f565b5b816002811115620006dc57620006db62001c2f565b5b036200073c5762000736858381518110620006fc57620006fb62001c00565b5b6020026020010151600001518684815181106200071e576200071d62001c00565b5b60200260200101516040015162000d9760201b60201c565b62000779565b6040517f08c379a0000000000000000000000000000000000000000000000000000000008152600401620007709062001ce5565b60405180910390fd5b5b5b508080620007899062001d40565b91505062000566565b507f8faa70878671ccd212d20771b795c50af8fd3ff6cf27f4bde57e5d4de0aeb673838383604051620007c893929190620020ba565b60405180910390a1620007e2828262000f3f60201b60201c565b505050565b6000807fc8fcad8db84d3cc18b4c41d551ea0ee66dd599cde068d998e57d5e09332c131c90508091505090565b6000807f8d5bb42e0ac1496a2c326edc9c00758985246e6c2bb146d6c2f4a0d509e0960a90508091505090565b600081511162000888576040517f08c379a00000000000000000000000000000000000000000000000000000000081526004016200087f906200217b565b60405180910390fd5b60006200089a620007e760201b60201c565b9050600073ffffffffffffffffffffffffffffffffffffffff168373ffffffffffffffffffffffffffffffffffffffff16036200090e576040517f08c379a0000000000000000000000000000000000000000000000000000000008152600401620009059062002213565b60405180910390fd5b60008160010160008573ffffffffffffffffffffffffffffffffffffffff1673ffffffffffffffffffffffffffffffffffffffff1681526020019081526020016000206000018054905090506000816bffffffffffffffffffffffff160362000984576200098382856200116d60201b60201c565b5b60005b835181101562000adc576000848281518110620009a957620009a862001c00565b5b602002602001015190506000846000016000837bffffffffffffffffffffffffffffffffffffffffffffffffffffffff19167bffffffffffffffffffffffffffffffffffffffffffffffffffffffff1916815260200190815260200160002060000160009054906101000a900473ffffffffffffffffffffffffffffffffffffffff169050600073ffffffffffffffffffffffffffffffffffffffff168173ffffffffffffffffffffffffffffffffffffffff161462000aa0576040517f08c379a000000000000000000000000000000000000000000000000000000000815260040162000a9790620022ab565b60405180910390fd5b62000ab48583868a6200125160201b60201c565b838062000ac190620022e5565b9450505050808062000ad39062001d40565b91505062000987565b5050505050565b600081511162000b2a576040517f08c379a000000000000000000000000000000000000000000000000000000000815260040162000b21906200217b565b60405180910390fd5b600062000b3c620007e760201b60201c565b9050600073ffffffffffffffffffffffffffffffffffffffff168373ffffffffffffffffffffffffffffffffffffffff160362000bb0576040517f08c379a000000000000000000000000000000000000000000000000000000000815260040162000ba79062002213565b60405180910390fd5b60008160010160008573ffffffffffffffffffffffffffffffffffffffff1673ffffffffffffffffffffffffffffffffffffffff1681526020019081526020016000206000018054905090506000816bffffffffffffffffffffffff160362000c265762000c2582856200116d60201b60201c565b5b60005b835181101562000d9057600084828151811062000c4b5762000c4a62001c00565b5b602002602001015190506000846000016000837bffffffffffffffffffffffffffffffffffffffffffffffffffffffff19167bffffffffffffffffffffffffffffffffffffffffffffffffffffffff1916815260200190815260200160002060000160009054906101000a900473ffffffffffffffffffffffffffffffffffffffff1690508673ffffffffffffffffffffffffffffffffffffffff168173ffffffffffffffffffffffffffffffffffffffff160362000d41576040517f08c379a000000000000000000000000000000000000000000000000000000000815260040162000d389062002394565b60405180910390fd5b62000d54858284620013fe60201b60201c565b62000d688583868a6200125160201b60201c565b838062000d7590620022e5565b9450505050808062000d879062001d40565b91505062000c29565b5050505050565b600081511162000dde576040517f08c379a000000000000000000000000000000000000000000000000000000000815260040162000dd5906200217b565b60405180910390fd5b600062000df0620007e760201b60201c565b9050600073ffffffffffffffffffffffffffffffffffffffff168373ffffffffffffffffffffffffffffffffffffffff161462000e64576040517f08c379a000000000000000000000000000000000000000000000000000000000815260040162000e5b906200242c565b60405180910390fd5b60005b825181101562000f3957600083828151811062000e895762000e8862001c00565b5b602002602001015190506000836000016000837bffffffffffffffffffffffffffffffffffffffffffffffffffffffff19167bffffffffffffffffffffffffffffffffffffffffffffffffffffffff1916815260200190815260200160002060000160009054906101000a900473ffffffffffffffffffffffffffffffffffffffff16905062000f21848284620013fe60201b60201c565b5050808062000f309062001d40565b91505062000e67565b50505050565b600073ffffffffffffffffffffffffffffffffffffffff168273ffffffffffffffffffffffffffffffffffffffff160362000fc157600081511462000fbb576040517f08c379a000000000000000000000000000000000000000000000000000000000815260040162000fb290620024ea565b60405180910390fd5b62001169565b600081511162001008576040517f08c379a000000000000000000000000000000000000000000000000000000000815260040162000fff90620025a8565b60405180910390fd5b3073ffffffffffffffffffffffffffffffffffffffff168273ffffffffffffffffffffffffffffffffffffffff1614620010685762001067826040518060600160405280602f815260200162005fe8602f913962001a7f60201b60201c565b5b6000808373ffffffffffffffffffffffffffffffffffffffff16836040516200109291906200260c565b600060405180830381855af49150503d8060008114620010cf576040519150601f19603f3d011682016040523d82523d6000602084013e620010d4565b606091505b50915091508162001166576000815111156200112957806040517f08c379a000000000000000000000000000000000000000000000000000000000815260040162001120919062002671565b60405180910390fd5b6040517f08c379a00000000000000000000000000000000000000000000000000000000081526004016200115d906200270b565b60405180910390fd5b50505b5050565b62001198816040518060600160405280602b815260200162005fbd602b913962001a7f60201b60201c565b81600201805490508260010160008373ffffffffffffffffffffffffffffffffffffffff1673ffffffffffffffffffffffffffffffffffffffff1681526020019081526020016000206001018190555081600201819080600181540180825580915050600190039060005260206000200160009091909190916101000a81548173ffffffffffffffffffffffffffffffffffffffff021916908373ffffffffffffffffffffffffffffffffffffffff1602179055505050565b81846000016000857bffffffffffffffffffffffffffffffffffffffffffffffffffffffff19167bffffffffffffffffffffffffffffffffffffffffffffffffffffffff1916815260200190815260200160002060000160146101000a8154816bffffffffffffffffffffffff02191690836bffffffffffffffffffffffff1602179055508360010160008273ffffffffffffffffffffffffffffffffffffffff1673ffffffffffffffffffffffffffffffffffffffff1681526020019081526020016000206000018390806001815401808255809150506001900390600052602060002090600891828204019190066004029091909190916101000a81548163ffffffff021916908360e01c021790555080846000016000857bffffffffffffffffffffffffffffffffffffffffffffffffffffffff19167bffffffffffffffffffffffffffffffffffffffffffffffffffffffff1916815260200190815260200160002060000160006101000a81548173ffffffffffffffffffffffffffffffffffffffff021916908373ffffffffffffffffffffffffffffffffffffffff16021790555050505050565b600073ffffffffffffffffffffffffffffffffffffffff168273ffffffffffffffffffffffffffffffffffffffff160362001470576040517f08c379a00000000000000000000000000000000000000000000000000000000081526004016200146790620027a3565b60405180910390fd5b3073ffffffffffffffffffffffffffffffffffffffff168273ffffffffffffffffffffffffffffffffffffffff1603620014e1576040517f08c379a0000000000000000000000000000000000000000000000000000000008152600401620014d8906200283b565b60405180910390fd5b6000836000016000837bffffffffffffffffffffffffffffffffffffffffffffffffffffffff19167bffffffffffffffffffffffffffffffffffffffffffffffffffffffff1916815260200190815260200160002060000160149054906101000a90046bffffffffffffffffffffffff166bffffffffffffffffffffffff169050600060018560010160008673ffffffffffffffffffffffffffffffffffffffff1673ffffffffffffffffffffffffffffffffffffffff16815260200190815260200160002060000180549050620015ba91906200285d565b9050808214620017555760008560010160008673ffffffffffffffffffffffffffffffffffffffff1673ffffffffffffffffffffffffffffffffffffffff16815260200190815260200160002060000182815481106200161f576200161e62001c00565b5b90600052602060002090600891828204019190066004029054906101000a900460e01b9050808660010160008773ffffffffffffffffffffffffffffffffffffffff1673ffffffffffffffffffffffffffffffffffffffff16815260200190815260200160002060000184815481106200169e576200169d62001c00565b5b90600052602060002090600891828204019190066004026101000a81548163ffffffff021916908360e01c021790555082866000016000837bffffffffffffffffffffffffffffffffffffffffffffffffffffffff19167bffffffffffffffffffffffffffffffffffffffffffffffffffffffff1916815260200190815260200160002060000160146101000a8154816bffffffffffffffffffffffff02191690836bffffffffffffffffffffffff160217905550505b8460010160008573ffffffffffffffffffffffffffffffffffffffff1673ffffffffffffffffffffffffffffffffffffffff168152602001908152602001600020600001805480620017ac57620017ab62002898565b5b60019003818190600052602060002090600891828204019190066004026101000a81549063ffffffff02191690559055846000016000847bffffffffffffffffffffffffffffffffffffffffffffffffffffffff19167bffffffffffffffffffffffffffffffffffffffffffffffffffffffff19168152602001908152602001600020600080820160006101000a81549073ffffffffffffffffffffffffffffffffffffffff02191690556000820160146101000a8154906bffffffffffffffffffffffff021916905550506000810362001a78576000600186600201805490506200189991906200285d565b905060008660010160008773ffffffffffffffffffffffffffffffffffffffff1673ffffffffffffffffffffffffffffffffffffffff168152602001908152602001600020600101549050818114620019e157600087600201838154811062001907576200190662001c00565b5b9060005260206000200160009054906101000a900473ffffffffffffffffffffffffffffffffffffffff169050808860020183815481106200194e576200194d62001c00565b5b9060005260206000200160006101000a81548173ffffffffffffffffffffffffffffffffffffffff021916908373ffffffffffffffffffffffffffffffffffffffff160217905550818860010160008373ffffffffffffffffffffffffffffffffffffffff1673ffffffffffffffffffffffffffffffffffffffff16815260200190815260200160002060010181905550505b86600201805480620019f857620019f762002898565b5b6001900381819060005260206000200160006101000a81549073ffffffffffffffffffffffffffffffffffffffff021916905590558660010160008773ffffffffffffffffffffffffffffffffffffffff1673ffffffffffffffffffffffffffffffffffffffff1681526020019081526020016000206001016000905550505b5050505050565b6000823b905060008111829062001ace576040517f08c379a000000000000000000000000000000000000000000000000000000000815260040162001ac5919062002671565b60405180910390fd5b50505050565b6040518060600160405280600073ffffffffffffffffffffffffffffffffffffffff1681526020016000600281111562001b135762001b1262001c2f565b5b8152602001606081525090565b600080fd5b600073ffffffffffffffffffffffffffffffffffffffff82169050919050565b600062001b528262001b25565b9050919050565b62001b648162001b45565b811462001b7057600080fd5b50565b60008151905062001b848162001b59565b92915050565b6000806040838503121562001ba45762001ba362001b20565b5b600062001bb48582860162001b73565b925050602062001bc78582860162001b73565b9150509250929050565b7f4e487b7100000000000000000000000000000000000000000000000000000000600052604160045260246000fd5b7f4e487b7100000000000000000000000000000000000000000000000000000000600052603260045260246000fd5b7f4e487b7100000000000000000000000000000000000000000000000000000000600052602160045260246000fd5b600082825260208201905092915050565b7f4469616d6f6e6453746f726167654c69624375743a20496e636f72726563742060008201527f4661636574437574416374696f6e000000000000000000000000000000000000602082015250565b600062001ccd602e8362001c5e565b915062001cda8262001c6f565b604082019050919050565b6000602082019050818103600083015262001d008162001cbe565b9050919050565b7f4e487b7100000000000000000000000000000000000000000000000000000000600052601160045260246000fd5b6000819050919050565b600062001d4d8262001d36565b91507fffffffffffffffffffffffffffffffffffffffffffffffffffffffffffffffff820362001d825762001d8162001d07565b5b600182019050919050565b600081519050919050565b600082825260208201905092915050565b6000819050602082019050919050565b62001dc48162001b45565b82525050565b6003811062001dde5762001ddd62001c2f565b5b50565b600081905062001df18262001dca565b919050565b600062001e038262001de1565b9050919050565b62001e158162001df6565b82525050565b600081519050919050565b600082825260208201905092915050565b6000819050602082019050919050565b60007fffffffff0000000000000000000000000000000000000000000000000000000082169050919050565b62001e7e8162001e47565b82525050565b600062001e92838362001e73565b60208301905092915050565b6000602082019050919050565b600062001eb88262001e1b565b62001ec4818562001e26565b935062001ed18362001e37565b8060005b8381101562001f0857815162001eec888262001e84565b975062001ef98362001e9e565b92505060018101905062001ed5565b5085935050505092915050565b600060608301600083015162001f2f600086018262001db9565b50602083015162001f44602086018262001e0a565b506040830151848203604086015262001f5e828262001eab565b9150508091505092915050565b600062001f79838362001f15565b905092915050565b6000602082019050919050565b600062001f9b8262001d8d565b62001fa7818562001d98565b93508360208202850162001fbb8562001da9565b8060005b8581101562001ffd578484038952815162001fdb858262001f6b565b945062001fe88362001f81565b925060208a0199505060018101905062001fbf565b50829750879550505050505092915050565b6200201a8162001b45565b82525050565b600081519050919050565b600082825260208201905092915050565b60005b838110156200205c5780820151818401526020810190506200203f565b60008484015250505050565b6000601f19601f8301169050919050565b6000620020868262002020565b6200209281856200202b565b9350620020a48185602086016200203c565b620020af8162002068565b840191505092915050565b60006060820190508181036000830152620020d6818662001f8e565b9050620020e760208301856200200f565b8181036040830152620020fb818462002079565b9050949350505050565b7f4469616d6f6e6453746f726167654c69624375743a204e6f2073656c6563746f60008201527f727320696e20666163657420746f206375740000000000000000000000000000602082015250565b60006200216360328362001c5e565b9150620021708262002105565b604082019050919050565b60006020820190508181036000830152620021968162002154565b9050919050565b7f4469616d6f6e6453746f726167654c69624375743a204164642066616365742060008201527f63616e2774206265206164647265737328302900000000000000000000000000602082015250565b6000620021fb60338362001c5e565b915062002208826200219d565b604082019050919050565b600060208201905081810360008301526200222e81620021ec565b9050919050565b7f4469616d6f6e6453746f726167654c69624375743a2043616e2774206164642060008201527f66756e6374696f6e207468617420616c72656164792065786973747300000000602082015250565b600062002293603c8362001c5e565b9150620022a08262002235565b604082019050919050565b60006020820190508181036000830152620022c68162002284565b9050919050565b60006bffffffffffffffffffffffff82169050919050565b6000620022f282620022cd565b91506bffffffffffffffffffffffff820362002313576200231262001d07565b5b600182019050919050565b7f4469616d6f6e6453746f726167654c69624375743a2043616e2774207265706c60008201527f6163652066756e6374696f6e20776974682073616d652066756e6374696f6e00602082015250565b60006200237c603f8362001c5e565b915062002389826200231e565b604082019050919050565b60006020820190508181036000830152620023af816200236d565b9050919050565b7f4469616d6f6e6453746f726167654c69624375743a2052656d6f76652066616360008201527f65742061646472657373206d7573742062652061646472657373283029000000602082015250565b600062002414603d8362001c5e565b91506200242182620023b6565b604082019050919050565b60006020820190508181036000830152620024478162002405565b9050919050565b7f4469616d6f6e6453746f726167654c69624375743a205f696e6974206973206160008201527f646472657373283029206275745f63616c6c64617461206973206e6f7420656d60208201527f7074790000000000000000000000000000000000000000000000000000000000604082015250565b6000620024d260438362001c5e565b9150620024df826200244e565b606082019050919050565b600060208201905081810360008301526200250581620024c3565b9050919050565b7f4469616d6f6e6453746f726167654c69624375743a205f63616c6c646174612060008201527f697320656d70747920627574205f696e6974206973206e6f742061646472657360208201527f7328302900000000000000000000000000000000000000000000000000000000604082015250565b60006200259060448362001c5e565b91506200259d826200250c565b606082019050919050565b60006020820190508181036000830152620025c38162002581565b9050919050565b600081905092915050565b6000620025e28262002020565b620025ee8185620025ca565b9350620026008185602086016200203c565b80840191505092915050565b60006200261a8284620025d5565b915081905092915050565b600081519050919050565b60006200263d8262002625565b62002649818562001c5e565b93506200265b8185602086016200203c565b620026668162002068565b840191505092915050565b600060208201905081810360008301526200268d818462002630565b905092915050565b7f4469616d6f6e6453746f726167654c69624375743a205f696e69742066756e6360008201527f74696f6e20726576657274656400000000000000000000000000000000000000602082015250565b6000620026f3602d8362001c5e565b9150620027008262002695565b604082019050919050565b600060208201905081810360008301526200272681620026e4565b9050919050565b7f4469616d6f6e6453746f726167654c69624375743a2043616e27742072656d6f60008201527f76652066756e6374696f6e207468617420646f65736e27742065786973740000602082015250565b60006200278b603e8362001c5e565b915062002798826200272d565b604082019050919050565b60006020820190508181036000830152620027be816200277c565b9050919050565b7f4469616d6f6e6453746f726167654c69624375743a2043616e27742072656d6f60008201527f766520696d6d757461626c652066756e6374696f6e0000000000000000000000602082015250565b60006200282360358362001c5e565b91506200283082620027c5565b604082019050919050565b60006020820190508181036000830152620028568162002814565b9050919050565b60006200286a8262001d36565b9150620028778362001d36565b925082820390508181111562002892576200289162001d07565b5b92915050565b7f4e487b7100000000000000000000000000000000000000000000000000000000600052603160045260246000fd5b6136e680620028d76000396000f3fe60806040526004361061008a5760003560e01c80638865752311610059578063886575231461019e578063b9e75c67146101c7578063c83b58a0146101de578063df499fa514610207578063edad03791461021e5761008b565b80630d741577146100e25780634e69d5601461011f5780635c60da1b1461014a5780637aa071c0146101755761008b565b5b60006100ba6000357fffffffff000000000000000000000000000000000000000000000000000000001661025b565b90503660008037600080366000845af43d6000803e80600081146100dd573d6000f35b3d6000fd5b3480156100ee57600080fd5b5061010960048036038101906101049190612265565b61025b565b60405161011691906122d3565b60405180910390f35b34801561012b57600080fd5b50610134610423565b6040516101419190612309565b60405180910390f35b34801561015657600080fd5b5061015f610448565b60405161016c91906122d3565b60405180910390f35b34801561018157600080fd5b5061019c60048036038101906101979190612350565b610450565b005b3480156101aa57600080fd5b506101c560048036038101906101c091906125c5565b61052c565b005b3480156101d357600080fd5b506101dc6106b1565b005b3480156101ea57600080fd5b5061020560048036038101906102009190612350565b61077e565b005b34801561021357600080fd5b5061021c61085a565b005b34801561022a57600080fd5b5061024560048036038101906102409190612265565b610927565b6040516102529190612309565b60405180910390f35b6000816000610268610d16565b90508060050160019054906101000a900460ff1661032157806004016000837bffffffffffffffffffffffffffffffffffffffffffffffffffffffff19167bffffffffffffffffffffffffffffffffffffffffffffffffffffffff1916815260200190815260200160002060009054906101000a900460ff16610320576040517f08c379a00000000000000000000000000000000000000000000000000000000081526004016103179061269a565b60405180910390fd5b5b600061032b610d16565b90506000816000016000877bffffffffffffffffffffffffffffffffffffffffffffffffffffffff19167bffffffffffffffffffffffffffffffffffffffffffffffffffffffff1916815260200190815260200160002060000160009054906101000a900473ffffffffffffffffffffffffffffffffffffffff169050600073ffffffffffffffffffffffffffffffffffffffff168173ffffffffffffffffffffffffffffffffffffffff1603610417576040517f08c379a000000000000000000000000000000000000000000000000000000000815260040161040e90612706565b60405180910390fd5b80945050505050919050565b60008061042e610d16565b90508060050160019054906101000a900460ff1691505090565b600030905090565b610458610d43565b3373ffffffffffffffffffffffffffffffffffffffff168173ffffffffffffffffffffffffffffffffffffffff16036104c6576040517f08c379a00000000000000000000000000000000000000000000000000000000081526004016104bd90612798565b60405180910390fd5b6104cf81610dde565b8073ffffffffffffffffffffffffffffffffffffffff163373ffffffffffffffffffffffffffffffffffffffff167f4df3b7624b06f776b815d2fefcdc202767d1b527b1449c2657d8f6951db44ddf60405160405180910390a350565b610534610e31565b600061053e610d16565b905060005b83518110156106ab57633f4ba83a60e01b848281518110610567576105666127b8565b5b60200260200101517bffffffffffffffffffffffffffffffffffffffffffffffffffffffff19161480156105b95750600015158382815181106105ad576105ac6127b8565b5b60200260200101511515145b156105f9576040517f08c379a00000000000000000000000000000000000000000000000000000000081526004016105f090612859565b60405180910390fd5b82818151811061060c5761060b6127b8565b5b602002602001015182600401600086848151811061062d5761062c6127b8565b5b60200260200101517bffffffffffffffffffffffffffffffffffffffffffffffffffffffff19167bffffffffffffffffffffffffffffffffffffffffffffffffffffffff1916815260200190815260200160002060006101000a81548160ff02191690831515021790555080806106a3906128b2565b915050610543565b50505050565b3373ffffffffffffffffffffffffffffffffffffffff166106d0610ecc565b73ffffffffffffffffffffffffffffffffffffffff1614610726576040517f08c379a000000000000000000000000000000000000000000000000000000000815260040161071d9061296c565b60405180910390fd5b61072f33610939565b6107396000610eff565b3373ffffffffffffffffffffffffffffffffffffffff167fd3c0f3a3e3f95e42614af3ba6af04f6a6df312e675ce644bf876e1ae420e3cc660405160405180910390a2565b610786610e31565b3373ffffffffffffffffffffffffffffffffffffffff168173ffffffffffffffffffffffffffffffffffffffff16036107f4576040517f08c379a00000000000000000000000000000000000000000000000000000000081526004016107eb906129fe565b60405180910390fd5b6107fd81610eff565b8073ffffffffffffffffffffffffffffffffffffffff163373ffffffffffffffffffffffffffffffffffffffff167f21deb7d724608c01da3d0b07a81834ec56f01dbf1263c6c878d360adf7b5f3dd60405160405180910390a350565b3373ffffffffffffffffffffffffffffffffffffffff16610879610f52565b73ffffffffffffffffffffffffffffffffffffffff16146108cf576040517f08c379a00000000000000000000000000000000000000000000000000000000081526004016108c69061296c565b60405180910390fd5b6108d833610a10565b6108e26000610dde565b3373ffffffffffffffffffffffffffffffffffffffff167fe50a4f4f7511acadcc7bdb023559c8cc80d15be0d87fe6f7f6d28cceb1d3b7f860405160405180910390a2565b600061093282610f85565b9050919050565b6000610943610ffb565b905060008160010160009054906101000a900473ffffffffffffffffffffffffffffffffffffffff169050828260010160006101000a81548173ffffffffffffffffffffffffffffffffffffffff021916908373ffffffffffffffffffffffffffffffffffffffff1602179055508273ffffffffffffffffffffffffffffffffffffffff168173ffffffffffffffffffffffffffffffffffffffff167f8be0079c531659141344cd1fd0a4f28419497f9722a3daafe3b4186f6b6457e060405160405180910390a3505050565b6000610a1a610ffb565b905060008160000160009054906101000a900473ffffffffffffffffffffffffffffffffffffffff169050828260000160006101000a81548173ffffffffffffffffffffffffffffffffffffffff021916908373ffffffffffffffffffffffffffffffffffffffff1602179055508273ffffffffffffffffffffffffffffffffffffffff168173ffffffffffffffffffffffffffffffffffffffff167fa9b6c2526b044187e4744e292867fd1f6b7e6be882e40ec94d7949b26f8088b260405160405180910390a3505050565b60005b8351811015610ccb576000848281518110610b0857610b076127b8565b5b602002602001015160200151905060006002811115610b2a57610b29612a1e565b5b816002811115610b3d57610b3c612a1e565b5b03610b8d57610b88858381518110610b5857610b576127b8565b5b602002602001015160000151868481518110610b7757610b766127b8565b5b602002602001015160400151611028565b610cb7565b60016002811115610ba157610ba0612a1e565b5b816002811115610bb457610bb3612a1e565b5b03610c0457610bff858381518110610bcf57610bce6127b8565b5b602002602001015160000151868481518110610bee57610bed6127b8565b5b60200260200101516040015161129f565b610cb6565b600280811115610c1757610c16612a1e565b5b816002811115610c2a57610c29612a1e565b5b03610c7a57610c75858381518110610c4557610c446127b8565b5b602002602001015160000151868481518110610c6457610c636127b8565b5b602002602001015160400151611520565b610cb5565b6040517f08c379a0000000000000000000000000000000000000000000000000000000008152600401610cac90612abf565b60405180910390fd5b5b5b508080610cc3906128b2565b915050610aea565b507f8faa70878671ccd212d20771b795c50af8fd3ff6cf27f4bde57e5d4de0aeb673838383604051610cff93929190612d85565b60405180910390a1610d1182826116ab565b505050565b6000807fc8fcad8db84d3cc18b4c41d551ea0ee66dd599cde068d998e57d5e09332c131c90508091505090565b610d4b610ffb565b60000160009054906101000a900473ffffffffffffffffffffffffffffffffffffffff1673ffffffffffffffffffffffffffffffffffffffff163373ffffffffffffffffffffffffffffffffffffffff1614610ddc576040517f08c379a0000000000000000000000000000000000000000000000000000000008152600401610dd390612e3c565b60405180910390fd5b565b6000610de8610ffb565b9050818160030160006101000a81548173ffffffffffffffffffffffffffffffffffffffff021916908373ffffffffffffffffffffffffffffffffffffffff1602179055505050565b610e39610ffb565b60010160009054906101000a900473ffffffffffffffffffffffffffffffffffffffff1673ffffffffffffffffffffffffffffffffffffffff163373ffffffffffffffffffffffffffffffffffffffff1614610eca576040517f08c379a0000000000000000000000000000000000000000000000000000000008152600401610ec190612ece565b60405180910390fd5b565b6000610ed6610ffb565b60020160009054906101000a900473ffffffffffffffffffffffffffffffffffffffff16905090565b6000610f09610ffb565b9050818160020160006101000a81548173ffffffffffffffffffffffffffffffffffffffff021916908373ffffffffffffffffffffffffffffffffffffffff1602179055505050565b6000610f5c610ffb565b60030160009054906101000a900473ffffffffffffffffffffffffffffffffffffffff16905090565b600080610f90610d16565b9050806004016000847bffffffffffffffffffffffffffffffffffffffffffffffffffffffff19167bffffffffffffffffffffffffffffffffffffffffffffffffffffffff1916815260200190815260200160002060009054906101000a900460ff16915050919050565b6000807f8d5bb42e0ac1496a2c326edc9c00758985246e6c2bb146d6c2f4a0d509e0960a90508091505090565b600081511161106c576040517f08c379a000000000000000000000000000000000000000000000000000000000815260040161106390612f60565b60405180910390fd5b6000611076610d16565b9050600073ffffffffffffffffffffffffffffffffffffffff168373ffffffffffffffffffffffffffffffffffffffff16036110e7576040517f08c379a00000000000000000000000000000000000000000000000000000000081526004016110de90612ff2565b60405180910390fd5b60008160010160008573ffffffffffffffffffffffffffffffffffffffff1673ffffffffffffffffffffffffffffffffffffffff1681526020019081526020016000206000018054905090506000816bffffffffffffffffffffffff16036111545761115382856118bd565b5b60005b8351811015611298576000848281518110611175576111746127b8565b5b602002602001015190506000846000016000837bffffffffffffffffffffffffffffffffffffffffffffffffffffffff19167bffffffffffffffffffffffffffffffffffffffffffffffffffffffff1916815260200190815260200160002060000160009054906101000a900473ffffffffffffffffffffffffffffffffffffffff169050600073ffffffffffffffffffffffffffffffffffffffff168173ffffffffffffffffffffffffffffffffffffffff1614611269576040517f08c379a000000000000000000000000000000000000000000000000000000000815260040161126090613084565b60405180910390fd5b6112758583868a611998565b8380611280906130bc565b94505050508080611290906128b2565b915050611157565b5050505050565b60008151116112e3576040517f08c379a00000000000000000000000000000000000000000000000000000000081526004016112da90612f60565b60405180910390fd5b60006112ed610d16565b9050600073ffffffffffffffffffffffffffffffffffffffff168373ffffffffffffffffffffffffffffffffffffffff160361135e576040517f08c379a000000000000000000000000000000000000000000000000000000000815260040161135590612ff2565b60405180910390fd5b60008160010160008573ffffffffffffffffffffffffffffffffffffffff1673ffffffffffffffffffffffffffffffffffffffff1681526020019081526020016000206000018054905090506000816bffffffffffffffffffffffff16036113cb576113ca82856118bd565b5b60005b83518110156115195760008482815181106113ec576113eb6127b8565b5b602002602001015190506000846000016000837bffffffffffffffffffffffffffffffffffffffffffffffffffffffff19167bffffffffffffffffffffffffffffffffffffffffffffffffffffffff1916815260200190815260200160002060000160009054906101000a900473ffffffffffffffffffffffffffffffffffffffff1690508673ffffffffffffffffffffffffffffffffffffffff168173ffffffffffffffffffffffffffffffffffffffff16036114df576040517f08c379a00000000000000000000000000000000000000000000000000000000081526004016114d690613162565b60405180910390fd5b6114ea858284611b45565b6114f68583868a611998565b8380611501906130bc565b94505050508080611511906128b2565b9150506113ce565b5050505050565b6000815111611564576040517f08c379a000000000000000000000000000000000000000000000000000000000815260040161155b90612f60565b60405180910390fd5b600061156e610d16565b9050600073ffffffffffffffffffffffffffffffffffffffff168373ffffffffffffffffffffffffffffffffffffffff16146115df576040517f08c379a00000000000000000000000000000000000000000000000000000000081526004016115d6906131f4565b60405180910390fd5b60005b82518110156116a5576000838281518110611600576115ff6127b8565b5b602002602001015190506000836000016000837bffffffffffffffffffffffffffffffffffffffffffffffffffffffff19167bffffffffffffffffffffffffffffffffffffffffffffffffffffffff1916815260200190815260200160002060000160009054906101000a900473ffffffffffffffffffffffffffffffffffffffff169050611690848284611b45565b5050808061169d906128b2565b9150506115e2565b50505050565b600073ffffffffffffffffffffffffffffffffffffffff168273ffffffffffffffffffffffffffffffffffffffff1603611728576000815114611723576040517f08c379a000000000000000000000000000000000000000000000000000000000815260040161171a906132ac565b60405180910390fd5b6118b9565b600081511161176c576040517f08c379a000000000000000000000000000000000000000000000000000000000815260040161176390613364565b60405180910390fd5b3073ffffffffffffffffffffffffffffffffffffffff168273ffffffffffffffffffffffffffffffffffffffff16146117c2576117c1826040518060600160405280602f8152602001613682602f91396121a7565b5b6000808373ffffffffffffffffffffffffffffffffffffffff16836040516117ea91906133c0565b600060405180830381855af49150503d8060008114611825576040519150601f19603f3d011682016040523d82523d6000602084013e61182a565b606091505b5091509150816118b65760008151111561187b57806040517f08c379a0000000000000000000000000000000000000000000000000000000008152600401611872919061341b565b60405180910390fd5b6040517f08c379a00000000000000000000000000000000000000000000000000000000081526004016118ad906134af565b60405180910390fd5b50505b5050565b6118df816040518060600160405280602b8152602001613657602b91396121a7565b81600201805490508260010160008373ffffffffffffffffffffffffffffffffffffffff1673ffffffffffffffffffffffffffffffffffffffff1681526020019081526020016000206001018190555081600201819080600181540180825580915050600190039060005260206000200160009091909190916101000a81548173ffffffffffffffffffffffffffffffffffffffff021916908373ffffffffffffffffffffffffffffffffffffffff1602179055505050565b81846000016000857bffffffffffffffffffffffffffffffffffffffffffffffffffffffff19167bffffffffffffffffffffffffffffffffffffffffffffffffffffffff1916815260200190815260200160002060000160146101000a8154816bffffffffffffffffffffffff02191690836bffffffffffffffffffffffff1602179055508360010160008273ffffffffffffffffffffffffffffffffffffffff1673ffffffffffffffffffffffffffffffffffffffff1681526020019081526020016000206000018390806001815401808255809150506001900390600052602060002090600891828204019190066004029091909190916101000a81548163ffffffff021916908360e01c021790555080846000016000857bffffffffffffffffffffffffffffffffffffffffffffffffffffffff19167bffffffffffffffffffffffffffffffffffffffffffffffffffffffff1916815260200190815260200160002060000160006101000a81548173ffffffffffffffffffffffffffffffffffffffff021916908373ffffffffffffffffffffffffffffffffffffffff16021790555050505050565b600073ffffffffffffffffffffffffffffffffffffffff168273ffffffffffffffffffffffffffffffffffffffff1603611bb4576040517f08c379a0000000000000000000000000000000000000000000000000000000008152600401611bab90613541565b60405180910390fd5b3073ffffffffffffffffffffffffffffffffffffffff168273ffffffffffffffffffffffffffffffffffffffff1603611c22576040517f08c379a0000000000000000000000000000000000000000000000000000000008152600401611c19906135d3565b60405180910390fd5b6000836000016000837bffffffffffffffffffffffffffffffffffffffffffffffffffffffff19167bffffffffffffffffffffffffffffffffffffffffffffffffffffffff1916815260200190815260200160002060000160149054906101000a90046bffffffffffffffffffffffff166bffffffffffffffffffffffff169050600060018560010160008673ffffffffffffffffffffffffffffffffffffffff1673ffffffffffffffffffffffffffffffffffffffff16815260200190815260200160002060000180549050611cf991906135f3565b9050808214611e8d5760008560010160008673ffffffffffffffffffffffffffffffffffffffff1673ffffffffffffffffffffffffffffffffffffffff1681526020019081526020016000206000018281548110611d5a57611d596127b8565b5b90600052602060002090600891828204019190066004029054906101000a900460e01b9050808660010160008773ffffffffffffffffffffffffffffffffffffffff1673ffffffffffffffffffffffffffffffffffffffff1681526020019081526020016000206000018481548110611dd657611dd56127b8565b5b90600052602060002090600891828204019190066004026101000a81548163ffffffff021916908360e01c021790555082866000016000837bffffffffffffffffffffffffffffffffffffffffffffffffffffffff19167bffffffffffffffffffffffffffffffffffffffffffffffffffffffff1916815260200190815260200160002060000160146101000a8154816bffffffffffffffffffffffff02191690836bffffffffffffffffffffffff160217905550505b8460010160008573ffffffffffffffffffffffffffffffffffffffff1673ffffffffffffffffffffffffffffffffffffffff168152602001908152602001600020600001805480611ee157611ee0613627565b5b60019003818190600052602060002090600891828204019190066004026101000a81549063ffffffff02191690559055846000016000847bffffffffffffffffffffffffffffffffffffffffffffffffffffffff19167bffffffffffffffffffffffffffffffffffffffffffffffffffffffff19168152602001908152602001600020600080820160006101000a81549073ffffffffffffffffffffffffffffffffffffffff02191690556000820160146101000a8154906bffffffffffffffffffffffff02191690555050600081036121a057600060018660020180549050611fcb91906135f3565b905060008660010160008773ffffffffffffffffffffffffffffffffffffffff1673ffffffffffffffffffffffffffffffffffffffff16815260200190815260200160002060010154905081811461210c576000876002018381548110612035576120346127b8565b5b9060005260206000200160009054906101000a900473ffffffffffffffffffffffffffffffffffffffff16905080886002018381548110612079576120786127b8565b5b9060005260206000200160006101000a81548173ffffffffffffffffffffffffffffffffffffffff021916908373ffffffffffffffffffffffffffffffffffffffff160217905550818860010160008373ffffffffffffffffffffffffffffffffffffffff1673ffffffffffffffffffffffffffffffffffffffff16815260200190815260200160002060010181905550505b866002018054806121205761211f613627565b5b6001900381819060005260206000200160006101000a81549073ffffffffffffffffffffffffffffffffffffffff021916905590558660010160008773ffffffffffffffffffffffffffffffffffffffff1673ffffffffffffffffffffffffffffffffffffffff1681526020019081526020016000206001016000905550505b5050505050565b6000823b90506000811182906121f3576040517f08c379a00000000000000000000000000000000000000000000000000000000081526004016121ea919061341b565b60405180910390fd5b50505050565b6000604051905090565b600080fd5b600080fd5b60007fffffffff0000000000000000000000000000000000000000000000000000000082169050919050565b6122428161220d565b811461224d57600080fd5b50565b60008135905061225f81612239565b92915050565b60006020828403121561227b5761227a612203565b5b600061228984828501612250565b91505092915050565b600073ffffffffffffffffffffffffffffffffffffffff82169050919050565b60006122bd82612292565b9050919050565b6122cd816122b2565b82525050565b60006020820190506122e860008301846122c4565b92915050565b60008115159050919050565b612303816122ee565b82525050565b600060208201905061231e60008301846122fa565b92915050565b61232d816122b2565b811461233857600080fd5b50565b60008135905061234a81612324565b92915050565b60006020828403121561236657612365612203565b5b60006123748482850161233b565b91505092915050565b600080fd5b6000601f19601f8301169050919050565b7f4e487b7100000000000000000000000000000000000000000000000000000000600052604160045260246000fd5b6123cb82612382565b810181811067ffffffffffffffff821117156123ea576123e9612393565b5b80604052505050565b60006123fd6121f9565b905061240982826123c2565b919050565b600067ffffffffffffffff82111561242957612428612393565b5b602082029050602081019050919050565b600080fd5b600061245261244d8461240e565b6123f3565b905080838252602082019050602084028301858111156124755761247461243a565b5b835b8181101561249e578061248a8882612250565b845260208401935050602081019050612477565b5050509392505050565b600082601f8301126124bd576124bc61237d565b5b81356124cd84826020860161243f565b91505092915050565b600067ffffffffffffffff8211156124f1576124f0612393565b5b602082029050602081019050919050565b61250b816122ee565b811461251657600080fd5b50565b60008135905061252881612502565b92915050565b600061254161253c846124d6565b6123f3565b905080838252602082019050602084028301858111156125645761256361243a565b5b835b8181101561258d57806125798882612519565b845260208401935050602081019050612566565b5050509392505050565b600082601f8301126125ac576125ab61237d565b5b81356125bc84826020860161252e565b91505092915050565b600080604083850312156125dc576125db612203565b5b600083013567ffffffffffffffff8111156125fa576125f9612208565b5b612606858286016124a8565b925050602083013567ffffffffffffffff81111561262757612626612208565b5b61263385828601612597565b9150509250929050565b600082825260208201905092915050565b7f50726f746f636f6c557067726164653a207061757365642e0000000000000000600082015250565b600061268460188361263d565b915061268f8261264e565b602082019050919050565b600060208201905081810360008301526126b381612677565b9050919050565b7f4469616d6f6e643a2046756e6374696f6e20646f6573206e6f74206578697374600082015250565b60006126f060208361263d565b91506126fb826126ba565b602082019050919050565b6000602082019050818103600083015261271f816126e3565b9050919050565b7f43616e27742070726f706f7365206f6e6573656c66206173206120636f6e747260008201527f61637420706175736541646d696e000000000000000000000000000000000000602082015250565b6000612782602e8361263d565b915061278d82612726565b604082019050919050565b600060208201905081810360008301526127b181612775565b9050919050565b7f4e487b7100000000000000000000000000000000000000000000000000000000600052603260045260246000fd5b7f54686520756e70617573652829206d6574686f64206d7573742062652061766160008201527f696c61626c6520647572696e6720746865207061757365642073746174652e00602082015250565b6000612843603f8361263d565b915061284e826127e7565b604082019050919050565b6000602082019050818103600083015261287281612836565b9050919050565b7f4e487b7100000000000000000000000000000000000000000000000000000000600052601160045260246000fd5b6000819050919050565b60006128bd826128a8565b91507fffffffffffffffffffffffffffffffffffffffffffffffffffffffffffffffff82036128ef576128ee612879565b5b600182019050919050565b7f4f6e6c7920612070726f706f73656420757365722063616e206163636570742060008201527f6f776e6572736869700000000000000000000000000000000000000000000000602082015250565b600061295660298361263d565b9150612961826128fa565b604082019050919050565b6000602082019050818103600083015261298581612949565b9050919050565b7f43616e27742070726f706f7365206f6e6573656c66206173206120636f6e747260008201527f616374206f776e65720000000000000000000000000000000000000000000000602082015250565b60006129e860298361263d565b91506129f38261298c565b604082019050919050565b60006020820190508181036000830152612a17816129db565b9050919050565b7f4e487b7100000000000000000000000000000000000000000000000000000000600052602160045260246000fd5b7f4469616d6f6e6453746f726167654c69624375743a20496e636f72726563742060008201527f4661636574437574416374696f6e000000000000000000000000000000000000602082015250565b6000612aa9602e8361263d565b9150612ab482612a4d565b604082019050919050565b60006020820190508181036000830152612ad881612a9c565b9050919050565b600081519050919050565b600082825260208201905092915050565b6000819050602082019050919050565b612b14816122b2565b82525050565b60038110612b2b57612b2a612a1e565b5b50565b6000819050612b3c82612b1a565b919050565b6000612b4c82612b2e565b9050919050565b612b5c81612b41565b82525050565b600081519050919050565b600082825260208201905092915050565b6000819050602082019050919050565b612b978161220d565b82525050565b6000612ba98383612b8e565b60208301905092915050565b6000602082019050919050565b6000612bcd82612b62565b612bd78185612b6d565b9350612be283612b7e565b8060005b83811015612c13578151612bfa8882612b9d565b9750612c0583612bb5565b925050600181019050612be6565b5085935050505092915050565b6000606083016000830151612c386000860182612b0b565b506020830151612c4b6020860182612b53565b5060408301518482036040860152612c638282612bc2565b9150508091505092915050565b6000612c7c8383612c20565b905092915050565b6000602082019050919050565b6000612c9c82612adf565b612ca68185612aea565b935083602082028501612cb885612afb565b8060005b85811015612cf45784840389528151612cd58582612c70565b9450612ce083612c84565b925060208a01995050600181019050612cbc565b50829750879550505050505092915050565b600081519050919050565b600082825260208201905092915050565b60005b83811015612d40578082015181840152602081019050612d25565b60008484015250505050565b6000612d5782612d06565b612d618185612d11565b9350612d71818560208601612d22565b612d7a81612382565b840191505092915050565b60006060820190508181036000830152612d9f8186612c91565b9050612dae60208301856122c4565b8181036040830152612dc08184612d4c565b9050949350505050565b7f4469616d6f6e6453746f726167654c69623a204d75737420626520636f6e747260008201527f61637420706175736541646d696e000000000000000000000000000000000000602082015250565b6000612e26602e8361263d565b9150612e3182612dca565b604082019050919050565b60006020820190508181036000830152612e5581612e19565b9050919050565b7f4469616d6f6e6453746f726167654c69623a204d75737420626520636f6e747260008201527f616374206f776e65720000000000000000000000000000000000000000000000602082015250565b6000612eb860298361263d565b9150612ec382612e5c565b604082019050919050565b60006020820190508181036000830152612ee781612eab565b9050919050565b7f4469616d6f6e6453746f726167654c69624375743a204e6f2073656c6563746f60008201527f727320696e20666163657420746f206375740000000000000000000000000000602082015250565b6000612f4a60328361263d565b9150612f5582612eee565b604082019050919050565b60006020820190508181036000830152612f7981612f3d565b9050919050565b7f4469616d6f6e6453746f726167654c69624375743a204164642066616365742060008201527f63616e2774206265206164647265737328302900000000000000000000000000602082015250565b6000612fdc60338361263d565b9150612fe782612f80565b604082019050919050565b6000602082019050818103600083015261300b81612fcf565b9050919050565b7f4469616d6f6e6453746f726167654c69624375743a2043616e2774206164642060008201527f66756e6374696f6e207468617420616c72656164792065786973747300000000602082015250565b600061306e603c8361263d565b915061307982613012565b604082019050919050565b6000602082019050818103600083015261309d81613061565b9050919050565b60006bffffffffffffffffffffffff82169050919050565b60006130c7826130a4565b91506bffffffffffffffffffffffff82036130e5576130e4612879565b5b600182019050919050565b7f4469616d6f6e6453746f726167654c69624375743a2043616e2774207265706c60008201527f6163652066756e6374696f6e20776974682073616d652066756e6374696f6e00602082015250565b600061314c603f8361263d565b9150613157826130f0565b604082019050919050565b6000602082019050818103600083015261317b8161313f565b9050919050565b7f4469616d6f6e6453746f726167654c69624375743a2052656d6f76652066616360008201527f65742061646472657373206d7573742062652061646472657373283029000000602082015250565b60006131de603d8361263d565b91506131e982613182565b604082019050919050565b6000602082019050818103600083015261320d816131d1565b9050919050565b7f4469616d6f6e6453746f726167654c69624375743a205f696e6974206973206160008201527f646472657373283029206275745f63616c6c64617461206973206e6f7420656d60208201527f7074790000000000000000000000000000000000000000000000000000000000604082015250565b600061329660438361263d565b91506132a182613214565b606082019050919050565b600060208201905081810360008301526132c581613289565b9050919050565b7f4469616d6f6e6453746f726167654c69624375743a205f63616c6c646174612060008201527f697320656d70747920627574205f696e6974206973206e6f742061646472657360208201527f7328302900000000000000000000000000000000000000000000000000000000604082015250565b600061334e60448361263d565b9150613359826132cc565b606082019050919050565b6000602082019050818103600083015261337d81613341565b9050919050565b600081905092915050565b600061339a82612d06565b6133a48185613384565b93506133b4818560208601612d22565b80840191505092915050565b60006133cc828461338f565b915081905092915050565b600081519050919050565b60006133ed826133d7565b6133f7818561263d565b9350613407818560208601612d22565b61341081612382565b840191505092915050565b6000602082019050818103600083015261343581846133e2565b905092915050565b7f4469616d6f6e6453746f726167654c69624375743a205f696e69742066756e6360008201527f74696f6e20726576657274656400000000000000000000000000000000000000602082015250565b6000613499602d8361263d565b91506134a48261343d565b604082019050919050565b600060208201905081810360008301526134c88161348c565b9050919050565b7f4469616d6f6e6453746f726167654c69624375743a2043616e27742072656d6f60008201527f76652066756e6374696f6e207468617420646f65736e27742065786973740000602082015250565b600061352b603e8361263d565b9150613536826134cf565b604082019050919050565b6000602082019050818103600083015261355a8161351e565b9050919050565b7f4469616d6f6e6453746f726167654c69624375743a2043616e27742072656d6f60008201527f766520696d6d757461626c652066756e6374696f6e0000000000000000000000602082015250565b60006135bd60358361263d565b91506135c882613561565b604082019050919050565b600060208201905081810360008301526135ec816135b0565b9050919050565b60006135fe826128a8565b9150613609836128a8565b925082820390508181111561362157613620612879565b5b92915050565b7f4e487b7100000000000000000000000000000000000000000000000000000000600052603160045260246000fdfe4469616d6f6e6453746f726167654c69624375743a204e657720666163657420686173206e6f20636f64654469616d6f6e6453746f726167654c69624375743a205f696e6974206164647265737320686173206e6f20636f6465a264697066735822122046cf07be26ff39146304926cb6d27be3e0f7013e4fc10d2a75b41adbfa85b0e564736f6c634300081100334469616d6f6e6453746f726167654c69624375743a204e657720666163657420686173206e6f20636f64654469616d6f6e6453746f726167654c69624375743a205f696e6974206164647265737320686173206e6f20636f6465",
  "libraries": {},
  "devdoc": {
    "events": {
      "OwnershipProposalAccepted(address)": {
        "details": "emitted after accepting a ownership transfer proposal by the new owner",
        "params": {
          "newOwner": "address of the new owner*"
        }
      },
      "OwnershipProposalCreated(address,address)": {
        "details": "emitted after creating a ownership transfer proposal by the owner",
        "params": {
          "owner": "address of the current owner",
          "proposed": "address of the proposed owner*"
        }
      },
      "PauseAdminOwnershipProposalAccepted(address)": {
        "details": "emitted after accepting a pauseAdmin transfer proposal by the new pauseAdmin",
        "params": {
          "newPauseAdmin": "address of the new pauseAdmin*"
        }
      },
      "PauseAdminOwnershipProposalCreated(address,address)": {
        "details": "emitted after creating a pauseAdmin transfer proposal by the pauseAdmin",
        "params": {
          "pauseAdmin": "address of the current pauseAdmin",
          "proposed": "address of the proposed pauseAdmin*"
        }
      }
    },
    "kind": "dev",
    "methods": {},
    "title": "SmartLoanDiamondBeacon A contract that is authorised to borrow funds using delegated credit. It maintains solvency calculating the current value of assets and borrowings. In case the value of assets held drops below certain level, part of the funds may be forcibly repaid. It permits only a limited and safe token transfer.",
    "version": 1
  },
  "userdoc": {
    "kind": "user",
    "methods": {},
    "version": 1
  },
  "storageLayout": {
    "storage": [],
    "types": null
  }
}