{
  "address": "0xD55e057F233fA3D82ac2b9D5Fe8497124a352426",
  "abi": [
    {
      "inputs": [],
      "name": "CalldataMustHaveValidPayload",
      "type": "error"
    },
    {
      "inputs": [],
      "name": "CalldataOverOrUnderFlow",
      "type": "error"
    },
    {
      "inputs": [],
      "name": "CanNotPickMedianOfEmptyArray",
      "type": "error"
    },
    {
      "inputs": [],
      "name": "EachSignerMustProvideTheSameValue",
      "type": "error"
    },
    {
      "inputs": [],
      "name": "EmptyCalldataPointersArr",
      "type": "error"
    },
    {
      "inputs": [],
      "name": "IncorrectUnsignedMetadataSize",
      "type": "error"
    },
    {
      "inputs": [
        {
          "internalType": "uint256",
          "name": "receviedSignersCount",
          "type": "uint256"
        },
        {
          "internalType": "uint256",
          "name": "requiredSignersCount",
          "type": "uint256"
        }
      ],
      "name": "InsufficientNumberOfUniqueSigners",
      "type": "error"
    },
    {
      "inputs": [],
      "name": "InvalidCalldataPointer",
      "type": "error"
    },
    {
      "inputs": [
        {
          "internalType": "address",
          "name": "receivedSigner",
          "type": "address"
        }
      ],
      "name": "SignerNotAuthorised",
      "type": "error"
    },
    {
      "inputs": [
        {
          "internalType": "uint256",
          "name": "receivedTimestampSeconds",
          "type": "uint256"
        },
        {
          "internalType": "uint256",
          "name": "blockTimestamp",
          "type": "uint256"
        }
      ],
      "name": "TimestampFromTooLongFuture",
      "type": "error"
    },
    {
      "inputs": [
        {
          "internalType": "uint256",
          "name": "receivedTimestampSeconds",
          "type": "uint256"
        },
        {
          "internalType": "uint256",
          "name": "blockTimestamp",
          "type": "uint256"
        }
      ],
      "name": "TimestampIsTooOld",
      "type": "error"
    },
    {
      "inputs": [
        {
          "components": [
            {
              "internalType": "bytes32",
              "name": "asset",
              "type": "bytes32"
            },
            {
              "internalType": "uint256",
              "name": "price",
              "type": "uint256"
            }
          ],
          "internalType": "struct SolvencyFacetProd.AssetPrice[]",
          "name": "ownedAssetsPrices",
          "type": "tuple[]"
        }
      ],
      "name": "_getTotalAssetsValueBase",
      "outputs": [
        {
          "internalType": "uint256",
          "name": "",
          "type": "uint256"
        }
      ],
      "stateMutability": "view",
      "type": "function"
    },
    {
      "inputs": [
        {
          "internalType": "uint256[]",
          "name": "values",
          "type": "uint256[]"
        }
      ],
      "name": "aggregateValues",
      "outputs": [
        {
          "internalType": "uint256",
          "name": "",
          "type": "uint256"
        }
      ],
      "stateMutability": "view",
      "type": "function"
    },
    {
      "inputs": [],
      "name": "canRepayDebtFully",
      "outputs": [
        {
          "internalType": "bool",
          "name": "",
          "type": "bool"
        }
      ],
      "stateMutability": "view",
      "type": "function"
    },
    {
      "inputs": [
        {
          "internalType": "bytes32[]",
          "name": "assetsToRepay",
          "type": "bytes32[]"
        }
      ],
      "name": "getAllPricesForLiquidation",
      "outputs": [
        {
          "components": [
            {
              "components": [
                {
                  "internalType": "bytes32",
                  "name": "asset",
                  "type": "bytes32"
                },
                {
                  "internalType": "uint256",
                  "name": "price",
                  "type": "uint256"
                }
              ],
              "internalType": "struct SolvencyFacetProd.AssetPrice[]",
              "name": "ownedAssetsPrices",
              "type": "tuple[]"
            },
            {
              "components": [
                {
                  "internalType": "bytes32",
                  "name": "asset",
                  "type": "bytes32"
                },
                {
                  "internalType": "uint256",
                  "name": "price",
                  "type": "uint256"
                }
              ],
              "internalType": "struct SolvencyFacetProd.AssetPrice[]",
              "name": "debtAssetsPrices",
              "type": "tuple[]"
            },
            {
              "components": [
                {
                  "internalType": "bytes32",
                  "name": "asset",
                  "type": "bytes32"
                },
                {
                  "internalType": "uint256",
                  "name": "price",
                  "type": "uint256"
                }
              ],
              "internalType": "struct SolvencyFacetProd.AssetPrice[]",
              "name": "stakedPositionsPrices",
              "type": "tuple[]"
            },
            {
              "components": [
                {
                  "internalType": "bytes32",
                  "name": "asset",
                  "type": "bytes32"
                },
                {
                  "internalType": "uint256",
                  "name": "price",
                  "type": "uint256"
                }
              ],
              "internalType": "struct SolvencyFacetProd.AssetPrice[]",
              "name": "assetsToRepayPrices",
              "type": "tuple[]"
            }
          ],
          "internalType": "struct SolvencyFacetProd.CachedPrices",
          "name": "result",
          "type": "tuple"
        }
      ],
      "stateMutability": "view",
      "type": "function"
    },
    {
      "inputs": [
        {
          "internalType": "address",
          "name": "signerAddress",
          "type": "address"
        }
      ],
      "name": "getAuthorisedSignerIndex",
      "outputs": [
        {
          "internalType": "uint8",
          "name": "",
          "type": "uint8"
        }
      ],
      "stateMutability": "view",
      "type": "function"
    },
    {
      "inputs": [],
      "name": "getDebt",
      "outputs": [
        {
          "internalType": "uint256",
          "name": "",
          "type": "uint256"
        }
      ],
      "stateMutability": "view",
      "type": "function"
    },
    {
      "inputs": [],
      "name": "getDebtAssets",
      "outputs": [
        {
          "internalType": "bytes32[]",
          "name": "result",
          "type": "bytes32[]"
        }
      ],
      "stateMutability": "view",
      "type": "function"
    },
    {
      "inputs": [],
      "name": "getDebtAssetsPrices",
      "outputs": [
        {
          "components": [
            {
              "internalType": "bytes32",
              "name": "asset",
              "type": "bytes32"
            },
            {
              "internalType": "uint256",
              "name": "price",
              "type": "uint256"
            }
          ],
          "internalType": "struct SolvencyFacetProd.AssetPrice[]",
          "name": "result",
          "type": "tuple[]"
        }
      ],
      "stateMutability": "view",
      "type": "function"
    },
    {
      "inputs": [
        {
          "components": [
            {
              "internalType": "bytes32",
              "name": "asset",
              "type": "bytes32"
            },
            {
              "internalType": "uint256",
              "name": "price",
              "type": "uint256"
            }
          ],
          "internalType": "struct SolvencyFacetProd.AssetPrice[]",
          "name": "debtAssetsPrices",
          "type": "tuple[]"
        }
      ],
      "name": "getDebtWithPrices",
      "outputs": [
        {
          "internalType": "uint256",
          "name": "",
          "type": "uint256"
        }
      ],
      "stateMutability": "view",
      "type": "function"
    },
    {
      "inputs": [],
      "name": "getFullLoanStatus",
      "outputs": [
        {
          "internalType": "uint256[5]",
          "name": "",
          "type": "uint256[5]"
        }
      ],
      "stateMutability": "view",
      "type": "function"
    },
    {
      "inputs": [],
      "name": "getHealthRatio",
      "outputs": [
        {
          "internalType": "uint256",
          "name": "",
          "type": "uint256"
        }
      ],
      "stateMutability": "view",
      "type": "function"
    },
    {
      "inputs": [
        {
          "components": [
            {
              "components": [
                {
                  "internalType": "bytes32",
                  "name": "asset",
                  "type": "bytes32"
                },
                {
                  "internalType": "uint256",
                  "name": "price",
                  "type": "uint256"
                }
              ],
              "internalType": "struct SolvencyFacetProd.AssetPrice[]",
              "name": "ownedAssetsPrices",
              "type": "tuple[]"
            },
            {
              "components": [
                {
                  "internalType": "bytes32",
                  "name": "asset",
                  "type": "bytes32"
                },
                {
                  "internalType": "uint256",
                  "name": "price",
                  "type": "uint256"
                }
              ],
              "internalType": "struct SolvencyFacetProd.AssetPrice[]",
              "name": "debtAssetsPrices",
              "type": "tuple[]"
            },
            {
              "components": [
                {
                  "internalType": "bytes32",
                  "name": "asset",
                  "type": "bytes32"
                },
                {
                  "internalType": "uint256",
                  "name": "price",
                  "type": "uint256"
                }
              ],
              "internalType": "struct SolvencyFacetProd.AssetPrice[]",
              "name": "stakedPositionsPrices",
              "type": "tuple[]"
            },
            {
              "components": [
                {
                  "internalType": "bytes32",
                  "name": "asset",
                  "type": "bytes32"
                },
                {
                  "internalType": "uint256",
                  "name": "price",
                  "type": "uint256"
                }
              ],
              "internalType": "struct SolvencyFacetProd.AssetPrice[]",
              "name": "assetsToRepayPrices",
              "type": "tuple[]"
            }
          ],
          "internalType": "struct SolvencyFacetProd.CachedPrices",
          "name": "cachedPrices",
          "type": "tuple"
        }
      ],
      "name": "getHealthRatioWithPrices",
      "outputs": [
        {
          "internalType": "uint256",
          "name": "",
          "type": "uint256"
        }
      ],
      "stateMutability": "view",
      "type": "function"
    },
    {
      "inputs": [],
      "name": "getOwnedAssetsWithNative",
      "outputs": [
        {
          "internalType": "bytes32[]",
          "name": "",
          "type": "bytes32[]"
        }
      ],
      "stateMutability": "view",
      "type": "function"
    },
    {
      "inputs": [],
      "name": "getOwnedAssetsWithNativePrices",
      "outputs": [
        {
          "components": [
            {
              "internalType": "bytes32",
              "name": "asset",
              "type": "bytes32"
            },
            {
              "internalType": "uint256",
              "name": "price",
              "type": "uint256"
            }
          ],
          "internalType": "struct SolvencyFacetProd.AssetPrice[]",
          "name": "result",
          "type": "tuple[]"
        }
      ],
      "stateMutability": "view",
      "type": "function"
    },
    {
      "inputs": [
        {
          "internalType": "bytes32",
          "name": "symbol",
          "type": "bytes32"
        }
      ],
      "name": "getPrice",
      "outputs": [
        {
          "internalType": "uint256",
          "name": "",
          "type": "uint256"
        }
      ],
      "stateMutability": "view",
      "type": "function"
    },
    {
      "inputs": [
        {
          "internalType": "bytes32[]",
          "name": "symbols",
          "type": "bytes32[]"
        }
      ],
      "name": "getPrices",
      "outputs": [
        {
          "internalType": "uint256[]",
          "name": "",
          "type": "uint256[]"
        }
      ],
      "stateMutability": "view",
      "type": "function"
    },
    {
      "inputs": [],
      "name": "getStakedPositionsPrices",
      "outputs": [
        {
          "components": [
            {
              "internalType": "bytes32",
              "name": "asset",
              "type": "bytes32"
            },
            {
              "internalType": "uint256",
              "name": "price",
              "type": "uint256"
            }
          ],
          "internalType": "struct SolvencyFacetProd.AssetPrice[]",
          "name": "result",
          "type": "tuple[]"
        }
      ],
      "stateMutability": "view",
      "type": "function"
    },
    {
      "inputs": [],
      "name": "getStakedValue",
      "outputs": [
        {
          "internalType": "uint256",
          "name": "",
          "type": "uint256"
        }
      ],
      "stateMutability": "view",
      "type": "function"
    },
    {
      "inputs": [
        {
          "components": [
            {
              "internalType": "bytes32",
              "name": "asset",
              "type": "bytes32"
            },
            {
              "internalType": "uint256",
              "name": "price",
              "type": "uint256"
            }
          ],
          "internalType": "struct SolvencyFacetProd.AssetPrice[]",
          "name": "stakedPositionsPrices",
          "type": "tuple[]"
        }
      ],
      "name": "getStakedValueWithPrices",
      "outputs": [
        {
          "internalType": "uint256",
          "name": "",
          "type": "uint256"
        }
      ],
      "stateMutability": "view",
      "type": "function"
    },
    {
      "inputs": [],
      "name": "getThresholdWeightedValue",
      "outputs": [
        {
          "internalType": "uint256",
          "name": "",
          "type": "uint256"
        }
      ],
      "stateMutability": "view",
      "type": "function"
    },
    {
      "inputs": [
        {
          "components": [
            {
              "internalType": "bytes32",
              "name": "asset",
              "type": "bytes32"
            },
            {
              "internalType": "uint256",
              "name": "price",
              "type": "uint256"
            }
          ],
          "internalType": "struct SolvencyFacetProd.AssetPrice[]",
          "name": "ownedAssetsPrices",
          "type": "tuple[]"
        },
        {
          "components": [
            {
              "internalType": "bytes32",
              "name": "asset",
              "type": "bytes32"
            },
            {
              "internalType": "uint256",
              "name": "price",
              "type": "uint256"
            }
          ],
          "internalType": "struct SolvencyFacetProd.AssetPrice[]",
          "name": "stakedPositionsPrices",
          "type": "tuple[]"
        }
      ],
      "name": "getThresholdWeightedValueWithPrices",
      "outputs": [
        {
          "internalType": "uint256",
          "name": "",
          "type": "uint256"
        }
      ],
      "stateMutability": "view",
      "type": "function"
    },
    {
      "inputs": [],
      "name": "getTotalAssetsValue",
      "outputs": [
        {
          "internalType": "uint256",
          "name": "",
          "type": "uint256"
        }
      ],
      "stateMutability": "view",
      "type": "function"
    },
    {
      "inputs": [
        {
          "components": [
            {
              "internalType": "bytes32",
              "name": "asset",
              "type": "bytes32"
            },
            {
              "internalType": "uint256",
              "name": "price",
              "type": "uint256"
            }
          ],
          "internalType": "struct SolvencyFacetProd.AssetPrice[]",
          "name": "ownedAssetsPrices",
          "type": "tuple[]"
        }
      ],
      "name": "getTotalAssetsValueWithPrices",
      "outputs": [
        {
          "internalType": "uint256",
          "name": "",
          "type": "uint256"
        }
      ],
      "stateMutability": "view",
      "type": "function"
    },
    {
      "inputs": [],
      "name": "getTotalValue",
      "outputs": [
        {
          "internalType": "uint256",
          "name": "",
          "type": "uint256"
        }
      ],
      "stateMutability": "view",
      "type": "function"
    },
    {
      "inputs": [
        {
          "components": [
            {
              "internalType": "bytes32",
              "name": "asset",
              "type": "bytes32"
            },
            {
              "internalType": "uint256",
              "name": "price",
              "type": "uint256"
            }
          ],
          "internalType": "struct SolvencyFacetProd.AssetPrice[]",
          "name": "ownedAssetsPrices",
          "type": "tuple[]"
        },
        {
          "components": [
            {
              "internalType": "bytes32",
              "name": "asset",
              "type": "bytes32"
            },
            {
              "internalType": "uint256",
              "name": "price",
              "type": "uint256"
            }
          ],
          "internalType": "struct SolvencyFacetProd.AssetPrice[]",
          "name": "stakedPositionsPrices",
          "type": "tuple[]"
        }
      ],
      "name": "getTotalValueWithPrices",
      "outputs": [
        {
          "internalType": "uint256",
          "name": "",
          "type": "uint256"
        }
      ],
      "stateMutability": "view",
      "type": "function"
    },
    {
      "inputs": [],
      "name": "getUniqueSignersThreshold",
      "outputs": [
        {
          "internalType": "uint8",
          "name": "",
          "type": "uint8"
        }
      ],
      "stateMutability": "view",
      "type": "function"
    },
    {
      "inputs": [],
      "name": "isSolvent",
      "outputs": [
        {
          "internalType": "bool",
          "name": "",
          "type": "bool"
        }
      ],
      "stateMutability": "view",
      "type": "function"
    },
    {
      "inputs": [
        {
          "components": [
            {
              "components": [
                {
                  "internalType": "bytes32",
                  "name": "asset",
                  "type": "bytes32"
                },
                {
                  "internalType": "uint256",
                  "name": "price",
                  "type": "uint256"
                }
              ],
              "internalType": "struct SolvencyFacetProd.AssetPrice[]",
              "name": "ownedAssetsPrices",
              "type": "tuple[]"
            },
            {
              "components": [
                {
                  "internalType": "bytes32",
                  "name": "asset",
                  "type": "bytes32"
                },
                {
                  "internalType": "uint256",
                  "name": "price",
                  "type": "uint256"
                }
              ],
              "internalType": "struct SolvencyFacetProd.AssetPrice[]",
              "name": "debtAssetsPrices",
              "type": "tuple[]"
            },
            {
              "components": [
                {
                  "internalType": "bytes32",
                  "name": "asset",
                  "type": "bytes32"
                },
                {
                  "internalType": "uint256",
                  "name": "price",
                  "type": "uint256"
                }
              ],
              "internalType": "struct SolvencyFacetProd.AssetPrice[]",
              "name": "stakedPositionsPrices",
              "type": "tuple[]"
            },
            {
              "components": [
                {
                  "internalType": "bytes32",
                  "name": "asset",
                  "type": "bytes32"
                },
                {
                  "internalType": "uint256",
                  "name": "price",
                  "type": "uint256"
                }
              ],
              "internalType": "struct SolvencyFacetProd.AssetPrice[]",
              "name": "assetsToRepayPrices",
              "type": "tuple[]"
            }
          ],
          "internalType": "struct SolvencyFacetProd.CachedPrices",
          "name": "cachedPrices",
          "type": "tuple"
        }
      ],
      "name": "isSolventWithPrices",
      "outputs": [
        {
          "internalType": "bool",
          "name": "",
          "type": "bool"
        }
      ],
      "stateMutability": "view",
      "type": "function"
    },
    {
      "inputs": [
        {
          "internalType": "uint256",
          "name": "receivedTimestampMilliseconds",
          "type": "uint256"
        }
      ],
      "name": "validateTimestamp",
      "outputs": [],
      "stateMutability": "view",
      "type": "function"
    }
  ],
  "transactionHash": "0xf6b3bc7f36eb240ac38caec1cf6c12fcd1291d1855104d735e590051db968a2d",
  "args": [],
  "numDeployments": 3,
  "solcInputHash": "4189fcbc2823c20856a851b757c21c8f",
  "bytecode": "0x608060405234801561001057600080fd5b5061539f806100206000396000f3fe608060405234801561001057600080fd5b50600436106101cf5760003560e01c806398d6dbee11610104578063caa648b4116100a2578063ecd658b411610071578063ecd658b4146105ac578063f50b2efe146105ca578063f90c4924146105e6578063fd4344cd14610604576101cf565b8063caa648b414610522578063d378d94e14610540578063d44e282b1461055e578063e28a5ad31461057c576101cf565b8063b24ebfcc116100de578063b24ebfcc14610462578063c32f5bfd14610492578063c3abc376146104c2578063c453e8c2146104f2576101cf565b806398d6dbee146103f6578063a3aa8d1e14610414578063a7ef708214610444576101cf565b80634295d2e5116101715780637914334f1161014b5780637914334f1461036c5780637a70bcce1461038a5780638be3471a146103ba5780638f59b7a9146103d8576101cf565b80634295d2e5146102ee578063465a1ae31461031e5780635ce239501461034e576101cf565b8063360398a3116101ad578063360398a3146102525780633942a52e146102825780633a264d10146102a05780633ce142f5146102be576101cf565b806314a6bf0f146101d457806326ee4836146101f257806331d98b3f14610222575b600080fd5b6101dc610622565b6040516101e99190613c69565b60405180910390f35b61020c60048036038101906102079190613e27565b61063e565b6040516102199190613f2e565b60405180910390f35b61023c60048036038101906102379190613f50565b610650565b6040516102499190613c69565b60405180910390f35b61026c600480360381019061026791906141ae565b610662565b6040516102799190613c69565b60405180910390f35b61028a6106e5565b6040516102979190614212565b60405180910390f35b6102a86109b0565b6040516102b5919061431a565b60405180910390f35b6102d860048036038101906102d3919061439a565b610aae565b6040516102e591906143e3565b60405180910390f35b610308600480360381019061030391906143fe565b610c82565b6040516103159190613c69565b60405180910390f35b610338600480360381019061033391906143fe565b610c94565b6040516103459190613c69565b60405180910390f35b610356610f08565b6040516103639190614212565b60405180910390f35b610374610f22565b6040516103819190613c69565b60405180910390f35b6103a4600480360381019061039f9190614447565b610ffb565b6040516103b19190613c69565b60405180910390f35b6103c2611021565b6040516103cf919061431a565b60405180910390f35b6103e06111d8565b6040516103ed9190613c69565b60405180910390f35b6103fe6111f4565b60405161040b919061456e565b60405180910390f35b61042e60048036038101906104299190613e27565b61133b565b60405161043b9190614677565b60405180910390f35b61044c6116d7565b6040516104599190613c69565b60405180910390f35b61047c6004803603810190610477919061475c565b6116f3565b6040516104899190613c69565b60405180910390f35b6104ac60048036038101906104a791906143fe565b611705565b6040516104b99190613c69565b60405180910390f35b6104dc60048036038101906104d791906141ae565b611717565b6040516104e99190614212565b60405180910390f35b61050c60048036038101906105079190614447565b611734565b6040516105199190613c69565b60405180910390f35b61052a611748565b6040516105379190613c69565b60405180910390f35b610548611769565b604051610555919061431a565b60405180910390f35b610566611867565b6040516105739190614829565b60405180910390f35b610596600480360381019061059191906143fe565b6118cc565b6040516105a39190613c69565b60405180910390f35b6105b46118de565b6040516105c1919061456e565b60405180910390f35b6105e460048036038101906105df9190614844565b611966565b005b6105ee611972565b6040516105fb91906143e3565b60405180910390f35b61060c61197b565b6040516106199190613c69565b60405180910390f35b60008061062d6109b0565b9050610638816119a5565b91505090565b606061064982611c5f565b9050919050565b600061065b82611c71565b9050919050565b60008061067283602001516118cc565b9050600061068884600001518560400151611734565b9050600082036106bc577fffffffffffffffffffffffffffffffffffffffffffffffffffffffffffffffff925050506106e0565b81670de0b6b3a7640000826106d191906148a0565b6106db9190614911565b925050505b919050565b6000806106f0611d0d565b905060008173ffffffffffffffffffffffffffffffffffffffff166366273c196040518163ffffffff1660e01b8152600401600060405180830381865afa15801561073f573d6000803e3d6000fd5b505050506040513d6000823e3d601f19601f8201168201806040525081019061076891906149ee565b905060005b81518110156109a5576000610780611d0d565b73ffffffffffffffffffffffffffffffffffffffff16630edc25b68484815181106107ae576107ad614a37565b5b60200260200101516040518263ffffffff1660e01b81526004016107d29190614a75565b602060405180830381865afa1580156107ef573d6000803e3d6000fd5b505050506040513d601f19601f820116820180604052508101906108139190614aa5565b905060008173ffffffffffffffffffffffffffffffffffffffff16639d76ea586040518163ffffffff1660e01b8152600401602060405180830381865afa158015610862573d6000803e3d6000fd5b505050506040513d601f19601f820116820180604052508101906108869190614b10565b90508173ffffffffffffffffffffffffffffffffffffffff16636011163e306040518263ffffffff1660e01b81526004016108c19190614b4c565b602060405180830381865afa1580156108de573d6000803e3d6000fd5b505050506040513d601f19601f820116820180604052508101906109029190614b7c565b8173ffffffffffffffffffffffffffffffffffffffff166370a08231306040518263ffffffff1660e01b815260040161093b9190614b4c565b602060405180830381865afa158015610958573d6000803e3d6000fd5b505050506040513d601f19601f8201168201806040525081019061097c9190614b7c565b1015610990576000955050505050506109ad565b5050808061099d90614ba9565b91505061076d565b506001925050505b90565b606060006109bc6118de565b905060006109c982611c5f565b9050805167ffffffffffffffff8111156109e6576109e5613cae565b5b604051908082528060200260200182016040528015610a1f57816020015b610a0c613be9565b815260200190600190039081610a045790505b50925060005b8151811015610aa8576040518060400160405280848381518110610a4c57610a4b614a37565b5b60200260200101518152602001838381518110610a6c57610a6b614a37565b5b6020026020010151815250848281518110610a8a57610a89614a37565b5b60200260200101819052508080610aa090614ba9565b915050610a25565b50505090565b6000731ea62d73edf8ac05dfcea1a34b9796e937a29eff73ffffffffffffffffffffffffffffffffffffffff168273ffffffffffffffffffffffffffffffffffffffff1603610b005760009050610c7d565b732c59617248994d12816ee1fa77ce0a64eeb456bf73ffffffffffffffffffffffffffffffffffffffff168273ffffffffffffffffffffffffffffffffffffffff1603610b505760019050610c7d565b7312470f7aba85c8b81d63137dd5925d6ee114952b73ffffffffffffffffffffffffffffffffffffffff168273ffffffffffffffffffffffffffffffffffffffff1603610ba05760029050610c7d565b73109b4a318a4f5ddcbca6349b45f881b4137deafb73ffffffffffffffffffffffffffffffffffffffff168273ffffffffffffffffffffffffffffffffffffffff1603610bf05760039050610c7d565b7383cba8c619fb629b81a65c2e67fe15cf3e3c974773ffffffffffffffffffffffffffffffffffffffff168273ffffffffffffffffffffffffffffffffffffffff1603610c405760049050610c7d565b816040517fec459bc0000000000000000000000000000000000000000000000000000000008152600401610c749190614b4c565b60405180910390fd5b919050565b6000610c8d82611d29565b9050919050565b60008082511115610efe576000610ca9611d0d565b905060006305f5e10084600081518110610cc657610cc5614a37565b5b60200260200101516020015147610cdd91906148a0565b610ce79190614911565b905060005b8451811015610ef35760008373ffffffffffffffffffffffffffffffffffffffff166325eb876f878481518110610d2657610d25614a37565b5b60200260200101516000015160016040518363ffffffff1660e01b8152600401610d51929190614bf1565b602060405180830381865afa158015610d6e573d6000803e3d6000fd5b505050506040513d601f19601f82011682018060405250810190610d929190614aa5565b905060008173ffffffffffffffffffffffffffffffffffffffff166370a08231306040518263ffffffff1660e01b8152600401610dcf9190614b4c565b602060405180830381865afa158015610dec573d6000803e3d6000fd5b505050506040513d601f19601f82011682018060405250810190610e109190614b7c565b90508173ffffffffffffffffffffffffffffffffffffffff1663313ce5676040518163ffffffff1660e01b8152600401602060405180830381865afa158015610e5d573d6000803e3d6000fd5b505050506040513d601f19601f82011682018060405250810190610e819190614c46565b600a610e8d9190614da6565b816402540be400898681518110610ea757610ea6614a37565b5b602002602001015160200151610ebd91906148a0565b610ec791906148a0565b610ed19190614911565b84610edc9190614df1565b935050508080610eeb90614ba9565b915050610cec565b508092505050610f03565b600090505b919050565b6000670de0b6b3a7640000610f1b610f22565b1015905090565b600080610f77600067ffffffffffffffff811115610f4357610f42613cae565b5b604051908082528060200260200182016040528015610f715781602001602082028036833780820191505090505b5061133b565b90506000610f8882602001516118cc565b90506000610f9e83600001518460400151611734565b905060008203610fd3577fffffffffffffffffffffffffffffffffffffffffffffffffffffffffffffffff9350505050610ff8565b81670de0b6b3a764000082610fe891906148a0565b610ff29190614911565b93505050505b90565b600061100682610c82565b61100f84611705565b6110199190614df1565b905092915050565b6060600061102d61207e565b90506000818054905067ffffffffffffffff81111561104f5761104e613cae565b5b60405190808252806020026020018201604052801561107d5781602001602082028036833780820191505090505b50905060005b82805490508110156110e6578281815481106110a2576110a1614a37565b5b9060005260206000209060030201600101548282815181106110c7576110c6614a37565b5b60200260200101818152505080806110de90614ba9565b915050611083565b5060006110f282612090565b9050805167ffffffffffffffff81111561110f5761110e613cae565b5b60405190808252806020026020018201604052801561114857816020015b611135613be9565b81526020019060019003908161112d5790505b50935060005b81518110156111d157604051806040016040528084838151811061117557611174614a37565b5b6020026020010151815260200183838151811061119557611194614a37565b5b60200260200101518152508582815181106111b3576111b2614a37565b5b602002602001018190525080806111c990614ba9565b91505061114e565b5050505090565b6000806111e3611769565b90506111ee81610c94565b91505090565b606060006112006122e1565b9050600061120c612354565b905060006112198261237c565b611230576001835161122b9190614df1565b611233565b82515b905060008167ffffffffffffffff81111561125157611250613cae565b5b60405190808252806020026020018201604052801561127f5781602001602082028036833780820191505090505b5090506000838260008151811061129957611298614a37565b5b60200260200101818152505060005b855181101561132f57848682815181106112c5576112c4614a37565b5b60200260200101511461131c576001826112df9190614df1565b91508581815181106112f4576112f3614a37565b5b602002602001015183838151811061130f5761130e614a37565b5b6020026020010181815250505b808061132790614ba9565b9150506112a8565b50819550505050505090565b611343613c06565b600061134d6111f4565b905060006113596118de565b905060006113656123a7565b90506000855182518451865161137b9190614df1565b6113859190614df1565b61138f9190614df1565b67ffffffffffffffff8111156113a8576113a7613cae565b5b6040519080825280602002602001820160405280156113d65781602001602082028036833780820191505090505b50905060006113e8828683885161246f565b8451816113f59190614df1565b9050611404828583875161246f565b8351816114119190614df1565b9050611420828483865161246f565b82518161142d9190614df1565b905061143c8288838a5161246f565b600061144783612090565b9050600091506000865167ffffffffffffffff81111561146a57611469613cae565b5b6040519080825280602002602001820160405280156114a357816020015b611490613be9565b8152602001906001900390816114885790505b5090506114b4818584868b5161256c565b8651836114c19190614df1565b92506000865167ffffffffffffffff8111156114e0576114df613cae565b5b60405190808252806020026020018201604052801561151957816020015b611506613be9565b8152602001906001900390816114fe5790505b50905061152a818685878b5161256c565b8051846115379190614df1565b93506000865167ffffffffffffffff81111561155657611555613cae565b5b60405190808252806020026020018201604052801561158f57816020015b61157c613be9565b8152602001906001900390816115745790505b5090506115a0818786888b5161256c565b8651856115ad9190614df1565b945060008b5167ffffffffffffffff8111156115cc576115cb613cae565b5b60405190808252806020026020018201604052801561160557816020015b6115f2613be9565b8152602001906001900390816115ea5790505b50905060005b8c518110156116a457604051806040016040528089898461162c9190614df1565b8151811061163d5761163c614a37565b5b602002602001015181526020018789846116579190614df1565b8151811061166857611667614a37565b5b602002602001015181525082828151811061168657611685614a37565b5b6020026020010181905250808061169c90614ba9565b91505061160b565b506040518060800160405280858152602001848152602001838152602001828152509a5050505050505050505050919050565b6000806116e2611021565b90506116ed81611d29565b91505090565b60006116fe82612735565b9050919050565b600061171082610c94565b9050919050565b6000670de0b6b3a764000061172b83610662565b10159050919050565b60006117408383612747565b905092915050565b60006117526116d7565b61175a6111d8565b6117649190614df1565b905090565b606060006117756111f4565b9050600061178282611c5f565b9050815167ffffffffffffffff81111561179f5761179e613cae565b5b6040519080825280602002602001820160405280156117d857816020015b6117c5613be9565b8152602001906001900390816117bd5790505b50925060005b825181101561186157604051806040016040528084838151811061180557611804614a37565b5b6020026020010151815260200183838151811061182557611824614a37565b5b602002602001015181525084828151811061184357611842614a37565b5b6020026020010181905250808061185990614ba9565b9150506117de565b50505090565b61186f613c2e565b6040518060a00160405280611882611748565b815260200161188f610622565b815260200161189c61197b565b81526020016118a9610f22565b81526020016118b6610f08565b6118c15760006118c4565b60015b815250905090565b60006118d7826119a5565b9050919050565b606060006118ea611d0d565b90508073ffffffffffffffffffffffffffffffffffffffff166366273c196040518163ffffffff1660e01b8152600401600060405180830381865afa158015611937573d6000803e3d6000fd5b505050506040513d6000823e3d601f19601f8201168201806040525081019061196091906149ee565b91505090565b61196f8161276d565b50565b60006003905090565b600080611986611769565b90506000611992611021565b905061199e8282612747565b9250505090565b6000806119b0611d0d565b90506000805b8451811015611c545760008373ffffffffffffffffffffffffffffffffffffffff166325eb876f8784815181106119f0576119ef614a37565b5b60200260200101516000015160016040518363ffffffff1660e01b8152600401611a1b929190614bf1565b602060405180830381865afa158015611a38573d6000803e3d6000fd5b505050506040513d601f19601f82011682018060405250810190611a5c9190614aa5565b905060008473ffffffffffffffffffffffffffffffffffffffff16630edc25b6888581518110611a8f57611a8e614a37565b5b6020026020010151600001516040518263ffffffff1660e01b8152600401611ab79190614a75565b602060405180830381865afa158015611ad4573d6000803e3d6000fd5b505050506040513d601f19601f82011682018060405250810190611af89190614aa5565b90508173ffffffffffffffffffffffffffffffffffffffff1663313ce5676040518163ffffffff1660e01b8152600401602060405180830381865afa158015611b45573d6000803e3d6000fd5b505050506040513d601f19601f82011682018060405250810190611b699190614c46565b600a611b759190614da6565b6402540be400888581518110611b8e57611b8d614a37565b5b6020026020010151602001518373ffffffffffffffffffffffffffffffffffffffff16636011163e306040518263ffffffff1660e01b8152600401611bd39190614b4c565b602060405180830381865afa158015611bf0573d6000803e3d6000fd5b505050506040513d601f19601f82011682018060405250810190611c149190614b7c565b611c1e91906148a0565b611c2891906148a0565b611c329190614911565b84611c3d9190614df1565b935050508080611c4c90614ba9565b9150506119b6565b508092505050919050565b6060611c6a82612837565b9050919050565b600080600167ffffffffffffffff811115611c8f57611c8e613cae565b5b604051908082528060200260200182016040528015611cbd5781602001602082028036833780820191505090505b5090508281600081518110611cd557611cd4614a37565b5b602002602001018181525050611cea81611c5f565b600081518110611cfd57611cfc614a37565b5b6020026020010151915050919050565b600073f3978209b7cff2b90100c6f87cec77de928ed58e905090565b600080611d3461207e565b90506000805b828054905081101561207357828181548110611d5957611d58614a37565b5b906000526020600020906003020160010154858281518110611d7e57611d7d614a37565b5b60200260200101516000015114611dca576040517f08c379a0000000000000000000000000000000000000000000000000000000008152600401611dc190614e82565b60405180910390fd5b6000803073ffffffffffffffffffffffffffffffffffffffff16858481548110611df757611df6614a37565b5b906000526020600020906003020160020160009054906101000a900460e01b604051602401604051602081830303815290604052907bffffffffffffffffffffffffffffffffffffffffffffffffffffffff19166020820180517bffffffffffffffffffffffffffffffffffffffffffffffffffffffff8381831617835250505050604051611e869190614f13565b600060405180830381855afa9150503d8060008114611ec1576040519150601f19603f3d011682016040523d82523d6000602084013e611ec6565b606091505b5091509150811561205e57600081806020019051810190611ee79190614b7c565b90506000611ef3611d0d565b73ffffffffffffffffffffffffffffffffffffffff166325eb876f8a8781518110611f2157611f20614a37565b5b60200260200101516000015160016040518363ffffffff1660e01b8152600401611f4c929190614bf1565b602060405180830381865afa158015611f69573d6000803e3d6000fd5b505050506040513d601f19601f82011682018060405250810190611f8d9190614aa5565b90508073ffffffffffffffffffffffffffffffffffffffff1663313ce5676040518163ffffffff1660e01b8152600401602060405180830381865afa158015611fda573d6000803e3d6000fd5b505050506040513d601f19601f82011682018060405250810190611ffe9190614c46565b600a61200a9190614da6565b826402540be4008b888151811061202457612023614a37565b5b60200260200101516020015161203a91906148a0565b61204491906148a0565b61204e9190614911565b866120599190614df1565b955050505b5050808061206b90614ba9565b915050611d3a565b508092505050919050565b6000612088612a46565b600701905090565b60606000825167ffffffffffffffff8111156120af576120ae613cae565b5b6040519080825280602002602001820160405280156120dd5781602001602082028036833780820191505090505b5090506000806000905060005b85518110156121bb576000925060005b828110156121595786828151811061211557612114614a37565b5b60200260200101518582815181106121305761212f614a37565b5b6020026020010151036121465760019350612159565b808061215190614ba9565b9150506120fa565b50826121a85785818151811061217257612171614a37565b5b602002602001015184838151811061218d5761218c614a37565b5b60200260200101818152505081806121a490614ba9565b9250505b80806121b390614ba9565b9150506120ea565b5080835260006121ca84611c5f565b90506000865167ffffffffffffffff8111156121e9576121e8613cae565b5b6040519080825280602002602001820160405280156122175781602001602082028036833780820191505090505b50905060005b87518110156122d35760005b86518110156122bf5786818151811061224557612244614a37565b5b60200260200101518983815181106122605761225f614a37565b5b6020026020010151036122ac578381815181106122805761227f614a37565b5b602002602001015183838151811061229b5761229a614a37565b5b6020026020010181815250506122bf565b80806122b790614ba9565b915050612229565b5080806122cb90614ba9565b91505061221d565b508095505050505050919050565b606060006122ed612a46565b90508060040160000160000160000160000180548060200260200160405190810160405280929190818152602001828054801561234957602002820191906000526020600020905b815481526020019060010190808311612335575b505050505091505090565b60007f4156415800000000000000000000000000000000000000000000000000000000905090565b600080612387612a46565b905061239f8382600401612a7390919063ffffffff16565b915050919050565b606060006123b361207e565b9050808054905067ffffffffffffffff8111156123d3576123d2613cae565b5b6040519080825280602002602001820160405280156124015781602001602082028036833780820191505090505b50915060005b818054905081101561246a5781818154811061242657612425614a37565b5b90600052602060002090600302016001015483828151811061244b5761244a614a37565b5b602002602001018181525050808061246290614ba9565b915050612407565b505090565b82518111156124b3576040517f08c379a00000000000000000000000000000000000000000000000000000000081526004016124aa90614f9c565b60405180910390fd5b835181836124c19190614df1565b1115612502576040517f08c379a00000000000000000000000000000000000000000000000000000000081526004016124f99061502e565b60405180910390fd5b60005b81811015612565578381815181106125205761251f614a37565b5b60200260200101518584836125359190614df1565b8151811061254657612545614a37565b5b602002602001018181525050808061255d90614ba9565b915050612505565b5050505050565b83518111156125b0576040517f08c379a00000000000000000000000000000000000000000000000000000000081526004016125a7906150c0565b60405180910390fd5b82518111156125f4576040517f08c379a00000000000000000000000000000000000000000000000000000000081526004016125eb90615152565b60405180910390fd5b835181836126029190614df1565b1115612643576040517f08c379a000000000000000000000000000000000000000000000000000000000815260040161263a906151e4565b60405180910390fd5b825181836126519190614df1565b1115612692576040517f08c379a000000000000000000000000000000000000000000000000000000000815260040161268990615276565b60405180910390fd5b60005b8181101561272d5760405180604001604052808685846126b59190614df1565b815181106126c6576126c5614a37565b5b602002602001015181526020018585846126e09190614df1565b815181106126f1576126f0614a37565b5b602002602001015181525086828151811061270f5761270e614a37565b5b6020026020010181905250808061272590614ba9565b915050612695565b505050505050565b600061274082612a8a565b9050919050565b600061275282612b7e565b61275b84612fa7565b6127659190614df1565b905092915050565b60006103e88261277d9190614911565b9050804210156127df57603c42826127959190615296565b11156127da5780426040517fb6b0916d0000000000000000000000000000000000000000000000000000000081526004016127d19291906152ca565b60405180910390fd5b612833565b60b481426127ed9190615296565b11156128325780426040517f0321d0b50000000000000000000000000000000000000000000000000000000081526004016128299291906152ca565b60405180910390fd5b5b5050565b60606000825167ffffffffffffffff81111561285657612855613cae565b5b6040519080825280602002602001820160405280156128845781602001602082028036833780820191505090505b5090506000835167ffffffffffffffff8111156128a4576128a3613cae565b5b6040519080825280602002602001820160405280156128d25781602001602082028036833780820191505090505b5090506000845167ffffffffffffffff8111156128f2576128f1613cae565b5b60405190808252806020026020018201604052801561292557816020015b60608152602001906001900390816129105790505b50905060005b85518110156129b85761293c611972565b60ff1667ffffffffffffffff81111561295857612957613cae565b5b6040519080825280602002602001820160405280156129865781602001602082028036833780820191505090505b5082828151811061299a57612999614a37565b5b602002602001018190525080806129b090614ba9565b91505061292b565b5060006129c36133a3565b905060006129d0826134b4565b61ffff1690506002826129e39190614df1565b91506000604051905060005b82811015612a2e576000612a068a89898989613510565b90508085612a149190614df1565b945082604052508080612a2690614ba9565b9150506129ef565b50612a398487613808565b9650505050505050919050565b6000807f8d5bb42e0ac1496a2c326edc9c00758985246e6c2bb146d6c2f4a0d509e0960a90508091505090565b6000612a828360000183613955565b905092915050565b600080825103612ac6576040517f9e198af900000000000000000000000000000000000000000000000000000000815260040160405180910390fd5b612acf82613975565b600060028351612adf9190614911565b9050600060028451612af191906152f3565b03612b5a576000612b4284600184612b099190615296565b81518110612b1a57612b19614a37565b5b6020026020010151858481518110612b3557612b34614a37565b5b60200260200101516139c8565b9050600281612b519190614911565b92505050612b79565b828181518110612b6d57612b6c614a37565b5b60200260200101519150505b919050565b600080612b89611d0d565b90506000612b9561207e565b90506000805b8280549050811015612f9b57828181548110612bba57612bb9614a37565b5b906000526020600020906003020160010154868281518110612bdf57612bde614a37565b5b60200260200101516000015114612c2b576040517f08c379a0000000000000000000000000000000000000000000000000000000008152600401612c2290614e82565b60405180910390fd5b6000803073ffffffffffffffffffffffffffffffffffffffff16858481548110612c5857612c57614a37565b5b906000526020600020906003020160020160009054906101000a900460e01b604051602401604051602081830303815290604052907bffffffffffffffffffffffffffffffffffffffffffffffffffffffff19166020820180517bffffffffffffffffffffffffffffffffffffffffffffffffffffffff8381831617835250505050604051612ce79190614f13565b600060405180830381855afa9150503d8060008114612d22576040519150601f19603f3d011682016040523d82523d6000602084013e612d27565b606091505b50915091508115612f8657600081806020019051810190612d489190614b7c565b90506000612d54611d0d565b73ffffffffffffffffffffffffffffffffffffffff166325eb876f8b8781518110612d8257612d81614a37565b5b60200260200101516000015160016040518363ffffffff1660e01b8152600401612dad929190614bf1565b602060405180830381865afa158015612dca573d6000803e3d6000fd5b505050506040513d601f19601f82011682018060405250810190612dee9190614aa5565b90506305f5e1008173ffffffffffffffffffffffffffffffffffffffff1663313ce5676040518163ffffffff1660e01b8152600401602060405180830381865afa158015612e40573d6000803e3d6000fd5b505050506040513d601f19601f82011682018060405250810190612e649190614c46565b600a612e709190614da6565b612e7a91906148a0565b8873ffffffffffffffffffffffffffffffffffffffff16636953c06c898881548110612ea957612ea8614a37565b5b906000526020600020906003020160000160009054906101000a900473ffffffffffffffffffffffffffffffffffffffff166040518263ffffffff1660e01b8152600401612ef79190614b4c565b602060405180830381865afa158015612f14573d6000803e3d6000fd5b505050506040513d601f19601f82011682018060405250810190612f389190614b7c565b838c8881518110612f4c57612f4b614a37565b5b602002602001015160200151612f6291906148a0565b612f6c91906148a0565b612f769190614911565b86612f819190614df1565b955050505b50508080612f9390614ba9565b915050612b9b565b50809350505050919050565b600080612fb2612354565b90506000612fbe611d0d565b905060006a52b7d2dcc80cd2e40000008273ffffffffffffffffffffffffffffffffffffffff16636953c06c8473ffffffffffffffffffffffffffffffffffffffff166325eb876f8760016040518363ffffffff1660e01b8152600401613026929190614bf1565b602060405180830381865afa158015613043573d6000803e3d6000fd5b505050506040513d601f19601f820116820180604052508101906130679190614aa5565b6040518263ffffffff1660e01b81526004016130839190614b4c565b602060405180830381865afa1580156130a0573d6000803e3d6000fd5b505050506040513d601f19601f820116820180604052508101906130c49190614b7c565b47876000815181106130d9576130d8614a37565b5b6020026020010151602001516130ef91906148a0565b6130f991906148a0565b6131039190614911565b90506000855111156133985760005b85518110156133965760008373ffffffffffffffffffffffffffffffffffffffff166325eb876f88848151811061314c5761314b614a37565b5b60200260200101516000015160016040518363ffffffff1660e01b8152600401613177929190614bf1565b602060405180830381865afa158015613194573d6000803e3d6000fd5b505050506040513d601f19601f820116820180604052508101906131b89190614aa5565b90506305f5e1008173ffffffffffffffffffffffffffffffffffffffff1663313ce5676040518163ffffffff1660e01b8152600401602060405180830381865afa15801561320a573d6000803e3d6000fd5b505050506040513d601f19601f8201168201806040525081019061322e9190614c46565b600a61323a9190614da6565b61324491906148a0565b8473ffffffffffffffffffffffffffffffffffffffff16636953c06c836040518263ffffffff1660e01b815260040161327d9190614b4c565b602060405180830381865afa15801561329a573d6000803e3d6000fd5b505050506040513d601f19601f820116820180604052508101906132be9190614b7c565b8273ffffffffffffffffffffffffffffffffffffffff166370a08231306040518263ffffffff1660e01b81526004016132f79190614b4c565b602060405180830381865afa158015613314573d6000803e3d6000fd5b505050506040513d601f19601f820116820180604052508101906133389190614b7c565b89858151811061334b5761334a614a37565b5b60200260200101516020015161336191906148a0565b61336b91906148a0565b6133759190614911565b836133809190614df1565b925050808061338e90614ba9565b915050613112565b505b809350505050919050565b60008060203603356602ed57011e000081166602ed57011e000014915050806133f8576040517fe7764c9e00000000000000000000000000000000000000000000000000000000815260040160405180910390fd5b60008036905060291115613438576040517f5796f78a00000000000000000000000000000000000000000000000000000000815260040160405180910390fd5b602936033590506000600960038362ffffff166134559190614df1565b61345f9190614df1565b905060003690506002826134739190614df1565b11156134ab576040517fc30a7bd700000000000000000000000000000000000000000000000000000000815260040160405180910390fd5b80935050505090565b6000806020836134c49190614df1565b90506000369050811115613504576040517f5796f78a00000000000000000000000000000000000000000000000000000000815260040160405180910390fd5b80360335915050919050565b60008060008061351f856139de565b91509150600080600060606000600d61354d60208861353e9190614df1565b89613a5490919063ffffffff16565b6135579190614df1565b9050600061357e60688c61356b9190614df1565b6000369050613a6a90919063ffffffff16565b905060006135b08360418e6135939190614df1565b61359d9190614df1565b6000369050613a6a90919063ffffffff16565b90506135bc83826135ea565b9350826020850120945081359650613606565b60006040519050818152602081019050818101604052919050565b60006135f5836135cf565b838382376020810391505092915050565b6136178765ffffffffffff16611966565b61362d8560418e6136289190614df1565b613a80565b955061363886610aae565b60ff1699505050505050505060008060005b848110156137d35761365d888583613aff565b809350819450505060005b8c518110156137bf578c818151811061368457613683614a37565b5b602002602001015184036137ac5760008b82815181106136a7576136a6614a37565b5b602002602001015190506136bb8189613b85565b1580156136eb57506136cb611972565b60ff168d83815181106136e1576136e0614a37565b5b6020026020010151105b156137a6578c828151811061370357613702614a37565b5b60200260200101805180919061371890614ba9565b81525050838b83815181106137305761372f614a37565b5b602002602001015160018f858151811061374d5761374c614a37565b5b602002602001015161375f9190615296565b815181106137705761376f614a37565b5b6020026020010181815250506137868189613b9e565b8c838151811061379957613798614a37565b5b6020026020010181815250505b506137bf565b80806137b790614ba9565b915050613668565b5080806137cb90614ba9565b91505061364a565b505050816020826137e49190614df1565b6137ee91906148a0565b604e6137fa9190614df1565b935050505095945050505050565b60606000835167ffffffffffffffff81111561382757613826613cae565b5b6040519080825280602002602001820160405280156138555781602001602082028036833780820191505090505b5090506000613862611972565b60ff16905060005b8551811015613949578185828151811061388757613886614a37565b5b602002602001015110156138ee578481815181106138a8576138a7614a37565b5b6020026020010151826040517f2b13aef50000000000000000000000000000000000000000000000000000000081526004016138e59291906152ca565b60405180910390fd5b600061391387838151811061390657613905614a37565b5b60200260200101516116f3565b90508084838151811061392957613928614a37565b5b60200260200101818152505050808061394190614ba9565b91505061386a565b50819250505092915050565b600061396d8284600001613baf90919063ffffffff16565b905092915050565b805160208201602082028101815b818110156139c157825b818110156139b55781518151808210156139a8578084528183525b505060208101905061398d565b50602081019050613983565b5050505050565b600081836139d69190614df1565b905092915050565b60008060008060006041866139f39190614df1565b90506000613a1a602083613a079190614df1565b6000369050613a6a90919063ffffffff16565b905080359350613a34600382613a6a90919063ffffffff16565b9050803592508362ffffff1695508263ffffffff16945050505050915091565b60008183613a6291906148a0565b905092915050565b60008183613a789190615296565b905092915050565b6000806000808436038035935060208101905080359250602081019050803560001a91505060018682858560405160008152602001604052604051613ac89493929190615324565b6020604051602081039080840390855afa158015613aea573d6000803e3d6000fd5b50505060206040510351935050505092915050565b6000806000604e86613b119190614df1565b90506000613b52613b43602088613b289190614df1565b876001613b359190614df1565b613a5490919063ffffffff16565b836139c890919063ffffffff16565b90506000613b6d826000369050613a6a90919063ffffffff16565b90508035945060208101359350505050935093915050565b600080826001901b841690506000811191505092915050565b6000816001901b8317905092915050565b6000613bbe8360000183613bc6565b905092915050565b600080836001016000848152602001908152602001600020541415905092915050565b604051806040016040528060008019168152602001600081525090565b6040518060800160405280606081526020016060815260200160608152602001606081525090565b6040518060a00160405280600590602082028036833780820191505090505090565b6000819050919050565b613c6381613c50565b82525050565b6000602082019050613c7e6000830184613c5a565b92915050565b6000604051905090565b600080fd5b600080fd5b600080fd5b6000601f19601f8301169050919050565b7f4e487b7100000000000000000000000000000000000000000000000000000000600052604160045260246000fd5b613ce682613c9d565b810181811067ffffffffffffffff82111715613d0557613d04613cae565b5b80604052505050565b6000613d18613c84565b9050613d248282613cdd565b919050565b600067ffffffffffffffff821115613d4457613d43613cae565b5b602082029050602081019050919050565b600080fd5b6000819050919050565b613d6d81613d5a565b8114613d7857600080fd5b50565b600081359050613d8a81613d64565b92915050565b6000613da3613d9e84613d29565b613d0e565b90508083825260208201905060208402830185811115613dc657613dc5613d55565b5b835b81811015613def5780613ddb8882613d7b565b845260208401935050602081019050613dc8565b5050509392505050565b600082601f830112613e0e57613e0d613c98565b5b8135613e1e848260208601613d90565b91505092915050565b600060208284031215613e3d57613e3c613c8e565b5b600082013567ffffffffffffffff811115613e5b57613e5a613c93565b5b613e6784828501613df9565b91505092915050565b600081519050919050565b600082825260208201905092915050565b6000819050602082019050919050565b613ea581613c50565b82525050565b6000613eb78383613e9c565b60208301905092915050565b6000602082019050919050565b6000613edb82613e70565b613ee58185613e7b565b9350613ef083613e8c565b8060005b83811015613f21578151613f088882613eab565b9750613f1383613ec3565b925050600181019050613ef4565b5085935050505092915050565b60006020820190508181036000830152613f488184613ed0565b905092915050565b600060208284031215613f6657613f65613c8e565b5b6000613f7484828501613d7b565b91505092915050565b600080fd5b600080fd5b600067ffffffffffffffff821115613fa257613fa1613cae565b5b602082029050602081019050919050565b613fbc81613c50565b8114613fc757600080fd5b50565b600081359050613fd981613fb3565b92915050565b600060408284031215613ff557613ff4613f7d565b5b613fff6040613d0e565b9050600061400f84828501613d7b565b600083015250602061402384828501613fca565b60208301525092915050565b600061404261403d84613f87565b613d0e565b9050808382526020820190506040840283018581111561406557614064613d55565b5b835b8181101561408e578061407a8882613fdf565b845260208401935050604081019050614067565b5050509392505050565b600082601f8301126140ad576140ac613c98565b5b81356140bd84826020860161402f565b91505092915050565b6000608082840312156140dc576140db613f7d565b5b6140e66080613d0e565b9050600082013567ffffffffffffffff81111561410657614105613f82565b5b61411284828501614098565b600083015250602082013567ffffffffffffffff81111561413657614135613f82565b5b61414284828501614098565b602083015250604082013567ffffffffffffffff81111561416657614165613f82565b5b61417284828501614098565b604083015250606082013567ffffffffffffffff81111561419657614195613f82565b5b6141a284828501614098565b60608301525092915050565b6000602082840312156141c4576141c3613c8e565b5b600082013567ffffffffffffffff8111156141e2576141e1613c93565b5b6141ee848285016140c6565b91505092915050565b60008115159050919050565b61420c816141f7565b82525050565b60006020820190506142276000830184614203565b92915050565b600081519050919050565b600082825260208201905092915050565b6000819050602082019050919050565b61426281613d5a565b82525050565b60408201600082015161427e6000850182614259565b5060208201516142916020850182613e9c565b50505050565b60006142a38383614268565b60408301905092915050565b6000602082019050919050565b60006142c78261422d565b6142d18185614238565b93506142dc83614249565b8060005b8381101561430d5781516142f48882614297565b97506142ff836142af565b9250506001810190506142e0565b5085935050505092915050565b6000602082019050818103600083015261433481846142bc565b905092915050565b600073ffffffffffffffffffffffffffffffffffffffff82169050919050565b60006143678261433c565b9050919050565b6143778161435c565b811461438257600080fd5b50565b6000813590506143948161436e565b92915050565b6000602082840312156143b0576143af613c8e565b5b60006143be84828501614385565b91505092915050565b600060ff82169050919050565b6143dd816143c7565b82525050565b60006020820190506143f860008301846143d4565b92915050565b60006020828403121561441457614413613c8e565b5b600082013567ffffffffffffffff81111561443257614431613c93565b5b61443e84828501614098565b91505092915050565b6000806040838503121561445e5761445d613c8e565b5b600083013567ffffffffffffffff81111561447c5761447b613c93565b5b61448885828601614098565b925050602083013567ffffffffffffffff8111156144a9576144a8613c93565b5b6144b585828601614098565b9150509250929050565b600081519050919050565b600082825260208201905092915050565b6000819050602082019050919050565b60006144f78383614259565b60208301905092915050565b6000602082019050919050565b600061451b826144bf565b61452581856144ca565b9350614530836144db565b8060005b8381101561456157815161454888826144eb565b975061455383614503565b925050600181019050614534565b5085935050505092915050565b600060208201905081810360008301526145888184614510565b905092915050565b600082825260208201905092915050565b60006145ac8261422d565b6145b68185614590565b93506145c183614249565b8060005b838110156145f25781516145d98882614297565b97506145e4836142af565b9250506001810190506145c5565b5085935050505092915050565b6000608083016000830151848203600086015261461c82826145a1565b9150506020830151848203602086015261463682826145a1565b9150506040830151848203604086015261465082826145a1565b9150506060830151848203606086015261466a82826145a1565b9150508091505092915050565b6000602082019050818103600083015261469181846145ff565b905092915050565b600067ffffffffffffffff8211156146b4576146b3613cae565b5b602082029050602081019050919050565b60006146d86146d384614699565b613d0e565b905080838252602082019050602084028301858111156146fb576146fa613d55565b5b835b8181101561472457806147108882613fca565b8452602084019350506020810190506146fd565b5050509392505050565b600082601f83011261474357614742613c98565b5b81356147538482602086016146c5565b91505092915050565b60006020828403121561477257614771613c8e565b5b600082013567ffffffffffffffff8111156147905761478f613c93565b5b61479c8482850161472e565b91505092915050565b600060059050919050565b600081905092915050565b6000819050919050565b6000602082019050919050565b6147db816147a5565b6147e581846147b0565b92506147f0826147bb565b8060005b838110156148215781516148088782613eab565b9650614813836147c5565b9250506001810190506147f4565b505050505050565b600060a08201905061483e60008301846147d2565b92915050565b60006020828403121561485a57614859613c8e565b5b600061486884828501613fca565b91505092915050565b7f4e487b7100000000000000000000000000000000000000000000000000000000600052601160045260246000fd5b60006148ab82613c50565b91506148b683613c50565b92508282026148c481613c50565b915082820484148315176148db576148da614871565b5b5092915050565b7f4e487b7100000000000000000000000000000000000000000000000000000000600052601260045260246000fd5b600061491c82613c50565b915061492783613c50565b925082614937576149366148e2565b5b828204905092915050565b60008151905061495181613d64565b92915050565b600061496a61496584613d29565b613d0e565b9050808382526020820190506020840283018581111561498d5761498c613d55565b5b835b818110156149b657806149a28882614942565b84526020840193505060208101905061498f565b5050509392505050565b600082601f8301126149d5576149d4613c98565b5b81516149e5848260208601614957565b91505092915050565b600060208284031215614a0457614a03613c8e565b5b600082015167ffffffffffffffff811115614a2257614a21613c93565b5b614a2e848285016149c0565b91505092915050565b7f4e487b7100000000000000000000000000000000000000000000000000000000600052603260045260246000fd5b614a6f81613d5a565b82525050565b6000602082019050614a8a6000830184614a66565b92915050565b600081519050614a9f8161436e565b92915050565b600060208284031215614abb57614aba613c8e565b5b6000614ac984828501614a90565b91505092915050565b6000614add8261433c565b9050919050565b614aed81614ad2565b8114614af857600080fd5b50565b600081519050614b0a81614ae4565b92915050565b600060208284031215614b2657614b25613c8e565b5b6000614b3484828501614afb565b91505092915050565b614b468161435c565b82525050565b6000602082019050614b616000830184614b3d565b92915050565b600081519050614b7681613fb3565b92915050565b600060208284031215614b9257614b91613c8e565b5b6000614ba084828501614b67565b91505092915050565b6000614bb482613c50565b91507fffffffffffffffffffffffffffffffffffffffffffffffffffffffffffffffff8203614be657614be5614871565b5b600182019050919050565b6000604082019050614c066000830185614a66565b614c136020830184614203565b9392505050565b614c23816143c7565b8114614c2e57600080fd5b50565b600081519050614c4081614c1a565b92915050565b600060208284031215614c5c57614c5b613c8e565b5b6000614c6a84828501614c31565b91505092915050565b60008160011c9050919050565b6000808291508390505b6001851115614cca57808604811115614ca657614ca5614871565b5b6001851615614cb55780820291505b8081029050614cc385614c73565b9450614c8a565b94509492505050565b600082614ce35760019050614d9f565b81614cf15760009050614d9f565b8160018114614d075760028114614d1157614d40565b6001915050614d9f565b60ff841115614d2357614d22614871565b5b8360020a915084821115614d3a57614d39614871565b5b50614d9f565b5060208310610133831016604e8410600b8410161715614d755782820a905083811115614d7057614d6f614871565b5b614d9f565b614d828484846001614c80565b92509050818404811115614d9957614d98614871565b5b81810290505b9392505050565b6000614db182613c50565b9150614dbc836143c7565b9250614de97fffffffffffffffffffffffffffffffffffffffffffffffffffffffffffffffff8484614cd3565b905092915050565b6000614dfc82613c50565b9150614e0783613c50565b9250828201905080821115614e1f57614e1e614871565b5b92915050565b600082825260208201905092915050565b7f506f736974696f6e2d70726963652073796d626f6c206d69736d617463682e00600082015250565b6000614e6c601f83614e25565b9150614e7782614e36565b602082019050919050565b60006020820190508181036000830152614e9b81614e5f565b9050919050565b600081519050919050565b600081905092915050565b60005b83811015614ed6578082015181840152602081019050614ebb565b60008484015250505050565b6000614eed82614ea2565b614ef78185614ead565b9350614f07818560208601614eb8565b80840191505092915050565b6000614f1f8284614ee2565b915081905092915050565b7f6e756d6265724f664974656d73203e20746172676574206172726179206c656e60008201527f6774680000000000000000000000000000000000000000000000000000000000602082015250565b6000614f86602383614e25565b9150614f9182614f2a565b604082019050919050565b60006020820190508181036000830152614fb581614f79565b9050919050565b7f6f6666736574202b206e756d6265724f664974656d73203e207461726765742060008201527f6172726179206c656e6774680000000000000000000000000000000000000000602082015250565b6000615018602c83614e25565b915061502382614fbc565b604082019050919050565b600060208201905081810360008301526150478161500b565b9050919050565b7f6e756d6265724f664974656d73203e20736f757263654173736574732061727260008201527f6179206c656e6774680000000000000000000000000000000000000000000000602082015250565b60006150aa602983614e25565b91506150b58261504e565b604082019050919050565b600060208201905081810360008301526150d98161509d565b9050919050565b7f6e756d6265724f664974656d73203e20736f757263655072696365732061727260008201527f6179206c656e6774680000000000000000000000000000000000000000000000602082015250565b600061513c602983614e25565b9150615147826150e0565b604082019050919050565b6000602082019050818103600083015261516b8161512f565b9050919050565b7f6f6666736574202b206e756d6265724f664974656d73203e20736f757263654160008201527f7373657473206172726179206c656e6774680000000000000000000000000000602082015250565b60006151ce603283614e25565b91506151d982615172565b604082019050919050565b600060208201905081810360008301526151fd816151c1565b9050919050565b7f6f6666736574202b206e756d6265724f664974656d73203e20736f757263655060008201527f7269636573206172726179206c656e6774680000000000000000000000000000602082015250565b6000615260603283614e25565b915061526b82615204565b604082019050919050565b6000602082019050818103600083015261528f81615253565b9050919050565b60006152a182613c50565b91506152ac83613c50565b92508282039050818111156152c4576152c3614871565b5b92915050565b60006040820190506152df6000830185613c5a565b6152ec6020830184613c5a565b9392505050565b60006152fe82613c50565b915061530983613c50565b925082615319576153186148e2565b5b828206905092915050565b60006080820190506153396000830187614a66565b61534660208301866143d4565b6153536040830185614a66565b6153606060830184614a66565b9594505050505056fea26469706673582212201756b195deebd2a066baf924576838a74fa4c800f4b5cf89b8485fc07eb2cae064736f6c63430008110033",
  "devdoc": {
    "kind": "dev",
    "methods": {
      "aggregateValues(uint256[])": {
        "details": "This function may be overriden by the child consumer contract. It should aggregate values from different signers to a single uint value. By default, it calculates the median value",
        "params": {
          "values": "An array of uint256 values from different signers"
        },
        "returns": {
          "_0": "Result of the aggregation in the form of a single number"
        }
      },
      "getAllPricesForLiquidation(bytes32[])": {
        "details": "This function uses the redstone-evm-connector*"
      },
      "getDebt()": {
        "details": "This function uses the redstone-evm-connector*"
      },
      "getDebtAssetsPrices()": {
        "details": "This function uses the redstone-evm-connector*"
      },
      "getHealthRatio()": {
        "details": "This function uses the redstone-evm-connector*"
      },
      "getOwnedAssetsWithNativePrices()": {
        "details": "This function uses the redstone-evm-connector*"
      },
      "getPrice(bytes32)": {
        "details": "This function uses the redstone-evm-connector*"
      },
      "getPrices(bytes32[])": {
        "details": "This function uses the redstone-evm-connector*"
      },
      "getStakedPositionsPrices()": {
        "details": "This function uses the redstone-evm-connector*"
      },
      "getStakedValue()": {
        "details": "This function uses the redstone-evm-connector*"
      },
      "getThresholdWeightedValue()": {
        "details": "This function uses the redstone-evm-connector*"
      },
      "getTotalAssetsValue()": {
        "details": "This function uses the redstone-evm-connector*"
      },
      "getTotalValue()": {
        "details": "This function uses the redstone-evm-connector*"
      },
      "getUniqueSignersThreshold()": {
        "details": "This function should be overriden by the child consumer contract.",
        "returns": {
          "_0": "The minimum required value of unique authorised signers"
        }
      },
      "isSolvent()": {
        "details": "This function uses the redstone-evm-connector*"
      },
      "isSolventWithPrices(((bytes32,uint256)[],(bytes32,uint256)[],(bytes32,uint256)[],(bytes32,uint256)[]))": {
        "params": {
          "cachedPrices": "Struct containing arrays of Asset/Price structs used to calculate value of owned assets, debt and staked positions*"
        }
      },
      "validateTimestamp(uint256)": {
        "details": "This function may be overriden by the child consumer contract. It should validate the timestamp against the current time (block.timestamp) It should revert with a helpful message if the timestamp is not valid",
        "params": {
          "receivedTimestampMilliseconds": "Timestamp extracted from calldata"
        }
      }
    },
    "version": 1
  },
  "userdoc": {
    "kind": "user",
    "methods": {
      "_getTotalAssetsValueBase((bytes32,uint256)[])": {
        "notice": "Returns the current value of Prime Account in USD including all tokens as well as staking and LP positions Uses provided AssetPrice struct array instead of extracting the pricing data from the calldata again.*"
      },
      "getAllPricesForLiquidation(bytes32[])": {
        "notice": "Returns CachedPrices struct consisting of Asset/Price arrays for ownedAssets, debtAssets, stakedPositions and assetsToRepay. Used during the liquidation process in order to obtain all necessary prices from calldata only once."
      },
      "getDebt()": {
        "notice": "Returns the current debt denominated in USD"
      },
      "getDebtAssets()": {
        "notice": "Returns an array of bytes32[] symbols of debt (borrowable) assets.*"
      },
      "getDebtAssetsPrices()": {
        "notice": "Returns an array of Asset/Price structs of debt (borrowable) assets."
      },
      "getDebtWithPrices((bytes32,uint256)[])": {
        "notice": "Returns the current debt denominated in USD Uses provided AssetPrice struct array instead of extracting the pricing data from the calldata again.*"
      },
      "getHealthRatio()": {
        "notice": "Returns current health ratio (solvency) associated with the loan, defined as threshold weighted value of divided by current debt"
      },
      "getHealthRatioWithPrices(((bytes32,uint256)[],(bytes32,uint256)[],(bytes32,uint256)[],(bytes32,uint256)[]))": {
        "notice": "Returns current health ratio (solvency) associated with the loan, defined as threshold weighted value of divided by current debt Uses provided AssetPrice struct arrays instead of extracting the pricing data from the calldata again.*"
      },
      "getOwnedAssetsWithNative()": {
        "notice": "Returns list of owned assets that always included NativeToken at index 0*"
      },
      "getOwnedAssetsWithNativePrices()": {
        "notice": "Returns an array of Asset/Price structs of enriched (always containing AVAX at index 0) owned assets."
      },
      "getPrice(bytes32)": {
        "notice": "Helper method exposing the redstone-evm-connector getOracleNumericValueFromTxMsg() method."
      },
      "getPrices(bytes32[])": {
        "notice": "Helper method exposing the redstone-evm-connector getOracleNumericValuesFromTxMsg() method."
      },
      "getStakedPositionsPrices()": {
        "notice": "Returns an array of Asset/Price structs of staked positions."
      },
      "getStakedValue()": {
        "notice": "Returns the current value of staked positions in USD."
      },
      "getStakedValueWithPrices((bytes32,uint256)[])": {
        "notice": "Returns the current value of staked positions in USD. Uses provided AssetPrice struct array instead of extracting the pricing data from the calldata again.*"
      },
      "getThresholdWeightedValue()": {
        "notice": "Returns the threshold weighted value of assets in USD including all tokens as well as staking and LP positions"
      },
      "getThresholdWeightedValueWithPrices((bytes32,uint256)[],(bytes32,uint256)[])": {
        "notice": "Returns the threshold weighted value of assets in USD including all tokens as well as staking and LP positions Uses provided AssetPrice struct arrays instead of extracting the pricing data from the calldata again.*"
      },
      "getTotalAssetsValue()": {
        "notice": "Returns the current value of Prime Account in USD including all tokens as well as staking and LP positions"
      },
      "getTotalAssetsValueWithPrices((bytes32,uint256)[])": {
        "notice": "Returns the current value of Prime Account in USD including all tokens as well as staking and LP positions Uses provided AssetPrice struct array instead of extracting the pricing data from the calldata again.*"
      },
      "getTotalValue()": {
        "notice": "Returns the current value of Prime Account in USD including all tokens as well as staking and LP positions"
      },
      "getTotalValueWithPrices((bytes32,uint256)[],(bytes32,uint256)[])": {
        "notice": "Returns the current value of Prime Account in USD including all tokens as well as staking and LP positions Uses provided AssetPrice struct arrays instead of extracting the pricing data from the calldata again.*"
      },
      "isSolvent()": {
        "notice": "Checks if the loan is solvent. It means that the Health Ratio is greater than 1e18."
      },
      "isSolventWithPrices(((bytes32,uint256)[],(bytes32,uint256)[],(bytes32,uint256)[],(bytes32,uint256)[]))": {
        "notice": "Checks if the loan is solvent. It means that the Health Ratio is greater than 1e18. Uses provided AssetPrice struct arrays instead of extracting the pricing data from the calldata again."
      }
    },
    "version": 1
  },
  "storageLayout": {
    "storage": [],
    "types": null
  }
}