{
  "address": "0x5550b29bEC7FbdF545E41895CD1732b5687205bb",
  "abi": [
    {
      "inputs": [],
      "name": "CalldataMustHaveValidPayload",
      "type": "error"
    },
    {
      "inputs": [],
      "name": "CalldataOverOrUnderFlow",
      "type": "error"
    },
    {
      "inputs": [],
      "name": "CanNotPickMedianOfEmptyArray",
      "type": "error"
    },
    {
      "inputs": [],
      "name": "EachSignerMustProvideTheSameValue",
      "type": "error"
    },
    {
      "inputs": [],
      "name": "EmptyCalldataPointersArr",
      "type": "error"
    },
    {
      "inputs": [],
      "name": "IncorrectUnsignedMetadataSize",
      "type": "error"
    },
    {
      "inputs": [
        {
          "internalType": "uint256",
          "name": "receviedSignersCount",
          "type": "uint256"
        },
        {
          "internalType": "uint256",
          "name": "requiredSignersCount",
          "type": "uint256"
        }
      ],
      "name": "InsufficientNumberOfUniqueSigners",
      "type": "error"
    },
    {
      "inputs": [],
      "name": "InvalidCalldataPointer",
      "type": "error"
    },
    {
      "inputs": [
        {
          "internalType": "address",
          "name": "receivedSigner",
          "type": "address"
        }
      ],
      "name": "SignerNotAuthorised",
      "type": "error"
    },
    {
      "inputs": [
        {
          "internalType": "uint256",
          "name": "receivedTimestampSeconds",
          "type": "uint256"
        },
        {
          "internalType": "uint256",
          "name": "blockTimestamp",
          "type": "uint256"
        }
      ],
      "name": "TimestampFromTooLongFuture",
      "type": "error"
    },
    {
      "inputs": [
        {
          "internalType": "uint256",
          "name": "receivedTimestampSeconds",
          "type": "uint256"
        },
        {
          "internalType": "uint256",
          "name": "blockTimestamp",
          "type": "uint256"
        }
      ],
      "name": "TimestampIsTooOld",
      "type": "error"
    },
    {
      "inputs": [
        {
          "components": [
            {
              "internalType": "bytes32",
              "name": "asset",
              "type": "bytes32"
            },
            {
              "internalType": "uint256",
              "name": "price",
              "type": "uint256"
            }
          ],
          "internalType": "struct SolvencyFacetProd.AssetPrice[]",
          "name": "ownedAssetsPrices",
          "type": "tuple[]"
        }
      ],
      "name": "_getTotalAssetsValueBase",
      "outputs": [
        {
          "internalType": "uint256",
          "name": "",
          "type": "uint256"
        }
      ],
      "stateMutability": "view",
      "type": "function"
    },
    {
      "inputs": [
        {
          "internalType": "uint256[]",
          "name": "values",
          "type": "uint256[]"
        }
      ],
      "name": "aggregateValues",
      "outputs": [
        {
          "internalType": "uint256",
          "name": "",
          "type": "uint256"
        }
      ],
      "stateMutability": "view",
      "type": "function"
    },
    {
      "inputs": [],
      "name": "canRepayDebtFully",
      "outputs": [
        {
          "internalType": "bool",
          "name": "",
          "type": "bool"
        }
      ],
      "stateMutability": "view",
      "type": "function"
    },
    {
      "inputs": [
        {
          "internalType": "bytes32[]",
          "name": "assetsToRepay",
          "type": "bytes32[]"
        }
      ],
      "name": "getAllPricesForLiquidation",
      "outputs": [
        {
          "components": [
            {
              "components": [
                {
                  "internalType": "bytes32",
                  "name": "asset",
                  "type": "bytes32"
                },
                {
                  "internalType": "uint256",
                  "name": "price",
                  "type": "uint256"
                }
              ],
              "internalType": "struct SolvencyFacetProd.AssetPrice[]",
              "name": "ownedAssetsPrices",
              "type": "tuple[]"
            },
            {
              "components": [
                {
                  "internalType": "bytes32",
                  "name": "asset",
                  "type": "bytes32"
                },
                {
                  "internalType": "uint256",
                  "name": "price",
                  "type": "uint256"
                }
              ],
              "internalType": "struct SolvencyFacetProd.AssetPrice[]",
              "name": "debtAssetsPrices",
              "type": "tuple[]"
            },
            {
              "components": [
                {
                  "internalType": "bytes32",
                  "name": "asset",
                  "type": "bytes32"
                },
                {
                  "internalType": "uint256",
                  "name": "price",
                  "type": "uint256"
                }
              ],
              "internalType": "struct SolvencyFacetProd.AssetPrice[]",
              "name": "stakedPositionsPrices",
              "type": "tuple[]"
            },
            {
              "components": [
                {
                  "internalType": "bytes32",
                  "name": "asset",
                  "type": "bytes32"
                },
                {
                  "internalType": "uint256",
                  "name": "price",
                  "type": "uint256"
                }
              ],
              "internalType": "struct SolvencyFacetProd.AssetPrice[]",
              "name": "assetsToRepayPrices",
              "type": "tuple[]"
            }
          ],
          "internalType": "struct SolvencyFacetProd.CachedPrices",
          "name": "result",
          "type": "tuple"
        }
      ],
      "stateMutability": "view",
      "type": "function"
    },
    {
      "inputs": [
        {
          "internalType": "address",
          "name": "signerAddress",
          "type": "address"
        }
      ],
      "name": "getAuthorisedSignerIndex",
      "outputs": [
        {
          "internalType": "uint8",
          "name": "",
          "type": "uint8"
        }
      ],
      "stateMutability": "view",
      "type": "function"
    },
    {
      "inputs": [],
      "name": "getDebt",
      "outputs": [
        {
          "internalType": "uint256",
          "name": "",
          "type": "uint256"
        }
      ],
      "stateMutability": "view",
      "type": "function"
    },
    {
      "inputs": [],
      "name": "getDebtAssets",
      "outputs": [
        {
          "internalType": "bytes32[]",
          "name": "result",
          "type": "bytes32[]"
        }
      ],
      "stateMutability": "view",
      "type": "function"
    },
    {
      "inputs": [],
      "name": "getDebtAssetsPrices",
      "outputs": [
        {
          "components": [
            {
              "internalType": "bytes32",
              "name": "asset",
              "type": "bytes32"
            },
            {
              "internalType": "uint256",
              "name": "price",
              "type": "uint256"
            }
          ],
          "internalType": "struct SolvencyFacetProd.AssetPrice[]",
          "name": "result",
          "type": "tuple[]"
        }
      ],
      "stateMutability": "view",
      "type": "function"
    },
    {
      "inputs": [
        {
          "components": [
            {
              "internalType": "bytes32",
              "name": "asset",
              "type": "bytes32"
            },
            {
              "internalType": "uint256",
              "name": "price",
              "type": "uint256"
            }
          ],
          "internalType": "struct SolvencyFacetProd.AssetPrice[]",
          "name": "debtAssetsPrices",
          "type": "tuple[]"
        }
      ],
      "name": "getDebtWithPrices",
      "outputs": [
        {
          "internalType": "uint256",
          "name": "",
          "type": "uint256"
        }
      ],
      "stateMutability": "view",
      "type": "function"
    },
    {
      "inputs": [],
      "name": "getFullLoanStatus",
      "outputs": [
        {
          "internalType": "uint256[5]",
          "name": "",
          "type": "uint256[5]"
        }
      ],
      "stateMutability": "view",
      "type": "function"
    },
    {
      "inputs": [],
      "name": "getHealthRatio",
      "outputs": [
        {
          "internalType": "uint256",
          "name": "",
          "type": "uint256"
        }
      ],
      "stateMutability": "view",
      "type": "function"
    },
    {
      "inputs": [
        {
          "components": [
            {
              "components": [
                {
                  "internalType": "bytes32",
                  "name": "asset",
                  "type": "bytes32"
                },
                {
                  "internalType": "uint256",
                  "name": "price",
                  "type": "uint256"
                }
              ],
              "internalType": "struct SolvencyFacetProd.AssetPrice[]",
              "name": "ownedAssetsPrices",
              "type": "tuple[]"
            },
            {
              "components": [
                {
                  "internalType": "bytes32",
                  "name": "asset",
                  "type": "bytes32"
                },
                {
                  "internalType": "uint256",
                  "name": "price",
                  "type": "uint256"
                }
              ],
              "internalType": "struct SolvencyFacetProd.AssetPrice[]",
              "name": "debtAssetsPrices",
              "type": "tuple[]"
            },
            {
              "components": [
                {
                  "internalType": "bytes32",
                  "name": "asset",
                  "type": "bytes32"
                },
                {
                  "internalType": "uint256",
                  "name": "price",
                  "type": "uint256"
                }
              ],
              "internalType": "struct SolvencyFacetProd.AssetPrice[]",
              "name": "stakedPositionsPrices",
              "type": "tuple[]"
            },
            {
              "components": [
                {
                  "internalType": "bytes32",
                  "name": "asset",
                  "type": "bytes32"
                },
                {
                  "internalType": "uint256",
                  "name": "price",
                  "type": "uint256"
                }
              ],
              "internalType": "struct SolvencyFacetProd.AssetPrice[]",
              "name": "assetsToRepayPrices",
              "type": "tuple[]"
            }
          ],
          "internalType": "struct SolvencyFacetProd.CachedPrices",
          "name": "cachedPrices",
          "type": "tuple"
        }
      ],
      "name": "getHealthRatioWithPrices",
      "outputs": [
        {
          "internalType": "uint256",
          "name": "",
          "type": "uint256"
        }
      ],
      "stateMutability": "view",
      "type": "function"
    },
    {
      "inputs": [],
      "name": "getOwnedAssetsWithNative",
      "outputs": [
        {
          "internalType": "bytes32[]",
          "name": "",
          "type": "bytes32[]"
        }
      ],
      "stateMutability": "view",
      "type": "function"
    },
    {
      "inputs": [],
      "name": "getOwnedAssetsWithNativePrices",
      "outputs": [
        {
          "components": [
            {
              "internalType": "bytes32",
              "name": "asset",
              "type": "bytes32"
            },
            {
              "internalType": "uint256",
              "name": "price",
              "type": "uint256"
            }
          ],
          "internalType": "struct SolvencyFacetProd.AssetPrice[]",
          "name": "result",
          "type": "tuple[]"
        }
      ],
      "stateMutability": "view",
      "type": "function"
    },
    {
      "inputs": [
        {
          "internalType": "bytes32",
          "name": "symbol",
          "type": "bytes32"
        }
      ],
      "name": "getPrice",
      "outputs": [
        {
          "internalType": "uint256",
          "name": "",
          "type": "uint256"
        }
      ],
      "stateMutability": "view",
      "type": "function"
    },
    {
      "inputs": [
        {
          "internalType": "bytes32[]",
          "name": "symbols",
          "type": "bytes32[]"
        }
      ],
      "name": "getPrices",
      "outputs": [
        {
          "internalType": "uint256[]",
          "name": "",
          "type": "uint256[]"
        }
      ],
      "stateMutability": "view",
      "type": "function"
    },
    {
      "inputs": [],
      "name": "getStakedPositionsPrices",
      "outputs": [
        {
          "components": [
            {
              "internalType": "bytes32",
              "name": "asset",
              "type": "bytes32"
            },
            {
              "internalType": "uint256",
              "name": "price",
              "type": "uint256"
            }
          ],
          "internalType": "struct SolvencyFacetProd.AssetPrice[]",
          "name": "result",
          "type": "tuple[]"
        }
      ],
      "stateMutability": "view",
      "type": "function"
    },
    {
      "inputs": [],
      "name": "getStakedValue",
      "outputs": [
        {
          "internalType": "uint256",
          "name": "",
          "type": "uint256"
        }
      ],
      "stateMutability": "view",
      "type": "function"
    },
    {
      "inputs": [
        {
          "components": [
            {
              "internalType": "bytes32",
              "name": "asset",
              "type": "bytes32"
            },
            {
              "internalType": "uint256",
              "name": "price",
              "type": "uint256"
            }
          ],
          "internalType": "struct SolvencyFacetProd.AssetPrice[]",
          "name": "stakedPositionsPrices",
          "type": "tuple[]"
        }
      ],
      "name": "getStakedValueWithPrices",
      "outputs": [
        {
          "internalType": "uint256",
          "name": "",
          "type": "uint256"
        }
      ],
      "stateMutability": "view",
      "type": "function"
    },
    {
      "inputs": [],
      "name": "getThresholdWeightedValue",
      "outputs": [
        {
          "internalType": "uint256",
          "name": "",
          "type": "uint256"
        }
      ],
      "stateMutability": "view",
      "type": "function"
    },
    {
      "inputs": [
        {
          "components": [
            {
              "internalType": "bytes32",
              "name": "asset",
              "type": "bytes32"
            },
            {
              "internalType": "uint256",
              "name": "price",
              "type": "uint256"
            }
          ],
          "internalType": "struct SolvencyFacetProd.AssetPrice[]",
          "name": "ownedAssetsPrices",
          "type": "tuple[]"
        },
        {
          "components": [
            {
              "internalType": "bytes32",
              "name": "asset",
              "type": "bytes32"
            },
            {
              "internalType": "uint256",
              "name": "price",
              "type": "uint256"
            }
          ],
          "internalType": "struct SolvencyFacetProd.AssetPrice[]",
          "name": "stakedPositionsPrices",
          "type": "tuple[]"
        }
      ],
      "name": "getThresholdWeightedValueWithPrices",
      "outputs": [
        {
          "internalType": "uint256",
          "name": "",
          "type": "uint256"
        }
      ],
      "stateMutability": "view",
      "type": "function"
    },
    {
      "inputs": [],
      "name": "getTotalAssetsValue",
      "outputs": [
        {
          "internalType": "uint256",
          "name": "",
          "type": "uint256"
        }
      ],
      "stateMutability": "view",
      "type": "function"
    },
    {
      "inputs": [
        {
          "components": [
            {
              "internalType": "bytes32",
              "name": "asset",
              "type": "bytes32"
            },
            {
              "internalType": "uint256",
              "name": "price",
              "type": "uint256"
            }
          ],
          "internalType": "struct SolvencyFacetProd.AssetPrice[]",
          "name": "ownedAssetsPrices",
          "type": "tuple[]"
        }
      ],
      "name": "getTotalAssetsValueWithPrices",
      "outputs": [
        {
          "internalType": "uint256",
          "name": "",
          "type": "uint256"
        }
      ],
      "stateMutability": "view",
      "type": "function"
    },
    {
      "inputs": [],
      "name": "getTotalValue",
      "outputs": [
        {
          "internalType": "uint256",
          "name": "",
          "type": "uint256"
        }
      ],
      "stateMutability": "view",
      "type": "function"
    },
    {
      "inputs": [
        {
          "components": [
            {
              "internalType": "bytes32",
              "name": "asset",
              "type": "bytes32"
            },
            {
              "internalType": "uint256",
              "name": "price",
              "type": "uint256"
            }
          ],
          "internalType": "struct SolvencyFacetProd.AssetPrice[]",
          "name": "ownedAssetsPrices",
          "type": "tuple[]"
        },
        {
          "components": [
            {
              "internalType": "bytes32",
              "name": "asset",
              "type": "bytes32"
            },
            {
              "internalType": "uint256",
              "name": "price",
              "type": "uint256"
            }
          ],
          "internalType": "struct SolvencyFacetProd.AssetPrice[]",
          "name": "stakedPositionsPrices",
          "type": "tuple[]"
        }
      ],
      "name": "getTotalValueWithPrices",
      "outputs": [
        {
          "internalType": "uint256",
          "name": "",
          "type": "uint256"
        }
      ],
      "stateMutability": "view",
      "type": "function"
    },
    {
      "inputs": [],
      "name": "getUniqueSignersThreshold",
      "outputs": [
        {
          "internalType": "uint8",
          "name": "",
          "type": "uint8"
        }
      ],
      "stateMutability": "view",
      "type": "function"
    },
    {
      "inputs": [],
      "name": "isSolvent",
      "outputs": [
        {
          "internalType": "bool",
          "name": "",
          "type": "bool"
        }
      ],
      "stateMutability": "view",
      "type": "function"
    },
    {
      "inputs": [
        {
          "components": [
            {
              "components": [
                {
                  "internalType": "bytes32",
                  "name": "asset",
                  "type": "bytes32"
                },
                {
                  "internalType": "uint256",
                  "name": "price",
                  "type": "uint256"
                }
              ],
              "internalType": "struct SolvencyFacetProd.AssetPrice[]",
              "name": "ownedAssetsPrices",
              "type": "tuple[]"
            },
            {
              "components": [
                {
                  "internalType": "bytes32",
                  "name": "asset",
                  "type": "bytes32"
                },
                {
                  "internalType": "uint256",
                  "name": "price",
                  "type": "uint256"
                }
              ],
              "internalType": "struct SolvencyFacetProd.AssetPrice[]",
              "name": "debtAssetsPrices",
              "type": "tuple[]"
            },
            {
              "components": [
                {
                  "internalType": "bytes32",
                  "name": "asset",
                  "type": "bytes32"
                },
                {
                  "internalType": "uint256",
                  "name": "price",
                  "type": "uint256"
                }
              ],
              "internalType": "struct SolvencyFacetProd.AssetPrice[]",
              "name": "stakedPositionsPrices",
              "type": "tuple[]"
            },
            {
              "components": [
                {
                  "internalType": "bytes32",
                  "name": "asset",
                  "type": "bytes32"
                },
                {
                  "internalType": "uint256",
                  "name": "price",
                  "type": "uint256"
                }
              ],
              "internalType": "struct SolvencyFacetProd.AssetPrice[]",
              "name": "assetsToRepayPrices",
              "type": "tuple[]"
            }
          ],
          "internalType": "struct SolvencyFacetProd.CachedPrices",
          "name": "cachedPrices",
          "type": "tuple"
        }
      ],
      "name": "isSolventWithPrices",
      "outputs": [
        {
          "internalType": "bool",
          "name": "",
          "type": "bool"
        }
      ],
      "stateMutability": "view",
      "type": "function"
    },
    {
      "inputs": [
        {
          "internalType": "uint256",
          "name": "receivedTimestampMilliseconds",
          "type": "uint256"
        }
      ],
      "name": "validateTimestamp",
      "outputs": [],
      "stateMutability": "view",
      "type": "function"
    }
  ],
  "transactionHash": "0xc26f33191167b8742d82356333329ac356483a44a4327228b13fccbdfe9a5032",
  "args": [],
  "numDeployments": 2,
  "solcInputHash": "05ee65db08456d97a7c820b4007dca51",
  "bytecode": "0x608060405234801561001057600080fd5b506155cf80620000216000396000f3fe608060405234801561001057600080fd5b50600436106101cf5760003560e01c806398d6dbee11610104578063caa648b4116100a2578063ecd658b411610071578063ecd658b4146105ac578063f50b2efe146105ca578063f90c4924146105e6578063fd4344cd14610604576101cf565b8063caa648b414610522578063d378d94e14610540578063d44e282b1461055e578063e28a5ad31461057c576101cf565b8063b24ebfcc116100de578063b24ebfcc14610462578063c32f5bfd14610492578063c3abc376146104c2578063c453e8c2146104f2576101cf565b806398d6dbee146103f6578063a3aa8d1e14610414578063a7ef708214610444576101cf565b80634295d2e5116101715780637914334f1161014b5780637914334f1461036c5780637a70bcce1461038a5780638be3471a146103ba5780638f59b7a9146103d8576101cf565b80634295d2e5146102ee578063465a1ae31461031e5780635ce239501461034e576101cf565b8063360398a3116101ad578063360398a3146102525780633942a52e146102825780633a264d10146102a05780633ce142f5146102be576101cf565b806314a6bf0f146101d457806326ee4836146101f257806331d98b3f14610222575b600080fd5b6101dc610622565b6040516101e99190613e99565b60405180910390f35b61020c60048036038101906102079190614057565b61063e565b604051610219919061415e565b60405180910390f35b61023c60048036038101906102379190614180565b610650565b6040516102499190613e99565b60405180910390f35b61026c600480360381019061026791906143de565b610662565b6040516102799190613e99565b60405180910390f35b61028a6106e5565b6040516102979190614442565b60405180910390f35b6102a86109b0565b6040516102b5919061454a565b60405180910390f35b6102d860048036038101906102d391906145ca565b610aae565b6040516102e59190614613565b60405180910390f35b6103086004803603810190610303919061462e565b610eb2565b6040516103159190613e99565b60405180910390f35b6103386004803603810190610333919061462e565b610ec4565b6040516103459190613e99565b60405180910390f35b610356611138565b6040516103639190614442565b60405180910390f35b610374611152565b6040516103819190613e99565b60405180910390f35b6103a4600480360381019061039f9190614677565b61122b565b6040516103b19190613e99565b60405180910390f35b6103c2611251565b6040516103cf919061454a565b60405180910390f35b6103e0611408565b6040516103ed9190613e99565b60405180910390f35b6103fe611424565b60405161040b919061479e565b60405180910390f35b61042e60048036038101906104299190614057565b61156b565b60405161043b91906148a7565b60405180910390f35b61044c611907565b6040516104599190613e99565b60405180910390f35b61047c6004803603810190610477919061498c565b611923565b6040516104899190613e99565b60405180910390f35b6104ac60048036038101906104a7919061462e565b611935565b6040516104b99190613e99565b60405180910390f35b6104dc60048036038101906104d791906143de565b611947565b6040516104e99190614442565b60405180910390f35b61050c60048036038101906105079190614677565b611964565b6040516105199190613e99565b60405180910390f35b61052a611978565b6040516105379190613e99565b60405180910390f35b610548611999565b604051610555919061454a565b60405180910390f35b610566611a97565b6040516105739190614a59565b60405180910390f35b6105966004803603810190610591919061462e565b611afc565b6040516105a39190613e99565b60405180910390f35b6105b4611b0e565b6040516105c1919061479e565b60405180910390f35b6105e460048036038101906105df9190614a74565b611b96565b005b6105ee611ba2565b6040516105fb9190614613565b60405180910390f35b61060c611bab565b6040516106199190613e99565b60405180910390f35b60008061062d6109b0565b905061063881611bd5565b91505090565b606061064982611e8f565b9050919050565b600061065b82611ea1565b9050919050565b6000806106728360200151611afc565b9050600061068884600001518560400151611964565b9050600082036106bc577fffffffffffffffffffffffffffffffffffffffffffffffffffffffffffffffff925050506106e0565b81670de0b6b3a7640000826106d19190614ad0565b6106db9190614b41565b925050505b919050565b6000806106f0611f3d565b905060008173ffffffffffffffffffffffffffffffffffffffff166366273c196040518163ffffffff1660e01b8152600401600060405180830381865afa15801561073f573d6000803e3d6000fd5b505050506040513d6000823e3d601f19601f820116820180604052508101906107689190614c1e565b905060005b81518110156109a5576000610780611f3d565b73ffffffffffffffffffffffffffffffffffffffff16630edc25b68484815181106107ae576107ad614c67565b5b60200260200101516040518263ffffffff1660e01b81526004016107d29190614ca5565b602060405180830381865afa1580156107ef573d6000803e3d6000fd5b505050506040513d601f19601f820116820180604052508101906108139190614cd5565b905060008173ffffffffffffffffffffffffffffffffffffffff16639d76ea586040518163ffffffff1660e01b8152600401602060405180830381865afa158015610862573d6000803e3d6000fd5b505050506040513d601f19601f820116820180604052508101906108869190614d40565b90508173ffffffffffffffffffffffffffffffffffffffff16636011163e306040518263ffffffff1660e01b81526004016108c19190614d7c565b602060405180830381865afa1580156108de573d6000803e3d6000fd5b505050506040513d601f19601f820116820180604052508101906109029190614dac565b8173ffffffffffffffffffffffffffffffffffffffff166370a08231306040518263ffffffff1660e01b815260040161093b9190614d7c565b602060405180830381865afa158015610958573d6000803e3d6000fd5b505050506040513d601f19601f8201168201806040525081019061097c9190614dac565b1015610990576000955050505050506109ad565b5050808061099d90614dd9565b91505061076d565b506001925050505b90565b606060006109bc611b0e565b905060006109c982611e8f565b9050805167ffffffffffffffff8111156109e6576109e5613ede565b5b604051908082528060200260200182016040528015610a1f57816020015b610a0c613e19565b815260200190600190039081610a045790505b50925060005b8151811015610aa8576040518060400160405280848381518110610a4c57610a4b614c67565b5b60200260200101518152602001838381518110610a6c57610a6b614c67565b5b6020026020010151815250848281518110610a8a57610a89614c67565b5b60200260200101819052508080610aa090614dd9565b915050610a25565b50505090565b600073981bda8276ae93f567922497153de7a5683708d373ffffffffffffffffffffffffffffffffffffffff168273ffffffffffffffffffffffffffffffffffffffff1603610b005760009050610ead565b733befdd935b50f172e696a5187dbacfef0d208e4873ffffffffffffffffffffffffffffffffffffffff168273ffffffffffffffffffffffffffffffffffffffff1603610b505760019050610ead565b73c1d5b940659e57b7bdf8870cdfc43f41ca69946073ffffffffffffffffffffffffffffffffffffffff168273ffffffffffffffffffffffffffffffffffffffff1603610ba05760029050610ead565b731cd8f9627a2838a7dae6b98cf71c08b9cbf5174a73ffffffffffffffffffffffffffffffffffffffff168273ffffffffffffffffffffffffffffffffffffffff1603610bf05760039050610ead565b73bc5a06815ee80de7d20071703c1f1b8fc511c7d473ffffffffffffffffffffffffffffffffffffffff168273ffffffffffffffffffffffffffffffffffffffff1603610c405760049050610ead565b73e9fa2869c5f6fc3a0933981825564fd90573a86d73ffffffffffffffffffffffffffffffffffffffff168273ffffffffffffffffffffffffffffffffffffffff1603610c905760059050610ead565b73df6b1ca313bee470d0142279791fa760abf5c53773ffffffffffffffffffffffffffffffffffffffff168273ffffffffffffffffffffffffffffffffffffffff1603610ce05760069050610ead565b73a50abc5d76dab99d5fe59fd32f239bd37d55025f73ffffffffffffffffffffffffffffffffffffffff168273ffffffffffffffffffffffffffffffffffffffff1603610d305760079050610ead565b73496f4e8ac11076350a59b88d2ad62bc20d410ea373ffffffffffffffffffffffffffffffffffffffff168273ffffffffffffffffffffffffffffffffffffffff1603610d805760089050610ead565b7341fb6b8d0f586e73d575bc57cfd29142b3214a4773ffffffffffffffffffffffffffffffffffffffff168273ffffffffffffffffffffffffffffffffffffffff1603610dd05760099050610ead565b73c1068312a6333e6601f937c4773065b70d38a5bf73ffffffffffffffffffffffffffffffffffffffff168273ffffffffffffffffffffffffffffffffffffffff1603610e2057600a9050610ead565b73ae9d49ea64df38b9fcbc238bc7004a1421f7eee873ffffffffffffffffffffffffffffffffffffffff168273ffffffffffffffffffffffffffffffffffffffff1603610e7057600b9050610ead565b816040517fec459bc0000000000000000000000000000000000000000000000000000000008152600401610ea49190614d7c565b60405180910390fd5b919050565b6000610ebd82611f59565b9050919050565b6000808251111561112e576000610ed9611f3d565b905060006305f5e10084600081518110610ef657610ef5614c67565b5b60200260200101516020015147610f0d9190614ad0565b610f179190614b41565b905060005b84518110156111235760008373ffffffffffffffffffffffffffffffffffffffff166325eb876f878481518110610f5657610f55614c67565b5b60200260200101516000015160016040518363ffffffff1660e01b8152600401610f81929190614e21565b602060405180830381865afa158015610f9e573d6000803e3d6000fd5b505050506040513d601f19601f82011682018060405250810190610fc29190614cd5565b905060008173ffffffffffffffffffffffffffffffffffffffff166370a08231306040518263ffffffff1660e01b8152600401610fff9190614d7c565b602060405180830381865afa15801561101c573d6000803e3d6000fd5b505050506040513d601f19601f820116820180604052508101906110409190614dac565b90508173ffffffffffffffffffffffffffffffffffffffff1663313ce5676040518163ffffffff1660e01b8152600401602060405180830381865afa15801561108d573d6000803e3d6000fd5b505050506040513d601f19601f820116820180604052508101906110b19190614e76565b600a6110bd9190614fd6565b816402540be4008986815181106110d7576110d6614c67565b5b6020026020010151602001516110ed9190614ad0565b6110f79190614ad0565b6111019190614b41565b8461110c9190615021565b93505050808061111b90614dd9565b915050610f1c565b508092505050611133565b600090505b919050565b6000670de0b6b3a764000061114b611152565b1015905090565b6000806111a7600067ffffffffffffffff81111561117357611172613ede565b5b6040519080825280602002602001820160405280156111a15781602001602082028036833780820191505090505b5061156b565b905060006111b88260200151611afc565b905060006111ce83600001518460400151611964565b905060008203611203577fffffffffffffffffffffffffffffffffffffffffffffffffffffffffffffffff9350505050611228565b81670de0b6b3a7640000826112189190614ad0565b6112229190614b41565b93505050505b90565b600061123682610eb2565b61123f84611935565b6112499190615021565b905092915050565b6060600061125d6122ae565b90506000818054905067ffffffffffffffff81111561127f5761127e613ede565b5b6040519080825280602002602001820160405280156112ad5781602001602082028036833780820191505090505b50905060005b8280549050811015611316578281815481106112d2576112d1614c67565b5b9060005260206000209060030201600101548282815181106112f7576112f6614c67565b5b602002602001018181525050808061130e90614dd9565b9150506112b3565b506000611322826122c0565b9050805167ffffffffffffffff81111561133f5761133e613ede565b5b60405190808252806020026020018201604052801561137857816020015b611365613e19565b81526020019060019003908161135d5790505b50935060005b81518110156114015760405180604001604052808483815181106113a5576113a4614c67565b5b602002602001015181526020018383815181106113c5576113c4614c67565b5b60200260200101518152508582815181106113e3576113e2614c67565b5b602002602001018190525080806113f990614dd9565b91505061137e565b5050505090565b600080611413611999565b905061141e81610ec4565b91505090565b60606000611430612511565b9050600061143c612584565b90506000611449826125ac565b611460576001835161145b9190615021565b611463565b82515b905060008167ffffffffffffffff81111561148157611480613ede565b5b6040519080825280602002602001820160405280156114af5781602001602082028036833780820191505090505b509050600083826000815181106114c9576114c8614c67565b5b60200260200101818152505060005b855181101561155f57848682815181106114f5576114f4614c67565b5b60200260200101511461154c5760018261150f9190615021565b915085818151811061152457611523614c67565b5b602002602001015183838151811061153f5761153e614c67565b5b6020026020010181815250505b808061155790614dd9565b9150506114d8565b50819550505050505090565b611573613e36565b600061157d611424565b90506000611589611b0e565b905060006115956125d7565b9050600085518251845186516115ab9190615021565b6115b59190615021565b6115bf9190615021565b67ffffffffffffffff8111156115d8576115d7613ede565b5b6040519080825280602002602001820160405280156116065781602001602082028036833780820191505090505b5090506000611618828683885161269f565b8451816116259190615021565b9050611634828583875161269f565b8351816116419190615021565b9050611650828483865161269f565b82518161165d9190615021565b905061166c8288838a5161269f565b6000611677836122c0565b9050600091506000865167ffffffffffffffff81111561169a57611699613ede565b5b6040519080825280602002602001820160405280156116d357816020015b6116c0613e19565b8152602001906001900390816116b85790505b5090506116e4818584868b5161279c565b8651836116f19190615021565b92506000865167ffffffffffffffff8111156117105761170f613ede565b5b60405190808252806020026020018201604052801561174957816020015b611736613e19565b81526020019060019003908161172e5790505b50905061175a818685878b5161279c565b8051846117679190615021565b93506000865167ffffffffffffffff81111561178657611785613ede565b5b6040519080825280602002602001820160405280156117bf57816020015b6117ac613e19565b8152602001906001900390816117a45790505b5090506117d0818786888b5161279c565b8651856117dd9190615021565b945060008b5167ffffffffffffffff8111156117fc576117fb613ede565b5b60405190808252806020026020018201604052801561183557816020015b611822613e19565b81526020019060019003908161181a5790505b50905060005b8c518110156118d457604051806040016040528089898461185c9190615021565b8151811061186d5761186c614c67565b5b602002602001015181526020018789846118879190615021565b8151811061189857611897614c67565b5b60200260200101518152508282815181106118b6576118b5614c67565b5b602002602001018190525080806118cc90614dd9565b91505061183b565b506040518060800160405280858152602001848152602001838152602001828152509a5050505050505050505050919050565b600080611912611251565b905061191d81611f59565b91505090565b600061192e82612965565b9050919050565b600061194082610ec4565b9050919050565b6000670de0b6b3a764000061195b83610662565b10159050919050565b60006119708383612977565b905092915050565b6000611982611907565b61198a611408565b6119949190615021565b905090565b606060006119a5611424565b905060006119b282611e8f565b9050815167ffffffffffffffff8111156119cf576119ce613ede565b5b604051908082528060200260200182016040528015611a0857816020015b6119f5613e19565b8152602001906001900390816119ed5790505b50925060005b8251811015611a91576040518060400160405280848381518110611a3557611a34614c67565b5b60200260200101518152602001838381518110611a5557611a54614c67565b5b6020026020010151815250848281518110611a7357611a72614c67565b5b60200260200101819052508080611a8990614dd9565b915050611a0e565b50505090565b611a9f613e5e565b6040518060a00160405280611ab2611978565b8152602001611abf610622565b8152602001611acc611bab565b8152602001611ad9611152565b8152602001611ae6611138565b611af1576000611af4565b60015b815250905090565b6000611b0782611bd5565b9050919050565b60606000611b1a611f3d565b90508073ffffffffffffffffffffffffffffffffffffffff166366273c196040518163ffffffff1660e01b8152600401600060405180830381865afa158015611b67573d6000803e3d6000fd5b505050506040513d6000823e3d601f19601f82011682018060405250810190611b909190614c1e565b91505090565b611b9f8161299d565b50565b60006003905090565b600080611bb6611999565b90506000611bc2611251565b9050611bce8282612977565b9250505090565b600080611be0611f3d565b90506000805b8451811015611e845760008373ffffffffffffffffffffffffffffffffffffffff166325eb876f878481518110611c2057611c1f614c67565b5b60200260200101516000015160016040518363ffffffff1660e01b8152600401611c4b929190614e21565b602060405180830381865afa158015611c68573d6000803e3d6000fd5b505050506040513d601f19601f82011682018060405250810190611c8c9190614cd5565b905060008473ffffffffffffffffffffffffffffffffffffffff16630edc25b6888581518110611cbf57611cbe614c67565b5b6020026020010151600001516040518263ffffffff1660e01b8152600401611ce79190614ca5565b602060405180830381865afa158015611d04573d6000803e3d6000fd5b505050506040513d601f19601f82011682018060405250810190611d289190614cd5565b90508173ffffffffffffffffffffffffffffffffffffffff1663313ce5676040518163ffffffff1660e01b8152600401602060405180830381865afa158015611d75573d6000803e3d6000fd5b505050506040513d601f19601f82011682018060405250810190611d999190614e76565b600a611da59190614fd6565b6402540be400888581518110611dbe57611dbd614c67565b5b6020026020010151602001518373ffffffffffffffffffffffffffffffffffffffff16636011163e306040518263ffffffff1660e01b8152600401611e039190614d7c565b602060405180830381865afa158015611e20573d6000803e3d6000fd5b505050506040513d601f19601f82011682018060405250810190611e449190614dac565b611e4e9190614ad0565b611e589190614ad0565b611e629190614b41565b84611e6d9190615021565b935050508080611e7c90614dd9565b915050611be6565b508092505050919050565b6060611e9a82612a67565b9050919050565b600080600167ffffffffffffffff811115611ebf57611ebe613ede565b5b604051908082528060200260200182016040528015611eed5781602001602082028036833780820191505090505b5090508281600081518110611f0557611f04614c67565b5b602002602001018181525050611f1a81611e8f565b600081518110611f2d57611f2c614c67565b5b6020026020010151915050919050565b60007334cb5fc3b28215713682de95daf2b00a4619db03905090565b600080611f646122ae565b90506000805b82805490508110156122a357828181548110611f8957611f88614c67565b5b906000526020600020906003020160010154858281518110611fae57611fad614c67565b5b60200260200101516000015114611ffa576040517f08c379a0000000000000000000000000000000000000000000000000000000008152600401611ff1906150b2565b60405180910390fd5b6000803073ffffffffffffffffffffffffffffffffffffffff1685848154811061202757612026614c67565b5b906000526020600020906003020160020160009054906101000a900460e01b604051602401604051602081830303815290604052907bffffffffffffffffffffffffffffffffffffffffffffffffffffffff19166020820180517bffffffffffffffffffffffffffffffffffffffffffffffffffffffff83818316178352505050506040516120b69190615143565b600060405180830381855afa9150503d80600081146120f1576040519150601f19603f3d011682016040523d82523d6000602084013e6120f6565b606091505b5091509150811561228e576000818060200190518101906121179190614dac565b90506000612123611f3d565b73ffffffffffffffffffffffffffffffffffffffff166325eb876f8a878151811061215157612150614c67565b5b60200260200101516000015160016040518363ffffffff1660e01b815260040161217c929190614e21565b602060405180830381865afa158015612199573d6000803e3d6000fd5b505050506040513d601f19601f820116820180604052508101906121bd9190614cd5565b90508073ffffffffffffffffffffffffffffffffffffffff1663313ce5676040518163ffffffff1660e01b8152600401602060405180830381865afa15801561220a573d6000803e3d6000fd5b505050506040513d601f19601f8201168201806040525081019061222e9190614e76565b600a61223a9190614fd6565b826402540be4008b888151811061225457612253614c67565b5b60200260200101516020015161226a9190614ad0565b6122749190614ad0565b61227e9190614b41565b866122899190615021565b955050505b5050808061229b90614dd9565b915050611f6a565b508092505050919050565b60006122b8612c76565b600701905090565b60606000825167ffffffffffffffff8111156122df576122de613ede565b5b60405190808252806020026020018201604052801561230d5781602001602082028036833780820191505090505b5090506000806000905060005b85518110156123eb576000925060005b828110156123895786828151811061234557612344614c67565b5b60200260200101518582815181106123605761235f614c67565b5b6020026020010151036123765760019350612389565b808061238190614dd9565b91505061232a565b50826123d8578581815181106123a2576123a1614c67565b5b60200260200101518483815181106123bd576123bc614c67565b5b60200260200101818152505081806123d490614dd9565b9250505b80806123e390614dd9565b91505061231a565b5080835260006123fa84611e8f565b90506000865167ffffffffffffffff81111561241957612418613ede565b5b6040519080825280602002602001820160405280156124475781602001602082028036833780820191505090505b50905060005b87518110156125035760005b86518110156124ef5786818151811061247557612474614c67565b5b60200260200101518983815181106124905761248f614c67565b5b6020026020010151036124dc578381815181106124b0576124af614c67565b5b60200260200101518383815181106124cb576124ca614c67565b5b6020026020010181815250506124ef565b80806124e790614dd9565b915050612459565b5080806124fb90614dd9565b91505061244d565b508095505050505050919050565b6060600061251d612c76565b90508060040160000160000160000160000180548060200260200160405190810160405280929190818152602001828054801561257957602002820191906000526020600020905b815481526020019060010190808311612565575b505050505091505090565b60007f4156415800000000000000000000000000000000000000000000000000000000905090565b6000806125b7612c76565b90506125cf8382600401612ca390919063ffffffff16565b915050919050565b606060006125e36122ae565b9050808054905067ffffffffffffffff81111561260357612602613ede565b5b6040519080825280602002602001820160405280156126315781602001602082028036833780820191505090505b50915060005b818054905081101561269a5781818154811061265657612655614c67565b5b90600052602060002090600302016001015483828151811061267b5761267a614c67565b5b602002602001018181525050808061269290614dd9565b915050612637565b505090565b82518111156126e3576040517f08c379a00000000000000000000000000000000000000000000000000000000081526004016126da906151cc565b60405180910390fd5b835181836126f19190615021565b1115612732576040517f08c379a00000000000000000000000000000000000000000000000000000000081526004016127299061525e565b60405180910390fd5b60005b81811015612795578381815181106127505761274f614c67565b5b60200260200101518584836127659190615021565b8151811061277657612775614c67565b5b602002602001018181525050808061278d90614dd9565b915050612735565b5050505050565b83518111156127e0576040517f08c379a00000000000000000000000000000000000000000000000000000000081526004016127d7906152f0565b60405180910390fd5b8251811115612824576040517f08c379a000000000000000000000000000000000000000000000000000000000815260040161281b90615382565b60405180910390fd5b835181836128329190615021565b1115612873576040517f08c379a000000000000000000000000000000000000000000000000000000000815260040161286a90615414565b60405180910390fd5b825181836128819190615021565b11156128c2576040517f08c379a00000000000000000000000000000000000000000000000000000000081526004016128b9906154a6565b60405180910390fd5b60005b8181101561295d5760405180604001604052808685846128e59190615021565b815181106128f6576128f5614c67565b5b602002602001015181526020018585846129109190615021565b8151811061292157612920614c67565b5b602002602001015181525086828151811061293f5761293e614c67565b5b6020026020010181905250808061295590614dd9565b9150506128c5565b505050505050565b600061297082612cba565b9050919050565b600061298282612dae565b61298b846131d7565b6129959190615021565b905092915050565b60006103e8826129ad9190614b41565b905080421015612a0f57603c42826129c591906154c6565b1115612a0a5780426040517fb6b0916d000000000000000000000000000000000000000000000000000000008152600401612a019291906154fa565b60405180910390fd5b612a63565b60b48142612a1d91906154c6565b1115612a625780426040517f0321d0b5000000000000000000000000000000000000000000000000000000008152600401612a599291906154fa565b60405180910390fd5b5b5050565b60606000825167ffffffffffffffff811115612a8657612a85613ede565b5b604051908082528060200260200182016040528015612ab45781602001602082028036833780820191505090505b5090506000835167ffffffffffffffff811115612ad457612ad3613ede565b5b604051908082528060200260200182016040528015612b025781602001602082028036833780820191505090505b5090506000845167ffffffffffffffff811115612b2257612b21613ede565b5b604051908082528060200260200182016040528015612b5557816020015b6060815260200190600190039081612b405790505b50905060005b8551811015612be857612b6c611ba2565b60ff1667ffffffffffffffff811115612b8857612b87613ede565b5b604051908082528060200260200182016040528015612bb65781602001602082028036833780820191505090505b50828281518110612bca57612bc9614c67565b5b60200260200101819052508080612be090614dd9565b915050612b5b565b506000612bf36135d3565b90506000612c00826136e4565b61ffff169050600282612c139190615021565b91506000604051905060005b82811015612c5e576000612c368a89898989613740565b90508085612c449190615021565b945082604052508080612c5690614dd9565b915050612c1f565b50612c698487613a38565b9650505050505050919050565b6000807f8d5bb42e0ac1496a2c326edc9c00758985246e6c2bb146d6c2f4a0d509e0960a90508091505090565b6000612cb28360000183613b85565b905092915050565b600080825103612cf6576040517f9e198af900000000000000000000000000000000000000000000000000000000815260040160405180910390fd5b612cff82613ba5565b600060028351612d0f9190614b41565b9050600060028451612d219190615523565b03612d8a576000612d7284600184612d3991906154c6565b81518110612d4a57612d49614c67565b5b6020026020010151858481518110612d6557612d64614c67565b5b6020026020010151613bf8565b9050600281612d819190614b41565b92505050612da9565b828181518110612d9d57612d9c614c67565b5b60200260200101519150505b919050565b600080612db9611f3d565b90506000612dc56122ae565b90506000805b82805490508110156131cb57828181548110612dea57612de9614c67565b5b906000526020600020906003020160010154868281518110612e0f57612e0e614c67565b5b60200260200101516000015114612e5b576040517f08c379a0000000000000000000000000000000000000000000000000000000008152600401612e52906150b2565b60405180910390fd5b6000803073ffffffffffffffffffffffffffffffffffffffff16858481548110612e8857612e87614c67565b5b906000526020600020906003020160020160009054906101000a900460e01b604051602401604051602081830303815290604052907bffffffffffffffffffffffffffffffffffffffffffffffffffffffff19166020820180517bffffffffffffffffffffffffffffffffffffffffffffffffffffffff8381831617835250505050604051612f179190615143565b600060405180830381855afa9150503d8060008114612f52576040519150601f19603f3d011682016040523d82523d6000602084013e612f57565b606091505b509150915081156131b657600081806020019051810190612f789190614dac565b90506000612f84611f3d565b73ffffffffffffffffffffffffffffffffffffffff166325eb876f8b8781518110612fb257612fb1614c67565b5b60200260200101516000015160016040518363ffffffff1660e01b8152600401612fdd929190614e21565b602060405180830381865afa158015612ffa573d6000803e3d6000fd5b505050506040513d601f19601f8201168201806040525081019061301e9190614cd5565b90506305f5e1008173ffffffffffffffffffffffffffffffffffffffff1663313ce5676040518163ffffffff1660e01b8152600401602060405180830381865afa158015613070573d6000803e3d6000fd5b505050506040513d601f19601f820116820180604052508101906130949190614e76565b600a6130a09190614fd6565b6130aa9190614ad0565b8873ffffffffffffffffffffffffffffffffffffffff16636953c06c8988815481106130d9576130d8614c67565b5b906000526020600020906003020160000160009054906101000a900473ffffffffffffffffffffffffffffffffffffffff166040518263ffffffff1660e01b81526004016131279190614d7c565b602060405180830381865afa158015613144573d6000803e3d6000fd5b505050506040513d601f19601f820116820180604052508101906131689190614dac565b838c888151811061317c5761317b614c67565b5b6020026020010151602001516131929190614ad0565b61319c9190614ad0565b6131a69190614b41565b866131b19190615021565b955050505b505080806131c390614dd9565b915050612dcb565b50809350505050919050565b6000806131e2612584565b905060006131ee611f3d565b905060006a52b7d2dcc80cd2e40000008273ffffffffffffffffffffffffffffffffffffffff16636953c06c8473ffffffffffffffffffffffffffffffffffffffff166325eb876f8760016040518363ffffffff1660e01b8152600401613256929190614e21565b602060405180830381865afa158015613273573d6000803e3d6000fd5b505050506040513d601f19601f820116820180604052508101906132979190614cd5565b6040518263ffffffff1660e01b81526004016132b39190614d7c565b602060405180830381865afa1580156132d0573d6000803e3d6000fd5b505050506040513d601f19601f820116820180604052508101906132f49190614dac565b478760008151811061330957613308614c67565b5b60200260200101516020015161331f9190614ad0565b6133299190614ad0565b6133339190614b41565b90506000855111156135c85760005b85518110156135c65760008373ffffffffffffffffffffffffffffffffffffffff166325eb876f88848151811061337c5761337b614c67565b5b60200260200101516000015160016040518363ffffffff1660e01b81526004016133a7929190614e21565b602060405180830381865afa1580156133c4573d6000803e3d6000fd5b505050506040513d601f19601f820116820180604052508101906133e89190614cd5565b90506305f5e1008173ffffffffffffffffffffffffffffffffffffffff1663313ce5676040518163ffffffff1660e01b8152600401602060405180830381865afa15801561343a573d6000803e3d6000fd5b505050506040513d601f19601f8201168201806040525081019061345e9190614e76565b600a61346a9190614fd6565b6134749190614ad0565b8473ffffffffffffffffffffffffffffffffffffffff16636953c06c836040518263ffffffff1660e01b81526004016134ad9190614d7c565b602060405180830381865afa1580156134ca573d6000803e3d6000fd5b505050506040513d601f19601f820116820180604052508101906134ee9190614dac565b8273ffffffffffffffffffffffffffffffffffffffff166370a08231306040518263ffffffff1660e01b81526004016135279190614d7c565b602060405180830381865afa158015613544573d6000803e3d6000fd5b505050506040513d601f19601f820116820180604052508101906135689190614dac565b89858151811061357b5761357a614c67565b5b6020026020010151602001516135919190614ad0565b61359b9190614ad0565b6135a59190614b41565b836135b09190615021565b92505080806135be90614dd9565b915050613342565b505b809350505050919050565b60008060203603356602ed57011e000081166602ed57011e00001491505080613628576040517fe7764c9e00000000000000000000000000000000000000000000000000000000815260040160405180910390fd5b60008036905060291115613668576040517f5796f78a00000000000000000000000000000000000000000000000000000000815260040160405180910390fd5b602936033590506000600960038362ffffff166136859190615021565b61368f9190615021565b905060003690506002826136a39190615021565b11156136db576040517fc30a7bd700000000000000000000000000000000000000000000000000000000815260040160405180910390fd5b80935050505090565b6000806020836136f49190615021565b90506000369050811115613734576040517f5796f78a00000000000000000000000000000000000000000000000000000000815260040160405180910390fd5b80360335915050919050565b60008060008061374f85613c0e565b91509150600080600060606000600d61377d60208861376e9190615021565b89613c8490919063ffffffff16565b6137879190615021565b905060006137ae60688c61379b9190615021565b6000369050613c9a90919063ffffffff16565b905060006137e08360418e6137c39190615021565b6137cd9190615021565b6000369050613c9a90919063ffffffff16565b90506137ec838261381a565b9350826020850120945081359650613836565b60006040519050818152602081019050818101604052919050565b6000613825836137ff565b838382376020810391505092915050565b6138478765ffffffffffff16611b96565b61385d8560418e6138589190615021565b613cb0565b955061386886610aae565b60ff1699505050505050505060008060005b84811015613a035761388d888583613d2f565b809350819450505060005b8c518110156139ef578c81815181106138b4576138b3614c67565b5b602002602001015184036139dc5760008b82815181106138d7576138d6614c67565b5b602002602001015190506138eb8189613db5565b15801561391b57506138fb611ba2565b60ff168d838151811061391157613910614c67565b5b6020026020010151105b156139d6578c828151811061393357613932614c67565b5b60200260200101805180919061394890614dd9565b81525050838b83815181106139605761395f614c67565b5b602002602001015160018f858151811061397d5761397c614c67565b5b602002602001015161398f91906154c6565b815181106139a05761399f614c67565b5b6020026020010181815250506139b68189613dce565b8c83815181106139c9576139c8614c67565b5b6020026020010181815250505b506139ef565b80806139e790614dd9565b915050613898565b5080806139fb90614dd9565b91505061387a565b50505081602082613a149190615021565b613a1e9190614ad0565b604e613a2a9190615021565b935050505095945050505050565b60606000835167ffffffffffffffff811115613a5757613a56613ede565b5b604051908082528060200260200182016040528015613a855781602001602082028036833780820191505090505b5090506000613a92611ba2565b60ff16905060005b8551811015613b795781858281518110613ab757613ab6614c67565b5b60200260200101511015613b1e57848181518110613ad857613ad7614c67565b5b6020026020010151826040517f2b13aef5000000000000000000000000000000000000000000000000000000008152600401613b159291906154fa565b60405180910390fd5b6000613b43878381518110613b3657613b35614c67565b5b6020026020010151611923565b905080848381518110613b5957613b58614c67565b5b602002602001018181525050508080613b7190614dd9565b915050613a9a565b50819250505092915050565b6000613b9d8284600001613ddf90919063ffffffff16565b905092915050565b805160208201602082028101815b81811015613bf157825b81811015613be5578151815180821015613bd8578084528183525b5050602081019050613bbd565b50602081019050613bb3565b5050505050565b60008183613c069190615021565b905092915050565b6000806000806000604186613c239190615021565b90506000613c4a602083613c379190615021565b6000369050613c9a90919063ffffffff16565b905080359350613c64600382613c9a90919063ffffffff16565b9050803592508362ffffff1695508263ffffffff16945050505050915091565b60008183613c929190614ad0565b905092915050565b60008183613ca891906154c6565b905092915050565b6000806000808436038035935060208101905080359250602081019050803560001a91505060018682858560405160008152602001604052604051613cf89493929190615554565b6020604051602081039080840390855afa158015613d1a573d6000803e3d6000fd5b50505060206040510351935050505092915050565b6000806000604e86613d419190615021565b90506000613d82613d73602088613d589190615021565b876001613d659190615021565b613c8490919063ffffffff16565b83613bf890919063ffffffff16565b90506000613d9d826000369050613c9a90919063ffffffff16565b90508035945060208101359350505050935093915050565b600080826001901b841690506000811191505092915050565b6000816001901b8317905092915050565b6000613dee8360000183613df6565b905092915050565b600080836001016000848152602001908152602001600020541415905092915050565b604051806040016040528060008019168152602001600081525090565b6040518060800160405280606081526020016060815260200160608152602001606081525090565b6040518060a00160405280600590602082028036833780820191505090505090565b6000819050919050565b613e9381613e80565b82525050565b6000602082019050613eae6000830184613e8a565b92915050565b6000604051905090565b600080fd5b600080fd5b600080fd5b6000601f19601f8301169050919050565b7f4e487b7100000000000000000000000000000000000000000000000000000000600052604160045260246000fd5b613f1682613ecd565b810181811067ffffffffffffffff82111715613f3557613f34613ede565b5b80604052505050565b6000613f48613eb4565b9050613f548282613f0d565b919050565b600067ffffffffffffffff821115613f7457613f73613ede565b5b602082029050602081019050919050565b600080fd5b6000819050919050565b613f9d81613f8a565b8114613fa857600080fd5b50565b600081359050613fba81613f94565b92915050565b6000613fd3613fce84613f59565b613f3e565b90508083825260208201905060208402830185811115613ff657613ff5613f85565b5b835b8181101561401f578061400b8882613fab565b845260208401935050602081019050613ff8565b5050509392505050565b600082601f83011261403e5761403d613ec8565b5b813561404e848260208601613fc0565b91505092915050565b60006020828403121561406d5761406c613ebe565b5b600082013567ffffffffffffffff81111561408b5761408a613ec3565b5b61409784828501614029565b91505092915050565b600081519050919050565b600082825260208201905092915050565b6000819050602082019050919050565b6140d581613e80565b82525050565b60006140e783836140cc565b60208301905092915050565b6000602082019050919050565b600061410b826140a0565b61411581856140ab565b9350614120836140bc565b8060005b8381101561415157815161413888826140db565b9750614143836140f3565b925050600181019050614124565b5085935050505092915050565b600060208201905081810360008301526141788184614100565b905092915050565b60006020828403121561419657614195613ebe565b5b60006141a484828501613fab565b91505092915050565b600080fd5b600080fd5b600067ffffffffffffffff8211156141d2576141d1613ede565b5b602082029050602081019050919050565b6141ec81613e80565b81146141f757600080fd5b50565b600081359050614209816141e3565b92915050565b600060408284031215614225576142246141ad565b5b61422f6040613f3e565b9050600061423f84828501613fab565b6000830152506020614253848285016141fa565b60208301525092915050565b600061427261426d846141b7565b613f3e565b9050808382526020820190506040840283018581111561429557614294613f85565b5b835b818110156142be57806142aa888261420f565b845260208401935050604081019050614297565b5050509392505050565b600082601f8301126142dd576142dc613ec8565b5b81356142ed84826020860161425f565b91505092915050565b60006080828403121561430c5761430b6141ad565b5b6143166080613f3e565b9050600082013567ffffffffffffffff811115614336576143356141b2565b5b614342848285016142c8565b600083015250602082013567ffffffffffffffff811115614366576143656141b2565b5b614372848285016142c8565b602083015250604082013567ffffffffffffffff811115614396576143956141b2565b5b6143a2848285016142c8565b604083015250606082013567ffffffffffffffff8111156143c6576143c56141b2565b5b6143d2848285016142c8565b60608301525092915050565b6000602082840312156143f4576143f3613ebe565b5b600082013567ffffffffffffffff81111561441257614411613ec3565b5b61441e848285016142f6565b91505092915050565b60008115159050919050565b61443c81614427565b82525050565b60006020820190506144576000830184614433565b92915050565b600081519050919050565b600082825260208201905092915050565b6000819050602082019050919050565b61449281613f8a565b82525050565b6040820160008201516144ae6000850182614489565b5060208201516144c160208501826140cc565b50505050565b60006144d38383614498565b60408301905092915050565b6000602082019050919050565b60006144f78261445d565b6145018185614468565b935061450c83614479565b8060005b8381101561453d57815161452488826144c7565b975061452f836144df565b925050600181019050614510565b5085935050505092915050565b6000602082019050818103600083015261456481846144ec565b905092915050565b600073ffffffffffffffffffffffffffffffffffffffff82169050919050565b60006145978261456c565b9050919050565b6145a78161458c565b81146145b257600080fd5b50565b6000813590506145c48161459e565b92915050565b6000602082840312156145e0576145df613ebe565b5b60006145ee848285016145b5565b91505092915050565b600060ff82169050919050565b61460d816145f7565b82525050565b60006020820190506146286000830184614604565b92915050565b60006020828403121561464457614643613ebe565b5b600082013567ffffffffffffffff81111561466257614661613ec3565b5b61466e848285016142c8565b91505092915050565b6000806040838503121561468e5761468d613ebe565b5b600083013567ffffffffffffffff8111156146ac576146ab613ec3565b5b6146b8858286016142c8565b925050602083013567ffffffffffffffff8111156146d9576146d8613ec3565b5b6146e5858286016142c8565b9150509250929050565b600081519050919050565b600082825260208201905092915050565b6000819050602082019050919050565b60006147278383614489565b60208301905092915050565b6000602082019050919050565b600061474b826146ef565b61475581856146fa565b93506147608361470b565b8060005b83811015614791578151614778888261471b565b975061478383614733565b925050600181019050614764565b5085935050505092915050565b600060208201905081810360008301526147b88184614740565b905092915050565b600082825260208201905092915050565b60006147dc8261445d565b6147e681856147c0565b93506147f183614479565b8060005b8381101561482257815161480988826144c7565b9750614814836144df565b9250506001810190506147f5565b5085935050505092915050565b6000608083016000830151848203600086015261484c82826147d1565b9150506020830151848203602086015261486682826147d1565b9150506040830151848203604086015261488082826147d1565b9150506060830151848203606086015261489a82826147d1565b9150508091505092915050565b600060208201905081810360008301526148c1818461482f565b905092915050565b600067ffffffffffffffff8211156148e4576148e3613ede565b5b602082029050602081019050919050565b6000614908614903846148c9565b613f3e565b9050808382526020820190506020840283018581111561492b5761492a613f85565b5b835b81811015614954578061494088826141fa565b84526020840193505060208101905061492d565b5050509392505050565b600082601f83011261497357614972613ec8565b5b81356149838482602086016148f5565b91505092915050565b6000602082840312156149a2576149a1613ebe565b5b600082013567ffffffffffffffff8111156149c0576149bf613ec3565b5b6149cc8482850161495e565b91505092915050565b600060059050919050565b600081905092915050565b6000819050919050565b6000602082019050919050565b614a0b816149d5565b614a1581846149e0565b9250614a20826149eb565b8060005b83811015614a51578151614a3887826140db565b9650614a43836149f5565b925050600181019050614a24565b505050505050565b600060a082019050614a6e6000830184614a02565b92915050565b600060208284031215614a8a57614a89613ebe565b5b6000614a98848285016141fa565b91505092915050565b7f4e487b7100000000000000000000000000000000000000000000000000000000600052601160045260246000fd5b6000614adb82613e80565b9150614ae683613e80565b9250828202614af481613e80565b91508282048414831517614b0b57614b0a614aa1565b5b5092915050565b7f4e487b7100000000000000000000000000000000000000000000000000000000600052601260045260246000fd5b6000614b4c82613e80565b9150614b5783613e80565b925082614b6757614b66614b12565b5b828204905092915050565b600081519050614b8181613f94565b92915050565b6000614b9a614b9584613f59565b613f3e565b90508083825260208201905060208402830185811115614bbd57614bbc613f85565b5b835b81811015614be65780614bd28882614b72565b845260208401935050602081019050614bbf565b5050509392505050565b600082601f830112614c0557614c04613ec8565b5b8151614c15848260208601614b87565b91505092915050565b600060208284031215614c3457614c33613ebe565b5b600082015167ffffffffffffffff811115614c5257614c51613ec3565b5b614c5e84828501614bf0565b91505092915050565b7f4e487b7100000000000000000000000000000000000000000000000000000000600052603260045260246000fd5b614c9f81613f8a565b82525050565b6000602082019050614cba6000830184614c96565b92915050565b600081519050614ccf8161459e565b92915050565b600060208284031215614ceb57614cea613ebe565b5b6000614cf984828501614cc0565b91505092915050565b6000614d0d8261456c565b9050919050565b614d1d81614d02565b8114614d2857600080fd5b50565b600081519050614d3a81614d14565b92915050565b600060208284031215614d5657614d55613ebe565b5b6000614d6484828501614d2b565b91505092915050565b614d768161458c565b82525050565b6000602082019050614d916000830184614d6d565b92915050565b600081519050614da6816141e3565b92915050565b600060208284031215614dc257614dc1613ebe565b5b6000614dd084828501614d97565b91505092915050565b6000614de482613e80565b91507fffffffffffffffffffffffffffffffffffffffffffffffffffffffffffffffff8203614e1657614e15614aa1565b5b600182019050919050565b6000604082019050614e366000830185614c96565b614e436020830184614433565b9392505050565b614e53816145f7565b8114614e5e57600080fd5b50565b600081519050614e7081614e4a565b92915050565b600060208284031215614e8c57614e8b613ebe565b5b6000614e9a84828501614e61565b91505092915050565b60008160011c9050919050565b6000808291508390505b6001851115614efa57808604811115614ed657614ed5614aa1565b5b6001851615614ee55780820291505b8081029050614ef385614ea3565b9450614eba565b94509492505050565b600082614f135760019050614fcf565b81614f215760009050614fcf565b8160018114614f375760028114614f4157614f70565b6001915050614fcf565b60ff841115614f5357614f52614aa1565b5b8360020a915084821115614f6a57614f69614aa1565b5b50614fcf565b5060208310610133831016604e8410600b8410161715614fa55782820a905083811115614fa057614f9f614aa1565b5b614fcf565b614fb28484846001614eb0565b92509050818404811115614fc957614fc8614aa1565b5b81810290505b9392505050565b6000614fe182613e80565b9150614fec836145f7565b92506150197fffffffffffffffffffffffffffffffffffffffffffffffffffffffffffffffff8484614f03565b905092915050565b600061502c82613e80565b915061503783613e80565b925082820190508082111561504f5761504e614aa1565b5b92915050565b600082825260208201905092915050565b7f506f736974696f6e2d70726963652073796d626f6c206d69736d617463682e00600082015250565b600061509c601f83615055565b91506150a782615066565b602082019050919050565b600060208201905081810360008301526150cb8161508f565b9050919050565b600081519050919050565b600081905092915050565b60005b838110156151065780820151818401526020810190506150eb565b60008484015250505050565b600061511d826150d2565b61512781856150dd565b93506151378185602086016150e8565b80840191505092915050565b600061514f8284615112565b915081905092915050565b7f6e756d6265724f664974656d73203e20746172676574206172726179206c656e60008201527f6774680000000000000000000000000000000000000000000000000000000000602082015250565b60006151b6602383615055565b91506151c18261515a565b604082019050919050565b600060208201905081810360008301526151e5816151a9565b9050919050565b7f6f6666736574202b206e756d6265724f664974656d73203e207461726765742060008201527f6172726179206c656e6774680000000000000000000000000000000000000000602082015250565b6000615248602c83615055565b9150615253826151ec565b604082019050919050565b600060208201905081810360008301526152778161523b565b9050919050565b7f6e756d6265724f664974656d73203e20736f757263654173736574732061727260008201527f6179206c656e6774680000000000000000000000000000000000000000000000602082015250565b60006152da602983615055565b91506152e58261527e565b604082019050919050565b60006020820190508181036000830152615309816152cd565b9050919050565b7f6e756d6265724f664974656d73203e20736f757263655072696365732061727260008201527f6179206c656e6774680000000000000000000000000000000000000000000000602082015250565b600061536c602983615055565b915061537782615310565b604082019050919050565b6000602082019050818103600083015261539b8161535f565b9050919050565b7f6f6666736574202b206e756d6265724f664974656d73203e20736f757263654160008201527f7373657473206172726179206c656e6774680000000000000000000000000000602082015250565b60006153fe603283615055565b9150615409826153a2565b604082019050919050565b6000602082019050818103600083015261542d816153f1565b9050919050565b7f6f6666736574202b206e756d6265724f664974656d73203e20736f757263655060008201527f7269636573206172726179206c656e6774680000000000000000000000000000602082015250565b6000615490603283615055565b915061549b82615434565b604082019050919050565b600060208201905081810360008301526154bf81615483565b9050919050565b60006154d182613e80565b91506154dc83613e80565b92508282039050818111156154f4576154f3614aa1565b5b92915050565b600060408201905061550f6000830185613e8a565b61551c6020830184613e8a565b9392505050565b600061552e82613e80565b915061553983613e80565b92508261554957615548614b12565b5b828206905092915050565b60006080820190506155696000830187614c96565b6155766020830186614604565b6155836040830185614c96565b6155906060830184614c96565b9594505050505056fea2646970667358221220c2bd9a8e36383331e1f5c8b99c0721f530ec2764128fc5ed169a1feb09f41c9364736f6c63430008110033",
  "devdoc": {
    "kind": "dev",
    "methods": {
      "aggregateValues(uint256[])": {
        "details": "This function may be overriden by the child consumer contract. It should aggregate values from different signers to a single uint value. By default, it calculates the median value",
        "params": {
          "values": "An array of uint256 values from different signers"
        },
        "returns": {
          "_0": "Result of the aggregation in the form of a single number"
        }
      },
      "getAllPricesForLiquidation(bytes32[])": {
        "details": "This function uses the redstone-evm-connector*"
      },
      "getDebt()": {
        "details": "This function uses the redstone-evm-connector*"
      },
      "getDebtAssetsPrices()": {
        "details": "This function uses the redstone-evm-connector*"
      },
      "getHealthRatio()": {
        "details": "This function uses the redstone-evm-connector*"
      },
      "getOwnedAssetsWithNativePrices()": {
        "details": "This function uses the redstone-evm-connector*"
      },
      "getPrice(bytes32)": {
        "details": "This function uses the redstone-evm-connector*"
      },
      "getPrices(bytes32[])": {
        "details": "This function uses the redstone-evm-connector*"
      },
      "getStakedPositionsPrices()": {
        "details": "This function uses the redstone-evm-connector*"
      },
      "getStakedValue()": {
        "details": "This function uses the redstone-evm-connector*"
      },
      "getThresholdWeightedValue()": {
        "details": "This function uses the redstone-evm-connector*"
      },
      "getTotalAssetsValue()": {
        "details": "This function uses the redstone-evm-connector*"
      },
      "getTotalValue()": {
        "details": "This function uses the redstone-evm-connector*"
      },
      "getUniqueSignersThreshold()": {
        "details": "This function should be overriden by the child consumer contract.",
        "returns": {
          "_0": "The minimum required value of unique authorised signers"
        }
      },
      "isSolvent()": {
        "details": "This function uses the redstone-evm-connector*"
      },
      "isSolventWithPrices(((bytes32,uint256)[],(bytes32,uint256)[],(bytes32,uint256)[],(bytes32,uint256)[]))": {
        "params": {
          "cachedPrices": "Struct containing arrays of Asset/Price structs used to calculate value of owned assets, debt and staked positions*"
        }
      },
      "validateTimestamp(uint256)": {
        "details": "This function may be overriden by the child consumer contract. It should validate the timestamp against the current time (block.timestamp) It should revert with a helpful message if the timestamp is not valid",
        "params": {
          "receivedTimestampMilliseconds": "Timestamp extracted from calldata"
        }
      }
    },
    "version": 1
  },
  "userdoc": {
    "kind": "user",
    "methods": {
      "_getTotalAssetsValueBase((bytes32,uint256)[])": {
        "notice": "Returns the current value of Prime Account in USD including all tokens as well as staking and LP positions Uses provided AssetPrice struct array instead of extracting the pricing data from the calldata again.*"
      },
      "getAllPricesForLiquidation(bytes32[])": {
        "notice": "Returns CachedPrices struct consisting of Asset/Price arrays for ownedAssets, debtAssets, stakedPositions and assetsToRepay. Used during the liquidation process in order to obtain all necessary prices from calldata only once."
      },
      "getDebt()": {
        "notice": "Returns the current debt denominated in USD"
      },
      "getDebtAssets()": {
        "notice": "Returns an array of bytes32[] symbols of debt (borrowable) assets.*"
      },
      "getDebtAssetsPrices()": {
        "notice": "Returns an array of Asset/Price structs of debt (borrowable) assets."
      },
      "getDebtWithPrices((bytes32,uint256)[])": {
        "notice": "Returns the current debt denominated in USD Uses provided AssetPrice struct array instead of extracting the pricing data from the calldata again.*"
      },
      "getHealthRatio()": {
        "notice": "Returns current health ratio (solvency) associated with the loan, defined as threshold weighted value of divided by current debt"
      },
      "getHealthRatioWithPrices(((bytes32,uint256)[],(bytes32,uint256)[],(bytes32,uint256)[],(bytes32,uint256)[]))": {
        "notice": "Returns current health ratio (solvency) associated with the loan, defined as threshold weighted value of divided by current debt Uses provided AssetPrice struct arrays instead of extracting the pricing data from the calldata again.*"
      },
      "getOwnedAssetsWithNative()": {
        "notice": "Returns list of owned assets that always included NativeToken at index 0*"
      },
      "getOwnedAssetsWithNativePrices()": {
        "notice": "Returns an array of Asset/Price structs of enriched (always containing AVAX at index 0) owned assets."
      },
      "getPrice(bytes32)": {
        "notice": "Helper method exposing the redstone-evm-connector getOracleNumericValueFromTxMsg() method."
      },
      "getPrices(bytes32[])": {
        "notice": "Helper method exposing the redstone-evm-connector getOracleNumericValuesFromTxMsg() method."
      },
      "getStakedPositionsPrices()": {
        "notice": "Returns an array of Asset/Price structs of staked positions."
      },
      "getStakedValue()": {
        "notice": "Returns the current value of staked positions in USD."
      },
      "getStakedValueWithPrices((bytes32,uint256)[])": {
        "notice": "Returns the current value of staked positions in USD. Uses provided AssetPrice struct array instead of extracting the pricing data from the calldata again.*"
      },
      "getThresholdWeightedValue()": {
        "notice": "Returns the threshold weighted value of assets in USD including all tokens as well as staking and LP positions"
      },
      "getThresholdWeightedValueWithPrices((bytes32,uint256)[],(bytes32,uint256)[])": {
        "notice": "Returns the threshold weighted value of assets in USD including all tokens as well as staking and LP positions Uses provided AssetPrice struct arrays instead of extracting the pricing data from the calldata again.*"
      },
      "getTotalAssetsValue()": {
        "notice": "Returns the current value of Prime Account in USD including all tokens as well as staking and LP positions"
      },
      "getTotalAssetsValueWithPrices((bytes32,uint256)[])": {
        "notice": "Returns the current value of Prime Account in USD including all tokens as well as staking and LP positions Uses provided AssetPrice struct array instead of extracting the pricing data from the calldata again.*"
      },
      "getTotalValue()": {
        "notice": "Returns the current value of Prime Account in USD including all tokens as well as staking and LP positions"
      },
      "getTotalValueWithPrices((bytes32,uint256)[],(bytes32,uint256)[])": {
        "notice": "Returns the current value of Prime Account in USD including all tokens as well as staking and LP positions Uses provided AssetPrice struct arrays instead of extracting the pricing data from the calldata again.*"
      },
      "isSolvent()": {
        "notice": "Checks if the loan is solvent. It means that the Health Ratio is greater than 1e18."
      },
      "isSolventWithPrices(((bytes32,uint256)[],(bytes32,uint256)[],(bytes32,uint256)[],(bytes32,uint256)[]))": {
        "notice": "Checks if the loan is solvent. It means that the Health Ratio is greater than 1e18. Uses provided AssetPrice struct arrays instead of extracting the pricing data from the calldata again."
      }
    },
    "version": 1
  },
  "storageLayout": {
    "storage": [],
    "types": null
  }
}