{
  "address": "0x12a0490958079251784FB3C565cCB55B985DC589",
  "abi": [
    {
      "inputs": [],
      "name": "CalldataMustHaveValidPayload",
      "type": "error"
    },
    {
      "inputs": [],
      "name": "CalldataOverOrUnderFlow",
      "type": "error"
    },
    {
      "inputs": [],
      "name": "DataPackageTimestampMustNotBeZero",
      "type": "error"
    },
    {
      "inputs": [],
      "name": "DataPackageTimestampsMustBeEqual",
      "type": "error"
    },
    {
      "inputs": [],
      "name": "EachSignerMustProvideTheSameValue",
      "type": "error"
    },
    {
      "inputs": [],
      "name": "EmptyCalldataPointersArr",
      "type": "error"
    },
    {
      "inputs": [],
      "name": "IncorrectUnsignedMetadataSize",
      "type": "error"
    },
    {
      "inputs": [
        {
          "internalType": "uint256",
          "name": "receivedSignersCount",
          "type": "uint256"
        },
        {
          "internalType": "uint256",
          "name": "requiredSignersCount",
          "type": "uint256"
        }
      ],
      "name": "InsufficientNumberOfUniqueSigners",
      "type": "error"
    },
    {
      "inputs": [],
      "name": "InvalidCalldataPointer",
      "type": "error"
    },
    {
      "inputs": [
        {
          "internalType": "bytes",
          "name": "result",
          "type": "bytes"
        }
      ],
      "name": "ProxyCalldataFailedWithCustomError",
      "type": "error"
    },
    {
      "inputs": [
        {
          "internalType": "string",
          "name": "message",
          "type": "string"
        }
      ],
      "name": "ProxyCalldataFailedWithStringMessage",
      "type": "error"
    },
    {
      "inputs": [],
      "name": "ProxyCalldataFailedWithoutErrMsg",
      "type": "error"
    },
    {
      "inputs": [],
      "name": "RedstonePayloadMustHaveAtLeastOneDataPackage",
      "type": "error"
    },
    {
      "inputs": [],
      "name": "SafeCast__Exceeds24Bits",
      "type": "error"
    },
    {
      "inputs": [
        {
          "internalType": "address",
          "name": "receivedSigner",
          "type": "address"
        }
      ],
      "name": "SignerNotAuthorised",
      "type": "error"
    },
    {
      "inputs": [],
      "name": "Uint256x256Math__MulDivOverflow",
      "type": "error"
    },
    {
      "inputs": [],
      "name": "Uint256x256Math__MulShiftOverflow",
      "type": "error"
    },
    {
      "anonymous": false,
      "inputs": [
        {
          "indexed": true,
          "internalType": "address",
          "name": "owner",
          "type": "address"
        },
        {
          "indexed": true,
          "internalType": "address",
          "name": "spender",
          "type": "address"
        },
        {
          "indexed": false,
          "internalType": "uint256",
          "name": "value",
          "type": "uint256"
        }
      ],
      "name": "Approval",
      "type": "event"
    },
    {
      "anonymous": false,
      "inputs": [
        {
          "indexed": false,
          "internalType": "uint8",
          "name": "version",
          "type": "uint8"
        }
      ],
      "name": "Initialized",
      "type": "event"
    },
    {
      "anonymous": false,
      "inputs": [
        {
          "indexed": true,
          "internalType": "address",
          "name": "from",
          "type": "address"
        },
        {
          "indexed": true,
          "internalType": "address",
          "name": "to",
          "type": "address"
        }
      ],
      "name": "OwnershipTransferRequested",
      "type": "event"
    },
    {
      "anonymous": false,
      "inputs": [
        {
          "indexed": true,
          "internalType": "address",
          "name": "previousOwner",
          "type": "address"
        },
        {
          "indexed": true,
          "internalType": "address",
          "name": "newOwner",
          "type": "address"
        }
      ],
      "name": "OwnershipTransferred",
      "type": "event"
    },
    {
      "anonymous": false,
      "inputs": [
        {
          "indexed": true,
          "internalType": "address",
          "name": "from",
          "type": "address"
        },
        {
          "indexed": true,
          "internalType": "address",
          "name": "to",
          "type": "address"
        },
        {
          "indexed": false,
          "internalType": "uint256",
          "name": "value",
          "type": "uint256"
        }
      ],
      "name": "Transfer",
      "type": "event"
    },
    {
      "inputs": [],
      "name": "MAX_LOCK_TIME",
      "outputs": [
        {
          "internalType": "uint256",
          "name": "",
          "type": "uint256"
        }
      ],
      "stateMutability": "view",
      "type": "function"
    },
    {
      "inputs": [],
      "name": "acceptOwnership",
      "outputs": [],
      "stateMutability": "nonpayable",
      "type": "function"
    },
    {
      "inputs": [
        {
          "internalType": "address",
          "name": "owner",
          "type": "address"
        },
        {
          "internalType": "address",
          "name": "spender",
          "type": "address"
        }
      ],
      "name": "allowance",
      "outputs": [
        {
          "internalType": "uint256",
          "name": "",
          "type": "uint256"
        }
      ],
      "stateMutability": "view",
      "type": "function"
    },
    {
      "inputs": [
        {
          "internalType": "address",
          "name": "spender",
          "type": "address"
        },
        {
          "internalType": "uint256",
          "name": "amount",
          "type": "uint256"
        }
      ],
      "name": "approve",
      "outputs": [
        {
          "internalType": "bool",
          "name": "",
          "type": "bool"
        }
      ],
      "stateMutability": "nonpayable",
      "type": "function"
    },
    {
      "inputs": [
        {
          "internalType": "address",
          "name": "account",
          "type": "address"
        }
      ],
      "name": "balanceOf",
      "outputs": [
        {
          "internalType": "uint256",
          "name": "",
          "type": "uint256"
        }
      ],
      "stateMutability": "view",
      "type": "function"
    },
    {
      "inputs": [
        {
          "internalType": "address",
          "name": "user",
          "type": "address"
        }
      ],
      "name": "binInRange",
      "outputs": [
        {
          "internalType": "bool",
          "name": "",
          "type": "bool"
        }
      ],
      "stateMutability": "view",
      "type": "function"
    },
    {
      "inputs": [],
      "name": "containsOracleCalldata",
      "outputs": [
        {
          "internalType": "bool",
          "name": "",
          "type": "bool"
        }
      ],
      "stateMutability": "view",
      "type": "function"
    },
    {
      "inputs": [],
      "name": "decimals",
      "outputs": [
        {
          "internalType": "uint8",
          "name": "",
          "type": "uint8"
        }
      ],
      "stateMutability": "view",
      "type": "function"
    },
    {
      "inputs": [
        {
          "internalType": "address",
          "name": "spender",
          "type": "address"
        },
        {
          "internalType": "uint256",
          "name": "subtractedValue",
          "type": "uint256"
        }
      ],
      "name": "decreaseAllowance",
      "outputs": [
        {
          "internalType": "bool",
          "name": "",
          "type": "bool"
        }
      ],
      "stateMutability": "nonpayable",
      "type": "function"
    },
    {
      "inputs": [
        {
          "internalType": "uint256",
          "name": "activeIdDesired",
          "type": "uint256"
        },
        {
          "internalType": "uint256",
          "name": "idSlippage",
          "type": "uint256"
        },
        {
          "internalType": "uint256",
          "name": "amountX",
          "type": "uint256"
        },
        {
          "internalType": "uint256",
          "name": "amountY",
          "type": "uint256"
        },
        {
          "internalType": "bool",
          "name": "isRebalance",
          "type": "bool"
        },
        {
          "internalType": "uint256",
          "name": "swapSlippage",
          "type": "uint256"
        }
      ],
      "name": "deposit",
      "outputs": [],
      "stateMutability": "nonpayable",
      "type": "function"
    },
    {
      "inputs": [],
      "name": "extractTimestampsAndAssertAllAreEqual",
      "outputs": [
        {
          "internalType": "uint256",
          "name": "extractedTimestamp",
          "type": "uint256"
        }
      ],
      "stateMutability": "pure",
      "type": "function"
    },
    {
      "inputs": [
        {
          "internalType": "address",
          "name": "account",
          "type": "address"
        }
      ],
      "name": "getFullyVestedLockedBalance",
      "outputs": [
        {
          "internalType": "uint256",
          "name": "fullyVestedBalance",
          "type": "uint256"
        }
      ],
      "stateMutability": "view",
      "type": "function"
    },
    {
      "inputs": [],
      "name": "getLBPair",
      "outputs": [
        {
          "internalType": "contract ILBPair",
          "name": "",
          "type": "address"
        }
      ],
      "stateMutability": "view",
      "type": "function"
    },
    {
      "inputs": [
        {
          "internalType": "address",
          "name": "account",
          "type": "address"
        }
      ],
      "name": "getLockedBalance",
      "outputs": [
        {
          "internalType": "uint256",
          "name": "",
          "type": "uint256"
        }
      ],
      "stateMutability": "view",
      "type": "function"
    },
    {
      "inputs": [],
      "name": "getPoolPrice",
      "outputs": [
        {
          "internalType": "uint256",
          "name": "",
          "type": "uint256"
        }
      ],
      "stateMutability": "view",
      "type": "function"
    },
    {
      "inputs": [],
      "name": "getTokenX",
      "outputs": [
        {
          "internalType": "contract IERC20",
          "name": "",
          "type": "address"
        }
      ],
      "stateMutability": "view",
      "type": "function"
    },
    {
      "inputs": [],
      "name": "getTokenY",
      "outputs": [
        {
          "internalType": "contract IERC20",
          "name": "",
          "type": "address"
        }
      ],
      "stateMutability": "view",
      "type": "function"
    },
    {
      "inputs": [
        {
          "internalType": "address",
          "name": "user",
          "type": "address"
        }
      ],
      "name": "getUserTokenId",
      "outputs": [
        {
          "internalType": "uint256",
          "name": "tokenId",
          "type": "uint256"
        }
      ],
      "stateMutability": "view",
      "type": "function"
    },
    {
      "inputs": [
        {
          "internalType": "address",
          "name": "user",
          "type": "address"
        }
      ],
      "name": "getUserValueInTokenY",
      "outputs": [
        {
          "internalType": "uint256",
          "name": "",
          "type": "uint256"
        }
      ],
      "stateMutability": "view",
      "type": "function"
    },
    {
      "inputs": [
        {
          "internalType": "address",
          "name": "user",
          "type": "address"
        },
        {
          "internalType": "uint256",
          "name": "poolPrice",
          "type": "uint256"
        }
      ],
      "name": "getUserValueInTokenY",
      "outputs": [
        {
          "internalType": "uint256",
          "name": "",
          "type": "uint256"
        }
      ],
      "stateMutability": "view",
      "type": "function"
    },
    {
      "inputs": [
        {
          "internalType": "address",
          "name": "spender",
          "type": "address"
        },
        {
          "internalType": "uint256",
          "name": "addedValue",
          "type": "uint256"
        }
      ],
      "name": "increaseAllowance",
      "outputs": [
        {
          "internalType": "bool",
          "name": "",
          "type": "bool"
        }
      ],
      "stateMutability": "nonpayable",
      "type": "function"
    },
    {
      "inputs": [
        {
          "internalType": "address",
          "name": "tokenX_",
          "type": "address"
        },
        {
          "internalType": "address",
          "name": "tokenY_",
          "type": "address"
        },
        {
          "internalType": "string",
          "name": "name_",
          "type": "string"
        },
        {
          "components": [
            {
              "internalType": "int256",
              "name": "deltaId",
              "type": "int256"
            },
            {
              "internalType": "uint64",
              "name": "distributionX",
              "type": "uint64"
            },
            {
              "internalType": "uint64",
              "name": "distributionY",
              "type": "uint64"
            }
          ],
          "internalType": "struct ISPrimeTraderJoe.DepositForm[]",
          "name": "depositForm_",
          "type": "tuple[]"
        },
        {
          "internalType": "contract IPositionManager",
          "name": "positionManager_",
          "type": "address"
        },
        {
          "internalType": "address",
          "name": "traderJoeV2Router_",
          "type": "address"
        }
      ],
      "name": "initialize",
      "outputs": [],
      "stateMutability": "nonpayable",
      "type": "function"
    },
    {
      "inputs": [],
      "name": "lbPair",
      "outputs": [
        {
          "internalType": "contract ILBPair",
          "name": "",
          "type": "address"
        }
      ],
      "stateMutability": "view",
      "type": "function"
    },
    {
      "inputs": [
        {
          "internalType": "uint256",
          "name": "amount",
          "type": "uint256"
        },
        {
          "internalType": "uint256",
          "name": "lockPeriod",
          "type": "uint256"
        }
      ],
      "name": "lockBalance",
      "outputs": [],
      "stateMutability": "nonpayable",
      "type": "function"
    },
    {
      "inputs": [
        {
          "internalType": "address",
          "name": "",
          "type": "address"
        },
        {
          "internalType": "uint256",
          "name": "",
          "type": "uint256"
        }
      ],
      "name": "locks",
      "outputs": [
        {
          "internalType": "uint256",
          "name": "lockPeriod",
          "type": "uint256"
        },
        {
          "internalType": "uint256",
          "name": "amount",
          "type": "uint256"
        },
        {
          "internalType": "uint256",
          "name": "unlockTime",
          "type": "uint256"
        }
      ],
      "stateMutability": "view",
      "type": "function"
    },
    {
      "inputs": [
        {
          "internalType": "uint256[]",
          "name": "ids",
          "type": "uint256[]"
        },
        {
          "internalType": "uint256[]",
          "name": "amounts",
          "type": "uint256[]"
        },
        {
          "internalType": "uint256",
          "name": "activeIdDesired",
          "type": "uint256"
        },
        {
          "internalType": "uint256",
          "name": "idSlippage",
          "type": "uint256"
        },
        {
          "internalType": "uint256",
          "name": "swapSlippage",
          "type": "uint256"
        }
      ],
      "name": "migrateLiquidity",
      "outputs": [],
      "stateMutability": "nonpayable",
      "type": "function"
    },
    {
      "inputs": [
        {
          "internalType": "address",
          "name": "user",
          "type": "address"
        },
        {
          "internalType": "uint256[]",
          "name": "percentForLocks",
          "type": "uint256[]"
        },
        {
          "internalType": "uint256[]",
          "name": "lockPeriods",
          "type": "uint256[]"
        },
        {
          "internalType": "uint256",
          "name": "amountX",
          "type": "uint256"
        },
        {
          "internalType": "uint256",
          "name": "amountY",
          "type": "uint256"
        }
      ],
      "name": "mintForUserAndLock",
      "outputs": [],
      "stateMutability": "nonpayable",
      "type": "function"
    },
    {
      "inputs": [],
      "name": "name",
      "outputs": [
        {
          "internalType": "string",
          "name": "",
          "type": "string"
        }
      ],
      "stateMutability": "view",
      "type": "function"
    },
    {
      "inputs": [],
      "name": "owner",
      "outputs": [
        {
          "internalType": "address",
          "name": "",
          "type": "address"
        }
      ],
      "stateMutability": "view",
      "type": "function"
    },
    {
      "inputs": [],
      "name": "pendingOwner",
      "outputs": [
        {
          "internalType": "address",
          "name": "",
          "type": "address"
        }
      ],
      "stateMutability": "view",
      "type": "function"
    },
    {
      "inputs": [],
      "name": "positionManager",
      "outputs": [
        {
          "internalType": "contract IPositionManager",
          "name": "",
          "type": "address"
        }
      ],
      "stateMutability": "view",
      "type": "function"
    },
    {
      "inputs": [],
      "name": "renounceOwnership",
      "outputs": [],
      "stateMutability": "nonpayable",
      "type": "function"
    },
    {
      "inputs": [
        {
          "internalType": "contract IVPrimeController",
          "name": "_vPrimeController",
          "type": "address"
        }
      ],
      "name": "setVPrimeControllerAddress",
      "outputs": [],
      "stateMutability": "nonpayable",
      "type": "function"
    },
    {
      "inputs": [],
      "name": "symbol",
      "outputs": [
        {
          "internalType": "string",
          "name": "",
          "type": "string"
        }
      ],
      "stateMutability": "view",
      "type": "function"
    },
    {
      "inputs": [],
      "name": "tokenX",
      "outputs": [
        {
          "internalType": "contract IERC20Metadata",
          "name": "",
          "type": "address"
        }
      ],
      "stateMutability": "view",
      "type": "function"
    },
    {
      "inputs": [],
      "name": "tokenXDecimals",
      "outputs": [
        {
          "internalType": "uint8",
          "name": "",
          "type": "uint8"
        }
      ],
      "stateMutability": "view",
      "type": "function"
    },
    {
      "inputs": [],
      "name": "tokenY",
      "outputs": [
        {
          "internalType": "contract IERC20Metadata",
          "name": "",
          "type": "address"
        }
      ],
      "stateMutability": "view",
      "type": "function"
    },
    {
      "inputs": [],
      "name": "tokenYDecimals",
      "outputs": [
        {
          "internalType": "uint8",
          "name": "",
          "type": "uint8"
        }
      ],
      "stateMutability": "view",
      "type": "function"
    },
    {
      "inputs": [],
      "name": "totalSupply",
      "outputs": [
        {
          "internalType": "uint256",
          "name": "",
          "type": "uint256"
        }
      ],
      "stateMutability": "view",
      "type": "function"
    },
    {
      "inputs": [],
      "name": "traderJoeV2Router",
      "outputs": [
        {
          "internalType": "address",
          "name": "",
          "type": "address"
        }
      ],
      "stateMutability": "view",
      "type": "function"
    },
    {
      "inputs": [
        {
          "internalType": "address",
          "name": "to",
          "type": "address"
        },
        {
          "internalType": "uint256",
          "name": "amount",
          "type": "uint256"
        }
      ],
      "name": "transfer",
      "outputs": [
        {
          "internalType": "bool",
          "name": "",
          "type": "bool"
        }
      ],
      "stateMutability": "nonpayable",
      "type": "function"
    },
    {
      "inputs": [
        {
          "internalType": "address",
          "name": "from",
          "type": "address"
        },
        {
          "internalType": "address",
          "name": "to",
          "type": "address"
        },
        {
          "internalType": "uint256",
          "name": "amount",
          "type": "uint256"
        }
      ],
      "name": "transferFrom",
      "outputs": [
        {
          "internalType": "bool",
          "name": "",
          "type": "bool"
        }
      ],
      "stateMutability": "nonpayable",
      "type": "function"
    },
    {
      "inputs": [
        {
          "internalType": "address",
          "name": "newOwner",
          "type": "address"
        }
      ],
      "name": "transferOwnership",
      "outputs": [],
      "stateMutability": "nonpayable",
      "type": "function"
    },
    {
      "inputs": [],
      "name": "vPrimeController",
      "outputs": [
        {
          "internalType": "contract IVPrimeController",
          "name": "",
          "type": "address"
        }
      ],
      "stateMutability": "view",
      "type": "function"
    },
    {
      "inputs": [
        {
          "internalType": "uint256",
          "name": "share",
          "type": "uint256"
        }
      ],
      "name": "withdraw",
      "outputs": [],
      "stateMutability": "nonpayable",
      "type": "function"
    }
  ],
  "transactionHash": "0x31483f404de6e43ee5638edbe72901a42413b99d98c9e47efc4e7b643a099e99",
  "args": [],
  "numDeployments": 1,
  "solcInputHash": "77a5b6a2b4f55510a85102ed72edfd51",
  "bytecode": "0x608060405234801561001057600080fd5b50615eb680620000216000396000f3fe608060405234801561001057600080fd5b506004361061020f5760003560e01c8063045850b01461021457806305e8746d1461022957806306fdde031461024c578063095ea7b3146102615780630d1870df1461028457806316dc165b1461028c57806318160ddd1461029f578063191723ed146102b15780631cbd5067146102c45780631d648fd1146102d757806320d2a113146102ea57806323b872dd146102fd5780632e1a7d4d14610310578063313ce567146103235780633950935114610343578063447ff262146103565780634671f2151461036957806355a547d51461037d5780635f9c01b114610385578063625af7671461039657806370a08231146103a9578063715018a6146103bc578063791b98bc146103c457806379ba5097146103d7578063808d7c9b146103df578063885a08e0146103f25780638da5cb5b146103fa57806395d89b4114610402578063a457c2d71461040a578063a9059cbb1461041d578063b02d72e914610430578063b425f80214610444578063b5db796114610472578063b7d19fc414610485578063c408689314610498578063c4ce6358146104ab578063d9197fe3146104be578063da10610c146104d1578063dd62ed3e146104e2578063e30c3978146104f5578063eddeebf3146104fd578063f2fde38b14610510578063f4f357b114610523578063fa78668f14610536578063fefd4e4f14610541575b600080fd5b610227610222366004614e74565b610554565b005b60ca546001600160a01b03165b6040516102439190614f77565b60405180910390f35b610254610a5b565b6040516102439190614fdb565b61027461026f366004614fee565b610aed565b6040519015158152602001610243565b610274610b07565b60ca54610236906001600160a01b031681565b6099545b604051908152602001610243565b6102276102bf36600461501a565b610b1b565b6102276102d2366004615080565b610c32565b6102276102e5366004615106565b610ec9565b6102a36102f8366004615197565b6111fa565b61027461030b3660046151b4565b611218565b61022761031e3660046151f5565b61123c565b60cb54600160a81b900460ff165b60405160ff9091168152602001610243565b610274610351366004614fee565b61152f565b60ce54610236906001600160a01b031681565b60cb5461033190600160a81b900460ff1681565b6102a3611551565b60cc546001600160a01b0316610236565b60cc54610236906001600160a01b031681565b6102a36103b7366004615197565b611669565b610227611684565b60cd54610236906001600160a01b031681565b610227611698565b6102276103ed366004615197565b611727565b6102a3611751565b610236611851565b610254611860565b610274610418366004614fee565b61186f565b61027461042b366004614fee565b6118ea565b60cb5461033190600160a01b900460ff1681565b610457610452366004614fee565b6118f8565b60408051938452602084019290925290820152606001610243565b61022761048036600461521c565b61193a565b60cb54610236906001600160a01b031681565b6102a36104a6366004615197565b6119bd565b6102a36104b9366004615197565b611a7c565b6102746104cc366004615197565b611b49565b60cb546001600160a01b0316610236565b6102a36104f0366004615271565b611cf2565b610236611d1d565b6102a361050b366004614fee565b611d2c565b61022761051e366004615197565b611e6a565b60cf54610236906001600160a01b031681565b6102a36305a39a8081565b6102a361054f366004615197565b611f31565b600054610100900460ff16158080156105745750600054600160ff909116105b80610595575061058330612029565b158015610595575060005460ff166001145b6105fd5760405162461bcd60e51b815260206004820152602e60248201527f496e697469616c697a61626c653a20636f6e747261637420697320616c72656160448201526d191e481a5b9a5d1a585b1a5e995960921b60648201526084015b60405180910390fd5b6000805460ff191660011790558015610620576000805461ff0019166101001790555b610628612038565b610630612067565b6106588660405180604001604052806006815260200165735072696d6560d01b815250612096565b60cf80546001600160a01b0319166001600160a01b03841690811790915560408051632233163960e21b81529051600092916388cc58e49160048083019260209291908290030181865afa1580156106b4573d6000803e3d6000fd5b505050506040513d601f19601f820116820180604052508101906106d891906152aa565b60405163704037bd60e01b81526001600160a01b038b811660048301528a811660248301526032604483015291925060009183169063704037bd90606401608060405180830381865afa158015610733573d6000803e3d6000fd5b505050506040513d601f19601f8201168201806040525081019061075791906152c7565b60208181015160cc80546001600160a01b0319166001600160a01b039092169182179055604080516305e8746d60e01b8152905193945090926305e8746d926004808401939192918290030181865afa1580156107b8573d6000803e3d6000fd5b505050506040513d601f19601f820116820180604052508101906107dc91906152aa565b60ca80546001600160a01b0319166001600160a01b0392831617905560cc5460408051633684184360e21b81529051919092169163da10610c9160048083019260209291908290030181865afa15801561083a573d6000803e3d6000fd5b505050506040513d601f19601f8201168201806040525081019061085e91906152aa565b60cb80546001600160a01b0319166001600160a01b0392831617905560ca546040805163313ce56760e01b81529051919092169163313ce5679160048083019260209291908290030181865afa1580156108bc573d6000803e3d6000fd5b505050506040513d601f19601f820116820180604052508101906108e09190615352565b60cb60146101000a81548160ff021916908360ff16021790555060cb60009054906101000a90046001600160a01b03166001600160a01b031663313ce5676040518163ffffffff1660e01b8152600401602060405180830381865afa15801561094d573d6000803e3d6000fd5b505050506040513d601f19601f820116820180604052508101906109719190615352565b60cb60156101000a81548160ff021916908360ff16021790555060005b868110156109ed5760d08888838181106109aa576109aa615375565b8354600181018555600094855260209094206060909102929092019260020290910190506109d882826153a4565b505080806109e59061540c565b91505061098e565b505060cd80546001600160a01b0319166001600160a01b038616179055508015610a51576000805461ff0019169055604051600181527f7f26b83ff96e1f2b6a682f133852f6798a09c465da95921460cefb38474024989060200160405180910390a15b5050505050505050565b6060609a8054610a6a90615425565b80601f0160208091040260200160405190810160405280929190818152602001828054610a9690615425565b8015610ae35780601f10610ab857610100808354040283529160200191610ae3565b820191906000526020600020905b815481529060010190602001808311610ac657829003601f168201915b5050505050905090565b600033610afb8185856120c7565b60019150505b92915050565b6602ed57011e0000601f1936013581161490565b610b236121eb565b6000610b2e336119bd565b9050610b3a8184615459565b610b4333611669565b1015610b905760405162461bcd60e51b815260206004820152601c60248201527b496e73756666696369656e742062616c616e636520746f206c6f636b60201b60448201526064016105f4565b6305a39a80821115610bb45760405162461bcd60e51b81526004016105f49061546c565b33600090815260c960209081526040918290208251606081018452858152918201869052918101610be58542615459565b905281546001808201845560009384526020938490208351600390930201918255928201519281019290925560400151600290910155610c2433612244565b50610c2e60018055565b5050565b610c3a6121eb565b60ca546040516370a0823160e01b81526000916001600160a01b0316906370a0823190610c6b903090600401614f77565b602060405180830381865afa158015610c88573d6000803e3d6000fd5b505050506040513d601f19601f82011682018060405250810190610cac91906154ad565b60cb546040516370a0823160e01b81529192506000916001600160a01b03909116906370a0823190610ce2903090600401614f77565b602060405180830381865afa158015610cff573d6000803e3d6000fd5b505050506040513d601f19601f82011682018060405250810190610d2391906154ad565b60cc546040516364c9cfaf60e11b81529192506001600160a01b03169063c9939f5e90610d5e90339030908e908e908e908e906004016154f8565b6000604051808303816000875af1158015610d7d573d6000803e3d6000fd5b505050506040513d6000823e601f3d908101601f19168201604052610da591908101906155c6565b50610eac3360ca546040516370a0823160e01b81528891889187916001600160a01b0316906370a0823190610dde903090600401614f77565b602060405180830381865afa158015610dfb573d6000803e3d6000fd5b505050506040513d601f19601f82011682018060405250810190610e1f91906154ad565b610e2991906155fa565b60cb546040516370a0823160e01b815287916001600160a01b0316906370a0823190610e59903090600401614f77565b602060405180830381865afa158015610e76573d6000803e3d6000fd5b505050506040513d601f19601f82011682018060405250810190610e9a91906154ad565b610ea491906155fa565b600189612320565b610eb533612244565b5050610ec060018055565b50505050505050565b610ed16121eb565b60cc54604080516336f997b760e21b815290516000926001600160a01b03169163dbe65edc9160048083019260209291908290030181865afa158015610f1b573d6000803e3d6000fd5b505050506040513d601f19601f82011682018060405250810190610f3f919061560d565b62ffffff169050610f4f88611669565b15610f985760405162461bcd60e51b81526020600482015260196024820152782ab9b2b91030b63932b0b23c903430b9903837b9b4ba34b7b760391b60448201526064016105f4565b858414610fb75760405162461bcd60e51b81526004016105f490615632565b610fc333308585612727565b610fd688826000868660006101f4612320565b6000805b60ff81168611156110205788888260ff16818110610ffa57610ffa615375565b905060200201358261100c9190615459565b9150806110188161565b565b915050610fda565b50806064146110635760405162461bcd60e51b815260206004820152600f60248201526e14da1bdd5b19081b1bd8dac8185b1b608a1b60448201526064016105f4565b600061106e8a611669565b90506000915060005b60ff81168711156111e4576305a39a8088888360ff1681811061109c5761109c615375565b9050602002013511156110c15760405162461bcd60e51b81526004016105f49061546c565b60006110ce6001896155fa565b8260ff161461110f5760648b8b8460ff168181106110ee576110ee615375565b9050602002013584611100919061567a565b61110a91906156a7565b611119565b61111984846155fa565b6001600160a01b038d16600090815260c9602052604090819020815160608101909252919250808b8b60ff871681811061115557611155615375565b9050602002013581526020018381526020018b8b8660ff1681811061117c5761117c615375565b905060200201354261118e9190615459565b9052815460018181018455600093845260209384902083516003909302019182559282015192810192909255604001516002909101556111ce8185615459565b93505080806111dc9061565b565b915050611077565b506111ee8a612244565b505050610ec060018055565b600080611205611751565b90506112118382611d2c565b9392505050565b6000336112268582856127b8565b61123185858561282c565b506001949350505050565b6112446121eb565b600061124f33611f31565b90506000811161129b5760405162461bcd60e51b81526020600482015260176024820152764e6f20506f736974696f6e20746f20776974686472617760481b60448201526064016105f4565b60cd5460405163133f757160e31b81526004810183905260009182916001600160a01b03909116906399fbab8890602401600060405180830381865afa1580156112e9573d6000803e3d6000fd5b505050506040513d6000823e601f3d908101601f1916820160405261131191908101906156c9565b60cd5460405163b91e526f60e01b815260048101849052929850909650600095506001600160a01b0316935063b91e526f92506024019050600060405180830381865afa158015611366573d6000803e3d6000fd5b505050506040513d6000823e601f3d908101601f1916820160405261138e9190810190615753565b9050600061139b336119bd565b90506113a78187615459565b6113b033611669565b10156113f25760405162461bcd60e51b815260206004820152601160248201527010985b185b98d9481a5cc81b1bd8dad959607a1b60448201526064016105f4565b60008060006114068560000151878b6129d6565b60cd54604080516080810182528d8152602081018f90528082018490526000606082015290516325f9c4dd60e21b81529497509295509093506001600160a01b0316916397e713749161145b91600401615834565b600060405180830381600087803b15801561147557600080fd5b505af1158015611489573d6000803e3d6000fd5b50505050886114986103b73390565b036114fc5760cd54604051630852cd8d60e31b8152600481018a90526001600160a01b03909116906342966c6890602401600060405180830381600087803b1580156114e357600080fd5b505af11580156114f7573d6000803e3d6000fd5b505050505b611506338a612e5c565b61151230338585612727565b61151b33612244565b505050505050505061152c60018055565b50565b600033610afb8185856115428383611cf2565b61154c9190615459565b6120c7565b60008061155c612f96565b905060006115698261303d565b61ffff1690508060000361159057604051632154bfcf60e21b815260040160405180910390fd5b61159b600283615459565b915060005b818110156116635760006115b384613077565b90506000806115c3606887615459565b905060006115d182366155fa565b9050803592508265ffffffffffff1660000361160057604051630336dc9d60e41b815260040160405180910390fd5b87600003611618578265ffffffffffff169750611640565b878365ffffffffffff16146116405760405163d9d1f46560e01b815260040160405180910390fd5b61164a8488615459565b965050505050808061165b9061540c565b9150506115a0565b50505090565b6001600160a01b031660009081526097602052604090205490565b61168c6130b3565b6116966000613112565b565b60006116a2613164565b9050336001600160a01b038216146117145760405162461bcd60e51b815260206004820152602f60248201527f50656e64696e674f776e61626c653a2063616c6c6572206973206e6f7420746860448201526e32903832b73234b7339037bbb732b960891b60648201526084016105f4565b61171d81613112565b61152c6000613177565b61172f6130b3565b60ce80546001600160a01b0319166001600160a01b0392909216919091179055565b60cc54604080516336f997b760e21b815290516000928392611832926001600160a01b0390921691634c7cffbd91839163dbe65edc916004808201926020929091908290030181865afa1580156117ac573d6000803e3d6000fd5b505050506040513d601f19601f820116820180604052508101906117d0919061560d565b6040518263ffffffff1660e01b81526004016117ec919061587c565b602060405180830381865afa158015611809573d6000803e3d6000fd5b505050506040513d601f19601f8201168201806040525081019061182d91906154ad565b613189565b905061184b816305f5e100670de0b6b3a764000061319f565b91505090565b6065546001600160a01b031690565b6060609b8054610a6a90615425565b6000338161187d8286611cf2565b9050838110156118dd5760405162461bcd60e51b815260206004820152602560248201527f45524332303a2064656372656173656420616c6c6f77616e63652062656c6f77604482015264207a65726f60d81b60648201526084016105f4565b61123182868684036120c7565b600033610afb81858561282c565b60c9602052816000526040600020818154811061191457600080fd5b600091825260209091206003909102018054600182015460029092015490935090915083565b6119426121eb565b6101f48111156119885760405162461bcd60e51b81526020600482015260116024820152700a6d8d2e0e0c2ceca40e8dede40d0d2ced607b1b60448201526064016105f4565b61199433308686612727565b6119a333878787878787612320565b6119ac33612244565b6119b560018055565b505050505050565b6001600160a01b038116600090815260c960205260408120548190815b818114611a73576001600160a01b038516600090815260c960205260408120805483908110611a0b57611a0b615375565b9060005260206000209060030201604051806060016040529081600082015481526020016001820154815260200160028201548152505090504281604001511115611a62576020810151611a5f9085615459565b93505b50611a6c8161540c565b90506119da565b50909392505050565b6001600160a01b038116600090815260c96020526040812054815b818114611b42576001600160a01b038416600090815260c960205260408120805483908110611ac857611ac8615375565b9060005260206000209060030201604051806060016040529081600082015481526020016001820154815260200160028201548152505090504281604001511115611b3157611b24816020015182600001516305a39a8061319f565b611b2e9085615459565b93505b50611b3b8161540c565b9050611a97565b5050919050565b600080611b5583611f31565b905060008111611b955760405162461bcd60e51b815260206004820152600b60248201526a2737903837b9b4ba34b7b760a91b60448201526064016105f4565b60cd546040516312431a6360e01b8152600481018390526000916001600160a01b0316906312431a6390602401600060405180830381865afa158015611bdf573d6000803e3d6000fd5b505050506040513d6000823e601f3d908101601f19168201604052611c079190810190615753565b805160cc54604080516336f997b760e21b8152905193945091926000926001600160a01b039092169163dbe65edc9160048083019260209291908290030181865afa158015611c5a573d6000803e3d6000fd5b505050506040513d601f19601f82011682018060405250810190611c7e919061560d565b62ffffff1690508082600081518110611c9957611c99615375565b602002602001015111158015611cd55750808260018451611cba91906155fa565b81518110611cca57611cca615375565b602002602001015110155b15611ce65750600195945050505050565b50600095945050505050565b6001600160a01b03918216600090815260986020908152604080832093909416825291909152205490565b6000611d27613164565b905090565b60cd54600090819081906001600160a01b03166399fbab88611d4d87611f31565b6040518263ffffffff1660e01b8152600401611d6b91815260200190565b600060405180830381865afa158015611d88573d6000803e3d6000fd5b505050506040513d6000823e601f3d908101601f19168201604052611db091908101906156c9565b60cd5460405163b91e526f60e01b815260048101849052929850909650600095506001600160a01b0316935063b91e526f92506024019050600060405180830381865afa158015611e05573d6000803e3d6000fd5b505050506040513d6000823e601f3d908101601f19168201604052611e2d9190810190615753565b9050600080611e4183600001518589613318565b91509150611e5482886305f5e10061319f565b611e5e9082615459565b98975050505050505050565b611e726130b3565b6001600160a01b038116611ede5760405162461bcd60e51b815260206004820152602d60248201527f50656e64696e674f776e61626c653a206e6577206f776e65722069732074686560448201526c207a65726f206164647265737360981b60648201526084016105f4565b611ee781613177565b806001600160a01b0316611ef9611851565b6001600160a01b03167fed8889f560326eb138920d842192f0eb3dd22b4f139c87a2c57538e05bae127860405160405180910390a350565b60cd546040516370a0823160e01b815260009182916001600160a01b03909116906370a0823190611f66908690600401614f77565b602060405180830381865afa158015611f83573d6000803e3d6000fd5b505050506040513d601f19601f82011682018060405250810190611fa791906154ad565b11156120245760cd54604051632f745c5960e01b81526001600160a01b0390911690632f745c5990611fe090859060009060040161588c565b602060405180830381865afa158015611ffd573d6000803e3d6000fd5b505050506040513d601f19601f8201168201806040525081019061202191906154ad565b90505b919050565b6001600160a01b03163b151590565b600054610100900460ff1661205f5760405162461bcd60e51b81526004016105f4906158a5565b61169661365a565b600054610100900460ff1661208e5760405162461bcd60e51b81526004016105f4906158a5565b611696613689565b600054610100900460ff166120bd5760405162461bcd60e51b81526004016105f4906158a5565b610c2e82826136b0565b6001600160a01b0383166121295760405162461bcd60e51b8152602060048201526024808201527f45524332303a20617070726f76652066726f6d20746865207a65726f206164646044820152637265737360e01b60648201526084016105f4565b6001600160a01b03821661218a5760405162461bcd60e51b815260206004820152602260248201527f45524332303a20617070726f766520746f20746865207a65726f206164647265604482015261737360f01b60648201526084016105f4565b6001600160a01b0383811660008181526098602090815260408083209487168084529482529182902085905590518481527f8c5be1e5ebec7d5bd14f71427d1e84f3dd0314c0f7b2291e5b200ac8c7c3b925910160405180910390a3505050565b60026001540361223d5760405162461bcd60e51b815260206004820152601f60248201527f5265656e7472616e637947756172643a207265656e7472616e742063616c6c0060448201526064016105f4565b6002600155565b60ce546001600160a01b03161561152c5761225d610b07565b156122b55760ce54604051610c2e916001600160a01b031690612284908490602401614f77565b60408051601f198184030181529190526020810180516001600160e01b0316636cec346160e01b17905260006136f0565b60ce5460405163bf18c23960e01b81526001600160a01b039091169063bf18c239906122e5908490600401614f77565b600060405180830381600087803b1580156122ff57600080fd5b505af1158015612313573d6000803e3d6000fd5b5050505050565b60018055565b600061232b88611f31565b9050600060cc60009054906101000a90046001600160a01b03166001600160a01b031663dbe65edc6040518163ffffffff1660e01b8152600401602060405180830381865afa158015612382573d6000803e3d6000fd5b505050506040513d601f19601f820116820180604052508101906123a6919061560d565b62ffffff16905081156125535760cd5460405163133f757160e31b815260048101849052600091829182916001600160a01b0316906399fbab8890602401600060405180830381865afa158015612401573d6000803e3d6000fd5b505050506040513d6000823e601f3d908101601f1916820160405261242991908101906156c9565b955095509550505050819350861561254f5760cd5460405163b91e526f60e01b8152600481018490526000916001600160a01b03169063b91e526f90602401600060405180830381865afa158015612485573d6000803e3d6000fd5b505050506040513d6000823e601f3d908101601f191682016040526124ad9190810190615753565b90506000806124c1836000015185886129d6565b5060cd54604051630852cd8d60e31b8152600481018c90529294509092506001600160a01b0316906342966c6890602401600060405180830381600087803b15801561250c57600080fd5b505af1158015612520573d6000803e3d6000fd5b5050505061252e8f87612e5c565b612538828d615459565b612542828d615459565b909c509a50600097505050505b5050505b61255e868685613784565b60cc54604080516336f997b760e21b815290519399509197506001600160a01b03169163dbe65edc916004808201926020929091908290030181865afa1580156125ac573d6000803e3d6000fd5b505050506040513d601f19601f820116820180604052508101906125d0919061560d565b62ffffff168114806125e0575081155b61261d5760405162461bcd60e51b815260206004820152600e60248201526d109a5b881a590818da185b99d95960921b60448201526064016105f4565b60cc60009054906101000a90046001600160a01b03166001600160a01b031663dbe65edc6040518163ffffffff1660e01b8152600401602060405180830381865afa158015612670573d6000803e3d6000fd5b505050506040513d601f19601f82011682018060405250810190612694919061560d565b62ffffff169050806126a6888a615459565b101580156126bd5750876126ba8883615459565b10155b6126f95760405162461bcd60e51b815260206004820152600d60248201526c0a6d8d2e0e0c2ceca4090d2ced609b1b60448201526064016105f4565b60cc546127129030906001600160a01b03168888612727565b61271c8982613bb2565b505050505050505050565b306001600160a01b038516036127765781156127545760ca54612754906001600160a01b03168484613e79565b80156127715760cb54612771906001600160a01b03168483613e79565b6127b2565b81156127945760ca54612794906001600160a01b0316858585613ecf565b80156127b25760cb546127b2906001600160a01b0316858584613ecf565b50505050565b60006127c48484611cf2565b905060001981146127b2578181101561281f5760405162461bcd60e51b815260206004820152601d60248201527f45524332303a20696e73756666696369656e7420616c6c6f77616e636500000060448201526064016105f4565b6127b284848484036120c7565b6001600160a01b0383166128905760405162461bcd60e51b815260206004820152602560248201527f45524332303a207472616e736665722066726f6d20746865207a65726f206164604482015264647265737360d81b60648201526084016105f4565b6001600160a01b0382166128f25760405162461bcd60e51b815260206004820152602360248201527f45524332303a207472616e7366657220746f20746865207a65726f206164647260448201526265737360e81b60648201526084016105f4565b6128fd838383613ef0565b6001600160a01b038316600090815260976020526040902054818110156129755760405162461bcd60e51b815260206004820152602660248201527f45524332303a207472616e7366657220616d6f756e7420657863656564732062604482015265616c616e636560d01b60648201526084016105f4565b6001600160a01b038085166000818152609760205260408082208686039055928616808252908390208054860190559151600080516020615e61833981519152906129c39086815260200190565b60405180910390a36127b28484846142da565b600080606084518651146129fc5760405162461bcd60e51b81526004016105f490615632565b600080612a0833611669565b88519091506000816001600160401b03811115612a2757612a27614de3565b604051908082528060200260200182016040528015612a50578160200160208202803683370190505b5090506000826001600160401b03811115612a6d57612a6d614de3565b604051908082528060200260200182016040528015612a96578160200160208202803683370190505b509050826001600160401b03811115612ab157612ab1614de3565b604051908082528060200260200182016040528015612ada578160200160208202803683370190505b50955060005b83811015612bd05760008c8281518110612afc57612afc615375565b60200260200101519050612b2a8c8381518110612b1b57612b1b615375565b60200260200101518c8861319f565b888381518110612b3c57612b3c615375565b602002602001018181525050878281518110612b5a57612b5a615375565b6020026020010151600014612bc75780848881518110612b7c57612b7c615375565b602002602001018181525050878281518110612b9a57612b9a615375565b6020026020010151838881518110612bb457612bb4615375565b6020026020010181815250508660010196505b50600101612ae0565b5060ca546040516370a0823160e01b81526000916001600160a01b0316906370a0823190612c02903090600401614f77565b602060405180830381865afa158015612c1f573d6000803e3d6000fd5b505050506040513d601f19601f82011682018060405250810190612c4391906154ad565b60cb546040516370a0823160e01b81529192506000916001600160a01b03909116906370a0823190612c79903090600401614f77565b602060405180830381865afa158015612c96573d6000803e3d6000fd5b505050506040513d601f19601f82011682018060405250810190612cba91906154ad565b90508615612d4f57848714612cd0578684528683525b60cc546040516364c9cfaf60e11b81526001600160a01b039091169063c9939f5e90612d069030908190899089906004016158f0565b6000604051808303816000875af1158015612d25573d6000803e3d6000fd5b505050506040513d6000823e601f3d908101601f19168201604052612d4d91908101906155c6565b505b60ca546040516370a0823160e01b815283916001600160a01b0316906370a0823190612d7f903090600401614f77565b602060405180830381865afa158015612d9c573d6000803e3d6000fd5b505050506040513d601f19601f82011682018060405250810190612dc091906154ad565b612dca91906155fa565b60cb546040516370a0823160e01b8152919b5082916001600160a01b03909116906370a0823190612dff903090600401614f77565b602060405180830381865afa158015612e1c573d6000803e3d6000fd5b505050506040513d601f19601f82011682018060405250810190612e4091906154ad565b612e4a91906155fa565b98505050505050505093509350939050565b6001600160a01b038216612ebc5760405162461bcd60e51b815260206004820152602160248201527f45524332303a206275726e2066726f6d20746865207a65726f206164647265736044820152607360f81b60648201526084016105f4565b612ec882600083613ef0565b6001600160a01b03821660009081526097602052604090205481811015612f3c5760405162461bcd60e51b815260206004820152602260248201527f45524332303a206275726e20616d6f756e7420657863656564732062616c616e604482015261636560f01b60648201526084016105f4565b6001600160a01b0383166000818152609760209081526040808320868603905560998054879003905551858152919291600080516020615e61833981519152910160405180910390a3612f91836000846142da565b505050565b60006602ed57011e0000601f1936013581161480612fc7576040516373bb264f60e11b815260040160405180910390fd5b60003660291115612feb57604051632bcb7bc560e11b815260040160405180910390fd5b5060281936013560006009613006600362ffffff8516615459565b6130109190615459565b90503661301e600283615459565b11156112115760405163c30a7bd760e01b815260040160405180910390fd5b60008061304b602084615459565b90503681111561306e57604051632bcb7bc560e11b815260040160405180910390fd5b36033592915050565b600080600061308584614311565b9092509050604e613097826020615459565b6130a1908461567a565b6130ab9190615459565b949350505050565b336130bc611851565b6001600160a01b0316146116965760405162461bcd60e51b815260206004820181905260248201527f4f776e61626c653a2063616c6c6572206973206e6f7420746865206f776e657260448201526064016105f4565b606580546001600160a01b038381166001600160a01b0319831681179093556040519116919082907f8be0079c531659141344cd1fd0a4f28419497f9722a3daafe3b4186f6b6457e090600090a35050565b600080516020615e418339815191525490565b600080516020615e4183398151915255565b600061202182670de0b6b3a76400006080614368565b60008080600019858709858702925082811083820303915050806000036131d857600084116131cd57600080fd5b508290049050611211565b8084116131e457600080fd5b600084868809808403938111909203919050600061320486196001615459565b8616958690049593849004936000819003046001019050613225818461567a565b90931792600061323687600361567a565b6002189050613245818861567a565b6132509060026155fa565b61325a908261567a565b9050613266818861567a565b6132719060026155fa565b61327b908261567a565b9050613287818861567a565b6132929060026155fa565b61329c908261567a565b90506132a8818861567a565b6132b39060026155fa565b6132bd908261567a565b90506132c9818861567a565b6132d49060026155fa565b6132de908261567a565b90506132ea818861567a565b6132f59060026155fa565b6132ff908261567a565b905061330b818661567a565b9998505050505050505050565b600080835185511461335e5760405162461bcd60e51b815260206004820152600f60248201526e098cadccee8d04088d2e6dac2e8c6d608b1b60448201526064016105f4565b60cb5461338690849061337c90600160a81b900460ff16600a615a12565b6305f5e10061319f565b60cc549093506000906001600160a01b031663f5e293296133a6866143d6565b6040518263ffffffff1660e01b81526004016133c491815260200190565b602060405180830381865afa1580156133e1573d6000803e3d6000fd5b505050506040513d601f19601f82011682018060405250810190613405919061560d565b905060005b865181101561365057600061343788838151811061342a5761342a615375565b60200260200101516143ec565b9050600087838151811061344d5761344d615375565b602090810291909101015160cc54604051630157d2d160e31b815291925060009182916001600160a01b031690630abe96889061348e90879060040161587c565b6040805180830381865afa1580156134aa573d6000803e3d6000fd5b505050506040513d601f19601f820116820180604052508101906134ce9190615a38565b60cc54604051634c7cffbd60e01b81526001600160801b039384169550919092169250600091613518916001600160a01b0390911690634c7cffbd906117ec90899060040161587c565b60cc5460405163bd85b03960e01b81529192506000916001600160a01b039091169063bd85b0399061354e90899060040161587c565b602060405180830381865afa15801561356b573d6000803e3d6000fd5b505050506040513d601f19601f8201168201806040525081019061358f91906154ad565b9050600061359e868684614412565b905060006135ad878685614412565b90508762ffffff168a62ffffff1611156135e9576135d481670de0b6b3a76400008661319f565b6135de9083615459565b91506000905061361f565b8762ffffff168a62ffffff16101561361f5761360e8285670de0b6b3a764000061319f565b6136189082615459565b9050600091505b613629828d615459565b9b50613635818c615459565b9a505050505050505050806136499061540c565b905061340a565b5050935093915050565b600054610100900460ff166136815760405162461bcd60e51b81526004016105f4906158a5565b61169661443c565b600054610100900460ff1661231a5760405162461bcd60e51b81526004016105f4906158a5565b600054610100900460ff166136d75760405162461bcd60e51b81526004016105f4906158a5565b609a6136e38382615ab1565b50609b612f918282615ab1565b606060006136fd8461446c565b9050600080866001600160a01b03168561371857600061371a565b345b846040516137289190615b70565b60006040518083038185875af1925050503d8060008114613765576040519150601f19603f3d011682016040523d82523d6000602084013e61376a565b606091505b509150915061377982826144fb565b979650505050505050565b600080600061379286614578565b90508085106000816137ad576137a883886155fa565b6137b7565b6137b787846155fa565b9050806137c9886101f461271061319f565b1080156137de575060008311806137de575087155b15613ba65760cc54604080516336f997b760e21b81529051600092839261383e926001600160a01b0390921691634c7cffbd91839163dbe65edc916004808201926020929091908290030181865afa1580156117ac573d6000803e3d6000fd5b905061385d61384e6002856156a7565b670de0b6b3a76400008361319f565b91506000905061386e6002846156a7565b90508361387c57808261387f565b81815b60408051600280825260608201835293955091935060009290602083019080368337019050509050841561394e5760ca5481516001600160a01b039091169082906000906138cf576138cf615375565b6001600160a01b03928316602091820292909201015260cb5482519116908290600190811061390057613900615375565b6001600160a01b03928316602091820292909201015260cf5460ca5461392c92908116911660006146a7565b60cf5460ca54613949916001600160a01b039182169116856146a7565b6139ea565b60cb5481516001600160a01b0390911690829060009061397057613970615375565b6001600160a01b03928316602091820292909201015260ca548251911690829060019081106139a1576139a1615375565b6001600160a01b03928316602091820292909201015260cf5460cb546139cd92908116911660006146a7565b60cf5460cb546139ea916001600160a01b039182169116856146a7565b60408051600180825281830190925260009160208083019080368337019050509050600381600081518110613a2157613a21615375565b60200260200101906003811115613a3a57613a3a615b8c565b90816003811115613a4d57613a4d615b8c565b90525060408051600180825281830190925260009160208083019080368337019050509050603261ffff1681600081518110613a8b57613a8b615375565b6020026020010181815250506000604051806060016040528083815260200184815260200185815250905060cf60009054906101000a90046001600160a01b03166001600160a01b0316632a443fae876127108f612710613aec91906155fa565b613af6908a61567a565b613b0091906156a7565b8430426040518663ffffffff1660e01b8152600401613b23959493929190615bdb565b6020604051808303816000875af1158015613b42573d6000803e3d6000fd5b505050506040513d601f19601f82011682018060405250810190613b6691906154ad565b945087613b8657613b77858f615459565b613b81878f6155fa565b613b9a565b613b90868f6155fa565b613b9a868f615459565b909e509c505050505050505b50959694955050505050565b60cd5460405163b91e526f60e01b8152600481018390526000916001600160a01b03169063b91e526f90602401600060405180830381865afa158015613bfc573d6000803e3d6000fd5b505050506040513d6000823e601f3d908101601f19168201604052613c249190810190615753565b805151909150600003613c4257613c3a826147ab565b825260208201525b60cc54602082015160405163383d15c560e01b8152600092839283926001600160a01b039092169163383d15c591613c81913091908b90600401615cad565b6000604051808303816000875af1158015613ca0573d6000803e3d6000fd5b505050506040513d6000823e601f3d908101601f19168201604052613cc89190810190615ce2565b9250925092506000613d2b613ce3846001600160801b031690565b613cf6906001600160801b038716615d32565b6001600160801b0316613d098560801c90565b613d138760801c90565b613d1d9190615d32565b6001600160801b0316614966565b90506000613d3888611f31565b905080600003613dee5760cd546040805160c0810182526001600160a01b038b8116825260208083018790528284018c9052606083018890528a01516080830152895160a0830152915163124f70a960e01b8152919092169163124f70a991613da49190600401615d59565b6020604051808303816000875af1158015613dc3573d6000803e3d6000fd5b505050506040513d601f19601f82011682018060405250810190613de791906154ad565b9050613e6f565b60cd5460408051608081018252838152602081018590528082018690526001606082015290516325f9c4dd60e21b81526001600160a01b03909216916397e7137491613e3c91600401615834565b600060405180830381600087803b158015613e5657600080fd5b505af1158015613e6a573d6000803e3d6000fd5b505050505b610a51888361497e565b612f918363a9059cbb60e01b8484604051602401613e9892919061588c565b60408051601f198184030181529190526020810180516001600160e01b03166001600160e01b031990931692909217909152614a41565b6127b2846323b872dd60e01b858585604051602401613e9893929190615dd7565b6001600160a01b03831615801590613f1057506001600160a01b03821615155b15612f91576000613f20846119bd565b90506000613f2d85611669565b9050613f398284615459565b811015613f7f5760405162461bcd60e51b8152602060048201526014602482015273496e73756666696369656e742042616c616e636560601b60448201526064016105f4565b613f8884611f31565b15613fd55760405162461bcd60e51b815260206004820152601e60248201527f526563656976657220616c726561647920686173206120706f7374696f6e000060448201526064016105f4565b6000613fe086611f31565b90508382036140545760cd546040516333bebb7760e01b81526001600160a01b03909116906333bebb779061401d90899089908690600401615dd7565b600060405180830381600087803b15801561403757600080fd5b505af115801561404b573d6000803e3d6000fd5b505050506119b5565b60cd5460405163133f757160e31b81526004810183905260009182916001600160a01b03909116906399fbab8890602401600060405180830381865afa1580156140a2573d6000803e3d6000fd5b505050506040513d6000823e601f3d908101601f191682016040526140ca91908101906156c9565b60cd5460405163b91e526f60e01b815260048101849052929850909650600095506001600160a01b0316935063b91e526f92506024019050600060405180830381865afa15801561411f573d6000803e3d6000fd5b505050506040513d6000823e601f3d908101601f191682016040526141479190810190615753565b905060005b82518110156141a85761417983828151811061416a5761416a615375565b6020026020010151898861319f565b83828151811061418b5761418b615375565b6020908102919091010152806141a08161540c565b91505061414c565b5060cd5460408051608081018252868152602081018a90528082018590526000606082015290516325f9c4dd60e21b81526001600160a01b03909216916397e71374916141f791600401615834565b600060405180830381600087803b15801561421157600080fd5b505af1158015614225573d6000803e3d6000fd5b505060cd546040805160c0810182526001600160a01b038d8116825260208083018e90528284018a9052606083018990528701516080830152865160a0830152915163124f70a960e01b815291909216935063124f70a9925061428b9190600401615d59565b6020604051808303816000875af11580156142aa573d6000803e3d6000fd5b505050506040513d601f19601f820116820180604052508101906142ce91906154ad565b50505050505050505050565b6001600160a01b038316158015906142fa57506001600160a01b03821615155b15612f915761430883612244565b612f9182612244565b600080808080614322604187615459565b9050600061433b614334602084615459565b3690614b16565b80359450905061434c816003614b16565b62ffffff9490941697933563ffffffff16965092945050505050565b60008060006143778686614b22565b915091508160001461438d578360ff1682901c92505b80156143cd57600160ff85161b81106143b957604051638e471a8960e01b815260040160405180910390fd5b8360ff166101000361ffff1681901b830192505b50509392505050565b6000612021826080670de0b6b3a7640000614b41565b8062ffffff8116811461202457604051639b63641560e01b815260040160405180910390fd5b60008060006144218686614b22565b915091506144328686868585614b67565b9695505050505050565b600054610100900460ff166144635760405162461bcd60e51b81526004016105f4906158a5565b61169633613112565b8051606090600061447b614c17565b905060006144898284615459565b9050368211156144ac57604051632bcb7bc560e11b815260040160405180910390fd5b6060604051905081815285602001848101826020015b818310156144da5782518152602092830192016144c2565b50505082833603856020018301379190920181016020016040529392505050565b60608261457257815160000361452457604051632b3ff13d60e11b815260040160405180910390fd5b602082015162461bcd60e51b148015614557576040516301efd04f60e31b815260448401906105f4908290600401614fdb565b8260405163fd36fde360e01b81526004016105f49190614fdb565b50919050565b600080600060cc60009054906101000a90046001600160a01b03166001600160a01b0316630902f1ac6040518163ffffffff1660e01b81526004016040805180830381865afa1580156145cf573d6000803e3d6000fd5b505050506040513d601f19601f820116820180604052508101906145f39190615a38565b915091506000826001600160801b0316118061461857506000816001600160801b0316115b1561469d5760cc54604080516336f997b760e21b81529051600092614676926001600160a01b0390911691634c7cffbd91839163dbe65edc916004808201926020929091908290030181865afa1580156117ac573d6000803e3d6000fd5b9050670de0b6b3a764000061468b828761567a565b61469591906156a7565b935050611b42565b5060009392505050565b8015806147215750604051636eb1769f60e11b81523060048201526001600160a01b03838116602483015284169063dd62ed3e90604401602060405180830381865afa1580156146fb573d6000803e3d6000fd5b505050506040513d601f19601f8201168201806040525081019061471f91906154ad565b155b61478c5760405162461bcd60e51b815260206004820152603660248201527f5361666545524332303a20617070726f76652066726f6d206e6f6e2d7a65726f60448201527520746f206e6f6e2d7a65726f20616c6c6f77616e636560501b60648201526084016105f4565b612f918363095ea7b360e01b8484604051602401613e9892919061588c565b60d0546060908190806001600160401b038111156147cb576147cb614de3565b6040519080825280602002602001820160405280156147f4578160200160208202803683370190505b509250806001600160401b0381111561480f5761480f614de3565b604051908082528060200260200182016040528015614838578160200160208202803683370190505b50915060005b8181101561495f57600060d0828154811061485b5761485b615375565b6000918252602080832060408051606081018252600290940290910180548085526001909101546001600160401b0380821694860194909452600160401b9004909216908301529092506148af9088615dfb565b9050600081121580156148c5575062ffffff8111155b6148fc5760405162461bcd60e51b81526020600482015260086024820152674f766572666c6f7760c01b60448201526064016105f4565b8085848151811061490f5761490f615375565b60200260200101818152505061492e8260200151836040015183614c82565b86848151811061494057614940615375565b6020026020010181815250505050806149589061540c565b905061483e565b5050915091565b60008061497284614578565b90506130ab8184615459565b6001600160a01b0382166149d45760405162461bcd60e51b815260206004820152601f60248201527f45524332303a206d696e7420746f20746865207a65726f20616464726573730060448201526064016105f4565b6149e060008383613ef0565b80609960008282546149f29190615459565b90915550506001600160a01b038216600081815260976020908152604080832080548601905551848152600080516020615e61833981519152910160405180910390a3610c2e600083836142da565b6000614a96826040518060400160405280602081526020017f5361666545524332303a206c6f772d6c6576656c2063616c6c206661696c6564815250856001600160a01b0316614cb29092919063ffffffff16565b9050805160001480614ab7575080806020019051810190614ab79190615e23565b612f915760405162461bcd60e51b815260206004820152602a60248201527f5361666545524332303a204552433230206f7065726174696f6e20646964206e6044820152691bdd081cdd58d8d9595960b21b60648201526084016105f4565b600061121182846155fa565b6000806000198385098385029250828110838203039150509250929050565b600060ff831684811b9061ffff6101008290031686901c906144329087906001901b8685855b600081600003614b8857838381614b8057614b80615691565b049050614c0e565b838210614ba8576040516313eae71560e01b815260040160405180910390fd5b60008486880960018619810187169687900496600081900381900490910186831190950394850291909503949094049390931792505060026003840281188085028203028085028203028085028203028085028203028085028203028085029091030282025b95945050505050565b600080614c22612f96565b90506000614c2f8261303d565b61ffff169050614c40600283615459565b915060005b81811015614c7a576000614c5884613077565b9050614c648185615459565b9350508080614c729061540c565b915050614c45565b509092915050565b601882901b6301000000600160581b0316605884901b600160581b600160981b03161762ffffff821681176130ab565b60606130ab848460008585600080866001600160a01b03168587604051614cd99190615b70565b60006040518083038185875af1925050503d8060008114614d16576040519150601f19603f3d011682016040523d82523d6000602084013e614d1b565b606091505b50915091506137798783838760608315614d94578251600003614d8d57614d4185612029565b614d8d5760405162461bcd60e51b815260206004820152601d60248201527f416464726573733a2063616c6c20746f206e6f6e2d636f6e747261637400000060448201526064016105f4565b50816130ab565b6130ab8383815115614da95781518083602001fd5b8060405162461bcd60e51b81526004016105f49190614fdb565b6001600160a01b038116811461152c57600080fd5b803561202481614dc3565b634e487b7160e01b600052604160045260246000fd5b604051601f8201601f191681016001600160401b0381118282101715614e2157614e21614de3565b604052919050565b60008083601f840112614e3b57600080fd5b5081356001600160401b03811115614e5257600080fd5b602083019150836020606083028501011115614e6d57600080fd5b9250929050565b600080600080600080600060c0888a031215614e8f57600080fd5b8735614e9a81614dc3565b9650602088810135614eab81614dc3565b965060408901356001600160401b0380821115614ec757600080fd5b818b0191508b601f830112614edb57600080fd5b813581811115614eed57614eed614de3565b614eff601f8201601f19168501614df9565b8181528d85838601011115614f1357600080fd5b818585018683013760009181019094015291965060608a01359180831115614f3a57600080fd5b5050614f488a828b01614e29565b9095509350614f5b905060808901614dd8565b9150614f6960a08901614dd8565b905092959891949750929550565b6001600160a01b0391909116815260200190565b60005b83811015614fa6578181015183820152602001614f8e565b50506000910152565b60008151808452614fc7816020860160208601614f8b565b601f01601f19169290920160200192915050565b6020815260006112116020830184614faf565b6000806040838503121561500157600080fd5b823561500c81614dc3565b946020939093013593505050565b6000806040838503121561502d57600080fd5b50508035926020909101359150565b60008083601f84011261504e57600080fd5b5081356001600160401b0381111561506557600080fd5b6020830191508360208260051b8501011115614e6d57600080fd5b600080600080600080600060a0888a03121561509b57600080fd5b87356001600160401b03808211156150b257600080fd5b6150be8b838c0161503c565b909950975060208a01359150808211156150d757600080fd5b506150e48a828b0161503c565b989b979a50986040810135976060820135975060809091013595509350505050565b600080600080600080600060a0888a03121561512157600080fd5b873561512c81614dc3565b965060208801356001600160401b038082111561514857600080fd5b6151548b838c0161503c565b909850965060408a013591508082111561516d57600080fd5b5061517a8a828b0161503c565b989b979a5095989597966060870135966080013595509350505050565b6000602082840312156151a957600080fd5b813561121181614dc3565b6000806000606084860312156151c957600080fd5b83356151d481614dc3565b925060208401356151e481614dc3565b929592945050506040919091013590565b60006020828403121561520757600080fd5b5035919050565b801515811461152c57600080fd5b60008060008060008060c0878903121561523557600080fd5b86359550602087013594506040870135935060608701359250608087013561525c8161520e565b8092505060a087013590509295509295509295565b6000806040838503121561528457600080fd5b823561528f81614dc3565b9150602083013561529f81614dc3565b809150509250929050565b6000602082840312156152bc57600080fd5b815161121181614dc3565b6000608082840312156152d957600080fd5b604051608081016001600160401b03811182821017156152fb576152fb614de3565b604052825161ffff8116811461531057600080fd5b8152602083015161532081614dc3565b602082015260408301516153338161520e565b604082015260608301516153468161520e565b60608201529392505050565b60006020828403121561536457600080fd5b815160ff8116811461121157600080fd5b634e487b7160e01b600052603260045260246000fd5b600081356001600160401b0381168114610b0157600080fd5b81358155600181016001600160401b036153c06020850161538b565b8254911690600160401b600160801b036153dc6040870161538b565b60401b168260018060801b03198316171783555050505050565b634e487b7160e01b600052601160045260246000fd5b60006001820161541e5761541e6153f6565b5060010190565b600181811c9082168061543957607f821691505b60208210810361457257634e487b7160e01b600052602260045260246000fd5b80820180821115610b0157610b016153f6565b60208082526021908201527f43616e6e6f74206c6f636b20666f72206d6f7265207468616e203320796561726040820152607360f81b606082015260800190565b6000602082840312156154bf57600080fd5b5051919050565b81835260006001600160fb1b038311156154df57600080fd5b8260051b80836020870137939093016020019392505050565b6001600160a01b0387811682528616602082015260806040820181905260009061552590830186886154c6565b828103606084015261330b8185876154c6565b60006001600160401b0382111561555157615551614de3565b5060051b60200190565b600082601f83011261556c57600080fd5b8151602061558161557c83615538565b614df9565b82815260059290921b840181019181810190868411156155a057600080fd5b8286015b848110156155bb57805183529183019183016155a4565b509695505050505050565b6000602082840312156155d857600080fd5b81516001600160401b038111156155ee57600080fd5b6130ab8482850161555b565b81810381811115610b0157610b016153f6565b60006020828403121561561f57600080fd5b815162ffffff8116811461121157600080fd5b6020808252600f908201526e098cadccee8d040c8d2e6dac2e8c6d608b1b604082015260600190565b600060ff821660ff8103615671576156716153f6565b60010192915050565b8082028115828204841417610b0157610b016153f6565b634e487b7160e01b600052601260045260246000fd5b6000826156c457634e487b7160e01b600052601260045260246000fd5b500490565b60008060008060008060c087890312156156e257600080fd5b86516156ed81614dc3565b60208801519096506156fe81614dc3565b604088015190955061570f81614dc3565b6060880151608089015160a08a015192965090945092506001600160401b0381111561573a57600080fd5b61574689828a0161555b565b9150509295509295509295565b60006020828403121561576557600080fd5b81516001600160401b038082111561577c57600080fd5b908301906040828603121561579057600080fd5b6040516040810181811083821117156157ab576157ab614de3565b6040528251828111156157bd57600080fd5b6157c98782860161555b565b8252506020830151828111156157de57600080fd5b6157ea8782860161555b565b60208301525095945050505050565b600081518084526020808501945080840160005b838110156158295781518752958201959082019060010161580d565b509495945050505050565b602081528151602082015260208201516040820152600060408301516080606084015261586460a08401826157f9565b90506060840151151560808401528091505092915050565b62ffffff91909116815260200190565b6001600160a01b03929092168252602082015260400190565b6020808252602b908201527f496e697469616c697a61626c653a20636f6e7472616374206973206e6f74206960408201526a6e697469616c697a696e6760a81b606082015260800190565b6001600160a01b0385811682528416602082015260806040820181905260009061591c908301856157f9565b828103606084015261377981856157f9565b600181815b8085111561596957816000190482111561594f5761594f6153f6565b8085161561595c57918102915b93841c9390800290615933565b509250929050565b60008261598057506001610b01565b8161598d57506000610b01565b81600181146159a357600281146159ad576159c9565b6001915050610b01565b60ff8411156159be576159be6153f6565b50506001821b610b01565b5060208310610133831016604e8410600b84101617156159ec575081810a610b01565b6159f6838361592e565b8060001904821115615a0a57615a0a6153f6565b029392505050565b600061121160ff841683615971565b80516001600160801b038116811461202457600080fd5b60008060408385031215615a4b57600080fd5b615a5483615a21565b9150615a6260208401615a21565b90509250929050565b601f821115612f9157600081815260208120601f850160051c81016020861015615a925750805b601f850160051c820191505b818110156119b557828155600101615a9e565b81516001600160401b03811115615aca57615aca614de3565b615ade81615ad88454615425565b84615a6b565b602080601f831160018114615b135760008415615afb5750858301515b600019600386901b1c1916600185901b1785556119b5565b600085815260208120601f198616915b82811015615b4257888601518255948401946001909101908401615b23565b5085821015615b605787850151600019600388901b60f8161c191681555b5050505050600190811b01905550565b60008251615b82818460208701614f8b565b9190910192915050565b634e487b7160e01b600052602160045260246000fd5b600081518084526020808501945080840160005b838110156158295781516001600160a01b031687529582019590820190600101615bb6565b85815260006020868184015260a060408401528551606060a0850152615c056101008501826157f9565b82880151609f19868303810160c088015281518084529185019350600092909190850190835b81811015615c645785516004808210615c5157634e487b7160e01b875260218152602487fd5b5083529486019491860191600101615c2b565b505060408a01519450818782030160e0880152615c818186615ba2565b95505050505050615c9d60608301856001600160a01b03169052565b8260808301529695505050505050565b600060018060a01b03808616835260606020840152615ccf60608401866157f9565b9150808416604084015250949350505050565b600080600060608486031215615cf757600080fd5b83516020850151604086015191945092506001600160401b03811115615d1c57600080fd5b615d288682870161555b565b9150509250925092565b6001600160801b03828116828216039080821115615d5257615d526153f6565b5092915050565b6020815260018060a01b03825116602082015260208201516040820152604082015160608201526000606083015160c06080840152615d9b60e08401826157f9565b90506080840151601f19808584030160a0860152615db983836157f9565b925060a08601519150808584030160c086015250614c0e82826157f9565b6001600160a01b039384168152919092166020820152604081019190915260600190565b8082018281126000831280158216821582161715615e1b57615e1b6153f6565b505092915050565b600060208284031215615e3557600080fd5b81516112118161520e56fe63a0d9df49fae3f1b9d24f8dc819a568c429a1b11d0d8e9de63df53a0194acb2ddf252ad1be2c89b69c2b068fc378daa952ba7f163c4a11628f55a4df523b3efa264697066735822122063fc14561868a8b56f142c1857e06e21165d0f69969a4ca604d04da3973928d764736f6c63430008110033",
  "devdoc": {
    "kind": "dev",
    "methods": {
      "allowance(address,address)": {
        "details": "See {IERC20-allowance}."
      },
      "approve(address,uint256)": {
        "details": "See {IERC20-approve}. NOTE: If `amount` is the maximum `uint256`, the allowance is not updated on `transferFrom`. This is semantically equivalent to an infinite approval. Requirements: - `spender` cannot be the zero address."
      },
      "balanceOf(address)": {
        "details": "See {IERC20-balanceOf}."
      },
      "binInRange(address)": {
        "details": "Check if the active id is in the user position range",
        "params": {
          "user": "User Address."
        },
        "returns": {
          "_0": "status bin status"
        }
      },
      "decimals()": {
        "details": "Returns the number of decimals used to get its user representation. For example, if `decimals` equals `2`, a balance of `505` tokens should be displayed to a user as `5.05` (`505 / 10 ** 2`). Tokens usually opt for a value of 18, imitating the relationship between Ether and Wei. This is the default value returned by this function, unless it's overridden. NOTE: This information is only used for _display_ purposes: it in no way affects any of the arithmetic of the contract, including {IERC20-balanceOf} and {IERC20-transfer}."
      },
      "decreaseAllowance(address,uint256)": {
        "details": "Atomically decreases the allowance granted to `spender` by the caller. This is an alternative to {approve} that can be used as a mitigation for problems described in {IERC20-approve}. Emits an {Approval} event indicating the updated allowance. Requirements: - `spender` cannot be the zero address. - `spender` must have allowance for the caller of at least `subtractedValue`."
      },
      "deposit(uint256,uint256,uint256,uint256,bool,uint256)": {
        "details": "Users can use deposit function for depositing tokens to the specific bin.",
        "params": {
          "activeIdDesired": "The active id that user wants to add liquidity from",
          "amountX": "The amount of token X to deposit.",
          "amountY": "The amount of token Y to deposit.",
          "idSlippage": "The number of id that are allowed to slip",
          "isRebalance": "Rebalance the existing position with deposit.",
          "swapSlippage": "Slippage for the rebalance."
        }
      },
      "getFullyVestedLockedBalance(address)": {
        "details": "Returns the fully vested locked balance for an account.Full business logic description can be found in Pool::getFullyVestedLockedBalance() docstring",
        "params": {
          "account": "The address of the account."
        },
        "returns": {
          "fullyVestedBalance": "Fully vested locked balance"
        }
      },
      "getLockedBalance(address)": {
        "details": "Returns the total locked balance of an account.",
        "params": {
          "account": "The address of the account."
        },
        "returns": {
          "_0": "The total locked balance of the account."
        }
      },
      "getUserTokenId(address)": {
        "details": "Returns the token id for the user",
        "params": {
          "user": "The user address"
        },
        "returns": {
          "tokenId": "token id owned by the user"
        }
      },
      "getUserValueInTokenY(address)": {
        "details": "Returns the estimated USD value of the user position",
        "params": {
          "user": "User Address"
        },
        "returns": {
          "_0": "Total Value in tokenY amount for the user's position."
        }
      },
      "getUserValueInTokenY(address,uint256)": {
        "details": "Returns the estimated USD value of the user position",
        "params": {
          "poolPrice": "Pool Price or oracle price for calculating proper token amount",
          "user": "User Address"
        },
        "returns": {
          "_0": "Total Value in tokenY amount for the user's position."
        }
      },
      "increaseAllowance(address,uint256)": {
        "details": "Atomically increases the allowance granted to `spender` by the caller. This is an alternative to {approve} that can be used as a mitigation for problems described in {IERC20-approve}. Emits an {Approval} event indicating the updated allowance. Requirements: - `spender` cannot be the zero address."
      },
      "initialize(address,address,string,(int256,uint64,uint64)[],address,address)": {
        "details": "initialize of the contract.",
        "params": {
          "depositForm_": "Pre-defined distributions and delta ids",
          "name_": "The name of the SPrime token. ex: PRIME-USDC LP",
          "positionManager_": "Position Manager contract for sPrime",
          "tokenX_": "The address of the token X.",
          "tokenY_": "The address of the token Y.",
          "traderJoeV2Router_": "Trader Joe V2 Router Address"
        }
      },
      "lockBalance(uint256,uint256)": {
        "details": "Locks a specified amount of balance for a specified lock period.",
        "params": {
          "amount": "The amount of balance to be locked.",
          "lockPeriod": "The duration for which the balance will be locked."
        }
      },
      "migrateLiquidity(uint256[],uint256[],uint256,uint256,uint256)": {
        "details": "Users can use deposit function for depositing tokens to the specific bin.",
        "params": {
          "activeIdDesired": "The active id that user wants to add liquidity from",
          "amounts": "Minted LBT amount for each deposit id",
          "idSlippage": "The number of id that are allowed to slip",
          "ids": "Depoisit Ids from TraderJoe",
          "swapSlippage": "Slippage for the rebalance."
        }
      },
      "mintForUserAndLock(address,uint256[],uint256[],uint256,uint256)": {
        "details": "Users can use deposit function for depositing tokens to the specific bin.",
        "params": {
          "amountX": "The amount of token X to deposit.",
          "amountY": "The amount of token Y to deposit.",
          "lockPeriods": "Lock period to Lock for each amount",
          "percentForLocks": "sPrime amount % to lock",
          "user": "The active id that user wants to add liquidity from"
        }
      },
      "name()": {
        "details": "Returns the name of the token."
      },
      "owner()": {
        "details": "Returns the address of the current owner."
      },
      "renounceOwnership()": {
        "details": "Leaves the contract without owner. It will not be possible to call `onlyOwner` functions. Can only be called by the current owner. NOTE: Renouncing ownership will leave the contract without an owner, thereby disabling any functionality that is only available to the owner."
      },
      "symbol()": {
        "details": "Returns the symbol of the token, usually a shorter version of the name."
      },
      "totalSupply()": {
        "details": "See {IERC20-totalSupply}."
      },
      "transfer(address,uint256)": {
        "details": "See {IERC20-transfer}. Requirements: - `to` cannot be the zero address. - the caller must have a balance of at least `amount`."
      },
      "transferFrom(address,address,uint256)": {
        "details": "See {IERC20-transferFrom}. Emits an {Approval} event indicating the updated allowance. This is not required by the EIP. See the note at the beginning of {ERC20}. NOTE: Does not update the allowance if the current allowance is the maximum `uint256`. Requirements: - `from` and `to` cannot be the zero address. - `from` must have a balance of at least `amount`. - the caller must have allowance for ``from``'s tokens of at least `amount`."
      },
      "withdraw(uint256)": {
        "details": "Users can use withdraw function for withdrawing their share.",
        "params": {
          "share": "Amount to withdraw"
        }
      }
    },
    "version": 1
  },
  "userdoc": {
    "kind": "user",
    "methods": {
      "getLBPair()": {
        "notice": "Public View Functions "
      }
    },
    "version": 1
  },
  "storageLayout": {
    "storage": [
      {
        "astId": 138,
        "contract": "contracts/token/sPrime.sol:SPrime",
        "label": "_initialized",
        "offset": 0,
        "slot": "0",
        "type": "t_uint8"
      },
      {
        "astId": 141,
        "contract": "contracts/token/sPrime.sol:SPrime",
        "label": "_initializing",
        "offset": 1,
        "slot": "0",
        "type": "t_bool"
      },
      {
        "astId": 314,
        "contract": "contracts/token/sPrime.sol:SPrime",
        "label": "_status",
        "offset": 0,
        "slot": "1",
        "type": "t_uint256"
      },
      {
        "astId": 383,
        "contract": "contracts/token/sPrime.sol:SPrime",
        "label": "__gap",
        "offset": 0,
        "slot": "2",
        "type": "t_array(t_uint256)49_storage"
      },
      {
        "astId": 1470,
        "contract": "contracts/token/sPrime.sol:SPrime",
        "label": "__gap",
        "offset": 0,
        "slot": "51",
        "type": "t_array(t_uint256)50_storage"
      },
      {
        "astId": 10,
        "contract": "contracts/token/sPrime.sol:SPrime",
        "label": "_owner",
        "offset": 0,
        "slot": "101",
        "type": "t_address"
      },
      {
        "astId": 130,
        "contract": "contracts/token/sPrime.sol:SPrime",
        "label": "__gap",
        "offset": 0,
        "slot": "102",
        "type": "t_array(t_uint256)49_storage"
      },
      {
        "astId": 403,
        "contract": "contracts/token/sPrime.sol:SPrime",
        "label": "_balances",
        "offset": 0,
        "slot": "151",
        "type": "t_mapping(t_address,t_uint256)"
      },
      {
        "astId": 409,
        "contract": "contracts/token/sPrime.sol:SPrime",
        "label": "_allowances",
        "offset": 0,
        "slot": "152",
        "type": "t_mapping(t_address,t_mapping(t_address,t_uint256))"
      },
      {
        "astId": 411,
        "contract": "contracts/token/sPrime.sol:SPrime",
        "label": "_totalSupply",
        "offset": 0,
        "slot": "153",
        "type": "t_uint256"
      },
      {
        "astId": 413,
        "contract": "contracts/token/sPrime.sol:SPrime",
        "label": "_name",
        "offset": 0,
        "slot": "154",
        "type": "t_string_storage"
      },
      {
        "astId": 415,
        "contract": "contracts/token/sPrime.sol:SPrime",
        "label": "_symbol",
        "offset": 0,
        "slot": "155",
        "type": "t_string_storage"
      },
      {
        "astId": 995,
        "contract": "contracts/token/sPrime.sol:SPrime",
        "label": "__gap",
        "offset": 0,
        "slot": "156",
        "type": "t_array(t_uint256)45_storage"
      },
      {
        "astId": 9447,
        "contract": "contracts/token/sPrime.sol:SPrime",
        "label": "locks",
        "offset": 0,
        "slot": "201",
        "type": "t_mapping(t_address,t_array(t_struct(LockDetails)3703_storage)dyn_storage)"
      },
      {
        "astId": 9450,
        "contract": "contracts/token/sPrime.sol:SPrime",
        "label": "tokenX",
        "offset": 0,
        "slot": "202",
        "type": "t_contract(IERC20Metadata)1574"
      },
      {
        "astId": 9453,
        "contract": "contracts/token/sPrime.sol:SPrime",
        "label": "tokenY",
        "offset": 0,
        "slot": "203",
        "type": "t_contract(IERC20Metadata)1574"
      },
      {
        "astId": 9455,
        "contract": "contracts/token/sPrime.sol:SPrime",
        "label": "tokenXDecimals",
        "offset": 20,
        "slot": "203",
        "type": "t_uint8"
      },
      {
        "astId": 9457,
        "contract": "contracts/token/sPrime.sol:SPrime",
        "label": "tokenYDecimals",
        "offset": 21,
        "slot": "203",
        "type": "t_uint8"
      },
      {
        "astId": 9460,
        "contract": "contracts/token/sPrime.sol:SPrime",
        "label": "lbPair",
        "offset": 0,
        "slot": "204",
        "type": "t_contract(ILBPair)6053"
      },
      {
        "astId": 9463,
        "contract": "contracts/token/sPrime.sol:SPrime",
        "label": "positionManager",
        "offset": 0,
        "slot": "205",
        "type": "t_contract(IPositionManager)3693"
      },
      {
        "astId": 9466,
        "contract": "contracts/token/sPrime.sol:SPrime",
        "label": "vPrimeController",
        "offset": 0,
        "slot": "206",
        "type": "t_contract(IVPrimeController)3798"
      },
      {
        "astId": 9468,
        "contract": "contracts/token/sPrime.sol:SPrime",
        "label": "traderJoeV2Router",
        "offset": 0,
        "slot": "207",
        "type": "t_address"
      },
      {
        "astId": 9472,
        "contract": "contracts/token/sPrime.sol:SPrime",
        "label": "depositForm",
        "offset": 0,
        "slot": "208",
        "type": "t_array(t_struct(DepositForm)3756_storage)dyn_storage"
      }
    ],
    "types": {
      "t_address": {
        "encoding": "inplace",
        "label": "address",
        "numberOfBytes": "20"
      },
      "t_array(t_struct(DepositForm)3756_storage)dyn_storage": {
        "base": "t_struct(DepositForm)3756_storage",
        "encoding": "dynamic_array",
        "label": "struct ISPrimeTraderJoe.DepositForm[]",
        "numberOfBytes": "32"
      },
      "t_array(t_struct(LockDetails)3703_storage)dyn_storage": {
        "base": "t_struct(LockDetails)3703_storage",
        "encoding": "dynamic_array",
        "label": "struct ISPrime.LockDetails[]",
        "numberOfBytes": "32"
      },
      "t_array(t_uint256)45_storage": {
        "base": "t_uint256",
        "encoding": "inplace",
        "label": "uint256[45]",
        "numberOfBytes": "1440"
      },
      "t_array(t_uint256)49_storage": {
        "base": "t_uint256",
        "encoding": "inplace",
        "label": "uint256[49]",
        "numberOfBytes": "1568"
      },
      "t_array(t_uint256)50_storage": {
        "base": "t_uint256",
        "encoding": "inplace",
        "label": "uint256[50]",
        "numberOfBytes": "1600"
      },
      "t_bool": {
        "encoding": "inplace",
        "label": "bool",
        "numberOfBytes": "1"
      },
      "t_contract(IERC20Metadata)1574": {
        "encoding": "inplace",
        "label": "contract IERC20Metadata",
        "numberOfBytes": "20"
      },
      "t_contract(ILBPair)6053": {
        "encoding": "inplace",
        "label": "contract ILBPair",
        "numberOfBytes": "20"
      },
      "t_contract(IPositionManager)3693": {
        "encoding": "inplace",
        "label": "contract IPositionManager",
        "numberOfBytes": "20"
      },
      "t_contract(IVPrimeController)3798": {
        "encoding": "inplace",
        "label": "contract IVPrimeController",
        "numberOfBytes": "20"
      },
      "t_int256": {
        "encoding": "inplace",
        "label": "int256",
        "numberOfBytes": "32"
      },
      "t_mapping(t_address,t_array(t_struct(LockDetails)3703_storage)dyn_storage)": {
        "encoding": "mapping",
        "key": "t_address",
        "label": "mapping(address => struct ISPrime.LockDetails[])",
        "numberOfBytes": "32",
        "value": "t_array(t_struct(LockDetails)3703_storage)dyn_storage"
      },
      "t_mapping(t_address,t_mapping(t_address,t_uint256))": {
        "encoding": "mapping",
        "key": "t_address",
        "label": "mapping(address => mapping(address => uint256))",
        "numberOfBytes": "32",
        "value": "t_mapping(t_address,t_uint256)"
      },
      "t_mapping(t_address,t_uint256)": {
        "encoding": "mapping",
        "key": "t_address",
        "label": "mapping(address => uint256)",
        "numberOfBytes": "32",
        "value": "t_uint256"
      },
      "t_string_storage": {
        "encoding": "bytes",
        "label": "string",
        "numberOfBytes": "32"
      },
      "t_struct(DepositForm)3756_storage": {
        "encoding": "inplace",
        "label": "struct ISPrimeTraderJoe.DepositForm",
        "members": [
          {
            "astId": 3751,
            "contract": "contracts/token/sPrime.sol:SPrime",
            "label": "deltaId",
            "offset": 0,
            "slot": "0",
            "type": "t_int256"
          },
          {
            "astId": 3753,
            "contract": "contracts/token/sPrime.sol:SPrime",
            "label": "distributionX",
            "offset": 0,
            "slot": "1",
            "type": "t_uint64"
          },
          {
            "astId": 3755,
            "contract": "contracts/token/sPrime.sol:SPrime",
            "label": "distributionY",
            "offset": 8,
            "slot": "1",
            "type": "t_uint64"
          }
        ],
        "numberOfBytes": "64"
      },
      "t_struct(LockDetails)3703_storage": {
        "encoding": "inplace",
        "label": "struct ISPrime.LockDetails",
        "members": [
          {
            "astId": 3698,
            "contract": "contracts/token/sPrime.sol:SPrime",
            "label": "lockPeriod",
            "offset": 0,
            "slot": "0",
            "type": "t_uint256"
          },
          {
            "astId": 3700,
            "contract": "contracts/token/sPrime.sol:SPrime",
            "label": "amount",
            "offset": 0,
            "slot": "1",
            "type": "t_uint256"
          },
          {
            "astId": 3702,
            "contract": "contracts/token/sPrime.sol:SPrime",
            "label": "unlockTime",
            "offset": 0,
            "slot": "2",
            "type": "t_uint256"
          }
        ],
        "numberOfBytes": "96"
      },
      "t_uint256": {
        "encoding": "inplace",
        "label": "uint256",
        "numberOfBytes": "32"
      },
      "t_uint64": {
        "encoding": "inplace",
        "label": "uint64",
        "numberOfBytes": "8"
      },
      "t_uint8": {
        "encoding": "inplace",
        "label": "uint8",
        "numberOfBytes": "1"
      }
    }
  }
}