{
  "address": "0xAC6b05c13A36f95Df9A8C635274498EF412312A4",
  "abi": [
    {
      "inputs": [],
      "stateMutability": "nonpayable",
      "type": "constructor"
    },
    {
      "inputs": [],
      "name": "BalanceIsLocked",
      "type": "error"
    },
    {
      "inputs": [],
      "name": "BinIdChanged",
      "type": "error"
    },
    {
      "inputs": [],
      "name": "CalldataMustHaveValidPayload",
      "type": "error"
    },
    {
      "inputs": [],
      "name": "CalldataOverOrUnderFlow",
      "type": "error"
    },
    {
      "inputs": [],
      "name": "DataPackageTimestampMustNotBeZero",
      "type": "error"
    },
    {
      "inputs": [],
      "name": "DataPackageTimestampsMustBeEqual",
      "type": "error"
    },
    {
      "inputs": [],
      "name": "EachSignerMustProvideTheSameValue",
      "type": "error"
    },
    {
      "inputs": [],
      "name": "EmptyCalldataPointersArr",
      "type": "error"
    },
    {
      "inputs": [],
      "name": "IncorrectUnsignedMetadataSize",
      "type": "error"
    },
    {
      "inputs": [],
      "name": "InsufficientBalance",
      "type": "error"
    },
    {
      "inputs": [
        {
          "internalType": "uint256",
          "name": "receivedSignersCount",
          "type": "uint256"
        },
        {
          "internalType": "uint256",
          "name": "requiredSignersCount",
          "type": "uint256"
        }
      ],
      "name": "InsufficientNumberOfUniqueSigners",
      "type": "error"
    },
    {
      "inputs": [],
      "name": "InvalidCalldataPointer",
      "type": "error"
    },
    {
      "inputs": [],
      "name": "LengthMismatch",
      "type": "error"
    },
    {
      "inputs": [],
      "name": "MaxLockTimeExceeded",
      "type": "error"
    },
    {
      "inputs": [],
      "name": "NegativeMint",
      "type": "error"
    },
    {
      "inputs": [],
      "name": "NoPosition",
      "type": "error"
    },
    {
      "inputs": [],
      "name": "Overflow",
      "type": "error"
    },
    {
      "inputs": [
        {
          "internalType": "bytes",
          "name": "result",
          "type": "bytes"
        }
      ],
      "name": "ProxyCalldataFailedWithCustomError",
      "type": "error"
    },
    {
      "inputs": [
        {
          "internalType": "string",
          "name": "message",
          "type": "string"
        }
      ],
      "name": "ProxyCalldataFailedWithStringMessage",
      "type": "error"
    },
    {
      "inputs": [],
      "name": "ProxyCalldataFailedWithoutErrMsg",
      "type": "error"
    },
    {
      "inputs": [],
      "name": "RedstonePayloadMustHaveAtLeastOneDataPackage",
      "type": "error"
    },
    {
      "inputs": [],
      "name": "SafeCast__Exceeds24Bits",
      "type": "error"
    },
    {
      "inputs": [],
      "name": "ShouldLock100Percent",
      "type": "error"
    },
    {
      "inputs": [
        {
          "internalType": "address",
          "name": "receivedSigner",
          "type": "address"
        }
      ],
      "name": "SignerNotAuthorised",
      "type": "error"
    },
    {
      "inputs": [],
      "name": "SlippageTooHigh",
      "type": "error"
    },
    {
      "inputs": [],
      "name": "Uint256x256Math__MulDivOverflow",
      "type": "error"
    },
    {
      "inputs": [],
      "name": "Uint256x256Math__MulShiftOverflow",
      "type": "error"
    },
    {
      "inputs": [],
      "name": "Unauthorized",
      "type": "error"
    },
    {
      "inputs": [],
      "name": "UserAlreadyHasPosition",
      "type": "error"
    },
    {
      "anonymous": false,
      "inputs": [
        {
          "indexed": true,
          "internalType": "address",
          "name": "owner",
          "type": "address"
        },
        {
          "indexed": true,
          "internalType": "address",
          "name": "spender",
          "type": "address"
        },
        {
          "indexed": false,
          "internalType": "uint256",
          "name": "value",
          "type": "uint256"
        }
      ],
      "name": "Approval",
      "type": "event"
    },
    {
      "anonymous": false,
      "inputs": [
        {
          "indexed": false,
          "internalType": "uint8",
          "name": "version",
          "type": "uint8"
        }
      ],
      "name": "Initialized",
      "type": "event"
    },
    {
      "anonymous": false,
      "inputs": [
        {
          "indexed": true,
          "internalType": "address",
          "name": "from",
          "type": "address"
        },
        {
          "indexed": true,
          "internalType": "address",
          "name": "to",
          "type": "address"
        }
      ],
      "name": "OwnershipTransferRequested",
      "type": "event"
    },
    {
      "anonymous": false,
      "inputs": [
        {
          "indexed": true,
          "internalType": "address",
          "name": "previousOwner",
          "type": "address"
        },
        {
          "indexed": true,
          "internalType": "address",
          "name": "newOwner",
          "type": "address"
        }
      ],
      "name": "OwnershipTransferred",
      "type": "event"
    },
    {
      "anonymous": false,
      "inputs": [
        {
          "indexed": true,
          "internalType": "address",
          "name": "from",
          "type": "address"
        },
        {
          "indexed": true,
          "internalType": "address",
          "name": "to",
          "type": "address"
        },
        {
          "indexed": false,
          "internalType": "uint256",
          "name": "value",
          "type": "uint256"
        }
      ],
      "name": "Transfer",
      "type": "event"
    },
    {
      "inputs": [],
      "name": "MAX_LOCK_TIME",
      "outputs": [
        {
          "internalType": "uint256",
          "name": "",
          "type": "uint256"
        }
      ],
      "stateMutability": "view",
      "type": "function"
    },
    {
      "inputs": [],
      "name": "acceptOwnership",
      "outputs": [],
      "stateMutability": "nonpayable",
      "type": "function"
    },
    {
      "inputs": [
        {
          "internalType": "address",
          "name": "owner",
          "type": "address"
        },
        {
          "internalType": "address",
          "name": "spender",
          "type": "address"
        }
      ],
      "name": "allowance",
      "outputs": [
        {
          "internalType": "uint256",
          "name": "",
          "type": "uint256"
        }
      ],
      "stateMutability": "view",
      "type": "function"
    },
    {
      "inputs": [
        {
          "internalType": "address",
          "name": "spender",
          "type": "address"
        },
        {
          "internalType": "uint256",
          "name": "amount",
          "type": "uint256"
        }
      ],
      "name": "approve",
      "outputs": [
        {
          "internalType": "bool",
          "name": "",
          "type": "bool"
        }
      ],
      "stateMutability": "nonpayable",
      "type": "function"
    },
    {
      "inputs": [
        {
          "internalType": "address",
          "name": "account",
          "type": "address"
        }
      ],
      "name": "balanceOf",
      "outputs": [
        {
          "internalType": "uint256",
          "name": "",
          "type": "uint256"
        }
      ],
      "stateMutability": "view",
      "type": "function"
    },
    {
      "inputs": [],
      "name": "baseRewarder",
      "outputs": [
        {
          "internalType": "contract ILBHooksBaseRewarder",
          "name": "",
          "type": "address"
        }
      ],
      "stateMutability": "view",
      "type": "function"
    },
    {
      "inputs": [
        {
          "internalType": "address",
          "name": "user",
          "type": "address"
        }
      ],
      "name": "binInRange",
      "outputs": [
        {
          "internalType": "bool",
          "name": "",
          "type": "bool"
        }
      ],
      "stateMutability": "view",
      "type": "function"
    },
    {
      "inputs": [
        {
          "internalType": "address",
          "name": "receiver",
          "type": "address"
        },
        {
          "internalType": "uint256[]",
          "name": "ids",
          "type": "uint256[]"
        }
      ],
      "name": "claim",
      "outputs": [],
      "stateMutability": "nonpayable",
      "type": "function"
    },
    {
      "inputs": [],
      "name": "containsOracleCalldata",
      "outputs": [
        {
          "internalType": "bool",
          "name": "",
          "type": "bool"
        }
      ],
      "stateMutability": "pure",
      "type": "function"
    },
    {
      "inputs": [],
      "name": "decimals",
      "outputs": [
        {
          "internalType": "uint8",
          "name": "",
          "type": "uint8"
        }
      ],
      "stateMutability": "view",
      "type": "function"
    },
    {
      "inputs": [
        {
          "internalType": "address",
          "name": "spender",
          "type": "address"
        },
        {
          "internalType": "uint256",
          "name": "subtractedValue",
          "type": "uint256"
        }
      ],
      "name": "decreaseAllowance",
      "outputs": [
        {
          "internalType": "bool",
          "name": "",
          "type": "bool"
        }
      ],
      "stateMutability": "nonpayable",
      "type": "function"
    },
    {
      "inputs": [
        {
          "internalType": "uint256",
          "name": "activeIdDesired",
          "type": "uint256"
        },
        {
          "internalType": "uint256",
          "name": "idSlippage",
          "type": "uint256"
        },
        {
          "internalType": "uint256",
          "name": "amountX",
          "type": "uint256"
        },
        {
          "internalType": "uint256",
          "name": "amountY",
          "type": "uint256"
        },
        {
          "internalType": "bool",
          "name": "isRebalance",
          "type": "bool"
        },
        {
          "internalType": "uint256",
          "name": "swapSlippage",
          "type": "uint256"
        }
      ],
      "name": "deposit",
      "outputs": [],
      "stateMutability": "nonpayable",
      "type": "function"
    },
    {
      "inputs": [],
      "name": "extractTimestampsAndAssertAllAreEqual",
      "outputs": [
        {
          "internalType": "uint256",
          "name": "extractedTimestamp",
          "type": "uint256"
        }
      ],
      "stateMutability": "pure",
      "type": "function"
    },
    {
      "inputs": [
        {
          "internalType": "address",
          "name": "account",
          "type": "address"
        }
      ],
      "name": "getFullyVestedLockedBalance",
      "outputs": [
        {
          "internalType": "uint256",
          "name": "fullyVestedBalance",
          "type": "uint256"
        }
      ],
      "stateMutability": "view",
      "type": "function"
    },
    {
      "inputs": [],
      "name": "getLBPair",
      "outputs": [
        {
          "internalType": "contract ILBPair",
          "name": "",
          "type": "address"
        }
      ],
      "stateMutability": "view",
      "type": "function"
    },
    {
      "inputs": [
        {
          "internalType": "address",
          "name": "account",
          "type": "address"
        }
      ],
      "name": "getLockedBalance",
      "outputs": [
        {
          "internalType": "uint256",
          "name": "",
          "type": "uint256"
        }
      ],
      "stateMutability": "view",
      "type": "function"
    },
    {
      "inputs": [],
      "name": "getPoolPrice",
      "outputs": [
        {
          "internalType": "uint256",
          "name": "",
          "type": "uint256"
        }
      ],
      "stateMutability": "view",
      "type": "function"
    },
    {
      "inputs": [],
      "name": "getTokenX",
      "outputs": [
        {
          "internalType": "contract IERC20",
          "name": "",
          "type": "address"
        }
      ],
      "stateMutability": "view",
      "type": "function"
    },
    {
      "inputs": [],
      "name": "getTokenY",
      "outputs": [
        {
          "internalType": "contract IERC20",
          "name": "",
          "type": "address"
        }
      ],
      "stateMutability": "view",
      "type": "function"
    },
    {
      "inputs": [
        {
          "internalType": "address",
          "name": "user",
          "type": "address"
        }
      ],
      "name": "getUserTokenId",
      "outputs": [
        {
          "internalType": "uint256",
          "name": "tokenId",
          "type": "uint256"
        }
      ],
      "stateMutability": "view",
      "type": "function"
    },
    {
      "inputs": [
        {
          "internalType": "address",
          "name": "user",
          "type": "address"
        }
      ],
      "name": "getUserValueInTokenY",
      "outputs": [
        {
          "internalType": "uint256",
          "name": "",
          "type": "uint256"
        }
      ],
      "stateMutability": "view",
      "type": "function"
    },
    {
      "inputs": [
        {
          "internalType": "address",
          "name": "user",
          "type": "address"
        },
        {
          "internalType": "uint256",
          "name": "poolPrice",
          "type": "uint256"
        }
      ],
      "name": "getUserValueInTokenY",
      "outputs": [
        {
          "internalType": "uint256",
          "name": "",
          "type": "uint256"
        }
      ],
      "stateMutability": "view",
      "type": "function"
    },
    {
      "inputs": [
        {
          "internalType": "address",
          "name": "spender",
          "type": "address"
        },
        {
          "internalType": "uint256",
          "name": "addedValue",
          "type": "uint256"
        }
      ],
      "name": "increaseAllowance",
      "outputs": [
        {
          "internalType": "bool",
          "name": "",
          "type": "bool"
        }
      ],
      "stateMutability": "nonpayable",
      "type": "function"
    },
    {
      "inputs": [
        {
          "internalType": "address",
          "name": "tokenX_",
          "type": "address"
        },
        {
          "internalType": "address",
          "name": "tokenY_",
          "type": "address"
        },
        {
          "internalType": "string",
          "name": "name_",
          "type": "string"
        },
        {
          "components": [
            {
              "internalType": "int256",
              "name": "deltaId",
              "type": "int256"
            },
            {
              "internalType": "uint64",
              "name": "distributionX",
              "type": "uint64"
            },
            {
              "internalType": "uint64",
              "name": "distributionY",
              "type": "uint64"
            }
          ],
          "internalType": "struct ISPrimeTraderJoe.DepositForm[]",
          "name": "depositForm_",
          "type": "tuple[]"
        },
        {
          "internalType": "contract IPositionManager",
          "name": "positionManager_",
          "type": "address"
        },
        {
          "internalType": "address",
          "name": "traderJoeV2Router_",
          "type": "address"
        }
      ],
      "name": "initialize",
      "outputs": [],
      "stateMutability": "nonpayable",
      "type": "function"
    },
    {
      "inputs": [],
      "name": "lbPair",
      "outputs": [
        {
          "internalType": "contract ILBPair",
          "name": "",
          "type": "address"
        }
      ],
      "stateMutability": "view",
      "type": "function"
    },
    {
      "inputs": [
        {
          "internalType": "uint256",
          "name": "amount",
          "type": "uint256"
        },
        {
          "internalType": "uint256",
          "name": "lockPeriod",
          "type": "uint256"
        }
      ],
      "name": "lockBalance",
      "outputs": [],
      "stateMutability": "nonpayable",
      "type": "function"
    },
    {
      "inputs": [
        {
          "internalType": "address",
          "name": "",
          "type": "address"
        },
        {
          "internalType": "uint256",
          "name": "",
          "type": "uint256"
        }
      ],
      "name": "locks",
      "outputs": [
        {
          "internalType": "uint256",
          "name": "lockPeriod",
          "type": "uint256"
        },
        {
          "internalType": "uint256",
          "name": "amount",
          "type": "uint256"
        },
        {
          "internalType": "uint256",
          "name": "unlockTime",
          "type": "uint256"
        }
      ],
      "stateMutability": "view",
      "type": "function"
    },
    {
      "inputs": [
        {
          "internalType": "uint256[]",
          "name": "ids",
          "type": "uint256[]"
        },
        {
          "internalType": "uint256[]",
          "name": "amounts",
          "type": "uint256[]"
        },
        {
          "internalType": "uint256",
          "name": "activeIdDesired",
          "type": "uint256"
        },
        {
          "internalType": "uint256",
          "name": "idSlippage",
          "type": "uint256"
        },
        {
          "internalType": "uint256",
          "name": "swapSlippage",
          "type": "uint256"
        }
      ],
      "name": "migrateLiquidity",
      "outputs": [],
      "stateMutability": "nonpayable",
      "type": "function"
    },
    {
      "inputs": [
        {
          "internalType": "address",
          "name": "user",
          "type": "address"
        },
        {
          "internalType": "uint256[]",
          "name": "percentForLocks",
          "type": "uint256[]"
        },
        {
          "internalType": "uint256[]",
          "name": "lockPeriods",
          "type": "uint256[]"
        },
        {
          "internalType": "uint256",
          "name": "amountX",
          "type": "uint256"
        },
        {
          "internalType": "uint256",
          "name": "amountY",
          "type": "uint256"
        },
        {
          "internalType": "uint256",
          "name": "activeIdDesired",
          "type": "uint256"
        },
        {
          "internalType": "uint256",
          "name": "idSlippage",
          "type": "uint256"
        }
      ],
      "name": "mintForUserAndLock",
      "outputs": [],
      "stateMutability": "nonpayable",
      "type": "function"
    },
    {
      "inputs": [],
      "name": "name",
      "outputs": [
        {
          "internalType": "string",
          "name": "",
          "type": "string"
        }
      ],
      "stateMutability": "view",
      "type": "function"
    },
    {
      "inputs": [],
      "name": "operator",
      "outputs": [
        {
          "internalType": "address",
          "name": "",
          "type": "address"
        }
      ],
      "stateMutability": "view",
      "type": "function"
    },
    {
      "inputs": [],
      "name": "owner",
      "outputs": [
        {
          "internalType": "address",
          "name": "",
          "type": "address"
        }
      ],
      "stateMutability": "view",
      "type": "function"
    },
    {
      "inputs": [],
      "name": "pendingOwner",
      "outputs": [
        {
          "internalType": "address",
          "name": "",
          "type": "address"
        }
      ],
      "stateMutability": "view",
      "type": "function"
    },
    {
      "inputs": [],
      "name": "positionManager",
      "outputs": [
        {
          "internalType": "contract IPositionManager",
          "name": "",
          "type": "address"
        }
      ],
      "stateMutability": "view",
      "type": "function"
    },
    {
      "inputs": [],
      "name": "renounceOwnership",
      "outputs": [],
      "stateMutability": "nonpayable",
      "type": "function"
    },
    {
      "inputs": [
        {
          "internalType": "contract ILBHooksBaseRewarder",
          "name": "_baseRewarder",
          "type": "address"
        }
      ],
      "name": "setBaseRewarder",
      "outputs": [],
      "stateMutability": "nonpayable",
      "type": "function"
    },
    {
      "inputs": [
        {
          "internalType": "address",
          "name": "_operator",
          "type": "address"
        }
      ],
      "name": "setOperator",
      "outputs": [],
      "stateMutability": "nonpayable",
      "type": "function"
    },
    {
      "inputs": [
        {
          "internalType": "contract IVPrimeController",
          "name": "_vPrimeController",
          "type": "address"
        }
      ],
      "name": "setVPrimeControllerAddress",
      "outputs": [],
      "stateMutability": "nonpayable",
      "type": "function"
    },
    {
      "inputs": [],
      "name": "symbol",
      "outputs": [
        {
          "internalType": "string",
          "name": "",
          "type": "string"
        }
      ],
      "stateMutability": "view",
      "type": "function"
    },
    {
      "inputs": [],
      "name": "tokenX",
      "outputs": [
        {
          "internalType": "contract IERC20Metadata",
          "name": "",
          "type": "address"
        }
      ],
      "stateMutability": "view",
      "type": "function"
    },
    {
      "inputs": [],
      "name": "tokenXDecimals",
      "outputs": [
        {
          "internalType": "uint8",
          "name": "",
          "type": "uint8"
        }
      ],
      "stateMutability": "view",
      "type": "function"
    },
    {
      "inputs": [],
      "name": "tokenY",
      "outputs": [
        {
          "internalType": "contract IERC20Metadata",
          "name": "",
          "type": "address"
        }
      ],
      "stateMutability": "view",
      "type": "function"
    },
    {
      "inputs": [],
      "name": "tokenYDecimals",
      "outputs": [
        {
          "internalType": "uint8",
          "name": "",
          "type": "uint8"
        }
      ],
      "stateMutability": "view",
      "type": "function"
    },
    {
      "inputs": [],
      "name": "totalSupply",
      "outputs": [
        {
          "internalType": "uint256",
          "name": "",
          "type": "uint256"
        }
      ],
      "stateMutability": "view",
      "type": "function"
    },
    {
      "inputs": [],
      "name": "traderJoeV2Router",
      "outputs": [
        {
          "internalType": "address",
          "name": "",
          "type": "address"
        }
      ],
      "stateMutability": "view",
      "type": "function"
    },
    {
      "inputs": [
        {
          "internalType": "address",
          "name": "to",
          "type": "address"
        },
        {
          "internalType": "uint256",
          "name": "amount",
          "type": "uint256"
        }
      ],
      "name": "transfer",
      "outputs": [
        {
          "internalType": "bool",
          "name": "",
          "type": "bool"
        }
      ],
      "stateMutability": "nonpayable",
      "type": "function"
    },
    {
      "inputs": [
        {
          "internalType": "address",
          "name": "from",
          "type": "address"
        },
        {
          "internalType": "address",
          "name": "to",
          "type": "address"
        },
        {
          "internalType": "uint256",
          "name": "amount",
          "type": "uint256"
        }
      ],
      "name": "transferFrom",
      "outputs": [
        {
          "internalType": "bool",
          "name": "",
          "type": "bool"
        }
      ],
      "stateMutability": "nonpayable",
      "type": "function"
    },
    {
      "inputs": [
        {
          "internalType": "address",
          "name": "newOwner",
          "type": "address"
        }
      ],
      "name": "transferOwnership",
      "outputs": [],
      "stateMutability": "nonpayable",
      "type": "function"
    },
    {
      "inputs": [],
      "name": "vPrimeController",
      "outputs": [
        {
          "internalType": "contract IVPrimeController",
          "name": "",
          "type": "address"
        }
      ],
      "stateMutability": "view",
      "type": "function"
    },
    {
      "inputs": [
        {
          "internalType": "uint256",
          "name": "share",
          "type": "uint256"
        }
      ],
      "name": "withdraw",
      "outputs": [],
      "stateMutability": "nonpayable",
      "type": "function"
    }
  ],
  "transactionHash": "0x7f7b35c69643aa4ac96872b854583aa1975b68da9ea7141c0e254951ec1bce7e",
  "args": [],
  "numDeployments": 3,
  "solcInputHash": "10d4e74d87eeb484d783498829a79238",
  "bytecode": "0x60806040523480156200001157600080fd5b506200001c62000022565b620000e3565b600054610100900460ff16156200008f5760405162461bcd60e51b815260206004820152602760248201527f496e697469616c697a61626c653a20636f6e747261637420697320696e697469604482015266616c697a696e6760c81b606482015260840160405180910390fd5b60005460ff90811614620000e1576000805460ff191660ff9081179091556040519081527f7f26b83ff96e1f2b6a682f133852f6798a09c465da95921460cefb38474024989060200160405180910390a15b565b615fba80620000f36000396000f3fe608060405234801561001057600080fd5b50600436106102465760003560e01c8063045850b01461024b57806305e8746d1461026057806306fdde0314610283578063095ea7b3146102985780630b0ccc96146102bb5780630d1870df146102ce57806316dc165b146102d657806318160ddd146102e9578063191723ed146102fb5780631cbd50671461030e57806320d2a1131461032157806323b872dd146103345780632e1a7d4d14610347578063313ce5671461035a578063395093511461037a578063447ff2621461038d57806345718278146103a05780634671f215146103b357806355a547d5146103c7578063570ca735146103cf5780635bc6dab6146103e25780635f9c01b1146103f5578063625af7671461040657806370a0823114610419578063715018a61461042c578063791b98bc1461043457806379ba509714610447578063808d7c9b1461044f578063885a08e0146104625780638da5cb5b1461046a57806395d89b411461047257806397c82bc51461047a578063a457c2d71461048d578063a9059cbb146104a0578063b02d72e9146104b3578063b3ab15fb146104c7578063b425f802146104da578063b5db796114610508578063b7d19fc41461051b578063c40868931461052e578063c4ce635814610541578063d9197fe314610554578063da10610c14610567578063dd62ed3e14610578578063e30c39781461058b578063eddeebf314610593578063f2fde38b146105a6578063f4f357b1146105b9578063fa78668f146105cc578063fefd4e4f146105d7575b600080fd5b61025e610259366004614f58565b6105ea565b005b60ca546001600160a01b03165b60405161027a919061505b565b60405180910390f35b61028b610af1565b60405161027a91906150bf565b6102ab6102a63660046150d2565b610b83565b604051901515815260200161027a565b61025e6102c9366004615142565b610b9d565b6102ab610e69565b60ca5461026d906001600160a01b031681565b6099545b60405190815260200161027a565b61025e6103093660046151e4565b610e7d565b61025e61031c366004615206565b610f67565b6102ed61032f36600461528c565b6111fe565b6102ab6103423660046152a9565b61121c565b61025e6103553660046152ea565b611240565b60cb54600160a81b900460ff165b60405160ff909116815260200161027a565b6102ab6103883660046150d2565b6114e4565b60ce5461026d906001600160a01b031681565b61025e6103ae366004615303565b611506565b60cb5461036890600160a81b900460ff1681565b6102ed611692565b60d15461026d906001600160a01b031681565b60d25461026d906001600160a01b031681565b60cc546001600160a01b031661026d565b60cc5461026d906001600160a01b031681565b6102ed61042736600461528c565b6117aa565b61025e6117c5565b60cd5461026d906001600160a01b031681565b61025e6117d9565b61025e61045d36600461528c565b611868565b6102ed611892565b61026d611992565b61028b6119a1565b61025e61048836600461528c565b6119b0565b6102ab61049b3660046150d2565b6119da565b6102ab6104ae3660046150d2565b611a55565b60cb5461036890600160a01b900460ff1681565b61025e6104d536600461528c565b611a63565b6104ed6104e83660046150d2565b611a8d565b6040805193845260208401929092529082015260600161027a565b61025e610516366004615365565b611acf565b60cb5461026d906001600160a01b031681565b6102ed61053c36600461528c565b611b0c565b6102ed61054f36600461528c565b611bcb565b6102ab61056236600461528c565b611c98565b60cb546001600160a01b031661026d565b6102ed6105863660046153ba565b611e24565b61026d611e4f565b6102ed6105a13660046150d2565b611e5e565b61025e6105b436600461528c565b611f9c565b60cf5461026d906001600160a01b031681565b6102ed6305a39a8081565b6102ed6105e536600461528c565b612063565b600054610100900460ff161580801561060a5750600054600160ff909116105b8061062b57506106193061215b565b15801561062b575060005460ff166001145b6106935760405162461bcd60e51b815260206004820152602e60248201527f496e697469616c697a61626c653a20636f6e747261637420697320616c72656160448201526d191e481a5b9a5d1a585b1a5e995960921b60648201526084015b60405180910390fd5b6000805460ff1916600117905580156106b6576000805461ff0019166101001790555b6106be61216a565b6106c6612199565b6106ee8660405180604001604052806006815260200165735072696d6560d01b8152506121c8565b60cf80546001600160a01b0319166001600160a01b03841690811790915560408051632233163960e21b81529051600092916388cc58e49160048083019260209291908290030181865afa15801561074a573d6000803e3d6000fd5b505050506040513d601f19601f8201168201806040525081019061076e91906153f3565b60405163704037bd60e01b81526001600160a01b038b811660048301528a811660248301526032604483015291925060009183169063704037bd90606401608060405180830381865afa1580156107c9573d6000803e3d6000fd5b505050506040513d601f19601f820116820180604052508101906107ed9190615410565b60208181015160cc80546001600160a01b0319166001600160a01b039092169182179055604080516305e8746d60e01b8152905193945090926305e8746d926004808401939192918290030181865afa15801561084e573d6000803e3d6000fd5b505050506040513d601f19601f8201168201806040525081019061087291906153f3565b60ca80546001600160a01b0319166001600160a01b0392831617905560cc5460408051633684184360e21b81529051919092169163da10610c9160048083019260209291908290030181865afa1580156108d0573d6000803e3d6000fd5b505050506040513d601f19601f820116820180604052508101906108f491906153f3565b60cb80546001600160a01b0319166001600160a01b0392831617905560ca546040805163313ce56760e01b81529051919092169163313ce5679160048083019260209291908290030181865afa158015610952573d6000803e3d6000fd5b505050506040513d601f19601f82011682018060405250810190610976919061549b565b60cb60146101000a81548160ff021916908360ff16021790555060cb60009054906101000a90046001600160a01b03166001600160a01b031663313ce5676040518163ffffffff1660e01b8152600401602060405180830381865afa1580156109e3573d6000803e3d6000fd5b505050506040513d601f19601f82011682018060405250810190610a07919061549b565b60cb60156101000a81548160ff021916908360ff16021790555060005b86811015610a835760d0888883818110610a4057610a406154be565b835460018101855560009485526020909420606090910292909201926002029091019050610a6e82826154ed565b50508080610a7b90615555565b915050610a24565b505060cd80546001600160a01b0319166001600160a01b038616179055508015610ae7576000805461ff0019169055604051600181527f7f26b83ff96e1f2b6a682f133852f6798a09c465da95921460cefb38474024989060200160405180910390a15b5050505050505050565b6060609a8054610b009061556e565b80601f0160208091040260200160405190810160405280929190818152602001828054610b2c9061556e565b8015610b795780601f10610b4e57610100808354040283529160200191610b79565b820191906000526020600020905b815481529060010190602001808311610b5c57829003601f168201915b5050505050905090565b600033610b918185856121f9565b60019150505b92915050565b60d1546001600160a01b0316336001600160a01b031614610bd0576040516282b42960e81b815260040160405180910390fd5b610bd861231d565b868514610bfb576040516001621398b960e31b0319815260040160405180910390fd5b6000610c068a6117aa565b9050610c1433308787612376565b610c268a8484888860016101f4612407565b80610c308b6117aa565b1015610c4f5760405163301e24df60e01b815260040160405180910390fd5b6000805b60ff8116881115610c99578a8a8260ff16818110610c7357610c736154be565b9050602002013582610c8591906155a2565b915080610c91816155b5565b915050610c53565b5080606414610cbb5760405163ab3ea90d60e01b815260040160405180910390fd5b600082610cc78d6117aa565b610cd191906155d4565b90506000915060005b60ff8116891115610e48576305a39a808a8a8360ff16818110610cff57610cff6154be565b905060200201351115610d2557604051636f9a2cd560e11b815260040160405180910390fd5b6000610d3260018b6155d4565b8260ff1614610d735760648d8d8460ff16818110610d5257610d526154be565b9050602002013584610d6491906155e7565b610d6e9190615614565b610d7d565b610d7d84846155d4565b6001600160a01b038f16600090815260c9602052604090819020815160608101909252919250808d8d60ff8716818110610db957610db96154be565b9050602002013581526020018381526020018d8d8660ff16818110610de057610de06154be565b9050602002013542610df291906155a2565b905281546001818101845560009384526020938490208351600390930201918255928201519281019290925560400151600290910155610e3281856155a2565b9350508080610e40906155b5565b915050610cda565b50610e528c6127e8565b505050610e5e60018055565b505050505050505050565b6602ed57011e0000601f1936013581161490565b610e8561231d565b6000610e9033611b0c565b9050610e9c81846155a2565b610ea5336117aa565b1015610ec457604051631e9acf1760e31b815260040160405180910390fd5b6305a39a80821115610ee957604051636f9a2cd560e11b815260040160405180910390fd5b33600090815260c960209081526040918290208251606081018452858152918201869052918101610f1a85426155a2565b905281546001808201845560009384526020938490208351600390930201918255928201519281019290925560400151600290910155610f59336127e8565b50610f6360018055565b5050565b610f6f61231d565b60ca546040516370a0823160e01b81526000916001600160a01b0316906370a0823190610fa090309060040161505b565b602060405180830381865afa158015610fbd573d6000803e3d6000fd5b505050506040513d601f19601f82011682018060405250810190610fe19190615636565b60cb546040516370a0823160e01b81529192506000916001600160a01b03909116906370a082319061101790309060040161505b565b602060405180830381865afa158015611034573d6000803e3d6000fd5b505050506040513d601f19601f820116820180604052508101906110589190615636565b60cc546040516364c9cfaf60e11b81529192506001600160a01b03169063c9939f5e9061109390339030908e908e908e908e90600401615681565b6000604051808303816000875af11580156110b2573d6000803e3d6000fd5b505050506040513d6000823e601f3d908101601f191682016040526110da919081019061574f565b506111e13360ca546040516370a0823160e01b81528891889187916001600160a01b0316906370a082319061111390309060040161505b565b602060405180830381865afa158015611130573d6000803e3d6000fd5b505050506040513d601f19601f820116820180604052508101906111549190615636565b61115e91906155d4565b60cb546040516370a0823160e01b815287916001600160a01b0316906370a082319061118e90309060040161505b565b602060405180830381865afa1580156111ab573d6000803e3d6000fd5b505050506040513d601f19601f820116820180604052508101906111cf9190615636565b6111d991906155d4565b600189612407565b6111ea336127e8565b50506111f560018055565b50505050505050565b600080611209611892565b90506112158382611e5e565b9392505050565b60003361122a8582856128c4565b611235858585612938565b506001949350505050565b61124861231d565b600061125333612063565b90508060000361127657604051632afc3c0d60e21b815260040160405180910390fd5b60cd5460405163133f757160e31b81526004810183905260009182916001600160a01b03909116906399fbab8890602401600060405180830381865afa1580156112c4573d6000803e3d6000fd5b505050506040513d6000823e601f3d908101601f191682016040526112ec9190810190615783565b60cd5460405163b91e526f60e01b815260048101849052929850909650600095506001600160a01b0316935063b91e526f92506024019050600060405180830381865afa158015611341573d6000803e3d6000fd5b505050506040513d6000823e601f3d908101601f19168201604052611369919081019061580d565b9050600061137633611b0c565b905061138281876155a2565b61138b336117aa565b10156113aa576040516385c6c5d360e01b815260040160405180910390fd5b600080806113bb338651888c612ae2565b60cd54604080516080810182528d8152602081018f90528082018490526000606082015290516325f9c4dd60e21b81529497509295509093506001600160a01b0316916397e7137491611410916004016158ee565b600060405180830381600087803b15801561142a57600080fd5b505af115801561143e573d6000803e3d6000fd5b505050508861144d6104273390565b036114b15760cd54604051630852cd8d60e31b8152600481018a90526001600160a01b03909116906342966c6890602401600060405180830381600087803b15801561149857600080fd5b505af11580156114ac573d6000803e3d6000fd5b505050505b6114bd30338585612376565b6114c7338a612f6d565b6114d0336127e8565b50505050505050506114e160018055565b50565b600033610b918185856114f78383611e24565b61150191906155a2565b6121f9565b61150e6130a2565b61151661231d565b60d2546040516308ae304f60e31b81526001600160a01b039091169063457182789061154a90309086908690600401615936565b600060405180830381600087803b15801561156457600080fd5b505af1158015611578573d6000803e3d6000fd5b50505050600060d260009054906101000a90046001600160a01b03166001600160a01b03166369940d796040518163ffffffff1660e01b8152600401602060405180830381865afa1580156115d1573d6000803e3d6000fd5b505050506040513d601f19601f820116820180604052508101906115f591906153f3565b90506000816001600160a01b03166370a08231306040518263ffffffff1660e01b8152600401611625919061505b565b602060405180830381865afa158015611642573d6000803e3d6000fd5b505050506040513d601f19601f820116820180604052508101906116669190615636565b90508015611682576116826001600160a01b0383168683613101565b505061168d60018055565b505050565b60008061169d613157565b905060006116aa826131fe565b61ffff169050806000036116d157604051632154bfcf60e21b815260040160405180910390fd5b6116dc6002836155a2565b915060005b818110156117a45760006116f484613238565b90506000806117046068876155a2565b9050600061171282366155d4565b9050803592508265ffffffffffff1660000361174157604051630336dc9d60e41b815260040160405180910390fd5b87600003611759578265ffffffffffff169750611781565b878365ffffffffffff16146117815760405163d9d1f46560e01b815260040160405180910390fd5b61178b84886155a2565b965050505050808061179c90615555565b9150506116e1565b50505090565b6001600160a01b031660009081526097602052604090205490565b6117cd6130a2565b6117d76000613274565b565b60006117e36132c6565b9050336001600160a01b038216146118555760405162461bcd60e51b815260206004820152602f60248201527f50656e64696e674f776e61626c653a2063616c6c6572206973206e6f7420746860448201526e32903832b73234b7339037bbb732b960891b606482015260840161068a565b61185e81613274565b6114e160006132d9565b6118706130a2565b60ce80546001600160a01b0319166001600160a01b0392909216919091179055565b60cc54604080516336f997b760e21b815290516000928392611973926001600160a01b0390921691634c7cffbd91839163dbe65edc916004808201926020929091908290030181865afa1580156118ed573d6000803e3d6000fd5b505050506040513d601f19601f82011682018060405250810190611911919061595b565b6040518263ffffffff1660e01b815260040161192d9190615980565b602060405180830381865afa15801561194a573d6000803e3d6000fd5b505050506040513d601f19601f8201168201806040525081019061196e9190615636565b6132eb565b905061198c816305f5e100670de0b6b3a7640000613301565b91505090565b6065546001600160a01b031690565b6060609b8054610b009061556e565b6119b86130a2565b60d280546001600160a01b0319166001600160a01b0392909216919091179055565b600033816119e88286611e24565b905083811015611a485760405162461bcd60e51b815260206004820152602560248201527f45524332303a2064656372656173656420616c6c6f77616e63652062656c6f77604482015264207a65726f60d81b606482015260840161068a565b61123582868684036121f9565b600033610b91818585612938565b611a6b6130a2565b60d180546001600160a01b0319166001600160a01b0392909216919091179055565b60c96020528160005260406000208181548110611aa957600080fd5b600091825260209091206003909102018054600182015460029092015490935090915083565b611ad761231d565b611ae333308686612376565b611af233878787878787612407565b611afb336127e8565b611b0460018055565b505050505050565b6001600160a01b038116600090815260c960205260408120548190815b818114611bc2576001600160a01b038516600090815260c960205260408120805483908110611b5a57611b5a6154be565b9060005260206000209060030201604051806060016040529081600082015481526020016001820154815260200160028201548152505090504281604001511115611bb1576020810151611bae90856155a2565b93505b50611bbb81615555565b9050611b29565b50909392505050565b6001600160a01b038116600090815260c96020526040812054815b818114611c91576001600160a01b038416600090815260c960205260408120805483908110611c1757611c176154be565b9060005260206000209060030201604051806060016040529081600082015481526020016001820154815260200160028201548152505090504281604001511115611c8057611c73816020015182600001516305a39a80613301565b611c7d90856155a2565b93505b50611c8a81615555565b9050611be6565b5050919050565b600080611ca483612063565b905080600003611cc757604051632afc3c0d60e21b815260040160405180910390fd5b60cd546040516312431a6360e01b8152600481018390526000916001600160a01b0316906312431a6390602401600060405180830381865afa158015611d11573d6000803e3d6000fd5b505050506040513d6000823e601f3d908101601f19168201604052611d39919081019061580d565b805160cc54604080516336f997b760e21b8152905193945091926000926001600160a01b039092169163dbe65edc9160048083019260209291908290030181865afa158015611d8c573d6000803e3d6000fd5b505050506040513d601f19601f82011682018060405250810190611db0919061595b565b62ffffff1690508082600081518110611dcb57611dcb6154be565b602002602001015111158015611e075750808260018451611dec91906155d4565b81518110611dfc57611dfc6154be565b602002602001015110155b15611e185750600195945050505050565b50600095945050505050565b6001600160a01b03918216600090815260986020908152604080832093909416825291909152205490565b6000611e596132c6565b905090565b60cd54600090819081906001600160a01b03166399fbab88611e7f87612063565b6040518263ffffffff1660e01b8152600401611e9d91815260200190565b600060405180830381865afa158015611eba573d6000803e3d6000fd5b505050506040513d6000823e601f3d908101601f19168201604052611ee29190810190615783565b60cd5460405163b91e526f60e01b815260048101849052929850909650600095506001600160a01b0316935063b91e526f92506024019050600060405180830381865afa158015611f37573d6000803e3d6000fd5b505050506040513d6000823e601f3d908101601f19168201604052611f5f919081019061580d565b9050600080611f738360000151858961347a565b91509150611f8682886305f5e100613301565b611f9090826155a2565b98975050505050505050565b611fa46130a2565b6001600160a01b0381166120105760405162461bcd60e51b815260206004820152602d60248201527f50656e64696e674f776e61626c653a206e6577206f776e65722069732074686560448201526c207a65726f206164647265737360981b606482015260840161068a565b612019816132d9565b806001600160a01b031661202b611992565b6001600160a01b03167fed8889f560326eb138920d842192f0eb3dd22b4f139c87a2c57538e05bae127860405160405180910390a350565b60cd546040516370a0823160e01b815260009182916001600160a01b03909116906370a082319061209890869060040161505b565b602060405180830381865afa1580156120b5573d6000803e3d6000fd5b505050506040513d601f19601f820116820180604052508101906120d99190615636565b11156121565760cd54604051632f745c5960e01b81526001600160a01b0390911690632f745c5990612112908590600090600401615990565b602060405180830381865afa15801561212f573d6000803e3d6000fd5b505050506040513d601f19601f820116820180604052508101906121539190615636565b90505b919050565b6001600160a01b03163b151590565b600054610100900460ff166121915760405162461bcd60e51b815260040161068a906159a9565b6117d761379e565b600054610100900460ff166121c05760405162461bcd60e51b815260040161068a906159a9565b6117d76137cd565b600054610100900460ff166121ef5760405162461bcd60e51b815260040161068a906159a9565b610f6382826137f4565b6001600160a01b03831661225b5760405162461bcd60e51b8152602060048201526024808201527f45524332303a20617070726f76652066726f6d20746865207a65726f206164646044820152637265737360e01b606482015260840161068a565b6001600160a01b0382166122bc5760405162461bcd60e51b815260206004820152602260248201527f45524332303a20617070726f766520746f20746865207a65726f206164647265604482015261737360f01b606482015260840161068a565b6001600160a01b0383811660008181526098602090815260408083209487168084529482529182902085905590518481527f8c5be1e5ebec7d5bd14f71427d1e84f3dd0314c0f7b2291e5b200ac8c7c3b925910160405180910390a3505050565b60026001540361236f5760405162461bcd60e51b815260206004820152601f60248201527f5265656e7472616e637947756172643a207265656e7472616e742063616c6c00604482015260640161068a565b6002600155565b306001600160a01b038516036123c55781156123a35760ca546123a3906001600160a01b03168484613101565b80156123c05760cb546123c0906001600160a01b03168483613101565b612401565b81156123e35760ca546123e3906001600160a01b0316858585613834565b80156124015760cb54612401906001600160a01b0316858584613834565b50505050565b6101f481111561242a5760405163428637bb60e11b815260040160405180910390fd5b600061243588612063565b9050600060cc60009054906101000a90046001600160a01b03166001600160a01b031663dbe65edc6040518163ffffffff1660e01b8152600401602060405180830381865afa15801561248c573d6000803e3d6000fd5b505050506040513d601f19601f820116820180604052508101906124b0919061595b565b62ffffff169050811561265e5760cd5460405163133f757160e31b815260048101849052600091829182916001600160a01b0316906399fbab8890602401600060405180830381865afa15801561250b573d6000803e3d6000fd5b505050506040513d6000823e601f3d908101601f191682016040526125339190810190615783565b955095509550505050819350861561265a5760cd5460405163b91e526f60e01b8152600481018490526000916001600160a01b03169063b91e526f90602401600060405180830381865afa15801561258f573d6000803e3d6000fd5b505050506040513d6000823e601f3d908101601f191682016040526125b7919081019061580d565b90506000806125cc8f84600001518689612ae2565b5060cd54604051630852cd8d60e31b8152600481018c90529294509092506001600160a01b0316906342966c6890602401600060405180830381600087803b15801561261757600080fd5b505af115801561262b573d6000803e3d6000fd5b505050506126398f87612f6d565b612643828d6155a2565b61264d828d6155a2565b909c509a50600097505050505b5050505b612669868685613855565b60cc54604080516336f997b760e21b815290519399509197506001600160a01b03169163dbe65edc916004808201926020929091908290030181865afa1580156126b7573d6000803e3d6000fd5b505050506040513d601f19601f820116820180604052508101906126db919061595b565b62ffffff168114806126eb575081155b612708576040516348fca9dd60e01b815260040160405180910390fd5b60cc60009054906101000a90046001600160a01b03166001600160a01b031663dbe65edc6040518163ffffffff1660e01b8152600401602060405180830381865afa15801561275b573d6000803e3d6000fd5b505050506040513d601f19601f8201168201806040525081019061277f919061595b565b62ffffff16905080612791888a6155a2565b101580156127a85750876127a588836155a2565b10155b6127c55760405163428637bb60e11b815260040160405180910390fd5b60cc546127de9030906001600160a01b03168888612376565b610e5e8982613c83565b60ce546001600160a01b0316156114e157612801610e69565b156128595760ce54604051610f63916001600160a01b03169061282890849060240161505b565b60408051601f198184030181529190526020810180516001600160e01b0316636cec346160e01b1790526000613f4a565b60ce5460405163bf18c23960e01b81526001600160a01b039091169063bf18c2399061288990849060040161505b565b600060405180830381600087803b1580156128a357600080fd5b505af11580156128b7573d6000803e3d6000fd5b5050505050565b60018055565b60006128d08484611e24565b90506000198114612401578181101561292b5760405162461bcd60e51b815260206004820152601d60248201527f45524332303a20696e73756666696369656e7420616c6c6f77616e6365000000604482015260640161068a565b61240184848484036121f9565b6001600160a01b03831661299c5760405162461bcd60e51b815260206004820152602560248201527f45524332303a207472616e736665722066726f6d20746865207a65726f206164604482015264647265737360d81b606482015260840161068a565b6001600160a01b0382166129fe5760405162461bcd60e51b815260206004820152602360248201527f45524332303a207472616e7366657220746f20746865207a65726f206164647260448201526265737360e81b606482015260840161068a565b612a09838383613fde565b6001600160a01b03831660009081526097602052604090205481811015612a815760405162461bcd60e51b815260206004820152602660248201527f45524332303a207472616e7366657220616d6f756e7420657863656564732062604482015265616c616e636560d01b606482015260840161068a565b6001600160a01b038085166000818152609760205260408082208686039055928616808252908390208054860190559151600080516020615f6583398151915290612acf9086815260200190565b60405180910390a3612401848484614373565b60008060608451865114612b0c576040516001621398b960e31b0319815260040160405180910390fd5b600080612b18896117aa565b88519091506000816001600160401b03811115612b3757612b37614ec7565b604051908082528060200260200182016040528015612b60578160200160208202803683370190505b5090506000826001600160401b03811115612b7d57612b7d614ec7565b604051908082528060200260200182016040528015612ba6578160200160208202803683370190505b509050826001600160401b03811115612bc157612bc1614ec7565b604051908082528060200260200182016040528015612bea578160200160208202803683370190505b50955060005b83811015612ce05760008c8281518110612c0c57612c0c6154be565b60200260200101519050612c3a8c8381518110612c2b57612c2b6154be565b60200260200101518c88613301565b888381518110612c4c57612c4c6154be565b602002602001018181525050878281518110612c6a57612c6a6154be565b6020026020010151600014612cd75780848881518110612c8c57612c8c6154be565b602002602001018181525050878281518110612caa57612caa6154be565b6020026020010151838881518110612cc457612cc46154be565b6020026020010181815250508660010196505b50600101612bf0565b5060ca546040516370a0823160e01b81526000916001600160a01b0316906370a0823190612d1290309060040161505b565b602060405180830381865afa158015612d2f573d6000803e3d6000fd5b505050506040513d601f19601f82011682018060405250810190612d539190615636565b60cb546040516370a0823160e01b81529192506000916001600160a01b03909116906370a0823190612d8990309060040161505b565b602060405180830381865afa158015612da6573d6000803e3d6000fd5b505050506040513d601f19601f82011682018060405250810190612dca9190615636565b90508615612e5f57848714612de0578684528683525b60cc546040516364c9cfaf60e11b81526001600160a01b039091169063c9939f5e90612e169030908190899089906004016159f4565b6000604051808303816000875af1158015612e35573d6000803e3d6000fd5b505050506040513d6000823e601f3d908101601f19168201604052612e5d919081019061574f565b505b60ca546040516370a0823160e01b815283916001600160a01b0316906370a0823190612e8f90309060040161505b565b602060405180830381865afa158015612eac573d6000803e3d6000fd5b505050506040513d601f19601f82011682018060405250810190612ed09190615636565b612eda91906155d4565b60cb546040516370a0823160e01b8152919b5082916001600160a01b03909116906370a0823190612f0f90309060040161505b565b602060405180830381865afa158015612f2c573d6000803e3d6000fd5b505050506040513d601f19601f82011682018060405250810190612f509190615636565b612f5a91906155d4565b9850505050505050509450945094915050565b6001600160a01b038216612fcd5760405162461bcd60e51b815260206004820152602160248201527f45524332303a206275726e2066726f6d20746865207a65726f206164647265736044820152607360f81b606482015260840161068a565b612fd982600083613fde565b6001600160a01b0382166000908152609760205260409020548181101561304d5760405162461bcd60e51b815260206004820152602260248201527f45524332303a206275726e20616d6f756e7420657863656564732062616c616e604482015261636560f01b606482015260840161068a565b6001600160a01b0383166000818152609760209081526040808320868603905560998054879003905551858152919291600080516020615f65833981519152910160405180910390a361168d83600084614373565b336130ab611992565b6001600160a01b0316146117d75760405162461bcd60e51b815260206004820181905260248201527f4f776e61626c653a2063616c6c6572206973206e6f7420746865206f776e6572604482015260640161068a565b61168d8363a9059cbb60e01b8484604051602401613120929190615990565b60408051601f198184030181529190526020810180516001600160e01b03166001600160e01b0319909316929092179091526143aa565b60006602ed57011e0000601f1936013581161480613188576040516373bb264f60e11b815260040160405180910390fd5b600036602911156131ac57604051632bcb7bc560e11b815260040160405180910390fd5b50602819360135600060096131c7600362ffffff85166155a2565b6131d191906155a2565b9050366131df6002836155a2565b11156112155760405163c30a7bd760e01b815260040160405180910390fd5b60008061320c6020846155a2565b90503681111561322f57604051632bcb7bc560e11b815260040160405180910390fd5b36033592915050565b60008060006132468461447f565b9092509050604e6132588260206155a2565b61326290846155e7565b61326c91906155a2565b949350505050565b606580546001600160a01b038381166001600160a01b0319831681179093556040519116919082907f8be0079c531659141344cd1fd0a4f28419497f9722a3daafe3b4186f6b6457e090600090a35050565b600080516020615f458339815191525490565b600080516020615f4583398151915255565b600061215382670de0b6b3a764000060806144d6565b600080806000198587098587029250828110838203039150508060000361333a576000841161332f57600080fd5b508290049050611215565b80841161334657600080fd5b6000848688098084039381119092039190506000613366861960016155a2565b861695869004959384900493600081900304600101905061338781846155e7565b9093179260006133988760036155e7565b60021890506133a781886155e7565b6133b29060026155d4565b6133bc90826155e7565b90506133c881886155e7565b6133d39060026155d4565b6133dd90826155e7565b90506133e981886155e7565b6133f49060026155d4565b6133fe90826155e7565b905061340a81886155e7565b6134159060026155d4565b61341f90826155e7565b905061342b81886155e7565b6134369060026155d4565b61344090826155e7565b905061344c81886155e7565b6134579060026155d4565b61346190826155e7565b905061346d81866155e7565b9998505050505050505050565b60008083518551146134a2576040516001621398b960e31b0319815260040160405180910390fd5b60cb546134ca9084906134c090600160a81b900460ff16600a615b16565b6305f5e100613301565b60cc549093506000906001600160a01b031663f5e293296134ea86614544565b6040518263ffffffff1660e01b815260040161350891815260200190565b602060405180830381865afa158015613525573d6000803e3d6000fd5b505050506040513d601f19601f82011682018060405250810190613549919061595b565b905060005b865181101561379457600061357b88838151811061356e5761356e6154be565b602002602001015161455a565b90506000878381518110613591576135916154be565b602090810291909101015160cc54604051630157d2d160e31b815291925060009182916001600160a01b031690630abe9688906135d2908790600401615980565b6040805180830381865afa1580156135ee573d6000803e3d6000fd5b505050506040513d601f19601f820116820180604052508101906136129190615b3c565b60cc54604051634c7cffbd60e01b81526001600160801b03938416955091909216925060009161365c916001600160a01b0390911690634c7cffbd9061192d908990600401615980565b60cc5460405163bd85b03960e01b81529192506000916001600160a01b039091169063bd85b03990613692908990600401615980565b602060405180830381865afa1580156136af573d6000803e3d6000fd5b505050506040513d601f19601f820116820180604052508101906136d39190615636565b905060006136e2868684614580565b905060006136f1878685614580565b90508762ffffff168a62ffffff16111561372d5761371881670de0b6b3a764000086613301565b61372290836155a2565b915060009050613763565b8762ffffff168a62ffffff161015613763576137528285670de0b6b3a7640000613301565b61375c90826155a2565b9050600091505b61376d828d6155a2565b9b50613779818c6155a2565b9a5050505050505050508061378d90615555565b905061354e565b5050935093915050565b600054610100900460ff166137c55760405162461bcd60e51b815260040161068a906159a9565b6117d76145aa565b600054610100900460ff166128be5760405162461bcd60e51b815260040161068a906159a9565b600054610100900460ff1661381b5760405162461bcd60e51b815260040161068a906159a9565b609a6138278382615bb5565b50609b61168d8282615bb5565b612401846323b872dd60e01b85858560405160240161312093929190615c74565b6000806000613863866145da565b905080851060008161387e5761387983886155d4565b613888565b61388887846155d4565b90508061389a886101f4612710613301565b1080156138af575060008311806138af575087155b15613c775760cc54604080516336f997b760e21b81529051600092839261390f926001600160a01b0390921691634c7cffbd91839163dbe65edc916004808201926020929091908290030181865afa1580156118ed573d6000803e3d6000fd5b905061392e61391f600285615614565b670de0b6b3a764000083613301565b91506000905061393f600284615614565b90508361394d578082613950565b81815b604080516002808252606082018352939550919350600092906020830190803683370190505090508415613a1f5760ca5481516001600160a01b039091169082906000906139a0576139a06154be565b6001600160a01b03928316602091820292909201015260cb548251911690829060019081106139d1576139d16154be565b6001600160a01b03928316602091820292909201015260cf5460ca546139fd9290811691166000614709565b60cf5460ca54613a1a916001600160a01b03918216911685614709565b613abb565b60cb5481516001600160a01b03909116908290600090613a4157613a416154be565b6001600160a01b03928316602091820292909201015260ca54825191169082906001908110613a7257613a726154be565b6001600160a01b03928316602091820292909201015260cf5460cb54613a9e9290811691166000614709565b60cf5460cb54613abb916001600160a01b03918216911685614709565b60408051600180825281830190925260009160208083019080368337019050509050600381600081518110613af257613af26154be565b60200260200101906003811115613b0b57613b0b615c98565b90816003811115613b1e57613b1e615c98565b90525060408051600180825281830190925260009160208083019080368337019050509050603261ffff1681600081518110613b5c57613b5c6154be565b6020026020010181815250506000604051806060016040528083815260200184815260200185815250905060cf60009054906101000a90046001600160a01b03166001600160a01b0316632a443fae876127108f612710613bbd91906155d4565b613bc7908a6155e7565b613bd19190615614565b8430426040518663ffffffff1660e01b8152600401613bf4959493929190615ce7565b6020604051808303816000875af1158015613c13573d6000803e3d6000fd5b505050506040513d601f19601f82011682018060405250810190613c379190615636565b945087613c5757613c48858f6155a2565b613c52878f6155d4565b613c6b565b613c61868f6155d4565b613c6b868f6155a2565b909e509c505050505050505b50959694955050505050565b60cd5460405163b91e526f60e01b8152600481018390526000916001600160a01b03169063b91e526f90602401600060405180830381865afa158015613ccd573d6000803e3d6000fd5b505050506040513d6000823e601f3d908101601f19168201604052613cf5919081019061580d565b805151909150600003613d1357613d0b8261480d565b825260208201525b60cc54602082015160405163383d15c560e01b8152600092839283926001600160a01b039092169163383d15c591613d52913091908b90600401615db9565b6000604051808303816000875af1158015613d71573d6000803e3d6000fd5b505050506040513d6000823e601f3d908101601f19168201604052613d999190810190615dee565b9250925092506000613dfc613db4846001600160801b031690565b613dc7906001600160801b038716615e3e565b6001600160801b0316613dda8560801c90565b613de48760801c90565b613dee9190615e3e565b6001600160801b03166149ae565b90506000613e0988612063565b905080600003613ebf5760cd546040805160c0810182526001600160a01b038b8116825260208083018790528284018c9052606083018890528a01516080830152895160a0830152915163124f70a960e01b8152919092169163124f70a991613e759190600401615e65565b6020604051808303816000875af1158015613e94573d6000803e3d6000fd5b505050506040513d601f19601f82011682018060405250810190613eb89190615636565b9050613f40565b60cd5460408051608081018252838152602081018590528082018690526001606082015290516325f9c4dd60e21b81526001600160a01b03909216916397e7137491613f0d916004016158ee565b600060405180830381600087803b158015613f2757600080fd5b505af1158015613f3b573d6000803e3d6000fd5b505050505b610ae788836149c6565b60606000613f5784614a89565b9050600080866001600160a01b031685613f72576000613f74565b345b84604051613f829190615ee3565b60006040518083038185875af1925050503d8060008114613fbf576040519150601f19603f3d011682016040523d82523d6000602084013e613fc4565b606091505b5091509150613fd38282614b18565b979650505050505050565b6001600160a01b03831615801590613ffe57506001600160a01b03821615155b1561168d57600061400e84611b0c565b9050600061401b856117aa565b905061402782846155a2565b81101561404757604051631e9acf1760e31b815260040160405180910390fd5b61405084612063565b1561406e576040516335af998760e01b815260040160405180910390fd5b600061407986612063565b90508382036140ed5760cd546040516333bebb7760e01b81526001600160a01b03909116906333bebb77906140b690899089908690600401615c74565b600060405180830381600087803b1580156140d057600080fd5b505af11580156140e4573d6000803e3d6000fd5b50505050611b04565b60cd5460405163133f757160e31b81526004810183905260009182916001600160a01b03909116906399fbab8890602401600060405180830381865afa15801561413b573d6000803e3d6000fd5b505050506040513d6000823e601f3d908101601f191682016040526141639190810190615783565b60cd5460405163b91e526f60e01b815260048101849052929850909650600095506001600160a01b0316935063b91e526f92506024019050600060405180830381865afa1580156141b8573d6000803e3d6000fd5b505050506040513d6000823e601f3d908101601f191682016040526141e0919081019061580d565b905060005b825181101561424157614212838281518110614203576142036154be565b60200260200101518988613301565b838281518110614224576142246154be565b60209081029190910101528061423981615555565b9150506141e5565b5060cd5460408051608081018252868152602081018a90528082018590526000606082015290516325f9c4dd60e21b81526001600160a01b03909216916397e7137491614290916004016158ee565b600060405180830381600087803b1580156142aa57600080fd5b505af11580156142be573d6000803e3d6000fd5b505060cd546040805160c0810182526001600160a01b038d8116825260208083018e90528284018a9052606083018990528701516080830152865160a0830152915163124f70a960e01b815291909216935063124f70a992506143249190600401615e65565b6020604051808303816000875af1158015614343573d6000803e3d6000fd5b505050506040513d601f19601f820116820180604052508101906143679190615636565b50505050505050505050565b6001600160a01b0383161580159061439357506001600160a01b03821615155b1561168d576143a1836127e8565b61168d826127e8565b60006143ff826040518060400160405280602081526020017f5361666545524332303a206c6f772d6c6576656c2063616c6c206661696c6564815250856001600160a01b0316614b959092919063ffffffff16565b90508051600014806144205750808060200190518101906144209190615eff565b61168d5760405162461bcd60e51b815260206004820152602a60248201527f5361666545524332303a204552433230206f7065726174696f6e20646964206e6044820152691bdd081cdd58d8d9595960b21b606482015260840161068a565b6000808080806144906041876155a2565b905060006144a96144a26020846155a2565b3690614ba4565b8035945090506144ba816003614ba4565b62ffffff9490941697933563ffffffff16965092945050505050565b60008060006144e58686614bb0565b91509150816000146144fb578360ff1682901c92505b801561453b57600160ff85161b811061452757604051638e471a8960e01b815260040160405180910390fd5b8360ff166101000361ffff1681901b830192505b50509392505050565b6000612153826080670de0b6b3a7640000614bcf565b8062ffffff8116811461215657604051639b63641560e01b815260040160405180910390fd5b600080600061458f8686614bb0565b915091506145a08686868585614bf5565b9695505050505050565b600054610100900460ff166145d15760405162461bcd60e51b815260040161068a906159a9565b6117d733613274565b600080600060cc60009054906101000a90046001600160a01b03166001600160a01b0316630902f1ac6040518163ffffffff1660e01b81526004016040805180830381865afa158015614631573d6000803e3d6000fd5b505050506040513d601f19601f820116820180604052508101906146559190615b3c565b915091506000826001600160801b0316118061467a57506000816001600160801b0316115b156146ff5760cc54604080516336f997b760e21b815290516000926146d8926001600160a01b0390911691634c7cffbd91839163dbe65edc916004808201926020929091908290030181865afa1580156118ed573d6000803e3d6000fd5b9050670de0b6b3a76400006146ed82876155e7565b6146f79190615614565b935050611c91565b5060009392505050565b8015806147835750604051636eb1769f60e11b81523060048201526001600160a01b03838116602483015284169063dd62ed3e90604401602060405180830381865afa15801561475d573d6000803e3d6000fd5b505050506040513d601f19601f820116820180604052508101906147819190615636565b155b6147ee5760405162461bcd60e51b815260206004820152603660248201527f5361666545524332303a20617070726f76652066726f6d206e6f6e2d7a65726f60448201527520746f206e6f6e2d7a65726f20616c6c6f77616e636560501b606482015260840161068a565b61168d8363095ea7b360e01b8484604051602401613120929190615990565b60d0546060908190806001600160401b0381111561482d5761482d614ec7565b604051908082528060200260200182016040528015614856578160200160208202803683370190505b509250806001600160401b0381111561487157614871614ec7565b60405190808252806020026020018201604052801561489a578160200160208202803683370190505b50915060005b818110156149a757600060d082815481106148bd576148bd6154be565b6000918252602080832060408051606081018252600290940290910180548085526001909101546001600160401b0380821694860194909452600160401b9004909216908301529092506149119088615f1c565b905060008112158015614927575062ffffff8111155b61494457604051631a93c68960e11b815260040160405180910390fd5b80858481518110614957576149576154be565b6020026020010181815250506149768260200151836040015183614ca5565b868481518110614988576149886154be565b6020026020010181815250505050806149a090615555565b90506148a0565b5050915091565b6000806149ba846145da565b905061326c81846155a2565b6001600160a01b038216614a1c5760405162461bcd60e51b815260206004820152601f60248201527f45524332303a206d696e7420746f20746865207a65726f206164647265737300604482015260640161068a565b614a2860008383613fde565b8060996000828254614a3a91906155a2565b90915550506001600160a01b038216600081815260976020908152604080832080548601905551848152600080516020615f65833981519152910160405180910390a3610f6360008383614373565b80516060906000614a98614cd5565b90506000614aa682846155a2565b905036821115614ac957604051632bcb7bc560e11b815260040160405180910390fd5b6060604051905081815285602001848101826020015b81831015614af7578251815260209283019201614adf565b50505082833603856020018301379190920181016020016040529392505050565b606082614b8f578151600003614b4157604051632b3ff13d60e11b815260040160405180910390fd5b602082015162461bcd60e51b148015614b74576040516301efd04f60e31b8152604484019061068a9082906004016150bf565b8260405163fd36fde360e01b815260040161068a91906150bf565b50919050565b606061326c8484600085614d40565b600061121582846155d4565b6000806000198385098385029250828110838203039150509250929050565b600060ff831684811b9061ffff6101008290031686901c906145a09087906001901b8685855b600081600003614c1657838381614c0e57614c0e6155fe565b049050614c9c565b838210614c36576040516313eae71560e01b815260040160405180910390fd5b60008486880960018619810187169687900496600081900381900490910186831190950394850291909503949094049390931792505060026003840281188085028203028085028203028085028203028085028203028085028203028085029091030282025b95945050505050565b601882901b6301000000600160581b0316605884901b600160581b600160981b03161762ffffff8216811761326c565b600080614ce0613157565b90506000614ced826131fe565b61ffff169050614cfe6002836155a2565b915060005b81811015614d38576000614d1684613238565b9050614d2281856155a2565b9350508080614d3090615555565b915050614d03565b509092915050565b606082471015614da15760405162461bcd60e51b815260206004820152602660248201527f416464726573733a20696e73756666696369656e742062616c616e636520666f6044820152651c8818d85b1b60d21b606482015260840161068a565b600080866001600160a01b03168587604051614dbd9190615ee3565b60006040518083038185875af1925050503d8060008114614dfa576040519150601f19603f3d011682016040523d82523d6000602084013e614dff565b606091505b5091509150613fd38783838760608315614e78578251600003614e7157614e258561215b565b614e715760405162461bcd60e51b815260206004820152601d60248201527f416464726573733a2063616c6c20746f206e6f6e2d636f6e7472616374000000604482015260640161068a565b508161326c565b61326c8383815115614e8d5781518083602001fd5b8060405162461bcd60e51b815260040161068a91906150bf565b6001600160a01b03811681146114e157600080fd5b803561215681614ea7565b634e487b7160e01b600052604160045260246000fd5b604051601f8201601f191681016001600160401b0381118282101715614f0557614f05614ec7565b604052919050565b60008083601f840112614f1f57600080fd5b5081356001600160401b03811115614f3657600080fd5b602083019150836020606083028501011115614f5157600080fd5b9250929050565b600080600080600080600060c0888a031215614f7357600080fd5b8735614f7e81614ea7565b9650602088810135614f8f81614ea7565b965060408901356001600160401b0380821115614fab57600080fd5b818b0191508b601f830112614fbf57600080fd5b813581811115614fd157614fd1614ec7565b614fe3601f8201601f19168501614edd565b8181528d85838601011115614ff757600080fd5b818585018683013760009181019094015291965060608a0135918083111561501e57600080fd5b505061502c8a828b01614f0d565b909550935061503f905060808901614ebc565b915061504d60a08901614ebc565b905092959891949750929550565b6001600160a01b0391909116815260200190565b60005b8381101561508a578181015183820152602001615072565b50506000910152565b600081518084526150ab81602086016020860161506f565b601f01601f19169290920160200192915050565b6020815260006112156020830184615093565b600080604083850312156150e557600080fd5b82356150f081614ea7565b946020939093013593505050565b60008083601f84011261511057600080fd5b5081356001600160401b0381111561512757600080fd5b6020830191508360208260051b8501011115614f5157600080fd5b600080600080600080600080600060e08a8c03121561516057600080fd5b893561516b81614ea7565b985060208a01356001600160401b038082111561518757600080fd5b6151938d838e016150fe565b909a50985060408c01359150808211156151ac57600080fd5b506151b98c828d016150fe565b9a9d999c50979a9799986060890135986080810135985060a0810135975060c0013595509350505050565b600080604083850312156151f757600080fd5b50508035926020909101359150565b600080600080600080600060a0888a03121561522157600080fd5b87356001600160401b038082111561523857600080fd5b6152448b838c016150fe565b909950975060208a013591508082111561525d57600080fd5b5061526a8a828b016150fe565b989b979a50986040810135976060820135975060809091013595509350505050565b60006020828403121561529e57600080fd5b813561121581614ea7565b6000806000606084860312156152be57600080fd5b83356152c981614ea7565b925060208401356152d981614ea7565b929592945050506040919091013590565b6000602082840312156152fc57600080fd5b5035919050565b60008060006040848603121561531857600080fd5b833561532381614ea7565b925060208401356001600160401b0381111561533e57600080fd5b61534a868287016150fe565b9497909650939450505050565b80151581146114e157600080fd5b60008060008060008060c0878903121561537e57600080fd5b8635955060208701359450604087013593506060870135925060808701356153a581615357565b8092505060a087013590509295509295509295565b600080604083850312156153cd57600080fd5b82356153d881614ea7565b915060208301356153e881614ea7565b809150509250929050565b60006020828403121561540557600080fd5b815161121581614ea7565b60006080828403121561542257600080fd5b604051608081016001600160401b038111828210171561544457615444614ec7565b604052825161ffff8116811461545957600080fd5b8152602083015161546981614ea7565b6020820152604083015161547c81615357565b6040820152606083015161548f81615357565b60608201529392505050565b6000602082840312156154ad57600080fd5b815160ff8116811461121557600080fd5b634e487b7160e01b600052603260045260246000fd5b600081356001600160401b0381168114610b9757600080fd5b81358155600181016001600160401b03615509602085016154d4565b8254911690600160401b600160801b03615525604087016154d4565b60401b168260018060801b03198316171783555050505050565b634e487b7160e01b600052601160045260246000fd5b6000600182016155675761556761553f565b5060010190565b600181811c9082168061558257607f821691505b602082108103614b8f57634e487b7160e01b600052602260045260246000fd5b80820180821115610b9757610b9761553f565b600060ff821660ff81036155cb576155cb61553f565b60010192915050565b81810381811115610b9757610b9761553f565b8082028115828204841417610b9757610b9761553f565b634e487b7160e01b600052601260045260246000fd5b60008261563157634e487b7160e01b600052601260045260246000fd5b500490565b60006020828403121561564857600080fd5b5051919050565b81835260006001600160fb1b0383111561566857600080fd5b8260051b80836020870137939093016020019392505050565b6001600160a01b038781168252861660208201526080604082018190526000906156ae908301868861564f565b828103606084015261346d81858761564f565b60006001600160401b038211156156da576156da614ec7565b5060051b60200190565b600082601f8301126156f557600080fd5b8151602061570a615705836156c1565b614edd565b82815260059290921b8401810191818101908684111561572957600080fd5b8286015b84811015615744578051835291830191830161572d565b509695505050505050565b60006020828403121561576157600080fd5b81516001600160401b0381111561577757600080fd5b61326c848285016156e4565b60008060008060008060c0878903121561579c57600080fd5b86516157a781614ea7565b60208801519096506157b881614ea7565b60408801519095506157c981614ea7565b6060880151608089015160a08a015192965090945092506001600160401b038111156157f457600080fd5b61580089828a016156e4565b9150509295509295509295565b60006020828403121561581f57600080fd5b81516001600160401b038082111561583657600080fd5b908301906040828603121561584a57600080fd5b60405160408101818110838211171561586557615865614ec7565b60405282518281111561587757600080fd5b615883878286016156e4565b82525060208301518281111561589857600080fd5b6158a4878286016156e4565b60208301525095945050505050565b600081518084526020808501945080840160005b838110156158e3578151875295820195908201906001016158c7565b509495945050505050565b602081528151602082015260208201516040820152600060408301516080606084015261591e60a08401826158b3565b90506060840151151560808401528091505092915050565b6001600160a01b0384168152604060208201819052600090614c9c908301848661564f565b60006020828403121561596d57600080fd5b815162ffffff8116811461121557600080fd5b62ffffff91909116815260200190565b6001600160a01b03929092168252602082015260400190565b6020808252602b908201527f496e697469616c697a61626c653a20636f6e7472616374206973206e6f74206960408201526a6e697469616c697a696e6760a81b606082015260800190565b6001600160a01b03858116825284166020820152608060408201819052600090615a20908301856158b3565b8281036060840152613fd381856158b3565b600181815b80851115615a6d578160001904821115615a5357615a5361553f565b80851615615a6057918102915b93841c9390800290615a37565b509250929050565b600082615a8457506001610b97565b81615a9157506000610b97565b8160018114615aa75760028114615ab157615acd565b6001915050610b97565b60ff841115615ac257615ac261553f565b50506001821b610b97565b5060208310610133831016604e8410600b8410161715615af0575081810a610b97565b615afa8383615a32565b8060001904821115615b0e57615b0e61553f565b029392505050565b600061121560ff841683615a75565b80516001600160801b038116811461215657600080fd5b60008060408385031215615b4f57600080fd5b615b5883615b25565b9150615b6660208401615b25565b90509250929050565b601f82111561168d57600081815260208120601f850160051c81016020861015615b965750805b601f850160051c820191505b81811015611b0457828155600101615ba2565b81516001600160401b03811115615bce57615bce614ec7565b615be281615bdc845461556e565b84615b6f565b602080601f831160018114615c175760008415615bff5750858301515b600019600386901b1c1916600185901b178555611b04565b600085815260208120601f198616915b82811015615c4657888601518255948401946001909101908401615c27565b5085821015615c645787850151600019600388901b60f8161c191681555b5050505050600190811b01905550565b6001600160a01b039384168152919092166020820152604081019190915260600190565b634e487b7160e01b600052602160045260246000fd5b600081518084526020808501945080840160005b838110156158e35781516001600160a01b031687529582019590820190600101615cc2565b85815260006020868184015260a060408401528551606060a0850152615d116101008501826158b3565b82880151609f19868303810160c088015281518084529185019350600092909190850190835b81811015615d705785516004808210615d5d57634e487b7160e01b875260218152602487fd5b5083529486019491860191600101615d37565b505060408a01519450818782030160e0880152615d8d8186615cae565b95505050505050615da960608301856001600160a01b03169052565b8260808301529695505050505050565b600060018060a01b03808616835260606020840152615ddb60608401866158b3565b9150808416604084015250949350505050565b600080600060608486031215615e0357600080fd5b83516020850151604086015191945092506001600160401b03811115615e2857600080fd5b615e34868287016156e4565b9150509250925092565b6001600160801b03828116828216039080821115615e5e57615e5e61553f565b5092915050565b6020815260018060a01b03825116602082015260208201516040820152604082015160608201526000606083015160c06080840152615ea760e08401826158b3565b90506080840151601f19808584030160a0860152615ec583836158b3565b925060a08601519150808584030160c086015250614c9c82826158b3565b60008251615ef581846020870161506f565b9190910192915050565b600060208284031215615f1157600080fd5b815161121581615357565b8082018281126000831280158216821582161715615f3c57615f3c61553f565b50509291505056fe63a0d9df49fae3f1b9d24f8dc819a568c429a1b11d0d8e9de63df53a0194acb2ddf252ad1be2c89b69c2b068fc378daa952ba7f163c4a11628f55a4df523b3efa264697066735822122028d94e9fe22989ba8d3efb8a3acd4ca7d5a400d669a295d2b8adb4c8b37479f664736f6c63430008110033",
  "devdoc": {
    "kind": "dev",
    "methods": {
      "allowance(address,address)": {
        "details": "See {IERC20-allowance}."
      },
      "approve(address,uint256)": {
        "details": "See {IERC20-approve}. NOTE: If `amount` is the maximum `uint256`, the allowance is not updated on `transferFrom`. This is semantically equivalent to an infinite approval. Requirements: - `spender` cannot be the zero address."
      },
      "balanceOf(address)": {
        "details": "See {IERC20-balanceOf}."
      },
      "binInRange(address)": {
        "details": "Check if the active id is in the user position range",
        "params": {
          "user": "User Address."
        },
        "returns": {
          "_0": "status bin status"
        }
      },
      "claim(address,uint256[])": {
        "details": "Claims the reward from TraderJoe v2.2 Base Reward Pool",
        "params": {
          "ids": "Bin Id list to claim.",
          "receiver": "User address that will receive the collected reward."
        }
      },
      "decimals()": {
        "details": "Returns the number of decimals used to get its user representation. For example, if `decimals` equals `2`, a balance of `505` tokens should be displayed to a user as `5.05` (`505 / 10 ** 2`). Tokens usually opt for a value of 18, imitating the relationship between Ether and Wei. This is the default value returned by this function, unless it's overridden. NOTE: This information is only used for _display_ purposes: it in no way affects any of the arithmetic of the contract, including {IERC20-balanceOf} and {IERC20-transfer}."
      },
      "decreaseAllowance(address,uint256)": {
        "details": "Atomically decreases the allowance granted to `spender` by the caller. This is an alternative to {approve} that can be used as a mitigation for problems described in {IERC20-approve}. Emits an {Approval} event indicating the updated allowance. Requirements: - `spender` cannot be the zero address. - `spender` must have allowance for the caller of at least `subtractedValue`."
      },
      "deposit(uint256,uint256,uint256,uint256,bool,uint256)": {
        "details": "Users can use deposit function for depositing tokens to the specific bin.",
        "params": {
          "activeIdDesired": "The active id that user wants to add liquidity from",
          "amountX": "The amount of token X to deposit.",
          "amountY": "The amount of token Y to deposit.",
          "idSlippage": "The number of id that are allowed to slip",
          "isRebalance": "Rebalance the existing position with deposit.",
          "swapSlippage": "Slippage for the rebalance."
        }
      },
      "getFullyVestedLockedBalance(address)": {
        "details": "Returns the fully vested locked balance for an account.Full business logic description can be found in Pool::getFullyVestedLockedBalance() docstring",
        "params": {
          "account": "The address of the account."
        },
        "returns": {
          "fullyVestedBalance": "Fully vested locked balance"
        }
      },
      "getLockedBalance(address)": {
        "details": "Returns the total locked balance of an account.",
        "params": {
          "account": "The address of the account."
        },
        "returns": {
          "_0": "The total locked balance of the account."
        }
      },
      "getUserTokenId(address)": {
        "details": "Returns the token id for the user",
        "params": {
          "user": "The user address"
        },
        "returns": {
          "tokenId": "token id owned by the user"
        }
      },
      "getUserValueInTokenY(address)": {
        "details": "Returns the estimated USD value of the user position",
        "params": {
          "user": "User Address"
        },
        "returns": {
          "_0": "Total Value in tokenY amount for the user's position."
        }
      },
      "getUserValueInTokenY(address,uint256)": {
        "details": "Returns the estimated USD value of the user position",
        "params": {
          "poolPrice": "Pool Price or oracle price for calculating proper token amount",
          "user": "User Address"
        },
        "returns": {
          "_0": "Total Value in tokenY amount for the user's position."
        }
      },
      "increaseAllowance(address,uint256)": {
        "details": "Atomically increases the allowance granted to `spender` by the caller. This is an alternative to {approve} that can be used as a mitigation for problems described in {IERC20-approve}. Emits an {Approval} event indicating the updated allowance. Requirements: - `spender` cannot be the zero address."
      },
      "initialize(address,address,string,(int256,uint64,uint64)[],address,address)": {
        "details": "initialize of the contract.",
        "params": {
          "depositForm_": "Pre-defined distributions and delta ids",
          "name_": "The name of the SPrime token. ex: PRIME-USDC LP",
          "positionManager_": "Position Manager contract for sPrime",
          "tokenX_": "The address of the token X.",
          "tokenY_": "The address of the token Y.",
          "traderJoeV2Router_": "Trader Joe V2 Router Address"
        }
      },
      "lockBalance(uint256,uint256)": {
        "details": "Locks a specified amount of balance for a specified lock period.",
        "params": {
          "amount": "The amount of balance to be locked.",
          "lockPeriod": "The duration for which the balance will be locked."
        }
      },
      "migrateLiquidity(uint256[],uint256[],uint256,uint256,uint256)": {
        "details": "Users can use deposit function for depositing tokens to the specific bin.",
        "params": {
          "activeIdDesired": "The active id that user wants to add liquidity from",
          "amounts": "Minted LBT amount for each deposit id",
          "idSlippage": "The number of id that are allowed to slip",
          "ids": "Depoisit Ids from TraderJoe",
          "swapSlippage": "Slippage for the rebalance."
        }
      },
      "mintForUserAndLock(address,uint256[],uint256[],uint256,uint256,uint256,uint256)": {
        "details": "Users can use deposit function for depositing tokens to the specific bin.",
        "params": {
          "activeIdDesired": "Desired bin id.",
          "amountX": "The amount of token X to deposit.",
          "amountY": "The amount of token Y to deposit.",
          "idSlippage": "Bin id slippage from the active id.",
          "lockPeriods": "Lock period to Lock for each amount",
          "percentForLocks": "sPrime amount % to lock",
          "user": "The active id that user wants to add liquidity from"
        }
      },
      "name()": {
        "details": "Returns the name of the token."
      },
      "owner()": {
        "details": "Returns the address of the current owner."
      },
      "renounceOwnership()": {
        "details": "Leaves the contract without owner. It will not be possible to call `onlyOwner` functions. Can only be called by the current owner. NOTE: Renouncing ownership will leave the contract without an owner, thereby disabling any functionality that is only available to the owner."
      },
      "symbol()": {
        "details": "Returns the symbol of the token, usually a shorter version of the name."
      },
      "totalSupply()": {
        "details": "See {IERC20-totalSupply}."
      },
      "transfer(address,uint256)": {
        "details": "See {IERC20-transfer}. Requirements: - `to` cannot be the zero address. - the caller must have a balance of at least `amount`."
      },
      "transferFrom(address,address,uint256)": {
        "details": "See {IERC20-transferFrom}. Emits an {Approval} event indicating the updated allowance. This is not required by the EIP. See the note at the beginning of {ERC20}. NOTE: Does not update the allowance if the current allowance is the maximum `uint256`. Requirements: - `from` and `to` cannot be the zero address. - `from` must have a balance of at least `amount`. - the caller must have allowance for ``from``'s tokens of at least `amount`."
      },
      "withdraw(uint256)": {
        "details": "Users can use withdraw function for withdrawing their share.",
        "params": {
          "share": "Amount to withdraw"
        }
      }
    },
    "version": 1
  },
  "userdoc": {
    "kind": "user",
    "methods": {
      "getLBPair()": {
        "notice": "Public View Functions "
      }
    },
    "version": 1
  },
  "storageLayout": {
    "storage": [
      {
        "astId": 138,
        "contract": "contracts/token/sPrime.sol:SPrime",
        "label": "_initialized",
        "offset": 0,
        "slot": "0",
        "type": "t_uint8"
      },
      {
        "astId": 141,
        "contract": "contracts/token/sPrime.sol:SPrime",
        "label": "_initializing",
        "offset": 1,
        "slot": "0",
        "type": "t_bool"
      },
      {
        "astId": 314,
        "contract": "contracts/token/sPrime.sol:SPrime",
        "label": "_status",
        "offset": 0,
        "slot": "1",
        "type": "t_uint256"
      },
      {
        "astId": 383,
        "contract": "contracts/token/sPrime.sol:SPrime",
        "label": "__gap",
        "offset": 0,
        "slot": "2",
        "type": "t_array(t_uint256)49_storage"
      },
      {
        "astId": 1470,
        "contract": "contracts/token/sPrime.sol:SPrime",
        "label": "__gap",
        "offset": 0,
        "slot": "51",
        "type": "t_array(t_uint256)50_storage"
      },
      {
        "astId": 10,
        "contract": "contracts/token/sPrime.sol:SPrime",
        "label": "_owner",
        "offset": 0,
        "slot": "101",
        "type": "t_address"
      },
      {
        "astId": 130,
        "contract": "contracts/token/sPrime.sol:SPrime",
        "label": "__gap",
        "offset": 0,
        "slot": "102",
        "type": "t_array(t_uint256)49_storage"
      },
      {
        "astId": 403,
        "contract": "contracts/token/sPrime.sol:SPrime",
        "label": "_balances",
        "offset": 0,
        "slot": "151",
        "type": "t_mapping(t_address,t_uint256)"
      },
      {
        "astId": 409,
        "contract": "contracts/token/sPrime.sol:SPrime",
        "label": "_allowances",
        "offset": 0,
        "slot": "152",
        "type": "t_mapping(t_address,t_mapping(t_address,t_uint256))"
      },
      {
        "astId": 411,
        "contract": "contracts/token/sPrime.sol:SPrime",
        "label": "_totalSupply",
        "offset": 0,
        "slot": "153",
        "type": "t_uint256"
      },
      {
        "astId": 413,
        "contract": "contracts/token/sPrime.sol:SPrime",
        "label": "_name",
        "offset": 0,
        "slot": "154",
        "type": "t_string_storage"
      },
      {
        "astId": 415,
        "contract": "contracts/token/sPrime.sol:SPrime",
        "label": "_symbol",
        "offset": 0,
        "slot": "155",
        "type": "t_string_storage"
      },
      {
        "astId": 995,
        "contract": "contracts/token/sPrime.sol:SPrime",
        "label": "__gap",
        "offset": 0,
        "slot": "156",
        "type": "t_array(t_uint256)45_storage"
      },
      {
        "astId": 9556,
        "contract": "contracts/token/sPrime.sol:SPrime",
        "label": "locks",
        "offset": 0,
        "slot": "201",
        "type": "t_mapping(t_address,t_array(t_struct(LockDetails)3703_storage)dyn_storage)"
      },
      {
        "astId": 9559,
        "contract": "contracts/token/sPrime.sol:SPrime",
        "label": "tokenX",
        "offset": 0,
        "slot": "202",
        "type": "t_contract(IERC20Metadata)1574"
      },
      {
        "astId": 9562,
        "contract": "contracts/token/sPrime.sol:SPrime",
        "label": "tokenY",
        "offset": 0,
        "slot": "203",
        "type": "t_contract(IERC20Metadata)1574"
      },
      {
        "astId": 9564,
        "contract": "contracts/token/sPrime.sol:SPrime",
        "label": "tokenXDecimals",
        "offset": 20,
        "slot": "203",
        "type": "t_uint8"
      },
      {
        "astId": 9566,
        "contract": "contracts/token/sPrime.sol:SPrime",
        "label": "tokenYDecimals",
        "offset": 21,
        "slot": "203",
        "type": "t_uint8"
      },
      {
        "astId": 9569,
        "contract": "contracts/token/sPrime.sol:SPrime",
        "label": "lbPair",
        "offset": 0,
        "slot": "204",
        "type": "t_contract(ILBPair)6161"
      },
      {
        "astId": 9572,
        "contract": "contracts/token/sPrime.sol:SPrime",
        "label": "positionManager",
        "offset": 0,
        "slot": "205",
        "type": "t_contract(IPositionManager)3693"
      },
      {
        "astId": 9575,
        "contract": "contracts/token/sPrime.sol:SPrime",
        "label": "vPrimeController",
        "offset": 0,
        "slot": "206",
        "type": "t_contract(IVPrimeController)3798"
      },
      {
        "astId": 9577,
        "contract": "contracts/token/sPrime.sol:SPrime",
        "label": "traderJoeV2Router",
        "offset": 0,
        "slot": "207",
        "type": "t_address"
      },
      {
        "astId": 9581,
        "contract": "contracts/token/sPrime.sol:SPrime",
        "label": "depositForm",
        "offset": 0,
        "slot": "208",
        "type": "t_array(t_struct(DepositForm)3756_storage)dyn_storage"
      },
      {
        "astId": 9583,
        "contract": "contracts/token/sPrime.sol:SPrime",
        "label": "operator",
        "offset": 0,
        "slot": "209",
        "type": "t_address"
      },
      {
        "astId": 9586,
        "contract": "contracts/token/sPrime.sol:SPrime",
        "label": "baseRewarder",
        "offset": 0,
        "slot": "210",
        "type": "t_contract(ILBHooksBaseRewarder)4428"
      }
    ],
    "types": {
      "t_address": {
        "encoding": "inplace",
        "label": "address",
        "numberOfBytes": "20"
      },
      "t_array(t_struct(DepositForm)3756_storage)dyn_storage": {
        "base": "t_struct(DepositForm)3756_storage",
        "encoding": "dynamic_array",
        "label": "struct ISPrimeTraderJoe.DepositForm[]",
        "numberOfBytes": "32"
      },
      "t_array(t_struct(LockDetails)3703_storage)dyn_storage": {
        "base": "t_struct(LockDetails)3703_storage",
        "encoding": "dynamic_array",
        "label": "struct ISPrime.LockDetails[]",
        "numberOfBytes": "32"
      },
      "t_array(t_uint256)45_storage": {
        "base": "t_uint256",
        "encoding": "inplace",
        "label": "uint256[45]",
        "numberOfBytes": "1440"
      },
      "t_array(t_uint256)49_storage": {
        "base": "t_uint256",
        "encoding": "inplace",
        "label": "uint256[49]",
        "numberOfBytes": "1568"
      },
      "t_array(t_uint256)50_storage": {
        "base": "t_uint256",
        "encoding": "inplace",
        "label": "uint256[50]",
        "numberOfBytes": "1600"
      },
      "t_bool": {
        "encoding": "inplace",
        "label": "bool",
        "numberOfBytes": "1"
      },
      "t_contract(IERC20Metadata)1574": {
        "encoding": "inplace",
        "label": "contract IERC20Metadata",
        "numberOfBytes": "20"
      },
      "t_contract(ILBHooksBaseRewarder)4428": {
        "encoding": "inplace",
        "label": "contract ILBHooksBaseRewarder",
        "numberOfBytes": "20"
      },
      "t_contract(ILBPair)6161": {
        "encoding": "inplace",
        "label": "contract ILBPair",
        "numberOfBytes": "20"
      },
      "t_contract(IPositionManager)3693": {
        "encoding": "inplace",
        "label": "contract IPositionManager",
        "numberOfBytes": "20"
      },
      "t_contract(IVPrimeController)3798": {
        "encoding": "inplace",
        "label": "contract IVPrimeController",
        "numberOfBytes": "20"
      },
      "t_int256": {
        "encoding": "inplace",
        "label": "int256",
        "numberOfBytes": "32"
      },
      "t_mapping(t_address,t_array(t_struct(LockDetails)3703_storage)dyn_storage)": {
        "encoding": "mapping",
        "key": "t_address",
        "label": "mapping(address => struct ISPrime.LockDetails[])",
        "numberOfBytes": "32",
        "value": "t_array(t_struct(LockDetails)3703_storage)dyn_storage"
      },
      "t_mapping(t_address,t_mapping(t_address,t_uint256))": {
        "encoding": "mapping",
        "key": "t_address",
        "label": "mapping(address => mapping(address => uint256))",
        "numberOfBytes": "32",
        "value": "t_mapping(t_address,t_uint256)"
      },
      "t_mapping(t_address,t_uint256)": {
        "encoding": "mapping",
        "key": "t_address",
        "label": "mapping(address => uint256)",
        "numberOfBytes": "32",
        "value": "t_uint256"
      },
      "t_string_storage": {
        "encoding": "bytes",
        "label": "string",
        "numberOfBytes": "32"
      },
      "t_struct(DepositForm)3756_storage": {
        "encoding": "inplace",
        "label": "struct ISPrimeTraderJoe.DepositForm",
        "members": [
          {
            "astId": 3751,
            "contract": "contracts/token/sPrime.sol:SPrime",
            "label": "deltaId",
            "offset": 0,
            "slot": "0",
            "type": "t_int256"
          },
          {
            "astId": 3753,
            "contract": "contracts/token/sPrime.sol:SPrime",
            "label": "distributionX",
            "offset": 0,
            "slot": "1",
            "type": "t_uint64"
          },
          {
            "astId": 3755,
            "contract": "contracts/token/sPrime.sol:SPrime",
            "label": "distributionY",
            "offset": 8,
            "slot": "1",
            "type": "t_uint64"
          }
        ],
        "numberOfBytes": "64"
      },
      "t_struct(LockDetails)3703_storage": {
        "encoding": "inplace",
        "label": "struct ISPrime.LockDetails",
        "members": [
          {
            "astId": 3698,
            "contract": "contracts/token/sPrime.sol:SPrime",
            "label": "lockPeriod",
            "offset": 0,
            "slot": "0",
            "type": "t_uint256"
          },
          {
            "astId": 3700,
            "contract": "contracts/token/sPrime.sol:SPrime",
            "label": "amount",
            "offset": 0,
            "slot": "1",
            "type": "t_uint256"
          },
          {
            "astId": 3702,
            "contract": "contracts/token/sPrime.sol:SPrime",
            "label": "unlockTime",
            "offset": 0,
            "slot": "2",
            "type": "t_uint256"
          }
        ],
        "numberOfBytes": "96"
      },
      "t_uint256": {
        "encoding": "inplace",
        "label": "uint256",
        "numberOfBytes": "32"
      },
      "t_uint64": {
        "encoding": "inplace",
        "label": "uint64",
        "numberOfBytes": "8"
      },
      "t_uint8": {
        "encoding": "inplace",
        "label": "uint8",
        "numberOfBytes": "1"
      }
    }
  }
}