{
  "address": "0xd173e6d6AFBcb78F8C991EE235b89f2672a4bcdA",
  "abi": [
    {
      "inputs": [],
      "name": "CalldataMustHaveValidPayload",
      "type": "error"
    },
    {
      "inputs": [],
      "name": "CalldataOverOrUnderFlow",
      "type": "error"
    },
    {
      "inputs": [],
      "name": "EachSignerMustProvideTheSameValue",
      "type": "error"
    },
    {
      "inputs": [],
      "name": "EmptyCalldataPointersArr",
      "type": "error"
    },
    {
      "inputs": [],
      "name": "IncorrectUnsignedMetadataSize",
      "type": "error"
    },
    {
      "inputs": [
        {
          "internalType": "uint256",
          "name": "receviedSignersCount",
          "type": "uint256"
        },
        {
          "internalType": "uint256",
          "name": "requiredSignersCount",
          "type": "uint256"
        }
      ],
      "name": "InsufficientNumberOfUniqueSigners",
      "type": "error"
    },
    {
      "inputs": [],
      "name": "InvalidCalldataPointer",
      "type": "error"
    },
    {
      "inputs": [
        {
          "internalType": "bytes",
          "name": "result",
          "type": "bytes"
        }
      ],
      "name": "ProxyCalldataFailedWithCustomError",
      "type": "error"
    },
    {
      "inputs": [
        {
          "internalType": "string",
          "name": "message",
          "type": "string"
        }
      ],
      "name": "ProxyCalldataFailedWithStringMessage",
      "type": "error"
    },
    {
      "inputs": [],
      "name": "ProxyCalldataFailedWithoutErrMsg",
      "type": "error"
    },
    {
      "inputs": [
        {
          "internalType": "address",
          "name": "receivedSigner",
          "type": "address"
        }
      ],
      "name": "SignerNotAuthorised",
      "type": "error"
    },
    {
      "anonymous": false,
      "inputs": [
        {
          "indexed": true,
          "internalType": "address",
          "name": "user",
          "type": "address"
        },
        {
          "indexed": false,
          "internalType": "bytes32",
          "name": "asset0",
          "type": "bytes32"
        },
        {
          "indexed": false,
          "internalType": "bytes32",
          "name": "asset1",
          "type": "bytes32"
        },
        {
          "indexed": true,
          "internalType": "address",
          "name": "vault",
          "type": "address"
        },
        {
          "indexed": false,
          "internalType": "uint256",
          "name": "depositTokenAmount0",
          "type": "uint256"
        },
        {
          "indexed": false,
          "internalType": "uint256",
          "name": "depositTokenAmount1",
          "type": "uint256"
        },
        {
          "indexed": false,
          "internalType": "uint256",
          "name": "receiptTokenAmount",
          "type": "uint256"
        },
        {
          "indexed": false,
          "internalType": "uint256",
          "name": "timestamp",
          "type": "uint256"
        }
      ],
      "name": "Staked",
      "type": "event"
    },
    {
      "anonymous": false,
      "inputs": [
        {
          "indexed": true,
          "internalType": "address",
          "name": "user",
          "type": "address"
        },
        {
          "indexed": false,
          "internalType": "bytes32",
          "name": "asset0",
          "type": "bytes32"
        },
        {
          "indexed": false,
          "internalType": "bytes32",
          "name": "asset1",
          "type": "bytes32"
        },
        {
          "indexed": true,
          "internalType": "address",
          "name": "vault",
          "type": "address"
        },
        {
          "indexed": false,
          "internalType": "uint256",
          "name": "depositTokenAmount0",
          "type": "uint256"
        },
        {
          "indexed": false,
          "internalType": "uint256",
          "name": "depositTokenAmount1",
          "type": "uint256"
        },
        {
          "indexed": false,
          "internalType": "uint256",
          "name": "receiptTokenAmount",
          "type": "uint256"
        },
        {
          "indexed": false,
          "internalType": "uint256",
          "name": "timestamp",
          "type": "uint256"
        }
      ],
      "name": "Unstaked",
      "type": "event"
    },
    {
      "inputs": [
        {
          "internalType": "bytes32[]",
          "name": "assetsToRepay",
          "type": "bytes32[]"
        }
      ],
      "name": "_getAllPricesForLiquidation",
      "outputs": [
        {
          "components": [
            {
              "components": [
                {
                  "internalType": "bytes32",
                  "name": "asset",
                  "type": "bytes32"
                },
                {
                  "internalType": "uint256",
                  "name": "price",
                  "type": "uint256"
                }
              ],
              "internalType": "struct SolvencyFacetProd.AssetPrice[]",
              "name": "ownedAssetsPrices",
              "type": "tuple[]"
            },
            {
              "components": [
                {
                  "internalType": "bytes32",
                  "name": "asset",
                  "type": "bytes32"
                },
                {
                  "internalType": "uint256",
                  "name": "price",
                  "type": "uint256"
                }
              ],
              "internalType": "struct SolvencyFacetProd.AssetPrice[]",
              "name": "debtAssetsPrices",
              "type": "tuple[]"
            },
            {
              "components": [
                {
                  "internalType": "bytes32",
                  "name": "asset",
                  "type": "bytes32"
                },
                {
                  "internalType": "uint256",
                  "name": "price",
                  "type": "uint256"
                }
              ],
              "internalType": "struct SolvencyFacetProd.AssetPrice[]",
              "name": "stakedPositionsPrices",
              "type": "tuple[]"
            },
            {
              "components": [
                {
                  "internalType": "bytes32",
                  "name": "asset",
                  "type": "bytes32"
                },
                {
                  "internalType": "uint256",
                  "name": "price",
                  "type": "uint256"
                }
              ],
              "internalType": "struct SolvencyFacetProd.AssetPrice[]",
              "name": "assetsToRepayPrices",
              "type": "tuple[]"
            }
          ],
          "internalType": "struct SolvencyFacetProd.CachedPrices",
          "name": "result",
          "type": "tuple"
        }
      ],
      "stateMutability": "nonpayable",
      "type": "function"
    },
    {
      "inputs": [],
      "name": "_getHealthRatio",
      "outputs": [
        {
          "internalType": "uint256",
          "name": "health",
          "type": "uint256"
        }
      ],
      "stateMutability": "nonpayable",
      "type": "function"
    },
    {
      "inputs": [
        {
          "components": [
            {
              "components": [
                {
                  "internalType": "bytes32",
                  "name": "asset",
                  "type": "bytes32"
                },
                {
                  "internalType": "uint256",
                  "name": "price",
                  "type": "uint256"
                }
              ],
              "internalType": "struct SolvencyFacetProd.AssetPrice[]",
              "name": "ownedAssetsPrices",
              "type": "tuple[]"
            },
            {
              "components": [
                {
                  "internalType": "bytes32",
                  "name": "asset",
                  "type": "bytes32"
                },
                {
                  "internalType": "uint256",
                  "name": "price",
                  "type": "uint256"
                }
              ],
              "internalType": "struct SolvencyFacetProd.AssetPrice[]",
              "name": "debtAssetsPrices",
              "type": "tuple[]"
            },
            {
              "components": [
                {
                  "internalType": "bytes32",
                  "name": "asset",
                  "type": "bytes32"
                },
                {
                  "internalType": "uint256",
                  "name": "price",
                  "type": "uint256"
                }
              ],
              "internalType": "struct SolvencyFacetProd.AssetPrice[]",
              "name": "stakedPositionsPrices",
              "type": "tuple[]"
            },
            {
              "components": [
                {
                  "internalType": "bytes32",
                  "name": "asset",
                  "type": "bytes32"
                },
                {
                  "internalType": "uint256",
                  "name": "price",
                  "type": "uint256"
                }
              ],
              "internalType": "struct SolvencyFacetProd.AssetPrice[]",
              "name": "assetsToRepayPrices",
              "type": "tuple[]"
            }
          ],
          "internalType": "struct SolvencyFacetProd.CachedPrices",
          "name": "cachedPrices",
          "type": "tuple"
        }
      ],
      "name": "_getHealthRatioWithPrices",
      "outputs": [
        {
          "internalType": "uint256",
          "name": "health",
          "type": "uint256"
        }
      ],
      "stateMutability": "nonpayable",
      "type": "function"
    },
    {
      "inputs": [],
      "name": "_resetPrimeAccountAssetsExposure",
      "outputs": [],
      "stateMutability": "nonpayable",
      "type": "function"
    },
    {
      "inputs": [],
      "name": "_setPrimeAccountAssetsExposure",
      "outputs": [],
      "stateMutability": "nonpayable",
      "type": "function"
    },
    {
      "inputs": [
        {
          "internalType": "bytes32",
          "name": "symbol",
          "type": "bytes32"
        }
      ],
      "name": "getPrice",
      "outputs": [
        {
          "internalType": "uint256",
          "name": "price",
          "type": "uint256"
        }
      ],
      "stateMutability": "nonpayable",
      "type": "function"
    },
    {
      "inputs": [
        {
          "internalType": "bytes32[]",
          "name": "symbols",
          "type": "bytes32[]"
        }
      ],
      "name": "getPrices",
      "outputs": [
        {
          "internalType": "uint256[]",
          "name": "prices",
          "type": "uint256[]"
        }
      ],
      "stateMutability": "nonpayable",
      "type": "function"
    },
    {
      "inputs": [
        {
          "internalType": "uint256",
          "name": "amount0Desired",
          "type": "uint256"
        },
        {
          "internalType": "uint256",
          "name": "amount1Desired",
          "type": "uint256"
        },
        {
          "internalType": "uint256",
          "name": "amount0Min",
          "type": "uint256"
        },
        {
          "internalType": "uint256",
          "name": "amount1Min",
          "type": "uint256"
        }
      ],
      "name": "stakeSteakHutAVAXUSDC",
      "outputs": [],
      "stateMutability": "nonpayable",
      "type": "function"
    },
    {
      "inputs": [
        {
          "internalType": "uint256",
          "name": "amount0Desired",
          "type": "uint256"
        },
        {
          "internalType": "uint256",
          "name": "amount1Desired",
          "type": "uint256"
        },
        {
          "internalType": "uint256",
          "name": "amount0Min",
          "type": "uint256"
        },
        {
          "internalType": "uint256",
          "name": "amount1Min",
          "type": "uint256"
        }
      ],
      "name": "stakeSteakHutBTCAVAX",
      "outputs": [],
      "stateMutability": "nonpayable",
      "type": "function"
    },
    {
      "inputs": [
        {
          "internalType": "uint256",
          "name": "amount0Desired",
          "type": "uint256"
        },
        {
          "internalType": "uint256",
          "name": "amount1Desired",
          "type": "uint256"
        },
        {
          "internalType": "uint256",
          "name": "amount0Min",
          "type": "uint256"
        },
        {
          "internalType": "uint256",
          "name": "amount1Min",
          "type": "uint256"
        }
      ],
      "name": "stakeSteakHutUSDTeUSDT",
      "outputs": [],
      "stateMutability": "nonpayable",
      "type": "function"
    },
    {
      "inputs": [
        {
          "internalType": "uint256",
          "name": "liquidity",
          "type": "uint256"
        },
        {
          "internalType": "uint256",
          "name": "amount0Min",
          "type": "uint256"
        },
        {
          "internalType": "uint256",
          "name": "amount1Min",
          "type": "uint256"
        }
      ],
      "name": "unstakeSteakHutAVAXUSDC",
      "outputs": [],
      "stateMutability": "nonpayable",
      "type": "function"
    },
    {
      "inputs": [
        {
          "internalType": "uint256",
          "name": "liquidity",
          "type": "uint256"
        },
        {
          "internalType": "uint256",
          "name": "amount0Min",
          "type": "uint256"
        },
        {
          "internalType": "uint256",
          "name": "amount1Min",
          "type": "uint256"
        }
      ],
      "name": "unstakeSteakHutBTCAVAX",
      "outputs": [],
      "stateMutability": "nonpayable",
      "type": "function"
    },
    {
      "inputs": [
        {
          "internalType": "uint256",
          "name": "liquidity",
          "type": "uint256"
        },
        {
          "internalType": "uint256",
          "name": "amount0Min",
          "type": "uint256"
        },
        {
          "internalType": "uint256",
          "name": "amount1Min",
          "type": "uint256"
        }
      ],
      "name": "unstakeSteakHutUSDTeUSDT",
      "outputs": [],
      "stateMutability": "nonpayable",
      "type": "function"
    }
  ],
  "transactionHash": "0x6831152a33d9674ec96b1b4ef64818c930c499547c2374fabb7c358f30dcbeb8",
  "args": [],
  "numDeployments": 1,
  "solcInputHash": "489ae11ab286c2a8e50140e01888c779",
  "bytecode": "0x608060405234801561001057600080fd5b5060016000819055506140da806100286000396000f3fe608060405234801561001057600080fd5b50600436106100cf5760003560e01c806359f07a011161008c5780636e3bfe9f116100665780636e3bfe9f146101e8578063b2d40e7314610218578063f8870bc214610248578063f8f1855314610264576100cf565b806359f07a01146101a65780635b4fad9c146101c25780636d5121d0146101cc576100cf565b80630ad76533146100d457806318698b9c146100f057806326ee48361461010c57806331d98b3f1461013c57806339e2719e1461016c5780634de5a9601461018a575b600080fd5b6100ee60048036038101906100e991906129cc565b61026e565b005b61010a60048036038101906101059190612a33565b61030f565b005b61012660048036038101906101219190612c15565b6103a9565b6040516101339190612d1c565b60405180910390f35b61015660048036038101906101519190612d3e565b610453565b6040516101639190612d7a565b60405180910390f35b6101746104fd565b6040516101819190612d7a565b60405180910390f35b6101a4600480360381019061019f91906129cc565b61059a565b005b6101c060048036038101906101bb9190612a33565b61063b565b005b6101ca6106d5565b005b6101e660048036038101906101e191906129cc565b61075b565b005b61020260048036038101906101fd9190612f9a565b6107fc565b60405161020f9190612d7a565b60405180910390f35b610232600480360381019061022d9190612c15565b6108a6565b60405161023f9190613148565b60405180910390f35b610262600480360381019061025d9190612a33565b610956565b005b61026c6109f0565b005b6103096040518060e001604052807f555344542e65000000000000000000000000000000000000000000000000000081526020017f555344540000000000000000000000000000000000000000000000000000000081526020017f53484c425f555344542e652d555344745f430000000000000000000000000000815260200186815260200185815260200184815260200183815250610a76565b50505050565b6103a46040518060c001604052807f425443000000000000000000000000000000000000000000000000000000000081526020017f415641580000000000000000000000000000000000000000000000000000000081526020017f53484c425f4254432e622d415641585f42000000000000000000000000000000815260200185815260200184815260200183815250611454565b505050565b60606104396103be6326ee483660e01b611e78565b6326ee483660e01b846040516024016103d79190613219565b604051602081830303815290604052907bffffffffffffffffffffffffffffffffffffffffffffffffffffffff19166020820180517bffffffffffffffffffffffffffffffffffffffffffffffffffffffff8381831617835250505050611f02565b80602001905181019061044c9190613313565b9050919050565b60006104e36104686331d98b3f60e01b611e78565b6331d98b3f60e01b84604051602401610481919061336b565b604051602081830303815290604052907bffffffffffffffffffffffffffffffffffffffffffffffffffffffff19166020820180517bffffffffffffffffffffffffffffffffffffffffffffffffffffffff8381831617835250505050611f02565b8060200190518101906104f69190613386565b9050919050565b6000610582610512637914334f60e01b611e78565b637914334f60e01b604051602401604051602081830303815290604052907bffffffffffffffffffffffffffffffffffffffffffffffffffffffff19166020820180517bffffffffffffffffffffffffffffffffffffffffffffffffffffffff8381831617835250505050611f02565b8060200190518101906105959190613386565b905090565b6106356040518060e001604052807f415641580000000000000000000000000000000000000000000000000000000081526020017f555344430000000000000000000000000000000000000000000000000000000081526020017f53484c425f415641582d555344435f4200000000000000000000000000000000815260200186815260200185815260200184815260200183815250610a76565b50505050565b6106d06040518060c001604052807f415641580000000000000000000000000000000000000000000000000000000081526020017f555344430000000000000000000000000000000000000000000000000000000081526020017f53484c425f415641582d555344435f4200000000000000000000000000000000815260200185815260200184815260200183815250611454565b505050565b6107586106e863b1c9fbc160e01b611e78565b63b1c9fbc160e01b604051602401604051602081830303815290604052907bffffffffffffffffffffffffffffffffffffffffffffffffffffffff19166020820180517bffffffffffffffffffffffffffffffffffffffffffffffffffffffff8381831617835250505050611f02565b50565b6107f66040518060e001604052807f425443000000000000000000000000000000000000000000000000000000000081526020017f415641580000000000000000000000000000000000000000000000000000000081526020017f53484c425f4254432e622d415641585f42000000000000000000000000000000815260200186815260200185815260200184815260200183815250610a76565b50505050565b600061088c61081163360398a360e01b611e78565b63360398a360e01b8460405160240161082a9190613148565b604051602081830303815290604052907bffffffffffffffffffffffffffffffffffffffffffffffffffffffff19166020820180517bffffffffffffffffffffffffffffffffffffffffffffffffffffffff8381831617835250505050611f02565b80602001905181019061089f9190613386565b9050919050565b6108ae61295a565b61093c6108c163a3aa8d1e60e01b611e78565b63a3aa8d1e60e01b846040516024016108da9190613219565b604051602081830303815290604052907bffffffffffffffffffffffffffffffffffffffffffffffffffffffff19166020820180517bffffffffffffffffffffffffffffffffffffffffffffffffffffffff8381831617835250505050611f02565b80602001905181019061094f9190613597565b9050919050565b6109eb6040518060c001604052807f555344542e65000000000000000000000000000000000000000000000000000081526020017f555344540000000000000000000000000000000000000000000000000000000081526020017f53484c425f555344542e652d555344745f430000000000000000000000000000815260200185815260200184815260200183815250611454565b505050565b610a73610a0363e017e12560e01b611e78565b63e017e12560e01b604051602401604051602081830303815290604052907bffffffffffffffffffffffffffffffffffffffffffffffffffffffff19166020820180517bffffffffffffffffffffffffffffffffffffffffffffffffffffffff8381831617835250505050611f02565b50565b730e5bad4108a6a5a8b06820f98026a7f3a77466b273ffffffffffffffffffffffffffffffffffffffff163373ffffffffffffffffffffffffffffffffffffffff161480610b035750732ffa7e9624b923fa811d9b9995aa34b715db194573ffffffffffffffffffffffffffffffffffffffff163373ffffffffffffffffffffffffffffffffffffffff16145b80610b4d5750730d7137fea34bc97819f05544ec7de5c98617989c73ffffffffffffffffffffffffffffffffffffffff163373ffffffffffffffffffffffffffffffffffffffff16145b80610b97575073c6ba6bb819f1be84efeb2e3f2697ad9818151e5d73ffffffffffffffffffffffffffffffffffffffff163373ffffffffffffffffffffffffffffffffffffffff16145b80610be157507314f69f9c351b798df31fc53e33c09dd29bfab54773ffffffffffffffffffffffffffffffffffffffff163373ffffffffffffffffffffffffffffffffffffffff16145b15611416576000610bf0611f93565b90506002816000015403610c39576040517f08c379a0000000000000000000000000000000000000000000000000000000008152600401610c309061363d565b60405180910390fd5b60028160000181905550610c4b611fc0565b610c536106d5565b6000610c5d61205b565b905060008173ffffffffffffffffffffffffffffffffffffffff166325eb876f856040015160006040518363ffffffff1660e01b8152600401610ca1929190613678565b602060405180830381865afa158015610cbe573d6000803e3d6000fd5b505050506040513d601f19601f82011682018060405250810190610ce291906136ff565b9050600081905060008173ffffffffffffffffffffffffffffffffffffffff166370a08231306040518263ffffffff1660e01b8152600401610d24919061373b565b602060405180830381865afa158015610d41573d6000803e3d6000fd5b505050506040513d601f19601f82011682018060405250810190610d659190613386565b905060008473ffffffffffffffffffffffffffffffffffffffff166325eb876f886000015160006040518363ffffffff1660e01b8152600401610da9929190613678565b602060405180830381865afa158015610dc6573d6000803e3d6000fd5b505050506040513d601f19601f82011682018060405250810190610dea91906136ff565b905060008573ffffffffffffffffffffffffffffffffffffffff166325eb876f896020015160006040518363ffffffff1660e01b8152600401610e2e929190613678565b602060405180830381865afa158015610e4b573d6000803e3d6000fd5b505050506040513d601f19601f82011682018060405250810190610e6f91906136ff565b9050610ef88273ffffffffffffffffffffffffffffffffffffffff166370a08231306040518263ffffffff1660e01b8152600401610ead919061373b565b602060405180830381865afa158015610eca573d6000803e3d6000fd5b505050506040513d601f19601f82011682018060405250810190610eee9190613386565b8960600151612077565b886060018181525050610f888173ffffffffffffffffffffffffffffffffffffffff166370a08231306040518263ffffffff1660e01b8152600401610f3d919061373b565b602060405180830381865afa158015610f5a573d6000803e3d6000fd5b505050506040513d601f19601f82011682018060405250810190610f7e9190613386565b8960800151612077565b88608001818152505060008860600151118015610fa9575060008860800151115b610fe8576040517f08c379a0000000000000000000000000000000000000000000000000000000008152600401610fdf906137a2565b60405180910390fd5b8173ffffffffffffffffffffffffffffffffffffffff1663095ea7b3868a606001516040518363ffffffff1660e01b81526004016110279291906137c2565b6020604051808303816000875af1158015611046573d6000803e3d6000fd5b505050506040513d601f19601f8201168201806040525081019061106a9190613817565b508073ffffffffffffffffffffffffffffffffffffffff1663095ea7b3868a608001516040518363ffffffff1660e01b81526004016110aa9291906137c2565b6020604051808303816000875af11580156110c9573d6000803e3d6000fd5b505050506040513d601f19601f820116820180604052508101906110ed9190613817565b506000808673ffffffffffffffffffffffffffffffffffffffff16632505c3d98b606001518c608001518d60a001518e60c001516040518563ffffffff1660e01b81526004016111409493929190613844565b6060604051808303816000875af115801561115f573d6000803e3d6000fd5b505050506040513d601f19601f820116820180604052508101906111839190613889565b92509250506111968a6040015188612090565b60008473ffffffffffffffffffffffffffffffffffffffff166370a08231306040518263ffffffff1660e01b81526004016111d1919061373b565b602060405180830381865afa1580156111ee573d6000803e3d6000fd5b505050506040513d601f19601f820116820180604052508101906112129190613386565b03611225576112248a60000151612162565b5b60008373ffffffffffffffffffffffffffffffffffffffff166370a08231306040518263ffffffff1660e01b8152600401611260919061373b565b602060405180830381865afa15801561127d573d6000803e3d6000fd5b505050506040513d601f19601f820116820180604052508101906112a19190613386565b036112b4576112b38a60200151612162565b5b8673ffffffffffffffffffffffffffffffffffffffff163373ffffffffffffffffffffffffffffffffffffffff167f957d4971589652b25098eb02b13e838c3b441613ea3e9def9f4bbf636289b7298c600001518d6020015186868b8d73ffffffffffffffffffffffffffffffffffffffff166370a08231306040518263ffffffff1660e01b8152600401611349919061373b565b602060405180830381865afa158015611366573d6000803e3d6000fd5b505050506040513d601f19601f8201168201806040525081019061138a9190613386565b611394919061390b565b426040516113a79695949392919061393f565b60405180910390a350505050505050506113bf612180565b6113fe576040517f08c379a00000000000000000000000000000000000000000000000000000000081526004016113f590613a12565b60405180910390fd5b6114066109f0565b6001816000018190555050611451565b6040517f08c379a000000000000000000000000000000000000000000000000000000000815260040161144890613a7e565b60405180910390fd5b50565b730e5bad4108a6a5a8b06820f98026a7f3a77466b273ffffffffffffffffffffffffffffffffffffffff163373ffffffffffffffffffffffffffffffffffffffff1614806114e15750732ffa7e9624b923fa811d9b9995aa34b715db194573ffffffffffffffffffffffffffffffffffffffff163373ffffffffffffffffffffffffffffffffffffffff16145b8061152b5750730d7137fea34bc97819f05544ec7de5c98617989c73ffffffffffffffffffffffffffffffffffffffff163373ffffffffffffffffffffffffffffffffffffffff16145b80611575575073c6ba6bb819f1be84efeb2e3f2697ad9818151e5d73ffffffffffffffffffffffffffffffffffffffff163373ffffffffffffffffffffffffffffffffffffffff16145b806115bf57507314f69f9c351b798df31fc53e33c09dd29bfab54773ffffffffffffffffffffffffffffffffffffffff163373ffffffffffffffffffffffffffffffffffffffff16145b15611e3a5760006115ce611f93565b90506002816000015403611617576040517f08c379a000000000000000000000000000000000000000000000000000000000815260040161160e9061363d565b60405180910390fd5b60028160000181905550600061162b612180565b905080156116405761163b611fc0565b611701565b61164861221d565b73ffffffffffffffffffffffffffffffffffffffff1663e319fccc336040518263ffffffff1660e01b8152600401611680919061373b565b602060405180830381865afa15801561169d573d6000803e3d6000fd5b505050506040513d601f19601f820116820180604052508101906116c19190613817565b611700576040517f08c379a00000000000000000000000000000000000000000000000000000000081526004016116f790613b10565b60405180910390fd5b5b6117096106d5565b600061171361205b565b905060008173ffffffffffffffffffffffffffffffffffffffff166325eb876f866040015160016040518363ffffffff1660e01b8152600401611757929190613678565b602060405180830381865afa158015611774573d6000803e3d6000fd5b505050506040513d601f19601f8201168201806040525081019061179891906136ff565b905060008173ffffffffffffffffffffffffffffffffffffffff166370a08231306040518263ffffffff1660e01b81526004016117d5919061373b565b602060405180830381865afa1580156117f2573d6000803e3d6000fd5b505050506040513d601f19601f820116820180604052508101906118169190613386565b905060008060008573ffffffffffffffffffffffffffffffffffffffff166325eb876f8a6000015160006040518363ffffffff1660e01b815260040161185d929190613678565b602060405180830381865afa15801561187a573d6000803e3d6000fd5b505050506040513d601f19601f8201168201806040525081019061189e91906136ff565b905060008673ffffffffffffffffffffffffffffffffffffffff166325eb876f8b6020015160006040518363ffffffff1660e01b81526004016118e2929190613678565b602060405180830381865afa1580156118ff573d6000803e3d6000fd5b505050506040513d601f19601f8201168201806040525081019061192391906136ff565b905060008273ffffffffffffffffffffffffffffffffffffffff166370a08231306040518263ffffffff1660e01b8152600401611960919061373b565b602060405180830381865afa15801561197d573d6000803e3d6000fd5b505050506040513d601f19601f820116820180604052508101906119a19190613386565b905060008273ffffffffffffffffffffffffffffffffffffffff166370a08231306040518263ffffffff1660e01b81526004016119de919061373b565b602060405180830381865afa1580156119fb573d6000803e3d6000fd5b505050506040513d601f19601f82011682018060405250810190611a1f9190613386565b9050611aa88873ffffffffffffffffffffffffffffffffffffffff166370a08231306040518263ffffffff1660e01b8152600401611a5d919061373b565b602060405180830381865afa158015611a7a573d6000803e3d6000fd5b505050506040513d601f19601f82011682018060405250810190611a9e9190613386565b8d60600151612077565b8c60600181815250508773ffffffffffffffffffffffffffffffffffffffff16632e1a7d4d8d606001516040518263ffffffff1660e01b8152600401611aee9190612d7a565b60408051808303816000875af1158015611b0c573d6000803e3d6000fd5b505050506040513d601f19601f82011682018060405250810190611b309190613b30565b5050818473ffffffffffffffffffffffffffffffffffffffff166370a08231306040518263ffffffff1660e01b8152600401611b6c919061373b565b602060405180830381865afa158015611b89573d6000803e3d6000fd5b505050506040513d601f19601f82011682018060405250810190611bad9190613386565b611bb7919061390b565b9550808373ffffffffffffffffffffffffffffffffffffffff166370a08231306040518263ffffffff1660e01b8152600401611bf3919061373b565b602060405180830381865afa158015611c10573d6000803e3d6000fd5b505050506040513d601f19601f82011682018060405250810190611c349190613386565b611c3e919061390b565b94508b608001518610158015611c5857508b60a001518510155b611c97576040517f08c379a0000000000000000000000000000000000000000000000000000000008152600401611c8e90613be2565b60405180910390fd5b5050611ca78a6000015183612090565b611cb58a6020015182612090565b505060008473ffffffffffffffffffffffffffffffffffffffff166370a08231306040518263ffffffff1660e01b8152600401611cf2919061373b565b602060405180830381865afa158015611d0f573d6000803e3d6000fd5b505050506040513d601f19601f82011682018060405250810190611d339190613386565b905060008103611d4b57611d4a8960400151612162565b5b8473ffffffffffffffffffffffffffffffffffffffff163373ffffffffffffffffffffffffffffffffffffffff167f94018558762be145f4abb320131ff2620e457ad87cba414cca67cdeab6017c538b600001518c602001518787878b611db2919061390b565b42604051611dc59695949392919061393f565b60405180910390a3505050505050611ddb6109f0565b8015611e2957611de9612180565b611e28576040517f08c379a0000000000000000000000000000000000000000000000000000000008152600401611e1f90613c4e565b60405180910390fd5b5b506001816000018190555050611e75565b6040517f08c379a0000000000000000000000000000000000000000000000000000000008152600401611e6c90613a7e565b60405180910390fd5b50565b6000611e8261221d565b73ffffffffffffffffffffffffffffffffffffffff16630d741577836040518263ffffffff1660e01b8152600401611eba9190613ca9565b602060405180830381865afa158015611ed7573d6000803e3d6000fd5b505050506040513d601f19601f82011682018060405250810190611efb91906136ff565b9050919050565b60606000611f0f83612239565b90506000808573ffffffffffffffffffffffffffffffffffffffff1683604051611f399190613d35565b600060405180830381855af49150503d8060008114611f74576040519150601f19603f3d011682016040523d82523d6000602084013e611f79565b606091505b5091509150611f8882826122f3565b935050505092915050565b6000807f1c85eba10a4cf2d29c83fc15f97931886b9fd3caeb70d8c377aeedc58b919e3b90508091505090565b611fc86123f3565b60010160009054906101000a900473ffffffffffffffffffffffffffffffffffffffff1673ffffffffffffffffffffffffffffffffffffffff163373ffffffffffffffffffffffffffffffffffffffff1614612059576040517f08c379a000000000000000000000000000000000000000000000000000000000815260040161205090613dbe565b60405180910390fd5b565b600073ef31027350be2c7439c1b0be022d49421488b72c905090565b60008183106120865781612088565b825b905092915050565b600082036120d3576040517f08c379a00000000000000000000000000000000000000000000000000000000081526004016120ca90613e2a565b60405180910390fd5b600073ffffffffffffffffffffffffffffffffffffffff168173ffffffffffffffffffffffffffffffffffffffff1603612142576040517f08c379a000000000000000000000000000000000000000000000000000000000815260040161213990613e96565b60405180910390fd5b600061214c6123f3565b905061215c816004018484612420565b50505050565b600061216c6123f3565b905061217b8160040183612452565b505050565b6000612205612195635ce2395060e01b611e78565b635ce2395060e01b604051602401604051602081830303815290604052907bffffffffffffffffffffffffffffffffffffffffffffffffffffffff19166020820180517bffffffffffffffffffffffffffffffffffffffffffffffffffffffff8381831617835250505050611f02565b8060200190518101906122189190613817565b905090565b600073ab7b4c595d3ce8c85e16da86630f2fc223b05057905090565b6060600082519050600061224b612469565b90506000818361225b9190613eb6565b9050600036905082111561229b576040517f5796f78a00000000000000000000000000000000000000000000000000000000815260040160405180910390fd5b6060604051905081815285602001848101826020015b818310156122ce57825181526020830192506020810190506122b1565b5050508283360385602001830137602084840182010160405280945050505050919050565b6060826123ea576000825103612335576040517f567fe27a00000000000000000000000000000000000000000000000000000000815260040160405180910390fd5b600060208301517f08c379a000000000000000000000000000000000000000000000000000000000811491505080156123ad576060604484019050806040517f0f7e82780000000000000000000000000000000000000000000000000000000081526004016123a49190613f2e565b60405180910390fd5b826040517ffd36fde30000000000000000000000000000000000000000000000000000000081526004016123e19190613f9a565b60405180910390fd5b81905092915050565b6000807f8d5bb42e0ac1496a2c326edc9c00758985246e6c2bb146d6c2f4a0d509e0960a90508091505090565b600061244984600001848473ffffffffffffffffffffffffffffffffffffffff1660001b6124d9565b90509392505050565b60006124618360000183612514565b905092915050565b60008061247461254d565b905060006124818261265e565b61ffff1690506002826124949190613eb6565b915060005b818110156124d05760006124ac846126ba565b905080846124ba9190613eb6565b93505080806124c890613fbc565b915050612499565b50819250505090565b6000818460020160008581526020019081526020016000208190555061250b83856000016126f990919063ffffffff16565b90509392505050565b600082600201600083815260200190815260200160002060009055612545828460000161271090919063ffffffff16565b905092915050565b60008060203603356602ed57011e000081166602ed57011e000014915050806125a2576040517fe7764c9e00000000000000000000000000000000000000000000000000000000815260040160405180910390fd5b600080369050602911156125e2576040517f5796f78a00000000000000000000000000000000000000000000000000000000815260040160405180910390fd5b602936033590506000600960038362ffffff166125ff9190613eb6565b6126099190613eb6565b9050600036905060028261261d9190613eb6565b1115612655576040517fc30a7bd700000000000000000000000000000000000000000000000000000000815260040160405180910390fd5b80935050505090565b60008060208361266e9190613eb6565b905060003690508111156126ae576040517f5796f78a00000000000000000000000000000000000000000000000000000000815260040160405180910390fd5b80360335915050919050565b60008060006126c884612727565b91509150604e8160206126db9190613eb6565b836126e69190614004565b6126f09190613eb6565b92505050919050565b6000612708836000018361279d565b905092915050565b600061271f836000018361280d565b905092915050565b600080600080600060418661273c9190613eb6565b905060006127636020836127509190613eb6565b600036905061292190919063ffffffff16565b90508035935061277d60038261292190919063ffffffff16565b9050803592508362ffffff1695508263ffffffff16945050505050915091565b60006127a98383612937565b612802578260000182908060018154018082558091505060019003906000526020600020016000909190919091505582600001805490508360010160008481526020019081526020016000208190555060019050612807565b600090505b92915050565b6000808360010160008481526020019081526020016000205490506000811461291557600060018261283f919061390b565b9050600060018660000180549050612857919061390b565b90508181146128c657600086600001828154811061287857612877614046565b5b906000526020600020015490508087600001848154811061289c5761289b614046565b5b90600052602060002001819055508387600101600083815260200190815260200160002081905550505b856000018054806128da576128d9614075565b5b60019003818190600052602060002001600090559055856001016000868152602001908152602001600020600090556001935050505061291b565b60009150505b92915050565b6000818361292f919061390b565b905092915050565b600080836001016000848152602001908152602001600020541415905092915050565b6040518060800160405280606081526020016060815260200160608152602001606081525090565b6000604051905090565b600080fd5b600080fd5b6000819050919050565b6129a981612996565b81146129b457600080fd5b50565b6000813590506129c6816129a0565b92915050565b600080600080608085870312156129e6576129e561298c565b5b60006129f4878288016129b7565b9450506020612a05878288016129b7565b9350506040612a16878288016129b7565b9250506060612a27878288016129b7565b91505092959194509250565b600080600060608486031215612a4c57612a4b61298c565b5b6000612a5a868287016129b7565b9350506020612a6b868287016129b7565b9250506040612a7c868287016129b7565b9150509250925092565b600080fd5b6000601f19601f8301169050919050565b7f4e487b7100000000000000000000000000000000000000000000000000000000600052604160045260246000fd5b612ad482612a8b565b810181811067ffffffffffffffff82111715612af357612af2612a9c565b5b80604052505050565b6000612b06612982565b9050612b128282612acb565b919050565b600067ffffffffffffffff821115612b3257612b31612a9c565b5b602082029050602081019050919050565b600080fd5b6000819050919050565b612b5b81612b48565b8114612b6657600080fd5b50565b600081359050612b7881612b52565b92915050565b6000612b91612b8c84612b17565b612afc565b90508083825260208201905060208402830185811115612bb457612bb3612b43565b5b835b81811015612bdd5780612bc98882612b69565b845260208401935050602081019050612bb6565b5050509392505050565b600082601f830112612bfc57612bfb612a86565b5b8135612c0c848260208601612b7e565b91505092915050565b600060208284031215612c2b57612c2a61298c565b5b600082013567ffffffffffffffff811115612c4957612c48612991565b5b612c5584828501612be7565b91505092915050565b600081519050919050565b600082825260208201905092915050565b6000819050602082019050919050565b612c9381612996565b82525050565b6000612ca58383612c8a565b60208301905092915050565b6000602082019050919050565b6000612cc982612c5e565b612cd38185612c69565b9350612cde83612c7a565b8060005b83811015612d0f578151612cf68882612c99565b9750612d0183612cb1565b925050600181019050612ce2565b5085935050505092915050565b60006020820190508181036000830152612d368184612cbe565b905092915050565b600060208284031215612d5457612d5361298c565b5b6000612d6284828501612b69565b91505092915050565b612d7481612996565b82525050565b6000602082019050612d8f6000830184612d6b565b92915050565b600080fd5b600080fd5b600067ffffffffffffffff821115612dba57612db9612a9c565b5b602082029050602081019050919050565b600060408284031215612de157612de0612d95565b5b612deb6040612afc565b90506000612dfb84828501612b69565b6000830152506020612e0f848285016129b7565b60208301525092915050565b6000612e2e612e2984612d9f565b612afc565b90508083825260208201905060408402830185811115612e5157612e50612b43565b5b835b81811015612e7a5780612e668882612dcb565b845260208401935050604081019050612e53565b5050509392505050565b600082601f830112612e9957612e98612a86565b5b8135612ea9848260208601612e1b565b91505092915050565b600060808284031215612ec857612ec7612d95565b5b612ed26080612afc565b9050600082013567ffffffffffffffff811115612ef257612ef1612d9a565b5b612efe84828501612e84565b600083015250602082013567ffffffffffffffff811115612f2257612f21612d9a565b5b612f2e84828501612e84565b602083015250604082013567ffffffffffffffff811115612f5257612f51612d9a565b5b612f5e84828501612e84565b604083015250606082013567ffffffffffffffff811115612f8257612f81612d9a565b5b612f8e84828501612e84565b60608301525092915050565b600060208284031215612fb057612faf61298c565b5b600082013567ffffffffffffffff811115612fce57612fcd612991565b5b612fda84828501612eb2565b91505092915050565b600081519050919050565b600082825260208201905092915050565b6000819050602082019050919050565b61301881612b48565b82525050565b604082016000820151613034600085018261300f565b5060208201516130476020850182612c8a565b50505050565b6000613059838361301e565b60408301905092915050565b6000602082019050919050565b600061307d82612fe3565b6130878185612fee565b935061309283612fff565b8060005b838110156130c35781516130aa888261304d565b97506130b583613065565b925050600181019050613096565b5085935050505092915050565b600060808301600083015184820360008601526130ed8282613072565b915050602083015184820360208601526131078282613072565b915050604083015184820360408601526131218282613072565b9150506060830151848203606086015261313b8282613072565b9150508091505092915050565b6000602082019050818103600083015261316281846130d0565b905092915050565b600081519050919050565b600082825260208201905092915050565b6000819050602082019050919050565b60006131a2838361300f565b60208301905092915050565b6000602082019050919050565b60006131c68261316a565b6131d08185613175565b93506131db83613186565b8060005b8381101561320c5781516131f38882613196565b97506131fe836131ae565b9250506001810190506131df565b5085935050505092915050565b6000602082019050818103600083015261323381846131bb565b905092915050565b600067ffffffffffffffff82111561325657613255612a9c565b5b602082029050602081019050919050565b600081519050613276816129a0565b92915050565b600061328f61328a8461323b565b612afc565b905080838252602082019050602084028301858111156132b2576132b1612b43565b5b835b818110156132db57806132c78882613267565b8452602084019350506020810190506132b4565b5050509392505050565b600082601f8301126132fa576132f9612a86565b5b815161330a84826020860161327c565b91505092915050565b6000602082840312156133295761332861298c565b5b600082015167ffffffffffffffff81111561334757613346612991565b5b613353848285016132e5565b91505092915050565b61336581612b48565b82525050565b6000602082019050613380600083018461335c565b92915050565b60006020828403121561339c5761339b61298c565b5b60006133aa84828501613267565b91505092915050565b6000815190506133c281612b52565b92915050565b6000604082840312156133de576133dd612d95565b5b6133e86040612afc565b905060006133f8848285016133b3565b600083015250602061340c84828501613267565b60208301525092915050565b600061342b61342684612d9f565b612afc565b9050808382526020820190506040840283018581111561344e5761344d612b43565b5b835b81811015613477578061346388826133c8565b845260208401935050604081019050613450565b5050509392505050565b600082601f83011261349657613495612a86565b5b81516134a6848260208601613418565b91505092915050565b6000608082840312156134c5576134c4612d95565b5b6134cf6080612afc565b9050600082015167ffffffffffffffff8111156134ef576134ee612d9a565b5b6134fb84828501613481565b600083015250602082015167ffffffffffffffff81111561351f5761351e612d9a565b5b61352b84828501613481565b602083015250604082015167ffffffffffffffff81111561354f5761354e612d9a565b5b61355b84828501613481565b604083015250606082015167ffffffffffffffff81111561357f5761357e612d9a565b5b61358b84828501613481565b60608301525092915050565b6000602082840312156135ad576135ac61298c565b5b600082015167ffffffffffffffff8111156135cb576135ca612991565b5b6135d7848285016134af565b91505092915050565b600082825260208201905092915050565b7f5265656e7472616e637947756172643a207265656e7472616e742063616c6c00600082015250565b6000613627601f836135e0565b9150613632826135f1565b602082019050919050565b600060208201905081810360008301526136568161361a565b9050919050565b60008115159050919050565b6136728161365d565b82525050565b600060408201905061368d600083018561335c565b61369a6020830184613669565b9392505050565b600073ffffffffffffffffffffffffffffffffffffffff82169050919050565b60006136cc826136a1565b9050919050565b6136dc816136c1565b81146136e757600080fd5b50565b6000815190506136f9816136d3565b92915050565b6000602082840312156137155761371461298c565b5b6000613723848285016136ea565b91505092915050565b613735816136c1565b82525050565b6000602082019050613750600083018461372c565b92915050565b7f43616e6e6f74207374616b65203020746f6b656e730000000000000000000000600082015250565b600061378c6015836135e0565b915061379782613756565b602082019050919050565b600060208201905081810360008301526137bb8161377f565b9050919050565b60006040820190506137d7600083018561372c565b6137e46020830184612d6b565b9392505050565b6137f48161365d565b81146137ff57600080fd5b50565b600081519050613811816137eb565b92915050565b60006020828403121561382d5761382c61298c565b5b600061383b84828501613802565b91505092915050565b60006080820190506138596000830187612d6b565b6138666020830186612d6b565b6138736040830185612d6b565b6138806060830184612d6b565b95945050505050565b6000806000606084860312156138a2576138a161298c565b5b60006138b086828701613267565b93505060206138c186828701613267565b92505060406138d286828701613267565b9150509250925092565b7f4e487b7100000000000000000000000000000000000000000000000000000000600052601160045260246000fd5b600061391682612996565b915061392183612996565b9250828203905081811115613939576139386138dc565b5b92915050565b600060c082019050613954600083018961335c565b613961602083018861335c565b61396e6040830187612d6b565b61397b6060830186612d6b565b6139886080830185612d6b565b61399560a0830184612d6b565b979650505050505050565b7f54686520616374696f6e206d617920636175736520616e206163636f756e742060008201527f746f206265636f6d6520696e736f6c76656e7400000000000000000000000000602082015250565b60006139fc6033836135e0565b9150613a07826139a0565b604082019050919050565b60006020820190508181036000830152613a2b816139ef565b9050919050565b7f4e6f742077686974656c69737465640000000000000000000000000000000000600082015250565b6000613a68600f836135e0565b9150613a7382613a32565b602082019050919050565b60006020820190508181036000830152613a9781613a5b565b9050919050565b7f4f6e6c792077686974656c6973746564206163636f756e74732063616e20706560008201527f72666f726d207468697320616374696f6e000000000000000000000000000000602082015250565b6000613afa6031836135e0565b9150613b0582613a9e565b604082019050919050565b60006020820190508181036000830152613b2981613aed565b9050919050565b60008060408385031215613b4757613b4661298c565b5b6000613b5585828601613267565b9250506020613b6685828601613267565b9150509250929050565b7f556e7374616b6564206c65737320746f6b656e73207468616e2065787065637460008201527f6564000000000000000000000000000000000000000000000000000000000000602082015250565b6000613bcc6022836135e0565b9150613bd782613b70565b604082019050919050565b60006020820190508181036000830152613bfb81613bbf565b9050919050565b7f4d757374207374617920736f6c76656e74000000000000000000000000000000600082015250565b6000613c386011836135e0565b9150613c4382613c02565b602082019050919050565b60006020820190508181036000830152613c6781613c2b565b9050919050565b60007fffffffff0000000000000000000000000000000000000000000000000000000082169050919050565b613ca381613c6e565b82525050565b6000602082019050613cbe6000830184613c9a565b92915050565b600081519050919050565b600081905092915050565b60005b83811015613cf8578082015181840152602081019050613cdd565b60008484015250505050565b6000613d0f82613cc4565b613d198185613ccf565b9350613d29818560208601613cda565b80840191505092915050565b6000613d418284613d04565b915081905092915050565b7f4469616d6f6e6453746f726167654c69623a204d75737420626520636f6e747260008201527f616374206f776e65720000000000000000000000000000000000000000000000602082015250565b6000613da86029836135e0565b9150613db382613d4c565b604082019050919050565b60006020820190508181036000830152613dd781613d9b565b9050919050565b7f53796d626f6c2063616e6e6f7420626520656d70747900000000000000000000600082015250565b6000613e146016836135e0565b9150613e1f82613dde565b602082019050919050565b60006020820190508181036000830152613e4381613e07565b9050919050565b7f496e76616c696420416464726573735a65726f00000000000000000000000000600082015250565b6000613e806013836135e0565b9150613e8b82613e4a565b602082019050919050565b60006020820190508181036000830152613eaf81613e73565b9050919050565b6000613ec182612996565b9150613ecc83612996565b9250828201905080821115613ee457613ee36138dc565b5b92915050565b600081519050919050565b6000613f0082613eea565b613f0a81856135e0565b9350613f1a818560208601613cda565b613f2381612a8b565b840191505092915050565b60006020820190508181036000830152613f488184613ef5565b905092915050565b600082825260208201905092915050565b6000613f6c82613cc4565b613f768185613f50565b9350613f86818560208601613cda565b613f8f81612a8b565b840191505092915050565b60006020820190508181036000830152613fb48184613f61565b905092915050565b6000613fc782612996565b91507fffffffffffffffffffffffffffffffffffffffffffffffffffffffffffffffff8203613ff957613ff86138dc565b5b600182019050919050565b600061400f82612996565b915061401a83612996565b925082820261402881612996565b9150828204841483151761403f5761403e6138dc565b5b5092915050565b7f4e487b7100000000000000000000000000000000000000000000000000000000600052603260045260246000fd5b7f4e487b7100000000000000000000000000000000000000000000000000000000600052603160045260246000fdfea2646970667358221220574454f65a73f4fc09e58d29fd1bbc044d1fc0c50fb294564fbe8a5eb93d88ae64736f6c63430008110033",
  "devdoc": {
    "events": {
      "Staked(address,bytes32,bytes32,address,uint256,uint256,uint256,uint256)": {
        "details": "emitted when user stakes an asset",
        "params": {
          "asset0": "the asset that was unstaked",
          "asset1": "the asset that was unstaked",
          "depositTokenAmount0": "how much deposit token0 was received",
          "depositTokenAmount1": "how much deposit token1 was received",
          "receiptTokenAmount": "how much of receipt token was received",
          "timestamp": "of staking*",
          "user": "the address executing staking",
          "vault": "address of the vault token"
        }
      },
      "Unstaked(address,bytes32,bytes32,address,uint256,uint256,uint256,uint256)": {
        "details": "emitted when user unstakes an asset",
        "params": {
          "asset0": "the asset that was unstaked",
          "asset1": "the asset that was unstaked",
          "depositTokenAmount0": "how much deposit token0 was received",
          "depositTokenAmount1": "how much deposit token1 was received",
          "receiptTokenAmount": "how much receipt token was unstaked",
          "timestamp": "of unstaking*",
          "user": "the address executing unstaking",
          "vault": "address of the vault token"
        }
      }
    },
    "kind": "dev",
    "methods": {
      "stakeSteakHutAVAXUSDC(uint256,uint256,uint256,uint256)": {
        "params": {
          "amount0Desired": "amount of AVAX to be staked",
          "amount0Min": "minimum amount of AVAX to be staked",
          "amount1Desired": "amount of USDC to be staked",
          "amount1Min": "minimum amount of USDC to be staked*"
        }
      },
      "stakeSteakHutBTCAVAX(uint256,uint256,uint256,uint256)": {
        "params": {
          "amount0Desired": "amount of BTC to be staked",
          "amount0Min": "minimum amount of BTC to be staked",
          "amount1Desired": "amount of AVAX to be staked",
          "amount1Min": "minimum amount of AVAX to be staked*"
        }
      },
      "stakeSteakHutUSDTeUSDT(uint256,uint256,uint256,uint256)": {
        "params": {
          "amount0Desired": "amount of USDT.e to be staked",
          "amount0Min": "minimum amount of USDT.e to be staked",
          "amount1Desired": "amount of USDT to be staked",
          "amount1Min": "minimum amount of USDT to be staked*"
        }
      },
      "unstakeSteakHutAVAXUSDC(uint256,uint256,uint256)": {
        "params": {
          "amount0Min": "minimum amount of AVAX to be unstaked",
          "amount1Min": "minimum amount of USDC to be unstaked*",
          "liquidity": "amount of shares to be unstaked"
        }
      },
      "unstakeSteakHutBTCAVAX(uint256,uint256,uint256)": {
        "params": {
          "amount0Min": "minimum amount of BTC to be unstaked",
          "amount1Min": "minimum amount of AVAX to be unstaked*",
          "liquidity": "amount of shares to be unstaked"
        }
      },
      "unstakeSteakHutUSDTeUSDT(uint256,uint256,uint256)": {
        "params": {
          "amount0Min": "minimum amount of USDT.e to be unstaked",
          "amount1Min": "minimum amount of USDT to be unstaked*",
          "liquidity": "amount of shares to be unstaked"
        }
      }
    },
    "version": 1
  },
  "userdoc": {
    "kind": "user",
    "methods": {
      "stakeSteakHutAVAXUSDC(uint256,uint256,uint256,uint256)": {
        "notice": "Stakes in SteakHut AVAX/USDC balanced-wide pool"
      },
      "stakeSteakHutBTCAVAX(uint256,uint256,uint256,uint256)": {
        "notice": "Stakes in SteakHut BTC/AVAX balanced-wide pool"
      },
      "stakeSteakHutUSDTeUSDT(uint256,uint256,uint256,uint256)": {
        "notice": "Stakes in SteakHut USDT.e/USDT concentrated pool"
      },
      "unstakeSteakHutAVAXUSDC(uint256,uint256,uint256)": {
        "notice": "Unstakes from SteakHut AVAX/USDC balanced-wide pool"
      },
      "unstakeSteakHutBTCAVAX(uint256,uint256,uint256)": {
        "notice": "Unstakes from SteakHut BTC/AVAX balanced-wide pool"
      },
      "unstakeSteakHutUSDTeUSDT(uint256,uint256,uint256)": {
        "notice": "Unstakes from SteakHut USDT.e/USDT concentrated pool"
      }
    },
    "version": 1
  },
  "storageLayout": {
    "storage": [
      {
        "astId": 10032,
        "contract": "contracts/facets/avalanche/SteakHutFinanceFacet.sol:SteakHutFinanceFacet",
        "label": "_status",
        "offset": 0,
        "slot": "0",
        "type": "t_uint256"
      }
    ],
    "types": {
      "t_uint256": {
        "encoding": "inplace",
        "label": "uint256",
        "numberOfBytes": "32"
      }
    }
  }
}