{
  "address": "0xdc1649997B2FbCcAf4191d60c1d3353D286daDF3",
  "abi": [
    {
      "anonymous": false,
      "inputs": [
        {
          "indexed": true,
          "internalType": "address",
          "name": "previousOwner",
          "type": "address"
        },
        {
          "indexed": true,
          "internalType": "address",
          "name": "newOwner",
          "type": "address"
        }
      ],
      "name": "OwnershipTransferred",
      "type": "event"
    },
    {
      "anonymous": false,
      "inputs": [
        {
          "indexed": true,
          "internalType": "address",
          "name": "performer",
          "type": "address"
        },
        {
          "indexed": true,
          "internalType": "bytes32",
          "name": "poolAsset",
          "type": "bytes32"
        },
        {
          "indexed": false,
          "internalType": "address",
          "name": "poolAddress",
          "type": "address"
        },
        {
          "indexed": false,
          "internalType": "uint256",
          "name": "timestamp",
          "type": "uint256"
        }
      ],
      "name": "PoolAssetAdded",
      "type": "event"
    },
    {
      "anonymous": false,
      "inputs": [
        {
          "indexed": true,
          "internalType": "address",
          "name": "performer",
          "type": "address"
        },
        {
          "indexed": true,
          "internalType": "bytes32",
          "name": "poolAsset",
          "type": "bytes32"
        },
        {
          "indexed": false,
          "internalType": "address",
          "name": "poolAddress",
          "type": "address"
        },
        {
          "indexed": false,
          "internalType": "uint256",
          "name": "timestamp",
          "type": "uint256"
        }
      ],
      "name": "PoolAssetRemoved",
      "type": "event"
    },
    {
      "anonymous": false,
      "inputs": [
        {
          "indexed": true,
          "internalType": "address",
          "name": "performer",
          "type": "address"
        },
        {
          "indexed": false,
          "internalType": "address",
          "name": "assetAddress",
          "type": "address"
        },
        {
          "indexed": false,
          "internalType": "uint256",
          "name": "timestamp",
          "type": "uint256"
        }
      ],
      "name": "TokenAssetActivated",
      "type": "event"
    },
    {
      "anonymous": false,
      "inputs": [
        {
          "indexed": true,
          "internalType": "address",
          "name": "performer",
          "type": "address"
        },
        {
          "indexed": true,
          "internalType": "bytes32",
          "name": "tokenAsset",
          "type": "bytes32"
        },
        {
          "indexed": false,
          "internalType": "address",
          "name": "assetAddress",
          "type": "address"
        },
        {
          "indexed": false,
          "internalType": "uint256",
          "name": "timestamp",
          "type": "uint256"
        }
      ],
      "name": "TokenAssetAdded",
      "type": "event"
    },
    {
      "anonymous": false,
      "inputs": [
        {
          "indexed": true,
          "internalType": "address",
          "name": "performer",
          "type": "address"
        },
        {
          "indexed": false,
          "internalType": "address",
          "name": "assetAddress",
          "type": "address"
        },
        {
          "indexed": false,
          "internalType": "uint256",
          "name": "timestamp",
          "type": "uint256"
        }
      ],
      "name": "TokenAssetDeactivated",
      "type": "event"
    },
    {
      "anonymous": false,
      "inputs": [
        {
          "indexed": true,
          "internalType": "address",
          "name": "performer",
          "type": "address"
        },
        {
          "indexed": true,
          "internalType": "bytes32",
          "name": "tokenAsset",
          "type": "bytes32"
        },
        {
          "indexed": false,
          "internalType": "uint256",
          "name": "timestamp",
          "type": "uint256"
        }
      ],
      "name": "TokenAssetRemoved",
      "type": "event"
    },
    {
      "inputs": [
        {
          "internalType": "address",
          "name": "token",
          "type": "address"
        }
      ],
      "name": "activateToken",
      "outputs": [],
      "stateMutability": "nonpayable",
      "type": "function"
    },
    {
      "inputs": [
        {
          "components": [
            {
              "internalType": "bytes32",
              "name": "asset",
              "type": "bytes32"
            },
            {
              "internalType": "address",
              "name": "poolAddress",
              "type": "address"
            }
          ],
          "internalType": "struct TokenManager.poolAsset[]",
          "name": "poolAssets",
          "type": "tuple[]"
        }
      ],
      "name": "addPoolAssets",
      "outputs": [],
      "stateMutability": "nonpayable",
      "type": "function"
    },
    {
      "inputs": [
        {
          "components": [
            {
              "internalType": "bytes32",
              "name": "asset",
              "type": "bytes32"
            },
            {
              "internalType": "address",
              "name": "assetAddress",
              "type": "address"
            },
            {
              "internalType": "uint256",
              "name": "debtCoverage",
              "type": "uint256"
            }
          ],
          "internalType": "struct TokenManager.Asset[]",
          "name": "tokenAssets",
          "type": "tuple[]"
        }
      ],
      "name": "addTokenAssets",
      "outputs": [],
      "stateMutability": "nonpayable",
      "type": "function"
    },
    {
      "inputs": [
        {
          "internalType": "address",
          "name": "token",
          "type": "address"
        }
      ],
      "name": "deactivateToken",
      "outputs": [],
      "stateMutability": "nonpayable",
      "type": "function"
    },
    {
      "inputs": [
        {
          "internalType": "address",
          "name": "",
          "type": "address"
        }
      ],
      "name": "debtCoverage",
      "outputs": [
        {
          "internalType": "uint256",
          "name": "",
          "type": "uint256"
        }
      ],
      "stateMutability": "view",
      "type": "function"
    },
    {
      "inputs": [],
      "name": "getAllPoolAssets",
      "outputs": [
        {
          "internalType": "bytes32[]",
          "name": "result",
          "type": "bytes32[]"
        }
      ],
      "stateMutability": "view",
      "type": "function"
    },
    {
      "inputs": [],
      "name": "getAllTokenAssets",
      "outputs": [
        {
          "internalType": "bytes32[]",
          "name": "result",
          "type": "bytes32[]"
        }
      ],
      "stateMutability": "view",
      "type": "function"
    },
    {
      "inputs": [
        {
          "internalType": "bytes32",
          "name": "_asset",
          "type": "bytes32"
        },
        {
          "internalType": "bool",
          "name": "allowInactive",
          "type": "bool"
        }
      ],
      "name": "getAssetAddress",
      "outputs": [
        {
          "internalType": "address",
          "name": "",
          "type": "address"
        }
      ],
      "stateMutability": "view",
      "type": "function"
    },
    {
      "inputs": [
        {
          "internalType": "bytes32",
          "name": "_asset",
          "type": "bytes32"
        }
      ],
      "name": "getPoolAddress",
      "outputs": [
        {
          "internalType": "address",
          "name": "",
          "type": "address"
        }
      ],
      "stateMutability": "view",
      "type": "function"
    },
    {
      "inputs": [],
      "name": "getSupportedTokensAddresses",
      "outputs": [
        {
          "internalType": "address[]",
          "name": "",
          "type": "address[]"
        }
      ],
      "stateMutability": "view",
      "type": "function"
    },
    {
      "inputs": [
        {
          "components": [
            {
              "internalType": "bytes32",
              "name": "asset",
              "type": "bytes32"
            },
            {
              "internalType": "address",
              "name": "assetAddress",
              "type": "address"
            },
            {
              "internalType": "uint256",
              "name": "debtCoverage",
              "type": "uint256"
            }
          ],
          "internalType": "struct TokenManager.Asset[]",
          "name": "tokenAssets",
          "type": "tuple[]"
        },
        {
          "components": [
            {
              "internalType": "bytes32",
              "name": "asset",
              "type": "bytes32"
            },
            {
              "internalType": "address",
              "name": "poolAddress",
              "type": "address"
            }
          ],
          "internalType": "struct TokenManager.poolAsset[]",
          "name": "poolAssets",
          "type": "tuple[]"
        }
      ],
      "name": "initialize",
      "outputs": [],
      "stateMutability": "nonpayable",
      "type": "function"
    },
    {
      "inputs": [],
      "name": "owner",
      "outputs": [
        {
          "internalType": "address",
          "name": "",
          "type": "address"
        }
      ],
      "stateMutability": "view",
      "type": "function"
    },
    {
      "inputs": [
        {
          "internalType": "bytes32[]",
          "name": "_poolAssets",
          "type": "bytes32[]"
        }
      ],
      "name": "removePoolAssets",
      "outputs": [],
      "stateMutability": "nonpayable",
      "type": "function"
    },
    {
      "inputs": [
        {
          "internalType": "bytes32[]",
          "name": "_tokenAssets",
          "type": "bytes32[]"
        }
      ],
      "name": "removeTokenAssets",
      "outputs": [],
      "stateMutability": "nonpayable",
      "type": "function"
    },
    {
      "inputs": [],
      "name": "renounceOwnership",
      "outputs": [],
      "stateMutability": "nonpayable",
      "type": "function"
    },
    {
      "inputs": [
        {
          "internalType": "address",
          "name": "token",
          "type": "address"
        },
        {
          "internalType": "uint256",
          "name": "coverage",
          "type": "uint256"
        }
      ],
      "name": "setDebtCoverage",
      "outputs": [],
      "stateMutability": "nonpayable",
      "type": "function"
    },
    {
      "inputs": [
        {
          "internalType": "uint256",
          "name": "",
          "type": "uint256"
        }
      ],
      "name": "supportedTokensList",
      "outputs": [
        {
          "internalType": "address",
          "name": "",
          "type": "address"
        }
      ],
      "stateMutability": "view",
      "type": "function"
    },
    {
      "inputs": [
        {
          "internalType": "address",
          "name": "",
          "type": "address"
        }
      ],
      "name": "tokenAddressToSymbol",
      "outputs": [
        {
          "internalType": "bytes32",
          "name": "",
          "type": "bytes32"
        }
      ],
      "stateMutability": "view",
      "type": "function"
    },
    {
      "inputs": [
        {
          "internalType": "address",
          "name": "",
          "type": "address"
        }
      ],
      "name": "tokenToStatus",
      "outputs": [
        {
          "internalType": "uint256",
          "name": "",
          "type": "uint256"
        }
      ],
      "stateMutability": "view",
      "type": "function"
    },
    {
      "inputs": [
        {
          "internalType": "address",
          "name": "newOwner",
          "type": "address"
        }
      ],
      "name": "transferOwnership",
      "outputs": [],
      "stateMutability": "nonpayable",
      "type": "function"
    }
  ],
  "transactionHash": "0xb071a1d984ff6bc3454232ae151a5213989ad9b4ee8477971e0489b02e2cc58f",
  "args": [],
  "numDeployments": 1,
  "solcInputHash": "3d71cf042f1f0e8450ebc6e796fa4649",
  "bytecode": "0x608060405234801561001057600080fd5b506130a1806100206000396000f3fe608060405234801561001057600080fd5b506004361061012c5760003560e01c8063762b887a116100ad578063e0117bdd11610071578063e0117bdd1461031b578063f2fde38b1461034b578063f38555aa14610367578063f823f1e014610383578063fda4963b146103b35761012c565b8063762b887a1461028b578063869c490d146102a75780638da5cb5b146102c5578063a2d27933146102e3578063d1bc0831146102ff5761012c565b806363c91877116100f457806363c91877146101e757806366273c191461021757806368173bcf146102355780636953c06c14610251578063715018a6146102815761012c565b80630d1ce2d2146101315780630edc25b61461014d57806321f880971461017d57806325eb876f1461019b57806331e7866c146101cb575b600080fd5b61014b60048036038101906101469190611eb0565b6103cf565b005b61016760048036038101906101629190611f13565b610565565b6040516101749190611f4f565b60405180910390f35b6101856105f7565b6040516101929190612028565b60405180910390f35b6101b560048036038101906101b09190612082565b610685565b6040516101c29190611f4f565b60405180910390f35b6101e560048036038101906101e091906120f8565b6107a0565b005b61020160048036038101906101fc9190612138565b6108af565b60405161020e9190611f4f565b60405180910390f35b61021f6108ee565b60405161022c9190612223565b60405180910390f35b61024f600480360381019061024a9190611eb0565b610952565b005b61026b60048036038101906102669190611eb0565b610ae8565b6040516102789190612254565b60405180910390f35b610289610b00565b005b6102a560048036038101906102a09190612544565b610b02565b005b6102af610c02565b6040516102bc9190612223565b60405180910390f35b6102cd610c66565b6040516102da9190611f4f565b60405180910390f35b6102fd60048036038101906102f891906125bc565b610c90565b005b610319600480360381019061031491906126c8565b610d94565b005b61033560048036038101906103309190611eb0565b610e56565b6040516103429190612254565b60405180910390f35b61036560048036038101906103609190611eb0565b610e6e565b005b610381600480360381019061037c9190612711565b610f65565b005b61039d60048036038101906103989190611eb0565b61104a565b6040516103aa9190612769565b60405180910390f35b6103cd60048036038101906103c891906126c8565b611062565b005b6103d7611124565b73ffffffffffffffffffffffffffffffffffffffff166103f5610c66565b73ffffffffffffffffffffffffffffffffffffffff161461044b576040517f08c379a0000000000000000000000000000000000000000000000000000000008152600401610442906127e1565b60405180910390fd5b6001606f60008373ffffffffffffffffffffffffffffffffffffffff1673ffffffffffffffffffffffffffffffffffffffff16815260200190815260200160002054146104cd576040517f08c379a00000000000000000000000000000000000000000000000000000000081526004016104c49061284d565b60405180910390fd5b6002606f60008373ffffffffffffffffffffffffffffffffffffffff1673ffffffffffffffffffffffffffffffffffffffff168152602001908152602001600020819055503373ffffffffffffffffffffffffffffffffffffffff167febd9f0d5b5df9f4d5180bbeec65fda8d99982e273d2a7365431b2a869aa826d4824260405161055a92919061286d565b60405180910390a250565b60008061057c83606561112c90919063ffffffff16565b915050600073ffffffffffffffffffffffffffffffffffffffff168173ffffffffffffffffffffffffffffffffffffffff16036105ee576040517f08c379a00000000000000000000000000000000000000000000000000000000081526004016105e5906128e2565b60405180910390fd5b80915050919050565b6060606e80548060200260200160405190810160405280929190818152602001828054801561067b57602002820191906000526020600020905b8160009054906101000a900473ffffffffffffffffffffffffffffffffffffffff1673ffffffffffffffffffffffffffffffffffffffff1681526020019060010190808311610631575b5050505050905090565b60008061069c84606861112c90919063ffffffff16565b915050600073ffffffffffffffffffffffffffffffffffffffff168173ffffffffffffffffffffffffffffffffffffffff160361070e576040517f08c379a00000000000000000000000000000000000000000000000000000000081526004016107059061294e565b60405180910390fd5b82610796576002606f60008373ffffffffffffffffffffffffffffffffffffffff1673ffffffffffffffffffffffffffffffffffffffff1681526020019081526020016000205414610795576040517f08c379a000000000000000000000000000000000000000000000000000000000815260040161078c906129ba565b60405180910390fd5b5b8091505092915050565b6107a8611124565b73ffffffffffffffffffffffffffffffffffffffff166107c6610c66565b73ffffffffffffffffffffffffffffffffffffffff161461081c576040517f08c379a0000000000000000000000000000000000000000000000000000000008152600401610813906127e1565b60405180910390fd5b670b90984060d35555811115610867576040517f08c379a000000000000000000000000000000000000000000000000000000000815260040161085e90612a4c565b60405180910390fd5b80606d60008473ffffffffffffffffffffffffffffffffffffffff1673ffffffffffffffffffffffffffffffffffffffff168152602001908152602001600020819055505050565b606e81815481106108bf57600080fd5b906000526020600020016000915054906101000a900473ffffffffffffffffffffffffffffffffffffffff1681565b6060606560000160000160000160000180548060200260200160405190810160405280929190818152602001828054801561094857602002820191906000526020600020905b815481526020019060010190808311610934575b5050505050905090565b61095a611124565b73ffffffffffffffffffffffffffffffffffffffff16610978610c66565b73ffffffffffffffffffffffffffffffffffffffff16146109ce576040517f08c379a00000000000000000000000000000000000000000000000000000000081526004016109c5906127e1565b60405180910390fd5b6002606f60008373ffffffffffffffffffffffffffffffffffffffff1673ffffffffffffffffffffffffffffffffffffffff1681526020019081526020016000205414610a50576040517f08c379a0000000000000000000000000000000000000000000000000000000008152600401610a4790612ab8565b60405180910390fd5b6001606f60008373ffffffffffffffffffffffffffffffffffffffff1673ffffffffffffffffffffffffffffffffffffffff168152602001908152602001600020819055503373ffffffffffffffffffffffffffffffffffffffff167fbf0b0e2d837fddaee4742e91f53ca36bac9fdebdd571738027abb2b5f7c9a2f08242604051610add92919061286d565b60405180910390a250565b606d6020528060005260406000206000915090505481565b565b600060019054906101000a900460ff16610b2a5760008054906101000a900460ff1615610b33565b610b32611155565b5b610b72576040517f08c379a0000000000000000000000000000000000000000000000000000000008152600401610b6990612b4a565b60405180910390fd5b60008060019054906101000a900460ff161590508015610bc2576001600060016101000a81548160ff02191690831515021790555060016000806101000a81548160ff0219169083151502179055505b610bca611166565b610bd383610c90565b610bdc82610f65565b8015610bfd5760008060016101000a81548160ff0219169083151502179055505b505050565b60606068600001600001600001600001805480602002602001604051908101604052809291908181526020018280548015610c5c57602002820191906000526020600020905b815481526020019060010190808311610c48575b5050505050905090565b6000603360009054906101000a900473ffffffffffffffffffffffffffffffffffffffff16905090565b610c98611124565b73ffffffffffffffffffffffffffffffffffffffff16610cb6610c66565b73ffffffffffffffffffffffffffffffffffffffff1614610d0c576040517f08c379a0000000000000000000000000000000000000000000000000000000008152600401610d03906127e1565b60405180910390fd5b60005b8151811015610d9057610d7d828281518110610d2e57610d2d612b6a565b5b602002602001015160000151838381518110610d4d57610d4c612b6a565b5b602002602001015160200151848481518110610d6c57610d6b612b6a565b5b6020026020010151604001516111bf565b8080610d8890612bc8565b915050610d0f565b5050565b610d9c611124565b73ffffffffffffffffffffffffffffffffffffffff16610dba610c66565b73ffffffffffffffffffffffffffffffffffffffff1614610e10576040517f08c379a0000000000000000000000000000000000000000000000000000000008152600401610e07906127e1565b60405180910390fd5b60005b8151811015610e5257610e3f828281518110610e3257610e31612b6a565b5b6020026020010151611501565b8080610e4a90612bc8565b915050610e13565b5050565b606f6020528060005260406000206000915090505481565b610e76611124565b73ffffffffffffffffffffffffffffffffffffffff16610e94610c66565b73ffffffffffffffffffffffffffffffffffffffff1614610eea576040517f08c379a0000000000000000000000000000000000000000000000000000000008152600401610ee1906127e1565b60405180910390fd5b600073ffffffffffffffffffffffffffffffffffffffff168173ffffffffffffffffffffffffffffffffffffffff1603610f59576040517f08c379a0000000000000000000000000000000000000000000000000000000008152600401610f5090612c82565b60405180910390fd5b610f6281611649565b50565b610f6d611124565b73ffffffffffffffffffffffffffffffffffffffff16610f8b610c66565b73ffffffffffffffffffffffffffffffffffffffff1614610fe1576040517f08c379a0000000000000000000000000000000000000000000000000000000008152600401610fd8906127e1565b60405180910390fd5b60005b81518110156110465761103382828151811061100357611002612b6a565b5b60200260200101516000015183838151811061102257611021612b6a565b5b60200260200101516020015161170f565b808061103e90612bc8565b915050610fe4565b5050565b606b6020528060005260406000206000915090505481565b61106a611124565b73ffffffffffffffffffffffffffffffffffffffff16611088610c66565b73ffffffffffffffffffffffffffffffffffffffff16146110de576040517f08c379a00000000000000000000000000000000000000000000000000000000081526004016110d5906127e1565b60405180910390fd5b60005b81518110156111205761110d828281518110611100576110ff612b6a565b5b6020026020010151611817565b808061111890612bc8565b9150506110e1565b5050565b600033905090565b60008060008061113f8660000186611885565b91509150818160001c9350935050509250929050565b6000611160306118d4565b15905090565b600060019054906101000a900460ff166111b5576040517f08c379a00000000000000000000000000000000000000000000000000000000081526004016111ac90612d14565b60405180910390fd5b6111bd6118f7565b565b60008303611202576040517f08c379a00000000000000000000000000000000000000000000000000000000081526004016111f990612da6565b60405180910390fd5b600073ffffffffffffffffffffffffffffffffffffffff168273ffffffffffffffffffffffffffffffffffffffff1603611271576040517f08c379a000000000000000000000000000000000000000000000000000000000815260040161126890612e12565b60405180910390fd5b61128583606861195890919063ffffffff16565b156112c5576040517f08c379a00000000000000000000000000000000000000000000000000000000081526004016112bc90612e7e565b60405180910390fd5b6000801b606b60008473ffffffffffffffffffffffffffffffffffffffff1673ffffffffffffffffffffffffffffffffffffffff1681526020019081526020016000205414611349576040517f08c379a000000000000000000000000000000000000000000000000000000000815260040161134090612eea565b60405180910390fd5b61135382826107a0565b6113698383606861196f9092919063ffffffff16565b5082606b60008473ffffffffffffffffffffffffffffffffffffffff1673ffffffffffffffffffffffffffffffffffffffff168152602001908152602001600020819055506002606f60008473ffffffffffffffffffffffffffffffffffffffff1673ffffffffffffffffffffffffffffffffffffffff16815260200190815260200160002081905550606e829080600181540180825580915050600190039060005260206000200160009091909190916101000a81548173ffffffffffffffffffffffffffffffffffffffff021916908373ffffffffffffffffffffffffffffffffffffffff1602179055506001606e805490506114689190612f0a565b606c60008473ffffffffffffffffffffffffffffffffffffffff1673ffffffffffffffffffffffffffffffffffffffff16815260200190815260200160002081905550823373ffffffffffffffffffffffffffffffffffffffff167ff73be6b27198eab18ec5fe07c2d7b2fbf4f05ffa1a05c94ca202531d7aa8c5b684426040516114f492919061286d565b60405180910390a3505050565b600061150e826001610685565b905061151b6068836119a1565b506000801b606b60008373ffffffffffffffffffffffffffffffffffffffff1673ffffffffffffffffffffffffffffffffffffffff168152602001908152602001600020819055506000606f60008373ffffffffffffffffffffffffffffffffffffffff1673ffffffffffffffffffffffffffffffffffffffff168152602001908152602001600020819055506000606d60008373ffffffffffffffffffffffffffffffffffffffff1673ffffffffffffffffffffffffffffffffffffffff168152602001908152602001600020819055506115f6816119b8565b813373ffffffffffffffffffffffffffffffffffffffff167f228e158b51be6445b7bd2f4121209717a371d44c7c53d4085ae7f5e496153a934260405161163d9190612254565b60405180910390a35050565b6000603360009054906101000a900473ffffffffffffffffffffffffffffffffffffffff16905081603360006101000a81548173ffffffffffffffffffffffffffffffffffffffff021916908373ffffffffffffffffffffffffffffffffffffffff1602179055508173ffffffffffffffffffffffffffffffffffffffff168173ffffffffffffffffffffffffffffffffffffffff167f8be0079c531659141344cd1fd0a4f28419497f9722a3daafe3b4186f6b6457e060405160405180910390a35050565b61171881611b9b565b611757576040517f08c379a000000000000000000000000000000000000000000000000000000000815260040161174e90612fb0565b60405180910390fd5b61176b82606561195890919063ffffffff16565b156117ab576040517f08c379a00000000000000000000000000000000000000000000000000000000081526004016117a29061301c565b60405180910390fd5b6117c18282606561196f9092919063ffffffff16565b50813373ffffffffffffffffffffffffffffffffffffffff167fcfbf9a4f33420379df003923a1d986358bb97d4b3455baae186db1d5d35cda3e834260405161180b92919061286d565b60405180910390a35050565b600061182282610565565b905061182f6065836119a1565b50813373ffffffffffffffffffffffffffffffffffffffff167ff658b7b16fbc2f0f51a3320cc57763ccd8d13f554c4eb34ff0f5b49624b32e83834260405161187992919061286d565b60405180910390a35050565b60008060008460020160008581526020019081526020016000205490506000801b81036118c4576118b68585611bbe565b6000801b92509250506118cd565b60018192509250505b9250929050565b6000808273ffffffffffffffffffffffffffffffffffffffff163b119050919050565b600060019054906101000a900460ff16611946576040517f08c379a000000000000000000000000000000000000000000000000000000000815260040161193d90612d14565b60405180910390fd5b611956611951611124565b611649565b565b60006119678360000183611bbe565b905092915050565b600061199884600001848473ffffffffffffffffffffffffffffffffffffffff1660001b611bde565b90509392505050565b60006119b08360000183611c19565b905092915050565b6000606c60008373ffffffffffffffffffffffffffffffffffffffff1673ffffffffffffffffffffffffffffffffffffffff1681526020019081526020016000205490506001606e80549050611a0e9190612f0a565b8114611b0b576000606e6001606e80549050611a2a9190612f0a565b81548110611a3b57611a3a612b6a565b5b9060005260206000200160009054906101000a900473ffffffffffffffffffffffffffffffffffffffff16905081606c60008373ffffffffffffffffffffffffffffffffffffffff1673ffffffffffffffffffffffffffffffffffffffff1681526020019081526020016000208190555080606e8381548110611ac157611ac0612b6a565b5b9060005260206000200160006101000a81548173ffffffffffffffffffffffffffffffffffffffff021916908373ffffffffffffffffffffffffffffffffffffffff160217905550505b606e805480611b1d57611b1c61303c565b5b6001900381819060005260206000200160006101000a81549073ffffffffffffffffffffffffffffffffffffffff021916905590556000606c60008473ffffffffffffffffffffffffffffffffffffffff1673ffffffffffffffffffffffffffffffffffffffff168152602001908152602001600020819055505050565b6000808273ffffffffffffffffffffffffffffffffffffffff163b119050919050565b6000611bd68284600001611c5290919063ffffffff16565b905092915050565b60008184600201600085815260200190815260200160002081905550611c108385600001611c6990919063ffffffff16565b90509392505050565b600082600201600083815260200190815260200160002060009055611c4a8284600001611c8090919063ffffffff16565b905092915050565b6000611c618360000183611c97565b905092915050565b6000611c788360000183611cba565b905092915050565b6000611c8f8360000183611d2a565b905092915050565b600080836001016000848152602001908152602001600020541415905092915050565b6000611cc68383611c97565b611d1f578260000182908060018154018082558091505060019003906000526020600020016000909190919091505582600001805490508360010160008481526020019081526020016000208190555060019050611d24565b600090505b92915050565b60008083600101600084815260200190815260200160002054905060008114611e32576000600182611d5c9190612f0a565b9050600060018660000180549050611d749190612f0a565b9050818114611de3576000866000018281548110611d9557611d94612b6a565b5b9060005260206000200154905080876000018481548110611db957611db8612b6a565b5b90600052602060002001819055508387600101600083815260200190815260200160002081905550505b85600001805480611df757611df661303c565b5b600190038181906000526020600020016000905590558560010160008681526020019081526020016000206000905560019350505050611e38565b60009150505b92915050565b6000604051905090565b600080fd5b600080fd5b600073ffffffffffffffffffffffffffffffffffffffff82169050919050565b6000611e7d82611e52565b9050919050565b611e8d81611e72565b8114611e9857600080fd5b50565b600081359050611eaa81611e84565b92915050565b600060208284031215611ec657611ec5611e48565b5b6000611ed484828501611e9b565b91505092915050565b6000819050919050565b611ef081611edd565b8114611efb57600080fd5b50565b600081359050611f0d81611ee7565b92915050565b600060208284031215611f2957611f28611e48565b5b6000611f3784828501611efe565b91505092915050565b611f4981611e72565b82525050565b6000602082019050611f646000830184611f40565b92915050565b600081519050919050565b600082825260208201905092915050565b6000819050602082019050919050565b611f9f81611e72565b82525050565b6000611fb18383611f96565b60208301905092915050565b6000602082019050919050565b6000611fd582611f6a565b611fdf8185611f75565b9350611fea83611f86565b8060005b8381101561201b5781516120028882611fa5565b975061200d83611fbd565b925050600181019050611fee565b5085935050505092915050565b600060208201905081810360008301526120428184611fca565b905092915050565b60008115159050919050565b61205f8161204a565b811461206a57600080fd5b50565b60008135905061207c81612056565b92915050565b6000806040838503121561209957612098611e48565b5b60006120a785828601611efe565b92505060206120b88582860161206d565b9150509250929050565b6000819050919050565b6120d5816120c2565b81146120e057600080fd5b50565b6000813590506120f2816120cc565b92915050565b6000806040838503121561210f5761210e611e48565b5b600061211d85828601611e9b565b925050602061212e858286016120e3565b9150509250929050565b60006020828403121561214e5761214d611e48565b5b600061215c848285016120e3565b91505092915050565b600081519050919050565b600082825260208201905092915050565b6000819050602082019050919050565b61219a81611edd565b82525050565b60006121ac8383612191565b60208301905092915050565b6000602082019050919050565b60006121d082612165565b6121da8185612170565b93506121e583612181565b8060005b838110156122165781516121fd88826121a0565b9750612208836121b8565b9250506001810190506121e9565b5085935050505092915050565b6000602082019050818103600083015261223d81846121c5565b905092915050565b61224e816120c2565b82525050565b60006020820190506122696000830184612245565b92915050565b600080fd5b6000601f19601f8301169050919050565b7f4e487b7100000000000000000000000000000000000000000000000000000000600052604160045260246000fd5b6122bd82612274565b810181811067ffffffffffffffff821117156122dc576122db612285565b5b80604052505050565b60006122ef611e3e565b90506122fb82826122b4565b919050565b600067ffffffffffffffff82111561231b5761231a612285565b5b602082029050602081019050919050565b600080fd5b600080fd5b60006060828403121561234c5761234b612331565b5b61235660606122e5565b9050600061236684828501611efe565b600083015250602061237a84828501611e9b565b602083015250604061238e848285016120e3565b60408301525092915050565b60006123ad6123a884612300565b6122e5565b905080838252602082019050606084028301858111156123d0576123cf61232c565b5b835b818110156123f957806123e58882612336565b8452602084019350506060810190506123d2565b5050509392505050565b600082601f8301126124185761241761226f565b5b813561242884826020860161239a565b91505092915050565b600067ffffffffffffffff82111561244c5761244b612285565b5b602082029050602081019050919050565b60006040828403121561247357612472612331565b5b61247d60406122e5565b9050600061248d84828501611efe565b60008301525060206124a184828501611e9b565b60208301525092915050565b60006124c06124bb84612431565b6122e5565b905080838252602082019050604084028301858111156124e3576124e261232c565b5b835b8181101561250c57806124f8888261245d565b8452602084019350506040810190506124e5565b5050509392505050565b600082601f83011261252b5761252a61226f565b5b813561253b8482602086016124ad565b91505092915050565b6000806040838503121561255b5761255a611e48565b5b600083013567ffffffffffffffff81111561257957612578611e4d565b5b61258585828601612403565b925050602083013567ffffffffffffffff8111156125a6576125a5611e4d565b5b6125b285828601612516565b9150509250929050565b6000602082840312156125d2576125d1611e48565b5b600082013567ffffffffffffffff8111156125f0576125ef611e4d565b5b6125fc84828501612403565b91505092915050565b600067ffffffffffffffff8211156126205761261f612285565b5b602082029050602081019050919050565b600061264461263f84612605565b6122e5565b905080838252602082019050602084028301858111156126675761266661232c565b5b835b81811015612690578061267c8882611efe565b845260208401935050602081019050612669565b5050509392505050565b600082601f8301126126af576126ae61226f565b5b81356126bf848260208601612631565b91505092915050565b6000602082840312156126de576126dd611e48565b5b600082013567ffffffffffffffff8111156126fc576126fb611e4d565b5b6127088482850161269a565b91505092915050565b60006020828403121561272757612726611e48565b5b600082013567ffffffffffffffff81111561274557612744611e4d565b5b61275184828501612516565b91505092915050565b61276381611edd565b82525050565b600060208201905061277e600083018461275a565b92915050565b600082825260208201905092915050565b7f4f776e61626c653a2063616c6c6572206973206e6f7420746865206f776e6572600082015250565b60006127cb602083612784565b91506127d682612795565b602082019050919050565b600060208201905081810360008301526127fa816127be565b9050919050565b7f4d75737420626520696e61637469766500000000000000000000000000000000600082015250565b6000612837601083612784565b915061284282612801565b602082019050919050565b600060208201905081810360008301526128668161282a565b9050919050565b60006040820190506128826000830185611f40565b61288f6020830184612245565b9392505050565b7f506f6f6c206173736574206e6f7420737570706f727465642e00000000000000600082015250565b60006128cc601983612784565b91506128d782612896565b602082019050919050565b600060208201905081810360008301526128fb816128bf565b9050919050565b7f4173736574206e6f7420737570706f727465642e000000000000000000000000600082015250565b6000612938601483612784565b915061294382612902565b602082019050919050565b600060208201905081810360008301526129678161292b565b9050919050565b7f417373657420696e616374697665000000000000000000000000000000000000600082015250565b60006129a4600e83612784565b91506129af8261296e565b602082019050919050565b600060208201905081810360008301526129d381612997565b9050919050565b7f4465627420636f76657261676520686967686572207468616e206d6178696d7560008201527f6d2061636365707461626c650000000000000000000000000000000000000000602082015250565b6000612a36602c83612784565b9150612a41826129da565b604082019050919050565b60006020820190508181036000830152612a6581612a29565b9050919050565b7f4d75737420626520616374697665000000000000000000000000000000000000600082015250565b6000612aa2600e83612784565b9150612aad82612a6c565b602082019050919050565b60006020820190508181036000830152612ad181612a95565b9050919050565b7f496e697469616c697a61626c653a20636f6e747261637420697320616c72656160008201527f647920696e697469616c697a6564000000000000000000000000000000000000602082015250565b6000612b34602e83612784565b9150612b3f82612ad8565b604082019050919050565b60006020820190508181036000830152612b6381612b27565b9050919050565b7f4e487b7100000000000000000000000000000000000000000000000000000000600052603260045260246000fd5b7f4e487b7100000000000000000000000000000000000000000000000000000000600052601160045260246000fd5b6000612bd3826120c2565b91507fffffffffffffffffffffffffffffffffffffffffffffffffffffffffffffffff8203612c0557612c04612b99565b5b600182019050919050565b7f4f776e61626c653a206e6577206f776e657220697320746865207a65726f206160008201527f6464726573730000000000000000000000000000000000000000000000000000602082015250565b6000612c6c602683612784565b9150612c7782612c10565b604082019050919050565b60006020820190508181036000830152612c9b81612c5f565b9050919050565b7f496e697469616c697a61626c653a20636f6e7472616374206973206e6f74206960008201527f6e697469616c697a696e67000000000000000000000000000000000000000000602082015250565b6000612cfe602b83612784565b9150612d0982612ca2565b604082019050919050565b60006020820190508181036000830152612d2d81612cf1565b9050919050565b7f43616e6e6f742073657420616e20656d70747920737472696e6720617373657460008201527f2e00000000000000000000000000000000000000000000000000000000000000602082015250565b6000612d90602183612784565b9150612d9b82612d34565b604082019050919050565b60006020820190508181036000830152612dbf81612d83565b9050919050565b7f43616e6e6f742073657420616e20656d70747920616464726573732e00000000600082015250565b6000612dfc601c83612784565b9150612e0782612dc6565b602082019050919050565b60006020820190508181036000830152612e2b81612def565b9050919050565b7f4173736574277320746f6b656e20616c72656164792065786973747300000000600082015250565b6000612e68601c83612784565b9150612e7382612e32565b602082019050919050565b60006020820190508181036000830152612e9781612e5b565b9050919050565b7f4173736574206164647265737320697320616c726561647920696e2075736500600082015250565b6000612ed4601f83612784565b9150612edf82612e9e565b602082019050919050565b60006020820190508181036000830152612f0381612ec7565b9050919050565b6000612f15826120c2565b9150612f20836120c2565b9250828203905081811115612f3857612f37612b99565b5b92915050565b7f546f6b656e4d616e616765723a20506f6f6c206d757374206265206120636f6e60008201527f7472616374000000000000000000000000000000000000000000000000000000602082015250565b6000612f9a602583612784565b9150612fa582612f3e565b604082019050919050565b60006020820190508181036000830152612fc981612f8d565b9050919050565b7f4173736574277320706f6f6c20616c7265616479206578697374730000000000600082015250565b6000613006601b83612784565b915061301182612fd0565b602082019050919050565b6000602082019050818103600083015261303581612ff9565b9050919050565b7f4e487b7100000000000000000000000000000000000000000000000000000000600052603160045260246000fdfea26469706673582212200bb73dbdb1899f7b001d18594a95cca26005f9da5bd20322f491c6e66717548264736f6c63430008110033",
  "devdoc": {
    "events": {
      "PoolAssetAdded(address,bytes32,address,uint256)": {
        "details": "emitted after adding a pool asset",
        "params": {
          "performer": "an address of wallet adding the pool asset",
          "poolAddress": "an address of the pool asset",
          "poolAsset": "pool asset",
          "timestamp": "time of the pool asset addition*"
        }
      },
      "PoolAssetRemoved(address,bytes32,address,uint256)": {
        "details": "emitted after removing a pool asset",
        "params": {
          "performer": "an address of wallet removing the pool asset",
          "poolAddress": "an address of the pool asset",
          "poolAsset": "pool asset",
          "timestamp": "time of a pool asset removal*"
        }
      },
      "TokenAssetActivated(address,address,uint256)": {
        "details": "emitted after activating a token asset",
        "params": {
          "assetAddress": "an address of the token asset",
          "performer": "an address of the wallet activating a token asset",
          "timestamp": "time of activating a token asset*"
        }
      },
      "TokenAssetAdded(address,bytes32,address,uint256)": {
        "details": "emitted after adding a token asset",
        "params": {
          "assetAddress": "an address of the token asset",
          "performer": "an address of the wallet adding a token asset",
          "timestamp": "time of adding a token asset*",
          "tokenAsset": "token asset"
        }
      },
      "TokenAssetDeactivated(address,address,uint256)": {
        "details": "emitted after deactivating a token asset",
        "params": {
          "assetAddress": "an address of the token asset",
          "performer": "an address of the wallet deactivating a token asset",
          "timestamp": "time of deactivating a token asset*"
        }
      },
      "TokenAssetRemoved(address,bytes32,uint256)": {
        "details": "emitted after removing a token asset",
        "params": {
          "performer": "an address of the wallet removing a token asset",
          "timestamp": "time a token asset removal*",
          "tokenAsset": "token asset"
        }
      }
    },
    "kind": "dev",
    "methods": {
      "owner()": {
        "details": "Returns the address of the current owner."
      },
      "renounceOwnership()": {
        "details": "Leaves the contract without owner. It will not be possible to call `onlyOwner` functions anymore. Can only be called by the current owner. NOTE: Renouncing ownership will leave the contract without an owner, thereby removing any functionality that is only available to the owner."
      },
      "transferOwnership(address)": {
        "details": "Transfers ownership of the contract to a new account (`newOwner`). Can only be called by the current owner."
      }
    },
    "version": 1
  },
  "userdoc": {
    "kind": "user",
    "methods": {
      "getAssetAddress(bytes32,bool)": {
        "notice": "Returns address of an asset*"
      },
      "getPoolAddress(bytes32)": {
        "notice": "Returns address of an asset's lending pool*"
      }
    },
    "version": 1
  },
  "storageLayout": {
    "storage": [
      {
        "astId": 130,
        "contract": "contracts/TokenManager.sol:TokenManager",
        "label": "_initialized",
        "offset": 0,
        "slot": "0",
        "type": "t_bool"
      },
      {
        "astId": 133,
        "contract": "contracts/TokenManager.sol:TokenManager",
        "label": "_initializing",
        "offset": 1,
        "slot": "0",
        "type": "t_bool"
      },
      {
        "astId": 540,
        "contract": "contracts/TokenManager.sol:TokenManager",
        "label": "__gap",
        "offset": 0,
        "slot": "1",
        "type": "t_array(t_uint256)50_storage"
      },
      {
        "astId": 10,
        "contract": "contracts/TokenManager.sol:TokenManager",
        "label": "_owner",
        "offset": 0,
        "slot": "51",
        "type": "t_address"
      },
      {
        "astId": 122,
        "contract": "contracts/TokenManager.sol:TokenManager",
        "label": "__gap",
        "offset": 0,
        "slot": "52",
        "type": "t_array(t_uint256)49_storage"
      },
      {
        "astId": 10378,
        "contract": "contracts/TokenManager.sol:TokenManager",
        "label": "assetToPoolAddress",
        "offset": 0,
        "slot": "101",
        "type": "t_struct(Bytes32ToAddressMap)21341_storage"
      },
      {
        "astId": 10381,
        "contract": "contracts/TokenManager.sol:TokenManager",
        "label": "assetToTokenAddress",
        "offset": 0,
        "slot": "104",
        "type": "t_struct(Bytes32ToAddressMap)21341_storage"
      },
      {
        "astId": 10385,
        "contract": "contracts/TokenManager.sol:TokenManager",
        "label": "tokenAddressToSymbol",
        "offset": 0,
        "slot": "107",
        "type": "t_mapping(t_address,t_bytes32)"
      },
      {
        "astId": 10389,
        "contract": "contracts/TokenManager.sol:TokenManager",
        "label": "tokenPositionInList",
        "offset": 0,
        "slot": "108",
        "type": "t_mapping(t_address,t_uint256)"
      },
      {
        "astId": 10393,
        "contract": "contracts/TokenManager.sol:TokenManager",
        "label": "debtCoverage",
        "offset": 0,
        "slot": "109",
        "type": "t_mapping(t_address,t_uint256)"
      },
      {
        "astId": 10396,
        "contract": "contracts/TokenManager.sol:TokenManager",
        "label": "supportedTokensList",
        "offset": 0,
        "slot": "110",
        "type": "t_array(t_address)dyn_storage"
      },
      {
        "astId": 10400,
        "contract": "contracts/TokenManager.sol:TokenManager",
        "label": "tokenToStatus",
        "offset": 0,
        "slot": "111",
        "type": "t_mapping(t_address,t_uint256)"
      }
    ],
    "types": {
      "t_address": {
        "encoding": "inplace",
        "label": "address",
        "numberOfBytes": "20"
      },
      "t_array(t_address)dyn_storage": {
        "base": "t_address",
        "encoding": "dynamic_array",
        "label": "address[]",
        "numberOfBytes": "32"
      },
      "t_array(t_bytes32)dyn_storage": {
        "base": "t_bytes32",
        "encoding": "dynamic_array",
        "label": "bytes32[]",
        "numberOfBytes": "32"
      },
      "t_array(t_uint256)49_storage": {
        "base": "t_uint256",
        "encoding": "inplace",
        "label": "uint256[49]",
        "numberOfBytes": "1568"
      },
      "t_array(t_uint256)50_storage": {
        "base": "t_uint256",
        "encoding": "inplace",
        "label": "uint256[50]",
        "numberOfBytes": "1600"
      },
      "t_bool": {
        "encoding": "inplace",
        "label": "bool",
        "numberOfBytes": "1"
      },
      "t_bytes32": {
        "encoding": "inplace",
        "label": "bytes32",
        "numberOfBytes": "32"
      },
      "t_mapping(t_address,t_bytes32)": {
        "encoding": "mapping",
        "key": "t_address",
        "label": "mapping(address => bytes32)",
        "numberOfBytes": "32",
        "value": "t_bytes32"
      },
      "t_mapping(t_address,t_uint256)": {
        "encoding": "mapping",
        "key": "t_address",
        "label": "mapping(address => uint256)",
        "numberOfBytes": "32",
        "value": "t_uint256"
      },
      "t_mapping(t_bytes32,t_bytes32)": {
        "encoding": "mapping",
        "key": "t_bytes32",
        "label": "mapping(bytes32 => bytes32)",
        "numberOfBytes": "32",
        "value": "t_bytes32"
      },
      "t_mapping(t_bytes32,t_uint256)": {
        "encoding": "mapping",
        "key": "t_bytes32",
        "label": "mapping(bytes32 => uint256)",
        "numberOfBytes": "32",
        "value": "t_uint256"
      },
      "t_struct(Bytes32Set)3733_storage": {
        "encoding": "inplace",
        "label": "struct EnumerableSet.Bytes32Set",
        "members": [
          {
            "astId": 3732,
            "contract": "contracts/TokenManager.sol:TokenManager",
            "label": "_inner",
            "offset": 0,
            "slot": "0",
            "type": "t_struct(Set)3539_storage"
          }
        ],
        "numberOfBytes": "64"
      },
      "t_struct(Bytes32ToAddressMap)21341_storage": {
        "encoding": "inplace",
        "label": "struct EnumerableMap.Bytes32ToAddressMap",
        "members": [
          {
            "astId": 21340,
            "contract": "contracts/TokenManager.sol:TokenManager",
            "label": "_inner",
            "offset": 0,
            "slot": "0",
            "type": "t_struct(Map)21111_storage"
          }
        ],
        "numberOfBytes": "96"
      },
      "t_struct(Map)21111_storage": {
        "encoding": "inplace",
        "label": "struct EnumerableMap.Map",
        "members": [
          {
            "astId": 21106,
            "contract": "contracts/TokenManager.sol:TokenManager",
            "label": "_keys",
            "offset": 0,
            "slot": "0",
            "type": "t_struct(Bytes32Set)3733_storage"
          },
          {
            "astId": 21110,
            "contract": "contracts/TokenManager.sol:TokenManager",
            "label": "_values",
            "offset": 0,
            "slot": "2",
            "type": "t_mapping(t_bytes32,t_bytes32)"
          }
        ],
        "numberOfBytes": "96"
      },
      "t_struct(Set)3539_storage": {
        "encoding": "inplace",
        "label": "struct EnumerableSet.Set",
        "members": [
          {
            "astId": 3534,
            "contract": "contracts/TokenManager.sol:TokenManager",
            "label": "_values",
            "offset": 0,
            "slot": "0",
            "type": "t_array(t_bytes32)dyn_storage"
          },
          {
            "astId": 3538,
            "contract": "contracts/TokenManager.sol:TokenManager",
            "label": "_indexes",
            "offset": 0,
            "slot": "1",
            "type": "t_mapping(t_bytes32,t_uint256)"
          }
        ],
        "numberOfBytes": "64"
      },
      "t_uint256": {
        "encoding": "inplace",
        "label": "uint256",
        "numberOfBytes": "32"
      }
    }
  }
}