{
  "address": "0xA4d395bDE6b0faDA7Db05b6f2F1e56347d3cc5F1",
  "abi": [
    {
      "anonymous": false,
      "inputs": [
        {
          "indexed": true,
          "internalType": "address",
          "name": "performer",
          "type": "address"
        },
        {
          "indexed": true,
          "internalType": "bytes32",
          "name": "identifier",
          "type": "bytes32"
        },
        {
          "indexed": true,
          "internalType": "bytes32",
          "name": "exposureGroup",
          "type": "bytes32"
        },
        {
          "indexed": false,
          "internalType": "uint256",
          "name": "timestamp",
          "type": "uint256"
        }
      ],
      "name": "IdentifierToExposureGroupSet",
      "type": "event"
    },
    {
      "anonymous": false,
      "inputs": [
        {
          "indexed": false,
          "internalType": "uint8",
          "name": "version",
          "type": "uint8"
        }
      ],
      "name": "Initialized",
      "type": "event"
    },
    {
      "anonymous": false,
      "inputs": [
        {
          "indexed": true,
          "internalType": "address",
          "name": "previousOwner",
          "type": "address"
        },
        {
          "indexed": true,
          "internalType": "address",
          "name": "newOwner",
          "type": "address"
        }
      ],
      "name": "OwnershipTransferred",
      "type": "event"
    },
    {
      "anonymous": false,
      "inputs": [
        {
          "indexed": true,
          "internalType": "address",
          "name": "performer",
          "type": "address"
        },
        {
          "indexed": true,
          "internalType": "bytes32",
          "name": "poolAsset",
          "type": "bytes32"
        },
        {
          "indexed": false,
          "internalType": "address",
          "name": "poolAddress",
          "type": "address"
        },
        {
          "indexed": false,
          "internalType": "uint256",
          "name": "timestamp",
          "type": "uint256"
        }
      ],
      "name": "PoolAssetAdded",
      "type": "event"
    },
    {
      "anonymous": false,
      "inputs": [
        {
          "indexed": true,
          "internalType": "address",
          "name": "performer",
          "type": "address"
        },
        {
          "indexed": true,
          "internalType": "bytes32",
          "name": "poolAsset",
          "type": "bytes32"
        },
        {
          "indexed": false,
          "internalType": "address",
          "name": "poolAddress",
          "type": "address"
        },
        {
          "indexed": false,
          "internalType": "uint256",
          "name": "timestamp",
          "type": "uint256"
        }
      ],
      "name": "PoolAssetRemoved",
      "type": "event"
    },
    {
      "anonymous": false,
      "inputs": [
        {
          "indexed": true,
          "internalType": "address",
          "name": "performer",
          "type": "address"
        },
        {
          "indexed": true,
          "internalType": "bytes32",
          "name": "groupIdentifier",
          "type": "bytes32"
        },
        {
          "indexed": false,
          "internalType": "uint256",
          "name": "prevCurrentExposure",
          "type": "uint256"
        },
        {
          "indexed": false,
          "internalType": "uint256",
          "name": "newCurrentExposure",
          "type": "uint256"
        },
        {
          "indexed": false,
          "internalType": "uint256",
          "name": "timestamp",
          "type": "uint256"
        }
      ],
      "name": "ProtocolCurrentExposureSet",
      "type": "event"
    },
    {
      "anonymous": false,
      "inputs": [
        {
          "indexed": true,
          "internalType": "address",
          "name": "performer",
          "type": "address"
        },
        {
          "indexed": true,
          "internalType": "bytes32",
          "name": "identifier",
          "type": "bytes32"
        },
        {
          "indexed": false,
          "internalType": "uint256",
          "name": "newExposure",
          "type": "uint256"
        },
        {
          "indexed": false,
          "internalType": "uint256",
          "name": "timestamp",
          "type": "uint256"
        }
      ],
      "name": "ProtocolExposureChanged",
      "type": "event"
    },
    {
      "anonymous": false,
      "inputs": [
        {
          "indexed": true,
          "internalType": "address",
          "name": "performer",
          "type": "address"
        },
        {
          "indexed": true,
          "internalType": "bytes32",
          "name": "groupIdentifier",
          "type": "bytes32"
        },
        {
          "indexed": false,
          "internalType": "uint256",
          "name": "prevMaxExposure",
          "type": "uint256"
        },
        {
          "indexed": false,
          "internalType": "uint256",
          "name": "newMaxExposure",
          "type": "uint256"
        },
        {
          "indexed": false,
          "internalType": "uint256",
          "name": "currentExposure",
          "type": "uint256"
        },
        {
          "indexed": false,
          "internalType": "uint256",
          "name": "timestamp",
          "type": "uint256"
        }
      ],
      "name": "ProtocolExposureSet",
      "type": "event"
    },
    {
      "anonymous": false,
      "inputs": [
        {
          "indexed": true,
          "internalType": "address",
          "name": "performer",
          "type": "address"
        },
        {
          "indexed": false,
          "internalType": "address",
          "name": "assetAddress",
          "type": "address"
        },
        {
          "indexed": false,
          "internalType": "uint256",
          "name": "timestamp",
          "type": "uint256"
        }
      ],
      "name": "TokenAssetActivated",
      "type": "event"
    },
    {
      "anonymous": false,
      "inputs": [
        {
          "indexed": true,
          "internalType": "address",
          "name": "performer",
          "type": "address"
        },
        {
          "indexed": true,
          "internalType": "bytes32",
          "name": "tokenAsset",
          "type": "bytes32"
        },
        {
          "indexed": false,
          "internalType": "address",
          "name": "assetAddress",
          "type": "address"
        },
        {
          "indexed": false,
          "internalType": "uint256",
          "name": "timestamp",
          "type": "uint256"
        }
      ],
      "name": "TokenAssetAdded",
      "type": "event"
    },
    {
      "anonymous": false,
      "inputs": [
        {
          "indexed": true,
          "internalType": "address",
          "name": "performer",
          "type": "address"
        },
        {
          "indexed": false,
          "internalType": "address",
          "name": "assetAddress",
          "type": "address"
        },
        {
          "indexed": false,
          "internalType": "uint256",
          "name": "timestamp",
          "type": "uint256"
        }
      ],
      "name": "TokenAssetDeactivated",
      "type": "event"
    },
    {
      "anonymous": false,
      "inputs": [
        {
          "indexed": true,
          "internalType": "address",
          "name": "performer",
          "type": "address"
        },
        {
          "indexed": true,
          "internalType": "bytes32",
          "name": "tokenAsset",
          "type": "bytes32"
        },
        {
          "indexed": false,
          "internalType": "uint256",
          "name": "timestamp",
          "type": "uint256"
        }
      ],
      "name": "TokenAssetRemoved",
      "type": "event"
    },
    {
      "inputs": [
        {
          "internalType": "address",
          "name": "token",
          "type": "address"
        }
      ],
      "name": "activateToken",
      "outputs": [],
      "stateMutability": "nonpayable",
      "type": "function"
    },
    {
      "inputs": [
        {
          "components": [
            {
              "internalType": "bytes32",
              "name": "asset",
              "type": "bytes32"
            },
            {
              "internalType": "address",
              "name": "poolAddress",
              "type": "address"
            }
          ],
          "internalType": "struct TokenManager.poolAsset[]",
          "name": "poolAssets",
          "type": "tuple[]"
        }
      ],
      "name": "addPoolAssets",
      "outputs": [],
      "stateMutability": "nonpayable",
      "type": "function"
    },
    {
      "inputs": [
        {
          "components": [
            {
              "internalType": "bytes32",
              "name": "asset",
              "type": "bytes32"
            },
            {
              "internalType": "address",
              "name": "assetAddress",
              "type": "address"
            },
            {
              "internalType": "uint256",
              "name": "debtCoverage",
              "type": "uint256"
            }
          ],
          "internalType": "struct TokenManager.Asset[]",
          "name": "tokenAssets",
          "type": "tuple[]"
        }
      ],
      "name": "addTokenAssets",
      "outputs": [],
      "stateMutability": "nonpayable",
      "type": "function"
    },
    {
      "inputs": [
        {
          "internalType": "address",
          "name": "token",
          "type": "address"
        }
      ],
      "name": "deactivateToken",
      "outputs": [],
      "stateMutability": "nonpayable",
      "type": "function"
    },
    {
      "inputs": [
        {
          "internalType": "address",
          "name": "",
          "type": "address"
        }
      ],
      "name": "debtCoverage",
      "outputs": [
        {
          "internalType": "uint256",
          "name": "",
          "type": "uint256"
        }
      ],
      "stateMutability": "view",
      "type": "function"
    },
    {
      "inputs": [
        {
          "internalType": "bytes32",
          "name": "",
          "type": "bytes32"
        }
      ],
      "name": "debtCoverageStaked",
      "outputs": [
        {
          "internalType": "uint256",
          "name": "",
          "type": "uint256"
        }
      ],
      "stateMutability": "view",
      "type": "function"
    },
    {
      "inputs": [
        {
          "internalType": "bytes32",
          "name": "assetIdentifier",
          "type": "bytes32"
        },
        {
          "internalType": "uint256",
          "name": "exposureDecrease",
          "type": "uint256"
        }
      ],
      "name": "decreaseProtocolExposure",
      "outputs": [],
      "stateMutability": "nonpayable",
      "type": "function"
    },
    {
      "inputs": [],
      "name": "getAllPoolAssets",
      "outputs": [
        {
          "internalType": "bytes32[]",
          "name": "result",
          "type": "bytes32[]"
        }
      ],
      "stateMutability": "view",
      "type": "function"
    },
    {
      "inputs": [],
      "name": "getAllTokenAssets",
      "outputs": [
        {
          "internalType": "bytes32[]",
          "name": "result",
          "type": "bytes32[]"
        }
      ],
      "stateMutability": "view",
      "type": "function"
    },
    {
      "inputs": [
        {
          "internalType": "bytes32",
          "name": "_asset",
          "type": "bytes32"
        },
        {
          "internalType": "bool",
          "name": "allowInactive",
          "type": "bool"
        }
      ],
      "name": "getAssetAddress",
      "outputs": [
        {
          "internalType": "address",
          "name": "",
          "type": "address"
        }
      ],
      "stateMutability": "view",
      "type": "function"
    },
    {
      "inputs": [
        {
          "internalType": "bytes32",
          "name": "_asset",
          "type": "bytes32"
        }
      ],
      "name": "getPoolAddress",
      "outputs": [
        {
          "internalType": "address",
          "name": "",
          "type": "address"
        }
      ],
      "stateMutability": "view",
      "type": "function"
    },
    {
      "inputs": [],
      "name": "getSmartLoansFactoryAddress",
      "outputs": [
        {
          "internalType": "address",
          "name": "",
          "type": "address"
        }
      ],
      "stateMutability": "view",
      "type": "function"
    },
    {
      "inputs": [],
      "name": "getSupportedTokensAddresses",
      "outputs": [
        {
          "internalType": "address[]",
          "name": "",
          "type": "address[]"
        }
      ],
      "stateMutability": "view",
      "type": "function"
    },
    {
      "inputs": [
        {
          "internalType": "bytes32",
          "name": "",
          "type": "bytes32"
        }
      ],
      "name": "groupToExposure",
      "outputs": [
        {
          "internalType": "uint256",
          "name": "current",
          "type": "uint256"
        },
        {
          "internalType": "uint256",
          "name": "max",
          "type": "uint256"
        }
      ],
      "stateMutability": "view",
      "type": "function"
    },
    {
      "inputs": [
        {
          "internalType": "bytes32",
          "name": "",
          "type": "bytes32"
        }
      ],
      "name": "identifierToExposureGroup",
      "outputs": [
        {
          "internalType": "bytes32",
          "name": "",
          "type": "bytes32"
        }
      ],
      "stateMutability": "view",
      "type": "function"
    },
    {
      "inputs": [
        {
          "internalType": "bytes32",
          "name": "assetIdentifier",
          "type": "bytes32"
        },
        {
          "internalType": "address",
          "name": "user",
          "type": "address"
        },
        {
          "internalType": "uint256",
          "name": "amount",
          "type": "uint256"
        }
      ],
      "name": "increasePendingExposure",
      "outputs": [],
      "stateMutability": "nonpayable",
      "type": "function"
    },
    {
      "inputs": [
        {
          "internalType": "bytes32",
          "name": "assetIdentifier",
          "type": "bytes32"
        },
        {
          "internalType": "uint256",
          "name": "exposureIncrease",
          "type": "uint256"
        }
      ],
      "name": "increaseProtocolExposure",
      "outputs": [],
      "stateMutability": "nonpayable",
      "type": "function"
    },
    {
      "inputs": [
        {
          "components": [
            {
              "internalType": "bytes32",
              "name": "asset",
              "type": "bytes32"
            },
            {
              "internalType": "address",
              "name": "assetAddress",
              "type": "address"
            },
            {
              "internalType": "uint256",
              "name": "debtCoverage",
              "type": "uint256"
            }
          ],
          "internalType": "struct TokenManager.Asset[]",
          "name": "tokenAssets",
          "type": "tuple[]"
        },
        {
          "components": [
            {
              "internalType": "bytes32",
              "name": "asset",
              "type": "bytes32"
            },
            {
              "internalType": "address",
              "name": "poolAddress",
              "type": "address"
            }
          ],
          "internalType": "struct TokenManager.poolAsset[]",
          "name": "poolAssets",
          "type": "tuple[]"
        }
      ],
      "name": "initialize",
      "outputs": [],
      "stateMutability": "nonpayable",
      "type": "function"
    },
    {
      "inputs": [
        {
          "internalType": "address",
          "name": "token",
          "type": "address"
        }
      ],
      "name": "isTokenAssetActive",
      "outputs": [
        {
          "internalType": "bool",
          "name": "",
          "type": "bool"
        }
      ],
      "stateMutability": "view",
      "type": "function"
    },
    {
      "inputs": [],
      "name": "owner",
      "outputs": [
        {
          "internalType": "address",
          "name": "",
          "type": "address"
        }
      ],
      "stateMutability": "view",
      "type": "function"
    },
    {
      "inputs": [
        {
          "internalType": "bytes32",
          "name": "",
          "type": "bytes32"
        }
      ],
      "name": "pendingProtocolExposure",
      "outputs": [
        {
          "internalType": "uint256",
          "name": "",
          "type": "uint256"
        }
      ],
      "stateMutability": "view",
      "type": "function"
    },
    {
      "inputs": [
        {
          "internalType": "address",
          "name": "",
          "type": "address"
        },
        {
          "internalType": "bytes32",
          "name": "",
          "type": "bytes32"
        }
      ],
      "name": "pendingUserExposure",
      "outputs": [
        {
          "internalType": "uint256",
          "name": "",
          "type": "uint256"
        }
      ],
      "stateMutability": "view",
      "type": "function"
    },
    {
      "inputs": [
        {
          "internalType": "bytes32[]",
          "name": "_poolAssets",
          "type": "bytes32[]"
        }
      ],
      "name": "removePoolAssets",
      "outputs": [],
      "stateMutability": "nonpayable",
      "type": "function"
    },
    {
      "inputs": [
        {
          "internalType": "bytes32[]",
          "name": "_tokenAssets",
          "type": "bytes32[]"
        }
      ],
      "name": "removeTokenAssets",
      "outputs": [],
      "stateMutability": "nonpayable",
      "type": "function"
    },
    {
      "inputs": [],
      "name": "renounceOwnership",
      "outputs": [],
      "stateMutability": "nonpayable",
      "type": "function"
    },
    {
      "inputs": [
        {
          "internalType": "bytes32[]",
          "name": "groupIdentifiers",
          "type": "bytes32[]"
        },
        {
          "internalType": "uint256[]",
          "name": "currentExposures",
          "type": "uint256[]"
        }
      ],
      "name": "setCurrentProtocolExposure",
      "outputs": [],
      "stateMutability": "nonpayable",
      "type": "function"
    },
    {
      "inputs": [
        {
          "internalType": "address",
          "name": "token",
          "type": "address"
        },
        {
          "internalType": "uint256",
          "name": "coverage",
          "type": "uint256"
        }
      ],
      "name": "setDebtCoverage",
      "outputs": [],
      "stateMutability": "nonpayable",
      "type": "function"
    },
    {
      "inputs": [
        {
          "internalType": "bytes32",
          "name": "stakedAsset",
          "type": "bytes32"
        },
        {
          "internalType": "uint256",
          "name": "coverage",
          "type": "uint256"
        }
      ],
      "name": "setDebtCoverageStaked",
      "outputs": [],
      "stateMutability": "nonpayable",
      "type": "function"
    },
    {
      "inputs": [
        {
          "internalType": "bytes32[]",
          "name": "identifiers",
          "type": "bytes32[]"
        },
        {
          "internalType": "bytes32[]",
          "name": "exposureGroups",
          "type": "bytes32[]"
        }
      ],
      "name": "setIdentifiersToExposureGroups",
      "outputs": [],
      "stateMutability": "nonpayable",
      "type": "function"
    },
    {
      "inputs": [
        {
          "internalType": "bytes32[]",
          "name": "groupIdentifiers",
          "type": "bytes32[]"
        },
        {
          "internalType": "uint256[]",
          "name": "maxExposures",
          "type": "uint256[]"
        }
      ],
      "name": "setMaxProtocolsExposure",
      "outputs": [],
      "stateMutability": "nonpayable",
      "type": "function"
    },
    {
      "inputs": [
        {
          "internalType": "bytes32",
          "name": "assetIdentifier",
          "type": "bytes32"
        },
        {
          "internalType": "address",
          "name": "user",
          "type": "address"
        }
      ],
      "name": "setPendingExposureToZero",
      "outputs": [],
      "stateMutability": "nonpayable",
      "type": "function"
    },
    {
      "inputs": [
        {
          "internalType": "uint256",
          "name": "",
          "type": "uint256"
        }
      ],
      "name": "supportedTokensList",
      "outputs": [
        {
          "internalType": "address",
          "name": "",
          "type": "address"
        }
      ],
      "stateMutability": "view",
      "type": "function"
    },
    {
      "inputs": [
        {
          "internalType": "address",
          "name": "",
          "type": "address"
        }
      ],
      "name": "tokenAddressToSymbol",
      "outputs": [
        {
          "internalType": "bytes32",
          "name": "",
          "type": "bytes32"
        }
      ],
      "stateMutability": "view",
      "type": "function"
    },
    {
      "inputs": [
        {
          "internalType": "address",
          "name": "",
          "type": "address"
        }
      ],
      "name": "tokenToStatus",
      "outputs": [
        {
          "internalType": "uint256",
          "name": "",
          "type": "uint256"
        }
      ],
      "stateMutability": "view",
      "type": "function"
    },
    {
      "inputs": [
        {
          "internalType": "address",
          "name": "newOwner",
          "type": "address"
        }
      ],
      "name": "transferOwnership",
      "outputs": [],
      "stateMutability": "nonpayable",
      "type": "function"
    }
  ],
  "transactionHash": "0x24fc6f2d86c22fc4686b49d728e6fa33934d87c84e9dde5019267bd7631179a0",
  "args": [],
  "numDeployments": 7,
  "solcInputHash": "f07c577e86895f2134cc873a63a2a4bb",
  "bytecode": "0x608060405234801561001057600080fd5b5061270c806100206000396000f3fe608060405234801561001057600080fd5b50600436106101a15760003560e01c806303223bb4146101a65780630d1ce2d2146101bb5780630e8b514b146101ce5780630edc25b61461020c57806321f880971461022c57806325eb876f146102415780632caeffe21461025457806331e7866c1461025c578063326c2e971461026f57806335923e031461028f5780633f8ef5c8146102cb57806363c91877146102eb57806366273c19146102fe57806368173bcf146103135780636953c06c14610326578063715018a6146101b9578063762b887a146103465780638310466714610359578063869c490d146103795780638ce76c05146103815780638da5cb5b146103945780639ab520451461039c578063a2d27933146103af578063adfe6a0f146103c2578063c3cc6c7a146103d5578063d195f047146103e8578063d1bc0831146103fb578063e0117bdd1461040e578063ecfc19a01461042e578063ed0994cd14610441578063f2fde38b14610454578063f38555aa14610467578063f823f1e01461047a578063fda4963b1461049a578063fff3d39a146104ad575b600080fd5b6101b96101b4366004611f98565b6104e9565b005b6101b96101c9366004612017565b6105ff565b6101f96101dc366004612032565b607360209081526000928352604080842090915290825290205481565b6040519081526020015b60405180910390f35b61021f61021a36600461205c565b6106bd565b6040516102039190612075565b610234610726565b6040516102039190612089565b61021f61024f3660046120e4565b610788565b61021f61084b565b6101b961026a366004612032565b610863565b6101f961027d36600461205c565b60716020526000908152604090205481565b6102bb61029d366004612017565b6001600160a01b03166000908152606f602052604090205460021490565b6040519015158152602001610203565b6101f96102d936600461205c565b60706020526000908152604090205481565b61021f6102f936600461205c565b6108af565b6103066108d9565b6040516102039190612114565b6101b9610321366004612017565b61092f565b6101f9610334366004612017565b606d6020526000908152604090205481565b6101b961035436600461226d565b6109e2565b6101f961036736600461205c565b60746020526000908152604090205481565b610306610b0d565b6101b961038f3660046122c6565b610b62565b61021f610be5565b6101b96103aa366004612380565b610bf4565b6101b96103bd3660046123b5565b610dac565b6101b96103d03660046123e9565b610e38565b6101b96103e33660046123e9565b610f69565b6101b96103f63660046122c6565b6110db565b6101b961040936600461240b565b61115e565b6101f961041c366004612017565b606f6020526000908152604090205481565b6101b961043c3660046123e9565b6111a6565b6101b961044f36600461243f565b6111e8565b6101b9610462366004612017565b61130d565b6101b961047536600461246b565b611386565b6101f9610488366004612017565b606b6020526000908152604090205481565b6101b96104a836600461240b565b6113f0565b6104d46104bb36600461205c565b6072602052600090815260409020805460019091015482565b60408051928352602083019190915201610203565b6104f1611438565b805182511461051b5760405162461bcd60e51b81526004016105129061249f565b60405180910390fd5b60005b82518110156105fa57818181518110610539576105396124d0565b602002602001015160716000858481518110610557576105576124d0565b6020026020010151815260200190815260200160002081905550818181518110610583576105836124d0565b602002602001015183828151811061059d5761059d6124d0565b6020026020010151336001600160a01b03167f6185e65460908e4de770553685b03f20921bc24a081923fc2ca1f0ba7d18cd5f426040516105e091815260200190565b60405180910390a4806105f2816124fc565b91505061051e565b505050565b610607611438565b6001600160a01b0381166000908152606f60205260409020546001146106625760405162461bcd60e51b815260206004820152601060248201526f4d75737420626520696e61637469766560801b6044820152606401610512565b6001600160a01b0381166000908152606f602052604090819020600290555133907febd9f0d5b5df9f4d5180bbeec65fda8d99982e273d2a7365431b2a869aa826d4906106b29084904290612515565b60405180910390a250565b6000806106cb606584611497565b9150506001600160a01b0381166107205760405162461bcd60e51b81526020600482015260196024820152782837b7b61030b9b9b2ba103737ba1039bab83837b93a32b21760391b6044820152606401610512565b92915050565b6060606e80548060200260200160405190810160405280929190818152602001828054801561077e57602002820191906000526020600020905b81546001600160a01b03168152600190910190602001808311610760575b5050505050905090565b600080610796606885611497565b9150506001600160a01b0381166107e65760405162461bcd60e51b815260206004820152601460248201527320b9b9b2ba103737ba1039bab83837b93a32b21760611b6044820152606401610512565b82610844576001600160a01b0381166000908152606f60205260409020546002146108445760405162461bcd60e51b815260206004820152600e60248201526d417373657420696e61637469766560901b6044820152606401610512565b9392505050565b733ea9d480295a73fd2af95b4d96c2aff88b21b03d90565b61086b611438565b670b90984060d355558111156108935760405162461bcd60e51b81526004016105129061252e565b6001600160a01b039091166000908152606d6020526040902055565b606e81815481106108bf57600080fd5b6000918252602090912001546001600160a01b0316905081565b60658054604080516020808402820181019092528281526060939092909183018282801561077e57602002820191906000526020600020905b815481526020019060010190808311610912575050505050905090565b610937611438565b6001600160a01b0381166000908152606f60205260409020546002146109905760405162461bcd60e51b815260206004820152600e60248201526d4d7573742062652061637469766560901b6044820152606401610512565b6001600160a01b0381166000908152606f602052604090819020600190555133907fbf0b0e2d837fddaee4742e91f53ca36bac9fdebdd571738027abb2b5f7c9a2f0906106b29084904290612515565b565b600054610100900460ff1615808015610a025750600054600160ff909116105b80610a235750610a11306114b5565b158015610a23575060005460ff166001145b610a865760405162461bcd60e51b815260206004820152602e60248201527f496e697469616c697a61626c653a20636f6e747261637420697320616c72656160448201526d191e481a5b9a5d1a585b1a5e995960921b6064820152608401610512565b6000805460ff191660011790558015610aa9576000805461ff0019166101001790555b610ab16114c4565b610aba83610dac565b610ac382611386565b80156105fa576000805461ff0019169055604051600181527f7f26b83ff96e1f2b6a682f133852f6798a09c465da95921460cefb38474024989060200160405180910390a1505050565b60688054604080516020808402820181019092528281526060939092909183018282801561077e5760200282019190600052602060002090815481526020019060010190808311610912575050505050905090565b610b6a611438565b8051825114610b8b5760405162461bcd60e51b81526004016105129061249f565b60005b82518110156105fa57610bd3838281518110610bac57610bac6124d0565b6020026020010151838381518110610bc657610bc66124d0565b60200260200101516114f3565b80610bdd816124fc565b915050610b8e565b6033546001600160a01b031690565b6000610bfe61084b565b60405163039ff21960e21b81529091506001600160a01b03821690630e7fc86490610c2d903390600401612075565b602060405180830381865afa158015610c4a573d6000803e3d6000fd5b505050506040513d601f19601f82011682018060405250810190610c6e919061257a565b80610c88575033610c7d610be5565b6001600160a01b0316145b610ca45760405162461bcd60e51b815260040161051290612597565b6001600160a01b038316600090815260736020908152604080832087845290915290205415610d025760405162461bcd60e51b815260206004820152600a6024820152690a0cadcc8d2dcce40a8f60b31b6044820152606401610512565b6001600160a01b038316600090815260736020908152604080832087845290915281208054849290610d359084906125ee565b909155505060008481526074602052604081208054849290610d589084906125ee565b90915550610d67905084611575565b610da65760405162461bcd60e51b815260206004820152601060248201526f4c61636b206f66204578706f7375726560801b6044820152606401610512565b50505050565b610db4611438565b60005b8151811015610e3457610e22828281518110610dd557610dd56124d0565b602002602001015160000151838381518110610df357610df36124d0565b602002602001015160200151848481518110610e1157610e116124d0565b6020026020010151604001516115f1565b80610e2c816124fc565b915050610db7565b5050565b6000610e4261084b565b60405163039ff21960e21b81529091506001600160a01b03821690630e7fc86490610e71903390600401612075565b602060405180830381865afa158015610e8e573d6000803e3d6000fd5b505050506040513d601f19601f82011682018060405250810190610eb2919061257a565b80610ecc575033610ec1610be5565b6001600160a01b0316145b610ee85760405162461bcd60e51b815260040161051290612597565b6000838152607160205260409020548015610da6576000818152607260205260409020600181015415610f62578054841015610f30578054610f2b908590612601565b610f33565b60005b80825560408051918252426020830152839133916000805160206126b783398151915291015b60405180910390a35b5050505050565b6000610f7361084b565b60405163039ff21960e21b81529091506001600160a01b03821690630e7fc86490610fa2903390600401612075565b602060405180830381865afa158015610fbf573d6000803e3d6000fd5b505050506040513d601f19601f82011682018060405250810190610fe3919061257a565b80610ffd575033610ff2610be5565b6001600160a01b0316145b6110195760405162461bcd60e51b815260040161051290612597565b6000838152607160205260409020548015610da6576000818152607260205260409020600181015415610f62578381600001600082825461105a91906125ee565b90915550506001810154815411156110b25760405162461bcd60e51b815260206004820152601b60248201527a13585e08185cdcd95d08195e1c1bdcdd5c9948189c995858da1959602a1b6044820152606401610512565b805460408051918252426020830152839133916000805160206126b78339815191529101610f59565b6110e3611438565b80518251146111045760405162461bcd60e51b81526004016105129061249f565b60005b82518110156105fa5761114c838281518110611125576111256124d0565b602002602001015183838151811061113f5761113f6124d0565b6020026020010151611804565b80611156816124fc565b915050611107565b611166611438565b60005b8151811015610e3457611194828281518110611187576111876124d0565b6020026020010151611888565b8061119e816124fc565b915050611169565b6111ae611438565b670b90984060d355558111156111d65760405162461bcd60e51b81526004016105129061252e565b60009182526070602052604090912055565b60006111f261084b565b60405163039ff21960e21b81529091506001600160a01b03821690630e7fc86490611221903390600401612075565b602060405180830381865afa15801561123e573d6000803e3d6000fd5b505050506040513d601f19601f82011682018060405250810190611262919061257a565b8061127c575033611271610be5565b6001600160a01b0316145b6112985760405162461bcd60e51b815260040161051290612597565b6001600160a01b03821660009081526073602090815260408083208684529091529020548015610da657600084815260746020526040812080548392906112e0908490612601565b909155505050506001600160a01b0316600090815260736020908152604080832093835292905290812055565b611315611438565b6001600160a01b03811661137a5760405162461bcd60e51b815260206004820152602660248201527f4f776e61626c653a206e6577206f776e657220697320746865207a65726f206160448201526564647265737360d01b6064820152608401610512565b61138381611918565b50565b61138e611438565b60005b8151811015610e34576113de8282815181106113af576113af6124d0565b6020026020010151600001518383815181106113cd576113cd6124d0565b60200260200101516020015161196a565b806113e8816124fc565b915050611391565b6113f8611438565b60005b8151811015610e3457611426828281518110611419576114196124d0565b6020026020010151611a6c565b80611430816124fc565b9150506113fb565b33611441610be5565b6001600160a01b0316146109e05760405162461bcd60e51b815260206004820181905260248201527f4f776e61626c653a2063616c6c6572206973206e6f7420746865206f776e65726044820152606401610512565b60008080806114a68686611ac1565b909450925050505b9250929050565b6001600160a01b03163b151590565b600054610100900460ff166114eb5760405162461bcd60e51b815260040161051290612614565b6109e0611afb565b816000036115135760405162461bcd60e51b81526004016105129061265f565b60008281526072602090815260409182902080549084905582518181529182018490524292820192909252839033907f073dc16e9ad72465ac9c9d5249ac0b1ba512ca440e461ff67a34c38e29c3413e906060015b60405180910390a3505050565b60008181526071602052604081205480156115e85760008181526072602090815260409182902082518084019093528054835260010154908201819052156115e65760008481526074602052604090205481516115d291906125ee565b8160200151116115e6575060009392505050565b505b50600192915050565b826000036116115760405162461bcd60e51b81526004016105129061265f565b6001600160a01b0382166116665760405162461bcd60e51b815260206004820152601c60248201527b21b0b73737ba1039b2ba1030b71032b6b83a3c9030b2323932b9b99760211b6044820152606401610512565b611671606884611b2b565b156116bd5760405162461bcd60e51b815260206004820152601c60248201527b4173736574277320746f6b656e20616c72656164792065786973747360201b6044820152606401610512565b6001600160a01b0382166000908152606b6020526040902054156117235760405162461bcd60e51b815260206004820152601f60248201527f4173736574206164647265737320697320616c726561647920696e20757365006044820152606401610512565b61172d8282610863565b61173960688484611b37565b506001600160a01b0382166000818152606b60209081526040808320879055606f909152812060029055606e805460018181018355928290527f9930d9ff0dee0ef5ca2f7710ea66b8f84dd0f5f5351ecffe72b952cd9db7142a0180546001600160a01b03191690931790925590546117b29190612601565b6001600160a01b0383166000908152606c6020526040908190209190915551839033907ff73be6b27198eab18ec5fe07c2d7b2fbf4f05ffa1a05c94ca202531d7aa8c5b6906115689086904290612515565b816000036118245760405162461bcd60e51b81526004016105129061265f565b600082815260726020908152604091829020600181018054908590559054835182815292830185905292820192909252426060820152839033907f4e3db1a563ebfee7c496974d792038536dc8311892551dc36d19116131e3dd3c90608001611568565b6000611895826001610788565b90506118a2606883611b55565b506001600160a01b0381166000908152606b60209081526040808320839055606f8252808320839055606d9091528120556118dc81611b61565b604051428152829033907f228e158b51be6445b7bd2f4121209717a371d44c7c53d4085ae7f5e496153a93906020015b60405180910390a35050565b603380546001600160a01b038381166001600160a01b0319831681179093556040519116919082907f8be0079c531659141344cd1fd0a4f28419497f9722a3daafe3b4186f6b6457e090600090a35050565b611973816114b5565b6119cd5760405162461bcd60e51b815260206004820152602560248201527f546f6b656e4d616e616765723a20506f6f6c206d757374206265206120636f6e6044820152641d1c9858dd60da1b6064820152608401610512565b6119d8606583611b2b565b15611a235760405162461bcd60e51b815260206004820152601b60248201527a4173736574277320706f6f6c20616c72656164792065786973747360281b6044820152606401610512565b611a2f60658383611b37565b5081336001600160a01b03167fcfbf9a4f33420379df003923a1d986358bb97d4b3455baae186db1d5d35cda3e834260405161190c929190612515565b6000611a77826106bd565b9050611a84606583611b55565b5081336001600160a01b03167ff658b7b16fbc2f0f51a3320cc57763ccd8d13f554c4eb34ff0f5b49624b32e83834260405161190c929190612515565b6000818152600283016020526040812054819080611af057611ae38585611cbb565b9250600091506114ae9050565b6001925090506114ae565b600054610100900460ff16611b225760405162461bcd60e51b815260040161051290612614565b6109e033611918565b60006108448383611cbb565b6000611b4d84846001600160a01b038516611cc7565b949350505050565b60006108448383611ce4565b6001600160a01b0381166000908152606c6020526040902054606e548110611bc05760405162461bcd60e51b8152602060048201526012602482015271496e646578206f7574206f662072616e676560701b6044820152606401610512565b606e54611bcf90600190612601565b8114611c6957606e805460009190611be990600190612601565b81548110611bf957611bf96124d0565b60009182526020808320909101546001600160a01b0316808352606c9091526040909120839055606e8054919250829184908110611c3957611c396124d0565b9060005260206000200160006101000a8154816001600160a01b0302191690836001600160a01b03160217905550505b606e805480611c7a57611c7a6126a0565b60008281526020808220830160001990810180546001600160a01b03191690559092019092556001600160a01b03939093168152606c909252506040812055565b60006108448383611d01565b60008281526002840160205260408120829055611b4d8484611d0d565b600081815260028301602052604081208190556108448383611d19565b60006108448383611d25565b60006108448383611d3d565b60006108448383611d87565b60009081526001919091016020526040902054151590565b6000611d498383611d25565b611d7f57508154600181810184556000848152602080822090930184905584548482528286019093526040902091909155610720565b506000610720565b60008181526001830160205260408120548015611e70576000611dab600183612601565b8554909150600090611dbf90600190612601565b9050818114611e24576000866000018281548110611ddf57611ddf6124d0565b9060005260206000200154905080876000018481548110611e0257611e026124d0565b6000918252602080832090910192909255918252600188019052604090208390555b8554869080611e3557611e356126a0565b600190038181906000526020600020016000905590558560010160008681526020019081526020016000206000905560019350505050610720565b6000915050610720565b634e487b7160e01b600052604160045260246000fd5b604051606081016001600160401b0381118282101715611eb257611eb2611e7a565b60405290565b604080519081016001600160401b0381118282101715611eb257611eb2611e7a565b604051601f8201601f191681016001600160401b0381118282101715611f0257611f02611e7a565b604052919050565b60006001600160401b03821115611f2357611f23611e7a565b5060051b60200190565b600082601f830112611f3e57600080fd5b81356020611f53611f4e83611f0a565b611eda565b82815260059290921b84018101918181019086841115611f7257600080fd5b8286015b84811015611f8d5780358352918301918301611f76565b509695505050505050565b60008060408385031215611fab57600080fd5b82356001600160401b0380821115611fc257600080fd5b611fce86838701611f2d565b93506020850135915080821115611fe457600080fd5b50611ff185828601611f2d565b9150509250929050565b80356001600160a01b038116811461201257600080fd5b919050565b60006020828403121561202957600080fd5b61084482611ffb565b6000806040838503121561204557600080fd5b61204e83611ffb565b946020939093013593505050565b60006020828403121561206e57600080fd5b5035919050565b6001600160a01b0391909116815260200190565b6020808252825182820181905260009190848201906040850190845b818110156120ca5783516001600160a01b0316835292840192918401916001016120a5565b50909695505050505050565b801515811461138357600080fd5b600080604083850312156120f757600080fd5b823591506020830135612109816120d6565b809150509250929050565b6020808252825182820181905260009190848201906040850190845b818110156120ca57835183529284019291840191600101612130565b600082601f83011261215d57600080fd5b8135602061216d611f4e83611f0a565b8281526060928302850182019282820191908785111561218c57600080fd5b8387015b858110156121da5781818a0312156121a85760008081fd5b6121b0611e90565b813581526121bf868301611ffb565b81870152604082810135908201528452928401928101612190565b5090979650505050505050565b600082601f8301126121f857600080fd5b81356020612208611f4e83611f0a565b82815260069290921b8401810191818101908684111561222757600080fd5b8286015b84811015611f8d57604081890312156122445760008081fd5b61224c611eb8565b8135815261225b858301611ffb565b8186015283529183019160400161222b565b6000806040838503121561228057600080fd5b82356001600160401b038082111561229757600080fd5b6122a38683870161214c565b935060208501359150808211156122b957600080fd5b50611ff1858286016121e7565b600080604083850312156122d957600080fd5b82356001600160401b03808211156122f057600080fd5b6122fc86838701611f2d565b935060209150818501358181111561231357600080fd5b85019050601f8101861361232657600080fd5b8035612334611f4e82611f0a565b81815260059190911b8201830190838101908883111561235357600080fd5b928401925b8284101561237157833582529284019290840190612358565b80955050505050509250929050565b60008060006060848603121561239557600080fd5b833592506123a560208501611ffb565b9150604084013590509250925092565b6000602082840312156123c757600080fd5b81356001600160401b038111156123dd57600080fd5b611b4d8482850161214c565b600080604083850312156123fc57600080fd5b50508035926020909101359150565b60006020828403121561241d57600080fd5b81356001600160401b0381111561243357600080fd5b611b4d84828501611f2d565b6000806040838503121561245257600080fd5b8235915061246260208401611ffb565b90509250929050565b60006020828403121561247d57600080fd5b81356001600160401b0381111561249357600080fd5b611b4d848285016121e7565b602080825260179082015276082e4e4c2f2e640d8cadccee8d0e640dad2e6dac2e8c6d604b1b604082015260600190565b634e487b7160e01b600052603260045260246000fd5b634e487b7160e01b600052601160045260246000fd5b60006001820161250e5761250e6124e6565b5060010190565b6001600160a01b03929092168252602082015260400190565b6020808252602c908201527f4465627420636f76657261676520686967686572207468616e206d6178696d7560408201526b6d2061636365707461626c6560a01b606082015260800190565b60006020828403121561258c57600080fd5b8151610844816120d6565b60208082526037908201527f4f6e6c79205072696d654163636f756e74206f72206f776e65722063616e206360408201527668616e67652070726f746f636f6c206578706f7375726560481b606082015260800190565b80820180821115610720576107206124e6565b81810381811115610720576107206124e6565b6020808252602b908201527f496e697469616c697a61626c653a20636f6e7472616374206973206e6f74206960408201526a6e697469616c697a696e6760a81b606082015260800190565b60208082526021908201527f43616e6e6f742073657420616e20656d70747920737472696e672061737365746040820152601760f91b606082015260800190565b634e487b7160e01b600052603160045260246000fdfe45262a952f63661e3b881eb82a0d0bd391ab35692bd26023356b06e452230d43a264697066735822122015767ce5b563db36f7b30bf76f1393e0f207c9f347babbcfcf080a382cc02f3264736f6c63430008110033",
  "devdoc": {
    "events": {
      "IdentifierToExposureGroupSet(address,bytes32,bytes32,uint256)": {
        "details": "emitted after associating identifier with a exposure group",
        "params": {
          "exposureGroup": "exposure group identifier",
          "identifier": "asset identifier",
          "performer": "an address of the wallet setting max exposure",
          "timestamp": "time of associating identifier with a exposure group*"
        }
      },
      "PoolAssetAdded(address,bytes32,address,uint256)": {
        "details": "emitted after adding a pool asset",
        "params": {
          "performer": "an address of wallet adding the pool asset",
          "poolAddress": "an address of the pool asset",
          "poolAsset": "pool asset",
          "timestamp": "time of the pool asset addition*"
        }
      },
      "PoolAssetRemoved(address,bytes32,address,uint256)": {
        "details": "emitted after removing a pool asset",
        "params": {
          "performer": "an address of wallet removing the pool asset",
          "poolAddress": "an address of the pool asset",
          "poolAsset": "pool asset",
          "timestamp": "time of a pool asset removal*"
        }
      },
      "ProtocolCurrentExposureSet(address,bytes32,uint256,uint256,uint256)": {
        "details": "emitted after setting max exposure for a given protocol.",
        "params": {
          "groupIdentifier": "exposure group identifier",
          "newCurrentExposure": "new max protocol exposure",
          "performer": "an address of the wallet setting max exposure",
          "prevCurrentExposure": "previous max protocol exposure",
          "timestamp": "time of setting max exposure*"
        }
      },
      "ProtocolExposureChanged(address,bytes32,uint256,uint256)": {
        "details": "emitted after changing current protocol exposure",
        "params": {
          "identifier": "group identifier",
          "newExposure": "new current protocol exposure",
          "performer": "an address of the wallet changing the exposure",
          "timestamp": "time of associating identifier with a exposure group*"
        }
      },
      "ProtocolExposureSet(address,bytes32,uint256,uint256,uint256,uint256)": {
        "details": "emitted after setting max exposure for a given protocol.",
        "params": {
          "currentExposure": "current protocol exposure",
          "groupIdentifier": "exposure group identifier",
          "newMaxExposure": "new max protocol exposure",
          "performer": "an address of the wallet setting max exposure",
          "prevMaxExposure": "previous max protocol exposure",
          "timestamp": "time of setting max exposure*"
        }
      },
      "TokenAssetActivated(address,address,uint256)": {
        "details": "emitted after activating a token asset",
        "params": {
          "assetAddress": "an address of the token asset",
          "performer": "an address of the wallet activating a token asset",
          "timestamp": "time of activating a token asset*"
        }
      },
      "TokenAssetAdded(address,bytes32,address,uint256)": {
        "details": "emitted after adding a token asset",
        "params": {
          "assetAddress": "an address of the token asset",
          "performer": "an address of the wallet adding a token asset",
          "timestamp": "time of adding a token asset*",
          "tokenAsset": "token asset"
        }
      },
      "TokenAssetDeactivated(address,address,uint256)": {
        "details": "emitted after deactivating a token asset",
        "params": {
          "assetAddress": "an address of the token asset",
          "performer": "an address of the wallet deactivating a token asset",
          "timestamp": "time of deactivating a token asset*"
        }
      },
      "TokenAssetRemoved(address,bytes32,uint256)": {
        "details": "emitted after removing a token asset",
        "params": {
          "performer": "an address of the wallet removing a token asset",
          "timestamp": "time a token asset removal*",
          "tokenAsset": "token asset"
        }
      }
    },
    "kind": "dev",
    "methods": {
      "owner()": {
        "details": "Returns the address of the current owner."
      },
      "renounceOwnership()": {
        "details": "Leaves the contract without owner. It will not be possible to call `onlyOwner` functions. Can only be called by the current owner. NOTE: Renouncing ownership will leave the contract without an owner, thereby disabling any functionality that is only available to the owner."
      },
      "transferOwnership(address)": {
        "details": "Transfers ownership of the contract to a new account (`newOwner`). Can only be called by the current owner."
      }
    },
    "version": 1
  },
  "userdoc": {
    "kind": "user",
    "methods": {
      "getAssetAddress(bytes32,bool)": {
        "notice": "Returns address of an asset*"
      },
      "getPoolAddress(bytes32)": {
        "notice": "Returns address of an asset's lending pool*"
      }
    },
    "version": 1
  },
  "storageLayout": {
    "storage": [
      {
        "astId": 138,
        "contract": "contracts/TokenManager.sol:TokenManager",
        "label": "_initialized",
        "offset": 0,
        "slot": "0",
        "type": "t_uint8"
      },
      {
        "astId": 141,
        "contract": "contracts/TokenManager.sol:TokenManager",
        "label": "_initializing",
        "offset": 1,
        "slot": "0",
        "type": "t_bool"
      },
      {
        "astId": 671,
        "contract": "contracts/TokenManager.sol:TokenManager",
        "label": "__gap",
        "offset": 0,
        "slot": "1",
        "type": "t_array(t_uint256)50_storage"
      },
      {
        "astId": 10,
        "contract": "contracts/TokenManager.sol:TokenManager",
        "label": "_owner",
        "offset": 0,
        "slot": "51",
        "type": "t_address"
      },
      {
        "astId": 130,
        "contract": "contracts/TokenManager.sol:TokenManager",
        "label": "__gap",
        "offset": 0,
        "slot": "52",
        "type": "t_array(t_uint256)49_storage"
      },
      {
        "astId": 1747,
        "contract": "contracts/TokenManager.sol:TokenManager",
        "label": "assetToPoolAddress",
        "offset": 0,
        "slot": "101",
        "type": "t_struct(Bytes32ToAddressMap)6652_storage"
      },
      {
        "astId": 1750,
        "contract": "contracts/TokenManager.sol:TokenManager",
        "label": "assetToTokenAddress",
        "offset": 0,
        "slot": "104",
        "type": "t_struct(Bytes32ToAddressMap)6652_storage"
      },
      {
        "astId": 1754,
        "contract": "contracts/TokenManager.sol:TokenManager",
        "label": "tokenAddressToSymbol",
        "offset": 0,
        "slot": "107",
        "type": "t_mapping(t_address,t_bytes32)"
      },
      {
        "astId": 1758,
        "contract": "contracts/TokenManager.sol:TokenManager",
        "label": "tokenPositionInList",
        "offset": 0,
        "slot": "108",
        "type": "t_mapping(t_address,t_uint256)"
      },
      {
        "astId": 1762,
        "contract": "contracts/TokenManager.sol:TokenManager",
        "label": "debtCoverage",
        "offset": 0,
        "slot": "109",
        "type": "t_mapping(t_address,t_uint256)"
      },
      {
        "astId": 1765,
        "contract": "contracts/TokenManager.sol:TokenManager",
        "label": "supportedTokensList",
        "offset": 0,
        "slot": "110",
        "type": "t_array(t_address)dyn_storage"
      },
      {
        "astId": 1769,
        "contract": "contracts/TokenManager.sol:TokenManager",
        "label": "tokenToStatus",
        "offset": 0,
        "slot": "111",
        "type": "t_mapping(t_address,t_uint256)"
      },
      {
        "astId": 1773,
        "contract": "contracts/TokenManager.sol:TokenManager",
        "label": "debtCoverageStaked",
        "offset": 0,
        "slot": "112",
        "type": "t_mapping(t_bytes32,t_uint256)"
      },
      {
        "astId": 1777,
        "contract": "contracts/TokenManager.sol:TokenManager",
        "label": "identifierToExposureGroup",
        "offset": 0,
        "slot": "113",
        "type": "t_mapping(t_bytes32,t_bytes32)"
      },
      {
        "astId": 1782,
        "contract": "contracts/TokenManager.sol:TokenManager",
        "label": "groupToExposure",
        "offset": 0,
        "slot": "114",
        "type": "t_mapping(t_bytes32,t_struct(Exposure)1731_storage)"
      },
      {
        "astId": 1788,
        "contract": "contracts/TokenManager.sol:TokenManager",
        "label": "pendingUserExposure",
        "offset": 0,
        "slot": "115",
        "type": "t_mapping(t_address,t_mapping(t_bytes32,t_uint256))"
      },
      {
        "astId": 1792,
        "contract": "contracts/TokenManager.sol:TokenManager",
        "label": "pendingProtocolExposure",
        "offset": 0,
        "slot": "116",
        "type": "t_mapping(t_bytes32,t_uint256)"
      }
    ],
    "types": {
      "t_address": {
        "encoding": "inplace",
        "label": "address",
        "numberOfBytes": "20"
      },
      "t_array(t_address)dyn_storage": {
        "base": "t_address",
        "encoding": "dynamic_array",
        "label": "address[]",
        "numberOfBytes": "32"
      },
      "t_array(t_bytes32)dyn_storage": {
        "base": "t_bytes32",
        "encoding": "dynamic_array",
        "label": "bytes32[]",
        "numberOfBytes": "32"
      },
      "t_array(t_uint256)49_storage": {
        "base": "t_uint256",
        "encoding": "inplace",
        "label": "uint256[49]",
        "numberOfBytes": "1568"
      },
      "t_array(t_uint256)50_storage": {
        "base": "t_uint256",
        "encoding": "inplace",
        "label": "uint256[50]",
        "numberOfBytes": "1600"
      },
      "t_bool": {
        "encoding": "inplace",
        "label": "bool",
        "numberOfBytes": "1"
      },
      "t_bytes32": {
        "encoding": "inplace",
        "label": "bytes32",
        "numberOfBytes": "32"
      },
      "t_mapping(t_address,t_bytes32)": {
        "encoding": "mapping",
        "key": "t_address",
        "label": "mapping(address => bytes32)",
        "numberOfBytes": "32",
        "value": "t_bytes32"
      },
      "t_mapping(t_address,t_mapping(t_bytes32,t_uint256))": {
        "encoding": "mapping",
        "key": "t_address",
        "label": "mapping(address => mapping(bytes32 => uint256))",
        "numberOfBytes": "32",
        "value": "t_mapping(t_bytes32,t_uint256)"
      },
      "t_mapping(t_address,t_uint256)": {
        "encoding": "mapping",
        "key": "t_address",
        "label": "mapping(address => uint256)",
        "numberOfBytes": "32",
        "value": "t_uint256"
      },
      "t_mapping(t_bytes32,t_bytes32)": {
        "encoding": "mapping",
        "key": "t_bytes32",
        "label": "mapping(bytes32 => bytes32)",
        "numberOfBytes": "32",
        "value": "t_bytes32"
      },
      "t_mapping(t_bytes32,t_struct(Exposure)1731_storage)": {
        "encoding": "mapping",
        "key": "t_bytes32",
        "label": "mapping(bytes32 => struct TokenManager.Exposure)",
        "numberOfBytes": "32",
        "value": "t_struct(Exposure)1731_storage"
      },
      "t_mapping(t_bytes32,t_uint256)": {
        "encoding": "mapping",
        "key": "t_bytes32",
        "label": "mapping(bytes32 => uint256)",
        "numberOfBytes": "32",
        "value": "t_uint256"
      },
      "t_struct(Bytes32Set)1297_storage": {
        "encoding": "inplace",
        "label": "struct EnumerableSet.Bytes32Set",
        "members": [
          {
            "astId": 1296,
            "contract": "contracts/TokenManager.sol:TokenManager",
            "label": "_inner",
            "offset": 0,
            "slot": "0",
            "type": "t_struct(Set)1103_storage"
          }
        ],
        "numberOfBytes": "64"
      },
      "t_struct(Bytes32ToAddressMap)6652_storage": {
        "encoding": "inplace",
        "label": "struct EnumerableMap.Bytes32ToAddressMap",
        "members": [
          {
            "astId": 6651,
            "contract": "contracts/TokenManager.sol:TokenManager",
            "label": "_inner",
            "offset": 0,
            "slot": "0",
            "type": "t_struct(Map)6422_storage"
          }
        ],
        "numberOfBytes": "96"
      },
      "t_struct(Exposure)1731_storage": {
        "encoding": "inplace",
        "label": "struct TokenManager.Exposure",
        "members": [
          {
            "astId": 1728,
            "contract": "contracts/TokenManager.sol:TokenManager",
            "label": "current",
            "offset": 0,
            "slot": "0",
            "type": "t_uint256"
          },
          {
            "astId": 1730,
            "contract": "contracts/TokenManager.sol:TokenManager",
            "label": "max",
            "offset": 0,
            "slot": "1",
            "type": "t_uint256"
          }
        ],
        "numberOfBytes": "64"
      },
      "t_struct(Map)6422_storage": {
        "encoding": "inplace",
        "label": "struct EnumerableMap.Map",
        "members": [
          {
            "astId": 6417,
            "contract": "contracts/TokenManager.sol:TokenManager",
            "label": "_keys",
            "offset": 0,
            "slot": "0",
            "type": "t_struct(Bytes32Set)1297_storage"
          },
          {
            "astId": 6421,
            "contract": "contracts/TokenManager.sol:TokenManager",
            "label": "_values",
            "offset": 0,
            "slot": "2",
            "type": "t_mapping(t_bytes32,t_bytes32)"
          }
        ],
        "numberOfBytes": "96"
      },
      "t_struct(Set)1103_storage": {
        "encoding": "inplace",
        "label": "struct EnumerableSet.Set",
        "members": [
          {
            "astId": 1098,
            "contract": "contracts/TokenManager.sol:TokenManager",
            "label": "_values",
            "offset": 0,
            "slot": "0",
            "type": "t_array(t_bytes32)dyn_storage"
          },
          {
            "astId": 1102,
            "contract": "contracts/TokenManager.sol:TokenManager",
            "label": "_indexes",
            "offset": 0,
            "slot": "1",
            "type": "t_mapping(t_bytes32,t_uint256)"
          }
        ],
        "numberOfBytes": "64"
      },
      "t_uint256": {
        "encoding": "inplace",
        "label": "uint256",
        "numberOfBytes": "32"
      },
      "t_uint8": {
        "encoding": "inplace",
        "label": "uint8",
        "numberOfBytes": "1"
      }
    }
  }
}