{
  "address": "0x76CC6e71E2fA5Ff379Ad5a8b4E5940a716944D3E",
  "abi": [
    {
      "anonymous": false,
      "inputs": [
        {
          "indexed": true,
          "internalType": "address",
          "name": "performer",
          "type": "address"
        },
        {
          "indexed": true,
          "internalType": "bytes32",
          "name": "identifier",
          "type": "bytes32"
        },
        {
          "indexed": true,
          "internalType": "bytes32",
          "name": "exposureGroup",
          "type": "bytes32"
        },
        {
          "indexed": false,
          "internalType": "uint256",
          "name": "timestamp",
          "type": "uint256"
        }
      ],
      "name": "IdentifierToExposureGroupSet",
      "type": "event"
    },
    {
      "anonymous": false,
      "inputs": [
        {
          "indexed": true,
          "internalType": "address",
          "name": "previousOwner",
          "type": "address"
        },
        {
          "indexed": true,
          "internalType": "address",
          "name": "newOwner",
          "type": "address"
        }
      ],
      "name": "OwnershipTransferred",
      "type": "event"
    },
    {
      "anonymous": false,
      "inputs": [
        {
          "indexed": true,
          "internalType": "address",
          "name": "performer",
          "type": "address"
        },
        {
          "indexed": true,
          "internalType": "bytes32",
          "name": "poolAsset",
          "type": "bytes32"
        },
        {
          "indexed": false,
          "internalType": "address",
          "name": "poolAddress",
          "type": "address"
        },
        {
          "indexed": false,
          "internalType": "uint256",
          "name": "timestamp",
          "type": "uint256"
        }
      ],
      "name": "PoolAssetAdded",
      "type": "event"
    },
    {
      "anonymous": false,
      "inputs": [
        {
          "indexed": true,
          "internalType": "address",
          "name": "performer",
          "type": "address"
        },
        {
          "indexed": true,
          "internalType": "bytes32",
          "name": "poolAsset",
          "type": "bytes32"
        },
        {
          "indexed": false,
          "internalType": "address",
          "name": "poolAddress",
          "type": "address"
        },
        {
          "indexed": false,
          "internalType": "uint256",
          "name": "timestamp",
          "type": "uint256"
        }
      ],
      "name": "PoolAssetRemoved",
      "type": "event"
    },
    {
      "anonymous": false,
      "inputs": [
        {
          "indexed": true,
          "internalType": "address",
          "name": "performer",
          "type": "address"
        },
        {
          "indexed": true,
          "internalType": "bytes32",
          "name": "groupIdentifier",
          "type": "bytes32"
        },
        {
          "indexed": false,
          "internalType": "uint256",
          "name": "prevCurrentExposure",
          "type": "uint256"
        },
        {
          "indexed": false,
          "internalType": "uint256",
          "name": "newCurrentExposure",
          "type": "uint256"
        },
        {
          "indexed": false,
          "internalType": "uint256",
          "name": "timestamp",
          "type": "uint256"
        }
      ],
      "name": "ProtocolCurrentExposureSet",
      "type": "event"
    },
    {
      "anonymous": false,
      "inputs": [
        {
          "indexed": true,
          "internalType": "address",
          "name": "performer",
          "type": "address"
        },
        {
          "indexed": true,
          "internalType": "bytes32",
          "name": "identifier",
          "type": "bytes32"
        },
        {
          "indexed": false,
          "internalType": "uint256",
          "name": "newExposure",
          "type": "uint256"
        },
        {
          "indexed": false,
          "internalType": "uint256",
          "name": "timestamp",
          "type": "uint256"
        }
      ],
      "name": "ProtocolExposureChanged",
      "type": "event"
    },
    {
      "anonymous": false,
      "inputs": [
        {
          "indexed": true,
          "internalType": "address",
          "name": "performer",
          "type": "address"
        },
        {
          "indexed": true,
          "internalType": "bytes32",
          "name": "groupIdentifier",
          "type": "bytes32"
        },
        {
          "indexed": false,
          "internalType": "uint256",
          "name": "prevMaxExposure",
          "type": "uint256"
        },
        {
          "indexed": false,
          "internalType": "uint256",
          "name": "newMaxExposure",
          "type": "uint256"
        },
        {
          "indexed": false,
          "internalType": "uint256",
          "name": "currentExposure",
          "type": "uint256"
        },
        {
          "indexed": false,
          "internalType": "uint256",
          "name": "timestamp",
          "type": "uint256"
        }
      ],
      "name": "ProtocolExposureSet",
      "type": "event"
    },
    {
      "anonymous": false,
      "inputs": [
        {
          "indexed": true,
          "internalType": "address",
          "name": "performer",
          "type": "address"
        },
        {
          "indexed": false,
          "internalType": "address",
          "name": "assetAddress",
          "type": "address"
        },
        {
          "indexed": false,
          "internalType": "uint256",
          "name": "timestamp",
          "type": "uint256"
        }
      ],
      "name": "TokenAssetActivated",
      "type": "event"
    },
    {
      "anonymous": false,
      "inputs": [
        {
          "indexed": true,
          "internalType": "address",
          "name": "performer",
          "type": "address"
        },
        {
          "indexed": true,
          "internalType": "bytes32",
          "name": "tokenAsset",
          "type": "bytes32"
        },
        {
          "indexed": false,
          "internalType": "address",
          "name": "assetAddress",
          "type": "address"
        },
        {
          "indexed": false,
          "internalType": "uint256",
          "name": "timestamp",
          "type": "uint256"
        }
      ],
      "name": "TokenAssetAdded",
      "type": "event"
    },
    {
      "anonymous": false,
      "inputs": [
        {
          "indexed": true,
          "internalType": "address",
          "name": "performer",
          "type": "address"
        },
        {
          "indexed": false,
          "internalType": "address",
          "name": "assetAddress",
          "type": "address"
        },
        {
          "indexed": false,
          "internalType": "uint256",
          "name": "timestamp",
          "type": "uint256"
        }
      ],
      "name": "TokenAssetDeactivated",
      "type": "event"
    },
    {
      "anonymous": false,
      "inputs": [
        {
          "indexed": true,
          "internalType": "address",
          "name": "performer",
          "type": "address"
        },
        {
          "indexed": true,
          "internalType": "bytes32",
          "name": "tokenAsset",
          "type": "bytes32"
        },
        {
          "indexed": false,
          "internalType": "uint256",
          "name": "timestamp",
          "type": "uint256"
        }
      ],
      "name": "TokenAssetRemoved",
      "type": "event"
    },
    {
      "inputs": [
        {
          "internalType": "address",
          "name": "token",
          "type": "address"
        }
      ],
      "name": "activateToken",
      "outputs": [],
      "stateMutability": "nonpayable",
      "type": "function"
    },
    {
      "inputs": [
        {
          "components": [
            {
              "internalType": "bytes32",
              "name": "asset",
              "type": "bytes32"
            },
            {
              "internalType": "address",
              "name": "poolAddress",
              "type": "address"
            }
          ],
          "internalType": "struct TokenManager.poolAsset[]",
          "name": "poolAssets",
          "type": "tuple[]"
        }
      ],
      "name": "addPoolAssets",
      "outputs": [],
      "stateMutability": "nonpayable",
      "type": "function"
    },
    {
      "inputs": [
        {
          "components": [
            {
              "internalType": "bytes32",
              "name": "asset",
              "type": "bytes32"
            },
            {
              "internalType": "address",
              "name": "assetAddress",
              "type": "address"
            },
            {
              "internalType": "uint256",
              "name": "debtCoverage",
              "type": "uint256"
            }
          ],
          "internalType": "struct TokenManager.Asset[]",
          "name": "tokenAssets",
          "type": "tuple[]"
        }
      ],
      "name": "addTokenAssets",
      "outputs": [],
      "stateMutability": "nonpayable",
      "type": "function"
    },
    {
      "inputs": [
        {
          "internalType": "address",
          "name": "token",
          "type": "address"
        }
      ],
      "name": "deactivateToken",
      "outputs": [],
      "stateMutability": "nonpayable",
      "type": "function"
    },
    {
      "inputs": [
        {
          "internalType": "address",
          "name": "",
          "type": "address"
        }
      ],
      "name": "debtCoverage",
      "outputs": [
        {
          "internalType": "uint256",
          "name": "",
          "type": "uint256"
        }
      ],
      "stateMutability": "view",
      "type": "function"
    },
    {
      "inputs": [
        {
          "internalType": "bytes32",
          "name": "",
          "type": "bytes32"
        }
      ],
      "name": "debtCoverageStaked",
      "outputs": [
        {
          "internalType": "uint256",
          "name": "",
          "type": "uint256"
        }
      ],
      "stateMutability": "view",
      "type": "function"
    },
    {
      "inputs": [
        {
          "internalType": "bytes32",
          "name": "assetIdentifier",
          "type": "bytes32"
        },
        {
          "internalType": "uint256",
          "name": "exposureDecrease",
          "type": "uint256"
        }
      ],
      "name": "decreaseProtocolExposure",
      "outputs": [],
      "stateMutability": "nonpayable",
      "type": "function"
    },
    {
      "inputs": [],
      "name": "getAllPoolAssets",
      "outputs": [
        {
          "internalType": "bytes32[]",
          "name": "result",
          "type": "bytes32[]"
        }
      ],
      "stateMutability": "view",
      "type": "function"
    },
    {
      "inputs": [],
      "name": "getAllTokenAssets",
      "outputs": [
        {
          "internalType": "bytes32[]",
          "name": "result",
          "type": "bytes32[]"
        }
      ],
      "stateMutability": "view",
      "type": "function"
    },
    {
      "inputs": [
        {
          "internalType": "bytes32",
          "name": "_asset",
          "type": "bytes32"
        },
        {
          "internalType": "bool",
          "name": "allowInactive",
          "type": "bool"
        }
      ],
      "name": "getAssetAddress",
      "outputs": [
        {
          "internalType": "address",
          "name": "",
          "type": "address"
        }
      ],
      "stateMutability": "view",
      "type": "function"
    },
    {
      "inputs": [
        {
          "internalType": "bytes32",
          "name": "_asset",
          "type": "bytes32"
        }
      ],
      "name": "getPoolAddress",
      "outputs": [
        {
          "internalType": "address",
          "name": "",
          "type": "address"
        }
      ],
      "stateMutability": "view",
      "type": "function"
    },
    {
      "inputs": [],
      "name": "getSmartLoansFactoryAddress",
      "outputs": [
        {
          "internalType": "address",
          "name": "",
          "type": "address"
        }
      ],
      "stateMutability": "view",
      "type": "function"
    },
    {
      "inputs": [],
      "name": "getSupportedTokensAddresses",
      "outputs": [
        {
          "internalType": "address[]",
          "name": "",
          "type": "address[]"
        }
      ],
      "stateMutability": "view",
      "type": "function"
    },
    {
      "inputs": [
        {
          "internalType": "bytes32",
          "name": "",
          "type": "bytes32"
        }
      ],
      "name": "groupToExposure",
      "outputs": [
        {
          "internalType": "uint256",
          "name": "current",
          "type": "uint256"
        },
        {
          "internalType": "uint256",
          "name": "max",
          "type": "uint256"
        }
      ],
      "stateMutability": "view",
      "type": "function"
    },
    {
      "inputs": [
        {
          "internalType": "bytes32",
          "name": "",
          "type": "bytes32"
        }
      ],
      "name": "identifierToExposureGroup",
      "outputs": [
        {
          "internalType": "bytes32",
          "name": "",
          "type": "bytes32"
        }
      ],
      "stateMutability": "view",
      "type": "function"
    },
    {
      "inputs": [
        {
          "internalType": "bytes32",
          "name": "assetIdentifier",
          "type": "bytes32"
        },
        {
          "internalType": "uint256",
          "name": "exposureIncrease",
          "type": "uint256"
        }
      ],
      "name": "increaseProtocolExposure",
      "outputs": [],
      "stateMutability": "nonpayable",
      "type": "function"
    },
    {
      "inputs": [
        {
          "components": [
            {
              "internalType": "bytes32",
              "name": "asset",
              "type": "bytes32"
            },
            {
              "internalType": "address",
              "name": "assetAddress",
              "type": "address"
            },
            {
              "internalType": "uint256",
              "name": "debtCoverage",
              "type": "uint256"
            }
          ],
          "internalType": "struct TokenManager.Asset[]",
          "name": "tokenAssets",
          "type": "tuple[]"
        },
        {
          "components": [
            {
              "internalType": "bytes32",
              "name": "asset",
              "type": "bytes32"
            },
            {
              "internalType": "address",
              "name": "poolAddress",
              "type": "address"
            }
          ],
          "internalType": "struct TokenManager.poolAsset[]",
          "name": "poolAssets",
          "type": "tuple[]"
        }
      ],
      "name": "initialize",
      "outputs": [],
      "stateMutability": "nonpayable",
      "type": "function"
    },
    {
      "inputs": [
        {
          "internalType": "address",
          "name": "token",
          "type": "address"
        }
      ],
      "name": "isTokenAssetActive",
      "outputs": [
        {
          "internalType": "bool",
          "name": "",
          "type": "bool"
        }
      ],
      "stateMutability": "view",
      "type": "function"
    },
    {
      "inputs": [],
      "name": "owner",
      "outputs": [
        {
          "internalType": "address",
          "name": "",
          "type": "address"
        }
      ],
      "stateMutability": "view",
      "type": "function"
    },
    {
      "inputs": [
        {
          "internalType": "bytes32[]",
          "name": "_poolAssets",
          "type": "bytes32[]"
        }
      ],
      "name": "removePoolAssets",
      "outputs": [],
      "stateMutability": "nonpayable",
      "type": "function"
    },
    {
      "inputs": [
        {
          "internalType": "bytes32[]",
          "name": "_tokenAssets",
          "type": "bytes32[]"
        }
      ],
      "name": "removeTokenAssets",
      "outputs": [],
      "stateMutability": "nonpayable",
      "type": "function"
    },
    {
      "inputs": [],
      "name": "renounceOwnership",
      "outputs": [],
      "stateMutability": "nonpayable",
      "type": "function"
    },
    {
      "inputs": [
        {
          "internalType": "bytes32[]",
          "name": "groupIdentifiers",
          "type": "bytes32[]"
        },
        {
          "internalType": "uint256[]",
          "name": "currentExposures",
          "type": "uint256[]"
        }
      ],
      "name": "setCurrentProtocolExposure",
      "outputs": [],
      "stateMutability": "nonpayable",
      "type": "function"
    },
    {
      "inputs": [
        {
          "internalType": "address",
          "name": "token",
          "type": "address"
        },
        {
          "internalType": "uint256",
          "name": "coverage",
          "type": "uint256"
        }
      ],
      "name": "setDebtCoverage",
      "outputs": [],
      "stateMutability": "nonpayable",
      "type": "function"
    },
    {
      "inputs": [
        {
          "internalType": "bytes32",
          "name": "stakedAsset",
          "type": "bytes32"
        },
        {
          "internalType": "uint256",
          "name": "coverage",
          "type": "uint256"
        }
      ],
      "name": "setDebtCoverageStaked",
      "outputs": [],
      "stateMutability": "nonpayable",
      "type": "function"
    },
    {
      "inputs": [
        {
          "internalType": "bytes32[]",
          "name": "identifiers",
          "type": "bytes32[]"
        },
        {
          "internalType": "bytes32[]",
          "name": "exposureGroups",
          "type": "bytes32[]"
        }
      ],
      "name": "setIdentifiersToExposureGroups",
      "outputs": [],
      "stateMutability": "nonpayable",
      "type": "function"
    },
    {
      "inputs": [
        {
          "internalType": "bytes32[]",
          "name": "groupIdentifiers",
          "type": "bytes32[]"
        },
        {
          "internalType": "uint256[]",
          "name": "maxExposures",
          "type": "uint256[]"
        }
      ],
      "name": "setMaxProtocolsExposure",
      "outputs": [],
      "stateMutability": "nonpayable",
      "type": "function"
    },
    {
      "inputs": [
        {
          "internalType": "uint256",
          "name": "",
          "type": "uint256"
        }
      ],
      "name": "supportedTokensList",
      "outputs": [
        {
          "internalType": "address",
          "name": "",
          "type": "address"
        }
      ],
      "stateMutability": "view",
      "type": "function"
    },
    {
      "inputs": [
        {
          "internalType": "address",
          "name": "",
          "type": "address"
        }
      ],
      "name": "tokenAddressToSymbol",
      "outputs": [
        {
          "internalType": "bytes32",
          "name": "",
          "type": "bytes32"
        }
      ],
      "stateMutability": "view",
      "type": "function"
    },
    {
      "inputs": [
        {
          "internalType": "address",
          "name": "",
          "type": "address"
        }
      ],
      "name": "tokenToStatus",
      "outputs": [
        {
          "internalType": "uint256",
          "name": "",
          "type": "uint256"
        }
      ],
      "stateMutability": "view",
      "type": "function"
    },
    {
      "inputs": [
        {
          "internalType": "address",
          "name": "newOwner",
          "type": "address"
        }
      ],
      "name": "transferOwnership",
      "outputs": [],
      "stateMutability": "nonpayable",
      "type": "function"
    }
  ],
  "transactionHash": "0x60a958ece47b193dd071d8885636d1d4984973886034157210c5bec6bb219eb5",
  "args": [],
  "numDeployments": 5,
  "solcInputHash": "dac2b741da789272d0421b53d011d1aa",
  "bytecode": "0x608060405234801561001057600080fd5b506142b2806100206000396000f3fe608060405234801561001057600080fd5b50600436106101e55760003560e01c8063762b887a1161010f578063d1bc0831116100a2578063f38555aa11610071578063f38555aa14610576578063f823f1e014610592578063fda4963b146105c2578063fff3d39a146105de576101e5565b8063d1bc0831146104f2578063e0117bdd1461050e578063ecfc19a01461053e578063f2fde38b1461055a576101e5565b8063a2d27933116100de578063a2d2793314610482578063adfe6a0f1461049e578063c3cc6c7a146104ba578063d195f047146104d6576101e5565b8063762b887a1461040e578063869c490d1461042a5780638ce76c05146104485780638da5cb5b14610464576101e5565b8063326c2e971161018757806366273c191161015657806366273c191461039a57806368173bcf146103b85780636953c06c146103d4578063715018a614610404576101e5565b8063326c2e97146102da57806335923e031461030a5780633f8ef5c81461033a57806363c918771461036a576101e5565b806321f88097116101c357806321f880971461025257806325eb876f146102705780632caeffe2146102a057806331e7866c146102be576101e5565b806303223bb4146101ea5780630d1ce2d2146102065780630edc25b614610222575b600080fd5b61020460048036038101906101ff9190612d50565b61060f565b005b610220600480360381019061021b9190612e26565b6107c3565b005b61023c60048036038101906102379190612e53565b610959565b6040516102499190612e8f565b60405180910390f35b61025a6109eb565b6040516102679190612f68565b60405180910390f35b61028a60048036038101906102859190612fc2565b610a79565b6040516102979190612e8f565b60405180910390f35b6102a8610b94565b6040516102b59190612e8f565b60405180910390f35b6102d860048036038101906102d39190613038565b610bb0565b005b6102f460048036038101906102ef9190612e53565b610cbf565b6040516103019190613087565b60405180910390f35b610324600480360381019061031f9190612e26565b610cd7565b60405161033191906130b1565b60405180910390f35b610354600480360381019061034f9190612e53565b610d23565b60405161036191906130db565b60405180910390f35b610384600480360381019061037f91906130f6565b610d3b565b6040516103919190612e8f565b60405180910390f35b6103a2610d7a565b6040516103af91906131e1565b60405180910390f35b6103d260048036038101906103cd9190612e26565b610dde565b005b6103ee60048036038101906103e99190612e26565b610f74565b6040516103fb91906130db565b60405180910390f35b61040c610f8c565b005b61042860048036038101906104239190613442565b610f8e565b005b61043261108e565b60405161043f91906131e1565b60405180910390f35b610462600480360381019061045d919061357d565b6110f2565b005b61046c611214565b6040516104799190612e8f565b60405180910390f35b61049c600480360381019061049791906135f5565b61123e565b005b6104b860048036038101906104b3919061363e565b611342565b005b6104d460048036038101906104cf919061363e565b611514565b005b6104f060048036038101906104eb919061357d565b611720565b005b61050c6004803603810190610507919061367e565b611842565b005b61052860048036038101906105239190612e26565b611904565b60405161053591906130db565b60405180910390f35b6105586004803603810190610553919061363e565b61191c565b005b610574600480360381019061056f9190612e26565b6119ff565b005b610590600480360381019061058b91906136c7565b611af6565b005b6105ac60048036038101906105a79190612e26565b611bdb565b6040516105b99190613087565b60405180910390f35b6105dc60048036038101906105d7919061367e565b611bf3565b005b6105f860048036038101906105f39190612e53565b611cb5565b604051610606929190613710565b60405180910390f35b610617611cd9565b73ffffffffffffffffffffffffffffffffffffffff16610635611214565b73ffffffffffffffffffffffffffffffffffffffff161461068b576040517f08c379a000000000000000000000000000000000000000000000000000000000815260040161068290613796565b60405180910390fd5b80518251146106cf576040517f08c379a00000000000000000000000000000000000000000000000000000000081526004016106c690613802565b60405180910390fd5b60005b82518110156107be578181815181106106ee576106ed613822565b5b60200260200101516071600085848151811061070d5761070c613822565b5b602002602001015181526020019081526020016000208190555081818151811061073a57610739613822565b5b602002602001015183828151811061075557610754613822565b5b60200260200101513373ffffffffffffffffffffffffffffffffffffffff167f6185e65460908e4de770553685b03f20921bc24a081923fc2ca1f0ba7d18cd5f426040516107a391906130db565b60405180910390a480806107b690613880565b9150506106d2565b505050565b6107cb611cd9565b73ffffffffffffffffffffffffffffffffffffffff166107e9611214565b73ffffffffffffffffffffffffffffffffffffffff161461083f576040517f08c379a000000000000000000000000000000000000000000000000000000000815260040161083690613796565b60405180910390fd5b6001606f60008373ffffffffffffffffffffffffffffffffffffffff1673ffffffffffffffffffffffffffffffffffffffff16815260200190815260200160002054146108c1576040517f08c379a00000000000000000000000000000000000000000000000000000000081526004016108b890613914565b60405180910390fd5b6002606f60008373ffffffffffffffffffffffffffffffffffffffff1673ffffffffffffffffffffffffffffffffffffffff168152602001908152602001600020819055503373ffffffffffffffffffffffffffffffffffffffff167febd9f0d5b5df9f4d5180bbeec65fda8d99982e273d2a7365431b2a869aa826d4824260405161094e929190613934565b60405180910390a250565b600080610970836065611ce190919063ffffffff16565b915050600073ffffffffffffffffffffffffffffffffffffffff168173ffffffffffffffffffffffffffffffffffffffff16036109e2576040517f08c379a00000000000000000000000000000000000000000000000000000000081526004016109d9906139a9565b60405180910390fd5b80915050919050565b6060606e805480602002602001604051908101604052809291908181526020018280548015610a6f57602002820191906000526020600020905b8160009054906101000a900473ffffffffffffffffffffffffffffffffffffffff1673ffffffffffffffffffffffffffffffffffffffff1681526020019060010190808311610a25575b5050505050905090565b600080610a90846068611ce190919063ffffffff16565b915050600073ffffffffffffffffffffffffffffffffffffffff168173ffffffffffffffffffffffffffffffffffffffff1603610b02576040517f08c379a0000000000000000000000000000000000000000000000000000000008152600401610af990613a15565b60405180910390fd5b82610b8a576002606f60008373ffffffffffffffffffffffffffffffffffffffff1673ffffffffffffffffffffffffffffffffffffffff1681526020019081526020016000205414610b89576040517f08c379a0000000000000000000000000000000000000000000000000000000008152600401610b8090613a81565b60405180910390fd5b5b8091505092915050565b6000733ea9d480295a73fd2af95b4d96c2aff88b21b03d905090565b610bb8611cd9565b73ffffffffffffffffffffffffffffffffffffffff16610bd6611214565b73ffffffffffffffffffffffffffffffffffffffff1614610c2c576040517f08c379a0000000000000000000000000000000000000000000000000000000008152600401610c2390613796565b60405180910390fd5b670b90984060d35555811115610c77576040517f08c379a0000000000000000000000000000000000000000000000000000000008152600401610c6e90613b13565b60405180910390fd5b80606d60008473ffffffffffffffffffffffffffffffffffffffff1673ffffffffffffffffffffffffffffffffffffffff168152602001908152602001600020819055505050565b60716020528060005260406000206000915090505481565b60006002606f60008473ffffffffffffffffffffffffffffffffffffffff1673ffffffffffffffffffffffffffffffffffffffff16815260200190815260200160002054149050919050565b60706020528060005260406000206000915090505481565b606e8181548110610d4b57600080fd5b906000526020600020016000915054906101000a900473ffffffffffffffffffffffffffffffffffffffff1681565b60606065600001600001600001600001805480602002602001604051908101604052809291908181526020018280548015610dd457602002820191906000526020600020905b815481526020019060010190808311610dc0575b5050505050905090565b610de6611cd9565b73ffffffffffffffffffffffffffffffffffffffff16610e04611214565b73ffffffffffffffffffffffffffffffffffffffff1614610e5a576040517f08c379a0000000000000000000000000000000000000000000000000000000008152600401610e5190613796565b60405180910390fd5b6002606f60008373ffffffffffffffffffffffffffffffffffffffff1673ffffffffffffffffffffffffffffffffffffffff1681526020019081526020016000205414610edc576040517f08c379a0000000000000000000000000000000000000000000000000000000008152600401610ed390613b7f565b60405180910390fd5b6001606f60008373ffffffffffffffffffffffffffffffffffffffff1673ffffffffffffffffffffffffffffffffffffffff168152602001908152602001600020819055503373ffffffffffffffffffffffffffffffffffffffff167fbf0b0e2d837fddaee4742e91f53ca36bac9fdebdd571738027abb2b5f7c9a2f08242604051610f69929190613934565b60405180910390a250565b606d6020528060005260406000206000915090505481565b565b600060019054906101000a900460ff16610fb65760008054906101000a900460ff1615610fbf565b610fbe611d0a565b5b610ffe576040517f08c379a0000000000000000000000000000000000000000000000000000000008152600401610ff590613c11565b60405180910390fd5b60008060019054906101000a900460ff16159050801561104e576001600060016101000a81548160ff02191690831515021790555060016000806101000a81548160ff0219169083151502179055505b611056611d1b565b61105f8361123e565b61106882611af6565b80156110895760008060016101000a81548160ff0219169083151502179055505b505050565b606060686000016000016000016000018054806020026020016040519081016040528092919081815260200182805480156110e857602002820191906000526020600020905b8154815260200190600101908083116110d4575b5050505050905090565b6110fa611cd9565b73ffffffffffffffffffffffffffffffffffffffff16611118611214565b73ffffffffffffffffffffffffffffffffffffffff161461116e576040517f08c379a000000000000000000000000000000000000000000000000000000000815260040161116590613796565b60405180910390fd5b80518251146111b2576040517f08c379a00000000000000000000000000000000000000000000000000000000081526004016111a990613802565b60405180910390fd5b60005b825181101561120f576111fc8382815181106111d4576111d3613822565b5b60200260200101518383815181106111ef576111ee613822565b5b6020026020010151611d74565b808061120790613880565b9150506111b5565b505050565b6000603360009054906101000a900473ffffffffffffffffffffffffffffffffffffffff16905090565b611246611cd9565b73ffffffffffffffffffffffffffffffffffffffff16611264611214565b73ffffffffffffffffffffffffffffffffffffffff16146112ba576040517f08c379a00000000000000000000000000000000000000000000000000000000081526004016112b190613796565b60405180910390fd5b60005b815181101561133e5761132b8282815181106112dc576112db613822565b5b6020026020010151600001518383815181106112fb576112fa613822565b5b60200260200101516020015184848151811061131a57611319613822565b5b602002602001015160400151611e45565b808061133690613880565b9150506112bd565b5050565b600061134c610b94565b90508073ffffffffffffffffffffffffffffffffffffffff16630e7fc864336040518263ffffffff1660e01b81526004016113879190612e8f565b602060405180830381865afa1580156113a4573d6000803e3d6000fd5b505050506040513d601f19601f820116820180604052508101906113c89190613c46565b8061140c57506113d6611cd9565b73ffffffffffffffffffffffffffffffffffffffff166113f4611214565b73ffffffffffffffffffffffffffffffffffffffff16145b61144b576040517f08c379a000000000000000000000000000000000000000000000000000000000815260040161144290613ce5565b60405180910390fd5b6000607160008581526020019081526020016000205490506000811461150e576000607260008381526020019081526020016000209050600081600101541461150c5783816000015411156114af578381600001546114aa9190613d05565b6114b2565b60005b8160000181905550813373ffffffffffffffffffffffffffffffffffffffff167f45262a952f63661e3b881eb82a0d0bd391ab35692bd26023356b06e452230d438642604051611503929190613710565b60405180910390a35b505b50505050565b600061151e610b94565b90508073ffffffffffffffffffffffffffffffffffffffff16630e7fc864336040518263ffffffff1660e01b81526004016115599190612e8f565b602060405180830381865afa158015611576573d6000803e3d6000fd5b505050506040513d601f19601f8201168201806040525081019061159a9190613c46565b806115de57506115a8611cd9565b73ffffffffffffffffffffffffffffffffffffffff166115c6611214565b73ffffffffffffffffffffffffffffffffffffffff16145b61161d576040517f08c379a000000000000000000000000000000000000000000000000000000000815260040161161490613ce5565b60405180910390fd5b6000607160008581526020019081526020016000205490506000811461171a576000607260008381526020019081526020016000209050600081600101541461171857838160000160008282546116749190613d39565b925050819055508060010154816000015411156116c6576040517f08c379a00000000000000000000000000000000000000000000000000000000081526004016116bd90613db9565b60405180910390fd5b813373ffffffffffffffffffffffffffffffffffffffff167f45262a952f63661e3b881eb82a0d0bd391ab35692bd26023356b06e452230d43864260405161170f929190613710565b60405180910390a35b505b50505050565b611728611cd9565b73ffffffffffffffffffffffffffffffffffffffff16611746611214565b73ffffffffffffffffffffffffffffffffffffffff161461179c576040517f08c379a000000000000000000000000000000000000000000000000000000000815260040161179390613796565b60405180910390fd5b80518251146117e0576040517f08c379a00000000000000000000000000000000000000000000000000000000081526004016117d790613802565b60405180910390fd5b60005b825181101561183d5761182a83828151811061180257611801613822565b5b602002602001015183838151811061181d5761181c613822565b5b6020026020010151612187565b808061183590613880565b9150506117e3565b505050565b61184a611cd9565b73ffffffffffffffffffffffffffffffffffffffff16611868611214565b73ffffffffffffffffffffffffffffffffffffffff16146118be576040517f08c379a00000000000000000000000000000000000000000000000000000000081526004016118b590613796565b60405180910390fd5b60005b8151811015611900576118ed8282815181106118e0576118df613822565b5b6020026020010151612270565b80806118f890613880565b9150506118c1565b5050565b606f6020528060005260406000206000915090505481565b611924611cd9565b73ffffffffffffffffffffffffffffffffffffffff16611942611214565b73ffffffffffffffffffffffffffffffffffffffff1614611998576040517f08c379a000000000000000000000000000000000000000000000000000000000815260040161198f90613796565b60405180910390fd5b670b90984060d355558111156119e3576040517f08c379a00000000000000000000000000000000000000000000000000000000081526004016119da90613b13565b60405180910390fd5b8060706000848152602001908152602001600020819055505050565b611a07611cd9565b73ffffffffffffffffffffffffffffffffffffffff16611a25611214565b73ffffffffffffffffffffffffffffffffffffffff1614611a7b576040517f08c379a0000000000000000000000000000000000000000000000000000000008152600401611a7290613796565b60405180910390fd5b600073ffffffffffffffffffffffffffffffffffffffff168173ffffffffffffffffffffffffffffffffffffffff1603611aea576040517f08c379a0000000000000000000000000000000000000000000000000000000008152600401611ae190613e4b565b60405180910390fd5b611af3816123b8565b50565b611afe611cd9565b73ffffffffffffffffffffffffffffffffffffffff16611b1c611214565b73ffffffffffffffffffffffffffffffffffffffff1614611b72576040517f08c379a0000000000000000000000000000000000000000000000000000000008152600401611b6990613796565b60405180910390fd5b60005b8151811015611bd757611bc4828281518110611b9457611b93613822565b5b602002602001015160000151838381518110611bb357611bb2613822565b5b60200260200101516020015161247e565b8080611bcf90613880565b915050611b75565b5050565b606b6020528060005260406000206000915090505481565b611bfb611cd9565b73ffffffffffffffffffffffffffffffffffffffff16611c19611214565b73ffffffffffffffffffffffffffffffffffffffff1614611c6f576040517f08c379a0000000000000000000000000000000000000000000000000000000008152600401611c6690613796565b60405180910390fd5b60005b8151811015611cb157611c9e828281518110611c9157611c90613822565b5b6020026020010151612586565b8080611ca990613880565b915050611c72565b5050565b60726020528060005260406000206000915090508060000154908060010154905082565b600033905090565b600080600080611cf486600001866125f4565b91509150818160001c9350935050509250929050565b6000611d1530612643565b15905090565b600060019054906101000a900460ff16611d6a576040517f08c379a0000000000000000000000000000000000000000000000000000000008152600401611d6190613edd565b60405180910390fd5b611d72612666565b565b60008203611db7576040517f08c379a0000000000000000000000000000000000000000000000000000000008152600401611dae90613f6f565b60405180910390fd5b600060726000848152602001908152602001600020600001549050816072600085815260200190815260200160002060000181905550823373ffffffffffffffffffffffffffffffffffffffff167f073dc16e9ad72465ac9c9d5249ac0b1ba512ca440e461ff67a34c38e29c3413e838542604051611e3893929190613f8f565b60405180910390a3505050565b60008303611e88576040517f08c379a0000000000000000000000000000000000000000000000000000000008152600401611e7f90613f6f565b60405180910390fd5b600073ffffffffffffffffffffffffffffffffffffffff168273ffffffffffffffffffffffffffffffffffffffff1603611ef7576040517f08c379a0000000000000000000000000000000000000000000000000000000008152600401611eee90614012565b60405180910390fd5b611f0b8360686126c790919063ffffffff16565b15611f4b576040517f08c379a0000000000000000000000000000000000000000000000000000000008152600401611f429061407e565b60405180910390fd5b6000801b606b60008473ffffffffffffffffffffffffffffffffffffffff1673ffffffffffffffffffffffffffffffffffffffff1681526020019081526020016000205414611fcf576040517f08c379a0000000000000000000000000000000000000000000000000000000008152600401611fc6906140ea565b60405180910390fd5b611fd98282610bb0565b611fef838360686126de9092919063ffffffff16565b5082606b60008473ffffffffffffffffffffffffffffffffffffffff1673ffffffffffffffffffffffffffffffffffffffff168152602001908152602001600020819055506002606f60008473ffffffffffffffffffffffffffffffffffffffff1673ffffffffffffffffffffffffffffffffffffffff16815260200190815260200160002081905550606e829080600181540180825580915050600190039060005260206000200160009091909190916101000a81548173ffffffffffffffffffffffffffffffffffffffff021916908373ffffffffffffffffffffffffffffffffffffffff1602179055506001606e805490506120ee9190613d05565b606c60008473ffffffffffffffffffffffffffffffffffffffff1673ffffffffffffffffffffffffffffffffffffffff16815260200190815260200160002081905550823373ffffffffffffffffffffffffffffffffffffffff167ff73be6b27198eab18ec5fe07c2d7b2fbf4f05ffa1a05c94ca202531d7aa8c5b6844260405161217a929190613934565b60405180910390a3505050565b600082036121ca576040517f08c379a00000000000000000000000000000000000000000000000000000000081526004016121c190613f6f565b60405180910390fd5b600060726000848152602001908152602001600020600101549050816072600085815260200190815260200160002060010181905550823373ffffffffffffffffffffffffffffffffffffffff167f4e3db1a563ebfee7c496974d792038536dc8311892551dc36d19116131e3dd3c8385607260008981526020019081526020016000206000015442604051612263949392919061410a565b60405180910390a3505050565b600061227d826001610a79565b905061228a606883612710565b506000801b606b60008373ffffffffffffffffffffffffffffffffffffffff1673ffffffffffffffffffffffffffffffffffffffff168152602001908152602001600020819055506000606f60008373ffffffffffffffffffffffffffffffffffffffff1673ffffffffffffffffffffffffffffffffffffffff168152602001908152602001600020819055506000606d60008373ffffffffffffffffffffffffffffffffffffffff1673ffffffffffffffffffffffffffffffffffffffff1681526020019081526020016000208190555061236581612727565b813373ffffffffffffffffffffffffffffffffffffffff167f228e158b51be6445b7bd2f4121209717a371d44c7c53d4085ae7f5e496153a93426040516123ac91906130db565b60405180910390a35050565b6000603360009054906101000a900473ffffffffffffffffffffffffffffffffffffffff16905081603360006101000a81548173ffffffffffffffffffffffffffffffffffffffff021916908373ffffffffffffffffffffffffffffffffffffffff1602179055508173ffffffffffffffffffffffffffffffffffffffff168173ffffffffffffffffffffffffffffffffffffffff167f8be0079c531659141344cd1fd0a4f28419497f9722a3daafe3b4186f6b6457e060405160405180910390a35050565b6124878161290a565b6124c6576040517f08c379a00000000000000000000000000000000000000000000000000000000081526004016124bd906141c1565b60405180910390fd5b6124da8260656126c790919063ffffffff16565b1561251a576040517f08c379a00000000000000000000000000000000000000000000000000000000081526004016125119061422d565b60405180910390fd5b612530828260656126de9092919063ffffffff16565b50813373ffffffffffffffffffffffffffffffffffffffff167fcfbf9a4f33420379df003923a1d986358bb97d4b3455baae186db1d5d35cda3e834260405161257a929190613934565b60405180910390a35050565b600061259182610959565b905061259e606583612710565b50813373ffffffffffffffffffffffffffffffffffffffff167ff658b7b16fbc2f0f51a3320cc57763ccd8d13f554c4eb34ff0f5b49624b32e8383426040516125e8929190613934565b60405180910390a35050565b60008060008460020160008581526020019081526020016000205490506000801b810361263357612625858561292d565b6000801b925092505061263c565b60018192509250505b9250929050565b6000808273ffffffffffffffffffffffffffffffffffffffff163b119050919050565b600060019054906101000a900460ff166126b5576040517f08c379a00000000000000000000000000000000000000000000000000000000081526004016126ac90613edd565b60405180910390fd5b6126c56126c0611cd9565b6123b8565b565b60006126d6836000018361292d565b905092915050565b600061270784600001848473ffffffffffffffffffffffffffffffffffffffff1660001b61294d565b90509392505050565b600061271f8360000183612988565b905092915050565b6000606c60008373ffffffffffffffffffffffffffffffffffffffff1673ffffffffffffffffffffffffffffffffffffffff1681526020019081526020016000205490506001606e8054905061277d9190613d05565b811461287a576000606e6001606e805490506127999190613d05565b815481106127aa576127a9613822565b5b9060005260206000200160009054906101000a900473ffffffffffffffffffffffffffffffffffffffff16905081606c60008373ffffffffffffffffffffffffffffffffffffffff1673ffffffffffffffffffffffffffffffffffffffff1681526020019081526020016000208190555080606e83815481106128305761282f613822565b5b9060005260206000200160006101000a81548173ffffffffffffffffffffffffffffffffffffffff021916908373ffffffffffffffffffffffffffffffffffffffff160217905550505b606e80548061288c5761288b61424d565b5b6001900381819060005260206000200160006101000a81549073ffffffffffffffffffffffffffffffffffffffff021916905590556000606c60008473ffffffffffffffffffffffffffffffffffffffff1673ffffffffffffffffffffffffffffffffffffffff168152602001908152602001600020819055505050565b6000808273ffffffffffffffffffffffffffffffffffffffff163b119050919050565b600061294582846000016129c190919063ffffffff16565b905092915050565b6000818460020160008581526020019081526020016000208190555061297f83856000016129d890919063ffffffff16565b90509392505050565b6000826002016000838152602001908152602001600020600090556129b982846000016129ef90919063ffffffff16565b905092915050565b60006129d08360000183612a06565b905092915050565b60006129e78360000183612a29565b905092915050565b60006129fe8360000183612a99565b905092915050565b600080836001016000848152602001908152602001600020541415905092915050565b6000612a358383612a06565b612a8e578260000182908060018154018082558091505060019003906000526020600020016000909190919091505582600001805490508360010160008481526020019081526020016000208190555060019050612a93565b600090505b92915050565b60008083600101600084815260200190815260200160002054905060008114612ba1576000600182612acb9190613d05565b9050600060018660000180549050612ae39190613d05565b9050818114612b52576000866000018281548110612b0457612b03613822565b5b9060005260206000200154905080876000018481548110612b2857612b27613822565b5b90600052602060002001819055508387600101600083815260200190815260200160002081905550505b85600001805480612b6657612b6561424d565b5b600190038181906000526020600020016000905590558560010160008681526020019081526020016000206000905560019350505050612ba7565b60009150505b92915050565b6000604051905090565b600080fd5b600080fd5b600080fd5b6000601f19601f8301169050919050565b7f4e487b7100000000000000000000000000000000000000000000000000000000600052604160045260246000fd5b612c0f82612bc6565b810181811067ffffffffffffffff82111715612c2e57612c2d612bd7565b5b80604052505050565b6000612c41612bad565b9050612c4d8282612c06565b919050565b600067ffffffffffffffff821115612c6d57612c6c612bd7565b5b602082029050602081019050919050565b600080fd5b6000819050919050565b612c9681612c83565b8114612ca157600080fd5b50565b600081359050612cb381612c8d565b92915050565b6000612ccc612cc784612c52565b612c37565b90508083825260208201905060208402830185811115612cef57612cee612c7e565b5b835b81811015612d185780612d048882612ca4565b845260208401935050602081019050612cf1565b5050509392505050565b600082601f830112612d3757612d36612bc1565b5b8135612d47848260208601612cb9565b91505092915050565b60008060408385031215612d6757612d66612bb7565b5b600083013567ffffffffffffffff811115612d8557612d84612bbc565b5b612d9185828601612d22565b925050602083013567ffffffffffffffff811115612db257612db1612bbc565b5b612dbe85828601612d22565b9150509250929050565b600073ffffffffffffffffffffffffffffffffffffffff82169050919050565b6000612df382612dc8565b9050919050565b612e0381612de8565b8114612e0e57600080fd5b50565b600081359050612e2081612dfa565b92915050565b600060208284031215612e3c57612e3b612bb7565b5b6000612e4a84828501612e11565b91505092915050565b600060208284031215612e6957612e68612bb7565b5b6000612e7784828501612ca4565b91505092915050565b612e8981612de8565b82525050565b6000602082019050612ea46000830184612e80565b92915050565b600081519050919050565b600082825260208201905092915050565b6000819050602082019050919050565b612edf81612de8565b82525050565b6000612ef18383612ed6565b60208301905092915050565b6000602082019050919050565b6000612f1582612eaa565b612f1f8185612eb5565b9350612f2a83612ec6565b8060005b83811015612f5b578151612f428882612ee5565b9750612f4d83612efd565b925050600181019050612f2e565b5085935050505092915050565b60006020820190508181036000830152612f828184612f0a565b905092915050565b60008115159050919050565b612f9f81612f8a565b8114612faa57600080fd5b50565b600081359050612fbc81612f96565b92915050565b60008060408385031215612fd957612fd8612bb7565b5b6000612fe785828601612ca4565b9250506020612ff885828601612fad565b9150509250929050565b6000819050919050565b61301581613002565b811461302057600080fd5b50565b6000813590506130328161300c565b92915050565b6000806040838503121561304f5761304e612bb7565b5b600061305d85828601612e11565b925050602061306e85828601613023565b9150509250929050565b61308181612c83565b82525050565b600060208201905061309c6000830184613078565b92915050565b6130ab81612f8a565b82525050565b60006020820190506130c660008301846130a2565b92915050565b6130d581613002565b82525050565b60006020820190506130f060008301846130cc565b92915050565b60006020828403121561310c5761310b612bb7565b5b600061311a84828501613023565b91505092915050565b600081519050919050565b600082825260208201905092915050565b6000819050602082019050919050565b61315881612c83565b82525050565b600061316a838361314f565b60208301905092915050565b6000602082019050919050565b600061318e82613123565b613198818561312e565b93506131a38361313f565b8060005b838110156131d45781516131bb888261315e565b97506131c683613176565b9250506001810190506131a7565b5085935050505092915050565b600060208201905081810360008301526131fb8184613183565b905092915050565b600067ffffffffffffffff82111561321e5761321d612bd7565b5b602082029050602081019050919050565b600080fd5b60006060828403121561324a5761324961322f565b5b6132546060612c37565b9050600061326484828501612ca4565b600083015250602061327884828501612e11565b602083015250604061328c84828501613023565b60408301525092915050565b60006132ab6132a684613203565b612c37565b905080838252602082019050606084028301858111156132ce576132cd612c7e565b5b835b818110156132f757806132e38882613234565b8452602084019350506060810190506132d0565b5050509392505050565b600082601f83011261331657613315612bc1565b5b8135613326848260208601613298565b91505092915050565b600067ffffffffffffffff82111561334a57613349612bd7565b5b602082029050602081019050919050565b6000604082840312156133715761337061322f565b5b61337b6040612c37565b9050600061338b84828501612ca4565b600083015250602061339f84828501612e11565b60208301525092915050565b60006133be6133b98461332f565b612c37565b905080838252602082019050604084028301858111156133e1576133e0612c7e565b5b835b8181101561340a57806133f6888261335b565b8452602084019350506040810190506133e3565b5050509392505050565b600082601f83011261342957613428612bc1565b5b81356134398482602086016133ab565b91505092915050565b6000806040838503121561345957613458612bb7565b5b600083013567ffffffffffffffff81111561347757613476612bbc565b5b61348385828601613301565b925050602083013567ffffffffffffffff8111156134a4576134a3612bbc565b5b6134b085828601613414565b9150509250929050565b600067ffffffffffffffff8211156134d5576134d4612bd7565b5b602082029050602081019050919050565b60006134f96134f4846134ba565b612c37565b9050808382526020820190506020840283018581111561351c5761351b612c7e565b5b835b8181101561354557806135318882613023565b84526020840193505060208101905061351e565b5050509392505050565b600082601f83011261356457613563612bc1565b5b81356135748482602086016134e6565b91505092915050565b6000806040838503121561359457613593612bb7565b5b600083013567ffffffffffffffff8111156135b2576135b1612bbc565b5b6135be85828601612d22565b925050602083013567ffffffffffffffff8111156135df576135de612bbc565b5b6135eb8582860161354f565b9150509250929050565b60006020828403121561360b5761360a612bb7565b5b600082013567ffffffffffffffff81111561362957613628612bbc565b5b61363584828501613301565b91505092915050565b6000806040838503121561365557613654612bb7565b5b600061366385828601612ca4565b925050602061367485828601613023565b9150509250929050565b60006020828403121561369457613693612bb7565b5b600082013567ffffffffffffffff8111156136b2576136b1612bbc565b5b6136be84828501612d22565b91505092915050565b6000602082840312156136dd576136dc612bb7565b5b600082013567ffffffffffffffff8111156136fb576136fa612bbc565b5b61370784828501613414565b91505092915050565b600060408201905061372560008301856130cc565b61373260208301846130cc565b9392505050565b600082825260208201905092915050565b7f4f776e61626c653a2063616c6c6572206973206e6f7420746865206f776e6572600082015250565b6000613780602083613739565b915061378b8261374a565b602082019050919050565b600060208201905081810360008301526137af81613773565b9050919050565b7f417272617973206c656e67746873206d69736d61746368000000000000000000600082015250565b60006137ec601783613739565b91506137f7826137b6565b602082019050919050565b6000602082019050818103600083015261381b816137df565b9050919050565b7f4e487b7100000000000000000000000000000000000000000000000000000000600052603260045260246000fd5b7f4e487b7100000000000000000000000000000000000000000000000000000000600052601160045260246000fd5b600061388b82613002565b91507fffffffffffffffffffffffffffffffffffffffffffffffffffffffffffffffff82036138bd576138bc613851565b5b600182019050919050565b7f4d75737420626520696e61637469766500000000000000000000000000000000600082015250565b60006138fe601083613739565b9150613909826138c8565b602082019050919050565b6000602082019050818103600083015261392d816138f1565b9050919050565b60006040820190506139496000830185612e80565b61395660208301846130cc565b9392505050565b7f506f6f6c206173736574206e6f7420737570706f727465642e00000000000000600082015250565b6000613993601983613739565b915061399e8261395d565b602082019050919050565b600060208201905081810360008301526139c281613986565b9050919050565b7f4173736574206e6f7420737570706f727465642e000000000000000000000000600082015250565b60006139ff601483613739565b9150613a0a826139c9565b602082019050919050565b60006020820190508181036000830152613a2e816139f2565b9050919050565b7f417373657420696e616374697665000000000000000000000000000000000000600082015250565b6000613a6b600e83613739565b9150613a7682613a35565b602082019050919050565b60006020820190508181036000830152613a9a81613a5e565b9050919050565b7f4465627420636f76657261676520686967686572207468616e206d6178696d7560008201527f6d2061636365707461626c650000000000000000000000000000000000000000602082015250565b6000613afd602c83613739565b9150613b0882613aa1565b604082019050919050565b60006020820190508181036000830152613b2c81613af0565b9050919050565b7f4d75737420626520616374697665000000000000000000000000000000000000600082015250565b6000613b69600e83613739565b9150613b7482613b33565b602082019050919050565b60006020820190508181036000830152613b9881613b5c565b9050919050565b7f496e697469616c697a61626c653a20636f6e747261637420697320616c72656160008201527f647920696e697469616c697a6564000000000000000000000000000000000000602082015250565b6000613bfb602e83613739565b9150613c0682613b9f565b604082019050919050565b60006020820190508181036000830152613c2a81613bee565b9050919050565b600081519050613c4081612f96565b92915050565b600060208284031215613c5c57613c5b612bb7565b5b6000613c6a84828501613c31565b91505092915050565b7f4f6e6c79205072696d654163636f756e74206f72206f776e65722063616e206360008201527f68616e67652070726f746f636f6c206578706f73757265000000000000000000602082015250565b6000613ccf603783613739565b9150613cda82613c73565b604082019050919050565b60006020820190508181036000830152613cfe81613cc2565b9050919050565b6000613d1082613002565b9150613d1b83613002565b9250828203905081811115613d3357613d32613851565b5b92915050565b6000613d4482613002565b9150613d4f83613002565b9250828201905080821115613d6757613d66613851565b5b92915050565b7f4d6178206173736574206578706f737572652062726561636865640000000000600082015250565b6000613da3601b83613739565b9150613dae82613d6d565b602082019050919050565b60006020820190508181036000830152613dd281613d96565b9050919050565b7f4f776e61626c653a206e6577206f776e657220697320746865207a65726f206160008201527f6464726573730000000000000000000000000000000000000000000000000000602082015250565b6000613e35602683613739565b9150613e4082613dd9565b604082019050919050565b60006020820190508181036000830152613e6481613e28565b9050919050565b7f496e697469616c697a61626c653a20636f6e7472616374206973206e6f74206960008201527f6e697469616c697a696e67000000000000000000000000000000000000000000602082015250565b6000613ec7602b83613739565b9150613ed282613e6b565b604082019050919050565b60006020820190508181036000830152613ef681613eba565b9050919050565b7f43616e6e6f742073657420616e20656d70747920737472696e6720617373657460008201527f2e00000000000000000000000000000000000000000000000000000000000000602082015250565b6000613f59602183613739565b9150613f6482613efd565b604082019050919050565b60006020820190508181036000830152613f8881613f4c565b9050919050565b6000606082019050613fa460008301866130cc565b613fb160208301856130cc565b613fbe60408301846130cc565b949350505050565b7f43616e6e6f742073657420616e20656d70747920616464726573732e00000000600082015250565b6000613ffc601c83613739565b915061400782613fc6565b602082019050919050565b6000602082019050818103600083015261402b81613fef565b9050919050565b7f4173736574277320746f6b656e20616c72656164792065786973747300000000600082015250565b6000614068601c83613739565b915061407382614032565b602082019050919050565b600060208201905081810360008301526140978161405b565b9050919050565b7f4173736574206164647265737320697320616c726561647920696e2075736500600082015250565b60006140d4601f83613739565b91506140df8261409e565b602082019050919050565b60006020820190508181036000830152614103816140c7565b9050919050565b600060808201905061411f60008301876130cc565b61412c60208301866130cc565b61413960408301856130cc565b61414660608301846130cc565b95945050505050565b7f546f6b656e4d616e616765723a20506f6f6c206d757374206265206120636f6e60008201527f7472616374000000000000000000000000000000000000000000000000000000602082015250565b60006141ab602583613739565b91506141b68261414f565b604082019050919050565b600060208201905081810360008301526141da8161419e565b9050919050565b7f4173736574277320706f6f6c20616c7265616479206578697374730000000000600082015250565b6000614217601b83613739565b9150614222826141e1565b602082019050919050565b600060208201905081810360008301526142468161420a565b9050919050565b7f4e487b7100000000000000000000000000000000000000000000000000000000600052603160045260246000fdfea264697066735822122095043492ce8f4aa4f6009ffae4ac738889b8290ca3d8a776aced2c8d4094471e64736f6c63430008110033",
  "devdoc": {
    "events": {
      "IdentifierToExposureGroupSet(address,bytes32,bytes32,uint256)": {
        "details": "emitted after associating identifier with a exposure group",
        "params": {
          "exposureGroup": "exposure group identifier",
          "identifier": "asset identifier",
          "performer": "an address of the wallet setting max exposure",
          "timestamp": "time of associating identifier with a exposure group*"
        }
      },
      "PoolAssetAdded(address,bytes32,address,uint256)": {
        "details": "emitted after adding a pool asset",
        "params": {
          "performer": "an address of wallet adding the pool asset",
          "poolAddress": "an address of the pool asset",
          "poolAsset": "pool asset",
          "timestamp": "time of the pool asset addition*"
        }
      },
      "PoolAssetRemoved(address,bytes32,address,uint256)": {
        "details": "emitted after removing a pool asset",
        "params": {
          "performer": "an address of wallet removing the pool asset",
          "poolAddress": "an address of the pool asset",
          "poolAsset": "pool asset",
          "timestamp": "time of a pool asset removal*"
        }
      },
      "ProtocolCurrentExposureSet(address,bytes32,uint256,uint256,uint256)": {
        "details": "emitted after setting max exposure for a given protocol.",
        "params": {
          "groupIdentifier": "exposure group identifier",
          "newCurrentExposure": "new max protocol exposure",
          "performer": "an address of the wallet setting max exposure",
          "prevCurrentExposure": "previous max protocol exposure",
          "timestamp": "time of setting max exposure*"
        }
      },
      "ProtocolExposureChanged(address,bytes32,uint256,uint256)": {
        "details": "emitted after changing current protocol exposure",
        "params": {
          "identifier": "group identifier",
          "newExposure": "new current protocol exposure",
          "performer": "an address of the wallet changing the exposure",
          "timestamp": "time of associating identifier with a exposure group*"
        }
      },
      "ProtocolExposureSet(address,bytes32,uint256,uint256,uint256,uint256)": {
        "details": "emitted after setting max exposure for a given protocol.",
        "params": {
          "currentExposure": "current protocol exposure",
          "groupIdentifier": "exposure group identifier",
          "newMaxExposure": "new max protocol exposure",
          "performer": "an address of the wallet setting max exposure",
          "prevMaxExposure": "previous max protocol exposure",
          "timestamp": "time of setting max exposure*"
        }
      },
      "TokenAssetActivated(address,address,uint256)": {
        "details": "emitted after activating a token asset",
        "params": {
          "assetAddress": "an address of the token asset",
          "performer": "an address of the wallet activating a token asset",
          "timestamp": "time of activating a token asset*"
        }
      },
      "TokenAssetAdded(address,bytes32,address,uint256)": {
        "details": "emitted after adding a token asset",
        "params": {
          "assetAddress": "an address of the token asset",
          "performer": "an address of the wallet adding a token asset",
          "timestamp": "time of adding a token asset*",
          "tokenAsset": "token asset"
        }
      },
      "TokenAssetDeactivated(address,address,uint256)": {
        "details": "emitted after deactivating a token asset",
        "params": {
          "assetAddress": "an address of the token asset",
          "performer": "an address of the wallet deactivating a token asset",
          "timestamp": "time of deactivating a token asset*"
        }
      },
      "TokenAssetRemoved(address,bytes32,uint256)": {
        "details": "emitted after removing a token asset",
        "params": {
          "performer": "an address of the wallet removing a token asset",
          "timestamp": "time a token asset removal*",
          "tokenAsset": "token asset"
        }
      }
    },
    "kind": "dev",
    "methods": {
      "owner()": {
        "details": "Returns the address of the current owner."
      },
      "renounceOwnership()": {
        "details": "Leaves the contract without owner. It will not be possible to call `onlyOwner` functions anymore. Can only be called by the current owner. NOTE: Renouncing ownership will leave the contract without an owner, thereby removing any functionality that is only available to the owner."
      },
      "transferOwnership(address)": {
        "details": "Transfers ownership of the contract to a new account (`newOwner`). Can only be called by the current owner."
      }
    },
    "version": 1
  },
  "userdoc": {
    "kind": "user",
    "methods": {
      "getAssetAddress(bytes32,bool)": {
        "notice": "Returns address of an asset*"
      },
      "getPoolAddress(bytes32)": {
        "notice": "Returns address of an asset's lending pool*"
      }
    },
    "version": 1
  },
  "storageLayout": {
    "storage": [
      {
        "astId": 130,
        "contract": "contracts/TokenManager.sol:TokenManager",
        "label": "_initialized",
        "offset": 0,
        "slot": "0",
        "type": "t_bool"
      },
      {
        "astId": 133,
        "contract": "contracts/TokenManager.sol:TokenManager",
        "label": "_initializing",
        "offset": 1,
        "slot": "0",
        "type": "t_bool"
      },
      {
        "astId": 481,
        "contract": "contracts/TokenManager.sol:TokenManager",
        "label": "__gap",
        "offset": 0,
        "slot": "1",
        "type": "t_array(t_uint256)50_storage"
      },
      {
        "astId": 10,
        "contract": "contracts/TokenManager.sol:TokenManager",
        "label": "_owner",
        "offset": 0,
        "slot": "51",
        "type": "t_address"
      },
      {
        "astId": 122,
        "contract": "contracts/TokenManager.sol:TokenManager",
        "label": "__gap",
        "offset": 0,
        "slot": "52",
        "type": "t_array(t_uint256)49_storage"
      },
      {
        "astId": 1417,
        "contract": "contracts/TokenManager.sol:TokenManager",
        "label": "assetToPoolAddress",
        "offset": 0,
        "slot": "101",
        "type": "t_struct(Bytes32ToAddressMap)2861_storage"
      },
      {
        "astId": 1420,
        "contract": "contracts/TokenManager.sol:TokenManager",
        "label": "assetToTokenAddress",
        "offset": 0,
        "slot": "104",
        "type": "t_struct(Bytes32ToAddressMap)2861_storage"
      },
      {
        "astId": 1424,
        "contract": "contracts/TokenManager.sol:TokenManager",
        "label": "tokenAddressToSymbol",
        "offset": 0,
        "slot": "107",
        "type": "t_mapping(t_address,t_bytes32)"
      },
      {
        "astId": 1428,
        "contract": "contracts/TokenManager.sol:TokenManager",
        "label": "tokenPositionInList",
        "offset": 0,
        "slot": "108",
        "type": "t_mapping(t_address,t_uint256)"
      },
      {
        "astId": 1432,
        "contract": "contracts/TokenManager.sol:TokenManager",
        "label": "debtCoverage",
        "offset": 0,
        "slot": "109",
        "type": "t_mapping(t_address,t_uint256)"
      },
      {
        "astId": 1435,
        "contract": "contracts/TokenManager.sol:TokenManager",
        "label": "supportedTokensList",
        "offset": 0,
        "slot": "110",
        "type": "t_array(t_address)dyn_storage"
      },
      {
        "astId": 1439,
        "contract": "contracts/TokenManager.sol:TokenManager",
        "label": "tokenToStatus",
        "offset": 0,
        "slot": "111",
        "type": "t_mapping(t_address,t_uint256)"
      },
      {
        "astId": 1443,
        "contract": "contracts/TokenManager.sol:TokenManager",
        "label": "debtCoverageStaked",
        "offset": 0,
        "slot": "112",
        "type": "t_mapping(t_bytes32,t_uint256)"
      },
      {
        "astId": 1447,
        "contract": "contracts/TokenManager.sol:TokenManager",
        "label": "identifierToExposureGroup",
        "offset": 0,
        "slot": "113",
        "type": "t_mapping(t_bytes32,t_bytes32)"
      },
      {
        "astId": 1452,
        "contract": "contracts/TokenManager.sol:TokenManager",
        "label": "groupToExposure",
        "offset": 0,
        "slot": "114",
        "type": "t_mapping(t_bytes32,t_struct(Exposure)1401_storage)"
      }
    ],
    "types": {
      "t_address": {
        "encoding": "inplace",
        "label": "address",
        "numberOfBytes": "20"
      },
      "t_array(t_address)dyn_storage": {
        "base": "t_address",
        "encoding": "dynamic_array",
        "label": "address[]",
        "numberOfBytes": "32"
      },
      "t_array(t_bytes32)dyn_storage": {
        "base": "t_bytes32",
        "encoding": "dynamic_array",
        "label": "bytes32[]",
        "numberOfBytes": "32"
      },
      "t_array(t_uint256)49_storage": {
        "base": "t_uint256",
        "encoding": "inplace",
        "label": "uint256[49]",
        "numberOfBytes": "1568"
      },
      "t_array(t_uint256)50_storage": {
        "base": "t_uint256",
        "encoding": "inplace",
        "label": "uint256[50]",
        "numberOfBytes": "1600"
      },
      "t_bool": {
        "encoding": "inplace",
        "label": "bool",
        "numberOfBytes": "1"
      },
      "t_bytes32": {
        "encoding": "inplace",
        "label": "bytes32",
        "numberOfBytes": "32"
      },
      "t_mapping(t_address,t_bytes32)": {
        "encoding": "mapping",
        "key": "t_address",
        "label": "mapping(address => bytes32)",
        "numberOfBytes": "32",
        "value": "t_bytes32"
      },
      "t_mapping(t_address,t_uint256)": {
        "encoding": "mapping",
        "key": "t_address",
        "label": "mapping(address => uint256)",
        "numberOfBytes": "32",
        "value": "t_uint256"
      },
      "t_mapping(t_bytes32,t_bytes32)": {
        "encoding": "mapping",
        "key": "t_bytes32",
        "label": "mapping(bytes32 => bytes32)",
        "numberOfBytes": "32",
        "value": "t_bytes32"
      },
      "t_mapping(t_bytes32,t_struct(Exposure)1401_storage)": {
        "encoding": "mapping",
        "key": "t_bytes32",
        "label": "mapping(bytes32 => struct TokenManager.Exposure)",
        "numberOfBytes": "32",
        "value": "t_struct(Exposure)1401_storage"
      },
      "t_mapping(t_bytes32,t_uint256)": {
        "encoding": "mapping",
        "key": "t_bytes32",
        "label": "mapping(bytes32 => uint256)",
        "numberOfBytes": "32",
        "value": "t_uint256"
      },
      "t_struct(Bytes32Set)982_storage": {
        "encoding": "inplace",
        "label": "struct EnumerableSet.Bytes32Set",
        "members": [
          {
            "astId": 981,
            "contract": "contracts/TokenManager.sol:TokenManager",
            "label": "_inner",
            "offset": 0,
            "slot": "0",
            "type": "t_struct(Set)788_storage"
          }
        ],
        "numberOfBytes": "64"
      },
      "t_struct(Bytes32ToAddressMap)2861_storage": {
        "encoding": "inplace",
        "label": "struct EnumerableMap.Bytes32ToAddressMap",
        "members": [
          {
            "astId": 2860,
            "contract": "contracts/TokenManager.sol:TokenManager",
            "label": "_inner",
            "offset": 0,
            "slot": "0",
            "type": "t_struct(Map)2631_storage"
          }
        ],
        "numberOfBytes": "96"
      },
      "t_struct(Exposure)1401_storage": {
        "encoding": "inplace",
        "label": "struct TokenManager.Exposure",
        "members": [
          {
            "astId": 1398,
            "contract": "contracts/TokenManager.sol:TokenManager",
            "label": "current",
            "offset": 0,
            "slot": "0",
            "type": "t_uint256"
          },
          {
            "astId": 1400,
            "contract": "contracts/TokenManager.sol:TokenManager",
            "label": "max",
            "offset": 0,
            "slot": "1",
            "type": "t_uint256"
          }
        ],
        "numberOfBytes": "64"
      },
      "t_struct(Map)2631_storage": {
        "encoding": "inplace",
        "label": "struct EnumerableMap.Map",
        "members": [
          {
            "astId": 2626,
            "contract": "contracts/TokenManager.sol:TokenManager",
            "label": "_keys",
            "offset": 0,
            "slot": "0",
            "type": "t_struct(Bytes32Set)982_storage"
          },
          {
            "astId": 2630,
            "contract": "contracts/TokenManager.sol:TokenManager",
            "label": "_values",
            "offset": 0,
            "slot": "2",
            "type": "t_mapping(t_bytes32,t_bytes32)"
          }
        ],
        "numberOfBytes": "96"
      },
      "t_struct(Set)788_storage": {
        "encoding": "inplace",
        "label": "struct EnumerableSet.Set",
        "members": [
          {
            "astId": 783,
            "contract": "contracts/TokenManager.sol:TokenManager",
            "label": "_values",
            "offset": 0,
            "slot": "0",
            "type": "t_array(t_bytes32)dyn_storage"
          },
          {
            "astId": 787,
            "contract": "contracts/TokenManager.sol:TokenManager",
            "label": "_indexes",
            "offset": 0,
            "slot": "1",
            "type": "t_mapping(t_bytes32,t_uint256)"
          }
        ],
        "numberOfBytes": "64"
      },
      "t_uint256": {
        "encoding": "inplace",
        "label": "uint256",
        "numberOfBytes": "32"
      }
    }
  }
}