{
  "address": "0x28739d2A05D754b51F3441cBF64d4D2635ccfABC",
  "abi": [
    {
      "anonymous": false,
      "inputs": [
        {
          "indexed": true,
          "internalType": "address",
          "name": "previousOwner",
          "type": "address"
        },
        {
          "indexed": true,
          "internalType": "address",
          "name": "newOwner",
          "type": "address"
        }
      ],
      "name": "OwnershipTransferred",
      "type": "event"
    },
    {
      "anonymous": false,
      "inputs": [
        {
          "indexed": true,
          "internalType": "address",
          "name": "performer",
          "type": "address"
        },
        {
          "indexed": true,
          "internalType": "bytes32",
          "name": "poolAsset",
          "type": "bytes32"
        },
        {
          "indexed": false,
          "internalType": "address",
          "name": "poolAddress",
          "type": "address"
        },
        {
          "indexed": false,
          "internalType": "uint256",
          "name": "timestamp",
          "type": "uint256"
        }
      ],
      "name": "PoolAssetAdded",
      "type": "event"
    },
    {
      "anonymous": false,
      "inputs": [
        {
          "indexed": true,
          "internalType": "address",
          "name": "performer",
          "type": "address"
        },
        {
          "indexed": true,
          "internalType": "bytes32",
          "name": "poolAsset",
          "type": "bytes32"
        },
        {
          "indexed": false,
          "internalType": "address",
          "name": "poolAddress",
          "type": "address"
        },
        {
          "indexed": false,
          "internalType": "uint256",
          "name": "timestamp",
          "type": "uint256"
        }
      ],
      "name": "PoolAssetRemoved",
      "type": "event"
    },
    {
      "anonymous": false,
      "inputs": [
        {
          "indexed": true,
          "internalType": "address",
          "name": "performer",
          "type": "address"
        },
        {
          "indexed": false,
          "internalType": "address",
          "name": "assetAddress",
          "type": "address"
        },
        {
          "indexed": false,
          "internalType": "uint256",
          "name": "timestamp",
          "type": "uint256"
        }
      ],
      "name": "TokenAssetActivated",
      "type": "event"
    },
    {
      "anonymous": false,
      "inputs": [
        {
          "indexed": true,
          "internalType": "address",
          "name": "performer",
          "type": "address"
        },
        {
          "indexed": true,
          "internalType": "bytes32",
          "name": "tokenAsset",
          "type": "bytes32"
        },
        {
          "indexed": false,
          "internalType": "address",
          "name": "assetAddress",
          "type": "address"
        },
        {
          "indexed": false,
          "internalType": "uint256",
          "name": "timestamp",
          "type": "uint256"
        }
      ],
      "name": "TokenAssetAdded",
      "type": "event"
    },
    {
      "anonymous": false,
      "inputs": [
        {
          "indexed": true,
          "internalType": "address",
          "name": "performer",
          "type": "address"
        },
        {
          "indexed": false,
          "internalType": "address",
          "name": "assetAddress",
          "type": "address"
        },
        {
          "indexed": false,
          "internalType": "uint256",
          "name": "timestamp",
          "type": "uint256"
        }
      ],
      "name": "TokenAssetDeactivated",
      "type": "event"
    },
    {
      "anonymous": false,
      "inputs": [
        {
          "indexed": true,
          "internalType": "address",
          "name": "performer",
          "type": "address"
        },
        {
          "indexed": true,
          "internalType": "bytes32",
          "name": "tokenAsset",
          "type": "bytes32"
        },
        {
          "indexed": false,
          "internalType": "uint256",
          "name": "timestamp",
          "type": "uint256"
        }
      ],
      "name": "TokenAssetRemoved",
      "type": "event"
    },
    {
      "inputs": [
        {
          "internalType": "address",
          "name": "token",
          "type": "address"
        }
      ],
      "name": "activateToken",
      "outputs": [],
      "stateMutability": "nonpayable",
      "type": "function"
    },
    {
      "inputs": [
        {
          "components": [
            {
              "internalType": "bytes32",
              "name": "asset",
              "type": "bytes32"
            },
            {
              "internalType": "address",
              "name": "poolAddress",
              "type": "address"
            }
          ],
          "internalType": "struct TokenManager.poolAsset[]",
          "name": "poolAssets",
          "type": "tuple[]"
        }
      ],
      "name": "addPoolAssets",
      "outputs": [],
      "stateMutability": "nonpayable",
      "type": "function"
    },
    {
      "inputs": [
        {
          "components": [
            {
              "internalType": "bytes32",
              "name": "asset",
              "type": "bytes32"
            },
            {
              "internalType": "address",
              "name": "assetAddress",
              "type": "address"
            },
            {
              "internalType": "uint256",
              "name": "debtCoverage",
              "type": "uint256"
            }
          ],
          "internalType": "struct TokenManager.Asset[]",
          "name": "tokenAssets",
          "type": "tuple[]"
        }
      ],
      "name": "addTokenAssets",
      "outputs": [],
      "stateMutability": "nonpayable",
      "type": "function"
    },
    {
      "inputs": [
        {
          "internalType": "address",
          "name": "token",
          "type": "address"
        }
      ],
      "name": "deactivateToken",
      "outputs": [],
      "stateMutability": "nonpayable",
      "type": "function"
    },
    {
      "inputs": [
        {
          "internalType": "address",
          "name": "",
          "type": "address"
        }
      ],
      "name": "debtCoverage",
      "outputs": [
        {
          "internalType": "uint256",
          "name": "",
          "type": "uint256"
        }
      ],
      "stateMutability": "view",
      "type": "function"
    },
    {
      "inputs": [],
      "name": "getAllPoolAssets",
      "outputs": [
        {
          "internalType": "bytes32[]",
          "name": "result",
          "type": "bytes32[]"
        }
      ],
      "stateMutability": "view",
      "type": "function"
    },
    {
      "inputs": [],
      "name": "getAllTokenAssets",
      "outputs": [
        {
          "internalType": "bytes32[]",
          "name": "result",
          "type": "bytes32[]"
        }
      ],
      "stateMutability": "view",
      "type": "function"
    },
    {
      "inputs": [
        {
          "internalType": "bytes32",
          "name": "_asset",
          "type": "bytes32"
        },
        {
          "internalType": "bool",
          "name": "allowInactive",
          "type": "bool"
        }
      ],
      "name": "getAssetAddress",
      "outputs": [
        {
          "internalType": "address",
          "name": "",
          "type": "address"
        }
      ],
      "stateMutability": "view",
      "type": "function"
    },
    {
      "inputs": [
        {
          "internalType": "bytes32",
          "name": "_asset",
          "type": "bytes32"
        }
      ],
      "name": "getPoolAddress",
      "outputs": [
        {
          "internalType": "address",
          "name": "",
          "type": "address"
        }
      ],
      "stateMutability": "view",
      "type": "function"
    },
    {
      "inputs": [],
      "name": "getSupportedTokensAddresses",
      "outputs": [
        {
          "internalType": "address[]",
          "name": "",
          "type": "address[]"
        }
      ],
      "stateMutability": "view",
      "type": "function"
    },
    {
      "inputs": [
        {
          "components": [
            {
              "internalType": "bytes32",
              "name": "asset",
              "type": "bytes32"
            },
            {
              "internalType": "address",
              "name": "assetAddress",
              "type": "address"
            },
            {
              "internalType": "uint256",
              "name": "debtCoverage",
              "type": "uint256"
            }
          ],
          "internalType": "struct TokenManager.Asset[]",
          "name": "tokenAssets",
          "type": "tuple[]"
        },
        {
          "components": [
            {
              "internalType": "bytes32",
              "name": "asset",
              "type": "bytes32"
            },
            {
              "internalType": "address",
              "name": "poolAddress",
              "type": "address"
            }
          ],
          "internalType": "struct TokenManager.poolAsset[]",
          "name": "poolAssets",
          "type": "tuple[]"
        }
      ],
      "name": "initialize",
      "outputs": [],
      "stateMutability": "nonpayable",
      "type": "function"
    },
    {
      "inputs": [
        {
          "internalType": "address",
          "name": "token",
          "type": "address"
        }
      ],
      "name": "isTokenAssetActive",
      "outputs": [
        {
          "internalType": "bool",
          "name": "",
          "type": "bool"
        }
      ],
      "stateMutability": "view",
      "type": "function"
    },
    {
      "inputs": [],
      "name": "owner",
      "outputs": [
        {
          "internalType": "address",
          "name": "",
          "type": "address"
        }
      ],
      "stateMutability": "view",
      "type": "function"
    },
    {
      "inputs": [
        {
          "internalType": "bytes32[]",
          "name": "_poolAssets",
          "type": "bytes32[]"
        }
      ],
      "name": "removePoolAssets",
      "outputs": [],
      "stateMutability": "nonpayable",
      "type": "function"
    },
    {
      "inputs": [
        {
          "internalType": "bytes32[]",
          "name": "_tokenAssets",
          "type": "bytes32[]"
        }
      ],
      "name": "removeTokenAssets",
      "outputs": [],
      "stateMutability": "nonpayable",
      "type": "function"
    },
    {
      "inputs": [],
      "name": "renounceOwnership",
      "outputs": [],
      "stateMutability": "nonpayable",
      "type": "function"
    },
    {
      "inputs": [
        {
          "internalType": "address",
          "name": "token",
          "type": "address"
        },
        {
          "internalType": "uint256",
          "name": "coverage",
          "type": "uint256"
        }
      ],
      "name": "setDebtCoverage",
      "outputs": [],
      "stateMutability": "nonpayable",
      "type": "function"
    },
    {
      "inputs": [
        {
          "internalType": "uint256",
          "name": "",
          "type": "uint256"
        }
      ],
      "name": "supportedTokensList",
      "outputs": [
        {
          "internalType": "address",
          "name": "",
          "type": "address"
        }
      ],
      "stateMutability": "view",
      "type": "function"
    },
    {
      "inputs": [
        {
          "internalType": "address",
          "name": "",
          "type": "address"
        }
      ],
      "name": "tokenAddressToSymbol",
      "outputs": [
        {
          "internalType": "bytes32",
          "name": "",
          "type": "bytes32"
        }
      ],
      "stateMutability": "view",
      "type": "function"
    },
    {
      "inputs": [
        {
          "internalType": "address",
          "name": "",
          "type": "address"
        }
      ],
      "name": "tokenToStatus",
      "outputs": [
        {
          "internalType": "uint256",
          "name": "",
          "type": "uint256"
        }
      ],
      "stateMutability": "view",
      "type": "function"
    },
    {
      "inputs": [
        {
          "internalType": "address",
          "name": "newOwner",
          "type": "address"
        }
      ],
      "name": "transferOwnership",
      "outputs": [],
      "stateMutability": "nonpayable",
      "type": "function"
    }
  ],
  "transactionHash": "0x38f8ee9021529ff955a14d7abd501760c0e24ddc2a4b70f1c1149e77fee17799",
  "args": [],
  "numDeployments": 2,
  "solcInputHash": "b1653a4f0e14ac944ac8bfdc8c1d1665",
  "bytecode": "0x608060405234801561001057600080fd5b50613152806100206000396000f3fe608060405234801561001057600080fd5b50600436106101375760003560e01c8063715018a6116100b8578063d1bc08311161007c578063d1bc08311461033a578063e0117bdd14610356578063f2fde38b14610386578063f38555aa146103a2578063f823f1e0146103be578063fda4963b146103ee57610137565b8063715018a6146102bc578063762b887a146102c6578063869c490d146102e25780638da5cb5b14610300578063a2d279331461031e57610137565b806335923e03116100ff57806335923e03146101f257806363c918771461022257806366273c191461025257806368173bcf146102705780636953c06c1461028c57610137565b80630d1ce2d21461013c5780630edc25b61461015857806321f880971461018857806325eb876f146101a657806331e7866c146101d6575b600080fd5b61015660048036038101906101519190611f37565b61040a565b005b610172600480360381019061016d9190611f9a565b6105a0565b60405161017f9190611fd6565b60405180910390f35b610190610632565b60405161019d91906120af565b60405180910390f35b6101c060048036038101906101bb9190612109565b6106c0565b6040516101cd9190611fd6565b60405180910390f35b6101f060048036038101906101eb919061217f565b6107db565b005b61020c60048036038101906102079190611f37565b6108ea565b60405161021991906121ce565b60405180910390f35b61023c600480360381019061023791906121e9565b610936565b6040516102499190611fd6565b60405180910390f35b61025a610975565b60405161026791906122d4565b60405180910390f35b61028a60048036038101906102859190611f37565b6109d9565b005b6102a660048036038101906102a19190611f37565b610b6f565b6040516102b39190612305565b60405180910390f35b6102c4610b87565b005b6102e060048036038101906102db91906125f5565b610b89565b005b6102ea610c89565b6040516102f791906122d4565b60405180910390f35b610308610ced565b6040516103159190611fd6565b60405180910390f35b6103386004803603810190610333919061266d565b610d17565b005b610354600480360381019061034f9190612779565b610e1b565b005b610370600480360381019061036b9190611f37565b610edd565b60405161037d9190612305565b60405180910390f35b6103a0600480360381019061039b9190611f37565b610ef5565b005b6103bc60048036038101906103b791906127c2565b610fec565b005b6103d860048036038101906103d39190611f37565b6110d1565b6040516103e5919061281a565b60405180910390f35b61040860048036038101906104039190612779565b6110e9565b005b6104126111ab565b73ffffffffffffffffffffffffffffffffffffffff16610430610ced565b73ffffffffffffffffffffffffffffffffffffffff1614610486576040517f08c379a000000000000000000000000000000000000000000000000000000000815260040161047d90612892565b60405180910390fd5b6001606f60008373ffffffffffffffffffffffffffffffffffffffff1673ffffffffffffffffffffffffffffffffffffffff1681526020019081526020016000205414610508576040517f08c379a00000000000000000000000000000000000000000000000000000000081526004016104ff906128fe565b60405180910390fd5b6002606f60008373ffffffffffffffffffffffffffffffffffffffff1673ffffffffffffffffffffffffffffffffffffffff168152602001908152602001600020819055503373ffffffffffffffffffffffffffffffffffffffff167febd9f0d5b5df9f4d5180bbeec65fda8d99982e273d2a7365431b2a869aa826d4824260405161059592919061291e565b60405180910390a250565b6000806105b78360656111b390919063ffffffff16565b915050600073ffffffffffffffffffffffffffffffffffffffff168173ffffffffffffffffffffffffffffffffffffffff1603610629576040517f08c379a000000000000000000000000000000000000000000000000000000000815260040161062090612993565b60405180910390fd5b80915050919050565b6060606e8054806020026020016040519081016040528092919081815260200182805480156106b657602002820191906000526020600020905b8160009054906101000a900473ffffffffffffffffffffffffffffffffffffffff1673ffffffffffffffffffffffffffffffffffffffff168152602001906001019080831161066c575b5050505050905090565b6000806106d78460686111b390919063ffffffff16565b915050600073ffffffffffffffffffffffffffffffffffffffff168173ffffffffffffffffffffffffffffffffffffffff1603610749576040517f08c379a0000000000000000000000000000000000000000000000000000000008152600401610740906129ff565b60405180910390fd5b826107d1576002606f60008373ffffffffffffffffffffffffffffffffffffffff1673ffffffffffffffffffffffffffffffffffffffff16815260200190815260200160002054146107d0576040517f08c379a00000000000000000000000000000000000000000000000000000000081526004016107c790612a6b565b60405180910390fd5b5b8091505092915050565b6107e36111ab565b73ffffffffffffffffffffffffffffffffffffffff16610801610ced565b73ffffffffffffffffffffffffffffffffffffffff1614610857576040517f08c379a000000000000000000000000000000000000000000000000000000000815260040161084e90612892565b60405180910390fd5b670b90984060d355558111156108a2576040517f08c379a000000000000000000000000000000000000000000000000000000000815260040161089990612afd565b60405180910390fd5b80606d60008473ffffffffffffffffffffffffffffffffffffffff1673ffffffffffffffffffffffffffffffffffffffff168152602001908152602001600020819055505050565b60006002606f60008473ffffffffffffffffffffffffffffffffffffffff1673ffffffffffffffffffffffffffffffffffffffff16815260200190815260200160002054149050919050565b606e818154811061094657600080fd5b906000526020600020016000915054906101000a900473ffffffffffffffffffffffffffffffffffffffff1681565b606060656000016000016000016000018054806020026020016040519081016040528092919081815260200182805480156109cf57602002820191906000526020600020905b8154815260200190600101908083116109bb575b5050505050905090565b6109e16111ab565b73ffffffffffffffffffffffffffffffffffffffff166109ff610ced565b73ffffffffffffffffffffffffffffffffffffffff1614610a55576040517f08c379a0000000000000000000000000000000000000000000000000000000008152600401610a4c90612892565b60405180910390fd5b6002606f60008373ffffffffffffffffffffffffffffffffffffffff1673ffffffffffffffffffffffffffffffffffffffff1681526020019081526020016000205414610ad7576040517f08c379a0000000000000000000000000000000000000000000000000000000008152600401610ace90612b69565b60405180910390fd5b6001606f60008373ffffffffffffffffffffffffffffffffffffffff1673ffffffffffffffffffffffffffffffffffffffff168152602001908152602001600020819055503373ffffffffffffffffffffffffffffffffffffffff167fbf0b0e2d837fddaee4742e91f53ca36bac9fdebdd571738027abb2b5f7c9a2f08242604051610b6492919061291e565b60405180910390a250565b606d6020528060005260406000206000915090505481565b565b600060019054906101000a900460ff16610bb15760008054906101000a900460ff1615610bba565b610bb96111dc565b5b610bf9576040517f08c379a0000000000000000000000000000000000000000000000000000000008152600401610bf090612bfb565b60405180910390fd5b60008060019054906101000a900460ff161590508015610c49576001600060016101000a81548160ff02191690831515021790555060016000806101000a81548160ff0219169083151502179055505b610c516111ed565b610c5a83610d17565b610c6382610fec565b8015610c845760008060016101000a81548160ff0219169083151502179055505b505050565b60606068600001600001600001600001805480602002602001604051908101604052809291908181526020018280548015610ce357602002820191906000526020600020905b815481526020019060010190808311610ccf575b5050505050905090565b6000603360009054906101000a900473ffffffffffffffffffffffffffffffffffffffff16905090565b610d1f6111ab565b73ffffffffffffffffffffffffffffffffffffffff16610d3d610ced565b73ffffffffffffffffffffffffffffffffffffffff1614610d93576040517f08c379a0000000000000000000000000000000000000000000000000000000008152600401610d8a90612892565b60405180910390fd5b60005b8151811015610e1757610e04828281518110610db557610db4612c1b565b5b602002602001015160000151838381518110610dd457610dd3612c1b565b5b602002602001015160200151848481518110610df357610df2612c1b565b5b602002602001015160400151611246565b8080610e0f90612c79565b915050610d96565b5050565b610e236111ab565b73ffffffffffffffffffffffffffffffffffffffff16610e41610ced565b73ffffffffffffffffffffffffffffffffffffffff1614610e97576040517f08c379a0000000000000000000000000000000000000000000000000000000008152600401610e8e90612892565b60405180910390fd5b60005b8151811015610ed957610ec6828281518110610eb957610eb8612c1b565b5b6020026020010151611588565b8080610ed190612c79565b915050610e9a565b5050565b606f6020528060005260406000206000915090505481565b610efd6111ab565b73ffffffffffffffffffffffffffffffffffffffff16610f1b610ced565b73ffffffffffffffffffffffffffffffffffffffff1614610f71576040517f08c379a0000000000000000000000000000000000000000000000000000000008152600401610f6890612892565b60405180910390fd5b600073ffffffffffffffffffffffffffffffffffffffff168173ffffffffffffffffffffffffffffffffffffffff1603610fe0576040517f08c379a0000000000000000000000000000000000000000000000000000000008152600401610fd790612d33565b60405180910390fd5b610fe9816116d0565b50565b610ff46111ab565b73ffffffffffffffffffffffffffffffffffffffff16611012610ced565b73ffffffffffffffffffffffffffffffffffffffff1614611068576040517f08c379a000000000000000000000000000000000000000000000000000000000815260040161105f90612892565b60405180910390fd5b60005b81518110156110cd576110ba82828151811061108a57611089612c1b565b5b6020026020010151600001518383815181106110a9576110a8612c1b565b5b602002602001015160200151611796565b80806110c590612c79565b91505061106b565b5050565b606b6020528060005260406000206000915090505481565b6110f16111ab565b73ffffffffffffffffffffffffffffffffffffffff1661110f610ced565b73ffffffffffffffffffffffffffffffffffffffff1614611165576040517f08c379a000000000000000000000000000000000000000000000000000000000815260040161115c90612892565b60405180910390fd5b60005b81518110156111a75761119482828151811061118757611186612c1b565b5b602002602001015161189e565b808061119f90612c79565b915050611168565b5050565b600033905090565b6000806000806111c6866000018661190c565b91509150818160001c9350935050509250929050565b60006111e73061195b565b15905090565b600060019054906101000a900460ff1661123c576040517f08c379a000000000000000000000000000000000000000000000000000000000815260040161123390612dc5565b60405180910390fd5b61124461197e565b565b60008303611289576040517f08c379a000000000000000000000000000000000000000000000000000000000815260040161128090612e57565b60405180910390fd5b600073ffffffffffffffffffffffffffffffffffffffff168273ffffffffffffffffffffffffffffffffffffffff16036112f8576040517f08c379a00000000000000000000000000000000000000000000000000000000081526004016112ef90612ec3565b60405180910390fd5b61130c8360686119df90919063ffffffff16565b1561134c576040517f08c379a000000000000000000000000000000000000000000000000000000000815260040161134390612f2f565b60405180910390fd5b6000801b606b60008473ffffffffffffffffffffffffffffffffffffffff1673ffffffffffffffffffffffffffffffffffffffff16815260200190815260200160002054146113d0576040517f08c379a00000000000000000000000000000000000000000000000000000000081526004016113c790612f9b565b60405180910390fd5b6113da82826107db565b6113f0838360686119f69092919063ffffffff16565b5082606b60008473ffffffffffffffffffffffffffffffffffffffff1673ffffffffffffffffffffffffffffffffffffffff168152602001908152602001600020819055506002606f60008473ffffffffffffffffffffffffffffffffffffffff1673ffffffffffffffffffffffffffffffffffffffff16815260200190815260200160002081905550606e829080600181540180825580915050600190039060005260206000200160009091909190916101000a81548173ffffffffffffffffffffffffffffffffffffffff021916908373ffffffffffffffffffffffffffffffffffffffff1602179055506001606e805490506114ef9190612fbb565b606c60008473ffffffffffffffffffffffffffffffffffffffff1673ffffffffffffffffffffffffffffffffffffffff16815260200190815260200160002081905550823373ffffffffffffffffffffffffffffffffffffffff167ff73be6b27198eab18ec5fe07c2d7b2fbf4f05ffa1a05c94ca202531d7aa8c5b6844260405161157b92919061291e565b60405180910390a3505050565b60006115958260016106c0565b90506115a2606883611a28565b506000801b606b60008373ffffffffffffffffffffffffffffffffffffffff1673ffffffffffffffffffffffffffffffffffffffff168152602001908152602001600020819055506000606f60008373ffffffffffffffffffffffffffffffffffffffff1673ffffffffffffffffffffffffffffffffffffffff168152602001908152602001600020819055506000606d60008373ffffffffffffffffffffffffffffffffffffffff1673ffffffffffffffffffffffffffffffffffffffff1681526020019081526020016000208190555061167d81611a3f565b813373ffffffffffffffffffffffffffffffffffffffff167f228e158b51be6445b7bd2f4121209717a371d44c7c53d4085ae7f5e496153a93426040516116c49190612305565b60405180910390a35050565b6000603360009054906101000a900473ffffffffffffffffffffffffffffffffffffffff16905081603360006101000a81548173ffffffffffffffffffffffffffffffffffffffff021916908373ffffffffffffffffffffffffffffffffffffffff1602179055508173ffffffffffffffffffffffffffffffffffffffff168173ffffffffffffffffffffffffffffffffffffffff167f8be0079c531659141344cd1fd0a4f28419497f9722a3daafe3b4186f6b6457e060405160405180910390a35050565b61179f81611c22565b6117de576040517f08c379a00000000000000000000000000000000000000000000000000000000081526004016117d590613061565b60405180910390fd5b6117f28260656119df90919063ffffffff16565b15611832576040517f08c379a0000000000000000000000000000000000000000000000000000000008152600401611829906130cd565b60405180910390fd5b611848828260656119f69092919063ffffffff16565b50813373ffffffffffffffffffffffffffffffffffffffff167fcfbf9a4f33420379df003923a1d986358bb97d4b3455baae186db1d5d35cda3e834260405161189292919061291e565b60405180910390a35050565b60006118a9826105a0565b90506118b6606583611a28565b50813373ffffffffffffffffffffffffffffffffffffffff167ff658b7b16fbc2f0f51a3320cc57763ccd8d13f554c4eb34ff0f5b49624b32e83834260405161190092919061291e565b60405180910390a35050565b60008060008460020160008581526020019081526020016000205490506000801b810361194b5761193d8585611c45565b6000801b9250925050611954565b60018192509250505b9250929050565b6000808273ffffffffffffffffffffffffffffffffffffffff163b119050919050565b600060019054906101000a900460ff166119cd576040517f08c379a00000000000000000000000000000000000000000000000000000000081526004016119c490612dc5565b60405180910390fd5b6119dd6119d86111ab565b6116d0565b565b60006119ee8360000183611c45565b905092915050565b6000611a1f84600001848473ffffffffffffffffffffffffffffffffffffffff1660001b611c65565b90509392505050565b6000611a378360000183611ca0565b905092915050565b6000606c60008373ffffffffffffffffffffffffffffffffffffffff1673ffffffffffffffffffffffffffffffffffffffff1681526020019081526020016000205490506001606e80549050611a959190612fbb565b8114611b92576000606e6001606e80549050611ab19190612fbb565b81548110611ac257611ac1612c1b565b5b9060005260206000200160009054906101000a900473ffffffffffffffffffffffffffffffffffffffff16905081606c60008373ffffffffffffffffffffffffffffffffffffffff1673ffffffffffffffffffffffffffffffffffffffff1681526020019081526020016000208190555080606e8381548110611b4857611b47612c1b565b5b9060005260206000200160006101000a81548173ffffffffffffffffffffffffffffffffffffffff021916908373ffffffffffffffffffffffffffffffffffffffff160217905550505b606e805480611ba457611ba36130ed565b5b6001900381819060005260206000200160006101000a81549073ffffffffffffffffffffffffffffffffffffffff021916905590556000606c60008473ffffffffffffffffffffffffffffffffffffffff1673ffffffffffffffffffffffffffffffffffffffff168152602001908152602001600020819055505050565b6000808273ffffffffffffffffffffffffffffffffffffffff163b119050919050565b6000611c5d8284600001611cd990919063ffffffff16565b905092915050565b60008184600201600085815260200190815260200160002081905550611c978385600001611cf090919063ffffffff16565b90509392505050565b600082600201600083815260200190815260200160002060009055611cd18284600001611d0790919063ffffffff16565b905092915050565b6000611ce88360000183611d1e565b905092915050565b6000611cff8360000183611d41565b905092915050565b6000611d168360000183611db1565b905092915050565b600080836001016000848152602001908152602001600020541415905092915050565b6000611d4d8383611d1e565b611da6578260000182908060018154018082558091505060019003906000526020600020016000909190919091505582600001805490508360010160008481526020019081526020016000208190555060019050611dab565b600090505b92915050565b60008083600101600084815260200190815260200160002054905060008114611eb9576000600182611de39190612fbb565b9050600060018660000180549050611dfb9190612fbb565b9050818114611e6a576000866000018281548110611e1c57611e1b612c1b565b5b9060005260206000200154905080876000018481548110611e4057611e3f612c1b565b5b90600052602060002001819055508387600101600083815260200190815260200160002081905550505b85600001805480611e7e57611e7d6130ed565b5b600190038181906000526020600020016000905590558560010160008681526020019081526020016000206000905560019350505050611ebf565b60009150505b92915050565b6000604051905090565b600080fd5b600080fd5b600073ffffffffffffffffffffffffffffffffffffffff82169050919050565b6000611f0482611ed9565b9050919050565b611f1481611ef9565b8114611f1f57600080fd5b50565b600081359050611f3181611f0b565b92915050565b600060208284031215611f4d57611f4c611ecf565b5b6000611f5b84828501611f22565b91505092915050565b6000819050919050565b611f7781611f64565b8114611f8257600080fd5b50565b600081359050611f9481611f6e565b92915050565b600060208284031215611fb057611faf611ecf565b5b6000611fbe84828501611f85565b91505092915050565b611fd081611ef9565b82525050565b6000602082019050611feb6000830184611fc7565b92915050565b600081519050919050565b600082825260208201905092915050565b6000819050602082019050919050565b61202681611ef9565b82525050565b6000612038838361201d565b60208301905092915050565b6000602082019050919050565b600061205c82611ff1565b6120668185611ffc565b93506120718361200d565b8060005b838110156120a2578151612089888261202c565b975061209483612044565b925050600181019050612075565b5085935050505092915050565b600060208201905081810360008301526120c98184612051565b905092915050565b60008115159050919050565b6120e6816120d1565b81146120f157600080fd5b50565b600081359050612103816120dd565b92915050565b600080604083850312156121205761211f611ecf565b5b600061212e85828601611f85565b925050602061213f858286016120f4565b9150509250929050565b6000819050919050565b61215c81612149565b811461216757600080fd5b50565b60008135905061217981612153565b92915050565b6000806040838503121561219657612195611ecf565b5b60006121a485828601611f22565b92505060206121b58582860161216a565b9150509250929050565b6121c8816120d1565b82525050565b60006020820190506121e360008301846121bf565b92915050565b6000602082840312156121ff576121fe611ecf565b5b600061220d8482850161216a565b91505092915050565b600081519050919050565b600082825260208201905092915050565b6000819050602082019050919050565b61224b81611f64565b82525050565b600061225d8383612242565b60208301905092915050565b6000602082019050919050565b600061228182612216565b61228b8185612221565b935061229683612232565b8060005b838110156122c75781516122ae8882612251565b97506122b983612269565b92505060018101905061229a565b5085935050505092915050565b600060208201905081810360008301526122ee8184612276565b905092915050565b6122ff81612149565b82525050565b600060208201905061231a60008301846122f6565b92915050565b600080fd5b6000601f19601f8301169050919050565b7f4e487b7100000000000000000000000000000000000000000000000000000000600052604160045260246000fd5b61236e82612325565b810181811067ffffffffffffffff8211171561238d5761238c612336565b5b80604052505050565b60006123a0611ec5565b90506123ac8282612365565b919050565b600067ffffffffffffffff8211156123cc576123cb612336565b5b602082029050602081019050919050565b600080fd5b600080fd5b6000606082840312156123fd576123fc6123e2565b5b6124076060612396565b9050600061241784828501611f85565b600083015250602061242b84828501611f22565b602083015250604061243f8482850161216a565b60408301525092915050565b600061245e612459846123b1565b612396565b90508083825260208201905060608402830185811115612481576124806123dd565b5b835b818110156124aa578061249688826123e7565b845260208401935050606081019050612483565b5050509392505050565b600082601f8301126124c9576124c8612320565b5b81356124d984826020860161244b565b91505092915050565b600067ffffffffffffffff8211156124fd576124fc612336565b5b602082029050602081019050919050565b600060408284031215612524576125236123e2565b5b61252e6040612396565b9050600061253e84828501611f85565b600083015250602061255284828501611f22565b60208301525092915050565b600061257161256c846124e2565b612396565b90508083825260208201905060408402830185811115612594576125936123dd565b5b835b818110156125bd57806125a9888261250e565b845260208401935050604081019050612596565b5050509392505050565b600082601f8301126125dc576125db612320565b5b81356125ec84826020860161255e565b91505092915050565b6000806040838503121561260c5761260b611ecf565b5b600083013567ffffffffffffffff81111561262a57612629611ed4565b5b612636858286016124b4565b925050602083013567ffffffffffffffff81111561265757612656611ed4565b5b612663858286016125c7565b9150509250929050565b60006020828403121561268357612682611ecf565b5b600082013567ffffffffffffffff8111156126a1576126a0611ed4565b5b6126ad848285016124b4565b91505092915050565b600067ffffffffffffffff8211156126d1576126d0612336565b5b602082029050602081019050919050565b60006126f56126f0846126b6565b612396565b90508083825260208201905060208402830185811115612718576127176123dd565b5b835b81811015612741578061272d8882611f85565b84526020840193505060208101905061271a565b5050509392505050565b600082601f8301126127605761275f612320565b5b81356127708482602086016126e2565b91505092915050565b60006020828403121561278f5761278e611ecf565b5b600082013567ffffffffffffffff8111156127ad576127ac611ed4565b5b6127b98482850161274b565b91505092915050565b6000602082840312156127d8576127d7611ecf565b5b600082013567ffffffffffffffff8111156127f6576127f5611ed4565b5b612802848285016125c7565b91505092915050565b61281481611f64565b82525050565b600060208201905061282f600083018461280b565b92915050565b600082825260208201905092915050565b7f4f776e61626c653a2063616c6c6572206973206e6f7420746865206f776e6572600082015250565b600061287c602083612835565b915061288782612846565b602082019050919050565b600060208201905081810360008301526128ab8161286f565b9050919050565b7f4d75737420626520696e61637469766500000000000000000000000000000000600082015250565b60006128e8601083612835565b91506128f3826128b2565b602082019050919050565b60006020820190508181036000830152612917816128db565b9050919050565b60006040820190506129336000830185611fc7565b61294060208301846122f6565b9392505050565b7f506f6f6c206173736574206e6f7420737570706f727465642e00000000000000600082015250565b600061297d601983612835565b915061298882612947565b602082019050919050565b600060208201905081810360008301526129ac81612970565b9050919050565b7f4173736574206e6f7420737570706f727465642e000000000000000000000000600082015250565b60006129e9601483612835565b91506129f4826129b3565b602082019050919050565b60006020820190508181036000830152612a18816129dc565b9050919050565b7f417373657420696e616374697665000000000000000000000000000000000000600082015250565b6000612a55600e83612835565b9150612a6082612a1f565b602082019050919050565b60006020820190508181036000830152612a8481612a48565b9050919050565b7f4465627420636f76657261676520686967686572207468616e206d6178696d7560008201527f6d2061636365707461626c650000000000000000000000000000000000000000602082015250565b6000612ae7602c83612835565b9150612af282612a8b565b604082019050919050565b60006020820190508181036000830152612b1681612ada565b9050919050565b7f4d75737420626520616374697665000000000000000000000000000000000000600082015250565b6000612b53600e83612835565b9150612b5e82612b1d565b602082019050919050565b60006020820190508181036000830152612b8281612b46565b9050919050565b7f496e697469616c697a61626c653a20636f6e747261637420697320616c72656160008201527f647920696e697469616c697a6564000000000000000000000000000000000000602082015250565b6000612be5602e83612835565b9150612bf082612b89565b604082019050919050565b60006020820190508181036000830152612c1481612bd8565b9050919050565b7f4e487b7100000000000000000000000000000000000000000000000000000000600052603260045260246000fd5b7f4e487b7100000000000000000000000000000000000000000000000000000000600052601160045260246000fd5b6000612c8482612149565b91507fffffffffffffffffffffffffffffffffffffffffffffffffffffffffffffffff8203612cb657612cb5612c4a565b5b600182019050919050565b7f4f776e61626c653a206e6577206f776e657220697320746865207a65726f206160008201527f6464726573730000000000000000000000000000000000000000000000000000602082015250565b6000612d1d602683612835565b9150612d2882612cc1565b604082019050919050565b60006020820190508181036000830152612d4c81612d10565b9050919050565b7f496e697469616c697a61626c653a20636f6e7472616374206973206e6f74206960008201527f6e697469616c697a696e67000000000000000000000000000000000000000000602082015250565b6000612daf602b83612835565b9150612dba82612d53565b604082019050919050565b60006020820190508181036000830152612dde81612da2565b9050919050565b7f43616e6e6f742073657420616e20656d70747920737472696e6720617373657460008201527f2e00000000000000000000000000000000000000000000000000000000000000602082015250565b6000612e41602183612835565b9150612e4c82612de5565b604082019050919050565b60006020820190508181036000830152612e7081612e34565b9050919050565b7f43616e6e6f742073657420616e20656d70747920616464726573732e00000000600082015250565b6000612ead601c83612835565b9150612eb882612e77565b602082019050919050565b60006020820190508181036000830152612edc81612ea0565b9050919050565b7f4173736574277320746f6b656e20616c72656164792065786973747300000000600082015250565b6000612f19601c83612835565b9150612f2482612ee3565b602082019050919050565b60006020820190508181036000830152612f4881612f0c565b9050919050565b7f4173736574206164647265737320697320616c726561647920696e2075736500600082015250565b6000612f85601f83612835565b9150612f9082612f4f565b602082019050919050565b60006020820190508181036000830152612fb481612f78565b9050919050565b6000612fc682612149565b9150612fd183612149565b9250828203905081811115612fe957612fe8612c4a565b5b92915050565b7f546f6b656e4d616e616765723a20506f6f6c206d757374206265206120636f6e60008201527f7472616374000000000000000000000000000000000000000000000000000000602082015250565b600061304b602583612835565b915061305682612fef565b604082019050919050565b6000602082019050818103600083015261307a8161303e565b9050919050565b7f4173736574277320706f6f6c20616c7265616479206578697374730000000000600082015250565b60006130b7601b83612835565b91506130c282613081565b602082019050919050565b600060208201905081810360008301526130e6816130aa565b9050919050565b7f4e487b7100000000000000000000000000000000000000000000000000000000600052603160045260246000fdfea26469706673582212206bf16985baa8b2bd0735a1de27585a4b766d1418a940c0c4a216793bd0db4cd064736f6c63430008110033",
  "devdoc": {
    "events": {
      "PoolAssetAdded(address,bytes32,address,uint256)": {
        "details": "emitted after adding a pool asset",
        "params": {
          "performer": "an address of wallet adding the pool asset",
          "poolAddress": "an address of the pool asset",
          "poolAsset": "pool asset",
          "timestamp": "time of the pool asset addition*"
        }
      },
      "PoolAssetRemoved(address,bytes32,address,uint256)": {
        "details": "emitted after removing a pool asset",
        "params": {
          "performer": "an address of wallet removing the pool asset",
          "poolAddress": "an address of the pool asset",
          "poolAsset": "pool asset",
          "timestamp": "time of a pool asset removal*"
        }
      },
      "TokenAssetActivated(address,address,uint256)": {
        "details": "emitted after activating a token asset",
        "params": {
          "assetAddress": "an address of the token asset",
          "performer": "an address of the wallet activating a token asset",
          "timestamp": "time of activating a token asset*"
        }
      },
      "TokenAssetAdded(address,bytes32,address,uint256)": {
        "details": "emitted after adding a token asset",
        "params": {
          "assetAddress": "an address of the token asset",
          "performer": "an address of the wallet adding a token asset",
          "timestamp": "time of adding a token asset*",
          "tokenAsset": "token asset"
        }
      },
      "TokenAssetDeactivated(address,address,uint256)": {
        "details": "emitted after deactivating a token asset",
        "params": {
          "assetAddress": "an address of the token asset",
          "performer": "an address of the wallet deactivating a token asset",
          "timestamp": "time of deactivating a token asset*"
        }
      },
      "TokenAssetRemoved(address,bytes32,uint256)": {
        "details": "emitted after removing a token asset",
        "params": {
          "performer": "an address of the wallet removing a token asset",
          "timestamp": "time a token asset removal*",
          "tokenAsset": "token asset"
        }
      }
    },
    "kind": "dev",
    "methods": {
      "owner()": {
        "details": "Returns the address of the current owner."
      },
      "renounceOwnership()": {
        "details": "Leaves the contract without owner. It will not be possible to call `onlyOwner` functions anymore. Can only be called by the current owner. NOTE: Renouncing ownership will leave the contract without an owner, thereby removing any functionality that is only available to the owner."
      },
      "transferOwnership(address)": {
        "details": "Transfers ownership of the contract to a new account (`newOwner`). Can only be called by the current owner."
      }
    },
    "version": 1
  },
  "userdoc": {
    "kind": "user",
    "methods": {
      "getAssetAddress(bytes32,bool)": {
        "notice": "Returns address of an asset*"
      },
      "getPoolAddress(bytes32)": {
        "notice": "Returns address of an asset's lending pool*"
      }
    },
    "version": 1
  },
  "storageLayout": {
    "storage": [
      {
        "astId": 130,
        "contract": "contracts/TokenManager.sol:TokenManager",
        "label": "_initialized",
        "offset": 0,
        "slot": "0",
        "type": "t_bool"
      },
      {
        "astId": 133,
        "contract": "contracts/TokenManager.sol:TokenManager",
        "label": "_initializing",
        "offset": 1,
        "slot": "0",
        "type": "t_bool"
      },
      {
        "astId": 540,
        "contract": "contracts/TokenManager.sol:TokenManager",
        "label": "__gap",
        "offset": 0,
        "slot": "1",
        "type": "t_array(t_uint256)50_storage"
      },
      {
        "astId": 10,
        "contract": "contracts/TokenManager.sol:TokenManager",
        "label": "_owner",
        "offset": 0,
        "slot": "51",
        "type": "t_address"
      },
      {
        "astId": 122,
        "contract": "contracts/TokenManager.sol:TokenManager",
        "label": "__gap",
        "offset": 0,
        "slot": "52",
        "type": "t_array(t_uint256)49_storage"
      },
      {
        "astId": 11125,
        "contract": "contracts/TokenManager.sol:TokenManager",
        "label": "assetToPoolAddress",
        "offset": 0,
        "slot": "101",
        "type": "t_struct(Bytes32ToAddressMap)22454_storage"
      },
      {
        "astId": 11128,
        "contract": "contracts/TokenManager.sol:TokenManager",
        "label": "assetToTokenAddress",
        "offset": 0,
        "slot": "104",
        "type": "t_struct(Bytes32ToAddressMap)22454_storage"
      },
      {
        "astId": 11132,
        "contract": "contracts/TokenManager.sol:TokenManager",
        "label": "tokenAddressToSymbol",
        "offset": 0,
        "slot": "107",
        "type": "t_mapping(t_address,t_bytes32)"
      },
      {
        "astId": 11136,
        "contract": "contracts/TokenManager.sol:TokenManager",
        "label": "tokenPositionInList",
        "offset": 0,
        "slot": "108",
        "type": "t_mapping(t_address,t_uint256)"
      },
      {
        "astId": 11140,
        "contract": "contracts/TokenManager.sol:TokenManager",
        "label": "debtCoverage",
        "offset": 0,
        "slot": "109",
        "type": "t_mapping(t_address,t_uint256)"
      },
      {
        "astId": 11143,
        "contract": "contracts/TokenManager.sol:TokenManager",
        "label": "supportedTokensList",
        "offset": 0,
        "slot": "110",
        "type": "t_array(t_address)dyn_storage"
      },
      {
        "astId": 11147,
        "contract": "contracts/TokenManager.sol:TokenManager",
        "label": "tokenToStatus",
        "offset": 0,
        "slot": "111",
        "type": "t_mapping(t_address,t_uint256)"
      }
    ],
    "types": {
      "t_address": {
        "encoding": "inplace",
        "label": "address",
        "numberOfBytes": "20"
      },
      "t_array(t_address)dyn_storage": {
        "base": "t_address",
        "encoding": "dynamic_array",
        "label": "address[]",
        "numberOfBytes": "32"
      },
      "t_array(t_bytes32)dyn_storage": {
        "base": "t_bytes32",
        "encoding": "dynamic_array",
        "label": "bytes32[]",
        "numberOfBytes": "32"
      },
      "t_array(t_uint256)49_storage": {
        "base": "t_uint256",
        "encoding": "inplace",
        "label": "uint256[49]",
        "numberOfBytes": "1568"
      },
      "t_array(t_uint256)50_storage": {
        "base": "t_uint256",
        "encoding": "inplace",
        "label": "uint256[50]",
        "numberOfBytes": "1600"
      },
      "t_bool": {
        "encoding": "inplace",
        "label": "bool",
        "numberOfBytes": "1"
      },
      "t_bytes32": {
        "encoding": "inplace",
        "label": "bytes32",
        "numberOfBytes": "32"
      },
      "t_mapping(t_address,t_bytes32)": {
        "encoding": "mapping",
        "key": "t_address",
        "label": "mapping(address => bytes32)",
        "numberOfBytes": "32",
        "value": "t_bytes32"
      },
      "t_mapping(t_address,t_uint256)": {
        "encoding": "mapping",
        "key": "t_address",
        "label": "mapping(address => uint256)",
        "numberOfBytes": "32",
        "value": "t_uint256"
      },
      "t_mapping(t_bytes32,t_bytes32)": {
        "encoding": "mapping",
        "key": "t_bytes32",
        "label": "mapping(bytes32 => bytes32)",
        "numberOfBytes": "32",
        "value": "t_bytes32"
      },
      "t_mapping(t_bytes32,t_uint256)": {
        "encoding": "mapping",
        "key": "t_bytes32",
        "label": "mapping(bytes32 => uint256)",
        "numberOfBytes": "32",
        "value": "t_uint256"
      },
      "t_struct(Bytes32Set)4321_storage": {
        "encoding": "inplace",
        "label": "struct EnumerableSet.Bytes32Set",
        "members": [
          {
            "astId": 4320,
            "contract": "contracts/TokenManager.sol:TokenManager",
            "label": "_inner",
            "offset": 0,
            "slot": "0",
            "type": "t_struct(Set)4127_storage"
          }
        ],
        "numberOfBytes": "64"
      },
      "t_struct(Bytes32ToAddressMap)22454_storage": {
        "encoding": "inplace",
        "label": "struct EnumerableMap.Bytes32ToAddressMap",
        "members": [
          {
            "astId": 22453,
            "contract": "contracts/TokenManager.sol:TokenManager",
            "label": "_inner",
            "offset": 0,
            "slot": "0",
            "type": "t_struct(Map)22224_storage"
          }
        ],
        "numberOfBytes": "96"
      },
      "t_struct(Map)22224_storage": {
        "encoding": "inplace",
        "label": "struct EnumerableMap.Map",
        "members": [
          {
            "astId": 22219,
            "contract": "contracts/TokenManager.sol:TokenManager",
            "label": "_keys",
            "offset": 0,
            "slot": "0",
            "type": "t_struct(Bytes32Set)4321_storage"
          },
          {
            "astId": 22223,
            "contract": "contracts/TokenManager.sol:TokenManager",
            "label": "_values",
            "offset": 0,
            "slot": "2",
            "type": "t_mapping(t_bytes32,t_bytes32)"
          }
        ],
        "numberOfBytes": "96"
      },
      "t_struct(Set)4127_storage": {
        "encoding": "inplace",
        "label": "struct EnumerableSet.Set",
        "members": [
          {
            "astId": 4122,
            "contract": "contracts/TokenManager.sol:TokenManager",
            "label": "_values",
            "offset": 0,
            "slot": "0",
            "type": "t_array(t_bytes32)dyn_storage"
          },
          {
            "astId": 4126,
            "contract": "contracts/TokenManager.sol:TokenManager",
            "label": "_indexes",
            "offset": 0,
            "slot": "1",
            "type": "t_mapping(t_bytes32,t_uint256)"
          }
        ],
        "numberOfBytes": "64"
      },
      "t_uint256": {
        "encoding": "inplace",
        "label": "uint256",
        "numberOfBytes": "32"
      }
    }
  }
}