{
  "address": "0x99983B1427Db9a30eAbB2dFA90C7f659d215aE61",
  "abi": [
    {
      "inputs": [],
      "name": "CalldataMustHaveValidPayload",
      "type": "error"
    },
    {
      "inputs": [],
      "name": "CalldataOverOrUnderFlow",
      "type": "error"
    },
    {
      "inputs": [],
      "name": "EachSignerMustProvideTheSameValue",
      "type": "error"
    },
    {
      "inputs": [],
      "name": "EmptyCalldataPointersArr",
      "type": "error"
    },
    {
      "inputs": [],
      "name": "IncorrectUnsignedMetadataSize",
      "type": "error"
    },
    {
      "inputs": [
        {
          "internalType": "uint256",
          "name": "receviedSignersCount",
          "type": "uint256"
        },
        {
          "internalType": "uint256",
          "name": "requiredSignersCount",
          "type": "uint256"
        }
      ],
      "name": "InsufficientNumberOfUniqueSigners",
      "type": "error"
    },
    {
      "inputs": [],
      "name": "InvalidCalldataPointer",
      "type": "error"
    },
    {
      "inputs": [
        {
          "internalType": "bytes",
          "name": "result",
          "type": "bytes"
        }
      ],
      "name": "ProxyCalldataFailedWithCustomError",
      "type": "error"
    },
    {
      "inputs": [
        {
          "internalType": "string",
          "name": "message",
          "type": "string"
        }
      ],
      "name": "ProxyCalldataFailedWithStringMessage",
      "type": "error"
    },
    {
      "inputs": [],
      "name": "ProxyCalldataFailedWithoutErrMsg",
      "type": "error"
    },
    {
      "inputs": [
        {
          "internalType": "address",
          "name": "receivedSigner",
          "type": "address"
        }
      ],
      "name": "SignerNotAuthorised",
      "type": "error"
    },
    {
      "anonymous": false,
      "inputs": [
        {
          "indexed": true,
          "internalType": "address",
          "name": "user",
          "type": "address"
        },
        {
          "indexed": true,
          "internalType": "address",
          "name": "lpToken",
          "type": "address"
        },
        {
          "indexed": false,
          "internalType": "bytes32",
          "name": "firstAsset",
          "type": "bytes32"
        },
        {
          "indexed": false,
          "internalType": "bytes32",
          "name": "secondAsset",
          "type": "bytes32"
        },
        {
          "indexed": false,
          "internalType": "uint256",
          "name": "liquidity",
          "type": "uint256"
        },
        {
          "indexed": false,
          "internalType": "uint256",
          "name": "firstAmount",
          "type": "uint256"
        },
        {
          "indexed": false,
          "internalType": "uint256",
          "name": "secondAmount",
          "type": "uint256"
        },
        {
          "indexed": false,
          "internalType": "uint256",
          "name": "timestamp",
          "type": "uint256"
        }
      ],
      "name": "AddLiquidity",
      "type": "event"
    },
    {
      "anonymous": false,
      "inputs": [
        {
          "indexed": true,
          "internalType": "address",
          "name": "user",
          "type": "address"
        },
        {
          "indexed": true,
          "internalType": "address",
          "name": "lpToken",
          "type": "address"
        },
        {
          "indexed": false,
          "internalType": "bytes32",
          "name": "firstAsset",
          "type": "bytes32"
        },
        {
          "indexed": false,
          "internalType": "bytes32",
          "name": "secondAsset",
          "type": "bytes32"
        },
        {
          "indexed": false,
          "internalType": "uint256",
          "name": "liquidity",
          "type": "uint256"
        },
        {
          "indexed": false,
          "internalType": "uint256",
          "name": "firstAmount",
          "type": "uint256"
        },
        {
          "indexed": false,
          "internalType": "uint256",
          "name": "secondAmount",
          "type": "uint256"
        },
        {
          "indexed": false,
          "internalType": "uint256",
          "name": "timestamp",
          "type": "uint256"
        }
      ],
      "name": "RemoveLiquidity",
      "type": "event"
    },
    {
      "anonymous": false,
      "inputs": [
        {
          "indexed": true,
          "internalType": "address",
          "name": "user",
          "type": "address"
        },
        {
          "indexed": true,
          "internalType": "bytes32",
          "name": "soldAsset",
          "type": "bytes32"
        },
        {
          "indexed": true,
          "internalType": "bytes32",
          "name": "boughtAsset",
          "type": "bytes32"
        },
        {
          "indexed": false,
          "internalType": "uint256",
          "name": "maximumSold",
          "type": "uint256"
        },
        {
          "indexed": false,
          "internalType": "uint256",
          "name": "minimumBought",
          "type": "uint256"
        },
        {
          "indexed": false,
          "internalType": "uint256",
          "name": "timestamp",
          "type": "uint256"
        }
      ],
      "name": "Swap",
      "type": "event"
    },
    {
      "inputs": [
        {
          "internalType": "bytes32[]",
          "name": "assetsToRepay",
          "type": "bytes32[]"
        }
      ],
      "name": "_getAllPricesForLiquidation",
      "outputs": [
        {
          "components": [
            {
              "components": [
                {
                  "internalType": "bytes32",
                  "name": "asset",
                  "type": "bytes32"
                },
                {
                  "internalType": "uint256",
                  "name": "price",
                  "type": "uint256"
                }
              ],
              "internalType": "struct SolvencyFacetProd.AssetPrice[]",
              "name": "ownedAssetsPrices",
              "type": "tuple[]"
            },
            {
              "components": [
                {
                  "internalType": "bytes32",
                  "name": "asset",
                  "type": "bytes32"
                },
                {
                  "internalType": "uint256",
                  "name": "price",
                  "type": "uint256"
                }
              ],
              "internalType": "struct SolvencyFacetProd.AssetPrice[]",
              "name": "debtAssetsPrices",
              "type": "tuple[]"
            },
            {
              "components": [
                {
                  "internalType": "bytes32",
                  "name": "asset",
                  "type": "bytes32"
                },
                {
                  "internalType": "uint256",
                  "name": "price",
                  "type": "uint256"
                }
              ],
              "internalType": "struct SolvencyFacetProd.AssetPrice[]",
              "name": "stakedPositionsPrices",
              "type": "tuple[]"
            },
            {
              "components": [
                {
                  "internalType": "bytes32",
                  "name": "asset",
                  "type": "bytes32"
                },
                {
                  "internalType": "uint256",
                  "name": "price",
                  "type": "uint256"
                }
              ],
              "internalType": "struct SolvencyFacetProd.AssetPrice[]",
              "name": "assetsToRepayPrices",
              "type": "tuple[]"
            }
          ],
          "internalType": "struct SolvencyFacetProd.CachedPrices",
          "name": "result",
          "type": "tuple"
        }
      ],
      "stateMutability": "nonpayable",
      "type": "function"
    },
    {
      "inputs": [],
      "name": "_getHealthRatio",
      "outputs": [
        {
          "internalType": "uint256",
          "name": "health",
          "type": "uint256"
        }
      ],
      "stateMutability": "nonpayable",
      "type": "function"
    },
    {
      "inputs": [
        {
          "components": [
            {
              "components": [
                {
                  "internalType": "bytes32",
                  "name": "asset",
                  "type": "bytes32"
                },
                {
                  "internalType": "uint256",
                  "name": "price",
                  "type": "uint256"
                }
              ],
              "internalType": "struct SolvencyFacetProd.AssetPrice[]",
              "name": "ownedAssetsPrices",
              "type": "tuple[]"
            },
            {
              "components": [
                {
                  "internalType": "bytes32",
                  "name": "asset",
                  "type": "bytes32"
                },
                {
                  "internalType": "uint256",
                  "name": "price",
                  "type": "uint256"
                }
              ],
              "internalType": "struct SolvencyFacetProd.AssetPrice[]",
              "name": "debtAssetsPrices",
              "type": "tuple[]"
            },
            {
              "components": [
                {
                  "internalType": "bytes32",
                  "name": "asset",
                  "type": "bytes32"
                },
                {
                  "internalType": "uint256",
                  "name": "price",
                  "type": "uint256"
                }
              ],
              "internalType": "struct SolvencyFacetProd.AssetPrice[]",
              "name": "stakedPositionsPrices",
              "type": "tuple[]"
            },
            {
              "components": [
                {
                  "internalType": "bytes32",
                  "name": "asset",
                  "type": "bytes32"
                },
                {
                  "internalType": "uint256",
                  "name": "price",
                  "type": "uint256"
                }
              ],
              "internalType": "struct SolvencyFacetProd.AssetPrice[]",
              "name": "assetsToRepayPrices",
              "type": "tuple[]"
            }
          ],
          "internalType": "struct SolvencyFacetProd.CachedPrices",
          "name": "cachedPrices",
          "type": "tuple"
        }
      ],
      "name": "_getHealthRatioWithPrices",
      "outputs": [
        {
          "internalType": "uint256",
          "name": "health",
          "type": "uint256"
        }
      ],
      "stateMutability": "nonpayable",
      "type": "function"
    },
    {
      "inputs": [
        {
          "internalType": "bytes32",
          "name": "_firstAsset",
          "type": "bytes32"
        },
        {
          "internalType": "bytes32",
          "name": "_secondAsset",
          "type": "bytes32"
        },
        {
          "internalType": "uint256",
          "name": "amountADesired",
          "type": "uint256"
        },
        {
          "internalType": "uint256",
          "name": "amountBDesired",
          "type": "uint256"
        },
        {
          "internalType": "uint256",
          "name": "amountAMin",
          "type": "uint256"
        },
        {
          "internalType": "uint256",
          "name": "amountBMin",
          "type": "uint256"
        }
      ],
      "name": "addLiquidityTraderJoe",
      "outputs": [],
      "stateMutability": "nonpayable",
      "type": "function"
    },
    {
      "inputs": [
        {
          "internalType": "bytes32",
          "name": "_bytes32",
          "type": "bytes32"
        }
      ],
      "name": "bytes32ToString",
      "outputs": [
        {
          "internalType": "string",
          "name": "",
          "type": "string"
        }
      ],
      "stateMutability": "pure",
      "type": "function"
    },
    {
      "inputs": [],
      "name": "getExchangeIntermediaryContract",
      "outputs": [
        {
          "internalType": "address",
          "name": "",
          "type": "address"
        }
      ],
      "stateMutability": "nonpayable",
      "type": "function"
    },
    {
      "inputs": [
        {
          "internalType": "bytes32",
          "name": "symbol",
          "type": "bytes32"
        }
      ],
      "name": "getPrice",
      "outputs": [
        {
          "internalType": "uint256",
          "name": "price",
          "type": "uint256"
        }
      ],
      "stateMutability": "nonpayable",
      "type": "function"
    },
    {
      "inputs": [
        {
          "internalType": "bytes32[]",
          "name": "symbols",
          "type": "bytes32[]"
        }
      ],
      "name": "getPrices",
      "outputs": [
        {
          "internalType": "uint256[]",
          "name": "prices",
          "type": "uint256[]"
        }
      ],
      "stateMutability": "nonpayable",
      "type": "function"
    },
    {
      "inputs": [
        {
          "internalType": "bytes32",
          "name": "_firstAsset",
          "type": "bytes32"
        },
        {
          "internalType": "bytes32",
          "name": "_secondAsset",
          "type": "bytes32"
        },
        {
          "internalType": "uint256",
          "name": "liquidity",
          "type": "uint256"
        },
        {
          "internalType": "uint256",
          "name": "amountAMin",
          "type": "uint256"
        },
        {
          "internalType": "uint256",
          "name": "amountBMin",
          "type": "uint256"
        }
      ],
      "name": "removeLiquidityTraderJoe",
      "outputs": [],
      "stateMutability": "nonpayable",
      "type": "function"
    },
    {
      "inputs": [
        {
          "internalType": "string",
          "name": "source",
          "type": "string"
        }
      ],
      "name": "stringToBytes32",
      "outputs": [
        {
          "internalType": "bytes32",
          "name": "result",
          "type": "bytes32"
        }
      ],
      "stateMutability": "pure",
      "type": "function"
    },
    {
      "inputs": [
        {
          "internalType": "bytes32",
          "name": "_soldAsset",
          "type": "bytes32"
        },
        {
          "internalType": "bytes32",
          "name": "_boughtAsset",
          "type": "bytes32"
        },
        {
          "internalType": "uint256",
          "name": "_exactSold",
          "type": "uint256"
        },
        {
          "internalType": "uint256",
          "name": "_minimumBought",
          "type": "uint256"
        }
      ],
      "name": "swapTraderJoe",
      "outputs": [
        {
          "internalType": "uint256[]",
          "name": "",
          "type": "uint256[]"
        }
      ],
      "stateMutability": "nonpayable",
      "type": "function"
    }
  ],
  "transactionHash": "0x7f41e7bfa7ff41a9758acf8e0137423a8416498d34bb155b471ea5df2e664760",
  "args": [],
  "numDeployments": 2,
  "solcInputHash": "05ee65db08456d97a7c820b4007dca51",
  "bytecode": "0x608060405234801561001057600080fd5b506001600081905550613ba5806100286000396000f3fe608060405234801561001057600080fd5b50600436106100a95760003560e01c80636e3bfe9f116100715780636e3bfe9f146101665780639201de5514610196578063b2d40e73146101c6578063ce79b024146101f6578063cfb5192814610212578063d9c2515f14610242576100a9565b806326ee4836146100ae57806331d98b3f146100de57806339e2719e1461010e5780633be4934e1461012c578063640adf7814610148575b600080fd5b6100c860048036038101906100c391906122f7565b610272565b6040516100d59190612408565b60405180910390f35b6100f860048036038101906100f3919061242a565b61031c565b6040516101059190612466565b60405180910390f35b6101166103c6565b6040516101239190612466565b60405180910390f35b610146600480360381019061014191906124ad565b610463565b005b610150610481565b60405161015d919061257b565b60405180910390f35b610180600480360381019061017b919061279b565b61049d565b60405161018d9190612466565b60405180910390f35b6101b060048036038101906101ab919061242a565b610547565b6040516101bd9190612863565b60405180910390f35b6101e060048036038101906101db91906122f7565b6106e2565b6040516101ed91906129ea565b60405180910390f35b610210600480360381019061020b9190612a0c565b610792565b005b61022c60048036038101906102279190612b3c565b6107ae565b6040516102399190612b94565b60405180910390f35b61025c60048036038101906102579190612baf565b6107d7565b6040516102699190612408565b60405180910390f35b60606103026102876326ee483660e01b6107f7565b6326ee483660e01b846040516024016102a09190612cc5565b604051602081830303815290604052907bffffffffffffffffffffffffffffffffffffffffffffffffffffffff19166020820180517bffffffffffffffffffffffffffffffffffffffffffffffffffffffff8381831617835250505050610881565b8060200190518101906103159190612dbf565b9050919050565b60006103ac6103316331d98b3f60e01b6107f7565b6331d98b3f60e01b8460405160240161034a9190612b94565b604051602081830303815290604052907bffffffffffffffffffffffffffffffffffffffffffffffffffffffff19166020820180517bffffffffffffffffffffffffffffffffffffffffffffffffffffffff8381831617835250505050610881565b8060200190518101906103bf9190612e08565b9050919050565b600061044b6103db637914334f60e01b6107f7565b637914334f60e01b604051602401604051602081830303815290604052907bffffffffffffffffffffffffffffffffffffffffffffffffffffffff19166020820180517bffffffffffffffffffffffffffffffffffffffffffffffffffffffff8381831617835250505050610881565b80602001905181019061045e9190612e08565b905090565b61046b610912565b6104798686868686866109ad565b505050505050565b60007383cd0aaef0c35c5a19a4081625bbcf1cc5e1c3ed905090565b600061052d6104b263360398a360e01b6107f7565b63360398a360e01b846040516024016104cb91906129ea565b604051602081830303815290604052907bffffffffffffffffffffffffffffffffffffffffffffffffffffffff19166020820180517bffffffffffffffffffffffffffffffffffffffffffffffffffffffff8381831617835250505050610881565b8060200190518101906105409190612e08565b9050919050565b606060005b60208160ff1610801561059e5750600060f81b838260ff166020811061057557610574612e35565b5b1a60f81b7effffffffffffffffffffffffffffffffffffffffffffffffffffffffffffff191614155b156105b65780806105ae90612ea0565b91505061054c565b60008160ff1667ffffffffffffffff8111156105d5576105d461217e565b5b6040519080825280601f01601f1916602001820160405280156106075781602001600182028036833780820191505090505b509050600091505b60208260ff161080156106615750600060f81b848360ff166020811061063857610637612e35565b5b1a60f81b7effffffffffffffffffffffffffffffffffffffffffffffffffffffffffffff191614155b156106d857838260ff166020811061067c5761067b612e35565b5b1a60f81b818360ff168151811061069657610695612e35565b5b60200101907effffffffffffffffffffffffffffffffffffffffffffffffffffffffffffff1916908160001a90535081806106d090612ea0565b92505061060f565b8092505050919050565b6106ea61212c565b6107786106fd63a3aa8d1e60e01b6107f7565b63a3aa8d1e60e01b846040516024016107169190612cc5565b604051602081830303815290604052907bffffffffffffffffffffffffffffffffffffffffffffffffffffffff19166020820180517bffffffffffffffffffffffffffffffffffffffffffffffffffffffff8381831617835250505050610881565b80602001905181019061078b91906130ad565b9050919050565b61079a610912565b6107a78585858585610edb565b5050505050565b60008082905060008151036107c9576000801b9150506107d2565b60208301519150505b919050565b60606107e1610912565b6107ed858585856111ce565b9050949350505050565b6000610801611606565b73ffffffffffffffffffffffffffffffffffffffff16630d741577836040518263ffffffff1660e01b81526004016108399190613131565b602060405180830381865afa158015610856573d6000803e3d6000fd5b505050506040513d601f19601f8201168201806040525081019061087a9190613178565b9050919050565b6060600061088e83611622565b90506000808573ffffffffffffffffffffffffffffffffffffffff16836040516108b891906131ec565b600060405180830381855af49150503d80600081146108f3576040519150601f19603f3d011682016040523d82523d6000602084013e6108f8565b606091505b509150915061090782826116dc565b935050505092915050565b61091a6117dc565b60010160009054906101000a900473ffffffffffffffffffffffffffffffffffffffff1673ffffffffffffffffffffffffffffffffffffffff163373ffffffffffffffffffffffffffffffffffffffff16146109ab576040517f08c379a00000000000000000000000000000000000000000000000000000000081526004016109a290613275565b60405180910390fd5b565b60006109ba876000611809565b905060006109c9876000611809565b9050858273ffffffffffffffffffffffffffffffffffffffff166370a08231306040518263ffffffff1660e01b8152600401610a05919061257b565b602060405180830381865afa158015610a22573d6000803e3d6000fd5b505050506040513d601f19601f82011682018060405250810190610a469190612e08565b1015610a87576040517f08c379a0000000000000000000000000000000000000000000000000000000008152600401610a7e906132e1565b60405180910390fd5b848173ffffffffffffffffffffffffffffffffffffffff166370a08231306040518263ffffffff1660e01b8152600401610ac1919061257b565b602060405180830381865afa158015610ade573d6000803e3d6000fd5b505050506040513d601f19601f82011682018060405250810190610b029190612e08565b1015610b43576040517f08c379a0000000000000000000000000000000000000000000000000000000008152600401610b3a9061334d565b60405180910390fd5b610b75610b4e610481565b878473ffffffffffffffffffffffffffffffffffffffff166118969092919063ffffffff16565b610ba7610b80610481565b868373ffffffffffffffffffffffffffffffffffffffff166118969092919063ffffffff16565b6000610bb1610481565b90506000808273ffffffffffffffffffffffffffffffffffffffff16633351733f86868c8c8c8c6040518763ffffffff1660e01b8152600401610bf99695949392919061336d565b6080604051808303816000875af1158015610c18573d6000803e3d6000fd5b505050506040513d601f19601f82011682018060405250810190610c3c91906133ce565b809450819b50829c508395505050505060008273ffffffffffffffffffffffffffffffffffffffff166370a08231306040518263ffffffff1660e01b8152600401610c87919061257b565b602060405180830381865afa158015610ca4573d6000803e3d6000fd5b505050506040513d601f19601f82011682018060405250810190610cc89190612e08565b1115610d02576000808b8d10610cdf578b8d610ce2565b8c8c5b915091506000610cf283836119cc565b9050610cfe8186611a21565b5050505b60008573ffffffffffffffffffffffffffffffffffffffff166370a08231306040518263ffffffff1660e01b8152600401610d3d919061257b565b602060405180830381865afa158015610d5a573d6000803e3d6000fd5b505050506040513d601f19601f82011682018060405250810190610d7e9190612e08565b03610d8d57610d8c8b611af3565b5b60008473ffffffffffffffffffffffffffffffffffffffff166370a08231306040518263ffffffff1660e01b8152600401610dc8919061257b565b602060405180830381865afa158015610de5573d6000803e3d6000fd5b505050506040513d601f19601f82011682018060405250810190610e099190612e08565b03610e1857610e178a611af3565b5b8173ffffffffffffffffffffffffffffffffffffffff163373ffffffffffffffffffffffffffffffffffffffff167fee6437c12e66102495172228742a18765355debe1f046d82bcd14f8dc66f11678d8d858e8e42604051610e7f96959493929190613435565b60405180910390a35050505050610e94611b11565b610ed3576040517f08c379a0000000000000000000000000000000000000000000000000000000008152600401610eca90613508565b60405180910390fd5b505050505050565b6000610ee8866001611809565b90506000610ef7866001611809565b90506000610f03610481565b905060008173ffffffffffffffffffffffffffffffffffffffff1663e6a4390585856040518363ffffffff1660e01b8152600401610f42929190613528565b6020604051808303816000875af1158015610f61573d6000803e3d6000fd5b505050506040513d601f19601f82011682018060405250810190610f859190613178565b9050610fb9610f92610481565b888373ffffffffffffffffffffffffffffffffffffffff166118969092919063ffffffff16565b6000808373ffffffffffffffffffffffffffffffffffffffff1663e2dc85dc87878c8c8c6040518663ffffffff1660e01b8152600401610ffd959493929190613551565b60408051808303816000875af115801561101b573d6000803e3d6000fd5b505050506040513d601f19601f8201168201806040525081019061103f91906135a4565b9150915060008373ffffffffffffffffffffffffffffffffffffffff166370a08231306040518263ffffffff1660e01b815260040161107e919061257b565b602060405180830381865afa15801561109b573d6000803e3d6000fd5b505050506040513d601f19601f820116820180604052508101906110bf9190612e08565b036110f7576000808b8d106110d5578b8d6110d8565b8c8c5b9150915060006110e883836119cc565b90506110f381611af3565b5050505b6111018b87611a21565b61110b8a86611a21565b8273ffffffffffffffffffffffffffffffffffffffff163373ffffffffffffffffffffffffffffffffffffffff167f60d6d04a69b63b07bc4612079adf2399fcc2b9da68fe609fe66ffbe16fca76f48d8d8d87874260405161117296959493929190613435565b60405180910390a3505050505050611188611b11565b6111c7576040517f08c379a00000000000000000000000000000000000000000000000000000000081526004016111be90613508565b60405180910390fd5b5050505050565b606060006111dd866001611809565b905060006111ec866000611809565b9050848273ffffffffffffffffffffffffffffffffffffffff166370a08231306040518263ffffffff1660e01b8152600401611228919061257b565b602060405180830381865afa158015611245573d6000803e3d6000fd5b505050506040513d601f19601f820116820180604052508101906112699190612e08565b10156112aa576040517f08c379a00000000000000000000000000000000000000000000000000000000081526004016112a190613630565b60405180910390fd5b6112dc6112b5610481565b868473ffffffffffffffffffffffffffffffffffffffff166118969092919063ffffffff16565b60006112e6610481565b905060008173ffffffffffffffffffffffffffffffffffffffff1663fe02915685858a8a6040518563ffffffff1660e01b81526004016113299493929190613650565b6000604051808303816000875af1158015611348573d6000803e3d6000fd5b505050506040513d6000823e3d601f19601f820116820180604052508101906113719190612dbf565b9050600061137d611bae565b905060008173ffffffffffffffffffffffffffffffffffffffff166325eb876f8b60006040518363ffffffff1660e01b81526004016113bd9291906136b0565b602060405180830381865afa1580156113da573d6000803e3d6000fd5b505050506040513d601f19601f820116820180604052508101906113fe9190613178565b905060008573ffffffffffffffffffffffffffffffffffffffff166370a08231306040518263ffffffff1660e01b815260040161143b919061257b565b602060405180830381865afa158015611458573d6000803e3d6000fd5b505050506040513d601f19601f8201168201806040525081019061147c9190612e08565b111561148d5761148c8a82611a21565b5b60008673ffffffffffffffffffffffffffffffffffffffff166370a08231306040518263ffffffff1660e01b81526004016114c8919061257b565b602060405180830381865afa1580156114e5573d6000803e3d6000fd5b505050506040513d601f19601f820116820180604052508101906115099190612e08565b03611518576115178b611af3565b5b898b3373ffffffffffffffffffffffffffffffffffffffff167f4cb7ea834525f7e7be14143ffc68be9c6735559e936d23502fff335d39a2e8e28660008151811061156657611565612e35565b5b6020026020010151876001895161157d91906136d9565b8151811061158e5761158d612e35565b5b6020026020010151426040516115a69392919061370d565b60405180910390a48296505050505050506115bf611b11565b6115fe576040517f08c379a00000000000000000000000000000000000000000000000000000000081526004016115f590613508565b60405180910390fd5b949350505050565b600073023da3e0d49ee05704773271b11484c6d1e76ccb905090565b60606000825190506000611634611bca565b9050600081836116449190613744565b90506000369050821115611684576040517f5796f78a00000000000000000000000000000000000000000000000000000000815260040160405180910390fd5b6060604051905081815285602001848101826020015b818310156116b7578251815260208301925060208101905061169a565b5050508283360385602001830137602084840182010160405280945050505050919050565b6060826117d357600082510361171e576040517f567fe27a00000000000000000000000000000000000000000000000000000000815260040160405180910390fd5b600060208301517f08c379a00000000000000000000000000000000000000000000000000000000081149150508015611796576060604484019050806040517f0f7e827800000000000000000000000000000000000000000000000000000000815260040161178d9190612863565b60405180910390fd5b826040517ffd36fde30000000000000000000000000000000000000000000000000000000081526004016117ca91906137c2565b60405180910390fd5b81905092915050565b6000807f8d5bb42e0ac1496a2c326edc9c00758985246e6c2bb146d6c2f4a0d509e0960a90508091505090565b6000611813611bae565b73ffffffffffffffffffffffffffffffffffffffff166325eb876f84846040518363ffffffff1660e01b815260040161184d9291906136b0565b602060405180830381865afa15801561186a573d6000803e3d6000fd5b505050506040513d601f19601f8201168201806040525081019061188e9190613178565b905092915050565b6000808473ffffffffffffffffffffffffffffffffffffffff1663a9059cbb85856040516024016118c89291906137e4565b6040516020818303038152906040529060e01b6020820180517bffffffffffffffffffffffffffffffffffffffffffffffffffffffff838183161783525050505060405161191691906131ec565b6000604051808303816000865af19150503d8060008114611953576040519150601f19603f3d011682016040523d82523d6000602084013e611958565b606091505b509150915081801561198657506000815114806119855750808060200190518101906119849190613839565b5b5b6119c5576040517f08c379a00000000000000000000000000000000000000000000000000000000081526004016119bc906138d8565b60405180910390fd5b5050505050565b6000611a196119e16119dc611c3a565b610547565b6119ea85610547565b6119f385610547565b604051602001611a0593929190613980565b6040516020818303038152906040526107ae565b905092915050565b60008203611a64576040517f08c379a0000000000000000000000000000000000000000000000000000000008152600401611a5b90613a2a565b60405180910390fd5b600073ffffffffffffffffffffffffffffffffffffffff168173ffffffffffffffffffffffffffffffffffffffff1603611ad3576040517f08c379a0000000000000000000000000000000000000000000000000000000008152600401611aca90613a96565b60405180910390fd5b6000611add6117dc565b9050611aed816004018484611c62565b50505050565b6000611afd6117dc565b9050611b0c8160040183611c94565b505050565b6000611b96611b26635ce2395060e01b6107f7565b635ce2395060e01b604051602401604051602081830303815290604052907bffffffffffffffffffffffffffffffffffffffffffffffffffffffff19166020820180517bffffffffffffffffffffffffffffffffffffffffffffffffffffffff8381831617835250505050610881565b806020019051810190611ba99190613839565b905090565b60007334cb5fc3b28215713682de95daf2b00a4619db03905090565b600080611bd5611cab565b90506000611be282611dbc565b61ffff169050600282611bf59190613744565b915060005b81811015611c31576000611c0d84611e18565b90508084611c1b9190613744565b9350508080611c2990613ab6565b915050611bfa565b50819250505090565b60007f544a000000000000000000000000000000000000000000000000000000000000905090565b6000611c8b84600001848473ffffffffffffffffffffffffffffffffffffffff1660001b611e57565b90509392505050565b6000611ca38360000183611e92565b905092915050565b60008060203603356602ed57011e000081166602ed57011e00001491505080611d00576040517fe7764c9e00000000000000000000000000000000000000000000000000000000815260040160405180910390fd5b60008036905060291115611d40576040517f5796f78a00000000000000000000000000000000000000000000000000000000815260040160405180910390fd5b602936033590506000600960038362ffffff16611d5d9190613744565b611d679190613744565b90506000369050600282611d7b9190613744565b1115611db3576040517fc30a7bd700000000000000000000000000000000000000000000000000000000815260040160405180910390fd5b80935050505090565b600080602083611dcc9190613744565b90506000369050811115611e0c576040517f5796f78a00000000000000000000000000000000000000000000000000000000815260040160405180910390fd5b80360335915050919050565b6000806000611e2684611ecb565b91509150604e816020611e399190613744565b83611e449190613afe565b611e4e9190613744565b92505050919050565b60008184600201600085815260200190815260200160002081905550611e898385600001611f4190919063ffffffff16565b90509392505050565b600082600201600083815260200190815260200160002060009055611ec38284600001611f5890919063ffffffff16565b905092915050565b6000806000806000604186611ee09190613744565b90506000611f07602083611ef49190613744565b6000369050611f6f90919063ffffffff16565b905080359350611f21600382611f6f90919063ffffffff16565b9050803592508362ffffff1695508263ffffffff16945050505050915091565b6000611f508360000183611f85565b905092915050565b6000611f678360000183611ff5565b905092915050565b60008183611f7d91906136d9565b905092915050565b6000611f918383612109565b611fea578260000182908060018154018082558091505060019003906000526020600020016000909190919091505582600001805490508360010160008481526020019081526020016000208190555060019050611fef565b600090505b92915050565b600080836001016000848152602001908152602001600020549050600081146120fd57600060018261202791906136d9565b905060006001866000018054905061203f91906136d9565b90508181146120ae5760008660000182815481106120605761205f612e35565b5b906000526020600020015490508087600001848154811061208457612083612e35565b5b90600052602060002001819055508387600101600083815260200190815260200160002081905550505b856000018054806120c2576120c1613b40565b5b600190038181906000526020600020016000905590558560010160008681526020019081526020016000206000905560019350505050612103565b60009150505b92915050565b600080836001016000848152602001908152602001600020541415905092915050565b6040518060800160405280606081526020016060815260200160608152602001606081525090565b6000604051905090565b600080fd5b600080fd5b600080fd5b6000601f19601f8301169050919050565b7f4e487b7100000000000000000000000000000000000000000000000000000000600052604160045260246000fd5b6121b68261216d565b810181811067ffffffffffffffff821117156121d5576121d461217e565b5b80604052505050565b60006121e8612154565b90506121f482826121ad565b919050565b600067ffffffffffffffff8211156122145761221361217e565b5b602082029050602081019050919050565b600080fd5b6000819050919050565b61223d8161222a565b811461224857600080fd5b50565b60008135905061225a81612234565b92915050565b600061227361226e846121f9565b6121de565b9050808382526020820190506020840283018581111561229657612295612225565b5b835b818110156122bf57806122ab888261224b565b845260208401935050602081019050612298565b5050509392505050565b600082601f8301126122de576122dd612168565b5b81356122ee848260208601612260565b91505092915050565b60006020828403121561230d5761230c61215e565b5b600082013567ffffffffffffffff81111561232b5761232a612163565b5b612337848285016122c9565b91505092915050565b600081519050919050565b600082825260208201905092915050565b6000819050602082019050919050565b6000819050919050565b61237f8161236c565b82525050565b60006123918383612376565b60208301905092915050565b6000602082019050919050565b60006123b582612340565b6123bf818561234b565b93506123ca8361235c565b8060005b838110156123fb5781516123e28882612385565b97506123ed8361239d565b9250506001810190506123ce565b5085935050505092915050565b6000602082019050818103600083015261242281846123aa565b905092915050565b6000602082840312156124405761243f61215e565b5b600061244e8482850161224b565b91505092915050565b6124608161236c565b82525050565b600060208201905061247b6000830184612457565b92915050565b61248a8161236c565b811461249557600080fd5b50565b6000813590506124a781612481565b92915050565b60008060008060008060c087890312156124ca576124c961215e565b5b60006124d889828a0161224b565b96505060206124e989828a0161224b565b95505060406124fa89828a01612498565b945050606061250b89828a01612498565b935050608061251c89828a01612498565b92505060a061252d89828a01612498565b9150509295509295509295565b600073ffffffffffffffffffffffffffffffffffffffff82169050919050565b60006125658261253a565b9050919050565b6125758161255a565b82525050565b6000602082019050612590600083018461256c565b92915050565b600080fd5b600080fd5b600067ffffffffffffffff8211156125bb576125ba61217e565b5b602082029050602081019050919050565b6000604082840312156125e2576125e1612596565b5b6125ec60406121de565b905060006125fc8482850161224b565b600083015250602061261084828501612498565b60208301525092915050565b600061262f61262a846125a0565b6121de565b9050808382526020820190506040840283018581111561265257612651612225565b5b835b8181101561267b578061266788826125cc565b845260208401935050604081019050612654565b5050509392505050565b600082601f83011261269a57612699612168565b5b81356126aa84826020860161261c565b91505092915050565b6000608082840312156126c9576126c8612596565b5b6126d360806121de565b9050600082013567ffffffffffffffff8111156126f3576126f261259b565b5b6126ff84828501612685565b600083015250602082013567ffffffffffffffff8111156127235761272261259b565b5b61272f84828501612685565b602083015250604082013567ffffffffffffffff8111156127535761275261259b565b5b61275f84828501612685565b604083015250606082013567ffffffffffffffff8111156127835761278261259b565b5b61278f84828501612685565b60608301525092915050565b6000602082840312156127b1576127b061215e565b5b600082013567ffffffffffffffff8111156127cf576127ce612163565b5b6127db848285016126b3565b91505092915050565b600081519050919050565b600082825260208201905092915050565b60005b8381101561281e578082015181840152602081019050612803565b60008484015250505050565b6000612835826127e4565b61283f81856127ef565b935061284f818560208601612800565b6128588161216d565b840191505092915050565b6000602082019050818103600083015261287d818461282a565b905092915050565b600081519050919050565b600082825260208201905092915050565b6000819050602082019050919050565b6128ba8161222a565b82525050565b6040820160008201516128d660008501826128b1565b5060208201516128e96020850182612376565b50505050565b60006128fb83836128c0565b60408301905092915050565b6000602082019050919050565b600061291f82612885565b6129298185612890565b9350612934836128a1565b8060005b8381101561296557815161294c88826128ef565b975061295783612907565b925050600181019050612938565b5085935050505092915050565b6000608083016000830151848203600086015261298f8282612914565b915050602083015184820360208601526129a98282612914565b915050604083015184820360408601526129c38282612914565b915050606083015184820360608601526129dd8282612914565b9150508091505092915050565b60006020820190508181036000830152612a048184612972565b905092915050565b600080600080600060a08688031215612a2857612a2761215e565b5b6000612a368882890161224b565b9550506020612a478882890161224b565b9450506040612a5888828901612498565b9350506060612a6988828901612498565b9250506080612a7a88828901612498565b9150509295509295909350565b600080fd5b600067ffffffffffffffff821115612aa757612aa661217e565b5b612ab08261216d565b9050602081019050919050565b82818337600083830152505050565b6000612adf612ada84612a8c565b6121de565b905082815260208101848484011115612afb57612afa612a87565b5b612b06848285612abd565b509392505050565b600082601f830112612b2357612b22612168565b5b8135612b33848260208601612acc565b91505092915050565b600060208284031215612b5257612b5161215e565b5b600082013567ffffffffffffffff811115612b7057612b6f612163565b5b612b7c84828501612b0e565b91505092915050565b612b8e8161222a565b82525050565b6000602082019050612ba96000830184612b85565b92915050565b60008060008060808587031215612bc957612bc861215e565b5b6000612bd78782880161224b565b9450506020612be88782880161224b565b9350506040612bf987828801612498565b9250506060612c0a87828801612498565b91505092959194509250565b600081519050919050565b600082825260208201905092915050565b6000819050602082019050919050565b6000612c4e83836128b1565b60208301905092915050565b6000602082019050919050565b6000612c7282612c16565b612c7c8185612c21565b9350612c8783612c32565b8060005b83811015612cb8578151612c9f8882612c42565b9750612caa83612c5a565b925050600181019050612c8b565b5085935050505092915050565b60006020820190508181036000830152612cdf8184612c67565b905092915050565b600067ffffffffffffffff821115612d0257612d0161217e565b5b602082029050602081019050919050565b600081519050612d2281612481565b92915050565b6000612d3b612d3684612ce7565b6121de565b90508083825260208201905060208402830185811115612d5e57612d5d612225565b5b835b81811015612d875780612d738882612d13565b845260208401935050602081019050612d60565b5050509392505050565b600082601f830112612da657612da5612168565b5b8151612db6848260208601612d28565b91505092915050565b600060208284031215612dd557612dd461215e565b5b600082015167ffffffffffffffff811115612df357612df2612163565b5b612dff84828501612d91565b91505092915050565b600060208284031215612e1e57612e1d61215e565b5b6000612e2c84828501612d13565b91505092915050565b7f4e487b7100000000000000000000000000000000000000000000000000000000600052603260045260246000fd5b7f4e487b7100000000000000000000000000000000000000000000000000000000600052601160045260246000fd5b600060ff82169050919050565b6000612eab82612e93565b915060ff8203612ebe57612ebd612e64565b5b600182019050919050565b600081519050612ed881612234565b92915050565b600060408284031215612ef457612ef3612596565b5b612efe60406121de565b90506000612f0e84828501612ec9565b6000830152506020612f2284828501612d13565b60208301525092915050565b6000612f41612f3c846125a0565b6121de565b90508083825260208201905060408402830185811115612f6457612f63612225565b5b835b81811015612f8d5780612f798882612ede565b845260208401935050604081019050612f66565b5050509392505050565b600082601f830112612fac57612fab612168565b5b8151612fbc848260208601612f2e565b91505092915050565b600060808284031215612fdb57612fda612596565b5b612fe560806121de565b9050600082015167ffffffffffffffff8111156130055761300461259b565b5b61301184828501612f97565b600083015250602082015167ffffffffffffffff8111156130355761303461259b565b5b61304184828501612f97565b602083015250604082015167ffffffffffffffff8111156130655761306461259b565b5b61307184828501612f97565b604083015250606082015167ffffffffffffffff8111156130955761309461259b565b5b6130a184828501612f97565b60608301525092915050565b6000602082840312156130c3576130c261215e565b5b600082015167ffffffffffffffff8111156130e1576130e0612163565b5b6130ed84828501612fc5565b91505092915050565b60007fffffffff0000000000000000000000000000000000000000000000000000000082169050919050565b61312b816130f6565b82525050565b60006020820190506131466000830184613122565b92915050565b6131558161255a565b811461316057600080fd5b50565b6000815190506131728161314c565b92915050565b60006020828403121561318e5761318d61215e565b5b600061319c84828501613163565b91505092915050565b600081519050919050565b600081905092915050565b60006131c6826131a5565b6131d081856131b0565b93506131e0818560208601612800565b80840191505092915050565b60006131f882846131bb565b915081905092915050565b7f4469616d6f6e6453746f726167654c69623a204d75737420626520636f6e747260008201527f616374206f776e65720000000000000000000000000000000000000000000000602082015250565b600061325f6029836127ef565b915061326a82613203565b604082019050919050565b6000602082019050818103600083015261328e81613252565b9050919050565b7f4e6f7420656e6f75676820746f6b656e4120746f2070726f7669646500000000600082015250565b60006132cb601c836127ef565b91506132d682613295565b602082019050919050565b600060208201905081810360008301526132fa816132be565b9050919050565b7f4e6f7420656e6f75676820746f6b656e4220746f2070726f7669646500000000600082015250565b6000613337601c836127ef565b915061334282613301565b602082019050919050565b600060208201905081810360008301526133668161332a565b9050919050565b600060c082019050613382600083018961256c565b61338f602083018861256c565b61339c6040830187612457565b6133a96060830186612457565b6133b66080830185612457565b6133c360a0830184612457565b979650505050505050565b600080600080608085870312156133e8576133e761215e565b5b60006133f687828801613163565b945050602061340787828801612d13565b935050604061341887828801612d13565b925050606061342987828801612d13565b91505092959194509250565b600060c08201905061344a6000830189612b85565b6134576020830188612b85565b6134646040830187612457565b6134716060830186612457565b61347e6080830185612457565b61348b60a0830184612457565b979650505050505050565b7f54686520616374696f6e206d617920636175736520616e206163636f756e742060008201527f746f206265636f6d6520696e736f6c76656e7400000000000000000000000000602082015250565b60006134f26033836127ef565b91506134fd82613496565b604082019050919050565b60006020820190508181036000830152613521816134e5565b9050919050565b600060408201905061353d600083018561256c565b61354a602083018461256c565b9392505050565b600060a082019050613566600083018861256c565b613573602083018761256c565b6135806040830186612457565b61358d6060830185612457565b61359a6080830184612457565b9695505050505050565b600080604083850312156135bb576135ba61215e565b5b60006135c985828601612d13565b92505060206135da85828601612d13565b9150509250929050565b7f4e6f7420656e6f75676820746f6b656e20746f2073656c6c0000000000000000600082015250565b600061361a6018836127ef565b9150613625826135e4565b602082019050919050565b600060208201905081810360008301526136498161360d565b9050919050565b6000608082019050613665600083018761256c565b613672602083018661256c565b61367f6040830185612457565b61368c6060830184612457565b95945050505050565b60008115159050919050565b6136aa81613695565b82525050565b60006040820190506136c56000830185612b85565b6136d260208301846136a1565b9392505050565b60006136e48261236c565b91506136ef8361236c565b925082820390508181111561370757613706612e64565b5b92915050565b60006060820190506137226000830186612457565b61372f6020830185612457565b61373c6040830184612457565b949350505050565b600061374f8261236c565b915061375a8361236c565b925082820190508082111561377257613771612e64565b5b92915050565b600082825260208201905092915050565b6000613794826131a5565b61379e8185613778565b93506137ae818560208601612800565b6137b78161216d565b840191505092915050565b600060208201905081810360008301526137dc8184613789565b905092915050565b60006040820190506137f9600083018561256c565b6138066020830184612457565b9392505050565b61381681613695565b811461382157600080fd5b50565b6000815190506138338161380d565b92915050565b60006020828403121561384f5761384e61215e565b5b600061385d84828501613824565b91505092915050565b7f5472616e7366657248656c7065723a3a736166655472616e736665723a20747260008201527f616e73666572206661696c656400000000000000000000000000000000000000602082015250565b60006138c2602d836127ef565b91506138cd82613866565b604082019050919050565b600060208201905081810360008301526138f1816138b5565b9050919050565b600081905092915050565b600061390e826127e4565b61391881856138f8565b9350613928818560208601612800565b80840191505092915050565b7f5f00000000000000000000000000000000000000000000000000000000000000815250565b7f5f4c500000000000000000000000000000000000000000000000000000000000815250565b600061398c8286613903565b915061399782613934565b6001820191506139a78285613903565b91506139b282613934565b6001820191506139c28284613903565b91506139cd8261395a565b600382019150819050949350505050565b7f53796d626f6c2063616e6e6f7420626520656d70747900000000000000000000600082015250565b6000613a146016836127ef565b9150613a1f826139de565b602082019050919050565b60006020820190508181036000830152613a4381613a07565b9050919050565b7f496e76616c696420416464726573735a65726f00000000000000000000000000600082015250565b6000613a806013836127ef565b9150613a8b82613a4a565b602082019050919050565b60006020820190508181036000830152613aaf81613a73565b9050919050565b6000613ac18261236c565b91507fffffffffffffffffffffffffffffffffffffffffffffffffffffffffffffffff8203613af357613af2612e64565b5b600182019050919050565b6000613b098261236c565b9150613b148361236c565b9250828202613b228161236c565b91508282048414831517613b3957613b38612e64565b5b5092915050565b7f4e487b7100000000000000000000000000000000000000000000000000000000600052603160045260246000fdfea26469706673582212209dc07daf623a52afa2812095fdba005c6b3a35e6f134a94e0df4e3952006397364736f6c63430008110033",
  "devdoc": {
    "kind": "dev",
    "methods": {
      "swapTraderJoe(bytes32,bytes32,uint256,uint256)": {
        "details": "This function uses the redstone-evm-connector",
        "params": {
          "_boughtAsset": "asset to be bought",
          "_exactSold": "exact amount of asset to be sold",
          "_minimumBought": "minimum amount of asset to be bought*",
          "_soldAsset": "asset to be sold"
        }
      }
    },
    "version": 1
  },
  "userdoc": {
    "kind": "user",
    "methods": {
      "getExchangeIntermediaryContract()": {
        "notice": "Returns address of UniswapV2-like exchange*"
      },
      "swapTraderJoe(bytes32,bytes32,uint256,uint256)": {
        "notice": "Swaps one asset to another"
      }
    },
    "version": 1
  },
  "storageLayout": {
    "storage": [
      {
        "astId": 9248,
        "contract": "contracts/facets/avalanche/TraderJoeDEXFacet.sol:TraderJoeDEXFacet",
        "label": "_status",
        "offset": 0,
        "slot": "0",
        "type": "t_uint256"
      }
    ],
    "types": {
      "t_uint256": {
        "encoding": "inplace",
        "label": "uint256",
        "numberOfBytes": "32"
      }
    }
  }
}