{
  "address": "0x53AdcEb6C3af9e3a2Fddc0722Ea62f9B4E179Ae9",
  "abi": [
    {
      "inputs": [],
      "name": "CalldataMustHaveValidPayload",
      "type": "error"
    },
    {
      "inputs": [],
      "name": "CalldataOverOrUnderFlow",
      "type": "error"
    },
    {
      "inputs": [],
      "name": "DataPackageTimestampMustNotBeZero",
      "type": "error"
    },
    {
      "inputs": [],
      "name": "DataPackageTimestampsMustBeEqual",
      "type": "error"
    },
    {
      "inputs": [],
      "name": "EachSignerMustProvideTheSameValue",
      "type": "error"
    },
    {
      "inputs": [],
      "name": "EmptyCalldataPointersArr",
      "type": "error"
    },
    {
      "inputs": [],
      "name": "IncorrectUnsignedMetadataSize",
      "type": "error"
    },
    {
      "inputs": [
        {
          "internalType": "uint256",
          "name": "receivedSignersCount",
          "type": "uint256"
        },
        {
          "internalType": "uint256",
          "name": "requiredSignersCount",
          "type": "uint256"
        }
      ],
      "name": "InsufficientNumberOfUniqueSigners",
      "type": "error"
    },
    {
      "inputs": [],
      "name": "InvalidCalldataPointer",
      "type": "error"
    },
    {
      "inputs": [
        {
          "internalType": "bytes",
          "name": "result",
          "type": "bytes"
        }
      ],
      "name": "ProxyCalldataFailedWithCustomError",
      "type": "error"
    },
    {
      "inputs": [
        {
          "internalType": "string",
          "name": "message",
          "type": "string"
        }
      ],
      "name": "ProxyCalldataFailedWithStringMessage",
      "type": "error"
    },
    {
      "inputs": [],
      "name": "ProxyCalldataFailedWithoutErrMsg",
      "type": "error"
    },
    {
      "inputs": [],
      "name": "RedstonePayloadMustHaveAtLeastOneDataPackage",
      "type": "error"
    },
    {
      "inputs": [
        {
          "internalType": "address",
          "name": "receivedSigner",
          "type": "address"
        }
      ],
      "name": "SignerNotAuthorised",
      "type": "error"
    },
    {
      "inputs": [],
      "name": "TooManyBins",
      "type": "error"
    },
    {
      "inputs": [],
      "name": "TraderJoeV2PoolNotWhitelisted",
      "type": "error"
    },
    {
      "anonymous": false,
      "inputs": [
        {
          "indexed": true,
          "internalType": "address",
          "name": "user",
          "type": "address"
        },
        {
          "indexed": true,
          "internalType": "address",
          "name": "pair",
          "type": "address"
        },
        {
          "indexed": false,
          "internalType": "uint256[]",
          "name": "binIds",
          "type": "uint256[]"
        },
        {
          "indexed": false,
          "internalType": "uint256[]",
          "name": "liquidityMinted",
          "type": "uint256[]"
        },
        {
          "indexed": false,
          "internalType": "bytes32",
          "name": "firstAsset",
          "type": "bytes32"
        },
        {
          "indexed": false,
          "internalType": "bytes32",
          "name": "secondAsset",
          "type": "bytes32"
        },
        {
          "indexed": false,
          "internalType": "uint256",
          "name": "firstAmount",
          "type": "uint256"
        },
        {
          "indexed": false,
          "internalType": "uint256",
          "name": "secondAmount",
          "type": "uint256"
        },
        {
          "indexed": false,
          "internalType": "uint256",
          "name": "timestamp",
          "type": "uint256"
        }
      ],
      "name": "AddLiquidityTraderJoeV2",
      "type": "event"
    },
    {
      "anonymous": false,
      "inputs": [
        {
          "indexed": true,
          "internalType": "address",
          "name": "user",
          "type": "address"
        },
        {
          "indexed": true,
          "internalType": "address",
          "name": "pair",
          "type": "address"
        },
        {
          "indexed": false,
          "internalType": "uint256[]",
          "name": "binIds",
          "type": "uint256[]"
        },
        {
          "indexed": false,
          "internalType": "uint256[]",
          "name": "amounts",
          "type": "uint256[]"
        },
        {
          "indexed": false,
          "internalType": "uint256",
          "name": "timestamp",
          "type": "uint256"
        }
      ],
      "name": "FundedLiquidityTraderJoeV2",
      "type": "event"
    },
    {
      "anonymous": false,
      "inputs": [
        {
          "indexed": true,
          "internalType": "address",
          "name": "user",
          "type": "address"
        },
        {
          "indexed": true,
          "internalType": "address",
          "name": "pair",
          "type": "address"
        },
        {
          "indexed": false,
          "internalType": "uint256[]",
          "name": "binIds",
          "type": "uint256[]"
        },
        {
          "indexed": false,
          "internalType": "uint256[]",
          "name": "amounts",
          "type": "uint256[]"
        },
        {
          "indexed": false,
          "internalType": "bytes32",
          "name": "firstAsset",
          "type": "bytes32"
        },
        {
          "indexed": false,
          "internalType": "bytes32",
          "name": "secondAsset",
          "type": "bytes32"
        },
        {
          "indexed": false,
          "internalType": "uint256",
          "name": "timestamp",
          "type": "uint256"
        }
      ],
      "name": "RemoveLiquidityTraderJoeV2",
      "type": "event"
    },
    {
      "anonymous": false,
      "inputs": [
        {
          "indexed": true,
          "internalType": "address",
          "name": "user",
          "type": "address"
        },
        {
          "indexed": true,
          "internalType": "address",
          "name": "pair",
          "type": "address"
        },
        {
          "indexed": false,
          "internalType": "uint256[]",
          "name": "binIds",
          "type": "uint256[]"
        },
        {
          "indexed": false,
          "internalType": "uint256[]",
          "name": "amounts",
          "type": "uint256[]"
        },
        {
          "indexed": false,
          "internalType": "uint256",
          "name": "timestamp",
          "type": "uint256"
        }
      ],
      "name": "WithdrawnLiquidityTraderJoeV2",
      "type": "event"
    },
    {
      "inputs": [
        {
          "internalType": "bytes32[]",
          "name": "assetsToRepay",
          "type": "bytes32[]"
        }
      ],
      "name": "_getAllPricesForLiquidation",
      "outputs": [
        {
          "components": [
            {
              "components": [
                {
                  "internalType": "bytes32",
                  "name": "asset",
                  "type": "bytes32"
                },
                {
                  "internalType": "uint256",
                  "name": "price",
                  "type": "uint256"
                }
              ],
              "internalType": "struct SolvencyFacetProd.AssetPrice[]",
              "name": "ownedAssetsPrices",
              "type": "tuple[]"
            },
            {
              "components": [
                {
                  "internalType": "bytes32",
                  "name": "asset",
                  "type": "bytes32"
                },
                {
                  "internalType": "uint256",
                  "name": "price",
                  "type": "uint256"
                }
              ],
              "internalType": "struct SolvencyFacetProd.AssetPrice[]",
              "name": "debtAssetsPrices",
              "type": "tuple[]"
            },
            {
              "components": [
                {
                  "internalType": "bytes32",
                  "name": "asset",
                  "type": "bytes32"
                },
                {
                  "internalType": "uint256",
                  "name": "price",
                  "type": "uint256"
                }
              ],
              "internalType": "struct SolvencyFacetProd.AssetPrice[]",
              "name": "stakedPositionsPrices",
              "type": "tuple[]"
            },
            {
              "components": [
                {
                  "internalType": "bytes32",
                  "name": "asset",
                  "type": "bytes32"
                },
                {
                  "internalType": "uint256",
                  "name": "price",
                  "type": "uint256"
                }
              ],
              "internalType": "struct SolvencyFacetProd.AssetPrice[]",
              "name": "assetsToRepayPrices",
              "type": "tuple[]"
            }
          ],
          "internalType": "struct SolvencyFacetProd.CachedPrices",
          "name": "result",
          "type": "tuple"
        }
      ],
      "stateMutability": "nonpayable",
      "type": "function"
    },
    {
      "inputs": [],
      "name": "_getHealthRatio",
      "outputs": [
        {
          "internalType": "uint256",
          "name": "health",
          "type": "uint256"
        }
      ],
      "stateMutability": "nonpayable",
      "type": "function"
    },
    {
      "inputs": [
        {
          "components": [
            {
              "components": [
                {
                  "internalType": "bytes32",
                  "name": "asset",
                  "type": "bytes32"
                },
                {
                  "internalType": "uint256",
                  "name": "price",
                  "type": "uint256"
                }
              ],
              "internalType": "struct SolvencyFacetProd.AssetPrice[]",
              "name": "ownedAssetsPrices",
              "type": "tuple[]"
            },
            {
              "components": [
                {
                  "internalType": "bytes32",
                  "name": "asset",
                  "type": "bytes32"
                },
                {
                  "internalType": "uint256",
                  "name": "price",
                  "type": "uint256"
                }
              ],
              "internalType": "struct SolvencyFacetProd.AssetPrice[]",
              "name": "debtAssetsPrices",
              "type": "tuple[]"
            },
            {
              "components": [
                {
                  "internalType": "bytes32",
                  "name": "asset",
                  "type": "bytes32"
                },
                {
                  "internalType": "uint256",
                  "name": "price",
                  "type": "uint256"
                }
              ],
              "internalType": "struct SolvencyFacetProd.AssetPrice[]",
              "name": "stakedPositionsPrices",
              "type": "tuple[]"
            },
            {
              "components": [
                {
                  "internalType": "bytes32",
                  "name": "asset",
                  "type": "bytes32"
                },
                {
                  "internalType": "uint256",
                  "name": "price",
                  "type": "uint256"
                }
              ],
              "internalType": "struct SolvencyFacetProd.AssetPrice[]",
              "name": "assetsToRepayPrices",
              "type": "tuple[]"
            }
          ],
          "internalType": "struct SolvencyFacetProd.CachedPrices",
          "name": "cachedPrices",
          "type": "tuple"
        }
      ],
      "name": "_getHealthRatioWithPrices",
      "outputs": [
        {
          "internalType": "uint256",
          "name": "health",
          "type": "uint256"
        }
      ],
      "stateMutability": "nonpayable",
      "type": "function"
    },
    {
      "inputs": [],
      "name": "_getThresholdWeightedValuePayable",
      "outputs": [
        {
          "internalType": "uint256",
          "name": "twv",
          "type": "uint256"
        }
      ],
      "stateMutability": "nonpayable",
      "type": "function"
    },
    {
      "inputs": [],
      "name": "_resetPrimeAccountAssetsExposure",
      "outputs": [],
      "stateMutability": "nonpayable",
      "type": "function"
    },
    {
      "inputs": [],
      "name": "_setPrimeAccountAssetsExposure",
      "outputs": [],
      "stateMutability": "nonpayable",
      "type": "function"
    },
    {
      "inputs": [
        {
          "components": [
            {
              "internalType": "contract IERC20",
              "name": "tokenX",
              "type": "address"
            },
            {
              "internalType": "contract IERC20",
              "name": "tokenY",
              "type": "address"
            },
            {
              "internalType": "uint256",
              "name": "binStep",
              "type": "uint256"
            },
            {
              "internalType": "uint256",
              "name": "amountX",
              "type": "uint256"
            },
            {
              "internalType": "uint256",
              "name": "amountY",
              "type": "uint256"
            },
            {
              "internalType": "uint256",
              "name": "amountXMin",
              "type": "uint256"
            },
            {
              "internalType": "uint256",
              "name": "amountYMin",
              "type": "uint256"
            },
            {
              "internalType": "uint256",
              "name": "activeIdDesired",
              "type": "uint256"
            },
            {
              "internalType": "uint256",
              "name": "idSlippage",
              "type": "uint256"
            },
            {
              "internalType": "int256[]",
              "name": "deltaIds",
              "type": "int256[]"
            },
            {
              "internalType": "uint256[]",
              "name": "distributionX",
              "type": "uint256[]"
            },
            {
              "internalType": "uint256[]",
              "name": "distributionY",
              "type": "uint256[]"
            },
            {
              "internalType": "address",
              "name": "to",
              "type": "address"
            },
            {
              "internalType": "address",
              "name": "refundTo",
              "type": "address"
            },
            {
              "internalType": "uint256",
              "name": "deadline",
              "type": "uint256"
            }
          ],
          "internalType": "struct ILBRouter.LiquidityParameters",
          "name": "liquidityParameters",
          "type": "tuple"
        }
      ],
      "name": "addLiquidityTraderJoeV2",
      "outputs": [],
      "stateMutability": "nonpayable",
      "type": "function"
    },
    {
      "inputs": [
        {
          "components": [
            {
              "internalType": "address",
              "name": "market",
              "type": "address"
            },
            {
              "internalType": "uint256",
              "name": "epoch",
              "type": "uint256"
            },
            {
              "internalType": "contract IERC20",
              "name": "token",
              "type": "address"
            },
            {
              "internalType": "address",
              "name": "user",
              "type": "address"
            },
            {
              "internalType": "uint256",
              "name": "amount",
              "type": "uint256"
            },
            {
              "internalType": "bytes32[]",
              "name": "merkleProof",
              "type": "bytes32[]"
            }
          ],
          "internalType": "struct IRewarder.MerkleEntry[]",
          "name": "merkleEntries",
          "type": "tuple[]"
        }
      ],
      "name": "claimReward",
      "outputs": [],
      "stateMutability": "nonpayable",
      "type": "function"
    },
    {
      "inputs": [],
      "name": "extractTimestampsAndAssertAllAreEqual",
      "outputs": [
        {
          "internalType": "uint256",
          "name": "extractedTimestamp",
          "type": "uint256"
        }
      ],
      "stateMutability": "pure",
      "type": "function"
    },
    {
      "inputs": [
        {
          "internalType": "contract ILBPair",
          "name": "pair",
          "type": "address"
        },
        {
          "internalType": "uint256[]",
          "name": "ids",
          "type": "uint256[]"
        },
        {
          "internalType": "uint256[]",
          "name": "amounts",
          "type": "uint256[]"
        }
      ],
      "name": "fundLiquidityTraderJoeV2",
      "outputs": [],
      "stateMutability": "nonpayable",
      "type": "function"
    },
    {
      "inputs": [],
      "name": "getJoeV2RouterAddress",
      "outputs": [
        {
          "internalType": "address",
          "name": "",
          "type": "address"
        }
      ],
      "stateMutability": "view",
      "type": "function"
    },
    {
      "inputs": [],
      "name": "getOwnedTraderJoeV2Bins",
      "outputs": [
        {
          "components": [
            {
              "internalType": "contract ILBPair",
              "name": "pair",
              "type": "address"
            },
            {
              "internalType": "uint24",
              "name": "id",
              "type": "uint24"
            }
          ],
          "internalType": "struct ITraderJoeV2Facet.TraderJoeV2Bin[]",
          "name": "result",
          "type": "tuple[]"
        }
      ],
      "stateMutability": "view",
      "type": "function"
    },
    {
      "inputs": [
        {
          "internalType": "bytes32",
          "name": "symbol",
          "type": "bytes32"
        }
      ],
      "name": "getPrice",
      "outputs": [
        {
          "internalType": "uint256",
          "name": "price",
          "type": "uint256"
        }
      ],
      "stateMutability": "view",
      "type": "function"
    },
    {
      "inputs": [],
      "name": "maxBinsPerPrimeAccount",
      "outputs": [
        {
          "internalType": "uint256",
          "name": "",
          "type": "uint256"
        }
      ],
      "stateMutability": "pure",
      "type": "function"
    },
    {
      "inputs": [
        {
          "components": [
            {
              "internalType": "contract IERC20",
              "name": "tokenX",
              "type": "address"
            },
            {
              "internalType": "contract IERC20",
              "name": "tokenY",
              "type": "address"
            },
            {
              "internalType": "uint16",
              "name": "binStep",
              "type": "uint16"
            },
            {
              "internalType": "uint256",
              "name": "amountXMin",
              "type": "uint256"
            },
            {
              "internalType": "uint256",
              "name": "amountYMin",
              "type": "uint256"
            },
            {
              "internalType": "uint256[]",
              "name": "ids",
              "type": "uint256[]"
            },
            {
              "internalType": "uint256[]",
              "name": "amounts",
              "type": "uint256[]"
            },
            {
              "internalType": "uint256",
              "name": "deadline",
              "type": "uint256"
            }
          ],
          "internalType": "struct ITraderJoeV2Facet.RemoveLiquidityParameters",
          "name": "parameters",
          "type": "tuple"
        }
      ],
      "name": "removeLiquidityTraderJoeV2",
      "outputs": [],
      "stateMutability": "nonpayable",
      "type": "function"
    },
    {
      "inputs": [
        {
          "internalType": "contract ILBPair",
          "name": "pair",
          "type": "address"
        },
        {
          "internalType": "uint256[]",
          "name": "ids",
          "type": "uint256[]"
        },
        {
          "internalType": "uint256[]",
          "name": "amounts",
          "type": "uint256[]"
        }
      ],
      "name": "withdrawLiquidityTraderJoeV2",
      "outputs": [],
      "stateMutability": "nonpayable",
      "type": "function"
    }
  ],
  "transactionHash": "0x1f2db21a0155122b6d8e8032ebb05cac740b82dc45eb924ce810a40691c95379",
  "args": [],
  "numDeployments": 1,
  "solcInputHash": "69abce8480049887b8b8ad1ba3d2fe01",
  "bytecode": "0x608060405234801561001057600080fd5b506001600055614257806100256000396000f3fe608060405234801561001057600080fd5b50600436106100d05760003560e01c806308a766eb146100d55780632001ff29146100ea57806331d98b3f146100fd57806339e2719e1461012357806355a547d51461012b5780635a7b2001146101335780635b4fad9c14610146578063653f4a251461014e5780636e3bfe9f146101635780637088e379146101765780638fc7d6d71461017e5780639912e40814610191578063b2d40e7314610198578063cd0b0209146101b8578063d0b43863146101cb578063f8f18553146101e0575b600080fd5b6100e86100e3366004612ebc565b6101e8565b005b6100e86100f83660046130a9565b61057a565b61011061010b36600461311e565b610923565b6040519081526020015b60405180910390f35b61011061098e565b6101106109e9565b6100e8610141366004613147565b610b01565b6100e86110d1565b610156611115565b60405161011a91906132b0565b61011061017136600461338c565b611193565b6101106111f9565b6100e861018c36600461347f565b61123c565b6050610110565b6101ab6101a6366004613564565b61187a565b60405161011a919061363a565b6100e86101c63660046130a9565b6118e5565b6101d3611b86565b60405161011a91906136b8565b6100e8611b9e565b60006101f2611bdf565b8054909150600119016102205760405162461bcd60e51b8152600401610217906136cc565b60405180910390fd5b6002815561022c611c03565b816000816001600160401b0381111561024757610247612f45565b604051908082528060200260200182016040528015610270578160200160208202803683370190505b5090506000826001600160401b0381111561028d5761028d612f45565b6040519080825280602002602001820160405280156102b6578160200160208202803683370190505b50905060005b8381146103dd578686828181106102d5576102d5613703565b90506020028101906102e79190613719565b6102f8906060810190604001613739565b83828151811061030a5761030a613703565b60200260200101906001600160a01b031690816001600160a01b03168152505082818151811061033c5761033c613703565b60200260200101516001600160a01b03166370a08231306040518263ffffffff1660e01b815260040161036f91906136b8565b602060405180830381865afa15801561038c573d6000803e3d6000fd5b505050506040513d601f19601f820116820180604052508101906103b09190613756565b8282815181106103c2576103c2613703565b60209081029190910101526103d681613785565b90506102bc565b506040516338997edd60e11b815273624c5b9beb13af6893e715932c26e2b7a59c410a908190637132fdba90610419908a908a90600401613818565b600060405180830381600087803b15801561043357600080fd5b505af1158015610447573d6000803e3d6000fd5b5050505060005b84811461056c57600084828151811061046957610469613703565b60200260200101516001600160a01b03166370a08231306040518263ffffffff1660e01b815260040161049c91906136b8565b602060405180830381865afa1580156104b9573d6000803e3d6000fd5b505050506040513d601f19601f820116820180604052508101906104dd9190613756565b90508382815181106104f1576104f1613703565b602002602001015181111561055b5761055b3385848151811061051657610516613703565b60200260200101518361052991906138fc565b87858151811061053b5761053b613703565b60200260200101516001600160a01b0316611c7a9092919063ffffffff16565b5061056581613785565b905061044e565b505060019093555050505050565b6000610584611bdf565b8054909150600119016105a95760405162461bcd60e51b8152600401610217906136cc565b600281556105b5611c03565b60006105bf611dad565b9050428160060154036105e45760405162461bcd60e51b81526004016102179061390f565b6105ed85611dd1565b61060a57604051637b4a38b160e01b815260040160405180910390fd5b6040516305feb5ff60e21b81526001600160a01b038616906317fad7fc9061063c903090339089908990600401613990565b600060405180830381600087803b15801561065657600080fd5b505af115801561066a573d6000803e3d6000fd5b505050506000610678611e40565b90506000805b825481101561083b57876001600160a01b03168382815481106106a3576106a3613703565b6000918252602090912001546001600160a01b031603610829578281815481106106cf576106cf613703565b60009182526020909120018054604051627eeac760e11b81529193506001600160a01b0381169162fdd58e91610716913091600160a01b900462ffffff16906004016139ce565b602060405180830381865afa158015610733573d6000803e3d6000fd5b505050506040513d601f19601f820116820180604052508101906107579190613756565b600003610829578254839061076e906001906138fc565b8154811061077e5761077e613703565b9060005260206000200183828154811061079a5761079a613703565b600091825260209091208254910180546001600160a01b039092166001600160a01b031983168117825592546001600160b81b0319909216909217600160a01b9182900462ffffff16909102179055806107f3816139ec565b9150508280548061080657610806613a09565b600082815260209020810160001990810180546001600160b81b03191690550190555b8061083381613a1f565b91505061067e565b50866001600160a01b0316336001600160a01b03167fde371a6c6695e4fc478ecc58aaf065ad8a1a9567d65ad0be63aa0eab6a99742d88884260405161088393929190613a37565b60405180910390a35050610895611e4a565b6108b15760405162461bcd60e51b815260040161021790613a6d565b506108ba611ea0565b61091a5760405162461bcd60e51b815260206004820152602b60248201527f496e73756666696369656e742061737365747320746f2066756c6c792072657060448201526a185e481d1a19481919589d60aa1b6064820152608401610217565b60019055505050565b60006109756109386331d98b3f60e01b611ee3565b6040805160248082018790528251808303909101815260449091019091526020810180516001600160e01b03166331d98b3f60e01b179052611f61565b8060200190518101906109889190613756565b92915050565b60006109d16109a3637914334f60e01b611ee3565b6040805160048152602481019091526020810180516001600160e01b0316637914334f60e01b179052611fe4565b8060200190518101906109e49190613756565b905090565b6000806109f4612049565b90506000610a01826120f7565b61ffff16905080600003610a2857604051632154bfcf60e21b815260040160405180910390fd5b610a33600283613ac0565b915060005b81811015610afb576000610a4b84612131565b9050600080610a5b606887613ac0565b90506000610a6982366138fc565b9050803592508265ffffffffffff16600003610a9857604051630336dc9d60e41b815260040160405180910390fd5b87600003610ab0578265ffffffffffff169750610ad8565b878365ffffffffffff1614610ad85760405163d9d1f46560e01b815260040160405180910390fd5b610ae28488613ac0565b9650505050508080610af390613785565b915050610a38565b50505090565b6000610b0b611bdf565b805490915060011901610b305760405162461bcd60e51b8152600401610217906136cc565b60028155610b3c611c03565b6000610b46611dad565b905042816006015403610b6b5760405162461bcd60e51b81526004016102179061390f565b6000610b75611b86565b90506000610b81611115565b90506000826001600160a01b03166388cc58e46040518163ffffffff1660e01b8152600401602060405180830381865afa158015610bc3573d6000803e3d6000fd5b505050506040513d601f19601f82011682018060405250810190610be79190613ad3565b865160208801516040808a0151905163704037bd60e01b81526001600160a01b039384166004820152918316602483015260448201529192506000919083169063704037bd90606401608060405180830381865afa158015610c4d573d6000803e3d6000fd5b505050506040513d601f19601f82011682018060405250810190610c719190613b00565b9050610c808160200151611dd1565b610c9d57604051637b4a38b160e01b815260040160405180910390fd5b6000610ca761216d565b88516040516307c11f8f60e51b81529192506000916001600160a01b0384169163f823f1e091610cda91906004016136b8565b602060405180830381865afa158015610cf7573d6000803e3d6000fd5b505050506040513d601f19601f82011682018060405250810190610d1b9190613756565b90506000826001600160a01b031663f823f1e08b602001516040518263ffffffff1660e01b8152600401610d4f91906136b8565b602060405180830381865afa158015610d6c573d6000803e3d6000fd5b505050506040513d601f19601f82011682018060405250810190610d909190613756565b306101808c018190526101a08c01528a51909150610db9906001600160a01b0316886000612185565b60208a0151610dd3906001600160a01b0316886000612185565b60608a01518a51610df1916001600160a01b03909116908990612185565b610e17878b608001518c602001516001600160a01b03166121859092919063ffffffff16565b6000806000808a6001600160a01b031663a3c7271a8f6040518263ffffffff1660e01b8152600401610e499190613b80565b6000604051808303816000875af1158015610e68573d6000803e3d6000fd5b505050506040513d6000823e601f3d908101601f19168201604052610e909190810190613cee565b9550955050509350935060005b8251811015610ff6576000805b8c51811015610f4d578a602001516001600160a01b03168d8281518110610ed357610ed3613703565b6020026020010151600001516001600160a01b0316148015610f2f5750848381518110610f0257610f02613703565b60200260200101518d8281518110610f1c57610f1c613703565b60200260200101516020015162ffffff16145b15610f3d5760019150610f4d565b610f4681613a1f565b9050610eaa565b5080610fe557610f5b611e40565b60405180604001604052808c602001516001600160a01b03168152602001868581518110610f8b57610f8b613703565b60209081029190910181015162ffffff90811690925283546001810185556000948552938190208351940180549390910151909116600160a01b026001600160b81b03199092166001600160a01b03909316929092171790555b50610fef81613785565b9050610e9d565b50611006878f60000151866122af565b611015878f60200151856122af565b605061101f611e40565b54111561103f5760405163ec03ecaf60e01b815260040160405180910390fd5b87602001516001600160a01b0316336001600160a01b03167fe0545b844615fda761267b49277bbdbae3d6813c9951b6d25092c3494712a64784848a8a8a8a426040516110929796959493929190613d78565b60405180910390a350505050505050505050506110ad611e4a565b6110c95760405162461bcd60e51b815260040161021790613a6d565b506001905550565b6111126110e463b1c9fbc160e01b611ee3565b6040805160048152602481019091526020810180516001600160e01b031663b1c9fbc160e01b179052611fe4565b50565b606061111f6124f8565b805480602002602001604051908101604052809291908181526020016000905b8282101561118a57600084815260209081902060408051808201909152908401546001600160a01b0381168252600160a01b900462ffffff168183015282526001909201910161113f565b50505050905090565b60006109756111a863360398a360e01b611ee3565b60405163360398a360e01b906111c290869060240161363a565b60408051601f198184030181529190526020810180516001600160e01b03166001600160e01b031990931692909217909152611fe4565b60006109d161120e63caacc76160e01b611ee3565b6040805160048152602481019091526020810180516001600160e01b031663caacc76160e01b179052611fe4565b6000611246611bdf565b80549091506001190161126b5760405162461bcd60e51b8152600401610217906136cc565b600281556000611279612521565b6001600160a01b031663e319fccc336040518263ffffffff1660e01b81526004016112a491906136b8565b602060405180830381865afa1580156112c1573d6000803e3d6000fd5b505050506040513d601f19601f820116820180604052508101906112e59190613dc8565b9050801561133c576112f5611e4a565b156113375760405162461bcd60e51b81526020600482015260126024820152711058d8dbdd5b9d081a5cc81cdbdb1d995b9d60721b6044820152606401610217565b611344565b611344611c03565b600061134e611dad565b9050428160060154036113735760405162461bcd60e51b81526004016102179061390f565b600061137d611b86565b90506000816001600160a01b03166388cc58e46040518163ffffffff1660e01b8152600401602060405180830381865afa1580156113bf573d6000803e3d6000fd5b505050506040513d601f19601f820116820180604052508101906113e39190613ad3565b865160208801516040808a0151905163704037bd60e01b81526001600160a01b039384166004820152918316602483015261ffff16604482015291169063704037bd90606401608060405180830381865afa158015611446573d6000803e3d6000fd5b505050506040513d601f19601f8201168201806040525081019061146a9190613b00565b602001516040516339612d9560e21b81526001600160a01b038481166004830152600160248301529192509082169063e584b65490604401600060405180830381600087803b1580156114bc57600080fd5b505af11580156114d0573d6000803e3d6000fd5b505050506000806114e18489612539565b9150915060006114ef611e40565b905060005b81548110156116b557846001600160a01b031682828154811061151957611519613703565b6000918252602090912001546001600160a01b0316036116a357600082828154811061154757611547613703565b60009182526020909120018054604051627eeac760e11b81529192506001600160a01b0381169162fdd58e9161158e913091600160a01b900462ffffff16906004016139ce565b602060405180830381865afa1580156115ab573d6000803e3d6000fd5b505050506040513d601f19601f820116820180604052508101906115cf9190613756565b6000036116a157825483906115e6906001906138fc565b815481106115f6576115f6613703565b9060005260206000200183838154811061161257611612613703565b600091825260209091208254910180546001600160a01b039092166001600160a01b031983168117825592546001600160b81b0319909216909217600160a01b9182900462ffffff169091021790558161166b816139ec565b9250508280548061167e5761167e613a09565b600082815260209020810160001990810180546001600160b81b03191690550190555b505b806116ad81613a1f565b9150506114f4565b5060006116c061216d565b8a516040516307c11f8f60e51b81529192506000916001600160a01b0384169163f823f1e0916116f391906004016136b8565b602060405180830381865afa158015611710573d6000803e3d6000fd5b505050506040513d601f19601f820116820180604052508101906117349190613756565b90506000826001600160a01b031663f823f1e08d602001516040518263ffffffff1660e01b815260040161176891906136b8565b602060405180830381865afa158015611785573d6000803e3d6000fd5b505050506040513d601f19601f820116820180604052508101906117a99190613756565b90506117ba838d60000151886125ec565b6117c9838d60200151876125ec565b866001600160a01b0316336001600160a01b03167f36f3e5cadbf3bf74a6d58f6945d05e06843ea680baf8556bd371dd60876cbeb28e60a001518f60c0015186864260405161181c959493929190613de3565b60405180910390a3505050505050505050806110c95761183a611e4a565b6110c95760405162461bcd60e51b8152602060048201526011602482015270135d5cdd081cdd185e481cdbdb1d995b9d607a1b6044820152606401610217565b6118a56040518060800160405280606081526020016060815260200160608152602001606081525090565b6118d26118b86351d5468f60e11b611ee3565b6040516351d5468f60e11b906111c2908690602401613e26565b8060200190518101906109889190613ee9565b60006118ef611bdf565b8054909150600119016119145760405162461bcd60e51b8152600401610217906136cc565b6002815561192184611dd1565b61193e57604051637b4a38b160e01b815260040160405180910390fd5b6040516305feb5ff60e21b81526001600160a01b038516906317fad7fc90611970903390309088908890600401613990565b600060405180830381600087803b15801561198a57600080fd5b505af115801561199e573d6000803e3d6000fd5b5050505060006119ac611115565b905060005b8451811015611b02576000805b8351811015611a5d57876001600160a01b03168482815181106119e3576119e3613703565b6020026020010151600001516001600160a01b0316148015611a3f5750868381518110611a1257611a12613703565b6020026020010151848281518110611a2c57611a2c613703565b60200260200101516020015162ffffff16145b15611a4d5760019150611a5d565b611a5681613a1f565b90506119be565b5080611af157611a6b611e40565b6040518060400160405280896001600160a01b03168152602001888581518110611a9757611a97613703565b60209081029190910181015162ffffff90811690925283546001810185556000948552938190208351940180549390910151909116600160a01b026001600160b81b03199092166001600160a01b03909316929092171790555b50611afb81613785565b90506119b1565b506050611b0d611e40565b541115611b2d5760405163ec03ecaf60e01b815260040160405180910390fd5b846001600160a01b0316336001600160a01b03167f1b340b74cdd63543296980822c40dd734fe06a263418ce46315ea6dc65e26c38868642604051611b7493929190613a37565b60405180910390a35060019055505050565b73b4315e873dbcf96ffd0acd8ea43f689d8c20fb3090565b611112611bb163e017e12560e01b611ee3565b6040805160048152602481019091526020810180516001600160e01b031663e017e12560e01b179052611fe4565b7f1c85eba10a4cf2d29c83fc15f97931886b9fd3caeb70d8c377aeedc58b919e3b90565b611c0b612833565b600101546001600160a01b03163314611c785760405162461bcd60e51b815260206004820152602960248201527f4469616d6f6e6453746f726167654c69623a204d75737420626520636f6e747260448201526830b1ba1037bbb732b960b91b6064820152608401610217565b565b600080846001600160a01b031663a9059cbb8585604051602401611c9f929190613fb2565b6040516020818303038152906040529060e01b6020820180516001600160e01b038381831617835250505050604051611cd89190613fef565b6000604051808303816000865af19150503d8060008114611d15576040519150601f19603f3d011682016040523d82523d6000602084013e611d1a565b606091505b5091509150818015611d44575080511580611d44575080806020019051810190611d449190613dc8565b611da65760405162461bcd60e51b815260206004820152602d60248201527f5472616e7366657248656c7065723a3a736166655472616e736665723a20747260448201526c185b9cd9995c8819985a5b1959609a1b6064820152608401610217565b5050505050565b7fc8fcad8db84d3cc18b4c41d551ea0ee66dd599cde068d998e57d5e09332c131c90565b600080611ddc612857565b905060005b8151811015611e3657818181518110611dfc57611dfc613703565b60200260200101516001600160a01b0316846001600160a01b031603611e26575060019392505050565b611e2f81613785565b9050611de1565b5060009392505050565b60006109e46124f8565b6000611e8d611e5f6305ce239560e41b611ee3565b6040805160048152602481019091526020810180516001600160e01b03166305ce239560e41b179052611fe4565b8060200190518101906109e49190613dc8565b6000611e8d611eb5631ca1529760e11b611ee3565b6040805160048152602481019091526020810180516001600160e01b0316631ca1529760e11b179052611fe4565b6000611eed612521565b604051630d74157760e01b81526001600160e01b0319841660048201526001600160a01b039190911690630d74157790602401602060405180830381865afa158015611f3d573d6000803e3d6000fd5b505050506040513d601f19601f820116820180604052508101906109889190613ad3565b60606000611f6e836129e5565b9050600080856001600160a01b031683604051611f8b9190613fef565b600060405180830381855afa9150503d8060008114611fc6576040519150601f19603f3d011682016040523d82523d6000602084013e611fcb565b606091505b5091509150611fda8282612a74565b9695505050505050565b60606000611ff1836129e5565b9050600080856001600160a01b03168360405161200e9190613fef565b600060405180830381855af49150503d8060008114611fc6576040519150601f19603f3d011682016040523d82523d6000602084013e611fcb565b60006602ed57011e0000601f193601358116148061207a576040516373bb264f60e11b815260040160405180910390fd5b6000366029111561209e57604051632bcb7bc560e11b815260040160405180910390fd5b50602819360135600060096120b9600362ffffff8516613ac0565b6120c39190613ac0565b9050366120d1600283613ac0565b11156120f05760405163c30a7bd760e01b815260040160405180910390fd5b9392505050565b600080612105602084613ac0565b90503681111561212857604051632bcb7bc560e11b815260040160405180910390fd5b36033592915050565b600080600061213f84612af1565b9092509050604e612151826020613ac0565b61215b9084614001565b6121659190613ac0565b949350505050565b73f3978209b7cff2b90100c6f87cec77de928ed58e90565b600080846001600160a01b031663095ea7b385856040516024016121aa929190613fb2565b6040516020818303038152906040529060e01b6020820180516001600160e01b0383818316178352505050506040516121e39190613fef565b6000604051808303816000865af19150503d8060008114612220576040519150601f19603f3d011682016040523d82523d6000602084013e612225565b606091505b509150915081801561224f57508051158061224f57508080602001905181019061224f9190613dc8565b611da65760405162461bcd60e51b815260206004820152602b60248201527f5472616e7366657248656c7065723a3a73616665417070726f76653a2061707060448201526a1c9bdd994819985a5b195960aa1b6064820152608401610217565b80156124f3576040516307c11f8f60e51b81526001600160a01b0384169063adfe6a0f90829063f823f1e0906122e99087906004016136b8565b602060405180830381865afa158015612306573d6000803e3d6000fd5b505050506040513d601f19601f8201168201806040525081019061232a9190613756565b846001600160a01b031663313ce5676040518163ffffffff1660e01b8152600401602060405180830381865afa158015612368573d6000803e3d6000fd5b505050506040513d601f19601f8201168201806040525081019061238c9190614018565b61239790600a61411f565b6123a985670de0b6b3a7640000614001565b6123b3919061412e565b6040516001600160e01b031960e085901b16815260048101929092526024820152604401600060405180830381600087803b1580156123f157600080fd5b505af1158015612405573d6000803e3d6000fd5b50506040516370a0823160e01b81526001600160a01b03851692506370a0823191506124359030906004016136b8565b602060405180830381865afa158015612452573d6000803e3d6000fd5b505050506040513d601f19601f820116820180604052508101906124769190613756565b6000036124f3576040516307c11f8f60e51b81526124f3906001600160a01b0385169063f823f1e0906124ad9086906004016136b8565b602060405180830381865afa1580156124ca573d6000803e3d6000fd5b505050506040513d601f19601f820116820180604052508101906124ee9190613756565b612b48565b505050565b6000807fec548c64bcf9d557a690fde0c6b4431edcdb8662fd4787104fa8658b4664cc61610988565b732916b3bf7c35bd21e63d01c93c62fb0d4994e56d90565b600080600080856001600160a01b031663c22159b686600001518760200151886040015189606001518a608001518b60a001518c60c00151308e60e001516040518a63ffffffff1660e01b815260040161259b99989796959493929190614150565b60408051808303816000875af11580156125b9573d6000803e3d6000fd5b505050506040513d601f19601f820116820180604052508101906125dd91906141be565b909450925050505b9250929050565b80156124f3576040516307c11f8f60e51b81526001600160a01b0384169063c3cc6c7a90829063f823f1e0906126269087906004016136b8565b602060405180830381865afa158015612643573d6000803e3d6000fd5b505050506040513d601f19601f820116820180604052508101906126679190613756565b846001600160a01b031663313ce5676040518163ffffffff1660e01b8152600401602060405180830381865afa1580156126a5573d6000803e3d6000fd5b505050506040513d601f19601f820116820180604052508101906126c99190614018565b6126d490600a61411f565b6126e685670de0b6b3a7640000614001565b6126f0919061412e565b6040516001600160e01b031960e085901b16815260048101929092526024820152604401600060405180830381600087803b15801561272e57600080fd5b505af1158015612742573d6000803e3d6000fd5b50506040516370a0823160e01b8152600092506001600160a01b03851691506370a08231906127759030906004016136b8565b602060405180830381865afa158015612792573d6000803e3d6000fd5b505050506040513d601f19601f820116820180604052508101906127b69190613756565b11156124f3576040516307c11f8f60e51b81526124f3906001600160a01b0385169063f823f1e0906127ec9086906004016136b8565b602060405180830381865afa158015612809573d6000803e3d6000fd5b505050506040513d601f19601f8201168201806040525081019061282d9190613756565b83612ba0565b7f8d5bb42e0ac1496a2c326edc9c00758985246e6c2bb146d6c2f4a0d509e0960a90565b60408051600580825260c082019092526060916020820160a08036833701905050905073d446eb1660f766d533beceef890df7a69d26f7d1816000815181106128a2576128a2613703565b60200260200101906001600160a01b031690816001600160a01b031681525050731901011a39b11271578a1283d620373abed66faa816001815181106128ea576128ea613703565b60200260200101906001600160a01b031690816001600160a01b03168152505073d9fa522f5bc6cfa40211944f2c8da785773ad99d8160028151811061293257612932613703565b60200260200101906001600160a01b031690816001600160a01b031681525050732823299af89285ff1a1abf58db37ce57006fef5d8160038151811061297a5761297a613703565b60200260200101906001600160a01b031690816001600160a01b03168152505073ea7309636e7025fda0ee2282733ea248c3898495816004815181106129c2576129c2613703565b60200260200101906001600160a01b031690816001600160a01b03168152505090565b805160609060006129f4612c8f565b90506000612a028284613ac0565b905036821115612a2557604051632bcb7bc560e11b815260040160405180910390fd5b6060604051905081815285602001848101826020015b81831015612a53578251815260209283019201612a3b565b50505082833603856020018301379190920181016020016040529392505050565b606082612aeb578151600003612a9d57604051632b3ff13d60e11b815260040160405180910390fd5b602082015162461bcd60e51b148015612ad0576040516301efd04f60e31b8152604484019061021790829060040161420e565b8260405163fd36fde360e01b8152600401610217919061420e565b50919050565b600080808080612b02604187613ac0565b90506000612b1b612b14602084613ac0565b3690612cfa565b803594509050612b2c816003612cfa565b62ffffff9490941697933563ffffffff16965092945050505050565b6000612b52612833565b9050612b618160040183612d06565b50817f82829875fd21462894d9bbb2fdbd4a8c25ceb68425c4835a59ca0e76902def9442604051612b9491815260200190565b60405180910390a25050565b81600003612be95760405162461bcd60e51b815260206004820152601660248201527553796d626f6c2063616e6e6f7420626520656d70747960501b6044820152606401610217565b6001600160a01b038116612c355760405162461bcd60e51b8152602060048201526013602482015272496e76616c696420416464726573735a65726f60681b6044820152606401610217565b6000612c3f612833565b9050612c4f816004018484612d12565b50827f21eab7d98872eb1399cd56d99a43442b9b50720f3222e49563d2be182c6a6a3f42604051612c8291815260200190565b60405180910390a2505050565b600080612c9a612049565b90506000612ca7826120f7565b61ffff169050612cb8600283613ac0565b915060005b81811015612cf2576000612cd084612131565b9050612cdc8185613ac0565b9350508080612cea90613785565b915050612cbd565b509092915050565b60006120f082846138fc565b60006120f08383612d28565b600061216584846001600160a01b038516612d45565b600081815260028301602052604081208190556120f08383612d62565b600082815260028401602052604081208290556121658484612d6e565b60006120f08383612d7a565b60006120f08383612e6d565b60008181526001830160205260408120548015612e63576000612d9e6001836138fc565b8554909150600090612db2906001906138fc565b9050818114612e17576000866000018281548110612dd257612dd2613703565b9060005260206000200154905080876000018481548110612df557612df5613703565b6000918252602080832090910192909255918252600188019052604090208390555b8554869080612e2857612e28613a09565b600190038181906000526020600020016000905590558560010160008681526020019081526020016000206000905560019350505050610988565b6000915050610988565b6000818152600183016020526040812054612eb457508154600181810184556000848152602080822090930184905584548482528286019093526040902091909155610988565b506000610988565b60008060208385031215612ecf57600080fd5b82356001600160401b0380821115612ee657600080fd5b818501915085601f830112612efa57600080fd5b813581811115612f0957600080fd5b8660208260051b8501011115612f1e57600080fd5b60209290920196919550909350505050565b6001600160a01b038116811461111257600080fd5b634e487b7160e01b600052604160045260246000fd5b6040516101e081016001600160401b0381118282101715612f7e57612f7e612f45565b60405290565b604080519081016001600160401b0381118282101715612f7e57612f7e612f45565b604051608081016001600160401b0381118282101715612f7e57612f7e612f45565b60405161010081016001600160401b0381118282101715612f7e57612f7e612f45565b604051601f8201601f191681016001600160401b038111828210171561301357613013612f45565b604052919050565b60006001600160401b0382111561303457613034612f45565b5060051b60200190565b600082601f83011261304f57600080fd5b8135602061306461305f8361301b565b612feb565b82815260059290921b8401810191818101908684111561308357600080fd5b8286015b8481101561309e5780358352918301918301613087565b509695505050505050565b6000806000606084860312156130be57600080fd5b83356130c981612f30565b925060208401356001600160401b03808211156130e557600080fd5b6130f18783880161303e565b9350604086013591508082111561310757600080fd5b506131148682870161303e565b9150509250925092565b60006020828403121561313057600080fd5b5035919050565b803561314281612f30565b919050565b60006020828403121561315957600080fd5b81356001600160401b038082111561317057600080fd5b908301906101e0828603121561318557600080fd5b61318d612f5b565b61319683613137565b81526131a460208401613137565b602082015260408301356040820152606083013560608201526080830135608082015260a083013560a082015260c083013560c082015260e083013560e0820152610100808401358183015250610120808401358381111561320557600080fd5b6132118882870161303e565b828401525050610140808401358381111561322b57600080fd5b6132378882870161303e565b828401525050610160808401358381111561325157600080fd5b61325d8882870161303e565b8284015250506101809150613273828401613137565b828201526101a09150613287828401613137565b918101919091526101c091820135918101919091529392505050565b6001600160a01b03169052565b602080825282518282018190526000919060409081850190868401855b8281101561330057815180516001600160a01b0316855286015162ffffff168685015292840192908501906001016132cd565b5091979650505050505050565b600082601f83011261331e57600080fd5b8135602061332e61305f8361301b565b82815260069290921b8401810191818101908684111561334d57600080fd5b8286015b8481101561309e576040818903121561336a5760008081fd5b613372612f84565b813581528482013585820152835291830191604001613351565b60006020828403121561339e57600080fd5b81356001600160401b03808211156133b557600080fd5b90830190608082860312156133c957600080fd5b6133d1612fa6565b8235828111156133e057600080fd5b6133ec8782860161330d565b82525060208301358281111561340157600080fd5b61340d8782860161330d565b60208301525060408301358281111561342557600080fd5b6134318782860161330d565b60408301525060608301358281111561344957600080fd5b6134558782860161330d565b60608301525095945050505050565b61ffff8116811461111257600080fd5b803561314281613464565b60006020828403121561349157600080fd5b81356001600160401b03808211156134a857600080fd5b9083019061010082860312156134bd57600080fd5b6134c5612fc8565b6134ce83613137565b81526134dc60208401613137565b60208201526134ed60408401613474565b6040820152606083013560608201526080830135608082015260a08301358281111561351857600080fd5b6135248782860161303e565b60a08301525060c08301358281111561353c57600080fd5b6135488782860161303e565b60c08301525060e083013560e082015280935050505092915050565b6000602080838503121561357757600080fd5b82356001600160401b0381111561358d57600080fd5b8301601f8101851361359e57600080fd5b80356135ac61305f8261301b565b81815260059190911b820183019083810190878311156135cb57600080fd5b928401925b828410156135e9578335825292840192908401906135d0565b979650505050505050565b600081518084526020808501945080840160005b8381101561362f578151805188528301518388015260409096019590820190600101613608565b509495945050505050565b60208152600082516080602084015261365660a08401826135f4565b90506020840151601f198085840301604086015261367483836135f4565b9250604086015191508085840301606086015261369183836135f4565b92506060860151915080858403016080860152506136af82826135f4565b95945050505050565b6001600160a01b0391909116815260200190565b6020808252601f908201527f5265656e7472616e637947756172643a207265656e7472616e742063616c6c00604082015260600190565b634e487b7160e01b600052603260045260246000fd5b6000823560be1983360301811261372f57600080fd5b9190910192915050565b60006020828403121561374b57600080fd5b81356120f081612f30565b60006020828403121561376857600080fd5b5051919050565b634e487b7160e01b600052601160045260246000fd5b6000600182016137975761379761376f565b5060010190565b6000808335601e198436030181126137b557600080fd5b83016020810192503590506001600160401b038111156137d457600080fd5b8060051b36038213156125e557600080fd5b81835260006001600160fb1b038311156137ff57600080fd5b8260051b80836020870137939093016020019392505050565b60208082528181018390526000906040808401600586901b850182018785805b898110156138ed57888403603f190185528235368c900360be1901811261385d578283fd5b8b0160c0813561386c81612f30565b6001600160a01b039081168752828a01358a880152888301359061388f82612f30565b908116878a0152606090838201356138a681612f30565b16908701526080828101359087015260a06138c38184018461379e565b935082828901526138d783890185836137e6565b988b019897505050938801935050600101613838565b50919998505050505050505050565b818103818111156109885761098861376f565b60208082526031908201527f426f72726f77696e67206d7573742068617070656e20696e2061207374616e6460408201527030b637b732903a3930b739b0b1ba34b7b760791b606082015260800190565b600081518084526020808501945080840160005b8381101561362f57815187529582019590820190600101613974565b6001600160a01b038581168252841660208201526080604082018190526000906139bc90830185613960565b82810360608401526135e98185613960565b6001600160a01b0392909216825262ffffff16602082015260400190565b6000600160ff1b8201613a0157613a0161376f565b506000190190565b634e487b7160e01b600052603160045260246000fd5b60006001600160ff1b0182016137975761379761376f565b606081526000613a4a6060830186613960565b8281036020840152613a5c8186613960565b915050826040830152949350505050565b60208082526033908201527f54686520616374696f6e206d617920636175736520616e206163636f756e74206040820152721d1bc8189958dbdb59481a5b9cdbdb1d995b9d606a1b606082015260800190565b808201808211156109885761098861376f565b600060208284031215613ae557600080fd5b81516120f081612f30565b8051801515811461314257600080fd5b600060808284031215613b1257600080fd5b604051608081016001600160401b0381118282101715613b3457613b34612f45565b6040528251613b4281613464565b81526020830151613b5281612f30565b6020820152613b6360408401613af0565b6040820152613b7460608401613af0565b60608201529392505050565b60208152613b926020820183516132a3565b60006020830151613ba660408401826132a3565b506040830151606083015260608301516080830152608083015160a083015260a083015160c083015260c083015160e083015260e08301516101008181850152808501519150506101208181850152808501519150506101e06101408181860152613c15610200860184613960565b9250808601519050601f19610160818786030181880152613c368584613960565b945080880151925050610180818786030181880152613c558584613960565b945080880151925050506101a0613c6e818701836132a3565b86015190506101c0613c82868201836132a3565b959095015193019290925250919050565b600082601f830112613ca457600080fd5b81516020613cb461305f8361301b565b82815260059290921b84018101918181019086841115613cd357600080fd5b8286015b8481101561309e5780518352918301918301613cd7565b60008060008060008060c08789031215613d0757600080fd5b86516020880151604089015160608a015160808b0151939950919750955093506001600160401b0380821115613d3c57600080fd5b613d488a838b01613c93565b935060a0890151915080821115613d5e57600080fd5b50613d6b89828a01613c93565b9150509295509295509295565b60e081526000613d8b60e083018a613960565b8281036020840152613d9d818a613960565b604084019890985250506060810194909452608084019290925260a083015260c09091015292915050565b600060208284031215613dda57600080fd5b6120f082613af0565b60a081526000613df660a0830188613960565b8281036020840152613e088188613960565b60408401969096525050606081019290925260809091015292915050565b6020808252825182820181905260009190848201906040850190845b81811015613e5e57835183529284019291840191600101613e42565b50909695505050505050565b600082601f830112613e7b57600080fd5b81516020613e8b61305f8361301b565b82815260069290921b84018101918181019086841115613eaa57600080fd5b8286015b8481101561309e5760408189031215613ec75760008081fd5b613ecf612f84565b815181528482015185820152835291830191604001613eae565b600060208284031215613efb57600080fd5b81516001600160401b0380821115613f1257600080fd5b9083019060808286031215613f2657600080fd5b613f2e612fa6565b825182811115613f3d57600080fd5b613f4987828601613e6a565b825250602083015182811115613f5e57600080fd5b613f6a87828601613e6a565b602083015250604083015182811115613f8257600080fd5b613f8e87828601613e6a565b604083015250606083015182811115613fa657600080fd5b61345587828601613e6a565b6001600160a01b03929092168252602082015260400190565b60005b83811015613fe6578181015183820152602001613fce565b50506000910152565b6000825161372f818460208701613fcb565b80820281158282048414176109885761098861376f565b60006020828403121561402a57600080fd5b815160ff811681146120f057600080fd5b600181815b8085111561407657816000190482111561405c5761405c61376f565b8085161561406957918102915b93841c9390800290614040565b509250929050565b60008261408d57506001610988565b8161409a57506000610988565b81600181146140b057600281146140ba576140d6565b6001915050610988565b60ff8411156140cb576140cb61376f565b50506001821b610988565b5060208310610133831016604e8410600b84101617156140f9575081810a610988565b614103838361403b565b80600019048211156141175761411761376f565b029392505050565b60006120f060ff84168361407e565b60008261414b57634e487b7160e01b600052601260045260246000fd5b500490565b600061012060018060a01b03808d168452808c16602085015261ffff8b1660408501528960608501528860808501528160a085015261419182850189613960565b915083820360c08501526141a58288613960565b951660e084015250506101000152979650505050505050565b600080604083850312156141d157600080fd5b505080516020909101519092909150565b600081518084526141fa816020860160208601613fcb565b601f01601f19169290920160200192915050565b6020815260006120f060208301846141e256fea2646970667358221220c72e805e0b6fe92a097ef756086ecf6bc27b36895ddc0cb57fee3dc90892eadf64736f6c63430008110033",
  "devdoc": {
    "kind": "dev",
    "methods": {},
    "version": 1
  },
  "userdoc": {
    "kind": "user",
    "methods": {},
    "version": 1
  },
  "storageLayout": {
    "storage": [
      {
        "astId": 13151,
        "contract": "contracts/facets/avalanche/TraderJoeV2AvalancheFacet.sol:TraderJoeV2AvalancheFacet",
        "label": "_status",
        "offset": 0,
        "slot": "0",
        "type": "t_uint256"
      }
    ],
    "types": {
      "t_uint256": {
        "encoding": "inplace",
        "label": "uint256",
        "numberOfBytes": "32"
      }
    }
  }
}