{
  "address": "0xA5b79c5125a9c0c0eD42A76f6CFbC12350F5bD77",
  "abi": [
    {
      "inputs": [],
      "name": "CalldataMustHaveValidPayload",
      "type": "error"
    },
    {
      "inputs": [],
      "name": "CalldataOverOrUnderFlow",
      "type": "error"
    },
    {
      "inputs": [],
      "name": "DataPackageTimestampMustNotBeZero",
      "type": "error"
    },
    {
      "inputs": [],
      "name": "DataPackageTimestampsMustBeEqual",
      "type": "error"
    },
    {
      "inputs": [],
      "name": "EachSignerMustProvideTheSameValue",
      "type": "error"
    },
    {
      "inputs": [],
      "name": "EmptyCalldataPointersArr",
      "type": "error"
    },
    {
      "inputs": [],
      "name": "IncorrectUnsignedMetadataSize",
      "type": "error"
    },
    {
      "inputs": [
        {
          "internalType": "uint256",
          "name": "receivedSignersCount",
          "type": "uint256"
        },
        {
          "internalType": "uint256",
          "name": "requiredSignersCount",
          "type": "uint256"
        }
      ],
      "name": "InsufficientNumberOfUniqueSigners",
      "type": "error"
    },
    {
      "inputs": [],
      "name": "InvalidCalldataPointer",
      "type": "error"
    },
    {
      "inputs": [
        {
          "internalType": "bytes",
          "name": "result",
          "type": "bytes"
        }
      ],
      "name": "ProxyCalldataFailedWithCustomError",
      "type": "error"
    },
    {
      "inputs": [
        {
          "internalType": "string",
          "name": "message",
          "type": "string"
        }
      ],
      "name": "ProxyCalldataFailedWithStringMessage",
      "type": "error"
    },
    {
      "inputs": [],
      "name": "ProxyCalldataFailedWithoutErrMsg",
      "type": "error"
    },
    {
      "inputs": [],
      "name": "RedstonePayloadMustHaveAtLeastOneDataPackage",
      "type": "error"
    },
    {
      "inputs": [
        {
          "internalType": "address",
          "name": "receivedSigner",
          "type": "address"
        }
      ],
      "name": "SignerNotAuthorised",
      "type": "error"
    },
    {
      "inputs": [],
      "name": "TooManyBins",
      "type": "error"
    },
    {
      "inputs": [],
      "name": "TraderJoeV2NoRewardHook",
      "type": "error"
    },
    {
      "inputs": [],
      "name": "TraderJoeV2PoolNotWhitelisted",
      "type": "error"
    },
    {
      "inputs": [],
      "name": "TraderJoeV2RouterNotWhitelisted",
      "type": "error"
    },
    {
      "anonymous": false,
      "inputs": [
        {
          "indexed": true,
          "internalType": "address",
          "name": "user",
          "type": "address"
        },
        {
          "indexed": true,
          "internalType": "address",
          "name": "pair",
          "type": "address"
        },
        {
          "indexed": false,
          "internalType": "uint256[]",
          "name": "binIds",
          "type": "uint256[]"
        },
        {
          "indexed": false,
          "internalType": "uint256[]",
          "name": "liquidityMinted",
          "type": "uint256[]"
        },
        {
          "indexed": false,
          "internalType": "bytes32",
          "name": "firstAsset",
          "type": "bytes32"
        },
        {
          "indexed": false,
          "internalType": "bytes32",
          "name": "secondAsset",
          "type": "bytes32"
        },
        {
          "indexed": false,
          "internalType": "uint256",
          "name": "firstAmount",
          "type": "uint256"
        },
        {
          "indexed": false,
          "internalType": "uint256",
          "name": "secondAmount",
          "type": "uint256"
        },
        {
          "indexed": false,
          "internalType": "uint256",
          "name": "timestamp",
          "type": "uint256"
        }
      ],
      "name": "AddLiquidityTraderJoeV2",
      "type": "event"
    },
    {
      "anonymous": false,
      "inputs": [
        {
          "indexed": true,
          "internalType": "address",
          "name": "user",
          "type": "address"
        },
        {
          "indexed": true,
          "internalType": "address",
          "name": "pair",
          "type": "address"
        },
        {
          "indexed": false,
          "internalType": "uint256[]",
          "name": "binIds",
          "type": "uint256[]"
        },
        {
          "indexed": false,
          "internalType": "uint256[]",
          "name": "amounts",
          "type": "uint256[]"
        },
        {
          "indexed": false,
          "internalType": "uint256",
          "name": "timestamp",
          "type": "uint256"
        }
      ],
      "name": "FundedLiquidityTraderJoeV2",
      "type": "event"
    },
    {
      "anonymous": false,
      "inputs": [
        {
          "indexed": true,
          "internalType": "bytes32",
          "name": "asset",
          "type": "bytes32"
        },
        {
          "indexed": false,
          "internalType": "uint256",
          "name": "timestamp",
          "type": "uint256"
        }
      ],
      "name": "OwnedAssetAdded",
      "type": "event"
    },
    {
      "anonymous": false,
      "inputs": [
        {
          "indexed": true,
          "internalType": "bytes32",
          "name": "asset",
          "type": "bytes32"
        },
        {
          "indexed": false,
          "internalType": "uint256",
          "name": "timestamp",
          "type": "uint256"
        }
      ],
      "name": "OwnedAssetRemoved",
      "type": "event"
    },
    {
      "anonymous": false,
      "inputs": [
        {
          "indexed": true,
          "internalType": "address",
          "name": "user",
          "type": "address"
        },
        {
          "indexed": true,
          "internalType": "address",
          "name": "pair",
          "type": "address"
        },
        {
          "indexed": false,
          "internalType": "uint256[]",
          "name": "binIds",
          "type": "uint256[]"
        },
        {
          "indexed": false,
          "internalType": "uint256[]",
          "name": "amounts",
          "type": "uint256[]"
        },
        {
          "indexed": false,
          "internalType": "bytes32",
          "name": "firstAsset",
          "type": "bytes32"
        },
        {
          "indexed": false,
          "internalType": "bytes32",
          "name": "secondAsset",
          "type": "bytes32"
        },
        {
          "indexed": false,
          "internalType": "uint256",
          "name": "timestamp",
          "type": "uint256"
        }
      ],
      "name": "RemoveLiquidityTraderJoeV2",
      "type": "event"
    },
    {
      "anonymous": false,
      "inputs": [
        {
          "indexed": true,
          "internalType": "address",
          "name": "user",
          "type": "address"
        },
        {
          "indexed": true,
          "internalType": "address",
          "name": "pair",
          "type": "address"
        },
        {
          "indexed": false,
          "internalType": "uint256[]",
          "name": "binIds",
          "type": "uint256[]"
        },
        {
          "indexed": false,
          "internalType": "uint256[]",
          "name": "amounts",
          "type": "uint256[]"
        },
        {
          "indexed": false,
          "internalType": "uint256",
          "name": "timestamp",
          "type": "uint256"
        }
      ],
      "name": "WithdrawnLiquidityTraderJoeV2",
      "type": "event"
    },
    {
      "inputs": [
        {
          "internalType": "bytes32[]",
          "name": "assetsToRepay",
          "type": "bytes32[]"
        }
      ],
      "name": "_getAllPricesForLiquidation",
      "outputs": [
        {
          "components": [
            {
              "components": [
                {
                  "internalType": "bytes32",
                  "name": "asset",
                  "type": "bytes32"
                },
                {
                  "internalType": "uint256",
                  "name": "price",
                  "type": "uint256"
                }
              ],
              "internalType": "struct SolvencyFacetProd.AssetPrice[]",
              "name": "ownedAssetsPrices",
              "type": "tuple[]"
            },
            {
              "components": [
                {
                  "internalType": "bytes32",
                  "name": "asset",
                  "type": "bytes32"
                },
                {
                  "internalType": "uint256",
                  "name": "price",
                  "type": "uint256"
                }
              ],
              "internalType": "struct SolvencyFacetProd.AssetPrice[]",
              "name": "debtAssetsPrices",
              "type": "tuple[]"
            },
            {
              "components": [
                {
                  "internalType": "bytes32",
                  "name": "asset",
                  "type": "bytes32"
                },
                {
                  "internalType": "uint256",
                  "name": "price",
                  "type": "uint256"
                }
              ],
              "internalType": "struct SolvencyFacetProd.AssetPrice[]",
              "name": "stakedPositionsPrices",
              "type": "tuple[]"
            },
            {
              "components": [
                {
                  "internalType": "bytes32",
                  "name": "asset",
                  "type": "bytes32"
                },
                {
                  "internalType": "uint256",
                  "name": "price",
                  "type": "uint256"
                }
              ],
              "internalType": "struct SolvencyFacetProd.AssetPrice[]",
              "name": "assetsToRepayPrices",
              "type": "tuple[]"
            }
          ],
          "internalType": "struct SolvencyFacetProd.CachedPrices",
          "name": "result",
          "type": "tuple"
        }
      ],
      "stateMutability": "nonpayable",
      "type": "function"
    },
    {
      "inputs": [],
      "name": "_getHealthRatio",
      "outputs": [
        {
          "internalType": "uint256",
          "name": "health",
          "type": "uint256"
        }
      ],
      "stateMutability": "nonpayable",
      "type": "function"
    },
    {
      "inputs": [
        {
          "components": [
            {
              "components": [
                {
                  "internalType": "bytes32",
                  "name": "asset",
                  "type": "bytes32"
                },
                {
                  "internalType": "uint256",
                  "name": "price",
                  "type": "uint256"
                }
              ],
              "internalType": "struct SolvencyFacetProd.AssetPrice[]",
              "name": "ownedAssetsPrices",
              "type": "tuple[]"
            },
            {
              "components": [
                {
                  "internalType": "bytes32",
                  "name": "asset",
                  "type": "bytes32"
                },
                {
                  "internalType": "uint256",
                  "name": "price",
                  "type": "uint256"
                }
              ],
              "internalType": "struct SolvencyFacetProd.AssetPrice[]",
              "name": "debtAssetsPrices",
              "type": "tuple[]"
            },
            {
              "components": [
                {
                  "internalType": "bytes32",
                  "name": "asset",
                  "type": "bytes32"
                },
                {
                  "internalType": "uint256",
                  "name": "price",
                  "type": "uint256"
                }
              ],
              "internalType": "struct SolvencyFacetProd.AssetPrice[]",
              "name": "stakedPositionsPrices",
              "type": "tuple[]"
            },
            {
              "components": [
                {
                  "internalType": "bytes32",
                  "name": "asset",
                  "type": "bytes32"
                },
                {
                  "internalType": "uint256",
                  "name": "price",
                  "type": "uint256"
                }
              ],
              "internalType": "struct SolvencyFacetProd.AssetPrice[]",
              "name": "assetsToRepayPrices",
              "type": "tuple[]"
            }
          ],
          "internalType": "struct SolvencyFacetProd.CachedPrices",
          "name": "cachedPrices",
          "type": "tuple"
        }
      ],
      "name": "_getHealthRatioWithPrices",
      "outputs": [
        {
          "internalType": "uint256",
          "name": "health",
          "type": "uint256"
        }
      ],
      "stateMutability": "nonpayable",
      "type": "function"
    },
    {
      "inputs": [],
      "name": "_getThresholdWeightedValue",
      "outputs": [
        {
          "internalType": "uint256",
          "name": "twv",
          "type": "uint256"
        }
      ],
      "stateMutability": "nonpayable",
      "type": "function"
    },
    {
      "inputs": [],
      "name": "_getThresholdWeightedValuePayable",
      "outputs": [
        {
          "internalType": "uint256",
          "name": "twv",
          "type": "uint256"
        }
      ],
      "stateMutability": "nonpayable",
      "type": "function"
    },
    {
      "inputs": [],
      "name": "_resetPrimeAccountAssetsExposure",
      "outputs": [],
      "stateMutability": "nonpayable",
      "type": "function"
    },
    {
      "inputs": [],
      "name": "_setPrimeAccountAssetsExposure",
      "outputs": [],
      "stateMutability": "nonpayable",
      "type": "function"
    },
    {
      "inputs": [
        {
          "internalType": "contract ILBRouter",
          "name": "traderJoeV2Router",
          "type": "address"
        },
        {
          "components": [
            {
              "internalType": "contract IERC20",
              "name": "tokenX",
              "type": "address"
            },
            {
              "internalType": "contract IERC20",
              "name": "tokenY",
              "type": "address"
            },
            {
              "internalType": "uint256",
              "name": "binStep",
              "type": "uint256"
            },
            {
              "internalType": "uint256",
              "name": "amountX",
              "type": "uint256"
            },
            {
              "internalType": "uint256",
              "name": "amountY",
              "type": "uint256"
            },
            {
              "internalType": "uint256",
              "name": "amountXMin",
              "type": "uint256"
            },
            {
              "internalType": "uint256",
              "name": "amountYMin",
              "type": "uint256"
            },
            {
              "internalType": "uint256",
              "name": "activeIdDesired",
              "type": "uint256"
            },
            {
              "internalType": "uint256",
              "name": "idSlippage",
              "type": "uint256"
            },
            {
              "internalType": "int256[]",
              "name": "deltaIds",
              "type": "int256[]"
            },
            {
              "internalType": "uint256[]",
              "name": "distributionX",
              "type": "uint256[]"
            },
            {
              "internalType": "uint256[]",
              "name": "distributionY",
              "type": "uint256[]"
            },
            {
              "internalType": "address",
              "name": "to",
              "type": "address"
            },
            {
              "internalType": "address",
              "name": "refundTo",
              "type": "address"
            },
            {
              "internalType": "uint256",
              "name": "deadline",
              "type": "uint256"
            }
          ],
          "internalType": "struct ILBRouter.LiquidityParameters",
          "name": "liquidityParameters",
          "type": "tuple"
        }
      ],
      "name": "addLiquidityTraderJoeV2",
      "outputs": [],
      "stateMutability": "nonpayable",
      "type": "function"
    },
    {
      "inputs": [
        {
          "components": [
            {
              "internalType": "address",
              "name": "market",
              "type": "address"
            },
            {
              "internalType": "uint256",
              "name": "epoch",
              "type": "uint256"
            },
            {
              "internalType": "contract IERC20",
              "name": "token",
              "type": "address"
            },
            {
              "internalType": "address",
              "name": "user",
              "type": "address"
            },
            {
              "internalType": "uint256",
              "name": "amount",
              "type": "uint256"
            },
            {
              "internalType": "bytes32[]",
              "name": "merkleProof",
              "type": "bytes32[]"
            }
          ],
          "internalType": "struct IRewarder.MerkleEntry[]",
          "name": "merkleEntries",
          "type": "tuple[]"
        }
      ],
      "name": "claimReward",
      "outputs": [],
      "stateMutability": "nonpayable",
      "type": "function"
    },
    {
      "inputs": [
        {
          "internalType": "contract ILBPair",
          "name": "pair",
          "type": "address"
        },
        {
          "internalType": "uint256[]",
          "name": "ids",
          "type": "uint256[]"
        }
      ],
      "name": "claimReward",
      "outputs": [],
      "stateMutability": "nonpayable",
      "type": "function"
    },
    {
      "inputs": [],
      "name": "extractTimestampsAndAssertAllAreEqual",
      "outputs": [
        {
          "internalType": "uint256",
          "name": "extractedTimestamp",
          "type": "uint256"
        }
      ],
      "stateMutability": "pure",
      "type": "function"
    },
    {
      "inputs": [
        {
          "internalType": "contract ILBPair",
          "name": "pair",
          "type": "address"
        },
        {
          "internalType": "uint256[]",
          "name": "ids",
          "type": "uint256[]"
        },
        {
          "internalType": "uint256[]",
          "name": "amounts",
          "type": "uint256[]"
        }
      ],
      "name": "fundLiquidityTraderJoeV2",
      "outputs": [],
      "stateMutability": "nonpayable",
      "type": "function"
    },
    {
      "inputs": [],
      "name": "getJoeV2LBHookLens",
      "outputs": [
        {
          "internalType": "address",
          "name": "",
          "type": "address"
        }
      ],
      "stateMutability": "view",
      "type": "function"
    },
    {
      "inputs": [],
      "name": "getJoeV2RouterAddress",
      "outputs": [
        {
          "internalType": "address",
          "name": "",
          "type": "address"
        }
      ],
      "stateMutability": "view",
      "type": "function"
    },
    {
      "inputs": [],
      "name": "getOwnedTraderJoeV2Bins",
      "outputs": [
        {
          "components": [
            {
              "internalType": "contract ILBPair",
              "name": "pair",
              "type": "address"
            },
            {
              "internalType": "uint24",
              "name": "id",
              "type": "uint24"
            }
          ],
          "internalType": "struct ITraderJoeV2Facet.TraderJoeV2Bin[]",
          "name": "result",
          "type": "tuple[]"
        }
      ],
      "stateMutability": "view",
      "type": "function"
    },
    {
      "inputs": [
        {
          "internalType": "bytes32",
          "name": "symbol",
          "type": "bytes32"
        }
      ],
      "name": "getPrice",
      "outputs": [
        {
          "internalType": "uint256",
          "name": "price",
          "type": "uint256"
        }
      ],
      "stateMutability": "view",
      "type": "function"
    },
    {
      "inputs": [],
      "name": "maxBinsPerPrimeAccount",
      "outputs": [
        {
          "internalType": "uint256",
          "name": "",
          "type": "uint256"
        }
      ],
      "stateMutability": "pure",
      "type": "function"
    },
    {
      "inputs": [
        {
          "internalType": "contract ILBRouter",
          "name": "traderJoeV2Router",
          "type": "address"
        },
        {
          "components": [
            {
              "internalType": "contract IERC20",
              "name": "tokenX",
              "type": "address"
            },
            {
              "internalType": "contract IERC20",
              "name": "tokenY",
              "type": "address"
            },
            {
              "internalType": "uint16",
              "name": "binStep",
              "type": "uint16"
            },
            {
              "internalType": "uint256",
              "name": "amountXMin",
              "type": "uint256"
            },
            {
              "internalType": "uint256",
              "name": "amountYMin",
              "type": "uint256"
            },
            {
              "internalType": "uint256[]",
              "name": "ids",
              "type": "uint256[]"
            },
            {
              "internalType": "uint256[]",
              "name": "amounts",
              "type": "uint256[]"
            },
            {
              "internalType": "uint256",
              "name": "deadline",
              "type": "uint256"
            }
          ],
          "internalType": "struct ITraderJoeV2Facet.RemoveLiquidityParameters",
          "name": "parameters",
          "type": "tuple"
        }
      ],
      "name": "removeLiquidityTraderJoeV2",
      "outputs": [],
      "stateMutability": "nonpayable",
      "type": "function"
    },
    {
      "inputs": [
        {
          "internalType": "contract ILBPair",
          "name": "pair",
          "type": "address"
        },
        {
          "internalType": "uint256[]",
          "name": "ids",
          "type": "uint256[]"
        },
        {
          "internalType": "uint256[]",
          "name": "amounts",
          "type": "uint256[]"
        }
      ],
      "name": "withdrawLiquidityTraderJoeV2",
      "outputs": [],
      "stateMutability": "nonpayable",
      "type": "function"
    }
  ],
  "transactionHash": "0x18f11b0d370bb18a596c5c3525b58ac3f7259629569735445a8bf472ee1f242f",
  "args": [],
  "numDeployments": 3,
  "solcInputHash": "5a8bbc52f2c2286d2f6c8aae653566cb",
  "bytecode": "0x6080604052348015600e575f5ffd5b5060015f55614895806100205f395ff3fe608060405234801561000f575f5ffd5b50600436106100ef575f3560e01c806308a766eb146100f35780631ede1092146101085780632001ff291461012657806331d98b3f1461013957806339e2719e1461015a578063530b39771461016257806355a547d51461016a5780635b4fad9c14610172578063653f4a251461017a5780636e3bfe9f1461018f5780637088e379146101a25780639912e408146101aa578063b2af870a146101b1578063b2d40e73146101c4578063b42738ce146101e4578063cd0b0209146101f7578063d0b438631461020a578063f7dbab6a14610224578063f8f1855314610237575b5f5ffd5b6101066101013660046133c4565b61023f565b005b6101106105c2565b60405161011d919061340f565b60405180910390f35b6101066101343660046135ba565b6105da565b61014c61014736600461362e565b610970565b60405190815260200161011d565b61014c6109da565b61014c610a34565b61014c610a76565b610106610b7e565b610182610bc2565b60405161011d9190613645565b61014c61019d366004613721565b610c3e565b61014c610ca3565b605061014c565b6101066101bf366004613809565b610ce5565b6101d76101d2366004613859565b610fd7565b60405161011d9190613925565b6101066101f23660046139b2565b611042565b6101066102053660046135ba565b611606565b73b4315e873dbcf96ffd0acd8ea43f689d8c20fb30610110565b610106610232366004613b42565b611894565b610106611ec6565b5f610248611f07565b8054909150600119016102765760405162461bcd60e51b815260040161026d90613c3f565b60405180910390fd5b60028155610282611f2b565b815f816001600160401b0381111561029c5761029c613437565b6040519080825280602002602001820160405280156102c5578160200160208202803683370190505b5090505f826001600160401b038111156102e1576102e1613437565b60405190808252806020026020018201604052801561030a578160200160208202803683370190505b5090505f5b83811461042e5786868281811061032857610328613c76565b905060200281019061033a9190613c8a565b61034b906060810190604001613ca8565b83828151811061035d5761035d613c76565b60200260200101906001600160a01b031690816001600160a01b03168152505082818151811061038f5761038f613c76565b60200260200101516001600160a01b03166370a08231306040518263ffffffff1660e01b81526004016103c2919061340f565b602060405180830381865afa1580156103dd573d5f5f3e3d5ffd5b505050506040513d601f19601f820116820180604052508101906104019190613cc3565b82828151811061041357610413613c76565b602090810291909101015261042781613cee565b905061030f565b506040516338997edd60e11b815273624c5b9beb13af6893e715932c26e2b7a59c410a908190637132fdba9061046a908a908a90600401613d7a565b5f604051808303815f87803b158015610481575f5ffd5b505af1158015610493573d5f5f3e3d5ffd5b505050505f5b8481146105b4575f8482815181106104b3576104b3613c76565b60200260200101516001600160a01b03166370a08231306040518263ffffffff1660e01b81526004016104e6919061340f565b602060405180830381865afa158015610501573d5f5f3e3d5ffd5b505050506040513d601f19601f820116820180604052508101906105259190613cc3565b905083828151811061053957610539613c76565b60200260200101518111156105a3576105a33385848151811061055e5761055e613c76565b6020026020010151836105719190613e6c565b87858151811061058357610583613c76565b60200260200101516001600160a01b0316611fa29092919063ffffffff16565b506105ad81613cee565b9050610499565b505060019093555050505050565b736124086b90ab910038e607aa1bdd67b284c31c9890565b5f6105e3611f07565b8054909150600119016106085760405162461bcd60e51b815260040161026d90613c3f565b60028155610614611f2b565b5f61061d6120d0565b9050428160060154036106425760405162461bcd60e51b815260040161026d90613e7f565b61064b856120f4565b61066857604051637b4a38b160e01b815260040160405180910390fd5b6040516305feb5ff60e21b81526001600160a01b038616906317fad7fc9061069a903090339089908990600401613f00565b5f604051808303815f87803b1580156106b1575f5ffd5b505af11580156106c3573d5f5f3e3d5ffd5b505050505f6106d0612158565b90505f5f5b825481101561088857876001600160a01b03168382815481106106fa576106fa613c76565b5f918252602090912001546001600160a01b0316036108765782818154811061072557610725613c76565b5f9182526020909120018054604051627eeac760e11b81529193506001600160a01b0381169162fdd58e9161076b913091600160a01b900462ffffff1690600401613f48565b602060405180830381865afa158015610786573d5f5f3e3d5ffd5b505050506040513d601f19601f820116820180604052508101906107aa9190613cc3565b5f0361087657825483906107c090600190613e6c565b815481106107d0576107d0613c76565b905f5260205f20018382815481106107ea576107ea613c76565b5f91825260209091208254910180546001600160a01b039092166001600160a01b031983168117825592546001600160b81b0319909216909217600160a01b9182900462ffffff169091021790558061084281613f66565b9150508280548061085557610855613f81565b5f8281526020902081015f1990810180546001600160b81b03191690550190555b8061088081613f95565b9150506106d5565b50866001600160a01b0316336001600160a01b03167fde371a6c6695e4fc478ecc58aaf065ad8a1a9567d65ad0be63aa0eab6a99742d8888426040516108d093929190613fac565b60405180910390a350506108e2612161565b6108fe5760405162461bcd60e51b815260040161026d90613fe1565b506109076121b6565b6109675760405162461bcd60e51b815260206004820152602b60248201527f496e73756666696369656e742061737365747320746f2066756c6c792072657060448201526a185e481d1a19481919589d60aa1b606482015260840161026d565b60019055505050565b5f6109c16109846331d98b3f60e01b6121f8565b6040805160248082018790528251808303909101815260449091019091526020810180516001600160e01b03166331d98b3f60e01b179052612273565b8060200190518101906109d49190613cc3565b92915050565b5f610a1c6109ee637914334f60e01b6121f8565b6040805160048152602481019091526020810180516001600160e01b0316637914334f60e01b1790526122f1565b806020019051810190610a2f9190613cc3565b905090565b5f610a1c610a4863fd4344cd60e01b6121f8565b6040805160048152602481019091526020810180516001600160e01b031663fd4344cd60e01b1790526122f1565b5f5f610a80612351565b90505f610a8c826123fc565b61ffff169050805f03610ab257604051632154bfcf60e21b815260040160405180910390fd5b610abd600283614034565b91505f5b81811015610b78575f610ad384612435565b90505f80610ae2606887614034565b90505f610aef8236613e6c565b9050803592508265ffffffffffff165f03610b1d57604051630336dc9d60e41b815260040160405180910390fd5b875f03610b34578265ffffffffffff169750610b5c565b878365ffffffffffff1614610b5c5760405163d9d1f46560e01b815260040160405180910390fd5b610b668488614034565b96505060019093019250610ac1915050565b50505090565b610bbf610b9163b1c9fbc160e01b6121f8565b6040805160048152602481019091526020810180516001600160e01b031663b1c9fbc160e01b1790526122f1565b50565b6060610bcc61246f565b805480602002602001604051908101604052809291908181526020015f905b82821015610c35575f84815260209081902060408051808201909152908401546001600160a01b0381168252600160a01b900462ffffff1681830152825260019092019101610beb565b50505050905090565b5f6109c1610c5263360398a360e01b6121f8565b60405163360398a360e01b90610c6c908690602401613925565b60408051601f198184030181529190526020810180516001600160e01b03166001600160e01b0319909316929092179091526122f1565b5f610a1c610cb763caacc76160e01b6121f8565b6040805160048152602481019091526020810180516001600160e01b031663caacc76160e01b1790526122f1565b5f610cee611f07565b805490915060011901610d135760405162461bcd60e51b815260040161026d90613c3f565b60028155610d1f611f2b565b5f610d286105c2565b90505f816001600160a01b031663de03f408876040518263ffffffff1660e01b8152600401610d57919061340f565b61016060405180830381865afa158015610d73573d5f5f3e3d5ffd5b505050506040513d601f19601f82011682018060405250810190610d979190614061565b80519091506001600160a01b038116610dc357604051630efba17960e41b815260040160405180910390fd5b5f816001600160a01b03166369940d796040518163ffffffff1660e01b8152600401602060405180830381865afa158015610e00573d5f5f3e3d5ffd5b505050506040513d601f19601f82011682018060405250810190610e24919061413e565b90506001600160a01b038116155f81610ea7576040516370a0823160e01b81526001600160a01b038416906370a0823190610e6390309060040161340f565b602060405180830381865afa158015610e7e573d5f5f3e3d5ffd5b505050506040513d601f19601f82011682018060405250810190610ea29190613cc3565b610ea9565b475b6040516308ae304f60e31b81529091506001600160a01b03851690634571827890610edc9030908d908d90600401614159565b5f604051808303815f87803b158015610ef3575f5ffd5b505af1158015610f05573d5f5f3e3d5ffd5b505050505f82610f8b576040516370a0823160e01b815282906001600160a01b038616906370a0823190610f3d90309060040161340f565b602060405180830381865afa158015610f58573d5f5f3e3d5ffd5b505050506040513d601f19601f82011682018060405250810190610f7c9190613cc3565b610f869190613e6c565b610f95565b610f958247613e6c565b90508015610fc6578215610fb257610fad3382612497565b610fc6565b610fc66001600160a01b0385163383611fa2565b505060019095555050505050505050565b6110026040518060800160405280606081526020016060815260200160608152602001606081525090565b61102f6110156351d5468f60e11b6121f8565b6040516351d5468f60e11b90610c6c90869060240161417d565b8060200190518101906109d49190614234565b5f61104b611f07565b8054909150600119016110705760405162461bcd60e51b815260040161026d90613c3f565b6002815561107c611f2b565b5f6110856120d0565b9050428160060154036110aa5760405162461bcd60e51b815260040161026d90613e7f565b6110b384612572565b6110d05760405163078ce31f60e31b815260040160405180910390fd5b5f6110d9610bc2565b90505f856001600160a01b03166388cc58e46040518163ffffffff1660e01b8152600401602060405180830381865afa158015611118573d5f5f3e3d5ffd5b505050506040513d601f19601f8201168201806040525081019061113c919061413e565b85516020870151604080890151905163704037bd60e01b81526001600160a01b039384166004820152918316602483015260448201529192505f919083169063704037bd90606401608060405180830381865afa15801561119f573d5f5f3e3d5ffd5b505050506040513d601f19601f820116820180604052508101906111c3919061430e565b90506111d281602001516120f4565b6111ef57604051637b4a38b160e01b815260040160405180910390fd5b5f6111f8612674565b87516040516307c11f8f60e51b81529192505f916001600160a01b0384169163f823f1e09161122a919060040161340f565b602060405180830381865afa158015611245573d5f5f3e3d5ffd5b505050506040513d601f19601f820116820180604052508101906112699190613cc3565b90505f826001600160a01b031663f823f1e08a602001516040518263ffffffff1660e01b815260040161129c919061340f565b602060405180830381865afa1580156112b7573d5f5f3e3d5ffd5b505050506040513d601f19601f820116820180604052508101906112db9190613cc3565b306101808b018190526101a08b01528951909150611303906001600160a01b03168b5f61268c565b602089015161131c906001600160a01b03168b5f61268c565b6060890151895161133a916001600160a01b03909116908c9061268c565b6113608a8a608001518b602001516001600160a01b031661268c9092919063ffffffff16565b5f5f5f5f8d6001600160a01b031663a3c7271a8e6040518263ffffffff1660e01b81526004016113909190614371565b5f604051808303815f875af11580156113ab573d5f5f3e3d5ffd5b505050506040513d5f823e601f3d908101601f191682016040526113d291908101906144da565b955095505050935093505f5b825181101561152c575f5f5b8c5181101561148c578a602001516001600160a01b03168d828151811061141357611413613c76565b60200260200101515f01516001600160a01b031614801561146e575084838151811061144157611441613c76565b60200260200101518d828151811061145b5761145b613c76565b60200260200101516020015162ffffff16145b1561147c576001915061148c565b61148581613f95565b90506113ea565b50806115235761149a612158565b60405180604001604052808c602001516001600160a01b031681526020018685815181106114ca576114ca613c76565b60209081029190910181015162ffffff90811690925283546001810185555f948552938190208351940180549390910151909116600160a01b026001600160b81b03199092166001600160a01b03909316929092171790555b506001016113de565b5061153b878e5f0151866127b1565b61154a878e60200151856127b1565b6050611554612158565b5411156115745760405163ec03ecaf60e01b815260040160405180910390fd5b87602001516001600160a01b0316336001600160a01b03167fe0545b844615fda761267b49277bbdbae3d6813c9951b6d25092c3494712a64784848a8a8a8a426040516115c79796959493929190614564565b60405180910390a3505050505050505050506115e1612161565b6115fd5760405162461bcd60e51b815260040161026d90613fe1565b50600190555050565b5f61160f611f07565b8054909150600119016116345760405162461bcd60e51b815260040161026d90613c3f565b60028155611641846120f4565b61165e57604051637b4a38b160e01b815260040160405180910390fd5b6040516305feb5ff60e21b81526001600160a01b038516906317fad7fc90611690903390309088908890600401613f00565b5f604051808303815f87803b1580156116a7575f5ffd5b505af11580156116b9573d5f5f3e3d5ffd5b505050505f6116c6610bc2565b90505f5b8451811015611810575f5f5b835181101561177457876001600160a01b03168482815181106116fb576116fb613c76565b60200260200101515f01516001600160a01b0316148015611756575086838151811061172957611729613c76565b602002602001015184828151811061174357611743613c76565b60200260200101516020015162ffffff16145b156117645760019150611774565b61176d81613f95565b90506116d6565b508061180757611782612158565b6040518060400160405280896001600160a01b031681526020018885815181106117ae576117ae613c76565b60209081029190910181015162ffffff90811690925283546001810185555f948552938190208351940180549390910151909116600160a01b026001600160b81b03199092166001600160a01b03909316929092171790555b506001016116ca565b50605061181b612158565b54111561183b5760405163ec03ecaf60e01b815260040160405180910390fd5b846001600160a01b0316336001600160a01b03167f1b340b74cdd63543296980822c40dd734fe06a263418ce46315ea6dc65e26c3886864260405161188293929190613fac565b60405180910390a35060019055505050565b5f61189d611f07565b8054909150600119016118c25760405162461bcd60e51b815260040161026d90613c3f565b600281555f6118cf6129e7565b6001600160a01b031663e319fccc336040518263ffffffff1660e01b81526004016118fa919061340f565b602060405180830381865afa158015611915573d5f5f3e3d5ffd5b505050506040513d601f19601f8201168201806040525081019061193991906145b3565b9050801561199057611949612161565b1561198b5760405162461bcd60e51b81526020600482015260126024820152711058d8dbdd5b9d081a5cc81cdbdb1d995b9d60721b604482015260640161026d565b611998565b611998611f2b565b5f6119a16120d0565b9050428160060154036119c65760405162461bcd60e51b815260040161026d90613e7f565b6119cf85612572565b6119ec5760405163078ce31f60e31b815260040160405180910390fd5b5f856001600160a01b03166388cc58e46040518163ffffffff1660e01b8152600401602060405180830381865afa158015611a29573d5f5f3e3d5ffd5b505050506040513d601f19601f82011682018060405250810190611a4d919061413e565b85516020870151604080890151905163704037bd60e01b81526001600160a01b039384166004820152918316602483015261ffff16604482015291169063704037bd90606401608060405180830381865afa158015611aae573d5f5f3e3d5ffd5b505050506040513d601f19601f82011682018060405250810190611ad2919061430e565b602001516040516339612d9560e21b81526001600160a01b038881166004830152600160248301529192509082169063e584b654906044015f604051808303815f87803b158015611b21575f5ffd5b505af1158015611b33573d5f5f3e3d5ffd5b505050505f5f611b4388886129ff565b915091505f611b50612158565b90505f5b8154811015611d0a57846001600160a01b0316828281548110611b7957611b79613c76565b5f918252602090912001546001600160a01b031603611cf8575f828281548110611ba557611ba5613c76565b5f9182526020909120018054604051627eeac760e11b81529192506001600160a01b0381169162fdd58e91611beb913091600160a01b900462ffffff1690600401613f48565b602060405180830381865afa158015611c06573d5f5f3e3d5ffd5b505050506040513d601f19601f82011682018060405250810190611c2a9190613cc3565b5f03611cf65782548390611c4090600190613e6c565b81548110611c5057611c50613c76565b905f5260205f2001838381548110611c6a57611c6a613c76565b5f91825260209091208254910180546001600160a01b039092166001600160a01b031983168117825592546001600160b81b0319909216909217600160a01b9182900462ffffff1690910217905581611cc281613f66565b92505082805480611cd557611cd5613f81565b5f8281526020902081015f1990810180546001600160b81b03191690550190555b505b80611d0281613f95565b915050611b54565b505f611d14612674565b89516040516307c11f8f60e51b81529192505f916001600160a01b0384169163f823f1e091611d46919060040161340f565b602060405180830381865afa158015611d61573d5f5f3e3d5ffd5b505050506040513d601f19601f82011682018060405250810190611d859190613cc3565b90505f826001600160a01b031663f823f1e08c602001516040518263ffffffff1660e01b8152600401611db8919061340f565b602060405180830381865afa158015611dd3573d5f5f3e3d5ffd5b505050506040513d601f19601f82011682018060405250810190611df79190613cc3565b9050611e07838c5f015188612aac565b611e16838c6020015187612aac565b866001600160a01b0316336001600160a01b03167f36f3e5cadbf3bf74a6d58f6945d05e06843ea680baf8556bd371dd60876cbeb28d60a001518e60c00151868642604051611e699594939291906145cc565b60405180910390a35050505050505050806115fd57611e86612161565b6115fd5760405162461bcd60e51b8152602060048201526011602482015270135d5cdd081cdd185e481cdbdb1d995b9d607a1b604482015260640161026d565b610bbf611ed963e017e12560e01b6121f8565b6040805160048152602481019091526020810180516001600160e01b031663e017e12560e01b1790526122f1565b7f1c85eba10a4cf2d29c83fc15f97931886b9fd3caeb70d8c377aeedc58b919e3b90565b611f33612ce5565b600101546001600160a01b03163314611fa05760405162461bcd60e51b815260206004820152602960248201527f4469616d6f6e6453746f726167654c69623a204d75737420626520636f6e747260448201526830b1ba1037bbb732b960b91b606482015260840161026d565b565b5f5f846001600160a01b031663a9059cbb8585604051602401611fc692919061460e565b6040516020818303038152906040529060e01b6020820180516001600160e01b038381831617835250505050604051611fff9190614627565b5f604051808303815f865af19150503d805f8114612038576040519150601f19603f3d011682016040523d82523d5f602084013e61203d565b606091505b509150915081801561206757508051158061206757508080602001905181019061206791906145b3565b6120c95760405162461bcd60e51b815260206004820152602d60248201527f5472616e7366657248656c7065723a3a736166655472616e736665723a20747260448201526c185b9cd9995c8819985a5b1959609a1b606482015260840161026d565b5050505050565b7fc8fcad8db84d3cc18b4c41d551ea0ee66dd599cde068d998e57d5e09332c131c90565b5f5f6120fe612d09565b90505f5b815181101561214f5781818151811061211d5761211d613c76565b60200260200101516001600160a01b0316846001600160a01b031603612147575060019392505050565b600101612102565b505f9392505050565b5f610a2f61246f565b5f6121a36121756305ce239560e41b6121f8565b6040805160048152602481019091526020810180516001600160e01b03166305ce239560e41b1790526122f1565b806020019051810190610a2f91906145b3565b5f6121a36121ca631ca1529760e11b6121f8565b6040805160048152602481019091526020810180516001600160e01b0316631ca1529760e11b1790526122f1565b5f6122016129e7565b604051630d74157760e01b81526001600160e01b0319841660048201526001600160a01b039190911690630d74157790602401602060405180830381865afa15801561224f573d5f5f3e3d5ffd5b505050506040513d601f19601f820116820180604052508101906109d4919061413e565b60605f61227f83612ede565b90505f5f856001600160a01b03168360405161229b9190614627565b5f60405180830381855afa9150503d805f81146122d3576040519150601f19603f3d011682016040523d82523d5f602084013e6122d8565b606091505b50915091506122e78282612f6b565b9695505050505050565b60605f6122fd83612ede565b90505f5f856001600160a01b0316836040516123199190614627565b5f60405180830381855af49150503d805f81146122d3576040519150601f19603f3d011682016040523d82523d5f602084013e6122d8565b5f6602ed57011e0000601f1936013581161480612381576040516373bb264f60e11b815260040160405180910390fd5b5f36602911156123a457604051632bcb7bc560e11b815260040160405180910390fd5b506028193601355f60096123be600362ffffff8516614034565b6123c89190614034565b9050366123d6600283614034565b11156123f55760405163c30a7bd760e01b815260040160405180910390fd5b9392505050565b5f80612409602084614034565b90503681111561242c57604051632bcb7bc560e11b815260040160405180910390fd5b36033592915050565b5f5f5f61244184612fe7565b9092509050604e612453826020614034565b61245d908461463d565b6124679190614034565b949350505050565b5f807fec548c64bcf9d557a690fde0c6b4431edcdb8662fd4787104fa8658b4664cc616109d4565b604080515f808252602082019092526001600160a01b0384169083906040516124c09190614627565b5f6040518083038185875af1925050503d805f81146124fa576040519150601f19603f3d011682016040523d82523d5f602084013e6124ff565b606091505b505090508061256d5760405162461bcd60e51b815260206004820152603460248201527f5472616e7366657248656c7065723a3a736166655472616e736665724554483a60448201527308115512081d1c985b9cd9995c8819985a5b195960621b606482015260840161026d565b505050565b6040805160028082526060820183525f928392919060208301908036833701905050905073b4315e873dbcf96ffd0acd8ea43f689d8c20fb30815f815181106125bd576125bd613c76565b60200260200101906001600160a01b031690816001600160a01b0316815250507318556da13313f3532c54711497a8fedac273220e8160018151811061260557612605613c76565b60200260200101906001600160a01b031690816001600160a01b0316815250505f5b815181101561214f5781818151811061264257612642613c76565b60200260200101516001600160a01b0316846001600160a01b03160361266c575060019392505050565b600101612627565b73f3978209b7cff2b90100c6f87cec77de928ed58e90565b5f5f846001600160a01b031663095ea7b385856040516024016126b092919061460e565b6040516020818303038152906040529060e01b6020820180516001600160e01b0383818316178352505050506040516126e99190614627565b5f604051808303815f865af19150503d805f8114612722576040519150601f19603f3d011682016040523d82523d5f602084013e612727565b606091505b509150915081801561275157508051158061275157508080602001905181019061275191906145b3565b6120c95760405162461bcd60e51b815260206004820152602b60248201527f5472616e7366657248656c7065723a3a73616665417070726f76653a2061707060448201526a1c9bdd994819985a5b195960aa1b606482015260840161026d565b801561256d576040516307c11f8f60e51b81526001600160a01b0384169063adfe6a0f90829063f823f1e0906127eb90879060040161340f565b602060405180830381865afa158015612806573d5f5f3e3d5ffd5b505050506040513d601f19601f8201168201806040525081019061282a9190613cc3565b846001600160a01b031663313ce5676040518163ffffffff1660e01b8152600401602060405180830381865afa158015612866573d5f5f3e3d5ffd5b505050506040513d601f19601f8201168201806040525081019061288a9190614654565b61289590600a614757565b6128a785670de0b6b3a764000061463d565b6128b19190614765565b6040516001600160e01b031960e085901b168152600481019290925260248201526044015f604051808303815f87803b1580156128ec575f5ffd5b505af11580156128fe573d5f5f3e3d5ffd5b50506040516370a0823160e01b81526001600160a01b03851692506370a08231915061292e90309060040161340f565b602060405180830381865afa158015612949573d5f5f3e3d5ffd5b505050506040513d601f19601f8201168201806040525081019061296d9190613cc3565b5f0361256d576040516307c11f8f60e51b815261256d906001600160a01b0385169063f823f1e0906129a390869060040161340f565b602060405180830381865afa1580156129be573d5f5f3e3d5ffd5b505050506040513d601f19601f820116820180604052508101906129e29190613cc3565b61303c565b732916b3bf7c35bd21e63d01c93c62fb0d4994e56d90565b5f5f5f5f856001600160a01b031663c22159b6865f01518760200151886040015189606001518a608001518b60a001518c60c00151308e60e001516040518a63ffffffff1660e01b8152600401612a5e99989796959493929190614784565b60408051808303815f875af1158015612a79573d5f5f3e3d5ffd5b505050506040513d601f19601f82011682018060405250810190612a9d91906147fd565b909450925050505b9250929050565b801561256d576040516307c11f8f60e51b81526001600160a01b0384169063c3cc6c7a90829063f823f1e090612ae690879060040161340f565b602060405180830381865afa158015612b01573d5f5f3e3d5ffd5b505050506040513d601f19601f82011682018060405250810190612b259190613cc3565b846001600160a01b031663313ce5676040518163ffffffff1660e01b8152600401602060405180830381865afa158015612b61573d5f5f3e3d5ffd5b505050506040513d601f19601f82011682018060405250810190612b859190614654565b612b9090600a614757565b612ba285670de0b6b3a764000061463d565b612bac9190614765565b6040516001600160e01b031960e085901b168152600481019290925260248201526044015f604051808303815f87803b158015612be7575f5ffd5b505af1158015612bf9573d5f5f3e3d5ffd5b50506040516370a0823160e01b81525f92506001600160a01b03851691506370a0823190612c2b90309060040161340f565b602060405180830381865afa158015612c46573d5f5f3e3d5ffd5b505050506040513d601f19601f82011682018060405250810190612c6a9190613cc3565b111561256d576040516307c11f8f60e51b815261256d906001600160a01b0385169063f823f1e090612ca090869060040161340f565b602060405180830381865afa158015612cbb573d5f5f3e3d5ffd5b505050506040513d601f19601f82011682018060405250810190612cdf9190613cc3565b83613093565b7f8d5bb42e0ac1496a2c326edc9c00758985246e6c2bb146d6c2f4a0d509e0960a90565b60408051600680825260e082019092526060916020820160c08036833701905050905073d446eb1660f766d533beceef890df7a69d26f7d1815f81518110612d5357612d53613c76565b60200260200101906001600160a01b031690816001600160a01b031681525050731901011a39b11271578a1283d620373abed66faa81600181518110612d9b57612d9b613c76565b60200260200101906001600160a01b031690816001600160a01b03168152505073d9fa522f5bc6cfa40211944f2c8da785773ad99d81600281518110612de357612de3613c76565b60200260200101906001600160a01b031690816001600160a01b031681525050732823299af89285ff1a1abf58db37ce57006fef5d81600381518110612e2b57612e2b613c76565b60200260200101906001600160a01b031690816001600160a01b03168152505073ea7309636e7025fda0ee2282733ea248c389849581600481518110612e7357612e73613c76565b60200260200101906001600160a01b031690816001600160a01b03168152505073632349b44af299ab83cb9f21f65c218122fd477281600581518110612ebb57612ebb613c76565b60200260200101906001600160a01b031690816001600160a01b03168152505090565b80516060905f612eec613180565b90505f612ef98284614034565b905036821115612f1c57604051632bcb7bc560e11b815260040160405180910390fd5b6060604051905081815285602001848101826020015b81831015612f4a578251815260209283019201612f32565b50505082833603856020018301379190920181016020016040529392505050565b606082612fe15781515f03612f9357604051632b3ff13d60e11b815260040160405180910390fd5b602082015162461bcd60e51b148015612fc6576040516301efd04f60e31b8152604484019061026d90829060040161484d565b8260405163fd36fde360e01b815260040161026d919061484d565b50919050565b5f80808080612ff7604187614034565b90505f61300f613008602084614034565b36906131dc565b8035945090506130208160036131dc565b62ffffff9490941697933563ffffffff16965092945050505050565b5f613045612ce5565b905061305481600401836131e7565b50817f82829875fd21462894d9bbb2fdbd4a8c25ceb68425c4835a59ca0e76902def944260405161308791815260200190565b60405180910390a25050565b815f036130db5760405162461bcd60e51b815260206004820152601660248201527553796d626f6c2063616e6e6f7420626520656d70747960501b604482015260640161026d565b6001600160a01b0381166131275760405162461bcd60e51b8152602060048201526013602482015272496e76616c696420416464726573735a65726f60681b604482015260640161026d565b5f613130612ce5565b90506131408160040184846131f2565b50827f21eab7d98872eb1399cd56d99a43442b9b50720f3222e49563d2be182c6a6a3f4260405161317391815260200190565b60405180910390a2505050565b5f5f61318a612351565b90505f613196826123fc565b61ffff1690506131a7600283614034565b91505f5b818110156131d4575f6131bd84612435565b90506131c98185614034565b9350506001016131ab565b509092915050565b5f6123f58284613e6c565b5f6123f58383613207565b5f61246784846001600160a01b038516613223565b5f81815260028301602052604081208190556123f5838361323f565b5f8281526002840160205260408120829055612467848461324a565b5f6123f58383613255565b5f6123f58383613338565b5f818152600183016020526040812054801561332f575f613277600183613e6c565b85549091505f9061328a90600190613e6c565b90508181146132e9575f865f0182815481106132a8576132a8613c76565b905f5260205f200154905080875f0184815481106132c8576132c8613c76565b5f918252602080832090910192909255918252600188019052604090208390555b85548690806132fa576132fa613f81565b600190038181905f5260205f20015f90559055856001015f8681526020019081526020015f205f9055600193505050506109d4565b5f9150506109d4565b5f81815260018301602052604081205461337d57508154600181810184555f8481526020808220909301849055845484825282860190935260409020919091556109d4565b505f6109d4565b5f5f83601f840112613394575f5ffd5b5081356001600160401b038111156133aa575f5ffd5b6020830191508360208260051b8501011115612aa5575f5ffd5b5f5f602083850312156133d5575f5ffd5b82356001600160401b038111156133ea575f5ffd5b6133f685828601613384565b90969095509350505050565b6001600160a01b03169052565b6001600160a01b0391909116815260200190565b6001600160a01b0381168114610bbf575f5ffd5b634e487b7160e01b5f52604160045260245ffd5b604080519081016001600160401b038111828210171561346d5761346d613437565b60405290565b604051608081016001600160401b038111828210171561346d5761346d613437565b6040516101e081016001600160401b038111828210171561346d5761346d613437565b60405161010081016001600160401b038111828210171561346d5761346d613437565b60405161016081016001600160401b038111828210171561346d5761346d613437565b604051601f8201601f191681016001600160401b038111828210171561352657613526613437565b604052919050565b5f6001600160401b0382111561354657613546613437565b5060051b60200190565b5f82601f83011261355f575f5ffd5b813561357261356d8261352e565b6134fe565b8082825260208201915060208360051b860101925085831115613593575f5ffd5b602085015b838110156135b0578035835260209283019201613598565b5095945050505050565b5f5f5f606084860312156135cc575f5ffd5b83356135d781613423565b925060208401356001600160401b038111156135f1575f5ffd5b6135fd86828701613550565b92505060408401356001600160401b03811115613618575f5ffd5b61362486828701613550565b9150509250925092565b5f6020828403121561363e575f5ffd5b5035919050565b602080825282518282018190525f918401906040840190835b8181101561369657835180516001600160a01b0316845260209081015162ffffff16818501529093019260409092019160010161365e565b509095945050505050565b5f82601f8301126136b0575f5ffd5b81356136be61356d8261352e565b8082825260208201915060208360061b8601019250858311156136df575f5ffd5b602085015b838110156135b057604081880312156136fb575f5ffd5b61370361344b565b813581526020808301358183015290845292909201916040016136e4565b5f60208284031215613731575f5ffd5b81356001600160401b03811115613746575f5ffd5b820160808185031215613757575f5ffd5b61375f613473565b81356001600160401b03811115613774575f5ffd5b613780868285016136a1565b82525060208201356001600160401b0381111561379b575f5ffd5b6137a7868285016136a1565b60208301525060408201356001600160401b038111156137c5575f5ffd5b6137d1868285016136a1565b60408301525060608201356001600160401b038111156137ef575f5ffd5b6137fb868285016136a1565b606083015250949350505050565b5f5f5f6040848603121561381b575f5ffd5b833561382681613423565b925060208401356001600160401b03811115613840575f5ffd5b61384c86828701613384565b9497909650939450505050565b5f60208284031215613869575f5ffd5b81356001600160401b0381111561387e575f5ffd5b8201601f8101841361388e575f5ffd5b803561389c61356d8261352e565b8082825260208201915060208360051b8501019250868311156138bd575f5ffd5b6020840193505b828410156122e75783358252602093840193909101906138c4565b5f8151808452602084019350602083015f5b8281101561391b5781518051875260209081015181880152604090960195909101906001016138f1565b5093949350505050565b602081525f82516080602084015261394060a08401826138df565b90506020840151601f1984830301604085015261395d82826138df565b9150506040840151601f1984830301606085015261397b82826138df565b9150506060840151601f1984830301608085015261399982826138df565b95945050505050565b80356139ad81613423565b919050565b5f5f604083850312156139c3575f5ffd5b82356139ce81613423565b915060208301356001600160401b038111156139e8575f5ffd5b83016101e081860312156139fa575f5ffd5b613a02613495565b613a0b826139a2565b8152613a19602083016139a2565b602082015260408281013590820152606080830135908201526080808301359082015260a0808301359082015260c0808301359082015260e0808301359082015261010080830135908201526101208201356001600160401b03811115613a7e575f5ffd5b613a8a87828501613550565b610120830152506101408201356001600160401b03811115613aaa575f5ffd5b613ab687828501613550565b610140830152506101608201356001600160401b03811115613ad6575f5ffd5b613ae287828501613550565b61016083015250613af661018083016139a2565b610180820152613b096101a083016139a2565b6101a08201526101c09182013591810191909152919491935090915050565b61ffff81168114610bbf575f5ffd5b80356139ad81613b28565b5f5f60408385031215613b53575f5ffd5b8235613b5e81613423565b915060208301356001600160401b03811115613b78575f5ffd5b83016101008186031215613b8a575f5ffd5b613b926134b8565b613b9b826139a2565b8152613ba9602083016139a2565b6020820152613bba60408301613b37565b6040820152606082810135908201526080808301359082015260a08201356001600160401b03811115613beb575f5ffd5b613bf787828501613550565b60a08301525060c08201356001600160401b03811115613c15575f5ffd5b613c2187828501613550565b60c08301525060e09182013591810191909152919491935090915050565b6020808252601f908201527f5265656e7472616e637947756172643a207265656e7472616e742063616c6c00604082015260600190565b634e487b7160e01b5f52603260045260245ffd5b5f823560be19833603018112613c9e575f5ffd5b9190910192915050565b5f60208284031215613cb8575f5ffd5b81356123f581613423565b5f60208284031215613cd3575f5ffd5b5051919050565b634e487b7160e01b5f52601160045260245ffd5b5f60018201613cff57613cff613cda565b5060010190565b5f5f8335601e19843603018112613d1b575f5ffd5b83016020810192503590506001600160401b03811115613d39575f5ffd5b8060051b3603821315612aa5575f5ffd5b8183525f6001600160fb1b03831115613d61575f5ffd5b8260051b80836020870137939093016020019392505050565b602080825281018290525f6040600584901b83018101908301858360be1936839003015b87821015613e5f57868503603f190184528235818112613dbc575f5ffd5b89018035613dc981613423565b6001600160a01b03168652602081810135908701526040810135613dec81613423565b6001600160a01b031660408701526060810135613e0881613423565b6001600160a01b0316606087015260808181013590870152613e2d60a0820182613d06565b915060c060a0880152613e4460c088018383613d4a565b96505050602083019250602084019350600182019150613d9e565b5092979650505050505050565b818103818111156109d4576109d4613cda565b60208082526031908201527f426f72726f77696e67206d7573742068617070656e20696e2061207374616e6460408201527030b637b732903a3930b739b0b1ba34b7b760791b606082015260800190565b5f8151808452602084019350602083015f5b8281101561391b578151865260209586019590910190600101613ee2565b6001600160a01b038581168252841660208201526080604082018190525f90613f2b90830185613ed0565b8281036060840152613f3d8185613ed0565b979650505050505050565b6001600160a01b0392909216825262ffffff16602082015260400190565b5f600160ff1b8201613f7a57613f7a613cda565b505f190190565b634e487b7160e01b5f52603160045260245ffd5b5f6001600160ff1b018201613cff57613cff613cda565b606081525f613fbe6060830186613ed0565b8281036020840152613fd08186613ed0565b915050826040830152949350505050565b60208082526033908201527f54686520616374696f6e206d617920636175736520616e206163636f756e74206040820152721d1bc8189958dbdb59481a5b9cdbdb1d995b9d606a1b606082015260800190565b808201808211156109d4576109d4613cda565b80516139ad81613423565b805180151581146139ad575f5ffd5b5f610160828403128015614073575f5ffd5b5061407c6134db565b61408583614047565b815261409360208401614052565b60208201526140a460408401614052565b60408201526140b560608401614052565b60608201526140c660808401614052565b60808201526140d760a08401614052565b60a08201526140e860c08401614052565b60c08201526140f960e08401614052565b60e082015261410b6101008401614052565b61010082015261411e6101208401614052565b6101208201526141316101408401614052565b6101408201529392505050565b5f6020828403121561414e575f5ffd5b81516123f581613423565b6001600160a01b03841681526040602082018190525f906139999083018486613d4a565b602080825282518282018190525f918401906040840190835b81811015613696578351835260209384019390920191600101614196565b5f82601f8301126141c3575f5ffd5b81516141d161356d8261352e565b8082825260208201915060208360061b8601019250858311156141f2575f5ffd5b602085015b838110156135b0576040818803121561420e575f5ffd5b61421661344b565b815181526020808301518183015290845292909201916040016141f7565b5f60208284031215614244575f5ffd5b81516001600160401b03811115614259575f5ffd5b82016080818503121561426a575f5ffd5b614272613473565b81516001600160401b03811115614287575f5ffd5b614293868285016141b4565b82525060208201516001600160401b038111156142ae575f5ffd5b6142ba868285016141b4565b60208301525060408201516001600160401b038111156142d8575f5ffd5b6142e4868285016141b4565b60408301525060608201516001600160401b03811115614302575f5ffd5b6137fb868285016141b4565b5f608082840312801561431f575f5ffd5b50614328613473565b825161433381613b28565b8152602083015161434381613423565b602082015261435460408401614052565b604082015261436560608401614052565b60608201529392505050565b60208152614383602082018351613402565b5f60208301516143966040840182613402565b506040830151606083015260608301516080830152608083015160a083015260a083015160c083015260c083015160e083015260e08301516101008301526101008301516101208301526101208301516101e06101408401526143fd610200840182613ed0565b9050610140840151601f198483030161016085015261441c8282613ed0565b915050610160840151601f198483030161018085015261443c8282613ed0565b9150506101808401516144536101a0850182613402565b506101a08401516144686101c0850182613402565b506101c08401516101e08401528091505092915050565b5f82601f83011261448e575f5ffd5b815161449c61356d8261352e565b8082825260208201915060208360051b8601019250858311156144bd575f5ffd5b602085015b838110156135b05780518352602092830192016144c2565b5f5f5f5f5f5f60c087890312156144ef575f5ffd5b86516020880151604089015160608a015160808b0151939950919750955093506001600160401b03811115614522575f5ffd5b61452e89828a0161447f565b60a089015190935090506001600160401b0381111561454b575f5ffd5b61455789828a0161447f565b9150509295509295509295565b60e081525f61457660e083018a613ed0565b8281036020840152614588818a613ed0565b604084019890985250506060810194909452608084019290925260a083015260c09091015292915050565b5f602082840312156145c3575f5ffd5b6123f582614052565b60a081525f6145de60a0830188613ed0565b82810360208401526145f08188613ed0565b60408401969096525050606081019290925260809091015292915050565b6001600160a01b03929092168252602082015260400190565b5f82518060208501845e5f920191825250919050565b80820281158282048414176109d4576109d4613cda565b5f60208284031215614664575f5ffd5b815160ff811681146123f5575f5ffd5b6001815b60018411156146af5780850481111561469357614693613cda565b60018416156146a157908102905b60019390931c928002614678565b935093915050565b5f826146c5575060016109d4565b816146d157505f6109d4565b81600181146146e757600281146146f15761470d565b60019150506109d4565b60ff84111561470257614702613cda565b50506001821b6109d4565b5060208310610133831016604e8410600b8410161715614730575081810a6109d4565b61473c5f198484614674565b805f190482111561474f5761474f613cda565b029392505050565b5f6123f560ff8416836146b7565b5f8261477f57634e487b7160e01b5f52601260045260245ffd5b500490565b6001600160a01b038a811682528916602082015261ffff88166040820152606081018790526080810186905261012060a082018190525f906147c890830187613ed0565b82810360c08401526147da8187613ed0565b6001600160a01b039590951660e084015250506101000152979650505050505050565b5f5f6040838503121561480e575f5ffd5b505080516020909101519092909150565b5f81518084528060208401602086015e5f602082860101526020601f19601f83011685010191505092915050565b602081525f6123f5602083018461481f56fea2646970667358221220962b7dfcdf64ca31c16aaad84ab90381d62bd9dfe643b44aa844908551285ded64736f6c634300081b0033",
  "devdoc": {
    "events": {
      "AddLiquidityTraderJoeV2(address,address,uint256[],uint256[],bytes32,bytes32,uint256,uint256,uint256)": {
        "details": "emitted after adding liquidity to TraderJoe V2",
        "params": {
          "binIds": "the ids of bin",
          "firstAmount": "amount of the first asset used",
          "firstAsset": "first asset provided for liquidity",
          "liquidityMinted": "amount of liquidity minted per bin",
          "pair": "TraderJoe V2 pair",
          "secondAmount": "amount of the second asset used",
          "secondAsset": "second asset provided for liquidity",
          "timestamp": "time of the transaction*",
          "user": "the address of user providing liquidity"
        }
      },
      "FundedLiquidityTraderJoeV2(address,address,uint256[],uint256[],uint256)": {
        "details": "emitted after funding account with TraderJoe V2 LB tokens",
        "params": {
          "amounts": "The list of amounts to burn of each id in binIds",
          "binIds": "the ids of bin",
          "pair": "TraderJoe V2 pair",
          "timestamp": "time of the transaction*",
          "user": "the address of user removing liquidity"
        }
      },
      "RemoveLiquidityTraderJoeV2(address,address,uint256[],uint256[],bytes32,bytes32,uint256)": {
        "details": "emitted after removing liquidity from TraderJoe V2",
        "params": {
          "amounts": "The list of amounts to burn of each id in binIds",
          "binIds": "the ids of bin",
          "firstAsset": "first asset provided for liquidity",
          "pair": "TraderJoe V2 pair",
          "secondAsset": "second asset provided for liquidity",
          "timestamp": "time of the transaction*",
          "user": "the address of user removing liquidity"
        }
      },
      "WithdrawnLiquidityTraderJoeV2(address,address,uint256[],uint256[],uint256)": {
        "details": "emitted after withdrawing TraderJoe V2 LB tokens",
        "params": {
          "amounts": "The list of amounts to burn of each id in binIds",
          "binIds": "the ids of bin",
          "pair": "TraderJoe V2 pair",
          "timestamp": "time of the transaction*",
          "user": "the address of user removing liquidity"
        }
      }
    },
    "kind": "dev",
    "methods": {},
    "version": 1
  },
  "userdoc": {
    "kind": "user",
    "methods": {},
    "version": 1
  },
  "storageLayout": {
    "storage": [
      {
        "astId": 11376,
        "contract": "contracts/facets/avalanche/TraderJoeV2AvalancheFacet.sol:TraderJoeV2AvalancheFacet",
        "label": "_status",
        "offset": 0,
        "slot": "0",
        "type": "t_uint256"
      }
    ],
    "types": {
      "t_uint256": {
        "encoding": "inplace",
        "label": "uint256",
        "numberOfBytes": "32"
      }
    }
  }
}