{
  "address": "0xd296c1aDbdc127E73714ee28dF714dC2C6685E93",
  "abi": [
    {
      "inputs": [],
      "name": "BorrowersRegistryNotConfigured",
      "type": "error"
    },
    {
      "inputs": [],
      "name": "BurnAmountExceedsAvailableForUser",
      "type": "error"
    },
    {
      "inputs": [],
      "name": "BurnAmountExceedsBalance",
      "type": "error"
    },
    {
      "inputs": [],
      "name": "CalldataMustHaveValidPayload",
      "type": "error"
    },
    {
      "inputs": [],
      "name": "CalldataOverOrUnderFlow",
      "type": "error"
    },
    {
      "inputs": [],
      "name": "DataPackageTimestampMustNotBeZero",
      "type": "error"
    },
    {
      "inputs": [],
      "name": "DataPackageTimestampsMustBeEqual",
      "type": "error"
    },
    {
      "inputs": [],
      "name": "EachSignerMustProvideTheSameValue",
      "type": "error"
    },
    {
      "inputs": [],
      "name": "EmptyCalldataPointersArr",
      "type": "error"
    },
    {
      "inputs": [],
      "name": "IncorrectUnsignedMetadataSize",
      "type": "error"
    },
    {
      "inputs": [
        {
          "internalType": "uint256",
          "name": "requested",
          "type": "uint256"
        },
        {
          "internalType": "uint256",
          "name": "allowance",
          "type": "uint256"
        }
      ],
      "name": "InsufficientAllowance",
      "type": "error"
    },
    {
      "inputs": [
        {
          "internalType": "uint256",
          "name": "receivedSignersCount",
          "type": "uint256"
        },
        {
          "internalType": "uint256",
          "name": "requiredSignersCount",
          "type": "uint256"
        }
      ],
      "name": "InsufficientNumberOfUniqueSigners",
      "type": "error"
    },
    {
      "inputs": [],
      "name": "InsufficientPoolFunds",
      "type": "error"
    },
    {
      "inputs": [],
      "name": "InsufficientSurplus",
      "type": "error"
    },
    {
      "inputs": [],
      "name": "InvalidCalldataPointer",
      "type": "error"
    },
    {
      "inputs": [],
      "name": "MaxPoolUtilisationBreached",
      "type": "error"
    },
    {
      "inputs": [],
      "name": "MintToAddressZero",
      "type": "error"
    },
    {
      "inputs": [
        {
          "internalType": "address",
          "name": "target",
          "type": "address"
        }
      ],
      "name": "NotAContract",
      "type": "error"
    },
    {
      "inputs": [],
      "name": "NotAuthorizedToBorrow",
      "type": "error"
    },
    {
      "inputs": [],
      "name": "PoolFrozen",
      "type": "error"
    },
    {
      "inputs": [
        {
          "internalType": "bytes",
          "name": "result",
          "type": "bytes"
        }
      ],
      "name": "ProxyCalldataFailedWithCustomError",
      "type": "error"
    },
    {
      "inputs": [
        {
          "internalType": "string",
          "name": "message",
          "type": "string"
        }
      ],
      "name": "ProxyCalldataFailedWithStringMessage",
      "type": "error"
    },
    {
      "inputs": [],
      "name": "ProxyCalldataFailedWithoutErrMsg",
      "type": "error"
    },
    {
      "inputs": [],
      "name": "RedstonePayloadMustHaveAtLeastOneDataPackage",
      "type": "error"
    },
    {
      "inputs": [],
      "name": "RepayingMoreThanWasBorrowed",
      "type": "error"
    },
    {
      "inputs": [
        {
          "internalType": "address",
          "name": "receivedSigner",
          "type": "address"
        }
      ],
      "name": "SignerNotAuthorised",
      "type": "error"
    },
    {
      "inputs": [],
      "name": "SpenderZeroAddress",
      "type": "error"
    },
    {
      "inputs": [],
      "name": "TotalSupplyCapBreached",
      "type": "error"
    },
    {
      "inputs": [
        {
          "internalType": "uint256",
          "name": "amount",
          "type": "uint256"
        },
        {
          "internalType": "uint256",
          "name": "balance",
          "type": "uint256"
        }
      ],
      "name": "TransferAmountExceedsBalance",
      "type": "error"
    },
    {
      "inputs": [],
      "name": "TransferToPoolAddress",
      "type": "error"
    },
    {
      "inputs": [],
      "name": "TransferToZeroAddress",
      "type": "error"
    },
    {
      "inputs": [],
      "name": "ZeroDepositAmount",
      "type": "error"
    },
    {
      "anonymous": false,
      "inputs": [
        {
          "indexed": true,
          "internalType": "address",
          "name": "owner",
          "type": "address"
        },
        {
          "indexed": true,
          "internalType": "address",
          "name": "spender",
          "type": "address"
        },
        {
          "indexed": false,
          "internalType": "uint256",
          "name": "value",
          "type": "uint256"
        }
      ],
      "name": "Approval",
      "type": "event"
    },
    {
      "anonymous": false,
      "inputs": [
        {
          "indexed": true,
          "internalType": "address",
          "name": "registry",
          "type": "address"
        },
        {
          "indexed": false,
          "internalType": "uint256",
          "name": "timestamp",
          "type": "uint256"
        }
      ],
      "name": "BorrowersRegistryChanged",
      "type": "event"
    },
    {
      "anonymous": false,
      "inputs": [
        {
          "indexed": true,
          "internalType": "address",
          "name": "user",
          "type": "address"
        },
        {
          "indexed": false,
          "internalType": "uint256",
          "name": "value",
          "type": "uint256"
        },
        {
          "indexed": false,
          "internalType": "uint256",
          "name": "timestamp",
          "type": "uint256"
        }
      ],
      "name": "Borrowing",
      "type": "event"
    },
    {
      "anonymous": false,
      "inputs": [
        {
          "indexed": true,
          "internalType": "address",
          "name": "user",
          "type": "address"
        },
        {
          "indexed": false,
          "internalType": "uint256",
          "name": "value",
          "type": "uint256"
        },
        {
          "indexed": false,
          "internalType": "uint256",
          "name": "timestamp",
          "type": "uint256"
        }
      ],
      "name": "Deposit",
      "type": "event"
    },
    {
      "anonymous": false,
      "inputs": [
        {
          "indexed": true,
          "internalType": "address",
          "name": "user",
          "type": "address"
        },
        {
          "indexed": false,
          "internalType": "uint256",
          "name": "amount",
          "type": "uint256"
        },
        {
          "indexed": false,
          "internalType": "uint256",
          "name": "lockTime",
          "type": "uint256"
        },
        {
          "indexed": false,
          "internalType": "uint256",
          "name": "unlockTime",
          "type": "uint256"
        }
      ],
      "name": "DepositLocked",
      "type": "event"
    },
    {
      "anonymous": false,
      "inputs": [
        {
          "indexed": true,
          "internalType": "address",
          "name": "user",
          "type": "address"
        },
        {
          "indexed": true,
          "internalType": "address",
          "name": "_of",
          "type": "address"
        },
        {
          "indexed": false,
          "internalType": "uint256",
          "name": "value",
          "type": "uint256"
        },
        {
          "indexed": false,
          "internalType": "uint256",
          "name": "timestamp",
          "type": "uint256"
        }
      ],
      "name": "DepositOnBehalfOf",
      "type": "event"
    },
    {
      "anonymous": false,
      "inputs": [
        {
          "indexed": false,
          "internalType": "uint8",
          "name": "version",
          "type": "uint8"
        }
      ],
      "name": "Initialized",
      "type": "event"
    },
    {
      "anonymous": false,
      "inputs": [
        {
          "indexed": true,
          "internalType": "address",
          "name": "user",
          "type": "address"
        },
        {
          "indexed": false,
          "internalType": "uint256",
          "name": "value",
          "type": "uint256"
        },
        {
          "indexed": false,
          "internalType": "uint256",
          "name": "timestamp",
          "type": "uint256"
        }
      ],
      "name": "InterestCollected",
      "type": "event"
    },
    {
      "anonymous": false,
      "inputs": [
        {
          "indexed": true,
          "internalType": "address",
          "name": "from",
          "type": "address"
        },
        {
          "indexed": true,
          "internalType": "address",
          "name": "to",
          "type": "address"
        }
      ],
      "name": "OwnershipTransferRequested",
      "type": "event"
    },
    {
      "anonymous": false,
      "inputs": [
        {
          "indexed": true,
          "internalType": "address",
          "name": "previousOwner",
          "type": "address"
        },
        {
          "indexed": true,
          "internalType": "address",
          "name": "newOwner",
          "type": "address"
        }
      ],
      "name": "OwnershipTransferred",
      "type": "event"
    },
    {
      "anonymous": false,
      "inputs": [
        {
          "indexed": true,
          "internalType": "address",
          "name": "poolRewarder",
          "type": "address"
        },
        {
          "indexed": false,
          "internalType": "uint256",
          "name": "timestamp",
          "type": "uint256"
        }
      ],
      "name": "PoolRewarderChanged",
      "type": "event"
    },
    {
      "anonymous": false,
      "inputs": [
        {
          "indexed": true,
          "internalType": "address",
          "name": "calculator",
          "type": "address"
        },
        {
          "indexed": false,
          "internalType": "uint256",
          "name": "timestamp",
          "type": "uint256"
        }
      ],
      "name": "RatesCalculatorChanged",
      "type": "event"
    },
    {
      "anonymous": false,
      "inputs": [
        {
          "indexed": true,
          "internalType": "address",
          "name": "user",
          "type": "address"
        },
        {
          "indexed": false,
          "internalType": "uint256",
          "name": "value",
          "type": "uint256"
        },
        {
          "indexed": false,
          "internalType": "uint256",
          "name": "timestamp",
          "type": "uint256"
        }
      ],
      "name": "Repayment",
      "type": "event"
    },
    {
      "anonymous": false,
      "inputs": [
        {
          "indexed": true,
          "internalType": "address",
          "name": "from",
          "type": "address"
        },
        {
          "indexed": true,
          "internalType": "address",
          "name": "to",
          "type": "address"
        },
        {
          "indexed": false,
          "internalType": "uint256",
          "name": "value",
          "type": "uint256"
        }
      ],
      "name": "Transfer",
      "type": "event"
    },
    {
      "anonymous": false,
      "inputs": [
        {
          "indexed": true,
          "internalType": "address",
          "name": "user",
          "type": "address"
        },
        {
          "indexed": false,
          "internalType": "uint256",
          "name": "value",
          "type": "uint256"
        },
        {
          "indexed": false,
          "internalType": "uint256",
          "name": "timestamp",
          "type": "uint256"
        }
      ],
      "name": "Withdrawal",
      "type": "event"
    },
    {
      "inputs": [],
      "name": "MAX_LOCK_TIME",
      "outputs": [
        {
          "internalType": "uint256",
          "name": "",
          "type": "uint256"
        }
      ],
      "stateMutability": "view",
      "type": "function"
    },
    {
      "inputs": [],
      "name": "acceptOwnership",
      "outputs": [],
      "stateMutability": "nonpayable",
      "type": "function"
    },
    {
      "inputs": [
        {
          "internalType": "address",
          "name": "owner",
          "type": "address"
        },
        {
          "internalType": "address",
          "name": "spender",
          "type": "address"
        }
      ],
      "name": "allowance",
      "outputs": [
        {
          "internalType": "uint256",
          "name": "",
          "type": "uint256"
        }
      ],
      "stateMutability": "view",
      "type": "function"
    },
    {
      "inputs": [
        {
          "internalType": "address",
          "name": "spender",
          "type": "address"
        },
        {
          "internalType": "uint256",
          "name": "amount",
          "type": "uint256"
        }
      ],
      "name": "approve",
      "outputs": [
        {
          "internalType": "bool",
          "name": "",
          "type": "bool"
        }
      ],
      "stateMutability": "nonpayable",
      "type": "function"
    },
    {
      "inputs": [
        {
          "internalType": "address",
          "name": "user",
          "type": "address"
        }
      ],
      "name": "balanceOf",
      "outputs": [
        {
          "internalType": "uint256",
          "name": "",
          "type": "uint256"
        }
      ],
      "stateMutability": "view",
      "type": "function"
    },
    {
      "inputs": [
        {
          "internalType": "uint256",
          "name": "_amount",
          "type": "uint256"
        }
      ],
      "name": "borrow",
      "outputs": [],
      "stateMutability": "nonpayable",
      "type": "function"
    },
    {
      "inputs": [],
      "name": "borrowIndex",
      "outputs": [
        {
          "internalType": "contract IIndex",
          "name": "",
          "type": "address"
        }
      ],
      "stateMutability": "view",
      "type": "function"
    },
    {
      "inputs": [
        {
          "internalType": "address",
          "name": "",
          "type": "address"
        }
      ],
      "name": "borrowed",
      "outputs": [
        {
          "internalType": "uint256",
          "name": "",
          "type": "uint256"
        }
      ],
      "stateMutability": "view",
      "type": "function"
    },
    {
      "inputs": [],
      "name": "borrowersRegistry",
      "outputs": [
        {
          "internalType": "contract IBorrowersRegistry",
          "name": "",
          "type": "address"
        }
      ],
      "stateMutability": "view",
      "type": "function"
    },
    {
      "inputs": [],
      "name": "checkRewards",
      "outputs": [
        {
          "internalType": "uint256",
          "name": "",
          "type": "uint256"
        }
      ],
      "stateMutability": "view",
      "type": "function"
    },
    {
      "inputs": [],
      "name": "decimals",
      "outputs": [
        {
          "internalType": "uint8",
          "name": "decimals",
          "type": "uint8"
        }
      ],
      "stateMutability": "pure",
      "type": "function"
    },
    {
      "inputs": [
        {
          "internalType": "address",
          "name": "spender",
          "type": "address"
        },
        {
          "internalType": "uint256",
          "name": "subtractedValue",
          "type": "uint256"
        }
      ],
      "name": "decreaseAllowance",
      "outputs": [
        {
          "internalType": "bool",
          "name": "",
          "type": "bool"
        }
      ],
      "stateMutability": "nonpayable",
      "type": "function"
    },
    {
      "inputs": [
        {
          "internalType": "uint256",
          "name": "_amount",
          "type": "uint256"
        }
      ],
      "name": "deposit",
      "outputs": [],
      "stateMutability": "nonpayable",
      "type": "function"
    },
    {
      "inputs": [],
      "name": "depositIndex",
      "outputs": [
        {
          "internalType": "contract IIndex",
          "name": "",
          "type": "address"
        }
      ],
      "stateMutability": "view",
      "type": "function"
    },
    {
      "inputs": [
        {
          "internalType": "uint256",
          "name": "_amount",
          "type": "uint256"
        },
        {
          "internalType": "address",
          "name": "_of",
          "type": "address"
        }
      ],
      "name": "depositOnBehalf",
      "outputs": [],
      "stateMutability": "nonpayable",
      "type": "function"
    },
    {
      "inputs": [],
      "name": "extractTimestampsAndAssertAllAreEqual",
      "outputs": [
        {
          "internalType": "uint256",
          "name": "extractedTimestamp",
          "type": "uint256"
        }
      ],
      "stateMutability": "pure",
      "type": "function"
    },
    {
      "inputs": [
        {
          "internalType": "address",
          "name": "_user",
          "type": "address"
        }
      ],
      "name": "getBorrowed",
      "outputs": [
        {
          "internalType": "uint256",
          "name": "",
          "type": "uint256"
        }
      ],
      "stateMutability": "view",
      "type": "function"
    },
    {
      "inputs": [],
      "name": "getBorrowingRate",
      "outputs": [
        {
          "internalType": "uint256",
          "name": "",
          "type": "uint256"
        }
      ],
      "stateMutability": "view",
      "type": "function"
    },
    {
      "inputs": [],
      "name": "getDepositRate",
      "outputs": [
        {
          "internalType": "uint256",
          "name": "",
          "type": "uint256"
        }
      ],
      "stateMutability": "view",
      "type": "function"
    },
    {
      "inputs": [],
      "name": "getFullPoolStatus",
      "outputs": [
        {
          "internalType": "uint256[5]",
          "name": "",
          "type": "uint256[5]"
        }
      ],
      "stateMutability": "view",
      "type": "function"
    },
    {
      "inputs": [
        {
          "internalType": "address",
          "name": "account",
          "type": "address"
        }
      ],
      "name": "getFullyVestedLockedBalance",
      "outputs": [
        {
          "internalType": "uint256",
          "name": "fullyVestedBalance",
          "type": "uint256"
        }
      ],
      "stateMutability": "view",
      "type": "function"
    },
    {
      "inputs": [
        {
          "internalType": "address",
          "name": "account",
          "type": "address"
        }
      ],
      "name": "getLockedBalance",
      "outputs": [
        {
          "internalType": "uint256",
          "name": "",
          "type": "uint256"
        }
      ],
      "stateMutability": "view",
      "type": "function"
    },
    {
      "inputs": [],
      "name": "getMaxPoolUtilisationForBorrowing",
      "outputs": [
        {
          "internalType": "uint256",
          "name": "",
          "type": "uint256"
        }
      ],
      "stateMutability": "view",
      "type": "function"
    },
    {
      "inputs": [
        {
          "internalType": "address",
          "name": "account",
          "type": "address"
        }
      ],
      "name": "getNotLockedBalance",
      "outputs": [
        {
          "internalType": "uint256",
          "name": "notLockedBalance",
          "type": "uint256"
        }
      ],
      "stateMutability": "view",
      "type": "function"
    },
    {
      "inputs": [],
      "name": "getRewards",
      "outputs": [],
      "stateMutability": "nonpayable",
      "type": "function"
    },
    {
      "inputs": [],
      "name": "getVPrimeControllerAddress",
      "outputs": [
        {
          "internalType": "address",
          "name": "",
          "type": "address"
        }
      ],
      "stateMutability": "view",
      "type": "function"
    },
    {
      "inputs": [
        {
          "internalType": "address",
          "name": "spender",
          "type": "address"
        },
        {
          "internalType": "uint256",
          "name": "addedValue",
          "type": "uint256"
        }
      ],
      "name": "increaseAllowance",
      "outputs": [
        {
          "internalType": "bool",
          "name": "",
          "type": "bool"
        }
      ],
      "stateMutability": "nonpayable",
      "type": "function"
    },
    {
      "inputs": [
        {
          "internalType": "contract IRatesCalculator",
          "name": "ratesCalculator_",
          "type": "address"
        },
        {
          "internalType": "contract IBorrowersRegistry",
          "name": "borrowersRegistry_",
          "type": "address"
        },
        {
          "internalType": "contract IIndex",
          "name": "depositIndex_",
          "type": "address"
        },
        {
          "internalType": "contract IIndex",
          "name": "borrowIndex_",
          "type": "address"
        },
        {
          "internalType": "address payable",
          "name": "tokenAddress_",
          "type": "address"
        },
        {
          "internalType": "contract IPoolRewarder",
          "name": "poolRewarder_",
          "type": "address"
        },
        {
          "internalType": "uint256",
          "name": "_totalSupplyCap",
          "type": "uint256"
        }
      ],
      "name": "initialize",
      "outputs": [],
      "stateMutability": "nonpayable",
      "type": "function"
    },
    {
      "inputs": [
        {
          "internalType": "address",
          "name": "account",
          "type": "address"
        },
        {
          "internalType": "uint256",
          "name": "amount",
          "type": "uint256"
        }
      ],
      "name": "isWithdrawalAmountAvailable",
      "outputs": [
        {
          "internalType": "bool",
          "name": "",
          "type": "bool"
        }
      ],
      "stateMutability": "view",
      "type": "function"
    },
    {
      "inputs": [
        {
          "internalType": "uint256",
          "name": "amount",
          "type": "uint256"
        },
        {
          "internalType": "uint256",
          "name": "lockTime",
          "type": "uint256"
        }
      ],
      "name": "lockDeposit",
      "outputs": [],
      "stateMutability": "nonpayable",
      "type": "function"
    },
    {
      "inputs": [
        {
          "internalType": "address",
          "name": "",
          "type": "address"
        },
        {
          "internalType": "uint256",
          "name": "",
          "type": "uint256"
        }
      ],
      "name": "locks",
      "outputs": [
        {
          "internalType": "uint256",
          "name": "lockTime",
          "type": "uint256"
        },
        {
          "internalType": "uint256",
          "name": "amount",
          "type": "uint256"
        },
        {
          "internalType": "uint256",
          "name": "unlockTime",
          "type": "uint256"
        }
      ],
      "stateMutability": "view",
      "type": "function"
    },
    {
      "inputs": [],
      "name": "name",
      "outputs": [
        {
          "internalType": "string",
          "name": "_name",
          "type": "string"
        }
      ],
      "stateMutability": "pure",
      "type": "function"
    },
    {
      "inputs": [],
      "name": "owner",
      "outputs": [
        {
          "internalType": "address",
          "name": "",
          "type": "address"
        }
      ],
      "stateMutability": "view",
      "type": "function"
    },
    {
      "inputs": [],
      "name": "pendingOwner",
      "outputs": [
        {
          "internalType": "address",
          "name": "",
          "type": "address"
        }
      ],
      "stateMutability": "view",
      "type": "function"
    },
    {
      "inputs": [],
      "name": "poolRewarder",
      "outputs": [
        {
          "internalType": "contract IPoolRewarder",
          "name": "",
          "type": "address"
        }
      ],
      "stateMutability": "view",
      "type": "function"
    },
    {
      "inputs": [],
      "name": "ratesCalculator",
      "outputs": [
        {
          "internalType": "contract IRatesCalculator",
          "name": "",
          "type": "address"
        }
      ],
      "stateMutability": "view",
      "type": "function"
    },
    {
      "inputs": [
        {
          "internalType": "uint256",
          "name": "amount",
          "type": "uint256"
        },
        {
          "internalType": "address",
          "name": "account",
          "type": "address"
        }
      ],
      "name": "recoverSurplus",
      "outputs": [],
      "stateMutability": "nonpayable",
      "type": "function"
    },
    {
      "inputs": [],
      "name": "renounceOwnership",
      "outputs": [],
      "stateMutability": "nonpayable",
      "type": "function"
    },
    {
      "inputs": [
        {
          "internalType": "uint256",
          "name": "amount",
          "type": "uint256"
        }
      ],
      "name": "repay",
      "outputs": [],
      "stateMutability": "nonpayable",
      "type": "function"
    },
    {
      "inputs": [
        {
          "internalType": "contract IBorrowersRegistry",
          "name": "borrowersRegistry_",
          "type": "address"
        }
      ],
      "name": "setBorrowersRegistry",
      "outputs": [],
      "stateMutability": "nonpayable",
      "type": "function"
    },
    {
      "inputs": [
        {
          "internalType": "contract IPoolRewarder",
          "name": "_poolRewarder",
          "type": "address"
        }
      ],
      "name": "setPoolRewarder",
      "outputs": [],
      "stateMutability": "nonpayable",
      "type": "function"
    },
    {
      "inputs": [
        {
          "internalType": "contract IRatesCalculator",
          "name": "ratesCalculator_",
          "type": "address"
        }
      ],
      "name": "setRatesCalculator",
      "outputs": [],
      "stateMutability": "nonpayable",
      "type": "function"
    },
    {
      "inputs": [
        {
          "internalType": "contract ITokenManager",
          "name": "_tokenManager",
          "type": "address"
        }
      ],
      "name": "setTokenManager",
      "outputs": [],
      "stateMutability": "nonpayable",
      "type": "function"
    },
    {
      "inputs": [
        {
          "internalType": "uint256",
          "name": "_newTotalSupplyCap",
          "type": "uint256"
        }
      ],
      "name": "setTotalSupplyCap",
      "outputs": [],
      "stateMutability": "nonpayable",
      "type": "function"
    },
    {
      "inputs": [],
      "name": "symbol",
      "outputs": [
        {
          "internalType": "string",
          "name": "_symbol",
          "type": "string"
        }
      ],
      "stateMutability": "pure",
      "type": "function"
    },
    {
      "inputs": [],
      "name": "tokenAddress",
      "outputs": [
        {
          "internalType": "address payable",
          "name": "",
          "type": "address"
        }
      ],
      "stateMutability": "view",
      "type": "function"
    },
    {
      "inputs": [],
      "name": "tokenManager",
      "outputs": [
        {
          "internalType": "contract ITokenManager",
          "name": "",
          "type": "address"
        }
      ],
      "stateMutability": "view",
      "type": "function"
    },
    {
      "inputs": [],
      "name": "totalBorrowed",
      "outputs": [
        {
          "internalType": "uint256",
          "name": "",
          "type": "uint256"
        }
      ],
      "stateMutability": "view",
      "type": "function"
    },
    {
      "inputs": [],
      "name": "totalSupply",
      "outputs": [
        {
          "internalType": "uint256",
          "name": "",
          "type": "uint256"
        }
      ],
      "stateMutability": "view",
      "type": "function"
    },
    {
      "inputs": [],
      "name": "totalSupplyCap",
      "outputs": [
        {
          "internalType": "uint256",
          "name": "",
          "type": "uint256"
        }
      ],
      "stateMutability": "view",
      "type": "function"
    },
    {
      "inputs": [
        {
          "internalType": "address",
          "name": "recipient",
          "type": "address"
        },
        {
          "internalType": "uint256",
          "name": "amount",
          "type": "uint256"
        }
      ],
      "name": "transfer",
      "outputs": [
        {
          "internalType": "bool",
          "name": "",
          "type": "bool"
        }
      ],
      "stateMutability": "nonpayable",
      "type": "function"
    },
    {
      "inputs": [
        {
          "internalType": "address",
          "name": "sender",
          "type": "address"
        },
        {
          "internalType": "address",
          "name": "recipient",
          "type": "address"
        },
        {
          "internalType": "uint256",
          "name": "amount",
          "type": "uint256"
        }
      ],
      "name": "transferFrom",
      "outputs": [
        {
          "internalType": "bool",
          "name": "",
          "type": "bool"
        }
      ],
      "stateMutability": "nonpayable",
      "type": "function"
    },
    {
      "inputs": [
        {
          "internalType": "address",
          "name": "newOwner",
          "type": "address"
        }
      ],
      "name": "transferOwnership",
      "outputs": [],
      "stateMutability": "nonpayable",
      "type": "function"
    },
    {
      "inputs": [],
      "name": "vestingDistributor",
      "outputs": [
        {
          "internalType": "contract VestingDistributor",
          "name": "",
          "type": "address"
        }
      ],
      "stateMutability": "view",
      "type": "function"
    },
    {
      "inputs": [
        {
          "internalType": "uint256",
          "name": "_amount",
          "type": "uint256"
        }
      ],
      "name": "withdraw",
      "outputs": [],
      "stateMutability": "nonpayable",
      "type": "function"
    }
  ],
  "transactionHash": "0xfe15cd7e450145cca7b6d2ec90de66f93a0c8822de5a26ff9e17cd2e6c13c06d",
  "args": [],
  "numDeployments": 1,
  "solcInputHash": "799abc61493105f5d2ff3d9da8215024",
  "bytecode": "0x608060405234801561001057600080fd5b506137f2806100206000396000f3fe608060405234801561001057600080fd5b506004361061027d5760003560e01c80630572b0cc1461028257806306fdde031461028c5780630790ef9a146102cb57806307bbebdd146102de5780630941cb3d146102fe578063095ea7b31461032c5780631457db341461034f5780631460e3901461036257806318160ddd1461037557806323b872dd1461037d5780632a709b14146103905780632aeaa291146103a35780632e1a7d4d146103ab578063313ce567146103be57806331d05b11146103cd578063371fd8e6146103e057806339509351146103f357806341da9b54146104065780634c19386c1461041957806355a547d5146104215780636011163e1461042957806361215aa81461043c5780636ca6d5d01461044a5780636cf55ea21461045d57806370a082311461047057806370d4cea014610483578063715018a61461028a578063726cd4151461049657806379ba50971461049e5780637b898939146104a65780637cb2b79c146104b95780637f75ad0f146104cc5780638da5cb5b146104df57806395d89b41146104e75780639d76ea5814610509578063a457c2d71461051c578063a9059cbb1461052f578063aa5af0fd14610542578063b425f80214610555578063b6b55f2514610583578063b75c42bd14610596578063b790634e146105ab578063bb102aea146105b3578063c4086893146105bc578063c4ce6358146105cf578063c5ebeaec146105e2578063d06dca89146105f5578063dd62ed3e14610608578063e2b9442e14610641578063e30c397814610654578063ee61bd6e1461065c578063f2fde38b1461066f578063f36b242514610682578063fa78668f1461068a578063fc68f66114610695575b600080fd5b61028a6106a8565b005b6040805180820190915260118152702232b63a30a83934b6b2aaa9a221b7b4b760791b60208201525b6040516102c29190613369565b60405180910390f35b61028a6102d9366004613391565b61070c565b60a1546102f1906001600160a01b031681565b6040516102c291906133c1565b61031e61030c3660046133d5565b609a6020526000908152604090205481565b6040519081526020016102c2565b61033f61033a3660046133f2565b610814565b60405190151581526020016102c2565b61028a61035d3660046133d5565b610890565b61028a61037036600461341e565b61093f565b61031e610beb565b61033f61038b3660046134ab565b610bfb565b60a3546102f1906001600160a01b031681565b61031e610f49565b61028a6103b93660046134ec565b610fb9565b604051600681526020016102c2565b61028a6103db3660046134ec565b6111f4565b61028a6103ee3660046134ec565b611201565b61033f6104013660046133f2565b6112ea565b61033f6104143660046133f2565b611397565b61031e6113ac565b61031e6113b7565b61031e6104373660046133d5565b6114cf565b670cd64299613c800061031e565b609d546102f1906001600160a01b031681565b61028a61046b366004613391565b611556565b61031e61047e3660046133d5565b611813565b61028a6104913660046133d5565b611859565b6102f1611907565b61028a611975565b609e546102f1906001600160a01b031681565b61028a6104c73660046133d5565b611a04565b61031e6104da3660046133d5565b611a2e565b6102f1611a73565b60408051808201909152600681526544505553444360d01b60208201526102b5565b60a0546102f1906001600160a01b031681565b61033f61052a3660046133f2565b611a82565b61033f61053d3660046133f2565b611b56565b609f546102f1906001600160a01b031681565b6105686105633660046133f2565b611d9a565b604080519384526020840192909252908201526060016102c2565b61028a6105913660046134ec565b611ddc565b61059e611de6565b6040516102c29190613505565b61031e611e3d565b61031e60975481565b61031e6105ca3660046133d5565b611e7e565b61031e6105dd3660046133d5565b611f4b565b61028a6105f03660046134ec565b61206b565b609c546102f1906001600160a01b031681565b61031e610616366004613536565b6001600160a01b03918216600090815260986020908152604080832093909416825291909152205490565b61028a61064f366004613564565b6122e8565b6102f1612460565b609b546102f1906001600160a01b031681565b61028a61067d3660046133d5565b61246a565b61031e612531565b61031e6305a39a8081565b61028a6106a33660046133d5565b61254d565b609d546040516311305c1f60e11b81526001600160a01b0390911690632260b83e906106d89033906004016133c1565b600060405180830381600087803b1580156106f257600080fd5b505af1158015610706573d6000803e3d6000fd5b50505050565b6107146125cb565b61071c61262a565b60a0546040516370a0823160e01b81526000916001600160a01b0316906370a082319061074d9030906004016133c1565b602060405180830381865afa15801561076a573d6000803e3d6000fd5b505050506040513d601f19601f8201168201806040525081019061078e9190613586565b9050600061079a610beb565b6107a26113ac565b6107ac90846135b5565b6107b691906135c8565b9050818411156107d9576040516316d5c93f60e21b815260040160405180910390fd5b838110156107fa576040516394290ab960e01b815260040160405180910390fd5b6108048385612683565b50506108106001606555565b5050565b60006001600160a01b03831661083d57604051633d6601c760e11b815260040160405180910390fd5b3360008181526098602090815260408083206001600160a01b038816808552908352928190208690555185815291929160008051602061379d833981519152910160405180910390a35060015b92915050565b6108986125cb565b6108a1816126a1565b1580156108b657506001600160a01b03811615155b156108ea57609d546040516322a2d07b60e21b81526108e1916001600160a01b0316906004016133c1565b60405180910390fd5b609d80546001600160a01b0319166001600160a01b0383169081179091556040514281527f85796821ee1d670b0fdb986f256b5c1a29b9019038831c7f09df2061879cf9e5906020015b60405180910390a250565b600054610100900460ff161580801561095f5750600054600160ff909116105b80610980575061096e306126a1565b158015610980575060005460ff166001145b6109e35760405162461bcd60e51b815260206004820152602e60248201527f496e697469616c697a61626c653a20636f6e747261637420697320616c72656160448201526d191e481a5b9a5d1a585b1a5e995960921b60648201526084016108e1565b6000805460ff191660011790558015610a06576000805461ff0019166101001790555b610a0f886126a1565b8015610a1f5750610a1f876126a1565b8015610a2f5750610a2f866126a1565b8015610a3f5750610a3f856126a1565b8015610a615750610a4f836126a1565b80610a6157506001600160a01b038316155b610aa45760405162461bcd60e51b815260206004820152601460248201527357726f6e6720696e697420617267756d656e747360601b60448201526064016108e1565b609c80546001600160a01b03199081166001600160a01b038a811691909117909255609b805482168b8416179055609e80548216898416179055609f80548216888416179055609d8054821686841617905560a08054909116918616918217905560978390556040805163313ce56760e01b8152905163313ce567916004818101926020929091908290030181865afa158015610b45573d6000803e3d6000fd5b505050506040513d601f19601f82011682018060405250810190610b6991906135db565b60a160146101000a81548160ff021916908360ff160217905550610b8b6126b0565b610b936126df565b610b9b61270e565b8015610be1576000805461ff0019169055604051600181527f7f26b83ff96e1f2b6a682f133852f6798a09c465da95921460cefb38474024989060200160405180910390a15b5050505050505050565b6000610bf630611813565b905090565b6000610c0561262a565b610c0f8483611397565b610c2b5760405162461bcd60e51b81526004016108e1906135fe565b6001600160a01b0384166000908152609860209081526040808320338452909152902054821115610c96576001600160a01b03841660009081526098602090815260408083203384529091529081902054905163054365bb60e31b81526108e1918491600401613629565b6001600160a01b038316610cbd57604051633a954ecd60e21b815260040160405180910390fd5b306001600160a01b03841603610ce65760405163ed728e5760e01b815260040160405180910390fd5b610cef846128f1565b6001600160a01b03841660009081526099602052604081208054849290610d179084906135c8565b90915550506001600160a01b038416600090815260986020908152604080832033845290915281208054849290610d4f9084906135c8565b90915550610d5e9050836128f1565b6001600160a01b03831660009081526099602052604081208054849290610d869084906135b5565b9091555050609d546001600160a01b031615801590610da457508115155b15610e8e57609d54604051630d5dbdb360e21b81526000916001600160a01b031690633576f6cc90610ddc9086908990600401613637565b6020604051808303816000875af1158015610dfb573d6000803e3d6000fd5b505050506040513d601f19601f82011682018060405250810190610e1f9190613586565b90508015610e8c57609d546040516328ba35d960e11b81526001600160a01b03909116906351746bb290610e599084908890600401613637565b600060405180830381600087803b158015610e7357600080fd5b505af1158015610e87573d6000803e3d6000fd5b505050505b505b826001600160a01b0316846001600160a01b031660008051602061377d83398151915284604051610ec191815260200190565b60405180910390a3610f16610ed4611907565b85604051602401610ee591906133c1565b60408051601f198184030181529190526020810180516001600160e01b0316636cec346160e01b1790526000612a1c565b50610f33610f22611907565b84604051602401610ee591906133c1565b5060019050610f426001606555565b9392505050565b609d546040516246613160e11b81526000916001600160a01b031690628cc26290610f789033906004016133c1565b602060405180830381865afa158015610f95573d6000803e3d6000fd5b505050506040513d601f19601f82011682018060405250810190610bf69190613586565b610fc161262a565b610fcb3382611397565b610fe75760405162461bcd60e51b81526004016108e1906135fe565b610ff0336128f1565b3360009081526099602052604090205461100b908290612ab0565b60a0546040516370a0823160e01b81529192506001600160a01b0316906370a082319061103c9030906004016133c1565b602060405180830381865afa158015611059573d6000803e3d6000fd5b505050506040513d601f19601f8201168201806040525081019061107d9190613586565b81111561109d576040516316d5c93f60e21b815260040160405180910390fd5b306000908152609960205260409020548111156110cd57604051630bba337f60e11b815260040160405180910390fd5b306000908152609960205260409020805482900390556110ed3382612ac6565b6110f561270e565b6110ff3382612683565b609d546001600160a01b03161561118757609d54604051630d5dbdb360e21b81526001600160a01b0390911690633576f6cc906111429084903390600401613637565b6020604051808303816000875af1158015611161573d6000803e3d6000fd5b505050506040513d601f19601f820116820180604052508101906111859190613586565b505b336001600160a01b03167fdf273cb619d95419a9cd0ec88123a0538c85064229baa6363788f743fff90deb82426040516111c2929190613629565b60405180910390a26111e66111d5611907565b33604051602401610ee591906133c1565b506111f16001606555565b50565b6111fc6125cb565b609755565b61120961262a565b61121233612b46565b336000908152609a602052604090205481111561124257604051630dcad43360e11b815260040160405180910390fd5b61124c3382612c4c565b336000908152609a60205260408120805483929061126b9084906135c8565b9091555050306000908152609a60205260408120805483929061128f9084906135c8565b9091555061129d905061270e565b336001600160a01b03167f24fcca58a997b1b2eff6db8107e860458544c09ddd3693b3b779e1df6c0d6c5d82426040516112d8929190613629565b60405180910390a26111f16001606555565b60006001600160a01b03831661131357604051633d6601c760e11b815260040160405180910390fd5b3360009081526098602090815260408083206001600160a01b03871684529091528120546113429084906135b5565b3360008181526098602090815260408083206001600160a01b038a168085529083529281902085905551848152939450909260008051602061379d833981519152910160405180910390a35060019392505050565b60006113a283611a2e565b9091111592915050565b6000610bf6306114cf565b6000806113c2612c64565b905060006113cf82612d0b565b61ffff169050806000036113f657604051632154bfcf60e21b815260040160405180910390fd5b6114016002836135b5565b915060005b818110156114c957600061141984612d45565b90506000806114296068876135b5565b9050600061143782366135c8565b9050803592508265ffffffffffff1660000361146657604051630336dc9d60e41b815260040160405180910390fd5b8760000361147e578265ffffffffffff1697506114a6565b878365ffffffffffff16146114a65760405163d9d1f46560e01b815260040160405180910390fd5b6114b084886135b5565b96505050505080806114c19061364e565b915050611406565b50505090565b609f546001600160a01b038281166000908152609a602052604080822054905163966da88960e01b81529193929092169163966da8899161151591908690600401613637565b602060405180830381865afa158015611532573d6000803e3d6000fd5b505050506040513d601f19601f8201168201806040525081019061088a9190613586565b61155e61262a565b8160000361157f5760405163078e1d8560e01b815260040160405180910390fd5b6001600160a01b0381166115c45760405162461bcd60e51b815260206004820152600c60248201526b41646472657373207a65726f60a01b60448201526064016108e1565b306001600160a01b0382160361161c5760405162461bcd60e51b815260206004820181905260248201527f43616e6e6f74206465706f736974206f6e20626568616c66206f6620706f6f6c60448201526064016108e1565b60a0546040516370a0823160e01b81526116989184916001600160a01b03909116906370a08231906116529033906004016133c1565b602060405180830381865afa15801561166f573d6000803e3d6000fd5b505050506040513d601f19601f820116820180604052508101906116939190613586565b612ab0565b91506116a3816128f1565b609754156116e857609754306000908152609960205260409020546116c99084906135b5565b11156116e857604051633f27d61760e01b815260040160405180910390fd5b6116f23383612c4c565b6116fc8183612d79565b306000908152609960205260408120805484929061171b9084906135b5565b90915550611729905061270e565b609d546001600160a01b03161561179f57609d546040516328ba35d960e11b81526001600160a01b03909116906351746bb29061176c9085908590600401613637565b600060405180830381600087803b15801561178657600080fd5b505af115801561179a573d6000803e3d6000fd5b505050505b806001600160a01b0316336001600160a01b03167fef0ada5ca19bede6a40b575865a6ce451938d26835b7215e6a5e03bb2c43921284426040516117e4929190613629565b60405180910390a36118086117f7611907565b82604051602401610ee591906133c1565b506108106001606555565b609e546001600160a01b0382811660009081526099602052604080822054905163966da88960e01b81529193929092169163966da8899161151591908690600401613637565b6118616125cb565b61186a816126a1565b15801561187f57506001600160a01b03811615155b1561189f57806040516322a2d07b60e21b81526004016108e191906133c1565b609b80546001600160a01b0319166001600160a01b038316908117909155156118ca576118ca61270e565b806001600160a01b03167fef1b7e9216e08b283cc613824ccb26ea505227777839a4f3c6810d64594e01824260405161093491815260200190565b565b60a3546040805163726cd41560e01b815290516000926001600160a01b03169163726cd4159160048083019260209291908290030181865afa158015611951573d6000803e3d6000fd5b505050506040513d601f19601f82011682018060405250810190610bf69190613667565b600061197f612df9565b9050336001600160a01b038216146119f15760405162461bcd60e51b815260206004820152602f60248201527f50656e64696e674f776e61626c653a2063616c6c6572206973206e6f7420746860448201526e32903832b73234b7339037bbb732b960891b60648201526084016108e1565b6119fa81612e0c565b6111f16000612e5e565b611a0c6125cb565b60a380546001600160a01b0319166001600160a01b0392909216919091179055565b600080611a3a83611e7e565b90506000611a4784611813565b905081811015611a5a5760009250611a6c565b611a6482826135c8565b949350505050565b5050919050565b6033546001600160a01b031690565b60006001600160a01b038316611aab57604051633d6601c760e11b815260040160405180910390fd5b3360009081526098602090815260408083206001600160a01b038716845290915290205482811015611af457828160405163054365bb60e31b81526004016108e1929190613629565b6000611b0084836135c8565b3360008181526098602090815260408083206001600160a01b038b168085529083529281902085905551848152939450909260008051602061379d833981519152910160405180910390a3506001949350505050565b6000611b6061262a565b611b6a3383611397565b611b865760405162461bcd60e51b81526004016108e1906135fe565b6001600160a01b038316611bad57604051633a954ecd60e21b815260040160405180910390fd5b306001600160a01b03841603611bd65760405163ed728e5760e01b815260040160405180910390fd5b33611be0816128f1565b6001600160a01b038116600090815260996020526040902080548490039055611c08846128f1565b6001600160a01b03841660009081526099602052604081208054859290611c309084906135b5565b9091555050609d546001600160a01b031615801590611c4e57508215155b15611d3857609d54604051630d5dbdb360e21b81526000916001600160a01b031690633576f6cc90611c869087908690600401613637565b6020604051808303816000875af1158015611ca5573d6000803e3d6000fd5b505050506040513d601f19601f82011682018060405250810190611cc99190613586565b90508015611d3657609d546040516328ba35d960e11b81526001600160a01b03909116906351746bb290611d039084908990600401613637565b600060405180830381600087803b158015611d1d57600080fd5b505af1158015611d31573d6000803e3d6000fd5b505050505b505b836001600160a01b0316816001600160a01b031660008051602061377d83398151915285604051611d6b91815260200190565b60405180910390a3611d7e6111d5611907565b50611d8a610ed4611907565b50600191505061088a6001606555565b60a26020528160005260406000208181548110611db657600080fd5b600091825260209091206003909102018054600182015460029092015490935090915083565b6111f18133611556565b611dee6132fb565b6040518060a00160405280611e01610beb565b8152602001611e0e611e3d565b8152602001611e1b612531565b8152602001611e286113ac565b8152602001670cd64299613c80009052919050565b609b546000906001600160a01b0316637cd08331611e596113ac565b611e61610beb565b6040518363ffffffff1660e01b8152600401610f78929190613629565b600080805b6001600160a01b038416600090815260a26020526040902054811015611f44576001600160a01b038416600090815260a260205260409020805442919083908110611ed057611ed0613684565b9060005260206000209060030201600201541115611f32576001600160a01b038416600090815260a260205260409020805482908110611f1257611f12613684565b90600052602060002090600302016001015482611f2f91906135b5565b91505b80611f3c8161364e565b915050611e83565b5092915050565b6000805b6001600160a01b038316600090815260a26020526040902054811015612065576001600160a01b038316600090815260a260205260409020805442919083908110611f9c57611f9c613684565b9060005260206000209060030201600201541115612053576001600160a01b038316600090815260a26020526040902080546305a39a80919083908110611fe557611fe5613684565b600091825260208083206003909202909101546001600160a01b038716835260a2909152604090912080548490811061202057612020613684565b90600052602060002090600302016001015461203c919061369a565b61204691906136b1565b61205090836135b5565b91505b8061205d8161364e565b915050611f4f565b50919050565b609c546001600160a01b031661209457604051631c038dab60e21b815260040160405180910390fd5b609c5460405163039ff21960e21b81526001600160a01b0390911690630e7fc864906120c49033906004016133c1565b602060405180830381865afa1580156120e1573d6000803e3d6000fd5b505050506040513d601f19601f8201168201806040525081019061210591906136d3565b61212257604051637582fa9b60e11b815260040160405180910390fd5b61212a610beb565b60000361214a576040516316d5c93f60e21b815260040160405180910390fd5b61215261262a565b60a0546040516370a0823160e01b81526001600160a01b03909116906370a08231906121829030906004016133c1565b602060405180830381865afa15801561219f573d6000803e3d6000fd5b505050506040513d601f19601f820116820180604052508101906121c39190613586565b8111156121e3576040516316d5c93f60e21b815260040160405180910390fd5b6121ec33612b46565b336000908152609a60205260408120805483929061220b9084906135b5565b9091555050306000908152609a60205260408120805483929061222f9084906135b5565b9091555061223f90503382612683565b61224761270e565b336001600160a01b03167fd6b37be10b58108f696d9ed067fedad0bff7cb417ef4c28d2f8a25d6d83c98d58242604051612282929190613629565b60405180910390a26122946001606555565b670cd64299613c80006122a5610beb565b6122ad6113ac565b6122bf90670de0b6b3a764000061369a565b6122c991906136b1565b11156111f1576040516372b9ce3f60e11b815260040160405180910390fd5b816122f233611a2e565b101561233f5760405162461bcd60e51b815260206004820152601c60248201527b496e73756666696369656e742062616c616e636520746f206c6f636b60201b60448201526064016108e1565b6305a39a8081111561239d5760405162461bcd60e51b815260206004820152602160248201527f43616e6e6f74206c6f636b20666f72206d6f7265207468616e203320796561726044820152607360f81b60648201526084016108e1565b33600090815260a2602090815260409182902082516060810184528481529182018590529181016123ce84426135b5565b905281546001818101845560009384526020938490208351600390930201918255928201519281019290925560400151600290910155337fada80de846c2fa6289ae8db8bd0145346851ca76d49946df18240ebbf97200a7838361243281426135b5565b6040805193845260208401929092529082015260600160405180910390a261245b6111d5611907565b505050565b6000610bf6612df9565b6124726125cb565b6001600160a01b0381166124de5760405162461bcd60e51b815260206004820152602d60248201527f50656e64696e674f776e61626c653a206e6577206f776e65722069732074686560448201526c207a65726f206164647265737360981b60648201526084016108e1565b6124e781612e5e565b806001600160a01b03166124f9611a73565b6001600160a01b03167fed8889f560326eb138920d842192f0eb3dd22b4f139c87a2c57538e05bae127860405160405180910390a350565b609b546000906001600160a01b031663df841eec611e596113ac565b6125556125cb565b61255e816126a1565b61257d57806040516322a2d07b60e21b81526004016108e191906133c1565b609c80546001600160a01b0319166001600160a01b0383169081179091556040514281527f04dce7d074f7e287a2e6e3516c802271d58d5c14e0dede83a49719eb6b92046990602001610934565b336125d4611a73565b6001600160a01b0316146119055760405162461bcd60e51b815260206004820181905260248201527f4f776e61626c653a2063616c6c6572206973206e6f7420746865206f776e657260448201526064016108e1565b60026065540361267c5760405162461bcd60e51b815260206004820152601f60248201527f5265656e7472616e637947756172643a207265656e7472616e742063616c6c0060448201526064016108e1565b6002606555565b60a054610810906001600160a01b03168383612e70565b6001606555565b6001600160a01b03163b151590565b600054610100900460ff166126d75760405162461bcd60e51b81526004016108e1906136f5565b611905612f9a565b600054610100900460ff166127065760405162461bcd60e51b81526004016108e1906136f5565b611905612fca565b60006127186113ac565b90506000612724610beb565b609b549091506001600160a01b03166127505760405163fd4851e960e01b815260040160405180910390fd5b609e54609b54604051637cd0833160e01b81526001600160a01b03928316926334fcf437921690637cd083319061278d9087908790600401613629565b602060405180830381865afa1580156127aa573d6000803e3d6000fd5b505050506040513d601f19601f820116820180604052508101906127ce9190613586565b6040518263ffffffff1660e01b81526004016127ec91815260200190565b600060405180830381600087803b15801561280657600080fd5b505af115801561281a573d6000803e3d6000fd5b5050609f54609b546040516337e107bb60e21b81526001600160a01b0392831694506334fcf437935091169063df841eec9061285c9087908790600401613629565b602060405180830381865afa158015612879573d6000803e3d6000fd5b505050506040513d601f19601f8201168201806040525081019061289d9190613586565b6040518263ffffffff1660e01b81526004016128bb91815260200190565b600060405180830381600087803b1580156128d557600080fd5b505af11580156128e9573d6000803e3d6000fd5b505050505050565b6001600160a01b03811660009081526099602052604081205461291383611813565b61291d91906135c8565b90506129298282612d79565b61293230611813565b306000908152609960205260409081902091909155516001600160a01b038316907f9bbd517758fbae61197f1c1c04c8614064e89512dbaf4350dcdf76fcaa5e2161906129829084904290613629565b60405180910390a2609e54604051637681d99b60e11b81526001600160a01b039091169063ed03b336906129ba9085906004016133c1565b600060405180830381600087803b1580156129d457600080fd5b505af11580156129e8573d6000803e3d6000fd5b5050609e54604051637681d99b60e11b81526001600160a01b03909116925063ed03b33691506128bb9030906004016133c1565b60606000612a2984612ff1565b9050600080866001600160a01b031685612a44576000612a46565b345b84604051612a549190613740565b60006040518083038185875af1925050503d8060008114612a91576040519150601f19603f3d011682016040523d82523d6000602084013e612a96565b606091505b5091509150612aa58282613080565b979650505050505050565b6000818310612abf5781610f42565b5090919050565b6001600160a01b038216600090815260996020526040902054811115612aff57604051630bba337f60e11b815260040160405180910390fd5b6001600160a01b0382166000818152609960209081526040808320805486900390555184815291929160008051602061377d83398151915291015b60405180910390a35050565b612b4f816114cf565b6001600160a01b0382166000908152609a6020526040902055612b71306114cf565b306000908152609a60205260409081902091909155609f549051637681d99b60e11b81526001600160a01b039091169063ed03b33690612bb59084906004016133c1565b600060405180830381600087803b158015612bcf57600080fd5b505af1158015612be3573d6000803e3d6000fd5b5050609f54604051637681d99b60e11b81526001600160a01b03909116925063ed03b3369150612c179030906004016133c1565b600060405180830381600087803b158015612c3157600080fd5b505af1158015612c45573d6000803e3d6000fd5b5050505050565b60a054610810906001600160a01b03168330846130f7565b60006602ed57011e0000601f1936013581161480612c95576040516373bb264f60e11b815260040160405180910390fd5b60003660291115612cb957604051632bcb7bc560e11b815260040160405180910390fd5b5060281936013560006009612cd4600362ffffff85166135b5565b612cde91906135b5565b905036612cec6002836135b5565b1115610f425760405163c30a7bd760e01b815260040160405180910390fd5b600080612d196020846135b5565b905036811115612d3c57604051632bcb7bc560e11b815260040160405180910390fd5b36033592915050565b6000806000612d538461322d565b9092509050604e612d658260206135b5565b612d6f908461369a565b611a6491906135b5565b6001600160a01b038216612da0576040516346dbfb6d60e11b815260040160405180910390fd5b6001600160a01b03821660009081526099602052604081208054839290612dc89084906135b5565b90915550506040518181526001600160a01b0383169060009060008051602061377d83398151915290602001612b3a565b60008051602061375d8339815191525490565b603380546001600160a01b038381166001600160a01b0319831681179093556040519116919082907f8be0079c531659141344cd1fd0a4f28419497f9722a3daafe3b4186f6b6457e090600090a35050565b60008051602061375d83398151915255565b604080516001600160a01b038481166024830152604480830185905283518084039091018152606490920183526020820180516001600160e01b031663a9059cbb60e01b1790529151600092839290871691612ecc9190613740565b6000604051808303816000865af19150503d8060008114612f09576040519150601f19603f3d011682016040523d82523d6000602084013e612f0e565b606091505b5091509150818015612f38575080511580612f38575080806020019051810190612f3891906136d3565b612c455760405162461bcd60e51b815260206004820152602d60248201527f5472616e7366657248656c7065723a3a736166655472616e736665723a20747260448201526c185b9cd9995c8819985a5b1959609a1b60648201526084016108e1565b600054610100900460ff16612fc15760405162461bcd60e51b81526004016108e1906136f5565b61190533612e0c565b600054610100900460ff1661269a5760405162461bcd60e51b81526004016108e1906136f5565b80516060906000613000613284565b9050600061300e82846135b5565b90503682111561303157604051632bcb7bc560e11b815260040160405180910390fd5b6060604051905081815285602001848101826020015b8183101561305f578251815260209283019201613047565b50505082833603856020018301379190920181016020016040529392505050565b6060826120655781516000036130a957604051632b3ff13d60e11b815260040160405180910390fd5b602082015162461bcd60e51b1480156130dc576040516301efd04f60e31b815260448401906108e1908290600401613369565b8260405163fd36fde360e01b81526004016108e19190613369565b604080516001600160a01b0385811660248301528481166044830152606480830185905283518084039091018152608490920183526020820180516001600160e01b03166323b872dd60e01b179052915160009283929088169161315b9190613740565b6000604051808303816000865af19150503d8060008114613198576040519150601f19603f3d011682016040523d82523d6000602084013e61319d565b606091505b50915091508180156131c75750805115806131c75750808060200190518101906131c791906136d3565b6128e95760405162461bcd60e51b815260206004820152603160248201527f5472616e7366657248656c7065723a3a7472616e7366657246726f6d3a207472604482015270185b9cd9995c919c9bdb4819985a5b1959607a1b60648201526084016108e1565b60008080808061323e6041876135b5565b905060006132576132506020846135b5565b36906132ef565b8035945090506132688160036132ef565b62ffffff9490941697933563ffffffff16965092945050505050565b60008061328f612c64565b9050600061329c82612d0b565b61ffff1690506132ad6002836135b5565b915060005b818110156132e75760006132c584612d45565b90506132d181856135b5565b93505080806132df9061364e565b9150506132b2565b509092915050565b6000610f4282846135c8565b6040518060a001604052806005906020820280368337509192915050565b60005b8381101561333457818101518382015260200161331c565b50506000910152565b60008151808452613355816020860160208601613319565b601f01601f19169290920160200192915050565b602081526000610f42602083018461333d565b6001600160a01b03811681146111f157600080fd5b600080604083850312156133a457600080fd5b8235915060208301356133b68161337c565b809150509250929050565b6001600160a01b0391909116815260200190565b6000602082840312156133e757600080fd5b8135610f428161337c565b6000806040838503121561340557600080fd5b82356134108161337c565b946020939093013593505050565b600080600080600080600060e0888a03121561343957600080fd5b87356134448161337c565b965060208801356134548161337c565b955060408801356134648161337c565b945060608801356134748161337c565b935060808801356134848161337c565b925060a08801356134948161337c565b8092505060c0880135905092959891949750929550565b6000806000606084860312156134c057600080fd5b83356134cb8161337c565b925060208401356134db8161337c565b929592945050506040919091013590565b6000602082840312156134fe57600080fd5b5035919050565b60a08101818360005b600581101561352d57815183526020928301929091019060010161350e565b50505092915050565b6000806040838503121561354957600080fd5b82356135548161337c565b915060208301356133b68161337c565b6000806040838503121561357757600080fd5b50508035926020909101359150565b60006020828403121561359857600080fd5b5051919050565b634e487b7160e01b600052601160045260246000fd5b8082018082111561088a5761088a61359f565b8181038181111561088a5761088a61359f565b6000602082840312156135ed57600080fd5b815160ff81168114610f4257600080fd5b60208082526011908201527010985b185b98d9481a5cc81b1bd8dad959607a1b604082015260600190565b918252602082015260400190565b9182526001600160a01b0316602082015260400190565b6000600182016136605761366061359f565b5060010190565b60006020828403121561367957600080fd5b8151610f428161337c565b634e487b7160e01b600052603260045260246000fd5b808202811582820484141761088a5761088a61359f565b6000826136ce57634e487b7160e01b600052601260045260246000fd5b500490565b6000602082840312156136e557600080fd5b81518015158114610f4257600080fd5b6020808252602b908201527f496e697469616c697a61626c653a20636f6e7472616374206973206e6f74206960408201526a6e697469616c697a696e6760a81b606082015260800190565b60008251613752818460208701613319565b919091019291505056fe63a0d9df49fae3f1b9d24f8dc819a568c429a1b11d0d8e9de63df53a0194acb2ddf252ad1be2c89b69c2b068fc378daa952ba7f163c4a11628f55a4df523b3ef8c5be1e5ebec7d5bd14f71427d1e84f3dd0314c0f7b2291e5b200ac8c7c3b925a2646970667358221220240e8283c021d5f30ccf1ef7dbb9243f2e3ddfeba72c3464190ed244a0c59e0664736f6c63430008110033",
  "devdoc": {
    "details": "Contract allowing user to deposit to and borrow USDC from a dedicated user account",
    "errors": {
      "InsufficientAllowance(uint256,uint256)": [
        {
          "params": {
            "allowance": "current allowance",
            "requested": "requested transfer amount"
          }
        }
      ],
      "TransferAmountExceedsBalance(uint256,uint256)": [
        {
          "params": {
            "amount": "transfer amount",
            "balance": "available balance"
          }
        }
      ]
    },
    "kind": "dev",
    "methods": {
      "allowance(address,address)": {
        "details": "Returns the remaining number of tokens that `spender` will be allowed to spend on behalf of `owner` through {transferFrom}. This is zero by default. This value changes when {approve} or {transferFrom} are called."
      },
      "approve(address,uint256)": {
        "details": "Sets `amount` as the allowance of `spender` over the caller's tokens. Returns a boolean value indicating whether the operation succeeded. IMPORTANT: Beware that changing an allowance with this method brings the risk that someone may use both the old and the new allowance by unfortunate transaction ordering. One possible solution to mitigate this race condition is to first reduce the spender's allowance to 0 and set the desired value afterwards: https://github.com/ethereum/EIPs/issues/20#issuecomment-263524729 Emits an {Approval} event."
      },
      "balanceOf(address)": {
        "details": "_user the address of queried depositor*"
      },
      "borrow(uint256)": {
        "details": "_amount the amount to be borrowedIt is only meant to be used by a SmartLoanDiamondProxy*"
      },
      "getFullyVestedLockedBalance(address)": {
        "details": "The fully vested locked balance is used in the governance mechanism of the system, specifically for the allocation of vPrime tokens. The method calculates the fully vested locked balance by iterating over all the locks of the account and summing up the amounts of those locks that are still active (i.e., their `unlockTime` is greater than the current block timestamp). However, the amount of each lock is scaled by the ratio of its `lockTime` to the `MAX_LOCK_TIME` (3 years). This means that the longer the lock time, the larger the contribution of the lock to the fully vested locked balance. The fully vested locked balance is used to calculate the maximum vPrime allocation for a user. Users accrue vPrime over a period of 3 years, from 0 to the maximum vPrime based on their 10-1 pairs of pool-deposit and sPrime. Locking pool deposits and sPrime immediately vests the vPrime.",
        "params": {
          "account": "The address of the account for which to calculate the fully vested locked balance."
        },
        "returns": {
          "fullyVestedBalance": "The fully vested locked balance of the provided account."
        }
      },
      "owner()": {
        "details": "Returns the address of the current owner."
      },
      "renounceOwnership()": {
        "details": "Leaves the contract without owner. It will not be possible to call `onlyOwner` functions. Can only be called by the current owner. NOTE: Renouncing ownership will leave the contract without an owner, thereby disabling any functionality that is only available to the owner."
      },
      "repay(uint256)": {
        "details": "It is only meant to be used by a SmartLoanDiamondProxy*"
      },
      "setBorrowersRegistry(address)": {
        "details": "borrowersRegistry the address of borrowers registry*"
      },
      "setPoolRewarder(address)": {
        "details": "_poolRewarder the address of PoolRewarder*"
      },
      "setRatesCalculator(address)": {
        "details": "ratesCalculator the address of rates calculator*"
      },
      "setTotalSupplyCap(uint256)": {
        "details": "_newTotalSupplyCap new deposit cap*"
      },
      "totalSupply()": {
        "details": "Returns the amount of tokens in existence."
      },
      "withdraw(uint256)": {
        "details": "_amount the amount to be withdrawn*"
      }
    },
    "title": "UsdcPool",
    "version": 1
  },
  "userdoc": {
    "kind": "user",
    "methods": {
      "balanceOf(address)": {
        "notice": "Returns the current deposited amount for the given user The value includes the interest rates earned at the current moment"
      },
      "borrow(uint256)": {
        "notice": "Borrows the specified amount It updates user borrowed balance, total borrowed amount and rates"
      },
      "deposit(uint256)": {
        "notice": "Deposits the amount It updates user deposited balance, total deposited and rates*"
      },
      "depositOnBehalf(uint256,address)": {
        "notice": "Deposits the amount on behalf of `_of` user. It updates `_of` user deposited balance, total deposited and rates*"
      },
      "getBorrowingRate()": {
        "notice": "Returns the current interest rate for borrowings*"
      },
      "getDepositRate()": {
        "notice": "Returns the current interest rate for deposits*"
      },
      "getFullPoolStatus()": {
        "notice": "Returns full pool status"
      },
      "getFullyVestedLockedBalance(address)": {
        "notice": "Calculates and returns the fully vested locked balance for a given account."
      },
      "recoverSurplus(uint256,address)": {
        "notice": "Recovers the surplus funds resultant from difference between deposit and borrowing rates*"
      },
      "repay(uint256)": {
        "notice": "Repays the amount It updates user borrowed balance, total borrowed amount and rates"
      },
      "setBorrowersRegistry(address)": {
        "notice": "Sets the new borrowers registry contract. The borrowers registry decides if an account can borrow funds. Only the owner of the Contract can execute this function."
      },
      "setPoolRewarder(address)": {
        "notice": "Sets the new Pool Rewarder. The IPoolRewarder that distributes additional token rewards to people having a stake in this pool proportionally to their stake and time of participance. Only the owner of the Contract can execute this function."
      },
      "setRatesCalculator(address)": {
        "notice": "Sets the new rate calculator. The calculator is an external contract that contains the logic for calculating deposit and borrowing rates. Only the owner of the Contract can execute this function."
      },
      "setTotalSupplyCap(uint256)": {
        "notice": "Sets new totalSupplyCap limiting how much in total can be deposited to the Pool. Only the owner of the Contract can execute this function."
      },
      "withdraw(uint256)": {
        "notice": "Withdraws selected amount from the user deposits"
      }
    },
    "version": 1
  },
  "storageLayout": {
    "storage": [
      {
        "astId": 3226,
        "contract": "contracts/deployment/avalanche/UsdcPool.sol:UsdcPool",
        "label": "_initialized",
        "offset": 0,
        "slot": "0",
        "type": "t_uint8"
      },
      {
        "astId": 3229,
        "contract": "contracts/deployment/avalanche/UsdcPool.sol:UsdcPool",
        "label": "_initializing",
        "offset": 1,
        "slot": "0",
        "type": "t_bool"
      },
      {
        "astId": 4623,
        "contract": "contracts/deployment/avalanche/UsdcPool.sol:UsdcPool",
        "label": "__gap",
        "offset": 0,
        "slot": "1",
        "type": "t_array(t_uint256)50_storage"
      },
      {
        "astId": 3098,
        "contract": "contracts/deployment/avalanche/UsdcPool.sol:UsdcPool",
        "label": "_owner",
        "offset": 0,
        "slot": "51",
        "type": "t_address"
      },
      {
        "astId": 3218,
        "contract": "contracts/deployment/avalanche/UsdcPool.sol:UsdcPool",
        "label": "__gap",
        "offset": 0,
        "slot": "52",
        "type": "t_array(t_uint256)49_storage"
      },
      {
        "astId": 3402,
        "contract": "contracts/deployment/avalanche/UsdcPool.sol:UsdcPool",
        "label": "_status",
        "offset": 0,
        "slot": "101",
        "type": "t_uint256"
      },
      {
        "astId": 3471,
        "contract": "contracts/deployment/avalanche/UsdcPool.sol:UsdcPool",
        "label": "__gap",
        "offset": 0,
        "slot": "102",
        "type": "t_array(t_uint256)49_storage"
      },
      {
        "astId": 17465,
        "contract": "contracts/deployment/avalanche/UsdcPool.sol:UsdcPool",
        "label": "totalSupplyCap",
        "offset": 0,
        "slot": "151",
        "type": "t_uint256"
      },
      {
        "astId": 17471,
        "contract": "contracts/deployment/avalanche/UsdcPool.sol:UsdcPool",
        "label": "_allowed",
        "offset": 0,
        "slot": "152",
        "type": "t_mapping(t_address,t_mapping(t_address,t_uint256))"
      },
      {
        "astId": 17475,
        "contract": "contracts/deployment/avalanche/UsdcPool.sol:UsdcPool",
        "label": "_deposited",
        "offset": 0,
        "slot": "153",
        "type": "t_mapping(t_address,t_uint256)"
      },
      {
        "astId": 17479,
        "contract": "contracts/deployment/avalanche/UsdcPool.sol:UsdcPool",
        "label": "borrowed",
        "offset": 0,
        "slot": "154",
        "type": "t_mapping(t_address,t_uint256)"
      },
      {
        "astId": 17482,
        "contract": "contracts/deployment/avalanche/UsdcPool.sol:UsdcPool",
        "label": "ratesCalculator",
        "offset": 0,
        "slot": "155",
        "type": "t_contract(IRatesCalculator)64711"
      },
      {
        "astId": 17485,
        "contract": "contracts/deployment/avalanche/UsdcPool.sol:UsdcPool",
        "label": "borrowersRegistry",
        "offset": 0,
        "slot": "156",
        "type": "t_contract(IBorrowersRegistry)64012"
      },
      {
        "astId": 17488,
        "contract": "contracts/deployment/avalanche/UsdcPool.sol:UsdcPool",
        "label": "poolRewarder",
        "offset": 0,
        "slot": "157",
        "type": "t_contract(IPoolRewarder)64571"
      },
      {
        "astId": 17491,
        "contract": "contracts/deployment/avalanche/UsdcPool.sol:UsdcPool",
        "label": "depositIndex",
        "offset": 0,
        "slot": "158",
        "type": "t_contract(IIndex)64235"
      },
      {
        "astId": 17494,
        "contract": "contracts/deployment/avalanche/UsdcPool.sol:UsdcPool",
        "label": "borrowIndex",
        "offset": 0,
        "slot": "159",
        "type": "t_contract(IIndex)64235"
      },
      {
        "astId": 17496,
        "contract": "contracts/deployment/avalanche/UsdcPool.sol:UsdcPool",
        "label": "tokenAddress",
        "offset": 0,
        "slot": "160",
        "type": "t_address_payable"
      },
      {
        "astId": 17499,
        "contract": "contracts/deployment/avalanche/UsdcPool.sol:UsdcPool",
        "label": "vestingDistributor",
        "offset": 0,
        "slot": "161",
        "type": "t_contract(VestingDistributor)25018"
      },
      {
        "astId": 17501,
        "contract": "contracts/deployment/avalanche/UsdcPool.sol:UsdcPool",
        "label": "_decimals",
        "offset": 20,
        "slot": "161",
        "type": "t_uint8"
      },
      {
        "astId": 17514,
        "contract": "contracts/deployment/avalanche/UsdcPool.sol:UsdcPool",
        "label": "locks",
        "offset": 0,
        "slot": "162",
        "type": "t_mapping(t_address,t_array(t_struct(LockDetails)17508_storage)dyn_storage)"
      },
      {
        "astId": 17522,
        "contract": "contracts/deployment/avalanche/UsdcPool.sol:UsdcPool",
        "label": "tokenManager",
        "offset": 0,
        "slot": "163",
        "type": "t_contract(ITokenManager)65065"
      }
    ],
    "types": {
      "t_address": {
        "encoding": "inplace",
        "label": "address",
        "numberOfBytes": "20"
      },
      "t_address_payable": {
        "encoding": "inplace",
        "label": "address payable",
        "numberOfBytes": "20"
      },
      "t_array(t_struct(LockDetails)17508_storage)dyn_storage": {
        "base": "t_struct(LockDetails)17508_storage",
        "encoding": "dynamic_array",
        "label": "struct Pool.LockDetails[]",
        "numberOfBytes": "32"
      },
      "t_array(t_uint256)49_storage": {
        "base": "t_uint256",
        "encoding": "inplace",
        "label": "uint256[49]",
        "numberOfBytes": "1568"
      },
      "t_array(t_uint256)50_storage": {
        "base": "t_uint256",
        "encoding": "inplace",
        "label": "uint256[50]",
        "numberOfBytes": "1600"
      },
      "t_bool": {
        "encoding": "inplace",
        "label": "bool",
        "numberOfBytes": "1"
      },
      "t_contract(IBorrowersRegistry)64012": {
        "encoding": "inplace",
        "label": "contract IBorrowersRegistry",
        "numberOfBytes": "20"
      },
      "t_contract(IIndex)64235": {
        "encoding": "inplace",
        "label": "contract IIndex",
        "numberOfBytes": "20"
      },
      "t_contract(IPoolRewarder)64571": {
        "encoding": "inplace",
        "label": "contract IPoolRewarder",
        "numberOfBytes": "20"
      },
      "t_contract(IRatesCalculator)64711": {
        "encoding": "inplace",
        "label": "contract IRatesCalculator",
        "numberOfBytes": "20"
      },
      "t_contract(ITokenManager)65065": {
        "encoding": "inplace",
        "label": "contract ITokenManager",
        "numberOfBytes": "20"
      },
      "t_contract(VestingDistributor)25018": {
        "encoding": "inplace",
        "label": "contract VestingDistributor",
        "numberOfBytes": "20"
      },
      "t_mapping(t_address,t_array(t_struct(LockDetails)17508_storage)dyn_storage)": {
        "encoding": "mapping",
        "key": "t_address",
        "label": "mapping(address => struct Pool.LockDetails[])",
        "numberOfBytes": "32",
        "value": "t_array(t_struct(LockDetails)17508_storage)dyn_storage"
      },
      "t_mapping(t_address,t_mapping(t_address,t_uint256))": {
        "encoding": "mapping",
        "key": "t_address",
        "label": "mapping(address => mapping(address => uint256))",
        "numberOfBytes": "32",
        "value": "t_mapping(t_address,t_uint256)"
      },
      "t_mapping(t_address,t_uint256)": {
        "encoding": "mapping",
        "key": "t_address",
        "label": "mapping(address => uint256)",
        "numberOfBytes": "32",
        "value": "t_uint256"
      },
      "t_struct(LockDetails)17508_storage": {
        "encoding": "inplace",
        "label": "struct Pool.LockDetails",
        "members": [
          {
            "astId": 17503,
            "contract": "contracts/deployment/avalanche/UsdcPool.sol:UsdcPool",
            "label": "lockTime",
            "offset": 0,
            "slot": "0",
            "type": "t_uint256"
          },
          {
            "astId": 17505,
            "contract": "contracts/deployment/avalanche/UsdcPool.sol:UsdcPool",
            "label": "amount",
            "offset": 0,
            "slot": "1",
            "type": "t_uint256"
          },
          {
            "astId": 17507,
            "contract": "contracts/deployment/avalanche/UsdcPool.sol:UsdcPool",
            "label": "unlockTime",
            "offset": 0,
            "slot": "2",
            "type": "t_uint256"
          }
        ],
        "numberOfBytes": "96"
      },
      "t_uint256": {
        "encoding": "inplace",
        "label": "uint256",
        "numberOfBytes": "32"
      },
      "t_uint8": {
        "encoding": "inplace",
        "label": "uint8",
        "numberOfBytes": "1"
      }
    }
  }
}