{
  "address": "0xd2a2bca5cB0d640df54B423CB3eFf0a4d3C0aBd7",
  "abi": [
    {
      "inputs": [],
      "name": "BorrowersRegistryNotConfigured",
      "type": "error"
    },
    {
      "inputs": [],
      "name": "BurnAmountExceedsAvailableForUser",
      "type": "error"
    },
    {
      "inputs": [],
      "name": "BurnAmountExceedsBalance",
      "type": "error"
    },
    {
      "inputs": [],
      "name": "CalldataMustHaveValidPayload",
      "type": "error"
    },
    {
      "inputs": [],
      "name": "CalldataOverOrUnderFlow",
      "type": "error"
    },
    {
      "inputs": [],
      "name": "DataPackageTimestampMustNotBeZero",
      "type": "error"
    },
    {
      "inputs": [],
      "name": "DataPackageTimestampsMustBeEqual",
      "type": "error"
    },
    {
      "inputs": [],
      "name": "EachSignerMustProvideTheSameValue",
      "type": "error"
    },
    {
      "inputs": [],
      "name": "EmptyCalldataPointersArr",
      "type": "error"
    },
    {
      "inputs": [],
      "name": "IncorrectUnsignedMetadataSize",
      "type": "error"
    },
    {
      "inputs": [
        {
          "internalType": "uint256",
          "name": "requested",
          "type": "uint256"
        },
        {
          "internalType": "uint256",
          "name": "allowance",
          "type": "uint256"
        }
      ],
      "name": "InsufficientAllowance",
      "type": "error"
    },
    {
      "inputs": [
        {
          "internalType": "uint256",
          "name": "receivedSignersCount",
          "type": "uint256"
        },
        {
          "internalType": "uint256",
          "name": "requiredSignersCount",
          "type": "uint256"
        }
      ],
      "name": "InsufficientNumberOfUniqueSigners",
      "type": "error"
    },
    {
      "inputs": [],
      "name": "InsufficientPoolFunds",
      "type": "error"
    },
    {
      "inputs": [],
      "name": "InsufficientSurplus",
      "type": "error"
    },
    {
      "inputs": [],
      "name": "InvalidCalldataPointer",
      "type": "error"
    },
    {
      "inputs": [],
      "name": "MaxPoolUtilisationBreached",
      "type": "error"
    },
    {
      "inputs": [],
      "name": "MintToAddressZero",
      "type": "error"
    },
    {
      "inputs": [
        {
          "internalType": "address",
          "name": "target",
          "type": "address"
        }
      ],
      "name": "NotAContract",
      "type": "error"
    },
    {
      "inputs": [],
      "name": "NotAuthorizedToBorrow",
      "type": "error"
    },
    {
      "inputs": [],
      "name": "PoolFrozen",
      "type": "error"
    },
    {
      "inputs": [
        {
          "internalType": "bytes",
          "name": "result",
          "type": "bytes"
        }
      ],
      "name": "ProxyCalldataFailedWithCustomError",
      "type": "error"
    },
    {
      "inputs": [
        {
          "internalType": "string",
          "name": "message",
          "type": "string"
        }
      ],
      "name": "ProxyCalldataFailedWithStringMessage",
      "type": "error"
    },
    {
      "inputs": [],
      "name": "ProxyCalldataFailedWithoutErrMsg",
      "type": "error"
    },
    {
      "inputs": [],
      "name": "RedstonePayloadMustHaveAtLeastOneDataPackage",
      "type": "error"
    },
    {
      "inputs": [],
      "name": "RepayingMoreThanWasBorrowed",
      "type": "error"
    },
    {
      "inputs": [
        {
          "internalType": "address",
          "name": "receivedSigner",
          "type": "address"
        }
      ],
      "name": "SignerNotAuthorised",
      "type": "error"
    },
    {
      "inputs": [],
      "name": "SpenderZeroAddress",
      "type": "error"
    },
    {
      "inputs": [],
      "name": "TotalSupplyCapBreached",
      "type": "error"
    },
    {
      "inputs": [
        {
          "internalType": "uint256",
          "name": "amount",
          "type": "uint256"
        },
        {
          "internalType": "uint256",
          "name": "balance",
          "type": "uint256"
        }
      ],
      "name": "TransferAmountExceedsBalance",
      "type": "error"
    },
    {
      "inputs": [],
      "name": "TransferToPoolAddress",
      "type": "error"
    },
    {
      "inputs": [],
      "name": "TransferToZeroAddress",
      "type": "error"
    },
    {
      "inputs": [],
      "name": "ZeroDepositAmount",
      "type": "error"
    },
    {
      "anonymous": false,
      "inputs": [
        {
          "indexed": true,
          "internalType": "address",
          "name": "owner",
          "type": "address"
        },
        {
          "indexed": true,
          "internalType": "address",
          "name": "spender",
          "type": "address"
        },
        {
          "indexed": false,
          "internalType": "uint256",
          "name": "value",
          "type": "uint256"
        }
      ],
      "name": "Approval",
      "type": "event"
    },
    {
      "anonymous": false,
      "inputs": [
        {
          "indexed": true,
          "internalType": "address",
          "name": "registry",
          "type": "address"
        },
        {
          "indexed": false,
          "internalType": "uint256",
          "name": "timestamp",
          "type": "uint256"
        }
      ],
      "name": "BorrowersRegistryChanged",
      "type": "event"
    },
    {
      "anonymous": false,
      "inputs": [
        {
          "indexed": true,
          "internalType": "address",
          "name": "user",
          "type": "address"
        },
        {
          "indexed": false,
          "internalType": "uint256",
          "name": "value",
          "type": "uint256"
        },
        {
          "indexed": false,
          "internalType": "uint256",
          "name": "timestamp",
          "type": "uint256"
        }
      ],
      "name": "Borrowing",
      "type": "event"
    },
    {
      "anonymous": false,
      "inputs": [
        {
          "indexed": true,
          "internalType": "address",
          "name": "user",
          "type": "address"
        },
        {
          "indexed": false,
          "internalType": "uint256",
          "name": "value",
          "type": "uint256"
        },
        {
          "indexed": false,
          "internalType": "uint256",
          "name": "timestamp",
          "type": "uint256"
        }
      ],
      "name": "Deposit",
      "type": "event"
    },
    {
      "anonymous": false,
      "inputs": [
        {
          "indexed": true,
          "internalType": "address",
          "name": "user",
          "type": "address"
        },
        {
          "indexed": false,
          "internalType": "uint256",
          "name": "amount",
          "type": "uint256"
        },
        {
          "indexed": false,
          "internalType": "uint256",
          "name": "lockTime",
          "type": "uint256"
        },
        {
          "indexed": false,
          "internalType": "uint256",
          "name": "unlockTime",
          "type": "uint256"
        }
      ],
      "name": "DepositLocked",
      "type": "event"
    },
    {
      "anonymous": false,
      "inputs": [
        {
          "indexed": true,
          "internalType": "address",
          "name": "user",
          "type": "address"
        },
        {
          "indexed": true,
          "internalType": "address",
          "name": "_of",
          "type": "address"
        },
        {
          "indexed": false,
          "internalType": "uint256",
          "name": "value",
          "type": "uint256"
        },
        {
          "indexed": false,
          "internalType": "uint256",
          "name": "timestamp",
          "type": "uint256"
        }
      ],
      "name": "DepositOnBehalfOf",
      "type": "event"
    },
    {
      "anonymous": false,
      "inputs": [
        {
          "indexed": false,
          "internalType": "uint8",
          "name": "version",
          "type": "uint8"
        }
      ],
      "name": "Initialized",
      "type": "event"
    },
    {
      "anonymous": false,
      "inputs": [
        {
          "indexed": true,
          "internalType": "address",
          "name": "user",
          "type": "address"
        },
        {
          "indexed": false,
          "internalType": "uint256",
          "name": "value",
          "type": "uint256"
        },
        {
          "indexed": false,
          "internalType": "uint256",
          "name": "timestamp",
          "type": "uint256"
        }
      ],
      "name": "InterestCollected",
      "type": "event"
    },
    {
      "anonymous": false,
      "inputs": [
        {
          "indexed": true,
          "internalType": "address",
          "name": "from",
          "type": "address"
        },
        {
          "indexed": true,
          "internalType": "address",
          "name": "to",
          "type": "address"
        }
      ],
      "name": "OwnershipTransferRequested",
      "type": "event"
    },
    {
      "anonymous": false,
      "inputs": [
        {
          "indexed": true,
          "internalType": "address",
          "name": "previousOwner",
          "type": "address"
        },
        {
          "indexed": true,
          "internalType": "address",
          "name": "newOwner",
          "type": "address"
        }
      ],
      "name": "OwnershipTransferred",
      "type": "event"
    },
    {
      "anonymous": false,
      "inputs": [
        {
          "indexed": true,
          "internalType": "address",
          "name": "poolRewarder",
          "type": "address"
        },
        {
          "indexed": false,
          "internalType": "uint256",
          "name": "timestamp",
          "type": "uint256"
        }
      ],
      "name": "PoolRewarderChanged",
      "type": "event"
    },
    {
      "anonymous": false,
      "inputs": [
        {
          "indexed": true,
          "internalType": "address",
          "name": "calculator",
          "type": "address"
        },
        {
          "indexed": false,
          "internalType": "uint256",
          "name": "timestamp",
          "type": "uint256"
        }
      ],
      "name": "RatesCalculatorChanged",
      "type": "event"
    },
    {
      "anonymous": false,
      "inputs": [
        {
          "indexed": true,
          "internalType": "address",
          "name": "user",
          "type": "address"
        },
        {
          "indexed": false,
          "internalType": "uint256",
          "name": "value",
          "type": "uint256"
        },
        {
          "indexed": false,
          "internalType": "uint256",
          "name": "timestamp",
          "type": "uint256"
        }
      ],
      "name": "Repayment",
      "type": "event"
    },
    {
      "anonymous": false,
      "inputs": [
        {
          "indexed": true,
          "internalType": "address",
          "name": "from",
          "type": "address"
        },
        {
          "indexed": true,
          "internalType": "address",
          "name": "to",
          "type": "address"
        },
        {
          "indexed": false,
          "internalType": "uint256",
          "name": "value",
          "type": "uint256"
        }
      ],
      "name": "Transfer",
      "type": "event"
    },
    {
      "anonymous": false,
      "inputs": [
        {
          "indexed": true,
          "internalType": "address",
          "name": "user",
          "type": "address"
        },
        {
          "indexed": false,
          "internalType": "uint256",
          "name": "value",
          "type": "uint256"
        },
        {
          "indexed": false,
          "internalType": "uint256",
          "name": "timestamp",
          "type": "uint256"
        }
      ],
      "name": "Withdrawal",
      "type": "event"
    },
    {
      "inputs": [],
      "name": "MAX_LOCK_TIME",
      "outputs": [
        {
          "internalType": "uint256",
          "name": "",
          "type": "uint256"
        }
      ],
      "stateMutability": "view",
      "type": "function"
    },
    {
      "inputs": [],
      "name": "acceptOwnership",
      "outputs": [],
      "stateMutability": "nonpayable",
      "type": "function"
    },
    {
      "inputs": [
        {
          "internalType": "address",
          "name": "owner",
          "type": "address"
        },
        {
          "internalType": "address",
          "name": "spender",
          "type": "address"
        }
      ],
      "name": "allowance",
      "outputs": [
        {
          "internalType": "uint256",
          "name": "",
          "type": "uint256"
        }
      ],
      "stateMutability": "view",
      "type": "function"
    },
    {
      "inputs": [
        {
          "internalType": "address",
          "name": "spender",
          "type": "address"
        },
        {
          "internalType": "uint256",
          "name": "amount",
          "type": "uint256"
        }
      ],
      "name": "approve",
      "outputs": [
        {
          "internalType": "bool",
          "name": "",
          "type": "bool"
        }
      ],
      "stateMutability": "nonpayable",
      "type": "function"
    },
    {
      "inputs": [
        {
          "internalType": "address",
          "name": "user",
          "type": "address"
        }
      ],
      "name": "balanceOf",
      "outputs": [
        {
          "internalType": "uint256",
          "name": "",
          "type": "uint256"
        }
      ],
      "stateMutability": "view",
      "type": "function"
    },
    {
      "inputs": [
        {
          "internalType": "uint256",
          "name": "_amount",
          "type": "uint256"
        }
      ],
      "name": "borrow",
      "outputs": [],
      "stateMutability": "nonpayable",
      "type": "function"
    },
    {
      "inputs": [],
      "name": "borrowIndex",
      "outputs": [
        {
          "internalType": "contract IIndex",
          "name": "",
          "type": "address"
        }
      ],
      "stateMutability": "view",
      "type": "function"
    },
    {
      "inputs": [
        {
          "internalType": "address",
          "name": "",
          "type": "address"
        }
      ],
      "name": "borrowed",
      "outputs": [
        {
          "internalType": "uint256",
          "name": "",
          "type": "uint256"
        }
      ],
      "stateMutability": "view",
      "type": "function"
    },
    {
      "inputs": [],
      "name": "borrowersRegistry",
      "outputs": [
        {
          "internalType": "contract IBorrowersRegistry",
          "name": "",
          "type": "address"
        }
      ],
      "stateMutability": "view",
      "type": "function"
    },
    {
      "inputs": [],
      "name": "checkRewards",
      "outputs": [
        {
          "internalType": "uint256",
          "name": "",
          "type": "uint256"
        }
      ],
      "stateMutability": "view",
      "type": "function"
    },
    {
      "inputs": [],
      "name": "containsOracleCalldata",
      "outputs": [
        {
          "internalType": "bool",
          "name": "",
          "type": "bool"
        }
      ],
      "stateMutability": "view",
      "type": "function"
    },
    {
      "inputs": [],
      "name": "decimals",
      "outputs": [
        {
          "internalType": "uint8",
          "name": "decimals",
          "type": "uint8"
        }
      ],
      "stateMutability": "pure",
      "type": "function"
    },
    {
      "inputs": [
        {
          "internalType": "address",
          "name": "spender",
          "type": "address"
        },
        {
          "internalType": "uint256",
          "name": "subtractedValue",
          "type": "uint256"
        }
      ],
      "name": "decreaseAllowance",
      "outputs": [
        {
          "internalType": "bool",
          "name": "",
          "type": "bool"
        }
      ],
      "stateMutability": "nonpayable",
      "type": "function"
    },
    {
      "inputs": [
        {
          "internalType": "uint256",
          "name": "_amount",
          "type": "uint256"
        }
      ],
      "name": "deposit",
      "outputs": [],
      "stateMutability": "nonpayable",
      "type": "function"
    },
    {
      "inputs": [],
      "name": "depositIndex",
      "outputs": [
        {
          "internalType": "contract IIndex",
          "name": "",
          "type": "address"
        }
      ],
      "stateMutability": "view",
      "type": "function"
    },
    {
      "inputs": [
        {
          "internalType": "uint256",
          "name": "_amount",
          "type": "uint256"
        },
        {
          "internalType": "address",
          "name": "_of",
          "type": "address"
        }
      ],
      "name": "depositOnBehalf",
      "outputs": [],
      "stateMutability": "nonpayable",
      "type": "function"
    },
    {
      "inputs": [],
      "name": "extractTimestampsAndAssertAllAreEqual",
      "outputs": [
        {
          "internalType": "uint256",
          "name": "extractedTimestamp",
          "type": "uint256"
        }
      ],
      "stateMutability": "pure",
      "type": "function"
    },
    {
      "inputs": [
        {
          "internalType": "address",
          "name": "_user",
          "type": "address"
        }
      ],
      "name": "getBorrowed",
      "outputs": [
        {
          "internalType": "uint256",
          "name": "",
          "type": "uint256"
        }
      ],
      "stateMutability": "view",
      "type": "function"
    },
    {
      "inputs": [],
      "name": "getBorrowingRate",
      "outputs": [
        {
          "internalType": "uint256",
          "name": "",
          "type": "uint256"
        }
      ],
      "stateMutability": "view",
      "type": "function"
    },
    {
      "inputs": [],
      "name": "getDepositRate",
      "outputs": [
        {
          "internalType": "uint256",
          "name": "",
          "type": "uint256"
        }
      ],
      "stateMutability": "view",
      "type": "function"
    },
    {
      "inputs": [],
      "name": "getFullPoolStatus",
      "outputs": [
        {
          "internalType": "uint256[5]",
          "name": "",
          "type": "uint256[5]"
        }
      ],
      "stateMutability": "view",
      "type": "function"
    },
    {
      "inputs": [
        {
          "internalType": "address",
          "name": "account",
          "type": "address"
        }
      ],
      "name": "getFullyVestedLockedBalance",
      "outputs": [
        {
          "internalType": "uint256",
          "name": "fullyVestedBalance",
          "type": "uint256"
        }
      ],
      "stateMutability": "view",
      "type": "function"
    },
    {
      "inputs": [
        {
          "internalType": "address",
          "name": "account",
          "type": "address"
        }
      ],
      "name": "getLockedBalance",
      "outputs": [
        {
          "internalType": "uint256",
          "name": "",
          "type": "uint256"
        }
      ],
      "stateMutability": "view",
      "type": "function"
    },
    {
      "inputs": [],
      "name": "getMaxPoolUtilisationForBorrowing",
      "outputs": [
        {
          "internalType": "uint256",
          "name": "",
          "type": "uint256"
        }
      ],
      "stateMutability": "view",
      "type": "function"
    },
    {
      "inputs": [
        {
          "internalType": "address",
          "name": "account",
          "type": "address"
        }
      ],
      "name": "getNotLockedBalance",
      "outputs": [
        {
          "internalType": "uint256",
          "name": "notLockedBalance",
          "type": "uint256"
        }
      ],
      "stateMutability": "view",
      "type": "function"
    },
    {
      "inputs": [],
      "name": "getRewards",
      "outputs": [],
      "stateMutability": "nonpayable",
      "type": "function"
    },
    {
      "inputs": [],
      "name": "getVPrimeControllerAddress",
      "outputs": [
        {
          "internalType": "address",
          "name": "",
          "type": "address"
        }
      ],
      "stateMutability": "view",
      "type": "function"
    },
    {
      "inputs": [
        {
          "internalType": "address",
          "name": "spender",
          "type": "address"
        },
        {
          "internalType": "uint256",
          "name": "addedValue",
          "type": "uint256"
        }
      ],
      "name": "increaseAllowance",
      "outputs": [
        {
          "internalType": "bool",
          "name": "",
          "type": "bool"
        }
      ],
      "stateMutability": "nonpayable",
      "type": "function"
    },
    {
      "inputs": [
        {
          "internalType": "contract IRatesCalculator",
          "name": "ratesCalculator_",
          "type": "address"
        },
        {
          "internalType": "contract IBorrowersRegistry",
          "name": "borrowersRegistry_",
          "type": "address"
        },
        {
          "internalType": "contract IIndex",
          "name": "depositIndex_",
          "type": "address"
        },
        {
          "internalType": "contract IIndex",
          "name": "borrowIndex_",
          "type": "address"
        },
        {
          "internalType": "address payable",
          "name": "tokenAddress_",
          "type": "address"
        },
        {
          "internalType": "contract IPoolRewarder",
          "name": "poolRewarder_",
          "type": "address"
        },
        {
          "internalType": "uint256",
          "name": "_totalSupplyCap",
          "type": "uint256"
        }
      ],
      "name": "initialize",
      "outputs": [],
      "stateMutability": "nonpayable",
      "type": "function"
    },
    {
      "inputs": [
        {
          "internalType": "address",
          "name": "account",
          "type": "address"
        },
        {
          "internalType": "uint256",
          "name": "amount",
          "type": "uint256"
        }
      ],
      "name": "isWithdrawalAmountAvailable",
      "outputs": [
        {
          "internalType": "bool",
          "name": "",
          "type": "bool"
        }
      ],
      "stateMutability": "view",
      "type": "function"
    },
    {
      "inputs": [
        {
          "internalType": "uint256",
          "name": "amount",
          "type": "uint256"
        },
        {
          "internalType": "uint256",
          "name": "lockTime",
          "type": "uint256"
        }
      ],
      "name": "lockDeposit",
      "outputs": [],
      "stateMutability": "nonpayable",
      "type": "function"
    },
    {
      "inputs": [
        {
          "internalType": "address",
          "name": "",
          "type": "address"
        },
        {
          "internalType": "uint256",
          "name": "",
          "type": "uint256"
        }
      ],
      "name": "locks",
      "outputs": [
        {
          "internalType": "uint256",
          "name": "lockTime",
          "type": "uint256"
        },
        {
          "internalType": "uint256",
          "name": "amount",
          "type": "uint256"
        },
        {
          "internalType": "uint256",
          "name": "unlockTime",
          "type": "uint256"
        }
      ],
      "stateMutability": "view",
      "type": "function"
    },
    {
      "inputs": [],
      "name": "name",
      "outputs": [
        {
          "internalType": "string",
          "name": "_name",
          "type": "string"
        }
      ],
      "stateMutability": "pure",
      "type": "function"
    },
    {
      "inputs": [],
      "name": "owner",
      "outputs": [
        {
          "internalType": "address",
          "name": "",
          "type": "address"
        }
      ],
      "stateMutability": "view",
      "type": "function"
    },
    {
      "inputs": [],
      "name": "pendingOwner",
      "outputs": [
        {
          "internalType": "address",
          "name": "",
          "type": "address"
        }
      ],
      "stateMutability": "view",
      "type": "function"
    },
    {
      "inputs": [],
      "name": "poolRewarder",
      "outputs": [
        {
          "internalType": "contract IPoolRewarder",
          "name": "",
          "type": "address"
        }
      ],
      "stateMutability": "view",
      "type": "function"
    },
    {
      "inputs": [],
      "name": "ratesCalculator",
      "outputs": [
        {
          "internalType": "contract IRatesCalculator",
          "name": "",
          "type": "address"
        }
      ],
      "stateMutability": "view",
      "type": "function"
    },
    {
      "inputs": [
        {
          "internalType": "uint256",
          "name": "amount",
          "type": "uint256"
        },
        {
          "internalType": "address",
          "name": "account",
          "type": "address"
        }
      ],
      "name": "recoverSurplus",
      "outputs": [],
      "stateMutability": "nonpayable",
      "type": "function"
    },
    {
      "inputs": [],
      "name": "renounceOwnership",
      "outputs": [],
      "stateMutability": "nonpayable",
      "type": "function"
    },
    {
      "inputs": [
        {
          "internalType": "uint256",
          "name": "amount",
          "type": "uint256"
        }
      ],
      "name": "repay",
      "outputs": [],
      "stateMutability": "nonpayable",
      "type": "function"
    },
    {
      "inputs": [
        {
          "internalType": "contract IBorrowersRegistry",
          "name": "borrowersRegistry_",
          "type": "address"
        }
      ],
      "name": "setBorrowersRegistry",
      "outputs": [],
      "stateMutability": "nonpayable",
      "type": "function"
    },
    {
      "inputs": [
        {
          "internalType": "contract IPoolRewarder",
          "name": "_poolRewarder",
          "type": "address"
        }
      ],
      "name": "setPoolRewarder",
      "outputs": [],
      "stateMutability": "nonpayable",
      "type": "function"
    },
    {
      "inputs": [
        {
          "internalType": "contract IRatesCalculator",
          "name": "ratesCalculator_",
          "type": "address"
        }
      ],
      "name": "setRatesCalculator",
      "outputs": [],
      "stateMutability": "nonpayable",
      "type": "function"
    },
    {
      "inputs": [
        {
          "internalType": "contract ITokenManager",
          "name": "_tokenManager",
          "type": "address"
        }
      ],
      "name": "setTokenManager",
      "outputs": [],
      "stateMutability": "nonpayable",
      "type": "function"
    },
    {
      "inputs": [
        {
          "internalType": "uint256",
          "name": "_newTotalSupplyCap",
          "type": "uint256"
        }
      ],
      "name": "setTotalSupplyCap",
      "outputs": [],
      "stateMutability": "nonpayable",
      "type": "function"
    },
    {
      "inputs": [],
      "name": "symbol",
      "outputs": [
        {
          "internalType": "string",
          "name": "_symbol",
          "type": "string"
        }
      ],
      "stateMutability": "pure",
      "type": "function"
    },
    {
      "inputs": [],
      "name": "tokenAddress",
      "outputs": [
        {
          "internalType": "address payable",
          "name": "",
          "type": "address"
        }
      ],
      "stateMutability": "view",
      "type": "function"
    },
    {
      "inputs": [],
      "name": "tokenManager",
      "outputs": [
        {
          "internalType": "contract ITokenManager",
          "name": "",
          "type": "address"
        }
      ],
      "stateMutability": "view",
      "type": "function"
    },
    {
      "inputs": [],
      "name": "totalBorrowed",
      "outputs": [
        {
          "internalType": "uint256",
          "name": "",
          "type": "uint256"
        }
      ],
      "stateMutability": "view",
      "type": "function"
    },
    {
      "inputs": [],
      "name": "totalSupply",
      "outputs": [
        {
          "internalType": "uint256",
          "name": "",
          "type": "uint256"
        }
      ],
      "stateMutability": "view",
      "type": "function"
    },
    {
      "inputs": [],
      "name": "totalSupplyCap",
      "outputs": [
        {
          "internalType": "uint256",
          "name": "",
          "type": "uint256"
        }
      ],
      "stateMutability": "view",
      "type": "function"
    },
    {
      "inputs": [
        {
          "internalType": "address",
          "name": "recipient",
          "type": "address"
        },
        {
          "internalType": "uint256",
          "name": "amount",
          "type": "uint256"
        }
      ],
      "name": "transfer",
      "outputs": [
        {
          "internalType": "bool",
          "name": "",
          "type": "bool"
        }
      ],
      "stateMutability": "nonpayable",
      "type": "function"
    },
    {
      "inputs": [
        {
          "internalType": "address",
          "name": "sender",
          "type": "address"
        },
        {
          "internalType": "address",
          "name": "recipient",
          "type": "address"
        },
        {
          "internalType": "uint256",
          "name": "amount",
          "type": "uint256"
        }
      ],
      "name": "transferFrom",
      "outputs": [
        {
          "internalType": "bool",
          "name": "",
          "type": "bool"
        }
      ],
      "stateMutability": "nonpayable",
      "type": "function"
    },
    {
      "inputs": [
        {
          "internalType": "address",
          "name": "newOwner",
          "type": "address"
        }
      ],
      "name": "transferOwnership",
      "outputs": [],
      "stateMutability": "nonpayable",
      "type": "function"
    },
    {
      "inputs": [],
      "name": "vestingDistributor",
      "outputs": [
        {
          "internalType": "contract VestingDistributor",
          "name": "",
          "type": "address"
        }
      ],
      "stateMutability": "view",
      "type": "function"
    },
    {
      "inputs": [
        {
          "internalType": "uint256",
          "name": "_amount",
          "type": "uint256"
        }
      ],
      "name": "withdraw",
      "outputs": [],
      "stateMutability": "nonpayable",
      "type": "function"
    }
  ],
  "transactionHash": "0xb46ce31d8a878d63d091e7844ac4f57ccf5ffd449221a7a97a313835bb752525",
  "args": [],
  "numDeployments": 3,
  "solcInputHash": "6ddf2579dbcf78cdea4d6eda8558f00a",
  "bytecode": "0x608060405234801561001057600080fd5b5061396c806100206000396000f3fe608060405234801561001057600080fd5b50600436106102885760003560e01c80630572b0cc1461028d57806306fdde03146102975780630790ef9a146102da57806307bbebdd146102ed5780630941cb3d1461030d578063095ea7b31461033b5780630d1870df1461035e5780631457db34146103665780631460e3901461037957806318160ddd1461038c57806323b872dd146103945780632a709b14146103a75780632aeaa291146103ba5780632e1a7d4d146103c2578063313ce567146103d557806331d05b11146103e4578063371fd8e6146103f7578063395093511461040a57806341da9b541461041d5780634c19386c1461043057806355a547d5146104385780636011163e1461044057806361215aa8146104535780636ca6d5d0146104615780636cf55ea21461047457806370a082311461048757806370d4cea01461049a578063715018a614610295578063726cd415146104ad57806379ba5097146104b55780637b898939146104bd5780637cb2b79c146104d05780637f75ad0f146104e35780638da5cb5b146104f657806395d89b41146104fe5780639d76ea5814610520578063a457c2d714610533578063a9059cbb14610546578063aa5af0fd14610559578063b425f8021461056c578063b6b55f251461059a578063b75c42bd146105ad578063b790634e146105c2578063bb102aea146105ca578063c4086893146105d3578063c4ce6358146105e6578063c5ebeaec146105f9578063d06dca891461060c578063dd62ed3e1461061f578063e2b9442e14610658578063e30c39781461066b578063ee61bd6e14610673578063f2fde38b14610686578063f36b242514610699578063fa78668f146106a1578063fc68f661146106ac575b600080fd5b6102956106bf565b005b6040805180820190915260158152742232b63a30a83934b6b2aa32ba3432b92a37b5b2b760591b60208201525b6040516102d191906134e3565b60405180910390f35b6102956102e836600461350b565b610723565b60a154610300906001600160a01b031681565b6040516102d1919061353b565b61032d61031b36600461354f565b609a6020526000908152604090205481565b6040519081526020016102d1565b61034e61034936600461356c565b61082b565b60405190151581526020016102d1565b61034e6108a7565b61029561037436600461354f565b6108bb565b610295610387366004613598565b61096a565b61032d610c16565b61034e6103a2366004613625565b610c26565b60a354610300906001600160a01b031681565b61032d610f3e565b6102956103d0366004613666565b610fae565b604051600681526020016102d1565b6102956103f2366004613666565b6111e9565b610295610405366004613666565b6111f6565b61034e61041836600461356c565b6112df565b61034e61042b36600461356c565b61138c565b61032d6113a1565b61032d6113ac565b61032d61044e36600461354f565b6114c4565b670cd64299613c800061032d565b609d54610300906001600160a01b031681565b61029561048236600461350b565b61154b565b61032d61049536600461354f565b611808565b6102956104a836600461354f565b61184e565b6103006118fc565b61029561198d565b609e54610300906001600160a01b031681565b6102956104de36600461354f565b611a1c565b61032d6104f136600461354f565b611a46565b610300611a8b565b60408051808201909152600681526511141554d11d60d21b60208201526102c4565b60a054610300906001600160a01b031681565b61034e61054136600461356c565b611a9a565b61034e61055436600461356c565b611b6e565b609f54610300906001600160a01b031681565b61057f61057a36600461356c565b611dd0565b604080519384526020840192909252908201526060016102d1565b6102956105a8366004613666565b611e12565b6105b5611e1c565b6040516102d1919061367f565b61032d611e73565b61032d60975481565b61032d6105e136600461354f565b611eb4565b61032d6105f436600461354f565b611f81565b610295610607366004613666565b6120a1565b609c54610300906001600160a01b031681565b61032d61062d3660046136b0565b6001600160a01b03918216600090815260986020908152604080832093909416825291909152205490565b6102956106663660046136de565b61231e565b61030061248f565b609b54610300906001600160a01b031681565b61029561069436600461354f565b612499565b61032d612560565b61032d6305a39a8081565b6102956106ba36600461354f565b61257c565b609d546040516311305c1f60e11b81526001600160a01b0390911690632260b83e906106ef90339060040161353b565b600060405180830381600087803b15801561070957600080fd5b505af115801561071d573d6000803e3d6000fd5b50505050565b61072b6125fa565b610733612659565b60a0546040516370a0823160e01b81526000916001600160a01b0316906370a082319061076490309060040161353b565b602060405180830381865afa158015610781573d6000803e3d6000fd5b505050506040513d601f19601f820116820180604052508101906107a59190613700565b905060006107b1610c16565b6107b96113a1565b6107c3908461372f565b6107cd9190613742565b9050818411156107f0576040516316d5c93f60e21b815260040160405180910390fd5b83811015610811576040516394290ab960e01b815260040160405180910390fd5b61081b83856126b2565b50506108276001606555565b5050565b60006001600160a01b03831661085457604051633d6601c760e11b815260040160405180910390fd5b3360008181526098602090815260408083206001600160a01b0388168085529083529281902086905551858152919291600080516020613917833981519152910160405180910390a35060015b92915050565b6602ed57011e0000601f1936013581161490565b6108c36125fa565b6108cc816126d0565b1580156108e157506001600160a01b03811615155b1561091557609d546040516322a2d07b60e21b815261090c916001600160a01b03169060040161353b565b60405180910390fd5b609d80546001600160a01b0319166001600160a01b0383169081179091556040514281527f85796821ee1d670b0fdb986f256b5c1a29b9019038831c7f09df2061879cf9e5906020015b60405180910390a250565b600054610100900460ff161580801561098a5750600054600160ff909116105b806109ab5750610999306126d0565b1580156109ab575060005460ff166001145b610a0e5760405162461bcd60e51b815260206004820152602e60248201527f496e697469616c697a61626c653a20636f6e747261637420697320616c72656160448201526d191e481a5b9a5d1a585b1a5e995960921b606482015260840161090c565b6000805460ff191660011790558015610a31576000805461ff0019166101001790555b610a3a886126d0565b8015610a4a5750610a4a876126d0565b8015610a5a5750610a5a866126d0565b8015610a6a5750610a6a856126d0565b8015610a8c5750610a7a836126d0565b80610a8c57506001600160a01b038316155b610acf5760405162461bcd60e51b815260206004820152601460248201527357726f6e6720696e697420617267756d656e747360601b604482015260640161090c565b609c80546001600160a01b03199081166001600160a01b038a811691909117909255609b805482168b8416179055609e80548216898416179055609f80548216888416179055609d8054821686841617905560a08054909116918616918217905560978390556040805163313ce56760e01b8152905163313ce567916004818101926020929091908290030181865afa158015610b70573d6000803e3d6000fd5b505050506040513d601f19601f82011682018060405250810190610b949190613755565b60a160146101000a81548160ff021916908360ff160217905550610bb66126df565b610bbe61270e565b610bc661273d565b8015610c0c576000805461ff0019169055604051600181527f7f26b83ff96e1f2b6a682f133852f6798a09c465da95921460cefb38474024989060200160405180910390a15b5050505050505050565b6000610c2130611808565b905090565b6000610c30612659565b610c3a848361138c565b610c565760405162461bcd60e51b815260040161090c90613778565b6001600160a01b0384166000908152609860209081526040808320338452909152902054821115610cc1576001600160a01b03841660009081526098602090815260408083203384529091529081902054905163054365bb60e31b815261090c9184916004016137a3565b6001600160a01b038316610ce857604051633a954ecd60e21b815260040160405180910390fd5b306001600160a01b03841603610d115760405163ed728e5760e01b815260040160405180910390fd5b610d1a84612920565b6001600160a01b03841660009081526099602052604081208054849290610d42908490613742565b90915550506001600160a01b038416600090815260986020908152604080832033845290915281208054849290610d7a908490613742565b90915550610d89905083612920565b6001600160a01b03831660009081526099602052604081208054849290610db190849061372f565b9091555050609d546001600160a01b031615801590610dcf57508115155b8015610de15750610ddf84612a4b565b155b8015610df35750610df183612a4b565b155b15610edd57609d54604051630d5dbdb360e21b81526000916001600160a01b031690633576f6cc90610e2b90869089906004016137b1565b6020604051808303816000875af1158015610e4a573d6000803e3d6000fd5b505050506040513d601f19601f82011682018060405250810190610e6e9190613700565b90508015610edb57609d546040516328ba35d960e11b81526001600160a01b03909116906351746bb290610ea890849088906004016137b1565b600060405180830381600087803b158015610ec257600080fd5b505af1158015610ed6573d6000803e3d6000fd5b505050505b505b826001600160a01b0316846001600160a01b03166000805160206138f783398151915284604051610f1091815260200190565b60405180910390a3610f2184612af7565b610f2a83612af7565b506001610f376001606555565b9392505050565b609d546040516246613160e11b81526000916001600160a01b031690628cc26290610f6d90339060040161353b565b602060405180830381865afa158015610f8a573d6000803e3d6000fd5b505050506040513d601f19601f82011682018060405250810190610c219190613700565b610fb6612659565b610fc0338261138c565b610fdc5760405162461bcd60e51b815260040161090c90613778565b610fe533612920565b33600090815260996020526040902054611000908290612b96565b60a0546040516370a0823160e01b81529192506001600160a01b0316906370a082319061103190309060040161353b565b602060405180830381865afa15801561104e573d6000803e3d6000fd5b505050506040513d601f19601f820116820180604052508101906110729190613700565b811115611092576040516316d5c93f60e21b815260040160405180910390fd5b306000908152609960205260409020548111156110c257604051630bba337f60e11b815260040160405180910390fd5b306000908152609960205260409020805482900390556110e23382612bac565b6110ea61273d565b6110f433826126b2565b609d546001600160a01b031615801590611114575061111233612a4b565b155b1561119057609d54604051630d5dbdb360e21b81526001600160a01b0390911690633576f6cc9061114b90849033906004016137b1565b6020604051808303816000875af115801561116a573d6000803e3d6000fd5b505050506040513d601f19601f8201168201806040525081019061118e9190613700565b505b336001600160a01b03167fdf273cb619d95419a9cd0ec88123a0538c85064229baa6363788f743fff90deb82426040516111cb9291906137a3565b60405180910390a26111dc33612af7565b6111e66001606555565b50565b6111f16125fa565b609755565b6111fe612659565b61120733612c2c565b336000908152609a602052604090205481111561123757604051630dcad43360e11b815260040160405180910390fd5b6112413382612d32565b336000908152609a602052604081208054839290611260908490613742565b9091555050306000908152609a602052604081208054839290611284908490613742565b90915550611292905061273d565b336001600160a01b03167f24fcca58a997b1b2eff6db8107e860458544c09ddd3693b3b779e1df6c0d6c5d82426040516112cd9291906137a3565b60405180910390a26111e66001606555565b60006001600160a01b03831661130857604051633d6601c760e11b815260040160405180910390fd5b3360009081526098602090815260408083206001600160a01b038716845290915281205461133790849061372f565b3360008181526098602090815260408083206001600160a01b038a1680855290835292819020859055518481529394509092600080516020613917833981519152910160405180910390a35060019392505050565b600061139783611a46565b9091111592915050565b6000610c21306114c4565b6000806113b7612d4a565b905060006113c482612df1565b61ffff169050806000036113eb57604051632154bfcf60e21b815260040160405180910390fd5b6113f660028361372f565b915060005b818110156114be57600061140e84612e2b565b905060008061141e60688761372f565b9050600061142c8236613742565b9050803592508265ffffffffffff1660000361145b57604051630336dc9d60e41b815260040160405180910390fd5b87600003611473578265ffffffffffff16975061149b565b878365ffffffffffff161461149b5760405163d9d1f46560e01b815260040160405180910390fd5b6114a5848861372f565b96505050505080806114b6906137c8565b9150506113fb565b50505090565b609f546001600160a01b038281166000908152609a602052604080822054905163966da88960e01b81529193929092169163966da8899161150a919086906004016137b1565b602060405180830381865afa158015611527573d6000803e3d6000fd5b505050506040513d601f19601f820116820180604052508101906108a19190613700565b611553612659565b816000036115745760405163078e1d8560e01b815260040160405180910390fd5b6001600160a01b0381166115b95760405162461bcd60e51b815260206004820152600c60248201526b41646472657373207a65726f60a01b604482015260640161090c565b306001600160a01b038216036116115760405162461bcd60e51b815260206004820181905260248201527f43616e6e6f74206465706f736974206f6e20626568616c66206f6620706f6f6c604482015260640161090c565b60a0546040516370a0823160e01b815261168d9184916001600160a01b03909116906370a082319061164790339060040161353b565b602060405180830381865afa158015611664573d6000803e3d6000fd5b505050506040513d601f19601f820116820180604052508101906116889190613700565b612b96565b915061169881612920565b609754156116dd57609754306000908152609960205260409020546116be90849061372f565b11156116dd57604051633f27d61760e01b815260040160405180910390fd5b6116e73383612d32565b6116f18183612e5f565b306000908152609960205260408120805484929061171090849061372f565b9091555061171e905061273d565b609d546001600160a01b03161580159061173e575061173c81612a4b565b155b156117a857609d546040516328ba35d960e11b81526001600160a01b03909116906351746bb29061177590859085906004016137b1565b600060405180830381600087803b15801561178f57600080fd5b505af11580156117a3573d6000803e3d6000fd5b505050505b806001600160a01b0316336001600160a01b03167fef0ada5ca19bede6a40b575865a6ce451938d26835b7215e6a5e03bb2c43921284426040516117ed9291906137a3565b60405180910390a36117fe81612af7565b6108276001606555565b609e546001600160a01b0382811660009081526099602052604080822054905163966da88960e01b81529193929092169163966da8899161150a919086906004016137b1565b6118566125fa565b61185f816126d0565b15801561187457506001600160a01b03811615155b1561189457806040516322a2d07b60e21b815260040161090c919061353b565b609b80546001600160a01b0319166001600160a01b038316908117909155156118bf576118bf61273d565b806001600160a01b03167fef1b7e9216e08b283cc613824ccb26ea505227777839a4f3c6810d64594e01824260405161095f91815260200190565b565b60a3546000906001600160a01b0316156119875760a360009054906101000a90046001600160a01b03166001600160a01b031663726cd4156040518163ffffffff1660e01b8152600401602060405180830381865afa158015611963573d6000803e3d6000fd5b505050506040513d601f19601f82011682018060405250810190610c2191906137e1565b50600090565b6000611997612edf565b9050336001600160a01b03821614611a095760405162461bcd60e51b815260206004820152602f60248201527f50656e64696e674f776e61626c653a2063616c6c6572206973206e6f7420746860448201526e32903832b73234b7339037bbb732b960891b606482015260840161090c565b611a1281612ef2565b6111e66000612f44565b611a246125fa565b60a380546001600160a01b0319166001600160a01b0392909216919091179055565b600080611a5283611eb4565b90506000611a5f84611808565b905081811015611a725760009250611a84565b611a7c8282613742565b949350505050565b5050919050565b6033546001600160a01b031690565b60006001600160a01b038316611ac357604051633d6601c760e11b815260040160405180910390fd5b3360009081526098602090815260408083206001600160a01b038716845290915290205482811015611b0c57828160405163054365bb60e31b815260040161090c9291906137a3565b6000611b188483613742565b3360008181526098602090815260408083206001600160a01b038b1680855290835292819020859055518481529394509092600080516020613917833981519152910160405180910390a3506001949350505050565b6000611b78612659565b611b82338361138c565b611b9e5760405162461bcd60e51b815260040161090c90613778565b6001600160a01b038316611bc557604051633a954ecd60e21b815260040160405180910390fd5b306001600160a01b03841603611bee5760405163ed728e5760e01b815260040160405180910390fd5b33611bf881612920565b6001600160a01b038116600090815260996020526040902080548490039055611c2084612920565b6001600160a01b03841660009081526099602052604081208054859290611c4890849061372f565b9091555050609d546001600160a01b031615801590611c6657508215155b8015611c785750611c7681612a4b565b155b8015611c8a5750611c8884612a4b565b155b15611d7457609d54604051630d5dbdb360e21b81526000916001600160a01b031690633576f6cc90611cc290879086906004016137b1565b6020604051808303816000875af1158015611ce1573d6000803e3d6000fd5b505050506040513d601f19601f82011682018060405250810190611d059190613700565b90508015611d7257609d546040516328ba35d960e11b81526001600160a01b03909116906351746bb290611d3f90849089906004016137b1565b600060405180830381600087803b158015611d5957600080fd5b505af1158015611d6d573d6000803e3d6000fd5b505050505b505b836001600160a01b0316816001600160a01b03166000805160206138f783398151915285604051611da791815260200190565b60405180910390a3611db833612af7565b611dc184612af7565b60019150506108a16001606555565b60a26020528160005260406000208181548110611dec57600080fd5b600091825260209091206003909102018054600182015460029092015490935090915083565b6111e6813361154b565b611e24613475565b6040518060a00160405280611e37610c16565b8152602001611e44611e73565b8152602001611e51612560565b8152602001611e5e6113a1565b8152602001670cd64299613c80009052919050565b609b546000906001600160a01b0316637cd08331611e8f6113a1565b611e97610c16565b6040518363ffffffff1660e01b8152600401610f6d9291906137a3565b600080805b6001600160a01b038416600090815260a26020526040902054811015611f7a576001600160a01b038416600090815260a260205260409020805442919083908110611f0657611f066137fe565b9060005260206000209060030201600201541115611f68576001600160a01b038416600090815260a260205260409020805482908110611f4857611f486137fe565b90600052602060002090600302016001015482611f65919061372f565b91505b80611f72816137c8565b915050611eb9565b5092915050565b6000805b6001600160a01b038316600090815260a2602052604090205481101561209b576001600160a01b038316600090815260a260205260409020805442919083908110611fd257611fd26137fe565b9060005260206000209060030201600201541115612089576001600160a01b038316600090815260a26020526040902080546305a39a8091908390811061201b5761201b6137fe565b600091825260208083206003909202909101546001600160a01b038716835260a29091526040909120805484908110612056576120566137fe565b9060005260206000209060030201600101546120729190613814565b61207c919061382b565b612086908361372f565b91505b80612093816137c8565b915050611f85565b50919050565b609c546001600160a01b03166120ca57604051631c038dab60e21b815260040160405180910390fd5b609c5460405163039ff21960e21b81526001600160a01b0390911690630e7fc864906120fa90339060040161353b565b602060405180830381865afa158015612117573d6000803e3d6000fd5b505050506040513d601f19601f8201168201806040525081019061213b919061384d565b61215857604051637582fa9b60e11b815260040160405180910390fd5b612160610c16565b600003612180576040516316d5c93f60e21b815260040160405180910390fd5b612188612659565b60a0546040516370a0823160e01b81526001600160a01b03909116906370a08231906121b890309060040161353b565b602060405180830381865afa1580156121d5573d6000803e3d6000fd5b505050506040513d601f19601f820116820180604052508101906121f99190613700565b811115612219576040516316d5c93f60e21b815260040160405180910390fd5b61222233612c2c565b336000908152609a60205260408120805483929061224190849061372f565b9091555050306000908152609a60205260408120805483929061226590849061372f565b90915550612275905033826126b2565b61227d61273d565b336001600160a01b03167fd6b37be10b58108f696d9ed067fedad0bff7cb417ef4c28d2f8a25d6d83c98d582426040516122b89291906137a3565b60405180910390a26122ca6001606555565b670cd64299613c80006122db610c16565b6122e36113a1565b6122f590670de0b6b3a7640000613814565b6122ff919061382b565b11156111e6576040516372b9ce3f60e11b815260040160405180910390fd5b8161232833611a46565b10156123755760405162461bcd60e51b815260206004820152601c60248201527b496e73756666696369656e742062616c616e636520746f206c6f636b60201b604482015260640161090c565b6305a39a808111156123d35760405162461bcd60e51b815260206004820152602160248201527f43616e6e6f74206c6f636b20666f72206d6f7265207468616e203320796561726044820152607360f81b606482015260840161090c565b33600090815260a260209081526040918290208251606081018452848152918201859052918101612404844261372f565b905281546001818101845560009384526020938490208351600390930201918255928201519281019290925560400151600290910155337fada80de846c2fa6289ae8db8bd0145346851ca76d49946df18240ebbf97200a78383612468814261372f565b6040805193845260208401929092529082015260600160405180910390a261082733612af7565b6000610c21612edf565b6124a16125fa565b6001600160a01b03811661250d5760405162461bcd60e51b815260206004820152602d60248201527f50656e64696e674f776e61626c653a206e6577206f776e65722069732074686560448201526c207a65726f206164647265737360981b606482015260840161090c565b61251681612f44565b806001600160a01b0316612528611a8b565b6001600160a01b03167fed8889f560326eb138920d842192f0eb3dd22b4f139c87a2c57538e05bae127860405160405180910390a350565b609b546000906001600160a01b031663df841eec611e8f6113a1565b6125846125fa565b61258d816126d0565b6125ac57806040516322a2d07b60e21b815260040161090c919061353b565b609c80546001600160a01b0319166001600160a01b0383169081179091556040514281527f04dce7d074f7e287a2e6e3516c802271d58d5c14e0dede83a49719eb6b9204699060200161095f565b33612603611a8b565b6001600160a01b0316146118fa5760405162461bcd60e51b815260206004820181905260248201527f4f776e61626c653a2063616c6c6572206973206e6f7420746865206f776e6572604482015260640161090c565b6002606554036126ab5760405162461bcd60e51b815260206004820152601f60248201527f5265656e7472616e637947756172643a207265656e7472616e742063616c6c00604482015260640161090c565b6002606555565b60a054610827906001600160a01b03168383612f56565b6001606555565b6001600160a01b03163b151590565b600054610100900460ff166127065760405162461bcd60e51b815260040161090c9061386f565b6118fa613080565b600054610100900460ff166127355760405162461bcd60e51b815260040161090c9061386f565b6118fa6130b0565b60006127476113a1565b90506000612753610c16565b609b549091506001600160a01b031661277f5760405163fd4851e960e01b815260040160405180910390fd5b609e54609b54604051637cd0833160e01b81526001600160a01b03928316926334fcf437921690637cd08331906127bc90879087906004016137a3565b602060405180830381865afa1580156127d9573d6000803e3d6000fd5b505050506040513d601f19601f820116820180604052508101906127fd9190613700565b6040518263ffffffff1660e01b815260040161281b91815260200190565b600060405180830381600087803b15801561283557600080fd5b505af1158015612849573d6000803e3d6000fd5b5050609f54609b546040516337e107bb60e21b81526001600160a01b0392831694506334fcf437935091169063df841eec9061288b90879087906004016137a3565b602060405180830381865afa1580156128a8573d6000803e3d6000fd5b505050506040513d601f19601f820116820180604052508101906128cc9190613700565b6040518263ffffffff1660e01b81526004016128ea91815260200190565b600060405180830381600087803b15801561290457600080fd5b505af1158015612918573d6000803e3d6000fd5b505050505050565b6001600160a01b03811660009081526099602052604081205461294283611808565b61294c9190613742565b90506129588282612e5f565b61296130611808565b306000908152609960205260409081902091909155516001600160a01b038316907f9bbd517758fbae61197f1c1c04c8614064e89512dbaf4350dcdf76fcaa5e2161906129b190849042906137a3565b60405180910390a2609e54604051637681d99b60e11b81526001600160a01b039091169063ed03b336906129e990859060040161353b565b600060405180830381600087803b158015612a0357600080fd5b505af1158015612a17573d6000803e3d6000fd5b5050609e54604051637681d99b60e11b81526001600160a01b03909116925063ed03b33691506128ea90309060040161353b565b6000731d3b1350026195670f8b228711977561fe3e60016001600160a01b0383161480612a94575073f03e2984e549ddc747bc709e6c6ef4791882a5026001600160a01b038316145b80612abb5750736edba4a5dbb3aec671f2e1b16a67fa3a076a2ed86001600160a01b038316145b80612ae2575073114989e03993edc97a5946bbb7be885ef0aee9eb6001600160a01b038316145b15612aef57506001919050565b506000919050565b6000612b016118fc565b90506001600160a01b0381161561082757612b1a6108a7565b15612b6a57612b658183604051602401612b34919061353b565b60408051601f198184030181529190526020810180516001600160e01b0316636cec346160e01b17905260006130d7565b505050565b60405163bf18c23960e01b81526001600160a01b0382169063bf18c239906128ea90859060040161353b565b6000818310612ba55781610f37565b5090919050565b6001600160a01b038216600090815260996020526040902054811115612be557604051630bba337f60e11b815260040160405180910390fd5b6001600160a01b038216600081815260996020908152604080832080548690039055518481529192916000805160206138f783398151915291015b60405180910390a35050565b612c35816114c4565b6001600160a01b0382166000908152609a6020526040902055612c57306114c4565b306000908152609a60205260409081902091909155609f549051637681d99b60e11b81526001600160a01b039091169063ed03b33690612c9b90849060040161353b565b600060405180830381600087803b158015612cb557600080fd5b505af1158015612cc9573d6000803e3d6000fd5b5050609f54604051637681d99b60e11b81526001600160a01b03909116925063ed03b3369150612cfd90309060040161353b565b600060405180830381600087803b158015612d1757600080fd5b505af1158015612d2b573d6000803e3d6000fd5b5050505050565b60a054610827906001600160a01b031683308461316b565b60006602ed57011e0000601f1936013581161480612d7b576040516373bb264f60e11b815260040160405180910390fd5b60003660291115612d9f57604051632bcb7bc560e11b815260040160405180910390fd5b5060281936013560006009612dba600362ffffff851661372f565b612dc4919061372f565b905036612dd260028361372f565b1115610f375760405163c30a7bd760e01b815260040160405180910390fd5b600080612dff60208461372f565b905036811115612e2257604051632bcb7bc560e11b815260040160405180910390fd5b36033592915050565b6000806000612e39846132a1565b9092509050604e612e4b82602061372f565b612e559084613814565b611a7c919061372f565b6001600160a01b038216612e86576040516346dbfb6d60e11b815260040160405180910390fd5b6001600160a01b03821660009081526099602052604081208054839290612eae90849061372f565b90915550506040518181526001600160a01b038316906000906000805160206138f783398151915290602001612c20565b6000805160206138d78339815191525490565b603380546001600160a01b038381166001600160a01b0319831681179093556040519116919082907f8be0079c531659141344cd1fd0a4f28419497f9722a3daafe3b4186f6b6457e090600090a35050565b6000805160206138d783398151915255565b604080516001600160a01b038481166024830152604480830185905283518084039091018152606490920183526020820180516001600160e01b031663a9059cbb60e01b1790529151600092839290871691612fb291906138ba565b6000604051808303816000865af19150503d8060008114612fef576040519150601f19603f3d011682016040523d82523d6000602084013e612ff4565b606091505b509150915081801561301e57508051158061301e57508080602001905181019061301e919061384d565b612d2b5760405162461bcd60e51b815260206004820152602d60248201527f5472616e7366657248656c7065723a3a736166655472616e736665723a20747260448201526c185b9cd9995c8819985a5b1959609a1b606482015260840161090c565b600054610100900460ff166130a75760405162461bcd60e51b815260040161090c9061386f565b6118fa33612ef2565b600054610100900460ff166126c95760405162461bcd60e51b815260040161090c9061386f565b606060006130e4846132f8565b9050600080866001600160a01b0316856130ff576000613101565b345b8460405161310f91906138ba565b60006040518083038185875af1925050503d806000811461314c576040519150601f19603f3d011682016040523d82523d6000602084013e613151565b606091505b50915091506131608282613387565b979650505050505050565b604080516001600160a01b0385811660248301528481166044830152606480830185905283518084039091018152608490920183526020820180516001600160e01b03166323b872dd60e01b17905291516000928392908816916131cf91906138ba565b6000604051808303816000865af19150503d806000811461320c576040519150601f19603f3d011682016040523d82523d6000602084013e613211565b606091505b509150915081801561323b57508051158061323b57508080602001905181019061323b919061384d565b6129185760405162461bcd60e51b815260206004820152603160248201527f5472616e7366657248656c7065723a3a7472616e7366657246726f6d3a207472604482015270185b9cd9995c919c9bdb4819985a5b1959607a1b606482015260840161090c565b6000808080806132b260418761372f565b905060006132cb6132c460208461372f565b36906133fe565b8035945090506132dc8160036133fe565b62ffffff9490941697933563ffffffff16965092945050505050565b8051606090600061330761340a565b90506000613315828461372f565b90503682111561333857604051632bcb7bc560e11b815260040160405180910390fd5b6060604051905081815285602001848101826020015b8183101561336657825181526020928301920161334e565b50505082833603856020018301379190920181016020016040529392505050565b60608261209b5781516000036133b057604051632b3ff13d60e11b815260040160405180910390fd5b602082015162461bcd60e51b1480156133e3576040516301efd04f60e31b8152604484019061090c9082906004016134e3565b8260405163fd36fde360e01b815260040161090c91906134e3565b6000610f378284613742565b600080613415612d4a565b9050600061342282612df1565b61ffff16905061343360028361372f565b915060005b8181101561346d57600061344b84612e2b565b9050613457818561372f565b9350508080613465906137c8565b915050613438565b509092915050565b6040518060a001604052806005906020820280368337509192915050565b60005b838110156134ae578181015183820152602001613496565b50506000910152565b600081518084526134cf816020860160208601613493565b601f01601f19169290920160200192915050565b602081526000610f3760208301846134b7565b6001600160a01b03811681146111e657600080fd5b6000806040838503121561351e57600080fd5b823591506020830135613530816134f6565b809150509250929050565b6001600160a01b0391909116815260200190565b60006020828403121561356157600080fd5b8135610f37816134f6565b6000806040838503121561357f57600080fd5b823561358a816134f6565b946020939093013593505050565b600080600080600080600060e0888a0312156135b357600080fd5b87356135be816134f6565b965060208801356135ce816134f6565b955060408801356135de816134f6565b945060608801356135ee816134f6565b935060808801356135fe816134f6565b925060a088013561360e816134f6565b8092505060c0880135905092959891949750929550565b60008060006060848603121561363a57600080fd5b8335613645816134f6565b92506020840135613655816134f6565b929592945050506040919091013590565b60006020828403121561367857600080fd5b5035919050565b60a08101818360005b60058110156136a7578151835260209283019290910190600101613688565b50505092915050565b600080604083850312156136c357600080fd5b82356136ce816134f6565b91506020830135613530816134f6565b600080604083850312156136f157600080fd5b50508035926020909101359150565b60006020828403121561371257600080fd5b5051919050565b634e487b7160e01b600052601160045260246000fd5b808201808211156108a1576108a1613719565b818103818111156108a1576108a1613719565b60006020828403121561376757600080fd5b815160ff81168114610f3757600080fd5b60208082526011908201527010985b185b98d9481a5cc81b1bd8dad959607a1b604082015260600190565b918252602082015260400190565b9182526001600160a01b0316602082015260400190565b6000600182016137da576137da613719565b5060010190565b6000602082840312156137f357600080fd5b8151610f37816134f6565b634e487b7160e01b600052603260045260246000fd5b80820281158282048414176108a1576108a1613719565b60008261384857634e487b7160e01b600052601260045260246000fd5b500490565b60006020828403121561385f57600080fd5b81518015158114610f3757600080fd5b6020808252602b908201527f496e697469616c697a61626c653a20636f6e7472616374206973206e6f74206960408201526a6e697469616c697a696e6760a81b606082015260800190565b600082516138cc818460208701613493565b919091019291505056fe63a0d9df49fae3f1b9d24f8dc819a568c429a1b11d0d8e9de63df53a0194acb2ddf252ad1be2c89b69c2b068fc378daa952ba7f163c4a11628f55a4df523b3ef8c5be1e5ebec7d5bd14f71427d1e84f3dd0314c0f7b2291e5b200ac8c7c3b925a264697066735822122006646e3bacdd8a10214f7509ad31f7544f883589797bb9a89ae03deac27dd36864736f6c63430008110033",
  "devdoc": {
    "details": "Contract allowing user to deposit to and borrow USDT from a dedicated user account",
    "errors": {
      "InsufficientAllowance(uint256,uint256)": [
        {
          "params": {
            "allowance": "current allowance",
            "requested": "requested transfer amount"
          }
        }
      ],
      "TransferAmountExceedsBalance(uint256,uint256)": [
        {
          "params": {
            "amount": "transfer amount",
            "balance": "available balance"
          }
        }
      ]
    },
    "kind": "dev",
    "methods": {
      "allowance(address,address)": {
        "details": "Returns the remaining number of tokens that `spender` will be allowed to spend on behalf of `owner` through {transferFrom}. This is zero by default. This value changes when {approve} or {transferFrom} are called."
      },
      "approve(address,uint256)": {
        "details": "Sets `amount` as the allowance of `spender` over the caller's tokens. Returns a boolean value indicating whether the operation succeeded. IMPORTANT: Beware that changing an allowance with this method brings the risk that someone may use both the old and the new allowance by unfortunate transaction ordering. One possible solution to mitigate this race condition is to first reduce the spender's allowance to 0 and set the desired value afterwards: https://github.com/ethereum/EIPs/issues/20#issuecomment-263524729 Emits an {Approval} event."
      },
      "balanceOf(address)": {
        "details": "_user the address of queried depositor*"
      },
      "borrow(uint256)": {
        "details": "_amount the amount to be borrowedIt is only meant to be used by a SmartLoanDiamondProxy*"
      },
      "getFullyVestedLockedBalance(address)": {
        "details": "The fully vested locked balance is used in the governance mechanism of the system, specifically for the allocation of vPrime tokens. The method calculates the fully vested locked balance by iterating over all the locks of the account and summing up the amounts of those locks that are still active (i.e., their `unlockTime` is greater than the current block timestamp). However, the amount of each lock is scaled by the ratio of its `lockTime` to the `MAX_LOCK_TIME` (3 years). This means that the longer the lock time, the larger the contribution of the lock to the fully vested locked balance. The fully vested locked balance is used to calculate the maximum vPrime allocation for a user. Users accrue vPrime over a period of 3 years, from 0 to the maximum vPrime based on their 10-1 pairs of pool-deposit and sPrime. Locking pool deposits and sPrime immediately vests the vPrime.",
        "params": {
          "account": "The address of the account for which to calculate the fully vested locked balance."
        },
        "returns": {
          "fullyVestedBalance": "The fully vested locked balance of the provided account."
        }
      },
      "owner()": {
        "details": "Returns the address of the current owner."
      },
      "renounceOwnership()": {
        "details": "Leaves the contract without owner. It will not be possible to call `onlyOwner` functions. Can only be called by the current owner. NOTE: Renouncing ownership will leave the contract without an owner, thereby disabling any functionality that is only available to the owner."
      },
      "repay(uint256)": {
        "details": "It is only meant to be used by a SmartLoanDiamondProxy*"
      },
      "setBorrowersRegistry(address)": {
        "details": "borrowersRegistry the address of borrowers registry*"
      },
      "setPoolRewarder(address)": {
        "details": "_poolRewarder the address of PoolRewarder*"
      },
      "setRatesCalculator(address)": {
        "details": "ratesCalculator the address of rates calculator*"
      },
      "setTotalSupplyCap(uint256)": {
        "details": "_newTotalSupplyCap new deposit cap*"
      },
      "totalSupply()": {
        "details": "Returns the amount of tokens in existence."
      },
      "withdraw(uint256)": {
        "details": "_amount the amount to be withdrawn*"
      }
    },
    "title": "UsdtPool",
    "version": 1
  },
  "userdoc": {
    "kind": "user",
    "methods": {
      "balanceOf(address)": {
        "notice": "Returns the current deposited amount for the given user The value includes the interest rates earned at the current moment"
      },
      "borrow(uint256)": {
        "notice": "Borrows the specified amount It updates user borrowed balance, total borrowed amount and rates"
      },
      "deposit(uint256)": {
        "notice": "Deposits the amount It updates user deposited balance, total deposited and rates*"
      },
      "depositOnBehalf(uint256,address)": {
        "notice": "Deposits the amount on behalf of `_of` user. It updates `_of` user deposited balance, total deposited and rates*"
      },
      "getBorrowingRate()": {
        "notice": "Returns the current interest rate for borrowings*"
      },
      "getDepositRate()": {
        "notice": "Returns the current interest rate for deposits*"
      },
      "getFullPoolStatus()": {
        "notice": "Returns full pool status"
      },
      "getFullyVestedLockedBalance(address)": {
        "notice": "Calculates and returns the fully vested locked balance for a given account."
      },
      "recoverSurplus(uint256,address)": {
        "notice": "Recovers the surplus funds resultant from difference between deposit and borrowing rates*"
      },
      "repay(uint256)": {
        "notice": "Repays the amount It updates user borrowed balance, total borrowed amount and rates"
      },
      "setBorrowersRegistry(address)": {
        "notice": "Sets the new borrowers registry contract. The borrowers registry decides if an account can borrow funds. Only the owner of the Contract can execute this function."
      },
      "setPoolRewarder(address)": {
        "notice": "Sets the new Pool Rewarder. The IPoolRewarder that distributes additional token rewards to people having a stake in this pool proportionally to their stake and time of participance. Only the owner of the Contract can execute this function."
      },
      "setRatesCalculator(address)": {
        "notice": "Sets the new rate calculator. The calculator is an external contract that contains the logic for calculating deposit and borrowing rates. Only the owner of the Contract can execute this function."
      },
      "setTotalSupplyCap(uint256)": {
        "notice": "Sets new totalSupplyCap limiting how much in total can be deposited to the Pool. Only the owner of the Contract can execute this function."
      },
      "withdraw(uint256)": {
        "notice": "Withdraws selected amount from the user deposits"
      }
    },
    "version": 1
  },
  "storageLayout": {
    "storage": [
      {
        "astId": 138,
        "contract": "contracts/deployment/avalanche/UsdtPool.sol:UsdtPool",
        "label": "_initialized",
        "offset": 0,
        "slot": "0",
        "type": "t_uint8"
      },
      {
        "astId": 141,
        "contract": "contracts/deployment/avalanche/UsdtPool.sol:UsdtPool",
        "label": "_initializing",
        "offset": 1,
        "slot": "0",
        "type": "t_bool"
      },
      {
        "astId": 755,
        "contract": "contracts/deployment/avalanche/UsdtPool.sol:UsdtPool",
        "label": "__gap",
        "offset": 0,
        "slot": "1",
        "type": "t_array(t_uint256)50_storage"
      },
      {
        "astId": 10,
        "contract": "contracts/deployment/avalanche/UsdtPool.sol:UsdtPool",
        "label": "_owner",
        "offset": 0,
        "slot": "51",
        "type": "t_address"
      },
      {
        "astId": 130,
        "contract": "contracts/deployment/avalanche/UsdtPool.sol:UsdtPool",
        "label": "__gap",
        "offset": 0,
        "slot": "52",
        "type": "t_array(t_uint256)49_storage"
      },
      {
        "astId": 314,
        "contract": "contracts/deployment/avalanche/UsdtPool.sol:UsdtPool",
        "label": "_status",
        "offset": 0,
        "slot": "101",
        "type": "t_uint256"
      },
      {
        "astId": 383,
        "contract": "contracts/deployment/avalanche/UsdtPool.sol:UsdtPool",
        "label": "__gap",
        "offset": 0,
        "slot": "102",
        "type": "t_array(t_uint256)49_storage"
      },
      {
        "astId": 2879,
        "contract": "contracts/deployment/avalanche/UsdtPool.sol:UsdtPool",
        "label": "totalSupplyCap",
        "offset": 0,
        "slot": "151",
        "type": "t_uint256"
      },
      {
        "astId": 2885,
        "contract": "contracts/deployment/avalanche/UsdtPool.sol:UsdtPool",
        "label": "_allowed",
        "offset": 0,
        "slot": "152",
        "type": "t_mapping(t_address,t_mapping(t_address,t_uint256))"
      },
      {
        "astId": 2889,
        "contract": "contracts/deployment/avalanche/UsdtPool.sol:UsdtPool",
        "label": "_deposited",
        "offset": 0,
        "slot": "153",
        "type": "t_mapping(t_address,t_uint256)"
      },
      {
        "astId": 2893,
        "contract": "contracts/deployment/avalanche/UsdtPool.sol:UsdtPool",
        "label": "borrowed",
        "offset": 0,
        "slot": "154",
        "type": "t_mapping(t_address,t_uint256)"
      },
      {
        "astId": 2896,
        "contract": "contracts/deployment/avalanche/UsdtPool.sol:UsdtPool",
        "label": "ratesCalculator",
        "offset": 0,
        "slot": "155",
        "type": "t_contract(IRatesCalculator)6435"
      },
      {
        "astId": 2899,
        "contract": "contracts/deployment/avalanche/UsdtPool.sol:UsdtPool",
        "label": "borrowersRegistry",
        "offset": 0,
        "slot": "156",
        "type": "t_contract(IBorrowersRegistry)6332"
      },
      {
        "astId": 2902,
        "contract": "contracts/deployment/avalanche/UsdtPool.sol:UsdtPool",
        "label": "poolRewarder",
        "offset": 0,
        "slot": "157",
        "type": "t_contract(IPoolRewarder)6413"
      },
      {
        "astId": 2905,
        "contract": "contracts/deployment/avalanche/UsdtPool.sol:UsdtPool",
        "label": "depositIndex",
        "offset": 0,
        "slot": "158",
        "type": "t_contract(IIndex)6359"
      },
      {
        "astId": 2908,
        "contract": "contracts/deployment/avalanche/UsdtPool.sol:UsdtPool",
        "label": "borrowIndex",
        "offset": 0,
        "slot": "159",
        "type": "t_contract(IIndex)6359"
      },
      {
        "astId": 2910,
        "contract": "contracts/deployment/avalanche/UsdtPool.sol:UsdtPool",
        "label": "tokenAddress",
        "offset": 0,
        "slot": "160",
        "type": "t_address_payable"
      },
      {
        "astId": 2913,
        "contract": "contracts/deployment/avalanche/UsdtPool.sol:UsdtPool",
        "label": "vestingDistributor",
        "offset": 0,
        "slot": "161",
        "type": "t_contract(VestingDistributor)6106"
      },
      {
        "astId": 2915,
        "contract": "contracts/deployment/avalanche/UsdtPool.sol:UsdtPool",
        "label": "_decimals",
        "offset": 20,
        "slot": "161",
        "type": "t_uint8"
      },
      {
        "astId": 2928,
        "contract": "contracts/deployment/avalanche/UsdtPool.sol:UsdtPool",
        "label": "locks",
        "offset": 0,
        "slot": "162",
        "type": "t_mapping(t_address,t_array(t_struct(LockDetails)2922_storage)dyn_storage)"
      },
      {
        "astId": 2936,
        "contract": "contracts/deployment/avalanche/UsdtPool.sol:UsdtPool",
        "label": "tokenManager",
        "offset": 0,
        "slot": "163",
        "type": "t_contract(ITokenManager)6659"
      }
    ],
    "types": {
      "t_address": {
        "encoding": "inplace",
        "label": "address",
        "numberOfBytes": "20"
      },
      "t_address_payable": {
        "encoding": "inplace",
        "label": "address payable",
        "numberOfBytes": "20"
      },
      "t_array(t_struct(LockDetails)2922_storage)dyn_storage": {
        "base": "t_struct(LockDetails)2922_storage",
        "encoding": "dynamic_array",
        "label": "struct Pool.LockDetails[]",
        "numberOfBytes": "32"
      },
      "t_array(t_uint256)49_storage": {
        "base": "t_uint256",
        "encoding": "inplace",
        "label": "uint256[49]",
        "numberOfBytes": "1568"
      },
      "t_array(t_uint256)50_storage": {
        "base": "t_uint256",
        "encoding": "inplace",
        "label": "uint256[50]",
        "numberOfBytes": "1600"
      },
      "t_bool": {
        "encoding": "inplace",
        "label": "bool",
        "numberOfBytes": "1"
      },
      "t_contract(IBorrowersRegistry)6332": {
        "encoding": "inplace",
        "label": "contract IBorrowersRegistry",
        "numberOfBytes": "20"
      },
      "t_contract(IIndex)6359": {
        "encoding": "inplace",
        "label": "contract IIndex",
        "numberOfBytes": "20"
      },
      "t_contract(IPoolRewarder)6413": {
        "encoding": "inplace",
        "label": "contract IPoolRewarder",
        "numberOfBytes": "20"
      },
      "t_contract(IRatesCalculator)6435": {
        "encoding": "inplace",
        "label": "contract IRatesCalculator",
        "numberOfBytes": "20"
      },
      "t_contract(ITokenManager)6659": {
        "encoding": "inplace",
        "label": "contract ITokenManager",
        "numberOfBytes": "20"
      },
      "t_contract(VestingDistributor)6106": {
        "encoding": "inplace",
        "label": "contract VestingDistributor",
        "numberOfBytes": "20"
      },
      "t_mapping(t_address,t_array(t_struct(LockDetails)2922_storage)dyn_storage)": {
        "encoding": "mapping",
        "key": "t_address",
        "label": "mapping(address => struct Pool.LockDetails[])",
        "numberOfBytes": "32",
        "value": "t_array(t_struct(LockDetails)2922_storage)dyn_storage"
      },
      "t_mapping(t_address,t_mapping(t_address,t_uint256))": {
        "encoding": "mapping",
        "key": "t_address",
        "label": "mapping(address => mapping(address => uint256))",
        "numberOfBytes": "32",
        "value": "t_mapping(t_address,t_uint256)"
      },
      "t_mapping(t_address,t_uint256)": {
        "encoding": "mapping",
        "key": "t_address",
        "label": "mapping(address => uint256)",
        "numberOfBytes": "32",
        "value": "t_uint256"
      },
      "t_struct(LockDetails)2922_storage": {
        "encoding": "inplace",
        "label": "struct Pool.LockDetails",
        "members": [
          {
            "astId": 2917,
            "contract": "contracts/deployment/avalanche/UsdtPool.sol:UsdtPool",
            "label": "lockTime",
            "offset": 0,
            "slot": "0",
            "type": "t_uint256"
          },
          {
            "astId": 2919,
            "contract": "contracts/deployment/avalanche/UsdtPool.sol:UsdtPool",
            "label": "amount",
            "offset": 0,
            "slot": "1",
            "type": "t_uint256"
          },
          {
            "astId": 2921,
            "contract": "contracts/deployment/avalanche/UsdtPool.sol:UsdtPool",
            "label": "unlockTime",
            "offset": 0,
            "slot": "2",
            "type": "t_uint256"
          }
        ],
        "numberOfBytes": "96"
      },
      "t_uint256": {
        "encoding": "inplace",
        "label": "uint256",
        "numberOfBytes": "32"
      },
      "t_uint8": {
        "encoding": "inplace",
        "label": "uint8",
        "numberOfBytes": "1"
      }
    }
  }
}