{
  "address": "0x4fC4f084c700dE35A77890552aeEd58Aefa4853E",
  "abi": [
    {
      "anonymous": false,
      "inputs": [
        {
          "indexed": false,
          "internalType": "address",
          "name": "user",
          "type": "address"
        },
        {
          "indexed": false,
          "internalType": "address",
          "name": "poolAddress",
          "type": "address"
        },
        {
          "indexed": false,
          "internalType": "uint256",
          "name": "timestamp",
          "type": "uint256"
        }
      ],
      "name": "PoolDeployed",
      "type": "event"
    },
    {
      "inputs": [],
      "name": "deployPool",
      "outputs": [],
      "stateMutability": "nonpayable",
      "type": "function"
    }
  ],
  "transactionHash": "0x690afcdb15214aec6152a4f951b1c096a3fb0720dbf34e47c60a832bab93a57f",
  "args": [],
  "numDeployments": 2,
  "solcInputHash": "331facea7a2686446148bf9fc03873f1",
  "bytecode": "0x608060405234801561001057600080fd5b5061554c806100206000396000f3fe608060405234801561001057600080fd5b506004361061002b5760003560e01c806314d5275114610030575b600080fd5b61003861003a565b005b6000604051610048906100a4565b604051809103906000f080158015610064573d6000803e3d6000fd5b5090507ee86aef36bbfe981da97c8fa8694fcb8feba220190e5f528c1eb4d1a26591883382426040516100999392919061010b565b60405180910390a150565b6153d48061014383390190565b600073ffffffffffffffffffffffffffffffffffffffff82169050919050565b60006100dc826100b1565b9050919050565b6100ec816100d1565b82525050565b6000819050919050565b610105816100f2565b82525050565b600060608201905061012060008301866100e3565b61012d60208301856100e3565b61013a60408301846100fc565b94935050505056fe608060405234801561001057600080fd5b506153b4806100206000396000f3fe608060405234801561001057600080fd5b50600436106102275760003560e01c806370d4cea011610130578063b75c42bd116100b8578063dd62ed3e1161007c578063dd62ed3e14610642578063ee61bd6e14610672578063f2fde38b14610690578063f36b2425146106ac578063fc68f661146106ca57610227565b8063b75c42bd146105ae578063b790634e146105cc578063bb102aea146105ea578063c5ebeaec14610608578063d06dca891461062457610227565b80639d76ea58116100ff5780639d76ea58146104f6578063a457c2d714610514578063a9059cbb14610544578063aa5af0fd14610574578063b6b55f251461059257610227565b806370d4cea014610494578063715018a6146104b05780637b898939146104ba5780638da5cb5b146104d857610227565b80632e1a7d4d116101b35780634c19386c116101825780634c19386c146103da5780636011163e146103f857806361215aa8146104285780636ca6d5d01461044657806370a082311461046457610227565b80632e1a7d4d1461035657806331d05b1114610372578063371fd8e61461038e57806339509351146103aa57610227565b80631457db34116101fa5780631457db34146102b25780631460e390146102ce57806318160ddd146102ea57806323b872dd146103085780632aeaa2911461033857610227565b80630572b0cc1461022c5780630790ef9a146102365780630941cb3d14610252578063095ea7b314610282575b600080fd5b6102346106e6565b005b610250600480360381019061024b91906145cd565b610775565b005b61026c6004803603810190610267919061460d565b610993565b6040516102799190614649565b60405180910390f35b61029c60048036038101906102979190614664565b6109ab565b6040516102a991906146bf565b60405180910390f35b6102cc60048036038101906102c79190614718565b610b02565b005b6102e860048036038101906102e3919061483d565b610cb7565b005b6102f261100a565b6040516102ff9190614649565b60405180910390f35b610322600480360381019061031d91906148df565b61101a565b60405161032f91906146bf565b60405180910390f35b610340611650565b60405161034d9190614649565b60405180910390f35b610370600480360381019061036b9190614932565b6116f2565b005b61038c60048036038101906103879190614932565b611a52565b005b6103a860048036038101906103a39190614932565b611ad8565b005b6103c460048036038101906103bf9190614664565b611cc0565b6040516103d191906146bf565b60405180910390f35b6103e2611ea4565b6040516103ef9190614649565b60405180910390f35b610412600480360381019061040d919061460d565b611eb4565b60405161041f9190614649565b60405180910390f35b610430611f9a565b60405161043d9190614649565b60405180910390f35b61044e611faa565b60405161045b91906149be565b60405180910390f35b61047e6004803603810190610479919061460d565b611fd0565b60405161048b9190614649565b60405180910390f35b6104ae60048036038101906104a991906149d9565b6120b6565b005b6104b8612286565b005b6104c2612288565b6040516104cf9190614a27565b60405180910390f35b6104e06122ae565b6040516104ed9190614a51565b60405180910390f35b6104fe6122d8565b60405161050b9190614a7b565b60405180910390f35b61052e60048036038101906105299190614664565b6122fe565b60405161053b91906146bf565b60405180910390f35b61055e60048036038101906105599190614664565b61252f565b60405161056b91906146bf565b60405180910390f35b61057c612988565b6040516105899190614a27565b60405180910390f35b6105ac60048036038101906105a79190614932565b6129ae565b005b6105b6612d29565b6040516105c39190614b41565b60405180910390f35b6105d4612d80565b6040516105e19190614649565b60405180910390f35b6105f2612e33565b6040516105ff9190614649565b60405180910390f35b610622600480360381019061061d9190614932565b612e39565b005b61062c613285565b6040516106399190614b7d565b60405180910390f35b61065c60048036038101906106579190614b98565b6132ab565b6040516106699190614649565b60405180910390f35b61067a613332565b6040516106879190614bf9565b60405180910390f35b6106aa60048036038101906106a5919061460d565b613358565b005b6106b461344f565b6040516106c19190614649565b60405180910390f35b6106e460048036038101906106df9190614c14565b613502565b005b609d60009054906101000a900473ffffffffffffffffffffffffffffffffffffffff1673ffffffffffffffffffffffffffffffffffffffff16632260b83e336040518263ffffffff1660e01b81526004016107419190614a51565b600060405180830381600087803b15801561075b57600080fd5b505af115801561076f573d6000803e3d6000fd5b50505050565b61077d61365a565b73ffffffffffffffffffffffffffffffffffffffff1661079b6122ae565b73ffffffffffffffffffffffffffffffffffffffff16146107f1576040517f08c379a00000000000000000000000000000000000000000000000000000000081526004016107e890614c9e565b60405180910390fd5b600260655403610836576040517f08c379a000000000000000000000000000000000000000000000000000000000815260040161082d90614d0a565b60405180910390fd5b6002606581905550600060a060009054906101000a900473ffffffffffffffffffffffffffffffffffffffff1673ffffffffffffffffffffffffffffffffffffffff166370a08231306040518263ffffffff1660e01b815260040161089b9190614a51565b602060405180830381865afa1580156108b8573d6000803e3d6000fd5b505050506040513d601f19601f820116820180604052508101906108dc9190614d3f565b905060006108e861100a565b6108f0611ea4565b836108fb9190614d9b565b6109059190614dcf565b905081841115610941576040517f5b5724fc00000000000000000000000000000000000000000000000000000000815260040160405180910390fd5b8381101561097b576040517f94290ab900000000000000000000000000000000000000000000000000000000815260040160405180910390fd5b6109858385613662565b505060016065819055505050565b609a6020528060005260406000206000915090505481565b60008073ffffffffffffffffffffffffffffffffffffffff168373ffffffffffffffffffffffffffffffffffffffff1603610a12576040517f7acc038e00000000000000000000000000000000000000000000000000000000815260040160405180910390fd5b81609860003373ffffffffffffffffffffffffffffffffffffffff1673ffffffffffffffffffffffffffffffffffffffff16815260200190815260200160002060008573ffffffffffffffffffffffffffffffffffffffff1673ffffffffffffffffffffffffffffffffffffffff168152602001908152602001600020819055508273ffffffffffffffffffffffffffffffffffffffff163373ffffffffffffffffffffffffffffffffffffffff167f8c5be1e5ebec7d5bd14f71427d1e84f3dd0314c0f7b2291e5b200ac8c7c3b92584604051610af09190614649565b60405180910390a36001905092915050565b610b0a61365a565b73ffffffffffffffffffffffffffffffffffffffff16610b286122ae565b73ffffffffffffffffffffffffffffffffffffffff1614610b7e576040517f08c379a0000000000000000000000000000000000000000000000000000000008152600401610b7590614c9e565b60405180910390fd5b610b87816136b3565b158015610bc15750600073ffffffffffffffffffffffffffffffffffffffff168173ffffffffffffffffffffffffffffffffffffffff1614155b15610c2557609d60009054906101000a900473ffffffffffffffffffffffffffffffffffffffff166040517f8a8b41ec000000000000000000000000000000000000000000000000000000008152600401610c1c9190614a51565b60405180910390fd5b80609d60006101000a81548173ffffffffffffffffffffffffffffffffffffffff021916908373ffffffffffffffffffffffffffffffffffffffff1602179055508073ffffffffffffffffffffffffffffffffffffffff167f85796821ee1d670b0fdb986f256b5c1a29b9019038831c7f09df2061879cf9e542604051610cac9190614649565b60405180910390a250565b600060019054906101000a900460ff16610cdf5760008054906101000a900460ff1615610ce8565b610ce76136d6565b5b610d27576040517f08c379a0000000000000000000000000000000000000000000000000000000008152600401610d1e90614e75565b60405180910390fd5b60008060019054906101000a900460ff161590508015610d77576001600060016101000a81548160ff02191690831515021790555060016000806101000a81548160ff0219169083151502179055505b610d80886136b3565b8015610d915750610d90876136b3565b5b8015610da25750610da1866136b3565b5b8015610db35750610db2856136b3565b5b8015610dfb5750610dc3836136b3565b80610dfa5750600073ffffffffffffffffffffffffffffffffffffffff168373ffffffffffffffffffffffffffffffffffffffff16145b5b610e3a576040517f08c379a0000000000000000000000000000000000000000000000000000000008152600401610e3190614ee1565b60405180910390fd5b86609c60006101000a81548173ffffffffffffffffffffffffffffffffffffffff021916908373ffffffffffffffffffffffffffffffffffffffff16021790555087609b60006101000a81548173ffffffffffffffffffffffffffffffffffffffff021916908373ffffffffffffffffffffffffffffffffffffffff16021790555085609e60006101000a81548173ffffffffffffffffffffffffffffffffffffffff021916908373ffffffffffffffffffffffffffffffffffffffff16021790555084609f60006101000a81548173ffffffffffffffffffffffffffffffffffffffff021916908373ffffffffffffffffffffffffffffffffffffffff16021790555082609d60006101000a81548173ffffffffffffffffffffffffffffffffffffffff021916908373ffffffffffffffffffffffffffffffffffffffff1602179055508360a060006101000a81548173ffffffffffffffffffffffffffffffffffffffff021916908373ffffffffffffffffffffffffffffffffffffffff16021790555081609781905550610fcf6136e7565b610fd7613740565b610fdf613799565b80156110005760008060016101000a81548160ff0219169083151502179055505b5050505050505050565b600061101530611fd0565b905090565b600081609860008673ffffffffffffffffffffffffffffffffffffffff1673ffffffffffffffffffffffffffffffffffffffff16815260200190815260200160002060003373ffffffffffffffffffffffffffffffffffffffff1673ffffffffffffffffffffffffffffffffffffffff16815260200190815260200160002054101561115b5781609860008673ffffffffffffffffffffffffffffffffffffffff1673ffffffffffffffffffffffffffffffffffffffff16815260200190815260200160002060003373ffffffffffffffffffffffffffffffffffffffff1673ffffffffffffffffffffffffffffffffffffffff168152602001908152602001600020546040517f2a1b2dd8000000000000000000000000000000000000000000000000000000008152600401611152929190614f01565b60405180910390fd5b600073ffffffffffffffffffffffffffffffffffffffff168373ffffffffffffffffffffffffffffffffffffffff16036111c1576040517fea553b3400000000000000000000000000000000000000000000000000000000815260040160405180910390fd5b3073ffffffffffffffffffffffffffffffffffffffff168373ffffffffffffffffffffffffffffffffffffffff1603611226576040517fed728e5700000000000000000000000000000000000000000000000000000000815260040160405180910390fd5b61122f84613a91565b81609960008673ffffffffffffffffffffffffffffffffffffffff1673ffffffffffffffffffffffffffffffffffffffff1681526020019081526020016000205410156112f45781609960008673ffffffffffffffffffffffffffffffffffffffff1673ffffffffffffffffffffffffffffffffffffffff168152602001908152602001600020546040517fa1a48f3a0000000000000000000000000000000000000000000000000000000081526004016112eb929190614f01565b60405180910390fd5b81609960008673ffffffffffffffffffffffffffffffffffffffff1673ffffffffffffffffffffffffffffffffffffffff16815260200190815260200160002060008282546113439190614dcf565b9250508190555081609860008673ffffffffffffffffffffffffffffffffffffffff1673ffffffffffffffffffffffffffffffffffffffff16815260200190815260200160002060003373ffffffffffffffffffffffffffffffffffffffff1673ffffffffffffffffffffffffffffffffffffffff16815260200190815260200160002060008282546113d69190614dcf565b925050819055506113e683613a91565b81609960008573ffffffffffffffffffffffffffffffffffffffff1673ffffffffffffffffffffffffffffffffffffffff16815260200190815260200160002060008282546114359190614d9b565b92505081905550600073ffffffffffffffffffffffffffffffffffffffff16609d60009054906101000a900473ffffffffffffffffffffffffffffffffffffffff1673ffffffffffffffffffffffffffffffffffffffff161415801561149c575060008214155b156115e0576000609d60009054906101000a900473ffffffffffffffffffffffffffffffffffffffff1673ffffffffffffffffffffffffffffffffffffffff16633576f6cc84876040518363ffffffff1660e01b8152600401611500929190614f2a565b6020604051808303816000875af115801561151f573d6000803e3d6000fd5b505050506040513d601f19601f820116820180604052508101906115439190614d3f565b905060008111156115de57609d60009054906101000a900473ffffffffffffffffffffffffffffffffffffffff1673ffffffffffffffffffffffffffffffffffffffff166351746bb282866040518363ffffffff1660e01b81526004016115ab929190614f2a565b600060405180830381600087803b1580156115c557600080fd5b505af11580156115d9573d6000803e3d6000fd5b505050505b505b8273ffffffffffffffffffffffffffffffffffffffff168473ffffffffffffffffffffffffffffffffffffffff167fddf252ad1be2c89b69c2b068fc378daa952ba7f163c4a11628f55a4df523b3ef8460405161163d9190614649565b60405180910390a3600190509392505050565b6000609d60009054906101000a900473ffffffffffffffffffffffffffffffffffffffff1673ffffffffffffffffffffffffffffffffffffffff16628cc262336040518263ffffffff1660e01b81526004016116ac9190614a51565b602060405180830381865afa1580156116c9573d6000803e3d6000fd5b505050506040513d601f19601f820116820180604052508101906116ed9190614d3f565b905090565b600260655403611737576040517f08c379a000000000000000000000000000000000000000000000000000000000815260040161172e90614d0a565b60405180910390fd5b600260658190555060a060009054906101000a900473ffffffffffffffffffffffffffffffffffffffff1673ffffffffffffffffffffffffffffffffffffffff166370a08231306040518263ffffffff1660e01b815260040161179a9190614a51565b602060405180830381865afa1580156117b7573d6000803e3d6000fd5b505050506040513d601f19601f820116820180604052508101906117db9190614d3f565b811115611814576040517f5b5724fc00000000000000000000000000000000000000000000000000000000815260040160405180910390fd5b61181d33613a91565b609960003073ffffffffffffffffffffffffffffffffffffffff1673ffffffffffffffffffffffffffffffffffffffff16815260200190815260200160002054811115611896576040517f177466fe00000000000000000000000000000000000000000000000000000000815260040160405180910390fd5b80609960003073ffffffffffffffffffffffffffffffffffffffff1673ffffffffffffffffffffffffffffffffffffffff168152602001908152602001600020600082825403925050819055506118ed3382613cac565b6118f73382613662565b6118ff613799565b600073ffffffffffffffffffffffffffffffffffffffff16609d60009054906101000a900473ffffffffffffffffffffffffffffffffffffffff1673ffffffffffffffffffffffffffffffffffffffff16146119f757609d60009054906101000a900473ffffffffffffffffffffffffffffffffffffffff1673ffffffffffffffffffffffffffffffffffffffff16633576f6cc82336040518363ffffffff1660e01b81526004016119b2929190614f2a565b6020604051808303816000875af11580156119d1573d6000803e3d6000fd5b505050506040513d601f19601f820116820180604052508101906119f59190614d3f565b505b3373ffffffffffffffffffffffffffffffffffffffff167fdf273cb619d95419a9cd0ec88123a0538c85064229baa6363788f743fff90deb8242604051611a3f929190614f01565b60405180910390a2600160658190555050565b611a5a61365a565b73ffffffffffffffffffffffffffffffffffffffff16611a786122ae565b73ffffffffffffffffffffffffffffffffffffffff1614611ace576040517f08c379a0000000000000000000000000000000000000000000000000000000008152600401611ac590614c9e565b60405180910390fd5b8060978190555050565b600260655403611b1d576040517f08c379a0000000000000000000000000000000000000000000000000000000008152600401611b1490614d0a565b60405180910390fd5b6002606581905550611b2e33613ddc565b609a60003373ffffffffffffffffffffffffffffffffffffffff1673ffffffffffffffffffffffffffffffffffffffff16815260200190815260200160002054811115611ba7576040517f1b95a86600000000000000000000000000000000000000000000000000000000815260040160405180910390fd5b611bb13382613f91565b80609a60003373ffffffffffffffffffffffffffffffffffffffff1673ffffffffffffffffffffffffffffffffffffffff1681526020019081526020016000206000828254611c009190614dcf565b9250508190555080609a60003073ffffffffffffffffffffffffffffffffffffffff1673ffffffffffffffffffffffffffffffffffffffff1681526020019081526020016000206000828254611c569190614dcf565b92505081905550611c65613799565b3373ffffffffffffffffffffffffffffffffffffffff167f24fcca58a997b1b2eff6db8107e860458544c09ddd3693b3b779e1df6c0d6c5d8242604051611cad929190614f01565b60405180910390a2600160658190555050565b60008073ffffffffffffffffffffffffffffffffffffffff168373ffffffffffffffffffffffffffffffffffffffff1603611d27576040517f7acc038e00000000000000000000000000000000000000000000000000000000815260040160405180910390fd5b600082609860003373ffffffffffffffffffffffffffffffffffffffff1673ffffffffffffffffffffffffffffffffffffffff16815260200190815260200160002060008673ffffffffffffffffffffffffffffffffffffffff1673ffffffffffffffffffffffffffffffffffffffff16815260200190815260200160002054611db19190614d9b565b905080609860003373ffffffffffffffffffffffffffffffffffffffff1673ffffffffffffffffffffffffffffffffffffffff16815260200190815260200160002060008673ffffffffffffffffffffffffffffffffffffffff1673ffffffffffffffffffffffffffffffffffffffff168152602001908152602001600020819055508373ffffffffffffffffffffffffffffffffffffffff163373ffffffffffffffffffffffffffffffffffffffff167f8c5be1e5ebec7d5bd14f71427d1e84f3dd0314c0f7b2291e5b200ac8c7c3b92583604051611e919190614649565b60405180910390a3600191505092915050565b6000611eaf30611eb4565b905090565b6000609f60009054906101000a900473ffffffffffffffffffffffffffffffffffffffff1673ffffffffffffffffffffffffffffffffffffffff1663966da889609a60008573ffffffffffffffffffffffffffffffffffffffff1673ffffffffffffffffffffffffffffffffffffffff16815260200190815260200160002054846040518363ffffffff1660e01b8152600401611f52929190614f2a565b602060405180830381865afa158015611f6f573d6000803e3d6000fd5b505050506040513d601f19601f82011682018060405250810190611f939190614d3f565b9050919050565b6000670c7d713b49da0000905090565b609d60009054906101000a900473ffffffffffffffffffffffffffffffffffffffff1681565b6000609e60009054906101000a900473ffffffffffffffffffffffffffffffffffffffff1673ffffffffffffffffffffffffffffffffffffffff1663966da889609960008573ffffffffffffffffffffffffffffffffffffffff1673ffffffffffffffffffffffffffffffffffffffff16815260200190815260200160002054846040518363ffffffff1660e01b815260040161206e929190614f2a565b602060405180830381865afa15801561208b573d6000803e3d6000fd5b505050506040513d601f19601f820116820180604052508101906120af9190614d3f565b9050919050565b6120be61365a565b73ffffffffffffffffffffffffffffffffffffffff166120dc6122ae565b73ffffffffffffffffffffffffffffffffffffffff1614612132576040517f08c379a000000000000000000000000000000000000000000000000000000000815260040161212990614c9e565b60405180910390fd5b61213b816136b3565b1580156121755750600073ffffffffffffffffffffffffffffffffffffffff168173ffffffffffffffffffffffffffffffffffffffff1614155b156121b757806040517f8a8b41ec0000000000000000000000000000000000000000000000000000000081526004016121ae9190614a51565b60405180910390fd5b80609b60006101000a81548173ffffffffffffffffffffffffffffffffffffffff021916908373ffffffffffffffffffffffffffffffffffffffff160217905550600073ffffffffffffffffffffffffffffffffffffffff168173ffffffffffffffffffffffffffffffffffffffff161461223557612234613799565b5b8073ffffffffffffffffffffffffffffffffffffffff167fef1b7e9216e08b283cc613824ccb26ea505227777839a4f3c6810d64594e01824260405161227b9190614649565b60405180910390a250565b565b609e60009054906101000a900473ffffffffffffffffffffffffffffffffffffffff1681565b6000603360009054906101000a900473ffffffffffffffffffffffffffffffffffffffff16905090565b60a060009054906101000a900473ffffffffffffffffffffffffffffffffffffffff1681565b60008073ffffffffffffffffffffffffffffffffffffffff168373ffffffffffffffffffffffffffffffffffffffff1603612365576040517f7acc038e00000000000000000000000000000000000000000000000000000000815260040160405180910390fd5b6000609860003373ffffffffffffffffffffffffffffffffffffffff1673ffffffffffffffffffffffffffffffffffffffff16815260200190815260200160002060008573ffffffffffffffffffffffffffffffffffffffff1673ffffffffffffffffffffffffffffffffffffffff1681526020019081526020016000205490508281101561242d5782816040517f2a1b2dd8000000000000000000000000000000000000000000000000000000008152600401612424929190614f01565b60405180910390fd5b6000838261243b9190614dcf565b905080609860003373ffffffffffffffffffffffffffffffffffffffff1673ffffffffffffffffffffffffffffffffffffffff16815260200190815260200160002060008773ffffffffffffffffffffffffffffffffffffffff1673ffffffffffffffffffffffffffffffffffffffff168152602001908152602001600020819055508473ffffffffffffffffffffffffffffffffffffffff163373ffffffffffffffffffffffffffffffffffffffff167f8c5be1e5ebec7d5bd14f71427d1e84f3dd0314c0f7b2291e5b200ac8c7c3b9258360405161251b9190614649565b60405180910390a360019250505092915050565b60008073ffffffffffffffffffffffffffffffffffffffff168373ffffffffffffffffffffffffffffffffffffffff1603612596576040517fea553b3400000000000000000000000000000000000000000000000000000000815260040160405180910390fd5b3073ffffffffffffffffffffffffffffffffffffffff168373ffffffffffffffffffffffffffffffffffffffff16036125fb576040517fed728e5700000000000000000000000000000000000000000000000000000000815260040160405180910390fd5b61260433613a91565b81609960003373ffffffffffffffffffffffffffffffffffffffff1673ffffffffffffffffffffffffffffffffffffffff1681526020019081526020016000205410156126c95781609960003373ffffffffffffffffffffffffffffffffffffffff1673ffffffffffffffffffffffffffffffffffffffff168152602001908152602001600020546040517fa1a48f3a0000000000000000000000000000000000000000000000000000000081526004016126c0929190614f01565b60405180910390fd5b81609960003373ffffffffffffffffffffffffffffffffffffffff1673ffffffffffffffffffffffffffffffffffffffff1681526020019081526020016000206000828254039250508190555061271f83613a91565b81609960008573ffffffffffffffffffffffffffffffffffffffff1673ffffffffffffffffffffffffffffffffffffffff168152602001908152602001600020600082825461276e9190614d9b565b92505081905550600073ffffffffffffffffffffffffffffffffffffffff16609d60009054906101000a900473ffffffffffffffffffffffffffffffffffffffff1673ffffffffffffffffffffffffffffffffffffffff16141580156127d5575060008214155b15612919576000609d60009054906101000a900473ffffffffffffffffffffffffffffffffffffffff1673ffffffffffffffffffffffffffffffffffffffff16633576f6cc84336040518363ffffffff1660e01b8152600401612839929190614f2a565b6020604051808303816000875af1158015612858573d6000803e3d6000fd5b505050506040513d601f19601f8201168201806040525081019061287c9190614d3f565b9050600081111561291757609d60009054906101000a900473ffffffffffffffffffffffffffffffffffffffff1673ffffffffffffffffffffffffffffffffffffffff166351746bb282866040518363ffffffff1660e01b81526004016128e4929190614f2a565b600060405180830381600087803b1580156128fe57600080fd5b505af1158015612912573d6000803e3d6000fd5b505050505b505b8273ffffffffffffffffffffffffffffffffffffffff163373ffffffffffffffffffffffffffffffffffffffff167fddf252ad1be2c89b69c2b068fc378daa952ba7f163c4a11628f55a4df523b3ef846040516129769190614649565b60405180910390a36001905092915050565b609f60009054906101000a900473ffffffffffffffffffffffffffffffffffffffff1681565b6002606554036129f3576040517f08c379a00000000000000000000000000000000000000000000000000000000081526004016129ea90614d0a565b60405180910390fd5b600260658190555060008103612a35576040517f078e1d8500000000000000000000000000000000000000000000000000000000815260040160405180910390fd5b612ada8160a060009054906101000a900473ffffffffffffffffffffffffffffffffffffffff1673ffffffffffffffffffffffffffffffffffffffff166370a08231336040518263ffffffff1660e01b8152600401612a949190614a51565b602060405180830381865afa158015612ab1573d6000803e3d6000fd5b505050506040513d601f19601f82011682018060405250810190612ad59190614d3f565b613fe4565b9050612ae533613a91565b600060975414612b765760975481609960003073ffffffffffffffffffffffffffffffffffffffff1673ffffffffffffffffffffffffffffffffffffffff16815260200190815260200160002054612b3d9190614d9b565b1115612b75576040517f3f27d61700000000000000000000000000000000000000000000000000000000815260040160405180910390fd5b5b612b803382613f91565b612b8a3382613ffd565b80609960003073ffffffffffffffffffffffffffffffffffffffff1673ffffffffffffffffffffffffffffffffffffffff1681526020019081526020016000206000828254612bd99190614d9b565b92505081905550612be8613799565b600073ffffffffffffffffffffffffffffffffffffffff16609d60009054906101000a900473ffffffffffffffffffffffffffffffffffffffff1673ffffffffffffffffffffffffffffffffffffffff1614612cce57609d60009054906101000a900473ffffffffffffffffffffffffffffffffffffffff1673ffffffffffffffffffffffffffffffffffffffff166351746bb282336040518363ffffffff1660e01b8152600401612c9b929190614f2a565b600060405180830381600087803b158015612cb557600080fd5b505af1158015612cc9573d6000803e3d6000fd5b505050505b3373ffffffffffffffffffffffffffffffffffffffff167f90890809c654f11d6e72a28fa60149770a0d11ec6c92319d6ceb2bb0a4ea1a158242604051612d16929190614f01565b60405180910390a2600160658190555050565b612d31614512565b6040518060a00160405280612d4461100a565b8152602001612d51612d80565b8152602001612d5e61344f565b8152602001612d6b611ea4565b8152602001612d78611f9a565b815250905090565b6000609b60009054906101000a900473ffffffffffffffffffffffffffffffffffffffff1673ffffffffffffffffffffffffffffffffffffffff16637cd08331612dc8611ea4565b612dd061100a565b6040518363ffffffff1660e01b8152600401612ded929190614f01565b602060405180830381865afa158015612e0a573d6000803e3d6000fd5b505050506040513d601f19601f82011682018060405250810190612e2e9190614d3f565b905090565b60975481565b600073ffffffffffffffffffffffffffffffffffffffff16609c60009054906101000a900473ffffffffffffffffffffffffffffffffffffffff1673ffffffffffffffffffffffffffffffffffffffff1603612ec1576040517f700e36ac00000000000000000000000000000000000000000000000000000000815260040160405180910390fd5b609c60009054906101000a900473ffffffffffffffffffffffffffffffffffffffff1673ffffffffffffffffffffffffffffffffffffffff16630e7fc864336040518263ffffffff1660e01b8152600401612f1c9190614a51565b602060405180830381865afa158015612f39573d6000803e3d6000fd5b505050506040513d601f19601f82011682018060405250810190612f5d9190614f7f565b612f93576040517feb05f53600000000000000000000000000000000000000000000000000000000815260040160405180910390fd5b6000612f9d61100a565b03612fd4576040517f5b5724fc00000000000000000000000000000000000000000000000000000000815260040160405180910390fd5b600260655403613019576040517f08c379a000000000000000000000000000000000000000000000000000000000815260040161301090614d0a565b60405180910390fd5b600260658190555060a060009054906101000a900473ffffffffffffffffffffffffffffffffffffffff1673ffffffffffffffffffffffffffffffffffffffff166370a08231306040518263ffffffff1660e01b815260040161307c9190614a51565b602060405180830381865afa158015613099573d6000803e3d6000fd5b505050506040513d601f19601f820116820180604052508101906130bd9190614d3f565b8111156130f6576040517f5b5724fc00000000000000000000000000000000000000000000000000000000815260040160405180910390fd5b6130ff33613ddc565b80609a60003373ffffffffffffffffffffffffffffffffffffffff1673ffffffffffffffffffffffffffffffffffffffff168152602001908152602001600020600082825461314e9190614d9b565b9250508190555080609a60003073ffffffffffffffffffffffffffffffffffffffff1673ffffffffffffffffffffffffffffffffffffffff16815260200190815260200160002060008282546131a49190614d9b565b925050819055506131b53382613662565b6131bd613799565b3373ffffffffffffffffffffffffffffffffffffffff167fd6b37be10b58108f696d9ed067fedad0bff7cb417ef4c28d2f8a25d6d83c98d58242604051613205929190614f01565b60405180910390a2600160658190555061321d611f9a565b61322561100a565b670de0b6b3a7640000613236611ea4565b6132409190614fac565b61324a919061501d565b1115613282576040517fe5739c7e00000000000000000000000000000000000000000000000000000000815260040160405180910390fd5b50565b609c60009054906101000a900473ffffffffffffffffffffffffffffffffffffffff1681565b6000609860008473ffffffffffffffffffffffffffffffffffffffff1673ffffffffffffffffffffffffffffffffffffffff16815260200190815260200160002060008373ffffffffffffffffffffffffffffffffffffffff1673ffffffffffffffffffffffffffffffffffffffff16815260200190815260200160002054905092915050565b609b60009054906101000a900473ffffffffffffffffffffffffffffffffffffffff1681565b61336061365a565b73ffffffffffffffffffffffffffffffffffffffff1661337e6122ae565b73ffffffffffffffffffffffffffffffffffffffff16146133d4576040517f08c379a00000000000000000000000000000000000000000000000000000000081526004016133cb90614c9e565b60405180910390fd5b600073ffffffffffffffffffffffffffffffffffffffff168173ffffffffffffffffffffffffffffffffffffffff1603613443576040517f08c379a000000000000000000000000000000000000000000000000000000000815260040161343a906150c0565b60405180910390fd5b61344c81614123565b50565b6000609b60009054906101000a900473ffffffffffffffffffffffffffffffffffffffff1673ffffffffffffffffffffffffffffffffffffffff1663df841eec613497611ea4565b61349f61100a565b6040518363ffffffff1660e01b81526004016134bc929190614f01565b602060405180830381865afa1580156134d9573d6000803e3d6000fd5b505050506040513d601f19601f820116820180604052508101906134fd9190614d3f565b905090565b61350a61365a565b73ffffffffffffffffffffffffffffffffffffffff166135286122ae565b73ffffffffffffffffffffffffffffffffffffffff161461357e576040517f08c379a000000000000000000000000000000000000000000000000000000000815260040161357590614c9e565b60405180910390fd5b613587816136b3565b6135c857806040517f8a8b41ec0000000000000000000000000000000000000000000000000000000081526004016135bf9190614a51565b60405180910390fd5b80609c60006101000a81548173ffffffffffffffffffffffffffffffffffffffff021916908373ffffffffffffffffffffffffffffffffffffffff1602179055508073ffffffffffffffffffffffffffffffffffffffff167f04dce7d074f7e287a2e6e3516c802271d58d5c14e0dede83a49719eb6b9204694260405161364f9190614649565b60405180910390a250565b600033905090565b6136af828260a060009054906101000a900473ffffffffffffffffffffffffffffffffffffffff1673ffffffffffffffffffffffffffffffffffffffff166141e99092919063ffffffff16565b5050565b6000808273ffffffffffffffffffffffffffffffffffffffff163b119050919050565b60006136e1306136b3565b15905090565b600060019054906101000a900460ff16613736576040517f08c379a000000000000000000000000000000000000000000000000000000000815260040161372d90615152565b60405180910390fd5b61373e61431f565b565b600060019054906101000a900460ff1661378f576040517f08c379a000000000000000000000000000000000000000000000000000000000815260040161378690615152565b60405180910390fd5b613797614380565b565b60006137a3611ea4565b905060006137af61100a565b9050600073ffffffffffffffffffffffffffffffffffffffff16609b60009054906101000a900473ffffffffffffffffffffffffffffffffffffffff1673ffffffffffffffffffffffffffffffffffffffff1603613839576040517ffd4851e900000000000000000000000000000000000000000000000000000000815260040160405180910390fd5b609e60009054906101000a900473ffffffffffffffffffffffffffffffffffffffff1673ffffffffffffffffffffffffffffffffffffffff166334fcf437609b60009054906101000a900473ffffffffffffffffffffffffffffffffffffffff1673ffffffffffffffffffffffffffffffffffffffff16637cd0833185856040518363ffffffff1660e01b81526004016138d4929190614f01565b602060405180830381865afa1580156138f1573d6000803e3d6000fd5b505050506040513d601f19601f820116820180604052508101906139159190614d3f565b6040518263ffffffff1660e01b81526004016139319190614649565b600060405180830381600087803b15801561394b57600080fd5b505af115801561395f573d6000803e3d6000fd5b50505050609f60009054906101000a900473ffffffffffffffffffffffffffffffffffffffff1673ffffffffffffffffffffffffffffffffffffffff166334fcf437609b60009054906101000a900473ffffffffffffffffffffffffffffffffffffffff1673ffffffffffffffffffffffffffffffffffffffff1663df841eec85856040518363ffffffff1660e01b81526004016139fe929190614f01565b602060405180830381865afa158015613a1b573d6000803e3d6000fd5b505050506040513d601f19601f82011682018060405250810190613a3f9190614d3f565b6040518263ffffffff1660e01b8152600401613a5b9190614649565b600060405180830381600087803b158015613a7557600080fd5b505af1158015613a89573d6000803e3d6000fd5b505050505050565b6000609960008373ffffffffffffffffffffffffffffffffffffffff1673ffffffffffffffffffffffffffffffffffffffff16815260200190815260200160002054613adc83611fd0565b613ae69190614dcf565b9050613af28282613ffd565b613afb30611fd0565b609960003073ffffffffffffffffffffffffffffffffffffffff1673ffffffffffffffffffffffffffffffffffffffff168152602001908152602001600020819055508173ffffffffffffffffffffffffffffffffffffffff167f9bbd517758fbae61197f1c1c04c8614064e89512dbaf4350dcdf76fcaa5e21618242604051613b86929190614f01565b60405180910390a2609e60009054906101000a900473ffffffffffffffffffffffffffffffffffffffff1673ffffffffffffffffffffffffffffffffffffffff1663ed03b336836040518263ffffffff1660e01b8152600401613be99190614a51565b600060405180830381600087803b158015613c0357600080fd5b505af1158015613c17573d6000803e3d6000fd5b50505050609e60009054906101000a900473ffffffffffffffffffffffffffffffffffffffff1673ffffffffffffffffffffffffffffffffffffffff1663ed03b336306040518263ffffffff1660e01b8152600401613c769190614a51565b600060405180830381600087803b158015613c9057600080fd5b505af1158015613ca4573d6000803e3d6000fd5b505050505050565b609960008373ffffffffffffffffffffffffffffffffffffffff1673ffffffffffffffffffffffffffffffffffffffff16815260200190815260200160002054811115613d25576040517f177466fe00000000000000000000000000000000000000000000000000000000815260040160405180910390fd5b80609960008473ffffffffffffffffffffffffffffffffffffffff1673ffffffffffffffffffffffffffffffffffffffff16815260200190815260200160002060008282540392505081905550600073ffffffffffffffffffffffffffffffffffffffff168273ffffffffffffffffffffffffffffffffffffffff167fddf252ad1be2c89b69c2b068fc378daa952ba7f163c4a11628f55a4df523b3ef83604051613dd09190614649565b60405180910390a35050565b613de581611eb4565b609a60008373ffffffffffffffffffffffffffffffffffffffff1673ffffffffffffffffffffffffffffffffffffffff16815260200190815260200160002081905550613e3130611eb4565b609a60003073ffffffffffffffffffffffffffffffffffffffff1673ffffffffffffffffffffffffffffffffffffffff16815260200190815260200160002081905550609f60009054906101000a900473ffffffffffffffffffffffffffffffffffffffff1673ffffffffffffffffffffffffffffffffffffffff1663ed03b336826040518263ffffffff1660e01b8152600401613ecf9190614a51565b600060405180830381600087803b158015613ee957600080fd5b505af1158015613efd573d6000803e3d6000fd5b50505050609f60009054906101000a900473ffffffffffffffffffffffffffffffffffffffff1673ffffffffffffffffffffffffffffffffffffffff1663ed03b336306040518263ffffffff1660e01b8152600401613f5c9190614a51565b600060405180830381600087803b158015613f7657600080fd5b505af1158015613f8a573d6000803e3d6000fd5b5050505050565b613fe082308360a060009054906101000a900473ffffffffffffffffffffffffffffffffffffffff1673ffffffffffffffffffffffffffffffffffffffff166143d9909392919063ffffffff16565b5050565b6000818310613ff35781613ff5565b825b905092915050565b600073ffffffffffffffffffffffffffffffffffffffff168273ffffffffffffffffffffffffffffffffffffffff1603614063576040517f8db7f6da00000000000000000000000000000000000000000000000000000000815260040160405180910390fd5b80609960008473ffffffffffffffffffffffffffffffffffffffff1673ffffffffffffffffffffffffffffffffffffffff16815260200190815260200160002060008282546140b29190614d9b565b925050819055508173ffffffffffffffffffffffffffffffffffffffff16600073ffffffffffffffffffffffffffffffffffffffff167fddf252ad1be2c89b69c2b068fc378daa952ba7f163c4a11628f55a4df523b3ef836040516141179190614649565b60405180910390a35050565b6000603360009054906101000a900473ffffffffffffffffffffffffffffffffffffffff16905081603360006101000a81548173ffffffffffffffffffffffffffffffffffffffff021916908373ffffffffffffffffffffffffffffffffffffffff1602179055508173ffffffffffffffffffffffffffffffffffffffff168173ffffffffffffffffffffffffffffffffffffffff167f8be0079c531659141344cd1fd0a4f28419497f9722a3daafe3b4186f6b6457e060405160405180910390a35050565b6000808473ffffffffffffffffffffffffffffffffffffffff1663a9059cbb858560405160240161421b929190615172565b6040516020818303038152906040529060e01b6020820180517bffffffffffffffffffffffffffffffffffffffffffffffffffffffff8381831617835250505050604051614269919061520c565b6000604051808303816000865af19150503d80600081146142a6576040519150601f19603f3d011682016040523d82523d6000602084013e6142ab565b606091505b50915091508180156142d957506000815114806142d85750808060200190518101906142d79190614f7f565b5b5b614318576040517f08c379a000000000000000000000000000000000000000000000000000000000815260040161430f90615295565b60405180910390fd5b5050505050565b600060019054906101000a900460ff1661436e576040517f08c379a000000000000000000000000000000000000000000000000000000000815260040161436590615152565b60405180910390fd5b61437e61437961365a565b614123565b565b600060019054906101000a900460ff166143cf576040517f08c379a00000000000000000000000000000000000000000000000000000000081526004016143c690615152565b60405180910390fd5b6001606581905550565b6000808573ffffffffffffffffffffffffffffffffffffffff166323b872dd86868660405160240161440d939291906152b5565b6040516020818303038152906040529060e01b6020820180517bffffffffffffffffffffffffffffffffffffffffffffffffffffffff838183161783525050505060405161445b919061520c565b6000604051808303816000865af19150503d8060008114614498576040519150601f19603f3d011682016040523d82523d6000602084013e61449d565b606091505b50915091508180156144cb57506000815114806144ca5750808060200190518101906144c99190614f7f565b5b5b61450a576040517f08c379a00000000000000000000000000000000000000000000000000000000081526004016145019061535e565b60405180910390fd5b505050505050565b6040518060a00160405280600590602082028036833780820191505090505090565b600080fd5b6000819050919050565b61454c81614539565b811461455757600080fd5b50565b60008135905061456981614543565b92915050565b600073ffffffffffffffffffffffffffffffffffffffff82169050919050565b600061459a8261456f565b9050919050565b6145aa8161458f565b81146145b557600080fd5b50565b6000813590506145c7816145a1565b92915050565b600080604083850312156145e4576145e3614534565b5b60006145f28582860161455a565b9250506020614603858286016145b8565b9150509250929050565b60006020828403121561462357614622614534565b5b6000614631848285016145b8565b91505092915050565b61464381614539565b82525050565b600060208201905061465e600083018461463a565b92915050565b6000806040838503121561467b5761467a614534565b5b6000614689858286016145b8565b925050602061469a8582860161455a565b9150509250929050565b60008115159050919050565b6146b9816146a4565b82525050565b60006020820190506146d460008301846146b0565b92915050565b60006146e58261458f565b9050919050565b6146f5816146da565b811461470057600080fd5b50565b600081359050614712816146ec565b92915050565b60006020828403121561472e5761472d614534565b5b600061473c84828501614703565b91505092915050565b60006147508261458f565b9050919050565b61476081614745565b811461476b57600080fd5b50565b60008135905061477d81614757565b92915050565b600061478e8261458f565b9050919050565b61479e81614783565b81146147a957600080fd5b50565b6000813590506147bb81614795565b92915050565b60006147cc8261458f565b9050919050565b6147dc816147c1565b81146147e757600080fd5b50565b6000813590506147f9816147d3565b92915050565b600061480a8261456f565b9050919050565b61481a816147ff565b811461482557600080fd5b50565b60008135905061483781614811565b92915050565b600080600080600080600060e0888a03121561485c5761485b614534565b5b600061486a8a828b0161476e565b975050602061487b8a828b016147ac565b965050604061488c8a828b016147ea565b955050606061489d8a828b016147ea565b94505060806148ae8a828b01614828565b93505060a06148bf8a828b01614703565b92505060c06148d08a828b0161455a565b91505092959891949750929550565b6000806000606084860312156148f8576148f7614534565b5b6000614906868287016145b8565b9350506020614917868287016145b8565b92505060406149288682870161455a565b9150509250925092565b60006020828403121561494857614947614534565b5b60006149568482850161455a565b91505092915050565b6000819050919050565b600061498461497f61497a8461456f565b61495f565b61456f565b9050919050565b600061499682614969565b9050919050565b60006149a88261498b565b9050919050565b6149b88161499d565b82525050565b60006020820190506149d360008301846149af565b92915050565b6000602082840312156149ef576149ee614534565b5b60006149fd8482850161476e565b91505092915050565b6000614a118261498b565b9050919050565b614a2181614a06565b82525050565b6000602082019050614a3c6000830184614a18565b92915050565b614a4b8161458f565b82525050565b6000602082019050614a666000830184614a42565b92915050565b614a75816147ff565b82525050565b6000602082019050614a906000830184614a6c565b92915050565b600060059050919050565b600081905092915050565b6000819050919050565b614abf81614539565b82525050565b6000614ad18383614ab6565b60208301905092915050565b6000602082019050919050565b614af381614a96565b614afd8184614aa1565b9250614b0882614aac565b8060005b83811015614b39578151614b208782614ac5565b9650614b2b83614add565b925050600181019050614b0c565b505050505050565b600060a082019050614b566000830184614aea565b92915050565b6000614b678261498b565b9050919050565b614b7781614b5c565b82525050565b6000602082019050614b926000830184614b6e565b92915050565b60008060408385031215614baf57614bae614534565b5b6000614bbd858286016145b8565b9250506020614bce858286016145b8565b9150509250929050565b6000614be38261498b565b9050919050565b614bf381614bd8565b82525050565b6000602082019050614c0e6000830184614bea565b92915050565b600060208284031215614c2a57614c29614534565b5b6000614c38848285016147ac565b91505092915050565b600082825260208201905092915050565b7f4f776e61626c653a2063616c6c6572206973206e6f7420746865206f776e6572600082015250565b6000614c88602083614c41565b9150614c9382614c52565b602082019050919050565b60006020820190508181036000830152614cb781614c7b565b9050919050565b7f5265656e7472616e637947756172643a207265656e7472616e742063616c6c00600082015250565b6000614cf4601f83614c41565b9150614cff82614cbe565b602082019050919050565b60006020820190508181036000830152614d2381614ce7565b9050919050565b600081519050614d3981614543565b92915050565b600060208284031215614d5557614d54614534565b5b6000614d6384828501614d2a565b91505092915050565b7f4e487b7100000000000000000000000000000000000000000000000000000000600052601160045260246000fd5b6000614da682614539565b9150614db183614539565b9250828201905080821115614dc957614dc8614d6c565b5b92915050565b6000614dda82614539565b9150614de583614539565b9250828203905081811115614dfd57614dfc614d6c565b5b92915050565b7f496e697469616c697a61626c653a20636f6e747261637420697320616c72656160008201527f647920696e697469616c697a6564000000000000000000000000000000000000602082015250565b6000614e5f602e83614c41565b9150614e6a82614e03565b604082019050919050565b60006020820190508181036000830152614e8e81614e52565b9050919050565b7f57726f6e6720696e697420617267756d656e7473000000000000000000000000600082015250565b6000614ecb601483614c41565b9150614ed682614e95565b602082019050919050565b60006020820190508181036000830152614efa81614ebe565b9050919050565b6000604082019050614f16600083018561463a565b614f23602083018461463a565b9392505050565b6000604082019050614f3f600083018561463a565b614f4c6020830184614a42565b9392505050565b614f5c816146a4565b8114614f6757600080fd5b50565b600081519050614f7981614f53565b92915050565b600060208284031215614f9557614f94614534565b5b6000614fa384828501614f6a565b91505092915050565b6000614fb782614539565b9150614fc283614539565b9250828202614fd081614539565b91508282048414831517614fe757614fe6614d6c565b5b5092915050565b7f4e487b7100000000000000000000000000000000000000000000000000000000600052601260045260246000fd5b600061502882614539565b915061503383614539565b92508261504357615042614fee565b5b828204905092915050565b7f4f776e61626c653a206e6577206f776e657220697320746865207a65726f206160008201527f6464726573730000000000000000000000000000000000000000000000000000602082015250565b60006150aa602683614c41565b91506150b58261504e565b604082019050919050565b600060208201905081810360008301526150d98161509d565b9050919050565b7f496e697469616c697a61626c653a20636f6e7472616374206973206e6f74206960008201527f6e697469616c697a696e67000000000000000000000000000000000000000000602082015250565b600061513c602b83614c41565b9150615147826150e0565b604082019050919050565b6000602082019050818103600083015261516b8161512f565b9050919050565b60006040820190506151876000830185614a42565b615194602083018461463a565b9392505050565b600081519050919050565b600081905092915050565b60005b838110156151cf5780820151818401526020810190506151b4565b60008484015250505050565b60006151e68261519b565b6151f081856151a6565b93506152008185602086016151b1565b80840191505092915050565b600061521882846151db565b915081905092915050565b7f5472616e7366657248656c7065723a3a736166655472616e736665723a20747260008201527f616e73666572206661696c656400000000000000000000000000000000000000602082015250565b600061527f602d83614c41565b915061528a82615223565b604082019050919050565b600060208201905081810360008301526152ae81615272565b9050919050565b60006060820190506152ca6000830186614a42565b6152d76020830185614a42565b6152e4604083018461463a565b949350505050565b7f5472616e7366657248656c7065723a3a7472616e7366657246726f6d3a20747260008201527f616e7366657246726f6d206661696c6564000000000000000000000000000000602082015250565b6000615348603183614c41565b9150615353826152ec565b604082019050919050565b600060208201905081810360008301526153778161533b565b905091905056fea264697066735822122079bc53cf48eddeeb19af41a95186092eb9986efe68da9d4ab07c57e37843da6364736f6c63430008110033a2646970667358221220943de5962134e1655ce8c32dc2f892fd9223c54da76f89541e8eef28a8ad5e7464736f6c63430008110033",
  "devdoc": {
    "details": "Contract factory allowing anyone to deploy a pool contract",
    "events": {
      "PoolDeployed(address,address,uint256)": {
        "details": "emitted after pool is deployed by any user",
        "params": {
          "poolAddress": "of deployed pool",
          "timestamp": "of the deployment*",
          "user": "the address initiating the deployment"
        }
      }
    },
    "kind": "dev",
    "methods": {},
    "title": "PoolFactory",
    "version": 1
  },
  "userdoc": {
    "kind": "user",
    "methods": {},
    "version": 1
  },
  "storageLayout": {
    "storage": [],
    "types": null
  }
}