{
  "address": "0xF74c441AA16294a222b360a98989b8A33f3CceA1",
  "abi": [
    {
      "inputs": [],
      "name": "CalldataMustHaveValidPayload",
      "type": "error"
    },
    {
      "inputs": [],
      "name": "CalldataOverOrUnderFlow",
      "type": "error"
    },
    {
      "inputs": [],
      "name": "EachSignerMustProvideTheSameValue",
      "type": "error"
    },
    {
      "inputs": [],
      "name": "EmptyCalldataPointersArr",
      "type": "error"
    },
    {
      "inputs": [],
      "name": "IncorrectUnsignedMetadataSize",
      "type": "error"
    },
    {
      "inputs": [
        {
          "internalType": "uint256",
          "name": "receviedSignersCount",
          "type": "uint256"
        },
        {
          "internalType": "uint256",
          "name": "requiredSignersCount",
          "type": "uint256"
        }
      ],
      "name": "InsufficientNumberOfUniqueSigners",
      "type": "error"
    },
    {
      "inputs": [],
      "name": "InvalidCalldataPointer",
      "type": "error"
    },
    {
      "inputs": [
        {
          "internalType": "bytes",
          "name": "result",
          "type": "bytes"
        }
      ],
      "name": "ProxyCalldataFailedWithCustomError",
      "type": "error"
    },
    {
      "inputs": [
        {
          "internalType": "string",
          "name": "message",
          "type": "string"
        }
      ],
      "name": "ProxyCalldataFailedWithStringMessage",
      "type": "error"
    },
    {
      "inputs": [],
      "name": "ProxyCalldataFailedWithoutErrMsg",
      "type": "error"
    },
    {
      "inputs": [
        {
          "internalType": "address",
          "name": "receivedSigner",
          "type": "address"
        }
      ],
      "name": "SignerNotAuthorised",
      "type": "error"
    },
    {
      "anonymous": false,
      "inputs": [
        {
          "indexed": true,
          "internalType": "address",
          "name": "user",
          "type": "address"
        },
        {
          "indexed": true,
          "internalType": "bytes32",
          "name": "asset",
          "type": "bytes32"
        },
        {
          "indexed": true,
          "internalType": "address",
          "name": "vault",
          "type": "address"
        },
        {
          "indexed": false,
          "internalType": "uint256",
          "name": "migratedAmount",
          "type": "uint256"
        },
        {
          "indexed": false,
          "internalType": "uint256",
          "name": "timestamp",
          "type": "uint256"
        }
      ],
      "name": "Migrated",
      "type": "event"
    },
    {
      "anonymous": false,
      "inputs": [
        {
          "indexed": true,
          "internalType": "address",
          "name": "user",
          "type": "address"
        },
        {
          "indexed": true,
          "internalType": "bytes32",
          "name": "asset",
          "type": "bytes32"
        },
        {
          "indexed": true,
          "internalType": "address",
          "name": "vault",
          "type": "address"
        },
        {
          "indexed": false,
          "internalType": "uint256",
          "name": "depositTokenAmount",
          "type": "uint256"
        },
        {
          "indexed": false,
          "internalType": "uint256",
          "name": "receiptTokenAmount",
          "type": "uint256"
        },
        {
          "indexed": false,
          "internalType": "uint256",
          "name": "timestamp",
          "type": "uint256"
        }
      ],
      "name": "Staked",
      "type": "event"
    },
    {
      "anonymous": false,
      "inputs": [
        {
          "indexed": true,
          "internalType": "address",
          "name": "user",
          "type": "address"
        },
        {
          "indexed": true,
          "internalType": "bytes32",
          "name": "asset",
          "type": "bytes32"
        },
        {
          "indexed": true,
          "internalType": "address",
          "name": "vault",
          "type": "address"
        },
        {
          "indexed": false,
          "internalType": "uint256",
          "name": "depositTokenAmount",
          "type": "uint256"
        },
        {
          "indexed": false,
          "internalType": "uint256",
          "name": "receiptTokenAmount",
          "type": "uint256"
        },
        {
          "indexed": false,
          "internalType": "uint256",
          "name": "timestamp",
          "type": "uint256"
        }
      ],
      "name": "Unstaked",
      "type": "event"
    },
    {
      "inputs": [
        {
          "internalType": "bytes32[]",
          "name": "assetsToRepay",
          "type": "bytes32[]"
        }
      ],
      "name": "_getAllPricesForLiquidation",
      "outputs": [
        {
          "components": [
            {
              "components": [
                {
                  "internalType": "bytes32",
                  "name": "asset",
                  "type": "bytes32"
                },
                {
                  "internalType": "uint256",
                  "name": "price",
                  "type": "uint256"
                }
              ],
              "internalType": "struct SolvencyFacetProd.AssetPrice[]",
              "name": "ownedAssetsPrices",
              "type": "tuple[]"
            },
            {
              "components": [
                {
                  "internalType": "bytes32",
                  "name": "asset",
                  "type": "bytes32"
                },
                {
                  "internalType": "uint256",
                  "name": "price",
                  "type": "uint256"
                }
              ],
              "internalType": "struct SolvencyFacetProd.AssetPrice[]",
              "name": "debtAssetsPrices",
              "type": "tuple[]"
            },
            {
              "components": [
                {
                  "internalType": "bytes32",
                  "name": "asset",
                  "type": "bytes32"
                },
                {
                  "internalType": "uint256",
                  "name": "price",
                  "type": "uint256"
                }
              ],
              "internalType": "struct SolvencyFacetProd.AssetPrice[]",
              "name": "stakedPositionsPrices",
              "type": "tuple[]"
            },
            {
              "components": [
                {
                  "internalType": "bytes32",
                  "name": "asset",
                  "type": "bytes32"
                },
                {
                  "internalType": "uint256",
                  "name": "price",
                  "type": "uint256"
                }
              ],
              "internalType": "struct SolvencyFacetProd.AssetPrice[]",
              "name": "assetsToRepayPrices",
              "type": "tuple[]"
            }
          ],
          "internalType": "struct SolvencyFacetProd.CachedPrices",
          "name": "result",
          "type": "tuple"
        }
      ],
      "stateMutability": "nonpayable",
      "type": "function"
    },
    {
      "inputs": [],
      "name": "_getHealthRatio",
      "outputs": [
        {
          "internalType": "uint256",
          "name": "health",
          "type": "uint256"
        }
      ],
      "stateMutability": "nonpayable",
      "type": "function"
    },
    {
      "inputs": [
        {
          "components": [
            {
              "components": [
                {
                  "internalType": "bytes32",
                  "name": "asset",
                  "type": "bytes32"
                },
                {
                  "internalType": "uint256",
                  "name": "price",
                  "type": "uint256"
                }
              ],
              "internalType": "struct SolvencyFacetProd.AssetPrice[]",
              "name": "ownedAssetsPrices",
              "type": "tuple[]"
            },
            {
              "components": [
                {
                  "internalType": "bytes32",
                  "name": "asset",
                  "type": "bytes32"
                },
                {
                  "internalType": "uint256",
                  "name": "price",
                  "type": "uint256"
                }
              ],
              "internalType": "struct SolvencyFacetProd.AssetPrice[]",
              "name": "debtAssetsPrices",
              "type": "tuple[]"
            },
            {
              "components": [
                {
                  "internalType": "bytes32",
                  "name": "asset",
                  "type": "bytes32"
                },
                {
                  "internalType": "uint256",
                  "name": "price",
                  "type": "uint256"
                }
              ],
              "internalType": "struct SolvencyFacetProd.AssetPrice[]",
              "name": "stakedPositionsPrices",
              "type": "tuple[]"
            },
            {
              "components": [
                {
                  "internalType": "bytes32",
                  "name": "asset",
                  "type": "bytes32"
                },
                {
                  "internalType": "uint256",
                  "name": "price",
                  "type": "uint256"
                }
              ],
              "internalType": "struct SolvencyFacetProd.AssetPrice[]",
              "name": "assetsToRepayPrices",
              "type": "tuple[]"
            }
          ],
          "internalType": "struct SolvencyFacetProd.CachedPrices",
          "name": "cachedPrices",
          "type": "tuple"
        }
      ],
      "name": "_getHealthRatioWithPrices",
      "outputs": [
        {
          "internalType": "uint256",
          "name": "health",
          "type": "uint256"
        }
      ],
      "stateMutability": "nonpayable",
      "type": "function"
    },
    {
      "inputs": [],
      "name": "_resetPrimeAccountAssetsExposure",
      "outputs": [],
      "stateMutability": "nonpayable",
      "type": "function"
    },
    {
      "inputs": [],
      "name": "_setPrimeAccountAssetsExposure",
      "outputs": [],
      "stateMutability": "nonpayable",
      "type": "function"
    },
    {
      "inputs": [
        {
          "internalType": "bytes32",
          "name": "symbol",
          "type": "bytes32"
        }
      ],
      "name": "getPrice",
      "outputs": [
        {
          "internalType": "uint256",
          "name": "price",
          "type": "uint256"
        }
      ],
      "stateMutability": "nonpayable",
      "type": "function"
    },
    {
      "inputs": [
        {
          "internalType": "bytes32[]",
          "name": "symbols",
          "type": "bytes32[]"
        }
      ],
      "name": "getPrices",
      "outputs": [
        {
          "internalType": "uint256[]",
          "name": "prices",
          "type": "uint256[]"
        }
      ],
      "stateMutability": "nonpayable",
      "type": "function"
    },
    {
      "inputs": [],
      "name": "vectorMigrateAvax",
      "outputs": [],
      "stateMutability": "nonpayable",
      "type": "function"
    },
    {
      "inputs": [],
      "name": "vectorMigrateSAvax",
      "outputs": [],
      "stateMutability": "nonpayable",
      "type": "function"
    },
    {
      "inputs": [],
      "name": "vectorSAVAX1BalanceAuto",
      "outputs": [
        {
          "internalType": "uint256",
          "name": "_stakedBalance",
          "type": "uint256"
        }
      ],
      "stateMutability": "view",
      "type": "function"
    },
    {
      "inputs": [
        {
          "internalType": "uint256",
          "name": "amount",
          "type": "uint256"
        }
      ],
      "name": "vectorStakeSAVAX1Auto",
      "outputs": [],
      "stateMutability": "nonpayable",
      "type": "function"
    },
    {
      "inputs": [
        {
          "internalType": "uint256",
          "name": "amount",
          "type": "uint256"
        }
      ],
      "name": "vectorStakeUSDC1Auto",
      "outputs": [],
      "stateMutability": "nonpayable",
      "type": "function"
    },
    {
      "inputs": [
        {
          "internalType": "uint256",
          "name": "amount",
          "type": "uint256"
        }
      ],
      "name": "vectorStakeUSDT1Auto",
      "outputs": [],
      "stateMutability": "nonpayable",
      "type": "function"
    },
    {
      "inputs": [
        {
          "internalType": "uint256",
          "name": "amount",
          "type": "uint256"
        }
      ],
      "name": "vectorStakeWAVAX1Auto",
      "outputs": [],
      "stateMutability": "nonpayable",
      "type": "function"
    },
    {
      "inputs": [],
      "name": "vectorUSDC1BalanceAuto",
      "outputs": [
        {
          "internalType": "uint256",
          "name": "_stakedBalance",
          "type": "uint256"
        }
      ],
      "stateMutability": "view",
      "type": "function"
    },
    {
      "inputs": [],
      "name": "vectorUSDT1BalanceAuto",
      "outputs": [
        {
          "internalType": "uint256",
          "name": "_stakedBalance",
          "type": "uint256"
        }
      ],
      "stateMutability": "view",
      "type": "function"
    },
    {
      "inputs": [
        {
          "internalType": "uint256",
          "name": "amount",
          "type": "uint256"
        },
        {
          "internalType": "uint256",
          "name": "minAmount",
          "type": "uint256"
        }
      ],
      "name": "vectorUnstakeSAVAX1Auto",
      "outputs": [],
      "stateMutability": "nonpayable",
      "type": "function"
    },
    {
      "inputs": [
        {
          "internalType": "uint256",
          "name": "amount",
          "type": "uint256"
        },
        {
          "internalType": "uint256",
          "name": "minAmount",
          "type": "uint256"
        }
      ],
      "name": "vectorUnstakeUSDC1Auto",
      "outputs": [],
      "stateMutability": "nonpayable",
      "type": "function"
    },
    {
      "inputs": [
        {
          "internalType": "uint256",
          "name": "amount",
          "type": "uint256"
        },
        {
          "internalType": "uint256",
          "name": "minAmount",
          "type": "uint256"
        }
      ],
      "name": "vectorUnstakeUSDT1Auto",
      "outputs": [],
      "stateMutability": "nonpayable",
      "type": "function"
    },
    {
      "inputs": [
        {
          "internalType": "uint256",
          "name": "amount",
          "type": "uint256"
        },
        {
          "internalType": "uint256",
          "name": "minAmount",
          "type": "uint256"
        }
      ],
      "name": "vectorUnstakeWAVAX1Auto",
      "outputs": [],
      "stateMutability": "nonpayable",
      "type": "function"
    },
    {
      "inputs": [],
      "name": "vectorWAVAX1BalanceAuto",
      "outputs": [
        {
          "internalType": "uint256",
          "name": "_stakedBalance",
          "type": "uint256"
        }
      ],
      "stateMutability": "view",
      "type": "function"
    }
  ],
  "transactionHash": "0xb51e857b903ec5c46960de829486e25fe87fea3b7918b780791a0eee32ef2669",
  "args": [],
  "numDeployments": 11,
  "solcInputHash": "d9c988fa0c23631d74b9796cb6519f8f",
  "bytecode": "0x608060405234801561001057600080fd5b506001600081905550614f94806100286000396000f3fe608060405234801561001057600080fd5b50600436106101375760003560e01c80638980f89c116100b8578063b2d40e731161007c578063b2d40e73146102f0578063bef48d7e14610320578063c208fa5e1461033c578063ebdcc28814610358578063f8f1855314610374578063fa4959f41461037e57610137565b80638980f89c146102745780639157b6f614610290578063922881f4146102ac578063a7e452e7146102ca578063ac1b1dbf146102e657610137565b80635b4fad9c116100ff5780635b4fad9c146101e257806363d606d6146101ec5780636e3bfe9f1461020a578063774005d81461023a5780637a6422421461025857610137565b8063013e788a1461013c57806326ee48361461014657806331d98b3f1461017657806339e2719e146101a657806343474482146101c4575b600080fd5b61014461039a565b005b610160600480360381019061015b9190613920565b6104ea565b60405161016d9190613a31565b60405180910390f35b610190600480360381019061018b9190613a53565b610594565b60405161019d9190613a8f565b60405180910390f35b6101ae61063e565b6040516101bb9190613a8f565b60405180910390f35b6101cc6106db565b6040516101d99190613a8f565b60405180910390f35b6101ea61086a565b005b6101f46108f0565b6040516102019190613a8f565b60405180910390f35b610224600480360381019061021f9190613cdb565b610a7f565b6040516102319190613a8f565b60405180910390f35b610242610b29565b60405161024f9190613a8f565b60405180910390f35b610272600480360381019061026d9190613d24565b610cb8565b005b61028e60048036038101906102899190613d51565b610da7565b005b6102aa60048036038101906102a59190613d24565b610e99565b005b6102b4610f88565b6040516102c19190613a8f565b60405180910390f35b6102e460048036038101906102df9190613d24565b611117565b005b6102ee611206565b005b61030a60048036038101906103059190613920565b611356565b6040516103179190613ef6565b60405180910390f35b61033a60048036038101906103359190613d24565b611406565b005b61035660048036038101906103519190613d51565b6114f5565b005b610372600480360381019061036d9190613d51565b6115e7565b005b61037c6116d9565b005b61039860048036038101906103939190613d51565b61175f565b005b60006040518060a00160405280732b2c81e08f1af8835a78bb2a90ae924ace0ea4be73ffffffffffffffffffffffffffffffffffffffff1681526020017f734156415800000000000000000000000000000000000000000000000000000081526020017f56465f53415641585f4d41494e5f4155544f0000000000000000000000000000815260200163774005d860e01b7bffffffffffffffffffffffffffffffffffffffffffffffffffffffff1916815260200163ebdcc28860e01b7bffffffffffffffffffffffffffffffffffffffffffffffffffffffff1916815250905060006104a7827f56465f53415641585f4d41494e00000000000000000000000000000000000000611851565b116104e7576040517f08c379a00000000000000000000000000000000000000000000000000000000081526004016104de90613f75565b60405180910390fd5b50565b606061057a6104ff6326ee483660e01b611b0a565b6326ee483660e01b846040516024016105189190614044565b604051602081830303815290604052907bffffffffffffffffffffffffffffffffffffffffffffffffffffffff19166020820180517bffffffffffffffffffffffffffffffffffffffffffffffffffffffff8381831617835250505050611b94565b80602001905181019061058d919061413e565b9050919050565b60006106246105a96331d98b3f60e01b611b0a565b6331d98b3f60e01b846040516024016105c29190614196565b604051602081830303815290604052907bffffffffffffffffffffffffffffffffffffffffffffffffffffffff19166020820180517bffffffffffffffffffffffffffffffffffffffffffffffffffffffff8381831617835250505050611b94565b80602001905181019061063791906141b1565b9050919050565b60006106c3610653637914334f60e01b611b0a565b637914334f60e01b604051602401604051602081830303815290604052907bffffffffffffffffffffffffffffffffffffffffffffffffffffffff19166020820180517bffffffffffffffffffffffffffffffffffffffffffffffffffffffff8381831617835250505050611b94565b8060200190518101906106d691906141b1565b905090565b6000806106fb73836648a8ce166ba7cafb27f0e6ad21d5c91b7774611c25565b73ffffffffffffffffffffffffffffffffffffffff1663fa2cc3c06040518163ffffffff1660e01b8152600401602060405180830381865afa158015610745573d6000803e3d6000fd5b505050506040513d601f19601f82011682018060405250810190610769919061424e565b905060008173ffffffffffffffffffffffffffffffffffffffff166370a08231306040518263ffffffff1660e01b81526004016107a6919061428a565b602060405180830381865afa1580156107c3573d6000803e3d6000fd5b505050506040513d601f19601f820116820180604052508101906107e791906141b1565b90508173ffffffffffffffffffffffffffffffffffffffff1663eab89a5a826040518263ffffffff1660e01b81526004016108229190613a8f565b602060405180830381865afa15801561083f573d6000803e3d6000fd5b505050506040513d601f19601f8201168201806040525081019061086391906141b1565b9250505090565b6108ed61087d63b1c9fbc160e01b611b0a565b63b1c9fbc160e01b604051602401604051602081830303815290604052907bffffffffffffffffffffffffffffffffffffffffffffffffffffffff19166020820180517bffffffffffffffffffffffffffffffffffffffffffffffffffffffff8381831617835250505050611b94565b50565b60008061091073b31f66aa3c1e785363f0875a1b74e27b85fd66c7611c25565b73ffffffffffffffffffffffffffffffffffffffff1663fa2cc3c06040518163ffffffff1660e01b8152600401602060405180830381865afa15801561095a573d6000803e3d6000fd5b505050506040513d601f19601f8201168201806040525081019061097e919061424e565b905060008173ffffffffffffffffffffffffffffffffffffffff166370a08231306040518263ffffffff1660e01b81526004016109bb919061428a565b602060405180830381865afa1580156109d8573d6000803e3d6000fd5b505050506040513d601f19601f820116820180604052508101906109fc91906141b1565b90508173ffffffffffffffffffffffffffffffffffffffff1663eab89a5a826040518263ffffffff1660e01b8152600401610a379190613a8f565b602060405180830381865afa158015610a54573d6000803e3d6000fd5b505050506040513d601f19601f82011682018060405250810190610a7891906141b1565b9250505090565b6000610b0f610a9463360398a360e01b611b0a565b63360398a360e01b84604051602401610aad9190613ef6565b604051602081830303815290604052907bffffffffffffffffffffffffffffffffffffffffffffffffffffffff19166020820180517bffffffffffffffffffffffffffffffffffffffffffffffffffffffff8381831617835250505050611b94565b806020019051810190610b2291906141b1565b9050919050565b600080610b49732b2c81e08f1af8835a78bb2a90ae924ace0ea4be611c25565b73ffffffffffffffffffffffffffffffffffffffff1663fa2cc3c06040518163ffffffff1660e01b8152600401602060405180830381865afa158015610b93573d6000803e3d6000fd5b505050506040513d601f19601f82011682018060405250810190610bb7919061424e565b905060008173ffffffffffffffffffffffffffffffffffffffff166370a08231306040518263ffffffff1660e01b8152600401610bf4919061428a565b602060405180830381865afa158015610c11573d6000803e3d6000fd5b505050506040513d601f19601f82011682018060405250810190610c3591906141b1565b90508173ffffffffffffffffffffffffffffffffffffffff1663eab89a5a826040518263ffffffff1660e01b8152600401610c709190613a8f565b602060405180830381865afa158015610c8d573d6000803e3d6000fd5b505050506040513d601f19601f82011682018060405250810190610cb191906141b1565b9250505090565b60006040518060a0016040528073b31f66aa3c1e785363f0875a1b74e27b85fd66c773ffffffffffffffffffffffffffffffffffffffff1681526020017f415641580000000000000000000000000000000000000000000000000000000081526020017f56465f415641585f53415641585f4155544f000000000000000000000000000081526020016363d606d660e01b7bffffffffffffffffffffffffffffffffffffffffffffffffffffffff1916815260200163fa4959f460e01b7bffffffffffffffffffffffffffffffffffffffffffffffffffffffff19168152509050610da38282611cc7565b5050565b60006040518060a0016040528073836648a8ce166ba7cafb27f0e6ad21d5c91b777473ffffffffffffffffffffffffffffffffffffffff1681526020017f555344540000000000000000000000000000000000000000000000000000000081526020017f56465f555344545f4d41494e5f4155544f0000000000000000000000000000008152602001634347448260e01b7bffffffffffffffffffffffffffffffffffffffffffffffffffffffff19168152602001638980f89c60e01b7bffffffffffffffffffffffffffffffffffffffffffffffffffffffff19168152509050610e938383836121b9565b50505050565b60006040518060a001604052807306f01502327de1c37076bea4689a7e44279155e973ffffffffffffffffffffffffffffffffffffffff1681526020017f555344430000000000000000000000000000000000000000000000000000000081526020017f56465f555344435f4d41494e5f4155544f000000000000000000000000000000815260200163922881f460e01b7bffffffffffffffffffffffffffffffffffffffffffffffffffffffff1916815260200163c208fa5e60e01b7bffffffffffffffffffffffffffffffffffffffffffffffffffffffff19168152509050610f848282611cc7565b5050565b600080610fa87306f01502327de1c37076bea4689a7e44279155e9611c25565b73ffffffffffffffffffffffffffffffffffffffff1663fa2cc3c06040518163ffffffff1660e01b8152600401602060405180830381865afa158015610ff2573d6000803e3d6000fd5b505050506040513d601f19601f82011682018060405250810190611016919061424e565b905060008173ffffffffffffffffffffffffffffffffffffffff166370a08231306040518263ffffffff1660e01b8152600401611053919061428a565b602060405180830381865afa158015611070573d6000803e3d6000fd5b505050506040513d601f19601f8201168201806040525081019061109491906141b1565b90508173ffffffffffffffffffffffffffffffffffffffff1663eab89a5a826040518263ffffffff1660e01b81526004016110cf9190613a8f565b602060405180830381865afa1580156110ec573d6000803e3d6000fd5b505050506040513d601f19601f8201168201806040525081019061111091906141b1565b9250505090565b60006040518060a00160405280732b2c81e08f1af8835a78bb2a90ae924ace0ea4be73ffffffffffffffffffffffffffffffffffffffff1681526020017f734156415800000000000000000000000000000000000000000000000000000081526020017f56465f53415641585f4d41494e5f4155544f0000000000000000000000000000815260200163774005d860e01b7bffffffffffffffffffffffffffffffffffffffffffffffffffffffff1916815260200163ebdcc28860e01b7bffffffffffffffffffffffffffffffffffffffffffffffffffffffff191681525090506112028282611cc7565b5050565b60006040518060a0016040528073b31f66aa3c1e785363f0875a1b74e27b85fd66c773ffffffffffffffffffffffffffffffffffffffff1681526020017f415641580000000000000000000000000000000000000000000000000000000081526020017f56465f415641585f53415641585f4155544f000000000000000000000000000081526020016363d606d660e01b7bffffffffffffffffffffffffffffffffffffffffffffffffffffffff1916815260200163fa4959f460e01b7bffffffffffffffffffffffffffffffffffffffffffffffffffffffff191681525090506000611313827f56465f415641585f534156415800000000000000000000000000000000000000611851565b11611353576040517f08c379a000000000000000000000000000000000000000000000000000000000815260040161134a90613f75565b60405180910390fd5b50565b61135e613755565b6113ec61137163a3aa8d1e60e01b611b0a565b63a3aa8d1e60e01b8460405160240161138a9190614044565b604051602081830303815290604052907bffffffffffffffffffffffffffffffffffffffffffffffffffffffff19166020820180517bffffffffffffffffffffffffffffffffffffffffffffffffffffffff8381831617835250505050611b94565b8060200190518101906113ff9190614489565b9050919050565b60006040518060a0016040528073836648a8ce166ba7cafb27f0e6ad21d5c91b777473ffffffffffffffffffffffffffffffffffffffff1681526020017f555344540000000000000000000000000000000000000000000000000000000081526020017f56465f555344545f4d41494e5f4155544f0000000000000000000000000000008152602001634347448260e01b7bffffffffffffffffffffffffffffffffffffffffffffffffffffffff19168152602001638980f89c60e01b7bffffffffffffffffffffffffffffffffffffffffffffffffffffffff191681525090506114f18282611cc7565b5050565b60006040518060a001604052807306f01502327de1c37076bea4689a7e44279155e973ffffffffffffffffffffffffffffffffffffffff1681526020017f555344430000000000000000000000000000000000000000000000000000000081526020017f56465f555344435f4d41494e5f4155544f000000000000000000000000000000815260200163922881f460e01b7bffffffffffffffffffffffffffffffffffffffffffffffffffffffff1916815260200163c208fa5e60e01b7bffffffffffffffffffffffffffffffffffffffffffffffffffffffff191681525090506115e18383836121b9565b50505050565b60006040518060a00160405280732b2c81e08f1af8835a78bb2a90ae924ace0ea4be73ffffffffffffffffffffffffffffffffffffffff1681526020017f734156415800000000000000000000000000000000000000000000000000000081526020017f56465f53415641585f4d41494e5f4155544f0000000000000000000000000000815260200163774005d860e01b7bffffffffffffffffffffffffffffffffffffffffffffffffffffffff1916815260200163ebdcc28860e01b7bffffffffffffffffffffffffffffffffffffffffffffffffffffffff191681525090506116d38383836121b9565b50505050565b61175c6116ec63e017e12560e01b611b0a565b63e017e12560e01b604051602401604051602081830303815290604052907bffffffffffffffffffffffffffffffffffffffffffffffffffffffff19166020820180517bffffffffffffffffffffffffffffffffffffffffffffffffffffffff8381831617835250505050611b94565b50565b60006040518060a0016040528073b31f66aa3c1e785363f0875a1b74e27b85fd66c773ffffffffffffffffffffffffffffffffffffffff1681526020017f415641580000000000000000000000000000000000000000000000000000000081526020017f56465f415641585f53415641585f4155544f000000000000000000000000000081526020016363d606d660e01b7bffffffffffffffffffffffffffffffffffffffffffffffffffffffff1916815260200163fa4959f460e01b7bffffffffffffffffffffffffffffffffffffffffffffffffffffffff1916815250905061184b8383836121b9565b50505050565b600061185b612856565b60006118656128f1565b905060028160000154036118ae576040517f08c379a00000000000000000000000000000000000000000000000000000000081526004016118a59061451e565b60405180910390fd5b600281600001819055506118c061086a565b60006118cf8560000151611c25565b905060008173ffffffffffffffffffffffffffffffffffffffff1663fa2cc3c06040518163ffffffff1660e01b8152600401602060405180830381865afa15801561191e573d6000803e3d6000fd5b505050506040513d601f19601f82011682018060405250810190611942919061424e565b90508173ffffffffffffffffffffffffffffffffffffffff1663e3d670d7306040518263ffffffff1660e01b815260040161197d919061428a565b602060405180830381865afa15801561199a573d6000803e3d6000fd5b505050506040513d601f19601f820116820180604052508101906119be91906141b1565b93506000841115611aa8578073ffffffffffffffffffffffffffffffffffffffff1663e9430d1c6040518163ffffffff1660e01b8152600401600060405180830381600087803b158015611a1157600080fd5b505af1158015611a25573d6000803e3d6000fd5b50505050611a328561291e565b611a3b86612b3e565b8073ffffffffffffffffffffffffffffffffffffffff1686602001513373ffffffffffffffffffffffffffffffffffffffff167f40595db68efd89a94ac28580caf40200ad048a401aa16483e3f2c720438cb18a8742604051611a9f92919061453e565b60405180910390a45b5050611ab2612c81565b611af1576040517f08c379a0000000000000000000000000000000000000000000000000000000008152600401611ae8906145d9565b60405180910390fd5b611af96116d9565b600181600001819055505092915050565b6000611b14612d1e565b73ffffffffffffffffffffffffffffffffffffffff16630d741577836040518263ffffffff1660e01b8152600401611b4c9190614634565b602060405180830381865afa158015611b69573d6000803e3d6000fd5b505050506040513d601f19601f82011682018060405250810190611b8d919061467b565b9050919050565b60606000611ba183612d3a565b90506000808573ffffffffffffffffffffffffffffffffffffffff1683604051611bcb9190614719565b600060405180830381855af49150503d8060008114611c06576040519150601f19603f3d011682016040523d82523d6000602084013e611c0b565b606091505b5091509150611c1a8282612df4565b935050505092915050565b600080738b3d9f0017fa369cd8c164d0cc078bf4ca588ae590508073ffffffffffffffffffffffffffffffffffffffff166306bfa938846040518263ffffffff1660e01b8152600401611c78919061428a565b61012060405180830381865afa158015611c96573d6000803e3d6000fd5b505050506040513d601f19601f82011682018060405250810190611cba9190614848565b6101000151915050919050565b611ccf612856565b6000611cd96128f1565b90506002816000015403611d22576040517f08c379a0000000000000000000000000000000000000000000000000000000008152600401611d199061451e565b60405180910390fd5b60028160000181905550611d3461086a565b6000611d438360000151611c25565b73ffffffffffffffffffffffffffffffffffffffff1663fa2cc3c06040518163ffffffff1660e01b8152600401602060405180830381865afa158015611d8d573d6000803e3d6000fd5b505050506040513d601f19601f82011682018060405250810190611db1919061424e565b90506000611dc484602001516000612ef4565b905060008273ffffffffffffffffffffffffffffffffffffffff166370a08231306040518263ffffffff1660e01b8152600401611e01919061428a565b602060405180830381865afa158015611e1e573d6000803e3d6000fd5b505050506040513d601f19601f82011682018060405250810190611e4291906141b1565b9050611ec78273ffffffffffffffffffffffffffffffffffffffff166370a08231306040518263ffffffff1660e01b8152600401611e80919061428a565b602060405180830381865afa158015611e9d573d6000803e3d6000fd5b505050506040513d601f19601f82011682018060405250810190611ec191906141b1565b87612f81565b955060008611611f0c576040517f08c379a0000000000000000000000000000000000000000000000000000000008152600401611f03906148c2565b60405180910390fd5b611f388360008473ffffffffffffffffffffffffffffffffffffffff16612f9a9092919063ffffffff16565b611f6383878473ffffffffffffffffffffffffffffffffffffffff16612f9a9092919063ffffffff16565b8273ffffffffffffffffffffffffffffffffffffffff1663b6b55f25876040518263ffffffff1660e01b8152600401611f9c9190613a8f565b600060405180830381600087803b158015611fb657600080fd5b505af1158015611fca573d6000803e3d6000fd5b50505050611fd785612b3e565b60008273ffffffffffffffffffffffffffffffffffffffff166370a08231306040518263ffffffff1660e01b8152600401612012919061428a565b602060405180830381865afa15801561202f573d6000803e3d6000fd5b505050506040513d601f19601f8201168201806040525081019061205391906141b1565b036120665761206585602001516130d0565b5b8273ffffffffffffffffffffffffffffffffffffffff1685602001513373ffffffffffffffffffffffffffffffffffffffff167f28aaf99a9c15fc0b46ec3ae6e9781e7de835b464c00c2d039fb4c71c9cac2dd889858873ffffffffffffffffffffffffffffffffffffffff166370a08231306040518263ffffffff1660e01b81526004016120f5919061428a565b602060405180830381865afa158015612112573d6000803e3d6000fd5b505050506040513d601f19601f8201168201806040525081019061213691906141b1565b6121409190614911565b4260405161215093929190614945565b60405180910390a4505050612163612c81565b6121a2576040517f08c379a0000000000000000000000000000000000000000000000000000000008152600401612199906145d9565b60405180910390fd5b6121aa6116d9565b60018160000181905550505050565b6000806121c4612c81565b905080156121d9576121d4612856565b61229a565b6121e1612d1e565b73ffffffffffffffffffffffffffffffffffffffff1663e319fccc336040518263ffffffff1660e01b8152600401612219919061428a565b602060405180830381865afa158015612236573d6000803e3d6000fd5b505050506040513d601f19601f8201168201806040525081019061225a919061497c565b612299576040517f08c379a000000000000000000000000000000000000000000000000000000000815260040161229090614a1b565b60405180910390fd5b5b6122a261086a565b60006122ac6128f1565b905060028160000154036122f5576040517f08c379a00000000000000000000000000000000000000000000000000000000081526004016122ec9061451e565b60405180910390fd5b60028160000181905550600061230e8560000151611c25565b73ffffffffffffffffffffffffffffffffffffffff1663fa2cc3c06040518163ffffffff1660e01b8152600401602060405180830381865afa158015612358573d6000803e3d6000fd5b505050506040513d601f19601f8201168201806040525081019061237c919061424e565b9050600061238f86602001516000612ef4565b905060008273ffffffffffffffffffffffffffffffffffffffff166370a08231306040518263ffffffff1660e01b81526004016123cc919061428a565b602060405180830381865afa1580156123e9573d6000803e3d6000fd5b505050506040513d601f19601f8201168201806040525081019061240d91906141b1565b905060008911612452576040517f08c379a000000000000000000000000000000000000000000000000000000000815260040161244990614a87565b60405180910390fd5b6124d58373ffffffffffffffffffffffffffffffffffffffff16630eb25ee0306040518263ffffffff1660e01b815260040161248e919061428a565b602060405180830381865afa1580156124ab573d6000803e3d6000fd5b505050506040513d601f19601f820116820180604052508101906124cf91906141b1565b8a612f81565b985060008273ffffffffffffffffffffffffffffffffffffffff166370a08231306040518263ffffffff1660e01b8152600401612512919061428a565b602060405180830381865afa15801561252f573d6000803e3d6000fd5b505050506040513d601f19601f8201168201806040525081019061255391906141b1565b90508373ffffffffffffffffffffffffffffffffffffffff1663441a3e708b8b6040518363ffffffff1660e01b815260040161259092919061453e565b600060405180830381600087803b1580156125aa57600080fd5b505af11580156125be573d6000803e3d6000fd5b5050505060008373ffffffffffffffffffffffffffffffffffffffff166370a08231306040518263ffffffff1660e01b81526004016125fd919061428a565b602060405180830381865afa15801561261a573d6000803e3d6000fd5b505050506040513d601f19601f8201168201806040525081019061263e91906141b1565b905060008573ffffffffffffffffffffffffffffffffffffffff16630eb25ee0306040518263ffffffff1660e01b815260040161267b919061428a565b602060405180830381865afa158015612698573d6000803e3d6000fd5b505050506040513d601f19601f820116820180604052508101906126bc91906141b1565b036126cf576126ce896040015161291e565b5b6126dd8960200151856130ee565b8473ffffffffffffffffffffffffffffffffffffffff1689602001513373ffffffffffffffffffffffffffffffffffffffff167f62e55d72647d2b18acd6db9b772cb8f9c0f9a6ab6cdca02278f90e3f40c42689858561273d9190614911565b8973ffffffffffffffffffffffffffffffffffffffff166370a08231306040518263ffffffff1660e01b8152600401612776919061428a565b602060405180830381865afa158015612793573d6000803e3d6000fd5b505050506040513d601f19601f820116820180604052508101906127b791906141b1565b886127c29190614911565b426040516127d293929190614945565b60405180910390a481816127e69190614911565b9750505050505060018160000181905550506128006116d9565b801561284e5761280e612c81565b61284d576040517f08c379a000000000000000000000000000000000000000000000000000000000815260040161284490614af3565b60405180910390fd5b5b509392505050565b61285e6131c0565b60010160009054906101000a900473ffffffffffffffffffffffffffffffffffffffff1673ffffffffffffffffffffffffffffffffffffffff163373ffffffffffffffffffffffffffffffffffffffff16146128ef576040517f08c379a00000000000000000000000000000000000000000000000000000000081526004016128e690614b85565b60405180910390fd5b565b6000807f1c85eba10a4cf2d29c83fc15f97931886b9fd3caeb70d8c377aeedc58b919e3b90508091505090565b60006129286131ed565b905060005b8180549050811015612b39578282828154811061294d5761294c614ba5565b5b90600052602060002090600402016002015403612b265781600183805490506129769190614911565b8154811061298757612986614ba5565b5b90600052602060002090600402018282815481106129a8576129a7614ba5565b5b90600052602060002090600402016000820160009054906101000a900473ffffffffffffffffffffffffffffffffffffffff168160000160006101000a81548173ffffffffffffffffffffffffffffffffffffffff021916908373ffffffffffffffffffffffffffffffffffffffff16021790555060018201548160010155600282015481600201556003820160009054906101000a900460e01b8160030160006101000a81548163ffffffff021916908360e01c02179055506003820160049054906101000a900460e01b8160030160046101000a81548163ffffffff021916908360e01c021790555090505081805480612aa757612aa6614bd4565b5b6001900381819060005260206000209060040201600080820160006101000a81549073ffffffffffffffffffffffffffffffffffffffff0219169055600182016000905560028201600090556003820160006101000a81549063ffffffff02191690556003820160046101000a81549063ffffffff0219169055505090555b8080612b3190614c03565b91505061292d565b505050565b6000612b486131ed565b90506000805b8280549050811015612ba5578360400151838281548110612b7257612b71614ba5565b5b90600052602060002090600402016002015403612b925760019150612ba5565b8080612b9d90614c03565b915050612b4e565b5080612c7c578183908060018154018082558091505060019003906000526020600020906004020160009091909190915060008201518160000160006101000a81548173ffffffffffffffffffffffffffffffffffffffff021916908373ffffffffffffffffffffffffffffffffffffffff160217905550602082015181600101556040820151816002015560608201518160030160006101000a81548163ffffffff021916908360e01c021790555060808201518160030160046101000a81548163ffffffff021916908360e01c021790555050505b505050565b6000612d06612c96635ce2395060e01b611b0a565b635ce2395060e01b604051602401604051602081830303815290604052907bffffffffffffffffffffffffffffffffffffffffffffffffffffffff19166020820180517bffffffffffffffffffffffffffffffffffffffffffffffffffffffff8381831617835250505050611b94565b806020019051810190612d19919061497c565b905090565b6000732916b3bf7c35bd21e63d01c93c62fb0d4994e56d905090565b60606000825190506000612d4c6131ff565b905060008183612d5c9190614c4b565b90506000369050821115612d9c576040517f5796f78a00000000000000000000000000000000000000000000000000000000815260040160405180910390fd5b6060604051905081815285602001848101826020015b81831015612dcf5782518152602083019250602081019050612db2565b5050508283360385602001830137602084840182010160405280945050505050919050565b606082612eeb576000825103612e36576040517f567fe27a00000000000000000000000000000000000000000000000000000000815260040160405180910390fd5b600060208301517f08c379a00000000000000000000000000000000000000000000000000000000081149150508015612eae576060604484019050806040517f0f7e8278000000000000000000000000000000000000000000000000000000008152600401612ea59190614cc3565b60405180910390fd5b826040517ffd36fde3000000000000000000000000000000000000000000000000000000008152600401612ee29190614d2f565b60405180910390fd5b81905092915050565b6000612efe61326f565b73ffffffffffffffffffffffffffffffffffffffff166325eb876f84846040518363ffffffff1660e01b8152600401612f38929190614d60565b602060405180830381865afa158015612f55573d6000803e3d6000fd5b505050506040513d601f19601f82011682018060405250810190612f79919061467b565b905092915050565b6000818310612f905781612f92565b825b905092915050565b6000808473ffffffffffffffffffffffffffffffffffffffff1663095ea7b38585604051602401612fcc929190614d89565b6040516020818303038152906040529060e01b6020820180517bffffffffffffffffffffffffffffffffffffffffffffffffffffffff838183161783525050505060405161301a9190614719565b6000604051808303816000865af19150503d8060008114613057576040519150601f19603f3d011682016040523d82523d6000602084013e61305c565b606091505b509150915081801561308a5750600081511480613089575080806020019051810190613088919061497c565b5b5b6130c9576040517f08c379a00000000000000000000000000000000000000000000000000000000081526004016130c090614e24565b60405180910390fd5b5050505050565b60006130da6131c0565b90506130e9816004018361328b565b505050565b60008203613131576040517f08c379a000000000000000000000000000000000000000000000000000000000815260040161312890614e90565b60405180910390fd5b600073ffffffffffffffffffffffffffffffffffffffff168173ffffffffffffffffffffffffffffffffffffffff16036131a0576040517f08c379a000000000000000000000000000000000000000000000000000000000815260040161319790614efc565b60405180910390fd5b60006131aa6131c0565b90506131ba8160040184846132a2565b50505050565b6000807f8d5bb42e0ac1496a2c326edc9c00758985246e6c2bb146d6c2f4a0d509e0960a90508091505090565b60006131f76131c0565b600701905090565b60008061320a6132d4565b90506000613217826133e5565b61ffff16905060028261322a9190614c4b565b915060005b8181101561326657600061324284613441565b905080846132509190614c4b565b935050808061325e90614c03565b91505061322f565b50819250505090565b600073f3978209b7cff2b90100c6f87cec77de928ed58e905090565b600061329a8360000183613480565b905092915050565b60006132cb84600001848473ffffffffffffffffffffffffffffffffffffffff1660001b6134b9565b90509392505050565b60008060203603356602ed57011e000081166602ed57011e00001491505080613329576040517fe7764c9e00000000000000000000000000000000000000000000000000000000815260040160405180910390fd5b60008036905060291115613369576040517f5796f78a00000000000000000000000000000000000000000000000000000000815260040160405180910390fd5b602936033590506000600960038362ffffff166133869190614c4b565b6133909190614c4b565b905060003690506002826133a49190614c4b565b11156133dc576040517fc30a7bd700000000000000000000000000000000000000000000000000000000815260040160405180910390fd5b80935050505090565b6000806020836133f59190614c4b565b90506000369050811115613435576040517f5796f78a00000000000000000000000000000000000000000000000000000000815260040160405180910390fd5b80360335915050919050565b600080600061344f846134f4565b91509150604e8160206134629190614c4b565b8361346d9190614f1c565b6134779190614c4b565b92505050919050565b6000826002016000838152602001908152602001600020600090556134b1828460000161356a90919063ffffffff16565b905092915050565b600081846002016000858152602001908152602001600020819055506134eb838560000161358190919063ffffffff16565b90509392505050565b60008060008060006041866135099190614c4b565b9050600061353060208361351d9190614c4b565b600036905061359890919063ffffffff16565b90508035935061354a60038261359890919063ffffffff16565b9050803592508362ffffff1695508263ffffffff16945050505050915091565b600061357983600001836135ae565b905092915050565b600061359083600001836136c2565b905092915050565b600081836135a69190614911565b905092915050565b600080836001016000848152602001908152602001600020549050600081146136b65760006001826135e09190614911565b90506000600186600001805490506135f89190614911565b905081811461366757600086600001828154811061361957613618614ba5565b5b906000526020600020015490508087600001848154811061363d5761363c614ba5565b5b90600052602060002001819055508387600101600083815260200190815260200160002081905550505b8560000180548061367b5761367a614bd4565b5b6001900381819060005260206000200160009055905585600101600086815260200190815260200160002060009055600193505050506136bc565b60009150505b92915050565b60006136ce8383613732565b61372757826000018290806001815401808255809150506001900390600052602060002001600090919091909150558260000180549050836001016000848152602001908152602001600020819055506001905061372c565b600090505b92915050565b600080836001016000848152602001908152602001600020541415905092915050565b6040518060800160405280606081526020016060815260200160608152602001606081525090565b6000604051905090565b600080fd5b600080fd5b600080fd5b6000601f19601f8301169050919050565b7f4e487b7100000000000000000000000000000000000000000000000000000000600052604160045260246000fd5b6137df82613796565b810181811067ffffffffffffffff821117156137fe576137fd6137a7565b5b80604052505050565b600061381161377d565b905061381d82826137d6565b919050565b600067ffffffffffffffff82111561383d5761383c6137a7565b5b602082029050602081019050919050565b600080fd5b6000819050919050565b61386681613853565b811461387157600080fd5b50565b6000813590506138838161385d565b92915050565b600061389c61389784613822565b613807565b905080838252602082019050602084028301858111156138bf576138be61384e565b5b835b818110156138e857806138d48882613874565b8452602084019350506020810190506138c1565b5050509392505050565b600082601f83011261390757613906613791565b5b8135613917848260208601613889565b91505092915050565b60006020828403121561393657613935613787565b5b600082013567ffffffffffffffff8111156139545761395361378c565b5b613960848285016138f2565b91505092915050565b600081519050919050565b600082825260208201905092915050565b6000819050602082019050919050565b6000819050919050565b6139a881613995565b82525050565b60006139ba838361399f565b60208301905092915050565b6000602082019050919050565b60006139de82613969565b6139e88185613974565b93506139f383613985565b8060005b83811015613a24578151613a0b88826139ae565b9750613a16836139c6565b9250506001810190506139f7565b5085935050505092915050565b60006020820190508181036000830152613a4b81846139d3565b905092915050565b600060208284031215613a6957613a68613787565b5b6000613a7784828501613874565b91505092915050565b613a8981613995565b82525050565b6000602082019050613aa46000830184613a80565b92915050565b600080fd5b600080fd5b600067ffffffffffffffff821115613acf57613ace6137a7565b5b602082029050602081019050919050565b613ae981613995565b8114613af457600080fd5b50565b600081359050613b0681613ae0565b92915050565b600060408284031215613b2257613b21613aaa565b5b613b2c6040613807565b90506000613b3c84828501613874565b6000830152506020613b5084828501613af7565b60208301525092915050565b6000613b6f613b6a84613ab4565b613807565b90508083825260208201905060408402830185811115613b9257613b9161384e565b5b835b81811015613bbb5780613ba78882613b0c565b845260208401935050604081019050613b94565b5050509392505050565b600082601f830112613bda57613bd9613791565b5b8135613bea848260208601613b5c565b91505092915050565b600060808284031215613c0957613c08613aaa565b5b613c136080613807565b9050600082013567ffffffffffffffff811115613c3357613c32613aaf565b5b613c3f84828501613bc5565b600083015250602082013567ffffffffffffffff811115613c6357613c62613aaf565b5b613c6f84828501613bc5565b602083015250604082013567ffffffffffffffff811115613c9357613c92613aaf565b5b613c9f84828501613bc5565b604083015250606082013567ffffffffffffffff811115613cc357613cc2613aaf565b5b613ccf84828501613bc5565b60608301525092915050565b600060208284031215613cf157613cf0613787565b5b600082013567ffffffffffffffff811115613d0f57613d0e61378c565b5b613d1b84828501613bf3565b91505092915050565b600060208284031215613d3a57613d39613787565b5b6000613d4884828501613af7565b91505092915050565b60008060408385031215613d6857613d67613787565b5b6000613d7685828601613af7565b9250506020613d8785828601613af7565b9150509250929050565b600081519050919050565b600082825260208201905092915050565b6000819050602082019050919050565b613dc681613853565b82525050565b604082016000820151613de26000850182613dbd565b506020820151613df5602085018261399f565b50505050565b6000613e078383613dcc565b60408301905092915050565b6000602082019050919050565b6000613e2b82613d91565b613e358185613d9c565b9350613e4083613dad565b8060005b83811015613e71578151613e588882613dfb565b9750613e6383613e13565b925050600181019050613e44565b5085935050505092915050565b60006080830160008301518482036000860152613e9b8282613e20565b91505060208301518482036020860152613eb58282613e20565b91505060408301518482036040860152613ecf8282613e20565b91505060608301518482036060860152613ee98282613e20565b9150508091505092915050565b60006020820190508181036000830152613f108184613e7e565b905092915050565b600082825260208201905092915050565b7f43616e6e6f74206d696772617465203020746f6b656e73000000000000000000600082015250565b6000613f5f601783613f18565b9150613f6a82613f29565b602082019050919050565b60006020820190508181036000830152613f8e81613f52565b9050919050565b600081519050919050565b600082825260208201905092915050565b6000819050602082019050919050565b6000613fcd8383613dbd565b60208301905092915050565b6000602082019050919050565b6000613ff182613f95565b613ffb8185613fa0565b935061400683613fb1565b8060005b8381101561403757815161401e8882613fc1565b975061402983613fd9565b92505060018101905061400a565b5085935050505092915050565b6000602082019050818103600083015261405e8184613fe6565b905092915050565b600067ffffffffffffffff821115614081576140806137a7565b5b602082029050602081019050919050565b6000815190506140a181613ae0565b92915050565b60006140ba6140b584614066565b613807565b905080838252602082019050602084028301858111156140dd576140dc61384e565b5b835b8181101561410657806140f28882614092565b8452602084019350506020810190506140df565b5050509392505050565b600082601f83011261412557614124613791565b5b81516141358482602086016140a7565b91505092915050565b60006020828403121561415457614153613787565b5b600082015167ffffffffffffffff8111156141725761417161378c565b5b61417e84828501614110565b91505092915050565b61419081613853565b82525050565b60006020820190506141ab6000830184614187565b92915050565b6000602082840312156141c7576141c6613787565b5b60006141d584828501614092565b91505092915050565b600073ffffffffffffffffffffffffffffffffffffffff82169050919050565b6000614209826141de565b9050919050565b600061421b826141fe565b9050919050565b61422b81614210565b811461423657600080fd5b50565b60008151905061424881614222565b92915050565b60006020828403121561426457614263613787565b5b600061427284828501614239565b91505092915050565b614284816141fe565b82525050565b600060208201905061429f600083018461427b565b92915050565b6000815190506142b48161385d565b92915050565b6000604082840312156142d0576142cf613aaa565b5b6142da6040613807565b905060006142ea848285016142a5565b60008301525060206142fe84828501614092565b60208301525092915050565b600061431d61431884613ab4565b613807565b905080838252602082019050604084028301858111156143405761433f61384e565b5b835b81811015614369578061435588826142ba565b845260208401935050604081019050614342565b5050509392505050565b600082601f83011261438857614387613791565b5b815161439884826020860161430a565b91505092915050565b6000608082840312156143b7576143b6613aaa565b5b6143c16080613807565b9050600082015167ffffffffffffffff8111156143e1576143e0613aaf565b5b6143ed84828501614373565b600083015250602082015167ffffffffffffffff81111561441157614410613aaf565b5b61441d84828501614373565b602083015250604082015167ffffffffffffffff81111561444157614440613aaf565b5b61444d84828501614373565b604083015250606082015167ffffffffffffffff81111561447157614470613aaf565b5b61447d84828501614373565b60608301525092915050565b60006020828403121561449f5761449e613787565b5b600082015167ffffffffffffffff8111156144bd576144bc61378c565b5b6144c9848285016143a1565b91505092915050565b7f5265656e7472616e637947756172643a207265656e7472616e742063616c6c00600082015250565b6000614508601f83613f18565b9150614513826144d2565b602082019050919050565b60006020820190508181036000830152614537816144fb565b9050919050565b60006040820190506145536000830185613a80565b6145606020830184613a80565b9392505050565b7f54686520616374696f6e206d617920636175736520616e206163636f756e742060008201527f746f206265636f6d6520696e736f6c76656e7400000000000000000000000000602082015250565b60006145c3603383613f18565b91506145ce82614567565b604082019050919050565b600060208201905081810360008301526145f2816145b6565b9050919050565b60007fffffffff0000000000000000000000000000000000000000000000000000000082169050919050565b61462e816145f9565b82525050565b60006020820190506146496000830184614625565b92915050565b614658816141fe565b811461466357600080fd5b50565b6000815190506146758161464f565b92915050565b60006020828403121561469157614690613787565b5b600061469f84828501614666565b91505092915050565b600081519050919050565b600081905092915050565b60005b838110156146dc5780820151818401526020810190506146c1565b60008484015250505050565b60006146f3826146a8565b6146fd81856146b3565b935061470d8185602086016146be565b80840191505092915050565b600061472582846146e8565b915081905092915050565b60008115159050919050565b61474581614730565b811461475057600080fd5b50565b6000815190506147628161473c565b92915050565b6000610120828403121561477f5761477e613aaa565b5b61478a610120613807565b9050600061479a84828501614092565b60008301525060206147ae84828501614753565b60208301525060406147c284828501614666565b60408301525060606147d684828501614666565b60608301525060806147ea84828501614092565b60808301525060a06147fe84828501614666565b60a08301525060c061481284828501614092565b60c08301525060e061482684828501614666565b60e08301525061010061483b84828501614666565b6101008301525092915050565b6000610120828403121561485f5761485e613787565b5b600061486d84828501614768565b91505092915050565b7f43616e6e6f74207374616b65203020746f6b656e730000000000000000000000600082015250565b60006148ac601583613f18565b91506148b782614876565b602082019050919050565b600060208201905081810360008301526148db8161489f565b9050919050565b7f4e487b7100000000000000000000000000000000000000000000000000000000600052601160045260246000fd5b600061491c82613995565b915061492783613995565b925082820390508181111561493f5761493e6148e2565b5b92915050565b600060608201905061495a6000830186613a80565b6149676020830185613a80565b6149746040830184613a80565b949350505050565b60006020828403121561499257614991613787565b5b60006149a084828501614753565b91505092915050565b7f4f6e6c792077686974656c6973746564206163636f756e74732063616e20706560008201527f72666f726d207468697320616374696f6e000000000000000000000000000000602082015250565b6000614a05603183613f18565b9150614a10826149a9565b604082019050919050565b60006020820190508181036000830152614a34816149f8565b9050919050565b7f43616e6e6f7420756e7374616b65203020746f6b656e73000000000000000000600082015250565b6000614a71601783613f18565b9150614a7c82614a3b565b602082019050919050565b60006020820190508181036000830152614aa081614a64565b9050919050565b7f4d757374207374617920736f6c76656e74000000000000000000000000000000600082015250565b6000614add601183613f18565b9150614ae882614aa7565b602082019050919050565b60006020820190508181036000830152614b0c81614ad0565b9050919050565b7f4469616d6f6e6453746f726167654c69623a204d75737420626520636f6e747260008201527f616374206f776e65720000000000000000000000000000000000000000000000602082015250565b6000614b6f602983613f18565b9150614b7a82614b13565b604082019050919050565b60006020820190508181036000830152614b9e81614b62565b9050919050565b7f4e487b7100000000000000000000000000000000000000000000000000000000600052603260045260246000fd5b7f4e487b7100000000000000000000000000000000000000000000000000000000600052603160045260246000fd5b6000614c0e82613995565b91507fffffffffffffffffffffffffffffffffffffffffffffffffffffffffffffffff8203614c4057614c3f6148e2565b5b600182019050919050565b6000614c5682613995565b9150614c6183613995565b9250828201905080821115614c7957614c786148e2565b5b92915050565b600081519050919050565b6000614c9582614c7f565b614c9f8185613f18565b9350614caf8185602086016146be565b614cb881613796565b840191505092915050565b60006020820190508181036000830152614cdd8184614c8a565b905092915050565b600082825260208201905092915050565b6000614d01826146a8565b614d0b8185614ce5565b9350614d1b8185602086016146be565b614d2481613796565b840191505092915050565b60006020820190508181036000830152614d498184614cf6565b905092915050565b614d5a81614730565b82525050565b6000604082019050614d756000830185614187565b614d826020830184614d51565b9392505050565b6000604082019050614d9e600083018561427b565b614dab6020830184613a80565b9392505050565b7f5472616e7366657248656c7065723a3a73616665417070726f76653a2061707060008201527f726f7665206661696c6564000000000000000000000000000000000000000000602082015250565b6000614e0e602b83613f18565b9150614e1982614db2565b604082019050919050565b60006020820190508181036000830152614e3d81614e01565b9050919050565b7f53796d626f6c2063616e6e6f7420626520656d70747900000000000000000000600082015250565b6000614e7a601683613f18565b9150614e8582614e44565b602082019050919050565b60006020820190508181036000830152614ea981614e6d565b9050919050565b7f496e76616c696420416464726573735a65726f00000000000000000000000000600082015250565b6000614ee6601383613f18565b9150614ef182614eb0565b602082019050919050565b60006020820190508181036000830152614f1581614ed9565b9050919050565b6000614f2782613995565b9150614f3283613995565b9250828202614f4081613995565b91508282048414831517614f5757614f566148e2565b5b509291505056fea2646970667358221220a081d0ab6cd81d9046e62a713295dc2178ba8112e02cdedc640ff6a4bfd3c0fe64736f6c63430008110033",
  "devdoc": {
    "events": {
      "Migrated(address,bytes32,address,uint256,uint256)": {
        "details": "emitted when user stakes an asset",
        "params": {
          "asset": "the asset that was staked",
          "migratedAmount": "how much of receipt token was migrated",
          "timestamp": "of staking*",
          "user": "the address executing staking",
          "vault": "address of receipt token"
        }
      },
      "Staked(address,bytes32,address,uint256,uint256,uint256)": {
        "details": "emitted when user stakes an asset",
        "params": {
          "asset": "the asset that was staked",
          "depositTokenAmount": "how much of deposit token was staked",
          "receiptTokenAmount": "how much of receipt token was received",
          "timestamp": "of staking*",
          "user": "the address executing staking",
          "vault": "address of receipt token"
        }
      },
      "Unstaked(address,bytes32,address,uint256,uint256,uint256)": {
        "details": "emitted when user unstakes an asset",
        "params": {
          "asset": "the asset that was unstaked",
          "depositTokenAmount": "how much deposit token was received",
          "receiptTokenAmount": "how much receipt token was unstaked",
          "timestamp": "of unstaking*",
          "user": "the address executing unstaking",
          "vault": "address of receipt token"
        }
      }
    },
    "kind": "dev",
    "methods": {},
    "version": 1
  },
  "userdoc": {
    "kind": "user",
    "methods": {},
    "version": 1
  },
  "storageLayout": {
    "storage": [
      {
        "astId": 5419,
        "contract": "contracts/facets/avalanche/VectorFinanceFacet.sol:VectorFinanceFacet",
        "label": "_status",
        "offset": 0,
        "slot": "0",
        "type": "t_uint256"
      }
    ],
    "types": {
      "t_uint256": {
        "encoding": "inplace",
        "label": "uint256",
        "numberOfBytes": "32"
      }
    }
  }
}