{
  "address": "0xB2996e185c9B28e4e0e2eE7AE42479237719A885",
  "abi": [
    {
      "inputs": [],
      "name": "CalldataMustHaveValidPayload",
      "type": "error"
    },
    {
      "inputs": [],
      "name": "CalldataOverOrUnderFlow",
      "type": "error"
    },
    {
      "inputs": [],
      "name": "EachSignerMustProvideTheSameValue",
      "type": "error"
    },
    {
      "inputs": [],
      "name": "EmptyCalldataPointersArr",
      "type": "error"
    },
    {
      "inputs": [],
      "name": "IncorrectUnsignedMetadataSize",
      "type": "error"
    },
    {
      "inputs": [
        {
          "internalType": "uint256",
          "name": "receivedSignersCount",
          "type": "uint256"
        },
        {
          "internalType": "uint256",
          "name": "requiredSignersCount",
          "type": "uint256"
        }
      ],
      "name": "InsufficientNumberOfUniqueSigners",
      "type": "error"
    },
    {
      "inputs": [],
      "name": "InvalidCalldataPointer",
      "type": "error"
    },
    {
      "inputs": [
        {
          "internalType": "bytes",
          "name": "result",
          "type": "bytes"
        }
      ],
      "name": "ProxyCalldataFailedWithCustomError",
      "type": "error"
    },
    {
      "inputs": [
        {
          "internalType": "string",
          "name": "message",
          "type": "string"
        }
      ],
      "name": "ProxyCalldataFailedWithStringMessage",
      "type": "error"
    },
    {
      "inputs": [],
      "name": "ProxyCalldataFailedWithoutErrMsg",
      "type": "error"
    },
    {
      "inputs": [
        {
          "internalType": "address",
          "name": "receivedSigner",
          "type": "address"
        }
      ],
      "name": "SignerNotAuthorised",
      "type": "error"
    },
    {
      "anonymous": false,
      "inputs": [
        {
          "indexed": true,
          "internalType": "address",
          "name": "user",
          "type": "address"
        },
        {
          "indexed": true,
          "internalType": "bytes32",
          "name": "asset",
          "type": "bytes32"
        },
        {
          "indexed": true,
          "internalType": "address",
          "name": "vault",
          "type": "address"
        },
        {
          "indexed": false,
          "internalType": "uint256",
          "name": "depositTokenAmount",
          "type": "uint256"
        },
        {
          "indexed": false,
          "internalType": "uint256",
          "name": "receiptTokenAmount",
          "type": "uint256"
        },
        {
          "indexed": false,
          "internalType": "uint256",
          "name": "timestamp",
          "type": "uint256"
        }
      ],
      "name": "Staked",
      "type": "event"
    },
    {
      "anonymous": false,
      "inputs": [
        {
          "indexed": true,
          "internalType": "address",
          "name": "user",
          "type": "address"
        },
        {
          "indexed": true,
          "internalType": "bytes32",
          "name": "asset",
          "type": "bytes32"
        },
        {
          "indexed": true,
          "internalType": "address",
          "name": "vault",
          "type": "address"
        },
        {
          "indexed": false,
          "internalType": "uint256",
          "name": "depositTokenAmount",
          "type": "uint256"
        },
        {
          "indexed": false,
          "internalType": "uint256",
          "name": "receiptTokenAmount",
          "type": "uint256"
        },
        {
          "indexed": false,
          "internalType": "uint256",
          "name": "timestamp",
          "type": "uint256"
        }
      ],
      "name": "Unstaked",
      "type": "event"
    },
    {
      "anonymous": false,
      "inputs": [
        {
          "indexed": true,
          "internalType": "address",
          "name": "user",
          "type": "address"
        },
        {
          "indexed": true,
          "internalType": "address",
          "name": "asset",
          "type": "address"
        },
        {
          "indexed": false,
          "internalType": "uint256",
          "name": "timestamp",
          "type": "uint256"
        }
      ],
      "name": "UnsupportedRewardToken",
      "type": "event"
    },
    {
      "inputs": [
        {
          "internalType": "bytes32[]",
          "name": "assetsToRepay",
          "type": "bytes32[]"
        }
      ],
      "name": "_getAllPricesForLiquidation",
      "outputs": [
        {
          "components": [
            {
              "components": [
                {
                  "internalType": "bytes32",
                  "name": "asset",
                  "type": "bytes32"
                },
                {
                  "internalType": "uint256",
                  "name": "price",
                  "type": "uint256"
                }
              ],
              "internalType": "struct SolvencyFacetProd.AssetPrice[]",
              "name": "ownedAssetsPrices",
              "type": "tuple[]"
            },
            {
              "components": [
                {
                  "internalType": "bytes32",
                  "name": "asset",
                  "type": "bytes32"
                },
                {
                  "internalType": "uint256",
                  "name": "price",
                  "type": "uint256"
                }
              ],
              "internalType": "struct SolvencyFacetProd.AssetPrice[]",
              "name": "debtAssetsPrices",
              "type": "tuple[]"
            },
            {
              "components": [
                {
                  "internalType": "bytes32",
                  "name": "asset",
                  "type": "bytes32"
                },
                {
                  "internalType": "uint256",
                  "name": "price",
                  "type": "uint256"
                }
              ],
              "internalType": "struct SolvencyFacetProd.AssetPrice[]",
              "name": "stakedPositionsPrices",
              "type": "tuple[]"
            },
            {
              "components": [
                {
                  "internalType": "bytes32",
                  "name": "asset",
                  "type": "bytes32"
                },
                {
                  "internalType": "uint256",
                  "name": "price",
                  "type": "uint256"
                }
              ],
              "internalType": "struct SolvencyFacetProd.AssetPrice[]",
              "name": "assetsToRepayPrices",
              "type": "tuple[]"
            }
          ],
          "internalType": "struct SolvencyFacetProd.CachedPrices",
          "name": "result",
          "type": "tuple"
        }
      ],
      "stateMutability": "nonpayable",
      "type": "function"
    },
    {
      "inputs": [],
      "name": "_getHealthRatio",
      "outputs": [
        {
          "internalType": "uint256",
          "name": "health",
          "type": "uint256"
        }
      ],
      "stateMutability": "nonpayable",
      "type": "function"
    },
    {
      "inputs": [
        {
          "components": [
            {
              "components": [
                {
                  "internalType": "bytes32",
                  "name": "asset",
                  "type": "bytes32"
                },
                {
                  "internalType": "uint256",
                  "name": "price",
                  "type": "uint256"
                }
              ],
              "internalType": "struct SolvencyFacetProd.AssetPrice[]",
              "name": "ownedAssetsPrices",
              "type": "tuple[]"
            },
            {
              "components": [
                {
                  "internalType": "bytes32",
                  "name": "asset",
                  "type": "bytes32"
                },
                {
                  "internalType": "uint256",
                  "name": "price",
                  "type": "uint256"
                }
              ],
              "internalType": "struct SolvencyFacetProd.AssetPrice[]",
              "name": "debtAssetsPrices",
              "type": "tuple[]"
            },
            {
              "components": [
                {
                  "internalType": "bytes32",
                  "name": "asset",
                  "type": "bytes32"
                },
                {
                  "internalType": "uint256",
                  "name": "price",
                  "type": "uint256"
                }
              ],
              "internalType": "struct SolvencyFacetProd.AssetPrice[]",
              "name": "stakedPositionsPrices",
              "type": "tuple[]"
            },
            {
              "components": [
                {
                  "internalType": "bytes32",
                  "name": "asset",
                  "type": "bytes32"
                },
                {
                  "internalType": "uint256",
                  "name": "price",
                  "type": "uint256"
                }
              ],
              "internalType": "struct SolvencyFacetProd.AssetPrice[]",
              "name": "assetsToRepayPrices",
              "type": "tuple[]"
            }
          ],
          "internalType": "struct SolvencyFacetProd.CachedPrices",
          "name": "cachedPrices",
          "type": "tuple"
        }
      ],
      "name": "_getHealthRatioWithPrices",
      "outputs": [
        {
          "internalType": "uint256",
          "name": "health",
          "type": "uint256"
        }
      ],
      "stateMutability": "nonpayable",
      "type": "function"
    },
    {
      "inputs": [],
      "name": "_resetPrimeAccountAssetsExposure",
      "outputs": [],
      "stateMutability": "nonpayable",
      "type": "function"
    },
    {
      "inputs": [],
      "name": "_setPrimeAccountAssetsExposure",
      "outputs": [],
      "stateMutability": "nonpayable",
      "type": "function"
    },
    {
      "inputs": [
        {
          "internalType": "bytes32",
          "name": "symbol",
          "type": "bytes32"
        }
      ],
      "name": "getPrice",
      "outputs": [
        {
          "internalType": "uint256",
          "name": "price",
          "type": "uint256"
        }
      ],
      "stateMutability": "nonpayable",
      "type": "function"
    },
    {
      "inputs": [
        {
          "internalType": "bytes32[]",
          "name": "symbols",
          "type": "bytes32[]"
        }
      ],
      "name": "getPrices",
      "outputs": [
        {
          "internalType": "uint256[]",
          "name": "prices",
          "type": "uint256[]"
        }
      ],
      "stateMutability": "nonpayable",
      "type": "function"
    },
    {
      "inputs": [],
      "name": "vectorSAVAX1Balance",
      "outputs": [
        {
          "internalType": "uint256",
          "name": "_stakedBalance",
          "type": "uint256"
        }
      ],
      "stateMutability": "view",
      "type": "function"
    },
    {
      "inputs": [
        {
          "internalType": "uint256",
          "name": "amount",
          "type": "uint256"
        }
      ],
      "name": "vectorStakeSAVAX1",
      "outputs": [],
      "stateMutability": "pure",
      "type": "function"
    },
    {
      "inputs": [
        {
          "internalType": "uint256",
          "name": "amount",
          "type": "uint256"
        }
      ],
      "name": "vectorStakeUSDC1",
      "outputs": [],
      "stateMutability": "pure",
      "type": "function"
    },
    {
      "inputs": [
        {
          "internalType": "uint256",
          "name": "amount",
          "type": "uint256"
        }
      ],
      "name": "vectorStakeWAVAX1",
      "outputs": [],
      "stateMutability": "pure",
      "type": "function"
    },
    {
      "inputs": [],
      "name": "vectorUSDC1Balance",
      "outputs": [
        {
          "internalType": "uint256",
          "name": "_stakedBalance",
          "type": "uint256"
        }
      ],
      "stateMutability": "view",
      "type": "function"
    },
    {
      "inputs": [
        {
          "internalType": "uint256",
          "name": "amount",
          "type": "uint256"
        },
        {
          "internalType": "uint256",
          "name": "minAmount",
          "type": "uint256"
        }
      ],
      "name": "vectorUnstakeSAVAX1",
      "outputs": [],
      "stateMutability": "nonpayable",
      "type": "function"
    },
    {
      "inputs": [
        {
          "internalType": "uint256",
          "name": "amount",
          "type": "uint256"
        },
        {
          "internalType": "uint256",
          "name": "minAmount",
          "type": "uint256"
        }
      ],
      "name": "vectorUnstakeUSDC1",
      "outputs": [],
      "stateMutability": "nonpayable",
      "type": "function"
    },
    {
      "inputs": [
        {
          "internalType": "uint256",
          "name": "amount",
          "type": "uint256"
        },
        {
          "internalType": "uint256",
          "name": "minAmount",
          "type": "uint256"
        }
      ],
      "name": "vectorUnstakeWAVAX1",
      "outputs": [],
      "stateMutability": "nonpayable",
      "type": "function"
    },
    {
      "inputs": [],
      "name": "vectorWAVAX1Balance",
      "outputs": [
        {
          "internalType": "uint256",
          "name": "_stakedBalance",
          "type": "uint256"
        }
      ],
      "stateMutability": "view",
      "type": "function"
    }
  ],
  "transactionHash": "0x8b4a95831a3a5d78e88c8dc189c0c44a04d4397e8df3bd7b8f39ffa15c75cf1d",
  "args": [],
  "numDeployments": 1,
  "solcInputHash": "5aa6b3d1053dbc2915a5e3e5932263d2",
  "bytecode": "0x608060405234801561001057600080fd5b506001600081905550613956806100286000396000f3fe608060405234801561001057600080fd5b50600436106101005760003560e01c80636e3bfe9f11610097578063df83c56f11610066578063df83c56f14610299578063e9bab0b6146102b5578063e9ebb39b146102d1578063f8f18553146102ef57610100565b80636e3bfe9f146101ff5780639ae0870d1461022f578063a935279c1461024d578063b2d40e731461026957610100565b806339e2719e116100d357806339e2719e1461019f5780633e80dfc9146101bd5780633ff2d8d3146101d95780635b4fad9c146101f557610100565b80631b0285671461010557806326ee4836146101215780632fbe31291461015157806331d98b3f1461016f575b600080fd5b61011f600480360381019061011a919061223f565b6102f9565b005b61013b600480360381019061013691906123fb565b610334565b6040516101489190612502565b60405180910390f35b6101596103de565b6040516101669190612533565b60405180910390f35b6101896004803603810190610184919061254e565b610480565b6040516101969190612533565b60405180910390f35b6101a761052a565b6040516101b49190612533565b60405180910390f35b6101d760048036038101906101d2919061257b565b6105c7565b005b6101f360048036038101906101ee919061257b565b6106b7565b005b6101fd6107a7565b005b610219600480360381019061021491906127c0565b61082d565b6040516102269190612533565b60405180910390f35b6102376108d7565b6040516102449190612533565b60405180910390f35b6102676004803603810190610262919061223f565b610979565b005b610283600480360381019061027e91906123fb565b6109b4565b604051610290919061296e565b60405180910390f35b6102b360048036038101906102ae919061223f565b610a64565b005b6102cf60048036038101906102ca919061257b565b610a9f565b005b6102d9610b8f565b6040516102e69190612533565b60405180910390f35b6102f7610c31565b005b6040517f08c379a000000000000000000000000000000000000000000000000000000000815260040161032b90612a13565b60405180910390fd5b60606103c46103496326ee483660e01b610cb7565b6326ee483660e01b846040516024016103629190612ae2565b604051602081830303815290604052907bffffffffffffffffffffffffffffffffffffffffffffffffffffffff19166020820180517bffffffffffffffffffffffffffffffffffffffffffffffffffffffff8381831617835250505050610d41565b8060200190518101906103d79190612bdc565b9050919050565b6000806103fe73b31f66aa3c1e785363f0875a1b74e27b85fd66c7610dd2565b90508073ffffffffffffffffffffffffffffffffffffffff1663e3d670d7306040518263ffffffff1660e01b81526004016104399190612c66565b602060405180830381865afa158015610456573d6000803e3d6000fd5b505050506040513d601f19601f8201168201806040525081019061047a9190612c81565b91505090565b60006105106104956331d98b3f60e01b610cb7565b6331d98b3f60e01b846040516024016104ae9190612cbd565b604051602081830303815290604052907bffffffffffffffffffffffffffffffffffffffffffffffffffffffff19166020820180517bffffffffffffffffffffffffffffffffffffffffffffffffffffffff8381831617835250505050610d41565b8060200190518101906105239190612c81565b9050919050565b60006105af61053f637914334f60e01b610cb7565b637914334f60e01b604051602401604051602081830303815290604052907bffffffffffffffffffffffffffffffffffffffffffffffffffffffff19166020820180517bffffffffffffffffffffffffffffffffffffffffffffffffffffffff8381831617835250505050610d41565b8060200190518101906105c29190612c81565b905090565b60006040518060a001604052807306f01502327de1c37076bea4689a7e44279155e973ffffffffffffffffffffffffffffffffffffffff1681526020017f555344430000000000000000000000000000000000000000000000000000000081526020017f56465f555344435f4d41494e0000000000000000000000000000000000000000815260200163e9ebb39b60e01b7bffffffffffffffffffffffffffffffffffffffffffffffffffffffff19168152602001633e80dfc960e01b7bffffffffffffffffffffffffffffffffffffffffffffffffffffffff191681525090506106b181610e74565b50505050565b60006040518060a0016040528073b31f66aa3c1e785363f0875a1b74e27b85fd66c773ffffffffffffffffffffffffffffffffffffffff1681526020017f415641580000000000000000000000000000000000000000000000000000000081526020017f56465f415641585f5341564158000000000000000000000000000000000000008152602001632fbe312960e01b7bffffffffffffffffffffffffffffffffffffffffffffffffffffffff19168152602001633ff2d8d360e01b7bffffffffffffffffffffffffffffffffffffffffffffffffffffffff191681525090506107a181610e74565b50505050565b61082a6107ba63b1c9fbc160e01b610cb7565b63b1c9fbc160e01b604051602401604051602081830303815290604052907bffffffffffffffffffffffffffffffffffffffffffffffffffffffff19166020820180517bffffffffffffffffffffffffffffffffffffffffffffffffffffffff8381831617835250505050610d41565b50565b60006108bd61084263360398a360e01b610cb7565b63360398a360e01b8460405160240161085b919061296e565b604051602081830303815290604052907bffffffffffffffffffffffffffffffffffffffffffffffffffffffff19166020820180517bffffffffffffffffffffffffffffffffffffffffffffffffffffffff8381831617835250505050610d41565b8060200190518101906108d09190612c81565b9050919050565b6000806108f7732b2c81e08f1af8835a78bb2a90ae924ace0ea4be610dd2565b90508073ffffffffffffffffffffffffffffffffffffffff1663e3d670d7306040518263ffffffff1660e01b81526004016109329190612c66565b602060405180830381865afa15801561094f573d6000803e3d6000fd5b505050506040513d601f19601f820116820180604052508101906109739190612c81565b91505090565b6040517f08c379a00000000000000000000000000000000000000000000000000000000081526004016109ab90612a13565b60405180910390fd5b6109bc6121cd565b610a4a6109cf63a3aa8d1e60e01b610cb7565b63a3aa8d1e60e01b846040516024016109e89190612ae2565b604051602081830303815290604052907bffffffffffffffffffffffffffffffffffffffffffffffffffffffff19166020820180517bffffffffffffffffffffffffffffffffffffffffffffffffffffffff8381831617835250505050610d41565b806020019051810190610a5d9190612ebc565b9050919050565b6040517f08c379a0000000000000000000000000000000000000000000000000000000008152600401610a9690612a13565b60405180910390fd5b60006040518060a00160405280732b2c81e08f1af8835a78bb2a90ae924ace0ea4be73ffffffffffffffffffffffffffffffffffffffff1681526020017f734156415800000000000000000000000000000000000000000000000000000081526020017f56465f53415641585f4d41494e000000000000000000000000000000000000008152602001639ae0870d60e01b7bffffffffffffffffffffffffffffffffffffffffffffffffffffffff1916815260200163e9bab0b660e01b7bffffffffffffffffffffffffffffffffffffffffffffffffffffffff19168152509050610b8981610e74565b50505050565b600080610baf7306f01502327de1c37076bea4689a7e44279155e9610dd2565b90508073ffffffffffffffffffffffffffffffffffffffff1663e3d670d7306040518263ffffffff1660e01b8152600401610bea9190612c66565b602060405180830381865afa158015610c07573d6000803e3d6000fd5b505050506040513d601f19601f82011682018060405250810190610c2b9190612c81565b91505090565b610cb4610c4463e017e12560e01b610cb7565b63e017e12560e01b604051602401604051602081830303815290604052907bffffffffffffffffffffffffffffffffffffffffffffffffffffffff19166020820180517bffffffffffffffffffffffffffffffffffffffffffffffffffffffff8381831617835250505050610d41565b50565b6000610cc16113a2565b73ffffffffffffffffffffffffffffffffffffffff16630d741577836040518263ffffffff1660e01b8152600401610cf99190612f40565b602060405180830381865afa158015610d16573d6000803e3d6000fd5b505050506040513d601f19601f82011682018060405250810190610d3a9190612f87565b9050919050565b60606000610d4e836113be565b90506000808573ffffffffffffffffffffffffffffffffffffffff1683604051610d789190613025565b600060405180830381855af49150503d8060008114610db3576040519150601f19603f3d011682016040523d82523d6000602084013e610db8565b606091505b5091509150610dc78282611478565b935050505092915050565b600080738b3d9f0017fa369cd8c164d0cc078bf4ca588ae590508073ffffffffffffffffffffffffffffffffffffffff166306bfa938846040518263ffffffff1660e01b8152600401610e259190612c66565b61012060405180830381865afa158015610e43573d6000803e3d6000fd5b505050506040513d601f19601f82011682018060405250810190610e679190613154565b6101000151915050919050565b600080610e7f611578565b90508015610e9457610e8f611615565b610f55565b610e9c6113a2565b73ffffffffffffffffffffffffffffffffffffffff1663e319fccc336040518263ffffffff1660e01b8152600401610ed49190612c66565b602060405180830381865afa158015610ef1573d6000803e3d6000fd5b505050506040513d601f19601f82011682018060405250810190610f159190613182565b610f54576040517f08c379a0000000000000000000000000000000000000000000000000000000008152600401610f4b90613221565b60405180910390fd5b5b610f5d6107a7565b6000610f676116b0565b90506002816000015403610fb0576040517f08c379a0000000000000000000000000000000000000000000000000000000008152600401610fa79061328d565b60405180910390fd5b600281600001819055506000610fc98560000151610dd2565b90506000610fdc866020015160006116dd565b905060008273ffffffffffffffffffffffffffffffffffffffff1663e3d670d7306040518263ffffffff1660e01b81526004016110199190612c66565b602060405180830381865afa158015611036573d6000803e3d6000fd5b505050506040513d601f19601f8201168201806040525081019061105a9190612c81565b90506000811161109f576040517f08c379a0000000000000000000000000000000000000000000000000000000008152600401611096906132f9565b60405180910390fd5b60008273ffffffffffffffffffffffffffffffffffffffff166370a08231306040518263ffffffff1660e01b81526004016110da9190612c66565b602060405180830381865afa1580156110f7573d6000803e3d6000fd5b505050506040513d601f19601f8201168201806040525081019061111b9190612c81565b90508373ffffffffffffffffffffffffffffffffffffffff1663441a3e708360006040518363ffffffff1660e01b815260040161115992919061335e565b600060405180830381600087803b15801561117357600080fd5b505af1158015611187573d6000803e3d6000fd5b5050505060008373ffffffffffffffffffffffffffffffffffffffff166370a08231306040518263ffffffff1660e01b81526004016111c69190612c66565b602060405180830381865afa1580156111e3573d6000803e3d6000fd5b505050506040513d601f19601f820116820180604052508101906112079190612c81565b905060008573ffffffffffffffffffffffffffffffffffffffff1663e3d670d7306040518263ffffffff1660e01b81526004016112449190612c66565b602060405180830381865afa158015611261573d6000803e3d6000fd5b505050506040513d601f19601f820116820180604052508101906112859190612c81565b0361129857611297896040015161176a565b5b6112a689602001518561198a565b8473ffffffffffffffffffffffffffffffffffffffff1689602001513373ffffffffffffffffffffffffffffffffffffffff167f62e55d72647d2b18acd6db9b772cb8f9c0f9a6ab6cdca02278f90e3f40c42689858561130691906133b6565b8742604051611317939291906133ea565b60405180910390a461132885611a5c565b818161133491906133b6565b97505050505050600181600001819055505061134e610c31565b801561139c5761135c611578565b61139b576040517f08c379a00000000000000000000000000000000000000000000000000000000081526004016113929061346d565b60405180910390fd5b5b50919050565b6000732916b3bf7c35bd21e63d01c93c62fb0d4994e56d905090565b606060008251905060006113d0611db3565b9050600081836113e0919061348d565b90506000369050821115611420576040517f5796f78a00000000000000000000000000000000000000000000000000000000815260040160405180910390fd5b6060604051905081815285602001848101826020015b818310156114535782518152602083019250602081019050611436565b5050508283360385602001830137602084840182010160405280945050505050919050565b60608261156f5760008251036114ba576040517f567fe27a00000000000000000000000000000000000000000000000000000000815260040160405180910390fd5b600060208301517f08c379a00000000000000000000000000000000000000000000000000000000081149150508015611532576060604484019050806040517f0f7e82780000000000000000000000000000000000000000000000000000000081526004016115299190613505565b60405180910390fd5b826040517ffd36fde30000000000000000000000000000000000000000000000000000000081526004016115669190613571565b60405180910390fd5b81905092915050565b60006115fd61158d635ce2395060e01b610cb7565b635ce2395060e01b604051602401604051602081830303815290604052907bffffffffffffffffffffffffffffffffffffffffffffffffffffffff19166020820180517bffffffffffffffffffffffffffffffffffffffffffffffffffffffff8381831617835250505050610d41565b8060200190518101906116109190613182565b905090565b61161d611e23565b60010160009054906101000a900473ffffffffffffffffffffffffffffffffffffffff1673ffffffffffffffffffffffffffffffffffffffff163373ffffffffffffffffffffffffffffffffffffffff16146116ae576040517f08c379a00000000000000000000000000000000000000000000000000000000081526004016116a590613605565b60405180910390fd5b565b6000807f1c85eba10a4cf2d29c83fc15f97931886b9fd3caeb70d8c377aeedc58b919e3b90508091505090565b60006116e7611e50565b73ffffffffffffffffffffffffffffffffffffffff166325eb876f84846040518363ffffffff1660e01b8152600401611721929190613634565b602060405180830381865afa15801561173e573d6000803e3d6000fd5b505050506040513d601f19601f820116820180604052508101906117629190612f87565b905092915050565b6000611774611e6c565b905060005b818054905081101561198557828282815481106117995761179861365d565b5b906000526020600020906004020160020154036119725781600183805490506117c291906133b6565b815481106117d3576117d261365d565b5b90600052602060002090600402018282815481106117f4576117f361365d565b5b90600052602060002090600402016000820160009054906101000a900473ffffffffffffffffffffffffffffffffffffffff168160000160006101000a81548173ffffffffffffffffffffffffffffffffffffffff021916908373ffffffffffffffffffffffffffffffffffffffff16021790555060018201548160010155600282015481600201556003820160009054906101000a900460e01b8160030160006101000a81548163ffffffff021916908360e01c02179055506003820160049054906101000a900460e01b8160030160046101000a81548163ffffffff021916908360e01c0217905550905050818054806118f3576118f261368c565b5b6001900381819060005260206000209060040201600080820160006101000a81549073ffffffffffffffffffffffffffffffffffffffff0219169055600182016000905560028201600090556003820160006101000a81549063ffffffff02191690556003820160046101000a81549063ffffffff0219169055505090555b808061197d906136bb565b915050611779565b505050565b600082036119cd576040517f08c379a00000000000000000000000000000000000000000000000000000000081526004016119c49061374f565b60405180910390fd5b600073ffffffffffffffffffffffffffffffffffffffff168173ffffffffffffffffffffffffffffffffffffffff1603611a3c576040517f08c379a0000000000000000000000000000000000000000000000000000000008152600401611a33906137bb565b60405180910390fd5b6000611a46611e23565b9050611a56816004018484611e7e565b50505050565b60008173ffffffffffffffffffffffffffffffffffffffff1663dcc3e06e6040518163ffffffff1660e01b8152600401602060405180830381865afa158015611aa9573d6000803e3d6000fd5b505050506040513d601f19601f82011682018060405250810190611acd9190613819565b90506000611ad9611e50565b905060005b600115611dad576000808473ffffffffffffffffffffffffffffffffffffffff1683604051602401611b109190612533565b6040516020818303038152906040527f7bb7bed1000000000000000000000000000000000000000000000000000000007bffffffffffffffffffffffffffffffffffffffffffffffffffffffff19166020820180517bffffffffffffffffffffffffffffffffffffffffffffffffffffffff8381831617835250505050604051611b9a9190613025565b6000604051808303816000865af19150503d8060008114611bd7576040519150601f19603f3d011682016040523d82523d6000602084013e611bdc565b606091505b509150915081611bed575050611dad565b600081806020019051810190611c039190613884565b905060008573ffffffffffffffffffffffffffffffffffffffff1663f823f1e0836040518263ffffffff1660e01b8152600401611c409190612c66565b602060405180830381865afa158015611c5d573d6000803e3d6000fd5b505050506040513d601f19601f82011682018060405250810190611c8191906138b1565b905060008103611d08578173ffffffffffffffffffffffffffffffffffffffff163373ffffffffffffffffffffffffffffffffffffffff167f8ad2c1512cdb5cbdcc09581899b16e96a48479394a2cd9e973a717e4ded0994142604051611ce89190612533565b60405180910390a3600185611cfd919061348d565b945050505050611ade565b60008273ffffffffffffffffffffffffffffffffffffffff166370a08231306040518263ffffffff1660e01b8152600401611d439190612c66565b602060405180830381865afa158015611d60573d6000803e3d6000fd5b505050506040513d601f19601f82011682018060405250810190611d849190612c81565b1115611d9557611d94818361198a565b5b600185611da2919061348d565b945050505050611ade565b50505050565b600080611dbe611eb0565b90506000611dcb82611fc1565b61ffff169050600282611dde919061348d565b915060005b81811015611e1a576000611df68461201d565b90508084611e04919061348d565b9350508080611e12906136bb565b915050611de3565b50819250505090565b6000807f8d5bb42e0ac1496a2c326edc9c00758985246e6c2bb146d6c2f4a0d509e0960a90508091505090565b600073f3978209b7cff2b90100c6f87cec77de928ed58e905090565b6000611e76611e23565b600701905090565b6000611ea784600001848473ffffffffffffffffffffffffffffffffffffffff1660001b61205c565b90509392505050565b60008060203603356602ed57011e000081166602ed57011e00001491505080611f05576040517fe7764c9e00000000000000000000000000000000000000000000000000000000815260040160405180910390fd5b60008036905060291115611f45576040517f5796f78a00000000000000000000000000000000000000000000000000000000815260040160405180910390fd5b602936033590506000600960038362ffffff16611f62919061348d565b611f6c919061348d565b90506000369050600282611f80919061348d565b1115611fb8576040517fc30a7bd700000000000000000000000000000000000000000000000000000000815260040160405180910390fd5b80935050505090565b600080602083611fd1919061348d565b90506000369050811115612011576040517f5796f78a00000000000000000000000000000000000000000000000000000000815260040160405180910390fd5b80360335915050919050565b600080600061202b84612097565b91509150604e81602061203e919061348d565b8361204991906138de565b612053919061348d565b92505050919050565b6000818460020160008581526020019081526020016000208190555061208e838560000161210d90919063ffffffff16565b90509392505050565b60008060008060006041866120ac919061348d565b905060006120d36020836120c0919061348d565b600036905061212490919063ffffffff16565b9050803593506120ed60038261212490919063ffffffff16565b9050803592508362ffffff1695508263ffffffff16945050505050915091565b600061211c836000018361213a565b905092915050565b6000818361213291906133b6565b905092915050565b600061214683836121aa565b61219f5782600001829080600181540180825580915050600190039060005260206000200160009091909190915055826000018054905083600101600084815260200190815260200160002081905550600190506121a4565b600090505b92915050565b600080836001016000848152602001908152602001600020541415905092915050565b6040518060800160405280606081526020016060815260200160608152602001606081525090565b6000604051905090565b600080fd5b600080fd5b6000819050919050565b61221c81612209565b811461222757600080fd5b50565b60008135905061223981612213565b92915050565b600060208284031215612255576122546121ff565b5b60006122638482850161222a565b91505092915050565b600080fd5b6000601f19601f8301169050919050565b7f4e487b7100000000000000000000000000000000000000000000000000000000600052604160045260246000fd5b6122ba82612271565b810181811067ffffffffffffffff821117156122d9576122d8612282565b5b80604052505050565b60006122ec6121f5565b90506122f882826122b1565b919050565b600067ffffffffffffffff82111561231857612317612282565b5b602082029050602081019050919050565b600080fd5b6000819050919050565b6123418161232e565b811461234c57600080fd5b50565b60008135905061235e81612338565b92915050565b6000612377612372846122fd565b6122e2565b9050808382526020820190506020840283018581111561239a57612399612329565b5b835b818110156123c357806123af888261234f565b84526020840193505060208101905061239c565b5050509392505050565b600082601f8301126123e2576123e161226c565b5b81356123f2848260208601612364565b91505092915050565b600060208284031215612411576124106121ff565b5b600082013567ffffffffffffffff81111561242f5761242e612204565b5b61243b848285016123cd565b91505092915050565b600081519050919050565b600082825260208201905092915050565b6000819050602082019050919050565b61247981612209565b82525050565b600061248b8383612470565b60208301905092915050565b6000602082019050919050565b60006124af82612444565b6124b9818561244f565b93506124c483612460565b8060005b838110156124f55781516124dc888261247f565b97506124e783612497565b9250506001810190506124c8565b5085935050505092915050565b6000602082019050818103600083015261251c81846124a4565b905092915050565b61252d81612209565b82525050565b60006020820190506125486000830184612524565b92915050565b600060208284031215612564576125636121ff565b5b60006125728482850161234f565b91505092915050565b60008060408385031215612592576125916121ff565b5b60006125a08582860161222a565b92505060206125b18582860161222a565b9150509250929050565b600080fd5b600080fd5b600067ffffffffffffffff8211156125e0576125df612282565b5b602082029050602081019050919050565b600060408284031215612607576126066125bb565b5b61261160406122e2565b905060006126218482850161234f565b60008301525060206126358482850161222a565b60208301525092915050565b600061265461264f846125c5565b6122e2565b9050808382526020820190506040840283018581111561267757612676612329565b5b835b818110156126a0578061268c88826125f1565b845260208401935050604081019050612679565b5050509392505050565b600082601f8301126126bf576126be61226c565b5b81356126cf848260208601612641565b91505092915050565b6000608082840312156126ee576126ed6125bb565b5b6126f860806122e2565b9050600082013567ffffffffffffffff811115612718576127176125c0565b5b612724848285016126aa565b600083015250602082013567ffffffffffffffff811115612748576127476125c0565b5b612754848285016126aa565b602083015250604082013567ffffffffffffffff811115612778576127776125c0565b5b612784848285016126aa565b604083015250606082013567ffffffffffffffff8111156127a8576127a76125c0565b5b6127b4848285016126aa565b60608301525092915050565b6000602082840312156127d6576127d56121ff565b5b600082013567ffffffffffffffff8111156127f4576127f3612204565b5b612800848285016126d8565b91505092915050565b600081519050919050565b600082825260208201905092915050565b6000819050602082019050919050565b61283e8161232e565b82525050565b60408201600082015161285a6000850182612835565b50602082015161286d6020850182612470565b50505050565b600061287f8383612844565b60408301905092915050565b6000602082019050919050565b60006128a382612809565b6128ad8185612814565b93506128b883612825565b8060005b838110156128e95781516128d08882612873565b97506128db8361288b565b9250506001810190506128bc565b5085935050505092915050565b600060808301600083015184820360008601526129138282612898565b9150506020830151848203602086015261292d8282612898565b915050604083015184820360408601526129478282612898565b915050606083015184820360608601526129618282612898565b9150508091505092915050565b6000602082019050818103600083015261298881846128f6565b905092915050565b600082825260208201905092915050565b7f4d616e75616c205646207661756c747320617265206e6f206c6f6e676572207360008201527f7570706f727465642e0000000000000000000000000000000000000000000000602082015250565b60006129fd602983612990565b9150612a08826129a1565b604082019050919050565b60006020820190508181036000830152612a2c816129f0565b9050919050565b600081519050919050565b600082825260208201905092915050565b6000819050602082019050919050565b6000612a6b8383612835565b60208301905092915050565b6000602082019050919050565b6000612a8f82612a33565b612a998185612a3e565b9350612aa483612a4f565b8060005b83811015612ad5578151612abc8882612a5f565b9750612ac783612a77565b925050600181019050612aa8565b5085935050505092915050565b60006020820190508181036000830152612afc8184612a84565b905092915050565b600067ffffffffffffffff821115612b1f57612b1e612282565b5b602082029050602081019050919050565b600081519050612b3f81612213565b92915050565b6000612b58612b5384612b04565b6122e2565b90508083825260208201905060208402830185811115612b7b57612b7a612329565b5b835b81811015612ba45780612b908882612b30565b845260208401935050602081019050612b7d565b5050509392505050565b600082601f830112612bc357612bc261226c565b5b8151612bd3848260208601612b45565b91505092915050565b600060208284031215612bf257612bf16121ff565b5b600082015167ffffffffffffffff811115612c1057612c0f612204565b5b612c1c84828501612bae565b91505092915050565b600073ffffffffffffffffffffffffffffffffffffffff82169050919050565b6000612c5082612c25565b9050919050565b612c6081612c45565b82525050565b6000602082019050612c7b6000830184612c57565b92915050565b600060208284031215612c9757612c966121ff565b5b6000612ca584828501612b30565b91505092915050565b612cb78161232e565b82525050565b6000602082019050612cd26000830184612cae565b92915050565b600081519050612ce781612338565b92915050565b600060408284031215612d0357612d026125bb565b5b612d0d60406122e2565b90506000612d1d84828501612cd8565b6000830152506020612d3184828501612b30565b60208301525092915050565b6000612d50612d4b846125c5565b6122e2565b90508083825260208201905060408402830185811115612d7357612d72612329565b5b835b81811015612d9c5780612d888882612ced565b845260208401935050604081019050612d75565b5050509392505050565b600082601f830112612dbb57612dba61226c565b5b8151612dcb848260208601612d3d565b91505092915050565b600060808284031215612dea57612de96125bb565b5b612df460806122e2565b9050600082015167ffffffffffffffff811115612e1457612e136125c0565b5b612e2084828501612da6565b600083015250602082015167ffffffffffffffff811115612e4457612e436125c0565b5b612e5084828501612da6565b602083015250604082015167ffffffffffffffff811115612e7457612e736125c0565b5b612e8084828501612da6565b604083015250606082015167ffffffffffffffff811115612ea457612ea36125c0565b5b612eb084828501612da6565b60608301525092915050565b600060208284031215612ed257612ed16121ff565b5b600082015167ffffffffffffffff811115612ef057612eef612204565b5b612efc84828501612dd4565b91505092915050565b60007fffffffff0000000000000000000000000000000000000000000000000000000082169050919050565b612f3a81612f05565b82525050565b6000602082019050612f556000830184612f31565b92915050565b612f6481612c45565b8114612f6f57600080fd5b50565b600081519050612f8181612f5b565b92915050565b600060208284031215612f9d57612f9c6121ff565b5b6000612fab84828501612f72565b91505092915050565b600081519050919050565b600081905092915050565b60005b83811015612fe8578082015181840152602081019050612fcd565b60008484015250505050565b6000612fff82612fb4565b6130098185612fbf565b9350613019818560208601612fca565b80840191505092915050565b60006130318284612ff4565b915081905092915050565b60008115159050919050565b6130518161303c565b811461305c57600080fd5b50565b60008151905061306e81613048565b92915050565b6000610120828403121561308b5761308a6125bb565b5b6130966101206122e2565b905060006130a684828501612b30565b60008301525060206130ba8482850161305f565b60208301525060406130ce84828501612f72565b60408301525060606130e284828501612f72565b60608301525060806130f684828501612b30565b60808301525060a061310a84828501612f72565b60a08301525060c061311e84828501612b30565b60c08301525060e061313284828501612f72565b60e08301525061010061314784828501612f72565b6101008301525092915050565b6000610120828403121561316b5761316a6121ff565b5b600061317984828501613074565b91505092915050565b600060208284031215613198576131976121ff565b5b60006131a68482850161305f565b91505092915050565b7f4f6e6c792077686974656c6973746564206163636f756e74732063616e20706560008201527f72666f726d207468697320616374696f6e000000000000000000000000000000602082015250565b600061320b603183612990565b9150613216826131af565b604082019050919050565b6000602082019050818103600083015261323a816131fe565b9050919050565b7f5265656e7472616e637947756172643a207265656e7472616e742063616c6c00600082015250565b6000613277601f83612990565b915061328282613241565b602082019050919050565b600060208201905081810360008301526132a68161326a565b9050919050565b7f43616e6e6f7420756e7374616b65203020746f6b656e73000000000000000000600082015250565b60006132e3601783612990565b91506132ee826132ad565b602082019050919050565b60006020820190508181036000830152613312816132d6565b9050919050565b6000819050919050565b6000819050919050565b600061334861334361333e84613319565b613323565b612209565b9050919050565b6133588161332d565b82525050565b60006040820190506133736000830185612524565b613380602083018461334f565b9392505050565b7f4e487b7100000000000000000000000000000000000000000000000000000000600052601160045260246000fd5b60006133c182612209565b91506133cc83612209565b92508282039050818111156133e4576133e3613387565b5b92915050565b60006060820190506133ff6000830186612524565b61340c6020830185612524565b6134196040830184612524565b949350505050565b7f4d757374207374617920736f6c76656e74000000000000000000000000000000600082015250565b6000613457601183612990565b915061346282613421565b602082019050919050565b600060208201905081810360008301526134868161344a565b9050919050565b600061349882612209565b91506134a383612209565b92508282019050808211156134bb576134ba613387565b5b92915050565b600081519050919050565b60006134d7826134c1565b6134e18185612990565b93506134f1818560208601612fca565b6134fa81612271565b840191505092915050565b6000602082019050818103600083015261351f81846134cc565b905092915050565b600082825260208201905092915050565b600061354382612fb4565b61354d8185613527565b935061355d818560208601612fca565b61356681612271565b840191505092915050565b6000602082019050818103600083015261358b8184613538565b905092915050565b7f4469616d6f6e6453746f726167654c69623a204d75737420626520636f6e747260008201527f616374206f776e65720000000000000000000000000000000000000000000000602082015250565b60006135ef602983612990565b91506135fa82613593565b604082019050919050565b6000602082019050818103600083015261361e816135e2565b9050919050565b61362e8161303c565b82525050565b60006040820190506136496000830185612cae565b6136566020830184613625565b9392505050565b7f4e487b7100000000000000000000000000000000000000000000000000000000600052603260045260246000fd5b7f4e487b7100000000000000000000000000000000000000000000000000000000600052603160045260246000fd5b60006136c682612209565b91507fffffffffffffffffffffffffffffffffffffffffffffffffffffffffffffffff82036136f8576136f7613387565b5b600182019050919050565b7f53796d626f6c2063616e6e6f7420626520656d70747900000000000000000000600082015250565b6000613739601683612990565b915061374482613703565b602082019050919050565b600060208201905081810360008301526137688161372c565b9050919050565b7f496e76616c696420416464726573735a65726f00000000000000000000000000600082015250565b60006137a5601383612990565b91506137b08261376f565b602082019050919050565b600060208201905081810360008301526137d481613798565b9050919050565b60006137e682612c45565b9050919050565b6137f6816137db565b811461380157600080fd5b50565b600081519050613813816137ed565b92915050565b60006020828403121561382f5761382e6121ff565b5b600061383d84828501613804565b91505092915050565b600061385182612c25565b9050919050565b61386181613846565b811461386c57600080fd5b50565b60008151905061387e81613858565b92915050565b60006020828403121561389a576138996121ff565b5b60006138a88482850161386f565b91505092915050565b6000602082840312156138c7576138c66121ff565b5b60006138d584828501612cd8565b91505092915050565b60006138e982612209565b91506138f483612209565b925082820261390281612209565b9150828204841483151761391957613918613387565b5b509291505056fea2646970667358221220b2260148354fb946ff85890a0b451e2b45650b1a2cec878e82ee160b0d2aceaa64736f6c63430008110033",
  "devdoc": {
    "events": {
      "Staked(address,bytes32,address,uint256,uint256,uint256)": {
        "details": "emitted when user stakes an asset",
        "params": {
          "asset": "the asset that was staked",
          "depositTokenAmount": "how much of deposit token was staked",
          "receiptTokenAmount": "how much of receipt token was received",
          "timestamp": "of staking*",
          "user": "the address executing staking",
          "vault": "address of receipt token"
        }
      },
      "Unstaked(address,bytes32,address,uint256,uint256,uint256)": {
        "details": "emitted when user unstakes an asset",
        "params": {
          "asset": "the asset that was unstaked",
          "depositTokenAmount": "how much deposit token was received",
          "receiptTokenAmount": "how much receipt token was unstaked",
          "timestamp": "of unstaking*",
          "user": "the address executing unstaking",
          "vault": "address of receipt token"
        }
      },
      "UnsupportedRewardToken(address,address,uint256)": {
        "details": "emitted when user collects rewards in tokens that are not supported",
        "params": {
          "asset": "reward token that was collected",
          "timestamp": "of collecting rewards*",
          "user": "the address collecting rewards"
        }
      }
    },
    "kind": "dev",
    "methods": {},
    "version": 1
  },
  "userdoc": {
    "kind": "user",
    "methods": {},
    "version": 1
  },
  "storageLayout": {
    "storage": [
      {
        "astId": 5119,
        "contract": "contracts/facets/avalanche/VectorFinanceFacetOld.sol:VectorFinanceFacetOld",
        "label": "_status",
        "offset": 0,
        "slot": "0",
        "type": "t_uint256"
      }
    ],
    "types": {
      "t_uint256": {
        "encoding": "inplace",
        "label": "uint256",
        "numberOfBytes": "32"
      }
    }
  }
}