{
  "address": "0xa9957242E0704115491ae358818084F682F0C2B2",
  "abi": [
    {
      "inputs": [],
      "name": "CalldataMustHaveValidPayload",
      "type": "error"
    },
    {
      "inputs": [],
      "name": "CalldataOverOrUnderFlow",
      "type": "error"
    },
    {
      "inputs": [],
      "name": "EachSignerMustProvideTheSameValue",
      "type": "error"
    },
    {
      "inputs": [],
      "name": "EmptyCalldataPointersArr",
      "type": "error"
    },
    {
      "inputs": [],
      "name": "IncorrectUnsignedMetadataSize",
      "type": "error"
    },
    {
      "inputs": [
        {
          "internalType": "uint256",
          "name": "receviedSignersCount",
          "type": "uint256"
        },
        {
          "internalType": "uint256",
          "name": "requiredSignersCount",
          "type": "uint256"
        }
      ],
      "name": "InsufficientNumberOfUniqueSigners",
      "type": "error"
    },
    {
      "inputs": [],
      "name": "InvalidCalldataPointer",
      "type": "error"
    },
    {
      "inputs": [
        {
          "internalType": "bytes",
          "name": "result",
          "type": "bytes"
        }
      ],
      "name": "ProxyCalldataFailedWithCustomError",
      "type": "error"
    },
    {
      "inputs": [
        {
          "internalType": "string",
          "name": "message",
          "type": "string"
        }
      ],
      "name": "ProxyCalldataFailedWithStringMessage",
      "type": "error"
    },
    {
      "inputs": [],
      "name": "ProxyCalldataFailedWithoutErrMsg",
      "type": "error"
    },
    {
      "inputs": [
        {
          "internalType": "address",
          "name": "receivedSigner",
          "type": "address"
        }
      ],
      "name": "SignerNotAuthorised",
      "type": "error"
    },
    {
      "anonymous": false,
      "inputs": [
        {
          "indexed": true,
          "internalType": "address",
          "name": "user",
          "type": "address"
        },
        {
          "indexed": true,
          "internalType": "bytes32",
          "name": "asset",
          "type": "bytes32"
        },
        {
          "indexed": true,
          "internalType": "address",
          "name": "vault",
          "type": "address"
        },
        {
          "indexed": false,
          "internalType": "uint256",
          "name": "amount",
          "type": "uint256"
        },
        {
          "indexed": false,
          "internalType": "uint256",
          "name": "timestamp",
          "type": "uint256"
        }
      ],
      "name": "Staked",
      "type": "event"
    },
    {
      "anonymous": false,
      "inputs": [
        {
          "indexed": true,
          "internalType": "address",
          "name": "user",
          "type": "address"
        },
        {
          "indexed": true,
          "internalType": "bytes32",
          "name": "asset",
          "type": "bytes32"
        },
        {
          "indexed": true,
          "internalType": "address",
          "name": "vault",
          "type": "address"
        },
        {
          "indexed": false,
          "internalType": "uint256",
          "name": "amount",
          "type": "uint256"
        },
        {
          "indexed": false,
          "internalType": "uint256",
          "name": "timestamp",
          "type": "uint256"
        }
      ],
      "name": "Unstaked",
      "type": "event"
    },
    {
      "anonymous": false,
      "inputs": [
        {
          "indexed": true,
          "internalType": "address",
          "name": "user",
          "type": "address"
        },
        {
          "indexed": true,
          "internalType": "address",
          "name": "asset",
          "type": "address"
        },
        {
          "indexed": false,
          "internalType": "uint256",
          "name": "timestamp",
          "type": "uint256"
        }
      ],
      "name": "UnsupportedRewardToken",
      "type": "event"
    },
    {
      "inputs": [
        {
          "internalType": "bytes32[]",
          "name": "assetsToRepay",
          "type": "bytes32[]"
        }
      ],
      "name": "_getAllPricesForLiquidation",
      "outputs": [
        {
          "components": [
            {
              "components": [
                {
                  "internalType": "bytes32",
                  "name": "asset",
                  "type": "bytes32"
                },
                {
                  "internalType": "uint256",
                  "name": "price",
                  "type": "uint256"
                }
              ],
              "internalType": "struct SolvencyFacetProd.AssetPrice[]",
              "name": "ownedAssetsPrices",
              "type": "tuple[]"
            },
            {
              "components": [
                {
                  "internalType": "bytes32",
                  "name": "asset",
                  "type": "bytes32"
                },
                {
                  "internalType": "uint256",
                  "name": "price",
                  "type": "uint256"
                }
              ],
              "internalType": "struct SolvencyFacetProd.AssetPrice[]",
              "name": "debtAssetsPrices",
              "type": "tuple[]"
            },
            {
              "components": [
                {
                  "internalType": "bytes32",
                  "name": "asset",
                  "type": "bytes32"
                },
                {
                  "internalType": "uint256",
                  "name": "price",
                  "type": "uint256"
                }
              ],
              "internalType": "struct SolvencyFacetProd.AssetPrice[]",
              "name": "stakedPositionsPrices",
              "type": "tuple[]"
            },
            {
              "components": [
                {
                  "internalType": "bytes32",
                  "name": "asset",
                  "type": "bytes32"
                },
                {
                  "internalType": "uint256",
                  "name": "price",
                  "type": "uint256"
                }
              ],
              "internalType": "struct SolvencyFacetProd.AssetPrice[]",
              "name": "assetsToRepayPrices",
              "type": "tuple[]"
            }
          ],
          "internalType": "struct SolvencyFacetProd.CachedPrices",
          "name": "result",
          "type": "tuple"
        }
      ],
      "stateMutability": "nonpayable",
      "type": "function"
    },
    {
      "inputs": [],
      "name": "_getHealthRatio",
      "outputs": [
        {
          "internalType": "uint256",
          "name": "health",
          "type": "uint256"
        }
      ],
      "stateMutability": "nonpayable",
      "type": "function"
    },
    {
      "inputs": [
        {
          "components": [
            {
              "components": [
                {
                  "internalType": "bytes32",
                  "name": "asset",
                  "type": "bytes32"
                },
                {
                  "internalType": "uint256",
                  "name": "price",
                  "type": "uint256"
                }
              ],
              "internalType": "struct SolvencyFacetProd.AssetPrice[]",
              "name": "ownedAssetsPrices",
              "type": "tuple[]"
            },
            {
              "components": [
                {
                  "internalType": "bytes32",
                  "name": "asset",
                  "type": "bytes32"
                },
                {
                  "internalType": "uint256",
                  "name": "price",
                  "type": "uint256"
                }
              ],
              "internalType": "struct SolvencyFacetProd.AssetPrice[]",
              "name": "debtAssetsPrices",
              "type": "tuple[]"
            },
            {
              "components": [
                {
                  "internalType": "bytes32",
                  "name": "asset",
                  "type": "bytes32"
                },
                {
                  "internalType": "uint256",
                  "name": "price",
                  "type": "uint256"
                }
              ],
              "internalType": "struct SolvencyFacetProd.AssetPrice[]",
              "name": "stakedPositionsPrices",
              "type": "tuple[]"
            },
            {
              "components": [
                {
                  "internalType": "bytes32",
                  "name": "asset",
                  "type": "bytes32"
                },
                {
                  "internalType": "uint256",
                  "name": "price",
                  "type": "uint256"
                }
              ],
              "internalType": "struct SolvencyFacetProd.AssetPrice[]",
              "name": "assetsToRepayPrices",
              "type": "tuple[]"
            }
          ],
          "internalType": "struct SolvencyFacetProd.CachedPrices",
          "name": "cachedPrices",
          "type": "tuple"
        }
      ],
      "name": "_getHealthRatioWithPrices",
      "outputs": [
        {
          "internalType": "uint256",
          "name": "health",
          "type": "uint256"
        }
      ],
      "stateMutability": "nonpayable",
      "type": "function"
    },
    {
      "inputs": [
        {
          "internalType": "bytes32",
          "name": "symbol",
          "type": "bytes32"
        }
      ],
      "name": "getPrice",
      "outputs": [
        {
          "internalType": "uint256",
          "name": "price",
          "type": "uint256"
        }
      ],
      "stateMutability": "nonpayable",
      "type": "function"
    },
    {
      "inputs": [
        {
          "internalType": "bytes32[]",
          "name": "symbols",
          "type": "bytes32[]"
        }
      ],
      "name": "getPrices",
      "outputs": [
        {
          "internalType": "uint256[]",
          "name": "prices",
          "type": "uint256[]"
        }
      ],
      "stateMutability": "nonpayable",
      "type": "function"
    },
    {
      "inputs": [],
      "name": "vectorSAVAX1Balance",
      "outputs": [
        {
          "internalType": "uint256",
          "name": "_stakedBalance",
          "type": "uint256"
        }
      ],
      "stateMutability": "view",
      "type": "function"
    },
    {
      "inputs": [
        {
          "internalType": "uint256",
          "name": "amount",
          "type": "uint256"
        }
      ],
      "name": "vectorStakeSAVAX1",
      "outputs": [],
      "stateMutability": "nonpayable",
      "type": "function"
    },
    {
      "inputs": [
        {
          "internalType": "uint256",
          "name": "amount",
          "type": "uint256"
        }
      ],
      "name": "vectorStakeUSDC1",
      "outputs": [],
      "stateMutability": "nonpayable",
      "type": "function"
    },
    {
      "inputs": [
        {
          "internalType": "uint256",
          "name": "amount",
          "type": "uint256"
        }
      ],
      "name": "vectorStakeWAVAX1",
      "outputs": [],
      "stateMutability": "nonpayable",
      "type": "function"
    },
    {
      "inputs": [],
      "name": "vectorUSDC1Balance",
      "outputs": [
        {
          "internalType": "uint256",
          "name": "_stakedBalance",
          "type": "uint256"
        }
      ],
      "stateMutability": "view",
      "type": "function"
    },
    {
      "inputs": [
        {
          "internalType": "uint256",
          "name": "amount",
          "type": "uint256"
        },
        {
          "internalType": "uint256",
          "name": "minAmount",
          "type": "uint256"
        }
      ],
      "name": "vectorUnstakeSAVAX1",
      "outputs": [],
      "stateMutability": "nonpayable",
      "type": "function"
    },
    {
      "inputs": [
        {
          "internalType": "uint256",
          "name": "amount",
          "type": "uint256"
        },
        {
          "internalType": "uint256",
          "name": "minAmount",
          "type": "uint256"
        }
      ],
      "name": "vectorUnstakeUSDC1",
      "outputs": [],
      "stateMutability": "nonpayable",
      "type": "function"
    },
    {
      "inputs": [
        {
          "internalType": "uint256",
          "name": "amount",
          "type": "uint256"
        },
        {
          "internalType": "uint256",
          "name": "minAmount",
          "type": "uint256"
        }
      ],
      "name": "vectorUnstakeWAVAX1",
      "outputs": [],
      "stateMutability": "nonpayable",
      "type": "function"
    },
    {
      "inputs": [],
      "name": "vectorWAVAX1Balance",
      "outputs": [
        {
          "internalType": "uint256",
          "name": "_stakedBalance",
          "type": "uint256"
        }
      ],
      "stateMutability": "view",
      "type": "function"
    }
  ],
  "transactionHash": "0x73e47a216f4aa6e9a460f1442108cd56635866b1b7b656d71dfe80643f5625c8",
  "args": [],
  "numDeployments": 1,
  "solcInputHash": "b4afded9ae06050a783df8dea6028bc0",
  "bytecode": "0x608060405234801561001057600080fd5b506001600081905550613e2f806100286000396000f3fe608060405234801561001057600080fd5b50600436106100ea5760003560e01c80636e3bfe9f1161008c578063b2d40e7311610066578063b2d40e7314610249578063df83c56f14610279578063e9bab0b614610295578063e9ebb39b146102b1576100ea565b80636e3bfe9f146101df5780639ae0870d1461020f578063a935279c1461022d576100ea565b806331d98b3f116100c857806331d98b3f1461015957806339e2719e146101895780633e80dfc9146101a75780633ff2d8d3146101c3576100ea565b80631b028567146100ef57806326ee48361461010b5780632fbe31291461013b575b600080fd5b610109600480360381019061010491906127a1565b6102cf565b005b6101256004803603810190610120919061295d565b6103e3565b6040516101329190612a64565b60405180910390f35b61014361048d565b6040516101509190612a95565b60405180910390f35b610173600480360381019061016e9190612ab0565b610527565b6040516101809190612a95565b60405180910390f35b6101916105d1565b60405161019e9190612a95565b60405180910390f35b6101c160048036038101906101bc9190612add565b61066e565b005b6101dd60048036038101906101d89190612add565b6106d0565b005b6101f960048036038101906101f49190612d22565b610732565b6040516102069190612a95565b60405180910390f35b6102176107dc565b6040516102249190612a95565b60405180910390f35b610247600480360381019061024291906127a1565b610876565b005b610263600480360381019061025e919061295d565b61098a565b6040516102709190612ed0565b60405180910390f35b610293600480360381019061028e91906127a1565b610a3a565b005b6102af60048036038101906102aa9190612add565b610b4e565b005b6102b9610bb0565b6040516102c69190612a95565b60405180910390f35b6000604051806080016040528073994f0e36ceb953105d05897537bf55d20124515673ffffffffffffffffffffffffffffffffffffffff1681526020017f5553444300000000000000000000000000000000000000000000000000000000815260200163e9ebb39b60e01b7bffffffffffffffffffffffffffffffffffffffffffffffffffffffff19168152602001633e80dfc960e01b7bffffffffffffffffffffffffffffffffffffffffffffffffffffffff191681525090506103df7f555344430000000000000000000000000000000000000000000000000000000073b97ef9ef8734c71904d8002f8b6bc66dd9c48a6e73994f0e36ceb953105d05897537bf55d2012451568585610c4a565b5050565b60606104736103f86326ee483660e01b611011565b6326ee483660e01b846040516024016104119190612fa1565b604051602081830303815290604052907bffffffffffffffffffffffffffffffffffffffffffffffffffffffff19166020820180517bffffffffffffffffffffffffffffffffffffffffffffffffffffffff838183161783525050505061109b565b806020019051810190610486919061309b565b9050919050565b60008073ff5386af93cf4bd8d5aecad6df7f4f4be381fd6990508073ffffffffffffffffffffffffffffffffffffffff1663e3d670d7306040518263ffffffff1660e01b81526004016104e09190613125565b602060405180830381865afa1580156104fd573d6000803e3d6000fd5b505050506040513d601f19601f820116820180604052508101906105219190613140565b91505090565b60006105b761053c6331d98b3f60e01b611011565b6331d98b3f60e01b84604051602401610555919061317c565b604051602081830303815290604052907bffffffffffffffffffffffffffffffffffffffffffffffffffffffff19166020820180517bffffffffffffffffffffffffffffffffffffffffffffffffffffffff838183161783525050505061109b565b8060200190518101906105ca9190613140565b9050919050565b60006106566105e6637914334f60e01b611011565b637914334f60e01b604051602401604051602081830303815290604052907bffffffffffffffffffffffffffffffffffffffffffffffffffffffff19166020820180517bffffffffffffffffffffffffffffffffffffffffffffffffffffffff838183161783525050505061109b565b8060200190518101906106699190613140565b905090565b6106cb7f555344430000000000000000000000000000000000000000000000000000000073b97ef9ef8734c71904d8002f8b6bc66dd9c48a6e73994f0e36ceb953105d05897537bf55d2012451568585633e80dfc960e01b61112c565b505050565b61072d7f415641580000000000000000000000000000000000000000000000000000000073b31f66aa3c1e785363f0875a1b74e27b85fd66c773ff5386af93cf4bd8d5aecad6df7f4f4be381fd698585633ff2d8d360e01b61112c565b505050565b60006107c261074763360398a360e01b611011565b63360398a360e01b846040516024016107609190612ed0565b604051602081830303815290604052907bffffffffffffffffffffffffffffffffffffffffffffffffffffffff19166020820180517bffffffffffffffffffffffffffffffffffffffffffffffffffffffff838183161783525050505061109b565b8060200190518101906107d59190613140565b9050919050565b60008073812b7c3b5a9164270dd8a0b3bc47550877aecdb190508073ffffffffffffffffffffffffffffffffffffffff1663e3d670d7306040518263ffffffff1660e01b815260040161082f9190613125565b602060405180830381865afa15801561084c573d6000803e3d6000fd5b505050506040513d601f19601f820116820180604052508101906108709190613140565b91505090565b6000604051806080016040528073ff5386af93cf4bd8d5aecad6df7f4f4be381fd6973ffffffffffffffffffffffffffffffffffffffff1681526020017f41564158000000000000000000000000000000000000000000000000000000008152602001632fbe312960e01b7bffffffffffffffffffffffffffffffffffffffffffffffffffffffff19168152602001633ff2d8d360e01b7bffffffffffffffffffffffffffffffffffffffffffffffffffffffff191681525090506109867f415641580000000000000000000000000000000000000000000000000000000073b31f66aa3c1e785363f0875a1b74e27b85fd66c773ff5386af93cf4bd8d5aecad6df7f4f4be381fd698585610c4a565b5050565b61099261272f565b610a206109a563a3aa8d1e60e01b611011565b63a3aa8d1e60e01b846040516024016109be9190612fa1565b604051602081830303815290604052907bffffffffffffffffffffffffffffffffffffffffffffffffffffffff19166020820180517bffffffffffffffffffffffffffffffffffffffffffffffffffffffff838183161783525050505061109b565b806020019051810190610a33919061337b565b9050919050565b6000604051806080016040528073812b7c3b5a9164270dd8a0b3bc47550877aecdb173ffffffffffffffffffffffffffffffffffffffff1681526020017f73415641580000000000000000000000000000000000000000000000000000008152602001639ae0870d60e01b7bffffffffffffffffffffffffffffffffffffffffffffffffffffffff1916815260200163e9bab0b660e01b7bffffffffffffffffffffffffffffffffffffffffffffffffffffffff19168152509050610b4a7f7341564158000000000000000000000000000000000000000000000000000000732b2c81e08f1af8835a78bb2a90ae924ace0ea4be73812b7c3b5a9164270dd8a0b3bc47550877aecdb18585610c4a565b5050565b610bab7f7341564158000000000000000000000000000000000000000000000000000000732b2c81e08f1af8835a78bb2a90ae924ace0ea4be73812b7c3b5a9164270dd8a0b3bc47550877aecdb1858563e9bab0b660e01b61112c565b505050565b60008073994f0e36ceb953105d05897537bf55d20124515690508073ffffffffffffffffffffffffffffffffffffffff1663e3d670d7306040518263ffffffff1660e01b8152600401610c039190613125565b602060405180830381865afa158015610c20573d6000803e3d6000fd5b505050506040513d601f19601f82011682018060405250810190610c449190613140565b91505090565b610c526115ae565b6000610c5c611649565b90506002816000015403610ca5576040517f08c379a0000000000000000000000000000000000000000000000000000000008152600401610c9c90613421565b60405180910390fd5b6002816000018190555060008311610cf2576040517f08c379a0000000000000000000000000000000000000000000000000000000008152600401610ce99061348d565b60405180910390fd5b828573ffffffffffffffffffffffffffffffffffffffff166370a08231306040518263ffffffff1660e01b8152600401610d2c9190613125565b602060405180830381865afa158015610d49573d6000803e3d6000fd5b505050506040513d601f19601f82011682018060405250810190610d6d9190613140565b1015610dae576040517f08c379a0000000000000000000000000000000000000000000000000000000008152600401610da5906134f9565b60405180910390fd5b8473ffffffffffffffffffffffffffffffffffffffff1663095ea7b3738b3d9f0017fa369cd8c164d0cc078bf4ca588ae5856040518363ffffffff1660e01b8152600401610dfd929190613519565b6020604051808303816000875af1158015610e1c573d6000803e3d6000fd5b505050506040513d601f19601f82011682018060405250810190610e40919061357a565b508373ffffffffffffffffffffffffffffffffffffffff1663b6b55f25846040518263ffffffff1660e01b8152600401610e7a9190612a95565b600060405180830381600087803b158015610e9457600080fd5b505af1158015610ea8573d6000803e3d6000fd5b50505050610eb582611676565b6000610ec28760006117fa565b905060008173ffffffffffffffffffffffffffffffffffffffff166370a08231306040518263ffffffff1660e01b8152600401610eff9190613125565b602060405180830381865afa158015610f1c573d6000803e3d6000fd5b505050506040513d601f19601f82011682018060405250810190610f409190613140565b03610f4f57610f4e87611887565b5b8473ffffffffffffffffffffffffffffffffffffffff16873373ffffffffffffffffffffffffffffffffffffffff167f643de8375c3a1c76ab240fe4eda6e589cf10acfe25f67d9951ef0a7ababb67228742604051610faf9291906135a7565b60405180910390a450610fc06118a5565b610fff576040517f08c379a0000000000000000000000000000000000000000000000000000000008152600401610ff690613642565b60405180910390fd5b60018160000181905550505050505050565b600061101b611942565b73ffffffffffffffffffffffffffffffffffffffff16630d741577836040518263ffffffff1660e01b8152600401611053919061369d565b602060405180830381865afa158015611070573d6000803e3d6000fd5b505050506040513d601f19601f8201168201806040525081019061109491906136e4565b9050919050565b606060006110a88361195e565b90506000808573ffffffffffffffffffffffffffffffffffffffff16836040516110d29190613782565b600060405180830381855af49150503d806000811461110d576040519150601f19603f3d011682016040523d82523d6000602084013e611112565b606091505b50915091506111218282611a18565b935050505092915050565b6000806111376118a5565b90508015611148576111476115ae565b5b6000611152611649565b9050600281600001540361119b576040517f08c379a000000000000000000000000000000000000000000000000000000000815260040161119290613421565b60405180910390fd5b60028160000181905550600086116111e8576040517f08c379a00000000000000000000000000000000000000000000000000000000081526004016111df906137e5565b60405180910390fd5b600087905060008173ffffffffffffffffffffffffffffffffffffffff1663e3d670d7306040518263ffffffff1660e01b81526004016112289190613125565b602060405180830381865afa158015611245573d6000803e3d6000fd5b505050506040513d601f19601f820116820180604052508101906112699190613140565b9050878110156112ae576040517f08c379a00000000000000000000000000000000000000000000000000000000081526004016112a590613877565b60405180910390fd5b60006112bb8c60016117fa565b905060008173ffffffffffffffffffffffffffffffffffffffff166370a08231306040518263ffffffff1660e01b81526004016112f89190613125565b602060405180830381865afa158015611315573d6000803e3d6000fd5b505050506040513d601f19601f820116820180604052508101906113399190613140565b90508373ffffffffffffffffffffffffffffffffffffffff1663441a3e708b8b6040518363ffffffff1660e01b81526004016113769291906135a7565b600060405180830381600087803b15801561139057600080fd5b505af11580156113a4573d6000803e3d6000fd5b5050505060008273ffffffffffffffffffffffffffffffffffffffff166370a08231306040518263ffffffff1660e01b81526004016113e39190613125565b602060405180830381865afa158015611400573d6000803e3d6000fd5b505050506040513d601f19601f820116820180604052508101906114249190613140565b905060008573ffffffffffffffffffffffffffffffffffffffff1663e3d670d7306040518263ffffffff1660e01b81526004016114619190613125565b602060405180830381865afa15801561147e573d6000803e3d6000fd5b505050506040513d601f19601f820116820180604052508101906114a29190613140565b036114b1576114b089611b18565b5b6114bb8e8e611d71565b8b73ffffffffffffffffffffffffffffffffffffffff168e3373ffffffffffffffffffffffffffffffffffffffff167fb45e912aa92f8b6b5caaef25e5188ab9c924b5c90188180c3f0cdeb3273c731f858561151791906138c6565b426040516115269291906135a7565b60405180910390a461153785611e43565b818161154391906138c6565b97505050505050600181600001819055505080156115a3576115636118a5565b6115a2576040517f08c379a000000000000000000000000000000000000000000000000000000000815260040161159990613946565b60405180910390fd5b5b509695505050505050565b6115b661219a565b60010160009054906101000a900473ffffffffffffffffffffffffffffffffffffffff1673ffffffffffffffffffffffffffffffffffffffff163373ffffffffffffffffffffffffffffffffffffffff1614611647576040517f08c379a000000000000000000000000000000000000000000000000000000000815260040161163e906139d8565b60405180910390fd5b565b6000807f1c85eba10a4cf2d29c83fc15f97931886b9fd3caeb70d8c377aeedc58b919e3b90508091505090565b60006116806121c7565b90506000805b82805490508110156117285783604001517bffffffffffffffffffffffffffffffffffffffffffffffffffffffff19168382815481106116c9576116c86139f8565b5b906000526020600020906003020160020160009054906101000a900460e01b7bffffffffffffffffffffffffffffffffffffffffffffffffffffffff1916036117155760019150611728565b808061172090613a27565b915050611686565b50806117f5578183908060018154018082558091505060019003906000526020600020906003020160009091909190915060008201518160000160006101000a81548173ffffffffffffffffffffffffffffffffffffffff021916908373ffffffffffffffffffffffffffffffffffffffff1602179055506020820151816001015560408201518160020160006101000a81548163ffffffff021916908360e01c021790555060608201518160020160046101000a81548163ffffffff021916908360e01c021790555050505b505050565b60006118046121d9565b73ffffffffffffffffffffffffffffffffffffffff166325eb876f84846040518363ffffffff1660e01b815260040161183e929190613a7e565b602060405180830381865afa15801561185b573d6000803e3d6000fd5b505050506040513d601f19601f8201168201806040525081019061187f91906136e4565b905092915050565b600061189161219a565b90506118a081600401836121f5565b505050565b600061192a6118ba635ce2395060e01b611011565b635ce2395060e01b604051602401604051602081830303815290604052907bffffffffffffffffffffffffffffffffffffffffffffffffffffffff19166020820180517bffffffffffffffffffffffffffffffffffffffffffffffffffffffff838183161783525050505061109b565b80602001905181019061193d919061357a565b905090565b600073023da3e0d49ee05704773271b11484c6d1e76ccb905090565b6060600082519050600061197061220c565b9050600081836119809190613aa7565b905060003690508211156119c0576040517f5796f78a00000000000000000000000000000000000000000000000000000000815260040160405180910390fd5b6060604051905081815285602001848101826020015b818310156119f357825181526020830192506020810190506119d6565b5050508283360385602001830137602084840182010160405280945050505050919050565b606082611b0f576000825103611a5a576040517f567fe27a00000000000000000000000000000000000000000000000000000000815260040160405180910390fd5b600060208301517f08c379a00000000000000000000000000000000000000000000000000000000081149150508015611ad2576060604484019050806040517f0f7e8278000000000000000000000000000000000000000000000000000000008152600401611ac99190613b1f565b60405180910390fd5b826040517ffd36fde3000000000000000000000000000000000000000000000000000000008152600401611b069190613b8b565b60405180910390fd5b81905092915050565b6000611b226121c7565b905060005b8180549050811015611d6c57827bffffffffffffffffffffffffffffffffffffffffffffffffffffffff1916828281548110611b6657611b656139f8565b5b906000526020600020906003020160020160009054906101000a900460e01b7bffffffffffffffffffffffffffffffffffffffffffffffffffffffff191603611d59578160018380549050611bbb91906138c6565b81548110611bcc57611bcb6139f8565b5b9060005260206000209060030201828281548110611bed57611bec6139f8565b5b90600052602060002090600302016000820160009054906101000a900473ffffffffffffffffffffffffffffffffffffffff168160000160006101000a81548173ffffffffffffffffffffffffffffffffffffffff021916908373ffffffffffffffffffffffffffffffffffffffff160217905550600182015481600101556002820160009054906101000a900460e01b8160020160006101000a81548163ffffffff021916908360e01c02179055506002820160049054906101000a900460e01b8160020160046101000a81548163ffffffff021916908360e01c021790555090505081805480611ce257611ce1613bad565b5b6001900381819060005260206000209060030201600080820160006101000a81549073ffffffffffffffffffffffffffffffffffffffff021916905560018201600090556002820160006101000a81549063ffffffff02191690556002820160046101000a81549063ffffffff0219169055505090555b8080611d6490613a27565b915050611b27565b505050565b60008203611db4576040517f08c379a0000000000000000000000000000000000000000000000000000000008152600401611dab90613c28565b60405180910390fd5b600073ffffffffffffffffffffffffffffffffffffffff168173ffffffffffffffffffffffffffffffffffffffff1603611e23576040517f08c379a0000000000000000000000000000000000000000000000000000000008152600401611e1a90613c94565b60405180910390fd5b6000611e2d61219a565b9050611e3d81600401848461227c565b50505050565b60008173ffffffffffffffffffffffffffffffffffffffff1663dcc3e06e6040518163ffffffff1660e01b8152600401602060405180830381865afa158015611e90573d6000803e3d6000fd5b505050506040513d601f19601f82011682018060405250810190611eb49190613cf2565b90506000611ec06121d9565b905060005b600115612194576000808473ffffffffffffffffffffffffffffffffffffffff1683604051602401611ef79190612a95565b6040516020818303038152906040527f7bb7bed1000000000000000000000000000000000000000000000000000000007bffffffffffffffffffffffffffffffffffffffffffffffffffffffff19166020820180517bffffffffffffffffffffffffffffffffffffffffffffffffffffffff8381831617835250505050604051611f819190613782565b6000604051808303816000865af19150503d8060008114611fbe576040519150601f19603f3d011682016040523d82523d6000602084013e611fc3565b606091505b509150915081611fd4575050612194565b600081806020019051810190611fea9190613d5d565b905060008573ffffffffffffffffffffffffffffffffffffffff1663f823f1e0836040518263ffffffff1660e01b81526004016120279190613125565b602060405180830381865afa158015612044573d6000803e3d6000fd5b505050506040513d601f19601f820116820180604052508101906120689190613d8a565b9050600081036120ef578173ffffffffffffffffffffffffffffffffffffffff163373ffffffffffffffffffffffffffffffffffffffff167f8ad2c1512cdb5cbdcc09581899b16e96a48479394a2cd9e973a717e4ded09941426040516120cf9190612a95565b60405180910390a36001856120e49190613aa7565b945050505050611ec5565b60008273ffffffffffffffffffffffffffffffffffffffff166370a08231306040518263ffffffff1660e01b815260040161212a9190613125565b602060405180830381865afa158015612147573d6000803e3d6000fd5b505050506040513d601f19601f8201168201806040525081019061216b9190613140565b111561217c5761217b8183611d71565b5b6001856121899190613aa7565b945050505050611ec5565b50505050565b6000807f8d5bb42e0ac1496a2c326edc9c00758985246e6c2bb146d6c2f4a0d509e0960a90508091505090565b60006121d161219a565b600701905090565b60007334cb5fc3b28215713682de95daf2b00a4619db03905090565b600061220483600001836122ae565b905092915050565b6000806122176122e7565b90506000612224826123f8565b61ffff1690506002826122379190613aa7565b915060005b8181101561227357600061224f84612454565b9050808461225d9190613aa7565b935050808061226b90613a27565b91505061223c565b50819250505090565b60006122a584600001848473ffffffffffffffffffffffffffffffffffffffff1660001b612493565b90509392505050565b6000826002016000838152602001908152602001600020600090556122df82846000016124ce90919063ffffffff16565b905092915050565b60008060203603356602ed57011e000081166602ed57011e0000149150508061233c576040517fe7764c9e00000000000000000000000000000000000000000000000000000000815260040160405180910390fd5b6000803690506029111561237c576040517f5796f78a00000000000000000000000000000000000000000000000000000000815260040160405180910390fd5b602936033590506000600960038362ffffff166123999190613aa7565b6123a39190613aa7565b905060003690506002826123b79190613aa7565b11156123ef576040517fc30a7bd700000000000000000000000000000000000000000000000000000000815260040160405180910390fd5b80935050505090565b6000806020836124089190613aa7565b90506000369050811115612448576040517f5796f78a00000000000000000000000000000000000000000000000000000000815260040160405180910390fd5b80360335915050919050565b6000806000612462846124e5565b91509150604e8160206124759190613aa7565b836124809190613db7565b61248a9190613aa7565b92505050919050565b600081846002016000858152602001908152602001600020819055506124c5838560000161255b90919063ffffffff16565b90509392505050565b60006124dd8360000183612572565b905092915050565b60008060008060006041866124fa9190613aa7565b9050600061252160208361250e9190613aa7565b600036905061268690919063ffffffff16565b90508035935061253b60038261268690919063ffffffff16565b9050803592508362ffffff1695508263ffffffff16945050505050915091565b600061256a836000018361269c565b905092915050565b6000808360010160008481526020019081526020016000205490506000811461267a5760006001826125a491906138c6565b90506000600186600001805490506125bc91906138c6565b905081811461262b5760008660000182815481106125dd576125dc6139f8565b5b9060005260206000200154905080876000018481548110612601576126006139f8565b5b90600052602060002001819055508387600101600083815260200190815260200160002081905550505b8560000180548061263f5761263e613bad565b5b600190038181906000526020600020016000905590558560010160008681526020019081526020016000206000905560019350505050612680565b60009150505b92915050565b6000818361269491906138c6565b905092915050565b60006126a8838361270c565b612701578260000182908060018154018082558091505060019003906000526020600020016000909190919091505582600001805490508360010160008481526020019081526020016000208190555060019050612706565b600090505b92915050565b600080836001016000848152602001908152602001600020541415905092915050565b6040518060800160405280606081526020016060815260200160608152602001606081525090565b6000604051905090565b600080fd5b600080fd5b6000819050919050565b61277e8161276b565b811461278957600080fd5b50565b60008135905061279b81612775565b92915050565b6000602082840312156127b7576127b6612761565b5b60006127c58482850161278c565b91505092915050565b600080fd5b6000601f19601f8301169050919050565b7f4e487b7100000000000000000000000000000000000000000000000000000000600052604160045260246000fd5b61281c826127d3565b810181811067ffffffffffffffff8211171561283b5761283a6127e4565b5b80604052505050565b600061284e612757565b905061285a8282612813565b919050565b600067ffffffffffffffff82111561287a576128796127e4565b5b602082029050602081019050919050565b600080fd5b6000819050919050565b6128a381612890565b81146128ae57600080fd5b50565b6000813590506128c08161289a565b92915050565b60006128d96128d48461285f565b612844565b905080838252602082019050602084028301858111156128fc576128fb61288b565b5b835b81811015612925578061291188826128b1565b8452602084019350506020810190506128fe565b5050509392505050565b600082601f830112612944576129436127ce565b5b81356129548482602086016128c6565b91505092915050565b60006020828403121561297357612972612761565b5b600082013567ffffffffffffffff81111561299157612990612766565b5b61299d8482850161292f565b91505092915050565b600081519050919050565b600082825260208201905092915050565b6000819050602082019050919050565b6129db8161276b565b82525050565b60006129ed83836129d2565b60208301905092915050565b6000602082019050919050565b6000612a11826129a6565b612a1b81856129b1565b9350612a26836129c2565b8060005b83811015612a57578151612a3e88826129e1565b9750612a49836129f9565b925050600181019050612a2a565b5085935050505092915050565b60006020820190508181036000830152612a7e8184612a06565b905092915050565b612a8f8161276b565b82525050565b6000602082019050612aaa6000830184612a86565b92915050565b600060208284031215612ac657612ac5612761565b5b6000612ad4848285016128b1565b91505092915050565b60008060408385031215612af457612af3612761565b5b6000612b028582860161278c565b9250506020612b138582860161278c565b9150509250929050565b600080fd5b600080fd5b600067ffffffffffffffff821115612b4257612b416127e4565b5b602082029050602081019050919050565b600060408284031215612b6957612b68612b1d565b5b612b736040612844565b90506000612b83848285016128b1565b6000830152506020612b978482850161278c565b60208301525092915050565b6000612bb6612bb184612b27565b612844565b90508083825260208201905060408402830185811115612bd957612bd861288b565b5b835b81811015612c025780612bee8882612b53565b845260208401935050604081019050612bdb565b5050509392505050565b600082601f830112612c2157612c206127ce565b5b8135612c31848260208601612ba3565b91505092915050565b600060808284031215612c5057612c4f612b1d565b5b612c5a6080612844565b9050600082013567ffffffffffffffff811115612c7a57612c79612b22565b5b612c8684828501612c0c565b600083015250602082013567ffffffffffffffff811115612caa57612ca9612b22565b5b612cb684828501612c0c565b602083015250604082013567ffffffffffffffff811115612cda57612cd9612b22565b5b612ce684828501612c0c565b604083015250606082013567ffffffffffffffff811115612d0a57612d09612b22565b5b612d1684828501612c0c565b60608301525092915050565b600060208284031215612d3857612d37612761565b5b600082013567ffffffffffffffff811115612d5657612d55612766565b5b612d6284828501612c3a565b91505092915050565b600081519050919050565b600082825260208201905092915050565b6000819050602082019050919050565b612da081612890565b82525050565b604082016000820151612dbc6000850182612d97565b506020820151612dcf60208501826129d2565b50505050565b6000612de18383612da6565b60408301905092915050565b6000602082019050919050565b6000612e0582612d6b565b612e0f8185612d76565b9350612e1a83612d87565b8060005b83811015612e4b578151612e328882612dd5565b9750612e3d83612ded565b925050600181019050612e1e565b5085935050505092915050565b60006080830160008301518482036000860152612e758282612dfa565b91505060208301518482036020860152612e8f8282612dfa565b91505060408301518482036040860152612ea98282612dfa565b91505060608301518482036060860152612ec38282612dfa565b9150508091505092915050565b60006020820190508181036000830152612eea8184612e58565b905092915050565b600081519050919050565b600082825260208201905092915050565b6000819050602082019050919050565b6000612f2a8383612d97565b60208301905092915050565b6000602082019050919050565b6000612f4e82612ef2565b612f588185612efd565b9350612f6383612f0e565b8060005b83811015612f94578151612f7b8882612f1e565b9750612f8683612f36565b925050600181019050612f67565b5085935050505092915050565b60006020820190508181036000830152612fbb8184612f43565b905092915050565b600067ffffffffffffffff821115612fde57612fdd6127e4565b5b602082029050602081019050919050565b600081519050612ffe81612775565b92915050565b600061301761301284612fc3565b612844565b9050808382526020820190506020840283018581111561303a5761303961288b565b5b835b81811015613063578061304f8882612fef565b84526020840193505060208101905061303c565b5050509392505050565b600082601f830112613082576130816127ce565b5b8151613092848260208601613004565b91505092915050565b6000602082840312156130b1576130b0612761565b5b600082015167ffffffffffffffff8111156130cf576130ce612766565b5b6130db8482850161306d565b91505092915050565b600073ffffffffffffffffffffffffffffffffffffffff82169050919050565b600061310f826130e4565b9050919050565b61311f81613104565b82525050565b600060208201905061313a6000830184613116565b92915050565b60006020828403121561315657613155612761565b5b600061316484828501612fef565b91505092915050565b61317681612890565b82525050565b6000602082019050613191600083018461316d565b92915050565b6000815190506131a68161289a565b92915050565b6000604082840312156131c2576131c1612b1d565b5b6131cc6040612844565b905060006131dc84828501613197565b60008301525060206131f084828501612fef565b60208301525092915050565b600061320f61320a84612b27565b612844565b905080838252602082019050604084028301858111156132325761323161288b565b5b835b8181101561325b578061324788826131ac565b845260208401935050604081019050613234565b5050509392505050565b600082601f83011261327a576132796127ce565b5b815161328a8482602086016131fc565b91505092915050565b6000608082840312156132a9576132a8612b1d565b5b6132b36080612844565b9050600082015167ffffffffffffffff8111156132d3576132d2612b22565b5b6132df84828501613265565b600083015250602082015167ffffffffffffffff81111561330357613302612b22565b5b61330f84828501613265565b602083015250604082015167ffffffffffffffff81111561333357613332612b22565b5b61333f84828501613265565b604083015250606082015167ffffffffffffffff81111561336357613362612b22565b5b61336f84828501613265565b60608301525092915050565b60006020828403121561339157613390612761565b5b600082015167ffffffffffffffff8111156133af576133ae612766565b5b6133bb84828501613293565b91505092915050565b600082825260208201905092915050565b7f5265656e7472616e637947756172643a207265656e7472616e742063616c6c00600082015250565b600061340b601f836133c4565b9150613416826133d5565b602082019050919050565b6000602082019050818103600083015261343a816133fe565b9050919050565b7f43616e6e6f74207374616b65203020746f6b656e730000000000000000000000600082015250565b60006134776015836133c4565b915061348282613441565b602082019050919050565b600060208201905081810360008301526134a68161346a565b9050919050565b7f4e6f7420656e6f75676820746f6b656e20617661696c61626c65000000000000600082015250565b60006134e3601a836133c4565b91506134ee826134ad565b602082019050919050565b60006020820190508181036000830152613512816134d6565b9050919050565b600060408201905061352e6000830185613116565b61353b6020830184612a86565b9392505050565b60008115159050919050565b61355781613542565b811461356257600080fd5b50565b6000815190506135748161354e565b92915050565b6000602082840312156135905761358f612761565b5b600061359e84828501613565565b91505092915050565b60006040820190506135bc6000830185612a86565b6135c96020830184612a86565b9392505050565b7f54686520616374696f6e206d617920636175736520616e206163636f756e742060008201527f746f206265636f6d6520696e736f6c76656e7400000000000000000000000000602082015250565b600061362c6033836133c4565b9150613637826135d0565b604082019050919050565b6000602082019050818103600083015261365b8161361f565b9050919050565b60007fffffffff0000000000000000000000000000000000000000000000000000000082169050919050565b61369781613662565b82525050565b60006020820190506136b2600083018461368e565b92915050565b6136c181613104565b81146136cc57600080fd5b50565b6000815190506136de816136b8565b92915050565b6000602082840312156136fa576136f9612761565b5b6000613708848285016136cf565b91505092915050565b600081519050919050565b600081905092915050565b60005b8381101561374557808201518184015260208101905061372a565b60008484015250505050565b600061375c82613711565b613766818561371c565b9350613776818560208601613727565b80840191505092915050565b600061378e8284613751565b915081905092915050565b7f43616e6e6f7420756e7374616b65203020746f6b656e73000000000000000000600082015250565b60006137cf6017836133c4565b91506137da82613799565b602082019050919050565b600060208201905081810360008301526137fe816137c2565b9050919050565b7f43616e6e6f7420756e7374616b65206d6f7265207468616e2077617320696e6960008201527f7469616c6c79207374616b656400000000000000000000000000000000000000602082015250565b6000613861602d836133c4565b915061386c82613805565b604082019050919050565b6000602082019050818103600083015261389081613854565b9050919050565b7f4e487b7100000000000000000000000000000000000000000000000000000000600052601160045260246000fd5b60006138d18261276b565b91506138dc8361276b565b92508282039050818111156138f4576138f3613897565b5b92915050565b7f4d757374207374617920736f6c76656e74000000000000000000000000000000600082015250565b60006139306011836133c4565b915061393b826138fa565b602082019050919050565b6000602082019050818103600083015261395f81613923565b9050919050565b7f4469616d6f6e6453746f726167654c69623a204d75737420626520636f6e747260008201527f616374206f776e65720000000000000000000000000000000000000000000000602082015250565b60006139c26029836133c4565b91506139cd82613966565b604082019050919050565b600060208201905081810360008301526139f1816139b5565b9050919050565b7f4e487b7100000000000000000000000000000000000000000000000000000000600052603260045260246000fd5b6000613a328261276b565b91507fffffffffffffffffffffffffffffffffffffffffffffffffffffffffffffffff8203613a6457613a63613897565b5b600182019050919050565b613a7881613542565b82525050565b6000604082019050613a93600083018561316d565b613aa06020830184613a6f565b9392505050565b6000613ab28261276b565b9150613abd8361276b565b9250828201905080821115613ad557613ad4613897565b5b92915050565b600081519050919050565b6000613af182613adb565b613afb81856133c4565b9350613b0b818560208601613727565b613b14816127d3565b840191505092915050565b60006020820190508181036000830152613b398184613ae6565b905092915050565b600082825260208201905092915050565b6000613b5d82613711565b613b678185613b41565b9350613b77818560208601613727565b613b80816127d3565b840191505092915050565b60006020820190508181036000830152613ba58184613b52565b905092915050565b7f4e487b7100000000000000000000000000000000000000000000000000000000600052603160045260246000fd5b7f53796d626f6c2063616e6e6f7420626520656d70747900000000000000000000600082015250565b6000613c126016836133c4565b9150613c1d82613bdc565b602082019050919050565b60006020820190508181036000830152613c4181613c05565b9050919050565b7f496e76616c696420416464726573735a65726f00000000000000000000000000600082015250565b6000613c7e6013836133c4565b9150613c8982613c48565b602082019050919050565b60006020820190508181036000830152613cad81613c71565b9050919050565b6000613cbf82613104565b9050919050565b613ccf81613cb4565b8114613cda57600080fd5b50565b600081519050613cec81613cc6565b92915050565b600060208284031215613d0857613d07612761565b5b6000613d1684828501613cdd565b91505092915050565b6000613d2a826130e4565b9050919050565b613d3a81613d1f565b8114613d4557600080fd5b50565b600081519050613d5781613d31565b92915050565b600060208284031215613d7357613d72612761565b5b6000613d8184828501613d48565b91505092915050565b600060208284031215613da057613d9f612761565b5b6000613dae84828501613197565b91505092915050565b6000613dc28261276b565b9150613dcd8361276b565b9250828202613ddb8161276b565b91508282048414831517613df257613df1613897565b5b509291505056fea264697066735822122009da384f956f47f35ec291fb0b9a39e4848bdf35589c026ec6f267d36ba32ed664736f6c63430008110033",
  "devdoc": {
    "events": {
      "Staked(address,bytes32,address,uint256,uint256)": {
        "details": "emitted when user stakes an asset",
        "params": {
          "amount": "of the asset that was staked",
          "asset": "the asset that was staked",
          "timestamp": "of staking*",
          "user": "the address executing staking",
          "vault": "address of receipt token"
        }
      },
      "Unstaked(address,bytes32,address,uint256,uint256)": {
        "details": "emitted when user unstakes an asset",
        "params": {
          "amount": "of the asset that was unstaked",
          "asset": "the asset that was unstaked",
          "timestamp": "of unstaking*",
          "user": "the address executing unstaking",
          "vault": "address of receipt token"
        }
      },
      "UnsupportedRewardToken(address,address,uint256)": {
        "details": "emitted when user collects rewards in tokens that are not supported",
        "params": {
          "asset": "reward token that was collected",
          "timestamp": "of collecting rewards*",
          "user": "the address collecting rewards"
        }
      }
    },
    "kind": "dev",
    "methods": {},
    "version": 1
  },
  "userdoc": {
    "kind": "user",
    "methods": {},
    "version": 1
  },
  "storageLayout": {
    "storage": [
      {
        "astId": 9094,
        "contract": "contracts/facets/avalanche/VectorFinanceFacet.sol:VectorFinanceFacet",
        "label": "_status",
        "offset": 0,
        "slot": "0",
        "type": "t_uint256"
      }
    ],
    "types": {
      "t_uint256": {
        "encoding": "inplace",
        "label": "uint256",
        "numberOfBytes": "32"
      }
    }
  }
}