{
  "address": "0x241196150f863174d07cB388240c61A82988E4CE",
  "abi": [
    {
      "inputs": [],
      "name": "BorrowersRegistryNotConfigured",
      "type": "error"
    },
    {
      "inputs": [],
      "name": "BurnAmountExceedsBalance",
      "type": "error"
    },
    {
      "inputs": [
        {
          "internalType": "uint256",
          "name": "requested",
          "type": "uint256"
        },
        {
          "internalType": "uint256",
          "name": "allowance",
          "type": "uint256"
        }
      ],
      "name": "InsufficientAllowance",
      "type": "error"
    },
    {
      "inputs": [],
      "name": "InsufficientPoolFunds",
      "type": "error"
    },
    {
      "inputs": [],
      "name": "InsufficientSurplus",
      "type": "error"
    },
    {
      "inputs": [],
      "name": "MaxPoolUtilisationBreached",
      "type": "error"
    },
    {
      "inputs": [],
      "name": "MintToAddressZero",
      "type": "error"
    },
    {
      "inputs": [
        {
          "internalType": "address",
          "name": "target",
          "type": "address"
        }
      ],
      "name": "NotAContract",
      "type": "error"
    },
    {
      "inputs": [],
      "name": "NotAuthorizedToBorrow",
      "type": "error"
    },
    {
      "inputs": [],
      "name": "PoolFrozen",
      "type": "error"
    },
    {
      "inputs": [],
      "name": "RepayingMoreThanWasBorrowed",
      "type": "error"
    },
    {
      "inputs": [],
      "name": "SpenderZeroAddress",
      "type": "error"
    },
    {
      "inputs": [],
      "name": "TotalSupplyCapBreached",
      "type": "error"
    },
    {
      "inputs": [
        {
          "internalType": "uint256",
          "name": "amount",
          "type": "uint256"
        },
        {
          "internalType": "uint256",
          "name": "balance",
          "type": "uint256"
        }
      ],
      "name": "TransferAmountExceedsBalance",
      "type": "error"
    },
    {
      "inputs": [],
      "name": "TransferToPoolAddress",
      "type": "error"
    },
    {
      "inputs": [],
      "name": "TransferToZeroAddress",
      "type": "error"
    },
    {
      "inputs": [],
      "name": "ZeroDepositAmount",
      "type": "error"
    },
    {
      "anonymous": false,
      "inputs": [
        {
          "indexed": true,
          "internalType": "address",
          "name": "owner",
          "type": "address"
        },
        {
          "indexed": true,
          "internalType": "address",
          "name": "spender",
          "type": "address"
        },
        {
          "indexed": false,
          "internalType": "uint256",
          "name": "value",
          "type": "uint256"
        }
      ],
      "name": "Approval",
      "type": "event"
    },
    {
      "anonymous": false,
      "inputs": [
        {
          "indexed": true,
          "internalType": "address",
          "name": "registry",
          "type": "address"
        },
        {
          "indexed": false,
          "internalType": "uint256",
          "name": "timestamp",
          "type": "uint256"
        }
      ],
      "name": "BorrowersRegistryChanged",
      "type": "event"
    },
    {
      "anonymous": false,
      "inputs": [
        {
          "indexed": true,
          "internalType": "address",
          "name": "user",
          "type": "address"
        },
        {
          "indexed": false,
          "internalType": "uint256",
          "name": "value",
          "type": "uint256"
        },
        {
          "indexed": false,
          "internalType": "uint256",
          "name": "timestamp",
          "type": "uint256"
        }
      ],
      "name": "Borrowing",
      "type": "event"
    },
    {
      "anonymous": false,
      "inputs": [
        {
          "indexed": true,
          "internalType": "address",
          "name": "user",
          "type": "address"
        },
        {
          "indexed": false,
          "internalType": "uint256",
          "name": "value",
          "type": "uint256"
        },
        {
          "indexed": false,
          "internalType": "uint256",
          "name": "timestamp",
          "type": "uint256"
        }
      ],
      "name": "Deposit",
      "type": "event"
    },
    {
      "anonymous": false,
      "inputs": [
        {
          "indexed": true,
          "internalType": "address",
          "name": "user",
          "type": "address"
        },
        {
          "indexed": false,
          "internalType": "uint256",
          "name": "value",
          "type": "uint256"
        },
        {
          "indexed": false,
          "internalType": "uint256",
          "name": "timestamp",
          "type": "uint256"
        }
      ],
      "name": "InterestCollected",
      "type": "event"
    },
    {
      "anonymous": false,
      "inputs": [
        {
          "indexed": true,
          "internalType": "address",
          "name": "previousOwner",
          "type": "address"
        },
        {
          "indexed": true,
          "internalType": "address",
          "name": "newOwner",
          "type": "address"
        }
      ],
      "name": "OwnershipTransferred",
      "type": "event"
    },
    {
      "anonymous": false,
      "inputs": [
        {
          "indexed": true,
          "internalType": "address",
          "name": "poolRewarder",
          "type": "address"
        },
        {
          "indexed": false,
          "internalType": "uint256",
          "name": "timestamp",
          "type": "uint256"
        }
      ],
      "name": "PoolRewarderChanged",
      "type": "event"
    },
    {
      "anonymous": false,
      "inputs": [
        {
          "indexed": true,
          "internalType": "address",
          "name": "calculator",
          "type": "address"
        },
        {
          "indexed": false,
          "internalType": "uint256",
          "name": "timestamp",
          "type": "uint256"
        }
      ],
      "name": "RatesCalculatorChanged",
      "type": "event"
    },
    {
      "anonymous": false,
      "inputs": [
        {
          "indexed": true,
          "internalType": "address",
          "name": "user",
          "type": "address"
        },
        {
          "indexed": false,
          "internalType": "uint256",
          "name": "value",
          "type": "uint256"
        },
        {
          "indexed": false,
          "internalType": "uint256",
          "name": "timestamp",
          "type": "uint256"
        }
      ],
      "name": "Repayment",
      "type": "event"
    },
    {
      "anonymous": false,
      "inputs": [
        {
          "indexed": true,
          "internalType": "address",
          "name": "from",
          "type": "address"
        },
        {
          "indexed": true,
          "internalType": "address",
          "name": "to",
          "type": "address"
        },
        {
          "indexed": false,
          "internalType": "uint256",
          "name": "value",
          "type": "uint256"
        }
      ],
      "name": "Transfer",
      "type": "event"
    },
    {
      "anonymous": false,
      "inputs": [
        {
          "indexed": true,
          "internalType": "address",
          "name": "user",
          "type": "address"
        },
        {
          "indexed": false,
          "internalType": "uint256",
          "name": "value",
          "type": "uint256"
        },
        {
          "indexed": false,
          "internalType": "uint256",
          "name": "timestamp",
          "type": "uint256"
        }
      ],
      "name": "Withdrawal",
      "type": "event"
    },
    {
      "inputs": [
        {
          "internalType": "address",
          "name": "owner",
          "type": "address"
        },
        {
          "internalType": "address",
          "name": "spender",
          "type": "address"
        }
      ],
      "name": "allowance",
      "outputs": [
        {
          "internalType": "uint256",
          "name": "",
          "type": "uint256"
        }
      ],
      "stateMutability": "view",
      "type": "function"
    },
    {
      "inputs": [
        {
          "internalType": "address",
          "name": "spender",
          "type": "address"
        },
        {
          "internalType": "uint256",
          "name": "amount",
          "type": "uint256"
        }
      ],
      "name": "approve",
      "outputs": [
        {
          "internalType": "bool",
          "name": "",
          "type": "bool"
        }
      ],
      "stateMutability": "nonpayable",
      "type": "function"
    },
    {
      "inputs": [
        {
          "internalType": "address",
          "name": "user",
          "type": "address"
        }
      ],
      "name": "balanceOf",
      "outputs": [
        {
          "internalType": "uint256",
          "name": "",
          "type": "uint256"
        }
      ],
      "stateMutability": "view",
      "type": "function"
    },
    {
      "inputs": [
        {
          "internalType": "uint256",
          "name": "_amount",
          "type": "uint256"
        }
      ],
      "name": "borrow",
      "outputs": [],
      "stateMutability": "nonpayable",
      "type": "function"
    },
    {
      "inputs": [],
      "name": "borrowIndex",
      "outputs": [
        {
          "internalType": "contract IIndex",
          "name": "",
          "type": "address"
        }
      ],
      "stateMutability": "view",
      "type": "function"
    },
    {
      "inputs": [
        {
          "internalType": "address",
          "name": "",
          "type": "address"
        }
      ],
      "name": "borrowed",
      "outputs": [
        {
          "internalType": "uint256",
          "name": "",
          "type": "uint256"
        }
      ],
      "stateMutability": "view",
      "type": "function"
    },
    {
      "inputs": [],
      "name": "borrowersRegistry",
      "outputs": [
        {
          "internalType": "contract IBorrowersRegistry",
          "name": "",
          "type": "address"
        }
      ],
      "stateMutability": "view",
      "type": "function"
    },
    {
      "inputs": [],
      "name": "checkRewards",
      "outputs": [
        {
          "internalType": "uint256",
          "name": "",
          "type": "uint256"
        }
      ],
      "stateMutability": "view",
      "type": "function"
    },
    {
      "inputs": [
        {
          "internalType": "address",
          "name": "spender",
          "type": "address"
        },
        {
          "internalType": "uint256",
          "name": "subtractedValue",
          "type": "uint256"
        }
      ],
      "name": "decreaseAllowance",
      "outputs": [
        {
          "internalType": "bool",
          "name": "",
          "type": "bool"
        }
      ],
      "stateMutability": "nonpayable",
      "type": "function"
    },
    {
      "inputs": [
        {
          "internalType": "uint256",
          "name": "_amount",
          "type": "uint256"
        }
      ],
      "name": "deposit",
      "outputs": [],
      "stateMutability": "nonpayable",
      "type": "function"
    },
    {
      "inputs": [],
      "name": "depositIndex",
      "outputs": [
        {
          "internalType": "contract IIndex",
          "name": "",
          "type": "address"
        }
      ],
      "stateMutability": "view",
      "type": "function"
    },
    {
      "inputs": [],
      "name": "depositNativeToken",
      "outputs": [],
      "stateMutability": "payable",
      "type": "function"
    },
    {
      "inputs": [
        {
          "internalType": "address",
          "name": "_user",
          "type": "address"
        }
      ],
      "name": "getBorrowed",
      "outputs": [
        {
          "internalType": "uint256",
          "name": "",
          "type": "uint256"
        }
      ],
      "stateMutability": "view",
      "type": "function"
    },
    {
      "inputs": [],
      "name": "getBorrowingRate",
      "outputs": [
        {
          "internalType": "uint256",
          "name": "",
          "type": "uint256"
        }
      ],
      "stateMutability": "view",
      "type": "function"
    },
    {
      "inputs": [],
      "name": "getDepositRate",
      "outputs": [
        {
          "internalType": "uint256",
          "name": "",
          "type": "uint256"
        }
      ],
      "stateMutability": "view",
      "type": "function"
    },
    {
      "inputs": [],
      "name": "getMaxPoolUtilisationForBorrowing",
      "outputs": [
        {
          "internalType": "uint256",
          "name": "",
          "type": "uint256"
        }
      ],
      "stateMutability": "view",
      "type": "function"
    },
    {
      "inputs": [],
      "name": "getRewards",
      "outputs": [],
      "stateMutability": "nonpayable",
      "type": "function"
    },
    {
      "inputs": [
        {
          "internalType": "address",
          "name": "spender",
          "type": "address"
        },
        {
          "internalType": "uint256",
          "name": "addedValue",
          "type": "uint256"
        }
      ],
      "name": "increaseAllowance",
      "outputs": [
        {
          "internalType": "bool",
          "name": "",
          "type": "bool"
        }
      ],
      "stateMutability": "nonpayable",
      "type": "function"
    },
    {
      "inputs": [
        {
          "internalType": "contract IRatesCalculator",
          "name": "ratesCalculator_",
          "type": "address"
        },
        {
          "internalType": "contract IBorrowersRegistry",
          "name": "borrowersRegistry_",
          "type": "address"
        },
        {
          "internalType": "contract IIndex",
          "name": "depositIndex_",
          "type": "address"
        },
        {
          "internalType": "contract IIndex",
          "name": "borrowIndex_",
          "type": "address"
        },
        {
          "internalType": "address payable",
          "name": "tokenAddress_",
          "type": "address"
        },
        {
          "internalType": "contract IPoolRewarder",
          "name": "poolRewarder_",
          "type": "address"
        },
        {
          "internalType": "uint256",
          "name": "_totalSupplyCap",
          "type": "uint256"
        }
      ],
      "name": "initialize",
      "outputs": [],
      "stateMutability": "nonpayable",
      "type": "function"
    },
    {
      "inputs": [],
      "name": "owner",
      "outputs": [
        {
          "internalType": "address",
          "name": "",
          "type": "address"
        }
      ],
      "stateMutability": "view",
      "type": "function"
    },
    {
      "inputs": [],
      "name": "poolRewarder",
      "outputs": [
        {
          "internalType": "contract IPoolRewarder",
          "name": "",
          "type": "address"
        }
      ],
      "stateMutability": "view",
      "type": "function"
    },
    {
      "inputs": [],
      "name": "ratesCalculator",
      "outputs": [
        {
          "internalType": "contract IRatesCalculator",
          "name": "",
          "type": "address"
        }
      ],
      "stateMutability": "view",
      "type": "function"
    },
    {
      "inputs": [
        {
          "internalType": "uint256",
          "name": "amount",
          "type": "uint256"
        },
        {
          "internalType": "address",
          "name": "account",
          "type": "address"
        }
      ],
      "name": "recoverSurplus",
      "outputs": [],
      "stateMutability": "nonpayable",
      "type": "function"
    },
    {
      "inputs": [],
      "name": "renounceOwnership",
      "outputs": [],
      "stateMutability": "nonpayable",
      "type": "function"
    },
    {
      "inputs": [
        {
          "internalType": "uint256",
          "name": "amount",
          "type": "uint256"
        }
      ],
      "name": "repay",
      "outputs": [],
      "stateMutability": "nonpayable",
      "type": "function"
    },
    {
      "inputs": [
        {
          "internalType": "contract IBorrowersRegistry",
          "name": "borrowersRegistry_",
          "type": "address"
        }
      ],
      "name": "setBorrowersRegistry",
      "outputs": [],
      "stateMutability": "nonpayable",
      "type": "function"
    },
    {
      "inputs": [
        {
          "internalType": "contract IPoolRewarder",
          "name": "_poolRewarder",
          "type": "address"
        }
      ],
      "name": "setPoolRewarder",
      "outputs": [],
      "stateMutability": "nonpayable",
      "type": "function"
    },
    {
      "inputs": [
        {
          "internalType": "contract IRatesCalculator",
          "name": "ratesCalculator_",
          "type": "address"
        }
      ],
      "name": "setRatesCalculator",
      "outputs": [],
      "stateMutability": "nonpayable",
      "type": "function"
    },
    {
      "inputs": [
        {
          "internalType": "uint256",
          "name": "_newTotalSupplyCap",
          "type": "uint256"
        }
      ],
      "name": "setTotalSupplyCap",
      "outputs": [],
      "stateMutability": "nonpayable",
      "type": "function"
    },
    {
      "inputs": [],
      "name": "tokenAddress",
      "outputs": [
        {
          "internalType": "address payable",
          "name": "",
          "type": "address"
        }
      ],
      "stateMutability": "view",
      "type": "function"
    },
    {
      "inputs": [],
      "name": "totalBorrowed",
      "outputs": [
        {
          "internalType": "uint256",
          "name": "",
          "type": "uint256"
        }
      ],
      "stateMutability": "view",
      "type": "function"
    },
    {
      "inputs": [],
      "name": "totalSupply",
      "outputs": [
        {
          "internalType": "uint256",
          "name": "",
          "type": "uint256"
        }
      ],
      "stateMutability": "view",
      "type": "function"
    },
    {
      "inputs": [],
      "name": "totalSupplyCap",
      "outputs": [
        {
          "internalType": "uint256",
          "name": "",
          "type": "uint256"
        }
      ],
      "stateMutability": "view",
      "type": "function"
    },
    {
      "inputs": [
        {
          "internalType": "address",
          "name": "recipient",
          "type": "address"
        },
        {
          "internalType": "uint256",
          "name": "amount",
          "type": "uint256"
        }
      ],
      "name": "transfer",
      "outputs": [
        {
          "internalType": "bool",
          "name": "",
          "type": "bool"
        }
      ],
      "stateMutability": "nonpayable",
      "type": "function"
    },
    {
      "inputs": [
        {
          "internalType": "address",
          "name": "sender",
          "type": "address"
        },
        {
          "internalType": "address",
          "name": "recipient",
          "type": "address"
        },
        {
          "internalType": "uint256",
          "name": "amount",
          "type": "uint256"
        }
      ],
      "name": "transferFrom",
      "outputs": [
        {
          "internalType": "bool",
          "name": "",
          "type": "bool"
        }
      ],
      "stateMutability": "nonpayable",
      "type": "function"
    },
    {
      "inputs": [
        {
          "internalType": "address",
          "name": "newOwner",
          "type": "address"
        }
      ],
      "name": "transferOwnership",
      "outputs": [],
      "stateMutability": "nonpayable",
      "type": "function"
    },
    {
      "inputs": [
        {
          "internalType": "uint256",
          "name": "_amount",
          "type": "uint256"
        }
      ],
      "name": "withdraw",
      "outputs": [],
      "stateMutability": "nonpayable",
      "type": "function"
    },
    {
      "inputs": [
        {
          "internalType": "uint256",
          "name": "_amount",
          "type": "uint256"
        }
      ],
      "name": "withdrawNativeToken",
      "outputs": [],
      "stateMutability": "nonpayable",
      "type": "function"
    },
    {
      "stateMutability": "payable",
      "type": "receive"
    }
  ],
  "transactionHash": "0x314e5175da6b85c5da0231c8a1034beaed81bc2235c3da419b846f403e06655b",
  "args": [],
  "numDeployments": 1,
  "solcInputHash": "61f1c31425a90b22a2a1876bcf71754b",
  "bytecode": "0x608060405234801561001057600080fd5b50615d2b80620000216000396000f3fe6080604052600436106102295760003560e01c806370d4cea011610123578063b6b55f25116100ab578063dd62ed3e1161006f578063dd62ed3e146107f3578063ee61bd6e14610830578063f2fde38b1461085b578063f36b242514610884578063fc68f661146108af57610230565b8063b6b55f2514610720578063b790634e14610749578063bb102aea14610774578063c5ebeaec1461079f578063d06dca89146107c857610230565b80638da5cb5b116100f25780638da5cb5b146106255780639d76ea5814610650578063a457c2d71461067b578063a9059cbb146106b8578063aa5af0fd146106f557610230565b806370d4cea0146105b0578063715018a6146105d957806379433d8b146105f05780637b898939146105fa57610230565b80632aeaa291116101b15780634c19386c116101755780634c19386c146104b55780636011163e146104e057806361215aa81461051d5780636ca6d5d01461054857806370a082311461057357610230565b80632aeaa291146103d25780632e1a7d4d146103fd57806331d05b1114610426578063371fd8e61461044f578063395093511461047857610230565b80631457db34116101f85780631457db34146102ef5780631460e3901461031857806317e0f2521461034157806318160ddd1461036a57806323b872dd1461039557610230565b80630572b0cc146102355780630790ef9a1461024c5780630941cb3d14610275578063095ea7b3146102b257610230565b3661023057005b600080fd5b34801561024157600080fd5b5061024a6108d8565b005b34801561025857600080fd5b50610273600480360381019061026e9190614f49565b610967565b005b34801561028157600080fd5b5061029c60048036038101906102979190614f89565b610b85565b6040516102a99190614fc5565b60405180910390f35b3480156102be57600080fd5b506102d960048036038101906102d49190614fe0565b610b9d565b6040516102e6919061503b565b60405180910390f35b3480156102fb57600080fd5b5061031660048036038101906103119190615094565b610cf4565b005b34801561032457600080fd5b5061033f600480360381019061033a91906151b9565b610ea9565b005b34801561034d57600080fd5b506103686004803603810190610363919061525b565b6111fc565b005b34801561037657600080fd5b5061037f611608565b60405161038c9190614fc5565b60405180910390f35b3480156103a157600080fd5b506103bc60048036038101906103b79190615288565b611618565b6040516103c9919061503b565b60405180910390f35b3480156103de57600080fd5b506103e7611c4e565b6040516103f49190614fc5565b60405180910390f35b34801561040957600080fd5b50610424600480360381019061041f919061525b565b611cf0565b005b34801561043257600080fd5b5061044d6004803603810190610448919061525b565b612050565b005b34801561045b57600080fd5b506104766004803603810190610471919061525b565b6120d6565b005b34801561048457600080fd5b5061049f600480360381019061049a9190614fe0565b6122be565b6040516104ac919061503b565b60405180910390f35b3480156104c157600080fd5b506104ca6124a2565b6040516104d79190614fc5565b60405180910390f35b3480156104ec57600080fd5b5061050760048036038101906105029190614f89565b6124b2565b6040516105149190614fc5565b60405180910390f35b34801561052957600080fd5b50610532612598565b60405161053f9190614fc5565b60405180910390f35b34801561055457600080fd5b5061055d6125a8565b60405161056a919061533a565b60405180910390f35b34801561057f57600080fd5b5061059a60048036038101906105959190614f89565b6125ce565b6040516105a79190614fc5565b60405180910390f35b3480156105bc57600080fd5b506105d760048036038101906105d29190615355565b6126b4565b005b3480156105e557600080fd5b506105ee612884565b005b6105f8612886565b005b34801561060657600080fd5b5061060f612b7d565b60405161061c91906153a3565b60405180910390f35b34801561063157600080fd5b5061063a612ba3565b60405161064791906153cd565b60405180910390f35b34801561065c57600080fd5b50610665612bcd565b60405161067291906153f7565b60405180910390f35b34801561068757600080fd5b506106a2600480360381019061069d9190614fe0565b612bf3565b6040516106af919061503b565b60405180910390f35b3480156106c457600080fd5b506106df60048036038101906106da9190614fe0565b612e24565b6040516106ec919061503b565b60405180910390f35b34801561070157600080fd5b5061070a61327d565b60405161071791906153a3565b60405180910390f35b34801561072c57600080fd5b506107476004803603810190610742919061525b565b6132a3565b005b34801561075557600080fd5b5061075e61361e565b60405161076b9190614fc5565b60405180910390f35b34801561078057600080fd5b506107896136d1565b6040516107969190614fc5565b60405180910390f35b3480156107ab57600080fd5b506107c660048036038101906107c1919061525b565b6136d7565b005b3480156107d457600080fd5b506107dd613b23565b6040516107ea9190615433565b60405180910390f35b3480156107ff57600080fd5b5061081a6004803603810190610815919061544e565b613b49565b6040516108279190614fc5565b60405180910390f35b34801561083c57600080fd5b50610845613bd0565b60405161085291906154af565b60405180910390f35b34801561086757600080fd5b50610882600480360381019061087d9190614f89565b613bf6565b005b34801561089057600080fd5b50610899613ced565b6040516108a69190614fc5565b60405180910390f35b3480156108bb57600080fd5b506108d660048036038101906108d191906154ca565b613da0565b005b609d60009054906101000a900473ffffffffffffffffffffffffffffffffffffffff1673ffffffffffffffffffffffffffffffffffffffff16632260b83e336040518263ffffffff1660e01b815260040161093391906153cd565b600060405180830381600087803b15801561094d57600080fd5b505af1158015610961573d6000803e3d6000fd5b50505050565b61096f613ef8565b73ffffffffffffffffffffffffffffffffffffffff1661098d612ba3565b73ffffffffffffffffffffffffffffffffffffffff16146109e3576040517f08c379a00000000000000000000000000000000000000000000000000000000081526004016109da90615554565b60405180910390fd5b600260655403610a28576040517f08c379a0000000000000000000000000000000000000000000000000000000008152600401610a1f906155c0565b60405180910390fd5b6002606581905550600060a060009054906101000a900473ffffffffffffffffffffffffffffffffffffffff1673ffffffffffffffffffffffffffffffffffffffff166370a08231306040518263ffffffff1660e01b8152600401610a8d91906153cd565b602060405180830381865afa158015610aaa573d6000803e3d6000fd5b505050506040513d601f19601f82011682018060405250810190610ace91906155f5565b90506000610ada611608565b610ae26124a2565b83610aed9190615651565b610af79190615685565b905081841115610b33576040517f5b5724fc00000000000000000000000000000000000000000000000000000000815260040160405180910390fd5b83811015610b6d576040517f94290ab900000000000000000000000000000000000000000000000000000000815260040160405180910390fd5b610b778385613f00565b505060016065819055505050565b609a6020528060005260406000206000915090505481565b60008073ffffffffffffffffffffffffffffffffffffffff168373ffffffffffffffffffffffffffffffffffffffff1603610c04576040517f7acc038e00000000000000000000000000000000000000000000000000000000815260040160405180910390fd5b81609860003373ffffffffffffffffffffffffffffffffffffffff1673ffffffffffffffffffffffffffffffffffffffff16815260200190815260200160002060008573ffffffffffffffffffffffffffffffffffffffff1673ffffffffffffffffffffffffffffffffffffffff168152602001908152602001600020819055508273ffffffffffffffffffffffffffffffffffffffff163373ffffffffffffffffffffffffffffffffffffffff167f8c5be1e5ebec7d5bd14f71427d1e84f3dd0314c0f7b2291e5b200ac8c7c3b92584604051610ce29190614fc5565b60405180910390a36001905092915050565b610cfc613ef8565b73ffffffffffffffffffffffffffffffffffffffff16610d1a612ba3565b73ffffffffffffffffffffffffffffffffffffffff1614610d70576040517f08c379a0000000000000000000000000000000000000000000000000000000008152600401610d6790615554565b60405180910390fd5b610d7981613f51565b158015610db35750600073ffffffffffffffffffffffffffffffffffffffff168173ffffffffffffffffffffffffffffffffffffffff1614155b15610e1757609d60009054906101000a900473ffffffffffffffffffffffffffffffffffffffff166040517f8a8b41ec000000000000000000000000000000000000000000000000000000008152600401610e0e91906153cd565b60405180910390fd5b80609d60006101000a81548173ffffffffffffffffffffffffffffffffffffffff021916908373ffffffffffffffffffffffffffffffffffffffff1602179055508073ffffffffffffffffffffffffffffffffffffffff167f85796821ee1d670b0fdb986f256b5c1a29b9019038831c7f09df2061879cf9e542604051610e9e9190614fc5565b60405180910390a250565b600060019054906101000a900460ff16610ed15760008054906101000a900460ff1615610eda565b610ed9613f74565b5b610f19576040517f08c379a0000000000000000000000000000000000000000000000000000000008152600401610f109061572b565b60405180910390fd5b60008060019054906101000a900460ff161590508015610f69576001600060016101000a81548160ff02191690831515021790555060016000806101000a81548160ff0219169083151502179055505b610f7288613f51565b8015610f835750610f8287613f51565b5b8015610f945750610f9386613f51565b5b8015610fa55750610fa485613f51565b5b8015610fed5750610fb583613f51565b80610fec5750600073ffffffffffffffffffffffffffffffffffffffff168373ffffffffffffffffffffffffffffffffffffffff16145b5b61102c576040517f08c379a000000000000000000000000000000000000000000000000000000000815260040161102390615797565b60405180910390fd5b86609c60006101000a81548173ffffffffffffffffffffffffffffffffffffffff021916908373ffffffffffffffffffffffffffffffffffffffff16021790555087609b60006101000a81548173ffffffffffffffffffffffffffffffffffffffff021916908373ffffffffffffffffffffffffffffffffffffffff16021790555085609e60006101000a81548173ffffffffffffffffffffffffffffffffffffffff021916908373ffffffffffffffffffffffffffffffffffffffff16021790555084609f60006101000a81548173ffffffffffffffffffffffffffffffffffffffff021916908373ffffffffffffffffffffffffffffffffffffffff16021790555082609d60006101000a81548173ffffffffffffffffffffffffffffffffffffffff021916908373ffffffffffffffffffffffffffffffffffffffff1602179055508360a060006101000a81548173ffffffffffffffffffffffffffffffffffffffff021916908373ffffffffffffffffffffffffffffffffffffffff160217905550816097819055506111c1613f85565b6111c9613fde565b6111d1614037565b80156111f25760008060016101000a81548160ff0219169083151502179055505b5050505050505050565b600260655403611241576040517f08c379a0000000000000000000000000000000000000000000000000000000008152600401611238906155c0565b60405180910390fd5b600260658190555060a060009054906101000a900473ffffffffffffffffffffffffffffffffffffffff1673ffffffffffffffffffffffffffffffffffffffff166370a08231306040518263ffffffff1660e01b81526004016112a491906153cd565b602060405180830381865afa1580156112c1573d6000803e3d6000fd5b505050506040513d601f19601f820116820180604052508101906112e591906155f5565b81111561131e576040517f5b5724fc00000000000000000000000000000000000000000000000000000000815260040160405180910390fd5b6113273361432f565b609960003073ffffffffffffffffffffffffffffffffffffffff1673ffffffffffffffffffffffffffffffffffffffff168152602001908152602001600020548111156113a0576040517f177466fe00000000000000000000000000000000000000000000000000000000815260040160405180910390fd5b80609960003073ffffffffffffffffffffffffffffffffffffffff1673ffffffffffffffffffffffffffffffffffffffff168152602001908152602001600020600082825403925050819055506113f7338261454a565b60a060009054906101000a900473ffffffffffffffffffffffffffffffffffffffff1673ffffffffffffffffffffffffffffffffffffffff16632e1a7d4d826040518263ffffffff1660e01b81526004016114529190614fc5565b600060405180830381600087803b15801561146c57600080fd5b505af1158015611480573d6000803e3d6000fd5b505050506114ad813373ffffffffffffffffffffffffffffffffffffffff1661467a90919063ffffffff16565b6114b5614037565b600073ffffffffffffffffffffffffffffffffffffffff16609d60009054906101000a900473ffffffffffffffffffffffffffffffffffffffff1673ffffffffffffffffffffffffffffffffffffffff16146115ad57609d60009054906101000a900473ffffffffffffffffffffffffffffffffffffffff1673ffffffffffffffffffffffffffffffffffffffff16633576f6cc82336040518363ffffffff1660e01b81526004016115689291906157b7565b6020604051808303816000875af1158015611587573d6000803e3d6000fd5b505050506040513d601f19601f820116820180604052508101906115ab91906155f5565b505b3373ffffffffffffffffffffffffffffffffffffffff167fdf273cb619d95419a9cd0ec88123a0538c85064229baa6363788f743fff90deb82426040516115f59291906157e0565b60405180910390a2600160658190555050565b6000611613306125ce565b905090565b600081609860008673ffffffffffffffffffffffffffffffffffffffff1673ffffffffffffffffffffffffffffffffffffffff16815260200190815260200160002060003373ffffffffffffffffffffffffffffffffffffffff1673ffffffffffffffffffffffffffffffffffffffff1681526020019081526020016000205410156117595781609860008673ffffffffffffffffffffffffffffffffffffffff1673ffffffffffffffffffffffffffffffffffffffff16815260200190815260200160002060003373ffffffffffffffffffffffffffffffffffffffff1673ffffffffffffffffffffffffffffffffffffffff168152602001908152602001600020546040517f2a1b2dd80000000000000000000000000000000000000000000000000000000081526004016117509291906157e0565b60405180910390fd5b600073ffffffffffffffffffffffffffffffffffffffff168373ffffffffffffffffffffffffffffffffffffffff16036117bf576040517fea553b3400000000000000000000000000000000000000000000000000000000815260040160405180910390fd5b3073ffffffffffffffffffffffffffffffffffffffff168373ffffffffffffffffffffffffffffffffffffffff1603611824576040517fed728e5700000000000000000000000000000000000000000000000000000000815260040160405180910390fd5b61182d8461432f565b81609960008673ffffffffffffffffffffffffffffffffffffffff1673ffffffffffffffffffffffffffffffffffffffff1681526020019081526020016000205410156118f25781609960008673ffffffffffffffffffffffffffffffffffffffff1673ffffffffffffffffffffffffffffffffffffffff168152602001908152602001600020546040517fa1a48f3a0000000000000000000000000000000000000000000000000000000081526004016118e99291906157e0565b60405180910390fd5b81609960008673ffffffffffffffffffffffffffffffffffffffff1673ffffffffffffffffffffffffffffffffffffffff16815260200190815260200160002060008282546119419190615685565b9250508190555081609860008673ffffffffffffffffffffffffffffffffffffffff1673ffffffffffffffffffffffffffffffffffffffff16815260200190815260200160002060003373ffffffffffffffffffffffffffffffffffffffff1673ffffffffffffffffffffffffffffffffffffffff16815260200190815260200160002060008282546119d49190615685565b925050819055506119e48361432f565b81609960008573ffffffffffffffffffffffffffffffffffffffff1673ffffffffffffffffffffffffffffffffffffffff1681526020019081526020016000206000828254611a339190615651565b92505081905550600073ffffffffffffffffffffffffffffffffffffffff16609d60009054906101000a900473ffffffffffffffffffffffffffffffffffffffff1673ffffffffffffffffffffffffffffffffffffffff1614158015611a9a575060008214155b15611bde576000609d60009054906101000a900473ffffffffffffffffffffffffffffffffffffffff1673ffffffffffffffffffffffffffffffffffffffff16633576f6cc84876040518363ffffffff1660e01b8152600401611afe9291906157b7565b6020604051808303816000875af1158015611b1d573d6000803e3d6000fd5b505050506040513d601f19601f82011682018060405250810190611b4191906155f5565b90506000811115611bdc57609d60009054906101000a900473ffffffffffffffffffffffffffffffffffffffff1673ffffffffffffffffffffffffffffffffffffffff166351746bb282866040518363ffffffff1660e01b8152600401611ba99291906157b7565b600060405180830381600087803b158015611bc357600080fd5b505af1158015611bd7573d6000803e3d6000fd5b505050505b505b8273ffffffffffffffffffffffffffffffffffffffff168473ffffffffffffffffffffffffffffffffffffffff167fddf252ad1be2c89b69c2b068fc378daa952ba7f163c4a11628f55a4df523b3ef84604051611c3b9190614fc5565b60405180910390a3600190509392505050565b6000609d60009054906101000a900473ffffffffffffffffffffffffffffffffffffffff1673ffffffffffffffffffffffffffffffffffffffff16628cc262336040518263ffffffff1660e01b8152600401611caa91906153cd565b602060405180830381865afa158015611cc7573d6000803e3d6000fd5b505050506040513d601f19601f82011682018060405250810190611ceb91906155f5565b905090565b600260655403611d35576040517f08c379a0000000000000000000000000000000000000000000000000000000008152600401611d2c906155c0565b60405180910390fd5b600260658190555060a060009054906101000a900473ffffffffffffffffffffffffffffffffffffffff1673ffffffffffffffffffffffffffffffffffffffff166370a08231306040518263ffffffff1660e01b8152600401611d9891906153cd565b602060405180830381865afa158015611db5573d6000803e3d6000fd5b505050506040513d601f19601f82011682018060405250810190611dd991906155f5565b811115611e12576040517f5b5724fc00000000000000000000000000000000000000000000000000000000815260040160405180910390fd5b611e1b3361432f565b609960003073ffffffffffffffffffffffffffffffffffffffff1673ffffffffffffffffffffffffffffffffffffffff16815260200190815260200160002054811115611e94576040517f177466fe00000000000000000000000000000000000000000000000000000000815260040160405180910390fd5b80609960003073ffffffffffffffffffffffffffffffffffffffff1673ffffffffffffffffffffffffffffffffffffffff16815260200190815260200160002060008282540392505081905550611eeb338261454a565b611ef53382613f00565b611efd614037565b600073ffffffffffffffffffffffffffffffffffffffff16609d60009054906101000a900473ffffffffffffffffffffffffffffffffffffffff1673ffffffffffffffffffffffffffffffffffffffff1614611ff557609d60009054906101000a900473ffffffffffffffffffffffffffffffffffffffff1673ffffffffffffffffffffffffffffffffffffffff16633576f6cc82336040518363ffffffff1660e01b8152600401611fb09291906157b7565b6020604051808303816000875af1158015611fcf573d6000803e3d6000fd5b505050506040513d601f19601f82011682018060405250810190611ff391906155f5565b505b3373ffffffffffffffffffffffffffffffffffffffff167fdf273cb619d95419a9cd0ec88123a0538c85064229baa6363788f743fff90deb824260405161203d9291906157e0565b60405180910390a2600160658190555050565b612058613ef8565b73ffffffffffffffffffffffffffffffffffffffff16612076612ba3565b73ffffffffffffffffffffffffffffffffffffffff16146120cc576040517f08c379a00000000000000000000000000000000000000000000000000000000081526004016120c390615554565b60405180910390fd5b8060978190555050565b60026065540361211b576040517f08c379a0000000000000000000000000000000000000000000000000000000008152600401612112906155c0565b60405180910390fd5b600260658190555061212c3361477a565b609a60003373ffffffffffffffffffffffffffffffffffffffff1673ffffffffffffffffffffffffffffffffffffffff168152602001908152602001600020548111156121a5576040517f1b95a86600000000000000000000000000000000000000000000000000000000815260040160405180910390fd5b6121af338261492f565b80609a60003373ffffffffffffffffffffffffffffffffffffffff1673ffffffffffffffffffffffffffffffffffffffff16815260200190815260200160002060008282546121fe9190615685565b9250508190555080609a60003073ffffffffffffffffffffffffffffffffffffffff1673ffffffffffffffffffffffffffffffffffffffff16815260200190815260200160002060008282546122549190615685565b92505081905550612263614037565b3373ffffffffffffffffffffffffffffffffffffffff167f24fcca58a997b1b2eff6db8107e860458544c09ddd3693b3b779e1df6c0d6c5d82426040516122ab9291906157e0565b60405180910390a2600160658190555050565b60008073ffffffffffffffffffffffffffffffffffffffff168373ffffffffffffffffffffffffffffffffffffffff1603612325576040517f7acc038e00000000000000000000000000000000000000000000000000000000815260040160405180910390fd5b600082609860003373ffffffffffffffffffffffffffffffffffffffff1673ffffffffffffffffffffffffffffffffffffffff16815260200190815260200160002060008673ffffffffffffffffffffffffffffffffffffffff1673ffffffffffffffffffffffffffffffffffffffff168152602001908152602001600020546123af9190615651565b905080609860003373ffffffffffffffffffffffffffffffffffffffff1673ffffffffffffffffffffffffffffffffffffffff16815260200190815260200160002060008673ffffffffffffffffffffffffffffffffffffffff1673ffffffffffffffffffffffffffffffffffffffff168152602001908152602001600020819055508373ffffffffffffffffffffffffffffffffffffffff163373ffffffffffffffffffffffffffffffffffffffff167f8c5be1e5ebec7d5bd14f71427d1e84f3dd0314c0f7b2291e5b200ac8c7c3b9258360405161248f9190614fc5565b60405180910390a3600191505092915050565b60006124ad306124b2565b905090565b6000609f60009054906101000a900473ffffffffffffffffffffffffffffffffffffffff1673ffffffffffffffffffffffffffffffffffffffff1663966da889609a60008573ffffffffffffffffffffffffffffffffffffffff1673ffffffffffffffffffffffffffffffffffffffff16815260200190815260200160002054846040518363ffffffff1660e01b81526004016125509291906157b7565b602060405180830381865afa15801561256d573d6000803e3d6000fd5b505050506040513d601f19601f8201168201806040525081019061259191906155f5565b9050919050565b6000670c7d713b49da0000905090565b609d60009054906101000a900473ffffffffffffffffffffffffffffffffffffffff1681565b6000609e60009054906101000a900473ffffffffffffffffffffffffffffffffffffffff1673ffffffffffffffffffffffffffffffffffffffff1663966da889609960008573ffffffffffffffffffffffffffffffffffffffff1673ffffffffffffffffffffffffffffffffffffffff16815260200190815260200160002054846040518363ffffffff1660e01b815260040161266c9291906157b7565b602060405180830381865afa158015612689573d6000803e3d6000fd5b505050506040513d601f19601f820116820180604052508101906126ad91906155f5565b9050919050565b6126bc613ef8565b73ffffffffffffffffffffffffffffffffffffffff166126da612ba3565b73ffffffffffffffffffffffffffffffffffffffff1614612730576040517f08c379a000000000000000000000000000000000000000000000000000000000815260040161272790615554565b60405180910390fd5b61273981613f51565b1580156127735750600073ffffffffffffffffffffffffffffffffffffffff168173ffffffffffffffffffffffffffffffffffffffff1614155b156127b557806040517f8a8b41ec0000000000000000000000000000000000000000000000000000000081526004016127ac91906153cd565b60405180910390fd5b80609b60006101000a81548173ffffffffffffffffffffffffffffffffffffffff021916908373ffffffffffffffffffffffffffffffffffffffff160217905550600073ffffffffffffffffffffffffffffffffffffffff168173ffffffffffffffffffffffffffffffffffffffff161461283357612832614037565b5b8073ffffffffffffffffffffffffffffffffffffffff167fef1b7e9216e08b283cc613824ccb26ea505227777839a4f3c6810d64594e0182426040516128799190614fc5565b60405180910390a250565b565b600034036128c0576040517f078e1d8500000000000000000000000000000000000000000000000000000000815260040160405180910390fd5b6128c93361432f565b60006097541461295a5760975434609960003073ffffffffffffffffffffffffffffffffffffffff1673ffffffffffffffffffffffffffffffffffffffff168152602001908152602001600020546129219190615651565b1115612959576040517f3f27d61700000000000000000000000000000000000000000000000000000000815260040160405180910390fd5b5b60a060009054906101000a900473ffffffffffffffffffffffffffffffffffffffff1673ffffffffffffffffffffffffffffffffffffffff1663d0e30db0346040518263ffffffff1660e01b81526004016000604051808303818588803b1580156129c457600080fd5b505af11580156129d8573d6000803e3d6000fd5b50505050506129e73334614982565b34609960003073ffffffffffffffffffffffffffffffffffffffff1673ffffffffffffffffffffffffffffffffffffffff1681526020019081526020016000206000828254612a369190615651565b92505081905550612a45614037565b600073ffffffffffffffffffffffffffffffffffffffff16609d60009054906101000a900473ffffffffffffffffffffffffffffffffffffffff1673ffffffffffffffffffffffffffffffffffffffff1614612b2b57609d60009054906101000a900473ffffffffffffffffffffffffffffffffffffffff1673ffffffffffffffffffffffffffffffffffffffff166351746bb234336040518363ffffffff1660e01b8152600401612af89291906157b7565b600060405180830381600087803b158015612b1257600080fd5b505af1158015612b26573d6000803e3d6000fd5b505050505b3373ffffffffffffffffffffffffffffffffffffffff167f90890809c654f11d6e72a28fa60149770a0d11ec6c92319d6ceb2bb0a4ea1a153442604051612b739291906157e0565b60405180910390a2565b609e60009054906101000a900473ffffffffffffffffffffffffffffffffffffffff1681565b6000603360009054906101000a900473ffffffffffffffffffffffffffffffffffffffff16905090565b60a060009054906101000a900473ffffffffffffffffffffffffffffffffffffffff1681565b60008073ffffffffffffffffffffffffffffffffffffffff168373ffffffffffffffffffffffffffffffffffffffff1603612c5a576040517f7acc038e00000000000000000000000000000000000000000000000000000000815260040160405180910390fd5b6000609860003373ffffffffffffffffffffffffffffffffffffffff1673ffffffffffffffffffffffffffffffffffffffff16815260200190815260200160002060008573ffffffffffffffffffffffffffffffffffffffff1673ffffffffffffffffffffffffffffffffffffffff16815260200190815260200160002054905082811015612d225782816040517f2a1b2dd8000000000000000000000000000000000000000000000000000000008152600401612d199291906157e0565b60405180910390fd5b60008382612d309190615685565b905080609860003373ffffffffffffffffffffffffffffffffffffffff1673ffffffffffffffffffffffffffffffffffffffff16815260200190815260200160002060008773ffffffffffffffffffffffffffffffffffffffff1673ffffffffffffffffffffffffffffffffffffffff168152602001908152602001600020819055508473ffffffffffffffffffffffffffffffffffffffff163373ffffffffffffffffffffffffffffffffffffffff167f8c5be1e5ebec7d5bd14f71427d1e84f3dd0314c0f7b2291e5b200ac8c7c3b92583604051612e109190614fc5565b60405180910390a360019250505092915050565b60008073ffffffffffffffffffffffffffffffffffffffff168373ffffffffffffffffffffffffffffffffffffffff1603612e8b576040517fea553b3400000000000000000000000000000000000000000000000000000000815260040160405180910390fd5b3073ffffffffffffffffffffffffffffffffffffffff168373ffffffffffffffffffffffffffffffffffffffff1603612ef0576040517fed728e5700000000000000000000000000000000000000000000000000000000815260040160405180910390fd5b612ef93361432f565b81609960003373ffffffffffffffffffffffffffffffffffffffff1673ffffffffffffffffffffffffffffffffffffffff168152602001908152602001600020541015612fbe5781609960003373ffffffffffffffffffffffffffffffffffffffff1673ffffffffffffffffffffffffffffffffffffffff168152602001908152602001600020546040517fa1a48f3a000000000000000000000000000000000000000000000000000000008152600401612fb59291906157e0565b60405180910390fd5b81609960003373ffffffffffffffffffffffffffffffffffffffff1673ffffffffffffffffffffffffffffffffffffffff168152602001908152602001600020600082825403925050819055506130148361432f565b81609960008573ffffffffffffffffffffffffffffffffffffffff1673ffffffffffffffffffffffffffffffffffffffff16815260200190815260200160002060008282546130639190615651565b92505081905550600073ffffffffffffffffffffffffffffffffffffffff16609d60009054906101000a900473ffffffffffffffffffffffffffffffffffffffff1673ffffffffffffffffffffffffffffffffffffffff16141580156130ca575060008214155b1561320e576000609d60009054906101000a900473ffffffffffffffffffffffffffffffffffffffff1673ffffffffffffffffffffffffffffffffffffffff16633576f6cc84336040518363ffffffff1660e01b815260040161312e9291906157b7565b6020604051808303816000875af115801561314d573d6000803e3d6000fd5b505050506040513d601f19601f8201168201806040525081019061317191906155f5565b9050600081111561320c57609d60009054906101000a900473ffffffffffffffffffffffffffffffffffffffff1673ffffffffffffffffffffffffffffffffffffffff166351746bb282866040518363ffffffff1660e01b81526004016131d99291906157b7565b600060405180830381600087803b1580156131f357600080fd5b505af1158015613207573d6000803e3d6000fd5b505050505b505b8273ffffffffffffffffffffffffffffffffffffffff163373ffffffffffffffffffffffffffffffffffffffff167fddf252ad1be2c89b69c2b068fc378daa952ba7f163c4a11628f55a4df523b3ef8460405161326b9190614fc5565b60405180910390a36001905092915050565b609f60009054906101000a900473ffffffffffffffffffffffffffffffffffffffff1681565b6002606554036132e8576040517f08c379a00000000000000000000000000000000000000000000000000000000081526004016132df906155c0565b60405180910390fd5b60026065819055506000810361332a576040517f078e1d8500000000000000000000000000000000000000000000000000000000815260040160405180910390fd5b6133cf8160a060009054906101000a900473ffffffffffffffffffffffffffffffffffffffff1673ffffffffffffffffffffffffffffffffffffffff166370a08231336040518263ffffffff1660e01b815260040161338991906153cd565b602060405180830381865afa1580156133a6573d6000803e3d6000fd5b505050506040513d601f19601f820116820180604052508101906133ca91906155f5565b614aa8565b90506133da3361432f565b60006097541461346b5760975481609960003073ffffffffffffffffffffffffffffffffffffffff1673ffffffffffffffffffffffffffffffffffffffff168152602001908152602001600020546134329190615651565b111561346a576040517f3f27d61700000000000000000000000000000000000000000000000000000000815260040160405180910390fd5b5b613475338261492f565b61347f3382614982565b80609960003073ffffffffffffffffffffffffffffffffffffffff1673ffffffffffffffffffffffffffffffffffffffff16815260200190815260200160002060008282546134ce9190615651565b925050819055506134dd614037565b600073ffffffffffffffffffffffffffffffffffffffff16609d60009054906101000a900473ffffffffffffffffffffffffffffffffffffffff1673ffffffffffffffffffffffffffffffffffffffff16146135c357609d60009054906101000a900473ffffffffffffffffffffffffffffffffffffffff1673ffffffffffffffffffffffffffffffffffffffff166351746bb282336040518363ffffffff1660e01b81526004016135909291906157b7565b600060405180830381600087803b1580156135aa57600080fd5b505af11580156135be573d6000803e3d6000fd5b505050505b3373ffffffffffffffffffffffffffffffffffffffff167f90890809c654f11d6e72a28fa60149770a0d11ec6c92319d6ceb2bb0a4ea1a15824260405161360b9291906157e0565b60405180910390a2600160658190555050565b6000609b60009054906101000a900473ffffffffffffffffffffffffffffffffffffffff1673ffffffffffffffffffffffffffffffffffffffff16637cd083316136666124a2565b61366e611608565b6040518363ffffffff1660e01b815260040161368b9291906157e0565b602060405180830381865afa1580156136a8573d6000803e3d6000fd5b505050506040513d601f19601f820116820180604052508101906136cc91906155f5565b905090565b60975481565b600073ffffffffffffffffffffffffffffffffffffffff16609c60009054906101000a900473ffffffffffffffffffffffffffffffffffffffff1673ffffffffffffffffffffffffffffffffffffffff160361375f576040517f700e36ac00000000000000000000000000000000000000000000000000000000815260040160405180910390fd5b609c60009054906101000a900473ffffffffffffffffffffffffffffffffffffffff1673ffffffffffffffffffffffffffffffffffffffff16630e7fc864336040518263ffffffff1660e01b81526004016137ba91906153cd565b602060405180830381865afa1580156137d7573d6000803e3d6000fd5b505050506040513d601f19601f820116820180604052508101906137fb9190615835565b613831576040517feb05f53600000000000000000000000000000000000000000000000000000000815260040160405180910390fd5b600061383b611608565b03613872576040517f5b5724fc00000000000000000000000000000000000000000000000000000000815260040160405180910390fd5b6002606554036138b7576040517f08c379a00000000000000000000000000000000000000000000000000000000081526004016138ae906155c0565b60405180910390fd5b600260658190555060a060009054906101000a900473ffffffffffffffffffffffffffffffffffffffff1673ffffffffffffffffffffffffffffffffffffffff166370a08231306040518263ffffffff1660e01b815260040161391a91906153cd565b602060405180830381865afa158015613937573d6000803e3d6000fd5b505050506040513d601f19601f8201168201806040525081019061395b91906155f5565b811115613994576040517f5b5724fc00000000000000000000000000000000000000000000000000000000815260040160405180910390fd5b61399d3361477a565b80609a60003373ffffffffffffffffffffffffffffffffffffffff1673ffffffffffffffffffffffffffffffffffffffff16815260200190815260200160002060008282546139ec9190615651565b9250508190555080609a60003073ffffffffffffffffffffffffffffffffffffffff1673ffffffffffffffffffffffffffffffffffffffff1681526020019081526020016000206000828254613a429190615651565b92505081905550613a533382613f00565b613a5b614037565b3373ffffffffffffffffffffffffffffffffffffffff167fd6b37be10b58108f696d9ed067fedad0bff7cb417ef4c28d2f8a25d6d83c98d58242604051613aa39291906157e0565b60405180910390a26001606581905550613abb612598565b613ac3611608565b670de0b6b3a7640000613ad46124a2565b613ade9190615862565b613ae891906158d3565b1115613b20576040517fe5739c7e00000000000000000000000000000000000000000000000000000000815260040160405180910390fd5b50565b609c60009054906101000a900473ffffffffffffffffffffffffffffffffffffffff1681565b6000609860008473ffffffffffffffffffffffffffffffffffffffff1673ffffffffffffffffffffffffffffffffffffffff16815260200190815260200160002060008373ffffffffffffffffffffffffffffffffffffffff1673ffffffffffffffffffffffffffffffffffffffff16815260200190815260200160002054905092915050565b609b60009054906101000a900473ffffffffffffffffffffffffffffffffffffffff1681565b613bfe613ef8565b73ffffffffffffffffffffffffffffffffffffffff16613c1c612ba3565b73ffffffffffffffffffffffffffffffffffffffff1614613c72576040517f08c379a0000000000000000000000000000000000000000000000000000000008152600401613c6990615554565b60405180910390fd5b600073ffffffffffffffffffffffffffffffffffffffff168173ffffffffffffffffffffffffffffffffffffffff1603613ce1576040517f08c379a0000000000000000000000000000000000000000000000000000000008152600401613cd890615976565b60405180910390fd5b613cea81614ac1565b50565b6000609b60009054906101000a900473ffffffffffffffffffffffffffffffffffffffff1673ffffffffffffffffffffffffffffffffffffffff1663df841eec613d356124a2565b613d3d611608565b6040518363ffffffff1660e01b8152600401613d5a9291906157e0565b602060405180830381865afa158015613d77573d6000803e3d6000fd5b505050506040513d601f19601f82011682018060405250810190613d9b91906155f5565b905090565b613da8613ef8565b73ffffffffffffffffffffffffffffffffffffffff16613dc6612ba3565b73ffffffffffffffffffffffffffffffffffffffff1614613e1c576040517f08c379a0000000000000000000000000000000000000000000000000000000008152600401613e1390615554565b60405180910390fd5b613e2581613f51565b613e6657806040517f8a8b41ec000000000000000000000000000000000000000000000000000000008152600401613e5d91906153cd565b60405180910390fd5b80609c60006101000a81548173ffffffffffffffffffffffffffffffffffffffff021916908373ffffffffffffffffffffffffffffffffffffffff1602179055508073ffffffffffffffffffffffffffffffffffffffff167f04dce7d074f7e287a2e6e3516c802271d58d5c14e0dede83a49719eb6b92046942604051613eed9190614fc5565b60405180910390a250565b600033905090565b613f4d828260a060009054906101000a900473ffffffffffffffffffffffffffffffffffffffff1673ffffffffffffffffffffffffffffffffffffffff16614b879092919063ffffffff16565b5050565b6000808273ffffffffffffffffffffffffffffffffffffffff163b119050919050565b6000613f7f30613f51565b15905090565b600060019054906101000a900460ff16613fd4576040517f08c379a0000000000000000000000000000000000000000000000000000000008152600401613fcb90615a08565b60405180910390fd5b613fdc614cbd565b565b600060019054906101000a900460ff1661402d576040517f08c379a000000000000000000000000000000000000000000000000000000000815260040161402490615a08565b60405180910390fd5b614035614d1e565b565b60006140416124a2565b9050600061404d611608565b9050600073ffffffffffffffffffffffffffffffffffffffff16609b60009054906101000a900473ffffffffffffffffffffffffffffffffffffffff1673ffffffffffffffffffffffffffffffffffffffff16036140d7576040517ffd4851e900000000000000000000000000000000000000000000000000000000815260040160405180910390fd5b609e60009054906101000a900473ffffffffffffffffffffffffffffffffffffffff1673ffffffffffffffffffffffffffffffffffffffff166334fcf437609b60009054906101000a900473ffffffffffffffffffffffffffffffffffffffff1673ffffffffffffffffffffffffffffffffffffffff16637cd0833185856040518363ffffffff1660e01b81526004016141729291906157e0565b602060405180830381865afa15801561418f573d6000803e3d6000fd5b505050506040513d601f19601f820116820180604052508101906141b391906155f5565b6040518263ffffffff1660e01b81526004016141cf9190614fc5565b600060405180830381600087803b1580156141e957600080fd5b505af11580156141fd573d6000803e3d6000fd5b50505050609f60009054906101000a900473ffffffffffffffffffffffffffffffffffffffff1673ffffffffffffffffffffffffffffffffffffffff166334fcf437609b60009054906101000a900473ffffffffffffffffffffffffffffffffffffffff1673ffffffffffffffffffffffffffffffffffffffff1663df841eec85856040518363ffffffff1660e01b815260040161429c9291906157e0565b602060405180830381865afa1580156142b9573d6000803e3d6000fd5b505050506040513d601f19601f820116820180604052508101906142dd91906155f5565b6040518263ffffffff1660e01b81526004016142f99190614fc5565b600060405180830381600087803b15801561431357600080fd5b505af1158015614327573d6000803e3d6000fd5b505050505050565b6000609960008373ffffffffffffffffffffffffffffffffffffffff1673ffffffffffffffffffffffffffffffffffffffff1681526020019081526020016000205461437a836125ce565b6143849190615685565b90506143908282614982565b614399306125ce565b609960003073ffffffffffffffffffffffffffffffffffffffff1673ffffffffffffffffffffffffffffffffffffffff168152602001908152602001600020819055508173ffffffffffffffffffffffffffffffffffffffff167f9bbd517758fbae61197f1c1c04c8614064e89512dbaf4350dcdf76fcaa5e216182426040516144249291906157e0565b60405180910390a2609e60009054906101000a900473ffffffffffffffffffffffffffffffffffffffff1673ffffffffffffffffffffffffffffffffffffffff1663ed03b336836040518263ffffffff1660e01b815260040161448791906153cd565b600060405180830381600087803b1580156144a157600080fd5b505af11580156144b5573d6000803e3d6000fd5b50505050609e60009054906101000a900473ffffffffffffffffffffffffffffffffffffffff1673ffffffffffffffffffffffffffffffffffffffff1663ed03b336306040518263ffffffff1660e01b815260040161451491906153cd565b600060405180830381600087803b15801561452e57600080fd5b505af1158015614542573d6000803e3d6000fd5b505050505050565b609960008373ffffffffffffffffffffffffffffffffffffffff1673ffffffffffffffffffffffffffffffffffffffff168152602001908152602001600020548111156145c3576040517f177466fe00000000000000000000000000000000000000000000000000000000815260040160405180910390fd5b80609960008473ffffffffffffffffffffffffffffffffffffffff1673ffffffffffffffffffffffffffffffffffffffff16815260200190815260200160002060008282540392505081905550600073ffffffffffffffffffffffffffffffffffffffff168273ffffffffffffffffffffffffffffffffffffffff167fddf252ad1be2c89b69c2b068fc378daa952ba7f163c4a11628f55a4df523b3ef8360405161466e9190614fc5565b60405180910390a35050565b60008273ffffffffffffffffffffffffffffffffffffffff1682600067ffffffffffffffff8111156146af576146ae615a28565b5b6040519080825280601f01601f1916602001820160405280156146e15781602001600182028036833780820191505090505b506040516146ef9190615ac8565b60006040518083038185875af1925050503d806000811461472c576040519150601f19603f3d011682016040523d82523d6000602084013e614731565b606091505b5050905080614775576040517f08c379a000000000000000000000000000000000000000000000000000000000815260040161476c90615b51565b60405180910390fd5b505050565b614783816124b2565b609a60008373ffffffffffffffffffffffffffffffffffffffff1673ffffffffffffffffffffffffffffffffffffffff168152602001908152602001600020819055506147cf306124b2565b609a60003073ffffffffffffffffffffffffffffffffffffffff1673ffffffffffffffffffffffffffffffffffffffff16815260200190815260200160002081905550609f60009054906101000a900473ffffffffffffffffffffffffffffffffffffffff1673ffffffffffffffffffffffffffffffffffffffff1663ed03b336826040518263ffffffff1660e01b815260040161486d91906153cd565b600060405180830381600087803b15801561488757600080fd5b505af115801561489b573d6000803e3d6000fd5b50505050609f60009054906101000a900473ffffffffffffffffffffffffffffffffffffffff1673ffffffffffffffffffffffffffffffffffffffff1663ed03b336306040518263ffffffff1660e01b81526004016148fa91906153cd565b600060405180830381600087803b15801561491457600080fd5b505af1158015614928573d6000803e3d6000fd5b5050505050565b61497e82308360a060009054906101000a900473ffffffffffffffffffffffffffffffffffffffff1673ffffffffffffffffffffffffffffffffffffffff16614d77909392919063ffffffff16565b5050565b600073ffffffffffffffffffffffffffffffffffffffff168273ffffffffffffffffffffffffffffffffffffffff16036149e8576040517f8db7f6da00000000000000000000000000000000000000000000000000000000815260040160405180910390fd5b80609960008473ffffffffffffffffffffffffffffffffffffffff1673ffffffffffffffffffffffffffffffffffffffff1681526020019081526020016000206000828254614a379190615651565b925050819055508173ffffffffffffffffffffffffffffffffffffffff16600073ffffffffffffffffffffffffffffffffffffffff167fddf252ad1be2c89b69c2b068fc378daa952ba7f163c4a11628f55a4df523b3ef83604051614a9c9190614fc5565b60405180910390a35050565b6000818310614ab75781614ab9565b825b905092915050565b6000603360009054906101000a900473ffffffffffffffffffffffffffffffffffffffff16905081603360006101000a81548173ffffffffffffffffffffffffffffffffffffffff021916908373ffffffffffffffffffffffffffffffffffffffff1602179055508173ffffffffffffffffffffffffffffffffffffffff168173ffffffffffffffffffffffffffffffffffffffff167f8be0079c531659141344cd1fd0a4f28419497f9722a3daafe3b4186f6b6457e060405160405180910390a35050565b6000808473ffffffffffffffffffffffffffffffffffffffff1663a9059cbb8585604051602401614bb9929190615b71565b6040516020818303038152906040529060e01b6020820180517bffffffffffffffffffffffffffffffffffffffffffffffffffffffff8381831617835250505050604051614c079190615ac8565b6000604051808303816000865af19150503d8060008114614c44576040519150601f19603f3d011682016040523d82523d6000602084013e614c49565b606091505b5091509150818015614c775750600081511480614c76575080806020019051810190614c759190615835565b5b5b614cb6576040517f08c379a0000000000000000000000000000000000000000000000000000000008152600401614cad90615c0c565b60405180910390fd5b5050505050565b600060019054906101000a900460ff16614d0c576040517f08c379a0000000000000000000000000000000000000000000000000000000008152600401614d0390615a08565b60405180910390fd5b614d1c614d17613ef8565b614ac1565b565b600060019054906101000a900460ff16614d6d576040517f08c379a0000000000000000000000000000000000000000000000000000000008152600401614d6490615a08565b60405180910390fd5b6001606581905550565b6000808573ffffffffffffffffffffffffffffffffffffffff166323b872dd868686604051602401614dab93929190615c2c565b6040516020818303038152906040529060e01b6020820180517bffffffffffffffffffffffffffffffffffffffffffffffffffffffff8381831617835250505050604051614df99190615ac8565b6000604051808303816000865af19150503d8060008114614e36576040519150601f19603f3d011682016040523d82523d6000602084013e614e3b565b606091505b5091509150818015614e695750600081511480614e68575080806020019051810190614e679190615835565b5b5b614ea8576040517f08c379a0000000000000000000000000000000000000000000000000000000008152600401614e9f90615cd5565b60405180910390fd5b505050505050565b600080fd5b6000819050919050565b614ec881614eb5565b8114614ed357600080fd5b50565b600081359050614ee581614ebf565b92915050565b600073ffffffffffffffffffffffffffffffffffffffff82169050919050565b6000614f1682614eeb565b9050919050565b614f2681614f0b565b8114614f3157600080fd5b50565b600081359050614f4381614f1d565b92915050565b60008060408385031215614f6057614f5f614eb0565b5b6000614f6e85828601614ed6565b9250506020614f7f85828601614f34565b9150509250929050565b600060208284031215614f9f57614f9e614eb0565b5b6000614fad84828501614f34565b91505092915050565b614fbf81614eb5565b82525050565b6000602082019050614fda6000830184614fb6565b92915050565b60008060408385031215614ff757614ff6614eb0565b5b600061500585828601614f34565b925050602061501685828601614ed6565b9150509250929050565b60008115159050919050565b61503581615020565b82525050565b6000602082019050615050600083018461502c565b92915050565b600061506182614f0b565b9050919050565b61507181615056565b811461507c57600080fd5b50565b60008135905061508e81615068565b92915050565b6000602082840312156150aa576150a9614eb0565b5b60006150b88482850161507f565b91505092915050565b60006150cc82614f0b565b9050919050565b6150dc816150c1565b81146150e757600080fd5b50565b6000813590506150f9816150d3565b92915050565b600061510a82614f0b565b9050919050565b61511a816150ff565b811461512557600080fd5b50565b60008135905061513781615111565b92915050565b600061514882614f0b565b9050919050565b6151588161513d565b811461516357600080fd5b50565b6000813590506151758161514f565b92915050565b600061518682614eeb565b9050919050565b6151968161517b565b81146151a157600080fd5b50565b6000813590506151b38161518d565b92915050565b600080600080600080600060e0888a0312156151d8576151d7614eb0565b5b60006151e68a828b016150ea565b97505060206151f78a828b01615128565b96505060406152088a828b01615166565b95505060606152198a828b01615166565b945050608061522a8a828b016151a4565b93505060a061523b8a828b0161507f565b92505060c061524c8a828b01614ed6565b91505092959891949750929550565b60006020828403121561527157615270614eb0565b5b600061527f84828501614ed6565b91505092915050565b6000806000606084860312156152a1576152a0614eb0565b5b60006152af86828701614f34565b93505060206152c086828701614f34565b92505060406152d186828701614ed6565b9150509250925092565b6000819050919050565b60006153006152fb6152f684614eeb565b6152db565b614eeb565b9050919050565b6000615312826152e5565b9050919050565b600061532482615307565b9050919050565b61533481615319565b82525050565b600060208201905061534f600083018461532b565b92915050565b60006020828403121561536b5761536a614eb0565b5b6000615379848285016150ea565b91505092915050565b600061538d82615307565b9050919050565b61539d81615382565b82525050565b60006020820190506153b86000830184615394565b92915050565b6153c781614f0b565b82525050565b60006020820190506153e260008301846153be565b92915050565b6153f18161517b565b82525050565b600060208201905061540c60008301846153e8565b92915050565b600061541d82615307565b9050919050565b61542d81615412565b82525050565b60006020820190506154486000830184615424565b92915050565b6000806040838503121561546557615464614eb0565b5b600061547385828601614f34565b925050602061548485828601614f34565b9150509250929050565b600061549982615307565b9050919050565b6154a98161548e565b82525050565b60006020820190506154c460008301846154a0565b92915050565b6000602082840312156154e0576154df614eb0565b5b60006154ee84828501615128565b91505092915050565b600082825260208201905092915050565b7f4f776e61626c653a2063616c6c6572206973206e6f7420746865206f776e6572600082015250565b600061553e6020836154f7565b915061554982615508565b602082019050919050565b6000602082019050818103600083015261556d81615531565b9050919050565b7f5265656e7472616e637947756172643a207265656e7472616e742063616c6c00600082015250565b60006155aa601f836154f7565b91506155b582615574565b602082019050919050565b600060208201905081810360008301526155d98161559d565b9050919050565b6000815190506155ef81614ebf565b92915050565b60006020828403121561560b5761560a614eb0565b5b6000615619848285016155e0565b91505092915050565b7f4e487b7100000000000000000000000000000000000000000000000000000000600052601160045260246000fd5b600061565c82614eb5565b915061566783614eb5565b925082820190508082111561567f5761567e615622565b5b92915050565b600061569082614eb5565b915061569b83614eb5565b92508282039050818111156156b3576156b2615622565b5b92915050565b7f496e697469616c697a61626c653a20636f6e747261637420697320616c72656160008201527f647920696e697469616c697a6564000000000000000000000000000000000000602082015250565b6000615715602e836154f7565b9150615720826156b9565b604082019050919050565b6000602082019050818103600083015261574481615708565b9050919050565b7f57726f6e6720696e697420617267756d656e7473000000000000000000000000600082015250565b60006157816014836154f7565b915061578c8261574b565b602082019050919050565b600060208201905081810360008301526157b081615774565b9050919050565b60006040820190506157cc6000830185614fb6565b6157d960208301846153be565b9392505050565b60006040820190506157f56000830185614fb6565b6158026020830184614fb6565b9392505050565b61581281615020565b811461581d57600080fd5b50565b60008151905061582f81615809565b92915050565b60006020828403121561584b5761584a614eb0565b5b600061585984828501615820565b91505092915050565b600061586d82614eb5565b915061587883614eb5565b925082820261588681614eb5565b9150828204841483151761589d5761589c615622565b5b5092915050565b7f4e487b7100000000000000000000000000000000000000000000000000000000600052601260045260246000fd5b60006158de82614eb5565b91506158e983614eb5565b9250826158f9576158f86158a4565b5b828204905092915050565b7f4f776e61626c653a206e6577206f776e657220697320746865207a65726f206160008201527f6464726573730000000000000000000000000000000000000000000000000000602082015250565b60006159606026836154f7565b915061596b82615904565b604082019050919050565b6000602082019050818103600083015261598f81615953565b9050919050565b7f496e697469616c697a61626c653a20636f6e7472616374206973206e6f74206960008201527f6e697469616c697a696e67000000000000000000000000000000000000000000602082015250565b60006159f2602b836154f7565b91506159fd82615996565b604082019050919050565b60006020820190508181036000830152615a21816159e5565b9050919050565b7f4e487b7100000000000000000000000000000000000000000000000000000000600052604160045260246000fd5b600081519050919050565b600081905092915050565b60005b83811015615a8b578082015181840152602081019050615a70565b60008484015250505050565b6000615aa282615a57565b615aac8185615a62565b9350615abc818560208601615a6d565b80840191505092915050565b6000615ad48284615a97565b915081905092915050565b7f5472616e7366657248656c7065723a3a736166655472616e736665724554483a60008201527f20455448207472616e73666572206661696c6564000000000000000000000000602082015250565b6000615b3b6034836154f7565b9150615b4682615adf565b604082019050919050565b60006020820190508181036000830152615b6a81615b2e565b9050919050565b6000604082019050615b8660008301856153be565b615b936020830184614fb6565b9392505050565b7f5472616e7366657248656c7065723a3a736166655472616e736665723a20747260008201527f616e73666572206661696c656400000000000000000000000000000000000000602082015250565b6000615bf6602d836154f7565b9150615c0182615b9a565b604082019050919050565b60006020820190508181036000830152615c2581615be9565b9050919050565b6000606082019050615c4160008301866153be565b615c4e60208301856153be565b615c5b6040830184614fb6565b949350505050565b7f5472616e7366657248656c7065723a3a7472616e7366657246726f6d3a20747260008201527f616e7366657246726f6d206661696c6564000000000000000000000000000000602082015250565b6000615cbf6031836154f7565b9150615cca82615c63565b604082019050919050565b60006020820190508181036000830152615cee81615cb2565b905091905056fea26469706673582212203f9bafc1774510559dd8e8ca83bc82f3a692ce56c9f2f81b7852e682ba8517cc64736f6c63430008110033",
  "devdoc": {
    "details": "Contract allowing user to deposit to and borrow WAVAX from a dedicated user account",
    "errors": {
      "InsufficientAllowance(uint256,uint256)": [
        {
          "params": {
            "allowance": "current allowance",
            "requested": "requested transfer amount"
          }
        }
      ],
      "TransferAmountExceedsBalance(uint256,uint256)": [
        {
          "params": {
            "amount": "transfer amount",
            "balance": "available balance"
          }
        }
      ]
    },
    "kind": "dev",
    "methods": {
      "allowance(address,address)": {
        "details": "Returns the remaining number of tokens that `spender` will be allowed to spend on behalf of `owner` through {transferFrom}. This is zero by default. This value changes when {approve} or {transferFrom} are called."
      },
      "approve(address,uint256)": {
        "details": "Sets `amount` as the allowance of `spender` over the caller's tokens. Returns a boolean value indicating whether the operation succeeded. IMPORTANT: Beware that changing an allowance with this method brings the risk that someone may use both the old and the new allowance by unfortunate transaction ordering. One possible solution to mitigate this race condition is to first reduce the spender's allowance to 0 and set the desired value afterwards: https://github.com/ethereum/EIPs/issues/20#issuecomment-263524729 Emits an {Approval} event."
      },
      "balanceOf(address)": {
        "details": "_user the address of queried depositor*"
      },
      "borrow(uint256)": {
        "details": "_amount the amount to be borrowedIt is only meant to be used by a SmartLoanDiamondProxy*"
      },
      "owner()": {
        "details": "Returns the address of the current owner."
      },
      "renounceOwnership()": {
        "details": "Leaves the contract without owner. It will not be possible to call `onlyOwner` functions anymore. Can only be called by the current owner. NOTE: Renouncing ownership will leave the contract without an owner, thereby removing any functionality that is only available to the owner."
      },
      "repay(uint256)": {
        "details": "It is only meant to be used by a SmartLoanDiamondProxy*"
      },
      "setBorrowersRegistry(address)": {
        "details": "borrowersRegistry the address of borrowers registry*"
      },
      "setPoolRewarder(address)": {
        "details": "_poolRewarder the address of PoolRewarder*"
      },
      "setRatesCalculator(address)": {
        "details": "ratesCalculator the address of rates calculator*"
      },
      "setTotalSupplyCap(uint256)": {
        "details": "_newTotalSupplyCap new deposit cap*"
      },
      "totalSupply()": {
        "details": "Returns the amount of tokens in existence."
      },
      "transferOwnership(address)": {
        "details": "Transfers ownership of the contract to a new account (`newOwner`). Can only be called by the current owner."
      },
      "withdraw(uint256)": {
        "details": "_amount the amount to be withdrawn*"
      },
      "withdrawNativeToken(uint256)": {
        "details": "_amount the amount to be withdrawn*"
      }
    },
    "title": "WavaxPool",
    "version": 1
  },
  "userdoc": {
    "kind": "user",
    "methods": {
      "balanceOf(address)": {
        "notice": "Returns the current deposited amount for the given user The value includes the interest rates earned at the current moment"
      },
      "borrow(uint256)": {
        "notice": "Borrows the specified amount It updates user borrowed balance, total borrowed amount and rates"
      },
      "deposit(uint256)": {
        "notice": "Deposits the amount It updates user deposited balance, total deposited and rates*"
      },
      "depositNativeToken()": {
        "notice": "Wraps and deposits amount attached to the transaction*"
      },
      "getBorrowingRate()": {
        "notice": "Returns the current interest rate for borrowings*"
      },
      "getDepositRate()": {
        "notice": "Returns the current interest rate for deposits*"
      },
      "recoverSurplus(uint256,address)": {
        "notice": "Recovers the surplus funds resultant from difference between deposit and borrowing rates*"
      },
      "repay(uint256)": {
        "notice": "Repays the amount It updates user borrowed balance, total borrowed amount and rates"
      },
      "setBorrowersRegistry(address)": {
        "notice": "Sets the new borrowers registry contract. The borrowers registry decides if an account can borrow funds. Only the owner of the Contract can execute this function."
      },
      "setPoolRewarder(address)": {
        "notice": "Sets the new Pool Rewarder. The IPoolRewarder that distributes additional token rewards to people having a stake in this pool proportionally to their stake and time of participance. Only the owner of the Contract can execute this function."
      },
      "setRatesCalculator(address)": {
        "notice": "Sets the new rate calculator. The calculator is an external contract that contains the logic for calculating deposit and borrowing rates. Only the owner of the Contract can execute this function."
      },
      "setTotalSupplyCap(uint256)": {
        "notice": "Sets new totalSupplyCap limiting how much in total can be deposited to the Pool. Only the owner of the Contract can execute this function."
      },
      "withdraw(uint256)": {
        "notice": "Withdraws selected amount from the user deposits"
      },
      "withdrawNativeToken(uint256)": {
        "notice": "Unwraps and withdraws selected amount from the user deposits"
      }
    },
    "version": 1
  },
  "storageLayout": {
    "storage": [
      {
        "astId": 130,
        "contract": "contracts/deployment/avalanche/WavaxPool.sol:WavaxPool",
        "label": "_initialized",
        "offset": 0,
        "slot": "0",
        "type": "t_bool"
      },
      {
        "astId": 133,
        "contract": "contracts/deployment/avalanche/WavaxPool.sol:WavaxPool",
        "label": "_initializing",
        "offset": 1,
        "slot": "0",
        "type": "t_bool"
      },
      {
        "astId": 540,
        "contract": "contracts/deployment/avalanche/WavaxPool.sol:WavaxPool",
        "label": "__gap",
        "offset": 0,
        "slot": "1",
        "type": "t_array(t_uint256)50_storage"
      },
      {
        "astId": 10,
        "contract": "contracts/deployment/avalanche/WavaxPool.sol:WavaxPool",
        "label": "_owner",
        "offset": 0,
        "slot": "51",
        "type": "t_address"
      },
      {
        "astId": 122,
        "contract": "contracts/deployment/avalanche/WavaxPool.sol:WavaxPool",
        "label": "__gap",
        "offset": 0,
        "slot": "52",
        "type": "t_array(t_uint256)49_storage"
      },
      {
        "astId": 211,
        "contract": "contracts/deployment/avalanche/WavaxPool.sol:WavaxPool",
        "label": "_status",
        "offset": 0,
        "slot": "101",
        "type": "t_uint256"
      },
      {
        "astId": 255,
        "contract": "contracts/deployment/avalanche/WavaxPool.sol:WavaxPool",
        "label": "__gap",
        "offset": 0,
        "slot": "102",
        "type": "t_array(t_uint256)49_storage"
      },
      {
        "astId": 891,
        "contract": "contracts/deployment/avalanche/WavaxPool.sol:WavaxPool",
        "label": "totalSupplyCap",
        "offset": 0,
        "slot": "151",
        "type": "t_uint256"
      },
      {
        "astId": 897,
        "contract": "contracts/deployment/avalanche/WavaxPool.sol:WavaxPool",
        "label": "_allowed",
        "offset": 0,
        "slot": "152",
        "type": "t_mapping(t_address,t_mapping(t_address,t_uint256))"
      },
      {
        "astId": 901,
        "contract": "contracts/deployment/avalanche/WavaxPool.sol:WavaxPool",
        "label": "_deposited",
        "offset": 0,
        "slot": "153",
        "type": "t_mapping(t_address,t_uint256)"
      },
      {
        "astId": 905,
        "contract": "contracts/deployment/avalanche/WavaxPool.sol:WavaxPool",
        "label": "borrowed",
        "offset": 0,
        "slot": "154",
        "type": "t_mapping(t_address,t_uint256)"
      },
      {
        "astId": 908,
        "contract": "contracts/deployment/avalanche/WavaxPool.sol:WavaxPool",
        "label": "ratesCalculator",
        "offset": 0,
        "slot": "155",
        "type": "t_contract(IRatesCalculator)2912"
      },
      {
        "astId": 911,
        "contract": "contracts/deployment/avalanche/WavaxPool.sol:WavaxPool",
        "label": "borrowersRegistry",
        "offset": 0,
        "slot": "156",
        "type": "t_contract(IBorrowersRegistry)2825"
      },
      {
        "astId": 914,
        "contract": "contracts/deployment/avalanche/WavaxPool.sol:WavaxPool",
        "label": "poolRewarder",
        "offset": 0,
        "slot": "157",
        "type": "t_contract(IPoolRewarder)2890"
      },
      {
        "astId": 917,
        "contract": "contracts/deployment/avalanche/WavaxPool.sol:WavaxPool",
        "label": "depositIndex",
        "offset": 0,
        "slot": "158",
        "type": "t_contract(IIndex)2852"
      },
      {
        "astId": 920,
        "contract": "contracts/deployment/avalanche/WavaxPool.sol:WavaxPool",
        "label": "borrowIndex",
        "offset": 0,
        "slot": "159",
        "type": "t_contract(IIndex)2852"
      },
      {
        "astId": 922,
        "contract": "contracts/deployment/avalanche/WavaxPool.sol:WavaxPool",
        "label": "tokenAddress",
        "offset": 0,
        "slot": "160",
        "type": "t_address_payable"
      }
    ],
    "types": {
      "t_address": {
        "encoding": "inplace",
        "label": "address",
        "numberOfBytes": "20"
      },
      "t_address_payable": {
        "encoding": "inplace",
        "label": "address payable",
        "numberOfBytes": "20"
      },
      "t_array(t_uint256)49_storage": {
        "base": "t_uint256",
        "encoding": "inplace",
        "label": "uint256[49]",
        "numberOfBytes": "1568"
      },
      "t_array(t_uint256)50_storage": {
        "base": "t_uint256",
        "encoding": "inplace",
        "label": "uint256[50]",
        "numberOfBytes": "1600"
      },
      "t_bool": {
        "encoding": "inplace",
        "label": "bool",
        "numberOfBytes": "1"
      },
      "t_contract(IBorrowersRegistry)2825": {
        "encoding": "inplace",
        "label": "contract IBorrowersRegistry",
        "numberOfBytes": "20"
      },
      "t_contract(IIndex)2852": {
        "encoding": "inplace",
        "label": "contract IIndex",
        "numberOfBytes": "20"
      },
      "t_contract(IPoolRewarder)2890": {
        "encoding": "inplace",
        "label": "contract IPoolRewarder",
        "numberOfBytes": "20"
      },
      "t_contract(IRatesCalculator)2912": {
        "encoding": "inplace",
        "label": "contract IRatesCalculator",
        "numberOfBytes": "20"
      },
      "t_mapping(t_address,t_mapping(t_address,t_uint256))": {
        "encoding": "mapping",
        "key": "t_address",
        "label": "mapping(address => mapping(address => uint256))",
        "numberOfBytes": "32",
        "value": "t_mapping(t_address,t_uint256)"
      },
      "t_mapping(t_address,t_uint256)": {
        "encoding": "mapping",
        "key": "t_address",
        "label": "mapping(address => uint256)",
        "numberOfBytes": "32",
        "value": "t_uint256"
      },
      "t_uint256": {
        "encoding": "inplace",
        "label": "uint256",
        "numberOfBytes": "32"
      }
    }
  }
}