{
  "address": "0x175451C43965D555B099af6a7f94c51010255521",
  "abi": [
    {
      "inputs": [],
      "name": "BorrowersRegistryNotConfigured",
      "type": "error"
    },
    {
      "inputs": [],
      "name": "BurnAmountExceedsAvailableForUser",
      "type": "error"
    },
    {
      "inputs": [],
      "name": "BurnAmountExceedsBalance",
      "type": "error"
    },
    {
      "inputs": [
        {
          "internalType": "uint256",
          "name": "requested",
          "type": "uint256"
        },
        {
          "internalType": "uint256",
          "name": "allowance",
          "type": "uint256"
        }
      ],
      "name": "InsufficientAllowance",
      "type": "error"
    },
    {
      "inputs": [],
      "name": "InsufficientPoolFunds",
      "type": "error"
    },
    {
      "inputs": [],
      "name": "InsufficientSurplus",
      "type": "error"
    },
    {
      "inputs": [],
      "name": "MaxPoolUtilisationBreached",
      "type": "error"
    },
    {
      "inputs": [],
      "name": "MintToAddressZero",
      "type": "error"
    },
    {
      "inputs": [
        {
          "internalType": "address",
          "name": "target",
          "type": "address"
        }
      ],
      "name": "NotAContract",
      "type": "error"
    },
    {
      "inputs": [],
      "name": "NotAuthorizedToBorrow",
      "type": "error"
    },
    {
      "inputs": [],
      "name": "PoolFrozen",
      "type": "error"
    },
    {
      "inputs": [],
      "name": "RepayingMoreThanWasBorrowed",
      "type": "error"
    },
    {
      "inputs": [],
      "name": "SpenderZeroAddress",
      "type": "error"
    },
    {
      "inputs": [],
      "name": "TotalSupplyCapBreached",
      "type": "error"
    },
    {
      "inputs": [
        {
          "internalType": "uint256",
          "name": "amount",
          "type": "uint256"
        },
        {
          "internalType": "uint256",
          "name": "balance",
          "type": "uint256"
        }
      ],
      "name": "TransferAmountExceedsBalance",
      "type": "error"
    },
    {
      "inputs": [],
      "name": "TransferToPoolAddress",
      "type": "error"
    },
    {
      "inputs": [],
      "name": "TransferToZeroAddress",
      "type": "error"
    },
    {
      "inputs": [],
      "name": "ZeroDepositAmount",
      "type": "error"
    },
    {
      "anonymous": false,
      "inputs": [
        {
          "indexed": true,
          "internalType": "address",
          "name": "owner",
          "type": "address"
        },
        {
          "indexed": true,
          "internalType": "address",
          "name": "spender",
          "type": "address"
        },
        {
          "indexed": false,
          "internalType": "uint256",
          "name": "value",
          "type": "uint256"
        }
      ],
      "name": "Approval",
      "type": "event"
    },
    {
      "anonymous": false,
      "inputs": [
        {
          "indexed": true,
          "internalType": "address",
          "name": "registry",
          "type": "address"
        },
        {
          "indexed": false,
          "internalType": "uint256",
          "name": "timestamp",
          "type": "uint256"
        }
      ],
      "name": "BorrowersRegistryChanged",
      "type": "event"
    },
    {
      "anonymous": false,
      "inputs": [
        {
          "indexed": true,
          "internalType": "address",
          "name": "user",
          "type": "address"
        },
        {
          "indexed": false,
          "internalType": "uint256",
          "name": "value",
          "type": "uint256"
        },
        {
          "indexed": false,
          "internalType": "uint256",
          "name": "timestamp",
          "type": "uint256"
        }
      ],
      "name": "Borrowing",
      "type": "event"
    },
    {
      "anonymous": false,
      "inputs": [
        {
          "indexed": true,
          "internalType": "address",
          "name": "user",
          "type": "address"
        },
        {
          "indexed": false,
          "internalType": "uint256",
          "name": "value",
          "type": "uint256"
        },
        {
          "indexed": false,
          "internalType": "uint256",
          "name": "timestamp",
          "type": "uint256"
        }
      ],
      "name": "Deposit",
      "type": "event"
    },
    {
      "anonymous": false,
      "inputs": [
        {
          "indexed": true,
          "internalType": "address",
          "name": "user",
          "type": "address"
        },
        {
          "indexed": true,
          "internalType": "address",
          "name": "_of",
          "type": "address"
        },
        {
          "indexed": false,
          "internalType": "uint256",
          "name": "value",
          "type": "uint256"
        },
        {
          "indexed": false,
          "internalType": "uint256",
          "name": "timestamp",
          "type": "uint256"
        }
      ],
      "name": "DepositOnBehalfOf",
      "type": "event"
    },
    {
      "anonymous": false,
      "inputs": [
        {
          "indexed": true,
          "internalType": "address",
          "name": "user",
          "type": "address"
        },
        {
          "indexed": false,
          "internalType": "uint256",
          "name": "value",
          "type": "uint256"
        },
        {
          "indexed": false,
          "internalType": "uint256",
          "name": "timestamp",
          "type": "uint256"
        }
      ],
      "name": "InterestCollected",
      "type": "event"
    },
    {
      "anonymous": false,
      "inputs": [
        {
          "indexed": true,
          "internalType": "address",
          "name": "previousOwner",
          "type": "address"
        },
        {
          "indexed": true,
          "internalType": "address",
          "name": "newOwner",
          "type": "address"
        }
      ],
      "name": "OwnershipTransferred",
      "type": "event"
    },
    {
      "anonymous": false,
      "inputs": [
        {
          "indexed": true,
          "internalType": "address",
          "name": "poolRewarder",
          "type": "address"
        },
        {
          "indexed": false,
          "internalType": "uint256",
          "name": "timestamp",
          "type": "uint256"
        }
      ],
      "name": "PoolRewarderChanged",
      "type": "event"
    },
    {
      "anonymous": false,
      "inputs": [
        {
          "indexed": true,
          "internalType": "address",
          "name": "calculator",
          "type": "address"
        },
        {
          "indexed": false,
          "internalType": "uint256",
          "name": "timestamp",
          "type": "uint256"
        }
      ],
      "name": "RatesCalculatorChanged",
      "type": "event"
    },
    {
      "anonymous": false,
      "inputs": [
        {
          "indexed": true,
          "internalType": "address",
          "name": "user",
          "type": "address"
        },
        {
          "indexed": false,
          "internalType": "uint256",
          "name": "value",
          "type": "uint256"
        },
        {
          "indexed": false,
          "internalType": "uint256",
          "name": "timestamp",
          "type": "uint256"
        }
      ],
      "name": "Repayment",
      "type": "event"
    },
    {
      "anonymous": false,
      "inputs": [
        {
          "indexed": true,
          "internalType": "address",
          "name": "from",
          "type": "address"
        },
        {
          "indexed": true,
          "internalType": "address",
          "name": "to",
          "type": "address"
        },
        {
          "indexed": false,
          "internalType": "uint256",
          "name": "value",
          "type": "uint256"
        }
      ],
      "name": "Transfer",
      "type": "event"
    },
    {
      "anonymous": false,
      "inputs": [
        {
          "indexed": true,
          "internalType": "address",
          "name": "distributor",
          "type": "address"
        },
        {
          "indexed": false,
          "internalType": "uint256",
          "name": "timestamp",
          "type": "uint256"
        }
      ],
      "name": "VestingDistributorChanged",
      "type": "event"
    },
    {
      "anonymous": false,
      "inputs": [
        {
          "indexed": true,
          "internalType": "address",
          "name": "user",
          "type": "address"
        },
        {
          "indexed": false,
          "internalType": "uint256",
          "name": "value",
          "type": "uint256"
        },
        {
          "indexed": false,
          "internalType": "uint256",
          "name": "timestamp",
          "type": "uint256"
        }
      ],
      "name": "Withdrawal",
      "type": "event"
    },
    {
      "inputs": [
        {
          "internalType": "address",
          "name": "owner",
          "type": "address"
        },
        {
          "internalType": "address",
          "name": "spender",
          "type": "address"
        }
      ],
      "name": "allowance",
      "outputs": [
        {
          "internalType": "uint256",
          "name": "",
          "type": "uint256"
        }
      ],
      "stateMutability": "view",
      "type": "function"
    },
    {
      "inputs": [
        {
          "internalType": "address",
          "name": "spender",
          "type": "address"
        },
        {
          "internalType": "uint256",
          "name": "amount",
          "type": "uint256"
        }
      ],
      "name": "approve",
      "outputs": [
        {
          "internalType": "bool",
          "name": "",
          "type": "bool"
        }
      ],
      "stateMutability": "nonpayable",
      "type": "function"
    },
    {
      "inputs": [
        {
          "internalType": "address",
          "name": "user",
          "type": "address"
        }
      ],
      "name": "balanceOf",
      "outputs": [
        {
          "internalType": "uint256",
          "name": "",
          "type": "uint256"
        }
      ],
      "stateMutability": "view",
      "type": "function"
    },
    {
      "inputs": [
        {
          "internalType": "uint256",
          "name": "_amount",
          "type": "uint256"
        }
      ],
      "name": "borrow",
      "outputs": [],
      "stateMutability": "nonpayable",
      "type": "function"
    },
    {
      "inputs": [],
      "name": "borrowIndex",
      "outputs": [
        {
          "internalType": "contract IIndex",
          "name": "",
          "type": "address"
        }
      ],
      "stateMutability": "view",
      "type": "function"
    },
    {
      "inputs": [
        {
          "internalType": "address",
          "name": "",
          "type": "address"
        }
      ],
      "name": "borrowed",
      "outputs": [
        {
          "internalType": "uint256",
          "name": "",
          "type": "uint256"
        }
      ],
      "stateMutability": "view",
      "type": "function"
    },
    {
      "inputs": [],
      "name": "borrowersRegistry",
      "outputs": [
        {
          "internalType": "contract IBorrowersRegistry",
          "name": "",
          "type": "address"
        }
      ],
      "stateMutability": "view",
      "type": "function"
    },
    {
      "inputs": [],
      "name": "checkRewards",
      "outputs": [
        {
          "internalType": "uint256",
          "name": "",
          "type": "uint256"
        }
      ],
      "stateMutability": "view",
      "type": "function"
    },
    {
      "inputs": [],
      "name": "decimals",
      "outputs": [
        {
          "internalType": "uint8",
          "name": "decimals",
          "type": "uint8"
        }
      ],
      "stateMutability": "pure",
      "type": "function"
    },
    {
      "inputs": [
        {
          "internalType": "address",
          "name": "spender",
          "type": "address"
        },
        {
          "internalType": "uint256",
          "name": "subtractedValue",
          "type": "uint256"
        }
      ],
      "name": "decreaseAllowance",
      "outputs": [
        {
          "internalType": "bool",
          "name": "",
          "type": "bool"
        }
      ],
      "stateMutability": "nonpayable",
      "type": "function"
    },
    {
      "inputs": [
        {
          "internalType": "uint256",
          "name": "_amount",
          "type": "uint256"
        }
      ],
      "name": "deposit",
      "outputs": [],
      "stateMutability": "nonpayable",
      "type": "function"
    },
    {
      "inputs": [],
      "name": "depositIndex",
      "outputs": [
        {
          "internalType": "contract IIndex",
          "name": "",
          "type": "address"
        }
      ],
      "stateMutability": "view",
      "type": "function"
    },
    {
      "inputs": [],
      "name": "depositNativeToken",
      "outputs": [],
      "stateMutability": "payable",
      "type": "function"
    },
    {
      "inputs": [
        {
          "internalType": "uint256",
          "name": "_amount",
          "type": "uint256"
        },
        {
          "internalType": "address",
          "name": "_of",
          "type": "address"
        }
      ],
      "name": "depositOnBehalf",
      "outputs": [],
      "stateMutability": "nonpayable",
      "type": "function"
    },
    {
      "inputs": [
        {
          "internalType": "address",
          "name": "_user",
          "type": "address"
        }
      ],
      "name": "getBorrowed",
      "outputs": [
        {
          "internalType": "uint256",
          "name": "",
          "type": "uint256"
        }
      ],
      "stateMutability": "view",
      "type": "function"
    },
    {
      "inputs": [],
      "name": "getBorrowingRate",
      "outputs": [
        {
          "internalType": "uint256",
          "name": "",
          "type": "uint256"
        }
      ],
      "stateMutability": "view",
      "type": "function"
    },
    {
      "inputs": [],
      "name": "getDepositRate",
      "outputs": [
        {
          "internalType": "uint256",
          "name": "",
          "type": "uint256"
        }
      ],
      "stateMutability": "view",
      "type": "function"
    },
    {
      "inputs": [],
      "name": "getFullPoolStatus",
      "outputs": [
        {
          "internalType": "uint256[5]",
          "name": "",
          "type": "uint256[5]"
        }
      ],
      "stateMutability": "view",
      "type": "function"
    },
    {
      "inputs": [],
      "name": "getMaxPoolUtilisationForBorrowing",
      "outputs": [
        {
          "internalType": "uint256",
          "name": "",
          "type": "uint256"
        }
      ],
      "stateMutability": "view",
      "type": "function"
    },
    {
      "inputs": [],
      "name": "getRewards",
      "outputs": [],
      "stateMutability": "nonpayable",
      "type": "function"
    },
    {
      "inputs": [
        {
          "internalType": "address",
          "name": "spender",
          "type": "address"
        },
        {
          "internalType": "uint256",
          "name": "addedValue",
          "type": "uint256"
        }
      ],
      "name": "increaseAllowance",
      "outputs": [
        {
          "internalType": "bool",
          "name": "",
          "type": "bool"
        }
      ],
      "stateMutability": "nonpayable",
      "type": "function"
    },
    {
      "inputs": [
        {
          "internalType": "contract IRatesCalculator",
          "name": "ratesCalculator_",
          "type": "address"
        },
        {
          "internalType": "contract IBorrowersRegistry",
          "name": "borrowersRegistry_",
          "type": "address"
        },
        {
          "internalType": "contract IIndex",
          "name": "depositIndex_",
          "type": "address"
        },
        {
          "internalType": "contract IIndex",
          "name": "borrowIndex_",
          "type": "address"
        },
        {
          "internalType": "address payable",
          "name": "tokenAddress_",
          "type": "address"
        },
        {
          "internalType": "contract IPoolRewarder",
          "name": "poolRewarder_",
          "type": "address"
        },
        {
          "internalType": "uint256",
          "name": "_totalSupplyCap",
          "type": "uint256"
        }
      ],
      "name": "initialize",
      "outputs": [],
      "stateMutability": "nonpayable",
      "type": "function"
    },
    {
      "inputs": [],
      "name": "name",
      "outputs": [
        {
          "internalType": "string",
          "name": "_name",
          "type": "string"
        }
      ],
      "stateMutability": "pure",
      "type": "function"
    },
    {
      "inputs": [],
      "name": "owner",
      "outputs": [
        {
          "internalType": "address",
          "name": "",
          "type": "address"
        }
      ],
      "stateMutability": "view",
      "type": "function"
    },
    {
      "inputs": [],
      "name": "poolRewarder",
      "outputs": [
        {
          "internalType": "contract IPoolRewarder",
          "name": "",
          "type": "address"
        }
      ],
      "stateMutability": "view",
      "type": "function"
    },
    {
      "inputs": [],
      "name": "ratesCalculator",
      "outputs": [
        {
          "internalType": "contract IRatesCalculator",
          "name": "",
          "type": "address"
        }
      ],
      "stateMutability": "view",
      "type": "function"
    },
    {
      "inputs": [
        {
          "internalType": "uint256",
          "name": "amount",
          "type": "uint256"
        },
        {
          "internalType": "address",
          "name": "account",
          "type": "address"
        }
      ],
      "name": "recoverSurplus",
      "outputs": [],
      "stateMutability": "nonpayable",
      "type": "function"
    },
    {
      "inputs": [],
      "name": "renounceOwnership",
      "outputs": [],
      "stateMutability": "nonpayable",
      "type": "function"
    },
    {
      "inputs": [
        {
          "internalType": "uint256",
          "name": "amount",
          "type": "uint256"
        }
      ],
      "name": "repay",
      "outputs": [],
      "stateMutability": "nonpayable",
      "type": "function"
    },
    {
      "inputs": [
        {
          "internalType": "contract IBorrowersRegistry",
          "name": "borrowersRegistry_",
          "type": "address"
        }
      ],
      "name": "setBorrowersRegistry",
      "outputs": [],
      "stateMutability": "nonpayable",
      "type": "function"
    },
    {
      "inputs": [
        {
          "internalType": "contract IPoolRewarder",
          "name": "_poolRewarder",
          "type": "address"
        }
      ],
      "name": "setPoolRewarder",
      "outputs": [],
      "stateMutability": "nonpayable",
      "type": "function"
    },
    {
      "inputs": [
        {
          "internalType": "contract IRatesCalculator",
          "name": "ratesCalculator_",
          "type": "address"
        }
      ],
      "name": "setRatesCalculator",
      "outputs": [],
      "stateMutability": "nonpayable",
      "type": "function"
    },
    {
      "inputs": [
        {
          "internalType": "uint256",
          "name": "_newTotalSupplyCap",
          "type": "uint256"
        }
      ],
      "name": "setTotalSupplyCap",
      "outputs": [],
      "stateMutability": "nonpayable",
      "type": "function"
    },
    {
      "inputs": [
        {
          "internalType": "address",
          "name": "_distributor",
          "type": "address"
        }
      ],
      "name": "setVestingDistributor",
      "outputs": [],
      "stateMutability": "nonpayable",
      "type": "function"
    },
    {
      "inputs": [],
      "name": "symbol",
      "outputs": [
        {
          "internalType": "string",
          "name": "_symbol",
          "type": "string"
        }
      ],
      "stateMutability": "pure",
      "type": "function"
    },
    {
      "inputs": [],
      "name": "tokenAddress",
      "outputs": [
        {
          "internalType": "address payable",
          "name": "",
          "type": "address"
        }
      ],
      "stateMutability": "view",
      "type": "function"
    },
    {
      "inputs": [],
      "name": "totalBorrowed",
      "outputs": [
        {
          "internalType": "uint256",
          "name": "",
          "type": "uint256"
        }
      ],
      "stateMutability": "view",
      "type": "function"
    },
    {
      "inputs": [],
      "name": "totalSupply",
      "outputs": [
        {
          "internalType": "uint256",
          "name": "",
          "type": "uint256"
        }
      ],
      "stateMutability": "view",
      "type": "function"
    },
    {
      "inputs": [],
      "name": "totalSupplyCap",
      "outputs": [
        {
          "internalType": "uint256",
          "name": "",
          "type": "uint256"
        }
      ],
      "stateMutability": "view",
      "type": "function"
    },
    {
      "inputs": [
        {
          "internalType": "address",
          "name": "recipient",
          "type": "address"
        },
        {
          "internalType": "uint256",
          "name": "amount",
          "type": "uint256"
        }
      ],
      "name": "transfer",
      "outputs": [
        {
          "internalType": "bool",
          "name": "",
          "type": "bool"
        }
      ],
      "stateMutability": "nonpayable",
      "type": "function"
    },
    {
      "inputs": [
        {
          "internalType": "address",
          "name": "sender",
          "type": "address"
        },
        {
          "internalType": "address",
          "name": "recipient",
          "type": "address"
        },
        {
          "internalType": "uint256",
          "name": "amount",
          "type": "uint256"
        }
      ],
      "name": "transferFrom",
      "outputs": [
        {
          "internalType": "bool",
          "name": "",
          "type": "bool"
        }
      ],
      "stateMutability": "nonpayable",
      "type": "function"
    },
    {
      "inputs": [
        {
          "internalType": "address",
          "name": "newOwner",
          "type": "address"
        }
      ],
      "name": "transferOwnership",
      "outputs": [],
      "stateMutability": "nonpayable",
      "type": "function"
    },
    {
      "inputs": [],
      "name": "vestingDistributor",
      "outputs": [
        {
          "internalType": "contract VestingDistributor",
          "name": "",
          "type": "address"
        }
      ],
      "stateMutability": "view",
      "type": "function"
    },
    {
      "inputs": [
        {
          "internalType": "uint256",
          "name": "_amount",
          "type": "uint256"
        }
      ],
      "name": "withdraw",
      "outputs": [],
      "stateMutability": "nonpayable",
      "type": "function"
    },
    {
      "inputs": [
        {
          "internalType": "uint256",
          "name": "_amount",
          "type": "uint256"
        }
      ],
      "name": "withdrawNativeToken",
      "outputs": [],
      "stateMutability": "nonpayable",
      "type": "function"
    },
    {
      "stateMutability": "payable",
      "type": "receive"
    }
  ],
  "transactionHash": "0xf75d1b9b4cfac9e1627d6ba405fbf5d94029b4b76770145159a68a277b590391",
  "args": [],
  "numDeployments": 3,
  "solcInputHash": "6075c0c4c449f9d9788b3213b6c2ddaa",
  "bytecode": "0x608060405234801561001057600080fd5b506135dd806100206000396000f3fe6080604052600436106102765760003560e01c806370a082311161014f578063aa5af0fd116100c1578063d06dca891161007a578063d06dca8914610771578063dd62ed3e14610791578063ee61bd6e146107d7578063f2fde38b146107f7578063f36b242514610817578063fc68f6611461082c57600080fd5b8063aa5af0fd146106c4578063b6b55f25146106e4578063b75c42bd14610704578063b790634e14610726578063bb102aea1461073b578063c5ebeaec1461075157600080fd5b80638c1a3811116101135780638c1a3811146105f65780638da5cb5b1461061657806395d89b41146106345780639d76ea5814610664578063a457c2d714610684578063a9059cbb146106a457600080fd5b806370a082311461058257806370d4cea0146105a2578063715018a6146105c257806379433d8b146105ce5780637b898939146105d657600080fd5b80632aeaa291116101e857806339509351116101ac57806339509351146104d25780634c19386c146104f25780636011163e1461050757806361215aa8146105275780636ca6d5d0146105425780636cf55ea21461056257600080fd5b80632aeaa291146104415780632e1a7d4d14610456578063313ce5671461047657806331d05b1114610492578063371fd8e6146104b257600080fd5b8063095ea7b31161023a578063095ea7b31461037c5780631457db34146103ac5780631460e390146103cc57806317e0f252146103ec57806318160ddd1461040c57806323b872dd1461042157600080fd5b80630572b0cc1461028257806306fdde03146102995780630790ef9a146102e957806307bbebdd146103095780630941cb3d1461034157600080fd5b3661027d57005b600080fd5b34801561028e57600080fd5b5061029761084c565b005b3480156102a557600080fd5b50604080518082019091526015815274088cad8e8c2a0e4d2dacaaee4c2e0e0cac882ac82b605b1b60208201525b6040516102e091906131da565b60405180910390f35b3480156102f557600080fd5b50610297610304366004613222565b6108ab565b34801561031557600080fd5b5060a154610329906001600160a01b031681565b6040516001600160a01b0390911681526020016102e0565b34801561034d57600080fd5b5061036e61035c366004613252565b609a6020526000908152604090205481565b6040519081526020016102e0565b34801561038857600080fd5b5061039c61039736600461326f565b6109f3565b60405190151581526020016102e0565b3480156103b857600080fd5b506102976103c7366004613252565b610a81565b3480156103d857600080fd5b506102976103e736600461329b565b610b4d565b3480156103f857600080fd5b50610297610407366004613328565b610db9565b34801561041857600080fd5b5061036e611003565b34801561042d57600080fd5b5061039c61043c366004613341565b611013565b34801561044d57600080fd5b5061036e61133f565b34801561046257600080fd5b50610297610471366004613328565b6113ab565b34801561048257600080fd5b50604051601281526020016102e0565b34801561049e57600080fd5b506102976104ad366004613328565b6114e5565b3480156104be57600080fd5b506102976104cd366004613328565b611514565b3480156104de57600080fd5b5061039c6104ed36600461326f565b611606565b3480156104fe57600080fd5b5061036e6116c5565b34801561051357600080fd5b5061036e610522366004613252565b6116cc565b34801561053357600080fd5b50670c7d713b49da000061036e565b34801561054e57600080fd5b50609d54610329906001600160a01b031681565b34801561056e57600080fd5b5061029761057d366004613222565b611757565b34801561058e57600080fd5b5061036e61059d366004613252565b611a0b565b3480156105ae57600080fd5b506102976105bd366004613252565b611a59565b34801561029757600080fd5b610297611b34565b3480156105e257600080fd5b50609e54610329906001600160a01b031681565b34801561060257600080fd5b50610297610611366004613252565b611cf4565b34801561062257600080fd5b506033546001600160a01b0316610329565b34801561064057600080fd5b50604080518082019091526007815266088a0ae82ac82b60cb1b60208201526102d3565b34801561067057600080fd5b5060a054610329906001600160a01b031681565b34801561069057600080fd5b5061039c61069f36600461326f565b611db5565b3480156106b057600080fd5b5061039c6106bf36600461326f565b611ea1565b3480156106d057600080fd5b50609f54610329906001600160a01b031681565b3480156106f057600080fd5b506102976106ff366004613328565b612113565b34801561071057600080fd5b50610719612120565b6040516102e09190613382565b34801561073257600080fd5b5061036e612177565b34801561074757600080fd5b5061036e60975481565b34801561075d57600080fd5b5061029761076c366004613328565b6121c4565b34801561077d57600080fd5b50609c54610329906001600160a01b031681565b34801561079d57600080fd5b5061036e6107ac3660046133b3565b6001600160a01b03918216600090815260986020908152604080832093909416825291909152205490565b3480156107e357600080fd5b50609b54610329906001600160a01b031681565b34801561080357600080fd5b50610297610812366004613252565b612448565b34801561082357600080fd5b5061036e6124e0565b34801561083857600080fd5b50610297610847366004613252565b6124fc565b609d546040516311305c1f60e11b81523360048201526001600160a01b0390911690632260b83e90602401600060405180830381600087803b15801561089157600080fd5b505af11580156108a5573d6000803e3d6000fd5b50505050565b6033546001600160a01b031633146108de5760405162461bcd60e51b81526004016108d5906133e1565b60405180910390fd5b6002606554036109005760405162461bcd60e51b81526004016108d590613416565b600260655560a0546040516370a0823160e01b81523060048201526000916001600160a01b0316906370a0823190602401602060405180830381865afa15801561094e573d6000803e3d6000fd5b505050506040513d601f19601f82011682018060405250810190610972919061344d565b9050600061097e611003565b6109866116c5565b610990908461347c565b61099a919061348f565b9050818411156109bd576040516316d5c93f60e21b815260040160405180910390fd5b838110156109de576040516394290ab960e01b815260040160405180910390fd5b6109e883856125a7565b505060016065555050565b60006001600160a01b038316610a1c57604051633d6601c760e11b815260040160405180910390fd5b3360008181526098602090815260408083206001600160a01b03881680855290835292819020869055518581529192917f8c5be1e5ebec7d5bd14f71427d1e84f3dd0314c0f7b2291e5b200ac8c7c3b925910160405180910390a35060015b92915050565b6033546001600160a01b03163314610aab5760405162461bcd60e51b81526004016108d5906133e1565b6001600160a01b0381163b158015610acb57506001600160a01b03811615155b15610af857609d546040516322a2d07b60e21b81526001600160a01b0390911660048201526024016108d5565b609d80546001600160a01b0319166001600160a01b0383169081179091556040514281527f85796821ee1d670b0fdb986f256b5c1a29b9019038831c7f09df2061879cf9e5906020015b60405180910390a250565b600054610100900460ff16610b685760005460ff1615610b6c565b303b155b610bcf5760405162461bcd60e51b815260206004820152602e60248201527f496e697469616c697a61626c653a20636f6e747261637420697320616c72656160448201526d191e481a5b9a5d1a585b1a5e995960921b60648201526084016108d5565b600054610100900460ff16158015610bf1576000805461ffff19166101011790555b6001600160a01b0388163b15158015610c1357506001600160a01b0387163b15155b8015610c2857506001600160a01b0386163b15155b8015610c3d57506001600160a01b0385163b15155b8015610c6357506001600160a01b0383163b151580610c6357506001600160a01b038316155b610ca65760405162461bcd60e51b815260206004820152601460248201527357726f6e6720696e697420617267756d656e747360601b60448201526064016108d5565b609c80546001600160a01b03199081166001600160a01b038a811691909117909255609b805482168b8416179055609e80548216898416179055609f80548216888416179055609d8054821686841617905560a08054909116918616918217905560978390556040805163313ce56760e01b8152905163313ce567916004818101926020929091908290030181865afa158015610d47573d6000803e3d6000fd5b505050506040513d601f19601f82011682018060405250810190610d6b91906134a2565b60a160146101000a81548160ff021916908360ff160217905550610d8d6125c2565b610d956125f1565b610d9d612620565b8015610daf576000805461ff00191690555b5050505050505050565b600260655403610ddb5760405162461bcd60e51b81526004016108d590613416565b600260655560a0546040516370a0823160e01b81523060048201526001600160a01b03909116906370a0823190602401602060405180830381865afa158015610e28573d6000803e3d6000fd5b505050506040513d601f19601f82011682018060405250810190610e4c919061344d565b811115610e6c576040516316d5c93f60e21b815260040160405180910390fd5b610e7533612805565b30600090815260996020526040902054811115610ea557604051630bba337f60e11b815260040160405180910390fd5b30600090815260996020526040902080548290039055610ec53382612936565b610ecd612620565b60a054604051632e1a7d4d60e01b8152600481018390526001600160a01b0390911690632e1a7d4d90602401600060405180830381600087803b158015610f1357600080fd5b505af1158015610f27573d6000803e3d6000fd5b50610f3892503391508390506129f3565b609d546001600160a01b031615610fc057609d54604051630d5dbdb360e21b8152600481018390523360248201526001600160a01b0390911690633576f6cc906044016020604051808303816000875af1158015610f9a573d6000803e3d6000fd5b505050506040513d601f19601f82011682018060405250810190610fbe919061344d565b505b6040805182815242602082015233917fdf273cb619d95419a9cd0ec88123a0538c85064229baa6363788f743fff90deb91015b60405180910390a2506001606555565b600061100e30611a0b565b905090565b60006002606554036110375760405162461bcd60e51b81526004016108d590613416565b60026065556001600160a01b03841660009081526098602090815260408083203384529091529020548211156110b0576001600160a01b03841660009081526098602090815260408083203384529091529081902054905163054365bb60e31b81526108d5918491600401918252602082015260400190565b6001600160a01b0383166110d757604051633a954ecd60e21b815260040160405180910390fd5b306001600160a01b038416036111005760405163ed728e5760e01b815260040160405180910390fd5b61110984612805565b60008061111586612ad2565b9150915080841115611144576040516350d2479d60e11b815260048101859052602481018290526044016108d5565b61114f868584612c19565b6001600160a01b0386166000908152609960205260408120805486929061117790849061348f565b90915550506001600160a01b0386166000908152609860209081526040808320338452909152812080548692906111af90849061348f565b909155506111be905085612805565b6001600160a01b038516600090815260996020526040812080548692906111e690849061347c565b9091555050609d546001600160a01b03161580159061120457508315155b156112f257609d54604051630d5dbdb360e21b8152600481018690526001600160a01b0388811660248301526000921690633576f6cc906044016020604051808303816000875af115801561125d573d6000803e3d6000fd5b505050506040513d601f19601f82011682018060405250810190611281919061344d565b905080156112f057609d546040516328ba35d960e11b8152600481018390526001600160a01b038881166024830152909116906351746bb290604401600060405180830381600087803b1580156112d757600080fd5b505af11580156112eb573d6000803e3d6000fd5b505050505b505b846001600160a01b0316866001600160a01b03166000805160206135888339815191528660405161132591815260200190565b60405180910390a360019250505060016065559392505050565b609d546040516246613160e11b81523360048201526000916001600160a01b031690628cc262906024015b602060405180830381865afa158015611387573d6000803e3d6000fd5b505050506040513d601f19601f8201168201806040525081019061100e919061344d565b6002606554036113cd5760405162461bcd60e51b81526004016108d590613416565b60026065556113db33612805565b336000908152609960205260409020546113f6908290612cd3565b60a0546040516370a0823160e01b81523060048201529192506001600160a01b0316906370a0823190602401602060405180830381865afa15801561143f573d6000803e3d6000fd5b505050506040513d601f19601f82011682018060405250810190611463919061344d565b811115611483576040516316d5c93f60e21b815260040160405180910390fd5b306000908152609960205260409020548111156114b357604051630bba337f60e11b815260040160405180910390fd5b306000908152609960205260409020805482900390556114d33382612936565b6114db612620565b610f3833826125a7565b6033546001600160a01b0316331461150f5760405162461bcd60e51b81526004016108d5906133e1565b609755565b6002606554036115365760405162461bcd60e51b81526004016108d590613416565b600260655561154433612ceb565b336000908152609a602052604090205481111561157457604051630dcad43360e11b815260040160405180910390fd5b61157e3382612de9565b336000908152609a60205260408120805483929061159d90849061348f565b9091555050306000908152609a6020526040812080548392906115c190849061348f565b909155506115cf9050612620565b6040805182815242602082015233917f24fcca58a997b1b2eff6db8107e860458544c09ddd3693b3b779e1df6c0d6c5d9101610ff3565b60006001600160a01b03831661162f57604051633d6601c760e11b815260040160405180910390fd5b3360009081526098602090815260408083206001600160a01b038716845290915281205461165e90849061347c565b3360008181526098602090815260408083206001600160a01b038a16808552908352928190208590555184815293945090927f8c5be1e5ebec7d5bd14f71427d1e84f3dd0314c0f7b2291e5b200ac8c7c3b925910160405180910390a35060019392505050565b600061100e305b609f546001600160a01b038281166000818152609a602052604080822054905163966da88960e01b81526004810191909152602481019290925292919091169063966da889906044015b602060405180830381865afa158015611733573d6000803e3d6000fd5b505050506040513d601f19601f82011682018060405250810190610a7b919061344d565b6002606554036117795760405162461bcd60e51b81526004016108d590613416565b600260655560008290036117a05760405163078e1d8560e01b815260040160405180910390fd5b6001600160a01b0381166117e55760405162461bcd60e51b815260206004820152600c60248201526b41646472657373207a65726f60a01b60448201526064016108d5565b306001600160a01b0382160361183d5760405162461bcd60e51b815260206004820181905260248201527f43616e6e6f74206465706f736974206f6e20626568616c66206f6620706f6f6c60448201526064016108d5565b60a0546040516370a0823160e01b81523360048201526118b49184916001600160a01b03909116906370a0823190602401602060405180830381865afa15801561188b573d6000803e3d6000fd5b505050506040513d601f19601f820116820180604052508101906118af919061344d565b612cd3565b91506118bf81612805565b6097541561190457609754306000908152609960205260409020546118e590849061347c565b111561190457604051633f27d61760e01b815260040160405180910390fd5b61190e3383612de9565b6119188183612e01565b306000908152609960205260408120805484929061193790849061347c565b909155506119459050612620565b609d546001600160a01b0316156119bd57609d546040516328ba35d960e11b8152600481018490526001600160a01b038381166024830152909116906351746bb290604401600060405180830381600087803b1580156119a457600080fd5b505af11580156119b8573d6000803e3d6000fd5b505050505b604080518381524260208201526001600160a01b0383169133917fef0ada5ca19bede6a40b575865a6ce451938d26835b7215e6a5e03bb2c439212910160405180910390a350506001606555565b609e546001600160a01b0382811660008181526099602052604080822054905163966da88960e01b81526004810191909152602481019290925292919091169063966da88990604401611716565b6033546001600160a01b03163314611a835760405162461bcd60e51b81526004016108d5906133e1565b6001600160a01b0381163b158015611aa357506001600160a01b03811615155b15611acc576040516322a2d07b60e21b81526001600160a01b03821660048201526024016108d5565b609b80546001600160a01b0319166001600160a01b03831690811790915515611af757611af7612620565b806001600160a01b03167fef1b7e9216e08b283cc613824ccb26ea505227777839a4f3c6810d64594e018242604051610b4291815260200190565b565b34600003611b555760405163078e1d8560e01b815260040160405180910390fd5b611b5e33612805565b60975415611ba35760975430600090815260996020526040902054611b8490349061347c565b1115611ba357604051633f27d61760e01b815260040160405180910390fd5b60a060009054906101000a90046001600160a01b03166001600160a01b031663d0e30db0346040518263ffffffff1660e01b81526004016000604051808303818588803b158015611bf357600080fd5b505af1158015611c07573d6000803e3d6000fd5b5050505050611c163334612e01565b3060009081526099602052604081208054349290611c3590849061347c565b90915550611c439050612620565b609d546001600160a01b031615611cb857609d546040516328ba35d960e11b81523460048201523360248201526001600160a01b03909116906351746bb290604401600060405180830381600087803b158015611c9f57600080fd5b505af1158015611cb3573d6000803e3d6000fd5b505050505b6040805134815242602082015233917f90890809c654f11d6e72a28fa60149770a0d11ec6c92319d6ceb2bb0a4ea1a15910160405180910390a2565b6033546001600160a01b03163314611d1e5760405162461bcd60e51b81526004016108d5906133e1565b6001600160a01b0381163b158015611d3e57506001600160a01b03811615155b15611d67576040516322a2d07b60e21b81526001600160a01b03821660048201526024016108d5565b60a180546001600160a01b0319166001600160a01b0383169081179091556040514281527f8e6481d1924c9bb8cdfd9d6140f3e5570c34c6c580d915144728bbbf394eed0a90602001610b42565b60006001600160a01b038316611dde57604051633d6601c760e11b815260040160405180910390fd5b3360009081526098602090815260408083206001600160a01b038716845290915290205482811015611e2d5760405163054365bb60e31b815260048101849052602481018290526044016108d5565b6000611e39848361348f565b3360008181526098602090815260408083206001600160a01b038b16808552908352928190208590555184815293945090927f8c5be1e5ebec7d5bd14f71427d1e84f3dd0314c0f7b2291e5b200ac8c7c3b925910160405180910390a3506001949350505050565b6000600260655403611ec55760405162461bcd60e51b81526004016108d590613416565b60026065556001600160a01b038316611ef157604051633a954ecd60e21b815260040160405180910390fd5b306001600160a01b03841603611f1a5760405163ed728e5760e01b815260040160405180910390fd5b33611f2481612805565b600080611f3083612ad2565b9150915080851115611f5f576040516350d2479d60e11b815260048101869052602481018290526044016108d5565b611f6a838684612c19565b6001600160a01b038316600090815260996020526040902080548690039055611f9286612805565b6001600160a01b03861660009081526099602052604081208054879290611fba90849061347c565b9091555050609d546001600160a01b031615801590611fd857508415155b156120c657609d54604051630d5dbdb360e21b8152600481018790526001600160a01b0385811660248301526000921690633576f6cc906044016020604051808303816000875af1158015612031573d6000803e3d6000fd5b505050506040513d601f19601f82011682018060405250810190612055919061344d565b905080156120c457609d546040516328ba35d960e11b8152600481018390526001600160a01b038981166024830152909116906351746bb290604401600060405180830381600087803b1580156120ab57600080fd5b505af11580156120bf573d6000803e3d6000fd5b505050505b505b856001600160a01b0316836001600160a01b0316600080516020613588833981519152876040516120f991815260200190565b60405180910390a360019350505050600160655592915050565b61211d8133611757565b50565b612128613198565b6040518060a0016040528061213b611003565b8152602001612148612177565b81526020016121556124e0565b81526020016121626116c5565b8152602001670c7d713b49da00009052919050565b609b546000906001600160a01b0316637cd083316121936116c5565b61219b611003565b6040516001600160e01b031960e085901b1681526004810192909252602482015260440161136a565b609c546001600160a01b03166121ed57604051631c038dab60e21b815260040160405180910390fd5b609c5460405163039ff21960e21b81523360048201526001600160a01b0390911690630e7fc86490602401602060405180830381865afa158015612235573d6000803e3d6000fd5b505050506040513d601f19601f8201168201806040525081019061225991906134c5565b61227657604051637582fa9b60e11b815260040160405180910390fd5b61227e611003565b60000361229e576040516316d5c93f60e21b815260040160405180910390fd5b6002606554036122c05760405162461bcd60e51b81526004016108d590613416565b600260655560a0546040516370a0823160e01b81523060048201526001600160a01b03909116906370a0823190602401602060405180830381865afa15801561230d573d6000803e3d6000fd5b505050506040513d601f19601f82011682018060405250810190612331919061344d565b811115612351576040516316d5c93f60e21b815260040160405180910390fd5b61235a33612ceb565b336000908152609a60205260408120805483929061237990849061347c565b9091555050306000908152609a60205260408120805483929061239d90849061347c565b909155506123ad905033826125a7565b6123b5612620565b6040805182815242602082015233917fd6b37be10b58108f696d9ed067fedad0bff7cb417ef4c28d2f8a25d6d83c98d5910160405180910390a26001606555670c7d713b49da0000612405611003565b61240d6116c5565b61241f90670de0b6b3a76400006134e7565b61242991906134fe565b111561211d576040516372b9ce3f60e11b815260040160405180910390fd5b6033546001600160a01b031633146124725760405162461bcd60e51b81526004016108d5906133e1565b6001600160a01b0381166124d75760405162461bcd60e51b815260206004820152602660248201527f4f776e61626c653a206e6577206f776e657220697320746865207a65726f206160448201526564647265737360d01b60648201526084016108d5565b61211d81612e88565b609b546000906001600160a01b031663df841eec6121936116c5565b6033546001600160a01b031633146125265760405162461bcd60e51b81526004016108d5906133e1565b6001600160a01b0381163b612559576040516322a2d07b60e21b81526001600160a01b03821660048201526024016108d5565b609c80546001600160a01b0319166001600160a01b0383169081179091556040514281527f04dce7d074f7e287a2e6e3516c802271d58d5c14e0dede83a49719eb6b92046990602001610b42565b60a0546125be906001600160a01b03168383612eda565b5050565b600054610100900460ff166125e95760405162461bcd60e51b81526004016108d590613520565b611b32613004565b600054610100900460ff166126185760405162461bcd60e51b81526004016108d590613520565b611b32613034565b600061262a6116c5565b90506000612636611003565b609b549091506001600160a01b03166126625760405163fd4851e960e01b815260040160405180910390fd5b609e54609b54604051637cd0833160e01b815260048101859052602481018490526001600160a01b03928316926334fcf437921690637cd0833190604401602060405180830381865afa1580156126bd573d6000803e3d6000fd5b505050506040513d601f19601f820116820180604052508101906126e1919061344d565b6040518263ffffffff1660e01b81526004016126ff91815260200190565b600060405180830381600087803b15801561271957600080fd5b505af115801561272d573d6000803e3d6000fd5b5050609f54609b546040516337e107bb60e21b815260048101879052602481018690526001600160a01b0392831694506334fcf437935091169063df841eec90604401602060405180830381865afa15801561278d573d6000803e3d6000fd5b505050506040513d601f19601f820116820180604052508101906127b1919061344d565b6040518263ffffffff1660e01b81526004016127cf91815260200190565b600060405180830381600087803b1580156127e957600080fd5b505af11580156127fd573d6000803e3d6000fd5b505050505050565b6001600160a01b03811660009081526099602052604081205461282783611a0b565b612831919061348f565b905061283d8282612e01565b61284630611a0b565b306000908152609960205260409081902091909155516001600160a01b038316907f9bbd517758fbae61197f1c1c04c8614064e89512dbaf4350dcdf76fcaa5e21619061289f9084904290918252602082015260400190565b60405180910390a2609e54604051637681d99b60e11b81526001600160a01b0384811660048301529091169063ed03b33690602401600060405180830381600087803b1580156128ee57600080fd5b505af1158015612902573d6000803e3d6000fd5b5050609e54604051637681d99b60e11b81523060048201526001600160a01b03909116925063ed03b33691506024016127cf565b6001600160a01b03821660009081526099602052604090205481111561296f57604051630bba337f60e11b815260040160405180910390fd5b60008061297b84612ad2565b91509150808311156129a05760405163a06a83a160e01b815260040160405180910390fd5b6129ab848484612c19565b6001600160a01b03841660008181526099602090815260408083208054889003905551868152919291600080516020613588833981519152910160405180910390a350505050565b604080516000808252602082019092526001600160a01b038416908390604051612a1d919061356b565b60006040518083038185875af1925050503d8060008114612a5a576040519150601f19603f3d011682016040523d82523d6000602084013e612a5f565b606091505b5050905080612acd5760405162461bcd60e51b815260206004820152603460248201527f5472616e7366657248656c7065723a3a736166655472616e736665724554483a60448201527308115512081d1c985b9cd9995c8819985a5b195960621b60648201526084016108d5565b505050565b60a15460009081906001600160a01b031615612bfa5760a15460405163cbf9fe5f60e01b81526001600160a01b0385811660048301529091169063cbf9fe5f90602401602060405180830381865afa158015612b32573d6000803e3d6000fd5b505050506040513d601f19601f82011682018060405250810190612b56919061344d565b60a15460405163512edc6760e11b81526001600160a01b03868116600483015292945091169063a25db8ce90602401602060405180830381865afa158015612ba2573d6000803e3d6000fd5b505050506040513d601f19601f82011682018060405250810190612bc6919061344d565b612bd0908361348f565b6001600160a01b038416600090815260996020526040902054612bf3919061348f565b9050915091565b506001600160a01b038216600090815260996020526040902054915091565b6001600160a01b038316600090815260996020526040812054612c3d90839061348f565b90508083118015612c58575060a1546001600160a01b031615155b156108a55760a1546001600160a01b03166349c1de3f85612c79848761348f565b6040516001600160e01b031960e085901b1681526001600160a01b0390921660048301526024820152604401600060405180830381600087803b158015612cbf57600080fd5b505af1158015610daf573d6000803e3d6000fd5b6000818310612ce25781612ce4565b825b9392505050565b612cf4816116cc565b6001600160a01b0382166000908152609a6020526040902055612d16306116cc565b306000908152609a60205260409081902091909155609f549051637681d99b60e11b81526001600160a01b0383811660048301529091169063ed03b33690602401600060405180830381600087803b158015612d7157600080fd5b505af1158015612d85573d6000803e3d6000fd5b5050609f54604051637681d99b60e11b81523060048201526001600160a01b03909116925063ed03b3369150602401600060405180830381600087803b158015612dce57600080fd5b505af1158015612de2573d6000803e3d6000fd5b5050505050565b60a0546125be906001600160a01b0316833084613062565b6001600160a01b038216612e28576040516346dbfb6d60e11b815260040160405180910390fd5b6001600160a01b03821660009081526099602052604081208054839290612e5090849061347c565b90915550506040518181526001600160a01b038316906000906000805160206135888339815191529060200160405180910390a35050565b603380546001600160a01b038381166001600160a01b0319831681179093556040519116919082907f8be0079c531659141344cd1fd0a4f28419497f9722a3daafe3b4186f6b6457e090600090a35050565b604080516001600160a01b038481166024830152604480830185905283518084039091018152606490920183526020820180516001600160e01b031663a9059cbb60e01b1790529151600092839290871691612f36919061356b565b6000604051808303816000865af19150503d8060008114612f73576040519150601f19603f3d011682016040523d82523d6000602084013e612f78565b606091505b5091509150818015612fa2575080511580612fa2575080806020019051810190612fa291906134c5565b612de25760405162461bcd60e51b815260206004820152602d60248201527f5472616e7366657248656c7065723a3a736166655472616e736665723a20747260448201526c185b9cd9995c8819985a5b1959609a1b60648201526084016108d5565b600054610100900460ff1661302b5760405162461bcd60e51b81526004016108d590613520565b611b3233612e88565b600054610100900460ff1661305b5760405162461bcd60e51b81526004016108d590613520565b6001606555565b604080516001600160a01b0385811660248301528481166044830152606480830185905283518084039091018152608490920183526020820180516001600160e01b03166323b872dd60e01b17905291516000928392908816916130c6919061356b565b6000604051808303816000865af19150503d8060008114613103576040519150601f19603f3d011682016040523d82523d6000602084013e613108565b606091505b509150915081801561313257508051158061313257508080602001905181019061313291906134c5565b6127fd5760405162461bcd60e51b815260206004820152603160248201527f5472616e7366657248656c7065723a3a7472616e7366657246726f6d3a207472604482015270185b9cd9995c919c9bdb4819985a5b1959607a1b60648201526084016108d5565b6040518060a001604052806005906020820280368337509192915050565b60005b838110156131d15781810151838201526020016131b9565b50506000910152565b60208152600082518060208401526131f98160408501602087016131b6565b601f01601f19169190910160400192915050565b6001600160a01b038116811461211d57600080fd5b6000806040838503121561323557600080fd5b8235915060208301356132478161320d565b809150509250929050565b60006020828403121561326457600080fd5b8135612ce48161320d565b6000806040838503121561328257600080fd5b823561328d8161320d565b946020939093013593505050565b600080600080600080600060e0888a0312156132b657600080fd5b87356132c18161320d565b965060208801356132d18161320d565b955060408801356132e18161320d565b945060608801356132f18161320d565b935060808801356133018161320d565b925060a08801356133118161320d565b8092505060c0880135905092959891949750929550565b60006020828403121561333a57600080fd5b5035919050565b60008060006060848603121561335657600080fd5b83356133618161320d565b925060208401356133718161320d565b929592945050506040919091013590565b60a08101818360005b60058110156133aa57815183526020928301929091019060010161338b565b50505092915050565b600080604083850312156133c657600080fd5b82356133d18161320d565b915060208301356132478161320d565b6020808252818101527f4f776e61626c653a2063616c6c6572206973206e6f7420746865206f776e6572604082015260600190565b6020808252601f908201527f5265656e7472616e637947756172643a207265656e7472616e742063616c6c00604082015260600190565b60006020828403121561345f57600080fd5b5051919050565b634e487b7160e01b600052601160045260246000fd5b80820180821115610a7b57610a7b613466565b81810381811115610a7b57610a7b613466565b6000602082840312156134b457600080fd5b815160ff81168114612ce457600080fd5b6000602082840312156134d757600080fd5b81518015158114612ce457600080fd5b8082028115828204841417610a7b57610a7b613466565b60008261351b57634e487b7160e01b600052601260045260246000fd5b500490565b6020808252602b908201527f496e697469616c697a61626c653a20636f6e7472616374206973206e6f74206960408201526a6e697469616c697a696e6760a81b606082015260800190565b6000825161357d8184602087016131b6565b919091019291505056feddf252ad1be2c89b69c2b068fc378daa952ba7f163c4a11628f55a4df523b3efa264697066735822122014e0afc7aa9d1861c82cd0f3453c687e323712a8818cad162f610589dfe49d2864736f6c63430008110033",
  "devdoc": {
    "details": "Contract allowing user to deposit to and borrow WAVAX from a dedicated user account",
    "errors": {
      "InsufficientAllowance(uint256,uint256)": [
        {
          "params": {
            "allowance": "current allowance",
            "requested": "requested transfer amount"
          }
        }
      ],
      "TransferAmountExceedsBalance(uint256,uint256)": [
        {
          "params": {
            "amount": "transfer amount",
            "balance": "available balance"
          }
        }
      ]
    },
    "kind": "dev",
    "methods": {
      "allowance(address,address)": {
        "details": "Returns the remaining number of tokens that `spender` will be allowed to spend on behalf of `owner` through {transferFrom}. This is zero by default. This value changes when {approve} or {transferFrom} are called."
      },
      "approve(address,uint256)": {
        "details": "Sets `amount` as the allowance of `spender` over the caller's tokens. Returns a boolean value indicating whether the operation succeeded. IMPORTANT: Beware that changing an allowance with this method brings the risk that someone may use both the old and the new allowance by unfortunate transaction ordering. One possible solution to mitigate this race condition is to first reduce the spender's allowance to 0 and set the desired value afterwards: https://github.com/ethereum/EIPs/issues/20#issuecomment-263524729 Emits an {Approval} event."
      },
      "balanceOf(address)": {
        "details": "_user the address of queried depositor*"
      },
      "borrow(uint256)": {
        "details": "_amount the amount to be borrowedIt is only meant to be used by a SmartLoanDiamondProxy*"
      },
      "owner()": {
        "details": "Returns the address of the current owner."
      },
      "renounceOwnership()": {
        "details": "Leaves the contract without owner. It will not be possible to call `onlyOwner` functions anymore. Can only be called by the current owner. NOTE: Renouncing ownership will leave the contract without an owner, thereby removing any functionality that is only available to the owner."
      },
      "repay(uint256)": {
        "details": "It is only meant to be used by a SmartLoanDiamondProxy*"
      },
      "setBorrowersRegistry(address)": {
        "details": "borrowersRegistry the address of borrowers registry*"
      },
      "setPoolRewarder(address)": {
        "details": "_poolRewarder the address of PoolRewarder*"
      },
      "setRatesCalculator(address)": {
        "details": "ratesCalculator the address of rates calculator*"
      },
      "setTotalSupplyCap(uint256)": {
        "details": "_newTotalSupplyCap new deposit cap*"
      },
      "setVestingDistributor(address)": {
        "details": "_poolRewarder the address of PoolRewarder*"
      },
      "totalSupply()": {
        "details": "Returns the amount of tokens in existence."
      },
      "transferOwnership(address)": {
        "details": "Transfers ownership of the contract to a new account (`newOwner`). Can only be called by the current owner."
      },
      "withdraw(uint256)": {
        "details": "_amount the amount to be withdrawn*"
      },
      "withdrawNativeToken(uint256)": {
        "details": "_amount the amount to be withdrawn*"
      }
    },
    "title": "WavaxPool",
    "version": 1
  },
  "userdoc": {
    "kind": "user",
    "methods": {
      "balanceOf(address)": {
        "notice": "Returns the current deposited amount for the given user The value includes the interest rates earned at the current moment"
      },
      "borrow(uint256)": {
        "notice": "Borrows the specified amount It updates user borrowed balance, total borrowed amount and rates"
      },
      "deposit(uint256)": {
        "notice": "Deposits the amount It updates user deposited balance, total deposited and rates*"
      },
      "depositNativeToken()": {
        "notice": "Wraps and deposits amount attached to the transaction*"
      },
      "depositOnBehalf(uint256,address)": {
        "notice": "Deposits the amount on behalf of `_of` user. It updates `_of` user deposited balance, total deposited and rates*"
      },
      "getBorrowingRate()": {
        "notice": "Returns the current interest rate for borrowings*"
      },
      "getDepositRate()": {
        "notice": "Returns the current interest rate for deposits*"
      },
      "getFullPoolStatus()": {
        "notice": "Returns full pool status"
      },
      "recoverSurplus(uint256,address)": {
        "notice": "Recovers the surplus funds resultant from difference between deposit and borrowing rates*"
      },
      "repay(uint256)": {
        "notice": "Repays the amount It updates user borrowed balance, total borrowed amount and rates"
      },
      "setBorrowersRegistry(address)": {
        "notice": "Sets the new borrowers registry contract. The borrowers registry decides if an account can borrow funds. Only the owner of the Contract can execute this function."
      },
      "setPoolRewarder(address)": {
        "notice": "Sets the new Pool Rewarder. The IPoolRewarder that distributes additional token rewards to people having a stake in this pool proportionally to their stake and time of participance. Only the owner of the Contract can execute this function."
      },
      "setRatesCalculator(address)": {
        "notice": "Sets the new rate calculator. The calculator is an external contract that contains the logic for calculating deposit and borrowing rates. Only the owner of the Contract can execute this function."
      },
      "setTotalSupplyCap(uint256)": {
        "notice": "Sets new totalSupplyCap limiting how much in total can be deposited to the Pool. Only the owner of the Contract can execute this function."
      },
      "setVestingDistributor(address)": {
        "notice": "Sets the new Pool Rewarder. The IPoolRewarder that distributes additional token rewards to people having a stake in this pool proportionally to their stake and time of participance. Only the owner of the Contract can execute this function."
      },
      "withdraw(uint256)": {
        "notice": "Withdraws selected amount from the user deposits"
      },
      "withdrawNativeToken(uint256)": {
        "notice": "Unwraps and withdraws selected amount from the user deposits"
      }
    },
    "version": 1
  },
  "storageLayout": {
    "storage": [
      {
        "astId": 130,
        "contract": "contracts/deployment/avalanche/WavaxPool.sol:WavaxPool",
        "label": "_initialized",
        "offset": 0,
        "slot": "0",
        "type": "t_bool"
      },
      {
        "astId": 133,
        "contract": "contracts/deployment/avalanche/WavaxPool.sol:WavaxPool",
        "label": "_initializing",
        "offset": 1,
        "slot": "0",
        "type": "t_bool"
      },
      {
        "astId": 540,
        "contract": "contracts/deployment/avalanche/WavaxPool.sol:WavaxPool",
        "label": "__gap",
        "offset": 0,
        "slot": "1",
        "type": "t_array(t_uint256)50_storage"
      },
      {
        "astId": 10,
        "contract": "contracts/deployment/avalanche/WavaxPool.sol:WavaxPool",
        "label": "_owner",
        "offset": 0,
        "slot": "51",
        "type": "t_address"
      },
      {
        "astId": 122,
        "contract": "contracts/deployment/avalanche/WavaxPool.sol:WavaxPool",
        "label": "__gap",
        "offset": 0,
        "slot": "52",
        "type": "t_array(t_uint256)49_storage"
      },
      {
        "astId": 211,
        "contract": "contracts/deployment/avalanche/WavaxPool.sol:WavaxPool",
        "label": "_status",
        "offset": 0,
        "slot": "101",
        "type": "t_uint256"
      },
      {
        "astId": 255,
        "contract": "contracts/deployment/avalanche/WavaxPool.sol:WavaxPool",
        "label": "__gap",
        "offset": 0,
        "slot": "102",
        "type": "t_array(t_uint256)49_storage"
      },
      {
        "astId": 9966,
        "contract": "contracts/deployment/avalanche/WavaxPool.sol:WavaxPool",
        "label": "totalSupplyCap",
        "offset": 0,
        "slot": "151",
        "type": "t_uint256"
      },
      {
        "astId": 9972,
        "contract": "contracts/deployment/avalanche/WavaxPool.sol:WavaxPool",
        "label": "_allowed",
        "offset": 0,
        "slot": "152",
        "type": "t_mapping(t_address,t_mapping(t_address,t_uint256))"
      },
      {
        "astId": 9976,
        "contract": "contracts/deployment/avalanche/WavaxPool.sol:WavaxPool",
        "label": "_deposited",
        "offset": 0,
        "slot": "153",
        "type": "t_mapping(t_address,t_uint256)"
      },
      {
        "astId": 9980,
        "contract": "contracts/deployment/avalanche/WavaxPool.sol:WavaxPool",
        "label": "borrowed",
        "offset": 0,
        "slot": "154",
        "type": "t_mapping(t_address,t_uint256)"
      },
      {
        "astId": 9983,
        "contract": "contracts/deployment/avalanche/WavaxPool.sol:WavaxPool",
        "label": "ratesCalculator",
        "offset": 0,
        "slot": "155",
        "type": "t_contract(IRatesCalculator)48249"
      },
      {
        "astId": 9986,
        "contract": "contracts/deployment/avalanche/WavaxPool.sol:WavaxPool",
        "label": "borrowersRegistry",
        "offset": 0,
        "slot": "156",
        "type": "t_contract(IBorrowersRegistry)47961"
      },
      {
        "astId": 9989,
        "contract": "contracts/deployment/avalanche/WavaxPool.sol:WavaxPool",
        "label": "poolRewarder",
        "offset": 0,
        "slot": "157",
        "type": "t_contract(IPoolRewarder)48227"
      },
      {
        "astId": 9992,
        "contract": "contracts/deployment/avalanche/WavaxPool.sol:WavaxPool",
        "label": "depositIndex",
        "offset": 0,
        "slot": "158",
        "type": "t_contract(IIndex)48177"
      },
      {
        "astId": 9995,
        "contract": "contracts/deployment/avalanche/WavaxPool.sol:WavaxPool",
        "label": "borrowIndex",
        "offset": 0,
        "slot": "159",
        "type": "t_contract(IIndex)48177"
      },
      {
        "astId": 9997,
        "contract": "contracts/deployment/avalanche/WavaxPool.sol:WavaxPool",
        "label": "tokenAddress",
        "offset": 0,
        "slot": "160",
        "type": "t_address_payable"
      },
      {
        "astId": 10000,
        "contract": "contracts/deployment/avalanche/WavaxPool.sol:WavaxPool",
        "label": "vestingDistributor",
        "offset": 0,
        "slot": "161",
        "type": "t_contract(VestingDistributor)17017"
      },
      {
        "astId": 10002,
        "contract": "contracts/deployment/avalanche/WavaxPool.sol:WavaxPool",
        "label": "_decimals",
        "offset": 20,
        "slot": "161",
        "type": "t_uint8"
      }
    ],
    "types": {
      "t_address": {
        "encoding": "inplace",
        "label": "address",
        "numberOfBytes": "20"
      },
      "t_address_payable": {
        "encoding": "inplace",
        "label": "address payable",
        "numberOfBytes": "20"
      },
      "t_array(t_uint256)49_storage": {
        "base": "t_uint256",
        "encoding": "inplace",
        "label": "uint256[49]",
        "numberOfBytes": "1568"
      },
      "t_array(t_uint256)50_storage": {
        "base": "t_uint256",
        "encoding": "inplace",
        "label": "uint256[50]",
        "numberOfBytes": "1600"
      },
      "t_bool": {
        "encoding": "inplace",
        "label": "bool",
        "numberOfBytes": "1"
      },
      "t_contract(IBorrowersRegistry)47961": {
        "encoding": "inplace",
        "label": "contract IBorrowersRegistry",
        "numberOfBytes": "20"
      },
      "t_contract(IIndex)48177": {
        "encoding": "inplace",
        "label": "contract IIndex",
        "numberOfBytes": "20"
      },
      "t_contract(IPoolRewarder)48227": {
        "encoding": "inplace",
        "label": "contract IPoolRewarder",
        "numberOfBytes": "20"
      },
      "t_contract(IRatesCalculator)48249": {
        "encoding": "inplace",
        "label": "contract IRatesCalculator",
        "numberOfBytes": "20"
      },
      "t_contract(VestingDistributor)17017": {
        "encoding": "inplace",
        "label": "contract VestingDistributor",
        "numberOfBytes": "20"
      },
      "t_mapping(t_address,t_mapping(t_address,t_uint256))": {
        "encoding": "mapping",
        "key": "t_address",
        "label": "mapping(address => mapping(address => uint256))",
        "numberOfBytes": "32",
        "value": "t_mapping(t_address,t_uint256)"
      },
      "t_mapping(t_address,t_uint256)": {
        "encoding": "mapping",
        "key": "t_address",
        "label": "mapping(address => uint256)",
        "numberOfBytes": "32",
        "value": "t_uint256"
      },
      "t_uint256": {
        "encoding": "inplace",
        "label": "uint256",
        "numberOfBytes": "32"
      },
      "t_uint8": {
        "encoding": "inplace",
        "label": "uint8",
        "numberOfBytes": "1"
      }
    }
  }
}