{
  "address": "0xf06FB275e1264BbaBa96E3B3edf0380D14D1Bb44",
  "abi": [
    {
      "inputs": [],
      "name": "BorrowersRegistryNotConfigured",
      "type": "error"
    },
    {
      "inputs": [],
      "name": "BurnAmountExceedsAvailableForUser",
      "type": "error"
    },
    {
      "inputs": [],
      "name": "BurnAmountExceedsBalance",
      "type": "error"
    },
    {
      "inputs": [],
      "name": "CalldataMustHaveValidPayload",
      "type": "error"
    },
    {
      "inputs": [],
      "name": "CalldataOverOrUnderFlow",
      "type": "error"
    },
    {
      "inputs": [],
      "name": "DataPackageTimestampMustNotBeZero",
      "type": "error"
    },
    {
      "inputs": [],
      "name": "DataPackageTimestampsMustBeEqual",
      "type": "error"
    },
    {
      "inputs": [],
      "name": "EachSignerMustProvideTheSameValue",
      "type": "error"
    },
    {
      "inputs": [],
      "name": "EmptyCalldataPointersArr",
      "type": "error"
    },
    {
      "inputs": [],
      "name": "IncorrectUnsignedMetadataSize",
      "type": "error"
    },
    {
      "inputs": [
        {
          "internalType": "uint256",
          "name": "requested",
          "type": "uint256"
        },
        {
          "internalType": "uint256",
          "name": "allowance",
          "type": "uint256"
        }
      ],
      "name": "InsufficientAllowance",
      "type": "error"
    },
    {
      "inputs": [
        {
          "internalType": "uint256",
          "name": "receivedSignersCount",
          "type": "uint256"
        },
        {
          "internalType": "uint256",
          "name": "requiredSignersCount",
          "type": "uint256"
        }
      ],
      "name": "InsufficientNumberOfUniqueSigners",
      "type": "error"
    },
    {
      "inputs": [],
      "name": "InsufficientPoolFunds",
      "type": "error"
    },
    {
      "inputs": [],
      "name": "InsufficientSurplus",
      "type": "error"
    },
    {
      "inputs": [],
      "name": "InvalidCalldataPointer",
      "type": "error"
    },
    {
      "inputs": [],
      "name": "MaxPoolUtilisationBreached",
      "type": "error"
    },
    {
      "inputs": [],
      "name": "MintToAddressZero",
      "type": "error"
    },
    {
      "inputs": [
        {
          "internalType": "address",
          "name": "target",
          "type": "address"
        }
      ],
      "name": "NotAContract",
      "type": "error"
    },
    {
      "inputs": [],
      "name": "NotAuthorizedToBorrow",
      "type": "error"
    },
    {
      "inputs": [],
      "name": "PoolFrozen",
      "type": "error"
    },
    {
      "inputs": [
        {
          "internalType": "bytes",
          "name": "result",
          "type": "bytes"
        }
      ],
      "name": "ProxyCalldataFailedWithCustomError",
      "type": "error"
    },
    {
      "inputs": [
        {
          "internalType": "string",
          "name": "message",
          "type": "string"
        }
      ],
      "name": "ProxyCalldataFailedWithStringMessage",
      "type": "error"
    },
    {
      "inputs": [],
      "name": "ProxyCalldataFailedWithoutErrMsg",
      "type": "error"
    },
    {
      "inputs": [],
      "name": "RedstonePayloadMustHaveAtLeastOneDataPackage",
      "type": "error"
    },
    {
      "inputs": [],
      "name": "RepayingMoreThanWasBorrowed",
      "type": "error"
    },
    {
      "inputs": [
        {
          "internalType": "address",
          "name": "receivedSigner",
          "type": "address"
        }
      ],
      "name": "SignerNotAuthorised",
      "type": "error"
    },
    {
      "inputs": [],
      "name": "SpenderZeroAddress",
      "type": "error"
    },
    {
      "inputs": [],
      "name": "TotalSupplyCapBreached",
      "type": "error"
    },
    {
      "inputs": [
        {
          "internalType": "uint256",
          "name": "amount",
          "type": "uint256"
        },
        {
          "internalType": "uint256",
          "name": "balance",
          "type": "uint256"
        }
      ],
      "name": "TransferAmountExceedsBalance",
      "type": "error"
    },
    {
      "inputs": [],
      "name": "TransferToPoolAddress",
      "type": "error"
    },
    {
      "inputs": [],
      "name": "TransferToZeroAddress",
      "type": "error"
    },
    {
      "inputs": [],
      "name": "ZeroDepositAmount",
      "type": "error"
    },
    {
      "anonymous": false,
      "inputs": [
        {
          "indexed": true,
          "internalType": "address",
          "name": "owner",
          "type": "address"
        },
        {
          "indexed": true,
          "internalType": "address",
          "name": "spender",
          "type": "address"
        },
        {
          "indexed": false,
          "internalType": "uint256",
          "name": "value",
          "type": "uint256"
        }
      ],
      "name": "Approval",
      "type": "event"
    },
    {
      "anonymous": false,
      "inputs": [
        {
          "indexed": true,
          "internalType": "address",
          "name": "registry",
          "type": "address"
        },
        {
          "indexed": false,
          "internalType": "uint256",
          "name": "timestamp",
          "type": "uint256"
        }
      ],
      "name": "BorrowersRegistryChanged",
      "type": "event"
    },
    {
      "anonymous": false,
      "inputs": [
        {
          "indexed": true,
          "internalType": "address",
          "name": "user",
          "type": "address"
        },
        {
          "indexed": false,
          "internalType": "uint256",
          "name": "value",
          "type": "uint256"
        },
        {
          "indexed": false,
          "internalType": "uint256",
          "name": "timestamp",
          "type": "uint256"
        }
      ],
      "name": "Borrowing",
      "type": "event"
    },
    {
      "anonymous": false,
      "inputs": [
        {
          "indexed": true,
          "internalType": "address",
          "name": "user",
          "type": "address"
        },
        {
          "indexed": false,
          "internalType": "uint256",
          "name": "value",
          "type": "uint256"
        },
        {
          "indexed": false,
          "internalType": "uint256",
          "name": "timestamp",
          "type": "uint256"
        }
      ],
      "name": "Deposit",
      "type": "event"
    },
    {
      "anonymous": false,
      "inputs": [
        {
          "indexed": true,
          "internalType": "address",
          "name": "user",
          "type": "address"
        },
        {
          "indexed": false,
          "internalType": "uint256",
          "name": "amount",
          "type": "uint256"
        },
        {
          "indexed": false,
          "internalType": "uint256",
          "name": "lockTime",
          "type": "uint256"
        },
        {
          "indexed": false,
          "internalType": "uint256",
          "name": "unlockTime",
          "type": "uint256"
        }
      ],
      "name": "DepositLocked",
      "type": "event"
    },
    {
      "anonymous": false,
      "inputs": [
        {
          "indexed": true,
          "internalType": "address",
          "name": "user",
          "type": "address"
        },
        {
          "indexed": true,
          "internalType": "address",
          "name": "_of",
          "type": "address"
        },
        {
          "indexed": false,
          "internalType": "uint256",
          "name": "value",
          "type": "uint256"
        },
        {
          "indexed": false,
          "internalType": "uint256",
          "name": "timestamp",
          "type": "uint256"
        }
      ],
      "name": "DepositOnBehalfOf",
      "type": "event"
    },
    {
      "anonymous": false,
      "inputs": [
        {
          "indexed": false,
          "internalType": "uint8",
          "name": "version",
          "type": "uint8"
        }
      ],
      "name": "Initialized",
      "type": "event"
    },
    {
      "anonymous": false,
      "inputs": [
        {
          "indexed": true,
          "internalType": "address",
          "name": "user",
          "type": "address"
        },
        {
          "indexed": false,
          "internalType": "uint256",
          "name": "value",
          "type": "uint256"
        },
        {
          "indexed": false,
          "internalType": "uint256",
          "name": "timestamp",
          "type": "uint256"
        }
      ],
      "name": "InterestCollected",
      "type": "event"
    },
    {
      "anonymous": false,
      "inputs": [
        {
          "indexed": true,
          "internalType": "address",
          "name": "from",
          "type": "address"
        },
        {
          "indexed": true,
          "internalType": "address",
          "name": "to",
          "type": "address"
        }
      ],
      "name": "OwnershipTransferRequested",
      "type": "event"
    },
    {
      "anonymous": false,
      "inputs": [
        {
          "indexed": true,
          "internalType": "address",
          "name": "previousOwner",
          "type": "address"
        },
        {
          "indexed": true,
          "internalType": "address",
          "name": "newOwner",
          "type": "address"
        }
      ],
      "name": "OwnershipTransferred",
      "type": "event"
    },
    {
      "anonymous": false,
      "inputs": [
        {
          "indexed": true,
          "internalType": "address",
          "name": "poolRewarder",
          "type": "address"
        },
        {
          "indexed": false,
          "internalType": "uint256",
          "name": "timestamp",
          "type": "uint256"
        }
      ],
      "name": "PoolRewarderChanged",
      "type": "event"
    },
    {
      "anonymous": false,
      "inputs": [
        {
          "indexed": true,
          "internalType": "address",
          "name": "calculator",
          "type": "address"
        },
        {
          "indexed": false,
          "internalType": "uint256",
          "name": "timestamp",
          "type": "uint256"
        }
      ],
      "name": "RatesCalculatorChanged",
      "type": "event"
    },
    {
      "anonymous": false,
      "inputs": [
        {
          "indexed": true,
          "internalType": "address",
          "name": "user",
          "type": "address"
        },
        {
          "indexed": false,
          "internalType": "uint256",
          "name": "value",
          "type": "uint256"
        },
        {
          "indexed": false,
          "internalType": "uint256",
          "name": "timestamp",
          "type": "uint256"
        }
      ],
      "name": "Repayment",
      "type": "event"
    },
    {
      "anonymous": false,
      "inputs": [
        {
          "indexed": true,
          "internalType": "address",
          "name": "from",
          "type": "address"
        },
        {
          "indexed": true,
          "internalType": "address",
          "name": "to",
          "type": "address"
        },
        {
          "indexed": false,
          "internalType": "uint256",
          "name": "value",
          "type": "uint256"
        }
      ],
      "name": "Transfer",
      "type": "event"
    },
    {
      "anonymous": false,
      "inputs": [
        {
          "indexed": true,
          "internalType": "address",
          "name": "user",
          "type": "address"
        },
        {
          "indexed": false,
          "internalType": "uint256",
          "name": "value",
          "type": "uint256"
        },
        {
          "indexed": false,
          "internalType": "uint256",
          "name": "timestamp",
          "type": "uint256"
        }
      ],
      "name": "Withdrawal",
      "type": "event"
    },
    {
      "inputs": [],
      "name": "MAX_LOCK_TIME",
      "outputs": [
        {
          "internalType": "uint256",
          "name": "",
          "type": "uint256"
        }
      ],
      "stateMutability": "view",
      "type": "function"
    },
    {
      "inputs": [],
      "name": "acceptOwnership",
      "outputs": [],
      "stateMutability": "nonpayable",
      "type": "function"
    },
    {
      "inputs": [
        {
          "internalType": "address",
          "name": "owner",
          "type": "address"
        },
        {
          "internalType": "address",
          "name": "spender",
          "type": "address"
        }
      ],
      "name": "allowance",
      "outputs": [
        {
          "internalType": "uint256",
          "name": "",
          "type": "uint256"
        }
      ],
      "stateMutability": "view",
      "type": "function"
    },
    {
      "inputs": [
        {
          "internalType": "address",
          "name": "spender",
          "type": "address"
        },
        {
          "internalType": "uint256",
          "name": "amount",
          "type": "uint256"
        }
      ],
      "name": "approve",
      "outputs": [
        {
          "internalType": "bool",
          "name": "",
          "type": "bool"
        }
      ],
      "stateMutability": "nonpayable",
      "type": "function"
    },
    {
      "inputs": [
        {
          "internalType": "address",
          "name": "user",
          "type": "address"
        }
      ],
      "name": "balanceOf",
      "outputs": [
        {
          "internalType": "uint256",
          "name": "",
          "type": "uint256"
        }
      ],
      "stateMutability": "view",
      "type": "function"
    },
    {
      "inputs": [
        {
          "internalType": "uint256",
          "name": "_amount",
          "type": "uint256"
        }
      ],
      "name": "borrow",
      "outputs": [],
      "stateMutability": "nonpayable",
      "type": "function"
    },
    {
      "inputs": [],
      "name": "borrowIndex",
      "outputs": [
        {
          "internalType": "contract IIndex",
          "name": "",
          "type": "address"
        }
      ],
      "stateMutability": "view",
      "type": "function"
    },
    {
      "inputs": [
        {
          "internalType": "address",
          "name": "",
          "type": "address"
        }
      ],
      "name": "borrowed",
      "outputs": [
        {
          "internalType": "uint256",
          "name": "",
          "type": "uint256"
        }
      ],
      "stateMutability": "view",
      "type": "function"
    },
    {
      "inputs": [],
      "name": "borrowersRegistry",
      "outputs": [
        {
          "internalType": "contract IBorrowersRegistry",
          "name": "",
          "type": "address"
        }
      ],
      "stateMutability": "view",
      "type": "function"
    },
    {
      "inputs": [],
      "name": "checkRewards",
      "outputs": [
        {
          "internalType": "uint256",
          "name": "",
          "type": "uint256"
        }
      ],
      "stateMutability": "view",
      "type": "function"
    },
    {
      "inputs": [],
      "name": "containsOracleCalldata",
      "outputs": [
        {
          "internalType": "bool",
          "name": "",
          "type": "bool"
        }
      ],
      "stateMutability": "view",
      "type": "function"
    },
    {
      "inputs": [],
      "name": "decimals",
      "outputs": [
        {
          "internalType": "uint8",
          "name": "decimals",
          "type": "uint8"
        }
      ],
      "stateMutability": "pure",
      "type": "function"
    },
    {
      "inputs": [
        {
          "internalType": "address",
          "name": "spender",
          "type": "address"
        },
        {
          "internalType": "uint256",
          "name": "subtractedValue",
          "type": "uint256"
        }
      ],
      "name": "decreaseAllowance",
      "outputs": [
        {
          "internalType": "bool",
          "name": "",
          "type": "bool"
        }
      ],
      "stateMutability": "nonpayable",
      "type": "function"
    },
    {
      "inputs": [
        {
          "internalType": "uint256",
          "name": "_amount",
          "type": "uint256"
        }
      ],
      "name": "deposit",
      "outputs": [],
      "stateMutability": "nonpayable",
      "type": "function"
    },
    {
      "inputs": [],
      "name": "depositIndex",
      "outputs": [
        {
          "internalType": "contract IIndex",
          "name": "",
          "type": "address"
        }
      ],
      "stateMutability": "view",
      "type": "function"
    },
    {
      "inputs": [],
      "name": "depositNativeToken",
      "outputs": [],
      "stateMutability": "payable",
      "type": "function"
    },
    {
      "inputs": [
        {
          "internalType": "uint256",
          "name": "_amount",
          "type": "uint256"
        },
        {
          "internalType": "address",
          "name": "_of",
          "type": "address"
        }
      ],
      "name": "depositOnBehalf",
      "outputs": [],
      "stateMutability": "nonpayable",
      "type": "function"
    },
    {
      "inputs": [],
      "name": "extractTimestampsAndAssertAllAreEqual",
      "outputs": [
        {
          "internalType": "uint256",
          "name": "extractedTimestamp",
          "type": "uint256"
        }
      ],
      "stateMutability": "pure",
      "type": "function"
    },
    {
      "inputs": [
        {
          "internalType": "address",
          "name": "_user",
          "type": "address"
        }
      ],
      "name": "getBorrowed",
      "outputs": [
        {
          "internalType": "uint256",
          "name": "",
          "type": "uint256"
        }
      ],
      "stateMutability": "view",
      "type": "function"
    },
    {
      "inputs": [],
      "name": "getBorrowingRate",
      "outputs": [
        {
          "internalType": "uint256",
          "name": "",
          "type": "uint256"
        }
      ],
      "stateMutability": "view",
      "type": "function"
    },
    {
      "inputs": [],
      "name": "getDepositRate",
      "outputs": [
        {
          "internalType": "uint256",
          "name": "",
          "type": "uint256"
        }
      ],
      "stateMutability": "view",
      "type": "function"
    },
    {
      "inputs": [],
      "name": "getFullPoolStatus",
      "outputs": [
        {
          "internalType": "uint256[5]",
          "name": "",
          "type": "uint256[5]"
        }
      ],
      "stateMutability": "view",
      "type": "function"
    },
    {
      "inputs": [
        {
          "internalType": "address",
          "name": "account",
          "type": "address"
        }
      ],
      "name": "getFullyVestedLockedBalance",
      "outputs": [
        {
          "internalType": "uint256",
          "name": "fullyVestedBalance",
          "type": "uint256"
        }
      ],
      "stateMutability": "view",
      "type": "function"
    },
    {
      "inputs": [
        {
          "internalType": "address",
          "name": "account",
          "type": "address"
        }
      ],
      "name": "getLockedBalance",
      "outputs": [
        {
          "internalType": "uint256",
          "name": "",
          "type": "uint256"
        }
      ],
      "stateMutability": "view",
      "type": "function"
    },
    {
      "inputs": [],
      "name": "getMaxPoolUtilisationForBorrowing",
      "outputs": [
        {
          "internalType": "uint256",
          "name": "",
          "type": "uint256"
        }
      ],
      "stateMutability": "view",
      "type": "function"
    },
    {
      "inputs": [
        {
          "internalType": "address",
          "name": "account",
          "type": "address"
        }
      ],
      "name": "getNotLockedBalance",
      "outputs": [
        {
          "internalType": "uint256",
          "name": "notLockedBalance",
          "type": "uint256"
        }
      ],
      "stateMutability": "view",
      "type": "function"
    },
    {
      "inputs": [],
      "name": "getRewards",
      "outputs": [],
      "stateMutability": "nonpayable",
      "type": "function"
    },
    {
      "inputs": [],
      "name": "getVPrimeControllerAddress",
      "outputs": [
        {
          "internalType": "address",
          "name": "",
          "type": "address"
        }
      ],
      "stateMutability": "view",
      "type": "function"
    },
    {
      "inputs": [
        {
          "internalType": "address",
          "name": "spender",
          "type": "address"
        },
        {
          "internalType": "uint256",
          "name": "addedValue",
          "type": "uint256"
        }
      ],
      "name": "increaseAllowance",
      "outputs": [
        {
          "internalType": "bool",
          "name": "",
          "type": "bool"
        }
      ],
      "stateMutability": "nonpayable",
      "type": "function"
    },
    {
      "inputs": [
        {
          "internalType": "contract IRatesCalculator",
          "name": "ratesCalculator_",
          "type": "address"
        },
        {
          "internalType": "contract IBorrowersRegistry",
          "name": "borrowersRegistry_",
          "type": "address"
        },
        {
          "internalType": "contract IIndex",
          "name": "depositIndex_",
          "type": "address"
        },
        {
          "internalType": "contract IIndex",
          "name": "borrowIndex_",
          "type": "address"
        },
        {
          "internalType": "address payable",
          "name": "tokenAddress_",
          "type": "address"
        },
        {
          "internalType": "contract IPoolRewarder",
          "name": "poolRewarder_",
          "type": "address"
        },
        {
          "internalType": "uint256",
          "name": "_totalSupplyCap",
          "type": "uint256"
        }
      ],
      "name": "initialize",
      "outputs": [],
      "stateMutability": "nonpayable",
      "type": "function"
    },
    {
      "inputs": [
        {
          "internalType": "address",
          "name": "account",
          "type": "address"
        },
        {
          "internalType": "uint256",
          "name": "amount",
          "type": "uint256"
        }
      ],
      "name": "isWithdrawalAmountAvailable",
      "outputs": [
        {
          "internalType": "bool",
          "name": "",
          "type": "bool"
        }
      ],
      "stateMutability": "view",
      "type": "function"
    },
    {
      "inputs": [
        {
          "internalType": "uint256",
          "name": "amount",
          "type": "uint256"
        },
        {
          "internalType": "uint256",
          "name": "lockTime",
          "type": "uint256"
        }
      ],
      "name": "lockDeposit",
      "outputs": [],
      "stateMutability": "nonpayable",
      "type": "function"
    },
    {
      "inputs": [
        {
          "internalType": "address",
          "name": "",
          "type": "address"
        },
        {
          "internalType": "uint256",
          "name": "",
          "type": "uint256"
        }
      ],
      "name": "locks",
      "outputs": [
        {
          "internalType": "uint256",
          "name": "lockTime",
          "type": "uint256"
        },
        {
          "internalType": "uint256",
          "name": "amount",
          "type": "uint256"
        },
        {
          "internalType": "uint256",
          "name": "unlockTime",
          "type": "uint256"
        }
      ],
      "stateMutability": "view",
      "type": "function"
    },
    {
      "inputs": [],
      "name": "name",
      "outputs": [
        {
          "internalType": "string",
          "name": "_name",
          "type": "string"
        }
      ],
      "stateMutability": "pure",
      "type": "function"
    },
    {
      "inputs": [],
      "name": "owner",
      "outputs": [
        {
          "internalType": "address",
          "name": "",
          "type": "address"
        }
      ],
      "stateMutability": "view",
      "type": "function"
    },
    {
      "inputs": [],
      "name": "pendingOwner",
      "outputs": [
        {
          "internalType": "address",
          "name": "",
          "type": "address"
        }
      ],
      "stateMutability": "view",
      "type": "function"
    },
    {
      "inputs": [],
      "name": "poolRewarder",
      "outputs": [
        {
          "internalType": "contract IPoolRewarder",
          "name": "",
          "type": "address"
        }
      ],
      "stateMutability": "view",
      "type": "function"
    },
    {
      "inputs": [],
      "name": "ratesCalculator",
      "outputs": [
        {
          "internalType": "contract IRatesCalculator",
          "name": "",
          "type": "address"
        }
      ],
      "stateMutability": "view",
      "type": "function"
    },
    {
      "inputs": [
        {
          "internalType": "uint256",
          "name": "amount",
          "type": "uint256"
        },
        {
          "internalType": "address",
          "name": "account",
          "type": "address"
        }
      ],
      "name": "recoverSurplus",
      "outputs": [],
      "stateMutability": "nonpayable",
      "type": "function"
    },
    {
      "inputs": [],
      "name": "renounceOwnership",
      "outputs": [],
      "stateMutability": "nonpayable",
      "type": "function"
    },
    {
      "inputs": [
        {
          "internalType": "uint256",
          "name": "amount",
          "type": "uint256"
        }
      ],
      "name": "repay",
      "outputs": [],
      "stateMutability": "nonpayable",
      "type": "function"
    },
    {
      "inputs": [
        {
          "internalType": "contract IBorrowersRegistry",
          "name": "borrowersRegistry_",
          "type": "address"
        }
      ],
      "name": "setBorrowersRegistry",
      "outputs": [],
      "stateMutability": "nonpayable",
      "type": "function"
    },
    {
      "inputs": [
        {
          "internalType": "contract IPoolRewarder",
          "name": "_poolRewarder",
          "type": "address"
        }
      ],
      "name": "setPoolRewarder",
      "outputs": [],
      "stateMutability": "nonpayable",
      "type": "function"
    },
    {
      "inputs": [
        {
          "internalType": "contract IRatesCalculator",
          "name": "ratesCalculator_",
          "type": "address"
        }
      ],
      "name": "setRatesCalculator",
      "outputs": [],
      "stateMutability": "nonpayable",
      "type": "function"
    },
    {
      "inputs": [
        {
          "internalType": "contract ITokenManager",
          "name": "_tokenManager",
          "type": "address"
        }
      ],
      "name": "setTokenManager",
      "outputs": [],
      "stateMutability": "nonpayable",
      "type": "function"
    },
    {
      "inputs": [
        {
          "internalType": "uint256",
          "name": "_newTotalSupplyCap",
          "type": "uint256"
        }
      ],
      "name": "setTotalSupplyCap",
      "outputs": [],
      "stateMutability": "nonpayable",
      "type": "function"
    },
    {
      "inputs": [],
      "name": "symbol",
      "outputs": [
        {
          "internalType": "string",
          "name": "_symbol",
          "type": "string"
        }
      ],
      "stateMutability": "pure",
      "type": "function"
    },
    {
      "inputs": [],
      "name": "tokenAddress",
      "outputs": [
        {
          "internalType": "address payable",
          "name": "",
          "type": "address"
        }
      ],
      "stateMutability": "view",
      "type": "function"
    },
    {
      "inputs": [],
      "name": "tokenManager",
      "outputs": [
        {
          "internalType": "contract ITokenManager",
          "name": "",
          "type": "address"
        }
      ],
      "stateMutability": "view",
      "type": "function"
    },
    {
      "inputs": [],
      "name": "totalBorrowed",
      "outputs": [
        {
          "internalType": "uint256",
          "name": "",
          "type": "uint256"
        }
      ],
      "stateMutability": "view",
      "type": "function"
    },
    {
      "inputs": [],
      "name": "totalSupply",
      "outputs": [
        {
          "internalType": "uint256",
          "name": "",
          "type": "uint256"
        }
      ],
      "stateMutability": "view",
      "type": "function"
    },
    {
      "inputs": [],
      "name": "totalSupplyCap",
      "outputs": [
        {
          "internalType": "uint256",
          "name": "",
          "type": "uint256"
        }
      ],
      "stateMutability": "view",
      "type": "function"
    },
    {
      "inputs": [
        {
          "internalType": "address",
          "name": "recipient",
          "type": "address"
        },
        {
          "internalType": "uint256",
          "name": "amount",
          "type": "uint256"
        }
      ],
      "name": "transfer",
      "outputs": [
        {
          "internalType": "bool",
          "name": "",
          "type": "bool"
        }
      ],
      "stateMutability": "nonpayable",
      "type": "function"
    },
    {
      "inputs": [
        {
          "internalType": "address",
          "name": "sender",
          "type": "address"
        },
        {
          "internalType": "address",
          "name": "recipient",
          "type": "address"
        },
        {
          "internalType": "uint256",
          "name": "amount",
          "type": "uint256"
        }
      ],
      "name": "transferFrom",
      "outputs": [
        {
          "internalType": "bool",
          "name": "",
          "type": "bool"
        }
      ],
      "stateMutability": "nonpayable",
      "type": "function"
    },
    {
      "inputs": [
        {
          "internalType": "address",
          "name": "newOwner",
          "type": "address"
        }
      ],
      "name": "transferOwnership",
      "outputs": [],
      "stateMutability": "nonpayable",
      "type": "function"
    },
    {
      "inputs": [],
      "name": "vestingDistributor",
      "outputs": [
        {
          "internalType": "contract VestingDistributor",
          "name": "",
          "type": "address"
        }
      ],
      "stateMutability": "view",
      "type": "function"
    },
    {
      "inputs": [
        {
          "internalType": "uint256",
          "name": "_amount",
          "type": "uint256"
        }
      ],
      "name": "withdraw",
      "outputs": [],
      "stateMutability": "nonpayable",
      "type": "function"
    },
    {
      "inputs": [
        {
          "internalType": "uint256",
          "name": "_amount",
          "type": "uint256"
        }
      ],
      "name": "withdrawNativeToken",
      "outputs": [],
      "stateMutability": "nonpayable",
      "type": "function"
    },
    {
      "stateMutability": "payable",
      "type": "receive"
    }
  ],
  "transactionHash": "0x57da1b4a58ed6e660d077634d2f802d1865c0c412e809e721a8cf3c3a59e5204",
  "args": [],
  "numDeployments": 3,
  "solcInputHash": "dfbbab2ecba26a47d6cafbb10498e261",
  "bytecode": "0x608060405234801561001057600080fd5b50614182806100206000396000f3fe6080604052600436106102955760003560e01c80630572b0cc146102a157806306fdde03146102b85780630790ef9a1461030857806307bbebdd146103285780630941cb3d14610355578063095ea7b3146103905780630d1870df146103c05780631457db34146103d55780631460e390146103f557806317e0f2521461041557806318160ddd1461043557806323b872dd1461044a5780632a709b141461046a5780632aeaa2911461048a5780632e1a7d4d1461049f578063313ce567146104bf57806331d05b11146104db578063371fd8e6146104fb578063395093511461051b57806341da9b541461053b5780634c19386c1461055b57806355a547d5146105705780636011163e1461058557806361215aa8146105a55780636ca6d5d0146105c05780636cf55ea2146105e057806370a082311461060057806370d4cea014610620578063715018a614610640578063726cd4151461064c57806379433d8b1461066157806379ba5097146106695780637b8989391461067e5780637cb2b79c1461069e5780637f75ad0f146106be5780638da5cb5b146106de57806395d89b41146106f35780639d76ea5814610723578063a457c2d714610743578063a9059cbb14610763578063aa5af0fd14610783578063b425f802146107a3578063b6b55f25146107de578063b75c42bd146107fe578063b790634e14610820578063bb102aea14610835578063c40868931461084b578063c4ce63581461086b578063c5ebeaec1461088b578063d06dca89146108ab578063dd62ed3e146108cb578063e2b9442e14610911578063e30c397814610931578063ee61bd6e14610946578063f2fde38b14610966578063f36b242514610986578063fa78668f1461099b578063fc68f661146109b357600080fd5b3661029c57005b600080fd5b3480156102ad57600080fd5b506102b66109d3565b005b3480156102c457600080fd5b50604080518082019091526015815274088cad8e8c2a0e4d2dacaaee4c2e0e0cac882ac82b605b1b60208201525b6040516102ff9190613cd9565b60405180910390f35b34801561031457600080fd5b506102b6610323366004613d01565b610a37565b34801561033457600080fd5b5060a154610348906001600160a01b031681565b6040516102ff9190613d31565b34801561036157600080fd5b50610382610370366004613d45565b609a6020526000908152604090205481565b6040519081526020016102ff565b34801561039c57600080fd5b506103b06103ab366004613d62565b610b3f565b60405190151581526020016102ff565b3480156103cc57600080fd5b506103b0610bbb565b3480156103e157600080fd5b506102b66103f0366004613d45565b610bcf565b34801561040157600080fd5b506102b6610410366004613d8e565b610c7e565b34801561042157600080fd5b506102b6610430366004613e1b565b610f2a565b34801561044157600080fd5b50610382611172565b34801561045657600080fd5b506103b0610465366004613e34565b611182565b34801561047657600080fd5b5060a354610348906001600160a01b031681565b34801561049657600080fd5b5061038261149a565b3480156104ab57600080fd5b506102b66104ba366004613e1b565b61150a565b3480156104cb57600080fd5b50604051601281526020016102ff565b3480156104e757600080fd5b506102b66104f6366004613e1b565b611730565b34801561050757600080fd5b506102b6610516366004613e1b565b61173d565b34801561052757600080fd5b506103b0610536366004613d62565b611814565b34801561054757600080fd5b506103b0610556366004613d62565b6118c1565b34801561056757600080fd5b506103826118d6565b34801561057c57600080fd5b506103826118e1565b34801561059157600080fd5b506103826105a0366004613d45565b6119f9565b3480156105b157600080fd5b50670cd64299613c8000610382565b3480156105cc57600080fd5b50609d54610348906001600160a01b031681565b3480156105ec57600080fd5b506102b66105fb366004613d01565b611a80565b34801561060c57600080fd5b5061038261061b366004613d45565b611d3d565b34801561062c57600080fd5b506102b661063b366004613d45565b611d83565b3480156102b657600080fd5b34801561065857600080fd5b50610348611e31565b6102b6611ec2565b34801561067557600080fd5b506102b66120a9565b34801561068a57600080fd5b50609e54610348906001600160a01b031681565b3480156106aa57600080fd5b506102b66106b9366004613d45565b612138565b3480156106ca57600080fd5b506103826106d9366004613d45565b612162565b3480156106ea57600080fd5b506103486121a7565b3480156106ff57600080fd5b50604080518082019091526007815266088a0ae82ac82b60cb1b60208201526102f2565b34801561072f57600080fd5b5060a054610348906001600160a01b031681565b34801561074f57600080fd5b506103b061075e366004613d62565b6121b6565b34801561076f57600080fd5b506103b061077e366004613d62565b61228a565b34801561078f57600080fd5b50609f54610348906001600160a01b031681565b3480156107af57600080fd5b506107c36107be366004613d62565b6124ec565b604080519384526020840192909252908201526060016102ff565b3480156107ea57600080fd5b506102b66107f9366004613e1b565b61252e565b34801561080a57600080fd5b50610813612538565b6040516102ff9190613e75565b34801561082c57600080fd5b5061038261258f565b34801561084157600080fd5b5061038260975481565b34801561085757600080fd5b50610382610866366004613d45565b6125d0565b34801561087757600080fd5b50610382610886366004613d45565b61269d565b34801561089757600080fd5b506102b66108a6366004613e1b565b6127bd565b3480156108b757600080fd5b50609c54610348906001600160a01b031681565b3480156108d757600080fd5b506103826108e6366004613ea6565b6001600160a01b03918216600090815260986020908152604080832093909416825291909152205490565b34801561091d57600080fd5b506102b661092c366004613ed4565b612a3a565b34801561093d57600080fd5b50610348612bab565b34801561095257600080fd5b50609b54610348906001600160a01b031681565b34801561097257600080fd5b506102b6610981366004613d45565b612bb5565b34801561099257600080fd5b50610382612c7c565b3480156109a757600080fd5b506103826305a39a8081565b3480156109bf57600080fd5b506102b66109ce366004613d45565b612c98565b609d546040516311305c1f60e11b81526001600160a01b0390911690632260b83e90610a03903390600401613d31565b600060405180830381600087803b158015610a1d57600080fd5b505af1158015610a31573d6000803e3d6000fd5b50505050565b610a3f612d16565b610a47612d75565b60a0546040516370a0823160e01b81526000916001600160a01b0316906370a0823190610a78903090600401613d31565b602060405180830381865afa158015610a95573d6000803e3d6000fd5b505050506040513d601f19601f82011682018060405250810190610ab99190613ef6565b90506000610ac5611172565b610acd6118d6565b610ad79084613f25565b610ae19190613f38565b905081841115610b04576040516316d5c93f60e21b815260040160405180910390fd5b83811015610b25576040516394290ab960e01b815260040160405180910390fd5b610b2f8385612dce565b5050610b3b6001606555565b5050565b60006001600160a01b038316610b6857604051633d6601c760e11b815260040160405180910390fd5b3360008181526098602090815260408083206001600160a01b038816808552908352928190208690555185815291929160008051602061410d833981519152910160405180910390a35060015b92915050565b6602ed57011e0000601f1936013581161490565b610bd7612d16565b610be081612dec565b158015610bf557506001600160a01b03811615155b15610c2957609d546040516322a2d07b60e21b8152610c20916001600160a01b031690600401613d31565b60405180910390fd5b609d80546001600160a01b0319166001600160a01b0383169081179091556040514281527f85796821ee1d670b0fdb986f256b5c1a29b9019038831c7f09df2061879cf9e5906020015b60405180910390a250565b600054610100900460ff1615808015610c9e5750600054600160ff909116105b80610cbf5750610cad30612dec565b158015610cbf575060005460ff166001145b610d225760405162461bcd60e51b815260206004820152602e60248201527f496e697469616c697a61626c653a20636f6e747261637420697320616c72656160448201526d191e481a5b9a5d1a585b1a5e995960921b6064820152608401610c20565b6000805460ff191660011790558015610d45576000805461ff0019166101001790555b610d4e88612dec565b8015610d5e5750610d5e87612dec565b8015610d6e5750610d6e86612dec565b8015610d7e5750610d7e85612dec565b8015610da05750610d8e83612dec565b80610da057506001600160a01b038316155b610de35760405162461bcd60e51b815260206004820152601460248201527357726f6e6720696e697420617267756d656e747360601b6044820152606401610c20565b609c80546001600160a01b03199081166001600160a01b038a811691909117909255609b805482168b8416179055609e80548216898416179055609f80548216888416179055609d8054821686841617905560a08054909116918616918217905560978390556040805163313ce56760e01b8152905163313ce567916004818101926020929091908290030181865afa158015610e84573d6000803e3d6000fd5b505050506040513d601f19601f82011682018060405250810190610ea89190613f4b565b60a160146101000a81548160ff021916908360ff160217905550610eca612dfb565b610ed2612e2a565b610eda612e59565b8015610f20576000805461ff0019169055604051600181527f7f26b83ff96e1f2b6a682f133852f6798a09c465da95921460cefb38474024989060200160405180910390a15b5050505050505050565b610f32612d75565b60a0546040516370a0823160e01b81526001600160a01b03909116906370a0823190610f62903090600401613d31565b602060405180830381865afa158015610f7f573d6000803e3d6000fd5b505050506040513d601f19601f82011682018060405250810190610fa39190613ef6565b811115610fc3576040516316d5c93f60e21b815260040160405180910390fd5b610fcc3361303c565b30600090815260996020526040902054811115610ffc57604051630bba337f60e11b815260040160405180910390fd5b3060009081526099602052604090208054829003905561101c3382613167565b611024612e59565b60a054604051632e1a7d4d60e01b8152600481018390526001600160a01b0390911690632e1a7d4d90602401600060405180830381600087803b15801561106a57600080fd5b505af115801561107e573d6000803e3d6000fd5b5061108f92503391508390506131e7565b609d546001600160a01b0316158015906110af57506110ad336132c6565b155b1561112b57609d54604051630d5dbdb360e21b81526001600160a01b0390911690633576f6cc906110e69084903390600401613f6e565b6020604051808303816000875af1158015611105573d6000803e3d6000fd5b505050506040513d601f19601f820116820180604052508101906111299190613ef6565b505b61113433613372565b336001600160a01b031660008051602061412d833981519152824260405161115d929190613f85565b60405180910390a261116f6001606555565b50565b600061117d30611d3d565b905090565b600061118c612d75565b61119684836118c1565b6111b25760405162461bcd60e51b8152600401610c2090613f93565b6001600160a01b038416600090815260986020908152604080832033845290915290205482111561121d576001600160a01b03841660009081526098602090815260408083203384529091529081902054905163054365bb60e31b8152610c20918491600401613f85565b6001600160a01b03831661124457604051633a954ecd60e21b815260040160405180910390fd5b306001600160a01b0384160361126d5760405163ed728e5760e01b815260040160405180910390fd5b6112768461303c565b6001600160a01b0384166000908152609960205260408120805484929061129e908490613f38565b90915550506001600160a01b0384166000908152609860209081526040808320338452909152812080548492906112d6908490613f38565b909155506112e590508361303c565b6001600160a01b0383166000908152609960205260408120805484929061130d908490613f25565b9091555050609d546001600160a01b03161580159061132b57508115155b801561133d575061133b846132c6565b155b801561134f575061134d836132c6565b155b1561143957609d54604051630d5dbdb360e21b81526000916001600160a01b031690633576f6cc906113879086908990600401613f6e565b6020604051808303816000875af11580156113a6573d6000803e3d6000fd5b505050506040513d601f19601f820116820180604052508101906113ca9190613ef6565b9050801561143757609d546040516328ba35d960e11b81526001600160a01b03909116906351746bb2906114049084908890600401613f6e565b600060405180830381600087803b15801561141e57600080fd5b505af1158015611432573d6000803e3d6000fd5b505050505b505b826001600160a01b0316846001600160a01b03166000805160206140ed8339815191528460405161146c91815260200190565b60405180910390a361147d84613372565b61148683613372565b5060016114936001606555565b9392505050565b609d546040516246613160e11b81526000916001600160a01b031690628cc262906114c9903390600401613d31565b602060405180830381865afa1580156114e6573d6000803e3d6000fd5b505050506040513d601f19601f8201168201806040525081019061117d9190613ef6565b611512612d75565b61151c33826118c1565b6115385760405162461bcd60e51b8152600401610c2090613f93565b6115413361303c565b3360009081526099602052604090205461155c90829061340c565b60a0546040516370a0823160e01b81529192506001600160a01b0316906370a082319061158d903090600401613d31565b602060405180830381865afa1580156115aa573d6000803e3d6000fd5b505050506040513d601f19601f820116820180604052508101906115ce9190613ef6565b8111156115ee576040516316d5c93f60e21b815260040160405180910390fd5b3060009081526099602052604090205481111561161e57604051630bba337f60e11b815260040160405180910390fd5b3060009081526099602052604090208054829003905561163e3382613167565b611646612e59565b6116503382612dce565b609d546001600160a01b031615801590611670575061166e336132c6565b155b156116ec57609d54604051630d5dbdb360e21b81526001600160a01b0390911690633576f6cc906116a79084903390600401613f6e565b6020604051808303816000875af11580156116c6573d6000803e3d6000fd5b505050506040513d601f19601f820116820180604052508101906116ea9190613ef6565b505b336001600160a01b031660008051602061412d8339815191528242604051611715929190613f85565b60405180910390a261172633613372565b61116f6001606555565b611738612d16565b609755565b611745612d75565b61174e33613422565b336000908152609a602052604090205481111561177e57604051630dcad43360e11b815260040160405180910390fd5b6117883382613528565b336000908152609a6020526040812080548392906117a7908490613f38565b9091555050306000908152609a6020526040812080548392906117cb908490613f38565b909155506117d99050612e59565b336001600160a01b03167f24fcca58a997b1b2eff6db8107e860458544c09ddd3693b3b779e1df6c0d6c5d824260405161115d929190613f85565b60006001600160a01b03831661183d57604051633d6601c760e11b815260040160405180910390fd5b3360009081526098602090815260408083206001600160a01b038716845290915281205461186c908490613f25565b3360008181526098602090815260408083206001600160a01b038a168085529083529281902085905551848152939450909260008051602061410d833981519152910160405180910390a35060019392505050565b60006118cc83612162565b9091111592915050565b600061117d306119f9565b6000806118ec613540565b905060006118f9826135e7565b61ffff1690508060000361192057604051632154bfcf60e21b815260040160405180910390fd5b61192b600283613f25565b915060005b818110156119f357600061194384613621565b9050600080611953606887613f25565b905060006119618236613f38565b9050803592508265ffffffffffff1660000361199057604051630336dc9d60e41b815260040160405180910390fd5b876000036119a8578265ffffffffffff1697506119d0565b878365ffffffffffff16146119d05760405163d9d1f46560e01b815260040160405180910390fd5b6119da8488613f25565b96505050505080806119eb90613fbe565b915050611930565b50505090565b609f546001600160a01b038281166000908152609a602052604080822054905163966da88960e01b81529193929092169163966da88991611a3f91908690600401613f6e565b602060405180830381865afa158015611a5c573d6000803e3d6000fd5b505050506040513d601f19601f82011682018060405250810190610bb59190613ef6565b611a88612d75565b81600003611aa95760405163078e1d8560e01b815260040160405180910390fd5b6001600160a01b038116611aee5760405162461bcd60e51b815260206004820152600c60248201526b41646472657373207a65726f60a01b6044820152606401610c20565b306001600160a01b03821603611b465760405162461bcd60e51b815260206004820181905260248201527f43616e6e6f74206465706f736974206f6e20626568616c66206f6620706f6f6c6044820152606401610c20565b60a0546040516370a0823160e01b8152611bc29184916001600160a01b03909116906370a0823190611b7c903390600401613d31565b602060405180830381865afa158015611b99573d6000803e3d6000fd5b505050506040513d601f19601f82011682018060405250810190611bbd9190613ef6565b61340c565b9150611bcd8161303c565b60975415611c125760975430600090815260996020526040902054611bf3908490613f25565b1115611c1257604051633f27d61760e01b815260040160405180910390fd5b611c1c3383613528565b611c268183613655565b3060009081526099602052604081208054849290611c45908490613f25565b90915550611c539050612e59565b609d546001600160a01b031615801590611c735750611c71816132c6565b155b15611cdd57609d546040516328ba35d960e11b81526001600160a01b03909116906351746bb290611caa9085908590600401613f6e565b600060405180830381600087803b158015611cc457600080fd5b505af1158015611cd8573d6000803e3d6000fd5b505050505b806001600160a01b0316336001600160a01b03167fef0ada5ca19bede6a40b575865a6ce451938d26835b7215e6a5e03bb2c4392128442604051611d22929190613f85565b60405180910390a3611d3381613372565b610b3b6001606555565b609e546001600160a01b0382811660009081526099602052604080822054905163966da88960e01b81529193929092169163966da88991611a3f91908690600401613f6e565b611d8b612d16565b611d9481612dec565b158015611da957506001600160a01b03811615155b15611dc957806040516322a2d07b60e21b8152600401610c209190613d31565b609b80546001600160a01b0319166001600160a01b03831690811790915515611df457611df4612e59565b806001600160a01b03167fef1b7e9216e08b283cc613824ccb26ea505227777839a4f3c6810d64594e018242604051610c7391815260200190565b565b60a3546000906001600160a01b031615611ebc5760a360009054906101000a90046001600160a01b03166001600160a01b031663726cd4156040518163ffffffff1660e01b8152600401602060405180830381865afa158015611e98573d6000803e3d6000fd5b505050506040513d601f19601f8201168201806040525081019061117d9190613fd7565b50600090565b34600003611ee35760405163078e1d8560e01b815260040160405180910390fd5b611eec3361303c565b60975415611f315760975430600090815260996020526040902054611f12903490613f25565b1115611f3157604051633f27d61760e01b815260040160405180910390fd5b60a060009054906101000a90046001600160a01b03166001600160a01b031663d0e30db0346040518263ffffffff1660e01b81526004016000604051808303818588803b158015611f8157600080fd5b505af1158015611f95573d6000803e3d6000fd5b5050505050611fa43334613655565b3060009081526099602052604081208054349290611fc3908490613f25565b90915550611fd19050612e59565b609d546001600160a01b031615801590611ff15750611fef336132c6565b155b1561205b57609d546040516328ba35d960e11b81526001600160a01b03909116906351746bb2906120289034903390600401613f6e565b600060405180830381600087803b15801561204257600080fd5b505af1158015612056573d6000803e3d6000fd5b505050505b61206433613372565b336001600160a01b03167f90890809c654f11d6e72a28fa60149770a0d11ec6c92319d6ceb2bb0a4ea1a15344260405161209f929190613f85565b60405180910390a2565b60006120b36136d5565b9050336001600160a01b038216146121255760405162461bcd60e51b815260206004820152602f60248201527f50656e64696e674f776e61626c653a2063616c6c6572206973206e6f7420746860448201526e32903832b73234b7339037bbb732b960891b6064820152608401610c20565b61212e816136e8565b61116f600061373a565b612140612d16565b60a380546001600160a01b0319166001600160a01b0392909216919091179055565b60008061216e836125d0565b9050600061217b84611d3d565b90508181101561218e57600092506121a0565b6121988282613f38565b949350505050565b5050919050565b6033546001600160a01b031690565b60006001600160a01b0383166121df57604051633d6601c760e11b815260040160405180910390fd5b3360009081526098602090815260408083206001600160a01b03871684529091529020548281101561222857828160405163054365bb60e31b8152600401610c20929190613f85565b60006122348483613f38565b3360008181526098602090815260408083206001600160a01b038b168085529083529281902085905551848152939450909260008051602061410d833981519152910160405180910390a3506001949350505050565b6000612294612d75565b61229e33836118c1565b6122ba5760405162461bcd60e51b8152600401610c2090613f93565b6001600160a01b0383166122e157604051633a954ecd60e21b815260040160405180910390fd5b306001600160a01b0384160361230a5760405163ed728e5760e01b815260040160405180910390fd5b336123148161303c565b6001600160a01b03811660009081526099602052604090208054849003905561233c8461303c565b6001600160a01b03841660009081526099602052604081208054859290612364908490613f25565b9091555050609d546001600160a01b03161580159061238257508215155b80156123945750612392816132c6565b155b80156123a657506123a4846132c6565b155b1561249057609d54604051630d5dbdb360e21b81526000916001600160a01b031690633576f6cc906123de9087908690600401613f6e565b6020604051808303816000875af11580156123fd573d6000803e3d6000fd5b505050506040513d601f19601f820116820180604052508101906124219190613ef6565b9050801561248e57609d546040516328ba35d960e11b81526001600160a01b03909116906351746bb29061245b9084908990600401613f6e565b600060405180830381600087803b15801561247557600080fd5b505af1158015612489573d6000803e3d6000fd5b505050505b505b836001600160a01b0316816001600160a01b03166000805160206140ed833981519152856040516124c391815260200190565b60405180910390a36124d433613372565b6124dd84613372565b6001915050610bb56001606555565b60a2602052816000526040600020818154811061250857600080fd5b600091825260209091206003909102018054600182015460029092015490935090915083565b61116f8133611a80565b612540613c6b565b6040518060a00160405280612553611172565b815260200161256061258f565b815260200161256d612c7c565b815260200161257a6118d6565b8152602001670cd64299613c80009052919050565b609b546000906001600160a01b0316637cd083316125ab6118d6565b6125b3611172565b6040518363ffffffff1660e01b81526004016114c9929190613f85565b600080805b6001600160a01b038416600090815260a26020526040902054811015612696576001600160a01b038416600090815260a26020526040902080544291908390811061262257612622613ff4565b9060005260206000209060030201600201541115612684576001600160a01b038416600090815260a26020526040902080548290811061266457612664613ff4565b906000526020600020906003020160010154826126819190613f25565b91505b8061268e81613fbe565b9150506125d5565b5092915050565b6000805b6001600160a01b038316600090815260a260205260409020548110156127b7576001600160a01b038316600090815260a2602052604090208054429190839081106126ee576126ee613ff4565b90600052602060002090600302016002015411156127a5576001600160a01b038316600090815260a26020526040902080546305a39a8091908390811061273757612737613ff4565b600091825260208083206003909202909101546001600160a01b038716835260a2909152604090912080548490811061277257612772613ff4565b90600052602060002090600302016001015461278e919061400a565b6127989190614021565b6127a29083613f25565b91505b806127af81613fbe565b9150506126a1565b50919050565b609c546001600160a01b03166127e657604051631c038dab60e21b815260040160405180910390fd5b609c5460405163039ff21960e21b81526001600160a01b0390911690630e7fc86490612816903390600401613d31565b602060405180830381865afa158015612833573d6000803e3d6000fd5b505050506040513d601f19601f820116820180604052508101906128579190614043565b61287457604051637582fa9b60e11b815260040160405180910390fd5b61287c611172565b60000361289c576040516316d5c93f60e21b815260040160405180910390fd5b6128a4612d75565b60a0546040516370a0823160e01b81526001600160a01b03909116906370a08231906128d4903090600401613d31565b602060405180830381865afa1580156128f1573d6000803e3d6000fd5b505050506040513d601f19601f820116820180604052508101906129159190613ef6565b811115612935576040516316d5c93f60e21b815260040160405180910390fd5b61293e33613422565b336000908152609a60205260408120805483929061295d908490613f25565b9091555050306000908152609a602052604081208054839290612981908490613f25565b9091555061299190503382612dce565b612999612e59565b336001600160a01b03167fd6b37be10b58108f696d9ed067fedad0bff7cb417ef4c28d2f8a25d6d83c98d582426040516129d4929190613f85565b60405180910390a26129e66001606555565b670cd64299613c80006129f7611172565b6129ff6118d6565b612a1190670de0b6b3a764000061400a565b612a1b9190614021565b111561116f576040516372b9ce3f60e11b815260040160405180910390fd5b81612a4433612162565b1015612a915760405162461bcd60e51b815260206004820152601c60248201527b496e73756666696369656e742062616c616e636520746f206c6f636b60201b6044820152606401610c20565b6305a39a80811115612aef5760405162461bcd60e51b815260206004820152602160248201527f43616e6e6f74206c6f636b20666f72206d6f7265207468616e203320796561726044820152607360f81b6064820152608401610c20565b33600090815260a260209081526040918290208251606081018452848152918201859052918101612b208442613f25565b905281546001818101845560009384526020938490208351600390930201918255928201519281019290925560400151600290910155337fada80de846c2fa6289ae8db8bd0145346851ca76d49946df18240ebbf97200a78383612b848142613f25565b6040805193845260208401929092529082015260600160405180910390a2610b3b33613372565b600061117d6136d5565b612bbd612d16565b6001600160a01b038116612c295760405162461bcd60e51b815260206004820152602d60248201527f50656e64696e674f776e61626c653a206e6577206f776e65722069732074686560448201526c207a65726f206164647265737360981b6064820152608401610c20565b612c328161373a565b806001600160a01b0316612c446121a7565b6001600160a01b03167fed8889f560326eb138920d842192f0eb3dd22b4f139c87a2c57538e05bae127860405160405180910390a350565b609b546000906001600160a01b031663df841eec6125ab6118d6565b612ca0612d16565b612ca981612dec565b612cc857806040516322a2d07b60e21b8152600401610c209190613d31565b609c80546001600160a01b0319166001600160a01b0383169081179091556040514281527f04dce7d074f7e287a2e6e3516c802271d58d5c14e0dede83a49719eb6b92046990602001610c73565b33612d1f6121a7565b6001600160a01b031614611e2f5760405162461bcd60e51b815260206004820181905260248201527f4f776e61626c653a2063616c6c6572206973206e6f7420746865206f776e65726044820152606401610c20565b600260655403612dc75760405162461bcd60e51b815260206004820152601f60248201527f5265656e7472616e637947756172643a207265656e7472616e742063616c6c006044820152606401610c20565b6002606555565b60a054610b3b906001600160a01b0316838361374c565b6001606555565b6001600160a01b03163b151590565b600054610100900460ff16612e225760405162461bcd60e51b8152600401610c2090614065565b611e2f613876565b600054610100900460ff16612e515760405162461bcd60e51b8152600401610c2090614065565b611e2f6138a6565b6000612e636118d6565b90506000612e6f611172565b609b549091506001600160a01b0316612e9b5760405163fd4851e960e01b815260040160405180910390fd5b609e54609b54604051637cd0833160e01b81526001600160a01b03928316926334fcf437921690637cd0833190612ed89087908790600401613f85565b602060405180830381865afa158015612ef5573d6000803e3d6000fd5b505050506040513d601f19601f82011682018060405250810190612f199190613ef6565b6040518263ffffffff1660e01b8152600401612f3791815260200190565b600060405180830381600087803b158015612f5157600080fd5b505af1158015612f65573d6000803e3d6000fd5b5050609f54609b546040516337e107bb60e21b81526001600160a01b0392831694506334fcf437935091169063df841eec90612fa79087908790600401613f85565b602060405180830381865afa158015612fc4573d6000803e3d6000fd5b505050506040513d601f19601f82011682018060405250810190612fe89190613ef6565b6040518263ffffffff1660e01b815260040161300691815260200190565b600060405180830381600087803b15801561302057600080fd5b505af1158015613034573d6000803e3d6000fd5b505050505050565b6001600160a01b03811660009081526099602052604081205461305e83611d3d565b6130689190613f38565b90506130748282613655565b61307d30611d3d565b306000908152609960205260409081902091909155516001600160a01b038316907f9bbd517758fbae61197f1c1c04c8614064e89512dbaf4350dcdf76fcaa5e2161906130cd9084904290613f85565b60405180910390a2609e54604051637681d99b60e11b81526001600160a01b039091169063ed03b33690613105908590600401613d31565b600060405180830381600087803b15801561311f57600080fd5b505af1158015613133573d6000803e3d6000fd5b5050609e54604051637681d99b60e11b81526001600160a01b03909116925063ed03b3369150613006903090600401613d31565b6001600160a01b0382166000908152609960205260409020548111156131a057604051630bba337f60e11b815260040160405180910390fd5b6001600160a01b038216600081815260996020908152604080832080548690039055518481529192916000805160206140ed83398151915291015b60405180910390a35050565b604080516000808252602082019092526001600160a01b03841690839060405161321191906140b0565b60006040518083038185875af1925050503d806000811461324e576040519150601f19603f3d011682016040523d82523d6000602084013e613253565b606091505b50509050806132c15760405162461bcd60e51b815260206004820152603460248201527f5472616e7366657248656c7065723a3a736166655472616e736665724554483a60448201527308115512081d1c985b9cd9995c8819985a5b195960621b6064820152608401610c20565b505050565b6000731d3b1350026195670f8b228711977561fe3e60016001600160a01b038316148061330f575073f03e2984e549ddc747bc709e6c6ef4791882a5026001600160a01b038316145b806133365750736edba4a5dbb3aec671f2e1b16a67fa3a076a2ed86001600160a01b038316145b8061335d575073114989e03993edc97a5946bbb7be885ef0aee9eb6001600160a01b038316145b1561336a57506001919050565b506000919050565b600061337c611e31565b90506001600160a01b03811615610b3b57613395610bbb565b156133e0576132c181836040516024016133af9190613d31565b60408051601f198184030181529190526020810180516001600160e01b0316636cec346160e01b17905260006138cd565b60405163bf18c23960e01b81526001600160a01b0382169063bf18c23990613006908590600401613d31565b600081831061341b5781611493565b5090919050565b61342b816119f9565b6001600160a01b0382166000908152609a602052604090205561344d306119f9565b306000908152609a60205260409081902091909155609f549051637681d99b60e11b81526001600160a01b039091169063ed03b33690613491908490600401613d31565b600060405180830381600087803b1580156134ab57600080fd5b505af11580156134bf573d6000803e3d6000fd5b5050609f54604051637681d99b60e11b81526001600160a01b03909116925063ed03b33691506134f3903090600401613d31565b600060405180830381600087803b15801561350d57600080fd5b505af1158015613521573d6000803e3d6000fd5b5050505050565b60a054610b3b906001600160a01b0316833084613961565b60006602ed57011e0000601f1936013581161480613571576040516373bb264f60e11b815260040160405180910390fd5b6000366029111561359557604051632bcb7bc560e11b815260040160405180910390fd5b50602819360135600060096135b0600362ffffff8516613f25565b6135ba9190613f25565b9050366135c8600283613f25565b11156114935760405163c30a7bd760e01b815260040160405180910390fd5b6000806135f5602084613f25565b90503681111561361857604051632bcb7bc560e11b815260040160405180910390fd5b36033592915050565b600080600061362f84613a97565b9092509050604e613641826020613f25565b61364b908461400a565b6121989190613f25565b6001600160a01b03821661367c576040516346dbfb6d60e11b815260040160405180910390fd5b6001600160a01b038216600090815260996020526040812080548392906136a4908490613f25565b90915550506040518181526001600160a01b038316906000906000805160206140ed833981519152906020016131db565b6000805160206140cd8339815191525490565b603380546001600160a01b038381166001600160a01b0319831681179093556040519116919082907f8be0079c531659141344cd1fd0a4f28419497f9722a3daafe3b4186f6b6457e090600090a35050565b6000805160206140cd83398151915255565b604080516001600160a01b038481166024830152604480830185905283518084039091018152606490920183526020820180516001600160e01b031663a9059cbb60e01b17905291516000928392908716916137a891906140b0565b6000604051808303816000865af19150503d80600081146137e5576040519150601f19603f3d011682016040523d82523d6000602084013e6137ea565b606091505b50915091508180156138145750805115806138145750808060200190518101906138149190614043565b6135215760405162461bcd60e51b815260206004820152602d60248201527f5472616e7366657248656c7065723a3a736166655472616e736665723a20747260448201526c185b9cd9995c8819985a5b1959609a1b6064820152608401610c20565b600054610100900460ff1661389d5760405162461bcd60e51b8152600401610c2090614065565b611e2f336136e8565b600054610100900460ff16612de55760405162461bcd60e51b8152600401610c2090614065565b606060006138da84613aee565b9050600080866001600160a01b0316856138f55760006138f7565b345b8460405161390591906140b0565b60006040518083038185875af1925050503d8060008114613942576040519150601f19603f3d011682016040523d82523d6000602084013e613947565b606091505b50915091506139568282613b7d565b979650505050505050565b604080516001600160a01b0385811660248301528481166044830152606480830185905283518084039091018152608490920183526020820180516001600160e01b03166323b872dd60e01b17905291516000928392908816916139c591906140b0565b6000604051808303816000865af19150503d8060008114613a02576040519150601f19603f3d011682016040523d82523d6000602084013e613a07565b606091505b5091509150818015613a31575080511580613a31575080806020019051810190613a319190614043565b6130345760405162461bcd60e51b815260206004820152603160248201527f5472616e7366657248656c7065723a3a7472616e7366657246726f6d3a207472604482015270185b9cd9995c919c9bdb4819985a5b1959607a1b6064820152608401610c20565b600080808080613aa8604187613f25565b90506000613ac1613aba602084613f25565b3690613bf4565b803594509050613ad2816003613bf4565b62ffffff9490941697933563ffffffff16965092945050505050565b80516060906000613afd613c00565b90506000613b0b8284613f25565b905036821115613b2e57604051632bcb7bc560e11b815260040160405180910390fd5b6060604051905081815285602001848101826020015b81831015613b5c578251815260209283019201613b44565b50505082833603856020018301379190920181016020016040529392505050565b6060826127b7578151600003613ba657604051632b3ff13d60e11b815260040160405180910390fd5b602082015162461bcd60e51b148015613bd9576040516301efd04f60e31b81526044840190610c20908290600401613cd9565b8260405163fd36fde360e01b8152600401610c209190613cd9565b60006114938284613f38565b600080613c0b613540565b90506000613c18826135e7565b61ffff169050613c29600283613f25565b915060005b81811015613c63576000613c4184613621565b9050613c4d8185613f25565b9350508080613c5b90613fbe565b915050613c2e565b509092915050565b6040518060a001604052806005906020820280368337509192915050565b60005b83811015613ca4578181015183820152602001613c8c565b50506000910152565b60008151808452613cc5816020860160208601613c89565b601f01601f19169290920160200192915050565b6020815260006114936020830184613cad565b6001600160a01b038116811461116f57600080fd5b60008060408385031215613d1457600080fd5b823591506020830135613d2681613cec565b809150509250929050565b6001600160a01b0391909116815260200190565b600060208284031215613d5757600080fd5b813561149381613cec565b60008060408385031215613d7557600080fd5b8235613d8081613cec565b946020939093013593505050565b600080600080600080600060e0888a031215613da957600080fd5b8735613db481613cec565b96506020880135613dc481613cec565b95506040880135613dd481613cec565b94506060880135613de481613cec565b93506080880135613df481613cec565b925060a0880135613e0481613cec565b8092505060c0880135905092959891949750929550565b600060208284031215613e2d57600080fd5b5035919050565b600080600060608486031215613e4957600080fd5b8335613e5481613cec565b92506020840135613e6481613cec565b929592945050506040919091013590565b60a08101818360005b6005811015613e9d578151835260209283019290910190600101613e7e565b50505092915050565b60008060408385031215613eb957600080fd5b8235613ec481613cec565b91506020830135613d2681613cec565b60008060408385031215613ee757600080fd5b50508035926020909101359150565b600060208284031215613f0857600080fd5b5051919050565b634e487b7160e01b600052601160045260246000fd5b80820180821115610bb557610bb5613f0f565b81810381811115610bb557610bb5613f0f565b600060208284031215613f5d57600080fd5b815160ff8116811461149357600080fd5b9182526001600160a01b0316602082015260400190565b918252602082015260400190565b60208082526011908201527010985b185b98d9481a5cc81b1bd8dad959607a1b604082015260600190565b600060018201613fd057613fd0613f0f565b5060010190565b600060208284031215613fe957600080fd5b815161149381613cec565b634e487b7160e01b600052603260045260246000fd5b8082028115828204841417610bb557610bb5613f0f565b60008261403e57634e487b7160e01b600052601260045260246000fd5b500490565b60006020828403121561405557600080fd5b8151801515811461149357600080fd5b6020808252602b908201527f496e697469616c697a61626c653a20636f6e7472616374206973206e6f74206960408201526a6e697469616c697a696e6760a81b606082015260800190565b600082516140c2818460208701613c89565b919091019291505056fe63a0d9df49fae3f1b9d24f8dc819a568c429a1b11d0d8e9de63df53a0194acb2ddf252ad1be2c89b69c2b068fc378daa952ba7f163c4a11628f55a4df523b3ef8c5be1e5ebec7d5bd14f71427d1e84f3dd0314c0f7b2291e5b200ac8c7c3b925df273cb619d95419a9cd0ec88123a0538c85064229baa6363788f743fff90deba2646970667358221220895bb2eb5e3626c4a2fca7248a02d76a1e8da17f161537348e4bd68e91988d7664736f6c63430008110033",
  "devdoc": {
    "details": "Contract allowing user to deposit to and borrow WAVAX from a dedicated user account",
    "errors": {
      "InsufficientAllowance(uint256,uint256)": [
        {
          "params": {
            "allowance": "current allowance",
            "requested": "requested transfer amount"
          }
        }
      ],
      "TransferAmountExceedsBalance(uint256,uint256)": [
        {
          "params": {
            "amount": "transfer amount",
            "balance": "available balance"
          }
        }
      ]
    },
    "kind": "dev",
    "methods": {
      "allowance(address,address)": {
        "details": "Returns the remaining number of tokens that `spender` will be allowed to spend on behalf of `owner` through {transferFrom}. This is zero by default. This value changes when {approve} or {transferFrom} are called."
      },
      "approve(address,uint256)": {
        "details": "Sets `amount` as the allowance of `spender` over the caller's tokens. Returns a boolean value indicating whether the operation succeeded. IMPORTANT: Beware that changing an allowance with this method brings the risk that someone may use both the old and the new allowance by unfortunate transaction ordering. One possible solution to mitigate this race condition is to first reduce the spender's allowance to 0 and set the desired value afterwards: https://github.com/ethereum/EIPs/issues/20#issuecomment-263524729 Emits an {Approval} event."
      },
      "balanceOf(address)": {
        "details": "_user the address of queried depositor*"
      },
      "borrow(uint256)": {
        "details": "_amount the amount to be borrowedIt is only meant to be used by a SmartLoanDiamondProxy*"
      },
      "getFullyVestedLockedBalance(address)": {
        "details": "The fully vested locked balance is used in the governance mechanism of the system, specifically for the allocation of vPrime tokens. The method calculates the fully vested locked balance by iterating over all the locks of the account and summing up the amounts of those locks that are still active (i.e., their `unlockTime` is greater than the current block timestamp). However, the amount of each lock is scaled by the ratio of its `lockTime` to the `MAX_LOCK_TIME` (3 years). This means that the longer the lock time, the larger the contribution of the lock to the fully vested locked balance. The fully vested locked balance is used to calculate the maximum vPrime allocation for a user. Users accrue vPrime over a period of 3 years, from 0 to the maximum vPrime based on their 10-1 pairs of pool-deposit and sPrime. Locking pool deposits and sPrime immediately vests the vPrime.",
        "params": {
          "account": "The address of the account for which to calculate the fully vested locked balance."
        },
        "returns": {
          "fullyVestedBalance": "The fully vested locked balance of the provided account."
        }
      },
      "owner()": {
        "details": "Returns the address of the current owner."
      },
      "renounceOwnership()": {
        "details": "Leaves the contract without owner. It will not be possible to call `onlyOwner` functions. Can only be called by the current owner. NOTE: Renouncing ownership will leave the contract without an owner, thereby disabling any functionality that is only available to the owner."
      },
      "repay(uint256)": {
        "details": "It is only meant to be used by a SmartLoanDiamondProxy*"
      },
      "setBorrowersRegistry(address)": {
        "details": "borrowersRegistry the address of borrowers registry*"
      },
      "setPoolRewarder(address)": {
        "details": "_poolRewarder the address of PoolRewarder*"
      },
      "setRatesCalculator(address)": {
        "details": "ratesCalculator the address of rates calculator*"
      },
      "setTotalSupplyCap(uint256)": {
        "details": "_newTotalSupplyCap new deposit cap*"
      },
      "totalSupply()": {
        "details": "Returns the amount of tokens in existence."
      },
      "withdraw(uint256)": {
        "details": "_amount the amount to be withdrawn*"
      },
      "withdrawNativeToken(uint256)": {
        "details": "_amount the amount to be withdrawn*"
      }
    },
    "title": "WavaxPool",
    "version": 1
  },
  "userdoc": {
    "kind": "user",
    "methods": {
      "balanceOf(address)": {
        "notice": "Returns the current deposited amount for the given user The value includes the interest rates earned at the current moment"
      },
      "borrow(uint256)": {
        "notice": "Borrows the specified amount It updates user borrowed balance, total borrowed amount and rates"
      },
      "deposit(uint256)": {
        "notice": "Deposits the amount It updates user deposited balance, total deposited and rates*"
      },
      "depositNativeToken()": {
        "notice": "Wraps and deposits amount attached to the transaction*"
      },
      "depositOnBehalf(uint256,address)": {
        "notice": "Deposits the amount on behalf of `_of` user. It updates `_of` user deposited balance, total deposited and rates*"
      },
      "getBorrowingRate()": {
        "notice": "Returns the current interest rate for borrowings*"
      },
      "getDepositRate()": {
        "notice": "Returns the current interest rate for deposits*"
      },
      "getFullPoolStatus()": {
        "notice": "Returns full pool status"
      },
      "getFullyVestedLockedBalance(address)": {
        "notice": "Calculates and returns the fully vested locked balance for a given account."
      },
      "recoverSurplus(uint256,address)": {
        "notice": "Recovers the surplus funds resultant from difference between deposit and borrowing rates*"
      },
      "repay(uint256)": {
        "notice": "Repays the amount It updates user borrowed balance, total borrowed amount and rates"
      },
      "setBorrowersRegistry(address)": {
        "notice": "Sets the new borrowers registry contract. The borrowers registry decides if an account can borrow funds. Only the owner of the Contract can execute this function."
      },
      "setPoolRewarder(address)": {
        "notice": "Sets the new Pool Rewarder. The IPoolRewarder that distributes additional token rewards to people having a stake in this pool proportionally to their stake and time of participance. Only the owner of the Contract can execute this function."
      },
      "setRatesCalculator(address)": {
        "notice": "Sets the new rate calculator. The calculator is an external contract that contains the logic for calculating deposit and borrowing rates. Only the owner of the Contract can execute this function."
      },
      "setTotalSupplyCap(uint256)": {
        "notice": "Sets new totalSupplyCap limiting how much in total can be deposited to the Pool. Only the owner of the Contract can execute this function."
      },
      "withdraw(uint256)": {
        "notice": "Withdraws selected amount from the user deposits"
      },
      "withdrawNativeToken(uint256)": {
        "notice": "Unwraps and withdraws selected amount from the user deposits"
      }
    },
    "version": 1
  },
  "storageLayout": {
    "storage": [
      {
        "astId": 138,
        "contract": "contracts/deployment/avalanche/WavaxPool.sol:WavaxPool",
        "label": "_initialized",
        "offset": 0,
        "slot": "0",
        "type": "t_uint8"
      },
      {
        "astId": 141,
        "contract": "contracts/deployment/avalanche/WavaxPool.sol:WavaxPool",
        "label": "_initializing",
        "offset": 1,
        "slot": "0",
        "type": "t_bool"
      },
      {
        "astId": 755,
        "contract": "contracts/deployment/avalanche/WavaxPool.sol:WavaxPool",
        "label": "__gap",
        "offset": 0,
        "slot": "1",
        "type": "t_array(t_uint256)50_storage"
      },
      {
        "astId": 10,
        "contract": "contracts/deployment/avalanche/WavaxPool.sol:WavaxPool",
        "label": "_owner",
        "offset": 0,
        "slot": "51",
        "type": "t_address"
      },
      {
        "astId": 130,
        "contract": "contracts/deployment/avalanche/WavaxPool.sol:WavaxPool",
        "label": "__gap",
        "offset": 0,
        "slot": "52",
        "type": "t_array(t_uint256)49_storage"
      },
      {
        "astId": 314,
        "contract": "contracts/deployment/avalanche/WavaxPool.sol:WavaxPool",
        "label": "_status",
        "offset": 0,
        "slot": "101",
        "type": "t_uint256"
      },
      {
        "astId": 383,
        "contract": "contracts/deployment/avalanche/WavaxPool.sol:WavaxPool",
        "label": "__gap",
        "offset": 0,
        "slot": "102",
        "type": "t_array(t_uint256)49_storage"
      },
      {
        "astId": 2879,
        "contract": "contracts/deployment/avalanche/WavaxPool.sol:WavaxPool",
        "label": "totalSupplyCap",
        "offset": 0,
        "slot": "151",
        "type": "t_uint256"
      },
      {
        "astId": 2885,
        "contract": "contracts/deployment/avalanche/WavaxPool.sol:WavaxPool",
        "label": "_allowed",
        "offset": 0,
        "slot": "152",
        "type": "t_mapping(t_address,t_mapping(t_address,t_uint256))"
      },
      {
        "astId": 2889,
        "contract": "contracts/deployment/avalanche/WavaxPool.sol:WavaxPool",
        "label": "_deposited",
        "offset": 0,
        "slot": "153",
        "type": "t_mapping(t_address,t_uint256)"
      },
      {
        "astId": 2893,
        "contract": "contracts/deployment/avalanche/WavaxPool.sol:WavaxPool",
        "label": "borrowed",
        "offset": 0,
        "slot": "154",
        "type": "t_mapping(t_address,t_uint256)"
      },
      {
        "astId": 2896,
        "contract": "contracts/deployment/avalanche/WavaxPool.sol:WavaxPool",
        "label": "ratesCalculator",
        "offset": 0,
        "slot": "155",
        "type": "t_contract(IRatesCalculator)6683"
      },
      {
        "astId": 2899,
        "contract": "contracts/deployment/avalanche/WavaxPool.sol:WavaxPool",
        "label": "borrowersRegistry",
        "offset": 0,
        "slot": "156",
        "type": "t_contract(IBorrowersRegistry)6580"
      },
      {
        "astId": 2902,
        "contract": "contracts/deployment/avalanche/WavaxPool.sol:WavaxPool",
        "label": "poolRewarder",
        "offset": 0,
        "slot": "157",
        "type": "t_contract(IPoolRewarder)6661"
      },
      {
        "astId": 2905,
        "contract": "contracts/deployment/avalanche/WavaxPool.sol:WavaxPool",
        "label": "depositIndex",
        "offset": 0,
        "slot": "158",
        "type": "t_contract(IIndex)6607"
      },
      {
        "astId": 2908,
        "contract": "contracts/deployment/avalanche/WavaxPool.sol:WavaxPool",
        "label": "borrowIndex",
        "offset": 0,
        "slot": "159",
        "type": "t_contract(IIndex)6607"
      },
      {
        "astId": 2910,
        "contract": "contracts/deployment/avalanche/WavaxPool.sol:WavaxPool",
        "label": "tokenAddress",
        "offset": 0,
        "slot": "160",
        "type": "t_address_payable"
      },
      {
        "astId": 2913,
        "contract": "contracts/deployment/avalanche/WavaxPool.sol:WavaxPool",
        "label": "vestingDistributor",
        "offset": 0,
        "slot": "161",
        "type": "t_contract(VestingDistributor)6106"
      },
      {
        "astId": 2915,
        "contract": "contracts/deployment/avalanche/WavaxPool.sol:WavaxPool",
        "label": "_decimals",
        "offset": 20,
        "slot": "161",
        "type": "t_uint8"
      },
      {
        "astId": 2928,
        "contract": "contracts/deployment/avalanche/WavaxPool.sol:WavaxPool",
        "label": "locks",
        "offset": 0,
        "slot": "162",
        "type": "t_mapping(t_address,t_array(t_struct(LockDetails)2922_storage)dyn_storage)"
      },
      {
        "astId": 2936,
        "contract": "contracts/deployment/avalanche/WavaxPool.sol:WavaxPool",
        "label": "tokenManager",
        "offset": 0,
        "slot": "163",
        "type": "t_contract(ITokenManager)6907"
      }
    ],
    "types": {
      "t_address": {
        "encoding": "inplace",
        "label": "address",
        "numberOfBytes": "20"
      },
      "t_address_payable": {
        "encoding": "inplace",
        "label": "address payable",
        "numberOfBytes": "20"
      },
      "t_array(t_struct(LockDetails)2922_storage)dyn_storage": {
        "base": "t_struct(LockDetails)2922_storage",
        "encoding": "dynamic_array",
        "label": "struct Pool.LockDetails[]",
        "numberOfBytes": "32"
      },
      "t_array(t_uint256)49_storage": {
        "base": "t_uint256",
        "encoding": "inplace",
        "label": "uint256[49]",
        "numberOfBytes": "1568"
      },
      "t_array(t_uint256)50_storage": {
        "base": "t_uint256",
        "encoding": "inplace",
        "label": "uint256[50]",
        "numberOfBytes": "1600"
      },
      "t_bool": {
        "encoding": "inplace",
        "label": "bool",
        "numberOfBytes": "1"
      },
      "t_contract(IBorrowersRegistry)6580": {
        "encoding": "inplace",
        "label": "contract IBorrowersRegistry",
        "numberOfBytes": "20"
      },
      "t_contract(IIndex)6607": {
        "encoding": "inplace",
        "label": "contract IIndex",
        "numberOfBytes": "20"
      },
      "t_contract(IPoolRewarder)6661": {
        "encoding": "inplace",
        "label": "contract IPoolRewarder",
        "numberOfBytes": "20"
      },
      "t_contract(IRatesCalculator)6683": {
        "encoding": "inplace",
        "label": "contract IRatesCalculator",
        "numberOfBytes": "20"
      },
      "t_contract(ITokenManager)6907": {
        "encoding": "inplace",
        "label": "contract ITokenManager",
        "numberOfBytes": "20"
      },
      "t_contract(VestingDistributor)6106": {
        "encoding": "inplace",
        "label": "contract VestingDistributor",
        "numberOfBytes": "20"
      },
      "t_mapping(t_address,t_array(t_struct(LockDetails)2922_storage)dyn_storage)": {
        "encoding": "mapping",
        "key": "t_address",
        "label": "mapping(address => struct Pool.LockDetails[])",
        "numberOfBytes": "32",
        "value": "t_array(t_struct(LockDetails)2922_storage)dyn_storage"
      },
      "t_mapping(t_address,t_mapping(t_address,t_uint256))": {
        "encoding": "mapping",
        "key": "t_address",
        "label": "mapping(address => mapping(address => uint256))",
        "numberOfBytes": "32",
        "value": "t_mapping(t_address,t_uint256)"
      },
      "t_mapping(t_address,t_uint256)": {
        "encoding": "mapping",
        "key": "t_address",
        "label": "mapping(address => uint256)",
        "numberOfBytes": "32",
        "value": "t_uint256"
      },
      "t_struct(LockDetails)2922_storage": {
        "encoding": "inplace",
        "label": "struct Pool.LockDetails",
        "members": [
          {
            "astId": 2917,
            "contract": "contracts/deployment/avalanche/WavaxPool.sol:WavaxPool",
            "label": "lockTime",
            "offset": 0,
            "slot": "0",
            "type": "t_uint256"
          },
          {
            "astId": 2919,
            "contract": "contracts/deployment/avalanche/WavaxPool.sol:WavaxPool",
            "label": "amount",
            "offset": 0,
            "slot": "1",
            "type": "t_uint256"
          },
          {
            "astId": 2921,
            "contract": "contracts/deployment/avalanche/WavaxPool.sol:WavaxPool",
            "label": "unlockTime",
            "offset": 0,
            "slot": "2",
            "type": "t_uint256"
          }
        ],
        "numberOfBytes": "96"
      },
      "t_uint256": {
        "encoding": "inplace",
        "label": "uint256",
        "numberOfBytes": "32"
      },
      "t_uint8": {
        "encoding": "inplace",
        "label": "uint8",
        "numberOfBytes": "1"
      }
    }
  }
}