{
  "address": "0x02dEb6ea462cD896a07c23E141E0E17a01f02bfB",
  "abi": [
    {
      "inputs": [],
      "name": "BorrowersRegistryNotConfigured",
      "type": "error"
    },
    {
      "inputs": [],
      "name": "BurnAmountExceedsBalance",
      "type": "error"
    },
    {
      "inputs": [
        {
          "internalType": "uint256",
          "name": "requested",
          "type": "uint256"
        },
        {
          "internalType": "uint256",
          "name": "allowance",
          "type": "uint256"
        }
      ],
      "name": "InsufficientAllowance",
      "type": "error"
    },
    {
      "inputs": [],
      "name": "InsufficientPoolFunds",
      "type": "error"
    },
    {
      "inputs": [],
      "name": "InsufficientSurplus",
      "type": "error"
    },
    {
      "inputs": [],
      "name": "MaxPoolUtilisationBreached",
      "type": "error"
    },
    {
      "inputs": [],
      "name": "MintToAddressZero",
      "type": "error"
    },
    {
      "inputs": [
        {
          "internalType": "address",
          "name": "target",
          "type": "address"
        }
      ],
      "name": "NotAContract",
      "type": "error"
    },
    {
      "inputs": [],
      "name": "NotAuthorizedToBorrow",
      "type": "error"
    },
    {
      "inputs": [],
      "name": "PoolFrozen",
      "type": "error"
    },
    {
      "inputs": [],
      "name": "RepayingMoreThanWasBorrowed",
      "type": "error"
    },
    {
      "inputs": [],
      "name": "SpenderZeroAddress",
      "type": "error"
    },
    {
      "inputs": [],
      "name": "TotalSupplyCapBreached",
      "type": "error"
    },
    {
      "inputs": [
        {
          "internalType": "uint256",
          "name": "amount",
          "type": "uint256"
        },
        {
          "internalType": "uint256",
          "name": "balance",
          "type": "uint256"
        }
      ],
      "name": "TransferAmountExceedsBalance",
      "type": "error"
    },
    {
      "inputs": [],
      "name": "TransferToPoolAddress",
      "type": "error"
    },
    {
      "inputs": [],
      "name": "TransferToZeroAddress",
      "type": "error"
    },
    {
      "inputs": [],
      "name": "ZeroDepositAmount",
      "type": "error"
    },
    {
      "anonymous": false,
      "inputs": [
        {
          "indexed": true,
          "internalType": "address",
          "name": "owner",
          "type": "address"
        },
        {
          "indexed": true,
          "internalType": "address",
          "name": "spender",
          "type": "address"
        },
        {
          "indexed": false,
          "internalType": "uint256",
          "name": "value",
          "type": "uint256"
        }
      ],
      "name": "Approval",
      "type": "event"
    },
    {
      "anonymous": false,
      "inputs": [
        {
          "indexed": true,
          "internalType": "address",
          "name": "registry",
          "type": "address"
        },
        {
          "indexed": false,
          "internalType": "uint256",
          "name": "timestamp",
          "type": "uint256"
        }
      ],
      "name": "BorrowersRegistryChanged",
      "type": "event"
    },
    {
      "anonymous": false,
      "inputs": [
        {
          "indexed": true,
          "internalType": "address",
          "name": "user",
          "type": "address"
        },
        {
          "indexed": false,
          "internalType": "uint256",
          "name": "value",
          "type": "uint256"
        },
        {
          "indexed": false,
          "internalType": "uint256",
          "name": "timestamp",
          "type": "uint256"
        }
      ],
      "name": "Borrowing",
      "type": "event"
    },
    {
      "anonymous": false,
      "inputs": [
        {
          "indexed": true,
          "internalType": "address",
          "name": "user",
          "type": "address"
        },
        {
          "indexed": false,
          "internalType": "uint256",
          "name": "value",
          "type": "uint256"
        },
        {
          "indexed": false,
          "internalType": "uint256",
          "name": "timestamp",
          "type": "uint256"
        }
      ],
      "name": "Deposit",
      "type": "event"
    },
    {
      "anonymous": false,
      "inputs": [
        {
          "indexed": true,
          "internalType": "address",
          "name": "user",
          "type": "address"
        },
        {
          "indexed": false,
          "internalType": "uint256",
          "name": "value",
          "type": "uint256"
        },
        {
          "indexed": false,
          "internalType": "uint256",
          "name": "timestamp",
          "type": "uint256"
        }
      ],
      "name": "InterestCollected",
      "type": "event"
    },
    {
      "anonymous": false,
      "inputs": [
        {
          "indexed": true,
          "internalType": "address",
          "name": "previousOwner",
          "type": "address"
        },
        {
          "indexed": true,
          "internalType": "address",
          "name": "newOwner",
          "type": "address"
        }
      ],
      "name": "OwnershipTransferred",
      "type": "event"
    },
    {
      "anonymous": false,
      "inputs": [
        {
          "indexed": true,
          "internalType": "address",
          "name": "poolRewarder",
          "type": "address"
        },
        {
          "indexed": false,
          "internalType": "uint256",
          "name": "timestamp",
          "type": "uint256"
        }
      ],
      "name": "PoolRewarderChanged",
      "type": "event"
    },
    {
      "anonymous": false,
      "inputs": [
        {
          "indexed": true,
          "internalType": "address",
          "name": "calculator",
          "type": "address"
        },
        {
          "indexed": false,
          "internalType": "uint256",
          "name": "timestamp",
          "type": "uint256"
        }
      ],
      "name": "RatesCalculatorChanged",
      "type": "event"
    },
    {
      "anonymous": false,
      "inputs": [
        {
          "indexed": true,
          "internalType": "address",
          "name": "user",
          "type": "address"
        },
        {
          "indexed": false,
          "internalType": "uint256",
          "name": "value",
          "type": "uint256"
        },
        {
          "indexed": false,
          "internalType": "uint256",
          "name": "timestamp",
          "type": "uint256"
        }
      ],
      "name": "Repayment",
      "type": "event"
    },
    {
      "anonymous": false,
      "inputs": [
        {
          "indexed": true,
          "internalType": "address",
          "name": "from",
          "type": "address"
        },
        {
          "indexed": true,
          "internalType": "address",
          "name": "to",
          "type": "address"
        },
        {
          "indexed": false,
          "internalType": "uint256",
          "name": "value",
          "type": "uint256"
        }
      ],
      "name": "Transfer",
      "type": "event"
    },
    {
      "anonymous": false,
      "inputs": [
        {
          "indexed": true,
          "internalType": "address",
          "name": "user",
          "type": "address"
        },
        {
          "indexed": false,
          "internalType": "uint256",
          "name": "value",
          "type": "uint256"
        },
        {
          "indexed": false,
          "internalType": "uint256",
          "name": "timestamp",
          "type": "uint256"
        }
      ],
      "name": "Withdrawal",
      "type": "event"
    },
    {
      "inputs": [
        {
          "internalType": "address",
          "name": "owner",
          "type": "address"
        },
        {
          "internalType": "address",
          "name": "spender",
          "type": "address"
        }
      ],
      "name": "allowance",
      "outputs": [
        {
          "internalType": "uint256",
          "name": "",
          "type": "uint256"
        }
      ],
      "stateMutability": "view",
      "type": "function"
    },
    {
      "inputs": [
        {
          "internalType": "address",
          "name": "spender",
          "type": "address"
        },
        {
          "internalType": "uint256",
          "name": "amount",
          "type": "uint256"
        }
      ],
      "name": "approve",
      "outputs": [
        {
          "internalType": "bool",
          "name": "",
          "type": "bool"
        }
      ],
      "stateMutability": "nonpayable",
      "type": "function"
    },
    {
      "inputs": [
        {
          "internalType": "address",
          "name": "user",
          "type": "address"
        }
      ],
      "name": "balanceOf",
      "outputs": [
        {
          "internalType": "uint256",
          "name": "",
          "type": "uint256"
        }
      ],
      "stateMutability": "view",
      "type": "function"
    },
    {
      "inputs": [
        {
          "internalType": "uint256",
          "name": "_amount",
          "type": "uint256"
        }
      ],
      "name": "borrow",
      "outputs": [],
      "stateMutability": "nonpayable",
      "type": "function"
    },
    {
      "inputs": [],
      "name": "borrowIndex",
      "outputs": [
        {
          "internalType": "contract IIndex",
          "name": "",
          "type": "address"
        }
      ],
      "stateMutability": "view",
      "type": "function"
    },
    {
      "inputs": [
        {
          "internalType": "address",
          "name": "",
          "type": "address"
        }
      ],
      "name": "borrowed",
      "outputs": [
        {
          "internalType": "uint256",
          "name": "",
          "type": "uint256"
        }
      ],
      "stateMutability": "view",
      "type": "function"
    },
    {
      "inputs": [],
      "name": "borrowersRegistry",
      "outputs": [
        {
          "internalType": "contract IBorrowersRegistry",
          "name": "",
          "type": "address"
        }
      ],
      "stateMutability": "view",
      "type": "function"
    },
    {
      "inputs": [],
      "name": "checkRewards",
      "outputs": [
        {
          "internalType": "uint256",
          "name": "",
          "type": "uint256"
        }
      ],
      "stateMutability": "view",
      "type": "function"
    },
    {
      "inputs": [
        {
          "internalType": "address",
          "name": "spender",
          "type": "address"
        },
        {
          "internalType": "uint256",
          "name": "subtractedValue",
          "type": "uint256"
        }
      ],
      "name": "decreaseAllowance",
      "outputs": [
        {
          "internalType": "bool",
          "name": "",
          "type": "bool"
        }
      ],
      "stateMutability": "nonpayable",
      "type": "function"
    },
    {
      "inputs": [
        {
          "internalType": "uint256",
          "name": "_amount",
          "type": "uint256"
        }
      ],
      "name": "deposit",
      "outputs": [],
      "stateMutability": "nonpayable",
      "type": "function"
    },
    {
      "inputs": [],
      "name": "depositIndex",
      "outputs": [
        {
          "internalType": "contract IIndex",
          "name": "",
          "type": "address"
        }
      ],
      "stateMutability": "view",
      "type": "function"
    },
    {
      "inputs": [],
      "name": "depositNativeToken",
      "outputs": [],
      "stateMutability": "payable",
      "type": "function"
    },
    {
      "inputs": [
        {
          "internalType": "address",
          "name": "_user",
          "type": "address"
        }
      ],
      "name": "getBorrowed",
      "outputs": [
        {
          "internalType": "uint256",
          "name": "",
          "type": "uint256"
        }
      ],
      "stateMutability": "view",
      "type": "function"
    },
    {
      "inputs": [],
      "name": "getBorrowingRate",
      "outputs": [
        {
          "internalType": "uint256",
          "name": "",
          "type": "uint256"
        }
      ],
      "stateMutability": "view",
      "type": "function"
    },
    {
      "inputs": [],
      "name": "getDepositRate",
      "outputs": [
        {
          "internalType": "uint256",
          "name": "",
          "type": "uint256"
        }
      ],
      "stateMutability": "view",
      "type": "function"
    },
    {
      "inputs": [],
      "name": "getFullPoolStatus",
      "outputs": [
        {
          "internalType": "uint256[5]",
          "name": "",
          "type": "uint256[5]"
        }
      ],
      "stateMutability": "view",
      "type": "function"
    },
    {
      "inputs": [],
      "name": "getMaxPoolUtilisationForBorrowing",
      "outputs": [
        {
          "internalType": "uint256",
          "name": "",
          "type": "uint256"
        }
      ],
      "stateMutability": "view",
      "type": "function"
    },
    {
      "inputs": [],
      "name": "getRewards",
      "outputs": [],
      "stateMutability": "nonpayable",
      "type": "function"
    },
    {
      "inputs": [
        {
          "internalType": "address",
          "name": "spender",
          "type": "address"
        },
        {
          "internalType": "uint256",
          "name": "addedValue",
          "type": "uint256"
        }
      ],
      "name": "increaseAllowance",
      "outputs": [
        {
          "internalType": "bool",
          "name": "",
          "type": "bool"
        }
      ],
      "stateMutability": "nonpayable",
      "type": "function"
    },
    {
      "inputs": [
        {
          "internalType": "contract IRatesCalculator",
          "name": "ratesCalculator_",
          "type": "address"
        },
        {
          "internalType": "contract IBorrowersRegistry",
          "name": "borrowersRegistry_",
          "type": "address"
        },
        {
          "internalType": "contract IIndex",
          "name": "depositIndex_",
          "type": "address"
        },
        {
          "internalType": "contract IIndex",
          "name": "borrowIndex_",
          "type": "address"
        },
        {
          "internalType": "address payable",
          "name": "tokenAddress_",
          "type": "address"
        },
        {
          "internalType": "contract IPoolRewarder",
          "name": "poolRewarder_",
          "type": "address"
        },
        {
          "internalType": "uint256",
          "name": "_totalSupplyCap",
          "type": "uint256"
        }
      ],
      "name": "initialize",
      "outputs": [],
      "stateMutability": "nonpayable",
      "type": "function"
    },
    {
      "inputs": [],
      "name": "owner",
      "outputs": [
        {
          "internalType": "address",
          "name": "",
          "type": "address"
        }
      ],
      "stateMutability": "view",
      "type": "function"
    },
    {
      "inputs": [],
      "name": "poolRewarder",
      "outputs": [
        {
          "internalType": "contract IPoolRewarder",
          "name": "",
          "type": "address"
        }
      ],
      "stateMutability": "view",
      "type": "function"
    },
    {
      "inputs": [],
      "name": "ratesCalculator",
      "outputs": [
        {
          "internalType": "contract IRatesCalculator",
          "name": "",
          "type": "address"
        }
      ],
      "stateMutability": "view",
      "type": "function"
    },
    {
      "inputs": [
        {
          "internalType": "uint256",
          "name": "amount",
          "type": "uint256"
        },
        {
          "internalType": "address",
          "name": "account",
          "type": "address"
        }
      ],
      "name": "recoverSurplus",
      "outputs": [],
      "stateMutability": "nonpayable",
      "type": "function"
    },
    {
      "inputs": [],
      "name": "renounceOwnership",
      "outputs": [],
      "stateMutability": "nonpayable",
      "type": "function"
    },
    {
      "inputs": [
        {
          "internalType": "uint256",
          "name": "amount",
          "type": "uint256"
        }
      ],
      "name": "repay",
      "outputs": [],
      "stateMutability": "nonpayable",
      "type": "function"
    },
    {
      "inputs": [
        {
          "internalType": "contract IBorrowersRegistry",
          "name": "borrowersRegistry_",
          "type": "address"
        }
      ],
      "name": "setBorrowersRegistry",
      "outputs": [],
      "stateMutability": "nonpayable",
      "type": "function"
    },
    {
      "inputs": [
        {
          "internalType": "contract IPoolRewarder",
          "name": "_poolRewarder",
          "type": "address"
        }
      ],
      "name": "setPoolRewarder",
      "outputs": [],
      "stateMutability": "nonpayable",
      "type": "function"
    },
    {
      "inputs": [
        {
          "internalType": "contract IRatesCalculator",
          "name": "ratesCalculator_",
          "type": "address"
        }
      ],
      "name": "setRatesCalculator",
      "outputs": [],
      "stateMutability": "nonpayable",
      "type": "function"
    },
    {
      "inputs": [
        {
          "internalType": "uint256",
          "name": "_newTotalSupplyCap",
          "type": "uint256"
        }
      ],
      "name": "setTotalSupplyCap",
      "outputs": [],
      "stateMutability": "nonpayable",
      "type": "function"
    },
    {
      "inputs": [],
      "name": "tokenAddress",
      "outputs": [
        {
          "internalType": "address payable",
          "name": "",
          "type": "address"
        }
      ],
      "stateMutability": "view",
      "type": "function"
    },
    {
      "inputs": [],
      "name": "totalBorrowed",
      "outputs": [
        {
          "internalType": "uint256",
          "name": "",
          "type": "uint256"
        }
      ],
      "stateMutability": "view",
      "type": "function"
    },
    {
      "inputs": [],
      "name": "totalSupply",
      "outputs": [
        {
          "internalType": "uint256",
          "name": "",
          "type": "uint256"
        }
      ],
      "stateMutability": "view",
      "type": "function"
    },
    {
      "inputs": [],
      "name": "totalSupplyCap",
      "outputs": [
        {
          "internalType": "uint256",
          "name": "",
          "type": "uint256"
        }
      ],
      "stateMutability": "view",
      "type": "function"
    },
    {
      "inputs": [
        {
          "internalType": "address",
          "name": "recipient",
          "type": "address"
        },
        {
          "internalType": "uint256",
          "name": "amount",
          "type": "uint256"
        }
      ],
      "name": "transfer",
      "outputs": [
        {
          "internalType": "bool",
          "name": "",
          "type": "bool"
        }
      ],
      "stateMutability": "nonpayable",
      "type": "function"
    },
    {
      "inputs": [
        {
          "internalType": "address",
          "name": "sender",
          "type": "address"
        },
        {
          "internalType": "address",
          "name": "recipient",
          "type": "address"
        },
        {
          "internalType": "uint256",
          "name": "amount",
          "type": "uint256"
        }
      ],
      "name": "transferFrom",
      "outputs": [
        {
          "internalType": "bool",
          "name": "",
          "type": "bool"
        }
      ],
      "stateMutability": "nonpayable",
      "type": "function"
    },
    {
      "inputs": [
        {
          "internalType": "address",
          "name": "newOwner",
          "type": "address"
        }
      ],
      "name": "transferOwnership",
      "outputs": [],
      "stateMutability": "nonpayable",
      "type": "function"
    },
    {
      "inputs": [
        {
          "internalType": "uint256",
          "name": "_amount",
          "type": "uint256"
        }
      ],
      "name": "withdraw",
      "outputs": [],
      "stateMutability": "nonpayable",
      "type": "function"
    },
    {
      "inputs": [
        {
          "internalType": "uint256",
          "name": "_amount",
          "type": "uint256"
        }
      ],
      "name": "withdrawNativeToken",
      "outputs": [],
      "stateMutability": "nonpayable",
      "type": "function"
    },
    {
      "stateMutability": "payable",
      "type": "receive"
    }
  ],
  "transactionHash": "0xc5ae3dab410cdb65ee13e665be0bb92930a7de4285f5cb025b325c97ca8d12d8",
  "args": [],
  "numDeployments": 2,
  "solcInputHash": "8b8993319ae87c45b3a6fcbb51b48d1f",
  "bytecode": "0x608060405234801561001057600080fd5b50615ea080620000216000396000f3fe6080604052600436106102345760003560e01c806370d4cea01161012e578063b75c42bd116100ab578063dd62ed3e1161006f578063dd62ed3e14610829578063ee61bd6e14610866578063f2fde38b14610891578063f36b2425146108ba578063fc68f661146108e55761023b565b8063b75c42bd14610754578063b790634e1461077f578063bb102aea146107aa578063c5ebeaec146107d5578063d06dca89146107fe5761023b565b80639d76ea58116100f25780639d76ea581461065b578063a457c2d714610686578063a9059cbb146106c3578063aa5af0fd14610700578063b6b55f251461072b5761023b565b806370d4cea0146105bb578063715018a6146105e457806379433d8b146105fb5780637b898939146106055780638da5cb5b146106305761023b565b80632aeaa291116101bc5780634c19386c116101805780634c19386c146104c05780636011163e146104eb57806361215aa8146105285780636ca6d5d01461055357806370a082311461057e5761023b565b80632aeaa291146103dd5780632e1a7d4d1461040857806331d05b1114610431578063371fd8e61461045a57806339509351146104835761023b565b80631457db34116102035780631457db34146102fa5780631460e3901461032357806317e0f2521461034c57806318160ddd1461037557806323b872dd146103a05761023b565b80630572b0cc146102405780630790ef9a146102575780630941cb3d14610280578063095ea7b3146102bd5761023b565b3661023b57005b600080fd5b34801561024c57600080fd5b5061025561090e565b005b34801561026357600080fd5b5061027e60048036038101906102799190614ff8565b61099d565b005b34801561028c57600080fd5b506102a760048036038101906102a29190615038565b610bbb565b6040516102b49190615074565b60405180910390f35b3480156102c957600080fd5b506102e460048036038101906102df919061508f565b610bd3565b6040516102f191906150ea565b60405180910390f35b34801561030657600080fd5b50610321600480360381019061031c9190615143565b610d2a565b005b34801561032f57600080fd5b5061034a60048036038101906103459190615268565b610edf565b005b34801561035857600080fd5b50610373600480360381019061036e919061530a565b611232565b005b34801561038157600080fd5b5061038a61163e565b6040516103979190615074565b60405180910390f35b3480156103ac57600080fd5b506103c760048036038101906103c29190615337565b61164e565b6040516103d491906150ea565b60405180910390f35b3480156103e957600080fd5b506103f2611c84565b6040516103ff9190615074565b60405180910390f35b34801561041457600080fd5b5061042f600480360381019061042a919061530a565b611d26565b005b34801561043d57600080fd5b506104586004803603810190610453919061530a565b612086565b005b34801561046657600080fd5b50610481600480360381019061047c919061530a565b61210c565b005b34801561048f57600080fd5b506104aa60048036038101906104a5919061508f565b6122f4565b6040516104b791906150ea565b60405180910390f35b3480156104cc57600080fd5b506104d56124d8565b6040516104e29190615074565b60405180910390f35b3480156104f757600080fd5b50610512600480360381019061050d9190615038565b6124e8565b60405161051f9190615074565b60405180910390f35b34801561053457600080fd5b5061053d6125ce565b60405161054a9190615074565b60405180910390f35b34801561055f57600080fd5b506105686125de565b60405161057591906153e9565b60405180910390f35b34801561058a57600080fd5b506105a560048036038101906105a09190615038565b612604565b6040516105b29190615074565b60405180910390f35b3480156105c757600080fd5b506105e260048036038101906105dd9190615404565b6126ea565b005b3480156105f057600080fd5b506105f96128ba565b005b6106036128bc565b005b34801561061157600080fd5b5061061a612bb3565b6040516106279190615452565b60405180910390f35b34801561063c57600080fd5b50610645612bd9565b604051610652919061547c565b60405180910390f35b34801561066757600080fd5b50610670612c03565b60405161067d91906154a6565b60405180910390f35b34801561069257600080fd5b506106ad60048036038101906106a8919061508f565b612c29565b6040516106ba91906150ea565b60405180910390f35b3480156106cf57600080fd5b506106ea60048036038101906106e5919061508f565b612e5a565b6040516106f791906150ea565b60405180910390f35b34801561070c57600080fd5b506107156132b3565b6040516107229190615452565b60405180910390f35b34801561073757600080fd5b50610752600480360381019061074d919061530a565b6132d9565b005b34801561076057600080fd5b50610769613654565b604051610776919061556c565b60405180910390f35b34801561078b57600080fd5b506107946136ab565b6040516107a19190615074565b60405180910390f35b3480156107b657600080fd5b506107bf61375e565b6040516107cc9190615074565b60405180910390f35b3480156107e157600080fd5b506107fc60048036038101906107f7919061530a565b613764565b005b34801561080a57600080fd5b50610813613bb0565b60405161082091906155a8565b60405180910390f35b34801561083557600080fd5b50610850600480360381019061084b91906155c3565b613bd6565b60405161085d9190615074565b60405180910390f35b34801561087257600080fd5b5061087b613c5d565b6040516108889190615624565b60405180910390f35b34801561089d57600080fd5b506108b860048036038101906108b39190615038565b613c83565b005b3480156108c657600080fd5b506108cf613d7a565b6040516108dc9190615074565b60405180910390f35b3480156108f157600080fd5b5061090c6004803603810190610907919061563f565b613e2d565b005b609d60009054906101000a900473ffffffffffffffffffffffffffffffffffffffff1673ffffffffffffffffffffffffffffffffffffffff16632260b83e336040518263ffffffff1660e01b8152600401610969919061547c565b600060405180830381600087803b15801561098357600080fd5b505af1158015610997573d6000803e3d6000fd5b50505050565b6109a5613f85565b73ffffffffffffffffffffffffffffffffffffffff166109c3612bd9565b73ffffffffffffffffffffffffffffffffffffffff1614610a19576040517f08c379a0000000000000000000000000000000000000000000000000000000008152600401610a10906156c9565b60405180910390fd5b600260655403610a5e576040517f08c379a0000000000000000000000000000000000000000000000000000000008152600401610a5590615735565b60405180910390fd5b6002606581905550600060a060009054906101000a900473ffffffffffffffffffffffffffffffffffffffff1673ffffffffffffffffffffffffffffffffffffffff166370a08231306040518263ffffffff1660e01b8152600401610ac3919061547c565b602060405180830381865afa158015610ae0573d6000803e3d6000fd5b505050506040513d601f19601f82011682018060405250810190610b04919061576a565b90506000610b1061163e565b610b186124d8565b83610b2391906157c6565b610b2d91906157fa565b905081841115610b69576040517f5b5724fc00000000000000000000000000000000000000000000000000000000815260040160405180910390fd5b83811015610ba3576040517f94290ab900000000000000000000000000000000000000000000000000000000815260040160405180910390fd5b610bad8385613f8d565b505060016065819055505050565b609a6020528060005260406000206000915090505481565b60008073ffffffffffffffffffffffffffffffffffffffff168373ffffffffffffffffffffffffffffffffffffffff1603610c3a576040517f7acc038e00000000000000000000000000000000000000000000000000000000815260040160405180910390fd5b81609860003373ffffffffffffffffffffffffffffffffffffffff1673ffffffffffffffffffffffffffffffffffffffff16815260200190815260200160002060008573ffffffffffffffffffffffffffffffffffffffff1673ffffffffffffffffffffffffffffffffffffffff168152602001908152602001600020819055508273ffffffffffffffffffffffffffffffffffffffff163373ffffffffffffffffffffffffffffffffffffffff167f8c5be1e5ebec7d5bd14f71427d1e84f3dd0314c0f7b2291e5b200ac8c7c3b92584604051610d189190615074565b60405180910390a36001905092915050565b610d32613f85565b73ffffffffffffffffffffffffffffffffffffffff16610d50612bd9565b73ffffffffffffffffffffffffffffffffffffffff1614610da6576040517f08c379a0000000000000000000000000000000000000000000000000000000008152600401610d9d906156c9565b60405180910390fd5b610daf81613fde565b158015610de95750600073ffffffffffffffffffffffffffffffffffffffff168173ffffffffffffffffffffffffffffffffffffffff1614155b15610e4d57609d60009054906101000a900473ffffffffffffffffffffffffffffffffffffffff166040517f8a8b41ec000000000000000000000000000000000000000000000000000000008152600401610e44919061547c565b60405180910390fd5b80609d60006101000a81548173ffffffffffffffffffffffffffffffffffffffff021916908373ffffffffffffffffffffffffffffffffffffffff1602179055508073ffffffffffffffffffffffffffffffffffffffff167f85796821ee1d670b0fdb986f256b5c1a29b9019038831c7f09df2061879cf9e542604051610ed49190615074565b60405180910390a250565b600060019054906101000a900460ff16610f075760008054906101000a900460ff1615610f10565b610f0f614001565b5b610f4f576040517f08c379a0000000000000000000000000000000000000000000000000000000008152600401610f46906158a0565b60405180910390fd5b60008060019054906101000a900460ff161590508015610f9f576001600060016101000a81548160ff02191690831515021790555060016000806101000a81548160ff0219169083151502179055505b610fa888613fde565b8015610fb95750610fb887613fde565b5b8015610fca5750610fc986613fde565b5b8015610fdb5750610fda85613fde565b5b80156110235750610feb83613fde565b806110225750600073ffffffffffffffffffffffffffffffffffffffff168373ffffffffffffffffffffffffffffffffffffffff16145b5b611062576040517f08c379a00000000000000000000000000000000000000000000000000000000081526004016110599061590c565b60405180910390fd5b86609c60006101000a81548173ffffffffffffffffffffffffffffffffffffffff021916908373ffffffffffffffffffffffffffffffffffffffff16021790555087609b60006101000a81548173ffffffffffffffffffffffffffffffffffffffff021916908373ffffffffffffffffffffffffffffffffffffffff16021790555085609e60006101000a81548173ffffffffffffffffffffffffffffffffffffffff021916908373ffffffffffffffffffffffffffffffffffffffff16021790555084609f60006101000a81548173ffffffffffffffffffffffffffffffffffffffff021916908373ffffffffffffffffffffffffffffffffffffffff16021790555082609d60006101000a81548173ffffffffffffffffffffffffffffffffffffffff021916908373ffffffffffffffffffffffffffffffffffffffff1602179055508360a060006101000a81548173ffffffffffffffffffffffffffffffffffffffff021916908373ffffffffffffffffffffffffffffffffffffffff160217905550816097819055506111f7614012565b6111ff61406b565b6112076140c4565b80156112285760008060016101000a81548160ff0219169083151502179055505b5050505050505050565b600260655403611277576040517f08c379a000000000000000000000000000000000000000000000000000000000815260040161126e90615735565b60405180910390fd5b600260658190555060a060009054906101000a900473ffffffffffffffffffffffffffffffffffffffff1673ffffffffffffffffffffffffffffffffffffffff166370a08231306040518263ffffffff1660e01b81526004016112da919061547c565b602060405180830381865afa1580156112f7573d6000803e3d6000fd5b505050506040513d601f19601f8201168201806040525081019061131b919061576a565b811115611354576040517f5b5724fc00000000000000000000000000000000000000000000000000000000815260040160405180910390fd5b61135d336143bc565b609960003073ffffffffffffffffffffffffffffffffffffffff1673ffffffffffffffffffffffffffffffffffffffff168152602001908152602001600020548111156113d6576040517f177466fe00000000000000000000000000000000000000000000000000000000815260040160405180910390fd5b80609960003073ffffffffffffffffffffffffffffffffffffffff1673ffffffffffffffffffffffffffffffffffffffff1681526020019081526020016000206000828254039250508190555061142d33826145d7565b60a060009054906101000a900473ffffffffffffffffffffffffffffffffffffffff1673ffffffffffffffffffffffffffffffffffffffff16632e1a7d4d826040518263ffffffff1660e01b81526004016114889190615074565b600060405180830381600087803b1580156114a257600080fd5b505af11580156114b6573d6000803e3d6000fd5b505050506114e3813373ffffffffffffffffffffffffffffffffffffffff1661470790919063ffffffff16565b6114eb6140c4565b600073ffffffffffffffffffffffffffffffffffffffff16609d60009054906101000a900473ffffffffffffffffffffffffffffffffffffffff1673ffffffffffffffffffffffffffffffffffffffff16146115e357609d60009054906101000a900473ffffffffffffffffffffffffffffffffffffffff1673ffffffffffffffffffffffffffffffffffffffff16633576f6cc82336040518363ffffffff1660e01b815260040161159e92919061592c565b6020604051808303816000875af11580156115bd573d6000803e3d6000fd5b505050506040513d601f19601f820116820180604052508101906115e1919061576a565b505b3373ffffffffffffffffffffffffffffffffffffffff167fdf273cb619d95419a9cd0ec88123a0538c85064229baa6363788f743fff90deb824260405161162b929190615955565b60405180910390a2600160658190555050565b600061164930612604565b905090565b600081609860008673ffffffffffffffffffffffffffffffffffffffff1673ffffffffffffffffffffffffffffffffffffffff16815260200190815260200160002060003373ffffffffffffffffffffffffffffffffffffffff1673ffffffffffffffffffffffffffffffffffffffff16815260200190815260200160002054101561178f5781609860008673ffffffffffffffffffffffffffffffffffffffff1673ffffffffffffffffffffffffffffffffffffffff16815260200190815260200160002060003373ffffffffffffffffffffffffffffffffffffffff1673ffffffffffffffffffffffffffffffffffffffff168152602001908152602001600020546040517f2a1b2dd8000000000000000000000000000000000000000000000000000000008152600401611786929190615955565b60405180910390fd5b600073ffffffffffffffffffffffffffffffffffffffff168373ffffffffffffffffffffffffffffffffffffffff16036117f5576040517fea553b3400000000000000000000000000000000000000000000000000000000815260040160405180910390fd5b3073ffffffffffffffffffffffffffffffffffffffff168373ffffffffffffffffffffffffffffffffffffffff160361185a576040517fed728e5700000000000000000000000000000000000000000000000000000000815260040160405180910390fd5b611863846143bc565b81609960008673ffffffffffffffffffffffffffffffffffffffff1673ffffffffffffffffffffffffffffffffffffffff1681526020019081526020016000205410156119285781609960008673ffffffffffffffffffffffffffffffffffffffff1673ffffffffffffffffffffffffffffffffffffffff168152602001908152602001600020546040517fa1a48f3a00000000000000000000000000000000000000000000000000000000815260040161191f929190615955565b60405180910390fd5b81609960008673ffffffffffffffffffffffffffffffffffffffff1673ffffffffffffffffffffffffffffffffffffffff168152602001908152602001600020600082825461197791906157fa565b9250508190555081609860008673ffffffffffffffffffffffffffffffffffffffff1673ffffffffffffffffffffffffffffffffffffffff16815260200190815260200160002060003373ffffffffffffffffffffffffffffffffffffffff1673ffffffffffffffffffffffffffffffffffffffff1681526020019081526020016000206000828254611a0a91906157fa565b92505081905550611a1a836143bc565b81609960008573ffffffffffffffffffffffffffffffffffffffff1673ffffffffffffffffffffffffffffffffffffffff1681526020019081526020016000206000828254611a6991906157c6565b92505081905550600073ffffffffffffffffffffffffffffffffffffffff16609d60009054906101000a900473ffffffffffffffffffffffffffffffffffffffff1673ffffffffffffffffffffffffffffffffffffffff1614158015611ad0575060008214155b15611c14576000609d60009054906101000a900473ffffffffffffffffffffffffffffffffffffffff1673ffffffffffffffffffffffffffffffffffffffff16633576f6cc84876040518363ffffffff1660e01b8152600401611b3492919061592c565b6020604051808303816000875af1158015611b53573d6000803e3d6000fd5b505050506040513d601f19601f82011682018060405250810190611b77919061576a565b90506000811115611c1257609d60009054906101000a900473ffffffffffffffffffffffffffffffffffffffff1673ffffffffffffffffffffffffffffffffffffffff166351746bb282866040518363ffffffff1660e01b8152600401611bdf92919061592c565b600060405180830381600087803b158015611bf957600080fd5b505af1158015611c0d573d6000803e3d6000fd5b505050505b505b8273ffffffffffffffffffffffffffffffffffffffff168473ffffffffffffffffffffffffffffffffffffffff167fddf252ad1be2c89b69c2b068fc378daa952ba7f163c4a11628f55a4df523b3ef84604051611c719190615074565b60405180910390a3600190509392505050565b6000609d60009054906101000a900473ffffffffffffffffffffffffffffffffffffffff1673ffffffffffffffffffffffffffffffffffffffff16628cc262336040518263ffffffff1660e01b8152600401611ce0919061547c565b602060405180830381865afa158015611cfd573d6000803e3d6000fd5b505050506040513d601f19601f82011682018060405250810190611d21919061576a565b905090565b600260655403611d6b576040517f08c379a0000000000000000000000000000000000000000000000000000000008152600401611d6290615735565b60405180910390fd5b600260658190555060a060009054906101000a900473ffffffffffffffffffffffffffffffffffffffff1673ffffffffffffffffffffffffffffffffffffffff166370a08231306040518263ffffffff1660e01b8152600401611dce919061547c565b602060405180830381865afa158015611deb573d6000803e3d6000fd5b505050506040513d601f19601f82011682018060405250810190611e0f919061576a565b811115611e48576040517f5b5724fc00000000000000000000000000000000000000000000000000000000815260040160405180910390fd5b611e51336143bc565b609960003073ffffffffffffffffffffffffffffffffffffffff1673ffffffffffffffffffffffffffffffffffffffff16815260200190815260200160002054811115611eca576040517f177466fe00000000000000000000000000000000000000000000000000000000815260040160405180910390fd5b80609960003073ffffffffffffffffffffffffffffffffffffffff1673ffffffffffffffffffffffffffffffffffffffff16815260200190815260200160002060008282540392505081905550611f2133826145d7565b611f2b3382613f8d565b611f336140c4565b600073ffffffffffffffffffffffffffffffffffffffff16609d60009054906101000a900473ffffffffffffffffffffffffffffffffffffffff1673ffffffffffffffffffffffffffffffffffffffff161461202b57609d60009054906101000a900473ffffffffffffffffffffffffffffffffffffffff1673ffffffffffffffffffffffffffffffffffffffff16633576f6cc82336040518363ffffffff1660e01b8152600401611fe692919061592c565b6020604051808303816000875af1158015612005573d6000803e3d6000fd5b505050506040513d601f19601f82011682018060405250810190612029919061576a565b505b3373ffffffffffffffffffffffffffffffffffffffff167fdf273cb619d95419a9cd0ec88123a0538c85064229baa6363788f743fff90deb8242604051612073929190615955565b60405180910390a2600160658190555050565b61208e613f85565b73ffffffffffffffffffffffffffffffffffffffff166120ac612bd9565b73ffffffffffffffffffffffffffffffffffffffff1614612102576040517f08c379a00000000000000000000000000000000000000000000000000000000081526004016120f9906156c9565b60405180910390fd5b8060978190555050565b600260655403612151576040517f08c379a000000000000000000000000000000000000000000000000000000000815260040161214890615735565b60405180910390fd5b600260658190555061216233614807565b609a60003373ffffffffffffffffffffffffffffffffffffffff1673ffffffffffffffffffffffffffffffffffffffff168152602001908152602001600020548111156121db576040517f1b95a86600000000000000000000000000000000000000000000000000000000815260040160405180910390fd5b6121e533826149bc565b80609a60003373ffffffffffffffffffffffffffffffffffffffff1673ffffffffffffffffffffffffffffffffffffffff168152602001908152602001600020600082825461223491906157fa565b9250508190555080609a60003073ffffffffffffffffffffffffffffffffffffffff1673ffffffffffffffffffffffffffffffffffffffff168152602001908152602001600020600082825461228a91906157fa565b925050819055506122996140c4565b3373ffffffffffffffffffffffffffffffffffffffff167f24fcca58a997b1b2eff6db8107e860458544c09ddd3693b3b779e1df6c0d6c5d82426040516122e1929190615955565b60405180910390a2600160658190555050565b60008073ffffffffffffffffffffffffffffffffffffffff168373ffffffffffffffffffffffffffffffffffffffff160361235b576040517f7acc038e00000000000000000000000000000000000000000000000000000000815260040160405180910390fd5b600082609860003373ffffffffffffffffffffffffffffffffffffffff1673ffffffffffffffffffffffffffffffffffffffff16815260200190815260200160002060008673ffffffffffffffffffffffffffffffffffffffff1673ffffffffffffffffffffffffffffffffffffffff168152602001908152602001600020546123e591906157c6565b905080609860003373ffffffffffffffffffffffffffffffffffffffff1673ffffffffffffffffffffffffffffffffffffffff16815260200190815260200160002060008673ffffffffffffffffffffffffffffffffffffffff1673ffffffffffffffffffffffffffffffffffffffff168152602001908152602001600020819055508373ffffffffffffffffffffffffffffffffffffffff163373ffffffffffffffffffffffffffffffffffffffff167f8c5be1e5ebec7d5bd14f71427d1e84f3dd0314c0f7b2291e5b200ac8c7c3b925836040516124c59190615074565b60405180910390a3600191505092915050565b60006124e3306124e8565b905090565b6000609f60009054906101000a900473ffffffffffffffffffffffffffffffffffffffff1673ffffffffffffffffffffffffffffffffffffffff1663966da889609a60008573ffffffffffffffffffffffffffffffffffffffff1673ffffffffffffffffffffffffffffffffffffffff16815260200190815260200160002054846040518363ffffffff1660e01b815260040161258692919061592c565b602060405180830381865afa1580156125a3573d6000803e3d6000fd5b505050506040513d601f19601f820116820180604052508101906125c7919061576a565b9050919050565b6000670c7d713b49da0000905090565b609d60009054906101000a900473ffffffffffffffffffffffffffffffffffffffff1681565b6000609e60009054906101000a900473ffffffffffffffffffffffffffffffffffffffff1673ffffffffffffffffffffffffffffffffffffffff1663966da889609960008573ffffffffffffffffffffffffffffffffffffffff1673ffffffffffffffffffffffffffffffffffffffff16815260200190815260200160002054846040518363ffffffff1660e01b81526004016126a292919061592c565b602060405180830381865afa1580156126bf573d6000803e3d6000fd5b505050506040513d601f19601f820116820180604052508101906126e3919061576a565b9050919050565b6126f2613f85565b73ffffffffffffffffffffffffffffffffffffffff16612710612bd9565b73ffffffffffffffffffffffffffffffffffffffff1614612766576040517f08c379a000000000000000000000000000000000000000000000000000000000815260040161275d906156c9565b60405180910390fd5b61276f81613fde565b1580156127a95750600073ffffffffffffffffffffffffffffffffffffffff168173ffffffffffffffffffffffffffffffffffffffff1614155b156127eb57806040517f8a8b41ec0000000000000000000000000000000000000000000000000000000081526004016127e2919061547c565b60405180910390fd5b80609b60006101000a81548173ffffffffffffffffffffffffffffffffffffffff021916908373ffffffffffffffffffffffffffffffffffffffff160217905550600073ffffffffffffffffffffffffffffffffffffffff168173ffffffffffffffffffffffffffffffffffffffff1614612869576128686140c4565b5b8073ffffffffffffffffffffffffffffffffffffffff167fef1b7e9216e08b283cc613824ccb26ea505227777839a4f3c6810d64594e0182426040516128af9190615074565b60405180910390a250565b565b600034036128f6576040517f078e1d8500000000000000000000000000000000000000000000000000000000815260040160405180910390fd5b6128ff336143bc565b6000609754146129905760975434609960003073ffffffffffffffffffffffffffffffffffffffff1673ffffffffffffffffffffffffffffffffffffffff1681526020019081526020016000205461295791906157c6565b111561298f576040517f3f27d61700000000000000000000000000000000000000000000000000000000815260040160405180910390fd5b5b60a060009054906101000a900473ffffffffffffffffffffffffffffffffffffffff1673ffffffffffffffffffffffffffffffffffffffff1663d0e30db0346040518263ffffffff1660e01b81526004016000604051808303818588803b1580156129fa57600080fd5b505af1158015612a0e573d6000803e3d6000fd5b5050505050612a1d3334614a0f565b34609960003073ffffffffffffffffffffffffffffffffffffffff1673ffffffffffffffffffffffffffffffffffffffff1681526020019081526020016000206000828254612a6c91906157c6565b92505081905550612a7b6140c4565b600073ffffffffffffffffffffffffffffffffffffffff16609d60009054906101000a900473ffffffffffffffffffffffffffffffffffffffff1673ffffffffffffffffffffffffffffffffffffffff1614612b6157609d60009054906101000a900473ffffffffffffffffffffffffffffffffffffffff1673ffffffffffffffffffffffffffffffffffffffff166351746bb234336040518363ffffffff1660e01b8152600401612b2e92919061592c565b600060405180830381600087803b158015612b4857600080fd5b505af1158015612b5c573d6000803e3d6000fd5b505050505b3373ffffffffffffffffffffffffffffffffffffffff167f90890809c654f11d6e72a28fa60149770a0d11ec6c92319d6ceb2bb0a4ea1a153442604051612ba9929190615955565b60405180910390a2565b609e60009054906101000a900473ffffffffffffffffffffffffffffffffffffffff1681565b6000603360009054906101000a900473ffffffffffffffffffffffffffffffffffffffff16905090565b60a060009054906101000a900473ffffffffffffffffffffffffffffffffffffffff1681565b60008073ffffffffffffffffffffffffffffffffffffffff168373ffffffffffffffffffffffffffffffffffffffff1603612c90576040517f7acc038e00000000000000000000000000000000000000000000000000000000815260040160405180910390fd5b6000609860003373ffffffffffffffffffffffffffffffffffffffff1673ffffffffffffffffffffffffffffffffffffffff16815260200190815260200160002060008573ffffffffffffffffffffffffffffffffffffffff1673ffffffffffffffffffffffffffffffffffffffff16815260200190815260200160002054905082811015612d585782816040517f2a1b2dd8000000000000000000000000000000000000000000000000000000008152600401612d4f929190615955565b60405180910390fd5b60008382612d6691906157fa565b905080609860003373ffffffffffffffffffffffffffffffffffffffff1673ffffffffffffffffffffffffffffffffffffffff16815260200190815260200160002060008773ffffffffffffffffffffffffffffffffffffffff1673ffffffffffffffffffffffffffffffffffffffff168152602001908152602001600020819055508473ffffffffffffffffffffffffffffffffffffffff163373ffffffffffffffffffffffffffffffffffffffff167f8c5be1e5ebec7d5bd14f71427d1e84f3dd0314c0f7b2291e5b200ac8c7c3b92583604051612e469190615074565b60405180910390a360019250505092915050565b60008073ffffffffffffffffffffffffffffffffffffffff168373ffffffffffffffffffffffffffffffffffffffff1603612ec1576040517fea553b3400000000000000000000000000000000000000000000000000000000815260040160405180910390fd5b3073ffffffffffffffffffffffffffffffffffffffff168373ffffffffffffffffffffffffffffffffffffffff1603612f26576040517fed728e5700000000000000000000000000000000000000000000000000000000815260040160405180910390fd5b612f2f336143bc565b81609960003373ffffffffffffffffffffffffffffffffffffffff1673ffffffffffffffffffffffffffffffffffffffff168152602001908152602001600020541015612ff45781609960003373ffffffffffffffffffffffffffffffffffffffff1673ffffffffffffffffffffffffffffffffffffffff168152602001908152602001600020546040517fa1a48f3a000000000000000000000000000000000000000000000000000000008152600401612feb929190615955565b60405180910390fd5b81609960003373ffffffffffffffffffffffffffffffffffffffff1673ffffffffffffffffffffffffffffffffffffffff1681526020019081526020016000206000828254039250508190555061304a836143bc565b81609960008573ffffffffffffffffffffffffffffffffffffffff1673ffffffffffffffffffffffffffffffffffffffff168152602001908152602001600020600082825461309991906157c6565b92505081905550600073ffffffffffffffffffffffffffffffffffffffff16609d60009054906101000a900473ffffffffffffffffffffffffffffffffffffffff1673ffffffffffffffffffffffffffffffffffffffff1614158015613100575060008214155b15613244576000609d60009054906101000a900473ffffffffffffffffffffffffffffffffffffffff1673ffffffffffffffffffffffffffffffffffffffff16633576f6cc84336040518363ffffffff1660e01b815260040161316492919061592c565b6020604051808303816000875af1158015613183573d6000803e3d6000fd5b505050506040513d601f19601f820116820180604052508101906131a7919061576a565b9050600081111561324257609d60009054906101000a900473ffffffffffffffffffffffffffffffffffffffff1673ffffffffffffffffffffffffffffffffffffffff166351746bb282866040518363ffffffff1660e01b815260040161320f92919061592c565b600060405180830381600087803b15801561322957600080fd5b505af115801561323d573d6000803e3d6000fd5b505050505b505b8273ffffffffffffffffffffffffffffffffffffffff163373ffffffffffffffffffffffffffffffffffffffff167fddf252ad1be2c89b69c2b068fc378daa952ba7f163c4a11628f55a4df523b3ef846040516132a19190615074565b60405180910390a36001905092915050565b609f60009054906101000a900473ffffffffffffffffffffffffffffffffffffffff1681565b60026065540361331e576040517f08c379a000000000000000000000000000000000000000000000000000000000815260040161331590615735565b60405180910390fd5b600260658190555060008103613360576040517f078e1d8500000000000000000000000000000000000000000000000000000000815260040160405180910390fd5b6134058160a060009054906101000a900473ffffffffffffffffffffffffffffffffffffffff1673ffffffffffffffffffffffffffffffffffffffff166370a08231336040518263ffffffff1660e01b81526004016133bf919061547c565b602060405180830381865afa1580156133dc573d6000803e3d6000fd5b505050506040513d601f19601f82011682018060405250810190613400919061576a565b614b35565b9050613410336143bc565b6000609754146134a15760975481609960003073ffffffffffffffffffffffffffffffffffffffff1673ffffffffffffffffffffffffffffffffffffffff1681526020019081526020016000205461346891906157c6565b11156134a0576040517f3f27d61700000000000000000000000000000000000000000000000000000000815260040160405180910390fd5b5b6134ab33826149bc565b6134b53382614a0f565b80609960003073ffffffffffffffffffffffffffffffffffffffff1673ffffffffffffffffffffffffffffffffffffffff168152602001908152602001600020600082825461350491906157c6565b925050819055506135136140c4565b600073ffffffffffffffffffffffffffffffffffffffff16609d60009054906101000a900473ffffffffffffffffffffffffffffffffffffffff1673ffffffffffffffffffffffffffffffffffffffff16146135f957609d60009054906101000a900473ffffffffffffffffffffffffffffffffffffffff1673ffffffffffffffffffffffffffffffffffffffff166351746bb282336040518363ffffffff1660e01b81526004016135c692919061592c565b600060405180830381600087803b1580156135e057600080fd5b505af11580156135f4573d6000803e3d6000fd5b505050505b3373ffffffffffffffffffffffffffffffffffffffff167f90890809c654f11d6e72a28fa60149770a0d11ec6c92319d6ceb2bb0a4ea1a158242604051613641929190615955565b60405180910390a2600160658190555050565b61365c614f3d565b6040518060a0016040528061366f61163e565b815260200161367c6136ab565b8152602001613689613d7a565b81526020016136966124d8565b81526020016136a36125ce565b815250905090565b6000609b60009054906101000a900473ffffffffffffffffffffffffffffffffffffffff1673ffffffffffffffffffffffffffffffffffffffff16637cd083316136f36124d8565b6136fb61163e565b6040518363ffffffff1660e01b8152600401613718929190615955565b602060405180830381865afa158015613735573d6000803e3d6000fd5b505050506040513d601f19601f82011682018060405250810190613759919061576a565b905090565b60975481565b600073ffffffffffffffffffffffffffffffffffffffff16609c60009054906101000a900473ffffffffffffffffffffffffffffffffffffffff1673ffffffffffffffffffffffffffffffffffffffff16036137ec576040517f700e36ac00000000000000000000000000000000000000000000000000000000815260040160405180910390fd5b609c60009054906101000a900473ffffffffffffffffffffffffffffffffffffffff1673ffffffffffffffffffffffffffffffffffffffff16630e7fc864336040518263ffffffff1660e01b8152600401613847919061547c565b602060405180830381865afa158015613864573d6000803e3d6000fd5b505050506040513d601f19601f8201168201806040525081019061388891906159aa565b6138be576040517feb05f53600000000000000000000000000000000000000000000000000000000815260040160405180910390fd5b60006138c861163e565b036138ff576040517f5b5724fc00000000000000000000000000000000000000000000000000000000815260040160405180910390fd5b600260655403613944576040517f08c379a000000000000000000000000000000000000000000000000000000000815260040161393b90615735565b60405180910390fd5b600260658190555060a060009054906101000a900473ffffffffffffffffffffffffffffffffffffffff1673ffffffffffffffffffffffffffffffffffffffff166370a08231306040518263ffffffff1660e01b81526004016139a7919061547c565b602060405180830381865afa1580156139c4573d6000803e3d6000fd5b505050506040513d601f19601f820116820180604052508101906139e8919061576a565b811115613a21576040517f5b5724fc00000000000000000000000000000000000000000000000000000000815260040160405180910390fd5b613a2a33614807565b80609a60003373ffffffffffffffffffffffffffffffffffffffff1673ffffffffffffffffffffffffffffffffffffffff1681526020019081526020016000206000828254613a7991906157c6565b9250508190555080609a60003073ffffffffffffffffffffffffffffffffffffffff1673ffffffffffffffffffffffffffffffffffffffff1681526020019081526020016000206000828254613acf91906157c6565b92505081905550613ae03382613f8d565b613ae86140c4565b3373ffffffffffffffffffffffffffffffffffffffff167fd6b37be10b58108f696d9ed067fedad0bff7cb417ef4c28d2f8a25d6d83c98d58242604051613b30929190615955565b60405180910390a26001606581905550613b486125ce565b613b5061163e565b670de0b6b3a7640000613b616124d8565b613b6b91906159d7565b613b759190615a48565b1115613bad576040517fe5739c7e00000000000000000000000000000000000000000000000000000000815260040160405180910390fd5b50565b609c60009054906101000a900473ffffffffffffffffffffffffffffffffffffffff1681565b6000609860008473ffffffffffffffffffffffffffffffffffffffff1673ffffffffffffffffffffffffffffffffffffffff16815260200190815260200160002060008373ffffffffffffffffffffffffffffffffffffffff1673ffffffffffffffffffffffffffffffffffffffff16815260200190815260200160002054905092915050565b609b60009054906101000a900473ffffffffffffffffffffffffffffffffffffffff1681565b613c8b613f85565b73ffffffffffffffffffffffffffffffffffffffff16613ca9612bd9565b73ffffffffffffffffffffffffffffffffffffffff1614613cff576040517f08c379a0000000000000000000000000000000000000000000000000000000008152600401613cf6906156c9565b60405180910390fd5b600073ffffffffffffffffffffffffffffffffffffffff168173ffffffffffffffffffffffffffffffffffffffff1603613d6e576040517f08c379a0000000000000000000000000000000000000000000000000000000008152600401613d6590615aeb565b60405180910390fd5b613d7781614b4e565b50565b6000609b60009054906101000a900473ffffffffffffffffffffffffffffffffffffffff1673ffffffffffffffffffffffffffffffffffffffff1663df841eec613dc26124d8565b613dca61163e565b6040518363ffffffff1660e01b8152600401613de7929190615955565b602060405180830381865afa158015613e04573d6000803e3d6000fd5b505050506040513d601f19601f82011682018060405250810190613e28919061576a565b905090565b613e35613f85565b73ffffffffffffffffffffffffffffffffffffffff16613e53612bd9565b73ffffffffffffffffffffffffffffffffffffffff1614613ea9576040517f08c379a0000000000000000000000000000000000000000000000000000000008152600401613ea0906156c9565b60405180910390fd5b613eb281613fde565b613ef357806040517f8a8b41ec000000000000000000000000000000000000000000000000000000008152600401613eea919061547c565b60405180910390fd5b80609c60006101000a81548173ffffffffffffffffffffffffffffffffffffffff021916908373ffffffffffffffffffffffffffffffffffffffff1602179055508073ffffffffffffffffffffffffffffffffffffffff167f04dce7d074f7e287a2e6e3516c802271d58d5c14e0dede83a49719eb6b92046942604051613f7a9190615074565b60405180910390a250565b600033905090565b613fda828260a060009054906101000a900473ffffffffffffffffffffffffffffffffffffffff1673ffffffffffffffffffffffffffffffffffffffff16614c149092919063ffffffff16565b5050565b6000808273ffffffffffffffffffffffffffffffffffffffff163b119050919050565b600061400c30613fde565b15905090565b600060019054906101000a900460ff16614061576040517f08c379a000000000000000000000000000000000000000000000000000000000815260040161405890615b7d565b60405180910390fd5b614069614d4a565b565b600060019054906101000a900460ff166140ba576040517f08c379a00000000000000000000000000000000000000000000000000000000081526004016140b190615b7d565b60405180910390fd5b6140c2614dab565b565b60006140ce6124d8565b905060006140da61163e565b9050600073ffffffffffffffffffffffffffffffffffffffff16609b60009054906101000a900473ffffffffffffffffffffffffffffffffffffffff1673ffffffffffffffffffffffffffffffffffffffff1603614164576040517ffd4851e900000000000000000000000000000000000000000000000000000000815260040160405180910390fd5b609e60009054906101000a900473ffffffffffffffffffffffffffffffffffffffff1673ffffffffffffffffffffffffffffffffffffffff166334fcf437609b60009054906101000a900473ffffffffffffffffffffffffffffffffffffffff1673ffffffffffffffffffffffffffffffffffffffff16637cd0833185856040518363ffffffff1660e01b81526004016141ff929190615955565b602060405180830381865afa15801561421c573d6000803e3d6000fd5b505050506040513d601f19601f82011682018060405250810190614240919061576a565b6040518263ffffffff1660e01b815260040161425c9190615074565b600060405180830381600087803b15801561427657600080fd5b505af115801561428a573d6000803e3d6000fd5b50505050609f60009054906101000a900473ffffffffffffffffffffffffffffffffffffffff1673ffffffffffffffffffffffffffffffffffffffff166334fcf437609b60009054906101000a900473ffffffffffffffffffffffffffffffffffffffff1673ffffffffffffffffffffffffffffffffffffffff1663df841eec85856040518363ffffffff1660e01b8152600401614329929190615955565b602060405180830381865afa158015614346573d6000803e3d6000fd5b505050506040513d601f19601f8201168201806040525081019061436a919061576a565b6040518263ffffffff1660e01b81526004016143869190615074565b600060405180830381600087803b1580156143a057600080fd5b505af11580156143b4573d6000803e3d6000fd5b505050505050565b6000609960008373ffffffffffffffffffffffffffffffffffffffff1673ffffffffffffffffffffffffffffffffffffffff1681526020019081526020016000205461440783612604565b61441191906157fa565b905061441d8282614a0f565b61442630612604565b609960003073ffffffffffffffffffffffffffffffffffffffff1673ffffffffffffffffffffffffffffffffffffffff168152602001908152602001600020819055508173ffffffffffffffffffffffffffffffffffffffff167f9bbd517758fbae61197f1c1c04c8614064e89512dbaf4350dcdf76fcaa5e216182426040516144b1929190615955565b60405180910390a2609e60009054906101000a900473ffffffffffffffffffffffffffffffffffffffff1673ffffffffffffffffffffffffffffffffffffffff1663ed03b336836040518263ffffffff1660e01b8152600401614514919061547c565b600060405180830381600087803b15801561452e57600080fd5b505af1158015614542573d6000803e3d6000fd5b50505050609e60009054906101000a900473ffffffffffffffffffffffffffffffffffffffff1673ffffffffffffffffffffffffffffffffffffffff1663ed03b336306040518263ffffffff1660e01b81526004016145a1919061547c565b600060405180830381600087803b1580156145bb57600080fd5b505af11580156145cf573d6000803e3d6000fd5b505050505050565b609960008373ffffffffffffffffffffffffffffffffffffffff1673ffffffffffffffffffffffffffffffffffffffff16815260200190815260200160002054811115614650576040517f177466fe00000000000000000000000000000000000000000000000000000000815260040160405180910390fd5b80609960008473ffffffffffffffffffffffffffffffffffffffff1673ffffffffffffffffffffffffffffffffffffffff16815260200190815260200160002060008282540392505081905550600073ffffffffffffffffffffffffffffffffffffffff168273ffffffffffffffffffffffffffffffffffffffff167fddf252ad1be2c89b69c2b068fc378daa952ba7f163c4a11628f55a4df523b3ef836040516146fb9190615074565b60405180910390a35050565b60008273ffffffffffffffffffffffffffffffffffffffff1682600067ffffffffffffffff81111561473c5761473b615b9d565b5b6040519080825280601f01601f19166020018201604052801561476e5781602001600182028036833780820191505090505b5060405161477c9190615c3d565b60006040518083038185875af1925050503d80600081146147b9576040519150601f19603f3d011682016040523d82523d6000602084013e6147be565b606091505b5050905080614802576040517f08c379a00000000000000000000000000000000000000000000000000000000081526004016147f990615cc6565b60405180910390fd5b505050565b614810816124e8565b609a60008373ffffffffffffffffffffffffffffffffffffffff1673ffffffffffffffffffffffffffffffffffffffff1681526020019081526020016000208190555061485c306124e8565b609a60003073ffffffffffffffffffffffffffffffffffffffff1673ffffffffffffffffffffffffffffffffffffffff16815260200190815260200160002081905550609f60009054906101000a900473ffffffffffffffffffffffffffffffffffffffff1673ffffffffffffffffffffffffffffffffffffffff1663ed03b336826040518263ffffffff1660e01b81526004016148fa919061547c565b600060405180830381600087803b15801561491457600080fd5b505af1158015614928573d6000803e3d6000fd5b50505050609f60009054906101000a900473ffffffffffffffffffffffffffffffffffffffff1673ffffffffffffffffffffffffffffffffffffffff1663ed03b336306040518263ffffffff1660e01b8152600401614987919061547c565b600060405180830381600087803b1580156149a157600080fd5b505af11580156149b5573d6000803e3d6000fd5b5050505050565b614a0b82308360a060009054906101000a900473ffffffffffffffffffffffffffffffffffffffff1673ffffffffffffffffffffffffffffffffffffffff16614e04909392919063ffffffff16565b5050565b600073ffffffffffffffffffffffffffffffffffffffff168273ffffffffffffffffffffffffffffffffffffffff1603614a75576040517f8db7f6da00000000000000000000000000000000000000000000000000000000815260040160405180910390fd5b80609960008473ffffffffffffffffffffffffffffffffffffffff1673ffffffffffffffffffffffffffffffffffffffff1681526020019081526020016000206000828254614ac491906157c6565b925050819055508173ffffffffffffffffffffffffffffffffffffffff16600073ffffffffffffffffffffffffffffffffffffffff167fddf252ad1be2c89b69c2b068fc378daa952ba7f163c4a11628f55a4df523b3ef83604051614b299190615074565b60405180910390a35050565b6000818310614b445781614b46565b825b905092915050565b6000603360009054906101000a900473ffffffffffffffffffffffffffffffffffffffff16905081603360006101000a81548173ffffffffffffffffffffffffffffffffffffffff021916908373ffffffffffffffffffffffffffffffffffffffff1602179055508173ffffffffffffffffffffffffffffffffffffffff168173ffffffffffffffffffffffffffffffffffffffff167f8be0079c531659141344cd1fd0a4f28419497f9722a3daafe3b4186f6b6457e060405160405180910390a35050565b6000808473ffffffffffffffffffffffffffffffffffffffff1663a9059cbb8585604051602401614c46929190615ce6565b6040516020818303038152906040529060e01b6020820180517bffffffffffffffffffffffffffffffffffffffffffffffffffffffff8381831617835250505050604051614c949190615c3d565b6000604051808303816000865af19150503d8060008114614cd1576040519150601f19603f3d011682016040523d82523d6000602084013e614cd6565b606091505b5091509150818015614d045750600081511480614d03575080806020019051810190614d0291906159aa565b5b5b614d43576040517f08c379a0000000000000000000000000000000000000000000000000000000008152600401614d3a90615d81565b60405180910390fd5b5050505050565b600060019054906101000a900460ff16614d99576040517f08c379a0000000000000000000000000000000000000000000000000000000008152600401614d9090615b7d565b60405180910390fd5b614da9614da4613f85565b614b4e565b565b600060019054906101000a900460ff16614dfa576040517f08c379a0000000000000000000000000000000000000000000000000000000008152600401614df190615b7d565b60405180910390fd5b6001606581905550565b6000808573ffffffffffffffffffffffffffffffffffffffff166323b872dd868686604051602401614e3893929190615da1565b6040516020818303038152906040529060e01b6020820180517bffffffffffffffffffffffffffffffffffffffffffffffffffffffff8381831617835250505050604051614e869190615c3d565b6000604051808303816000865af19150503d8060008114614ec3576040519150601f19603f3d011682016040523d82523d6000602084013e614ec8565b606091505b5091509150818015614ef65750600081511480614ef5575080806020019051810190614ef491906159aa565b5b5b614f35576040517f08c379a0000000000000000000000000000000000000000000000000000000008152600401614f2c90615e4a565b60405180910390fd5b505050505050565b6040518060a00160405280600590602082028036833780820191505090505090565b600080fd5b6000819050919050565b614f7781614f64565b8114614f8257600080fd5b50565b600081359050614f9481614f6e565b92915050565b600073ffffffffffffffffffffffffffffffffffffffff82169050919050565b6000614fc582614f9a565b9050919050565b614fd581614fba565b8114614fe057600080fd5b50565b600081359050614ff281614fcc565b92915050565b6000806040838503121561500f5761500e614f5f565b5b600061501d85828601614f85565b925050602061502e85828601614fe3565b9150509250929050565b60006020828403121561504e5761504d614f5f565b5b600061505c84828501614fe3565b91505092915050565b61506e81614f64565b82525050565b60006020820190506150896000830184615065565b92915050565b600080604083850312156150a6576150a5614f5f565b5b60006150b485828601614fe3565b92505060206150c585828601614f85565b9150509250929050565b60008115159050919050565b6150e4816150cf565b82525050565b60006020820190506150ff60008301846150db565b92915050565b600061511082614fba565b9050919050565b61512081615105565b811461512b57600080fd5b50565b60008135905061513d81615117565b92915050565b60006020828403121561515957615158614f5f565b5b60006151678482850161512e565b91505092915050565b600061517b82614fba565b9050919050565b61518b81615170565b811461519657600080fd5b50565b6000813590506151a881615182565b92915050565b60006151b982614fba565b9050919050565b6151c9816151ae565b81146151d457600080fd5b50565b6000813590506151e6816151c0565b92915050565b60006151f782614fba565b9050919050565b615207816151ec565b811461521257600080fd5b50565b600081359050615224816151fe565b92915050565b600061523582614f9a565b9050919050565b6152458161522a565b811461525057600080fd5b50565b6000813590506152628161523c565b92915050565b600080600080600080600060e0888a03121561528757615286614f5f565b5b60006152958a828b01615199565b97505060206152a68a828b016151d7565b96505060406152b78a828b01615215565b95505060606152c88a828b01615215565b94505060806152d98a828b01615253565b93505060a06152ea8a828b0161512e565b92505060c06152fb8a828b01614f85565b91505092959891949750929550565b6000602082840312156153205761531f614f5f565b5b600061532e84828501614f85565b91505092915050565b6000806000606084860312156153505761534f614f5f565b5b600061535e86828701614fe3565b935050602061536f86828701614fe3565b925050604061538086828701614f85565b9150509250925092565b6000819050919050565b60006153af6153aa6153a584614f9a565b61538a565b614f9a565b9050919050565b60006153c182615394565b9050919050565b60006153d3826153b6565b9050919050565b6153e3816153c8565b82525050565b60006020820190506153fe60008301846153da565b92915050565b60006020828403121561541a57615419614f5f565b5b600061542884828501615199565b91505092915050565b600061543c826153b6565b9050919050565b61544c81615431565b82525050565b60006020820190506154676000830184615443565b92915050565b61547681614fba565b82525050565b6000602082019050615491600083018461546d565b92915050565b6154a08161522a565b82525050565b60006020820190506154bb6000830184615497565b92915050565b600060059050919050565b600081905092915050565b6000819050919050565b6154ea81614f64565b82525050565b60006154fc83836154e1565b60208301905092915050565b6000602082019050919050565b61551e816154c1565b61552881846154cc565b9250615533826154d7565b8060005b8381101561556457815161554b87826154f0565b965061555683615508565b925050600181019050615537565b505050505050565b600060a0820190506155816000830184615515565b92915050565b6000615592826153b6565b9050919050565b6155a281615587565b82525050565b60006020820190506155bd6000830184615599565b92915050565b600080604083850312156155da576155d9614f5f565b5b60006155e885828601614fe3565b92505060206155f985828601614fe3565b9150509250929050565b600061560e826153b6565b9050919050565b61561e81615603565b82525050565b60006020820190506156396000830184615615565b92915050565b60006020828403121561565557615654614f5f565b5b6000615663848285016151d7565b91505092915050565b600082825260208201905092915050565b7f4f776e61626c653a2063616c6c6572206973206e6f7420746865206f776e6572600082015250565b60006156b360208361566c565b91506156be8261567d565b602082019050919050565b600060208201905081810360008301526156e2816156a6565b9050919050565b7f5265656e7472616e637947756172643a207265656e7472616e742063616c6c00600082015250565b600061571f601f8361566c565b915061572a826156e9565b602082019050919050565b6000602082019050818103600083015261574e81615712565b9050919050565b60008151905061576481614f6e565b92915050565b6000602082840312156157805761577f614f5f565b5b600061578e84828501615755565b91505092915050565b7f4e487b7100000000000000000000000000000000000000000000000000000000600052601160045260246000fd5b60006157d182614f64565b91506157dc83614f64565b92508282019050808211156157f4576157f3615797565b5b92915050565b600061580582614f64565b915061581083614f64565b925082820390508181111561582857615827615797565b5b92915050565b7f496e697469616c697a61626c653a20636f6e747261637420697320616c72656160008201527f647920696e697469616c697a6564000000000000000000000000000000000000602082015250565b600061588a602e8361566c565b91506158958261582e565b604082019050919050565b600060208201905081810360008301526158b98161587d565b9050919050565b7f57726f6e6720696e697420617267756d656e7473000000000000000000000000600082015250565b60006158f660148361566c565b9150615901826158c0565b602082019050919050565b60006020820190508181036000830152615925816158e9565b9050919050565b60006040820190506159416000830185615065565b61594e602083018461546d565b9392505050565b600060408201905061596a6000830185615065565b6159776020830184615065565b9392505050565b615987816150cf565b811461599257600080fd5b50565b6000815190506159a48161597e565b92915050565b6000602082840312156159c0576159bf614f5f565b5b60006159ce84828501615995565b91505092915050565b60006159e282614f64565b91506159ed83614f64565b92508282026159fb81614f64565b91508282048414831517615a1257615a11615797565b5b5092915050565b7f4e487b7100000000000000000000000000000000000000000000000000000000600052601260045260246000fd5b6000615a5382614f64565b9150615a5e83614f64565b925082615a6e57615a6d615a19565b5b828204905092915050565b7f4f776e61626c653a206e6577206f776e657220697320746865207a65726f206160008201527f6464726573730000000000000000000000000000000000000000000000000000602082015250565b6000615ad560268361566c565b9150615ae082615a79565b604082019050919050565b60006020820190508181036000830152615b0481615ac8565b9050919050565b7f496e697469616c697a61626c653a20636f6e7472616374206973206e6f74206960008201527f6e697469616c697a696e67000000000000000000000000000000000000000000602082015250565b6000615b67602b8361566c565b9150615b7282615b0b565b604082019050919050565b60006020820190508181036000830152615b9681615b5a565b9050919050565b7f4e487b7100000000000000000000000000000000000000000000000000000000600052604160045260246000fd5b600081519050919050565b600081905092915050565b60005b83811015615c00578082015181840152602081019050615be5565b60008484015250505050565b6000615c1782615bcc565b615c218185615bd7565b9350615c31818560208601615be2565b80840191505092915050565b6000615c498284615c0c565b915081905092915050565b7f5472616e7366657248656c7065723a3a736166655472616e736665724554483a60008201527f20455448207472616e73666572206661696c6564000000000000000000000000602082015250565b6000615cb060348361566c565b9150615cbb82615c54565b604082019050919050565b60006020820190508181036000830152615cdf81615ca3565b9050919050565b6000604082019050615cfb600083018561546d565b615d086020830184615065565b9392505050565b7f5472616e7366657248656c7065723a3a736166655472616e736665723a20747260008201527f616e73666572206661696c656400000000000000000000000000000000000000602082015250565b6000615d6b602d8361566c565b9150615d7682615d0f565b604082019050919050565b60006020820190508181036000830152615d9a81615d5e565b9050919050565b6000606082019050615db6600083018661546d565b615dc3602083018561546d565b615dd06040830184615065565b949350505050565b7f5472616e7366657248656c7065723a3a7472616e7366657246726f6d3a20747260008201527f616e7366657246726f6d206661696c6564000000000000000000000000000000602082015250565b6000615e3460318361566c565b9150615e3f82615dd8565b604082019050919050565b60006020820190508181036000830152615e6381615e27565b905091905056fea26469706673582212200b99a74857b81e4b1e3331e9afcb6389f6edd3e151f302d40f4304abaf8eae1d64736f6c63430008110033",
  "devdoc": {
    "details": "Contract allowing user to deposit to and borrow WAVAX from a dedicated user account",
    "errors": {
      "InsufficientAllowance(uint256,uint256)": [
        {
          "params": {
            "allowance": "current allowance",
            "requested": "requested transfer amount"
          }
        }
      ],
      "TransferAmountExceedsBalance(uint256,uint256)": [
        {
          "params": {
            "amount": "transfer amount",
            "balance": "available balance"
          }
        }
      ]
    },
    "kind": "dev",
    "methods": {
      "allowance(address,address)": {
        "details": "Returns the remaining number of tokens that `spender` will be allowed to spend on behalf of `owner` through {transferFrom}. This is zero by default. This value changes when {approve} or {transferFrom} are called."
      },
      "approve(address,uint256)": {
        "details": "Sets `amount` as the allowance of `spender` over the caller's tokens. Returns a boolean value indicating whether the operation succeeded. IMPORTANT: Beware that changing an allowance with this method brings the risk that someone may use both the old and the new allowance by unfortunate transaction ordering. One possible solution to mitigate this race condition is to first reduce the spender's allowance to 0 and set the desired value afterwards: https://github.com/ethereum/EIPs/issues/20#issuecomment-263524729 Emits an {Approval} event."
      },
      "balanceOf(address)": {
        "details": "_user the address of queried depositor*"
      },
      "borrow(uint256)": {
        "details": "_amount the amount to be borrowedIt is only meant to be used by a SmartLoanDiamondProxy*"
      },
      "owner()": {
        "details": "Returns the address of the current owner."
      },
      "renounceOwnership()": {
        "details": "Leaves the contract without owner. It will not be possible to call `onlyOwner` functions anymore. Can only be called by the current owner. NOTE: Renouncing ownership will leave the contract without an owner, thereby removing any functionality that is only available to the owner."
      },
      "repay(uint256)": {
        "details": "It is only meant to be used by a SmartLoanDiamondProxy*"
      },
      "setBorrowersRegistry(address)": {
        "details": "borrowersRegistry the address of borrowers registry*"
      },
      "setPoolRewarder(address)": {
        "details": "_poolRewarder the address of PoolRewarder*"
      },
      "setRatesCalculator(address)": {
        "details": "ratesCalculator the address of rates calculator*"
      },
      "setTotalSupplyCap(uint256)": {
        "details": "_newTotalSupplyCap new deposit cap*"
      },
      "totalSupply()": {
        "details": "Returns the amount of tokens in existence."
      },
      "transferOwnership(address)": {
        "details": "Transfers ownership of the contract to a new account (`newOwner`). Can only be called by the current owner."
      },
      "withdraw(uint256)": {
        "details": "_amount the amount to be withdrawn*"
      },
      "withdrawNativeToken(uint256)": {
        "details": "_amount the amount to be withdrawn*"
      }
    },
    "title": "WavaxPool",
    "version": 1
  },
  "userdoc": {
    "kind": "user",
    "methods": {
      "balanceOf(address)": {
        "notice": "Returns the current deposited amount for the given user The value includes the interest rates earned at the current moment"
      },
      "borrow(uint256)": {
        "notice": "Borrows the specified amount It updates user borrowed balance, total borrowed amount and rates"
      },
      "deposit(uint256)": {
        "notice": "Deposits the amount It updates user deposited balance, total deposited and rates*"
      },
      "depositNativeToken()": {
        "notice": "Wraps and deposits amount attached to the transaction*"
      },
      "getBorrowingRate()": {
        "notice": "Returns the current interest rate for borrowings*"
      },
      "getDepositRate()": {
        "notice": "Returns the current interest rate for deposits*"
      },
      "getFullPoolStatus()": {
        "notice": "Returns full pool status"
      },
      "recoverSurplus(uint256,address)": {
        "notice": "Recovers the surplus funds resultant from difference between deposit and borrowing rates*"
      },
      "repay(uint256)": {
        "notice": "Repays the amount It updates user borrowed balance, total borrowed amount and rates"
      },
      "setBorrowersRegistry(address)": {
        "notice": "Sets the new borrowers registry contract. The borrowers registry decides if an account can borrow funds. Only the owner of the Contract can execute this function."
      },
      "setPoolRewarder(address)": {
        "notice": "Sets the new Pool Rewarder. The IPoolRewarder that distributes additional token rewards to people having a stake in this pool proportionally to their stake and time of participance. Only the owner of the Contract can execute this function."
      },
      "setRatesCalculator(address)": {
        "notice": "Sets the new rate calculator. The calculator is an external contract that contains the logic for calculating deposit and borrowing rates. Only the owner of the Contract can execute this function."
      },
      "setTotalSupplyCap(uint256)": {
        "notice": "Sets new totalSupplyCap limiting how much in total can be deposited to the Pool. Only the owner of the Contract can execute this function."
      },
      "withdraw(uint256)": {
        "notice": "Withdraws selected amount from the user deposits"
      },
      "withdrawNativeToken(uint256)": {
        "notice": "Unwraps and withdraws selected amount from the user deposits"
      }
    },
    "version": 1
  },
  "storageLayout": {
    "storage": [
      {
        "astId": 130,
        "contract": "contracts/deployment/avalanche/WavaxPool.sol:WavaxPool",
        "label": "_initialized",
        "offset": 0,
        "slot": "0",
        "type": "t_bool"
      },
      {
        "astId": 133,
        "contract": "contracts/deployment/avalanche/WavaxPool.sol:WavaxPool",
        "label": "_initializing",
        "offset": 1,
        "slot": "0",
        "type": "t_bool"
      },
      {
        "astId": 540,
        "contract": "contracts/deployment/avalanche/WavaxPool.sol:WavaxPool",
        "label": "__gap",
        "offset": 0,
        "slot": "1",
        "type": "t_array(t_uint256)50_storage"
      },
      {
        "astId": 10,
        "contract": "contracts/deployment/avalanche/WavaxPool.sol:WavaxPool",
        "label": "_owner",
        "offset": 0,
        "slot": "51",
        "type": "t_address"
      },
      {
        "astId": 122,
        "contract": "contracts/deployment/avalanche/WavaxPool.sol:WavaxPool",
        "label": "__gap",
        "offset": 0,
        "slot": "52",
        "type": "t_array(t_uint256)49_storage"
      },
      {
        "astId": 211,
        "contract": "contracts/deployment/avalanche/WavaxPool.sol:WavaxPool",
        "label": "_status",
        "offset": 0,
        "slot": "101",
        "type": "t_uint256"
      },
      {
        "astId": 255,
        "contract": "contracts/deployment/avalanche/WavaxPool.sol:WavaxPool",
        "label": "__gap",
        "offset": 0,
        "slot": "102",
        "type": "t_array(t_uint256)49_storage"
      },
      {
        "astId": 891,
        "contract": "contracts/deployment/avalanche/WavaxPool.sol:WavaxPool",
        "label": "totalSupplyCap",
        "offset": 0,
        "slot": "151",
        "type": "t_uint256"
      },
      {
        "astId": 897,
        "contract": "contracts/deployment/avalanche/WavaxPool.sol:WavaxPool",
        "label": "_allowed",
        "offset": 0,
        "slot": "152",
        "type": "t_mapping(t_address,t_mapping(t_address,t_uint256))"
      },
      {
        "astId": 901,
        "contract": "contracts/deployment/avalanche/WavaxPool.sol:WavaxPool",
        "label": "_deposited",
        "offset": 0,
        "slot": "153",
        "type": "t_mapping(t_address,t_uint256)"
      },
      {
        "astId": 905,
        "contract": "contracts/deployment/avalanche/WavaxPool.sol:WavaxPool",
        "label": "borrowed",
        "offset": 0,
        "slot": "154",
        "type": "t_mapping(t_address,t_uint256)"
      },
      {
        "astId": 908,
        "contract": "contracts/deployment/avalanche/WavaxPool.sol:WavaxPool",
        "label": "ratesCalculator",
        "offset": 0,
        "slot": "155",
        "type": "t_contract(IRatesCalculator)2933"
      },
      {
        "astId": 911,
        "contract": "contracts/deployment/avalanche/WavaxPool.sol:WavaxPool",
        "label": "borrowersRegistry",
        "offset": 0,
        "slot": "156",
        "type": "t_contract(IBorrowersRegistry)2846"
      },
      {
        "astId": 914,
        "contract": "contracts/deployment/avalanche/WavaxPool.sol:WavaxPool",
        "label": "poolRewarder",
        "offset": 0,
        "slot": "157",
        "type": "t_contract(IPoolRewarder)2911"
      },
      {
        "astId": 917,
        "contract": "contracts/deployment/avalanche/WavaxPool.sol:WavaxPool",
        "label": "depositIndex",
        "offset": 0,
        "slot": "158",
        "type": "t_contract(IIndex)2873"
      },
      {
        "astId": 920,
        "contract": "contracts/deployment/avalanche/WavaxPool.sol:WavaxPool",
        "label": "borrowIndex",
        "offset": 0,
        "slot": "159",
        "type": "t_contract(IIndex)2873"
      },
      {
        "astId": 922,
        "contract": "contracts/deployment/avalanche/WavaxPool.sol:WavaxPool",
        "label": "tokenAddress",
        "offset": 0,
        "slot": "160",
        "type": "t_address_payable"
      }
    ],
    "types": {
      "t_address": {
        "encoding": "inplace",
        "label": "address",
        "numberOfBytes": "20"
      },
      "t_address_payable": {
        "encoding": "inplace",
        "label": "address payable",
        "numberOfBytes": "20"
      },
      "t_array(t_uint256)49_storage": {
        "base": "t_uint256",
        "encoding": "inplace",
        "label": "uint256[49]",
        "numberOfBytes": "1568"
      },
      "t_array(t_uint256)50_storage": {
        "base": "t_uint256",
        "encoding": "inplace",
        "label": "uint256[50]",
        "numberOfBytes": "1600"
      },
      "t_bool": {
        "encoding": "inplace",
        "label": "bool",
        "numberOfBytes": "1"
      },
      "t_contract(IBorrowersRegistry)2846": {
        "encoding": "inplace",
        "label": "contract IBorrowersRegistry",
        "numberOfBytes": "20"
      },
      "t_contract(IIndex)2873": {
        "encoding": "inplace",
        "label": "contract IIndex",
        "numberOfBytes": "20"
      },
      "t_contract(IPoolRewarder)2911": {
        "encoding": "inplace",
        "label": "contract IPoolRewarder",
        "numberOfBytes": "20"
      },
      "t_contract(IRatesCalculator)2933": {
        "encoding": "inplace",
        "label": "contract IRatesCalculator",
        "numberOfBytes": "20"
      },
      "t_mapping(t_address,t_mapping(t_address,t_uint256))": {
        "encoding": "mapping",
        "key": "t_address",
        "label": "mapping(address => mapping(address => uint256))",
        "numberOfBytes": "32",
        "value": "t_mapping(t_address,t_uint256)"
      },
      "t_mapping(t_address,t_uint256)": {
        "encoding": "mapping",
        "key": "t_address",
        "label": "mapping(address => uint256)",
        "numberOfBytes": "32",
        "value": "t_uint256"
      },
      "t_uint256": {
        "encoding": "inplace",
        "label": "uint256",
        "numberOfBytes": "32"
      }
    }
  }
}