{
  "address": "0x76ccaEf23dF9e0612C77ac93c73c0f65Dd0CCCAB",
  "abi": [
    {
      "inputs": [],
      "name": "CalldataMustHaveValidPayload",
      "type": "error"
    },
    {
      "inputs": [],
      "name": "CalldataOverOrUnderFlow",
      "type": "error"
    },
    {
      "inputs": [],
      "name": "EachSignerMustProvideTheSameValue",
      "type": "error"
    },
    {
      "inputs": [],
      "name": "EmptyCalldataPointersArr",
      "type": "error"
    },
    {
      "inputs": [],
      "name": "IncorrectUnsignedMetadataSize",
      "type": "error"
    },
    {
      "inputs": [
        {
          "internalType": "uint256",
          "name": "receviedSignersCount",
          "type": "uint256"
        },
        {
          "internalType": "uint256",
          "name": "requiredSignersCount",
          "type": "uint256"
        }
      ],
      "name": "InsufficientNumberOfUniqueSigners",
      "type": "error"
    },
    {
      "inputs": [],
      "name": "InvalidCalldataPointer",
      "type": "error"
    },
    {
      "inputs": [
        {
          "internalType": "bytes",
          "name": "result",
          "type": "bytes"
        }
      ],
      "name": "ProxyCalldataFailedWithCustomError",
      "type": "error"
    },
    {
      "inputs": [
        {
          "internalType": "string",
          "name": "message",
          "type": "string"
        }
      ],
      "name": "ProxyCalldataFailedWithStringMessage",
      "type": "error"
    },
    {
      "inputs": [],
      "name": "ProxyCalldataFailedWithoutErrMsg",
      "type": "error"
    },
    {
      "inputs": [
        {
          "internalType": "address",
          "name": "receivedSigner",
          "type": "address"
        }
      ],
      "name": "SignerNotAuthorised",
      "type": "error"
    },
    {
      "anonymous": false,
      "inputs": [
        {
          "indexed": true,
          "internalType": "address",
          "name": "user",
          "type": "address"
        },
        {
          "indexed": true,
          "internalType": "bytes32",
          "name": "asset",
          "type": "bytes32"
        },
        {
          "indexed": true,
          "internalType": "address",
          "name": "vault",
          "type": "address"
        },
        {
          "indexed": false,
          "internalType": "uint256",
          "name": "amount",
          "type": "uint256"
        },
        {
          "indexed": false,
          "internalType": "uint256",
          "name": "timestamp",
          "type": "uint256"
        }
      ],
      "name": "Staked",
      "type": "event"
    },
    {
      "anonymous": false,
      "inputs": [
        {
          "indexed": true,
          "internalType": "address",
          "name": "user",
          "type": "address"
        },
        {
          "indexed": true,
          "internalType": "bytes32",
          "name": "asset",
          "type": "bytes32"
        },
        {
          "indexed": true,
          "internalType": "address",
          "name": "vault",
          "type": "address"
        },
        {
          "indexed": false,
          "internalType": "uint256",
          "name": "amount",
          "type": "uint256"
        },
        {
          "indexed": false,
          "internalType": "uint256",
          "name": "timestamp",
          "type": "uint256"
        }
      ],
      "name": "Unstaked",
      "type": "event"
    },
    {
      "inputs": [
        {
          "internalType": "bytes32[]",
          "name": "assetsToRepay",
          "type": "bytes32[]"
        }
      ],
      "name": "_getAllPricesForLiquidation",
      "outputs": [
        {
          "components": [
            {
              "components": [
                {
                  "internalType": "bytes32",
                  "name": "asset",
                  "type": "bytes32"
                },
                {
                  "internalType": "uint256",
                  "name": "price",
                  "type": "uint256"
                }
              ],
              "internalType": "struct SolvencyFacetProd.AssetPrice[]",
              "name": "ownedAssetsPrices",
              "type": "tuple[]"
            },
            {
              "components": [
                {
                  "internalType": "bytes32",
                  "name": "asset",
                  "type": "bytes32"
                },
                {
                  "internalType": "uint256",
                  "name": "price",
                  "type": "uint256"
                }
              ],
              "internalType": "struct SolvencyFacetProd.AssetPrice[]",
              "name": "debtAssetsPrices",
              "type": "tuple[]"
            },
            {
              "components": [
                {
                  "internalType": "bytes32",
                  "name": "asset",
                  "type": "bytes32"
                },
                {
                  "internalType": "uint256",
                  "name": "price",
                  "type": "uint256"
                }
              ],
              "internalType": "struct SolvencyFacetProd.AssetPrice[]",
              "name": "stakedPositionsPrices",
              "type": "tuple[]"
            },
            {
              "components": [
                {
                  "internalType": "bytes32",
                  "name": "asset",
                  "type": "bytes32"
                },
                {
                  "internalType": "uint256",
                  "name": "price",
                  "type": "uint256"
                }
              ],
              "internalType": "struct SolvencyFacetProd.AssetPrice[]",
              "name": "assetsToRepayPrices",
              "type": "tuple[]"
            }
          ],
          "internalType": "struct SolvencyFacetProd.CachedPrices",
          "name": "result",
          "type": "tuple"
        }
      ],
      "stateMutability": "nonpayable",
      "type": "function"
    },
    {
      "inputs": [],
      "name": "_getHealthRatio",
      "outputs": [
        {
          "internalType": "uint256",
          "name": "health",
          "type": "uint256"
        }
      ],
      "stateMutability": "nonpayable",
      "type": "function"
    },
    {
      "inputs": [
        {
          "components": [
            {
              "components": [
                {
                  "internalType": "bytes32",
                  "name": "asset",
                  "type": "bytes32"
                },
                {
                  "internalType": "uint256",
                  "name": "price",
                  "type": "uint256"
                }
              ],
              "internalType": "struct SolvencyFacetProd.AssetPrice[]",
              "name": "ownedAssetsPrices",
              "type": "tuple[]"
            },
            {
              "components": [
                {
                  "internalType": "bytes32",
                  "name": "asset",
                  "type": "bytes32"
                },
                {
                  "internalType": "uint256",
                  "name": "price",
                  "type": "uint256"
                }
              ],
              "internalType": "struct SolvencyFacetProd.AssetPrice[]",
              "name": "debtAssetsPrices",
              "type": "tuple[]"
            },
            {
              "components": [
                {
                  "internalType": "bytes32",
                  "name": "asset",
                  "type": "bytes32"
                },
                {
                  "internalType": "uint256",
                  "name": "price",
                  "type": "uint256"
                }
              ],
              "internalType": "struct SolvencyFacetProd.AssetPrice[]",
              "name": "stakedPositionsPrices",
              "type": "tuple[]"
            },
            {
              "components": [
                {
                  "internalType": "bytes32",
                  "name": "asset",
                  "type": "bytes32"
                },
                {
                  "internalType": "uint256",
                  "name": "price",
                  "type": "uint256"
                }
              ],
              "internalType": "struct SolvencyFacetProd.AssetPrice[]",
              "name": "assetsToRepayPrices",
              "type": "tuple[]"
            }
          ],
          "internalType": "struct SolvencyFacetProd.CachedPrices",
          "name": "cachedPrices",
          "type": "tuple"
        }
      ],
      "name": "_getHealthRatioWithPrices",
      "outputs": [
        {
          "internalType": "uint256",
          "name": "health",
          "type": "uint256"
        }
      ],
      "stateMutability": "nonpayable",
      "type": "function"
    },
    {
      "inputs": [],
      "name": "_resetPrimeAccountAssetsExposure",
      "outputs": [],
      "stateMutability": "nonpayable",
      "type": "function"
    },
    {
      "inputs": [],
      "name": "_setPrimeAccountAssetsExposure",
      "outputs": [],
      "stateMutability": "nonpayable",
      "type": "function"
    },
    {
      "inputs": [
        {
          "internalType": "bytes32",
          "name": "symbol",
          "type": "bytes32"
        }
      ],
      "name": "getPrice",
      "outputs": [
        {
          "internalType": "uint256",
          "name": "price",
          "type": "uint256"
        }
      ],
      "stateMutability": "nonpayable",
      "type": "function"
    },
    {
      "inputs": [
        {
          "internalType": "bytes32[]",
          "name": "symbols",
          "type": "bytes32[]"
        }
      ],
      "name": "getPrices",
      "outputs": [
        {
          "internalType": "uint256[]",
          "name": "prices",
          "type": "uint256[]"
        }
      ],
      "stateMutability": "nonpayable",
      "type": "function"
    },
    {
      "inputs": [
        {
          "internalType": "uint256",
          "name": "amount",
          "type": "uint256"
        }
      ],
      "name": "stakeAVAXYak",
      "outputs": [],
      "stateMutability": "nonpayable",
      "type": "function"
    },
    {
      "inputs": [
        {
          "internalType": "uint256",
          "name": "amount",
          "type": "uint256"
        }
      ],
      "name": "stakePNGAVAXETHYak",
      "outputs": [],
      "stateMutability": "nonpayable",
      "type": "function"
    },
    {
      "inputs": [
        {
          "internalType": "uint256",
          "name": "amount",
          "type": "uint256"
        }
      ],
      "name": "stakePNGAVAXUSDCYak",
      "outputs": [],
      "stateMutability": "nonpayable",
      "type": "function"
    },
    {
      "inputs": [
        {
          "internalType": "uint256",
          "name": "amount",
          "type": "uint256"
        }
      ],
      "name": "stakeSAVAXYak",
      "outputs": [],
      "stateMutability": "nonpayable",
      "type": "function"
    },
    {
      "inputs": [
        {
          "internalType": "uint256",
          "name": "amount",
          "type": "uint256"
        }
      ],
      "name": "stakeTJAVAXETHYak",
      "outputs": [],
      "stateMutability": "nonpayable",
      "type": "function"
    },
    {
      "inputs": [
        {
          "internalType": "uint256",
          "name": "amount",
          "type": "uint256"
        }
      ],
      "name": "stakeTJAVAXSAVAXYak",
      "outputs": [],
      "stateMutability": "nonpayable",
      "type": "function"
    },
    {
      "inputs": [
        {
          "internalType": "uint256",
          "name": "amount",
          "type": "uint256"
        }
      ],
      "name": "stakeTJAVAXUSDCYak",
      "outputs": [],
      "stateMutability": "nonpayable",
      "type": "function"
    },
    {
      "inputs": [
        {
          "internalType": "uint256",
          "name": "amount",
          "type": "uint256"
        }
      ],
      "name": "unstakeAVAXYak",
      "outputs": [],
      "stateMutability": "nonpayable",
      "type": "function"
    },
    {
      "inputs": [
        {
          "internalType": "uint256",
          "name": "amount",
          "type": "uint256"
        }
      ],
      "name": "unstakePNGAVAXETHYak",
      "outputs": [],
      "stateMutability": "nonpayable",
      "type": "function"
    },
    {
      "inputs": [
        {
          "internalType": "uint256",
          "name": "amount",
          "type": "uint256"
        }
      ],
      "name": "unstakePNGAVAXUSDCYak",
      "outputs": [],
      "stateMutability": "nonpayable",
      "type": "function"
    },
    {
      "inputs": [
        {
          "internalType": "uint256",
          "name": "amount",
          "type": "uint256"
        }
      ],
      "name": "unstakeSAVAXYak",
      "outputs": [],
      "stateMutability": "nonpayable",
      "type": "function"
    },
    {
      "inputs": [
        {
          "internalType": "uint256",
          "name": "amount",
          "type": "uint256"
        }
      ],
      "name": "unstakeTJAVAXETHYak",
      "outputs": [],
      "stateMutability": "nonpayable",
      "type": "function"
    },
    {
      "inputs": [
        {
          "internalType": "uint256",
          "name": "amount",
          "type": "uint256"
        }
      ],
      "name": "unstakeTJAVAXSAVAXYak",
      "outputs": [],
      "stateMutability": "nonpayable",
      "type": "function"
    },
    {
      "inputs": [
        {
          "internalType": "uint256",
          "name": "amount",
          "type": "uint256"
        }
      ],
      "name": "unstakeTJAVAXUSDCYak",
      "outputs": [],
      "stateMutability": "nonpayable",
      "type": "function"
    },
    {
      "stateMutability": "payable",
      "type": "receive"
    }
  ],
  "transactionHash": "0x5c17b038c00151d8de9b5deb3f10e6f9ffa7aa9bb53af44e8882283c11fa3eca",
  "args": [],
  "numDeployments": 5,
  "solcInputHash": "fa23c61f86cec8c7de13e8bfa631887b",
  "bytecode": "0x608060405234801561001057600080fd5b506001600081905550614a3c806100286000396000f3fe60806040526004361061012e5760003560e01c8063789f2bad116100ab578063d1bde93c1161006f578063d1bde93c146103e1578063e426ad311461040a578063f2c0f2a014610433578063f506db131461045c578063f8f1855314610485578063fe7723671461049c57610135565b8063789f2bad146103005780637dfdb26a1461032957806385c4dcc214610352578063b2d40e731461037b578063cba4256e146103b857610135565b806339e2719e116100f257806339e2719e1461022f5780633eb67e0b1461025a5780635b4fad9c146102835780636aa961621461029a5780636e3bfe9f146102c357610135565b806303e551701461013a57806326ee48361461016357806329e166b6146101a05780632e25d177146101c957806331d98b3f146101f257610135565b3661013557005b600080fd5b34801561014657600080fd5b50610161600480360381019061015c919061354f565b6104c5565b005b34801561016f57600080fd5b5061018a6004803603810190610185919061370b565b610642565b6040516101979190613812565b60405180910390f35b3480156101ac57600080fd5b506101c760048036038101906101c2919061354f565b6106ec565b005b3480156101d557600080fd5b506101f060048036038101906101eb919061354f565b610869565b005b3480156101fe57600080fd5b5061021960048036038101906102149190613834565b6109e6565b6040516102269190613870565b60405180910390f35b34801561023b57600080fd5b50610244610a90565b6040516102519190613870565b60405180910390f35b34801561026657600080fd5b50610281600480360381019061027c919061354f565b610b2d565b005b34801561028f57600080fd5b50610298610f92565b005b3480156102a657600080fd5b506102c160048036038101906102bc919061354f565b611018565b005b3480156102cf57600080fd5b506102ea60048036038101906102e59190613a90565b6113c3565b6040516102f79190613870565b60405180910390f35b34801561030c57600080fd5b506103276004803603810190610322919061354f565b61146d565b005b34801561033557600080fd5b50610350600480360381019061034b919061354f565b6115ea565b005b34801561035e57600080fd5b506103796004803603810190610374919061354f565b611767565b005b34801561038757600080fd5b506103a2600480360381019061039d919061370b565b6118e4565b6040516103af9190613c3e565b60405180910390f35b3480156103c457600080fd5b506103df60048036038101906103da919061354f565b611994565b005b3480156103ed57600080fd5b506104086004803603810190610403919061354f565b611b11565b005b34801561041657600080fd5b50610431600480360381019061042c919061354f565b611c8e565b005b34801561043f57600080fd5b5061045a6004803603810190610455919061354f565b611e0b565b005b34801561046857600080fd5b50610483600480360381019061047e919061354f565b611f88565b005b34801561049157600080fd5b5061049a612105565b005b3480156104a857600080fd5b506104c360048036038101906104be919061354f565b61218b565b005b6104cd612308565b60006104d76123a3565b90506002816000015403610520576040517f08c379a000000000000000000000000000000000000000000000000000000000815260040161051790613cbd565b60405180910390fd5b600281600001819055506105ed6040518060a00160405280730e0100ab771e9288e0aa97e11557e6654c3a966573ffffffffffffffffffffffffffffffffffffffff16815260200173c0cd58661b68e10b49d3bec4bc5e44e7a7c2065673ffffffffffffffffffffffffffffffffffffffff1681526020017f504e475f415641585f555344435f4c500000000000000000000000000000000081526020017f59595f504e475f415641585f555344435f4c50000000000000000000000000008152602001848152506123d0565b6105f5612601565b610634576040517f08c379a000000000000000000000000000000000000000000000000000000000815260040161062b90613d4f565b60405180910390fd5b600181600001819055505050565b60606106d26106576326ee483660e01b61269e565b6326ee483660e01b846040516024016106709190613e1e565b604051602081830303815290604052907bffffffffffffffffffffffffffffffffffffffffffffffffffffffff19166020820180517bffffffffffffffffffffffffffffffffffffffffffffffffffffffff8381831617835250505050612728565b8060200190518101906106e59190613f18565b9050919050565b6106f4612308565b60006106fe6123a3565b90506002816000015403610747576040517f08c379a000000000000000000000000000000000000000000000000000000000815260040161073e90613cbd565b60405180910390fd5b600281600001819055506108146040518060a0016040528073f4003f4efbe8691b60249e6afbd307abe7758adb73ffffffffffffffffffffffffffffffffffffffff16815260200173def94a13ff31fb6363f1e03bf18fe0f59db83bbc73ffffffffffffffffffffffffffffffffffffffff1681526020017f544a5f415641585f555344435f4c50000000000000000000000000000000000081526020017f59595f544a5f415641585f555344435f4c5000000000000000000000000000008152602001848152506123d0565b61081c612601565b61085b576040517f08c379a000000000000000000000000000000000000000000000000000000000815260040161085290613d4f565b60405180910390fd5b600181600001819055505050565b610871612308565b600061087b6123a3565b905060028160000154036108c4576040517f08c379a00000000000000000000000000000000000000000000000000000000081526004016108bb90613cbd565b60405180910390fd5b600281600001819055506109916040518060a00160405280737c05d54fc5cb6e4ad87c6f5db3b807c94bb89c5273ffffffffffffffffffffffffffffffffffffffff16815260200173fcd2050e213cc54db2c9c99632ac870574fbc26173ffffffffffffffffffffffffffffffffffffffff1681526020017f504e475f415641585f4554485f4c50000000000000000000000000000000000081526020017f59595f504e475f415641585f4554485f4c5000000000000000000000000000008152602001848152506123d0565b610999612601565b6109d8576040517f08c379a00000000000000000000000000000000000000000000000000000000081526004016109cf90613d4f565b60405180910390fd5b600181600001819055505050565b6000610a766109fb6331d98b3f60e01b61269e565b6331d98b3f60e01b84604051602401610a149190613f70565b604051602081830303815290604052907bffffffffffffffffffffffffffffffffffffffffffffffffffffffff19166020820180517bffffffffffffffffffffffffffffffffffffffffffffffffffffffff8381831617835250505050612728565b806020019051810190610a899190613f8b565b9050919050565b6000610b15610aa5637914334f60e01b61269e565b637914334f60e01b604051602401604051602081830303815290604052907bffffffffffffffffffffffffffffffffffffffffffffffffffffffff19166020820180517bffffffffffffffffffffffffffffffffffffffffffffffffffffffff8381831617835250505050612728565b806020019051810190610b289190613f8b565b905090565b610b35612308565b6000610b3f6123a3565b90506002816000015403610b88576040517f08c379a0000000000000000000000000000000000000000000000000000000008152600401610b7f90613cbd565b60405180910390fd5b60028160000181905550610b9a610f92565b600073aac0f2d0630d1d09ab2b5a400412a4840b866d959050610c368173ffffffffffffffffffffffffffffffffffffffff166370a08231306040518263ffffffff1660e01b8152600401610bef9190613ff9565b602060405180830381865afa158015610c0c573d6000803e3d6000fd5b505050506040513d601f19601f82011682018060405250810190610c309190613f8b565b846127b9565b92508073ffffffffffffffffffffffffffffffffffffffff16632e1a7d4d846040518263ffffffff1660e01b8152600401610c719190613870565b600060405180830381600087803b158015610c8b57600080fd5b505af1158015610c9f573d6000803e3d6000fd5b5050505060008173ffffffffffffffffffffffffffffffffffffffff166370a08231306040518263ffffffff1660e01b8152600401610cde9190613ff9565b602060405180830381865afa158015610cfb573d6000803e3d6000fd5b505050506040513d601f19601f82011682018060405250810190610d1f9190613f8b565b03610d4e57610d4d7f59595f414156455f4156415800000000000000000000000000000000000000006127d2565b5b73aac0f2d0630d1d09ab2b5a400412a4840b866d9573ffffffffffffffffffffffffffffffffffffffff167f41564158000000000000000000000000000000000000000000000000000000003373ffffffffffffffffffffffffffffffffffffffff167fb45e912aa92f8b6b5caaef25e5188ab9c924b5c90188180c3f0cdeb3273c731f8642604051610de2929190614014565b60405180910390a4600073b31f66aa3c1e785363f0875a1b74e27b85fd66c773ffffffffffffffffffffffffffffffffffffffff166370a08231306040518263ffffffff1660e01b8152600401610e399190613ff9565b602060405180830381865afa158015610e56573d6000803e3d6000fd5b505050506040513d601f19601f82011682018060405250810190610e7a9190613f8b565b1115610ebf57610ebe7f415641580000000000000000000000000000000000000000000000000000000073b31f66aa3c1e785363f0875a1b74e27b85fd66c76127f0565b5b73b31f66aa3c1e785363f0875a1b74e27b85fd66c773ffffffffffffffffffffffffffffffffffffffff1663d0e30db0846040518263ffffffff1660e01b81526004016000604051808303818588803b158015610f1b57600080fd5b505af1158015610f2f573d6000803e3d6000fd5b505050505050610f3d612601565b610f7c576040517f08c379a0000000000000000000000000000000000000000000000000000000008152600401610f7390613d4f565b60405180910390fd5b610f84612105565b600181600001819055505050565b611015610fa563b1c9fbc160e01b61269e565b63b1c9fbc160e01b604051602401604051602081830303815290604052907bffffffffffffffffffffffffffffffffffffffffffffffffffffffff19166020820180517bffffffffffffffffffffffffffffffffffffffffffffffffffffffff8381831617835250505050612728565b50565b611020612308565b600061102a6123a3565b90506002816000015403611073576040517f08c379a000000000000000000000000000000000000000000000000000000000815260040161106a90613cbd565b60405180910390fd5b60028160000181905550611085610f92565b600082116110c8576040517f08c379a00000000000000000000000000000000000000000000000000000000081526004016110bf90614089565b60405180910390fd5b8173b31f66aa3c1e785363f0875a1b74e27b85fd66c773ffffffffffffffffffffffffffffffffffffffff166370a08231306040518263ffffffff1660e01b81526004016111169190613ff9565b602060405180830381865afa158015611133573d6000803e3d6000fd5b505050506040513d601f19601f820116820180604052508101906111579190613f8b565b1015611198576040517f08c379a000000000000000000000000000000000000000000000000000000000815260040161118f906140f5565b60405180910390fd5b73b31f66aa3c1e785363f0875a1b74e27b85fd66c773ffffffffffffffffffffffffffffffffffffffff16632e1a7d4d836040518263ffffffff1660e01b81526004016111e59190613870565b600060405180830381600087803b1580156111ff57600080fd5b505af1158015611213573d6000803e3d6000fd5b5050505073aac0f2d0630d1d09ab2b5a400412a4840b866d9573ffffffffffffffffffffffffffffffffffffffff1663d0e30db0836040518263ffffffff1660e01b81526004016000604051808303818588803b15801561127357600080fd5b505af1158015611287573d6000803e3d6000fd5b50505050506112ca7f59595f414156455f41564158000000000000000000000000000000000000000073aac0f2d0630d1d09ab2b5a400412a4840b866d956127f0565b73aac0f2d0630d1d09ab2b5a400412a4840b866d9573ffffffffffffffffffffffffffffffffffffffff167f41564158000000000000000000000000000000000000000000000000000000003373ffffffffffffffffffffffffffffffffffffffff167f643de8375c3a1c76ab240fe4eda6e589cf10acfe25f67d9951ef0a7ababb6722854260405161135e929190614014565b60405180910390a461136e612601565b6113ad576040517f08c379a00000000000000000000000000000000000000000000000000000000081526004016113a490613d4f565b60405180910390fd5b6113b5612105565b600181600001819055505050565b60006114536113d863360398a360e01b61269e565b63360398a360e01b846040516024016113f19190613c3e565b604051602081830303815290604052907bffffffffffffffffffffffffffffffffffffffffffffffffffffffff19166020820180517bffffffffffffffffffffffffffffffffffffffffffffffffffffffff8381831617835250505050612728565b8060200190518101906114669190613f8b565b9050919050565b611475612308565b600061147f6123a3565b905060028160000154036114c8576040517f08c379a00000000000000000000000000000000000000000000000000000000081526004016114bf90613cbd565b60405180910390fd5b600281600001819055506115956040518060a0016040528073fe15c2695f1f920da45c30aae47d11de51007af973ffffffffffffffffffffffffffffffffffffffff168152602001735219558ee591b030e075892acc41334a1694fd8a73ffffffffffffffffffffffffffffffffffffffff1681526020017f544a5f415641585f4554485f4c5000000000000000000000000000000000000081526020017f59595f544a5f415641585f4554485f4c500000000000000000000000000000008152602001848152506128c2565b61159d612601565b6115dc576040517f08c379a00000000000000000000000000000000000000000000000000000000081526004016115d390613d4f565b60405180910390fd5b600181600001819055505050565b6115f2612308565b60006115fc6123a3565b90506002816000015403611645576040517f08c379a000000000000000000000000000000000000000000000000000000000815260040161163c90613cbd565b60405180910390fd5b600281600001819055506117126040518060a00160405280730e0100ab771e9288e0aa97e11557e6654c3a966573ffffffffffffffffffffffffffffffffffffffff16815260200173c0cd58661b68e10b49d3bec4bc5e44e7a7c2065673ffffffffffffffffffffffffffffffffffffffff1681526020017f504e475f415641585f555344435f4c500000000000000000000000000000000081526020017f59595f504e475f415641585f555344435f4c50000000000000000000000000008152602001848152506128c2565b61171a612601565b611759576040517f08c379a000000000000000000000000000000000000000000000000000000000815260040161175090613d4f565b60405180910390fd5b600181600001819055505050565b61176f612308565b60006117796123a3565b905060028160000154036117c2576040517f08c379a00000000000000000000000000000000000000000000000000000000081526004016117b990613cbd565b60405180910390fd5b6002816000018190555061188f6040518060a00160405280734b946c91c2b1a7d7c40fb3c130cdfbaf8389094d73ffffffffffffffffffffffffffffffffffffffff1681526020017322ede03f1115666cf05a4bafafaee8f43d42cd5673ffffffffffffffffffffffffffffffffffffffff1681526020017f544a5f415641585f73415641585f4c500000000000000000000000000000000081526020017f59595f544a5f415641585f73415641585f4c50000000000000000000000000008152602001848152506123d0565b611897612601565b6118d6576040517f08c379a00000000000000000000000000000000000000000000000000000000081526004016118cd90613d4f565b60405180910390fd5b600181600001819055505050565b6118ec6134dd565b61197a6118ff63a3aa8d1e60e01b61269e565b63a3aa8d1e60e01b846040516024016119189190613e1e565b604051602081830303815290604052907bffffffffffffffffffffffffffffffffffffffffffffffffffffffff19166020820180517bffffffffffffffffffffffffffffffffffffffffffffffffffffffff8381831617835250505050612728565b80602001905181019061198d91906142f9565b9050919050565b61199c612308565b60006119a66123a3565b905060028160000154036119ef576040517f08c379a00000000000000000000000000000000000000000000000000000000081526004016119e690613cbd565b60405180910390fd5b60028160000181905550611abc6040518060a00160405280737c05d54fc5cb6e4ad87c6f5db3b807c94bb89c5273ffffffffffffffffffffffffffffffffffffffff16815260200173fcd2050e213cc54db2c9c99632ac870574fbc26173ffffffffffffffffffffffffffffffffffffffff1681526020017f504e475f415641585f4554485f4c50000000000000000000000000000000000081526020017f59595f504e475f415641585f4554485f4c5000000000000000000000000000008152602001848152506128c2565b611ac4612601565b611b03576040517f08c379a0000000000000000000000000000000000000000000000000000000008152600401611afa90613d4f565b60405180910390fd5b600181600001819055505050565b611b19612308565b6000611b236123a3565b90506002816000015403611b6c576040517f08c379a0000000000000000000000000000000000000000000000000000000008152600401611b6390613cbd565b60405180910390fd5b60028160000181905550611c396040518060a00160405280734b946c91c2b1a7d7c40fb3c130cdfbaf8389094d73ffffffffffffffffffffffffffffffffffffffff1681526020017322ede03f1115666cf05a4bafafaee8f43d42cd5673ffffffffffffffffffffffffffffffffffffffff1681526020017f544a5f415641585f73415641585f4c500000000000000000000000000000000081526020017f59595f544a5f415641585f73415641585f4c50000000000000000000000000008152602001848152506128c2565b611c41612601565b611c80576040517f08c379a0000000000000000000000000000000000000000000000000000000008152600401611c7790613d4f565b60405180910390fd5b600181600001819055505050565b611c96612308565b6000611ca06123a3565b90506002816000015403611ce9576040517f08c379a0000000000000000000000000000000000000000000000000000000008152600401611ce090613cbd565b60405180910390fd5b60028160000181905550611db66040518060a0016040528073fe15c2695f1f920da45c30aae47d11de51007af973ffffffffffffffffffffffffffffffffffffffff168152602001735219558ee591b030e075892acc41334a1694fd8a73ffffffffffffffffffffffffffffffffffffffff1681526020017f544a5f415641585f4554485f4c5000000000000000000000000000000000000081526020017f59595f544a5f415641585f4554485f4c500000000000000000000000000000008152602001848152506123d0565b611dbe612601565b611dfd576040517f08c379a0000000000000000000000000000000000000000000000000000000008152600401611df490613d4f565b60405180910390fd5b600181600001819055505050565b611e13612308565b6000611e1d6123a3565b90506002816000015403611e66576040517f08c379a0000000000000000000000000000000000000000000000000000000008152600401611e5d90613cbd565b60405180910390fd5b60028160000181905550611f336040518060a00160405280732b2c81e08f1af8835a78bb2a90ae924ace0ea4be73ffffffffffffffffffffffffffffffffffffffff16815260200173b8f531c0d3c53b1760bcb7f57d87762fd25c497773ffffffffffffffffffffffffffffffffffffffff1681526020017f734156415800000000000000000000000000000000000000000000000000000081526020017f59595f5054505f734156415800000000000000000000000000000000000000008152602001848152506128c2565b611f3b612601565b611f7a576040517f08c379a0000000000000000000000000000000000000000000000000000000008152600401611f7190613d4f565b60405180910390fd5b600181600001819055505050565b611f90612308565b6000611f9a6123a3565b90506002816000015403611fe3576040517f08c379a0000000000000000000000000000000000000000000000000000000008152600401611fda90613cbd565b60405180910390fd5b600281600001819055506120b06040518060a0016040528073f4003f4efbe8691b60249e6afbd307abe7758adb73ffffffffffffffffffffffffffffffffffffffff16815260200173def94a13ff31fb6363f1e03bf18fe0f59db83bbc73ffffffffffffffffffffffffffffffffffffffff1681526020017f544a5f415641585f555344435f4c50000000000000000000000000000000000081526020017f59595f544a5f415641585f555344435f4c5000000000000000000000000000008152602001848152506128c2565b6120b8612601565b6120f7576040517f08c379a00000000000000000000000000000000000000000000000000000000081526004016120ee90613d4f565b60405180910390fd5b600181600001819055505050565b61218861211863e017e12560e01b61269e565b63e017e12560e01b604051602401604051602081830303815290604052907bffffffffffffffffffffffffffffffffffffffffffffffffffffffff19166020820180517bffffffffffffffffffffffffffffffffffffffffffffffffffffffff8381831617835250505050612728565b50565b612193612308565b600061219d6123a3565b905060028160000154036121e6576040517f08c379a00000000000000000000000000000000000000000000000000000000081526004016121dd90613cbd565b60405180910390fd5b600281600001819055506122b36040518060a00160405280732b2c81e08f1af8835a78bb2a90ae924ace0ea4be73ffffffffffffffffffffffffffffffffffffffff16815260200173b8f531c0d3c53b1760bcb7f57d87762fd25c497773ffffffffffffffffffffffffffffffffffffffff1681526020017f734156415800000000000000000000000000000000000000000000000000000081526020017f59595f5054505f734156415800000000000000000000000000000000000000008152602001848152506123d0565b6122bb612601565b6122fa576040517f08c379a00000000000000000000000000000000000000000000000000000000081526004016122f190613d4f565b60405180910390fd5b600181600001819055505050565b612310612d84565b60010160009054906101000a900473ffffffffffffffffffffffffffffffffffffffff1673ffffffffffffffffffffffffffffffffffffffff163373ffffffffffffffffffffffffffffffffffffffff16146123a1576040517f08c379a0000000000000000000000000000000000000000000000000000000008152600401612398906143b4565b60405180910390fd5b565b6000807f1c85eba10a4cf2d29c83fc15f97931886b9fd3caeb70d8c377aeedc58b919e3b90508091505090565b6123d8610f92565b6000816020015190506124688173ffffffffffffffffffffffffffffffffffffffff166370a08231306040518263ffffffff1660e01b815260040161241d9190613ff9565b602060405180830381865afa15801561243a573d6000803e3d6000fd5b505050506040513d601f19601f8201168201806040525081019061245e9190613f8b565b83608001516127b9565b8260800181815250508073ffffffffffffffffffffffffffffffffffffffff16632e1a7d4d83608001516040518263ffffffff1660e01b81526004016124ae9190613870565b600060405180830381600087803b1580156124c857600080fd5b505af11580156124dc573d6000803e3d6000fd5b505050506124f2826040015183600001516127f0565b60008173ffffffffffffffffffffffffffffffffffffffff166370a08231306040518263ffffffff1660e01b815260040161252d9190613ff9565b602060405180830381865afa15801561254a573d6000803e3d6000fd5b505050506040513d601f19601f8201168201806040525081019061256e9190613f8b565b036125815761258082606001516127d2565b5b816020015173ffffffffffffffffffffffffffffffffffffffff1682604001513373ffffffffffffffffffffffffffffffffffffffff167fb45e912aa92f8b6b5caaef25e5188ab9c924b5c90188180c3f0cdeb3273c731f8560800151426040516125ed929190614014565b60405180910390a4506125fe612105565b50565b6000612686612616635ce2395060e01b61269e565b635ce2395060e01b604051602401604051602081830303815290604052907bffffffffffffffffffffffffffffffffffffffffffffffffffffffff19166020820180517bffffffffffffffffffffffffffffffffffffffffffffffffffffffff8381831617835250505050612728565b806020019051810190612699919061440c565b905090565b60006126a8612db1565b73ffffffffffffffffffffffffffffffffffffffff16630d741577836040518263ffffffff1660e01b81526004016126e09190614474565b602060405180830381865afa1580156126fd573d6000803e3d6000fd5b505050506040513d601f19601f8201168201806040525081019061272191906144bb565b9050919050565b6060600061273583612dcd565b90506000808573ffffffffffffffffffffffffffffffffffffffff168360405161275f9190614559565b600060405180830381855af49150503d806000811461279a576040519150601f19603f3d011682016040523d82523d6000602084013e61279f565b606091505b50915091506127ae8282612e87565b935050505092915050565b60008183106127c857816127ca565b825b905092915050565b60006127dc612d84565b90506127eb8160040183612f87565b505050565b60008203612833576040517f08c379a000000000000000000000000000000000000000000000000000000000815260040161282a906145bc565b60405180910390fd5b600073ffffffffffffffffffffffffffffffffffffffff168173ffffffffffffffffffffffffffffffffffffffff16036128a2576040517f08c379a000000000000000000000000000000000000000000000000000000000815260040161289990614628565b60405180910390fd5b60006128ac612d84565b90506128bc816004018484612f9e565b50505050565b6128ca610f92565b60006128d4612fd0565b9050600082608001511161291d576040517f08c379a000000000000000000000000000000000000000000000000000000000815260040161291490614089565b60405180910390fd5b60028173ffffffffffffffffffffffffffffffffffffffff1663e0117bdd84600001516040518263ffffffff1660e01b815260040161295c9190613ff9565b602060405180830381865afa158015612979573d6000803e3d6000fd5b505050506040513d601f19601f8201168201806040525081019061299d9190613f8b565b146129dd576040517f08c379a00000000000000000000000000000000000000000000000000000000081526004016129d490614694565b60405180910390fd5b60028173ffffffffffffffffffffffffffffffffffffffff1663e0117bdd84602001516040518263ffffffff1660e01b8152600401612a1c9190613ff9565b602060405180830381865afa158015612a39573d6000803e3d6000fd5b505050506040513d601f19601f82011682018060405250810190612a5d9190613f8b565b14612a9d576040517f08c379a0000000000000000000000000000000000000000000000000000000008152600401612a9490614700565b60405180910390fd5b8160800151826000015173ffffffffffffffffffffffffffffffffffffffff166370a08231306040518263ffffffff1660e01b8152600401612adf9190613ff9565b602060405180830381865afa158015612afc573d6000803e3d6000fd5b505050506040513d601f19601f82011682018060405250810190612b209190613f8b565b1015612b61576040517f08c379a0000000000000000000000000000000000000000000000000000000008152600401612b589061476c565b60405180910390fd5b816000015173ffffffffffffffffffffffffffffffffffffffff1663095ea7b3836020015184608001516040518363ffffffff1660e01b8152600401612ba892919061478c565b6020604051808303816000875af1158015612bc7573d6000803e3d6000fd5b505050506040513d601f19601f82011682018060405250810190612beb919061440c565b50816020015173ffffffffffffffffffffffffffffffffffffffff1663b6b55f2583608001516040518263ffffffff1660e01b8152600401612c2d9190613870565b600060405180830381600087803b158015612c4757600080fd5b505af1158015612c5b573d6000803e3d6000fd5b50505050612c71826060015183602001516127f0565b6000826000015173ffffffffffffffffffffffffffffffffffffffff166370a08231306040518263ffffffff1660e01b8152600401612cb09190613ff9565b602060405180830381865afa158015612ccd573d6000803e3d6000fd5b505050506040513d601f19601f82011682018060405250810190612cf19190613f8b565b03612d0457612d0382604001516127d2565b5b816020015173ffffffffffffffffffffffffffffffffffffffff1682604001513373ffffffffffffffffffffffffffffffffffffffff167f643de8375c3a1c76ab240fe4eda6e589cf10acfe25f67d9951ef0a7ababb6722856080015142604051612d70929190614014565b60405180910390a450612d81612105565b50565b6000807f8d5bb42e0ac1496a2c326edc9c00758985246e6c2bb146d6c2f4a0d509e0960a90508091505090565b6000732916b3bf7c35bd21e63d01c93c62fb0d4994e56d905090565b60606000825190506000612ddf612fec565b905060008183612def91906147e4565b90506000369050821115612e2f576040517f5796f78a00000000000000000000000000000000000000000000000000000000815260040160405180910390fd5b6060604051905081815285602001848101826020015b81831015612e625782518152602083019250602081019050612e45565b5050508283360385602001830137602084840182010160405280945050505050919050565b606082612f7e576000825103612ec9576040517f567fe27a00000000000000000000000000000000000000000000000000000000815260040160405180910390fd5b600060208301517f08c379a00000000000000000000000000000000000000000000000000000000081149150508015612f41576060604484019050806040517f0f7e8278000000000000000000000000000000000000000000000000000000008152600401612f38919061485c565b60405180910390fd5b826040517ffd36fde3000000000000000000000000000000000000000000000000000000008152600401612f7591906148c8565b60405180910390fd5b81905092915050565b6000612f96836000018361305c565b905092915050565b6000612fc784600001848473ffffffffffffffffffffffffffffffffffffffff1660001b613095565b90509392505050565b600073f3978209b7cff2b90100c6f87cec77de928ed58e905090565b600080612ff76130d0565b90506000613004826131e1565b61ffff16905060028261301791906147e4565b915060005b8181101561305357600061302f8461323d565b9050808461303d91906147e4565b935050808061304b906148ea565b91505061301c565b50819250505090565b60008260020160008381526020019081526020016000206000905561308d828460000161327c90919063ffffffff16565b905092915050565b600081846002016000858152602001908152602001600020819055506130c7838560000161329390919063ffffffff16565b90509392505050565b60008060203603356602ed57011e000081166602ed57011e00001491505080613125576040517fe7764c9e00000000000000000000000000000000000000000000000000000000815260040160405180910390fd5b60008036905060291115613165576040517f5796f78a00000000000000000000000000000000000000000000000000000000815260040160405180910390fd5b602936033590506000600960038362ffffff1661318291906147e4565b61318c91906147e4565b905060003690506002826131a091906147e4565b11156131d8576040517fc30a7bd700000000000000000000000000000000000000000000000000000000815260040160405180910390fd5b80935050505090565b6000806020836131f191906147e4565b90506000369050811115613231576040517f5796f78a00000000000000000000000000000000000000000000000000000000815260040160405180910390fd5b80360335915050919050565b600080600061324b846132aa565b91509150604e81602061325e91906147e4565b836132699190614932565b61327391906147e4565b92505050919050565b600061328b8360000183613320565b905092915050565b60006132a28360000183613434565b905092915050565b60008060008060006041866132bf91906147e4565b905060006132e66020836132d391906147e4565b60003690506134a490919063ffffffff16565b9050803593506133006003826134a490919063ffffffff16565b9050803592508362ffffff1695508263ffffffff16945050505050915091565b600080836001016000848152602001908152602001600020549050600081146134285760006001826133529190614974565b905060006001866000018054905061336a9190614974565b90508181146133d957600086600001828154811061338b5761338a6149a8565b5b90600052602060002001549050808760000184815481106133af576133ae6149a8565b5b90600052602060002001819055508387600101600083815260200190815260200160002081905550505b856000018054806133ed576133ec6149d7565b5b60019003818190600052602060002001600090559055856001016000868152602001908152602001600020600090556001935050505061342e565b60009150505b92915050565b600061344083836134ba565b61349957826000018290806001815401808255809150506001900390600052602060002001600090919091909150558260000180549050836001016000848152602001908152602001600020819055506001905061349e565b600090505b92915050565b600081836134b29190614974565b905092915050565b600080836001016000848152602001908152602001600020541415905092915050565b6040518060800160405280606081526020016060815260200160608152602001606081525090565b6000604051905090565b600080fd5b600080fd5b6000819050919050565b61352c81613519565b811461353757600080fd5b50565b60008135905061354981613523565b92915050565b6000602082840312156135655761356461350f565b5b60006135738482850161353a565b91505092915050565b600080fd5b6000601f19601f8301169050919050565b7f4e487b7100000000000000000000000000000000000000000000000000000000600052604160045260246000fd5b6135ca82613581565b810181811067ffffffffffffffff821117156135e9576135e8613592565b5b80604052505050565b60006135fc613505565b905061360882826135c1565b919050565b600067ffffffffffffffff82111561362857613627613592565b5b602082029050602081019050919050565b600080fd5b6000819050919050565b6136518161363e565b811461365c57600080fd5b50565b60008135905061366e81613648565b92915050565b60006136876136828461360d565b6135f2565b905080838252602082019050602084028301858111156136aa576136a9613639565b5b835b818110156136d357806136bf888261365f565b8452602084019350506020810190506136ac565b5050509392505050565b600082601f8301126136f2576136f161357c565b5b8135613702848260208601613674565b91505092915050565b6000602082840312156137215761372061350f565b5b600082013567ffffffffffffffff81111561373f5761373e613514565b5b61374b848285016136dd565b91505092915050565b600081519050919050565b600082825260208201905092915050565b6000819050602082019050919050565b61378981613519565b82525050565b600061379b8383613780565b60208301905092915050565b6000602082019050919050565b60006137bf82613754565b6137c9818561375f565b93506137d483613770565b8060005b838110156138055781516137ec888261378f565b97506137f7836137a7565b9250506001810190506137d8565b5085935050505092915050565b6000602082019050818103600083015261382c81846137b4565b905092915050565b60006020828403121561384a5761384961350f565b5b60006138588482850161365f565b91505092915050565b61386a81613519565b82525050565b60006020820190506138856000830184613861565b92915050565b600080fd5b600080fd5b600067ffffffffffffffff8211156138b0576138af613592565b5b602082029050602081019050919050565b6000604082840312156138d7576138d661388b565b5b6138e160406135f2565b905060006138f18482850161365f565b60008301525060206139058482850161353a565b60208301525092915050565b600061392461391f84613895565b6135f2565b9050808382526020820190506040840283018581111561394757613946613639565b5b835b81811015613970578061395c88826138c1565b845260208401935050604081019050613949565b5050509392505050565b600082601f83011261398f5761398e61357c565b5b813561399f848260208601613911565b91505092915050565b6000608082840312156139be576139bd61388b565b5b6139c860806135f2565b9050600082013567ffffffffffffffff8111156139e8576139e7613890565b5b6139f48482850161397a565b600083015250602082013567ffffffffffffffff811115613a1857613a17613890565b5b613a248482850161397a565b602083015250604082013567ffffffffffffffff811115613a4857613a47613890565b5b613a548482850161397a565b604083015250606082013567ffffffffffffffff811115613a7857613a77613890565b5b613a848482850161397a565b60608301525092915050565b600060208284031215613aa657613aa561350f565b5b600082013567ffffffffffffffff811115613ac457613ac3613514565b5b613ad0848285016139a8565b91505092915050565b600081519050919050565b600082825260208201905092915050565b6000819050602082019050919050565b613b0e8161363e565b82525050565b604082016000820151613b2a6000850182613b05565b506020820151613b3d6020850182613780565b50505050565b6000613b4f8383613b14565b60408301905092915050565b6000602082019050919050565b6000613b7382613ad9565b613b7d8185613ae4565b9350613b8883613af5565b8060005b83811015613bb9578151613ba08882613b43565b9750613bab83613b5b565b925050600181019050613b8c565b5085935050505092915050565b60006080830160008301518482036000860152613be38282613b68565b91505060208301518482036020860152613bfd8282613b68565b91505060408301518482036040860152613c178282613b68565b91505060608301518482036060860152613c318282613b68565b9150508091505092915050565b60006020820190508181036000830152613c588184613bc6565b905092915050565b600082825260208201905092915050565b7f5265656e7472616e637947756172643a207265656e7472616e742063616c6c00600082015250565b6000613ca7601f83613c60565b9150613cb282613c71565b602082019050919050565b60006020820190508181036000830152613cd681613c9a565b9050919050565b7f54686520616374696f6e206d617920636175736520616e206163636f756e742060008201527f746f206265636f6d6520696e736f6c76656e7400000000000000000000000000602082015250565b6000613d39603383613c60565b9150613d4482613cdd565b604082019050919050565b60006020820190508181036000830152613d6881613d2c565b9050919050565b600081519050919050565b600082825260208201905092915050565b6000819050602082019050919050565b6000613da78383613b05565b60208301905092915050565b6000602082019050919050565b6000613dcb82613d6f565b613dd58185613d7a565b9350613de083613d8b565b8060005b83811015613e11578151613df88882613d9b565b9750613e0383613db3565b925050600181019050613de4565b5085935050505092915050565b60006020820190508181036000830152613e388184613dc0565b905092915050565b600067ffffffffffffffff821115613e5b57613e5a613592565b5b602082029050602081019050919050565b600081519050613e7b81613523565b92915050565b6000613e94613e8f84613e40565b6135f2565b90508083825260208201905060208402830185811115613eb757613eb6613639565b5b835b81811015613ee05780613ecc8882613e6c565b845260208401935050602081019050613eb9565b5050509392505050565b600082601f830112613eff57613efe61357c565b5b8151613f0f848260208601613e81565b91505092915050565b600060208284031215613f2e57613f2d61350f565b5b600082015167ffffffffffffffff811115613f4c57613f4b613514565b5b613f5884828501613eea565b91505092915050565b613f6a8161363e565b82525050565b6000602082019050613f856000830184613f61565b92915050565b600060208284031215613fa157613fa061350f565b5b6000613faf84828501613e6c565b91505092915050565b600073ffffffffffffffffffffffffffffffffffffffff82169050919050565b6000613fe382613fb8565b9050919050565b613ff381613fd8565b82525050565b600060208201905061400e6000830184613fea565b92915050565b60006040820190506140296000830185613861565b6140366020830184613861565b9392505050565b7f43616e6e6f74207374616b65203020746f6b656e730000000000000000000000600082015250565b6000614073601583613c60565b915061407e8261403d565b602082019050919050565b600060208201905081810360008301526140a281614066565b9050919050565b7f4e6f7420656e6f756768204156415820617661696c61626c6500000000000000600082015250565b60006140df601983613c60565b91506140ea826140a9565b602082019050919050565b6000602082019050818103600083015261410e816140d2565b9050919050565b60008151905061412481613648565b92915050565b6000604082840312156141405761413f61388b565b5b61414a60406135f2565b9050600061415a84828501614115565b600083015250602061416e84828501613e6c565b60208301525092915050565b600061418d61418884613895565b6135f2565b905080838252602082019050604084028301858111156141b0576141af613639565b5b835b818110156141d957806141c5888261412a565b8452602084019350506040810190506141b2565b5050509392505050565b600082601f8301126141f8576141f761357c565b5b815161420884826020860161417a565b91505092915050565b6000608082840312156142275761422661388b565b5b61423160806135f2565b9050600082015167ffffffffffffffff81111561425157614250613890565b5b61425d848285016141e3565b600083015250602082015167ffffffffffffffff81111561428157614280613890565b5b61428d848285016141e3565b602083015250604082015167ffffffffffffffff8111156142b1576142b0613890565b5b6142bd848285016141e3565b604083015250606082015167ffffffffffffffff8111156142e1576142e0613890565b5b6142ed848285016141e3565b60608301525092915050565b60006020828403121561430f5761430e61350f565b5b600082015167ffffffffffffffff81111561432d5761432c613514565b5b61433984828501614211565b91505092915050565b7f4469616d6f6e6453746f726167654c69623a204d75737420626520636f6e747260008201527f616374206f776e65720000000000000000000000000000000000000000000000602082015250565b600061439e602983613c60565b91506143a982614342565b604082019050919050565b600060208201905081810360008301526143cd81614391565b9050919050565b60008115159050919050565b6143e9816143d4565b81146143f457600080fd5b50565b600081519050614406816143e0565b92915050565b6000602082840312156144225761442161350f565b5b6000614430848285016143f7565b91505092915050565b60007fffffffff0000000000000000000000000000000000000000000000000000000082169050919050565b61446e81614439565b82525050565b60006020820190506144896000830184614465565b92915050565b61449881613fd8565b81146144a357600080fd5b50565b6000815190506144b58161448f565b92915050565b6000602082840312156144d1576144d061350f565b5b60006144df848285016144a6565b91505092915050565b600081519050919050565b600081905092915050565b60005b8381101561451c578082015181840152602081019050614501565b60008484015250505050565b6000614533826144e8565b61453d81856144f3565b935061454d8185602086016144fe565b80840191505092915050565b60006145658284614528565b915081905092915050565b7f53796d626f6c2063616e6e6f7420626520656d70747900000000000000000000600082015250565b60006145a6601683613c60565b91506145b182614570565b602082019050919050565b600060208201905081810360008301526145d581614599565b9050919050565b7f496e76616c696420416464726573735a65726f00000000000000000000000000600082015250565b6000614612601383613c60565b915061461d826145dc565b602082019050919050565b6000602082019050818103600083015261464181614605565b9050919050565b7f546f6b656e206e6f7420737570706f7274656400000000000000000000000000600082015250565b600061467e601383613c60565b915061468982614648565b602082019050919050565b600060208201905081810360008301526146ad81614671565b9050919050565b7f5661756c7420746f6b656e206e6f7420737570706f7274656400000000000000600082015250565b60006146ea601983613c60565b91506146f5826146b4565b602082019050919050565b60006020820190508181036000830152614719816146dd565b9050919050565b7f4e6f7420656e6f75676820746f6b656e20617661696c61626c65000000000000600082015250565b6000614756601a83613c60565b915061476182614720565b602082019050919050565b6000602082019050818103600083015261478581614749565b9050919050565b60006040820190506147a16000830185613fea565b6147ae6020830184613861565b9392505050565b7f4e487b7100000000000000000000000000000000000000000000000000000000600052601160045260246000fd5b60006147ef82613519565b91506147fa83613519565b9250828201905080821115614812576148116147b5565b5b92915050565b600081519050919050565b600061482e82614818565b6148388185613c60565b93506148488185602086016144fe565b61485181613581565b840191505092915050565b600060208201905081810360008301526148768184614823565b905092915050565b600082825260208201905092915050565b600061489a826144e8565b6148a4818561487e565b93506148b48185602086016144fe565b6148bd81613581565b840191505092915050565b600060208201905081810360008301526148e2818461488f565b905092915050565b60006148f582613519565b91507fffffffffffffffffffffffffffffffffffffffffffffffffffffffffffffffff8203614927576149266147b5565b5b600182019050919050565b600061493d82613519565b915061494883613519565b925082820261495681613519565b9150828204841483151761496d5761496c6147b5565b5b5092915050565b600061497f82613519565b915061498a83613519565b92508282039050818111156149a2576149a16147b5565b5b92915050565b7f4e487b7100000000000000000000000000000000000000000000000000000000600052603260045260246000fd5b7f4e487b7100000000000000000000000000000000000000000000000000000000600052603160045260246000fdfea26469706673582212200c6e8cce8544dc3209cd7718f2559620cbdac39665f42e2fdbd21f7e6294ea3d64736f6c63430008110033",
  "devdoc": {
    "events": {
      "Staked(address,bytes32,address,uint256,uint256)": {
        "details": "emitted when user stakes an asset",
        "params": {
          "amount": "of the asset that was staked",
          "asset": "the asset that was staked",
          "timestamp": "of staking*",
          "user": "the address executing staking",
          "vault": "address of the vault token"
        }
      },
      "Unstaked(address,bytes32,address,uint256,uint256)": {
        "details": "emitted when user unstakes an asset",
        "params": {
          "amount": "of the asset that was unstaked",
          "asset": "the asset that was unstaked",
          "timestamp": "of unstaking*",
          "user": "the address executing unstaking",
          "vault": "address of the vault token"
        }
      }
    },
    "kind": "dev",
    "methods": {
      "stakeAVAXYak(uint256)": {
        "details": "This function uses the redstone-evm-connector",
        "params": {
          "amount": "amount of AVAX to be staked*"
        }
      },
      "stakePNGAVAXETHYak(uint256)": {
        "details": "This function uses the redstone-evm-connector",
        "params": {
          "amount": "amount of PNG_AVAX_ETH_LP to be staked*"
        }
      },
      "stakePNGAVAXUSDCYak(uint256)": {
        "details": "This function uses the redstone-evm-connector",
        "params": {
          "amount": "amount of PNG_AVAX_USDC_LP to be staked*"
        }
      },
      "stakeSAVAXYak(uint256)": {
        "details": "This function uses the redstone-evm-connector",
        "params": {
          "amount": "amount of sAVAX to be staked*"
        }
      },
      "stakeTJAVAXETHYak(uint256)": {
        "details": "This function uses the redstone-evm-connector",
        "params": {
          "amount": "amount of TJ_AVAX_ETH_LP to be staked*"
        }
      },
      "stakeTJAVAXSAVAXYak(uint256)": {
        "details": "This function uses the redstone-evm-connector",
        "params": {
          "amount": "amount of TJ_AVAX_sAVAX_LP to be staked*"
        }
      },
      "stakeTJAVAXUSDCYak(uint256)": {
        "details": "This function uses the redstone-evm-connector",
        "params": {
          "amount": "amount of TJ_AVAX_USDC to be staked*"
        }
      },
      "unstakeAVAXYak(uint256)": {
        "details": "This function uses the redstone-evm-connector",
        "params": {
          "amount": "amount of AVAX to be unstaked*"
        }
      },
      "unstakePNGAVAXETHYak(uint256)": {
        "details": "This function uses the redstone-evm-connector",
        "params": {
          "amount": "amount of PNG_AVAX_ETH_LP to be unstaked*"
        }
      },
      "unstakePNGAVAXUSDCYak(uint256)": {
        "details": "This function uses the redstone-evm-connector",
        "params": {
          "amount": "amount of PNG_AVAX_USDC_LP to be staked*"
        }
      },
      "unstakeSAVAXYak(uint256)": {
        "details": "This function uses the redstone-evm-connector",
        "params": {
          "amount": "amount of sAVAX to be unstaked*"
        }
      },
      "unstakeTJAVAXETHYak(uint256)": {
        "details": "This function uses the redstone-evm-connector",
        "params": {
          "amount": "amount of TJ_AVAX_ETH_LP to be unstaked*"
        }
      },
      "unstakeTJAVAXSAVAXYak(uint256)": {
        "details": "This function uses the redstone-evm-connector",
        "params": {
          "amount": "amount of TJ_AVAX_sAVAX_LP to be unstaked*"
        }
      },
      "unstakeTJAVAXUSDCYak(uint256)": {
        "details": "This function uses the redstone-evm-connector",
        "params": {
          "amount": "amount of TJ_AVAX_USDC to be unstaked*"
        }
      }
    },
    "version": 1
  },
  "userdoc": {
    "kind": "user",
    "methods": {
      "stakeAVAXYak(uint256)": {
        "notice": "Stakes AVAX in Yield Yak protocol"
      },
      "stakePNGAVAXETHYak(uint256)": {
        "notice": "Stakes PNG_AVAX_ETH_LP in Yield Yak protocol"
      },
      "stakePNGAVAXUSDCYak(uint256)": {
        "notice": "Stakes PNG_AVAX_USDC_LP in Yield Yak protocol"
      },
      "stakeSAVAXYak(uint256)": {
        "notice": "Stakes sAVAX in Yield Yak protocol"
      },
      "stakeTJAVAXETHYak(uint256)": {
        "notice": "Stakes TJ_AVAX_ETH_LP in Yield Yak protocol"
      },
      "stakeTJAVAXSAVAXYak(uint256)": {
        "notice": "Stakes TJ_AVAX_sAVAX_LP in Yield Yak protocol"
      },
      "stakeTJAVAXUSDCYak(uint256)": {
        "notice": "Stakes TJ_AVAX_USDC in Yield Yak protocol"
      },
      "unstakeAVAXYak(uint256)": {
        "notice": "Unstakes AVAX from Yield Yak protocol"
      },
      "unstakePNGAVAXETHYak(uint256)": {
        "notice": "Unstakes PNG_AVAX_ETH_LP in Yield Yak protocol"
      },
      "unstakePNGAVAXUSDCYak(uint256)": {
        "notice": "Unstakes PNG_AVAX_USDC_LP in Yield Yak protocol"
      },
      "unstakeSAVAXYak(uint256)": {
        "notice": "Unstakes sAVAX from Yield Yak protocol"
      },
      "unstakeTJAVAXETHYak(uint256)": {
        "notice": "Unstakes TJ_AVAX_ETH_LP in Yield Yak protocol"
      },
      "unstakeTJAVAXSAVAXYak(uint256)": {
        "notice": "Unstakes TJ_AVAX_sAVAX_LP in Yield Yak protocol"
      },
      "unstakeTJAVAXUSDCYak(uint256)": {
        "notice": "Unstakes TJ_AVAX_USDC in Yield Yak protocol"
      }
    },
    "version": 1
  },
  "storageLayout": {
    "storage": [
      {
        "astId": 12650,
        "contract": "contracts/facets/avalanche/YieldYakFacet.sol:YieldYakFacet",
        "label": "_status",
        "offset": 0,
        "slot": "0",
        "type": "t_uint256"
      }
    ],
    "types": {
      "t_uint256": {
        "encoding": "inplace",
        "label": "uint256",
        "numberOfBytes": "32"
      }
    }
  }
}