{
  "address": "0x0f31C3390Eab00e2faD1Aa61114DB0A59bA01b31",
  "abi": [
    {
      "inputs": [],
      "name": "CalldataMustHaveValidPayload",
      "type": "error"
    },
    {
      "inputs": [],
      "name": "CalldataOverOrUnderFlow",
      "type": "error"
    },
    {
      "inputs": [],
      "name": "EachSignerMustProvideTheSameValue",
      "type": "error"
    },
    {
      "inputs": [],
      "name": "EmptyCalldataPointersArr",
      "type": "error"
    },
    {
      "inputs": [],
      "name": "IncorrectUnsignedMetadataSize",
      "type": "error"
    },
    {
      "inputs": [
        {
          "internalType": "uint256",
          "name": "receviedSignersCount",
          "type": "uint256"
        },
        {
          "internalType": "uint256",
          "name": "requiredSignersCount",
          "type": "uint256"
        }
      ],
      "name": "InsufficientNumberOfUniqueSigners",
      "type": "error"
    },
    {
      "inputs": [],
      "name": "InvalidCalldataPointer",
      "type": "error"
    },
    {
      "inputs": [
        {
          "internalType": "bytes",
          "name": "result",
          "type": "bytes"
        }
      ],
      "name": "ProxyCalldataFailedWithCustomError",
      "type": "error"
    },
    {
      "inputs": [
        {
          "internalType": "string",
          "name": "message",
          "type": "string"
        }
      ],
      "name": "ProxyCalldataFailedWithStringMessage",
      "type": "error"
    },
    {
      "inputs": [],
      "name": "ProxyCalldataFailedWithoutErrMsg",
      "type": "error"
    },
    {
      "inputs": [
        {
          "internalType": "address",
          "name": "receivedSigner",
          "type": "address"
        }
      ],
      "name": "SignerNotAuthorised",
      "type": "error"
    },
    {
      "anonymous": false,
      "inputs": [
        {
          "indexed": true,
          "internalType": "address",
          "name": "user",
          "type": "address"
        },
        {
          "indexed": true,
          "internalType": "bytes32",
          "name": "asset",
          "type": "bytes32"
        },
        {
          "indexed": true,
          "internalType": "address",
          "name": "vault",
          "type": "address"
        },
        {
          "indexed": false,
          "internalType": "uint256",
          "name": "depositTokenAmount",
          "type": "uint256"
        },
        {
          "indexed": false,
          "internalType": "uint256",
          "name": "receiptTokenAmount",
          "type": "uint256"
        },
        {
          "indexed": false,
          "internalType": "uint256",
          "name": "timestamp",
          "type": "uint256"
        }
      ],
      "name": "Staked",
      "type": "event"
    },
    {
      "anonymous": false,
      "inputs": [
        {
          "indexed": true,
          "internalType": "address",
          "name": "user",
          "type": "address"
        },
        {
          "indexed": true,
          "internalType": "bytes32",
          "name": "asset",
          "type": "bytes32"
        },
        {
          "indexed": true,
          "internalType": "address",
          "name": "vault",
          "type": "address"
        },
        {
          "indexed": false,
          "internalType": "uint256",
          "name": "depositTokenAmount",
          "type": "uint256"
        },
        {
          "indexed": false,
          "internalType": "uint256",
          "name": "receiptTokenAmount",
          "type": "uint256"
        },
        {
          "indexed": false,
          "internalType": "uint256",
          "name": "timestamp",
          "type": "uint256"
        }
      ],
      "name": "Unstaked",
      "type": "event"
    },
    {
      "inputs": [
        {
          "internalType": "bytes32[]",
          "name": "assetsToRepay",
          "type": "bytes32[]"
        }
      ],
      "name": "_getAllPricesForLiquidation",
      "outputs": [
        {
          "components": [
            {
              "components": [
                {
                  "internalType": "bytes32",
                  "name": "asset",
                  "type": "bytes32"
                },
                {
                  "internalType": "uint256",
                  "name": "price",
                  "type": "uint256"
                }
              ],
              "internalType": "struct SolvencyFacetProd.AssetPrice[]",
              "name": "ownedAssetsPrices",
              "type": "tuple[]"
            },
            {
              "components": [
                {
                  "internalType": "bytes32",
                  "name": "asset",
                  "type": "bytes32"
                },
                {
                  "internalType": "uint256",
                  "name": "price",
                  "type": "uint256"
                }
              ],
              "internalType": "struct SolvencyFacetProd.AssetPrice[]",
              "name": "debtAssetsPrices",
              "type": "tuple[]"
            },
            {
              "components": [
                {
                  "internalType": "bytes32",
                  "name": "asset",
                  "type": "bytes32"
                },
                {
                  "internalType": "uint256",
                  "name": "price",
                  "type": "uint256"
                }
              ],
              "internalType": "struct SolvencyFacetProd.AssetPrice[]",
              "name": "stakedPositionsPrices",
              "type": "tuple[]"
            },
            {
              "components": [
                {
                  "internalType": "bytes32",
                  "name": "asset",
                  "type": "bytes32"
                },
                {
                  "internalType": "uint256",
                  "name": "price",
                  "type": "uint256"
                }
              ],
              "internalType": "struct SolvencyFacetProd.AssetPrice[]",
              "name": "assetsToRepayPrices",
              "type": "tuple[]"
            }
          ],
          "internalType": "struct SolvencyFacetProd.CachedPrices",
          "name": "result",
          "type": "tuple"
        }
      ],
      "stateMutability": "nonpayable",
      "type": "function"
    },
    {
      "inputs": [],
      "name": "_getHealthRatio",
      "outputs": [
        {
          "internalType": "uint256",
          "name": "health",
          "type": "uint256"
        }
      ],
      "stateMutability": "nonpayable",
      "type": "function"
    },
    {
      "inputs": [
        {
          "components": [
            {
              "components": [
                {
                  "internalType": "bytes32",
                  "name": "asset",
                  "type": "bytes32"
                },
                {
                  "internalType": "uint256",
                  "name": "price",
                  "type": "uint256"
                }
              ],
              "internalType": "struct SolvencyFacetProd.AssetPrice[]",
              "name": "ownedAssetsPrices",
              "type": "tuple[]"
            },
            {
              "components": [
                {
                  "internalType": "bytes32",
                  "name": "asset",
                  "type": "bytes32"
                },
                {
                  "internalType": "uint256",
                  "name": "price",
                  "type": "uint256"
                }
              ],
              "internalType": "struct SolvencyFacetProd.AssetPrice[]",
              "name": "debtAssetsPrices",
              "type": "tuple[]"
            },
            {
              "components": [
                {
                  "internalType": "bytes32",
                  "name": "asset",
                  "type": "bytes32"
                },
                {
                  "internalType": "uint256",
                  "name": "price",
                  "type": "uint256"
                }
              ],
              "internalType": "struct SolvencyFacetProd.AssetPrice[]",
              "name": "stakedPositionsPrices",
              "type": "tuple[]"
            },
            {
              "components": [
                {
                  "internalType": "bytes32",
                  "name": "asset",
                  "type": "bytes32"
                },
                {
                  "internalType": "uint256",
                  "name": "price",
                  "type": "uint256"
                }
              ],
              "internalType": "struct SolvencyFacetProd.AssetPrice[]",
              "name": "assetsToRepayPrices",
              "type": "tuple[]"
            }
          ],
          "internalType": "struct SolvencyFacetProd.CachedPrices",
          "name": "cachedPrices",
          "type": "tuple"
        }
      ],
      "name": "_getHealthRatioWithPrices",
      "outputs": [
        {
          "internalType": "uint256",
          "name": "health",
          "type": "uint256"
        }
      ],
      "stateMutability": "nonpayable",
      "type": "function"
    },
    {
      "inputs": [],
      "name": "_resetPrimeAccountAssetsExposure",
      "outputs": [],
      "stateMutability": "nonpayable",
      "type": "function"
    },
    {
      "inputs": [],
      "name": "_setPrimeAccountAssetsExposure",
      "outputs": [],
      "stateMutability": "nonpayable",
      "type": "function"
    },
    {
      "inputs": [
        {
          "internalType": "bytes32",
          "name": "symbol",
          "type": "bytes32"
        }
      ],
      "name": "getPrice",
      "outputs": [
        {
          "internalType": "uint256",
          "name": "price",
          "type": "uint256"
        }
      ],
      "stateMutability": "nonpayable",
      "type": "function"
    },
    {
      "inputs": [
        {
          "internalType": "bytes32[]",
          "name": "symbols",
          "type": "bytes32[]"
        }
      ],
      "name": "getPrices",
      "outputs": [
        {
          "internalType": "uint256[]",
          "name": "prices",
          "type": "uint256[]"
        }
      ],
      "stateMutability": "nonpayable",
      "type": "function"
    },
    {
      "inputs": [
        {
          "internalType": "uint256",
          "name": "amount",
          "type": "uint256"
        }
      ],
      "name": "stakeAVAXYak",
      "outputs": [],
      "stateMutability": "nonpayable",
      "type": "function"
    },
    {
      "inputs": [
        {
          "internalType": "uint256",
          "name": "amount",
          "type": "uint256"
        }
      ],
      "name": "stakePNGAVAXETHYak",
      "outputs": [],
      "stateMutability": "nonpayable",
      "type": "function"
    },
    {
      "inputs": [
        {
          "internalType": "uint256",
          "name": "amount",
          "type": "uint256"
        }
      ],
      "name": "stakePNGAVAXUSDCYak",
      "outputs": [],
      "stateMutability": "nonpayable",
      "type": "function"
    },
    {
      "inputs": [
        {
          "internalType": "uint256",
          "name": "amount",
          "type": "uint256"
        }
      ],
      "name": "stakeSAVAXYak",
      "outputs": [],
      "stateMutability": "nonpayable",
      "type": "function"
    },
    {
      "inputs": [
        {
          "internalType": "uint256",
          "name": "amount",
          "type": "uint256"
        }
      ],
      "name": "stakeTJAVAXETHYak",
      "outputs": [],
      "stateMutability": "nonpayable",
      "type": "function"
    },
    {
      "inputs": [
        {
          "internalType": "uint256",
          "name": "amount",
          "type": "uint256"
        }
      ],
      "name": "stakeTJAVAXSAVAXYak",
      "outputs": [],
      "stateMutability": "nonpayable",
      "type": "function"
    },
    {
      "inputs": [
        {
          "internalType": "uint256",
          "name": "amount",
          "type": "uint256"
        }
      ],
      "name": "stakeTJAVAXUSDCYak",
      "outputs": [],
      "stateMutability": "nonpayable",
      "type": "function"
    },
    {
      "inputs": [
        {
          "internalType": "uint256",
          "name": "amount",
          "type": "uint256"
        }
      ],
      "name": "unstakeAVAXYak",
      "outputs": [],
      "stateMutability": "nonpayable",
      "type": "function"
    },
    {
      "inputs": [
        {
          "internalType": "uint256",
          "name": "amount",
          "type": "uint256"
        }
      ],
      "name": "unstakePNGAVAXETHYak",
      "outputs": [],
      "stateMutability": "nonpayable",
      "type": "function"
    },
    {
      "inputs": [
        {
          "internalType": "uint256",
          "name": "amount",
          "type": "uint256"
        }
      ],
      "name": "unstakePNGAVAXUSDCYak",
      "outputs": [],
      "stateMutability": "nonpayable",
      "type": "function"
    },
    {
      "inputs": [
        {
          "internalType": "uint256",
          "name": "amount",
          "type": "uint256"
        }
      ],
      "name": "unstakeSAVAXYak",
      "outputs": [],
      "stateMutability": "nonpayable",
      "type": "function"
    },
    {
      "inputs": [
        {
          "internalType": "uint256",
          "name": "amount",
          "type": "uint256"
        }
      ],
      "name": "unstakeTJAVAXETHYak",
      "outputs": [],
      "stateMutability": "nonpayable",
      "type": "function"
    },
    {
      "inputs": [
        {
          "internalType": "uint256",
          "name": "amount",
          "type": "uint256"
        }
      ],
      "name": "unstakeTJAVAXSAVAXYak",
      "outputs": [],
      "stateMutability": "nonpayable",
      "type": "function"
    },
    {
      "inputs": [
        {
          "internalType": "uint256",
          "name": "amount",
          "type": "uint256"
        }
      ],
      "name": "unstakeTJAVAXUSDCYak",
      "outputs": [],
      "stateMutability": "nonpayable",
      "type": "function"
    },
    {
      "stateMutability": "payable",
      "type": "receive"
    }
  ],
  "transactionHash": "0xdc8a673539829cd7914aac99559366f006ac46dd4d4a503c6e98c9329c30aa5c",
  "args": [],
  "numDeployments": 11,
  "solcInputHash": "e3510918eafea6d757c396e3bcf2ae45",
  "bytecode": "0x608060405234801561001057600080fd5b50600160008190555061537f806100286000396000f3fe60806040526004361061012e5760003560e01c8063789f2bad116100ab578063d1bde93c1161006f578063d1bde93c146103e1578063e426ad311461040a578063f2c0f2a014610433578063f506db131461045c578063f8f1855314610485578063fe7723671461049c57610135565b8063789f2bad146103005780637dfdb26a1461032957806385c4dcc214610352578063b2d40e731461037b578063cba4256e146103b857610135565b806339e2719e116100f257806339e2719e1461022f5780633eb67e0b1461025a5780635b4fad9c146102835780636aa961621461029a5780636e3bfe9f146102c357610135565b806303e551701461013a57806326ee48361461016357806329e166b6146101a05780632e25d177146101c957806331d98b3f146101f257610135565b3661013557005b600080fd5b34801561014657600080fd5b50610161600480360381019061015c9190613e5e565b6104c5565b005b34801561016f57600080fd5b5061018a6004803603810190610185919061401a565b610722565b6040516101979190614121565b60405180910390f35b3480156101ac57600080fd5b506101c760048036038101906101c29190613e5e565b6107cc565b005b3480156101d557600080fd5b506101f060048036038101906101eb9190613e5e565b610a29565b005b3480156101fe57600080fd5b5061021960048036038101906102149190614143565b610c86565b604051610226919061417f565b60405180910390f35b34801561023b57600080fd5b50610244610d30565b604051610251919061417f565b60405180910390f35b34801561026657600080fd5b50610281600480360381019061027c9190613e5e565b610dcd565b005b34801561028f57600080fd5b5061029861132b565b005b3480156102a657600080fd5b506102c160048036038101906102bc9190613e5e565b6113b1565b005b3480156102cf57600080fd5b506102ea60048036038101906102e5919061439f565b611844565b6040516102f7919061417f565b60405180910390f35b34801561030c57600080fd5b5061032760048036038101906103229190613e5e565b6118ee565b005b34801561033557600080fd5b50610350600480360381019061034b9190613e5e565b611a6b565b005b34801561035e57600080fd5b5061037960048036038101906103749190613e5e565b611be8565b005b34801561038757600080fd5b506103a2600480360381019061039d919061401a565b611e45565b6040516103af919061454d565b60405180910390f35b3480156103c457600080fd5b506103df60048036038101906103da9190613e5e565b611ef5565b005b3480156103ed57600080fd5b5061040860048036038101906104039190613e5e565b612072565b005b34801561041657600080fd5b50610431600480360381019061042c9190613e5e565b6121ef565b005b34801561043f57600080fd5b5061045a60048036038101906104559190613e5e565b61244c565b005b34801561046857600080fd5b50610483600480360381019061047e9190613e5e565b6125c9565b005b34801561049157600080fd5b5061049a612746565b005b3480156104a857600080fd5b506104c360048036038101906104be9190613e5e565b6127cc565b005b60006104cf612a29565b905080156104e4576104df612ac6565b6105a5565b6104ec612b61565b73ffffffffffffffffffffffffffffffffffffffff1663e319fccc336040518263ffffffff1660e01b815260040161052491906145b0565b602060405180830381865afa158015610541573d6000803e3d6000fd5b505050506040513d601f19601f820116820180604052508101906105659190614603565b6105a4576040517f08c379a000000000000000000000000000000000000000000000000000000000815260040161059b906146b3565b60405180910390fd5b5b60006105af612b7d565b905060028160000154036105f8576040517f08c379a00000000000000000000000000000000000000000000000000000000081526004016105ef9061471f565b60405180910390fd5b600281600001819055506106c56040518060a00160405280730e0100ab771e9288e0aa97e11557e6654c3a966573ffffffffffffffffffffffffffffffffffffffff16815260200173c0cd58661b68e10b49d3bec4bc5e44e7a7c2065673ffffffffffffffffffffffffffffffffffffffff1681526020017f504e475f415641585f555344435f4c500000000000000000000000000000000081526020017f59595f504e475f415641585f555344435f4c5000000000000000000000000000815260200185815250612baa565b6001816000018190555050801561071e576106de612a29565b61071d576040517f08c379a00000000000000000000000000000000000000000000000000000000081526004016107149061478b565b60405180910390fd5b5b5050565b60606107b26107376326ee483660e01b612eea565b6326ee483660e01b84604051602401610750919061485a565b604051602081830303815290604052907bffffffffffffffffffffffffffffffffffffffffffffffffffffffff19166020820180517bffffffffffffffffffffffffffffffffffffffffffffffffffffffff8381831617835250505050612f74565b8060200190518101906107c59190614954565b9050919050565b60006107d6612a29565b905080156107eb576107e6612ac6565b6108ac565b6107f3612b61565b73ffffffffffffffffffffffffffffffffffffffff1663e319fccc336040518263ffffffff1660e01b815260040161082b91906145b0565b602060405180830381865afa158015610848573d6000803e3d6000fd5b505050506040513d601f19601f8201168201806040525081019061086c9190614603565b6108ab576040517f08c379a00000000000000000000000000000000000000000000000000000000081526004016108a2906146b3565b60405180910390fd5b5b60006108b6612b7d565b905060028160000154036108ff576040517f08c379a00000000000000000000000000000000000000000000000000000000081526004016108f69061471f565b60405180910390fd5b600281600001819055506109cc6040518060a0016040528073f4003f4efbe8691b60249e6afbd307abe7758adb73ffffffffffffffffffffffffffffffffffffffff16815260200173def94a13ff31fb6363f1e03bf18fe0f59db83bbc73ffffffffffffffffffffffffffffffffffffffff1681526020017f544a5f415641585f555344435f4c50000000000000000000000000000000000081526020017f59595f544a5f415641585f555344435f4c500000000000000000000000000000815260200185815250612baa565b60018160000181905550508015610a25576109e5612a29565b610a24576040517f08c379a0000000000000000000000000000000000000000000000000000000008152600401610a1b9061478b565b60405180910390fd5b5b5050565b6000610a33612a29565b90508015610a4857610a43612ac6565b610b09565b610a50612b61565b73ffffffffffffffffffffffffffffffffffffffff1663e319fccc336040518263ffffffff1660e01b8152600401610a8891906145b0565b602060405180830381865afa158015610aa5573d6000803e3d6000fd5b505050506040513d601f19601f82011682018060405250810190610ac99190614603565b610b08576040517f08c379a0000000000000000000000000000000000000000000000000000000008152600401610aff906146b3565b60405180910390fd5b5b6000610b13612b7d565b90506002816000015403610b5c576040517f08c379a0000000000000000000000000000000000000000000000000000000008152600401610b539061471f565b60405180910390fd5b60028160000181905550610c296040518060a00160405280737c05d54fc5cb6e4ad87c6f5db3b807c94bb89c5273ffffffffffffffffffffffffffffffffffffffff16815260200173fcd2050e213cc54db2c9c99632ac870574fbc26173ffffffffffffffffffffffffffffffffffffffff1681526020017f504e475f415641585f4554485f4c50000000000000000000000000000000000081526020017f59595f504e475f415641585f4554485f4c500000000000000000000000000000815260200185815250612baa565b60018160000181905550508015610c8257610c42612a29565b610c81576040517f08c379a0000000000000000000000000000000000000000000000000000000008152600401610c789061478b565b60405180910390fd5b5b5050565b6000610d16610c9b6331d98b3f60e01b612eea565b6331d98b3f60e01b84604051602401610cb491906149ac565b604051602081830303815290604052907bffffffffffffffffffffffffffffffffffffffffffffffffffffffff19166020820180517bffffffffffffffffffffffffffffffffffffffffffffffffffffffff8381831617835250505050612f74565b806020019051810190610d2991906149c7565b9050919050565b6000610db5610d45637914334f60e01b612eea565b637914334f60e01b604051602401604051602081830303815290604052907bffffffffffffffffffffffffffffffffffffffffffffffffffffffff19166020820180517bffffffffffffffffffffffffffffffffffffffffffffffffffffffff8381831617835250505050612f74565b806020019051810190610dc891906149c7565b905090565b6000610dd7612a29565b90508015610dec57610de7612ac6565b610ead565b610df4612b61565b73ffffffffffffffffffffffffffffffffffffffff1663e319fccc336040518263ffffffff1660e01b8152600401610e2c91906145b0565b602060405180830381865afa158015610e49573d6000803e3d6000fd5b505050506040513d601f19601f82011682018060405250810190610e6d9190614603565b610eac576040517f08c379a0000000000000000000000000000000000000000000000000000000008152600401610ea3906146b3565b60405180910390fd5b5b6000610eb7612b7d565b90506002816000015403610f00576040517f08c379a0000000000000000000000000000000000000000000000000000000008152600401610ef79061471f565b60405180910390fd5b60028160000181905550610f1261132b565b600073aac0f2d0630d1d09ab2b5a400412a4840b866d9590506000479050610fb38273ffffffffffffffffffffffffffffffffffffffff166370a08231306040518263ffffffff1660e01b8152600401610f6c91906145b0565b602060405180830381865afa158015610f89573d6000803e3d6000fd5b505050506040513d601f19601f82011682018060405250810190610fad91906149c7565b86613005565b94508173ffffffffffffffffffffffffffffffffffffffff16632e1a7d4d866040518263ffffffff1660e01b8152600401610fee919061417f565b600060405180830381600087803b15801561100857600080fd5b505af115801561101c573d6000803e3d6000fd5b5050505060008273ffffffffffffffffffffffffffffffffffffffff166370a08231306040518263ffffffff1660e01b815260040161105b91906145b0565b602060405180830381865afa158015611078573d6000803e3d6000fd5b505050506040513d601f19601f8201168201806040525081019061109c91906149c7565b036110cb576110ca7f59595f414156455f41564158000000000000000000000000000000000000000061301e565b5b600047905073b31f66aa3c1e785363f0875a1b74e27b85fd66c773ffffffffffffffffffffffffffffffffffffffff1663d0e30db0476040518263ffffffff1660e01b81526004016000604051808303818588803b15801561112c57600080fd5b505af1158015611140573d6000803e3d6000fd5b5050505050600073b31f66aa3c1e785363f0875a1b74e27b85fd66c773ffffffffffffffffffffffffffffffffffffffff166370a08231306040518263ffffffff1660e01b815260040161119491906145b0565b602060405180830381865afa1580156111b1573d6000803e3d6000fd5b505050506040513d601f19601f820116820180604052508101906111d591906149c7565b111561121a576112197f415641580000000000000000000000000000000000000000000000000000000073b31f66aa3c1e785363f0875a1b74e27b85fd66c761303c565b5b73aac0f2d0630d1d09ab2b5a400412a4840b866d9573ffffffffffffffffffffffffffffffffffffffff167f41564158000000000000000000000000000000000000000000000000000000003373ffffffffffffffffffffffffffffffffffffffff167f62e55d72647d2b18acd6db9b772cb8f9c0f9a6ab6cdca02278f90e3f40c4268985856112aa9190614a23565b8a426040516112bb93929190614a57565b60405180910390a45050506112ce612746565b60018160000181905550508015611327576112e7612a29565b611326576040517f08c379a000000000000000000000000000000000000000000000000000000000815260040161131d9061478b565b60405180910390fd5b5b5050565b6113ae61133e63b1c9fbc160e01b612eea565b63b1c9fbc160e01b604051602401604051602081830303815290604052907bffffffffffffffffffffffffffffffffffffffffffffffffffffffff19166020820180517bffffffffffffffffffffffffffffffffffffffffffffffffffffffff8381831617835250505050612f74565b50565b6113b9612ac6565b60006113c3612b7d565b9050600281600001540361140c576040517f08c379a00000000000000000000000000000000000000000000000000000000081526004016114039061471f565b60405180910390fd5b6002816000018190555061141e61132b565b60008211611461576040517f08c379a000000000000000000000000000000000000000000000000000000000815260040161145890614ada565b60405180910390fd5b6114f873b31f66aa3c1e785363f0875a1b74e27b85fd66c773ffffffffffffffffffffffffffffffffffffffff166370a08231306040518263ffffffff1660e01b81526004016114b191906145b0565b602060405180830381865afa1580156114ce573d6000803e3d6000fd5b505050506040513d601f19601f820116820180604052508101906114f291906149c7565b83613005565b9150600073aac0f2d0630d1d09ab2b5a400412a4840b866d95905060008173ffffffffffffffffffffffffffffffffffffffff166370a08231306040518263ffffffff1660e01b815260040161154e91906145b0565b602060405180830381865afa15801561156b573d6000803e3d6000fd5b505050506040513d601f19601f8201168201806040525081019061158f91906149c7565b905073b31f66aa3c1e785363f0875a1b74e27b85fd66c773ffffffffffffffffffffffffffffffffffffffff16632e1a7d4d856040518263ffffffff1660e01b81526004016115de919061417f565b600060405180830381600087803b1580156115f857600080fd5b505af115801561160c573d6000803e3d6000fd5b5050505073aac0f2d0630d1d09ab2b5a400412a4840b866d9573ffffffffffffffffffffffffffffffffffffffff1663d0e30db0856040518263ffffffff1660e01b81526004016000604051808303818588803b15801561166c57600080fd5b505af1158015611680573d6000803e3d6000fd5b50505050506116c37f59595f414156455f41564158000000000000000000000000000000000000000073aac0f2d0630d1d09ab2b5a400412a4840b866d9561303c565b73aac0f2d0630d1d09ab2b5a400412a4840b866d9573ffffffffffffffffffffffffffffffffffffffff167f41564158000000000000000000000000000000000000000000000000000000003373ffffffffffffffffffffffffffffffffffffffff167f28aaf99a9c15fc0b46ec3ae6e9781e7de835b464c00c2d039fb4c71c9cac2dd887858773ffffffffffffffffffffffffffffffffffffffff166370a08231306040518263ffffffff1660e01b815260040161178291906145b0565b602060405180830381865afa15801561179f573d6000803e3d6000fd5b505050506040513d601f19601f820116820180604052508101906117c391906149c7565b6117cd9190614a23565b426040516117dd93929190614a57565b60405180910390a450506117ef612a29565b61182e576040517f08c379a000000000000000000000000000000000000000000000000000000000815260040161182590614b6c565b60405180910390fd5b611836612746565b600181600001819055505050565b60006118d461185963360398a360e01b612eea565b63360398a360e01b84604051602401611872919061454d565b604051602081830303815290604052907bffffffffffffffffffffffffffffffffffffffffffffffffffffffff19166020820180517bffffffffffffffffffffffffffffffffffffffffffffffffffffffff8381831617835250505050612f74565b8060200190518101906118e791906149c7565b9050919050565b6118f6612ac6565b6000611900612b7d565b90506002816000015403611949576040517f08c379a00000000000000000000000000000000000000000000000000000000081526004016119409061471f565b60405180910390fd5b60028160000181905550611a166040518060a0016040528073fe15c2695f1f920da45c30aae47d11de51007af973ffffffffffffffffffffffffffffffffffffffff168152602001735219558ee591b030e075892acc41334a1694fd8a73ffffffffffffffffffffffffffffffffffffffff1681526020017f544a5f415641585f4554485f4c5000000000000000000000000000000000000081526020017f59595f544a5f415641585f4554485f4c5000000000000000000000000000000081526020018481525061310e565b611a1e612a29565b611a5d576040517f08c379a0000000000000000000000000000000000000000000000000000000008152600401611a5490614b6c565b60405180910390fd5b600181600001819055505050565b611a73612ac6565b6000611a7d612b7d565b90506002816000015403611ac6576040517f08c379a0000000000000000000000000000000000000000000000000000000008152600401611abd9061471f565b60405180910390fd5b60028160000181905550611b936040518060a00160405280730e0100ab771e9288e0aa97e11557e6654c3a966573ffffffffffffffffffffffffffffffffffffffff16815260200173c0cd58661b68e10b49d3bec4bc5e44e7a7c2065673ffffffffffffffffffffffffffffffffffffffff1681526020017f504e475f415641585f555344435f4c500000000000000000000000000000000081526020017f59595f504e475f415641585f555344435f4c500000000000000000000000000081526020018481525061310e565b611b9b612a29565b611bda576040517f08c379a0000000000000000000000000000000000000000000000000000000008152600401611bd190614b6c565b60405180910390fd5b600181600001819055505050565b6000611bf2612a29565b90508015611c0757611c02612ac6565b611cc8565b611c0f612b61565b73ffffffffffffffffffffffffffffffffffffffff1663e319fccc336040518263ffffffff1660e01b8152600401611c4791906145b0565b602060405180830381865afa158015611c64573d6000803e3d6000fd5b505050506040513d601f19601f82011682018060405250810190611c889190614603565b611cc7576040517f08c379a0000000000000000000000000000000000000000000000000000000008152600401611cbe906146b3565b60405180910390fd5b5b6000611cd2612b7d565b90506002816000015403611d1b576040517f08c379a0000000000000000000000000000000000000000000000000000000008152600401611d129061471f565b60405180910390fd5b60028160000181905550611de86040518060a00160405280734b946c91c2b1a7d7c40fb3c130cdfbaf8389094d73ffffffffffffffffffffffffffffffffffffffff1681526020017322ede03f1115666cf05a4bafafaee8f43d42cd5673ffffffffffffffffffffffffffffffffffffffff1681526020017f544a5f415641585f73415641585f4c500000000000000000000000000000000081526020017f59595f544a5f415641585f73415641585f4c5000000000000000000000000000815260200185815250612baa565b60018160000181905550508015611e4157611e01612a29565b611e40576040517f08c379a0000000000000000000000000000000000000000000000000000000008152600401611e379061478b565b60405180910390fd5b5b5050565b611e4d613dec565b611edb611e6063a3aa8d1e60e01b612eea565b63a3aa8d1e60e01b84604051602401611e79919061485a565b604051602081830303815290604052907bffffffffffffffffffffffffffffffffffffffffffffffffffffffff19166020820180517bffffffffffffffffffffffffffffffffffffffffffffffffffffffff8381831617835250505050612f74565b806020019051810190611eee9190614d70565b9050919050565b611efd612ac6565b6000611f07612b7d565b90506002816000015403611f50576040517f08c379a0000000000000000000000000000000000000000000000000000000008152600401611f479061471f565b60405180910390fd5b6002816000018190555061201d6040518060a00160405280737c05d54fc5cb6e4ad87c6f5db3b807c94bb89c5273ffffffffffffffffffffffffffffffffffffffff16815260200173fcd2050e213cc54db2c9c99632ac870574fbc26173ffffffffffffffffffffffffffffffffffffffff1681526020017f504e475f415641585f4554485f4c50000000000000000000000000000000000081526020017f59595f504e475f415641585f4554485f4c50000000000000000000000000000081526020018481525061310e565b612025612a29565b612064576040517f08c379a000000000000000000000000000000000000000000000000000000000815260040161205b90614b6c565b60405180910390fd5b600181600001819055505050565b61207a612ac6565b6000612084612b7d565b905060028160000154036120cd576040517f08c379a00000000000000000000000000000000000000000000000000000000081526004016120c49061471f565b60405180910390fd5b6002816000018190555061219a6040518060a00160405280734b946c91c2b1a7d7c40fb3c130cdfbaf8389094d73ffffffffffffffffffffffffffffffffffffffff1681526020017322ede03f1115666cf05a4bafafaee8f43d42cd5673ffffffffffffffffffffffffffffffffffffffff1681526020017f544a5f415641585f73415641585f4c500000000000000000000000000000000081526020017f59595f544a5f415641585f73415641585f4c500000000000000000000000000081526020018481525061310e565b6121a2612a29565b6121e1576040517f08c379a00000000000000000000000000000000000000000000000000000000081526004016121d890614b6c565b60405180910390fd5b600181600001819055505050565b60006121f9612a29565b9050801561220e57612209612ac6565b6122cf565b612216612b61565b73ffffffffffffffffffffffffffffffffffffffff1663e319fccc336040518263ffffffff1660e01b815260040161224e91906145b0565b602060405180830381865afa15801561226b573d6000803e3d6000fd5b505050506040513d601f19601f8201168201806040525081019061228f9190614603565b6122ce576040517f08c379a00000000000000000000000000000000000000000000000000000000081526004016122c5906146b3565b60405180910390fd5b5b60006122d9612b7d565b90506002816000015403612322576040517f08c379a00000000000000000000000000000000000000000000000000000000081526004016123199061471f565b60405180910390fd5b600281600001819055506123ef6040518060a0016040528073fe15c2695f1f920da45c30aae47d11de51007af973ffffffffffffffffffffffffffffffffffffffff168152602001735219558ee591b030e075892acc41334a1694fd8a73ffffffffffffffffffffffffffffffffffffffff1681526020017f544a5f415641585f4554485f4c5000000000000000000000000000000000000081526020017f59595f544a5f415641585f4554485f4c50000000000000000000000000000000815260200185815250612baa565b6001816000018190555050801561244857612408612a29565b612447576040517f08c379a000000000000000000000000000000000000000000000000000000000815260040161243e9061478b565b60405180910390fd5b5b5050565b612454612ac6565b600061245e612b7d565b905060028160000154036124a7576040517f08c379a000000000000000000000000000000000000000000000000000000000815260040161249e9061471f565b60405180910390fd5b600281600001819055506125746040518060a00160405280732b2c81e08f1af8835a78bb2a90ae924ace0ea4be73ffffffffffffffffffffffffffffffffffffffff16815260200173b8f531c0d3c53b1760bcb7f57d87762fd25c497773ffffffffffffffffffffffffffffffffffffffff1681526020017f734156415800000000000000000000000000000000000000000000000000000081526020017f59595f5054505f7341564158000000000000000000000000000000000000000081526020018481525061310e565b61257c612a29565b6125bb576040517f08c379a00000000000000000000000000000000000000000000000000000000081526004016125b290614b6c565b60405180910390fd5b600181600001819055505050565b6125d1612ac6565b60006125db612b7d565b90506002816000015403612624576040517f08c379a000000000000000000000000000000000000000000000000000000000815260040161261b9061471f565b60405180910390fd5b600281600001819055506126f16040518060a0016040528073f4003f4efbe8691b60249e6afbd307abe7758adb73ffffffffffffffffffffffffffffffffffffffff16815260200173def94a13ff31fb6363f1e03bf18fe0f59db83bbc73ffffffffffffffffffffffffffffffffffffffff1681526020017f544a5f415641585f555344435f4c50000000000000000000000000000000000081526020017f59595f544a5f415641585f555344435f4c50000000000000000000000000000081526020018481525061310e565b6126f9612a29565b612738576040517f08c379a000000000000000000000000000000000000000000000000000000000815260040161272f90614b6c565b60405180910390fd5b600181600001819055505050565b6127c961275963e017e12560e01b612eea565b63e017e12560e01b604051602401604051602081830303815290604052907bffffffffffffffffffffffffffffffffffffffffffffffffffffffff19166020820180517bffffffffffffffffffffffffffffffffffffffffffffffffffffffff8381831617835250505050612f74565b50565b60006127d6612a29565b905080156127eb576127e6612ac6565b6128ac565b6127f3612b61565b73ffffffffffffffffffffffffffffffffffffffff1663e319fccc336040518263ffffffff1660e01b815260040161282b91906145b0565b602060405180830381865afa158015612848573d6000803e3d6000fd5b505050506040513d601f19601f8201168201806040525081019061286c9190614603565b6128ab576040517f08c379a00000000000000000000000000000000000000000000000000000000081526004016128a2906146b3565b60405180910390fd5b5b60006128b6612b7d565b905060028160000154036128ff576040517f08c379a00000000000000000000000000000000000000000000000000000000081526004016128f69061471f565b60405180910390fd5b600281600001819055506129cc6040518060a00160405280732b2c81e08f1af8835a78bb2a90ae924ace0ea4be73ffffffffffffffffffffffffffffffffffffffff16815260200173b8f531c0d3c53b1760bcb7f57d87762fd25c497773ffffffffffffffffffffffffffffffffffffffff1681526020017f734156415800000000000000000000000000000000000000000000000000000081526020017f59595f5054505f73415641580000000000000000000000000000000000000000815260200185815250612baa565b60018160000181905550508015612a25576129e5612a29565b612a24576040517f08c379a0000000000000000000000000000000000000000000000000000000008152600401612a1b9061478b565b60405180910390fd5b5b5050565b6000612aae612a3e635ce2395060e01b612eea565b635ce2395060e01b604051602401604051602081830303815290604052907bffffffffffffffffffffffffffffffffffffffffffffffffffffffff19166020820180517bffffffffffffffffffffffffffffffffffffffffffffffffffffffff8381831617835250505050612f74565b806020019051810190612ac19190614603565b905090565b612ace6136af565b60010160009054906101000a900473ffffffffffffffffffffffffffffffffffffffff1673ffffffffffffffffffffffffffffffffffffffff163373ffffffffffffffffffffffffffffffffffffffff1614612b5f576040517f08c379a0000000000000000000000000000000000000000000000000000000008152600401612b5690614e2b565b60405180910390fd5b565b6000732916b3bf7c35bd21e63d01c93c62fb0d4994e56d905090565b6000807f1c85eba10a4cf2d29c83fc15f97931886b9fd3caeb70d8c377aeedc58b919e3b90508091505090565b612bb261132b565b60008160200151905060008260000151905060008173ffffffffffffffffffffffffffffffffffffffff166370a08231306040518263ffffffff1660e01b8152600401612bff91906145b0565b602060405180830381865afa158015612c1c573d6000803e3d6000fd5b505050506040513d601f19601f82011682018060405250810190612c4091906149c7565b9050612cc98373ffffffffffffffffffffffffffffffffffffffff166370a08231306040518263ffffffff1660e01b8152600401612c7e91906145b0565b602060405180830381865afa158015612c9b573d6000803e3d6000fd5b505050506040513d601f19601f82011682018060405250810190612cbf91906149c7565b8560800151613005565b8460800181815250508273ffffffffffffffffffffffffffffffffffffffff16632e1a7d4d85608001516040518263ffffffff1660e01b8152600401612d0f919061417f565b600060405180830381600087803b158015612d2957600080fd5b505af1158015612d3d573d6000803e3d6000fd5b50505050612d538460400151856000015161303c565b60008373ffffffffffffffffffffffffffffffffffffffff166370a08231306040518263ffffffff1660e01b8152600401612d8e91906145b0565b602060405180830381865afa158015612dab573d6000803e3d6000fd5b505050506040513d601f19601f82011682018060405250810190612dcf91906149c7565b03612de257612de1846060015161301e565b5b836020015173ffffffffffffffffffffffffffffffffffffffff1684604001513373ffffffffffffffffffffffffffffffffffffffff167f62e55d72647d2b18acd6db9b772cb8f9c0f9a6ab6cdca02278f90e3f40c42689848673ffffffffffffffffffffffffffffffffffffffff166370a08231306040518263ffffffff1660e01b8152600401612e7491906145b0565b602060405180830381865afa158015612e91573d6000803e3d6000fd5b505050506040513d601f19601f82011682018060405250810190612eb591906149c7565b612ebf9190614a23565b886080015142604051612ed493929190614a57565b60405180910390a4505050612ee7612746565b50565b6000612ef4612b61565b73ffffffffffffffffffffffffffffffffffffffff16630d741577836040518263ffffffff1660e01b8152600401612f2c9190614e86565b602060405180830381865afa158015612f49573d6000803e3d6000fd5b505050506040513d601f19601f82011682018060405250810190612f6d9190614ecd565b9050919050565b60606000612f81836136dc565b90506000808573ffffffffffffffffffffffffffffffffffffffff1683604051612fab9190614f6b565b600060405180830381855af49150503d8060008114612fe6576040519150601f19603f3d011682016040523d82523d6000602084013e612feb565b606091505b5091509150612ffa8282613796565b935050505092915050565b60008183106130145781613016565b825b905092915050565b60006130286136af565b90506130378160040183613896565b505050565b6000820361307f576040517f08c379a000000000000000000000000000000000000000000000000000000000815260040161307690614fce565b60405180910390fd5b600073ffffffffffffffffffffffffffffffffffffffff168173ffffffffffffffffffffffffffffffffffffffff16036130ee576040517f08c379a00000000000000000000000000000000000000000000000000000000081526004016130e59061503a565b60405180910390fd5b60006130f86136af565b90506131088160040184846138ad565b50505050565b61311661132b565b60006131206138df565b905060008260200151905060008173ffffffffffffffffffffffffffffffffffffffff166370a08231306040518263ffffffff1660e01b815260040161316691906145b0565b602060405180830381865afa158015613183573d6000803e3d6000fd5b505050506040513d601f19601f820116820180604052508101906131a791906149c7565b9050613234846000015173ffffffffffffffffffffffffffffffffffffffff166370a08231306040518263ffffffff1660e01b81526004016131e991906145b0565b602060405180830381865afa158015613206573d6000803e3d6000fd5b505050506040513d601f19601f8201168201806040525081019061322a91906149c7565b8560800151613005565b8460800181815250506000846080015111613284576040517f08c379a000000000000000000000000000000000000000000000000000000000815260040161327b90614ada565b60405180910390fd5b60028373ffffffffffffffffffffffffffffffffffffffff1663e0117bdd86600001516040518263ffffffff1660e01b81526004016132c391906145b0565b602060405180830381865afa1580156132e0573d6000803e3d6000fd5b505050506040513d601f19601f8201168201806040525081019061330491906149c7565b14613344576040517f08c379a000000000000000000000000000000000000000000000000000000000815260040161333b906150a6565b60405180910390fd5b60028373ffffffffffffffffffffffffffffffffffffffff1663e0117bdd86602001516040518263ffffffff1660e01b815260040161338391906145b0565b602060405180830381865afa1580156133a0573d6000803e3d6000fd5b505050506040513d601f19601f820116820180604052508101906133c491906149c7565b14613404576040517f08c379a00000000000000000000000000000000000000000000000000000000081526004016133fb90615112565b60405180910390fd5b836000015173ffffffffffffffffffffffffffffffffffffffff1663095ea7b3856020015186608001516040518363ffffffff1660e01b815260040161344b929190615132565b6020604051808303816000875af115801561346a573d6000803e3d6000fd5b505050506040513d601f19601f8201168201806040525081019061348e9190614603565b50836020015173ffffffffffffffffffffffffffffffffffffffff1663b6b55f2585608001516040518263ffffffff1660e01b81526004016134d0919061417f565b600060405180830381600087803b1580156134ea57600080fd5b505af11580156134fe573d6000803e3d6000fd5b505050506135148460600151856020015161303c565b6000846000015173ffffffffffffffffffffffffffffffffffffffff166370a08231306040518263ffffffff1660e01b815260040161355391906145b0565b602060405180830381865afa158015613570573d6000803e3d6000fd5b505050506040513d601f19601f8201168201806040525081019061359491906149c7565b036135a7576135a6846040015161301e565b5b836020015173ffffffffffffffffffffffffffffffffffffffff1684604001513373ffffffffffffffffffffffffffffffffffffffff167f28aaf99a9c15fc0b46ec3ae6e9781e7de835b464c00c2d039fb4c71c9cac2dd88760800151858773ffffffffffffffffffffffffffffffffffffffff166370a08231306040518263ffffffff1660e01b815260040161363e91906145b0565b602060405180830381865afa15801561365b573d6000803e3d6000fd5b505050506040513d601f19601f8201168201806040525081019061367f91906149c7565b6136899190614a23565b4260405161369993929190614a57565b60405180910390a45050506136ac612746565b50565b6000807f8d5bb42e0ac1496a2c326edc9c00758985246e6c2bb146d6c2f4a0d509e0960a90508091505090565b606060008251905060006136ee6138fb565b9050600081836136fe919061515b565b9050600036905082111561373e576040517f5796f78a00000000000000000000000000000000000000000000000000000000815260040160405180910390fd5b6060604051905081815285602001848101826020015b818310156137715782518152602083019250602081019050613754565b5050508283360385602001830137602084840182010160405280945050505050919050565b60608261388d5760008251036137d8576040517f567fe27a00000000000000000000000000000000000000000000000000000000815260040160405180910390fd5b600060208301517f08c379a00000000000000000000000000000000000000000000000000000000081149150508015613850576060604484019050806040517f0f7e827800000000000000000000000000000000000000000000000000000000815260040161384791906151d3565b60405180910390fd5b826040517ffd36fde3000000000000000000000000000000000000000000000000000000008152600401613884919061523f565b60405180910390fd5b81905092915050565b60006138a5836000018361396b565b905092915050565b60006138d684600001848473ffffffffffffffffffffffffffffffffffffffff1660001b6139a4565b90509392505050565b600073f3978209b7cff2b90100c6f87cec77de928ed58e905090565b6000806139066139df565b9050600061391382613af0565b61ffff169050600282613926919061515b565b915060005b8181101561396257600061393e84613b4c565b9050808461394c919061515b565b935050808061395a90615261565b91505061392b565b50819250505090565b60008260020160008381526020019081526020016000206000905561399c8284600001613b8b90919063ffffffff16565b905092915050565b600081846002016000858152602001908152602001600020819055506139d68385600001613ba290919063ffffffff16565b90509392505050565b60008060203603356602ed57011e000081166602ed57011e00001491505080613a34576040517fe7764c9e00000000000000000000000000000000000000000000000000000000815260040160405180910390fd5b60008036905060291115613a74576040517f5796f78a00000000000000000000000000000000000000000000000000000000815260040160405180910390fd5b602936033590506000600960038362ffffff16613a91919061515b565b613a9b919061515b565b90506000369050600282613aaf919061515b565b1115613ae7576040517fc30a7bd700000000000000000000000000000000000000000000000000000000815260040160405180910390fd5b80935050505090565b600080602083613b00919061515b565b90506000369050811115613b40576040517f5796f78a00000000000000000000000000000000000000000000000000000000815260040160405180910390fd5b80360335915050919050565b6000806000613b5a84613bb9565b91509150604e816020613b6d919061515b565b83613b7891906152a9565b613b82919061515b565b92505050919050565b6000613b9a8360000183613c2f565b905092915050565b6000613bb18360000183613d43565b905092915050565b6000806000806000604186613bce919061515b565b90506000613bf5602083613be2919061515b565b6000369050613db390919063ffffffff16565b905080359350613c0f600382613db390919063ffffffff16565b9050803592508362ffffff1695508263ffffffff16945050505050915091565b60008083600101600084815260200190815260200160002054905060008114613d37576000600182613c619190614a23565b9050600060018660000180549050613c799190614a23565b9050818114613ce8576000866000018281548110613c9a57613c996152eb565b5b9060005260206000200154905080876000018481548110613cbe57613cbd6152eb565b5b90600052602060002001819055508387600101600083815260200190815260200160002081905550505b85600001805480613cfc57613cfb61531a565b5b600190038181906000526020600020016000905590558560010160008681526020019081526020016000206000905560019350505050613d3d565b60009150505b92915050565b6000613d4f8383613dc9565b613da8578260000182908060018154018082558091505060019003906000526020600020016000909190919091505582600001805490508360010160008481526020019081526020016000208190555060019050613dad565b600090505b92915050565b60008183613dc19190614a23565b905092915050565b600080836001016000848152602001908152602001600020541415905092915050565b6040518060800160405280606081526020016060815260200160608152602001606081525090565b6000604051905090565b600080fd5b600080fd5b6000819050919050565b613e3b81613e28565b8114613e4657600080fd5b50565b600081359050613e5881613e32565b92915050565b600060208284031215613e7457613e73613e1e565b5b6000613e8284828501613e49565b91505092915050565b600080fd5b6000601f19601f8301169050919050565b7f4e487b7100000000000000000000000000000000000000000000000000000000600052604160045260246000fd5b613ed982613e90565b810181811067ffffffffffffffff82111715613ef857613ef7613ea1565b5b80604052505050565b6000613f0b613e14565b9050613f178282613ed0565b919050565b600067ffffffffffffffff821115613f3757613f36613ea1565b5b602082029050602081019050919050565b600080fd5b6000819050919050565b613f6081613f4d565b8114613f6b57600080fd5b50565b600081359050613f7d81613f57565b92915050565b6000613f96613f9184613f1c565b613f01565b90508083825260208201905060208402830185811115613fb957613fb8613f48565b5b835b81811015613fe25780613fce8882613f6e565b845260208401935050602081019050613fbb565b5050509392505050565b600082601f83011261400157614000613e8b565b5b8135614011848260208601613f83565b91505092915050565b6000602082840312156140305761402f613e1e565b5b600082013567ffffffffffffffff81111561404e5761404d613e23565b5b61405a84828501613fec565b91505092915050565b600081519050919050565b600082825260208201905092915050565b6000819050602082019050919050565b61409881613e28565b82525050565b60006140aa838361408f565b60208301905092915050565b6000602082019050919050565b60006140ce82614063565b6140d8818561406e565b93506140e38361407f565b8060005b838110156141145781516140fb888261409e565b9750614106836140b6565b9250506001810190506140e7565b5085935050505092915050565b6000602082019050818103600083015261413b81846140c3565b905092915050565b60006020828403121561415957614158613e1e565b5b600061416784828501613f6e565b91505092915050565b61417981613e28565b82525050565b60006020820190506141946000830184614170565b92915050565b600080fd5b600080fd5b600067ffffffffffffffff8211156141bf576141be613ea1565b5b602082029050602081019050919050565b6000604082840312156141e6576141e561419a565b5b6141f06040613f01565b9050600061420084828501613f6e565b600083015250602061421484828501613e49565b60208301525092915050565b600061423361422e846141a4565b613f01565b9050808382526020820190506040840283018581111561425657614255613f48565b5b835b8181101561427f578061426b88826141d0565b845260208401935050604081019050614258565b5050509392505050565b600082601f83011261429e5761429d613e8b565b5b81356142ae848260208601614220565b91505092915050565b6000608082840312156142cd576142cc61419a565b5b6142d76080613f01565b9050600082013567ffffffffffffffff8111156142f7576142f661419f565b5b61430384828501614289565b600083015250602082013567ffffffffffffffff8111156143275761432661419f565b5b61433384828501614289565b602083015250604082013567ffffffffffffffff8111156143575761435661419f565b5b61436384828501614289565b604083015250606082013567ffffffffffffffff8111156143875761438661419f565b5b61439384828501614289565b60608301525092915050565b6000602082840312156143b5576143b4613e1e565b5b600082013567ffffffffffffffff8111156143d3576143d2613e23565b5b6143df848285016142b7565b91505092915050565b600081519050919050565b600082825260208201905092915050565b6000819050602082019050919050565b61441d81613f4d565b82525050565b6040820160008201516144396000850182614414565b50602082015161444c602085018261408f565b50505050565b600061445e8383614423565b60408301905092915050565b6000602082019050919050565b6000614482826143e8565b61448c81856143f3565b935061449783614404565b8060005b838110156144c85781516144af8882614452565b97506144ba8361446a565b92505060018101905061449b565b5085935050505092915050565b600060808301600083015184820360008601526144f28282614477565b9150506020830151848203602086015261450c8282614477565b915050604083015184820360408601526145268282614477565b915050606083015184820360608601526145408282614477565b9150508091505092915050565b6000602082019050818103600083015261456781846144d5565b905092915050565b600073ffffffffffffffffffffffffffffffffffffffff82169050919050565b600061459a8261456f565b9050919050565b6145aa8161458f565b82525050565b60006020820190506145c560008301846145a1565b92915050565b60008115159050919050565b6145e0816145cb565b81146145eb57600080fd5b50565b6000815190506145fd816145d7565b92915050565b60006020828403121561461957614618613e1e565b5b6000614627848285016145ee565b91505092915050565b600082825260208201905092915050565b7f4f6e6c792077686974656c6973746564206163636f756e74732063616e20706560008201527f72666f726d207468697320616374696f6e000000000000000000000000000000602082015250565b600061469d603183614630565b91506146a882614641565b604082019050919050565b600060208201905081810360008301526146cc81614690565b9050919050565b7f5265656e7472616e637947756172643a207265656e7472616e742063616c6c00600082015250565b6000614709601f83614630565b9150614714826146d3565b602082019050919050565b60006020820190508181036000830152614738816146fc565b9050919050565b7f4d757374207374617920736f6c76656e74000000000000000000000000000000600082015250565b6000614775601183614630565b91506147808261473f565b602082019050919050565b600060208201905081810360008301526147a481614768565b9050919050565b600081519050919050565b600082825260208201905092915050565b6000819050602082019050919050565b60006147e38383614414565b60208301905092915050565b6000602082019050919050565b6000614807826147ab565b61481181856147b6565b935061481c836147c7565b8060005b8381101561484d57815161483488826147d7565b975061483f836147ef565b925050600181019050614820565b5085935050505092915050565b6000602082019050818103600083015261487481846147fc565b905092915050565b600067ffffffffffffffff82111561489757614896613ea1565b5b602082029050602081019050919050565b6000815190506148b781613e32565b92915050565b60006148d06148cb8461487c565b613f01565b905080838252602082019050602084028301858111156148f3576148f2613f48565b5b835b8181101561491c578061490888826148a8565b8452602084019350506020810190506148f5565b5050509392505050565b600082601f83011261493b5761493a613e8b565b5b815161494b8482602086016148bd565b91505092915050565b60006020828403121561496a57614969613e1e565b5b600082015167ffffffffffffffff81111561498857614987613e23565b5b61499484828501614926565b91505092915050565b6149a681613f4d565b82525050565b60006020820190506149c1600083018461499d565b92915050565b6000602082840312156149dd576149dc613e1e565b5b60006149eb848285016148a8565b91505092915050565b7f4e487b7100000000000000000000000000000000000000000000000000000000600052601160045260246000fd5b6000614a2e82613e28565b9150614a3983613e28565b9250828203905081811115614a5157614a506149f4565b5b92915050565b6000606082019050614a6c6000830186614170565b614a796020830185614170565b614a866040830184614170565b949350505050565b7f43616e6e6f74207374616b65203020746f6b656e730000000000000000000000600082015250565b6000614ac4601583614630565b9150614acf82614a8e565b602082019050919050565b60006020820190508181036000830152614af381614ab7565b9050919050565b7f54686520616374696f6e206d617920636175736520616e206163636f756e742060008201527f746f206265636f6d6520696e736f6c76656e7400000000000000000000000000602082015250565b6000614b56603383614630565b9150614b6182614afa565b604082019050919050565b60006020820190508181036000830152614b8581614b49565b9050919050565b600081519050614b9b81613f57565b92915050565b600060408284031215614bb757614bb661419a565b5b614bc16040613f01565b90506000614bd184828501614b8c565b6000830152506020614be5848285016148a8565b60208301525092915050565b6000614c04614bff846141a4565b613f01565b90508083825260208201905060408402830185811115614c2757614c26613f48565b5b835b81811015614c505780614c3c8882614ba1565b845260208401935050604081019050614c29565b5050509392505050565b600082601f830112614c6f57614c6e613e8b565b5b8151614c7f848260208601614bf1565b91505092915050565b600060808284031215614c9e57614c9d61419a565b5b614ca86080613f01565b9050600082015167ffffffffffffffff811115614cc857614cc761419f565b5b614cd484828501614c5a565b600083015250602082015167ffffffffffffffff811115614cf857614cf761419f565b5b614d0484828501614c5a565b602083015250604082015167ffffffffffffffff811115614d2857614d2761419f565b5b614d3484828501614c5a565b604083015250606082015167ffffffffffffffff811115614d5857614d5761419f565b5b614d6484828501614c5a565b60608301525092915050565b600060208284031215614d8657614d85613e1e565b5b600082015167ffffffffffffffff811115614da457614da3613e23565b5b614db084828501614c88565b91505092915050565b7f4469616d6f6e6453746f726167654c69623a204d75737420626520636f6e747260008201527f616374206f776e65720000000000000000000000000000000000000000000000602082015250565b6000614e15602983614630565b9150614e2082614db9565b604082019050919050565b60006020820190508181036000830152614e4481614e08565b9050919050565b60007fffffffff0000000000000000000000000000000000000000000000000000000082169050919050565b614e8081614e4b565b82525050565b6000602082019050614e9b6000830184614e77565b92915050565b614eaa8161458f565b8114614eb557600080fd5b50565b600081519050614ec781614ea1565b92915050565b600060208284031215614ee357614ee2613e1e565b5b6000614ef184828501614eb8565b91505092915050565b600081519050919050565b600081905092915050565b60005b83811015614f2e578082015181840152602081019050614f13565b60008484015250505050565b6000614f4582614efa565b614f4f8185614f05565b9350614f5f818560208601614f10565b80840191505092915050565b6000614f778284614f3a565b915081905092915050565b7f53796d626f6c2063616e6e6f7420626520656d70747900000000000000000000600082015250565b6000614fb8601683614630565b9150614fc382614f82565b602082019050919050565b60006020820190508181036000830152614fe781614fab565b9050919050565b7f496e76616c696420416464726573735a65726f00000000000000000000000000600082015250565b6000615024601383614630565b915061502f82614fee565b602082019050919050565b6000602082019050818103600083015261505381615017565b9050919050565b7f546f6b656e206e6f7420737570706f7274656400000000000000000000000000600082015250565b6000615090601383614630565b915061509b8261505a565b602082019050919050565b600060208201905081810360008301526150bf81615083565b9050919050565b7f5661756c7420746f6b656e206e6f7420737570706f7274656400000000000000600082015250565b60006150fc601983614630565b9150615107826150c6565b602082019050919050565b6000602082019050818103600083015261512b816150ef565b9050919050565b600060408201905061514760008301856145a1565b6151546020830184614170565b9392505050565b600061516682613e28565b915061517183613e28565b9250828201905080821115615189576151886149f4565b5b92915050565b600081519050919050565b60006151a58261518f565b6151af8185614630565b93506151bf818560208601614f10565b6151c881613e90565b840191505092915050565b600060208201905081810360008301526151ed818461519a565b905092915050565b600082825260208201905092915050565b600061521182614efa565b61521b81856151f5565b935061522b818560208601614f10565b61523481613e90565b840191505092915050565b600060208201905081810360008301526152598184615206565b905092915050565b600061526c82613e28565b91507fffffffffffffffffffffffffffffffffffffffffffffffffffffffffffffffff820361529e5761529d6149f4565b5b600182019050919050565b60006152b482613e28565b91506152bf83613e28565b92508282026152cd81613e28565b915082820484148315176152e4576152e36149f4565b5b5092915050565b7f4e487b7100000000000000000000000000000000000000000000000000000000600052603260045260246000fd5b7f4e487b7100000000000000000000000000000000000000000000000000000000600052603160045260246000fdfea2646970667358221220e0a28732b5c0c3918d72dfd6991fda7377b8a76af7a59de438db202786ad935e64736f6c63430008110033",
  "devdoc": {
    "events": {
      "Staked(address,bytes32,address,uint256,uint256,uint256)": {
        "details": "emitted when user stakes an asset",
        "params": {
          "asset": "the asset that was staked",
          "depositTokenAmount": "how much of deposit token was staked",
          "receiptTokenAmount": "how much of receipt token was received",
          "timestamp": "of staking*",
          "user": "the address executing staking",
          "vault": "address of the vault token"
        }
      },
      "Unstaked(address,bytes32,address,uint256,uint256,uint256)": {
        "details": "emitted when user unstakes an asset",
        "params": {
          "asset": "the asset that was unstaked",
          "depositTokenAmount": "how much deposit token was received",
          "receiptTokenAmount": "how much receipt token was unstaked",
          "timestamp": "of unstaking*",
          "user": "the address executing unstaking",
          "vault": "address of the vault token"
        }
      }
    },
    "kind": "dev",
    "methods": {
      "stakeAVAXYak(uint256)": {
        "details": "This function uses the redstone-evm-connector",
        "params": {
          "amount": "amount of AVAX to be staked*"
        }
      },
      "stakePNGAVAXETHYak(uint256)": {
        "details": "This function uses the redstone-evm-connector",
        "params": {
          "amount": "amount of PNG_AVAX_ETH_LP to be staked*"
        }
      },
      "stakePNGAVAXUSDCYak(uint256)": {
        "details": "This function uses the redstone-evm-connector",
        "params": {
          "amount": "amount of PNG_AVAX_USDC_LP to be staked*"
        }
      },
      "stakeSAVAXYak(uint256)": {
        "details": "This function uses the redstone-evm-connector",
        "params": {
          "amount": "amount of sAVAX to be staked*"
        }
      },
      "stakeTJAVAXETHYak(uint256)": {
        "details": "This function uses the redstone-evm-connector",
        "params": {
          "amount": "amount of TJ_AVAX_ETH_LP to be staked*"
        }
      },
      "stakeTJAVAXSAVAXYak(uint256)": {
        "details": "This function uses the redstone-evm-connector",
        "params": {
          "amount": "amount of TJ_AVAX_sAVAX_LP to be staked*"
        }
      },
      "stakeTJAVAXUSDCYak(uint256)": {
        "details": "This function uses the redstone-evm-connector",
        "params": {
          "amount": "amount of TJ_AVAX_USDC to be staked*"
        }
      },
      "unstakeAVAXYak(uint256)": {
        "details": "This function uses the redstone-evm-connector",
        "params": {
          "amount": "amount of AVAX to be unstaked*"
        }
      },
      "unstakePNGAVAXETHYak(uint256)": {
        "details": "This function uses the redstone-evm-connector",
        "params": {
          "amount": "amount of PNG_AVAX_ETH_LP to be unstaked*"
        }
      },
      "unstakePNGAVAXUSDCYak(uint256)": {
        "details": "This function uses the redstone-evm-connector",
        "params": {
          "amount": "amount of PNG_AVAX_USDC_LP to be staked*"
        }
      },
      "unstakeSAVAXYak(uint256)": {
        "details": "This function uses the redstone-evm-connector",
        "params": {
          "amount": "amount of sAVAX to be unstaked*"
        }
      },
      "unstakeTJAVAXETHYak(uint256)": {
        "details": "This function uses the redstone-evm-connector",
        "params": {
          "amount": "amount of TJ_AVAX_ETH_LP to be unstaked*"
        }
      },
      "unstakeTJAVAXSAVAXYak(uint256)": {
        "details": "This function uses the redstone-evm-connector",
        "params": {
          "amount": "amount of TJ_AVAX_sAVAX_LP to be unstaked*"
        }
      },
      "unstakeTJAVAXUSDCYak(uint256)": {
        "details": "This function uses the redstone-evm-connector",
        "params": {
          "amount": "amount of TJ_AVAX_USDC to be unstaked*"
        }
      }
    },
    "version": 1
  },
  "userdoc": {
    "kind": "user",
    "methods": {
      "stakeAVAXYak(uint256)": {
        "notice": "Stakes AVAX in Yield Yak protocol"
      },
      "stakePNGAVAXETHYak(uint256)": {
        "notice": "Stakes PNG_AVAX_ETH_LP in Yield Yak protocol"
      },
      "stakePNGAVAXUSDCYak(uint256)": {
        "notice": "Stakes PNG_AVAX_USDC_LP in Yield Yak protocol"
      },
      "stakeSAVAXYak(uint256)": {
        "notice": "Stakes sAVAX in Yield Yak protocol"
      },
      "stakeTJAVAXETHYak(uint256)": {
        "notice": "Stakes TJ_AVAX_ETH_LP in Yield Yak protocol"
      },
      "stakeTJAVAXSAVAXYak(uint256)": {
        "notice": "Stakes TJ_AVAX_sAVAX_LP in Yield Yak protocol"
      },
      "stakeTJAVAXUSDCYak(uint256)": {
        "notice": "Stakes TJ_AVAX_USDC in Yield Yak protocol"
      },
      "unstakeAVAXYak(uint256)": {
        "notice": "Unstakes AVAX from Yield Yak protocol"
      },
      "unstakePNGAVAXETHYak(uint256)": {
        "notice": "Unstakes PNG_AVAX_ETH_LP in Yield Yak protocol"
      },
      "unstakePNGAVAXUSDCYak(uint256)": {
        "notice": "Unstakes PNG_AVAX_USDC_LP in Yield Yak protocol"
      },
      "unstakeSAVAXYak(uint256)": {
        "notice": "Unstakes sAVAX from Yield Yak protocol"
      },
      "unstakeTJAVAXETHYak(uint256)": {
        "notice": "Unstakes TJ_AVAX_ETH_LP in Yield Yak protocol"
      },
      "unstakeTJAVAXSAVAXYak(uint256)": {
        "notice": "Unstakes TJ_AVAX_sAVAX_LP in Yield Yak protocol"
      },
      "unstakeTJAVAXUSDCYak(uint256)": {
        "notice": "Unstakes TJ_AVAX_USDC in Yield Yak protocol"
      }
    },
    "version": 1
  },
  "storageLayout": {
    "storage": [
      {
        "astId": 12709,
        "contract": "contracts/facets/avalanche/YieldYakFacet.sol:YieldYakFacet",
        "label": "_status",
        "offset": 0,
        "slot": "0",
        "type": "t_uint256"
      }
    ],
    "types": {
      "t_uint256": {
        "encoding": "inplace",
        "label": "uint256",
        "numberOfBytes": "32"
      }
    }
  }
}