{
  "address": "0x8034e0c155BC49bCfc6f63C926A53d1E35DDEe88",
  "abi": [
    {
      "inputs": [],
      "name": "CalldataMustHaveValidPayload",
      "type": "error"
    },
    {
      "inputs": [],
      "name": "CalldataOverOrUnderFlow",
      "type": "error"
    },
    {
      "inputs": [],
      "name": "EachSignerMustProvideTheSameValue",
      "type": "error"
    },
    {
      "inputs": [],
      "name": "EmptyCalldataPointersArr",
      "type": "error"
    },
    {
      "inputs": [],
      "name": "IncorrectUnsignedMetadataSize",
      "type": "error"
    },
    {
      "inputs": [
        {
          "internalType": "uint256",
          "name": "receviedSignersCount",
          "type": "uint256"
        },
        {
          "internalType": "uint256",
          "name": "requiredSignersCount",
          "type": "uint256"
        }
      ],
      "name": "InsufficientNumberOfUniqueSigners",
      "type": "error"
    },
    {
      "inputs": [],
      "name": "InvalidCalldataPointer",
      "type": "error"
    },
    {
      "inputs": [
        {
          "internalType": "bytes",
          "name": "result",
          "type": "bytes"
        }
      ],
      "name": "ProxyCalldataFailedWithCustomError",
      "type": "error"
    },
    {
      "inputs": [
        {
          "internalType": "string",
          "name": "message",
          "type": "string"
        }
      ],
      "name": "ProxyCalldataFailedWithStringMessage",
      "type": "error"
    },
    {
      "inputs": [],
      "name": "ProxyCalldataFailedWithoutErrMsg",
      "type": "error"
    },
    {
      "inputs": [
        {
          "internalType": "address",
          "name": "receivedSigner",
          "type": "address"
        }
      ],
      "name": "SignerNotAuthorised",
      "type": "error"
    },
    {
      "anonymous": false,
      "inputs": [
        {
          "indexed": true,
          "internalType": "address",
          "name": "user",
          "type": "address"
        },
        {
          "indexed": true,
          "internalType": "bytes32",
          "name": "soldAsset",
          "type": "bytes32"
        },
        {
          "indexed": true,
          "internalType": "bytes32",
          "name": "boughtAsset",
          "type": "bytes32"
        },
        {
          "indexed": false,
          "internalType": "uint256",
          "name": "amountSold",
          "type": "uint256"
        },
        {
          "indexed": false,
          "internalType": "uint256",
          "name": "amountBought",
          "type": "uint256"
        },
        {
          "indexed": false,
          "internalType": "uint256",
          "name": "timestamp",
          "type": "uint256"
        }
      ],
      "name": "Swap",
      "type": "event"
    },
    {
      "inputs": [
        {
          "internalType": "bytes32[]",
          "name": "assetsToRepay",
          "type": "bytes32[]"
        }
      ],
      "name": "_getAllPricesForLiquidation",
      "outputs": [
        {
          "components": [
            {
              "components": [
                {
                  "internalType": "bytes32",
                  "name": "asset",
                  "type": "bytes32"
                },
                {
                  "internalType": "uint256",
                  "name": "price",
                  "type": "uint256"
                }
              ],
              "internalType": "struct SolvencyFacetProd.AssetPrice[]",
              "name": "ownedAssetsPrices",
              "type": "tuple[]"
            },
            {
              "components": [
                {
                  "internalType": "bytes32",
                  "name": "asset",
                  "type": "bytes32"
                },
                {
                  "internalType": "uint256",
                  "name": "price",
                  "type": "uint256"
                }
              ],
              "internalType": "struct SolvencyFacetProd.AssetPrice[]",
              "name": "debtAssetsPrices",
              "type": "tuple[]"
            },
            {
              "components": [
                {
                  "internalType": "bytes32",
                  "name": "asset",
                  "type": "bytes32"
                },
                {
                  "internalType": "uint256",
                  "name": "price",
                  "type": "uint256"
                }
              ],
              "internalType": "struct SolvencyFacetProd.AssetPrice[]",
              "name": "stakedPositionsPrices",
              "type": "tuple[]"
            },
            {
              "components": [
                {
                  "internalType": "bytes32",
                  "name": "asset",
                  "type": "bytes32"
                },
                {
                  "internalType": "uint256",
                  "name": "price",
                  "type": "uint256"
                }
              ],
              "internalType": "struct SolvencyFacetProd.AssetPrice[]",
              "name": "assetsToRepayPrices",
              "type": "tuple[]"
            }
          ],
          "internalType": "struct SolvencyFacetProd.CachedPrices",
          "name": "result",
          "type": "tuple"
        }
      ],
      "stateMutability": "nonpayable",
      "type": "function"
    },
    {
      "inputs": [],
      "name": "_getHealthRatio",
      "outputs": [
        {
          "internalType": "uint256",
          "name": "health",
          "type": "uint256"
        }
      ],
      "stateMutability": "nonpayable",
      "type": "function"
    },
    {
      "inputs": [
        {
          "components": [
            {
              "components": [
                {
                  "internalType": "bytes32",
                  "name": "asset",
                  "type": "bytes32"
                },
                {
                  "internalType": "uint256",
                  "name": "price",
                  "type": "uint256"
                }
              ],
              "internalType": "struct SolvencyFacetProd.AssetPrice[]",
              "name": "ownedAssetsPrices",
              "type": "tuple[]"
            },
            {
              "components": [
                {
                  "internalType": "bytes32",
                  "name": "asset",
                  "type": "bytes32"
                },
                {
                  "internalType": "uint256",
                  "name": "price",
                  "type": "uint256"
                }
              ],
              "internalType": "struct SolvencyFacetProd.AssetPrice[]",
              "name": "debtAssetsPrices",
              "type": "tuple[]"
            },
            {
              "components": [
                {
                  "internalType": "bytes32",
                  "name": "asset",
                  "type": "bytes32"
                },
                {
                  "internalType": "uint256",
                  "name": "price",
                  "type": "uint256"
                }
              ],
              "internalType": "struct SolvencyFacetProd.AssetPrice[]",
              "name": "stakedPositionsPrices",
              "type": "tuple[]"
            },
            {
              "components": [
                {
                  "internalType": "bytes32",
                  "name": "asset",
                  "type": "bytes32"
                },
                {
                  "internalType": "uint256",
                  "name": "price",
                  "type": "uint256"
                }
              ],
              "internalType": "struct SolvencyFacetProd.AssetPrice[]",
              "name": "assetsToRepayPrices",
              "type": "tuple[]"
            }
          ],
          "internalType": "struct SolvencyFacetProd.CachedPrices",
          "name": "cachedPrices",
          "type": "tuple"
        }
      ],
      "name": "_getHealthRatioWithPrices",
      "outputs": [
        {
          "internalType": "uint256",
          "name": "health",
          "type": "uint256"
        }
      ],
      "stateMutability": "nonpayable",
      "type": "function"
    },
    {
      "inputs": [],
      "name": "_resetPrimeAccountAssetsExposure",
      "outputs": [],
      "stateMutability": "nonpayable",
      "type": "function"
    },
    {
      "inputs": [],
      "name": "_setPrimeAccountAssetsExposure",
      "outputs": [],
      "stateMutability": "nonpayable",
      "type": "function"
    },
    {
      "inputs": [
        {
          "internalType": "bytes32",
          "name": "symbol",
          "type": "bytes32"
        }
      ],
      "name": "getPrice",
      "outputs": [
        {
          "internalType": "uint256",
          "name": "price",
          "type": "uint256"
        }
      ],
      "stateMutability": "nonpayable",
      "type": "function"
    },
    {
      "inputs": [
        {
          "internalType": "bytes32[]",
          "name": "symbols",
          "type": "bytes32[]"
        }
      ],
      "name": "getPrices",
      "outputs": [
        {
          "internalType": "uint256[]",
          "name": "prices",
          "type": "uint256[]"
        }
      ],
      "stateMutability": "nonpayable",
      "type": "function"
    },
    {
      "inputs": [
        {
          "internalType": "uint256",
          "name": "_amountIn",
          "type": "uint256"
        },
        {
          "internalType": "uint256",
          "name": "_amountOut",
          "type": "uint256"
        },
        {
          "internalType": "address[]",
          "name": "_path",
          "type": "address[]"
        },
        {
          "internalType": "address[]",
          "name": "_adapters",
          "type": "address[]"
        }
      ],
      "name": "yakSwap",
      "outputs": [],
      "stateMutability": "nonpayable",
      "type": "function"
    }
  ],
  "transactionHash": "0x4b89856494b4c43115d6521df50ad9165c7a9a4828486d2a7bd5036a4ea19049",
  "args": [],
  "numDeployments": 2,
  "solcInputHash": "e7ed7372c9d5996d74764a374f0e14b8",
  "bytecode": "0x608060405234801561001057600080fd5b506001600081905550613467806100286000396000f3fe608060405234801561001057600080fd5b50600436106100885760003560e01c80635b4fad9c1161005b5780635b4fad9c146101275780636e3bfe9f14610131578063b2d40e7314610161578063f8f185531461019157610088565b80631f7f8b271461008d57806326ee4836146100a957806331d98b3f146100d957806339e2719e14610109575b600080fd5b6100a760048036038101906100a29190611c96565b61019b565b005b6100c360048036038101906100be9190611ec2565b6108df565b6040516100d09190611fc9565b60405180910390f35b6100f360048036038101906100ee9190611feb565b610989565b6040516101009190612027565b60405180910390f35b610111610a33565b60405161011e9190612027565b60405180910390f35b61012f610ad0565b005b61014b60048036038101906101469190612247565b610b56565b6040516101589190612027565b60405180910390f35b61017b60048036038101906101769190611ec2565b610c00565b60405161018891906123f5565b60405180910390f35b610199610cb0565b005b60006101a5610d36565b905060028160000154036101ee576040517f08c379a00000000000000000000000000000000000000000000000000000000081526004016101e590612474565b60405180910390fd5b60028160000181905550610200610d63565b600061020a610dfe565b905042816006015403610252576040517f08c379a000000000000000000000000000000000000000000000000000000000815260040161024990612506565b60405180910390fd5b61025a610ad0565b60006102c48787600081811061027357610272612526565b5b905060200201602081019061028891906125b3565b888860018b8b905061029a919061260f565b8181106102aa576102a9612526565b5b90506020020160208101906102bf91906125b3565b610e2b565b905060008911610309576040517f08c379a0000000000000000000000000000000000000000000000000000000008152600401610300906126b5565b60405180910390fd5b88816040015173ffffffffffffffffffffffffffffffffffffffff166370a08231306040518263ffffffff1660e01b815260040161034791906126e4565b602060405180830381865afa158015610364573d6000803e3d6000fd5b505050506040513d601f19601f820116820180604052508101906103889190612714565b10156103c9576040517f08c379a00000000000000000000000000000000000000000000000000000000081526004016103c09061278d565b60405180910390fd5b806040015173ffffffffffffffffffffffffffffffffffffffff1663095ea7b373c4729e56b831d74bbc18797e0e17a295fa77488c8b6040518363ffffffff1660e01b815260040161041c9291906127ad565b6020604051808303816000875af115801561043b573d6000803e3d6000fd5b505050506040513d601f19601f8201168201806040525081019061045f919061280e565b50600073c4729e56b831d74bbc18797e0e17a295fa77488c9050600060405180608001604052808c81526020018b81526020018a8a80806020026020016040519081016040528093929190818152602001838360200280828437600081840152601f19601f820116905080830192505050505050508152602001888880806020026020016040519081016040528093929190818152602001838360200280828437600081840152601f19601f8201169050808301925050505050505081525090508173ffffffffffffffffffffffffffffffffffffffff16636bf2df86823060006040518463ffffffff1660e01b815260040161055e939291906129a8565b600060405180830381600087803b15801561057857600080fd5b505af115801561058c573d6000803e3d6000fd5b505050506000836060015173ffffffffffffffffffffffffffffffffffffffff166370a08231306040518263ffffffff1660e01b81526004016105cf91906126e4565b602060405180830381865afa1580156105ec573d6000803e3d6000fd5b505050506040513d601f19601f820116820180604052508101906106109190612714565b11156106295761062883602001518460600151611156565b5b6000836040015173ffffffffffffffffffffffffffffffffffffffff166370a08231306040518263ffffffff1660e01b815260040161066891906126e4565b602060405180830381865afa158015610685573d6000803e3d6000fd5b505050506040513d601f19601f820116820180604052508101906106a99190612714565b036106bc576106bb8360000151611228565b5b60008360a00151846060015173ffffffffffffffffffffffffffffffffffffffff166370a08231306040518263ffffffff1660e01b815260040161070091906126e4565b602060405180830381865afa15801561071d573d6000803e3d6000fd5b505050506040513d601f19601f820116820180604052508101906107419190612714565b61074b919061260f565b90508a811015610790576040517f08c379a000000000000000000000000000000000000000000000000000000000815260040161078790612a32565b60405180910390fd5b836020015184600001513373ffffffffffffffffffffffffffffffffffffffff167f4cb7ea834525f7e7be14143ffc68be9c6735559e936d23502fff335d39a2e8e2876040015173ffffffffffffffffffffffffffffffffffffffff166370a08231306040518263ffffffff1660e01b815260040161080f91906126e4565b602060405180830381865afa15801561082c573d6000803e3d6000fd5b505050506040513d601f19601f820116820180604052508101906108509190612714565b886080015161085f919061260f565b854260405161087093929190612a52565b60405180910390a450505050610884611246565b6108c3576040517f08c379a00000000000000000000000000000000000000000000000000000000081526004016108ba90612afb565b60405180910390fd5b6108cb610cb0565b506001816000018190555050505050505050565b606061096f6108f46326ee483660e01b6112e3565b6326ee483660e01b8460405160240161090d9190612bca565b604051602081830303815290604052907bffffffffffffffffffffffffffffffffffffffffffffffffffffffff19166020820180517bffffffffffffffffffffffffffffffffffffffffffffffffffffffff838183161783525050505061136d565b8060200190518101906109829190612caf565b9050919050565b6000610a1961099e6331d98b3f60e01b6112e3565b6331d98b3f60e01b846040516024016109b79190612d07565b604051602081830303815290604052907bffffffffffffffffffffffffffffffffffffffffffffffffffffffff19166020820180517bffffffffffffffffffffffffffffffffffffffffffffffffffffffff838183161783525050505061136d565b806020019051810190610a2c9190612714565b9050919050565b6000610ab8610a48637914334f60e01b6112e3565b637914334f60e01b604051602401604051602081830303815290604052907bffffffffffffffffffffffffffffffffffffffffffffffffffffffff19166020820180517bffffffffffffffffffffffffffffffffffffffffffffffffffffffff838183161783525050505061136d565b806020019051810190610acb9190612714565b905090565b610b53610ae363b1c9fbc160e01b6112e3565b63b1c9fbc160e01b604051602401604051602081830303815290604052907bffffffffffffffffffffffffffffffffffffffffffffffffffffffff19166020820180517bffffffffffffffffffffffffffffffffffffffffffffffffffffffff838183161783525050505061136d565b50565b6000610be6610b6b63360398a360e01b6112e3565b63360398a360e01b84604051602401610b8491906123f5565b604051602081830303815290604052907bffffffffffffffffffffffffffffffffffffffffffffffffffffffff19166020820180517bffffffffffffffffffffffffffffffffffffffffffffffffffffffff838183161783525050505061136d565b806020019051810190610bf99190612714565b9050919050565b610c08611b57565b610c96610c1b63a3aa8d1e60e01b6112e3565b63a3aa8d1e60e01b84604051602401610c349190612bca565b604051602081830303815290604052907bffffffffffffffffffffffffffffffffffffffffffffffffffffffff19166020820180517bffffffffffffffffffffffffffffffffffffffffffffffffffffffff838183161783525050505061136d565b806020019051810190610ca99190612f06565b9050919050565b610d33610cc363e017e12560e01b6112e3565b63e017e12560e01b604051602401604051602081830303815290604052907bffffffffffffffffffffffffffffffffffffffffffffffffffffffff19166020820180517bffffffffffffffffffffffffffffffffffffffffffffffffffffffff838183161783525050505061136d565b50565b6000807f1c85eba10a4cf2d29c83fc15f97931886b9fd3caeb70d8c377aeedc58b919e3b90508091505090565b610d6b6113fe565b60010160009054906101000a900473ffffffffffffffffffffffffffffffffffffffff1673ffffffffffffffffffffffffffffffffffffffff163373ffffffffffffffffffffffffffffffffffffffff1614610dfc576040517f08c379a0000000000000000000000000000000000000000000000000000000008152600401610df390612fc1565b60405180910390fd5b565b6000807fc8fcad8db84d3cc18b4c41d551ea0ee66dd599cde068d998e57d5e09332c131c90508091505090565b610e33611b7f565b6000610e3d61142b565b905060008173ffffffffffffffffffffffffffffffffffffffff1663f823f1e0866040518263ffffffff1660e01b8152600401610e7a91906126e4565b602060405180830381865afa158015610e97573d6000803e3d6000fd5b505050506040513d601f19601f82011682018060405250810190610ebb9190612fe1565b905060008273ffffffffffffffffffffffffffffffffffffffff1663f823f1e0866040518263ffffffff1660e01b8152600401610ef891906126e4565b602060405180830381865afa158015610f15573d6000803e3d6000fd5b505050506040513d601f19601f82011682018060405250810190610f399190612fe1565b90508273ffffffffffffffffffffffffffffffffffffffff166335923e03866040518263ffffffff1660e01b8152600401610f7491906126e4565b602060405180830381865afa158015610f91573d6000803e3d6000fd5b505050506040513d601f19601f82011682018060405250810190610fb5919061280e565b610ff4576040517f08c379a0000000000000000000000000000000000000000000000000000000008152600401610feb9061305a565b60405180910390fd5b600086905060008690506040518060c001604052808581526020018481526020018373ffffffffffffffffffffffffffffffffffffffff1681526020018273ffffffffffffffffffffffffffffffffffffffff1681526020018373ffffffffffffffffffffffffffffffffffffffff166370a08231306040518263ffffffff1660e01b815260040161108691906126e4565b602060405180830381865afa1580156110a3573d6000803e3d6000fd5b505050506040513d601f19601f820116820180604052508101906110c79190612714565b81526020018273ffffffffffffffffffffffffffffffffffffffff166370a08231306040518263ffffffff1660e01b815260040161110591906126e4565b602060405180830381865afa158015611122573d6000803e3d6000fd5b505050506040513d601f19601f820116820180604052508101906111469190612714565b8152509550505050505092915050565b60008203611199576040517f08c379a0000000000000000000000000000000000000000000000000000000008152600401611190906130c6565b60405180910390fd5b600073ffffffffffffffffffffffffffffffffffffffff168173ffffffffffffffffffffffffffffffffffffffff1603611208576040517f08c379a00000000000000000000000000000000000000000000000000000000081526004016111ff90613132565b60405180910390fd5b60006112126113fe565b9050611222816004018484611447565b50505050565b60006112326113fe565b90506112418160040183611479565b505050565b60006112cb61125b635ce2395060e01b6112e3565b635ce2395060e01b604051602401604051602081830303815290604052907bffffffffffffffffffffffffffffffffffffffffffffffffffffffff19166020820180517bffffffffffffffffffffffffffffffffffffffffffffffffffffffff838183161783525050505061136d565b8060200190518101906112de919061280e565b905090565b60006112ed611490565b73ffffffffffffffffffffffffffffffffffffffff16630d741577836040518263ffffffff1660e01b8152600401611325919061318d565b602060405180830381865afa158015611342573d6000803e3d6000fd5b505050506040513d601f19601f8201168201806040525081019061136691906131bd565b9050919050565b6060600061137a836114ac565b90506000808573ffffffffffffffffffffffffffffffffffffffff16836040516113a4919061325b565b600060405180830381855af49150503d80600081146113df576040519150601f19603f3d011682016040523d82523d6000602084013e6113e4565b606091505b50915091506113f38282611566565b935050505092915050565b6000807f8d5bb42e0ac1496a2c326edc9c00758985246e6c2bb146d6c2f4a0d509e0960a90508091505090565b600073f3978209b7cff2b90100c6f87cec77de928ed58e905090565b600061147084600001848473ffffffffffffffffffffffffffffffffffffffff1660001b611666565b90509392505050565b600061148883600001836116a1565b905092915050565b6000732916b3bf7c35bd21e63d01c93c62fb0d4994e56d905090565b606060008251905060006114be6116da565b9050600081836114ce9190613272565b9050600036905082111561150e576040517f5796f78a00000000000000000000000000000000000000000000000000000000815260040160405180910390fd5b6060604051905081815285602001848101826020015b818310156115415782518152602083019250602081019050611524565b5050508283360385602001830137602084840182010160405280945050505050919050565b60608261165d5760008251036115a8576040517f567fe27a00000000000000000000000000000000000000000000000000000000815260040160405180910390fd5b600060208301517f08c379a00000000000000000000000000000000000000000000000000000000081149150508015611620576060604484019050806040517f0f7e827800000000000000000000000000000000000000000000000000000000815260040161161791906132ea565b60405180910390fd5b826040517ffd36fde30000000000000000000000000000000000000000000000000000000081526004016116549190613356565b60405180910390fd5b81905092915050565b60008184600201600085815260200190815260200160002081905550611698838560000161174a90919063ffffffff16565b90509392505050565b6000826002016000838152602001908152602001600020600090556116d2828460000161176190919063ffffffff16565b905092915050565b6000806116e5611778565b905060006116f282611889565b61ffff1690506002826117059190613272565b915060005b8181101561174157600061171d846118e5565b9050808461172b9190613272565b935050808061173990613378565b91505061170a565b50819250505090565b60006117598360000183611924565b905092915050565b60006117708360000183611994565b905092915050565b60008060203603356602ed57011e000081166602ed57011e000014915050806117cd576040517fe7764c9e00000000000000000000000000000000000000000000000000000000815260040160405180910390fd5b6000803690506029111561180d576040517f5796f78a00000000000000000000000000000000000000000000000000000000815260040160405180910390fd5b602936033590506000600960038362ffffff1661182a9190613272565b6118349190613272565b905060003690506002826118489190613272565b1115611880576040517fc30a7bd700000000000000000000000000000000000000000000000000000000815260040160405180910390fd5b80935050505090565b6000806020836118999190613272565b905060003690508111156118d9576040517f5796f78a00000000000000000000000000000000000000000000000000000000815260040160405180910390fd5b80360335915050919050565b60008060006118f384611aa8565b91509150604e8160206119069190613272565b8361191191906133c0565b61191b9190613272565b92505050919050565b60006119308383611b1e565b61198957826000018290806001815401808255809150506001900390600052602060002001600090919091909150558260000180549050836001016000848152602001908152602001600020819055506001905061198e565b600090505b92915050565b60008083600101600084815260200190815260200160002054905060008114611a9c5760006001826119c6919061260f565b90506000600186600001805490506119de919061260f565b9050818114611a4d5760008660000182815481106119ff576119fe612526565b5b9060005260206000200154905080876000018481548110611a2357611a22612526565b5b90600052602060002001819055508387600101600083815260200190815260200160002081905550505b85600001805480611a6157611a60613402565b5b600190038181906000526020600020016000905590558560010160008681526020019081526020016000206000905560019350505050611aa2565b60009150505b92915050565b6000806000806000604186611abd9190613272565b90506000611ae4602083611ad19190613272565b6000369050611b4190919063ffffffff16565b905080359350611afe600382611b4190919063ffffffff16565b9050803592508362ffffff1695508263ffffffff16945050505050915091565b600080836001016000848152602001908152602001600020541415905092915050565b60008183611b4f919061260f565b905092915050565b6040518060800160405280606081526020016060815260200160608152602001606081525090565b6040518060c001604052806000801916815260200160008019168152602001600073ffffffffffffffffffffffffffffffffffffffff168152602001600073ffffffffffffffffffffffffffffffffffffffff16815260200160008152602001600081525090565b6000604051905090565b600080fd5b600080fd5b6000819050919050565b611c0e81611bfb565b8114611c1957600080fd5b50565b600081359050611c2b81611c05565b92915050565b600080fd5b600080fd5b600080fd5b60008083601f840112611c5657611c55611c31565b5b8235905067ffffffffffffffff811115611c7357611c72611c36565b5b602083019150836020820283011115611c8f57611c8e611c3b565b5b9250929050565b60008060008060008060808789031215611cb357611cb2611bf1565b5b6000611cc189828a01611c1c565b9650506020611cd289828a01611c1c565b955050604087013567ffffffffffffffff811115611cf357611cf2611bf6565b5b611cff89828a01611c40565b9450945050606087013567ffffffffffffffff811115611d2257611d21611bf6565b5b611d2e89828a01611c40565b92509250509295509295509295565b6000601f19601f8301169050919050565b7f4e487b7100000000000000000000000000000000000000000000000000000000600052604160045260246000fd5b611d8682611d3d565b810181811067ffffffffffffffff82111715611da557611da4611d4e565b5b80604052505050565b6000611db8611be7565b9050611dc48282611d7d565b919050565b600067ffffffffffffffff821115611de457611de3611d4e565b5b602082029050602081019050919050565b6000819050919050565b611e0881611df5565b8114611e1357600080fd5b50565b600081359050611e2581611dff565b92915050565b6000611e3e611e3984611dc9565b611dae565b90508083825260208201905060208402830185811115611e6157611e60611c3b565b5b835b81811015611e8a5780611e768882611e16565b845260208401935050602081019050611e63565b5050509392505050565b600082601f830112611ea957611ea8611c31565b5b8135611eb9848260208601611e2b565b91505092915050565b600060208284031215611ed857611ed7611bf1565b5b600082013567ffffffffffffffff811115611ef657611ef5611bf6565b5b611f0284828501611e94565b91505092915050565b600081519050919050565b600082825260208201905092915050565b6000819050602082019050919050565b611f4081611bfb565b82525050565b6000611f528383611f37565b60208301905092915050565b6000602082019050919050565b6000611f7682611f0b565b611f808185611f16565b9350611f8b83611f27565b8060005b83811015611fbc578151611fa38882611f46565b9750611fae83611f5e565b925050600181019050611f8f565b5085935050505092915050565b60006020820190508181036000830152611fe38184611f6b565b905092915050565b60006020828403121561200157612000611bf1565b5b600061200f84828501611e16565b91505092915050565b61202181611bfb565b82525050565b600060208201905061203c6000830184612018565b92915050565b600080fd5b600080fd5b600067ffffffffffffffff82111561206757612066611d4e565b5b602082029050602081019050919050565b60006040828403121561208e5761208d612042565b5b6120986040611dae565b905060006120a884828501611e16565b60008301525060206120bc84828501611c1c565b60208301525092915050565b60006120db6120d68461204c565b611dae565b905080838252602082019050604084028301858111156120fe576120fd611c3b565b5b835b8181101561212757806121138882612078565b845260208401935050604081019050612100565b5050509392505050565b600082601f83011261214657612145611c31565b5b81356121568482602086016120c8565b91505092915050565b60006080828403121561217557612174612042565b5b61217f6080611dae565b9050600082013567ffffffffffffffff81111561219f5761219e612047565b5b6121ab84828501612131565b600083015250602082013567ffffffffffffffff8111156121cf576121ce612047565b5b6121db84828501612131565b602083015250604082013567ffffffffffffffff8111156121ff576121fe612047565b5b61220b84828501612131565b604083015250606082013567ffffffffffffffff81111561222f5761222e612047565b5b61223b84828501612131565b60608301525092915050565b60006020828403121561225d5761225c611bf1565b5b600082013567ffffffffffffffff81111561227b5761227a611bf6565b5b6122878482850161215f565b91505092915050565b600081519050919050565b600082825260208201905092915050565b6000819050602082019050919050565b6122c581611df5565b82525050565b6040820160008201516122e160008501826122bc565b5060208201516122f46020850182611f37565b50505050565b600061230683836122cb565b60408301905092915050565b6000602082019050919050565b600061232a82612290565b612334818561229b565b935061233f836122ac565b8060005b8381101561237057815161235788826122fa565b975061236283612312565b925050600181019050612343565b5085935050505092915050565b6000608083016000830151848203600086015261239a828261231f565b915050602083015184820360208601526123b4828261231f565b915050604083015184820360408601526123ce828261231f565b915050606083015184820360608601526123e8828261231f565b9150508091505092915050565b6000602082019050818103600083015261240f818461237d565b905092915050565b600082825260208201905092915050565b7f5265656e7472616e637947756172643a207265656e7472616e742063616c6c00600082015250565b600061245e601f83612417565b915061246982612428565b602082019050919050565b6000602082019050818103600083015261248d81612451565b9050919050565b7f426f72726f77696e67206d7573742068617070656e20696e2061207374616e6460008201527f616c6f6e65207472616e73616374696f6e000000000000000000000000000000602082015250565b60006124f0603183612417565b91506124fb82612494565b604082019050919050565b6000602082019050818103600083015261251f816124e3565b9050919050565b7f4e487b7100000000000000000000000000000000000000000000000000000000600052603260045260246000fd5b600073ffffffffffffffffffffffffffffffffffffffff82169050919050565b600061258082612555565b9050919050565b61259081612575565b811461259b57600080fd5b50565b6000813590506125ad81612587565b92915050565b6000602082840312156125c9576125c8611bf1565b5b60006125d78482850161259e565b91505092915050565b7f4e487b7100000000000000000000000000000000000000000000000000000000600052601160045260246000fd5b600061261a82611bfb565b915061262583611bfb565b925082820390508181111561263d5761263c6125e0565b5b92915050565b7f416d6f756e74206f6620746f6b656e7320746f2073656c6c2068617320746f2060008201527f62652067726561746572207468616e2030000000000000000000000000000000602082015250565b600061269f603183612417565b91506126aa82612643565b604082019050919050565b600060208201905081810360008301526126ce81612692565b9050919050565b6126de81612575565b82525050565b60006020820190506126f960008301846126d5565b92915050565b60008151905061270e81611c05565b92915050565b60006020828403121561272a57612729611bf1565b5b6000612738848285016126ff565b91505092915050565b7f4e6f7420656e6f75676820746f6b656e20746f2073656c6c0000000000000000600082015250565b6000612777601883612417565b915061278282612741565b602082019050919050565b600060208201905081810360008301526127a68161276a565b9050919050565b60006040820190506127c260008301856126d5565b6127cf6020830184612018565b9392505050565b60008115159050919050565b6127eb816127d6565b81146127f657600080fd5b50565b600081519050612808816127e2565b92915050565b60006020828403121561282457612823611bf1565b5b6000612832848285016127f9565b91505092915050565b600081519050919050565b600082825260208201905092915050565b6000819050602082019050919050565b61287081612575565b82525050565b60006128828383612867565b60208301905092915050565b6000602082019050919050565b60006128a68261283b565b6128b08185612846565b93506128bb83612857565b8060005b838110156128ec5781516128d38882612876565b97506128de8361288e565b9250506001810190506128bf565b5085935050505092915050565b60006080830160008301516129116000860182611f37565b5060208301516129246020860182611f37565b506040830151848203604086015261293c828261289b565b91505060608301518482036060860152612956828261289b565b9150508091505092915050565b6000819050919050565b6000819050919050565b600061299261298d61298884612963565b61296d565b611bfb565b9050919050565b6129a281612977565b82525050565b600060608201905081810360008301526129c281866128f9565b90506129d160208301856126d5565b6129de6040830184612999565b949350505050565b7f496e737566696369656e74206f757470757420616d6f756e7400000000000000600082015250565b6000612a1c601983612417565b9150612a27826129e6565b602082019050919050565b60006020820190508181036000830152612a4b81612a0f565b9050919050565b6000606082019050612a676000830186612018565b612a746020830185612018565b612a816040830184612018565b949350505050565b7f54686520616374696f6e206d617920636175736520616e206163636f756e742060008201527f746f206265636f6d6520696e736f6c76656e7400000000000000000000000000602082015250565b6000612ae5603383612417565b9150612af082612a89565b604082019050919050565b60006020820190508181036000830152612b1481612ad8565b9050919050565b600081519050919050565b600082825260208201905092915050565b6000819050602082019050919050565b6000612b5383836122bc565b60208301905092915050565b6000602082019050919050565b6000612b7782612b1b565b612b818185612b26565b9350612b8c83612b37565b8060005b83811015612bbd578151612ba48882612b47565b9750612baf83612b5f565b925050600181019050612b90565b5085935050505092915050565b60006020820190508181036000830152612be48184612b6c565b905092915050565b600067ffffffffffffffff821115612c0757612c06611d4e565b5b602082029050602081019050919050565b6000612c2b612c2684612bec565b611dae565b90508083825260208201905060208402830185811115612c4e57612c4d611c3b565b5b835b81811015612c775780612c6388826126ff565b845260208401935050602081019050612c50565b5050509392505050565b600082601f830112612c9657612c95611c31565b5b8151612ca6848260208601612c18565b91505092915050565b600060208284031215612cc557612cc4611bf1565b5b600082015167ffffffffffffffff811115612ce357612ce2611bf6565b5b612cef84828501612c81565b91505092915050565b612d0181611df5565b82525050565b6000602082019050612d1c6000830184612cf8565b92915050565b600081519050612d3181611dff565b92915050565b600060408284031215612d4d57612d4c612042565b5b612d576040611dae565b90506000612d6784828501612d22565b6000830152506020612d7b848285016126ff565b60208301525092915050565b6000612d9a612d958461204c565b611dae565b90508083825260208201905060408402830185811115612dbd57612dbc611c3b565b5b835b81811015612de65780612dd28882612d37565b845260208401935050604081019050612dbf565b5050509392505050565b600082601f830112612e0557612e04611c31565b5b8151612e15848260208601612d87565b91505092915050565b600060808284031215612e3457612e33612042565b5b612e3e6080611dae565b9050600082015167ffffffffffffffff811115612e5e57612e5d612047565b5b612e6a84828501612df0565b600083015250602082015167ffffffffffffffff811115612e8e57612e8d612047565b5b612e9a84828501612df0565b602083015250604082015167ffffffffffffffff811115612ebe57612ebd612047565b5b612eca84828501612df0565b604083015250606082015167ffffffffffffffff811115612eee57612eed612047565b5b612efa84828501612df0565b60608301525092915050565b600060208284031215612f1c57612f1b611bf1565b5b600082015167ffffffffffffffff811115612f3a57612f39611bf6565b5b612f4684828501612e1e565b91505092915050565b7f4469616d6f6e6453746f726167654c69623a204d75737420626520636f6e747260008201527f616374206f776e65720000000000000000000000000000000000000000000000602082015250565b6000612fab602983612417565b9150612fb682612f4f565b604082019050919050565b60006020820190508181036000830152612fda81612f9e565b9050919050565b600060208284031215612ff757612ff6611bf1565b5b600061300584828501612d22565b91505092915050565b7f4173736574206e6f7420737570706f727465642e000000000000000000000000600082015250565b6000613044601483612417565b915061304f8261300e565b602082019050919050565b6000602082019050818103600083015261307381613037565b9050919050565b7f53796d626f6c2063616e6e6f7420626520656d70747900000000000000000000600082015250565b60006130b0601683612417565b91506130bb8261307a565b602082019050919050565b600060208201905081810360008301526130df816130a3565b9050919050565b7f496e76616c696420416464726573735a65726f00000000000000000000000000600082015250565b600061311c601383612417565b9150613127826130e6565b602082019050919050565b6000602082019050818103600083015261314b8161310f565b9050919050565b60007fffffffff0000000000000000000000000000000000000000000000000000000082169050919050565b61318781613152565b82525050565b60006020820190506131a2600083018461317e565b92915050565b6000815190506131b781612587565b92915050565b6000602082840312156131d3576131d2611bf1565b5b60006131e1848285016131a8565b91505092915050565b600081519050919050565b600081905092915050565b60005b8381101561321e578082015181840152602081019050613203565b60008484015250505050565b6000613235826131ea565b61323f81856131f5565b935061324f818560208601613200565b80840191505092915050565b6000613267828461322a565b915081905092915050565b600061327d82611bfb565b915061328883611bfb565b92508282019050808211156132a05761329f6125e0565b5b92915050565b600081519050919050565b60006132bc826132a6565b6132c68185612417565b93506132d6818560208601613200565b6132df81611d3d565b840191505092915050565b6000602082019050818103600083015261330481846132b1565b905092915050565b600082825260208201905092915050565b6000613328826131ea565b613332818561330c565b9350613342818560208601613200565b61334b81611d3d565b840191505092915050565b60006020820190508181036000830152613370818461331d565b905092915050565b600061338382611bfb565b91507fffffffffffffffffffffffffffffffffffffffffffffffffffffffffffffffff82036133b5576133b46125e0565b5b600182019050919050565b60006133cb82611bfb565b91506133d683611bfb565b92508282026133e481611bfb565b915082820484148315176133fb576133fa6125e0565b5b5092915050565b7f4e487b7100000000000000000000000000000000000000000000000000000000600052603160045260246000fdfea26469706673582212205112314c8b134f7c32e82945f9bcbe3f5235b543f25de9d04db1f91773f1114464736f6c63430008110033",
  "devdoc": {
    "events": {
      "Swap(address,bytes32,bytes32,uint256,uint256,uint256)": {
        "details": "emitted after a swap of assets",
        "params": {
          "amountBought": "amount of tokens bought",
          "amountSold": "amount of tokens sold",
          "boughtAsset": "bought by the user",
          "soldAsset": "sold by the user",
          "timestamp": "time of the swap*",
          "user": "the address of user making the purchase"
        }
      }
    },
    "kind": "dev",
    "methods": {},
    "version": 1
  },
  "userdoc": {
    "kind": "user",
    "methods": {},
    "version": 1
  },
  "storageLayout": {
    "storage": [
      {
        "astId": 12709,
        "contract": "contracts/facets/avalanche/YieldYakSwapFacet.sol:YieldYakSwapFacet",
        "label": "_status",
        "offset": 0,
        "slot": "0",
        "type": "t_uint256"
      }
    ],
    "types": {
      "t_uint256": {
        "encoding": "inplace",
        "label": "uint256",
        "numberOfBytes": "32"
      }
    }
  }
}