{
  "_format": "hh-sol-artifact-1",
  "contractName": "MockSmartLoan",
  "sourceName": "contracts/mock/MockSmartLoan.sol",
  "abi": [
    {
      "anonymous": false,
      "inputs": [
        {
          "indexed": true,
          "internalType": "address",
          "name": "borrower",
          "type": "address"
        },
        {
          "indexed": false,
          "internalType": "uint256",
          "name": "amount",
          "type": "uint256"
        },
        {
          "indexed": false,
          "internalType": "uint256",
          "name": "timestamp",
          "type": "uint256"
        }
      ],
      "name": "Borrowed",
      "type": "event"
    },
    {
      "anonymous": false,
      "inputs": [
        {
          "indexed": true,
          "internalType": "address",
          "name": "funder",
          "type": "address"
        },
        {
          "indexed": false,
          "internalType": "uint256",
          "name": "amount",
          "type": "uint256"
        },
        {
          "indexed": false,
          "internalType": "uint256",
          "name": "timestamp",
          "type": "uint256"
        }
      ],
      "name": "Funded",
      "type": "event"
    },
    {
      "anonymous": false,
      "inputs": [
        {
          "indexed": true,
          "internalType": "address",
          "name": "investor",
          "type": "address"
        },
        {
          "indexed": true,
          "internalType": "bytes32",
          "name": "asset",
          "type": "bytes32"
        },
        {
          "indexed": false,
          "internalType": "uint256",
          "name": "amount",
          "type": "uint256"
        },
        {
          "indexed": false,
          "internalType": "uint256",
          "name": "timestamp",
          "type": "uint256"
        }
      ],
      "name": "Invested",
      "type": "event"
    },
    {
      "anonymous": false,
      "inputs": [
        {
          "indexed": true,
          "internalType": "address",
          "name": "liquidator",
          "type": "address"
        },
        {
          "indexed": false,
          "internalType": "uint256",
          "name": "repayAmount",
          "type": "uint256"
        },
        {
          "indexed": false,
          "internalType": "uint256",
          "name": "bonus",
          "type": "uint256"
        },
        {
          "indexed": false,
          "internalType": "uint256",
          "name": "ltv",
          "type": "uint256"
        },
        {
          "indexed": false,
          "internalType": "uint256",
          "name": "timestamp",
          "type": "uint256"
        }
      ],
      "name": "Liquidated",
      "type": "event"
    },
    {
      "anonymous": false,
      "inputs": [
        {
          "indexed": false,
          "internalType": "uint256",
          "name": "debtRepaid",
          "type": "uint256"
        },
        {
          "indexed": false,
          "internalType": "uint256",
          "name": "withdrawalAmount",
          "type": "uint256"
        },
        {
          "indexed": false,
          "internalType": "uint256",
          "name": "timestamp",
          "type": "uint256"
        }
      ],
      "name": "LoanClosed",
      "type": "event"
    },
    {
      "anonymous": false,
      "inputs": [
        {
          "indexed": true,
          "internalType": "address",
          "name": "previousOwner",
          "type": "address"
        },
        {
          "indexed": true,
          "internalType": "address",
          "name": "newOwner",
          "type": "address"
        }
      ],
      "name": "OwnershipTransferred",
      "type": "event"
    },
    {
      "anonymous": false,
      "inputs": [
        {
          "indexed": true,
          "internalType": "address",
          "name": "investor",
          "type": "address"
        },
        {
          "indexed": true,
          "internalType": "bytes32",
          "name": "asset",
          "type": "bytes32"
        },
        {
          "indexed": false,
          "internalType": "uint256",
          "name": "amount",
          "type": "uint256"
        },
        {
          "indexed": false,
          "internalType": "uint256",
          "name": "timestamp",
          "type": "uint256"
        }
      ],
      "name": "Redeemed",
      "type": "event"
    },
    {
      "anonymous": false,
      "inputs": [
        {
          "indexed": true,
          "internalType": "address",
          "name": "borrower",
          "type": "address"
        },
        {
          "indexed": false,
          "internalType": "uint256",
          "name": "amount",
          "type": "uint256"
        },
        {
          "indexed": false,
          "internalType": "uint256",
          "name": "timestamp",
          "type": "uint256"
        }
      ],
      "name": "Repaid",
      "type": "event"
    },
    {
      "anonymous": false,
      "inputs": [
        {
          "indexed": true,
          "internalType": "address",
          "name": "owner",
          "type": "address"
        },
        {
          "indexed": false,
          "internalType": "uint256",
          "name": "amount",
          "type": "uint256"
        },
        {
          "indexed": false,
          "internalType": "uint256",
          "name": "timestamp",
          "type": "uint256"
        }
      ],
      "name": "Withdrawn",
      "type": "event"
    },
    {
      "inputs": [
        {
          "internalType": "uint256",
          "name": "_amount",
          "type": "uint256"
        }
      ],
      "name": "borrow",
      "outputs": [],
      "stateMutability": "nonpayable",
      "type": "function"
    },
    {
      "inputs": [],
      "name": "closeLoan",
      "outputs": [],
      "stateMutability": "payable",
      "type": "function"
    },
    {
      "inputs": [],
      "name": "executeGetAllAssetsPrices",
      "outputs": [
        {
          "internalType": "uint256[]",
          "name": "",
          "type": "uint256[]"
        }
      ],
      "stateMutability": "nonpayable",
      "type": "function"
    },
    {
      "inputs": [],
      "name": "executeGetTotalValue",
      "outputs": [
        {
          "internalType": "uint256",
          "name": "",
          "type": "uint256"
        }
      ],
      "stateMutability": "nonpayable",
      "type": "function"
    },
    {
      "inputs": [],
      "name": "fund",
      "outputs": [],
      "stateMutability": "payable",
      "type": "function"
    },
    {
      "inputs": [],
      "name": "getAllAssetsBalances",
      "outputs": [
        {
          "internalType": "uint256[]",
          "name": "",
          "type": "uint256[]"
        }
      ],
      "stateMutability": "view",
      "type": "function"
    },
    {
      "inputs": [],
      "name": "getAllAssetsPrices",
      "outputs": [
        {
          "internalType": "uint256[]",
          "name": "",
          "type": "uint256[]"
        }
      ],
      "stateMutability": "view",
      "type": "function"
    },
    {
      "inputs": [
        {
          "internalType": "address",
          "name": "_user",
          "type": "address"
        },
        {
          "internalType": "bytes32",
          "name": "_asset",
          "type": "bytes32"
        }
      ],
      "name": "getBalance",
      "outputs": [
        {
          "internalType": "uint256",
          "name": "",
          "type": "uint256"
        }
      ],
      "stateMutability": "view",
      "type": "function"
    },
    {
      "inputs": [],
      "name": "getDebt",
      "outputs": [
        {
          "internalType": "uint256",
          "name": "",
          "type": "uint256"
        }
      ],
      "stateMutability": "view",
      "type": "function"
    },
    {
      "inputs": [],
      "name": "getExchange",
      "outputs": [
        {
          "internalType": "contract IAssetsExchange",
          "name": "",
          "type": "address"
        }
      ],
      "stateMutability": "view",
      "type": "function"
    },
    {
      "inputs": [],
      "name": "getFullLoanStatus",
      "outputs": [
        {
          "internalType": "uint256[4]",
          "name": "",
          "type": "uint256[4]"
        }
      ],
      "stateMutability": "view",
      "type": "function"
    },
    {
      "inputs": [],
      "name": "getLTV",
      "outputs": [
        {
          "internalType": "uint256",
          "name": "",
          "type": "uint256"
        }
      ],
      "stateMutability": "view",
      "type": "function"
    },
    {
      "inputs": [],
      "name": "getLiquidationBonus",
      "outputs": [
        {
          "internalType": "uint256",
          "name": "",
          "type": "uint256"
        }
      ],
      "stateMutability": "view",
      "type": "function"
    },
    {
      "inputs": [],
      "name": "getMaxBlockTimestampDelay",
      "outputs": [
        {
          "internalType": "uint256",
          "name": "",
          "type": "uint256"
        }
      ],
      "stateMutability": "view",
      "type": "function"
    },
    {
      "inputs": [],
      "name": "getMaxDataTimestampDelay",
      "outputs": [
        {
          "internalType": "uint256",
          "name": "",
          "type": "uint256"
        }
      ],
      "stateMutability": "view",
      "type": "function"
    },
    {
      "inputs": [],
      "name": "getMaxLtv",
      "outputs": [
        {
          "internalType": "uint256",
          "name": "",
          "type": "uint256"
        }
      ],
      "stateMutability": "view",
      "type": "function"
    },
    {
      "inputs": [],
      "name": "getMinSelloutLtv",
      "outputs": [
        {
          "internalType": "uint256",
          "name": "",
          "type": "uint256"
        }
      ],
      "stateMutability": "view",
      "type": "function"
    },
    {
      "inputs": [],
      "name": "getPercentagePrecision",
      "outputs": [
        {
          "internalType": "uint256",
          "name": "",
          "type": "uint256"
        }
      ],
      "stateMutability": "view",
      "type": "function"
    },
    {
      "inputs": [],
      "name": "getPool",
      "outputs": [
        {
          "internalType": "contract Pool",
          "name": "",
          "type": "address"
        }
      ],
      "stateMutability": "view",
      "type": "function"
    },
    {
      "inputs": [],
      "name": "getPriceProvider1",
      "outputs": [
        {
          "internalType": "address",
          "name": "",
          "type": "address"
        }
      ],
      "stateMutability": "view",
      "type": "function"
    },
    {
      "inputs": [],
      "name": "getPriceProvider2",
      "outputs": [
        {
          "internalType": "address",
          "name": "",
          "type": "address"
        }
      ],
      "stateMutability": "view",
      "type": "function"
    },
    {
      "inputs": [],
      "name": "getTotalValue",
      "outputs": [
        {
          "internalType": "uint256",
          "name": "",
          "type": "uint256"
        }
      ],
      "stateMutability": "view",
      "type": "function"
    },
    {
      "inputs": [],
      "name": "initialize",
      "outputs": [],
      "stateMutability": "nonpayable",
      "type": "function"
    },
    {
      "inputs": [
        {
          "internalType": "bytes32",
          "name": "_asset",
          "type": "bytes32"
        },
        {
          "internalType": "uint256",
          "name": "_exactERC20AmountOut",
          "type": "uint256"
        },
        {
          "internalType": "uint256",
          "name": "_maxAvaxAmountIn",
          "type": "uint256"
        }
      ],
      "name": "invest",
      "outputs": [],
      "stateMutability": "nonpayable",
      "type": "function"
    },
    {
      "inputs": [
        {
          "internalType": "address",
          "name": "_receivedSigner",
          "type": "address"
        }
      ],
      "name": "isSignerAuthorized",
      "outputs": [
        {
          "internalType": "bool",
          "name": "",
          "type": "bool"
        }
      ],
      "stateMutability": "view",
      "type": "function"
    },
    {
      "inputs": [],
      "name": "isSolvent",
      "outputs": [
        {
          "internalType": "bool",
          "name": "",
          "type": "bool"
        }
      ],
      "stateMutability": "view",
      "type": "function"
    },
    {
      "inputs": [
        {
          "internalType": "uint256",
          "name": "_receivedTimestamp",
          "type": "uint256"
        }
      ],
      "name": "isTimestampValid",
      "outputs": [
        {
          "internalType": "bool",
          "name": "",
          "type": "bool"
        }
      ],
      "stateMutability": "view",
      "type": "function"
    },
    {
      "inputs": [
        {
          "internalType": "uint256",
          "name": "repayAmount",
          "type": "uint256"
        }
      ],
      "name": "liquidateLoan",
      "outputs": [],
      "stateMutability": "payable",
      "type": "function"
    },
    {
      "inputs": [],
      "name": "owner",
      "outputs": [
        {
          "internalType": "address",
          "name": "",
          "type": "address"
        }
      ],
      "stateMutability": "view",
      "type": "function"
    },
    {
      "inputs": [
        {
          "internalType": "bytes32",
          "name": "_asset",
          "type": "bytes32"
        },
        {
          "internalType": "uint256",
          "name": "_exactERC20AmountIn",
          "type": "uint256"
        },
        {
          "internalType": "uint256",
          "name": "_minAvaxAmountOut",
          "type": "uint256"
        }
      ],
      "name": "redeem",
      "outputs": [],
      "stateMutability": "nonpayable",
      "type": "function"
    },
    {
      "inputs": [],
      "name": "renounceOwnership",
      "outputs": [],
      "stateMutability": "nonpayable",
      "type": "function"
    },
    {
      "inputs": [
        {
          "internalType": "uint256",
          "name": "_amount",
          "type": "uint256"
        }
      ],
      "name": "repay",
      "outputs": [],
      "stateMutability": "payable",
      "type": "function"
    },
    {
      "inputs": [
        {
          "internalType": "uint256",
          "name": "_newDebt",
          "type": "uint256"
        }
      ],
      "name": "setDebt",
      "outputs": [],
      "stateMutability": "nonpayable",
      "type": "function"
    },
    {
      "inputs": [
        {
          "internalType": "uint256",
          "name": "_newValue",
          "type": "uint256"
        }
      ],
      "name": "setValue",
      "outputs": [],
      "stateMutability": "nonpayable",
      "type": "function"
    },
    {
      "inputs": [
        {
          "internalType": "address",
          "name": "newOwner",
          "type": "address"
        }
      ],
      "name": "transferOwnership",
      "outputs": [],
      "stateMutability": "nonpayable",
      "type": "function"
    },
    {
      "inputs": [
        {
          "internalType": "uint256",
          "name": "_amount",
          "type": "uint256"
        }
      ],
      "name": "withdraw",
      "outputs": [],
      "stateMutability": "nonpayable",
      "type": "function"
    },
    {
      "inputs": [
        {
          "internalType": "bytes32",
          "name": "asset",
          "type": "bytes32"
        },
        {
          "internalType": "uint256",
          "name": "amount",
          "type": "uint256"
        }
      ],
      "name": "withdrawAsset",
      "outputs": [],
      "stateMutability": "nonpayable",
      "type": "function"
    },
    {
      "stateMutability": "payable",
      "type": "receive"
    }
  ],
  "bytecode": "0x608060405260008060006101000a81548160ff0219169083151502179055506103096097556103e760985534801561003657600080fd5b50614d8a806100466000396000f3fe60806040526004361061021e5760003560e01c80637505820511610123578063c5ebeaec116100ab578063d44e282b1161006f578063d44e282b1461072a578063d5f4728914610755578063f2fde38b14610780578063f31a210a146107a9578063f807cd22146107d457610225565b8063c5ebeaec14610654578063c79d5ec51461067d578063caa648b4146106ba578063ccdd9f5d146106e5578063d2b29d701461070157610225565b80638da5cb5b116100f25780638da5cb5b1461059e5780639ee90e0d146105c9578063a935310f146105f4578063b5dbd7f01461061f578063b60d42881461064a57610225565b806375058205146104f85780637dbf67a7146105355780638129fc1c1461055e5780638a027cb31461057557610225565b80634ed2b8ac116101a65780635524107711610175578063552410771461043757806359aa9e72146104605780635ce239501461048b5780636b6c92d9146104b6578063715018a6146104e157610225565b80634ed2b8ac1461038b5780634fcaf08f146103b65780635118af5a146103e157806352154a261461040c57610225565b806314a6bf0f116101ed57806314a6bf0f146102e6578063232fa733146103115780632802fdc81461031b5780632e1a7d4d14610346578063371fd8e61461036f57610225565b8063026b1d5f1461022a57806305d58c211461025557806311c89b101461027e578063132e1d39146102bb57610225565b3661022557005b600080fd5b34801561023657600080fd5b5061023f6107ff565b60405161024c9190613d7f565b60405180910390f35b34801561026157600080fd5b5061027c600480360381019061027791906135f6565b61081b565b005b34801561028a57600080fd5b506102a560048036038101906102a091906134fe565b610971565b6040516102b29190613c89565b60405180910390f35b3480156102c757600080fd5b506102d06109ed565b6040516102dd919061409a565b60405180910390f35b3480156102f257600080fd5b506102fb6109f7565b604051610308919061409a565b60405180910390f35b610319610a01565b005b34801561032757600080fd5b50610330610e14565b60405161033d9190613c08565b60405180910390f35b34801561035257600080fd5b5061036d60048036038101906103689190613681565b610e30565b005b61038960048036038101906103849190613681565b611008565b005b34801561039757600080fd5b506103a0611183565b6040516103ad919061409a565b60405180910390f35b3480156103c257600080fd5b506103cb6111fa565b6040516103d89190613c08565b60405180910390f35b3480156103ed57600080fd5b506103f6611216565b604051610403919061409a565b60405180910390f35b34801561041857600080fd5b50610421611220565b60405161042e919061409a565b60405180910390f35b34801561044357600080fd5b5061045e60048036038101906104599190613681565b61122a565b005b34801561046c57600080fd5b50610475611234565b604051610482919061409a565b60405180910390f35b34801561049757600080fd5b506104a061123d565b6040516104ad9190613c89565b60405180910390f35b3480156104c257600080fd5b506104cb611255565b6040516104d89190613c67565b60405180910390f35b3480156104ed57600080fd5b506104f6611410565b005b34801561050457600080fd5b5061051f600480360381019061051a9190613681565b611498565b60405161052c9190613c89565b60405180910390f35b34801561054157600080fd5b5061055c60048036038101906105579190613681565b611514565b005b34801561056a57600080fd5b5061057361151e565b005b34801561058157600080fd5b5061059c60048036038101906105979190613632565b611615565b005b3480156105aa57600080fd5b506105b36118a1565b6040516105c09190613c08565b60405180910390f35b3480156105d557600080fd5b506105de6118cb565b6040516105eb919061409a565b60405180910390f35b34801561060057600080fd5b506106096118da565b6040516106169190613c67565b60405180910390f35b34801561062b57600080fd5b50610634611979565b604051610641919061409a565b60405180910390f35b610652611983565b005b34801561066057600080fd5b5061067b60048036038101906106769190613681565b6119d5565b005b34801561068957600080fd5b506106a4600480360381019061069f9190613550565b611b5d565b6040516106b1919061409a565b60405180910390f35b3480156106c657600080fd5b506106cf611c84565b6040516106dc919061409a565b60405180910390f35b6106ff60048036038101906106fa9190613681565b611c8e565b005b34801561070d57600080fd5b5061072860048036038101906107239190613632565b611f08565b005b34801561073657600080fd5b5061073f612192565b60405161074c9190613c4c565b60405180910390f35b34801561076157600080fd5b5061076a6121ea565b6040516107779190613c67565b60405180910390f35b34801561078c57600080fd5b506107a760048036038101906107a291906134fe565b6121f9565b005b3480156107b557600080fd5b506107be6122f1565b6040516107cb919061409a565b60405180910390f35b3480156107e057600080fd5b506107e96122fa565b6040516107f69190613d64565b60405180910390f35b6000735ff1de6091871adaae64e2ec4fed754628482868905090565b610823612316565b73ffffffffffffffffffffffffffffffffffffffff166108416118a1565b73ffffffffffffffffffffffffffffffffffffffff1614610897576040517f08c379a000000000000000000000000000000000000000000000000000000000815260040161088e90613f7a565b60405180910390fd5b600260655414156108dd576040517f08c379a00000000000000000000000000000000000000000000000000000000081526004016108d49061407a565b60405180910390fd5b600260658190555060006108f08361231e565b905061091d33838373ffffffffffffffffffffffffffffffffffffffff166123c29092919063ffffffff16565b5061092661123d565b610965576040517f08c379a000000000000000000000000000000000000000000000000000000000815260040161095c90613f9a565b60405180910390fd5b60016065819055505050565b600061097b610e14565b73ffffffffffffffffffffffffffffffffffffffff168273ffffffffffffffffffffffffffffffffffffffff1614806109e657506109b76111fa565b73ffffffffffffffffffffffffffffffffffffffff168273ffffffffffffffffffffffffffffffffffffffff16145b9050919050565b60006103e8905090565b6000609754905090565b610a09612316565b73ffffffffffffffffffffffffffffffffffffffff16610a276118a1565b73ffffffffffffffffffffffffffffffffffffffff1614610a7d576040517f08c379a0000000000000000000000000000000000000000000000000000000008152600401610a7490613f7a565b60405180910390fd5b60026065541415610ac3576040517f08c379a0000000000000000000000000000000000000000000000000000000008152600401610aba9061407a565b60405180910390fd5b60026065819055506000610ad56122fa565b73ffffffffffffffffffffffffffffffffffffffff16632acada4d6040518163ffffffff1660e01b815260040160006040518083038186803b158015610b1a57600080fd5b505afa158015610b2e573d6000803e3d6000fd5b505050506040513d6000823e3d601f19601f82011682018060405250810190610b57919061358c565b905060005b8151811015610ca4576000610bb0838381518110610ba3577f4e487b7100000000000000000000000000000000000000000000000000000000600052603260045260246000fd5b602002602001015161231e565b73ffffffffffffffffffffffffffffffffffffffff166370a08231306040518263ffffffff1660e01b8152600401610be89190613c08565b60206040518083038186803b158015610c0057600080fd5b505afa158015610c14573d6000803e3d6000fd5b505050506040513d601f19601f82011682018060405250810190610c3891906136aa565b90506000811115610c9057610c8f838381518110610c7f577f4e487b7100000000000000000000000000000000000000000000000000000000600052603260045260246000fd5b60200260200101518260006124f8565b5b508080610c9c9061450e565b915050610b5c565b506000610caf6109f7565b905080471015610cf4576040517f08c379a0000000000000000000000000000000000000000000000000000000008152600401610ceb90613dfa565b60405180910390fd5b610cfd81611008565b7f4acb957de3799dd3d95bb7da6bcfbca6f5a33812d69ad37816ed87e79b6327d6814742604051610d3093929190614107565b60405180910390a160004790506000811115610dc057610d6f813373ffffffffffffffffffffffffffffffffffffffff166125d490919063ffffffff16565b3373ffffffffffffffffffffffffffffffffffffffff167f92ccf450a286a957af52509bc1c9939d1a6a481783e142e41e2499f0bb66ebc68242604051610db79291906140de565b60405180910390a25b505050610dcb61123d565b610e0a576040517f08c379a0000000000000000000000000000000000000000000000000000000008152600401610e0190613f9a565b60405180910390fd5b6001606581905550565b600073fe71e9691b9524bc932c23d0eed5c9ce41161884905090565b610e38612316565b73ffffffffffffffffffffffffffffffffffffffff16610e566118a1565b73ffffffffffffffffffffffffffffffffffffffff1614610eac576040517f08c379a0000000000000000000000000000000000000000000000000000000008152600401610ea390613f7a565b60405180910390fd5b60026065541415610ef2576040517f08c379a0000000000000000000000000000000000000000000000000000000008152600401610ee99061407a565b60405180910390fd5b600260658190555080471015610f3d576040517f08c379a0000000000000000000000000000000000000000000000000000000008152600401610f3490613efa565b60405180910390fd5b610f66813373ffffffffffffffffffffffffffffffffffffffff166125d490919063ffffffff16565b3373ffffffffffffffffffffffffffffffffffffffff167f92ccf450a286a957af52509bc1c9939d1a6a481783e142e41e2499f0bb66ebc68242604051610fae9291906140de565b60405180910390a2610fbe61123d565b610ffd576040517f08c379a0000000000000000000000000000000000000000000000000000000008152600401610ff490613f9a565b60405180910390fd5b600160658190555050565b61101061123d565b801561102d57506000151560008054906101000a900460ff161515145b156110725761103a6118a1565b73ffffffffffffffffffffffffffffffffffffffff163373ffffffffffffffffffffffffffffffffffffffff161461107157600080fd5b5b6110838161107e6109f7565b6126fa565b9050804710156110c8576040517f08c379a00000000000000000000000000000000000000000000000000000000081526004016110bf90613e1a565b60405180910390fd5b6110d06107ff565b73ffffffffffffffffffffffffffffffffffffffff1663402d8883826040518263ffffffff1660e01b81526004016000604051808303818588803b15801561111757600080fd5b505af115801561112b573d6000803e3d6000fd5b50505050503373ffffffffffffffffffffffffffffffffffffffff167f1b8cd61ed43bec7c6bdad3a18ffee613f99c853d16c50678d248d879e1b4343882426040516111789291906140de565b60405180910390a250565b60008061118e6109f7565b9050600061119a611c84565b905060008214156111b0576000925050506111f7565b808210156111ea5781816111c491906143c1565b6111cc6109ed565b836111d79190614367565b6111e191906142fa565b925050506111f7565b6111f2611979565b925050505b90565b6000733befdd935b50f172e696a5187dbacfef0d208e48905090565b600061012c905090565b6000610fa0905090565b8060988190555050565b60006064905090565b6000611247611979565b61124f611183565b10905090565b606060006112616122fa565b73ffffffffffffffffffffffffffffffffffffffff16632acada4d6040518163ffffffff1660e01b815260040160006040518083038186803b1580156112a657600080fd5b505afa1580156112ba573d6000803e3d6000fd5b505050506040513d6000823e3d601f19601f820116820180604052508101906112e3919061358c565b90506000815167ffffffffffffffff811115611328577f4e487b7100000000000000000000000000000000000000000000000000000000600052604160045260246000fd5b6040519080825280602002602001820160405280156113565781602001602082028036833780820191505090505b50905060005b8251811015611407576113af308483815181106113a2577f4e487b7100000000000000000000000000000000000000000000000000000000600052603260045260246000fd5b6020026020010151611b5d565b8282815181106113e8577f4e487b7100000000000000000000000000000000000000000000000000000000600052603260045260246000fd5b60200260200101818152505080806113ff9061450e565b91505061135c565b50809250505090565b611418612316565b73ffffffffffffffffffffffffffffffffffffffff166114366118a1565b73ffffffffffffffffffffffffffffffffffffffff161461148c576040517f08c379a000000000000000000000000000000000000000000000000000000000815260040161148390613f7a565b60405180910390fd5b6114966000612713565b565b6000816114a3611216565b426114ae91906142a4565b116114ee576040517f08c379a00000000000000000000000000000000000000000000000000000000081526004016114e590613ffa565b60405180910390fd5b8142108061150d57506114ff6122f1565b824261150b91906143c1565b105b9050919050565b8060978190555050565b600060029054906101000a900460ff1661154857600060019054906101000a900460ff1615611551565b6115506127d9565b5b611590576040517f08c379a000000000000000000000000000000000000000000000000000000000815260040161158790613f1a565b60405180910390fd5b60008060029054906101000a900460ff1615905080156115e1576001600060026101000a81548160ff0219169083151502179055506001600060016101000a81548160ff0219169083151502179055505b6115e96127ea565b6115f1612843565b80156116125760008060026101000a81548160ff0219169083151502179055505b50565b61161d612316565b73ffffffffffffffffffffffffffffffffffffffff1661163b6118a1565b73ffffffffffffffffffffffffffffffffffffffff1614611691576040517f08c379a000000000000000000000000000000000000000000000000000000000815260040161168890613f7a565b60405180910390fd5b600260655414156116d7576040517f08c379a00000000000000000000000000000000000000000000000000000000081526004016116ce9061407a565b60405180910390fd5b600260658190555080471015611722576040517f08c379a00000000000000000000000000000000000000000000000000000000081526004016117199061403a565b60405180910390fd5b600061172c6122fa565b73ffffffffffffffffffffffffffffffffffffffff16635d8874e98386866040518463ffffffff1660e01b8152600401611767929190613cbf565b6020604051808303818588803b15801561178057600080fd5b505af1158015611794573d6000803e3d6000fd5b50505050506040513d601f19601f820116820180604052508101906117b991906135cd565b9050806117fb576040517f08c379a00000000000000000000000000000000000000000000000000000000081526004016117f29061405a565b60405180910390fd5b833373ffffffffffffffffffffffffffffffffffffffff167f8c4f7b2f9ad7fde21c3ebf69d91938c2731761edd5820e45c17ea61d9c2ab90a85426040516118449291906140de565b60405180910390a35061185561123d565b611894576040517f08c379a000000000000000000000000000000000000000000000000000000000815260040161188b90613f9a565b60405180910390fd5b6001606581905550505050565b6000603360009054906101000a900473ffffffffffffffffffffffffffffffffffffffff16905090565b60006118d5611c84565b905090565b606060006118e66122fa565b73ffffffffffffffffffffffffffffffffffffffff16632acada4d6040518163ffffffff1660e01b815260040160006040518083038186803b15801561192b57600080fd5b505afa15801561193f573d6000803e3d6000fd5b505050506040513d6000823e3d601f19601f82011682018060405250810190611968919061358c565b90506119738161289c565b91505090565b6000611388905090565b3373ffffffffffffffffffffffffffffffffffffffff167fcd909ec339185c4598a4096e174308fbdf136d117f230960f873a2f2e81f63af34426040516119cb9291906140de565b60405180910390a2565b6119dd612316565b73ffffffffffffffffffffffffffffffffffffffff166119fb6118a1565b73ffffffffffffffffffffffffffffffffffffffff1614611a51576040517f08c379a0000000000000000000000000000000000000000000000000000000008152600401611a4890613f7a565b60405180910390fd5b611a596107ff565b73ffffffffffffffffffffffffffffffffffffffff1663c5ebeaec826040518263ffffffff1660e01b8152600401611a91919061409a565b600060405180830381600087803b158015611aab57600080fd5b505af1158015611abf573d6000803e3d6000fd5b505050503373ffffffffffffffffffffffffffffffffffffffff167feae9cfbc77fdd40ca899f36b608256063b2bc9d8178b0220f7ad513e178d67308242604051611b0b9291906140de565b60405180910390a2611b1b61123d565b611b5a576040517f08c379a0000000000000000000000000000000000000000000000000000000008152600401611b5190613f9a565b60405180910390fd5b50565b600080611b686122fa565b73ffffffffffffffffffffffffffffffffffffffff166376d02895846040518263ffffffff1660e01b8152600401611ba09190613ca4565b60206040518083038186803b158015611bb857600080fd5b505afa158015611bcc573d6000803e3d6000fd5b505050506040513d601f19601f82011682018060405250810190611bf09190613527565b90508073ffffffffffffffffffffffffffffffffffffffff166370a08231856040518263ffffffff1660e01b8152600401611c2b9190613c08565b60206040518083038186803b158015611c4357600080fd5b505afa158015611c57573d6000803e3d6000fd5b505050506040513d601f19601f82011682018060405250810190611c7b91906136aa565b91505092915050565b6000609854905090565b60026065541415611cd4576040517f08c379a0000000000000000000000000000000000000000000000000000000008152600401611ccb9061407a565b60405180910390fd5b6002606581905550611ce461123d565b15611d24576040517f08c379a0000000000000000000000000000000000000000000000000000000008152600401611d1b90613eba565b60405180910390fd5b60016000806101000a81548160ff0219169083151502179055506000611d486109f7565b905080821115611d56578091505b6000611d606109ed565b611d68611234565b84611d739190614367565b611d7d91906142fa565b905060008184611d8d91906142a4565b9050611d9881612a04565b611da184612b17565b611daa82612b2c565b3373ffffffffffffffffffffffffffffffffffffffff167f7abe212d4944ae75cf0a0477af92aa0db98c15aaf21d06c37c97c641427b8eb38584611dec611183565b42604051611dfd949392919061413e565b60405180910390a25050506000611e12611183565b9050611e1c6118a1565b73ffffffffffffffffffffffffffffffffffffffff163373ffffffffffffffffffffffffffffffffffffffff1614611e9957611e56611220565b811015611e98576040517f08c379a0000000000000000000000000000000000000000000000000000000008152600401611e8f90613f5a565b60405180910390fd5b5b611ea1611979565b8110611ee2576040517f08c379a0000000000000000000000000000000000000000000000000000000008152600401611ed990613e7a565b60405180910390fd5b60008060006101000a81548160ff02191690831515021790555050600160658190555050565b60026065541415611f4e576040517f08c379a0000000000000000000000000000000000000000000000000000000008152600401611f459061407a565b60405180910390fd5b6002606581905550611f5e612316565b73ffffffffffffffffffffffffffffffffffffffff16611f7c6118a1565b73ffffffffffffffffffffffffffffffffffffffff1614611fd2576040517f08c379a0000000000000000000000000000000000000000000000000000000008152600401611fc990613f7a565b60405180910390fd5b6000611fdd8461231e565b9050612011611fea6122fa565b848373ffffffffffffffffffffffffffffffffffffffff166123c29092919063ffffffff16565b600061201b6122fa565b73ffffffffffffffffffffffffffffffffffffffff166348eedd6b8686866040518463ffffffff1660e01b815260040161205793929190613ce8565b602060405180830381600087803b15801561207157600080fd5b505af1158015612085573d6000803e3d6000fd5b505050506040513d601f19601f820116820180604052508101906120a991906135cd565b9050806120eb576040517f08c379a00000000000000000000000000000000000000000000000000000000081526004016120e290613fba565b60405180910390fd5b843373ffffffffffffffffffffffffffffffffffffffff167fc95bd7ebbed9b9c3e9477753bcb60d02b328f1e5bce8b1a25986d6c73991c18286426040516121349291906140de565b60405180910390a3505061214661123d565b612185576040517f08c379a000000000000000000000000000000000000000000000000000000000815260040161217c90613f9a565b60405180910390fd5b6001606581905550505050565b61219a6133b3565b60405180608001604052806121ad611c84565b81526020016121ba6109f7565b81526020016121c7611183565b81526020016121d461123d565b6121df5760006121e2565b60015b815250905090565b60606121f46118da565b905090565b612201612316565b73ffffffffffffffffffffffffffffffffffffffff1661221f6118a1565b73ffffffffffffffffffffffffffffffffffffffff1614612275576040517f08c379a000000000000000000000000000000000000000000000000000000000815260040161226c90613f7a565b60405180910390fd5b600073ffffffffffffffffffffffffffffffffffffffff168173ffffffffffffffffffffffffffffffffffffffff1614156122e5576040517f08c379a00000000000000000000000000000000000000000000000000000000081526004016122dc90613e3a565b60405180910390fd5b6122ee81612713565b50565b600060b4905090565b6000730278438423f433e277f65d14c0e002b8828702ba905090565b600033905090565b6000806123296122fa565b73ffffffffffffffffffffffffffffffffffffffff166376d02895846040518263ffffffff1660e01b81526004016123619190613ca4565b60206040518083038186803b15801561237957600080fd5b505afa15801561238d573d6000803e3d6000fd5b505050506040513d601f19601f820116820180604052508101906123b19190613527565b905060008190508092505050919050565b6000808473ffffffffffffffffffffffffffffffffffffffff1663a9059cbb85856040516024016123f4929190613c23565b6040516020818303038152906040529060e01b6020820180517bffffffffffffffffffffffffffffffffffffffffffffffffffffffff83818316178352505050506040516124429190613bcb565b6000604051808303816000865af19150503d806000811461247f576040519150601f19603f3d011682016040523d82523d6000602084013e612484565b606091505b50915091508180156124b257506000815114806124b15750808060200190518101906124b091906135cd565b5b5b6124f1576040517f08c379a00000000000000000000000000000000000000000000000000000000081526004016124e89061401a565b60405180910390fd5b5050505050565b60006125038461231e565b90506125376125106122fa565b848373ffffffffffffffffffffffffffffffffffffffff166123c29092919063ffffffff16565b61253f6122fa565b73ffffffffffffffffffffffffffffffffffffffff166348eedd6b8585856040518463ffffffff1660e01b815260040161257b93929190613ce8565b602060405180830381600087803b15801561259557600080fd5b505af11580156125a9573d6000803e3d6000fd5b505050506040513d601f19601f820116820180604052508101906125cd91906135cd565b5050505050565b60008273ffffffffffffffffffffffffffffffffffffffff1682600067ffffffffffffffff81111561262f577f4e487b7100000000000000000000000000000000000000000000000000000000600052604160045260246000fd5b6040519080825280601f01601f1916602001820160405280156126615781602001600182028036833780820191505090505b5060405161266f9190613bcb565b60006040518083038185875af1925050503d80600081146126ac576040519150601f19603f3d011682016040523d82523d6000602084013e6126b1565b606091505b50509050806126f5576040517f08c379a00000000000000000000000000000000000000000000000000000000081526004016126ec90613e9a565b60405180910390fd5b505050565b6000818310612709578161270b565b825b905092915050565b6000603360009054906101000a900473ffffffffffffffffffffffffffffffffffffffff16905081603360006101000a81548173ffffffffffffffffffffffffffffffffffffffff021916908373ffffffffffffffffffffffffffffffffffffffff1602179055508173ffffffffffffffffffffffffffffffffffffffff168173ffffffffffffffffffffffffffffffffffffffff167f8be0079c531659141344cd1fd0a4f28419497f9722a3daafe3b4186f6b6457e060405160405180910390a35050565b60006127e430612b61565b15905090565b600060029054906101000a900460ff16612839576040517f08c379a000000000000000000000000000000000000000000000000000000000815260040161283090613fda565b60405180910390fd5b612841612b84565b565b600060029054906101000a900460ff16612892576040517f08c379a000000000000000000000000000000000000000000000000000000000815260040161288990613fda565b60405180910390fd5b61289a612be5565b565b60606000606136033590506000602060408360ff166128bb919061432b565b6128c5919061426c565b905060606040519050818152816042830136036020830137602081016040526000818051906020012090506000816040516020016129039190613be2565b60405160208183030381529060405280519060200120905060606040519050604181526041803603602083013760208101604052600061294c8284612c3e90919063ffffffff16565b905061295781610971565b612996576040517f08c379a000000000000000000000000000000000000000000000000000000000815260040161298d90613e5a565b60405180910390fd5b6000606236033590506129a881611498565b6129e7576040517f08c379a00000000000000000000000000000000000000000000000000000000081526004016129de90613dda565b60405180910390fd5b6129f58a8960ff1689612c65565b98505050505050505050919050565b6000612a0e6122fa565b73ffffffffffffffffffffffffffffffffffffffff16632acada4d6040518163ffffffff1660e01b815260040160006040518083038186803b158015612a5357600080fd5b505afa158015612a67573d6000803e3d6000fd5b505050506040513d6000823e3d601f19601f82011682018060405250810190612a90919061358c565b905060005b8151811015612b1257824710612aaa57612b12565b612aff828281518110612ae6577f4e487b7100000000000000000000000000000000000000000000000000000000600052603260045260246000fd5b60200260200101514785612afa91906143c1565b612d0b565b8080612b0a9061450e565b915050612a95565b505050565b612b29612b2447836126fa565b611008565b50565b612b5e612b3982476126fa565b3373ffffffffffffffffffffffffffffffffffffffff166125d490919063ffffffff16565b50565b6000808273ffffffffffffffffffffffffffffffffffffffff163b119050919050565b600060029054906101000a900460ff16612bd3576040517f08c379a0000000000000000000000000000000000000000000000000000000008152600401612bca90613fda565b60405180910390fd5b612be3612bde612316565b612713565b565b600060029054906101000a900460ff16612c34576040517f08c379a0000000000000000000000000000000000000000000000000000000008152600401612c2b90613fda565b60405180910390fd5b6001606581905550565b6000806000612c4d8585612e73565b91509150612c5a81612ef6565b819250505092915050565b6060806000806000806042870136035995508951865260208a51026020870101604052600094505b88851015612cfb57604085028101359150600093505b8951841015612cf057816020850260208c0101511415612cd85760206040860282010135602085026020880101526001830192505b8951831415612ce5578894505b600184019350612ca3565b600185019450612c8d565b5084955050505050509392505050565b6000612d168361231e565b905060008173ffffffffffffffffffffffffffffffffffffffff166370a08231306040518263ffffffff1660e01b8152600401612d539190613c08565b60206040518083038186803b158015612d6b57600080fd5b505afa158015612d7f573d6000803e3d6000fd5b505050506040513d601f19601f82011682018060405250810190612da391906136aa565b90506000811115612e6d576000612db86122fa565b73ffffffffffffffffffffffffffffffffffffffff16639ac34dd385856040518363ffffffff1660e01b8152600401612df29291906140b5565b602060405180830381600087803b158015612e0c57600080fd5b505af1158015612e20573d6000803e3d6000fd5b505050506040513d601f19601f82011682018060405250810190612e4491906136aa565b905080821015612e5f57612e5a858360006124f8565b612e6b565b612e6a8582866124f8565b5b505b50505050565b600080604183511415612eb55760008060006020860151925060408601519150606086015160001a9050612ea987828585613247565b94509450505050612eef565b604083511415612ee6576000806020850151915060408501519050612edb868383613354565b935093505050612eef565b60006002915091505b9250929050565b60006004811115612f30577f4e487b7100000000000000000000000000000000000000000000000000000000600052602160045260246000fd5b816004811115612f69577f4e487b7100000000000000000000000000000000000000000000000000000000600052602160045260246000fd5b1415612f7457613244565b60016004811115612fae577f4e487b7100000000000000000000000000000000000000000000000000000000600052602160045260246000fd5b816004811115612fe7577f4e487b7100000000000000000000000000000000000000000000000000000000600052602160045260246000fd5b1415613028576040517f08c379a000000000000000000000000000000000000000000000000000000000815260040161301f90613d9a565b60405180910390fd5b60026004811115613062577f4e487b7100000000000000000000000000000000000000000000000000000000600052602160045260246000fd5b81600481111561309b577f4e487b7100000000000000000000000000000000000000000000000000000000600052602160045260246000fd5b14156130dc576040517f08c379a00000000000000000000000000000000000000000000000000000000081526004016130d390613dba565b60405180910390fd5b60036004811115613116577f4e487b7100000000000000000000000000000000000000000000000000000000600052602160045260246000fd5b81600481111561314f577f4e487b7100000000000000000000000000000000000000000000000000000000600052602160045260246000fd5b1415613190576040517f08c379a000000000000000000000000000000000000000000000000000000000815260040161318790613eda565b60405180910390fd5b6004808111156131c9577f4e487b7100000000000000000000000000000000000000000000000000000000600052602160045260246000fd5b816004811115613202577f4e487b7100000000000000000000000000000000000000000000000000000000600052602160045260246000fd5b1415613243576040517f08c379a000000000000000000000000000000000000000000000000000000000815260040161323a90613f3a565b60405180910390fd5b5b50565b6000807f7fffffffffffffffffffffffffffffff5d576e7357a4501ddfe92f46681b20a08360001c111561328257600060039150915061334b565b601b8560ff161415801561329a5750601c8560ff1614155b156132ac57600060049150915061334b565b6000600187878787604051600081526020016040526040516132d19493929190613d1f565b6020604051602081039080840390855afa1580156132f3573d6000803e3d6000fd5b505050602060405103519050600073ffffffffffffffffffffffffffffffffffffffff168173ffffffffffffffffffffffffffffffffffffffff1614156133425760006001925092505061334b565b80600092509250505b94509492505050565b60008060007f7fffffffffffffffffffffffffffffffffffffffffffffffffffffffffffffff60001b841690506000601b60ff8660001c901c61339791906142a4565b90506133a587828885613247565b935093505050935093915050565b6040518060800160405280600490602082028036833780820191505090505090565b60006133e86133e3846141a8565b614183565b9050808382526020820190508285602086028201111561340757600080fd5b60005b85811015613437578161341d88826134bf565b84526020840193506020830192505060018101905061340a565b5050509392505050565b60008135905061345081614cf8565b92915050565b60008151905061346581614cf8565b92915050565b600082601f83011261347c57600080fd5b815161348c8482602086016133d5565b91505092915050565b6000815190506134a481614d0f565b92915050565b6000813590506134b981614d26565b92915050565b6000815190506134ce81614d26565b92915050565b6000813590506134e381614d3d565b92915050565b6000815190506134f881614d3d565b92915050565b60006020828403121561351057600080fd5b600061351e84828501613441565b91505092915050565b60006020828403121561353957600080fd5b600061354784828501613456565b91505092915050565b6000806040838503121561356357600080fd5b600061357185828601613441565b9250506020613582858286016134aa565b9150509250929050565b60006020828403121561359e57600080fd5b600082015167ffffffffffffffff8111156135b857600080fd5b6135c48482850161346b565b91505092915050565b6000602082840312156135df57600080fd5b60006135ed84828501613495565b91505092915050565b6000806040838503121561360957600080fd5b6000613617858286016134aa565b9250506020613628858286016134d4565b9150509250929050565b60008060006060848603121561364757600080fd5b6000613655868287016134aa565b9350506020613666868287016134d4565b9250506040613677868287016134d4565b9150509250925092565b60006020828403121561369357600080fd5b60006136a1848285016134d4565b91505092915050565b6000602082840312156136bc57600080fd5b60006136ca848285016134e9565b91505092915050565b60006136df8383613b9e565b60208301905092915050565b6136f4816143f5565b82525050565b613703816141ee565b61370d8184614229565b9250613718826141d4565b8060005b8381101561374957815161373087826136d3565b965061373b8361420f565b92505060018101905061371c565b505050505050565b600061375c826141f9565b6137668185614234565b9350613771836141de565b8060005b838110156137a257815161378988826136d3565b97506137948361421c565b925050600181019050613775565b5085935050505092915050565b6137b881614407565b82525050565b6137c781614413565b82525050565b6137de6137d982614413565b614557565b82525050565b60006137ef82614204565b6137f98185614245565b93506138098185602086016144aa565b80840191505092915050565b61381e81614462565b82525050565b61382d81614486565b82525050565b6000613840601883614250565b915061384b826145ff565b602082019050919050565b6000613863601f83614250565b915061386e82614628565b602082019050919050565b6000613886601c83614261565b915061389182614651565b601c82019050919050565b60006138a9601983614250565b91506138b48261467a565b602082019050919050565b60006138cc604583614250565b91506138d7826146a3565b606082019050919050565b60006138ef602b83614250565b91506138fa82614718565b604082019050919050565b6000613912602683614250565b915061391d82614767565b604082019050919050565b6000613935601583614250565b9150613940826147b6565b602082019050919050565b6000613958604c83614250565b9150613963826147df565b606082019050919050565b600061397b603483614250565b915061398682614854565b604082019050919050565b600061399e602083614250565b91506139a9826148a3565b602082019050919050565b60006139c1602283614250565b91506139cc826148cc565b604082019050919050565b60006139e4602583614250565b91506139ef8261491b565b604082019050919050565b6000613a07602e83614250565b9150613a128261496a565b604082019050919050565b6000613a2a602283614250565b9150613a35826149b9565b604082019050919050565b6000613a4d609283614250565b9150613a5882614a08565b60a082019050919050565b6000613a70602083614250565b9150613a7b82614ac9565b602082019050919050565b6000613a93603383614250565b9150613a9e82614af2565b604082019050919050565b6000613ab6601183614250565b9150613ac182614b41565b602082019050919050565b6000613ad9602b83614250565b9150613ae482614b6a565b604082019050919050565b6000613afc602a83614250565b9150613b0782614bb9565b604082019050919050565b6000613b1f602d83614250565b9150613b2a82614c08565b604082019050919050565b6000613b42603483614250565b9150613b4d82614c57565b604082019050919050565b6000613b65601183614250565b9150613b7082614ca6565b602082019050919050565b6000613b88601f83614250565b9150613b9382614ccf565b602082019050919050565b613ba78161444b565b82525050565b613bb68161444b565b82525050565b613bc581614455565b82525050565b6000613bd782846137e4565b915081905092915050565b6000613bed82613879565b9150613bf982846137cd565b60208201915081905092915050565b6000602082019050613c1d60008301846136eb565b92915050565b6000604082019050613c3860008301856136eb565b613c456020830184613bad565b9392505050565b6000608082019050613c6160008301846136fa565b92915050565b60006020820190508181036000830152613c818184613751565b905092915050565b6000602082019050613c9e60008301846137af565b92915050565b6000602082019050613cb960008301846137be565b92915050565b6000604082019050613cd460008301856137be565b613ce16020830184613bad565b9392505050565b6000606082019050613cfd60008301866137be565b613d0a6020830185613bad565b613d176040830184613bad565b949350505050565b6000608082019050613d3460008301876137be565b613d416020830186613bbc565b613d4e60408301856137be565b613d5b60608301846137be565b95945050505050565b6000602082019050613d796000830184613815565b92915050565b6000602082019050613d946000830184613824565b92915050565b60006020820190508181036000830152613db381613833565b9050919050565b60006020820190508181036000830152613dd381613856565b9050919050565b60006020820190508181036000830152613df38161389c565b9050919050565b60006020820190508181036000830152613e13816138bf565b9050919050565b60006020820190508181036000830152613e33816138e2565b9050919050565b60006020820190508181036000830152613e5381613905565b9050919050565b60006020820190508181036000830152613e7381613928565b9050919050565b60006020820190508181036000830152613e938161394b565b9050919050565b60006020820190508181036000830152613eb38161396e565b9050919050565b60006020820190508181036000830152613ed381613991565b9050919050565b60006020820190508181036000830152613ef3816139b4565b9050919050565b60006020820190508181036000830152613f13816139d7565b9050919050565b60006020820190508181036000830152613f33816139fa565b9050919050565b60006020820190508181036000830152613f5381613a1d565b9050919050565b60006020820190508181036000830152613f7381613a40565b9050919050565b60006020820190508181036000830152613f9381613a63565b9050919050565b60006020820190508181036000830152613fb381613a86565b9050919050565b60006020820190508181036000830152613fd381613aa9565b9050919050565b60006020820190508181036000830152613ff381613acc565b9050919050565b6000602082019050818103600083015261401381613aef565b9050919050565b6000602082019050818103600083015261403381613b12565b9050919050565b6000602082019050818103600083015261405381613b35565b9050919050565b6000602082019050818103600083015261407381613b58565b9050919050565b6000602082019050818103600083015261409381613b7b565b9050919050565b60006020820190506140af6000830184613bad565b92915050565b60006040820190506140ca6000830185613bad565b6140d760208301846136eb565b9392505050565b60006040820190506140f36000830185613bad565b6141006020830184613bad565b9392505050565b600060608201905061411c6000830186613bad565b6141296020830185613bad565b6141366040830184613bad565b949350505050565b60006080820190506141536000830187613bad565b6141606020830186613bad565b61416d6040830185613bad565b61417a6060830184613bad565b95945050505050565b600061418d61419e565b905061419982826144dd565b919050565b6000604051905090565b600067ffffffffffffffff8211156141c3576141c26145bf565b5b602082029050602081019050919050565b6000819050919050565b6000819050602082019050919050565b600060049050919050565b600081519050919050565b600081519050919050565b6000602082019050919050565b6000602082019050919050565b600081905092915050565b600082825260208201905092915050565b600081905092915050565b600082825260208201905092915050565b600081905092915050565b60006142778261441d565b91506142828361441d565b92508261ffff0382111561429957614298614561565b5b828201905092915050565b60006142af8261444b565b91506142ba8361444b565b9250827fffffffffffffffffffffffffffffffffffffffffffffffffffffffffffffffff038211156142ef576142ee614561565b5b828201905092915050565b60006143058261444b565b91506143108361444b565b9250826143205761431f614590565b5b828204905092915050565b60006143368261441d565b91506143418361441d565b92508161ffff048311821515161561435c5761435b614561565b5b828202905092915050565b60006143728261444b565b915061437d8361444b565b9250817fffffffffffffffffffffffffffffffffffffffffffffffffffffffffffffffff04831182151516156143b6576143b5614561565b5b828202905092915050565b60006143cc8261444b565b91506143d78361444b565b9250828210156143ea576143e9614561565b5b828203905092915050565b60006144008261442b565b9050919050565b60008115159050919050565b6000819050919050565b600061ffff82169050919050565b600073ffffffffffffffffffffffffffffffffffffffff82169050919050565b6000819050919050565b600060ff82169050919050565b600061446d82614474565b9050919050565b600061447f8261442b565b9050919050565b600061449182614498565b9050919050565b60006144a38261442b565b9050919050565b60005b838110156144c85780820151818401526020810190506144ad565b838111156144d7576000848401525b50505050565b6144e6826145ee565b810181811067ffffffffffffffff82111715614505576145046145bf565b5b80604052505050565b60006145198261444b565b91507fffffffffffffffffffffffffffffffffffffffffffffffffffffffffffffffff82141561454c5761454b614561565b5b600182019050919050565b6000819050919050565b7f4e487b7100000000000000000000000000000000000000000000000000000000600052601160045260246000fd5b7f4e487b7100000000000000000000000000000000000000000000000000000000600052601260045260246000fd5b7f4e487b7100000000000000000000000000000000000000000000000000000000600052604160045260246000fd5b6000601f19601f8301169050919050565b7f45434453413a20696e76616c6964207369676e61747572650000000000000000600082015250565b7f45434453413a20696e76616c6964207369676e6174757265206c656e67746800600082015250565b7f19457468657265756d205369676e6564204d6573736167653a0a333200000000600082015250565b7f446174612074696d657374616d7020697320696e76616c696400000000000000600082015250565b7f53656c6c696e67206f757420616c6c2061737365747320776974686f7574207260008201527f65706179696e67207468652077686f6c652064656274206973206e6f7420616c60208201527f6c6f776564000000000000000000000000000000000000000000000000000000604082015250565b7f5468657265206973206e6f7420656e6f7567682066756e647320746f2072657060008201527f617920746865206c6f616e000000000000000000000000000000000000000000602082015250565b7f4f776e61626c653a206e6577206f776e657220697320746865207a65726f206160008201527f6464726573730000000000000000000000000000000000000000000000000000602082015250565b7f5369676e6572206e6f7420617574686f72697a65640000000000000000000000600082015250565b7f54686973206f7065726174696f6e20776f756c64206e6f7420726573756c742060008201527f696e206272696e67696e6720746865206c6f616e206261636b20746f2061207360208201527f6f6c76656e742073746174650000000000000000000000000000000000000000604082015250565b7f5472616e7366657248656c7065723a3a736166655472616e736665724554483a60008201527f20455448207472616e73666572206661696c6564000000000000000000000000602082015250565b7f43616e6e6f742073656c6c6f7574206120736f6c76656e74206163636f756e74600082015250565b7f45434453413a20696e76616c6964207369676e6174757265202773272076616c60008201527f7565000000000000000000000000000000000000000000000000000000000000602082015250565b7f5468657265206973206e6f7420656e6f7567682066756e647320746f2077697460008201527f6864726177000000000000000000000000000000000000000000000000000000602082015250565b7f496e697469616c697a61626c653a20636f6e747261637420697320616c72656160008201527f647920696e697469616c697a6564000000000000000000000000000000000000602082015250565b7f45434453413a20696e76616c6964207369676e6174757265202776272076616c60008201527f7565000000000000000000000000000000000000000000000000000000000000602082015250565b7f54686973206f7065726174696f6e20776f756c6420726573756c7420696e206160008201527f206c6f616e2077697468204c5456206c6f776572207468616e204d696e696d6160208201527f6c2053656c6c6f7574204c545620776869636820776f756c6420707574206c6f60408201527f616e2773206f776e657220696e2061207269736b206f6620616e20756e6e656360608201527f6573736172696c792068696768206c6f73730000000000000000000000000000608082015250565b7f4f776e61626c653a2063616c6c6572206973206e6f7420746865206f776e6572600082015250565b7f54686520616374696f6e206d617920636175736520616e206163636f756e742060008201527f746f206265636f6d6520696e736f6c76656e7400000000000000000000000000602082015250565b7f526564656d7074696f6e206661696c6564000000000000000000000000000000600082015250565b7f496e697469616c697a61626c653a20636f6e7472616374206973206e6f74206960008201527f6e697469616c697a696e67000000000000000000000000000000000000000000602082015250565b7f446174612077697468206675747572652074696d657374616d7073206973206e60008201527f6f7420616c6c6f77656400000000000000000000000000000000000000000000602082015250565b7f5472616e7366657248656c7065723a3a736166655472616e736665723a20747260008201527f616e73666572206661696c656400000000000000000000000000000000000000602082015250565b7f4e6f7420656e6f7567682066756e64732061726520617661696c61626c65207460008201527f6f20696e7665737420696e20616e206173736574000000000000000000000000602082015250565b7f496e766573746d656e74206661696c6564000000000000000000000000000000600082015250565b7f5265656e7472616e637947756172643a207265656e7472616e742063616c6c00600082015250565b614d01816143f5565b8114614d0c57600080fd5b50565b614d1881614407565b8114614d2357600080fd5b50565b614d2f81614413565b8114614d3a57600080fd5b50565b614d468161444b565b8114614d5157600080fd5b5056fea264697066735822122048068d9b3847ead0564b0a4812f0160202a75c5afcfd41e9b5cbf0d3d04fe16964736f6c63430008040033",
  "linkReferences": {},
  "deployedLinkReferences": {}
}