{
  "_format": "hh-sol-artifact-1",
  "contractName": "OpenBorrowersRegistry",
  "sourceName": "contracts/mock/OpenBorrowersRegistry.sol",
  "abi": [
    {
      "inputs": [
        {
          "internalType": "address",
          "name": "_account",
          "type": "address"
        }
      ],
      "name": "canBorrow",
      "outputs": [
        {
          "internalType": "bool",
          "name": "",
          "type": "bool"
        }
      ],
      "stateMutability": "pure",
      "type": "function"
    },
    {
      "inputs": [
        {
          "internalType": "address",
          "name": "_user",
          "type": "address"
        }
      ],
      "name": "getLoanForOwner",
      "outputs": [
        {
          "internalType": "address",
          "name": "",
          "type": "address"
        }
      ],
      "stateMutability": "pure",
      "type": "function"
    },
    {
      "inputs": [
        {
          "internalType": "address",
          "name": "_loan",
          "type": "address"
        }
      ],
      "name": "getOwnerOfLoan",
      "outputs": [
        {
          "internalType": "address",
          "name": "",
          "type": "address"
        }
      ],
      "stateMutability": "pure",
      "type": "function"
    }
  ],
  "bytecode": "0x608060405234801561001057600080fd5b5061020c806100206000396000f3fe608060405234801561001057600080fd5b50600436106100415760003560e01c80630e7fc864146100465780633344a555146100765780635b012546146100a6575b600080fd5b610060600480360381019061005b9190610104565b6100d6565b60405161006d9190610166565b60405180910390f35b610090600480360381019061008b9190610104565b6100e1565b60405161009d919061014b565b60405180910390f35b6100c060048036038101906100bb9190610104565b6100e8565b6040516100cd919061014b565b60405180910390f35b600060019050919050565b6000919050565b6000919050565b6000813590506100fe816101bf565b92915050565b60006020828403121561011657600080fd5b6000610124848285016100ef565b91505092915050565b61013681610181565b82525050565b61014581610193565b82525050565b6000602082019050610160600083018461012d565b92915050565b600060208201905061017b600083018461013c565b92915050565b600061018c8261019f565b9050919050565b60008115159050919050565b600073ffffffffffffffffffffffffffffffffffffffff82169050919050565b6101c881610181565b81146101d357600080fd5b5056fea26469706673582212204bcb2024e053de4d62db2b88ad70c142ee5d6256eda2a170b7712972c384052b64736f6c63430008040033",
  "linkReferences": {},
  "deployedLinkReferences": {}
}