{
  "address": "0x1D84e285E6E09e6506312Cb62d78618360056c0f",
  "abi": [
    {
      "inputs": [],
      "name": "CalldataMustHaveValidPayload",
      "type": "error"
    },
    {
      "inputs": [],
      "name": "CalldataOverOrUnderFlow",
      "type": "error"
    },
    {
      "inputs": [],
      "name": "EachSignerMustProvideTheSameValue",
      "type": "error"
    },
    {
      "inputs": [],
      "name": "EmptyCalldataPointersArr",
      "type": "error"
    },
    {
      "inputs": [],
      "name": "IncorrectUnsignedMetadataSize",
      "type": "error"
    },
    {
      "inputs": [
        {
          "internalType": "uint256",
          "name": "receviedSignersCount",
          "type": "uint256"
        },
        {
          "internalType": "uint256",
          "name": "requiredSignersCount",
          "type": "uint256"
        }
      ],
      "name": "InsufficientNumberOfUniqueSigners",
      "type": "error"
    },
    {
      "inputs": [],
      "name": "InvalidCalldataPointer",
      "type": "error"
    },
    {
      "inputs": [
        {
          "internalType": "bytes",
          "name": "result",
          "type": "bytes"
        }
      ],
      "name": "ProxyCalldataFailedWithCustomError",
      "type": "error"
    },
    {
      "inputs": [
        {
          "internalType": "string",
          "name": "message",
          "type": "string"
        }
      ],
      "name": "ProxyCalldataFailedWithStringMessage",
      "type": "error"
    },
    {
      "inputs": [],
      "name": "ProxyCalldataFailedWithoutErrMsg",
      "type": "error"
    },
    {
      "inputs": [
        {
          "internalType": "address",
          "name": "receivedSigner",
          "type": "address"
        }
      ],
      "name": "SignerNotAuthorised",
      "type": "error"
    },
    {
      "anonymous": false,
      "inputs": [
        {
          "indexed": true,
          "internalType": "address",
          "name": "user",
          "type": "address"
        },
        {
          "indexed": true,
          "internalType": "bytes32",
          "name": "asset",
          "type": "bytes32"
        },
        {
          "indexed": false,
          "internalType": "uint256",
          "name": "amount",
          "type": "uint256"
        },
        {
          "indexed": false,
          "internalType": "uint256",
          "name": "timestamp",
          "type": "uint256"
        }
      ],
      "name": "Borrowed",
      "type": "event"
    },
    {
      "anonymous": false,
      "inputs": [
        {
          "indexed": true,
          "internalType": "address",
          "name": "user",
          "type": "address"
        },
        {
          "indexed": true,
          "internalType": "bytes32",
          "name": "asset",
          "type": "bytes32"
        },
        {
          "indexed": false,
          "internalType": "uint256",
          "name": "amount",
          "type": "uint256"
        },
        {
          "indexed": false,
          "internalType": "uint256",
          "name": "timestamp",
          "type": "uint256"
        }
      ],
      "name": "Funded",
      "type": "event"
    },
    {
      "anonymous": false,
      "inputs": [
        {
          "indexed": true,
          "internalType": "address",
          "name": "user",
          "type": "address"
        },
        {
          "indexed": true,
          "internalType": "bytes32",
          "name": "asset",
          "type": "bytes32"
        },
        {
          "indexed": false,
          "internalType": "uint256",
          "name": "amount",
          "type": "uint256"
        },
        {
          "indexed": false,
          "internalType": "uint256",
          "name": "timestamp",
          "type": "uint256"
        }
      ],
      "name": "Repaid",
      "type": "event"
    },
    {
      "anonymous": false,
      "inputs": [
        {
          "indexed": true,
          "internalType": "address",
          "name": "user",
          "type": "address"
        },
        {
          "indexed": true,
          "internalType": "bytes32",
          "name": "asset",
          "type": "bytes32"
        },
        {
          "indexed": false,
          "internalType": "uint256",
          "name": "amount",
          "type": "uint256"
        },
        {
          "indexed": false,
          "internalType": "uint256",
          "name": "timestamp",
          "type": "uint256"
        }
      ],
      "name": "Withdrawn",
      "type": "event"
    },
    {
      "inputs": [
        {
          "internalType": "bytes32[]",
          "name": "assetsToRepay",
          "type": "bytes32[]"
        }
      ],
      "name": "_getAllPricesForLiquidation",
      "outputs": [
        {
          "components": [
            {
              "components": [
                {
                  "internalType": "bytes32",
                  "name": "asset",
                  "type": "bytes32"
                },
                {
                  "internalType": "uint256",
                  "name": "price",
                  "type": "uint256"
                }
              ],
              "internalType": "struct SolvencyFacetProd.AssetPrice[]",
              "name": "ownedAssetsPrices",
              "type": "tuple[]"
            },
            {
              "components": [
                {
                  "internalType": "bytes32",
                  "name": "asset",
                  "type": "bytes32"
                },
                {
                  "internalType": "uint256",
                  "name": "price",
                  "type": "uint256"
                }
              ],
              "internalType": "struct SolvencyFacetProd.AssetPrice[]",
              "name": "debtAssetsPrices",
              "type": "tuple[]"
            },
            {
              "components": [
                {
                  "internalType": "bytes32",
                  "name": "asset",
                  "type": "bytes32"
                },
                {
                  "internalType": "uint256",
                  "name": "price",
                  "type": "uint256"
                }
              ],
              "internalType": "struct SolvencyFacetProd.AssetPrice[]",
              "name": "stakedPositionsPrices",
              "type": "tuple[]"
            },
            {
              "components": [
                {
                  "internalType": "bytes32",
                  "name": "asset",
                  "type": "bytes32"
                },
                {
                  "internalType": "uint256",
                  "name": "price",
                  "type": "uint256"
                }
              ],
              "internalType": "struct SolvencyFacetProd.AssetPrice[]",
              "name": "assetsToRepayPrices",
              "type": "tuple[]"
            }
          ],
          "internalType": "struct SolvencyFacetProd.CachedPrices",
          "name": "result",
          "type": "tuple"
        }
      ],
      "stateMutability": "nonpayable",
      "type": "function"
    },
    {
      "inputs": [],
      "name": "_getHealthRatio",
      "outputs": [
        {
          "internalType": "uint256",
          "name": "health",
          "type": "uint256"
        }
      ],
      "stateMutability": "nonpayable",
      "type": "function"
    },
    {
      "inputs": [
        {
          "components": [
            {
              "internalType": "bytes32",
              "name": "asset",
              "type": "bytes32"
            },
            {
              "internalType": "uint256",
              "name": "price",
              "type": "uint256"
            }
          ],
          "internalType": "struct SolvencyFacetProd.AssetPrice[]",
          "name": "ownedAssetsPrices",
          "type": "tuple[]"
        },
        {
          "components": [
            {
              "internalType": "bytes32",
              "name": "asset",
              "type": "bytes32"
            },
            {
              "internalType": "uint256",
              "name": "price",
              "type": "uint256"
            }
          ],
          "internalType": "struct SolvencyFacetProd.AssetPrice[]",
          "name": "debtAssetsPrices",
          "type": "tuple[]"
        },
        {
          "components": [
            {
              "internalType": "bytes32",
              "name": "asset",
              "type": "bytes32"
            },
            {
              "internalType": "uint256",
              "name": "price",
              "type": "uint256"
            }
          ],
          "internalType": "struct SolvencyFacetProd.AssetPrice[]",
          "name": "stakedPositionsPrices",
          "type": "tuple[]"
        }
      ],
      "name": "_getHealthRatioWithPrices",
      "outputs": [
        {
          "internalType": "uint256",
          "name": "health",
          "type": "uint256"
        }
      ],
      "stateMutability": "nonpayable",
      "type": "function"
    },
    {
      "inputs": [
        {
          "internalType": "bytes32",
          "name": "_asset",
          "type": "bytes32"
        },
        {
          "internalType": "uint256",
          "name": "_amount",
          "type": "uint256"
        }
      ],
      "name": "borrow",
      "outputs": [],
      "stateMutability": "nonpayable",
      "type": "function"
    },
    {
      "inputs": [
        {
          "internalType": "bytes32",
          "name": "_fundedAsset",
          "type": "bytes32"
        },
        {
          "internalType": "uint256",
          "name": "_amount",
          "type": "uint256"
        }
      ],
      "name": "fund",
      "outputs": [],
      "stateMutability": "nonpayable",
      "type": "function"
    },
    {
      "inputs": [
        {
          "internalType": "bytes32",
          "name": "symbol",
          "type": "bytes32"
        }
      ],
      "name": "getPrice",
      "outputs": [
        {
          "internalType": "uint256",
          "name": "price",
          "type": "uint256"
        }
      ],
      "stateMutability": "nonpayable",
      "type": "function"
    },
    {
      "inputs": [
        {
          "internalType": "bytes32[]",
          "name": "symbols",
          "type": "bytes32[]"
        }
      ],
      "name": "getPrices",
      "outputs": [
        {
          "internalType": "uint256[]",
          "name": "prices",
          "type": "uint256[]"
        }
      ],
      "stateMutability": "nonpayable",
      "type": "function"
    },
    {
      "inputs": [
        {
          "internalType": "bytes32",
          "name": "_asset",
          "type": "bytes32"
        },
        {
          "internalType": "uint256",
          "name": "_amount",
          "type": "uint256"
        }
      ],
      "name": "repay",
      "outputs": [],
      "stateMutability": "payable",
      "type": "function"
    },
    {
      "inputs": [
        {
          "internalType": "bytes32",
          "name": "_withdrawnAsset",
          "type": "bytes32"
        },
        {
          "internalType": "uint256",
          "name": "_amount",
          "type": "uint256"
        }
      ],
      "name": "withdraw",
      "outputs": [],
      "stateMutability": "nonpayable",
      "type": "function"
    }
  ],
  "transactionHash": "0x1a83e3dcf206025213f8833a009c7a0d2356435fb1e8490593e886aa1e789be3",
  "args": [],
  "numDeployments": 1,
  "solcInputHash": "df3ad5bdcd0ec16bf72ca3adff085c61",
  "bytecode": "0x608060405234801561001057600080fd5b506001600081905550613583806100286000396000f3fe6080604052600436106100855760003560e01c806339e2719e1161005957806339e2719e146101495780637c93ec30146101745780638f7ef1f51461019d578063b2d40e73146101da578063e46bbc9e1461021757610085565b8062f989ad1461008a578063040cf020146100a657806326ee4836146100cf57806331d98b3f1461010c575b600080fd5b6100a4600480360381019061009f9190611f5b565b610240565b005b3480156100b257600080fd5b506100cd60048036038101906100c89190611f5b565b6105cf565b005b3480156100db57600080fd5b506100f660048036038101906100f191906120f4565b6107ec565b60405161010391906121fb565b60405180910390f35b34801561011857600080fd5b50610133600480360381019061012e919061221d565b610896565b6040516101409190612259565b60405180910390f35b34801561015557600080fd5b5061015e610940565b60405161016b9190612259565b60405180910390f35b34801561018057600080fd5b5061019b60048036038101906101969190611f5b565b6109dd565b005b3480156101a957600080fd5b506101c460048036038101906101bf9190612391565b610c15565b6040516101d19190612259565b60405180910390f35b3480156101e657600080fd5b5061020160048036038101906101fc91906120f4565b610cc5565b60405161020e919061259d565b60405180910390f35b34801561022357600080fd5b5061023e60048036038101906102399190611f5b565b610d75565b005b600061024d836001610e94565b9050610257610f21565b1561026557610264610fbe565b5b600061026f611059565b73ffffffffffffffffffffffffffffffffffffffff16630edc25b6856040518263ffffffff1660e01b81526004016102a791906125ce565b602060405180830381865afa1580156102c4573d6000803e3d6000fd5b505050506040513d601f19601f820116820180604052508101906102e89190612647565b905061036d838273ffffffffffffffffffffffffffffffffffffffff16636011163e306040518263ffffffff1660e01b81526004016103279190612683565b602060405180830381865afa158015610344573d6000803e3d6000fd5b505050506040513d601f19601f8201168201806040525081019061036891906126b3565b611075565b9250828273ffffffffffffffffffffffffffffffffffffffff166370a08231306040518263ffffffff1660e01b81526004016103a99190612683565b602060405180830381865afa1580156103c6573d6000803e3d6000fd5b505050506040513d601f19601f820116820180604052508101906103ea91906126b3565b101561042b576040517f08c379a000000000000000000000000000000000000000000000000000000000815260040161042290612763565b60405180910390fd5b6104578160008473ffffffffffffffffffffffffffffffffffffffff1661108e9092919063ffffffff16565b61048281848473ffffffffffffffffffffffffffffffffffffffff1661108e9092919063ffffffff16565b8073ffffffffffffffffffffffffffffffffffffffff1663371fd8e6846040518263ffffffff1660e01b81526004016104bb9190612259565b600060405180830381600087803b1580156104d557600080fd5b505af11580156104e9573d6000803e3d6000fd5b5050505060008273ffffffffffffffffffffffffffffffffffffffff166370a08231306040518263ffffffff1660e01b81526004016105289190612683565b602060405180830381865afa158015610545573d6000803e3d6000fd5b505050506040513d601f19601f8201168201806040525081019061056991906126b3565b0361057857610577846111c4565b5b833373ffffffffffffffffffffffffffffffffffffffff167fa2f4fa14f0b0fee8b10babfdacfbfff6d29bbce82209ad5e7b2ac1dc2c35ab9b85426040516105c1929190612783565b60405180910390a350505050565b6105d7610fbe565b60006105e16111e2565b9050600281600001540361062a576040517f08c379a0000000000000000000000000000000000000000000000000000000008152600401610621906127f8565b60405180910390fd5b600281600001819055506000610641846001610e94565b90508261064d8561120f565b101561068e576040517f08c379a00000000000000000000000000000000000000000000000000000000081526004016106859061288a565b60405180910390fd5b6106b933848373ffffffffffffffffffffffffffffffffffffffff1661131a9092919063ffffffff16565b60008173ffffffffffffffffffffffffffffffffffffffff166370a08231306040518263ffffffff1660e01b81526004016106f49190612683565b602060405180830381865afa158015610711573d6000803e3d6000fd5b505050506040513d601f19601f8201168201806040525081019061073591906126b3565b0361074457610743846111c4565b5b833373ffffffffffffffffffffffffffffffffffffffff167f2c2b206b9475386bb995c366956ade2de7bd0e3208dd1fb3833c280929a93005854260405161078d929190612783565b60405180910390a35061079e610f21565b6107dd576040517f08c379a00000000000000000000000000000000000000000000000000000000081526004016107d49061291c565b60405180910390fd5b60018160000181905550505050565b606061087c6108016326ee483660e01b611450565b6326ee483660e01b8460405160240161081a91906129eb565b604051602081830303815290604052907bffffffffffffffffffffffffffffffffffffffffffffffffffffffff19166020820180517bffffffffffffffffffffffffffffffffffffffffffffffffffffffff83818316178352505050506114da565b80602001905181019061088f9190612ad0565b9050919050565b60006109266108ab6331d98b3f60e01b611450565b6331d98b3f60e01b846040516024016108c491906125ce565b604051602081830303815290604052907bffffffffffffffffffffffffffffffffffffffffffffffffffffffff19166020820180517bffffffffffffffffffffffffffffffffffffffffffffffffffffffff83818316178352505050506114da565b80602001905181019061093991906126b3565b9050919050565b60006109c5610955637914334f60e01b611450565b637914334f60e01b604051602401604051602081830303815290604052907bffffffffffffffffffffffffffffffffffffffffffffffffffffffff19166020820180517bffffffffffffffffffffffffffffffffffffffffffffffffffffffff83818316178352505050506114da565b8060200190518101906109d891906126b3565b905090565b6109e5610fbe565b60006109ef611059565b905060008173ffffffffffffffffffffffffffffffffffffffff16630edc25b6856040518263ffffffff1660e01b8152600401610a2c91906125ce565b602060405180830381865afa158015610a49573d6000803e3d6000fd5b505050506040513d601f19601f82011682018060405250810190610a6d9190612647565b90508073ffffffffffffffffffffffffffffffffffffffff1663c5ebeaec846040518263ffffffff1660e01b8152600401610aa89190612259565b600060405180830381600087803b158015610ac257600080fd5b505af1158015610ad6573d6000803e3d6000fd5b505050506000610ae7856000610e94565b905060008173ffffffffffffffffffffffffffffffffffffffff166370a08231306040518263ffffffff1660e01b8152600401610b249190612683565b602060405180830381865afa158015610b41573d6000803e3d6000fd5b505050506040513d601f19601f82011682018060405250810190610b6591906126b3565b1115610b7657610b75858261156b565b5b843373ffffffffffffffffffffffffffffffffffffffff167fb44d1174a7e8b37725504ef78b9e681eb337ec859b8829dafb4a817ac9ab7c3f8642604051610bbf929190612783565b60405180910390a3505050610bd2610f21565b610c11576040517f08c379a0000000000000000000000000000000000000000000000000000000008152600401610c089061291c565b60405180910390fd5b5050565b6000610ca9610c2a630d742f6960e01b611450565b630d742f6960e01b868686604051602401610c4793929190612b88565b604051602081830303815290604052907bffffffffffffffffffffffffffffffffffffffffffffffffffffffff19166020820180517bffffffffffffffffffffffffffffffffffffffffffffffffffffffff83818316178352505050506114da565b806020019051810190610cbc91906126b3565b90509392505050565b610ccd611eb3565b610d5b610ce063a3aa8d1e60e01b611450565b63a3aa8d1e60e01b84604051602401610cf991906129eb565b604051602081830303815290604052907bffffffffffffffffffffffffffffffffffffffffffffffffffffffff19166020820180517bffffffffffffffffffffffffffffffffffffffffffffffffffffffff83818316178352505050506114da565b806020019051810190610d6e9190612db8565b9050919050565b6000610d82836000610e94565b9050610db13330848473ffffffffffffffffffffffffffffffffffffffff1661163d909392919063ffffffff16565b60008173ffffffffffffffffffffffffffffffffffffffff166370a08231306040518263ffffffff1660e01b8152600401610dec9190612683565b602060405180830381865afa158015610e09573d6000803e3d6000fd5b505050506040513d601f19601f82011682018060405250810190610e2d91906126b3565b1115610e3e57610e3d838261156b565b5b823373ffffffffffffffffffffffffffffffffffffffff167f2d66a92de57f2082107528ba4d5d87f02f49967bfc7aab0013f4d664610335478442604051610e87929190612783565b60405180910390a3505050565b6000610e9e611059565b73ffffffffffffffffffffffffffffffffffffffff166325eb876f84846040518363ffffffff1660e01b8152600401610ed8929190612e1c565b602060405180830381865afa158015610ef5573d6000803e3d6000fd5b505050506040513d601f19601f82011682018060405250810190610f199190612647565b905092915050565b6000610fa6610f36635ce2395060e01b611450565b635ce2395060e01b604051602401604051602081830303815290604052907bffffffffffffffffffffffffffffffffffffffffffffffffffffffff19166020820180517bffffffffffffffffffffffffffffffffffffffffffffffffffffffff83818316178352505050506114da565b806020019051810190610fb99190612e71565b905090565b610fc6611776565b60000160009054906101000a900473ffffffffffffffffffffffffffffffffffffffff1673ffffffffffffffffffffffffffffffffffffffff163373ffffffffffffffffffffffffffffffffffffffff1614611057576040517f08c379a000000000000000000000000000000000000000000000000000000000815260040161104e90612f10565b60405180910390fd5b565b6000739cd7ecff2f5a95c1d6ee2ceb3e53909ebe9d57bb905090565b60008183106110845781611086565b825b905092915050565b6000808473ffffffffffffffffffffffffffffffffffffffff1663095ea7b385856040516024016110c0929190612f30565b6040516020818303038152906040529060e01b6020820180517bffffffffffffffffffffffffffffffffffffffffffffffffffffffff838183161783525050505060405161110e9190612fca565b6000604051808303816000865af19150503d806000811461114b576040519150601f19603f3d011682016040523d82523d6000602084013e611150565b606091505b509150915081801561117e575060008151148061117d57508080602001905181019061117c9190612e71565b5b5b6111bd576040517f08c379a00000000000000000000000000000000000000000000000000000000081526004016111b490613053565b60405180910390fd5b5050505050565b60006111ce611776565b90506111dd81600201836117a3565b505050565b6000807f1c85eba10a4cf2d29c83fc15f97931886b9fd3caeb70d8c377aeedc58b919e3b90508091505090565b60008061121a611059565b73ffffffffffffffffffffffffffffffffffffffff166325eb876f8460016040518363ffffffff1660e01b8152600401611255929190612e1c565b602060405180830381865afa158015611272573d6000803e3d6000fd5b505050506040513d601f19601f820116820180604052508101906112969190612647565b90508073ffffffffffffffffffffffffffffffffffffffff166370a08231306040518263ffffffff1660e01b81526004016112d19190612683565b602060405180830381865afa1580156112ee573d6000803e3d6000fd5b505050506040513d601f19601f8201168201806040525081019061131291906126b3565b915050919050565b6000808473ffffffffffffffffffffffffffffffffffffffff1663a9059cbb858560405160240161134c929190612f30565b6040516020818303038152906040529060e01b6020820180517bffffffffffffffffffffffffffffffffffffffffffffffffffffffff838183161783525050505060405161139a9190612fca565b6000604051808303816000865af19150503d80600081146113d7576040519150601f19603f3d011682016040523d82523d6000602084013e6113dc565b606091505b509150915081801561140a57506000815114806114095750808060200190518101906114089190612e71565b5b5b611449576040517f08c379a0000000000000000000000000000000000000000000000000000000008152600401611440906130e5565b60405180910390fd5b5050505050565b600061145a6117ba565b73ffffffffffffffffffffffffffffffffffffffff16630d741577836040518263ffffffff1660e01b81526004016114929190613140565b602060405180830381865afa1580156114af573d6000803e3d6000fd5b505050506040513d601f19601f820116820180604052508101906114d39190612647565b9050919050565b606060006114e7836117d6565b90506000808573ffffffffffffffffffffffffffffffffffffffff16836040516115119190612fca565b600060405180830381855af49150503d806000811461154c576040519150601f19603f3d011682016040523d82523d6000602084013e611551565b606091505b50915091506115608282611890565b935050505092915050565b600082036115ae576040517f08c379a00000000000000000000000000000000000000000000000000000000081526004016115a5906131a7565b60405180910390fd5b600073ffffffffffffffffffffffffffffffffffffffff168173ffffffffffffffffffffffffffffffffffffffff160361161d576040517f08c379a000000000000000000000000000000000000000000000000000000000815260040161161490613213565b60405180910390fd5b6000611627611776565b9050611637816002018484611990565b50505050565b6000808573ffffffffffffffffffffffffffffffffffffffff166323b872dd86868660405160240161167193929190613233565b6040516020818303038152906040529060e01b6020820180517bffffffffffffffffffffffffffffffffffffffffffffffffffffffff83818316178352505050506040516116bf9190612fca565b6000604051808303816000865af19150503d80600081146116fc576040519150601f19603f3d011682016040523d82523d6000602084013e611701565b606091505b509150915081801561172f575060008151148061172e57508080602001905181019061172d9190612e71565b5b5b61176e576040517f08c379a0000000000000000000000000000000000000000000000000000000008152600401611765906132dc565b60405180910390fd5b505050505050565b6000807f8d5bb42e0ac1496a2c326edc9c00758985246e6c2bb146d6c2f4a0d509e0960a90508091505090565b60006117b283600001836119c2565b905092915050565b6000737dbcb7b5019cfd15225e5adc454b864ca1b7f2d1905090565b606060008251905060006117e86119fb565b9050600081836117f8919061332b565b90506000369050821115611838576040517f5796f78a00000000000000000000000000000000000000000000000000000000815260040160405180910390fd5b6060604051905081815285602001848101826020015b8183101561186b578251815260208301925060208101905061184e565b5050508283360385602001830137602084840182010160405280945050505050919050565b6060826119875760008251036118d2576040517f567fe27a00000000000000000000000000000000000000000000000000000000815260040160405180910390fd5b600060208301517f08c379a0000000000000000000000000000000000000000000000000000000008114915050801561194a576060604484019050806040517f0f7e827800000000000000000000000000000000000000000000000000000000815260040161194191906133a3565b60405180910390fd5b826040517ffd36fde300000000000000000000000000000000000000000000000000000000815260040161197e919061340f565b60405180910390fd5b81905092915050565b60006119b984600001848473ffffffffffffffffffffffffffffffffffffffff1660001b611a6b565b90509392505050565b6000826002016000838152602001908152602001600020600090556119f38284600001611aa690919063ffffffff16565b905092915050565b600080611a06611abd565b90506000611a1382611bce565b61ffff169050600282611a26919061332b565b915060005b81811015611a62576000611a3e84611c2a565b90508084611a4c919061332b565b9350508080611a5a90613431565b915050611a2b565b50819250505090565b60008184600201600085815260200190815260200160002081905550611a9d8385600001611c6990919063ffffffff16565b90509392505050565b6000611ab58360000183611c80565b905092915050565b60008060203603356602ed57011e000081166602ed57011e00001491505080611b12576040517fe7764c9e00000000000000000000000000000000000000000000000000000000815260040160405180910390fd5b60008036905060291115611b52576040517f5796f78a00000000000000000000000000000000000000000000000000000000815260040160405180910390fd5b602936033590506000600960038362ffffff16611b6f919061332b565b611b79919061332b565b90506000369050600282611b8d919061332b565b1115611bc5576040517fc30a7bd700000000000000000000000000000000000000000000000000000000815260040160405180910390fd5b80935050505090565b600080602083611bde919061332b565b90506000369050811115611c1e576040517f5796f78a00000000000000000000000000000000000000000000000000000000815260040160405180910390fd5b80360335915050919050565b6000806000611c3884611d94565b91509150604e816020611c4b919061332b565b83611c569190613479565b611c60919061332b565b92505050919050565b6000611c788360000183611e0a565b905092915050565b60008083600101600084815260200190815260200160002054905060008114611d88576000600182611cb291906134bb565b9050600060018660000180549050611cca91906134bb565b9050818114611d39576000866000018281548110611ceb57611cea6134ef565b5b9060005260206000200154905080876000018481548110611d0f57611d0e6134ef565b5b90600052602060002001819055508387600101600083815260200190815260200160002081905550505b85600001805480611d4d57611d4c61351e565b5b600190038181906000526020600020016000905590558560010160008681526020019081526020016000206000905560019350505050611d8e565b60009150505b92915050565b6000806000806000604186611da9919061332b565b90506000611dd0602083611dbd919061332b565b6000369050611e7a90919063ffffffff16565b905080359350611dea600382611e7a90919063ffffffff16565b9050803592508362ffffff1695508263ffffffff16945050505050915091565b6000611e168383611e90565b611e6f578260000182908060018154018082558091505060019003906000526020600020016000909190919091505582600001805490508360010160008481526020019081526020016000208190555060019050611e74565b600090505b92915050565b60008183611e8891906134bb565b905092915050565b600080836001016000848152602001908152602001600020541415905092915050565b6040518060800160405280606081526020016060815260200160608152602001606081525090565b6000604051905090565b600080fd5b600080fd5b6000819050919050565b611f0281611eef565b8114611f0d57600080fd5b50565b600081359050611f1f81611ef9565b92915050565b6000819050919050565b611f3881611f25565b8114611f4357600080fd5b50565b600081359050611f5581611f2f565b92915050565b60008060408385031215611f7257611f71611ee5565b5b6000611f8085828601611f10565b9250506020611f9185828601611f46565b9150509250929050565b600080fd5b6000601f19601f8301169050919050565b7f4e487b7100000000000000000000000000000000000000000000000000000000600052604160045260246000fd5b611fe982611fa0565b810181811067ffffffffffffffff8211171561200857612007611fb1565b5b80604052505050565b600061201b611edb565b90506120278282611fe0565b919050565b600067ffffffffffffffff82111561204757612046611fb1565b5b602082029050602081019050919050565b600080fd5b600061207061206b8461202c565b612011565b9050808382526020820190506020840283018581111561209357612092612058565b5b835b818110156120bc57806120a88882611f10565b845260208401935050602081019050612095565b5050509392505050565b600082601f8301126120db576120da611f9b565b5b81356120eb84826020860161205d565b91505092915050565b60006020828403121561210a57612109611ee5565b5b600082013567ffffffffffffffff81111561212857612127611eea565b5b612134848285016120c6565b91505092915050565b600081519050919050565b600082825260208201905092915050565b6000819050602082019050919050565b61217281611f25565b82525050565b60006121848383612169565b60208301905092915050565b6000602082019050919050565b60006121a88261213d565b6121b28185612148565b93506121bd83612159565b8060005b838110156121ee5781516121d58882612178565b97506121e083612190565b9250506001810190506121c1565b5085935050505092915050565b60006020820190508181036000830152612215818461219d565b905092915050565b60006020828403121561223357612232611ee5565b5b600061224184828501611f10565b91505092915050565b61225381611f25565b82525050565b600060208201905061226e600083018461224a565b92915050565b600067ffffffffffffffff82111561228f5761228e611fb1565b5b602082029050602081019050919050565b600080fd5b600080fd5b6000604082840312156122c0576122bf6122a0565b5b6122ca6040612011565b905060006122da84828501611f10565b60008301525060206122ee84828501611f46565b60208301525092915050565b600061230d61230884612274565b612011565b905080838252602082019050604084028301858111156123305761232f612058565b5b835b81811015612359578061234588826122aa565b845260208401935050604081019050612332565b5050509392505050565b600082601f83011261237857612377611f9b565b5b81356123888482602086016122fa565b91505092915050565b6000806000606084860312156123aa576123a9611ee5565b5b600084013567ffffffffffffffff8111156123c8576123c7611eea565b5b6123d486828701612363565b935050602084013567ffffffffffffffff8111156123f5576123f4611eea565b5b61240186828701612363565b925050604084013567ffffffffffffffff81111561242257612421611eea565b5b61242e86828701612363565b9150509250925092565b600081519050919050565b600082825260208201905092915050565b6000819050602082019050919050565b61246d81611eef565b82525050565b6040820160008201516124896000850182612464565b50602082015161249c6020850182612169565b50505050565b60006124ae8383612473565b60408301905092915050565b6000602082019050919050565b60006124d282612438565b6124dc8185612443565b93506124e783612454565b8060005b838110156125185781516124ff88826124a2565b975061250a836124ba565b9250506001810190506124eb565b5085935050505092915050565b6000608083016000830151848203600086015261254282826124c7565b9150506020830151848203602086015261255c82826124c7565b9150506040830151848203604086015261257682826124c7565b9150506060830151848203606086015261259082826124c7565b9150508091505092915050565b600060208201905081810360008301526125b78184612525565b905092915050565b6125c881611eef565b82525050565b60006020820190506125e360008301846125bf565b92915050565b600073ffffffffffffffffffffffffffffffffffffffff82169050919050565b6000612614826125e9565b9050919050565b61262481612609565b811461262f57600080fd5b50565b6000815190506126418161261b565b92915050565b60006020828403121561265d5761265c611ee5565b5b600061266b84828501612632565b91505092915050565b61267d81612609565b82525050565b60006020820190506126986000830184612674565b92915050565b6000815190506126ad81611f2f565b92915050565b6000602082840312156126c9576126c8611ee5565b5b60006126d78482850161269e565b91505092915050565b600082825260208201905092915050565b7f5468657265206973206e6f7420656e6f7567682066756e647320746f2072657060008201527f6179000000000000000000000000000000000000000000000000000000000000602082015250565b600061274d6022836126e0565b9150612758826126f1565b604082019050919050565b6000602082019050818103600083015261277c81612740565b9050919050565b6000604082019050612798600083018561224a565b6127a5602083018461224a565b9392505050565b7f5265656e7472616e637947756172643a207265656e7472616e742063616c6c00600082015250565b60006127e2601f836126e0565b91506127ed826127ac565b602082019050919050565b60006020820190508181036000830152612811816127d5565b9050919050565b7f5468657265206973206e6f7420656e6f7567682066756e647320746f2077697460008201527f6864726177000000000000000000000000000000000000000000000000000000602082015250565b60006128746025836126e0565b915061287f82612818565b604082019050919050565b600060208201905081810360008301526128a381612867565b9050919050565b7f54686520616374696f6e206d617920636175736520616e206163636f756e742060008201527f746f206265636f6d6520696e736f6c76656e7400000000000000000000000000602082015250565b60006129066033836126e0565b9150612911826128aa565b604082019050919050565b60006020820190508181036000830152612935816128f9565b9050919050565b600081519050919050565b600082825260208201905092915050565b6000819050602082019050919050565b60006129748383612464565b60208301905092915050565b6000602082019050919050565b60006129988261293c565b6129a28185612947565b93506129ad83612958565b8060005b838110156129de5781516129c58882612968565b97506129d083612980565b9250506001810190506129b1565b5085935050505092915050565b60006020820190508181036000830152612a05818461298d565b905092915050565b600067ffffffffffffffff821115612a2857612a27611fb1565b5b602082029050602081019050919050565b6000612a4c612a4784612a0d565b612011565b90508083825260208201905060208402830185811115612a6f57612a6e612058565b5b835b81811015612a985780612a84888261269e565b845260208401935050602081019050612a71565b5050509392505050565b600082601f830112612ab757612ab6611f9b565b5b8151612ac7848260208601612a39565b91505092915050565b600060208284031215612ae657612ae5611ee5565b5b600082015167ffffffffffffffff811115612b0457612b03611eea565b5b612b1084828501612aa2565b91505092915050565b600082825260208201905092915050565b6000612b3582612438565b612b3f8185612b19565b9350612b4a83612454565b8060005b83811015612b7b578151612b6288826124a2565b9750612b6d836124ba565b925050600181019050612b4e565b5085935050505092915050565b60006060820190508181036000830152612ba28186612b2a565b90508181036020830152612bb68185612b2a565b90508181036040830152612bca8184612b2a565b9050949350505050565b600081519050612be381611ef9565b92915050565b600060408284031215612bff57612bfe6122a0565b5b612c096040612011565b90506000612c1984828501612bd4565b6000830152506020612c2d8482850161269e565b60208301525092915050565b6000612c4c612c4784612274565b612011565b90508083825260208201905060408402830185811115612c6f57612c6e612058565b5b835b81811015612c985780612c848882612be9565b845260208401935050604081019050612c71565b5050509392505050565b600082601f830112612cb757612cb6611f9b565b5b8151612cc7848260208601612c39565b91505092915050565b600060808284031215612ce657612ce56122a0565b5b612cf06080612011565b9050600082015167ffffffffffffffff811115612d1057612d0f6122a5565b5b612d1c84828501612ca2565b600083015250602082015167ffffffffffffffff811115612d4057612d3f6122a5565b5b612d4c84828501612ca2565b602083015250604082015167ffffffffffffffff811115612d7057612d6f6122a5565b5b612d7c84828501612ca2565b604083015250606082015167ffffffffffffffff811115612da057612d9f6122a5565b5b612dac84828501612ca2565b60608301525092915050565b600060208284031215612dce57612dcd611ee5565b5b600082015167ffffffffffffffff811115612dec57612deb611eea565b5b612df884828501612cd0565b91505092915050565b60008115159050919050565b612e1681612e01565b82525050565b6000604082019050612e3160008301856125bf565b612e3e6020830184612e0d565b9392505050565b612e4e81612e01565b8114612e5957600080fd5b50565b600081519050612e6b81612e45565b92915050565b600060208284031215612e8757612e86611ee5565b5b6000612e9584828501612e5c565b91505092915050565b7f4469616d6f6e6453746f726167654c69623a204d75737420626520636f6e747260008201527f616374206f776e65720000000000000000000000000000000000000000000000602082015250565b6000612efa6029836126e0565b9150612f0582612e9e565b604082019050919050565b60006020820190508181036000830152612f2981612eed565b9050919050565b6000604082019050612f456000830185612674565b612f52602083018461224a565b9392505050565b600081519050919050565b600081905092915050565b60005b83811015612f8d578082015181840152602081019050612f72565b60008484015250505050565b6000612fa482612f59565b612fae8185612f64565b9350612fbe818560208601612f6f565b80840191505092915050565b6000612fd68284612f99565b915081905092915050565b7f5472616e7366657248656c7065723a3a73616665417070726f76653a2061707060008201527f726f7665206661696c6564000000000000000000000000000000000000000000602082015250565b600061303d602b836126e0565b915061304882612fe1565b604082019050919050565b6000602082019050818103600083015261306c81613030565b9050919050565b7f5472616e7366657248656c7065723a3a736166655472616e736665723a20747260008201527f616e73666572206661696c656400000000000000000000000000000000000000602082015250565b60006130cf602d836126e0565b91506130da82613073565b604082019050919050565b600060208201905081810360008301526130fe816130c2565b9050919050565b60007fffffffff0000000000000000000000000000000000000000000000000000000082169050919050565b61313a81613105565b82525050565b60006020820190506131556000830184613131565b92915050565b7f53796d626f6c2063616e6e6f7420626520656d70747900000000000000000000600082015250565b60006131916016836126e0565b915061319c8261315b565b602082019050919050565b600060208201905081810360008301526131c081613184565b9050919050565b7f496e76616c696420416464726573735a65726f00000000000000000000000000600082015250565b60006131fd6013836126e0565b9150613208826131c7565b602082019050919050565b6000602082019050818103600083015261322c816131f0565b9050919050565b60006060820190506132486000830186612674565b6132556020830185612674565b613262604083018461224a565b949350505050565b7f5472616e7366657248656c7065723a3a7472616e7366657246726f6d3a20747260008201527f616e7366657246726f6d206661696c6564000000000000000000000000000000602082015250565b60006132c66031836126e0565b91506132d18261326a565b604082019050919050565b600060208201905081810360008301526132f5816132b9565b9050919050565b7f4e487b7100000000000000000000000000000000000000000000000000000000600052601160045260246000fd5b600061333682611f25565b915061334183611f25565b9250828201905080821115613359576133586132fc565b5b92915050565b600081519050919050565b60006133758261335f565b61337f81856126e0565b935061338f818560208601612f6f565b61339881611fa0565b840191505092915050565b600060208201905081810360008301526133bd818461336a565b905092915050565b600082825260208201905092915050565b60006133e182612f59565b6133eb81856133c5565b93506133fb818560208601612f6f565b61340481611fa0565b840191505092915050565b6000602082019050818103600083015261342981846133d6565b905092915050565b600061343c82611f25565b91507fffffffffffffffffffffffffffffffffffffffffffffffffffffffffffffffff820361346e5761346d6132fc565b5b600182019050919050565b600061348482611f25565b915061348f83611f25565b925082820261349d81611f25565b915082820484148315176134b4576134b36132fc565b5b5092915050565b60006134c682611f25565b91506134d183611f25565b92508282039050818111156134e9576134e86132fc565b5b92915050565b7f4e487b7100000000000000000000000000000000000000000000000000000000600052603260045260246000fd5b7f4e487b7100000000000000000000000000000000000000000000000000000000600052603160045260246000fdfea2646970667358221220c9185e59a255029b945bf0e1dd17be9d24c03a9d360c838e435bf474442cbb7364736f6c63430008110033",
  "devdoc": {
    "events": {
      "Borrowed(address,bytes32,uint256,uint256)": {
        "details": "emitted when funds are borrowed from the pool",
        "params": {
          "amount": "of the borrowed funds",
          "asset": "borrowed by an= user",
          "timestamp": "time of the borrowing*",
          "user": "the address of borrower"
        }
      },
      "Funded(address,bytes32,uint256,uint256)": {
        "details": "emitted after a loan is funded",
        "params": {
          "amount": "the amount of funds",
          "asset": "funded by a user",
          "timestamp": "time of funding*",
          "user": "the address which funded the loan"
        }
      },
      "Repaid(address,bytes32,uint256,uint256)": {
        "details": "emitted when funds are repaid to the pool",
        "params": {
          "amount": "of repaid funds",
          "asset": "asset repaid by a user",
          "timestamp": "of the repayment*",
          "user": "the address initiating repayment"
        }
      },
      "Withdrawn(address,bytes32,uint256,uint256)": {
        "details": "emitted after the funds are withdrawn from the loan",
        "params": {
          "amount": "of funds withdrawn",
          "asset": "withdrawn by a user",
          "timestamp": "of the withdrawal*",
          "user": "the address which withdraws funds from the loan"
        }
      }
    },
    "kind": "dev",
    "methods": {
      "borrow(bytes32,uint256)": {
        "details": "This function uses the redstone-evm-connector",
        "params": {
          "_amount": "of funds to borrow*",
          "_asset": "to be borrowed"
        }
      },
      "fund(bytes32,uint256)": {
        "details": "Requires approval for ERC20 token on frontend side",
        "params": {
          "_amount": "to be funded*",
          "_fundedAsset": "asset to be funded"
        }
      },
      "repay(bytes32,uint256)": {
        "details": "This function uses the redstone-evm-connector",
        "params": {
          "_amount": "of funds to repay*",
          "_asset": "to be repaid"
        }
      },
      "withdraw(bytes32,uint256)": {
        "details": "This function uses the redstone-evm-connector",
        "params": {
          "_amount": "to be withdrawn*",
          "_withdrawnAsset": "asset to be withdrawn"
        }
      }
    },
    "version": 1
  },
  "userdoc": {
    "kind": "user",
    "methods": {
      "borrow(bytes32,uint256)": {
        "notice": "Borrows funds from the pool"
      },
      "fund(bytes32,uint256)": {
        "notice": "Funds the loan with a specified amount of a defined token"
      },
      "repay(bytes32,uint256)": {
        "notice": "Repays funds to the pool"
      },
      "withdraw(bytes32,uint256)": {
        "notice": "Withdraws an amount of a defined asset from the loan This method could be used to cash out profits from investments The loan needs to remain solvent after the withdrawal"
      }
    },
    "version": 1
  },
  "storageLayout": {
    "storage": [
      {
        "astId": 9549,
        "contract": "contracts/facets/AssetsOperationsFacet.sol:AssetsOperationsFacet",
        "label": "_status",
        "offset": 0,
        "slot": "0",
        "type": "t_uint256"
      }
    ],
    "types": {
      "t_uint256": {
        "encoding": "inplace",
        "label": "uint256",
        "numberOfBytes": "32"
      }
    }
  }
}