{
  "address": "0xb36F673897b53f682D5Aa9D87b6FfDCEBB25A829",
  "abi": [
    {
      "inputs": [],
      "name": "CalldataMustHaveValidPayload",
      "type": "error"
    },
    {
      "inputs": [],
      "name": "CalldataOverOrUnderFlow",
      "type": "error"
    },
    {
      "inputs": [],
      "name": "EachSignerMustProvideTheSameValue",
      "type": "error"
    },
    {
      "inputs": [],
      "name": "EmptyCalldataPointersArr",
      "type": "error"
    },
    {
      "inputs": [],
      "name": "IncorrectUnsignedMetadataSize",
      "type": "error"
    },
    {
      "inputs": [
        {
          "internalType": "uint256",
          "name": "receviedSignersCount",
          "type": "uint256"
        },
        {
          "internalType": "uint256",
          "name": "requiredSignersCount",
          "type": "uint256"
        }
      ],
      "name": "InsufficientNumberOfUniqueSigners",
      "type": "error"
    },
    {
      "inputs": [],
      "name": "InvalidCalldataPointer",
      "type": "error"
    },
    {
      "inputs": [
        {
          "internalType": "bytes",
          "name": "result",
          "type": "bytes"
        }
      ],
      "name": "ProxyCalldataFailedWithCustomError",
      "type": "error"
    },
    {
      "inputs": [
        {
          "internalType": "string",
          "name": "message",
          "type": "string"
        }
      ],
      "name": "ProxyCalldataFailedWithStringMessage",
      "type": "error"
    },
    {
      "inputs": [],
      "name": "ProxyCalldataFailedWithoutErrMsg",
      "type": "error"
    },
    {
      "inputs": [
        {
          "internalType": "address",
          "name": "receivedSigner",
          "type": "address"
        }
      ],
      "name": "SignerNotAuthorised",
      "type": "error"
    },
    {
      "anonymous": false,
      "inputs": [
        {
          "indexed": true,
          "internalType": "address",
          "name": "user",
          "type": "address"
        },
        {
          "indexed": true,
          "internalType": "bytes32",
          "name": "asset",
          "type": "bytes32"
        },
        {
          "indexed": true,
          "internalType": "address",
          "name": "vault",
          "type": "address"
        },
        {
          "indexed": false,
          "internalType": "uint256",
          "name": "amount",
          "type": "uint256"
        },
        {
          "indexed": false,
          "internalType": "uint256",
          "name": "timestamp",
          "type": "uint256"
        }
      ],
      "name": "Staked",
      "type": "event"
    },
    {
      "anonymous": false,
      "inputs": [
        {
          "indexed": true,
          "internalType": "address",
          "name": "user",
          "type": "address"
        },
        {
          "indexed": true,
          "internalType": "bytes32",
          "name": "asset",
          "type": "bytes32"
        },
        {
          "indexed": true,
          "internalType": "address",
          "name": "vault",
          "type": "address"
        },
        {
          "indexed": false,
          "internalType": "uint256",
          "name": "amount",
          "type": "uint256"
        },
        {
          "indexed": false,
          "internalType": "uint256",
          "name": "timestamp",
          "type": "uint256"
        }
      ],
      "name": "Unstaked",
      "type": "event"
    },
    {
      "inputs": [
        {
          "internalType": "bytes32[]",
          "name": "assetsToRepay",
          "type": "bytes32[]"
        }
      ],
      "name": "_getAllPricesForLiquidation",
      "outputs": [
        {
          "components": [
            {
              "components": [
                {
                  "internalType": "bytes32",
                  "name": "asset",
                  "type": "bytes32"
                },
                {
                  "internalType": "uint256",
                  "name": "price",
                  "type": "uint256"
                }
              ],
              "internalType": "struct SolvencyFacetProd.AssetPrice[]",
              "name": "ownedAssetsPrices",
              "type": "tuple[]"
            },
            {
              "components": [
                {
                  "internalType": "bytes32",
                  "name": "asset",
                  "type": "bytes32"
                },
                {
                  "internalType": "uint256",
                  "name": "price",
                  "type": "uint256"
                }
              ],
              "internalType": "struct SolvencyFacetProd.AssetPrice[]",
              "name": "debtAssetsPrices",
              "type": "tuple[]"
            },
            {
              "components": [
                {
                  "internalType": "bytes32",
                  "name": "asset",
                  "type": "bytes32"
                },
                {
                  "internalType": "uint256",
                  "name": "price",
                  "type": "uint256"
                }
              ],
              "internalType": "struct SolvencyFacetProd.AssetPrice[]",
              "name": "stakedPositionsPrices",
              "type": "tuple[]"
            },
            {
              "components": [
                {
                  "internalType": "bytes32",
                  "name": "asset",
                  "type": "bytes32"
                },
                {
                  "internalType": "uint256",
                  "name": "price",
                  "type": "uint256"
                }
              ],
              "internalType": "struct SolvencyFacetProd.AssetPrice[]",
              "name": "assetsToRepayPrices",
              "type": "tuple[]"
            }
          ],
          "internalType": "struct SolvencyFacetProd.CachedPrices",
          "name": "result",
          "type": "tuple"
        }
      ],
      "stateMutability": "nonpayable",
      "type": "function"
    },
    {
      "inputs": [],
      "name": "_getHealthRatio",
      "outputs": [
        {
          "internalType": "uint256",
          "name": "health",
          "type": "uint256"
        }
      ],
      "stateMutability": "nonpayable",
      "type": "function"
    },
    {
      "inputs": [
        {
          "components": [
            {
              "internalType": "bytes32",
              "name": "asset",
              "type": "bytes32"
            },
            {
              "internalType": "uint256",
              "name": "price",
              "type": "uint256"
            }
          ],
          "internalType": "struct SolvencyFacetProd.AssetPrice[]",
          "name": "ownedAssetsPrices",
          "type": "tuple[]"
        },
        {
          "components": [
            {
              "internalType": "bytes32",
              "name": "asset",
              "type": "bytes32"
            },
            {
              "internalType": "uint256",
              "name": "price",
              "type": "uint256"
            }
          ],
          "internalType": "struct SolvencyFacetProd.AssetPrice[]",
          "name": "debtAssetsPrices",
          "type": "tuple[]"
        },
        {
          "components": [
            {
              "internalType": "bytes32",
              "name": "asset",
              "type": "bytes32"
            },
            {
              "internalType": "uint256",
              "name": "price",
              "type": "uint256"
            }
          ],
          "internalType": "struct SolvencyFacetProd.AssetPrice[]",
          "name": "stakedPositionsPrices",
          "type": "tuple[]"
        }
      ],
      "name": "_getHealthRatioWithPrices",
      "outputs": [
        {
          "internalType": "uint256",
          "name": "health",
          "type": "uint256"
        }
      ],
      "stateMutability": "nonpayable",
      "type": "function"
    },
    {
      "inputs": [
        {
          "internalType": "bytes32",
          "name": "symbol",
          "type": "bytes32"
        }
      ],
      "name": "getPrice",
      "outputs": [
        {
          "internalType": "uint256",
          "name": "price",
          "type": "uint256"
        }
      ],
      "stateMutability": "nonpayable",
      "type": "function"
    },
    {
      "inputs": [
        {
          "internalType": "bytes32[]",
          "name": "symbols",
          "type": "bytes32[]"
        }
      ],
      "name": "getPrices",
      "outputs": [
        {
          "internalType": "uint256[]",
          "name": "prices",
          "type": "uint256[]"
        }
      ],
      "stateMutability": "nonpayable",
      "type": "function"
    },
    {
      "inputs": [
        {
          "internalType": "uint256",
          "name": "amount",
          "type": "uint256"
        }
      ],
      "name": "stakePngUsdcAvaxLpBeefy",
      "outputs": [],
      "stateMutability": "nonpayable",
      "type": "function"
    },
    {
      "inputs": [
        {
          "internalType": "uint256",
          "name": "amount",
          "type": "uint256"
        }
      ],
      "name": "stakePngUsdceAvaxLpBeefy",
      "outputs": [],
      "stateMutability": "nonpayable",
      "type": "function"
    },
    {
      "inputs": [
        {
          "internalType": "uint256",
          "name": "amount",
          "type": "uint256"
        }
      ],
      "name": "stakeTjUsdcAvaxLpBeefy",
      "outputs": [],
      "stateMutability": "nonpayable",
      "type": "function"
    },
    {
      "inputs": [
        {
          "internalType": "uint256",
          "name": "amount",
          "type": "uint256"
        }
      ],
      "name": "unstakePngUsdcAvaxLpBeefy",
      "outputs": [],
      "stateMutability": "nonpayable",
      "type": "function"
    },
    {
      "inputs": [
        {
          "internalType": "uint256",
          "name": "amount",
          "type": "uint256"
        }
      ],
      "name": "unstakePngUsdceAvaxLpBeefy",
      "outputs": [],
      "stateMutability": "nonpayable",
      "type": "function"
    },
    {
      "inputs": [
        {
          "internalType": "uint256",
          "name": "amount",
          "type": "uint256"
        }
      ],
      "name": "unstakeTjUsdcAvaxLpBeefy",
      "outputs": [],
      "stateMutability": "nonpayable",
      "type": "function"
    },
    {
      "stateMutability": "payable",
      "type": "receive"
    }
  ],
  "transactionHash": "0x0b05f8138fae05882ba7a36ab45c7fea0909749d1d26497640b6dfe9edce7a5c",
  "args": [],
  "numDeployments": 1,
  "solcInputHash": "df3ad5bdcd0ec16bf72ca3adff085c61",
  "bytecode": "0x608060405234801561001057600080fd5b506001600081905550613688806100286000396000f3fe6080604052600436106100a05760003560e01c80638f7ef1f5116100645780638f7ef1f5146101a357806391bb2468146101e0578063a640f44b14610209578063a6657a9414610232578063b2d40e731461025b578063c355e8dd14610298576100a7565b806326ee4836146100ac57806331d98b3f146100e957806339e2719e146101265780636a52bc4714610151578063891ef8b51461017a576100a7565b366100a757005b600080fd5b3480156100b857600080fd5b506100d360048036038101906100ce919061229d565b6102c1565b6040516100e091906123ae565b60405180910390f35b3480156100f557600080fd5b50610110600480360381019061010b91906123d0565b61036b565b60405161011d919061240c565b60405180910390f35b34801561013257600080fd5b5061013b610415565b604051610148919061240c565b60405180910390f35b34801561015d57600080fd5b5061017860048036038101906101739190612453565b6104b2565b005b34801561018657600080fd5b506101a1600480360381019061019c9190612453565b61062f565b005b3480156101af57600080fd5b506101ca60048036038101906101c5919061259d565b6107ac565b6040516101d7919061240c565b60405180910390f35b3480156101ec57600080fd5b5061020760048036038101906102029190612453565b61085c565b005b34801561021557600080fd5b50610230600480360381019061022b9190612453565b6109d9565b005b34801561023e57600080fd5b5061025960048036038101906102549190612453565b610b56565b005b34801561026757600080fd5b50610282600480360381019061027d919061229d565b610cd3565b60405161028f91906127a9565b60405180910390f35b3480156102a457600080fd5b506102bf60048036038101906102ba9190612453565b610d83565b005b60606103516102d66326ee483660e01b610f00565b6326ee483660e01b846040516024016102ef919061287a565b604051602081830303815290604052907bffffffffffffffffffffffffffffffffffffffffffffffffffffffff19166020820180517bffffffffffffffffffffffffffffffffffffffffffffffffffffffff8381831617835250505050610f8a565b8060200190518101906103649190612974565b9050919050565b60006103fb6103806331d98b3f60e01b610f00565b6331d98b3f60e01b8460405160240161039991906129cc565b604051602081830303815290604052907bffffffffffffffffffffffffffffffffffffffffffffffffffffffff19166020820180517bffffffffffffffffffffffffffffffffffffffffffffffffffffffff8381831617835250505050610f8a565b80602001905181019061040e91906129e7565b9050919050565b600061049a61042a637914334f60e01b610f00565b637914334f60e01b604051602401604051602081830303815290604052907bffffffffffffffffffffffffffffffffffffffffffffffffffffffff19166020820180517bffffffffffffffffffffffffffffffffffffffffffffffffffffffff8381831617835250505050610f8a565b8060200190518101906104ad91906129e7565b905090565b6104ba61101b565b60006104c46110b6565b9050600281600001540361050d576040517f08c379a000000000000000000000000000000000000000000000000000000000815260040161050490612a71565b60405180910390fd5b600281600001819055506105da6040518060a0016040528073bd918ed441767fe7924e99f6a0e0b568ac1970d973ffffffffffffffffffffffffffffffffffffffff168152602001739b02209a331c072637c6ebd34cdcd6b6a16987a973ffffffffffffffffffffffffffffffffffffffff1681526020017f504e475f415641585f55534443655f4c5000000000000000000000000000000081526020017f4d4f4f5f504e475f415641585f55534443655f4c5000000000000000000000008152602001848152506110e3565b6105e2611595565b610621576040517f08c379a000000000000000000000000000000000000000000000000000000000815260040161061890612b03565b60405180910390fd5b600181600001819055505050565b61063761101b565b60006106416110b6565b9050600281600001540361068a576040517f08c379a000000000000000000000000000000000000000000000000000000000815260040161068190612a71565b60405180910390fd5b600281600001819055506107576040518060a0016040528073f4003f4efbe8691b60249e6afbd307abe7758adb73ffffffffffffffffffffffffffffffffffffffff168152602001737e5bc7088ab3da3e7fa1aa7cef1dc73f5b00681c73ffffffffffffffffffffffffffffffffffffffff1681526020017f544a5f415641585f555344435f4c50000000000000000000000000000000000081526020017f4d4f4f5f544a5f415641585f555344435f4c5000000000000000000000000000815260200184815250611632565b61075f611595565b61079e576040517f08c379a000000000000000000000000000000000000000000000000000000000815260040161079590612b03565b60405180910390fd5b600181600001819055505050565b60006108406107c1630d742f6960e01b610f00565b630d742f6960e01b8686866040516024016107de93929190612b92565b604051602081830303815290604052907bffffffffffffffffffffffffffffffffffffffffffffffffffffffff19166020820180517bffffffffffffffffffffffffffffffffffffffffffffffffffffffff8381831617835250505050610f8a565b80602001905181019061085391906129e7565b90509392505050565b61086461101b565b600061086e6110b6565b905060028160000154036108b7576040517f08c379a00000000000000000000000000000000000000000000000000000000081526004016108ae90612a71565b60405180910390fd5b600281600001819055506109846040518060a00160405280730e0100ab771e9288e0aa97e11557e6654c3a966573ffffffffffffffffffffffffffffffffffffffff16815260200173f3340edf16563d52c7e7c576f2fcc8f3d52464ab73ffffffffffffffffffffffffffffffffffffffff1681526020017f504e475f415641585f555344435f4c500000000000000000000000000000000081526020017f4d4f4f5f504e475f415641585f555344435f4c500000000000000000000000008152602001848152506110e3565b61098c611595565b6109cb576040517f08c379a00000000000000000000000000000000000000000000000000000000081526004016109c290612b03565b60405180910390fd5b600181600001819055505050565b6109e161101b565b60006109eb6110b6565b90506002816000015403610a34576040517f08c379a0000000000000000000000000000000000000000000000000000000008152600401610a2b90612a71565b60405180910390fd5b60028160000181905550610b016040518060a0016040528073bd918ed441767fe7924e99f6a0e0b568ac1970d973ffffffffffffffffffffffffffffffffffffffff168152602001739b02209a331c072637c6ebd34cdcd6b6a16987a973ffffffffffffffffffffffffffffffffffffffff1681526020017f504e475f415641585f55534443655f4c5000000000000000000000000000000081526020017f4d4f4f5f504e475f415641585f55534443655f4c500000000000000000000000815260200184815250611632565b610b09611595565b610b48576040517f08c379a0000000000000000000000000000000000000000000000000000000008152600401610b3f90612b03565b60405180910390fd5b600181600001819055505050565b610b5e61101b565b6000610b686110b6565b90506002816000015403610bb1576040517f08c379a0000000000000000000000000000000000000000000000000000000008152600401610ba890612a71565b60405180910390fd5b60028160000181905550610c7e6040518060a0016040528073f4003f4efbe8691b60249e6afbd307abe7758adb73ffffffffffffffffffffffffffffffffffffffff168152602001737e5bc7088ab3da3e7fa1aa7cef1dc73f5b00681c73ffffffffffffffffffffffffffffffffffffffff1681526020017f544a5f415641585f555344435f4c50000000000000000000000000000000000081526020017f4d4f4f5f544a5f415641585f555344435f4c50000000000000000000000000008152602001848152506110e3565b610c86611595565b610cc5576040517f08c379a0000000000000000000000000000000000000000000000000000000008152600401610cbc90612b03565b60405180910390fd5b600181600001819055505050565b610cdb6120d2565b610d69610cee63a3aa8d1e60e01b610f00565b63a3aa8d1e60e01b84604051602401610d07919061287a565b604051602081830303815290604052907bffffffffffffffffffffffffffffffffffffffffffffffffffffffff19166020820180517bffffffffffffffffffffffffffffffffffffffffffffffffffffffff8381831617835250505050610f8a565b806020019051810190610d7c9190612dc2565b9050919050565b610d8b61101b565b6000610d956110b6565b90506002816000015403610dde576040517f08c379a0000000000000000000000000000000000000000000000000000000008152600401610dd590612a71565b60405180910390fd5b60028160000181905550610eab6040518060a00160405280730e0100ab771e9288e0aa97e11557e6654c3a966573ffffffffffffffffffffffffffffffffffffffff16815260200173f3340edf16563d52c7e7c576f2fcc8f3d52464ab73ffffffffffffffffffffffffffffffffffffffff1681526020017f504e475f415641585f555344435f4c500000000000000000000000000000000081526020017f4d4f4f5f504e475f415641585f555344435f4c50000000000000000000000000815260200184815250611632565b610eb3611595565b610ef2576040517f08c379a0000000000000000000000000000000000000000000000000000000008152600401610ee990612b03565b60405180910390fd5b600181600001819055505050565b6000610f0a611889565b73ffffffffffffffffffffffffffffffffffffffff16630d741577836040518263ffffffff1660e01b8152600401610f429190612e46565b602060405180830381865afa158015610f5f573d6000803e3d6000fd5b505050506040513d601f19601f82011682018060405250810190610f839190612ebf565b9050919050565b60606000610f97836118a5565b90506000808573ffffffffffffffffffffffffffffffffffffffff1683604051610fc19190612f5d565b600060405180830381855af49150503d8060008114610ffc576040519150601f19603f3d011682016040523d82523d6000602084013e611001565b606091505b5091509150611010828261195f565b935050505092915050565b611023611a5f565b60000160009054906101000a900473ffffffffffffffffffffffffffffffffffffffff1673ffffffffffffffffffffffffffffffffffffffff163373ffffffffffffffffffffffffffffffffffffffff16146110b4576040517f08c379a00000000000000000000000000000000000000000000000000000000081526004016110ab90612fe6565b60405180910390fd5b565b6000807f1c85eba10a4cf2d29c83fc15f97931886b9fd3caeb70d8c377aeedc58b919e3b90508091505090565b60006110ed611a8c565b90506000826080015111611136576040517f08c379a000000000000000000000000000000000000000000000000000000000815260040161112d90613052565b60405180910390fd5b60028173ffffffffffffffffffffffffffffffffffffffff1663e0117bdd84600001516040518263ffffffff1660e01b81526004016111759190613081565b602060405180830381865afa158015611192573d6000803e3d6000fd5b505050506040513d601f19601f820116820180604052508101906111b691906129e7565b146111f6576040517f08c379a00000000000000000000000000000000000000000000000000000000081526004016111ed906130e8565b60405180910390fd5b60028173ffffffffffffffffffffffffffffffffffffffff1663e0117bdd84602001516040518263ffffffff1660e01b81526004016112359190613081565b602060405180830381865afa158015611252573d6000803e3d6000fd5b505050506040513d601f19601f8201168201806040525081019061127691906129e7565b146112b6576040517f08c379a00000000000000000000000000000000000000000000000000000000081526004016112ad90613154565b60405180910390fd5b8160800151826000015173ffffffffffffffffffffffffffffffffffffffff166370a08231306040518263ffffffff1660e01b81526004016112f89190613081565b602060405180830381865afa158015611315573d6000803e3d6000fd5b505050506040513d601f19601f8201168201806040525081019061133991906129e7565b101561137a576040517f08c379a0000000000000000000000000000000000000000000000000000000008152600401611371906131c0565b60405180910390fd5b816000015173ffffffffffffffffffffffffffffffffffffffff1663095ea7b3836020015184608001516040518363ffffffff1660e01b81526004016113c19291906131e0565b6020604051808303816000875af11580156113e0573d6000803e3d6000fd5b505050506040513d601f19601f820116820180604052508101906114049190613241565b50816020015173ffffffffffffffffffffffffffffffffffffffff1663b6b55f2583608001516040518263ffffffff1660e01b8152600401611446919061240c565b600060405180830381600087803b15801561146057600080fd5b505af1158015611474573d6000803e3d6000fd5b5050505061148a82606001518360200151611aa8565b6000826000015173ffffffffffffffffffffffffffffffffffffffff166370a08231306040518263ffffffff1660e01b81526004016114c99190613081565b602060405180830381865afa1580156114e6573d6000803e3d6000fd5b505050506040513d601f19601f8201168201806040525081019061150a91906129e7565b0361151d5761151c8260400151611b7a565b5b816020015173ffffffffffffffffffffffffffffffffffffffff1682604001513373ffffffffffffffffffffffffffffffffffffffff167f643de8375c3a1c76ab240fe4eda6e589cf10acfe25f67d9951ef0a7ababb672285608001514260405161158992919061326e565b60405180910390a45050565b600061161a6115aa635ce2395060e01b610f00565b635ce2395060e01b604051602401604051602081830303815290604052907bffffffffffffffffffffffffffffffffffffffffffffffffffffffff19166020820180517bffffffffffffffffffffffffffffffffffffffffffffffffffffffff8381831617835250505050610f8a565b80602001905181019061162d9190613241565b905090565b60008160200151905060008173ffffffffffffffffffffffffffffffffffffffff166370a08231306040518263ffffffff1660e01b81526004016116769190613081565b602060405180830381865afa158015611693573d6000803e3d6000fd5b505050506040513d601f19601f820116820180604052508101906116b791906129e7565b90508260800151811015611700576040517f08c379a00000000000000000000000000000000000000000000000000000000081526004016116f790613309565b60405180910390fd5b8173ffffffffffffffffffffffffffffffffffffffff16632e1a7d4d84608001516040518263ffffffff1660e01b815260040161173d919061240c565b600060405180830381600087803b15801561175757600080fd5b505af115801561176b573d6000803e3d6000fd5b5050505061178183604001518460000151611aa8565b60008273ffffffffffffffffffffffffffffffffffffffff166370a08231306040518263ffffffff1660e01b81526004016117bc9190613081565b602060405180830381865afa1580156117d9573d6000803e3d6000fd5b505050506040513d601f19601f820116820180604052508101906117fd91906129e7565b036118105761180f8360600151611b7a565b5b826020015173ffffffffffffffffffffffffffffffffffffffff1683604001513373ffffffffffffffffffffffffffffffffffffffff167fb45e912aa92f8b6b5caaef25e5188ab9c924b5c90188180c3f0cdeb3273c731f86608001514260405161187c92919061326e565b60405180910390a4505050565b6000737dbcb7b5019cfd15225e5adc454b864ca1b7f2d1905090565b606060008251905060006118b7611b98565b9050600081836118c79190613358565b90506000369050821115611907576040517f5796f78a00000000000000000000000000000000000000000000000000000000815260040160405180910390fd5b6060604051905081815285602001848101826020015b8183101561193a578251815260208301925060208101905061191d565b5050508283360385602001830137602084840182010160405280945050505050919050565b606082611a565760008251036119a1576040517f567fe27a00000000000000000000000000000000000000000000000000000000815260040160405180910390fd5b600060208301517f08c379a00000000000000000000000000000000000000000000000000000000081149150508015611a19576060604484019050806040517f0f7e8278000000000000000000000000000000000000000000000000000000008152600401611a1091906133d0565b60405180910390fd5b826040517ffd36fde3000000000000000000000000000000000000000000000000000000008152600401611a4d919061343c565b60405180910390fd5b81905092915050565b6000807f8d5bb42e0ac1496a2c326edc9c00758985246e6c2bb146d6c2f4a0d509e0960a90508091505090565b6000739cd7ecff2f5a95c1d6ee2ceb3e53909ebe9d57bb905090565b60008203611aeb576040517f08c379a0000000000000000000000000000000000000000000000000000000008152600401611ae2906134aa565b60405180910390fd5b600073ffffffffffffffffffffffffffffffffffffffff168173ffffffffffffffffffffffffffffffffffffffff1603611b5a576040517f08c379a0000000000000000000000000000000000000000000000000000000008152600401611b5190613516565b60405180910390fd5b6000611b64611a5f565b9050611b74816002018484611c08565b50505050565b6000611b84611a5f565b9050611b938160020183611c3a565b505050565b600080611ba3611c51565b90506000611bb082611d62565b61ffff169050600282611bc39190613358565b915060005b81811015611bff576000611bdb84611dbe565b90508084611be99190613358565b9350508080611bf790613536565b915050611bc8565b50819250505090565b6000611c3184600001848473ffffffffffffffffffffffffffffffffffffffff1660001b611dfd565b90509392505050565b6000611c498360000183611e38565b905092915050565b60008060203603356602ed57011e000081166602ed57011e00001491505080611ca6576040517fe7764c9e00000000000000000000000000000000000000000000000000000000815260040160405180910390fd5b60008036905060291115611ce6576040517f5796f78a00000000000000000000000000000000000000000000000000000000815260040160405180910390fd5b602936033590506000600960038362ffffff16611d039190613358565b611d0d9190613358565b90506000369050600282611d219190613358565b1115611d59576040517fc30a7bd700000000000000000000000000000000000000000000000000000000815260040160405180910390fd5b80935050505090565b600080602083611d729190613358565b90506000369050811115611db2576040517f5796f78a00000000000000000000000000000000000000000000000000000000815260040160405180910390fd5b80360335915050919050565b6000806000611dcc84611e71565b91509150604e816020611ddf9190613358565b83611dea919061357e565b611df49190613358565b92505050919050565b60008184600201600085815260200190815260200160002081905550611e2f8385600001611ee790919063ffffffff16565b90509392505050565b600082600201600083815260200190815260200160002060009055611e698284600001611efe90919063ffffffff16565b905092915050565b6000806000806000604186611e869190613358565b90506000611ead602083611e9a9190613358565b6000369050611f1590919063ffffffff16565b905080359350611ec7600382611f1590919063ffffffff16565b9050803592508362ffffff1695508263ffffffff16945050505050915091565b6000611ef68360000183611f2b565b905092915050565b6000611f0d8360000183611f9b565b905092915050565b60008183611f2391906135c0565b905092915050565b6000611f3783836120af565b611f90578260000182908060018154018082558091505060019003906000526020600020016000909190919091505582600001805490508360010160008481526020019081526020016000208190555060019050611f95565b600090505b92915050565b600080836001016000848152602001908152602001600020549050600081146120a3576000600182611fcd91906135c0565b9050600060018660000180549050611fe591906135c0565b9050818114612054576000866000018281548110612006576120056135f4565b5b906000526020600020015490508087600001848154811061202a576120296135f4565b5b90600052602060002001819055508387600101600083815260200190815260200160002081905550505b8560000180548061206857612067613623565b5b6001900381819060005260206000200160009055905585600101600086815260200190815260200160002060009055600193505050506120a9565b60009150505b92915050565b600080836001016000848152602001908152602001600020541415905092915050565b6040518060800160405280606081526020016060815260200160608152602001606081525090565b6000604051905090565b600080fd5b600080fd5b600080fd5b6000601f19601f8301169050919050565b7f4e487b7100000000000000000000000000000000000000000000000000000000600052604160045260246000fd5b61215c82612113565b810181811067ffffffffffffffff8211171561217b5761217a612124565b5b80604052505050565b600061218e6120fa565b905061219a8282612153565b919050565b600067ffffffffffffffff8211156121ba576121b9612124565b5b602082029050602081019050919050565b600080fd5b6000819050919050565b6121e3816121d0565b81146121ee57600080fd5b50565b600081359050612200816121da565b92915050565b60006122196122148461219f565b612184565b9050808382526020820190506020840283018581111561223c5761223b6121cb565b5b835b81811015612265578061225188826121f1565b84526020840193505060208101905061223e565b5050509392505050565b600082601f8301126122845761228361210e565b5b8135612294848260208601612206565b91505092915050565b6000602082840312156122b3576122b2612104565b5b600082013567ffffffffffffffff8111156122d1576122d0612109565b5b6122dd8482850161226f565b91505092915050565b600081519050919050565b600082825260208201905092915050565b6000819050602082019050919050565b6000819050919050565b61232581612312565b82525050565b6000612337838361231c565b60208301905092915050565b6000602082019050919050565b600061235b826122e6565b61236581856122f1565b935061237083612302565b8060005b838110156123a1578151612388888261232b565b975061239383612343565b925050600181019050612374565b5085935050505092915050565b600060208201905081810360008301526123c88184612350565b905092915050565b6000602082840312156123e6576123e5612104565b5b60006123f4848285016121f1565b91505092915050565b61240681612312565b82525050565b600060208201905061242160008301846123fd565b92915050565b61243081612312565b811461243b57600080fd5b50565b60008135905061244d81612427565b92915050565b60006020828403121561246957612468612104565b5b60006124778482850161243e565b91505092915050565b600067ffffffffffffffff82111561249b5761249a612124565b5b602082029050602081019050919050565b600080fd5b600080fd5b6000604082840312156124cc576124cb6124ac565b5b6124d66040612184565b905060006124e6848285016121f1565b60008301525060206124fa8482850161243e565b60208301525092915050565b600061251961251484612480565b612184565b9050808382526020820190506040840283018581111561253c5761253b6121cb565b5b835b81811015612565578061255188826124b6565b84526020840193505060408101905061253e565b5050509392505050565b600082601f8301126125845761258361210e565b5b8135612594848260208601612506565b91505092915050565b6000806000606084860312156125b6576125b5612104565b5b600084013567ffffffffffffffff8111156125d4576125d3612109565b5b6125e08682870161256f565b935050602084013567ffffffffffffffff81111561260157612600612109565b5b61260d8682870161256f565b925050604084013567ffffffffffffffff81111561262e5761262d612109565b5b61263a8682870161256f565b9150509250925092565b600081519050919050565b600082825260208201905092915050565b6000819050602082019050919050565b612679816121d0565b82525050565b6040820160008201516126956000850182612670565b5060208201516126a8602085018261231c565b50505050565b60006126ba838361267f565b60408301905092915050565b6000602082019050919050565b60006126de82612644565b6126e8818561264f565b93506126f383612660565b8060005b8381101561272457815161270b88826126ae565b9750612716836126c6565b9250506001810190506126f7565b5085935050505092915050565b6000608083016000830151848203600086015261274e82826126d3565b9150506020830151848203602086015261276882826126d3565b9150506040830151848203604086015261278282826126d3565b9150506060830151848203606086015261279c82826126d3565b9150508091505092915050565b600060208201905081810360008301526127c38184612731565b905092915050565b600081519050919050565b600082825260208201905092915050565b6000819050602082019050919050565b60006128038383612670565b60208301905092915050565b6000602082019050919050565b6000612827826127cb565b61283181856127d6565b935061283c836127e7565b8060005b8381101561286d57815161285488826127f7565b975061285f8361280f565b925050600181019050612840565b5085935050505092915050565b60006020820190508181036000830152612894818461281c565b905092915050565b600067ffffffffffffffff8211156128b7576128b6612124565b5b602082029050602081019050919050565b6000815190506128d781612427565b92915050565b60006128f06128eb8461289c565b612184565b90508083825260208201905060208402830185811115612913576129126121cb565b5b835b8181101561293c578061292888826128c8565b845260208401935050602081019050612915565b5050509392505050565b600082601f83011261295b5761295a61210e565b5b815161296b8482602086016128dd565b91505092915050565b60006020828403121561298a57612989612104565b5b600082015167ffffffffffffffff8111156129a8576129a7612109565b5b6129b484828501612946565b91505092915050565b6129c6816121d0565b82525050565b60006020820190506129e160008301846129bd565b92915050565b6000602082840312156129fd576129fc612104565b5b6000612a0b848285016128c8565b91505092915050565b600082825260208201905092915050565b7f5265656e7472616e637947756172643a207265656e7472616e742063616c6c00600082015250565b6000612a5b601f83612a14565b9150612a6682612a25565b602082019050919050565b60006020820190508181036000830152612a8a81612a4e565b9050919050565b7f54686520616374696f6e206d617920636175736520616e206163636f756e742060008201527f746f206265636f6d6520696e736f6c76656e7400000000000000000000000000602082015250565b6000612aed603383612a14565b9150612af882612a91565b604082019050919050565b60006020820190508181036000830152612b1c81612ae0565b9050919050565b600082825260208201905092915050565b6000612b3f82612644565b612b498185612b23565b9350612b5483612660565b8060005b83811015612b85578151612b6c88826126ae565b9750612b77836126c6565b925050600181019050612b58565b5085935050505092915050565b60006060820190508181036000830152612bac8186612b34565b90508181036020830152612bc08185612b34565b90508181036040830152612bd48184612b34565b9050949350505050565b600081519050612bed816121da565b92915050565b600060408284031215612c0957612c086124ac565b5b612c136040612184565b90506000612c2384828501612bde565b6000830152506020612c37848285016128c8565b60208301525092915050565b6000612c56612c5184612480565b612184565b90508083825260208201905060408402830185811115612c7957612c786121cb565b5b835b81811015612ca25780612c8e8882612bf3565b845260208401935050604081019050612c7b565b5050509392505050565b600082601f830112612cc157612cc061210e565b5b8151612cd1848260208601612c43565b91505092915050565b600060808284031215612cf057612cef6124ac565b5b612cfa6080612184565b9050600082015167ffffffffffffffff811115612d1a57612d196124b1565b5b612d2684828501612cac565b600083015250602082015167ffffffffffffffff811115612d4a57612d496124b1565b5b612d5684828501612cac565b602083015250604082015167ffffffffffffffff811115612d7a57612d796124b1565b5b612d8684828501612cac565b604083015250606082015167ffffffffffffffff811115612daa57612da96124b1565b5b612db684828501612cac565b60608301525092915050565b600060208284031215612dd857612dd7612104565b5b600082015167ffffffffffffffff811115612df657612df5612109565b5b612e0284828501612cda565b91505092915050565b60007fffffffff0000000000000000000000000000000000000000000000000000000082169050919050565b612e4081612e0b565b82525050565b6000602082019050612e5b6000830184612e37565b92915050565b600073ffffffffffffffffffffffffffffffffffffffff82169050919050565b6000612e8c82612e61565b9050919050565b612e9c81612e81565b8114612ea757600080fd5b50565b600081519050612eb981612e93565b92915050565b600060208284031215612ed557612ed4612104565b5b6000612ee384828501612eaa565b91505092915050565b600081519050919050565b600081905092915050565b60005b83811015612f20578082015181840152602081019050612f05565b60008484015250505050565b6000612f3782612eec565b612f418185612ef7565b9350612f51818560208601612f02565b80840191505092915050565b6000612f698284612f2c565b915081905092915050565b7f4469616d6f6e6453746f726167654c69623a204d75737420626520636f6e747260008201527f616374206f776e65720000000000000000000000000000000000000000000000602082015250565b6000612fd0602983612a14565b9150612fdb82612f74565b604082019050919050565b60006020820190508181036000830152612fff81612fc3565b9050919050565b7f43616e6e6f74207374616b65203020746f6b656e730000000000000000000000600082015250565b600061303c601583612a14565b915061304782613006565b602082019050919050565b6000602082019050818103600083015261306b8161302f565b9050919050565b61307b81612e81565b82525050565b60006020820190506130966000830184613072565b92915050565b7f4c5020746f6b656e206e6f7420737570706f7274656400000000000000000000600082015250565b60006130d2601683612a14565b91506130dd8261309c565b602082019050919050565b60006020820190508181036000830152613101816130c5565b9050919050565b7f5661756c7420746f6b656e206e6f7420737570706f7274656400000000000000600082015250565b600061313e601983612a14565b915061314982613108565b602082019050919050565b6000602082019050818103600083015261316d81613131565b9050919050565b7f4e6f7420656e6f756768204c5020746f6b656e20617661696c61626c65000000600082015250565b60006131aa601d83612a14565b91506131b582613174565b602082019050919050565b600060208201905081810360008301526131d98161319d565b9050919050565b60006040820190506131f56000830185613072565b61320260208301846123fd565b9392505050565b60008115159050919050565b61321e81613209565b811461322957600080fd5b50565b60008151905061323b81613215565b92915050565b60006020828403121561325757613256612104565b5b60006132658482850161322c565b91505092915050565b600060408201905061328360008301856123fd565b61329060208301846123fd565b9392505050565b7f43616e6e6f7420756e7374616b65206d6f7265207468616e2077617320696e6960008201527f7469616c6c79207374616b656400000000000000000000000000000000000000602082015250565b60006132f3602d83612a14565b91506132fe82613297565b604082019050919050565b60006020820190508181036000830152613322816132e6565b9050919050565b7f4e487b7100000000000000000000000000000000000000000000000000000000600052601160045260246000fd5b600061336382612312565b915061336e83612312565b925082820190508082111561338657613385613329565b5b92915050565b600081519050919050565b60006133a28261338c565b6133ac8185612a14565b93506133bc818560208601612f02565b6133c581612113565b840191505092915050565b600060208201905081810360008301526133ea8184613397565b905092915050565b600082825260208201905092915050565b600061340e82612eec565b61341881856133f2565b9350613428818560208601612f02565b61343181612113565b840191505092915050565b600060208201905081810360008301526134568184613403565b905092915050565b7f53796d626f6c2063616e6e6f7420626520656d70747900000000000000000000600082015250565b6000613494601683612a14565b915061349f8261345e565b602082019050919050565b600060208201905081810360008301526134c381613487565b9050919050565b7f496e76616c696420416464726573735a65726f00000000000000000000000000600082015250565b6000613500601383612a14565b915061350b826134ca565b602082019050919050565b6000602082019050818103600083015261352f816134f3565b9050919050565b600061354182612312565b91507fffffffffffffffffffffffffffffffffffffffffffffffffffffffffffffffff820361357357613572613329565b5b600182019050919050565b600061358982612312565b915061359483612312565b92508282026135a281612312565b915082820484148315176135b9576135b8613329565b5b5092915050565b60006135cb82612312565b91506135d683612312565b92508282039050818111156135ee576135ed613329565b5b92915050565b7f4e487b7100000000000000000000000000000000000000000000000000000000600052603260045260246000fd5b7f4e487b7100000000000000000000000000000000000000000000000000000000600052603160045260246000fdfea264697066735822122043994eff7120c926354b54d86c9690ccf8863e7ae3c08ae10895a85094b1b15464736f6c63430008110033",
  "devdoc": {
    "events": {
      "Staked(address,bytes32,address,uint256,uint256)": {
        "details": "emitted when user stakes an asset",
        "params": {
          "amount": "of the asset that was staked",
          "asset": "the asset that was staked",
          "timestamp": "of staking*",
          "user": "the address executing staking",
          "vault": "address of the vault token"
        }
      },
      "Unstaked(address,bytes32,address,uint256,uint256)": {
        "details": "emitted when user unstakes an asset",
        "params": {
          "amount": "of the asset that was unstaked",
          "asset": "the asset that was unstaked",
          "timestamp": "of unstaking*",
          "user": "the address executing unstaking",
          "vault": "address of the vault token"
        }
      }
    },
    "kind": "dev",
    "methods": {
      "stakePngUsdcAvaxLpBeefy(uint256)": {
        "details": "This function uses the redstone-evm-connector",
        "params": {
          "amount": "amount of PNG_WAVAX_USDC_LP to be staked*"
        }
      },
      "stakePngUsdceAvaxLpBeefy(uint256)": {
        "details": "This function uses the redstone-evm-connector",
        "params": {
          "amount": "amount of PNG_AVAX_USDCe_LP to be staked*"
        }
      },
      "stakeTjUsdcAvaxLpBeefy(uint256)": {
        "details": "This function uses the redstone-evm-connector",
        "params": {
          "amount": "amount of TJ_WAVAX_USDC_LP to be staked*"
        }
      },
      "unstakePngUsdcAvaxLpBeefy(uint256)": {
        "details": "This function uses the redstone-evm-connector",
        "params": {
          "amount": "amount of PNG_WAVAX_USDC_LP to be unstaked*"
        }
      },
      "unstakePngUsdceAvaxLpBeefy(uint256)": {
        "details": "This function uses the redstone-evm-connector",
        "params": {
          "amount": "amount of PNG_AVAX_USDCe_LP to be unstaked*"
        }
      },
      "unstakeTjUsdcAvaxLpBeefy(uint256)": {
        "details": "This function uses the redstone-evm-connector",
        "params": {
          "amount": "amount of TJ_WAVAX_USDC_LP to be unstaked*"
        }
      }
    },
    "version": 1
  },
  "userdoc": {
    "kind": "user",
    "methods": {
      "stakePngUsdcAvaxLpBeefy(uint256)": {
        "notice": "Stakes PNG_WAVAX_USDC_LP in the Beefy protocol"
      },
      "stakePngUsdceAvaxLpBeefy(uint256)": {
        "notice": "Stakes PNG_AVAX_USDCe_LP in the Beefy protocol"
      },
      "stakeTjUsdcAvaxLpBeefy(uint256)": {
        "notice": "Stakes TJ_WAVAX_USDC_LP in the Beefy protocol"
      },
      "unstakePngUsdcAvaxLpBeefy(uint256)": {
        "notice": "Unstakes PNG_WAVAX_USDC_LP from the Beefy protocol"
      },
      "unstakePngUsdceAvaxLpBeefy(uint256)": {
        "notice": "Unstakes PNG_AVAX_USDCe_LP from the Beefy protocol"
      },
      "unstakeTjUsdcAvaxLpBeefy(uint256)": {
        "notice": "Untakes TJ_WAVAX_USDC_LP from the Beefy protocol"
      }
    },
    "version": 1
  },
  "storageLayout": {
    "storage": [
      {
        "astId": 9549,
        "contract": "contracts/facets/avalanche/BeefyFinanceAvalancheFacet.sol:BeefyFinanceAvalancheFacet",
        "label": "_status",
        "offset": 0,
        "slot": "0",
        "type": "t_uint256"
      }
    ],
    "types": {
      "t_uint256": {
        "encoding": "inplace",
        "label": "uint256",
        "numberOfBytes": "32"
      }
    }
  }
}