{
  "address": "0xd4412ac04f0BE797015D1aA970d08428C0750375",
  "abi": [
    {
      "anonymous": false,
      "inputs": [
        {
          "components": [
            {
              "internalType": "address",
              "name": "facetAddress",
              "type": "address"
            },
            {
              "internalType": "enum IDiamondCut.FacetCutAction",
              "name": "action",
              "type": "uint8"
            },
            {
              "internalType": "bytes4[]",
              "name": "functionSelectors",
              "type": "bytes4[]"
            }
          ],
          "indexed": false,
          "internalType": "struct IDiamondCut.FacetCut[]",
          "name": "_diamondCut",
          "type": "tuple[]"
        },
        {
          "indexed": false,
          "internalType": "address",
          "name": "_init",
          "type": "address"
        },
        {
          "indexed": false,
          "internalType": "bytes",
          "name": "_calldata",
          "type": "bytes"
        }
      ],
      "name": "DiamondCut",
      "type": "event"
    },
    {
      "inputs": [
        {
          "components": [
            {
              "internalType": "address",
              "name": "facetAddress",
              "type": "address"
            },
            {
              "internalType": "enum IDiamondCut.FacetCutAction",
              "name": "action",
              "type": "uint8"
            },
            {
              "internalType": "bytes4[]",
              "name": "functionSelectors",
              "type": "bytes4[]"
            }
          ],
          "internalType": "struct IDiamondCut.FacetCut[]",
          "name": "_diamondCut",
          "type": "tuple[]"
        },
        {
          "internalType": "address",
          "name": "_init",
          "type": "address"
        },
        {
          "internalType": "bytes",
          "name": "_calldata",
          "type": "bytes"
        }
      ],
      "name": "diamondCut",
      "outputs": [],
      "stateMutability": "nonpayable",
      "type": "function"
    },
    {
      "inputs": [],
      "name": "pause",
      "outputs": [],
      "stateMutability": "nonpayable",
      "type": "function"
    },
    {
      "inputs": [],
      "name": "unpause",
      "outputs": [],
      "stateMutability": "nonpayable",
      "type": "function"
    }
  ],
  "transactionHash": "0x1b03b85425856b1c6e16a2ba74f243fab4ffeb1e55dd764dca5090ece91910d5",
  "args": [],
  "numDeployments": 1,
  "solcInputHash": "1726b866dde0c28c9db70a53286d1d5d",
  "bytecode": "0x608060405234801561001057600080fd5b50612aad806100206000396000f3fe608060405234801561001057600080fd5b50600436106100415760003560e01c80631f931c1c146100465780633f4ba83a146100625780638456cb591461006c575b600080fd5b610060600480360381019061005b919061188a565b610076565b005b61006a61015d565b005b6100746101e3565b005b6000807fc8fcad8db84d3cc18b4c41d551ea0ee66dd599cde068d998e57d5e09332c131c90508091508160040160019054906101000a900460ff16156100f1576040517f08c379a00000000000000000000000000000000000000000000000000000000081526004016100e89061197c565b60405180910390fd5b6100f9610268565b6101548787906101099190611ca5565b8686868080601f016020809104026020016040519081016040528093929190818152602001838380828437600081840152601f19601f82011690508083019250505050505050610303565b50505050505050565b610165610268565b600061016f610532565b90508060040160019054906101000a900460ff16156101c3576040517f08c379a00000000000000000000000000000000000000000000000000000000081526004016101ba90611d2c565b60405180910390fd5b60018160040160016101000a81548160ff02191690831515021790555050565b6101eb610268565b60006101f5610532565b90508060040160019054906101000a900460ff16610248576040517f08c379a000000000000000000000000000000000000000000000000000000000815260040161023f90611d98565b60405180910390fd5b60008160040160016101000a81548160ff02191690831515021790555050565b61027061055f565b60000160009054906101000a900473ffffffffffffffffffffffffffffffffffffffff1673ffffffffffffffffffffffffffffffffffffffff163373ffffffffffffffffffffffffffffffffffffffff1614610301576040517f08c379a00000000000000000000000000000000000000000000000000000000081526004016102f890611e2a565b60405180910390fd5b565b60005b83518110156104e757600084828151811061032457610323611e4a565b5b60200260200101516020015190506000600281111561034657610345611e79565b5b81600281111561035957610358611e79565b5b036103a9576103a485838151811061037457610373611e4a565b5b60200260200101516000015186848151811061039357610392611e4a565b5b60200260200101516040015161058c565b6104d3565b600160028111156103bd576103bc611e79565b5b8160028111156103d0576103cf611e79565b5b036104205761041b8583815181106103eb576103ea611e4a565b5b60200260200101516000015186848151811061040a57610409611e4a565b5b602002602001015160400151610803565b6104d2565b60028081111561043357610432611e79565b5b81600281111561044657610445611e79565b5b036104965761049185838151811061046157610460611e4a565b5b6020026020010151600001518684815181106104805761047f611e4a565b5b602002602001015160400151610a84565b6104d1565b6040517f08c379a00000000000000000000000000000000000000000000000000000000081526004016104c890611f1a565b60405180910390fd5b5b5b5080806104df90611f73565b915050610306565b507f8faa70878671ccd212d20771b795c50af8fd3ff6cf27f4bde57e5d4de0aeb67383838360405161051b93929190612270565b60405180910390a161052d8282610c0f565b505050565b6000807fc8fcad8db84d3cc18b4c41d551ea0ee66dd599cde068d998e57d5e09332c131c90508091505090565b6000807f8d5bb42e0ac1496a2c326edc9c00758985246e6c2bb146d6c2f4a0d509e0960a90508091505090565b60008151116105d0576040517f08c379a00000000000000000000000000000000000000000000000000000000081526004016105c790612327565b60405180910390fd5b60006105da610532565b9050600073ffffffffffffffffffffffffffffffffffffffff168373ffffffffffffffffffffffffffffffffffffffff160361064b576040517f08c379a0000000000000000000000000000000000000000000000000000000008152600401610642906123b9565b60405180910390fd5b60008160010160008573ffffffffffffffffffffffffffffffffffffffff1673ffffffffffffffffffffffffffffffffffffffff1681526020019081526020016000206000018054905090506000816bffffffffffffffffffffffff16036106b8576106b78285610e21565b5b60005b83518110156107fc5760008482815181106106d9576106d8611e4a565b5b602002602001015190506000846000016000837bffffffffffffffffffffffffffffffffffffffffffffffffffffffff19167bffffffffffffffffffffffffffffffffffffffffffffffffffffffff1916815260200190815260200160002060000160009054906101000a900473ffffffffffffffffffffffffffffffffffffffff169050600073ffffffffffffffffffffffffffffffffffffffff168173ffffffffffffffffffffffffffffffffffffffff16146107cd576040517f08c379a00000000000000000000000000000000000000000000000000000000081526004016107c49061244b565b60405180910390fd5b6107d98583868a610efc565b83806107e490612483565b945050505080806107f490611f73565b9150506106bb565b5050505050565b6000815111610847576040517f08c379a000000000000000000000000000000000000000000000000000000000815260040161083e90612327565b60405180910390fd5b6000610851610532565b9050600073ffffffffffffffffffffffffffffffffffffffff168373ffffffffffffffffffffffffffffffffffffffff16036108c2576040517f08c379a00000000000000000000000000000000000000000000000000000000081526004016108b9906123b9565b60405180910390fd5b60008160010160008573ffffffffffffffffffffffffffffffffffffffff1673ffffffffffffffffffffffffffffffffffffffff1681526020019081526020016000206000018054905090506000816bffffffffffffffffffffffff160361092f5761092e8285610e21565b5b60005b8351811015610a7d5760008482815181106109505761094f611e4a565b5b602002602001015190506000846000016000837bffffffffffffffffffffffffffffffffffffffffffffffffffffffff19167bffffffffffffffffffffffffffffffffffffffffffffffffffffffff1916815260200190815260200160002060000160009054906101000a900473ffffffffffffffffffffffffffffffffffffffff1690508673ffffffffffffffffffffffffffffffffffffffff168173ffffffffffffffffffffffffffffffffffffffff1603610a43576040517f08c379a0000000000000000000000000000000000000000000000000000000008152600401610a3a90612529565b60405180910390fd5b610a4e8582846110a9565b610a5a8583868a610efc565b8380610a6590612483565b94505050508080610a7590611f73565b915050610932565b5050505050565b6000815111610ac8576040517f08c379a0000000000000000000000000000000000000000000000000000000008152600401610abf90612327565b60405180910390fd5b6000610ad2610532565b9050600073ffffffffffffffffffffffffffffffffffffffff168373ffffffffffffffffffffffffffffffffffffffff1614610b43576040517f08c379a0000000000000000000000000000000000000000000000000000000008152600401610b3a906125bb565b60405180910390fd5b60005b8251811015610c09576000838281518110610b6457610b63611e4a565b5b602002602001015190506000836000016000837bffffffffffffffffffffffffffffffffffffffffffffffffffffffff19167bffffffffffffffffffffffffffffffffffffffffffffffffffffffff1916815260200190815260200160002060000160009054906101000a900473ffffffffffffffffffffffffffffffffffffffff169050610bf48482846110a9565b50508080610c0190611f73565b915050610b46565b50505050565b600073ffffffffffffffffffffffffffffffffffffffff168273ffffffffffffffffffffffffffffffffffffffff1603610c8c576000815114610c87576040517f08c379a0000000000000000000000000000000000000000000000000000000008152600401610c7e90612673565b60405180910390fd5b610e1d565b6000815111610cd0576040517f08c379a0000000000000000000000000000000000000000000000000000000008152600401610cc79061272b565b60405180910390fd5b3073ffffffffffffffffffffffffffffffffffffffff168273ffffffffffffffffffffffffffffffffffffffff1614610d2657610d25826040518060600160405280602f8152602001612a49602f913961170b565b5b6000808373ffffffffffffffffffffffffffffffffffffffff1683604051610d4e9190612787565b600060405180830381855af49150503d8060008114610d89576040519150601f19603f3d011682016040523d82523d6000602084013e610d8e565b606091505b509150915081610e1a57600081511115610ddf57806040517f08c379a0000000000000000000000000000000000000000000000000000000008152600401610dd691906127e2565b60405180910390fd5b6040517f08c379a0000000000000000000000000000000000000000000000000000000008152600401610e1190612876565b60405180910390fd5b50505b5050565b610e43816040518060600160405280602b8152602001612a1e602b913961170b565b81600201805490508260010160008373ffffffffffffffffffffffffffffffffffffffff1673ffffffffffffffffffffffffffffffffffffffff1681526020019081526020016000206001018190555081600201819080600181540180825580915050600190039060005260206000200160009091909190916101000a81548173ffffffffffffffffffffffffffffffffffffffff021916908373ffffffffffffffffffffffffffffffffffffffff1602179055505050565b81846000016000857bffffffffffffffffffffffffffffffffffffffffffffffffffffffff19167bffffffffffffffffffffffffffffffffffffffffffffffffffffffff1916815260200190815260200160002060000160146101000a8154816bffffffffffffffffffffffff02191690836bffffffffffffffffffffffff1602179055508360010160008273ffffffffffffffffffffffffffffffffffffffff1673ffffffffffffffffffffffffffffffffffffffff1681526020019081526020016000206000018390806001815401808255809150506001900390600052602060002090600891828204019190066004029091909190916101000a81548163ffffffff021916908360e01c021790555080846000016000857bffffffffffffffffffffffffffffffffffffffffffffffffffffffff19167bffffffffffffffffffffffffffffffffffffffffffffffffffffffff1916815260200190815260200160002060000160006101000a81548173ffffffffffffffffffffffffffffffffffffffff021916908373ffffffffffffffffffffffffffffffffffffffff16021790555050505050565b600073ffffffffffffffffffffffffffffffffffffffff168273ffffffffffffffffffffffffffffffffffffffff1603611118576040517f08c379a000000000000000000000000000000000000000000000000000000000815260040161110f90612908565b60405180910390fd5b3073ffffffffffffffffffffffffffffffffffffffff168273ffffffffffffffffffffffffffffffffffffffff1603611186576040517f08c379a000000000000000000000000000000000000000000000000000000000815260040161117d9061299a565b60405180910390fd5b6000836000016000837bffffffffffffffffffffffffffffffffffffffffffffffffffffffff19167bffffffffffffffffffffffffffffffffffffffffffffffffffffffff1916815260200190815260200160002060000160149054906101000a90046bffffffffffffffffffffffff166bffffffffffffffffffffffff169050600060018560010160008673ffffffffffffffffffffffffffffffffffffffff1673ffffffffffffffffffffffffffffffffffffffff1681526020019081526020016000206000018054905061125d91906129ba565b90508082146113f15760008560010160008673ffffffffffffffffffffffffffffffffffffffff1673ffffffffffffffffffffffffffffffffffffffff16815260200190815260200160002060000182815481106112be576112bd611e4a565b5b90600052602060002090600891828204019190066004029054906101000a900460e01b9050808660010160008773ffffffffffffffffffffffffffffffffffffffff1673ffffffffffffffffffffffffffffffffffffffff168152602001908152602001600020600001848154811061133a57611339611e4a565b5b90600052602060002090600891828204019190066004026101000a81548163ffffffff021916908360e01c021790555082866000016000837bffffffffffffffffffffffffffffffffffffffffffffffffffffffff19167bffffffffffffffffffffffffffffffffffffffffffffffffffffffff1916815260200190815260200160002060000160146101000a8154816bffffffffffffffffffffffff02191690836bffffffffffffffffffffffff160217905550505b8460010160008573ffffffffffffffffffffffffffffffffffffffff1673ffffffffffffffffffffffffffffffffffffffff168152602001908152602001600020600001805480611445576114446129ee565b5b60019003818190600052602060002090600891828204019190066004026101000a81549063ffffffff02191690559055846000016000847bffffffffffffffffffffffffffffffffffffffffffffffffffffffff19167bffffffffffffffffffffffffffffffffffffffffffffffffffffffff19168152602001908152602001600020600080820160006101000a81549073ffffffffffffffffffffffffffffffffffffffff02191690556000820160146101000a8154906bffffffffffffffffffffffff02191690555050600081036117045760006001866002018054905061152f91906129ba565b905060008660010160008773ffffffffffffffffffffffffffffffffffffffff1673ffffffffffffffffffffffffffffffffffffffff16815260200190815260200160002060010154905081811461167057600087600201838154811061159957611598611e4a565b5b9060005260206000200160009054906101000a900473ffffffffffffffffffffffffffffffffffffffff169050808860020183815481106115dd576115dc611e4a565b5b9060005260206000200160006101000a81548173ffffffffffffffffffffffffffffffffffffffff021916908373ffffffffffffffffffffffffffffffffffffffff160217905550818860010160008373ffffffffffffffffffffffffffffffffffffffff1673ffffffffffffffffffffffffffffffffffffffff16815260200190815260200160002060010181905550505b86600201805480611684576116836129ee565b5b6001900381819060005260206000200160006101000a81549073ffffffffffffffffffffffffffffffffffffffff021916905590558660010160008773ffffffffffffffffffffffffffffffffffffffff1673ffffffffffffffffffffffffffffffffffffffff1681526020019081526020016000206001016000905550505b5050505050565b6000823b9050600081118290611757576040517f08c379a000000000000000000000000000000000000000000000000000000000815260040161174e91906127e2565b60405180910390fd5b50505050565b6000604051905090565b600080fd5b600080fd5b600080fd5b600080fd5b600080fd5b60008083601f84011261179657611795611771565b5b8235905067ffffffffffffffff8111156117b3576117b2611776565b5b6020830191508360208202830111156117cf576117ce61177b565b5b9250929050565b600073ffffffffffffffffffffffffffffffffffffffff82169050919050565b6000611801826117d6565b9050919050565b611811816117f6565b811461181c57600080fd5b50565b60008135905061182e81611808565b92915050565b60008083601f84011261184a57611849611771565b5b8235905067ffffffffffffffff81111561186757611866611776565b5b6020830191508360018202830111156118835761188261177b565b5b9250929050565b6000806000806000606086880312156118a6576118a5611767565b5b600086013567ffffffffffffffff8111156118c4576118c361176c565b5b6118d088828901611780565b955095505060206118e38882890161181f565b935050604086013567ffffffffffffffff8111156119045761190361176c565b5b61191088828901611834565b92509250509295509295909350565b600082825260208201905092915050565b7f50726f746f636f6c557067726164653a206e6f74207061757365642e00000000600082015250565b6000611966601c8361191f565b915061197182611930565b602082019050919050565b6000602082019050818103600083015261199581611959565b9050919050565b6000601f19601f8301169050919050565b7f4e487b7100000000000000000000000000000000000000000000000000000000600052604160045260246000fd5b6119e58261199c565b810181811067ffffffffffffffff82111715611a0457611a036119ad565b5b80604052505050565b6000611a1761175d565b9050611a2382826119dc565b919050565b600067ffffffffffffffff821115611a4357611a426119ad565b5b602082029050602081019050919050565b600080fd5b600080fd5b60038110611a6b57600080fd5b50565b600081359050611a7d81611a5e565b92915050565b600067ffffffffffffffff821115611a9e57611a9d6119ad565b5b602082029050602081019050919050565b60007fffffffff0000000000000000000000000000000000000000000000000000000082169050919050565b611ae481611aaf565b8114611aef57600080fd5b50565b600081359050611b0181611adb565b92915050565b6000611b1a611b1584611a83565b611a0d565b90508083825260208201905060208402830185811115611b3d57611b3c61177b565b5b835b81811015611b665780611b528882611af2565b845260208401935050602081019050611b3f565b5050509392505050565b600082601f830112611b8557611b84611771565b5b8135611b95848260208601611b07565b91505092915050565b600060608284031215611bb457611bb3611a54565b5b611bbe6060611a0d565b90506000611bce8482850161181f565b6000830152506020611be284828501611a6e565b602083015250604082013567ffffffffffffffff811115611c0657611c05611a59565b5b611c1284828501611b70565b60408301525092915050565b6000611c31611c2c84611a28565b611a0d565b90508083825260208201905060208402830185811115611c5457611c5361177b565b5b835b81811015611c9b57803567ffffffffffffffff811115611c7957611c78611771565b5b808601611c868982611b9e565b85526020850194505050602081019050611c56565b5050509392505050565b6000611cb2368484611c1e565b905092915050565b7f50726f746f636f6c557067726164653a20616c726561647920756e706175736560008201527f642e000000000000000000000000000000000000000000000000000000000000602082015250565b6000611d1660228361191f565b9150611d2182611cba565b604082019050919050565b60006020820190508181036000830152611d4581611d09565b9050919050565b7f50726f746f636f6c557067726164653a20616c7265616479207061757365642e600082015250565b6000611d8260208361191f565b9150611d8d82611d4c565b602082019050919050565b60006020820190508181036000830152611db181611d75565b9050919050565b7f4469616d6f6e6453746f726167654c69623a204d75737420626520636f6e747260008201527f616374206f776e65720000000000000000000000000000000000000000000000602082015250565b6000611e1460298361191f565b9150611e1f82611db8565b604082019050919050565b60006020820190508181036000830152611e4381611e07565b9050919050565b7f4e487b7100000000000000000000000000000000000000000000000000000000600052603260045260246000fd5b7f4e487b7100000000000000000000000000000000000000000000000000000000600052602160045260246000fd5b7f4469616d6f6e6453746f726167654c69624375743a20496e636f72726563742060008201527f4661636574437574416374696f6e000000000000000000000000000000000000602082015250565b6000611f04602e8361191f565b9150611f0f82611ea8565b604082019050919050565b60006020820190508181036000830152611f3381611ef7565b9050919050565b7f4e487b7100000000000000000000000000000000000000000000000000000000600052601160045260246000fd5b6000819050919050565b6000611f7e82611f69565b91507fffffffffffffffffffffffffffffffffffffffffffffffffffffffffffffffff8203611fb057611faf611f3a565b5b600182019050919050565b600081519050919050565b600082825260208201905092915050565b6000819050602082019050919050565b611ff0816117f6565b82525050565b6003811061200757612006611e79565b5b50565b600081905061201882611ff6565b919050565b60006120288261200a565b9050919050565b6120388161201d565b82525050565b600081519050919050565b600082825260208201905092915050565b6000819050602082019050919050565b61207381611aaf565b82525050565b6000612085838361206a565b60208301905092915050565b6000602082019050919050565b60006120a98261203e565b6120b38185612049565b93506120be8361205a565b8060005b838110156120ef5781516120d68882612079565b97506120e183612091565b9250506001810190506120c2565b5085935050505092915050565b60006060830160008301516121146000860182611fe7565b506020830151612127602086018261202f565b506040830151848203604086015261213f828261209e565b9150508091505092915050565b600061215883836120fc565b905092915050565b6000602082019050919050565b600061217882611fbb565b6121828185611fc6565b93508360208202850161219485611fd7565b8060005b858110156121d057848403895281516121b1858261214c565b94506121bc83612160565b925060208a01995050600181019050612198565b50829750879550505050505092915050565b6121eb816117f6565b82525050565b600081519050919050565b600082825260208201905092915050565b60005b8381101561222b578082015181840152602081019050612210565b60008484015250505050565b6000612242826121f1565b61224c81856121fc565b935061225c81856020860161220d565b6122658161199c565b840191505092915050565b6000606082019050818103600083015261228a818661216d565b905061229960208301856121e2565b81810360408301526122ab8184612237565b9050949350505050565b7f4469616d6f6e6453746f726167654c69624375743a204e6f2073656c6563746f60008201527f727320696e20666163657420746f206375740000000000000000000000000000602082015250565b600061231160328361191f565b915061231c826122b5565b604082019050919050565b6000602082019050818103600083015261234081612304565b9050919050565b7f4469616d6f6e6453746f726167654c69624375743a204164642066616365742060008201527f63616e2774206265206164647265737328302900000000000000000000000000602082015250565b60006123a360338361191f565b91506123ae82612347565b604082019050919050565b600060208201905081810360008301526123d281612396565b9050919050565b7f4469616d6f6e6453746f726167654c69624375743a2043616e2774206164642060008201527f66756e6374696f6e207468617420616c72656164792065786973747300000000602082015250565b6000612435603c8361191f565b9150612440826123d9565b604082019050919050565b6000602082019050818103600083015261246481612428565b9050919050565b60006bffffffffffffffffffffffff82169050919050565b600061248e8261246b565b91506bffffffffffffffffffffffff82036124ac576124ab611f3a565b5b600182019050919050565b7f4469616d6f6e6453746f726167654c69624375743a2043616e2774207265706c60008201527f6163652066756e6374696f6e20776974682073616d652066756e6374696f6e00602082015250565b6000612513603f8361191f565b915061251e826124b7565b604082019050919050565b6000602082019050818103600083015261254281612506565b9050919050565b7f4469616d6f6e6453746f726167654c69624375743a2052656d6f76652066616360008201527f65742061646472657373206d7573742062652061646472657373283029000000602082015250565b60006125a5603d8361191f565b91506125b082612549565b604082019050919050565b600060208201905081810360008301526125d481612598565b9050919050565b7f4469616d6f6e6453746f726167654c69624375743a205f696e6974206973206160008201527f646472657373283029206275745f63616c6c64617461206973206e6f7420656d60208201527f7074790000000000000000000000000000000000000000000000000000000000604082015250565b600061265d60438361191f565b9150612668826125db565b606082019050919050565b6000602082019050818103600083015261268c81612650565b9050919050565b7f4469616d6f6e6453746f726167654c69624375743a205f63616c6c646174612060008201527f697320656d70747920627574205f696e6974206973206e6f742061646472657360208201527f7328302900000000000000000000000000000000000000000000000000000000604082015250565b600061271560448361191f565b915061272082612693565b606082019050919050565b6000602082019050818103600083015261274481612708565b9050919050565b600081905092915050565b6000612761826121f1565b61276b818561274b565b935061277b81856020860161220d565b80840191505092915050565b60006127938284612756565b915081905092915050565b600081519050919050565b60006127b48261279e565b6127be818561191f565b93506127ce81856020860161220d565b6127d78161199c565b840191505092915050565b600060208201905081810360008301526127fc81846127a9565b905092915050565b7f4469616d6f6e6453746f726167654c69624375743a205f696e69742066756e6360008201527f74696f6e20726576657274656400000000000000000000000000000000000000602082015250565b6000612860602d8361191f565b915061286b82612804565b604082019050919050565b6000602082019050818103600083015261288f81612853565b9050919050565b7f4469616d6f6e6453746f726167654c69624375743a2043616e27742072656d6f60008201527f76652066756e6374696f6e207468617420646f65736e27742065786973740000602082015250565b60006128f2603e8361191f565b91506128fd82612896565b604082019050919050565b60006020820190508181036000830152612921816128e5565b9050919050565b7f4469616d6f6e6453746f726167654c69624375743a2043616e27742072656d6f60008201527f766520696d6d757461626c652066756e6374696f6e0000000000000000000000602082015250565b600061298460358361191f565b915061298f82612928565b604082019050919050565b600060208201905081810360008301526129b381612977565b9050919050565b60006129c582611f69565b91506129d083611f69565b92508282039050818111156129e8576129e7611f3a565b5b92915050565b7f4e487b7100000000000000000000000000000000000000000000000000000000600052603160045260246000fdfe4469616d6f6e6453746f726167654c69624375743a204e657720666163657420686173206e6f20636f64654469616d6f6e6453746f726167654c69624375743a205f696e6974206164647265737320686173206e6f20636f6465a26469706673582212208b2eef4b1646b85b44000b730777898669006a99e2ab8c8d816cff3be01324b964736f6c63430008110033",
  "libraries": {},
  "devdoc": {
    "kind": "dev",
    "methods": {
      "diamondCut((address,uint8,bytes4[])[],address,bytes)": {
        "params": {
          "_calldata": "A function call, including function selector and arguments                  _calldata is executed with delegatecall on _init",
          "_diamondCut": "Contains the facet addresses and function selectors",
          "_init": "The address of the contract or facet to execute _calldata"
        }
      }
    },
    "version": 1
  },
  "userdoc": {
    "kind": "user",
    "methods": {
      "diamondCut((address,uint8,bytes4[])[],address,bytes)": {
        "notice": "Add/replace/remove any number of functions and optionally execute         a function with delegatecall"
      }
    },
    "version": 1
  },
  "storageLayout": {
    "storage": [],
    "types": null
  }
}