{
  "address": "0x5d3E1eC30C7Da51600722b881525C7288BE2dAC6",
  "abi": [
    {
      "anonymous": false,
      "inputs": [
        {
          "indexed": true,
          "internalType": "address",
          "name": "previousOwner",
          "type": "address"
        },
        {
          "indexed": true,
          "internalType": "address",
          "name": "newOwner",
          "type": "address"
        }
      ],
      "name": "OwnershipTransferred",
      "type": "event"
    },
    {
      "anonymous": false,
      "inputs": [
        {
          "indexed": true,
          "internalType": "address",
          "name": "user",
          "type": "address"
        },
        {
          "indexed": false,
          "internalType": "address",
          "name": "token",
          "type": "address"
        },
        {
          "indexed": false,
          "internalType": "uint256",
          "name": "timestamp",
          "type": "uint256"
        }
      ],
      "name": "TokenDelisted",
      "type": "event"
    },
    {
      "anonymous": false,
      "inputs": [
        {
          "indexed": true,
          "internalType": "address",
          "name": "user",
          "type": "address"
        },
        {
          "indexed": false,
          "internalType": "address",
          "name": "token",
          "type": "address"
        },
        {
          "indexed": false,
          "internalType": "uint256",
          "name": "timestamp",
          "type": "uint256"
        }
      ],
      "name": "TokenWhitelisted",
      "type": "event"
    },
    {
      "inputs": [
        {
          "internalType": "address",
          "name": "tokenA",
          "type": "address"
        },
        {
          "internalType": "address",
          "name": "tokenB",
          "type": "address"
        },
        {
          "internalType": "uint256",
          "name": "amountA",
          "type": "uint256"
        },
        {
          "internalType": "uint256",
          "name": "amountB",
          "type": "uint256"
        },
        {
          "internalType": "uint256",
          "name": "amountAMin",
          "type": "uint256"
        },
        {
          "internalType": "uint256",
          "name": "amountBMin",
          "type": "uint256"
        }
      ],
      "name": "addLiquidity",
      "outputs": [
        {
          "internalType": "address",
          "name": "",
          "type": "address"
        },
        {
          "internalType": "uint256",
          "name": "",
          "type": "uint256"
        },
        {
          "internalType": "uint256",
          "name": "",
          "type": "uint256"
        },
        {
          "internalType": "uint256",
          "name": "",
          "type": "uint256"
        }
      ],
      "stateMutability": "nonpayable",
      "type": "function"
    },
    {
      "inputs": [
        {
          "internalType": "address[]",
          "name": "tokensToDelist",
          "type": "address[]"
        }
      ],
      "name": "delistTokens",
      "outputs": [],
      "stateMutability": "nonpayable",
      "type": "function"
    },
    {
      "inputs": [],
      "name": "getAllWhitelistedTokens",
      "outputs": [
        {
          "internalType": "address[]",
          "name": "",
          "type": "address[]"
        }
      ],
      "stateMutability": "view",
      "type": "function"
    },
    {
      "inputs": [
        {
          "internalType": "uint256",
          "name": "_amountIn",
          "type": "uint256"
        },
        {
          "internalType": "address",
          "name": "_soldToken",
          "type": "address"
        },
        {
          "internalType": "address",
          "name": "_boughtToken",
          "type": "address"
        }
      ],
      "name": "getMaximumTokensReceived",
      "outputs": [
        {
          "internalType": "uint256",
          "name": "",
          "type": "uint256"
        }
      ],
      "stateMutability": "view",
      "type": "function"
    },
    {
      "inputs": [
        {
          "internalType": "uint256",
          "name": "_exactAmountOut",
          "type": "uint256"
        },
        {
          "internalType": "address",
          "name": "_soldToken",
          "type": "address"
        },
        {
          "internalType": "address",
          "name": "_boughtToken",
          "type": "address"
        }
      ],
      "name": "getMinimumTokensNeeded",
      "outputs": [
        {
          "internalType": "uint256",
          "name": "",
          "type": "uint256"
        }
      ],
      "stateMutability": "view",
      "type": "function"
    },
    {
      "inputs": [
        {
          "internalType": "address",
          "name": "_token1",
          "type": "address"
        },
        {
          "internalType": "address",
          "name": "_token2",
          "type": "address"
        }
      ],
      "name": "getPair",
      "outputs": [
        {
          "internalType": "address",
          "name": "",
          "type": "address"
        }
      ],
      "stateMutability": "view",
      "type": "function"
    },
    {
      "inputs": [
        {
          "internalType": "address",
          "name": "_router",
          "type": "address"
        },
        {
          "internalType": "address[]",
          "name": "_whitelistedTokens",
          "type": "address[]"
        }
      ],
      "name": "initialize",
      "outputs": [],
      "stateMutability": "nonpayable",
      "type": "function"
    },
    {
      "inputs": [],
      "name": "owner",
      "outputs": [
        {
          "internalType": "address",
          "name": "",
          "type": "address"
        }
      ],
      "stateMutability": "view",
      "type": "function"
    },
    {
      "inputs": [
        {
          "internalType": "address",
          "name": "tokenA",
          "type": "address"
        },
        {
          "internalType": "address",
          "name": "tokenB",
          "type": "address"
        },
        {
          "internalType": "uint256",
          "name": "liquidity",
          "type": "uint256"
        },
        {
          "internalType": "uint256",
          "name": "amountA",
          "type": "uint256"
        },
        {
          "internalType": "uint256",
          "name": "amountB",
          "type": "uint256"
        }
      ],
      "name": "removeLiquidity",
      "outputs": [
        {
          "internalType": "uint256",
          "name": "",
          "type": "uint256"
        },
        {
          "internalType": "uint256",
          "name": "",
          "type": "uint256"
        }
      ],
      "stateMutability": "nonpayable",
      "type": "function"
    },
    {
      "inputs": [],
      "name": "renounceOwnership",
      "outputs": [],
      "stateMutability": "nonpayable",
      "type": "function"
    },
    {
      "inputs": [
        {
          "internalType": "address",
          "name": "_soldToken",
          "type": "address"
        },
        {
          "internalType": "address",
          "name": "_boughtToken",
          "type": "address"
        },
        {
          "internalType": "uint256",
          "name": "_exactSold",
          "type": "uint256"
        },
        {
          "internalType": "uint256",
          "name": "_minimumBought",
          "type": "uint256"
        }
      ],
      "name": "swap",
      "outputs": [
        {
          "internalType": "uint256[]",
          "name": "amounts",
          "type": "uint256[]"
        }
      ],
      "stateMutability": "nonpayable",
      "type": "function"
    },
    {
      "inputs": [
        {
          "internalType": "address",
          "name": "newOwner",
          "type": "address"
        }
      ],
      "name": "transferOwnership",
      "outputs": [],
      "stateMutability": "nonpayable",
      "type": "function"
    },
    {
      "inputs": [
        {
          "internalType": "address[]",
          "name": "tokensToWhitelist",
          "type": "address[]"
        }
      ],
      "name": "whitelistTokens",
      "outputs": [],
      "stateMutability": "nonpayable",
      "type": "function"
    },
    {
      "stateMutability": "payable",
      "type": "receive"
    }
  ],
  "transactionHash": "0x5df0b30f57b79b0dd458b07807c55b751126b529a604753850c89478e369b025",
  "args": [],
  "numDeployments": 1,
  "solcInputHash": "8e73999978b983f1a2b8193d45b6a97f",
  "bytecode": "0x608060405234801561001057600080fd5b5060016068819055506144c7806100286000396000f3fe6080604052600436106100c65760003560e01c806390e292fd1161007f578063e2dc85dc11610059578063e2dc85dc14610274578063e6a43905146102b2578063f2fde38b146102ef578063fe02915614610318576100cd565b806390e292fd146101f7578063946d9204146102205780639991033c14610249576100cd565b80631197e9c7146100d257806319b9fbbf1461010f5780633351733f1461014c5780634cb1e9e31461018c578063715018a6146101b55780638da5cb5b146101cc576100cd565b366100cd57005b600080fd5b3480156100de57600080fd5b506100f960048036038101906100f49190612ae3565b610355565b6040516101069190612b45565b60405180910390f35b34801561011b57600080fd5b5061013660048036038101906101319190612ae3565b610503565b6040516101439190612b45565b60405180910390f35b34801561015857600080fd5b50610173600480360381019061016e9190612b60565b6105da565b6040516101839493929190612bfc565b60405180910390f35b34801561019857600080fd5b506101b360048036038101906101ae9190612d9a565b610c61565b005b3480156101c157600080fd5b506101ca610d64565b005b3480156101d857600080fd5b506101e1610dec565b6040516101ee9190612de3565b60405180910390f35b34801561020357600080fd5b5061021e60048036038101906102199190612d9a565b610e16565b005b34801561022c57600080fd5b5061024760048036038101906102429190612dfe565b610f19565b005b34801561025557600080fd5b5061025e61111a565b60405161026b9190612f18565b60405180910390f35b34801561028057600080fd5b5061029b60048036038101906102969190612f3a565b6111a8565b6040516102a9929190612fb5565b60405180910390f35b3480156102be57600080fd5b506102d960048036038101906102d49190612fde565b611746565b6040516102e69190612de3565b60405180910390f35b3480156102fb57600080fd5b506103166004803603810190610311919061301e565b6117ee565b005b34801561032457600080fd5b5061033f600480360381019061033a919061304b565b6118e5565b60405161034c9190613170565b60405180910390f35b6000806103628484611c72565b9050600080606960009054906101000a900473ffffffffffffffffffffffffffffffffffffffff1673ffffffffffffffffffffffffffffffffffffffff1687846040516024016103b3929190613192565b6040516020818303038152906040527f1f00ca74000000000000000000000000000000000000000000000000000000007bffffffffffffffffffffffffffffffffffffffffffffffffffffffff19166020820180517bffffffffffffffffffffffffffffffffffffffffffffffffffffffff838183161783525050505060405161043d9190613233565b600060405180830381855afa9150503d8060008114610478576040519150601f19603f3d011682016040523d82523d6000602084013e61047d565b606091505b5091509150816104c2576040517f08c379a00000000000000000000000000000000000000000000000000000000081526004016104b9906132cd565b60405180910390fd5b6000818060200190518101906104d891906133c5565b9050806000815181106104ee576104ed61340e565b5b60200260200101519450505050509392505050565b6000806105108484611c72565b9050606960009054906101000a900473ffffffffffffffffffffffffffffffffffffffff1673ffffffffffffffffffffffffffffffffffffffff1663d06ca61f86836040518363ffffffff1660e01b815260040161056f929190613192565b600060405180830381865afa15801561058c573d6000803e3d6000fd5b505050506040513d6000823e3d601f19601f820116820180604052508101906105b591906133c5565b6001815181106105c8576105c761340e565b5b60200260200101519150509392505050565b60008060008060006105ea611f2a565b90506002816000015403610633576040517f08c379a000000000000000000000000000000000000000000000000000000000815260040161062a90613489565b60405180910390fd5b6002816000018190555060008911610680576040517f08c379a00000000000000000000000000000000000000000000000000000000081526004016106779061351b565b60405180910390fd5b600088116106c3576040517f08c379a00000000000000000000000000000000000000000000000000000000081526004016106ba906135ad565b60405180910390fd5b60008711610706576040517f08c379a00000000000000000000000000000000000000000000000000000000081526004016106fd9061363f565b60405180910390fd5b60008611610749576040517f08c379a0000000000000000000000000000000000000000000000000000000008152600401610740906136d1565b60405180910390fd5b610796606960009054906101000a900473ffffffffffffffffffffffffffffffffffffffff168a8d73ffffffffffffffffffffffffffffffffffffffff16611f579092919063ffffffff16565b6107e3606960009054906101000a900473ffffffffffffffffffffffffffffffffffffffff16898c73ffffffffffffffffffffffffffffffffffffffff16611f579092919063ffffffff16565b60006107ef8c8c611746565b9050606560008d73ffffffffffffffffffffffffffffffffffffffff1673ffffffffffffffffffffffffffffffffffffffff16815260200190815260200160002060009054906101000a900460ff1661087d576040517f08c379a00000000000000000000000000000000000000000000000000000000081526004016108749061373d565b60405180910390fd5b606560008c73ffffffffffffffffffffffffffffffffffffffff1673ffffffffffffffffffffffffffffffffffffffff16815260200190815260200160002060009054906101000a900460ff16610909576040517f08c379a00000000000000000000000000000000000000000000000000000000081526004016109009061373d565b60405180910390fd5b606560008273ffffffffffffffffffffffffffffffffffffffff1673ffffffffffffffffffffffffffffffffffffffff16815260200190815260200160002060009054906101000a900460ff16610995576040517f08c379a000000000000000000000000000000000000000000000000000000000815260040161098c906137cf565b60405180910390fd5b6000606960009054906101000a900473ffffffffffffffffffffffffffffffffffffffff1673ffffffffffffffffffffffffffffffffffffffff1663e8e337008e8e8e8e8e8e30426040518963ffffffff1660e01b8152600401610a009897969594939291906137ef565b6060604051808303816000875af1158015610a1f573d6000803e3d6000fd5b505050506040513d601f19601f82011682018060405250810190610a43919061386d565b809350819c50829d50505050610af3338373ffffffffffffffffffffffffffffffffffffffff166370a08231306040518263ffffffff1660e01b8152600401610a8c9190612de3565b602060405180830381865afa158015610aa9573d6000803e3d6000fd5b505050506040513d601f19601f82011682018060405250810190610acd91906138c0565b8473ffffffffffffffffffffffffffffffffffffffff1661208d9092919063ffffffff16565b610b97338e73ffffffffffffffffffffffffffffffffffffffff166370a08231306040518263ffffffff1660e01b8152600401610b309190612de3565b602060405180830381865afa158015610b4d573d6000803e3d6000fd5b505050506040513d601f19601f82011682018060405250810190610b7191906138c0565b8f73ffffffffffffffffffffffffffffffffffffffff1661208d9092919063ffffffff16565b610c3b338d73ffffffffffffffffffffffffffffffffffffffff166370a08231306040518263ffffffff1660e01b8152600401610bd49190612de3565b602060405180830381865afa158015610bf1573d6000803e3d6000fd5b505050506040513d601f19601f82011682018060405250810190610c1591906138c0565b8e73ffffffffffffffffffffffffffffffffffffffff1661208d9092919063ffffffff16565b818b8b839650965096509650505060018160000181905550509650965096509692505050565b610c696121c3565b73ffffffffffffffffffffffffffffffffffffffff16610c87610dec565b73ffffffffffffffffffffffffffffffffffffffff1614610cdd576040517f08c379a0000000000000000000000000000000000000000000000000000000008152600401610cd490613939565b60405180910390fd5b60005b8151811015610d6057610d0e828281518110610cff57610cfe61340e565b5b602002602001015160016121cb565b610d4d576040517f08c379a0000000000000000000000000000000000000000000000000000000008152600401610d44906139a5565b60405180910390fd5b8080610d58906139f4565b915050610ce0565b5050565b610d6c6121c3565b73ffffffffffffffffffffffffffffffffffffffff16610d8a610dec565b73ffffffffffffffffffffffffffffffffffffffff1614610de0576040517f08c379a0000000000000000000000000000000000000000000000000000000008152600401610dd790613939565b60405180910390fd5b610dea6000612441565b565b6000603360009054906101000a900473ffffffffffffffffffffffffffffffffffffffff16905090565b610e1e6121c3565b73ffffffffffffffffffffffffffffffffffffffff16610e3c610dec565b73ffffffffffffffffffffffffffffffffffffffff1614610e92576040517f08c379a0000000000000000000000000000000000000000000000000000000008152600401610e8990613939565b60405180910390fd5b60005b8151811015610f1557610ec3828281518110610eb457610eb361340e565b5b60200260200101516001612507565b610f02576040517f08c379a0000000000000000000000000000000000000000000000000000000008152600401610ef990613a88565b60405180910390fd5b8080610f0d906139f4565b915050610e95565b5050565b600060019054906101000a900460ff16610f415760008054906101000a900460ff1615610f4a565b610f49612661565b5b610f89576040517f08c379a0000000000000000000000000000000000000000000000000000000008152600401610f8090613b1a565b60405180910390fd5b60008060019054906101000a900460ff161590508015610fd9576001600060016101000a81548160ff02191690831515021790555060016000806101000a81548160ff0219169083151502179055505b82606960006101000a81548173ffffffffffffffffffffffffffffffffffffffff021916908373ffffffffffffffffffffffffffffffffffffffff160217905550606960009054906101000a900473ffffffffffffffffffffffffffffffffffffffff1673ffffffffffffffffffffffffffffffffffffffff1663c45a01556040518163ffffffff1660e01b8152600401602060405180830381865afa158015611087573d6000803e3d6000fd5b505050506040513d601f19601f820116820180604052508101906110ab9190613b4f565b606a60006101000a81548173ffffffffffffffffffffffffffffffffffffffff021916908373ffffffffffffffffffffffffffffffffffffffff1602179055506110f482612672565b80156111155760008060016101000a81548160ff0219169083151502179055505b505050565b6060606780548060200260200160405190810160405280929190818152602001828054801561119e57602002820191906000526020600020905b8160009054906101000a900473ffffffffffffffffffffffffffffffffffffffff1673ffffffffffffffffffffffffffffffffffffffff1681526020019060010190808311611154575b5050505050905090565b60008060006111b5611f2a565b905060028160000154036111fe576040517f08c379a00000000000000000000000000000000000000000000000000000000081526004016111f590613489565b60405180910390fd5b600281600001819055506000851161124b576040517f08c379a000000000000000000000000000000000000000000000000000000000815260040161124290613bc8565b60405180910390fd5b6000841161128e576040517f08c379a000000000000000000000000000000000000000000000000000000000815260040161128590613c34565b60405180910390fd5b600061129a8989611746565b90506112e9606960009054906101000a900473ffffffffffffffffffffffffffffffffffffffff16888373ffffffffffffffffffffffffffffffffffffffff16611f579092919063ffffffff16565b606560008a73ffffffffffffffffffffffffffffffffffffffff1673ffffffffffffffffffffffffffffffffffffffff16815260200190815260200160002060009054906101000a900460ff16611375576040517f08c379a000000000000000000000000000000000000000000000000000000000815260040161136c90613cc6565b60405180910390fd5b606560008973ffffffffffffffffffffffffffffffffffffffff1673ffffffffffffffffffffffffffffffffffffffff16815260200190815260200160002060009054906101000a900460ff16611401576040517f08c379a00000000000000000000000000000000000000000000000000000000081526004016113f890613cc6565b60405180910390fd5b606560008273ffffffffffffffffffffffffffffffffffffffff1673ffffffffffffffffffffffffffffffffffffffff16815260200190815260200160002060009054906101000a900460ff1661148d576040517f08c379a000000000000000000000000000000000000000000000000000000000815260040161148490613d58565b60405180910390fd5b606960009054906101000a900473ffffffffffffffffffffffffffffffffffffffff1673ffffffffffffffffffffffffffffffffffffffff1663baa2abde8a8a8a8a8a30426040518863ffffffff1660e01b81526004016114f49796959493929190613d78565b60408051808303816000875af1158015611512573d6000803e3d6000fd5b505050506040513d601f19601f820116820180604052508101906115369190613de7565b80965081975050506115e2338273ffffffffffffffffffffffffffffffffffffffff166370a08231306040518263ffffffff1660e01b815260040161157b9190612de3565b602060405180830381865afa158015611598573d6000803e3d6000fd5b505050506040513d601f19601f820116820180604052508101906115bc91906138c0565b8373ffffffffffffffffffffffffffffffffffffffff1661208d9092919063ffffffff16565b611686338a73ffffffffffffffffffffffffffffffffffffffff166370a08231306040518263ffffffff1660e01b815260040161161f9190612de3565b602060405180830381865afa15801561163c573d6000803e3d6000fd5b505050506040513d601f19601f8201168201806040525081019061166091906138c0565b8b73ffffffffffffffffffffffffffffffffffffffff1661208d9092919063ffffffff16565b61172a338973ffffffffffffffffffffffffffffffffffffffff166370a08231306040518263ffffffff1660e01b81526004016116c39190612de3565b602060405180830381865afa1580156116e0573d6000803e3d6000fd5b505050506040513d601f19601f8201168201806040525081019061170491906138c0565b8a73ffffffffffffffffffffffffffffffffffffffff1661208d9092919063ffffffff16565b8585935093505060018160000181905550509550959350505050565b6000606a60009054906101000a900473ffffffffffffffffffffffffffffffffffffffff1673ffffffffffffffffffffffffffffffffffffffff1663e6a4390584846040518363ffffffff1660e01b81526004016117a5929190613e27565b602060405180830381865afa1580156117c2573d6000803e3d6000fd5b505050506040513d601f19601f820116820180604052508101906117e69190613b4f565b905092915050565b6117f66121c3565b73ffffffffffffffffffffffffffffffffffffffff16611814610dec565b73ffffffffffffffffffffffffffffffffffffffff161461186a576040517f08c379a000000000000000000000000000000000000000000000000000000000815260040161186190613939565b60405180910390fd5b600073ffffffffffffffffffffffffffffffffffffffff168173ffffffffffffffffffffffffffffffffffffffff16036118d9576040517f08c379a00000000000000000000000000000000000000000000000000000000081526004016118d090613ec2565b60405180910390fd5b6118e281612441565b50565b606060006118f1611f2a565b9050600281600001540361193a576040517f08c379a000000000000000000000000000000000000000000000000000000000815260040161193190613489565b60405180910390fd5b6002816000018190555060008411611987576040517f08c379a000000000000000000000000000000000000000000000000000000000815260040161197e90613f54565b60405180910390fd5b6119d5606960009054906101000a900473ffffffffffffffffffffffffffffffffffffffff1660008873ffffffffffffffffffffffffffffffffffffffff16611f579092919063ffffffff16565b611a22606960009054906101000a900473ffffffffffffffffffffffffffffffffffffffff16858873ffffffffffffffffffffffffffffffffffffffff16611f579092919063ffffffff16565b606560008673ffffffffffffffffffffffffffffffffffffffff1673ffffffffffffffffffffffffffffffffffffffff16815260200190815260200160002060009054906101000a900460ff16611aae576040517f08c379a0000000000000000000000000000000000000000000000000000000008152600401611aa590613fc0565b60405180910390fd5b6000831115611b0557611ac2838787610355565b841015611b04576040517f08c379a0000000000000000000000000000000000000000000000000000000008152600401611afb9061402c565b60405180910390fd5b5b606960009054906101000a900473ffffffffffffffffffffffffffffffffffffffff1673ffffffffffffffffffffffffffffffffffffffff166338ed17398585611b4f8a8a611c72565b33426040518663ffffffff1660e01b8152600401611b7195949392919061404c565b6000604051808303816000875af1158015611b90573d6000803e3d6000fd5b505050506040513d6000823e3d601f19601f82011682018060405250810190611bb991906133c5565b9150611c5f338773ffffffffffffffffffffffffffffffffffffffff166370a08231306040518263ffffffff1660e01b8152600401611bf89190612de3565b602060405180830381865afa158015611c15573d6000803e3d6000fd5b505050506040513d601f19601f82011682018060405250810190611c3991906138c0565b8873ffffffffffffffffffffffffffffffffffffffff1661208d9092919063ffffffff16565b6001816000018190555050949350505050565b606080611c7d612750565b73ffffffffffffffffffffffffffffffffffffffff168473ffffffffffffffffffffffffffffffffffffffff1614158015611ceb5750611cbb612750565b73ffffffffffffffffffffffffffffffffffffffff168373ffffffffffffffffffffffffffffffffffffffff1614155b15611e3557600367ffffffffffffffff811115611d0b57611d0a612c57565b5b604051908082528060200260200182016040528015611d395781602001602082028036833780820191505090505b5090508381600081518110611d5157611d5061340e565b5b602002602001019073ffffffffffffffffffffffffffffffffffffffff16908173ffffffffffffffffffffffffffffffffffffffff1681525050611d93612750565b81600181518110611da757611da661340e565b5b602002602001019073ffffffffffffffffffffffffffffffffffffffff16908173ffffffffffffffffffffffffffffffffffffffff16815250508281600281518110611df657611df561340e565b5b602002602001019073ffffffffffffffffffffffffffffffffffffffff16908173ffffffffffffffffffffffffffffffffffffffff1681525050611f20565b600267ffffffffffffffff811115611e5057611e4f612c57565b5b604051908082528060200260200182016040528015611e7e5781602001602082028036833780820191505090505b5090508381600081518110611e9657611e9561340e565b5b602002602001019073ffffffffffffffffffffffffffffffffffffffff16908173ffffffffffffffffffffffffffffffffffffffff16815250508281600181518110611ee557611ee461340e565b5b602002602001019073ffffffffffffffffffffffffffffffffffffffff16908173ffffffffffffffffffffffffffffffffffffffff16815250505b8091505092915050565b6000807f1c85eba10a4cf2d29c83fc15f97931886b9fd3caeb70d8c377aeedc58b919e3b90508091505090565b6000808473ffffffffffffffffffffffffffffffffffffffff1663095ea7b38585604051602401611f899291906140a6565b6040516020818303038152906040529060e01b6020820180517bffffffffffffffffffffffffffffffffffffffffffffffffffffffff8381831617835250505050604051611fd79190613233565b6000604051808303816000865af19150503d8060008114612014576040519150601f19603f3d011682016040523d82523d6000602084013e612019565b606091505b509150915081801561204757506000815114806120465750808060200190518101906120459190614107565b5b5b612086576040517f08c379a000000000000000000000000000000000000000000000000000000000815260040161207d906141a6565b60405180910390fd5b5050505050565b6000808473ffffffffffffffffffffffffffffffffffffffff1663a9059cbb85856040516024016120bf9291906140a6565b6040516020818303038152906040529060e01b6020820180517bffffffffffffffffffffffffffffffffffffffffffffffffffffffff838183161783525050505060405161210d9190613233565b6000604051808303816000865af19150503d806000811461214a576040519150601f19603f3d011682016040523d82523d6000602084013e61214f565b606091505b509150915081801561217d575060008151148061217c57508080602001905181019061217b9190614107565b5b5b6121bc576040517f08c379a00000000000000000000000000000000000000000000000000000000081526004016121b390614238565b60405180910390fd5b5050505050565b600033905090565b60008073ffffffffffffffffffffffffffffffffffffffff168373ffffffffffffffffffffffffffffffffffffffff160361223b576040517f08c379a0000000000000000000000000000000000000000000000000000000008152600401612232906142a4565b60405180910390fd5b606560008473ffffffffffffffffffffffffffffffffffffffff1673ffffffffffffffffffffffffffffffffffffffff16815260200190815260200160002060009054906101000a900460ff166123f5576067839080600181540180825580915050600190039060005260206000200160009091909190916101000a81548173ffffffffffffffffffffffffffffffffffffffff021916908373ffffffffffffffffffffffffffffffffffffffff160217905550600160678054905061230191906142c4565b606660008573ffffffffffffffffffffffffffffffffffffffff1673ffffffffffffffffffffffffffffffffffffffff168152602001908152602001600020819055506001606560008573ffffffffffffffffffffffffffffffffffffffff1673ffffffffffffffffffffffffffffffffffffffff16815260200190815260200160002060006101000a81548160ff0219169083151502179055503373ffffffffffffffffffffffffffffffffffffffff167f25c34e2a97ecce6a643e2876ba21f43208b744c0a1f017fe999208638c7fecdc84426040516123e49291906140a6565b60405180910390a26001905061243b565b8115612436576040517f08c379a000000000000000000000000000000000000000000000000000000000815260040161242d90614344565b60405180910390fd5b600090505b92915050565b6000603360009054906101000a900473ffffffffffffffffffffffffffffffffffffffff16905081603360006101000a81548173ffffffffffffffffffffffffffffffffffffffff021916908373ffffffffffffffffffffffffffffffffffffffff1602179055508173ffffffffffffffffffffffffffffffffffffffff168173ffffffffffffffffffffffffffffffffffffffff167f8be0079c531659141344cd1fd0a4f28419497f9722a3daafe3b4186f6b6457e060405160405180910390a35050565b6000606560008473ffffffffffffffffffffffffffffffffffffffff1673ffffffffffffffffffffffffffffffffffffffff16815260200190815260200160002060009054906101000a900460ff1615612615576125648361275f565b6000606560008573ffffffffffffffffffffffffffffffffffffffff1673ffffffffffffffffffffffffffffffffffffffff16815260200190815260200160002060006101000a81548160ff0219169083151502179055503373ffffffffffffffffffffffffffffffffffffffff167f8b0c6321e5164295041a4799b97bc74477465912d8e906efc761ff81bf530b2784426040516126049291906140a6565b60405180910390a26001905061265b565b8115612656576040517f08c379a000000000000000000000000000000000000000000000000000000000815260040161264d906143b0565b60405180910390fd5b600090505b92915050565b600061266c30612942565b15905090565b600060019054906101000a900460ff166126c1576040517f08c379a00000000000000000000000000000000000000000000000000000000081526004016126b890614442565b60405180910390fd5b60005b8151811015612744576126f28282815181106126e3576126e261340e565b5b602002602001015160006121cb565b612731576040517f08c379a0000000000000000000000000000000000000000000000000000000008152600401612728906139a5565b60405180910390fd5b808061273c906139f4565b9150506126c4565b5061274d612965565b50565b600061275a6129be565b905090565b6000606660008373ffffffffffffffffffffffffffffffffffffffff1673ffffffffffffffffffffffffffffffffffffffff16815260200190815260200160002054905060016067805490506127b591906142c4565b81146128b2576000606760016067805490506127d191906142c4565b815481106127e2576127e161340e565b5b9060005260206000200160009054906101000a900473ffffffffffffffffffffffffffffffffffffffff16905081606660008373ffffffffffffffffffffffffffffffffffffffff1673ffffffffffffffffffffffffffffffffffffffff1681526020019081526020016000208190555080606783815481106128685761286761340e565b5b9060005260206000200160006101000a81548173ffffffffffffffffffffffffffffffffffffffff021916908373ffffffffffffffffffffffffffffffffffffffff160217905550505b60678054806128c4576128c3614462565b5b6001900381819060005260206000200160006101000a81549073ffffffffffffffffffffffffffffffffffffffff021916905590556000606660008473ffffffffffffffffffffffffffffffffffffffff1673ffffffffffffffffffffffffffffffffffffffff168152602001908152602001600020819055505050565b6000808273ffffffffffffffffffffffffffffffffffffffff163b119050919050565b600060019054906101000a900460ff166129b4576040517f08c379a00000000000000000000000000000000000000000000000000000000081526004016129ab90614442565b60405180910390fd5b6129bc6129da565b565b600073b31f66aa3c1e785363f0875a1b74e27b85fd66c7905090565b600060019054906101000a900460ff16612a29576040517f08c379a0000000000000000000000000000000000000000000000000000000008152600401612a2090614442565b60405180910390fd5b612a39612a346121c3565b612441565b565b6000604051905090565b600080fd5b600080fd5b6000819050919050565b612a6281612a4f565b8114612a6d57600080fd5b50565b600081359050612a7f81612a59565b92915050565b600073ffffffffffffffffffffffffffffffffffffffff82169050919050565b6000612ab082612a85565b9050919050565b612ac081612aa5565b8114612acb57600080fd5b50565b600081359050612add81612ab7565b92915050565b600080600060608486031215612afc57612afb612a45565b5b6000612b0a86828701612a70565b9350506020612b1b86828701612ace565b9250506040612b2c86828701612ace565b9150509250925092565b612b3f81612a4f565b82525050565b6000602082019050612b5a6000830184612b36565b92915050565b60008060008060008060c08789031215612b7d57612b7c612a45565b5b6000612b8b89828a01612ace565b9650506020612b9c89828a01612ace565b9550506040612bad89828a01612a70565b9450506060612bbe89828a01612a70565b9350506080612bcf89828a01612a70565b92505060a0612be089828a01612a70565b9150509295509295509295565b612bf681612aa5565b82525050565b6000608082019050612c116000830187612bed565b612c1e6020830186612b36565b612c2b6040830185612b36565b612c386060830184612b36565b95945050505050565b600080fd5b6000601f19601f8301169050919050565b7f4e487b7100000000000000000000000000000000000000000000000000000000600052604160045260246000fd5b612c8f82612c46565b810181811067ffffffffffffffff82111715612cae57612cad612c57565b5b80604052505050565b6000612cc1612a3b565b9050612ccd8282612c86565b919050565b600067ffffffffffffffff821115612ced57612cec612c57565b5b602082029050602081019050919050565b600080fd5b6000612d16612d1184612cd2565b612cb7565b90508083825260208201905060208402830185811115612d3957612d38612cfe565b5b835b81811015612d625780612d4e8882612ace565b845260208401935050602081019050612d3b565b5050509392505050565b600082601f830112612d8157612d80612c41565b5b8135612d91848260208601612d03565b91505092915050565b600060208284031215612db057612daf612a45565b5b600082013567ffffffffffffffff811115612dce57612dcd612a4a565b5b612dda84828501612d6c565b91505092915050565b6000602082019050612df86000830184612bed565b92915050565b60008060408385031215612e1557612e14612a45565b5b6000612e2385828601612ace565b925050602083013567ffffffffffffffff811115612e4457612e43612a4a565b5b612e5085828601612d6c565b9150509250929050565b600081519050919050565b600082825260208201905092915050565b6000819050602082019050919050565b612e8f81612aa5565b82525050565b6000612ea18383612e86565b60208301905092915050565b6000602082019050919050565b6000612ec582612e5a565b612ecf8185612e65565b9350612eda83612e76565b8060005b83811015612f0b578151612ef28882612e95565b9750612efd83612ead565b925050600181019050612ede565b5085935050505092915050565b60006020820190508181036000830152612f328184612eba565b905092915050565b600080600080600060a08688031215612f5657612f55612a45565b5b6000612f6488828901612ace565b9550506020612f7588828901612ace565b9450506040612f8688828901612a70565b9350506060612f9788828901612a70565b9250506080612fa888828901612a70565b9150509295509295909350565b6000604082019050612fca6000830185612b36565b612fd76020830184612b36565b9392505050565b60008060408385031215612ff557612ff4612a45565b5b600061300385828601612ace565b925050602061301485828601612ace565b9150509250929050565b60006020828403121561303457613033612a45565b5b600061304284828501612ace565b91505092915050565b6000806000806080858703121561306557613064612a45565b5b600061307387828801612ace565b945050602061308487828801612ace565b935050604061309587828801612a70565b92505060606130a687828801612a70565b91505092959194509250565b600081519050919050565b600082825260208201905092915050565b6000819050602082019050919050565b6130e781612a4f565b82525050565b60006130f983836130de565b60208301905092915050565b6000602082019050919050565b600061311d826130b2565b61312781856130bd565b9350613132836130ce565b8060005b8381101561316357815161314a88826130ed565b975061315583613105565b925050600181019050613136565b5085935050505092915050565b6000602082019050818103600083015261318a8184613112565b905092915050565b60006040820190506131a76000830185612b36565b81810360208301526131b98184612eba565b90509392505050565b600081519050919050565b600081905092915050565b60005b838110156131f65780820151818401526020810190506131db565b60008484015250505050565b600061320d826131c2565b61321781856131cd565b93506132278185602086016131d8565b80840191505092915050565b600061323f8284613202565b915081905092915050565b600082825260208201905092915050565b7f4572726f72207768656e2063616c63756c6174696e6720616d6f756e7473206e60008201527f6565646564000000000000000000000000000000000000000000000000000000602082015250565b60006132b760258361324a565b91506132c28261325b565b604082019050919050565b600060208201905081810360008301526132e6816132aa565b9050919050565b600067ffffffffffffffff82111561330857613307612c57565b5b602082029050602081019050919050565b60008151905061332881612a59565b92915050565b600061334161333c846132ed565b612cb7565b9050808382526020820190506020840283018581111561336457613363612cfe565b5b835b8181101561338d57806133798882613319565b845260208401935050602081019050613366565b5050509392505050565b600082601f8301126133ac576133ab612c41565b5b81516133bc84826020860161332e565b91505092915050565b6000602082840312156133db576133da612a45565b5b600082015167ffffffffffffffff8111156133f9576133f8612a4a565b5b61340584828501613397565b91505092915050565b7f4e487b7100000000000000000000000000000000000000000000000000000000600052603260045260246000fd5b7f5265656e7472616e637947756172643a207265656e7472616e742063616c6c00600082015250565b6000613473601f8361324a565b915061347e8261343d565b602082019050919050565b600060208201905081810360008301526134a281613466565b9050919050565b7f616d6f756e7441446573697265642068617320746f206265206772656174657260008201527f207468616e203000000000000000000000000000000000000000000000000000602082015250565b600061350560278361324a565b9150613510826134a9565b604082019050919050565b60006020820190508181036000830152613534816134f8565b9050919050565b7f616d6f756e74424465736972656420746f2073656c6c2068617320746f20626560008201527f2067726561746572207468616e20300000000000000000000000000000000000602082015250565b6000613597602f8361324a565b91506135a28261353b565b604082019050919050565b600060208201905081810360008301526135c68161358a565b9050919050565b7f616d6f756e74414d696e2068617320746f20626520677265617465722074686160008201527f6e20300000000000000000000000000000000000000000000000000000000000602082015250565b600061362960238361324a565b9150613634826135cd565b604082019050919050565b600060208201905081810360008301526136588161361c565b9050919050565b7f616d6f756e74424d696e2068617320746f20626520677265617465722074686160008201527f6e20300000000000000000000000000000000000000000000000000000000000602082015250565b60006136bb60238361324a565b91506136c68261365f565b604082019050919050565b600060208201905081810360008301526136ea816136ae565b9050919050565b7f547279696e6720746f204c5020756e737570706f7274656420746f6b656e0000600082015250565b6000613727601e8361324a565b9150613732826136f1565b602082019050919050565b600060208201905081810360008301526137568161371a565b9050919050565b7f547279696e6720746f2061646420756e737570706f72746564204c5020746f6b60008201527f656e000000000000000000000000000000000000000000000000000000000000602082015250565b60006137b960228361324a565b91506137c48261375d565b604082019050919050565b600060208201905081810360008301526137e8816137ac565b9050919050565b600061010082019050613805600083018b612bed565b613812602083018a612bed565b61381f6040830189612b36565b61382c6060830188612b36565b6138396080830187612b36565b61384660a0830186612b36565b61385360c0830185612bed565b61386060e0830184612b36565b9998505050505050505050565b60008060006060848603121561388657613885612a45565b5b600061389486828701613319565b93505060206138a586828701613319565b92505060406138b686828701613319565b9150509250925092565b6000602082840312156138d6576138d5612a45565b5b60006138e484828501613319565b91505092915050565b7f4f776e61626c653a2063616c6c6572206973206e6f7420746865206f776e6572600082015250565b600061392360208361324a565b915061392e826138ed565b602082019050919050565b6000602082019050818103600083015261395281613916565b9050919050565b7f57686974656c697374696e6720746f6b656e206661696c656400000000000000600082015250565b600061398f60198361324a565b915061399a82613959565b602082019050919050565b600060208201905081810360008301526139be81613982565b9050919050565b7f4e487b7100000000000000000000000000000000000000000000000000000000600052601160045260246000fd5b60006139ff82612a4f565b91507fffffffffffffffffffffffffffffffffffffffffffffffffffffffffffffffff8203613a3157613a306139c5565b5b600182019050919050565b7f44656c697374696e6720746f6b656e206661696c656400000000000000000000600082015250565b6000613a7260168361324a565b9150613a7d82613a3c565b602082019050919050565b60006020820190508181036000830152613aa181613a65565b9050919050565b7f496e697469616c697a61626c653a20636f6e747261637420697320616c72656160008201527f647920696e697469616c697a6564000000000000000000000000000000000000602082015250565b6000613b04602e8361324a565b9150613b0f82613aa8565b604082019050919050565b60006020820190508181036000830152613b3381613af7565b9050919050565b600081519050613b4981612ab7565b92915050565b600060208284031215613b6557613b64612a45565b5b6000613b7384828501613b3a565b91505092915050565b7f616d6f756e74412068617320746f2062652067726561746572207468616e2030600082015250565b6000613bb260208361324a565b9150613bbd82613b7c565b602082019050919050565b60006020820190508181036000830152613be181613ba5565b9050919050565b7f616d6f756e74422068617320746f2062652067726561746572207468616e2030600082015250565b6000613c1e60208361324a565b9150613c2982613be8565b602082019050919050565b60006020820190508181036000830152613c4d81613c11565b9050919050565b7f547279696e6720746f2072656d6f7665204c50206f6620756e737570706f727460008201527f656420746f6b656e000000000000000000000000000000000000000000000000602082015250565b6000613cb060288361324a565b9150613cbb82613c54565b604082019050919050565b60006020820190508181036000830152613cdf81613ca3565b9050919050565b7f547279696e6720746f2072656d6f766520756e737570706f72746564204c502060008201527f746f6b656e000000000000000000000000000000000000000000000000000000602082015250565b6000613d4260258361324a565b9150613d4d82613ce6565b604082019050919050565b60006020820190508181036000830152613d7181613d35565b9050919050565b600060e082019050613d8d600083018a612bed565b613d9a6020830189612bed565b613da76040830188612b36565b613db46060830187612b36565b613dc16080830186612b36565b613dce60a0830185612bed565b613ddb60c0830184612b36565b98975050505050505050565b60008060408385031215613dfe57613dfd612a45565b5b6000613e0c85828601613319565b9250506020613e1d85828601613319565b9150509250929050565b6000604082019050613e3c6000830185612bed565b613e496020830184612bed565b9392505050565b7f4f776e61626c653a206e6577206f776e657220697320746865207a65726f206160008201527f6464726573730000000000000000000000000000000000000000000000000000602082015250565b6000613eac60268361324a565b9150613eb782613e50565b604082019050919050565b60006020820190508181036000830152613edb81613e9f565b9050919050565b7f416d6f756e74206f6620746f6b656e7320746f2073656c6c2068617320746f2060008201527f62652067726561746572207468616e2030000000000000000000000000000000602082015250565b6000613f3e60318361324a565b9150613f4982613ee2565b604082019050919050565b60006020820190508181036000830152613f6d81613f31565b9050919050565b7f547279696e6720746f2062757920756e737570706f7274656420746f6b656e00600082015250565b6000613faa601f8361324a565b9150613fb582613f74565b602082019050919050565b60006020820190508181036000830152613fd981613f9d565b9050919050565b7f4e6f7420656e6f7567682066756e647320776572652070726f76696465640000600082015250565b6000614016601e8361324a565b915061402182613fe0565b602082019050919050565b6000602082019050818103600083015261404581614009565b9050919050565b600060a0820190506140616000830188612b36565b61406e6020830187612b36565b81810360408301526140808186612eba565b905061408f6060830185612bed565b61409c6080830184612b36565b9695505050505050565b60006040820190506140bb6000830185612bed565b6140c86020830184612b36565b9392505050565b60008115159050919050565b6140e4816140cf565b81146140ef57600080fd5b50565b600081519050614101816140db565b92915050565b60006020828403121561411d5761411c612a45565b5b600061412b848285016140f2565b91505092915050565b7f5472616e7366657248656c7065723a3a73616665417070726f76653a2061707060008201527f726f7665206661696c6564000000000000000000000000000000000000000000602082015250565b6000614190602b8361324a565b915061419b82614134565b604082019050919050565b600060208201905081810360008301526141bf81614183565b9050919050565b7f5472616e7366657248656c7065723a3a736166655472616e736665723a20747260008201527f616e73666572206661696c656400000000000000000000000000000000000000602082015250565b6000614222602d8361324a565b915061422d826141c6565b604082019050919050565b6000602082019050818103600083015261425181614215565b9050919050565b7f43616e6e6f742077686974656c6973742061207a65726f206164647265737300600082015250565b600061428e601f8361324a565b915061429982614258565b602082019050919050565b600060208201905081810360008301526142bd81614281565b9050919050565b60006142cf82612a4f565b91506142da83612a4f565b92508282039050818111156142f2576142f16139c5565b5b92915050565b7f546f6b656e20616c72656164792077686974656c697374656400000000000000600082015250565b600061432e60198361324a565b9150614339826142f8565b602082019050919050565b6000602082019050818103600083015261435d81614321565b9050919050565b7f546f6b656e20776173206e6f742077686974656c6973746564206265666f7265600082015250565b600061439a60208361324a565b91506143a582614364565b602082019050919050565b600060208201905081810360008301526143c98161438d565b9050919050565b7f496e697469616c697a61626c653a20636f6e7472616374206973206e6f74206960008201527f6e697469616c697a696e67000000000000000000000000000000000000000000602082015250565b600061442c602b8361324a565b9150614437826143d0565b604082019050919050565b6000602082019050818103600083015261445b8161441f565b9050919050565b7f4e487b7100000000000000000000000000000000000000000000000000000000600052603160045260246000fdfea2646970667358221220b19e0c88463814a1d639251cf05df7f20292106fe7027ff18e8fee57f12be8da64736f6c63430008110033",
  "devdoc": {
    "details": "Contract allows user to swap ERC20 tokens on DEX This implementation uses the Pangolin DEX",
    "kind": "dev",
    "methods": {
      "getPair(address,address)": {
        "params": {
          "_token1": "ERC20 token's address",
          "_token2": "ERC20 token's address*"
        }
      },
      "owner()": {
        "details": "Returns the address of the current owner."
      },
      "renounceOwnership()": {
        "details": "Leaves the contract without owner. It will not be possible to call `onlyOwner` functions anymore. Can only be called by the current owner. NOTE: Renouncing ownership will leave the contract without an owner, thereby removing any functionality that is only available to the owner."
      },
      "transferOwnership(address)": {
        "details": "Transfers ownership of the contract to a new account (`newOwner`). Can only be called by the current owner."
      }
    },
    "title": "PangolinIntermediary",
    "version": 1
  },
  "userdoc": {
    "kind": "user",
    "methods": {
      "getMaximumTokensReceived(uint256,address,address)": {
        "notice": "Returns the maximum _boughtToken amount that will be obtained in the event of selling _amountIn of _soldToken token.*"
      },
      "getMinimumTokensNeeded(uint256,address,address)": {
        "notice": "Returns the minimum _soldToken amount that is required to be sold to receive _exactAmountOut of a _boughtToken. Can revert due to insufficient liquidity*"
      },
      "getPair(address,address)": {
        "notice": "Returns an address of LP token"
      }
    },
    "version": 1
  },
  "storageLayout": {
    "storage": [
      {
        "astId": 130,
        "contract": "contracts/integrations/avalanche/PangolinIntermediary.sol:PangolinIntermediary",
        "label": "_initialized",
        "offset": 0,
        "slot": "0",
        "type": "t_bool"
      },
      {
        "astId": 133,
        "contract": "contracts/integrations/avalanche/PangolinIntermediary.sol:PangolinIntermediary",
        "label": "_initializing",
        "offset": 1,
        "slot": "0",
        "type": "t_bool"
      },
      {
        "astId": 481,
        "contract": "contracts/integrations/avalanche/PangolinIntermediary.sol:PangolinIntermediary",
        "label": "__gap",
        "offset": 0,
        "slot": "1",
        "type": "t_array(t_uint256)50_storage"
      },
      {
        "astId": 10,
        "contract": "contracts/integrations/avalanche/PangolinIntermediary.sol:PangolinIntermediary",
        "label": "_owner",
        "offset": 0,
        "slot": "51",
        "type": "t_address"
      },
      {
        "astId": 122,
        "contract": "contracts/integrations/avalanche/PangolinIntermediary.sol:PangolinIntermediary",
        "label": "__gap",
        "offset": 0,
        "slot": "52",
        "type": "t_array(t_uint256)49_storage"
      },
      {
        "astId": 2464,
        "contract": "contracts/integrations/avalanche/PangolinIntermediary.sol:PangolinIntermediary",
        "label": "isTokenWhitelisted",
        "offset": 0,
        "slot": "101",
        "type": "t_mapping(t_address,t_bool)"
      },
      {
        "astId": 2468,
        "contract": "contracts/integrations/avalanche/PangolinIntermediary.sol:PangolinIntermediary",
        "label": "tokenPositionInList",
        "offset": 0,
        "slot": "102",
        "type": "t_mapping(t_address,t_uint256)"
      },
      {
        "astId": 2471,
        "contract": "contracts/integrations/avalanche/PangolinIntermediary.sol:PangolinIntermediary",
        "label": "whitelistedTokensList",
        "offset": 0,
        "slot": "103",
        "type": "t_array(t_address)dyn_storage"
      },
      {
        "astId": 2412,
        "contract": "contracts/integrations/avalanche/PangolinIntermediary.sol:PangolinIntermediary",
        "label": "_status",
        "offset": 0,
        "slot": "104",
        "type": "t_uint256"
      },
      {
        "astId": 3620,
        "contract": "contracts/integrations/avalanche/PangolinIntermediary.sol:PangolinIntermediary",
        "label": "router",
        "offset": 0,
        "slot": "105",
        "type": "t_contract(IUniswapV2Router01)2137"
      },
      {
        "astId": 3623,
        "contract": "contracts/integrations/avalanche/PangolinIntermediary.sol:PangolinIntermediary",
        "label": "factory",
        "offset": 0,
        "slot": "106",
        "type": "t_contract(IUniswapV2Factory)1829"
      }
    ],
    "types": {
      "t_address": {
        "encoding": "inplace",
        "label": "address",
        "numberOfBytes": "20"
      },
      "t_array(t_address)dyn_storage": {
        "base": "t_address",
        "encoding": "dynamic_array",
        "label": "address[]",
        "numberOfBytes": "32"
      },
      "t_array(t_uint256)49_storage": {
        "base": "t_uint256",
        "encoding": "inplace",
        "label": "uint256[49]",
        "numberOfBytes": "1568"
      },
      "t_array(t_uint256)50_storage": {
        "base": "t_uint256",
        "encoding": "inplace",
        "label": "uint256[50]",
        "numberOfBytes": "1600"
      },
      "t_bool": {
        "encoding": "inplace",
        "label": "bool",
        "numberOfBytes": "1"
      },
      "t_contract(IUniswapV2Factory)1829": {
        "encoding": "inplace",
        "label": "contract IUniswapV2Factory",
        "numberOfBytes": "20"
      },
      "t_contract(IUniswapV2Router01)2137": {
        "encoding": "inplace",
        "label": "contract IUniswapV2Router01",
        "numberOfBytes": "20"
      },
      "t_mapping(t_address,t_bool)": {
        "encoding": "mapping",
        "key": "t_address",
        "label": "mapping(address => bool)",
        "numberOfBytes": "32",
        "value": "t_bool"
      },
      "t_mapping(t_address,t_uint256)": {
        "encoding": "mapping",
        "key": "t_address",
        "label": "mapping(address => uint256)",
        "numberOfBytes": "32",
        "value": "t_uint256"
      },
      "t_uint256": {
        "encoding": "inplace",
        "label": "uint256",
        "numberOfBytes": "32"
      }
    }
  }
}