{
  "address": "0x127587D8a188493Cc032A0eC2bd1D559E3A8E275",
  "abi": [
    {
      "inputs": [
        {
          "internalType": "address[]",
          "name": "_trustedSigners",
          "type": "address[]"
        }
      ],
      "stateMutability": "nonpayable",
      "type": "constructor"
    },
    {
      "anonymous": false,
      "inputs": [
        {
          "indexed": true,
          "internalType": "address",
          "name": "previousOwner",
          "type": "address"
        },
        {
          "indexed": true,
          "internalType": "address",
          "name": "newOwner",
          "type": "address"
        }
      ],
      "name": "OwnershipTransferred",
      "type": "event"
    },
    {
      "anonymous": false,
      "inputs": [
        {
          "indexed": true,
          "internalType": "address",
          "name": "user",
          "type": "address"
        },
        {
          "indexed": false,
          "internalType": "address",
          "name": "signer",
          "type": "address"
        },
        {
          "indexed": false,
          "internalType": "uint256",
          "name": "timestamp",
          "type": "uint256"
        }
      ],
      "name": "SignerAdded",
      "type": "event"
    },
    {
      "anonymous": false,
      "inputs": [
        {
          "indexed": true,
          "internalType": "address",
          "name": "user",
          "type": "address"
        },
        {
          "indexed": false,
          "internalType": "address",
          "name": "signer",
          "type": "address"
        },
        {
          "indexed": false,
          "internalType": "uint256",
          "name": "timestamp",
          "type": "uint256"
        }
      ],
      "name": "SignerRemoved",
      "type": "event"
    },
    {
      "inputs": [
        {
          "internalType": "address[]",
          "name": "_trustedSigners",
          "type": "address[]"
        }
      ],
      "name": "addTrustedSigners",
      "outputs": [],
      "stateMutability": "nonpayable",
      "type": "function"
    },
    {
      "inputs": [],
      "name": "getTrustedSigners",
      "outputs": [
        {
          "internalType": "address[]",
          "name": "",
          "type": "address[]"
        }
      ],
      "stateMutability": "view",
      "type": "function"
    },
    {
      "inputs": [],
      "name": "owner",
      "outputs": [
        {
          "internalType": "address",
          "name": "",
          "type": "address"
        }
      ],
      "stateMutability": "view",
      "type": "function"
    },
    {
      "inputs": [
        {
          "internalType": "address[]",
          "name": "_trustedSigners",
          "type": "address[]"
        }
      ],
      "name": "removeTrustedSigners",
      "outputs": [],
      "stateMutability": "nonpayable",
      "type": "function"
    },
    {
      "inputs": [],
      "name": "renounceOwnership",
      "outputs": [],
      "stateMutability": "nonpayable",
      "type": "function"
    },
    {
      "inputs": [
        {
          "internalType": "address",
          "name": "signer",
          "type": "address"
        }
      ],
      "name": "signerExists",
      "outputs": [
        {
          "internalType": "bool",
          "name": "",
          "type": "bool"
        }
      ],
      "stateMutability": "view",
      "type": "function"
    },
    {
      "inputs": [
        {
          "internalType": "address",
          "name": "newOwner",
          "type": "address"
        }
      ],
      "name": "transferOwnership",
      "outputs": [],
      "stateMutability": "nonpayable",
      "type": "function"
    },
    {
      "inputs": [
        {
          "internalType": "uint256",
          "name": "",
          "type": "uint256"
        }
      ],
      "name": "trustedSigners",
      "outputs": [
        {
          "internalType": "address",
          "name": "",
          "type": "address"
        }
      ],
      "stateMutability": "view",
      "type": "function"
    }
  ],
  "transactionHash": "0xa9fc0571d5fb2e7fd9ba45194c19827e013f5212e25ed5dab0eb7d6602002015",
  "args": [
    [
      "0x981bdA8276ae93F567922497153de7A5683708d3",
      "0x3BEFDd935b50F172e696A5187DBaCfEf0D208e48",
      "0x1Cd8F9627a2838a7DAE6b98CF71c08B9CbF5174a",
      "0xbC5a06815ee80dE7d20071703C1F1B8fC511c7d4",
      "0xe9Fa2869C5f6fC3A0933981825564FD90573A86D",
      "0xDf6b1cA313beE470D0142279791Fa760ABF5C537",
      "0xa50abc5D76dAb99d5fe59FD32f239Bd37d55025f",
      "0x496f4E8aC11076350A59b88D2ad62bc20d410EA3",
      "0x41FB6b8d0f586E73d575bC57CFD29142B3214A47",
      "0xC1068312a6333e6601f937c4773065B70D38A5bF",
      "0xAE9D49Ea64DF38B9fcbC238bc7004a1421f7eeE8",
      "0x2BC37a0368E86cA0d14Bc8788D45c75deabaC064",
      "0x9277491f485460575918B43f5d6D5b2BB8c5A62d",
      "0x91dC1fe6472e18Fd2C9407e438dD022f22891a4f",
      "0x4bbb86992E94AA209c52ecfd38897A18bde8E39D",
      "0x9456dd79c3608cF463d975F76f7658f87a41Cd6C",
      "0x4C6f83Faa74106139FcB08d4E49568e0Df222815",
      "0x4CF8310ABAe9CA2ACD85f460B509eE495F36eFAF",
      "0x2D0645D863a4eE15664761ea1d99fF2bae8aAe35",
      "0xF5c14165fb10Ac4926d52504a9B45550411A3C0F",
      "0x11D23F3dbf8B8e1cf61AeF77A2ea0592Bc9860E0",
      "0x60930D9f74811B525356E68D23977baEAb7706d0",
      "0xc1D5b940659e57b7bDF8870CDfC43f41Ca699460"
    ]
  ],
  "numDeployments": 1,
  "solcInputHash": "3a30a36db4e8d9d41b9e86caf28300ba",
  "bytecode": "0x60806040523480156200001157600080fd5b5060405162001838380380620018388339818101604052810190620000379190620004ee565b620000576200004b6200012160201b60201c565b6200012960201b60201c565b60005b81518110156200011957620000928282815181106200007e576200007d6200053f565b5b6020026020010151620001ed60201b60201c565b15620000d5576040517f08c379a0000000000000000000000000000000000000000000000000000000008152600401620000cc90620005cf565b60405180910390fd5b62000103828281518110620000ef57620000ee6200053f565b5b60200260200101516200024360201b60201c565b808062000110906200062a565b9150506200005a565b505062000677565b600033905090565b60008060009054906101000a900473ffffffffffffffffffffffffffffffffffffffff169050816000806101000a81548173ffffffffffffffffffffffffffffffffffffffff021916908373ffffffffffffffffffffffffffffffffffffffff1602179055508173ffffffffffffffffffffffffffffffffffffffff168173ffffffffffffffffffffffffffffffffffffffff167f8be0079c531659141344cd1fd0a4f28419497f9722a3daafe3b4186f6b6457e060405160405180910390a35050565b6000600160008373ffffffffffffffffffffffffffffffffffffffff1673ffffffffffffffffffffffffffffffffffffffff16815260200190815260200160002060009054906101000a900460ff169050919050565b60018060008373ffffffffffffffffffffffffffffffffffffffff1673ffffffffffffffffffffffffffffffffffffffff16815260200190815260200160002060006101000a81548160ff0219169083151502179055506002819080600181540180825580915050600190039060005260206000200160009091909190916101000a81548173ffffffffffffffffffffffffffffffffffffffff021916908373ffffffffffffffffffffffffffffffffffffffff16021790555050565b6000604051905090565b600080fd5b600080fd5b600080fd5b6000601f19601f8301169050919050565b7f4e487b7100000000000000000000000000000000000000000000000000000000600052604160045260246000fd5b620003648262000319565b810181811067ffffffffffffffff821117156200038657620003856200032a565b5b80604052505050565b60006200039b62000300565b9050620003a9828262000359565b919050565b600067ffffffffffffffff821115620003cc57620003cb6200032a565b5b602082029050602081019050919050565b600080fd5b600073ffffffffffffffffffffffffffffffffffffffff82169050919050565b60006200040f82620003e2565b9050919050565b620004218162000402565b81146200042d57600080fd5b50565b600081519050620004418162000416565b92915050565b60006200045e6200045884620003ae565b6200038f565b90508083825260208201905060208402830185811115620004845762000483620003dd565b5b835b81811015620004b157806200049c888262000430565b84526020840193505060208101905062000486565b5050509392505050565b600082601f830112620004d357620004d262000314565b5b8151620004e584826020860162000447565b91505092915050565b6000602082840312156200050757620005066200030a565b5b600082015167ffffffffffffffff8111156200052857620005276200030f565b5b6200053684828501620004bb565b91505092915050565b7f4e487b7100000000000000000000000000000000000000000000000000000000600052603260045260246000fd5b600082825260208201905092915050565b7f5369676e657220616c7265616479206578697374730000000000000000000000600082015250565b6000620005b76015836200056e565b9150620005c4826200057f565b602082019050919050565b60006020820190508181036000830152620005ea81620005a8565b9050919050565b7f4e487b7100000000000000000000000000000000000000000000000000000000600052601160045260246000fd5b6000819050919050565b6000620006378262000620565b91507fffffffffffffffffffffffffffffffffffffffffffffffffffffffffffffffff82036200066c576200066b620005f1565b5b600182019050919050565b6111b180620006876000396000f3fe608060405234801561001057600080fd5b50600436106100885760003560e01c80638da5cb5b1161005b5780638da5cb5b146101015780639f2d471a1461011f578063ea2f3d8f1461014f578063f2fde38b1461016b57610088565b806314917bb91461008d5780631d9c68c3146100a957806331be7c23146100c7578063715018a6146100f7575b600080fd5b6100a760048036038101906100a29190610c3a565b610187565b005b6100b1610316565b6040516100be9190610d41565b60405180910390f35b6100e160048036038101906100dc9190610d63565b6103a4565b6040516100ee9190610dab565b60405180910390f35b6100ff6103fa565b005b6101096103fc565b6040516101169190610dd5565b60405180910390f35b61013960048036038101906101349190610e26565b610425565b6040516101469190610dd5565b60405180910390f35b61016960048036038101906101649190610c3a565b610464565b005b61018560048036038101906101809190610d63565b6105f2565b005b61018f6106e9565b73ffffffffffffffffffffffffffffffffffffffff166101ad6103fc565b73ffffffffffffffffffffffffffffffffffffffff1614610203576040517f08c379a00000000000000000000000000000000000000000000000000000000081526004016101fa90610eb0565b60405180910390fd5b60005b81518110156103125761023282828151811061022557610224610ed0565b5b60200260200101516103a4565b15610272576040517f08c379a000000000000000000000000000000000000000000000000000000000815260040161026990610f4b565b60405180910390fd5b61029582828151811061028857610287610ed0565b5b60200260200101516106f1565b3373ffffffffffffffffffffffffffffffffffffffff167fdbc73d097606096d3f29ca0cafbc91e81b07e3c0ef989890fe89057550d9c8148383815181106102e0576102df610ed0565b5b6020026020010151426040516102f7929190610f7a565b60405180910390a2808061030a90610fd2565b915050610206565b5050565b6060600280548060200260200160405190810160405280929190818152602001828054801561039a57602002820191906000526020600020905b8160009054906101000a900473ffffffffffffffffffffffffffffffffffffffff1673ffffffffffffffffffffffffffffffffffffffff1681526020019060010190808311610350575b5050505050905090565b6000600160008373ffffffffffffffffffffffffffffffffffffffff1673ffffffffffffffffffffffffffffffffffffffff16815260200190815260200160002060009054906101000a900460ff169050919050565b565b60008060009054906101000a900473ffffffffffffffffffffffffffffffffffffffff16905090565b6002818154811061043557600080fd5b906000526020600020016000915054906101000a900473ffffffffffffffffffffffffffffffffffffffff1681565b61046c6106e9565b73ffffffffffffffffffffffffffffffffffffffff1661048a6103fc565b73ffffffffffffffffffffffffffffffffffffffff16146104e0576040517f08c379a00000000000000000000000000000000000000000000000000000000081526004016104d790610eb0565b60405180910390fd5b60005b81518110156105ee5761050f82828151811061050257610501610ed0565b5b60200260200101516103a4565b61054e576040517f08c379a000000000000000000000000000000000000000000000000000000000815260040161054590611066565b60405180910390fd5b61057182828151811061056457610563610ed0565b5b60200260200101516107ae565b3373ffffffffffffffffffffffffffffffffffffffff167ffd12e322f0e58116ec0315021d85390edf3caec5b9fe520cbf7a16afd5b41cd88383815181106105bc576105bb610ed0565b5b6020026020010151426040516105d3929190610f7a565b60405180910390a280806105e690610fd2565b9150506104e3565b5050565b6105fa6106e9565b73ffffffffffffffffffffffffffffffffffffffff166106186103fc565b73ffffffffffffffffffffffffffffffffffffffff161461066e576040517f08c379a000000000000000000000000000000000000000000000000000000000815260040161066590610eb0565b60405180910390fd5b600073ffffffffffffffffffffffffffffffffffffffff168173ffffffffffffffffffffffffffffffffffffffff16036106dd576040517f08c379a00000000000000000000000000000000000000000000000000000000081526004016106d4906110f8565b60405180910390fd5b6106e6816109ab565b50565b600033905090565b60018060008373ffffffffffffffffffffffffffffffffffffffff1673ffffffffffffffffffffffffffffffffffffffff16815260200190815260200160002060006101000a81548160ff0219169083151502179055506002819080600181540180825580915050600190039060005260206000200160009091909190916101000a81548173ffffffffffffffffffffffffffffffffffffffff021916908373ffffffffffffffffffffffffffffffffffffffff16021790555050565b6000600160008373ffffffffffffffffffffffffffffffffffffffff1673ffffffffffffffffffffffffffffffffffffffff16815260200190815260200160002060006101000a81548160ff02191690831515021790555060005b6002805490508110156109a7578173ffffffffffffffffffffffffffffffffffffffff166002828154811061084157610840610ed0565b5b9060005260206000200160009054906101000a900473ffffffffffffffffffffffffffffffffffffffff1673ffffffffffffffffffffffffffffffffffffffff16036109945760016002805490506108999190611118565b811461094c57600260016002805490506108b39190611118565b815481106108c4576108c3610ed0565b5b9060005260206000200160009054906101000a900473ffffffffffffffffffffffffffffffffffffffff166002828154811061090357610902610ed0565b5b9060005260206000200160006101000a81548173ffffffffffffffffffffffffffffffffffffffff021916908373ffffffffffffffffffffffffffffffffffffffff1602179055505b600280548061095e5761095d61114c565b5b6001900381819060005260206000200160006101000a81549073ffffffffffffffffffffffffffffffffffffffff021916905590555b808061099f90610fd2565b915050610809565b5050565b60008060009054906101000a900473ffffffffffffffffffffffffffffffffffffffff169050816000806101000a81548173ffffffffffffffffffffffffffffffffffffffff021916908373ffffffffffffffffffffffffffffffffffffffff1602179055508173ffffffffffffffffffffffffffffffffffffffff168173ffffffffffffffffffffffffffffffffffffffff167f8be0079c531659141344cd1fd0a4f28419497f9722a3daafe3b4186f6b6457e060405160405180910390a35050565b6000604051905090565b600080fd5b600080fd5b600080fd5b6000601f19601f8301169050919050565b7f4e487b7100000000000000000000000000000000000000000000000000000000600052604160045260246000fd5b610ad182610a88565b810181811067ffffffffffffffff82111715610af057610aef610a99565b5b80604052505050565b6000610b03610a6f565b9050610b0f8282610ac8565b919050565b600067ffffffffffffffff821115610b2f57610b2e610a99565b5b602082029050602081019050919050565b600080fd5b600073ffffffffffffffffffffffffffffffffffffffff82169050919050565b6000610b7082610b45565b9050919050565b610b8081610b65565b8114610b8b57600080fd5b50565b600081359050610b9d81610b77565b92915050565b6000610bb6610bb184610b14565b610af9565b90508083825260208201905060208402830185811115610bd957610bd8610b40565b5b835b81811015610c025780610bee8882610b8e565b845260208401935050602081019050610bdb565b5050509392505050565b600082601f830112610c2157610c20610a83565b5b8135610c31848260208601610ba3565b91505092915050565b600060208284031215610c5057610c4f610a79565b5b600082013567ffffffffffffffff811115610c6e57610c6d610a7e565b5b610c7a84828501610c0c565b91505092915050565b600081519050919050565b600082825260208201905092915050565b6000819050602082019050919050565b610cb881610b65565b82525050565b6000610cca8383610caf565b60208301905092915050565b6000602082019050919050565b6000610cee82610c83565b610cf88185610c8e565b9350610d0383610c9f565b8060005b83811015610d34578151610d1b8882610cbe565b9750610d2683610cd6565b925050600181019050610d07565b5085935050505092915050565b60006020820190508181036000830152610d5b8184610ce3565b905092915050565b600060208284031215610d7957610d78610a79565b5b6000610d8784828501610b8e565b91505092915050565b60008115159050919050565b610da581610d90565b82525050565b6000602082019050610dc06000830184610d9c565b92915050565b610dcf81610b65565b82525050565b6000602082019050610dea6000830184610dc6565b92915050565b6000819050919050565b610e0381610df0565b8114610e0e57600080fd5b50565b600081359050610e2081610dfa565b92915050565b600060208284031215610e3c57610e3b610a79565b5b6000610e4a84828501610e11565b91505092915050565b600082825260208201905092915050565b7f4f776e61626c653a2063616c6c6572206973206e6f7420746865206f776e6572600082015250565b6000610e9a602083610e53565b9150610ea582610e64565b602082019050919050565b60006020820190508181036000830152610ec981610e8d565b9050919050565b7f4e487b7100000000000000000000000000000000000000000000000000000000600052603260045260246000fd5b7f5369676e657220616c7265616479206578697374730000000000000000000000600082015250565b6000610f35601583610e53565b9150610f4082610eff565b602082019050919050565b60006020820190508181036000830152610f6481610f28565b9050919050565b610f7481610df0565b82525050565b6000604082019050610f8f6000830185610dc6565b610f9c6020830184610f6b565b9392505050565b7f4e487b7100000000000000000000000000000000000000000000000000000000600052601160045260246000fd5b6000610fdd82610df0565b91507fffffffffffffffffffffffffffffffffffffffffffffffffffffffffffffffff820361100f5761100e610fa3565b5b600182019050919050565b7f5369676e657220646f6573206e6f742065786973747300000000000000000000600082015250565b6000611050601683610e53565b915061105b8261101a565b602082019050919050565b6000602082019050818103600083015261107f81611043565b9050919050565b7f4f776e61626c653a206e6577206f776e657220697320746865207a65726f206160008201527f6464726573730000000000000000000000000000000000000000000000000000602082015250565b60006110e2602683610e53565b91506110ed82611086565b604082019050919050565b60006020820190508181036000830152611111816110d5565b9050919050565b600061112382610df0565b915061112e83610df0565b925082820390508181111561114657611145610fa3565b5b92915050565b7f4e487b7100000000000000000000000000000000000000000000000000000000600052603160045260246000fdfea2646970667358221220ff831135f476e0dc5f592101987176c920b38d68366f9d5f5b8be54d7509701d64736f6c63430008110033",
  "devdoc": {
    "events": {
      "SignerAdded(address,address,uint256)": {
        "details": "emitted after adding a signer",
        "params": {
          "signer": "address of added signer",
          "timestamp": "of change*",
          "user": "performing the transaction"
        }
      },
      "SignerRemoved(address,address,uint256)": {
        "details": "emitted after removing a signer",
        "params": {
          "signer": "address of removed signer",
          "timestamp": "of change*",
          "user": "performing the transaction"
        }
      }
    },
    "kind": "dev",
    "methods": {
      "owner()": {
        "details": "Returns the address of the current owner."
      },
      "renounceOwnership()": {
        "details": "Leaves the contract without owner. It will not be possible to call `onlyOwner` functions anymore. Can only be called by the current owner. NOTE: Renouncing ownership will leave the contract without an owner, thereby removing any functionality that is only available to the owner."
      },
      "transferOwnership(address)": {
        "details": "Transfers ownership of the contract to a new account (`newOwner`). Can only be called by the current owner."
      }
    },
    "version": 1
  },
  "userdoc": {
    "kind": "user",
    "methods": {},
    "version": 1
  },
  "storageLayout": {
    "storage": [
      {
        "astId": 549,
        "contract": "contracts/RedstoneConfigManager.sol:RedstoneConfigManager",
        "label": "_owner",
        "offset": 0,
        "slot": "0",
        "type": "t_address"
      },
      {
        "astId": 9283,
        "contract": "contracts/RedstoneConfigManager.sol:RedstoneConfigManager",
        "label": "signerAuthorized",
        "offset": 0,
        "slot": "1",
        "type": "t_mapping(t_address,t_bool)"
      },
      {
        "astId": 9286,
        "contract": "contracts/RedstoneConfigManager.sol:RedstoneConfigManager",
        "label": "trustedSigners",
        "offset": 0,
        "slot": "2",
        "type": "t_array(t_address)dyn_storage"
      }
    ],
    "types": {
      "t_address": {
        "encoding": "inplace",
        "label": "address",
        "numberOfBytes": "20"
      },
      "t_array(t_address)dyn_storage": {
        "base": "t_address",
        "encoding": "dynamic_array",
        "label": "address[]",
        "numberOfBytes": "32"
      },
      "t_bool": {
        "encoding": "inplace",
        "label": "bool",
        "numberOfBytes": "1"
      },
      "t_mapping(t_address,t_bool)": {
        "encoding": "mapping",
        "key": "t_address",
        "label": "mapping(address => bool)",
        "numberOfBytes": "32",
        "value": "t_bool"
      }
    }
  }
}