{
  "address": "0x26d21d57ba729B2eBCDc600C055c3718b1ef4721",
  "abi": [
    {
      "anonymous": false,
      "inputs": [
        {
          "indexed": true,
          "internalType": "address",
          "name": "user",
          "type": "address"
        },
        {
          "indexed": false,
          "internalType": "uint256",
          "name": "amount",
          "type": "uint256"
        },
        {
          "indexed": false,
          "internalType": "uint256",
          "name": "timestamp",
          "type": "uint256"
        }
      ],
      "name": "DepositNative",
      "type": "event"
    },
    {
      "anonymous": false,
      "inputs": [
        {
          "indexed": true,
          "internalType": "address",
          "name": "user",
          "type": "address"
        },
        {
          "indexed": false,
          "internalType": "uint256",
          "name": "amount",
          "type": "uint256"
        },
        {
          "indexed": false,
          "internalType": "uint256",
          "name": "timestamp",
          "type": "uint256"
        }
      ],
      "name": "UnwrapAndWithdraw",
      "type": "event"
    },
    {
      "anonymous": false,
      "inputs": [
        {
          "indexed": true,
          "internalType": "address",
          "name": "user",
          "type": "address"
        },
        {
          "indexed": false,
          "internalType": "uint256",
          "name": "amount",
          "type": "uint256"
        },
        {
          "indexed": false,
          "internalType": "uint256",
          "name": "timestamp",
          "type": "uint256"
        }
      ],
      "name": "WrapNative",
      "type": "event"
    },
    {
      "inputs": [],
      "name": "depositNativeToken",
      "outputs": [],
      "stateMutability": "payable",
      "type": "function"
    },
    {
      "inputs": [
        {
          "internalType": "uint256",
          "name": "_amount",
          "type": "uint256"
        }
      ],
      "name": "unwrapAndWithdraw",
      "outputs": [],
      "stateMutability": "payable",
      "type": "function"
    },
    {
      "inputs": [
        {
          "internalType": "uint256",
          "name": "amount",
          "type": "uint256"
        }
      ],
      "name": "wrapNativeToken",
      "outputs": [],
      "stateMutability": "nonpayable",
      "type": "function"
    }
  ],
  "transactionHash": "0x974868d5665e004d77b2763efcb75b1dcc92c25a0233b038d61d5cddf147e343",
  "args": [],
  "numDeployments": 1,
  "solcInputHash": "df3ad5bdcd0ec16bf72ca3adff085c61",
  "bytecode": "0x608060405234801561001057600080fd5b50610a5d806100206000396000f3fe6080604052600436106100345760003560e01c80637614738f1461003957806379433d8b14610055578063d75c74621461005f575b600080fd5b610053600480360381019061004e919061061f565b610088565b005b61005d610240565b005b34801561006b57600080fd5b506100866004803603810190610081919061061f565b6102fa565b005b610090610400565b600061009a61049b565b9050818173ffffffffffffffffffffffffffffffffffffffff166370a08231306040518263ffffffff1660e01b81526004016100d6919061068d565b602060405180830381865afa1580156100f3573d6000803e3d6000fd5b505050506040513d601f19601f8201168201806040525081019061011791906106bd565b1015610158576040517f08c379a000000000000000000000000000000000000000000000000000000000815260040161014f9061076d565b60405180910390fd5b8073ffffffffffffffffffffffffffffffffffffffff16632e1a7d4d836040518263ffffffff1660e01b8152600401610191919061079c565b600060405180830381600087803b1580156101ab57600080fd5b505af11580156101bf573d6000803e3d6000fd5b505050506101ec823373ffffffffffffffffffffffffffffffffffffffff166104b790919063ffffffff16565b3373ffffffffffffffffffffffffffffffffffffffff167f83749ca044109081c911aa9255ba07ed5474bc491b48cce7fb0f503d368d5f3f34426040516102349291906107b7565b60405180910390a25050565b61024861049b565b73ffffffffffffffffffffffffffffffffffffffff1663d0e30db0346040518263ffffffff1660e01b81526004016000604051808303818588803b15801561028f57600080fd5b505af11580156102a3573d6000803e3d6000fd5b50505050503373ffffffffffffffffffffffffffffffffffffffff167f6bb902f8baf2580ae3dae24e58f4b874ecca85152076af921bfd172dce1c7e2834426040516102f09291906107b7565b60405180910390a2565b610302610400565b47811115610345576040517f08c379a000000000000000000000000000000000000000000000000000000000815260040161033c9061082c565b60405180910390fd5b61034d61049b565b73ffffffffffffffffffffffffffffffffffffffff1663d0e30db0826040518263ffffffff1660e01b81526004016000604051808303818588803b15801561039457600080fd5b505af11580156103a8573d6000803e3d6000fd5b50505050503373ffffffffffffffffffffffffffffffffffffffff167f31940b66d3ccbdf0631c8148b09a02f62900b42df4ac81ade597bd6bb610d56982426040516103f59291906107b7565b60405180910390a250565b6104086105b7565b60000160009054906101000a900473ffffffffffffffffffffffffffffffffffffffff1673ffffffffffffffffffffffffffffffffffffffff163373ffffffffffffffffffffffffffffffffffffffff1614610499576040517f08c379a0000000000000000000000000000000000000000000000000000000008152600401610490906108be565b60405180910390fd5b565b600073b31f66aa3c1e785363f0875a1b74e27b85fd66c7905090565b60008273ffffffffffffffffffffffffffffffffffffffff1682600067ffffffffffffffff8111156104ec576104eb6108de565b5b6040519080825280601f01601f19166020018201604052801561051e5781602001600182028036833780820191505090505b5060405161052c919061097e565b60006040518083038185875af1925050503d8060008114610569576040519150601f19603f3d011682016040523d82523d6000602084013e61056e565b606091505b50509050806105b2576040517f08c379a00000000000000000000000000000000000000000000000000000000081526004016105a990610a07565b60405180910390fd5b505050565b6000807f8d5bb42e0ac1496a2c326edc9c00758985246e6c2bb146d6c2f4a0d509e0960a90508091505090565b600080fd5b6000819050919050565b6105fc816105e9565b811461060757600080fd5b50565b600081359050610619816105f3565b92915050565b600060208284031215610635576106346105e4565b5b60006106438482850161060a565b91505092915050565b600073ffffffffffffffffffffffffffffffffffffffff82169050919050565b60006106778261064c565b9050919050565b6106878161066c565b82525050565b60006020820190506106a2600083018461067e565b92915050565b6000815190506106b7816105f3565b92915050565b6000602082840312156106d3576106d26105e4565b5b60006106e1848285016106a8565b91505092915050565b600082825260208201905092915050565b7f4e6f7420656e6f756768206e617469766520746f6b656e20746f20756e77726160008201527f7020616e64207769746864726177000000000000000000000000000000000000602082015250565b6000610757602e836106ea565b9150610762826106fb565b604082019050919050565b600060208201905081810360008301526107868161074a565b9050919050565b610796816105e9565b82525050565b60006020820190506107b1600083018461078d565b92915050565b60006040820190506107cc600083018561078d565b6107d9602083018461078d565b9392505050565b7f4e6f7420656e6f756768206e617469766520746f6b656e20746f207772617000600082015250565b6000610816601f836106ea565b9150610821826107e0565b602082019050919050565b6000602082019050818103600083015261084581610809565b9050919050565b7f4469616d6f6e6453746f726167654c69623a204d75737420626520636f6e747260008201527f616374206f776e65720000000000000000000000000000000000000000000000602082015250565b60006108a86029836106ea565b91506108b38261084c565b604082019050919050565b600060208201905081810360008301526108d78161089b565b9050919050565b7f4e487b7100000000000000000000000000000000000000000000000000000000600052604160045260246000fd5b600081519050919050565b600081905092915050565b60005b83811015610941578082015181840152602081019050610926565b60008484015250505050565b60006109588261090d565b6109628185610918565b9350610972818560208601610923565b80840191505092915050565b600061098a828461094d565b915081905092915050565b7f5472616e7366657248656c7065723a3a736166655472616e736665724554483a60008201527f20455448207472616e73666572206661696c6564000000000000000000000000602082015250565b60006109f16034836106ea565b91506109fc82610995565b604082019050919050565b60006020820190508181036000830152610a20816109e4565b905091905056fea2646970667358221220f2bba597a3959e6bc2a4747f2901812cd5adc1b27907325fd49dadb6e119e04964736f6c63430008110033",
  "devdoc": {
    "events": {
      "DepositNative(address,uint256,uint256)": {
        "details": "emitted when native tokens are deposited to the SmartLoan",
        "params": {
          "amount": "of deposited funds",
          "timestamp": "of deposit*",
          "user": "the address initiating deposit of native token"
        }
      },
      "UnwrapAndWithdraw(address,uint256,uint256)": {
        "details": "emitted when native tokens are unwrapped and withdrawn from the SmartLoan",
        "params": {
          "amount": "of unwrapped and withdrawn funds",
          "timestamp": "of unwrap and withdraw*",
          "user": "the address initiating unwrap and withdraw of native token"
        }
      },
      "WrapNative(address,uint256,uint256)": {
        "details": "emitted when native tokens are wrapped in the SmartLoan",
        "params": {
          "amount": "of wrapped funds",
          "timestamp": "of wrap*",
          "user": "the address initiating wrap"
        }
      }
    },
    "kind": "dev",
    "methods": {},
    "version": 1
  },
  "userdoc": {
    "kind": "user",
    "methods": {},
    "version": 1
  },
  "storageLayout": {
    "storage": [],
    "types": null
  }
}