{
  "address": "0x7dBcB7b5019cfD15225E5aDc454B864CA1b7f2d1",
  "abi": [
    {
      "inputs": [
        {
          "internalType": "address",
          "name": "_contractOwner",
          "type": "address"
        },
        {
          "internalType": "address",
          "name": "_diamondCutFacet",
          "type": "address"
        }
      ],
      "stateMutability": "payable",
      "type": "constructor"
    },
    {
      "stateMutability": "payable",
      "type": "fallback"
    },
    {
      "inputs": [],
      "name": "getStatus",
      "outputs": [
        {
          "internalType": "bool",
          "name": "",
          "type": "bool"
        }
      ],
      "stateMutability": "view",
      "type": "function"
    },
    {
      "inputs": [
        {
          "internalType": "bytes4",
          "name": "funcSignature",
          "type": "bytes4"
        }
      ],
      "name": "implementation",
      "outputs": [
        {
          "internalType": "address",
          "name": "",
          "type": "address"
        }
      ],
      "stateMutability": "view",
      "type": "function"
    },
    {
      "inputs": [],
      "name": "implementation",
      "outputs": [
        {
          "internalType": "address",
          "name": "",
          "type": "address"
        }
      ],
      "stateMutability": "view",
      "type": "function"
    }
  ],
  "transactionHash": "0x077c342f5e4f60b40a2e8be5075766b593ec151173c102d138adaffd346a5705",
  "args": [
    "0xbAc44698844f13cF0AF423b19040659b688ef036",
    "0xd4412ac04f0BE797015D1aA970d08428C0750375"
  ],
  "numDeployments": 1,
  "solcInputHash": "a4b88ff5538246b5890b9466627b5256",
  "bytecode": "0x608060405260405162004e8d38038062004e8d8339818101604052810190620000299190620019d3565b6200003f82620002cd60201b620003781760201c565b6000600167ffffffffffffffff8111156200005f576200005e62001a1a565b5b6040519080825280602002602001820160405280156200009c57816020015b620000886200191d565b8152602001906001900390816200007e5790505b5090506000600367ffffffffffffffff811115620000bf57620000be62001a1a565b5b604051908082528060200260200182016040528015620000ee5781602001602082028036833780820191505090505b509050631f931c1c60e01b8160008151811062000110576200010f62001a49565b5b60200260200101907bffffffffffffffffffffffffffffffffffffffffffffffffffffffff191690817bffffffffffffffffffffffffffffffffffffffffffffffffffffffff191681525050638456cb5960e01b816001815181106200017b576200017a62001a49565b5b60200260200101907bffffffffffffffffffffffffffffffffffffffffffffffffffffffff191690817bffffffffffffffffffffffffffffffffffffffffffffffffffffffff191681525050633f4ba83a60e01b81600281518110620001e657620001e562001a49565b5b60200260200101907bffffffffffffffffffffffffffffffffffffffffffffffffffffffff191690817bffffffffffffffffffffffffffffffffffffffffffffffffffffffff19168152505060405180606001604052808473ffffffffffffffffffffffffffffffffffffffff1681526020016000600281111562000270576200026f62001a78565b5b8152602001828152508260008151811062000290576200028f62001a49565b5b6020026020010181905250620002c382600060405180602001604052806000815250620003ac60201b6200044f1760201c565b5050505062002710565b6000620002df6200063060201b60201c565b905060008160000160009054906101000a900473ffffffffffffffffffffffffffffffffffffffff169050828260000160006101000a81548173ffffffffffffffffffffffffffffffffffffffff021916908373ffffffffffffffffffffffffffffffffffffffff1602179055508273ffffffffffffffffffffffffffffffffffffffff168173ffffffffffffffffffffffffffffffffffffffff167f8be0079c531659141344cd1fd0a4f28419497f9722a3daafe3b4186f6b6457e060405160405180910390a3505050565b60005b8351811015620005db576000848281518110620003d157620003d062001a49565b5b602002602001015160200151905060006002811115620003f657620003f562001a78565b5b8160028111156200040c576200040b62001a78565b5b036200046c57620004668583815181106200042c576200042b62001a49565b5b6020026020010151600001518684815181106200044e576200044d62001a49565b5b6020026020010151604001516200065d60201b60201c565b620005c4565b6001600281111562000483576200048262001a78565b5b81600281111562000499576200049862001a78565b5b03620004f957620004f3858381518110620004b957620004b862001a49565b5b602002602001015160000151868481518110620004db57620004da62001a49565b5b602002602001015160400151620008ff60201b60201c565b620005c3565b6002808111156200050f576200050e62001a78565b5b81600281111562000525576200052462001a78565b5b0362000585576200057f85838151811062000545576200054462001a49565b5b60200260200101516000015186848151811062000567576200056662001a49565b5b60200260200101516040015162000bb360201b60201c565b620005c2565b6040517f08c379a0000000000000000000000000000000000000000000000000000000008152600401620005b99062001b2e565b60405180910390fd5b5b5b508080620005d29062001b89565b915050620003af565b507f8faa70878671ccd212d20771b795c50af8fd3ff6cf27f4bde57e5d4de0aeb673838383604051620006119392919062001f03565b60405180910390a16200062b828262000d5b60201b60201c565b505050565b6000807f8d5bb42e0ac1496a2c326edc9c00758985246e6c2bb146d6c2f4a0d509e0960a90508091505090565b6000815111620006a4576040517f08c379a00000000000000000000000000000000000000000000000000000000081526004016200069b9062001fc4565b60405180910390fd5b6000620006b662000f8960201b60201c565b9050600073ffffffffffffffffffffffffffffffffffffffff168373ffffffffffffffffffffffffffffffffffffffff16036200072a576040517f08c379a000000000000000000000000000000000000000000000000000000000815260040162000721906200205c565b60405180910390fd5b60008160010160008573ffffffffffffffffffffffffffffffffffffffff1673ffffffffffffffffffffffffffffffffffffffff1681526020019081526020016000206000018054905090506000816bffffffffffffffffffffffff1603620007a0576200079f828562000fb660201b60201c565b5b60005b8351811015620008f8576000848281518110620007c557620007c462001a49565b5b602002602001015190506000846000016000837bffffffffffffffffffffffffffffffffffffffffffffffffffffffff19167bffffffffffffffffffffffffffffffffffffffffffffffffffffffff1916815260200190815260200160002060000160009054906101000a900473ffffffffffffffffffffffffffffffffffffffff169050600073ffffffffffffffffffffffffffffffffffffffff168173ffffffffffffffffffffffffffffffffffffffff1614620008bc576040517f08c379a0000000000000000000000000000000000000000000000000000000008152600401620008b390620020f4565b60405180910390fd5b620008d08583868a6200109a60201b60201c565b8380620008dd906200212e565b94505050508080620008ef9062001b89565b915050620007a3565b5050505050565b600081511162000946576040517f08c379a00000000000000000000000000000000000000000000000000000000081526004016200093d9062001fc4565b60405180910390fd5b60006200095862000f8960201b60201c565b9050600073ffffffffffffffffffffffffffffffffffffffff168373ffffffffffffffffffffffffffffffffffffffff1603620009cc576040517f08c379a0000000000000000000000000000000000000000000000000000000008152600401620009c3906200205c565b60405180910390fd5b60008160010160008573ffffffffffffffffffffffffffffffffffffffff1673ffffffffffffffffffffffffffffffffffffffff1681526020019081526020016000206000018054905090506000816bffffffffffffffffffffffff160362000a425762000a41828562000fb660201b60201c565b5b60005b835181101562000bac57600084828151811062000a675762000a6662001a49565b5b602002602001015190506000846000016000837bffffffffffffffffffffffffffffffffffffffffffffffffffffffff19167bffffffffffffffffffffffffffffffffffffffffffffffffffffffff1916815260200190815260200160002060000160009054906101000a900473ffffffffffffffffffffffffffffffffffffffff1690508673ffffffffffffffffffffffffffffffffffffffff168173ffffffffffffffffffffffffffffffffffffffff160362000b5d576040517f08c379a000000000000000000000000000000000000000000000000000000000815260040162000b5490620021dd565b60405180910390fd5b62000b708582846200124760201b60201c565b62000b848583868a6200109a60201b60201c565b838062000b91906200212e565b9450505050808062000ba39062001b89565b91505062000a45565b5050505050565b600081511162000bfa576040517f08c379a000000000000000000000000000000000000000000000000000000000815260040162000bf19062001fc4565b60405180910390fd5b600062000c0c62000f8960201b60201c565b9050600073ffffffffffffffffffffffffffffffffffffffff168373ffffffffffffffffffffffffffffffffffffffff161462000c80576040517f08c379a000000000000000000000000000000000000000000000000000000000815260040162000c779062002275565b60405180910390fd5b60005b825181101562000d5557600083828151811062000ca55762000ca462001a49565b5b602002602001015190506000836000016000837bffffffffffffffffffffffffffffffffffffffffffffffffffffffff19167bffffffffffffffffffffffffffffffffffffffffffffffffffffffff1916815260200190815260200160002060000160009054906101000a900473ffffffffffffffffffffffffffffffffffffffff16905062000d3d8482846200124760201b60201c565b5050808062000d4c9062001b89565b91505062000c83565b50505050565b600073ffffffffffffffffffffffffffffffffffffffff168273ffffffffffffffffffffffffffffffffffffffff160362000ddd57600081511462000dd7576040517f08c379a000000000000000000000000000000000000000000000000000000000815260040162000dce9062002333565b60405180910390fd5b62000f85565b600081511162000e24576040517f08c379a000000000000000000000000000000000000000000000000000000000815260040162000e1b90620023f1565b60405180910390fd5b3073ffffffffffffffffffffffffffffffffffffffff168273ffffffffffffffffffffffffffffffffffffffff161462000e845762000e83826040518060600160405280602f815260200162004e5e602f9139620018c860201b60201c565b5b6000808373ffffffffffffffffffffffffffffffffffffffff168360405162000eae919062002455565b600060405180830381855af49150503d806000811462000eeb576040519150601f19603f3d011682016040523d82523d6000602084013e62000ef0565b606091505b50915091508162000f825760008151111562000f4557806040517f08c379a000000000000000000000000000000000000000000000000000000000815260040162000f3c9190620024ba565b60405180910390fd5b6040517f08c379a000000000000000000000000000000000000000000000000000000000815260040162000f799062002554565b60405180910390fd5b50505b5050565b6000807fc8fcad8db84d3cc18b4c41d551ea0ee66dd599cde068d998e57d5e09332c131c90508091505090565b62000fe1816040518060600160405280602b815260200162004e33602b9139620018c860201b60201c565b81600201805490508260010160008373ffffffffffffffffffffffffffffffffffffffff1673ffffffffffffffffffffffffffffffffffffffff1681526020019081526020016000206001018190555081600201819080600181540180825580915050600190039060005260206000200160009091909190916101000a81548173ffffffffffffffffffffffffffffffffffffffff021916908373ffffffffffffffffffffffffffffffffffffffff1602179055505050565b81846000016000857bffffffffffffffffffffffffffffffffffffffffffffffffffffffff19167bffffffffffffffffffffffffffffffffffffffffffffffffffffffff1916815260200190815260200160002060000160146101000a8154816bffffffffffffffffffffffff02191690836bffffffffffffffffffffffff1602179055508360010160008273ffffffffffffffffffffffffffffffffffffffff1673ffffffffffffffffffffffffffffffffffffffff1681526020019081526020016000206000018390806001815401808255809150506001900390600052602060002090600891828204019190066004029091909190916101000a81548163ffffffff021916908360e01c021790555080846000016000857bffffffffffffffffffffffffffffffffffffffffffffffffffffffff19167bffffffffffffffffffffffffffffffffffffffffffffffffffffffff1916815260200190815260200160002060000160006101000a81548173ffffffffffffffffffffffffffffffffffffffff021916908373ffffffffffffffffffffffffffffffffffffffff16021790555050505050565b600073ffffffffffffffffffffffffffffffffffffffff168273ffffffffffffffffffffffffffffffffffffffff1603620012b9576040517f08c379a0000000000000000000000000000000000000000000000000000000008152600401620012b090620025ec565b60405180910390fd5b3073ffffffffffffffffffffffffffffffffffffffff168273ffffffffffffffffffffffffffffffffffffffff16036200132a576040517f08c379a0000000000000000000000000000000000000000000000000000000008152600401620013219062002684565b60405180910390fd5b6000836000016000837bffffffffffffffffffffffffffffffffffffffffffffffffffffffff19167bffffffffffffffffffffffffffffffffffffffffffffffffffffffff1916815260200190815260200160002060000160149054906101000a90046bffffffffffffffffffffffff166bffffffffffffffffffffffff169050600060018560010160008673ffffffffffffffffffffffffffffffffffffffff1673ffffffffffffffffffffffffffffffffffffffff16815260200190815260200160002060000180549050620014039190620026a6565b90508082146200159e5760008560010160008673ffffffffffffffffffffffffffffffffffffffff1673ffffffffffffffffffffffffffffffffffffffff168152602001908152602001600020600001828154811062001468576200146762001a49565b5b90600052602060002090600891828204019190066004029054906101000a900460e01b9050808660010160008773ffffffffffffffffffffffffffffffffffffffff1673ffffffffffffffffffffffffffffffffffffffff1681526020019081526020016000206000018481548110620014e757620014e662001a49565b5b90600052602060002090600891828204019190066004026101000a81548163ffffffff021916908360e01c021790555082866000016000837bffffffffffffffffffffffffffffffffffffffffffffffffffffffff19167bffffffffffffffffffffffffffffffffffffffffffffffffffffffff1916815260200190815260200160002060000160146101000a8154816bffffffffffffffffffffffff02191690836bffffffffffffffffffffffff160217905550505b8460010160008573ffffffffffffffffffffffffffffffffffffffff1673ffffffffffffffffffffffffffffffffffffffff168152602001908152602001600020600001805480620015f557620015f4620026e1565b5b60019003818190600052602060002090600891828204019190066004026101000a81549063ffffffff02191690559055846000016000847bffffffffffffffffffffffffffffffffffffffffffffffffffffffff19167bffffffffffffffffffffffffffffffffffffffffffffffffffffffff19168152602001908152602001600020600080820160006101000a81549073ffffffffffffffffffffffffffffffffffffffff02191690556000820160146101000a8154906bffffffffffffffffffffffff0219169055505060008103620018c157600060018660020180549050620016e29190620026a6565b905060008660010160008773ffffffffffffffffffffffffffffffffffffffff1673ffffffffffffffffffffffffffffffffffffffff1681526020019081526020016000206001015490508181146200182a57600087600201838154811062001750576200174f62001a49565b5b9060005260206000200160009054906101000a900473ffffffffffffffffffffffffffffffffffffffff1690508088600201838154811062001797576200179662001a49565b5b9060005260206000200160006101000a81548173ffffffffffffffffffffffffffffffffffffffff021916908373ffffffffffffffffffffffffffffffffffffffff160217905550818860010160008373ffffffffffffffffffffffffffffffffffffffff1673ffffffffffffffffffffffffffffffffffffffff16815260200190815260200160002060010181905550505b86600201805480620018415762001840620026e1565b5b6001900381819060005260206000200160006101000a81549073ffffffffffffffffffffffffffffffffffffffff021916905590558660010160008773ffffffffffffffffffffffffffffffffffffffff1673ffffffffffffffffffffffffffffffffffffffff1681526020019081526020016000206001016000905550505b5050505050565b6000823b905060008111829062001917576040517f08c379a00000000000000000000000000000000000000000000000000000000081526004016200190e9190620024ba565b60405180910390fd5b50505050565b6040518060600160405280600073ffffffffffffffffffffffffffffffffffffffff168152602001600060028111156200195c576200195b62001a78565b5b8152602001606081525090565b600080fd5b600073ffffffffffffffffffffffffffffffffffffffff82169050919050565b60006200199b826200196e565b9050919050565b620019ad816200198e565b8114620019b957600080fd5b50565b600081519050620019cd81620019a2565b92915050565b60008060408385031215620019ed57620019ec62001969565b5b6000620019fd85828601620019bc565b925050602062001a1085828601620019bc565b9150509250929050565b7f4e487b7100000000000000000000000000000000000000000000000000000000600052604160045260246000fd5b7f4e487b7100000000000000000000000000000000000000000000000000000000600052603260045260246000fd5b7f4e487b7100000000000000000000000000000000000000000000000000000000600052602160045260246000fd5b600082825260208201905092915050565b7f4469616d6f6e6453746f726167654c69624375743a20496e636f72726563742060008201527f4661636574437574416374696f6e000000000000000000000000000000000000602082015250565b600062001b16602e8362001aa7565b915062001b238262001ab8565b604082019050919050565b6000602082019050818103600083015262001b498162001b07565b9050919050565b7f4e487b7100000000000000000000000000000000000000000000000000000000600052601160045260246000fd5b6000819050919050565b600062001b968262001b7f565b91507fffffffffffffffffffffffffffffffffffffffffffffffffffffffffffffffff820362001bcb5762001bca62001b50565b5b600182019050919050565b600081519050919050565b600082825260208201905092915050565b6000819050602082019050919050565b62001c0d816200198e565b82525050565b6003811062001c275762001c2662001a78565b5b50565b600081905062001c3a8262001c13565b919050565b600062001c4c8262001c2a565b9050919050565b62001c5e8162001c3f565b82525050565b600081519050919050565b600082825260208201905092915050565b6000819050602082019050919050565b60007fffffffff0000000000000000000000000000000000000000000000000000000082169050919050565b62001cc78162001c90565b82525050565b600062001cdb838362001cbc565b60208301905092915050565b6000602082019050919050565b600062001d018262001c64565b62001d0d818562001c6f565b935062001d1a8362001c80565b8060005b8381101562001d5157815162001d35888262001ccd565b975062001d428362001ce7565b92505060018101905062001d1e565b5085935050505092915050565b600060608301600083015162001d78600086018262001c02565b50602083015162001d8d602086018262001c53565b506040830151848203604086015262001da7828262001cf4565b9150508091505092915050565b600062001dc2838362001d5e565b905092915050565b6000602082019050919050565b600062001de48262001bd6565b62001df0818562001be1565b93508360208202850162001e048562001bf2565b8060005b8581101562001e46578484038952815162001e24858262001db4565b945062001e318362001dca565b925060208a0199505060018101905062001e08565b50829750879550505050505092915050565b62001e63816200198e565b82525050565b600081519050919050565b600082825260208201905092915050565b60005b8381101562001ea557808201518184015260208101905062001e88565b60008484015250505050565b6000601f19601f8301169050919050565b600062001ecf8262001e69565b62001edb818562001e74565b935062001eed81856020860162001e85565b62001ef88162001eb1565b840191505092915050565b6000606082019050818103600083015262001f1f818662001dd7565b905062001f30602083018562001e58565b818103604083015262001f44818462001ec2565b9050949350505050565b7f4469616d6f6e6453746f726167654c69624375743a204e6f2073656c6563746f60008201527f727320696e20666163657420746f206375740000000000000000000000000000602082015250565b600062001fac60328362001aa7565b915062001fb98262001f4e565b604082019050919050565b6000602082019050818103600083015262001fdf8162001f9d565b9050919050565b7f4469616d6f6e6453746f726167654c69624375743a204164642066616365742060008201527f63616e2774206265206164647265737328302900000000000000000000000000602082015250565b60006200204460338362001aa7565b9150620020518262001fe6565b604082019050919050565b60006020820190508181036000830152620020778162002035565b9050919050565b7f4469616d6f6e6453746f726167654c69624375743a2043616e2774206164642060008201527f66756e6374696f6e207468617420616c72656164792065786973747300000000602082015250565b6000620020dc603c8362001aa7565b9150620020e9826200207e565b604082019050919050565b600060208201905081810360008301526200210f81620020cd565b9050919050565b60006bffffffffffffffffffffffff82169050919050565b60006200213b8262002116565b91506bffffffffffffffffffffffff82036200215c576200215b62001b50565b5b600182019050919050565b7f4469616d6f6e6453746f726167654c69624375743a2043616e2774207265706c60008201527f6163652066756e6374696f6e20776974682073616d652066756e6374696f6e00602082015250565b6000620021c5603f8362001aa7565b9150620021d28262002167565b604082019050919050565b60006020820190508181036000830152620021f881620021b6565b9050919050565b7f4469616d6f6e6453746f726167654c69624375743a2052656d6f76652066616360008201527f65742061646472657373206d7573742062652061646472657373283029000000602082015250565b60006200225d603d8362001aa7565b91506200226a82620021ff565b604082019050919050565b6000602082019050818103600083015262002290816200224e565b9050919050565b7f4469616d6f6e6453746f726167654c69624375743a205f696e6974206973206160008201527f646472657373283029206275745f63616c6c64617461206973206e6f7420656d60208201527f7074790000000000000000000000000000000000000000000000000000000000604082015250565b60006200231b60438362001aa7565b9150620023288262002297565b606082019050919050565b600060208201905081810360008301526200234e816200230c565b9050919050565b7f4469616d6f6e6453746f726167654c69624375743a205f63616c6c646174612060008201527f697320656d70747920627574205f696e6974206973206e6f742061646472657360208201527f7328302900000000000000000000000000000000000000000000000000000000604082015250565b6000620023d960448362001aa7565b9150620023e68262002355565b606082019050919050565b600060208201905081810360008301526200240c81620023ca565b9050919050565b600081905092915050565b60006200242b8262001e69565b62002437818562002413565b93506200244981856020860162001e85565b80840191505092915050565b60006200246382846200241e565b915081905092915050565b600081519050919050565b600062002486826200246e565b62002492818562001aa7565b9350620024a481856020860162001e85565b620024af8162001eb1565b840191505092915050565b60006020820190508181036000830152620024d6818462002479565b905092915050565b7f4469616d6f6e6453746f726167654c69624375743a205f696e69742066756e6360008201527f74696f6e20726576657274656400000000000000000000000000000000000000602082015250565b60006200253c602d8362001aa7565b91506200254982620024de565b604082019050919050565b600060208201905081810360008301526200256f816200252d565b9050919050565b7f4469616d6f6e6453746f726167654c69624375743a2043616e27742072656d6f60008201527f76652066756e6374696f6e207468617420646f65736e27742065786973740000602082015250565b6000620025d4603e8362001aa7565b9150620025e18262002576565b604082019050919050565b600060208201905081810360008301526200260781620025c5565b9050919050565b7f4469616d6f6e6453746f726167654c69624375743a2043616e27742072656d6f60008201527f766520696d6d757461626c652066756e6374696f6e0000000000000000000000602082015250565b60006200266c60358362001aa7565b915062002679826200260e565b604082019050919050565b600060208201905081810360008301526200269f816200265d565b9050919050565b6000620026b38262001b7f565b9150620026c08362001b7f565b9250828203905081811115620026db57620026da62001b50565b5b92915050565b7f4e487b7100000000000000000000000000000000000000000000000000000000600052603160045260246000fd5b61271380620027206000396000f3fe6080604052600436106100385760003560e01c80630d741577146100905780634e69d560146100cd5780635c60da1b146100f857610039565b5b60006100686000357fffffffff0000000000000000000000000000000000000000000000000000000016610123565b90503660008037600080366000845af43d6000803e806000811461008b573d6000f35b3d6000fd5b34801561009c57600080fd5b506100b760048036038101906100b29190611906565b610123565b6040516100c49190611974565b60405180910390f35b3480156100d957600080fd5b506100e261034b565b6040516100ef91906119aa565b60405180910390f35b34801561010457600080fd5b5061010d610370565b60405161011a9190611974565b60405180910390f35b6000631f931c1c60e01b6000357fffffffff00000000000000000000000000000000000000000000000000000000167bffffffffffffffffffffffffffffffffffffffffffffffffffffffff1916141580156101c95750633f4ba83a60e01b6000357fffffffff00000000000000000000000000000000000000000000000000000000167bffffffffffffffffffffffffffffffffffffffffffffffffffffffff191614155b1561022d5760006101d861067e565b90508060040160019054906101000a900460ff1661022b576040517f08c379a000000000000000000000000000000000000000000000000000000000815260040161022290611a22565b60405180910390fd5b505b6000807fc8fcad8db84d3cc18b4c41d551ea0ee66dd599cde068d998e57d5e09332c131c90508091506000826000016000867bffffffffffffffffffffffffffffffffffffffffffffffffffffffff19167bffffffffffffffffffffffffffffffffffffffffffffffffffffffff1916815260200190815260200160002060000160009054906101000a900473ffffffffffffffffffffffffffffffffffffffff169050600073ffffffffffffffffffffffffffffffffffffffff168173ffffffffffffffffffffffffffffffffffffffff1603610340576040517f08c379a000000000000000000000000000000000000000000000000000000000815260040161033790611a8e565b60405180910390fd5b809350505050919050565b60008061035661067e565b90508060040160019054906101000a900460ff1691505090565b600030905090565b60006103826106ab565b905060008160000160009054906101000a900473ffffffffffffffffffffffffffffffffffffffff169050828260000160006101000a81548173ffffffffffffffffffffffffffffffffffffffff021916908373ffffffffffffffffffffffffffffffffffffffff1602179055508273ffffffffffffffffffffffffffffffffffffffff168173ffffffffffffffffffffffffffffffffffffffff167f8be0079c531659141344cd1fd0a4f28419497f9722a3daafe3b4186f6b6457e060405160405180910390a3505050565b60005b83518110156106335760008482815181106104705761046f611aae565b5b60200260200101516020015190506000600281111561049257610491611add565b5b8160028111156104a5576104a4611add565b5b036104f5576104f08583815181106104c0576104bf611aae565b5b6020026020010151600001518684815181106104df576104de611aae565b5b6020026020010151604001516106d8565b61061f565b6001600281111561050957610508611add565b5b81600281111561051c5761051b611add565b5b0361056c5761056785838151811061053757610536611aae565b5b60200260200101516000015186848151811061055657610555611aae565b5b60200260200101516040015161094f565b61061e565b60028081111561057f5761057e611add565b5b81600281111561059257610591611add565b5b036105e2576105dd8583815181106105ad576105ac611aae565b5b6020026020010151600001518684815181106105cc576105cb611aae565b5b602002602001015160400151610bd0565b61061d565b6040517f08c379a000000000000000000000000000000000000000000000000000000000815260040161061490611b7e565b60405180910390fd5b5b5b50808061062b90611bd7565b915050610452565b507f8faa70878671ccd212d20771b795c50af8fd3ff6cf27f4bde57e5d4de0aeb67383838360405161066793929190611ed6565b60405180910390a16106798282610d5b565b505050565b6000807fc8fcad8db84d3cc18b4c41d551ea0ee66dd599cde068d998e57d5e09332c131c90508091505090565b6000807f8d5bb42e0ac1496a2c326edc9c00758985246e6c2bb146d6c2f4a0d509e0960a90508091505090565b600081511161071c576040517f08c379a000000000000000000000000000000000000000000000000000000000815260040161071390611f8d565b60405180910390fd5b600061072661067e565b9050600073ffffffffffffffffffffffffffffffffffffffff168373ffffffffffffffffffffffffffffffffffffffff1603610797576040517f08c379a000000000000000000000000000000000000000000000000000000000815260040161078e9061201f565b60405180910390fd5b60008160010160008573ffffffffffffffffffffffffffffffffffffffff1673ffffffffffffffffffffffffffffffffffffffff1681526020019081526020016000206000018054905090506000816bffffffffffffffffffffffff1603610804576108038285610f6d565b5b60005b835181101561094857600084828151811061082557610824611aae565b5b602002602001015190506000846000016000837bffffffffffffffffffffffffffffffffffffffffffffffffffffffff19167bffffffffffffffffffffffffffffffffffffffffffffffffffffffff1916815260200190815260200160002060000160009054906101000a900473ffffffffffffffffffffffffffffffffffffffff169050600073ffffffffffffffffffffffffffffffffffffffff168173ffffffffffffffffffffffffffffffffffffffff1614610919576040517f08c379a0000000000000000000000000000000000000000000000000000000008152600401610910906120b1565b60405180910390fd5b6109258583868a611048565b8380610930906120e9565b9450505050808061094090611bd7565b915050610807565b5050505050565b6000815111610993576040517f08c379a000000000000000000000000000000000000000000000000000000000815260040161098a90611f8d565b60405180910390fd5b600061099d61067e565b9050600073ffffffffffffffffffffffffffffffffffffffff168373ffffffffffffffffffffffffffffffffffffffff1603610a0e576040517f08c379a0000000000000000000000000000000000000000000000000000000008152600401610a059061201f565b60405180910390fd5b60008160010160008573ffffffffffffffffffffffffffffffffffffffff1673ffffffffffffffffffffffffffffffffffffffff1681526020019081526020016000206000018054905090506000816bffffffffffffffffffffffff1603610a7b57610a7a8285610f6d565b5b60005b8351811015610bc9576000848281518110610a9c57610a9b611aae565b5b602002602001015190506000846000016000837bffffffffffffffffffffffffffffffffffffffffffffffffffffffff19167bffffffffffffffffffffffffffffffffffffffffffffffffffffffff1916815260200190815260200160002060000160009054906101000a900473ffffffffffffffffffffffffffffffffffffffff1690508673ffffffffffffffffffffffffffffffffffffffff168173ffffffffffffffffffffffffffffffffffffffff1603610b8f576040517f08c379a0000000000000000000000000000000000000000000000000000000008152600401610b869061218f565b60405180910390fd5b610b9a8582846111f5565b610ba68583868a611048565b8380610bb1906120e9565b94505050508080610bc190611bd7565b915050610a7e565b5050505050565b6000815111610c14576040517f08c379a0000000000000000000000000000000000000000000000000000000008152600401610c0b90611f8d565b60405180910390fd5b6000610c1e61067e565b9050600073ffffffffffffffffffffffffffffffffffffffff168373ffffffffffffffffffffffffffffffffffffffff1614610c8f576040517f08c379a0000000000000000000000000000000000000000000000000000000008152600401610c8690612221565b60405180910390fd5b60005b8251811015610d55576000838281518110610cb057610caf611aae565b5b602002602001015190506000836000016000837bffffffffffffffffffffffffffffffffffffffffffffffffffffffff19167bffffffffffffffffffffffffffffffffffffffffffffffffffffffff1916815260200190815260200160002060000160009054906101000a900473ffffffffffffffffffffffffffffffffffffffff169050610d408482846111f5565b50508080610d4d90611bd7565b915050610c92565b50505050565b600073ffffffffffffffffffffffffffffffffffffffff168273ffffffffffffffffffffffffffffffffffffffff1603610dd8576000815114610dd3576040517f08c379a0000000000000000000000000000000000000000000000000000000008152600401610dca906122d9565b60405180910390fd5b610f69565b6000815111610e1c576040517f08c379a0000000000000000000000000000000000000000000000000000000008152600401610e1390612391565b60405180910390fd5b3073ffffffffffffffffffffffffffffffffffffffff168273ffffffffffffffffffffffffffffffffffffffff1614610e7257610e71826040518060600160405280602f81526020016126af602f9139611857565b5b6000808373ffffffffffffffffffffffffffffffffffffffff1683604051610e9a91906123ed565b600060405180830381855af49150503d8060008114610ed5576040519150601f19603f3d011682016040523d82523d6000602084013e610eda565b606091505b509150915081610f6657600081511115610f2b57806040517f08c379a0000000000000000000000000000000000000000000000000000000008152600401610f229190612448565b60405180910390fd5b6040517f08c379a0000000000000000000000000000000000000000000000000000000008152600401610f5d906124dc565b60405180910390fd5b50505b5050565b610f8f816040518060600160405280602b8152602001612684602b9139611857565b81600201805490508260010160008373ffffffffffffffffffffffffffffffffffffffff1673ffffffffffffffffffffffffffffffffffffffff1681526020019081526020016000206001018190555081600201819080600181540180825580915050600190039060005260206000200160009091909190916101000a81548173ffffffffffffffffffffffffffffffffffffffff021916908373ffffffffffffffffffffffffffffffffffffffff1602179055505050565b81846000016000857bffffffffffffffffffffffffffffffffffffffffffffffffffffffff19167bffffffffffffffffffffffffffffffffffffffffffffffffffffffff1916815260200190815260200160002060000160146101000a8154816bffffffffffffffffffffffff02191690836bffffffffffffffffffffffff1602179055508360010160008273ffffffffffffffffffffffffffffffffffffffff1673ffffffffffffffffffffffffffffffffffffffff1681526020019081526020016000206000018390806001815401808255809150506001900390600052602060002090600891828204019190066004029091909190916101000a81548163ffffffff021916908360e01c021790555080846000016000857bffffffffffffffffffffffffffffffffffffffffffffffffffffffff19167bffffffffffffffffffffffffffffffffffffffffffffffffffffffff1916815260200190815260200160002060000160006101000a81548173ffffffffffffffffffffffffffffffffffffffff021916908373ffffffffffffffffffffffffffffffffffffffff16021790555050505050565b600073ffffffffffffffffffffffffffffffffffffffff168273ffffffffffffffffffffffffffffffffffffffff1603611264576040517f08c379a000000000000000000000000000000000000000000000000000000000815260040161125b9061256e565b60405180910390fd5b3073ffffffffffffffffffffffffffffffffffffffff168273ffffffffffffffffffffffffffffffffffffffff16036112d2576040517f08c379a00000000000000000000000000000000000000000000000000000000081526004016112c990612600565b60405180910390fd5b6000836000016000837bffffffffffffffffffffffffffffffffffffffffffffffffffffffff19167bffffffffffffffffffffffffffffffffffffffffffffffffffffffff1916815260200190815260200160002060000160149054906101000a90046bffffffffffffffffffffffff166bffffffffffffffffffffffff169050600060018560010160008673ffffffffffffffffffffffffffffffffffffffff1673ffffffffffffffffffffffffffffffffffffffff168152602001908152602001600020600001805490506113a99190612620565b905080821461153d5760008560010160008673ffffffffffffffffffffffffffffffffffffffff1673ffffffffffffffffffffffffffffffffffffffff168152602001908152602001600020600001828154811061140a57611409611aae565b5b90600052602060002090600891828204019190066004029054906101000a900460e01b9050808660010160008773ffffffffffffffffffffffffffffffffffffffff1673ffffffffffffffffffffffffffffffffffffffff168152602001908152602001600020600001848154811061148657611485611aae565b5b90600052602060002090600891828204019190066004026101000a81548163ffffffff021916908360e01c021790555082866000016000837bffffffffffffffffffffffffffffffffffffffffffffffffffffffff19167bffffffffffffffffffffffffffffffffffffffffffffffffffffffff1916815260200190815260200160002060000160146101000a8154816bffffffffffffffffffffffff02191690836bffffffffffffffffffffffff160217905550505b8460010160008573ffffffffffffffffffffffffffffffffffffffff1673ffffffffffffffffffffffffffffffffffffffff16815260200190815260200160002060000180548061159157611590612654565b5b60019003818190600052602060002090600891828204019190066004026101000a81549063ffffffff02191690559055846000016000847bffffffffffffffffffffffffffffffffffffffffffffffffffffffff19167bffffffffffffffffffffffffffffffffffffffffffffffffffffffff19168152602001908152602001600020600080820160006101000a81549073ffffffffffffffffffffffffffffffffffffffff02191690556000820160146101000a8154906bffffffffffffffffffffffff02191690555050600081036118505760006001866002018054905061167b9190612620565b905060008660010160008773ffffffffffffffffffffffffffffffffffffffff1673ffffffffffffffffffffffffffffffffffffffff1681526020019081526020016000206001015490508181146117bc5760008760020183815481106116e5576116e4611aae565b5b9060005260206000200160009054906101000a900473ffffffffffffffffffffffffffffffffffffffff1690508088600201838154811061172957611728611aae565b5b9060005260206000200160006101000a81548173ffffffffffffffffffffffffffffffffffffffff021916908373ffffffffffffffffffffffffffffffffffffffff160217905550818860010160008373ffffffffffffffffffffffffffffffffffffffff1673ffffffffffffffffffffffffffffffffffffffff16815260200190815260200160002060010181905550505b866002018054806117d0576117cf612654565b5b6001900381819060005260206000200160006101000a81549073ffffffffffffffffffffffffffffffffffffffff021916905590558660010160008773ffffffffffffffffffffffffffffffffffffffff1673ffffffffffffffffffffffffffffffffffffffff1681526020019081526020016000206001016000905550505b5050505050565b6000823b90506000811182906118a3576040517f08c379a000000000000000000000000000000000000000000000000000000000815260040161189a9190612448565b60405180910390fd5b50505050565b600080fd5b60007fffffffff0000000000000000000000000000000000000000000000000000000082169050919050565b6118e3816118ae565b81146118ee57600080fd5b50565b600081359050611900816118da565b92915050565b60006020828403121561191c5761191b6118a9565b5b600061192a848285016118f1565b91505092915050565b600073ffffffffffffffffffffffffffffffffffffffff82169050919050565b600061195e82611933565b9050919050565b61196e81611953565b82525050565b60006020820190506119896000830184611965565b92915050565b60008115159050919050565b6119a48161198f565b82525050565b60006020820190506119bf600083018461199b565b92915050565b600082825260208201905092915050565b7f50726f746f636f6c557067726164653a207061757365642e0000000000000000600082015250565b6000611a0c6018836119c5565b9150611a17826119d6565b602082019050919050565b60006020820190508181036000830152611a3b816119ff565b9050919050565b7f4469616d6f6e643a2046756e6374696f6e20646f6573206e6f74206578697374600082015250565b6000611a786020836119c5565b9150611a8382611a42565b602082019050919050565b60006020820190508181036000830152611aa781611a6b565b9050919050565b7f4e487b7100000000000000000000000000000000000000000000000000000000600052603260045260246000fd5b7f4e487b7100000000000000000000000000000000000000000000000000000000600052602160045260246000fd5b7f4469616d6f6e6453746f726167654c69624375743a20496e636f72726563742060008201527f4661636574437574416374696f6e000000000000000000000000000000000000602082015250565b6000611b68602e836119c5565b9150611b7382611b0c565b604082019050919050565b60006020820190508181036000830152611b9781611b5b565b9050919050565b7f4e487b7100000000000000000000000000000000000000000000000000000000600052601160045260246000fd5b6000819050919050565b6000611be282611bcd565b91507fffffffffffffffffffffffffffffffffffffffffffffffffffffffffffffffff8203611c1457611c13611b9e565b5b600182019050919050565b600081519050919050565b600082825260208201905092915050565b6000819050602082019050919050565b611c5481611953565b82525050565b60038110611c6b57611c6a611add565b5b50565b6000819050611c7c82611c5a565b919050565b6000611c8c82611c6e565b9050919050565b611c9c81611c81565b82525050565b600081519050919050565b600082825260208201905092915050565b6000819050602082019050919050565b611cd7816118ae565b82525050565b6000611ce98383611cce565b60208301905092915050565b6000602082019050919050565b6000611d0d82611ca2565b611d178185611cad565b9350611d2283611cbe565b8060005b83811015611d53578151611d3a8882611cdd565b9750611d4583611cf5565b925050600181019050611d26565b5085935050505092915050565b6000606083016000830151611d786000860182611c4b565b506020830151611d8b6020860182611c93565b5060408301518482036040860152611da38282611d02565b9150508091505092915050565b6000611dbc8383611d60565b905092915050565b6000602082019050919050565b6000611ddc82611c1f565b611de68185611c2a565b935083602082028501611df885611c3b565b8060005b85811015611e345784840389528151611e158582611db0565b9450611e2083611dc4565b925060208a01995050600181019050611dfc565b50829750879550505050505092915050565b600081519050919050565b600082825260208201905092915050565b60005b83811015611e80578082015181840152602081019050611e65565b60008484015250505050565b6000601f19601f8301169050919050565b6000611ea882611e46565b611eb28185611e51565b9350611ec2818560208601611e62565b611ecb81611e8c565b840191505092915050565b60006060820190508181036000830152611ef08186611dd1565b9050611eff6020830185611965565b8181036040830152611f118184611e9d565b9050949350505050565b7f4469616d6f6e6453746f726167654c69624375743a204e6f2073656c6563746f60008201527f727320696e20666163657420746f206375740000000000000000000000000000602082015250565b6000611f776032836119c5565b9150611f8282611f1b565b604082019050919050565b60006020820190508181036000830152611fa681611f6a565b9050919050565b7f4469616d6f6e6453746f726167654c69624375743a204164642066616365742060008201527f63616e2774206265206164647265737328302900000000000000000000000000602082015250565b60006120096033836119c5565b915061201482611fad565b604082019050919050565b6000602082019050818103600083015261203881611ffc565b9050919050565b7f4469616d6f6e6453746f726167654c69624375743a2043616e2774206164642060008201527f66756e6374696f6e207468617420616c72656164792065786973747300000000602082015250565b600061209b603c836119c5565b91506120a68261203f565b604082019050919050565b600060208201905081810360008301526120ca8161208e565b9050919050565b60006bffffffffffffffffffffffff82169050919050565b60006120f4826120d1565b91506bffffffffffffffffffffffff820361211257612111611b9e565b5b600182019050919050565b7f4469616d6f6e6453746f726167654c69624375743a2043616e2774207265706c60008201527f6163652066756e6374696f6e20776974682073616d652066756e6374696f6e00602082015250565b6000612179603f836119c5565b91506121848261211d565b604082019050919050565b600060208201905081810360008301526121a88161216c565b9050919050565b7f4469616d6f6e6453746f726167654c69624375743a2052656d6f76652066616360008201527f65742061646472657373206d7573742062652061646472657373283029000000602082015250565b600061220b603d836119c5565b9150612216826121af565b604082019050919050565b6000602082019050818103600083015261223a816121fe565b9050919050565b7f4469616d6f6e6453746f726167654c69624375743a205f696e6974206973206160008201527f646472657373283029206275745f63616c6c64617461206973206e6f7420656d60208201527f7074790000000000000000000000000000000000000000000000000000000000604082015250565b60006122c36043836119c5565b91506122ce82612241565b606082019050919050565b600060208201905081810360008301526122f2816122b6565b9050919050565b7f4469616d6f6e6453746f726167654c69624375743a205f63616c6c646174612060008201527f697320656d70747920627574205f696e6974206973206e6f742061646472657360208201527f7328302900000000000000000000000000000000000000000000000000000000604082015250565b600061237b6044836119c5565b9150612386826122f9565b606082019050919050565b600060208201905081810360008301526123aa8161236e565b9050919050565b600081905092915050565b60006123c782611e46565b6123d181856123b1565b93506123e1818560208601611e62565b80840191505092915050565b60006123f982846123bc565b915081905092915050565b600081519050919050565b600061241a82612404565b61242481856119c5565b9350612434818560208601611e62565b61243d81611e8c565b840191505092915050565b60006020820190508181036000830152612462818461240f565b905092915050565b7f4469616d6f6e6453746f726167654c69624375743a205f696e69742066756e6360008201527f74696f6e20726576657274656400000000000000000000000000000000000000602082015250565b60006124c6602d836119c5565b91506124d18261246a565b604082019050919050565b600060208201905081810360008301526124f5816124b9565b9050919050565b7f4469616d6f6e6453746f726167654c69624375743a2043616e27742072656d6f60008201527f76652066756e6374696f6e207468617420646f65736e27742065786973740000602082015250565b6000612558603e836119c5565b9150612563826124fc565b604082019050919050565b600060208201905081810360008301526125878161254b565b9050919050565b7f4469616d6f6e6453746f726167654c69624375743a2043616e27742072656d6f60008201527f766520696d6d757461626c652066756e6374696f6e0000000000000000000000602082015250565b60006125ea6035836119c5565b91506125f58261258e565b604082019050919050565b60006020820190508181036000830152612619816125dd565b9050919050565b600061262b82611bcd565b915061263683611bcd565b925082820390508181111561264e5761264d611b9e565b5b92915050565b7f4e487b7100000000000000000000000000000000000000000000000000000000600052603160045260246000fdfe4469616d6f6e6453746f726167654c69624375743a204e657720666163657420686173206e6f20636f64654469616d6f6e6453746f726167654c69624375743a205f696e6974206164647265737320686173206e6f20636f6465a26469706673582212201911bfa393b1d2a61e62e3a7fe0ba40ec8b73c0da3ee4f9e60f624db7f67253464736f6c634300081100334469616d6f6e6453746f726167654c69624375743a204e657720666163657420686173206e6f20636f64654469616d6f6e6453746f726167654c69624375743a205f696e6974206164647265737320686173206e6f20636f6465",
  "libraries": {},
  "devdoc": {
    "kind": "dev",
    "methods": {},
    "title": "SmartLoanDiamondBeacon A contract that is authorised to borrow funds using delegated credit. It maintains solvency calculating the current value of assets and borrowings. In case the value of assets held drops below certain level, part of the funds may be forcibly repaid. It permits only a limited and safe token transfer.",
    "version": 1
  },
  "userdoc": {
    "kind": "user",
    "methods": {},
    "version": 1
  },
  "storageLayout": {
    "storage": [],
    "types": null
  }
}