{
  "address": "0x483ea73F891525a62bEe36de6A2f25C425A331Bb",
  "abi": [
    {
      "inputs": [],
      "name": "CalldataMustHaveValidPayload",
      "type": "error"
    },
    {
      "inputs": [],
      "name": "CalldataOverOrUnderFlow",
      "type": "error"
    },
    {
      "inputs": [],
      "name": "CanNotPickMedianOfEmptyArray",
      "type": "error"
    },
    {
      "inputs": [],
      "name": "EachSignerMustProvideTheSameValue",
      "type": "error"
    },
    {
      "inputs": [],
      "name": "EmptyCalldataPointersArr",
      "type": "error"
    },
    {
      "inputs": [],
      "name": "IncorrectUnsignedMetadataSize",
      "type": "error"
    },
    {
      "inputs": [
        {
          "internalType": "uint256",
          "name": "receviedSignersCount",
          "type": "uint256"
        },
        {
          "internalType": "uint256",
          "name": "requiredSignersCount",
          "type": "uint256"
        }
      ],
      "name": "InsufficientNumberOfUniqueSigners",
      "type": "error"
    },
    {
      "inputs": [],
      "name": "InvalidCalldataPointer",
      "type": "error"
    },
    {
      "inputs": [
        {
          "internalType": "address",
          "name": "receivedSigner",
          "type": "address"
        }
      ],
      "name": "SignerNotAuthorised",
      "type": "error"
    },
    {
      "inputs": [
        {
          "internalType": "uint256",
          "name": "receivedTimestampSeconds",
          "type": "uint256"
        },
        {
          "internalType": "uint256",
          "name": "blockTimestamp",
          "type": "uint256"
        }
      ],
      "name": "TimestampFromTooLongFuture",
      "type": "error"
    },
    {
      "inputs": [
        {
          "internalType": "uint256",
          "name": "receivedTimestampSeconds",
          "type": "uint256"
        },
        {
          "internalType": "uint256",
          "name": "blockTimestamp",
          "type": "uint256"
        }
      ],
      "name": "TimestampIsTooOld",
      "type": "error"
    },
    {
      "inputs": [
        {
          "components": [
            {
              "internalType": "bytes32",
              "name": "asset",
              "type": "bytes32"
            },
            {
              "internalType": "uint256",
              "name": "price",
              "type": "uint256"
            }
          ],
          "internalType": "struct SolvencyFacetProd.AssetPrice[]",
          "name": "ownedAssetsPrices",
          "type": "tuple[]"
        }
      ],
      "name": "_getTotalAssetsValueBase",
      "outputs": [
        {
          "internalType": "uint256",
          "name": "",
          "type": "uint256"
        }
      ],
      "stateMutability": "view",
      "type": "function"
    },
    {
      "inputs": [
        {
          "internalType": "uint256[]",
          "name": "values",
          "type": "uint256[]"
        }
      ],
      "name": "aggregateValues",
      "outputs": [
        {
          "internalType": "uint256",
          "name": "",
          "type": "uint256"
        }
      ],
      "stateMutability": "view",
      "type": "function"
    },
    {
      "inputs": [
        {
          "internalType": "bytes32[]",
          "name": "assetsToRepay",
          "type": "bytes32[]"
        }
      ],
      "name": "getAllPricesForLiquidation",
      "outputs": [
        {
          "components": [
            {
              "components": [
                {
                  "internalType": "bytes32",
                  "name": "asset",
                  "type": "bytes32"
                },
                {
                  "internalType": "uint256",
                  "name": "price",
                  "type": "uint256"
                }
              ],
              "internalType": "struct SolvencyFacetProd.AssetPrice[]",
              "name": "ownedAssetsPrices",
              "type": "tuple[]"
            },
            {
              "components": [
                {
                  "internalType": "bytes32",
                  "name": "asset",
                  "type": "bytes32"
                },
                {
                  "internalType": "uint256",
                  "name": "price",
                  "type": "uint256"
                }
              ],
              "internalType": "struct SolvencyFacetProd.AssetPrice[]",
              "name": "debtAssetsPrices",
              "type": "tuple[]"
            },
            {
              "components": [
                {
                  "internalType": "bytes32",
                  "name": "asset",
                  "type": "bytes32"
                },
                {
                  "internalType": "uint256",
                  "name": "price",
                  "type": "uint256"
                }
              ],
              "internalType": "struct SolvencyFacetProd.AssetPrice[]",
              "name": "stakedPositionsPrices",
              "type": "tuple[]"
            },
            {
              "components": [
                {
                  "internalType": "bytes32",
                  "name": "asset",
                  "type": "bytes32"
                },
                {
                  "internalType": "uint256",
                  "name": "price",
                  "type": "uint256"
                }
              ],
              "internalType": "struct SolvencyFacetProd.AssetPrice[]",
              "name": "assetsToRepayPrices",
              "type": "tuple[]"
            }
          ],
          "internalType": "struct SolvencyFacetProd.CachedPrices",
          "name": "result",
          "type": "tuple"
        }
      ],
      "stateMutability": "view",
      "type": "function"
    },
    {
      "inputs": [
        {
          "internalType": "address",
          "name": "signerAddress",
          "type": "address"
        }
      ],
      "name": "getAuthorisedSignerIndex",
      "outputs": [
        {
          "internalType": "uint8",
          "name": "",
          "type": "uint8"
        }
      ],
      "stateMutability": "view",
      "type": "function"
    },
    {
      "inputs": [],
      "name": "getDebt",
      "outputs": [
        {
          "internalType": "uint256",
          "name": "",
          "type": "uint256"
        }
      ],
      "stateMutability": "view",
      "type": "function"
    },
    {
      "inputs": [],
      "name": "getDebtAssets",
      "outputs": [
        {
          "internalType": "bytes32[]",
          "name": "result",
          "type": "bytes32[]"
        }
      ],
      "stateMutability": "view",
      "type": "function"
    },
    {
      "inputs": [],
      "name": "getDebtAssetsPrices",
      "outputs": [
        {
          "components": [
            {
              "internalType": "bytes32",
              "name": "asset",
              "type": "bytes32"
            },
            {
              "internalType": "uint256",
              "name": "price",
              "type": "uint256"
            }
          ],
          "internalType": "struct SolvencyFacetProd.AssetPrice[]",
          "name": "result",
          "type": "tuple[]"
        }
      ],
      "stateMutability": "view",
      "type": "function"
    },
    {
      "inputs": [
        {
          "components": [
            {
              "internalType": "bytes32",
              "name": "asset",
              "type": "bytes32"
            },
            {
              "internalType": "uint256",
              "name": "price",
              "type": "uint256"
            }
          ],
          "internalType": "struct SolvencyFacetProd.AssetPrice[]",
          "name": "debtAssetsPrices",
          "type": "tuple[]"
        }
      ],
      "name": "getDebtWithPrices",
      "outputs": [
        {
          "internalType": "uint256",
          "name": "",
          "type": "uint256"
        }
      ],
      "stateMutability": "view",
      "type": "function"
    },
    {
      "inputs": [],
      "name": "getFullLoanStatus",
      "outputs": [
        {
          "internalType": "uint256[5]",
          "name": "",
          "type": "uint256[5]"
        }
      ],
      "stateMutability": "view",
      "type": "function"
    },
    {
      "inputs": [],
      "name": "getHealthRatio",
      "outputs": [
        {
          "internalType": "uint256",
          "name": "",
          "type": "uint256"
        }
      ],
      "stateMutability": "view",
      "type": "function"
    },
    {
      "inputs": [
        {
          "components": [
            {
              "internalType": "bytes32",
              "name": "asset",
              "type": "bytes32"
            },
            {
              "internalType": "uint256",
              "name": "price",
              "type": "uint256"
            }
          ],
          "internalType": "struct SolvencyFacetProd.AssetPrice[]",
          "name": "ownedAssetsPrices",
          "type": "tuple[]"
        },
        {
          "components": [
            {
              "internalType": "bytes32",
              "name": "asset",
              "type": "bytes32"
            },
            {
              "internalType": "uint256",
              "name": "price",
              "type": "uint256"
            }
          ],
          "internalType": "struct SolvencyFacetProd.AssetPrice[]",
          "name": "debtAssetsPrices",
          "type": "tuple[]"
        },
        {
          "components": [
            {
              "internalType": "bytes32",
              "name": "asset",
              "type": "bytes32"
            },
            {
              "internalType": "uint256",
              "name": "price",
              "type": "uint256"
            }
          ],
          "internalType": "struct SolvencyFacetProd.AssetPrice[]",
          "name": "stakedPositionsPrices",
          "type": "tuple[]"
        }
      ],
      "name": "getHealthRatioWithPrices",
      "outputs": [
        {
          "internalType": "uint256",
          "name": "",
          "type": "uint256"
        }
      ],
      "stateMutability": "view",
      "type": "function"
    },
    {
      "inputs": [],
      "name": "getOwnedAssetsEnriched",
      "outputs": [
        {
          "internalType": "bytes32[]",
          "name": "",
          "type": "bytes32[]"
        }
      ],
      "stateMutability": "view",
      "type": "function"
    },
    {
      "inputs": [],
      "name": "getOwnedAssetsPrices",
      "outputs": [
        {
          "components": [
            {
              "internalType": "bytes32",
              "name": "asset",
              "type": "bytes32"
            },
            {
              "internalType": "uint256",
              "name": "price",
              "type": "uint256"
            }
          ],
          "internalType": "struct SolvencyFacetProd.AssetPrice[]",
          "name": "result",
          "type": "tuple[]"
        }
      ],
      "stateMutability": "view",
      "type": "function"
    },
    {
      "inputs": [
        {
          "internalType": "bytes32",
          "name": "symbol",
          "type": "bytes32"
        }
      ],
      "name": "getPrice",
      "outputs": [
        {
          "internalType": "uint256",
          "name": "",
          "type": "uint256"
        }
      ],
      "stateMutability": "view",
      "type": "function"
    },
    {
      "inputs": [
        {
          "internalType": "bytes32[]",
          "name": "symbols",
          "type": "bytes32[]"
        }
      ],
      "name": "getPrices",
      "outputs": [
        {
          "internalType": "uint256[]",
          "name": "",
          "type": "uint256[]"
        }
      ],
      "stateMutability": "view",
      "type": "function"
    },
    {
      "inputs": [],
      "name": "getStakedPositionsPrices",
      "outputs": [
        {
          "components": [
            {
              "internalType": "bytes32",
              "name": "asset",
              "type": "bytes32"
            },
            {
              "internalType": "uint256",
              "name": "price",
              "type": "uint256"
            }
          ],
          "internalType": "struct SolvencyFacetProd.AssetPrice[]",
          "name": "result",
          "type": "tuple[]"
        }
      ],
      "stateMutability": "view",
      "type": "function"
    },
    {
      "inputs": [],
      "name": "getStakedValue",
      "outputs": [
        {
          "internalType": "uint256",
          "name": "",
          "type": "uint256"
        }
      ],
      "stateMutability": "view",
      "type": "function"
    },
    {
      "inputs": [
        {
          "components": [
            {
              "internalType": "bytes32",
              "name": "asset",
              "type": "bytes32"
            },
            {
              "internalType": "uint256",
              "name": "price",
              "type": "uint256"
            }
          ],
          "internalType": "struct SolvencyFacetProd.AssetPrice[]",
          "name": "stakedPositionsPrices",
          "type": "tuple[]"
        }
      ],
      "name": "getStakedValueWithPrices",
      "outputs": [
        {
          "internalType": "uint256",
          "name": "",
          "type": "uint256"
        }
      ],
      "stateMutability": "view",
      "type": "function"
    },
    {
      "inputs": [],
      "name": "getThresholdWeightedValue",
      "outputs": [
        {
          "internalType": "uint256",
          "name": "",
          "type": "uint256"
        }
      ],
      "stateMutability": "view",
      "type": "function"
    },
    {
      "inputs": [
        {
          "components": [
            {
              "internalType": "bytes32",
              "name": "asset",
              "type": "bytes32"
            },
            {
              "internalType": "uint256",
              "name": "price",
              "type": "uint256"
            }
          ],
          "internalType": "struct SolvencyFacetProd.AssetPrice[]",
          "name": "ownedAssetsPrices",
          "type": "tuple[]"
        },
        {
          "components": [
            {
              "internalType": "bytes32",
              "name": "asset",
              "type": "bytes32"
            },
            {
              "internalType": "uint256",
              "name": "price",
              "type": "uint256"
            }
          ],
          "internalType": "struct SolvencyFacetProd.AssetPrice[]",
          "name": "stakedPositionsPrices",
          "type": "tuple[]"
        }
      ],
      "name": "getThresholdWeightedValueWithPrices",
      "outputs": [
        {
          "internalType": "uint256",
          "name": "",
          "type": "uint256"
        }
      ],
      "stateMutability": "view",
      "type": "function"
    },
    {
      "inputs": [],
      "name": "getTotalAssetsValue",
      "outputs": [
        {
          "internalType": "uint256",
          "name": "",
          "type": "uint256"
        }
      ],
      "stateMutability": "view",
      "type": "function"
    },
    {
      "inputs": [
        {
          "components": [
            {
              "internalType": "bytes32",
              "name": "asset",
              "type": "bytes32"
            },
            {
              "internalType": "uint256",
              "name": "price",
              "type": "uint256"
            }
          ],
          "internalType": "struct SolvencyFacetProd.AssetPrice[]",
          "name": "ownedAssetsPrices",
          "type": "tuple[]"
        }
      ],
      "name": "getTotalAssetsValueWithPrices",
      "outputs": [
        {
          "internalType": "uint256",
          "name": "",
          "type": "uint256"
        }
      ],
      "stateMutability": "view",
      "type": "function"
    },
    {
      "inputs": [],
      "name": "getTotalValue",
      "outputs": [
        {
          "internalType": "uint256",
          "name": "",
          "type": "uint256"
        }
      ],
      "stateMutability": "view",
      "type": "function"
    },
    {
      "inputs": [
        {
          "components": [
            {
              "internalType": "bytes32",
              "name": "asset",
              "type": "bytes32"
            },
            {
              "internalType": "uint256",
              "name": "price",
              "type": "uint256"
            }
          ],
          "internalType": "struct SolvencyFacetProd.AssetPrice[]",
          "name": "ownedAssetsPrices",
          "type": "tuple[]"
        },
        {
          "components": [
            {
              "internalType": "bytes32",
              "name": "asset",
              "type": "bytes32"
            },
            {
              "internalType": "uint256",
              "name": "price",
              "type": "uint256"
            }
          ],
          "internalType": "struct SolvencyFacetProd.AssetPrice[]",
          "name": "stakedPositionsPrices",
          "type": "tuple[]"
        }
      ],
      "name": "getTotalValueWithPrices",
      "outputs": [
        {
          "internalType": "uint256",
          "name": "",
          "type": "uint256"
        }
      ],
      "stateMutability": "view",
      "type": "function"
    },
    {
      "inputs": [],
      "name": "getUniqueSignersThreshold",
      "outputs": [
        {
          "internalType": "uint8",
          "name": "",
          "type": "uint8"
        }
      ],
      "stateMutability": "view",
      "type": "function"
    },
    {
      "inputs": [],
      "name": "isSolvent",
      "outputs": [
        {
          "internalType": "bool",
          "name": "",
          "type": "bool"
        }
      ],
      "stateMutability": "view",
      "type": "function"
    },
    {
      "inputs": [
        {
          "components": [
            {
              "internalType": "bytes32",
              "name": "asset",
              "type": "bytes32"
            },
            {
              "internalType": "uint256",
              "name": "price",
              "type": "uint256"
            }
          ],
          "internalType": "struct SolvencyFacetProd.AssetPrice[]",
          "name": "ownedAssetsPrices",
          "type": "tuple[]"
        },
        {
          "components": [
            {
              "internalType": "bytes32",
              "name": "asset",
              "type": "bytes32"
            },
            {
              "internalType": "uint256",
              "name": "price",
              "type": "uint256"
            }
          ],
          "internalType": "struct SolvencyFacetProd.AssetPrice[]",
          "name": "debtAssetsPrices",
          "type": "tuple[]"
        },
        {
          "components": [
            {
              "internalType": "bytes32",
              "name": "asset",
              "type": "bytes32"
            },
            {
              "internalType": "uint256",
              "name": "price",
              "type": "uint256"
            }
          ],
          "internalType": "struct SolvencyFacetProd.AssetPrice[]",
          "name": "stakedPositionsPrices",
          "type": "tuple[]"
        }
      ],
      "name": "isSolventWithPrices",
      "outputs": [
        {
          "internalType": "bool",
          "name": "",
          "type": "bool"
        }
      ],
      "stateMutability": "view",
      "type": "function"
    },
    {
      "inputs": [
        {
          "internalType": "uint256",
          "name": "receivedTimestampMilliseconds",
          "type": "uint256"
        }
      ],
      "name": "validateTimestamp",
      "outputs": [],
      "stateMutability": "view",
      "type": "function"
    }
  ],
  "transactionHash": "0x9e729b6f744a423b8b1a99ab07c1c313e69a8ffcc692adee23359b7253bdb666",
  "args": [],
  "numDeployments": 1,
  "solcInputHash": "df3ad5bdcd0ec16bf72ca3adff085c61",
  "bytecode": "0x608060405234801561001057600080fd5b50614f0c806100206000396000f3fe608060405234801561001057600080fd5b50600436106101c45760003560e01c80638be3471a116100f9578063caa648b411610097578063ecd658b411610071578063ecd658b414610583578063f50b2efe146105a1578063f90c4924146105bd578063fd4344cd146105db576101c4565b8063caa648b414610517578063d44e282b14610535578063e28a5ad314610553576101c4565b8063a7ef7082116100d3578063a7ef708214610469578063b24ebfcc14610487578063c32f5bfd146104b7578063c453e8c2146104e7576101c4565b80638be3471a146103fd5780638f59b7a91461041b578063a3aa8d1e14610439576101c4565b80633ce142f5116101665780635ce23950116101405780635ce239501461037357806374ec68a6146103915780637914334f146103af5780637a70bcce146103cd576101c4565b80633ce142f5146102e35780634295d2e514610313578063465a1ae314610343576101c4565b806326ee4836116101a257806326ee48361461023557806331d98b3f1461026557806339988292146102955780633a264d10146102c5576101c4565b80630742af8f146101c95780630d742f69146101e757806314a6bf0f14610217575b600080fd5b6101d16105f9565b6040516101de9190613c43565b60405180910390f35b61020160048036038101906101fc9190613e89565b610740565b60405161020e9190613f3f565b60405180910390f35b61021f6107b9565b60405161022c9190613f3f565b60405180910390f35b61024f600480360381019061024a919061401d565b6107d5565b60405161025c9190614124565b60405180910390f35b61027f600480360381019061027a9190614146565b6107e7565b60405161028c9190613f3f565b60405180910390f35b6102af60048036038101906102aa9190613e89565b6107f9565b6040516102bc919061418e565b60405180910390f35b6102cd61081a565b6040516102da9190614287565b60405180910390f35b6102fd60048036038101906102f89190614307565b610918565b60405161030a9190614350565b60405180910390f35b61032d6004803603810190610328919061436b565b610d1c565b60405161033a9190613f3f565b60405180910390f35b61035d6004803603810190610358919061436b565b610d2e565b60405161036a9190613f3f565b60405180910390f35b61037b610fa2565b604051610388919061418e565b60405180910390f35b610399610fbc565b6040516103a69190614287565b60405180910390f35b6103b76110ba565b6040516103c49190613f3f565b60405180910390f35b6103e760048036038101906103e291906143b4565b61112c565b6040516103f49190613f3f565b60405180910390f35b610405611152565b6040516104129190614287565b60405180910390f35b610423611309565b6040516104309190613f3f565b60405180910390f35b610453600480360381019061044e9190614487565b611325565b60405161046091906145bb565b60405180910390f35b6104716119ca565b60405161047e9190613f3f565b60405180910390f35b6104a1600480360381019061049c91906146a0565b6119e6565b6040516104ae9190613f3f565b60405180910390f35b6104d160048036038101906104cc919061436b565b6119f8565b6040516104de9190613f3f565b60405180910390f35b61050160048036038101906104fc91906143b4565b611a0a565b60405161050e9190613f3f565b60405180910390f35b61051f611a1e565b60405161052c9190613f3f565b60405180910390f35b61053d611a3f565b60405161054a919061476d565b60405180910390f35b61056d6004803603810190610568919061436b565b611aa4565b60405161057a9190613f3f565b60405180910390f35b61058b611ab6565b6040516105989190613c43565b60405180910390f35b6105bb60048036038101906105b69190614788565b611b3e565b005b6105c5611b4a565b6040516105d29190614350565b60405180910390f35b6105e3611b53565b6040516105f09190613f3f565b60405180910390f35b60606000610605611b7d565b90506000610611611bf0565b9050600061061e82611c18565b610635576001835161063091906147e4565b610638565b82515b905060008167ffffffffffffffff81111561065657610655613c8f565b5b6040519080825280602002602001820160405280156106845781602001602082028036833780820191505090505b5090506000838260008151811061069e5761069d614818565b5b60200260200101818152505060005b855181101561073457848682815181106106ca576106c9614818565b5b602002602001015114610721576001826106e491906147e4565b91508581815181106106f9576106f8614818565b5b602002602001015183838151811061071457610713614818565b5b6020026020010181815250505b808061072c90614847565b9150506106ad565b50819550505050505090565b60008061074c84611aa4565b9050600061075a8685611a0a565b90506000820361078e577fffffffffffffffffffffffffffffffffffffffffffffffffffffffffffffffff925050506107b2565b81670de0b6b3a7640000826107a3919061488f565b6107ad9190614900565b925050505b9392505050565b6000806107c461081a565b90506107cf81611c43565b91505090565b60606107e082611efd565b9050919050565b60006107f282611f0f565b9050919050565b6000670de0b6b3a764000061080f858585610740565b101590509392505050565b60606000610826611ab6565b9050600061083382611efd565b9050805167ffffffffffffffff8111156108505761084f613c8f565b5b60405190808252806020026020018201604052801561088957816020015b610876613b14565b81526020019060019003908161086e5790505b50925060005b81518110156109125760405180604001604052808483815181106108b6576108b5614818565b5b602002602001015181526020018383815181106108d6576108d5614818565b5b60200260200101518152508482815181106108f4576108f3614818565b5b6020026020010181905250808061090a90614847565b91505061088f565b50505090565b600073981bda8276ae93f567922497153de7a5683708d373ffffffffffffffffffffffffffffffffffffffff168273ffffffffffffffffffffffffffffffffffffffff160361096a5760009050610d17565b733befdd935b50f172e696a5187dbacfef0d208e4873ffffffffffffffffffffffffffffffffffffffff168273ffffffffffffffffffffffffffffffffffffffff16036109ba5760019050610d17565b73c1d5b940659e57b7bdf8870cdfc43f41ca69946073ffffffffffffffffffffffffffffffffffffffff168273ffffffffffffffffffffffffffffffffffffffff1603610a0a5760029050610d17565b731cd8f9627a2838a7dae6b98cf71c08b9cbf5174a73ffffffffffffffffffffffffffffffffffffffff168273ffffffffffffffffffffffffffffffffffffffff1603610a5a5760039050610d17565b73bc5a06815ee80de7d20071703c1f1b8fc511c7d473ffffffffffffffffffffffffffffffffffffffff168273ffffffffffffffffffffffffffffffffffffffff1603610aaa5760049050610d17565b73e9fa2869c5f6fc3a0933981825564fd90573a86d73ffffffffffffffffffffffffffffffffffffffff168273ffffffffffffffffffffffffffffffffffffffff1603610afa5760059050610d17565b73df6b1ca313bee470d0142279791fa760abf5c53773ffffffffffffffffffffffffffffffffffffffff168273ffffffffffffffffffffffffffffffffffffffff1603610b4a5760069050610d17565b73a50abc5d76dab99d5fe59fd32f239bd37d55025f73ffffffffffffffffffffffffffffffffffffffff168273ffffffffffffffffffffffffffffffffffffffff1603610b9a5760079050610d17565b73496f4e8ac11076350a59b88d2ad62bc20d410ea373ffffffffffffffffffffffffffffffffffffffff168273ffffffffffffffffffffffffffffffffffffffff1603610bea5760089050610d17565b7341fb6b8d0f586e73d575bc57cfd29142b3214a4773ffffffffffffffffffffffffffffffffffffffff168273ffffffffffffffffffffffffffffffffffffffff1603610c3a5760099050610d17565b73c1068312a6333e6601f937c4773065b70d38a5bf73ffffffffffffffffffffffffffffffffffffffff168273ffffffffffffffffffffffffffffffffffffffff1603610c8a57600a9050610d17565b73ae9d49ea64df38b9fcbc238bc7004a1421f7eee873ffffffffffffffffffffffffffffffffffffffff168273ffffffffffffffffffffffffffffffffffffffff1603610cda57600b9050610d17565b816040517fec459bc0000000000000000000000000000000000000000000000000000000008152600401610d0e9190614940565b60405180910390fd5b919050565b6000610d2782611fab565b9050919050565b60008082511115610f98576000610d43612300565b905060006305f5e10084600081518110610d6057610d5f614818565b5b60200260200101516020015147610d77919061488f565b610d819190614900565b905060005b8451811015610f8d5760008373ffffffffffffffffffffffffffffffffffffffff166325eb876f878481518110610dc057610dbf614818565b5b60200260200101516000015160016040518363ffffffff1660e01b8152600401610deb92919061496a565b602060405180830381865afa158015610e08573d6000803e3d6000fd5b505050506040513d601f19601f82011682018060405250810190610e2c91906149a8565b905060008173ffffffffffffffffffffffffffffffffffffffff166370a08231306040518263ffffffff1660e01b8152600401610e699190614940565b602060405180830381865afa158015610e86573d6000803e3d6000fd5b505050506040513d601f19601f82011682018060405250810190610eaa91906149ea565b90508173ffffffffffffffffffffffffffffffffffffffff1663313ce5676040518163ffffffff1660e01b8152600401602060405180830381865afa158015610ef7573d6000803e3d6000fd5b505050506040513d601f19601f82011682018060405250810190610f1b9190614a43565b600a610f279190614ba3565b816402540be400898681518110610f4157610f40614818565b5b602002602001015160200151610f57919061488f565b610f61919061488f565b610f6b9190614900565b84610f7691906147e4565b935050508080610f8590614847565b915050610d86565b508092505050610f9d565b600090505b919050565b6000670de0b6b3a7640000610fb56110ba565b1015905090565b60606000610fc86105f9565b90506000610fd582611efd565b9050815167ffffffffffffffff811115610ff257610ff1613c8f565b5b60405190808252806020026020018201604052801561102b57816020015b611018613b14565b8152602001906001900390816110105790505b50925060005b82518110156110b457604051806040016040528084838151811061105857611057614818565b5b6020026020010151815260200183838151811061107857611077614818565b5b602002602001015181525084828151811061109657611095614818565b5b602002602001018190525080806110ac90614847565b915050611031565b50505090565b6000806110c56107b9565b905060006110d1611b53565b905060008203611105577fffffffffffffffffffffffffffffffffffffffffffffffffffffffffffffffff92505050611129565b81670de0b6b3a76400008261111a919061488f565b6111249190614900565b925050505b90565b600061113782610d1c565b611140846119f8565b61114a91906147e4565b905092915050565b6060600061115e61231c565b90506000818054905067ffffffffffffffff8111156111805761117f613c8f565b5b6040519080825280602002602001820160405280156111ae5781602001602082028036833780820191505090505b50905060005b8280549050811015611217578281815481106111d3576111d2614818565b5b9060005260206000209060030201600101548282815181106111f8576111f7614818565b5b602002602001018181525050808061120f90614847565b9150506111b4565b5060006112238261232e565b9050805167ffffffffffffffff8111156112405761123f613c8f565b5b60405190808252806020026020018201604052801561127957816020015b611266613b14565b81526020019060019003908161125e5790505b50935060005b81518110156113025760405180604001604052808483815181106112a6576112a5614818565b5b602002602001015181526020018383815181106112c6576112c5614818565b5b60200260200101518152508582815181106112e4576112e3614818565b5b602002602001018190525080806112fa90614847565b91505061127f565b5050505090565b600080611314610fbc565b905061131f81610d2e565b91505090565b61132d613b31565b60006113376105f9565b90506000611343611ab6565b9050600061134f612580565b905060008686905082518451865161136791906147e4565b61137191906147e4565b61137b91906147e4565b67ffffffffffffffff81111561139457611393613c8f565b5b6040519080825280602002602001820160405280156113c25781602001602082028036833780820191505090505b5090506000805b855181101561141f578581815181106113e5576113e4614818565b5b6020026020010151838281518110611400576113ff614818565b5b602002602001018181525050808061141790614847565b9150506113c9565b5084518161142d91906147e4565b905060005b84518110156114935784818151811061144e5761144d614818565b5b602002602001015183838361146391906147e4565b8151811061147457611473614818565b5b602002602001018181525050808061148b90614847565b915050611432565b508351816114a191906147e4565b905060005b8351811015611507578381815181106114c2576114c1614818565b5b60200260200101518383836114d791906147e4565b815181106114e8576114e7614818565b5b60200260200101818152505080806114ff90614847565b9150506114a6565b5082518161151591906147e4565b905060005b8888905081101561157c5788888281811061153857611537614818565b5b9050602002013583838361154c91906147e4565b8151811061155d5761155c614818565b5b602002602001018181525050808061157490614847565b91505061151a565b5060006115888361232e565b9050600091506000865167ffffffffffffffff8111156115ab576115aa613c8f565b5b6040519080825280602002602001820160405280156115e457816020015b6115d1613b14565b8152602001906001900390816115c95790505b50905060005b875181101561168357604051806040016040528086868461160b91906147e4565b8151811061161c5761161b614818565b5b6020026020010151815260200184868461163691906147e4565b8151811061164757611646614818565b5b602002602001015181525082828151811061166557611664614818565b5b6020026020010181905250808061167b90614847565b9150506115ea565b5086518361169191906147e4565b92506000865167ffffffffffffffff8111156116b0576116af613c8f565b5b6040519080825280602002602001820160405280156116e957816020015b6116d6613b14565b8152602001906001900390816116ce5790505b50905060005b875181101561178857604051806040016040528087878461171091906147e4565b8151811061172157611720614818565b5b6020026020010151815260200185878461173b91906147e4565b8151811061174c5761174b614818565b5b602002602001015181525082828151811061176a57611769614818565b5b6020026020010181905250808061178090614847565b9150506116ef565b5080518461179691906147e4565b93506000865167ffffffffffffffff8111156117b5576117b4613c8f565b5b6040519080825280602002602001820160405280156117ee57816020015b6117db613b14565b8152602001906001900390816117d35790505b50905060005b875181101561188d57604051806040016040528088888461181591906147e4565b8151811061182657611825614818565b5b6020026020010151815260200186888461184091906147e4565b8151811061185157611850614818565b5b602002602001015181525082828151811061186f5761186e614818565b5b6020026020010181905250808061188590614847565b9150506117f4565b5086518561189b91906147e4565b945060008c8c905067ffffffffffffffff8111156118bc576118bb613c8f565b5b6040519080825280602002602001820160405280156118f557816020015b6118e2613b14565b8152602001906001900390816118da5790505b50905060005b8d8d905081101561199657604051806040016040528089898461191e91906147e4565b8151811061192f5761192e614818565b5b6020026020010151815260200187898461194991906147e4565b8151811061195a57611959614818565b5b602002602001015181525082828151811061197857611977614818565b5b6020026020010181905250808061198e90614847565b9150506118fb565b506040518060800160405280858152602001848152602001838152602001828152509a505050505050505050505092915050565b6000806119d5611152565b90506119e081611fab565b91505090565b60006119f182612648565b9050919050565b6000611a0382610d2e565b9050919050565b6000611a16838361265a565b905092915050565b6000611a286119ca565b611a30611309565b611a3a91906147e4565b905090565b611a47613b59565b6040518060a00160405280611a5a611a1e565b8152602001611a676107b9565b8152602001611a74611b53565b8152602001611a816110ba565b8152602001611a8e610fa2565b611a99576000611a9c565b60015b815250905090565b6000611aaf82611c43565b9050919050565b60606000611ac2612300565b90508073ffffffffffffffffffffffffffffffffffffffff166366273c196040518163ffffffff1660e01b8152600401600060405180830381865afa158015611b0f573d6000803e3d6000fd5b505050506040513d6000823e3d601f19601f82011682018060405250810190611b389190614c9a565b91505090565b611b4781612680565b50565b60006003905090565b600080611b5e610fbc565b90506000611b6a611152565b9050611b76828261265a565b9250505090565b60606000611b8961274e565b905080600201600001600001600001600001805480602002602001604051908101604052809291908181526020018280548015611be557602002820191906000526020600020905b815481526020019060010190808311611bd1575b505050505091505090565b60007f4156415800000000000000000000000000000000000000000000000000000000905090565b600080611c2361274e565b9050611c3b838260020161277b90919063ffffffff16565b915050919050565b600080611c4e612300565b90506000805b8451811015611ef25760008373ffffffffffffffffffffffffffffffffffffffff166325eb876f878481518110611c8e57611c8d614818565b5b60200260200101516000015160016040518363ffffffff1660e01b8152600401611cb992919061496a565b602060405180830381865afa158015611cd6573d6000803e3d6000fd5b505050506040513d601f19601f82011682018060405250810190611cfa91906149a8565b905060008473ffffffffffffffffffffffffffffffffffffffff16630edc25b6888581518110611d2d57611d2c614818565b5b6020026020010151600001516040518263ffffffff1660e01b8152600401611d559190614ce3565b602060405180830381865afa158015611d72573d6000803e3d6000fd5b505050506040513d601f19601f82011682018060405250810190611d9691906149a8565b90508173ffffffffffffffffffffffffffffffffffffffff1663313ce5676040518163ffffffff1660e01b8152600401602060405180830381865afa158015611de3573d6000803e3d6000fd5b505050506040513d601f19601f82011682018060405250810190611e079190614a43565b600a611e139190614ba3565b6402540be400888581518110611e2c57611e2b614818565b5b6020026020010151602001518373ffffffffffffffffffffffffffffffffffffffff16636011163e306040518263ffffffff1660e01b8152600401611e719190614940565b602060405180830381865afa158015611e8e573d6000803e3d6000fd5b505050506040513d601f19601f82011682018060405250810190611eb291906149ea565b611ebc919061488f565b611ec6919061488f565b611ed09190614900565b84611edb91906147e4565b935050508080611eea90614847565b915050611c54565b508092505050919050565b6060611f0882612792565b9050919050565b600080600167ffffffffffffffff811115611f2d57611f2c613c8f565b5b604051908082528060200260200182016040528015611f5b5781602001602082028036833780820191505090505b5090508281600081518110611f7357611f72614818565b5b602002602001018181525050611f8881611efd565b600081518110611f9b57611f9a614818565b5b6020026020010151915050919050565b600080611fb661231c565b90506000805b82805490508110156122f557828181548110611fdb57611fda614818565b5b90600052602060002090600302016001015485828151811061200057611fff614818565b5b6020026020010151600001511461204c576040517f08c379a000000000000000000000000000000000000000000000000000000000815260040161204390614d5b565b60405180910390fd5b6000803073ffffffffffffffffffffffffffffffffffffffff1685848154811061207957612078614818565b5b906000526020600020906003020160020160009054906101000a900460e01b604051602401604051602081830303815290604052907bffffffffffffffffffffffffffffffffffffffffffffffffffffffff19166020820180517bffffffffffffffffffffffffffffffffffffffffffffffffffffffff83818316178352505050506040516121089190614dec565b600060405180830381855afa9150503d8060008114612143576040519150601f19603f3d011682016040523d82523d6000602084013e612148565b606091505b509150915081156122e05760008180602001905181019061216991906149ea565b90506000612175612300565b73ffffffffffffffffffffffffffffffffffffffff166325eb876f8a87815181106121a3576121a2614818565b5b60200260200101516000015160016040518363ffffffff1660e01b81526004016121ce92919061496a565b602060405180830381865afa1580156121eb573d6000803e3d6000fd5b505050506040513d601f19601f8201168201806040525081019061220f91906149a8565b90508073ffffffffffffffffffffffffffffffffffffffff1663313ce5676040518163ffffffff1660e01b8152600401602060405180830381865afa15801561225c573d6000803e3d6000fd5b505050506040513d601f19601f820116820180604052508101906122809190614a43565b600a61228c9190614ba3565b826402540be4008b88815181106122a6576122a5614818565b5b6020026020010151602001516122bc919061488f565b6122c6919061488f565b6122d09190614900565b866122db91906147e4565b955050505b505080806122ed90614847565b915050611fbc565b508092505050919050565b6000739cd7ecff2f5a95c1d6ee2ceb3e53909ebe9d57bb905090565b600061232661274e565b600501905090565b60606000825167ffffffffffffffff81111561234d5761234c613c8f565b5b60405190808252806020026020018201604052801561237b5781602001602082028036833780820191505090505b5090506000806000905060005b855181101561245a576000925060005b84518110156123f8578682815181106123b4576123b3614818565b5b60200260200101518582815181106123cf576123ce614818565b5b6020026020010151036123e557600193506123f8565b80806123f090614847565b915050612398565b50826124475785818151811061241157612410614818565b5b602002602001015184838151811061242c5761242b614818565b5b602002602001018181525050818061244390614847565b9250505b808061245290614847565b915050612388565b50808352600061246984611efd565b90506000865167ffffffffffffffff81111561248857612487613c8f565b5b6040519080825280602002602001820160405280156124b65781602001602082028036833780820191505090505b50905060005b87518110156125725760005b865181101561255e578681815181106124e4576124e3614818565b5b60200260200101518983815181106124ff576124fe614818565b5b60200260200101510361254b5783818151811061251f5761251e614818565b5b602002602001015183838151811061253a57612539614818565b5b60200260200101818152505061255e565b808061255690614847565b9150506124c8565b50808061256a90614847565b9150506124bc565b508095505050505050919050565b6060600061258c61231c565b9050808054905067ffffffffffffffff8111156125ac576125ab613c8f565b5b6040519080825280602002602001820160405280156125da5781602001602082028036833780820191505090505b50915060005b8180549050811015612643578181815481106125ff576125fe614818565b5b90600052602060002090600302016001015483828151811061262457612623614818565b5b602002602001018181525050808061263b90614847565b9150506125e0565b505090565b6000612653826129a1565b9050919050565b600061266582612a95565b61266e84612ebf565b61267891906147e4565b905092915050565b60006103e8826126909190614900565b90506000814210905081603c426126a791906147e4565b10156126ec5781426040517fb6b0916d0000000000000000000000000000000000000000000000000000000081526004016126e3929190614e03565b60405180910390fd5b80158015612705575060b482426127039190614e2c565b115b156127495781426040517f0321d0b5000000000000000000000000000000000000000000000000000000008152600401612740929190614e03565b60405180910390fd5b505050565b6000807f8d5bb42e0ac1496a2c326edc9c00758985246e6c2bb146d6c2f4a0d509e0960a90508091505090565b600061278a83600001836132ce565b905092915050565b60606000825167ffffffffffffffff8111156127b1576127b0613c8f565b5b6040519080825280602002602001820160405280156127df5781602001602082028036833780820191505090505b5090506000835167ffffffffffffffff8111156127ff576127fe613c8f565b5b60405190808252806020026020018201604052801561282d5781602001602082028036833780820191505090505b5090506000845167ffffffffffffffff81111561284d5761284c613c8f565b5b60405190808252806020026020018201604052801561288057816020015b606081526020019060019003908161286b5790505b50905060005b855181101561291357612897611b4a565b60ff1667ffffffffffffffff8111156128b3576128b2613c8f565b5b6040519080825280602002602001820160405280156128e15781602001602082028036833780820191505090505b508282815181106128f5576128f4614818565b5b6020026020010181905250808061290b90614847565b915050612886565b50600061291e6132ee565b9050600061292b826133ff565b61ffff16905060028261293e91906147e4565b91506000604051905060005b828110156129895760006129618a8989898961345b565b9050808561296f91906147e4565b94508260405250808061298190614847565b91505061294a565b506129948487613753565b9650505050505050919050565b6000808251036129dd576040517f9e198af900000000000000000000000000000000000000000000000000000000815260040160405180910390fd5b6129e6826138a0565b6000600283516129f69190614900565b9050600060028451612a089190614e60565b03612a71576000612a5984600184612a209190614e2c565b81518110612a3157612a30614818565b5b6020026020010151858481518110612a4c57612a4b614818565b5b60200260200101516138f3565b9050600281612a689190614900565b92505050612a90565b828181518110612a8457612a83614818565b5b60200260200101519150505b919050565b600080612aa0612300565b90506000612aac61231c565b90506000805b8280549050811015612eb357828181548110612ad157612ad0614818565b5b906000526020600020906003020160010154868281518110612af657612af5614818565b5b60200260200101516000015114612b42576040517f08c379a0000000000000000000000000000000000000000000000000000000008152600401612b3990614d5b565b60405180910390fd5b6000803073ffffffffffffffffffffffffffffffffffffffff16858481548110612b6f57612b6e614818565b5b906000526020600020906003020160020160009054906101000a900460e01b604051602401604051602081830303815290604052907bffffffffffffffffffffffffffffffffffffffffffffffffffffffff19166020820180517bffffffffffffffffffffffffffffffffffffffffffffffffffffffff8381831617835250505050604051612bfe9190614dec565b600060405180830381855afa9150503d8060008114612c39576040519150601f19603f3d011682016040523d82523d6000602084013e612c3e565b606091505b50915091508115612e9e57600081806020019051810190612c5f91906149ea565b90506000612c6b612300565b73ffffffffffffffffffffffffffffffffffffffff166325eb876f8b8781518110612c9957612c98614818565b5b60200260200101516000015160016040518363ffffffff1660e01b8152600401612cc492919061496a565b602060405180830381865afa158015612ce1573d6000803e3d6000fd5b505050506040513d601f19601f82011682018060405250810190612d0591906149a8565b90508073ffffffffffffffffffffffffffffffffffffffff1663313ce5676040518163ffffffff1660e01b8152600401602060405180830381865afa158015612d52573d6000803e3d6000fd5b505050506040513d601f19601f82011682018060405250810190612d769190614a43565b600a612d829190614ba3565b8873ffffffffffffffffffffffffffffffffffffffff166378195a99898881548110612db157612db0614818565b5b906000526020600020906003020160000160009054906101000a900473ffffffffffffffffffffffffffffffffffffffff166040518263ffffffff1660e01b8152600401612dff9190614940565b602060405180830381865afa158015612e1c573d6000803e3d6000fd5b505050506040513d601f19601f82011682018060405250810190612e4091906149ea565b836402540be4008d8981518110612e5a57612e59614818565b5b602002602001015160200151612e70919061488f565b612e7a919061488f565b612e84919061488f565b612e8e9190614900565b86612e9991906147e4565b955050505b50508080612eab90614847565b915050612ab2565b50809350505050919050565b600080612eca611bf0565b90506000612ed6612300565b9050600080855111156132c3576a52b7d2dcc80cd2e40000008273ffffffffffffffffffffffffffffffffffffffff166378195a998473ffffffffffffffffffffffffffffffffffffffff166325eb876f8760016040518363ffffffff1660e01b8152600401612f4792919061496a565b602060405180830381865afa158015612f64573d6000803e3d6000fd5b505050506040513d601f19601f82011682018060405250810190612f8891906149a8565b6040518263ffffffff1660e01b8152600401612fa49190614940565b602060405180830381865afa158015612fc1573d6000803e3d6000fd5b505050506040513d601f19601f82011682018060405250810190612fe591906149ea565b4787600081518110612ffa57612ff9614818565b5b602002602001015160200151613010919061488f565b61301a919061488f565b6130249190614900565b905060005b85518110156132c15760008373ffffffffffffffffffffffffffffffffffffffff166325eb876f88848151811061306357613062614818565b5b60200260200101516000015160016040518363ffffffff1660e01b815260040161308e92919061496a565b602060405180830381865afa1580156130ab573d6000803e3d6000fd5b505050506040513d601f19601f820116820180604052508101906130cf91906149a8565b9050670de0b6b3a76400008173ffffffffffffffffffffffffffffffffffffffff1663313ce5676040518163ffffffff1660e01b8152600401602060405180830381865afa158015613125573d6000803e3d6000fd5b505050506040513d601f19601f820116820180604052508101906131499190614a43565b600a6131559190614ba3565b61315f919061488f565b8473ffffffffffffffffffffffffffffffffffffffff166378195a99836040518263ffffffff1660e01b81526004016131989190614940565b602060405180830381865afa1580156131b5573d6000803e3d6000fd5b505050506040513d601f19601f820116820180604052508101906131d991906149ea565b8273ffffffffffffffffffffffffffffffffffffffff166370a08231306040518263ffffffff1660e01b81526004016132129190614940565b602060405180830381865afa15801561322f573d6000803e3d6000fd5b505050506040513d601f19601f8201168201806040525081019061325391906149ea565b6402540be4008a868151811061326c5761326b614818565b5b602002602001015160200151613282919061488f565b61328c919061488f565b613296919061488f565b6132a09190614900565b836132ab91906147e4565b92505080806132b990614847565b915050613029565b505b809350505050919050565b60006132e6828460000161390990919063ffffffff16565b905092915050565b60008060203603356602ed57011e000081166602ed57011e00001491505080613343576040517fe7764c9e00000000000000000000000000000000000000000000000000000000815260040160405180910390fd5b60008036905060291115613383576040517f5796f78a00000000000000000000000000000000000000000000000000000000815260040160405180910390fd5b602936033590506000600960038362ffffff166133a091906147e4565b6133aa91906147e4565b905060003690506002826133be91906147e4565b11156133f6576040517fc30a7bd700000000000000000000000000000000000000000000000000000000815260040160405180910390fd5b80935050505090565b60008060208361340f91906147e4565b9050600036905081111561344f576040517f5796f78a00000000000000000000000000000000000000000000000000000000815260040160405180910390fd5b80360335915050919050565b60008060008061346a85613920565b91509150600080600060606000600d61349860208861348991906147e4565b8961399690919063ffffffff16565b6134a291906147e4565b905060006134c960688c6134b691906147e4565b60003690506139ac90919063ffffffff16565b905060006134fb8360418e6134de91906147e4565b6134e891906147e4565b60003690506139ac90919063ffffffff16565b90506135078382613535565b9350826020850120945081359650613551565b60006040519050818152602081019050818101604052919050565b60006135408361351a565b838382376020810391505092915050565b6135628765ffffffffffff16611b3e565b6135788560418e61357391906147e4565b6139c2565b955061358386610918565b60ff1699505050505050505060008060005b8481101561371e576135a8888583613a41565b809350819450505060005b8c5181101561370a578c81815181106135cf576135ce614818565b5b602002602001015184036136f75760008b82815181106135f2576135f1614818565b5b602002602001015190506136068189613ac7565b1580156136365750613616611b4a565b60ff168d838151811061362c5761362b614818565b5b6020026020010151105b156136f1578c828151811061364e5761364d614818565b5b60200260200101805180919061366390614847565b81525050838b838151811061367b5761367a614818565b5b602002602001015160018f858151811061369857613697614818565b5b60200260200101516136aa9190614e2c565b815181106136bb576136ba614818565b5b6020026020010181815250506136d18189613ae0565b8c83815181106136e4576136e3614818565b5b6020026020010181815250505b5061370a565b808061370290614847565b9150506135b3565b50808061371690614847565b915050613595565b5050508160208261372f91906147e4565b613739919061488f565b604e61374591906147e4565b935050505095945050505050565b60606000835167ffffffffffffffff81111561377257613771613c8f565b5b6040519080825280602002602001820160405280156137a05781602001602082028036833780820191505090505b50905060006137ad611b4a565b60ff16905060005b855181101561389457818582815181106137d2576137d1614818565b5b60200260200101511015613839578481815181106137f3576137f2614818565b5b6020026020010151826040517f2b13aef5000000000000000000000000000000000000000000000000000000008152600401613830929190614e03565b60405180910390fd5b600061385e87838151811061385157613850614818565b5b60200260200101516119e6565b90508084838151811061387457613873614818565b5b60200260200101818152505050808061388c90614847565b9150506137b5565b50819250505092915050565b805160208201602082028101815b818110156138ec57825b818110156138e05781518151808210156138d3578084528183525b50506020810190506138b8565b506020810190506138ae565b5050505050565b6000818361390191906147e4565b905092915050565b60006139188360000183613af1565b905092915050565b600080600080600060418661393591906147e4565b9050600061395c60208361394991906147e4565b60003690506139ac90919063ffffffff16565b9050803593506139766003826139ac90919063ffffffff16565b9050803592508362ffffff1695508263ffffffff16945050505050915091565b600081836139a4919061488f565b905092915050565b600081836139ba9190614e2c565b905092915050565b6000806000808436038035935060208101905080359250602081019050803560001a91505060018682858560405160008152602001604052604051613a0a9493929190614e91565b6020604051602081039080840390855afa158015613a2c573d6000803e3d6000fd5b50505060206040510351935050505092915050565b6000806000604e86613a5391906147e4565b90506000613a94613a85602088613a6a91906147e4565b876001613a7791906147e4565b61399690919063ffffffff16565b836138f390919063ffffffff16565b90506000613aaf8260003690506139ac90919063ffffffff16565b90508035945060208101359350505050935093915050565b600080826001901b841690506000811191505092915050565b6000816001901b8317905092915050565b600080836001016000848152602001908152602001600020541415905092915050565b604051806040016040528060008019168152602001600081525090565b6040518060800160405280606081526020016060815260200160608152602001606081525090565b6040518060a00160405280600590602082028036833780820191505090505090565b600081519050919050565b600082825260208201905092915050565b6000819050602082019050919050565b6000819050919050565b613bba81613ba7565b82525050565b6000613bcc8383613bb1565b60208301905092915050565b6000602082019050919050565b6000613bf082613b7b565b613bfa8185613b86565b9350613c0583613b97565b8060005b83811015613c36578151613c1d8882613bc0565b9750613c2883613bd8565b925050600181019050613c09565b5085935050505092915050565b60006020820190508181036000830152613c5d8184613be5565b905092915050565b6000604051905090565b600080fd5b600080fd5b600080fd5b6000601f19601f8301169050919050565b7f4e487b7100000000000000000000000000000000000000000000000000000000600052604160045260246000fd5b613cc782613c7e565b810181811067ffffffffffffffff82111715613ce657613ce5613c8f565b5b80604052505050565b6000613cf9613c65565b9050613d058282613cbe565b919050565b600067ffffffffffffffff821115613d2557613d24613c8f565b5b602082029050602081019050919050565b600080fd5b600080fd5b613d4981613ba7565b8114613d5457600080fd5b50565b600081359050613d6681613d40565b92915050565b6000819050919050565b613d7f81613d6c565b8114613d8a57600080fd5b50565b600081359050613d9c81613d76565b92915050565b600060408284031215613db857613db7613d3b565b5b613dc26040613cef565b90506000613dd284828501613d57565b6000830152506020613de684828501613d8d565b60208301525092915050565b6000613e05613e0084613d0a565b613cef565b90508083825260208201905060408402830185811115613e2857613e27613d36565b5b835b81811015613e515780613e3d8882613da2565b845260208401935050604081019050613e2a565b5050509392505050565b600082601f830112613e7057613e6f613c79565b5b8135613e80848260208601613df2565b91505092915050565b600080600060608486031215613ea257613ea1613c6f565b5b600084013567ffffffffffffffff811115613ec057613ebf613c74565b5b613ecc86828701613e5b565b935050602084013567ffffffffffffffff811115613eed57613eec613c74565b5b613ef986828701613e5b565b925050604084013567ffffffffffffffff811115613f1a57613f19613c74565b5b613f2686828701613e5b565b9150509250925092565b613f3981613d6c565b82525050565b6000602082019050613f546000830184613f30565b92915050565b600067ffffffffffffffff821115613f7557613f74613c8f565b5b602082029050602081019050919050565b6000613f99613f9484613f5a565b613cef565b90508083825260208201905060208402830185811115613fbc57613fbb613d36565b5b835b81811015613fe55780613fd18882613d57565b845260208401935050602081019050613fbe565b5050509392505050565b600082601f83011261400457614003613c79565b5b8135614014848260208601613f86565b91505092915050565b60006020828403121561403357614032613c6f565b5b600082013567ffffffffffffffff81111561405157614050613c74565b5b61405d84828501613fef565b91505092915050565b600081519050919050565b600082825260208201905092915050565b6000819050602082019050919050565b61409b81613d6c565b82525050565b60006140ad8383614092565b60208301905092915050565b6000602082019050919050565b60006140d182614066565b6140db8185614071565b93506140e683614082565b8060005b838110156141175781516140fe88826140a1565b9750614109836140b9565b9250506001810190506140ea565b5085935050505092915050565b6000602082019050818103600083015261413e81846140c6565b905092915050565b60006020828403121561415c5761415b613c6f565b5b600061416a84828501613d57565b91505092915050565b60008115159050919050565b61418881614173565b82525050565b60006020820190506141a3600083018461417f565b92915050565b600081519050919050565b600082825260208201905092915050565b6000819050602082019050919050565b6040820160008201516141eb6000850182613bb1565b5060208201516141fe6020850182614092565b50505050565b600061421083836141d5565b60408301905092915050565b6000602082019050919050565b6000614234826141a9565b61423e81856141b4565b9350614249836141c5565b8060005b8381101561427a5781516142618882614204565b975061426c8361421c565b92505060018101905061424d565b5085935050505092915050565b600060208201905081810360008301526142a18184614229565b905092915050565b600073ffffffffffffffffffffffffffffffffffffffff82169050919050565b60006142d4826142a9565b9050919050565b6142e4816142c9565b81146142ef57600080fd5b50565b600081359050614301816142db565b92915050565b60006020828403121561431d5761431c613c6f565b5b600061432b848285016142f2565b91505092915050565b600060ff82169050919050565b61434a81614334565b82525050565b60006020820190506143656000830184614341565b92915050565b60006020828403121561438157614380613c6f565b5b600082013567ffffffffffffffff81111561439f5761439e613c74565b5b6143ab84828501613e5b565b91505092915050565b600080604083850312156143cb576143ca613c6f565b5b600083013567ffffffffffffffff8111156143e9576143e8613c74565b5b6143f585828601613e5b565b925050602083013567ffffffffffffffff81111561441657614415613c74565b5b61442285828601613e5b565b9150509250929050565b600080fd5b60008083601f84011261444757614446613c79565b5b8235905067ffffffffffffffff8111156144645761446361442c565b5b6020830191508360208202830111156144805761447f613d36565b5b9250929050565b6000806020838503121561449e5761449d613c6f565b5b600083013567ffffffffffffffff8111156144bc576144bb613c74565b5b6144c885828601614431565b92509250509250929050565b600082825260208201905092915050565b60006144f0826141a9565b6144fa81856144d4565b9350614505836141c5565b8060005b8381101561453657815161451d8882614204565b97506145288361421c565b925050600181019050614509565b5085935050505092915050565b6000608083016000830151848203600086015261456082826144e5565b9150506020830151848203602086015261457a82826144e5565b9150506040830151848203604086015261459482826144e5565b915050606083015184820360608601526145ae82826144e5565b9150508091505092915050565b600060208201905081810360008301526145d58184614543565b905092915050565b600067ffffffffffffffff8211156145f8576145f7613c8f565b5b602082029050602081019050919050565b600061461c614617846145dd565b613cef565b9050808382526020820190506020840283018581111561463f5761463e613d36565b5b835b8181101561466857806146548882613d8d565b845260208401935050602081019050614641565b5050509392505050565b600082601f83011261468757614686613c79565b5b8135614697848260208601614609565b91505092915050565b6000602082840312156146b6576146b5613c6f565b5b600082013567ffffffffffffffff8111156146d4576146d3613c74565b5b6146e084828501614672565b91505092915050565b600060059050919050565b600081905092915050565b6000819050919050565b6000602082019050919050565b61471f816146e9565b61472981846146f4565b9250614734826146ff565b8060005b8381101561476557815161474c87826140a1565b965061475783614709565b925050600181019050614738565b505050505050565b600060a0820190506147826000830184614716565b92915050565b60006020828403121561479e5761479d613c6f565b5b60006147ac84828501613d8d565b91505092915050565b7f4e487b7100000000000000000000000000000000000000000000000000000000600052601160045260246000fd5b60006147ef82613d6c565b91506147fa83613d6c565b9250828201905080821115614812576148116147b5565b5b92915050565b7f4e487b7100000000000000000000000000000000000000000000000000000000600052603260045260246000fd5b600061485282613d6c565b91507fffffffffffffffffffffffffffffffffffffffffffffffffffffffffffffffff8203614884576148836147b5565b5b600182019050919050565b600061489a82613d6c565b91506148a583613d6c565b92508282026148b381613d6c565b915082820484148315176148ca576148c96147b5565b5b5092915050565b7f4e487b7100000000000000000000000000000000000000000000000000000000600052601260045260246000fd5b600061490b82613d6c565b915061491683613d6c565b925082614926576149256148d1565b5b828204905092915050565b61493a816142c9565b82525050565b60006020820190506149556000830184614931565b92915050565b61496481613ba7565b82525050565b600060408201905061497f600083018561495b565b61498c602083018461417f565b9392505050565b6000815190506149a2816142db565b92915050565b6000602082840312156149be576149bd613c6f565b5b60006149cc84828501614993565b91505092915050565b6000815190506149e481613d76565b92915050565b600060208284031215614a00576149ff613c6f565b5b6000614a0e848285016149d5565b91505092915050565b614a2081614334565b8114614a2b57600080fd5b50565b600081519050614a3d81614a17565b92915050565b600060208284031215614a5957614a58613c6f565b5b6000614a6784828501614a2e565b91505092915050565b60008160011c9050919050565b6000808291508390505b6001851115614ac757808604811115614aa357614aa26147b5565b5b6001851615614ab25780820291505b8081029050614ac085614a70565b9450614a87565b94509492505050565b600082614ae05760019050614b9c565b81614aee5760009050614b9c565b8160018114614b045760028114614b0e57614b3d565b6001915050614b9c565b60ff841115614b2057614b1f6147b5565b5b8360020a915084821115614b3757614b366147b5565b5b50614b9c565b5060208310610133831016604e8410600b8410161715614b725782820a905083811115614b6d57614b6c6147b5565b5b614b9c565b614b7f8484846001614a7d565b92509050818404811115614b9657614b956147b5565b5b81810290505b9392505050565b6000614bae82613d6c565b9150614bb983614334565b9250614be67fffffffffffffffffffffffffffffffffffffffffffffffffffffffffffffffff8484614ad0565b905092915050565b600081519050614bfd81613d40565b92915050565b6000614c16614c1184613f5a565b613cef565b90508083825260208201905060208402830185811115614c3957614c38613d36565b5b835b81811015614c625780614c4e8882614bee565b845260208401935050602081019050614c3b565b5050509392505050565b600082601f830112614c8157614c80613c79565b5b8151614c91848260208601614c03565b91505092915050565b600060208284031215614cb057614caf613c6f565b5b600082015167ffffffffffffffff811115614cce57614ccd613c74565b5b614cda84828501614c6c565b91505092915050565b6000602082019050614cf8600083018461495b565b92915050565b600082825260208201905092915050565b7f506f736974696f6e2d70726963652073796d626f6c206d69736d617463682e00600082015250565b6000614d45601f83614cfe565b9150614d5082614d0f565b602082019050919050565b60006020820190508181036000830152614d7481614d38565b9050919050565b600081519050919050565b600081905092915050565b60005b83811015614daf578082015181840152602081019050614d94565b60008484015250505050565b6000614dc682614d7b565b614dd08185614d86565b9350614de0818560208601614d91565b80840191505092915050565b6000614df88284614dbb565b915081905092915050565b6000604082019050614e186000830185613f30565b614e256020830184613f30565b9392505050565b6000614e3782613d6c565b9150614e4283613d6c565b9250828203905081811115614e5a57614e596147b5565b5b92915050565b6000614e6b82613d6c565b9150614e7683613d6c565b925082614e8657614e856148d1565b5b828206905092915050565b6000608082019050614ea6600083018761495b565b614eb36020830186614341565b614ec0604083018561495b565b614ecd606083018461495b565b9594505050505056fea264697066735822122038d197a30830b7aa8753b27174b5ef71cee764333300d42270e65fd96dc7222564736f6c63430008110033",
  "devdoc": {
    "kind": "dev",
    "methods": {
      "aggregateValues(uint256[])": {
        "details": "This function may be overriden by the child consumer contract. It should aggregate values from different signers to a single uint value. By default, it calculates the median value",
        "params": {
          "values": "An array of uint256 values from different signers"
        },
        "returns": {
          "_0": "Result of the aggregation in the form of a single number"
        }
      },
      "getAllPricesForLiquidation(bytes32[])": {
        "details": "This function uses the redstone-evm-connector*"
      },
      "getDebt()": {
        "details": "This function uses the redstone-evm-connector*"
      },
      "getDebtAssetsPrices()": {
        "details": "This function uses the redstone-evm-connector*"
      },
      "getHealthRatio()": {
        "details": "This function uses the redstone-evm-connector*"
      },
      "getOwnedAssetsPrices()": {
        "details": "This function uses the redstone-evm-connector*"
      },
      "getPrice(bytes32)": {
        "details": "This function uses the redstone-evm-connector*"
      },
      "getPrices(bytes32[])": {
        "details": "This function uses the redstone-evm-connector*"
      },
      "getStakedPositionsPrices()": {
        "details": "This function uses the redstone-evm-connector*"
      },
      "getStakedValue()": {
        "details": "This function uses the redstone-evm-connector*"
      },
      "getThresholdWeightedValue()": {
        "details": "This function uses the redstone-evm-connector*"
      },
      "getTotalAssetsValue()": {
        "details": "This function uses the redstone-evm-connector*"
      },
      "getTotalValue()": {
        "details": "This function uses the redstone-evm-connector*"
      },
      "getUniqueSignersThreshold()": {
        "details": "This function should be overriden by the child consumer contract.",
        "returns": {
          "_0": "The minimum required value of unique authorised signers"
        }
      },
      "isSolvent()": {
        "details": "This function uses the redstone-evm-connector*"
      },
      "isSolventWithPrices((bytes32,uint256)[],(bytes32,uint256)[],(bytes32,uint256)[])": {
        "params": {
          "debtAssetsPrices": "An array of Asset/Price structs used to calculate value of the debt",
          "ownedAssetsPrices": "An array of Asset/Price structs used to calculate weighted value of owned assets",
          "stakedPositionsPrices": "An array of Asset/Price structs used to calculate value of the staked positions*"
        }
      },
      "validateTimestamp(uint256)": {
        "details": "This function may be overriden by the child consumer contract. It should validate the timestamp against the current time (block.timestamp) It should revert with a helpful message if the timestamp is not valid",
        "params": {
          "receivedTimestampMilliseconds": "Timestamp extracted from calldata"
        }
      }
    },
    "version": 1
  },
  "userdoc": {
    "kind": "user",
    "methods": {
      "_getTotalAssetsValueBase((bytes32,uint256)[])": {
        "notice": "Returns the current value of Prime Account in USD including all tokens as well as staking and LP positions Uses provided AssetPrice struct array instead of extracting the pricing data from the calldata again.*"
      },
      "getAllPricesForLiquidation(bytes32[])": {
        "notice": "Returns CachedPrices struct consisting of Asset/Price arrays for ownedAssets, debtAssets, stakedPositions and assetsToRepay. Used during the liquidation process in order to obtain all necessary prices from calldata only once."
      },
      "getDebt()": {
        "notice": "Returns the current debt from all lending pools"
      },
      "getDebtAssets()": {
        "notice": "Returns an array of bytes32[] symbols of debt (borrowable) assets.*"
      },
      "getDebtAssetsPrices()": {
        "notice": "Returns an array of Asset/Price structs of debt (borrowable) assets."
      },
      "getDebtWithPrices((bytes32,uint256)[])": {
        "notice": "Returns the current debt from all lending pools Uses provided AssetPrice struct array instead of extracting the pricing data from the calldata again.*"
      },
      "getHealthRatio()": {
        "notice": "Returns current health ratio (solvency) associated with the loan, defined as threshold weighted value of divided by current debt"
      },
      "getHealthRatioWithPrices((bytes32,uint256)[],(bytes32,uint256)[],(bytes32,uint256)[])": {
        "notice": "Returns current health ratio (solvency) associated with the loan, defined as threshold weighted value of divided by current debt Uses provided AssetPrice struct arrays instead of extracting the pricing data from the calldata again.*"
      },
      "getOwnedAssetsEnriched()": {
        "notice": "Returns list of owned assets that always included NativeToken at index 0*"
      },
      "getOwnedAssetsPrices()": {
        "notice": "Returns an array of Asset/Price structs of enriched (always containing AVAX at index 0) owned assets."
      },
      "getPrice(bytes32)": {
        "notice": "Helper method exposing the redstone-evm-connector getOracleNumericValueFromTxMsg() method."
      },
      "getPrices(bytes32[])": {
        "notice": "Helper method exposing the redstone-evm-connector getOracleNumericValuesFromTxMsg() method."
      },
      "getStakedPositionsPrices()": {
        "notice": "Returns an array of Asset/Price structs of staked positions."
      },
      "getStakedValue()": {
        "notice": "Returns the current value of staked positions in USD."
      },
      "getStakedValueWithPrices((bytes32,uint256)[])": {
        "notice": "Returns the current value of staked positions in USD. Uses provided AssetPrice struct array instead of extracting the pricing data from the calldata again.*"
      },
      "getThresholdWeightedValue()": {
        "notice": "Returns the threshold weighted value of assets in USD including all tokens as well as staking and LP positions"
      },
      "getThresholdWeightedValueWithPrices((bytes32,uint256)[],(bytes32,uint256)[])": {
        "notice": "Returns the threshold weighted value of assets in USD including all tokens as well as staking and LP positions Uses provided AssetPrice struct arrays instead of extracting the pricing data from the calldata again.*"
      },
      "getTotalAssetsValue()": {
        "notice": "Returns the current value of Prime Account in USD including all tokens as well as staking and LP positions"
      },
      "getTotalAssetsValueWithPrices((bytes32,uint256)[])": {
        "notice": "Returns the current value of Prime Account in USD including all tokens as well as staking and LP positions Uses provided AssetPrice struct array instead of extracting the pricing data from the calldata again.*"
      },
      "getTotalValue()": {
        "notice": "Returns the current value of Prime Account in USD including all tokens as well as staking and LP positions"
      },
      "getTotalValueWithPrices((bytes32,uint256)[],(bytes32,uint256)[])": {
        "notice": "Returns the current value of Prime Account in USD including all tokens as well as staking and LP positions Uses provided AssetPrice struct arrays instead of extracting the pricing data from the calldata again.*"
      },
      "isSolvent()": {
        "notice": "Checks if the loan is solvent. It means that the Health Ratio is greater than 1e18."
      },
      "isSolventWithPrices((bytes32,uint256)[],(bytes32,uint256)[],(bytes32,uint256)[])": {
        "notice": "Checks if the loan is solvent. It means that the Health Ratio is greater than 1e18. Uses provided AssetPrice struct arrays instead of extracting the pricing data from the calldata again."
      }
    },
    "version": 1
  },
  "storageLayout": {
    "storage": [],
    "types": null
  }
}