{
  "address": "0x627a40d9350b441C8e0D5aB3340533548d59D7AE",
  "abi": [
    {
      "inputs": [],
      "name": "CalldataMustHaveValidPayload",
      "type": "error"
    },
    {
      "inputs": [],
      "name": "CalldataOverOrUnderFlow",
      "type": "error"
    },
    {
      "inputs": [],
      "name": "EachSignerMustProvideTheSameValue",
      "type": "error"
    },
    {
      "inputs": [],
      "name": "EmptyCalldataPointersArr",
      "type": "error"
    },
    {
      "inputs": [],
      "name": "IncorrectUnsignedMetadataSize",
      "type": "error"
    },
    {
      "inputs": [
        {
          "internalType": "uint256",
          "name": "receviedSignersCount",
          "type": "uint256"
        },
        {
          "internalType": "uint256",
          "name": "requiredSignersCount",
          "type": "uint256"
        }
      ],
      "name": "InsufficientNumberOfUniqueSigners",
      "type": "error"
    },
    {
      "inputs": [],
      "name": "InvalidCalldataPointer",
      "type": "error"
    },
    {
      "inputs": [
        {
          "internalType": "bytes",
          "name": "result",
          "type": "bytes"
        }
      ],
      "name": "ProxyCalldataFailedWithCustomError",
      "type": "error"
    },
    {
      "inputs": [
        {
          "internalType": "string",
          "name": "message",
          "type": "string"
        }
      ],
      "name": "ProxyCalldataFailedWithStringMessage",
      "type": "error"
    },
    {
      "inputs": [],
      "name": "ProxyCalldataFailedWithoutErrMsg",
      "type": "error"
    },
    {
      "inputs": [
        {
          "internalType": "address",
          "name": "receivedSigner",
          "type": "address"
        }
      ],
      "name": "SignerNotAuthorised",
      "type": "error"
    },
    {
      "anonymous": false,
      "inputs": [
        {
          "indexed": true,
          "internalType": "address",
          "name": "user",
          "type": "address"
        },
        {
          "indexed": true,
          "internalType": "address",
          "name": "lpToken",
          "type": "address"
        },
        {
          "indexed": false,
          "internalType": "bytes32",
          "name": "firstAsset",
          "type": "bytes32"
        },
        {
          "indexed": false,
          "internalType": "bytes32",
          "name": "secondAsset",
          "type": "bytes32"
        },
        {
          "indexed": false,
          "internalType": "uint256",
          "name": "liquidity",
          "type": "uint256"
        },
        {
          "indexed": false,
          "internalType": "uint256",
          "name": "firstAmount",
          "type": "uint256"
        },
        {
          "indexed": false,
          "internalType": "uint256",
          "name": "secondAmount",
          "type": "uint256"
        },
        {
          "indexed": false,
          "internalType": "uint256",
          "name": "timestamp",
          "type": "uint256"
        }
      ],
      "name": "AddLiquidity",
      "type": "event"
    },
    {
      "anonymous": false,
      "inputs": [
        {
          "indexed": true,
          "internalType": "address",
          "name": "user",
          "type": "address"
        },
        {
          "indexed": true,
          "internalType": "address",
          "name": "lpToken",
          "type": "address"
        },
        {
          "indexed": false,
          "internalType": "bytes32",
          "name": "firstAsset",
          "type": "bytes32"
        },
        {
          "indexed": false,
          "internalType": "bytes32",
          "name": "secondAsset",
          "type": "bytes32"
        },
        {
          "indexed": false,
          "internalType": "uint256",
          "name": "liquidity",
          "type": "uint256"
        },
        {
          "indexed": false,
          "internalType": "uint256",
          "name": "firstAmount",
          "type": "uint256"
        },
        {
          "indexed": false,
          "internalType": "uint256",
          "name": "secondAmount",
          "type": "uint256"
        },
        {
          "indexed": false,
          "internalType": "uint256",
          "name": "timestamp",
          "type": "uint256"
        }
      ],
      "name": "RemoveLiquidity",
      "type": "event"
    },
    {
      "anonymous": false,
      "inputs": [
        {
          "indexed": true,
          "internalType": "address",
          "name": "user",
          "type": "address"
        },
        {
          "indexed": true,
          "internalType": "bytes32",
          "name": "soldAsset",
          "type": "bytes32"
        },
        {
          "indexed": true,
          "internalType": "bytes32",
          "name": "boughtAsset",
          "type": "bytes32"
        },
        {
          "indexed": false,
          "internalType": "uint256",
          "name": "maximumSold",
          "type": "uint256"
        },
        {
          "indexed": false,
          "internalType": "uint256",
          "name": "minimumBought",
          "type": "uint256"
        },
        {
          "indexed": false,
          "internalType": "uint256",
          "name": "timestamp",
          "type": "uint256"
        }
      ],
      "name": "Swap",
      "type": "event"
    },
    {
      "inputs": [
        {
          "internalType": "bytes32[]",
          "name": "assetsToRepay",
          "type": "bytes32[]"
        }
      ],
      "name": "_getAllPricesForLiquidation",
      "outputs": [
        {
          "components": [
            {
              "components": [
                {
                  "internalType": "bytes32",
                  "name": "asset",
                  "type": "bytes32"
                },
                {
                  "internalType": "uint256",
                  "name": "price",
                  "type": "uint256"
                }
              ],
              "internalType": "struct SolvencyFacetProd.AssetPrice[]",
              "name": "ownedAssetsPrices",
              "type": "tuple[]"
            },
            {
              "components": [
                {
                  "internalType": "bytes32",
                  "name": "asset",
                  "type": "bytes32"
                },
                {
                  "internalType": "uint256",
                  "name": "price",
                  "type": "uint256"
                }
              ],
              "internalType": "struct SolvencyFacetProd.AssetPrice[]",
              "name": "debtAssetsPrices",
              "type": "tuple[]"
            },
            {
              "components": [
                {
                  "internalType": "bytes32",
                  "name": "asset",
                  "type": "bytes32"
                },
                {
                  "internalType": "uint256",
                  "name": "price",
                  "type": "uint256"
                }
              ],
              "internalType": "struct SolvencyFacetProd.AssetPrice[]",
              "name": "stakedPositionsPrices",
              "type": "tuple[]"
            },
            {
              "components": [
                {
                  "internalType": "bytes32",
                  "name": "asset",
                  "type": "bytes32"
                },
                {
                  "internalType": "uint256",
                  "name": "price",
                  "type": "uint256"
                }
              ],
              "internalType": "struct SolvencyFacetProd.AssetPrice[]",
              "name": "assetsToRepayPrices",
              "type": "tuple[]"
            }
          ],
          "internalType": "struct SolvencyFacetProd.CachedPrices",
          "name": "result",
          "type": "tuple"
        }
      ],
      "stateMutability": "nonpayable",
      "type": "function"
    },
    {
      "inputs": [],
      "name": "_getHealthRatio",
      "outputs": [
        {
          "internalType": "uint256",
          "name": "health",
          "type": "uint256"
        }
      ],
      "stateMutability": "nonpayable",
      "type": "function"
    },
    {
      "inputs": [
        {
          "components": [
            {
              "internalType": "bytes32",
              "name": "asset",
              "type": "bytes32"
            },
            {
              "internalType": "uint256",
              "name": "price",
              "type": "uint256"
            }
          ],
          "internalType": "struct SolvencyFacetProd.AssetPrice[]",
          "name": "ownedAssetsPrices",
          "type": "tuple[]"
        },
        {
          "components": [
            {
              "internalType": "bytes32",
              "name": "asset",
              "type": "bytes32"
            },
            {
              "internalType": "uint256",
              "name": "price",
              "type": "uint256"
            }
          ],
          "internalType": "struct SolvencyFacetProd.AssetPrice[]",
          "name": "debtAssetsPrices",
          "type": "tuple[]"
        },
        {
          "components": [
            {
              "internalType": "bytes32",
              "name": "asset",
              "type": "bytes32"
            },
            {
              "internalType": "uint256",
              "name": "price",
              "type": "uint256"
            }
          ],
          "internalType": "struct SolvencyFacetProd.AssetPrice[]",
          "name": "stakedPositionsPrices",
          "type": "tuple[]"
        }
      ],
      "name": "_getHealthRatioWithPrices",
      "outputs": [
        {
          "internalType": "uint256",
          "name": "health",
          "type": "uint256"
        }
      ],
      "stateMutability": "nonpayable",
      "type": "function"
    },
    {
      "inputs": [
        {
          "internalType": "bytes32",
          "name": "_firstAsset",
          "type": "bytes32"
        },
        {
          "internalType": "bytes32",
          "name": "_secondAsset",
          "type": "bytes32"
        },
        {
          "internalType": "uint256",
          "name": "amountADesired",
          "type": "uint256"
        },
        {
          "internalType": "uint256",
          "name": "amountBDesired",
          "type": "uint256"
        },
        {
          "internalType": "uint256",
          "name": "amountAMin",
          "type": "uint256"
        },
        {
          "internalType": "uint256",
          "name": "amountBMin",
          "type": "uint256"
        }
      ],
      "name": "addLiquidityTraderJoe",
      "outputs": [],
      "stateMutability": "nonpayable",
      "type": "function"
    },
    {
      "inputs": [
        {
          "internalType": "bytes32",
          "name": "_bytes32",
          "type": "bytes32"
        }
      ],
      "name": "bytes32ToString",
      "outputs": [
        {
          "internalType": "string",
          "name": "",
          "type": "string"
        }
      ],
      "stateMutability": "pure",
      "type": "function"
    },
    {
      "inputs": [],
      "name": "getExchangeIntermediaryContract",
      "outputs": [
        {
          "internalType": "address",
          "name": "",
          "type": "address"
        }
      ],
      "stateMutability": "nonpayable",
      "type": "function"
    },
    {
      "inputs": [
        {
          "internalType": "bytes32",
          "name": "symbol",
          "type": "bytes32"
        }
      ],
      "name": "getPrice",
      "outputs": [
        {
          "internalType": "uint256",
          "name": "price",
          "type": "uint256"
        }
      ],
      "stateMutability": "nonpayable",
      "type": "function"
    },
    {
      "inputs": [
        {
          "internalType": "bytes32[]",
          "name": "symbols",
          "type": "bytes32[]"
        }
      ],
      "name": "getPrices",
      "outputs": [
        {
          "internalType": "uint256[]",
          "name": "prices",
          "type": "uint256[]"
        }
      ],
      "stateMutability": "nonpayable",
      "type": "function"
    },
    {
      "inputs": [
        {
          "internalType": "bytes32",
          "name": "_firstAsset",
          "type": "bytes32"
        },
        {
          "internalType": "bytes32",
          "name": "_secondAsset",
          "type": "bytes32"
        },
        {
          "internalType": "uint256",
          "name": "liquidity",
          "type": "uint256"
        },
        {
          "internalType": "uint256",
          "name": "amountAMin",
          "type": "uint256"
        },
        {
          "internalType": "uint256",
          "name": "amountBMin",
          "type": "uint256"
        }
      ],
      "name": "removeLiquidityTraderJoe",
      "outputs": [],
      "stateMutability": "nonpayable",
      "type": "function"
    },
    {
      "inputs": [
        {
          "internalType": "string",
          "name": "source",
          "type": "string"
        }
      ],
      "name": "stringToBytes32",
      "outputs": [
        {
          "internalType": "bytes32",
          "name": "result",
          "type": "bytes32"
        }
      ],
      "stateMutability": "pure",
      "type": "function"
    },
    {
      "inputs": [
        {
          "internalType": "bytes32",
          "name": "_soldAsset",
          "type": "bytes32"
        },
        {
          "internalType": "bytes32",
          "name": "_boughtAsset",
          "type": "bytes32"
        },
        {
          "internalType": "uint256",
          "name": "_exactSold",
          "type": "uint256"
        },
        {
          "internalType": "uint256",
          "name": "_minimumBought",
          "type": "uint256"
        }
      ],
      "name": "swapTraderJoe",
      "outputs": [
        {
          "internalType": "uint256[]",
          "name": "",
          "type": "uint256[]"
        }
      ],
      "stateMutability": "nonpayable",
      "type": "function"
    }
  ],
  "transactionHash": "0xec3401ddca0a6a4992b47429b66351cfb3223001dfceda4aff897d6493825155",
  "args": [],
  "numDeployments": 1,
  "solcInputHash": "df3ad5bdcd0ec16bf72ca3adff085c61",
  "bytecode": "0x608060405234801561001057600080fd5b506001600081905550613c44806100286000396000f3fe608060405234801561001057600080fd5b50600436106100a95760003560e01c80638f7ef1f5116100715780638f7ef1f5146101665780639201de5514610196578063b2d40e73146101c6578063ce79b024146101f6578063cfb5192814610212578063d9c2515f14610242576100a9565b806326ee4836146100ae57806331d98b3f146100de57806339e2719e1461010e5780633be4934e1461012c578063640adf7814610148575b600080fd5b6100c860048036038101906100c39190612316565b610272565b6040516100d59190612427565b60405180910390f35b6100f860048036038101906100f39190612449565b61031c565b6040516101059190612485565b60405180910390f35b6101166103c6565b6040516101239190612485565b60405180910390f35b610146600480360381019061014191906124cc565b610463565b005b610150610481565b60405161015d919061259a565b60405180910390f35b610180600480360381019061017b91906126d2565b61049d565b60405161018d9190612485565b60405180910390f35b6101b060048036038101906101ab9190612449565b61054d565b6040516101bd91906127f8565b60405180910390f35b6101e060048036038101906101db9190612316565b6106e8565b6040516101ed919061297f565b60405180910390f35b610210600480360381019061020b91906129a1565b610798565b005b61022c60048036038101906102279190612ad1565b6107b4565b6040516102399190612b29565b60405180910390f35b61025c60048036038101906102579190612b44565b6107dd565b6040516102699190612427565b60405180910390f35b60606103026102876326ee483660e01b6107fd565b6326ee483660e01b846040516024016102a09190612c5a565b604051602081830303815290604052907bffffffffffffffffffffffffffffffffffffffffffffffffffffffff19166020820180517bffffffffffffffffffffffffffffffffffffffffffffffffffffffff8381831617835250505050610887565b8060200190518101906103159190612d54565b9050919050565b60006103ac6103316331d98b3f60e01b6107fd565b6331d98b3f60e01b8460405160240161034a9190612b29565b604051602081830303815290604052907bffffffffffffffffffffffffffffffffffffffffffffffffffffffff19166020820180517bffffffffffffffffffffffffffffffffffffffffffffffffffffffff8381831617835250505050610887565b8060200190518101906103bf9190612d9d565b9050919050565b600061044b6103db637914334f60e01b6107fd565b637914334f60e01b604051602401604051602081830303815290604052907bffffffffffffffffffffffffffffffffffffffffffffffffffffffff19166020820180517bffffffffffffffffffffffffffffffffffffffffffffffffffffffff8381831617835250505050610887565b80602001905181019061045e9190612d9d565b905090565b61046b610918565b6104798686868686866109b3565b505050505050565b600073a493b6ff3ea1d0bed5766dd9f52a5828b6dfc643905090565b60006105316104b2630d742f6960e01b6107fd565b630d742f6960e01b8686866040516024016104cf93929190612e39565b604051602081830303815290604052907bffffffffffffffffffffffffffffffffffffffffffffffffffffffff19166020820180517bffffffffffffffffffffffffffffffffffffffffffffffffffffffff8381831617835250505050610887565b8060200190518101906105449190612d9d565b90509392505050565b606060005b60208160ff161080156105a45750600060f81b838260ff166020811061057b5761057a612e85565b5b1a60f81b7effffffffffffffffffffffffffffffffffffffffffffffffffffffffffffff191614155b156105bc5780806105b490612ef0565b915050610552565b60008160ff1667ffffffffffffffff8111156105db576105da61219d565b5b6040519080825280601f01601f19166020018201604052801561060d5781602001600182028036833780820191505090505b509050600091505b60208260ff161080156106675750600060f81b848360ff166020811061063e5761063d612e85565b5b1a60f81b7effffffffffffffffffffffffffffffffffffffffffffffffffffffffffffff191614155b156106de57838260ff166020811061068257610681612e85565b5b1a60f81b818360ff168151811061069c5761069b612e85565b5b60200101907effffffffffffffffffffffffffffffffffffffffffffffffffffffffffffff1916908160001a90535081806106d690612ef0565b925050610615565b8092505050919050565b6106f061214b565b61077e61070363a3aa8d1e60e01b6107fd565b63a3aa8d1e60e01b8460405160240161071c9190612c5a565b604051602081830303815290604052907bffffffffffffffffffffffffffffffffffffffffffffffffffffffff19166020820180517bffffffffffffffffffffffffffffffffffffffffffffffffffffffff8381831617835250505050610887565b80602001905181019061079191906130fd565b9050919050565b6107a0610918565b6107ad8585858585610f22565b5050505050565b60008082905060008151036107cf576000801b9150506107d8565b60208301519150505b919050565b60606107e7610918565b6107f385858585611242565b9050949350505050565b600061080761167a565b73ffffffffffffffffffffffffffffffffffffffff16630d741577836040518263ffffffff1660e01b815260040161083f9190613181565b602060405180830381865afa15801561085c573d6000803e3d6000fd5b505050506040513d601f19601f8201168201806040525081019061088091906131c8565b9050919050565b6060600061089483611696565b90506000808573ffffffffffffffffffffffffffffffffffffffff16836040516108be919061323c565b600060405180830381855af49150503d80600081146108f9576040519150601f19603f3d011682016040523d82523d6000602084013e6108fe565b606091505b509150915061090d8282611750565b935050505092915050565b610920611850565b60000160009054906101000a900473ffffffffffffffffffffffffffffffffffffffff1673ffffffffffffffffffffffffffffffffffffffff163373ffffffffffffffffffffffffffffffffffffffff16146109b1576040517f08c379a00000000000000000000000000000000000000000000000000000000081526004016109a8906132c5565b60405180910390fd5b565b60006109c087600161187d565b905060006109cf87600061187d565b9050858273ffffffffffffffffffffffffffffffffffffffff166370a08231306040518263ffffffff1660e01b8152600401610a0b919061259a565b602060405180830381865afa158015610a28573d6000803e3d6000fd5b505050506040513d601f19601f82011682018060405250810190610a4c9190612d9d565b1015610a8d576040517f08c379a0000000000000000000000000000000000000000000000000000000008152600401610a8490613331565b60405180910390fd5b848173ffffffffffffffffffffffffffffffffffffffff166370a08231306040518263ffffffff1660e01b8152600401610ac7919061259a565b602060405180830381865afa158015610ae4573d6000803e3d6000fd5b505050506040513d601f19601f82011682018060405250810190610b089190612d9d565b1015610b49576040517f08c379a0000000000000000000000000000000000000000000000000000000008152600401610b409061339d565b60405180910390fd5b610b7b610b54610481565b878473ffffffffffffffffffffffffffffffffffffffff1661190a9092919063ffffffff16565b610bad610b86610481565b868373ffffffffffffffffffffffffffffffffffffffff1661190a9092919063ffffffff16565b6000610bb7610481565b90506000808273ffffffffffffffffffffffffffffffffffffffff16633351733f86868c8c8c8c6040518763ffffffff1660e01b8152600401610bff969594939291906133bd565b6080604051808303816000875af1158015610c1e573d6000803e3d6000fd5b505050506040513d601f19601f82011682018060405250810190610c42919061341e565b809450819b50829c508395505050505060008273ffffffffffffffffffffffffffffffffffffffff166370a08231306040518263ffffffff1660e01b8152600401610c8d919061259a565b602060405180830381865afa158015610caa573d6000803e3d6000fd5b505050506040513d601f19601f82011682018060405250810190610cce9190612d9d565b1115610d49576000808b8d10610ce5578b8d610ce8565b8c8c5b915091506000610d39610d01610cfc611a40565b61054d565b610d0a8561054d565b610d138561054d565b604051602001610d259392919061350d565b6040516020818303038152906040526107b4565b9050610d458186611a68565b5050505b60008573ffffffffffffffffffffffffffffffffffffffff166370a08231306040518263ffffffff1660e01b8152600401610d84919061259a565b602060405180830381865afa158015610da1573d6000803e3d6000fd5b505050506040513d601f19601f82011682018060405250810190610dc59190612d9d565b03610dd457610dd38b611b3a565b5b60008473ffffffffffffffffffffffffffffffffffffffff166370a08231306040518263ffffffff1660e01b8152600401610e0f919061259a565b602060405180830381865afa158015610e2c573d6000803e3d6000fd5b505050506040513d601f19601f82011682018060405250810190610e509190612d9d565b03610e5f57610e5e8a611b3a565b5b8173ffffffffffffffffffffffffffffffffffffffff163373ffffffffffffffffffffffffffffffffffffffff167fee6437c12e66102495172228742a18765355debe1f046d82bcd14f8dc66f11678d8d858e8e42604051610ec69695949392919061356b565b60405180910390a35050505050610edb611b58565b610f1a576040517f08c379a0000000000000000000000000000000000000000000000000000000008152600401610f119061363e565b60405180910390fd5b505050505050565b6000610f2f86600161187d565b90506000610f3e86600061187d565b90506000610f4a610481565b905060008173ffffffffffffffffffffffffffffffffffffffff1663e6a4390585856040518363ffffffff1660e01b8152600401610f8992919061365e565b6020604051808303816000875af1158015610fa8573d6000803e3d6000fd5b505050506040513d601f19601f82011682018060405250810190610fcc91906131c8565b9050611000610fd9610481565b888373ffffffffffffffffffffffffffffffffffffffff1661190a9092919063ffffffff16565b6000808373ffffffffffffffffffffffffffffffffffffffff1663e2dc85dc87878c8c8c6040518663ffffffff1660e01b8152600401611044959493929190613687565b60408051808303816000875af1158015611062573d6000803e3d6000fd5b505050506040513d601f19601f8201168201806040525081019061108691906136da565b9150915060008373ffffffffffffffffffffffffffffffffffffffff166370a08231306040518263ffffffff1660e01b81526004016110c5919061259a565b602060405180830381865afa1580156110e2573d6000803e3d6000fd5b505050506040513d601f19601f820116820180604052508101906111069190612d9d565b0361117f576000808b8d1061111c578b8d61111f565b8c8c5b915091506000611170611138611133611a40565b61054d565b6111418561054d565b61114a8561054d565b60405160200161115c9392919061371a565b6040516020818303038152906040526107b4565b905061117b81611b3a565b5050505b8273ffffffffffffffffffffffffffffffffffffffff163373ffffffffffffffffffffffffffffffffffffffff167f60d6d04a69b63b07bc4612079adf2399fcc2b9da68fe609fe66ffbe16fca76f48d8d8d8787426040516111e69695949392919061356b565b60405180910390a35050505050506111fc611b58565b61123b576040517f08c379a00000000000000000000000000000000000000000000000000000000081526004016112329061363e565b60405180910390fd5b5050505050565b6060600061125186600161187d565b9050600061126086600061187d565b9050848273ffffffffffffffffffffffffffffffffffffffff166370a08231306040518263ffffffff1660e01b815260040161129c919061259a565b602060405180830381865afa1580156112b9573d6000803e3d6000fd5b505050506040513d601f19601f820116820180604052508101906112dd9190612d9d565b101561131e576040517f08c379a0000000000000000000000000000000000000000000000000000000008152600401611315906137b5565b60405180910390fd5b611350611329610481565b868473ffffffffffffffffffffffffffffffffffffffff1661190a9092919063ffffffff16565b600061135a610481565b905060008173ffffffffffffffffffffffffffffffffffffffff1663fe02915685858a8a6040518563ffffffff1660e01b815260040161139d94939291906137d5565b6000604051808303816000875af11580156113bc573d6000803e3d6000fd5b505050506040513d6000823e3d601f19601f820116820180604052508101906113e59190612d54565b905060006113f1611bf5565b905060008173ffffffffffffffffffffffffffffffffffffffff166325eb876f8b60006040518363ffffffff1660e01b8152600401611431929190613835565b602060405180830381865afa15801561144e573d6000803e3d6000fd5b505050506040513d601f19601f8201168201806040525081019061147291906131c8565b905060008573ffffffffffffffffffffffffffffffffffffffff166370a08231306040518263ffffffff1660e01b81526004016114af919061259a565b602060405180830381865afa1580156114cc573d6000803e3d6000fd5b505050506040513d601f19601f820116820180604052508101906114f09190612d9d565b1115611501576115008a82611a68565b5b60008673ffffffffffffffffffffffffffffffffffffffff166370a08231306040518263ffffffff1660e01b815260040161153c919061259a565b602060405180830381865afa158015611559573d6000803e3d6000fd5b505050506040513d601f19601f8201168201806040525081019061157d9190612d9d565b0361158c5761158b8b611b3a565b5b898b3373ffffffffffffffffffffffffffffffffffffffff167f4cb7ea834525f7e7be14143ffc68be9c6735559e936d23502fff335d39a2e8e2866000815181106115da576115d9612e85565b5b602002602001015187600189516115f1919061385e565b8151811061160257611601612e85565b5b60200260200101514260405161161a93929190613892565b60405180910390a4829650505050505050611633611b58565b611672576040517f08c379a00000000000000000000000000000000000000000000000000000000081526004016116699061363e565b60405180910390fd5b949350505050565b6000737dbcb7b5019cfd15225e5adc454b864ca1b7f2d1905090565b606060008251905060006116a8611c11565b9050600081836116b891906138c9565b905060003690508211156116f8576040517f5796f78a00000000000000000000000000000000000000000000000000000000815260040160405180910390fd5b6060604051905081815285602001848101826020015b8183101561172b578251815260208301925060208101905061170e565b5050508283360385602001830137602084840182010160405280945050505050919050565b606082611847576000825103611792576040517f567fe27a00000000000000000000000000000000000000000000000000000000815260040160405180910390fd5b600060208301517f08c379a0000000000000000000000000000000000000000000000000000000008114915050801561180a576060604484019050806040517f0f7e827800000000000000000000000000000000000000000000000000000000815260040161180191906127f8565b60405180910390fd5b826040517ffd36fde300000000000000000000000000000000000000000000000000000000815260040161183e9190613947565b60405180910390fd5b81905092915050565b6000807f8d5bb42e0ac1496a2c326edc9c00758985246e6c2bb146d6c2f4a0d509e0960a90508091505090565b6000611887611bf5565b73ffffffffffffffffffffffffffffffffffffffff166325eb876f84846040518363ffffffff1660e01b81526004016118c1929190613835565b602060405180830381865afa1580156118de573d6000803e3d6000fd5b505050506040513d601f19601f8201168201806040525081019061190291906131c8565b905092915050565b6000808473ffffffffffffffffffffffffffffffffffffffff1663a9059cbb858560405160240161193c929190613969565b6040516020818303038152906040529060e01b6020820180517bffffffffffffffffffffffffffffffffffffffffffffffffffffffff838183161783525050505060405161198a919061323c565b6000604051808303816000865af19150503d80600081146119c7576040519150601f19603f3d011682016040523d82523d6000602084013e6119cc565b606091505b50915091508180156119fa57506000815114806119f95750808060200190518101906119f891906139be565b5b5b611a39576040517f08c379a0000000000000000000000000000000000000000000000000000000008152600401611a3090613a5d565b60405180910390fd5b5050505050565b60007f544a000000000000000000000000000000000000000000000000000000000000905090565b60008203611aab576040517f08c379a0000000000000000000000000000000000000000000000000000000008152600401611aa290613ac9565b60405180910390fd5b600073ffffffffffffffffffffffffffffffffffffffff168173ffffffffffffffffffffffffffffffffffffffff1603611b1a576040517f08c379a0000000000000000000000000000000000000000000000000000000008152600401611b1190613b35565b60405180910390fd5b6000611b24611850565b9050611b34816002018484611c81565b50505050565b6000611b44611850565b9050611b538160020183611cb3565b505050565b6000611bdd611b6d635ce2395060e01b6107fd565b635ce2395060e01b604051602401604051602081830303815290604052907bffffffffffffffffffffffffffffffffffffffffffffffffffffffff19166020820180517bffffffffffffffffffffffffffffffffffffffffffffffffffffffff8381831617835250505050610887565b806020019051810190611bf091906139be565b905090565b6000739cd7ecff2f5a95c1d6ee2ceb3e53909ebe9d57bb905090565b600080611c1c611cca565b90506000611c2982611ddb565b61ffff169050600282611c3c91906138c9565b915060005b81811015611c78576000611c5484611e37565b90508084611c6291906138c9565b9350508080611c7090613b55565b915050611c41565b50819250505090565b6000611caa84600001848473ffffffffffffffffffffffffffffffffffffffff1660001b611e76565b90509392505050565b6000611cc28360000183611eb1565b905092915050565b60008060203603356602ed57011e000081166602ed57011e00001491505080611d1f576040517fe7764c9e00000000000000000000000000000000000000000000000000000000815260040160405180910390fd5b60008036905060291115611d5f576040517f5796f78a00000000000000000000000000000000000000000000000000000000815260040160405180910390fd5b602936033590506000600960038362ffffff16611d7c91906138c9565b611d8691906138c9565b90506000369050600282611d9a91906138c9565b1115611dd2576040517fc30a7bd700000000000000000000000000000000000000000000000000000000815260040160405180910390fd5b80935050505090565b600080602083611deb91906138c9565b90506000369050811115611e2b576040517f5796f78a00000000000000000000000000000000000000000000000000000000815260040160405180910390fd5b80360335915050919050565b6000806000611e4584611eea565b91509150604e816020611e5891906138c9565b83611e639190613b9d565b611e6d91906138c9565b92505050919050565b60008184600201600085815260200190815260200160002081905550611ea88385600001611f6090919063ffffffff16565b90509392505050565b600082600201600083815260200190815260200160002060009055611ee28284600001611f7790919063ffffffff16565b905092915050565b6000806000806000604186611eff91906138c9565b90506000611f26602083611f1391906138c9565b6000369050611f8e90919063ffffffff16565b905080359350611f40600382611f8e90919063ffffffff16565b9050803592508362ffffff1695508263ffffffff16945050505050915091565b6000611f6f8360000183611fa4565b905092915050565b6000611f868360000183612014565b905092915050565b60008183611f9c919061385e565b905092915050565b6000611fb08383612128565b61200957826000018290806001815401808255809150506001900390600052602060002001600090919091909150558260000180549050836001016000848152602001908152602001600020819055506001905061200e565b600090505b92915050565b6000808360010160008481526020019081526020016000205490506000811461211c576000600182612046919061385e565b905060006001866000018054905061205e919061385e565b90508181146120cd57600086600001828154811061207f5761207e612e85565b5b90600052602060002001549050808760000184815481106120a3576120a2612e85565b5b90600052602060002001819055508387600101600083815260200190815260200160002081905550505b856000018054806120e1576120e0613bdf565b5b600190038181906000526020600020016000905590558560010160008681526020019081526020016000206000905560019350505050612122565b60009150505b92915050565b600080836001016000848152602001908152602001600020541415905092915050565b6040518060800160405280606081526020016060815260200160608152602001606081525090565b6000604051905090565b600080fd5b600080fd5b600080fd5b6000601f19601f8301169050919050565b7f4e487b7100000000000000000000000000000000000000000000000000000000600052604160045260246000fd5b6121d58261218c565b810181811067ffffffffffffffff821117156121f4576121f361219d565b5b80604052505050565b6000612207612173565b905061221382826121cc565b919050565b600067ffffffffffffffff8211156122335761223261219d565b5b602082029050602081019050919050565b600080fd5b6000819050919050565b61225c81612249565b811461226757600080fd5b50565b60008135905061227981612253565b92915050565b600061229261228d84612218565b6121fd565b905080838252602082019050602084028301858111156122b5576122b4612244565b5b835b818110156122de57806122ca888261226a565b8452602084019350506020810190506122b7565b5050509392505050565b600082601f8301126122fd576122fc612187565b5b813561230d84826020860161227f565b91505092915050565b60006020828403121561232c5761232b61217d565b5b600082013567ffffffffffffffff81111561234a57612349612182565b5b612356848285016122e8565b91505092915050565b600081519050919050565b600082825260208201905092915050565b6000819050602082019050919050565b6000819050919050565b61239e8161238b565b82525050565b60006123b08383612395565b60208301905092915050565b6000602082019050919050565b60006123d48261235f565b6123de818561236a565b93506123e98361237b565b8060005b8381101561241a57815161240188826123a4565b975061240c836123bc565b9250506001810190506123ed565b5085935050505092915050565b6000602082019050818103600083015261244181846123c9565b905092915050565b60006020828403121561245f5761245e61217d565b5b600061246d8482850161226a565b91505092915050565b61247f8161238b565b82525050565b600060208201905061249a6000830184612476565b92915050565b6124a98161238b565b81146124b457600080fd5b50565b6000813590506124c6816124a0565b92915050565b60008060008060008060c087890312156124e9576124e861217d565b5b60006124f789828a0161226a565b965050602061250889828a0161226a565b955050604061251989828a016124b7565b945050606061252a89828a016124b7565b935050608061253b89828a016124b7565b92505060a061254c89828a016124b7565b9150509295509295509295565b600073ffffffffffffffffffffffffffffffffffffffff82169050919050565b600061258482612559565b9050919050565b61259481612579565b82525050565b60006020820190506125af600083018461258b565b92915050565b600067ffffffffffffffff8211156125d0576125cf61219d565b5b602082029050602081019050919050565b600080fd5b600080fd5b600060408284031215612601576126006125e1565b5b61260b60406121fd565b9050600061261b8482850161226a565b600083015250602061262f848285016124b7565b60208301525092915050565b600061264e612649846125b5565b6121fd565b9050808382526020820190506040840283018581111561267157612670612244565b5b835b8181101561269a578061268688826125eb565b845260208401935050604081019050612673565b5050509392505050565b600082601f8301126126b9576126b8612187565b5b81356126c984826020860161263b565b91505092915050565b6000806000606084860312156126eb576126ea61217d565b5b600084013567ffffffffffffffff81111561270957612708612182565b5b612715868287016126a4565b935050602084013567ffffffffffffffff81111561273657612735612182565b5b612742868287016126a4565b925050604084013567ffffffffffffffff81111561276357612762612182565b5b61276f868287016126a4565b9150509250925092565b600081519050919050565b600082825260208201905092915050565b60005b838110156127b3578082015181840152602081019050612798565b60008484015250505050565b60006127ca82612779565b6127d48185612784565b93506127e4818560208601612795565b6127ed8161218c565b840191505092915050565b6000602082019050818103600083015261281281846127bf565b905092915050565b600081519050919050565b600082825260208201905092915050565b6000819050602082019050919050565b61284f81612249565b82525050565b60408201600082015161286b6000850182612846565b50602082015161287e6020850182612395565b50505050565b60006128908383612855565b60408301905092915050565b6000602082019050919050565b60006128b48261281a565b6128be8185612825565b93506128c983612836565b8060005b838110156128fa5781516128e18882612884565b97506128ec8361289c565b9250506001810190506128cd565b5085935050505092915050565b6000608083016000830151848203600086015261292482826128a9565b9150506020830151848203602086015261293e82826128a9565b9150506040830151848203604086015261295882826128a9565b9150506060830151848203606086015261297282826128a9565b9150508091505092915050565b600060208201905081810360008301526129998184612907565b905092915050565b600080600080600060a086880312156129bd576129bc61217d565b5b60006129cb8882890161226a565b95505060206129dc8882890161226a565b94505060406129ed888289016124b7565b93505060606129fe888289016124b7565b9250506080612a0f888289016124b7565b9150509295509295909350565b600080fd5b600067ffffffffffffffff821115612a3c57612a3b61219d565b5b612a458261218c565b9050602081019050919050565b82818337600083830152505050565b6000612a74612a6f84612a21565b6121fd565b905082815260208101848484011115612a9057612a8f612a1c565b5b612a9b848285612a52565b509392505050565b600082601f830112612ab857612ab7612187565b5b8135612ac8848260208601612a61565b91505092915050565b600060208284031215612ae757612ae661217d565b5b600082013567ffffffffffffffff811115612b0557612b04612182565b5b612b1184828501612aa3565b91505092915050565b612b2381612249565b82525050565b6000602082019050612b3e6000830184612b1a565b92915050565b60008060008060808587031215612b5e57612b5d61217d565b5b6000612b6c8782880161226a565b9450506020612b7d8782880161226a565b9350506040612b8e878288016124b7565b9250506060612b9f878288016124b7565b91505092959194509250565b600081519050919050565b600082825260208201905092915050565b6000819050602082019050919050565b6000612be38383612846565b60208301905092915050565b6000602082019050919050565b6000612c0782612bab565b612c118185612bb6565b9350612c1c83612bc7565b8060005b83811015612c4d578151612c348882612bd7565b9750612c3f83612bef565b925050600181019050612c20565b5085935050505092915050565b60006020820190508181036000830152612c748184612bfc565b905092915050565b600067ffffffffffffffff821115612c9757612c9661219d565b5b602082029050602081019050919050565b600081519050612cb7816124a0565b92915050565b6000612cd0612ccb84612c7c565b6121fd565b90508083825260208201905060208402830185811115612cf357612cf2612244565b5b835b81811015612d1c5780612d088882612ca8565b845260208401935050602081019050612cf5565b5050509392505050565b600082601f830112612d3b57612d3a612187565b5b8151612d4b848260208601612cbd565b91505092915050565b600060208284031215612d6a57612d6961217d565b5b600082015167ffffffffffffffff811115612d8857612d87612182565b5b612d9484828501612d26565b91505092915050565b600060208284031215612db357612db261217d565b5b6000612dc184828501612ca8565b91505092915050565b600082825260208201905092915050565b6000612de68261281a565b612df08185612dca565b9350612dfb83612836565b8060005b83811015612e2c578151612e138882612884565b9750612e1e8361289c565b925050600181019050612dff565b5085935050505092915050565b60006060820190508181036000830152612e538186612ddb565b90508181036020830152612e678185612ddb565b90508181036040830152612e7b8184612ddb565b9050949350505050565b7f4e487b7100000000000000000000000000000000000000000000000000000000600052603260045260246000fd5b7f4e487b7100000000000000000000000000000000000000000000000000000000600052601160045260246000fd5b600060ff82169050919050565b6000612efb82612ee3565b915060ff8203612f0e57612f0d612eb4565b5b600182019050919050565b600081519050612f2881612253565b92915050565b600060408284031215612f4457612f436125e1565b5b612f4e60406121fd565b90506000612f5e84828501612f19565b6000830152506020612f7284828501612ca8565b60208301525092915050565b6000612f91612f8c846125b5565b6121fd565b90508083825260208201905060408402830185811115612fb457612fb3612244565b5b835b81811015612fdd5780612fc98882612f2e565b845260208401935050604081019050612fb6565b5050509392505050565b600082601f830112612ffc57612ffb612187565b5b815161300c848260208601612f7e565b91505092915050565b60006080828403121561302b5761302a6125e1565b5b61303560806121fd565b9050600082015167ffffffffffffffff811115613055576130546125e6565b5b61306184828501612fe7565b600083015250602082015167ffffffffffffffff811115613085576130846125e6565b5b61309184828501612fe7565b602083015250604082015167ffffffffffffffff8111156130b5576130b46125e6565b5b6130c184828501612fe7565b604083015250606082015167ffffffffffffffff8111156130e5576130e46125e6565b5b6130f184828501612fe7565b60608301525092915050565b6000602082840312156131135761311261217d565b5b600082015167ffffffffffffffff81111561313157613130612182565b5b61313d84828501613015565b91505092915050565b60007fffffffff0000000000000000000000000000000000000000000000000000000082169050919050565b61317b81613146565b82525050565b60006020820190506131966000830184613172565b92915050565b6131a581612579565b81146131b057600080fd5b50565b6000815190506131c28161319c565b92915050565b6000602082840312156131de576131dd61217d565b5b60006131ec848285016131b3565b91505092915050565b600081519050919050565b600081905092915050565b6000613216826131f5565b6132208185613200565b9350613230818560208601612795565b80840191505092915050565b6000613248828461320b565b915081905092915050565b7f4469616d6f6e6453746f726167654c69623a204d75737420626520636f6e747260008201527f616374206f776e65720000000000000000000000000000000000000000000000602082015250565b60006132af602983612784565b91506132ba82613253565b604082019050919050565b600060208201905081810360008301526132de816132a2565b9050919050565b7f4e6f7420656e6f75676820746f6b656e4120746f2070726f7669646500000000600082015250565b600061331b601c83612784565b9150613326826132e5565b602082019050919050565b6000602082019050818103600083015261334a8161330e565b9050919050565b7f4e6f7420656e6f75676820746f6b656e4220746f2070726f7669646500000000600082015250565b6000613387601c83612784565b915061339282613351565b602082019050919050565b600060208201905081810360008301526133b68161337a565b9050919050565b600060c0820190506133d2600083018961258b565b6133df602083018861258b565b6133ec6040830187612476565b6133f96060830186612476565b6134066080830185612476565b61341360a0830184612476565b979650505050505050565b600080600080608085870312156134385761343761217d565b5b6000613446878288016131b3565b945050602061345787828801612ca8565b935050604061346887828801612ca8565b925050606061347987828801612ca8565b91505092959194509250565b600081905092915050565b600061349b82612779565b6134a58185613485565b93506134b5818560208601612795565b80840191505092915050565b7f5f00000000000000000000000000000000000000000000000000000000000000815250565b7f5f4c500000000000000000000000000000000000000000000000000000000000815250565b60006135198286613490565b9150613524826134c1565b6001820191506135348285613490565b915061353f826134c1565b60018201915061354f8284613490565b915061355a826134e7565b600382019150819050949350505050565b600060c0820190506135806000830189612b1a565b61358d6020830188612b1a565b61359a6040830187612476565b6135a76060830186612476565b6135b46080830185612476565b6135c160a0830184612476565b979650505050505050565b7f54686520616374696f6e206d617920636175736520616e206163636f756e742060008201527f746f206265636f6d6520696e736f6c76656e7400000000000000000000000000602082015250565b6000613628603383612784565b9150613633826135cc565b604082019050919050565b600060208201905081810360008301526136578161361b565b9050919050565b6000604082019050613673600083018561258b565b613680602083018461258b565b9392505050565b600060a08201905061369c600083018861258b565b6136a9602083018761258b565b6136b66040830186612476565b6136c36060830185612476565b6136d06080830184612476565b9695505050505050565b600080604083850312156136f1576136f061217d565b5b60006136ff85828601612ca8565b925050602061371085828601612ca8565b9150509250929050565b60006137268286613490565b9150613731826134c1565b6001820191506137418285613490565b915061374c826134c1565b60018201915061375c8284613490565b9150819050949350505050565b7f4e6f7420656e6f75676820746f6b656e20746f2073656c6c0000000000000000600082015250565b600061379f601883612784565b91506137aa82613769565b602082019050919050565b600060208201905081810360008301526137ce81613792565b9050919050565b60006080820190506137ea600083018761258b565b6137f7602083018661258b565b6138046040830185612476565b6138116060830184612476565b95945050505050565b60008115159050919050565b61382f8161381a565b82525050565b600060408201905061384a6000830185612b1a565b6138576020830184613826565b9392505050565b60006138698261238b565b91506138748361238b565b925082820390508181111561388c5761388b612eb4565b5b92915050565b60006060820190506138a76000830186612476565b6138b46020830185612476565b6138c16040830184612476565b949350505050565b60006138d48261238b565b91506138df8361238b565b92508282019050808211156138f7576138f6612eb4565b5b92915050565b600082825260208201905092915050565b6000613919826131f5565b61392381856138fd565b9350613933818560208601612795565b61393c8161218c565b840191505092915050565b60006020820190508181036000830152613961818461390e565b905092915050565b600060408201905061397e600083018561258b565b61398b6020830184612476565b9392505050565b61399b8161381a565b81146139a657600080fd5b50565b6000815190506139b881613992565b92915050565b6000602082840312156139d4576139d361217d565b5b60006139e2848285016139a9565b91505092915050565b7f5472616e7366657248656c7065723a3a736166655472616e736665723a20747260008201527f616e73666572206661696c656400000000000000000000000000000000000000602082015250565b6000613a47602d83612784565b9150613a52826139eb565b604082019050919050565b60006020820190508181036000830152613a7681613a3a565b9050919050565b7f53796d626f6c2063616e6e6f7420626520656d70747900000000000000000000600082015250565b6000613ab3601683612784565b9150613abe82613a7d565b602082019050919050565b60006020820190508181036000830152613ae281613aa6565b9050919050565b7f496e76616c696420416464726573735a65726f00000000000000000000000000600082015250565b6000613b1f601383612784565b9150613b2a82613ae9565b602082019050919050565b60006020820190508181036000830152613b4e81613b12565b9050919050565b6000613b608261238b565b91507fffffffffffffffffffffffffffffffffffffffffffffffffffffffffffffffff8203613b9257613b91612eb4565b5b600182019050919050565b6000613ba88261238b565b9150613bb38361238b565b9250828202613bc18161238b565b91508282048414831517613bd857613bd7612eb4565b5b5092915050565b7f4e487b7100000000000000000000000000000000000000000000000000000000600052603160045260246000fdfea2646970667358221220d783311e1aeac51eab692578ab91a8e0eb96f371c5e06eb9314cb41e27e1f58764736f6c63430008110033",
  "devdoc": {
    "kind": "dev",
    "methods": {
      "swapTraderJoe(bytes32,bytes32,uint256,uint256)": {
        "details": "This function uses the redstone-evm-connector",
        "params": {
          "_boughtAsset": "asset to be bought",
          "_exactSold": "exact amount of asset to be sold",
          "_minimumBought": "minimum amount of asset to be bought*",
          "_soldAsset": "asset to be sold"
        }
      }
    },
    "version": 1
  },
  "userdoc": {
    "kind": "user",
    "methods": {
      "getExchangeIntermediaryContract()": {
        "notice": "Returns address of UniswapV2-like exchange*"
      },
      "swapTraderJoe(bytes32,bytes32,uint256,uint256)": {
        "notice": "Swaps one asset to another"
      }
    },
    "version": 1
  },
  "storageLayout": {
    "storage": [
      {
        "astId": 9549,
        "contract": "contracts/facets/avalanche/TraderJoeDEXFacet.sol:TraderJoeDEXFacet",
        "label": "_status",
        "offset": 0,
        "slot": "0",
        "type": "t_uint256"
      }
    ],
    "types": {
      "t_uint256": {
        "encoding": "inplace",
        "label": "uint256",
        "numberOfBytes": "32"
      }
    }
  }
}