{
  "address": "0x5c8DC4634F59A99d420ceCcB00f7c7f44267459F",
  "abi": [
    {
      "inputs": [],
      "name": "CalldataMustHaveValidPayload",
      "type": "error"
    },
    {
      "inputs": [],
      "name": "CalldataOverOrUnderFlow",
      "type": "error"
    },
    {
      "inputs": [],
      "name": "EachSignerMustProvideTheSameValue",
      "type": "error"
    },
    {
      "inputs": [],
      "name": "EmptyCalldataPointersArr",
      "type": "error"
    },
    {
      "inputs": [],
      "name": "IncorrectUnsignedMetadataSize",
      "type": "error"
    },
    {
      "inputs": [
        {
          "internalType": "uint256",
          "name": "receviedSignersCount",
          "type": "uint256"
        },
        {
          "internalType": "uint256",
          "name": "requiredSignersCount",
          "type": "uint256"
        }
      ],
      "name": "InsufficientNumberOfUniqueSigners",
      "type": "error"
    },
    {
      "inputs": [],
      "name": "InvalidCalldataPointer",
      "type": "error"
    },
    {
      "inputs": [
        {
          "internalType": "bytes",
          "name": "result",
          "type": "bytes"
        }
      ],
      "name": "ProxyCalldataFailedWithCustomError",
      "type": "error"
    },
    {
      "inputs": [
        {
          "internalType": "string",
          "name": "message",
          "type": "string"
        }
      ],
      "name": "ProxyCalldataFailedWithStringMessage",
      "type": "error"
    },
    {
      "inputs": [],
      "name": "ProxyCalldataFailedWithoutErrMsg",
      "type": "error"
    },
    {
      "inputs": [
        {
          "internalType": "address",
          "name": "receivedSigner",
          "type": "address"
        }
      ],
      "name": "SignerNotAuthorised",
      "type": "error"
    },
    {
      "anonymous": false,
      "inputs": [
        {
          "indexed": true,
          "internalType": "address",
          "name": "user",
          "type": "address"
        },
        {
          "indexed": true,
          "internalType": "bytes32",
          "name": "asset",
          "type": "bytes32"
        },
        {
          "indexed": true,
          "internalType": "address",
          "name": "vault",
          "type": "address"
        },
        {
          "indexed": false,
          "internalType": "uint256",
          "name": "amount",
          "type": "uint256"
        },
        {
          "indexed": false,
          "internalType": "uint256",
          "name": "timestamp",
          "type": "uint256"
        }
      ],
      "name": "Staked",
      "type": "event"
    },
    {
      "anonymous": false,
      "inputs": [
        {
          "indexed": true,
          "internalType": "address",
          "name": "user",
          "type": "address"
        },
        {
          "indexed": true,
          "internalType": "bytes32",
          "name": "asset",
          "type": "bytes32"
        },
        {
          "indexed": true,
          "internalType": "address",
          "name": "vault",
          "type": "address"
        },
        {
          "indexed": false,
          "internalType": "uint256",
          "name": "amount",
          "type": "uint256"
        },
        {
          "indexed": false,
          "internalType": "uint256",
          "name": "timestamp",
          "type": "uint256"
        }
      ],
      "name": "Unstaked",
      "type": "event"
    },
    {
      "anonymous": false,
      "inputs": [
        {
          "indexed": true,
          "internalType": "address",
          "name": "user",
          "type": "address"
        },
        {
          "indexed": true,
          "internalType": "address",
          "name": "asset",
          "type": "address"
        },
        {
          "indexed": false,
          "internalType": "uint256",
          "name": "timestamp",
          "type": "uint256"
        }
      ],
      "name": "UnsupportedRewardToken",
      "type": "event"
    },
    {
      "inputs": [
        {
          "internalType": "bytes32[]",
          "name": "assetsToRepay",
          "type": "bytes32[]"
        }
      ],
      "name": "_getAllPricesForLiquidation",
      "outputs": [
        {
          "components": [
            {
              "components": [
                {
                  "internalType": "bytes32",
                  "name": "asset",
                  "type": "bytes32"
                },
                {
                  "internalType": "uint256",
                  "name": "price",
                  "type": "uint256"
                }
              ],
              "internalType": "struct SolvencyFacetProd.AssetPrice[]",
              "name": "ownedAssetsPrices",
              "type": "tuple[]"
            },
            {
              "components": [
                {
                  "internalType": "bytes32",
                  "name": "asset",
                  "type": "bytes32"
                },
                {
                  "internalType": "uint256",
                  "name": "price",
                  "type": "uint256"
                }
              ],
              "internalType": "struct SolvencyFacetProd.AssetPrice[]",
              "name": "debtAssetsPrices",
              "type": "tuple[]"
            },
            {
              "components": [
                {
                  "internalType": "bytes32",
                  "name": "asset",
                  "type": "bytes32"
                },
                {
                  "internalType": "uint256",
                  "name": "price",
                  "type": "uint256"
                }
              ],
              "internalType": "struct SolvencyFacetProd.AssetPrice[]",
              "name": "stakedPositionsPrices",
              "type": "tuple[]"
            },
            {
              "components": [
                {
                  "internalType": "bytes32",
                  "name": "asset",
                  "type": "bytes32"
                },
                {
                  "internalType": "uint256",
                  "name": "price",
                  "type": "uint256"
                }
              ],
              "internalType": "struct SolvencyFacetProd.AssetPrice[]",
              "name": "assetsToRepayPrices",
              "type": "tuple[]"
            }
          ],
          "internalType": "struct SolvencyFacetProd.CachedPrices",
          "name": "result",
          "type": "tuple"
        }
      ],
      "stateMutability": "nonpayable",
      "type": "function"
    },
    {
      "inputs": [],
      "name": "_getHealthRatio",
      "outputs": [
        {
          "internalType": "uint256",
          "name": "health",
          "type": "uint256"
        }
      ],
      "stateMutability": "nonpayable",
      "type": "function"
    },
    {
      "inputs": [
        {
          "components": [
            {
              "internalType": "bytes32",
              "name": "asset",
              "type": "bytes32"
            },
            {
              "internalType": "uint256",
              "name": "price",
              "type": "uint256"
            }
          ],
          "internalType": "struct SolvencyFacetProd.AssetPrice[]",
          "name": "ownedAssetsPrices",
          "type": "tuple[]"
        },
        {
          "components": [
            {
              "internalType": "bytes32",
              "name": "asset",
              "type": "bytes32"
            },
            {
              "internalType": "uint256",
              "name": "price",
              "type": "uint256"
            }
          ],
          "internalType": "struct SolvencyFacetProd.AssetPrice[]",
          "name": "debtAssetsPrices",
          "type": "tuple[]"
        },
        {
          "components": [
            {
              "internalType": "bytes32",
              "name": "asset",
              "type": "bytes32"
            },
            {
              "internalType": "uint256",
              "name": "price",
              "type": "uint256"
            }
          ],
          "internalType": "struct SolvencyFacetProd.AssetPrice[]",
          "name": "stakedPositionsPrices",
          "type": "tuple[]"
        }
      ],
      "name": "_getHealthRatioWithPrices",
      "outputs": [
        {
          "internalType": "uint256",
          "name": "health",
          "type": "uint256"
        }
      ],
      "stateMutability": "nonpayable",
      "type": "function"
    },
    {
      "inputs": [
        {
          "internalType": "bytes32",
          "name": "symbol",
          "type": "bytes32"
        }
      ],
      "name": "getPrice",
      "outputs": [
        {
          "internalType": "uint256",
          "name": "price",
          "type": "uint256"
        }
      ],
      "stateMutability": "nonpayable",
      "type": "function"
    },
    {
      "inputs": [
        {
          "internalType": "bytes32[]",
          "name": "symbols",
          "type": "bytes32[]"
        }
      ],
      "name": "getPrices",
      "outputs": [
        {
          "internalType": "uint256[]",
          "name": "prices",
          "type": "uint256[]"
        }
      ],
      "stateMutability": "nonpayable",
      "type": "function"
    },
    {
      "inputs": [],
      "name": "vectorSAVAX1Balance",
      "outputs": [
        {
          "internalType": "uint256",
          "name": "_stakedBalance",
          "type": "uint256"
        }
      ],
      "stateMutability": "view",
      "type": "function"
    },
    {
      "inputs": [
        {
          "internalType": "uint256",
          "name": "amount",
          "type": "uint256"
        }
      ],
      "name": "vectorStakeSAVAX1",
      "outputs": [],
      "stateMutability": "nonpayable",
      "type": "function"
    },
    {
      "inputs": [
        {
          "internalType": "uint256",
          "name": "amount",
          "type": "uint256"
        }
      ],
      "name": "vectorStakeUSDC1",
      "outputs": [],
      "stateMutability": "nonpayable",
      "type": "function"
    },
    {
      "inputs": [
        {
          "internalType": "uint256",
          "name": "amount",
          "type": "uint256"
        }
      ],
      "name": "vectorStakeUSDC2",
      "outputs": [],
      "stateMutability": "nonpayable",
      "type": "function"
    },
    {
      "inputs": [
        {
          "internalType": "uint256",
          "name": "amount",
          "type": "uint256"
        }
      ],
      "name": "vectorStakeWAVAX1",
      "outputs": [],
      "stateMutability": "nonpayable",
      "type": "function"
    },
    {
      "inputs": [],
      "name": "vectorUSDC1Balance",
      "outputs": [
        {
          "internalType": "uint256",
          "name": "_stakedBalance",
          "type": "uint256"
        }
      ],
      "stateMutability": "view",
      "type": "function"
    },
    {
      "inputs": [],
      "name": "vectorUSDC2Balance",
      "outputs": [
        {
          "internalType": "uint256",
          "name": "_stakedBalance",
          "type": "uint256"
        }
      ],
      "stateMutability": "view",
      "type": "function"
    },
    {
      "inputs": [
        {
          "internalType": "uint256",
          "name": "amount",
          "type": "uint256"
        },
        {
          "internalType": "uint256",
          "name": "minAmount",
          "type": "uint256"
        }
      ],
      "name": "vectorUnstakeSAVAX1",
      "outputs": [],
      "stateMutability": "nonpayable",
      "type": "function"
    },
    {
      "inputs": [
        {
          "internalType": "uint256",
          "name": "amount",
          "type": "uint256"
        },
        {
          "internalType": "uint256",
          "name": "minAmount",
          "type": "uint256"
        }
      ],
      "name": "vectorUnstakeUSDC1",
      "outputs": [],
      "stateMutability": "nonpayable",
      "type": "function"
    },
    {
      "inputs": [
        {
          "internalType": "uint256",
          "name": "amount",
          "type": "uint256"
        },
        {
          "internalType": "uint256",
          "name": "minAmount",
          "type": "uint256"
        }
      ],
      "name": "vectorUnstakeUSDC2",
      "outputs": [],
      "stateMutability": "nonpayable",
      "type": "function"
    },
    {
      "inputs": [
        {
          "internalType": "uint256",
          "name": "amount",
          "type": "uint256"
        },
        {
          "internalType": "uint256",
          "name": "minAmount",
          "type": "uint256"
        }
      ],
      "name": "vectorUnstakeWAVAX1",
      "outputs": [],
      "stateMutability": "nonpayable",
      "type": "function"
    },
    {
      "inputs": [],
      "name": "vectorWAVAX1Balance",
      "outputs": [
        {
          "internalType": "uint256",
          "name": "_stakedBalance",
          "type": "uint256"
        }
      ],
      "stateMutability": "view",
      "type": "function"
    }
  ],
  "transactionHash": "0xd98f68b0d1cac3022507c78f467c7c394f2734c3f7c91cf378dd8d23f4a7ea2e",
  "args": [],
  "numDeployments": 1,
  "solcInputHash": "df3ad5bdcd0ec16bf72ca3adff085c61",
  "bytecode": "0x608060405234801561001057600080fd5b5060016000819055506140ed806100286000396000f3fe608060405234801561001057600080fd5b506004361061010b5760003560e01c80636e93de92116100a2578063b2d40e7311610071578063b2d40e73146102a2578063df83c56f146102d2578063e9bab0b6146102ee578063e9ebb39b1461030a578063fde8b496146103285761010b565b80636e93de921461021c5780638f7ef1f5146102385780639ae0870d14610268578063a935279c146102865761010b565b806339e2719e116100de57806339e2719e146101aa5780633e80dfc9146101c85780633ff2d8d3146101e4578063422c4bb4146102005761010b565b80631b0285671461011057806326ee48361461012c5780632fbe31291461015c57806331d98b3f1461017a575b600080fd5b61012a60048036038101906101259190612a2e565b610346565b005b61014660048036038101906101419190612bea565b61045a565b6040516101539190612cf1565b60405180910390f35b610164610504565b6040516101719190612d22565b60405180910390f35b610194600480360381019061018f9190612d3d565b61059e565b6040516101a19190612d22565b60405180910390f35b6101b2610648565b6040516101bf9190612d22565b60405180910390f35b6101e260048036038101906101dd9190612d6a565b6106e5565b005b6101fe60048036038101906101f99190612d6a565b610747565b005b61021a60048036038101906102159190612d6a565b6107a9565b005b61023660048036038101906102319190612a2e565b61080b565b005b610252600480360381019061024d9190612ec7565b61091f565b60405161025f9190612d22565b60405180910390f35b6102706109cf565b60405161027d9190612d22565b60405180910390f35b6102a0600480360381019061029b9190612a2e565b610a69565b005b6102bc60048036038101906102b79190612bea565b610b7d565b6040516102c991906130d3565b60405180910390f35b6102ec60048036038101906102e79190612a2e565b610c2d565b005b61030860048036038101906103039190612d6a565b610d41565b005b610312610da3565b60405161031f9190612d22565b60405180910390f35b610330610e3d565b60405161033d9190612d22565b60405180910390f35b60006040518060800160405280737550b2d6a1f039dd6a3d54a857fefcbf77213d8073ffffffffffffffffffffffffffffffffffffffff1681526020017f5553444300000000000000000000000000000000000000000000000000000000815260200163e9ebb39b60e01b7bffffffffffffffffffffffffffffffffffffffffffffffffffffffff19168152602001633e80dfc960e01b7bffffffffffffffffffffffffffffffffffffffffffffffffffffffff191681525090506104567f555344430000000000000000000000000000000000000000000000000000000073b97ef9ef8734c71904d8002f8b6bc66dd9c48a6e737550b2d6a1f039dd6a3d54a857fefcbf77213d808585610ed7565b5050565b60606104ea61046f6326ee483660e01b61129e565b6326ee483660e01b8460405160240161048891906131a4565b604051602081830303815290604052907bffffffffffffffffffffffffffffffffffffffffffffffffffffffff19166020820180517bffffffffffffffffffffffffffffffffffffffffffffffffffffffff8381831617835250505050611328565b8060200190518101906104fd919061329e565b9050919050565b60008073ff5386af93cf4bd8d5aecad6df7f4f4be381fd6990508073ffffffffffffffffffffffffffffffffffffffff1663e3d670d7306040518263ffffffff1660e01b81526004016105579190613328565b602060405180830381865afa158015610574573d6000803e3d6000fd5b505050506040513d601f19601f820116820180604052508101906105989190613343565b91505090565b600061062e6105b36331d98b3f60e01b61129e565b6331d98b3f60e01b846040516024016105cc919061337f565b604051602081830303815290604052907bffffffffffffffffffffffffffffffffffffffffffffffffffffffff19166020820180517bffffffffffffffffffffffffffffffffffffffffffffffffffffffff8381831617835250505050611328565b8060200190518101906106419190613343565b9050919050565b60006106cd61065d637914334f60e01b61129e565b637914334f60e01b604051602401604051602081830303815290604052907bffffffffffffffffffffffffffffffffffffffffffffffffffffffff19166020820180517bffffffffffffffffffffffffffffffffffffffffffffffffffffffff8381831617835250505050611328565b8060200190518101906106e09190613343565b905090565b6107427f555344430000000000000000000000000000000000000000000000000000000073b97ef9ef8734c71904d8002f8b6bc66dd9c48a6e737550b2d6a1f039dd6a3d54a857fefcbf77213d808585633e80dfc960e01b6113b9565b505050565b6107a47f415641580000000000000000000000000000000000000000000000000000000073b31f66aa3c1e785363f0875a1b74e27b85fd66c773ff5386af93cf4bd8d5aecad6df7f4f4be381fd698585633ff2d8d360e01b6113b9565b505050565b6108067f555344430000000000000000000000000000000000000000000000000000000073b97ef9ef8734c71904d8002f8b6bc66dd9c48a6e73da9e515ce714c4309f7c4483f4802556ae5df396858563422c4bb460e01b6113b9565b505050565b6000604051806080016040528073da9e515ce714c4309f7c4483f4802556ae5df39673ffffffffffffffffffffffffffffffffffffffff1681526020017f5553444300000000000000000000000000000000000000000000000000000000815260200163fde8b49660e01b7bffffffffffffffffffffffffffffffffffffffffffffffffffffffff1916815260200163422c4bb460e01b7bffffffffffffffffffffffffffffffffffffffffffffffffffffffff1916815250905061091b7f555344430000000000000000000000000000000000000000000000000000000073b97ef9ef8734c71904d8002f8b6bc66dd9c48a6e73da9e515ce714c4309f7c4483f4802556ae5df3968585610ed7565b5050565b60006109b3610934630d742f6960e01b61129e565b630d742f6960e01b86868660405160240161095193929190613409565b604051602081830303815290604052907bffffffffffffffffffffffffffffffffffffffffffffffffffffffff19166020820180517bffffffffffffffffffffffffffffffffffffffffffffffffffffffff8381831617835250505050611328565b8060200190518101906109c69190613343565b90509392505050565b60008073812b7c3b5a9164270dd8a0b3bc47550877aecdb190508073ffffffffffffffffffffffffffffffffffffffff1663e3d670d7306040518263ffffffff1660e01b8152600401610a229190613328565b602060405180830381865afa158015610a3f573d6000803e3d6000fd5b505050506040513d601f19601f82011682018060405250810190610a639190613343565b91505090565b6000604051806080016040528073ff5386af93cf4bd8d5aecad6df7f4f4be381fd6973ffffffffffffffffffffffffffffffffffffffff1681526020017f41564158000000000000000000000000000000000000000000000000000000008152602001632fbe312960e01b7bffffffffffffffffffffffffffffffffffffffffffffffffffffffff19168152602001633ff2d8d360e01b7bffffffffffffffffffffffffffffffffffffffffffffffffffffffff19168152509050610b797f415641580000000000000000000000000000000000000000000000000000000073b31f66aa3c1e785363f0875a1b74e27b85fd66c773ff5386af93cf4bd8d5aecad6df7f4f4be381fd698585610ed7565b5050565b610b856129bc565b610c13610b9863a3aa8d1e60e01b61129e565b63a3aa8d1e60e01b84604051602401610bb191906131a4565b604051602081830303815290604052907bffffffffffffffffffffffffffffffffffffffffffffffffffffffff19166020820180517bffffffffffffffffffffffffffffffffffffffffffffffffffffffff8381831617835250505050611328565b806020019051810190610c269190613639565b9050919050565b6000604051806080016040528073812b7c3b5a9164270dd8a0b3bc47550877aecdb173ffffffffffffffffffffffffffffffffffffffff1681526020017f73415641580000000000000000000000000000000000000000000000000000008152602001639ae0870d60e01b7bffffffffffffffffffffffffffffffffffffffffffffffffffffffff1916815260200163e9bab0b660e01b7bffffffffffffffffffffffffffffffffffffffffffffffffffffffff19168152509050610d3d7f7341564158000000000000000000000000000000000000000000000000000000732b2c81e08f1af8835a78bb2a90ae924ace0ea4be73812b7c3b5a9164270dd8a0b3bc47550877aecdb18585610ed7565b5050565b610d9e7f7341564158000000000000000000000000000000000000000000000000000000732b2c81e08f1af8835a78bb2a90ae924ace0ea4be73812b7c3b5a9164270dd8a0b3bc47550877aecdb1858563e9bab0b660e01b6113b9565b505050565b600080737550b2d6a1f039dd6a3d54a857fefcbf77213d8090508073ffffffffffffffffffffffffffffffffffffffff1663e3d670d7306040518263ffffffff1660e01b8152600401610df69190613328565b602060405180830381865afa158015610e13573d6000803e3d6000fd5b505050506040513d601f19601f82011682018060405250810190610e379190613343565b91505090565b60008073da9e515ce714c4309f7c4483f4802556ae5df39690508073ffffffffffffffffffffffffffffffffffffffff1663e3d670d7306040518263ffffffff1660e01b8152600401610e909190613328565b602060405180830381865afa158015610ead573d6000803e3d6000fd5b505050506040513d601f19601f82011682018060405250810190610ed19190613343565b91505090565b610edf61183b565b6000610ee96118d6565b90506002816000015403610f32576040517f08c379a0000000000000000000000000000000000000000000000000000000008152600401610f29906136df565b60405180910390fd5b6002816000018190555060008311610f7f576040517f08c379a0000000000000000000000000000000000000000000000000000000008152600401610f769061374b565b60405180910390fd5b828573ffffffffffffffffffffffffffffffffffffffff166370a08231306040518263ffffffff1660e01b8152600401610fb99190613328565b602060405180830381865afa158015610fd6573d6000803e3d6000fd5b505050506040513d601f19601f82011682018060405250810190610ffa9190613343565b101561103b576040517f08c379a0000000000000000000000000000000000000000000000000000000008152600401611032906137b7565b60405180910390fd5b8473ffffffffffffffffffffffffffffffffffffffff1663095ea7b3738b3d9f0017fa369cd8c164d0cc078bf4ca588ae5856040518363ffffffff1660e01b815260040161108a9291906137d7565b6020604051808303816000875af11580156110a9573d6000803e3d6000fd5b505050506040513d601f19601f820116820180604052508101906110cd9190613838565b508373ffffffffffffffffffffffffffffffffffffffff1663b6b55f25846040518263ffffffff1660e01b81526004016111079190612d22565b600060405180830381600087803b15801561112157600080fd5b505af1158015611135573d6000803e3d6000fd5b5050505061114282611903565b600061114f876001611a87565b905060008173ffffffffffffffffffffffffffffffffffffffff166370a08231306040518263ffffffff1660e01b815260040161118c9190613328565b602060405180830381865afa1580156111a9573d6000803e3d6000fd5b505050506040513d601f19601f820116820180604052508101906111cd9190613343565b036111dc576111db87611b14565b5b8473ffffffffffffffffffffffffffffffffffffffff16873373ffffffffffffffffffffffffffffffffffffffff167f643de8375c3a1c76ab240fe4eda6e589cf10acfe25f67d9951ef0a7ababb6722874260405161123c929190613865565b60405180910390a45061124d611b32565b61128c576040517f08c379a000000000000000000000000000000000000000000000000000000000815260040161128390613900565b60405180910390fd5b60018160000181905550505050505050565b60006112a8611bcf565b73ffffffffffffffffffffffffffffffffffffffff16630d741577836040518263ffffffff1660e01b81526004016112e0919061395b565b602060405180830381865afa1580156112fd573d6000803e3d6000fd5b505050506040513d601f19601f8201168201806040525081019061132191906139a2565b9050919050565b6060600061133583611beb565b90506000808573ffffffffffffffffffffffffffffffffffffffff168360405161135f9190613a40565b600060405180830381855af49150503d806000811461139a576040519150601f19603f3d011682016040523d82523d6000602084013e61139f565b606091505b50915091506113ae8282611ca5565b935050505092915050565b6000806113c4611b32565b905080156113d5576113d461183b565b5b60006113df6118d6565b90506002816000015403611428576040517f08c379a000000000000000000000000000000000000000000000000000000000815260040161141f906136df565b60405180910390fd5b6002816000018190555060008611611475576040517f08c379a000000000000000000000000000000000000000000000000000000000815260040161146c90613aa3565b60405180910390fd5b600087905060008173ffffffffffffffffffffffffffffffffffffffff1663e3d670d7306040518263ffffffff1660e01b81526004016114b59190613328565b602060405180830381865afa1580156114d2573d6000803e3d6000fd5b505050506040513d601f19601f820116820180604052508101906114f69190613343565b90508781101561153b576040517f08c379a000000000000000000000000000000000000000000000000000000000815260040161153290613b35565b60405180910390fd5b60006115488c6001611a87565b905060008173ffffffffffffffffffffffffffffffffffffffff166370a08231306040518263ffffffff1660e01b81526004016115859190613328565b602060405180830381865afa1580156115a2573d6000803e3d6000fd5b505050506040513d601f19601f820116820180604052508101906115c69190613343565b90508373ffffffffffffffffffffffffffffffffffffffff1663441a3e708b8b6040518363ffffffff1660e01b8152600401611603929190613865565b600060405180830381600087803b15801561161d57600080fd5b505af1158015611631573d6000803e3d6000fd5b5050505060008273ffffffffffffffffffffffffffffffffffffffff166370a08231306040518263ffffffff1660e01b81526004016116709190613328565b602060405180830381865afa15801561168d573d6000803e3d6000fd5b505050506040513d601f19601f820116820180604052508101906116b19190613343565b905060008573ffffffffffffffffffffffffffffffffffffffff1663e3d670d7306040518263ffffffff1660e01b81526004016116ee9190613328565b602060405180830381865afa15801561170b573d6000803e3d6000fd5b505050506040513d601f19601f8201168201806040525081019061172f9190613343565b0361173e5761173d89611da5565b5b6117488e8e611ffe565b8b73ffffffffffffffffffffffffffffffffffffffff168e3373ffffffffffffffffffffffffffffffffffffffff167fb45e912aa92f8b6b5caaef25e5188ab9c924b5c90188180c3f0cdeb3273c731f85856117a49190613b84565b426040516117b3929190613865565b60405180910390a46117c4856120d0565b81816117d09190613b84565b9750505050505060018160000181905550508015611830576117f0611b32565b61182f576040517f08c379a000000000000000000000000000000000000000000000000000000000815260040161182690613c04565b60405180910390fd5b5b509695505050505050565b611843612427565b60000160009054906101000a900473ffffffffffffffffffffffffffffffffffffffff1673ffffffffffffffffffffffffffffffffffffffff163373ffffffffffffffffffffffffffffffffffffffff16146118d4576040517f08c379a00000000000000000000000000000000000000000000000000000000081526004016118cb90613c96565b60405180910390fd5b565b6000807f1c85eba10a4cf2d29c83fc15f97931886b9fd3caeb70d8c377aeedc58b919e3b90508091505090565b600061190d612454565b90506000805b82805490508110156119b55783604001517bffffffffffffffffffffffffffffffffffffffffffffffffffffffff191683828154811061195657611955613cb6565b5b906000526020600020906003020160020160009054906101000a900460e01b7bffffffffffffffffffffffffffffffffffffffffffffffffffffffff1916036119a257600191506119b5565b80806119ad90613ce5565b915050611913565b5080611a82578183908060018154018082558091505060019003906000526020600020906003020160009091909190915060008201518160000160006101000a81548173ffffffffffffffffffffffffffffffffffffffff021916908373ffffffffffffffffffffffffffffffffffffffff1602179055506020820151816001015560408201518160020160006101000a81548163ffffffff021916908360e01c021790555060608201518160020160046101000a81548163ffffffff021916908360e01c021790555050505b505050565b6000611a91612466565b73ffffffffffffffffffffffffffffffffffffffff166325eb876f84846040518363ffffffff1660e01b8152600401611acb929190613d3c565b602060405180830381865afa158015611ae8573d6000803e3d6000fd5b505050506040513d601f19601f82011682018060405250810190611b0c91906139a2565b905092915050565b6000611b1e612427565b9050611b2d8160020183612482565b505050565b6000611bb7611b47635ce2395060e01b61129e565b635ce2395060e01b604051602401604051602081830303815290604052907bffffffffffffffffffffffffffffffffffffffffffffffffffffffff19166020820180517bffffffffffffffffffffffffffffffffffffffffffffffffffffffff8381831617835250505050611328565b806020019051810190611bca9190613838565b905090565b6000737dbcb7b5019cfd15225e5adc454b864ca1b7f2d1905090565b60606000825190506000611bfd612499565b905060008183611c0d9190613d65565b90506000369050821115611c4d576040517f5796f78a00000000000000000000000000000000000000000000000000000000815260040160405180910390fd5b6060604051905081815285602001848101826020015b81831015611c805782518152602083019250602081019050611c63565b5050508283360385602001830137602084840182010160405280945050505050919050565b606082611d9c576000825103611ce7576040517f567fe27a00000000000000000000000000000000000000000000000000000000815260040160405180910390fd5b600060208301517f08c379a00000000000000000000000000000000000000000000000000000000081149150508015611d5f576060604484019050806040517f0f7e8278000000000000000000000000000000000000000000000000000000008152600401611d569190613ddd565b60405180910390fd5b826040517ffd36fde3000000000000000000000000000000000000000000000000000000008152600401611d939190613e49565b60405180910390fd5b81905092915050565b6000611daf612454565b905060005b8180549050811015611ff957827bffffffffffffffffffffffffffffffffffffffffffffffffffffffff1916828281548110611df357611df2613cb6565b5b906000526020600020906003020160020160009054906101000a900460e01b7bffffffffffffffffffffffffffffffffffffffffffffffffffffffff191603611fe6578160018380549050611e489190613b84565b81548110611e5957611e58613cb6565b5b9060005260206000209060030201828281548110611e7a57611e79613cb6565b5b90600052602060002090600302016000820160009054906101000a900473ffffffffffffffffffffffffffffffffffffffff168160000160006101000a81548173ffffffffffffffffffffffffffffffffffffffff021916908373ffffffffffffffffffffffffffffffffffffffff160217905550600182015481600101556002820160009054906101000a900460e01b8160020160006101000a81548163ffffffff021916908360e01c02179055506002820160049054906101000a900460e01b8160020160046101000a81548163ffffffff021916908360e01c021790555090505081805480611f6f57611f6e613e6b565b5b6001900381819060005260206000209060030201600080820160006101000a81549073ffffffffffffffffffffffffffffffffffffffff021916905560018201600090556002820160006101000a81549063ffffffff02191690556002820160046101000a81549063ffffffff0219169055505090555b8080611ff190613ce5565b915050611db4565b505050565b60008203612041576040517f08c379a000000000000000000000000000000000000000000000000000000000815260040161203890613ee6565b60405180910390fd5b600073ffffffffffffffffffffffffffffffffffffffff168173ffffffffffffffffffffffffffffffffffffffff16036120b0576040517f08c379a00000000000000000000000000000000000000000000000000000000081526004016120a790613f52565b60405180910390fd5b60006120ba612427565b90506120ca816002018484612509565b50505050565b60008173ffffffffffffffffffffffffffffffffffffffff1663dcc3e06e6040518163ffffffff1660e01b8152600401602060405180830381865afa15801561211d573d6000803e3d6000fd5b505050506040513d601f19601f820116820180604052508101906121419190613fb0565b9050600061214d612466565b905060005b600115612421576000808473ffffffffffffffffffffffffffffffffffffffff16836040516024016121849190612d22565b6040516020818303038152906040527f7bb7bed1000000000000000000000000000000000000000000000000000000007bffffffffffffffffffffffffffffffffffffffffffffffffffffffff19166020820180517bffffffffffffffffffffffffffffffffffffffffffffffffffffffff838183161783525050505060405161220e9190613a40565b6000604051808303816000865af19150503d806000811461224b576040519150601f19603f3d011682016040523d82523d6000602084013e612250565b606091505b509150915081612261575050612421565b600081806020019051810190612277919061401b565b905060008573ffffffffffffffffffffffffffffffffffffffff1663f823f1e0836040518263ffffffff1660e01b81526004016122b49190613328565b602060405180830381865afa1580156122d1573d6000803e3d6000fd5b505050506040513d601f19601f820116820180604052508101906122f59190614048565b90506000810361237c578173ffffffffffffffffffffffffffffffffffffffff163373ffffffffffffffffffffffffffffffffffffffff167f8ad2c1512cdb5cbdcc09581899b16e96a48479394a2cd9e973a717e4ded099414260405161235c9190612d22565b60405180910390a36001856123719190613d65565b945050505050612152565b60008273ffffffffffffffffffffffffffffffffffffffff166370a08231306040518263ffffffff1660e01b81526004016123b79190613328565b602060405180830381865afa1580156123d4573d6000803e3d6000fd5b505050506040513d601f19601f820116820180604052508101906123f89190613343565b1115612409576124088183611ffe565b5b6001856124169190613d65565b945050505050612152565b50505050565b6000807f8d5bb42e0ac1496a2c326edc9c00758985246e6c2bb146d6c2f4a0d509e0960a90508091505090565b600061245e612427565b600501905090565b6000739cd7ecff2f5a95c1d6ee2ceb3e53909ebe9d57bb905090565b6000612491836000018361253b565b905092915050565b6000806124a4612574565b905060006124b182612685565b61ffff1690506002826124c49190613d65565b915060005b818110156125005760006124dc846126e1565b905080846124ea9190613d65565b93505080806124f890613ce5565b9150506124c9565b50819250505090565b600061253284600001848473ffffffffffffffffffffffffffffffffffffffff1660001b612720565b90509392505050565b60008260020160008381526020019081526020016000206000905561256c828460000161275b90919063ffffffff16565b905092915050565b60008060203603356602ed57011e000081166602ed57011e000014915050806125c9576040517fe7764c9e00000000000000000000000000000000000000000000000000000000815260040160405180910390fd5b60008036905060291115612609576040517f5796f78a00000000000000000000000000000000000000000000000000000000815260040160405180910390fd5b602936033590506000600960038362ffffff166126269190613d65565b6126309190613d65565b905060003690506002826126449190613d65565b111561267c576040517fc30a7bd700000000000000000000000000000000000000000000000000000000815260040160405180910390fd5b80935050505090565b6000806020836126959190613d65565b905060003690508111156126d5576040517f5796f78a00000000000000000000000000000000000000000000000000000000815260040160405180910390fd5b80360335915050919050565b60008060006126ef84612772565b91509150604e8160206127029190613d65565b8361270d9190614075565b6127179190613d65565b92505050919050565b6000818460020160008581526020019081526020016000208190555061275283856000016127e890919063ffffffff16565b90509392505050565b600061276a83600001836127ff565b905092915050565b60008060008060006041866127879190613d65565b905060006127ae60208361279b9190613d65565b600036905061291390919063ffffffff16565b9050803593506127c860038261291390919063ffffffff16565b9050803592508362ffffff1695508263ffffffff16945050505050915091565b60006127f78360000183612929565b905092915050565b600080836001016000848152602001908152602001600020549050600081146129075760006001826128319190613b84565b90506000600186600001805490506128499190613b84565b90508181146128b857600086600001828154811061286a57612869613cb6565b5b906000526020600020015490508087600001848154811061288e5761288d613cb6565b5b90600052602060002001819055508387600101600083815260200190815260200160002081905550505b856000018054806128cc576128cb613e6b565b5b60019003818190600052602060002001600090559055856001016000868152602001908152602001600020600090556001935050505061290d565b60009150505b92915050565b600081836129219190613b84565b905092915050565b60006129358383612999565b61298e578260000182908060018154018082558091505060019003906000526020600020016000909190919091505582600001805490508360010160008481526020019081526020016000208190555060019050612993565b600090505b92915050565b600080836001016000848152602001908152602001600020541415905092915050565b6040518060800160405280606081526020016060815260200160608152602001606081525090565b6000604051905090565b600080fd5b600080fd5b6000819050919050565b612a0b816129f8565b8114612a1657600080fd5b50565b600081359050612a2881612a02565b92915050565b600060208284031215612a4457612a436129ee565b5b6000612a5284828501612a19565b91505092915050565b600080fd5b6000601f19601f8301169050919050565b7f4e487b7100000000000000000000000000000000000000000000000000000000600052604160045260246000fd5b612aa982612a60565b810181811067ffffffffffffffff82111715612ac857612ac7612a71565b5b80604052505050565b6000612adb6129e4565b9050612ae78282612aa0565b919050565b600067ffffffffffffffff821115612b0757612b06612a71565b5b602082029050602081019050919050565b600080fd5b6000819050919050565b612b3081612b1d565b8114612b3b57600080fd5b50565b600081359050612b4d81612b27565b92915050565b6000612b66612b6184612aec565b612ad1565b90508083825260208201905060208402830185811115612b8957612b88612b18565b5b835b81811015612bb25780612b9e8882612b3e565b845260208401935050602081019050612b8b565b5050509392505050565b600082601f830112612bd157612bd0612a5b565b5b8135612be1848260208601612b53565b91505092915050565b600060208284031215612c0057612bff6129ee565b5b600082013567ffffffffffffffff811115612c1e57612c1d6129f3565b5b612c2a84828501612bbc565b91505092915050565b600081519050919050565b600082825260208201905092915050565b6000819050602082019050919050565b612c68816129f8565b82525050565b6000612c7a8383612c5f565b60208301905092915050565b6000602082019050919050565b6000612c9e82612c33565b612ca88185612c3e565b9350612cb383612c4f565b8060005b83811015612ce4578151612ccb8882612c6e565b9750612cd683612c86565b925050600181019050612cb7565b5085935050505092915050565b60006020820190508181036000830152612d0b8184612c93565b905092915050565b612d1c816129f8565b82525050565b6000602082019050612d376000830184612d13565b92915050565b600060208284031215612d5357612d526129ee565b5b6000612d6184828501612b3e565b91505092915050565b60008060408385031215612d8157612d806129ee565b5b6000612d8f85828601612a19565b9250506020612da085828601612a19565b9150509250929050565b600067ffffffffffffffff821115612dc557612dc4612a71565b5b602082029050602081019050919050565b600080fd5b600080fd5b600060408284031215612df657612df5612dd6565b5b612e006040612ad1565b90506000612e1084828501612b3e565b6000830152506020612e2484828501612a19565b60208301525092915050565b6000612e43612e3e84612daa565b612ad1565b90508083825260208201905060408402830185811115612e6657612e65612b18565b5b835b81811015612e8f5780612e7b8882612de0565b845260208401935050604081019050612e68565b5050509392505050565b600082601f830112612eae57612ead612a5b565b5b8135612ebe848260208601612e30565b91505092915050565b600080600060608486031215612ee057612edf6129ee565b5b600084013567ffffffffffffffff811115612efe57612efd6129f3565b5b612f0a86828701612e99565b935050602084013567ffffffffffffffff811115612f2b57612f2a6129f3565b5b612f3786828701612e99565b925050604084013567ffffffffffffffff811115612f5857612f576129f3565b5b612f6486828701612e99565b9150509250925092565b600081519050919050565b600082825260208201905092915050565b6000819050602082019050919050565b612fa381612b1d565b82525050565b604082016000820151612fbf6000850182612f9a565b506020820151612fd26020850182612c5f565b50505050565b6000612fe48383612fa9565b60408301905092915050565b6000602082019050919050565b600061300882612f6e565b6130128185612f79565b935061301d83612f8a565b8060005b8381101561304e5781516130358882612fd8565b975061304083612ff0565b925050600181019050613021565b5085935050505092915050565b600060808301600083015184820360008601526130788282612ffd565b915050602083015184820360208601526130928282612ffd565b915050604083015184820360408601526130ac8282612ffd565b915050606083015184820360608601526130c68282612ffd565b9150508091505092915050565b600060208201905081810360008301526130ed818461305b565b905092915050565b600081519050919050565b600082825260208201905092915050565b6000819050602082019050919050565b600061312d8383612f9a565b60208301905092915050565b6000602082019050919050565b6000613151826130f5565b61315b8185613100565b935061316683613111565b8060005b8381101561319757815161317e8882613121565b975061318983613139565b92505060018101905061316a565b5085935050505092915050565b600060208201905081810360008301526131be8184613146565b905092915050565b600067ffffffffffffffff8211156131e1576131e0612a71565b5b602082029050602081019050919050565b60008151905061320181612a02565b92915050565b600061321a613215846131c6565b612ad1565b9050808382526020820190506020840283018581111561323d5761323c612b18565b5b835b81811015613266578061325288826131f2565b84526020840193505060208101905061323f565b5050509392505050565b600082601f83011261328557613284612a5b565b5b8151613295848260208601613207565b91505092915050565b6000602082840312156132b4576132b36129ee565b5b600082015167ffffffffffffffff8111156132d2576132d16129f3565b5b6132de84828501613270565b91505092915050565b600073ffffffffffffffffffffffffffffffffffffffff82169050919050565b6000613312826132e7565b9050919050565b61332281613307565b82525050565b600060208201905061333d6000830184613319565b92915050565b600060208284031215613359576133586129ee565b5b6000613367848285016131f2565b91505092915050565b61337981612b1d565b82525050565b60006020820190506133946000830184613370565b92915050565b600082825260208201905092915050565b60006133b682612f6e565b6133c0818561339a565b93506133cb83612f8a565b8060005b838110156133fc5781516133e38882612fd8565b97506133ee83612ff0565b9250506001810190506133cf565b5085935050505092915050565b6000606082019050818103600083015261342381866133ab565b9050818103602083015261343781856133ab565b9050818103604083015261344b81846133ab565b9050949350505050565b60008151905061346481612b27565b92915050565b6000604082840312156134805761347f612dd6565b5b61348a6040612ad1565b9050600061349a84828501613455565b60008301525060206134ae848285016131f2565b60208301525092915050565b60006134cd6134c884612daa565b612ad1565b905080838252602082019050604084028301858111156134f0576134ef612b18565b5b835b818110156135195780613505888261346a565b8452602084019350506040810190506134f2565b5050509392505050565b600082601f83011261353857613537612a5b565b5b81516135488482602086016134ba565b91505092915050565b60006080828403121561356757613566612dd6565b5b6135716080612ad1565b9050600082015167ffffffffffffffff81111561359157613590612ddb565b5b61359d84828501613523565b600083015250602082015167ffffffffffffffff8111156135c1576135c0612ddb565b5b6135cd84828501613523565b602083015250604082015167ffffffffffffffff8111156135f1576135f0612ddb565b5b6135fd84828501613523565b604083015250606082015167ffffffffffffffff81111561362157613620612ddb565b5b61362d84828501613523565b60608301525092915050565b60006020828403121561364f5761364e6129ee565b5b600082015167ffffffffffffffff81111561366d5761366c6129f3565b5b61367984828501613551565b91505092915050565b600082825260208201905092915050565b7f5265656e7472616e637947756172643a207265656e7472616e742063616c6c00600082015250565b60006136c9601f83613682565b91506136d482613693565b602082019050919050565b600060208201905081810360008301526136f8816136bc565b9050919050565b7f43616e6e6f74207374616b65203020746f6b656e730000000000000000000000600082015250565b6000613735601583613682565b9150613740826136ff565b602082019050919050565b6000602082019050818103600083015261376481613728565b9050919050565b7f4e6f7420656e6f75676820746f6b656e20617661696c61626c65000000000000600082015250565b60006137a1601a83613682565b91506137ac8261376b565b602082019050919050565b600060208201905081810360008301526137d081613794565b9050919050565b60006040820190506137ec6000830185613319565b6137f96020830184612d13565b9392505050565b60008115159050919050565b61381581613800565b811461382057600080fd5b50565b6000815190506138328161380c565b92915050565b60006020828403121561384e5761384d6129ee565b5b600061385c84828501613823565b91505092915050565b600060408201905061387a6000830185612d13565b6138876020830184612d13565b9392505050565b7f54686520616374696f6e206d617920636175736520616e206163636f756e742060008201527f746f206265636f6d6520696e736f6c76656e7400000000000000000000000000602082015250565b60006138ea603383613682565b91506138f58261388e565b604082019050919050565b60006020820190508181036000830152613919816138dd565b9050919050565b60007fffffffff0000000000000000000000000000000000000000000000000000000082169050919050565b61395581613920565b82525050565b6000602082019050613970600083018461394c565b92915050565b61397f81613307565b811461398a57600080fd5b50565b60008151905061399c81613976565b92915050565b6000602082840312156139b8576139b76129ee565b5b60006139c68482850161398d565b91505092915050565b600081519050919050565b600081905092915050565b60005b83811015613a035780820151818401526020810190506139e8565b60008484015250505050565b6000613a1a826139cf565b613a2481856139da565b9350613a348185602086016139e5565b80840191505092915050565b6000613a4c8284613a0f565b915081905092915050565b7f43616e6e6f7420756e7374616b65203020746f6b656e73000000000000000000600082015250565b6000613a8d601783613682565b9150613a9882613a57565b602082019050919050565b60006020820190508181036000830152613abc81613a80565b9050919050565b7f43616e6e6f7420756e7374616b65206d6f7265207468616e2077617320696e6960008201527f7469616c6c79207374616b656400000000000000000000000000000000000000602082015250565b6000613b1f602d83613682565b9150613b2a82613ac3565b604082019050919050565b60006020820190508181036000830152613b4e81613b12565b9050919050565b7f4e487b7100000000000000000000000000000000000000000000000000000000600052601160045260246000fd5b6000613b8f826129f8565b9150613b9a836129f8565b9250828203905081811115613bb257613bb1613b55565b5b92915050565b7f4d757374207374617920736f6c76656e74000000000000000000000000000000600082015250565b6000613bee601183613682565b9150613bf982613bb8565b602082019050919050565b60006020820190508181036000830152613c1d81613be1565b9050919050565b7f4469616d6f6e6453746f726167654c69623a204d75737420626520636f6e747260008201527f616374206f776e65720000000000000000000000000000000000000000000000602082015250565b6000613c80602983613682565b9150613c8b82613c24565b604082019050919050565b60006020820190508181036000830152613caf81613c73565b9050919050565b7f4e487b7100000000000000000000000000000000000000000000000000000000600052603260045260246000fd5b6000613cf0826129f8565b91507fffffffffffffffffffffffffffffffffffffffffffffffffffffffffffffffff8203613d2257613d21613b55565b5b600182019050919050565b613d3681613800565b82525050565b6000604082019050613d516000830185613370565b613d5e6020830184613d2d565b9392505050565b6000613d70826129f8565b9150613d7b836129f8565b9250828201905080821115613d9357613d92613b55565b5b92915050565b600081519050919050565b6000613daf82613d99565b613db98185613682565b9350613dc98185602086016139e5565b613dd281612a60565b840191505092915050565b60006020820190508181036000830152613df78184613da4565b905092915050565b600082825260208201905092915050565b6000613e1b826139cf565b613e258185613dff565b9350613e358185602086016139e5565b613e3e81612a60565b840191505092915050565b60006020820190508181036000830152613e638184613e10565b905092915050565b7f4e487b7100000000000000000000000000000000000000000000000000000000600052603160045260246000fd5b7f53796d626f6c2063616e6e6f7420626520656d70747900000000000000000000600082015250565b6000613ed0601683613682565b9150613edb82613e9a565b602082019050919050565b60006020820190508181036000830152613eff81613ec3565b9050919050565b7f496e76616c696420416464726573735a65726f00000000000000000000000000600082015250565b6000613f3c601383613682565b9150613f4782613f06565b602082019050919050565b60006020820190508181036000830152613f6b81613f2f565b9050919050565b6000613f7d82613307565b9050919050565b613f8d81613f72565b8114613f9857600080fd5b50565b600081519050613faa81613f84565b92915050565b600060208284031215613fc657613fc56129ee565b5b6000613fd484828501613f9b565b91505092915050565b6000613fe8826132e7565b9050919050565b613ff881613fdd565b811461400357600080fd5b50565b60008151905061401581613fef565b92915050565b600060208284031215614031576140306129ee565b5b600061403f84828501614006565b91505092915050565b60006020828403121561405e5761405d6129ee565b5b600061406c84828501613455565b91505092915050565b6000614080826129f8565b915061408b836129f8565b9250828202614099816129f8565b915082820484148315176140b0576140af613b55565b5b509291505056fea26469706673582212204f8df54e325651b66bdfb1666d573ba66ee20a6b378450cb04ed9d95b1ba911764736f6c63430008110033",
  "devdoc": {
    "events": {
      "Staked(address,bytes32,address,uint256,uint256)": {
        "details": "emitted when user stakes an asset",
        "params": {
          "amount": "of the asset that was staked",
          "asset": "the asset that was staked",
          "timestamp": "of staking*",
          "user": "the address executing staking",
          "vault": "address of receipt token"
        }
      },
      "Unstaked(address,bytes32,address,uint256,uint256)": {
        "details": "emitted when user unstakes an asset",
        "params": {
          "amount": "of the asset that was unstaked",
          "asset": "the asset that was unstaked",
          "timestamp": "of unstaking*",
          "user": "the address executing unstaking",
          "vault": "address of receipt token"
        }
      },
      "UnsupportedRewardToken(address,address,uint256)": {
        "details": "emitted when user collects rewards in tokens that are not supported",
        "params": {
          "asset": "reward token that was collected",
          "timestamp": "of collecting rewards*",
          "user": "the address collecting rewards"
        }
      }
    },
    "kind": "dev",
    "methods": {},
    "version": 1
  },
  "userdoc": {
    "kind": "user",
    "methods": {},
    "version": 1
  },
  "storageLayout": {
    "storage": [
      {
        "astId": 9549,
        "contract": "contracts/facets/avalanche/VectorFinanceFacet.sol:VectorFinanceFacet",
        "label": "_status",
        "offset": 0,
        "slot": "0",
        "type": "t_uint256"
      }
    ],
    "types": {
      "t_uint256": {
        "encoding": "inplace",
        "label": "uint256",
        "numberOfBytes": "32"
      }
    }
  }
}