{
  "address": "0xF1bd222b11c0EbDdF74a0c4a3a0468b31B185eA8",
  "abi": [
    {
      "inputs": [],
      "name": "CalldataMustHaveValidPayload",
      "type": "error"
    },
    {
      "inputs": [],
      "name": "CalldataOverOrUnderFlow",
      "type": "error"
    },
    {
      "inputs": [],
      "name": "EachSignerMustProvideTheSameValue",
      "type": "error"
    },
    {
      "inputs": [],
      "name": "EmptyCalldataPointersArr",
      "type": "error"
    },
    {
      "inputs": [],
      "name": "IncorrectUnsignedMetadataSize",
      "type": "error"
    },
    {
      "inputs": [
        {
          "internalType": "uint256",
          "name": "receviedSignersCount",
          "type": "uint256"
        },
        {
          "internalType": "uint256",
          "name": "requiredSignersCount",
          "type": "uint256"
        }
      ],
      "name": "InsufficientNumberOfUniqueSigners",
      "type": "error"
    },
    {
      "inputs": [],
      "name": "InvalidCalldataPointer",
      "type": "error"
    },
    {
      "inputs": [
        {
          "internalType": "bytes",
          "name": "result",
          "type": "bytes"
        }
      ],
      "name": "ProxyCalldataFailedWithCustomError",
      "type": "error"
    },
    {
      "inputs": [
        {
          "internalType": "string",
          "name": "message",
          "type": "string"
        }
      ],
      "name": "ProxyCalldataFailedWithStringMessage",
      "type": "error"
    },
    {
      "inputs": [],
      "name": "ProxyCalldataFailedWithoutErrMsg",
      "type": "error"
    },
    {
      "inputs": [
        {
          "internalType": "address",
          "name": "receivedSigner",
          "type": "address"
        }
      ],
      "name": "SignerNotAuthorised",
      "type": "error"
    },
    {
      "anonymous": false,
      "inputs": [
        {
          "indexed": true,
          "internalType": "address",
          "name": "user",
          "type": "address"
        },
        {
          "indexed": true,
          "internalType": "bytes32",
          "name": "asset",
          "type": "bytes32"
        },
        {
          "indexed": true,
          "internalType": "address",
          "name": "vault",
          "type": "address"
        },
        {
          "indexed": false,
          "internalType": "uint256",
          "name": "amount",
          "type": "uint256"
        },
        {
          "indexed": false,
          "internalType": "uint256",
          "name": "timestamp",
          "type": "uint256"
        }
      ],
      "name": "Staked",
      "type": "event"
    },
    {
      "anonymous": false,
      "inputs": [
        {
          "indexed": true,
          "internalType": "address",
          "name": "user",
          "type": "address"
        },
        {
          "indexed": true,
          "internalType": "bytes32",
          "name": "asset",
          "type": "bytes32"
        },
        {
          "indexed": true,
          "internalType": "address",
          "name": "vault",
          "type": "address"
        },
        {
          "indexed": false,
          "internalType": "uint256",
          "name": "amount",
          "type": "uint256"
        },
        {
          "indexed": false,
          "internalType": "uint256",
          "name": "timestamp",
          "type": "uint256"
        }
      ],
      "name": "Unstaked",
      "type": "event"
    },
    {
      "inputs": [
        {
          "internalType": "bytes32[]",
          "name": "assetsToRepay",
          "type": "bytes32[]"
        }
      ],
      "name": "_getAllPricesForLiquidation",
      "outputs": [
        {
          "components": [
            {
              "components": [
                {
                  "internalType": "bytes32",
                  "name": "asset",
                  "type": "bytes32"
                },
                {
                  "internalType": "uint256",
                  "name": "price",
                  "type": "uint256"
                }
              ],
              "internalType": "struct SolvencyFacetProd.AssetPrice[]",
              "name": "ownedAssetsPrices",
              "type": "tuple[]"
            },
            {
              "components": [
                {
                  "internalType": "bytes32",
                  "name": "asset",
                  "type": "bytes32"
                },
                {
                  "internalType": "uint256",
                  "name": "price",
                  "type": "uint256"
                }
              ],
              "internalType": "struct SolvencyFacetProd.AssetPrice[]",
              "name": "debtAssetsPrices",
              "type": "tuple[]"
            },
            {
              "components": [
                {
                  "internalType": "bytes32",
                  "name": "asset",
                  "type": "bytes32"
                },
                {
                  "internalType": "uint256",
                  "name": "price",
                  "type": "uint256"
                }
              ],
              "internalType": "struct SolvencyFacetProd.AssetPrice[]",
              "name": "stakedPositionsPrices",
              "type": "tuple[]"
            },
            {
              "components": [
                {
                  "internalType": "bytes32",
                  "name": "asset",
                  "type": "bytes32"
                },
                {
                  "internalType": "uint256",
                  "name": "price",
                  "type": "uint256"
                }
              ],
              "internalType": "struct SolvencyFacetProd.AssetPrice[]",
              "name": "assetsToRepayPrices",
              "type": "tuple[]"
            }
          ],
          "internalType": "struct SolvencyFacetProd.CachedPrices",
          "name": "result",
          "type": "tuple"
        }
      ],
      "stateMutability": "nonpayable",
      "type": "function"
    },
    {
      "inputs": [],
      "name": "_getHealthRatio",
      "outputs": [
        {
          "internalType": "uint256",
          "name": "health",
          "type": "uint256"
        }
      ],
      "stateMutability": "nonpayable",
      "type": "function"
    },
    {
      "inputs": [
        {
          "components": [
            {
              "internalType": "bytes32",
              "name": "asset",
              "type": "bytes32"
            },
            {
              "internalType": "uint256",
              "name": "price",
              "type": "uint256"
            }
          ],
          "internalType": "struct SolvencyFacetProd.AssetPrice[]",
          "name": "ownedAssetsPrices",
          "type": "tuple[]"
        },
        {
          "components": [
            {
              "internalType": "bytes32",
              "name": "asset",
              "type": "bytes32"
            },
            {
              "internalType": "uint256",
              "name": "price",
              "type": "uint256"
            }
          ],
          "internalType": "struct SolvencyFacetProd.AssetPrice[]",
          "name": "debtAssetsPrices",
          "type": "tuple[]"
        },
        {
          "components": [
            {
              "internalType": "bytes32",
              "name": "asset",
              "type": "bytes32"
            },
            {
              "internalType": "uint256",
              "name": "price",
              "type": "uint256"
            }
          ],
          "internalType": "struct SolvencyFacetProd.AssetPrice[]",
          "name": "stakedPositionsPrices",
          "type": "tuple[]"
        }
      ],
      "name": "_getHealthRatioWithPrices",
      "outputs": [
        {
          "internalType": "uint256",
          "name": "health",
          "type": "uint256"
        }
      ],
      "stateMutability": "nonpayable",
      "type": "function"
    },
    {
      "inputs": [
        {
          "internalType": "bytes32",
          "name": "symbol",
          "type": "bytes32"
        }
      ],
      "name": "getPrice",
      "outputs": [
        {
          "internalType": "uint256",
          "name": "price",
          "type": "uint256"
        }
      ],
      "stateMutability": "nonpayable",
      "type": "function"
    },
    {
      "inputs": [
        {
          "internalType": "bytes32[]",
          "name": "symbols",
          "type": "bytes32[]"
        }
      ],
      "name": "getPrices",
      "outputs": [
        {
          "internalType": "uint256[]",
          "name": "prices",
          "type": "uint256[]"
        }
      ],
      "stateMutability": "nonpayable",
      "type": "function"
    },
    {
      "inputs": [
        {
          "internalType": "uint256",
          "name": "amount",
          "type": "uint256"
        }
      ],
      "name": "stakeAVAXYak",
      "outputs": [],
      "stateMutability": "nonpayable",
      "type": "function"
    },
    {
      "inputs": [
        {
          "internalType": "uint256",
          "name": "amount",
          "type": "uint256"
        }
      ],
      "name": "stakeSAVAXYak",
      "outputs": [],
      "stateMutability": "nonpayable",
      "type": "function"
    },
    {
      "inputs": [
        {
          "internalType": "uint256",
          "name": "amount",
          "type": "uint256"
        }
      ],
      "name": "stakeTJAVAXUSDCYak",
      "outputs": [],
      "stateMutability": "nonpayable",
      "type": "function"
    },
    {
      "inputs": [
        {
          "internalType": "uint256",
          "name": "amount",
          "type": "uint256"
        }
      ],
      "name": "unstakeAVAXYak",
      "outputs": [],
      "stateMutability": "nonpayable",
      "type": "function"
    },
    {
      "inputs": [
        {
          "internalType": "uint256",
          "name": "amount",
          "type": "uint256"
        }
      ],
      "name": "unstakeSAVAXYak",
      "outputs": [],
      "stateMutability": "nonpayable",
      "type": "function"
    },
    {
      "inputs": [
        {
          "internalType": "uint256",
          "name": "amount",
          "type": "uint256"
        }
      ],
      "name": "unstakeTJAVAXUSDCYak",
      "outputs": [],
      "stateMutability": "nonpayable",
      "type": "function"
    },
    {
      "stateMutability": "payable",
      "type": "receive"
    }
  ],
  "transactionHash": "0x234661bf5dded8744ecd30f4bae539c756f88fba32253086a704dedface752cc",
  "args": [],
  "numDeployments": 1,
  "solcInputHash": "df3ad5bdcd0ec16bf72ca3adff085c61",
  "bytecode": "0x608060405234801561001057600080fd5b506001600081905550613b52806100286000396000f3fe6080604052600436106100a05760003560e01c80636aa96162116100645780636aa96162146101a35780638f7ef1f5146101cc578063b2d40e7314610209578063f2c0f2a014610246578063f506db131461026f578063fe77236714610298576100a7565b806326ee4836146100ac57806329e166b6146100e957806331d98b3f1461011257806339e2719e1461014f5780633eb67e0b1461017a576100a7565b366100a757005b600080fd5b3480156100b857600080fd5b506100d360048036038101906100ce91906126fb565b6102c1565b6040516100e0919061280c565b60405180910390f35b3480156100f557600080fd5b50610110600480360381019061010b919061285a565b61036b565b005b34801561011e57600080fd5b5061013960048036038101906101349190612887565b6104e8565b60405161014691906128c3565b60405180910390f35b34801561015b57600080fd5b50610164610592565b60405161017191906128c3565b60405180910390f35b34801561018657600080fd5b506101a1600480360381019061019c919061285a565b61062f565b005b3480156101af57600080fd5b506101ca60048036038101906101c5919061285a565b6109ec565b005b3480156101d857600080fd5b506101f360048036038101906101ee91906129fb565b610d87565b60405161020091906128c3565b60405180910390f35b34801561021557600080fd5b50610230600480360381019061022b91906126fb565b610e37565b60405161023d9190612c07565b60405180910390f35b34801561025257600080fd5b5061026d6004803603810190610268919061285a565b610ee7565b005b34801561027b57600080fd5b506102966004803603810190610291919061285a565b611064565b005b3480156102a457600080fd5b506102bf60048036038101906102ba919061285a565b6111e1565b005b60606103516102d66326ee483660e01b61135e565b6326ee483660e01b846040516024016102ef9190612cd8565b604051602081830303815290604052907bffffffffffffffffffffffffffffffffffffffffffffffffffffffff19166020820180517bffffffffffffffffffffffffffffffffffffffffffffffffffffffff83818316178352505050506113e8565b8060200190518101906103649190612dd2565b9050919050565b610373611479565b600061037d611514565b905060028160000154036103c6576040517f08c379a00000000000000000000000000000000000000000000000000000000081526004016103bd90612e78565b60405180910390fd5b600281600001819055506104936040518060a0016040528073f4003f4efbe8691b60249e6afbd307abe7758adb73ffffffffffffffffffffffffffffffffffffffff16815260200173def94a13ff31fb6363f1e03bf18fe0f59db83bbc73ffffffffffffffffffffffffffffffffffffffff1681526020017f544a5f415641585f555344435f4c50000000000000000000000000000000000081526020017f59595f544a5f415641585f555344435f4c500000000000000000000000000000815260200184815250611541565b61049b611798565b6104da576040517f08c379a00000000000000000000000000000000000000000000000000000000081526004016104d190612f0a565b60405180910390fd5b600181600001819055505050565b60006105786104fd6331d98b3f60e01b61135e565b6331d98b3f60e01b846040516024016105169190612f39565b604051602081830303815290604052907bffffffffffffffffffffffffffffffffffffffffffffffffffffffff19166020820180517bffffffffffffffffffffffffffffffffffffffffffffffffffffffff83818316178352505050506113e8565b80602001905181019061058b9190612f54565b9050919050565b60006106176105a7637914334f60e01b61135e565b637914334f60e01b604051602401604051602081830303815290604052907bffffffffffffffffffffffffffffffffffffffffffffffffffffffff19166020820180517bffffffffffffffffffffffffffffffffffffffffffffffffffffffff83818316178352505050506113e8565b80602001905181019061062a9190612f54565b905090565b610637611479565b6000610641611514565b9050600281600001540361068a576040517f08c379a000000000000000000000000000000000000000000000000000000000815260040161068190612e78565b60405180910390fd5b60028160000181905550600073aac0f2d0630d1d09ab2b5a400412a4840b866d95905060008173ffffffffffffffffffffffffffffffffffffffff166370a08231306040518263ffffffff1660e01b81526004016106e89190612fc2565b602060405180830381865afa158015610705573d6000803e3d6000fd5b505050506040513d601f19601f820116820180604052508101906107299190612f54565b90508381101561076e576040517f08c379a00000000000000000000000000000000000000000000000000000000081526004016107659061304f565b60405180910390fd5b8173ffffffffffffffffffffffffffffffffffffffff16632e1a7d4d856040518263ffffffff1660e01b81526004016107a791906128c3565b600060405180830381600087803b1580156107c157600080fd5b505af11580156107d5573d6000803e3d6000fd5b5050505060008273ffffffffffffffffffffffffffffffffffffffff166370a08231306040518263ffffffff1660e01b81526004016108149190612fc2565b602060405180830381865afa158015610831573d6000803e3d6000fd5b505050506040513d601f19601f820116820180604052508101906108559190612f54565b03610884576108837f5959415633534131000000000000000000000000000000000000000000000000611835565b5b73aac0f2d0630d1d09ab2b5a400412a4840b866d9573ffffffffffffffffffffffffffffffffffffffff167f41564158000000000000000000000000000000000000000000000000000000003373ffffffffffffffffffffffffffffffffffffffff167fb45e912aa92f8b6b5caaef25e5188ab9c924b5c90188180c3f0cdeb3273c731f874260405161091892919061306f565b60405180910390a473b31f66aa3c1e785363f0875a1b74e27b85fd66c773ffffffffffffffffffffffffffffffffffffffff1663d0e30db0856040518263ffffffff1660e01b81526004016000604051808303818588803b15801561097c57600080fd5b505af1158015610990573d6000803e3d6000fd5b5050505050505061099f611798565b6109de576040517f08c379a00000000000000000000000000000000000000000000000000000000081526004016109d590612f0a565b60405180910390fd5b600181600001819055505050565b6109f4611479565b60006109fe611514565b90506002816000015403610a47576040517f08c379a0000000000000000000000000000000000000000000000000000000008152600401610a3e90612e78565b60405180910390fd5b6002816000018190555060008211610a94576040517f08c379a0000000000000000000000000000000000000000000000000000000008152600401610a8b906130e4565b60405180910390fd5b8173b31f66aa3c1e785363f0875a1b74e27b85fd66c773ffffffffffffffffffffffffffffffffffffffff166370a08231306040518263ffffffff1660e01b8152600401610ae29190612fc2565b602060405180830381865afa158015610aff573d6000803e3d6000fd5b505050506040513d601f19601f82011682018060405250810190610b239190612f54565b1015610b64576040517f08c379a0000000000000000000000000000000000000000000000000000000008152600401610b5b90613150565b60405180910390fd5b73b31f66aa3c1e785363f0875a1b74e27b85fd66c773ffffffffffffffffffffffffffffffffffffffff16632e1a7d4d836040518263ffffffff1660e01b8152600401610bb191906128c3565b600060405180830381600087803b158015610bcb57600080fd5b505af1158015610bdf573d6000803e3d6000fd5b5050505073aac0f2d0630d1d09ab2b5a400412a4840b866d9573ffffffffffffffffffffffffffffffffffffffff1663d0e30db0836040518263ffffffff1660e01b81526004016000604051808303818588803b158015610c3f57600080fd5b505af1158015610c53573d6000803e3d6000fd5b5050505050610c967f595941563353413100000000000000000000000000000000000000000000000073aac0f2d0630d1d09ab2b5a400412a4840b866d95611853565b73aac0f2d0630d1d09ab2b5a400412a4840b866d9573ffffffffffffffffffffffffffffffffffffffff167f41564158000000000000000000000000000000000000000000000000000000003373ffffffffffffffffffffffffffffffffffffffff167f643de8375c3a1c76ab240fe4eda6e589cf10acfe25f67d9951ef0a7ababb67228542604051610d2a92919061306f565b60405180910390a4610d3a611798565b610d79576040517f08c379a0000000000000000000000000000000000000000000000000000000008152600401610d7090612f0a565b60405180910390fd5b600181600001819055505050565b6000610e1b610d9c630d742f6960e01b61135e565b630d742f6960e01b868686604051602401610db9939291906131df565b604051602081830303815290604052907bffffffffffffffffffffffffffffffffffffffffffffffffffffffff19166020820180517bffffffffffffffffffffffffffffffffffffffffffffffffffffffff83818316178352505050506113e8565b806020019051810190610e2e9190612f54565b90509392505050565b610e3f612530565b610ecd610e5263a3aa8d1e60e01b61135e565b63a3aa8d1e60e01b84604051602401610e6b9190612cd8565b604051602081830303815290604052907bffffffffffffffffffffffffffffffffffffffffffffffffffffffff19166020820180517bffffffffffffffffffffffffffffffffffffffffffffffffffffffff83818316178352505050506113e8565b806020019051810190610ee0919061340f565b9050919050565b610eef611479565b6000610ef9611514565b90506002816000015403610f42576040517f08c379a0000000000000000000000000000000000000000000000000000000008152600401610f3990612e78565b60405180910390fd5b6002816000018190555061100f6040518060a00160405280732b2c81e08f1af8835a78bb2a90ae924ace0ea4be73ffffffffffffffffffffffffffffffffffffffff16815260200173d0f41b1c9338eb9d374c83cc76b684ba3bb7155773ffffffffffffffffffffffffffffffffffffffff1681526020017f734156415800000000000000000000000000000000000000000000000000000081526020017f5341563200000000000000000000000000000000000000000000000000000000815260200184815250611925565b611017611798565b611056576040517f08c379a000000000000000000000000000000000000000000000000000000000815260040161104d90612f0a565b60405180910390fd5b600181600001819055505050565b61106c611479565b6000611076611514565b905060028160000154036110bf576040517f08c379a00000000000000000000000000000000000000000000000000000000081526004016110b690612e78565b60405180910390fd5b6002816000018190555061118c6040518060a0016040528073f4003f4efbe8691b60249e6afbd307abe7758adb73ffffffffffffffffffffffffffffffffffffffff16815260200173def94a13ff31fb6363f1e03bf18fe0f59db83bbc73ffffffffffffffffffffffffffffffffffffffff1681526020017f544a5f415641585f555344435f4c50000000000000000000000000000000000081526020017f59595f544a5f415641585f555344435f4c500000000000000000000000000000815260200184815250611925565b611194611798565b6111d3576040517f08c379a00000000000000000000000000000000000000000000000000000000081526004016111ca90612f0a565b60405180910390fd5b600181600001819055505050565b6111e9611479565b60006111f3611514565b9050600281600001540361123c576040517f08c379a000000000000000000000000000000000000000000000000000000000815260040161123390612e78565b60405180910390fd5b600281600001819055506113096040518060a00160405280732b2c81e08f1af8835a78bb2a90ae924ace0ea4be73ffffffffffffffffffffffffffffffffffffffff16815260200173d0f41b1c9338eb9d374c83cc76b684ba3bb7155773ffffffffffffffffffffffffffffffffffffffff1681526020017f734156415800000000000000000000000000000000000000000000000000000081526020017f5341563200000000000000000000000000000000000000000000000000000000815260200184815250611541565b611311611798565b611350576040517f08c379a000000000000000000000000000000000000000000000000000000000815260040161134790612f0a565b60405180910390fd5b600181600001819055505050565b6000611368611dd7565b73ffffffffffffffffffffffffffffffffffffffff16630d741577836040518263ffffffff1660e01b81526004016113a09190613493565b602060405180830381865afa1580156113bd573d6000803e3d6000fd5b505050506040513d601f19601f820116820180604052508101906113e191906134da565b9050919050565b606060006113f583611df3565b90506000808573ffffffffffffffffffffffffffffffffffffffff168360405161141f9190613578565b600060405180830381855af49150503d806000811461145a576040519150601f19603f3d011682016040523d82523d6000602084013e61145f565b606091505b509150915061146e8282611ead565b935050505092915050565b611481611fad565b60000160009054906101000a900473ffffffffffffffffffffffffffffffffffffffff1673ffffffffffffffffffffffffffffffffffffffff163373ffffffffffffffffffffffffffffffffffffffff1614611512576040517f08c379a000000000000000000000000000000000000000000000000000000000815260040161150990613601565b60405180910390fd5b565b6000807f1c85eba10a4cf2d29c83fc15f97931886b9fd3caeb70d8c377aeedc58b919e3b90508091505090565b60008160200151905060008173ffffffffffffffffffffffffffffffffffffffff166370a08231306040518263ffffffff1660e01b81526004016115859190612fc2565b602060405180830381865afa1580156115a2573d6000803e3d6000fd5b505050506040513d601f19601f820116820180604052508101906115c69190612f54565b9050826080015181101561160f576040517f08c379a00000000000000000000000000000000000000000000000000000000081526004016116069061304f565b60405180910390fd5b8173ffffffffffffffffffffffffffffffffffffffff16632e1a7d4d84608001516040518263ffffffff1660e01b815260040161164c91906128c3565b600060405180830381600087803b15801561166657600080fd5b505af115801561167a573d6000803e3d6000fd5b5050505061169083604001518460000151611853565b60008273ffffffffffffffffffffffffffffffffffffffff166370a08231306040518263ffffffff1660e01b81526004016116cb9190612fc2565b602060405180830381865afa1580156116e8573d6000803e3d6000fd5b505050506040513d601f19601f8201168201806040525081019061170c9190612f54565b0361171f5761171e8360600151611835565b5b826020015173ffffffffffffffffffffffffffffffffffffffff1683604001513373ffffffffffffffffffffffffffffffffffffffff167fb45e912aa92f8b6b5caaef25e5188ab9c924b5c90188180c3f0cdeb3273c731f86608001514260405161178b92919061306f565b60405180910390a4505050565b600061181d6117ad635ce2395060e01b61135e565b635ce2395060e01b604051602401604051602081830303815290604052907bffffffffffffffffffffffffffffffffffffffffffffffffffffffff19166020820180517bffffffffffffffffffffffffffffffffffffffffffffffffffffffff83818316178352505050506113e8565b8060200190518101906118309190613659565b905090565b600061183f611fad565b905061184e8160020183611fda565b505050565b60008203611896576040517f08c379a000000000000000000000000000000000000000000000000000000000815260040161188d906136d2565b60405180910390fd5b600073ffffffffffffffffffffffffffffffffffffffff168173ffffffffffffffffffffffffffffffffffffffff1603611905576040517f08c379a00000000000000000000000000000000000000000000000000000000081526004016118fc9061373e565b60405180910390fd5b600061190f611fad565b905061191f816002018484611ff1565b50505050565b600061192f612023565b90506000826080015111611978576040517f08c379a000000000000000000000000000000000000000000000000000000000815260040161196f906130e4565b60405180910390fd5b60028173ffffffffffffffffffffffffffffffffffffffff1663e0117bdd84600001516040518263ffffffff1660e01b81526004016119b79190612fc2565b602060405180830381865afa1580156119d4573d6000803e3d6000fd5b505050506040513d601f19601f820116820180604052508101906119f89190612f54565b14611a38576040517f08c379a0000000000000000000000000000000000000000000000000000000008152600401611a2f906137aa565b60405180910390fd5b60028173ffffffffffffffffffffffffffffffffffffffff1663e0117bdd84602001516040518263ffffffff1660e01b8152600401611a779190612fc2565b602060405180830381865afa158015611a94573d6000803e3d6000fd5b505050506040513d601f19601f82011682018060405250810190611ab89190612f54565b14611af8576040517f08c379a0000000000000000000000000000000000000000000000000000000008152600401611aef90613816565b60405180910390fd5b8160800151826000015173ffffffffffffffffffffffffffffffffffffffff166370a08231306040518263ffffffff1660e01b8152600401611b3a9190612fc2565b602060405180830381865afa158015611b57573d6000803e3d6000fd5b505050506040513d601f19601f82011682018060405250810190611b7b9190612f54565b1015611bbc576040517f08c379a0000000000000000000000000000000000000000000000000000000008152600401611bb390613882565b60405180910390fd5b816000015173ffffffffffffffffffffffffffffffffffffffff1663095ea7b3836020015184608001516040518363ffffffff1660e01b8152600401611c039291906138a2565b6020604051808303816000875af1158015611c22573d6000803e3d6000fd5b505050506040513d601f19601f82011682018060405250810190611c469190613659565b50816020015173ffffffffffffffffffffffffffffffffffffffff1663b6b55f2583608001516040518263ffffffff1660e01b8152600401611c8891906128c3565b600060405180830381600087803b158015611ca257600080fd5b505af1158015611cb6573d6000803e3d6000fd5b50505050611ccc82606001518360200151611853565b6000826000015173ffffffffffffffffffffffffffffffffffffffff166370a08231306040518263ffffffff1660e01b8152600401611d0b9190612fc2565b602060405180830381865afa158015611d28573d6000803e3d6000fd5b505050506040513d601f19601f82011682018060405250810190611d4c9190612f54565b03611d5f57611d5e8260400151611835565b5b816020015173ffffffffffffffffffffffffffffffffffffffff1682604001513373ffffffffffffffffffffffffffffffffffffffff167f643de8375c3a1c76ab240fe4eda6e589cf10acfe25f67d9951ef0a7ababb6722856080015142604051611dcb92919061306f565b60405180910390a45050565b6000737dbcb7b5019cfd15225e5adc454b864ca1b7f2d1905090565b60606000825190506000611e0561203f565b905060008183611e1591906138fa565b90506000369050821115611e55576040517f5796f78a00000000000000000000000000000000000000000000000000000000815260040160405180910390fd5b6060604051905081815285602001848101826020015b81831015611e885782518152602083019250602081019050611e6b565b5050508283360385602001830137602084840182010160405280945050505050919050565b606082611fa4576000825103611eef576040517f567fe27a00000000000000000000000000000000000000000000000000000000815260040160405180910390fd5b600060208301517f08c379a00000000000000000000000000000000000000000000000000000000081149150508015611f67576060604484019050806040517f0f7e8278000000000000000000000000000000000000000000000000000000008152600401611f5e9190613972565b60405180910390fd5b826040517ffd36fde3000000000000000000000000000000000000000000000000000000008152600401611f9b91906139de565b60405180910390fd5b81905092915050565b6000807f8d5bb42e0ac1496a2c326edc9c00758985246e6c2bb146d6c2f4a0d509e0960a90508091505090565b6000611fe983600001836120af565b905092915050565b600061201a84600001848473ffffffffffffffffffffffffffffffffffffffff1660001b6120e8565b90509392505050565b6000739cd7ecff2f5a95c1d6ee2ceb3e53909ebe9d57bb905090565b60008061204a612123565b9050600061205782612234565b61ffff16905060028261206a91906138fa565b915060005b818110156120a657600061208284612290565b9050808461209091906138fa565b935050808061209e90613a00565b91505061206f565b50819250505090565b6000826002016000838152602001908152602001600020600090556120e082846000016122cf90919063ffffffff16565b905092915050565b6000818460020160008581526020019081526020016000208190555061211a83856000016122e690919063ffffffff16565b90509392505050565b60008060203603356602ed57011e000081166602ed57011e00001491505080612178576040517fe7764c9e00000000000000000000000000000000000000000000000000000000815260040160405180910390fd5b600080369050602911156121b8576040517f5796f78a00000000000000000000000000000000000000000000000000000000815260040160405180910390fd5b602936033590506000600960038362ffffff166121d591906138fa565b6121df91906138fa565b905060003690506002826121f391906138fa565b111561222b576040517fc30a7bd700000000000000000000000000000000000000000000000000000000815260040160405180910390fd5b80935050505090565b60008060208361224491906138fa565b90506000369050811115612284576040517f5796f78a00000000000000000000000000000000000000000000000000000000815260040160405180910390fd5b80360335915050919050565b600080600061229e846122fd565b91509150604e8160206122b191906138fa565b836122bc9190613a48565b6122c691906138fa565b92505050919050565b60006122de8360000183612373565b905092915050565b60006122f58360000183612487565b905092915050565b600080600080600060418661231291906138fa565b9050600061233960208361232691906138fa565b60003690506124f790919063ffffffff16565b9050803593506123536003826124f790919063ffffffff16565b9050803592508362ffffff1695508263ffffffff16945050505050915091565b6000808360010160008481526020019081526020016000205490506000811461247b5760006001826123a59190613a8a565b90506000600186600001805490506123bd9190613a8a565b905081811461242c5760008660000182815481106123de576123dd613abe565b5b906000526020600020015490508087600001848154811061240257612401613abe565b5b90600052602060002001819055508387600101600083815260200190815260200160002081905550505b856000018054806124405761243f613aed565b5b600190038181906000526020600020016000905590558560010160008681526020019081526020016000206000905560019350505050612481565b60009150505b92915050565b6000612493838361250d565b6124ec5782600001829080600181540180825580915050600190039060005260206000200160009091909190915055826000018054905083600101600084815260200190815260200160002081905550600190506124f1565b600090505b92915050565b600081836125059190613a8a565b905092915050565b600080836001016000848152602001908152602001600020541415905092915050565b6040518060800160405280606081526020016060815260200160608152602001606081525090565b6000604051905090565b600080fd5b600080fd5b600080fd5b6000601f19601f8301169050919050565b7f4e487b7100000000000000000000000000000000000000000000000000000000600052604160045260246000fd5b6125ba82612571565b810181811067ffffffffffffffff821117156125d9576125d8612582565b5b80604052505050565b60006125ec612558565b90506125f882826125b1565b919050565b600067ffffffffffffffff82111561261857612617612582565b5b602082029050602081019050919050565b600080fd5b6000819050919050565b6126418161262e565b811461264c57600080fd5b50565b60008135905061265e81612638565b92915050565b6000612677612672846125fd565b6125e2565b9050808382526020820190506020840283018581111561269a57612699612629565b5b835b818110156126c357806126af888261264f565b84526020840193505060208101905061269c565b5050509392505050565b600082601f8301126126e2576126e161256c565b5b81356126f2848260208601612664565b91505092915050565b60006020828403121561271157612710612562565b5b600082013567ffffffffffffffff81111561272f5761272e612567565b5b61273b848285016126cd565b91505092915050565b600081519050919050565b600082825260208201905092915050565b6000819050602082019050919050565b6000819050919050565b61278381612770565b82525050565b6000612795838361277a565b60208301905092915050565b6000602082019050919050565b60006127b982612744565b6127c3818561274f565b93506127ce83612760565b8060005b838110156127ff5781516127e68882612789565b97506127f1836127a1565b9250506001810190506127d2565b5085935050505092915050565b6000602082019050818103600083015261282681846127ae565b905092915050565b61283781612770565b811461284257600080fd5b50565b6000813590506128548161282e565b92915050565b6000602082840312156128705761286f612562565b5b600061287e84828501612845565b91505092915050565b60006020828403121561289d5761289c612562565b5b60006128ab8482850161264f565b91505092915050565b6128bd81612770565b82525050565b60006020820190506128d860008301846128b4565b92915050565b600067ffffffffffffffff8211156128f9576128f8612582565b5b602082029050602081019050919050565b600080fd5b600080fd5b60006040828403121561292a5761292961290a565b5b61293460406125e2565b905060006129448482850161264f565b600083015250602061295884828501612845565b60208301525092915050565b6000612977612972846128de565b6125e2565b9050808382526020820190506040840283018581111561299a57612999612629565b5b835b818110156129c357806129af8882612914565b84526020840193505060408101905061299c565b5050509392505050565b600082601f8301126129e2576129e161256c565b5b81356129f2848260208601612964565b91505092915050565b600080600060608486031215612a1457612a13612562565b5b600084013567ffffffffffffffff811115612a3257612a31612567565b5b612a3e868287016129cd565b935050602084013567ffffffffffffffff811115612a5f57612a5e612567565b5b612a6b868287016129cd565b925050604084013567ffffffffffffffff811115612a8c57612a8b612567565b5b612a98868287016129cd565b9150509250925092565b600081519050919050565b600082825260208201905092915050565b6000819050602082019050919050565b612ad78161262e565b82525050565b604082016000820151612af36000850182612ace565b506020820151612b06602085018261277a565b50505050565b6000612b188383612add565b60408301905092915050565b6000602082019050919050565b6000612b3c82612aa2565b612b468185612aad565b9350612b5183612abe565b8060005b83811015612b82578151612b698882612b0c565b9750612b7483612b24565b925050600181019050612b55565b5085935050505092915050565b60006080830160008301518482036000860152612bac8282612b31565b91505060208301518482036020860152612bc68282612b31565b91505060408301518482036040860152612be08282612b31565b91505060608301518482036060860152612bfa8282612b31565b9150508091505092915050565b60006020820190508181036000830152612c218184612b8f565b905092915050565b600081519050919050565b600082825260208201905092915050565b6000819050602082019050919050565b6000612c618383612ace565b60208301905092915050565b6000602082019050919050565b6000612c8582612c29565b612c8f8185612c34565b9350612c9a83612c45565b8060005b83811015612ccb578151612cb28882612c55565b9750612cbd83612c6d565b925050600181019050612c9e565b5085935050505092915050565b60006020820190508181036000830152612cf28184612c7a565b905092915050565b600067ffffffffffffffff821115612d1557612d14612582565b5b602082029050602081019050919050565b600081519050612d358161282e565b92915050565b6000612d4e612d4984612cfa565b6125e2565b90508083825260208201905060208402830185811115612d7157612d70612629565b5b835b81811015612d9a5780612d868882612d26565b845260208401935050602081019050612d73565b5050509392505050565b600082601f830112612db957612db861256c565b5b8151612dc9848260208601612d3b565b91505092915050565b600060208284031215612de857612de7612562565b5b600082015167ffffffffffffffff811115612e0657612e05612567565b5b612e1284828501612da4565b91505092915050565b600082825260208201905092915050565b7f5265656e7472616e637947756172643a207265656e7472616e742063616c6c00600082015250565b6000612e62601f83612e1b565b9150612e6d82612e2c565b602082019050919050565b60006020820190508181036000830152612e9181612e55565b9050919050565b7f54686520616374696f6e206d617920636175736520616e206163636f756e742060008201527f746f206265636f6d6520696e736f6c76656e7400000000000000000000000000602082015250565b6000612ef4603383612e1b565b9150612eff82612e98565b604082019050919050565b60006020820190508181036000830152612f2381612ee7565b9050919050565b612f338161262e565b82525050565b6000602082019050612f4e6000830184612f2a565b92915050565b600060208284031215612f6a57612f69612562565b5b6000612f7884828501612d26565b91505092915050565b600073ffffffffffffffffffffffffffffffffffffffff82169050919050565b6000612fac82612f81565b9050919050565b612fbc81612fa1565b82525050565b6000602082019050612fd76000830184612fb3565b92915050565b7f43616e6e6f7420756e7374616b65206d6f7265207468616e2077617320696e6960008201527f7469616c6c79207374616b656400000000000000000000000000000000000000602082015250565b6000613039602d83612e1b565b915061304482612fdd565b604082019050919050565b600060208201905081810360008301526130688161302c565b9050919050565b600060408201905061308460008301856128b4565b61309160208301846128b4565b9392505050565b7f43616e6e6f74207374616b65203020746f6b656e730000000000000000000000600082015250565b60006130ce601583612e1b565b91506130d982613098565b602082019050919050565b600060208201905081810360008301526130fd816130c1565b9050919050565b7f4e6f7420656e6f756768204156415820617661696c61626c6500000000000000600082015250565b600061313a601983612e1b565b915061314582613104565b602082019050919050565b600060208201905081810360008301526131698161312d565b9050919050565b600082825260208201905092915050565b600061318c82612aa2565b6131968185613170565b93506131a183612abe565b8060005b838110156131d25781516131b98882612b0c565b97506131c483612b24565b9250506001810190506131a5565b5085935050505092915050565b600060608201905081810360008301526131f98186613181565b9050818103602083015261320d8185613181565b905081810360408301526132218184613181565b9050949350505050565b60008151905061323a81612638565b92915050565b6000604082840312156132565761325561290a565b5b61326060406125e2565b905060006132708482850161322b565b600083015250602061328484828501612d26565b60208301525092915050565b60006132a361329e846128de565b6125e2565b905080838252602082019050604084028301858111156132c6576132c5612629565b5b835b818110156132ef57806132db8882613240565b8452602084019350506040810190506132c8565b5050509392505050565b600082601f83011261330e5761330d61256c565b5b815161331e848260208601613290565b91505092915050565b60006080828403121561333d5761333c61290a565b5b61334760806125e2565b9050600082015167ffffffffffffffff8111156133675761336661290f565b5b613373848285016132f9565b600083015250602082015167ffffffffffffffff8111156133975761339661290f565b5b6133a3848285016132f9565b602083015250604082015167ffffffffffffffff8111156133c7576133c661290f565b5b6133d3848285016132f9565b604083015250606082015167ffffffffffffffff8111156133f7576133f661290f565b5b613403848285016132f9565b60608301525092915050565b60006020828403121561342557613424612562565b5b600082015167ffffffffffffffff81111561344357613442612567565b5b61344f84828501613327565b91505092915050565b60007fffffffff0000000000000000000000000000000000000000000000000000000082169050919050565b61348d81613458565b82525050565b60006020820190506134a86000830184613484565b92915050565b6134b781612fa1565b81146134c257600080fd5b50565b6000815190506134d4816134ae565b92915050565b6000602082840312156134f0576134ef612562565b5b60006134fe848285016134c5565b91505092915050565b600081519050919050565b600081905092915050565b60005b8381101561353b578082015181840152602081019050613520565b60008484015250505050565b600061355282613507565b61355c8185613512565b935061356c81856020860161351d565b80840191505092915050565b60006135848284613547565b915081905092915050565b7f4469616d6f6e6453746f726167654c69623a204d75737420626520636f6e747260008201527f616374206f776e65720000000000000000000000000000000000000000000000602082015250565b60006135eb602983612e1b565b91506135f68261358f565b604082019050919050565b6000602082019050818103600083015261361a816135de565b9050919050565b60008115159050919050565b61363681613621565b811461364157600080fd5b50565b6000815190506136538161362d565b92915050565b60006020828403121561366f5761366e612562565b5b600061367d84828501613644565b91505092915050565b7f53796d626f6c2063616e6e6f7420626520656d70747900000000000000000000600082015250565b60006136bc601683612e1b565b91506136c782613686565b602082019050919050565b600060208201905081810360008301526136eb816136af565b9050919050565b7f496e76616c696420416464726573735a65726f00000000000000000000000000600082015250565b6000613728601383612e1b565b9150613733826136f2565b602082019050919050565b600060208201905081810360008301526137578161371b565b9050919050565b7f546f6b656e206e6f7420737570706f7274656400000000000000000000000000600082015250565b6000613794601383612e1b565b915061379f8261375e565b602082019050919050565b600060208201905081810360008301526137c381613787565b9050919050565b7f5661756c7420746f6b656e206e6f7420737570706f7274656400000000000000600082015250565b6000613800601983612e1b565b915061380b826137ca565b602082019050919050565b6000602082019050818103600083015261382f816137f3565b9050919050565b7f4e6f7420656e6f75676820746f6b656e20617661696c61626c65000000000000600082015250565b600061386c601a83612e1b565b915061387782613836565b602082019050919050565b6000602082019050818103600083015261389b8161385f565b9050919050565b60006040820190506138b76000830185612fb3565b6138c460208301846128b4565b9392505050565b7f4e487b7100000000000000000000000000000000000000000000000000000000600052601160045260246000fd5b600061390582612770565b915061391083612770565b9250828201905080821115613928576139276138cb565b5b92915050565b600081519050919050565b60006139448261392e565b61394e8185612e1b565b935061395e81856020860161351d565b61396781612571565b840191505092915050565b6000602082019050818103600083015261398c8184613939565b905092915050565b600082825260208201905092915050565b60006139b082613507565b6139ba8185613994565b93506139ca81856020860161351d565b6139d381612571565b840191505092915050565b600060208201905081810360008301526139f881846139a5565b905092915050565b6000613a0b82612770565b91507fffffffffffffffffffffffffffffffffffffffffffffffffffffffffffffffff8203613a3d57613a3c6138cb565b5b600182019050919050565b6000613a5382612770565b9150613a5e83612770565b9250828202613a6c81612770565b91508282048414831517613a8357613a826138cb565b5b5092915050565b6000613a9582612770565b9150613aa083612770565b9250828203905081811115613ab857613ab76138cb565b5b92915050565b7f4e487b7100000000000000000000000000000000000000000000000000000000600052603260045260246000fd5b7f4e487b7100000000000000000000000000000000000000000000000000000000600052603160045260246000fdfea264697066735822122050469bed42480c192084f96323c5733ddade98e61af74909409f89426167d46e64736f6c63430008110033",
  "devdoc": {
    "events": {
      "Staked(address,bytes32,address,uint256,uint256)": {
        "details": "emitted when user stakes an asset",
        "params": {
          "amount": "of the asset that was staked",
          "asset": "the asset that was staked",
          "timestamp": "of staking*",
          "user": "the address executing staking",
          "vault": "address of the vault token"
        }
      },
      "Unstaked(address,bytes32,address,uint256,uint256)": {
        "details": "emitted when user unstakes an asset",
        "params": {
          "amount": "of the asset that was unstaked",
          "asset": "the asset that was unstaked",
          "timestamp": "of unstaking*",
          "user": "the address executing unstaking",
          "vault": "address of the vault token"
        }
      }
    },
    "kind": "dev",
    "methods": {
      "stakeAVAXYak(uint256)": {
        "details": "This function uses the redstone-evm-connector",
        "params": {
          "amount": "amount of AVAX to be staked*"
        }
      },
      "stakeSAVAXYak(uint256)": {
        "details": "This function uses the redstone-evm-connector",
        "params": {
          "amount": "amount of sAVAX to be staked*"
        }
      },
      "stakeTJAVAXUSDCYak(uint256)": {
        "details": "This function uses the redstone-evm-connector",
        "params": {
          "amount": "amount of TJ_AVAX_USDC to be staked*"
        }
      },
      "unstakeAVAXYak(uint256)": {
        "details": "This function uses the redstone-evm-connector",
        "params": {
          "amount": "amount of AVAX to be unstaked*"
        }
      }
    },
    "version": 1
  },
  "userdoc": {
    "kind": "user",
    "methods": {
      "stakeAVAXYak(uint256)": {
        "notice": "Stakes AVAX in Yield Yak protocol"
      },
      "stakeSAVAXYak(uint256)": {
        "notice": "Stakes sAVAX in Yield Yak protocol"
      },
      "stakeTJAVAXUSDCYak(uint256)": {
        "notice": "Stakes TJ_AVAX_USDC in Yield Yak protocol"
      },
      "unstakeAVAXYak(uint256)": {
        "notice": "Unstakes AVAX from Yield Yak protocol"
      }
    },
    "version": 1
  },
  "storageLayout": {
    "storage": [
      {
        "astId": 9549,
        "contract": "contracts/facets/avalanche/YieldYakFacet.sol:YieldYakFacet",
        "label": "_status",
        "offset": 0,
        "slot": "0",
        "type": "t_uint256"
      }
    ],
    "types": {
      "t_uint256": {
        "encoding": "inplace",
        "label": "uint256",
        "numberOfBytes": "32"
      }
    }
  }
}