{
  "_format": "hh-sol-artifact-1",
  "contractName": "UtilisationRatesCalculator",
  "sourceName": "contracts/deprecated/UtilisationRatesCalculator.sol",
  "abi": [
    {
      "inputs": [
        {
          "internalType": "uint256",
          "name": "_utilisationFactor",
          "type": "uint256"
        },
        {
          "internalType": "uint256",
          "name": "_offset",
          "type": "uint256"
        }
      ],
      "stateMutability": "nonpayable",
      "type": "constructor"
    },
    {
      "anonymous": false,
      "inputs": [
        {
          "indexed": true,
          "internalType": "address",
          "name": "previousOwner",
          "type": "address"
        },
        {
          "indexed": true,
          "internalType": "address",
          "name": "newOwner",
          "type": "address"
        }
      ],
      "name": "OwnershipTransferred",
      "type": "event"
    },
    {
      "anonymous": false,
      "inputs": [
        {
          "indexed": false,
          "internalType": "uint256",
          "name": "utilisationFactor",
          "type": "uint256"
        },
        {
          "indexed": false,
          "internalType": "uint256",
          "name": "offset",
          "type": "uint256"
        }
      ],
      "name": "ParametersUpdated",
      "type": "event"
    },
    {
      "inputs": [
        {
          "internalType": "uint256",
          "name": "_totalLoans",
          "type": "uint256"
        },
        {
          "internalType": "uint256",
          "name": "_totalDeposits",
          "type": "uint256"
        }
      ],
      "name": "calculateBorrowingRate",
      "outputs": [
        {
          "internalType": "uint256",
          "name": "",
          "type": "uint256"
        }
      ],
      "stateMutability": "view",
      "type": "function"
    },
    {
      "inputs": [
        {
          "internalType": "uint256",
          "name": "_totalLoans",
          "type": "uint256"
        },
        {
          "internalType": "uint256",
          "name": "_totalDeposits",
          "type": "uint256"
        }
      ],
      "name": "calculateDepositRate",
      "outputs": [
        {
          "internalType": "uint256",
          "name": "",
          "type": "uint256"
        }
      ],
      "stateMutability": "view",
      "type": "function"
    },
    {
      "inputs": [
        {
          "internalType": "uint256",
          "name": "_totalLoans",
          "type": "uint256"
        },
        {
          "internalType": "uint256",
          "name": "_totalDeposits",
          "type": "uint256"
        }
      ],
      "name": "getPoolUtilisation",
      "outputs": [
        {
          "internalType": "uint256",
          "name": "",
          "type": "uint256"
        }
      ],
      "stateMutability": "pure",
      "type": "function"
    },
    {
      "inputs": [],
      "name": "owner",
      "outputs": [
        {
          "internalType": "address",
          "name": "",
          "type": "address"
        }
      ],
      "stateMutability": "view",
      "type": "function"
    },
    {
      "inputs": [],
      "name": "renounceOwnership",
      "outputs": [],
      "stateMutability": "nonpayable",
      "type": "function"
    },
    {
      "inputs": [
        {
          "internalType": "uint256",
          "name": "_utilisationFactor",
          "type": "uint256"
        },
        {
          "internalType": "uint256",
          "name": "_offset",
          "type": "uint256"
        }
      ],
      "name": "setParameters",
      "outputs": [],
      "stateMutability": "nonpayable",
      "type": "function"
    },
    {
      "inputs": [
        {
          "internalType": "address",
          "name": "newOwner",
          "type": "address"
        }
      ],
      "name": "transferOwnership",
      "outputs": [],
      "stateMutability": "nonpayable",
      "type": "function"
    }
  ],
  "bytecode": "0x60806040523480156200001157600080fd5b506040516200131d3803806200131d8339818101604052810190620000379190620002f5565b620000576200004b6200007160201b60201c565b6200007960201b60201c565b6200006982826200013d60201b60201c565b50506200054b565b600033905090565b60008060009054906101000a900473ffffffffffffffffffffffffffffffffffffffff169050816000806101000a81548173ffffffffffffffffffffffffffffffffffffffff021916908373ffffffffffffffffffffffffffffffffffffffff1602179055508173ffffffffffffffffffffffffffffffffffffffff168173ffffffffffffffffffffffffffffffffffffffff167f8be0079c531659141344cd1fd0a4f28419497f9722a3daafe3b4186f6b6457e060405160405180910390a35050565b6200014d6200007160201b60201c565b73ffffffffffffffffffffffffffffffffffffffff1662000173620002b560201b60201c565b73ffffffffffffffffffffffffffffffffffffffff1614620001cc576040517f08c379a0000000000000000000000000000000000000000000000000000000008152600401620001c39062000400565b60405180910390fd5b670de0b6b3a76400008211156200021a576040517f08c379a00000000000000000000000000000000000000000000000000000000081526004016200021190620003bc565b60405180910390fd5b670de0b6b3a764000081111562000268576040517f08c379a00000000000000000000000000000000000000000000000000000000081526004016200025f90620003de565b60405180910390fd5b81600181905550806002819055507ffaccb0639ff7851e0e24f3b2d9ab03cd62ffb63f5b4d90aaeff85bb078c1fa488282604051620002a992919062000422565b60405180910390a15050565b60008060009054906101000a900473ffffffffffffffffffffffffffffffffffffffff16905090565b600081519050620002ef8162000531565b92915050565b600080604083850312156200030957600080fd5b60006200031985828601620002de565b92505060206200032c85828601620002de565b9150509250929050565b600062000345602c836200044f565b915062000352826200046a565b604082019050919050565b60006200036c602c836200044f565b91506200037982620004b9565b604082019050919050565b6000620003936020836200044f565b9150620003a08262000508565b602082019050919050565b620003b68162000460565b82525050565b60006020820190508181036000830152620003d78162000336565b9050919050565b60006020820190508181036000830152620003f9816200035d565b9050919050565b600060208201905081810360008301526200041b8162000384565b9050919050565b6000604082019050620004396000830185620003ab565b620004486020830184620003ab565b9392505050565b600082825260208201905092915050565b6000819050919050565b7f43616c63756c61746f7220666163746f72206d757374206e6f7420626520686960008201527f67686572207468616e20312e0000000000000000000000000000000000000000602082015250565b7f43616c63756c61746f72206f6666736574206d757374206e6f7420626520686960008201527f67686572207468616e20312e0000000000000000000000000000000000000000602082015250565b7f4f776e61626c653a2063616c6c6572206973206e6f7420746865206f776e6572600082015250565b6200053c8162000460565b81146200054857600080fd5b50565b610dc2806200055b6000396000f3fe608060405234801561001057600080fd5b506004361061007d5760003560e01c80638da5cb5b1161005b5780638da5cb5b146100d85780639ceca965146100f6578063df841eec14610126578063f2fde38b146101565761007d565b8063715018a6146100825780637cd083311461008c578063884870c7146100bc575b600080fd5b61008a610172565b005b6100a660048036038101906100a191906108f7565b6101fa565b6040516100b39190610a78565b60405180910390f35b6100d660048036038101906100d191906108f7565b61037e565b005b6100e06104db565b6040516100ed91906109dd565b60405180910390f35b610110600480360381019061010b91906108f7565b610504565b60405161011d9190610a78565b60405180910390f35b610140600480360381019061013b91906108f7565b61054b565b60405161014d9190610a78565b60405180910390f35b610170600480360381019061016b91906108a5565b6105b7565b005b61017a6106af565b73ffffffffffffffffffffffffffffffffffffffff166101986104db565b73ffffffffffffffffffffffffffffffffffffffff16146101ee576040517f08c379a00000000000000000000000000000000000000000000000000000000081526004016101e590610a58565b60405180910390fd5b6101f860006106b7565b565b60008082141561020d5760009050610378565b8183106102a6573073ffffffffffffffffffffffffffffffffffffffff1663df841eec84846040518363ffffffff1660e01b815260040161024f929190610a93565b60206040518083038186803b15801561026757600080fd5b505afa15801561027b573d6000803e3d6000fd5b505050506040513d601f19601f8201168201806040525081019061029f91906108ce565b9050610378565b6103756103706102b58461077b565b6103626102c18761077b565b6103543073ffffffffffffffffffffffffffffffffffffffff1663df841eec8a8a6040518363ffffffff1660e01b81526004016102ff929190610a93565b60206040518083038186803b15801561031757600080fd5b505afa15801561032b573d6000803e3d6000fd5b505050506040513d601f19601f8201168201806040525081019061034f91906108ce565b61077b565b61079490919063ffffffff16565b6107e490919063ffffffff16565b61082d565b90505b92915050565b6103866106af565b73ffffffffffffffffffffffffffffffffffffffff166103a46104db565b73ffffffffffffffffffffffffffffffffffffffff16146103fa576040517f08c379a00000000000000000000000000000000000000000000000000000000081526004016103f190610a58565b60405180910390fd5b670de0b6b3a7640000821115610445576040517f08c379a000000000000000000000000000000000000000000000000000000000815260040161043c90610a18565b60405180910390fd5b670de0b6b3a7640000811115610490576040517f08c379a000000000000000000000000000000000000000000000000000000000815260040161048790610a38565b60405180910390fd5b81600181905550806002819055507ffaccb0639ff7851e0e24f3b2d9ab03cd62ffb63f5b4d90aaeff85bb078c1fa4882826040516104cf929190610a93565b60405180910390a15050565b60008060009054906101000a900473ffffffffffffffffffffffffffffffffffffffff16905090565b6000808214156105175760009050610545565b61054261053d6105268461077b565b61052f8661077b565b6107e490919063ffffffff16565b61082d565b90505b92915050565b600081831061056b576002546001546105649190610acd565b90506105b1565b6002546105a461059f61057f60015461077b565b61059161058c8888610504565b61077b565b61079490919063ffffffff16565b61082d565b6105ae9190610acd565b90505b92915050565b6105bf6106af565b73ffffffffffffffffffffffffffffffffffffffff166105dd6104db565b73ffffffffffffffffffffffffffffffffffffffff1614610633576040517f08c379a000000000000000000000000000000000000000000000000000000000815260040161062a90610a58565b60405180910390fd5b600073ffffffffffffffffffffffffffffffffffffffff168173ffffffffffffffffffffffffffffffffffffffff1614156106a3576040517f08c379a000000000000000000000000000000000000000000000000000000000815260040161069a906109f8565b60405180910390fd5b6106ac816106b7565b50565b600033905090565b60008060009054906101000a900473ffffffffffffffffffffffffffffffffffffffff169050816000806101000a81548173ffffffffffffffffffffffffffffffffffffffff021916908373ffffffffffffffffffffffffffffffffffffffff1602179055508173ffffffffffffffffffffffffffffffffffffffff168173ffffffffffffffffffffffffffffffffffffffff167f8be0079c531659141344cd1fd0a4f28419497f9722a3daafe3b4186f6b6457e060405160405180910390a35050565b6000633b9aca008261078d9190610b54565b9050919050565b60006b033b2e3c9fd0803ce800000082846107af9190610b54565b60026b033b2e3c9fd0803ce80000006107c89190610b23565b6107d29190610acd565b6107dc9190610b23565b905092915050565b6000806002836107f49190610b23565b9050826b033b2e3c9fd0803ce80000008561080f9190610b54565b8261081a9190610acd565b6108249190610b23565b91505092915050565b6000806002633b9aca006108419190610b23565b9050633b9aca0083826108549190610acd565b61085e9190610b23565b915050919050565b60008135905061087581610d5e565b92915050565b60008135905061088a81610d75565b92915050565b60008151905061089f81610d75565b92915050565b6000602082840312156108b757600080fd5b60006108c584828501610866565b91505092915050565b6000602082840312156108e057600080fd5b60006108ee84828501610890565b91505092915050565b6000806040838503121561090a57600080fd5b60006109188582860161087b565b92505060206109298582860161087b565b9150509250929050565b61093c81610bae565b82525050565b600061094f602683610abc565b915061095a82610c48565b604082019050919050565b6000610972602c83610abc565b915061097d82610c97565b604082019050919050565b6000610995602c83610abc565b91506109a082610ce6565b604082019050919050565b60006109b8602083610abc565b91506109c382610d35565b602082019050919050565b6109d781610be0565b82525050565b60006020820190506109f26000830184610933565b92915050565b60006020820190508181036000830152610a1181610942565b9050919050565b60006020820190508181036000830152610a3181610965565b9050919050565b60006020820190508181036000830152610a5181610988565b9050919050565b60006020820190508181036000830152610a71816109ab565b9050919050565b6000602082019050610a8d60008301846109ce565b92915050565b6000604082019050610aa860008301856109ce565b610ab560208301846109ce565b9392505050565b600082825260208201905092915050565b6000610ad882610be0565b9150610ae383610be0565b9250827fffffffffffffffffffffffffffffffffffffffffffffffffffffffffffffffff03821115610b1857610b17610bea565b5b828201905092915050565b6000610b2e82610be0565b9150610b3983610be0565b925082610b4957610b48610c19565b5b828204905092915050565b6000610b5f82610be0565b9150610b6a83610be0565b9250817fffffffffffffffffffffffffffffffffffffffffffffffffffffffffffffffff0483118215151615610ba357610ba2610bea565b5b828202905092915050565b6000610bb982610bc0565b9050919050565b600073ffffffffffffffffffffffffffffffffffffffff82169050919050565b6000819050919050565b7f4e487b7100000000000000000000000000000000000000000000000000000000600052601160045260246000fd5b7f4e487b7100000000000000000000000000000000000000000000000000000000600052601260045260246000fd5b7f4f776e61626c653a206e6577206f776e657220697320746865207a65726f206160008201527f6464726573730000000000000000000000000000000000000000000000000000602082015250565b7f43616c63756c61746f7220666163746f72206d757374206e6f7420626520686960008201527f67686572207468616e20312e0000000000000000000000000000000000000000602082015250565b7f43616c63756c61746f72206f6666736574206d757374206e6f7420626520686960008201527f67686572207468616e20312e0000000000000000000000000000000000000000602082015250565b7f4f776e61626c653a2063616c6c6572206973206e6f7420746865206f776e6572600082015250565b610d6781610bae565b8114610d7257600080fd5b50565b610d7e81610be0565b8114610d8957600080fd5b5056fea2646970667358221220019e772e91e20e794a49b737fedbd474c2c033b0512af872142c42be2aadd58964736f6c63430008040033",
  "linkReferences": {},
  "deployedLinkReferences": {}
}