{
  "_format": "hh-sol-artifact-1",
  "contractName": "SimpleContract",
  "sourceName": "contracts/mock/SimpleContract.sol",
  "abi": [
    {
      "inputs": [],
      "name": "getHello",
      "outputs": [
        {
          "internalType": "string",
          "name": "",
          "type": "string"
        }
      ],
      "stateMutability": "view",
      "type": "function"
    }
  ],
  "bytecode": "0x608060405234801561001057600080fd5b5061011e806100206000396000f3fe6080604052348015600f57600080fd5b506004361060285760003560e01c80638da9b77214602d575b600080fd5b603360ab565b6040518080602001828103825283818151815260200191508051906020019080838360005b8381101560715780820151818401526020810190506058565b50505050905090810190601f168015609d5780820380516001836020036101000a031916815260200191505b509250505060405180910390f35b60606040518060400160405280600b81526020017f48656c6c6f20776f726c6400000000000000000000000000000000000000000081525090509056fea26469706673582212209a8d6f1282cecbdf130d6962b2ff9b109f24616c4209b1ff4ac29c2b1ed1161d64736f6c63430006060033",
  "linkReferences": {},
  "deployedLinkReferences": {}
}