{
  "address": "0x7969c5eD335650692Bc04293B07F5BF2e7A673C0",
  "abi": [
    {
      "anonymous": false,
      "inputs": [
        {
          "components": [
            {
              "internalType": "bytes32",
              "name": "asset",
              "type": "bytes32"
            },
            {
              "internalType": "address",
              "name": "assetAddress",
              "type": "address"
            }
          ],
          "indexed": false,
          "internalType": "struct IAssetsExchange.Asset[]",
          "name": "assets",
          "type": "tuple[]"
        }
      ],
      "name": "AssetsAdded",
      "type": "event"
    },
    {
      "anonymous": false,
      "inputs": [
        {
          "indexed": false,
          "internalType": "bytes32[]",
          "name": "removedAssets",
          "type": "bytes32[]"
        }
      ],
      "name": "AssetsRemoved",
      "type": "event"
    },
    {
      "anonymous": false,
      "inputs": [
        {
          "indexed": true,
          "internalType": "address",
          "name": "previousOwner",
          "type": "address"
        },
        {
          "indexed": true,
          "internalType": "address",
          "name": "newOwner",
          "type": "address"
        }
      ],
      "name": "OwnershipTransferred",
      "type": "event"
    },
    {
      "anonymous": false,
      "inputs": [
        {
          "indexed": true,
          "internalType": "address",
          "name": "buyer",
          "type": "address"
        },
        {
          "indexed": false,
          "internalType": "uint256",
          "name": "amount",
          "type": "uint256"
        },
        {
          "indexed": false,
          "internalType": "uint256",
          "name": "timestamp",
          "type": "uint256"
        },
        {
          "indexed": false,
          "internalType": "bool",
          "name": "success",
          "type": "bool"
        }
      ],
      "name": "TokenPurchase",
      "type": "event"
    },
    {
      "anonymous": false,
      "inputs": [
        {
          "indexed": true,
          "internalType": "address",
          "name": "seller",
          "type": "address"
        },
        {
          "indexed": false,
          "internalType": "uint256",
          "name": "amount",
          "type": "uint256"
        },
        {
          "indexed": false,
          "internalType": "uint256",
          "name": "timestamp",
          "type": "uint256"
        },
        {
          "indexed": false,
          "internalType": "bool",
          "name": "success",
          "type": "bool"
        }
      ],
      "name": "TokenSell",
      "type": "event"
    },
    {
      "inputs": [
        {
          "internalType": "bytes32",
          "name": "_token",
          "type": "bytes32"
        },
        {
          "internalType": "uint256",
          "name": "_exactERC20AmountOut",
          "type": "uint256"
        }
      ],
      "name": "buyAsset",
      "outputs": [
        {
          "internalType": "bool",
          "name": "",
          "type": "bool"
        }
      ],
      "stateMutability": "payable",
      "type": "function"
    },
    {
      "inputs": [],
      "name": "getAllAssets",
      "outputs": [
        {
          "internalType": "bytes32[]",
          "name": "result",
          "type": "bytes32[]"
        }
      ],
      "stateMutability": "view",
      "type": "function"
    },
    {
      "inputs": [
        {
          "internalType": "bytes32",
          "name": "_asset",
          "type": "bytes32"
        }
      ],
      "name": "getAssetAddress",
      "outputs": [
        {
          "internalType": "address",
          "name": "",
          "type": "address"
        }
      ],
      "stateMutability": "view",
      "type": "function"
    },
    {
      "inputs": [
        {
          "internalType": "uint256",
          "name": "_exactAmountOut",
          "type": "uint256"
        },
        {
          "internalType": "address",
          "name": "_token",
          "type": "address"
        }
      ],
      "name": "getEstimatedAVAXForERC20Token",
      "outputs": [
        {
          "internalType": "uint256",
          "name": "",
          "type": "uint256"
        }
      ],
      "stateMutability": "view",
      "type": "function"
    },
    {
      "inputs": [
        {
          "internalType": "uint256",
          "name": "_amountIn",
          "type": "uint256"
        },
        {
          "internalType": "address",
          "name": "_token",
          "type": "address"
        }
      ],
      "name": "getEstimatedAVAXFromERC20Token",
      "outputs": [
        {
          "internalType": "uint256",
          "name": "",
          "type": "uint256"
        }
      ],
      "stateMutability": "view",
      "type": "function"
    },
    {
      "inputs": [
        {
          "internalType": "uint256",
          "name": "_exactAmountOut",
          "type": "uint256"
        },
        {
          "internalType": "address",
          "name": "_token",
          "type": "address"
        }
      ],
      "name": "getMinimumERC20TokenAmountForExactAVAX",
      "outputs": [
        {
          "internalType": "uint256",
          "name": "",
          "type": "uint256"
        }
      ],
      "stateMutability": "view",
      "type": "function"
    },
    {
      "inputs": [
        {
          "internalType": "address",
          "name": "_pangolinRouter",
          "type": "address"
        },
        {
          "components": [
            {
              "internalType": "bytes32",
              "name": "asset",
              "type": "bytes32"
            },
            {
              "internalType": "address",
              "name": "assetAddress",
              "type": "address"
            }
          ],
          "internalType": "struct IAssetsExchange.Asset[]",
          "name": "supportedAssets",
          "type": "tuple[]"
        }
      ],
      "name": "initialize",
      "outputs": [],
      "stateMutability": "nonpayable",
      "type": "function"
    },
    {
      "inputs": [],
      "name": "owner",
      "outputs": [
        {
          "internalType": "address",
          "name": "",
          "type": "address"
        }
      ],
      "stateMutability": "view",
      "type": "function"
    },
    {
      "inputs": [
        {
          "internalType": "bytes32[]",
          "name": "_assets",
          "type": "bytes32[]"
        }
      ],
      "name": "removeAssets",
      "outputs": [],
      "stateMutability": "nonpayable",
      "type": "function"
    },
    {
      "inputs": [],
      "name": "renounceOwnership",
      "outputs": [],
      "stateMutability": "nonpayable",
      "type": "function"
    },
    {
      "inputs": [
        {
          "internalType": "bytes32",
          "name": "_token",
          "type": "bytes32"
        },
        {
          "internalType": "uint256",
          "name": "_exactERC20AmountIn",
          "type": "uint256"
        },
        {
          "internalType": "uint256",
          "name": "_minAvaxAmountOut",
          "type": "uint256"
        }
      ],
      "name": "sellAsset",
      "outputs": [
        {
          "internalType": "bool",
          "name": "",
          "type": "bool"
        }
      ],
      "stateMutability": "nonpayable",
      "type": "function"
    },
    {
      "inputs": [
        {
          "internalType": "address",
          "name": "newOwner",
          "type": "address"
        }
      ],
      "name": "transferOwnership",
      "outputs": [],
      "stateMutability": "nonpayable",
      "type": "function"
    },
    {
      "inputs": [
        {
          "components": [
            {
              "internalType": "bytes32",
              "name": "asset",
              "type": "bytes32"
            },
            {
              "internalType": "address",
              "name": "assetAddress",
              "type": "address"
            }
          ],
          "internalType": "struct IAssetsExchange.Asset[]",
          "name": "_assets",
          "type": "tuple[]"
        }
      ],
      "name": "updateAssets",
      "outputs": [],
      "stateMutability": "nonpayable",
      "type": "function"
    },
    {
      "stateMutability": "payable",
      "type": "receive"
    }
  ],
  "transactionHash": "0x935c186991ae04877d0462b29100d98bb2af455356c7f089188b54731bc903d6",
  "args": [],
  "numDeployments": 1,
  "solcInputHash": "c4e46a85630bb7270f525e6ee9a7c436",
  "bytecode": "0x608060405234801561001057600080fd5b50613523806100206000396000f3fe6080604052600436106100c65760003560e01c8063772ee3ae1161007f5780639ac34dd3116100595780639ac34dd314610278578063b171aa63146102b5578063c9fb2e76146102de578063f2fde38b1461031b576100cd565b8063772ee3ae146101e7578063774ca019146102105780638da5cb5b1461024d576100cd565b80632acada4d146100d25780632efefbe2146100fd57806348eedd6b146101265780635d8874e914610163578063715018a61461019357806376d02895146101aa576100cd565b366100cd57005b600080fd5b3480156100de57600080fd5b506100e7610344565b6040516100f49190612ab6565b60405180910390f35b34801561010957600080fd5b50610124600480360381019061011f919061238b565b6103a8565b005b34801561013257600080fd5b5061014d60048036038101906101489190612534565b6104e8565b60405161015a9190612afa565b60405180910390f35b61017d600480360381019061017891906124f8565b6108ac565b60405161018a9190612afa565b60405180910390f35b34801561019f57600080fd5b506101a8610b5e565b005b3480156101b657600080fd5b506101d160048036038101906101cc91906124cf565b610be6565b6040516101de9190612a4e565b60405180910390f35b3480156101f357600080fd5b5061020e60048036038101906102099190612424565b610c70565b005b34801561021c57600080fd5b50610237600480360381019061023291906125ac565b610cf8565b6040516102449190612cd5565b60405180910390f35b34801561025957600080fd5b50610262610e02565b60405161026f9190612a4e565b60405180910390f35b34801561028457600080fd5b5061029f600480360381019061029a91906125ac565b610e2c565b6040516102ac9190612cd5565b60405180910390f35b3480156102c157600080fd5b506102dc60048036038101906102d791906123df565b610f36565b005b3480156102ea57600080fd5b50610305600480360381019061030091906125ac565b61105c565b6040516103129190612cd5565b60405180910390f35b34801561032757600080fd5b50610342600480360381019061033d9190612362565b611166565b005b6060609860000160000160000160000180548060200260200160405190810160405280929190818152602001828054801561039e57602002820191906000526020600020905b81548152602001906001019080831161038a575b5050505050905090565b600060019054906101000a900460ff166103d05760008054906101000a900460ff16156103d9565b6103d861125e565b5b610418576040517f08c379a000000000000000000000000000000000000000000000000000000000815260040161040f90612b95565b60405180910390fd5b60008060019054906101000a900460ff161590508015610468576001600060016101000a81548160ff02191690831515021790555060016000806101000a81548160ff0219169083151502179055505b82609760006101000a81548173ffffffffffffffffffffffffffffffffffffffff021916908373ffffffffffffffffffffffffffffffffffffffff1602179055506104b28261126f565b6104ba61149a565b6104c26114f3565b80156104e35760008060016101000a81548160ff0219169083151502179055505b505050565b600060026065541415610530576040517f08c379a000000000000000000000000000000000000000000000000000000000815260040161052790612c95565b60405180910390fd5b60026065819055506000831161057b576040517f08c379a000000000000000000000000000000000000000000000000000000000815260040161057290612c35565b60405180910390fd5b600061058685610be6565b905060008190506105db609760009054906101000a900473ffffffffffffffffffffffffffffffffffffffff1660008373ffffffffffffffffffffffffffffffffffffffff1661154c9092919063ffffffff16565b610628609760009054906101000a900473ffffffffffffffffffffffffffffffffffffffff16868373ffffffffffffffffffffffffffffffffffffffff1661154c9092919063ffffffff16565b6000609760009054906101000a900473ffffffffffffffffffffffffffffffffffffffff1673ffffffffffffffffffffffffffffffffffffffff166000878761067087611682565b3342604051602401610686959493929190612d6c565b6040516020818303038152906040527f676528d1000000000000000000000000000000000000000000000000000000007bffffffffffffffffffffffffffffffffffffffffffffffffffffffff19166020820180517bffffffffffffffffffffffffffffffffffffffffffffffffffffffff83818316178352505050506040516107109190612a37565b60006040518083038185875af1925050503d806000811461074d576040519150601f19603f3d011682016040523d82523d6000602084013e610752565b606091505b505090508061081a5761080e338373ffffffffffffffffffffffffffffffffffffffff166370a08231306040518263ffffffff1660e01b81526004016107989190612a4e565b60206040518083038186803b1580156107b057600080fd5b505afa1580156107c4573d6000803e3d6000fd5b505050506040513d601f19601f820116820180604052508101906107e89190612583565b8473ffffffffffffffffffffffffffffffffffffffff166117ff9092919063ffffffff16565b6000935050505061089d565b610843473373ffffffffffffffffffffffffffffffffffffffff1661193590919063ffffffff16565b3373ffffffffffffffffffffffffffffffffffffffff167f288a4cc64e3791e9b02d1fb713d082cf2048067b99f04489649843493b87bc0c87428460405161088d93929190612dc6565b60405180910390a2600193505050505b60016065819055509392505050565b6000600260655414156108f4576040517f08c379a00000000000000000000000000000000000000000000000000000000081526004016108eb90612c95565b60405180910390fd5b60026065819055506000821415610940576040517f08c379a000000000000000000000000000000000000000000000000000000000815260040161093790612bf5565b60405180910390fd5b600061094b84610be6565b905060006109598483610cf8565b90508034101561099e576040517f08c379a000000000000000000000000000000000000000000000000000000000815260040161099590612b75565b60405180910390fd5b60006109a983611a5b565b90506000609760009054906101000a900473ffffffffffffffffffffffffffffffffffffffff1673ffffffffffffffffffffffffffffffffffffffff1634878433426040516024016109fe9493929190612d20565b6040516020818303038152906040527f8a657e67000000000000000000000000000000000000000000000000000000007bffffffffffffffffffffffffffffffffffffffffffffffffffffffff19166020820180517bffffffffffffffffffffffffffffffffffffffffffffffffffffffff8381831617835250505050604051610a889190612a37565b60006040518083038185875af1925050503d8060008114610ac5576040519150601f19603f3d011682016040523d82523d6000602084013e610aca565b606091505b50509050610af7473373ffffffffffffffffffffffffffffffffffffffff1661193590919063ffffffff16565b3373ffffffffffffffffffffffffffffffffffffffff167f7082d72127d5c79824d96471137e36c23d15988ccb0434a671f4dafc1ff86b64874284604051610b4193929190612dc6565b60405180910390a280945050505050600160658190555092915050565b610b66611bd8565b73ffffffffffffffffffffffffffffffffffffffff16610b84610e02565b73ffffffffffffffffffffffffffffffffffffffff1614610bda576040517f08c379a0000000000000000000000000000000000000000000000000000000008152600401610bd190612bb5565b60405180910390fd5b610be46000611be0565b565b600080610bf4609884611ca6565b915050600073ffffffffffffffffffffffffffffffffffffffff168173ffffffffffffffffffffffffffffffffffffffff161415610c67576040517f08c379a0000000000000000000000000000000000000000000000000000000008152600401610c5e90612cb5565b60405180910390fd5b80915050919050565b610c78611bd8565b73ffffffffffffffffffffffffffffffffffffffff16610c96610e02565b73ffffffffffffffffffffffffffffffffffffffff1614610cec576040517f08c379a0000000000000000000000000000000000000000000000000000000008152600401610ce390612bb5565b60405180910390fd5b610cf58161126f565b50565b600080610d0483611a5b565b9050609760009054906101000a900473ffffffffffffffffffffffffffffffffffffffff1673ffffffffffffffffffffffffffffffffffffffff16631f00ca7485836040518363ffffffff1660e01b8152600401610d63929190612cf0565b60006040518083038186803b158015610d7b57600080fd5b505afa158015610d8f573d6000803e3d6000fd5b505050506040513d6000823e3d601f19601f82011682018060405250810190610db89190612465565b600081518110610df1577f4e487b7100000000000000000000000000000000000000000000000000000000600052603260045260246000fd5b602002602001015191505092915050565b6000603360009054906101000a900473ffffffffffffffffffffffffffffffffffffffff16905090565b600080610e3883611682565b9050609760009054906101000a900473ffffffffffffffffffffffffffffffffffffffff1673ffffffffffffffffffffffffffffffffffffffff16631f00ca7485836040518363ffffffff1660e01b8152600401610e97929190612cf0565b60006040518083038186803b158015610eaf57600080fd5b505afa158015610ec3573d6000803e3d6000fd5b505050506040513d6000823e3d601f19601f82011682018060405250810190610eec9190612465565b600081518110610f25577f4e487b7100000000000000000000000000000000000000000000000000000000600052603260045260246000fd5b602002602001015191505092915050565b610f3e611bd8565b73ffffffffffffffffffffffffffffffffffffffff16610f5c610e02565b73ffffffffffffffffffffffffffffffffffffffff1614610fb2576040517f08c379a0000000000000000000000000000000000000000000000000000000008152600401610fa990612bb5565b60405180910390fd5b60005b8282905081101561101e5761100a6098848484818110610ffe577f4e487b7100000000000000000000000000000000000000000000000000000000600052603260045260246000fd5b90506020020135611ccf565b50808061101690613045565b915050610fb5565b507fd364029b03416d6689327e58714f1a57f1260011c572deeef07f01e7269ea1418282604051611050929190612a92565b60405180910390a15050565b60008061106883611682565b9050609760009054906101000a900473ffffffffffffffffffffffffffffffffffffffff1673ffffffffffffffffffffffffffffffffffffffff1663d06ca61f85836040518363ffffffff1660e01b81526004016110c7929190612cf0565b60006040518083038186803b1580156110df57600080fd5b505afa1580156110f3573d6000803e3d6000fd5b505050506040513d6000823e3d601f19601f8201168201806040525081019061111c9190612465565b600181518110611155577f4e487b7100000000000000000000000000000000000000000000000000000000600052603260045260246000fd5b602002602001015191505092915050565b61116e611bd8565b73ffffffffffffffffffffffffffffffffffffffff1661118c610e02565b73ffffffffffffffffffffffffffffffffffffffff16146111e2576040517f08c379a00000000000000000000000000000000000000000000000000000000081526004016111d990612bb5565b60405180910390fd5b600073ffffffffffffffffffffffffffffffffffffffff168173ffffffffffffffffffffffffffffffffffffffff161415611252576040517f08c379a000000000000000000000000000000000000000000000000000000000815260040161124990612b35565b60405180910390fd5b61125b81611be0565b50565b600061126930611ce6565b15905090565b60005b815181101561145f5760008282815181106112b6577f4e487b7100000000000000000000000000000000000000000000000000000000600052603260045260246000fd5b6020026020010151600001511415611303576040517f08c379a00000000000000000000000000000000000000000000000000000000081526004016112fa90612b15565b60405180910390fd5b600073ffffffffffffffffffffffffffffffffffffffff16828281518110611354577f4e487b7100000000000000000000000000000000000000000000000000000000600052603260045260246000fd5b60200260200101516020015173ffffffffffffffffffffffffffffffffffffffff1614156113b7576040517f08c379a00000000000000000000000000000000000000000000000000000000081526004016113ae90612bd5565b60405180910390fd5b61144b60988383815181106113f5577f4e487b7100000000000000000000000000000000000000000000000000000000600052603260045260246000fd5b60200260200101516000015184848151811061143a577f4e487b7100000000000000000000000000000000000000000000000000000000600052603260045260246000fd5b602002602001015160200151611d09565b50808061145790613045565b915050611272565b507fbbc4f85d38ccb337b12b9dd1f1ad7bcc6b844d56ba348ee8e466e0b017f4ee4b8160405161148f9190612ad8565b60405180910390a150565b600060019054906101000a900460ff166114e9576040517f08c379a00000000000000000000000000000000000000000000000000000000081526004016114e090612c55565b60405180910390fd5b6114f1611d3b565b565b600060019054906101000a900460ff16611542576040517f08c379a000000000000000000000000000000000000000000000000000000000815260040161153990612c55565b60405180910390fd5b61154a611d9c565b565b6000808473ffffffffffffffffffffffffffffffffffffffff1663095ea7b3858560405160240161157e929190612a69565b6040516020818303038152906040529060e01b6020820180517bffffffffffffffffffffffffffffffffffffffffffffffffffffffff83818316178352505050506040516115cc9190612a37565b6000604051808303816000865af19150503d8060008114611609576040519150601f19603f3d011682016040523d82523d6000602084013e61160e565b606091505b509150915081801561163c575060008151148061163b57508080602001905181019061163a91906124a6565b5b5b61167b576040517f08c379a000000000000000000000000000000000000000000000000000000000815260040161167290612c15565b60405180910390fd5b5050505050565b60606000600267ffffffffffffffff8111156116c7577f4e487b7100000000000000000000000000000000000000000000000000000000600052604160045260246000fd5b6040519080825280602002602001820160405280156116f55781602001602082028036833780820191505090505b5090508281600081518110611733577f4e487b7100000000000000000000000000000000000000000000000000000000600052603260045260246000fd5b602002602001019073ffffffffffffffffffffffffffffffffffffffff16908173ffffffffffffffffffffffffffffffffffffffff168152505073b31f66aa3c1e785363f0875a1b74e27b85fd66c7816001815181106117bc577f4e487b7100000000000000000000000000000000000000000000000000000000600052603260045260246000fd5b602002602001019073ffffffffffffffffffffffffffffffffffffffff16908173ffffffffffffffffffffffffffffffffffffffff168152505080915050919050565b6000808473ffffffffffffffffffffffffffffffffffffffff1663a9059cbb8585604051602401611831929190612a69565b6040516020818303038152906040529060e01b6020820180517bffffffffffffffffffffffffffffffffffffffffffffffffffffffff838183161783525050505060405161187f9190612a37565b6000604051808303816000865af19150503d80600081146118bc576040519150601f19603f3d011682016040523d82523d6000602084013e6118c1565b606091505b50915091508180156118ef57506000815114806118ee5750808060200190518101906118ed91906124a6565b5b5b61192e576040517f08c379a000000000000000000000000000000000000000000000000000000000815260040161192590612c75565b60405180910390fd5b5050505050565b60008273ffffffffffffffffffffffffffffffffffffffff1682600067ffffffffffffffff811115611990577f4e487b7100000000000000000000000000000000000000000000000000000000600052604160045260246000fd5b6040519080825280601f01601f1916602001820160405280156119c25781602001600182028036833780820191505090505b506040516119d09190612a37565b60006040518083038185875af1925050503d8060008114611a0d576040519150601f19603f3d011682016040523d82523d6000602084013e611a12565b606091505b5050905080611a56576040517f08c379a0000000000000000000000000000000000000000000000000000000008152600401611a4d90612b55565b60405180910390fd5b505050565b60606000600267ffffffffffffffff811115611aa0577f4e487b7100000000000000000000000000000000000000000000000000000000600052604160045260246000fd5b604051908082528060200260200182016040528015611ace5781602001602082028036833780820191505090505b50905073b31f66aa3c1e785363f0875a1b74e27b85fd66c781600081518110611b20577f4e487b7100000000000000000000000000000000000000000000000000000000600052603260045260246000fd5b602002602001019073ffffffffffffffffffffffffffffffffffffffff16908173ffffffffffffffffffffffffffffffffffffffff16815250508281600181518110611b95577f4e487b7100000000000000000000000000000000000000000000000000000000600052603260045260246000fd5b602002602001019073ffffffffffffffffffffffffffffffffffffffff16908173ffffffffffffffffffffffffffffffffffffffff168152505080915050919050565b600033905090565b6000603360009054906101000a900473ffffffffffffffffffffffffffffffffffffffff16905081603360006101000a81548173ffffffffffffffffffffffffffffffffffffffff021916908373ffffffffffffffffffffffffffffffffffffffff1602179055508173ffffffffffffffffffffffffffffffffffffffff168173ffffffffffffffffffffffffffffffffffffffff167f8be0079c531659141344cd1fd0a4f28419497f9722a3daafe3b4186f6b6457e060405160405180910390a35050565b600080600080611cb98660000186611df5565b91509150818160001c9350935050509250929050565b6000611cde8360000183611e45565b905092915050565b6000808273ffffffffffffffffffffffffffffffffffffffff163b119050919050565b6000611d3284600001848473ffffffffffffffffffffffffffffffffffffffff1660001b611e7e565b90509392505050565b600060019054906101000a900460ff16611d8a576040517f08c379a0000000000000000000000000000000000000000000000000000000008152600401611d8190612c55565b60405180910390fd5b611d9a611d95611bd8565b611be0565b565b600060019054906101000a900460ff16611deb576040517f08c379a0000000000000000000000000000000000000000000000000000000008152600401611de290612c55565b60405180910390fd5b6001606581905550565b60008060008460020160008581526020019081526020016000205490506000801b811415611e3557611e278585611eb9565b6000801b9250925050611e3e565b60018192509250505b9250929050565b600082600201600083815260200190815260200160002060009055611e768284600001611ed990919063ffffffff16565b905092915050565b60008184600201600085815260200190815260200160002081905550611eb08385600001611ef090919063ffffffff16565b90509392505050565b6000611ed18284600001611f0790919063ffffffff16565b905092915050565b6000611ee88360000183611f1e565b905092915050565b6000611eff83600001836120a4565b905092915050565b6000611f168360000183612114565b905092915050565b60008083600101600084815260200190815260200160002054905060008114612098576000600182611f509190612f4c565b9050600060018660000180549050611f689190612f4c565b9050818114612023576000866000018281548110611faf577f4e487b7100000000000000000000000000000000000000000000000000000000600052603260045260246000fd5b9060005260206000200154905080876000018481548110611ff9577f4e487b7100000000000000000000000000000000000000000000000000000000600052603260045260246000fd5b90600052602060002001819055508387600101600083815260200190815260200160002081905550505b8560000180548061205d577f4e487b7100000000000000000000000000000000000000000000000000000000600052603160045260246000fd5b60019003818190600052602060002001600090559055856001016000868152602001908152602001600020600090556001935050505061209e565b60009150505b92915050565b60006120b08383612114565b61210957826000018290806001815401808255809150506001900390600052602060002001600090919091909150558260000180549050836001016000848152602001908152602001600020819055506001905061210e565b600090505b92915050565b600080836001016000848152602001908152602001600020541415905092915050565b600061214a61214584612e22565b612dfd565b9050808382526020820190508285604086028201111561216957600080fd5b60005b85811015612199578161217f88826122ec565b84526020840193506040830192505060018101905061216c565b5050509392505050565b60006121b66121b184612e4e565b612dfd565b905080838252602082019050828560208602820111156121d557600080fd5b60005b8581101561220557816121eb888261234d565b8452602084019350602083019250506001810190506121d8565b5050509392505050565b60008135905061221e81613491565b92915050565b60008083601f84011261223657600080fd5b8235905067ffffffffffffffff81111561224f57600080fd5b60208301915083602082028301111561226757600080fd5b9250929050565b600082601f83011261227f57600080fd5b813561228f848260208601612137565b91505092915050565b600082601f8301126122a957600080fd5b81516122b98482602086016121a3565b91505092915050565b6000815190506122d1816134a8565b92915050565b6000813590506122e6816134bf565b92915050565b6000604082840312156122fe57600080fd5b6123086040612dfd565b90506000612318848285016122d7565b600083015250602061232c8482850161220f565b60208301525092915050565b600081359050612347816134d6565b92915050565b60008151905061235c816134d6565b92915050565b60006020828403121561237457600080fd5b60006123828482850161220f565b91505092915050565b6000806040838503121561239e57600080fd5b60006123ac8582860161220f565b925050602083013567ffffffffffffffff8111156123c957600080fd5b6123d58582860161226e565b9150509250929050565b600080602083850312156123f257600080fd5b600083013567ffffffffffffffff81111561240c57600080fd5b61241885828601612224565b92509250509250929050565b60006020828403121561243657600080fd5b600082013567ffffffffffffffff81111561245057600080fd5b61245c8482850161226e565b91505092915050565b60006020828403121561247757600080fd5b600082015167ffffffffffffffff81111561249157600080fd5b61249d84828501612298565b91505092915050565b6000602082840312156124b857600080fd5b60006124c6848285016122c2565b91505092915050565b6000602082840312156124e157600080fd5b60006124ef848285016122d7565b91505092915050565b6000806040838503121561250b57600080fd5b6000612519858286016122d7565b925050602061252a85828601612338565b9150509250929050565b60008060006060848603121561254957600080fd5b6000612557868287016122d7565b935050602061256886828701612338565b925050604061257986828701612338565b9150509250925092565b60006020828403121561259557600080fd5b60006125a38482850161234d565b91505092915050565b600080604083850312156125bf57600080fd5b60006125cd85828601612338565b92505060206125de8582860161220f565b9150509250929050565b60006125f48383612630565b60208301905092915050565b600061260c83836127cf565b60208301905092915050565b600061262483836129f9565b60408301905092915050565b61263981612f80565b82525050565b61264881612f80565b82525050565b600061265982612eaa565b6126638185612efd565b935061266e83612e7a565b8060005b8381101561269f57815161268688826125e8565b975061269183612ed6565b925050600181019050612672565b5085935050505092915050565b60006126b88385612f0e565b93507f07ffffffffffffffffffffffffffffffffffffffffffffffffffffffffffffff8311156126e757600080fd5b6020830292506126f8838584612fd2565b82840190509392505050565b600061270f82612eb5565b6127198185612f0e565b935061272483612e8a565b8060005b8381101561275557815161273c8882612600565b975061274783612ee3565b925050600181019050612728565b5085935050505092915050565b600061276d82612ec0565b6127778185612f1f565b935061278283612e9a565b8060005b838110156127b357815161279a8882612618565b97506127a583612ef0565b925050600181019050612786565b5085935050505092915050565b6127c981612f92565b82525050565b6127d881612f9e565b82525050565b60006127e982612ecb565b6127f38185612f30565b9350612803818560208601612fe1565b80840191505092915050565b600061281c602183612f3b565b9150612827826130fd565b604082019050919050565b600061283f602683612f3b565b915061284a8261314c565b604082019050919050565b6000612862603483612f3b565b915061286d8261319b565b604082019050919050565b6000612885601e83612f3b565b9150612890826131ea565b602082019050919050565b60006128a8602e83612f3b565b91506128b382613213565b604082019050919050565b60006128cb602083612f3b565b91506128d682613262565b602082019050919050565b60006128ee601c83612f3b565b91506128f98261328b565b602082019050919050565b6000612911603083612f3b565b915061291c826132b4565b604082019050919050565b6000612934602b83612f3b565b915061293f82613303565b604082019050919050565b6000612957603183612f3b565b915061296282613352565b604082019050919050565b600061297a602b83612f3b565b9150612985826133a1565b604082019050919050565b600061299d602d83612f3b565b91506129a8826133f0565b604082019050919050565b60006129c0601f83612f3b565b91506129cb8261343f565b602082019050919050565b60006129e3601483612f3b565b91506129ee82613468565b602082019050919050565b604082016000820151612a0f60008501826127cf565b506020820151612a226020850182612630565b50505050565b612a3181612fc8565b82525050565b6000612a4382846127de565b915081905092915050565b6000602082019050612a63600083018461263f565b92915050565b6000604082019050612a7e600083018561263f565b612a8b6020830184612a28565b9392505050565b60006020820190508181036000830152612aad8184866126ac565b90509392505050565b60006020820190508181036000830152612ad08184612704565b905092915050565b60006020820190508181036000830152612af28184612762565b905092915050565b6000602082019050612b0f60008301846127c0565b92915050565b60006020820190508181036000830152612b2e8161280f565b9050919050565b60006020820190508181036000830152612b4e81612832565b9050919050565b60006020820190508181036000830152612b6e81612855565b9050919050565b60006020820190508181036000830152612b8e81612878565b9050919050565b60006020820190508181036000830152612bae8161289b565b9050919050565b60006020820190508181036000830152612bce816128be565b9050919050565b60006020820190508181036000830152612bee816128e1565b9050919050565b60006020820190508181036000830152612c0e81612904565b9050919050565b60006020820190508181036000830152612c2e81612927565b9050919050565b60006020820190508181036000830152612c4e8161294a565b9050919050565b60006020820190508181036000830152612c6e8161296d565b9050919050565b60006020820190508181036000830152612c8e81612990565b9050919050565b60006020820190508181036000830152612cae816129b3565b9050919050565b60006020820190508181036000830152612cce816129d6565b9050919050565b6000602082019050612cea6000830184612a28565b92915050565b6000604082019050612d056000830185612a28565b8181036020830152612d17818461264e565b90509392505050565b6000608082019050612d356000830187612a28565b8181036020830152612d47818661264e565b9050612d56604083018561263f565b612d636060830184612a28565b95945050505050565b600060a082019050612d816000830188612a28565b612d8e6020830187612a28565b8181036040830152612da0818661264e565b9050612daf606083018561263f565b612dbc6080830184612a28565b9695505050505050565b6000606082019050612ddb6000830186612a28565b612de86020830185612a28565b612df560408301846127c0565b949350505050565b6000612e07612e18565b9050612e138282613014565b919050565b6000604051905090565b600067ffffffffffffffff821115612e3d57612e3c6130bd565b5b602082029050602081019050919050565b600067ffffffffffffffff821115612e6957612e686130bd565b5b602082029050602081019050919050565b6000819050602082019050919050565b6000819050602082019050919050565b6000819050602082019050919050565b600081519050919050565b600081519050919050565b600081519050919050565b600081519050919050565b6000602082019050919050565b6000602082019050919050565b6000602082019050919050565b600082825260208201905092915050565b600082825260208201905092915050565b600082825260208201905092915050565b600081905092915050565b600082825260208201905092915050565b6000612f5782612fc8565b9150612f6283612fc8565b925082821015612f7557612f7461308e565b5b828203905092915050565b6000612f8b82612fa8565b9050919050565b60008115159050919050565b6000819050919050565b600073ffffffffffffffffffffffffffffffffffffffff82169050919050565b6000819050919050565b82818337600083830152505050565b60005b83811015612fff578082015181840152602081019050612fe4565b8381111561300e576000848401525b50505050565b61301d826130ec565b810181811067ffffffffffffffff8211171561303c5761303b6130bd565b5b80604052505050565b600061305082612fc8565b91507fffffffffffffffffffffffffffffffffffffffffffffffffffffffffffffffff8214156130835761308261308e565b5b600182019050919050565b7f4e487b7100000000000000000000000000000000000000000000000000000000600052601160045260246000fd5b7f4e487b7100000000000000000000000000000000000000000000000000000000600052604160045260246000fd5b6000601f19601f8301169050919050565b7f43616e6e6f742073657420616e20656d70747920737472696e6720617373657460008201527f2e00000000000000000000000000000000000000000000000000000000000000602082015250565b7f4f776e61626c653a206e6577206f776e657220697320746865207a65726f206160008201527f6464726573730000000000000000000000000000000000000000000000000000602082015250565b7f5472616e7366657248656c7065723a3a736166655472616e736665724554483a60008201527f20455448207472616e73666572206661696c6564000000000000000000000000602082015250565b7f4e6f7420656e6f7567682066756e647320776572652070726f76696465640000600082015250565b7f496e697469616c697a61626c653a20636f6e747261637420697320616c72656160008201527f647920696e697469616c697a6564000000000000000000000000000000000000602082015250565b7f4f776e61626c653a2063616c6c6572206973206e6f7420746865206f776e6572600082015250565b7f43616e6e6f742073657420616e20656d70747920616464726573732e00000000600082015250565b7f416d6f756e74206f6620746f6b656e7320746f206275792068617320746f206260008201527f652067726561746572207468616e203000000000000000000000000000000000602082015250565b7f5472616e7366657248656c7065723a3a73616665417070726f76653a2061707060008201527f726f7665206661696c6564000000000000000000000000000000000000000000602082015250565b7f416d6f756e74206f6620746f6b656e7320746f2073656c6c2068617320746f2060008201527f62652067726561746572207468616e2030000000000000000000000000000000602082015250565b7f496e697469616c697a61626c653a20636f6e7472616374206973206e6f74206960008201527f6e697469616c697a696e67000000000000000000000000000000000000000000602082015250565b7f5472616e7366657248656c7065723a3a736166655472616e736665723a20747260008201527f616e73666572206661696c656400000000000000000000000000000000000000602082015250565b7f5265656e7472616e637947756172643a207265656e7472616e742063616c6c00600082015250565b7f4173736574206e6f7420737570706f727465642e000000000000000000000000600082015250565b61349a81612f80565b81146134a557600080fd5b50565b6134b181612f92565b81146134bc57600080fd5b50565b6134c881612f9e565b81146134d357600080fd5b50565b6134df81612fc8565b81146134ea57600080fd5b5056fea2646970667358221220e826d6338d3d296eeebf162d1bedf8edfc5f8c69bc3f3fa90e2d62cf32e0e55864736f6c63430008040033",
  "devdoc": {
    "details": "Contract allows user to invest into an ERC20 token This implementation uses the Pangolin DEX",
    "events": {
      "AssetsAdded((bytes32,address)[])": {
        "details": "emitted after the owner adds/updates assets",
        "params": {
          "assets": "added/updated assets*"
        }
      },
      "AssetsRemoved(bytes32[])": {
        "details": "emitted after the owner removes assets",
        "params": {
          "removedAssets": "removed assets*"
        }
      },
      "TokenPurchase(address,uint256,uint256,bool)": {
        "details": "emitted after a tokens were purchased",
        "params": {
          "amount": "the amount of token bought*",
          "buyer": "the address which bought tokens"
        }
      },
      "TokenSell(address,uint256,uint256,bool)": {
        "details": "emitted after a tokens were sold",
        "params": {
          "amount": "the amount of token sold*",
          "seller": "the address which sold tokens"
        }
      }
    },
    "kind": "dev",
    "methods": {
      "buyAsset(bytes32,uint256)": {
        "details": "_token ERC20 token's address_exactERC20AmountOut amount of the ERC20 token to be bought*"
      },
      "owner()": {
        "details": "Returns the address of the current owner."
      },
      "removeAssets(bytes32[])": {
        "details": "_assets assets to be removed*"
      },
      "renounceOwnership()": {
        "details": "Leaves the contract without owner. It will not be possible to call `onlyOwner` functions anymore. Can only be called by the current owner. NOTE: Renouncing ownership will leave the contract without an owner, thereby removing any functionality that is only available to the owner."
      },
      "sellAsset(bytes32,uint256,uint256)": {
        "details": "_token ERC20 token's address_exactERC20AmountIn amount of the ERC20 token to be sold_minAvaxAmountOut minimum amount of the AVAX token to be bought*"
      },
      "transferOwnership(address)": {
        "details": "Transfers ownership of the contract to a new account (`newOwner`). Can only be called by the current owner."
      },
      "updateAssets((bytes32,address)[])": {
        "details": "_assets assets to be added/updated*"
      }
    },
    "title": "PangolinExchange",
    "version": 1
  },
  "userdoc": {
    "kind": "user",
    "methods": {
      "buyAsset(bytes32,uint256)": {
        "notice": "Buys selected ERC20 token with AVAX using the Pangolin DEX Refunds unused AVAX to the msg.sender"
      },
      "getAllAssets()": {
        "notice": "Returns all the supported assets keys*"
      },
      "getAssetAddress(bytes32)": {
        "notice": "Returns address of an asset*"
      },
      "getEstimatedAVAXForERC20Token(uint256,address)": {
        "notice": "Returns the minimum AVAX amount that is required to buy _exactAmountOut of _token ERC20 token.*"
      },
      "getEstimatedAVAXFromERC20Token(uint256,address)": {
        "notice": "Returns the maximum AVAX amount that will be obtained in the event of selling _amountIn of _token ERC20 token.*"
      },
      "getMinimumERC20TokenAmountForExactAVAX(uint256,address)": {
        "notice": "Returns the minimum token amount that is required to be sold to receive _exactAmountOut of AVAX.*"
      },
      "removeAssets(bytes32[])": {
        "notice": "Removes supported assets"
      },
      "sellAsset(bytes32,uint256,uint256)": {
        "notice": "Sells selected ERC20 token for AVAX"
      },
      "updateAssets((bytes32,address)[])": {
        "notice": "Adds or updates supported assets"
      }
    },
    "version": 1
  },
  "storageLayout": {
    "storage": [
      {
        "astId": 130,
        "contract": "contracts/PangolinExchange.sol:PangolinExchange",
        "label": "_initialized",
        "offset": 0,
        "slot": "0",
        "type": "t_bool"
      },
      {
        "astId": 133,
        "contract": "contracts/PangolinExchange.sol:PangolinExchange",
        "label": "_initializing",
        "offset": 1,
        "slot": "0",
        "type": "t_bool"
      },
      {
        "astId": 540,
        "contract": "contracts/PangolinExchange.sol:PangolinExchange",
        "label": "__gap",
        "offset": 0,
        "slot": "1",
        "type": "t_array(t_uint256)50_storage"
      },
      {
        "astId": 10,
        "contract": "contracts/PangolinExchange.sol:PangolinExchange",
        "label": "_owner",
        "offset": 0,
        "slot": "51",
        "type": "t_address"
      },
      {
        "astId": 122,
        "contract": "contracts/PangolinExchange.sol:PangolinExchange",
        "label": "__gap",
        "offset": 0,
        "slot": "52",
        "type": "t_array(t_uint256)49_storage"
      },
      {
        "astId": 211,
        "contract": "contracts/PangolinExchange.sol:PangolinExchange",
        "label": "_status",
        "offset": 0,
        "slot": "101",
        "type": "t_uint256"
      },
      {
        "astId": 255,
        "contract": "contracts/PangolinExchange.sol:PangolinExchange",
        "label": "__gap",
        "offset": 0,
        "slot": "102",
        "type": "t_array(t_uint256)49_storage"
      },
      {
        "astId": 1920,
        "contract": "contracts/PangolinExchange.sol:PangolinExchange",
        "label": "pangolinRouter",
        "offset": 0,
        "slot": "151",
        "type": "t_contract(IPangolinRouter)1735"
      },
      {
        "astId": 1927,
        "contract": "contracts/PangolinExchange.sol:PangolinExchange",
        "label": "supportedAssetsMap",
        "offset": 0,
        "slot": "152",
        "type": "t_struct(Bytes32ToAddressMap)2870_storage"
      }
    ],
    "types": {
      "t_address": {
        "encoding": "inplace",
        "label": "address",
        "numberOfBytes": "20"
      },
      "t_array(t_bytes32)dyn_storage": {
        "base": "t_bytes32",
        "encoding": "dynamic_array",
        "label": "bytes32[]",
        "numberOfBytes": "32"
      },
      "t_array(t_uint256)49_storage": {
        "base": "t_uint256",
        "encoding": "inplace",
        "label": "uint256[49]",
        "numberOfBytes": "1568"
      },
      "t_array(t_uint256)50_storage": {
        "base": "t_uint256",
        "encoding": "inplace",
        "label": "uint256[50]",
        "numberOfBytes": "1600"
      },
      "t_bool": {
        "encoding": "inplace",
        "label": "bool",
        "numberOfBytes": "1"
      },
      "t_bytes32": {
        "encoding": "inplace",
        "label": "bytes32",
        "numberOfBytes": "32"
      },
      "t_contract(IPangolinRouter)1735": {
        "encoding": "inplace",
        "label": "contract IPangolinRouter",
        "numberOfBytes": "20"
      },
      "t_mapping(t_bytes32,t_bytes32)": {
        "encoding": "mapping",
        "key": "t_bytes32",
        "label": "mapping(bytes32 => bytes32)",
        "numberOfBytes": "32",
        "value": "t_bytes32"
      },
      "t_mapping(t_bytes32,t_uint256)": {
        "encoding": "mapping",
        "key": "t_bytes32",
        "label": "mapping(bytes32 => uint256)",
        "numberOfBytes": "32",
        "value": "t_uint256"
      },
      "t_struct(Bytes32Set)951_storage": {
        "encoding": "inplace",
        "label": "struct EnumerableSet.Bytes32Set",
        "members": [
          {
            "astId": 950,
            "contract": "contracts/PangolinExchange.sol:PangolinExchange",
            "label": "_inner",
            "offset": 0,
            "slot": "0",
            "type": "t_struct(Set)757_storage"
          }
        ],
        "numberOfBytes": "64"
      },
      "t_struct(Bytes32ToAddressMap)2870_storage": {
        "encoding": "inplace",
        "label": "struct EnumerableMap.Bytes32ToAddressMap",
        "members": [
          {
            "astId": 2869,
            "contract": "contracts/PangolinExchange.sol:PangolinExchange",
            "label": "_inner",
            "offset": 0,
            "slot": "0",
            "type": "t_struct(Map)2640_storage"
          }
        ],
        "numberOfBytes": "96"
      },
      "t_struct(Map)2640_storage": {
        "encoding": "inplace",
        "label": "struct EnumerableMap.Map",
        "members": [
          {
            "astId": 2635,
            "contract": "contracts/PangolinExchange.sol:PangolinExchange",
            "label": "_keys",
            "offset": 0,
            "slot": "0",
            "type": "t_struct(Bytes32Set)951_storage"
          },
          {
            "astId": 2639,
            "contract": "contracts/PangolinExchange.sol:PangolinExchange",
            "label": "_values",
            "offset": 0,
            "slot": "2",
            "type": "t_mapping(t_bytes32,t_bytes32)"
          }
        ],
        "numberOfBytes": "96"
      },
      "t_struct(Set)757_storage": {
        "encoding": "inplace",
        "label": "struct EnumerableSet.Set",
        "members": [
          {
            "astId": 752,
            "contract": "contracts/PangolinExchange.sol:PangolinExchange",
            "label": "_values",
            "offset": 0,
            "slot": "0",
            "type": "t_array(t_bytes32)dyn_storage"
          },
          {
            "astId": 756,
            "contract": "contracts/PangolinExchange.sol:PangolinExchange",
            "label": "_indexes",
            "offset": 0,
            "slot": "1",
            "type": "t_mapping(t_bytes32,t_uint256)"
          }
        ],
        "numberOfBytes": "64"
      },
      "t_uint256": {
        "encoding": "inplace",
        "label": "uint256",
        "numberOfBytes": "32"
      }
    }
  }
}