{
  "address": "0xFD471836031dc5108809D173A067e8486B9047A3",
  "abi": [
    {
      "anonymous": false,
      "inputs": [
        {
          "indexed": true,
          "internalType": "address",
          "name": "borrower",
          "type": "address"
        },
        {
          "indexed": false,
          "internalType": "uint256",
          "name": "amount",
          "type": "uint256"
        },
        {
          "indexed": false,
          "internalType": "uint256",
          "name": "timestamp",
          "type": "uint256"
        }
      ],
      "name": "Borrowed",
      "type": "event"
    },
    {
      "anonymous": false,
      "inputs": [
        {
          "indexed": true,
          "internalType": "address",
          "name": "funder",
          "type": "address"
        },
        {
          "indexed": false,
          "internalType": "uint256",
          "name": "amount",
          "type": "uint256"
        },
        {
          "indexed": false,
          "internalType": "uint256",
          "name": "timestamp",
          "type": "uint256"
        }
      ],
      "name": "Funded",
      "type": "event"
    },
    {
      "anonymous": false,
      "inputs": [
        {
          "indexed": true,
          "internalType": "address",
          "name": "investor",
          "type": "address"
        },
        {
          "indexed": true,
          "internalType": "bytes32",
          "name": "asset",
          "type": "bytes32"
        },
        {
          "indexed": false,
          "internalType": "uint256",
          "name": "amount",
          "type": "uint256"
        },
        {
          "indexed": false,
          "internalType": "uint256",
          "name": "timestamp",
          "type": "uint256"
        }
      ],
      "name": "Invested",
      "type": "event"
    },
    {
      "anonymous": false,
      "inputs": [
        {
          "indexed": true,
          "internalType": "address",
          "name": "liquidator",
          "type": "address"
        },
        {
          "indexed": false,
          "internalType": "uint256",
          "name": "repayAmount",
          "type": "uint256"
        },
        {
          "indexed": false,
          "internalType": "uint256",
          "name": "bonus",
          "type": "uint256"
        },
        {
          "indexed": false,
          "internalType": "uint256",
          "name": "ltv",
          "type": "uint256"
        },
        {
          "indexed": false,
          "internalType": "uint256",
          "name": "timestamp",
          "type": "uint256"
        }
      ],
      "name": "Liquidated",
      "type": "event"
    },
    {
      "anonymous": false,
      "inputs": [
        {
          "indexed": false,
          "internalType": "uint256",
          "name": "debtRepaid",
          "type": "uint256"
        },
        {
          "indexed": false,
          "internalType": "uint256",
          "name": "withdrawalAmount",
          "type": "uint256"
        },
        {
          "indexed": false,
          "internalType": "uint256",
          "name": "timestamp",
          "type": "uint256"
        }
      ],
      "name": "LoanClosed",
      "type": "event"
    },
    {
      "anonymous": false,
      "inputs": [
        {
          "indexed": true,
          "internalType": "address",
          "name": "previousOwner",
          "type": "address"
        },
        {
          "indexed": true,
          "internalType": "address",
          "name": "newOwner",
          "type": "address"
        }
      ],
      "name": "OwnershipTransferred",
      "type": "event"
    },
    {
      "anonymous": false,
      "inputs": [
        {
          "indexed": true,
          "internalType": "address",
          "name": "investor",
          "type": "address"
        },
        {
          "indexed": true,
          "internalType": "bytes32",
          "name": "asset",
          "type": "bytes32"
        },
        {
          "indexed": false,
          "internalType": "uint256",
          "name": "amount",
          "type": "uint256"
        },
        {
          "indexed": false,
          "internalType": "uint256",
          "name": "timestamp",
          "type": "uint256"
        }
      ],
      "name": "Redeemed",
      "type": "event"
    },
    {
      "anonymous": false,
      "inputs": [
        {
          "indexed": true,
          "internalType": "address",
          "name": "borrower",
          "type": "address"
        },
        {
          "indexed": false,
          "internalType": "uint256",
          "name": "amount",
          "type": "uint256"
        },
        {
          "indexed": false,
          "internalType": "uint256",
          "name": "timestamp",
          "type": "uint256"
        }
      ],
      "name": "Repaid",
      "type": "event"
    },
    {
      "anonymous": false,
      "inputs": [
        {
          "indexed": true,
          "internalType": "address",
          "name": "owner",
          "type": "address"
        },
        {
          "indexed": false,
          "internalType": "uint256",
          "name": "amount",
          "type": "uint256"
        },
        {
          "indexed": false,
          "internalType": "uint256",
          "name": "timestamp",
          "type": "uint256"
        }
      ],
      "name": "Withdrawn",
      "type": "event"
    },
    {
      "inputs": [
        {
          "internalType": "uint256",
          "name": "_amount",
          "type": "uint256"
        }
      ],
      "name": "borrow",
      "outputs": [],
      "stateMutability": "nonpayable",
      "type": "function"
    },
    {
      "inputs": [],
      "name": "closeLoan",
      "outputs": [],
      "stateMutability": "payable",
      "type": "function"
    },
    {
      "inputs": [],
      "name": "fund",
      "outputs": [],
      "stateMutability": "payable",
      "type": "function"
    },
    {
      "inputs": [],
      "name": "getAllAssetsBalances",
      "outputs": [
        {
          "internalType": "uint256[]",
          "name": "",
          "type": "uint256[]"
        }
      ],
      "stateMutability": "view",
      "type": "function"
    },
    {
      "inputs": [],
      "name": "getAllAssetsPrices",
      "outputs": [
        {
          "internalType": "uint256[]",
          "name": "",
          "type": "uint256[]"
        }
      ],
      "stateMutability": "view",
      "type": "function"
    },
    {
      "inputs": [
        {
          "internalType": "address",
          "name": "_user",
          "type": "address"
        },
        {
          "internalType": "bytes32",
          "name": "_asset",
          "type": "bytes32"
        }
      ],
      "name": "getBalance",
      "outputs": [
        {
          "internalType": "uint256",
          "name": "",
          "type": "uint256"
        }
      ],
      "stateMutability": "view",
      "type": "function"
    },
    {
      "inputs": [],
      "name": "getDebt",
      "outputs": [
        {
          "internalType": "uint256",
          "name": "",
          "type": "uint256"
        }
      ],
      "stateMutability": "view",
      "type": "function"
    },
    {
      "inputs": [],
      "name": "getExchange",
      "outputs": [
        {
          "internalType": "contract IAssetsExchange",
          "name": "",
          "type": "address"
        }
      ],
      "stateMutability": "view",
      "type": "function"
    },
    {
      "inputs": [],
      "name": "getFullLoanStatus",
      "outputs": [
        {
          "internalType": "uint256[4]",
          "name": "",
          "type": "uint256[4]"
        }
      ],
      "stateMutability": "view",
      "type": "function"
    },
    {
      "inputs": [],
      "name": "getLTV",
      "outputs": [
        {
          "internalType": "uint256",
          "name": "",
          "type": "uint256"
        }
      ],
      "stateMutability": "view",
      "type": "function"
    },
    {
      "inputs": [],
      "name": "getLiquidationBonus",
      "outputs": [
        {
          "internalType": "uint256",
          "name": "",
          "type": "uint256"
        }
      ],
      "stateMutability": "view",
      "type": "function"
    },
    {
      "inputs": [],
      "name": "getMaxBlockTimestampDelay",
      "outputs": [
        {
          "internalType": "uint256",
          "name": "",
          "type": "uint256"
        }
      ],
      "stateMutability": "view",
      "type": "function"
    },
    {
      "inputs": [],
      "name": "getMaxDataTimestampDelay",
      "outputs": [
        {
          "internalType": "uint256",
          "name": "",
          "type": "uint256"
        }
      ],
      "stateMutability": "view",
      "type": "function"
    },
    {
      "inputs": [],
      "name": "getMaxLtv",
      "outputs": [
        {
          "internalType": "uint256",
          "name": "",
          "type": "uint256"
        }
      ],
      "stateMutability": "view",
      "type": "function"
    },
    {
      "inputs": [],
      "name": "getMinSelloutLtv",
      "outputs": [
        {
          "internalType": "uint256",
          "name": "",
          "type": "uint256"
        }
      ],
      "stateMutability": "view",
      "type": "function"
    },
    {
      "inputs": [],
      "name": "getPercentagePrecision",
      "outputs": [
        {
          "internalType": "uint256",
          "name": "",
          "type": "uint256"
        }
      ],
      "stateMutability": "view",
      "type": "function"
    },
    {
      "inputs": [],
      "name": "getPool",
      "outputs": [
        {
          "internalType": "contract Pool",
          "name": "",
          "type": "address"
        }
      ],
      "stateMutability": "view",
      "type": "function"
    },
    {
      "inputs": [],
      "name": "getPriceProvider1",
      "outputs": [
        {
          "internalType": "address",
          "name": "",
          "type": "address"
        }
      ],
      "stateMutability": "view",
      "type": "function"
    },
    {
      "inputs": [],
      "name": "getPriceProvider2",
      "outputs": [
        {
          "internalType": "address",
          "name": "",
          "type": "address"
        }
      ],
      "stateMutability": "view",
      "type": "function"
    },
    {
      "inputs": [],
      "name": "getTotalValue",
      "outputs": [
        {
          "internalType": "uint256",
          "name": "",
          "type": "uint256"
        }
      ],
      "stateMutability": "view",
      "type": "function"
    },
    {
      "inputs": [],
      "name": "getYakAvaxStakingContract",
      "outputs": [
        {
          "internalType": "contract IERC20",
          "name": "",
          "type": "address"
        }
      ],
      "stateMutability": "view",
      "type": "function"
    },
    {
      "inputs": [],
      "name": "getYieldYakRouter",
      "outputs": [
        {
          "internalType": "contract IYieldYakRouter",
          "name": "",
          "type": "address"
        }
      ],
      "stateMutability": "view",
      "type": "function"
    },
    {
      "inputs": [],
      "name": "initialize",
      "outputs": [],
      "stateMutability": "nonpayable",
      "type": "function"
    },
    {
      "inputs": [
        {
          "internalType": "bytes32",
          "name": "_asset",
          "type": "bytes32"
        },
        {
          "internalType": "uint256",
          "name": "_exactERC20AmountOut",
          "type": "uint256"
        },
        {
          "internalType": "uint256",
          "name": "_maxAvaxAmountIn",
          "type": "uint256"
        }
      ],
      "name": "invest",
      "outputs": [],
      "stateMutability": "nonpayable",
      "type": "function"
    },
    {
      "inputs": [
        {
          "internalType": "address",
          "name": "_receivedSigner",
          "type": "address"
        }
      ],
      "name": "isSignerAuthorized",
      "outputs": [
        {
          "internalType": "bool",
          "name": "",
          "type": "bool"
        }
      ],
      "stateMutability": "view",
      "type": "function"
    },
    {
      "inputs": [],
      "name": "isSolvent",
      "outputs": [
        {
          "internalType": "bool",
          "name": "",
          "type": "bool"
        }
      ],
      "stateMutability": "view",
      "type": "function"
    },
    {
      "inputs": [
        {
          "internalType": "uint256",
          "name": "_receivedTimestamp",
          "type": "uint256"
        }
      ],
      "name": "isTimestampValid",
      "outputs": [
        {
          "internalType": "bool",
          "name": "",
          "type": "bool"
        }
      ],
      "stateMutability": "view",
      "type": "function"
    },
    {
      "inputs": [
        {
          "internalType": "uint256",
          "name": "repayAmount",
          "type": "uint256"
        }
      ],
      "name": "liquidateLoan",
      "outputs": [],
      "stateMutability": "payable",
      "type": "function"
    },
    {
      "inputs": [],
      "name": "owner",
      "outputs": [
        {
          "internalType": "address",
          "name": "",
          "type": "address"
        }
      ],
      "stateMutability": "view",
      "type": "function"
    },
    {
      "inputs": [
        {
          "internalType": "bytes32",
          "name": "_asset",
          "type": "bytes32"
        },
        {
          "internalType": "uint256",
          "name": "_exactERC20AmountIn",
          "type": "uint256"
        },
        {
          "internalType": "uint256",
          "name": "_minAvaxAmountOut",
          "type": "uint256"
        }
      ],
      "name": "redeem",
      "outputs": [],
      "stateMutability": "nonpayable",
      "type": "function"
    },
    {
      "inputs": [],
      "name": "renounceOwnership",
      "outputs": [],
      "stateMutability": "nonpayable",
      "type": "function"
    },
    {
      "inputs": [
        {
          "internalType": "uint256",
          "name": "_amount",
          "type": "uint256"
        }
      ],
      "name": "repay",
      "outputs": [],
      "stateMutability": "payable",
      "type": "function"
    },
    {
      "inputs": [
        {
          "internalType": "uint256",
          "name": "amount",
          "type": "uint256"
        }
      ],
      "name": "stakeAVAXYak",
      "outputs": [],
      "stateMutability": "nonpayable",
      "type": "function"
    },
    {
      "inputs": [
        {
          "internalType": "address",
          "name": "newOwner",
          "type": "address"
        }
      ],
      "name": "transferOwnership",
      "outputs": [],
      "stateMutability": "nonpayable",
      "type": "function"
    },
    {
      "inputs": [
        {
          "internalType": "uint256",
          "name": "amount",
          "type": "uint256"
        }
      ],
      "name": "unstakeAVAXYak",
      "outputs": [],
      "stateMutability": "nonpayable",
      "type": "function"
    },
    {
      "inputs": [
        {
          "internalType": "uint256",
          "name": "_amount",
          "type": "uint256"
        }
      ],
      "name": "withdraw",
      "outputs": [],
      "stateMutability": "nonpayable",
      "type": "function"
    },
    {
      "inputs": [
        {
          "internalType": "bytes32",
          "name": "asset",
          "type": "bytes32"
        },
        {
          "internalType": "uint256",
          "name": "amount",
          "type": "uint256"
        }
      ],
      "name": "withdrawAsset",
      "outputs": [],
      "stateMutability": "nonpayable",
      "type": "function"
    },
    {
      "stateMutability": "payable",
      "type": "receive"
    }
  ],
  "transactionHash": "0x8e6360377766e156f52880935bfd7b20cb94145c2395a86bc06a99608bd78262",
  "args": [],
  "numDeployments": 1,
  "solcInputHash": "0922e21c5bb5a088c8b35a0dc7ff9601",
  "bytecode": "0x608060405260008060006101000a81548160ff02191690831515021790555034801561002a57600080fd5b50615d4f806200003b6000396000f3fe60806040526004361061021e5760003560e01c80636b6c92d911610123578063b60d4288116100ab578063d2b29d701161006f578063d2b29d701461072c578063d44e282b14610755578063f2fde38b14610780578063f31a210a146107a9578063f807cd22146107d457610225565b8063b60d428814610675578063c5ebeaec1461067f578063c79d5ec5146106a8578063caa648b4146106e5578063ccdd9f5d1461071057610225565b80638a027cb3116100f25780638a027cb3146105a05780638da5cb5b146105c9578063a935310f146105f4578063ae1837371461061f578063b5dbd7f01461064a57610225565b80636b6c92d91461050a578063715018a614610535578063750582051461054c5780638129fc1c1461058957610225565b8063371fd8e6116101a65780635118af5a116101755780635118af5a1461043557806352154a261461046057806359aa9e721461048b5780635ce23950146104b65780636aa96162146104e157610225565b8063371fd8e61461039a5780633eb67e0b146103b65780634ed2b8ac146103df5780634fcaf08f1461040a57610225565b806314a6bf0f116101ed57806314a6bf0f146102e65780631e5140f014610311578063232fa7331461033c5780632802fdc8146103465780632e1a7d4d1461037157610225565b8063026b1d5f1461022a57806305d58c211461025557806311c89b101461027e578063132e1d39146102bb57610225565b3661022557005b600080fd5b34801561023657600080fd5b5061023f6107ff565b60405161024c9190614a69565b60405180910390f35b34801561026157600080fd5b5061027c600480360381019061027791906141d7565b61081b565b005b34801561028a57600080fd5b506102a560048036038101906102a091906140df565b610971565b6040516102b2919061493d565b60405180910390f35b3480156102c757600080fd5b506102d06109ed565b6040516102dd9190614e04565b60405180910390f35b3480156102f257600080fd5b506102fb6109f7565b6040516103089190614e04565b60405180910390f35b34801561031d57600080fd5b50610326610a8e565b6040516103339190614a4e565b60405180910390f35b610344610aaa565b005b34801561035257600080fd5b5061035b610ebd565b60405161036891906148bc565b60405180910390f35b34801561037d57600080fd5b5061039860048036038101906103939190614262565b610ed9565b005b6103b460048036038101906103af9190614262565b6110b1565b005b3480156103c257600080fd5b506103dd60048036038101906103d89190614262565b61122c565b005b3480156103eb57600080fd5b506103f4611451565b6040516104019190614e04565b60405180910390f35b34801561041657600080fd5b5061041f6114c8565b60405161042c91906148bc565b60405180910390f35b34801561044157600080fd5b5061044a6114e4565b6040516104579190614e04565b60405180910390f35b34801561046c57600080fd5b506104756114ed565b6040516104829190614e04565b60405180910390f35b34801561049757600080fd5b506104a06114f7565b6040516104ad9190614e04565b60405180910390f35b3480156104c257600080fd5b506104cb611500565b6040516104d8919061493d565b60405180910390f35b3480156104ed57600080fd5b5061050860048036038101906105039190614262565b611518565b005b34801561051657600080fd5b5061051f6116ea565b60405161052c919061491b565b60405180910390f35b34801561054157600080fd5b5061054a6118a5565b005b34801561055857600080fd5b50610573600480360381019061056e9190614262565b61192d565b604051610580919061493d565b60405180910390f35b34801561059557600080fd5b5061059e6119a9565b005b3480156105ac57600080fd5b506105c760048036038101906105c29190614213565b611aa0565b005b3480156105d557600080fd5b506105de611d2c565b6040516105eb91906148bc565b60405180910390f35b34801561060057600080fd5b50610609611d56565b604051610616919061491b565b60405180910390f35b34801561062b57600080fd5b50610634611df5565b6040516106419190614a33565b60405180910390f35b34801561065657600080fd5b5061065f611e11565b60405161066c9190614e04565b60405180910390f35b61067d611e1b565b005b34801561068b57600080fd5b506106a660048036038101906106a19190614262565b611e6d565b005b3480156106b457600080fd5b506106cf60048036038101906106ca9190614131565b611ff5565b6040516106dc9190614e04565b60405180910390f35b3480156106f157600080fd5b506106fa61211c565b6040516107079190614e04565b60405180910390f35b61072a60048036038101906107259190614262565b6124f9565b005b34801561073857600080fd5b50610753600480360381019061074e9190614213565b612773565b005b34801561076157600080fd5b5061076a6129fd565b6040516107779190614900565b60405180910390f35b34801561078c57600080fd5b506107a760048036038101906107a291906140df565b612a55565b005b3480156107b557600080fd5b506107be612b4d565b6040516107cb9190614e04565b60405180910390f35b3480156107e057600080fd5b506107e9612b56565b6040516107f69190614a18565b60405180910390f35b6000732bdcc0de6be1f7d2ee689a0342d76f52e8efaba3905090565b610823612b72565b73ffffffffffffffffffffffffffffffffffffffff16610841611d2c565b73ffffffffffffffffffffffffffffffffffffffff1614610897576040517f08c379a000000000000000000000000000000000000000000000000000000000815260040161088e90614ca4565b60405180910390fd5b600260655414156108dd576040517f08c379a00000000000000000000000000000000000000000000000000000000081526004016108d490614de4565b60405180910390fd5b600260658190555060006108f083612b7a565b905061091d33838373ffffffffffffffffffffffffffffffffffffffff16612c1e9092919063ffffffff16565b50610926611500565b610965576040517f08c379a000000000000000000000000000000000000000000000000000000000815260040161095c90614cc4565b60405180910390fd5b60016065819055505050565b600061097b610ebd565b73ffffffffffffffffffffffffffffffffffffffff168273ffffffffffffffffffffffffffffffffffffffff1614806109e657506109b76114c8565b73ffffffffffffffffffffffffffffffffffffffff168273ffffffffffffffffffffffffffffffffffffffff16145b9050919050565b60006103e8905090565b6000610a016107ff565b73ffffffffffffffffffffffffffffffffffffffff16636011163e306040518263ffffffff1660e01b8152600401610a3991906148bc565b60206040518083038186803b158015610a5157600080fd5b505afa158015610a65573d6000803e3d6000fd5b505050506040513d601f19601f82011682018060405250810190610a89919061428b565b905090565b600073c351628eb244ec633d5f21fbd6621e1a683b1181905090565b610ab2612b72565b73ffffffffffffffffffffffffffffffffffffffff16610ad0611d2c565b73ffffffffffffffffffffffffffffffffffffffff1614610b26576040517f08c379a0000000000000000000000000000000000000000000000000000000008152600401610b1d90614ca4565b60405180910390fd5b60026065541415610b6c576040517f08c379a0000000000000000000000000000000000000000000000000000000008152600401610b6390614de4565b60405180910390fd5b60026065819055506000610b7e612b56565b73ffffffffffffffffffffffffffffffffffffffff16632acada4d6040518163ffffffff1660e01b815260040160006040518083038186803b158015610bc357600080fd5b505afa158015610bd7573d6000803e3d6000fd5b505050506040513d6000823e3d601f19601f82011682018060405250810190610c00919061416d565b905060005b8151811015610d4d576000610c59838381518110610c4c577f4e487b7100000000000000000000000000000000000000000000000000000000600052603260045260246000fd5b6020026020010151612b7a565b73ffffffffffffffffffffffffffffffffffffffff166370a08231306040518263ffffffff1660e01b8152600401610c9191906148bc565b60206040518083038186803b158015610ca957600080fd5b505afa158015610cbd573d6000803e3d6000fd5b505050506040513d601f19601f82011682018060405250810190610ce1919061428b565b90506000811115610d3957610d38838381518110610d28577f4e487b7100000000000000000000000000000000000000000000000000000000600052603260045260246000fd5b6020026020010151826000612d54565b5b508080610d4590615431565b915050610c05565b506000610d586109f7565b905080471015610d9d576040517f08c379a0000000000000000000000000000000000000000000000000000000008152600401610d9490614c04565b60405180910390fd5b610da6816110b1565b7f4acb957de3799dd3d95bb7da6bcfbca6f5a33812d69ad37816ed87e79b6327d6814742604051610dd993929190614e71565b60405180910390a160004790506000811115610e6957610e18813373ffffffffffffffffffffffffffffffffffffffff16612e3090919063ffffffff16565b3373ffffffffffffffffffffffffffffffffffffffff167f92ccf450a286a957af52509bc1c9939d1a6a481783e142e41e2499f0bb66ebc68242604051610e60929190614e48565b60405180910390a25b505050610e74611500565b610eb3576040517f08c379a0000000000000000000000000000000000000000000000000000000008152600401610eaa90614cc4565b60405180910390fd5b6001606581905550565b600073981bda8276ae93f567922497153de7a5683708d3905090565b610ee1612b72565b73ffffffffffffffffffffffffffffffffffffffff16610eff611d2c565b73ffffffffffffffffffffffffffffffffffffffff1614610f55576040517f08c379a0000000000000000000000000000000000000000000000000000000008152600401610f4c90614ca4565b60405180910390fd5b60026065541415610f9b576040517f08c379a0000000000000000000000000000000000000000000000000000000008152600401610f9290614de4565b60405180910390fd5b600260658190555080471015610fe6576040517f08c379a0000000000000000000000000000000000000000000000000000000008152600401610fdd90614be4565b60405180910390fd5b61100f813373ffffffffffffffffffffffffffffffffffffffff16612e3090919063ffffffff16565b3373ffffffffffffffffffffffffffffffffffffffff167f92ccf450a286a957af52509bc1c9939d1a6a481783e142e41e2499f0bb66ebc68242604051611057929190614e48565b60405180910390a2611067611500565b6110a6576040517f08c379a000000000000000000000000000000000000000000000000000000000815260040161109d90614cc4565b60405180910390fd5b600160658190555050565b6110b9611500565b80156110d657506000151560008054906101000a900460ff161515145b1561111b576110e3611d2c565b73ffffffffffffffffffffffffffffffffffffffff163373ffffffffffffffffffffffffffffffffffffffff161461111a57600080fd5b5b61112c816111276109f7565b612f56565b905080471015611171576040517f08c379a000000000000000000000000000000000000000000000000000000000815260040161116890614aa4565b60405180910390fd5b6111796107ff565b73ffffffffffffffffffffffffffffffffffffffff1663402d8883826040518263ffffffff1660e01b81526004016000604051808303818588803b1580156111c057600080fd5b505af11580156111d4573d6000803e3d6000fd5b50505050503373ffffffffffffffffffffffffffffffffffffffff167f1b8cd61ed43bec7c6bdad3a18ffee613f99c853d16c50678d248d879e1b434388242604051611221929190614e48565b60405180910390a250565b611234612b72565b73ffffffffffffffffffffffffffffffffffffffff16611252611d2c565b73ffffffffffffffffffffffffffffffffffffffff16146112a8576040517f08c379a000000000000000000000000000000000000000000000000000000000815260040161129f90614ca4565b60405180910390fd5b600260655414156112ee576040517f08c379a00000000000000000000000000000000000000000000000000000000081526004016112e590614de4565b60405180910390fd5b60026065819055506000611300610a8e565b9050611334818361130f611df5565b73ffffffffffffffffffffffffffffffffffffffff16612f6f9092919063ffffffff16565b8073ffffffffffffffffffffffffffffffffffffffff166318994c1f836040518263ffffffff1660e01b815260040161136d9190614e04565b602060405180830381600087803b15801561138757600080fd5b505af115801561139b573d6000803e3d6000fd5b505050506040513d601f19601f820116820180604052508101906113bf91906141ae565b6113fe576040517f08c379a00000000000000000000000000000000000000000000000000000000081526004016113f590614ce4565b60405180910390fd5b50611407611500565b611446576040517f08c379a000000000000000000000000000000000000000000000000000000000815260040161143d90614cc4565b60405180910390fd5b600160658190555050565b60008061145c6109f7565b9050600061146861211c565b9050600082141561147e576000925050506114c5565b808210156114b8578181611492919061529c565b61149a6109ed565b836114a59190615242565b6114af9190615064565b925050506114c5565b6114c0611e11565b925050505b90565b6000733befdd935b50f172e696a5187dbacfef0d208e48905090565b6000601e905090565b6000610fa0905090565b60006064905090565b600061150a611e11565b611512611451565b10905090565b611520612b72565b73ffffffffffffffffffffffffffffffffffffffff1661153e611d2c565b73ffffffffffffffffffffffffffffffffffffffff1614611594576040517f08c379a000000000000000000000000000000000000000000000000000000000815260040161158b90614ca4565b60405180910390fd5b600260655414156115da576040517f08c379a00000000000000000000000000000000000000000000000000000000081526004016115d190614de4565b60405180910390fd5b600260658190555080471015611625576040517f08c379a000000000000000000000000000000000000000000000000000000000815260040161161c90614d04565b60405180910390fd5b61162d610a8e565b73ffffffffffffffffffffffffffffffffffffffff166347f63dfd82836040518363ffffffff1660e01b81526004016116669190614e04565b6000604051808303818588803b15801561167f57600080fd5b505af1158015611693573d6000803e3d6000fd5b50505050506116a0611500565b6116df576040517f08c379a00000000000000000000000000000000000000000000000000000000081526004016116d690614cc4565b60405180910390fd5b600160658190555050565b606060006116f6612b56565b73ffffffffffffffffffffffffffffffffffffffff16632acada4d6040518163ffffffff1660e01b815260040160006040518083038186803b15801561173b57600080fd5b505afa15801561174f573d6000803e3d6000fd5b505050506040513d6000823e3d601f19601f82011682018060405250810190611778919061416d565b90506000815167ffffffffffffffff8111156117bd577f4e487b7100000000000000000000000000000000000000000000000000000000600052604160045260246000fd5b6040519080825280602002602001820160405280156117eb5781602001602082028036833780820191505090505b50905060005b825181101561189c5761184430848381518110611837577f4e487b7100000000000000000000000000000000000000000000000000000000600052603260045260246000fd5b6020026020010151611ff5565b82828151811061187d577f4e487b7100000000000000000000000000000000000000000000000000000000600052603260045260246000fd5b602002602001018181525050808061189490615431565b9150506117f1565b50809250505090565b6118ad612b72565b73ffffffffffffffffffffffffffffffffffffffff166118cb611d2c565b73ffffffffffffffffffffffffffffffffffffffff1614611921576040517f08c379a000000000000000000000000000000000000000000000000000000000815260040161191890614ca4565b60405180910390fd5b61192b60006130a5565b565b6000816119386114e4565b42611943919061500e565b11611983576040517f08c379a000000000000000000000000000000000000000000000000000000000815260040161197a90614d84565b60405180910390fd5b814210806119a25750611994612b4d565b82426119a0919061529c565b105b9050919050565b600060029054906101000a900460ff166119d357600060019054906101000a900460ff16156119dc565b6119db61316b565b5b611a1b576040517f08c379a0000000000000000000000000000000000000000000000000000000008152600401611a1290614c44565b60405180910390fd5b60008060029054906101000a900460ff161590508015611a6c576001600060026101000a81548160ff0219169083151502179055506001600060016101000a81548160ff0219169083151502179055505b611a7461317c565b611a7c6131d5565b8015611a9d5760008060026101000a81548160ff0219169083151502179055505b50565b611aa8612b72565b73ffffffffffffffffffffffffffffffffffffffff16611ac6611d2c565b73ffffffffffffffffffffffffffffffffffffffff1614611b1c576040517f08c379a0000000000000000000000000000000000000000000000000000000008152600401611b1390614ca4565b60405180910390fd5b60026065541415611b62576040517f08c379a0000000000000000000000000000000000000000000000000000000008152600401611b5990614de4565b60405180910390fd5b600260658190555080471015611bad576040517f08c379a0000000000000000000000000000000000000000000000000000000008152600401611ba490614be4565b60405180910390fd5b6000611bb7612b56565b73ffffffffffffffffffffffffffffffffffffffff16635d8874e98386866040518463ffffffff1660e01b8152600401611bf2929190614973565b6020604051808303818588803b158015611c0b57600080fd5b505af1158015611c1f573d6000803e3d6000fd5b50505050506040513d601f19601f82011682018060405250810190611c4491906141ae565b905080611c86576040517f08c379a0000000000000000000000000000000000000000000000000000000008152600401611c7d90614dc4565b60405180910390fd5b833373ffffffffffffffffffffffffffffffffffffffff167f8c4f7b2f9ad7fde21c3ebf69d91938c2731761edd5820e45c17ea61d9c2ab90a8542604051611ccf929190614e48565b60405180910390a350611ce0611500565b611d1f576040517f08c379a0000000000000000000000000000000000000000000000000000000008152600401611d1690614cc4565b60405180910390fd5b6001606581905550505050565b6000603360009054906101000a900473ffffffffffffffffffffffffffffffffffffffff16905090565b60606000611d62612b56565b73ffffffffffffffffffffffffffffffffffffffff16632acada4d6040518163ffffffff1660e01b815260040160006040518083038186803b158015611da757600080fd5b505afa158015611dbb573d6000803e3d6000fd5b505050506040513d6000823e3d601f19601f82011682018060405250810190611de4919061416d565b9050611def8161322e565b91505090565b600073957ca4a4aa7cdc866cf430bb140753f04e273bc0905090565b6000611388905090565b3373ffffffffffffffffffffffffffffffffffffffff167fcd909ec339185c4598a4096e174308fbdf136d117f230960f873a2f2e81f63af3442604051611e63929190614e48565b60405180910390a2565b611e75612b72565b73ffffffffffffffffffffffffffffffffffffffff16611e93611d2c565b73ffffffffffffffffffffffffffffffffffffffff1614611ee9576040517f08c379a0000000000000000000000000000000000000000000000000000000008152600401611ee090614ca4565b60405180910390fd5b611ef16107ff565b73ffffffffffffffffffffffffffffffffffffffff1663c5ebeaec826040518263ffffffff1660e01b8152600401611f299190614e04565b600060405180830381600087803b158015611f4357600080fd5b505af1158015611f57573d6000803e3d6000fd5b505050503373ffffffffffffffffffffffffffffffffffffffff167feae9cfbc77fdd40ca899f36b608256063b2bc9d8178b0220f7ad513e178d67308242604051611fa3929190614e48565b60405180910390a2611fb3611500565b611ff2576040517f08c379a0000000000000000000000000000000000000000000000000000000008152600401611fe990614cc4565b60405180910390fd5b50565b600080612000612b56565b73ffffffffffffffffffffffffffffffffffffffff166376d02895846040518263ffffffff1660e01b81526004016120389190614958565b60206040518083038186803b15801561205057600080fd5b505afa158015612064573d6000803e3d6000fd5b505050506040513d601f19601f820116820180604052508101906120889190614108565b90508073ffffffffffffffffffffffffffffffffffffffff166370a08231856040518263ffffffff1660e01b81526004016120c391906148bc565b60206040518083038186803b1580156120db57600080fd5b505afa1580156120ef573d6000803e3d6000fd5b505050506040513d601f19601f82011682018060405250810190612113919061428b565b91505092915050565b600080479050600061212c612b56565b73ffffffffffffffffffffffffffffffffffffffff16632acada4d6040518163ffffffff1660e01b815260040160006040518083038186803b15801561217157600080fd5b505afa158015612185573d6000803e3d6000fd5b505050506040513d6000823e3d601f19601f820116820180604052508101906121ae919061416d565b905060006121bb8261322e565b90506000816000815181106121f9577f4e487b7100000000000000000000000000000000000000000000000000000000600052603260045260246000fd5b602002602001015190506000811415612247576040517f08c379a000000000000000000000000000000000000000000000000000000000815260040161223e90614b64565b60405180910390fd5b6000600190505b825181101561245c576000838281518110612292577f4e487b7100000000000000000000000000000000000000000000000000000000600052603260045260246000fd5b602002602001015114156122db576040517f08c379a00000000000000000000000000000000000000000000000000000000081526004016122d290614c24565b60405180910390fd5b6000848281518110612316577f4e487b7100000000000000000000000000000000000000000000000000000000600052603260045260246000fd5b60200260200101519050600061232b82612b7a565b905060006123393084611ff5565b90508173ffffffffffffffffffffffffffffffffffffffff1663313ce5676040518163ffffffff1660e01b815260040160206040518083038186803b15801561238157600080fd5b505afa158015612395573d6000803e3d6000fd5b505050506040513d601f19601f820116820180604052508101906123b991906142b4565b600a6123c591906150e8565b856123d09190615242565b81670de0b6b3a7640000888781518110612413577f4e487b7100000000000000000000000000000000000000000000000000000000600052603260045260246000fd5b60200260200101516124259190615242565b61242f9190615242565b6124399190615064565b88612444919061500e565b9750505050808061245490615431565b91505061224e565b50612465610a8e565b73ffffffffffffffffffffffffffffffffffffffff16633999c4886040518163ffffffff1660e01b815260040160206040518083038186803b1580156124aa57600080fd5b505afa1580156124be573d6000803e3d6000fd5b505050506040513d601f19601f820116820180604052508101906124e2919061428b565b846124ed919061500e565b93508394505050505090565b6002606554141561253f576040517f08c379a000000000000000000000000000000000000000000000000000000000815260040161253690614de4565b60405180910390fd5b600260658190555061254f611500565b1561258f576040517f08c379a000000000000000000000000000000000000000000000000000000000815260040161258690614ba4565b60405180910390fd5b60016000806101000a81548160ff02191690831515021790555060006125b36109f7565b9050808211156125c1578091505b60006125cb6109ed565b6125d36114f7565b846125de9190615242565b6125e89190615064565b9050600081846125f8919061500e565b905061260381613396565b61260c846134c5565b612615826134da565b3373ffffffffffffffffffffffffffffffffffffffff167f7abe212d4944ae75cf0a0477af92aa0db98c15aaf21d06c37c97c641427b8eb38584612657611451565b426040516126689493929190614ea8565b60405180910390a2505050600061267d611451565b9050612687611d2c565b73ffffffffffffffffffffffffffffffffffffffff163373ffffffffffffffffffffffffffffffffffffffff1614612704576126c16114ed565b811015612703576040517f08c379a00000000000000000000000000000000000000000000000000000000081526004016126fa90614c84565b60405180910390fd5b5b61270c611e11565b811061274d576040517f08c379a000000000000000000000000000000000000000000000000000000000815260040161274490614b44565b60405180910390fd5b60008060006101000a81548160ff02191690831515021790555050600160658190555050565b600260655414156127b9576040517f08c379a00000000000000000000000000000000000000000000000000000000081526004016127b090614de4565b60405180910390fd5b60026065819055506127c9612b72565b73ffffffffffffffffffffffffffffffffffffffff166127e7611d2c565b73ffffffffffffffffffffffffffffffffffffffff161461283d576040517f08c379a000000000000000000000000000000000000000000000000000000000815260040161283490614ca4565b60405180910390fd5b600061284884612b7a565b905061287c612855612b56565b848373ffffffffffffffffffffffffffffffffffffffff16612c1e9092919063ffffffff16565b6000612886612b56565b73ffffffffffffffffffffffffffffffffffffffff166348eedd6b8686866040518463ffffffff1660e01b81526004016128c29392919061499c565b602060405180830381600087803b1580156128dc57600080fd5b505af11580156128f0573d6000803e3d6000fd5b505050506040513d601f19601f8201168201806040525081019061291491906141ae565b905080612956576040517f08c379a000000000000000000000000000000000000000000000000000000000815260040161294d90614d44565b60405180910390fd5b843373ffffffffffffffffffffffffffffffffffffffff167fc95bd7ebbed9b9c3e9477753bcb60d02b328f1e5bce8b1a25986d6c73991c182864260405161299f929190614e48565b60405180910390a350506129b1611500565b6129f0576040517f08c379a00000000000000000000000000000000000000000000000000000000081526004016129e790614cc4565b60405180910390fd5b6001606581905550505050565b612a05613f7f565b6040518060800160405280612a1861211c565b8152602001612a256109f7565b8152602001612a32611451565b8152602001612a3f611500565b612a4a576000612a4d565b60015b815250905090565b612a5d612b72565b73ffffffffffffffffffffffffffffffffffffffff16612a7b611d2c565b73ffffffffffffffffffffffffffffffffffffffff1614612ad1576040517f08c379a0000000000000000000000000000000000000000000000000000000008152600401612ac890614ca4565b60405180910390fd5b600073ffffffffffffffffffffffffffffffffffffffff168173ffffffffffffffffffffffffffffffffffffffff161415612b41576040517f08c379a0000000000000000000000000000000000000000000000000000000008152600401612b3890614b04565b60405180910390fd5b612b4a816130a5565b50565b600060b4905090565b6000737bc06c482dead17c0e297afbc32f6e63d3846650905090565b600033905090565b600080612b85612b56565b73ffffffffffffffffffffffffffffffffffffffff166376d02895846040518263ffffffff1660e01b8152600401612bbd9190614958565b60206040518083038186803b158015612bd557600080fd5b505afa158015612be9573d6000803e3d6000fd5b505050506040513d601f19601f82011682018060405250810190612c0d9190614108565b905060008190508092505050919050565b6000808473ffffffffffffffffffffffffffffffffffffffff1663a9059cbb8585604051602401612c509291906148d7565b6040516020818303038152906040529060e01b6020820180517bffffffffffffffffffffffffffffffffffffffffffffffffffffffff8381831617835250505050604051612c9e919061487f565b6000604051808303816000865af19150503d8060008114612cdb576040519150601f19603f3d011682016040523d82523d6000602084013e612ce0565b606091505b5091509150818015612d0e5750600081511480612d0d575080806020019051810190612d0c91906141ae565b5b5b612d4d576040517f08c379a0000000000000000000000000000000000000000000000000000000008152600401612d4490614da4565b60405180910390fd5b5050505050565b6000612d5f84612b7a565b9050612d93612d6c612b56565b848373ffffffffffffffffffffffffffffffffffffffff16612c1e9092919063ffffffff16565b612d9b612b56565b73ffffffffffffffffffffffffffffffffffffffff166348eedd6b8585856040518463ffffffff1660e01b8152600401612dd79392919061499c565b602060405180830381600087803b158015612df157600080fd5b505af1158015612e05573d6000803e3d6000fd5b505050506040513d601f19601f82011682018060405250810190612e2991906141ae565b5050505050565b60008273ffffffffffffffffffffffffffffffffffffffff1682600067ffffffffffffffff811115612e8b577f4e487b7100000000000000000000000000000000000000000000000000000000600052604160045260246000fd5b6040519080825280601f01601f191660200182016040528015612ebd5781602001600182028036833780820191505090505b50604051612ecb919061487f565b60006040518083038185875af1925050503d8060008114612f08576040519150601f19603f3d011682016040523d82523d6000602084013e612f0d565b606091505b5050905080612f51576040517f08c379a0000000000000000000000000000000000000000000000000000000008152600401612f4890614b84565b60405180910390fd5b505050565b6000818310612f655781612f67565b825b905092915050565b6000808473ffffffffffffffffffffffffffffffffffffffff1663095ea7b38585604051602401612fa19291906148d7565b6040516020818303038152906040529060e01b6020820180517bffffffffffffffffffffffffffffffffffffffffffffffffffffffff8381831617835250505050604051612fef919061487f565b6000604051808303816000865af19150503d806000811461302c576040519150601f19603f3d011682016040523d82523d6000602084013e613031565b606091505b509150915081801561305f575060008151148061305e57508080602001905181019061305d91906141ae565b5b5b61309e576040517f08c379a000000000000000000000000000000000000000000000000000000000815260040161309590614d24565b60405180910390fd5b5050505050565b6000603360009054906101000a900473ffffffffffffffffffffffffffffffffffffffff16905081603360006101000a81548173ffffffffffffffffffffffffffffffffffffffff021916908373ffffffffffffffffffffffffffffffffffffffff1602179055508173ffffffffffffffffffffffffffffffffffffffff168173ffffffffffffffffffffffffffffffffffffffff167f8be0079c531659141344cd1fd0a4f28419497f9722a3daafe3b4186f6b6457e060405160405180910390a35050565b60006131763061350f565b15905090565b600060029054906101000a900460ff166131cb576040517f08c379a00000000000000000000000000000000000000000000000000000000081526004016131c290614d64565b60405180910390fd5b6131d3613532565b565b600060029054906101000a900460ff16613224576040517f08c379a000000000000000000000000000000000000000000000000000000000815260040161321b90614d64565b60405180910390fd5b61322c613593565b565b60606000606136033590506000602060408360ff1661324d9190615206565b6132579190614fd6565b905060606040519050818152816042830136036020830137602081016040526000818051906020012090506000816040516020016132959190614896565b6040516020818303038152906040528051906020012090506060604051905060418152604180360360208301376020810160405260006132de82846135ec90919063ffffffff16565b90506132e981610971565b613328576040517f08c379a000000000000000000000000000000000000000000000000000000000815260040161331f90614b24565b60405180910390fd5b60006062360335905061333a8161192d565b613379576040517f08c379a000000000000000000000000000000000000000000000000000000000815260040161337090614ae4565b60405180910390fd5b6133878a8960ff1689613613565b98505050505050505050919050565b60006133a1826136b9565b90508147106133b057506134c2565b60006133ba612b56565b73ffffffffffffffffffffffffffffffffffffffff16632acada4d6040518163ffffffff1660e01b815260040160006040518083038186803b1580156133ff57600080fd5b505afa158015613413573d6000803e3d6000fd5b505050506040513d6000823e3d601f19601f8201168201806040525081019061343c919061416d565b905060005b81518110156134be57834710613456576134be565b6134ab828281518110613492577f4e487b7100000000000000000000000000000000000000000000000000000000600052603260045260246000fd5b602002602001015147866134a6919061529c565b6138d7565b80806134b690615431565b915050613441565b5050505b50565b6134d76134d24783612f56565b6110b1565b50565b61350c6134e78247612f56565b3373ffffffffffffffffffffffffffffffffffffffff16612e3090919063ffffffff16565b50565b6000808273ffffffffffffffffffffffffffffffffffffffff163b119050919050565b600060029054906101000a900460ff16613581576040517f08c379a000000000000000000000000000000000000000000000000000000000815260040161357890614d64565b60405180910390fd5b61359161358c612b72565b6130a5565b565b600060029054906101000a900460ff166135e2576040517f08c379a00000000000000000000000000000000000000000000000000000000081526004016135d990614d64565b60405180910390fd5b6001606581905550565b60008060006135fb8585613a3f565b9150915061360881613ac2565b819250505092915050565b6060806000806000806042870136035995508951865260208a51026020870101604052600094505b888510156136a957604085028101359150600093505b895184101561369e57816020850260208c01015114156136865760206040860282010135602085026020880101526001830192505b8951831415613693578894505b600184019350613651565b60018501945061363b565b5084955050505050509392505050565b6000806136c4610a8e565b905060006136d0611df5565b73ffffffffffffffffffffffffffffffffffffffff1682856040516024016136f99291906148d7565b6040516020818303038152906040527f095ea7b3000000000000000000000000000000000000000000000000000000007bffffffffffffffffffffffffffffffffffffffffffffffffffffffff19166020820180517bffffffffffffffffffffffffffffffffffffffffffffffffffffffff8381831617835250505050604051613783919061487f565b6000604051808303816000865af19150503d80600081146137c0576040519150601f19603f3d011682016040523d82523d6000602084013e6137c5565b606091505b5050905060008273ffffffffffffffffffffffffffffffffffffffff16856040516024016137f39190614e04565b6040516020818303038152906040527fe15e2c44000000000000000000000000000000000000000000000000000000007bffffffffffffffffffffffffffffffffffffffffffffffffffffffff19166020820180517bffffffffffffffffffffffffffffffffffffffffffffffffffffffff838183161783525050505060405161387d919061487f565b6000604051808303816000865af19150503d80600081146138ba576040519150601f19603f3d011682016040523d82523d6000602084013e6138bf565b606091505b505090508180156138cd5750805b9350505050919050565b60006138e283612b7a565b905060008173ffffffffffffffffffffffffffffffffffffffff166370a08231306040518263ffffffff1660e01b815260040161391f91906148bc565b60206040518083038186803b15801561393757600080fd5b505afa15801561394b573d6000803e3d6000fd5b505050506040513d601f19601f8201168201806040525081019061396f919061428b565b90506000811115613a39576000613984612b56565b73ffffffffffffffffffffffffffffffffffffffff16639ac34dd385856040518363ffffffff1660e01b81526004016139be929190614e1f565b602060405180830381600087803b1580156139d857600080fd5b505af11580156139ec573d6000803e3d6000fd5b505050506040513d601f19601f82011682018060405250810190613a10919061428b565b905080821015613a2b57613a2685836000612d54565b613a37565b613a36858286612d54565b5b505b50505050565b600080604183511415613a815760008060006020860151925060408601519150606086015160001a9050613a7587828585613e13565b94509450505050613abb565b604083511415613ab2576000806020850151915060408501519050613aa7868383613f20565b935093505050613abb565b60006002915091505b9250929050565b60006004811115613afc577f4e487b7100000000000000000000000000000000000000000000000000000000600052602160045260246000fd5b816004811115613b35577f4e487b7100000000000000000000000000000000000000000000000000000000600052602160045260246000fd5b1415613b4057613e10565b60016004811115613b7a577f4e487b7100000000000000000000000000000000000000000000000000000000600052602160045260246000fd5b816004811115613bb3577f4e487b7100000000000000000000000000000000000000000000000000000000600052602160045260246000fd5b1415613bf4576040517f08c379a0000000000000000000000000000000000000000000000000000000008152600401613beb90614a84565b60405180910390fd5b60026004811115613c2e577f4e487b7100000000000000000000000000000000000000000000000000000000600052602160045260246000fd5b816004811115613c67577f4e487b7100000000000000000000000000000000000000000000000000000000600052602160045260246000fd5b1415613ca8576040517f08c379a0000000000000000000000000000000000000000000000000000000008152600401613c9f90614ac4565b60405180910390fd5b60036004811115613ce2577f4e487b7100000000000000000000000000000000000000000000000000000000600052602160045260246000fd5b816004811115613d1b577f4e487b7100000000000000000000000000000000000000000000000000000000600052602160045260246000fd5b1415613d5c576040517f08c379a0000000000000000000000000000000000000000000000000000000008152600401613d5390614bc4565b60405180910390fd5b600480811115613d95577f4e487b7100000000000000000000000000000000000000000000000000000000600052602160045260246000fd5b816004811115613dce577f4e487b7100000000000000000000000000000000000000000000000000000000600052602160045260246000fd5b1415613e0f576040517f08c379a0000000000000000000000000000000000000000000000000000000008152600401613e0690614c64565b60405180910390fd5b5b50565b6000807f7fffffffffffffffffffffffffffffff5d576e7357a4501ddfe92f46681b20a08360001c1115613e4e576000600391509150613f17565b601b8560ff1614158015613e665750601c8560ff1614155b15613e78576000600491509150613f17565b600060018787878760405160008152602001604052604051613e9d94939291906149d3565b6020604051602081039080840390855afa158015613ebf573d6000803e3d6000fd5b505050602060405103519050600073ffffffffffffffffffffffffffffffffffffffff168173ffffffffffffffffffffffffffffffffffffffff161415613f0e57600060019250925050613f17565b80600092509250505b94509492505050565b60008060007f7fffffffffffffffffffffffffffffffffffffffffffffffffffffffffffffff60001b841690506000601b60ff8660001c901c613f63919061500e565b9050613f7187828885613e13565b935093505050935093915050565b6040518060800160405280600490602082028036833780820191505090505090565b6000613fb4613faf84614f12565b614eed565b90508083825260208201905082856020860282011115613fd357600080fd5b60005b858110156140035781613fe9888261408b565b845260208401935060208301925050600181019050613fd6565b5050509392505050565b60008135905061401c81615ca6565b92915050565b60008151905061403181615ca6565b92915050565b600082601f83011261404857600080fd5b8151614058848260208601613fa1565b91505092915050565b60008151905061407081615cbd565b92915050565b60008135905061408581615cd4565b92915050565b60008151905061409a81615cd4565b92915050565b6000813590506140af81615ceb565b92915050565b6000815190506140c481615ceb565b92915050565b6000815190506140d981615d02565b92915050565b6000602082840312156140f157600080fd5b60006140ff8482850161400d565b91505092915050565b60006020828403121561411a57600080fd5b600061412884828501614022565b91505092915050565b6000806040838503121561414457600080fd5b60006141528582860161400d565b925050602061416385828601614076565b9150509250929050565b60006020828403121561417f57600080fd5b600082015167ffffffffffffffff81111561419957600080fd5b6141a584828501614037565b91505092915050565b6000602082840312156141c057600080fd5b60006141ce84828501614061565b91505092915050565b600080604083850312156141ea57600080fd5b60006141f885828601614076565b9250506020614209858286016140a0565b9150509250929050565b60008060006060848603121561422857600080fd5b600061423686828701614076565b9350506020614247868287016140a0565b9250506040614258868287016140a0565b9150509250925092565b60006020828403121561427457600080fd5b6000614282848285016140a0565b91505092915050565b60006020828403121561429d57600080fd5b60006142ab848285016140b5565b91505092915050565b6000602082840312156142c657600080fd5b60006142d4848285016140ca565b91505092915050565b60006142e98383614852565b60208301905092915050565b6142fe816152d0565b82525050565b61430d81614f58565b6143178184614f93565b925061432282614f3e565b8060005b8381101561435357815161433a87826142dd565b965061434583614f79565b925050600181019050614326565b505050505050565b600061436682614f63565b6143708185614f9e565b935061437b83614f48565b8060005b838110156143ac57815161439388826142dd565b975061439e83614f86565b92505060018101905061437f565b5085935050505092915050565b6143c2816152e2565b82525050565b6143d1816152ee565b82525050565b6143e86143e3826152ee565b61547a565b82525050565b60006143f982614f6e565b6144038185614faf565b93506144138185602086016153cd565b80840191505092915050565b6144288161533d565b82525050565b61443781615361565b82525050565b61444681615385565b82525050565b614455816153a9565b82525050565b6000614468601883614fba565b91506144738261552f565b602082019050919050565b600061448b602283614fba565b915061449682615558565b604082019050919050565b60006144ae601f83614fba565b91506144b9826155a7565b602082019050919050565b60006144d1601c83614fcb565b91506144dc826155d0565b601c82019050919050565b60006144f4601983614fba565b91506144ff826155f9565b602082019050919050565b6000614517602683614fba565b915061452282615622565b604082019050919050565b600061453a601583614fba565b915061454582615671565b602082019050919050565b600061455d604c83614fba565b91506145688261569a565b606082019050919050565b6000614580602783614fba565b915061458b8261570f565b604082019050919050565b60006145a3603483614fba565b91506145ae8261575e565b604082019050919050565b60006145c6602083614fba565b91506145d1826157ad565b602082019050919050565b60006145e9602283614fba565b91506145f4826157d6565b604082019050919050565b600061460c601283614fba565b915061461782615825565b602082019050919050565b600061462f601583614fba565b915061463a8261584e565b602082019050919050565b6000614652602883614fba565b915061465d82615877565b604082019050919050565b6000614675602e83614fba565b9150614680826158c6565b604082019050919050565b6000614698602283614fba565b91506146a382615915565b604082019050919050565b60006146bb609283614fba565b91506146c682615964565b60a082019050919050565b60006146de602083614fba565b91506146e982615a25565b602082019050919050565b6000614701603383614fba565b915061470c82615a4e565b604082019050919050565b6000614724601083614fba565b915061472f82615a9d565b602082019050919050565b6000614747601983614fba565b915061475282615ac6565b602082019050919050565b600061476a602b83614fba565b915061477582615aef565b604082019050919050565b600061478d601183614fba565b915061479882615b3e565b602082019050919050565b60006147b0602b83614fba565b91506147bb82615b67565b604082019050919050565b60006147d3602a83614fba565b91506147de82615bb6565b604082019050919050565b60006147f6602d83614fba565b915061480182615c05565b604082019050919050565b6000614819601183614fba565b915061482482615c54565b602082019050919050565b600061483c601f83614fba565b915061484782615c7d565b602082019050919050565b61485b81615326565b82525050565b61486a81615326565b82525050565b61487981615330565b82525050565b600061488b82846143ee565b915081905092915050565b60006148a1826144c4565b91506148ad82846143d7565b60208201915081905092915050565b60006020820190506148d160008301846142f5565b92915050565b60006040820190506148ec60008301856142f5565b6148f96020830184614861565b9392505050565b60006080820190506149156000830184614304565b92915050565b60006020820190508181036000830152614935818461435b565b905092915050565b600060208201905061495260008301846143b9565b92915050565b600060208201905061496d60008301846143c8565b92915050565b600060408201905061498860008301856143c8565b6149956020830184614861565b9392505050565b60006060820190506149b160008301866143c8565b6149be6020830185614861565b6149cb6040830184614861565b949350505050565b60006080820190506149e860008301876143c8565b6149f56020830186614870565b614a0260408301856143c8565b614a0f60608301846143c8565b95945050505050565b6000602082019050614a2d600083018461441f565b92915050565b6000602082019050614a48600083018461442e565b92915050565b6000602082019050614a63600083018461443d565b92915050565b6000602082019050614a7e600083018461444c565b92915050565b60006020820190508181036000830152614a9d8161445b565b9050919050565b60006020820190508181036000830152614abd8161447e565b9050919050565b60006020820190508181036000830152614add816144a1565b9050919050565b60006020820190508181036000830152614afd816144e7565b9050919050565b60006020820190508181036000830152614b1d8161450a565b9050919050565b60006020820190508181036000830152614b3d8161452d565b9050919050565b60006020820190508181036000830152614b5d81614550565b9050919050565b60006020820190508181036000830152614b7d81614573565b9050919050565b60006020820190508181036000830152614b9d81614596565b9050919050565b60006020820190508181036000830152614bbd816145b9565b9050919050565b60006020820190508181036000830152614bdd816145dc565b9050919050565b60006020820190508181036000830152614bfd816145ff565b9050919050565b60006020820190508181036000830152614c1d81614622565b9050919050565b60006020820190508181036000830152614c3d81614645565b9050919050565b60006020820190508181036000830152614c5d81614668565b9050919050565b60006020820190508181036000830152614c7d8161468b565b9050919050565b60006020820190508181036000830152614c9d816146ae565b9050919050565b60006020820190508181036000830152614cbd816146d1565b9050919050565b60006020820190508181036000830152614cdd816146f4565b9050919050565b60006020820190508181036000830152614cfd81614717565b9050919050565b60006020820190508181036000830152614d1d8161473a565b9050919050565b60006020820190508181036000830152614d3d8161475d565b9050919050565b60006020820190508181036000830152614d5d81614780565b9050919050565b60006020820190508181036000830152614d7d816147a3565b9050919050565b60006020820190508181036000830152614d9d816147c6565b9050919050565b60006020820190508181036000830152614dbd816147e9565b9050919050565b60006020820190508181036000830152614ddd8161480c565b9050919050565b60006020820190508181036000830152614dfd8161482f565b9050919050565b6000602082019050614e196000830184614861565b92915050565b6000604082019050614e346000830185614861565b614e4160208301846142f5565b9392505050565b6000604082019050614e5d6000830185614861565b614e6a6020830184614861565b9392505050565b6000606082019050614e866000830186614861565b614e936020830185614861565b614ea06040830184614861565b949350505050565b6000608082019050614ebd6000830187614861565b614eca6020830186614861565b614ed76040830185614861565b614ee46060830184614861565b95945050505050565b6000614ef7614f08565b9050614f038282615400565b919050565b6000604051905090565b600067ffffffffffffffff821115614f2d57614f2c6154e2565b5b602082029050602081019050919050565b6000819050919050565b6000819050602082019050919050565b600060049050919050565b600081519050919050565b600081519050919050565b6000602082019050919050565b6000602082019050919050565b600081905092915050565b600082825260208201905092915050565b600081905092915050565b600082825260208201905092915050565b600081905092915050565b6000614fe1826152f8565b9150614fec836152f8565b92508261ffff0382111561500357615002615484565b5b828201905092915050565b600061501982615326565b915061502483615326565b9250827fffffffffffffffffffffffffffffffffffffffffffffffffffffffffffffffff0382111561505957615058615484565b5b828201905092915050565b600061506f82615326565b915061507a83615326565b92508261508a576150896154b3565b5b828204905092915050565b6000808291508390505b60018511156150df578086048111156150bb576150ba615484565b5b60018516156150ca5780820291505b80810290506150d885615522565b945061509f565b94509492505050565b60006150f382615326565b91506150fe83615330565b925061512b7fffffffffffffffffffffffffffffffffffffffffffffffffffffffffffffffff8484615133565b905092915050565b60008261514357600190506151ff565b8161515157600090506151ff565b81600181146151675760028114615171576151a0565b60019150506151ff565b60ff84111561518357615182615484565b5b8360020a91508482111561519a57615199615484565b5b506151ff565b5060208310610133831016604e8410600b84101617156151d55782820a9050838111156151d0576151cf615484565b5b6151ff565b6151e28484846001615095565b925090508184048111156151f9576151f8615484565b5b81810290505b9392505050565b6000615211826152f8565b915061521c836152f8565b92508161ffff048311821515161561523757615236615484565b5b828202905092915050565b600061524d82615326565b915061525883615326565b9250817fffffffffffffffffffffffffffffffffffffffffffffffffffffffffffffffff048311821515161561529157615290615484565b5b828202905092915050565b60006152a782615326565b91506152b283615326565b9250828210156152c5576152c4615484565b5b828203905092915050565b60006152db82615306565b9050919050565b60008115159050919050565b6000819050919050565b600061ffff82169050919050565b600073ffffffffffffffffffffffffffffffffffffffff82169050919050565b6000819050919050565b600060ff82169050919050565b60006153488261534f565b9050919050565b600061535a82615306565b9050919050565b600061536c82615373565b9050919050565b600061537e82615306565b9050919050565b600061539082615397565b9050919050565b60006153a282615306565b9050919050565b60006153b4826153bb565b9050919050565b60006153c682615306565b9050919050565b60005b838110156153eb5780820151818401526020810190506153d0565b838111156153fa576000848401525b50505050565b61540982615511565b810181811067ffffffffffffffff82111715615428576154276154e2565b5b80604052505050565b600061543c82615326565b91507fffffffffffffffffffffffffffffffffffffffffffffffffffffffffffffffff82141561546f5761546e615484565b5b600182019050919050565b6000819050919050565b7f4e487b7100000000000000000000000000000000000000000000000000000000600052601160045260246000fd5b7f4e487b7100000000000000000000000000000000000000000000000000000000600052601260045260246000fd5b7f4e487b7100000000000000000000000000000000000000000000000000000000600052604160045260246000fd5b6000601f19601f8301169050919050565b60008160011c9050919050565b7f45434453413a20696e76616c6964207369676e61747572650000000000000000600082015250565b7f4e6f7420656e6f7567682066756e647320746f20726570617920746865206c6f60008201527f616e000000000000000000000000000000000000000000000000000000000000602082015250565b7f45434453413a20696e76616c6964207369676e6174757265206c656e67746800600082015250565b7f19457468657265756d205369676e6564204d6573736167653a0a333200000000600082015250565b7f446174612074696d657374616d7020697320696e76616c696400000000000000600082015250565b7f4f776e61626c653a206e6577206f776e657220697320746865207a65726f206160008201527f6464726573730000000000000000000000000000000000000000000000000000602082015250565b7f5369676e6572206e6f7420617574686f72697a65640000000000000000000000600082015250565b7f54686973206f7065726174696f6e20776f756c64206e6f7420726573756c742060008201527f696e206272696e67696e6720746865206c6f616e206261636b20746f2061207360208201527f6f6c76656e742073746174650000000000000000000000000000000000000000604082015250565b7f417661782070726963652072657475726e65642066726f6d206f7261636c652060008201527f6973207a65726f00000000000000000000000000000000000000000000000000602082015250565b7f5472616e7366657248656c7065723a3a736166655472616e736665724554483a60008201527f20455448207472616e73666572206661696c6564000000000000000000000000602082015250565b7f43616e6e6f742073656c6c6f7574206120736f6c76656e74206163636f756e74600082015250565b7f45434453413a20696e76616c6964207369676e6174757265202773272076616c60008201527f7565000000000000000000000000000000000000000000000000000000000000602082015250565b7f496e73756666696369656e742066756e64730000000000000000000000000000600082015250565b7f44656274206e6f74207265706169642066756c6c790000000000000000000000600082015250565b7f41737365742070726963652072657475726e65642066726f6d206f7261636c6560008201527f206973207a65726f000000000000000000000000000000000000000000000000602082015250565b7f496e697469616c697a61626c653a20636f6e747261637420697320616c72656160008201527f647920696e697469616c697a6564000000000000000000000000000000000000602082015250565b7f45434453413a20696e76616c6964207369676e6174757265202776272076616c60008201527f7565000000000000000000000000000000000000000000000000000000000000602082015250565b7f54686973206f7065726174696f6e20776f756c6420726573756c7420696e206160008201527f206c6f616e2077697468204c5456206c6f776572207468616e204d696e696d6160208201527f6c2053656c6c6f7574204c545620776869636820776f756c6420707574206c6f60408201527f616e2773206f776e657220696e2061207269736b206f6620616e20756e6e656360608201527f6573736172696c792068696768206c6f73730000000000000000000000000000608082015250565b7f4f776e61626c653a2063616c6c6572206973206e6f7420746865206f776e6572600082015250565b7f54686520616374696f6e206d617920636175736520616e206163636f756e742060008201527f746f206265636f6d6520696e736f6c76656e7400000000000000000000000000602082015250565b7f556e7374616b696e67206661696c656400000000000000000000000000000000600082015250565b7f4e6f7420656e6f756768204156415820617661696c61626c6500000000000000600082015250565b7f5472616e7366657248656c7065723a3a73616665417070726f76653a2061707060008201527f726f7665206661696c6564000000000000000000000000000000000000000000602082015250565b7f526564656d7074696f6e206661696c6564000000000000000000000000000000600082015250565b7f496e697469616c697a61626c653a20636f6e7472616374206973206e6f74206960008201527f6e697469616c697a696e67000000000000000000000000000000000000000000602082015250565b7f446174612077697468206675747572652074696d657374616d7073206973206e60008201527f6f7420616c6c6f77656400000000000000000000000000000000000000000000602082015250565b7f5472616e7366657248656c7065723a3a736166655472616e736665723a20747260008201527f616e73666572206661696c656400000000000000000000000000000000000000602082015250565b7f496e766573746d656e74206661696c6564000000000000000000000000000000600082015250565b7f5265656e7472616e637947756172643a207265656e7472616e742063616c6c00600082015250565b615caf816152d0565b8114615cba57600080fd5b50565b615cc6816152e2565b8114615cd157600080fd5b50565b615cdd816152ee565b8114615ce857600080fd5b50565b615cf481615326565b8114615cff57600080fd5b50565b615d0b81615330565b8114615d1657600080fd5b5056fea26469706673582212206592324fa0dd5067008e5519aebc5fb34e51c2962b1378f9227b844a1fc2a84c64736f6c63430008040033",
  "devdoc": {
    "events": {
      "Borrowed(address,uint256,uint256)": {
        "details": "emitted when funds are borrowed from the pool",
        "params": {
          "amount": "of the borrowed funds",
          "borrower": "the address of borrower",
          "timestamp": "time of the borrowing*"
        }
      },
      "Funded(address,uint256,uint256)": {
        "details": "emitted after a loan is funded",
        "params": {
          "amount": "the amount of funds",
          "funder": "the address which funded the loan",
          "timestamp": "time of funding*"
        }
      },
      "Invested(address,bytes32,uint256,uint256)": {
        "details": "emitted after the funds are invested into an asset",
        "params": {
          "amount": "the investment",
          "asset": "bought by the investor",
          "investor": "the address of investor making the purchase",
          "timestamp": "time of the investment*"
        }
      },
      "Liquidated(address,uint256,uint256,uint256,uint256)": {
        "details": "emitted after a successful liquidation operation",
        "params": {
          "bonus": "an amount of bonus (AVAX) received by the liquidator",
          "liquidator": "the address that initiated the liquidation operation",
          "ltv": "a new LTV after the liquidation operation",
          "repayAmount": "requested amount (AVAX) of liquidation",
          "timestamp": "a time of the liquidation*"
        }
      },
      "LoanClosed(uint256,uint256,uint256)": {
        "details": "emitted after closing a loan by the owner",
        "params": {
          "debtRepaid": "the amount of a borrowed AVAX that was repaid back to the pool",
          "timestamp": "a time of the loan's closure*",
          "withdrawalAmount": "the amount of AVAX that was withdrawn by the owner after closing the loan"
        }
      },
      "Redeemed(address,bytes32,uint256,uint256)": {
        "details": "emitted after the investment is sold",
        "params": {
          "amount": "the investment",
          "asset": "sold by the investor",
          "investor": "the address of investor selling the asset",
          "timestamp": "of the redemption*"
        }
      },
      "Repaid(address,uint256,uint256)": {
        "details": "emitted when funds are repaid to the pool",
        "params": {
          "amount": "of repaid funds",
          "borrower": "the address initiating repayment",
          "timestamp": "of the repayment*"
        }
      },
      "Withdrawn(address,uint256,uint256)": {
        "details": "emitted after the funds are withdrawn from the loan",
        "params": {
          "amount": "the amount of funds withdrawn",
          "owner": "the address which withdraws funds from the loan",
          "timestamp": "of the withdrawal*"
        }
      }
    },
    "kind": "dev",
    "methods": {
      "borrow(uint256)": {
        "details": "This function uses the redstone-evm-connector*",
        "params": {
          "_amount": "of funds to borrow"
        }
      },
      "closeLoan()": {
        "details": "This function uses the redstone-evm-connector*"
      },
      "getAllAssetsPrices()": {
        "details": "This function uses the redstone-evm-connector*"
      },
      "getBalance(address,bytes32)": {
        "details": "_asset the code of an asset_user the address of queried user*"
      },
      "getLTV()": {
        "details": "This function uses the redstone-evm-connector*"
      },
      "getTotalValue()": {
        "details": "This function uses the redstone-evm-connector*"
      },
      "invest(bytes32,uint256,uint256)": {
        "details": "This function uses the redstone-evm-connector*",
        "params": {
          "_asset": "code of the asset",
          "_exactERC20AmountOut": "exact amount of asset to buy",
          "_maxAvaxAmountIn": "maximum amount of AVAX to sell"
        }
      },
      "isSolvent()": {
        "details": "This function uses the redstone-evm-connector*"
      },
      "liquidateLoan(uint256)": {
        "details": "This function uses the redstone-evm-connector*"
      },
      "owner()": {
        "details": "Returns the address of the current owner."
      },
      "redeem(bytes32,uint256,uint256)": {
        "details": "This function uses the redstone-evm-connector*",
        "params": {
          "_asset": "code of the asset",
          "_exactERC20AmountIn": "exact amount of token to sell",
          "_minAvaxAmountOut": "minimum amount of the AVAX token to buy"
        }
      },
      "renounceOwnership()": {
        "details": "Leaves the contract without owner. It will not be possible to call `onlyOwner` functions anymore. Can only be called by the current owner. NOTE: Renouncing ownership will leave the contract without an owner, thereby removing any functionality that is only available to the owner."
      },
      "repay(uint256)": {
        "details": "This function uses the redstone-evm-connector*",
        "params": {
          "_amount": "of funds to repay"
        }
      },
      "transferOwnership(address)": {
        "details": "Transfers ownership of the contract to a new account (`newOwner`). Can only be called by the current owner."
      },
      "withdraw(uint256)": {
        "details": "This function uses the redstone-evm-connector*",
        "params": {
          "_amount": "to be withdrawn"
        }
      },
      "withdrawAsset(bytes32,uint256)": {
        "details": "This function uses the redstone-evm-connector*"
      }
    },
    "title": "SmartLoan A contract that is authorised to borrow funds using delegated credit. It maintains solvency calculating the current value of assets and borrowings. In case the value of assets held drops below certain level, part of the funds may be forcibly repaid. It permits only a limited and safe token transfer.",
    "version": 1
  },
  "userdoc": {
    "kind": "user",
    "methods": {
      "borrow(uint256)": {
        "notice": "Borrows funds from the pool"
      },
      "closeLoan()": {
        "notice": "This function can only be accessed by the owner and allows selling all of the assets."
      },
      "fund()": {
        "notice": "Funds a loan with the value attached to the transaction*"
      },
      "getAllAssetsBalances()": {
        "notice": "Returns the balances of all assets served by the price provider It could be used as a helper method for UI*"
      },
      "getAllAssetsPrices()": {
        "notice": "Returns the prices of all assets served by the price provider It could be used as a helper method for UI"
      },
      "getBalance(address,bytes32)": {
        "notice": "Returns the current balance of the asset held by a given user"
      },
      "getDebt()": {
        "notice": "Returns the current debt associated with the loan*"
      },
      "getLTV()": {
        "notice": "LoanToValue ratio is calculated as the ratio between debt and collateral. The collateral is equal to total loan value takeaway debt."
      },
      "getMaxBlockTimestampDelay()": {
        "notice": "Override PriceAware method to consider Avalanche guaranteed block timestamp time accuracy*"
      },
      "getTotalValue()": {
        "notice": "Returns the current value of a loan in AVAX including cash and investments"
      },
      "invest(bytes32,uint256,uint256)": {
        "notice": "Invests an amount to buy an asset"
      },
      "isSignerAuthorized(address)": {
        "notice": "Override PriceAware method, addresses below belong to authorized signers of data feeds*"
      },
      "isSolvent()": {
        "notice": "Checks if the loan is solvent. It means that the ratio between debt and collateral is below safe level, which is parametrized by the getMaxLtv()"
      },
      "redeem(bytes32,uint256,uint256)": {
        "notice": "Redeem an investment by selling an asset"
      },
      "repay(uint256)": {
        "notice": "Repays funds to the pool"
      },
      "withdraw(uint256)": {
        "notice": "Withdraws an amount from the loan This method could be used to cash out profits from investments The loan needs to remain solvent after the withdrawal"
      }
    },
    "version": 1
  },
  "storageLayout": {
    "storage": [
      {
        "astId": 6436,
        "contract": "contracts/SmartLoan.sol:SmartLoan",
        "label": "_liquidationInProgress",
        "offset": 0,
        "slot": "0",
        "type": "t_bool"
      },
      {
        "astId": 130,
        "contract": "contracts/SmartLoan.sol:SmartLoan",
        "label": "_initialized",
        "offset": 1,
        "slot": "0",
        "type": "t_bool"
      },
      {
        "astId": 133,
        "contract": "contracts/SmartLoan.sol:SmartLoan",
        "label": "_initializing",
        "offset": 2,
        "slot": "0",
        "type": "t_bool"
      },
      {
        "astId": 540,
        "contract": "contracts/SmartLoan.sol:SmartLoan",
        "label": "__gap",
        "offset": 0,
        "slot": "1",
        "type": "t_array(t_uint256)50_storage"
      },
      {
        "astId": 10,
        "contract": "contracts/SmartLoan.sol:SmartLoan",
        "label": "_owner",
        "offset": 0,
        "slot": "51",
        "type": "t_address"
      },
      {
        "astId": 122,
        "contract": "contracts/SmartLoan.sol:SmartLoan",
        "label": "__gap",
        "offset": 0,
        "slot": "52",
        "type": "t_array(t_uint256)49_storage"
      },
      {
        "astId": 211,
        "contract": "contracts/SmartLoan.sol:SmartLoan",
        "label": "_status",
        "offset": 0,
        "slot": "101",
        "type": "t_uint256"
      },
      {
        "astId": 255,
        "contract": "contracts/SmartLoan.sol:SmartLoan",
        "label": "__gap",
        "offset": 0,
        "slot": "102",
        "type": "t_array(t_uint256)49_storage"
      }
    ],
    "types": {
      "t_address": {
        "encoding": "inplace",
        "label": "address",
        "numberOfBytes": "20"
      },
      "t_array(t_uint256)49_storage": {
        "base": "t_uint256",
        "encoding": "inplace",
        "label": "uint256[49]",
        "numberOfBytes": "1568"
      },
      "t_array(t_uint256)50_storage": {
        "base": "t_uint256",
        "encoding": "inplace",
        "label": "uint256[50]",
        "numberOfBytes": "1600"
      },
      "t_bool": {
        "encoding": "inplace",
        "label": "bool",
        "numberOfBytes": "1"
      },
      "t_uint256": {
        "encoding": "inplace",
        "label": "uint256",
        "numberOfBytes": "32"
      }
    }
  }
}