{
  "address": "0xdbC43Ba45381e02825b14322cDdd15eC4B3164E6",
  "abi": [
    {
      "anonymous": false,
      "inputs": [
        {
          "indexed": true,
          "internalType": "address",
          "name": "previousOwner",
          "type": "address"
        },
        {
          "indexed": true,
          "internalType": "address",
          "name": "newOwner",
          "type": "address"
        }
      ],
      "name": "OwnershipTransferred",
      "type": "event"
    },
    {
      "anonymous": false,
      "inputs": [
        {
          "indexed": true,
          "internalType": "address",
          "name": "accountAddress",
          "type": "address"
        },
        {
          "indexed": true,
          "internalType": "address",
          "name": "creator",
          "type": "address"
        },
        {
          "indexed": false,
          "internalType": "uint256",
          "name": "initialCollateral",
          "type": "uint256"
        },
        {
          "indexed": false,
          "internalType": "uint256",
          "name": "initialDebt",
          "type": "uint256"
        }
      ],
      "name": "SmartLoanCreated",
      "type": "event"
    },
    {
      "inputs": [
        {
          "internalType": "address",
          "name": "_account",
          "type": "address"
        }
      ],
      "name": "canBorrow",
      "outputs": [
        {
          "internalType": "bool",
          "name": "",
          "type": "bool"
        }
      ],
      "stateMutability": "view",
      "type": "function"
    },
    {
      "inputs": [
        {
          "internalType": "uint256",
          "name": "_initialDebt",
          "type": "uint256"
        }
      ],
      "name": "createAndFundLoan",
      "outputs": [
        {
          "internalType": "contract SmartLoan",
          "name": "",
          "type": "address"
        }
      ],
      "stateMutability": "payable",
      "type": "function"
    },
    {
      "inputs": [],
      "name": "createLoan",
      "outputs": [
        {
          "internalType": "contract SmartLoan",
          "name": "",
          "type": "address"
        }
      ],
      "stateMutability": "nonpayable",
      "type": "function"
    },
    {
      "inputs": [],
      "name": "getAccessNFT",
      "outputs": [
        {
          "internalType": "contract ERC721",
          "name": "accessNFT",
          "type": "address"
        }
      ],
      "stateMutability": "view",
      "type": "function"
    },
    {
      "inputs": [],
      "name": "getAllLoans",
      "outputs": [
        {
          "internalType": "contract SmartLoan[]",
          "name": "",
          "type": "address[]"
        }
      ],
      "stateMutability": "view",
      "type": "function"
    },
    {
      "inputs": [
        {
          "internalType": "address",
          "name": "_user",
          "type": "address"
        }
      ],
      "name": "getLoanForOwner",
      "outputs": [
        {
          "internalType": "address",
          "name": "",
          "type": "address"
        }
      ],
      "stateMutability": "view",
      "type": "function"
    },
    {
      "inputs": [
        {
          "internalType": "address",
          "name": "_loan",
          "type": "address"
        }
      ],
      "name": "getOwnerOfLoan",
      "outputs": [
        {
          "internalType": "address",
          "name": "",
          "type": "address"
        }
      ],
      "stateMutability": "view",
      "type": "function"
    },
    {
      "inputs": [
        {
          "internalType": "contract SmartLoan",
          "name": "_smartLoanImplementation",
          "type": "address"
        }
      ],
      "name": "initialize",
      "outputs": [],
      "stateMutability": "nonpayable",
      "type": "function"
    },
    {
      "inputs": [
        {
          "internalType": "address",
          "name": "",
          "type": "address"
        }
      ],
      "name": "loansToOwners",
      "outputs": [
        {
          "internalType": "address",
          "name": "",
          "type": "address"
        }
      ],
      "stateMutability": "view",
      "type": "function"
    },
    {
      "inputs": [],
      "name": "owner",
      "outputs": [
        {
          "internalType": "address",
          "name": "",
          "type": "address"
        }
      ],
      "stateMutability": "view",
      "type": "function"
    },
    {
      "inputs": [
        {
          "internalType": "address",
          "name": "",
          "type": "address"
        }
      ],
      "name": "ownersToLoans",
      "outputs": [
        {
          "internalType": "address",
          "name": "",
          "type": "address"
        }
      ],
      "stateMutability": "view",
      "type": "function"
    },
    {
      "inputs": [],
      "name": "renounceOwnership",
      "outputs": [],
      "stateMutability": "nonpayable",
      "type": "function"
    },
    {
      "inputs": [
        {
          "internalType": "contract ERC721",
          "name": "nftAddress",
          "type": "address"
        }
      ],
      "name": "setAccessNFT",
      "outputs": [],
      "stateMutability": "nonpayable",
      "type": "function"
    },
    {
      "inputs": [
        {
          "internalType": "address",
          "name": "newOwner",
          "type": "address"
        }
      ],
      "name": "transferOwnership",
      "outputs": [],
      "stateMutability": "nonpayable",
      "type": "function"
    },
    {
      "inputs": [],
      "name": "upgradeableBeacon",
      "outputs": [
        {
          "internalType": "contract UpgradeableBeacon",
          "name": "",
          "type": "address"
        }
      ],
      "stateMutability": "view",
      "type": "function"
    }
  ],
  "transactionHash": "0x7df68da6c1efdf9b1a8b4931bd8f2422d1c4079face996ef310ce4a0691ce669",
  "args": [],
  "numDeployments": 1,
  "solcInputHash": "98e15aa99c629182b7597b7de7f9ee6d",
  "bytecode": "0x608060405234801561001057600080fd5b5061430b806100206000396000f3fe608060405260043610620000fe5760003560e01c8063715018a61162000097578063d26095201162000061578063d2609520146200035d578063e3fcd8d1146200038d578063e78fd93114620003bd578063f2fde38b14620003f357620000fe565b8063715018a614620002b55780638da5cb5b14620002cf578063a5bfd16a14620002ff578063c4d66de8146200032f57620000fe565b8063357719ef11620000d9578063357719ef14620001cf578063429c9a5a14620002135780635b012546146200024157806365ec1a45146200028557620000fe565b80630e7fc86414620001035780631f278b7414620001475780633344a555146200018b575b600080fd5b3480156200011057600080fd5b506200012f600480360381019062000129919062001b55565b62000421565b6040516200013e919062001fc4565b60405180910390f35b3480156200015457600080fd5b506200017360048036038101906200016d919062001b55565b620004b9565b60405162000182919062001f4f565b60405180910390f35b3480156200019857600080fd5b50620001b76004803603810190620001b1919062001b55565b620004ec565b604051620001c6919062001f4f565b60405180910390f35b348015620001dc57600080fd5b50620001fb6004803603810190620001f5919062001b55565b62000555565b6040516200020a919062001f4f565b60405180910390f35b3480156200022057600080fd5b506200023f600480360381019062000239919062001b81565b62000588565b005b3480156200024e57600080fd5b506200026d600480360381019062000267919062001b55565b62000823565b6040516200027c919062001f4f565b60405180910390f35b3480156200029257600080fd5b506200029d6200088c565b604051620002ac919062001ffe565b60405180910390f35b348015620002c257600080fd5b50620002cd62000c73565b005b348015620002dc57600080fd5b50620002e762000d04565b604051620002f6919062001f4f565b60405180910390f35b3480156200030c57600080fd5b506200031762000d2e565b60405162000326919062001fa0565b60405180910390f35b3480156200033c57600080fd5b506200035b600480360381019062000355919062001bad565b62000dbe565b005b3480156200036a57600080fd5b506200037562000fc0565b6040516200038491906200201b565b60405180910390f35b3480156200039a57600080fd5b50620003a562000fe6565b604051620003b4919062001fe1565b60405180910390f35b620003db6004803603810190620003d5919062001bd9565b62001028565b604051620003ea919062001ffe565b60405180910390f35b3480156200040057600080fd5b506200041f600480360381019062000419919062001b55565b620014e9565b005b60008073ffffffffffffffffffffffffffffffffffffffff16606760008473ffffffffffffffffffffffffffffffffffffffff1673ffffffffffffffffffffffffffffffffffffffff16815260200190815260200160002060009054906101000a900473ffffffffffffffffffffffffffffffffffffffff1673ffffffffffffffffffffffffffffffffffffffff1614159050919050565b60676020528060005260406000206000915054906101000a900473ffffffffffffffffffffffffffffffffffffffff1681565b6000606660008373ffffffffffffffffffffffffffffffffffffffff1673ffffffffffffffffffffffffffffffffffffffff16815260200190815260200160002060009054906101000a900473ffffffffffffffffffffffffffffffffffffffff169050919050565b60666020528060005260406000206000915054906101000a900473ffffffffffffffffffffffffffffffffffffffff1681565b62000592620015ed565b73ffffffffffffffffffffffffffffffffffffffff16620005b262000d04565b73ffffffffffffffffffffffffffffffffffffffff16146200060b576040517f08c379a000000000000000000000000000000000000000000000000000000000815260040162000602906200212c565b60405180910390fd5b600073ffffffffffffffffffffffffffffffffffffffff168173ffffffffffffffffffffffffffffffffffffffff1614620007e3576200064b81620015f5565b6200068d576040517f08c379a000000000000000000000000000000000000000000000000000000000815260040162000684906200214e565b60405180910390fd5b6000808273ffffffffffffffffffffffffffffffffffffffff1633604051602401620006ba919062001f4f565b6040516020818303038152906040527f70a08231000000000000000000000000000000000000000000000000000000007bffffffffffffffffffffffffffffffffffffffffffffffffffffffff19166020820180517bffffffffffffffffffffffffffffffffffffffffffffffffffffffff838183161783525050505060405162000746919062001f36565b6000604051808303816000865af19150503d806000811462000785576040519150601f19603f3d011682016040523d82523d6000602084013e6200078a565b606091505b50915091508180156200079e575060008151115b620007e0576040517f08c379a0000000000000000000000000000000000000000000000000000000008152600401620007d790620020a4565b60405180910390fd5b50505b600060017f05df0919f17c81dab74a24e96f8e9fcaf2f7ae9ec785467bc9a30e698771439060001c620008179190620022f1565b60001b90508181555050565b6000606760008373ffffffffffffffffffffffffffffffffffffffff1673ffffffffffffffffffffffffffffffffffffffff16815260200190815260200160002060009054906101000a900473ffffffffffffffffffffffffffffffffffffffff169050919050565b60008073ffffffffffffffffffffffffffffffffffffffff16606660003373ffffffffffffffffffffffffffffffffffffffff1673ffffffffffffffffffffffffffffffffffffffff16815260200190815260200160002060009054906101000a900473ffffffffffffffffffffffffffffffffffffffff1673ffffffffffffffffffffffffffffffffffffffff16146200095e576040517f08c379a00000000000000000000000000000000000000000000000000000000081526004016200095590620020c6565b60405180910390fd5b600060017f05df0919f17c81dab74a24e96f8e9fcaf2f7ae9ec785467bc9a30e698771439060001c620009929190620022f1565b60001b9050600081549050600073ffffffffffffffffffffffffffffffffffffffff168173ffffffffffffffffffffffffffffffffffffffff161462000aa75760008173ffffffffffffffffffffffffffffffffffffffff166370a08231336040518263ffffffff1660e01b815260040162000a0f919062001f4f565b60206040518083038186803b15801562000a2857600080fd5b505afa15801562000a3d573d6000803e3d6000fd5b505050506040513d601f19601f8201168201806040525081019062000a63919062001c05565b1162000aa6576040517f08c379a000000000000000000000000000000000000000000000000000000000815260040162000a9d9062002192565b60405180910390fd5b5b6000606560009054906101000a900473ffffffffffffffffffffffffffffffffffffffff16638129fc1c60e01b600060405160240162000ae8919062002038565b604051602081830303815290604052907bffffffffffffffffffffffffffffffffffffffffffffffffffffffff19166020820180517bffffffffffffffffffffffffffffffffffffffffffffffffffffffff838183161783525050505060405162000b539062001ac6565b62000b6092919062001f6c565b604051809103906000f08015801562000b7d573d6000803e3d6000fd5b509050600081905062000b908162001618565b8073ffffffffffffffffffffffffffffffffffffffff1663f2fde38b336040518263ffffffff1660e01b815260040162000bcb919062001f4f565b600060405180830381600087803b15801562000be657600080fd5b505af115801562000bfb573d6000803e3d6000fd5b505050503373ffffffffffffffffffffffffffffffffffffffff168173ffffffffffffffffffffffffffffffffffffffff167f74f440674c6106c61951acc831efcdce60effebf4fea0fdc74f0e5ad72f56a1060008060405162000c6192919062002055565b60405180910390a38094505050505090565b62000c7d620015ed565b73ffffffffffffffffffffffffffffffffffffffff1662000c9d62000d04565b73ffffffffffffffffffffffffffffffffffffffff161462000cf6576040517f08c379a000000000000000000000000000000000000000000000000000000000815260040162000ced906200212c565b60405180910390fd5b62000d0260006200177a565b565b6000603360009054906101000a900473ffffffffffffffffffffffffffffffffffffffff16905090565b6060606880548060200260200160405190810160405280929190818152602001828054801562000db457602002820191906000526020600020905b8160009054906101000a900473ffffffffffffffffffffffffffffffffffffffff1673ffffffffffffffffffffffffffffffffffffffff168152602001906001019080831162000d69575b5050505050905090565b600060019054906101000a900460ff1662000de85760008054906101000a900460ff161562000df3565b62000df262001840565b5b62000e35576040517f08c379a000000000000000000000000000000000000000000000000000000000815260040162000e2c90620020e8565b60405180910390fd5b60008060019054906101000a900460ff16159050801562000e86576001600060016101000a81548160ff02191690831515021790555060016000806101000a81548160ff0219169083151502179055505b8160405162000e959062001ad4565b62000ea1919062001f4f565b604051809103906000f08015801562000ebe573d6000803e3d6000fd5b50606560006101000a81548173ffffffffffffffffffffffffffffffffffffffff021916908373ffffffffffffffffffffffffffffffffffffffff160217905550606560009054906101000a900473ffffffffffffffffffffffffffffffffffffffff1673ffffffffffffffffffffffffffffffffffffffff1663f2fde38b336040518263ffffffff1660e01b815260040162000f5c919062001f4f565b600060405180830381600087803b15801562000f7757600080fd5b505af115801562000f8c573d6000803e3d6000fd5b5050505062000f9a62001853565b801562000fbc5760008060016101000a81548160ff0219169083151502179055505b5050565b606560009054906101000a900473ffffffffffffffffffffffffffffffffffffffff1681565b60008060017f05df0919f17c81dab74a24e96f8e9fcaf2f7ae9ec785467bc9a30e698771439060001c6200101b9190620022f1565b60001b9050805491505090565b60008073ffffffffffffffffffffffffffffffffffffffff16606660003373ffffffffffffffffffffffffffffffffffffffff1673ffffffffffffffffffffffffffffffffffffffff16815260200190815260200160002060009054906101000a900473ffffffffffffffffffffffffffffffffffffffff1673ffffffffffffffffffffffffffffffffffffffff1614620010fa576040517f08c379a0000000000000000000000000000000000000000000000000000000008152600401620010f190620020c6565b60405180910390fd5b600060017f05df0919f17c81dab74a24e96f8e9fcaf2f7ae9ec785467bc9a30e698771439060001c6200112e9190620022f1565b60001b9050600081549050600073ffffffffffffffffffffffffffffffffffffffff168173ffffffffffffffffffffffffffffffffffffffff1614620012435760008173ffffffffffffffffffffffffffffffffffffffff166370a08231336040518263ffffffff1660e01b8152600401620011ab919062001f4f565b60206040518083038186803b158015620011c457600080fd5b505afa158015620011d9573d6000803e3d6000fd5b505050506040513d601f19601f82011682018060405250810190620011ff919062001c05565b1162001242576040517f08c379a0000000000000000000000000000000000000000000000000000000008152600401620012399062002192565b60405180910390fd5b5b6000606560009054906101000a900473ffffffffffffffffffffffffffffffffffffffff16638129fc1c60e01b604051602401604051602081830303815290604052907bffffffffffffffffffffffffffffffffffffffffffffffffffffffff19166020820180517bffffffffffffffffffffffffffffffffffffffffffffffffffffffff8381831617835250505050604051620012e19062001ac6565b620012ee92919062001f6c565b604051809103906000f0801580156200130b573d6000803e3d6000fd5b50905060008190506200131e8162001618565b8073ffffffffffffffffffffffffffffffffffffffff1663b60d4288346040518263ffffffff1660e01b81526004016000604051808303818588803b1580156200136757600080fd5b505af11580156200137c573d6000803e3d6000fd5b5050505050620014048163c5ebeaec60e01b88604051602401620013a19190620021b4565b604051602081830303815290604052907bffffffffffffffffffffffffffffffffffffffffffffffffffffffff19166020820180517bffffffffffffffffffffffffffffffffffffffffffffffffffffffff8381831617835250505050620018b1565b508073ffffffffffffffffffffffffffffffffffffffff1663f2fde38b336040518263ffffffff1660e01b815260040162001440919062001f4f565b600060405180830381600087803b1580156200145b57600080fd5b505af115801562001470573d6000803e3d6000fd5b505050503373ffffffffffffffffffffffffffffffffffffffff168173ffffffffffffffffffffffffffffffffffffffff167f74f440674c6106c61951acc831efcdce60effebf4fea0fdc74f0e5ad72f56a103489604051620014d5929190620021d1565b60405180910390a380945050505050919050565b620014f3620015ed565b73ffffffffffffffffffffffffffffffffffffffff166200151362000d04565b73ffffffffffffffffffffffffffffffffffffffff16146200156c576040517f08c379a000000000000000000000000000000000000000000000000000000000815260040162001563906200212c565b60405180910390fd5b600073ffffffffffffffffffffffffffffffffffffffff168173ffffffffffffffffffffffffffffffffffffffff161415620015df576040517f08c379a0000000000000000000000000000000000000000000000000000000008152600401620015d69062002082565b60405180910390fd5b620015ea816200177a565b50565b600033905090565b6000808273ffffffffffffffffffffffffffffffffffffffff163b119050919050565b80606660003373ffffffffffffffffffffffffffffffffffffffff1673ffffffffffffffffffffffffffffffffffffffff16815260200190815260200160002060006101000a81548173ffffffffffffffffffffffffffffffffffffffff021916908373ffffffffffffffffffffffffffffffffffffffff16021790555033606760008373ffffffffffffffffffffffffffffffffffffffff1673ffffffffffffffffffffffffffffffffffffffff16815260200190815260200160002060006101000a81548173ffffffffffffffffffffffffffffffffffffffff021916908373ffffffffffffffffffffffffffffffffffffffff1602179055506068819080600181540180825580915050600190039060005260206000200160009091909190916101000a81548173ffffffffffffffffffffffffffffffffffffffff021916908373ffffffffffffffffffffffffffffffffffffffff16021790555050565b6000603360009054906101000a900473ffffffffffffffffffffffffffffffffffffffff16905081603360006101000a81548173ffffffffffffffffffffffffffffffffffffffff021916908373ffffffffffffffffffffffffffffffffffffffff1602179055508173ffffffffffffffffffffffffffffffffffffffff168173ffffffffffffffffffffffffffffffffffffffff167f8be0079c531659141344cd1fd0a4f28419497f9722a3daafe3b4186f6b6457e060405160405180910390a35050565b60006200184d30620015f5565b15905090565b600060019054906101000a900460ff16620018a5576040517f08c379a00000000000000000000000000000000000000000000000000000000081526004016200189c9062002170565b60405180910390fd5b620018af6200194c565b565b60606000620018c083620019b4565b90506000808573ffffffffffffffffffffffffffffffffffffffff1683604051620018ec919062001f36565b6000604051808303816000865af19150503d80600081146200192b576040519150601f19603f3d011682016040523d82523d6000602084013e62001930565b606091505b509150915062001941828262001a64565b935050505092915050565b600060019054906101000a900460ff166200199e576040517f08c379a0000000000000000000000000000000000000000000000000000000008152600401620019959062002170565b60405180910390fd5b620019b2620019ac620015ed565b6200177a565b565b6060600060613603359050600060416001602060408560ff16620019d99190620022ae565b620019e591906200226f565b620019f191906200226f565b620019fd91906200226f565b90506000845190506000606060405190508383018152600091505b8282101562001a4157816020028760200101518260200282602001015260018201915062001a18565b838436038460200183013760208385018201016040528095505050505050919050565b60608262001abd5760008251111562001a805781518083602001fd5b6040517f08c379a000000000000000000000000000000000000000000000000000000000815260040162001ab4906200210a565b60405180910390fd5b81905092915050565b61105d80620027dd83390190565b610a9c806200383a83390190565b60008135905062001af38162002774565b92915050565b60008135905062001b0a816200278e565b92915050565b60008135905062001b2181620027a8565b92915050565b60008135905062001b3881620027c2565b92915050565b60008151905062001b4f81620027c2565b92915050565b60006020828403121562001b6857600080fd5b600062001b788482850162001ae2565b91505092915050565b60006020828403121562001b9457600080fd5b600062001ba48482850162001af9565b91505092915050565b60006020828403121562001bc057600080fd5b600062001bd08482850162001b10565b91505092915050565b60006020828403121562001bec57600080fd5b600062001bfc8482850162001b27565b91505092915050565b60006020828403121562001c1857600080fd5b600062001c288482850162001b3e565b91505092915050565b600062001c3f838362001d71565b60208301905092915050565b62001c5681620023cd565b82525050565b62001c67816200232c565b82525050565b600062001c7a826200220e565b62001c86818562002231565b935062001c9383620021fe565b8060005b8381101562001cca57815162001cae888262001c31565b975062001cbb8362002224565b92505060018101905062001c97565b5085935050505092915050565b62001ce28162002354565b82525050565b600062001cf58262002219565b62001d01818562002242565b935062001d13818560208601620024a9565b62001d1e816200250e565b840191505092915050565b600062001d368262002219565b62001d42818562002253565b935062001d54818560208601620024a9565b80840191505092915050565b62001d6b81620023e1565b82525050565b62001d7c8162002409565b82525050565b62001d8d8162002409565b82525050565b62001d9e8162002431565b82525050565b62001daf8162002459565b82525050565b62001dc0816200246d565b82525050565b600062001dd56026836200225e565b915062001de2826200251f565b604082019050919050565b600062001dfc6038836200225e565b915062001e09826200256e565b604082019050919050565b600062001e236022836200225e565b915062001e3082620025bd565b604082019050919050565b600062001e4a602e836200225e565b915062001e57826200260c565b604082019050919050565b600062001e71601b836200225e565b915062001e7e826200265b565b602082019050919050565b600062001e986020836200225e565b915062001ea58262002684565b602082019050919050565b600062001ebf6030836200225e565b915062001ecc82620026ad565b604082019050919050565b600062001ee6602b836200225e565b915062001ef382620026fc565b604082019050919050565b600062001f0d6013836200225e565b915062001f1a826200274b565b602082019050919050565b62001f3081620023b6565b82525050565b600062001f44828462001d29565b915081905092915050565b600060208201905062001f66600083018462001c5c565b92915050565b600060408201905062001f83600083018562001c4b565b818103602083015262001f97818462001ce8565b90509392505050565b6000602082019050818103600083015262001fbc818462001c6d565b905092915050565b600060208201905062001fdb600083018462001cd7565b92915050565b600060208201905062001ff8600083018462001d60565b92915050565b600060208201905062002015600083018462001d82565b92915050565b600060208201905062002032600083018462001d93565b92915050565b60006020820190506200204f600083018462001db5565b92915050565b60006040820190506200206c600083018562001da4565b6200207b602083018462001da4565b9392505050565b600060208201905081810360008301526200209d8162001dc6565b9050919050565b60006020820190508181036000830152620020bf8162001ded565b9050919050565b60006020820190508181036000830152620020e18162001e14565b9050919050565b60006020820190508181036000830152620021038162001e3b565b9050919050565b60006020820190508181036000830152620021258162001e62565b9050919050565b60006020820190508181036000830152620021478162001e89565b9050919050565b60006020820190508181036000830152620021698162001eb0565b9050919050565b600060208201905081810360008301526200218b8162001ed7565b9050919050565b60006020820190508181036000830152620021ad8162001efe565b9050919050565b6000602082019050620021cb600083018462001f25565b92915050565b6000604082019050620021e8600083018562001f25565b620021f7602083018462001f25565b9392505050565b6000819050602082019050919050565b600081519050919050565b600081519050919050565b6000602082019050919050565b600082825260208201905092915050565b600082825260208201905092915050565b600081905092915050565b600082825260208201905092915050565b60006200227c8262002388565b9150620022898362002388565b92508261ffff03821115620022a357620022a2620024df565b5b828201905092915050565b6000620022bb8262002388565b9150620022c88362002388565b92508161ffff0483118215151615620022e657620022e5620024df565b5b828202905092915050565b6000620022fe82620023b6565b91506200230b83620023b6565b925082821015620023215762002320620024df565b5b828203905092915050565b6000620023398262002396565b9050919050565b60006200234d8262002396565b9050919050565b60008115159050919050565b60006200236d826200232c565b9050919050565b6000620023818262002340565b9050919050565b600061ffff82169050919050565b600073ffffffffffffffffffffffffffffffffffffffff82169050919050565b6000819050919050565b600060ff82169050919050565b6000620023da8262002481565b9050919050565b6000620023ee82620023f5565b9050919050565b6000620024028262002396565b9050919050565b600062002416826200241d565b9050919050565b60006200242a8262002396565b9050919050565b60006200243e8262002445565b9050919050565b6000620024528262002396565b9050919050565b60006200246682620023b6565b9050919050565b60006200247a82620023c0565b9050919050565b60006200248e8262002495565b9050919050565b6000620024a28262002396565b9050919050565b60005b83811015620024c9578082015181840152602081019050620024ac565b83811115620024d9576000848401525b50505050565b7f4e487b7100000000000000000000000000000000000000000000000000000000600052601160045260246000fd5b6000601f19601f8301169050919050565b7f4f776e61626c653a206e6577206f776e657220697320746865207a65726f206160008201527f6464726573730000000000000000000000000000000000000000000000000000602082015250565b7f436f6e74726163742068617320746f20737570706f727420746865204552433760008201527f32312062616c616e63654f66282920696e746572666163650000000000000000602082015250565b7f4f6e6c79206f6e65206c6f616e20706572206f776e657220697320616c6c6f7760008201527f6564000000000000000000000000000000000000000000000000000000000000602082015250565b7f496e697469616c697a61626c653a20636f6e747261637420697320616c72656160008201527f647920696e697469616c697a6564000000000000000000000000000000000000602082015250565b7f50726f787920636f6e6e6563746f722063616c6c206661696c65640000000000600082015250565b7f4f776e61626c653a2063616c6c6572206973206e6f7420746865206f776e6572600082015250565b7f43616e6e6f7420736574206e66744164647265737320746f2061206e6f6e2d6360008201527f6f6e747261637420696e7374616e636500000000000000000000000000000000602082015250565b7f496e697469616c697a61626c653a20636f6e7472616374206973206e6f74206960008201527f6e697469616c697a696e67000000000000000000000000000000000000000000602082015250565b7f416363657373204e465420726571756972656400000000000000000000000000600082015250565b6200277f816200232c565b81146200278b57600080fd5b50565b620027998162002360565b8114620027a557600080fd5b50565b620027b38162002374565b8114620027bf57600080fd5b50565b620027cd81620023b6565b8114620027d957600080fd5b5056fe60806040526040516200105d3803806200105d8339818101604052810190620000299190620005f1565b60017fa3f0ad74e5423aebfd80d3ef4346578335a9a72aeaee59ff6cb3582b35133d5160001c6200005b91906200086c565b60001b7fa3f0ad74e5423aebfd80d3ef4346578335a9a72aeaee59ff6cb3582b35133d5060001b14620000b7577f4e487b7100000000000000000000000000000000000000000000000000000000600052600160045260246000fd5b620000cb82826000620000d360201b60201c565b505062000ac7565b620000e483620001da60201b60201c565b8273ffffffffffffffffffffffffffffffffffffffff167f1cf3b03a6cf19fa2baba4df148e9dcabedea7f8a5c07840e207e5c089be95d3e60405160405180910390a2600082511180620001355750805b15620001d557620001d38373ffffffffffffffffffffffffffffffffffffffff16635c60da1b6040518163ffffffff1660e01b815260040160206040518083038186803b1580156200018657600080fd5b505afa1580156200019b573d6000803e3d6000fd5b505050506040513d601f19601f82011682018060405250810190620001c19190620005c5565b836200038960201b620000371760201c565b505b505050565b620001f081620003bf60201b620000641760201c565b62000232576040517f08c379a0000000000000000000000000000000000000000000000000000000008152600401620002299062000775565b60405180910390fd5b620002c98173ffffffffffffffffffffffffffffffffffffffff16635c60da1b6040518163ffffffff1660e01b815260040160206040518083038186803b1580156200027d57600080fd5b505afa15801562000292573d6000803e3d6000fd5b505050506040513d601f19601f82011682018060405250810190620002b89190620005c5565b620003bf60201b620000641760201c565b6200030b576040517f08c379a00000000000000000000000000000000000000000000000000000000081526004016200030290620007b9565b60405180910390fd5b80620003457fa3f0ad74e5423aebfd80d3ef4346578335a9a72aeaee59ff6cb3582b35133d5060001b620003e260201b620000871760201c565b60000160006101000a81548173ffffffffffffffffffffffffffffffffffffffff021916908373ffffffffffffffffffffffffffffffffffffffff16021790555050565b6060620003b783836040518060600160405280602781526020016200103660279139620003ec60201b60201c565b905092915050565b6000808273ffffffffffffffffffffffffffffffffffffffff163b119050919050565b6000819050919050565b6060620003ff84620003bf60201b60201c565b62000441576040517f08c379a0000000000000000000000000000000000000000000000000000000008152600401620004389062000797565b60405180910390fd5b6000808573ffffffffffffffffffffffffffffffffffffffff16856040516200046b919062000738565b600060405180830381855af49150503d8060008114620004a8576040519150601f19603f3d011682016040523d82523d6000602084013e620004ad565b606091505b5091509150620004c5828286620004d060201b60201c565b925050509392505050565b60608315620004e25782905062000535565b600083511115620004f65782518084602001fd5b816040517f08c379a00000000000000000000000000000000000000000000000000000000081526004016200052c919062000751565b60405180910390fd5b9392505050565b6000620005536200054d8462000804565b620007db565b9050828152602081018484840111156200056c57600080fd5b62000579848285620008e5565b509392505050565b600081519050620005928162000aad565b92915050565b600082601f830112620005aa57600080fd5b8151620005bc8482602086016200053c565b91505092915050565b600060208284031215620005d857600080fd5b6000620005e88482850162000581565b91505092915050565b600080604083850312156200060557600080fd5b6000620006158582860162000581565b925050602083015167ffffffffffffffff8111156200063357600080fd5b620006418582860162000598565b9150509250929050565b600062000658826200083a565b62000664818562000850565b935062000676818560208601620008e5565b80840191505092915050565b60006200068f8262000845565b6200069b81856200085b565b9350620006ad818560208601620008e5565b620006b881620009af565b840191505092915050565b6000620006d26025836200085b565b9150620006df82620009c0565b604082019050919050565b6000620006f96026836200085b565b9150620007068262000a0f565b604082019050919050565b6000620007206030836200085b565b91506200072d8262000a5e565b604082019050919050565b60006200074682846200064b565b915081905092915050565b600060208201905081810360008301526200076d818462000682565b905092915050565b600060208201905081810360008301526200079081620006c3565b9050919050565b60006020820190508181036000830152620007b281620006ea565b9050919050565b60006020820190508181036000830152620007d48162000711565b9050919050565b6000620007e7620007fa565b9050620007f582826200091b565b919050565b6000604051905090565b600067ffffffffffffffff82111562000822576200082162000980565b5b6200082d82620009af565b9050602081019050919050565b600081519050919050565b600081519050919050565b600081905092915050565b600082825260208201905092915050565b60006200087982620008db565b91506200088683620008db565b9250828210156200089c576200089b62000951565b5b828203905092915050565b6000620008b482620008bb565b9050919050565b600073ffffffffffffffffffffffffffffffffffffffff82169050919050565b6000819050919050565b60005b8381101562000905578082015181840152602081019050620008e8565b8381111562000915576000848401525b50505050565b6200092682620009af565b810181811067ffffffffffffffff8211171562000948576200094762000980565b5b80604052505050565b7f4e487b7100000000000000000000000000000000000000000000000000000000600052601160045260246000fd5b7f4e487b7100000000000000000000000000000000000000000000000000000000600052604160045260246000fd5b6000601f19601f8301169050919050565b7f455243313936373a206e657720626561636f6e206973206e6f74206120636f6e60008201527f7472616374000000000000000000000000000000000000000000000000000000602082015250565b7f416464726573733a2064656c65676174652063616c6c20746f206e6f6e2d636f60008201527f6e74726163740000000000000000000000000000000000000000000000000000602082015250565b7f455243313936373a20626561636f6e20696d706c656d656e746174696f6e206960008201527f73206e6f74206120636f6e747261637400000000000000000000000000000000602082015250565b62000ab881620008a7565b811462000ac457600080fd5b50565b61055f8062000ad76000396000f3fe6080604052366100135761001161001d565b005b61001b61001d565b005b610025610091565b610035610030610093565b61011f565b565b606061005c838360405180606001604052806027815260200161050360279139610145565b905092915050565b6000808273ffffffffffffffffffffffffffffffffffffffff163b119050919050565b6000819050919050565b565b600061009d610212565b73ffffffffffffffffffffffffffffffffffffffff16635c60da1b6040518163ffffffff1660e01b815260040160206040518083038186803b1580156100e257600080fd5b505afa1580156100f6573d6000803e3d6000fd5b505050506040513d601f19601f8201168201806040525081019061011a91906102e5565b905090565b3660008037600080366000845af43d6000803e8060008114610140573d6000f35b3d6000fd5b606061015084610064565b61018f576040517f08c379a0000000000000000000000000000000000000000000000000000000008152600401610186906103d4565b60405180910390fd5b6000808573ffffffffffffffffffffffffffffffffffffffff16856040516101b7919061039b565b600060405180830381855af49150503d80600081146101f2576040519150601f19603f3d011682016040523d82523d6000602084013e6101f7565b606091505b5091509150610207828286610269565b925050509392505050565b60006102407fa3f0ad74e5423aebfd80d3ef4346578335a9a72aeaee59ff6cb3582b35133d5060001b610087565b60000160009054906101000a900473ffffffffffffffffffffffffffffffffffffffff16905090565b60608315610279578290506102c9565b60008351111561028c5782518084602001fd5b816040517f08c379a00000000000000000000000000000000000000000000000000000000081526004016102c091906103b2565b60405180910390fd5b9392505050565b6000815190506102df816104eb565b92915050565b6000602082840312156102f757600080fd5b6000610305848285016102d0565b91505092915050565b6000610319826103f4565b610323818561040a565b9350610333818560208601610458565b80840191505092915050565b600061034a826103ff565b6103548185610415565b9350610364818560208601610458565b61036d8161048b565b840191505092915050565b6000610385602683610415565b91506103908261049c565b604082019050919050565b60006103a7828461030e565b915081905092915050565b600060208201905081810360008301526103cc818461033f565b905092915050565b600060208201905081810360008301526103ed81610378565b9050919050565b600081519050919050565b600081519050919050565b600081905092915050565b600082825260208201905092915050565b600061043182610438565b9050919050565b600073ffffffffffffffffffffffffffffffffffffffff82169050919050565b60005b8381101561047657808201518184015260208101905061045b565b83811115610485576000848401525b50505050565b6000601f19601f8301169050919050565b7f416464726573733a2064656c65676174652063616c6c20746f206e6f6e2d636f60008201527f6e74726163740000000000000000000000000000000000000000000000000000602082015250565b6104f481610426565b81146104ff57600080fd5b5056fe416464726573733a206c6f772d6c6576656c2064656c65676174652063616c6c206661696c6564a2646970667358221220e315b5ae13d755f35a30ac5193a3d7551961da99f1fa532c06319914f1bfec5064736f6c63430008040033416464726573733a206c6f772d6c6576656c2064656c65676174652063616c6c206661696c6564608060405234801561001057600080fd5b50604051610a9c380380610a9c833981810160405281019061003291906101fd565b61004e61004361006360201b60201c565b61006b60201b60201c565b61005d8161012f60201b60201c565b50610312565b600033905090565b60008060009054906101000a900473ffffffffffffffffffffffffffffffffffffffff169050816000806101000a81548173ffffffffffffffffffffffffffffffffffffffff021916908373ffffffffffffffffffffffffffffffffffffffff1602179055508173ffffffffffffffffffffffffffffffffffffffff168173ffffffffffffffffffffffffffffffffffffffff167f8be0079c531659141344cd1fd0a4f28419497f9722a3daafe3b4186f6b6457e060405160405180910390a35050565b610142816101c560201b6103781760201c565b610181576040517f08c379a000000000000000000000000000000000000000000000000000000000815260040161017890610249565b60405180910390fd5b80600160006101000a81548173ffffffffffffffffffffffffffffffffffffffff021916908373ffffffffffffffffffffffffffffffffffffffff16021790555050565b6000808273ffffffffffffffffffffffffffffffffffffffff163b119050919050565b6000815190506101f7816102fb565b92915050565b60006020828403121561020f57600080fd5b600061021d848285016101e8565b91505092915050565b6000610233603383610269565b915061023e826102ac565b604082019050919050565b6000602082019050818103600083015261026281610226565b9050919050565b600082825260208201905092915050565b60006102858261028c565b9050919050565b600073ffffffffffffffffffffffffffffffffffffffff82169050919050565b7f5570677261646561626c65426561636f6e3a20696d706c656d656e746174696f60008201527f6e206973206e6f74206120636f6e747261637400000000000000000000000000602082015250565b6103048161027a565b811461030f57600080fd5b50565b61077b806103216000396000f3fe608060405234801561001057600080fd5b50600436106100575760003560e01c80633659cfe61461005c5780635c60da1b14610078578063715018a6146100965780638da5cb5b146100a0578063f2fde38b146100be575b600080fd5b61007660048036038101906100719190610508565b6100da565b005b6100806101a5565b60405161008d91906105a9565b60405180910390f35b61009e6101cf565b005b6100a8610257565b6040516100b591906105a9565b60405180910390f35b6100d860048036038101906100d39190610508565b610280565b005b6100e261039b565b73ffffffffffffffffffffffffffffffffffffffff16610100610257565b73ffffffffffffffffffffffffffffffffffffffff1614610156576040517f08c379a000000000000000000000000000000000000000000000000000000000815260040161014d90610604565b60405180910390fd5b61015f816103a3565b8073ffffffffffffffffffffffffffffffffffffffff167fbc7cd75a20ee27fd9adebab32041f755214dbc6bffa90cc0225b39da2e5c2d3b60405160405180910390a250565b6000600160009054906101000a900473ffffffffffffffffffffffffffffffffffffffff16905090565b6101d761039b565b73ffffffffffffffffffffffffffffffffffffffff166101f5610257565b73ffffffffffffffffffffffffffffffffffffffff161461024b576040517f08c379a000000000000000000000000000000000000000000000000000000000815260040161024290610604565b60405180910390fd5b610255600061042f565b565b60008060009054906101000a900473ffffffffffffffffffffffffffffffffffffffff16905090565b61028861039b565b73ffffffffffffffffffffffffffffffffffffffff166102a6610257565b73ffffffffffffffffffffffffffffffffffffffff16146102fc576040517f08c379a00000000000000000000000000000000000000000000000000000000081526004016102f390610604565b60405180910390fd5b600073ffffffffffffffffffffffffffffffffffffffff168173ffffffffffffffffffffffffffffffffffffffff16141561036c576040517f08c379a0000000000000000000000000000000000000000000000000000000008152600401610363906105c4565b60405180910390fd5b6103758161042f565b50565b6000808273ffffffffffffffffffffffffffffffffffffffff163b119050919050565b600033905090565b6103ac81610378565b6103eb576040517f08c379a00000000000000000000000000000000000000000000000000000000081526004016103e2906105e4565b60405180910390fd5b80600160006101000a81548173ffffffffffffffffffffffffffffffffffffffff021916908373ffffffffffffffffffffffffffffffffffffffff16021790555050565b60008060009054906101000a900473ffffffffffffffffffffffffffffffffffffffff169050816000806101000a81548173ffffffffffffffffffffffffffffffffffffffff021916908373ffffffffffffffffffffffffffffffffffffffff1602179055508173ffffffffffffffffffffffffffffffffffffffff168173ffffffffffffffffffffffffffffffffffffffff167f8be0079c531659141344cd1fd0a4f28419497f9722a3daafe3b4186f6b6457e060405160405180910390a35050565b6000813590506105028161072e565b92915050565b60006020828403121561051a57600080fd5b6000610528848285016104f3565b91505092915050565b61053a81610635565b82525050565b600061054d602683610624565b915061055882610667565b604082019050919050565b6000610570603383610624565b915061057b826106b6565b604082019050919050565b6000610593602083610624565b915061059e82610705565b602082019050919050565b60006020820190506105be6000830184610531565b92915050565b600060208201905081810360008301526105dd81610540565b9050919050565b600060208201905081810360008301526105fd81610563565b9050919050565b6000602082019050818103600083015261061d81610586565b9050919050565b600082825260208201905092915050565b600061064082610647565b9050919050565b600073ffffffffffffffffffffffffffffffffffffffff82169050919050565b7f4f776e61626c653a206e6577206f776e657220697320746865207a65726f206160008201527f6464726573730000000000000000000000000000000000000000000000000000602082015250565b7f5570677261646561626c65426561636f6e3a20696d706c656d656e746174696f60008201527f6e206973206e6f74206120636f6e747261637400000000000000000000000000602082015250565b7f4f776e61626c653a2063616c6c6572206973206e6f7420746865206f776e6572600082015250565b61073781610635565b811461074257600080fd5b5056fea2646970667358221220151149c73270d1d35004fd185e9ecf2410985d323d9acbd45abd8d5e4166665664736f6c63430008040033a2646970667358221220b07f6565ea4dc882b8b23be51ee3ba3ba05d473e84ded3f7fef0739b6d71d45a64736f6c63430008040033",
  "devdoc": {
    "kind": "dev",
    "methods": {
      "owner()": {
        "details": "Returns the address of the current owner."
      },
      "renounceOwnership()": {
        "details": "Leaves the contract without owner. It will not be possible to call `onlyOwner` functions anymore. Can only be called by the current owner. NOTE: Renouncing ownership will leave the contract without an owner, thereby removing any functionality that is only available to the owner."
      },
      "transferOwnership(address)": {
        "details": "Transfers ownership of the contract to a new account (`newOwner`). Can only be called by the current owner."
      }
    },
    "version": 1
  },
  "userdoc": {
    "kind": "user",
    "methods": {},
    "version": 1
  },
  "storageLayout": {
    "storage": [
      {
        "astId": 130,
        "contract": "contracts/upgraded/SmartLoansFactoryWithAccessNFT.sol:SmartLoansFactoryWithAccessNFT",
        "label": "_initialized",
        "offset": 0,
        "slot": "0",
        "type": "t_bool"
      },
      {
        "astId": 133,
        "contract": "contracts/upgraded/SmartLoansFactoryWithAccessNFT.sol:SmartLoansFactoryWithAccessNFT",
        "label": "_initializing",
        "offset": 1,
        "slot": "0",
        "type": "t_bool"
      },
      {
        "astId": 540,
        "contract": "contracts/upgraded/SmartLoansFactoryWithAccessNFT.sol:SmartLoansFactoryWithAccessNFT",
        "label": "__gap",
        "offset": 0,
        "slot": "1",
        "type": "t_array(t_uint256)50_storage"
      },
      {
        "astId": 10,
        "contract": "contracts/upgraded/SmartLoansFactoryWithAccessNFT.sol:SmartLoansFactoryWithAccessNFT",
        "label": "_owner",
        "offset": 0,
        "slot": "51",
        "type": "t_address"
      },
      {
        "astId": 122,
        "contract": "contracts/upgraded/SmartLoansFactoryWithAccessNFT.sol:SmartLoansFactoryWithAccessNFT",
        "label": "__gap",
        "offset": 0,
        "slot": "52",
        "type": "t_array(t_uint256)49_storage"
      },
      {
        "astId": 6571,
        "contract": "contracts/upgraded/SmartLoansFactoryWithAccessNFT.sol:SmartLoansFactoryWithAccessNFT",
        "label": "upgradeableBeacon",
        "offset": 0,
        "slot": "101",
        "type": "t_contract(UpgradeableBeacon)1193"
      },
      {
        "astId": 6575,
        "contract": "contracts/upgraded/SmartLoansFactoryWithAccessNFT.sol:SmartLoansFactoryWithAccessNFT",
        "label": "ownersToLoans",
        "offset": 0,
        "slot": "102",
        "type": "t_mapping(t_address,t_address)"
      },
      {
        "astId": 6579,
        "contract": "contracts/upgraded/SmartLoansFactoryWithAccessNFT.sol:SmartLoansFactoryWithAccessNFT",
        "label": "loansToOwners",
        "offset": 0,
        "slot": "103",
        "type": "t_mapping(t_address,t_address)"
      },
      {
        "astId": 6583,
        "contract": "contracts/upgraded/SmartLoansFactoryWithAccessNFT.sol:SmartLoansFactoryWithAccessNFT",
        "label": "loans",
        "offset": 0,
        "slot": "104",
        "type": "t_array(t_contract(SmartLoan)6399)dyn_storage"
      }
    ],
    "types": {
      "t_address": {
        "encoding": "inplace",
        "label": "address",
        "numberOfBytes": "20"
      },
      "t_array(t_contract(SmartLoan)6399)dyn_storage": {
        "base": "t_contract(SmartLoan)6399",
        "encoding": "dynamic_array",
        "label": "contract SmartLoan[]",
        "numberOfBytes": "32"
      },
      "t_array(t_uint256)49_storage": {
        "base": "t_uint256",
        "encoding": "inplace",
        "label": "uint256[49]",
        "numberOfBytes": "1568"
      },
      "t_array(t_uint256)50_storage": {
        "base": "t_uint256",
        "encoding": "inplace",
        "label": "uint256[50]",
        "numberOfBytes": "1600"
      },
      "t_bool": {
        "encoding": "inplace",
        "label": "bool",
        "numberOfBytes": "1"
      },
      "t_contract(SmartLoan)6399": {
        "encoding": "inplace",
        "label": "contract SmartLoan",
        "numberOfBytes": "20"
      },
      "t_contract(UpgradeableBeacon)1193": {
        "encoding": "inplace",
        "label": "contract UpgradeableBeacon",
        "numberOfBytes": "20"
      },
      "t_mapping(t_address,t_address)": {
        "encoding": "mapping",
        "key": "t_address",
        "label": "mapping(address => address)",
        "numberOfBytes": "32",
        "value": "t_address"
      },
      "t_uint256": {
        "encoding": "inplace",
        "label": "uint256",
        "numberOfBytes": "32"
      }
    }
  }
}