{
  "address": "0xb7278A61aa25c888815aFC32Ad3cC52fF24fE575",
  "abi": [
    {
      "anonymous": false,
      "inputs": [
        {
          "indexed": true,
          "internalType": "address",
          "name": "previousOwner",
          "type": "address"
        },
        {
          "indexed": true,
          "internalType": "address",
          "name": "newOwner",
          "type": "address"
        }
      ],
      "name": "OwnershipTransferred",
      "type": "event"
    },
    {
      "inputs": [],
      "name": "BREAKPOINT",
      "outputs": [
        {
          "internalType": "uint256",
          "name": "",
          "type": "uint256"
        }
      ],
      "stateMutability": "view",
      "type": "function"
    },
    {
      "inputs": [],
      "name": "MAX_RATE",
      "outputs": [
        {
          "internalType": "uint256",
          "name": "",
          "type": "uint256"
        }
      ],
      "stateMutability": "view",
      "type": "function"
    },
    {
      "inputs": [],
      "name": "OFFSET",
      "outputs": [
        {
          "internalType": "uint256",
          "name": "",
          "type": "uint256"
        }
      ],
      "stateMutability": "view",
      "type": "function"
    },
    {
      "inputs": [],
      "name": "SLOPE_1",
      "outputs": [
        {
          "internalType": "uint256",
          "name": "",
          "type": "uint256"
        }
      ],
      "stateMutability": "view",
      "type": "function"
    },
    {
      "inputs": [],
      "name": "SLOPE_2",
      "outputs": [
        {
          "internalType": "uint256",
          "name": "",
          "type": "uint256"
        }
      ],
      "stateMutability": "view",
      "type": "function"
    },
    {
      "inputs": [
        {
          "internalType": "uint256",
          "name": "totalLoans",
          "type": "uint256"
        },
        {
          "internalType": "uint256",
          "name": "totalDeposits",
          "type": "uint256"
        }
      ],
      "name": "calculateBorrowingRate",
      "outputs": [
        {
          "internalType": "uint256",
          "name": "",
          "type": "uint256"
        }
      ],
      "stateMutability": "pure",
      "type": "function"
    },
    {
      "inputs": [
        {
          "internalType": "uint256",
          "name": "_totalLoans",
          "type": "uint256"
        },
        {
          "internalType": "uint256",
          "name": "_totalDeposits",
          "type": "uint256"
        }
      ],
      "name": "calculateDepositRate",
      "outputs": [
        {
          "internalType": "uint256",
          "name": "",
          "type": "uint256"
        }
      ],
      "stateMutability": "view",
      "type": "function"
    },
    {
      "inputs": [],
      "name": "depositRateOffset",
      "outputs": [
        {
          "internalType": "uint256",
          "name": "",
          "type": "uint256"
        }
      ],
      "stateMutability": "view",
      "type": "function"
    },
    {
      "inputs": [
        {
          "internalType": "uint256",
          "name": "_totalLoans",
          "type": "uint256"
        },
        {
          "internalType": "uint256",
          "name": "_totalDeposits",
          "type": "uint256"
        }
      ],
      "name": "getPoolUtilisation",
      "outputs": [
        {
          "internalType": "uint256",
          "name": "",
          "type": "uint256"
        }
      ],
      "stateMutability": "pure",
      "type": "function"
    },
    {
      "inputs": [],
      "name": "owner",
      "outputs": [
        {
          "internalType": "address",
          "name": "",
          "type": "address"
        }
      ],
      "stateMutability": "view",
      "type": "function"
    },
    {
      "inputs": [],
      "name": "renounceOwnership",
      "outputs": [],
      "stateMutability": "nonpayable",
      "type": "function"
    },
    {
      "inputs": [
        {
          "internalType": "uint256",
          "name": "offset",
          "type": "uint256"
        }
      ],
      "name": "setDepositRateOffset",
      "outputs": [],
      "stateMutability": "nonpayable",
      "type": "function"
    },
    {
      "inputs": [
        {
          "internalType": "address",
          "name": "newOwner",
          "type": "address"
        }
      ],
      "name": "transferOwnership",
      "outputs": [],
      "stateMutability": "nonpayable",
      "type": "function"
    }
  ],
  "transactionHash": "0x95f294a4abdcf0a4aa7cb2376a1a0f527a51c810af1839af345dea6157ca0365",
  "args": [],
  "numDeployments": 1,
  "solcInputHash": "95b63e792badce04895e8216a59dd728",
  "bytecode": "0x6080604052633b9aca0060015534801561001857600080fd5b5061003561002a61003a60201b60201c565b61004260201b60201c565b610106565b600033905090565b60008060009054906101000a900473ffffffffffffffffffffffffffffffffffffffff169050816000806101000a81548173ffffffffffffffffffffffffffffffffffffffff021916908373ffffffffffffffffffffffffffffffffffffffff1602179055508173ffffffffffffffffffffffffffffffffffffffff168173ffffffffffffffffffffffffffffffffffffffff167f8be0079c531659141344cd1fd0a4f28419497f9722a3daafe3b4186f6b6457e060405160405180910390a35050565b610da8806101156000396000f3fe608060405234801561001057600080fd5b50600436106100cf5760003560e01c80638da5cb5b1161008c578063c24dbebd11610066578063c24dbebd146101f0578063ce665dd81461020e578063df841eec1461022c578063f2fde38b1461025c576100cf565b80638da5cb5b146101845780639ceca965146101a2578063b64b0877146101d2576100cf565b80631d718885146100d45780633117053c146100f0578063321105fb1461010e5780633bf42d4b1461012c578063715018a61461014a5780637cd0833114610154575b600080fd5b6100ee60048036038101906100e9919061089d565b610278565b005b6100f86102fe565b6040516101059190610a2d565b60405180910390f35b610116610304565b6040516101239190610a2d565b60405180910390f35b610134610310565b6040516101419190610a2d565b60405180910390f35b61015261031c565b005b61016e600480360381019061016991906108ef565b6103a4565b60405161017b9190610a2d565b60405180910390f35b61018c6104ab565b60405161019991906109b2565b60405180910390f35b6101bc60048036038101906101b791906108ef565b6104d4565b6040516101c99190610a2d565b60405180910390f35b6101da61050f565b6040516101e79190610a2d565b60405180910390f35b6101f861051b565b6040516102059190610a2d565b60405180910390f35b610216610527565b6040516102239190610a2d565b60405180910390f35b610246600480360381019061024191906108ef565b610532565b6040516102539190610a2d565b60405180910390f35b61027660048036038101906102719190610874565b610671565b005b610280610769565b73ffffffffffffffffffffffffffffffffffffffff1661029e6104ab565b73ffffffffffffffffffffffffffffffffffffffff16146102f4576040517f08c379a00000000000000000000000000000000000000000000000000000000081526004016102eb90610a0d565b60405180910390fd5b8060018190555050565b60015481565b6701aa535d3d0c000081565b6729e931ffd5ae000081565b610324610769565b73ffffffffffffffffffffffffffffffffffffffff166103426104ab565b73ffffffffffffffffffffffffffffffffffffffff1614610398576040517f08c379a000000000000000000000000000000000000000000000000000000000815260040161038f90610a0d565b60405180910390fd5b6103a26000610771565b565b6000808214156103b757600090506104a5565b8183106103db57600154670a688906bd8b00006103d49190610b63565b90506104a5565b600082843073ffffffffffffffffffffffffffffffffffffffff1663df841eec87876040518363ffffffff1660e01b815260040161041a929190610a48565b60206040518083038186803b15801561043257600080fd5b505afa158015610446573d6000803e3d6000fd5b505050506040513d601f19601f8201168201806040525081019061046a91906108c6565b6104749190610b09565b61047e9190610ad8565b90506001548111156104a057600154816104989190610b63565b9150506104a5565b809150505b92915050565b60008060009054906101000a900473ffffffffffffffffffffffffffffffffffffffff16905090565b6000808214156104e75760009050610509565b81670de0b6b3a7640000846104fc9190610b09565b6105069190610ad8565b90505b92915050565b670b1a2bc2ec50000081565b670a688906bd8b000081565b66b1a2bc2ec5000081565b60008082141561054b5766b1a2bc2ec50000905061066b565b600061055784846104d4565b9050670de0b6b3a7640000811061057957670a688906bd8b000091505061066b565b670b1a2bc2ec50000081116105c95766b1a2bc2ec50000670de0b6b3a76400006701aa535d3d0c0000836105ad9190610b09565b6105b79190610ad8565b6105c19190610a82565b91505061066b565b6000670a688906bd8b0000670de0b6b3a76400006729e931ffd5ae0000846105f19190610b09565b6105fb9190610ad8565b6106059190610a82565b90506729e931ffd5ae0000811015610652576040517f08c379a0000000000000000000000000000000000000000000000000000000008152600401610649906109cd565b60405180910390fd5b6729e931ffd5ae0000816106669190610b63565b925050505b92915050565b610679610769565b73ffffffffffffffffffffffffffffffffffffffff166106976104ab565b73ffffffffffffffffffffffffffffffffffffffff16146106ed576040517f08c379a00000000000000000000000000000000000000000000000000000000081526004016106e490610a0d565b60405180910390fd5b600073ffffffffffffffffffffffffffffffffffffffff168173ffffffffffffffffffffffffffffffffffffffff16141561075d576040517f08c379a0000000000000000000000000000000000000000000000000000000008152600401610754906109ed565b60405180910390fd5b61076681610771565b50565b600033905090565b60008060009054906101000a900473ffffffffffffffffffffffffffffffffffffffff169050816000806101000a81548173ffffffffffffffffffffffffffffffffffffffff021916908373ffffffffffffffffffffffffffffffffffffffff1602179055508173ffffffffffffffffffffffffffffffffffffffff168173ffffffffffffffffffffffffffffffffffffffff167f8be0079c531659141344cd1fd0a4f28419497f9722a3daafe3b4186f6b6457e060405160405180910390a35050565b60008135905061084481610d44565b92915050565b60008135905061085981610d5b565b92915050565b60008151905061086e81610d5b565b92915050565b60006020828403121561088657600080fd5b600061089484828501610835565b91505092915050565b6000602082840312156108af57600080fd5b60006108bd8482850161084a565b91505092915050565b6000602082840312156108d857600080fd5b60006108e68482850161085f565b91505092915050565b6000806040838503121561090257600080fd5b60006109108582860161084a565b92505060206109218582860161084a565b9150509250929050565b61093481610b97565b82525050565b6000610947606c83610a71565b915061095282610c31565b608082019050919050565b600061096a602683610a71565b915061097582610ccc565b604082019050919050565b600061098d602083610a71565b915061099882610d1b565b602082019050919050565b6109ac81610bc9565b82525050565b60006020820190506109c7600083018461092b565b92915050565b600060208201905081810360008301526109e68161093a565b9050919050565b60006020820190508181036000830152610a068161095d565b9050919050565b60006020820190508181036000830152610a2681610980565b9050919050565b6000602082019050610a4260008301846109a3565b92915050565b6000604082019050610a5d60008301856109a3565b610a6a60208301846109a3565b9392505050565b600082825260208201905092915050565b6000610a8d82610bc9565b9150610a9883610bc9565b9250827fffffffffffffffffffffffffffffffffffffffffffffffffffffffffffffffff03821115610acd57610acc610bd3565b5b828201905092915050565b6000610ae382610bc9565b9150610aee83610bc9565b925082610afe57610afd610c02565b5b828204905092915050565b6000610b1482610bc9565b9150610b1f83610bc9565b9250817fffffffffffffffffffffffffffffffffffffffffffffffffffffffffffffffff0483118215151615610b5857610b57610bd3565b5b828202905092915050565b6000610b6e82610bc9565b9150610b7983610bc9565b925082821015610b8c57610b8b610bd3565b5b828203905092915050565b6000610ba282610ba9565b9050919050565b600073ffffffffffffffffffffffffffffffffffffffff82169050919050565b6000819050919050565b7f4e487b7100000000000000000000000000000000000000000000000000000000600052601160045260246000fd5b7f4e487b7100000000000000000000000000000000000000000000000000000000600052601260045260246000fd5b7f4f7574206f662072616e67652076616c7565207768656e2063616c63756c617460008201527f696e672074686520626f72726f77696e6720726174652e20436f6e736964657260208201527f20636865636b696e6720696620534c4f50455f322069732063616c63756c617460408201527f656420636f72726563746c790000000000000000000000000000000000000000606082015250565b7f4f776e61626c653a206e6577206f776e657220697320746865207a65726f206160008201527f6464726573730000000000000000000000000000000000000000000000000000602082015250565b7f4f776e61626c653a2063616c6c6572206973206e6f7420746865206f776e6572600082015250565b610d4d81610b97565b8114610d5857600080fd5b50565b610d6481610bc9565b8114610d6f57600080fd5b5056fea2646970667358221220e926362320f4c9d705eb8c9313753cf6c23b968f7a46c80324b5b59e1c46a02764736f6c63430008040033",
  "devdoc": {
    "details": "Contract which calculates the interest rates based on pool utilisation. Utilisation is computed as the ratio between funds borrowed and funds deposited to the pool. Borrowing rates are calculated using a piecewise linear function. The first piece is defined by SLOPE_1 and OFFSET (shift). Second piece is defined by SLOPE_2 (calculated off-chain), BREAKPOINT (threshold value above which second piece is considered) and MAX_RATE (value at pool utilisation of 1).*",
    "kind": "dev",
    "methods": {
      "calculateBorrowingRate(uint256,uint256)": {
        "details": "_totalLoans total value of loans_totalDeposits total value of deposits*"
      },
      "calculateDepositRate(uint256,uint256)": {
        "details": "_totalLoans total value of loans_totalDeposits total value of deposits*"
      },
      "getPoolUtilisation(uint256,uint256)": {
        "details": "_totalLoans total value of loans_totalDeposits total value of deposits*"
      },
      "owner()": {
        "details": "Returns the address of the current owner."
      },
      "renounceOwnership()": {
        "details": "Leaves the contract without owner. It will not be possible to call `onlyOwner` functions anymore. Can only be called by the current owner. NOTE: Renouncing ownership will leave the contract without an owner, thereby removing any functionality that is only available to the owner."
      },
      "setDepositRateOffset(uint256)": {
        "details": "_newRate total value of loans*"
      },
      "transferOwnership(address)": {
        "details": "Transfers ownership of the contract to a new account (`newOwner`). Can only be called by the current owner."
      }
    },
    "title": "VariableUtilisationRatesCalculator",
    "version": 1
  },
  "userdoc": {
    "kind": "user",
    "methods": {
      "calculateBorrowingRate(uint256,uint256)": {
        "notice": "Returns the current borrowing rate The value is based on the pool utilisation according to the piecewise linear formula: 1) for pool utilisation lower than or equal to breakpoint: borrowing_rate = SLOPE_1 * utilisation + OFFSET 2) for pool utilisation greater than breakpoint: borrowing_rate = SLOPE_2 * utilisation + MAX_RATE - SLOPE_2"
      },
      "calculateDepositRate(uint256,uint256)": {
        "notice": "Returns the current deposit rate The value is based on the current borrowing rate and satisfies the invariant: value_of_loans * borrowing_rate = value_of_deposits * deposit_rate"
      },
      "getPoolUtilisation(uint256,uint256)": {
        "notice": "Returns the pool utilisation, which is a ratio between loans and deposits utilisation = value_of_loans / value_of_deposits"
      },
      "setDepositRateOffset(uint256)": {
        "notice": "Sets deposit rate offset This offset is needed to account for arithmetic inaccuracy and keep pool balanced"
      }
    },
    "version": 1
  },
  "storageLayout": {
    "storage": [
      {
        "astId": 7,
        "contract": "contracts/VariableUtilisationRatesCalculator.sol:VariableUtilisationRatesCalculator",
        "label": "_owner",
        "offset": 0,
        "slot": "0",
        "type": "t_address"
      },
      {
        "astId": 153,
        "contract": "contracts/VariableUtilisationRatesCalculator.sol:VariableUtilisationRatesCalculator",
        "label": "depositRateOffset",
        "offset": 0,
        "slot": "1",
        "type": "t_uint256"
      }
    ],
    "types": {
      "t_address": {
        "encoding": "inplace",
        "label": "address",
        "numberOfBytes": "20"
      },
      "t_uint256": {
        "encoding": "inplace",
        "label": "uint256",
        "numberOfBytes": "32"
      }
    }
  }
}