{
  "address": "0xc351628EB244ec633d5f21fBD6621e1a683B1181",
  "abi": [
    {
      "anonymous": false,
      "inputs": [
        {
          "indexed": true,
          "internalType": "address",
          "name": "user",
          "type": "address"
        },
        {
          "indexed": true,
          "internalType": "bytes32",
          "name": "asset",
          "type": "bytes32"
        },
        {
          "indexed": false,
          "internalType": "uint256",
          "name": "amount",
          "type": "uint256"
        },
        {
          "indexed": false,
          "internalType": "uint256",
          "name": "timestamp",
          "type": "uint256"
        }
      ],
      "name": "Staked",
      "type": "event"
    },
    {
      "anonymous": false,
      "inputs": [
        {
          "indexed": true,
          "internalType": "address",
          "name": "user",
          "type": "address"
        },
        {
          "indexed": true,
          "internalType": "bytes32",
          "name": "asset",
          "type": "bytes32"
        },
        {
          "indexed": false,
          "internalType": "uint256",
          "name": "amount",
          "type": "uint256"
        },
        {
          "indexed": false,
          "internalType": "uint256",
          "name": "timestamp",
          "type": "uint256"
        }
      ],
      "name": "Unstaked",
      "type": "event"
    },
    {
      "inputs": [],
      "name": "getTotalStakedValue",
      "outputs": [
        {
          "internalType": "uint256",
          "name": "totalValue",
          "type": "uint256"
        }
      ],
      "stateMutability": "view",
      "type": "function"
    },
    {
      "inputs": [
        {
          "internalType": "uint256",
          "name": "amount",
          "type": "uint256"
        }
      ],
      "name": "stakeAVAX",
      "outputs": [],
      "stateMutability": "payable",
      "type": "function"
    },
    {
      "inputs": [
        {
          "internalType": "uint256",
          "name": "amount",
          "type": "uint256"
        }
      ],
      "name": "unstakeAVAX",
      "outputs": [
        {
          "internalType": "bool",
          "name": "",
          "type": "bool"
        }
      ],
      "stateMutability": "nonpayable",
      "type": "function"
    },
    {
      "inputs": [
        {
          "internalType": "uint256",
          "name": "amount",
          "type": "uint256"
        }
      ],
      "name": "unstakeAVAXForASpecifiedAmount",
      "outputs": [],
      "stateMutability": "nonpayable",
      "type": "function"
    },
    {
      "stateMutability": "payable",
      "type": "receive"
    }
  ],
  "transactionHash": "0x5b8540d26ad74176c966a862980f5db8469ac8c8a0451db13c7721c76fa748ab",
  "args": [],
  "numDeployments": 1,
  "solcInputHash": "89bb71fe9db239634a409cc26f6d0422",
  "bytecode": "0x608060405234801561001057600080fd5b506001600081905550611521806100286000396000f3fe6080604052600436106100435760003560e01c806318994c1f1461004f5780633999c4881461008c57806347f63dfd146100b7578063e15e2c44146100d35761004a565b3661004a57005b600080fd5b34801561005b57600080fd5b5061007660048036038101906100719190610e22565b6100fc565b604051610083919061105f565b60405180910390f35b34801561009857600080fd5b506100a1610502565b6040516100ae919061113a565b60405180910390f35b6100d160048036038101906100cc9190610e22565b6106e0565b005b3480156100df57600080fd5b506100fa60048036038101906100f59190610e22565b610811565b005b600060026000541415610144576040517f08c379a000000000000000000000000000000000000000000000000000000000815260040161013b9061111a565b60405180910390fd5b6002600081905550600073957ca4a4aa7cdc866cf430bb140753f04e273bc0905060008173ffffffffffffffffffffffffffffffffffffffff166370a08231336040518263ffffffff1660e01b81526004016101a09190610fbb565b60206040518083038186803b1580156101b857600080fd5b505afa1580156101cc573d6000803e3d6000fd5b505050506040513d601f19601f820116820180604052508101906101f09190610e4b565b905060008273ffffffffffffffffffffffffffffffffffffffff1663dd62ed3e33306040518363ffffffff1660e01b815260040161022f929190610fd6565b60206040518083038186803b15801561024757600080fd5b505afa15801561025b573d6000803e3d6000fd5b505050506040513d601f19601f8201168201806040525081019061027f9190610e4b565b9050848210156102c4576040517f08c379a00000000000000000000000000000000000000000000000000000000081526004016102bb9061107a565b60405180910390fd5b84811015610307576040517f08c379a00000000000000000000000000000000000000000000000000000000081526004016102fe906110da565b60405180910390fd5b6103343330878673ffffffffffffffffffffffffffffffffffffffff16610a25909392919063ffffffff16565b60008373ffffffffffffffffffffffffffffffffffffffff168660405160240161035e919061113a565b6040516020818303038152906040527f2e1a7d4d000000000000000000000000000000000000000000000000000000007bffffffffffffffffffffffffffffffffffffffffffffffffffffffff19166020820180517bffffffffffffffffffffffffffffffffffffffffffffffffffffffff83818316178352505050506040516103e89190610fa4565b6000604051808303816000865af19150503d8060008114610425576040519150601f19603f3d011682016040523d82523d6000602084013e61042a565b606091505b505090508061046b5761045e33878673ffffffffffffffffffffffffffffffffffffffff16610b5e9092919063ffffffff16565b60009450505050506104f5565b610494473373ffffffffffffffffffffffffffffffffffffffff16610c9490919063ffffffff16565b634156415860001b3373ffffffffffffffffffffffffffffffffffffffff167f2a77754143eef9adfe9735abcd280b24fa49a631cc1c8a9758f04e5a56e5576d88426040516104e4929190611155565b60405180910390a360019450505050505b6001600081905550919050565b60008073957ca4a4aa7cdc866cf430bb140753f04e273bc0905060008173ffffffffffffffffffffffffffffffffffffffff166370a08231336040518263ffffffff1660e01b81526004016105579190610fbb565b60206040518083038186803b15801561056f57600080fd5b505afa158015610583573d6000803e3d6000fd5b505050506040513d601f19601f820116820180604052508101906105a79190610e4b565b905060008114156105bb57600092506106db565b60008273ffffffffffffffffffffffffffffffffffffffff166318160ddd6040518163ffffffff1660e01b815260040160206040518083038186803b15801561060357600080fd5b505afa158015610617573d6000803e3d6000fd5b505050506040513d601f19601f8201168201806040525081019061063b9190610e4b565b905060008373ffffffffffffffffffffffffffffffffffffffff16637d8820976040518163ffffffff1660e01b815260040160206040518083038186803b15801561068557600080fd5b505afa158015610699573d6000803e3d6000fd5b505050506040513d601f19601f820116820180604052508101906106bd9190610e4b565b90508181846106cc91906111d6565b6106d691906111a5565b945050505b505090565b60026000541415610726576040517f08c379a000000000000000000000000000000000000000000000000000000000815260040161071d9061111a565b60405180910390fd5b600260008190555073957ca4a4aa7cdc866cf430bb140753f04e273bc073ffffffffffffffffffffffffffffffffffffffff1663aa67c91982336040518363ffffffff1660e01b815260040161077c9190610fbb565b6000604051808303818588803b15801561079557600080fd5b505af11580156107a9573d6000803e3d6000fd5b5050505050634156415860001b3373ffffffffffffffffffffffffffffffffffffffff167fa98fe7d2204baa1060672de0612aecc1197e5cd1fc4bb5e6f5f4b8c357052e8e83426040516107fe929190611155565b60405180910390a3600160008190555050565b600073957ca4a4aa7cdc866cf430bb140753f04e273bc0905060008173ffffffffffffffffffffffffffffffffffffffff166370a08231336040518263ffffffff1660e01b81526004016108659190610fbb565b60206040518083038186803b15801561087d57600080fd5b505afa158015610891573d6000803e3d6000fd5b505050506040513d601f19601f820116820180604052508101906108b59190610e4b565b905060008114610a205760008273ffffffffffffffffffffffffffffffffffffffff166318160ddd6040518163ffffffff1660e01b815260040160206040518083038186803b15801561090757600080fd5b505afa15801561091b573d6000803e3d6000fd5b505050506040513d601f19601f8201168201806040525081019061093f9190610e4b565b905060008373ffffffffffffffffffffffffffffffffffffffff16637d8820976040518163ffffffff1660e01b815260040160206040518083038186803b15801561098957600080fd5b505afa15801561099d573d6000803e3d6000fd5b505050506040513d601f19601f820116820180604052508101906109c19190610e4b565b905060008282856109d291906111d6565b6109dc91906111a5565b9050858110156109f5576109ef846100fc565b50610a1c565b6000818588610a0491906111d6565b610a0e91906111a5565b9050610a19816100fc565b50505b5050505b505050565b6000808573ffffffffffffffffffffffffffffffffffffffff166323b872dd868686604051602401610a5993929190610fff565b6040516020818303038152906040529060e01b6020820180517bffffffffffffffffffffffffffffffffffffffffffffffffffffffff8381831617835250505050604051610aa79190610fa4565b6000604051808303816000865af19150503d8060008114610ae4576040519150601f19603f3d011682016040523d82523d6000602084013e610ae9565b606091505b5091509150818015610b175750600081511480610b16575080806020019051810190610b159190610df9565b5b5b610b56576040517f08c379a0000000000000000000000000000000000000000000000000000000008152600401610b4d9061109a565b60405180910390fd5b505050505050565b6000808473ffffffffffffffffffffffffffffffffffffffff1663a9059cbb8585604051602401610b90929190611036565b6040516020818303038152906040529060e01b6020820180517bffffffffffffffffffffffffffffffffffffffffffffffffffffffff8381831617835250505050604051610bde9190610fa4565b6000604051808303816000865af19150503d8060008114610c1b576040519150601f19603f3d011682016040523d82523d6000602084013e610c20565b606091505b5091509150818015610c4e5750600081511480610c4d575080806020019051810190610c4c9190610df9565b5b5b610c8d576040517f08c379a0000000000000000000000000000000000000000000000000000000008152600401610c84906110fa565b60405180910390fd5b5050505050565b60008273ffffffffffffffffffffffffffffffffffffffff1682600067ffffffffffffffff811115610cef577f4e487b7100000000000000000000000000000000000000000000000000000000600052604160045260246000fd5b6040519080825280601f01601f191660200182016040528015610d215781602001600182028036833780820191505090505b50604051610d2f9190610fa4565b60006040518083038185875af1925050503d8060008114610d6c576040519150601f19603f3d011682016040523d82523d6000602084013e610d71565b606091505b5050905080610db5576040517f08c379a0000000000000000000000000000000000000000000000000000000008152600401610dac906110ba565b60405180910390fd5b505050565b600081519050610dc9816114bd565b92915050565b600081359050610dde816114d4565b92915050565b600081519050610df3816114d4565b92915050565b600060208284031215610e0b57600080fd5b6000610e1984828501610dba565b91505092915050565b600060208284031215610e3457600080fd5b6000610e4284828501610dcf565b91505092915050565b600060208284031215610e5d57600080fd5b6000610e6b84828501610de4565b91505092915050565b610e7d81611230565b82525050565b610e8c81611242565b82525050565b6000610e9d8261117e565b610ea78185611189565b9350610eb7818560208601611278565b80840191505092915050565b6000610ed0602d83611194565b9150610edb82611309565b604082019050919050565b6000610ef3603183611194565b9150610efe82611358565b604082019050919050565b6000610f16603483611194565b9150610f21826113a7565b604082019050919050565b6000610f39602e83611194565b9150610f44826113f6565b604082019050919050565b6000610f5c602d83611194565b9150610f6782611445565b604082019050919050565b6000610f7f601f83611194565b9150610f8a82611494565b602082019050919050565b610f9e8161126e565b82525050565b6000610fb08284610e92565b915081905092915050565b6000602082019050610fd06000830184610e74565b92915050565b6000604082019050610feb6000830185610e74565b610ff86020830184610e74565b9392505050565b60006060820190506110146000830186610e74565b6110216020830185610e74565b61102e6040830184610f95565b949350505050565b600060408201905061104b6000830185610e74565b6110586020830184610f95565b9392505050565b60006020820190506110746000830184610e83565b92915050565b6000602082019050818103600083015261109381610ec3565b9050919050565b600060208201905081810360008301526110b381610ee6565b9050919050565b600060208201905081810360008301526110d381610f09565b9050919050565b600060208201905081810360008301526110f381610f2c565b9050919050565b6000602082019050818103600083015261111381610f4f565b9050919050565b6000602082019050818103600083015261113381610f72565b9050919050565b600060208201905061114f6000830184610f95565b92915050565b600060408201905061116a6000830185610f95565b6111776020830184610f95565b9392505050565b600081519050919050565b600081905092915050565b600082825260208201905092915050565b60006111b08261126e565b91506111bb8361126e565b9250826111cb576111ca6112da565b5b828204905092915050565b60006111e18261126e565b91506111ec8361126e565b9250817fffffffffffffffffffffffffffffffffffffffffffffffffffffffffffffffff0483118215151615611225576112246112ab565b5b828202905092915050565b600061123b8261124e565b9050919050565b60008115159050919050565b600073ffffffffffffffffffffffffffffffffffffffff82169050919050565b6000819050919050565b60005b8381101561129657808201518184015260208101905061127b565b838111156112a5576000848401525b50505050565b7f4e487b7100000000000000000000000000000000000000000000000000000000600052601160045260246000fd5b7f4e487b7100000000000000000000000000000000000000000000000000000000600052601260045260246000fd5b7f43616e6e6f7420756e7374616b65206d6f7265207468616e2077617320696e6960008201527f7469616c6c79207374616b656400000000000000000000000000000000000000602082015250565b7f5472616e7366657248656c7065723a3a7472616e7366657246726f6d3a20747260008201527f616e7366657246726f6d206661696c6564000000000000000000000000000000602082015250565b7f5472616e7366657248656c7065723a3a736166655472616e736665724554483a60008201527f20455448207472616e73666572206661696c6564000000000000000000000000602082015250565b7f496e73756666696369656e7420616c6c6f77616e636520666f7220746865207260008201527f6f7574657220636f6e7472616374000000000000000000000000000000000000602082015250565b7f5472616e7366657248656c7065723a3a736166655472616e736665723a20747260008201527f616e73666572206661696c656400000000000000000000000000000000000000602082015250565b7f5265656e7472616e637947756172643a207265656e7472616e742063616c6c00600082015250565b6114c681611242565b81146114d157600080fd5b50565b6114dd8161126e565b81146114e857600080fd5b5056fea264697066735822122002a6478a81531eceacca24493e31e70deeb5b97f93c9adfb64be0ab21fccdeb464736f6c63430008040033",
  "devdoc": {
    "events": {
      "Staked(address,bytes32,uint256,uint256)": {
        "details": "emitted when user stakes an asset",
        "params": {
          "amount": "of the asset that was staked",
          "asset": "the asset that was staked",
          "timestamp": "of staking*",
          "user": "the address executing staking"
        }
      },
      "Unstaked(address,bytes32,uint256,uint256)": {
        "details": "emitted when user unstakes an asset",
        "params": {
          "amount": "of the asset that was unstaked",
          "asset": "the asset that was unstaked",
          "timestamp": "of unstaking*",
          "user": "the address executing unstaking"
        }
      }
    },
    "kind": "dev",
    "methods": {},
    "version": 1
  },
  "userdoc": {
    "kind": "user",
    "methods": {},
    "version": 1
  },
  "storageLayout": {
    "storage": [
      {
        "astId": 115,
        "contract": "contracts/routers/YieldYakRouter.sol:YieldYakRouter",
        "label": "_status",
        "offset": 0,
        "slot": "0",
        "type": "t_uint256"
      }
    ],
    "types": {
      "t_uint256": {
        "encoding": "inplace",
        "label": "uint256",
        "numberOfBytes": "32"
      }
    }
  }
}