{
    "contractName": "BalancerV2Facet",
    "abi": [
        {
            "inputs": [],
            "name": "ArgArrayLengthsDiffer",
            "type": "error"
        },
        {
            "inputs": [],
            "name": "BalancerV2PoolNotWhitelisted",
            "type": "error"
        },
        {
            "inputs": [],
            "name": "BalancerV2RewardsNotDefined",
            "type": "error"
        },
        {
            "inputs": [],
            "name": "CalldataMustHaveValidPayload",
            "type": "error"
        },
        {
            "inputs": [],
            "name": "CalldataOverOrUnderFlow",
            "type": "error"
        },
        {
            "inputs": [],
            "name": "DataPackageTimestampMustNotBeZero",
            "type": "error"
        },
        {
            "inputs": [],
            "name": "DataPackageTimestampsMustBeEqual",
            "type": "error"
        },
        {
            "inputs": [],
            "name": "DepositingInactiveToken",
            "type": "error"
        },
        {
            "inputs": [],
            "name": "DepositingWrongToken",
            "type": "error"
        },
        {
            "inputs": [],
            "name": "EachSignerMustProvideTheSameValue",
            "type": "error"
        },
        {
            "inputs": [],
            "name": "EmptyCalldataPointersArr",
            "type": "error"
        },
        {
            "inputs": [],
            "name": "IncorrectUnsignedMetadataSize",
            "type": "error"
        },
        {
            "inputs": [
                {
                    "internalType": "uint256",
                    "name": "receivedSignersCount",
                    "type": "uint256"
                },
                {
                    "internalType": "uint256",
                    "name": "requiredSignersCount",
                    "type": "uint256"
                }
            ],
            "name": "InsufficientNumberOfUniqueSigners",
            "type": "error"
        },
        {
            "inputs": [],
            "name": "InvalidCalldataPointer",
            "type": "error"
        },
        {
            "inputs": [
                {
                    "internalType": "bytes",
                    "name": "result",
                    "type": "bytes"
                }
            ],
            "name": "ProxyCalldataFailedWithCustomError",
            "type": "error"
        },
        {
            "inputs": [
                {
                    "internalType": "string",
                    "name": "message",
                    "type": "string"
                }
            ],
            "name": "ProxyCalldataFailedWithStringMessage",
            "type": "error"
        },
        {
            "inputs": [],
            "name": "ProxyCalldataFailedWithoutErrMsg",
            "type": "error"
        },
        {
            "inputs": [],
            "name": "RedstonePayloadMustHaveAtLeastOneDataPackage",
            "type": "error"
        },
        {
            "inputs": [
                {
                    "internalType": "address",
                    "name": "receivedSigner",
                    "type": "address"
                }
            ],
            "name": "SignerNotAuthorised",
            "type": "error"
        },
        {
            "inputs": [],
            "name": "UnstakingToInactiveToken",
            "type": "error"
        },
        {
            "inputs": [],
            "name": "UnstakingWrongToken",
            "type": "error"
        },
        {
            "inputs": [],
            "name": "ZeroAddressPool",
            "type": "error"
        },
        {
            "anonymous": false,
            "inputs": [
                {
                    "indexed": true,
                    "internalType": "address",
                    "name": "user",
                    "type": "address"
                },
                {
                    "indexed": false,
                    "internalType": "bytes32",
                    "name": "asset",
                    "type": "bytes32"
                },
                {
                    "indexed": true,
                    "internalType": "address",
                    "name": "vault",
                    "type": "address"
                },
                {
                    "indexed": false,
                    "internalType": "uint256",
                    "name": "depositTokenAmount",
                    "type": "uint256"
                },
                {
                    "indexed": false,
                    "internalType": "uint256",
                    "name": "receiptTokenAmount",
                    "type": "uint256"
                },
                {
                    "indexed": false,
                    "internalType": "uint256",
                    "name": "timestamp",
                    "type": "uint256"
                }
            ],
            "name": "BptStaked",
            "type": "event"
        },
        {
            "anonymous": false,
            "inputs": [
                {
                    "indexed": true,
                    "internalType": "address",
                    "name": "user",
                    "type": "address"
                },
                {
                    "indexed": false,
                    "internalType": "bytes32",
                    "name": "asset",
                    "type": "bytes32"
                },
                {
                    "indexed": true,
                    "internalType": "address",
                    "name": "vault",
                    "type": "address"
                },
                {
                    "indexed": false,
                    "internalType": "uint256",
                    "name": "depositTokenAmount",
                    "type": "uint256"
                },
                {
                    "indexed": false,
                    "internalType": "uint256",
                    "name": "receiptTokenAmount",
                    "type": "uint256"
                },
                {
                    "indexed": false,
                    "internalType": "uint256",
                    "name": "timestamp",
                    "type": "uint256"
                }
            ],
            "name": "BptUnstaked",
            "type": "event"
        },
        {
            "anonymous": false,
            "inputs": [
                {
                    "indexed": true,
                    "internalType": "address",
                    "name": "user",
                    "type": "address"
                },
                {
                    "indexed": false,
                    "internalType": "bytes32[]",
                    "name": "assets",
                    "type": "bytes32[]"
                },
                {
                    "indexed": true,
                    "internalType": "address",
                    "name": "vault",
                    "type": "address"
                },
                {
                    "indexed": false,
                    "internalType": "uint256[]",
                    "name": "depositTokenAmounts",
                    "type": "uint256[]"
                },
                {
                    "indexed": false,
                    "internalType": "uint256",
                    "name": "receiptTokenAmount",
                    "type": "uint256"
                },
                {
                    "indexed": false,
                    "internalType": "uint256",
                    "name": "timestamp",
                    "type": "uint256"
                }
            ],
            "name": "Staked",
            "type": "event"
        },
        {
            "anonymous": false,
            "inputs": [
                {
                    "indexed": true,
                    "internalType": "address",
                    "name": "user",
                    "type": "address"
                },
                {
                    "indexed": false,
                    "internalType": "bytes32[]",
                    "name": "assets",
                    "type": "bytes32[]"
                },
                {
                    "indexed": true,
                    "internalType": "address",
                    "name": "vault",
                    "type": "address"
                },
                {
                    "indexed": false,
                    "internalType": "uint256[]",
                    "name": "depositTokenAmounts",
                    "type": "uint256[]"
                },
                {
                    "indexed": false,
                    "internalType": "uint256",
                    "name": "receiptTokenAmount",
                    "type": "uint256"
                },
                {
                    "indexed": false,
                    "internalType": "uint256",
                    "name": "timestamp",
                    "type": "uint256"
                }
            ],
            "name": "Unstaked",
            "type": "event"
        },
        {
            "inputs": [
                {
                    "internalType": "bytes32[]",
                    "name": "assetsToRepay",
                    "type": "bytes32[]"
                }
            ],
            "name": "_getAllPricesForLiquidation",
            "outputs": [
                {
                    "components": [
                        {
                            "components": [
                                {
                                    "internalType": "bytes32",
                                    "name": "asset",
                                    "type": "bytes32"
                                },
                                {
                                    "internalType": "uint256",
                                    "name": "price",
                                    "type": "uint256"
                                }
                            ],
                            "internalType": "struct SolvencyFacetProd.AssetPrice[]",
                            "name": "ownedAssetsPrices",
                            "type": "tuple[]"
                        },
                        {
                            "components": [
                                {
                                    "internalType": "bytes32",
                                    "name": "asset",
                                    "type": "bytes32"
                                },
                                {
                                    "internalType": "uint256",
                                    "name": "price",
                                    "type": "uint256"
                                }
                            ],
                            "internalType": "struct SolvencyFacetProd.AssetPrice[]",
                            "name": "debtAssetsPrices",
                            "type": "tuple[]"
                        },
                        {
                            "components": [
                                {
                                    "internalType": "bytes32",
                                    "name": "asset",
                                    "type": "bytes32"
                                },
                                {
                                    "internalType": "uint256",
                                    "name": "price",
                                    "type": "uint256"
                                }
                            ],
                            "internalType": "struct SolvencyFacetProd.AssetPrice[]",
                            "name": "stakedPositionsPrices",
                            "type": "tuple[]"
                        },
                        {
                            "components": [
                                {
                                    "internalType": "bytes32",
                                    "name": "asset",
                                    "type": "bytes32"
                                },
                                {
                                    "internalType": "uint256",
                                    "name": "price",
                                    "type": "uint256"
                                }
                            ],
                            "internalType": "struct SolvencyFacetProd.AssetPrice[]",
                            "name": "assetsToRepayPrices",
                            "type": "tuple[]"
                        }
                    ],
                    "internalType": "struct SolvencyFacetProd.CachedPrices",
                    "name": "result",
                    "type": "tuple"
                }
            ],
            "stateMutability": "nonpayable",
            "type": "function"
        },
        {
            "inputs": [],
            "name": "_getHealthRatio",
            "outputs": [
                {
                    "internalType": "uint256",
                    "name": "health",
                    "type": "uint256"
                }
            ],
            "stateMutability": "nonpayable",
            "type": "function"
        },
        {
            "inputs": [
                {
                    "components": [
                        {
                            "components": [
                                {
                                    "internalType": "bytes32",
                                    "name": "asset",
                                    "type": "bytes32"
                                },
                                {
                                    "internalType": "uint256",
                                    "name": "price",
                                    "type": "uint256"
                                }
                            ],
                            "internalType": "struct SolvencyFacetProd.AssetPrice[]",
                            "name": "ownedAssetsPrices",
                            "type": "tuple[]"
                        },
                        {
                            "components": [
                                {
                                    "internalType": "bytes32",
                                    "name": "asset",
                                    "type": "bytes32"
                                },
                                {
                                    "internalType": "uint256",
                                    "name": "price",
                                    "type": "uint256"
                                }
                            ],
                            "internalType": "struct SolvencyFacetProd.AssetPrice[]",
                            "name": "debtAssetsPrices",
                            "type": "tuple[]"
                        },
                        {
                            "components": [
                                {
                                    "internalType": "bytes32",
                                    "name": "asset",
                                    "type": "bytes32"
                                },
                                {
                                    "internalType": "uint256",
                                    "name": "price",
                                    "type": "uint256"
                                }
                            ],
                            "internalType": "struct SolvencyFacetProd.AssetPrice[]",
                            "name": "stakedPositionsPrices",
                            "type": "tuple[]"
                        },
                        {
                            "components": [
                                {
                                    "internalType": "bytes32",
                                    "name": "asset",
                                    "type": "bytes32"
                                },
                                {
                                    "internalType": "uint256",
                                    "name": "price",
                                    "type": "uint256"
                                }
                            ],
                            "internalType": "struct SolvencyFacetProd.AssetPrice[]",
                            "name": "assetsToRepayPrices",
                            "type": "tuple[]"
                        }
                    ],
                    "internalType": "struct SolvencyFacetProd.CachedPrices",
                    "name": "cachedPrices",
                    "type": "tuple"
                }
            ],
            "name": "_getHealthRatioWithPrices",
            "outputs": [
                {
                    "internalType": "uint256",
                    "name": "health",
                    "type": "uint256"
                }
            ],
            "stateMutability": "nonpayable",
            "type": "function"
        },
        {
            "inputs": [],
            "name": "_resetPrimeAccountAssetsExposure",
            "outputs": [],
            "stateMutability": "nonpayable",
            "type": "function"
        },
        {
            "inputs": [],
            "name": "_setPrimeAccountAssetsExposure",
            "outputs": [],
            "stateMutability": "nonpayable",
            "type": "function"
        },
        {
            "inputs": [],
            "name": "balancerGgAvaxBalance",
            "outputs": [
                {
                    "internalType": "uint256",
                    "name": "",
                    "type": "uint256"
                }
            ],
            "stateMutability": "view",
            "type": "function"
        },
        {
            "inputs": [],
            "name": "balancerSAvaxBalance",
            "outputs": [
                {
                    "internalType": "uint256",
                    "name": "",
                    "type": "uint256"
                }
            ],
            "stateMutability": "view",
            "type": "function"
        },
        {
            "inputs": [],
            "name": "balancerYyAvaxBalance",
            "outputs": [
                {
                    "internalType": "uint256",
                    "name": "",
                    "type": "uint256"
                }
            ],
            "stateMutability": "view",
            "type": "function"
        },
        {
            "inputs": [
                {
                    "internalType": "bytes32",
                    "name": "poolId",
                    "type": "bytes32"
                }
            ],
            "name": "claimRewardsBalancerV2",
            "outputs": [],
            "stateMutability": "nonpayable",
            "type": "function"
        },
        {
            "inputs": [],
            "name": "extractTimestampsAndAssertAllAreEqual",
            "outputs": [
                {
                    "internalType": "uint256",
                    "name": "extractedTimestamp",
                    "type": "uint256"
                }
            ],
            "stateMutability": "pure",
            "type": "function"
        },
        {
            "inputs": [
                {
                    "internalType": "bytes32",
                    "name": "symbol",
                    "type": "bytes32"
                }
            ],
            "name": "getPrice",
            "outputs": [
                {
                    "internalType": "uint256",
                    "name": "price",
                    "type": "uint256"
                }
            ],
            "stateMutability": "nonpayable",
            "type": "function"
        },
        {
            "inputs": [
                {
                    "internalType": "bytes32[]",
                    "name": "symbols",
                    "type": "bytes32[]"
                }
            ],
            "name": "getPrices",
            "outputs": [
                {
                    "internalType": "uint256[]",
                    "name": "prices",
                    "type": "uint256[]"
                }
            ],
            "stateMutability": "nonpayable",
            "type": "function"
        },
        {
            "inputs": [
                {
                    "components": [
                        {
                            "internalType": "bytes32",
                            "name": "poolId",
                            "type": "bytes32"
                        },
                        {
                            "internalType": "address[]",
                            "name": "stakedTokens",
                            "type": "address[]"
                        },
                        {
                            "internalType": "uint256[]",
                            "name": "stakedAmounts",
                            "type": "uint256[]"
                        },
                        {
                            "internalType": "uint256",
                            "name": "minBptAmount",
                            "type": "uint256"
                        }
                    ],
                    "internalType": "struct IBalancerV2Facet.StakeRequest",
                    "name": "request",
                    "type": "tuple"
                }
            ],
            "name": "joinPoolAndStakeBalancerV2",
            "outputs": [],
            "stateMutability": "nonpayable",
            "type": "function"
        },
        {
            "inputs": [
                {
                    "internalType": "bytes32",
                    "name": "poolId",
                    "type": "bytes32"
                },
                {
                    "internalType": "uint256",
                    "name": "amount",
                    "type": "uint256"
                }
            ],
            "name": "stakeBalancerV2",
            "outputs": [],
            "stateMutability": "nonpayable",
            "type": "function"
        },
        {
            "inputs": [
                {
                    "components": [
                        {
                            "internalType": "bytes32",
                            "name": "poolId",
                            "type": "bytes32"
                        },
                        {
                            "internalType": "address",
                            "name": "unstakedToken",
                            "type": "address"
                        },
                        {
                            "internalType": "uint256",
                            "name": "unstakedAmount",
                            "type": "uint256"
                        },
                        {
                            "internalType": "uint256",
                            "name": "bptAmount",
                            "type": "uint256"
                        }
                    ],
                    "internalType": "struct IBalancerV2Facet.UnstakeRequest",
                    "name": "request",
                    "type": "tuple"
                }
            ],
            "name": "unstakeAndExitPoolBalancerV2",
            "outputs": [],
            "stateMutability": "nonpayable",
            "type": "function"
        },
        {
            "inputs": [
                {
                    "internalType": "bytes32",
                    "name": "poolId",
                    "type": "bytes32"
                },
                {
                    "internalType": "uint256",
                    "name": "amount",
                    "type": "uint256"
                }
            ],
            "name": "unstakeBalancerV2",
            "outputs": [],
            "stateMutability": "nonpayable",
            "type": "function"
        }
    ],
    "bytecode": "608060405234801561001057600080fd5b506001600055614a49806100256000396000f3fe608060405234801561001057600080fd5b50600436106101005760003560e01c806374825eab116100975780638246ac7e116100665780638246ac7e146101cd5780639475d2ce146101e0578063b2d40e73146101f3578063f8f185531461021357600080fd5b806374825eab14610197578063775a276e146101aa5780637ab823eb146101b25780637f06bf43146101c557600080fd5b80635b4fad9c116100d35780635b4fad9c1461015f5780635b691567146101695780636b5e3fa9146101715780636e3bfe9f1461018457600080fd5b806326ee48361461010557806331d98b3f1461012e57806339e2719e1461014f57806355a547d514610157575b600080fd5b610118610113366004613e80565b61021b565b6040516101259190613f50565b60405180910390f35b61014161013c366004613f63565b61029a565b604051908152602001610125565b6101416102dd565b610141610338565b610167610450565b005b610141610494565b61016761017f366004613f7c565b6104b3565b610141610192366004614028565b610a02565b6101676101a5366004614115565b610a31565b610141611446565b6101676101c0366004613f7c565b611465565b6101416119e0565b6101676101db366004613f63565b6119ff565b6101676101ee3660046141db565b611cc8565b610206610201366004613e80565b612af7565b604051610125919061431b565b610167612b62565b6060610281610230631377241b60e11b612ba3565b604051631377241b60e11b9061024a908690602401613f50565b60408051601f198184030181529190526020810180516001600160e01b03166001600160e01b031990931692909217909152612c2e565b80602001905181019061029491906143f4565b92915050565b60006102ca6102af6331d98b3f60e01b612ba3565b604051602481018590526331d98b3f60e01b9060440161024a565b8060200190518101906102949190614428565b60006103206102f2637914334f60e01b612ba3565b6040805160048152602481019091526020810180516001600160e01b0316637914334f60e01b179052612c2e565b8060200190518101906103339190614428565b905090565b600080610343612cb1565b9050600061035082612d5f565b61ffff1690508060000361037757604051632154bfcf60e21b815260040160405180910390fd5b610382600283614457565b915060005b8181101561044a57600061039a84612d99565b90506000806103aa606887614457565b905060006103b8823661446a565b9050803592508265ffffffffffff166000036103e757604051630336dc9d60e41b815260040160405180910390fd5b876000036103ff578265ffffffffffff169750610427565b878365ffffffffffff16146104275760405163d9d1f46560e01b815260040160405180910390fd5b6104318488614457565b96505050505080806104429061447d565b915050610387565b50505090565b61049161046363b1c9fbc160e01b612ba3565b6040805160048152602481019091526020810180516001600160e01b031663b1c9fbc160e01b179052612c2e565b50565b600061033373fd2620c9cfcec7d152467633b3b0ca338d3d78cc612dd5565b6000805160206149f48339815191528054600119016104ed5760405162461bcd60e51b81526004016104e490614496565b60405180910390fd5b600281556104f9612e4c565b610501610450565b60007396f3ce39ad2bfdcf92c0f6e2c2cabf83874660fc60405163f6c0092760e01b81526004810186905290915073ba12222222228d8ba445958a75a0704d566bf2c890600090829063f6c00927906024016040805180830381865afa15801561056f573d6000803e3d6000fd5b505050506040513d601f19601f8201168201806040525081019061059391906144cd565b5090506001600160a01b0381166105bd576040516360fd75e960e01b815260040160405180910390fd5b60006105c882612edc565b6040516370a0823160e01b81523060048201529091506000906001600160a01b038316906370a0823190602401602060405180830381865afa158015610612573d6000803e3d6000fd5b505050506040513d601f19601f820116820180604052508101906106369190614428565b6040516370a0823160e01b81523060048201529091506106ac9088906001600160a01b038616906370a0823190602401602060405180830381865afa158015610683573d6000803e3d6000fd5b505050506040513d601f19601f820116820180604052508101906106a79190614428565b612fb4565b9650600087116106f65760405162461bcd60e51b815260206004820152601560248201527443616e6e6f74207374616b65203020746f6b656e7360581b60448201526064016104e4565b60405163095ea7b360e01b81526001600160a01b0383811660048301526024820189905284169063095ea7b3906044016020604051808303816000875af1158015610745573d6000803e3d6000fd5b505050506040513d601f19601f82011682018060405250810190610769919061450b565b5060405163b6b55f2560e01b8152600481018890526001600160a01b0383169063b6b55f2590602401600060405180830381600087803b1580156107ac57600080fd5b505af11580156107c0573d6000803e3d6000fd5b50506040516307c11f8f60e51b81526001600160a01b038681166004830152600093508816915063f823f1e090602401602060405180830381865afa15801561080d573d6000803e3d6000fd5b505050506040513d601f19601f820116820180604052508101906108319190614428565b905060006040518060a00160405280866001600160a01b0316815260200183815260200161085e87612fca565b815260200161086c87613085565b6001600160e01b03191681526000602090910152905061088b8161311d565b6040516370a0823160e01b81523060048201526001600160a01b038616906370a0823190602401602060405180830381865afa1580156108cf573d6000803e3d6000fd5b505050506040513d601f19601f820116820180604052508101906108f39190614428565b6000036109035761090382613222565b6040516370a0823160e01b81523060048201526001600160a01b038087169133917fc0bd867c533e6b2383bc911080337b72a8b262a01ce72190d296143a6bd31ad49186918e9189918b16906370a0823190602401602060405180830381865afa158015610975573d6000803e3d6000fd5b505050506040513d601f19601f820116820180604052508101906109999190614428565b6109a3919061446a565b6040805193845260208401929092529082015242606082015260800160405180910390a3505050505050506109d661326d565b6109f25760405162461bcd60e51b81526004016104e49061452d565b6109fa612b62565b600190555050565b60006102ca610a1763360398a360e01b612ba3565b60405163360398a360e01b9061024a90869060240161431b565b6000805160206149f4833981519152805460011901610a625760405162461bcd60e51b81526004016104e490614496565b600281556000610a7061326d565b90508015610a8557610a80612e4c565b610b20565b73fcdb4564c18a9134002b9771816092c9693622e36040516338c67f3360e21b81523360048201526001600160a01b03919091169063e319fccc90602401602060405180830381865afa158015610ae0573d6000803e3d6000fd5b505050506040513d601f19601f82011682018060405250810190610b04919061450b565b610b205760405162461bcd60e51b81526004016104e490614580565b610b28610450565b825160405163f6c0092760e01b815260009173ba12222222228d8ba445958a75a0704d566bf2c89163f6c0092791610b669160040190815260200190565b6040805180830381865afa158015610b82573d6000803e3d6000fd5b505050506040513d601f19601f82011682018060405250810190610ba691906144cd565b5090506001600160a01b038116610bd0576040516360fd75e960e01b815260040160405180910390fd5b6000610bdb82612edc565b90507396f3ce39ad2bfdcf92c0f6e2c2cabf83874660fc60208601516040516335923e0360e01b81526001600160a01b0391821660048201529116906335923e0390602401602060405180830381865afa158015610c3d573d6000803e3d6000fd5b505050506040513d601f19601f82011682018060405250810190610c61919061450b565b610c7e576040516352088b0d60e01b815260040160405180910390fd5b816001600160a01b031685602001516001600160a01b03161480610cb75750806001600160a01b031685602001516001600160a01b0316145b15610cd55760405163cf276af560e01b815260040160405180910390fd5b60208501516040516370a0823160e01b81523060048201526000916001600160a01b0316906370a0823190602401602060405180830381865afa158015610d20573d6000803e3d6000fd5b505050506040513d601f19601f82011682018060405250810190610d449190614428565b6040516370a0823160e01b81523060048201529091506000906001600160a01b038416906370a0823190602401602060405180830381865afa158015610d8e573d6000803e3d6000fd5b505050506040513d601f19601f82011682018060405250810190610db29190614428565b6060880151604051632e1a7d4d60e01b81529192506001600160a01b03851691632e1a7d4d91610de89160040190815260200190565b600060405180830381600087803b158015610e0257600080fd5b505af1158015610e16573d6000803e3d6000fd5b50505050610e4760405180608001604052806060815260200160608152602001606081526020016000151581525090565b8751604051631f29a8cd60e31b815260048101919091526060908190600090819073ba12222222228d8ba445958a75a0704d566bf2c89063f94d466890602401600060405180830381865afa158015610ea4573d6000803e3d6000fd5b505050506040513d6000823e601f3d908101601f19168201604052610ecc91908101906145d1565b50508051909150806001600160401b03811115610eeb57610eeb613dcd565b604051908082528060200260200182016040528015610f14578160200160208202803683370190505b509450806001600160401b03811115610f2f57610f2f613dcd565b604051908082528060200260200182016040528015610f58578160200160208202803683370190505b5093506000805b8281101561106c57838181518110610f7957610f7961469e565b6020026020010151878281518110610f9357610f9361469e565b60200260200101906001600160a01b031690816001600160a01b0316815250508b6001600160a01b0316848281518110610fcf57610fcf61469e565b60200260200101516001600160a01b031603610fea57600191505b8e602001516001600160a01b031684828151811061100a5761100a61469e565b60200260200101516001600160a01b03160361105c578e604001518682815181106110375761103761469e565b6020026020010181815250508161104e5780611059565b61105960018261446a565b94505b6110658161447d565b9050610f5f565b50505050604051806080016040528084815260200183815260200160008d60600151846040516020016110b79392919060ff9390931683526020830191909152604082015260600190565b60408051808303601f1901815291815290825260006020909201919091528c519051638bdb391360e01b815291955073ba12222222228d8ba445958a75a0704d566bf2c89450638bdb3913935061111892509030908190879060040161479b565b600060405180830381600087803b15801561113257600080fd5b505af1158015611146573d6000803e3d6000fd5b5060009250600191506111569050565b60405190808252806020026020018201604052801561117f578160200160208202803683370190505b5060408051600180825281830190925291925060009190602080830190803683370190505090507396f3ce39ad2bfdcf92c0f6e2c2cabf83874660fc60208b01516040516307c11f8f60e51b81526001600160a01b03918216600482015291169063f823f1e090602401602060405180830381865afa158015611206573d6000803e3d6000fd5b505050506040513d601f19601f8201168201806040525081019061122a9190614428565b8260008151811061123d5761123d61469e565b6020908102919091018101919091528a01516040516370a0823160e01b815230600482015286916001600160a01b0316906370a0823190602401602060405180830381865afa158015611294573d6000803e3d6000fd5b505050506040513d601f19601f820116820180604052508101906112b89190614428565b6112c2919061446a565b816000815181106112d5576112d561469e565b602002602001018181525050611309826000815181106112f7576112f761469e565b60200260200101518b602001516132c3565b6040516370a0823160e01b81523060048201526000906001600160a01b038816906370a0823190602401602060405180830381865afa158015611350573d6000803e3d6000fd5b505050506040513d601f19601f820116820180604052508101906113749190614428565b90508060000361138f5761138f61138a89612fca565b6133aa565b6001600160a01b038816337f18f9ba94ce5b218dda887a882b824801cb051c82a0fca6237b27d4d6082ef7c485856113c7868b61446a565b426040516113d894939291906147cd565b60405180910390a350505050505050506113f0612b62565b801561143e576113fe61326d565b61143e5760405162461bcd60e51b8152602060048201526011602482015270135d5cdd081cdd185e481cdbdb1d995b9d607a1b60448201526064016104e4565b506001905550565b6000610333739fa6ab3d78984a69e712730a2227f20bcc8b5ad9612dd5565b6000805160206149f48339815191528054600119016114965760405162461bcd60e51b81526004016104e490614496565b6002815560006114a461326d565b905080156114b9576114b4612e4c565b611554565b73fcdb4564c18a9134002b9771816092c9693622e36040516338c67f3360e21b81523360048201526001600160a01b03919091169063e319fccc90602401602060405180830381865afa158015611514573d6000803e3d6000fd5b505050506040513d601f19601f82011682018060405250810190611538919061450b565b6115545760405162461bcd60e51b81526004016104e490614580565b61155c610450565b60007396f3ce39ad2bfdcf92c0f6e2c2cabf83874660fc60405163f6c0092760e01b81526004810187905290915060009073ba12222222228d8ba445958a75a0704d566bf2c89063f6c00927906024016040805180830381865afa1580156115c8573d6000803e3d6000fd5b505050506040513d601f19601f820116820180604052508101906115ec91906144cd565b5090506001600160a01b038116611616576040516360fd75e960e01b815260040160405180910390fd5b600061162182612edc565b6040516370a0823160e01b81523060048201529091506000906001600160a01b038416906370a0823190602401602060405180830381865afa15801561166b573d6000803e3d6000fd5b505050506040513d601f19601f8201168201806040525081019061168f9190614428565b6040516370a0823160e01b81523060048201529091506000906001600160a01b038416906370a0823190602401602060405180830381865afa1580156116d9573d6000803e3d6000fd5b505050506040513d601f19601f820116820180604052508101906116fd9190614428565b90506117098882612fb4565b97506000881161175b5760405162461bcd60e51b815260206004820152601760248201527f43616e6e6f7420756e7374616b65203020746f6b656e7300000000000000000060448201526064016104e4565b604051632e1a7d4d60e01b8152600481018990526001600160a01b03841690632e1a7d4d90602401600060405180830381600087803b15801561179d57600080fd5b505af11580156117b1573d6000803e3d6000fd5b50506040516370a0823160e01b8152306004820152600092506001600160a01b03861691506370a0823190602401602060405180830381865afa1580156117fc573d6000803e3d6000fd5b505050506040513d601f19601f820116820180604052508101906118209190614428565b9050806000036118365761183661138a86612fca565b6040516307c11f8f60e51b81526001600160a01b0386811660048301526000919088169063f823f1e090602401602060405180830381865afa158015611880573d6000803e3d6000fd5b505050506040513d601f19601f820116820180604052508101906118a49190614428565b90506118b081876132c3565b6040516370a0823160e01b81523060048201526001600160a01b0387169033907fa2d09359c97a07bfd1e7195b14c9c65ed9cae3ae68a167678d36b53e1bc50d2b908490889085906370a0823190602401602060405180830381865afa15801561191e573d6000803e3d6000fd5b505050506040513d601f19601f820116820180604052508101906119429190614428565b61194c919061446a565b611956878961446a565b6040805193845260208401929092529082015242606082015260800160405180910390a350505050505050611989612b62565b80156119d75761199761326d565b6119d75760405162461bcd60e51b8152602060048201526011602482015270135d5cdd081cdd185e481cdbdb1d995b9d607a1b60448201526064016104e4565b50600190555050565b600061033373c13546b97b9b1b15372368dc06529d7191081f5b612dd5565b6000805160206149f4833981519152805460011901611a305760405162461bcd60e51b81526004016104e490614496565b60028155611a3c612e4c565b611a44610450565b60007396f3ce39ad2bfdcf92c0f6e2c2cabf83874660fc60405163f6c0092760e01b81526004810185905290915060009073ba12222222228d8ba445958a75a0704d566bf2c89063f6c00927906024016040805180830381865afa158015611ab0573d6000803e3d6000fd5b505050506040513d601f19601f82011682018060405250810190611ad491906144cd565b5090506000611ae282612edc565b9050806001600160a01b031663e6f1daf26040518163ffffffff1660e01b8152600401600060405180830381600087803b158015611b1f57600080fd5b505af1158015611b33573d6000803e3d6000fd5b505050506000611b4283613537565b905060005b8151811015611c90576000856001600160a01b03166325eb876f848481518110611b7357611b7361469e565b602002602001015160006040518363ffffffff1660e01b8152600401611ba59291909182521515602082015260400190565b602060405180830381865afa158015611bc2573d6000803e3d6000fd5b505050506040513d601f19601f82011682018060405250810190611be69190614806565b6040516370a0823160e01b81523060048201529091506000906001600160a01b038316906370a0823190602401602060405180830381865afa158015611c30573d6000803e3d6000fd5b505050506040513d601f19601f82011682018060405250810190611c549190614428565b1115611c7d57611c7d838381518110611c6f57611c6f61469e565b6020026020010151826132c3565b5080611c888161447d565b915050611b47565b5050505050611c9d61326d565b611cb95760405162461bcd60e51b81526004016104e49061452d565b611cc1612b62565b6001905550565b6000805160206149f4833981519152805460011901611cf95760405162461bcd60e51b81526004016104e490614496565b60028155611d05612e4c565b611d0d610450565b6020820151516040830151518114611d3857604051630ee2364760e31b815260040160405180910390fd5b825160405163f6c0092760e01b815260048101919091527396f3ce39ad2bfdcf92c0f6e2c2cabf83874660fc9073ba12222222228d8ba445958a75a0704d566bf2c890600090829063f6c00927906024016040805180830381865afa158015611da5573d6000803e3d6000fd5b505050506040513d601f19601f82011682018060405250810190611dc991906144cd565b5090506001600160a01b038116611df3576040516360fd75e960e01b815260040160405180910390fd5b6000611dfe82612edc565b905060005b85811015611f4d57600088604001518281518110611e2357611e2361469e565b6020026020010151118015611ece5750846001600160a01b03166335923e0389602001518381518110611e5857611e5861469e565b60200260200101516040518263ffffffff1660e01b8152600401611e8b91906001600160a01b0391909116815260200190565b602060405180830381865afa158015611ea8573d6000803e3d6000fd5b505050506040513d601f19601f82011682018060405250810190611ecc919061450b565b155b15611eec5760405163252e887d60e01b815260040160405180910390fd5b816001600160a01b031688602001518281518110611f0c57611f0c61469e565b60200260200101516001600160a01b031603611f3b57604051630fed70bd60e41b815260040160405180910390fd5b80611f458161447d565b915050611e03565b5060016000866001600160401b03811115611f6a57611f6a613dcd565b604051908082528060200260200182016040528015611f93578160200160208202803683370190505b50905060005b878110156120855760008a604001518281518110611fb957611fb961469e565b602002602001015111156120755760008a602001518281518110611fdf57611fdf61469e565b60209081029190910101516040516370a0823160e01b81523060048201529091506001600160a01b038216906370a0823190602401602060405180830381865afa158015612031573d6000803e3d6000fd5b505050506040513d601f19601f820116820180604052508101906120559190614428565b8383815181106120675761206761469e565b602002602001018181525050505b61207e8161447d565b9050611f99565b5060005b878110156121675760008a6040015182815181106120a9576120a961469e565b60200260200101511115612157576000925061210b73ba12222222228d8ba445958a75a0704d566bf2c860008c6020015184815181106120eb576120eb61469e565b60200260200101516001600160a01b031661372a9092919063ffffffff16565b61215773ba12222222228d8ba445958a75a0704d566bf2c88b6040015183815181106121395761213961469e565b60200260200101518c6020015184815181106120eb576120eb61469e565b6121608161447d565b9050612089565b5081156121c95760405162461bcd60e51b815260206004820152602a60248201527f43616e6e6f74206a6f696e506f6f6c416e645374616b6542616c616e6365725660448201526932203020746f6b656e7360b01b60648201526084016104e4565b606080606060008060005b8c81101561222d57896001600160a01b03168f6020015182815181106121fc576121fc61469e565b60200260200101516001600160a01b03160361221b576001915061222d565b806122258161447d565b9150506121d4565b50806122435761223e8c6001614457565b612245565b8b5b915050806001600160401b0381111561226057612260613dcd565b604051908082528060200260200182016040528015612289578160200160208202803683370190505b509350806001600160401b038111156122a4576122a4613dcd565b6040519080825280602002602001820160405280156122cd578160200160208202803683370190505b50925060005b8b811015612378578d6020015181815181106122f1576122f161469e565b602002602001015185828151811061230b5761230b61469e565b60200260200101906001600160a01b031690816001600160a01b0316815250508d6040015181815181106123415761234161469e565b602002602001015184828151811061235b5761235b61469e565b6020908102919091010152806123708161447d565b9150506122d3565b50808b146123d45787848c815181106123935761239361469e565b60200260200101906001600160a01b031690816001600160a01b0316815250506000838c815181106123c7576123c761469e565b6020026020010181815250505b6123df8d8c83613859565b6040805160808101825286815260208101869052808201839052600060608201528f51915163172b958560e31b8152929450925073ba12222222228d8ba445958a75a0704d566bf2c89163b95cac28916124419130908190879060040161479b565b600060405180830381600087803b15801561245b57600080fd5b505af115801561246f573d6000803e3d6000fd5b50506040516370a0823160e01b8152306004820152600096506001600160a01b038a1695506370a08231945060240192506124a8915050565b602060405180830381865afa1580156124c5573d6000803e3d6000fd5b505050506040513d601f19601f820116820180604052508101906124e99190614428565b6040516370a0823160e01b81523060048201529091506000906001600160a01b038716906370a0823190602401602060405180830381865afa158015612533573d6000803e3d6000fd5b505050506040513d601f19601f820116820180604052508101906125579190614428565b60405163095ea7b360e01b81526001600160a01b038781166004830152602482018390529192509087169063095ea7b3906044016020604051808303816000875af11580156125aa573d6000803e3d6000fd5b505050506040513d601f19601f820116820180604052508101906125ce919061450b565b5060405163b6b55f2560e01b8152600481018290526001600160a01b0386169063b6b55f2590602401600060405180830381600087803b15801561261157600080fd5b505af1158015612625573d6000803e3d6000fd5b50506040516307c11f8f60e51b81526001600160a01b038981166004830152600093508b16915063f823f1e090602401602060405180830381865afa158015612672573d6000803e3d6000fd5b505050506040513d601f19601f820116820180604052508101906126969190614428565b905060006040518060a00160405280896001600160a01b031681526020018381526020016126c38a612fca565b81526020016126d18a613085565b6001600160e01b0319168152600060209091015290506126f08161311d565b5050506000886001600160401b0381111561270d5761270d613dcd565b604051908082528060200260200182016040528015612736578160200160208202803683370190505b5090506000896001600160401b0381111561275357612753613dcd565b60405190808252806020026020018201604052801561277c578160200160208202803683370190505b50905060005b8a811015612a2b5760008d6040015182815181106127a2576127a261469e565b60200260200101511115612a1b5760008d6020015182815181106127c8576127c861469e565b60209081029190910101516040516370a0823160e01b81523060048201529091506001600160a01b038216906370a0823190602401602060405180830381865afa15801561281a573d6000803e3d6000fd5b505050506040513d601f19601f8201168201806040525081019061283e9190614428565b6000036128b9576040516307c11f8f60e51b81526001600160a01b0382811660048301526128b991908d169063f823f1e090602401602060405180830381865afa158015612890573d6000803e3d6000fd5b505050506040513d601f19601f820116820180604052508101906128b49190614428565b613222565b8a6001600160a01b031663f823f1e08f6020015184815181106128de576128de61469e565b60200260200101516040518263ffffffff1660e01b815260040161291191906001600160a01b0391909116815260200190565b602060405180830381865afa15801561292e573d6000803e3d6000fd5b505050506040513d601f19601f820116820180604052508101906129529190614428565b8483815181106129645761296461469e565b60209081029190910101526040516370a0823160e01b81523060048201526001600160a01b038216906370a0823190602401602060405180830381865afa1580156129b3573d6000803e3d6000fd5b505050506040513d601f19601f820116820180604052508101906129d79190614428565b8683815181106129e9576129e961469e565b60200260200101516129fb919061446a565b838381518110612a0d57612a0d61469e565b602002602001018181525050505b612a248161447d565b9050612782565b506040516370a0823160e01b81523060048201526001600160a01b038089169133917f1e9f55eae4bef7885500c59ec9c1b1a3121e50ed87456ae354ac93938c0cd5e7918691869189918d16906370a0823190602401602060405180830381865afa158015612a9e573d6000803e3d6000fd5b505050506040513d601f19601f82011682018060405250810190612ac29190614428565b612acc919061446a565b42604051612add94939291906147cd565b60405180910390a350505050505050505050611c9d61326d565b612b226040518060800160405280606081526020016060815260200160608152602001606081525090565b612b4f612b356351d5468f60e11b612ba3565b6040516351d5468f60e11b9061024a908690602401613f50565b80602001905181019061029491906148a2565b610491612b7563e017e12560e01b612ba3565b6040805160048152602481019091526020810180516001600160e01b031663e017e12560e01b179052612c2e565b600073fcdb4564c18a9134002b9771816092c9693622e3604051630d74157760e01b81526001600160e01b0319841660048201526001600160a01b039190911690630d74157790602401602060405180830381865afa158015612c0a573d6000803e3d6000fd5b505050506040513d601f19601f820116820180604052508101906102949190614806565b60606000612c3b83613a3d565b9050600080856001600160a01b031683604051612c58919061496b565b600060405180830381855af49150503d8060008114612c93576040519150601f19603f3d011682016040523d82523d6000602084013e612c98565b606091505b5091509150612ca78282613acc565b9695505050505050565b60006602ed57011e0000601f1936013581161480612ce2576040516373bb264f60e11b815260040160405180910390fd5b60003660291115612d0657604051632bcb7bc560e11b815260040160405180910390fd5b5060281936013560006009612d21600362ffffff8516614457565b612d2b9190614457565b905036612d39600283614457565b1115612d585760405163c30a7bd760e01b815260040160405180910390fd5b9392505050565b600080612d6d602084614457565b905036811115612d9057604051632bcb7bc560e11b815260040160405180910390fd5b36033592915050565b6000806000612da784613b49565b9092509050604e612db9826020614457565b612dc39084614987565b612dcd9190614457565b949350505050565b600080612de183612edc565b6040516370a0823160e01b81523060048201529091506001600160a01b038216906370a0823190602401602060405180830381865afa158015612e28573d6000803e3d6000fd5b505050506040513d601f19601f82011682018060405250810190612d589190614428565b7f8d5bb42e0ac1496a2c326edc9c00758985246e6c2bb146d6c2f4a0d509e0960a600101546001600160a01b03163314612eda5760405162461bcd60e51b815260206004820152602960248201527f4469616d6f6e6453746f726167654c69623a204d75737420626520636f6e747260448201526830b1ba1037bbb732b960b91b60648201526084016104e4565b565b60006001600160a01b03821673c13546b97b9b1b15372368dc06529d7191081f5b03612f1d575073231d84c37b2c4b5a2e2fe325bb77daa65bf71d92919050565b6001600160a01b038216739fa6ab3d78984a69e712730a2227f20bcc8b5ad903612f5c575073720158c329e6558287c4539b0ed21742b0b73436919050565b6001600160a01b03821673fd2620c9cfcec7d152467633b3b0ca338d3d78cc03612f9b575073f9ae6d2d56f02304f72dcc61694ead0dc8db51f7919050565b604051635d19ce4760e01b815260040160405180910390fd5b6000818310612fc35781612d58565b5090919050565b60006001600160a01b03821673c13546b97b9b1b15372368dc06529d7191081f5b0361300a57506f2120a62fa3a3afa0ab20ac2fa6a0a4a760811b919050565b6001600160a01b038216739fa6ab3d78984a69e712730a2227f20bcc8b5ad90361304857506f2120a62facacafa0ab20ac2fa6a0a4a760811b919050565b6001600160a01b03821673fd2620c9cfcec7d152467633b3b0ca338d3d78cc03612f9b57506e2120a62fa9afa0ab20ac2fa6a0a4a760891b919050565b60006001600160a01b03821673c13546b97b9b1b15372368dc06529d7191081f5b036130b95750637f06bf4360e01b919050565b6001600160a01b038216739fa6ab3d78984a69e712730a2227f20bcc8b5ad9036130eb5750633bad13b760e11b919050565b6001600160a01b03821673fd2620c9cfcec7d152467633b3b0ca338d3d78cc03612f9b5750635b69156760e01b919050565b7f8d5bb42e0ac1496a2c326edc9c00758985246e6c2bb146d6c2f4a0d509e096116000805b82548110156131945783604001518382815481106131625761316261469e565b906000526020600020906004020160020154036131825760019150613194565b8061318c8161447d565b915050613142565b508061321d578154600180820184556000848152602090819020865160049094020180546001600160a01b0319166001600160a01b039094169390931783558501519082015560408401516002820155606084015160039091018054608086015160e093841c67ffffffffffffffff19909216919091176401000000009190931c029190911790555b505050565b7f8d5bb42e0ac1496a2c326edc9c00758985246e6c2bb146d6c2f4a0d509e0960a61321d7f8d5bb42e0ac1496a2c326edc9c00758985246e6c2bb146d6c2f4a0d509e0960e83613ba0565b60006132b06132826305ce239560e41b612ba3565b6040805160048152602481019091526020810180516001600160e01b03166305ce239560e41b179052612c2e565b806020019051810190610333919061450b565b8160000361330c5760405162461bcd60e51b815260206004820152601660248201527553796d626f6c2063616e6e6f7420626520656d70747960501b60448201526064016104e4565b6001600160a01b0381166133585760405162461bcd60e51b8152602060048201526013602482015272496e76616c696420416464726573735a65726f60681b60448201526064016104e4565b7f8d5bb42e0ac1496a2c326edc9c00758985246e6c2bb146d6c2f4a0d509e0960a6133a47f8d5bb42e0ac1496a2c326edc9c00758985246e6c2bb146d6c2f4a0d509e0960e8484613bac565b50505050565b7f8d5bb42e0ac1496a2c326edc9c00758985246e6c2bb146d6c2f4a0d509e0961160005b815481101561321d57828282815481106133ea576133ea61469e565b9060005260206000209060040201600201540361352557815482906134119060019061446a565b815481106134215761342161469e565b90600052602060002090600402018282815481106134415761344161469e565b60009182526020909120825460049092020180546001600160a01b0319166001600160a01b0390921691909117815560018083015490820155600280830154908201556003918201805492909101805463ffffffff93841663ffffffff1982168117835592546401000000009081900490941690930267ffffffffffffffff1990931690911791909117905581548290806134de576134de61499e565b60008281526020812060046000199093019283020180546001600160a01b0319168155600181018290556002810191909155600301805467ffffffffffffffff1916905590555b8061352f8161447d565b9150506133ce565b60606001600160a01b03821673c13546b97b9b1b15372368dc06529d7191081f5b036135fc57604080516003808252608082019092526000916020820160608036833701905050905063082ac82b60e31b8160008151811061359b5761359b61469e565b602002602001018181525050650cece82ac82b60d31b816001815181106135c4576135c461469e565b602002602001018181525050635553444360e01b816002815181106135eb576135eb61469e565b602090810291909101015292915050565b6001600160a01b038216739fa6ab3d78984a69e712730a2227f20bcc8b5ad90361368757604080516003808252608082019092526000916020820160608036833701905050905063082ac82b60e31b8160008151811061365e5761365e61469e565b602002602001018181525050650f2f282ac82b60d31b816001815181106135c4576135c461469e565b6001600160a01b03821673fd2620c9cfcec7d152467633b3b0ca338d3d78cc0361371157604080516003808252608082019092526000916020820160608036833701905050905063082ac82b60e31b816000815181106136e9576136e961469e565b602002602001018181525050640e682ac82b60db1b816001815181106135c4576135c461469e565b604051631fbc092b60e21b815260040160405180910390fd5b604080516001600160a01b038481166024830152604480830185905283518084039091018152606490920183526020820180516001600160e01b031663095ea7b360e01b1790529151600092839290871691613786919061496b565b6000604051808303816000865af19150503d80600081146137c3576040519150601f19603f3d011682016040523d82523d6000602084013e6137c8565b606091505b50915091508180156137f25750805115806137f25750808060200190518101906137f2919061450b565b6138525760405162461bcd60e51b815260206004820152602b60248201527f5472616e7366657248656c7065723a3a73616665417070726f76653a2061707060448201526a1c9bdd994819985a5b195960aa1b60648201526084016104e4565b5050505050565b825160405163f6c0092760e01b815260609173ba12222222228d8ba445958a75a0704d566bf2c891600091839163f6c009279161389c9160040190815260200190565b6040805180830381865afa1580156138b8573d6000803e3d6000fd5b505050506040513d601f19601f820116820180604052508101906138dc91906144cd565b50905083851461391a57600186604001518760600151604051602001613904939291906149b4565b6040516020818303038152906040529250613a34565b600061392760018661446a565b6001600160401b0381111561393e5761393e613dcd565b604051908082528060200260200182016040528015613967578160200160208202803683370190505b5090506000805b87811015613a0557836001600160a01b0316896020015182815181106139965761399661469e565b60200260200101516001600160a01b0316146139f357886040015181815181106139c2576139c261469e565b60200260200101518383815181106139dc576139dc61469e565b60209081029190910101526139f08261447d565b91505b806139fd8161447d565b91505061396e565b506001828960600151604051602001613a20939291906149b4565b604051602081830303815290604052945050505b50509392505050565b80516060906000613a4c613bc2565b90506000613a5a8284614457565b905036821115613a7d57604051632bcb7bc560e11b815260040160405180910390fd5b6060604051905081815285602001848101826020015b81831015613aab578251815260209283019201613a93565b50505082833603856020018301379190920181016020016040529392505050565b606082613b43578151600003613af557604051632b3ff13d60e11b815260040160405180910390fd5b602082015162461bcd60e51b148015613b28576040516301efd04f60e31b815260448401906104e49082906004016149e0565b8260405163fd36fde360e01b81526004016104e491906149e0565b50919050565b600080808080613b5a604187614457565b90506000613b73613b6c602084614457565b3690613c2d565b803594509050613b84816003613c2d565b62ffffff9490941697933563ffffffff16965092945050505050565b6000612d588383613c39565b6000612dcd84846001600160a01b038516613c56565b600080613bcd612cb1565b90506000613bda82612d5f565b61ffff169050613beb600283614457565b915060005b81811015613c25576000613c0384612d99565b9050613c0f8185614457565b9350508080613c1d9061447d565b915050613bf0565b509092915050565b6000612d58828461446a565b60008181526002830160205260408120819055612d588383613c73565b60008281526002840160205260408120829055612dcd8484613c7f565b6000612d588383613c8b565b6000612d588383613d7e565b60008181526001830160205260408120548015613d74576000613caf60018361446a565b8554909150600090613cc39060019061446a565b9050818114613d28576000866000018281548110613ce357613ce361469e565b9060005260206000200154905080876000018481548110613d0657613d0661469e565b6000918252602080832090910192909255918252600188019052604090208390555b8554869080613d3957613d3961499e565b600190038181906000526020600020016000905590558560010160008681526020019081526020016000206000905560019350505050610294565b6000915050610294565b6000818152600183016020526040812054613dc557508154600181810184556000848152602080822090930184905584548482528286019093526040902091909155610294565b506000610294565b634e487b7160e01b600052604160045260246000fd5b604080519081016001600160401b0381118282101715613e0557613e05613dcd565b60405290565b604051608081016001600160401b0381118282101715613e0557613e05613dcd565b604051601f8201601f191681016001600160401b0381118282101715613e5557613e55613dcd565b604052919050565b60006001600160401b03821115613e7657613e76613dcd565b5060051b60200190565b60006020808385031215613e9357600080fd5b82356001600160401b03811115613ea957600080fd5b8301601f81018513613eba57600080fd5b8035613ecd613ec882613e5d565b613e2d565b81815260059190911b82018301908381019087831115613eec57600080fd5b928401925b82841015613f0a57833582529284019290840190613ef1565b979650505050505050565b600081518084526020808501945080840160005b83811015613f4557815187529582019590820190600101613f29565b509495945050505050565b602081526000612d586020830184613f15565b600060208284031215613f7557600080fd5b5035919050565b60008060408385031215613f8f57600080fd5b50508035926020909101359150565b600082601f830112613faf57600080fd5b81356020613fbf613ec883613e5d565b82815260069290921b84018101918181019086841115613fde57600080fd5b8286015b8481101561401d5760408189031215613ffb5760008081fd5b614003613de3565b813581528482013585820152835291830191604001613fe2565b509695505050505050565b60006020828403121561403a57600080fd5b81356001600160401b038082111561405157600080fd5b908301906080828603121561406557600080fd5b61406d613e0b565b82358281111561407c57600080fd5b61408887828601613f9e565b82525060208301358281111561409d57600080fd5b6140a987828601613f9e565b6020830152506040830135828111156140c157600080fd5b6140cd87828601613f9e565b6040830152506060830135828111156140e557600080fd5b6140f187828601613f9e565b60608301525095945050505050565b6001600160a01b038116811461049157600080fd5b60006080828403121561412757600080fd5b604051608081018181106001600160401b038211171561414957614149613dcd565b60405282358152602083013561415e81614100565b6020820152604083810135908201526060928301359281019290925250919050565b600082601f83011261419157600080fd5b813560206141a1613ec883613e5d565b82815260059290921b840181019181810190868411156141c057600080fd5b8286015b8481101561401d57803583529183019183016141c4565b600060208083850312156141ee57600080fd5b82356001600160401b038082111561420557600080fd5b908401906080828703121561421957600080fd5b614221613e0b565b82358152838301358281111561423657600080fd5b8301601f8101881361424757600080fd5b8035614255613ec882613e5d565b81815260059190911b8201860190868101908a83111561427457600080fd5b928701925b8284101561429b57833561428c81614100565b82529287019290870190614279565b80888601525050505060408301359350818411156142b857600080fd5b6142c487858501614180565b6040820152606083013560608201528094505050505092915050565b600081518084526020808501945080840160005b83811015613f455781518051885283015183880152604090960195908201906001016142f4565b60208152600082516080602084015261433760a08401826142e0565b90506020840151601f198085840301604086015261435583836142e0565b9250604086015191508085840301606086015261437283836142e0565b925060608601519150808584030160808601525061439082826142e0565b95945050505050565b600082601f8301126143aa57600080fd5b815160206143ba613ec883613e5d565b82815260059290921b840181019181810190868411156143d957600080fd5b8286015b8481101561401d57805183529183019183016143dd565b60006020828403121561440657600080fd5b81516001600160401b0381111561441c57600080fd5b612dcd84828501614399565b60006020828403121561443a57600080fd5b5051919050565b634e487b7160e01b600052601160045260246000fd5b8082018082111561029457610294614441565b8181038181111561029457610294614441565b60006001820161448f5761448f614441565b5060010190565b6020808252601f908201527f5265656e7472616e637947756172643a207265656e7472616e742063616c6c00604082015260600190565b600080604083850312156144e057600080fd5b82516144eb81614100565b60208401519092506003811061450057600080fd5b809150509250929050565b60006020828403121561451d57600080fd5b81518015158114612d5857600080fd5b60208082526033908201527f54686520616374696f6e206d617920636175736520616e206163636f756e74206040820152721d1bc8189958dbdb59481a5b9cdbdb1d995b9d606a1b606082015260800190565b60208082526031908201527f4f6e6c792077686974656c6973746564206163636f756e74732063616e207065604082015270393337b936903a3434b99030b1ba34b7b760791b606082015260800190565b6000806000606084860312156145e657600080fd5b83516001600160401b03808211156145fd57600080fd5b818601915086601f83011261461157600080fd5b81516020614621613ec883613e5d565b82815260059290921b8401810191818101908a84111561464057600080fd5b948201945b8386101561466757855161465881614100565b82529482019490820190614645565b9189015191975090935050508082111561468057600080fd5b5061468d86828701614399565b925050604084015190509250925092565b634e487b7160e01b600052603260045260246000fd5b60005b838110156146cf5781810151838201526020016146b7565b50506000910152565b600081518084526146f08160208601602086016146b4565b601f01601f19169290920160200192915050565b8051608080845281519084018190526000916020919082019060a0860190845b818110156147495783516001600160a01b031683529284019291840191600101614724565b5050828501519150858103838701526147628183613f15565b925050506040830151848203604086015261477d82826146d8565b9150506060830151614793606086018215159052565b509392505050565b8481526001600160a01b03848116602083015283166040820152608060608201819052600090612ca790830184614704565b6080815260006147e06080830187613f15565b82810360208401526147f28187613f15565b604084019590955250506060015292915050565b60006020828403121561481857600080fd5b8151612d5881614100565b600082601f83011261483457600080fd5b81516020614844613ec883613e5d565b82815260069290921b8401810191818101908684111561486357600080fd5b8286015b8481101561401d57604081890312156148805760008081fd5b614888613de3565b815181528482015185820152835291830191604001614867565b6000602082840312156148b457600080fd5b81516001600160401b03808211156148cb57600080fd5b90830190608082860312156148df57600080fd5b6148e7613e0b565b8251828111156148f657600080fd5b61490287828601614823565b82525060208301518281111561491757600080fd5b61492387828601614823565b60208301525060408301518281111561493b57600080fd5b61494787828601614823565b60408301525060608301518281111561495f57600080fd5b6140f187828601614823565b6000825161497d8184602087016146b4565b9190910192915050565b808202811582820484141761029457610294614441565b634e487b7160e01b600052603160045260246000fd5b60ff841681526060602082015260006149d06060830185613f15565b9050826040830152949350505050565b602081526000612d5860208301846146d856fe1c85eba10a4cf2d29c83fc15f97931886b9fd3caeb70d8c377aeedc58b919e3ba2646970667358221220876c363ede1cea299eb24be721a0aeac63ab21c3182683ce25896bb5aae7ac2d64736f6c63430008110033",
    "sourcePath": "/Volumes/Work/DeltaPrime/deltaprime-primeloans/contracts/facets/avalanche/BalancerV2Facet.sol",
    "compiler": {
        "name": "solc",
        "version": "0.8.17+commit.8df45f5f"
    },
    "functionHashes": {
        "_getAllPricesForLiquidation(bytes32[])": "b2d40e73",
        "_getHealthRatio()": "39e2719e",
        "_getHealthRatioWithPrices(((bytes32,uint256)[],(bytes32,uint256)[],(bytes32,uint256)[],(bytes32,uint256)[]))": "6e3bfe9f",
        "_resetPrimeAccountAssetsExposure()": "5b4fad9c",
        "_setPrimeAccountAssetsExposure()": "f8f18553",
        "balancerGgAvaxBalance()": "7f06bf43",
        "balancerSAvaxBalance()": "5b691567",
        "balancerYyAvaxBalance()": "775a276e",
        "claimRewardsBalancerV2(bytes32)": "8246ac7e",
        "extractTimestampsAndAssertAllAreEqual()": "55a547d5",
        "getPrice(bytes32)": "31d98b3f",
        "getPrices(bytes32[])": "26ee4836",
        "joinPoolAndStakeBalancerV2((bytes32,address[],uint256[],uint256))": "9475d2ce",
        "stakeBalancerV2(bytes32,uint256)": "6b5e3fa9",
        "unstakeAndExitPoolBalancerV2((bytes32,address,uint256,uint256))": "74825eab",
        "unstakeBalancerV2(bytes32,uint256)": "7ab823eb"
    },
    "gasEstimates": {
        "creation": {
            "codeDepositCost": "3803400",
            "executionCost": "26418",
            "totalCost": "3829818"
        },
        "external": {
            "_getAllPricesForLiquidation(bytes32[])": "infinite",
            "_getHealthRatio()": "infinite",
            "_getHealthRatioWithPrices(((bytes32,uint256)[],(bytes32,uint256)[],(bytes32,uint256)[],(bytes32,uint256)[]))": "infinite",
            "_resetPrimeAccountAssetsExposure()": "infinite",
            "_setPrimeAccountAssetsExposure()": "infinite",
            "balancerGgAvaxBalance()": "infinite",
            "balancerSAvaxBalance()": "infinite",
            "balancerYyAvaxBalance()": "infinite",
            "claimRewardsBalancerV2(bytes32)": "infinite",
            "extractTimestampsAndAssertAllAreEqual()": "infinite",
            "getPrice(bytes32)": "infinite",
            "getPrices(bytes32[])": "infinite",
            "joinPoolAndStakeBalancerV2((bytes32,address[],uint256[],uint256))": "infinite",
            "stakeBalancerV2(bytes32,uint256)": "infinite",
            "unstakeAndExitPoolBalancerV2((bytes32,address,uint256,uint256))": "infinite",
            "unstakeBalancerV2(bytes32,uint256)": "infinite"
        },
        "internal": {
            "_calcUserData(struct IBalancerV2Facet.StakeRequest memory,uint256,uint256)": "infinite",
            "gaugeBalance(address)": "infinite",
            "poolToBalanceSelector(address)": "infinite",
            "poolToGauge(address)": "infinite",
            "poolToIdentifier(address)": "infinite",
            "rewardTokens(address)": "infinite"
        }
    }
}