{
  "address": "0xF9a12a4759500Df05983fD3EBd7F8A8F262A2967",
  "abi": [
    {
      "inputs": [],
      "stateMutability": "nonpayable",
      "type": "constructor"
    },
    {
      "anonymous": false,
      "inputs": [
        {
          "indexed": true,
          "internalType": "address",
          "name": "owner",
          "type": "address"
        },
        {
          "indexed": true,
          "internalType": "address",
          "name": "approved",
          "type": "address"
        },
        {
          "indexed": true,
          "internalType": "uint256",
          "name": "tokenId",
          "type": "uint256"
        }
      ],
      "name": "Approval",
      "type": "event"
    },
    {
      "anonymous": false,
      "inputs": [
        {
          "indexed": true,
          "internalType": "address",
          "name": "owner",
          "type": "address"
        },
        {
          "indexed": true,
          "internalType": "address",
          "name": "operator",
          "type": "address"
        },
        {
          "indexed": false,
          "internalType": "bool",
          "name": "approved",
          "type": "bool"
        }
      ],
      "name": "ApprovalForAll",
      "type": "event"
    },
    {
      "anonymous": false,
      "inputs": [
        {
          "indexed": true,
          "internalType": "address",
          "name": "previousOwner",
          "type": "address"
        },
        {
          "indexed": true,
          "internalType": "address",
          "name": "newOwner",
          "type": "address"
        }
      ],
      "name": "OwnershipTransferred",
      "type": "event"
    },
    {
      "anonymous": false,
      "inputs": [
        {
          "indexed": true,
          "internalType": "address",
          "name": "from",
          "type": "address"
        },
        {
          "indexed": true,
          "internalType": "address",
          "name": "to",
          "type": "address"
        },
        {
          "indexed": true,
          "internalType": "uint256",
          "name": "tokenId",
          "type": "uint256"
        }
      ],
      "name": "Transfer",
      "type": "event"
    },
    {
      "inputs": [],
      "name": "_tokenIdCounter",
      "outputs": [
        {
          "internalType": "uint256",
          "name": "_value",
          "type": "uint256"
        }
      ],
      "stateMutability": "view",
      "type": "function"
    },
    {
      "inputs": [
        {
          "internalType": "address",
          "name": "to",
          "type": "address"
        },
        {
          "internalType": "uint256",
          "name": "tokenId",
          "type": "uint256"
        }
      ],
      "name": "approve",
      "outputs": [],
      "stateMutability": "nonpayable",
      "type": "function"
    },
    {
      "inputs": [
        {
          "internalType": "address",
          "name": "owner",
          "type": "address"
        }
      ],
      "name": "balanceOf",
      "outputs": [
        {
          "internalType": "uint256",
          "name": "",
          "type": "uint256"
        }
      ],
      "stateMutability": "view",
      "type": "function"
    },
    {
      "inputs": [
        {
          "internalType": "uint256",
          "name": "tokenId",
          "type": "uint256"
        }
      ],
      "name": "getApproved",
      "outputs": [
        {
          "internalType": "address",
          "name": "",
          "type": "address"
        }
      ],
      "stateMutability": "view",
      "type": "function"
    },
    {
      "inputs": [
        {
          "internalType": "address",
          "name": "owner",
          "type": "address"
        },
        {
          "internalType": "address",
          "name": "operator",
          "type": "address"
        }
      ],
      "name": "isApprovedForAll",
      "outputs": [
        {
          "internalType": "bool",
          "name": "",
          "type": "bool"
        }
      ],
      "stateMutability": "view",
      "type": "function"
    },
    {
      "inputs": [],
      "name": "name",
      "outputs": [
        {
          "internalType": "string",
          "name": "",
          "type": "string"
        }
      ],
      "stateMutability": "view",
      "type": "function"
    },
    {
      "inputs": [],
      "name": "owner",
      "outputs": [
        {
          "internalType": "address",
          "name": "",
          "type": "address"
        }
      ],
      "stateMutability": "view",
      "type": "function"
    },
    {
      "inputs": [
        {
          "internalType": "uint256",
          "name": "tokenId",
          "type": "uint256"
        }
      ],
      "name": "ownerOf",
      "outputs": [
        {
          "internalType": "address",
          "name": "",
          "type": "address"
        }
      ],
      "stateMutability": "view",
      "type": "function"
    },
    {
      "inputs": [],
      "name": "renounceOwnership",
      "outputs": [],
      "stateMutability": "nonpayable",
      "type": "function"
    },
    {
      "inputs": [
        {
          "internalType": "address",
          "name": "to",
          "type": "address"
        },
        {
          "internalType": "string",
          "name": "uri",
          "type": "string"
        }
      ],
      "name": "safeMint",
      "outputs": [],
      "stateMutability": "nonpayable",
      "type": "function"
    },
    {
      "inputs": [
        {
          "internalType": "address",
          "name": "from",
          "type": "address"
        },
        {
          "internalType": "address",
          "name": "to",
          "type": "address"
        },
        {
          "internalType": "uint256",
          "name": "tokenId",
          "type": "uint256"
        }
      ],
      "name": "safeTransferFrom",
      "outputs": [],
      "stateMutability": "nonpayable",
      "type": "function"
    },
    {
      "inputs": [
        {
          "internalType": "address",
          "name": "from",
          "type": "address"
        },
        {
          "internalType": "address",
          "name": "to",
          "type": "address"
        },
        {
          "internalType": "uint256",
          "name": "tokenId",
          "type": "uint256"
        },
        {
          "internalType": "bytes",
          "name": "_data",
          "type": "bytes"
        }
      ],
      "name": "safeTransferFrom",
      "outputs": [],
      "stateMutability": "nonpayable",
      "type": "function"
    },
    {
      "inputs": [
        {
          "internalType": "address",
          "name": "operator",
          "type": "address"
        },
        {
          "internalType": "bool",
          "name": "approved",
          "type": "bool"
        }
      ],
      "name": "setApprovalForAll",
      "outputs": [],
      "stateMutability": "nonpayable",
      "type": "function"
    },
    {
      "inputs": [
        {
          "internalType": "bytes4",
          "name": "interfaceId",
          "type": "bytes4"
        }
      ],
      "name": "supportsInterface",
      "outputs": [
        {
          "internalType": "bool",
          "name": "",
          "type": "bool"
        }
      ],
      "stateMutability": "view",
      "type": "function"
    },
    {
      "inputs": [],
      "name": "symbol",
      "outputs": [
        {
          "internalType": "string",
          "name": "",
          "type": "string"
        }
      ],
      "stateMutability": "view",
      "type": "function"
    },
    {
      "inputs": [
        {
          "internalType": "uint256",
          "name": "index",
          "type": "uint256"
        }
      ],
      "name": "tokenByIndex",
      "outputs": [
        {
          "internalType": "uint256",
          "name": "",
          "type": "uint256"
        }
      ],
      "stateMutability": "view",
      "type": "function"
    },
    {
      "inputs": [
        {
          "internalType": "address",
          "name": "owner",
          "type": "address"
        },
        {
          "internalType": "uint256",
          "name": "index",
          "type": "uint256"
        }
      ],
      "name": "tokenOfOwnerByIndex",
      "outputs": [
        {
          "internalType": "uint256",
          "name": "",
          "type": "uint256"
        }
      ],
      "stateMutability": "view",
      "type": "function"
    },
    {
      "inputs": [
        {
          "internalType": "uint256",
          "name": "tokenId",
          "type": "uint256"
        }
      ],
      "name": "tokenURI",
      "outputs": [
        {
          "internalType": "string",
          "name": "",
          "type": "string"
        }
      ],
      "stateMutability": "view",
      "type": "function"
    },
    {
      "inputs": [],
      "name": "totalSupply",
      "outputs": [
        {
          "internalType": "uint256",
          "name": "",
          "type": "uint256"
        }
      ],
      "stateMutability": "view",
      "type": "function"
    },
    {
      "inputs": [
        {
          "internalType": "address",
          "name": "from",
          "type": "address"
        },
        {
          "internalType": "address",
          "name": "to",
          "type": "address"
        },
        {
          "internalType": "uint256",
          "name": "tokenId",
          "type": "uint256"
        }
      ],
      "name": "transferFrom",
      "outputs": [],
      "stateMutability": "nonpayable",
      "type": "function"
    },
    {
      "inputs": [
        {
          "internalType": "address",
          "name": "newOwner",
          "type": "address"
        }
      ],
      "name": "transferOwnership",
      "outputs": [],
      "stateMutability": "nonpayable",
      "type": "function"
    }
  ],
  "transactionHash": "0x47b91982b9f78323a1f705223103912b8aee66851c67d14dddf3cc78e04bd557",
  "args": [],
  "numDeployments": 1,
  "solcInputHash": "34914f163446978540b9b21102aefd31",
  "bytecode": "0x60806040523480156200001157600080fd5b506040518060400160405280601481526020017f576f6c66206f6620446546692057696e6e6572730000000000000000000000008152506040518060400160405280600781526020017f44502d574f445700000000000000000000000000000000000000000000000000815250816000908051906020019062000096929190620001a6565b508060019080519060200190620000af929190620001a6565b505050620000d2620000c6620000d860201b60201c565b620000e060201b60201c565b620002bb565b600033905090565b6000600b60009054906101000a900473ffffffffffffffffffffffffffffffffffffffff16905081600b60006101000a81548173ffffffffffffffffffffffffffffffffffffffff021916908373ffffffffffffffffffffffffffffffffffffffff1602179055508173ffffffffffffffffffffffffffffffffffffffff168173ffffffffffffffffffffffffffffffffffffffff167f8be0079c531659141344cd1fd0a4f28419497f9722a3daafe3b4186f6b6457e060405160405180910390a35050565b828054620001b49062000256565b90600052602060002090601f016020900481019282620001d8576000855562000224565b82601f10620001f357805160ff191683800117855562000224565b8280016001018555821562000224579182015b828111156200022357825182559160200191906001019062000206565b5b50905062000233919062000237565b5090565b5b808211156200025257600081600090555060010162000238565b5090565b600060028204905060018216806200026f57607f821691505b602082108114156200028657620002856200028c565b5b50919050565b7f4e487b7100000000000000000000000000000000000000000000000000000000600052602260045260246000fd5b6138c280620002cb6000396000f3fe608060405234801561001057600080fd5b50600436106101375760003560e01c806370a08231116100b8578063a22cb4651161007c578063a22cb46514610350578063b88d4fde1461036c578063c87b56dd14610388578063d204c45e146103b8578063e985e9c5146103d4578063f2fde38b1461040457610137565b806370a08231146102bc578063715018a6146102ec57806384c4bd4b146102f65780638da5cb5b1461031457806395d89b411461033257610137565b806323b872dd116100ff57806323b872dd146101f45780632f745c591461021057806342842e0e146102405780634f6ccce71461025c5780636352211e1461028c57610137565b806301ffc9a71461013c57806306fdde031461016c578063081812fc1461018a578063095ea7b3146101ba57806318160ddd146101d6575b600080fd5b6101566004803603810190610151919061274d565b610420565b6040516101639190612bdf565b60405180910390f35b610174610432565b6040516101819190612bfa565b60405180910390f35b6101a4600480360381019061019f919061279f565b6104c4565b6040516101b19190612b78565b60405180910390f35b6101d460048036038101906101cf9190612711565b610549565b005b6101de610661565b6040516101eb9190612e9c565b60405180910390f35b61020e600480360381019061020991906125b7565b61066e565b005b61022a60048036038101906102259190612711565b6106ce565b6040516102379190612e9c565b60405180910390f35b61025a600480360381019061025591906125b7565b610773565b005b6102766004803603810190610271919061279f565b610793565b6040516102839190612e9c565b60405180910390f35b6102a660048036038101906102a1919061279f565b61082a565b6040516102b39190612b78565b60405180910390f35b6102d660048036038101906102d19190612552565b6108dc565b6040516102e39190612e9c565b60405180910390f35b6102f4610994565b005b6102fe610a1c565b60405161030b9190612e9c565b60405180910390f35b61031c610a28565b6040516103299190612b78565b60405180910390f35b61033a610a52565b6040516103479190612bfa565b60405180910390f35b61036a60048036038101906103659190612681565b610ae4565b005b61038660048036038101906103819190612606565b610afa565b005b6103a2600480360381019061039d919061279f565b610b5c565b6040516103af9190612bfa565b60405180910390f35b6103d260048036038101906103cd91906126bd565b610b6e565b005b6103ee60048036038101906103e9919061257b565b610c1b565b6040516103fb9190612bdf565b60405180910390f35b61041e60048036038101906104199190612552565b610caf565b005b600061042b82610da7565b9050919050565b606060008054610441906130f2565b80601f016020809104026020016040519081016040528092919081815260200182805461046d906130f2565b80156104ba5780601f1061048f576101008083540402835291602001916104ba565b820191906000526020600020905b81548152906001019060200180831161049d57829003601f168201915b5050505050905090565b60006104cf82610e21565b61050e576040517f08c379a000000000000000000000000000000000000000000000000000000000815260040161050590612ddc565b60405180910390fd5b6004600083815260200190815260200160002060009054906101000a900473ffffffffffffffffffffffffffffffffffffffff169050919050565b60006105548261082a565b90508073ffffffffffffffffffffffffffffffffffffffff168373ffffffffffffffffffffffffffffffffffffffff1614156105c5576040517f08c379a00000000000000000000000000000000000000000000000000000000081526004016105bc90612e3c565b60405180910390fd5b8073ffffffffffffffffffffffffffffffffffffffff166105e4610e8d565b73ffffffffffffffffffffffffffffffffffffffff16148061061357506106128161060d610e8d565b610c1b565b5b610652576040517f08c379a000000000000000000000000000000000000000000000000000000000815260040161064990612d1c565b60405180910390fd5b61065c8383610e95565b505050565b6000600880549050905090565b61067f610679610e8d565b82610f4e565b6106be576040517f08c379a00000000000000000000000000000000000000000000000000000000081526004016106b590612e5c565b60405180910390fd5b6106c983838361102c565b505050565b60006106d9836108dc565b821061071a576040517f08c379a000000000000000000000000000000000000000000000000000000000815260040161071190612c1c565b60405180910390fd5b600660008473ffffffffffffffffffffffffffffffffffffffff1673ffffffffffffffffffffffffffffffffffffffff168152602001908152602001600020600083815260200190815260200160002054905092915050565b61078e83838360405180602001604052806000815250610afa565b505050565b600061079d610661565b82106107de576040517f08c379a00000000000000000000000000000000000000000000000000000000081526004016107d590612e7c565b60405180910390fd5b60088281548110610818577f4e487b7100000000000000000000000000000000000000000000000000000000600052603260045260246000fd5b90600052602060002001549050919050565b6000806002600084815260200190815260200160002060009054906101000a900473ffffffffffffffffffffffffffffffffffffffff169050600073ffffffffffffffffffffffffffffffffffffffff168173ffffffffffffffffffffffffffffffffffffffff1614156108d3576040517f08c379a00000000000000000000000000000000000000000000000000000000081526004016108ca90612d5c565b60405180910390fd5b80915050919050565b60008073ffffffffffffffffffffffffffffffffffffffff168273ffffffffffffffffffffffffffffffffffffffff16141561094d576040517f08c379a000000000000000000000000000000000000000000000000000000000815260040161094490612d3c565b60405180910390fd5b600360008373ffffffffffffffffffffffffffffffffffffffff1673ffffffffffffffffffffffffffffffffffffffff168152602001908152602001600020549050919050565b61099c610e8d565b73ffffffffffffffffffffffffffffffffffffffff166109ba610a28565b73ffffffffffffffffffffffffffffffffffffffff1614610a10576040517f08c379a0000000000000000000000000000000000000000000000000000000008152600401610a0790612dfc565b60405180910390fd5b610a1a6000611293565b565b600c8060000154905081565b6000600b60009054906101000a900473ffffffffffffffffffffffffffffffffffffffff16905090565b606060018054610a61906130f2565b80601f0160208091040260200160405190810160405280929190818152602001828054610a8d906130f2565b8015610ada5780601f10610aaf57610100808354040283529160200191610ada565b820191906000526020600020905b815481529060010190602001808311610abd57829003601f168201915b5050505050905090565b610af6610aef610e8d565b8383611359565b5050565b610b0b610b05610e8d565b83610f4e565b610b4a576040517f08c379a0000000000000000000000000000000000000000000000000000000008152600401610b4190612e5c565b60405180910390fd5b610b56848484846114c6565b50505050565b6060610b6782611522565b9050919050565b610b76610e8d565b73ffffffffffffffffffffffffffffffffffffffff16610b94610a28565b73ffffffffffffffffffffffffffffffffffffffff1614610bea576040517f08c379a0000000000000000000000000000000000000000000000000000000008152600401610be190612dfc565b60405180910390fd5b6000610bf6600c611674565b9050610c02600c611682565b610c0c8382611698565b610c1681836116b6565b505050565b6000600560008473ffffffffffffffffffffffffffffffffffffffff1673ffffffffffffffffffffffffffffffffffffffff16815260200190815260200160002060008373ffffffffffffffffffffffffffffffffffffffff1673ffffffffffffffffffffffffffffffffffffffff16815260200190815260200160002060009054906101000a900460ff16905092915050565b610cb7610e8d565b73ffffffffffffffffffffffffffffffffffffffff16610cd5610a28565b73ffffffffffffffffffffffffffffffffffffffff1614610d2b576040517f08c379a0000000000000000000000000000000000000000000000000000000008152600401610d2290612dfc565b60405180910390fd5b600073ffffffffffffffffffffffffffffffffffffffff168173ffffffffffffffffffffffffffffffffffffffff161415610d9b576040517f08c379a0000000000000000000000000000000000000000000000000000000008152600401610d9290612c5c565b60405180910390fd5b610da481611293565b50565b60007f780e9d63000000000000000000000000000000000000000000000000000000007bffffffffffffffffffffffffffffffffffffffffffffffffffffffff1916827bffffffffffffffffffffffffffffffffffffffffffffffffffffffff19161480610e1a5750610e198261172a565b5b9050919050565b60008073ffffffffffffffffffffffffffffffffffffffff166002600084815260200190815260200160002060009054906101000a900473ffffffffffffffffffffffffffffffffffffffff1673ffffffffffffffffffffffffffffffffffffffff1614159050919050565b600033905090565b816004600083815260200190815260200160002060006101000a81548173ffffffffffffffffffffffffffffffffffffffff021916908373ffffffffffffffffffffffffffffffffffffffff160217905550808273ffffffffffffffffffffffffffffffffffffffff16610f088361082a565b73ffffffffffffffffffffffffffffffffffffffff167f8c5be1e5ebec7d5bd14f71427d1e84f3dd0314c0f7b2291e5b200ac8c7c3b92560405160405180910390a45050565b6000610f5982610e21565b610f98576040517f08c379a0000000000000000000000000000000000000000000000000000000008152600401610f8f90612cfc565b60405180910390fd5b6000610fa38361082a565b90508073ffffffffffffffffffffffffffffffffffffffff168473ffffffffffffffffffffffffffffffffffffffff16148061101257508373ffffffffffffffffffffffffffffffffffffffff16610ffa846104c4565b73ffffffffffffffffffffffffffffffffffffffff16145b8061102357506110228185610c1b565b5b91505092915050565b8273ffffffffffffffffffffffffffffffffffffffff1661104c8261082a565b73ffffffffffffffffffffffffffffffffffffffff16146110a2576040517f08c379a000000000000000000000000000000000000000000000000000000000815260040161109990612c7c565b60405180910390fd5b600073ffffffffffffffffffffffffffffffffffffffff168273ffffffffffffffffffffffffffffffffffffffff161415611112576040517f08c379a000000000000000000000000000000000000000000000000000000000815260040161110990612cbc565b60405180910390fd5b61111d83838361180c565b611128600082610e95565b6001600360008573ffffffffffffffffffffffffffffffffffffffff1673ffffffffffffffffffffffffffffffffffffffff16815260200190815260200160002060008282546111789190613008565b925050819055506001600360008473ffffffffffffffffffffffffffffffffffffffff1673ffffffffffffffffffffffffffffffffffffffff16815260200190815260200160002060008282546111cf9190612f81565b92505081905550816002600083815260200190815260200160002060006101000a81548173ffffffffffffffffffffffffffffffffffffffff021916908373ffffffffffffffffffffffffffffffffffffffff160217905550808273ffffffffffffffffffffffffffffffffffffffff168473ffffffffffffffffffffffffffffffffffffffff167fddf252ad1be2c89b69c2b068fc378daa952ba7f163c4a11628f55a4df523b3ef60405160405180910390a461128e83838361181c565b505050565b6000600b60009054906101000a900473ffffffffffffffffffffffffffffffffffffffff16905081600b60006101000a81548173ffffffffffffffffffffffffffffffffffffffff021916908373ffffffffffffffffffffffffffffffffffffffff1602179055508173ffffffffffffffffffffffffffffffffffffffff168173ffffffffffffffffffffffffffffffffffffffff167f8be0079c531659141344cd1fd0a4f28419497f9722a3daafe3b4186f6b6457e060405160405180910390a35050565b8173ffffffffffffffffffffffffffffffffffffffff168373ffffffffffffffffffffffffffffffffffffffff1614156113c8576040517f08c379a00000000000000000000000000000000000000000000000000000000081526004016113bf90612cdc565b60405180910390fd5b80600560008573ffffffffffffffffffffffffffffffffffffffff1673ffffffffffffffffffffffffffffffffffffffff16815260200190815260200160002060008473ffffffffffffffffffffffffffffffffffffffff1673ffffffffffffffffffffffffffffffffffffffff16815260200190815260200160002060006101000a81548160ff0219169083151502179055508173ffffffffffffffffffffffffffffffffffffffff168373ffffffffffffffffffffffffffffffffffffffff167f17307eab39ab6107e8899845ad3d59bd9653f200f220920489ca2b5937696c31836040516114b99190612bdf565b60405180910390a3505050565b6114d184848461102c565b6114dd84848484611821565b61151c576040517f08c379a000000000000000000000000000000000000000000000000000000000815260040161151390612c3c565b60405180910390fd5b50505050565b606061152d82610e21565b61156c576040517f08c379a000000000000000000000000000000000000000000000000000000000815260040161156390612dbc565b60405180910390fd5b6000600a6000848152602001908152602001600020805461158c906130f2565b80601f01602080910402602001604051908101604052809291908181526020018280546115b8906130f2565b80156116055780601f106115da57610100808354040283529160200191611605565b820191906000526020600020905b8154815290600101906020018083116115e857829003601f168201915b5050505050905060006116166119b8565b905060008151141561162c57819250505061166f565b600082511115611661578082604051602001611649929190612b54565b6040516020818303038152906040529250505061166f565b61166a846119cf565b925050505b919050565b600081600001549050919050565b6001816000016000828254019250508190555050565b6116b2828260405180602001604052806000815250611a76565b5050565b6116bf82610e21565b6116fe576040517f08c379a00000000000000000000000000000000000000000000000000000000081526004016116f590612d7c565b60405180910390fd5b80600a60008481526020019081526020016000209080519060200190611725929190612376565b505050565b60007f80ac58cd000000000000000000000000000000000000000000000000000000007bffffffffffffffffffffffffffffffffffffffffffffffffffffffff1916827bffffffffffffffffffffffffffffffffffffffffffffffffffffffff191614806117f557507f5b5e139f000000000000000000000000000000000000000000000000000000007bffffffffffffffffffffffffffffffffffffffffffffffffffffffff1916827bffffffffffffffffffffffffffffffffffffffffffffffffffffffff1916145b80611805575061180482611ad1565b5b9050919050565b611817838383611b3b565b505050565b505050565b60006118428473ffffffffffffffffffffffffffffffffffffffff16611c4f565b156119ab578373ffffffffffffffffffffffffffffffffffffffff1663150b7a0261186b610e8d565b8786866040518563ffffffff1660e01b815260040161188d9493929190612b93565b602060405180830381600087803b1580156118a757600080fd5b505af19250505080156118d857506040513d601f19601f820116820180604052508101906118d59190612776565b60015b61195b573d8060008114611908576040519150601f19603f3d011682016040523d82523d6000602084013e61190d565b606091505b50600081511415611953576040517f08c379a000000000000000000000000000000000000000000000000000000000815260040161194a90612c3c565b60405180910390fd5b805181602001fd5b63150b7a0260e01b7bffffffffffffffffffffffffffffffffffffffffffffffffffffffff1916817bffffffffffffffffffffffffffffffffffffffffffffffffffffffff1916149150506119b0565b600190505b949350505050565b606060405180602001604052806000815250905090565b60606119da82610e21565b611a19576040517f08c379a0000000000000000000000000000000000000000000000000000000008152600401611a1090612e1c565b60405180910390fd5b6000611a236119b8565b90506000815111611a435760405180602001604052806000815250611a6e565b80611a4d84611c72565b604051602001611a5e929190612b54565b6040516020818303038152906040525b915050919050565b611a808383611e1f565b611a8d6000848484611821565b611acc576040517f08c379a0000000000000000000000000000000000000000000000000000000008152600401611ac390612c3c565b60405180910390fd5b505050565b60007f01ffc9a7000000000000000000000000000000000000000000000000000000007bffffffffffffffffffffffffffffffffffffffffffffffffffffffff1916827bffffffffffffffffffffffffffffffffffffffffffffffffffffffff1916149050919050565b611b46838383611ff9565b600073ffffffffffffffffffffffffffffffffffffffff168373ffffffffffffffffffffffffffffffffffffffff161415611b8957611b8481611ffe565b611bc8565b8173ffffffffffffffffffffffffffffffffffffffff168373ffffffffffffffffffffffffffffffffffffffff1614611bc757611bc68382612047565b5b5b600073ffffffffffffffffffffffffffffffffffffffff168273ffffffffffffffffffffffffffffffffffffffff161415611c0b57611c06816121b4565b611c4a565b8273ffffffffffffffffffffffffffffffffffffffff168273ffffffffffffffffffffffffffffffffffffffff1614611c4957611c4882826122f7565b5b5b505050565b6000808273ffffffffffffffffffffffffffffffffffffffff163b119050919050565b60606000821415611cba576040518060400160405280600181526020017f30000000000000000000000000000000000000000000000000000000000000008152509050611e1a565b600082905060005b60008214611cec578080611cd590613155565b915050600a82611ce59190612fd7565b9150611cc2565b60008167ffffffffffffffff811115611d2e577f4e487b7100000000000000000000000000000000000000000000000000000000600052604160045260246000fd5b6040519080825280601f01601f191660200182016040528015611d605781602001600182028036833780820191505090505b5090505b60008514611e1357600182611d799190613008565b9150600a85611d88919061319e565b6030611d949190612f81565b60f81b818381518110611dd0577f4e487b7100000000000000000000000000000000000000000000000000000000600052603260045260246000fd5b60200101907effffffffffffffffffffffffffffffffffffffffffffffffffffffffffffff1916908160001a905350600a85611e0c9190612fd7565b9450611d64565b8093505050505b919050565b600073ffffffffffffffffffffffffffffffffffffffff168273ffffffffffffffffffffffffffffffffffffffff161415611e8f576040517f08c379a0000000000000000000000000000000000000000000000000000000008152600401611e8690612d9c565b60405180910390fd5b611e9881610e21565b15611ed8576040517f08c379a0000000000000000000000000000000000000000000000000000000008152600401611ecf90612c9c565b60405180910390fd5b611ee46000838361180c565b6001600360008473ffffffffffffffffffffffffffffffffffffffff1673ffffffffffffffffffffffffffffffffffffffff1681526020019081526020016000206000828254611f349190612f81565b92505081905550816002600083815260200190815260200160002060006101000a81548173ffffffffffffffffffffffffffffffffffffffff021916908373ffffffffffffffffffffffffffffffffffffffff160217905550808273ffffffffffffffffffffffffffffffffffffffff16600073ffffffffffffffffffffffffffffffffffffffff167fddf252ad1be2c89b69c2b068fc378daa952ba7f163c4a11628f55a4df523b3ef60405160405180910390a4611ff56000838361181c565b5050565b505050565b6008805490506009600083815260200190815260200160002081905550600881908060018154018082558091505060019003906000526020600020016000909190919091505550565b60006001612054846108dc565b61205e9190613008565b9050600060076000848152602001908152602001600020549050818114612143576000600660008673ffffffffffffffffffffffffffffffffffffffff1673ffffffffffffffffffffffffffffffffffffffff168152602001908152602001600020600084815260200190815260200160002054905080600660008773ffffffffffffffffffffffffffffffffffffffff1673ffffffffffffffffffffffffffffffffffffffff168152602001908152602001600020600084815260200190815260200160002081905550816007600083815260200190815260200160002081905550505b6007600084815260200190815260200160002060009055600660008573ffffffffffffffffffffffffffffffffffffffff1673ffffffffffffffffffffffffffffffffffffffff16815260200190815260200160002060008381526020019081526020016000206000905550505050565b600060016008805490506121c89190613008565b905060006009600084815260200190815260200160002054905060006008838154811061221e577f4e487b7100000000000000000000000000000000000000000000000000000000600052603260045260246000fd5b906000526020600020015490508060088381548110612266577f4e487b7100000000000000000000000000000000000000000000000000000000600052603260045260246000fd5b9060005260206000200181905550816009600083815260200190815260200160002081905550600960008581526020019081526020016000206000905560088054806122db577f4e487b7100000000000000000000000000000000000000000000000000000000600052603160045260246000fd5b6001900381819060005260206000200160009055905550505050565b6000612302836108dc565b905081600660008573ffffffffffffffffffffffffffffffffffffffff1673ffffffffffffffffffffffffffffffffffffffff168152602001908152602001600020600083815260200190815260200160002081905550806007600084815260200190815260200160002081905550505050565b828054612382906130f2565b90600052602060002090601f0160209004810192826123a457600085556123eb565b82601f106123bd57805160ff19168380011785556123eb565b828001600101855582156123eb579182015b828111156123ea5782518255916020019190600101906123cf565b5b5090506123f891906123fc565b5090565b5b808211156124155760008160009055506001016123fd565b5090565b600061242c61242784612edc565b612eb7565b90508281526020810184848401111561244457600080fd5b61244f8482856130b0565b509392505050565b600061246a61246584612f0d565b612eb7565b90508281526020810184848401111561248257600080fd5b61248d8482856130b0565b509392505050565b6000813590506124a481613830565b92915050565b6000813590506124b981613847565b92915050565b6000813590506124ce8161385e565b92915050565b6000815190506124e38161385e565b92915050565b600082601f8301126124fa57600080fd5b813561250a848260208601612419565b91505092915050565b600082601f83011261252457600080fd5b8135612534848260208601612457565b91505092915050565b60008135905061254c81613875565b92915050565b60006020828403121561256457600080fd5b600061257284828501612495565b91505092915050565b6000806040838503121561258e57600080fd5b600061259c85828601612495565b92505060206125ad85828601612495565b9150509250929050565b6000806000606084860312156125cc57600080fd5b60006125da86828701612495565b93505060206125eb86828701612495565b92505060406125fc8682870161253d565b9150509250925092565b6000806000806080858703121561261c57600080fd5b600061262a87828801612495565b945050602061263b87828801612495565b935050604061264c8782880161253d565b925050606085013567ffffffffffffffff81111561266957600080fd5b612675878288016124e9565b91505092959194509250565b6000806040838503121561269457600080fd5b60006126a285828601612495565b92505060206126b3858286016124aa565b9150509250929050565b600080604083850312156126d057600080fd5b60006126de85828601612495565b925050602083013567ffffffffffffffff8111156126fb57600080fd5b61270785828601612513565b9150509250929050565b6000806040838503121561272457600080fd5b600061273285828601612495565b92505060206127438582860161253d565b9150509250929050565b60006020828403121561275f57600080fd5b600061276d848285016124bf565b91505092915050565b60006020828403121561278857600080fd5b6000612796848285016124d4565b91505092915050565b6000602082840312156127b157600080fd5b60006127bf8482850161253d565b91505092915050565b6127d18161303c565b82525050565b6127e08161304e565b82525050565b60006127f182612f3e565b6127fb8185612f54565b935061280b8185602086016130bf565b6128148161328b565b840191505092915050565b600061282a82612f49565b6128348185612f65565b93506128448185602086016130bf565b61284d8161328b565b840191505092915050565b600061286382612f49565b61286d8185612f76565b935061287d8185602086016130bf565b80840191505092915050565b6000612896602b83612f65565b91506128a18261329c565b604082019050919050565b60006128b9603283612f65565b91506128c4826132eb565b604082019050919050565b60006128dc602683612f65565b91506128e78261333a565b604082019050919050565b60006128ff602583612f65565b915061290a82613389565b604082019050919050565b6000612922601c83612f65565b915061292d826133d8565b602082019050919050565b6000612945602483612f65565b915061295082613401565b604082019050919050565b6000612968601983612f65565b915061297382613450565b602082019050919050565b600061298b602c83612f65565b915061299682613479565b604082019050919050565b60006129ae603883612f65565b91506129b9826134c8565b604082019050919050565b60006129d1602a83612f65565b91506129dc82613517565b604082019050919050565b60006129f4602983612f65565b91506129ff82613566565b604082019050919050565b6000612a17602e83612f65565b9150612a22826135b5565b604082019050919050565b6000612a3a602083612f65565b9150612a4582613604565b602082019050919050565b6000612a5d603183612f65565b9150612a688261362d565b604082019050919050565b6000612a80602c83612f65565b9150612a8b8261367c565b604082019050919050565b6000612aa3602083612f65565b9150612aae826136cb565b602082019050919050565b6000612ac6602f83612f65565b9150612ad1826136f4565b604082019050919050565b6000612ae9602183612f65565b9150612af482613743565b604082019050919050565b6000612b0c603183612f65565b9150612b1782613792565b604082019050919050565b6000612b2f602c83612f65565b9150612b3a826137e1565b604082019050919050565b612b4e816130a6565b82525050565b6000612b608285612858565b9150612b6c8284612858565b91508190509392505050565b6000602082019050612b8d60008301846127c8565b92915050565b6000608082019050612ba860008301876127c8565b612bb560208301866127c8565b612bc26040830185612b45565b8181036060830152612bd481846127e6565b905095945050505050565b6000602082019050612bf460008301846127d7565b92915050565b60006020820190508181036000830152612c14818461281f565b905092915050565b60006020820190508181036000830152612c3581612889565b9050919050565b60006020820190508181036000830152612c55816128ac565b9050919050565b60006020820190508181036000830152612c75816128cf565b9050919050565b60006020820190508181036000830152612c95816128f2565b9050919050565b60006020820190508181036000830152612cb581612915565b9050919050565b60006020820190508181036000830152612cd581612938565b9050919050565b60006020820190508181036000830152612cf58161295b565b9050919050565b60006020820190508181036000830152612d158161297e565b9050919050565b60006020820190508181036000830152612d35816129a1565b9050919050565b60006020820190508181036000830152612d55816129c4565b9050919050565b60006020820190508181036000830152612d75816129e7565b9050919050565b60006020820190508181036000830152612d9581612a0a565b9050919050565b60006020820190508181036000830152612db581612a2d565b9050919050565b60006020820190508181036000830152612dd581612a50565b9050919050565b60006020820190508181036000830152612df581612a73565b9050919050565b60006020820190508181036000830152612e1581612a96565b9050919050565b60006020820190508181036000830152612e3581612ab9565b9050919050565b60006020820190508181036000830152612e5581612adc565b9050919050565b60006020820190508181036000830152612e7581612aff565b9050919050565b60006020820190508181036000830152612e9581612b22565b9050919050565b6000602082019050612eb16000830184612b45565b92915050565b6000612ec1612ed2565b9050612ecd8282613124565b919050565b6000604051905090565b600067ffffffffffffffff821115612ef757612ef661325c565b5b612f008261328b565b9050602081019050919050565b600067ffffffffffffffff821115612f2857612f2761325c565b5b612f318261328b565b9050602081019050919050565b600081519050919050565b600081519050919050565b600082825260208201905092915050565b600082825260208201905092915050565b600081905092915050565b6000612f8c826130a6565b9150612f97836130a6565b9250827fffffffffffffffffffffffffffffffffffffffffffffffffffffffffffffffff03821115612fcc57612fcb6131cf565b5b828201905092915050565b6000612fe2826130a6565b9150612fed836130a6565b925082612ffd57612ffc6131fe565b5b828204905092915050565b6000613013826130a6565b915061301e836130a6565b925082821015613031576130306131cf565b5b828203905092915050565b600061304782613086565b9050919050565b60008115159050919050565b60007fffffffff0000000000000000000000000000000000000000000000000000000082169050919050565b600073ffffffffffffffffffffffffffffffffffffffff82169050919050565b6000819050919050565b82818337600083830152505050565b60005b838110156130dd5780820151818401526020810190506130c2565b838111156130ec576000848401525b50505050565b6000600282049050600182168061310a57607f821691505b6020821081141561311e5761311d61322d565b5b50919050565b61312d8261328b565b810181811067ffffffffffffffff8211171561314c5761314b61325c565b5b80604052505050565b6000613160826130a6565b91507fffffffffffffffffffffffffffffffffffffffffffffffffffffffffffffffff821415613193576131926131cf565b5b600182019050919050565b60006131a9826130a6565b91506131b4836130a6565b9250826131c4576131c36131fe565b5b828206905092915050565b7f4e487b7100000000000000000000000000000000000000000000000000000000600052601160045260246000fd5b7f4e487b7100000000000000000000000000000000000000000000000000000000600052601260045260246000fd5b7f4e487b7100000000000000000000000000000000000000000000000000000000600052602260045260246000fd5b7f4e487b7100000000000000000000000000000000000000000000000000000000600052604160045260246000fd5b6000601f19601f8301169050919050565b7f455243373231456e756d657261626c653a206f776e657220696e646578206f7560008201527f74206f6620626f756e6473000000000000000000000000000000000000000000602082015250565b7f4552433732313a207472616e7366657220746f206e6f6e20455243373231526560008201527f63656976657220696d706c656d656e7465720000000000000000000000000000602082015250565b7f4f776e61626c653a206e6577206f776e657220697320746865207a65726f206160008201527f6464726573730000000000000000000000000000000000000000000000000000602082015250565b7f4552433732313a207472616e736665722066726f6d20696e636f72726563742060008201527f6f776e6572000000000000000000000000000000000000000000000000000000602082015250565b7f4552433732313a20746f6b656e20616c7265616479206d696e74656400000000600082015250565b7f4552433732313a207472616e7366657220746f20746865207a65726f2061646460008201527f7265737300000000000000000000000000000000000000000000000000000000602082015250565b7f4552433732313a20617070726f766520746f2063616c6c657200000000000000600082015250565b7f4552433732313a206f70657261746f7220717565727920666f72206e6f6e657860008201527f697374656e7420746f6b656e0000000000000000000000000000000000000000602082015250565b7f4552433732313a20617070726f76652063616c6c6572206973206e6f74206f7760008201527f6e6572206e6f7220617070726f76656420666f7220616c6c0000000000000000602082015250565b7f4552433732313a2062616c616e636520717565727920666f7220746865207a6560008201527f726f206164647265737300000000000000000000000000000000000000000000602082015250565b7f4552433732313a206f776e657220717565727920666f72206e6f6e657869737460008201527f656e7420746f6b656e0000000000000000000000000000000000000000000000602082015250565b7f45524337323155524953746f726167653a2055524920736574206f66206e6f6e60008201527f6578697374656e7420746f6b656e000000000000000000000000000000000000602082015250565b7f4552433732313a206d696e7420746f20746865207a65726f2061646472657373600082015250565b7f45524337323155524953746f726167653a2055524920717565727920666f722060008201527f6e6f6e6578697374656e7420746f6b656e000000000000000000000000000000602082015250565b7f4552433732313a20617070726f76656420717565727920666f72206e6f6e657860008201527f697374656e7420746f6b656e0000000000000000000000000000000000000000602082015250565b7f4f776e61626c653a2063616c6c6572206973206e6f7420746865206f776e6572600082015250565b7f4552433732314d657461646174613a2055524920717565727920666f72206e6f60008201527f6e6578697374656e7420746f6b656e0000000000000000000000000000000000602082015250565b7f4552433732313a20617070726f76616c20746f2063757272656e74206f776e6560008201527f7200000000000000000000000000000000000000000000000000000000000000602082015250565b7f4552433732313a207472616e736665722063616c6c6572206973206e6f74206f60008201527f776e6572206e6f7220617070726f766564000000000000000000000000000000602082015250565b7f455243373231456e756d657261626c653a20676c6f62616c20696e646578206f60008201527f7574206f6620626f756e64730000000000000000000000000000000000000000602082015250565b6138398161303c565b811461384457600080fd5b50565b6138508161304e565b811461385b57600080fd5b50565b6138678161305a565b811461387257600080fd5b50565b61387e816130a6565b811461388957600080fd5b5056fea26469706673582212200a8d2e6be8461bfc75b853c4b2fb718c8baba83cf874b08ea8aaed3ccdd4049d64736f6c63430008040033",
  "devdoc": {
    "kind": "dev",
    "methods": {
      "approve(address,uint256)": {
        "details": "See {IERC721-approve}."
      },
      "balanceOf(address)": {
        "details": "See {IERC721-balanceOf}."
      },
      "getApproved(uint256)": {
        "details": "See {IERC721-getApproved}."
      },
      "isApprovedForAll(address,address)": {
        "details": "See {IERC721-isApprovedForAll}."
      },
      "name()": {
        "details": "See {IERC721Metadata-name}."
      },
      "owner()": {
        "details": "Returns the address of the current owner."
      },
      "ownerOf(uint256)": {
        "details": "See {IERC721-ownerOf}."
      },
      "renounceOwnership()": {
        "details": "Leaves the contract without owner. It will not be possible to call `onlyOwner` functions anymore. Can only be called by the current owner. NOTE: Renouncing ownership will leave the contract without an owner, thereby removing any functionality that is only available to the owner."
      },
      "safeTransferFrom(address,address,uint256)": {
        "details": "See {IERC721-safeTransferFrom}."
      },
      "safeTransferFrom(address,address,uint256,bytes)": {
        "details": "See {IERC721-safeTransferFrom}."
      },
      "setApprovalForAll(address,bool)": {
        "details": "See {IERC721-setApprovalForAll}."
      },
      "symbol()": {
        "details": "See {IERC721Metadata-symbol}."
      },
      "tokenByIndex(uint256)": {
        "details": "See {IERC721Enumerable-tokenByIndex}."
      },
      "tokenOfOwnerByIndex(address,uint256)": {
        "details": "See {IERC721Enumerable-tokenOfOwnerByIndex}."
      },
      "totalSupply()": {
        "details": "See {IERC721Enumerable-totalSupply}."
      },
      "transferFrom(address,address,uint256)": {
        "details": "See {IERC721-transferFrom}."
      },
      "transferOwnership(address)": {
        "details": "Transfers ownership of the contract to a new account (`newOwner`). Can only be called by the current owner."
      }
    },
    "version": 1
  },
  "userdoc": {
    "kind": "user",
    "methods": {},
    "version": 1
  },
  "storageLayout": {
    "storage": [
      {
        "astId": 130,
        "contract": "contracts/ERC721/WolfOfDeFiWinners.sol:WolfOfDeFiWinners",
        "label": "_name",
        "offset": 0,
        "slot": "0",
        "type": "t_string_storage"
      },
      {
        "astId": 132,
        "contract": "contracts/ERC721/WolfOfDeFiWinners.sol:WolfOfDeFiWinners",
        "label": "_symbol",
        "offset": 0,
        "slot": "1",
        "type": "t_string_storage"
      },
      {
        "astId": 136,
        "contract": "contracts/ERC721/WolfOfDeFiWinners.sol:WolfOfDeFiWinners",
        "label": "_owners",
        "offset": 0,
        "slot": "2",
        "type": "t_mapping(t_uint256,t_address)"
      },
      {
        "astId": 140,
        "contract": "contracts/ERC721/WolfOfDeFiWinners.sol:WolfOfDeFiWinners",
        "label": "_balances",
        "offset": 0,
        "slot": "3",
        "type": "t_mapping(t_address,t_uint256)"
      },
      {
        "astId": 144,
        "contract": "contracts/ERC721/WolfOfDeFiWinners.sol:WolfOfDeFiWinners",
        "label": "_tokenApprovals",
        "offset": 0,
        "slot": "4",
        "type": "t_mapping(t_uint256,t_address)"
      },
      {
        "astId": 150,
        "contract": "contracts/ERC721/WolfOfDeFiWinners.sol:WolfOfDeFiWinners",
        "label": "_operatorApprovals",
        "offset": 0,
        "slot": "5",
        "type": "t_mapping(t_address,t_mapping(t_address,t_bool))"
      },
      {
        "astId": 1119,
        "contract": "contracts/ERC721/WolfOfDeFiWinners.sol:WolfOfDeFiWinners",
        "label": "_ownedTokens",
        "offset": 0,
        "slot": "6",
        "type": "t_mapping(t_address,t_mapping(t_uint256,t_uint256))"
      },
      {
        "astId": 1123,
        "contract": "contracts/ERC721/WolfOfDeFiWinners.sol:WolfOfDeFiWinners",
        "label": "_ownedTokensIndex",
        "offset": 0,
        "slot": "7",
        "type": "t_mapping(t_uint256,t_uint256)"
      },
      {
        "astId": 1126,
        "contract": "contracts/ERC721/WolfOfDeFiWinners.sol:WolfOfDeFiWinners",
        "label": "_allTokens",
        "offset": 0,
        "slot": "8",
        "type": "t_array(t_uint256)dyn_storage"
      },
      {
        "astId": 1130,
        "contract": "contracts/ERC721/WolfOfDeFiWinners.sol:WolfOfDeFiWinners",
        "label": "_allTokensIndex",
        "offset": 0,
        "slot": "9",
        "type": "t_mapping(t_uint256,t_uint256)"
      },
      {
        "astId": 1455,
        "contract": "contracts/ERC721/WolfOfDeFiWinners.sol:WolfOfDeFiWinners",
        "label": "_tokenURIs",
        "offset": 0,
        "slot": "10",
        "type": "t_mapping(t_uint256,t_string_storage)"
      },
      {
        "astId": 7,
        "contract": "contracts/ERC721/WolfOfDeFiWinners.sol:WolfOfDeFiWinners",
        "label": "_owner",
        "offset": 0,
        "slot": "11",
        "type": "t_address"
      },
      {
        "astId": 2280,
        "contract": "contracts/ERC721/WolfOfDeFiWinners.sol:WolfOfDeFiWinners",
        "label": "_tokenIdCounter",
        "offset": 0,
        "slot": "12",
        "type": "t_struct(Counter)1951_storage"
      }
    ],
    "types": {
      "t_address": {
        "encoding": "inplace",
        "label": "address",
        "numberOfBytes": "20"
      },
      "t_array(t_uint256)dyn_storage": {
        "base": "t_uint256",
        "encoding": "dynamic_array",
        "label": "uint256[]",
        "numberOfBytes": "32"
      },
      "t_bool": {
        "encoding": "inplace",
        "label": "bool",
        "numberOfBytes": "1"
      },
      "t_mapping(t_address,t_bool)": {
        "encoding": "mapping",
        "key": "t_address",
        "label": "mapping(address => bool)",
        "numberOfBytes": "32",
        "value": "t_bool"
      },
      "t_mapping(t_address,t_mapping(t_address,t_bool))": {
        "encoding": "mapping",
        "key": "t_address",
        "label": "mapping(address => mapping(address => bool))",
        "numberOfBytes": "32",
        "value": "t_mapping(t_address,t_bool)"
      },
      "t_mapping(t_address,t_mapping(t_uint256,t_uint256))": {
        "encoding": "mapping",
        "key": "t_address",
        "label": "mapping(address => mapping(uint256 => uint256))",
        "numberOfBytes": "32",
        "value": "t_mapping(t_uint256,t_uint256)"
      },
      "t_mapping(t_address,t_uint256)": {
        "encoding": "mapping",
        "key": "t_address",
        "label": "mapping(address => uint256)",
        "numberOfBytes": "32",
        "value": "t_uint256"
      },
      "t_mapping(t_uint256,t_address)": {
        "encoding": "mapping",
        "key": "t_uint256",
        "label": "mapping(uint256 => address)",
        "numberOfBytes": "32",
        "value": "t_address"
      },
      "t_mapping(t_uint256,t_string_storage)": {
        "encoding": "mapping",
        "key": "t_uint256",
        "label": "mapping(uint256 => string)",
        "numberOfBytes": "32",
        "value": "t_string_storage"
      },
      "t_mapping(t_uint256,t_uint256)": {
        "encoding": "mapping",
        "key": "t_uint256",
        "label": "mapping(uint256 => uint256)",
        "numberOfBytes": "32",
        "value": "t_uint256"
      },
      "t_string_storage": {
        "encoding": "bytes",
        "label": "string",
        "numberOfBytes": "32"
      },
      "t_struct(Counter)1951_storage": {
        "encoding": "inplace",
        "label": "struct Counters.Counter",
        "members": [
          {
            "astId": 1950,
            "contract": "contracts/ERC721/WolfOfDeFiWinners.sol:WolfOfDeFiWinners",
            "label": "_value",
            "offset": 0,
            "slot": "0",
            "type": "t_uint256"
          }
        ],
        "numberOfBytes": "32"
      },
      "t_uint256": {
        "encoding": "inplace",
        "label": "uint256",
        "numberOfBytes": "32"
      }
    }
  }
}