{
  "_format": "hh-sol-artifact-1",
  "contractName": "MockUpgradedPangolinExchange",
  "sourceName": "contracts/mock/MockUpgradedPangolinExchange.sol",
  "abi": [
    {
      "anonymous": false,
      "inputs": [
        {
          "components": [
            {
              "internalType": "bytes32",
              "name": "asset",
              "type": "bytes32"
            },
            {
              "internalType": "address",
              "name": "assetAddress",
              "type": "address"
            }
          ],
          "indexed": false,
          "internalType": "struct IAssetsExchange.Asset[]",
          "name": "assets",
          "type": "tuple[]"
        }
      ],
      "name": "AssetsAdded",
      "type": "event"
    },
    {
      "anonymous": false,
      "inputs": [
        {
          "indexed": false,
          "internalType": "bytes32[]",
          "name": "removedAssets",
          "type": "bytes32[]"
        }
      ],
      "name": "AssetsRemoved",
      "type": "event"
    },
    {
      "anonymous": false,
      "inputs": [
        {
          "indexed": true,
          "internalType": "address",
          "name": "previousOwner",
          "type": "address"
        },
        {
          "indexed": true,
          "internalType": "address",
          "name": "newOwner",
          "type": "address"
        }
      ],
      "name": "OwnershipTransferred",
      "type": "event"
    },
    {
      "anonymous": false,
      "inputs": [
        {
          "indexed": true,
          "internalType": "address",
          "name": "buyer",
          "type": "address"
        },
        {
          "indexed": false,
          "internalType": "uint256",
          "name": "amount",
          "type": "uint256"
        },
        {
          "indexed": false,
          "internalType": "uint256",
          "name": "timestamp",
          "type": "uint256"
        },
        {
          "indexed": false,
          "internalType": "bool",
          "name": "success",
          "type": "bool"
        }
      ],
      "name": "TokenPurchase",
      "type": "event"
    },
    {
      "anonymous": false,
      "inputs": [
        {
          "indexed": true,
          "internalType": "address",
          "name": "seller",
          "type": "address"
        },
        {
          "indexed": false,
          "internalType": "uint256",
          "name": "amount",
          "type": "uint256"
        },
        {
          "indexed": false,
          "internalType": "uint256",
          "name": "timestamp",
          "type": "uint256"
        },
        {
          "indexed": false,
          "internalType": "bool",
          "name": "success",
          "type": "bool"
        }
      ],
      "name": "TokenSell",
      "type": "event"
    },
    {
      "inputs": [
        {
          "internalType": "bytes32",
          "name": "_token",
          "type": "bytes32"
        },
        {
          "internalType": "uint256",
          "name": "_exactERC20AmountOut",
          "type": "uint256"
        }
      ],
      "name": "buyAsset",
      "outputs": [
        {
          "internalType": "bool",
          "name": "",
          "type": "bool"
        }
      ],
      "stateMutability": "payable",
      "type": "function"
    },
    {
      "inputs": [],
      "name": "getAllAssets",
      "outputs": [
        {
          "internalType": "bytes32[]",
          "name": "result",
          "type": "bytes32[]"
        }
      ],
      "stateMutability": "view",
      "type": "function"
    },
    {
      "inputs": [
        {
          "internalType": "bytes32",
          "name": "_asset",
          "type": "bytes32"
        }
      ],
      "name": "getAssetAddress",
      "outputs": [
        {
          "internalType": "address",
          "name": "",
          "type": "address"
        }
      ],
      "stateMutability": "view",
      "type": "function"
    },
    {
      "inputs": [
        {
          "internalType": "uint256",
          "name": "_exactAmountOut",
          "type": "uint256"
        },
        {
          "internalType": "address",
          "name": "_token",
          "type": "address"
        }
      ],
      "name": "getEstimatedAVAXForERC20Token",
      "outputs": [
        {
          "internalType": "uint256",
          "name": "",
          "type": "uint256"
        }
      ],
      "stateMutability": "view",
      "type": "function"
    },
    {
      "inputs": [
        {
          "internalType": "uint256",
          "name": "_amountIn",
          "type": "uint256"
        },
        {
          "internalType": "address",
          "name": "_token",
          "type": "address"
        }
      ],
      "name": "getEstimatedAVAXFromERC20Token",
      "outputs": [
        {
          "internalType": "uint256",
          "name": "",
          "type": "uint256"
        }
      ],
      "stateMutability": "view",
      "type": "function"
    },
    {
      "inputs": [
        {
          "internalType": "uint256",
          "name": "_exactAmountOut",
          "type": "uint256"
        },
        {
          "internalType": "address",
          "name": "_token",
          "type": "address"
        }
      ],
      "name": "getMinimumERC20TokenAmountForExactAVAX",
      "outputs": [
        {
          "internalType": "uint256",
          "name": "",
          "type": "uint256"
        }
      ],
      "stateMutability": "view",
      "type": "function"
    },
    {
      "inputs": [
        {
          "internalType": "address",
          "name": "_pangolinRouter",
          "type": "address"
        },
        {
          "components": [
            {
              "internalType": "bytes32",
              "name": "asset",
              "type": "bytes32"
            },
            {
              "internalType": "address",
              "name": "assetAddress",
              "type": "address"
            }
          ],
          "internalType": "struct IAssetsExchange.Asset[]",
          "name": "supportedAssets",
          "type": "tuple[]"
        }
      ],
      "name": "initialize",
      "outputs": [],
      "stateMutability": "nonpayable",
      "type": "function"
    },
    {
      "inputs": [],
      "name": "newMockedFunction",
      "outputs": [
        {
          "internalType": "uint256",
          "name": "",
          "type": "uint256"
        }
      ],
      "stateMutability": "view",
      "type": "function"
    },
    {
      "inputs": [],
      "name": "owner",
      "outputs": [
        {
          "internalType": "address",
          "name": "",
          "type": "address"
        }
      ],
      "stateMutability": "view",
      "type": "function"
    },
    {
      "inputs": [
        {
          "internalType": "bytes32[]",
          "name": "_assets",
          "type": "bytes32[]"
        }
      ],
      "name": "removeAssets",
      "outputs": [],
      "stateMutability": "nonpayable",
      "type": "function"
    },
    {
      "inputs": [],
      "name": "renounceOwnership",
      "outputs": [],
      "stateMutability": "nonpayable",
      "type": "function"
    },
    {
      "inputs": [
        {
          "internalType": "bytes32",
          "name": "_token",
          "type": "bytes32"
        },
        {
          "internalType": "uint256",
          "name": "_exactERC20AmountIn",
          "type": "uint256"
        },
        {
          "internalType": "uint256",
          "name": "_minAvaxAmountOut",
          "type": "uint256"
        }
      ],
      "name": "sellAsset",
      "outputs": [
        {
          "internalType": "bool",
          "name": "",
          "type": "bool"
        }
      ],
      "stateMutability": "nonpayable",
      "type": "function"
    },
    {
      "inputs": [
        {
          "internalType": "address",
          "name": "newOwner",
          "type": "address"
        }
      ],
      "name": "transferOwnership",
      "outputs": [],
      "stateMutability": "nonpayable",
      "type": "function"
    },
    {
      "inputs": [
        {
          "components": [
            {
              "internalType": "bytes32",
              "name": "asset",
              "type": "bytes32"
            },
            {
              "internalType": "address",
              "name": "assetAddress",
              "type": "address"
            }
          ],
          "internalType": "struct IAssetsExchange.Asset[]",
          "name": "_assets",
          "type": "tuple[]"
        }
      ],
      "name": "updateAssets",
      "outputs": [],
      "stateMutability": "nonpayable",
      "type": "function"
    },
    {
      "stateMutability": "payable",
      "type": "receive"
    }
  ],
  "bytecode": "0x608060405234801561001057600080fd5b50613573806100206000396000f3fe6080604052600436106100e15760003560e01c8063774ca0191161007f5780639ac34dd3116100595780639ac34dd3146102be578063b171aa63146102fb578063c9fb2e7614610324578063f2fde38b14610361576100e8565b8063774ca0191461022b5780638da5cb5b146102685780639891d03e14610293576100e8565b80635d8874e9116100bb5780635d8874e91461017e578063715018a6146101ae57806376d02895146101c5578063772ee3ae14610202576100e8565b80632acada4d146100ed5780632efefbe21461011857806348eedd6b14610141576100e8565b366100e857005b600080fd5b3480156100f957600080fd5b5061010261038a565b60405161010f9190612b06565b60405180910390f35b34801561012457600080fd5b5061013f600480360381019061013a91906123db565b6103ee565b005b34801561014d57600080fd5b5061016860048036038101906101639190612584565b61052e565b6040516101759190612b4a565b60405180910390f35b61019860048036038101906101939190612548565b6108f2565b6040516101a59190612b4a565b60405180910390f35b3480156101ba57600080fd5b506101c3610ba4565b005b3480156101d157600080fd5b506101ec60048036038101906101e7919061251f565b610c2c565b6040516101f99190612a9e565b60405180910390f35b34801561020e57600080fd5b5061022960048036038101906102249190612474565b610cb6565b005b34801561023757600080fd5b50610252600480360381019061024d91906125fc565b610d3e565b60405161025f9190612d25565b60405180910390f35b34801561027457600080fd5b5061027d610e48565b60405161028a9190612a9e565b60405180910390f35b34801561029f57600080fd5b506102a8610e72565b6040516102b59190612d25565b60405180910390f35b3480156102ca57600080fd5b506102e560048036038101906102e091906125fc565b610e7c565b6040516102f29190612d25565b60405180910390f35b34801561030757600080fd5b50610322600480360381019061031d919061242f565b610f86565b005b34801561033057600080fd5b5061034b600480360381019061034691906125fc565b6110ac565b6040516103589190612d25565b60405180910390f35b34801561036d57600080fd5b50610388600480360381019061038391906123b2565b6111b6565b005b606060986000016000016000016000018054806020026020016040519081016040528092919081815260200182805480156103e457602002820191906000526020600020905b8154815260200190600101908083116103d0575b5050505050905090565b600060019054906101000a900460ff166104165760008054906101000a900460ff161561041f565b61041e6112ae565b5b61045e576040517f08c379a000000000000000000000000000000000000000000000000000000000815260040161045590612be5565b60405180910390fd5b60008060019054906101000a900460ff1615905080156104ae576001600060016101000a81548160ff02191690831515021790555060016000806101000a81548160ff0219169083151502179055505b82609760006101000a81548173ffffffffffffffffffffffffffffffffffffffff021916908373ffffffffffffffffffffffffffffffffffffffff1602179055506104f8826112bf565b6105006114ea565b610508611543565b80156105295760008060016101000a81548160ff0219169083151502179055505b505050565b600060026065541415610576576040517f08c379a000000000000000000000000000000000000000000000000000000000815260040161056d90612ce5565b60405180910390fd5b6002606581905550600083116105c1576040517f08c379a00000000000000000000000000000000000000000000000000000000081526004016105b890612c85565b60405180910390fd5b60006105cc85610c2c565b90506000819050610621609760009054906101000a900473ffffffffffffffffffffffffffffffffffffffff1660008373ffffffffffffffffffffffffffffffffffffffff1661159c9092919063ffffffff16565b61066e609760009054906101000a900473ffffffffffffffffffffffffffffffffffffffff16868373ffffffffffffffffffffffffffffffffffffffff1661159c9092919063ffffffff16565b6000609760009054906101000a900473ffffffffffffffffffffffffffffffffffffffff1673ffffffffffffffffffffffffffffffffffffffff16600087876106b6876116d2565b33426040516024016106cc959493929190612dbc565b6040516020818303038152906040527f676528d1000000000000000000000000000000000000000000000000000000007bffffffffffffffffffffffffffffffffffffffffffffffffffffffff19166020820180517bffffffffffffffffffffffffffffffffffffffffffffffffffffffff83818316178352505050506040516107569190612a87565b60006040518083038185875af1925050503d8060008114610793576040519150601f19603f3d011682016040523d82523d6000602084013e610798565b606091505b505090508061086057610854338373ffffffffffffffffffffffffffffffffffffffff166370a08231306040518263ffffffff1660e01b81526004016107de9190612a9e565b60206040518083038186803b1580156107f657600080fd5b505afa15801561080a573d6000803e3d6000fd5b505050506040513d601f19601f8201168201806040525081019061082e91906125d3565b8473ffffffffffffffffffffffffffffffffffffffff1661184f9092919063ffffffff16565b600093505050506108e3565b610889473373ffffffffffffffffffffffffffffffffffffffff1661198590919063ffffffff16565b3373ffffffffffffffffffffffffffffffffffffffff167f288a4cc64e3791e9b02d1fb713d082cf2048067b99f04489649843493b87bc0c8742846040516108d393929190612e16565b60405180910390a2600193505050505b60016065819055509392505050565b60006002606554141561093a576040517f08c379a000000000000000000000000000000000000000000000000000000000815260040161093190612ce5565b60405180910390fd5b60026065819055506000821415610986576040517f08c379a000000000000000000000000000000000000000000000000000000000815260040161097d90612c45565b60405180910390fd5b600061099184610c2c565b9050600061099f8483610d3e565b9050803410156109e4576040517f08c379a00000000000000000000000000000000000000000000000000000000081526004016109db90612bc5565b60405180910390fd5b60006109ef83611aab565b90506000609760009054906101000a900473ffffffffffffffffffffffffffffffffffffffff1673ffffffffffffffffffffffffffffffffffffffff163487843342604051602401610a449493929190612d70565b6040516020818303038152906040527f8a657e67000000000000000000000000000000000000000000000000000000007bffffffffffffffffffffffffffffffffffffffffffffffffffffffff19166020820180517bffffffffffffffffffffffffffffffffffffffffffffffffffffffff8381831617835250505050604051610ace9190612a87565b60006040518083038185875af1925050503d8060008114610b0b576040519150601f19603f3d011682016040523d82523d6000602084013e610b10565b606091505b50509050610b3d473373ffffffffffffffffffffffffffffffffffffffff1661198590919063ffffffff16565b3373ffffffffffffffffffffffffffffffffffffffff167f7082d72127d5c79824d96471137e36c23d15988ccb0434a671f4dafc1ff86b64874284604051610b8793929190612e16565b60405180910390a280945050505050600160658190555092915050565b610bac611c28565b73ffffffffffffffffffffffffffffffffffffffff16610bca610e48565b73ffffffffffffffffffffffffffffffffffffffff1614610c20576040517f08c379a0000000000000000000000000000000000000000000000000000000008152600401610c1790612c05565b60405180910390fd5b610c2a6000611c30565b565b600080610c3a609884611cf6565b915050600073ffffffffffffffffffffffffffffffffffffffff168173ffffffffffffffffffffffffffffffffffffffff161415610cad576040517f08c379a0000000000000000000000000000000000000000000000000000000008152600401610ca490612d05565b60405180910390fd5b80915050919050565b610cbe611c28565b73ffffffffffffffffffffffffffffffffffffffff16610cdc610e48565b73ffffffffffffffffffffffffffffffffffffffff1614610d32576040517f08c379a0000000000000000000000000000000000000000000000000000000008152600401610d2990612c05565b60405180910390fd5b610d3b816112bf565b50565b600080610d4a83611aab565b9050609760009054906101000a900473ffffffffffffffffffffffffffffffffffffffff1673ffffffffffffffffffffffffffffffffffffffff16631f00ca7485836040518363ffffffff1660e01b8152600401610da9929190612d40565b60006040518083038186803b158015610dc157600080fd5b505afa158015610dd5573d6000803e3d6000fd5b505050506040513d6000823e3d601f19601f82011682018060405250810190610dfe91906124b5565b600081518110610e37577f4e487b7100000000000000000000000000000000000000000000000000000000600052603260045260246000fd5b602002602001015191505092915050565b6000603360009054906101000a900473ffffffffffffffffffffffffffffffffffffffff16905090565b6000610539905090565b600080610e88836116d2565b9050609760009054906101000a900473ffffffffffffffffffffffffffffffffffffffff1673ffffffffffffffffffffffffffffffffffffffff16631f00ca7485836040518363ffffffff1660e01b8152600401610ee7929190612d40565b60006040518083038186803b158015610eff57600080fd5b505afa158015610f13573d6000803e3d6000fd5b505050506040513d6000823e3d601f19601f82011682018060405250810190610f3c91906124b5565b600081518110610f75577f4e487b7100000000000000000000000000000000000000000000000000000000600052603260045260246000fd5b602002602001015191505092915050565b610f8e611c28565b73ffffffffffffffffffffffffffffffffffffffff16610fac610e48565b73ffffffffffffffffffffffffffffffffffffffff1614611002576040517f08c379a0000000000000000000000000000000000000000000000000000000008152600401610ff990612c05565b60405180910390fd5b60005b8282905081101561106e5761105a609884848481811061104e577f4e487b7100000000000000000000000000000000000000000000000000000000600052603260045260246000fd5b90506020020135611d1f565b50808061106690613095565b915050611005565b507fd364029b03416d6689327e58714f1a57f1260011c572deeef07f01e7269ea14182826040516110a0929190612ae2565b60405180910390a15050565b6000806110b8836116d2565b9050609760009054906101000a900473ffffffffffffffffffffffffffffffffffffffff1673ffffffffffffffffffffffffffffffffffffffff1663d06ca61f85836040518363ffffffff1660e01b8152600401611117929190612d40565b60006040518083038186803b15801561112f57600080fd5b505afa158015611143573d6000803e3d6000fd5b505050506040513d6000823e3d601f19601f8201168201806040525081019061116c91906124b5565b6001815181106111a5577f4e487b7100000000000000000000000000000000000000000000000000000000600052603260045260246000fd5b602002602001015191505092915050565b6111be611c28565b73ffffffffffffffffffffffffffffffffffffffff166111dc610e48565b73ffffffffffffffffffffffffffffffffffffffff1614611232576040517f08c379a000000000000000000000000000000000000000000000000000000000815260040161122990612c05565b60405180910390fd5b600073ffffffffffffffffffffffffffffffffffffffff168173ffffffffffffffffffffffffffffffffffffffff1614156112a2576040517f08c379a000000000000000000000000000000000000000000000000000000000815260040161129990612b85565b60405180910390fd5b6112ab81611c30565b50565b60006112b930611d36565b15905090565b60005b81518110156114af576000828281518110611306577f4e487b7100000000000000000000000000000000000000000000000000000000600052603260045260246000fd5b6020026020010151600001511415611353576040517f08c379a000000000000000000000000000000000000000000000000000000000815260040161134a90612b65565b60405180910390fd5b600073ffffffffffffffffffffffffffffffffffffffff168282815181106113a4577f4e487b7100000000000000000000000000000000000000000000000000000000600052603260045260246000fd5b60200260200101516020015173ffffffffffffffffffffffffffffffffffffffff161415611407576040517f08c379a00000000000000000000000000000000000000000000000000000000081526004016113fe90612c25565b60405180910390fd5b61149b6098838381518110611445577f4e487b7100000000000000000000000000000000000000000000000000000000600052603260045260246000fd5b60200260200101516000015184848151811061148a577f4e487b7100000000000000000000000000000000000000000000000000000000600052603260045260246000fd5b602002602001015160200151611d59565b5080806114a790613095565b9150506112c2565b507fbbc4f85d38ccb337b12b9dd1f1ad7bcc6b844d56ba348ee8e466e0b017f4ee4b816040516114df9190612b28565b60405180910390a150565b600060019054906101000a900460ff16611539576040517f08c379a000000000000000000000000000000000000000000000000000000000815260040161153090612ca5565b60405180910390fd5b611541611d8b565b565b600060019054906101000a900460ff16611592576040517f08c379a000000000000000000000000000000000000000000000000000000000815260040161158990612ca5565b60405180910390fd5b61159a611dec565b565b6000808473ffffffffffffffffffffffffffffffffffffffff1663095ea7b385856040516024016115ce929190612ab9565b6040516020818303038152906040529060e01b6020820180517bffffffffffffffffffffffffffffffffffffffffffffffffffffffff838183161783525050505060405161161c9190612a87565b6000604051808303816000865af19150503d8060008114611659576040519150601f19603f3d011682016040523d82523d6000602084013e61165e565b606091505b509150915081801561168c575060008151148061168b57508080602001905181019061168a91906124f6565b5b5b6116cb576040517f08c379a00000000000000000000000000000000000000000000000000000000081526004016116c290612c65565b60405180910390fd5b5050505050565b60606000600267ffffffffffffffff811115611717577f4e487b7100000000000000000000000000000000000000000000000000000000600052604160045260246000fd5b6040519080825280602002602001820160405280156117455781602001602082028036833780820191505090505b5090508281600081518110611783577f4e487b7100000000000000000000000000000000000000000000000000000000600052603260045260246000fd5b602002602001019073ffffffffffffffffffffffffffffffffffffffff16908173ffffffffffffffffffffffffffffffffffffffff168152505073b31f66aa3c1e785363f0875a1b74e27b85fd66c78160018151811061180c577f4e487b7100000000000000000000000000000000000000000000000000000000600052603260045260246000fd5b602002602001019073ffffffffffffffffffffffffffffffffffffffff16908173ffffffffffffffffffffffffffffffffffffffff168152505080915050919050565b6000808473ffffffffffffffffffffffffffffffffffffffff1663a9059cbb8585604051602401611881929190612ab9565b6040516020818303038152906040529060e01b6020820180517bffffffffffffffffffffffffffffffffffffffffffffffffffffffff83818316178352505050506040516118cf9190612a87565b6000604051808303816000865af19150503d806000811461190c576040519150601f19603f3d011682016040523d82523d6000602084013e611911565b606091505b509150915081801561193f575060008151148061193e57508080602001905181019061193d91906124f6565b5b5b61197e576040517f08c379a000000000000000000000000000000000000000000000000000000000815260040161197590612cc5565b60405180910390fd5b5050505050565b60008273ffffffffffffffffffffffffffffffffffffffff1682600067ffffffffffffffff8111156119e0577f4e487b7100000000000000000000000000000000000000000000000000000000600052604160045260246000fd5b6040519080825280601f01601f191660200182016040528015611a125781602001600182028036833780820191505090505b50604051611a209190612a87565b60006040518083038185875af1925050503d8060008114611a5d576040519150601f19603f3d011682016040523d82523d6000602084013e611a62565b606091505b5050905080611aa6576040517f08c379a0000000000000000000000000000000000000000000000000000000008152600401611a9d90612ba5565b60405180910390fd5b505050565b60606000600267ffffffffffffffff811115611af0577f4e487b7100000000000000000000000000000000000000000000000000000000600052604160045260246000fd5b604051908082528060200260200182016040528015611b1e5781602001602082028036833780820191505090505b50905073b31f66aa3c1e785363f0875a1b74e27b85fd66c781600081518110611b70577f4e487b7100000000000000000000000000000000000000000000000000000000600052603260045260246000fd5b602002602001019073ffffffffffffffffffffffffffffffffffffffff16908173ffffffffffffffffffffffffffffffffffffffff16815250508281600181518110611be5577f4e487b7100000000000000000000000000000000000000000000000000000000600052603260045260246000fd5b602002602001019073ffffffffffffffffffffffffffffffffffffffff16908173ffffffffffffffffffffffffffffffffffffffff168152505080915050919050565b600033905090565b6000603360009054906101000a900473ffffffffffffffffffffffffffffffffffffffff16905081603360006101000a81548173ffffffffffffffffffffffffffffffffffffffff021916908373ffffffffffffffffffffffffffffffffffffffff1602179055508173ffffffffffffffffffffffffffffffffffffffff168173ffffffffffffffffffffffffffffffffffffffff167f8be0079c531659141344cd1fd0a4f28419497f9722a3daafe3b4186f6b6457e060405160405180910390a35050565b600080600080611d098660000186611e45565b91509150818160001c9350935050509250929050565b6000611d2e8360000183611e95565b905092915050565b6000808273ffffffffffffffffffffffffffffffffffffffff163b119050919050565b6000611d8284600001848473ffffffffffffffffffffffffffffffffffffffff1660001b611ece565b90509392505050565b600060019054906101000a900460ff16611dda576040517f08c379a0000000000000000000000000000000000000000000000000000000008152600401611dd190612ca5565b60405180910390fd5b611dea611de5611c28565b611c30565b565b600060019054906101000a900460ff16611e3b576040517f08c379a0000000000000000000000000000000000000000000000000000000008152600401611e3290612ca5565b60405180910390fd5b6001606581905550565b60008060008460020160008581526020019081526020016000205490506000801b811415611e8557611e778585611f09565b6000801b9250925050611e8e565b60018192509250505b9250929050565b600082600201600083815260200190815260200160002060009055611ec68284600001611f2990919063ffffffff16565b905092915050565b60008184600201600085815260200190815260200160002081905550611f008385600001611f4090919063ffffffff16565b90509392505050565b6000611f218284600001611f5790919063ffffffff16565b905092915050565b6000611f388360000183611f6e565b905092915050565b6000611f4f83600001836120f4565b905092915050565b6000611f668360000183612164565b905092915050565b600080836001016000848152602001908152602001600020549050600081146120e8576000600182611fa09190612f9c565b9050600060018660000180549050611fb89190612f9c565b9050818114612073576000866000018281548110611fff577f4e487b7100000000000000000000000000000000000000000000000000000000600052603260045260246000fd5b9060005260206000200154905080876000018481548110612049577f4e487b7100000000000000000000000000000000000000000000000000000000600052603260045260246000fd5b90600052602060002001819055508387600101600083815260200190815260200160002081905550505b856000018054806120ad577f4e487b7100000000000000000000000000000000000000000000000000000000600052603160045260246000fd5b6001900381819060005260206000200160009055905585600101600086815260200190815260200160002060009055600193505050506120ee565b60009150505b92915050565b60006121008383612164565b61215957826000018290806001815401808255809150506001900390600052602060002001600090919091909150558260000180549050836001016000848152602001908152602001600020819055506001905061215e565b600090505b92915050565b600080836001016000848152602001908152602001600020541415905092915050565b600061219a61219584612e72565b612e4d565b905080838252602082019050828560408602820111156121b957600080fd5b60005b858110156121e957816121cf888261233c565b8452602084019350604083019250506001810190506121bc565b5050509392505050565b600061220661220184612e9e565b612e4d565b9050808382526020820190508285602086028201111561222557600080fd5b60005b85811015612255578161223b888261239d565b845260208401935060208301925050600181019050612228565b5050509392505050565b60008135905061226e816134e1565b92915050565b60008083601f84011261228657600080fd5b8235905067ffffffffffffffff81111561229f57600080fd5b6020830191508360208202830111156122b757600080fd5b9250929050565b600082601f8301126122cf57600080fd5b81356122df848260208601612187565b91505092915050565b600082601f8301126122f957600080fd5b81516123098482602086016121f3565b91505092915050565b600081519050612321816134f8565b92915050565b6000813590506123368161350f565b92915050565b60006040828403121561234e57600080fd5b6123586040612e4d565b9050600061236884828501612327565b600083015250602061237c8482850161225f565b60208301525092915050565b60008135905061239781613526565b92915050565b6000815190506123ac81613526565b92915050565b6000602082840312156123c457600080fd5b60006123d28482850161225f565b91505092915050565b600080604083850312156123ee57600080fd5b60006123fc8582860161225f565b925050602083013567ffffffffffffffff81111561241957600080fd5b612425858286016122be565b9150509250929050565b6000806020838503121561244257600080fd5b600083013567ffffffffffffffff81111561245c57600080fd5b61246885828601612274565b92509250509250929050565b60006020828403121561248657600080fd5b600082013567ffffffffffffffff8111156124a057600080fd5b6124ac848285016122be565b91505092915050565b6000602082840312156124c757600080fd5b600082015167ffffffffffffffff8111156124e157600080fd5b6124ed848285016122e8565b91505092915050565b60006020828403121561250857600080fd5b600061251684828501612312565b91505092915050565b60006020828403121561253157600080fd5b600061253f84828501612327565b91505092915050565b6000806040838503121561255b57600080fd5b600061256985828601612327565b925050602061257a85828601612388565b9150509250929050565b60008060006060848603121561259957600080fd5b60006125a786828701612327565b93505060206125b886828701612388565b92505060406125c986828701612388565b9150509250925092565b6000602082840312156125e557600080fd5b60006125f38482850161239d565b91505092915050565b6000806040838503121561260f57600080fd5b600061261d85828601612388565b925050602061262e8582860161225f565b9150509250929050565b60006126448383612680565b60208301905092915050565b600061265c838361281f565b60208301905092915050565b60006126748383612a49565b60408301905092915050565b61268981612fd0565b82525050565b61269881612fd0565b82525050565b60006126a982612efa565b6126b38185612f4d565b93506126be83612eca565b8060005b838110156126ef5781516126d68882612638565b97506126e183612f26565b9250506001810190506126c2565b5085935050505092915050565b60006127088385612f5e565b93507f07ffffffffffffffffffffffffffffffffffffffffffffffffffffffffffffff83111561273757600080fd5b602083029250612748838584613022565b82840190509392505050565b600061275f82612f05565b6127698185612f5e565b935061277483612eda565b8060005b838110156127a557815161278c8882612650565b975061279783612f33565b925050600181019050612778565b5085935050505092915050565b60006127bd82612f10565b6127c78185612f6f565b93506127d283612eea565b8060005b838110156128035781516127ea8882612668565b97506127f583612f40565b9250506001810190506127d6565b5085935050505092915050565b61281981612fe2565b82525050565b61282881612fee565b82525050565b600061283982612f1b565b6128438185612f80565b9350612853818560208601613031565b80840191505092915050565b600061286c602183612f8b565b91506128778261314d565b604082019050919050565b600061288f602683612f8b565b915061289a8261319c565b604082019050919050565b60006128b2603483612f8b565b91506128bd826131eb565b604082019050919050565b60006128d5601e83612f8b565b91506128e08261323a565b602082019050919050565b60006128f8602e83612f8b565b915061290382613263565b604082019050919050565b600061291b602083612f8b565b9150612926826132b2565b602082019050919050565b600061293e601c83612f8b565b9150612949826132db565b602082019050919050565b6000612961603083612f8b565b915061296c82613304565b604082019050919050565b6000612984602b83612f8b565b915061298f82613353565b604082019050919050565b60006129a7603183612f8b565b91506129b2826133a2565b604082019050919050565b60006129ca602b83612f8b565b91506129d5826133f1565b604082019050919050565b60006129ed602d83612f8b565b91506129f882613440565b604082019050919050565b6000612a10601f83612f8b565b9150612a1b8261348f565b602082019050919050565b6000612a33601483612f8b565b9150612a3e826134b8565b602082019050919050565b604082016000820151612a5f600085018261281f565b506020820151612a726020850182612680565b50505050565b612a8181613018565b82525050565b6000612a93828461282e565b915081905092915050565b6000602082019050612ab3600083018461268f565b92915050565b6000604082019050612ace600083018561268f565b612adb6020830184612a78565b9392505050565b60006020820190508181036000830152612afd8184866126fc565b90509392505050565b60006020820190508181036000830152612b208184612754565b905092915050565b60006020820190508181036000830152612b4281846127b2565b905092915050565b6000602082019050612b5f6000830184612810565b92915050565b60006020820190508181036000830152612b7e8161285f565b9050919050565b60006020820190508181036000830152612b9e81612882565b9050919050565b60006020820190508181036000830152612bbe816128a5565b9050919050565b60006020820190508181036000830152612bde816128c8565b9050919050565b60006020820190508181036000830152612bfe816128eb565b9050919050565b60006020820190508181036000830152612c1e8161290e565b9050919050565b60006020820190508181036000830152612c3e81612931565b9050919050565b60006020820190508181036000830152612c5e81612954565b9050919050565b60006020820190508181036000830152612c7e81612977565b9050919050565b60006020820190508181036000830152612c9e8161299a565b9050919050565b60006020820190508181036000830152612cbe816129bd565b9050919050565b60006020820190508181036000830152612cde816129e0565b9050919050565b60006020820190508181036000830152612cfe81612a03565b9050919050565b60006020820190508181036000830152612d1e81612a26565b9050919050565b6000602082019050612d3a6000830184612a78565b92915050565b6000604082019050612d556000830185612a78565b8181036020830152612d67818461269e565b90509392505050565b6000608082019050612d856000830187612a78565b8181036020830152612d97818661269e565b9050612da6604083018561268f565b612db36060830184612a78565b95945050505050565b600060a082019050612dd16000830188612a78565b612dde6020830187612a78565b8181036040830152612df0818661269e565b9050612dff606083018561268f565b612e0c6080830184612a78565b9695505050505050565b6000606082019050612e2b6000830186612a78565b612e386020830185612a78565b612e456040830184612810565b949350505050565b6000612e57612e68565b9050612e638282613064565b919050565b6000604051905090565b600067ffffffffffffffff821115612e8d57612e8c61310d565b5b602082029050602081019050919050565b600067ffffffffffffffff821115612eb957612eb861310d565b5b602082029050602081019050919050565b6000819050602082019050919050565b6000819050602082019050919050565b6000819050602082019050919050565b600081519050919050565b600081519050919050565b600081519050919050565b600081519050919050565b6000602082019050919050565b6000602082019050919050565b6000602082019050919050565b600082825260208201905092915050565b600082825260208201905092915050565b600082825260208201905092915050565b600081905092915050565b600082825260208201905092915050565b6000612fa782613018565b9150612fb283613018565b925082821015612fc557612fc46130de565b5b828203905092915050565b6000612fdb82612ff8565b9050919050565b60008115159050919050565b6000819050919050565b600073ffffffffffffffffffffffffffffffffffffffff82169050919050565b6000819050919050565b82818337600083830152505050565b60005b8381101561304f578082015181840152602081019050613034565b8381111561305e576000848401525b50505050565b61306d8261313c565b810181811067ffffffffffffffff8211171561308c5761308b61310d565b5b80604052505050565b60006130a082613018565b91507fffffffffffffffffffffffffffffffffffffffffffffffffffffffffffffffff8214156130d3576130d26130de565b5b600182019050919050565b7f4e487b7100000000000000000000000000000000000000000000000000000000600052601160045260246000fd5b7f4e487b7100000000000000000000000000000000000000000000000000000000600052604160045260246000fd5b6000601f19601f8301169050919050565b7f43616e6e6f742073657420616e20656d70747920737472696e6720617373657460008201527f2e00000000000000000000000000000000000000000000000000000000000000602082015250565b7f4f776e61626c653a206e6577206f776e657220697320746865207a65726f206160008201527f6464726573730000000000000000000000000000000000000000000000000000602082015250565b7f5472616e7366657248656c7065723a3a736166655472616e736665724554483a60008201527f20455448207472616e73666572206661696c6564000000000000000000000000602082015250565b7f4e6f7420656e6f7567682066756e647320776572652070726f76696465640000600082015250565b7f496e697469616c697a61626c653a20636f6e747261637420697320616c72656160008201527f647920696e697469616c697a6564000000000000000000000000000000000000602082015250565b7f4f776e61626c653a2063616c6c6572206973206e6f7420746865206f776e6572600082015250565b7f43616e6e6f742073657420616e20656d70747920616464726573732e00000000600082015250565b7f416d6f756e74206f6620746f6b656e7320746f206275792068617320746f206260008201527f652067726561746572207468616e203000000000000000000000000000000000602082015250565b7f5472616e7366657248656c7065723a3a73616665417070726f76653a2061707060008201527f726f7665206661696c6564000000000000000000000000000000000000000000602082015250565b7f416d6f756e74206f6620746f6b656e7320746f2073656c6c2068617320746f2060008201527f62652067726561746572207468616e2030000000000000000000000000000000602082015250565b7f496e697469616c697a61626c653a20636f6e7472616374206973206e6f74206960008201527f6e697469616c697a696e67000000000000000000000000000000000000000000602082015250565b7f5472616e7366657248656c7065723a3a736166655472616e736665723a20747260008201527f616e73666572206661696c656400000000000000000000000000000000000000602082015250565b7f5265656e7472616e637947756172643a207265656e7472616e742063616c6c00600082015250565b7f4173736574206e6f7420737570706f727465642e000000000000000000000000600082015250565b6134ea81612fd0565b81146134f557600080fd5b50565b61350181612fe2565b811461350c57600080fd5b50565b61351881612fee565b811461352357600080fd5b50565b61352f81613018565b811461353a57600080fd5b5056fea2646970667358221220e3e3fa21d91f934810b652b87b710708b32cb43346f2d7cadc305d9f7fccfb9e64736f6c63430008040033",
  "linkReferences": {},
  "deployedLinkReferences": {}
}