{
  "_format": "hh-sol-artifact-1",
  "contractName": "PoolWithAccessNFT",
  "sourceName": "contracts/upgraded/PoolWithAccessNFT.sol",
  "abi": [
    {
      "anonymous": false,
      "inputs": [
        {
          "indexed": true,
          "internalType": "address",
          "name": "owner",
          "type": "address"
        },
        {
          "indexed": true,
          "internalType": "address",
          "name": "spender",
          "type": "address"
        },
        {
          "indexed": false,
          "internalType": "uint256",
          "name": "value",
          "type": "uint256"
        }
      ],
      "name": "Approval",
      "type": "event"
    },
    {
      "anonymous": false,
      "inputs": [
        {
          "indexed": true,
          "internalType": "address",
          "name": "registry",
          "type": "address"
        },
        {
          "indexed": false,
          "internalType": "uint256",
          "name": "timestamp",
          "type": "uint256"
        }
      ],
      "name": "BorrowersRegistryChanged",
      "type": "event"
    },
    {
      "anonymous": false,
      "inputs": [
        {
          "indexed": true,
          "internalType": "address",
          "name": "user",
          "type": "address"
        },
        {
          "indexed": false,
          "internalType": "uint256",
          "name": "value",
          "type": "uint256"
        },
        {
          "indexed": false,
          "internalType": "uint256",
          "name": "timestamp",
          "type": "uint256"
        }
      ],
      "name": "Borrowing",
      "type": "event"
    },
    {
      "anonymous": false,
      "inputs": [
        {
          "indexed": true,
          "internalType": "address",
          "name": "user",
          "type": "address"
        },
        {
          "indexed": false,
          "internalType": "uint256",
          "name": "value",
          "type": "uint256"
        },
        {
          "indexed": false,
          "internalType": "uint256",
          "name": "timestamp",
          "type": "uint256"
        }
      ],
      "name": "Deposit",
      "type": "event"
    },
    {
      "anonymous": false,
      "inputs": [
        {
          "indexed": true,
          "internalType": "address",
          "name": "user",
          "type": "address"
        },
        {
          "indexed": false,
          "internalType": "uint256",
          "name": "value",
          "type": "uint256"
        },
        {
          "indexed": false,
          "internalType": "uint256",
          "name": "timestamp",
          "type": "uint256"
        }
      ],
      "name": "InterestCollected",
      "type": "event"
    },
    {
      "anonymous": false,
      "inputs": [
        {
          "indexed": true,
          "internalType": "address",
          "name": "previousOwner",
          "type": "address"
        },
        {
          "indexed": true,
          "internalType": "address",
          "name": "newOwner",
          "type": "address"
        }
      ],
      "name": "OwnershipTransferred",
      "type": "event"
    },
    {
      "anonymous": false,
      "inputs": [
        {
          "indexed": true,
          "internalType": "address",
          "name": "user",
          "type": "address"
        },
        {
          "indexed": false,
          "internalType": "uint256",
          "name": "value",
          "type": "uint256"
        },
        {
          "indexed": false,
          "internalType": "uint256",
          "name": "timestamp",
          "type": "uint256"
        }
      ],
      "name": "Repayment",
      "type": "event"
    },
    {
      "anonymous": false,
      "inputs": [
        {
          "indexed": true,
          "internalType": "address",
          "name": "from",
          "type": "address"
        },
        {
          "indexed": true,
          "internalType": "address",
          "name": "to",
          "type": "address"
        },
        {
          "indexed": false,
          "internalType": "uint256",
          "name": "value",
          "type": "uint256"
        }
      ],
      "name": "Transfer",
      "type": "event"
    },
    {
      "anonymous": false,
      "inputs": [
        {
          "indexed": true,
          "internalType": "address",
          "name": "user",
          "type": "address"
        },
        {
          "indexed": false,
          "internalType": "uint256",
          "name": "value",
          "type": "uint256"
        },
        {
          "indexed": false,
          "internalType": "uint256",
          "name": "timestamp",
          "type": "uint256"
        }
      ],
      "name": "Withdrawal",
      "type": "event"
    },
    {
      "inputs": [],
      "name": "MAX_POOL_UTILISATION_FOR_BORROWING",
      "outputs": [
        {
          "internalType": "uint256",
          "name": "",
          "type": "uint256"
        }
      ],
      "stateMutability": "view",
      "type": "function"
    },
    {
      "inputs": [
        {
          "internalType": "address",
          "name": "owner",
          "type": "address"
        },
        {
          "internalType": "address",
          "name": "spender",
          "type": "address"
        }
      ],
      "name": "allowance",
      "outputs": [
        {
          "internalType": "uint256",
          "name": "",
          "type": "uint256"
        }
      ],
      "stateMutability": "view",
      "type": "function"
    },
    {
      "inputs": [
        {
          "internalType": "address",
          "name": "spender",
          "type": "address"
        },
        {
          "internalType": "uint256",
          "name": "amount",
          "type": "uint256"
        }
      ],
      "name": "approve",
      "outputs": [
        {
          "internalType": "bool",
          "name": "",
          "type": "bool"
        }
      ],
      "stateMutability": "nonpayable",
      "type": "function"
    },
    {
      "inputs": [
        {
          "internalType": "address",
          "name": "user",
          "type": "address"
        }
      ],
      "name": "balanceOf",
      "outputs": [
        {
          "internalType": "uint256",
          "name": "",
          "type": "uint256"
        }
      ],
      "stateMutability": "view",
      "type": "function"
    },
    {
      "inputs": [
        {
          "internalType": "uint256",
          "name": "_amount",
          "type": "uint256"
        }
      ],
      "name": "borrow",
      "outputs": [],
      "stateMutability": "nonpayable",
      "type": "function"
    },
    {
      "inputs": [
        {
          "internalType": "address",
          "name": "",
          "type": "address"
        }
      ],
      "name": "borrowed",
      "outputs": [
        {
          "internalType": "uint256",
          "name": "",
          "type": "uint256"
        }
      ],
      "stateMutability": "view",
      "type": "function"
    },
    {
      "inputs": [
        {
          "internalType": "address",
          "name": "spender",
          "type": "address"
        },
        {
          "internalType": "uint256",
          "name": "subtractedValue",
          "type": "uint256"
        }
      ],
      "name": "decreaseAllowance",
      "outputs": [
        {
          "internalType": "bool",
          "name": "",
          "type": "bool"
        }
      ],
      "stateMutability": "nonpayable",
      "type": "function"
    },
    {
      "inputs": [],
      "name": "deposit",
      "outputs": [],
      "stateMutability": "payable",
      "type": "function"
    },
    {
      "inputs": [],
      "name": "getAccessNFT",
      "outputs": [
        {
          "internalType": "contract ERC721",
          "name": "accessNFT",
          "type": "address"
        }
      ],
      "stateMutability": "view",
      "type": "function"
    },
    {
      "inputs": [
        {
          "internalType": "address",
          "name": "_user",
          "type": "address"
        }
      ],
      "name": "getBorrowed",
      "outputs": [
        {
          "internalType": "uint256",
          "name": "",
          "type": "uint256"
        }
      ],
      "stateMutability": "view",
      "type": "function"
    },
    {
      "inputs": [],
      "name": "getBorrowingRate",
      "outputs": [
        {
          "internalType": "uint256",
          "name": "",
          "type": "uint256"
        }
      ],
      "stateMutability": "view",
      "type": "function"
    },
    {
      "inputs": [],
      "name": "getDepositRate",
      "outputs": [
        {
          "internalType": "uint256",
          "name": "",
          "type": "uint256"
        }
      ],
      "stateMutability": "view",
      "type": "function"
    },
    {
      "inputs": [
        {
          "internalType": "address",
          "name": "spender",
          "type": "address"
        },
        {
          "internalType": "uint256",
          "name": "addedValue",
          "type": "uint256"
        }
      ],
      "name": "increaseAllowance",
      "outputs": [
        {
          "internalType": "bool",
          "name": "",
          "type": "bool"
        }
      ],
      "stateMutability": "nonpayable",
      "type": "function"
    },
    {
      "inputs": [
        {
          "internalType": "contract IRatesCalculator",
          "name": "ratesCalculator_",
          "type": "address"
        },
        {
          "internalType": "contract IBorrowersRegistry",
          "name": "borrowersRegistry_",
          "type": "address"
        },
        {
          "internalType": "contract CompoundingIndex",
          "name": "depositIndex_",
          "type": "address"
        },
        {
          "internalType": "contract CompoundingIndex",
          "name": "borrowIndex_",
          "type": "address"
        }
      ],
      "name": "initialize",
      "outputs": [],
      "stateMutability": "nonpayable",
      "type": "function"
    },
    {
      "inputs": [],
      "name": "owner",
      "outputs": [
        {
          "internalType": "address",
          "name": "",
          "type": "address"
        }
      ],
      "stateMutability": "view",
      "type": "function"
    },
    {
      "inputs": [
        {
          "internalType": "uint256",
          "name": "amount",
          "type": "uint256"
        },
        {
          "internalType": "address",
          "name": "account",
          "type": "address"
        }
      ],
      "name": "recoverSurplus",
      "outputs": [],
      "stateMutability": "nonpayable",
      "type": "function"
    },
    {
      "inputs": [],
      "name": "renounceOwnership",
      "outputs": [],
      "stateMutability": "nonpayable",
      "type": "function"
    },
    {
      "inputs": [],
      "name": "repay",
      "outputs": [],
      "stateMutability": "payable",
      "type": "function"
    },
    {
      "inputs": [
        {
          "internalType": "contract ERC721",
          "name": "nftAddress",
          "type": "address"
        }
      ],
      "name": "setAccessNFT",
      "outputs": [],
      "stateMutability": "nonpayable",
      "type": "function"
    },
    {
      "inputs": [
        {
          "internalType": "contract IBorrowersRegistry",
          "name": "borrowersRegistry_",
          "type": "address"
        }
      ],
      "name": "setBorrowersRegistry",
      "outputs": [],
      "stateMutability": "nonpayable",
      "type": "function"
    },
    {
      "inputs": [
        {
          "internalType": "contract IRatesCalculator",
          "name": "ratesCalculator_",
          "type": "address"
        }
      ],
      "name": "setRatesCalculator",
      "outputs": [],
      "stateMutability": "nonpayable",
      "type": "function"
    },
    {
      "inputs": [],
      "name": "totalBorrowed",
      "outputs": [
        {
          "internalType": "uint256",
          "name": "",
          "type": "uint256"
        }
      ],
      "stateMutability": "view",
      "type": "function"
    },
    {
      "inputs": [],
      "name": "totalSupply",
      "outputs": [
        {
          "internalType": "uint256",
          "name": "",
          "type": "uint256"
        }
      ],
      "stateMutability": "view",
      "type": "function"
    },
    {
      "inputs": [
        {
          "internalType": "address",
          "name": "recipient",
          "type": "address"
        },
        {
          "internalType": "uint256",
          "name": "amount",
          "type": "uint256"
        }
      ],
      "name": "transfer",
      "outputs": [
        {
          "internalType": "bool",
          "name": "",
          "type": "bool"
        }
      ],
      "stateMutability": "nonpayable",
      "type": "function"
    },
    {
      "inputs": [
        {
          "internalType": "address",
          "name": "sender",
          "type": "address"
        },
        {
          "internalType": "address",
          "name": "recipient",
          "type": "address"
        },
        {
          "internalType": "uint256",
          "name": "amount",
          "type": "uint256"
        }
      ],
      "name": "transferFrom",
      "outputs": [
        {
          "internalType": "bool",
          "name": "",
          "type": "bool"
        }
      ],
      "stateMutability": "nonpayable",
      "type": "function"
    },
    {
      "inputs": [
        {
          "internalType": "address",
          "name": "newOwner",
          "type": "address"
        }
      ],
      "name": "transferOwnership",
      "outputs": [],
      "stateMutability": "nonpayable",
      "type": "function"
    },
    {
      "inputs": [
        {
          "internalType": "uint256",
          "name": "_amount",
          "type": "uint256"
        }
      ],
      "name": "withdraw",
      "outputs": [],
      "stateMutability": "nonpayable",
      "type": "function"
    }
  ],
  "bytecode": "0x608060405234801561001057600080fd5b506151e3806100206000396000f3fe60806040526004361061019c5760003560e01c8063715018a6116100ec578063d0e30db01161008a578063f2fde38b11610064578063f2fde38b146105c0578063f36b2425146105e9578063f8c8765e14610614578063fc68f6611461063d5761019c565b8063d0e30db01461054e578063dd62ed3e14610558578063e3fcd8d1146105955761019c565b8063a457c2d7116100c6578063a457c2d714610480578063a9059cbb146104bd578063b790634e146104fa578063c5ebeaec146105255761019c565b8063715018a6146104135780638da5cb5b1461042a5780639dcee9a4146104555761019c565b806339509351116101595780634c19386c116101335780634c19386c146103455780636011163e1461037057806370a08231146103ad57806370d4cea0146103ea5761019c565b806339509351146102d5578063402d888314610312578063429c9a5a1461031c5761019c565b80630790ef9a146101a15780630941cb3d146101ca578063095ea7b31461020757806318160ddd1461024457806323b872dd1461026f5780632e1a7d4d146102ac575b600080fd5b3480156101ad57600080fd5b506101c860048036038101906101c39190613c89565b610666565b005b3480156101d657600080fd5b506101f160048036038101906101ec9190613a40565b610815565b6040516101fe9190614574565b60405180910390f35b34801561021357600080fd5b5061022e60048036038101906102299190613af4565b61082d565b60405161023b919061417e565b60405180910390f35b34801561025057600080fd5b5061025961098e565b6040516102669190614574565b60405180910390f35b34801561027b57600080fd5b5061029660048036038101906102919190613aa5565b61099e565b6040516102a3919061417e565b60405180910390f35b3480156102b857600080fd5b506102d360048036038101906102ce9190613c37565b610d81565b005b3480156102e157600080fd5b506102fc60048036038101906102f79190613af4565b610eb1565b604051610309919061417e565b60405180910390f35b61031a61109f565b005b34801561032857600080fd5b50610343600480360381019061033e9190613b59565b611286565b005b34801561035157600080fd5b5061035a611508565b6040516103679190614574565b60405180910390f35b34801561037c57600080fd5b5061039760048036038101906103929190613a40565b611518565b6040516103a49190614574565b60405180910390f35b3480156103b957600080fd5b506103d460048036038101906103cf9190613a40565b61160d565b6040516103e19190614574565b60405180910390f35b3480156103f657600080fd5b50610411600480360381019061040c9190613bab565b611702565b005b34801561041f57600080fd5b5061042861187e565b005b34801561043657600080fd5b5061043f611906565b60405161044c9190614163565b60405180910390f35b34801561046157600080fd5b5061046a611930565b6040516104779190614574565b60405180910390f35b34801561048c57600080fd5b506104a760048036038101906104a29190613af4565b61193c565b6040516104b4919061417e565b60405180910390f35b3480156104c957600080fd5b506104e460048036038101906104df9190613af4565b611b73565b6040516104f1919061417e565b60405180910390f35b34801561050657600080fd5b5061050f611df9565b60405161051c9190614574565b60405180910390f35b34801561053157600080fd5b5061054c60048036038101906105479190613c37565b611ebb565b005b6105566122cb565b005b34801561056457600080fd5b5061057f600480360381019061057a9190613a69565b612414565b60405161058c9190614574565b60405180910390f35b3480156105a157600080fd5b506105aa61249b565b6040516105b79190614199565b60405180910390f35b3480156105cc57600080fd5b506105e760048036038101906105e29190613a40565b6124db565b005b3480156105f557600080fd5b506105fe6125d3565b60405161060b9190614574565b60405180910390f35b34801561062057600080fd5b5061063b60048036038101906106369190613bd4565b612695565b005b34801561064957600080fd5b50610664600480360381019061065f9190613b82565b6128e1565b005b61066e612aa7565b73ffffffffffffffffffffffffffffffffffffffff1661068c611906565b73ffffffffffffffffffffffffffffffffffffffff16146106e2576040517f08c379a00000000000000000000000000000000000000000000000000000000081526004016106d990614434565b60405180910390fd5b60026065541415610728576040517f08c379a000000000000000000000000000000000000000000000000000000000815260040161071f90614514565b60405180910390fd5b6002606581905550600061073a61098e565b610742611508565b4761074d9190614608565b61075791906146e9565b90504783111561079c576040517f08c379a0000000000000000000000000000000000000000000000000000000008152600401610793906143f4565b60405180910390fd5b808311156107df576040517f08c379a00000000000000000000000000000000000000000000000000000000081526004016107d690614534565b60405180910390fd5b610808838373ffffffffffffffffffffffffffffffffffffffff16612aaf90919063ffffffff16565b5060016065819055505050565b60996020528060005260406000206000915090505481565b60008073ffffffffffffffffffffffffffffffffffffffff168373ffffffffffffffffffffffffffffffffffffffff16141561089e576040517f08c379a000000000000000000000000000000000000000000000000000000000815260040161089590614494565b60405180910390fd5b81609760003373ffffffffffffffffffffffffffffffffffffffff1673ffffffffffffffffffffffffffffffffffffffff16815260200190815260200160002060008573ffffffffffffffffffffffffffffffffffffffff1673ffffffffffffffffffffffffffffffffffffffff168152602001908152602001600020819055508273ffffffffffffffffffffffffffffffffffffffff163373ffffffffffffffffffffffffffffffffffffffff167f8c5be1e5ebec7d5bd14f71427d1e84f3dd0314c0f7b2291e5b200ac8c7c3b9258460405161097c9190614574565b60405180910390a36001905092915050565b60006109993061160d565b905090565b600081609760008673ffffffffffffffffffffffffffffffffffffffff1673ffffffffffffffffffffffffffffffffffffffff16815260200190815260200160002060003373ffffffffffffffffffffffffffffffffffffffff1673ffffffffffffffffffffffffffffffffffffffff168152602001908152602001600020541015610a5f576040517f08c379a0000000000000000000000000000000000000000000000000000000008152600401610a5690614334565b60405180910390fd5b600073ffffffffffffffffffffffffffffffffffffffff168373ffffffffffffffffffffffffffffffffffffffff161415610acf576040517f08c379a0000000000000000000000000000000000000000000000000000000008152600401610ac690614294565b60405180910390fd5b3073ffffffffffffffffffffffffffffffffffffffff168373ffffffffffffffffffffffffffffffffffffffff161415610b3e576040517f08c379a0000000000000000000000000000000000000000000000000000000008152600401610b3590614454565b60405180910390fd5b610b4733612bd5565b81609860008673ffffffffffffffffffffffffffffffffffffffff1673ffffffffffffffffffffffffffffffffffffffff168152602001908152602001600020541015610bc9576040517f08c379a0000000000000000000000000000000000000000000000000000000008152600401610bc0906142b4565b60405180910390fd5b81609860008673ffffffffffffffffffffffffffffffffffffffff1673ffffffffffffffffffffffffffffffffffffffff1681526020019081526020016000206000828254610c1891906146e9565b9250508190555081609760008673ffffffffffffffffffffffffffffffffffffffff1673ffffffffffffffffffffffffffffffffffffffff16815260200190815260200160002060003373ffffffffffffffffffffffffffffffffffffffff1673ffffffffffffffffffffffffffffffffffffffff1681526020019081526020016000206000828254610cab91906146e9565b92505081905550610cbb83612bd5565b81609860008573ffffffffffffffffffffffffffffffffffffffff1673ffffffffffffffffffffffffffffffffffffffff1681526020019081526020016000206000828254610d0a9190614608565b925050819055508273ffffffffffffffffffffffffffffffffffffffff168473ffffffffffffffffffffffffffffffffffffffff167fddf252ad1be2c89b69c2b068fc378daa952ba7f163c4a11628f55a4df523b3ef84604051610d6e9190614574565b60405180910390a3600190509392505050565b60026065541415610dc7576040517f08c379a0000000000000000000000000000000000000000000000000000000008152600401610dbe90614514565b60405180910390fd5b600260658190555080471015610e12576040517f08c379a0000000000000000000000000000000000000000000000000000000008152600401610e0990614554565b60405180910390fd5b610e1b33612bd5565b610e253382612daa565b610e4e813373ffffffffffffffffffffffffffffffffffffffff16612aaf90919063ffffffff16565b610e56612fb2565b3373ffffffffffffffffffffffffffffffffffffffff167fdf273cb619d95419a9cd0ec88123a0538c85064229baa6363788f743fff90deb8242604051610e9e9291906145b8565b60405180910390a2600160658190555050565b60008073ffffffffffffffffffffffffffffffffffffffff168373ffffffffffffffffffffffffffffffffffffffff161415610f22576040517f08c379a0000000000000000000000000000000000000000000000000000000008152600401610f1990614494565b60405180910390fd5b600082609760003373ffffffffffffffffffffffffffffffffffffffff1673ffffffffffffffffffffffffffffffffffffffff16815260200190815260200160002060008673ffffffffffffffffffffffffffffffffffffffff1673ffffffffffffffffffffffffffffffffffffffff16815260200190815260200160002054610fac9190614608565b905080609760003373ffffffffffffffffffffffffffffffffffffffff1673ffffffffffffffffffffffffffffffffffffffff16815260200190815260200160002060008673ffffffffffffffffffffffffffffffffffffffff1673ffffffffffffffffffffffffffffffffffffffff168152602001908152602001600020819055508373ffffffffffffffffffffffffffffffffffffffff163373ffffffffffffffffffffffffffffffffffffffff167f8c5be1e5ebec7d5bd14f71427d1e84f3dd0314c0f7b2291e5b200ac8c7c3b9258360405161108c9190614574565b60405180910390a3600191505092915050565b600260655414156110e5576040517f08c379a00000000000000000000000000000000000000000000000000000000081526004016110dc90614514565b60405180910390fd5b60026065819055506110f6336132d4565b34609960003373ffffffffffffffffffffffffffffffffffffffff1673ffffffffffffffffffffffffffffffffffffffff168152602001908152602001600020541015611178576040517f08c379a000000000000000000000000000000000000000000000000000000000815260040161116f90614214565b60405180910390fd5b34609960003373ffffffffffffffffffffffffffffffffffffffff1673ffffffffffffffffffffffffffffffffffffffff16815260200190815260200160002060008282546111c791906146e9565b9250508190555034609960003073ffffffffffffffffffffffffffffffffffffffff1673ffffffffffffffffffffffffffffffffffffffff168152602001908152602001600020600082825461121d91906146e9565b9250508190555061122c612fb2565b3373ffffffffffffffffffffffffffffffffffffffff167f24fcca58a997b1b2eff6db8107e860458544c09ddd3693b3b779e1df6c0d6c5d34426040516112749291906145b8565b60405180910390a26001606581905550565b61128e612aa7565b73ffffffffffffffffffffffffffffffffffffffff166112ac611906565b73ffffffffffffffffffffffffffffffffffffffff1614611302576040517f08c379a00000000000000000000000000000000000000000000000000000000081526004016112f990614434565b60405180910390fd5b600073ffffffffffffffffffffffffffffffffffffffff168173ffffffffffffffffffffffffffffffffffffffff16146114ca5761133f816134e9565b61137e576040517f08c379a000000000000000000000000000000000000000000000000000000000815260040161137590614474565b60405180910390fd5b6000808273ffffffffffffffffffffffffffffffffffffffff16336040516024016113a99190614163565b6040516020818303038152906040527f70a08231000000000000000000000000000000000000000000000000000000007bffffffffffffffffffffffffffffffffffffffffffffffffffffffff19166020820180517bffffffffffffffffffffffffffffffffffffffffffffffffffffffff8381831617835250505050604051611433919061414c565b6000604051808303816000865af19150503d8060008114611470576040519150601f19603f3d011682016040523d82523d6000602084013e611475565b606091505b5091509150818015611488575060008151115b6114c7576040517f08c379a00000000000000000000000000000000000000000000000000000000081526004016114be90614254565b60405180910390fd5b50505b600060017f05df0919f17c81dab74a24e96f8e9fcaf2f7ae9ec785467bc9a30e698771439060001c6114fc91906146e9565b60001b90508181555050565b600061151330611518565b905090565b6000609d60009054906101000a900473ffffffffffffffffffffffffffffffffffffffff1673ffffffffffffffffffffffffffffffffffffffff1663966da889609960008573ffffffffffffffffffffffffffffffffffffffff1673ffffffffffffffffffffffffffffffffffffffff16815260200190815260200160002054846040518363ffffffff1660e01b81526004016115b692919061458f565b60206040518083038186803b1580156115ce57600080fd5b505afa1580156115e2573d6000803e3d6000fd5b505050506040513d601f19601f820116820180604052508101906116069190613c60565b9050919050565b6000609c60009054906101000a900473ffffffffffffffffffffffffffffffffffffffff1673ffffffffffffffffffffffffffffffffffffffff1663966da889609860008573ffffffffffffffffffffffffffffffffffffffff1673ffffffffffffffffffffffffffffffffffffffff16815260200190815260200160002054846040518363ffffffff1660e01b81526004016116ab92919061458f565b60206040518083038186803b1580156116c357600080fd5b505afa1580156116d7573d6000803e3d6000fd5b505050506040513d601f19601f820116820180604052508101906116fb9190613c60565b9050919050565b61170a612aa7565b73ffffffffffffffffffffffffffffffffffffffff16611728611906565b73ffffffffffffffffffffffffffffffffffffffff161461177e576040517f08c379a000000000000000000000000000000000000000000000000000000000815260040161177590614434565b60405180910390fd5b611787816134e9565b806117be5750600073ffffffffffffffffffffffffffffffffffffffff168173ffffffffffffffffffffffffffffffffffffffff16145b6117fd576040517f08c379a00000000000000000000000000000000000000000000000000000000081526004016117f4906142f4565b60405180910390fd5b80609a60006101000a81548173ffffffffffffffffffffffffffffffffffffffff021916908373ffffffffffffffffffffffffffffffffffffffff160217905550600073ffffffffffffffffffffffffffffffffffffffff168173ffffffffffffffffffffffffffffffffffffffff161461187b5761187a612fb2565b5b50565b611886612aa7565b73ffffffffffffffffffffffffffffffffffffffff166118a4611906565b73ffffffffffffffffffffffffffffffffffffffff16146118fa576040517f08c379a00000000000000000000000000000000000000000000000000000000081526004016118f190614434565b60405180910390fd5b611904600061350c565b565b6000603360009054906101000a900473ffffffffffffffffffffffffffffffffffffffff16905090565b670d2f13f7789f000081565b60008073ffffffffffffffffffffffffffffffffffffffff168373ffffffffffffffffffffffffffffffffffffffff1614156119ad576040517f08c379a00000000000000000000000000000000000000000000000000000000081526004016119a490614494565b60405180910390fd5b6000609760003373ffffffffffffffffffffffffffffffffffffffff1673ffffffffffffffffffffffffffffffffffffffff16815260200190815260200160002060008573ffffffffffffffffffffffffffffffffffffffff1673ffffffffffffffffffffffffffffffffffffffff16815260200190815260200160002054905082811015611a71576040517f08c379a0000000000000000000000000000000000000000000000000000000008152600401611a6890614374565b60405180910390fd5b60008382611a7f91906146e9565b905080609760003373ffffffffffffffffffffffffffffffffffffffff1673ffffffffffffffffffffffffffffffffffffffff16815260200190815260200160002060008773ffffffffffffffffffffffffffffffffffffffff1673ffffffffffffffffffffffffffffffffffffffff168152602001908152602001600020819055508473ffffffffffffffffffffffffffffffffffffffff163373ffffffffffffffffffffffffffffffffffffffff167f8c5be1e5ebec7d5bd14f71427d1e84f3dd0314c0f7b2291e5b200ac8c7c3b92583604051611b5f9190614574565b60405180910390a360019250505092915050565b60008073ffffffffffffffffffffffffffffffffffffffff168373ffffffffffffffffffffffffffffffffffffffff161415611be4576040517f08c379a0000000000000000000000000000000000000000000000000000000008152600401611bdb90614294565b60405180910390fd5b3073ffffffffffffffffffffffffffffffffffffffff168373ffffffffffffffffffffffffffffffffffffffff161415611c53576040517f08c379a0000000000000000000000000000000000000000000000000000000008152600401611c4a90614454565b60405180910390fd5b611c5c33612bd5565b81609860003373ffffffffffffffffffffffffffffffffffffffff1673ffffffffffffffffffffffffffffffffffffffff168152602001908152602001600020541015611cde576040517f08c379a0000000000000000000000000000000000000000000000000000000008152600401611cd5906142b4565b60405180910390fd5b81609860003373ffffffffffffffffffffffffffffffffffffffff1673ffffffffffffffffffffffffffffffffffffffff16815260200190815260200160002060008282540392505081905550611d3483612bd5565b81609860008573ffffffffffffffffffffffffffffffffffffffff1673ffffffffffffffffffffffffffffffffffffffff1681526020019081526020016000206000828254611d839190614608565b925050819055508273ffffffffffffffffffffffffffffffffffffffff163373ffffffffffffffffffffffffffffffffffffffff167fddf252ad1be2c89b69c2b068fc378daa952ba7f163c4a11628f55a4df523b3ef84604051611de79190614574565b60405180910390a36001905092915050565b6000609a60009054906101000a900473ffffffffffffffffffffffffffffffffffffffff1673ffffffffffffffffffffffffffffffffffffffff16637cd08331611e41611508565b611e4961098e565b6040518363ffffffff1660e01b8152600401611e669291906145b8565b60206040518083038186803b158015611e7e57600080fd5b505afa158015611e92573d6000803e3d6000fd5b505050506040513d601f19601f82011682018060405250810190611eb69190613c60565b905090565b600073ffffffffffffffffffffffffffffffffffffffff16609b60009054906101000a900473ffffffffffffffffffffffffffffffffffffffff1673ffffffffffffffffffffffffffffffffffffffff161415611f4d576040517f08c379a0000000000000000000000000000000000000000000000000000000008152600401611f44906143d4565b60405180910390fd5b609b60009054906101000a900473ffffffffffffffffffffffffffffffffffffffff1673ffffffffffffffffffffffffffffffffffffffff16630e7fc864336040518263ffffffff1660e01b8152600401611fa89190614163565b60206040518083038186803b158015611fc057600080fd5b505afa158015611fd4573d6000803e3d6000fd5b505050506040513d601f19601f82011682018060405250810190611ff89190613b30565b612037576040517f08c379a000000000000000000000000000000000000000000000000000000000815260040161202e906141f4565b60405180910390fd5b600061204161098e565b1415612082576040517f08c379a0000000000000000000000000000000000000000000000000000000008152600401612079906143b4565b60405180910390fd5b600260655414156120c8576040517f08c379a00000000000000000000000000000000000000000000000000000000081526004016120bf90614514565b60405180910390fd5b600260658190555080471015612113576040517f08c379a000000000000000000000000000000000000000000000000000000000815260040161210a906141b4565b60405180910390fd5b61211c336132d4565b80609960003373ffffffffffffffffffffffffffffffffffffffff1673ffffffffffffffffffffffffffffffffffffffff168152602001908152602001600020600082825461216b9190614608565b9250508190555080609960003073ffffffffffffffffffffffffffffffffffffffff1673ffffffffffffffffffffffffffffffffffffffff16815260200190815260200160002060008282546121c19190614608565b925050819055506121f1813373ffffffffffffffffffffffffffffffffffffffff16612aaf90919063ffffffff16565b6121f9612fb2565b3373ffffffffffffffffffffffffffffffffffffffff167fd6b37be10b58108f696d9ed067fedad0bff7cb417ef4c28d2f8a25d6d83c98d582426040516122419291906145b8565b60405180910390a26001606581905550670d2f13f7789f000061226261098e565b670de0b6b3a7640000612273611508565b61227d919061468f565b612287919061465e565b11156122c8576040517f08c379a00000000000000000000000000000000000000000000000000000000081526004016122bf90614274565b60405180910390fd5b50565b600060017f05df0919f17c81dab74a24e96f8e9fcaf2f7ae9ec785467bc9a30e698771439060001c6122fd91906146e9565b60001b9050600081549050600073ffffffffffffffffffffffffffffffffffffffff168173ffffffffffffffffffffffffffffffffffffffff16146124085760008173ffffffffffffffffffffffffffffffffffffffff166370a08231336040518263ffffffff1660e01b81526004016123779190614163565b60206040518083038186803b15801561238f57600080fd5b505afa1580156123a3573d6000803e3d6000fd5b505050506040513d601f19601f820116820180604052508101906123c79190613c60565b11612407576040517f08c379a00000000000000000000000000000000000000000000000000000000081526004016123fe906144f4565b60405180910390fd5b5b6124106135d2565b5050565b6000609760008473ffffffffffffffffffffffffffffffffffffffff1673ffffffffffffffffffffffffffffffffffffffff16815260200190815260200160002060008373ffffffffffffffffffffffffffffffffffffffff1673ffffffffffffffffffffffffffffffffffffffff16815260200190815260200160002054905092915050565b60008060017f05df0919f17c81dab74a24e96f8e9fcaf2f7ae9ec785467bc9a30e698771439060001c6124ce91906146e9565b60001b9050805491505090565b6124e3612aa7565b73ffffffffffffffffffffffffffffffffffffffff16612501611906565b73ffffffffffffffffffffffffffffffffffffffff1614612557576040517f08c379a000000000000000000000000000000000000000000000000000000000815260040161254e90614434565b60405180910390fd5b600073ffffffffffffffffffffffffffffffffffffffff168173ffffffffffffffffffffffffffffffffffffffff1614156125c7576040517f08c379a00000000000000000000000000000000000000000000000000000000081526004016125be90614234565b60405180910390fd5b6125d08161350c565b50565b6000609a60009054906101000a900473ffffffffffffffffffffffffffffffffffffffff1673ffffffffffffffffffffffffffffffffffffffff1663df841eec61261b611508565b61262361098e565b6040518363ffffffff1660e01b81526004016126409291906145b8565b60206040518083038186803b15801561265857600080fd5b505afa15801561266c573d6000803e3d6000fd5b505050506040513d601f19601f820116820180604052508101906126909190613c60565b905090565b600060019054906101000a900460ff166126bd5760008054906101000a900460ff16156126c6565b6126c5613695565b5b612705576040517f08c379a00000000000000000000000000000000000000000000000000000000081526004016126fc90614394565b60405180910390fd5b60008060019054906101000a900460ff161590508015612755576001600060016101000a81548160ff02191690831515021790555060016000806101000a81548160ff0219169083151502179055505b61275e846134e9565b61279d576040517f08c379a0000000000000000000000000000000000000000000000000000000008152600401612794906142f4565b60405180910390fd5b83609b60006101000a81548173ffffffffffffffffffffffffffffffffffffffff021916908373ffffffffffffffffffffffffffffffffffffffff16021790555084609a60006101000a81548173ffffffffffffffffffffffffffffffffffffffff021916908373ffffffffffffffffffffffffffffffffffffffff16021790555082609c60006101000a81548173ffffffffffffffffffffffffffffffffffffffff021916908373ffffffffffffffffffffffffffffffffffffffff16021790555081609d60006101000a81548173ffffffffffffffffffffffffffffffffffffffff021916908373ffffffffffffffffffffffffffffffffffffffff1602179055506128a96136a6565b6128b16136ff565b6128b9612fb2565b80156128da5760008060016101000a81548160ff0219169083151502179055505b5050505050565b6128e9612aa7565b73ffffffffffffffffffffffffffffffffffffffff16612907611906565b73ffffffffffffffffffffffffffffffffffffffff161461295d576040517f08c379a000000000000000000000000000000000000000000000000000000000815260040161295490614434565b60405180910390fd5b600073ffffffffffffffffffffffffffffffffffffffff168173ffffffffffffffffffffffffffffffffffffffff1614156129cd576040517f08c379a00000000000000000000000000000000000000000000000000000000081526004016129c4906144d4565b60405180910390fd5b6129d6816134e9565b612a15576040517f08c379a0000000000000000000000000000000000000000000000000000000008152600401612a0c906142f4565b60405180910390fd5b80609b60006101000a81548173ffffffffffffffffffffffffffffffffffffffff021916908373ffffffffffffffffffffffffffffffffffffffff1602179055508073ffffffffffffffffffffffffffffffffffffffff167f04dce7d074f7e287a2e6e3516c802271d58d5c14e0dede83a49719eb6b92046942604051612a9c9190614574565b60405180910390a250565b600033905090565b60008273ffffffffffffffffffffffffffffffffffffffff1682600067ffffffffffffffff811115612b0a577f4e487b7100000000000000000000000000000000000000000000000000000000600052604160045260246000fd5b6040519080825280601f01601f191660200182016040528015612b3c5781602001600182028036833780820191505090505b50604051612b4a919061414c565b60006040518083038185875af1925050503d8060008114612b87576040519150601f19603f3d011682016040523d82523d6000602084013e612b8c565b606091505b5050905080612bd0576040517f08c379a0000000000000000000000000000000000000000000000000000000008152600401612bc7906142d4565b60405180910390fd5b505050565b6000612be08261160d565b90506000609860008473ffffffffffffffffffffffffffffffffffffffff1673ffffffffffffffffffffffffffffffffffffffff1681526020019081526020016000205482612c2f91906146e9565b9050612c3b8382613758565b8273ffffffffffffffffffffffffffffffffffffffff167f9bbd517758fbae61197f1c1c04c8614064e89512dbaf4350dcdf76fcaa5e21618242604051612c839291906145b8565b60405180910390a2609c60009054906101000a900473ffffffffffffffffffffffffffffffffffffffff1673ffffffffffffffffffffffffffffffffffffffff1663ed03b336846040518263ffffffff1660e01b8152600401612ce69190614163565b600060405180830381600087803b158015612d0057600080fd5b505af1158015612d14573d6000803e3d6000fd5b50505050609c60009054906101000a900473ffffffffffffffffffffffffffffffffffffffff1673ffffffffffffffffffffffffffffffffffffffff1663ed03b336306040518263ffffffff1660e01b8152600401612d739190614163565b600060405180830381600087803b158015612d8d57600080fd5b505af1158015612da1573d6000803e3d6000fd5b50505050505050565b80609860008473ffffffffffffffffffffffffffffffffffffffff1673ffffffffffffffffffffffffffffffffffffffff168152602001908152602001600020541015612e2c576040517f08c379a0000000000000000000000000000000000000000000000000000000008152600401612e2390614314565b60405180910390fd5b80609860003073ffffffffffffffffffffffffffffffffffffffff1673ffffffffffffffffffffffffffffffffffffffff168152602001908152602001600020541015612eae576040517f08c379a0000000000000000000000000000000000000000000000000000000008152600401612ea590614354565b60405180910390fd5b80609860008473ffffffffffffffffffffffffffffffffffffffff1673ffffffffffffffffffffffffffffffffffffffff1681526020019081526020016000206000828254039250508190555080609860003073ffffffffffffffffffffffffffffffffffffffff1673ffffffffffffffffffffffffffffffffffffffff16815260200190815260200160002060008282540392505081905550600073ffffffffffffffffffffffffffffffffffffffff168273ffffffffffffffffffffffffffffffffffffffff167fddf252ad1be2c89b69c2b068fc378daa952ba7f163c4a11628f55a4df523b3ef83604051612fa69190614574565b60405180910390a35050565b600073ffffffffffffffffffffffffffffffffffffffff16609a60009054906101000a900473ffffffffffffffffffffffffffffffffffffffff1673ffffffffffffffffffffffffffffffffffffffff161415613044576040517f08c379a000000000000000000000000000000000000000000000000000000000815260040161303b906141d4565b60405180910390fd5b609c60009054906101000a900473ffffffffffffffffffffffffffffffffffffffff1673ffffffffffffffffffffffffffffffffffffffff166334fcf437609a60009054906101000a900473ffffffffffffffffffffffffffffffffffffffff1673ffffffffffffffffffffffffffffffffffffffff16637cd083316130c8611508565b6130d061098e565b6040518363ffffffff1660e01b81526004016130ed9291906145b8565b60206040518083038186803b15801561310557600080fd5b505afa158015613119573d6000803e3d6000fd5b505050506040513d601f19601f8201168201806040525081019061313d9190613c60565b6040518263ffffffff1660e01b81526004016131599190614574565b600060405180830381600087803b15801561317357600080fd5b505af1158015613187573d6000803e3d6000fd5b50505050609d60009054906101000a900473ffffffffffffffffffffffffffffffffffffffff1673ffffffffffffffffffffffffffffffffffffffff166334fcf437609a60009054906101000a900473ffffffffffffffffffffffffffffffffffffffff1673ffffffffffffffffffffffffffffffffffffffff1663df841eec61320f611508565b61321761098e565b6040518363ffffffff1660e01b81526004016132349291906145b8565b60206040518083038186803b15801561324c57600080fd5b505afa158015613260573d6000803e3d6000fd5b505050506040513d601f19601f820116820180604052508101906132849190613c60565b6040518263ffffffff1660e01b81526004016132a09190614574565b600060405180830381600087803b1580156132ba57600080fd5b505af11580156132ce573d6000803e3d6000fd5b50505050565b60006132df82611518565b90506000609960008473ffffffffffffffffffffffffffffffffffffffff1673ffffffffffffffffffffffffffffffffffffffff168152602001908152602001600020548261332e91906146e9565b905081609960008573ffffffffffffffffffffffffffffffffffffffff1673ffffffffffffffffffffffffffffffffffffffff1681526020019081526020016000208190555080609960003073ffffffffffffffffffffffffffffffffffffffff1673ffffffffffffffffffffffffffffffffffffffff16815260200190815260200160002060008282546133c39190614608565b92505081905550609d60009054906101000a900473ffffffffffffffffffffffffffffffffffffffff1673ffffffffffffffffffffffffffffffffffffffff1663ed03b336846040518263ffffffff1660e01b81526004016134259190614163565b600060405180830381600087803b15801561343f57600080fd5b505af1158015613453573d6000803e3d6000fd5b50505050609d60009054906101000a900473ffffffffffffffffffffffffffffffffffffffff1673ffffffffffffffffffffffffffffffffffffffff1663ed03b336306040518263ffffffff1660e01b81526004016134b29190614163565b600060405180830381600087803b1580156134cc57600080fd5b505af11580156134e0573d6000803e3d6000fd5b50505050505050565b6000808273ffffffffffffffffffffffffffffffffffffffff163b119050919050565b6000603360009054906101000a900473ffffffffffffffffffffffffffffffffffffffff16905081603360006101000a81548173ffffffffffffffffffffffffffffffffffffffff021916908373ffffffffffffffffffffffffffffffffffffffff1602179055508173ffffffffffffffffffffffffffffffffffffffff168173ffffffffffffffffffffffffffffffffffffffff167f8be0079c531659141344cd1fd0a4f28419497f9722a3daafe3b4186f6b6457e060405160405180910390a35050565b60026065541415613618576040517f08c379a000000000000000000000000000000000000000000000000000000000815260040161360f90614514565b60405180910390fd5b600260658190555061362933612bd5565b6136333334613758565b61363b612fb2565b3373ffffffffffffffffffffffffffffffffffffffff167f90890809c654f11d6e72a28fa60149770a0d11ec6c92319d6ceb2bb0a4ea1a1534426040516136839291906145b8565b60405180910390a26001606581905550565b60006136a0306134e9565b15905090565b600060019054906101000a900460ff166136f5576040517f08c379a00000000000000000000000000000000000000000000000000000000081526004016136ec906144b4565b60405180910390fd5b6136fd6138de565b565b600060019054906101000a900460ff1661374e576040517f08c379a0000000000000000000000000000000000000000000000000000000008152600401613745906144b4565b60405180910390fd5b61375661393f565b565b600073ffffffffffffffffffffffffffffffffffffffff168273ffffffffffffffffffffffffffffffffffffffff1614156137c8576040517f08c379a00000000000000000000000000000000000000000000000000000000081526004016137bf90614414565b60405180910390fd5b80609860008473ffffffffffffffffffffffffffffffffffffffff1673ffffffffffffffffffffffffffffffffffffffff16815260200190815260200160002060008282546138179190614608565b9250508190555080609860003073ffffffffffffffffffffffffffffffffffffffff1673ffffffffffffffffffffffffffffffffffffffff168152602001908152602001600020600082825461386d9190614608565b925050819055508173ffffffffffffffffffffffffffffffffffffffff16600073ffffffffffffffffffffffffffffffffffffffff167fddf252ad1be2c89b69c2b068fc378daa952ba7f163c4a11628f55a4df523b3ef836040516138d29190614574565b60405180910390a35050565b600060019054906101000a900460ff1661392d576040517f08c379a0000000000000000000000000000000000000000000000000000000008152600401613924906144b4565b60405180910390fd5b61393d613938612aa7565b61350c565b565b600060019054906101000a900460ff1661398e576040517f08c379a0000000000000000000000000000000000000000000000000000000008152600401613985906144b4565b60405180910390fd5b6001606581905550565b6000813590506139a78161510c565b92915050565b6000815190506139bc81615123565b92915050565b6000813590506139d18161513a565b92915050565b6000813590506139e681615151565b92915050565b6000813590506139fb81615168565b92915050565b600081359050613a108161517f565b92915050565b600081359050613a2581615196565b92915050565b600081519050613a3a81615196565b92915050565b600060208284031215613a5257600080fd5b6000613a6084828501613998565b91505092915050565b60008060408385031215613a7c57600080fd5b6000613a8a85828601613998565b9250506020613a9b85828601613998565b9150509250929050565b600080600060608486031215613aba57600080fd5b6000613ac886828701613998565b9350506020613ad986828701613998565b9250506040613aea86828701613a16565b9150509250925092565b60008060408385031215613b0757600080fd5b6000613b1585828601613998565b9250506020613b2685828601613a16565b9150509250929050565b600060208284031215613b4257600080fd5b6000613b50848285016139ad565b91505092915050565b600060208284031215613b6b57600080fd5b6000613b79848285016139d7565b91505092915050565b600060208284031215613b9457600080fd5b6000613ba2848285016139ec565b91505092915050565b600060208284031215613bbd57600080fd5b6000613bcb84828501613a01565b91505092915050565b60008060008060808587031215613bea57600080fd5b6000613bf887828801613a01565b9450506020613c09878288016139ec565b9350506040613c1a878288016139c2565b9250506060613c2b878288016139c2565b91505092959194509250565b600060208284031215613c4957600080fd5b6000613c5784828501613a16565b91505092915050565b600060208284031215613c7257600080fd5b6000613c8084828501613a2b565b91505092915050565b60008060408385031215613c9c57600080fd5b6000613caa85828601613a16565b9250506020613cbb85828601613998565b9150509250929050565b613cce8161471d565b82525050565b613cdd8161472f565b82525050565b6000613cee826145e1565b613cf881856145ec565b9350613d088185602086016147d1565b80840191505092915050565b613d1d816147ad565b82525050565b6000613d306036836145f7565b9150613d3b82614862565b604082019050919050565b6000613d53604d836145f7565b9150613d5e826148b1565b606082019050919050565b6000613d76603d836145f7565b9150613d8182614926565b604082019050919050565b6000613d996038836145f7565b9150613da482614975565b604082019050919050565b6000613dbc6026836145f7565b9150613dc7826149c4565b604082019050919050565b6000613ddf6038836145f7565b9150613dea82614a13565b604082019050919050565b6000613e02602f836145f7565b9150613e0d82614a62565b604082019050919050565b6000613e25602a836145f7565b9150613e3082614ab1565b604082019050919050565b6000613e486026836145f7565b9150613e5382614b00565b604082019050919050565b6000613e6b6034836145f7565b9150613e7682614b4f565b604082019050919050565b6000613e8e6012836145f7565b9150613e9982614b9e565b602082019050919050565b6000613eb16027836145f7565b9150613ebc82614bc7565b604082019050919050565b6000613ed46035836145f7565b9150613edf82614c16565b604082019050919050565b6000613ef76037836145f7565b9150613f0282614c65565b604082019050919050565b6000613f1a6035836145f7565b9150613f2582614cb4565b604082019050919050565b6000613f3d602e836145f7565b9150613f4882614d03565b604082019050919050565b6000613f606020836145f7565b9150613f6b82614d52565b602082019050919050565b6000613f836024836145f7565b9150613f8e82614d7b565b604082019050919050565b6000613fa66036836145f7565b9150613fb182614dca565b604082019050919050565b6000613fc96026836145f7565b9150613fd482614e19565b604082019050919050565b6000613fec6020836145f7565b9150613ff782614e68565b602082019050919050565b600061400f602a836145f7565b915061401a82614e91565b604082019050919050565b60006140326030836145f7565b915061403d82614ee0565b604082019050919050565b6000614055602a836145f7565b915061406082614f2f565b604082019050919050565b6000614078602b836145f7565b915061408382614f7e565b604082019050919050565b600061409b6033836145f7565b91506140a682614fcd565b604082019050919050565b60006140be6013836145f7565b91506140c98261501c565b602082019050919050565b60006140e1601f836145f7565b91506140ec82615045565b602082019050919050565b60006141046031836145f7565b915061410f8261506e565b604082019050919050565b6000614127602f836145f7565b9150614132826150bd565b604082019050919050565b614146816147a3565b82525050565b60006141588284613ce3565b915081905092915050565b60006020820190506141786000830184613cc5565b92915050565b60006020820190506141936000830184613cd4565b92915050565b60006020820190506141ae6000830184613d14565b92915050565b600060208201905081810360008301526141cd81613d23565b9050919050565b600060208201905081810360008301526141ed81613d46565b9050919050565b6000602082019050818103600083015261420d81613d69565b9050919050565b6000602082019050818103600083015261422d81613d8c565b9050919050565b6000602082019050818103600083015261424d81613daf565b9050919050565b6000602082019050818103600083015261426d81613dd2565b9050919050565b6000602082019050818103600083015261428d81613df5565b9050919050565b600060208201905081810360008301526142ad81613e18565b9050919050565b600060208201905081810360008301526142cd81613e3b565b9050919050565b600060208201905081810360008301526142ed81613e5e565b9050919050565b6000602082019050818103600083015261430d81613e81565b9050919050565b6000602082019050818103600083015261432d81613ea4565b9050919050565b6000602082019050818103600083015261434d81613ec7565b9050919050565b6000602082019050818103600083015261436d81613eea565b9050919050565b6000602082019050818103600083015261438d81613f0d565b9050919050565b600060208201905081810360008301526143ad81613f30565b9050919050565b600060208201905081810360008301526143cd81613f53565b9050919050565b600060208201905081810360008301526143ed81613f76565b9050919050565b6000602082019050818103600083015261440d81613f99565b9050919050565b6000602082019050818103600083015261442d81613fbc565b9050919050565b6000602082019050818103600083015261444d81613fdf565b9050919050565b6000602082019050818103600083015261446d81614002565b9050919050565b6000602082019050818103600083015261448d81614025565b9050919050565b600060208201905081810360008301526144ad81614048565b9050919050565b600060208201905081810360008301526144cd8161406b565b9050919050565b600060208201905081810360008301526144ed8161408e565b9050919050565b6000602082019050818103600083015261450d816140b1565b9050919050565b6000602082019050818103600083015261452d816140d4565b9050919050565b6000602082019050818103600083015261454d816140f7565b9050919050565b6000602082019050818103600083015261456d8161411a565b9050919050565b6000602082019050614589600083018461413d565b92915050565b60006040820190506145a4600083018561413d565b6145b16020830184613cc5565b9392505050565b60006040820190506145cd600083018561413d565b6145da602083018461413d565b9392505050565b600081519050919050565b600081905092915050565b600082825260208201905092915050565b6000614613826147a3565b915061461e836147a3565b9250827fffffffffffffffffffffffffffffffffffffffffffffffffffffffffffffffff0382111561465357614652614804565b5b828201905092915050565b6000614669826147a3565b9150614674836147a3565b92508261468457614683614833565b5b828204905092915050565b600061469a826147a3565b91506146a5836147a3565b9250817fffffffffffffffffffffffffffffffffffffffffffffffffffffffffffffffff04831182151516156146de576146dd614804565b5b828202905092915050565b60006146f4826147a3565b91506146ff836147a3565b92508282101561471257614711614804565b5b828203905092915050565b600061472882614783565b9050919050565b60008115159050919050565b60006147468261471d565b9050919050565b60006147588261471d565b9050919050565b600061476a8261471d565b9050919050565b600061477c8261471d565b9050919050565b600073ffffffffffffffffffffffffffffffffffffffff82169050919050565b6000819050919050565b60006147b8826147bf565b9050919050565b60006147ca82614783565b9050919050565b60005b838110156147ef5780820151818401526020810190506147d4565b838111156147fe576000848401525b50505050565b7f4e487b7100000000000000000000000000000000000000000000000000000000600052601160045260246000fd5b7f4e487b7100000000000000000000000000000000000000000000000000000000600052601260045260246000fd5b7f5468657265206973206e6f7420656e6f7567682066756e647320696e2074686560008201527f20706f6f6c20746f2066756e6420746865206c6f616e00000000000000000000602082015250565b7f506f6f6c2069732066726f7a656e3a2063616e6e6f7420706572666f726d206460008201527f65706f7369742c2077697468647261772c20626f72726f7720616e642072657060208201527f6179206f7065726174696f6e7300000000000000000000000000000000000000604082015250565b7f4f6e6c7920746865206163636f756e747320617574686f72697365642062792060008201527f626f72726f77657273207265676973747279206d617920626f72726f77000000602082015250565b7f596f752061726520747279696e6720746f207265706179206d6f72652074686160008201527f742077617320626f72726f776564206279206120757365720000000000000000602082015250565b7f4f776e61626c653a206e6577206f776e657220697320746865207a65726f206160008201527f6464726573730000000000000000000000000000000000000000000000000000602082015250565b7f436f6e74726163742068617320746f20737570706f727420746865204552433760008201527f32312062616c616e63654f66282920696e746572666163650000000000000000602082015250565b7f54686520706f6f6c207574696c69736174696f6e2063616e6e6f74206265206760008201527f726561746572207468616e203935250000000000000000000000000000000000602082015250565b7f45524332303a2063616e6e6f74207472616e7366657220746f20746865207a6560008201527f726f206164647265737300000000000000000000000000000000000000000000602082015250565b7f45524332303a207472616e7366657220616d6f756e742065786365656473206260008201527f616c616e63650000000000000000000000000000000000000000000000000000602082015250565b7f5472616e7366657248656c7065723a3a736166655472616e736665724554483a60008201527f20455448207472616e73666572206661696c6564000000000000000000000000602082015250565b7f4d757374206265206120636f6e74726163740000000000000000000000000000600082015250565b7f45524332303a206275726e20616d6f756e74206578636565647320757365722060008201527f62616c616e636500000000000000000000000000000000000000000000000000602082015250565b7f4e6f7420656e6f75676820746f6b656e7320616c6c6f77656420746f2074726160008201527f6e7366657220726571756972656420616d6f756e740000000000000000000000602082015250565b7f45524332303a206275726e20616d6f756e74206578636565647320637572726560008201527f6e7420706f6f6c20696e64657865642062616c616e6365000000000000000000602082015250565b7f43757272656e7420616c6c6f77616e636520697320736d616c6c65722074686160008201527f6e20746865207375627472616374656456616c75650000000000000000000000602082015250565b7f496e697469616c697a61626c653a20636f6e747261637420697320616c72656160008201527f647920696e697469616c697a6564000000000000000000000000000000000000602082015250565b7f43616e6e6f7420626f72726f772066726f6d20616e20656d70747920706f6f6c600082015250565b7f426f72726f77657273207265676973747279206973206e6f7420636f6e66696760008201527f7572656400000000000000000000000000000000000000000000000000000000602082015250565b7f547279696e6720746f207265636f766572206d6f726520737572706c7573206660008201527f756e6473207468616e20706f6f6c2062616c616e636500000000000000000000602082015250565b7f45524332303a2063616e6e6f74206d696e7420746f20746865207a65726f206160008201527f6464726573730000000000000000000000000000000000000000000000000000602082015250565b7f4f776e61626c653a2063616c6c6572206973206e6f7420746865206f776e6572600082015250565b7f45524332303a2063616e6e6f74207472616e7366657220746f2074686520706f60008201527f6f6c206164647265737300000000000000000000000000000000000000000000602082015250565b7f43616e6e6f7420736574206e66744164647265737320746f2061206e6f6e2d6360008201527f6f6e747261637420696e7374616e636500000000000000000000000000000000602082015250565b7f416c6c6f77616e6365207370656e6465722063616e6e6f742062652061207a6560008201527f726f206164647265737300000000000000000000000000000000000000000000602082015250565b7f496e697469616c697a61626c653a20636f6e7472616374206973206e6f74206960008201527f6e697469616c697a696e67000000000000000000000000000000000000000000602082015250565b7f54686520626f72726f776572732072656769737472792063616e6e6f7420736560008201527f7420746f2061206e756c6c206164647265737300000000000000000000000000602082015250565b7f416363657373204e465420726571756972656400000000000000000000000000600082015250565b7f5265656e7472616e637947756172643a207265656e7472616e742063616c6c00600082015250565b7f547279696e6720746f207265636f766572206d6f72652066756e64732074686160008201527f6e2063757272656e7420737572706c7573000000000000000000000000000000602082015250565b7f5468657265206973206e6f7420656e6f75676820617661696c61626c6520667560008201527f6e647320746f2077697468647261770000000000000000000000000000000000602082015250565b6151158161471d565b811461512057600080fd5b50565b61512c8161472f565b811461513757600080fd5b50565b6151438161473b565b811461514e57600080fd5b50565b61515a8161474d565b811461516557600080fd5b50565b6151718161475f565b811461517c57600080fd5b50565b61518881614771565b811461519357600080fd5b50565b61519f816147a3565b81146151aa57600080fd5b5056fea2646970667358221220588cf21a6223179f18e6e81fcc4ec76f18edc28ef23fac022c1439294582b4da64736f6c63430008040033",
  "linkReferences": {},
  "deployedLinkReferences": {}
}