{
  "_format": "hh-sol-artifact-1",
  "contractName": "DestructableContract",
  "sourceName": "contracts/mock/DestructableContract.sol",
  "abi": [
    {
      "stateMutability": "payable",
      "type": "fallback"
    },
    {
      "inputs": [
        {
          "internalType": "address payable",
          "name": "receiverOfFunds",
          "type": "address"
        }
      ],
      "name": "destruct",
      "outputs": [],
      "stateMutability": "nonpayable",
      "type": "function"
    }
  ],
  "bytecode": "0x608060405234801561001057600080fd5b50610112806100206000396000f3fe608060405260043610601f5760003560e01c80631beb2615146022576020565b5b005b348015602d57600080fd5b5060446004803603810190604091906072565b6046565b005b8073ffffffffffffffffffffffffffffffffffffffff16ff5b600081359050606c8160c8565b92915050565b600060208284031215608357600080fd5b6000608f84828501605f565b91505092915050565b600060a18260a8565b9050919050565b600073ffffffffffffffffffffffffffffffffffffffff82169050919050565b60cf816098565b811460d957600080fd5b5056fea2646970667358221220d35c3e60bb4de270813e30e2eebddca6626604816a206d2acf0b325501efc13264736f6c63430008040033",
  "linkReferences": {},
  "deployedLinkReferences": {}
}