{
  "address": "0x67cE9b7F518Fd1c8991368D6e55Bd725b01C3ae5",
  "abi": [
    {
      "anonymous": false,
      "inputs": [
        {
          "indexed": true,
          "internalType": "address",
          "name": "owner",
          "type": "address"
        },
        {
          "indexed": true,
          "internalType": "address",
          "name": "spender",
          "type": "address"
        },
        {
          "indexed": false,
          "internalType": "uint256",
          "name": "value",
          "type": "uint256"
        }
      ],
      "name": "Approval",
      "type": "event"
    },
    {
      "anonymous": false,
      "inputs": [
        {
          "indexed": true,
          "internalType": "address",
          "name": "registry",
          "type": "address"
        },
        {
          "indexed": false,
          "internalType": "uint256",
          "name": "timestamp",
          "type": "uint256"
        }
      ],
      "name": "BorrowersRegistryChanged",
      "type": "event"
    },
    {
      "anonymous": false,
      "inputs": [
        {
          "indexed": true,
          "internalType": "address",
          "name": "user",
          "type": "address"
        },
        {
          "indexed": false,
          "internalType": "uint256",
          "name": "value",
          "type": "uint256"
        },
        {
          "indexed": false,
          "internalType": "uint256",
          "name": "timestamp",
          "type": "uint256"
        }
      ],
      "name": "Borrowing",
      "type": "event"
    },
    {
      "anonymous": false,
      "inputs": [
        {
          "indexed": true,
          "internalType": "address",
          "name": "user",
          "type": "address"
        },
        {
          "indexed": false,
          "internalType": "uint256",
          "name": "value",
          "type": "uint256"
        },
        {
          "indexed": false,
          "internalType": "uint256",
          "name": "timestamp",
          "type": "uint256"
        }
      ],
      "name": "Deposit",
      "type": "event"
    },
    {
      "anonymous": false,
      "inputs": [
        {
          "indexed": true,
          "internalType": "address",
          "name": "user",
          "type": "address"
        },
        {
          "indexed": false,
          "internalType": "uint256",
          "name": "value",
          "type": "uint256"
        },
        {
          "indexed": false,
          "internalType": "uint256",
          "name": "timestamp",
          "type": "uint256"
        }
      ],
      "name": "InterestCollected",
      "type": "event"
    },
    {
      "anonymous": false,
      "inputs": [
        {
          "indexed": true,
          "internalType": "address",
          "name": "previousOwner",
          "type": "address"
        },
        {
          "indexed": true,
          "internalType": "address",
          "name": "newOwner",
          "type": "address"
        }
      ],
      "name": "OwnershipTransferred",
      "type": "event"
    },
    {
      "anonymous": false,
      "inputs": [
        {
          "indexed": true,
          "internalType": "address",
          "name": "user",
          "type": "address"
        },
        {
          "indexed": false,
          "internalType": "uint256",
          "name": "value",
          "type": "uint256"
        },
        {
          "indexed": false,
          "internalType": "uint256",
          "name": "timestamp",
          "type": "uint256"
        }
      ],
      "name": "Repayment",
      "type": "event"
    },
    {
      "anonymous": false,
      "inputs": [
        {
          "indexed": true,
          "internalType": "address",
          "name": "from",
          "type": "address"
        },
        {
          "indexed": true,
          "internalType": "address",
          "name": "to",
          "type": "address"
        },
        {
          "indexed": false,
          "internalType": "uint256",
          "name": "value",
          "type": "uint256"
        }
      ],
      "name": "Transfer",
      "type": "event"
    },
    {
      "anonymous": false,
      "inputs": [
        {
          "indexed": true,
          "internalType": "address",
          "name": "user",
          "type": "address"
        },
        {
          "indexed": false,
          "internalType": "uint256",
          "name": "value",
          "type": "uint256"
        },
        {
          "indexed": false,
          "internalType": "uint256",
          "name": "timestamp",
          "type": "uint256"
        }
      ],
      "name": "Withdrawal",
      "type": "event"
    },
    {
      "inputs": [],
      "name": "MAX_POOL_UTILISATION_FOR_BORROWING",
      "outputs": [
        {
          "internalType": "uint256",
          "name": "",
          "type": "uint256"
        }
      ],
      "stateMutability": "view",
      "type": "function"
    },
    {
      "inputs": [
        {
          "internalType": "address",
          "name": "owner",
          "type": "address"
        },
        {
          "internalType": "address",
          "name": "spender",
          "type": "address"
        }
      ],
      "name": "allowance",
      "outputs": [
        {
          "internalType": "uint256",
          "name": "",
          "type": "uint256"
        }
      ],
      "stateMutability": "view",
      "type": "function"
    },
    {
      "inputs": [
        {
          "internalType": "address",
          "name": "spender",
          "type": "address"
        },
        {
          "internalType": "uint256",
          "name": "amount",
          "type": "uint256"
        }
      ],
      "name": "approve",
      "outputs": [
        {
          "internalType": "bool",
          "name": "",
          "type": "bool"
        }
      ],
      "stateMutability": "nonpayable",
      "type": "function"
    },
    {
      "inputs": [
        {
          "internalType": "address",
          "name": "user",
          "type": "address"
        }
      ],
      "name": "balanceOf",
      "outputs": [
        {
          "internalType": "uint256",
          "name": "",
          "type": "uint256"
        }
      ],
      "stateMutability": "view",
      "type": "function"
    },
    {
      "inputs": [
        {
          "internalType": "uint256",
          "name": "_amount",
          "type": "uint256"
        }
      ],
      "name": "borrow",
      "outputs": [],
      "stateMutability": "nonpayable",
      "type": "function"
    },
    {
      "inputs": [
        {
          "internalType": "address",
          "name": "",
          "type": "address"
        }
      ],
      "name": "borrowed",
      "outputs": [
        {
          "internalType": "uint256",
          "name": "",
          "type": "uint256"
        }
      ],
      "stateMutability": "view",
      "type": "function"
    },
    {
      "inputs": [
        {
          "internalType": "address",
          "name": "spender",
          "type": "address"
        },
        {
          "internalType": "uint256",
          "name": "subtractedValue",
          "type": "uint256"
        }
      ],
      "name": "decreaseAllowance",
      "outputs": [
        {
          "internalType": "bool",
          "name": "",
          "type": "bool"
        }
      ],
      "stateMutability": "nonpayable",
      "type": "function"
    },
    {
      "inputs": [],
      "name": "deposit",
      "outputs": [],
      "stateMutability": "payable",
      "type": "function"
    },
    {
      "inputs": [],
      "name": "getAccessNFT",
      "outputs": [
        {
          "internalType": "contract ERC721",
          "name": "accessNFT",
          "type": "address"
        }
      ],
      "stateMutability": "view",
      "type": "function"
    },
    {
      "inputs": [
        {
          "internalType": "address",
          "name": "_user",
          "type": "address"
        }
      ],
      "name": "getBorrowed",
      "outputs": [
        {
          "internalType": "uint256",
          "name": "",
          "type": "uint256"
        }
      ],
      "stateMutability": "view",
      "type": "function"
    },
    {
      "inputs": [],
      "name": "getBorrowingRate",
      "outputs": [
        {
          "internalType": "uint256",
          "name": "",
          "type": "uint256"
        }
      ],
      "stateMutability": "view",
      "type": "function"
    },
    {
      "inputs": [],
      "name": "getDepositRate",
      "outputs": [
        {
          "internalType": "uint256",
          "name": "",
          "type": "uint256"
        }
      ],
      "stateMutability": "view",
      "type": "function"
    },
    {
      "inputs": [
        {
          "internalType": "address",
          "name": "spender",
          "type": "address"
        },
        {
          "internalType": "uint256",
          "name": "addedValue",
          "type": "uint256"
        }
      ],
      "name": "increaseAllowance",
      "outputs": [
        {
          "internalType": "bool",
          "name": "",
          "type": "bool"
        }
      ],
      "stateMutability": "nonpayable",
      "type": "function"
    },
    {
      "inputs": [
        {
          "internalType": "contract IRatesCalculator",
          "name": "ratesCalculator_",
          "type": "address"
        },
        {
          "internalType": "contract IBorrowersRegistry",
          "name": "borrowersRegistry_",
          "type": "address"
        },
        {
          "internalType": "contract CompoundingIndex",
          "name": "depositIndex_",
          "type": "address"
        },
        {
          "internalType": "contract CompoundingIndex",
          "name": "borrowIndex_",
          "type": "address"
        }
      ],
      "name": "initialize",
      "outputs": [],
      "stateMutability": "nonpayable",
      "type": "function"
    },
    {
      "inputs": [],
      "name": "owner",
      "outputs": [
        {
          "internalType": "address",
          "name": "",
          "type": "address"
        }
      ],
      "stateMutability": "view",
      "type": "function"
    },
    {
      "inputs": [
        {
          "internalType": "uint256",
          "name": "amount",
          "type": "uint256"
        },
        {
          "internalType": "address",
          "name": "account",
          "type": "address"
        }
      ],
      "name": "recoverSurplus",
      "outputs": [],
      "stateMutability": "nonpayable",
      "type": "function"
    },
    {
      "inputs": [],
      "name": "renounceOwnership",
      "outputs": [],
      "stateMutability": "nonpayable",
      "type": "function"
    },
    {
      "inputs": [],
      "name": "repay",
      "outputs": [],
      "stateMutability": "payable",
      "type": "function"
    },
    {
      "inputs": [
        {
          "internalType": "contract ERC721",
          "name": "nftAddress",
          "type": "address"
        }
      ],
      "name": "setAccessNFT",
      "outputs": [],
      "stateMutability": "nonpayable",
      "type": "function"
    },
    {
      "inputs": [
        {
          "internalType": "contract IBorrowersRegistry",
          "name": "borrowersRegistry_",
          "type": "address"
        }
      ],
      "name": "setBorrowersRegistry",
      "outputs": [],
      "stateMutability": "nonpayable",
      "type": "function"
    },
    {
      "inputs": [
        {
          "internalType": "contract IRatesCalculator",
          "name": "ratesCalculator_",
          "type": "address"
        }
      ],
      "name": "setRatesCalculator",
      "outputs": [],
      "stateMutability": "nonpayable",
      "type": "function"
    },
    {
      "inputs": [],
      "name": "totalBorrowed",
      "outputs": [
        {
          "internalType": "uint256",
          "name": "",
          "type": "uint256"
        }
      ],
      "stateMutability": "view",
      "type": "function"
    },
    {
      "inputs": [],
      "name": "totalSupply",
      "outputs": [
        {
          "internalType": "uint256",
          "name": "",
          "type": "uint256"
        }
      ],
      "stateMutability": "view",
      "type": "function"
    },
    {
      "inputs": [
        {
          "internalType": "address",
          "name": "recipient",
          "type": "address"
        },
        {
          "internalType": "uint256",
          "name": "amount",
          "type": "uint256"
        }
      ],
      "name": "transfer",
      "outputs": [
        {
          "internalType": "bool",
          "name": "",
          "type": "bool"
        }
      ],
      "stateMutability": "nonpayable",
      "type": "function"
    },
    {
      "inputs": [
        {
          "internalType": "address",
          "name": "sender",
          "type": "address"
        },
        {
          "internalType": "address",
          "name": "recipient",
          "type": "address"
        },
        {
          "internalType": "uint256",
          "name": "amount",
          "type": "uint256"
        }
      ],
      "name": "transferFrom",
      "outputs": [
        {
          "internalType": "bool",
          "name": "",
          "type": "bool"
        }
      ],
      "stateMutability": "nonpayable",
      "type": "function"
    },
    {
      "inputs": [
        {
          "internalType": "address",
          "name": "newOwner",
          "type": "address"
        }
      ],
      "name": "transferOwnership",
      "outputs": [],
      "stateMutability": "nonpayable",
      "type": "function"
    },
    {
      "inputs": [
        {
          "internalType": "uint256",
          "name": "_amount",
          "type": "uint256"
        }
      ],
      "name": "withdraw",
      "outputs": [],
      "stateMutability": "nonpayable",
      "type": "function"
    }
  ],
  "transactionHash": "0xe79bd79987cbfe2aaa25ebc12b504b98e42075c26cef86bf9d17289ba723a5c9",
  "args": [],
  "numDeployments": 1,
  "solcInputHash": "240adf3daf1304e715dd863b493e3176",
  "bytecode": "0x608060405234801561001057600080fd5b5061511b806100206000396000f3fe60806040526004361061019c5760003560e01c8063715018a6116100ec578063d0e30db01161008a578063f2fde38b11610064578063f2fde38b146105c0578063f36b2425146105e9578063f8c8765e14610614578063fc68f6611461063d5761019c565b8063d0e30db01461054e578063dd62ed3e14610558578063e3fcd8d1146105955761019c565b8063a457c2d7116100c6578063a457c2d714610480578063a9059cbb146104bd578063b790634e146104fa578063c5ebeaec146105255761019c565b8063715018a6146104135780638da5cb5b1461042a5780639dcee9a4146104555761019c565b806339509351116101595780634c19386c116101335780634c19386c146103455780636011163e1461037057806370a08231146103ad57806370d4cea0146103ea5761019c565b806339509351146102d5578063402d888314610312578063429c9a5a1461031c5761019c565b80630790ef9a146101a15780630941cb3d146101ca578063095ea7b31461020757806318160ddd1461024457806323b872dd1461026f5780632e1a7d4d146102ac575b600080fd5b3480156101ad57600080fd5b506101c860048036038101906101c39190613c53565b610666565b005b3480156101d657600080fd5b506101f160048036038101906101ec9190613a0a565b610815565b6040516101fe91906144fb565b60405180910390f35b34801561021357600080fd5b5061022e60048036038101906102299190613abe565b61082d565b60405161023b9190614125565b60405180910390f35b34801561025057600080fd5b5061025961098e565b60405161026691906144fb565b60405180910390f35b34801561027b57600080fd5b5061029660048036038101906102919190613a6f565b61099e565b6040516102a39190614125565b60405180910390f35b3480156102b857600080fd5b506102d360048036038101906102ce9190613c01565b610d81565b005b3480156102e157600080fd5b506102fc60048036038101906102f79190613abe565b610eb1565b6040516103099190614125565b60405180910390f35b61031a61109f565b005b34801561032857600080fd5b50610343600480360381019061033e9190613b23565b611286565b005b34801561035157600080fd5b5061035a611508565b60405161036791906144fb565b60405180910390f35b34801561037c57600080fd5b5061039760048036038101906103929190613a0a565b611518565b6040516103a491906144fb565b60405180910390f35b3480156103b957600080fd5b506103d460048036038101906103cf9190613a0a565b61160d565b6040516103e191906144fb565b60405180910390f35b3480156103f657600080fd5b50610411600480360381019061040c9190613b75565b611702565b005b34801561041f57600080fd5b5061042861187e565b005b34801561043657600080fd5b5061043f611906565b60405161044c919061410a565b60405180910390f35b34801561046157600080fd5b5061046a611930565b60405161047791906144fb565b60405180910390f35b34801561048c57600080fd5b506104a760048036038101906104a29190613abe565b61193c565b6040516104b49190614125565b60405180910390f35b3480156104c957600080fd5b506104e460048036038101906104df9190613abe565b611b73565b6040516104f19190614125565b60405180910390f35b34801561050657600080fd5b5061050f611df9565b60405161051c91906144fb565b60405180910390f35b34801561053157600080fd5b5061054c60048036038101906105479190613c01565b611ebb565b005b610556612295565b005b34801561056457600080fd5b5061057f600480360381019061057a9190613a33565b6123de565b60405161058c91906144fb565b60405180910390f35b3480156105a157600080fd5b506105aa612465565b6040516105b79190614140565b60405180910390f35b3480156105cc57600080fd5b506105e760048036038101906105e29190613a0a565b6124a5565b005b3480156105f557600080fd5b506105fe61259d565b60405161060b91906144fb565b60405180910390f35b34801561062057600080fd5b5061063b60048036038101906106369190613b9e565b61265f565b005b34801561064957600080fd5b50610664600480360381019061065f9190613b4c565b6128ab565b005b61066e612a71565b73ffffffffffffffffffffffffffffffffffffffff1661068c611906565b73ffffffffffffffffffffffffffffffffffffffff16146106e2576040517f08c379a00000000000000000000000000000000000000000000000000000000081526004016106d9906143db565b60405180910390fd5b60026065541415610728576040517f08c379a000000000000000000000000000000000000000000000000000000000815260040161071f906144bb565b60405180910390fd5b6002606581905550600061073a61098e565b610742611508565b4761074d919061458f565b6107579190614670565b90504783111561079c576040517f08c379a00000000000000000000000000000000000000000000000000000000081526004016107939061439b565b60405180910390fd5b808311156107df576040517f08c379a00000000000000000000000000000000000000000000000000000000081526004016107d6906144db565b60405180910390fd5b610808838373ffffffffffffffffffffffffffffffffffffffff16612a7990919063ffffffff16565b5060016065819055505050565b60996020528060005260406000206000915090505481565b60008073ffffffffffffffffffffffffffffffffffffffff168373ffffffffffffffffffffffffffffffffffffffff16141561089e576040517f08c379a00000000000000000000000000000000000000000000000000000000081526004016108959061443b565b60405180910390fd5b81609760003373ffffffffffffffffffffffffffffffffffffffff1673ffffffffffffffffffffffffffffffffffffffff16815260200190815260200160002060008573ffffffffffffffffffffffffffffffffffffffff1673ffffffffffffffffffffffffffffffffffffffff168152602001908152602001600020819055508273ffffffffffffffffffffffffffffffffffffffff163373ffffffffffffffffffffffffffffffffffffffff167f8c5be1e5ebec7d5bd14f71427d1e84f3dd0314c0f7b2291e5b200ac8c7c3b9258460405161097c91906144fb565b60405180910390a36001905092915050565b60006109993061160d565b905090565b600081609760008673ffffffffffffffffffffffffffffffffffffffff1673ffffffffffffffffffffffffffffffffffffffff16815260200190815260200160002060003373ffffffffffffffffffffffffffffffffffffffff1673ffffffffffffffffffffffffffffffffffffffff168152602001908152602001600020541015610a5f576040517f08c379a0000000000000000000000000000000000000000000000000000000008152600401610a56906142db565b60405180910390fd5b600073ffffffffffffffffffffffffffffffffffffffff168373ffffffffffffffffffffffffffffffffffffffff161415610acf576040517f08c379a0000000000000000000000000000000000000000000000000000000008152600401610ac69061423b565b60405180910390fd5b3073ffffffffffffffffffffffffffffffffffffffff168373ffffffffffffffffffffffffffffffffffffffff161415610b3e576040517f08c379a0000000000000000000000000000000000000000000000000000000008152600401610b35906143fb565b60405180910390fd5b610b4733612b9f565b81609860008673ffffffffffffffffffffffffffffffffffffffff1673ffffffffffffffffffffffffffffffffffffffff168152602001908152602001600020541015610bc9576040517f08c379a0000000000000000000000000000000000000000000000000000000008152600401610bc09061425b565b60405180910390fd5b81609860008673ffffffffffffffffffffffffffffffffffffffff1673ffffffffffffffffffffffffffffffffffffffff1681526020019081526020016000206000828254610c189190614670565b9250508190555081609760008673ffffffffffffffffffffffffffffffffffffffff1673ffffffffffffffffffffffffffffffffffffffff16815260200190815260200160002060003373ffffffffffffffffffffffffffffffffffffffff1673ffffffffffffffffffffffffffffffffffffffff1681526020019081526020016000206000828254610cab9190614670565b92505081905550610cbb83612b9f565b81609860008573ffffffffffffffffffffffffffffffffffffffff1673ffffffffffffffffffffffffffffffffffffffff1681526020019081526020016000206000828254610d0a919061458f565b925050819055508273ffffffffffffffffffffffffffffffffffffffff168473ffffffffffffffffffffffffffffffffffffffff167fddf252ad1be2c89b69c2b068fc378daa952ba7f163c4a11628f55a4df523b3ef84604051610d6e91906144fb565b60405180910390a3600190509392505050565b60026065541415610dc7576040517f08c379a0000000000000000000000000000000000000000000000000000000008152600401610dbe906144bb565b60405180910390fd5b600260658190555080471015610e12576040517f08c379a0000000000000000000000000000000000000000000000000000000008152600401610e099061415b565b60405180910390fd5b610e1b33612b9f565b610e253382612d74565b610e4e813373ffffffffffffffffffffffffffffffffffffffff16612a7990919063ffffffff16565b610e56612f7c565b3373ffffffffffffffffffffffffffffffffffffffff167fdf273cb619d95419a9cd0ec88123a0538c85064229baa6363788f743fff90deb8242604051610e9e92919061453f565b60405180910390a2600160658190555050565b60008073ffffffffffffffffffffffffffffffffffffffff168373ffffffffffffffffffffffffffffffffffffffff161415610f22576040517f08c379a0000000000000000000000000000000000000000000000000000000008152600401610f199061443b565b60405180910390fd5b600082609760003373ffffffffffffffffffffffffffffffffffffffff1673ffffffffffffffffffffffffffffffffffffffff16815260200190815260200160002060008673ffffffffffffffffffffffffffffffffffffffff1673ffffffffffffffffffffffffffffffffffffffff16815260200190815260200160002054610fac919061458f565b905080609760003373ffffffffffffffffffffffffffffffffffffffff1673ffffffffffffffffffffffffffffffffffffffff16815260200190815260200160002060008673ffffffffffffffffffffffffffffffffffffffff1673ffffffffffffffffffffffffffffffffffffffff168152602001908152602001600020819055508373ffffffffffffffffffffffffffffffffffffffff163373ffffffffffffffffffffffffffffffffffffffff167f8c5be1e5ebec7d5bd14f71427d1e84f3dd0314c0f7b2291e5b200ac8c7c3b9258360405161108c91906144fb565b60405180910390a3600191505092915050565b600260655414156110e5576040517f08c379a00000000000000000000000000000000000000000000000000000000081526004016110dc906144bb565b60405180910390fd5b60026065819055506110f63361329e565b34609960003373ffffffffffffffffffffffffffffffffffffffff1673ffffffffffffffffffffffffffffffffffffffff168152602001908152602001600020541015611178576040517f08c379a000000000000000000000000000000000000000000000000000000000815260040161116f906141bb565b60405180910390fd5b34609960003373ffffffffffffffffffffffffffffffffffffffff1673ffffffffffffffffffffffffffffffffffffffff16815260200190815260200160002060008282546111c79190614670565b9250508190555034609960003073ffffffffffffffffffffffffffffffffffffffff1673ffffffffffffffffffffffffffffffffffffffff168152602001908152602001600020600082825461121d9190614670565b9250508190555061122c612f7c565b3373ffffffffffffffffffffffffffffffffffffffff167f24fcca58a997b1b2eff6db8107e860458544c09ddd3693b3b779e1df6c0d6c5d344260405161127492919061453f565b60405180910390a26001606581905550565b61128e612a71565b73ffffffffffffffffffffffffffffffffffffffff166112ac611906565b73ffffffffffffffffffffffffffffffffffffffff1614611302576040517f08c379a00000000000000000000000000000000000000000000000000000000081526004016112f9906143db565b60405180910390fd5b600073ffffffffffffffffffffffffffffffffffffffff168173ffffffffffffffffffffffffffffffffffffffff16146114ca5761133f816134b3565b61137e576040517f08c379a00000000000000000000000000000000000000000000000000000000081526004016113759061441b565b60405180910390fd5b6000808273ffffffffffffffffffffffffffffffffffffffff16336040516024016113a9919061410a565b6040516020818303038152906040527f70a08231000000000000000000000000000000000000000000000000000000007bffffffffffffffffffffffffffffffffffffffffffffffffffffffff19166020820180517bffffffffffffffffffffffffffffffffffffffffffffffffffffffff838183161783525050505060405161143391906140f3565b6000604051808303816000865af19150503d8060008114611470576040519150601f19603f3d011682016040523d82523d6000602084013e611475565b606091505b5091509150818015611488575060008151115b6114c7576040517f08c379a00000000000000000000000000000000000000000000000000000000081526004016114be906141fb565b60405180910390fd5b50505b600060017f05df0919f17c81dab74a24e96f8e9fcaf2f7ae9ec785467bc9a30e698771439060001c6114fc9190614670565b60001b90508181555050565b600061151330611518565b905090565b6000609d60009054906101000a900473ffffffffffffffffffffffffffffffffffffffff1673ffffffffffffffffffffffffffffffffffffffff1663966da889609960008573ffffffffffffffffffffffffffffffffffffffff1673ffffffffffffffffffffffffffffffffffffffff16815260200190815260200160002054846040518363ffffffff1660e01b81526004016115b6929190614516565b60206040518083038186803b1580156115ce57600080fd5b505afa1580156115e2573d6000803e3d6000fd5b505050506040513d601f19601f820116820180604052508101906116069190613c2a565b9050919050565b6000609c60009054906101000a900473ffffffffffffffffffffffffffffffffffffffff1673ffffffffffffffffffffffffffffffffffffffff1663966da889609860008573ffffffffffffffffffffffffffffffffffffffff1673ffffffffffffffffffffffffffffffffffffffff16815260200190815260200160002054846040518363ffffffff1660e01b81526004016116ab929190614516565b60206040518083038186803b1580156116c357600080fd5b505afa1580156116d7573d6000803e3d6000fd5b505050506040513d601f19601f820116820180604052508101906116fb9190613c2a565b9050919050565b61170a612a71565b73ffffffffffffffffffffffffffffffffffffffff16611728611906565b73ffffffffffffffffffffffffffffffffffffffff161461177e576040517f08c379a0000000000000000000000000000000000000000000000000000000008152600401611775906143db565b60405180910390fd5b611787816134b3565b806117be5750600073ffffffffffffffffffffffffffffffffffffffff168173ffffffffffffffffffffffffffffffffffffffff16145b6117fd576040517f08c379a00000000000000000000000000000000000000000000000000000000081526004016117f49061429b565b60405180910390fd5b80609a60006101000a81548173ffffffffffffffffffffffffffffffffffffffff021916908373ffffffffffffffffffffffffffffffffffffffff160217905550600073ffffffffffffffffffffffffffffffffffffffff168173ffffffffffffffffffffffffffffffffffffffff161461187b5761187a612f7c565b5b50565b611886612a71565b73ffffffffffffffffffffffffffffffffffffffff166118a4611906565b73ffffffffffffffffffffffffffffffffffffffff16146118fa576040517f08c379a00000000000000000000000000000000000000000000000000000000081526004016118f1906143db565b60405180910390fd5b61190460006134d6565b565b6000603360009054906101000a900473ffffffffffffffffffffffffffffffffffffffff16905090565b670d2f13f7789f000081565b60008073ffffffffffffffffffffffffffffffffffffffff168373ffffffffffffffffffffffffffffffffffffffff1614156119ad576040517f08c379a00000000000000000000000000000000000000000000000000000000081526004016119a49061443b565b60405180910390fd5b6000609760003373ffffffffffffffffffffffffffffffffffffffff1673ffffffffffffffffffffffffffffffffffffffff16815260200190815260200160002060008573ffffffffffffffffffffffffffffffffffffffff1673ffffffffffffffffffffffffffffffffffffffff16815260200190815260200160002054905082811015611a71576040517f08c379a0000000000000000000000000000000000000000000000000000000008152600401611a689061431b565b60405180910390fd5b60008382611a7f9190614670565b905080609760003373ffffffffffffffffffffffffffffffffffffffff1673ffffffffffffffffffffffffffffffffffffffff16815260200190815260200160002060008773ffffffffffffffffffffffffffffffffffffffff1673ffffffffffffffffffffffffffffffffffffffff168152602001908152602001600020819055508473ffffffffffffffffffffffffffffffffffffffff163373ffffffffffffffffffffffffffffffffffffffff167f8c5be1e5ebec7d5bd14f71427d1e84f3dd0314c0f7b2291e5b200ac8c7c3b92583604051611b5f91906144fb565b60405180910390a360019250505092915050565b60008073ffffffffffffffffffffffffffffffffffffffff168373ffffffffffffffffffffffffffffffffffffffff161415611be4576040517f08c379a0000000000000000000000000000000000000000000000000000000008152600401611bdb9061423b565b60405180910390fd5b3073ffffffffffffffffffffffffffffffffffffffff168373ffffffffffffffffffffffffffffffffffffffff161415611c53576040517f08c379a0000000000000000000000000000000000000000000000000000000008152600401611c4a906143fb565b60405180910390fd5b611c5c33612b9f565b81609860003373ffffffffffffffffffffffffffffffffffffffff1673ffffffffffffffffffffffffffffffffffffffff168152602001908152602001600020541015611cde576040517f08c379a0000000000000000000000000000000000000000000000000000000008152600401611cd59061425b565b60405180910390fd5b81609860003373ffffffffffffffffffffffffffffffffffffffff1673ffffffffffffffffffffffffffffffffffffffff16815260200190815260200160002060008282540392505081905550611d3483612b9f565b81609860008573ffffffffffffffffffffffffffffffffffffffff1673ffffffffffffffffffffffffffffffffffffffff1681526020019081526020016000206000828254611d83919061458f565b925050819055508273ffffffffffffffffffffffffffffffffffffffff163373ffffffffffffffffffffffffffffffffffffffff167fddf252ad1be2c89b69c2b068fc378daa952ba7f163c4a11628f55a4df523b3ef84604051611de791906144fb565b60405180910390a36001905092915050565b6000609a60009054906101000a900473ffffffffffffffffffffffffffffffffffffffff1673ffffffffffffffffffffffffffffffffffffffff16637cd08331611e41611508565b611e4961098e565b6040518363ffffffff1660e01b8152600401611e6692919061453f565b60206040518083038186803b158015611e7e57600080fd5b505afa158015611e92573d6000803e3d6000fd5b505050506040513d601f19601f82011682018060405250810190611eb69190613c2a565b905090565b600073ffffffffffffffffffffffffffffffffffffffff16609b60009054906101000a900473ffffffffffffffffffffffffffffffffffffffff1673ffffffffffffffffffffffffffffffffffffffff161415611f4d576040517f08c379a0000000000000000000000000000000000000000000000000000000008152600401611f449061437b565b60405180910390fd5b609b60009054906101000a900473ffffffffffffffffffffffffffffffffffffffff1673ffffffffffffffffffffffffffffffffffffffff16630e7fc864336040518263ffffffff1660e01b8152600401611fa8919061410a565b60206040518083038186803b158015611fc057600080fd5b505afa158015611fd4573d6000803e3d6000fd5b505050506040513d601f19601f82011682018060405250810190611ff89190613afa565b612037576040517f08c379a000000000000000000000000000000000000000000000000000000000815260040161202e9061419b565b60405180910390fd5b600061204161098e565b1415612082576040517f08c379a00000000000000000000000000000000000000000000000000000000081526004016120799061435b565b60405180910390fd5b600260655414156120c8576040517f08c379a00000000000000000000000000000000000000000000000000000000081526004016120bf906144bb565b60405180910390fd5b6002606581905550804710156120dd57600080fd5b6120e63361329e565b80609960003373ffffffffffffffffffffffffffffffffffffffff1673ffffffffffffffffffffffffffffffffffffffff1681526020019081526020016000206000828254612135919061458f565b9250508190555080609960003073ffffffffffffffffffffffffffffffffffffffff1673ffffffffffffffffffffffffffffffffffffffff168152602001908152602001600020600082825461218b919061458f565b925050819055506121bb813373ffffffffffffffffffffffffffffffffffffffff16612a7990919063ffffffff16565b6121c3612f7c565b3373ffffffffffffffffffffffffffffffffffffffff167fd6b37be10b58108f696d9ed067fedad0bff7cb417ef4c28d2f8a25d6d83c98d5824260405161220b92919061453f565b60405180910390a26001606581905550670d2f13f7789f000061222c61098e565b670de0b6b3a764000061223d611508565b6122479190614616565b61225191906145e5565b1115612292576040517f08c379a00000000000000000000000000000000000000000000000000000000081526004016122899061421b565b60405180910390fd5b50565b600060017f05df0919f17c81dab74a24e96f8e9fcaf2f7ae9ec785467bc9a30e698771439060001c6122c79190614670565b60001b9050600081549050600073ffffffffffffffffffffffffffffffffffffffff168173ffffffffffffffffffffffffffffffffffffffff16146123d25760008173ffffffffffffffffffffffffffffffffffffffff166370a08231336040518263ffffffff1660e01b8152600401612341919061410a565b60206040518083038186803b15801561235957600080fd5b505afa15801561236d573d6000803e3d6000fd5b505050506040513d601f19601f820116820180604052508101906123919190613c2a565b116123d1576040517f08c379a00000000000000000000000000000000000000000000000000000000081526004016123c89061449b565b60405180910390fd5b5b6123da61359c565b5050565b6000609760008473ffffffffffffffffffffffffffffffffffffffff1673ffffffffffffffffffffffffffffffffffffffff16815260200190815260200160002060008373ffffffffffffffffffffffffffffffffffffffff1673ffffffffffffffffffffffffffffffffffffffff16815260200190815260200160002054905092915050565b60008060017f05df0919f17c81dab74a24e96f8e9fcaf2f7ae9ec785467bc9a30e698771439060001c6124989190614670565b60001b9050805491505090565b6124ad612a71565b73ffffffffffffffffffffffffffffffffffffffff166124cb611906565b73ffffffffffffffffffffffffffffffffffffffff1614612521576040517f08c379a0000000000000000000000000000000000000000000000000000000008152600401612518906143db565b60405180910390fd5b600073ffffffffffffffffffffffffffffffffffffffff168173ffffffffffffffffffffffffffffffffffffffff161415612591576040517f08c379a0000000000000000000000000000000000000000000000000000000008152600401612588906141db565b60405180910390fd5b61259a816134d6565b50565b6000609a60009054906101000a900473ffffffffffffffffffffffffffffffffffffffff1673ffffffffffffffffffffffffffffffffffffffff1663df841eec6125e5611508565b6125ed61098e565b6040518363ffffffff1660e01b815260040161260a92919061453f565b60206040518083038186803b15801561262257600080fd5b505afa158015612636573d6000803e3d6000fd5b505050506040513d601f19601f8201168201806040525081019061265a9190613c2a565b905090565b600060019054906101000a900460ff166126875760008054906101000a900460ff1615612690565b61268f61365f565b5b6126cf576040517f08c379a00000000000000000000000000000000000000000000000000000000081526004016126c69061433b565b60405180910390fd5b60008060019054906101000a900460ff16159050801561271f576001600060016101000a81548160ff02191690831515021790555060016000806101000a81548160ff0219169083151502179055505b612728846134b3565b612767576040517f08c379a000000000000000000000000000000000000000000000000000000000815260040161275e9061429b565b60405180910390fd5b83609b60006101000a81548173ffffffffffffffffffffffffffffffffffffffff021916908373ffffffffffffffffffffffffffffffffffffffff16021790555084609a60006101000a81548173ffffffffffffffffffffffffffffffffffffffff021916908373ffffffffffffffffffffffffffffffffffffffff16021790555082609c60006101000a81548173ffffffffffffffffffffffffffffffffffffffff021916908373ffffffffffffffffffffffffffffffffffffffff16021790555081609d60006101000a81548173ffffffffffffffffffffffffffffffffffffffff021916908373ffffffffffffffffffffffffffffffffffffffff160217905550612873613670565b61287b6136c9565b612883612f7c565b80156128a45760008060016101000a81548160ff0219169083151502179055505b5050505050565b6128b3612a71565b73ffffffffffffffffffffffffffffffffffffffff166128d1611906565b73ffffffffffffffffffffffffffffffffffffffff1614612927576040517f08c379a000000000000000000000000000000000000000000000000000000000815260040161291e906143db565b60405180910390fd5b600073ffffffffffffffffffffffffffffffffffffffff168173ffffffffffffffffffffffffffffffffffffffff161415612997576040517f08c379a000000000000000000000000000000000000000000000000000000000815260040161298e9061447b565b60405180910390fd5b6129a0816134b3565b6129df576040517f08c379a00000000000000000000000000000000000000000000000000000000081526004016129d69061429b565b60405180910390fd5b80609b60006101000a81548173ffffffffffffffffffffffffffffffffffffffff021916908373ffffffffffffffffffffffffffffffffffffffff1602179055508073ffffffffffffffffffffffffffffffffffffffff167f04dce7d074f7e287a2e6e3516c802271d58d5c14e0dede83a49719eb6b92046942604051612a6691906144fb565b60405180910390a250565b600033905090565b60008273ffffffffffffffffffffffffffffffffffffffff1682600067ffffffffffffffff811115612ad4577f4e487b7100000000000000000000000000000000000000000000000000000000600052604160045260246000fd5b6040519080825280601f01601f191660200182016040528015612b065781602001600182028036833780820191505090505b50604051612b1491906140f3565b60006040518083038185875af1925050503d8060008114612b51576040519150601f19603f3d011682016040523d82523d6000602084013e612b56565b606091505b5050905080612b9a576040517f08c379a0000000000000000000000000000000000000000000000000000000008152600401612b919061427b565b60405180910390fd5b505050565b6000612baa8261160d565b90506000609860008473ffffffffffffffffffffffffffffffffffffffff1673ffffffffffffffffffffffffffffffffffffffff1681526020019081526020016000205482612bf99190614670565b9050612c058382613722565b8273ffffffffffffffffffffffffffffffffffffffff167f9bbd517758fbae61197f1c1c04c8614064e89512dbaf4350dcdf76fcaa5e21618242604051612c4d92919061453f565b60405180910390a2609c60009054906101000a900473ffffffffffffffffffffffffffffffffffffffff1673ffffffffffffffffffffffffffffffffffffffff1663ed03b336846040518263ffffffff1660e01b8152600401612cb0919061410a565b600060405180830381600087803b158015612cca57600080fd5b505af1158015612cde573d6000803e3d6000fd5b50505050609c60009054906101000a900473ffffffffffffffffffffffffffffffffffffffff1673ffffffffffffffffffffffffffffffffffffffff1663ed03b336306040518263ffffffff1660e01b8152600401612d3d919061410a565b600060405180830381600087803b158015612d5757600080fd5b505af1158015612d6b573d6000803e3d6000fd5b50505050505050565b80609860008473ffffffffffffffffffffffffffffffffffffffff1673ffffffffffffffffffffffffffffffffffffffff168152602001908152602001600020541015612df6576040517f08c379a0000000000000000000000000000000000000000000000000000000008152600401612ded906142bb565b60405180910390fd5b80609860003073ffffffffffffffffffffffffffffffffffffffff1673ffffffffffffffffffffffffffffffffffffffff168152602001908152602001600020541015612e78576040517f08c379a0000000000000000000000000000000000000000000000000000000008152600401612e6f906142fb565b60405180910390fd5b80609860008473ffffffffffffffffffffffffffffffffffffffff1673ffffffffffffffffffffffffffffffffffffffff1681526020019081526020016000206000828254039250508190555080609860003073ffffffffffffffffffffffffffffffffffffffff1673ffffffffffffffffffffffffffffffffffffffff16815260200190815260200160002060008282540392505081905550600073ffffffffffffffffffffffffffffffffffffffff168273ffffffffffffffffffffffffffffffffffffffff167fddf252ad1be2c89b69c2b068fc378daa952ba7f163c4a11628f55a4df523b3ef83604051612f7091906144fb565b60405180910390a35050565b600073ffffffffffffffffffffffffffffffffffffffff16609a60009054906101000a900473ffffffffffffffffffffffffffffffffffffffff1673ffffffffffffffffffffffffffffffffffffffff16141561300e576040517f08c379a00000000000000000000000000000000000000000000000000000000081526004016130059061417b565b60405180910390fd5b609c60009054906101000a900473ffffffffffffffffffffffffffffffffffffffff1673ffffffffffffffffffffffffffffffffffffffff166334fcf437609a60009054906101000a900473ffffffffffffffffffffffffffffffffffffffff1673ffffffffffffffffffffffffffffffffffffffff16637cd08331613092611508565b61309a61098e565b6040518363ffffffff1660e01b81526004016130b792919061453f565b60206040518083038186803b1580156130cf57600080fd5b505afa1580156130e3573d6000803e3d6000fd5b505050506040513d601f19601f820116820180604052508101906131079190613c2a565b6040518263ffffffff1660e01b815260040161312391906144fb565b600060405180830381600087803b15801561313d57600080fd5b505af1158015613151573d6000803e3d6000fd5b50505050609d60009054906101000a900473ffffffffffffffffffffffffffffffffffffffff1673ffffffffffffffffffffffffffffffffffffffff166334fcf437609a60009054906101000a900473ffffffffffffffffffffffffffffffffffffffff1673ffffffffffffffffffffffffffffffffffffffff1663df841eec6131d9611508565b6131e161098e565b6040518363ffffffff1660e01b81526004016131fe92919061453f565b60206040518083038186803b15801561321657600080fd5b505afa15801561322a573d6000803e3d6000fd5b505050506040513d601f19601f8201168201806040525081019061324e9190613c2a565b6040518263ffffffff1660e01b815260040161326a91906144fb565b600060405180830381600087803b15801561328457600080fd5b505af1158015613298573d6000803e3d6000fd5b50505050565b60006132a982611518565b90506000609960008473ffffffffffffffffffffffffffffffffffffffff1673ffffffffffffffffffffffffffffffffffffffff16815260200190815260200160002054826132f89190614670565b905081609960008573ffffffffffffffffffffffffffffffffffffffff1673ffffffffffffffffffffffffffffffffffffffff1681526020019081526020016000208190555080609960003073ffffffffffffffffffffffffffffffffffffffff1673ffffffffffffffffffffffffffffffffffffffff168152602001908152602001600020600082825461338d919061458f565b92505081905550609d60009054906101000a900473ffffffffffffffffffffffffffffffffffffffff1673ffffffffffffffffffffffffffffffffffffffff1663ed03b336846040518263ffffffff1660e01b81526004016133ef919061410a565b600060405180830381600087803b15801561340957600080fd5b505af115801561341d573d6000803e3d6000fd5b50505050609d60009054906101000a900473ffffffffffffffffffffffffffffffffffffffff1673ffffffffffffffffffffffffffffffffffffffff1663ed03b336306040518263ffffffff1660e01b815260040161347c919061410a565b600060405180830381600087803b15801561349657600080fd5b505af11580156134aa573d6000803e3d6000fd5b50505050505050565b6000808273ffffffffffffffffffffffffffffffffffffffff163b119050919050565b6000603360009054906101000a900473ffffffffffffffffffffffffffffffffffffffff16905081603360006101000a81548173ffffffffffffffffffffffffffffffffffffffff021916908373ffffffffffffffffffffffffffffffffffffffff1602179055508173ffffffffffffffffffffffffffffffffffffffff168173ffffffffffffffffffffffffffffffffffffffff167f8be0079c531659141344cd1fd0a4f28419497f9722a3daafe3b4186f6b6457e060405160405180910390a35050565b600260655414156135e2576040517f08c379a00000000000000000000000000000000000000000000000000000000081526004016135d9906144bb565b60405180910390fd5b60026065819055506135f333612b9f565b6135fd3334613722565b613605612f7c565b3373ffffffffffffffffffffffffffffffffffffffff167f90890809c654f11d6e72a28fa60149770a0d11ec6c92319d6ceb2bb0a4ea1a15344260405161364d92919061453f565b60405180910390a26001606581905550565b600061366a306134b3565b15905090565b600060019054906101000a900460ff166136bf576040517f08c379a00000000000000000000000000000000000000000000000000000000081526004016136b69061445b565b60405180910390fd5b6136c76138a8565b565b600060019054906101000a900460ff16613718576040517f08c379a000000000000000000000000000000000000000000000000000000000815260040161370f9061445b565b60405180910390fd5b613720613909565b565b600073ffffffffffffffffffffffffffffffffffffffff168273ffffffffffffffffffffffffffffffffffffffff161415613792576040517f08c379a0000000000000000000000000000000000000000000000000000000008152600401613789906143bb565b60405180910390fd5b80609860008473ffffffffffffffffffffffffffffffffffffffff1673ffffffffffffffffffffffffffffffffffffffff16815260200190815260200160002060008282546137e1919061458f565b9250508190555080609860003073ffffffffffffffffffffffffffffffffffffffff1673ffffffffffffffffffffffffffffffffffffffff1681526020019081526020016000206000828254613837919061458f565b925050819055508173ffffffffffffffffffffffffffffffffffffffff16600073ffffffffffffffffffffffffffffffffffffffff167fddf252ad1be2c89b69c2b068fc378daa952ba7f163c4a11628f55a4df523b3ef8360405161389c91906144fb565b60405180910390a35050565b600060019054906101000a900460ff166138f7576040517f08c379a00000000000000000000000000000000000000000000000000000000081526004016138ee9061445b565b60405180910390fd5b613907613902612a71565b6134d6565b565b600060019054906101000a900460ff16613958576040517f08c379a000000000000000000000000000000000000000000000000000000000815260040161394f9061445b565b60405180910390fd5b6001606581905550565b60008135905061397181615044565b92915050565b6000815190506139868161505b565b92915050565b60008135905061399b81615072565b92915050565b6000813590506139b081615089565b92915050565b6000813590506139c5816150a0565b92915050565b6000813590506139da816150b7565b92915050565b6000813590506139ef816150ce565b92915050565b600081519050613a04816150ce565b92915050565b600060208284031215613a1c57600080fd5b6000613a2a84828501613962565b91505092915050565b60008060408385031215613a4657600080fd5b6000613a5485828601613962565b9250506020613a6585828601613962565b9150509250929050565b600080600060608486031215613a8457600080fd5b6000613a9286828701613962565b9350506020613aa386828701613962565b9250506040613ab4868287016139e0565b9150509250925092565b60008060408385031215613ad157600080fd5b6000613adf85828601613962565b9250506020613af0858286016139e0565b9150509250929050565b600060208284031215613b0c57600080fd5b6000613b1a84828501613977565b91505092915050565b600060208284031215613b3557600080fd5b6000613b43848285016139a1565b91505092915050565b600060208284031215613b5e57600080fd5b6000613b6c848285016139b6565b91505092915050565b600060208284031215613b8757600080fd5b6000613b95848285016139cb565b91505092915050565b60008060008060808587031215613bb457600080fd5b6000613bc2878288016139cb565b9450506020613bd3878288016139b6565b9350506040613be48782880161398c565b9250506060613bf58782880161398c565b91505092959194509250565b600060208284031215613c1357600080fd5b6000613c21848285016139e0565b91505092915050565b600060208284031215613c3c57600080fd5b6000613c4a848285016139f5565b91505092915050565b60008060408385031215613c6657600080fd5b6000613c74858286016139e0565b9250506020613c8585828601613962565b9150509250929050565b613c98816146a4565b82525050565b613ca7816146b6565b82525050565b6000613cb882614568565b613cc28185614573565b9350613cd2818560208601614758565b80840191505092915050565b613ce781614734565b82525050565b6000613cfa60368361457e565b9150613d05826147e9565b604082019050919050565b6000613d1d604d8361457e565b9150613d2882614838565b606082019050919050565b6000613d40603d8361457e565b9150613d4b826148ad565b604082019050919050565b6000613d6360388361457e565b9150613d6e826148fc565b604082019050919050565b6000613d8660268361457e565b9150613d918261494b565b604082019050919050565b6000613da960388361457e565b9150613db48261499a565b604082019050919050565b6000613dcc602f8361457e565b9150613dd7826149e9565b604082019050919050565b6000613def602a8361457e565b9150613dfa82614a38565b604082019050919050565b6000613e1260268361457e565b9150613e1d82614a87565b604082019050919050565b6000613e3560348361457e565b9150613e4082614ad6565b604082019050919050565b6000613e5860128361457e565b9150613e6382614b25565b602082019050919050565b6000613e7b60278361457e565b9150613e8682614b4e565b604082019050919050565b6000613e9e60358361457e565b9150613ea982614b9d565b604082019050919050565b6000613ec160378361457e565b9150613ecc82614bec565b604082019050919050565b6000613ee460358361457e565b9150613eef82614c3b565b604082019050919050565b6000613f07602e8361457e565b9150613f1282614c8a565b604082019050919050565b6000613f2a60208361457e565b9150613f3582614cd9565b602082019050919050565b6000613f4d60248361457e565b9150613f5882614d02565b604082019050919050565b6000613f7060368361457e565b9150613f7b82614d51565b604082019050919050565b6000613f9360268361457e565b9150613f9e82614da0565b604082019050919050565b6000613fb660208361457e565b9150613fc182614def565b602082019050919050565b6000613fd9602a8361457e565b9150613fe482614e18565b604082019050919050565b6000613ffc60308361457e565b915061400782614e67565b604082019050919050565b600061401f602a8361457e565b915061402a82614eb6565b604082019050919050565b6000614042602b8361457e565b915061404d82614f05565b604082019050919050565b600061406560338361457e565b915061407082614f54565b604082019050919050565b600061408860138361457e565b915061409382614fa3565b602082019050919050565b60006140ab601f8361457e565b91506140b682614fcc565b602082019050919050565b60006140ce60318361457e565b91506140d982614ff5565b604082019050919050565b6140ed8161472a565b82525050565b60006140ff8284613cad565b915081905092915050565b600060208201905061411f6000830184613c8f565b92915050565b600060208201905061413a6000830184613c9e565b92915050565b60006020820190506141556000830184613cde565b92915050565b6000602082019050818103600083015261417481613ced565b9050919050565b6000602082019050818103600083015261419481613d10565b9050919050565b600060208201905081810360008301526141b481613d33565b9050919050565b600060208201905081810360008301526141d481613d56565b9050919050565b600060208201905081810360008301526141f481613d79565b9050919050565b6000602082019050818103600083015261421481613d9c565b9050919050565b6000602082019050818103600083015261423481613dbf565b9050919050565b6000602082019050818103600083015261425481613de2565b9050919050565b6000602082019050818103600083015261427481613e05565b9050919050565b6000602082019050818103600083015261429481613e28565b9050919050565b600060208201905081810360008301526142b481613e4b565b9050919050565b600060208201905081810360008301526142d481613e6e565b9050919050565b600060208201905081810360008301526142f481613e91565b9050919050565b6000602082019050818103600083015261431481613eb4565b9050919050565b6000602082019050818103600083015261433481613ed7565b9050919050565b6000602082019050818103600083015261435481613efa565b9050919050565b6000602082019050818103600083015261437481613f1d565b9050919050565b6000602082019050818103600083015261439481613f40565b9050919050565b600060208201905081810360008301526143b481613f63565b9050919050565b600060208201905081810360008301526143d481613f86565b9050919050565b600060208201905081810360008301526143f481613fa9565b9050919050565b6000602082019050818103600083015261441481613fcc565b9050919050565b6000602082019050818103600083015261443481613fef565b9050919050565b6000602082019050818103600083015261445481614012565b9050919050565b6000602082019050818103600083015261447481614035565b9050919050565b6000602082019050818103600083015261449481614058565b9050919050565b600060208201905081810360008301526144b48161407b565b9050919050565b600060208201905081810360008301526144d48161409e565b9050919050565b600060208201905081810360008301526144f4816140c1565b9050919050565b600060208201905061451060008301846140e4565b92915050565b600060408201905061452b60008301856140e4565b6145386020830184613c8f565b9392505050565b600060408201905061455460008301856140e4565b61456160208301846140e4565b9392505050565b600081519050919050565b600081905092915050565b600082825260208201905092915050565b600061459a8261472a565b91506145a58361472a565b9250827fffffffffffffffffffffffffffffffffffffffffffffffffffffffffffffffff038211156145da576145d961478b565b5b828201905092915050565b60006145f08261472a565b91506145fb8361472a565b92508261460b5761460a6147ba565b5b828204905092915050565b60006146218261472a565b915061462c8361472a565b9250817fffffffffffffffffffffffffffffffffffffffffffffffffffffffffffffffff04831182151516156146655761466461478b565b5b828202905092915050565b600061467b8261472a565b91506146868361472a565b9250828210156146995761469861478b565b5b828203905092915050565b60006146af8261470a565b9050919050565b60008115159050919050565b60006146cd826146a4565b9050919050565b60006146df826146a4565b9050919050565b60006146f1826146a4565b9050919050565b6000614703826146a4565b9050919050565b600073ffffffffffffffffffffffffffffffffffffffff82169050919050565b6000819050919050565b600061473f82614746565b9050919050565b60006147518261470a565b9050919050565b60005b8381101561477657808201518184015260208101905061475b565b83811115614785576000848401525b50505050565b7f4e487b7100000000000000000000000000000000000000000000000000000000600052601160045260246000fd5b7f4e487b7100000000000000000000000000000000000000000000000000000000600052601260045260246000fd5b7f5468657265206973206e6f7420656e6f7567682066756e647320696e2074686560008201527f20706f6f6c20746f2066756e6420746865206c6f616e00000000000000000000602082015250565b7f506f6f6c2069732066726f7a656e3a2063616e6e6f7420706572666f726d206460008201527f65706f7369742c2077697468647261772c20626f72726f7720616e642072657060208201527f6179206f7065726174696f6e7300000000000000000000000000000000000000604082015250565b7f4f6e6c7920746865206163636f756e747320617574686f72697365642062792060008201527f626f72726f77657273207265676973747279206d617920626f72726f77000000602082015250565b7f596f752061726520747279696e6720746f207265706179206d6f72652074686160008201527f742077617320626f72726f776564206279206120757365720000000000000000602082015250565b7f4f776e61626c653a206e6577206f776e657220697320746865207a65726f206160008201527f6464726573730000000000000000000000000000000000000000000000000000602082015250565b7f436f6e74726163742068617320746f20737570706f727420746865204552433760008201527f32312062616c616e63654f66282920696e746572666163650000000000000000602082015250565b7f54686520706f6f6c207574696c69736174696f6e2063616e6e6f74206265206760008201527f726561746572207468616e203935250000000000000000000000000000000000602082015250565b7f45524332303a2063616e6e6f74207472616e7366657220746f20746865207a6560008201527f726f206164647265737300000000000000000000000000000000000000000000602082015250565b7f45524332303a207472616e7366657220616d6f756e742065786365656473206260008201527f616c616e63650000000000000000000000000000000000000000000000000000602082015250565b7f5472616e7366657248656c7065723a3a736166655472616e736665724554483a60008201527f20455448207472616e73666572206661696c6564000000000000000000000000602082015250565b7f4d757374206265206120636f6e74726163740000000000000000000000000000600082015250565b7f45524332303a206275726e20616d6f756e74206578636565647320757365722060008201527f62616c616e636500000000000000000000000000000000000000000000000000602082015250565b7f4e6f7420656e6f75676820746f6b656e7320616c6c6f77656420746f2074726160008201527f6e7366657220726571756972656420616d6f756e740000000000000000000000602082015250565b7f45524332303a206275726e20616d6f756e74206578636565647320637572726560008201527f6e7420706f6f6c20696e64657865642062616c616e6365000000000000000000602082015250565b7f43757272656e7420616c6c6f77616e636520697320736d616c6c65722074686160008201527f6e20746865207375627472616374656456616c75650000000000000000000000602082015250565b7f496e697469616c697a61626c653a20636f6e747261637420697320616c72656160008201527f647920696e697469616c697a6564000000000000000000000000000000000000602082015250565b7f43616e6e6f7420626f72726f772066726f6d20616e20656d70747920706f6f6c600082015250565b7f426f72726f77657273207265676973747279206973206e6f7420636f6e66696760008201527f7572656400000000000000000000000000000000000000000000000000000000602082015250565b7f547279696e6720746f207265636f766572206d6f726520737572706c7573206660008201527f756e6473207468616e20706f6f6c2062616c616e636500000000000000000000602082015250565b7f45524332303a2063616e6e6f74206d696e7420746f20746865207a65726f206160008201527f6464726573730000000000000000000000000000000000000000000000000000602082015250565b7f4f776e61626c653a2063616c6c6572206973206e6f7420746865206f776e6572600082015250565b7f45524332303a2063616e6e6f74207472616e7366657220746f2074686520706f60008201527f6f6c206164647265737300000000000000000000000000000000000000000000602082015250565b7f43616e6e6f7420736574206e66744164647265737320746f2061206e6f6e2d6360008201527f6f6e747261637420696e7374616e636500000000000000000000000000000000602082015250565b7f416c6c6f77616e6365207370656e6465722063616e6e6f742062652061207a6560008201527f726f206164647265737300000000000000000000000000000000000000000000602082015250565b7f496e697469616c697a61626c653a20636f6e7472616374206973206e6f74206960008201527f6e697469616c697a696e67000000000000000000000000000000000000000000602082015250565b7f54686520626f72726f776572732072656769737472792063616e6e6f7420736560008201527f7420746f2061206e756c6c206164647265737300000000000000000000000000602082015250565b7f416363657373204e465420726571756972656400000000000000000000000000600082015250565b7f5265656e7472616e637947756172643a207265656e7472616e742063616c6c00600082015250565b7f547279696e6720746f207265636f766572206d6f72652066756e64732074686160008201527f6e2063757272656e7420737572706c7573000000000000000000000000000000602082015250565b61504d816146a4565b811461505857600080fd5b50565b615064816146b6565b811461506f57600080fd5b50565b61507b816146c2565b811461508657600080fd5b50565b615092816146d4565b811461509d57600080fd5b50565b6150a9816146e6565b81146150b457600080fd5b50565b6150c0816146f8565b81146150cb57600080fd5b50565b6150d78161472a565b81146150e257600080fd5b5056fea264697066735822122051fe53f2169f2a22344d2071ad1eb922b85930a0f6b477ecdd32d91e351dedcf64736f6c63430008040033",
  "devdoc": {
    "kind": "dev",
    "methods": {
      "allowance(address,address)": {
        "details": "Returns the remaining number of tokens that `spender` will be allowed to spend on behalf of `owner` through {transferFrom}. This is zero by default. This value changes when {approve} or {transferFrom} are called."
      },
      "approve(address,uint256)": {
        "details": "Sets `amount` as the allowance of `spender` over the caller's tokens. Returns a boolean value indicating whether the operation succeeded. IMPORTANT: Beware that changing an allowance with this method brings the risk that someone may use both the old and the new allowance by unfortunate transaction ordering. One possible solution to mitigate this race condition is to first reduce the spender's allowance to 0 and set the desired value afterwards: https://github.com/ethereum/EIPs/issues/20#issuecomment-263524729 Emits an {Approval} event."
      },
      "balanceOf(address)": {
        "details": "_user the address of queried depositor*"
      },
      "borrow(uint256)": {
        "details": "_amount the amount to be borrowed*"
      },
      "owner()": {
        "details": "Returns the address of the current owner."
      },
      "renounceOwnership()": {
        "details": "Leaves the contract without owner. It will not be possible to call `onlyOwner` functions anymore. Can only be called by the current owner. NOTE: Renouncing ownership will leave the contract without an owner, thereby removing any functionality that is only available to the owner."
      },
      "repay()": {
        "details": "It is only meant to be used by the SmartLoan.*"
      },
      "setBorrowersRegistry(address)": {
        "details": "_borrowersRegistry the address of borrowers registry*"
      },
      "setRatesCalculator(address)": {
        "details": "_ratesCalculator the address of rates calculator*"
      },
      "totalSupply()": {
        "details": "Returns the amount of tokens in existence."
      },
      "transferOwnership(address)": {
        "details": "Transfers ownership of the contract to a new account (`newOwner`). Can only be called by the current owner."
      },
      "withdraw(uint256)": {
        "details": "_amount the amount to be withdrawn*"
      }
    },
    "version": 1
  },
  "userdoc": {
    "kind": "user",
    "methods": {
      "balanceOf(address)": {
        "notice": "Returns the current deposited amount for the given user The value includes the interest rates earned at the current moment"
      },
      "borrow(uint256)": {
        "notice": "Borrows the specified amount It updates user borrowed balance, total borrowed amount and rates"
      },
      "deposit()": {
        "notice": "Requires access NFT Deposits the message value It updates user deposited balance, total deposited and rates*"
      },
      "getBorrowingRate()": {
        "notice": "Returns the current interest rate for borrowings*"
      },
      "getDepositRate()": {
        "notice": "Returns the current interest rate for deposits*"
      },
      "recoverSurplus(uint256,address)": {
        "notice": "Recovers the surplus funds resultant from difference between deposit and borrowing rates*"
      },
      "repay()": {
        "notice": "Repays the message value It updates user borrowed balance, total borrowed amount and rates"
      },
      "setBorrowersRegistry(address)": {
        "notice": "Sets the new borrowers registry contract. The borrowers registry decides if an account can borrow funds. Only the owner of the Contract can execute this function."
      },
      "setRatesCalculator(address)": {
        "notice": "Sets the new rate calculator. The calculator is an external contract that contains the logic for calculating deposit and borrowing rates. Only the owner of the Contract can execute this function."
      },
      "withdraw(uint256)": {
        "notice": "Withdraws selected amount from the user deposits"
      }
    },
    "version": 1
  },
  "storageLayout": {
    "storage": [
      {
        "astId": 130,
        "contract": "contracts/upgraded/PoolWithAccessNFT.sol:PoolWithAccessNFT",
        "label": "_initialized",
        "offset": 0,
        "slot": "0",
        "type": "t_bool"
      },
      {
        "astId": 133,
        "contract": "contracts/upgraded/PoolWithAccessNFT.sol:PoolWithAccessNFT",
        "label": "_initializing",
        "offset": 1,
        "slot": "0",
        "type": "t_bool"
      },
      {
        "astId": 540,
        "contract": "contracts/upgraded/PoolWithAccessNFT.sol:PoolWithAccessNFT",
        "label": "__gap",
        "offset": 0,
        "slot": "1",
        "type": "t_array(t_uint256)50_storage"
      },
      {
        "astId": 10,
        "contract": "contracts/upgraded/PoolWithAccessNFT.sol:PoolWithAccessNFT",
        "label": "_owner",
        "offset": 0,
        "slot": "51",
        "type": "t_address"
      },
      {
        "astId": 122,
        "contract": "contracts/upgraded/PoolWithAccessNFT.sol:PoolWithAccessNFT",
        "label": "__gap",
        "offset": 0,
        "slot": "52",
        "type": "t_array(t_uint256)49_storage"
      },
      {
        "astId": 211,
        "contract": "contracts/upgraded/PoolWithAccessNFT.sol:PoolWithAccessNFT",
        "label": "_status",
        "offset": 0,
        "slot": "101",
        "type": "t_uint256"
      },
      {
        "astId": 255,
        "contract": "contracts/upgraded/PoolWithAccessNFT.sol:PoolWithAccessNFT",
        "label": "__gap",
        "offset": 0,
        "slot": "102",
        "type": "t_array(t_uint256)49_storage"
      },
      {
        "astId": 2725,
        "contract": "contracts/upgraded/PoolWithAccessNFT.sol:PoolWithAccessNFT",
        "label": "_allowed",
        "offset": 0,
        "slot": "151",
        "type": "t_mapping(t_address,t_mapping(t_address,t_uint256))"
      },
      {
        "astId": 2729,
        "contract": "contracts/upgraded/PoolWithAccessNFT.sol:PoolWithAccessNFT",
        "label": "_deposited",
        "offset": 0,
        "slot": "152",
        "type": "t_mapping(t_address,t_uint256)"
      },
      {
        "astId": 2733,
        "contract": "contracts/upgraded/PoolWithAccessNFT.sol:PoolWithAccessNFT",
        "label": "borrowed",
        "offset": 0,
        "slot": "153",
        "type": "t_mapping(t_address,t_uint256)"
      },
      {
        "astId": 2736,
        "contract": "contracts/upgraded/PoolWithAccessNFT.sol:PoolWithAccessNFT",
        "label": "_ratesCalculator",
        "offset": 0,
        "slot": "154",
        "type": "t_contract(IRatesCalculator)4079"
      },
      {
        "astId": 2739,
        "contract": "contracts/upgraded/PoolWithAccessNFT.sol:PoolWithAccessNFT",
        "label": "_borrowersRegistry",
        "offset": 0,
        "slot": "155",
        "type": "t_contract(IBorrowersRegistry)4057"
      },
      {
        "astId": 2742,
        "contract": "contracts/upgraded/PoolWithAccessNFT.sol:PoolWithAccessNFT",
        "label": "_depositIndex",
        "offset": 0,
        "slot": "156",
        "type": "t_contract(CompoundingIndex)2696"
      },
      {
        "astId": 2745,
        "contract": "contracts/upgraded/PoolWithAccessNFT.sol:PoolWithAccessNFT",
        "label": "_borrowIndex",
        "offset": 0,
        "slot": "157",
        "type": "t_contract(CompoundingIndex)2696"
      }
    ],
    "types": {
      "t_address": {
        "encoding": "inplace",
        "label": "address",
        "numberOfBytes": "20"
      },
      "t_array(t_uint256)49_storage": {
        "base": "t_uint256",
        "encoding": "inplace",
        "label": "uint256[49]",
        "numberOfBytes": "1568"
      },
      "t_array(t_uint256)50_storage": {
        "base": "t_uint256",
        "encoding": "inplace",
        "label": "uint256[50]",
        "numberOfBytes": "1600"
      },
      "t_bool": {
        "encoding": "inplace",
        "label": "bool",
        "numberOfBytes": "1"
      },
      "t_contract(CompoundingIndex)2696": {
        "encoding": "inplace",
        "label": "contract CompoundingIndex",
        "numberOfBytes": "20"
      },
      "t_contract(IBorrowersRegistry)4057": {
        "encoding": "inplace",
        "label": "contract IBorrowersRegistry",
        "numberOfBytes": "20"
      },
      "t_contract(IRatesCalculator)4079": {
        "encoding": "inplace",
        "label": "contract IRatesCalculator",
        "numberOfBytes": "20"
      },
      "t_mapping(t_address,t_mapping(t_address,t_uint256))": {
        "encoding": "mapping",
        "key": "t_address",
        "label": "mapping(address => mapping(address => uint256))",
        "numberOfBytes": "32",
        "value": "t_mapping(t_address,t_uint256)"
      },
      "t_mapping(t_address,t_uint256)": {
        "encoding": "mapping",
        "key": "t_address",
        "label": "mapping(address => uint256)",
        "numberOfBytes": "32",
        "value": "t_uint256"
      },
      "t_uint256": {
        "encoding": "inplace",
        "label": "uint256",
        "numberOfBytes": "32"
      }
    }
  }
}