{
  "address": "0xA146e844f43A086692314411E13eD7C6085655D2",
  "abi": [
    {
      "anonymous": false,
      "inputs": [
        {
          "indexed": false,
          "internalType": "address",
          "name": "poolAddress",
          "type": "address"
        }
      ],
      "name": "PoolDeployed",
      "type": "event"
    },
    {
      "inputs": [],
      "name": "deployPool",
      "outputs": [],
      "stateMutability": "nonpayable",
      "type": "function"
    }
  ],
  "transactionHash": "0x9140d13ef7ad5b819e5b21cc84102614cf982deaf8025defc19789400a446054",
  "args": [],
  "numDeployments": 1,
  "solcInputHash": "b220d76e472351701ac582696e88963a",
  "bytecode": "0x608060405234801561001057600080fd5b50614ba1806100206000396000f3fe608060405234801561001057600080fd5b506004361061002b5760003560e01c806314d5275114610030575b600080fd5b61003861003a565b005b6000604051610048906100a1565b604051809103906000f080158015610064573d6000803e3d6000fd5b5090507ff0d1eeab175eee2e20b8dc452773bf2257b25724b323b42bc6e5b4616233ae1f8160405161009691906100bd565b60405180910390a150565b614a618061010b83390190565b6100b7816100d8565b82525050565b60006020820190506100d260008301846100ae565b92915050565b60006100e3826100ea565b9050919050565b600073ffffffffffffffffffffffffffffffffffffffff8216905091905056fe608060405234801561001057600080fd5b50614a41806100206000396000f3fe6080604052600436106101665760003560e01c8063715018a6116100d1578063c5ebeaec1161008a578063f2fde38b11610064578063f2fde38b14610536578063f36b24251461055f578063f8c8765e1461058a578063fc68f661146105b357610166565b8063c5ebeaec146104c6578063d0e30db0146104ef578063dd62ed3e146104f957610166565b8063715018a6146103b45780638da5cb5b146103cb5780639dcee9a4146103f6578063a457c2d714610421578063a9059cbb1461045e578063b790634e1461049b57610166565b80633950935111610123578063395093511461029f578063402d8883146102dc5780634c19386c146102e65780636011163e1461031157806370a082311461034e57806370d4cea01461038b57610166565b80630790ef9a1461016b5780630941cb3d14610194578063095ea7b3146101d157806318160ddd1461020e57806323b872dd146102395780632e1a7d4d14610276575b600080fd5b34801561017757600080fd5b50610192600480360381019061018d9190613780565b6105dc565b005b3480156101a057600080fd5b506101bb60048036038101906101b69190613560565b61078b565b6040516101c89190613f35565b60405180910390f35b3480156101dd57600080fd5b506101f860048036038101906101f39190613614565b6107a3565b6040516102059190613bda565b60405180910390f35b34801561021a57600080fd5b50610223610904565b6040516102309190613f35565b60405180910390f35b34801561024557600080fd5b50610260600480360381019061025b91906135c5565b610914565b60405161026d9190613bda565b60405180910390f35b34801561028257600080fd5b5061029d6004803603810190610298919061372e565b610cf7565b005b3480156102ab57600080fd5b506102c660048036038101906102c19190613614565b610e27565b6040516102d39190613bda565b60405180910390f35b6102e4611015565b005b3480156102f257600080fd5b506102fb6111fc565b6040516103089190613f35565b60405180910390f35b34801561031d57600080fd5b5061033860048036038101906103339190613560565b61120c565b6040516103459190613f35565b60405180910390f35b34801561035a57600080fd5b5061037560048036038101906103709190613560565b611301565b6040516103829190613f35565b60405180910390f35b34801561039757600080fd5b506103b260048036038101906103ad91906136a2565b6113f6565b005b3480156103c057600080fd5b506103c9611572565b005b3480156103d757600080fd5b506103e06115fa565b6040516103ed9190613bbf565b60405180910390f35b34801561040257600080fd5b5061040b611624565b6040516104189190613f35565b60405180910390f35b34801561042d57600080fd5b5061044860048036038101906104439190613614565b611630565b6040516104559190613bda565b60405180910390f35b34801561046a57600080fd5b5061048560048036038101906104809190613614565b611867565b6040516104929190613bda565b60405180910390f35b3480156104a757600080fd5b506104b0611aed565b6040516104bd9190613f35565b60405180910390f35b3480156104d257600080fd5b506104ed60048036038101906104e8919061372e565b611baf565b005b6104f7611f89565b005b34801561050557600080fd5b50610520600480360381019061051b9190613589565b61204c565b60405161052d9190613f35565b60405180910390f35b34801561054257600080fd5b5061055d60048036038101906105589190613560565b6120d3565b005b34801561056b57600080fd5b506105746121cb565b6040516105819190613f35565b60405180910390f35b34801561059657600080fd5b506105b160048036038101906105ac91906136cb565b61228d565b005b3480156105bf57600080fd5b506105da60048036038101906105d59190613679565b6124d9565b005b6105e461269f565b73ffffffffffffffffffffffffffffffffffffffff166106026115fa565b73ffffffffffffffffffffffffffffffffffffffff1614610658576040517f08c379a000000000000000000000000000000000000000000000000000000000815260040161064f90613e55565b60405180910390fd5b6002606554141561069e576040517f08c379a000000000000000000000000000000000000000000000000000000000815260040161069590613ef5565b60405180910390fd5b600260658190555060006106b0610904565b6106b86111fc565b476106c39190613fc9565b6106cd91906140aa565b905047831115610712576040517f08c379a000000000000000000000000000000000000000000000000000000000815260040161070990613e15565b60405180910390fd5b80831115610755576040517f08c379a000000000000000000000000000000000000000000000000000000000815260040161074c90613f15565b60405180910390fd5b61077e838373ffffffffffffffffffffffffffffffffffffffff166126a790919063ffffffff16565b5060016065819055505050565b60996020528060005260406000206000915090505481565b60008073ffffffffffffffffffffffffffffffffffffffff168373ffffffffffffffffffffffffffffffffffffffff161415610814576040517f08c379a000000000000000000000000000000000000000000000000000000000815260040161080b90613e95565b60405180910390fd5b81609760003373ffffffffffffffffffffffffffffffffffffffff1673ffffffffffffffffffffffffffffffffffffffff16815260200190815260200160002060008573ffffffffffffffffffffffffffffffffffffffff1673ffffffffffffffffffffffffffffffffffffffff168152602001908152602001600020819055508273ffffffffffffffffffffffffffffffffffffffff163373ffffffffffffffffffffffffffffffffffffffff167f8c5be1e5ebec7d5bd14f71427d1e84f3dd0314c0f7b2291e5b200ac8c7c3b925846040516108f29190613f35565b60405180910390a36001905092915050565b600061090f30611301565b905090565b600081609760008673ffffffffffffffffffffffffffffffffffffffff1673ffffffffffffffffffffffffffffffffffffffff16815260200190815260200160002060003373ffffffffffffffffffffffffffffffffffffffff1673ffffffffffffffffffffffffffffffffffffffff1681526020019081526020016000205410156109d5576040517f08c379a00000000000000000000000000000000000000000000000000000000081526004016109cc90613d55565b60405180910390fd5b600073ffffffffffffffffffffffffffffffffffffffff168373ffffffffffffffffffffffffffffffffffffffff161415610a45576040517f08c379a0000000000000000000000000000000000000000000000000000000008152600401610a3c90613cb5565b60405180910390fd5b3073ffffffffffffffffffffffffffffffffffffffff168373ffffffffffffffffffffffffffffffffffffffff161415610ab4576040517f08c379a0000000000000000000000000000000000000000000000000000000008152600401610aab90613e75565b60405180910390fd5b610abd336127cd565b81609860008673ffffffffffffffffffffffffffffffffffffffff1673ffffffffffffffffffffffffffffffffffffffff168152602001908152602001600020541015610b3f576040517f08c379a0000000000000000000000000000000000000000000000000000000008152600401610b3690613cd5565b60405180910390fd5b81609860008673ffffffffffffffffffffffffffffffffffffffff1673ffffffffffffffffffffffffffffffffffffffff1681526020019081526020016000206000828254610b8e91906140aa565b9250508190555081609760008673ffffffffffffffffffffffffffffffffffffffff1673ffffffffffffffffffffffffffffffffffffffff16815260200190815260200160002060003373ffffffffffffffffffffffffffffffffffffffff1673ffffffffffffffffffffffffffffffffffffffff1681526020019081526020016000206000828254610c2191906140aa565b92505081905550610c31836127cd565b81609860008573ffffffffffffffffffffffffffffffffffffffff1673ffffffffffffffffffffffffffffffffffffffff1681526020019081526020016000206000828254610c809190613fc9565b925050819055508273ffffffffffffffffffffffffffffffffffffffff168473ffffffffffffffffffffffffffffffffffffffff167fddf252ad1be2c89b69c2b068fc378daa952ba7f163c4a11628f55a4df523b3ef84604051610ce49190613f35565b60405180910390a3600190509392505050565b60026065541415610d3d576040517f08c379a0000000000000000000000000000000000000000000000000000000008152600401610d3490613ef5565b60405180910390fd5b600260658190555080471015610d88576040517f08c379a0000000000000000000000000000000000000000000000000000000008152600401610d7f90613bf5565b60405180910390fd5b610d91336127cd565b610d9b33826129a2565b610dc4813373ffffffffffffffffffffffffffffffffffffffff166126a790919063ffffffff16565b610dcc612baa565b3373ffffffffffffffffffffffffffffffffffffffff167fdf273cb619d95419a9cd0ec88123a0538c85064229baa6363788f743fff90deb8242604051610e14929190613f79565b60405180910390a2600160658190555050565b60008073ffffffffffffffffffffffffffffffffffffffff168373ffffffffffffffffffffffffffffffffffffffff161415610e98576040517f08c379a0000000000000000000000000000000000000000000000000000000008152600401610e8f90613e95565b60405180910390fd5b600082609760003373ffffffffffffffffffffffffffffffffffffffff1673ffffffffffffffffffffffffffffffffffffffff16815260200190815260200160002060008673ffffffffffffffffffffffffffffffffffffffff1673ffffffffffffffffffffffffffffffffffffffff16815260200190815260200160002054610f229190613fc9565b905080609760003373ffffffffffffffffffffffffffffffffffffffff1673ffffffffffffffffffffffffffffffffffffffff16815260200190815260200160002060008673ffffffffffffffffffffffffffffffffffffffff1673ffffffffffffffffffffffffffffffffffffffff168152602001908152602001600020819055508373ffffffffffffffffffffffffffffffffffffffff163373ffffffffffffffffffffffffffffffffffffffff167f8c5be1e5ebec7d5bd14f71427d1e84f3dd0314c0f7b2291e5b200ac8c7c3b925836040516110029190613f35565b60405180910390a3600191505092915050565b6002606554141561105b576040517f08c379a000000000000000000000000000000000000000000000000000000000815260040161105290613ef5565b60405180910390fd5b600260658190555061106c33612ecc565b34609960003373ffffffffffffffffffffffffffffffffffffffff1673ffffffffffffffffffffffffffffffffffffffff1681526020019081526020016000205410156110ee576040517f08c379a00000000000000000000000000000000000000000000000000000000081526004016110e590613c55565b60405180910390fd5b34609960003373ffffffffffffffffffffffffffffffffffffffff1673ffffffffffffffffffffffffffffffffffffffff168152602001908152602001600020600082825461113d91906140aa565b9250508190555034609960003073ffffffffffffffffffffffffffffffffffffffff1673ffffffffffffffffffffffffffffffffffffffff168152602001908152602001600020600082825461119391906140aa565b925050819055506111a2612baa565b3373ffffffffffffffffffffffffffffffffffffffff167f24fcca58a997b1b2eff6db8107e860458544c09ddd3693b3b779e1df6c0d6c5d34426040516111ea929190613f79565b60405180910390a26001606581905550565b60006112073061120c565b905090565b6000609d60009054906101000a900473ffffffffffffffffffffffffffffffffffffffff1673ffffffffffffffffffffffffffffffffffffffff1663966da889609960008573ffffffffffffffffffffffffffffffffffffffff1673ffffffffffffffffffffffffffffffffffffffff16815260200190815260200160002054846040518363ffffffff1660e01b81526004016112aa929190613f50565b60206040518083038186803b1580156112c257600080fd5b505afa1580156112d6573d6000803e3d6000fd5b505050506040513d601f19601f820116820180604052508101906112fa9190613757565b9050919050565b6000609c60009054906101000a900473ffffffffffffffffffffffffffffffffffffffff1673ffffffffffffffffffffffffffffffffffffffff1663966da889609860008573ffffffffffffffffffffffffffffffffffffffff1673ffffffffffffffffffffffffffffffffffffffff16815260200190815260200160002054846040518363ffffffff1660e01b815260040161139f929190613f50565b60206040518083038186803b1580156113b757600080fd5b505afa1580156113cb573d6000803e3d6000fd5b505050506040513d601f19601f820116820180604052508101906113ef9190613757565b9050919050565b6113fe61269f565b73ffffffffffffffffffffffffffffffffffffffff1661141c6115fa565b73ffffffffffffffffffffffffffffffffffffffff1614611472576040517f08c379a000000000000000000000000000000000000000000000000000000000815260040161146990613e55565b60405180910390fd5b61147b816130e1565b806114b25750600073ffffffffffffffffffffffffffffffffffffffff168173ffffffffffffffffffffffffffffffffffffffff16145b6114f1576040517f08c379a00000000000000000000000000000000000000000000000000000000081526004016114e890613d15565b60405180910390fd5b80609a60006101000a81548173ffffffffffffffffffffffffffffffffffffffff021916908373ffffffffffffffffffffffffffffffffffffffff160217905550600073ffffffffffffffffffffffffffffffffffffffff168173ffffffffffffffffffffffffffffffffffffffff161461156f5761156e612baa565b5b50565b61157a61269f565b73ffffffffffffffffffffffffffffffffffffffff166115986115fa565b73ffffffffffffffffffffffffffffffffffffffff16146115ee576040517f08c379a00000000000000000000000000000000000000000000000000000000081526004016115e590613e55565b60405180910390fd5b6115f86000613104565b565b6000603360009054906101000a900473ffffffffffffffffffffffffffffffffffffffff16905090565b670d2f13f7789f000081565b60008073ffffffffffffffffffffffffffffffffffffffff168373ffffffffffffffffffffffffffffffffffffffff1614156116a1576040517f08c379a000000000000000000000000000000000000000000000000000000000815260040161169890613e95565b60405180910390fd5b6000609760003373ffffffffffffffffffffffffffffffffffffffff1673ffffffffffffffffffffffffffffffffffffffff16815260200190815260200160002060008573ffffffffffffffffffffffffffffffffffffffff1673ffffffffffffffffffffffffffffffffffffffff16815260200190815260200160002054905082811015611765576040517f08c379a000000000000000000000000000000000000000000000000000000000815260040161175c90613d95565b60405180910390fd5b6000838261177391906140aa565b905080609760003373ffffffffffffffffffffffffffffffffffffffff1673ffffffffffffffffffffffffffffffffffffffff16815260200190815260200160002060008773ffffffffffffffffffffffffffffffffffffffff1673ffffffffffffffffffffffffffffffffffffffff168152602001908152602001600020819055508473ffffffffffffffffffffffffffffffffffffffff163373ffffffffffffffffffffffffffffffffffffffff167f8c5be1e5ebec7d5bd14f71427d1e84f3dd0314c0f7b2291e5b200ac8c7c3b925836040516118539190613f35565b60405180910390a360019250505092915050565b60008073ffffffffffffffffffffffffffffffffffffffff168373ffffffffffffffffffffffffffffffffffffffff1614156118d8576040517f08c379a00000000000000000000000000000000000000000000000000000000081526004016118cf90613cb5565b60405180910390fd5b3073ffffffffffffffffffffffffffffffffffffffff168373ffffffffffffffffffffffffffffffffffffffff161415611947576040517f08c379a000000000000000000000000000000000000000000000000000000000815260040161193e90613e75565b60405180910390fd5b611950336127cd565b81609860003373ffffffffffffffffffffffffffffffffffffffff1673ffffffffffffffffffffffffffffffffffffffff1681526020019081526020016000205410156119d2576040517f08c379a00000000000000000000000000000000000000000000000000000000081526004016119c990613cd5565b60405180910390fd5b81609860003373ffffffffffffffffffffffffffffffffffffffff1673ffffffffffffffffffffffffffffffffffffffff16815260200190815260200160002060008282540392505081905550611a28836127cd565b81609860008573ffffffffffffffffffffffffffffffffffffffff1673ffffffffffffffffffffffffffffffffffffffff1681526020019081526020016000206000828254611a779190613fc9565b925050819055508273ffffffffffffffffffffffffffffffffffffffff163373ffffffffffffffffffffffffffffffffffffffff167fddf252ad1be2c89b69c2b068fc378daa952ba7f163c4a11628f55a4df523b3ef84604051611adb9190613f35565b60405180910390a36001905092915050565b6000609a60009054906101000a900473ffffffffffffffffffffffffffffffffffffffff1673ffffffffffffffffffffffffffffffffffffffff16637cd08331611b356111fc565b611b3d610904565b6040518363ffffffff1660e01b8152600401611b5a929190613f79565b60206040518083038186803b158015611b7257600080fd5b505afa158015611b86573d6000803e3d6000fd5b505050506040513d601f19601f82011682018060405250810190611baa9190613757565b905090565b600073ffffffffffffffffffffffffffffffffffffffff16609b60009054906101000a900473ffffffffffffffffffffffffffffffffffffffff1673ffffffffffffffffffffffffffffffffffffffff161415611c41576040517f08c379a0000000000000000000000000000000000000000000000000000000008152600401611c3890613df5565b60405180910390fd5b609b60009054906101000a900473ffffffffffffffffffffffffffffffffffffffff1673ffffffffffffffffffffffffffffffffffffffff16630e7fc864336040518263ffffffff1660e01b8152600401611c9c9190613bbf565b60206040518083038186803b158015611cb457600080fd5b505afa158015611cc8573d6000803e3d6000fd5b505050506040513d601f19601f82011682018060405250810190611cec9190613650565b611d2b576040517f08c379a0000000000000000000000000000000000000000000000000000000008152600401611d2290613c35565b60405180910390fd5b6000611d35610904565b1415611d76576040517f08c379a0000000000000000000000000000000000000000000000000000000008152600401611d6d90613dd5565b60405180910390fd5b60026065541415611dbc576040517f08c379a0000000000000000000000000000000000000000000000000000000008152600401611db390613ef5565b60405180910390fd5b600260658190555080471015611dd157600080fd5b611dda33612ecc565b80609960003373ffffffffffffffffffffffffffffffffffffffff1673ffffffffffffffffffffffffffffffffffffffff1681526020019081526020016000206000828254611e299190613fc9565b9250508190555080609960003073ffffffffffffffffffffffffffffffffffffffff1673ffffffffffffffffffffffffffffffffffffffff1681526020019081526020016000206000828254611e7f9190613fc9565b92505081905550611eaf813373ffffffffffffffffffffffffffffffffffffffff166126a790919063ffffffff16565b611eb7612baa565b3373ffffffffffffffffffffffffffffffffffffffff167fd6b37be10b58108f696d9ed067fedad0bff7cb417ef4c28d2f8a25d6d83c98d58242604051611eff929190613f79565b60405180910390a26001606581905550670d2f13f7789f0000611f20610904565b670de0b6b3a7640000611f316111fc565b611f3b9190614050565b611f45919061401f565b1115611f86576040517f08c379a0000000000000000000000000000000000000000000000000000000008152600401611f7d90613c95565b60405180910390fd5b50565b60026065541415611fcf576040517f08c379a0000000000000000000000000000000000000000000000000000000008152600401611fc690613ef5565b60405180910390fd5b6002606581905550611fe0336127cd565b611fea33346131ca565b611ff2612baa565b3373ffffffffffffffffffffffffffffffffffffffff167f90890809c654f11d6e72a28fa60149770a0d11ec6c92319d6ceb2bb0a4ea1a15344260405161203a929190613f79565b60405180910390a26001606581905550565b6000609760008473ffffffffffffffffffffffffffffffffffffffff1673ffffffffffffffffffffffffffffffffffffffff16815260200190815260200160002060008373ffffffffffffffffffffffffffffffffffffffff1673ffffffffffffffffffffffffffffffffffffffff16815260200190815260200160002054905092915050565b6120db61269f565b73ffffffffffffffffffffffffffffffffffffffff166120f96115fa565b73ffffffffffffffffffffffffffffffffffffffff161461214f576040517f08c379a000000000000000000000000000000000000000000000000000000000815260040161214690613e55565b60405180910390fd5b600073ffffffffffffffffffffffffffffffffffffffff168173ffffffffffffffffffffffffffffffffffffffff1614156121bf576040517f08c379a00000000000000000000000000000000000000000000000000000000081526004016121b690613c75565b60405180910390fd5b6121c881613104565b50565b6000609a60009054906101000a900473ffffffffffffffffffffffffffffffffffffffff1673ffffffffffffffffffffffffffffffffffffffff1663df841eec6122136111fc565b61221b610904565b6040518363ffffffff1660e01b8152600401612238929190613f79565b60206040518083038186803b15801561225057600080fd5b505afa158015612264573d6000803e3d6000fd5b505050506040513d601f19601f820116820180604052508101906122889190613757565b905090565b600060019054906101000a900460ff166122b55760008054906101000a900460ff16156122be565b6122bd613350565b5b6122fd576040517f08c379a00000000000000000000000000000000000000000000000000000000081526004016122f490613db5565b60405180910390fd5b60008060019054906101000a900460ff16159050801561234d576001600060016101000a81548160ff02191690831515021790555060016000806101000a81548160ff0219169083151502179055505b612356846130e1565b612395576040517f08c379a000000000000000000000000000000000000000000000000000000000815260040161238c90613d15565b60405180910390fd5b83609b60006101000a81548173ffffffffffffffffffffffffffffffffffffffff021916908373ffffffffffffffffffffffffffffffffffffffff16021790555084609a60006101000a81548173ffffffffffffffffffffffffffffffffffffffff021916908373ffffffffffffffffffffffffffffffffffffffff16021790555082609c60006101000a81548173ffffffffffffffffffffffffffffffffffffffff021916908373ffffffffffffffffffffffffffffffffffffffff16021790555081609d60006101000a81548173ffffffffffffffffffffffffffffffffffffffff021916908373ffffffffffffffffffffffffffffffffffffffff1602179055506124a1613361565b6124a96133ba565b6124b1612baa565b80156124d25760008060016101000a81548160ff0219169083151502179055505b5050505050565b6124e161269f565b73ffffffffffffffffffffffffffffffffffffffff166124ff6115fa565b73ffffffffffffffffffffffffffffffffffffffff1614612555576040517f08c379a000000000000000000000000000000000000000000000000000000000815260040161254c90613e55565b60405180910390fd5b600073ffffffffffffffffffffffffffffffffffffffff168173ffffffffffffffffffffffffffffffffffffffff1614156125c5576040517f08c379a00000000000000000000000000000000000000000000000000000000081526004016125bc90613ed5565b60405180910390fd5b6125ce816130e1565b61260d576040517f08c379a000000000000000000000000000000000000000000000000000000000815260040161260490613d15565b60405180910390fd5b80609b60006101000a81548173ffffffffffffffffffffffffffffffffffffffff021916908373ffffffffffffffffffffffffffffffffffffffff1602179055508073ffffffffffffffffffffffffffffffffffffffff167f04dce7d074f7e287a2e6e3516c802271d58d5c14e0dede83a49719eb6b920469426040516126949190613f35565b60405180910390a250565b600033905090565b60008273ffffffffffffffffffffffffffffffffffffffff1682600067ffffffffffffffff811115612702577f4e487b7100000000000000000000000000000000000000000000000000000000600052604160045260246000fd5b6040519080825280601f01601f1916602001820160405280156127345781602001600182028036833780820191505090505b506040516127429190613ba8565b60006040518083038185875af1925050503d806000811461277f576040519150601f19603f3d011682016040523d82523d6000602084013e612784565b606091505b50509050806127c8576040517f08c379a00000000000000000000000000000000000000000000000000000000081526004016127bf90613cf5565b60405180910390fd5b505050565b60006127d882611301565b90506000609860008473ffffffffffffffffffffffffffffffffffffffff1673ffffffffffffffffffffffffffffffffffffffff168152602001908152602001600020548261282791906140aa565b905061283383826131ca565b8273ffffffffffffffffffffffffffffffffffffffff167f9bbd517758fbae61197f1c1c04c8614064e89512dbaf4350dcdf76fcaa5e2161824260405161287b929190613f79565b60405180910390a2609c60009054906101000a900473ffffffffffffffffffffffffffffffffffffffff1673ffffffffffffffffffffffffffffffffffffffff1663ed03b336846040518263ffffffff1660e01b81526004016128de9190613bbf565b600060405180830381600087803b1580156128f857600080fd5b505af115801561290c573d6000803e3d6000fd5b50505050609c60009054906101000a900473ffffffffffffffffffffffffffffffffffffffff1673ffffffffffffffffffffffffffffffffffffffff1663ed03b336306040518263ffffffff1660e01b815260040161296b9190613bbf565b600060405180830381600087803b15801561298557600080fd5b505af1158015612999573d6000803e3d6000fd5b50505050505050565b80609860008473ffffffffffffffffffffffffffffffffffffffff1673ffffffffffffffffffffffffffffffffffffffff168152602001908152602001600020541015612a24576040517f08c379a0000000000000000000000000000000000000000000000000000000008152600401612a1b90613d35565b60405180910390fd5b80609860003073ffffffffffffffffffffffffffffffffffffffff1673ffffffffffffffffffffffffffffffffffffffff168152602001908152602001600020541015612aa6576040517f08c379a0000000000000000000000000000000000000000000000000000000008152600401612a9d90613d75565b60405180910390fd5b80609860008473ffffffffffffffffffffffffffffffffffffffff1673ffffffffffffffffffffffffffffffffffffffff1681526020019081526020016000206000828254039250508190555080609860003073ffffffffffffffffffffffffffffffffffffffff1673ffffffffffffffffffffffffffffffffffffffff16815260200190815260200160002060008282540392505081905550600073ffffffffffffffffffffffffffffffffffffffff168273ffffffffffffffffffffffffffffffffffffffff167fddf252ad1be2c89b69c2b068fc378daa952ba7f163c4a11628f55a4df523b3ef83604051612b9e9190613f35565b60405180910390a35050565b600073ffffffffffffffffffffffffffffffffffffffff16609a60009054906101000a900473ffffffffffffffffffffffffffffffffffffffff1673ffffffffffffffffffffffffffffffffffffffff161415612c3c576040517f08c379a0000000000000000000000000000000000000000000000000000000008152600401612c3390613c15565b60405180910390fd5b609c60009054906101000a900473ffffffffffffffffffffffffffffffffffffffff1673ffffffffffffffffffffffffffffffffffffffff166334fcf437609a60009054906101000a900473ffffffffffffffffffffffffffffffffffffffff1673ffffffffffffffffffffffffffffffffffffffff16637cd08331612cc06111fc565b612cc8610904565b6040518363ffffffff1660e01b8152600401612ce5929190613f79565b60206040518083038186803b158015612cfd57600080fd5b505afa158015612d11573d6000803e3d6000fd5b505050506040513d601f19601f82011682018060405250810190612d359190613757565b6040518263ffffffff1660e01b8152600401612d519190613f35565b600060405180830381600087803b158015612d6b57600080fd5b505af1158015612d7f573d6000803e3d6000fd5b50505050609d60009054906101000a900473ffffffffffffffffffffffffffffffffffffffff1673ffffffffffffffffffffffffffffffffffffffff166334fcf437609a60009054906101000a900473ffffffffffffffffffffffffffffffffffffffff1673ffffffffffffffffffffffffffffffffffffffff1663df841eec612e076111fc565b612e0f610904565b6040518363ffffffff1660e01b8152600401612e2c929190613f79565b60206040518083038186803b158015612e4457600080fd5b505afa158015612e58573d6000803e3d6000fd5b505050506040513d601f19601f82011682018060405250810190612e7c9190613757565b6040518263ffffffff1660e01b8152600401612e989190613f35565b600060405180830381600087803b158015612eb257600080fd5b505af1158015612ec6573d6000803e3d6000fd5b50505050565b6000612ed78261120c565b90506000609960008473ffffffffffffffffffffffffffffffffffffffff1673ffffffffffffffffffffffffffffffffffffffff1681526020019081526020016000205482612f2691906140aa565b905081609960008573ffffffffffffffffffffffffffffffffffffffff1673ffffffffffffffffffffffffffffffffffffffff1681526020019081526020016000208190555080609960003073ffffffffffffffffffffffffffffffffffffffff1673ffffffffffffffffffffffffffffffffffffffff1681526020019081526020016000206000828254612fbb9190613fc9565b92505081905550609d60009054906101000a900473ffffffffffffffffffffffffffffffffffffffff1673ffffffffffffffffffffffffffffffffffffffff1663ed03b336846040518263ffffffff1660e01b815260040161301d9190613bbf565b600060405180830381600087803b15801561303757600080fd5b505af115801561304b573d6000803e3d6000fd5b50505050609d60009054906101000a900473ffffffffffffffffffffffffffffffffffffffff1673ffffffffffffffffffffffffffffffffffffffff1663ed03b336306040518263ffffffff1660e01b81526004016130aa9190613bbf565b600060405180830381600087803b1580156130c457600080fd5b505af11580156130d8573d6000803e3d6000fd5b50505050505050565b6000808273ffffffffffffffffffffffffffffffffffffffff163b119050919050565b6000603360009054906101000a900473ffffffffffffffffffffffffffffffffffffffff16905081603360006101000a81548173ffffffffffffffffffffffffffffffffffffffff021916908373ffffffffffffffffffffffffffffffffffffffff1602179055508173ffffffffffffffffffffffffffffffffffffffff168173ffffffffffffffffffffffffffffffffffffffff167f8be0079c531659141344cd1fd0a4f28419497f9722a3daafe3b4186f6b6457e060405160405180910390a35050565b600073ffffffffffffffffffffffffffffffffffffffff168273ffffffffffffffffffffffffffffffffffffffff16141561323a576040517f08c379a000000000000000000000000000000000000000000000000000000000815260040161323190613e35565b60405180910390fd5b80609860008473ffffffffffffffffffffffffffffffffffffffff1673ffffffffffffffffffffffffffffffffffffffff16815260200190815260200160002060008282546132899190613fc9565b9250508190555080609860003073ffffffffffffffffffffffffffffffffffffffff1673ffffffffffffffffffffffffffffffffffffffff16815260200190815260200160002060008282546132df9190613fc9565b925050819055508173ffffffffffffffffffffffffffffffffffffffff16600073ffffffffffffffffffffffffffffffffffffffff167fddf252ad1be2c89b69c2b068fc378daa952ba7f163c4a11628f55a4df523b3ef836040516133449190613f35565b60405180910390a35050565b600061335b306130e1565b15905090565b600060019054906101000a900460ff166133b0576040517f08c379a00000000000000000000000000000000000000000000000000000000081526004016133a790613eb5565b60405180910390fd5b6133b8613413565b565b600060019054906101000a900460ff16613409576040517f08c379a000000000000000000000000000000000000000000000000000000000815260040161340090613eb5565b60405180910390fd5b613411613474565b565b600060019054906101000a900460ff16613462576040517f08c379a000000000000000000000000000000000000000000000000000000000815260040161345990613eb5565b60405180910390fd5b61347261346d61269f565b613104565b565b600060019054906101000a900460ff166134c3576040517f08c379a00000000000000000000000000000000000000000000000000000000081526004016134ba90613eb5565b60405180910390fd5b6001606581905550565b6000813590506134dc81614981565b92915050565b6000815190506134f181614998565b92915050565b600081359050613506816149af565b92915050565b60008135905061351b816149c6565b92915050565b600081359050613530816149dd565b92915050565b600081359050613545816149f4565b92915050565b60008151905061355a816149f4565b92915050565b60006020828403121561357257600080fd5b6000613580848285016134cd565b91505092915050565b6000806040838503121561359c57600080fd5b60006135aa858286016134cd565b92505060206135bb858286016134cd565b9150509250929050565b6000806000606084860312156135da57600080fd5b60006135e8868287016134cd565b93505060206135f9868287016134cd565b925050604061360a86828701613536565b9150509250925092565b6000806040838503121561362757600080fd5b6000613635858286016134cd565b925050602061364685828601613536565b9150509250929050565b60006020828403121561366257600080fd5b6000613670848285016134e2565b91505092915050565b60006020828403121561368b57600080fd5b60006136998482850161350c565b91505092915050565b6000602082840312156136b457600080fd5b60006136c284828501613521565b91505092915050565b600080600080608085870312156136e157600080fd5b60006136ef87828801613521565b94505060206137008782880161350c565b9350506040613711878288016134f7565b9250506060613722878288016134f7565b91505092959194509250565b60006020828403121561374057600080fd5b600061374e84828501613536565b91505092915050565b60006020828403121561376957600080fd5b60006137778482850161354b565b91505092915050565b6000806040838503121561379357600080fd5b60006137a185828601613536565b92505060206137b2858286016134cd565b9150509250929050565b6137c5816140de565b82525050565b6137d4816140f0565b82525050565b60006137e582613fa2565b6137ef8185613fad565b93506137ff81856020860161415c565b80840191505092915050565b6000613818603683613fb8565b9150613823826141ed565b604082019050919050565b600061383b604d83613fb8565b91506138468261423c565b606082019050919050565b600061385e603d83613fb8565b9150613869826142b1565b604082019050919050565b6000613881603883613fb8565b915061388c82614300565b604082019050919050565b60006138a4602683613fb8565b91506138af8261434f565b604082019050919050565b60006138c7602f83613fb8565b91506138d28261439e565b604082019050919050565b60006138ea602a83613fb8565b91506138f5826143ed565b604082019050919050565b600061390d602683613fb8565b91506139188261443c565b604082019050919050565b6000613930603483613fb8565b915061393b8261448b565b604082019050919050565b6000613953601283613fb8565b915061395e826144da565b602082019050919050565b6000613976602783613fb8565b915061398182614503565b604082019050919050565b6000613999603583613fb8565b91506139a482614552565b604082019050919050565b60006139bc603783613fb8565b91506139c7826145a1565b604082019050919050565b60006139df603583613fb8565b91506139ea826145f0565b604082019050919050565b6000613a02602e83613fb8565b9150613a0d8261463f565b604082019050919050565b6000613a25602083613fb8565b9150613a308261468e565b602082019050919050565b6000613a48602483613fb8565b9150613a53826146b7565b604082019050919050565b6000613a6b603683613fb8565b9150613a7682614706565b604082019050919050565b6000613a8e602683613fb8565b9150613a9982614755565b604082019050919050565b6000613ab1602083613fb8565b9150613abc826147a4565b602082019050919050565b6000613ad4602a83613fb8565b9150613adf826147cd565b604082019050919050565b6000613af7602a83613fb8565b9150613b028261481c565b604082019050919050565b6000613b1a602b83613fb8565b9150613b258261486b565b604082019050919050565b6000613b3d603383613fb8565b9150613b48826148ba565b604082019050919050565b6000613b60601f83613fb8565b9150613b6b82614909565b602082019050919050565b6000613b83603183613fb8565b9150613b8e82614932565b604082019050919050565b613ba281614152565b82525050565b6000613bb482846137da565b915081905092915050565b6000602082019050613bd460008301846137bc565b92915050565b6000602082019050613bef60008301846137cb565b92915050565b60006020820190508181036000830152613c0e8161380b565b9050919050565b60006020820190508181036000830152613c2e8161382e565b9050919050565b60006020820190508181036000830152613c4e81613851565b9050919050565b60006020820190508181036000830152613c6e81613874565b9050919050565b60006020820190508181036000830152613c8e81613897565b9050919050565b60006020820190508181036000830152613cae816138ba565b9050919050565b60006020820190508181036000830152613cce816138dd565b9050919050565b60006020820190508181036000830152613cee81613900565b9050919050565b60006020820190508181036000830152613d0e81613923565b9050919050565b60006020820190508181036000830152613d2e81613946565b9050919050565b60006020820190508181036000830152613d4e81613969565b9050919050565b60006020820190508181036000830152613d6e8161398c565b9050919050565b60006020820190508181036000830152613d8e816139af565b9050919050565b60006020820190508181036000830152613dae816139d2565b9050919050565b60006020820190508181036000830152613dce816139f5565b9050919050565b60006020820190508181036000830152613dee81613a18565b9050919050565b60006020820190508181036000830152613e0e81613a3b565b9050919050565b60006020820190508181036000830152613e2e81613a5e565b9050919050565b60006020820190508181036000830152613e4e81613a81565b9050919050565b60006020820190508181036000830152613e6e81613aa4565b9050919050565b60006020820190508181036000830152613e8e81613ac7565b9050919050565b60006020820190508181036000830152613eae81613aea565b9050919050565b60006020820190508181036000830152613ece81613b0d565b9050919050565b60006020820190508181036000830152613eee81613b30565b9050919050565b60006020820190508181036000830152613f0e81613b53565b9050919050565b60006020820190508181036000830152613f2e81613b76565b9050919050565b6000602082019050613f4a6000830184613b99565b92915050565b6000604082019050613f656000830185613b99565b613f7260208301846137bc565b9392505050565b6000604082019050613f8e6000830185613b99565b613f9b6020830184613b99565b9392505050565b600081519050919050565b600081905092915050565b600082825260208201905092915050565b6000613fd482614152565b9150613fdf83614152565b9250827fffffffffffffffffffffffffffffffffffffffffffffffffffffffffffffffff038211156140145761401361418f565b5b828201905092915050565b600061402a82614152565b915061403583614152565b925082614045576140446141be565b5b828204905092915050565b600061405b82614152565b915061406683614152565b9250817fffffffffffffffffffffffffffffffffffffffffffffffffffffffffffffffff048311821515161561409f5761409e61418f565b5b828202905092915050565b60006140b582614152565b91506140c083614152565b9250828210156140d3576140d261418f565b5b828203905092915050565b60006140e982614132565b9050919050565b60008115159050919050565b6000614107826140de565b9050919050565b6000614119826140de565b9050919050565b600061412b826140de565b9050919050565b600073ffffffffffffffffffffffffffffffffffffffff82169050919050565b6000819050919050565b60005b8381101561417a57808201518184015260208101905061415f565b83811115614189576000848401525b50505050565b7f4e487b7100000000000000000000000000000000000000000000000000000000600052601160045260246000fd5b7f4e487b7100000000000000000000000000000000000000000000000000000000600052601260045260246000fd5b7f5468657265206973206e6f7420656e6f7567682066756e647320696e2074686560008201527f20706f6f6c20746f2066756e6420746865206c6f616e00000000000000000000602082015250565b7f506f6f6c2069732066726f7a656e3a2063616e6e6f7420706572666f726d206460008201527f65706f7369742c2077697468647261772c20626f72726f7720616e642072657060208201527f6179206f7065726174696f6e7300000000000000000000000000000000000000604082015250565b7f4f6e6c7920746865206163636f756e747320617574686f72697365642062792060008201527f626f72726f77657273207265676973747279206d617920626f72726f77000000602082015250565b7f596f752061726520747279696e6720746f207265706179206d6f72652074686160008201527f742077617320626f72726f776564206279206120757365720000000000000000602082015250565b7f4f776e61626c653a206e6577206f776e657220697320746865207a65726f206160008201527f6464726573730000000000000000000000000000000000000000000000000000602082015250565b7f54686520706f6f6c207574696c69736174696f6e2063616e6e6f74206265206760008201527f726561746572207468616e203935250000000000000000000000000000000000602082015250565b7f45524332303a2063616e6e6f74207472616e7366657220746f20746865207a6560008201527f726f206164647265737300000000000000000000000000000000000000000000602082015250565b7f45524332303a207472616e7366657220616d6f756e742065786365656473206260008201527f616c616e63650000000000000000000000000000000000000000000000000000602082015250565b7f5472616e7366657248656c7065723a3a736166655472616e736665724554483a60008201527f20455448207472616e73666572206661696c6564000000000000000000000000602082015250565b7f4d757374206265206120636f6e74726163740000000000000000000000000000600082015250565b7f45524332303a206275726e20616d6f756e74206578636565647320757365722060008201527f62616c616e636500000000000000000000000000000000000000000000000000602082015250565b7f4e6f7420656e6f75676820746f6b656e7320616c6c6f77656420746f2074726160008201527f6e7366657220726571756972656420616d6f756e740000000000000000000000602082015250565b7f45524332303a206275726e20616d6f756e74206578636565647320637572726560008201527f6e7420706f6f6c20696e64657865642062616c616e6365000000000000000000602082015250565b7f43757272656e7420616c6c6f77616e636520697320736d616c6c65722074686160008201527f6e20746865207375627472616374656456616c75650000000000000000000000602082015250565b7f496e697469616c697a61626c653a20636f6e747261637420697320616c72656160008201527f647920696e697469616c697a6564000000000000000000000000000000000000602082015250565b7f43616e6e6f7420626f72726f772066726f6d20616e20656d70747920706f6f6c600082015250565b7f426f72726f77657273207265676973747279206973206e6f7420636f6e66696760008201527f7572656400000000000000000000000000000000000000000000000000000000602082015250565b7f547279696e6720746f207265636f766572206d6f726520737572706c7573206660008201527f756e6473207468616e20706f6f6c2062616c616e636500000000000000000000602082015250565b7f45524332303a2063616e6e6f74206d696e7420746f20746865207a65726f206160008201527f6464726573730000000000000000000000000000000000000000000000000000602082015250565b7f4f776e61626c653a2063616c6c6572206973206e6f7420746865206f776e6572600082015250565b7f45524332303a2063616e6e6f74207472616e7366657220746f2074686520706f60008201527f6f6c206164647265737300000000000000000000000000000000000000000000602082015250565b7f416c6c6f77616e6365207370656e6465722063616e6e6f742062652061207a6560008201527f726f206164647265737300000000000000000000000000000000000000000000602082015250565b7f496e697469616c697a61626c653a20636f6e7472616374206973206e6f74206960008201527f6e697469616c697a696e67000000000000000000000000000000000000000000602082015250565b7f54686520626f72726f776572732072656769737472792063616e6e6f7420736560008201527f7420746f2061206e756c6c206164647265737300000000000000000000000000602082015250565b7f5265656e7472616e637947756172643a207265656e7472616e742063616c6c00600082015250565b7f547279696e6720746f207265636f766572206d6f72652066756e64732074686160008201527f6e2063757272656e7420737572706c7573000000000000000000000000000000602082015250565b61498a816140de565b811461499557600080fd5b50565b6149a1816140f0565b81146149ac57600080fd5b50565b6149b8816140fc565b81146149c357600080fd5b50565b6149cf8161410e565b81146149da57600080fd5b50565b6149e681614120565b81146149f157600080fd5b50565b6149fd81614152565b8114614a0857600080fd5b5056fea264697066735822122005e1338e0c7e5aebfb0e3ee2c234e0dfc92a999cbbf7febc99715a1c6cb1c5df64736f6c63430008040033a264697066735822122008ed8ffd5ddc584efc8d059105f9a8d63a26889c429ee372fd762c1971d514e564736f6c63430008040033",
  "devdoc": {
    "details": "Contract factory allowing anyone to deploy a pool contract",
    "events": {
      "PoolDeployed(address)": {
        "details": "emitted after pool is deployed by any user",
        "params": {
          "poolAddress": "of deployed pool*"
        }
      }
    },
    "kind": "dev",
    "methods": {},
    "title": "PoolFactory",
    "version": 1
  },
  "userdoc": {
    "kind": "user",
    "methods": {},
    "version": 1
  },
  "storageLayout": {
    "storage": [],
    "types": null
  }
}