{
  "address": "0xec1624FcD45866557BA946a4A574CFE212166566",
  "abi": [
    {
      "anonymous": false,
      "inputs": [
        {
          "indexed": true,
          "internalType": "address",
          "name": "borrower",
          "type": "address"
        },
        {
          "indexed": false,
          "internalType": "uint256",
          "name": "amount",
          "type": "uint256"
        },
        {
          "indexed": false,
          "internalType": "uint256",
          "name": "time",
          "type": "uint256"
        }
      ],
      "name": "Borrowed",
      "type": "event"
    },
    {
      "anonymous": false,
      "inputs": [
        {
          "indexed": true,
          "internalType": "address",
          "name": "funder",
          "type": "address"
        },
        {
          "indexed": false,
          "internalType": "uint256",
          "name": "amount",
          "type": "uint256"
        },
        {
          "indexed": false,
          "internalType": "uint256",
          "name": "time",
          "type": "uint256"
        }
      ],
      "name": "Funded",
      "type": "event"
    },
    {
      "anonymous": false,
      "inputs": [
        {
          "indexed": true,
          "internalType": "address",
          "name": "investor",
          "type": "address"
        },
        {
          "indexed": true,
          "internalType": "bytes32",
          "name": "asset",
          "type": "bytes32"
        },
        {
          "indexed": false,
          "internalType": "uint256",
          "name": "amount",
          "type": "uint256"
        },
        {
          "indexed": false,
          "internalType": "uint256",
          "name": "time",
          "type": "uint256"
        }
      ],
      "name": "Invested",
      "type": "event"
    },
    {
      "anonymous": false,
      "inputs": [
        {
          "indexed": true,
          "internalType": "address",
          "name": "liquidator",
          "type": "address"
        },
        {
          "indexed": false,
          "internalType": "uint256",
          "name": "repayAmount",
          "type": "uint256"
        },
        {
          "indexed": false,
          "internalType": "uint256",
          "name": "bonus",
          "type": "uint256"
        },
        {
          "indexed": false,
          "internalType": "uint256",
          "name": "ltv",
          "type": "uint256"
        },
        {
          "indexed": false,
          "internalType": "uint256",
          "name": "time",
          "type": "uint256"
        }
      ],
      "name": "Liquidated",
      "type": "event"
    },
    {
      "anonymous": false,
      "inputs": [
        {
          "indexed": false,
          "internalType": "uint256",
          "name": "debtRepaid",
          "type": "uint256"
        },
        {
          "indexed": false,
          "internalType": "uint256",
          "name": "withdrawalAmount",
          "type": "uint256"
        },
        {
          "indexed": false,
          "internalType": "uint256",
          "name": "time",
          "type": "uint256"
        }
      ],
      "name": "LoanClosed",
      "type": "event"
    },
    {
      "anonymous": false,
      "inputs": [
        {
          "indexed": true,
          "internalType": "address",
          "name": "previousOwner",
          "type": "address"
        },
        {
          "indexed": true,
          "internalType": "address",
          "name": "newOwner",
          "type": "address"
        }
      ],
      "name": "OwnershipTransferred",
      "type": "event"
    },
    {
      "anonymous": false,
      "inputs": [
        {
          "indexed": true,
          "internalType": "address",
          "name": "investor",
          "type": "address"
        },
        {
          "indexed": true,
          "internalType": "bytes32",
          "name": "asset",
          "type": "bytes32"
        },
        {
          "indexed": false,
          "internalType": "uint256",
          "name": "amount",
          "type": "uint256"
        },
        {
          "indexed": false,
          "internalType": "uint256",
          "name": "time",
          "type": "uint256"
        }
      ],
      "name": "Redeemed",
      "type": "event"
    },
    {
      "anonymous": false,
      "inputs": [
        {
          "indexed": true,
          "internalType": "address",
          "name": "borrower",
          "type": "address"
        },
        {
          "indexed": false,
          "internalType": "uint256",
          "name": "amount",
          "type": "uint256"
        },
        {
          "indexed": false,
          "internalType": "uint256",
          "name": "time",
          "type": "uint256"
        }
      ],
      "name": "Repaid",
      "type": "event"
    },
    {
      "anonymous": false,
      "inputs": [
        {
          "indexed": true,
          "internalType": "address",
          "name": "owner",
          "type": "address"
        },
        {
          "indexed": false,
          "internalType": "uint256",
          "name": "amount",
          "type": "uint256"
        },
        {
          "indexed": false,
          "internalType": "uint256",
          "name": "time",
          "type": "uint256"
        }
      ],
      "name": "Withdrawn",
      "type": "event"
    },
    {
      "inputs": [
        {
          "internalType": "uint256",
          "name": "_amount",
          "type": "uint256"
        }
      ],
      "name": "borrow",
      "outputs": [],
      "stateMutability": "nonpayable",
      "type": "function"
    },
    {
      "inputs": [],
      "name": "closeLoan",
      "outputs": [],
      "stateMutability": "payable",
      "type": "function"
    },
    {
      "inputs": [],
      "name": "fund",
      "outputs": [],
      "stateMutability": "payable",
      "type": "function"
    },
    {
      "inputs": [],
      "name": "getAllAssetsBalances",
      "outputs": [
        {
          "internalType": "uint256[]",
          "name": "",
          "type": "uint256[]"
        }
      ],
      "stateMutability": "view",
      "type": "function"
    },
    {
      "inputs": [],
      "name": "getAllAssetsPrices",
      "outputs": [
        {
          "internalType": "uint256[]",
          "name": "",
          "type": "uint256[]"
        }
      ],
      "stateMutability": "view",
      "type": "function"
    },
    {
      "inputs": [
        {
          "internalType": "address",
          "name": "_user",
          "type": "address"
        },
        {
          "internalType": "bytes32",
          "name": "_asset",
          "type": "bytes32"
        }
      ],
      "name": "getBalance",
      "outputs": [
        {
          "internalType": "uint256",
          "name": "",
          "type": "uint256"
        }
      ],
      "stateMutability": "view",
      "type": "function"
    },
    {
      "inputs": [],
      "name": "getDebt",
      "outputs": [
        {
          "internalType": "uint256",
          "name": "",
          "type": "uint256"
        }
      ],
      "stateMutability": "view",
      "type": "function"
    },
    {
      "inputs": [],
      "name": "getExchange",
      "outputs": [
        {
          "internalType": "contract IAssetsExchange",
          "name": "",
          "type": "address"
        }
      ],
      "stateMutability": "view",
      "type": "function"
    },
    {
      "inputs": [],
      "name": "getFullLoanStatus",
      "outputs": [
        {
          "internalType": "uint256[4]",
          "name": "",
          "type": "uint256[4]"
        }
      ],
      "stateMutability": "view",
      "type": "function"
    },
    {
      "inputs": [],
      "name": "getLTV",
      "outputs": [
        {
          "internalType": "uint256",
          "name": "",
          "type": "uint256"
        }
      ],
      "stateMutability": "view",
      "type": "function"
    },
    {
      "inputs": [],
      "name": "getLiquidationBonus",
      "outputs": [
        {
          "internalType": "uint256",
          "name": "",
          "type": "uint256"
        }
      ],
      "stateMutability": "view",
      "type": "function"
    },
    {
      "inputs": [],
      "name": "getMaxBlockTimestampDelay",
      "outputs": [
        {
          "internalType": "uint256",
          "name": "",
          "type": "uint256"
        }
      ],
      "stateMutability": "view",
      "type": "function"
    },
    {
      "inputs": [],
      "name": "getMaxDataTimestampDelay",
      "outputs": [
        {
          "internalType": "uint256",
          "name": "",
          "type": "uint256"
        }
      ],
      "stateMutability": "view",
      "type": "function"
    },
    {
      "inputs": [],
      "name": "getMaxLtv",
      "outputs": [
        {
          "internalType": "uint256",
          "name": "",
          "type": "uint256"
        }
      ],
      "stateMutability": "view",
      "type": "function"
    },
    {
      "inputs": [],
      "name": "getMinSelloutLtv",
      "outputs": [
        {
          "internalType": "uint256",
          "name": "",
          "type": "uint256"
        }
      ],
      "stateMutability": "view",
      "type": "function"
    },
    {
      "inputs": [],
      "name": "getPercentagePrecision",
      "outputs": [
        {
          "internalType": "uint256",
          "name": "",
          "type": "uint256"
        }
      ],
      "stateMutability": "view",
      "type": "function"
    },
    {
      "inputs": [],
      "name": "getPool",
      "outputs": [
        {
          "internalType": "contract Pool",
          "name": "",
          "type": "address"
        }
      ],
      "stateMutability": "view",
      "type": "function"
    },
    {
      "inputs": [],
      "name": "getPriceProvider1",
      "outputs": [
        {
          "internalType": "address",
          "name": "",
          "type": "address"
        }
      ],
      "stateMutability": "view",
      "type": "function"
    },
    {
      "inputs": [],
      "name": "getPriceProvider2",
      "outputs": [
        {
          "internalType": "address",
          "name": "",
          "type": "address"
        }
      ],
      "stateMutability": "view",
      "type": "function"
    },
    {
      "inputs": [],
      "name": "getTotalValue",
      "outputs": [
        {
          "internalType": "uint256",
          "name": "",
          "type": "uint256"
        }
      ],
      "stateMutability": "view",
      "type": "function"
    },
    {
      "inputs": [],
      "name": "initialize",
      "outputs": [],
      "stateMutability": "nonpayable",
      "type": "function"
    },
    {
      "inputs": [
        {
          "internalType": "bytes32",
          "name": "_asset",
          "type": "bytes32"
        },
        {
          "internalType": "uint256",
          "name": "_exactERC20AmountOut",
          "type": "uint256"
        },
        {
          "internalType": "uint256",
          "name": "_maxAvaxAmountIn",
          "type": "uint256"
        }
      ],
      "name": "invest",
      "outputs": [],
      "stateMutability": "nonpayable",
      "type": "function"
    },
    {
      "inputs": [
        {
          "internalType": "address",
          "name": "_receivedSigner",
          "type": "address"
        }
      ],
      "name": "isSignerAuthorized",
      "outputs": [
        {
          "internalType": "bool",
          "name": "",
          "type": "bool"
        }
      ],
      "stateMutability": "view",
      "type": "function"
    },
    {
      "inputs": [],
      "name": "isSolvent",
      "outputs": [
        {
          "internalType": "bool",
          "name": "",
          "type": "bool"
        }
      ],
      "stateMutability": "view",
      "type": "function"
    },
    {
      "inputs": [
        {
          "internalType": "uint256",
          "name": "_receivedTimestamp",
          "type": "uint256"
        }
      ],
      "name": "isTimestampValid",
      "outputs": [
        {
          "internalType": "bool",
          "name": "",
          "type": "bool"
        }
      ],
      "stateMutability": "view",
      "type": "function"
    },
    {
      "inputs": [
        {
          "internalType": "uint256",
          "name": "repayAmount",
          "type": "uint256"
        }
      ],
      "name": "liquidateLoan",
      "outputs": [],
      "stateMutability": "payable",
      "type": "function"
    },
    {
      "inputs": [],
      "name": "owner",
      "outputs": [
        {
          "internalType": "address",
          "name": "",
          "type": "address"
        }
      ],
      "stateMutability": "view",
      "type": "function"
    },
    {
      "inputs": [
        {
          "internalType": "bytes32",
          "name": "_asset",
          "type": "bytes32"
        },
        {
          "internalType": "uint256",
          "name": "_exactERC20AmountIn",
          "type": "uint256"
        },
        {
          "internalType": "uint256",
          "name": "_minAvaxAmountOut",
          "type": "uint256"
        }
      ],
      "name": "redeem",
      "outputs": [],
      "stateMutability": "nonpayable",
      "type": "function"
    },
    {
      "inputs": [],
      "name": "renounceOwnership",
      "outputs": [],
      "stateMutability": "nonpayable",
      "type": "function"
    },
    {
      "inputs": [
        {
          "internalType": "uint256",
          "name": "_amount",
          "type": "uint256"
        }
      ],
      "name": "repay",
      "outputs": [],
      "stateMutability": "payable",
      "type": "function"
    },
    {
      "inputs": [
        {
          "internalType": "address",
          "name": "newOwner",
          "type": "address"
        }
      ],
      "name": "transferOwnership",
      "outputs": [],
      "stateMutability": "nonpayable",
      "type": "function"
    },
    {
      "inputs": [
        {
          "internalType": "uint256",
          "name": "_amount",
          "type": "uint256"
        }
      ],
      "name": "withdraw",
      "outputs": [],
      "stateMutability": "nonpayable",
      "type": "function"
    },
    {
      "inputs": [
        {
          "internalType": "bytes32",
          "name": "asset",
          "type": "bytes32"
        },
        {
          "internalType": "uint256",
          "name": "amount",
          "type": "uint256"
        }
      ],
      "name": "withdrawAsset",
      "outputs": [],
      "stateMutability": "nonpayable",
      "type": "function"
    },
    {
      "stateMutability": "payable",
      "type": "receive"
    }
  ],
  "transactionHash": "0x6d86a4e42bef340b2b98b47699507956a50cf12053e67c129749719b96c7445c",
  "args": [],
  "numDeployments": 1,
  "solcInputHash": "3b4e8c522484def583a710d0176a0c53",
  "bytecode": "0x608060405234801561001057600080fd5b50615396806100206000396000f3fe6080604052600436106101f25760003560e01c8063715018a61161010d578063c5ebeaec116100a0578063d2b29d701161006f578063d2b29d7014610658578063d44e282b14610681578063f2fde38b146106ac578063f31a210a146106d5578063f807cd2214610700576101f9565b8063c5ebeaec146105ab578063c79d5ec5146105d4578063caa648b414610611578063ccdd9f5d1461063c576101f9565b80638da5cb5b116100dc5780638da5cb5b14610520578063a935310f1461054b578063b5dbd7f014610576578063b60d4288146105a1576101f9565b8063715018a61461048c57806375058205146104a35780638129fc1c146104e05780638a027cb3146104f7576101f9565b8063371fd8e61161018557806352154a261161015457806352154a26146103e057806359aa9e721461040b5780635ce23950146104365780636b6c92d914610461576101f9565b8063371fd8e6146103435780634ed2b8ac1461035f5780634fcaf08f1461038a5780635118af5a146103b5576101f9565b806314a6bf0f116101c157806314a6bf0f146102ba578063232fa733146102e55780632802fdc8146102ef5780632e1a7d4d1461031a576101f9565b8063026b1d5f146101fe57806305d58c211461022957806311c89b1014610252578063132e1d391461028f576101f9565b366101f957005b600080fd5b34801561020a57600080fd5b5061021361072b565b6040516102209190614118565b60405180910390f35b34801561023557600080fd5b50610250600480360381019061024b9190613920565b610747565b005b34801561025e57600080fd5b5061027960048036038101906102749190613828565b61089d565b6040516102869190614022565b60405180910390f35b34801561029b57600080fd5b506102a4610919565b6040516102b19190614473565b60405180910390f35b3480156102c657600080fd5b506102cf610923565b6040516102dc9190614473565b60405180910390f35b6102ed6109ba565b005b3480156102fb57600080fd5b50610304610dcd565b6040516103119190613fa1565b60405180910390f35b34801561032657600080fd5b50610341600480360381019061033c91906139ab565b610de9565b005b61035d600480360381019061035891906139ab565b610e57565b005b34801561036b57600080fd5b50610374610fb5565b6040516103819190614473565b60405180910390f35b34801561039657600080fd5b5061039f61102c565b6040516103ac9190613fa1565b60405180910390f35b3480156103c157600080fd5b506103ca611048565b6040516103d79190614473565b60405180910390f35b3480156103ec57600080fd5b506103f5611051565b6040516104029190614473565b60405180910390f35b34801561041757600080fd5b5061042061105b565b60405161042d9190614473565b60405180910390f35b34801561044257600080fd5b5061044b611064565b6040516104589190614022565b60405180910390f35b34801561046d57600080fd5b5061047661107c565b6040516104839190614000565b60405180910390f35b34801561049857600080fd5b506104a1611237565b005b3480156104af57600080fd5b506104ca60048036038101906104c591906139ab565b6112bf565b6040516104d79190614022565b60405180910390f35b3480156104ec57600080fd5b506104f56112ca565b005b34801561050357600080fd5b5061051e6004803603810190610519919061395c565b6113be565b005b34801561052c57600080fd5b5061053561164a565b6040516105429190613fa1565b60405180910390f35b34801561055757600080fd5b50610560611674565b60405161056d9190614000565b60405180910390f35b34801561058257600080fd5b5061058b611713565b6040516105989190614473565b60405180910390f35b6105a961171d565b005b3480156105b757600080fd5b506105d260048036038101906105cd91906139ab565b6117c2565b005b3480156105e057600080fd5b506105fb60048036038101906105f6919061387a565b61194a565b6040516106089190614473565b60405180910390f35b34801561061d57600080fd5b50610626611a71565b6040516106339190614473565b60405180910390f35b610656600480360381019061065191906139ab565b611dbc565b005b34801561066457600080fd5b5061067f600480360381019061067a919061395c565b612002565b005b34801561068d57600080fd5b5061069661228c565b6040516106a39190613fe5565b60405180910390f35b3480156106b857600080fd5b506106d360048036038101906106ce9190613828565b6122e4565b005b3480156106e157600080fd5b506106ea6123dc565b6040516106f79190614473565b60405180910390f35b34801561070c57600080fd5b506107156123e5565b60405161072291906140fd565b60405180910390f35b6000733ccc54365de98c59dab0d418d613a37657011cc2905090565b61074f612401565b73ffffffffffffffffffffffffffffffffffffffff1661076d61164a565b73ffffffffffffffffffffffffffffffffffffffff16146107c3576040517f08c379a00000000000000000000000000000000000000000000000000000000081526004016107ba90614373565b60405180910390fd5b60026065541415610809576040517f08c379a000000000000000000000000000000000000000000000000000000000815260040161080090614453565b60405180910390fd5b6002606581905550600061081c83612409565b905061084933838373ffffffffffffffffffffffffffffffffffffffff166124ad9092919063ffffffff16565b50610852611064565b610891576040517f08c379a000000000000000000000000000000000000000000000000000000000815260040161088890614393565b60405180910390fd5b60016065819055505050565b60006108a7610dcd565b73ffffffffffffffffffffffffffffffffffffffff168273ffffffffffffffffffffffffffffffffffffffff16148061091257506108e361102c565b73ffffffffffffffffffffffffffffffffffffffff168273ffffffffffffffffffffffffffffffffffffffff16145b9050919050565b60006103e8905090565b600061092d61072b565b73ffffffffffffffffffffffffffffffffffffffff16636011163e306040518263ffffffff1660e01b81526004016109659190613fa1565b60206040518083038186803b15801561097d57600080fd5b505afa158015610991573d6000803e3d6000fd5b505050506040513d601f19601f820116820180604052508101906109b591906139d4565b905090565b6109c2612401565b73ffffffffffffffffffffffffffffffffffffffff166109e061164a565b73ffffffffffffffffffffffffffffffffffffffff1614610a36576040517f08c379a0000000000000000000000000000000000000000000000000000000008152600401610a2d90614373565b60405180910390fd5b60026065541415610a7c576040517f08c379a0000000000000000000000000000000000000000000000000000000008152600401610a7390614453565b60405180910390fd5b60026065819055506000610a8e6123e5565b73ffffffffffffffffffffffffffffffffffffffff16632acada4d6040518163ffffffff1660e01b815260040160006040518083038186803b158015610ad357600080fd5b505afa158015610ae7573d6000803e3d6000fd5b505050506040513d6000823e3d601f19601f82011682018060405250810190610b1091906138b6565b905060005b8151811015610c5d576000610b69838381518110610b5c577f4e487b7100000000000000000000000000000000000000000000000000000000600052603260045260246000fd5b6020026020010151612409565b73ffffffffffffffffffffffffffffffffffffffff166370a08231306040518263ffffffff1660e01b8152600401610ba19190613fa1565b60206040518083038186803b158015610bb957600080fd5b505afa158015610bcd573d6000803e3d6000fd5b505050506040513d601f19601f82011682018060405250810190610bf191906139d4565b90506000811115610c4957610c48838381518110610c38577f4e487b7100000000000000000000000000000000000000000000000000000000600052603260045260246000fd5b60200260200101518260006125e3565b5b508080610c5590614a58565b915050610b15565b506000610c68610923565b905080471015610cad576040517f08c379a0000000000000000000000000000000000000000000000000000000008152600401610ca490614193565b60405180910390fd5b610cb681610e57565b7f4acb957de3799dd3d95bb7da6bcfbca6f5a33812d69ad37816ed87e79b6327d6814742604051610ce9939291906144e0565b60405180910390a160004790506000811115610d7957610d28813373ffffffffffffffffffffffffffffffffffffffff166126bf90919063ffffffff16565b3373ffffffffffffffffffffffffffffffffffffffff167f92ccf450a286a957af52509bc1c9939d1a6a481783e142e41e2499f0bb66ebc68242604051610d709291906144b7565b60405180910390a25b505050610d84611064565b610dc3576040517f08c379a0000000000000000000000000000000000000000000000000000000008152600401610dba90614393565b60405180910390fd5b6001606581905550565b600073981bda8276ae93f567922497153de7a5683708d3905090565b610df2816127e5565b600060017f4e62f1e61cb3124bafeea7becf303f483383d07c7a6ebfa279ac013c045a63ac60001c610e24919061490b565b60001b905060008154905080831115610e405760009050610e4f565b8281610e4c919061490b565b90505b808255505050565b610e5f611064565b15610ea457610e6c61164a565b73ffffffffffffffffffffffffffffffffffffffff163373ffffffffffffffffffffffffffffffffffffffff1614610ea357600080fd5b5b610eb581610eb0610923565b6129bd565b905080471015610efa576040517f08c379a0000000000000000000000000000000000000000000000000000000008152600401610ef1906141d3565b60405180910390fd5b610f0261072b565b73ffffffffffffffffffffffffffffffffffffffff1663402d8883826040518263ffffffff1660e01b81526004016000604051808303818588803b158015610f4957600080fd5b505af1158015610f5d573d6000803e3d6000fd5b50505050503373ffffffffffffffffffffffffffffffffffffffff167f1b8cd61ed43bec7c6bdad3a18ffee613f99c853d16c50678d248d879e1b434388242604051610faa9291906144b7565b60405180910390a250565b600080610fc0610923565b90506000610fcc611a71565b90506000821415610fe257600092505050611029565b8082101561101c578181610ff6919061490b565b610ffe610919565b8361100991906148b1565b61101391906146d3565b92505050611029565b611024611713565b925050505b90565b6000733befdd935b50f172e696a5187dbacfef0d208e48905090565b6000601e905090565b6000610fa0905090565b60006064905090565b600061106e611713565b611076610fb5565b10905090565b606060006110886123e5565b73ffffffffffffffffffffffffffffffffffffffff16632acada4d6040518163ffffffff1660e01b815260040160006040518083038186803b1580156110cd57600080fd5b505afa1580156110e1573d6000803e3d6000fd5b505050506040513d6000823e3d601f19601f8201168201806040525081019061110a91906138b6565b90506000815167ffffffffffffffff81111561114f577f4e487b7100000000000000000000000000000000000000000000000000000000600052604160045260246000fd5b60405190808252806020026020018201604052801561117d5781602001602082028036833780820191505090505b50905060005b825181101561122e576111d6308483815181106111c9577f4e487b7100000000000000000000000000000000000000000000000000000000600052603260045260246000fd5b602002602001015161194a565b82828151811061120f577f4e487b7100000000000000000000000000000000000000000000000000000000600052603260045260246000fd5b602002602001018181525050808061122690614a58565b915050611183565b50809250505090565b61123f612401565b73ffffffffffffffffffffffffffffffffffffffff1661125d61164a565b73ffffffffffffffffffffffffffffffffffffffff16146112b3576040517f08c379a00000000000000000000000000000000000000000000000000000000081526004016112aa90614373565b60405180910390fd5b6112bd60006129d6565b565b600060019050919050565b600060019054906101000a900460ff166112f25760008054906101000a900460ff16156112fb565b6112fa612a9c565b5b61133a576040517f08c379a000000000000000000000000000000000000000000000000000000000815260040161133190614313565b60405180910390fd5b60008060019054906101000a900460ff16159050801561138a576001600060016101000a81548160ff02191690831515021790555060016000806101000a81548160ff0219169083151502179055505b611392612aad565b61139a612b06565b80156113bb5760008060016101000a81548160ff0219169083151502179055505b50565b6113c6612401565b73ffffffffffffffffffffffffffffffffffffffff166113e461164a565b73ffffffffffffffffffffffffffffffffffffffff161461143a576040517f08c379a000000000000000000000000000000000000000000000000000000000815260040161143190614373565b60405180910390fd5b60026065541415611480576040517f08c379a000000000000000000000000000000000000000000000000000000000815260040161147790614453565b60405180910390fd5b6002606581905550804710156114cb576040517f08c379a00000000000000000000000000000000000000000000000000000000081526004016114c290614413565b60405180910390fd5b60006114d56123e5565b73ffffffffffffffffffffffffffffffffffffffff16635d8874e98386866040518463ffffffff1660e01b8152600401611510929190614058565b6020604051808303818588803b15801561152957600080fd5b505af115801561153d573d6000803e3d6000fd5b50505050506040513d601f19601f8201168201806040525081019061156291906138f7565b9050806115a4576040517f08c379a000000000000000000000000000000000000000000000000000000000815260040161159b90614433565b60405180910390fd5b833373ffffffffffffffffffffffffffffffffffffffff167f8c4f7b2f9ad7fde21c3ebf69d91938c2731761edd5820e45c17ea61d9c2ab90a85426040516115ed9291906144b7565b60405180910390a3506115fe611064565b61163d576040517f08c379a000000000000000000000000000000000000000000000000000000000815260040161163490614393565b60405180910390fd5b6001606581905550505050565b6000603360009054906101000a900473ffffffffffffffffffffffffffffffffffffffff16905090565b606060006116806123e5565b73ffffffffffffffffffffffffffffffffffffffff16632acada4d6040518163ffffffff1660e01b815260040160006040518083038186803b1580156116c557600080fd5b505afa1580156116d9573d6000803e3d6000fd5b505050506040513d6000823e3d601f19601f8201168201806040525081019061170291906138b6565b905061170d81612b5f565b91505090565b6000611388905090565b600060017f4e62f1e61cb3124bafeea7becf303f483383d07c7a6ebfa279ac013c045a63ac60001c61174f919061490b565b60001b90506000815490503481611766919061467d565b9050671158e460913d00008111156117b3576040517f08c379a00000000000000000000000000000000000000000000000000000000081526004016117aa906141b3565b60405180910390fd5b8082556117be612cc7565b5050565b6117ca612401565b73ffffffffffffffffffffffffffffffffffffffff166117e861164a565b73ffffffffffffffffffffffffffffffffffffffff161461183e576040517f08c379a000000000000000000000000000000000000000000000000000000000815260040161183590614373565b60405180910390fd5b61184661072b565b73ffffffffffffffffffffffffffffffffffffffff1663c5ebeaec826040518263ffffffff1660e01b815260040161187e9190614473565b600060405180830381600087803b15801561189857600080fd5b505af11580156118ac573d6000803e3d6000fd5b505050503373ffffffffffffffffffffffffffffffffffffffff167feae9cfbc77fdd40ca899f36b608256063b2bc9d8178b0220f7ad513e178d673082426040516118f89291906144b7565b60405180910390a2611908611064565b611947576040517f08c379a000000000000000000000000000000000000000000000000000000000815260040161193e90614393565b60405180910390fd5b50565b6000806119556123e5565b73ffffffffffffffffffffffffffffffffffffffff166376d02895846040518263ffffffff1660e01b815260040161198d919061403d565b60206040518083038186803b1580156119a557600080fd5b505afa1580156119b9573d6000803e3d6000fd5b505050506040513d601f19601f820116820180604052508101906119dd9190613851565b90508073ffffffffffffffffffffffffffffffffffffffff166370a08231856040518263ffffffff1660e01b8152600401611a189190613fa1565b60206040518083038186803b158015611a3057600080fd5b505afa158015611a44573d6000803e3d6000fd5b505050506040513d601f19601f82011682018060405250810190611a6891906139d4565b91505092915050565b6000804790506000611a816123e5565b73ffffffffffffffffffffffffffffffffffffffff16632acada4d6040518163ffffffff1660e01b815260040160006040518083038186803b158015611ac657600080fd5b505afa158015611ada573d6000803e3d6000fd5b505050506040513d6000823e3d601f19601f82011682018060405250810190611b0391906138b6565b90506000611b1082612b5f565b9050600081600081518110611b4e577f4e487b7100000000000000000000000000000000000000000000000000000000600052603260045260246000fd5b602002602001015190506000811415611b9c576040517f08c379a0000000000000000000000000000000000000000000000000000000008152600401611b9390614253565b60405180910390fd5b6000600190505b8251811015611db1576000838281518110611be7577f4e487b7100000000000000000000000000000000000000000000000000000000600052603260045260246000fd5b60200260200101511415611c30576040517f08c379a0000000000000000000000000000000000000000000000000000000008152600401611c27906142f3565b60405180910390fd5b6000848281518110611c6b577f4e487b7100000000000000000000000000000000000000000000000000000000600052603260045260246000fd5b602002602001015190506000611c8082612409565b90506000611c8e308461194a565b90508173ffffffffffffffffffffffffffffffffffffffff1663313ce5676040518163ffffffff1660e01b815260040160206040518083038186803b158015611cd657600080fd5b505afa158015611cea573d6000803e3d6000fd5b505050506040513d601f19601f82011682018060405250810190611d0e91906139fd565b600a611d1a9190614757565b85611d2591906148b1565b81670de0b6b3a7640000888781518110611d68577f4e487b7100000000000000000000000000000000000000000000000000000000600052603260045260246000fd5b6020026020010151611d7a91906148b1565b611d8491906148b1565b611d8e91906146d3565b88611d99919061467d565b97505050508080611da990614a58565b915050611ba3565b508394505050505090565b60026065541415611e02576040517f08c379a0000000000000000000000000000000000000000000000000000000008152600401611df990614453565b60405180910390fd5b6002606581905550611e12611064565b15611e52576040517f08c379a0000000000000000000000000000000000000000000000000000000008152600401611e4990614293565b60405180910390fd5b6000611e5c610923565b905080821115611e6a578091505b6000611e74610919565b611e7c61105b565b84611e8791906148b1565b611e9191906146d3565b905060008184611ea1919061467d565b9050611eac81612d19565b611eb584612e2c565b611ebe82612e41565b3373ffffffffffffffffffffffffffffffffffffffff167f7abe212d4944ae75cf0a0477af92aa0db98c15aaf21d06c37c97c641427b8eb38584611f00610fb5565b42604051611f119493929190614517565b60405180910390a25050506000611f26610fb5565b9050611f3061164a565b73ffffffffffffffffffffffffffffffffffffffff163373ffffffffffffffffffffffffffffffffffffffff1614611fad57611f6a611051565b811015611fac576040517f08c379a0000000000000000000000000000000000000000000000000000000008152600401611fa390614353565b60405180910390fd5b5b611fb5611713565b8110611ff6576040517f08c379a0000000000000000000000000000000000000000000000000000000008152600401611fed90614233565b60405180910390fd5b50600160658190555050565b60026065541415612048576040517f08c379a000000000000000000000000000000000000000000000000000000000815260040161203f90614453565b60405180910390fd5b6002606581905550612058612401565b73ffffffffffffffffffffffffffffffffffffffff1661207661164a565b73ffffffffffffffffffffffffffffffffffffffff16146120cc576040517f08c379a00000000000000000000000000000000000000000000000000000000081526004016120c390614373565b60405180910390fd5b60006120d784612409565b905061210b6120e46123e5565b848373ffffffffffffffffffffffffffffffffffffffff166124ad9092919063ffffffff16565b60006121156123e5565b73ffffffffffffffffffffffffffffffffffffffff166348eedd6b8686866040518463ffffffff1660e01b815260040161215193929190614081565b602060405180830381600087803b15801561216b57600080fd5b505af115801561217f573d6000803e3d6000fd5b505050506040513d601f19601f820116820180604052508101906121a391906138f7565b9050806121e5576040517f08c379a00000000000000000000000000000000000000000000000000000000081526004016121dc906143b3565b60405180910390fd5b843373ffffffffffffffffffffffffffffffffffffffff167fc95bd7ebbed9b9c3e9477753bcb60d02b328f1e5bce8b1a25986d6c73991c182864260405161222e9291906144b7565b60405180910390a35050612240611064565b61227f576040517f08c379a000000000000000000000000000000000000000000000000000000000815260040161227690614393565b60405180910390fd5b6001606581905550505050565b6122946136c8565b60405180608001604052806122a7611a71565b81526020016122b4610923565b81526020016122c1610fb5565b81526020016122ce611064565b6122d95760006122dc565b60015b815250905090565b6122ec612401565b73ffffffffffffffffffffffffffffffffffffffff1661230a61164a565b73ffffffffffffffffffffffffffffffffffffffff1614612360576040517f08c379a000000000000000000000000000000000000000000000000000000000815260040161235790614373565b60405180910390fd5b600073ffffffffffffffffffffffffffffffffffffffff168173ffffffffffffffffffffffffffffffffffffffff1614156123d0576040517f08c379a00000000000000000000000000000000000000000000000000000000081526004016123c7906141f3565b60405180910390fd5b6123d9816129d6565b50565b600060b4905090565b600073f1ca0cef19b051b4491ee2ccfd424ad7583c80c7905090565b600033905090565b6000806124146123e5565b73ffffffffffffffffffffffffffffffffffffffff166376d02895846040518263ffffffff1660e01b815260040161244c919061403d565b60206040518083038186803b15801561246457600080fd5b505afa158015612478573d6000803e3d6000fd5b505050506040513d601f19601f8201168201806040525081019061249c9190613851565b905060008190508092505050919050565b6000808473ffffffffffffffffffffffffffffffffffffffff1663a9059cbb85856040516024016124df929190613fbc565b6040516020818303038152906040529060e01b6020820180517bffffffffffffffffffffffffffffffffffffffffffffffffffffffff838183161783525050505060405161252d9190613f64565b6000604051808303816000865af19150503d806000811461256a576040519150601f19603f3d011682016040523d82523d6000602084013e61256f565b606091505b509150915081801561259d575060008151148061259c57508080602001905181019061259b91906138f7565b5b5b6125dc576040517f08c379a00000000000000000000000000000000000000000000000000000000081526004016125d3906143f3565b60405180910390fd5b5050505050565b60006125ee84612409565b90506126226125fb6123e5565b848373ffffffffffffffffffffffffffffffffffffffff166124ad9092919063ffffffff16565b61262a6123e5565b73ffffffffffffffffffffffffffffffffffffffff166348eedd6b8585856040518463ffffffff1660e01b815260040161266693929190614081565b602060405180830381600087803b15801561268057600080fd5b505af1158015612694573d6000803e3d6000fd5b505050506040513d601f19601f820116820180604052508101906126b891906138f7565b5050505050565b60008273ffffffffffffffffffffffffffffffffffffffff1682600067ffffffffffffffff81111561271a577f4e487b7100000000000000000000000000000000000000000000000000000000600052604160045260246000fd5b6040519080825280601f01601f19166020018201604052801561274c5781602001600182028036833780820191505090505b5060405161275a9190613f64565b60006040518083038185875af1925050503d8060008114612797576040519150601f19603f3d011682016040523d82523d6000602084013e61279c565b606091505b50509050806127e0576040517f08c379a00000000000000000000000000000000000000000000000000000000081526004016127d790614273565b60405180910390fd5b505050565b6127ed612401565b73ffffffffffffffffffffffffffffffffffffffff1661280b61164a565b73ffffffffffffffffffffffffffffffffffffffff1614612861576040517f08c379a000000000000000000000000000000000000000000000000000000000815260040161285890614373565b60405180910390fd5b600260655414156128a7576040517f08c379a000000000000000000000000000000000000000000000000000000000815260040161289e90614453565b60405180910390fd5b6002606581905550804710156128f2576040517f08c379a00000000000000000000000000000000000000000000000000000000081526004016128e9906142d3565b60405180910390fd5b61291b813373ffffffffffffffffffffffffffffffffffffffff166126bf90919063ffffffff16565b3373ffffffffffffffffffffffffffffffffffffffff167f92ccf450a286a957af52509bc1c9939d1a6a481783e142e41e2499f0bb66ebc682426040516129639291906144b7565b60405180910390a2612973611064565b6129b2576040517f08c379a00000000000000000000000000000000000000000000000000000000081526004016129a990614393565b60405180910390fd5b600160658190555050565b60008183106129cc57816129ce565b825b905092915050565b6000603360009054906101000a900473ffffffffffffffffffffffffffffffffffffffff16905081603360006101000a81548173ffffffffffffffffffffffffffffffffffffffff021916908373ffffffffffffffffffffffffffffffffffffffff1602179055508173ffffffffffffffffffffffffffffffffffffffff168173ffffffffffffffffffffffffffffffffffffffff167f8be0079c531659141344cd1fd0a4f28419497f9722a3daafe3b4186f6b6457e060405160405180910390a35050565b6000612aa730612e76565b15905090565b600060019054906101000a900460ff16612afc576040517f08c379a0000000000000000000000000000000000000000000000000000000008152600401612af3906143d3565b60405180910390fd5b612b04612e99565b565b600060019054906101000a900460ff16612b55576040517f08c379a0000000000000000000000000000000000000000000000000000000008152600401612b4c906143d3565b60405180910390fd5b612b5d612efa565b565b60606000606136033590506000602060408360ff16612b7e9190614875565b612b889190614645565b90506060604051905081815281604283013603602083013760208101604052600081805190602001209050600081604051602001612bc69190613f7b565b604051602081830303815290604052805190602001209050606060405190506041815260418036036020830137602081016040526000612c0f8284612f5390919063ffffffff16565b9050612c1a8161089d565b612c59576040517f08c379a0000000000000000000000000000000000000000000000000000000008152600401612c5090614213565b60405180910390fd5b600060623603359050612c6b816112bf565b612caa576040517f08c379a0000000000000000000000000000000000000000000000000000000008152600401612ca190614173565b60405180910390fd5b612cb88a8960ff1689612f7a565b98505050505050505050919050565b3373ffffffffffffffffffffffffffffffffffffffff167fcd909ec339185c4598a4096e174308fbdf136d117f230960f873a2f2e81f63af3442604051612d0f9291906144b7565b60405180910390a2565b6000612d236123e5565b73ffffffffffffffffffffffffffffffffffffffff16632acada4d6040518163ffffffff1660e01b815260040160006040518083038186803b158015612d6857600080fd5b505afa158015612d7c573d6000803e3d6000fd5b505050506040513d6000823e3d601f19601f82011682018060405250810190612da591906138b6565b905060005b8151811015612e2757824710612dbf57612e27565b612e14828281518110612dfb577f4e487b7100000000000000000000000000000000000000000000000000000000600052603260045260246000fd5b60200260200101514785612e0f919061490b565b613020565b8080612e1f90614a58565b915050612daa565b505050565b612e3e612e3947836129bd565b610e57565b50565b612e73612e4e82476129bd565b3373ffffffffffffffffffffffffffffffffffffffff166126bf90919063ffffffff16565b50565b6000808273ffffffffffffffffffffffffffffffffffffffff163b119050919050565b600060019054906101000a900460ff16612ee8576040517f08c379a0000000000000000000000000000000000000000000000000000000008152600401612edf906143d3565b60405180910390fd5b612ef8612ef3612401565b6129d6565b565b600060019054906101000a900460ff16612f49576040517f08c379a0000000000000000000000000000000000000000000000000000000008152600401612f40906143d3565b60405180910390fd5b6001606581905550565b6000806000612f628585613188565b91509150612f6f8161320b565b819250505092915050565b6060806000806000806042870136035995508951865260208a51026020870101604052600094505b8885101561301057604085028101359150600093505b895184101561300557816020850260208c0101511415612fed5760206040860282010135602085026020880101526001830192505b8951831415612ffa578894505b600184019350612fb8565b600185019450612fa2565b5084955050505050509392505050565b600061302b83612409565b905060008173ffffffffffffffffffffffffffffffffffffffff166370a08231306040518263ffffffff1660e01b81526004016130689190613fa1565b60206040518083038186803b15801561308057600080fd5b505afa158015613094573d6000803e3d6000fd5b505050506040513d601f19601f820116820180604052508101906130b891906139d4565b905060008111156131825760006130cd6123e5565b73ffffffffffffffffffffffffffffffffffffffff16639ac34dd385856040518363ffffffff1660e01b815260040161310792919061448e565b602060405180830381600087803b15801561312157600080fd5b505af1158015613135573d6000803e3d6000fd5b505050506040513d601f19601f8201168201806040525081019061315991906139d4565b9050808210156131745761316f858360006125e3565b613180565b61317f8582866125e3565b5b505b50505050565b6000806041835114156131ca5760008060006020860151925060408601519150606086015160001a90506131be8782858561355c565b94509450505050613204565b6040835114156131fb5760008060208501519150604085015190506131f0868383613669565b935093505050613204565b60006002915091505b9250929050565b60006004811115613245577f4e487b7100000000000000000000000000000000000000000000000000000000600052602160045260246000fd5b81600481111561327e577f4e487b7100000000000000000000000000000000000000000000000000000000600052602160045260246000fd5b141561328957613559565b600160048111156132c3577f4e487b7100000000000000000000000000000000000000000000000000000000600052602160045260246000fd5b8160048111156132fc577f4e487b7100000000000000000000000000000000000000000000000000000000600052602160045260246000fd5b141561333d576040517f08c379a000000000000000000000000000000000000000000000000000000000815260040161333490614133565b60405180910390fd5b60026004811115613377577f4e487b7100000000000000000000000000000000000000000000000000000000600052602160045260246000fd5b8160048111156133b0577f4e487b7100000000000000000000000000000000000000000000000000000000600052602160045260246000fd5b14156133f1576040517f08c379a00000000000000000000000000000000000000000000000000000000081526004016133e890614153565b60405180910390fd5b6003600481111561342b577f4e487b7100000000000000000000000000000000000000000000000000000000600052602160045260246000fd5b816004811115613464577f4e487b7100000000000000000000000000000000000000000000000000000000600052602160045260246000fd5b14156134a5576040517f08c379a000000000000000000000000000000000000000000000000000000000815260040161349c906142b3565b60405180910390fd5b6004808111156134de577f4e487b7100000000000000000000000000000000000000000000000000000000600052602160045260246000fd5b816004811115613517577f4e487b7100000000000000000000000000000000000000000000000000000000600052602160045260246000fd5b1415613558576040517f08c379a000000000000000000000000000000000000000000000000000000000815260040161354f90614333565b60405180910390fd5b5b50565b6000807f7fffffffffffffffffffffffffffffff5d576e7357a4501ddfe92f46681b20a08360001c1115613597576000600391509150613660565b601b8560ff16141580156135af5750601c8560ff1614155b156135c1576000600491509150613660565b6000600187878787604051600081526020016040526040516135e694939291906140b8565b6020604051602081039080840390855afa158015613608573d6000803e3d6000fd5b505050602060405103519050600073ffffffffffffffffffffffffffffffffffffffff168173ffffffffffffffffffffffffffffffffffffffff16141561365757600060019250925050613660565b80600092509250505b94509492505050565b60008060007f7fffffffffffffffffffffffffffffffffffffffffffffffffffffffffffffff60001b841690506000601b60ff8660001c901c6136ac919061467d565b90506136ba8782888561355c565b935093505050935093915050565b6040518060800160405280600490602082028036833780820191505090505090565b60006136fd6136f884614581565b61455c565b9050808382526020820190508285602086028201111561371c57600080fd5b60005b8581101561374c578161373288826137d4565b84526020840193506020830192505060018101905061371f565b5050509392505050565b600081359050613765816152ed565b92915050565b60008151905061377a816152ed565b92915050565b600082601f83011261379157600080fd5b81516137a18482602086016136ea565b91505092915050565b6000815190506137b981615304565b92915050565b6000813590506137ce8161531b565b92915050565b6000815190506137e38161531b565b92915050565b6000813590506137f881615332565b92915050565b60008151905061380d81615332565b92915050565b60008151905061382281615349565b92915050565b60006020828403121561383a57600080fd5b600061384884828501613756565b91505092915050565b60006020828403121561386357600080fd5b60006138718482850161376b565b91505092915050565b6000806040838503121561388d57600080fd5b600061389b85828601613756565b92505060206138ac858286016137bf565b9150509250929050565b6000602082840312156138c857600080fd5b600082015167ffffffffffffffff8111156138e257600080fd5b6138ee84828501613780565b91505092915050565b60006020828403121561390957600080fd5b6000613917848285016137aa565b91505092915050565b6000806040838503121561393357600080fd5b6000613941858286016137bf565b9250506020613952858286016137e9565b9150509250929050565b60008060006060848603121561397157600080fd5b600061397f868287016137bf565b9350506020613990868287016137e9565b92505060406139a1868287016137e9565b9150509250925092565b6000602082840312156139bd57600080fd5b60006139cb848285016137e9565b91505092915050565b6000602082840312156139e657600080fd5b60006139f4848285016137fe565b91505092915050565b600060208284031215613a0f57600080fd5b6000613a1d84828501613813565b91505092915050565b6000613a328383613f37565b60208301905092915050565b613a478161493f565b82525050565b613a56816145c7565b613a608184614602565b9250613a6b826145ad565b8060005b83811015613a9c578151613a838782613a26565b9650613a8e836145e8565b925050600181019050613a6f565b505050505050565b6000613aaf826145d2565b613ab9818561460d565b9350613ac4836145b7565b8060005b83811015613af5578151613adc8882613a26565b9750613ae7836145f5565b925050600181019050613ac8565b5085935050505092915050565b613b0b81614951565b82525050565b613b1a8161495d565b82525050565b613b31613b2c8261495d565b614aa1565b82525050565b6000613b42826145dd565b613b4c818561461e565b9350613b5c8185602086016149f4565b80840191505092915050565b613b71816149ac565b82525050565b613b80816149d0565b82525050565b6000613b93601883614629565b9150613b9e82614b56565b602082019050919050565b6000613bb6601f83614629565b9150613bc182614b7f565b602082019050919050565b6000613bd9601c8361463a565b9150613be482614ba8565b601c82019050919050565b6000613bfc601983614629565b9150613c0782614bd1565b602082019050919050565b6000613c1f604583614629565b9150613c2a82614bfa565b606082019050919050565b6000613c42602983614629565b9150613c4d82614c6f565b604082019050919050565b6000613c65602b83614629565b9150613c7082614cbe565b604082019050919050565b6000613c88602683614629565b9150613c9382614d0d565b604082019050919050565b6000613cab601583614629565b9150613cb682614d5c565b602082019050919050565b6000613cce604c83614629565b9150613cd982614d85565b606082019050919050565b6000613cf1602783614629565b9150613cfc82614dfa565b604082019050919050565b6000613d14603483614629565b9150613d1f82614e49565b604082019050919050565b6000613d37602083614629565b9150613d4282614e98565b602082019050919050565b6000613d5a602283614629565b9150613d6582614ec1565b604082019050919050565b6000613d7d602583614629565b9150613d8882614f10565b604082019050919050565b6000613da0602883614629565b9150613dab82614f5f565b604082019050919050565b6000613dc3602e83614629565b9150613dce82614fae565b604082019050919050565b6000613de6602283614629565b9150613df182614ffd565b604082019050919050565b6000613e09609283614629565b9150613e148261504c565b60a082019050919050565b6000613e2c602083614629565b9150613e378261510d565b602082019050919050565b6000613e4f603383614629565b9150613e5a82615136565b604082019050919050565b6000613e72601183614629565b9150613e7d82615185565b602082019050919050565b6000613e95602b83614629565b9150613ea0826151ae565b604082019050919050565b6000613eb8602d83614629565b9150613ec3826151fd565b604082019050919050565b6000613edb603483614629565b9150613ee68261524c565b604082019050919050565b6000613efe601183614629565b9150613f098261529b565b602082019050919050565b6000613f21601f83614629565b9150613f2c826152c4565b602082019050919050565b613f4081614995565b82525050565b613f4f81614995565b82525050565b613f5e8161499f565b82525050565b6000613f708284613b37565b915081905092915050565b6000613f8682613bcc565b9150613f928284613b20565b60208201915081905092915050565b6000602082019050613fb66000830184613a3e565b92915050565b6000604082019050613fd16000830185613a3e565b613fde6020830184613f46565b9392505050565b6000608082019050613ffa6000830184613a4d565b92915050565b6000602082019050818103600083015261401a8184613aa4565b905092915050565b60006020820190506140376000830184613b02565b92915050565b60006020820190506140526000830184613b11565b92915050565b600060408201905061406d6000830185613b11565b61407a6020830184613f46565b9392505050565b60006060820190506140966000830186613b11565b6140a36020830185613f46565b6140b06040830184613f46565b949350505050565b60006080820190506140cd6000830187613b11565b6140da6020830186613f55565b6140e76040830185613b11565b6140f46060830184613b11565b95945050505050565b60006020820190506141126000830184613b68565b92915050565b600060208201905061412d6000830184613b77565b92915050565b6000602082019050818103600083015261414c81613b86565b9050919050565b6000602082019050818103600083015261416c81613ba9565b9050919050565b6000602082019050818103600083015261418c81613bef565b9050919050565b600060208201905081810360008301526141ac81613c12565b9050919050565b600060208201905081810360008301526141cc81613c35565b9050919050565b600060208201905081810360008301526141ec81613c58565b9050919050565b6000602082019050818103600083015261420c81613c7b565b9050919050565b6000602082019050818103600083015261422c81613c9e565b9050919050565b6000602082019050818103600083015261424c81613cc1565b9050919050565b6000602082019050818103600083015261426c81613ce4565b9050919050565b6000602082019050818103600083015261428c81613d07565b9050919050565b600060208201905081810360008301526142ac81613d2a565b9050919050565b600060208201905081810360008301526142cc81613d4d565b9050919050565b600060208201905081810360008301526142ec81613d70565b9050919050565b6000602082019050818103600083015261430c81613d93565b9050919050565b6000602082019050818103600083015261432c81613db6565b9050919050565b6000602082019050818103600083015261434c81613dd9565b9050919050565b6000602082019050818103600083015261436c81613dfc565b9050919050565b6000602082019050818103600083015261438c81613e1f565b9050919050565b600060208201905081810360008301526143ac81613e42565b9050919050565b600060208201905081810360008301526143cc81613e65565b9050919050565b600060208201905081810360008301526143ec81613e88565b9050919050565b6000602082019050818103600083015261440c81613eab565b9050919050565b6000602082019050818103600083015261442c81613ece565b9050919050565b6000602082019050818103600083015261444c81613ef1565b9050919050565b6000602082019050818103600083015261446c81613f14565b9050919050565b60006020820190506144886000830184613f46565b92915050565b60006040820190506144a36000830185613f46565b6144b06020830184613a3e565b9392505050565b60006040820190506144cc6000830185613f46565b6144d96020830184613f46565b9392505050565b60006060820190506144f56000830186613f46565b6145026020830185613f46565b61450f6040830184613f46565b949350505050565b600060808201905061452c6000830187613f46565b6145396020830186613f46565b6145466040830185613f46565b6145536060830184613f46565b95945050505050565b6000614566614577565b90506145728282614a27565b919050565b6000604051905090565b600067ffffffffffffffff82111561459c5761459b614b09565b5b602082029050602081019050919050565b6000819050919050565b6000819050602082019050919050565b600060049050919050565b600081519050919050565b600081519050919050565b6000602082019050919050565b6000602082019050919050565b600081905092915050565b600082825260208201905092915050565b600081905092915050565b600082825260208201905092915050565b600081905092915050565b600061465082614967565b915061465b83614967565b92508261ffff0382111561467257614671614aab565b5b828201905092915050565b600061468882614995565b915061469383614995565b9250827fffffffffffffffffffffffffffffffffffffffffffffffffffffffffffffffff038211156146c8576146c7614aab565b5b828201905092915050565b60006146de82614995565b91506146e983614995565b9250826146f9576146f8614ada565b5b828204905092915050565b6000808291508390505b600185111561474e5780860481111561472a57614729614aab565b5b60018516156147395780820291505b808102905061474785614b49565b945061470e565b94509492505050565b600061476282614995565b915061476d8361499f565b925061479a7fffffffffffffffffffffffffffffffffffffffffffffffffffffffffffffffff84846147a2565b905092915050565b6000826147b2576001905061486e565b816147c0576000905061486e565b81600181146147d657600281146147e05761480f565b600191505061486e565b60ff8411156147f2576147f1614aab565b5b8360020a91508482111561480957614808614aab565b5b5061486e565b5060208310610133831016604e8410600b84101617156148445782820a90508381111561483f5761483e614aab565b5b61486e565b6148518484846001614704565b9250905081840481111561486857614867614aab565b5b81810290505b9392505050565b600061488082614967565b915061488b83614967565b92508161ffff04831182151516156148a6576148a5614aab565b5b828202905092915050565b60006148bc82614995565b91506148c783614995565b9250817fffffffffffffffffffffffffffffffffffffffffffffffffffffffffffffffff0483118215151615614900576148ff614aab565b5b828202905092915050565b600061491682614995565b915061492183614995565b92508282101561493457614933614aab565b5b828203905092915050565b600061494a82614975565b9050919050565b60008115159050919050565b6000819050919050565b600061ffff82169050919050565b600073ffffffffffffffffffffffffffffffffffffffff82169050919050565b6000819050919050565b600060ff82169050919050565b60006149b7826149be565b9050919050565b60006149c982614975565b9050919050565b60006149db826149e2565b9050919050565b60006149ed82614975565b9050919050565b60005b83811015614a125780820151818401526020810190506149f7565b83811115614a21576000848401525b50505050565b614a3082614b38565b810181811067ffffffffffffffff82111715614a4f57614a4e614b09565b5b80604052505050565b6000614a6382614995565b91507fffffffffffffffffffffffffffffffffffffffffffffffffffffffffffffffff821415614a9657614a95614aab565b5b600182019050919050565b6000819050919050565b7f4e487b7100000000000000000000000000000000000000000000000000000000600052601160045260246000fd5b7f4e487b7100000000000000000000000000000000000000000000000000000000600052601260045260246000fd5b7f4e487b7100000000000000000000000000000000000000000000000000000000600052604160045260246000fd5b6000601f19601f8301169050919050565b60008160011c9050919050565b7f45434453413a20696e76616c6964207369676e61747572650000000000000000600082015250565b7f45434453413a20696e76616c6964207369676e6174757265206c656e67746800600082015250565b7f19457468657265756d205369676e6564204d6573736167653a0a333200000000600082015250565b7f446174612074696d657374616d7020697320696e76616c696400000000000000600082015250565b7f53656c6c696e67206f757420616c6c2061737365747320776974686f7574207260008201527f65706179696e67207468652077686f6c652064656274206973206e6f7420616c60208201527f6c6f776564000000000000000000000000000000000000000000000000000000604082015250565b7f416464696e67206d6f7265207468616e20312e32352041564158206973206e6f60008201527f7420616c6c6f7765640000000000000000000000000000000000000000000000602082015250565b7f5468657265206973206e6f7420656e6f7567682066756e647320746f2072657060008201527f617920746865206c6f616e000000000000000000000000000000000000000000602082015250565b7f4f776e61626c653a206e6577206f776e657220697320746865207a65726f206160008201527f6464726573730000000000000000000000000000000000000000000000000000602082015250565b7f5369676e6572206e6f7420617574686f72697a65640000000000000000000000600082015250565b7f54686973206f7065726174696f6e20776f756c64206e6f7420726573756c742060008201527f696e206272696e67696e6720746865206c6f616e206261636b20746f2061207360208201527f6f6c76656e742073746174650000000000000000000000000000000000000000604082015250565b7f417661782070726963652072657475726e65642066726f6d206f7261636c652060008201527f6973207a65726f00000000000000000000000000000000000000000000000000602082015250565b7f5472616e7366657248656c7065723a3a736166655472616e736665724554483a60008201527f20455448207472616e73666572206661696c6564000000000000000000000000602082015250565b7f43616e6e6f742073656c6c6f7574206120736f6c76656e74206163636f756e74600082015250565b7f45434453413a20696e76616c6964207369676e6174757265202773272076616c60008201527f7565000000000000000000000000000000000000000000000000000000000000602082015250565b7f5468657265206973206e6f7420656e6f7567682066756e647320746f2077697460008201527f6864726177000000000000000000000000000000000000000000000000000000602082015250565b7f41737365742070726963652072657475726e65642066726f6d206f7261636c6560008201527f206973207a65726f000000000000000000000000000000000000000000000000602082015250565b7f496e697469616c697a61626c653a20636f6e747261637420697320616c72656160008201527f647920696e697469616c697a6564000000000000000000000000000000000000602082015250565b7f45434453413a20696e76616c6964207369676e6174757265202776272076616c60008201527f7565000000000000000000000000000000000000000000000000000000000000602082015250565b7f54686973206f7065726174696f6e20776f756c6420726573756c7420696e206160008201527f206c6f616e2077697468204c5456206c6f776572207468616e204d696e696d6160208201527f6c2053656c6c6f7574204c545620776869636820776f756c6420707574206c6f60408201527f616e2773206f776e657220696e2061207269736b206f6620616e20756e6e656360608201527f6573736172696c792068696768206c6f73730000000000000000000000000000608082015250565b7f4f776e61626c653a2063616c6c6572206973206e6f7420746865206f776e6572600082015250565b7f54686520616374696f6e206d617920636175736520616e206163636f756e742060008201527f746f206265636f6d6520696e736f6c76656e7400000000000000000000000000602082015250565b7f526564656d7074696f6e206661696c6564000000000000000000000000000000600082015250565b7f496e697469616c697a61626c653a20636f6e7472616374206973206e6f74206960008201527f6e697469616c697a696e67000000000000000000000000000000000000000000602082015250565b7f5472616e7366657248656c7065723a3a736166655472616e736665723a20747260008201527f616e73666572206661696c656400000000000000000000000000000000000000602082015250565b7f4e6f7420656e6f7567682066756e64732061726520617661696c61626c65207460008201527f6f20696e7665737420696e20616e206173736574000000000000000000000000602082015250565b7f496e766573746d656e74206661696c6564000000000000000000000000000000600082015250565b7f5265656e7472616e637947756172643a207265656e7472616e742063616c6c00600082015250565b6152f68161493f565b811461530157600080fd5b50565b61530d81614951565b811461531857600080fd5b50565b6153248161495d565b811461532f57600080fd5b50565b61533b81614995565b811461534657600080fd5b50565b6153528161499f565b811461535d57600080fd5b5056fea2646970667358221220b1a10cba9750065aabfb3a5a88799b959e48670200d14f5075ee1479aa7ecb2c64736f6c63430008040033",
  "devdoc": {
    "kind": "dev",
    "methods": {
      "borrow(uint256)": {
        "details": "This function uses the redstone-evm-connector*",
        "params": {
          "_amount": "of funds to borrow"
        }
      },
      "closeLoan()": {
        "details": "This function uses the redstone-evm-connector*"
      },
      "getAllAssetsPrices()": {
        "details": "This function uses the redstone-evm-connector*"
      },
      "getBalance(address,bytes32)": {
        "details": "_asset the code of an asset_user the address of queried user*"
      },
      "getLTV()": {
        "details": "This function uses the redstone-evm-connector*"
      },
      "getTotalValue()": {
        "details": "This function uses the redstone-evm-connector*"
      },
      "invest(bytes32,uint256,uint256)": {
        "details": "This function uses the redstone-evm-connector*",
        "params": {
          "_asset": "code of the asset",
          "_exactERC20AmountOut": "exact amount of asset to buy",
          "_maxAvaxAmountIn": "maximum amount of AVAX to sell"
        }
      },
      "isSolvent()": {
        "details": "This function uses the redstone-evm-connector*"
      },
      "liquidateLoan(uint256)": {
        "details": "This function uses the redstone-evm-connector*"
      },
      "owner()": {
        "details": "Returns the address of the current owner."
      },
      "redeem(bytes32,uint256,uint256)": {
        "details": "This function uses the redstone-evm-connector*",
        "params": {
          "_asset": "code of the asset",
          "_exactERC20AmountIn": "exact amount of token to sell",
          "_minAvaxAmountOut": "minimum amount of the AVAX token to buy"
        }
      },
      "renounceOwnership()": {
        "details": "Leaves the contract without owner. It will not be possible to call `onlyOwner` functions anymore. Can only be called by the current owner. NOTE: Renouncing ownership will leave the contract without an owner, thereby removing any functionality that is only available to the owner."
      },
      "repay(uint256)": {
        "details": "This function uses the redstone-evm-connector*",
        "params": {
          "_amount": "of funds to repay"
        }
      },
      "transferOwnership(address)": {
        "details": "Transfers ownership of the contract to a new account (`newOwner`). Can only be called by the current owner."
      },
      "withdraw(uint256)": {
        "details": "This function uses the redstone-evm-connector*",
        "params": {
          "_amount": "to be withdrawn"
        }
      },
      "withdrawAsset(bytes32,uint256)": {
        "details": "This function uses the redstone-evm-connector*"
      }
    },
    "version": 1
  },
  "userdoc": {
    "kind": "user",
    "methods": {
      "borrow(uint256)": {
        "notice": "Borrows funds from the pool"
      },
      "closeLoan()": {
        "notice": "This function can only be accessed by the owner and allows selling all of the assets."
      },
      "fund()": {
        "notice": "Funds a loan with the value attached to the transaction Allows to add up to 1.25 AVAX of collateral in total*"
      },
      "getAllAssetsBalances()": {
        "notice": "Returns the balances of all assets served by the price provider It could be used as a helper method for UI*"
      },
      "getAllAssetsPrices()": {
        "notice": "Returns the prices of all assets served by the price provider It could be used as a helper method for UI"
      },
      "getBalance(address,bytes32)": {
        "notice": "Returns the current balance of the asset held by a given user"
      },
      "getDebt()": {
        "notice": "Returns the current debt associated with the loan*"
      },
      "getLTV()": {
        "notice": "LoanToValue ratio is calculated as the ratio between debt and collateral. The collateral is equal to total loan value takeaway debt."
      },
      "getMaxBlockTimestampDelay()": {
        "notice": "Override PriceAware method to consider Avalanche guaranteed block timestamp time accuracy*"
      },
      "getTotalValue()": {
        "notice": "Returns the current value of a loan in AVAX including cash and investments"
      },
      "invest(bytes32,uint256,uint256)": {
        "notice": "Invests an amount to buy an asset"
      },
      "isSignerAuthorized(address)": {
        "notice": "Override PriceAware method, addresses below belong to authorized signers of data feeds*"
      },
      "isSolvent()": {
        "notice": "Checks if the loan is solvent. It means that the ratio between debt and collateral is below safe level, which is parametrized by the getMaxLtv()"
      },
      "redeem(bytes32,uint256,uint256)": {
        "notice": "Redeem an investment by selling an asset"
      },
      "repay(uint256)": {
        "notice": "Repays funds to the pool"
      },
      "withdraw(uint256)": {
        "notice": "Withdraws an amount from the loan This method could be used to cash out profits from investments The loan needs to remain solvent after the withdrawal"
      }
    },
    "version": 1
  },
  "storageLayout": {
    "storage": [
      {
        "astId": 130,
        "contract": "contracts/upgraded/SmartLoanLimitedCollateral.sol:SmartLoanLimitedCollateral",
        "label": "_initialized",
        "offset": 0,
        "slot": "0",
        "type": "t_bool"
      },
      {
        "astId": 133,
        "contract": "contracts/upgraded/SmartLoanLimitedCollateral.sol:SmartLoanLimitedCollateral",
        "label": "_initializing",
        "offset": 1,
        "slot": "0",
        "type": "t_bool"
      },
      {
        "astId": 540,
        "contract": "contracts/upgraded/SmartLoanLimitedCollateral.sol:SmartLoanLimitedCollateral",
        "label": "__gap",
        "offset": 0,
        "slot": "1",
        "type": "t_array(t_uint256)50_storage"
      },
      {
        "astId": 10,
        "contract": "contracts/upgraded/SmartLoanLimitedCollateral.sol:SmartLoanLimitedCollateral",
        "label": "_owner",
        "offset": 0,
        "slot": "51",
        "type": "t_address"
      },
      {
        "astId": 122,
        "contract": "contracts/upgraded/SmartLoanLimitedCollateral.sol:SmartLoanLimitedCollateral",
        "label": "__gap",
        "offset": 0,
        "slot": "52",
        "type": "t_array(t_uint256)49_storage"
      },
      {
        "astId": 211,
        "contract": "contracts/upgraded/SmartLoanLimitedCollateral.sol:SmartLoanLimitedCollateral",
        "label": "_status",
        "offset": 0,
        "slot": "101",
        "type": "t_uint256"
      },
      {
        "astId": 255,
        "contract": "contracts/upgraded/SmartLoanLimitedCollateral.sol:SmartLoanLimitedCollateral",
        "label": "__gap",
        "offset": 0,
        "slot": "102",
        "type": "t_array(t_uint256)49_storage"
      }
    ],
    "types": {
      "t_address": {
        "encoding": "inplace",
        "label": "address",
        "numberOfBytes": "20"
      },
      "t_array(t_uint256)49_storage": {
        "base": "t_uint256",
        "encoding": "inplace",
        "label": "uint256[49]",
        "numberOfBytes": "1568"
      },
      "t_array(t_uint256)50_storage": {
        "base": "t_uint256",
        "encoding": "inplace",
        "label": "uint256[50]",
        "numberOfBytes": "1600"
      },
      "t_bool": {
        "encoding": "inplace",
        "label": "bool",
        "numberOfBytes": "1"
      },
      "t_uint256": {
        "encoding": "inplace",
        "label": "uint256",
        "numberOfBytes": "32"
      }
    }
  }
}