{
  "address": "0x61D8F64747D711BaBD4c625Cdf042D6B52fae35e",
  "abi": [
    {
      "anonymous": false,
      "inputs": [
        {
          "indexed": true,
          "internalType": "address",
          "name": "previousOwner",
          "type": "address"
        },
        {
          "indexed": true,
          "internalType": "address",
          "name": "newOwner",
          "type": "address"
        }
      ],
      "name": "OwnershipTransferred",
      "type": "event"
    },
    {
      "anonymous": false,
      "inputs": [
        {
          "indexed": true,
          "internalType": "address",
          "name": "accountAddress",
          "type": "address"
        },
        {
          "indexed": true,
          "internalType": "address",
          "name": "creator",
          "type": "address"
        },
        {
          "indexed": false,
          "internalType": "uint256",
          "name": "initialCollateral",
          "type": "uint256"
        },
        {
          "indexed": false,
          "internalType": "uint256",
          "name": "initialDebt",
          "type": "uint256"
        }
      ],
      "name": "SmartLoanCreated",
      "type": "event"
    },
    {
      "inputs": [
        {
          "internalType": "address",
          "name": "_account",
          "type": "address"
        }
      ],
      "name": "canBorrow",
      "outputs": [
        {
          "internalType": "bool",
          "name": "",
          "type": "bool"
        }
      ],
      "stateMutability": "view",
      "type": "function"
    },
    {
      "inputs": [
        {
          "internalType": "uint256",
          "name": "_initialDebt",
          "type": "uint256"
        }
      ],
      "name": "createAndFundLoan",
      "outputs": [
        {
          "internalType": "contract SmartLoan",
          "name": "",
          "type": "address"
        }
      ],
      "stateMutability": "payable",
      "type": "function"
    },
    {
      "inputs": [],
      "name": "createLoan",
      "outputs": [
        {
          "internalType": "contract SmartLoan",
          "name": "",
          "type": "address"
        }
      ],
      "stateMutability": "nonpayable",
      "type": "function"
    },
    {
      "inputs": [],
      "name": "getAllLoans",
      "outputs": [
        {
          "internalType": "contract SmartLoan[]",
          "name": "",
          "type": "address[]"
        }
      ],
      "stateMutability": "view",
      "type": "function"
    },
    {
      "inputs": [
        {
          "internalType": "address",
          "name": "_user",
          "type": "address"
        }
      ],
      "name": "getLoanForOwner",
      "outputs": [
        {
          "internalType": "address",
          "name": "",
          "type": "address"
        }
      ],
      "stateMutability": "view",
      "type": "function"
    },
    {
      "inputs": [
        {
          "internalType": "address",
          "name": "_loan",
          "type": "address"
        }
      ],
      "name": "getOwnerOfLoan",
      "outputs": [
        {
          "internalType": "address",
          "name": "",
          "type": "address"
        }
      ],
      "stateMutability": "view",
      "type": "function"
    },
    {
      "inputs": [
        {
          "internalType": "contract SmartLoan",
          "name": "_smartLoanImplementation",
          "type": "address"
        }
      ],
      "name": "initialize",
      "outputs": [],
      "stateMutability": "nonpayable",
      "type": "function"
    },
    {
      "inputs": [
        {
          "internalType": "address",
          "name": "",
          "type": "address"
        }
      ],
      "name": "loansToOwners",
      "outputs": [
        {
          "internalType": "address",
          "name": "",
          "type": "address"
        }
      ],
      "stateMutability": "view",
      "type": "function"
    },
    {
      "inputs": [],
      "name": "owner",
      "outputs": [
        {
          "internalType": "address",
          "name": "",
          "type": "address"
        }
      ],
      "stateMutability": "view",
      "type": "function"
    },
    {
      "inputs": [
        {
          "internalType": "address",
          "name": "",
          "type": "address"
        }
      ],
      "name": "ownersToLoans",
      "outputs": [
        {
          "internalType": "address",
          "name": "",
          "type": "address"
        }
      ],
      "stateMutability": "view",
      "type": "function"
    },
    {
      "inputs": [],
      "name": "renounceOwnership",
      "outputs": [],
      "stateMutability": "nonpayable",
      "type": "function"
    },
    {
      "inputs": [
        {
          "internalType": "address",
          "name": "newOwner",
          "type": "address"
        }
      ],
      "name": "transferOwnership",
      "outputs": [],
      "stateMutability": "nonpayable",
      "type": "function"
    },
    {
      "inputs": [],
      "name": "upgradeableBeacon",
      "outputs": [
        {
          "internalType": "contract UpgradeableBeacon",
          "name": "",
          "type": "address"
        }
      ],
      "stateMutability": "view",
      "type": "function"
    }
  ],
  "transactionHash": "0x94afe6ab0cc4e77b1ea44547890b833ea3b9e352b7651910be16badb4194fea3",
  "args": [],
  "numDeployments": 1,
  "solcInputHash": "97c2321bbed27f39e84769486397b218",
  "bytecode": "0x608060405234801561001057600080fd5b50613a29806100206000396000f3fe608060405260043610620000d45760003560e01c8063715018a6116200008b578063c4d66de81162000061578063c4d66de814620002d7578063d26095201462000305578063e78fd9311462000335578063f2fde38b146200036b57620000d4565b8063715018a6146200025d5780638da5cb5b1462000277578063a5bfd16a14620002a757620000d4565b80630e7fc86414620000d95780631f278b74146200011d5780633344a5551462000161578063357719ef14620001a55780635b01254614620001e957806365ec1a45146200022d575b600080fd5b348015620000e657600080fd5b50620001056004803603810190620000ff91906200152c565b62000399565b604051620001149190620018bd565b60405180910390f35b3480156200012a57600080fd5b506200014960048036038101906200014391906200152c565b62000431565b60405162000158919062001848565b60405180910390f35b3480156200016e57600080fd5b506200018d60048036038101906200018791906200152c565b62000464565b6040516200019c919062001848565b60405180910390f35b348015620001b257600080fd5b50620001d16004803603810190620001cb91906200152c565b620004cd565b604051620001e0919062001848565b60405180910390f35b348015620001f657600080fd5b506200021560048036038101906200020f91906200152c565b62000500565b60405162000224919062001848565b60405180910390f35b3480156200023a57600080fd5b506200024562000569565b604051620002549190620018da565b60405180910390f35b3480156200026a57600080fd5b506200027562000805565b005b3480156200028457600080fd5b506200028f62000896565b6040516200029e919062001848565b60405180910390f35b348015620002b457600080fd5b50620002bf620008c0565b604051620002ce919062001899565b60405180910390f35b348015620002e457600080fd5b50620003036004803603810190620002fd919062001558565b62000950565b005b3480156200031257600080fd5b506200031d62000b52565b6040516200032c9190620018f7565b60405180910390f35b6200035360048036038101906200034d919062001584565b62000b78565b604051620003629190620018da565b60405180910390f35b3480156200037857600080fd5b506200039760048036038101906200039191906200152c565b62000eee565b005b60008073ffffffffffffffffffffffffffffffffffffffff16606760008473ffffffffffffffffffffffffffffffffffffffff1673ffffffffffffffffffffffffffffffffffffffff16815260200190815260200160002060009054906101000a900473ffffffffffffffffffffffffffffffffffffffff1673ffffffffffffffffffffffffffffffffffffffff1614159050919050565b60676020528060005260406000206000915054906101000a900473ffffffffffffffffffffffffffffffffffffffff1681565b6000606660008373ffffffffffffffffffffffffffffffffffffffff1673ffffffffffffffffffffffffffffffffffffffff16815260200190815260200160002060009054906101000a900473ffffffffffffffffffffffffffffffffffffffff169050919050565b60666020528060005260406000206000915054906101000a900473ffffffffffffffffffffffffffffffffffffffff1681565b6000606760008373ffffffffffffffffffffffffffffffffffffffff1673ffffffffffffffffffffffffffffffffffffffff16815260200190815260200160002060009054906101000a900473ffffffffffffffffffffffffffffffffffffffff169050919050565b60008073ffffffffffffffffffffffffffffffffffffffff16606660003373ffffffffffffffffffffffffffffffffffffffff1673ffffffffffffffffffffffffffffffffffffffff16815260200190815260200160002060009054906101000a900473ffffffffffffffffffffffffffffffffffffffff1673ffffffffffffffffffffffffffffffffffffffff16146200063b576040517f08c379a0000000000000000000000000000000000000000000000000000000008152600401620006329062001980565b60405180910390fd5b6000606560009054906101000a900473ffffffffffffffffffffffffffffffffffffffff16638129fc1c60e01b60006040516024016200067c919062001914565b604051602081830303815290604052907bffffffffffffffffffffffffffffffffffffffffffffffffffffffff19166020820180517bffffffffffffffffffffffffffffffffffffffffffffffffffffffff8381831617835250505050604051620006e790620014cb565b620006f492919062001865565b604051809103906000f08015801562000711573d6000803e3d6000fd5b5090506000819050620007248162000ff2565b8073ffffffffffffffffffffffffffffffffffffffff1663f2fde38b336040518263ffffffff1660e01b81526004016200075f919062001848565b600060405180830381600087803b1580156200077a57600080fd5b505af11580156200078f573d6000803e3d6000fd5b505050503373ffffffffffffffffffffffffffffffffffffffff168173ffffffffffffffffffffffffffffffffffffffff167f74f440674c6106c61951acc831efcdce60effebf4fea0fdc74f0e5ad72f56a10600080604051620007f592919062001931565b60405180910390a3809250505090565b6200080f62001154565b73ffffffffffffffffffffffffffffffffffffffff166200082f62000896565b73ffffffffffffffffffffffffffffffffffffffff161462000888576040517f08c379a00000000000000000000000000000000000000000000000000000000081526004016200087f90620019e6565b60405180910390fd5b6200089460006200115c565b565b6000603360009054906101000a900473ffffffffffffffffffffffffffffffffffffffff16905090565b606060688054806020026020016040519081016040528092919081815260200182805480156200094657602002820191906000526020600020905b8160009054906101000a900473ffffffffffffffffffffffffffffffffffffffff1673ffffffffffffffffffffffffffffffffffffffff1681526020019060010190808311620008fb575b5050505050905090565b600060019054906101000a900460ff166200097a5760008054906101000a900460ff161562000985565b6200098462001222565b5b620009c7576040517f08c379a0000000000000000000000000000000000000000000000000000000008152600401620009be90620019a2565b60405180910390fd5b60008060019054906101000a900460ff16159050801562000a18576001600060016101000a81548160ff02191690831515021790555060016000806101000a81548160ff0219169083151502179055505b8160405162000a2790620014d9565b62000a33919062001848565b604051809103906000f08015801562000a50573d6000803e3d6000fd5b50606560006101000a81548173ffffffffffffffffffffffffffffffffffffffff021916908373ffffffffffffffffffffffffffffffffffffffff160217905550606560009054906101000a900473ffffffffffffffffffffffffffffffffffffffff1673ffffffffffffffffffffffffffffffffffffffff1663f2fde38b336040518263ffffffff1660e01b815260040162000aee919062001848565b600060405180830381600087803b15801562000b0957600080fd5b505af115801562000b1e573d6000803e3d6000fd5b5050505062000b2c62001235565b801562000b4e5760008060016101000a81548160ff0219169083151502179055505b5050565b606560009054906101000a900473ffffffffffffffffffffffffffffffffffffffff1681565b60008073ffffffffffffffffffffffffffffffffffffffff16606660003373ffffffffffffffffffffffffffffffffffffffff1673ffffffffffffffffffffffffffffffffffffffff16815260200190815260200160002060009054906101000a900473ffffffffffffffffffffffffffffffffffffffff1673ffffffffffffffffffffffffffffffffffffffff161462000c4a576040517f08c379a000000000000000000000000000000000000000000000000000000000815260040162000c419062001980565b60405180910390fd5b6000606560009054906101000a900473ffffffffffffffffffffffffffffffffffffffff16638129fc1c60e01b604051602401604051602081830303815290604052907bffffffffffffffffffffffffffffffffffffffffffffffffffffffff19166020820180517bffffffffffffffffffffffffffffffffffffffffffffffffffffffff838183161783525050505060405162000ce890620014cb565b62000cf592919062001865565b604051809103906000f08015801562000d12573d6000803e3d6000fd5b509050600081905062000d258162000ff2565b8073ffffffffffffffffffffffffffffffffffffffff1663b60d4288346040518263ffffffff1660e01b81526004016000604051808303818588803b15801562000d6e57600080fd5b505af115801562000d83573d6000803e3d6000fd5b505050505062000e0b8163c5ebeaec60e01b8660405160240162000da8919062001a2a565b604051602081830303815290604052907bffffffffffffffffffffffffffffffffffffffffffffffffffffffff19166020820180517bffffffffffffffffffffffffffffffffffffffffffffffffffffffff838183161783525050505062001293565b508073ffffffffffffffffffffffffffffffffffffffff1663f2fde38b336040518263ffffffff1660e01b815260040162000e47919062001848565b600060405180830381600087803b15801562000e6257600080fd5b505af115801562000e77573d6000803e3d6000fd5b505050503373ffffffffffffffffffffffffffffffffffffffff168173ffffffffffffffffffffffffffffffffffffffff167f74f440674c6106c61951acc831efcdce60effebf4fea0fdc74f0e5ad72f56a10348760405162000edc92919062001a47565b60405180910390a38092505050919050565b62000ef862001154565b73ffffffffffffffffffffffffffffffffffffffff1662000f1862000896565b73ffffffffffffffffffffffffffffffffffffffff161462000f71576040517f08c379a000000000000000000000000000000000000000000000000000000000815260040162000f6890620019e6565b60405180910390fd5b600073ffffffffffffffffffffffffffffffffffffffff168173ffffffffffffffffffffffffffffffffffffffff16141562000fe4576040517f08c379a000000000000000000000000000000000000000000000000000000000815260040162000fdb906200195e565b60405180910390fd5b62000fef816200115c565b50565b80606660003373ffffffffffffffffffffffffffffffffffffffff1673ffffffffffffffffffffffffffffffffffffffff16815260200190815260200160002060006101000a81548173ffffffffffffffffffffffffffffffffffffffff021916908373ffffffffffffffffffffffffffffffffffffffff16021790555033606760008373ffffffffffffffffffffffffffffffffffffffff1673ffffffffffffffffffffffffffffffffffffffff16815260200190815260200160002060006101000a81548173ffffffffffffffffffffffffffffffffffffffff021916908373ffffffffffffffffffffffffffffffffffffffff1602179055506068819080600181540180825580915050600190039060005260206000200160009091909190916101000a81548173ffffffffffffffffffffffffffffffffffffffff021916908373ffffffffffffffffffffffffffffffffffffffff16021790555050565b600033905090565b6000603360009054906101000a900473ffffffffffffffffffffffffffffffffffffffff16905081603360006101000a81548173ffffffffffffffffffffffffffffffffffffffff021916908373ffffffffffffffffffffffffffffffffffffffff1602179055508173ffffffffffffffffffffffffffffffffffffffff168173ffffffffffffffffffffffffffffffffffffffff167f8be0079c531659141344cd1fd0a4f28419497f9722a3daafe3b4186f6b6457e060405160405180910390a35050565b60006200122f306200132e565b15905090565b600060019054906101000a900460ff1662001287576040517f08c379a00000000000000000000000000000000000000000000000000000000081526004016200127e9062001a08565b60405180910390fd5b6200129162001351565b565b60606000620012a283620013b9565b90506000808573ffffffffffffffffffffffffffffffffffffffff1683604051620012ce91906200182f565b6000604051808303816000865af19150503d80600081146200130d576040519150601f19603f3d011682016040523d82523d6000602084013e62001312565b606091505b509150915062001323828262001469565b935050505092915050565b6000808273ffffffffffffffffffffffffffffffffffffffff163b119050919050565b600060019054906101000a900460ff16620013a3576040517f08c379a00000000000000000000000000000000000000000000000000000000081526004016200139a9062001a08565b60405180910390fd5b620013b7620013b162001154565b6200115c565b565b6060600060613603359050600060416001602060408560ff16620013de919062001b24565b620013ea919062001ae5565b620013f6919062001ae5565b62001402919062001ae5565b90506000845190506000606060405190508383018152600091505b82821015620014465781602002876020010151826020028260200101526001820191506200141d565b838436038460200183013760208385018201016040528095505050505050919050565b606082620014c257600082511115620014855781518083602001fd5b6040517f08c379a0000000000000000000000000000000000000000000000000000000008152600401620014b990620019c4565b60405180910390fd5b81905092915050565b61105d8062001efb83390190565b610a9c8062002f5883390190565b600081359050620014f88162001eac565b92915050565b6000813590506200150f8162001ec6565b92915050565b600081359050620015268162001ee0565b92915050565b6000602082840312156200153f57600080fd5b60006200154f84828501620014e7565b91505092915050565b6000602082840312156200156b57600080fd5b60006200157b84828501620014fe565b91505092915050565b6000602082840312156200159757600080fd5b6000620015a78482850162001515565b91505092915050565b6000620015be8383620016df565b60208301905092915050565b620015d58162001bf4565b82525050565b620015e68162001b67565b82525050565b6000620015f98262001a84565b62001605818562001aa7565b9350620016128362001a74565b8060005b83811015620016495781516200162d8882620015b0565b97506200163a8362001a9a565b92505060018101905062001616565b5085935050505092915050565b620016618162001b8f565b82525050565b6000620016748262001a8f565b62001680818562001ab8565b93506200169281856020860162001ca8565b6200169d8162001d0d565b840191505092915050565b6000620016b58262001a8f565b620016c1818562001ac9565b9350620016d381856020860162001ca8565b80840191505092915050565b620016ea8162001c08565b82525050565b620016fb8162001c08565b82525050565b6200170c8162001c30565b82525050565b6200171d8162001c58565b82525050565b6200172e8162001c6c565b82525050565b60006200174360268362001ad4565b9150620017508262001d1e565b604082019050919050565b60006200176a60228362001ad4565b9150620017778262001d6d565b604082019050919050565b600062001791602e8362001ad4565b91506200179e8262001dbc565b604082019050919050565b6000620017b8601b8362001ad4565b9150620017c58262001e0b565b602082019050919050565b6000620017df60208362001ad4565b9150620017ec8262001e34565b602082019050919050565b600062001806602b8362001ad4565b9150620018138262001e5d565b604082019050919050565b620018298162001bdd565b82525050565b60006200183d8284620016a8565b915081905092915050565b60006020820190506200185f6000830184620015db565b92915050565b60006040820190506200187c6000830185620015ca565b818103602083015262001890818462001667565b90509392505050565b60006020820190508181036000830152620018b58184620015ec565b905092915050565b6000602082019050620018d4600083018462001656565b92915050565b6000602082019050620018f16000830184620016f0565b92915050565b60006020820190506200190e600083018462001701565b92915050565b60006020820190506200192b600083018462001723565b92915050565b600060408201905062001948600083018562001712565b62001957602083018462001712565b9392505050565b60006020820190508181036000830152620019798162001734565b9050919050565b600060208201905081810360008301526200199b816200175b565b9050919050565b60006020820190508181036000830152620019bd8162001782565b9050919050565b60006020820190508181036000830152620019df81620017a9565b9050919050565b6000602082019050818103600083015262001a0181620017d0565b9050919050565b6000602082019050818103600083015262001a2381620017f7565b9050919050565b600060208201905062001a4160008301846200181e565b92915050565b600060408201905062001a5e60008301856200181e565b62001a6d60208301846200181e565b9392505050565b6000819050602082019050919050565b600081519050919050565b600081519050919050565b6000602082019050919050565b600082825260208201905092915050565b600082825260208201905092915050565b600081905092915050565b600082825260208201905092915050565b600062001af28262001baf565b915062001aff8362001baf565b92508261ffff0382111562001b195762001b1862001cde565b5b828201905092915050565b600062001b318262001baf565b915062001b3e8362001baf565b92508161ffff048311821515161562001b5c5762001b5b62001cde565b5b828202905092915050565b600062001b748262001bbd565b9050919050565b600062001b888262001bbd565b9050919050565b60008115159050919050565b600062001ba88262001b7b565b9050919050565b600061ffff82169050919050565b600073ffffffffffffffffffffffffffffffffffffffff82169050919050565b6000819050919050565b600060ff82169050919050565b600062001c018262001c80565b9050919050565b600062001c158262001c1c565b9050919050565b600062001c298262001bbd565b9050919050565b600062001c3d8262001c44565b9050919050565b600062001c518262001bbd565b9050919050565b600062001c658262001bdd565b9050919050565b600062001c798262001be7565b9050919050565b600062001c8d8262001c94565b9050919050565b600062001ca18262001bbd565b9050919050565b60005b8381101562001cc857808201518184015260208101905062001cab565b8381111562001cd8576000848401525b50505050565b7f4e487b7100000000000000000000000000000000000000000000000000000000600052601160045260246000fd5b6000601f19601f8301169050919050565b7f4f776e61626c653a206e6577206f776e657220697320746865207a65726f206160008201527f6464726573730000000000000000000000000000000000000000000000000000602082015250565b7f4f6e6c79206f6e65206c6f616e20706572206f776e657220697320616c6c6f7760008201527f6564000000000000000000000000000000000000000000000000000000000000602082015250565b7f496e697469616c697a61626c653a20636f6e747261637420697320616c72656160008201527f647920696e697469616c697a6564000000000000000000000000000000000000602082015250565b7f50726f787920636f6e6e6563746f722063616c6c206661696c65640000000000600082015250565b7f4f776e61626c653a2063616c6c6572206973206e6f7420746865206f776e6572600082015250565b7f496e697469616c697a61626c653a20636f6e7472616374206973206e6f74206960008201527f6e697469616c697a696e67000000000000000000000000000000000000000000602082015250565b62001eb78162001b67565b811462001ec357600080fd5b50565b62001ed18162001b9b565b811462001edd57600080fd5b50565b62001eeb8162001bdd565b811462001ef757600080fd5b5056fe60806040526040516200105d3803806200105d8339818101604052810190620000299190620005f1565b60017fa3f0ad74e5423aebfd80d3ef4346578335a9a72aeaee59ff6cb3582b35133d5160001c6200005b91906200086c565b60001b7fa3f0ad74e5423aebfd80d3ef4346578335a9a72aeaee59ff6cb3582b35133d5060001b14620000b7577f4e487b7100000000000000000000000000000000000000000000000000000000600052600160045260246000fd5b620000cb82826000620000d360201b60201c565b505062000ac7565b620000e483620001da60201b60201c565b8273ffffffffffffffffffffffffffffffffffffffff167f1cf3b03a6cf19fa2baba4df148e9dcabedea7f8a5c07840e207e5c089be95d3e60405160405180910390a2600082511180620001355750805b15620001d557620001d38373ffffffffffffffffffffffffffffffffffffffff16635c60da1b6040518163ffffffff1660e01b815260040160206040518083038186803b1580156200018657600080fd5b505afa1580156200019b573d6000803e3d6000fd5b505050506040513d601f19601f82011682018060405250810190620001c19190620005c5565b836200038960201b620000371760201c565b505b505050565b620001f081620003bf60201b620000641760201c565b62000232576040517f08c379a0000000000000000000000000000000000000000000000000000000008152600401620002299062000775565b60405180910390fd5b620002c98173ffffffffffffffffffffffffffffffffffffffff16635c60da1b6040518163ffffffff1660e01b815260040160206040518083038186803b1580156200027d57600080fd5b505afa15801562000292573d6000803e3d6000fd5b505050506040513d601f19601f82011682018060405250810190620002b89190620005c5565b620003bf60201b620000641760201c565b6200030b576040517f08c379a00000000000000000000000000000000000000000000000000000000081526004016200030290620007b9565b60405180910390fd5b80620003457fa3f0ad74e5423aebfd80d3ef4346578335a9a72aeaee59ff6cb3582b35133d5060001b620003e260201b620000871760201c565b60000160006101000a81548173ffffffffffffffffffffffffffffffffffffffff021916908373ffffffffffffffffffffffffffffffffffffffff16021790555050565b6060620003b783836040518060600160405280602781526020016200103660279139620003ec60201b60201c565b905092915050565b6000808273ffffffffffffffffffffffffffffffffffffffff163b119050919050565b6000819050919050565b6060620003ff84620003bf60201b60201c565b62000441576040517f08c379a0000000000000000000000000000000000000000000000000000000008152600401620004389062000797565b60405180910390fd5b6000808573ffffffffffffffffffffffffffffffffffffffff16856040516200046b919062000738565b600060405180830381855af49150503d8060008114620004a8576040519150601f19603f3d011682016040523d82523d6000602084013e620004ad565b606091505b5091509150620004c5828286620004d060201b60201c565b925050509392505050565b60608315620004e25782905062000535565b600083511115620004f65782518084602001fd5b816040517f08c379a00000000000000000000000000000000000000000000000000000000081526004016200052c919062000751565b60405180910390fd5b9392505050565b6000620005536200054d8462000804565b620007db565b9050828152602081018484840111156200056c57600080fd5b62000579848285620008e5565b509392505050565b600081519050620005928162000aad565b92915050565b600082601f830112620005aa57600080fd5b8151620005bc8482602086016200053c565b91505092915050565b600060208284031215620005d857600080fd5b6000620005e88482850162000581565b91505092915050565b600080604083850312156200060557600080fd5b6000620006158582860162000581565b925050602083015167ffffffffffffffff8111156200063357600080fd5b620006418582860162000598565b9150509250929050565b600062000658826200083a565b62000664818562000850565b935062000676818560208601620008e5565b80840191505092915050565b60006200068f8262000845565b6200069b81856200085b565b9350620006ad818560208601620008e5565b620006b881620009af565b840191505092915050565b6000620006d26025836200085b565b9150620006df82620009c0565b604082019050919050565b6000620006f96026836200085b565b9150620007068262000a0f565b604082019050919050565b6000620007206030836200085b565b91506200072d8262000a5e565b604082019050919050565b60006200074682846200064b565b915081905092915050565b600060208201905081810360008301526200076d818462000682565b905092915050565b600060208201905081810360008301526200079081620006c3565b9050919050565b60006020820190508181036000830152620007b281620006ea565b9050919050565b60006020820190508181036000830152620007d48162000711565b9050919050565b6000620007e7620007fa565b9050620007f582826200091b565b919050565b6000604051905090565b600067ffffffffffffffff82111562000822576200082162000980565b5b6200082d82620009af565b9050602081019050919050565b600081519050919050565b600081519050919050565b600081905092915050565b600082825260208201905092915050565b60006200087982620008db565b91506200088683620008db565b9250828210156200089c576200089b62000951565b5b828203905092915050565b6000620008b482620008bb565b9050919050565b600073ffffffffffffffffffffffffffffffffffffffff82169050919050565b6000819050919050565b60005b8381101562000905578082015181840152602081019050620008e8565b8381111562000915576000848401525b50505050565b6200092682620009af565b810181811067ffffffffffffffff8211171562000948576200094762000980565b5b80604052505050565b7f4e487b7100000000000000000000000000000000000000000000000000000000600052601160045260246000fd5b7f4e487b7100000000000000000000000000000000000000000000000000000000600052604160045260246000fd5b6000601f19601f8301169050919050565b7f455243313936373a206e657720626561636f6e206973206e6f74206120636f6e60008201527f7472616374000000000000000000000000000000000000000000000000000000602082015250565b7f416464726573733a2064656c65676174652063616c6c20746f206e6f6e2d636f60008201527f6e74726163740000000000000000000000000000000000000000000000000000602082015250565b7f455243313936373a20626561636f6e20696d706c656d656e746174696f6e206960008201527f73206e6f74206120636f6e747261637400000000000000000000000000000000602082015250565b62000ab881620008a7565b811462000ac457600080fd5b50565b61055f8062000ad76000396000f3fe6080604052366100135761001161001d565b005b61001b61001d565b005b610025610091565b610035610030610093565b61011f565b565b606061005c838360405180606001604052806027815260200161050360279139610145565b905092915050565b6000808273ffffffffffffffffffffffffffffffffffffffff163b119050919050565b6000819050919050565b565b600061009d610212565b73ffffffffffffffffffffffffffffffffffffffff16635c60da1b6040518163ffffffff1660e01b815260040160206040518083038186803b1580156100e257600080fd5b505afa1580156100f6573d6000803e3d6000fd5b505050506040513d601f19601f8201168201806040525081019061011a91906102e5565b905090565b3660008037600080366000845af43d6000803e8060008114610140573d6000f35b3d6000fd5b606061015084610064565b61018f576040517f08c379a0000000000000000000000000000000000000000000000000000000008152600401610186906103d4565b60405180910390fd5b6000808573ffffffffffffffffffffffffffffffffffffffff16856040516101b7919061039b565b600060405180830381855af49150503d80600081146101f2576040519150601f19603f3d011682016040523d82523d6000602084013e6101f7565b606091505b5091509150610207828286610269565b925050509392505050565b60006102407fa3f0ad74e5423aebfd80d3ef4346578335a9a72aeaee59ff6cb3582b35133d5060001b610087565b60000160009054906101000a900473ffffffffffffffffffffffffffffffffffffffff16905090565b60608315610279578290506102c9565b60008351111561028c5782518084602001fd5b816040517f08c379a00000000000000000000000000000000000000000000000000000000081526004016102c091906103b2565b60405180910390fd5b9392505050565b6000815190506102df816104eb565b92915050565b6000602082840312156102f757600080fd5b6000610305848285016102d0565b91505092915050565b6000610319826103f4565b610323818561040a565b9350610333818560208601610458565b80840191505092915050565b600061034a826103ff565b6103548185610415565b9350610364818560208601610458565b61036d8161048b565b840191505092915050565b6000610385602683610415565b91506103908261049c565b604082019050919050565b60006103a7828461030e565b915081905092915050565b600060208201905081810360008301526103cc818461033f565b905092915050565b600060208201905081810360008301526103ed81610378565b9050919050565b600081519050919050565b600081519050919050565b600081905092915050565b600082825260208201905092915050565b600061043182610438565b9050919050565b600073ffffffffffffffffffffffffffffffffffffffff82169050919050565b60005b8381101561047657808201518184015260208101905061045b565b83811115610485576000848401525b50505050565b6000601f19601f8301169050919050565b7f416464726573733a2064656c65676174652063616c6c20746f206e6f6e2d636f60008201527f6e74726163740000000000000000000000000000000000000000000000000000602082015250565b6104f481610426565b81146104ff57600080fd5b5056fe416464726573733a206c6f772d6c6576656c2064656c65676174652063616c6c206661696c6564a2646970667358221220e315b5ae13d755f35a30ac5193a3d7551961da99f1fa532c06319914f1bfec5064736f6c63430008040033416464726573733a206c6f772d6c6576656c2064656c65676174652063616c6c206661696c6564608060405234801561001057600080fd5b50604051610a9c380380610a9c833981810160405281019061003291906101fd565b61004e61004361006360201b60201c565b61006b60201b60201c565b61005d8161012f60201b60201c565b50610312565b600033905090565b60008060009054906101000a900473ffffffffffffffffffffffffffffffffffffffff169050816000806101000a81548173ffffffffffffffffffffffffffffffffffffffff021916908373ffffffffffffffffffffffffffffffffffffffff1602179055508173ffffffffffffffffffffffffffffffffffffffff168173ffffffffffffffffffffffffffffffffffffffff167f8be0079c531659141344cd1fd0a4f28419497f9722a3daafe3b4186f6b6457e060405160405180910390a35050565b610142816101c560201b6103781760201c565b610181576040517f08c379a000000000000000000000000000000000000000000000000000000000815260040161017890610249565b60405180910390fd5b80600160006101000a81548173ffffffffffffffffffffffffffffffffffffffff021916908373ffffffffffffffffffffffffffffffffffffffff16021790555050565b6000808273ffffffffffffffffffffffffffffffffffffffff163b119050919050565b6000815190506101f7816102fb565b92915050565b60006020828403121561020f57600080fd5b600061021d848285016101e8565b91505092915050565b6000610233603383610269565b915061023e826102ac565b604082019050919050565b6000602082019050818103600083015261026281610226565b9050919050565b600082825260208201905092915050565b60006102858261028c565b9050919050565b600073ffffffffffffffffffffffffffffffffffffffff82169050919050565b7f5570677261646561626c65426561636f6e3a20696d706c656d656e746174696f60008201527f6e206973206e6f74206120636f6e747261637400000000000000000000000000602082015250565b6103048161027a565b811461030f57600080fd5b50565b61077b806103216000396000f3fe608060405234801561001057600080fd5b50600436106100575760003560e01c80633659cfe61461005c5780635c60da1b14610078578063715018a6146100965780638da5cb5b146100a0578063f2fde38b146100be575b600080fd5b61007660048036038101906100719190610508565b6100da565b005b6100806101a5565b60405161008d91906105a9565b60405180910390f35b61009e6101cf565b005b6100a8610257565b6040516100b591906105a9565b60405180910390f35b6100d860048036038101906100d39190610508565b610280565b005b6100e261039b565b73ffffffffffffffffffffffffffffffffffffffff16610100610257565b73ffffffffffffffffffffffffffffffffffffffff1614610156576040517f08c379a000000000000000000000000000000000000000000000000000000000815260040161014d90610604565b60405180910390fd5b61015f816103a3565b8073ffffffffffffffffffffffffffffffffffffffff167fbc7cd75a20ee27fd9adebab32041f755214dbc6bffa90cc0225b39da2e5c2d3b60405160405180910390a250565b6000600160009054906101000a900473ffffffffffffffffffffffffffffffffffffffff16905090565b6101d761039b565b73ffffffffffffffffffffffffffffffffffffffff166101f5610257565b73ffffffffffffffffffffffffffffffffffffffff161461024b576040517f08c379a000000000000000000000000000000000000000000000000000000000815260040161024290610604565b60405180910390fd5b610255600061042f565b565b60008060009054906101000a900473ffffffffffffffffffffffffffffffffffffffff16905090565b61028861039b565b73ffffffffffffffffffffffffffffffffffffffff166102a6610257565b73ffffffffffffffffffffffffffffffffffffffff16146102fc576040517f08c379a00000000000000000000000000000000000000000000000000000000081526004016102f390610604565b60405180910390fd5b600073ffffffffffffffffffffffffffffffffffffffff168173ffffffffffffffffffffffffffffffffffffffff16141561036c576040517f08c379a0000000000000000000000000000000000000000000000000000000008152600401610363906105c4565b60405180910390fd5b6103758161042f565b50565b6000808273ffffffffffffffffffffffffffffffffffffffff163b119050919050565b600033905090565b6103ac81610378565b6103eb576040517f08c379a00000000000000000000000000000000000000000000000000000000081526004016103e2906105e4565b60405180910390fd5b80600160006101000a81548173ffffffffffffffffffffffffffffffffffffffff021916908373ffffffffffffffffffffffffffffffffffffffff16021790555050565b60008060009054906101000a900473ffffffffffffffffffffffffffffffffffffffff169050816000806101000a81548173ffffffffffffffffffffffffffffffffffffffff021916908373ffffffffffffffffffffffffffffffffffffffff1602179055508173ffffffffffffffffffffffffffffffffffffffff168173ffffffffffffffffffffffffffffffffffffffff167f8be0079c531659141344cd1fd0a4f28419497f9722a3daafe3b4186f6b6457e060405160405180910390a35050565b6000813590506105028161072e565b92915050565b60006020828403121561051a57600080fd5b6000610528848285016104f3565b91505092915050565b61053a81610635565b82525050565b600061054d602683610624565b915061055882610667565b604082019050919050565b6000610570603383610624565b915061057b826106b6565b604082019050919050565b6000610593602083610624565b915061059e82610705565b602082019050919050565b60006020820190506105be6000830184610531565b92915050565b600060208201905081810360008301526105dd81610540565b9050919050565b600060208201905081810360008301526105fd81610563565b9050919050565b6000602082019050818103600083015261061d81610586565b9050919050565b600082825260208201905092915050565b600061064082610647565b9050919050565b600073ffffffffffffffffffffffffffffffffffffffff82169050919050565b7f4f776e61626c653a206e6577206f776e657220697320746865207a65726f206160008201527f6464726573730000000000000000000000000000000000000000000000000000602082015250565b7f5570677261646561626c65426561636f6e3a20696d706c656d656e746174696f60008201527f6e206973206e6f74206120636f6e747261637400000000000000000000000000602082015250565b7f4f776e61626c653a2063616c6c6572206973206e6f7420746865206f776e6572600082015250565b61073781610635565b811461074257600080fd5b5056fea2646970667358221220151149c73270d1d35004fd185e9ecf2410985d323d9acbd45abd8d5e4166665664736f6c63430008040033a264697066735822122014481e99e0b11467958a1e3ec48c27f76c9ed2c065ce927561b303d98061396764736f6c63430008040033",
  "devdoc": {
    "kind": "dev",
    "methods": {
      "owner()": {
        "details": "Returns the address of the current owner."
      },
      "renounceOwnership()": {
        "details": "Leaves the contract without owner. It will not be possible to call `onlyOwner` functions anymore. Can only be called by the current owner. NOTE: Renouncing ownership will leave the contract without an owner, thereby removing any functionality that is only available to the owner."
      },
      "transferOwnership(address)": {
        "details": "Transfers ownership of the contract to a new account (`newOwner`). Can only be called by the current owner."
      }
    },
    "title": "SmartLoansFactory It creates and fund the Smart Loan. It's also responsible for keeping track of the loans and ensuring they follow the solvency protection rules and could be authorised to access the lending pool.",
    "version": 1
  },
  "userdoc": {
    "kind": "user",
    "methods": {},
    "version": 1
  },
  "storageLayout": {
    "storage": [
      {
        "astId": 130,
        "contract": "contracts/SmartLoansFactory.sol:SmartLoansFactory",
        "label": "_initialized",
        "offset": 0,
        "slot": "0",
        "type": "t_bool"
      },
      {
        "astId": 133,
        "contract": "contracts/SmartLoansFactory.sol:SmartLoansFactory",
        "label": "_initializing",
        "offset": 1,
        "slot": "0",
        "type": "t_bool"
      },
      {
        "astId": 540,
        "contract": "contracts/SmartLoansFactory.sol:SmartLoansFactory",
        "label": "__gap",
        "offset": 0,
        "slot": "1",
        "type": "t_array(t_uint256)50_storage"
      },
      {
        "astId": 10,
        "contract": "contracts/SmartLoansFactory.sol:SmartLoansFactory",
        "label": "_owner",
        "offset": 0,
        "slot": "51",
        "type": "t_address"
      },
      {
        "astId": 122,
        "contract": "contracts/SmartLoansFactory.sol:SmartLoansFactory",
        "label": "__gap",
        "offset": 0,
        "slot": "52",
        "type": "t_array(t_uint256)49_storage"
      },
      {
        "astId": 9270,
        "contract": "contracts/SmartLoansFactory.sol:SmartLoansFactory",
        "label": "upgradeableBeacon",
        "offset": 0,
        "slot": "101",
        "type": "t_contract(UpgradeableBeacon)1246"
      },
      {
        "astId": 9274,
        "contract": "contracts/SmartLoansFactory.sol:SmartLoansFactory",
        "label": "ownersToLoans",
        "offset": 0,
        "slot": "102",
        "type": "t_mapping(t_address,t_address)"
      },
      {
        "astId": 9278,
        "contract": "contracts/SmartLoansFactory.sol:SmartLoansFactory",
        "label": "loansToOwners",
        "offset": 0,
        "slot": "103",
        "type": "t_mapping(t_address,t_address)"
      },
      {
        "astId": 9282,
        "contract": "contracts/SmartLoansFactory.sol:SmartLoansFactory",
        "label": "loans",
        "offset": 0,
        "slot": "104",
        "type": "t_array(t_contract(SmartLoan)9125)dyn_storage"
      }
    ],
    "types": {
      "t_address": {
        "encoding": "inplace",
        "label": "address",
        "numberOfBytes": "20"
      },
      "t_array(t_contract(SmartLoan)9125)dyn_storage": {
        "base": "t_contract(SmartLoan)9125",
        "encoding": "dynamic_array",
        "label": "contract SmartLoan[]",
        "numberOfBytes": "32"
      },
      "t_array(t_uint256)49_storage": {
        "base": "t_uint256",
        "encoding": "inplace",
        "label": "uint256[49]",
        "numberOfBytes": "1568"
      },
      "t_array(t_uint256)50_storage": {
        "base": "t_uint256",
        "encoding": "inplace",
        "label": "uint256[50]",
        "numberOfBytes": "1600"
      },
      "t_bool": {
        "encoding": "inplace",
        "label": "bool",
        "numberOfBytes": "1"
      },
      "t_contract(SmartLoan)9125": {
        "encoding": "inplace",
        "label": "contract SmartLoan",
        "numberOfBytes": "20"
      },
      "t_contract(UpgradeableBeacon)1246": {
        "encoding": "inplace",
        "label": "contract UpgradeableBeacon",
        "numberOfBytes": "20"
      },
      "t_mapping(t_address,t_address)": {
        "encoding": "mapping",
        "key": "t_address",
        "label": "mapping(address => address)",
        "numberOfBytes": "32",
        "value": "t_address"
      },
      "t_uint256": {
        "encoding": "inplace",
        "label": "uint256",
        "numberOfBytes": "32"
      }
    }
  }
}