{
  "address": "0x0865c12039eb6fb2e151ae64764ecfa93205d889",
  "abi": [
    {
      "anonymous": false,
      "inputs": [
        {
          "indexed": true,
          "internalType": "address",
          "name": "previousOwner",
          "type": "address"
        },
        {
          "indexed": true,
          "internalType": "address",
          "name": "newOwner",
          "type": "address"
        }
      ],
      "name": "OwnershipTransferred",
      "type": "event"
    },
    {
      "inputs": [],
      "name": "BREAKPOINT",
      "outputs": [
        {
          "internalType": "uint256",
          "name": "",
          "type": "uint256"
        }
      ],
      "stateMutability": "view",
      "type": "function"
    },
    {
      "inputs": [],
      "name": "MAX_RATE",
      "outputs": [
        {
          "internalType": "uint256",
          "name": "",
          "type": "uint256"
        }
      ],
      "stateMutability": "view",
      "type": "function"
    },
    {
      "inputs": [],
      "name": "OFFSET",
      "outputs": [
        {
          "internalType": "uint256",
          "name": "",
          "type": "uint256"
        }
      ],
      "stateMutability": "view",
      "type": "function"
    },
    {
      "inputs": [],
      "name": "SLOPE_1",
      "outputs": [
        {
          "internalType": "uint256",
          "name": "",
          "type": "uint256"
        }
      ],
      "stateMutability": "view",
      "type": "function"
    },
    {
      "inputs": [],
      "name": "SLOPE_2",
      "outputs": [
        {
          "internalType": "uint256",
          "name": "",
          "type": "uint256"
        }
      ],
      "stateMutability": "view",
      "type": "function"
    },
    {
      "inputs": [
        {
          "internalType": "uint256",
          "name": "totalLoans",
          "type": "uint256"
        },
        {
          "internalType": "uint256",
          "name": "totalDeposits",
          "type": "uint256"
        }
      ],
      "name": "calculateBorrowingRate",
      "outputs": [
        {
          "internalType": "uint256",
          "name": "",
          "type": "uint256"
        }
      ],
      "stateMutability": "view",
      "type": "function"
    },
    {
      "inputs": [
        {
          "internalType": "uint256",
          "name": "_totalLoans",
          "type": "uint256"
        },
        {
          "internalType": "uint256",
          "name": "_totalDeposits",
          "type": "uint256"
        }
      ],
      "name": "calculateDepositRate",
      "outputs": [
        {
          "internalType": "uint256",
          "name": "",
          "type": "uint256"
        }
      ],
      "stateMutability": "view",
      "type": "function"
    },
    {
      "inputs": [
        {
          "internalType": "uint256",
          "name": "_totalLoans",
          "type": "uint256"
        },
        {
          "internalType": "uint256",
          "name": "_totalDeposits",
          "type": "uint256"
        }
      ],
      "name": "getPoolUtilisation",
      "outputs": [
        {
          "internalType": "uint256",
          "name": "",
          "type": "uint256"
        }
      ],
      "stateMutability": "pure",
      "type": "function"
    },
    {
      "inputs": [],
      "name": "owner",
      "outputs": [
        {
          "internalType": "address",
          "name": "",
          "type": "address"
        }
      ],
      "stateMutability": "view",
      "type": "function"
    },
    {
      "inputs": [],
      "name": "renounceOwnership",
      "outputs": [],
      "stateMutability": "nonpayable",
      "type": "function"
    },
    {
      "inputs": [
        {
          "internalType": "address",
          "name": "newOwner",
          "type": "address"
        }
      ],
      "name": "transferOwnership",
      "outputs": [],
      "stateMutability": "nonpayable",
      "type": "function"
    }
  ],
  "transactionHash": "0x7119b511cb59119bff1af6c3502a9643e96fb3fd205a398a4ea844bbef23ee90",
  "args": [],
  "numDeployments": 1,
  "solcInputHash": "3ec03e8e4cfb95d5c631a2f4188cc32a",
  "bytecode": "0x608060405234801561001057600080fd5b5061002d61002261003260201b60201c565b61003a60201b60201c565b6100fe565b600033905090565b60008060009054906101000a900473ffffffffffffffffffffffffffffffffffffffff169050816000806101000a81548173ffffffffffffffffffffffffffffffffffffffff021916908373ffffffffffffffffffffffffffffffffffffffff1602179055508173ffffffffffffffffffffffffffffffffffffffff168173ffffffffffffffffffffffffffffffffffffffff167f8be0079c531659141344cd1fd0a4f28419497f9722a3daafe3b4186f6b6457e060405160405180910390a35050565b610c608061010d6000396000f3fe608060405234801561001057600080fd5b50600436106100a95760003560e01c80639ceca965116100715780639ceca96514610142578063b64b087714610172578063c24dbebd14610190578063ce665dd8146101ae578063df841eec146101cc578063f2fde38b146101fc576100a9565b8063321105fb146100ae5780633bf42d4b146100cc578063715018a6146100ea5780637cd08331146100f45780638da5cb5b14610124575b600080fd5b6100b6610218565b6040516100c391906108e5565b60405180910390f35b6100d4610224565b6040516100e191906108e5565b60405180910390f35b6100f2610230565b005b61010e600480360381019061010991906107a7565b6102b8565b60405161011b91906108e5565b60405180910390f35b61012c61038c565b604051610139919061086a565b60405180910390f35b61015c600480360381019061015791906107a7565b6103b5565b60405161016991906108e5565b60405180910390f35b61017a6103f0565b60405161018791906108e5565b60405180910390f35b6101986103fc565b6040516101a591906108e5565b60405180910390f35b6101b6610408565b6040516101c391906108e5565b60405180910390f35b6101e660048036038101906101e191906107a7565b610413565b6040516101f391906108e5565b60405180910390f35b61021660048036038101906102119190610755565b610552565b005b6701aa535d3d0c000081565b6729e931ffd5ae000081565b61023861064a565b73ffffffffffffffffffffffffffffffffffffffff1661025661038c565b73ffffffffffffffffffffffffffffffffffffffff16146102ac576040517f08c379a00000000000000000000000000000000000000000000000000000000081526004016102a3906108c5565b60405180910390fd5b6102b66000610652565b565b6000808214156102cb5760009050610386565b8183106102e257670a688906bd8b00009050610386565b81833073ffffffffffffffffffffffffffffffffffffffff1663df841eec86866040518363ffffffff1660e01b815260040161031f929190610900565b60206040518083038186803b15801561033757600080fd5b505afa15801561034b573d6000803e3d6000fd5b505050506040513d601f19601f8201168201806040525081019061036f919061077e565b61037991906109c1565b6103839190610990565b90505b92915050565b60008060009054906101000a900473ffffffffffffffffffffffffffffffffffffffff16905090565b6000808214156103c857600090506103ea565b81670de0b6b3a7640000846103dd91906109c1565b6103e79190610990565b90505b92915050565b670b1a2bc2ec50000081565b670a688906bd8b000081565b66b1a2bc2ec5000081565b60008082141561042c5766b1a2bc2ec50000905061054c565b600061043884846103b5565b9050670de0b6b3a7640000811061045a57670a688906bd8b000091505061054c565b670b1a2bc2ec50000081116104aa5766b1a2bc2ec50000670de0b6b3a76400006701aa535d3d0c00008361048e91906109c1565b6104989190610990565b6104a2919061093a565b91505061054c565b6000670a688906bd8b0000670de0b6b3a76400006729e931ffd5ae0000846104d291906109c1565b6104dc9190610990565b6104e6919061093a565b90506729e931ffd5ae0000811015610533576040517f08c379a000000000000000000000000000000000000000000000000000000000815260040161052a90610885565b60405180910390fd5b6729e931ffd5ae0000816105479190610a1b565b925050505b92915050565b61055a61064a565b73ffffffffffffffffffffffffffffffffffffffff1661057861038c565b73ffffffffffffffffffffffffffffffffffffffff16146105ce576040517f08c379a00000000000000000000000000000000000000000000000000000000081526004016105c5906108c5565b60405180910390fd5b600073ffffffffffffffffffffffffffffffffffffffff168173ffffffffffffffffffffffffffffffffffffffff16141561063e576040517f08c379a0000000000000000000000000000000000000000000000000000000008152600401610635906108a5565b60405180910390fd5b61064781610652565b50565b600033905090565b60008060009054906101000a900473ffffffffffffffffffffffffffffffffffffffff169050816000806101000a81548173ffffffffffffffffffffffffffffffffffffffff021916908373ffffffffffffffffffffffffffffffffffffffff1602179055508173ffffffffffffffffffffffffffffffffffffffff168173ffffffffffffffffffffffffffffffffffffffff167f8be0079c531659141344cd1fd0a4f28419497f9722a3daafe3b4186f6b6457e060405160405180910390a35050565b60008135905061072581610bfc565b92915050565b60008135905061073a81610c13565b92915050565b60008151905061074f81610c13565b92915050565b60006020828403121561076757600080fd5b600061077584828501610716565b91505092915050565b60006020828403121561079057600080fd5b600061079e84828501610740565b91505092915050565b600080604083850312156107ba57600080fd5b60006107c88582860161072b565b92505060206107d98582860161072b565b9150509250929050565b6107ec81610a4f565b82525050565b60006107ff606c83610929565b915061080a82610ae9565b608082019050919050565b6000610822602683610929565b915061082d82610b84565b604082019050919050565b6000610845602083610929565b915061085082610bd3565b602082019050919050565b61086481610a81565b82525050565b600060208201905061087f60008301846107e3565b92915050565b6000602082019050818103600083015261089e816107f2565b9050919050565b600060208201905081810360008301526108be81610815565b9050919050565b600060208201905081810360008301526108de81610838565b9050919050565b60006020820190506108fa600083018461085b565b92915050565b6000604082019050610915600083018561085b565b610922602083018461085b565b9392505050565b600082825260208201905092915050565b600061094582610a81565b915061095083610a81565b9250827fffffffffffffffffffffffffffffffffffffffffffffffffffffffffffffffff0382111561098557610984610a8b565b5b828201905092915050565b600061099b82610a81565b91506109a683610a81565b9250826109b6576109b5610aba565b5b828204905092915050565b60006109cc82610a81565b91506109d783610a81565b9250817fffffffffffffffffffffffffffffffffffffffffffffffffffffffffffffffff0483118215151615610a1057610a0f610a8b565b5b828202905092915050565b6000610a2682610a81565b9150610a3183610a81565b925082821015610a4457610a43610a8b565b5b828203905092915050565b6000610a5a82610a61565b9050919050565b600073ffffffffffffffffffffffffffffffffffffffff82169050919050565b6000819050919050565b7f4e487b7100000000000000000000000000000000000000000000000000000000600052601160045260246000fd5b7f4e487b7100000000000000000000000000000000000000000000000000000000600052601260045260246000fd5b7f4f7574206f662072616e67652076616c7565207768656e2063616c63756c617460008201527f696e672074686520626f72726f77696e6720726174652e20436f6e736964657260208201527f20636865636b696e6720696620534c4f50455f322069732063616c63756c617460408201527f656420636f72726563746c790000000000000000000000000000000000000000606082015250565b7f4f776e61626c653a206e6577206f776e657220697320746865207a65726f206160008201527f6464726573730000000000000000000000000000000000000000000000000000602082015250565b7f4f776e61626c653a2063616c6c6572206973206e6f7420746865206f776e6572600082015250565b610c0581610a4f565b8114610c1057600080fd5b50565b610c1c81610a81565b8114610c2757600080fd5b5056fea264697066735822122012924322c1866e015553f22056cd4e6c5c7f1a274d211241f47d04ea7830d49364736f6c63430008040033",
  "devdoc": {
    "details": "Contract which calculates the interest rates based on pool utilisation. Utilisation is computed as the ratio between funds borrowed and funds deposited to the pool. Borrowing rates are calculated using a piecewise linear function. The first piece is defined by SLOPE_1 and OFFSET (shift). Second piece is defined by SLOPE_2 (calculated off-chain), BREAKPOINT (threshold value above which second piece is considered) and MAX_RATE (value at pool utilisation of 1).*",
    "kind": "dev",
    "methods": {
      "calculateBorrowingRate(uint256,uint256)": {
        "details": "_totalLoans total value of loans_totalDeposits total value of deposits*"
      },
      "calculateDepositRate(uint256,uint256)": {
        "details": "_totalLoans total value of loans_totalDeposits total value of deposits*"
      },
      "getPoolUtilisation(uint256,uint256)": {
        "details": "_totalLoans total value of loans_totalDeposits total value of deposits*"
      },
      "owner()": {
        "details": "Returns the address of the current owner."
      },
      "renounceOwnership()": {
        "details": "Leaves the contract without owner. It will not be possible to call `onlyOwner` functions anymore. Can only be called by the current owner. NOTE: Renouncing ownership will leave the contract without an owner, thereby removing any functionality that is only available to the owner."
      },
      "transferOwnership(address)": {
        "details": "Transfers ownership of the contract to a new account (`newOwner`). Can only be called by the current owner."
      }
    },
    "title": "VariableUtilisationRatesCalculator",
    "version": 1
  },
  "userdoc": {
    "kind": "user",
    "methods": {
      "calculateBorrowingRate(uint256,uint256)": {
        "notice": "Returns the current borrowing rate The value is based on the pool utilisation according to the piecewise linear formula: 1) for pool utilisation lower than or equal to breakpoint: borrowing_rate = SLOPE_1 * utilisation + OFFSET 2) for pool utilisation greater than breakpoint: borrowing_rate = SLOPE_2 * utilisation + MAX_RATE - SLOPE_2"
      },
      "calculateDepositRate(uint256,uint256)": {
        "notice": "Returns the current deposit rate The value is based on the current borrowing rate and satisfies the invariant: value_of_loans * borrowing_rate = value_of_deposits * deposit_rate"
      },
      "getPoolUtilisation(uint256,uint256)": {
        "notice": "Returns the pool utilisation, which is a ratio between loans and deposits utilisation = value_of_loans / value_of_deposits"
      }
    },
    "version": 1
  },
  "storageLayout": {
    "storage": [
      {
        "astId": 549,
        "contract": "contracts/VariableUtilisationRatesCalculator.sol:VariableUtilisationRatesCalculator",
        "label": "_owner",
        "offset": 0,
        "slot": "0",
        "type": "t_address"
      }
    ],
    "types": {
      "t_address": {
        "encoding": "inplace",
        "label": "address",
        "numberOfBytes": "20"
      }
    }
  }
}