{
  "_format": "hh-sol-artifact-1",
  "contractName": "Pool",
  "sourceName": "contracts/Pool.sol",
  "abi": [
    {
      "anonymous": false,
      "inputs": [
        {
          "indexed": true,
          "internalType": "address",
          "name": "owner",
          "type": "address"
        },
        {
          "indexed": true,
          "internalType": "address",
          "name": "spender",
          "type": "address"
        },
        {
          "indexed": false,
          "internalType": "uint256",
          "name": "value",
          "type": "uint256"
        }
      ],
      "name": "Approval",
      "type": "event"
    },
    {
      "anonymous": false,
      "inputs": [
        {
          "indexed": true,
          "internalType": "address",
          "name": "registry",
          "type": "address"
        },
        {
          "indexed": false,
          "internalType": "uint256",
          "name": "timestamp",
          "type": "uint256"
        }
      ],
      "name": "BorrowersRegistryChanged",
      "type": "event"
    },
    {
      "anonymous": false,
      "inputs": [
        {
          "indexed": true,
          "internalType": "address",
          "name": "user",
          "type": "address"
        },
        {
          "indexed": false,
          "internalType": "uint256",
          "name": "value",
          "type": "uint256"
        },
        {
          "indexed": false,
          "internalType": "uint256",
          "name": "timestamp",
          "type": "uint256"
        }
      ],
      "name": "Borrowing",
      "type": "event"
    },
    {
      "anonymous": false,
      "inputs": [
        {
          "indexed": true,
          "internalType": "address",
          "name": "user",
          "type": "address"
        },
        {
          "indexed": false,
          "internalType": "uint256",
          "name": "value",
          "type": "uint256"
        },
        {
          "indexed": false,
          "internalType": "uint256",
          "name": "timestamp",
          "type": "uint256"
        }
      ],
      "name": "Deposit",
      "type": "event"
    },
    {
      "anonymous": false,
      "inputs": [
        {
          "indexed": true,
          "internalType": "address",
          "name": "user",
          "type": "address"
        },
        {
          "indexed": false,
          "internalType": "uint256",
          "name": "value",
          "type": "uint256"
        },
        {
          "indexed": false,
          "internalType": "uint256",
          "name": "timestamp",
          "type": "uint256"
        }
      ],
      "name": "InterestCollected",
      "type": "event"
    },
    {
      "anonymous": false,
      "inputs": [
        {
          "indexed": true,
          "internalType": "address",
          "name": "previousOwner",
          "type": "address"
        },
        {
          "indexed": true,
          "internalType": "address",
          "name": "newOwner",
          "type": "address"
        }
      ],
      "name": "OwnershipTransferred",
      "type": "event"
    },
    {
      "anonymous": false,
      "inputs": [
        {
          "indexed": true,
          "internalType": "address",
          "name": "user",
          "type": "address"
        },
        {
          "indexed": false,
          "internalType": "uint256",
          "name": "value",
          "type": "uint256"
        },
        {
          "indexed": false,
          "internalType": "uint256",
          "name": "timestamp",
          "type": "uint256"
        }
      ],
      "name": "Repayment",
      "type": "event"
    },
    {
      "anonymous": false,
      "inputs": [
        {
          "indexed": true,
          "internalType": "address",
          "name": "from",
          "type": "address"
        },
        {
          "indexed": true,
          "internalType": "address",
          "name": "to",
          "type": "address"
        },
        {
          "indexed": false,
          "internalType": "uint256",
          "name": "value",
          "type": "uint256"
        }
      ],
      "name": "Transfer",
      "type": "event"
    },
    {
      "anonymous": false,
      "inputs": [
        {
          "indexed": true,
          "internalType": "address",
          "name": "user",
          "type": "address"
        },
        {
          "indexed": false,
          "internalType": "uint256",
          "name": "value",
          "type": "uint256"
        },
        {
          "indexed": false,
          "internalType": "uint256",
          "name": "timestamp",
          "type": "uint256"
        }
      ],
      "name": "Withdrawal",
      "type": "event"
    },
    {
      "inputs": [],
      "name": "MAX_POOL_UTILISATION_FOR_BORROWING",
      "outputs": [
        {
          "internalType": "uint256",
          "name": "",
          "type": "uint256"
        }
      ],
      "stateMutability": "view",
      "type": "function"
    },
    {
      "inputs": [
        {
          "internalType": "address",
          "name": "owner",
          "type": "address"
        },
        {
          "internalType": "address",
          "name": "spender",
          "type": "address"
        }
      ],
      "name": "allowance",
      "outputs": [
        {
          "internalType": "uint256",
          "name": "",
          "type": "uint256"
        }
      ],
      "stateMutability": "view",
      "type": "function"
    },
    {
      "inputs": [
        {
          "internalType": "address",
          "name": "spender",
          "type": "address"
        },
        {
          "internalType": "uint256",
          "name": "amount",
          "type": "uint256"
        }
      ],
      "name": "approve",
      "outputs": [
        {
          "internalType": "bool",
          "name": "",
          "type": "bool"
        }
      ],
      "stateMutability": "nonpayable",
      "type": "function"
    },
    {
      "inputs": [
        {
          "internalType": "address",
          "name": "user",
          "type": "address"
        }
      ],
      "name": "balanceOf",
      "outputs": [
        {
          "internalType": "uint256",
          "name": "",
          "type": "uint256"
        }
      ],
      "stateMutability": "view",
      "type": "function"
    },
    {
      "inputs": [
        {
          "internalType": "uint256",
          "name": "_amount",
          "type": "uint256"
        }
      ],
      "name": "borrow",
      "outputs": [],
      "stateMutability": "nonpayable",
      "type": "function"
    },
    {
      "inputs": [
        {
          "internalType": "address",
          "name": "",
          "type": "address"
        }
      ],
      "name": "borrowed",
      "outputs": [
        {
          "internalType": "uint256",
          "name": "",
          "type": "uint256"
        }
      ],
      "stateMutability": "view",
      "type": "function"
    },
    {
      "inputs": [
        {
          "internalType": "address",
          "name": "spender",
          "type": "address"
        },
        {
          "internalType": "uint256",
          "name": "subtractedValue",
          "type": "uint256"
        }
      ],
      "name": "decreaseAllowance",
      "outputs": [
        {
          "internalType": "bool",
          "name": "",
          "type": "bool"
        }
      ],
      "stateMutability": "nonpayable",
      "type": "function"
    },
    {
      "inputs": [],
      "name": "deposit",
      "outputs": [],
      "stateMutability": "payable",
      "type": "function"
    },
    {
      "inputs": [
        {
          "internalType": "address",
          "name": "_user",
          "type": "address"
        }
      ],
      "name": "getBorrowed",
      "outputs": [
        {
          "internalType": "uint256",
          "name": "",
          "type": "uint256"
        }
      ],
      "stateMutability": "view",
      "type": "function"
    },
    {
      "inputs": [],
      "name": "getBorrowingRate",
      "outputs": [
        {
          "internalType": "uint256",
          "name": "",
          "type": "uint256"
        }
      ],
      "stateMutability": "view",
      "type": "function"
    },
    {
      "inputs": [],
      "name": "getDepositRate",
      "outputs": [
        {
          "internalType": "uint256",
          "name": "",
          "type": "uint256"
        }
      ],
      "stateMutability": "view",
      "type": "function"
    },
    {
      "inputs": [
        {
          "internalType": "address",
          "name": "spender",
          "type": "address"
        },
        {
          "internalType": "uint256",
          "name": "addedValue",
          "type": "uint256"
        }
      ],
      "name": "increaseAllowance",
      "outputs": [
        {
          "internalType": "bool",
          "name": "",
          "type": "bool"
        }
      ],
      "stateMutability": "nonpayable",
      "type": "function"
    },
    {
      "inputs": [
        {
          "internalType": "contract IRatesCalculator",
          "name": "ratesCalculator_",
          "type": "address"
        },
        {
          "internalType": "contract IBorrowersRegistry",
          "name": "borrowersRegistry_",
          "type": "address"
        },
        {
          "internalType": "contract CompoundingIndex",
          "name": "depositIndex_",
          "type": "address"
        },
        {
          "internalType": "contract CompoundingIndex",
          "name": "borrowIndex_",
          "type": "address"
        }
      ],
      "name": "initialize",
      "outputs": [],
      "stateMutability": "nonpayable",
      "type": "function"
    },
    {
      "inputs": [],
      "name": "owner",
      "outputs": [
        {
          "internalType": "address",
          "name": "",
          "type": "address"
        }
      ],
      "stateMutability": "view",
      "type": "function"
    },
    {
      "inputs": [
        {
          "internalType": "uint256",
          "name": "amount",
          "type": "uint256"
        },
        {
          "internalType": "address",
          "name": "account",
          "type": "address"
        }
      ],
      "name": "recoverSurplus",
      "outputs": [],
      "stateMutability": "nonpayable",
      "type": "function"
    },
    {
      "inputs": [],
      "name": "renounceOwnership",
      "outputs": [],
      "stateMutability": "nonpayable",
      "type": "function"
    },
    {
      "inputs": [],
      "name": "repay",
      "outputs": [],
      "stateMutability": "payable",
      "type": "function"
    },
    {
      "inputs": [
        {
          "internalType": "contract IBorrowersRegistry",
          "name": "borrowersRegistry_",
          "type": "address"
        }
      ],
      "name": "setBorrowersRegistry",
      "outputs": [],
      "stateMutability": "nonpayable",
      "type": "function"
    },
    {
      "inputs": [
        {
          "internalType": "contract IRatesCalculator",
          "name": "ratesCalculator_",
          "type": "address"
        }
      ],
      "name": "setRatesCalculator",
      "outputs": [],
      "stateMutability": "nonpayable",
      "type": "function"
    },
    {
      "inputs": [],
      "name": "totalBorrowed",
      "outputs": [
        {
          "internalType": "uint256",
          "name": "",
          "type": "uint256"
        }
      ],
      "stateMutability": "view",
      "type": "function"
    },
    {
      "inputs": [],
      "name": "totalSupply",
      "outputs": [
        {
          "internalType": "uint256",
          "name": "",
          "type": "uint256"
        }
      ],
      "stateMutability": "view",
      "type": "function"
    },
    {
      "inputs": [
        {
          "internalType": "address",
          "name": "recipient",
          "type": "address"
        },
        {
          "internalType": "uint256",
          "name": "amount",
          "type": "uint256"
        }
      ],
      "name": "transfer",
      "outputs": [
        {
          "internalType": "bool",
          "name": "",
          "type": "bool"
        }
      ],
      "stateMutability": "nonpayable",
      "type": "function"
    },
    {
      "inputs": [
        {
          "internalType": "address",
          "name": "sender",
          "type": "address"
        },
        {
          "internalType": "address",
          "name": "recipient",
          "type": "address"
        },
        {
          "internalType": "uint256",
          "name": "amount",
          "type": "uint256"
        }
      ],
      "name": "transferFrom",
      "outputs": [
        {
          "internalType": "bool",
          "name": "",
          "type": "bool"
        }
      ],
      "stateMutability": "nonpayable",
      "type": "function"
    },
    {
      "inputs": [
        {
          "internalType": "address",
          "name": "newOwner",
          "type": "address"
        }
      ],
      "name": "transferOwnership",
      "outputs": [],
      "stateMutability": "nonpayable",
      "type": "function"
    },
    {
      "inputs": [
        {
          "internalType": "uint256",
          "name": "_amount",
          "type": "uint256"
        }
      ],
      "name": "withdraw",
      "outputs": [],
      "stateMutability": "nonpayable",
      "type": "function"
    }
  ],
  "bytecode": "0x608060405234801561001057600080fd5b50614b09806100206000396000f3fe6080604052600436106101665760003560e01c8063715018a6116100d1578063c5ebeaec1161008a578063f2fde38b11610064578063f2fde38b14610536578063f36b24251461055f578063f8c8765e1461058a578063fc68f661146105b357610166565b8063c5ebeaec146104c6578063d0e30db0146104ef578063dd62ed3e146104f957610166565b8063715018a6146103b45780638da5cb5b146103cb5780639dcee9a4146103f6578063a457c2d714610421578063a9059cbb1461045e578063b790634e1461049b57610166565b80633950935111610123578063395093511461029f578063402d8883146102dc5780634c19386c146102e65780636011163e1461031157806370a082311461034e57806370d4cea01461038b57610166565b80630790ef9a1461016b5780630941cb3d14610194578063095ea7b3146101d157806318160ddd1461020e57806323b872dd146102395780632e1a7d4d14610276575b600080fd5b34801561017757600080fd5b50610192600480360381019061018d91906137b6565b6105dc565b005b3480156101a057600080fd5b506101bb60048036038101906101b69190613596565b61078b565b6040516101c89190613fae565b60405180910390f35b3480156101dd57600080fd5b506101f860048036038101906101f3919061364a565b6107a3565b6040516102059190613c33565b60405180910390f35b34801561021a57600080fd5b50610223610904565b6040516102309190613fae565b60405180910390f35b34801561024557600080fd5b50610260600480360381019061025b91906135fb565b610914565b60405161026d9190613c33565b60405180910390f35b34801561028257600080fd5b5061029d60048036038101906102989190613764565b610cf7565b005b3480156102ab57600080fd5b506102c660048036038101906102c1919061364a565b610e27565b6040516102d39190613c33565b60405180910390f35b6102e4611015565b005b3480156102f257600080fd5b506102fb6111fc565b6040516103089190613fae565b60405180910390f35b34801561031d57600080fd5b5061033860048036038101906103339190613596565b61120c565b6040516103459190613fae565b60405180910390f35b34801561035a57600080fd5b5061037560048036038101906103709190613596565b611301565b6040516103829190613fae565b60405180910390f35b34801561039757600080fd5b506103b260048036038101906103ad91906136d8565b6113f6565b005b3480156103c057600080fd5b506103c9611572565b005b3480156103d757600080fd5b506103e06115fa565b6040516103ed9190613c18565b60405180910390f35b34801561040257600080fd5b5061040b611624565b6040516104189190613fae565b60405180910390f35b34801561042d57600080fd5b506104486004803603810190610443919061364a565b611630565b6040516104559190613c33565b60405180910390f35b34801561046a57600080fd5b506104856004803603810190610480919061364a565b611867565b6040516104929190613c33565b60405180910390f35b3480156104a757600080fd5b506104b0611aed565b6040516104bd9190613fae565b60405180910390f35b3480156104d257600080fd5b506104ed60048036038101906104e89190613764565b611baf565b005b6104f7611fbf565b005b34801561050557600080fd5b50610520600480360381019061051b91906135bf565b612082565b60405161052d9190613fae565b60405180910390f35b34801561054257600080fd5b5061055d60048036038101906105589190613596565b612109565b005b34801561056b57600080fd5b50610574612201565b6040516105819190613fae565b60405180910390f35b34801561059657600080fd5b506105b160048036038101906105ac9190613701565b6122c3565b005b3480156105bf57600080fd5b506105da60048036038101906105d591906136af565b61250f565b005b6105e46126d5565b73ffffffffffffffffffffffffffffffffffffffff166106026115fa565b73ffffffffffffffffffffffffffffffffffffffff1614610658576040517f08c379a000000000000000000000000000000000000000000000000000000000815260040161064f90613eae565b60405180910390fd5b6002606554141561069e576040517f08c379a000000000000000000000000000000000000000000000000000000000815260040161069590613f4e565b60405180910390fd5b600260658190555060006106b0610904565b6106b86111fc565b476106c39190614042565b6106cd9190614123565b905047831115610712576040517f08c379a000000000000000000000000000000000000000000000000000000000815260040161070990613e6e565b60405180910390fd5b80831115610755576040517f08c379a000000000000000000000000000000000000000000000000000000000815260040161074c90613f6e565b60405180910390fd5b61077e838373ffffffffffffffffffffffffffffffffffffffff166126dd90919063ffffffff16565b5060016065819055505050565b60996020528060005260406000206000915090505481565b60008073ffffffffffffffffffffffffffffffffffffffff168373ffffffffffffffffffffffffffffffffffffffff161415610814576040517f08c379a000000000000000000000000000000000000000000000000000000000815260040161080b90613eee565b60405180910390fd5b81609760003373ffffffffffffffffffffffffffffffffffffffff1673ffffffffffffffffffffffffffffffffffffffff16815260200190815260200160002060008573ffffffffffffffffffffffffffffffffffffffff1673ffffffffffffffffffffffffffffffffffffffff168152602001908152602001600020819055508273ffffffffffffffffffffffffffffffffffffffff163373ffffffffffffffffffffffffffffffffffffffff167f8c5be1e5ebec7d5bd14f71427d1e84f3dd0314c0f7b2291e5b200ac8c7c3b925846040516108f29190613fae565b60405180910390a36001905092915050565b600061090f30611301565b905090565b600081609760008673ffffffffffffffffffffffffffffffffffffffff1673ffffffffffffffffffffffffffffffffffffffff16815260200190815260200160002060003373ffffffffffffffffffffffffffffffffffffffff1673ffffffffffffffffffffffffffffffffffffffff1681526020019081526020016000205410156109d5576040517f08c379a00000000000000000000000000000000000000000000000000000000081526004016109cc90613dae565b60405180910390fd5b600073ffffffffffffffffffffffffffffffffffffffff168373ffffffffffffffffffffffffffffffffffffffff161415610a45576040517f08c379a0000000000000000000000000000000000000000000000000000000008152600401610a3c90613d0e565b60405180910390fd5b3073ffffffffffffffffffffffffffffffffffffffff168373ffffffffffffffffffffffffffffffffffffffff161415610ab4576040517f08c379a0000000000000000000000000000000000000000000000000000000008152600401610aab90613ece565b60405180910390fd5b610abd33612803565b81609860008673ffffffffffffffffffffffffffffffffffffffff1673ffffffffffffffffffffffffffffffffffffffff168152602001908152602001600020541015610b3f576040517f08c379a0000000000000000000000000000000000000000000000000000000008152600401610b3690613d2e565b60405180910390fd5b81609860008673ffffffffffffffffffffffffffffffffffffffff1673ffffffffffffffffffffffffffffffffffffffff1681526020019081526020016000206000828254610b8e9190614123565b9250508190555081609760008673ffffffffffffffffffffffffffffffffffffffff1673ffffffffffffffffffffffffffffffffffffffff16815260200190815260200160002060003373ffffffffffffffffffffffffffffffffffffffff1673ffffffffffffffffffffffffffffffffffffffff1681526020019081526020016000206000828254610c219190614123565b92505081905550610c3183612803565b81609860008573ffffffffffffffffffffffffffffffffffffffff1673ffffffffffffffffffffffffffffffffffffffff1681526020019081526020016000206000828254610c809190614042565b925050819055508273ffffffffffffffffffffffffffffffffffffffff168473ffffffffffffffffffffffffffffffffffffffff167fddf252ad1be2c89b69c2b068fc378daa952ba7f163c4a11628f55a4df523b3ef84604051610ce49190613fae565b60405180910390a3600190509392505050565b60026065541415610d3d576040517f08c379a0000000000000000000000000000000000000000000000000000000008152600401610d3490613f4e565b60405180910390fd5b600260658190555080471015610d88576040517f08c379a0000000000000000000000000000000000000000000000000000000008152600401610d7f90613f8e565b60405180910390fd5b610d9133612803565b610d9b33826129d8565b610dc4813373ffffffffffffffffffffffffffffffffffffffff166126dd90919063ffffffff16565b610dcc612be0565b3373ffffffffffffffffffffffffffffffffffffffff167fdf273cb619d95419a9cd0ec88123a0538c85064229baa6363788f743fff90deb8242604051610e14929190613ff2565b60405180910390a2600160658190555050565b60008073ffffffffffffffffffffffffffffffffffffffff168373ffffffffffffffffffffffffffffffffffffffff161415610e98576040517f08c379a0000000000000000000000000000000000000000000000000000000008152600401610e8f90613eee565b60405180910390fd5b600082609760003373ffffffffffffffffffffffffffffffffffffffff1673ffffffffffffffffffffffffffffffffffffffff16815260200190815260200160002060008673ffffffffffffffffffffffffffffffffffffffff1673ffffffffffffffffffffffffffffffffffffffff16815260200190815260200160002054610f229190614042565b905080609760003373ffffffffffffffffffffffffffffffffffffffff1673ffffffffffffffffffffffffffffffffffffffff16815260200190815260200160002060008673ffffffffffffffffffffffffffffffffffffffff1673ffffffffffffffffffffffffffffffffffffffff168152602001908152602001600020819055508373ffffffffffffffffffffffffffffffffffffffff163373ffffffffffffffffffffffffffffffffffffffff167f8c5be1e5ebec7d5bd14f71427d1e84f3dd0314c0f7b2291e5b200ac8c7c3b925836040516110029190613fae565b60405180910390a3600191505092915050565b6002606554141561105b576040517f08c379a000000000000000000000000000000000000000000000000000000000815260040161105290613f4e565b60405180910390fd5b600260658190555061106c33612f02565b34609960003373ffffffffffffffffffffffffffffffffffffffff1673ffffffffffffffffffffffffffffffffffffffff1681526020019081526020016000205410156110ee576040517f08c379a00000000000000000000000000000000000000000000000000000000081526004016110e590613cae565b60405180910390fd5b34609960003373ffffffffffffffffffffffffffffffffffffffff1673ffffffffffffffffffffffffffffffffffffffff168152602001908152602001600020600082825461113d9190614123565b9250508190555034609960003073ffffffffffffffffffffffffffffffffffffffff1673ffffffffffffffffffffffffffffffffffffffff16815260200190815260200160002060008282546111939190614123565b925050819055506111a2612be0565b3373ffffffffffffffffffffffffffffffffffffffff167f24fcca58a997b1b2eff6db8107e860458544c09ddd3693b3b779e1df6c0d6c5d34426040516111ea929190613ff2565b60405180910390a26001606581905550565b60006112073061120c565b905090565b6000609d60009054906101000a900473ffffffffffffffffffffffffffffffffffffffff1673ffffffffffffffffffffffffffffffffffffffff1663966da889609960008573ffffffffffffffffffffffffffffffffffffffff1673ffffffffffffffffffffffffffffffffffffffff16815260200190815260200160002054846040518363ffffffff1660e01b81526004016112aa929190613fc9565b60206040518083038186803b1580156112c257600080fd5b505afa1580156112d6573d6000803e3d6000fd5b505050506040513d601f19601f820116820180604052508101906112fa919061378d565b9050919050565b6000609c60009054906101000a900473ffffffffffffffffffffffffffffffffffffffff1673ffffffffffffffffffffffffffffffffffffffff1663966da889609860008573ffffffffffffffffffffffffffffffffffffffff1673ffffffffffffffffffffffffffffffffffffffff16815260200190815260200160002054846040518363ffffffff1660e01b815260040161139f929190613fc9565b60206040518083038186803b1580156113b757600080fd5b505afa1580156113cb573d6000803e3d6000fd5b505050506040513d601f19601f820116820180604052508101906113ef919061378d565b9050919050565b6113fe6126d5565b73ffffffffffffffffffffffffffffffffffffffff1661141c6115fa565b73ffffffffffffffffffffffffffffffffffffffff1614611472576040517f08c379a000000000000000000000000000000000000000000000000000000000815260040161146990613eae565b60405180910390fd5b61147b81613117565b806114b25750600073ffffffffffffffffffffffffffffffffffffffff168173ffffffffffffffffffffffffffffffffffffffff16145b6114f1576040517f08c379a00000000000000000000000000000000000000000000000000000000081526004016114e890613d6e565b60405180910390fd5b80609a60006101000a81548173ffffffffffffffffffffffffffffffffffffffff021916908373ffffffffffffffffffffffffffffffffffffffff160217905550600073ffffffffffffffffffffffffffffffffffffffff168173ffffffffffffffffffffffffffffffffffffffff161461156f5761156e612be0565b5b50565b61157a6126d5565b73ffffffffffffffffffffffffffffffffffffffff166115986115fa565b73ffffffffffffffffffffffffffffffffffffffff16146115ee576040517f08c379a00000000000000000000000000000000000000000000000000000000081526004016115e590613eae565b60405180910390fd5b6115f8600061313a565b565b6000603360009054906101000a900473ffffffffffffffffffffffffffffffffffffffff16905090565b670d2f13f7789f000081565b60008073ffffffffffffffffffffffffffffffffffffffff168373ffffffffffffffffffffffffffffffffffffffff1614156116a1576040517f08c379a000000000000000000000000000000000000000000000000000000000815260040161169890613eee565b60405180910390fd5b6000609760003373ffffffffffffffffffffffffffffffffffffffff1673ffffffffffffffffffffffffffffffffffffffff16815260200190815260200160002060008573ffffffffffffffffffffffffffffffffffffffff1673ffffffffffffffffffffffffffffffffffffffff16815260200190815260200160002054905082811015611765576040517f08c379a000000000000000000000000000000000000000000000000000000000815260040161175c90613dee565b60405180910390fd5b600083826117739190614123565b905080609760003373ffffffffffffffffffffffffffffffffffffffff1673ffffffffffffffffffffffffffffffffffffffff16815260200190815260200160002060008773ffffffffffffffffffffffffffffffffffffffff1673ffffffffffffffffffffffffffffffffffffffff168152602001908152602001600020819055508473ffffffffffffffffffffffffffffffffffffffff163373ffffffffffffffffffffffffffffffffffffffff167f8c5be1e5ebec7d5bd14f71427d1e84f3dd0314c0f7b2291e5b200ac8c7c3b925836040516118539190613fae565b60405180910390a360019250505092915050565b60008073ffffffffffffffffffffffffffffffffffffffff168373ffffffffffffffffffffffffffffffffffffffff1614156118d8576040517f08c379a00000000000000000000000000000000000000000000000000000000081526004016118cf90613d0e565b60405180910390fd5b3073ffffffffffffffffffffffffffffffffffffffff168373ffffffffffffffffffffffffffffffffffffffff161415611947576040517f08c379a000000000000000000000000000000000000000000000000000000000815260040161193e90613ece565b60405180910390fd5b61195033612803565b81609860003373ffffffffffffffffffffffffffffffffffffffff1673ffffffffffffffffffffffffffffffffffffffff1681526020019081526020016000205410156119d2576040517f08c379a00000000000000000000000000000000000000000000000000000000081526004016119c990613d2e565b60405180910390fd5b81609860003373ffffffffffffffffffffffffffffffffffffffff1673ffffffffffffffffffffffffffffffffffffffff16815260200190815260200160002060008282540392505081905550611a2883612803565b81609860008573ffffffffffffffffffffffffffffffffffffffff1673ffffffffffffffffffffffffffffffffffffffff1681526020019081526020016000206000828254611a779190614042565b925050819055508273ffffffffffffffffffffffffffffffffffffffff163373ffffffffffffffffffffffffffffffffffffffff167fddf252ad1be2c89b69c2b068fc378daa952ba7f163c4a11628f55a4df523b3ef84604051611adb9190613fae565b60405180910390a36001905092915050565b6000609a60009054906101000a900473ffffffffffffffffffffffffffffffffffffffff1673ffffffffffffffffffffffffffffffffffffffff16637cd08331611b356111fc565b611b3d610904565b6040518363ffffffff1660e01b8152600401611b5a929190613ff2565b60206040518083038186803b158015611b7257600080fd5b505afa158015611b86573d6000803e3d6000fd5b505050506040513d601f19601f82011682018060405250810190611baa919061378d565b905090565b600073ffffffffffffffffffffffffffffffffffffffff16609b60009054906101000a900473ffffffffffffffffffffffffffffffffffffffff1673ffffffffffffffffffffffffffffffffffffffff161415611c41576040517f08c379a0000000000000000000000000000000000000000000000000000000008152600401611c3890613e4e565b60405180910390fd5b609b60009054906101000a900473ffffffffffffffffffffffffffffffffffffffff1673ffffffffffffffffffffffffffffffffffffffff16630e7fc864336040518263ffffffff1660e01b8152600401611c9c9190613c18565b60206040518083038186803b158015611cb457600080fd5b505afa158015611cc8573d6000803e3d6000fd5b505050506040513d601f19601f82011682018060405250810190611cec9190613686565b611d2b576040517f08c379a0000000000000000000000000000000000000000000000000000000008152600401611d2290613c8e565b60405180910390fd5b6000611d35610904565b1415611d76576040517f08c379a0000000000000000000000000000000000000000000000000000000008152600401611d6d90613e2e565b60405180910390fd5b60026065541415611dbc576040517f08c379a0000000000000000000000000000000000000000000000000000000008152600401611db390613f4e565b60405180910390fd5b600260658190555080471015611e07576040517f08c379a0000000000000000000000000000000000000000000000000000000008152600401611dfe90613c4e565b60405180910390fd5b611e1033612f02565b80609960003373ffffffffffffffffffffffffffffffffffffffff1673ffffffffffffffffffffffffffffffffffffffff1681526020019081526020016000206000828254611e5f9190614042565b9250508190555080609960003073ffffffffffffffffffffffffffffffffffffffff1673ffffffffffffffffffffffffffffffffffffffff1681526020019081526020016000206000828254611eb59190614042565b92505081905550611ee5813373ffffffffffffffffffffffffffffffffffffffff166126dd90919063ffffffff16565b611eed612be0565b3373ffffffffffffffffffffffffffffffffffffffff167fd6b37be10b58108f696d9ed067fedad0bff7cb417ef4c28d2f8a25d6d83c98d58242604051611f35929190613ff2565b60405180910390a26001606581905550670d2f13f7789f0000611f56610904565b670de0b6b3a7640000611f676111fc565b611f7191906140c9565b611f7b9190614098565b1115611fbc576040517f08c379a0000000000000000000000000000000000000000000000000000000008152600401611fb390613cee565b60405180910390fd5b50565b60026065541415612005576040517f08c379a0000000000000000000000000000000000000000000000000000000008152600401611ffc90613f4e565b60405180910390fd5b600260658190555061201633612803565b6120203334613200565b612028612be0565b3373ffffffffffffffffffffffffffffffffffffffff167f90890809c654f11d6e72a28fa60149770a0d11ec6c92319d6ceb2bb0a4ea1a153442604051612070929190613ff2565b60405180910390a26001606581905550565b6000609760008473ffffffffffffffffffffffffffffffffffffffff1673ffffffffffffffffffffffffffffffffffffffff16815260200190815260200160002060008373ffffffffffffffffffffffffffffffffffffffff1673ffffffffffffffffffffffffffffffffffffffff16815260200190815260200160002054905092915050565b6121116126d5565b73ffffffffffffffffffffffffffffffffffffffff1661212f6115fa565b73ffffffffffffffffffffffffffffffffffffffff1614612185576040517f08c379a000000000000000000000000000000000000000000000000000000000815260040161217c90613eae565b60405180910390fd5b600073ffffffffffffffffffffffffffffffffffffffff168173ffffffffffffffffffffffffffffffffffffffff1614156121f5576040517f08c379a00000000000000000000000000000000000000000000000000000000081526004016121ec90613cce565b60405180910390fd5b6121fe8161313a565b50565b6000609a60009054906101000a900473ffffffffffffffffffffffffffffffffffffffff1673ffffffffffffffffffffffffffffffffffffffff1663df841eec6122496111fc565b612251610904565b6040518363ffffffff1660e01b815260040161226e929190613ff2565b60206040518083038186803b15801561228657600080fd5b505afa15801561229a573d6000803e3d6000fd5b505050506040513d601f19601f820116820180604052508101906122be919061378d565b905090565b600060019054906101000a900460ff166122eb5760008054906101000a900460ff16156122f4565b6122f3613386565b5b612333576040517f08c379a000000000000000000000000000000000000000000000000000000000815260040161232a90613e0e565b60405180910390fd5b60008060019054906101000a900460ff161590508015612383576001600060016101000a81548160ff02191690831515021790555060016000806101000a81548160ff0219169083151502179055505b61238c84613117565b6123cb576040517f08c379a00000000000000000000000000000000000000000000000000000000081526004016123c290613d6e565b60405180910390fd5b83609b60006101000a81548173ffffffffffffffffffffffffffffffffffffffff021916908373ffffffffffffffffffffffffffffffffffffffff16021790555084609a60006101000a81548173ffffffffffffffffffffffffffffffffffffffff021916908373ffffffffffffffffffffffffffffffffffffffff16021790555082609c60006101000a81548173ffffffffffffffffffffffffffffffffffffffff021916908373ffffffffffffffffffffffffffffffffffffffff16021790555081609d60006101000a81548173ffffffffffffffffffffffffffffffffffffffff021916908373ffffffffffffffffffffffffffffffffffffffff1602179055506124d7613397565b6124df6133f0565b6124e7612be0565b80156125085760008060016101000a81548160ff0219169083151502179055505b5050505050565b6125176126d5565b73ffffffffffffffffffffffffffffffffffffffff166125356115fa565b73ffffffffffffffffffffffffffffffffffffffff161461258b576040517f08c379a000000000000000000000000000000000000000000000000000000000815260040161258290613eae565b60405180910390fd5b600073ffffffffffffffffffffffffffffffffffffffff168173ffffffffffffffffffffffffffffffffffffffff1614156125fb576040517f08c379a00000000000000000000000000000000000000000000000000000000081526004016125f290613f2e565b60405180910390fd5b61260481613117565b612643576040517f08c379a000000000000000000000000000000000000000000000000000000000815260040161263a90613d6e565b60405180910390fd5b80609b60006101000a81548173ffffffffffffffffffffffffffffffffffffffff021916908373ffffffffffffffffffffffffffffffffffffffff1602179055508073ffffffffffffffffffffffffffffffffffffffff167f04dce7d074f7e287a2e6e3516c802271d58d5c14e0dede83a49719eb6b920469426040516126ca9190613fae565b60405180910390a250565b600033905090565b60008273ffffffffffffffffffffffffffffffffffffffff1682600067ffffffffffffffff811115612738577f4e487b7100000000000000000000000000000000000000000000000000000000600052604160045260246000fd5b6040519080825280601f01601f19166020018201604052801561276a5781602001600182028036833780820191505090505b506040516127789190613c01565b60006040518083038185875af1925050503d80600081146127b5576040519150601f19603f3d011682016040523d82523d6000602084013e6127ba565b606091505b50509050806127fe576040517f08c379a00000000000000000000000000000000000000000000000000000000081526004016127f590613d4e565b60405180910390fd5b505050565b600061280e82611301565b90506000609860008473ffffffffffffffffffffffffffffffffffffffff1673ffffffffffffffffffffffffffffffffffffffff168152602001908152602001600020548261285d9190614123565b90506128698382613200565b8273ffffffffffffffffffffffffffffffffffffffff167f9bbd517758fbae61197f1c1c04c8614064e89512dbaf4350dcdf76fcaa5e216182426040516128b1929190613ff2565b60405180910390a2609c60009054906101000a900473ffffffffffffffffffffffffffffffffffffffff1673ffffffffffffffffffffffffffffffffffffffff1663ed03b336846040518263ffffffff1660e01b81526004016129149190613c18565b600060405180830381600087803b15801561292e57600080fd5b505af1158015612942573d6000803e3d6000fd5b50505050609c60009054906101000a900473ffffffffffffffffffffffffffffffffffffffff1673ffffffffffffffffffffffffffffffffffffffff1663ed03b336306040518263ffffffff1660e01b81526004016129a19190613c18565b600060405180830381600087803b1580156129bb57600080fd5b505af11580156129cf573d6000803e3d6000fd5b50505050505050565b80609860008473ffffffffffffffffffffffffffffffffffffffff1673ffffffffffffffffffffffffffffffffffffffff168152602001908152602001600020541015612a5a576040517f08c379a0000000000000000000000000000000000000000000000000000000008152600401612a5190613d8e565b60405180910390fd5b80609860003073ffffffffffffffffffffffffffffffffffffffff1673ffffffffffffffffffffffffffffffffffffffff168152602001908152602001600020541015612adc576040517f08c379a0000000000000000000000000000000000000000000000000000000008152600401612ad390613dce565b60405180910390fd5b80609860008473ffffffffffffffffffffffffffffffffffffffff1673ffffffffffffffffffffffffffffffffffffffff1681526020019081526020016000206000828254039250508190555080609860003073ffffffffffffffffffffffffffffffffffffffff1673ffffffffffffffffffffffffffffffffffffffff16815260200190815260200160002060008282540392505081905550600073ffffffffffffffffffffffffffffffffffffffff168273ffffffffffffffffffffffffffffffffffffffff167fddf252ad1be2c89b69c2b068fc378daa952ba7f163c4a11628f55a4df523b3ef83604051612bd49190613fae565b60405180910390a35050565b600073ffffffffffffffffffffffffffffffffffffffff16609a60009054906101000a900473ffffffffffffffffffffffffffffffffffffffff1673ffffffffffffffffffffffffffffffffffffffff161415612c72576040517f08c379a0000000000000000000000000000000000000000000000000000000008152600401612c6990613c6e565b60405180910390fd5b609c60009054906101000a900473ffffffffffffffffffffffffffffffffffffffff1673ffffffffffffffffffffffffffffffffffffffff166334fcf437609a60009054906101000a900473ffffffffffffffffffffffffffffffffffffffff1673ffffffffffffffffffffffffffffffffffffffff16637cd08331612cf66111fc565b612cfe610904565b6040518363ffffffff1660e01b8152600401612d1b929190613ff2565b60206040518083038186803b158015612d3357600080fd5b505afa158015612d47573d6000803e3d6000fd5b505050506040513d601f19601f82011682018060405250810190612d6b919061378d565b6040518263ffffffff1660e01b8152600401612d879190613fae565b600060405180830381600087803b158015612da157600080fd5b505af1158015612db5573d6000803e3d6000fd5b50505050609d60009054906101000a900473ffffffffffffffffffffffffffffffffffffffff1673ffffffffffffffffffffffffffffffffffffffff166334fcf437609a60009054906101000a900473ffffffffffffffffffffffffffffffffffffffff1673ffffffffffffffffffffffffffffffffffffffff1663df841eec612e3d6111fc565b612e45610904565b6040518363ffffffff1660e01b8152600401612e62929190613ff2565b60206040518083038186803b158015612e7a57600080fd5b505afa158015612e8e573d6000803e3d6000fd5b505050506040513d601f19601f82011682018060405250810190612eb2919061378d565b6040518263ffffffff1660e01b8152600401612ece9190613fae565b600060405180830381600087803b158015612ee857600080fd5b505af1158015612efc573d6000803e3d6000fd5b50505050565b6000612f0d8261120c565b90506000609960008473ffffffffffffffffffffffffffffffffffffffff1673ffffffffffffffffffffffffffffffffffffffff1681526020019081526020016000205482612f5c9190614123565b905081609960008573ffffffffffffffffffffffffffffffffffffffff1673ffffffffffffffffffffffffffffffffffffffff1681526020019081526020016000208190555080609960003073ffffffffffffffffffffffffffffffffffffffff1673ffffffffffffffffffffffffffffffffffffffff1681526020019081526020016000206000828254612ff19190614042565b92505081905550609d60009054906101000a900473ffffffffffffffffffffffffffffffffffffffff1673ffffffffffffffffffffffffffffffffffffffff1663ed03b336846040518263ffffffff1660e01b81526004016130539190613c18565b600060405180830381600087803b15801561306d57600080fd5b505af1158015613081573d6000803e3d6000fd5b50505050609d60009054906101000a900473ffffffffffffffffffffffffffffffffffffffff1673ffffffffffffffffffffffffffffffffffffffff1663ed03b336306040518263ffffffff1660e01b81526004016130e09190613c18565b600060405180830381600087803b1580156130fa57600080fd5b505af115801561310e573d6000803e3d6000fd5b50505050505050565b6000808273ffffffffffffffffffffffffffffffffffffffff163b119050919050565b6000603360009054906101000a900473ffffffffffffffffffffffffffffffffffffffff16905081603360006101000a81548173ffffffffffffffffffffffffffffffffffffffff021916908373ffffffffffffffffffffffffffffffffffffffff1602179055508173ffffffffffffffffffffffffffffffffffffffff168173ffffffffffffffffffffffffffffffffffffffff167f8be0079c531659141344cd1fd0a4f28419497f9722a3daafe3b4186f6b6457e060405160405180910390a35050565b600073ffffffffffffffffffffffffffffffffffffffff168273ffffffffffffffffffffffffffffffffffffffff161415613270576040517f08c379a000000000000000000000000000000000000000000000000000000000815260040161326790613e8e565b60405180910390fd5b80609860008473ffffffffffffffffffffffffffffffffffffffff1673ffffffffffffffffffffffffffffffffffffffff16815260200190815260200160002060008282546132bf9190614042565b9250508190555080609860003073ffffffffffffffffffffffffffffffffffffffff1673ffffffffffffffffffffffffffffffffffffffff16815260200190815260200160002060008282546133159190614042565b925050819055508173ffffffffffffffffffffffffffffffffffffffff16600073ffffffffffffffffffffffffffffffffffffffff167fddf252ad1be2c89b69c2b068fc378daa952ba7f163c4a11628f55a4df523b3ef8360405161337a9190613fae565b60405180910390a35050565b600061339130613117565b15905090565b600060019054906101000a900460ff166133e6576040517f08c379a00000000000000000000000000000000000000000000000000000000081526004016133dd90613f0e565b60405180910390fd5b6133ee613449565b565b600060019054906101000a900460ff1661343f576040517f08c379a000000000000000000000000000000000000000000000000000000000815260040161343690613f0e565b60405180910390fd5b6134476134aa565b565b600060019054906101000a900460ff16613498576040517f08c379a000000000000000000000000000000000000000000000000000000000815260040161348f90613f0e565b60405180910390fd5b6134a86134a36126d5565b61313a565b565b600060019054906101000a900460ff166134f9576040517f08c379a00000000000000000000000000000000000000000000000000000000081526004016134f090613f0e565b60405180910390fd5b6001606581905550565b60008135905061351281614a49565b92915050565b60008151905061352781614a60565b92915050565b60008135905061353c81614a77565b92915050565b60008135905061355181614a8e565b92915050565b60008135905061356681614aa5565b92915050565b60008135905061357b81614abc565b92915050565b60008151905061359081614abc565b92915050565b6000602082840312156135a857600080fd5b60006135b684828501613503565b91505092915050565b600080604083850312156135d257600080fd5b60006135e085828601613503565b92505060206135f185828601613503565b9150509250929050565b60008060006060848603121561361057600080fd5b600061361e86828701613503565b935050602061362f86828701613503565b92505060406136408682870161356c565b9150509250925092565b6000806040838503121561365d57600080fd5b600061366b85828601613503565b925050602061367c8582860161356c565b9150509250929050565b60006020828403121561369857600080fd5b60006136a684828501613518565b91505092915050565b6000602082840312156136c157600080fd5b60006136cf84828501613542565b91505092915050565b6000602082840312156136ea57600080fd5b60006136f884828501613557565b91505092915050565b6000806000806080858703121561371757600080fd5b600061372587828801613557565b945050602061373687828801613542565b93505060406137478782880161352d565b92505060606137588782880161352d565b91505092959194509250565b60006020828403121561377657600080fd5b60006137848482850161356c565b91505092915050565b60006020828403121561379f57600080fd5b60006137ad84828501613581565b91505092915050565b600080604083850312156137c957600080fd5b60006137d78582860161356c565b92505060206137e885828601613503565b9150509250929050565b6137fb81614157565b82525050565b61380a81614169565b82525050565b600061381b8261401b565b6138258185614026565b93506138358185602086016141d5565b80840191505092915050565b600061384e603683614031565b915061385982614266565b604082019050919050565b6000613871604d83614031565b915061387c826142b5565b606082019050919050565b6000613894603d83614031565b915061389f8261432a565b604082019050919050565b60006138b7603883614031565b91506138c282614379565b604082019050919050565b60006138da602683614031565b91506138e5826143c8565b604082019050919050565b60006138fd602f83614031565b915061390882614417565b604082019050919050565b6000613920602a83614031565b915061392b82614466565b604082019050919050565b6000613943602683614031565b915061394e826144b5565b604082019050919050565b6000613966603483614031565b915061397182614504565b604082019050919050565b6000613989601283614031565b915061399482614553565b602082019050919050565b60006139ac602783614031565b91506139b78261457c565b604082019050919050565b60006139cf603583614031565b91506139da826145cb565b604082019050919050565b60006139f2603783614031565b91506139fd8261461a565b604082019050919050565b6000613a15603583614031565b9150613a2082614669565b604082019050919050565b6000613a38602e83614031565b9150613a43826146b8565b604082019050919050565b6000613a5b602083614031565b9150613a6682614707565b602082019050919050565b6000613a7e602483614031565b9150613a8982614730565b604082019050919050565b6000613aa1603683614031565b9150613aac8261477f565b604082019050919050565b6000613ac4602683614031565b9150613acf826147ce565b604082019050919050565b6000613ae7602083614031565b9150613af28261481d565b602082019050919050565b6000613b0a602a83614031565b9150613b1582614846565b604082019050919050565b6000613b2d602a83614031565b9150613b3882614895565b604082019050919050565b6000613b50602b83614031565b9150613b5b826148e4565b604082019050919050565b6000613b73603383614031565b9150613b7e82614933565b604082019050919050565b6000613b96601f83614031565b9150613ba182614982565b602082019050919050565b6000613bb9603183614031565b9150613bc4826149ab565b604082019050919050565b6000613bdc602f83614031565b9150613be7826149fa565b604082019050919050565b613bfb816141cb565b82525050565b6000613c0d8284613810565b915081905092915050565b6000602082019050613c2d60008301846137f2565b92915050565b6000602082019050613c486000830184613801565b92915050565b60006020820190508181036000830152613c6781613841565b9050919050565b60006020820190508181036000830152613c8781613864565b9050919050565b60006020820190508181036000830152613ca781613887565b9050919050565b60006020820190508181036000830152613cc7816138aa565b9050919050565b60006020820190508181036000830152613ce7816138cd565b9050919050565b60006020820190508181036000830152613d07816138f0565b9050919050565b60006020820190508181036000830152613d2781613913565b9050919050565b60006020820190508181036000830152613d4781613936565b9050919050565b60006020820190508181036000830152613d6781613959565b9050919050565b60006020820190508181036000830152613d878161397c565b9050919050565b60006020820190508181036000830152613da78161399f565b9050919050565b60006020820190508181036000830152613dc7816139c2565b9050919050565b60006020820190508181036000830152613de7816139e5565b9050919050565b60006020820190508181036000830152613e0781613a08565b9050919050565b60006020820190508181036000830152613e2781613a2b565b9050919050565b60006020820190508181036000830152613e4781613a4e565b9050919050565b60006020820190508181036000830152613e6781613a71565b9050919050565b60006020820190508181036000830152613e8781613a94565b9050919050565b60006020820190508181036000830152613ea781613ab7565b9050919050565b60006020820190508181036000830152613ec781613ada565b9050919050565b60006020820190508181036000830152613ee781613afd565b9050919050565b60006020820190508181036000830152613f0781613b20565b9050919050565b60006020820190508181036000830152613f2781613b43565b9050919050565b60006020820190508181036000830152613f4781613b66565b9050919050565b60006020820190508181036000830152613f6781613b89565b9050919050565b60006020820190508181036000830152613f8781613bac565b9050919050565b60006020820190508181036000830152613fa781613bcf565b9050919050565b6000602082019050613fc36000830184613bf2565b92915050565b6000604082019050613fde6000830185613bf2565b613feb60208301846137f2565b9392505050565b60006040820190506140076000830185613bf2565b6140146020830184613bf2565b9392505050565b600081519050919050565b600081905092915050565b600082825260208201905092915050565b600061404d826141cb565b9150614058836141cb565b9250827fffffffffffffffffffffffffffffffffffffffffffffffffffffffffffffffff0382111561408d5761408c614208565b5b828201905092915050565b60006140a3826141cb565b91506140ae836141cb565b9250826140be576140bd614237565b5b828204905092915050565b60006140d4826141cb565b91506140df836141cb565b9250817fffffffffffffffffffffffffffffffffffffffffffffffffffffffffffffffff048311821515161561411857614117614208565b5b828202905092915050565b600061412e826141cb565b9150614139836141cb565b92508282101561414c5761414b614208565b5b828203905092915050565b6000614162826141ab565b9050919050565b60008115159050919050565b600061418082614157565b9050919050565b600061419282614157565b9050919050565b60006141a482614157565b9050919050565b600073ffffffffffffffffffffffffffffffffffffffff82169050919050565b6000819050919050565b60005b838110156141f35780820151818401526020810190506141d8565b83811115614202576000848401525b50505050565b7f4e487b7100000000000000000000000000000000000000000000000000000000600052601160045260246000fd5b7f4e487b7100000000000000000000000000000000000000000000000000000000600052601260045260246000fd5b7f5468657265206973206e6f7420656e6f7567682066756e647320696e2074686560008201527f20706f6f6c20746f2066756e6420746865206c6f616e00000000000000000000602082015250565b7f506f6f6c2069732066726f7a656e3a2063616e6e6f7420706572666f726d206460008201527f65706f7369742c2077697468647261772c20626f72726f7720616e642072657060208201527f6179206f7065726174696f6e7300000000000000000000000000000000000000604082015250565b7f4f6e6c7920746865206163636f756e747320617574686f72697365642062792060008201527f626f72726f77657273207265676973747279206d617920626f72726f77000000602082015250565b7f596f752061726520747279696e6720746f207265706179206d6f72652074686160008201527f742077617320626f72726f776564206279206120757365720000000000000000602082015250565b7f4f776e61626c653a206e6577206f776e657220697320746865207a65726f206160008201527f6464726573730000000000000000000000000000000000000000000000000000602082015250565b7f54686520706f6f6c207574696c69736174696f6e2063616e6e6f74206265206760008201527f726561746572207468616e203935250000000000000000000000000000000000602082015250565b7f45524332303a2063616e6e6f74207472616e7366657220746f20746865207a6560008201527f726f206164647265737300000000000000000000000000000000000000000000602082015250565b7f45524332303a207472616e7366657220616d6f756e742065786365656473206260008201527f616c616e63650000000000000000000000000000000000000000000000000000602082015250565b7f5472616e7366657248656c7065723a3a736166655472616e736665724554483a60008201527f20455448207472616e73666572206661696c6564000000000000000000000000602082015250565b7f4d757374206265206120636f6e74726163740000000000000000000000000000600082015250565b7f45524332303a206275726e20616d6f756e74206578636565647320757365722060008201527f62616c616e636500000000000000000000000000000000000000000000000000602082015250565b7f4e6f7420656e6f75676820746f6b656e7320616c6c6f77656420746f2074726160008201527f6e7366657220726571756972656420616d6f756e740000000000000000000000602082015250565b7f45524332303a206275726e20616d6f756e74206578636565647320637572726560008201527f6e7420706f6f6c20696e64657865642062616c616e6365000000000000000000602082015250565b7f43757272656e7420616c6c6f77616e636520697320736d616c6c65722074686160008201527f6e20746865207375627472616374656456616c75650000000000000000000000602082015250565b7f496e697469616c697a61626c653a20636f6e747261637420697320616c72656160008201527f647920696e697469616c697a6564000000000000000000000000000000000000602082015250565b7f43616e6e6f7420626f72726f772066726f6d20616e20656d70747920706f6f6c600082015250565b7f426f72726f77657273207265676973747279206973206e6f7420636f6e66696760008201527f7572656400000000000000000000000000000000000000000000000000000000602082015250565b7f547279696e6720746f207265636f766572206d6f726520737572706c7573206660008201527f756e6473207468616e20706f6f6c2062616c616e636500000000000000000000602082015250565b7f45524332303a2063616e6e6f74206d696e7420746f20746865207a65726f206160008201527f6464726573730000000000000000000000000000000000000000000000000000602082015250565b7f4f776e61626c653a2063616c6c6572206973206e6f7420746865206f776e6572600082015250565b7f45524332303a2063616e6e6f74207472616e7366657220746f2074686520706f60008201527f6f6c206164647265737300000000000000000000000000000000000000000000602082015250565b7f416c6c6f77616e6365207370656e6465722063616e6e6f742062652061207a6560008201527f726f206164647265737300000000000000000000000000000000000000000000602082015250565b7f496e697469616c697a61626c653a20636f6e7472616374206973206e6f74206960008201527f6e697469616c697a696e67000000000000000000000000000000000000000000602082015250565b7f54686520626f72726f776572732072656769737472792063616e6e6f7420736560008201527f7420746f2061206e756c6c206164647265737300000000000000000000000000602082015250565b7f5265656e7472616e637947756172643a207265656e7472616e742063616c6c00600082015250565b7f547279696e6720746f207265636f766572206d6f72652066756e64732074686160008201527f6e2063757272656e7420737572706c7573000000000000000000000000000000602082015250565b7f5468657265206973206e6f7420656e6f75676820617661696c61626c6520667560008201527f6e647320746f2077697468647261770000000000000000000000000000000000602082015250565b614a5281614157565b8114614a5d57600080fd5b50565b614a6981614169565b8114614a7457600080fd5b50565b614a8081614175565b8114614a8b57600080fd5b50565b614a9781614187565b8114614aa257600080fd5b50565b614aae81614199565b8114614ab957600080fd5b50565b614ac5816141cb565b8114614ad057600080fd5b5056fea26469706673582212209867eb3fa00af921a115fbbc38c55d1347c847d1e5dde28217d4ec72f810073264736f6c63430008040033",
  "linkReferences": {},
  "deployedLinkReferences": {}
}