{
  "address": "0x7789BFf818C051c48e7EBA3550D72AC9bE2fCAF7",
  "abi": [
    {
      "anonymous": false,
      "inputs": [
        {
          "indexed": true,
          "internalType": "address",
          "name": "borrower",
          "type": "address"
        },
        {
          "indexed": false,
          "internalType": "uint256",
          "name": "amount",
          "type": "uint256"
        },
        {
          "indexed": false,
          "internalType": "uint256",
          "name": "timestamp",
          "type": "uint256"
        }
      ],
      "name": "Borrowed",
      "type": "event"
    },
    {
      "anonymous": false,
      "inputs": [
        {
          "indexed": true,
          "internalType": "address",
          "name": "funder",
          "type": "address"
        },
        {
          "indexed": false,
          "internalType": "uint256",
          "name": "amount",
          "type": "uint256"
        },
        {
          "indexed": false,
          "internalType": "uint256",
          "name": "timestamp",
          "type": "uint256"
        }
      ],
      "name": "Funded",
      "type": "event"
    },
    {
      "anonymous": false,
      "inputs": [
        {
          "indexed": true,
          "internalType": "address",
          "name": "investor",
          "type": "address"
        },
        {
          "indexed": true,
          "internalType": "bytes32",
          "name": "asset",
          "type": "bytes32"
        },
        {
          "indexed": false,
          "internalType": "uint256",
          "name": "amount",
          "type": "uint256"
        },
        {
          "indexed": false,
          "internalType": "uint256",
          "name": "timestamp",
          "type": "uint256"
        }
      ],
      "name": "Invested",
      "type": "event"
    },
    {
      "anonymous": false,
      "inputs": [
        {
          "indexed": true,
          "internalType": "address",
          "name": "liquidator",
          "type": "address"
        },
        {
          "indexed": false,
          "internalType": "uint256",
          "name": "repayAmount",
          "type": "uint256"
        },
        {
          "indexed": false,
          "internalType": "uint256",
          "name": "bonus",
          "type": "uint256"
        },
        {
          "indexed": false,
          "internalType": "uint256",
          "name": "ltv",
          "type": "uint256"
        },
        {
          "indexed": false,
          "internalType": "uint256",
          "name": "timestamp",
          "type": "uint256"
        }
      ],
      "name": "Liquidated",
      "type": "event"
    },
    {
      "anonymous": false,
      "inputs": [
        {
          "indexed": false,
          "internalType": "uint256",
          "name": "debtRepaid",
          "type": "uint256"
        },
        {
          "indexed": false,
          "internalType": "uint256",
          "name": "withdrawalAmount",
          "type": "uint256"
        },
        {
          "indexed": false,
          "internalType": "uint256",
          "name": "timestamp",
          "type": "uint256"
        }
      ],
      "name": "LoanClosed",
      "type": "event"
    },
    {
      "anonymous": false,
      "inputs": [
        {
          "indexed": true,
          "internalType": "address",
          "name": "previousOwner",
          "type": "address"
        },
        {
          "indexed": true,
          "internalType": "address",
          "name": "newOwner",
          "type": "address"
        }
      ],
      "name": "OwnershipTransferred",
      "type": "event"
    },
    {
      "anonymous": false,
      "inputs": [
        {
          "indexed": true,
          "internalType": "address",
          "name": "investor",
          "type": "address"
        },
        {
          "indexed": true,
          "internalType": "bytes32",
          "name": "asset",
          "type": "bytes32"
        },
        {
          "indexed": false,
          "internalType": "uint256",
          "name": "amount",
          "type": "uint256"
        },
        {
          "indexed": false,
          "internalType": "uint256",
          "name": "timestamp",
          "type": "uint256"
        }
      ],
      "name": "Redeemed",
      "type": "event"
    },
    {
      "anonymous": false,
      "inputs": [
        {
          "indexed": true,
          "internalType": "address",
          "name": "borrower",
          "type": "address"
        },
        {
          "indexed": false,
          "internalType": "uint256",
          "name": "amount",
          "type": "uint256"
        },
        {
          "indexed": false,
          "internalType": "uint256",
          "name": "timestamp",
          "type": "uint256"
        }
      ],
      "name": "Repaid",
      "type": "event"
    },
    {
      "anonymous": false,
      "inputs": [
        {
          "indexed": true,
          "internalType": "address",
          "name": "owner",
          "type": "address"
        },
        {
          "indexed": false,
          "internalType": "uint256",
          "name": "amount",
          "type": "uint256"
        },
        {
          "indexed": false,
          "internalType": "uint256",
          "name": "timestamp",
          "type": "uint256"
        }
      ],
      "name": "Withdrawn",
      "type": "event"
    },
    {
      "inputs": [
        {
          "internalType": "uint256",
          "name": "_amount",
          "type": "uint256"
        }
      ],
      "name": "borrow",
      "outputs": [],
      "stateMutability": "nonpayable",
      "type": "function"
    },
    {
      "inputs": [],
      "name": "closeLoan",
      "outputs": [],
      "stateMutability": "payable",
      "type": "function"
    },
    {
      "inputs": [],
      "name": "fund",
      "outputs": [],
      "stateMutability": "payable",
      "type": "function"
    },
    {
      "inputs": [],
      "name": "getAllAssetsBalances",
      "outputs": [
        {
          "internalType": "uint256[]",
          "name": "",
          "type": "uint256[]"
        }
      ],
      "stateMutability": "view",
      "type": "function"
    },
    {
      "inputs": [],
      "name": "getAllAssetsPrices",
      "outputs": [
        {
          "internalType": "uint256[]",
          "name": "",
          "type": "uint256[]"
        }
      ],
      "stateMutability": "view",
      "type": "function"
    },
    {
      "inputs": [
        {
          "internalType": "address",
          "name": "_user",
          "type": "address"
        },
        {
          "internalType": "bytes32",
          "name": "_asset",
          "type": "bytes32"
        }
      ],
      "name": "getBalance",
      "outputs": [
        {
          "internalType": "uint256",
          "name": "",
          "type": "uint256"
        }
      ],
      "stateMutability": "view",
      "type": "function"
    },
    {
      "inputs": [],
      "name": "getDebt",
      "outputs": [
        {
          "internalType": "uint256",
          "name": "",
          "type": "uint256"
        }
      ],
      "stateMutability": "view",
      "type": "function"
    },
    {
      "inputs": [],
      "name": "getExchange",
      "outputs": [
        {
          "internalType": "contract IAssetsExchange",
          "name": "",
          "type": "address"
        }
      ],
      "stateMutability": "view",
      "type": "function"
    },
    {
      "inputs": [],
      "name": "getFullLoanStatus",
      "outputs": [
        {
          "internalType": "uint256[4]",
          "name": "",
          "type": "uint256[4]"
        }
      ],
      "stateMutability": "view",
      "type": "function"
    },
    {
      "inputs": [],
      "name": "getLTV",
      "outputs": [
        {
          "internalType": "uint256",
          "name": "",
          "type": "uint256"
        }
      ],
      "stateMutability": "view",
      "type": "function"
    },
    {
      "inputs": [],
      "name": "getLiquidationBonus",
      "outputs": [
        {
          "internalType": "uint256",
          "name": "",
          "type": "uint256"
        }
      ],
      "stateMutability": "view",
      "type": "function"
    },
    {
      "inputs": [],
      "name": "getMaxBlockTimestampDelay",
      "outputs": [
        {
          "internalType": "uint256",
          "name": "",
          "type": "uint256"
        }
      ],
      "stateMutability": "view",
      "type": "function"
    },
    {
      "inputs": [],
      "name": "getMaxDataTimestampDelay",
      "outputs": [
        {
          "internalType": "uint256",
          "name": "",
          "type": "uint256"
        }
      ],
      "stateMutability": "view",
      "type": "function"
    },
    {
      "inputs": [],
      "name": "getMaxLtv",
      "outputs": [
        {
          "internalType": "uint256",
          "name": "",
          "type": "uint256"
        }
      ],
      "stateMutability": "view",
      "type": "function"
    },
    {
      "inputs": [],
      "name": "getMinSelloutLtv",
      "outputs": [
        {
          "internalType": "uint256",
          "name": "",
          "type": "uint256"
        }
      ],
      "stateMutability": "view",
      "type": "function"
    },
    {
      "inputs": [],
      "name": "getPercentagePrecision",
      "outputs": [
        {
          "internalType": "uint256",
          "name": "",
          "type": "uint256"
        }
      ],
      "stateMutability": "view",
      "type": "function"
    },
    {
      "inputs": [],
      "name": "getPool",
      "outputs": [
        {
          "internalType": "contract Pool",
          "name": "",
          "type": "address"
        }
      ],
      "stateMutability": "view",
      "type": "function"
    },
    {
      "inputs": [],
      "name": "getPriceProvider1",
      "outputs": [
        {
          "internalType": "address",
          "name": "",
          "type": "address"
        }
      ],
      "stateMutability": "view",
      "type": "function"
    },
    {
      "inputs": [],
      "name": "getPriceProvider2",
      "outputs": [
        {
          "internalType": "address",
          "name": "",
          "type": "address"
        }
      ],
      "stateMutability": "view",
      "type": "function"
    },
    {
      "inputs": [],
      "name": "getTotalValue",
      "outputs": [
        {
          "internalType": "uint256",
          "name": "",
          "type": "uint256"
        }
      ],
      "stateMutability": "view",
      "type": "function"
    },
    {
      "inputs": [],
      "name": "getYakAvaxStakingContract",
      "outputs": [
        {
          "internalType": "contract IERC20",
          "name": "",
          "type": "address"
        }
      ],
      "stateMutability": "view",
      "type": "function"
    },
    {
      "inputs": [],
      "name": "getYieldYakRouter",
      "outputs": [
        {
          "internalType": "contract IYieldYakRouter",
          "name": "",
          "type": "address"
        }
      ],
      "stateMutability": "view",
      "type": "function"
    },
    {
      "inputs": [],
      "name": "initialize",
      "outputs": [],
      "stateMutability": "nonpayable",
      "type": "function"
    },
    {
      "inputs": [
        {
          "internalType": "bytes32",
          "name": "_asset",
          "type": "bytes32"
        },
        {
          "internalType": "uint256",
          "name": "_exactERC20AmountOut",
          "type": "uint256"
        },
        {
          "internalType": "uint256",
          "name": "_maxAvaxAmountIn",
          "type": "uint256"
        }
      ],
      "name": "invest",
      "outputs": [],
      "stateMutability": "nonpayable",
      "type": "function"
    },
    {
      "inputs": [
        {
          "internalType": "address",
          "name": "_receivedSigner",
          "type": "address"
        }
      ],
      "name": "isSignerAuthorized",
      "outputs": [
        {
          "internalType": "bool",
          "name": "",
          "type": "bool"
        }
      ],
      "stateMutability": "view",
      "type": "function"
    },
    {
      "inputs": [],
      "name": "isSolvent",
      "outputs": [
        {
          "internalType": "bool",
          "name": "",
          "type": "bool"
        }
      ],
      "stateMutability": "view",
      "type": "function"
    },
    {
      "inputs": [
        {
          "internalType": "uint256",
          "name": "_receivedTimestamp",
          "type": "uint256"
        }
      ],
      "name": "isTimestampValid",
      "outputs": [
        {
          "internalType": "bool",
          "name": "",
          "type": "bool"
        }
      ],
      "stateMutability": "view",
      "type": "function"
    },
    {
      "inputs": [
        {
          "internalType": "uint256",
          "name": "repayAmount",
          "type": "uint256"
        }
      ],
      "name": "liquidateLoan",
      "outputs": [],
      "stateMutability": "payable",
      "type": "function"
    },
    {
      "inputs": [],
      "name": "owner",
      "outputs": [
        {
          "internalType": "address",
          "name": "",
          "type": "address"
        }
      ],
      "stateMutability": "view",
      "type": "function"
    },
    {
      "inputs": [
        {
          "internalType": "bytes32",
          "name": "_asset",
          "type": "bytes32"
        },
        {
          "internalType": "uint256",
          "name": "_exactERC20AmountIn",
          "type": "uint256"
        },
        {
          "internalType": "uint256",
          "name": "_minAvaxAmountOut",
          "type": "uint256"
        }
      ],
      "name": "redeem",
      "outputs": [],
      "stateMutability": "nonpayable",
      "type": "function"
    },
    {
      "inputs": [],
      "name": "renounceOwnership",
      "outputs": [],
      "stateMutability": "nonpayable",
      "type": "function"
    },
    {
      "inputs": [
        {
          "internalType": "uint256",
          "name": "_amount",
          "type": "uint256"
        }
      ],
      "name": "repay",
      "outputs": [],
      "stateMutability": "payable",
      "type": "function"
    },
    {
      "inputs": [
        {
          "internalType": "uint256",
          "name": "amount",
          "type": "uint256"
        }
      ],
      "name": "stakeAVAXYak",
      "outputs": [],
      "stateMutability": "nonpayable",
      "type": "function"
    },
    {
      "inputs": [
        {
          "internalType": "address",
          "name": "newOwner",
          "type": "address"
        }
      ],
      "name": "transferOwnership",
      "outputs": [],
      "stateMutability": "nonpayable",
      "type": "function"
    },
    {
      "inputs": [
        {
          "internalType": "uint256",
          "name": "amount",
          "type": "uint256"
        }
      ],
      "name": "unstakeAVAXYak",
      "outputs": [],
      "stateMutability": "nonpayable",
      "type": "function"
    },
    {
      "inputs": [
        {
          "internalType": "uint256",
          "name": "_amount",
          "type": "uint256"
        }
      ],
      "name": "withdraw",
      "outputs": [],
      "stateMutability": "nonpayable",
      "type": "function"
    },
    {
      "inputs": [
        {
          "internalType": "bytes32",
          "name": "asset",
          "type": "bytes32"
        },
        {
          "internalType": "uint256",
          "name": "amount",
          "type": "uint256"
        }
      ],
      "name": "withdrawAsset",
      "outputs": [],
      "stateMutability": "nonpayable",
      "type": "function"
    },
    {
      "stateMutability": "payable",
      "type": "receive"
    }
  ],
  "transactionHash": "0x96fd63467a15421f4d9b5adcb0aba2365bb11bf9bdde2cfe64fdf89ad8798783",
  "args": [],
  "numDeployments": 5,
  "solcInputHash": "162ca26958c7dfa29193d7fc1f8fa0fb",
  "bytecode": "0x608060405260008060006101000a81548160ff02191690831515021790555034801561002a57600080fd5b50615e64806200003b6000396000f3fe60806040526004361061021e5760003560e01c80636b6c92d911610123578063b60d4288116100ab578063d2b29d701161006f578063d2b29d701461072c578063d44e282b14610755578063f2fde38b14610780578063f31a210a146107a9578063f807cd22146107d457610225565b8063b60d428814610675578063c5ebeaec1461067f578063c79d5ec5146106a8578063caa648b4146106e5578063ccdd9f5d1461071057610225565b80638a027cb3116100f25780638a027cb3146105a05780638da5cb5b146105c9578063a935310f146105f4578063ae1837371461061f578063b5dbd7f01461064a57610225565b80636b6c92d91461050a578063715018a614610535578063750582051461054c5780638129fc1c1461058957610225565b8063371fd8e6116101a65780635118af5a116101755780635118af5a1461043557806352154a261461046057806359aa9e721461048b5780635ce23950146104b65780636aa96162146104e157610225565b8063371fd8e61461039a5780633eb67e0b146103b65780634ed2b8ac146103df5780634fcaf08f1461040a57610225565b806314a6bf0f116101ed57806314a6bf0f146102e65780631e5140f014610311578063232fa7331461033c5780632802fdc8146103465780632e1a7d4d1461037157610225565b8063026b1d5f1461022a57806305d58c211461025557806311c89b101461027e578063132e1d39146102bb57610225565b3661022557005b600080fd5b34801561023657600080fd5b5061023f6107ff565b60405161024c9190614b0f565b60405180910390f35b34801561026157600080fd5b5061027c6004803603810190610277919061425a565b61081b565b005b34801561028a57600080fd5b506102a560048036038101906102a09190614162565b610971565b6040516102b291906149e3565b60405180910390f35b3480156102c757600080fd5b506102d06109ed565b6040516102dd9190614eca565b60405180910390f35b3480156102f257600080fd5b506102fb6109f7565b6040516103089190614eca565b60405180910390f35b34801561031d57600080fd5b50610326610a8e565b6040516103339190614af4565b60405180910390f35b610344610aaa565b005b34801561035257600080fd5b5061035b610ebd565b6040516103689190614962565b60405180910390f35b34801561037d57600080fd5b50610398600480360381019061039391906142e5565b610ed9565b005b6103b460048036038101906103af91906142e5565b6110b1565b005b3480156103c257600080fd5b506103dd60048036038101906103d891906142e5565b61122c565b005b3480156103eb57600080fd5b506103f4611451565b6040516104019190614eca565b60405180910390f35b34801561041657600080fd5b5061041f6114c8565b60405161042c9190614962565b60405180910390f35b34801561044157600080fd5b5061044a6114e4565b6040516104579190614eca565b60405180910390f35b34801561046c57600080fd5b506104756114ed565b6040516104829190614eca565b60405180910390f35b34801561049757600080fd5b506104a06114f7565b6040516104ad9190614eca565b60405180910390f35b3480156104c257600080fd5b506104cb611500565b6040516104d891906149e3565b60405180910390f35b3480156104ed57600080fd5b50610508600480360381019061050391906142e5565b611518565b005b34801561051657600080fd5b5061051f6116ea565b60405161052c91906149c1565b60405180910390f35b34801561054157600080fd5b5061054a6118a5565b005b34801561055857600080fd5b50610573600480360381019061056e91906142e5565b61192d565b60405161058091906149e3565b60405180910390f35b34801561059557600080fd5b5061059e6119a9565b005b3480156105ac57600080fd5b506105c760048036038101906105c29190614296565b611aa0565b005b3480156105d557600080fd5b506105de611d2c565b6040516105eb9190614962565b60405180910390f35b34801561060057600080fd5b50610609611d56565b60405161061691906149c1565b60405180910390f35b34801561062b57600080fd5b50610634611df5565b6040516106419190614ad9565b60405180910390f35b34801561065657600080fd5b5061065f611e11565b60405161066c9190614eca565b60405180910390f35b61067d611e1b565b005b34801561068b57600080fd5b506106a660048036038101906106a191906142e5565b611e9e565b005b3480156106b457600080fd5b506106cf60048036038101906106ca91906141b4565b612026565b6040516106dc9190614eca565b60405180910390f35b3480156106f157600080fd5b506106fa61214d565b6040516107079190614eca565b60405180910390f35b61072a600480360381019061072591906142e5565b61252a565b005b34801561073857600080fd5b50610753600480360381019061074e9190614296565b6127a4565b005b34801561076157600080fd5b5061076a612a2e565b60405161077791906149a6565b60405180910390f35b34801561078c57600080fd5b506107a760048036038101906107a29190614162565b612a86565b005b3480156107b557600080fd5b506107be612b7e565b6040516107cb9190614eca565b60405180910390f35b3480156107e057600080fd5b506107e9612b87565b6040516107f69190614abe565b60405180910390f35b600073431290df15777d46174b83c9e01f87d7b70d3073905090565b610823612ba3565b73ffffffffffffffffffffffffffffffffffffffff16610841611d2c565b73ffffffffffffffffffffffffffffffffffffffff1614610897576040517f08c379a000000000000000000000000000000000000000000000000000000000815260040161088e90614d4a565b60405180910390fd5b600260655414156108dd576040517f08c379a00000000000000000000000000000000000000000000000000000000081526004016108d490614eaa565b60405180910390fd5b600260658190555060006108f083612bab565b905061091d33838373ffffffffffffffffffffffffffffffffffffffff16612c4f9092919063ffffffff16565b50610926611500565b610965576040517f08c379a000000000000000000000000000000000000000000000000000000000815260040161095c90614d6a565b60405180910390fd5b60016065819055505050565b600061097b610ebd565b73ffffffffffffffffffffffffffffffffffffffff168273ffffffffffffffffffffffffffffffffffffffff1614806109e657506109b76114c8565b73ffffffffffffffffffffffffffffffffffffffff168273ffffffffffffffffffffffffffffffffffffffff16145b9050919050565b60006103e8905090565b6000610a016107ff565b73ffffffffffffffffffffffffffffffffffffffff16636011163e306040518263ffffffff1660e01b8152600401610a399190614962565b60206040518083038186803b158015610a5157600080fd5b505afa158015610a65573d6000803e3d6000fd5b505050506040513d601f19601f82011682018060405250810190610a89919061430e565b905090565b60007370952a912fa50e04c608eb49e48afc975eb91f21905090565b610ab2612ba3565b73ffffffffffffffffffffffffffffffffffffffff16610ad0611d2c565b73ffffffffffffffffffffffffffffffffffffffff1614610b26576040517f08c379a0000000000000000000000000000000000000000000000000000000008152600401610b1d90614d4a565b60405180910390fd5b60026065541415610b6c576040517f08c379a0000000000000000000000000000000000000000000000000000000008152600401610b6390614eaa565b60405180910390fd5b60026065819055506000610b7e612b87565b73ffffffffffffffffffffffffffffffffffffffff16632acada4d6040518163ffffffff1660e01b815260040160006040518083038186803b158015610bc357600080fd5b505afa158015610bd7573d6000803e3d6000fd5b505050506040513d6000823e3d601f19601f82011682018060405250810190610c0091906141f0565b905060005b8151811015610d4d576000610c59838381518110610c4c577f4e487b7100000000000000000000000000000000000000000000000000000000600052603260045260246000fd5b6020026020010151612bab565b73ffffffffffffffffffffffffffffffffffffffff166370a08231306040518263ffffffff1660e01b8152600401610c919190614962565b60206040518083038186803b158015610ca957600080fd5b505afa158015610cbd573d6000803e3d6000fd5b505050506040513d601f19601f82011682018060405250810190610ce1919061430e565b90506000811115610d3957610d38838381518110610d28577f4e487b7100000000000000000000000000000000000000000000000000000000600052603260045260246000fd5b6020026020010151826000612d85565b5b508080610d45906154f7565b915050610c05565b506000610d586109f7565b905080471015610d9d576040517f08c379a0000000000000000000000000000000000000000000000000000000008152600401610d9490614caa565b60405180910390fd5b610da6816110b1565b7f4acb957de3799dd3d95bb7da6bcfbca6f5a33812d69ad37816ed87e79b6327d6814742604051610dd993929190614f37565b60405180910390a160004790506000811115610e6957610e18813373ffffffffffffffffffffffffffffffffffffffff16612e6190919063ffffffff16565b3373ffffffffffffffffffffffffffffffffffffffff167f92ccf450a286a957af52509bc1c9939d1a6a481783e142e41e2499f0bb66ebc68242604051610e60929190614f0e565b60405180910390a25b505050610e74611500565b610eb3576040517f08c379a0000000000000000000000000000000000000000000000000000000008152600401610eaa90614d6a565b60405180910390fd5b6001606581905550565b600073981bda8276ae93f567922497153de7a5683708d3905090565b610ee1612ba3565b73ffffffffffffffffffffffffffffffffffffffff16610eff611d2c565b73ffffffffffffffffffffffffffffffffffffffff1614610f55576040517f08c379a0000000000000000000000000000000000000000000000000000000008152600401610f4c90614d4a565b60405180910390fd5b60026065541415610f9b576040517f08c379a0000000000000000000000000000000000000000000000000000000008152600401610f9290614eaa565b60405180910390fd5b600260658190555080471015610fe6576040517f08c379a0000000000000000000000000000000000000000000000000000000008152600401610fdd90614c8a565b60405180910390fd5b61100f813373ffffffffffffffffffffffffffffffffffffffff16612e6190919063ffffffff16565b3373ffffffffffffffffffffffffffffffffffffffff167f92ccf450a286a957af52509bc1c9939d1a6a481783e142e41e2499f0bb66ebc68242604051611057929190614f0e565b60405180910390a2611067611500565b6110a6576040517f08c379a000000000000000000000000000000000000000000000000000000000815260040161109d90614d6a565b60405180910390fd5b600160658190555050565b6110b9611500565b80156110d657506000151560008054906101000a900460ff161515145b1561111b576110e3611d2c565b73ffffffffffffffffffffffffffffffffffffffff163373ffffffffffffffffffffffffffffffffffffffff161461111a57600080fd5b5b61112c816111276109f7565b612f87565b905080471015611171576040517f08c379a000000000000000000000000000000000000000000000000000000000815260040161116890614b4a565b60405180910390fd5b6111796107ff565b73ffffffffffffffffffffffffffffffffffffffff1663402d8883826040518263ffffffff1660e01b81526004016000604051808303818588803b1580156111c057600080fd5b505af11580156111d4573d6000803e3d6000fd5b50505050503373ffffffffffffffffffffffffffffffffffffffff167f1b8cd61ed43bec7c6bdad3a18ffee613f99c853d16c50678d248d879e1b434388242604051611221929190614f0e565b60405180910390a250565b611234612ba3565b73ffffffffffffffffffffffffffffffffffffffff16611252611d2c565b73ffffffffffffffffffffffffffffffffffffffff16146112a8576040517f08c379a000000000000000000000000000000000000000000000000000000000815260040161129f90614d4a565b60405180910390fd5b600260655414156112ee576040517f08c379a00000000000000000000000000000000000000000000000000000000081526004016112e590614eaa565b60405180910390fd5b60026065819055506000611300610a8e565b9050611334818361130f611df5565b73ffffffffffffffffffffffffffffffffffffffff16612fa09092919063ffffffff16565b8073ffffffffffffffffffffffffffffffffffffffff166318994c1f836040518263ffffffff1660e01b815260040161136d9190614eca565b602060405180830381600087803b15801561138757600080fd5b505af115801561139b573d6000803e3d6000fd5b505050506040513d601f19601f820116820180604052508101906113bf9190614231565b6113fe576040517f08c379a00000000000000000000000000000000000000000000000000000000081526004016113f590614d8a565b60405180910390fd5b50611407611500565b611446576040517f08c379a000000000000000000000000000000000000000000000000000000000815260040161143d90614d6a565b60405180910390fd5b600160658190555050565b60008061145c6109f7565b9050600061146861214d565b9050600082141561147e576000925050506114c5565b808210156114b85781816114929190615362565b61149a6109ed565b836114a59190615308565b6114af919061512a565b925050506114c5565b6114c0611e11565b925050505b90565b6000733befdd935b50f172e696a5187dbacfef0d208e48905090565b6000601e905090565b6000610fa0905090565b60006064905090565b600061150a611e11565b611512611451565b10905090565b611520612ba3565b73ffffffffffffffffffffffffffffffffffffffff1661153e611d2c565b73ffffffffffffffffffffffffffffffffffffffff1614611594576040517f08c379a000000000000000000000000000000000000000000000000000000000815260040161158b90614d4a565b60405180910390fd5b600260655414156115da576040517f08c379a00000000000000000000000000000000000000000000000000000000081526004016115d190614eaa565b60405180910390fd5b600260658190555080471015611625576040517f08c379a000000000000000000000000000000000000000000000000000000000815260040161161c90614daa565b60405180910390fd5b61162d610a8e565b73ffffffffffffffffffffffffffffffffffffffff166347f63dfd82836040518363ffffffff1660e01b81526004016116669190614eca565b6000604051808303818588803b15801561167f57600080fd5b505af1158015611693573d6000803e3d6000fd5b50505050506116a0611500565b6116df576040517f08c379a00000000000000000000000000000000000000000000000000000000081526004016116d690614d6a565b60405180910390fd5b600160658190555050565b606060006116f6612b87565b73ffffffffffffffffffffffffffffffffffffffff16632acada4d6040518163ffffffff1660e01b815260040160006040518083038186803b15801561173b57600080fd5b505afa15801561174f573d6000803e3d6000fd5b505050506040513d6000823e3d601f19601f8201168201806040525081019061177891906141f0565b90506000815167ffffffffffffffff8111156117bd577f4e487b7100000000000000000000000000000000000000000000000000000000600052604160045260246000fd5b6040519080825280602002602001820160405280156117eb5781602001602082028036833780820191505090505b50905060005b825181101561189c5761184430848381518110611837577f4e487b7100000000000000000000000000000000000000000000000000000000600052603260045260246000fd5b6020026020010151612026565b82828151811061187d577f4e487b7100000000000000000000000000000000000000000000000000000000600052603260045260246000fd5b6020026020010181815250508080611894906154f7565b9150506117f1565b50809250505090565b6118ad612ba3565b73ffffffffffffffffffffffffffffffffffffffff166118cb611d2c565b73ffffffffffffffffffffffffffffffffffffffff1614611921576040517f08c379a000000000000000000000000000000000000000000000000000000000815260040161191890614d4a565b60405180910390fd5b61192b60006130d6565b565b6000816119386114e4565b4261194391906150d4565b11611983576040517f08c379a000000000000000000000000000000000000000000000000000000000815260040161197a90614e4a565b60405180910390fd5b814210806119a25750611994612b7e565b82426119a09190615362565b105b9050919050565b600060029054906101000a900460ff166119d357600060019054906101000a900460ff16156119dc565b6119db61319c565b5b611a1b576040517f08c379a0000000000000000000000000000000000000000000000000000000008152600401611a1290614cea565b60405180910390fd5b60008060029054906101000a900460ff161590508015611a6c576001600060026101000a81548160ff0219169083151502179055506001600060016101000a81548160ff0219169083151502179055505b611a746131ad565b611a7c613206565b8015611a9d5760008060026101000a81548160ff0219169083151502179055505b50565b611aa8612ba3565b73ffffffffffffffffffffffffffffffffffffffff16611ac6611d2c565b73ffffffffffffffffffffffffffffffffffffffff1614611b1c576040517f08c379a0000000000000000000000000000000000000000000000000000000008152600401611b1390614d4a565b60405180910390fd5b60026065541415611b62576040517f08c379a0000000000000000000000000000000000000000000000000000000008152600401611b5990614eaa565b60405180910390fd5b600260658190555080471015611bad576040517f08c379a0000000000000000000000000000000000000000000000000000000008152600401611ba490614c8a565b60405180910390fd5b6000611bb7612b87565b73ffffffffffffffffffffffffffffffffffffffff16635d8874e98386866040518463ffffffff1660e01b8152600401611bf2929190614a19565b6020604051808303818588803b158015611c0b57600080fd5b505af1158015611c1f573d6000803e3d6000fd5b50505050506040513d601f19601f82011682018060405250810190611c449190614231565b905080611c86576040517f08c379a0000000000000000000000000000000000000000000000000000000008152600401611c7d90614e8a565b60405180910390fd5b833373ffffffffffffffffffffffffffffffffffffffff167f8c4f7b2f9ad7fde21c3ebf69d91938c2731761edd5820e45c17ea61d9c2ab90a8542604051611ccf929190614f0e565b60405180910390a350611ce0611500565b611d1f576040517f08c379a0000000000000000000000000000000000000000000000000000000008152600401611d1690614d6a565b60405180910390fd5b6001606581905550505050565b6000603360009054906101000a900473ffffffffffffffffffffffffffffffffffffffff16905090565b60606000611d62612b87565b73ffffffffffffffffffffffffffffffffffffffff16632acada4d6040518163ffffffff1660e01b815260040160006040518083038186803b158015611da757600080fd5b505afa158015611dbb573d6000803e3d6000fd5b505050506040513d6000823e3d601f19601f82011682018060405250810190611de491906141f0565b9050611def8161325f565b91505090565b600073aac0f2d0630d1d09ab2b5a400412a4840b866d95905090565b6000611388905090565b6000611e256109f7565b90506000611e3161214d565b905081811115611e92576753444835ec5800008282611e509190615362565b1115611e91576040517f08c379a0000000000000000000000000000000000000000000000000000000008152600401611e8890614e0a565b60405180910390fd5b5b611e9a6133c7565b5050565b611ea6612ba3565b73ffffffffffffffffffffffffffffffffffffffff16611ec4611d2c565b73ffffffffffffffffffffffffffffffffffffffff1614611f1a576040517f08c379a0000000000000000000000000000000000000000000000000000000008152600401611f1190614d4a565b60405180910390fd5b611f226107ff565b73ffffffffffffffffffffffffffffffffffffffff1663c5ebeaec826040518263ffffffff1660e01b8152600401611f5a9190614eca565b600060405180830381600087803b158015611f7457600080fd5b505af1158015611f88573d6000803e3d6000fd5b505050503373ffffffffffffffffffffffffffffffffffffffff167feae9cfbc77fdd40ca899f36b608256063b2bc9d8178b0220f7ad513e178d67308242604051611fd4929190614f0e565b60405180910390a2611fe4611500565b612023576040517f08c379a000000000000000000000000000000000000000000000000000000000815260040161201a90614d6a565b60405180910390fd5b50565b600080612031612b87565b73ffffffffffffffffffffffffffffffffffffffff166376d02895846040518263ffffffff1660e01b815260040161206991906149fe565b60206040518083038186803b15801561208157600080fd5b505afa158015612095573d6000803e3d6000fd5b505050506040513d601f19601f820116820180604052508101906120b9919061418b565b90508073ffffffffffffffffffffffffffffffffffffffff166370a08231856040518263ffffffff1660e01b81526004016120f49190614962565b60206040518083038186803b15801561210c57600080fd5b505afa158015612120573d6000803e3d6000fd5b505050506040513d601f19601f82011682018060405250810190612144919061430e565b91505092915050565b600080479050600061215d612b87565b73ffffffffffffffffffffffffffffffffffffffff16632acada4d6040518163ffffffff1660e01b815260040160006040518083038186803b1580156121a257600080fd5b505afa1580156121b6573d6000803e3d6000fd5b505050506040513d6000823e3d601f19601f820116820180604052508101906121df91906141f0565b905060006121ec8261325f565b905060008160008151811061222a577f4e487b7100000000000000000000000000000000000000000000000000000000600052603260045260246000fd5b602002602001015190506000811415612278576040517f08c379a000000000000000000000000000000000000000000000000000000000815260040161226f90614c0a565b60405180910390fd5b6000600190505b825181101561248d5760008382815181106122c3577f4e487b7100000000000000000000000000000000000000000000000000000000600052603260045260246000fd5b6020026020010151141561230c576040517f08c379a000000000000000000000000000000000000000000000000000000000815260040161230390614cca565b60405180910390fd5b6000848281518110612347577f4e487b7100000000000000000000000000000000000000000000000000000000600052603260045260246000fd5b60200260200101519050600061235c82612bab565b9050600061236a3084612026565b90508173ffffffffffffffffffffffffffffffffffffffff1663313ce5676040518163ffffffff1660e01b815260040160206040518083038186803b1580156123b257600080fd5b505afa1580156123c6573d6000803e3d6000fd5b505050506040513d601f19601f820116820180604052508101906123ea9190614337565b600a6123f691906151ae565b856124019190615308565b81670de0b6b3a7640000888781518110612444577f4e487b7100000000000000000000000000000000000000000000000000000000600052603260045260246000fd5b60200260200101516124569190615308565b6124609190615308565b61246a919061512a565b8861247591906150d4565b97505050508080612485906154f7565b91505061227f565b50612496610a8e565b73ffffffffffffffffffffffffffffffffffffffff16633999c4886040518163ffffffff1660e01b815260040160206040518083038186803b1580156124db57600080fd5b505afa1580156124ef573d6000803e3d6000fd5b505050506040513d601f19601f82011682018060405250810190612513919061430e565b8461251e91906150d4565b93508394505050505090565b60026065541415612570576040517f08c379a000000000000000000000000000000000000000000000000000000000815260040161256790614eaa565b60405180910390fd5b6002606581905550612580611500565b156125c0576040517f08c379a00000000000000000000000000000000000000000000000000000000081526004016125b790614c4a565b60405180910390fd5b60016000806101000a81548160ff02191690831515021790555060006125e46109f7565b9050808211156125f2578091505b60006125fc6109ed565b6126046114f7565b8461260f9190615308565b612619919061512a565b90506000818461262991906150d4565b905061263481613419565b61263d84613548565b6126468261355d565b3373ffffffffffffffffffffffffffffffffffffffff167f7abe212d4944ae75cf0a0477af92aa0db98c15aaf21d06c37c97c641427b8eb38584612688611451565b426040516126999493929190614f6e565b60405180910390a250505060006126ae611451565b90506126b8611d2c565b73ffffffffffffffffffffffffffffffffffffffff163373ffffffffffffffffffffffffffffffffffffffff1614612735576126f26114ed565b811015612734576040517f08c379a000000000000000000000000000000000000000000000000000000000815260040161272b90614d2a565b60405180910390fd5b5b61273d611e11565b811061277e576040517f08c379a000000000000000000000000000000000000000000000000000000000815260040161277590614bea565b60405180910390fd5b60008060006101000a81548160ff02191690831515021790555050600160658190555050565b600260655414156127ea576040517f08c379a00000000000000000000000000000000000000000000000000000000081526004016127e190614eaa565b60405180910390fd5b60026065819055506127fa612ba3565b73ffffffffffffffffffffffffffffffffffffffff16612818611d2c565b73ffffffffffffffffffffffffffffffffffffffff161461286e576040517f08c379a000000000000000000000000000000000000000000000000000000000815260040161286590614d4a565b60405180910390fd5b600061287984612bab565b90506128ad612886612b87565b848373ffffffffffffffffffffffffffffffffffffffff16612c4f9092919063ffffffff16565b60006128b7612b87565b73ffffffffffffffffffffffffffffffffffffffff166348eedd6b8686866040518463ffffffff1660e01b81526004016128f393929190614a42565b602060405180830381600087803b15801561290d57600080fd5b505af1158015612921573d6000803e3d6000fd5b505050506040513d601f19601f820116820180604052508101906129459190614231565b905080612987576040517f08c379a000000000000000000000000000000000000000000000000000000000815260040161297e90614dea565b60405180910390fd5b843373ffffffffffffffffffffffffffffffffffffffff167fc95bd7ebbed9b9c3e9477753bcb60d02b328f1e5bce8b1a25986d6c73991c18286426040516129d0929190614f0e565b60405180910390a350506129e2611500565b612a21576040517f08c379a0000000000000000000000000000000000000000000000000000000008152600401612a1890614d6a565b60405180910390fd5b6001606581905550505050565b612a36614002565b6040518060800160405280612a4961214d565b8152602001612a566109f7565b8152602001612a63611451565b8152602001612a70611500565b612a7b576000612a7e565b60015b815250905090565b612a8e612ba3565b73ffffffffffffffffffffffffffffffffffffffff16612aac611d2c565b73ffffffffffffffffffffffffffffffffffffffff1614612b02576040517f08c379a0000000000000000000000000000000000000000000000000000000008152600401612af990614d4a565b60405180910390fd5b600073ffffffffffffffffffffffffffffffffffffffff168173ffffffffffffffffffffffffffffffffffffffff161415612b72576040517f08c379a0000000000000000000000000000000000000000000000000000000008152600401612b6990614baa565b60405180910390fd5b612b7b816130d6565b50565b600060b4905090565b6000730278438423f433e277f65d14c0e002b8828702ba905090565b600033905090565b600080612bb6612b87565b73ffffffffffffffffffffffffffffffffffffffff166376d02895846040518263ffffffff1660e01b8152600401612bee91906149fe565b60206040518083038186803b158015612c0657600080fd5b505afa158015612c1a573d6000803e3d6000fd5b505050506040513d601f19601f82011682018060405250810190612c3e919061418b565b905060008190508092505050919050565b6000808473ffffffffffffffffffffffffffffffffffffffff1663a9059cbb8585604051602401612c8192919061497d565b6040516020818303038152906040529060e01b6020820180517bffffffffffffffffffffffffffffffffffffffffffffffffffffffff8381831617835250505050604051612ccf9190614925565b6000604051808303816000865af19150503d8060008114612d0c576040519150601f19603f3d011682016040523d82523d6000602084013e612d11565b606091505b5091509150818015612d3f5750600081511480612d3e575080806020019051810190612d3d9190614231565b5b5b612d7e576040517f08c379a0000000000000000000000000000000000000000000000000000000008152600401612d7590614e6a565b60405180910390fd5b5050505050565b6000612d9084612bab565b9050612dc4612d9d612b87565b848373ffffffffffffffffffffffffffffffffffffffff16612c4f9092919063ffffffff16565b612dcc612b87565b73ffffffffffffffffffffffffffffffffffffffff166348eedd6b8585856040518463ffffffff1660e01b8152600401612e0893929190614a42565b602060405180830381600087803b158015612e2257600080fd5b505af1158015612e36573d6000803e3d6000fd5b505050506040513d601f19601f82011682018060405250810190612e5a9190614231565b5050505050565b60008273ffffffffffffffffffffffffffffffffffffffff1682600067ffffffffffffffff811115612ebc577f4e487b7100000000000000000000000000000000000000000000000000000000600052604160045260246000fd5b6040519080825280601f01601f191660200182016040528015612eee5781602001600182028036833780820191505090505b50604051612efc9190614925565b60006040518083038185875af1925050503d8060008114612f39576040519150601f19603f3d011682016040523d82523d6000602084013e612f3e565b606091505b5050905080612f82576040517f08c379a0000000000000000000000000000000000000000000000000000000008152600401612f7990614c2a565b60405180910390fd5b505050565b6000818310612f965781612f98565b825b905092915050565b6000808473ffffffffffffffffffffffffffffffffffffffff1663095ea7b38585604051602401612fd292919061497d565b6040516020818303038152906040529060e01b6020820180517bffffffffffffffffffffffffffffffffffffffffffffffffffffffff83818316178352505050506040516130209190614925565b6000604051808303816000865af19150503d806000811461305d576040519150601f19603f3d011682016040523d82523d6000602084013e613062565b606091505b5091509150818015613090575060008151148061308f57508080602001905181019061308e9190614231565b5b5b6130cf576040517f08c379a00000000000000000000000000000000000000000000000000000000081526004016130c690614dca565b60405180910390fd5b5050505050565b6000603360009054906101000a900473ffffffffffffffffffffffffffffffffffffffff16905081603360006101000a81548173ffffffffffffffffffffffffffffffffffffffff021916908373ffffffffffffffffffffffffffffffffffffffff1602179055508173ffffffffffffffffffffffffffffffffffffffff168173ffffffffffffffffffffffffffffffffffffffff167f8be0079c531659141344cd1fd0a4f28419497f9722a3daafe3b4186f6b6457e060405160405180910390a35050565b60006131a730613592565b15905090565b600060029054906101000a900460ff166131fc576040517f08c379a00000000000000000000000000000000000000000000000000000000081526004016131f390614e2a565b60405180910390fd5b6132046135b5565b565b600060029054906101000a900460ff16613255576040517f08c379a000000000000000000000000000000000000000000000000000000000815260040161324c90614e2a565b60405180910390fd5b61325d613616565b565b60606000606136033590506000602060408360ff1661327e91906152cc565b613288919061509c565b905060606040519050818152816042830136036020830137602081016040526000818051906020012090506000816040516020016132c6919061493c565b60405160208183030381529060405280519060200120905060606040519050604181526041803603602083013760208101604052600061330f828461366f90919063ffffffff16565b905061331a81610971565b613359576040517f08c379a000000000000000000000000000000000000000000000000000000000815260040161335090614bca565b60405180910390fd5b60006062360335905061336b8161192d565b6133aa576040517f08c379a00000000000000000000000000000000000000000000000000000000081526004016133a190614b8a565b60405180910390fd5b6133b88a8960ff1689613696565b98505050505050505050919050565b3373ffffffffffffffffffffffffffffffffffffffff167fcd909ec339185c4598a4096e174308fbdf136d117f230960f873a2f2e81f63af344260405161340f929190614f0e565b60405180910390a2565b60006134248261373c565b90508147106134335750613545565b600061343d612b87565b73ffffffffffffffffffffffffffffffffffffffff16632acada4d6040518163ffffffff1660e01b815260040160006040518083038186803b15801561348257600080fd5b505afa158015613496573d6000803e3d6000fd5b505050506040513d6000823e3d601f19601f820116820180604052508101906134bf91906141f0565b905060005b8151811015613541578347106134d957613541565b61352e828281518110613515577f4e487b7100000000000000000000000000000000000000000000000000000000600052603260045260246000fd5b602002602001015147866135299190615362565b61395a565b8080613539906154f7565b9150506134c4565b5050505b50565b61355a6135554783612f87565b6110b1565b50565b61358f61356a8247612f87565b3373ffffffffffffffffffffffffffffffffffffffff16612e6190919063ffffffff16565b50565b6000808273ffffffffffffffffffffffffffffffffffffffff163b119050919050565b600060029054906101000a900460ff16613604576040517f08c379a00000000000000000000000000000000000000000000000000000000081526004016135fb90614e2a565b60405180910390fd5b61361461360f612ba3565b6130d6565b565b600060029054906101000a900460ff16613665576040517f08c379a000000000000000000000000000000000000000000000000000000000815260040161365c90614e2a565b60405180910390fd5b6001606581905550565b600080600061367e8585613ac2565b9150915061368b81613b45565b819250505092915050565b6060806000806000806042870136035995508951865260208a51026020870101604052600094505b8885101561372c57604085028101359150600093505b895184101561372157816020850260208c01015114156137095760206040860282010135602085026020880101526001830192505b8951831415613716578894505b6001840193506136d4565b6001850194506136be565b5084955050505050509392505050565b600080613747610a8e565b90506000613753611df5565b73ffffffffffffffffffffffffffffffffffffffff16828560405160240161377c92919061497d565b6040516020818303038152906040527f095ea7b3000000000000000000000000000000000000000000000000000000007bffffffffffffffffffffffffffffffffffffffffffffffffffffffff19166020820180517bffffffffffffffffffffffffffffffffffffffffffffffffffffffff83818316178352505050506040516138069190614925565b6000604051808303816000865af19150503d8060008114613843576040519150601f19603f3d011682016040523d82523d6000602084013e613848565b606091505b5050905060008273ffffffffffffffffffffffffffffffffffffffff16856040516024016138769190614eca565b6040516020818303038152906040527fe15e2c44000000000000000000000000000000000000000000000000000000007bffffffffffffffffffffffffffffffffffffffffffffffffffffffff19166020820180517bffffffffffffffffffffffffffffffffffffffffffffffffffffffff83818316178352505050506040516139009190614925565b6000604051808303816000865af19150503d806000811461393d576040519150601f19603f3d011682016040523d82523d6000602084013e613942565b606091505b505090508180156139505750805b9350505050919050565b600061396583612bab565b905060008173ffffffffffffffffffffffffffffffffffffffff166370a08231306040518263ffffffff1660e01b81526004016139a29190614962565b60206040518083038186803b1580156139ba57600080fd5b505afa1580156139ce573d6000803e3d6000fd5b505050506040513d601f19601f820116820180604052508101906139f2919061430e565b90506000811115613abc576000613a07612b87565b73ffffffffffffffffffffffffffffffffffffffff16639ac34dd385856040518363ffffffff1660e01b8152600401613a41929190614ee5565b602060405180830381600087803b158015613a5b57600080fd5b505af1158015613a6f573d6000803e3d6000fd5b505050506040513d601f19601f82011682018060405250810190613a93919061430e565b905080821015613aae57613aa985836000612d85565b613aba565b613ab9858286612d85565b5b505b50505050565b600080604183511415613b045760008060006020860151925060408601519150606086015160001a9050613af887828585613e96565b94509450505050613b3e565b604083511415613b35576000806020850151915060408501519050613b2a868383613fa3565b935093505050613b3e565b60006002915091505b9250929050565b60006004811115613b7f577f4e487b7100000000000000000000000000000000000000000000000000000000600052602160045260246000fd5b816004811115613bb8577f4e487b7100000000000000000000000000000000000000000000000000000000600052602160045260246000fd5b1415613bc357613e93565b60016004811115613bfd577f4e487b7100000000000000000000000000000000000000000000000000000000600052602160045260246000fd5b816004811115613c36577f4e487b7100000000000000000000000000000000000000000000000000000000600052602160045260246000fd5b1415613c77576040517f08c379a0000000000000000000000000000000000000000000000000000000008152600401613c6e90614b2a565b60405180910390fd5b60026004811115613cb1577f4e487b7100000000000000000000000000000000000000000000000000000000600052602160045260246000fd5b816004811115613cea577f4e487b7100000000000000000000000000000000000000000000000000000000600052602160045260246000fd5b1415613d2b576040517f08c379a0000000000000000000000000000000000000000000000000000000008152600401613d2290614b6a565b60405180910390fd5b60036004811115613d65577f4e487b7100000000000000000000000000000000000000000000000000000000600052602160045260246000fd5b816004811115613d9e577f4e487b7100000000000000000000000000000000000000000000000000000000600052602160045260246000fd5b1415613ddf576040517f08c379a0000000000000000000000000000000000000000000000000000000008152600401613dd690614c6a565b60405180910390fd5b600480811115613e18577f4e487b7100000000000000000000000000000000000000000000000000000000600052602160045260246000fd5b816004811115613e51577f4e487b7100000000000000000000000000000000000000000000000000000000600052602160045260246000fd5b1415613e92576040517f08c379a0000000000000000000000000000000000000000000000000000000008152600401613e8990614d0a565b60405180910390fd5b5b50565b6000807f7fffffffffffffffffffffffffffffff5d576e7357a4501ddfe92f46681b20a08360001c1115613ed1576000600391509150613f9a565b601b8560ff1614158015613ee95750601c8560ff1614155b15613efb576000600491509150613f9a565b600060018787878760405160008152602001604052604051613f209493929190614a79565b6020604051602081039080840390855afa158015613f42573d6000803e3d6000fd5b505050602060405103519050600073ffffffffffffffffffffffffffffffffffffffff168173ffffffffffffffffffffffffffffffffffffffff161415613f9157600060019250925050613f9a565b80600092509250505b94509492505050565b60008060007f7fffffffffffffffffffffffffffffffffffffffffffffffffffffffffffffff60001b841690506000601b60ff8660001c901c613fe691906150d4565b9050613ff487828885613e96565b935093505050935093915050565b6040518060800160405280600490602082028036833780820191505090505090565b600061403761403284614fd8565b614fb3565b9050808382526020820190508285602086028201111561405657600080fd5b60005b85811015614086578161406c888261410e565b845260208401935060208301925050600181019050614059565b5050509392505050565b60008135905061409f81615dbb565b92915050565b6000815190506140b481615dbb565b92915050565b600082601f8301126140cb57600080fd5b81516140db848260208601614024565b91505092915050565b6000815190506140f381615dd2565b92915050565b60008135905061410881615de9565b92915050565b60008151905061411d81615de9565b92915050565b60008135905061413281615e00565b92915050565b60008151905061414781615e00565b92915050565b60008151905061415c81615e17565b92915050565b60006020828403121561417457600080fd5b600061418284828501614090565b91505092915050565b60006020828403121561419d57600080fd5b60006141ab848285016140a5565b91505092915050565b600080604083850312156141c757600080fd5b60006141d585828601614090565b92505060206141e6858286016140f9565b9150509250929050565b60006020828403121561420257600080fd5b600082015167ffffffffffffffff81111561421c57600080fd5b614228848285016140ba565b91505092915050565b60006020828403121561424357600080fd5b6000614251848285016140e4565b91505092915050565b6000806040838503121561426d57600080fd5b600061427b858286016140f9565b925050602061428c85828601614123565b9150509250929050565b6000806000606084860312156142ab57600080fd5b60006142b9868287016140f9565b93505060206142ca86828701614123565b92505060406142db86828701614123565b9150509250925092565b6000602082840312156142f757600080fd5b600061430584828501614123565b91505092915050565b60006020828403121561432057600080fd5b600061432e84828501614138565b91505092915050565b60006020828403121561434957600080fd5b60006143578482850161414d565b91505092915050565b600061436c83836148f8565b60208301905092915050565b61438181615396565b82525050565b6143908161501e565b61439a8184615059565b92506143a582615004565b8060005b838110156143d65781516143bd8782614360565b96506143c88361503f565b9250506001810190506143a9565b505050505050565b60006143e982615029565b6143f38185615064565b93506143fe8361500e565b8060005b8381101561442f5781516144168882614360565b97506144218361504c565b925050600181019050614402565b5085935050505092915050565b614445816153a8565b82525050565b614454816153b4565b82525050565b61446b614466826153b4565b615540565b82525050565b600061447c82615034565b6144868185615075565b9350614496818560208601615493565b80840191505092915050565b6144ab81615403565b82525050565b6144ba81615427565b82525050565b6144c98161544b565b82525050565b6144d88161546f565b82525050565b60006144eb601883615080565b91506144f6826155f5565b602082019050919050565b600061450e602283615080565b91506145198261561e565b604082019050919050565b6000614531601f83615080565b915061453c8261566d565b602082019050919050565b6000614554601c83615091565b915061455f82615696565b601c82019050919050565b6000614577601983615080565b9150614582826156bf565b602082019050919050565b600061459a602683615080565b91506145a5826156e8565b604082019050919050565b60006145bd601583615080565b91506145c882615737565b602082019050919050565b60006145e0604c83615080565b91506145eb82615760565b606082019050919050565b6000614603602783615080565b915061460e826157d5565b604082019050919050565b6000614626603483615080565b915061463182615824565b604082019050919050565b6000614649602083615080565b915061465482615873565b602082019050919050565b600061466c602283615080565b91506146778261589c565b604082019050919050565b600061468f601283615080565b915061469a826158eb565b602082019050919050565b60006146b2601583615080565b91506146bd82615914565b602082019050919050565b60006146d5602883615080565b91506146e08261593d565b604082019050919050565b60006146f8602e83615080565b91506147038261598c565b604082019050919050565b600061471b602283615080565b9150614726826159db565b604082019050919050565b600061473e609283615080565b915061474982615a2a565b60a082019050919050565b6000614761602083615080565b915061476c82615aeb565b602082019050919050565b6000614784603383615080565b915061478f82615b14565b604082019050919050565b60006147a7601083615080565b91506147b282615b63565b602082019050919050565b60006147ca601983615080565b91506147d582615b8c565b602082019050919050565b60006147ed602b83615080565b91506147f882615bb5565b604082019050919050565b6000614810601183615080565b915061481b82615c04565b602082019050919050565b6000614833603a83615080565b915061483e82615c2d565b604082019050919050565b6000614856602b83615080565b915061486182615c7c565b604082019050919050565b6000614879602a83615080565b915061488482615ccb565b604082019050919050565b600061489c602d83615080565b91506148a782615d1a565b604082019050919050565b60006148bf601183615080565b91506148ca82615d69565b602082019050919050565b60006148e2601f83615080565b91506148ed82615d92565b602082019050919050565b614901816153ec565b82525050565b614910816153ec565b82525050565b61491f816153f6565b82525050565b60006149318284614471565b915081905092915050565b600061494782614547565b9150614953828461445a565b60208201915081905092915050565b60006020820190506149776000830184614378565b92915050565b60006040820190506149926000830185614378565b61499f6020830184614907565b9392505050565b60006080820190506149bb6000830184614387565b92915050565b600060208201905081810360008301526149db81846143de565b905092915050565b60006020820190506149f8600083018461443c565b92915050565b6000602082019050614a13600083018461444b565b92915050565b6000604082019050614a2e600083018561444b565b614a3b6020830184614907565b9392505050565b6000606082019050614a57600083018661444b565b614a646020830185614907565b614a716040830184614907565b949350505050565b6000608082019050614a8e600083018761444b565b614a9b6020830186614916565b614aa8604083018561444b565b614ab5606083018461444b565b95945050505050565b6000602082019050614ad360008301846144a2565b92915050565b6000602082019050614aee60008301846144b1565b92915050565b6000602082019050614b0960008301846144c0565b92915050565b6000602082019050614b2460008301846144cf565b92915050565b60006020820190508181036000830152614b43816144de565b9050919050565b60006020820190508181036000830152614b6381614501565b9050919050565b60006020820190508181036000830152614b8381614524565b9050919050565b60006020820190508181036000830152614ba38161456a565b9050919050565b60006020820190508181036000830152614bc38161458d565b9050919050565b60006020820190508181036000830152614be3816145b0565b9050919050565b60006020820190508181036000830152614c03816145d3565b9050919050565b60006020820190508181036000830152614c23816145f6565b9050919050565b60006020820190508181036000830152614c4381614619565b9050919050565b60006020820190508181036000830152614c638161463c565b9050919050565b60006020820190508181036000830152614c838161465f565b9050919050565b60006020820190508181036000830152614ca381614682565b9050919050565b60006020820190508181036000830152614cc3816146a5565b9050919050565b60006020820190508181036000830152614ce3816146c8565b9050919050565b60006020820190508181036000830152614d03816146eb565b9050919050565b60006020820190508181036000830152614d238161470e565b9050919050565b60006020820190508181036000830152614d4381614731565b9050919050565b60006020820190508181036000830152614d6381614754565b9050919050565b60006020820190508181036000830152614d8381614777565b9050919050565b60006020820190508181036000830152614da38161479a565b9050919050565b60006020820190508181036000830152614dc3816147bd565b9050919050565b60006020820190508181036000830152614de3816147e0565b9050919050565b60006020820190508181036000830152614e0381614803565b9050919050565b60006020820190508181036000830152614e2381614826565b9050919050565b60006020820190508181036000830152614e4381614849565b9050919050565b60006020820190508181036000830152614e638161486c565b9050919050565b60006020820190508181036000830152614e838161488f565b9050919050565b60006020820190508181036000830152614ea3816148b2565b9050919050565b60006020820190508181036000830152614ec3816148d5565b9050919050565b6000602082019050614edf6000830184614907565b92915050565b6000604082019050614efa6000830185614907565b614f076020830184614378565b9392505050565b6000604082019050614f236000830185614907565b614f306020830184614907565b9392505050565b6000606082019050614f4c6000830186614907565b614f596020830185614907565b614f666040830184614907565b949350505050565b6000608082019050614f836000830187614907565b614f906020830186614907565b614f9d6040830185614907565b614faa6060830184614907565b95945050505050565b6000614fbd614fce565b9050614fc982826154c6565b919050565b6000604051905090565b600067ffffffffffffffff821115614ff357614ff26155a8565b5b602082029050602081019050919050565b6000819050919050565b6000819050602082019050919050565b600060049050919050565b600081519050919050565b600081519050919050565b6000602082019050919050565b6000602082019050919050565b600081905092915050565b600082825260208201905092915050565b600081905092915050565b600082825260208201905092915050565b600081905092915050565b60006150a7826153be565b91506150b2836153be565b92508261ffff038211156150c9576150c861554a565b5b828201905092915050565b60006150df826153ec565b91506150ea836153ec565b9250827fffffffffffffffffffffffffffffffffffffffffffffffffffffffffffffffff0382111561511f5761511e61554a565b5b828201905092915050565b6000615135826153ec565b9150615140836153ec565b9250826151505761514f615579565b5b828204905092915050565b6000808291508390505b60018511156151a5578086048111156151815761518061554a565b5b60018516156151905780820291505b808102905061519e856155e8565b9450615165565b94509492505050565b60006151b9826153ec565b91506151c4836153f6565b92506151f17fffffffffffffffffffffffffffffffffffffffffffffffffffffffffffffffff84846151f9565b905092915050565b60008261520957600190506152c5565b8161521757600090506152c5565b816001811461522d576002811461523757615266565b60019150506152c5565b60ff8411156152495761524861554a565b5b8360020a9150848211156152605761525f61554a565b5b506152c5565b5060208310610133831016604e8410600b841016171561529b5782820a9050838111156152965761529561554a565b5b6152c5565b6152a8848484600161515b565b925090508184048111156152bf576152be61554a565b5b81810290505b9392505050565b60006152d7826153be565b91506152e2836153be565b92508161ffff04831182151516156152fd576152fc61554a565b5b828202905092915050565b6000615313826153ec565b915061531e836153ec565b9250817fffffffffffffffffffffffffffffffffffffffffffffffffffffffffffffffff04831182151516156153575761535661554a565b5b828202905092915050565b600061536d826153ec565b9150615378836153ec565b92508282101561538b5761538a61554a565b5b828203905092915050565b60006153a1826153cc565b9050919050565b60008115159050919050565b6000819050919050565b600061ffff82169050919050565b600073ffffffffffffffffffffffffffffffffffffffff82169050919050565b6000819050919050565b600060ff82169050919050565b600061540e82615415565b9050919050565b6000615420826153cc565b9050919050565b600061543282615439565b9050919050565b6000615444826153cc565b9050919050565b60006154568261545d565b9050919050565b6000615468826153cc565b9050919050565b600061547a82615481565b9050919050565b600061548c826153cc565b9050919050565b60005b838110156154b1578082015181840152602081019050615496565b838111156154c0576000848401525b50505050565b6154cf826155d7565b810181811067ffffffffffffffff821117156154ee576154ed6155a8565b5b80604052505050565b6000615502826153ec565b91507fffffffffffffffffffffffffffffffffffffffffffffffffffffffffffffffff8214156155355761553461554a565b5b600182019050919050565b6000819050919050565b7f4e487b7100000000000000000000000000000000000000000000000000000000600052601160045260246000fd5b7f4e487b7100000000000000000000000000000000000000000000000000000000600052601260045260246000fd5b7f4e487b7100000000000000000000000000000000000000000000000000000000600052604160045260246000fd5b6000601f19601f8301169050919050565b60008160011c9050919050565b7f45434453413a20696e76616c6964207369676e61747572650000000000000000600082015250565b7f4e6f7420656e6f7567682066756e647320746f20726570617920746865206c6f60008201527f616e000000000000000000000000000000000000000000000000000000000000602082015250565b7f45434453413a20696e76616c6964207369676e6174757265206c656e67746800600082015250565b7f19457468657265756d205369676e6564204d6573736167653a0a333200000000600082015250565b7f446174612074696d657374616d7020697320696e76616c696400000000000000600082015250565b7f4f776e61626c653a206e6577206f776e657220697320746865207a65726f206160008201527f6464726573730000000000000000000000000000000000000000000000000000602082015250565b7f5369676e6572206e6f7420617574686f72697a65640000000000000000000000600082015250565b7f54686973206f7065726174696f6e20776f756c64206e6f7420726573756c742060008201527f696e206272696e67696e6720746865206c6f616e206261636b20746f2061207360208201527f6f6c76656e742073746174650000000000000000000000000000000000000000604082015250565b7f417661782070726963652072657475726e65642066726f6d206f7261636c652060008201527f6973207a65726f00000000000000000000000000000000000000000000000000602082015250565b7f5472616e7366657248656c7065723a3a736166655472616e736665724554483a60008201527f20455448207472616e73666572206661696c6564000000000000000000000000602082015250565b7f43616e6e6f742073656c6c6f7574206120736f6c76656e74206163636f756e74600082015250565b7f45434453413a20696e76616c6964207369676e6174757265202773272076616c60008201527f7565000000000000000000000000000000000000000000000000000000000000602082015250565b7f496e73756666696369656e742066756e64730000000000000000000000000000600082015250565b7f44656274206e6f74207265706169642066756c6c790000000000000000000000600082015250565b7f41737365742070726963652072657475726e65642066726f6d206f7261636c6560008201527f206973207a65726f000000000000000000000000000000000000000000000000602082015250565b7f496e697469616c697a61626c653a20636f6e747261637420697320616c72656160008201527f647920696e697469616c697a6564000000000000000000000000000000000000602082015250565b7f45434453413a20696e76616c6964207369676e6174757265202776272076616c60008201527f7565000000000000000000000000000000000000000000000000000000000000602082015250565b7f54686973206f7065726174696f6e20776f756c6420726573756c7420696e206160008201527f206c6f616e2077697468204c5456206c6f776572207468616e204d696e696d6160208201527f6c2053656c6c6f7574204c545620776869636820776f756c6420707574206c6f60408201527f616e2773206f776e657220696e2061207269736b206f6620616e20756e6e656360608201527f6573736172696c792068696768206c6f73730000000000000000000000000000608082015250565b7f4f776e61626c653a2063616c6c6572206973206e6f7420746865206f776e6572600082015250565b7f54686520616374696f6e206d617920636175736520616e206163636f756e742060008201527f746f206265636f6d6520696e736f6c76656e7400000000000000000000000000602082015250565b7f556e7374616b696e67206661696c656400000000000000000000000000000000600082015250565b7f4e6f7420656e6f756768204156415820617661696c61626c6500000000000000600082015250565b7f5472616e7366657248656c7065723a3a73616665417070726f76653a2061707060008201527f726f7665206661696c6564000000000000000000000000000000000000000000602082015250565b7f526564656d7074696f6e206661696c6564000000000000000000000000000000600082015250565b7f416464696e67206d6f726520636f6c6c61746572616c207468616e203620415660008201527f415820696e20746f74616c206973206e6f7420616c6c6f776564000000000000602082015250565b7f496e697469616c697a61626c653a20636f6e7472616374206973206e6f74206960008201527f6e697469616c697a696e67000000000000000000000000000000000000000000602082015250565b7f446174612077697468206675747572652074696d657374616d7073206973206e60008201527f6f7420616c6c6f77656400000000000000000000000000000000000000000000602082015250565b7f5472616e7366657248656c7065723a3a736166655472616e736665723a20747260008201527f616e73666572206661696c656400000000000000000000000000000000000000602082015250565b7f496e766573746d656e74206661696c6564000000000000000000000000000000600082015250565b7f5265656e7472616e637947756172643a207265656e7472616e742063616c6c00600082015250565b615dc481615396565b8114615dcf57600080fd5b50565b615ddb816153a8565b8114615de657600080fd5b50565b615df2816153b4565b8114615dfd57600080fd5b50565b615e09816153ec565b8114615e1457600080fd5b50565b615e20816153f6565b8114615e2b57600080fd5b5056fea26469706673582212203a1e0d0cb6d29e6cc7f9cf98874e30f3d2b680a3dc2ebb3ef66832883e65a1ea64736f6c63430008040033",
  "devdoc": {
    "kind": "dev",
    "methods": {
      "borrow(uint256)": {
        "details": "This function uses the redstone-evm-connector*",
        "params": {
          "_amount": "of funds to borrow"
        }
      },
      "closeLoan()": {
        "details": "This function uses the redstone-evm-connector*"
      },
      "getAllAssetsPrices()": {
        "details": "This function uses the redstone-evm-connector*"
      },
      "getBalance(address,bytes32)": {
        "details": "_asset the code of an asset_user the address of queried user*"
      },
      "getLTV()": {
        "details": "This function uses the redstone-evm-connector*"
      },
      "getTotalValue()": {
        "details": "This function uses the redstone-evm-connector*"
      },
      "invest(bytes32,uint256,uint256)": {
        "details": "This function uses the redstone-evm-connector*",
        "params": {
          "_asset": "code of the asset",
          "_exactERC20AmountOut": "exact amount of asset to buy",
          "_maxAvaxAmountIn": "maximum amount of AVAX to sell"
        }
      },
      "isSolvent()": {
        "details": "This function uses the redstone-evm-connector*"
      },
      "liquidateLoan(uint256)": {
        "details": "This function uses the redstone-evm-connector*"
      },
      "owner()": {
        "details": "Returns the address of the current owner."
      },
      "redeem(bytes32,uint256,uint256)": {
        "details": "This function uses the redstone-evm-connector*",
        "params": {
          "_asset": "code of the asset",
          "_exactERC20AmountIn": "exact amount of token to sell",
          "_minAvaxAmountOut": "minimum amount of the AVAX token to buy"
        }
      },
      "renounceOwnership()": {
        "details": "Leaves the contract without owner. It will not be possible to call `onlyOwner` functions anymore. Can only be called by the current owner. NOTE: Renouncing ownership will leave the contract without an owner, thereby removing any functionality that is only available to the owner."
      },
      "repay(uint256)": {
        "details": "This function uses the redstone-evm-connector*",
        "params": {
          "_amount": "of funds to repay"
        }
      },
      "transferOwnership(address)": {
        "details": "Transfers ownership of the contract to a new account (`newOwner`). Can only be called by the current owner."
      },
      "withdraw(uint256)": {
        "details": "This function uses the redstone-evm-connector*",
        "params": {
          "_amount": "to be withdrawn"
        }
      },
      "withdrawAsset(bytes32,uint256)": {
        "details": "This function uses the redstone-evm-connector*"
      }
    },
    "version": 1
  },
  "userdoc": {
    "kind": "user",
    "methods": {
      "borrow(uint256)": {
        "notice": "Borrows funds from the pool"
      },
      "closeLoan()": {
        "notice": "This function can only be accessed by the owner and allows selling all of the assets."
      },
      "fund()": {
        "notice": "Funds a loan with the value attached to the transaction Allows to add up to 7 AVAX of collateral in total*"
      },
      "getAllAssetsBalances()": {
        "notice": "Returns the balances of all assets served by the price provider It could be used as a helper method for UI*"
      },
      "getAllAssetsPrices()": {
        "notice": "Returns the prices of all assets served by the price provider It could be used as a helper method for UI"
      },
      "getBalance(address,bytes32)": {
        "notice": "Returns the current balance of the asset held by a given user"
      },
      "getDebt()": {
        "notice": "Returns the current debt associated with the loan*"
      },
      "getLTV()": {
        "notice": "LoanToValue ratio is calculated as the ratio between debt and collateral. The collateral is equal to total loan value takeaway debt."
      },
      "getMaxBlockTimestampDelay()": {
        "notice": "Override PriceAware method to consider Avalanche guaranteed block timestamp time accuracy*"
      },
      "getTotalValue()": {
        "notice": "Returns the current value of a loan in AVAX including cash and investments"
      },
      "invest(bytes32,uint256,uint256)": {
        "notice": "Invests an amount to buy an asset"
      },
      "isSignerAuthorized(address)": {
        "notice": "Override PriceAware method, addresses below belong to authorized signers of data feeds*"
      },
      "isSolvent()": {
        "notice": "Checks if the loan is solvent. It means that the ratio between debt and collateral is below safe level, which is parametrized by the getMaxLtv()"
      },
      "redeem(bytes32,uint256,uint256)": {
        "notice": "Redeem an investment by selling an asset"
      },
      "repay(uint256)": {
        "notice": "Repays funds to the pool"
      },
      "withdraw(uint256)": {
        "notice": "Withdraws an amount from the loan This method could be used to cash out profits from investments The loan needs to remain solvent after the withdrawal"
      }
    },
    "version": 1
  },
  "storageLayout": {
    "storage": [
      {
        "astId": 4471,
        "contract": "contracts/upgraded/SmartLoanLimitedCollateral.sol:SmartLoanLimitedCollateral",
        "label": "_liquidationInProgress",
        "offset": 0,
        "slot": "0",
        "type": "t_bool"
      },
      {
        "astId": 130,
        "contract": "contracts/upgraded/SmartLoanLimitedCollateral.sol:SmartLoanLimitedCollateral",
        "label": "_initialized",
        "offset": 1,
        "slot": "0",
        "type": "t_bool"
      },
      {
        "astId": 133,
        "contract": "contracts/upgraded/SmartLoanLimitedCollateral.sol:SmartLoanLimitedCollateral",
        "label": "_initializing",
        "offset": 2,
        "slot": "0",
        "type": "t_bool"
      },
      {
        "astId": 540,
        "contract": "contracts/upgraded/SmartLoanLimitedCollateral.sol:SmartLoanLimitedCollateral",
        "label": "__gap",
        "offset": 0,
        "slot": "1",
        "type": "t_array(t_uint256)50_storage"
      },
      {
        "astId": 10,
        "contract": "contracts/upgraded/SmartLoanLimitedCollateral.sol:SmartLoanLimitedCollateral",
        "label": "_owner",
        "offset": 0,
        "slot": "51",
        "type": "t_address"
      },
      {
        "astId": 122,
        "contract": "contracts/upgraded/SmartLoanLimitedCollateral.sol:SmartLoanLimitedCollateral",
        "label": "__gap",
        "offset": 0,
        "slot": "52",
        "type": "t_array(t_uint256)49_storage"
      },
      {
        "astId": 211,
        "contract": "contracts/upgraded/SmartLoanLimitedCollateral.sol:SmartLoanLimitedCollateral",
        "label": "_status",
        "offset": 0,
        "slot": "101",
        "type": "t_uint256"
      },
      {
        "astId": 255,
        "contract": "contracts/upgraded/SmartLoanLimitedCollateral.sol:SmartLoanLimitedCollateral",
        "label": "__gap",
        "offset": 0,
        "slot": "102",
        "type": "t_array(t_uint256)49_storage"
      }
    ],
    "types": {
      "t_address": {
        "encoding": "inplace",
        "label": "address",
        "numberOfBytes": "20"
      },
      "t_array(t_uint256)49_storage": {
        "base": "t_uint256",
        "encoding": "inplace",
        "label": "uint256[49]",
        "numberOfBytes": "1568"
      },
      "t_array(t_uint256)50_storage": {
        "base": "t_uint256",
        "encoding": "inplace",
        "label": "uint256[50]",
        "numberOfBytes": "1600"
      },
      "t_bool": {
        "encoding": "inplace",
        "label": "bool",
        "numberOfBytes": "1"
      },
      "t_uint256": {
        "encoding": "inplace",
        "label": "uint256",
        "numberOfBytes": "32"
      }
    }
  }
}