{
  "address": "0xB4307ab9Ade97E33B3300FC54Ae15433Db39E8bc",
  "abi": [
    {
      "anonymous": false,
      "inputs": [
        {
          "indexed": true,
          "internalType": "address",
          "name": "previousOwner",
          "type": "address"
        },
        {
          "indexed": true,
          "internalType": "address",
          "name": "newOwner",
          "type": "address"
        }
      ],
      "name": "OwnershipTransferred",
      "type": "event"
    },
    {
      "inputs": [],
      "name": "BREAKPOINT",
      "outputs": [
        {
          "internalType": "uint256",
          "name": "",
          "type": "uint256"
        }
      ],
      "stateMutability": "view",
      "type": "function"
    },
    {
      "inputs": [],
      "name": "MAX_RATE",
      "outputs": [
        {
          "internalType": "uint256",
          "name": "",
          "type": "uint256"
        }
      ],
      "stateMutability": "view",
      "type": "function"
    },
    {
      "inputs": [],
      "name": "OFFSET",
      "outputs": [
        {
          "internalType": "uint256",
          "name": "",
          "type": "uint256"
        }
      ],
      "stateMutability": "view",
      "type": "function"
    },
    {
      "inputs": [],
      "name": "SLOPE_1",
      "outputs": [
        {
          "internalType": "uint256",
          "name": "",
          "type": "uint256"
        }
      ],
      "stateMutability": "view",
      "type": "function"
    },
    {
      "inputs": [],
      "name": "SLOPE_2",
      "outputs": [
        {
          "internalType": "uint256",
          "name": "",
          "type": "uint256"
        }
      ],
      "stateMutability": "view",
      "type": "function"
    },
    {
      "inputs": [
        {
          "internalType": "uint256",
          "name": "totalLoans",
          "type": "uint256"
        },
        {
          "internalType": "uint256",
          "name": "totalDeposits",
          "type": "uint256"
        }
      ],
      "name": "calculateBorrowingRate",
      "outputs": [
        {
          "internalType": "uint256",
          "name": "",
          "type": "uint256"
        }
      ],
      "stateMutability": "pure",
      "type": "function"
    },
    {
      "inputs": [
        {
          "internalType": "uint256",
          "name": "_totalLoans",
          "type": "uint256"
        },
        {
          "internalType": "uint256",
          "name": "_totalDeposits",
          "type": "uint256"
        }
      ],
      "name": "calculateDepositRate",
      "outputs": [
        {
          "internalType": "uint256",
          "name": "",
          "type": "uint256"
        }
      ],
      "stateMutability": "view",
      "type": "function"
    },
    {
      "inputs": [],
      "name": "depositRateFactor",
      "outputs": [
        {
          "internalType": "uint256",
          "name": "",
          "type": "uint256"
        }
      ],
      "stateMutability": "view",
      "type": "function"
    },
    {
      "inputs": [
        {
          "internalType": "uint256",
          "name": "_totalLoans",
          "type": "uint256"
        },
        {
          "internalType": "uint256",
          "name": "_totalDeposits",
          "type": "uint256"
        }
      ],
      "name": "getPoolUtilisation",
      "outputs": [
        {
          "internalType": "uint256",
          "name": "",
          "type": "uint256"
        }
      ],
      "stateMutability": "pure",
      "type": "function"
    },
    {
      "inputs": [],
      "name": "owner",
      "outputs": [
        {
          "internalType": "address",
          "name": "",
          "type": "address"
        }
      ],
      "stateMutability": "view",
      "type": "function"
    },
    {
      "inputs": [],
      "name": "renounceOwnership",
      "outputs": [],
      "stateMutability": "nonpayable",
      "type": "function"
    },
    {
      "inputs": [
        {
          "internalType": "uint256",
          "name": "factor",
          "type": "uint256"
        }
      ],
      "name": "setDepositRateFactor",
      "outputs": [],
      "stateMutability": "nonpayable",
      "type": "function"
    },
    {
      "inputs": [
        {
          "internalType": "address",
          "name": "newOwner",
          "type": "address"
        }
      ],
      "name": "transferOwnership",
      "outputs": [],
      "stateMutability": "nonpayable",
      "type": "function"
    }
  ],
  "transactionHash": "0x0b3cd9cdd4021b2570cfeafc47ab1a0bfb8c774eb0e827723826551f25e09a86",
  "args": [],
  "numDeployments": 2,
  "solcInputHash": "6202c0d21b5a35dfad538d44758211da",
  "bytecode": "0x60806040526103e360015534801561001657600080fd5b5061003361002861003860201b60201c565b61004060201b60201c565b610104565b600033905090565b60008060009054906101000a900473ffffffffffffffffffffffffffffffffffffffff169050816000806101000a81548173ffffffffffffffffffffffffffffffffffffffff021916908373ffffffffffffffffffffffffffffffffffffffff1602179055508173ffffffffffffffffffffffffffffffffffffffff168173ffffffffffffffffffffffffffffffffffffffff167f8be0079c531659141344cd1fd0a4f28419497f9722a3daafe3b4186f6b6457e060405160405180910390a35050565b610daf806101136000396000f3fe608060405234801561001057600080fd5b50600436106100cf5760003560e01c80639ceca9651161008c578063ce665dd811610066578063ce665dd8146101f0578063df841eec1461020e578063e280703b1461023e578063f2fde38b1461025c576100cf565b80639ceca96514610184578063b64b0877146101b4578063c24dbebd146101d2576100cf565b806324fec939146100d4578063321105fb146100f05780633bf42d4b1461010e578063715018a61461012c5780637cd08331146101365780638da5cb5b14610166575b600080fd5b6100ee60048036038101906100e991906108a4565b610278565b005b6100f86102fe565b6040516101059190610a34565b60405180910390f35b61011661030a565b6040516101239190610a34565b60405180910390f35b610134610316565b005b610150600480360381019061014b91906108f6565b61039e565b60405161015d9190610a34565b60405180910390f35b61016e6104ac565b60405161017b91906109b9565b60405180910390f35b61019e600480360381019061019991906108f6565b6104d5565b6040516101ab9190610a34565b60405180910390f35b6101bc610510565b6040516101c99190610a34565b60405180910390f35b6101da61051c565b6040516101e79190610a34565b60405180910390f35b6101f8610528565b6040516102059190610a34565b60405180910390f35b610228600480360381019061022391906108f6565b610533565b6040516102359190610a34565b60405180910390f35b610246610672565b6040516102539190610a34565b60405180910390f35b6102766004803603810190610271919061087b565b610678565b005b610280610770565b73ffffffffffffffffffffffffffffffffffffffff1661029e6104ac565b73ffffffffffffffffffffffffffffffffffffffff16146102f4576040517f08c379a00000000000000000000000000000000000000000000000000000000081526004016102eb90610a14565b60405180910390fd5b8060018190555050565b6701aa535d3d0c000081565b672b4c77783338000081565b61031e610770565b73ffffffffffffffffffffffffffffffffffffffff1661033c6104ac565b73ffffffffffffffffffffffffffffffffffffffff1614610392576040517f08c379a000000000000000000000000000000000000000000000000000000000815260040161038990610a14565b60405180910390fd5b61039c6000610778565b565b6000808214156103b157600090506104a6565b8183106103e2576103e8600154670a688906bd8b00006103d19190610b10565b6103db9190610adf565b90506104a6565b60006103e8836103f29190610b10565b846001543073ffffffffffffffffffffffffffffffffffffffff1663df841eec88886040518363ffffffff1660e01b8152600401610431929190610a4f565b60206040518083038186803b15801561044957600080fd5b505afa15801561045d573d6000803e3d6000fd5b505050506040513d601f19601f8201168201806040525081019061048191906108cd565b61048b9190610b10565b6104959190610b10565b61049f9190610adf565b9050809150505b92915050565b60008060009054906101000a900473ffffffffffffffffffffffffffffffffffffffff16905090565b6000808214156104e8576000905061050a565b81670de0b6b3a7640000846104fd9190610b10565b6105079190610adf565b90505b92915050565b670b1a2bc2ec50000081565b670a688906bd8b000081565b666a94d74f43000081565b60008082141561054c57666a94d74f430000905061066c565b600061055884846104d5565b9050670de0b6b3a7640000811061057a57670a688906bd8b000091505061066c565b670b1a2bc2ec50000081116105ca57666a94d74f430000670de0b6b3a76400006701aa535d3d0c0000836105ae9190610b10565b6105b89190610adf565b6105c29190610a89565b91505061066c565b6000670a688906bd8b0000670de0b6b3a7640000672b4c777833380000846105f29190610b10565b6105fc9190610adf565b6106069190610a89565b9050672b4c777833380000811015610653576040517f08c379a000000000000000000000000000000000000000000000000000000000815260040161064a906109d4565b60405180910390fd5b672b4c777833380000816106679190610b6a565b925050505b92915050565b60015481565b610680610770565b73ffffffffffffffffffffffffffffffffffffffff1661069e6104ac565b73ffffffffffffffffffffffffffffffffffffffff16146106f4576040517f08c379a00000000000000000000000000000000000000000000000000000000081526004016106eb90610a14565b60405180910390fd5b600073ffffffffffffffffffffffffffffffffffffffff168173ffffffffffffffffffffffffffffffffffffffff161415610764576040517f08c379a000000000000000000000000000000000000000000000000000000000815260040161075b906109f4565b60405180910390fd5b61076d81610778565b50565b600033905090565b60008060009054906101000a900473ffffffffffffffffffffffffffffffffffffffff169050816000806101000a81548173ffffffffffffffffffffffffffffffffffffffff021916908373ffffffffffffffffffffffffffffffffffffffff1602179055508173ffffffffffffffffffffffffffffffffffffffff168173ffffffffffffffffffffffffffffffffffffffff167f8be0079c531659141344cd1fd0a4f28419497f9722a3daafe3b4186f6b6457e060405160405180910390a35050565b60008135905061084b81610d4b565b92915050565b60008135905061086081610d62565b92915050565b60008151905061087581610d62565b92915050565b60006020828403121561088d57600080fd5b600061089b8482850161083c565b91505092915050565b6000602082840312156108b657600080fd5b60006108c484828501610851565b91505092915050565b6000602082840312156108df57600080fd5b60006108ed84828501610866565b91505092915050565b6000806040838503121561090957600080fd5b600061091785828601610851565b925050602061092885828601610851565b9150509250929050565b61093b81610b9e565b82525050565b600061094e606c83610a78565b915061095982610c38565b608082019050919050565b6000610971602683610a78565b915061097c82610cd3565b604082019050919050565b6000610994602083610a78565b915061099f82610d22565b602082019050919050565b6109b381610bd0565b82525050565b60006020820190506109ce6000830184610932565b92915050565b600060208201905081810360008301526109ed81610941565b9050919050565b60006020820190508181036000830152610a0d81610964565b9050919050565b60006020820190508181036000830152610a2d81610987565b9050919050565b6000602082019050610a4960008301846109aa565b92915050565b6000604082019050610a6460008301856109aa565b610a7160208301846109aa565b9392505050565b600082825260208201905092915050565b6000610a9482610bd0565b9150610a9f83610bd0565b9250827fffffffffffffffffffffffffffffffffffffffffffffffffffffffffffffffff03821115610ad457610ad3610bda565b5b828201905092915050565b6000610aea82610bd0565b9150610af583610bd0565b925082610b0557610b04610c09565b5b828204905092915050565b6000610b1b82610bd0565b9150610b2683610bd0565b9250817fffffffffffffffffffffffffffffffffffffffffffffffffffffffffffffffff0483118215151615610b5f57610b5e610bda565b5b828202905092915050565b6000610b7582610bd0565b9150610b8083610bd0565b925082821015610b9357610b92610bda565b5b828203905092915050565b6000610ba982610bb0565b9050919050565b600073ffffffffffffffffffffffffffffffffffffffff82169050919050565b6000819050919050565b7f4e487b7100000000000000000000000000000000000000000000000000000000600052601160045260246000fd5b7f4e487b7100000000000000000000000000000000000000000000000000000000600052601260045260246000fd5b7f4f7574206f662072616e67652076616c7565207768656e2063616c63756c617460008201527f696e672074686520626f72726f77696e6720726174652e20436f6e736964657260208201527f20636865636b696e6720696620534c4f50455f322069732063616c63756c617460408201527f656420636f72726563746c790000000000000000000000000000000000000000606082015250565b7f4f776e61626c653a206e6577206f776e657220697320746865207a65726f206160008201527f6464726573730000000000000000000000000000000000000000000000000000602082015250565b7f4f776e61626c653a2063616c6c6572206973206e6f7420746865206f776e6572600082015250565b610d5481610b9e565b8114610d5f57600080fd5b50565b610d6b81610bd0565b8114610d7657600080fd5b5056fea26469706673582212204095b7a33b3c1b33c7a3dc8424cb11afda5ede2d5421b80c81914f4ef54b606d64736f6c63430008040033",
  "devdoc": {
    "details": "Contract which calculates the interest rates based on pool utilisation. Utilisation is computed as the ratio between funds borrowed and funds deposited to the pool. Borrowing rates are calculated using a piecewise linear function. The first piece is defined by SLOPE_1 and OFFSET (shift). Second piece is defined by SLOPE_2 (calculated off-chain), BREAKPOINT (threshold value above which second piece is considered) and MAX_RATE (value at pool utilisation of 1).*",
    "kind": "dev",
    "methods": {
      "calculateBorrowingRate(uint256,uint256)": {
        "details": "_totalLoans total value of loans_totalDeposits total value of deposits*"
      },
      "calculateDepositRate(uint256,uint256)": {
        "details": "_totalLoans total value of loans_totalDeposits total value of deposits*"
      },
      "getPoolUtilisation(uint256,uint256)": {
        "details": "_totalLoans total value of loans_totalDeposits total value of deposits*"
      },
      "owner()": {
        "details": "Returns the address of the current owner."
      },
      "renounceOwnership()": {
        "details": "Leaves the contract without owner. It will not be possible to call `onlyOwner` functions anymore. Can only be called by the current owner. NOTE: Renouncing ownership will leave the contract without an owner, thereby removing any functionality that is only available to the owner."
      },
      "setDepositRateFactor(uint256)": {
        "details": "_newRate total value of loans*"
      },
      "transferOwnership(address)": {
        "details": "Transfers ownership of the contract to a new account (`newOwner`). Can only be called by the current owner."
      }
    },
    "title": "VariableUtilisationRatesCalculator",
    "version": 1
  },
  "userdoc": {
    "kind": "user",
    "methods": {
      "calculateBorrowingRate(uint256,uint256)": {
        "notice": "Returns the current borrowing rate The value is based on the pool utilisation according to the piecewise linear formula: 1) for pool utilisation lower than or equal to breakpoint: borrowing_rate = SLOPE_1 * utilisation + OFFSET 2) for pool utilisation greater than breakpoint: borrowing_rate = SLOPE_2 * utilisation + MAX_RATE - SLOPE_2"
      },
      "calculateDepositRate(uint256,uint256)": {
        "notice": "Returns the current deposit rate The value is based on the current borrowing rate and satisfies the invariant: value_of_loans * borrowing_rate = value_of_deposits * deposit_rate"
      },
      "getPoolUtilisation(uint256,uint256)": {
        "notice": "Returns the pool utilisation, which is a ratio between loans and deposits utilisation = value_of_loans / value_of_deposits"
      },
      "setDepositRateFactor(uint256)": {
        "notice": "Sets deposit rate factor This factor is needed to account for arithmetic inaccuracy and keep pool balanced. Should be close to 1000"
      }
    },
    "version": 1
  },
  "storageLayout": {
    "storage": [
      {
        "astId": 7,
        "contract": "contracts/VariableUtilisationRatesCalculator.sol:VariableUtilisationRatesCalculator",
        "label": "_owner",
        "offset": 0,
        "slot": "0",
        "type": "t_address"
      },
      {
        "astId": 153,
        "contract": "contracts/VariableUtilisationRatesCalculator.sol:VariableUtilisationRatesCalculator",
        "label": "depositRateFactor",
        "offset": 0,
        "slot": "1",
        "type": "t_uint256"
      }
    ],
    "types": {
      "t_address": {
        "encoding": "inplace",
        "label": "address",
        "numberOfBytes": "20"
      },
      "t_uint256": {
        "encoding": "inplace",
        "label": "uint256",
        "numberOfBytes": "32"
      }
    }
  }
}