{
  "address": "0x70952A912Fa50E04c608eb49E48afC975Eb91F21",
  "abi": [
    {
      "anonymous": false,
      "inputs": [
        {
          "indexed": true,
          "internalType": "address",
          "name": "user",
          "type": "address"
        },
        {
          "indexed": true,
          "internalType": "bytes32",
          "name": "asset",
          "type": "bytes32"
        },
        {
          "indexed": false,
          "internalType": "uint256",
          "name": "amount",
          "type": "uint256"
        },
        {
          "indexed": false,
          "internalType": "uint256",
          "name": "timestamp",
          "type": "uint256"
        }
      ],
      "name": "Staked",
      "type": "event"
    },
    {
      "anonymous": false,
      "inputs": [
        {
          "indexed": true,
          "internalType": "address",
          "name": "user",
          "type": "address"
        },
        {
          "indexed": true,
          "internalType": "bytes32",
          "name": "asset",
          "type": "bytes32"
        },
        {
          "indexed": false,
          "internalType": "uint256",
          "name": "amount",
          "type": "uint256"
        },
        {
          "indexed": false,
          "internalType": "uint256",
          "name": "timestamp",
          "type": "uint256"
        }
      ],
      "name": "Unstaked",
      "type": "event"
    },
    {
      "inputs": [],
      "name": "getTotalStakedValue",
      "outputs": [
        {
          "internalType": "uint256",
          "name": "totalValue",
          "type": "uint256"
        }
      ],
      "stateMutability": "view",
      "type": "function"
    },
    {
      "inputs": [
        {
          "internalType": "uint256",
          "name": "amount",
          "type": "uint256"
        }
      ],
      "name": "stakeAVAX",
      "outputs": [],
      "stateMutability": "payable",
      "type": "function"
    },
    {
      "inputs": [
        {
          "internalType": "uint256",
          "name": "amount",
          "type": "uint256"
        }
      ],
      "name": "unstakeAVAX",
      "outputs": [
        {
          "internalType": "bool",
          "name": "",
          "type": "bool"
        }
      ],
      "stateMutability": "nonpayable",
      "type": "function"
    },
    {
      "inputs": [
        {
          "internalType": "uint256",
          "name": "amount",
          "type": "uint256"
        }
      ],
      "name": "unstakeAVAXForASpecifiedAmount",
      "outputs": [],
      "stateMutability": "nonpayable",
      "type": "function"
    },
    {
      "stateMutability": "payable",
      "type": "receive"
    }
  ],
  "transactionHash": "0xc8542764a7ed73f87c3d250c61726c3a8a04aab5de195490b7ab22860eae7b51",
  "args": [],
  "numDeployments": 3,
  "solcInputHash": "980581b01818fb982c01a2507a64c02d",
  "bytecode": "0x608060405234801561001057600080fd5b506001600081905550611553806100286000396000f3fe6080604052600436106100435760003560e01c806318994c1f1461004f5780633999c4881461008c57806347f63dfd146100b7578063e15e2c44146100d35761004a565b3661004a57005b600080fd5b34801561005b57600080fd5b5061007660048036038101906100719190610e54565b6100fc565b6040516100839190611091565b60405180910390f35b34801561009857600080fd5b506100a161051b565b6040516100ae919061116c565b60405180910390f35b6100d160048036038101906100cc9190610e54565b6106f9565b005b3480156100df57600080fd5b506100fa60048036038101906100f59190610e54565b610843565b005b600060026000541415610144576040517f08c379a000000000000000000000000000000000000000000000000000000000815260040161013b9061114c565b60405180910390fd5b6002600081905550600073aac0f2d0630d1d09ab2b5a400412a4840b866d95905060008173ffffffffffffffffffffffffffffffffffffffff166370a08231336040518263ffffffff1660e01b81526004016101a09190610fed565b60206040518083038186803b1580156101b857600080fd5b505afa1580156101cc573d6000803e3d6000fd5b505050506040513d601f19601f820116820180604052508101906101f09190610e7d565b905060008273ffffffffffffffffffffffffffffffffffffffff1663dd62ed3e33306040518363ffffffff1660e01b815260040161022f929190611008565b60206040518083038186803b15801561024757600080fd5b505afa15801561025b573d6000803e3d6000fd5b505050506040513d601f19601f8201168201806040525081019061027f9190610e7d565b9050848210156102c4576040517f08c379a00000000000000000000000000000000000000000000000000000000081526004016102bb906110ac565b60405180910390fd5b84811015610307576040517f08c379a00000000000000000000000000000000000000000000000000000000081526004016102fe9061110c565b60405180910390fd5b6103343330878673ffffffffffffffffffffffffffffffffffffffff16610a57909392919063ffffffff16565b60008373ffffffffffffffffffffffffffffffffffffffff168660405160240161035e919061116c565b6040516020818303038152906040527f2e1a7d4d000000000000000000000000000000000000000000000000000000007bffffffffffffffffffffffffffffffffffffffffffffffffffffffff19166020820180517bffffffffffffffffffffffffffffffffffffffffffffffffffffffff83818316178352505050506040516103e89190610fd6565b6000604051808303816000865af19150503d8060008114610425576040519150601f19603f3d011682016040523d82523d6000602084013e61042a565b606091505b505090508061046b5761045e33878673ffffffffffffffffffffffffffffffffffffffff16610b909092919063ffffffff16565b600094505050505061050e565b610494473373ffffffffffffffffffffffffffffffffffffffff16610cc690919063ffffffff16565b7f41564158000000000000000000000000000000000000000000000000000000003373ffffffffffffffffffffffffffffffffffffffff167f2a77754143eef9adfe9735abcd280b24fa49a631cc1c8a9758f04e5a56e5576d88426040516104fd929190611187565b60405180910390a360019450505050505b6001600081905550919050565b60008073aac0f2d0630d1d09ab2b5a400412a4840b866d95905060008173ffffffffffffffffffffffffffffffffffffffff166370a08231336040518263ffffffff1660e01b81526004016105709190610fed565b60206040518083038186803b15801561058857600080fd5b505afa15801561059c573d6000803e3d6000fd5b505050506040513d601f19601f820116820180604052508101906105c09190610e7d565b905060008114156105d457600092506106f4565b60008273ffffffffffffffffffffffffffffffffffffffff166318160ddd6040518163ffffffff1660e01b815260040160206040518083038186803b15801561061c57600080fd5b505afa158015610630573d6000803e3d6000fd5b505050506040513d601f19601f820116820180604052508101906106549190610e7d565b905060008373ffffffffffffffffffffffffffffffffffffffff16637d8820976040518163ffffffff1660e01b815260040160206040518083038186803b15801561069e57600080fd5b505afa1580156106b2573d6000803e3d6000fd5b505050506040513d601f19601f820116820180604052508101906106d69190610e7d565b90508181846106e59190611208565b6106ef91906111d7565b945050505b505090565b6002600054141561073f576040517f08c379a00000000000000000000000000000000000000000000000000000000081526004016107369061114c565b60405180910390fd5b600260008190555073aac0f2d0630d1d09ab2b5a400412a4840b866d9573ffffffffffffffffffffffffffffffffffffffff1663aa67c91982336040518363ffffffff1660e01b81526004016107959190610fed565b6000604051808303818588803b1580156107ae57600080fd5b505af11580156107c2573d6000803e3d6000fd5b50505050507f41564158000000000000000000000000000000000000000000000000000000003373ffffffffffffffffffffffffffffffffffffffff167fa98fe7d2204baa1060672de0612aecc1197e5cd1fc4bb5e6f5f4b8c357052e8e8342604051610830929190611187565b60405180910390a3600160008190555050565b600073aac0f2d0630d1d09ab2b5a400412a4840b866d95905060008173ffffffffffffffffffffffffffffffffffffffff166370a08231336040518263ffffffff1660e01b81526004016108979190610fed565b60206040518083038186803b1580156108af57600080fd5b505afa1580156108c3573d6000803e3d6000fd5b505050506040513d601f19601f820116820180604052508101906108e79190610e7d565b905060008114610a525760008273ffffffffffffffffffffffffffffffffffffffff166318160ddd6040518163ffffffff1660e01b815260040160206040518083038186803b15801561093957600080fd5b505afa15801561094d573d6000803e3d6000fd5b505050506040513d601f19601f820116820180604052508101906109719190610e7d565b905060008373ffffffffffffffffffffffffffffffffffffffff16637d8820976040518163ffffffff1660e01b815260040160206040518083038186803b1580156109bb57600080fd5b505afa1580156109cf573d6000803e3d6000fd5b505050506040513d601f19601f820116820180604052508101906109f39190610e7d565b90506000828285610a049190611208565b610a0e91906111d7565b905085811015610a2757610a21846100fc565b50610a4e565b6000818588610a369190611208565b610a4091906111d7565b9050610a4b816100fc565b50505b5050505b505050565b6000808573ffffffffffffffffffffffffffffffffffffffff166323b872dd868686604051602401610a8b93929190611031565b6040516020818303038152906040529060e01b6020820180517bffffffffffffffffffffffffffffffffffffffffffffffffffffffff8381831617835250505050604051610ad99190610fd6565b6000604051808303816000865af19150503d8060008114610b16576040519150601f19603f3d011682016040523d82523d6000602084013e610b1b565b606091505b5091509150818015610b495750600081511480610b48575080806020019051810190610b479190610e2b565b5b5b610b88576040517f08c379a0000000000000000000000000000000000000000000000000000000008152600401610b7f906110cc565b60405180910390fd5b505050505050565b6000808473ffffffffffffffffffffffffffffffffffffffff1663a9059cbb8585604051602401610bc2929190611068565b6040516020818303038152906040529060e01b6020820180517bffffffffffffffffffffffffffffffffffffffffffffffffffffffff8381831617835250505050604051610c109190610fd6565b6000604051808303816000865af19150503d8060008114610c4d576040519150601f19603f3d011682016040523d82523d6000602084013e610c52565b606091505b5091509150818015610c805750600081511480610c7f575080806020019051810190610c7e9190610e2b565b5b5b610cbf576040517f08c379a0000000000000000000000000000000000000000000000000000000008152600401610cb69061112c565b60405180910390fd5b5050505050565b60008273ffffffffffffffffffffffffffffffffffffffff1682600067ffffffffffffffff811115610d21577f4e487b7100000000000000000000000000000000000000000000000000000000600052604160045260246000fd5b6040519080825280601f01601f191660200182016040528015610d535781602001600182028036833780820191505090505b50604051610d619190610fd6565b60006040518083038185875af1925050503d8060008114610d9e576040519150601f19603f3d011682016040523d82523d6000602084013e610da3565b606091505b5050905080610de7576040517f08c379a0000000000000000000000000000000000000000000000000000000008152600401610dde906110ec565b60405180910390fd5b505050565b600081519050610dfb816114ef565b92915050565b600081359050610e1081611506565b92915050565b600081519050610e2581611506565b92915050565b600060208284031215610e3d57600080fd5b6000610e4b84828501610dec565b91505092915050565b600060208284031215610e6657600080fd5b6000610e7484828501610e01565b91505092915050565b600060208284031215610e8f57600080fd5b6000610e9d84828501610e16565b91505092915050565b610eaf81611262565b82525050565b610ebe81611274565b82525050565b6000610ecf826111b0565b610ed981856111bb565b9350610ee98185602086016112aa565b80840191505092915050565b6000610f02602d836111c6565b9150610f0d8261133b565b604082019050919050565b6000610f256031836111c6565b9150610f308261138a565b604082019050919050565b6000610f486034836111c6565b9150610f53826113d9565b604082019050919050565b6000610f6b602e836111c6565b9150610f7682611428565b604082019050919050565b6000610f8e602d836111c6565b9150610f9982611477565b604082019050919050565b6000610fb1601f836111c6565b9150610fbc826114c6565b602082019050919050565b610fd0816112a0565b82525050565b6000610fe28284610ec4565b915081905092915050565b60006020820190506110026000830184610ea6565b92915050565b600060408201905061101d6000830185610ea6565b61102a6020830184610ea6565b9392505050565b60006060820190506110466000830186610ea6565b6110536020830185610ea6565b6110606040830184610fc7565b949350505050565b600060408201905061107d6000830185610ea6565b61108a6020830184610fc7565b9392505050565b60006020820190506110a66000830184610eb5565b92915050565b600060208201905081810360008301526110c581610ef5565b9050919050565b600060208201905081810360008301526110e581610f18565b9050919050565b6000602082019050818103600083015261110581610f3b565b9050919050565b6000602082019050818103600083015261112581610f5e565b9050919050565b6000602082019050818103600083015261114581610f81565b9050919050565b6000602082019050818103600083015261116581610fa4565b9050919050565b60006020820190506111816000830184610fc7565b92915050565b600060408201905061119c6000830185610fc7565b6111a96020830184610fc7565b9392505050565b600081519050919050565b600081905092915050565b600082825260208201905092915050565b60006111e2826112a0565b91506111ed836112a0565b9250826111fd576111fc61130c565b5b828204905092915050565b6000611213826112a0565b915061121e836112a0565b9250817fffffffffffffffffffffffffffffffffffffffffffffffffffffffffffffffff0483118215151615611257576112566112dd565b5b828202905092915050565b600061126d82611280565b9050919050565b60008115159050919050565b600073ffffffffffffffffffffffffffffffffffffffff82169050919050565b6000819050919050565b60005b838110156112c85780820151818401526020810190506112ad565b838111156112d7576000848401525b50505050565b7f4e487b7100000000000000000000000000000000000000000000000000000000600052601160045260246000fd5b7f4e487b7100000000000000000000000000000000000000000000000000000000600052601260045260246000fd5b7f43616e6e6f7420756e7374616b65206d6f7265207468616e2077617320696e6960008201527f7469616c6c79207374616b656400000000000000000000000000000000000000602082015250565b7f5472616e7366657248656c7065723a3a7472616e7366657246726f6d3a20747260008201527f616e7366657246726f6d206661696c6564000000000000000000000000000000602082015250565b7f5472616e7366657248656c7065723a3a736166655472616e736665724554483a60008201527f20455448207472616e73666572206661696c6564000000000000000000000000602082015250565b7f496e73756666696369656e7420616c6c6f77616e636520666f7220746865207260008201527f6f7574657220636f6e7472616374000000000000000000000000000000000000602082015250565b7f5472616e7366657248656c7065723a3a736166655472616e736665723a20747260008201527f616e73666572206661696c656400000000000000000000000000000000000000602082015250565b7f5265656e7472616e637947756172643a207265656e7472616e742063616c6c00600082015250565b6114f881611274565b811461150357600080fd5b50565b61150f816112a0565b811461151a57600080fd5b5056fea264697066735822122020404576c91fc147691b210fa64ce4f541c8c3d696dcbf9711e67d3b2e2a1ac964736f6c63430008040033",
  "devdoc": {
    "events": {
      "Staked(address,bytes32,uint256,uint256)": {
        "details": "emitted when user stakes an asset",
        "params": {
          "amount": "of the asset that was staked",
          "asset": "the asset that was staked",
          "timestamp": "of staking*",
          "user": "the address executing staking"
        }
      },
      "Unstaked(address,bytes32,uint256,uint256)": {
        "details": "emitted when user unstakes an asset",
        "params": {
          "amount": "of the asset that was unstaked",
          "asset": "the asset that was unstaked",
          "timestamp": "of unstaking*",
          "user": "the address executing unstaking"
        }
      }
    },
    "kind": "dev",
    "methods": {},
    "version": 1
  },
  "userdoc": {
    "kind": "user",
    "methods": {},
    "version": 1
  },
  "storageLayout": {
    "storage": [
      {
        "astId": 115,
        "contract": "contracts/routers/YieldYakRouter.sol:YieldYakRouter",
        "label": "_status",
        "offset": 0,
        "slot": "0",
        "type": "t_uint256"
      }
    ],
    "types": {
      "t_uint256": {
        "encoding": "inplace",
        "label": "uint256",
        "numberOfBytes": "32"
      }
    }
  }
}