{
  "address": "0x8487141B7e50c39e82ED239FdaD6DaEbfb361183",
  "abi": [
    {
      "anonymous": false,
      "inputs": [
        {
          "indexed": true,
          "internalType": "address",
          "name": "previousOwner",
          "type": "address"
        },
        {
          "indexed": true,
          "internalType": "address",
          "name": "newOwner",
          "type": "address"
        }
      ],
      "name": "OwnershipTransferred",
      "type": "event"
    },
    {
      "anonymous": false,
      "inputs": [
        {
          "indexed": true,
          "internalType": "address",
          "name": "rc",
          "type": "address"
        }
      ],
      "name": "RecoveryContractUpdated",
      "type": "event"
    },
    {
      "inputs": [],
      "name": "RECOVERY_CONTRACT",
      "outputs": [
        {
          "internalType": "bytes32",
          "name": "",
          "type": "bytes32"
        }
      ],
      "stateMutability": "view",
      "type": "function"
    },
    {
      "inputs": [],
      "name": "getRecoveryContract",
      "outputs": [
        {
          "internalType": "address",
          "name": "",
          "type": "address"
        }
      ],
      "stateMutability": "view",
      "type": "function"
    },
    {
      "inputs": [],
      "name": "initialize",
      "outputs": [],
      "stateMutability": "nonpayable",
      "type": "function"
    },
    {
      "inputs": [],
      "name": "owner",
      "outputs": [
        {
          "internalType": "address",
          "name": "",
          "type": "address"
        }
      ],
      "stateMutability": "view",
      "type": "function"
    },
    {
      "inputs": [],
      "name": "renounceOwnership",
      "outputs": [],
      "stateMutability": "nonpayable",
      "type": "function"
    },
    {
      "inputs": [
        {
          "internalType": "address",
          "name": "rc",
          "type": "address"
        }
      ],
      "name": "setRecoveryContract",
      "outputs": [],
      "stateMutability": "nonpayable",
      "type": "function"
    },
    {
      "inputs": [
        {
          "internalType": "address",
          "name": "newOwner",
          "type": "address"
        }
      ],
      "name": "transferOwnership",
      "outputs": [],
      "stateMutability": "nonpayable",
      "type": "function"
    }
  ],
  "transactionHash": "0x3d84cc3ac56d6160ab60bbbbcd0c912aa890a3dfb5a26b45a65455d1972b36ba",
  "args": [],
  "numDeployments": 1,
  "solcInputHash": "d490f4db563140713f5695aa99f09b1e",
  "bytecode": "0x608060405234801561001057600080fd5b50610538806100206000396000f3fe608060405234801561001057600080fd5b506004361061007d5760003560e01c80638da5cb5b1161005b5780638da5cb5b146100a757806394168ca8146100d1578063f2fde38b146100fa578063f60c37a41461010d57600080fd5b80636029d66f14610082578063715018a6146100975780638129fc1c1461009f575b600080fd5b610095610090366004610452565b61015a565b005b61009561021b565b610095610251565b6033546001600160a01b03165b6040516001600160a01b0390911681526020015b60405180910390f35b6100ec70149150d3d591549657d0d3d395149050d5607a1b81565b6040519081526020016100c8565b610095610108366004610452565b610312565b70149150d3d591549657d0d3d395149050d5607a1b60005260656020527fe05c6d95f607b7d1f36399517bfcc275402f285aa2a84eab23be4ee0a3541e58546001600160a01b03166100b4565b6033546001600160a01b0316331461018d5760405162461bcd60e51b815260040161018490610482565b60405180910390fd5b70149150d3d591549657d0d3d395149050d5607a1b60005260656020527fe05c6d95f607b7d1f36399517bfcc275402f285aa2a84eab23be4ee0a3541e5880546001600160a01b0319166001600160a01b0383161790556040516001600160a01b038216907f39bbb9fac5cc7a8f6af8c6c87c2306c4594d5af7049ae8fc897cb616c1ce454990600090a250565b6033546001600160a01b031633146102455760405162461bcd60e51b815260040161018490610482565b61024f60006103a6565b565b600054610100900460ff1661026c5760005460ff1615610270565b303b155b6102d35760405162461bcd60e51b815260206004820152602e60248201527f496e697469616c697a61626c653a20636f6e747261637420697320616c72656160448201526d191e481a5b9a5d1a585b1a5e995960921b6064820152608401610184565b600054610100900460ff161580156102f5576000805461ffff19166101011790555b6102fd6103f8565b801561030f576000805461ff00191690555b50565b6033546001600160a01b0316331461033c5760405162461bcd60e51b815260040161018490610482565b6001600160a01b0381166103a15760405162461bcd60e51b815260206004820152602660248201527f4f776e61626c653a206e6577206f776e657220697320746865207a65726f206160448201526564647265737360d01b6064820152608401610184565b61030f815b603380546001600160a01b038381166001600160a01b0319831681179093556040519116919082907f8be0079c531659141344cd1fd0a4f28419497f9722a3daafe3b4186f6b6457e090600090a35050565b600054610100900460ff1661041f5760405162461bcd60e51b8152600401610184906104b7565b61024f600054610100900460ff166104495760405162461bcd60e51b8152600401610184906104b7565b61024f336103a6565b60006020828403121561046457600080fd5b81356001600160a01b038116811461047b57600080fd5b9392505050565b6020808252818101527f4f776e61626c653a2063616c6c6572206973206e6f7420746865206f776e6572604082015260600190565b6020808252602b908201527f496e697469616c697a61626c653a20636f6e7472616374206973206e6f74206960408201526a6e697469616c697a696e6760a81b60608201526080019056fea264697066735822122046a0c7f42748cfbc237e91be992bdb83bce9ffa5b50e7098d29320192260833164736f6c63430008110033",
  "devdoc": {
    "kind": "dev",
    "methods": {
      "owner()": {
        "details": "Returns the address of the current owner."
      },
      "renounceOwnership()": {
        "details": "Leaves the contract without owner. It will not be possible to call `onlyOwner` functions anymore. Can only be called by the current owner. NOTE: Renouncing ownership will leave the contract without an owner, thereby removing any functionality that is only available to the owner."
      },
      "setRecoveryContract(address)": {
        "params": {
          "rc": "New recovery contract address"
        }
      },
      "transferOwnership(address)": {
        "details": "Transfers ownership of the contract to a new account (`newOwner`). Can only be called by the current owner."
      }
    },
    "title": "DeltaPrime Address Provider",
    "version": 1
  },
  "userdoc": {
    "kind": "user",
    "methods": {
      "getRecoveryContract()": {
        "notice": "Get recovery contract address"
      },
      "setRecoveryContract(address)": {
        "notice": "Set recovery contract address"
      }
    },
    "version": 1
  },
  "storageLayout": {
    "storage": [
      {
        "astId": 130,
        "contract": "contracts/AddressProvider.sol:AddressProvider",
        "label": "_initialized",
        "offset": 0,
        "slot": "0",
        "type": "t_bool"
      },
      {
        "astId": 133,
        "contract": "contracts/AddressProvider.sol:AddressProvider",
        "label": "_initializing",
        "offset": 1,
        "slot": "0",
        "type": "t_bool"
      },
      {
        "astId": 481,
        "contract": "contracts/AddressProvider.sol:AddressProvider",
        "label": "__gap",
        "offset": 0,
        "slot": "1",
        "type": "t_array(t_uint256)50_storage"
      },
      {
        "astId": 10,
        "contract": "contracts/AddressProvider.sol:AddressProvider",
        "label": "_owner",
        "offset": 0,
        "slot": "51",
        "type": "t_address"
      },
      {
        "astId": 122,
        "contract": "contracts/AddressProvider.sol:AddressProvider",
        "label": "__gap",
        "offset": 0,
        "slot": "52",
        "type": "t_array(t_uint256)49_storage"
      },
      {
        "astId": 492,
        "contract": "contracts/AddressProvider.sol:AddressProvider",
        "label": "addresses",
        "offset": 0,
        "slot": "101",
        "type": "t_mapping(t_bytes32,t_address)"
      }
    ],
    "types": {
      "t_address": {
        "encoding": "inplace",
        "label": "address",
        "numberOfBytes": "20"
      },
      "t_array(t_uint256)49_storage": {
        "base": "t_uint256",
        "encoding": "inplace",
        "label": "uint256[49]",
        "numberOfBytes": "1568"
      },
      "t_array(t_uint256)50_storage": {
        "base": "t_uint256",
        "encoding": "inplace",
        "label": "uint256[50]",
        "numberOfBytes": "1600"
      },
      "t_bool": {
        "encoding": "inplace",
        "label": "bool",
        "numberOfBytes": "1"
      },
      "t_bytes32": {
        "encoding": "inplace",
        "label": "bytes32",
        "numberOfBytes": "32"
      },
      "t_mapping(t_bytes32,t_address)": {
        "encoding": "mapping",
        "key": "t_bytes32",
        "label": "mapping(bytes32 => address)",
        "numberOfBytes": "32",
        "value": "t_address"
      },
      "t_uint256": {
        "encoding": "inplace",
        "label": "uint256",
        "numberOfBytes": "32"
      }
    }
  }
}