{
  "address": "0x5292aF35A0442f46Bb51d9d65F031A310D236399",
  "abi": [
    {
      "inputs": [],
      "name": "BorrowersRegistryNotConfigured",
      "type": "error"
    },
    {
      "inputs": [],
      "name": "BurnAmountExceedsAvailableForUser",
      "type": "error"
    },
    {
      "inputs": [],
      "name": "BurnAmountExceedsBalance",
      "type": "error"
    },
    {
      "inputs": [],
      "name": "CalldataMustHaveValidPayload",
      "type": "error"
    },
    {
      "inputs": [],
      "name": "CalldataOverOrUnderFlow",
      "type": "error"
    },
    {
      "inputs": [],
      "name": "DataPackageTimestampMustNotBeZero",
      "type": "error"
    },
    {
      "inputs": [],
      "name": "DataPackageTimestampsMustBeEqual",
      "type": "error"
    },
    {
      "inputs": [],
      "name": "EachSignerMustProvideTheSameValue",
      "type": "error"
    },
    {
      "inputs": [],
      "name": "EmptyCalldataPointersArr",
      "type": "error"
    },
    {
      "inputs": [],
      "name": "IncorrectUnsignedMetadataSize",
      "type": "error"
    },
    {
      "inputs": [
        {
          "internalType": "uint256",
          "name": "requested",
          "type": "uint256"
        },
        {
          "internalType": "uint256",
          "name": "allowance",
          "type": "uint256"
        }
      ],
      "name": "InsufficientAllowance",
      "type": "error"
    },
    {
      "inputs": [
        {
          "internalType": "uint256",
          "name": "receivedSignersCount",
          "type": "uint256"
        },
        {
          "internalType": "uint256",
          "name": "requiredSignersCount",
          "type": "uint256"
        }
      ],
      "name": "InsufficientNumberOfUniqueSigners",
      "type": "error"
    },
    {
      "inputs": [],
      "name": "InsufficientPoolFunds",
      "type": "error"
    },
    {
      "inputs": [],
      "name": "InsufficientSurplus",
      "type": "error"
    },
    {
      "inputs": [],
      "name": "InvalidCalldataPointer",
      "type": "error"
    },
    {
      "inputs": [],
      "name": "MaxPoolUtilisationBreached",
      "type": "error"
    },
    {
      "inputs": [],
      "name": "MintToAddressZero",
      "type": "error"
    },
    {
      "inputs": [
        {
          "internalType": "address",
          "name": "target",
          "type": "address"
        }
      ],
      "name": "NotAContract",
      "type": "error"
    },
    {
      "inputs": [],
      "name": "NotAuthorizedToBorrow",
      "type": "error"
    },
    {
      "inputs": [],
      "name": "PoolFrozen",
      "type": "error"
    },
    {
      "inputs": [
        {
          "internalType": "bytes",
          "name": "result",
          "type": "bytes"
        }
      ],
      "name": "ProxyCalldataFailedWithCustomError",
      "type": "error"
    },
    {
      "inputs": [
        {
          "internalType": "string",
          "name": "message",
          "type": "string"
        }
      ],
      "name": "ProxyCalldataFailedWithStringMessage",
      "type": "error"
    },
    {
      "inputs": [],
      "name": "ProxyCalldataFailedWithoutErrMsg",
      "type": "error"
    },
    {
      "inputs": [],
      "name": "RedstonePayloadMustHaveAtLeastOneDataPackage",
      "type": "error"
    },
    {
      "inputs": [],
      "name": "RepayingMoreThanWasBorrowed",
      "type": "error"
    },
    {
      "inputs": [
        {
          "internalType": "address",
          "name": "receivedSigner",
          "type": "address"
        }
      ],
      "name": "SignerNotAuthorised",
      "type": "error"
    },
    {
      "inputs": [],
      "name": "SpenderZeroAddress",
      "type": "error"
    },
    {
      "inputs": [],
      "name": "TotalSupplyCapBreached",
      "type": "error"
    },
    {
      "inputs": [
        {
          "internalType": "uint256",
          "name": "amount",
          "type": "uint256"
        },
        {
          "internalType": "uint256",
          "name": "balance",
          "type": "uint256"
        }
      ],
      "name": "TransferAmountExceedsBalance",
      "type": "error"
    },
    {
      "inputs": [],
      "name": "TransferToPoolAddress",
      "type": "error"
    },
    {
      "inputs": [],
      "name": "TransferToZeroAddress",
      "type": "error"
    },
    {
      "inputs": [],
      "name": "ZeroDepositAmount",
      "type": "error"
    },
    {
      "anonymous": false,
      "inputs": [
        {
          "indexed": true,
          "internalType": "address",
          "name": "owner",
          "type": "address"
        },
        {
          "indexed": true,
          "internalType": "address",
          "name": "spender",
          "type": "address"
        },
        {
          "indexed": false,
          "internalType": "uint256",
          "name": "value",
          "type": "uint256"
        }
      ],
      "name": "Approval",
      "type": "event"
    },
    {
      "anonymous": false,
      "inputs": [
        {
          "indexed": true,
          "internalType": "address",
          "name": "user",
          "type": "address"
        },
        {
          "indexed": true,
          "internalType": "address",
          "name": "borrower",
          "type": "address"
        },
        {
          "indexed": false,
          "internalType": "uint256",
          "name": "value",
          "type": "uint256"
        },
        {
          "indexed": false,
          "internalType": "uint256",
          "name": "timestamp",
          "type": "uint256"
        }
      ],
      "name": "BorrowerInitialized",
      "type": "event"
    },
    {
      "anonymous": false,
      "inputs": [
        {
          "indexed": true,
          "internalType": "address",
          "name": "registry",
          "type": "address"
        },
        {
          "indexed": false,
          "internalType": "uint256",
          "name": "timestamp",
          "type": "uint256"
        }
      ],
      "name": "BorrowersRegistryChanged",
      "type": "event"
    },
    {
      "anonymous": false,
      "inputs": [
        {
          "indexed": true,
          "internalType": "address",
          "name": "user",
          "type": "address"
        },
        {
          "indexed": false,
          "internalType": "uint256",
          "name": "value",
          "type": "uint256"
        },
        {
          "indexed": false,
          "internalType": "uint256",
          "name": "timestamp",
          "type": "uint256"
        }
      ],
      "name": "Borrowing",
      "type": "event"
    },
    {
      "anonymous": false,
      "inputs": [
        {
          "indexed": true,
          "internalType": "address",
          "name": "user",
          "type": "address"
        },
        {
          "indexed": false,
          "internalType": "uint256",
          "name": "value",
          "type": "uint256"
        },
        {
          "indexed": false,
          "internalType": "uint256",
          "name": "timestamp",
          "type": "uint256"
        }
      ],
      "name": "Deposit",
      "type": "event"
    },
    {
      "anonymous": false,
      "inputs": [
        {
          "indexed": true,
          "internalType": "address",
          "name": "user",
          "type": "address"
        },
        {
          "indexed": false,
          "internalType": "uint256",
          "name": "amount",
          "type": "uint256"
        },
        {
          "indexed": false,
          "internalType": "uint256",
          "name": "lockTime",
          "type": "uint256"
        },
        {
          "indexed": false,
          "internalType": "uint256",
          "name": "unlockTime",
          "type": "uint256"
        }
      ],
      "name": "DepositLocked",
      "type": "event"
    },
    {
      "anonymous": false,
      "inputs": [
        {
          "indexed": true,
          "internalType": "address",
          "name": "user",
          "type": "address"
        },
        {
          "indexed": true,
          "internalType": "address",
          "name": "_of",
          "type": "address"
        },
        {
          "indexed": false,
          "internalType": "uint256",
          "name": "value",
          "type": "uint256"
        },
        {
          "indexed": false,
          "internalType": "uint256",
          "name": "timestamp",
          "type": "uint256"
        }
      ],
      "name": "DepositOnBehalfOf",
      "type": "event"
    },
    {
      "anonymous": false,
      "inputs": [
        {
          "indexed": true,
          "internalType": "address",
          "name": "user",
          "type": "address"
        },
        {
          "indexed": true,
          "internalType": "address",
          "name": "depositor",
          "type": "address"
        },
        {
          "indexed": false,
          "internalType": "uint256",
          "name": "value",
          "type": "uint256"
        },
        {
          "indexed": false,
          "internalType": "uint256",
          "name": "timestamp",
          "type": "uint256"
        }
      ],
      "name": "DepositorInitialized",
      "type": "event"
    },
    {
      "anonymous": false,
      "inputs": [
        {
          "indexed": false,
          "internalType": "uint8",
          "name": "version",
          "type": "uint8"
        }
      ],
      "name": "Initialized",
      "type": "event"
    },
    {
      "anonymous": false,
      "inputs": [
        {
          "indexed": true,
          "internalType": "address",
          "name": "user",
          "type": "address"
        },
        {
          "indexed": false,
          "internalType": "uint256",
          "name": "value",
          "type": "uint256"
        },
        {
          "indexed": false,
          "internalType": "uint256",
          "name": "timestamp",
          "type": "uint256"
        }
      ],
      "name": "InterestCollected",
      "type": "event"
    },
    {
      "anonymous": false,
      "inputs": [
        {
          "indexed": true,
          "internalType": "address",
          "name": "from",
          "type": "address"
        },
        {
          "indexed": true,
          "internalType": "address",
          "name": "to",
          "type": "address"
        }
      ],
      "name": "OwnershipTransferRequested",
      "type": "event"
    },
    {
      "anonymous": false,
      "inputs": [
        {
          "indexed": true,
          "internalType": "address",
          "name": "previousOwner",
          "type": "address"
        },
        {
          "indexed": true,
          "internalType": "address",
          "name": "newOwner",
          "type": "address"
        }
      ],
      "name": "OwnershipTransferred",
      "type": "event"
    },
    {
      "anonymous": false,
      "inputs": [
        {
          "indexed": true,
          "internalType": "address",
          "name": "poolRewarder",
          "type": "address"
        },
        {
          "indexed": false,
          "internalType": "uint256",
          "name": "timestamp",
          "type": "uint256"
        }
      ],
      "name": "PoolRewarderChanged",
      "type": "event"
    },
    {
      "anonymous": false,
      "inputs": [
        {
          "indexed": true,
          "internalType": "address",
          "name": "calculator",
          "type": "address"
        },
        {
          "indexed": false,
          "internalType": "uint256",
          "name": "timestamp",
          "type": "uint256"
        }
      ],
      "name": "RatesCalculatorChanged",
      "type": "event"
    },
    {
      "anonymous": false,
      "inputs": [
        {
          "indexed": true,
          "internalType": "address",
          "name": "user",
          "type": "address"
        },
        {
          "indexed": false,
          "internalType": "uint256",
          "name": "value",
          "type": "uint256"
        },
        {
          "indexed": false,
          "internalType": "uint256",
          "name": "timestamp",
          "type": "uint256"
        }
      ],
      "name": "Repayment",
      "type": "event"
    },
    {
      "anonymous": false,
      "inputs": [
        {
          "indexed": true,
          "internalType": "address",
          "name": "from",
          "type": "address"
        },
        {
          "indexed": true,
          "internalType": "address",
          "name": "to",
          "type": "address"
        },
        {
          "indexed": false,
          "internalType": "uint256",
          "name": "value",
          "type": "uint256"
        }
      ],
      "name": "Transfer",
      "type": "event"
    },
    {
      "anonymous": false,
      "inputs": [
        {
          "indexed": true,
          "internalType": "address",
          "name": "distributor",
          "type": "address"
        },
        {
          "indexed": false,
          "internalType": "uint256",
          "name": "timestamp",
          "type": "uint256"
        }
      ],
      "name": "VestingDistributorChanged",
      "type": "event"
    },
    {
      "anonymous": false,
      "inputs": [
        {
          "indexed": true,
          "internalType": "address",
          "name": "user",
          "type": "address"
        },
        {
          "indexed": false,
          "internalType": "uint256",
          "name": "value",
          "type": "uint256"
        },
        {
          "indexed": false,
          "internalType": "uint256",
          "name": "timestamp",
          "type": "uint256"
        }
      ],
      "name": "Withdrawal",
      "type": "event"
    },
    {
      "inputs": [],
      "name": "MAX_LOCK_TIME",
      "outputs": [
        {
          "internalType": "uint256",
          "name": "",
          "type": "uint256"
        }
      ],
      "stateMutability": "view",
      "type": "function"
    },
    {
      "inputs": [],
      "name": "acceptOwnership",
      "outputs": [],
      "stateMutability": "nonpayable",
      "type": "function"
    },
    {
      "inputs": [
        {
          "internalType": "address",
          "name": "owner",
          "type": "address"
        },
        {
          "internalType": "address",
          "name": "spender",
          "type": "address"
        }
      ],
      "name": "allowance",
      "outputs": [
        {
          "internalType": "uint256",
          "name": "",
          "type": "uint256"
        }
      ],
      "stateMutability": "view",
      "type": "function"
    },
    {
      "inputs": [
        {
          "internalType": "address",
          "name": "spender",
          "type": "address"
        },
        {
          "internalType": "uint256",
          "name": "amount",
          "type": "uint256"
        }
      ],
      "name": "approve",
      "outputs": [
        {
          "internalType": "bool",
          "name": "",
          "type": "bool"
        }
      ],
      "stateMutability": "nonpayable",
      "type": "function"
    },
    {
      "inputs": [
        {
          "internalType": "address",
          "name": "user",
          "type": "address"
        }
      ],
      "name": "balanceOf",
      "outputs": [
        {
          "internalType": "uint256",
          "name": "",
          "type": "uint256"
        }
      ],
      "stateMutability": "view",
      "type": "function"
    },
    {
      "inputs": [
        {
          "internalType": "uint256",
          "name": "_amount",
          "type": "uint256"
        }
      ],
      "name": "borrow",
      "outputs": [],
      "stateMutability": "nonpayable",
      "type": "function"
    },
    {
      "inputs": [],
      "name": "borrowIndex",
      "outputs": [
        {
          "internalType": "contract IIndex",
          "name": "",
          "type": "address"
        }
      ],
      "stateMutability": "view",
      "type": "function"
    },
    {
      "inputs": [
        {
          "internalType": "address",
          "name": "",
          "type": "address"
        }
      ],
      "name": "borrowed",
      "outputs": [
        {
          "internalType": "uint256",
          "name": "",
          "type": "uint256"
        }
      ],
      "stateMutability": "view",
      "type": "function"
    },
    {
      "inputs": [],
      "name": "borrowersRegistry",
      "outputs": [
        {
          "internalType": "contract IBorrowersRegistry",
          "name": "",
          "type": "address"
        }
      ],
      "stateMutability": "view",
      "type": "function"
    },
    {
      "inputs": [],
      "name": "checkRewards",
      "outputs": [
        {
          "internalType": "uint256",
          "name": "",
          "type": "uint256"
        }
      ],
      "stateMutability": "view",
      "type": "function"
    },
    {
      "inputs": [],
      "name": "containsOracleCalldata",
      "outputs": [
        {
          "internalType": "bool",
          "name": "",
          "type": "bool"
        }
      ],
      "stateMutability": "view",
      "type": "function"
    },
    {
      "inputs": [],
      "name": "decimals",
      "outputs": [
        {
          "internalType": "uint8",
          "name": "decimals",
          "type": "uint8"
        }
      ],
      "stateMutability": "pure",
      "type": "function"
    },
    {
      "inputs": [
        {
          "internalType": "address",
          "name": "spender",
          "type": "address"
        },
        {
          "internalType": "uint256",
          "name": "subtractedValue",
          "type": "uint256"
        }
      ],
      "name": "decreaseAllowance",
      "outputs": [
        {
          "internalType": "bool",
          "name": "",
          "type": "bool"
        }
      ],
      "stateMutability": "nonpayable",
      "type": "function"
    },
    {
      "inputs": [
        {
          "internalType": "uint256",
          "name": "_amount",
          "type": "uint256"
        }
      ],
      "name": "deposit",
      "outputs": [],
      "stateMutability": "nonpayable",
      "type": "function"
    },
    {
      "inputs": [],
      "name": "depositIndex",
      "outputs": [
        {
          "internalType": "contract IIndex",
          "name": "",
          "type": "address"
        }
      ],
      "stateMutability": "view",
      "type": "function"
    },
    {
      "inputs": [
        {
          "internalType": "uint256",
          "name": "_amount",
          "type": "uint256"
        },
        {
          "internalType": "address",
          "name": "_of",
          "type": "address"
        }
      ],
      "name": "depositOnBehalf",
      "outputs": [],
      "stateMutability": "nonpayable",
      "type": "function"
    },
    {
      "inputs": [],
      "name": "extractTimestampsAndAssertAllAreEqual",
      "outputs": [
        {
          "internalType": "uint256",
          "name": "extractedTimestamp",
          "type": "uint256"
        }
      ],
      "stateMutability": "pure",
      "type": "function"
    },
    {
      "inputs": [
        {
          "internalType": "address",
          "name": "_user",
          "type": "address"
        }
      ],
      "name": "getBorrowed",
      "outputs": [
        {
          "internalType": "uint256",
          "name": "",
          "type": "uint256"
        }
      ],
      "stateMutability": "view",
      "type": "function"
    },
    {
      "inputs": [],
      "name": "getBorrowingRate",
      "outputs": [
        {
          "internalType": "uint256",
          "name": "",
          "type": "uint256"
        }
      ],
      "stateMutability": "view",
      "type": "function"
    },
    {
      "inputs": [],
      "name": "getDepositRate",
      "outputs": [
        {
          "internalType": "uint256",
          "name": "",
          "type": "uint256"
        }
      ],
      "stateMutability": "view",
      "type": "function"
    },
    {
      "inputs": [],
      "name": "getFullPoolStatus",
      "outputs": [
        {
          "internalType": "uint256[5]",
          "name": "",
          "type": "uint256[5]"
        }
      ],
      "stateMutability": "view",
      "type": "function"
    },
    {
      "inputs": [
        {
          "internalType": "address",
          "name": "account",
          "type": "address"
        }
      ],
      "name": "getFullyVestedLockedBalance",
      "outputs": [
        {
          "internalType": "uint256",
          "name": "fullyVestedBalance",
          "type": "uint256"
        }
      ],
      "stateMutability": "view",
      "type": "function"
    },
    {
      "inputs": [
        {
          "internalType": "address",
          "name": "account",
          "type": "address"
        }
      ],
      "name": "getLockedBalance",
      "outputs": [
        {
          "internalType": "uint256",
          "name": "",
          "type": "uint256"
        }
      ],
      "stateMutability": "view",
      "type": "function"
    },
    {
      "inputs": [],
      "name": "getMaxPoolUtilisationForBorrowing",
      "outputs": [
        {
          "internalType": "uint256",
          "name": "",
          "type": "uint256"
        }
      ],
      "stateMutability": "view",
      "type": "function"
    },
    {
      "inputs": [
        {
          "internalType": "address",
          "name": "account",
          "type": "address"
        }
      ],
      "name": "getNotLockedBalance",
      "outputs": [
        {
          "internalType": "uint256",
          "name": "notLockedBalance",
          "type": "uint256"
        }
      ],
      "stateMutability": "view",
      "type": "function"
    },
    {
      "inputs": [],
      "name": "getRewards",
      "outputs": [],
      "stateMutability": "nonpayable",
      "type": "function"
    },
    {
      "inputs": [],
      "name": "getVPrimeControllerAddress",
      "outputs": [
        {
          "internalType": "address",
          "name": "",
          "type": "address"
        }
      ],
      "stateMutability": "view",
      "type": "function"
    },
    {
      "inputs": [
        {
          "internalType": "address",
          "name": "spender",
          "type": "address"
        },
        {
          "internalType": "uint256",
          "name": "addedValue",
          "type": "uint256"
        }
      ],
      "name": "increaseAllowance",
      "outputs": [
        {
          "internalType": "bool",
          "name": "",
          "type": "bool"
        }
      ],
      "stateMutability": "nonpayable",
      "type": "function"
    },
    {
      "inputs": [
        {
          "internalType": "contract IRatesCalculator",
          "name": "ratesCalculator_",
          "type": "address"
        },
        {
          "internalType": "contract IBorrowersRegistry",
          "name": "borrowersRegistry_",
          "type": "address"
        },
        {
          "internalType": "contract IIndex",
          "name": "depositIndex_",
          "type": "address"
        },
        {
          "internalType": "contract IIndex",
          "name": "borrowIndex_",
          "type": "address"
        },
        {
          "internalType": "address payable",
          "name": "tokenAddress_",
          "type": "address"
        },
        {
          "internalType": "contract IPoolRewarder",
          "name": "poolRewarder_",
          "type": "address"
        },
        {
          "internalType": "uint256",
          "name": "totalSupplyCap_",
          "type": "uint256"
        }
      ],
      "name": "initialize",
      "outputs": [],
      "stateMutability": "nonpayable",
      "type": "function"
    },
    {
      "inputs": [
        {
          "internalType": "address[]",
          "name": "borrowers",
          "type": "address[]"
        },
        {
          "internalType": "uint256[]",
          "name": "amounts",
          "type": "uint256[]"
        }
      ],
      "name": "initializeBorrows",
      "outputs": [],
      "stateMutability": "nonpayable",
      "type": "function"
    },
    {
      "inputs": [
        {
          "internalType": "address[]",
          "name": "depositors",
          "type": "address[]"
        },
        {
          "internalType": "uint256[]",
          "name": "depositAmounts",
          "type": "uint256[]"
        }
      ],
      "name": "initializeDeposits",
      "outputs": [],
      "stateMutability": "nonpayable",
      "type": "function"
    },
    {
      "inputs": [
        {
          "internalType": "address",
          "name": "account",
          "type": "address"
        },
        {
          "internalType": "uint256",
          "name": "amount",
          "type": "uint256"
        }
      ],
      "name": "isWithdrawalAmountAvailable",
      "outputs": [
        {
          "internalType": "bool",
          "name": "",
          "type": "bool"
        }
      ],
      "stateMutability": "view",
      "type": "function"
    },
    {
      "inputs": [
        {
          "internalType": "uint256",
          "name": "amount",
          "type": "uint256"
        },
        {
          "internalType": "uint256",
          "name": "lockTime",
          "type": "uint256"
        }
      ],
      "name": "lockDeposit",
      "outputs": [],
      "stateMutability": "nonpayable",
      "type": "function"
    },
    {
      "inputs": [
        {
          "internalType": "address",
          "name": "",
          "type": "address"
        },
        {
          "internalType": "uint256",
          "name": "",
          "type": "uint256"
        }
      ],
      "name": "locks",
      "outputs": [
        {
          "internalType": "uint256",
          "name": "lockTime",
          "type": "uint256"
        },
        {
          "internalType": "uint256",
          "name": "amount",
          "type": "uint256"
        },
        {
          "internalType": "uint256",
          "name": "unlockTime",
          "type": "uint256"
        }
      ],
      "stateMutability": "view",
      "type": "function"
    },
    {
      "inputs": [],
      "name": "name",
      "outputs": [
        {
          "internalType": "string",
          "name": "_name",
          "type": "string"
        }
      ],
      "stateMutability": "pure",
      "type": "function"
    },
    {
      "inputs": [],
      "name": "owner",
      "outputs": [
        {
          "internalType": "address",
          "name": "",
          "type": "address"
        }
      ],
      "stateMutability": "view",
      "type": "function"
    },
    {
      "inputs": [],
      "name": "pendingOwner",
      "outputs": [
        {
          "internalType": "address",
          "name": "",
          "type": "address"
        }
      ],
      "stateMutability": "view",
      "type": "function"
    },
    {
      "inputs": [],
      "name": "poolRewarder",
      "outputs": [
        {
          "internalType": "contract IPoolRewarder",
          "name": "",
          "type": "address"
        }
      ],
      "stateMutability": "view",
      "type": "function"
    },
    {
      "inputs": [],
      "name": "ratesCalculator",
      "outputs": [
        {
          "internalType": "contract IRatesCalculator",
          "name": "",
          "type": "address"
        }
      ],
      "stateMutability": "view",
      "type": "function"
    },
    {
      "inputs": [
        {
          "internalType": "uint256",
          "name": "amount",
          "type": "uint256"
        },
        {
          "internalType": "address",
          "name": "account",
          "type": "address"
        }
      ],
      "name": "recoverSurplus",
      "outputs": [],
      "stateMutability": "nonpayable",
      "type": "function"
    },
    {
      "inputs": [],
      "name": "renounceOwnership",
      "outputs": [],
      "stateMutability": "nonpayable",
      "type": "function"
    },
    {
      "inputs": [
        {
          "internalType": "uint256",
          "name": "amount",
          "type": "uint256"
        }
      ],
      "name": "repay",
      "outputs": [],
      "stateMutability": "nonpayable",
      "type": "function"
    },
    {
      "inputs": [
        {
          "internalType": "contract IBorrowersRegistry",
          "name": "borrowersRegistry_",
          "type": "address"
        }
      ],
      "name": "setBorrowersRegistry",
      "outputs": [],
      "stateMutability": "nonpayable",
      "type": "function"
    },
    {
      "inputs": [
        {
          "internalType": "contract IPoolRewarder",
          "name": "_poolRewarder",
          "type": "address"
        }
      ],
      "name": "setPoolRewarder",
      "outputs": [],
      "stateMutability": "nonpayable",
      "type": "function"
    },
    {
      "inputs": [
        {
          "internalType": "contract IRatesCalculator",
          "name": "ratesCalculator_",
          "type": "address"
        }
      ],
      "name": "setRatesCalculator",
      "outputs": [],
      "stateMutability": "nonpayable",
      "type": "function"
    },
    {
      "inputs": [
        {
          "internalType": "contract ITokenManager",
          "name": "_tokenManager",
          "type": "address"
        }
      ],
      "name": "setTokenManager",
      "outputs": [],
      "stateMutability": "nonpayable",
      "type": "function"
    },
    {
      "inputs": [
        {
          "internalType": "uint256",
          "name": "_newTotalSupplyCap",
          "type": "uint256"
        }
      ],
      "name": "setTotalSupplyCap",
      "outputs": [],
      "stateMutability": "nonpayable",
      "type": "function"
    },
    {
      "inputs": [
        {
          "internalType": "address",
          "name": "_distributor",
          "type": "address"
        }
      ],
      "name": "setVestingDistributor",
      "outputs": [],
      "stateMutability": "nonpayable",
      "type": "function"
    },
    {
      "inputs": [],
      "name": "symbol",
      "outputs": [
        {
          "internalType": "string",
          "name": "_symbol",
          "type": "string"
        }
      ],
      "stateMutability": "pure",
      "type": "function"
    },
    {
      "inputs": [],
      "name": "tokenAddress",
      "outputs": [
        {
          "internalType": "address payable",
          "name": "",
          "type": "address"
        }
      ],
      "stateMutability": "view",
      "type": "function"
    },
    {
      "inputs": [],
      "name": "tokenManager",
      "outputs": [
        {
          "internalType": "contract ITokenManager",
          "name": "",
          "type": "address"
        }
      ],
      "stateMutability": "view",
      "type": "function"
    },
    {
      "inputs": [],
      "name": "totalBorrowed",
      "outputs": [
        {
          "internalType": "uint256",
          "name": "",
          "type": "uint256"
        }
      ],
      "stateMutability": "view",
      "type": "function"
    },
    {
      "inputs": [],
      "name": "totalSupply",
      "outputs": [
        {
          "internalType": "uint256",
          "name": "",
          "type": "uint256"
        }
      ],
      "stateMutability": "view",
      "type": "function"
    },
    {
      "inputs": [],
      "name": "totalSupplyCap",
      "outputs": [
        {
          "internalType": "uint256",
          "name": "",
          "type": "uint256"
        }
      ],
      "stateMutability": "view",
      "type": "function"
    },
    {
      "inputs": [
        {
          "internalType": "address",
          "name": "recipient",
          "type": "address"
        },
        {
          "internalType": "uint256",
          "name": "amount",
          "type": "uint256"
        }
      ],
      "name": "transfer",
      "outputs": [
        {
          "internalType": "bool",
          "name": "",
          "type": "bool"
        }
      ],
      "stateMutability": "nonpayable",
      "type": "function"
    },
    {
      "inputs": [
        {
          "internalType": "address",
          "name": "sender",
          "type": "address"
        },
        {
          "internalType": "address",
          "name": "recipient",
          "type": "address"
        },
        {
          "internalType": "uint256",
          "name": "amount",
          "type": "uint256"
        }
      ],
      "name": "transferFrom",
      "outputs": [
        {
          "internalType": "bool",
          "name": "",
          "type": "bool"
        }
      ],
      "stateMutability": "nonpayable",
      "type": "function"
    },
    {
      "inputs": [
        {
          "internalType": "address",
          "name": "newOwner",
          "type": "address"
        }
      ],
      "name": "transferOwnership",
      "outputs": [],
      "stateMutability": "nonpayable",
      "type": "function"
    },
    {
      "inputs": [],
      "name": "vestingDistributor",
      "outputs": [
        {
          "internalType": "contract VestingDistributor",
          "name": "",
          "type": "address"
        }
      ],
      "stateMutability": "view",
      "type": "function"
    },
    {
      "inputs": [
        {
          "internalType": "uint256",
          "name": "_amount",
          "type": "uint256"
        }
      ],
      "name": "withdraw",
      "outputs": [],
      "stateMutability": "nonpayable",
      "type": "function"
    }
  ],
  "transactionHash": "0x6d9c9c28e0f43b7a3b1381ea05c9c7178a727d18cdaf2f8e808d4a8c3c84b785",
  "args": [],
  "numDeployments": 4,
  "solcInputHash": "2351a2b95a76b1dbe9e6ac8e04b8d032",
  "bytecode": "0x608060405234801561001057600080fd5b5061433d806100206000396000f3fe608060405234801561001057600080fd5b50600436106102a95760003560e01c80630572b0cc146102ae57806306fdde03146102b85780630790ef9a146102f957806307bbebdd1461030c5780630941cb3d1461032c578063095ea7b31461035a5780630d1870df1461037d5780631457db34146103855780631460e3901461039857806318160ddd146103ab57806323b872dd146103b357806329194a7c146103c65780632a709b14146103d95780632aeaa291146103ec5780632e1a7d4d146103f4578063313ce5671461040757806331d05b1114610416578063371fd8e614610429578063395093511461043c57806341da9b541461044f5780634c19386c1461046257806355a547d51461046a5780636011163e1461047257806361215aa8146104855780636ca6d5d0146104935780636cf55ea2146104a657806370a08231146104b957806370d4cea0146104cc578063715018a6146102b6578063726cd415146104df57806379ba5097146104e75780637b898939146104ef5780637cb2b79c146105025780637f75ad0f146105155780638c1a3811146105285780638da5cb5b1461053b57806395d89b41146105435780639d76ea5814610564578063a457c2d714610577578063a9059cbb1461058a578063aa5af0fd1461059d578063ab9eb148146105b0578063b425f802146105c3578063b6b55f25146105f1578063b75c42bd14610604578063b790634e14610619578063bb102aea14610621578063c40868931461062a578063c4ce63581461063d578063c5ebeaec14610650578063d06dca8914610663578063dd62ed3e14610676578063e2b9442e146106af578063e30c3978146106c2578063ee61bd6e146106ca578063f2fde38b146106dd578063f36b2425146106f0578063fa78668f146106f8578063fc68f66114610703575b600080fd5b6102b6610716565b005b60408051808201909152601381527244656c74615072696d6541726269627472756d60681b60208201525b6040516102f09190613d85565b60405180910390f35b6102b6610307366004613dad565b61077a565b60a15461031f906001600160a01b031681565b6040516102f09190613ddd565b61034c61033a366004613df1565b609a6020526000908152604090205481565b6040519081526020016102f0565b61036d610368366004613e0e565b610882565b60405190151581526020016102f0565b61036d6108fe565b6102b6610393366004613df1565b610912565b6102b66103a6366004613e3a565b6109b6565b61034c610c62565b61036d6103c1366004613ec7565b610c72565b6102b66103d4366004613f53565b610fa7565b60a35461031f906001600160a01b031681565b61034c611184565b6102b6610402366004613fbe565b6111f4565b604051601281526020016102f0565b6102b6610424366004613fbe565b611453565b6102b6610437366004613fbe565b611460565b61036d61044a366004613e0e565b611549565b61036d61045d366004613e0e565b6115f6565b61034c61160b565b61034c611616565b61034c610480366004613df1565b61172e565b670cd64299613c800061034c565b609d5461031f906001600160a01b031681565b6102b66104b4366004613dad565b6117b5565b61034c6104c7366004613df1565b611a23565b6102b66104da366004613df1565b611a69565b61031f611b17565b6102b6611ba8565b609e5461031f906001600160a01b031681565b6102b6610510366004613df1565b611c37565b61034c610523366004613df1565b611c61565b6102b6610536366004613df1565b611ca6565b61031f611d3a565b604080518082019091526005815264222820a92160d91b60208201526102e3565b60a05461031f906001600160a01b031681565b61036d610585366004613e0e565b611d49565b61036d610598366004613e0e565b611e1d565b609f5461031f906001600160a01b031681565b6102b66105be366004613f53565b61209b565b6105d66105d1366004613e0e565b61236c565b604080519384526020840192909252908201526060016102f0565b6102b66105ff366004613fbe565b6123ae565b61060c6123b8565b6040516102f09190613fd7565b61034c61240f565b61034c60975481565b61034c610638366004613df1565b612450565b61034c61064b366004613df1565b61251d565b6102b661065e366004613fbe565b61263d565b609c5461031f906001600160a01b031681565b61034c610684366004614008565b6001600160a01b03918216600090815260986020908152604080832093909416825291909152205490565b6102b66106bd366004614036565b6128ba565b61031f612a2b565b609b5461031f906001600160a01b031681565b6102b66106eb366004613df1565b612a35565b61034c612afc565b61034c6305a39a8081565b6102b6610711366004613df1565b612b18565b609d546040516311305c1f60e11b81526001600160a01b0390911690632260b83e90610746903390600401613ddd565b600060405180830381600087803b15801561076057600080fd5b505af1158015610774573d6000803e3d6000fd5b50505050565b610782612b96565b61078a612bf5565b60a0546040516370a0823160e01b81526000916001600160a01b0316906370a08231906107bb903090600401613ddd565b602060405180830381865afa1580156107d8573d6000803e3d6000fd5b505050506040513d601f19601f820116820180604052508101906107fc9190614058565b90506000610808610c62565b61081061160b565b61081a9084614087565b610824919061409a565b905081841115610847576040516316d5c93f60e21b815260040160405180910390fd5b83811015610868576040516394290ab960e01b815260040160405180910390fd5b6108728385612c4e565b505061087e6001606555565b5050565b60006001600160a01b0383166108ab57604051633d6601c760e11b815260040160405180910390fd5b3360008181526098602090815260408083206001600160a01b03881680855290835292819020869055518581529192916000805160206142e8833981519152910160405180910390a35060015b92915050565b6602ed57011e0000601f1936013581161490565b61091a612b96565b61092381612c6c565b15801561093857506001600160a01b03811615155b1561096157806040516322a2d07b60e21b81526004016109589190613ddd565b60405180910390fd5b609d80546001600160a01b0319166001600160a01b0383169081179091556040514281527f85796821ee1d670b0fdb986f256b5c1a29b9019038831c7f09df2061879cf9e5906020015b60405180910390a250565b600054610100900460ff16158080156109d65750600054600160ff909116105b806109f757506109e530612c6c565b1580156109f7575060005460ff166001145b610a5a5760405162461bcd60e51b815260206004820152602e60248201527f496e697469616c697a61626c653a20636f6e747261637420697320616c72656160448201526d191e481a5b9a5d1a585b1a5e995960921b6064820152608401610958565b6000805460ff191660011790558015610a7d576000805461ff0019166101001790555b610a8688612c6c565b8015610a965750610a9687612c6c565b8015610aa65750610aa686612c6c565b8015610ab65750610ab685612c6c565b8015610ad85750610ac683612c6c565b80610ad857506001600160a01b038316155b610b1b5760405162461bcd60e51b815260206004820152601460248201527357726f6e6720696e697420617267756d656e747360601b6044820152606401610958565b609c80546001600160a01b03199081166001600160a01b038a811691909117909255609b805482168b8416179055609e80548216898416179055609f80548216888416179055609d8054821686841617905560a08054909116918616918217905560978390556040805163313ce56760e01b8152905163313ce567916004818101926020929091908290030181865afa158015610bbc573d6000803e3d6000fd5b505050506040513d601f19601f82011682018060405250810190610be091906140ad565b60a160146101000a81548160ff021916908360ff160217905550610c02612c7b565b610c0a612caa565b610c12612cd9565b8015610c58576000805461ff0019169055604051600181527f7f26b83ff96e1f2b6a682f133852f6798a09c465da95921460cefb38474024989060200160405180910390a15b5050505050505050565b6000610c6d30611a23565b905090565b6000610c7c612bf5565b6001600160a01b0384166000908152609860209081526040808320338452909152902054821115610ce7576001600160a01b03841660009081526098602090815260408083203384529091529081902054905163054365bb60e31b81526109589184916004016140d0565b6001600160a01b038316610d0e57604051633a954ecd60e21b815260040160405180910390fd5b306001600160a01b03841603610d375760405163ed728e5760e01b815260040160405180910390fd5b610d4084612ebc565b600080610d4c86612fe7565b9150915080841115610d755783816040516350d2479d60e11b81526004016109589291906140d0565b610d8086858461313a565b6001600160a01b03861660009081526099602052604081208054869290610da890849061409a565b90915550506001600160a01b038616600090815260986020908152604080832033845290915281208054869290610de090849061409a565b90915550610def905085612ebc565b6001600160a01b03851660009081526099602052604081208054869290610e17908490614087565b9091555050609d546001600160a01b031615801590610e3557508315155b8015610e475750610e45866131e5565b155b8015610e595750610e57856131e5565b155b15610f4357609d54604051630d5dbdb360e21b81526000916001600160a01b031690633576f6cc90610e919088908b906004016140de565b6020604051808303816000875af1158015610eb0573d6000803e3d6000fd5b505050506040513d601f19601f82011682018060405250810190610ed49190614058565b90508015610f4157609d546040516328ba35d960e11b81526001600160a01b03909116906351746bb290610f0e9084908a906004016140de565b600060405180830381600087803b158015610f2857600080fd5b505af1158015610f3c573d6000803e3d6000fd5b505050505b505b846001600160a01b0316866001600160a01b03166000805160206142c883398151915286604051610f7691815260200190565b60405180910390a3610f8786613291565b610f9085613291565b600192505050610fa06001606555565b9392505050565b610faf612bf5565b610fb7612b96565b828114610fd65760405162461bcd60e51b8152600401610958906140f5565b60005b83811015611179576000858583818110610ff557610ff5614125565b905060200201602081019061100a9190613df1565b9050600084848481811061102057611020614125565b90506020020135905061103282613330565b61104f57604051637582fa9b60e11b815260040160405180910390fd5b6001600160a01b0382166000908152609a6020526040902054156110b45760405162461bcd60e51b815260206004820152601c60248201527b109bdc9c9bddd95c88185b1c9958591e481a5b9a5d1a585b1a5e995960221b6044820152606401610958565b6110bd826133f2565b6001600160a01b0382166000908152609a6020526040812080548392906110e5908490614087565b9091555050306000908152609a602052604081208054839290611109908490614087565b909155506111179050612cd9565b816001600160a01b0316336001600160a01b03167f3b9a3aee39a2a7e2a67dfc91feeddddff04dccb47d2f13be4d8938e08ffae5c9834260405161115c9291906140d0565b60405180910390a3505080806111719061413b565b915050610fd9565b506107746001606555565b609d546040516246613160e11b81526000916001600160a01b031690628cc262906111b3903390600401613ddd565b602060405180830381865afa1580156111d0573d6000803e3d6000fd5b505050506040513d601f19601f82011682018060405250810190610c6d9190614058565b6111fc612bf5565b61120633826115f6565b6112465760405162461bcd60e51b815260206004820152601160248201527010985b185b98d9481a5cc81b1bd8dad959607a1b6044820152606401610958565b61124f33612ebc565b3360009081526099602052604090205461126a9082906134f8565b60a0546040516370a0823160e01b81529192506001600160a01b0316906370a082319061129b903090600401613ddd565b602060405180830381865afa1580156112b8573d6000803e3d6000fd5b505050506040513d601f19601f820116820180604052508101906112dc9190614058565b8111156112fc576040516316d5c93f60e21b815260040160405180910390fd5b3060009081526099602052604090205481111561132c57604051630bba337f60e11b815260040160405180910390fd5b3060009081526099602052604090208054829003905561134c338261350e565b611354612cd9565b61135e3382612c4e565b609d546001600160a01b03161580159061137e575061137c336131e5565b155b156113fa57609d54604051630d5dbdb360e21b81526001600160a01b0390911690633576f6cc906113b590849033906004016140de565b6020604051808303816000875af11580156113d4573d6000803e3d6000fd5b505050506040513d601f19601f820116820180604052508101906113f89190614058565b505b336001600160a01b03167fdf273cb619d95419a9cd0ec88123a0538c85064229baa6363788f743fff90deb82426040516114359291906140d0565b60405180910390a261144633613291565b6114506001606555565b50565b61145b612b96565b609755565b611468612bf5565b611471336133f2565b336000908152609a60205260409020548111156114a157604051630dcad43360e11b815260040160405180910390fd5b6114ab33826135cb565b336000908152609a6020526040812080548392906114ca90849061409a565b9091555050306000908152609a6020526040812080548392906114ee90849061409a565b909155506114fc9050612cd9565b336001600160a01b03167f24fcca58a997b1b2eff6db8107e860458544c09ddd3693b3b779e1df6c0d6c5d82426040516115379291906140d0565b60405180910390a26114506001606555565b60006001600160a01b03831661157257604051633d6601c760e11b815260040160405180910390fd5b3360009081526098602090815260408083206001600160a01b03871684529091528120546115a1908490614087565b3360008181526098602090815260408083206001600160a01b038a16808552908352928190208590555184815293945090926000805160206142e8833981519152910160405180910390a35060019392505050565b600061160183611c61565b9091111592915050565b6000610c6d3061172e565b6000806116216135e3565b9050600061162e8261368a565b61ffff1690508060000361165557604051632154bfcf60e21b815260040160405180910390fd5b611660600283614087565b915060005b81811015611728576000611678846136c4565b9050600080611688606887614087565b90506000611696823661409a565b9050803592508265ffffffffffff166000036116c557604051630336dc9d60e41b815260040160405180910390fd5b876000036116dd578265ffffffffffff169750611705565b878365ffffffffffff16146117055760405163d9d1f46560e01b815260040160405180910390fd5b61170f8488614087565b96505050505080806117209061413b565b915050611665565b50505090565b609f546001600160a01b038281166000908152609a602052604080822054905163966da88960e01b81529193929092169163966da88991611774919086906004016140de565b602060405180830381865afa158015611791573d6000803e3d6000fd5b505050506040513d601f19601f820116820180604052508101906108f89190614058565b6117bd612bf5565b816000036117de5760405163078e1d8560e01b815260040160405180910390fd5b6001600160a01b0381166118045760405162461bcd60e51b815260040161095890614154565b306001600160a01b0382160361182c5760405162461bcd60e51b81526004016109589061417a565b60a0546040516370a0823160e01b81526118a89184916001600160a01b03909116906370a0823190611862903390600401613ddd565b602060405180830381865afa15801561187f573d6000803e3d6000fd5b505050506040513d601f19601f820116820180604052508101906118a39190614058565b6134f8565b91506118b381612ebc565b609754156118f857609754306000908152609960205260409020546118d9908490614087565b11156118f857604051633f27d61760e01b815260040160405180910390fd5b61190233836135cb565b61190c81836136f8565b306000908152609960205260408120805484929061192b908490614087565b909155506119399050612cd9565b609d546001600160a01b0316158015906119595750611957816131e5565b155b156119c357609d546040516328ba35d960e11b81526001600160a01b03909116906351746bb29061199090859085906004016140de565b600060405180830381600087803b1580156119aa57600080fd5b505af11580156119be573d6000803e3d6000fd5b505050505b806001600160a01b0316336001600160a01b03167fef0ada5ca19bede6a40b575865a6ce451938d26835b7215e6a5e03bb2c4392128442604051611a089291906140d0565b60405180910390a3611a1981613291565b61087e6001606555565b609e546001600160a01b0382811660009081526099602052604080822054905163966da88960e01b81529193929092169163966da88991611774919086906004016140de565b611a71612b96565b611a7a81612c6c565b158015611a8f57506001600160a01b03811615155b15611aaf57806040516322a2d07b60e21b81526004016109589190613ddd565b609b80546001600160a01b0319166001600160a01b03831690811790915515611ada57611ada612cd9565b806001600160a01b03167fef1b7e9216e08b283cc613824ccb26ea505227777839a4f3c6810d64594e0182426040516109ab91815260200190565b565b60a3546000906001600160a01b031615611ba25760a360009054906101000a90046001600160a01b03166001600160a01b031663726cd4156040518163ffffffff1660e01b8152600401602060405180830381865afa158015611b7e573d6000803e3d6000fd5b505050506040513d601f19601f82011682018060405250810190610c6d91906141af565b50600090565b6000611bb261377f565b9050336001600160a01b03821614611c245760405162461bcd60e51b815260206004820152602f60248201527f50656e64696e674f776e61626c653a2063616c6c6572206973206e6f7420746860448201526e32903832b73234b7339037bbb732b960891b6064820152608401610958565b611c2d81613792565b61145060006137e4565b611c3f612b96565b60a380546001600160a01b0319166001600160a01b0392909216919091179055565b600080611c6d83612450565b90506000611c7a84611a23565b905081811015611c8d5760009250611c9f565b611c97828261409a565b949350505050565b5050919050565b611cae612b96565b611cb781612c6c565b158015611ccc57506001600160a01b03811615155b15611cec57806040516322a2d07b60e21b81526004016109589190613ddd565b60a180546001600160a01b0319166001600160a01b0383169081179091556040514281527f8e6481d1924c9bb8cdfd9d6140f3e5570c34c6c580d915144728bbbf394eed0a906020016109ab565b6033546001600160a01b031690565b60006001600160a01b038316611d7257604051633d6601c760e11b815260040160405180910390fd5b3360009081526098602090815260408083206001600160a01b038716845290915290205482811015611dbb57828160405163054365bb60e31b81526004016109589291906140d0565b6000611dc7848361409a565b3360008181526098602090815260408083206001600160a01b038b16808552908352928190208590555184815293945090926000805160206142e8833981519152910160405180910390a3506001949350505050565b6000611e27612bf5565b6001600160a01b038316611e4e57604051633a954ecd60e21b815260040160405180910390fd5b306001600160a01b03841603611e775760405163ed728e5760e01b815260040160405180910390fd5b33611e8181612ebc565b600080611e8d83612fe7565b9150915080851115611eb65784816040516350d2479d60e11b81526004016109589291906140d0565b611ec183868461313a565b6001600160a01b038316600090815260996020526040902080548690039055611ee986612ebc565b6001600160a01b03861660009081526099602052604081208054879290611f11908490614087565b9091555050609d546001600160a01b031615801590611f2f57508415155b8015611f415750611f3f836131e5565b155b8015611f535750611f51866131e5565b155b1561203d57609d54604051630d5dbdb360e21b81526000916001600160a01b031690633576f6cc90611f8b90899088906004016140de565b6020604051808303816000875af1158015611faa573d6000803e3d6000fd5b505050506040513d601f19601f82011682018060405250810190611fce9190614058565b9050801561203b57609d546040516328ba35d960e11b81526001600160a01b03909116906351746bb2906120089084908b906004016140de565b600060405180830381600087803b15801561202257600080fd5b505af1158015612036573d6000803e3d6000fd5b505050505b505b856001600160a01b0316836001600160a01b03166000805160206142c88339815191528760405161207091815260200190565b60405180910390a361208133613291565b61208a86613291565b600193505050506108f86001606555565b6120a3612bf5565b6120ab612b96565b8083146120ca5760405162461bcd60e51b8152600401610958906140f5565b60005b838110156111795760008383838181106120e9576120e9614125565b905060200201359050600086868481811061210657612106614125565b905060200201602081019061211b9190613df1565b90508160000361213e5760405163078e1d8560e01b815260040160405180910390fd5b6001600160a01b0381166121645760405162461bcd60e51b815260040161095890614154565b306001600160a01b0382160361218c5760405162461bcd60e51b81526004016109589061417a565b6001600160a01b038116600090815260996020526040902054156121f25760405162461bcd60e51b815260206004820152601d60248201527f4465706f7369746f7220616c726561647920696e697469616c697a65640000006044820152606401610958565b6121fb81612ebc565b609754156122405760975430600090815260996020526040902054612221908490614087565b111561224057604051633f27d61760e01b815260040160405180910390fd5b61224a81836136f8565b3060009081526099602052604081208054849290612269908490614087565b909155506122779050612cd9565b609d546001600160a01b0316158015906122975750612295816131e5565b155b1561230157609d546040516328ba35d960e11b81526001600160a01b03909116906351746bb2906122ce90859085906004016140de565b600060405180830381600087803b1580156122e857600080fd5b505af11580156122fc573d6000803e3d6000fd5b505050505b806001600160a01b0316336001600160a01b03167fb5a680d9a22629ee5eef8f54bfbe6204ddb674ca26425ddadb06cb4b53313d5684426040516123469291906140d0565b60405180910390a361235781613291565b505080806123649061413b565b9150506120cd565b60a2602052816000526040600020818154811061238857600080fd5b600091825260209091206003909102018054600182015460029092015490935090915083565b61145081336117b5565b6123c0613d17565b6040518060a001604052806123d3610c62565b81526020016123e061240f565b81526020016123ed612afc565b81526020016123fa61160b565b8152602001670cd64299613c80009052919050565b609b546000906001600160a01b0316637cd0833161242b61160b565b612433610c62565b6040518363ffffffff1660e01b81526004016111b39291906140d0565b600080805b6001600160a01b038416600090815260a26020526040902054811015612516576001600160a01b038416600090815260a2602052604090208054429190839081106124a2576124a2614125565b9060005260206000209060030201600201541115612504576001600160a01b038416600090815260a2602052604090208054829081106124e4576124e4614125565b906000526020600020906003020160010154826125019190614087565b91505b8061250e8161413b565b915050612455565b5092915050565b6000805b6001600160a01b038316600090815260a26020526040902054811015612637576001600160a01b038316600090815260a26020526040902080544291908390811061256e5761256e614125565b9060005260206000209060030201600201541115612625576001600160a01b038316600090815260a26020526040902080546305a39a809190839081106125b7576125b7614125565b600091825260208083206003909202909101546001600160a01b038716835260a290915260409091208054849081106125f2576125f2614125565b90600052602060002090600302016001015461260e91906141cc565b61261891906141e3565b6126229083614087565b91505b8061262f8161413b565b915050612521565b50919050565b609c546001600160a01b031661266657604051631c038dab60e21b815260040160405180910390fd5b609c5460405163039ff21960e21b81526001600160a01b0390911690630e7fc86490612696903390600401613ddd565b602060405180830381865afa1580156126b3573d6000803e3d6000fd5b505050506040513d601f19601f820116820180604052508101906126d79190614205565b6126f457604051637582fa9b60e11b815260040160405180910390fd5b6126fc610c62565b60000361271c576040516316d5c93f60e21b815260040160405180910390fd5b612724612bf5565b60a0546040516370a0823160e01b81526001600160a01b03909116906370a0823190612754903090600401613ddd565b602060405180830381865afa158015612771573d6000803e3d6000fd5b505050506040513d601f19601f820116820180604052508101906127959190614058565b8111156127b5576040516316d5c93f60e21b815260040160405180910390fd5b6127be336133f2565b336000908152609a6020526040812080548392906127dd908490614087565b9091555050306000908152609a602052604081208054839290612801908490614087565b9091555061281190503382612c4e565b612819612cd9565b336001600160a01b03167fd6b37be10b58108f696d9ed067fedad0bff7cb417ef4c28d2f8a25d6d83c98d582426040516128549291906140d0565b60405180910390a26128666001606555565b670cd64299613c8000612877610c62565b61287f61160b565b61289190670de0b6b3a76400006141cc565b61289b91906141e3565b1115611450576040516372b9ce3f60e11b815260040160405180910390fd5b816128c433611c61565b10156129115760405162461bcd60e51b815260206004820152601c60248201527b496e73756666696369656e742062616c616e636520746f206c6f636b60201b6044820152606401610958565b6305a39a8081111561296f5760405162461bcd60e51b815260206004820152602160248201527f43616e6e6f74206c6f636b20666f72206d6f7265207468616e203320796561726044820152607360f81b6064820152608401610958565b33600090815260a2602090815260409182902082516060810184528481529182018590529181016129a08442614087565b905281546001818101845560009384526020938490208351600390930201918255928201519281019290925560400151600290910155337fada80de846c2fa6289ae8db8bd0145346851ca76d49946df18240ebbf97200a78383612a048142614087565b6040805193845260208401929092529082015260600160405180910390a261087e33613291565b6000610c6d61377f565b612a3d612b96565b6001600160a01b038116612aa95760405162461bcd60e51b815260206004820152602d60248201527f50656e64696e674f776e61626c653a206e6577206f776e65722069732074686560448201526c207a65726f206164647265737360981b6064820152608401610958565b612ab2816137e4565b806001600160a01b0316612ac4611d3a565b6001600160a01b03167fed8889f560326eb138920d842192f0eb3dd22b4f139c87a2c57538e05bae127860405160405180910390a350565b609b546000906001600160a01b031663df841eec61242b61160b565b612b20612b96565b612b2981612c6c565b612b4857806040516322a2d07b60e21b81526004016109589190613ddd565b609c80546001600160a01b0319166001600160a01b0383169081179091556040514281527f04dce7d074f7e287a2e6e3516c802271d58d5c14e0dede83a49719eb6b920469906020016109ab565b33612b9f611d3a565b6001600160a01b031614611b155760405162461bcd60e51b815260206004820181905260248201527f4f776e61626c653a2063616c6c6572206973206e6f7420746865206f776e65726044820152606401610958565b600260655403612c475760405162461bcd60e51b815260206004820152601f60248201527f5265656e7472616e637947756172643a207265656e7472616e742063616c6c006044820152606401610958565b6002606555565b60a05461087e906001600160a01b031683836137f6565b6001606555565b6001600160a01b03163b151590565b600054610100900460ff16612ca25760405162461bcd60e51b815260040161095890614227565b611b15613922565b600054610100900460ff16612cd15760405162461bcd60e51b815260040161095890614227565b611b15613952565b6000612ce361160b565b90506000612cef610c62565b609b549091506001600160a01b0316612d1b5760405163fd4851e960e01b815260040160405180910390fd5b609e54609b54604051637cd0833160e01b81526001600160a01b03928316926334fcf437921690637cd0833190612d5890879087906004016140d0565b602060405180830381865afa158015612d75573d6000803e3d6000fd5b505050506040513d601f19601f82011682018060405250810190612d999190614058565b6040518263ffffffff1660e01b8152600401612db791815260200190565b600060405180830381600087803b158015612dd157600080fd5b505af1158015612de5573d6000803e3d6000fd5b5050609f54609b546040516337e107bb60e21b81526001600160a01b0392831694506334fcf437935091169063df841eec90612e2790879087906004016140d0565b602060405180830381865afa158015612e44573d6000803e3d6000fd5b505050506040513d601f19601f82011682018060405250810190612e689190614058565b6040518263ffffffff1660e01b8152600401612e8691815260200190565b600060405180830381600087803b158015612ea057600080fd5b505af1158015612eb4573d6000803e3d6000fd5b505050505050565b6001600160a01b038116600090815260996020526040812054612ede83611a23565b612ee8919061409a565b9050612ef482826136f8565b612efd30611a23565b306000908152609960205260409081902091909155516001600160a01b038316907f9bbd517758fbae61197f1c1c04c8614064e89512dbaf4350dcdf76fcaa5e216190612f4d90849042906140d0565b60405180910390a2609e54604051637681d99b60e11b81526001600160a01b039091169063ed03b33690612f85908590600401613ddd565b600060405180830381600087803b158015612f9f57600080fd5b505af1158015612fb3573d6000803e3d6000fd5b5050609e54604051637681d99b60e11b81526001600160a01b03909116925063ed03b3369150612e86903090600401613ddd565b60a15460009081906001600160a01b03161561311b5760a15460405163cbf9fe5f60e01b81526001600160a01b039091169063cbf9fe5f9061302d908690600401613ddd565b602060405180830381865afa15801561304a573d6000803e3d6000fd5b505050506040513d601f19601f8201168201806040525081019061306e9190614058565b9150811561311b5760a15460405163512edc6760e11b81526001600160a01b039091169063a25db8ce906130a6908690600401613ddd565b602060405180830381865afa1580156130c3573d6000803e3d6000fd5b505050506040513d601f19601f820116820180604052508101906130e79190614058565b6130f1908361409a565b6001600160a01b038416600090815260996020526040902054613114919061409a565b9050915091565b506001600160a01b038216600090815260996020526040902054915091565b6001600160a01b03831660009081526099602052604081205461315e90839061409a565b90508083118015613179575060a1546001600160a01b031615155b156107745760a1546001600160a01b03166349c1de3f8561319a848761409a565b6040518363ffffffff1660e01b81526004016131b7929190614272565b600060405180830381600087803b1580156131d157600080fd5b505af1158015610c58573d6000803e3d6000fd5b6000731d3b1350026195670f8b228711977561fe3e60016001600160a01b038316148061322e575073f03e2984e549ddc747bc709e6c6ef4791882a5026001600160a01b038316145b806132555750736edba4a5dbb3aec671f2e1b16a67fa3a076a2ed86001600160a01b038316145b8061327c575073114989e03993edc97a5946bbb7be885ef0aee9eb6001600160a01b038316145b1561328957506001919050565b506000919050565b600061329b611b17565b90506001600160a01b0381161561087e576132b46108fe565b15613304576132ff81836040516024016132ce9190613ddd565b60408051601f198184030181529190526020810180516001600160e01b0316636cec346160e01b1790526000613979565b505050565b60405163bf18c23960e01b81526001600160a01b0382169063bf18c23990612e86908590600401613ddd565b609c546000906001600160a01b031661335c57604051631c038dab60e21b815260040160405180910390fd5b609c5460405163039ff21960e21b81526001600160a01b0390911690630e7fc8649061338c908590600401613ddd565b602060405180830381865afa1580156133a9573d6000803e3d6000fd5b505050506040513d601f19601f820116820180604052508101906133cd9190614205565b6133ea57604051637582fa9b60e11b815260040160405180910390fd5b506001919050565b6133fb8161172e565b6001600160a01b0382166000908152609a602052604090205561341d3061172e565b306000908152609a60205260409081902091909155609f549051637681d99b60e11b81526001600160a01b039091169063ed03b33690613461908490600401613ddd565b600060405180830381600087803b15801561347b57600080fd5b505af115801561348f573d6000803e3d6000fd5b5050609f54604051637681d99b60e11b81526001600160a01b03909116925063ed03b33691506134c3903090600401613ddd565b600060405180830381600087803b1580156134dd57600080fd5b505af11580156134f1573d6000803e3d6000fd5b5050505050565b60008183106135075781610fa0565b5090919050565b6001600160a01b03821660009081526099602052604090205481111561354757604051630bba337f60e11b815260040160405180910390fd5b60008061355384612fe7565b91509150808311156135785760405163a06a83a160e01b815260040160405180910390fd5b61358384848461313a565b6001600160a01b038416600081815260996020908152604080832080548890039055518681529192916000805160206142c8833981519152910160405180910390a350505050565b60a05461087e906001600160a01b0316833084613a0d565b60006602ed57011e0000601f1936013581161480613614576040516373bb264f60e11b815260040160405180910390fd5b6000366029111561363857604051632bcb7bc560e11b815260040160405180910390fd5b5060281936013560006009613653600362ffffff8516614087565b61365d9190614087565b90503661366b600283614087565b1115610fa05760405163c30a7bd760e01b815260040160405180910390fd5b600080613698602084614087565b9050368111156136bb57604051632bcb7bc560e11b815260040160405180910390fd5b36033592915050565b60008060006136d284613b43565b9092509050604e6136e4826020614087565b6136ee90846141cc565b611c979190614087565b6001600160a01b03821661371f576040516346dbfb6d60e11b815260040160405180910390fd5b6001600160a01b03821660009081526099602052604081208054839290613747908490614087565b90915550506040518181526001600160a01b038316906000906000805160206142c88339815191529060200160405180910390a35050565b6000805160206142a88339815191525490565b603380546001600160a01b038381166001600160a01b0319831681179093556040519116919082907f8be0079c531659141344cd1fd0a4f28419497f9722a3daafe3b4186f6b6457e090600090a35050565b6000805160206142a883398151915255565b600080846001600160a01b031663a9059cbb858560405160240161381b929190614272565b6040516020818303038152906040529060e01b6020820180516001600160e01b038381831617835250505050604051613854919061428b565b6000604051808303816000865af19150503d8060008114613891576040519150601f19603f3d011682016040523d82523d6000602084013e613896565b606091505b50915091508180156138c05750805115806138c05750808060200190518101906138c09190614205565b6134f15760405162461bcd60e51b815260206004820152602d60248201527f5472616e7366657248656c7065723a3a736166655472616e736665723a20747260448201526c185b9cd9995c8819985a5b1959609a1b6064820152608401610958565b600054610100900460ff166139495760405162461bcd60e51b815260040161095890614227565b611b1533613792565b600054610100900460ff16612c655760405162461bcd60e51b815260040161095890614227565b6060600061398684613b9a565b9050600080866001600160a01b0316856139a15760006139a3565b345b846040516139b1919061428b565b60006040518083038185875af1925050503d80600081146139ee576040519150601f19603f3d011682016040523d82523d6000602084013e6139f3565b606091505b5091509150613a028282613c29565b979650505050505050565b604080516001600160a01b0385811660248301528481166044830152606480830185905283518084039091018152608490920183526020820180516001600160e01b03166323b872dd60e01b1790529151600092839290881691613a71919061428b565b6000604051808303816000865af19150503d8060008114613aae576040519150601f19603f3d011682016040523d82523d6000602084013e613ab3565b606091505b5091509150818015613add575080511580613add575080806020019051810190613add9190614205565b612eb45760405162461bcd60e51b815260206004820152603160248201527f5472616e7366657248656c7065723a3a7472616e7366657246726f6d3a207472604482015270185b9cd9995c919c9bdb4819985a5b1959607a1b6064820152608401610958565b600080808080613b54604187614087565b90506000613b6d613b66602084614087565b3690613ca0565b803594509050613b7e816003613ca0565b62ffffff9490941697933563ffffffff16965092945050505050565b80516060906000613ba9613cac565b90506000613bb78284614087565b905036821115613bda57604051632bcb7bc560e11b815260040160405180910390fd5b6060604051905081815285602001848101826020015b81831015613c08578251815260209283019201613bf0565b50505082833603856020018301379190920181016020016040529392505050565b606082612637578151600003613c5257604051632b3ff13d60e11b815260040160405180910390fd5b602082015162461bcd60e51b148015613c85576040516301efd04f60e31b81526044840190610958908290600401613d85565b8260405163fd36fde360e01b81526004016109589190613d85565b6000610fa0828461409a565b600080613cb76135e3565b90506000613cc48261368a565b61ffff169050613cd5600283614087565b915060005b81811015613d0f576000613ced846136c4565b9050613cf98185614087565b9350508080613d079061413b565b915050613cda565b509092915050565b6040518060a001604052806005906020820280368337509192915050565b60005b83811015613d50578181015183820152602001613d38565b50506000910152565b60008151808452613d71816020860160208601613d35565b601f01601f19169290920160200192915050565b602081526000610fa06020830184613d59565b6001600160a01b038116811461145057600080fd5b60008060408385031215613dc057600080fd5b823591506020830135613dd281613d98565b809150509250929050565b6001600160a01b0391909116815260200190565b600060208284031215613e0357600080fd5b8135610fa081613d98565b60008060408385031215613e2157600080fd5b8235613e2c81613d98565b946020939093013593505050565b600080600080600080600060e0888a031215613e5557600080fd5b8735613e6081613d98565b96506020880135613e7081613d98565b95506040880135613e8081613d98565b94506060880135613e9081613d98565b93506080880135613ea081613d98565b925060a0880135613eb081613d98565b8092505060c0880135905092959891949750929550565b600080600060608486031215613edc57600080fd5b8335613ee781613d98565b92506020840135613ef781613d98565b929592945050506040919091013590565b60008083601f840112613f1a57600080fd5b5081356001600160401b03811115613f3157600080fd5b6020830191508360208260051b8501011115613f4c57600080fd5b9250929050565b60008060008060408587031215613f6957600080fd5b84356001600160401b0380821115613f8057600080fd5b613f8c88838901613f08565b90965094506020870135915080821115613fa557600080fd5b50613fb287828801613f08565b95989497509550505050565b600060208284031215613fd057600080fd5b5035919050565b60a08101818360005b6005811015613fff578151835260209283019290910190600101613fe0565b50505092915050565b6000806040838503121561401b57600080fd5b823561402681613d98565b91506020830135613dd281613d98565b6000806040838503121561404957600080fd5b50508035926020909101359150565b60006020828403121561406a57600080fd5b5051919050565b634e487b7160e01b600052601160045260246000fd5b808201808211156108f8576108f8614071565b818103818111156108f8576108f8614071565b6000602082840312156140bf57600080fd5b815160ff81168114610fa057600080fd5b918252602082015260400190565b9182526001600160a01b0316602082015260400190565b602080825260169082015275082e4e4c2f2e640d8cadccee8d040dad2e6dac2e8c6d60531b604082015260600190565b634e487b7160e01b600052603260045260246000fd5b60006001820161414d5761414d614071565b5060010190565b6020808252600c908201526b41646472657373207a65726f60a01b604082015260600190565b6020808252818101527f43616e6e6f74206465706f736974206f6e20626568616c66206f6620706f6f6c604082015260600190565b6000602082840312156141c157600080fd5b8151610fa081613d98565b80820281158282048414176108f8576108f8614071565b60008261420057634e487b7160e01b600052601260045260246000fd5b500490565b60006020828403121561421757600080fd5b81518015158114610fa057600080fd5b6020808252602b908201527f496e697469616c697a61626c653a20636f6e7472616374206973206e6f74206960408201526a6e697469616c697a696e6760a81b606082015260800190565b6001600160a01b03929092168252602082015260400190565b6000825161429d818460208701613d35565b919091019291505056fe63a0d9df49fae3f1b9d24f8dc819a568c429a1b11d0d8e9de63df53a0194acb2ddf252ad1be2c89b69c2b068fc378daa952ba7f163c4a11628f55a4df523b3ef8c5be1e5ebec7d5bd14f71427d1e84f3dd0314c0f7b2291e5b200ac8c7c3b925a2646970667358221220effba85d04e99dfdc9c4a4fce56350fe5421b11cb9b06ad88c4ba2e209e05b1364736f6c63430008110033",
  "devdoc": {
    "details": "Contract allowing user to deposit to and borrow ARB from a dedicated user account",
    "errors": {
      "InsufficientAllowance(uint256,uint256)": [
        {
          "params": {
            "allowance": "current allowance",
            "requested": "requested transfer amount"
          }
        }
      ],
      "TransferAmountExceedsBalance(uint256,uint256)": [
        {
          "params": {
            "amount": "transfer amount",
            "balance": "available balance"
          }
        }
      ]
    },
    "kind": "dev",
    "methods": {
      "allowance(address,address)": {
        "details": "Returns the remaining number of tokens that `spender` will be allowed to spend on behalf of `owner` through {transferFrom}. This is zero by default. This value changes when {approve} or {transferFrom} are called."
      },
      "approve(address,uint256)": {
        "details": "Sets `amount` as the allowance of `spender` over the caller's tokens. Returns a boolean value indicating whether the operation succeeded. IMPORTANT: Beware that changing an allowance with this method brings the risk that someone may use both the old and the new allowance by unfortunate transaction ordering. One possible solution to mitigate this race condition is to first reduce the spender's allowance to 0 and set the desired value afterwards: https://github.com/ethereum/EIPs/issues/20#issuecomment-263524729 Emits an {Approval} event."
      },
      "balanceOf(address)": {
        "details": "_user the address of queried depositor*"
      },
      "borrow(uint256)": {
        "details": "_amount the amount to be borrowedIt is only meant to be used by a SmartLoanDiamondProxy*"
      },
      "getFullyVestedLockedBalance(address)": {
        "details": "The fully vested locked balance is used in the governance mechanism of the system, specifically for the allocation of vPrime tokens. The method calculates the fully vested locked balance by iterating over all the locks of the account and summing up the amounts of those locks that are still active (i.e., their `unlockTime` is greater than the current block timestamp). However, the amount of each lock is scaled by the ratio of its `lockTime` to the `MAX_LOCK_TIME` (3 years). This means that the longer the lock time, the larger the contribution of the lock to the fully vested locked balance. The fully vested locked balance is used to calculate the maximum vPrime allocation for a user. Users accrue vPrime over a period of 3 years, from 0 to the maximum vPrime based on their 10-1 pairs of pool-deposit and sPrime. Locking pool deposits and sPrime immediately vests the vPrime.",
        "params": {
          "account": "The address of the account for which to calculate the fully vested locked balance."
        },
        "returns": {
          "fullyVestedBalance": "The fully vested locked balance of the provided account."
        }
      },
      "owner()": {
        "details": "Returns the address of the current owner."
      },
      "renounceOwnership()": {
        "details": "Leaves the contract without owner. It will not be possible to call `onlyOwner` functions. Can only be called by the current owner. NOTE: Renouncing ownership will leave the contract without an owner, thereby disabling any functionality that is only available to the owner."
      },
      "repay(uint256)": {
        "details": "It is only meant to be used by a SmartLoanDiamondProxy*"
      },
      "setBorrowersRegistry(address)": {
        "details": "borrowersRegistry the address of borrowers registry*"
      },
      "setPoolRewarder(address)": {
        "details": "_poolRewarder the address of PoolRewarder*"
      },
      "setRatesCalculator(address)": {
        "details": "ratesCalculator the address of rates calculator*"
      },
      "setTotalSupplyCap(uint256)": {
        "details": "_newTotalSupplyCap new deposit cap*"
      },
      "setVestingDistributor(address)": {
        "details": "_distributor the address of vestingDistributor*"
      },
      "totalSupply()": {
        "details": "Returns the amount of tokens in existence."
      },
      "withdraw(uint256)": {
        "details": "_amount the amount to be withdrawn*"
      }
    },
    "title": "`ArbPool`",
    "version": 1
  },
  "userdoc": {
    "kind": "user",
    "methods": {
      "balanceOf(address)": {
        "notice": "Returns the current deposited amount for the given user The value includes the interest rates earned at the current moment"
      },
      "borrow(uint256)": {
        "notice": "Borrows the specified amount It updates user borrowed balance, total borrowed amount and rates"
      },
      "deposit(uint256)": {
        "notice": "Deposits the amount It updates user deposited balance, total deposited and rates*"
      },
      "depositOnBehalf(uint256,address)": {
        "notice": "Deposits the amount on behalf of `_of` user. It updates `_of` user deposited balance, total deposited and rates*"
      },
      "getBorrowingRate()": {
        "notice": "Returns the current interest rate for borrowings*"
      },
      "getDepositRate()": {
        "notice": "Returns the current interest rate for deposits*"
      },
      "getFullPoolStatus()": {
        "notice": "Returns full pool status"
      },
      "getFullyVestedLockedBalance(address)": {
        "notice": "Calculates and returns the fully vested locked balance for a given account."
      },
      "recoverSurplus(uint256,address)": {
        "notice": "Recovers the surplus funds resultant from difference between deposit and borrowing rates*"
      },
      "repay(uint256)": {
        "notice": "Repays the amount It updates user borrowed balance, total borrowed amount and rates"
      },
      "setBorrowersRegistry(address)": {
        "notice": "Sets the new borrowers registry contract. The borrowers registry decides if an account can borrow funds. Only the owner of the Contract can execute this function."
      },
      "setPoolRewarder(address)": {
        "notice": "Sets the new Pool Rewarder. The IPoolRewarder that distributes additional token rewards to people having a stake in this pool proportionally to their stake and time of participance. Only the owner of the Contract can execute this function."
      },
      "setRatesCalculator(address)": {
        "notice": "Sets the new rate calculator. The calculator is an external contract that contains the logic for calculating deposit and borrowing rates. Only the owner of the Contract can execute this function."
      },
      "setTotalSupplyCap(uint256)": {
        "notice": "Sets new totalSupplyCap limiting how much in total can be deposited to the Pool. Only the owner of the Contract can execute this function."
      },
      "setVestingDistributor(address)": {
        "notice": "Sets the new Vesting Distributor. Only the owner of the Contract can execute this function."
      },
      "withdraw(uint256)": {
        "notice": "Withdraws selected amount from the user deposits"
      }
    },
    "version": 1
  },
  "storageLayout": {
    "storage": [
      {
        "astId": 138,
        "contract": "contracts/deployment/arbitrum/ArbPool.sol:ArbPool",
        "label": "_initialized",
        "offset": 0,
        "slot": "0",
        "type": "t_uint8"
      },
      {
        "astId": 141,
        "contract": "contracts/deployment/arbitrum/ArbPool.sol:ArbPool",
        "label": "_initializing",
        "offset": 1,
        "slot": "0",
        "type": "t_bool"
      },
      {
        "astId": 755,
        "contract": "contracts/deployment/arbitrum/ArbPool.sol:ArbPool",
        "label": "__gap",
        "offset": 0,
        "slot": "1",
        "type": "t_array(t_uint256)50_storage"
      },
      {
        "astId": 10,
        "contract": "contracts/deployment/arbitrum/ArbPool.sol:ArbPool",
        "label": "_owner",
        "offset": 0,
        "slot": "51",
        "type": "t_address"
      },
      {
        "astId": 130,
        "contract": "contracts/deployment/arbitrum/ArbPool.sol:ArbPool",
        "label": "__gap",
        "offset": 0,
        "slot": "52",
        "type": "t_array(t_uint256)49_storage"
      },
      {
        "astId": 314,
        "contract": "contracts/deployment/arbitrum/ArbPool.sol:ArbPool",
        "label": "_status",
        "offset": 0,
        "slot": "101",
        "type": "t_uint256"
      },
      {
        "astId": 383,
        "contract": "contracts/deployment/arbitrum/ArbPool.sol:ArbPool",
        "label": "__gap",
        "offset": 0,
        "slot": "102",
        "type": "t_array(t_uint256)49_storage"
      },
      {
        "astId": 2879,
        "contract": "contracts/deployment/arbitrum/ArbPool.sol:ArbPool",
        "label": "totalSupplyCap",
        "offset": 0,
        "slot": "151",
        "type": "t_uint256"
      },
      {
        "astId": 2885,
        "contract": "contracts/deployment/arbitrum/ArbPool.sol:ArbPool",
        "label": "_allowed",
        "offset": 0,
        "slot": "152",
        "type": "t_mapping(t_address,t_mapping(t_address,t_uint256))"
      },
      {
        "astId": 2889,
        "contract": "contracts/deployment/arbitrum/ArbPool.sol:ArbPool",
        "label": "_deposited",
        "offset": 0,
        "slot": "153",
        "type": "t_mapping(t_address,t_uint256)"
      },
      {
        "astId": 2893,
        "contract": "contracts/deployment/arbitrum/ArbPool.sol:ArbPool",
        "label": "borrowed",
        "offset": 0,
        "slot": "154",
        "type": "t_mapping(t_address,t_uint256)"
      },
      {
        "astId": 2896,
        "contract": "contracts/deployment/arbitrum/ArbPool.sol:ArbPool",
        "label": "ratesCalculator",
        "offset": 0,
        "slot": "155",
        "type": "t_contract(IRatesCalculator)6951"
      },
      {
        "astId": 2899,
        "contract": "contracts/deployment/arbitrum/ArbPool.sol:ArbPool",
        "label": "borrowersRegistry",
        "offset": 0,
        "slot": "156",
        "type": "t_contract(IBorrowersRegistry)6848"
      },
      {
        "astId": 2902,
        "contract": "contracts/deployment/arbitrum/ArbPool.sol:ArbPool",
        "label": "poolRewarder",
        "offset": 0,
        "slot": "157",
        "type": "t_contract(IPoolRewarder)6929"
      },
      {
        "astId": 2905,
        "contract": "contracts/deployment/arbitrum/ArbPool.sol:ArbPool",
        "label": "depositIndex",
        "offset": 0,
        "slot": "158",
        "type": "t_contract(IIndex)6875"
      },
      {
        "astId": 2908,
        "contract": "contracts/deployment/arbitrum/ArbPool.sol:ArbPool",
        "label": "borrowIndex",
        "offset": 0,
        "slot": "159",
        "type": "t_contract(IIndex)6875"
      },
      {
        "astId": 2910,
        "contract": "contracts/deployment/arbitrum/ArbPool.sol:ArbPool",
        "label": "tokenAddress",
        "offset": 0,
        "slot": "160",
        "type": "t_address_payable"
      },
      {
        "astId": 2913,
        "contract": "contracts/deployment/arbitrum/ArbPool.sol:ArbPool",
        "label": "vestingDistributor",
        "offset": 0,
        "slot": "161",
        "type": "t_contract(VestingDistributor)6613"
      },
      {
        "astId": 2915,
        "contract": "contracts/deployment/arbitrum/ArbPool.sol:ArbPool",
        "label": "_decimals",
        "offset": 20,
        "slot": "161",
        "type": "t_uint8"
      },
      {
        "astId": 2928,
        "contract": "contracts/deployment/arbitrum/ArbPool.sol:ArbPool",
        "label": "locks",
        "offset": 0,
        "slot": "162",
        "type": "t_mapping(t_address,t_array(t_struct(LockDetails)2922_storage)dyn_storage)"
      },
      {
        "astId": 2936,
        "contract": "contracts/deployment/arbitrum/ArbPool.sol:ArbPool",
        "label": "tokenManager",
        "offset": 0,
        "slot": "163",
        "type": "t_contract(ITokenManager)7175"
      }
    ],
    "types": {
      "t_address": {
        "encoding": "inplace",
        "label": "address",
        "numberOfBytes": "20"
      },
      "t_address_payable": {
        "encoding": "inplace",
        "label": "address payable",
        "numberOfBytes": "20"
      },
      "t_array(t_struct(LockDetails)2922_storage)dyn_storage": {
        "base": "t_struct(LockDetails)2922_storage",
        "encoding": "dynamic_array",
        "label": "struct Pool.LockDetails[]",
        "numberOfBytes": "32"
      },
      "t_array(t_uint256)49_storage": {
        "base": "t_uint256",
        "encoding": "inplace",
        "label": "uint256[49]",
        "numberOfBytes": "1568"
      },
      "t_array(t_uint256)50_storage": {
        "base": "t_uint256",
        "encoding": "inplace",
        "label": "uint256[50]",
        "numberOfBytes": "1600"
      },
      "t_bool": {
        "encoding": "inplace",
        "label": "bool",
        "numberOfBytes": "1"
      },
      "t_contract(IBorrowersRegistry)6848": {
        "encoding": "inplace",
        "label": "contract IBorrowersRegistry",
        "numberOfBytes": "20"
      },
      "t_contract(IIndex)6875": {
        "encoding": "inplace",
        "label": "contract IIndex",
        "numberOfBytes": "20"
      },
      "t_contract(IPoolRewarder)6929": {
        "encoding": "inplace",
        "label": "contract IPoolRewarder",
        "numberOfBytes": "20"
      },
      "t_contract(IRatesCalculator)6951": {
        "encoding": "inplace",
        "label": "contract IRatesCalculator",
        "numberOfBytes": "20"
      },
      "t_contract(ITokenManager)7175": {
        "encoding": "inplace",
        "label": "contract ITokenManager",
        "numberOfBytes": "20"
      },
      "t_contract(VestingDistributor)6613": {
        "encoding": "inplace",
        "label": "contract VestingDistributor",
        "numberOfBytes": "20"
      },
      "t_mapping(t_address,t_array(t_struct(LockDetails)2922_storage)dyn_storage)": {
        "encoding": "mapping",
        "key": "t_address",
        "label": "mapping(address => struct Pool.LockDetails[])",
        "numberOfBytes": "32",
        "value": "t_array(t_struct(LockDetails)2922_storage)dyn_storage"
      },
      "t_mapping(t_address,t_mapping(t_address,t_uint256))": {
        "encoding": "mapping",
        "key": "t_address",
        "label": "mapping(address => mapping(address => uint256))",
        "numberOfBytes": "32",
        "value": "t_mapping(t_address,t_uint256)"
      },
      "t_mapping(t_address,t_uint256)": {
        "encoding": "mapping",
        "key": "t_address",
        "label": "mapping(address => uint256)",
        "numberOfBytes": "32",
        "value": "t_uint256"
      },
      "t_struct(LockDetails)2922_storage": {
        "encoding": "inplace",
        "label": "struct Pool.LockDetails",
        "members": [
          {
            "astId": 2917,
            "contract": "contracts/deployment/arbitrum/ArbPool.sol:ArbPool",
            "label": "lockTime",
            "offset": 0,
            "slot": "0",
            "type": "t_uint256"
          },
          {
            "astId": 2919,
            "contract": "contracts/deployment/arbitrum/ArbPool.sol:ArbPool",
            "label": "amount",
            "offset": 0,
            "slot": "1",
            "type": "t_uint256"
          },
          {
            "astId": 2921,
            "contract": "contracts/deployment/arbitrum/ArbPool.sol:ArbPool",
            "label": "unlockTime",
            "offset": 0,
            "slot": "2",
            "type": "t_uint256"
          }
        ],
        "numberOfBytes": "96"
      },
      "t_uint256": {
        "encoding": "inplace",
        "label": "uint256",
        "numberOfBytes": "32"
      },
      "t_uint8": {
        "encoding": "inplace",
        "label": "uint8",
        "numberOfBytes": "1"
      }
    }
  }
}