{
  "address": "0xF7844AEb8C2e94684018892AfB25087d2fe262Cd",
  "abi": [
    {
      "anonymous": false,
      "inputs": [
        {
          "indexed": true,
          "internalType": "address",
          "name": "previousOwner",
          "type": "address"
        },
        {
          "indexed": true,
          "internalType": "address",
          "name": "newOwner",
          "type": "address"
        }
      ],
      "name": "OwnershipTransferred",
      "type": "event"
    },
    {
      "anonymous": false,
      "inputs": [
        {
          "indexed": false,
          "internalType": "uint256",
          "name": "updatedRate",
          "type": "uint256"
        },
        {
          "indexed": false,
          "internalType": "uint256",
          "name": "timestamp",
          "type": "uint256"
        }
      ],
      "name": "RateUpdated",
      "type": "event"
    },
    {
      "inputs": [],
      "name": "getIndex",
      "outputs": [
        {
          "internalType": "uint256",
          "name": "",
          "type": "uint256"
        }
      ],
      "stateMutability": "view",
      "type": "function"
    },
    {
      "inputs": [
        {
          "internalType": "uint256",
          "name": "value",
          "type": "uint256"
        },
        {
          "internalType": "address",
          "name": "user",
          "type": "address"
        }
      ],
      "name": "getIndexedValue",
      "outputs": [
        {
          "internalType": "uint256",
          "name": "",
          "type": "uint256"
        }
      ],
      "stateMutability": "view",
      "type": "function"
    },
    {
      "inputs": [],
      "name": "index",
      "outputs": [
        {
          "internalType": "uint256",
          "name": "",
          "type": "uint256"
        }
      ],
      "stateMutability": "view",
      "type": "function"
    },
    {
      "inputs": [],
      "name": "indexUpdateTime",
      "outputs": [
        {
          "internalType": "uint256",
          "name": "",
          "type": "uint256"
        }
      ],
      "stateMutability": "view",
      "type": "function"
    },
    {
      "inputs": [
        {
          "internalType": "address",
          "name": "owner_",
          "type": "address"
        }
      ],
      "name": "initialize",
      "outputs": [],
      "stateMutability": "nonpayable",
      "type": "function"
    },
    {
      "inputs": [],
      "name": "owner",
      "outputs": [
        {
          "internalType": "address",
          "name": "",
          "type": "address"
        }
      ],
      "stateMutability": "view",
      "type": "function"
    },
    {
      "inputs": [],
      "name": "rate",
      "outputs": [
        {
          "internalType": "uint256",
          "name": "",
          "type": "uint256"
        }
      ],
      "stateMutability": "view",
      "type": "function"
    },
    {
      "inputs": [],
      "name": "renounceOwnership",
      "outputs": [],
      "stateMutability": "nonpayable",
      "type": "function"
    },
    {
      "inputs": [
        {
          "internalType": "uint256",
          "name": "_rate",
          "type": "uint256"
        }
      ],
      "name": "setRate",
      "outputs": [],
      "stateMutability": "nonpayable",
      "type": "function"
    },
    {
      "inputs": [
        {
          "internalType": "address",
          "name": "newOwner",
          "type": "address"
        }
      ],
      "name": "transferOwnership",
      "outputs": [],
      "stateMutability": "nonpayable",
      "type": "function"
    },
    {
      "inputs": [
        {
          "internalType": "address",
          "name": "user",
          "type": "address"
        }
      ],
      "name": "updateUser",
      "outputs": [],
      "stateMutability": "nonpayable",
      "type": "function"
    }
  ],
  "transactionHash": "0x9c23b54cb30f5339206bab9b25c291125534b3ba270d345323674b44db4fb9f7",
  "args": [],
  "numDeployments": 1,
  "solcInputHash": "f520b981936b91981fb31bd1566446f3",
  "bytecode": "0x608060405234801561001057600080fd5b50610744806100206000396000f3fe608060405234801561001057600080fd5b50600436106100a95760003560e01c806381045ead1161007157806381045ead146100f15780638da5cb5b146100f9578063966da88914610114578063c4d66de814610127578063ed03b3361461013a578063f2fde38b1461014d57600080fd5b80632986c0e5146100ae5780632c4e722e146100ca57806334fcf437146100d3578063715018a6146100e6578063798d1df7146100e8575b600080fd5b6100b760655481565b6040519081526020015b60405180910390f35b6100b760695481565b6100e66100e1366004610596565b610160565b005b6100b760665481565b6100b76101dd565b6033546040516001600160a01b0390911681526020016100c1565b6100b76101223660046105cb565b610231565b6100e66101353660046105f7565b610297565b6100e66101483660046105f7565b610381565b6100e661015b3660046105f7565b6103e1565b6033546001600160a01b031633146101935760405162461bcd60e51b815260040161018a90610619565b60405180910390fd5b61019b61047c565b6069819055604080518281524260208201527fb38780ddde1f073d91c150de2696f3f7085883648ba21cc5ef01029cb21d1916910160405180910390a150565b565b600080606654426101ee9190610664565b90508015610229576b033b2e3c9fd0803ce800000061020c826104a2565b6065546102199190610677565b610223919061068e565b91505090565b505060655490565b6001600160a01b0381166000908152606860205260408120548181156102655760008281526067602052604090205461026d565b61026d6101dd565b9050806102786101dd565b6102829087610677565b61028c919061068e565b925050505b92915050565b600054610100900460ff166102b25760005460ff16156102b6565b303b155b6103195760405162461bcd60e51b815260206004820152602e60248201527f496e697469616c697a61626c653a20636f6e747261637420697320616c72656160448201526d191e481a5b9a5d1a585b1a5e995960921b606482015260840161018a565b600054610100900460ff1615801561033b576000805461ffff19166101011790555b670de0b6b3a7640000606555426066556103536104e5565b6001600160a01b0382161561036b5761036b826103e1565b801561037d576000805461ff00191690555b5050565b6033546001600160a01b031633146103ab5760405162461bcd60e51b815260040161018a90610619565b6001600160a01b03811660009081526068602052604090204290556103ce6101dd565b4260009081526067602052604090205550565b6033546001600160a01b0316331461040b5760405162461bcd60e51b815260040161018a90610619565b6001600160a01b0381166104705760405162461bcd60e51b815260206004820152602660248201527f4f776e61626c653a206e6577206f776e657220697320746865207a65726f206160448201526564647265737360d01b606482015260840161018a565b61047981610514565b50565b6065546066546000908152606760205260409020556104996101dd565b60655542606655565b60006301e13380826069546104b79190610677565b6104c590633b9aca00610677565b6104cf919061068e565b610291906b033b2e3c9fd0803ce80000006106b0565b600054610100900460ff1661050c5760405162461bcd60e51b815260040161018a906106c3565b6101db610566565b603380546001600160a01b038381166001600160a01b0319831681179093556040519116919082907f8be0079c531659141344cd1fd0a4f28419497f9722a3daafe3b4186f6b6457e090600090a35050565b600054610100900460ff1661058d5760405162461bcd60e51b815260040161018a906106c3565b6101db33610514565b6000602082840312156105a857600080fd5b5035919050565b80356001600160a01b03811681146105c657600080fd5b919050565b600080604083850312156105de57600080fd5b823591506105ee602084016105af565b90509250929050565b60006020828403121561060957600080fd5b610612826105af565b9392505050565b6020808252818101527f4f776e61626c653a2063616c6c6572206973206e6f7420746865206f776e6572604082015260600190565b634e487b7160e01b600052601160045260246000fd5b818103818111156102915761029161064e565b80820281158282048414176102915761029161064e565b6000826106ab57634e487b7160e01b600052601260045260246000fd5b500490565b808201808211156102915761029161064e565b6020808252602b908201527f496e697469616c697a61626c653a20636f6e7472616374206973206e6f74206960408201526a6e697469616c697a696e6760a81b60608201526080019056fea26469706673582212205a87cb160fe00d822de3c6383078c1d85bf76707992ac71a1cab07b7edb544b364736f6c63430008110033",
  "devdoc": {
    "kind": "dev",
    "methods": {
      "owner()": {
        "details": "Returns the address of the current owner."
      },
      "renounceOwnership()": {
        "details": "Leaves the contract without owner. It will not be possible to call `onlyOwner` functions anymore. Can only be called by the current owner. NOTE: Renouncing ownership will leave the contract without an owner, thereby removing any functionality that is only available to the owner."
      },
      "setRate(uint256)": {
        "details": "_rate the value of updated rate*"
      },
      "transferOwnership(address)": {
        "details": "Transfers ownership of the contract to a new account (`newOwner`). Can only be called by the current owner."
      },
      "updateUser(address)": {
        "details": "user address of the index owner*"
      }
    },
    "version": 1
  },
  "userdoc": {
    "kind": "user",
    "methods": {
      "getIndex()": {
        "notice": "Gets current value of the linear index It recalculates the value on-demand without updating the storage*"
      },
      "getIndexedValue(uint256,address)": {
        "notice": "Gets the user value recalculated to the current index It recalculates the value on-demand without updating the storage Ray operations round up the result, but it is only an issue for very small values (with an order of magnitude of 1 Wei)*"
      },
      "setRate(uint256)": {
        "notice": "Sets the new rate Before the new rate is set, the index is updated accumulating interest"
      },
      "updateUser(address)": {
        "notice": "Updates user index It persists the update time and the update index time->index mapping"
      }
    },
    "version": 1
  },
  "storageLayout": {
    "storage": [
      {
        "astId": 130,
        "contract": "contracts/deployment/arbitrum/BtcBorrowIndex.sol:BtcBorrowIndex",
        "label": "_initialized",
        "offset": 0,
        "slot": "0",
        "type": "t_bool"
      },
      {
        "astId": 133,
        "contract": "contracts/deployment/arbitrum/BtcBorrowIndex.sol:BtcBorrowIndex",
        "label": "_initializing",
        "offset": 1,
        "slot": "0",
        "type": "t_bool"
      },
      {
        "astId": 540,
        "contract": "contracts/deployment/arbitrum/BtcBorrowIndex.sol:BtcBorrowIndex",
        "label": "__gap",
        "offset": 0,
        "slot": "1",
        "type": "t_array(t_uint256)50_storage"
      },
      {
        "astId": 10,
        "contract": "contracts/deployment/arbitrum/BtcBorrowIndex.sol:BtcBorrowIndex",
        "label": "_owner",
        "offset": 0,
        "slot": "51",
        "type": "t_address"
      },
      {
        "astId": 122,
        "contract": "contracts/deployment/arbitrum/BtcBorrowIndex.sol:BtcBorrowIndex",
        "label": "__gap",
        "offset": 0,
        "slot": "52",
        "type": "t_array(t_uint256)49_storage"
      },
      {
        "astId": 8471,
        "contract": "contracts/deployment/arbitrum/BtcBorrowIndex.sol:BtcBorrowIndex",
        "label": "index",
        "offset": 0,
        "slot": "101",
        "type": "t_uint256"
      },
      {
        "astId": 8473,
        "contract": "contracts/deployment/arbitrum/BtcBorrowIndex.sol:BtcBorrowIndex",
        "label": "indexUpdateTime",
        "offset": 0,
        "slot": "102",
        "type": "t_uint256"
      },
      {
        "astId": 8477,
        "contract": "contracts/deployment/arbitrum/BtcBorrowIndex.sol:BtcBorrowIndex",
        "label": "prevIndex",
        "offset": 0,
        "slot": "103",
        "type": "t_mapping(t_uint256,t_uint256)"
      },
      {
        "astId": 8481,
        "contract": "contracts/deployment/arbitrum/BtcBorrowIndex.sol:BtcBorrowIndex",
        "label": "userUpdateTime",
        "offset": 0,
        "slot": "104",
        "type": "t_mapping(t_address,t_uint256)"
      },
      {
        "astId": 8483,
        "contract": "contracts/deployment/arbitrum/BtcBorrowIndex.sol:BtcBorrowIndex",
        "label": "rate",
        "offset": 0,
        "slot": "105",
        "type": "t_uint256"
      }
    ],
    "types": {
      "t_address": {
        "encoding": "inplace",
        "label": "address",
        "numberOfBytes": "20"
      },
      "t_array(t_uint256)49_storage": {
        "base": "t_uint256",
        "encoding": "inplace",
        "label": "uint256[49]",
        "numberOfBytes": "1568"
      },
      "t_array(t_uint256)50_storage": {
        "base": "t_uint256",
        "encoding": "inplace",
        "label": "uint256[50]",
        "numberOfBytes": "1600"
      },
      "t_bool": {
        "encoding": "inplace",
        "label": "bool",
        "numberOfBytes": "1"
      },
      "t_mapping(t_address,t_uint256)": {
        "encoding": "mapping",
        "key": "t_address",
        "label": "mapping(address => uint256)",
        "numberOfBytes": "32",
        "value": "t_uint256"
      },
      "t_mapping(t_uint256,t_uint256)": {
        "encoding": "mapping",
        "key": "t_uint256",
        "label": "mapping(uint256 => uint256)",
        "numberOfBytes": "32",
        "value": "t_uint256"
      },
      "t_uint256": {
        "encoding": "inplace",
        "label": "uint256",
        "numberOfBytes": "32"
      }
    }
  }
}