{
  "address": "0xb5119F6249586fd1dbbb71823bbEde1c7cd46D43",
  "abi": [
    {
      "inputs": [],
      "name": "BorrowersRegistryNotConfigured",
      "type": "error"
    },
    {
      "inputs": [],
      "name": "BurnAmountExceedsAvailableForUser",
      "type": "error"
    },
    {
      "inputs": [],
      "name": "BurnAmountExceedsBalance",
      "type": "error"
    },
    {
      "inputs": [],
      "name": "CalldataMustHaveValidPayload",
      "type": "error"
    },
    {
      "inputs": [],
      "name": "CalldataOverOrUnderFlow",
      "type": "error"
    },
    {
      "inputs": [],
      "name": "DataPackageTimestampMustNotBeZero",
      "type": "error"
    },
    {
      "inputs": [],
      "name": "DataPackageTimestampsMustBeEqual",
      "type": "error"
    },
    {
      "inputs": [],
      "name": "EachSignerMustProvideTheSameValue",
      "type": "error"
    },
    {
      "inputs": [],
      "name": "EmptyCalldataPointersArr",
      "type": "error"
    },
    {
      "inputs": [],
      "name": "IncorrectUnsignedMetadataSize",
      "type": "error"
    },
    {
      "inputs": [
        {
          "internalType": "uint256",
          "name": "requested",
          "type": "uint256"
        },
        {
          "internalType": "uint256",
          "name": "allowance",
          "type": "uint256"
        }
      ],
      "name": "InsufficientAllowance",
      "type": "error"
    },
    {
      "inputs": [
        {
          "internalType": "uint256",
          "name": "receivedSignersCount",
          "type": "uint256"
        },
        {
          "internalType": "uint256",
          "name": "requiredSignersCount",
          "type": "uint256"
        }
      ],
      "name": "InsufficientNumberOfUniqueSigners",
      "type": "error"
    },
    {
      "inputs": [],
      "name": "InsufficientPoolFunds",
      "type": "error"
    },
    {
      "inputs": [],
      "name": "InsufficientSurplus",
      "type": "error"
    },
    {
      "inputs": [],
      "name": "InvalidCalldataPointer",
      "type": "error"
    },
    {
      "inputs": [],
      "name": "MaxPoolUtilisationBreached",
      "type": "error"
    },
    {
      "inputs": [],
      "name": "MintToAddressZero",
      "type": "error"
    },
    {
      "inputs": [
        {
          "internalType": "address",
          "name": "target",
          "type": "address"
        }
      ],
      "name": "NotAContract",
      "type": "error"
    },
    {
      "inputs": [],
      "name": "NotAuthorizedToBorrow",
      "type": "error"
    },
    {
      "inputs": [],
      "name": "PoolFrozen",
      "type": "error"
    },
    {
      "inputs": [
        {
          "internalType": "bytes",
          "name": "result",
          "type": "bytes"
        }
      ],
      "name": "ProxyCalldataFailedWithCustomError",
      "type": "error"
    },
    {
      "inputs": [
        {
          "internalType": "string",
          "name": "message",
          "type": "string"
        }
      ],
      "name": "ProxyCalldataFailedWithStringMessage",
      "type": "error"
    },
    {
      "inputs": [],
      "name": "ProxyCalldataFailedWithoutErrMsg",
      "type": "error"
    },
    {
      "inputs": [],
      "name": "RedstonePayloadMustHaveAtLeastOneDataPackage",
      "type": "error"
    },
    {
      "inputs": [],
      "name": "RepayingMoreThanWasBorrowed",
      "type": "error"
    },
    {
      "inputs": [
        {
          "internalType": "address",
          "name": "receivedSigner",
          "type": "address"
        }
      ],
      "name": "SignerNotAuthorised",
      "type": "error"
    },
    {
      "inputs": [],
      "name": "SpenderZeroAddress",
      "type": "error"
    },
    {
      "inputs": [],
      "name": "TotalSupplyCapBreached",
      "type": "error"
    },
    {
      "inputs": [
        {
          "internalType": "uint256",
          "name": "amount",
          "type": "uint256"
        },
        {
          "internalType": "uint256",
          "name": "balance",
          "type": "uint256"
        }
      ],
      "name": "TransferAmountExceedsBalance",
      "type": "error"
    },
    {
      "inputs": [],
      "name": "TransferToPoolAddress",
      "type": "error"
    },
    {
      "inputs": [],
      "name": "TransferToZeroAddress",
      "type": "error"
    },
    {
      "inputs": [],
      "name": "ZeroDepositAmount",
      "type": "error"
    },
    {
      "anonymous": false,
      "inputs": [
        {
          "indexed": true,
          "internalType": "address",
          "name": "owner",
          "type": "address"
        },
        {
          "indexed": true,
          "internalType": "address",
          "name": "spender",
          "type": "address"
        },
        {
          "indexed": false,
          "internalType": "uint256",
          "name": "value",
          "type": "uint256"
        }
      ],
      "name": "Approval",
      "type": "event"
    },
    {
      "anonymous": false,
      "inputs": [
        {
          "indexed": true,
          "internalType": "address",
          "name": "registry",
          "type": "address"
        },
        {
          "indexed": false,
          "internalType": "uint256",
          "name": "timestamp",
          "type": "uint256"
        }
      ],
      "name": "BorrowersRegistryChanged",
      "type": "event"
    },
    {
      "anonymous": false,
      "inputs": [
        {
          "indexed": true,
          "internalType": "address",
          "name": "user",
          "type": "address"
        },
        {
          "indexed": false,
          "internalType": "uint256",
          "name": "value",
          "type": "uint256"
        },
        {
          "indexed": false,
          "internalType": "uint256",
          "name": "timestamp",
          "type": "uint256"
        }
      ],
      "name": "Borrowing",
      "type": "event"
    },
    {
      "anonymous": false,
      "inputs": [
        {
          "indexed": true,
          "internalType": "address",
          "name": "user",
          "type": "address"
        },
        {
          "indexed": false,
          "internalType": "uint256",
          "name": "value",
          "type": "uint256"
        },
        {
          "indexed": false,
          "internalType": "uint256",
          "name": "timestamp",
          "type": "uint256"
        }
      ],
      "name": "Deposit",
      "type": "event"
    },
    {
      "anonymous": false,
      "inputs": [
        {
          "indexed": true,
          "internalType": "address",
          "name": "user",
          "type": "address"
        },
        {
          "indexed": false,
          "internalType": "uint256",
          "name": "amount",
          "type": "uint256"
        },
        {
          "indexed": false,
          "internalType": "uint256",
          "name": "lockTime",
          "type": "uint256"
        },
        {
          "indexed": false,
          "internalType": "uint256",
          "name": "unlockTime",
          "type": "uint256"
        }
      ],
      "name": "DepositLocked",
      "type": "event"
    },
    {
      "anonymous": false,
      "inputs": [
        {
          "indexed": true,
          "internalType": "address",
          "name": "user",
          "type": "address"
        },
        {
          "indexed": true,
          "internalType": "address",
          "name": "_of",
          "type": "address"
        },
        {
          "indexed": false,
          "internalType": "uint256",
          "name": "value",
          "type": "uint256"
        },
        {
          "indexed": false,
          "internalType": "uint256",
          "name": "timestamp",
          "type": "uint256"
        }
      ],
      "name": "DepositOnBehalfOf",
      "type": "event"
    },
    {
      "anonymous": false,
      "inputs": [
        {
          "indexed": false,
          "internalType": "uint8",
          "name": "version",
          "type": "uint8"
        }
      ],
      "name": "Initialized",
      "type": "event"
    },
    {
      "anonymous": false,
      "inputs": [
        {
          "indexed": true,
          "internalType": "address",
          "name": "user",
          "type": "address"
        },
        {
          "indexed": false,
          "internalType": "uint256",
          "name": "value",
          "type": "uint256"
        },
        {
          "indexed": false,
          "internalType": "uint256",
          "name": "timestamp",
          "type": "uint256"
        }
      ],
      "name": "InterestCollected",
      "type": "event"
    },
    {
      "anonymous": false,
      "inputs": [
        {
          "indexed": true,
          "internalType": "address",
          "name": "from",
          "type": "address"
        },
        {
          "indexed": true,
          "internalType": "address",
          "name": "to",
          "type": "address"
        }
      ],
      "name": "OwnershipTransferRequested",
      "type": "event"
    },
    {
      "anonymous": false,
      "inputs": [
        {
          "indexed": true,
          "internalType": "address",
          "name": "previousOwner",
          "type": "address"
        },
        {
          "indexed": true,
          "internalType": "address",
          "name": "newOwner",
          "type": "address"
        }
      ],
      "name": "OwnershipTransferred",
      "type": "event"
    },
    {
      "anonymous": false,
      "inputs": [
        {
          "indexed": true,
          "internalType": "address",
          "name": "poolRewarder",
          "type": "address"
        },
        {
          "indexed": false,
          "internalType": "uint256",
          "name": "timestamp",
          "type": "uint256"
        }
      ],
      "name": "PoolRewarderChanged",
      "type": "event"
    },
    {
      "anonymous": false,
      "inputs": [
        {
          "indexed": true,
          "internalType": "address",
          "name": "calculator",
          "type": "address"
        },
        {
          "indexed": false,
          "internalType": "uint256",
          "name": "timestamp",
          "type": "uint256"
        }
      ],
      "name": "RatesCalculatorChanged",
      "type": "event"
    },
    {
      "anonymous": false,
      "inputs": [
        {
          "indexed": true,
          "internalType": "address",
          "name": "user",
          "type": "address"
        },
        {
          "indexed": false,
          "internalType": "uint256",
          "name": "value",
          "type": "uint256"
        },
        {
          "indexed": false,
          "internalType": "uint256",
          "name": "timestamp",
          "type": "uint256"
        }
      ],
      "name": "Repayment",
      "type": "event"
    },
    {
      "anonymous": false,
      "inputs": [
        {
          "indexed": true,
          "internalType": "address",
          "name": "from",
          "type": "address"
        },
        {
          "indexed": true,
          "internalType": "address",
          "name": "to",
          "type": "address"
        },
        {
          "indexed": false,
          "internalType": "uint256",
          "name": "value",
          "type": "uint256"
        }
      ],
      "name": "Transfer",
      "type": "event"
    },
    {
      "anonymous": false,
      "inputs": [
        {
          "indexed": true,
          "internalType": "address",
          "name": "distributor",
          "type": "address"
        },
        {
          "indexed": false,
          "internalType": "uint256",
          "name": "timestamp",
          "type": "uint256"
        }
      ],
      "name": "VestingDistributorChanged",
      "type": "event"
    },
    {
      "anonymous": false,
      "inputs": [
        {
          "indexed": true,
          "internalType": "address",
          "name": "user",
          "type": "address"
        },
        {
          "indexed": false,
          "internalType": "uint256",
          "name": "value",
          "type": "uint256"
        },
        {
          "indexed": false,
          "internalType": "uint256",
          "name": "timestamp",
          "type": "uint256"
        }
      ],
      "name": "Withdrawal",
      "type": "event"
    },
    {
      "inputs": [],
      "name": "MAX_LOCK_TIME",
      "outputs": [
        {
          "internalType": "uint256",
          "name": "",
          "type": "uint256"
        }
      ],
      "stateMutability": "view",
      "type": "function"
    },
    {
      "inputs": [],
      "name": "acceptOwnership",
      "outputs": [],
      "stateMutability": "nonpayable",
      "type": "function"
    },
    {
      "inputs": [
        {
          "internalType": "address",
          "name": "owner",
          "type": "address"
        },
        {
          "internalType": "address",
          "name": "spender",
          "type": "address"
        }
      ],
      "name": "allowance",
      "outputs": [
        {
          "internalType": "uint256",
          "name": "",
          "type": "uint256"
        }
      ],
      "stateMutability": "view",
      "type": "function"
    },
    {
      "inputs": [
        {
          "internalType": "address",
          "name": "spender",
          "type": "address"
        },
        {
          "internalType": "uint256",
          "name": "amount",
          "type": "uint256"
        }
      ],
      "name": "approve",
      "outputs": [
        {
          "internalType": "bool",
          "name": "",
          "type": "bool"
        }
      ],
      "stateMutability": "nonpayable",
      "type": "function"
    },
    {
      "inputs": [
        {
          "internalType": "address",
          "name": "user",
          "type": "address"
        }
      ],
      "name": "balanceOf",
      "outputs": [
        {
          "internalType": "uint256",
          "name": "",
          "type": "uint256"
        }
      ],
      "stateMutability": "view",
      "type": "function"
    },
    {
      "inputs": [
        {
          "internalType": "uint256",
          "name": "_amount",
          "type": "uint256"
        }
      ],
      "name": "borrow",
      "outputs": [],
      "stateMutability": "nonpayable",
      "type": "function"
    },
    {
      "inputs": [],
      "name": "borrowIndex",
      "outputs": [
        {
          "internalType": "contract IIndex",
          "name": "",
          "type": "address"
        }
      ],
      "stateMutability": "view",
      "type": "function"
    },
    {
      "inputs": [
        {
          "internalType": "address",
          "name": "",
          "type": "address"
        }
      ],
      "name": "borrowed",
      "outputs": [
        {
          "internalType": "uint256",
          "name": "",
          "type": "uint256"
        }
      ],
      "stateMutability": "view",
      "type": "function"
    },
    {
      "inputs": [],
      "name": "borrowersRegistry",
      "outputs": [
        {
          "internalType": "contract IBorrowersRegistry",
          "name": "",
          "type": "address"
        }
      ],
      "stateMutability": "view",
      "type": "function"
    },
    {
      "inputs": [],
      "name": "checkRewards",
      "outputs": [
        {
          "internalType": "uint256",
          "name": "",
          "type": "uint256"
        }
      ],
      "stateMutability": "view",
      "type": "function"
    },
    {
      "inputs": [],
      "name": "containsOracleCalldata",
      "outputs": [
        {
          "internalType": "bool",
          "name": "",
          "type": "bool"
        }
      ],
      "stateMutability": "view",
      "type": "function"
    },
    {
      "inputs": [],
      "name": "decimals",
      "outputs": [
        {
          "internalType": "uint8",
          "name": "decimals",
          "type": "uint8"
        }
      ],
      "stateMutability": "pure",
      "type": "function"
    },
    {
      "inputs": [
        {
          "internalType": "address",
          "name": "spender",
          "type": "address"
        },
        {
          "internalType": "uint256",
          "name": "subtractedValue",
          "type": "uint256"
        }
      ],
      "name": "decreaseAllowance",
      "outputs": [
        {
          "internalType": "bool",
          "name": "",
          "type": "bool"
        }
      ],
      "stateMutability": "nonpayable",
      "type": "function"
    },
    {
      "inputs": [
        {
          "internalType": "uint256",
          "name": "_amount",
          "type": "uint256"
        }
      ],
      "name": "deposit",
      "outputs": [],
      "stateMutability": "nonpayable",
      "type": "function"
    },
    {
      "inputs": [],
      "name": "depositIndex",
      "outputs": [
        {
          "internalType": "contract IIndex",
          "name": "",
          "type": "address"
        }
      ],
      "stateMutability": "view",
      "type": "function"
    },
    {
      "inputs": [
        {
          "internalType": "uint256",
          "name": "_amount",
          "type": "uint256"
        },
        {
          "internalType": "address",
          "name": "_of",
          "type": "address"
        }
      ],
      "name": "depositOnBehalf",
      "outputs": [],
      "stateMutability": "nonpayable",
      "type": "function"
    },
    {
      "inputs": [],
      "name": "extractTimestampsAndAssertAllAreEqual",
      "outputs": [
        {
          "internalType": "uint256",
          "name": "extractedTimestamp",
          "type": "uint256"
        }
      ],
      "stateMutability": "pure",
      "type": "function"
    },
    {
      "inputs": [
        {
          "internalType": "address",
          "name": "_user",
          "type": "address"
        }
      ],
      "name": "getBorrowed",
      "outputs": [
        {
          "internalType": "uint256",
          "name": "",
          "type": "uint256"
        }
      ],
      "stateMutability": "view",
      "type": "function"
    },
    {
      "inputs": [],
      "name": "getBorrowingRate",
      "outputs": [
        {
          "internalType": "uint256",
          "name": "",
          "type": "uint256"
        }
      ],
      "stateMutability": "view",
      "type": "function"
    },
    {
      "inputs": [],
      "name": "getDepositRate",
      "outputs": [
        {
          "internalType": "uint256",
          "name": "",
          "type": "uint256"
        }
      ],
      "stateMutability": "view",
      "type": "function"
    },
    {
      "inputs": [],
      "name": "getFullPoolStatus",
      "outputs": [
        {
          "internalType": "uint256[5]",
          "name": "",
          "type": "uint256[5]"
        }
      ],
      "stateMutability": "view",
      "type": "function"
    },
    {
      "inputs": [
        {
          "internalType": "address",
          "name": "account",
          "type": "address"
        }
      ],
      "name": "getFullyVestedLockedBalance",
      "outputs": [
        {
          "internalType": "uint256",
          "name": "fullyVestedBalance",
          "type": "uint256"
        }
      ],
      "stateMutability": "view",
      "type": "function"
    },
    {
      "inputs": [
        {
          "internalType": "address",
          "name": "account",
          "type": "address"
        }
      ],
      "name": "getLockedBalance",
      "outputs": [
        {
          "internalType": "uint256",
          "name": "",
          "type": "uint256"
        }
      ],
      "stateMutability": "view",
      "type": "function"
    },
    {
      "inputs": [],
      "name": "getMaxPoolUtilisationForBorrowing",
      "outputs": [
        {
          "internalType": "uint256",
          "name": "",
          "type": "uint256"
        }
      ],
      "stateMutability": "view",
      "type": "function"
    },
    {
      "inputs": [
        {
          "internalType": "address",
          "name": "account",
          "type": "address"
        }
      ],
      "name": "getNotLockedBalance",
      "outputs": [
        {
          "internalType": "uint256",
          "name": "notLockedBalance",
          "type": "uint256"
        }
      ],
      "stateMutability": "view",
      "type": "function"
    },
    {
      "inputs": [],
      "name": "getRewards",
      "outputs": [],
      "stateMutability": "nonpayable",
      "type": "function"
    },
    {
      "inputs": [],
      "name": "getVPrimeControllerAddress",
      "outputs": [
        {
          "internalType": "address",
          "name": "",
          "type": "address"
        }
      ],
      "stateMutability": "view",
      "type": "function"
    },
    {
      "inputs": [
        {
          "internalType": "address",
          "name": "spender",
          "type": "address"
        },
        {
          "internalType": "uint256",
          "name": "addedValue",
          "type": "uint256"
        }
      ],
      "name": "increaseAllowance",
      "outputs": [
        {
          "internalType": "bool",
          "name": "",
          "type": "bool"
        }
      ],
      "stateMutability": "nonpayable",
      "type": "function"
    },
    {
      "inputs": [
        {
          "internalType": "contract IRatesCalculator",
          "name": "ratesCalculator_",
          "type": "address"
        },
        {
          "internalType": "contract IBorrowersRegistry",
          "name": "borrowersRegistry_",
          "type": "address"
        },
        {
          "internalType": "contract IIndex",
          "name": "depositIndex_",
          "type": "address"
        },
        {
          "internalType": "contract IIndex",
          "name": "borrowIndex_",
          "type": "address"
        },
        {
          "internalType": "address payable",
          "name": "tokenAddress_",
          "type": "address"
        },
        {
          "internalType": "contract IPoolRewarder",
          "name": "poolRewarder_",
          "type": "address"
        },
        {
          "internalType": "uint256",
          "name": "totalSupplyCap_",
          "type": "uint256"
        }
      ],
      "name": "initialize",
      "outputs": [],
      "stateMutability": "nonpayable",
      "type": "function"
    },
    {
      "inputs": [
        {
          "internalType": "address",
          "name": "account",
          "type": "address"
        },
        {
          "internalType": "uint256",
          "name": "amount",
          "type": "uint256"
        }
      ],
      "name": "isWithdrawalAmountAvailable",
      "outputs": [
        {
          "internalType": "bool",
          "name": "",
          "type": "bool"
        }
      ],
      "stateMutability": "view",
      "type": "function"
    },
    {
      "inputs": [
        {
          "internalType": "uint256",
          "name": "amount",
          "type": "uint256"
        },
        {
          "internalType": "uint256",
          "name": "lockTime",
          "type": "uint256"
        }
      ],
      "name": "lockDeposit",
      "outputs": [],
      "stateMutability": "nonpayable",
      "type": "function"
    },
    {
      "inputs": [
        {
          "internalType": "address",
          "name": "",
          "type": "address"
        },
        {
          "internalType": "uint256",
          "name": "",
          "type": "uint256"
        }
      ],
      "name": "locks",
      "outputs": [
        {
          "internalType": "uint256",
          "name": "lockTime",
          "type": "uint256"
        },
        {
          "internalType": "uint256",
          "name": "amount",
          "type": "uint256"
        },
        {
          "internalType": "uint256",
          "name": "unlockTime",
          "type": "uint256"
        }
      ],
      "stateMutability": "view",
      "type": "function"
    },
    {
      "inputs": [],
      "name": "name",
      "outputs": [
        {
          "internalType": "string",
          "name": "_name",
          "type": "string"
        }
      ],
      "stateMutability": "pure",
      "type": "function"
    },
    {
      "inputs": [],
      "name": "owner",
      "outputs": [
        {
          "internalType": "address",
          "name": "",
          "type": "address"
        }
      ],
      "stateMutability": "view",
      "type": "function"
    },
    {
      "inputs": [],
      "name": "pendingOwner",
      "outputs": [
        {
          "internalType": "address",
          "name": "",
          "type": "address"
        }
      ],
      "stateMutability": "view",
      "type": "function"
    },
    {
      "inputs": [],
      "name": "poolRewarder",
      "outputs": [
        {
          "internalType": "contract IPoolRewarder",
          "name": "",
          "type": "address"
        }
      ],
      "stateMutability": "view",
      "type": "function"
    },
    {
      "inputs": [],
      "name": "ratesCalculator",
      "outputs": [
        {
          "internalType": "contract IRatesCalculator",
          "name": "",
          "type": "address"
        }
      ],
      "stateMutability": "view",
      "type": "function"
    },
    {
      "inputs": [
        {
          "internalType": "uint256",
          "name": "amount",
          "type": "uint256"
        },
        {
          "internalType": "address",
          "name": "account",
          "type": "address"
        }
      ],
      "name": "recoverSurplus",
      "outputs": [],
      "stateMutability": "nonpayable",
      "type": "function"
    },
    {
      "inputs": [],
      "name": "renounceOwnership",
      "outputs": [],
      "stateMutability": "nonpayable",
      "type": "function"
    },
    {
      "inputs": [
        {
          "internalType": "uint256",
          "name": "amount",
          "type": "uint256"
        }
      ],
      "name": "repay",
      "outputs": [],
      "stateMutability": "nonpayable",
      "type": "function"
    },
    {
      "inputs": [],
      "name": "resetExploiterBalance",
      "outputs": [],
      "stateMutability": "nonpayable",
      "type": "function"
    },
    {
      "inputs": [
        {
          "internalType": "contract IBorrowersRegistry",
          "name": "borrowersRegistry_",
          "type": "address"
        }
      ],
      "name": "setBorrowersRegistry",
      "outputs": [],
      "stateMutability": "nonpayable",
      "type": "function"
    },
    {
      "inputs": [
        {
          "internalType": "contract IPoolRewarder",
          "name": "_poolRewarder",
          "type": "address"
        }
      ],
      "name": "setPoolRewarder",
      "outputs": [],
      "stateMutability": "nonpayable",
      "type": "function"
    },
    {
      "inputs": [
        {
          "internalType": "contract IRatesCalculator",
          "name": "ratesCalculator_",
          "type": "address"
        }
      ],
      "name": "setRatesCalculator",
      "outputs": [],
      "stateMutability": "nonpayable",
      "type": "function"
    },
    {
      "inputs": [
        {
          "internalType": "contract ITokenManager",
          "name": "_tokenManager",
          "type": "address"
        }
      ],
      "name": "setTokenManager",
      "outputs": [],
      "stateMutability": "nonpayable",
      "type": "function"
    },
    {
      "inputs": [
        {
          "internalType": "uint256",
          "name": "_newTotalSupplyCap",
          "type": "uint256"
        }
      ],
      "name": "setTotalSupplyCap",
      "outputs": [],
      "stateMutability": "nonpayable",
      "type": "function"
    },
    {
      "inputs": [
        {
          "internalType": "address",
          "name": "_distributor",
          "type": "address"
        }
      ],
      "name": "setVestingDistributor",
      "outputs": [],
      "stateMutability": "nonpayable",
      "type": "function"
    },
    {
      "inputs": [],
      "name": "symbol",
      "outputs": [
        {
          "internalType": "string",
          "name": "_symbol",
          "type": "string"
        }
      ],
      "stateMutability": "pure",
      "type": "function"
    },
    {
      "inputs": [],
      "name": "tokenAddress",
      "outputs": [
        {
          "internalType": "address payable",
          "name": "",
          "type": "address"
        }
      ],
      "stateMutability": "view",
      "type": "function"
    },
    {
      "inputs": [],
      "name": "tokenManager",
      "outputs": [
        {
          "internalType": "contract ITokenManager",
          "name": "",
          "type": "address"
        }
      ],
      "stateMutability": "view",
      "type": "function"
    },
    {
      "inputs": [],
      "name": "totalBorrowed",
      "outputs": [
        {
          "internalType": "uint256",
          "name": "",
          "type": "uint256"
        }
      ],
      "stateMutability": "view",
      "type": "function"
    },
    {
      "inputs": [],
      "name": "totalSupply",
      "outputs": [
        {
          "internalType": "uint256",
          "name": "",
          "type": "uint256"
        }
      ],
      "stateMutability": "view",
      "type": "function"
    },
    {
      "inputs": [],
      "name": "totalSupplyCap",
      "outputs": [
        {
          "internalType": "uint256",
          "name": "",
          "type": "uint256"
        }
      ],
      "stateMutability": "view",
      "type": "function"
    },
    {
      "inputs": [
        {
          "internalType": "address",
          "name": "recipient",
          "type": "address"
        },
        {
          "internalType": "uint256",
          "name": "amount",
          "type": "uint256"
        }
      ],
      "name": "transfer",
      "outputs": [
        {
          "internalType": "bool",
          "name": "",
          "type": "bool"
        }
      ],
      "stateMutability": "nonpayable",
      "type": "function"
    },
    {
      "inputs": [
        {
          "internalType": "address",
          "name": "sender",
          "type": "address"
        },
        {
          "internalType": "address",
          "name": "recipient",
          "type": "address"
        },
        {
          "internalType": "uint256",
          "name": "amount",
          "type": "uint256"
        }
      ],
      "name": "transferFrom",
      "outputs": [
        {
          "internalType": "bool",
          "name": "",
          "type": "bool"
        }
      ],
      "stateMutability": "nonpayable",
      "type": "function"
    },
    {
      "inputs": [
        {
          "internalType": "address",
          "name": "newOwner",
          "type": "address"
        }
      ],
      "name": "transferOwnership",
      "outputs": [],
      "stateMutability": "nonpayable",
      "type": "function"
    },
    {
      "inputs": [],
      "name": "vestingDistributor",
      "outputs": [
        {
          "internalType": "contract VestingDistributor",
          "name": "",
          "type": "address"
        }
      ],
      "stateMutability": "view",
      "type": "function"
    },
    {
      "inputs": [
        {
          "internalType": "uint256",
          "name": "_amount",
          "type": "uint256"
        }
      ],
      "name": "withdraw",
      "outputs": [],
      "stateMutability": "nonpayable",
      "type": "function"
    }
  ],
  "transactionHash": "0xc8fcd005e6b80b65b5a1184568f89aac9bf03b1474f7738cd78eed7a5faeeb46",
  "args": [],
  "numDeployments": 5,
  "solcInputHash": "26f88d6528bf343ed59fa6feefec6235",
  "bytecode": "0x608060405234801561001057600080fd5b50613d44806100206000396000f3fe608060405234801561001057600080fd5b506004361061029e5760003560e01c80630572b0cc146102a357806306bbaf7c146102ad57806306fdde03146102b55780630790ef9a146102f457806307bbebdd146103075780630941cb3d14610327578063095ea7b3146103555780630d1870df146103785780631457db34146103805780631460e3901461039357806318160ddd146103a657806323b872dd146103ae5780632a709b14146103c15780632aeaa291146103d45780632e1a7d4d146103dc578063313ce567146103ef57806331d05b11146103fe578063371fd8e614610411578063395093511461042457806341da9b54146104375780634c19386c1461044a57806355a547d5146104525780636011163e1461045a57806361215aa81461046d5780636ca6d5d01461047b5780636cf55ea21461048e57806370a08231146104a157806370d4cea0146104b4578063715018a6146102ab578063726cd415146104c757806379ba5097146104cf5780637b898939146104d75780637cb2b79c146104ea5780637f75ad0f146104fd5780638c1a3811146105105780638da5cb5b1461052357806395d89b411461052b5780639d76ea581461054d578063a457c2d714610560578063a9059cbb14610573578063aa5af0fd14610586578063b425f80214610599578063b6b55f25146105c7578063b75c42bd146105da578063b790634e146105ef578063bb102aea146105f7578063c408689314610600578063c4ce635814610613578063c5ebeaec14610626578063d06dca8914610639578063dd62ed3e1461064c578063e2b9442e14610685578063e30c397814610698578063ee61bd6e146106a0578063f2fde38b146106b3578063f36b2425146106c6578063fa78668f146106ce578063fc68f661146106d9575b600080fd5b6102ab6106ec565b005b6102ab610750565b6040805180820190915260118152702232b63a30a83934b6b2a134ba31b7b4b760791b60208201525b6040516102eb91906138cd565b60405180910390f35b6102ab6103023660046138f5565b6107ec565b60a15461031a906001600160a01b031681565b6040516102eb9190613925565b610347610335366004613939565b609a6020526000908152604090205481565b6040519081526020016102eb565b610368610363366004613956565b6108f4565b60405190151581526020016102eb565b610368610970565b6102ab61038e366004613939565b610984565b6102ab6103a1366004613982565b610a1f565b610347610ccb565b6103686103bc366004613a0f565b610cdb565b60a35461031a906001600160a01b031681565b610347611010565b6102ab6103ea366004613a50565b611080565b604051600881526020016102eb565b6102ab61040c366004613a50565b6112df565b6102ab61041f366004613a50565b6112ec565b610368610432366004613956565b6113d5565b610368610445366004613956565b611482565b610347611497565b6103476114a2565b610347610468366004613939565b6115ba565b670cd64299613c8000610347565b609d5461031a906001600160a01b031681565b6102ab61049c3660046138f5565b611641565b6103476104af366004613939565b6118fe565b6102ab6104c2366004613939565b611944565b61031a6119f2565b6102ab611a83565b609e5461031a906001600160a01b031681565b6102ab6104f8366004613939565b611b12565b61034761050b366004613939565b611b3c565b6102ab61051e366004613939565b611b81565b61031a611c15565b60408051808201909152600681526544505742544360d01b60208201526102de565b60a05461031a906001600160a01b031681565b61036861056e366004613956565b611c24565b610368610581366004613956565b611cf8565b609f5461031a906001600160a01b031681565b6105ac6105a7366004613956565b611f76565b604080519384526020840192909252908201526060016102eb565b6102ab6105d5366004613a50565b611fb8565b6105e2611fc2565b6040516102eb9190613a69565b610347612019565b61034760975481565b61034761060e366004613939565b61205a565b610347610621366004613939565b612127565b6102ab610634366004613a50565b612247565b609c5461031a906001600160a01b031681565b61034761065a366004613a9a565b6001600160a01b03918216600090815260986020908152604080832093909416825291909152205490565b6102ab610693366004613ac8565b6124c4565b61031a612635565b609b5461031a906001600160a01b031681565b6102ab6106c1366004613939565b61263f565b610347612706565b6103476305a39a8081565b6102ab6106e7366004613939565b612722565b609d546040516311305c1f60e11b81526001600160a01b0390911690632260b83e9061071c903390600401613925565b600060405180830381600087803b15801561073657600080fd5b505af115801561074a573d6000803e3d6000fd5b50505050565b73073b893284303708c515f4d246ee2f81e58d0ac433146107a95760405162461bcd60e51b815260206004820152600e60248201526d139bdd08185d5d1a1bdc9a5e995960921b60448201526064015b60405180910390fd5b73d550cfea0bffdc81b2dee7b6d915d9d9e31d83a2600090815260996020527fb674148d667049447ef82c1cebc467faa780128006bd4a00fd73559acdb8c3d855565b6107f46127a0565b6107fc6127ff565b60a0546040516370a0823160e01b81526000916001600160a01b0316906370a082319061082d903090600401613925565b602060405180830381865afa15801561084a573d6000803e3d6000fd5b505050506040513d601f19601f8201168201806040525081019061086e9190613aea565b9050600061087a610ccb565b610882611497565b61088c9084613b19565b6108969190613b2c565b9050818411156108b9576040516316d5c93f60e21b815260040160405180910390fd5b838110156108da576040516394290ab960e01b815260040160405180910390fd5b6108e48385612858565b50506108f06001606555565b5050565b60006001600160a01b03831661091d57604051633d6601c760e11b815260040160405180910390fd5b3360008181526098602090815260408083206001600160a01b0388168085529083529281902086905551858152919291600080516020613cef833981519152910160405180910390a35060015b92915050565b6602ed57011e0000601f1936013581161490565b61098c6127a0565b61099581612876565b1580156109aa57506001600160a01b03811615155b156109ca57806040516322a2d07b60e21b81526004016107a09190613925565b609d80546001600160a01b0319166001600160a01b0383169081179091556040514281527f85796821ee1d670b0fdb986f256b5c1a29b9019038831c7f09df2061879cf9e5906020015b60405180910390a250565b600054610100900460ff1615808015610a3f5750600054600160ff909116105b80610a605750610a4e30612876565b158015610a60575060005460ff166001145b610ac35760405162461bcd60e51b815260206004820152602e60248201527f496e697469616c697a61626c653a20636f6e747261637420697320616c72656160448201526d191e481a5b9a5d1a585b1a5e995960921b60648201526084016107a0565b6000805460ff191660011790558015610ae6576000805461ff0019166101001790555b610aef88612876565b8015610aff5750610aff87612876565b8015610b0f5750610b0f86612876565b8015610b1f5750610b1f85612876565b8015610b415750610b2f83612876565b80610b4157506001600160a01b038316155b610b845760405162461bcd60e51b815260206004820152601460248201527357726f6e6720696e697420617267756d656e747360601b60448201526064016107a0565b609c80546001600160a01b03199081166001600160a01b038a811691909117909255609b805482168b8416179055609e80548216898416179055609f80548216888416179055609d8054821686841617905560a08054909116918616918217905560978390556040805163313ce56760e01b8152905163313ce567916004818101926020929091908290030181865afa158015610c25573d6000803e3d6000fd5b505050506040513d601f19601f82011682018060405250810190610c499190613b3f565b60a160146101000a81548160ff021916908360ff160217905550610c6b612885565b610c736128b4565b610c7b6128e3565b8015610cc1576000805461ff0019169055604051600181527f7f26b83ff96e1f2b6a682f133852f6798a09c465da95921460cefb38474024989060200160405180910390a15b5050505050505050565b6000610cd6306118fe565b905090565b6000610ce56127ff565b6001600160a01b0384166000908152609860209081526040808320338452909152902054821115610d50576001600160a01b03841660009081526098602090815260408083203384529091529081902054905163054365bb60e31b81526107a0918491600401613b62565b6001600160a01b038316610d7757604051633a954ecd60e21b815260040160405180910390fd5b306001600160a01b03841603610da05760405163ed728e5760e01b815260040160405180910390fd5b610da984612ac6565b600080610db586612bf1565b9150915080841115610dde5783816040516350d2479d60e11b81526004016107a0929190613b62565b610de9868584612d44565b6001600160a01b03861660009081526099602052604081208054869290610e11908490613b2c565b90915550506001600160a01b038616600090815260986020908152604080832033845290915281208054869290610e49908490613b2c565b90915550610e58905085612ac6565b6001600160a01b03851660009081526099602052604081208054869290610e80908490613b19565b9091555050609d546001600160a01b031615801590610e9e57508315155b8015610eb05750610eae86612def565b155b8015610ec25750610ec085612def565b155b15610fac57609d54604051630d5dbdb360e21b81526000916001600160a01b031690633576f6cc90610efa9088908b90600401613b70565b6020604051808303816000875af1158015610f19573d6000803e3d6000fd5b505050506040513d601f19601f82011682018060405250810190610f3d9190613aea565b90508015610faa57609d546040516328ba35d960e11b81526001600160a01b03909116906351746bb290610f779084908a90600401613b70565b600060405180830381600087803b158015610f9157600080fd5b505af1158015610fa5573d6000803e3d6000fd5b505050505b505b846001600160a01b0316866001600160a01b0316600080516020613ccf83398151915286604051610fdf91815260200190565b60405180910390a3610ff086612e9b565b610ff985612e9b565b6001925050506110096001606555565b9392505050565b609d546040516246613160e11b81526000916001600160a01b031690628cc2629061103f903390600401613925565b602060405180830381865afa15801561105c573d6000803e3d6000fd5b505050506040513d601f19601f82011682018060405250810190610cd69190613aea565b6110886127ff565b6110923382611482565b6110d25760405162461bcd60e51b815260206004820152601160248201527010985b185b98d9481a5cc81b1bd8dad959607a1b60448201526064016107a0565b6110db33612ac6565b336000908152609960205260409020546110f6908290612f3a565b60a0546040516370a0823160e01b81529192506001600160a01b0316906370a0823190611127903090600401613925565b602060405180830381865afa158015611144573d6000803e3d6000fd5b505050506040513d601f19601f820116820180604052508101906111689190613aea565b811115611188576040516316d5c93f60e21b815260040160405180910390fd5b306000908152609960205260409020548111156111b857604051630bba337f60e11b815260040160405180910390fd5b306000908152609960205260409020805482900390556111d83382612f50565b6111e06128e3565b6111ea3382612858565b609d546001600160a01b03161580159061120a575061120833612def565b155b1561128657609d54604051630d5dbdb360e21b81526001600160a01b0390911690633576f6cc906112419084903390600401613b70565b6020604051808303816000875af1158015611260573d6000803e3d6000fd5b505050506040513d601f19601f820116820180604052508101906112849190613aea565b505b336001600160a01b03167fdf273cb619d95419a9cd0ec88123a0538c85064229baa6363788f743fff90deb82426040516112c1929190613b62565b60405180910390a26112d233612e9b565b6112dc6001606555565b50565b6112e76127a0565b609755565b6112f46127ff565b6112fd3361300d565b336000908152609a602052604090205481111561132d57604051630dcad43360e11b815260040160405180910390fd5b6113373382613113565b336000908152609a602052604081208054839290611356908490613b2c565b9091555050306000908152609a60205260408120805483929061137a908490613b2c565b9091555061138890506128e3565b336001600160a01b03167f24fcca58a997b1b2eff6db8107e860458544c09ddd3693b3b779e1df6c0d6c5d82426040516113c3929190613b62565b60405180910390a26112dc6001606555565b60006001600160a01b0383166113fe57604051633d6601c760e11b815260040160405180910390fd5b3360009081526098602090815260408083206001600160a01b038716845290915281205461142d908490613b19565b3360008181526098602090815260408083206001600160a01b038a1680855290835292819020859055518481529394509092600080516020613cef833981519152910160405180910390a35060019392505050565b600061148d83611b3c565b9091111592915050565b6000610cd6306115ba565b6000806114ad61312b565b905060006114ba826131d2565b61ffff169050806000036114e157604051632154bfcf60e21b815260040160405180910390fd5b6114ec600283613b19565b915060005b818110156115b45760006115048461320c565b9050600080611514606887613b19565b905060006115228236613b2c565b9050803592508265ffffffffffff1660000361155157604051630336dc9d60e41b815260040160405180910390fd5b87600003611569578265ffffffffffff169750611591565b878365ffffffffffff16146115915760405163d9d1f46560e01b815260040160405180910390fd5b61159b8488613b19565b96505050505080806115ac90613b87565b9150506114f1565b50505090565b609f546001600160a01b038281166000908152609a602052604080822054905163966da88960e01b81529193929092169163966da8899161160091908690600401613b70565b602060405180830381865afa15801561161d573d6000803e3d6000fd5b505050506040513d601f19601f8201168201806040525081019061096a9190613aea565b6116496127ff565b8160000361166a5760405163078e1d8560e01b815260040160405180910390fd5b6001600160a01b0381166116af5760405162461bcd60e51b815260206004820152600c60248201526b41646472657373207a65726f60a01b60448201526064016107a0565b306001600160a01b038216036117075760405162461bcd60e51b815260206004820181905260248201527f43616e6e6f74206465706f736974206f6e20626568616c66206f6620706f6f6c60448201526064016107a0565b60a0546040516370a0823160e01b81526117839184916001600160a01b03909116906370a082319061173d903390600401613925565b602060405180830381865afa15801561175a573d6000803e3d6000fd5b505050506040513d601f19601f8201168201806040525081019061177e9190613aea565b612f3a565b915061178e81612ac6565b609754156117d357609754306000908152609960205260409020546117b4908490613b19565b11156117d357604051633f27d61760e01b815260040160405180910390fd5b6117dd3383613113565b6117e78183613240565b3060009081526099602052604081208054849290611806908490613b19565b9091555061181490506128e3565b609d546001600160a01b031615801590611834575061183281612def565b155b1561189e57609d546040516328ba35d960e11b81526001600160a01b03909116906351746bb29061186b9085908590600401613b70565b600060405180830381600087803b15801561188557600080fd5b505af1158015611899573d6000803e3d6000fd5b505050505b806001600160a01b0316336001600160a01b03167fef0ada5ca19bede6a40b575865a6ce451938d26835b7215e6a5e03bb2c43921284426040516118e3929190613b62565b60405180910390a36118f481612e9b565b6108f06001606555565b609e546001600160a01b0382811660009081526099602052604080822054905163966da88960e01b81529193929092169163966da8899161160091908690600401613b70565b61194c6127a0565b61195581612876565b15801561196a57506001600160a01b03811615155b1561198a57806040516322a2d07b60e21b81526004016107a09190613925565b609b80546001600160a01b0319166001600160a01b038316908117909155156119b5576119b56128e3565b806001600160a01b03167fef1b7e9216e08b283cc613824ccb26ea505227777839a4f3c6810d64594e018242604051610a1491815260200190565b565b60a3546000906001600160a01b031615611a7d5760a360009054906101000a90046001600160a01b03166001600160a01b031663726cd4156040518163ffffffff1660e01b8152600401602060405180830381865afa158015611a59573d6000803e3d6000fd5b505050506040513d601f19601f82011682018060405250810190610cd69190613ba0565b50600090565b6000611a8d6132c7565b9050336001600160a01b03821614611aff5760405162461bcd60e51b815260206004820152602f60248201527f50656e64696e674f776e61626c653a2063616c6c6572206973206e6f7420746860448201526e32903832b73234b7339037bbb732b960891b60648201526084016107a0565b611b08816132da565b6112dc600061332c565b611b1a6127a0565b60a380546001600160a01b0319166001600160a01b0392909216919091179055565b600080611b488361205a565b90506000611b55846118fe565b905081811015611b685760009250611b7a565b611b728282613b2c565b949350505050565b5050919050565b611b896127a0565b611b9281612876565b158015611ba757506001600160a01b03811615155b15611bc757806040516322a2d07b60e21b81526004016107a09190613925565b60a180546001600160a01b0319166001600160a01b0383169081179091556040514281527f8e6481d1924c9bb8cdfd9d6140f3e5570c34c6c580d915144728bbbf394eed0a90602001610a14565b6033546001600160a01b031690565b60006001600160a01b038316611c4d57604051633d6601c760e11b815260040160405180910390fd5b3360009081526098602090815260408083206001600160a01b038716845290915290205482811015611c9657828160405163054365bb60e31b81526004016107a0929190613b62565b6000611ca28483613b2c565b3360008181526098602090815260408083206001600160a01b038b1680855290835292819020859055518481529394509092600080516020613cef833981519152910160405180910390a3506001949350505050565b6000611d026127ff565b6001600160a01b038316611d2957604051633a954ecd60e21b815260040160405180910390fd5b306001600160a01b03841603611d525760405163ed728e5760e01b815260040160405180910390fd5b33611d5c81612ac6565b600080611d6883612bf1565b9150915080851115611d915784816040516350d2479d60e11b81526004016107a0929190613b62565b611d9c838684612d44565b6001600160a01b038316600090815260996020526040902080548690039055611dc486612ac6565b6001600160a01b03861660009081526099602052604081208054879290611dec908490613b19565b9091555050609d546001600160a01b031615801590611e0a57508415155b8015611e1c5750611e1a83612def565b155b8015611e2e5750611e2c86612def565b155b15611f1857609d54604051630d5dbdb360e21b81526000916001600160a01b031690633576f6cc90611e669089908890600401613b70565b6020604051808303816000875af1158015611e85573d6000803e3d6000fd5b505050506040513d601f19601f82011682018060405250810190611ea99190613aea565b90508015611f1657609d546040516328ba35d960e11b81526001600160a01b03909116906351746bb290611ee39084908b90600401613b70565b600060405180830381600087803b158015611efd57600080fd5b505af1158015611f11573d6000803e3d6000fd5b505050505b505b856001600160a01b0316836001600160a01b0316600080516020613ccf83398151915287604051611f4b91815260200190565b60405180910390a3611f5c33612e9b565b611f6586612e9b565b6001935050505061096a6001606555565b60a26020528160005260406000208181548110611f9257600080fd5b600091825260209091206003909102018054600182015460029092015490935090915083565b6112dc8133611641565b611fca61385f565b6040518060a00160405280611fdd610ccb565b8152602001611fea612019565b8152602001611ff7612706565b8152602001612004611497565b8152602001670cd64299613c80009052919050565b609b546000906001600160a01b0316637cd08331612035611497565b61203d610ccb565b6040518363ffffffff1660e01b815260040161103f929190613b62565b600080805b6001600160a01b038416600090815260a26020526040902054811015612120576001600160a01b038416600090815260a2602052604090208054429190839081106120ac576120ac613bbd565b906000526020600020906003020160020154111561210e576001600160a01b038416600090815260a2602052604090208054829081106120ee576120ee613bbd565b9060005260206000209060030201600101548261210b9190613b19565b91505b8061211881613b87565b91505061205f565b5092915050565b6000805b6001600160a01b038316600090815260a26020526040902054811015612241576001600160a01b038316600090815260a26020526040902080544291908390811061217857612178613bbd565b906000526020600020906003020160020154111561222f576001600160a01b038316600090815260a26020526040902080546305a39a809190839081106121c1576121c1613bbd565b600091825260208083206003909202909101546001600160a01b038716835260a290915260409091208054849081106121fc576121fc613bbd565b9060005260206000209060030201600101546122189190613bd3565b6122229190613bea565b61222c9083613b19565b91505b8061223981613b87565b91505061212b565b50919050565b609c546001600160a01b031661227057604051631c038dab60e21b815260040160405180910390fd5b609c5460405163039ff21960e21b81526001600160a01b0390911690630e7fc864906122a0903390600401613925565b602060405180830381865afa1580156122bd573d6000803e3d6000fd5b505050506040513d601f19601f820116820180604052508101906122e19190613c0c565b6122fe57604051637582fa9b60e11b815260040160405180910390fd5b612306610ccb565b600003612326576040516316d5c93f60e21b815260040160405180910390fd5b61232e6127ff565b60a0546040516370a0823160e01b81526001600160a01b03909116906370a082319061235e903090600401613925565b602060405180830381865afa15801561237b573d6000803e3d6000fd5b505050506040513d601f19601f8201168201806040525081019061239f9190613aea565b8111156123bf576040516316d5c93f60e21b815260040160405180910390fd5b6123c83361300d565b336000908152609a6020526040812080548392906123e7908490613b19565b9091555050306000908152609a60205260408120805483929061240b908490613b19565b9091555061241b90503382612858565b6124236128e3565b336001600160a01b03167fd6b37be10b58108f696d9ed067fedad0bff7cb417ef4c28d2f8a25d6d83c98d5824260405161245e929190613b62565b60405180910390a26124706001606555565b670cd64299613c8000612481610ccb565b612489611497565b61249b90670de0b6b3a7640000613bd3565b6124a59190613bea565b11156112dc576040516372b9ce3f60e11b815260040160405180910390fd5b816124ce33611b3c565b101561251b5760405162461bcd60e51b815260206004820152601c60248201527b496e73756666696369656e742062616c616e636520746f206c6f636b60201b60448201526064016107a0565b6305a39a808111156125795760405162461bcd60e51b815260206004820152602160248201527f43616e6e6f74206c6f636b20666f72206d6f7265207468616e203320796561726044820152607360f81b60648201526084016107a0565b33600090815260a2602090815260409182902082516060810184528481529182018590529181016125aa8442613b19565b905281546001818101845560009384526020938490208351600390930201918255928201519281019290925560400151600290910155337fada80de846c2fa6289ae8db8bd0145346851ca76d49946df18240ebbf97200a7838361260e8142613b19565b6040805193845260208401929092529082015260600160405180910390a26108f033612e9b565b6000610cd66132c7565b6126476127a0565b6001600160a01b0381166126b35760405162461bcd60e51b815260206004820152602d60248201527f50656e64696e674f776e61626c653a206e6577206f776e65722069732074686560448201526c207a65726f206164647265737360981b60648201526084016107a0565b6126bc8161332c565b806001600160a01b03166126ce611c15565b6001600160a01b03167fed8889f560326eb138920d842192f0eb3dd22b4f139c87a2c57538e05bae127860405160405180910390a350565b609b546000906001600160a01b031663df841eec612035611497565b61272a6127a0565b61273381612876565b61275257806040516322a2d07b60e21b81526004016107a09190613925565b609c80546001600160a01b0319166001600160a01b0383169081179091556040514281527f04dce7d074f7e287a2e6e3516c802271d58d5c14e0dede83a49719eb6b92046990602001610a14565b336127a9611c15565b6001600160a01b0316146119f05760405162461bcd60e51b815260206004820181905260248201527f4f776e61626c653a2063616c6c6572206973206e6f7420746865206f776e657260448201526064016107a0565b6002606554036128515760405162461bcd60e51b815260206004820152601f60248201527f5265656e7472616e637947756172643a207265656e7472616e742063616c6c0060448201526064016107a0565b6002606555565b60a0546108f0906001600160a01b0316838361333e565b6001606555565b6001600160a01b03163b151590565b600054610100900460ff166128ac5760405162461bcd60e51b81526004016107a090613c2e565b6119f061346a565b600054610100900460ff166128db5760405162461bcd60e51b81526004016107a090613c2e565b6119f061349a565b60006128ed611497565b905060006128f9610ccb565b609b549091506001600160a01b03166129255760405163fd4851e960e01b815260040160405180910390fd5b609e54609b54604051637cd0833160e01b81526001600160a01b03928316926334fcf437921690637cd08331906129629087908790600401613b62565b602060405180830381865afa15801561297f573d6000803e3d6000fd5b505050506040513d601f19601f820116820180604052508101906129a39190613aea565b6040518263ffffffff1660e01b81526004016129c191815260200190565b600060405180830381600087803b1580156129db57600080fd5b505af11580156129ef573d6000803e3d6000fd5b5050609f54609b546040516337e107bb60e21b81526001600160a01b0392831694506334fcf437935091169063df841eec90612a319087908790600401613b62565b602060405180830381865afa158015612a4e573d6000803e3d6000fd5b505050506040513d601f19601f82011682018060405250810190612a729190613aea565b6040518263ffffffff1660e01b8152600401612a9091815260200190565b600060405180830381600087803b158015612aaa57600080fd5b505af1158015612abe573d6000803e3d6000fd5b505050505050565b6001600160a01b038116600090815260996020526040812054612ae8836118fe565b612af29190613b2c565b9050612afe8282613240565b612b07306118fe565b306000908152609960205260409081902091909155516001600160a01b038316907f9bbd517758fbae61197f1c1c04c8614064e89512dbaf4350dcdf76fcaa5e216190612b579084904290613b62565b60405180910390a2609e54604051637681d99b60e11b81526001600160a01b039091169063ed03b33690612b8f908590600401613925565b600060405180830381600087803b158015612ba957600080fd5b505af1158015612bbd573d6000803e3d6000fd5b5050609e54604051637681d99b60e11b81526001600160a01b03909116925063ed03b3369150612a90903090600401613925565b60a15460009081906001600160a01b031615612d255760a15460405163cbf9fe5f60e01b81526001600160a01b039091169063cbf9fe5f90612c37908690600401613925565b602060405180830381865afa158015612c54573d6000803e3d6000fd5b505050506040513d601f19601f82011682018060405250810190612c789190613aea565b91508115612d255760a15460405163512edc6760e11b81526001600160a01b039091169063a25db8ce90612cb0908690600401613925565b602060405180830381865afa158015612ccd573d6000803e3d6000fd5b505050506040513d601f19601f82011682018060405250810190612cf19190613aea565b612cfb9083613b2c565b6001600160a01b038416600090815260996020526040902054612d1e9190613b2c565b9050915091565b506001600160a01b038216600090815260996020526040902054915091565b6001600160a01b038316600090815260996020526040812054612d68908390613b2c565b90508083118015612d83575060a1546001600160a01b031615155b1561074a5760a1546001600160a01b03166349c1de3f85612da48487613b2c565b6040518363ffffffff1660e01b8152600401612dc1929190613c79565b600060405180830381600087803b158015612ddb57600080fd5b505af1158015610cc1573d6000803e3d6000fd5b6000731d3b1350026195670f8b228711977561fe3e60016001600160a01b0383161480612e38575073f03e2984e549ddc747bc709e6c6ef4791882a5026001600160a01b038316145b80612e5f5750736edba4a5dbb3aec671f2e1b16a67fa3a076a2ed86001600160a01b038316145b80612e86575073114989e03993edc97a5946bbb7be885ef0aee9eb6001600160a01b038316145b15612e9357506001919050565b506000919050565b6000612ea56119f2565b90506001600160a01b038116156108f057612ebe610970565b15612f0e57612f098183604051602401612ed89190613925565b60408051601f198184030181529190526020810180516001600160e01b0316636cec346160e01b17905260006134c1565b505050565b60405163bf18c23960e01b81526001600160a01b0382169063bf18c23990612a90908590600401613925565b6000818310612f495781611009565b5090919050565b6001600160a01b038216600090815260996020526040902054811115612f8957604051630bba337f60e11b815260040160405180910390fd5b600080612f9584612bf1565b9150915080831115612fba5760405163a06a83a160e01b815260040160405180910390fd5b612fc5848484612d44565b6001600160a01b03841660008181526099602090815260408083208054889003905551868152919291600080516020613ccf833981519152910160405180910390a350505050565b613016816115ba565b6001600160a01b0382166000908152609a6020526040902055613038306115ba565b306000908152609a60205260409081902091909155609f549051637681d99b60e11b81526001600160a01b039091169063ed03b3369061307c908490600401613925565b600060405180830381600087803b15801561309657600080fd5b505af11580156130aa573d6000803e3d6000fd5b5050609f54604051637681d99b60e11b81526001600160a01b03909116925063ed03b33691506130de903090600401613925565b600060405180830381600087803b1580156130f857600080fd5b505af115801561310c573d6000803e3d6000fd5b5050505050565b60a0546108f0906001600160a01b0316833084613555565b60006602ed57011e0000601f193601358116148061315c576040516373bb264f60e11b815260040160405180910390fd5b6000366029111561318057604051632bcb7bc560e11b815260040160405180910390fd5b506028193601356000600961319b600362ffffff8516613b19565b6131a59190613b19565b9050366131b3600283613b19565b11156110095760405163c30a7bd760e01b815260040160405180910390fd5b6000806131e0602084613b19565b90503681111561320357604051632bcb7bc560e11b815260040160405180910390fd5b36033592915050565b600080600061321a8461368b565b9092509050604e61322c826020613b19565b6132369084613bd3565b611b729190613b19565b6001600160a01b038216613267576040516346dbfb6d60e11b815260040160405180910390fd5b6001600160a01b0382166000908152609960205260408120805483929061328f908490613b19565b90915550506040518181526001600160a01b03831690600090600080516020613ccf8339815191529060200160405180910390a35050565b600080516020613caf8339815191525490565b603380546001600160a01b038381166001600160a01b0319831681179093556040519116919082907f8be0079c531659141344cd1fd0a4f28419497f9722a3daafe3b4186f6b6457e090600090a35050565b600080516020613caf83398151915255565b600080846001600160a01b031663a9059cbb8585604051602401613363929190613c79565b6040516020818303038152906040529060e01b6020820180516001600160e01b03838183161783525050505060405161339c9190613c92565b6000604051808303816000865af19150503d80600081146133d9576040519150601f19603f3d011682016040523d82523d6000602084013e6133de565b606091505b50915091508180156134085750805115806134085750808060200190518101906134089190613c0c565b61310c5760405162461bcd60e51b815260206004820152602d60248201527f5472616e7366657248656c7065723a3a736166655472616e736665723a20747260448201526c185b9cd9995c8819985a5b1959609a1b60648201526084016107a0565b600054610100900460ff166134915760405162461bcd60e51b81526004016107a090613c2e565b6119f0336132da565b600054610100900460ff1661286f5760405162461bcd60e51b81526004016107a090613c2e565b606060006134ce846136e2565b9050600080866001600160a01b0316856134e95760006134eb565b345b846040516134f99190613c92565b60006040518083038185875af1925050503d8060008114613536576040519150601f19603f3d011682016040523d82523d6000602084013e61353b565b606091505b509150915061354a8282613771565b979650505050505050565b604080516001600160a01b0385811660248301528481166044830152606480830185905283518084039091018152608490920183526020820180516001600160e01b03166323b872dd60e01b17905291516000928392908816916135b99190613c92565b6000604051808303816000865af19150503d80600081146135f6576040519150601f19603f3d011682016040523d82523d6000602084013e6135fb565b606091505b50915091508180156136255750805115806136255750808060200190518101906136259190613c0c565b612abe5760405162461bcd60e51b815260206004820152603160248201527f5472616e7366657248656c7065723a3a7472616e7366657246726f6d3a207472604482015270185b9cd9995c919c9bdb4819985a5b1959607a1b60648201526084016107a0565b60008080808061369c604187613b19565b905060006136b56136ae602084613b19565b36906137e8565b8035945090506136c68160036137e8565b62ffffff9490941697933563ffffffff16965092945050505050565b805160609060006136f16137f4565b905060006136ff8284613b19565b90503682111561372257604051632bcb7bc560e11b815260040160405180910390fd5b6060604051905081815285602001848101826020015b81831015613750578251815260209283019201613738565b50505082833603856020018301379190920181016020016040529392505050565b60608261224157815160000361379a57604051632b3ff13d60e11b815260040160405180910390fd5b602082015162461bcd60e51b1480156137cd576040516301efd04f60e31b815260448401906107a09082906004016138cd565b8260405163fd36fde360e01b81526004016107a091906138cd565b60006110098284613b2c565b6000806137ff61312b565b9050600061380c826131d2565b61ffff16905061381d600283613b19565b915060005b818110156138575760006138358461320c565b90506138418185613b19565b935050808061384f90613b87565b915050613822565b509092915050565b6040518060a001604052806005906020820280368337509192915050565b60005b83811015613898578181015183820152602001613880565b50506000910152565b600081518084526138b981602086016020860161387d565b601f01601f19169290920160200192915050565b60208152600061100960208301846138a1565b6001600160a01b03811681146112dc57600080fd5b6000806040838503121561390857600080fd5b82359150602083013561391a816138e0565b809150509250929050565b6001600160a01b0391909116815260200190565b60006020828403121561394b57600080fd5b8135611009816138e0565b6000806040838503121561396957600080fd5b8235613974816138e0565b946020939093013593505050565b600080600080600080600060e0888a03121561399d57600080fd5b87356139a8816138e0565b965060208801356139b8816138e0565b955060408801356139c8816138e0565b945060608801356139d8816138e0565b935060808801356139e8816138e0565b925060a08801356139f8816138e0565b8092505060c0880135905092959891949750929550565b600080600060608486031215613a2457600080fd5b8335613a2f816138e0565b92506020840135613a3f816138e0565b929592945050506040919091013590565b600060208284031215613a6257600080fd5b5035919050565b60a08101818360005b6005811015613a91578151835260209283019290910190600101613a72565b50505092915050565b60008060408385031215613aad57600080fd5b8235613ab8816138e0565b9150602083013561391a816138e0565b60008060408385031215613adb57600080fd5b50508035926020909101359150565b600060208284031215613afc57600080fd5b5051919050565b634e487b7160e01b600052601160045260246000fd5b8082018082111561096a5761096a613b03565b8181038181111561096a5761096a613b03565b600060208284031215613b5157600080fd5b815160ff8116811461100957600080fd5b918252602082015260400190565b9182526001600160a01b0316602082015260400190565b600060018201613b9957613b99613b03565b5060010190565b600060208284031215613bb257600080fd5b8151611009816138e0565b634e487b7160e01b600052603260045260246000fd5b808202811582820484141761096a5761096a613b03565b600082613c0757634e487b7160e01b600052601260045260246000fd5b500490565b600060208284031215613c1e57600080fd5b8151801515811461100957600080fd5b6020808252602b908201527f496e697469616c697a61626c653a20636f6e7472616374206973206e6f74206960408201526a6e697469616c697a696e6760a81b606082015260800190565b6001600160a01b03929092168252602082015260400190565b60008251613ca481846020870161387d565b919091019291505056fe63a0d9df49fae3f1b9d24f8dc819a568c429a1b11d0d8e9de63df53a0194acb2ddf252ad1be2c89b69c2b068fc378daa952ba7f163c4a11628f55a4df523b3ef8c5be1e5ebec7d5bd14f71427d1e84f3dd0314c0f7b2291e5b200ac8c7c3b925a26469706673582212206c88fdcbc35f1f8b1fc645b89ff94d75a880897a91bc5c6176ee131c136ca4f864736f6c63430008110033",
  "devdoc": {
    "details": "Contract allowing user to deposit to and borrow BTC.b from a dedicated user account",
    "errors": {
      "InsufficientAllowance(uint256,uint256)": [
        {
          "params": {
            "allowance": "current allowance",
            "requested": "requested transfer amount"
          }
        }
      ],
      "TransferAmountExceedsBalance(uint256,uint256)": [
        {
          "params": {
            "amount": "transfer amount",
            "balance": "available balance"
          }
        }
      ]
    },
    "kind": "dev",
    "methods": {
      "allowance(address,address)": {
        "details": "Returns the remaining number of tokens that `spender` will be allowed to spend on behalf of `owner` through {transferFrom}. This is zero by default. This value changes when {approve} or {transferFrom} are called."
      },
      "approve(address,uint256)": {
        "details": "Sets `amount` as the allowance of `spender` over the caller's tokens. Returns a boolean value indicating whether the operation succeeded. IMPORTANT: Beware that changing an allowance with this method brings the risk that someone may use both the old and the new allowance by unfortunate transaction ordering. One possible solution to mitigate this race condition is to first reduce the spender's allowance to 0 and set the desired value afterwards: https://github.com/ethereum/EIPs/issues/20#issuecomment-263524729 Emits an {Approval} event."
      },
      "balanceOf(address)": {
        "details": "_user the address of queried depositor*"
      },
      "borrow(uint256)": {
        "details": "_amount the amount to be borrowedIt is only meant to be used by a SmartLoanDiamondProxy*"
      },
      "getFullyVestedLockedBalance(address)": {
        "details": "The fully vested locked balance is used in the governance mechanism of the system, specifically for the allocation of vPrime tokens. The method calculates the fully vested locked balance by iterating over all the locks of the account and summing up the amounts of those locks that are still active (i.e., their `unlockTime` is greater than the current block timestamp). However, the amount of each lock is scaled by the ratio of its `lockTime` to the `MAX_LOCK_TIME` (3 years). This means that the longer the lock time, the larger the contribution of the lock to the fully vested locked balance. The fully vested locked balance is used to calculate the maximum vPrime allocation for a user. Users accrue vPrime over a period of 3 years, from 0 to the maximum vPrime based on their 10-1 pairs of pool-deposit and sPrime. Locking pool deposits and sPrime immediately vests the vPrime.",
        "params": {
          "account": "The address of the account for which to calculate the fully vested locked balance."
        },
        "returns": {
          "fullyVestedBalance": "The fully vested locked balance of the provided account."
        }
      },
      "owner()": {
        "details": "Returns the address of the current owner."
      },
      "renounceOwnership()": {
        "details": "Leaves the contract without owner. It will not be possible to call `onlyOwner` functions. Can only be called by the current owner. NOTE: Renouncing ownership will leave the contract without an owner, thereby disabling any functionality that is only available to the owner."
      },
      "repay(uint256)": {
        "details": "It is only meant to be used by a SmartLoanDiamondProxy*"
      },
      "setBorrowersRegistry(address)": {
        "details": "borrowersRegistry the address of borrowers registry*"
      },
      "setPoolRewarder(address)": {
        "details": "_poolRewarder the address of PoolRewarder*"
      },
      "setRatesCalculator(address)": {
        "details": "ratesCalculator the address of rates calculator*"
      },
      "setTotalSupplyCap(uint256)": {
        "details": "_newTotalSupplyCap new deposit cap*"
      },
      "setVestingDistributor(address)": {
        "details": "_distributor the address of vestingDistributor*"
      },
      "totalSupply()": {
        "details": "Returns the amount of tokens in existence."
      },
      "withdraw(uint256)": {
        "details": "_amount the amount to be withdrawn*"
      }
    },
    "title": "BtcPool",
    "version": 1
  },
  "userdoc": {
    "kind": "user",
    "methods": {
      "balanceOf(address)": {
        "notice": "Returns the current deposited amount for the given user The value includes the interest rates earned at the current moment"
      },
      "borrow(uint256)": {
        "notice": "Borrows the specified amount It updates user borrowed balance, total borrowed amount and rates"
      },
      "deposit(uint256)": {
        "notice": "Deposits the amount It updates user deposited balance, total deposited and rates*"
      },
      "depositOnBehalf(uint256,address)": {
        "notice": "Deposits the amount on behalf of `_of` user. It updates `_of` user deposited balance, total deposited and rates*"
      },
      "getBorrowingRate()": {
        "notice": "Returns the current interest rate for borrowings*"
      },
      "getDepositRate()": {
        "notice": "Returns the current interest rate for deposits*"
      },
      "getFullPoolStatus()": {
        "notice": "Returns full pool status"
      },
      "getFullyVestedLockedBalance(address)": {
        "notice": "Calculates and returns the fully vested locked balance for a given account."
      },
      "recoverSurplus(uint256,address)": {
        "notice": "Recovers the surplus funds resultant from difference between deposit and borrowing rates*"
      },
      "repay(uint256)": {
        "notice": "Repays the amount It updates user borrowed balance, total borrowed amount and rates"
      },
      "setBorrowersRegistry(address)": {
        "notice": "Sets the new borrowers registry contract. The borrowers registry decides if an account can borrow funds. Only the owner of the Contract can execute this function."
      },
      "setPoolRewarder(address)": {
        "notice": "Sets the new Pool Rewarder. The IPoolRewarder that distributes additional token rewards to people having a stake in this pool proportionally to their stake and time of participance. Only the owner of the Contract can execute this function."
      },
      "setRatesCalculator(address)": {
        "notice": "Sets the new rate calculator. The calculator is an external contract that contains the logic for calculating deposit and borrowing rates. Only the owner of the Contract can execute this function."
      },
      "setTotalSupplyCap(uint256)": {
        "notice": "Sets new totalSupplyCap limiting how much in total can be deposited to the Pool. Only the owner of the Contract can execute this function."
      },
      "setVestingDistributor(address)": {
        "notice": "Sets the new Vesting Distributor. Only the owner of the Contract can execute this function."
      },
      "withdraw(uint256)": {
        "notice": "Withdraws selected amount from the user deposits"
      }
    },
    "version": 1
  },
  "storageLayout": {
    "storage": [
      {
        "astId": 138,
        "contract": "contracts/deployment/arbitrum/BtcPool.sol:BtcPool",
        "label": "_initialized",
        "offset": 0,
        "slot": "0",
        "type": "t_uint8"
      },
      {
        "astId": 141,
        "contract": "contracts/deployment/arbitrum/BtcPool.sol:BtcPool",
        "label": "_initializing",
        "offset": 1,
        "slot": "0",
        "type": "t_bool"
      },
      {
        "astId": 755,
        "contract": "contracts/deployment/arbitrum/BtcPool.sol:BtcPool",
        "label": "__gap",
        "offset": 0,
        "slot": "1",
        "type": "t_array(t_uint256)50_storage"
      },
      {
        "astId": 10,
        "contract": "contracts/deployment/arbitrum/BtcPool.sol:BtcPool",
        "label": "_owner",
        "offset": 0,
        "slot": "51",
        "type": "t_address"
      },
      {
        "astId": 130,
        "contract": "contracts/deployment/arbitrum/BtcPool.sol:BtcPool",
        "label": "__gap",
        "offset": 0,
        "slot": "52",
        "type": "t_array(t_uint256)49_storage"
      },
      {
        "astId": 314,
        "contract": "contracts/deployment/arbitrum/BtcPool.sol:BtcPool",
        "label": "_status",
        "offset": 0,
        "slot": "101",
        "type": "t_uint256"
      },
      {
        "astId": 383,
        "contract": "contracts/deployment/arbitrum/BtcPool.sol:BtcPool",
        "label": "__gap",
        "offset": 0,
        "slot": "102",
        "type": "t_array(t_uint256)49_storage"
      },
      {
        "astId": 2879,
        "contract": "contracts/deployment/arbitrum/BtcPool.sol:BtcPool",
        "label": "totalSupplyCap",
        "offset": 0,
        "slot": "151",
        "type": "t_uint256"
      },
      {
        "astId": 2885,
        "contract": "contracts/deployment/arbitrum/BtcPool.sol:BtcPool",
        "label": "_allowed",
        "offset": 0,
        "slot": "152",
        "type": "t_mapping(t_address,t_mapping(t_address,t_uint256))"
      },
      {
        "astId": 2889,
        "contract": "contracts/deployment/arbitrum/BtcPool.sol:BtcPool",
        "label": "_deposited",
        "offset": 0,
        "slot": "153",
        "type": "t_mapping(t_address,t_uint256)"
      },
      {
        "astId": 2893,
        "contract": "contracts/deployment/arbitrum/BtcPool.sol:BtcPool",
        "label": "borrowed",
        "offset": 0,
        "slot": "154",
        "type": "t_mapping(t_address,t_uint256)"
      },
      {
        "astId": 2896,
        "contract": "contracts/deployment/arbitrum/BtcPool.sol:BtcPool",
        "label": "ratesCalculator",
        "offset": 0,
        "slot": "155",
        "type": "t_contract(IRatesCalculator)6660"
      },
      {
        "astId": 2899,
        "contract": "contracts/deployment/arbitrum/BtcPool.sol:BtcPool",
        "label": "borrowersRegistry",
        "offset": 0,
        "slot": "156",
        "type": "t_contract(IBorrowersRegistry)6557"
      },
      {
        "astId": 2902,
        "contract": "contracts/deployment/arbitrum/BtcPool.sol:BtcPool",
        "label": "poolRewarder",
        "offset": 0,
        "slot": "157",
        "type": "t_contract(IPoolRewarder)6638"
      },
      {
        "astId": 2905,
        "contract": "contracts/deployment/arbitrum/BtcPool.sol:BtcPool",
        "label": "depositIndex",
        "offset": 0,
        "slot": "158",
        "type": "t_contract(IIndex)6584"
      },
      {
        "astId": 2908,
        "contract": "contracts/deployment/arbitrum/BtcPool.sol:BtcPool",
        "label": "borrowIndex",
        "offset": 0,
        "slot": "159",
        "type": "t_contract(IIndex)6584"
      },
      {
        "astId": 2910,
        "contract": "contracts/deployment/arbitrum/BtcPool.sol:BtcPool",
        "label": "tokenAddress",
        "offset": 0,
        "slot": "160",
        "type": "t_address_payable"
      },
      {
        "astId": 2913,
        "contract": "contracts/deployment/arbitrum/BtcPool.sol:BtcPool",
        "label": "vestingDistributor",
        "offset": 0,
        "slot": "161",
        "type": "t_contract(VestingDistributor)6322"
      },
      {
        "astId": 2915,
        "contract": "contracts/deployment/arbitrum/BtcPool.sol:BtcPool",
        "label": "_decimals",
        "offset": 20,
        "slot": "161",
        "type": "t_uint8"
      },
      {
        "astId": 2928,
        "contract": "contracts/deployment/arbitrum/BtcPool.sol:BtcPool",
        "label": "locks",
        "offset": 0,
        "slot": "162",
        "type": "t_mapping(t_address,t_array(t_struct(LockDetails)2922_storage)dyn_storage)"
      },
      {
        "astId": 2936,
        "contract": "contracts/deployment/arbitrum/BtcPool.sol:BtcPool",
        "label": "tokenManager",
        "offset": 0,
        "slot": "163",
        "type": "t_contract(ITokenManager)6884"
      }
    ],
    "types": {
      "t_address": {
        "encoding": "inplace",
        "label": "address",
        "numberOfBytes": "20"
      },
      "t_address_payable": {
        "encoding": "inplace",
        "label": "address payable",
        "numberOfBytes": "20"
      },
      "t_array(t_struct(LockDetails)2922_storage)dyn_storage": {
        "base": "t_struct(LockDetails)2922_storage",
        "encoding": "dynamic_array",
        "label": "struct Pool.LockDetails[]",
        "numberOfBytes": "32"
      },
      "t_array(t_uint256)49_storage": {
        "base": "t_uint256",
        "encoding": "inplace",
        "label": "uint256[49]",
        "numberOfBytes": "1568"
      },
      "t_array(t_uint256)50_storage": {
        "base": "t_uint256",
        "encoding": "inplace",
        "label": "uint256[50]",
        "numberOfBytes": "1600"
      },
      "t_bool": {
        "encoding": "inplace",
        "label": "bool",
        "numberOfBytes": "1"
      },
      "t_contract(IBorrowersRegistry)6557": {
        "encoding": "inplace",
        "label": "contract IBorrowersRegistry",
        "numberOfBytes": "20"
      },
      "t_contract(IIndex)6584": {
        "encoding": "inplace",
        "label": "contract IIndex",
        "numberOfBytes": "20"
      },
      "t_contract(IPoolRewarder)6638": {
        "encoding": "inplace",
        "label": "contract IPoolRewarder",
        "numberOfBytes": "20"
      },
      "t_contract(IRatesCalculator)6660": {
        "encoding": "inplace",
        "label": "contract IRatesCalculator",
        "numberOfBytes": "20"
      },
      "t_contract(ITokenManager)6884": {
        "encoding": "inplace",
        "label": "contract ITokenManager",
        "numberOfBytes": "20"
      },
      "t_contract(VestingDistributor)6322": {
        "encoding": "inplace",
        "label": "contract VestingDistributor",
        "numberOfBytes": "20"
      },
      "t_mapping(t_address,t_array(t_struct(LockDetails)2922_storage)dyn_storage)": {
        "encoding": "mapping",
        "key": "t_address",
        "label": "mapping(address => struct Pool.LockDetails[])",
        "numberOfBytes": "32",
        "value": "t_array(t_struct(LockDetails)2922_storage)dyn_storage"
      },
      "t_mapping(t_address,t_mapping(t_address,t_uint256))": {
        "encoding": "mapping",
        "key": "t_address",
        "label": "mapping(address => mapping(address => uint256))",
        "numberOfBytes": "32",
        "value": "t_mapping(t_address,t_uint256)"
      },
      "t_mapping(t_address,t_uint256)": {
        "encoding": "mapping",
        "key": "t_address",
        "label": "mapping(address => uint256)",
        "numberOfBytes": "32",
        "value": "t_uint256"
      },
      "t_struct(LockDetails)2922_storage": {
        "encoding": "inplace",
        "label": "struct Pool.LockDetails",
        "members": [
          {
            "astId": 2917,
            "contract": "contracts/deployment/arbitrum/BtcPool.sol:BtcPool",
            "label": "lockTime",
            "offset": 0,
            "slot": "0",
            "type": "t_uint256"
          },
          {
            "astId": 2919,
            "contract": "contracts/deployment/arbitrum/BtcPool.sol:BtcPool",
            "label": "amount",
            "offset": 0,
            "slot": "1",
            "type": "t_uint256"
          },
          {
            "astId": 2921,
            "contract": "contracts/deployment/arbitrum/BtcPool.sol:BtcPool",
            "label": "unlockTime",
            "offset": 0,
            "slot": "2",
            "type": "t_uint256"
          }
        ],
        "numberOfBytes": "96"
      },
      "t_uint256": {
        "encoding": "inplace",
        "label": "uint256",
        "numberOfBytes": "32"
      },
      "t_uint8": {
        "encoding": "inplace",
        "label": "uint8",
        "numberOfBytes": "1"
      }
    }
  }
}