{
  "address": "0x290EBE564Fb778003f6D06cE6139848d3D2Aa14A",
  "abi": [
    {
      "anonymous": false,
      "inputs": [
        {
          "indexed": true,
          "internalType": "address",
          "name": "previousOwner",
          "type": "address"
        },
        {
          "indexed": true,
          "internalType": "address",
          "name": "newOwner",
          "type": "address"
        }
      ],
      "name": "OwnershipTransferred",
      "type": "event"
    },
    {
      "anonymous": false,
      "inputs": [
        {
          "indexed": true,
          "internalType": "address",
          "name": "performer",
          "type": "address"
        },
        {
          "indexed": false,
          "internalType": "uint256",
          "name": "newSpread",
          "type": "uint256"
        },
        {
          "indexed": false,
          "internalType": "uint256",
          "name": "timestamp",
          "type": "uint256"
        }
      ],
      "name": "SpreadChanged",
      "type": "event"
    },
    {
      "inputs": [],
      "name": "BREAKPOINT_1",
      "outputs": [
        {
          "internalType": "uint256",
          "name": "",
          "type": "uint256"
        }
      ],
      "stateMutability": "view",
      "type": "function"
    },
    {
      "inputs": [],
      "name": "BREAKPOINT_2",
      "outputs": [
        {
          "internalType": "uint256",
          "name": "",
          "type": "uint256"
        }
      ],
      "stateMutability": "view",
      "type": "function"
    },
    {
      "inputs": [],
      "name": "BREAKPOINT_3",
      "outputs": [
        {
          "internalType": "uint256",
          "name": "",
          "type": "uint256"
        }
      ],
      "stateMutability": "view",
      "type": "function"
    },
    {
      "inputs": [],
      "name": "MAX_RATE",
      "outputs": [
        {
          "internalType": "uint256",
          "name": "",
          "type": "uint256"
        }
      ],
      "stateMutability": "view",
      "type": "function"
    },
    {
      "inputs": [],
      "name": "OFFSET_1",
      "outputs": [
        {
          "internalType": "uint256",
          "name": "",
          "type": "uint256"
        }
      ],
      "stateMutability": "view",
      "type": "function"
    },
    {
      "inputs": [],
      "name": "OFFSET_2",
      "outputs": [
        {
          "internalType": "uint256",
          "name": "",
          "type": "uint256"
        }
      ],
      "stateMutability": "view",
      "type": "function"
    },
    {
      "inputs": [],
      "name": "OFFSET_3",
      "outputs": [
        {
          "internalType": "uint256",
          "name": "",
          "type": "uint256"
        }
      ],
      "stateMutability": "view",
      "type": "function"
    },
    {
      "inputs": [],
      "name": "OFFSET_4",
      "outputs": [
        {
          "internalType": "uint256",
          "name": "",
          "type": "uint256"
        }
      ],
      "stateMutability": "view",
      "type": "function"
    },
    {
      "inputs": [],
      "name": "SLOPE_1",
      "outputs": [
        {
          "internalType": "uint256",
          "name": "",
          "type": "uint256"
        }
      ],
      "stateMutability": "view",
      "type": "function"
    },
    {
      "inputs": [],
      "name": "SLOPE_2",
      "outputs": [
        {
          "internalType": "uint256",
          "name": "",
          "type": "uint256"
        }
      ],
      "stateMutability": "view",
      "type": "function"
    },
    {
      "inputs": [],
      "name": "SLOPE_3",
      "outputs": [
        {
          "internalType": "uint256",
          "name": "",
          "type": "uint256"
        }
      ],
      "stateMutability": "view",
      "type": "function"
    },
    {
      "inputs": [],
      "name": "SLOPE_4",
      "outputs": [
        {
          "internalType": "uint256",
          "name": "",
          "type": "uint256"
        }
      ],
      "stateMutability": "view",
      "type": "function"
    },
    {
      "inputs": [
        {
          "internalType": "uint256",
          "name": "totalLoans",
          "type": "uint256"
        },
        {
          "internalType": "uint256",
          "name": "totalDeposits",
          "type": "uint256"
        }
      ],
      "name": "calculateBorrowingRate",
      "outputs": [
        {
          "internalType": "uint256",
          "name": "",
          "type": "uint256"
        }
      ],
      "stateMutability": "pure",
      "type": "function"
    },
    {
      "inputs": [
        {
          "internalType": "uint256",
          "name": "_totalLoans",
          "type": "uint256"
        },
        {
          "internalType": "uint256",
          "name": "_totalDeposits",
          "type": "uint256"
        }
      ],
      "name": "calculateDepositRate",
      "outputs": [
        {
          "internalType": "uint256",
          "name": "",
          "type": "uint256"
        }
      ],
      "stateMutability": "view",
      "type": "function"
    },
    {
      "inputs": [
        {
          "internalType": "uint256",
          "name": "_totalLoans",
          "type": "uint256"
        },
        {
          "internalType": "uint256",
          "name": "_totalDeposits",
          "type": "uint256"
        }
      ],
      "name": "getPoolUtilisation",
      "outputs": [
        {
          "internalType": "uint256",
          "name": "",
          "type": "uint256"
        }
      ],
      "stateMutability": "pure",
      "type": "function"
    },
    {
      "inputs": [],
      "name": "owner",
      "outputs": [
        {
          "internalType": "address",
          "name": "",
          "type": "address"
        }
      ],
      "stateMutability": "view",
      "type": "function"
    },
    {
      "inputs": [],
      "name": "renounceOwnership",
      "outputs": [],
      "stateMutability": "nonpayable",
      "type": "function"
    },
    {
      "inputs": [
        {
          "internalType": "uint256",
          "name": "_spread",
          "type": "uint256"
        }
      ],
      "name": "setSpread",
      "outputs": [],
      "stateMutability": "nonpayable",
      "type": "function"
    },
    {
      "inputs": [],
      "name": "spread",
      "outputs": [
        {
          "internalType": "uint256",
          "name": "",
          "type": "uint256"
        }
      ],
      "stateMutability": "view",
      "type": "function"
    },
    {
      "inputs": [
        {
          "internalType": "address",
          "name": "newOwner",
          "type": "address"
        }
      ],
      "name": "transferOwnership",
      "outputs": [],
      "stateMutability": "nonpayable",
      "type": "function"
    }
  ],
  "transactionHash": "0x526f6cdc74d63cd1ca2089def5ab7071996c9e3368bd41948272a84973d72108",
  "args": [],
  "numDeployments": 2,
  "solcInputHash": "c8ad58e46bb3d1b3ca5c4d73f7aac6ea",
  "bytecode": "0x608060405264e8d4a5100060015534801561001957600080fd5b5061002333610028565b610078565b600080546001600160a01b038381166001600160a01b0319831681178455604051919092169283917f8be0079c531659141344cd1fd0a4f28419497f9722a3daafe3b4186f6b6457e09190a35050565b610693806100876000396000f3fe608060405234801561001057600080fd5b50600436106100fc5760003560e01c806301a5e5a01461010157806318c544b114610123578063321105fb1461012b5780633bf42d4b1461013957806349d94fee1461014857806356f21639146101585780635c25c76c146101675780636e28a05d1461017057806370935a501461017f578063715018a61461018e5780637cd08331146101905780638da5cb5b146101a35780639a6fc9dc146101c35780639ceca965146101d3578063b5f78b05146101e6578063b66a261c146101f5578063bfe7cfd214610208578063c24dbebd14610217578063df841eec14610226578063f2fde38b1461023c575b600080fd5b610110670853a0d2313c000081565b6040519081526020015b60405180910390f35b610110600081565b61011066b1a2bc2ec5000081565b6101106702c68af0bb14000081565b6101106801728974898eee000081565b610110670494654067e1000081565b61011060015481565b61011067013fbe85edc9000081565b610110670b1a2bc2ec50000081565b005b61011061019e36600461057e565b610251565b6101ab61036b565b6040516001600160a01b03909116815260200161011a565b61011068019d8ede1ce2a4000081565b6101106101e136600461057e565b61037a565b610110670c7d713b49da000081565b61018e6102033660046105a0565b6103b0565b6101106706f05b59d3b2000081565b610110672b05699353b6000081565b61011061023436600461057e565b600092915050565b61018e61024a3660046105b9565b610456565b565b60008160000361026357506000610365565b8183106102ac57670de0b6b3a7640000600154670de0b6b3a764000061028991906105f8565b61029b90672b05699353b6000061060b565b6102a59190610622565b9050610365565b60006102c083670de0b6b3a764000061060b565b84600154670de0b6b3a76400006102d791906105f8565b6040516337e107bb60e21b81526004810188905260248101879052309063df841eec90604401602060405180830381865afa15801561031a573d6000803e3d6000fd5b505050506040513d601f19601f8201168201806040525081019061033e9190610644565b610348919061060b565b610352919061060b565b61035c9190610622565b91506103659050565b92915050565b6000546001600160a01b031690565b60008160000361038c57506000610365565b8161039f84670de0b6b3a764000061060b565b6103a99190610622565b9392505050565b6103b86104cf565b670de0b6b3a764000081106104145760405162461bcd60e51b815260206004820181905260248201527f537072656164206d75737420626520736d616c6c6572207468616e203165313860448201526064015b60405180910390fd5b60018190556040805182815242602082015233917f9e606dc778840dd5372c982cb6a54acae1e2f85905de7f64d37c63a0c5830e22910160405180910390a250565b61045e6104cf565b6001600160a01b0381166104c35760405162461bcd60e51b815260206004820152602660248201527f4f776e61626c653a206e6577206f776e657220697320746865207a65726f206160448201526564647265737360d01b606482015260840161040b565b6104cc8161052e565b50565b336104d861036b565b6001600160a01b03161461024f5760405162461bcd60e51b815260206004820181905260248201527f4f776e61626c653a2063616c6c6572206973206e6f7420746865206f776e6572604482015260640161040b565b600080546001600160a01b038381166001600160a01b0319831681178455604051919092169283917f8be0079c531659141344cd1fd0a4f28419497f9722a3daafe3b4186f6b6457e09190a35050565b6000806040838503121561059157600080fd5b50508035926020909101359150565b6000602082840312156105b257600080fd5b5035919050565b6000602082840312156105cb57600080fd5b81356001600160a01b03811681146103a957600080fd5b634e487b7160e01b600052601160045260246000fd5b81810381811115610365576103656105e2565b8082028115828204841417610365576103656105e2565b60008261063f57634e487b7160e01b600052601260045260246000fd5b500490565b60006020828403121561065657600080fd5b505191905056fea26469706673582212202be579567122fd023a0202efd1f772a486b25cf5d9d52c8e50088c3e32f634da64736f6c63430008110033",
  "devdoc": {
    "details": "Contract which calculates the interest rates based on pool utilisation. Utilisation is computed as the ratio between funds borrowed and funds deposited to the pool. Borrowing rates are calculated using a piecewise linear function. The first piece is defined by SLOPE_1 and OFFSET (shift). Second piece is defined by SLOPE_2 (calculated off-chain), BREAKPOINT (threshold value above which second piece is considered) and MAX_RATE (value at pool utilisation of 1).*",
    "kind": "dev",
    "methods": {
      "calculateBorrowingRate(uint256,uint256)": {
        "details": "_totalLoans total value of loans_totalDeposits total value of deposits*"
      },
      "calculateDepositRate(uint256,uint256)": {
        "details": "_totalLoans total value of loans_totalDeposits total value of deposits*"
      },
      "getPoolUtilisation(uint256,uint256)": {
        "details": "_totalLoans total value of loans_totalDeposits total value of deposits*"
      },
      "owner()": {
        "details": "Returns the address of the current owner."
      },
      "renounceOwnership()": {
        "details": "Leaves the contract without owner. It will not be possible to call `onlyOwner` functions. Can only be called by the current owner. NOTE: Renouncing ownership will leave the contract without an owner, thereby disabling any functionality that is only available to the owner."
      },
      "setSpread(uint256)": {
        "params": {
          "_spread": "spread defined by user*"
        }
      },
      "transferOwnership(address)": {
        "details": "Transfers ownership of the contract to a new account (`newOwner`). Can only be called by the current owner."
      }
    },
    "title": "BtcVariableUtilisationRatesCalculator",
    "version": 1
  },
  "userdoc": {
    "kind": "user",
    "methods": {
      "calculateBorrowingRate(uint256,uint256)": {
        "notice": "Returns the current borrowing rate The value is based on the pool utilisation according to the piecewise linear formula: 1) for pool utilisation lower than or equal to breakpoint: borrowing_rate = SLOPE_1 * utilisation + OFFSET 2) for pool utilisation greater than breakpoint: borrowing_rate = SLOPE_2 * utilisation + MAX_RATE - SLOPE_2"
      },
      "calculateDepositRate(uint256,uint256)": {
        "notice": "Returns the current deposit rate The value is based on the current borrowing rate and satisfies the invariant: value_of_loans * borrowing_rate = value_of_deposits * deposit_rate"
      },
      "getPoolUtilisation(uint256,uint256)": {
        "notice": "Returns the pool utilisation, which is a ratio between loans and deposits utilisation = value_of_loans / value_of_deposits"
      },
      "setSpread(uint256)": {
        "notice": "Sets the spread between deposit and borrow rate, number between 0 and 1e18"
      }
    },
    "version": 1
  },
  "storageLayout": {
    "storage": [
      {
        "astId": 7,
        "contract": "contracts/deployment/arbitrum/BtcVariableUtilisationRatesCalculator.sol:BtcVariableUtilisationRatesCalculator",
        "label": "_owner",
        "offset": 0,
        "slot": "0",
        "type": "t_address"
      },
      {
        "astId": 189,
        "contract": "contracts/deployment/arbitrum/BtcVariableUtilisationRatesCalculator.sol:BtcVariableUtilisationRatesCalculator",
        "label": "spread",
        "offset": 0,
        "slot": "1",
        "type": "t_uint256"
      }
    ],
    "types": {
      "t_address": {
        "encoding": "inplace",
        "label": "address",
        "numberOfBytes": "20"
      },
      "t_uint256": {
        "encoding": "inplace",
        "label": "uint256",
        "numberOfBytes": "32"
      }
    }
  }
}