{
  "address": "0x44ac7Fdf6726777fa23cd39bA26a69593803CC77",
  "abi": [
    {
      "anonymous": false,
      "inputs": [
        {
          "components": [
            {
              "internalType": "address",
              "name": "facetAddress",
              "type": "address"
            },
            {
              "internalType": "enum IDiamondCut.FacetCutAction",
              "name": "action",
              "type": "uint8"
            },
            {
              "internalType": "bytes4[]",
              "name": "functionSelectors",
              "type": "bytes4[]"
            }
          ],
          "indexed": false,
          "internalType": "struct IDiamondCut.FacetCut[]",
          "name": "_diamondCut",
          "type": "tuple[]"
        },
        {
          "indexed": false,
          "internalType": "address",
          "name": "_init",
          "type": "address"
        },
        {
          "indexed": false,
          "internalType": "bytes",
          "name": "_calldata",
          "type": "bytes"
        }
      ],
      "name": "DiamondCut",
      "type": "event"
    },
    {
      "inputs": [
        {
          "components": [
            {
              "internalType": "address",
              "name": "facetAddress",
              "type": "address"
            },
            {
              "internalType": "enum IDiamondCut.FacetCutAction",
              "name": "action",
              "type": "uint8"
            },
            {
              "internalType": "bytes4[]",
              "name": "functionSelectors",
              "type": "bytes4[]"
            }
          ],
          "internalType": "struct IDiamondCut.FacetCut[]",
          "name": "_diamondCut",
          "type": "tuple[]"
        },
        {
          "internalType": "address",
          "name": "_init",
          "type": "address"
        },
        {
          "internalType": "bytes",
          "name": "_calldata",
          "type": "bytes"
        }
      ],
      "name": "diamondCut",
      "outputs": [],
      "stateMutability": "nonpayable",
      "type": "function"
    },
    {
      "inputs": [],
      "name": "pause",
      "outputs": [],
      "stateMutability": "nonpayable",
      "type": "function"
    },
    {
      "inputs": [],
      "name": "unpause",
      "outputs": [],
      "stateMutability": "nonpayable",
      "type": "function"
    }
  ],
  "transactionHash": "0xa37375d564b92ab5cf5bd63ee229ce3780d65768ab02c2746fc3b5e3bed3c27c",
  "args": [],
  "numDeployments": 1,
  "solcInputHash": "4e77b1df89678c58d8e0905100c53edb",
  "bytecode": "0x608060405234801561001057600080fd5b506117ad806100206000396000f3fe608060405234801561001057600080fd5b50600436106100415760003560e01c80631f931c1c146100465780633f4ba83a1461005b5780638456cb5914610063575b600080fd5b610059610054366004611198565b61006b565b005b610059610154565b610059610200565b7fc8fcad8db84d3cc18b4c41d551ea0ee66dd599cde068d998e57d5e09332c1321546000805160206116fe833981519152908190610100900460ff16156100f95760405162461bcd60e51b815260206004820152601c60248201527f50726f746f636f6c557067726164653a206e6f74207061757365642e0000000060448201526064015b60405180910390fd5b61010161029c565b61014b61010e87896112de565b8686868080601f01602080910402602001604051908101604052809392919081815260200183838082843760009201919091525061032c92505050565b50505050505050565b61015c610544565b7fc8fcad8db84d3cc18b4c41d551ea0ee66dd599cde068d998e57d5e09332c1321546000805160206116fe83398151915290610100900460ff16156101ee5760405162461bcd60e51b815260206004820152602260248201527f50726f746f636f6c557067726164653a20616c726561647920756e7061757365604482015261321760f11b60648201526084016100f0565b600501805461ff001916610100179055565b610208610544565b7fc8fcad8db84d3cc18b4c41d551ea0ee66dd599cde068d998e57d5e09332c1321546000805160206116fe83398151915290610100900460ff1661028e5760405162461bcd60e51b815260206004820181905260248201527f50726f746f636f6c557067726164653a20616c7265616479207061757365642e60448201526064016100f0565b600501805461ff0019169055565b7f8d5bb42e0ac1496a2c326edc9c00758985246e6c2bb146d6c2f4a0d509e0960a600101546001600160a01b0316331461032a5760405162461bcd60e51b815260206004820152602960248201527f4469616d6f6e6453746f726167654c69623a204d75737420626520636f6e747260448201526830b1ba1037bbb732b960b91b60648201526084016100f0565b565b60005b83518110156104f957600084828151811061034c5761034c611422565b60200260200101516020015190506000600281111561036d5761036d611438565b81600281111561037f5761037f611438565b036103cd576103c885838151811061039957610399611422565b6020026020010151600001518684815181106103b7576103b7611422565b6020026020010151604001516105d4565b6104e6565b60018160028111156103e1576103e1611438565b0361042a576103c88583815181106103fb576103fb611422565b60200260200101516000015186848151811061041957610419611422565b60200260200101516040015161075b565b600281600281111561043e5761043e611438565b03610487576103c885838151811061045857610458611422565b60200260200101516000015186848151811061047657610476611422565b6020026020010151604001516108eb565b60405162461bcd60e51b815260206004820152602e60248201527f4469616d6f6e6453746f726167654c69624375743a20496e636f72726563742060448201526d2330b1b2ba21baba20b1ba34b7b760911b60648201526084016100f0565b50806104f181611464565b91505061032f565b507f8faa70878671ccd212d20771b795c50af8fd3ff6cf27f4bde57e5d4de0aeb67383838360405161052d939291906114cd565b60405180910390a161053f8282610a10565b505050565b7f8d5bb42e0ac1496a2c326edc9c00758985246e6c2bb146d6c2f4a0d509e0960a546001600160a01b0316331461032a5760405162461bcd60e51b815260206004820152602e60248201527f4469616d6f6e6453746f726167654c69623a204d75737420626520636f6e747260448201526d30b1ba103830bab9b2a0b236b4b760911b60648201526084016100f0565b60008151116105f55760405162461bcd60e51b81526004016100f0906115cd565b6000805160206116fe8339815191526001600160a01b03831661062a5760405162461bcd60e51b81526004016100f09061161f565b6001600160a01b0383166000908152600182016020526040812054906001600160601b0382169003610660576106608285610c3e565b60005b835181101561075457600084828151811061068057610680611422565b6020908102919091018101516001600160e01b031981166000908152918690526040909120549091506001600160a01b031680156107265760405162461bcd60e51b815260206004820152603c60248201527f4469616d6f6e6453746f726167654c69624375743a2043616e2774206164642060448201527f66756e6374696f6e207468617420616c7265616479206578697374730000000060648201526084016100f0565b6107328583868a610ca8565b8361073c81611672565b9450505050808061074c90611464565b915050610663565b5050505050565b600081511161077c5760405162461bcd60e51b81526004016100f0906115cd565b6000805160206116fe8339815191526001600160a01b0383166107b15760405162461bcd60e51b81526004016100f09061161f565b6001600160a01b0383166000908152600182016020526040812054906001600160601b03821690036107e7576107e78285610c3e565b60005b835181101561075457600084828151811061080757610807611422565b6020908102919091018101516001600160e01b031981166000908152918690526040909120549091506001600160a01b0390811690871681036108b25760405162461bcd60e51b815260206004820152603f60248201527f4469616d6f6e6453746f726167654c69624375743a2043616e2774207265706c60448201527f6163652066756e6374696f6e20776974682073616d652066756e6374696f6e0060648201526084016100f0565b6108bd858284610d48565b6108c98583868a610ca8565b836108d381611672565b945050505080806108e390611464565b9150506107ea565b600081511161090c5760405162461bcd60e51b81526004016100f0906115cd565b6000805160206116fe8339815191526001600160a01b038316156109985760405162461bcd60e51b815260206004820152603d60248201527f4469616d6f6e6453746f726167654c69624375743a2052656d6f76652066616360448201527f65742061646472657373206d757374206265206164647265737328302900000060648201526084016100f0565b60005b8251811015610a0a5760008382815181106109b8576109b8611422565b6020908102919091018101516001600160e01b031981166000908152918590526040909120549091506001600160a01b03166109f5848284610d48565b50508080610a0290611464565b91505061099b565b50505050565b6001600160a01b038216610aa357805115610a9f5760405162461bcd60e51b815260206004820152604360248201527f4469616d6f6e6453746f726167654c69624375743a205f696e6974206973206160448201527f646472657373283029206275745f63616c6c64617461206973206e6f7420656d60648201526270747960e81b608482015260a4016100f0565b5050565b6000815111610b285760405162461bcd60e51b8152602060048201526044602482018190527f4469616d6f6e6453746f726167654c69624375743a205f63616c6c6461746120908201527f697320656d70747920627574205f696e6974206973206e6f74206164647265736064820152637328302960e01b608482015260a4016100f0565b6001600160a01b0382163014610b5a57610b5a826040518060600160405280602f8152602001611749602f9139611112565b600080836001600160a01b031683604051610b759190611698565b600060405180830381855af49150503d8060008114610bb0576040519150601f19603f3d011682016040523d82523d6000602084013e610bb5565b606091505b509150915081610a0a57805115610be0578060405162461bcd60e51b81526004016100f091906116b4565b60405162461bcd60e51b815260206004820152602d60248201527f4469616d6f6e6453746f726167654c69624375743a205f696e69742066756e6360448201526c1d1a5bdb881c995d995c9d1959609a1b60648201526084016100f0565b610c60816040518060600160405280602b815260200161171e602b9139611112565b6002820180546001600160a01b0390921660008181526001948501602090815260408220860185905594840183559182529290200180546001600160a01b0319169091179055565b6001600160e01b0319831660008181526020868152604080832080546001600160601b03909716600160a01b026001600160a01b0397881617815594909516808352600180890183529583208054968701815583528183206008870401805460e09890981c60046007909816979097026101000a96870263ffffffff9097021990971695909517909555529290915281546001600160a01b031916179055565b6001600160a01b038216610dc45760405162461bcd60e51b815260206004820152603e60248201527f4469616d6f6e6453746f726167654c69624375743a2043616e27742072656d6f60448201527f76652066756e6374696f6e207468617420646f65736e2774206578697374000060648201526084016100f0565b306001600160a01b03831603610e3a5760405162461bcd60e51b815260206004820152603560248201527f4469616d6f6e6453746f726167654c69624375743a2043616e27742072656d6f6044820152743b329034b6b6baba30b1363290333ab731ba34b7b760591b60648201526084016100f0565b6001600160e01b03198116600090815260208481526040808320546001600160a01b0386168452600180880190935290832054600160a01b9091046001600160601b03169291610e89916116ce565b9050808214610f7b576001600160a01b03841660009081526001860160205260408120805483908110610ebe57610ebe611422565b600091825260208083206008830401546001600160a01b038916845260018a019091526040909220805460079092166004026101000a90920460e01b925082919085908110610f0f57610f0f611422565b600091825260208083206008830401805463ffffffff60079094166004026101000a938402191660e09590951c929092029390931790556001600160e01b03199290921682528690526040902080546001600160a01b0316600160a01b6001600160601b038516021790555b6001600160a01b03841660009081526001860160205260409020805480610fa457610fa46116e7565b60008281526020808220600860001990940193840401805463ffffffff600460078716026101000a0219169055919092556001600160e01b03198516825286905260408120819055819003610754576002850154600090611007906001906116ce565b6001600160a01b03861660009081526001808901602052604090912001549091508082146110b657600087600201838154811061104657611046611422565b6000918252602090912001546002890180546001600160a01b03909216925082918490811061107757611077611422565b600091825260208083209190910180546001600160a01b0319166001600160a01b03948516179055929091168152600189810190925260409020018190555b866002018054806110c9576110c96116e7565b60008281526020808220830160001990810180546001600160a01b03191690559092019092556001600160a01b0388168252600189810190915260408220015550505050505050565b813b8181610a0a5760405162461bcd60e51b81526004016100f091906116b4565b80356001600160a01b038116811461114a57600080fd5b919050565b60008083601f84011261116157600080fd5b50813567ffffffffffffffff81111561117957600080fd5b60208301915083602082850101111561119157600080fd5b9250929050565b6000806000806000606086880312156111b057600080fd5b853567ffffffffffffffff808211156111c857600080fd5b818801915088601f8301126111dc57600080fd5b8135818111156111eb57600080fd5b8960208260051b850101111561120057600080fd5b6020830197508096505061121660208901611133565b9450604088013591508082111561122c57600080fd5b506112398882890161114f565b969995985093965092949392505050565b634e487b7160e01b600052604160045260246000fd5b6040516060810167ffffffffffffffff811182821017156112835761128361124a565b60405290565b604051601f8201601f1916810167ffffffffffffffff811182821017156112b2576112b261124a565b604052919050565b600067ffffffffffffffff8211156112d4576112d461124a565b5060051b60200190565b60006112f16112ec846112ba565b611289565b83815260208082019190600586811b86013681111561130f57600080fd5b865b8181101561141557803567ffffffffffffffff808211156113325760008081fd5b818a019150606082360312156113485760008081fd5b611350611260565b61135983611133565b8152868301356003811061136d5760008081fd5b81880152604083810135838111156113855760008081fd5b939093019236601f85011261139c57600092508283fd5b833592506113ac6112ec846112ba565b83815292871b840188019288810190368511156113c95760008081fd5b948901945b848610156113fe5785356001600160e01b0319811681146113ef5760008081fd5b825294890194908901906113ce565b918301919091525088525050948301948301611311565b5092979650505050505050565b634e487b7160e01b600052603260045260246000fd5b634e487b7160e01b600052602160045260246000fd5b634e487b7160e01b600052601160045260246000fd5b6000600182016114765761147661144e565b5060010190565b60005b83811015611498578181015183820152602001611480565b50506000910152565b600081518084526114b981602086016020860161147d565b601f01601f19169290920160200192915050565b60006060808301818452808751808352608092508286019150828160051b8701016020808b0160005b8481101561159d57898403607f19018652815180516001600160a01b0316855283810151898601906003811061153c57634e487b7160e01b600052602160045260246000fd5b868601526040918201519186018a905281519081905290840190600090898701905b808310156115885783516001600160e01b031916825292860192600192909201919086019061155e565b509785019795505050908201906001016114f6565b50506001600160a01b038a169088015286810360408801526115bf81896114a1565b9a9950505050505050505050565b60208082526032908201527f4469616d6f6e6453746f726167654c69624375743a204e6f2073656c6563746f6040820152711c9cc81a5b88199858d95d081d1bc818dd5d60721b606082015260800190565b60208082526033908201527f4469616d6f6e6453746f726167654c69624375743a204164642066616365742060408201527263616e2774206265206164647265737328302960681b606082015260800190565b60006001600160601b0380831681810361168e5761168e61144e565b6001019392505050565b600082516116aa81846020870161147d565b9190910192915050565b6020815260006116c760208301846114a1565b9392505050565b818103818111156116e1576116e161144e565b92915050565b634e487b7160e01b600052603160045260246000fdfec8fcad8db84d3cc18b4c41d551ea0ee66dd599cde068d998e57d5e09332c131c4469616d6f6e6453746f726167654c69624375743a204e657720666163657420686173206e6f20636f64654469616d6f6e6453746f726167654c69624375743a205f696e6974206164647265737320686173206e6f20636f6465a2646970667358221220974f1aad56d7ce50707fc942afb2a6ef59eaf608ab82c2996244621c61710c0c64736f6c63430008110033",
  "libraries": {},
  "devdoc": {
    "kind": "dev",
    "methods": {
      "diamondCut((address,uint8,bytes4[])[],address,bytes)": {
        "params": {
          "_calldata": "A function call, including function selector and arguments                  _calldata is executed with delegatecall on _init",
          "_diamondCut": "Contains the facet addresses and function selectors",
          "_init": "The address of the contract or facet to execute _calldata"
        }
      }
    },
    "version": 1
  },
  "userdoc": {
    "kind": "user",
    "methods": {
      "diamondCut((address,uint8,bytes4[])[],address,bytes)": {
        "notice": "Add/replace/remove any number of functions and optionally execute         a function with delegatecall"
      }
    },
    "version": 1
  },
  "storageLayout": {
    "storage": [],
    "types": null
  }
}