{
  "address": "0x0b05Ae254B0B3Ce97aa1f92b8197c5703584F046",
  "abi": [
    {
      "anonymous": false,
      "inputs": [
        {
          "indexed": true,
          "internalType": "address",
          "name": "accountAddress",
          "type": "address"
        },
        {
          "indexed": true,
          "internalType": "address",
          "name": "market",
          "type": "address"
        },
        {
          "indexed": false,
          "internalType": "uint256",
          "name": "executionFee",
          "type": "uint256"
        }
      ],
      "name": "DepositCancelled",
      "type": "event"
    },
    {
      "anonymous": false,
      "inputs": [
        {
          "indexed": true,
          "internalType": "address",
          "name": "accountAddress",
          "type": "address"
        },
        {
          "indexed": true,
          "internalType": "address",
          "name": "market",
          "type": "address"
        },
        {
          "indexed": false,
          "internalType": "uint256",
          "name": "gmAmount",
          "type": "uint256"
        },
        {
          "indexed": false,
          "internalType": "uint256",
          "name": "executionFee",
          "type": "uint256"
        }
      ],
      "name": "DepositExecuted",
      "type": "event"
    },
    {
      "anonymous": false,
      "inputs": [
        {
          "indexed": true,
          "internalType": "address",
          "name": "accountAddress",
          "type": "address"
        },
        {
          "indexed": true,
          "internalType": "address",
          "name": "market",
          "type": "address"
        },
        {
          "indexed": false,
          "internalType": "uint256",
          "name": "executionFee",
          "type": "uint256"
        }
      ],
      "name": "WithdrawalCancelled",
      "type": "event"
    },
    {
      "anonymous": false,
      "inputs": [
        {
          "indexed": true,
          "internalType": "address",
          "name": "accountAddress",
          "type": "address"
        },
        {
          "indexed": true,
          "internalType": "address",
          "name": "market",
          "type": "address"
        },
        {
          "indexed": false,
          "internalType": "uint256",
          "name": "longTokenAmount",
          "type": "uint256"
        },
        {
          "indexed": false,
          "internalType": "uint256",
          "name": "shortTokenAmount",
          "type": "uint256"
        },
        {
          "indexed": false,
          "internalType": "uint256",
          "name": "executionFee",
          "type": "uint256"
        }
      ],
      "name": "WithdrawalExecuted",
      "type": "event"
    },
    {
      "inputs": [],
      "name": "CONTROLLER",
      "outputs": [
        {
          "internalType": "bytes32",
          "name": "",
          "type": "bytes32"
        }
      ],
      "stateMutability": "view",
      "type": "function"
    },
    {
      "inputs": [
        {
          "internalType": "bytes32",
          "name": "key",
          "type": "bytes32"
        },
        {
          "components": [
            {
              "components": [
                {
                  "internalType": "address",
                  "name": "account",
                  "type": "address"
                },
                {
                  "internalType": "address",
                  "name": "receiver",
                  "type": "address"
                },
                {
                  "internalType": "address",
                  "name": "callbackContract",
                  "type": "address"
                },
                {
                  "internalType": "address",
                  "name": "uiFeeReceiver",
                  "type": "address"
                },
                {
                  "internalType": "address",
                  "name": "market",
                  "type": "address"
                },
                {
                  "internalType": "address",
                  "name": "initialLongToken",
                  "type": "address"
                },
                {
                  "internalType": "address",
                  "name": "initialShortToken",
                  "type": "address"
                },
                {
                  "internalType": "address[]",
                  "name": "longTokenSwapPath",
                  "type": "address[]"
                },
                {
                  "internalType": "address[]",
                  "name": "shortTokenSwapPath",
                  "type": "address[]"
                }
              ],
              "internalType": "struct Deposit.Addresses",
              "name": "addresses",
              "type": "tuple"
            },
            {
              "components": [
                {
                  "internalType": "uint256",
                  "name": "initialLongTokenAmount",
                  "type": "uint256"
                },
                {
                  "internalType": "uint256",
                  "name": "initialShortTokenAmount",
                  "type": "uint256"
                },
                {
                  "internalType": "uint256",
                  "name": "minMarketTokens",
                  "type": "uint256"
                },
                {
                  "internalType": "uint256",
                  "name": "updatedAtBlock",
                  "type": "uint256"
                },
                {
                  "internalType": "uint256",
                  "name": "executionFee",
                  "type": "uint256"
                },
                {
                  "internalType": "uint256",
                  "name": "callbackGasLimit",
                  "type": "uint256"
                }
              ],
              "internalType": "struct Deposit.Numbers",
              "name": "numbers",
              "type": "tuple"
            },
            {
              "components": [
                {
                  "internalType": "bool",
                  "name": "shouldUnwrapNativeToken",
                  "type": "bool"
                }
              ],
              "internalType": "struct Deposit.Flags",
              "name": "flags",
              "type": "tuple"
            }
          ],
          "internalType": "struct Deposit.Props",
          "name": "deposit",
          "type": "tuple"
        },
        {
          "components": [
            {
              "components": [
                {
                  "components": [
                    {
                      "internalType": "string",
                      "name": "key",
                      "type": "string"
                    },
                    {
                      "internalType": "address",
                      "name": "value",
                      "type": "address"
                    }
                  ],
                  "internalType": "struct EventUtils.AddressKeyValue[]",
                  "name": "items",
                  "type": "tuple[]"
                },
                {
                  "components": [
                    {
                      "internalType": "string",
                      "name": "key",
                      "type": "string"
                    },
                    {
                      "internalType": "address[]",
                      "name": "value",
                      "type": "address[]"
                    }
                  ],
                  "internalType": "struct EventUtils.AddressArrayKeyValue[]",
                  "name": "arrayItems",
                  "type": "tuple[]"
                }
              ],
              "internalType": "struct EventUtils.AddressItems",
              "name": "addressItems",
              "type": "tuple"
            },
            {
              "components": [
                {
                  "components": [
                    {
                      "internalType": "string",
                      "name": "key",
                      "type": "string"
                    },
                    {
                      "internalType": "uint256",
                      "name": "value",
                      "type": "uint256"
                    }
                  ],
                  "internalType": "struct EventUtils.UintKeyValue[]",
                  "name": "items",
                  "type": "tuple[]"
                },
                {
                  "components": [
                    {
                      "internalType": "string",
                      "name": "key",
                      "type": "string"
                    },
                    {
                      "internalType": "uint256[]",
                      "name": "value",
                      "type": "uint256[]"
                    }
                  ],
                  "internalType": "struct EventUtils.UintArrayKeyValue[]",
                  "name": "arrayItems",
                  "type": "tuple[]"
                }
              ],
              "internalType": "struct EventUtils.UintItems",
              "name": "uintItems",
              "type": "tuple"
            },
            {
              "components": [
                {
                  "components": [
                    {
                      "internalType": "string",
                      "name": "key",
                      "type": "string"
                    },
                    {
                      "internalType": "int256",
                      "name": "value",
                      "type": "int256"
                    }
                  ],
                  "internalType": "struct EventUtils.IntKeyValue[]",
                  "name": "items",
                  "type": "tuple[]"
                },
                {
                  "components": [
                    {
                      "internalType": "string",
                      "name": "key",
                      "type": "string"
                    },
                    {
                      "internalType": "int256[]",
                      "name": "value",
                      "type": "int256[]"
                    }
                  ],
                  "internalType": "struct EventUtils.IntArrayKeyValue[]",
                  "name": "arrayItems",
                  "type": "tuple[]"
                }
              ],
              "internalType": "struct EventUtils.IntItems",
              "name": "intItems",
              "type": "tuple"
            },
            {
              "components": [
                {
                  "components": [
                    {
                      "internalType": "string",
                      "name": "key",
                      "type": "string"
                    },
                    {
                      "internalType": "bool",
                      "name": "value",
                      "type": "bool"
                    }
                  ],
                  "internalType": "struct EventUtils.BoolKeyValue[]",
                  "name": "items",
                  "type": "tuple[]"
                },
                {
                  "components": [
                    {
                      "internalType": "string",
                      "name": "key",
                      "type": "string"
                    },
                    {
                      "internalType": "bool[]",
                      "name": "value",
                      "type": "bool[]"
                    }
                  ],
                  "internalType": "struct EventUtils.BoolArrayKeyValue[]",
                  "name": "arrayItems",
                  "type": "tuple[]"
                }
              ],
              "internalType": "struct EventUtils.BoolItems",
              "name": "boolItems",
              "type": "tuple"
            },
            {
              "components": [
                {
                  "components": [
                    {
                      "internalType": "string",
                      "name": "key",
                      "type": "string"
                    },
                    {
                      "internalType": "bytes32",
                      "name": "value",
                      "type": "bytes32"
                    }
                  ],
                  "internalType": "struct EventUtils.Bytes32KeyValue[]",
                  "name": "items",
                  "type": "tuple[]"
                },
                {
                  "components": [
                    {
                      "internalType": "string",
                      "name": "key",
                      "type": "string"
                    },
                    {
                      "internalType": "bytes32[]",
                      "name": "value",
                      "type": "bytes32[]"
                    }
                  ],
                  "internalType": "struct EventUtils.Bytes32ArrayKeyValue[]",
                  "name": "arrayItems",
                  "type": "tuple[]"
                }
              ],
              "internalType": "struct EventUtils.Bytes32Items",
              "name": "bytes32Items",
              "type": "tuple"
            },
            {
              "components": [
                {
                  "components": [
                    {
                      "internalType": "string",
                      "name": "key",
                      "type": "string"
                    },
                    {
                      "internalType": "bytes",
                      "name": "value",
                      "type": "bytes"
                    }
                  ],
                  "internalType": "struct EventUtils.BytesKeyValue[]",
                  "name": "items",
                  "type": "tuple[]"
                },
                {
                  "components": [
                    {
                      "internalType": "string",
                      "name": "key",
                      "type": "string"
                    },
                    {
                      "internalType": "bytes[]",
                      "name": "value",
                      "type": "bytes[]"
                    }
                  ],
                  "internalType": "struct EventUtils.BytesArrayKeyValue[]",
                  "name": "arrayItems",
                  "type": "tuple[]"
                }
              ],
              "internalType": "struct EventUtils.BytesItems",
              "name": "bytesItems",
              "type": "tuple"
            },
            {
              "components": [
                {
                  "components": [
                    {
                      "internalType": "string",
                      "name": "key",
                      "type": "string"
                    },
                    {
                      "internalType": "string",
                      "name": "value",
                      "type": "string"
                    }
                  ],
                  "internalType": "struct EventUtils.StringKeyValue[]",
                  "name": "items",
                  "type": "tuple[]"
                },
                {
                  "components": [
                    {
                      "internalType": "string",
                      "name": "key",
                      "type": "string"
                    },
                    {
                      "internalType": "string[]",
                      "name": "value",
                      "type": "string[]"
                    }
                  ],
                  "internalType": "struct EventUtils.StringArrayKeyValue[]",
                  "name": "arrayItems",
                  "type": "tuple[]"
                }
              ],
              "internalType": "struct EventUtils.StringItems",
              "name": "stringItems",
              "type": "tuple"
            }
          ],
          "internalType": "struct EventUtils.EventLogData",
          "name": "eventData",
          "type": "tuple"
        }
      ],
      "name": "afterDepositCancellation",
      "outputs": [],
      "stateMutability": "nonpayable",
      "type": "function"
    },
    {
      "inputs": [
        {
          "internalType": "bytes32",
          "name": "key",
          "type": "bytes32"
        },
        {
          "components": [
            {
              "components": [
                {
                  "internalType": "address",
                  "name": "account",
                  "type": "address"
                },
                {
                  "internalType": "address",
                  "name": "receiver",
                  "type": "address"
                },
                {
                  "internalType": "address",
                  "name": "callbackContract",
                  "type": "address"
                },
                {
                  "internalType": "address",
                  "name": "uiFeeReceiver",
                  "type": "address"
                },
                {
                  "internalType": "address",
                  "name": "market",
                  "type": "address"
                },
                {
                  "internalType": "address",
                  "name": "initialLongToken",
                  "type": "address"
                },
                {
                  "internalType": "address",
                  "name": "initialShortToken",
                  "type": "address"
                },
                {
                  "internalType": "address[]",
                  "name": "longTokenSwapPath",
                  "type": "address[]"
                },
                {
                  "internalType": "address[]",
                  "name": "shortTokenSwapPath",
                  "type": "address[]"
                }
              ],
              "internalType": "struct Deposit.Addresses",
              "name": "addresses",
              "type": "tuple"
            },
            {
              "components": [
                {
                  "internalType": "uint256",
                  "name": "initialLongTokenAmount",
                  "type": "uint256"
                },
                {
                  "internalType": "uint256",
                  "name": "initialShortTokenAmount",
                  "type": "uint256"
                },
                {
                  "internalType": "uint256",
                  "name": "minMarketTokens",
                  "type": "uint256"
                },
                {
                  "internalType": "uint256",
                  "name": "updatedAtBlock",
                  "type": "uint256"
                },
                {
                  "internalType": "uint256",
                  "name": "executionFee",
                  "type": "uint256"
                },
                {
                  "internalType": "uint256",
                  "name": "callbackGasLimit",
                  "type": "uint256"
                }
              ],
              "internalType": "struct Deposit.Numbers",
              "name": "numbers",
              "type": "tuple"
            },
            {
              "components": [
                {
                  "internalType": "bool",
                  "name": "shouldUnwrapNativeToken",
                  "type": "bool"
                }
              ],
              "internalType": "struct Deposit.Flags",
              "name": "flags",
              "type": "tuple"
            }
          ],
          "internalType": "struct Deposit.Props",
          "name": "deposit",
          "type": "tuple"
        },
        {
          "components": [
            {
              "components": [
                {
                  "components": [
                    {
                      "internalType": "string",
                      "name": "key",
                      "type": "string"
                    },
                    {
                      "internalType": "address",
                      "name": "value",
                      "type": "address"
                    }
                  ],
                  "internalType": "struct EventUtils.AddressKeyValue[]",
                  "name": "items",
                  "type": "tuple[]"
                },
                {
                  "components": [
                    {
                      "internalType": "string",
                      "name": "key",
                      "type": "string"
                    },
                    {
                      "internalType": "address[]",
                      "name": "value",
                      "type": "address[]"
                    }
                  ],
                  "internalType": "struct EventUtils.AddressArrayKeyValue[]",
                  "name": "arrayItems",
                  "type": "tuple[]"
                }
              ],
              "internalType": "struct EventUtils.AddressItems",
              "name": "addressItems",
              "type": "tuple"
            },
            {
              "components": [
                {
                  "components": [
                    {
                      "internalType": "string",
                      "name": "key",
                      "type": "string"
                    },
                    {
                      "internalType": "uint256",
                      "name": "value",
                      "type": "uint256"
                    }
                  ],
                  "internalType": "struct EventUtils.UintKeyValue[]",
                  "name": "items",
                  "type": "tuple[]"
                },
                {
                  "components": [
                    {
                      "internalType": "string",
                      "name": "key",
                      "type": "string"
                    },
                    {
                      "internalType": "uint256[]",
                      "name": "value",
                      "type": "uint256[]"
                    }
                  ],
                  "internalType": "struct EventUtils.UintArrayKeyValue[]",
                  "name": "arrayItems",
                  "type": "tuple[]"
                }
              ],
              "internalType": "struct EventUtils.UintItems",
              "name": "uintItems",
              "type": "tuple"
            },
            {
              "components": [
                {
                  "components": [
                    {
                      "internalType": "string",
                      "name": "key",
                      "type": "string"
                    },
                    {
                      "internalType": "int256",
                      "name": "value",
                      "type": "int256"
                    }
                  ],
                  "internalType": "struct EventUtils.IntKeyValue[]",
                  "name": "items",
                  "type": "tuple[]"
                },
                {
                  "components": [
                    {
                      "internalType": "string",
                      "name": "key",
                      "type": "string"
                    },
                    {
                      "internalType": "int256[]",
                      "name": "value",
                      "type": "int256[]"
                    }
                  ],
                  "internalType": "struct EventUtils.IntArrayKeyValue[]",
                  "name": "arrayItems",
                  "type": "tuple[]"
                }
              ],
              "internalType": "struct EventUtils.IntItems",
              "name": "intItems",
              "type": "tuple"
            },
            {
              "components": [
                {
                  "components": [
                    {
                      "internalType": "string",
                      "name": "key",
                      "type": "string"
                    },
                    {
                      "internalType": "bool",
                      "name": "value",
                      "type": "bool"
                    }
                  ],
                  "internalType": "struct EventUtils.BoolKeyValue[]",
                  "name": "items",
                  "type": "tuple[]"
                },
                {
                  "components": [
                    {
                      "internalType": "string",
                      "name": "key",
                      "type": "string"
                    },
                    {
                      "internalType": "bool[]",
                      "name": "value",
                      "type": "bool[]"
                    }
                  ],
                  "internalType": "struct EventUtils.BoolArrayKeyValue[]",
                  "name": "arrayItems",
                  "type": "tuple[]"
                }
              ],
              "internalType": "struct EventUtils.BoolItems",
              "name": "boolItems",
              "type": "tuple"
            },
            {
              "components": [
                {
                  "components": [
                    {
                      "internalType": "string",
                      "name": "key",
                      "type": "string"
                    },
                    {
                      "internalType": "bytes32",
                      "name": "value",
                      "type": "bytes32"
                    }
                  ],
                  "internalType": "struct EventUtils.Bytes32KeyValue[]",
                  "name": "items",
                  "type": "tuple[]"
                },
                {
                  "components": [
                    {
                      "internalType": "string",
                      "name": "key",
                      "type": "string"
                    },
                    {
                      "internalType": "bytes32[]",
                      "name": "value",
                      "type": "bytes32[]"
                    }
                  ],
                  "internalType": "struct EventUtils.Bytes32ArrayKeyValue[]",
                  "name": "arrayItems",
                  "type": "tuple[]"
                }
              ],
              "internalType": "struct EventUtils.Bytes32Items",
              "name": "bytes32Items",
              "type": "tuple"
            },
            {
              "components": [
                {
                  "components": [
                    {
                      "internalType": "string",
                      "name": "key",
                      "type": "string"
                    },
                    {
                      "internalType": "bytes",
                      "name": "value",
                      "type": "bytes"
                    }
                  ],
                  "internalType": "struct EventUtils.BytesKeyValue[]",
                  "name": "items",
                  "type": "tuple[]"
                },
                {
                  "components": [
                    {
                      "internalType": "string",
                      "name": "key",
                      "type": "string"
                    },
                    {
                      "internalType": "bytes[]",
                      "name": "value",
                      "type": "bytes[]"
                    }
                  ],
                  "internalType": "struct EventUtils.BytesArrayKeyValue[]",
                  "name": "arrayItems",
                  "type": "tuple[]"
                }
              ],
              "internalType": "struct EventUtils.BytesItems",
              "name": "bytesItems",
              "type": "tuple"
            },
            {
              "components": [
                {
                  "components": [
                    {
                      "internalType": "string",
                      "name": "key",
                      "type": "string"
                    },
                    {
                      "internalType": "string",
                      "name": "value",
                      "type": "string"
                    }
                  ],
                  "internalType": "struct EventUtils.StringKeyValue[]",
                  "name": "items",
                  "type": "tuple[]"
                },
                {
                  "components": [
                    {
                      "internalType": "string",
                      "name": "key",
                      "type": "string"
                    },
                    {
                      "internalType": "string[]",
                      "name": "value",
                      "type": "string[]"
                    }
                  ],
                  "internalType": "struct EventUtils.StringArrayKeyValue[]",
                  "name": "arrayItems",
                  "type": "tuple[]"
                }
              ],
              "internalType": "struct EventUtils.StringItems",
              "name": "stringItems",
              "type": "tuple"
            }
          ],
          "internalType": "struct EventUtils.EventLogData",
          "name": "eventData",
          "type": "tuple"
        }
      ],
      "name": "afterDepositExecution",
      "outputs": [],
      "stateMutability": "nonpayable",
      "type": "function"
    },
    {
      "inputs": [
        {
          "internalType": "bytes32",
          "name": "key",
          "type": "bytes32"
        },
        {
          "components": [
            {
              "components": [
                {
                  "internalType": "address",
                  "name": "account",
                  "type": "address"
                },
                {
                  "internalType": "address",
                  "name": "receiver",
                  "type": "address"
                },
                {
                  "internalType": "address",
                  "name": "callbackContract",
                  "type": "address"
                },
                {
                  "internalType": "address",
                  "name": "uiFeeReceiver",
                  "type": "address"
                },
                {
                  "internalType": "address",
                  "name": "market",
                  "type": "address"
                },
                {
                  "internalType": "address[]",
                  "name": "longTokenSwapPath",
                  "type": "address[]"
                },
                {
                  "internalType": "address[]",
                  "name": "shortTokenSwapPath",
                  "type": "address[]"
                }
              ],
              "internalType": "struct Withdrawal.Addresses",
              "name": "addresses",
              "type": "tuple"
            },
            {
              "components": [
                {
                  "internalType": "uint256",
                  "name": "marketTokenAmount",
                  "type": "uint256"
                },
                {
                  "internalType": "uint256",
                  "name": "minLongTokenAmount",
                  "type": "uint256"
                },
                {
                  "internalType": "uint256",
                  "name": "minShortTokenAmount",
                  "type": "uint256"
                },
                {
                  "internalType": "uint256",
                  "name": "updatedAtBlock",
                  "type": "uint256"
                },
                {
                  "internalType": "uint256",
                  "name": "executionFee",
                  "type": "uint256"
                },
                {
                  "internalType": "uint256",
                  "name": "callbackGasLimit",
                  "type": "uint256"
                }
              ],
              "internalType": "struct Withdrawal.Numbers",
              "name": "numbers",
              "type": "tuple"
            },
            {
              "components": [
                {
                  "internalType": "bool",
                  "name": "shouldUnwrapNativeToken",
                  "type": "bool"
                }
              ],
              "internalType": "struct Withdrawal.Flags",
              "name": "flags",
              "type": "tuple"
            }
          ],
          "internalType": "struct Withdrawal.Props",
          "name": "withdrawal",
          "type": "tuple"
        },
        {
          "components": [
            {
              "components": [
                {
                  "components": [
                    {
                      "internalType": "string",
                      "name": "key",
                      "type": "string"
                    },
                    {
                      "internalType": "address",
                      "name": "value",
                      "type": "address"
                    }
                  ],
                  "internalType": "struct EventUtils.AddressKeyValue[]",
                  "name": "items",
                  "type": "tuple[]"
                },
                {
                  "components": [
                    {
                      "internalType": "string",
                      "name": "key",
                      "type": "string"
                    },
                    {
                      "internalType": "address[]",
                      "name": "value",
                      "type": "address[]"
                    }
                  ],
                  "internalType": "struct EventUtils.AddressArrayKeyValue[]",
                  "name": "arrayItems",
                  "type": "tuple[]"
                }
              ],
              "internalType": "struct EventUtils.AddressItems",
              "name": "addressItems",
              "type": "tuple"
            },
            {
              "components": [
                {
                  "components": [
                    {
                      "internalType": "string",
                      "name": "key",
                      "type": "string"
                    },
                    {
                      "internalType": "uint256",
                      "name": "value",
                      "type": "uint256"
                    }
                  ],
                  "internalType": "struct EventUtils.UintKeyValue[]",
                  "name": "items",
                  "type": "tuple[]"
                },
                {
                  "components": [
                    {
                      "internalType": "string",
                      "name": "key",
                      "type": "string"
                    },
                    {
                      "internalType": "uint256[]",
                      "name": "value",
                      "type": "uint256[]"
                    }
                  ],
                  "internalType": "struct EventUtils.UintArrayKeyValue[]",
                  "name": "arrayItems",
                  "type": "tuple[]"
                }
              ],
              "internalType": "struct EventUtils.UintItems",
              "name": "uintItems",
              "type": "tuple"
            },
            {
              "components": [
                {
                  "components": [
                    {
                      "internalType": "string",
                      "name": "key",
                      "type": "string"
                    },
                    {
                      "internalType": "int256",
                      "name": "value",
                      "type": "int256"
                    }
                  ],
                  "internalType": "struct EventUtils.IntKeyValue[]",
                  "name": "items",
                  "type": "tuple[]"
                },
                {
                  "components": [
                    {
                      "internalType": "string",
                      "name": "key",
                      "type": "string"
                    },
                    {
                      "internalType": "int256[]",
                      "name": "value",
                      "type": "int256[]"
                    }
                  ],
                  "internalType": "struct EventUtils.IntArrayKeyValue[]",
                  "name": "arrayItems",
                  "type": "tuple[]"
                }
              ],
              "internalType": "struct EventUtils.IntItems",
              "name": "intItems",
              "type": "tuple"
            },
            {
              "components": [
                {
                  "components": [
                    {
                      "internalType": "string",
                      "name": "key",
                      "type": "string"
                    },
                    {
                      "internalType": "bool",
                      "name": "value",
                      "type": "bool"
                    }
                  ],
                  "internalType": "struct EventUtils.BoolKeyValue[]",
                  "name": "items",
                  "type": "tuple[]"
                },
                {
                  "components": [
                    {
                      "internalType": "string",
                      "name": "key",
                      "type": "string"
                    },
                    {
                      "internalType": "bool[]",
                      "name": "value",
                      "type": "bool[]"
                    }
                  ],
                  "internalType": "struct EventUtils.BoolArrayKeyValue[]",
                  "name": "arrayItems",
                  "type": "tuple[]"
                }
              ],
              "internalType": "struct EventUtils.BoolItems",
              "name": "boolItems",
              "type": "tuple"
            },
            {
              "components": [
                {
                  "components": [
                    {
                      "internalType": "string",
                      "name": "key",
                      "type": "string"
                    },
                    {
                      "internalType": "bytes32",
                      "name": "value",
                      "type": "bytes32"
                    }
                  ],
                  "internalType": "struct EventUtils.Bytes32KeyValue[]",
                  "name": "items",
                  "type": "tuple[]"
                },
                {
                  "components": [
                    {
                      "internalType": "string",
                      "name": "key",
                      "type": "string"
                    },
                    {
                      "internalType": "bytes32[]",
                      "name": "value",
                      "type": "bytes32[]"
                    }
                  ],
                  "internalType": "struct EventUtils.Bytes32ArrayKeyValue[]",
                  "name": "arrayItems",
                  "type": "tuple[]"
                }
              ],
              "internalType": "struct EventUtils.Bytes32Items",
              "name": "bytes32Items",
              "type": "tuple"
            },
            {
              "components": [
                {
                  "components": [
                    {
                      "internalType": "string",
                      "name": "key",
                      "type": "string"
                    },
                    {
                      "internalType": "bytes",
                      "name": "value",
                      "type": "bytes"
                    }
                  ],
                  "internalType": "struct EventUtils.BytesKeyValue[]",
                  "name": "items",
                  "type": "tuple[]"
                },
                {
                  "components": [
                    {
                      "internalType": "string",
                      "name": "key",
                      "type": "string"
                    },
                    {
                      "internalType": "bytes[]",
                      "name": "value",
                      "type": "bytes[]"
                    }
                  ],
                  "internalType": "struct EventUtils.BytesArrayKeyValue[]",
                  "name": "arrayItems",
                  "type": "tuple[]"
                }
              ],
              "internalType": "struct EventUtils.BytesItems",
              "name": "bytesItems",
              "type": "tuple"
            },
            {
              "components": [
                {
                  "components": [
                    {
                      "internalType": "string",
                      "name": "key",
                      "type": "string"
                    },
                    {
                      "internalType": "string",
                      "name": "value",
                      "type": "string"
                    }
                  ],
                  "internalType": "struct EventUtils.StringKeyValue[]",
                  "name": "items",
                  "type": "tuple[]"
                },
                {
                  "components": [
                    {
                      "internalType": "string",
                      "name": "key",
                      "type": "string"
                    },
                    {
                      "internalType": "string[]",
                      "name": "value",
                      "type": "string[]"
                    }
                  ],
                  "internalType": "struct EventUtils.StringArrayKeyValue[]",
                  "name": "arrayItems",
                  "type": "tuple[]"
                }
              ],
              "internalType": "struct EventUtils.StringItems",
              "name": "stringItems",
              "type": "tuple"
            }
          ],
          "internalType": "struct EventUtils.EventLogData",
          "name": "eventData",
          "type": "tuple"
        }
      ],
      "name": "afterWithdrawalCancellation",
      "outputs": [],
      "stateMutability": "nonpayable",
      "type": "function"
    },
    {
      "inputs": [
        {
          "internalType": "bytes32",
          "name": "key",
          "type": "bytes32"
        },
        {
          "components": [
            {
              "components": [
                {
                  "internalType": "address",
                  "name": "account",
                  "type": "address"
                },
                {
                  "internalType": "address",
                  "name": "receiver",
                  "type": "address"
                },
                {
                  "internalType": "address",
                  "name": "callbackContract",
                  "type": "address"
                },
                {
                  "internalType": "address",
                  "name": "uiFeeReceiver",
                  "type": "address"
                },
                {
                  "internalType": "address",
                  "name": "market",
                  "type": "address"
                },
                {
                  "internalType": "address[]",
                  "name": "longTokenSwapPath",
                  "type": "address[]"
                },
                {
                  "internalType": "address[]",
                  "name": "shortTokenSwapPath",
                  "type": "address[]"
                }
              ],
              "internalType": "struct Withdrawal.Addresses",
              "name": "addresses",
              "type": "tuple"
            },
            {
              "components": [
                {
                  "internalType": "uint256",
                  "name": "marketTokenAmount",
                  "type": "uint256"
                },
                {
                  "internalType": "uint256",
                  "name": "minLongTokenAmount",
                  "type": "uint256"
                },
                {
                  "internalType": "uint256",
                  "name": "minShortTokenAmount",
                  "type": "uint256"
                },
                {
                  "internalType": "uint256",
                  "name": "updatedAtBlock",
                  "type": "uint256"
                },
                {
                  "internalType": "uint256",
                  "name": "executionFee",
                  "type": "uint256"
                },
                {
                  "internalType": "uint256",
                  "name": "callbackGasLimit",
                  "type": "uint256"
                }
              ],
              "internalType": "struct Withdrawal.Numbers",
              "name": "numbers",
              "type": "tuple"
            },
            {
              "components": [
                {
                  "internalType": "bool",
                  "name": "shouldUnwrapNativeToken",
                  "type": "bool"
                }
              ],
              "internalType": "struct Withdrawal.Flags",
              "name": "flags",
              "type": "tuple"
            }
          ],
          "internalType": "struct Withdrawal.Props",
          "name": "withdrawal",
          "type": "tuple"
        },
        {
          "components": [
            {
              "components": [
                {
                  "components": [
                    {
                      "internalType": "string",
                      "name": "key",
                      "type": "string"
                    },
                    {
                      "internalType": "address",
                      "name": "value",
                      "type": "address"
                    }
                  ],
                  "internalType": "struct EventUtils.AddressKeyValue[]",
                  "name": "items",
                  "type": "tuple[]"
                },
                {
                  "components": [
                    {
                      "internalType": "string",
                      "name": "key",
                      "type": "string"
                    },
                    {
                      "internalType": "address[]",
                      "name": "value",
                      "type": "address[]"
                    }
                  ],
                  "internalType": "struct EventUtils.AddressArrayKeyValue[]",
                  "name": "arrayItems",
                  "type": "tuple[]"
                }
              ],
              "internalType": "struct EventUtils.AddressItems",
              "name": "addressItems",
              "type": "tuple"
            },
            {
              "components": [
                {
                  "components": [
                    {
                      "internalType": "string",
                      "name": "key",
                      "type": "string"
                    },
                    {
                      "internalType": "uint256",
                      "name": "value",
                      "type": "uint256"
                    }
                  ],
                  "internalType": "struct EventUtils.UintKeyValue[]",
                  "name": "items",
                  "type": "tuple[]"
                },
                {
                  "components": [
                    {
                      "internalType": "string",
                      "name": "key",
                      "type": "string"
                    },
                    {
                      "internalType": "uint256[]",
                      "name": "value",
                      "type": "uint256[]"
                    }
                  ],
                  "internalType": "struct EventUtils.UintArrayKeyValue[]",
                  "name": "arrayItems",
                  "type": "tuple[]"
                }
              ],
              "internalType": "struct EventUtils.UintItems",
              "name": "uintItems",
              "type": "tuple"
            },
            {
              "components": [
                {
                  "components": [
                    {
                      "internalType": "string",
                      "name": "key",
                      "type": "string"
                    },
                    {
                      "internalType": "int256",
                      "name": "value",
                      "type": "int256"
                    }
                  ],
                  "internalType": "struct EventUtils.IntKeyValue[]",
                  "name": "items",
                  "type": "tuple[]"
                },
                {
                  "components": [
                    {
                      "internalType": "string",
                      "name": "key",
                      "type": "string"
                    },
                    {
                      "internalType": "int256[]",
                      "name": "value",
                      "type": "int256[]"
                    }
                  ],
                  "internalType": "struct EventUtils.IntArrayKeyValue[]",
                  "name": "arrayItems",
                  "type": "tuple[]"
                }
              ],
              "internalType": "struct EventUtils.IntItems",
              "name": "intItems",
              "type": "tuple"
            },
            {
              "components": [
                {
                  "components": [
                    {
                      "internalType": "string",
                      "name": "key",
                      "type": "string"
                    },
                    {
                      "internalType": "bool",
                      "name": "value",
                      "type": "bool"
                    }
                  ],
                  "internalType": "struct EventUtils.BoolKeyValue[]",
                  "name": "items",
                  "type": "tuple[]"
                },
                {
                  "components": [
                    {
                      "internalType": "string",
                      "name": "key",
                      "type": "string"
                    },
                    {
                      "internalType": "bool[]",
                      "name": "value",
                      "type": "bool[]"
                    }
                  ],
                  "internalType": "struct EventUtils.BoolArrayKeyValue[]",
                  "name": "arrayItems",
                  "type": "tuple[]"
                }
              ],
              "internalType": "struct EventUtils.BoolItems",
              "name": "boolItems",
              "type": "tuple"
            },
            {
              "components": [
                {
                  "components": [
                    {
                      "internalType": "string",
                      "name": "key",
                      "type": "string"
                    },
                    {
                      "internalType": "bytes32",
                      "name": "value",
                      "type": "bytes32"
                    }
                  ],
                  "internalType": "struct EventUtils.Bytes32KeyValue[]",
                  "name": "items",
                  "type": "tuple[]"
                },
                {
                  "components": [
                    {
                      "internalType": "string",
                      "name": "key",
                      "type": "string"
                    },
                    {
                      "internalType": "bytes32[]",
                      "name": "value",
                      "type": "bytes32[]"
                    }
                  ],
                  "internalType": "struct EventUtils.Bytes32ArrayKeyValue[]",
                  "name": "arrayItems",
                  "type": "tuple[]"
                }
              ],
              "internalType": "struct EventUtils.Bytes32Items",
              "name": "bytes32Items",
              "type": "tuple"
            },
            {
              "components": [
                {
                  "components": [
                    {
                      "internalType": "string",
                      "name": "key",
                      "type": "string"
                    },
                    {
                      "internalType": "bytes",
                      "name": "value",
                      "type": "bytes"
                    }
                  ],
                  "internalType": "struct EventUtils.BytesKeyValue[]",
                  "name": "items",
                  "type": "tuple[]"
                },
                {
                  "components": [
                    {
                      "internalType": "string",
                      "name": "key",
                      "type": "string"
                    },
                    {
                      "internalType": "bytes[]",
                      "name": "value",
                      "type": "bytes[]"
                    }
                  ],
                  "internalType": "struct EventUtils.BytesArrayKeyValue[]",
                  "name": "arrayItems",
                  "type": "tuple[]"
                }
              ],
              "internalType": "struct EventUtils.BytesItems",
              "name": "bytesItems",
              "type": "tuple"
            },
            {
              "components": [
                {
                  "components": [
                    {
                      "internalType": "string",
                      "name": "key",
                      "type": "string"
                    },
                    {
                      "internalType": "string",
                      "name": "value",
                      "type": "string"
                    }
                  ],
                  "internalType": "struct EventUtils.StringKeyValue[]",
                  "name": "items",
                  "type": "tuple[]"
                },
                {
                  "components": [
                    {
                      "internalType": "string",
                      "name": "key",
                      "type": "string"
                    },
                    {
                      "internalType": "string[]",
                      "name": "value",
                      "type": "string[]"
                    }
                  ],
                  "internalType": "struct EventUtils.StringArrayKeyValue[]",
                  "name": "arrayItems",
                  "type": "tuple[]"
                }
              ],
              "internalType": "struct EventUtils.StringItems",
              "name": "stringItems",
              "type": "tuple"
            }
          ],
          "internalType": "struct EventUtils.EventLogData",
          "name": "eventData",
          "type": "tuple"
        }
      ],
      "name": "afterWithdrawalExecution",
      "outputs": [],
      "stateMutability": "nonpayable",
      "type": "function"
    }
  ],
  "transactionHash": "0xaf4c56e795921820b9a41a1b0bd8e4e4c569218b5326bdf6f20b74a374c6d917",
  "args": [],
  "numDeployments": 2,
  "solcInputHash": "d3e0a77f8dea186d3138b9dd9c8dcd78",
  "bytecode": "0x608060405234801561001057600080fd5b50600160005561344e806100256000396000f3fe608060405234801561001057600080fd5b50600436106100575760003560e01c80634ef189b81461005c578063a02ba64d14610071578063a224323b14610084578063c3fa402b14610097578063ee0fc121146100aa575b600080fd5b61006f61006a366004612eb1565b6100c4565b005b61006f61007f366004612eb1565b61073d565b61006f61009236600461303b565b610b10565b61006f6100a536600461303b565b61127e565b6100b261175d565b60405190815260200160405180910390f35b6100cd33611785565b6100f25760405162461bcd60e51b81526004016100e99061318a565b60405180910390fd5b60006100fc61185d565b8054909150600119016101215760405162461bcd60e51b81526004016100e9906131cc565b60028155600061012f611881565b90506000610144856000015160800151611899565b90506000610159866000015160800151611a1f565b90506000826001600160a01b03166370a08231306040518263ffffffff1660e01b81526004016101899190613203565b602060405180830381865afa1580156101a6573d6000803e3d6000fd5b505050506040513d601f19601f820116820180604052508101906101ca9190613217565b1115610247576040516307c11f8f60e51b8152610247906001600160a01b0385169063f823f1e090610200908690600401613203565b602060405180830381865afa15801561021d573d6000803e3d6000fd5b505050506040513d601f19601f820116820180604052508101906102419190613217565b83611b61565b6040516370a0823160e01b81526000906001600160a01b038316906370a0823190610276903090600401613203565b602060405180830381865afa158015610293573d6000803e3d6000fd5b505050506040513d601f19601f820116820180604052508101906102b79190613217565b1115610334576040516307c11f8f60e51b8152610334906001600160a01b0385169063f823f1e0906102ed908590600401613203565b602060405180830381865afa15801561030a573d6000803e3d6000fd5b505050506040513d601f19601f8201168201806040525081019061032e9190613217565b82611b61565b61033c611c50565b6020860151511561049b576040516307c11f8f60e51b81526001600160a01b0384169063c3cc6c7a90829063f823f1e09061037b908790600401613203565b602060405180830381865afa158015610398573d6000803e3d6000fd5b505050506040513d601f19601f820116820180604052508101906103bc9190613217565b846001600160a01b031663313ce5676040518163ffffffff1660e01b8152600401602060405180830381865afa1580156103fa573d6000803e3d6000fd5b505050506040513d601f19601f8201168201806040525081019061041e9190613230565b61042990600a613354565b60208a01515161044190670de0b6b3a7640000613363565b61044b919061337a565b6040518363ffffffff1660e01b815260040161046892919061339c565b600060405180830381600087803b15801561048257600080fd5b505af1158015610496573d6000803e3d6000fd5b505050505b6020808701510151156105fe576040516307c11f8f60e51b81526001600160a01b0384169063c3cc6c7a90829063f823f1e0906104dc908690600401613203565b602060405180830381865afa1580156104f9573d6000803e3d6000fd5b505050506040513d601f19601f8201168201806040525081019061051d9190613217565b836001600160a01b031663313ce5676040518163ffffffff1660e01b8152600401602060405180830381865afa15801561055b573d6000803e3d6000fd5b505050506040513d601f19601f8201168201806040525081019061057f9190613230565b61058a90600a613354565b6020808b015101516105a490670de0b6b3a7640000613363565b6105ae919061337a565b6040518363ffffffff1660e01b81526004016105cb92919061339c565b600060405180830381600087803b1580156105e557600080fd5b505af11580156105f9573d6000803e3d6000fd5b505050505b8551608001516040516307c11f8f60e51b81526001600160a01b0385169163ed0994cd91839163f823f1e0916106379190600401613203565b602060405180830381865afa158015610654573d6000803e3d6000fd5b505050506040513d601f19601f820116820180604052508101906106789190613217565b8851516040518363ffffffff1660e01b81526004016106989291906133aa565b600060405180830381600087803b1580156106b257600080fd5b505af11580156106c6573d6000803e3d6000fd5b505050506106d333611cd7565b8560000151608001516001600160a01b0316336001600160a01b03167fa9d54d01b9c80d333d155788c57b7d54ee17d436024e3dac5ea05137476d278588602001516080015160405161072891815260200190565b60405180910390a35050600190915550505050565b61074633611785565b6107625760405162461bcd60e51b81526004016100e99061318a565b600061076c61185d565b8054909150600119016107915760405162461bcd60e51b81526004016100e9906131cc565b60028155600061079f611881565b905060008360200151600001516000815181106107be576107be6133c1565b6020026020010151602001519050600085600001516080015190506000816001600160a01b03166370a08231306040518263ffffffff1660e01b81526004016108079190613203565b602060405180830381865afa158015610824573d6000803e3d6000fd5b505050506040513d601f19601f820116820180604052508101906108489190613217565b90508015610880576040516307c11f8f60e51b8152610880906001600160a01b0386169063f823f1e090610200908690600401613203565b610888611c50565b6040516307c11f8f60e51b81526001600160a01b0385169063c3cc6c7a90829063f823f1e0906108bc908790600401613203565b602060405180830381865afa1580156108d9573d6000803e3d6000fd5b505050506040513d601f19601f820116820180604052508101906108fd9190613217565b846001600160a01b031663313ce5676040518163ffffffff1660e01b8152600401602060405180830381865afa15801561093b573d6000803e3d6000fd5b505050506040513d601f19601f8201168201806040525081019061095f9190613230565b61096a90600a613354565b61097c87670de0b6b3a7640000613363565b610986919061337a565b6040518363ffffffff1660e01b81526004016109a392919061339c565b600060405180830381600087803b1580156109bd57600080fd5b505af11580156109d1573d6000803e3d6000fd5b50506040516307c11f8f60e51b81526001600160a01b038716925063ed0994cd9150829063f823f1e090610a09908790600401613203565b602060405180830381865afa158015610a26573d6000803e3d6000fd5b505050506040513d601f19601f82011682018060405250810190610a4a9190613217565b8951516040518363ffffffff1660e01b8152600401610a6a9291906133aa565b600060405180830381600087803b158015610a8457600080fd5b505af1158015610a98573d6000803e3d6000fd5b50505050610aa533611cd7565b8660000151608001516001600160a01b0316336001600160a01b03167fe1e067eab571218f837c5015c854ebbbc631dc6ec63b28e9deb6718d78a858b7858a6020015160800151604051610afa92919061339c565b60405180910390a3505060019092555050505050565b610b1933611785565b610b355760405162461bcd60e51b81526004016100e99061318a565b6000610b3f61185d565b805490915060011901610b645760405162461bcd60e51b81526004016100e9906131cc565b600281556000610b72611881565b90506000610b87856000015160800151611899565b90506000610b9c866000015160800151611a1f565b90506000856020015160000151600081518110610bbb57610bbb6133c1565b60200260200101516020015190506000866020015160000151600181518110610be657610be66133c1565b60200260200101516020015190506000846001600160a01b03166370a08231306040518263ffffffff1660e01b8152600401610c229190613203565b602060405180830381865afa158015610c3f573d6000803e3d6000fd5b505050506040513d601f19601f82011682018060405250810190610c639190613217565b1115610ce0576040516307c11f8f60e51b8152610ce0906001600160a01b0387169063f823f1e090610c99908890600401613203565b602060405180830381865afa158015610cb6573d6000803e3d6000fd5b505050506040513d601f19601f82011682018060405250810190610cda9190613217565b85611b61565b6040516370a0823160e01b81526000906001600160a01b038516906370a0823190610d0f903090600401613203565b602060405180830381865afa158015610d2c573d6000803e3d6000fd5b505050506040513d601f19601f82011682018060405250810190610d509190613217565b1115610dcd576040516307c11f8f60e51b8152610dcd906001600160a01b0387169063f823f1e090610d86908790600401613203565b602060405180830381865afa158015610da3573d6000803e3d6000fd5b505050506040513d601f19601f82011682018060405250810190610dc79190613217565b84611b61565b8115610f21576040516307c11f8f60e51b81526001600160a01b0386169063c3cc6c7a90829063f823f1e090610e07908990600401613203565b602060405180830381865afa158015610e24573d6000803e3d6000fd5b505050506040513d601f19601f82011682018060405250810190610e489190613217565b866001600160a01b031663313ce5676040518163ffffffff1660e01b8152600401602060405180830381865afa158015610e86573d6000803e3d6000fd5b505050506040513d601f19601f82011682018060405250810190610eaa9190613230565b610eb590600a613354565b610ec786670de0b6b3a7640000613363565b610ed1919061337a565b6040518363ffffffff1660e01b8152600401610eee92919061339c565b600060405180830381600087803b158015610f0857600080fd5b505af1158015610f1c573d6000803e3d6000fd5b505050505b8015611075576040516307c11f8f60e51b81526001600160a01b0386169063c3cc6c7a90829063f823f1e090610f5b908890600401613203565b602060405180830381865afa158015610f78573d6000803e3d6000fd5b505050506040513d601f19601f82011682018060405250810190610f9c9190613217565b856001600160a01b031663313ce5676040518163ffffffff1660e01b8152600401602060405180830381865afa158015610fda573d6000803e3d6000fd5b505050506040513d601f19601f82011682018060405250810190610ffe9190613230565b61100990600a613354565b61101b85670de0b6b3a7640000613363565b611025919061337a565b6040518363ffffffff1660e01b815260040161104292919061339c565b600060405180830381600087803b15801561105c57600080fd5b505af1158015611070573d6000803e3d6000fd5b505050505b6040516307c11f8f60e51b81526001600160a01b0386169063ed0994cd90829063f823f1e0906110a9908990600401613203565b602060405180830381865afa1580156110c6573d6000803e3d6000fd5b505050506040513d601f19601f820116820180604052508101906110ea9190613217565b8a51516040518363ffffffff1660e01b815260040161110a9291906133aa565b600060405180830381600087803b15801561112457600080fd5b505af1158015611138573d6000803e3d6000fd5b50506040516307c11f8f60e51b81526001600160a01b038816925063ed0994cd9150829063f823f1e090611170908890600401613203565b602060405180830381865afa15801561118d573d6000803e3d6000fd5b505050506040513d601f19601f820116820180604052508101906111b19190613217565b8a51516040518363ffffffff1660e01b81526004016111d19291906133aa565b600060405180830381600087803b1580156111eb57600080fd5b505af11580156111ff573d6000803e3d6000fd5b5050505061120b611c50565b61121433611cd7565b87516080908101516020808b015190920151604080518681529384018590528301526001600160a01b03169033907f0f00ca74793891bdff0dfe249f88fde6f2c5bb8452bbf09514b669abb92bc0a29060600160405180910390a350506001909355505050505050565b61128733611785565b6112a35760405162461bcd60e51b81526004016100e99061318a565b60006112ad61185d565b8054909150600119016112d25760405162461bcd60e51b81526004016100e9906131cc565b6002815560006112e0611881565b905060006112f5856000015160800151611899565b9050600061130a866000015160800151611a1f565b905060008660000151608001516001600160a01b03166370a08231306040518263ffffffff1660e01b81526004016113429190613203565b602060405180830381865afa15801561135f573d6000803e3d6000fd5b505050506040513d601f19601f820116820180604052508101906113839190613217565b1115611409578551608001516040516307c11f8f60e51b8152611409916001600160a01b0386169163f823f1e0916113bd91600401613203565b602060405180830381865afa1580156113da573d6000803e3d6000fd5b505050506040513d601f19601f820116820180604052508101906113fe9190613217565b875160800151611b61565b611411611c50565b8551608001516040516307c11f8f60e51b81526001600160a01b0385169163c3cc6c7a91839163f823f1e09161144a9190600401613203565b602060405180830381865afa158015611467573d6000803e3d6000fd5b505050506040513d601f19601f8201168201806040525081019061148b9190613217565b8860000151608001516001600160a01b031663313ce5676040518163ffffffff1660e01b8152600401602060405180830381865afa1580156114d1573d6000803e3d6000fd5b505050506040513d601f19601f820116820180604052508101906114f59190613230565b61150090600a613354565b60208a01515161151890670de0b6b3a7640000613363565b611522919061337a565b6040518363ffffffff1660e01b815260040161153f92919061339c565b600060405180830381600087803b15801561155957600080fd5b505af115801561156d573d6000803e3d6000fd5b50506040516307c11f8f60e51b81526001600160a01b038616925063ed0994cd9150829063f823f1e0906115a5908790600401613203565b602060405180830381865afa1580156115c2573d6000803e3d6000fd5b505050506040513d601f19601f820116820180604052508101906115e69190613217565b8851516040518363ffffffff1660e01b81526004016116069291906133aa565b600060405180830381600087803b15801561162057600080fd5b505af1158015611634573d6000803e3d6000fd5b50506040516307c11f8f60e51b81526001600160a01b038616925063ed0994cd9150829063f823f1e09061166c908690600401613203565b602060405180830381865afa158015611689573d6000803e3d6000fd5b505050506040513d601f19601f820116820180604052508101906116ad9190613217565b8851516040518363ffffffff1660e01b81526004016116cd9291906133aa565b600060405180830381600087803b1580156116e757600080fd5b505af11580156116fb573d6000803e3d6000fd5b5050505061170833611cd7565b8560000151608001516001600160a01b0316336001600160a01b03167f75f1e929bc3763cbb44e9f41114fbc63fb4dc8b10ecb29e801d0970fddb3077988602001516080015160405161072891815260200190565b60405160200161176c906133d7565b6040516020818303038152906040528051906020012081565b600080733c3d99fd298f679dbc2cecd132b4ec4d0f5e6e729050806001600160a01b031663ac4ab3fb846040516020016117be906133d7565b604051602081830303815290604052805190602001206040518363ffffffff1660e01b81526004016118059291906001600160a01b03929092168252602082015260400190565b602060405180830381865afa158015611822573d6000803e3d6000fd5b505050506040513d601f19601f8201168201806040525081019061184691906133fb565b156118545750600192915050565b50600092915050565b7f1c85eba10a4cf2d29c83fc15f97931886b9fd3caeb70d8c377aeedc58b919e3b90565b730a0d954d4b0f0b47a5990c0abd179a90ff74e25590565b60007370d95587d40a2caf56bd97485ab3eec10bee6335196001600160a01b038316016118db57507382af49447d8a07e3bd95bd0d56f35241523fbab1919050565b73c25cef6061cf5de5eb761b50e4743c1f5d7e5406196001600160a01b0383160161191b575073912ce59144191c1204e64559fe8253a0e49e6548919050565b737f1fa204bb700853d36994da19f830b6ad18455b196001600160a01b0383160161195b575073f97f4df75117a78c1a5a0dbb814af92458539fb4919050565b73c7abb2c5f3bf3ceb389df0eecd6120d451170b4f196001600160a01b0383160161199b575073fa7f8980b0f1e64a2062791cc3b0871572f1f7f0919050565b7347c031236e19d024b42f8ae6780e44a573170702196001600160a01b038316016119db5750732f2a2543b76a4166549f7aab2e75bef0aefc5b0f919050565b60405162461bcd60e51b815260206004820152601460248201527313585c9ad95d081b9bdd081cdd5c1c1bdc9d195960621b60448201526064016100e9565b919050565b60007370d95587d40a2caf56bd97485ab3eec10bee6335196001600160a01b03831601611a61575073af88d065e77c8cc2239327c5edb3a432268e5831919050565b73c25cef6061cf5de5eb761b50e4743c1f5d7e5406196001600160a01b03831601611aa1575073af88d065e77c8cc2239327c5edb3a432268e5831919050565b737f1fa204bb700853d36994da19f830b6ad18455b196001600160a01b03831601611ae1575073af88d065e77c8cc2239327c5edb3a432268e5831919050565b73c7abb2c5f3bf3ceb389df0eecd6120d451170b4f196001600160a01b03831601611b21575073af88d065e77c8cc2239327c5edb3a432268e5831919050565b7347c031236e19d024b42f8ae6780e44a573170702196001600160a01b038316016119db575073af88d065e77c8cc2239327c5edb3a432268e5831919050565b81600003611baa5760405162461bcd60e51b815260206004820152601660248201527553796d626f6c2063616e6e6f7420626520656d70747960501b60448201526064016100e9565b6001600160a01b038116611bf65760405162461bcd60e51b8152602060048201526013602482015272496e76616c696420416464726573735a65726f60681b60448201526064016100e9565b6000611c00611d78565b9050611c10816004018484611d9c565b50827f21eab7d98872eb1399cd56d99a43442b9b50720f3222e49563d2be182c6a6a3f42604051611c4391815260200190565b60405180910390a2505050565b4715611cd5576000611c60611dba565b9050806001600160a01b031663d0e30db0476040518263ffffffff1660e01b81526004016000604051808303818588803b158015611c9d57600080fd5b505af1158015611cb1573d6000803e3d6000fd5b5050505050611cd3611cc66208aa8960eb1b90565b611cce611dba565b611b61565b505b565b6000611ce1611d78565b90508060080154600003611d2f5760405162461bcd60e51b815260206004820152601560248201527420b1b1b7bab73a1034b9903737ba10333937bd32b760591b60448201526064016100e9565b600060088201556040514281526001600160a01b038316907fd1857c2ae6a9e5e353aa7eef9b8377c98206ccbd4578e56fbe5b6b27e503e56f9060200160405180910390a25050565b7f8d5bb42e0ac1496a2c326edc9c00758985246e6c2bb146d6c2f4a0d509e0960a90565b6000611db284846001600160a01b038516611dd2565b949350505050565b7382af49447d8a07e3bd95bd0d56f35241523fbab190565b60008281526002840160205260408120829055611db284846000611df68383611dff565b90505b92915050565b6000818152600183016020526040812054611e4657508154600181810184556000848152602080822090930184905584548482528286019093526040902091909155611df9565b506000611df9565b634e487b7160e01b600052604160045260246000fd5b604080519081016001600160401b0381118282101715611e8657611e86611e4e565b60405290565b60405160e081016001600160401b0381118282101715611e8657611e86611e4e565b604051606081016001600160401b0381118282101715611e8657611e86611e4e565b60405161012081016001600160401b0381118282101715611e8657611e86611e4e565b604051601f8201601f191681016001600160401b0381118282101715611f1b57611f1b611e4e565b604052919050565b80356001600160a01b0381168114611a1a57600080fd5b60006001600160401b03821115611f5357611f53611e4e565b5060051b60200190565b600082601f830112611f6e57600080fd5b81356020611f83611f7e83611f3a565b611ef3565b82815260059290921b84018101918181019086841115611fa257600080fd5b8286015b84811015611fc457611fb781611f23565b8352918301918301611fa6565b509695505050505050565b600060c08284031215611fe157600080fd5b60405160c081016001600160401b038111828210171561200357612003611e4e565b8060405250809150823581526020830135602082015260408301356040820152606083013560608201526080830135608082015260a083013560a08201525092915050565b8015158114611cd357600080fd5b60006020828403121561206857600080fd5b604051602081016001600160401b038111828210171561208a5761208a611e4e565b604052905080823561209b81612048565b905292915050565b600082601f8301126120b457600080fd5b81356001600160401b038111156120cd576120cd611e4e565b6120e0601f8201601f1916602001611ef3565b8181528460208386010111156120f557600080fd5b816020850160208301376000918101602001919091529392505050565b600082601f83011261212357600080fd5b81356020612133611f7e83611f3a565b82815260059290921b8401810191818101908684111561215257600080fd5b8286015b84811015611fc45780356001600160401b03808211156121765760008081fd5b908801906040828b03601f19018113156121905760008081fd5b612198611e64565b87840135838111156121aa5760008081fd5b6121b88d8a838801016120a3565b8252509083013590828211156121ce5760008081fd5b6121dc8c8984870101611f5d565b818901528652505050918301918301612156565b6000604080838503121561220357600080fd5b61220b611e64565b915082356001600160401b038082111561222457600080fd5b818501915085601f83011261223857600080fd5b81356020612248611f7e83611f3a565b82815260059290921b8401810191818101908984111561226757600080fd5b8286015b848110156122e1578035868111156122835760008081fd5b8701808c03601f19018913156122995760008081fd5b6122a1611e64565b85820135888111156122b35760008081fd5b6122c18e88838601016120a3565b8252506122cf8a8301611f23565b8187015284525091830191830161226b565b50875250868101359450828511156122f857600080fd5b61230488868901612112565b81870152505050505092915050565b600082601f83011261232457600080fd5b81356020612334611f7e83611f3a565b828152600592831b850182019282820191908785111561235357600080fd5b8387015b858110156124485780356001600160401b03808211156123775760008081fd5b908901906040828c03601f19018113156123915760008081fd5b612399611e64565b88840135838111156123ab5760008081fd5b6123b98e8b838801016120a3565b82525081840135838111156123ce5760008081fd5b8085019450508c603f8501126123e657600092508283fd5b8884013592506123f8611f7e84611f3a565b83815292861b8401820192898101908e8511156124155760008081fd5b948301945b848610156124335785358252948a0194908a019061241a565b828b0152508752505050928401928401612357565b5090979650505050505050565b6000604080838503121561246857600080fd5b612470611e64565b915082356001600160401b038082111561248957600080fd5b818501915085601f83011261249d57600080fd5b813560206124ad611f7e83611f3a565b82815260059290921b840181019181810190898411156124cc57600080fd5b8286015b8481101561253e578035868111156124e85760008081fd5b8701808c03601f19018913156124fe5760008081fd5b612506611e64565b85820135888111156125185760008081fd5b6125268e88838601016120a3565b825250908901358582015283529183019183016124d0565b508752508681013594508285111561255557600080fd5b61230488868901612313565b6000604080838503121561257457600080fd5b61257c611e64565b915082356001600160401b038082111561259557600080fd5b818501915085601f8301126125a957600080fd5b813560206125b9611f7e83611f3a565b82815260059290921b840181019181810190898411156125d857600080fd5b8286015b8481101561253e578035868111156125f45760008081fd5b8701808c03601f190189131561260a5760008081fd5b612612611e64565b85820135888111156126245760008081fd5b6126328e88838601016120a3565b825250908901358582015283529183019183016125dc565b600082601f83011261265b57600080fd5b8135602061266b611f7e83611f3a565b828152600592831b850182019282820191908785111561268a57600080fd5b8387015b858110156124485780356001600160401b03808211156126ae5760008081fd5b908901906040828c03601f19018113156126c85760008081fd5b6126d0611e64565b88840135838111156126e25760008081fd5b6126f08e8b838801016120a3565b82525081840135838111156127055760008081fd5b8085019450508c603f85011261271d57600092508283fd5b88840135925061272f611f7e84611f3a565b83815292861b8401820192898101908e85111561274c5760008081fd5b948301945b84861015612776578535935061276684612048565b838252948a0194908a0190612751565b828b015250875250505092840192840161268e565b6000604080838503121561279e57600080fd5b6127a6611e64565b915082356001600160401b03808211156127bf57600080fd5b818501915085601f8301126127d357600080fd5b813560206127e3611f7e83611f3a565b82815260059290921b8401810191818101908984111561280257600080fd5b8286015b848110156128815780358681111561281e5760008081fd5b8701808c03601f19018913156128345760008081fd5b61283c611e64565b858201358881111561284e5760008081fd5b61285c8e88838601016120a3565b825250908901359061286d82612048565b808601919091528352918301918301612806565b508752508681013594508285111561289857600080fd5b6123048886890161264a565b600082601f8301126128b557600080fd5b813560206128c5611f7e83611f3a565b82815260059290921b840181019181810190868411156128e457600080fd5b8286015b84811015611fc4576001600160401b03813581101561290657600080fd5b813588016040818b03601f1901121561291e57600080fd5b612926611e64565b868201358381111561293757600080fd5b6129458c89838601016120a3565b82525060408201358381111561295a57600080fd5b8083019250508a603f83011261296f57600080fd5b8682013561297f611f7e82611f3a565b81815260059190911b830160400190888101908d83111561299f57600080fd5b604085015b838110156129d75786813511156129ba57600080fd5b6129ca8f604083358901016120a3565b8352918a01918a016129a4565b50838a01525050855250509183019183016128e8565b60006040808385031215612a0057600080fd5b612a08611e64565b915082356001600160401b0380821115612a2157600080fd5b818501915085601f830112612a3557600080fd5b81356020612a45611f7e83611f3a565b82815260059290921b84018101918181019089841115612a6457600080fd5b8286015b84811015612af457803586811115612a805760008081fd5b8701808c03601f1901891315612a965760008081fd5b612a9e611e64565b8582013588811115612ab05760008081fd5b612abe8e88838601016120a3565b8252508982013588811115612ad35760008081fd5b612ae18e88838601016120a3565b8288015250845250918301918301612a68565b5087525086810135945082851115612b0b57600080fd5b612304888689016128a4565b600082601f830112612b2857600080fd5b81356020612b38611f7e83611f3a565b82815260059290921b84018101918181019086841115612b5757600080fd5b8286015b84811015611fc4576001600160401b038135811015612b7957600080fd5b813588016040818b03601f19011215612b9157600080fd5b612b99611e64565b8682013583811115612baa57600080fd5b612bb88c89838601016120a3565b825250604082013583811115612bcd57600080fd5b8083019250508a603f830112612be257600080fd5b86820135612bf2611f7e82611f3a565b81815260059190911b830160400190888101908d831115612c1257600080fd5b604085015b83811015612c4a578681351115612c2d57600080fd5b612c3d8f604083358901016120a3565b8352918a01918a01612c17565b50838a0152505085525050918301918301612b5b565b60006040808385031215612c7357600080fd5b612c7b611e64565b915082356001600160401b0380821115612c9457600080fd5b818501915085601f830112612ca857600080fd5b81356020612cb8611f7e83611f3a565b82815260059290921b84018101918181019089841115612cd757600080fd5b8286015b84811015612d6757803586811115612cf35760008081fd5b8701808c03601f1901891315612d095760008081fd5b612d11611e64565b8582013588811115612d235760008081fd5b612d318e88838601016120a3565b8252508982013588811115612d465760008081fd5b612d548e88838601016120a3565b8288015250845250918301918301612cdb565b5087525086810135945082851115612d7e57600080fd5b61230488868901612b17565b600060e08284031215612d9c57600080fd5b612da4611e8c565b905081356001600160401b0380821115612dbd57600080fd5b612dc9858386016121f0565b83526020840135915080821115612ddf57600080fd5b612deb85838601612455565b60208401526040840135915080821115612e0457600080fd5b612e1085838601612561565b60408401526060840135915080821115612e2957600080fd5b612e358583860161278b565b60608401526080840135915080821115612e4e57600080fd5b612e5a85838601612455565b608084015260a0840135915080821115612e7357600080fd5b612e7f858386016129ed565b60a084015260c0840135915080821115612e9857600080fd5b50612ea584828501612c60565b60c08301525092915050565b600080600060608486031215612ec657600080fd5b8335925060208401356001600160401b0380821115612ee457600080fd5b8186019150610100808389031215612efb57600080fd5b612f03611eae565b833583811115612f1257600080fd5b8401610120818b031215612f2557600080fd5b612f2d611ed0565b612f3682611f23565b8152612f4460208301611f23565b6020820152612f5560408301611f23565b6040820152612f6660608301611f23565b6060820152612f7760808301611f23565b6080820152612f8860a08301611f23565b60a0820152612f9960c08301611f23565b60c082015260e082013585811115612fb057600080fd5b612fbc8c828501611f5d565b60e0830152508382013585811115612fd357600080fd5b612fdf8c828501611f5d565b8286015250825250612ff48960208601611fcf565b60208201526130068960e08601612056565b60408201528095505050604086013591508082111561302457600080fd5b5061303186828701612d8a565b9150509250925092565b60008060006060848603121561305057600080fd5b8335925060208401356001600160401b038082111561306e57600080fd5b90850190610100828803121561308357600080fd5b61308b611eae565b82358281111561309a57600080fd5b830160e0818a0312156130ac57600080fd5b6130b4611e8c565b6130bd82611f23565b81526130cb60208301611f23565b60208201526130dc60408301611f23565b60408201526130ed60608301611f23565b60608201526130fe60808301611f23565b608082015260a08201358481111561311557600080fd5b6131218b828501611f5d565b60a08301525060c08201358481111561313957600080fd5b6131458b828501611f5d565b60c08301525082525061315b8860208501611fcf565b602082015261316d8860e08501612056565b604082015280945050604086013591508082111561302457600080fd5b60208082526022908201527f4d757374206265206120474d5820563220617574686f72697a6564204b65657060408201526132b960f11b606082015260800190565b6020808252601f908201527f5265656e7472616e637947756172643a207265656e7472616e742063616c6c00604082015260600190565b6001600160a01b0391909116815260200190565b60006020828403121561322957600080fd5b5051919050565b60006020828403121561324257600080fd5b815160ff8116811461325357600080fd5b9392505050565b634e487b7160e01b600052601160045260246000fd5b600181815b808511156132ab5781600019048211156132915761329161325a565b8085161561329e57918102915b93841c9390800290613275565b509250929050565b6000826132c257506001611df9565b816132cf57506000611df9565b81600181146132e557600281146132ef5761330b565b6001915050611df9565b60ff8411156133005761330061325a565b50506001821b611df9565b5060208310610133831016604e8410600b841016171561332e575081810a611df9565b6133388383613270565b806000190482111561334c5761334c61325a565b029392505050565b6000611df660ff8416836132b3565b8082028115828204841417611df957611df961325a565b60008261339757634e487b7160e01b600052601260045260246000fd5b500490565b918252602082015260400190565b9182526001600160a01b0316602082015260400190565b634e487b7160e01b600052603260045260246000fd5b6020808252600a908201526921a7a72a2927a62622a960b11b604082015260600190565b60006020828403121561340d57600080fd5b81516132538161204856fea26469706673582212209c93a162d32055f6bc80b50a1470b77aa7befa3d70fe1e5c03758c943a987eba64736f6c63430008110033",
  "devdoc": {
    "kind": "dev",
    "methods": {},
    "version": 1
  },
  "userdoc": {
    "kind": "user",
    "methods": {},
    "version": 1
  },
  "storageLayout": {
    "storage": [
      {
        "astId": 900,
        "contract": "contracts/facets/arbitrum/GmxV2CallbacksFacetArbitrum.sol:GmxV2CallbacksFacetArbitrum",
        "label": "_status",
        "offset": 0,
        "slot": "0",
        "type": "t_uint256"
      }
    ],
    "types": {
      "t_uint256": {
        "encoding": "inplace",
        "label": "uint256",
        "numberOfBytes": "32"
      }
    }
  }
}