{
  "address": "0xf946fed30EecA2DFde7F893B6821f887c2E56233",
  "abi": [
    {
      "inputs": [],
      "name": "CalldataMustHaveValidPayload",
      "type": "error"
    },
    {
      "inputs": [],
      "name": "CalldataOverOrUnderFlow",
      "type": "error"
    },
    {
      "inputs": [],
      "name": "CanNotPickMedianOfEmptyArray",
      "type": "error"
    },
    {
      "inputs": [],
      "name": "DataPackageTimestampMustNotBeZero",
      "type": "error"
    },
    {
      "inputs": [],
      "name": "DataPackageTimestampsMustBeEqual",
      "type": "error"
    },
    {
      "inputs": [],
      "name": "EachSignerMustProvideTheSameValue",
      "type": "error"
    },
    {
      "inputs": [],
      "name": "EmptyCalldataPointersArr",
      "type": "error"
    },
    {
      "inputs": [],
      "name": "GetDataServiceIdNotImplemented",
      "type": "error"
    },
    {
      "inputs": [],
      "name": "IncorrectUnsignedMetadataSize",
      "type": "error"
    },
    {
      "inputs": [
        {
          "internalType": "uint256",
          "name": "receivedSignersCount",
          "type": "uint256"
        },
        {
          "internalType": "uint256",
          "name": "requiredSignersCount",
          "type": "uint256"
        }
      ],
      "name": "InsufficientNumberOfUniqueSigners",
      "type": "error"
    },
    {
      "inputs": [],
      "name": "InvalidCalldataPointer",
      "type": "error"
    },
    {
      "inputs": [],
      "name": "PriceSymbolPositionMismatch",
      "type": "error"
    },
    {
      "inputs": [],
      "name": "RedstonePayloadMustHaveAtLeastOneDataPackage",
      "type": "error"
    },
    {
      "inputs": [
        {
          "internalType": "address",
          "name": "receivedSigner",
          "type": "address"
        }
      ],
      "name": "SignerNotAuthorised",
      "type": "error"
    },
    {
      "inputs": [
        {
          "internalType": "uint256",
          "name": "receivedTimestampSeconds",
          "type": "uint256"
        },
        {
          "internalType": "uint256",
          "name": "blockTimestamp",
          "type": "uint256"
        }
      ],
      "name": "TimestampFromTooLongFuture",
      "type": "error"
    },
    {
      "inputs": [
        {
          "internalType": "uint256",
          "name": "receivedTimestampSeconds",
          "type": "uint256"
        },
        {
          "internalType": "uint256",
          "name": "blockTimestamp",
          "type": "uint256"
        }
      ],
      "name": "TimestampIsTooOld",
      "type": "error"
    },
    {
      "inputs": [],
      "name": "Uint256x256Math__MulDivOverflow",
      "type": "error"
    },
    {
      "inputs": [],
      "name": "Uint256x256Math__MulShiftOverflow",
      "type": "error"
    },
    {
      "inputs": [
        {
          "internalType": "uint256[]",
          "name": "values",
          "type": "uint256[]"
        }
      ],
      "name": "aggregateValues",
      "outputs": [
        {
          "internalType": "uint256",
          "name": "",
          "type": "uint256"
        }
      ],
      "stateMutability": "view",
      "type": "function"
    },
    {
      "inputs": [],
      "name": "extractTimestampsAndAssertAllAreEqual",
      "outputs": [
        {
          "internalType": "uint256",
          "name": "extractedTimestamp",
          "type": "uint256"
        }
      ],
      "stateMutability": "pure",
      "type": "function"
    },
    {
      "inputs": [
        {
          "internalType": "address",
          "name": "signerAddress",
          "type": "address"
        }
      ],
      "name": "getAuthorisedSignerIndex",
      "outputs": [
        {
          "internalType": "uint8",
          "name": "",
          "type": "uint8"
        }
      ],
      "stateMutability": "view",
      "type": "function"
    },
    {
      "inputs": [],
      "name": "getDataServiceId",
      "outputs": [
        {
          "internalType": "string",
          "name": "",
          "type": "string"
        }
      ],
      "stateMutability": "view",
      "type": "function"
    },
    {
      "inputs": [],
      "name": "getHealthMeter",
      "outputs": [
        {
          "internalType": "uint256",
          "name": "",
          "type": "uint256"
        }
      ],
      "stateMutability": "view",
      "type": "function"
    },
    {
      "inputs": [],
      "name": "getStakedPositionsPrices",
      "outputs": [
        {
          "components": [
            {
              "internalType": "bytes32",
              "name": "asset",
              "type": "bytes32"
            },
            {
              "internalType": "uint256",
              "name": "price",
              "type": "uint256"
            }
          ],
          "internalType": "struct HealthMeterFacetProd.AssetPrice[]",
          "name": "result",
          "type": "tuple[]"
        }
      ],
      "stateMutability": "view",
      "type": "function"
    },
    {
      "inputs": [],
      "name": "getUniqueSignersThreshold",
      "outputs": [
        {
          "internalType": "uint8",
          "name": "",
          "type": "uint8"
        }
      ],
      "stateMutability": "view",
      "type": "function"
    },
    {
      "inputs": [
        {
          "internalType": "uint256",
          "name": "receivedTimestampMilliseconds",
          "type": "uint256"
        }
      ],
      "name": "validateTimestamp",
      "outputs": [],
      "stateMutability": "view",
      "type": "function"
    }
  ],
  "transactionHash": "0x30f37c584423c66c58d227c9b2c92ac81796e5557fe885ba7d477be3e50cdc9e",
  "args": [],
  "numDeployments": 6,
  "solcInputHash": "b9f608b26a0fd58b34c63dfc33432c84",
  "bytecode": "0x608060405234801561001057600080fd5b506130d5806100206000396000f3fe608060405234801561001057600080fd5b50600436106100785760003560e01c80633ce142f51461007d57806355a547d5146100a75780638be3471a146100bd5780639104c640146100d2578063b24ebfcc146100da578063c274583a146100ed578063f50b2efe14610126578063f90c49241461013b575b600080fd5b61009061008b366004612bba565b610142565b60405160ff90911681526020015b60405180910390f35b6100af610249565b60405190815260200161009e565b6100c5610361565b60405161009e9190612bd7565b6100af610504565b6100af6100e8366004612c8f565b610c4e565b60408051808201825260178152761c99591cdd1bdb994b585d985b185b98da194b5c1c9bd9604a1b6020820152905161009e9190612d48565b610139610134366004612d7b565b610c5f565b005b6003610090565b60006001600160a01b038216731ea62d73edf8ac05dfcea1a34b9796e937a29eff0361017057506000919050565b6001600160a01b038216732c59617248994d12816ee1fa77ce0a64eeb456bf0361019c57506001919050565b6001600160a01b0382167312470f7aba85c8b81d63137dd5925d6ee114952b036101c857506002919050565b6001600160a01b03821673109b4a318a4f5ddcbca6349b45f881b4137deafb036101f457506003919050565b6001600160a01b0382167383cba8c619fb629b81a65c2e67fe15cf3e3c97470361022057506004919050565b816040516303b1166f60e61b815260040161023b9190612d94565b60405180910390fd5b919050565b600080610254610c6b565b9050600061026182610d19565b61ffff1690508060000361028857604051632154bfcf60e21b815260040160405180910390fd5b610293600283612dbe565b915060005b8181101561035b5760006102ab84610d53565b90506000806102bb606887612dbe565b905060006102c98236612dd1565b9050803592508265ffffffffffff166000036102f857604051630336dc9d60e41b815260040160405180910390fd5b87600003610310578265ffffffffffff169750610338565b878365ffffffffffff16146103385760405163d9d1f46560e01b815260040160405180910390fd5b6103428488612dbe565b965050505050808061035390612de4565b915050610298565b50505090565b6060600061036d610d8f565b80549091506000906001600160401b0381111561038c5761038c612c26565b6040519080825280602002602001820160405280156103b5578160200160208202803683370190505b50905060005b8254811015610417578281815481106103d6576103d6612dfd565b9060005260206000209060040201600101548282815181106103fa576103fa612dfd565b60209081029190910101528061040f81612de4565b9150506103bb565b50600061042382610db3565b905080516001600160401b0381111561043e5761043e612c26565b60405190808252806020026020018201604052801561047757816020015b610464612b8e565b81526020019060019003908161045c5790505b50935060005b81518110156104fd5760405180604001604052808483815181106104a3576104a3612dfd565b602002602001015181526020018383815181106104c2576104c2612dfd565b60200260200101518152508582815181106104df576104df612dfd565b602002602001018190525080806104f590612de4565b91505061047d565b5050505090565b60008061050f610fe0565b9050600061051b6110d3565b905060006105276110dd565b6040516325eb876f60e01b815260048101849052600160248201529091506000906a52b7d2dcc80cd2e4000000906001600160a01b03841690636953c06c9082906325eb876f90604401602060405180830381865afa15801561058e573d6000803e3d6000fd5b505050506040513d601f19601f820116820180604052508101906105b29190612e13565b6040518263ffffffff1660e01b81526004016105ce9190612d94565b602060405180830381865afa1580156105eb573d6000803e3d6000fd5b505050506040513d601f19601f8201168201806040525081019061060f9190612e30565b478660008151811061062357610623612dfd565b6020026020010151602001516106399190612e49565b6106439190612e49565b61064d9190612e76565b9050600080600061065c6110f5565b6106669085612dbe565b9350610670611c5e565b61067a9085612dbe565b935060005b8751811015610bb057600080600080896001600160a01b03166325eb876f8d87815181106106af576106af612dfd565b6020908102919091010151516040516001600160e01b031960e084901b168152600481019190915260016024820152604401602060405180830381865afa1580156106fe573d6000803e3d6000fd5b505050506040513d601f19601f820116820180604052508101906107229190612e13565b6040516370a0823160e01b81529091506001600160a01b038216906370a0823190610751903090600401612d94565b602060405180830381865afa15801561076e573d6000803e3d6000fd5b505050506040513d601f19601f820116820180604052508101906107929190612e30565b9350806001600160a01b031663313ce5676040518163ffffffff1660e01b8152600401602060405180830381865afa1580156107d2573d6000803e3d6000fd5b505050506040513d601f19601f820116820180604052508101906107f69190612e8a565b604051631a54f01b60e21b81529093506001600160a01b038b1690636953c06c90610825908490600401612d94565b602060405180830381865afa158015610842573d6000803e3d6000fd5b505050506040513d601f19601f820116820180604052508101906108669190612e30565b9150506000896001600160a01b0316630edc25b68d878151811061088c5761088c612dfd565b6020026020010151600001516040518263ffffffff1660e01b81526004016108b691815260200190565b602060405180830381865afa9250505080156108ef575060408051601f3d908101601f191682019092526108ec91810190612e13565b60015b61095f576108fe83600a612f91565b61090c906305f5e100612e49565b82858e888151811061092057610920612dfd565b6020026020010151602001516109369190612e49565b6109409190612e49565b61094a9190612e76565b610954908a612dbe565b985050505050610b9e565b90506040516330088b1f60e11b81526000906001600160a01b03831690636011163e90610990903090600401612d94565b602060405180830381865afa1580156109ad573d6000803e3d6000fd5b505050506040513d601f19601f820116820180604052508101906109d19190612e30565b9050841580156109df575080155b156109ee575050505050610b9e565b80851115610a6757610a0184600a612f91565b610a0f906305f5e100612e49565b83610a1a8388612dd1565b8f8981518110610a2c57610a2c612dfd565b602002602001015160200151610a429190612e49565b610a4c9190612e49565b610a569190612e76565b610a60908b612dbe565b9950610adc565b80851015610adc57610a7a84600a612f91565b610a88906305f5e100612e49565b83610a938784612dd1565b8f8981518110610aa557610aa5612dfd565b602002602001015160200151610abb9190612e49565b610ac59190612e49565b610acf9190612e76565b610ad9908a612dbe565b98505b610ae784600a612f91565b610af5906305f5e100612e49565b83828f8981518110610b0957610b09612dfd565b602002602001015160200151610b1f9190612e49565b610b299190612e49565b610b339190612e76565b610b3d9089612dbe565b9750610b4a84600a612f91565b818e8881518110610b5d57610b5d612dfd565b602002602001015160200151610b739190612e49565b610b82906402540be400612e49565b610b8c9190612e76565b610b969088612dbe565b965050505050505b80610ba881612de4565b91505061067f565b50600083851115610bc857610bc58486612dd1565b90505b68056bc75e2d631000006000839003610be8579998505050505050505050565b600082118015610c00575082610bfe8584612dbe565b115b15610c3e57818184610c128784612dbe565b610c1c9190612dd1565b610c269190612e49565b610c309190612e76565b995050505050505050505090565b6000995050505050505050505090565b6000610c5982611fdc565b92915050565b610c6881611fe7565b50565b60006602ed57011e0000601f1936013581161480610c9c576040516373bb264f60e11b815260040160405180910390fd5b60003660291115610cc057604051632bcb7bc560e11b815260040160405180910390fd5b5060281936013560006009610cdb600362ffffff8516612dbe565b610ce59190612dbe565b905036610cf3600283612dbe565b1115610d125760405163c30a7bd760e01b815260040160405180910390fd5b9392505050565b600080610d27602084612dbe565b905036811115610d4a57604051632bcb7bc560e11b815260040160405180910390fd5b36033592915050565b6000806000610d618461206b565b9092509050604e610d73826020612dbe565b610d7d9084612e49565b610d879190612dbe565b949350505050565b7f8d5bb42e0ac1496a2c326edc9c00758985246e6c2bb146d6c2f4a0d509e0961190565b6060600082516001600160401b03811115610dd057610dd0612c26565b604051908082528060200260200182016040528015610df9578160200160208202803683370190505b509050600080805b8551811015610eca576000925060005b82811015610e6d57868281518110610e2b57610e2b612dfd565b6020026020010151858281518110610e4557610e45612dfd565b602002602001015103610e5b5760019350610e6d565b80610e6581612de4565b915050610e11565b5082610eb857858181518110610e8557610e85612dfd565b6020026020010151848381518110610e9f57610e9f612dfd565b602090810291909101015281610eb481612de4565b9250505b80610ec281612de4565b915050610e01565b508083526000610ed9846120c2565b9050600086516001600160401b03811115610ef657610ef6612c26565b604051908082528060200260200182016040528015610f1f578160200160208202803683370190505b50905060005b8751811015610fd55760005b8651811015610fc257868181518110610f4c57610f4c612dfd565b6020026020010151898381518110610f6657610f66612dfd565b602002602001015103610fb057838181518110610f8557610f85612dfd565b6020026020010151838381518110610f9f57610f9f612dfd565b602002602001018181525050610fc2565b80610fba81612de4565b915050610f31565b5080610fcd81612de4565b915050610f25565b509695505050505050565b60606000610fec6120cd565b90506000610ff9826120c2565b905081516001600160401b0381111561101457611014612c26565b60405190808252806020026020018201604052801561104d57816020015b61103a612b8e565b8152602001906001900390816110325790505b50925060005b825181101561035b57604051806040016040528084838151811061107957611079612dfd565b6020026020010151815260200183838151811061109857611098612dfd565b60200260200101518152508482815181106110b5576110b5612dfd565b602002602001018190525080806110cb90612de4565b915050611053565b6208aa8960eb1b90565b730a0d954d4b0f0b47a5990c0abd179a90ff74e25590565b600080600061110261224b565b805480602002602001604051908101604052809291908181526020016000905b8282101561116d57600084815260209081902060408051808201909152908401546001600160a01b0381168252600160a01b900462ffffff1681830152825260019092019101611122565b5050505090506111b0604051806080016040528060006001600160a01b0316815260200160006001600160a01b0316815260200160008152602001600081525090565b815115611c545760005b8251811015611c4b5760008382815181106111d7576111d7612dfd565b60200260200101519050600080600083600001516001600160a01b03166305e8746d6040518163ffffffff1660e01b8152600401602060405180830381865afa158015611228573d6000803e3d6000fd5b505050506040513d601f19601f8201168201806040525081019061124c9190612e13565b9050600084600001516001600160a01b031663da10610c6040518163ffffffff1660e01b8152600401602060405180830381865afa158015611292573d6000803e3d6000fd5b505050506040513d601f19601f820116820180604052508101906112b69190612e13565b9050816001600160a01b031687600001516001600160a01b03161415806112f35750806001600160a01b031687602001516001600160a01b031614155b156114b8576040805160028082526060820183526000926020830190803683370190505090506113216110dd565b6001600160a01b031663f823f1e0846040518263ffffffff1660e01b815260040161134c9190612d94565b602060405180830381865afa158015611369573d6000803e3d6000fd5b505050506040513d601f19601f8201168201806040525081019061138d9190612e30565b816000815181106113a0576113a0612dfd565b6020026020010181815250506113b46110dd565b6001600160a01b031663f823f1e0836040518263ffffffff1660e01b81526004016113df9190612d94565b602060405180830381865afa1580156113fc573d6000803e3d6000fd5b505050506040513d601f19601f820116820180604052508101906114209190612e30565b8160018151811061143357611433612dfd565b602002602001018181525050600061144a826120c2565b90506040518060800160405280856001600160a01b03168152602001846001600160a01b031681526020018260008151811061148857611488612dfd565b60200260200101518152602001826001815181106114a8576114a8612dfd565b6020026020010151815250985050505b505082516020840151604051630157d2d160e31b815262ffffff909116600482015260009182916001600160a01b0390911690630abe9688906024016040805180830381865afa158015611510573d6000803e3d6000fd5b505050506040513d601f19601f820116820180604052508101906115349190612fb7565b86516020880151604051634c7cffbd60e01b815262ffffff90911660048201529294509092506115b9916001600160a01b0390911690634c7cffbd90602401602060405180830381865afa158015611590573d6000803e3d6000fd5b505050506040513d601f19601f820116820180604052508101906115b49190612e30565b612274565b9350806001600160801b0316670de0b6b3a7640000836001600160801b0316866115e39190612e49565b6115ed9190612e76565b6115f79190612dbe565b9250505060006116056110dd565b6001600160a01b0316636953c06c85600001516001600160a01b03166305e8746d6040518163ffffffff1660e01b8152600401602060405180830381865afa158015611655573d6000803e3d6000fd5b505050506040513d601f19601f820116820180604052508101906116799190612e13565b6040518263ffffffff1660e01b81526004016116959190612d94565b602060405180830381865afa1580156116b2573d6000803e3d6000fd5b505050506040513d601f19601f820116820180604052508101906116d69190612e30565b905060006116e26110dd565b6001600160a01b0316636953c06c86600001516001600160a01b031663da10610c6040518163ffffffff1660e01b8152600401602060405180830381865afa158015611732573d6000803e3d6000fd5b505050506040513d601f19601f820116820180604052508101906117569190612e13565b6040518263ffffffff1660e01b81526004016117729190612d94565b602060405180830381865afa15801561178f573d6000803e3d6000fd5b505050506040513d601f19601f820116820180604052508101906117b39190612e30565b8551602087015160405163bd85b03960e01b815262ffffff9091166004820152919250611c2791670de0b6b3a7640000916001600160a01b03169063bd85b03990602401602060405180830381865afa158015611814573d6000803e3d6000fd5b505050506040513d601f19601f820116820180604052508101906118389190612e30565b87516020890151604051627eeac760e11b815230600482015262ffffff9091166024820152611c20916001600160a01b03169062fdd58e90604401602060405180830381865afa158015611890573d6000803e3d6000fd5b505050506040513d601f19601f820116820180604052508101906118b49190612e30565b670de0b6b3a7640000611c2069d3c21bcecceda10000008b116119f7576305f5e1008e604001518d600001516001600160a01b03166305e8746d6040518163ffffffff1660e01b8152600401602060405180830381865afa15801561191d573d6000803e3d6000fd5b505050506040513d601f19601f820116820180604052508101906119419190612e13565b6001600160a01b031663313ce5676040518163ffffffff1660e01b8152600401602060405180830381865afa15801561197e573d6000803e3d6000fd5b505050506040513d601f19601f820116820180604052508101906119a29190612e8a565b6119ad90600a612f91565b8d6119b88e8e612e49565b6119c29190612e76565b6119d490670de0b6b3a7640000612e49565b6119de9190612e76565b6119e89190612e49565b6119f29190612e76565b611b17565b6305f5e1008e604001518d600001516001600160a01b03166305e8746d6040518163ffffffff1660e01b8152600401602060405180830381865afa158015611a43573d6000803e3d6000fd5b505050506040513d601f19601f82011682018060405250810190611a679190612e13565b6001600160a01b031663313ce5676040518163ffffffff1660e01b8152600401602060405180830381865afa158015611aa4573d6000803e3d6000fd5b505050506040513d601f19601f82011682018060405250810190611ac89190612e8a565b611ad390600a612f91565b611ae5670de0b6b3a76400008f612e76565b611aef8e8e612e49565b611af99190612e76565b611b039190612e76565b611b0d9190612e49565b611b179190612e76565b6305f5e1008f606001518e600001516001600160a01b031663da10610c6040518163ffffffff1660e01b8152600401602060405180830381865afa158015611b63573d6000803e3d6000fd5b505050506040513d601f19601f82011682018060405250810190611b879190612e13565b6001600160a01b031663313ce5676040518163ffffffff1660e01b8152600401602060405180830381865afa158015611bc4573d6000803e3d6000fd5b505050506040513d601f19601f82011682018060405250810190611be89190612e8a565b611bf390600a612f91565b611bfd8e8d612e49565b611c079190612e76565b611c119190612e49565b611c1b9190612e76565b61228a565b91906122a0565b611c31908a612dbe565b985050505050508080611c4390612de4565b9150506111ba565b50919392505050565b6000935050505090565b600080611c69610361565b90506000611c756110dd565b90506000611c81610d8f565b90506000805b8254811015611fd357828181548110611ca257611ca2612dfd565b906000526020600020906004020160010154858281518110611cc657611cc6612dfd565b60200260200101516000015114611cf057604051631132068d60e31b815260040160405180910390fd5b600080306001600160a01b0316858481548110611d0f57611d0f612dfd565b60009182526020918290206004918202016003015460408051928352602483018152928201805160e09290921b6001600160e01b0319166001600160e01b039092169190911790529051611d639190612fea565b600060405180830381855afa9150503d8060008114611d9e576040519150601f19603f3d011682016040523d82523d6000602084013e611da3565b606091505b50915091508115611fbe57600081806020019051810190611dc49190612e30565b90506000611dd06110dd565b6001600160a01b03166325eb876f8a8781518110611df057611df0612dfd565b6020908102919091010151516040516001600160e01b031960e084901b168152600481019190915260016024820152604401602060405180830381865afa158015611e3f573d6000803e3d6000fd5b505050506040513d601f19601f82011682018060405250810190611e639190612e13565b9050806001600160a01b031663313ce5676040518163ffffffff1660e01b8152600401602060405180830381865afa158015611ea3573d6000803e3d6000fd5b505050506040513d601f19601f82011682018060405250810190611ec79190612e8a565b611ed290600a612f91565b611ee0906305f5e100612e49565b886001600160a01b0316633f8ef5c8898881548110611f0157611f01612dfd565b9060005260206000209060040201600201546040518263ffffffff1660e01b8152600401611f3191815260200190565b602060405180830381865afa158015611f4e573d6000803e3d6000fd5b505050506040513d601f19601f82011682018060405250810190611f729190612e30565b838b8881518110611f8557611f85612dfd565b602002602001015160200151611f9b9190612e49565b611fa59190612e49565b611faf9190612e76565b611fb99087612dbe565b955050505b50508080611fcb90612de4565b915050611c87565b50949350505050565b6000610c59826122ca565b6000611ff56103e883612e76565b90508042101561203757603c61200b4283612dd1565b11156120335760405163b6b0916d60e01b81526004810182905242602482015260440161023b565b5050565b60b46120438242612dd1565b111561203357604051630321d0b560e01b81526004810182905242602482015260440161023b565b60008080808061207c604187612dbe565b9050600061209561208e602084612dbe565b3690612395565b8035945090506120a6816003612395565b62ffffff9490941697933563ffffffff16965092945050505050565b6060610c59826123a1565b606060006120d96110dd565b90506000816001600160a01b031663869c490d6040518163ffffffff1660e01b8152600401600060405180830381865afa15801561211b573d6000803e3d6000fd5b505050506040513d6000823e601f3d908101601f191682016040526121439190810190613006565b9050600061214f6110d3565b82519091506000816001600160401b0381111561216e5761216e612c26565b604051908082528060200260200182016040528015612197578160200160208202803683370190505b509050600083826000815181106121b0576121b0612dfd565b60200260200101818152505060005b855181101561223f57848682815181106121db576121db612dfd565b60200260200101511461222d578581815181106121fa576121fa612dfd565b6020026020010151838361220d90612de4565b9350838151811061222057612220612dfd565b6020026020010181815250505b8061223781612de4565b9150506121bf565b50909695505050505050565b6000807fec548c64bcf9d557a690fde0c6b4431edcdb8662fd4787104fa8658b4664cc61610c59565b6000610c5982670de0b6b3a76400006080612563565b60008183106122995781610d12565b5090919050565b60008060006122af86866125d1565b915091506122c086868685856125f0565b9695505050505050565b600081516000036122ee57604051639e198af960e01b815260040160405180910390fd5b6122f7826126a0565b6000600283516123079190612e76565b905060028351612317919061308b565b6000036123735760006123668461232f600185612dd1565b8151811061233f5761233f612dfd565b602002602001015185848151811061235957612359612dfd565b60200260200101516126ee565b9050610d87600282612e76565b82818151811061238557612385612dfd565b6020026020010151915050919050565b6000610d128284612dd1565b6060600082516001600160401b038111156123be576123be612c26565b6040519080825280602002602001820160405280156123e7578160200160208202803683370190505b509050600083516001600160401b0381111561240557612405612c26565b60405190808252806020026020018201604052801561242e578160200160208202803683370190505b509050600084516001600160401b0381111561244c5761244c612c26565b60405190808252806020026020018201604052801561247f57816020015b606081526020019060019003908161246a5790505b50905060005b85518110156124dd57604080516003808252608082019092529060208201606080368337019050508282815181106124bf576124bf612dfd565b602002602001018190525080806124d590612de4565b915050612485565b5060006124e8610c6b565b905060006124f582610d19565b61ffff169050612506600283612dbe565b60405190925060005b8281101561254c5760006125268a898989896126fa565b90506125328186612dbe565b94508260405250808061254490612de4565b91505061250f565b506125578487612993565b98975050505050505050565b600080600061257286866125d1565b9150915081600014612588578360ff1682901c92505b80156125c857600160ff85161b81106125b457604051638e471a8960e01b815260040160405180910390fd5b8360ff166101000361ffff1681901b830192505b50509392505050565b6000806000198385098385029250828110838203039150509250929050565b6000816000036126115783838161260957612609612e60565b049050612697565b838210612631576040516313eae71560e01b815260040160405180910390fd5b60008486880960018619810187169687900496600081900381900490910186831190950394850291909503949094049390931792505060026003840281188085028203028085028203028085028203028085028203028085028203028085029091030282025b95945050505050565b8051602082016020820281019150805b828110156126e857815b818110156126df5781518151808210156126d5578084528183525b50506020016126ba565b506020016126b0565b50505050565b6000610d128284612dbe565b6000806000806127098561206b565b909250905060008080606081600d61272c612725602089612dbe565b8990612aab565b6127369190612dbe565b9050600061274861208e60688d612dbe565b905060006127658361275b60418f612dbe565b61208e9190612dbe565b90506127718382612784565b93508260208501209450813596506127a8565b60408051838152602081850181019092526000910183838237601f19019392505050565b6127b98765ffffffffffff16610c5f565b6127cd856127c860418f612dbe565b612ab7565b95506127d886610142565b60ff1699505050505050505060008060005b84811015612960576127fd888583612b2f565b909350915060005b8c5181101561294d578c818151811061282057612820612dfd565b6020026020010151840361293b5760008b828151811061284257612842612dfd565b6020026020010151905061285b81896001901b16151590565b1580156128845750600360ff168d838151811061287a5761287a612dfd565b6020026020010151105b15612935578c828151811061289b5761289b612dfd565b6020026020010180518091906128b090612de4565b81525050838b83815181106128c7576128c7612dfd565b602002602001015160018f85815181106128e3576128e3612dfd565b60200260200101516128f59190612dd1565b8151811061290557612905612dfd565b60209081029190910101526001881b81178c838151811061292857612928612dfd565b6020026020010181815250505b5061294d565b8061294581612de4565b915050612805565b508061295881612de4565b9150506127ea565b505050816020826129719190612dbe565b61297b9190612e49565b61298690604e612dbe565b9998505050505050505050565b6060600083516001600160401b038111156129b0576129b0612c26565b6040519080825280602002602001820160405280156129d9578160200160208202803683370190505b509050600360005b8551811015612aa157818582815181106129fd576129fd612dfd565b60200260200101511015612a4a57848181518110612a1d57612a1d612dfd565b602002602001015182604051632b13aef560e01b815260040161023b929190918252602082015260400190565b6000612a6e878381518110612a6157612a61612dfd565b6020026020010151610c4e565b905080848381518110612a8357612a83612dfd565b60209081029190910101525080612a9981612de4565b9150506129e1565b5090949350505050565b6000610d128284612e49565b60408051600080825260208083018085528690523685900380850135831a948401859052803560608501819052910135608084018190529193909260019060a0016020604051602081039080840390855afa158015612b1a573d6000803e3d6000fd5b5050604051601f190151979650505050505050565b60008080612b3e604e87612dbe565b90506000612b6b612b64612b53602089612dbe565b612b5e886001612dbe565b90612aab565b83906126ee565b90506000612b793683612395565b80359960209091013598509650505050505050565b604080518082019091526000808252602082015290565b6001600160a01b0381168114610c6857600080fd5b600060208284031215612bcc57600080fd5b8135610d1281612ba5565b602080825282518282018190526000919060409081850190868401855b82811015612c1957815180518552860151868501529284019290850190600101612bf4565b5091979650505050505050565b634e487b7160e01b600052604160045260246000fd5b604051601f8201601f191681016001600160401b0381118282101715612c6457612c64612c26565b604052919050565b60006001600160401b03821115612c8557612c85612c26565b5060051b60200190565b60006020808385031215612ca257600080fd5b82356001600160401b03811115612cb857600080fd5b8301601f81018513612cc957600080fd5b8035612cdc612cd782612c6c565b612c3c565b81815260059190911b82018301908381019087831115612cfb57600080fd5b928401925b82841015612d1957833582529284019290840190612d00565b979650505050505050565b60005b83811015612d3f578181015183820152602001612d27565b50506000910152565b6020815260008251806020840152612d67816040850160208701612d24565b601f01601f19169190910160400192915050565b600060208284031215612d8d57600080fd5b5035919050565b6001600160a01b0391909116815260200190565b634e487b7160e01b600052601160045260246000fd5b80820180821115610c5957610c59612da8565b81810381811115610c5957610c59612da8565b600060018201612df657612df6612da8565b5060010190565b634e487b7160e01b600052603260045260246000fd5b600060208284031215612e2557600080fd5b8151610d1281612ba5565b600060208284031215612e4257600080fd5b5051919050565b8082028115828204841417610c5957610c59612da8565b634e487b7160e01b600052601260045260246000fd5b600082612e8557612e85612e60565b500490565b600060208284031215612e9c57600080fd5b815160ff81168114610d1257600080fd5b600181815b80851115612ee8578160001904821115612ece57612ece612da8565b80851615612edb57918102915b93841c9390800290612eb2565b509250929050565b600082612eff57506001610c59565b81612f0c57506000610c59565b8160018114612f225760028114612f2c57612f48565b6001915050610c59565b60ff841115612f3d57612f3d612da8565b50506001821b610c59565b5060208310610133831016604e8410600b8410161715612f6b575081810a610c59565b612f758383612ead565b8060001904821115612f8957612f89612da8565b029392505050565b6000610d1260ff841683612ef0565b80516001600160801b038116811461024457600080fd5b60008060408385031215612fca57600080fd5b612fd383612fa0565b9150612fe160208401612fa0565b90509250929050565b60008251612ffc818460208701612d24565b9190910192915050565b6000602080838503121561301957600080fd5b82516001600160401b0381111561302f57600080fd5b8301601f8101851361304057600080fd5b805161304e612cd782612c6c565b81815260059190911b8201830190838101908783111561306d57600080fd5b928401925b82841015612d1957835182529284019290840190613072565b60008261309a5761309a612e60565b50069056fea2646970667358221220c2832bbf1e9bf34428f9da2ecd2073bdc8117467e10c818a15ffaeaf32ce412564736f6c63430008110033",
  "devdoc": {
    "kind": "dev",
    "methods": {
      "aggregateValues(uint256[])": {
        "details": "This function may be overridden by the child consumer contract. It should aggregate values from different signers to a single uint value. By default, it calculates the median value",
        "params": {
          "values": "An array of uint256 values from different signers"
        },
        "returns": {
          "_0": "Result of the aggregation in the form of a single number"
        }
      },
      "getDataServiceId()": {
        "details": "This function must be implemented by the child consumer contract. It should return dataServiceId which DataServiceWrapper will use if not provided explicitly . If not overridden, value will always have to be provided explicitly in DataServiceWrapper.",
        "returns": {
          "_0": "dataServiceId being consumed by contract"
        }
      },
      "getHealthMeter()": {
        "details": "This function uses the redstone-evm-connector"
      },
      "getUniqueSignersThreshold()": {
        "details": "This function should be overridden by the child consumer contract.",
        "returns": {
          "_0": "The minimum required value of unique authorised signers"
        }
      },
      "validateTimestamp(uint256)": {
        "details": "This function may be overridden by the child consumer contract. It should validate the timestamp against the current time (block.timestamp) It should revert with a helpful message if the timestamp is not valid",
        "params": {
          "receivedTimestampMilliseconds": "Timestamp extracted from calldata"
        }
      }
    },
    "version": 1
  },
  "userdoc": {
    "kind": "user",
    "methods": {
      "getHealthMeter()": {
        "notice": "Returns current health meter (0% - 100%) associated with the loan"
      }
    },
    "version": 1
  },
  "storageLayout": {
    "storage": [],
    "types": null
  }
}