{
  "address": "0x540e7a7baB681Bd69bC4bf89Bd706F96F9D1dEF8",
  "abi": [
    {
      "inputs": [],
      "stateMutability": "nonpayable",
      "type": "constructor"
    },
    {
      "anonymous": false,
      "inputs": [
        {
          "indexed": true,
          "internalType": "address",
          "name": "owner",
          "type": "address"
        },
        {
          "indexed": true,
          "internalType": "address",
          "name": "approved",
          "type": "address"
        },
        {
          "indexed": true,
          "internalType": "uint256",
          "name": "tokenId",
          "type": "uint256"
        }
      ],
      "name": "Approval",
      "type": "event"
    },
    {
      "anonymous": false,
      "inputs": [
        {
          "indexed": true,
          "internalType": "address",
          "name": "owner",
          "type": "address"
        },
        {
          "indexed": true,
          "internalType": "address",
          "name": "operator",
          "type": "address"
        },
        {
          "indexed": false,
          "internalType": "bool",
          "name": "approved",
          "type": "bool"
        }
      ],
      "name": "ApprovalForAll",
      "type": "event"
    },
    {
      "anonymous": false,
      "inputs": [
        {
          "indexed": true,
          "internalType": "address",
          "name": "previousOwner",
          "type": "address"
        },
        {
          "indexed": true,
          "internalType": "address",
          "name": "newOwner",
          "type": "address"
        }
      ],
      "name": "OwnershipTransferred",
      "type": "event"
    },
    {
      "anonymous": false,
      "inputs": [
        {
          "indexed": true,
          "internalType": "address",
          "name": "from",
          "type": "address"
        },
        {
          "indexed": true,
          "internalType": "address",
          "name": "to",
          "type": "address"
        },
        {
          "indexed": true,
          "internalType": "uint256",
          "name": "tokenId",
          "type": "uint256"
        }
      ],
      "name": "Transfer",
      "type": "event"
    },
    {
      "inputs": [
        {
          "internalType": "address",
          "name": "to",
          "type": "address"
        },
        {
          "internalType": "uint256",
          "name": "tokenId",
          "type": "uint256"
        }
      ],
      "name": "approve",
      "outputs": [],
      "stateMutability": "nonpayable",
      "type": "function"
    },
    {
      "inputs": [
        {
          "internalType": "address",
          "name": "owner",
          "type": "address"
        }
      ],
      "name": "balanceOf",
      "outputs": [
        {
          "internalType": "uint256",
          "name": "",
          "type": "uint256"
        }
      ],
      "stateMutability": "view",
      "type": "function"
    },
    {
      "inputs": [
        {
          "internalType": "uint256",
          "name": "tokenId",
          "type": "uint256"
        }
      ],
      "name": "burn",
      "outputs": [],
      "stateMutability": "nonpayable",
      "type": "function"
    },
    {
      "inputs": [
        {
          "internalType": "address",
          "name": "from",
          "type": "address"
        },
        {
          "internalType": "address",
          "name": "to",
          "type": "address"
        },
        {
          "internalType": "uint256",
          "name": "tokenId",
          "type": "uint256"
        }
      ],
      "name": "forceTransfer",
      "outputs": [],
      "stateMutability": "nonpayable",
      "type": "function"
    },
    {
      "inputs": [
        {
          "internalType": "uint256",
          "name": "tokenId",
          "type": "uint256"
        }
      ],
      "name": "getApproved",
      "outputs": [
        {
          "internalType": "address",
          "name": "",
          "type": "address"
        }
      ],
      "stateMutability": "view",
      "type": "function"
    },
    {
      "inputs": [
        {
          "internalType": "uint256",
          "name": "centerId",
          "type": "uint256"
        }
      ],
      "name": "getDepositConfig",
      "outputs": [
        {
          "components": [
            {
              "internalType": "uint256[]",
              "name": "depositIds",
              "type": "uint256[]"
            },
            {
              "internalType": "bytes32[]",
              "name": "liquidityConfigs",
              "type": "bytes32[]"
            }
          ],
          "internalType": "struct IPositionManager.DepositConfig",
          "name": "",
          "type": "tuple"
        }
      ],
      "stateMutability": "view",
      "type": "function"
    },
    {
      "inputs": [
        {
          "internalType": "uint256",
          "name": "tokenId",
          "type": "uint256"
        }
      ],
      "name": "getDepositConfigFromTokenId",
      "outputs": [
        {
          "components": [
            {
              "internalType": "uint256[]",
              "name": "depositIds",
              "type": "uint256[]"
            },
            {
              "internalType": "bytes32[]",
              "name": "liquidityConfigs",
              "type": "bytes32[]"
            }
          ],
          "internalType": "struct IPositionManager.DepositConfig",
          "name": "",
          "type": "tuple"
        }
      ],
      "stateMutability": "view",
      "type": "function"
    },
    {
      "inputs": [
        {
          "internalType": "address",
          "name": "owner",
          "type": "address"
        },
        {
          "internalType": "address",
          "name": "operator",
          "type": "address"
        }
      ],
      "name": "isApprovedForAll",
      "outputs": [
        {
          "internalType": "bool",
          "name": "",
          "type": "bool"
        }
      ],
      "stateMutability": "view",
      "type": "function"
    },
    {
      "inputs": [
        {
          "components": [
            {
              "internalType": "address",
              "name": "recipient",
              "type": "address"
            },
            {
              "internalType": "uint256",
              "name": "totalShare",
              "type": "uint256"
            },
            {
              "internalType": "uint256",
              "name": "centerId",
              "type": "uint256"
            },
            {
              "internalType": "uint256[]",
              "name": "liquidityMinted",
              "type": "uint256[]"
            },
            {
              "internalType": "bytes32[]",
              "name": "liquidityConfigs",
              "type": "bytes32[]"
            },
            {
              "internalType": "uint256[]",
              "name": "depositIds",
              "type": "uint256[]"
            }
          ],
          "internalType": "struct IPositionManager.MintParams",
          "name": "params",
          "type": "tuple"
        }
      ],
      "name": "mint",
      "outputs": [
        {
          "internalType": "uint256",
          "name": "tokenId",
          "type": "uint256"
        }
      ],
      "stateMutability": "nonpayable",
      "type": "function"
    },
    {
      "inputs": [],
      "name": "name",
      "outputs": [
        {
          "internalType": "string",
          "name": "",
          "type": "string"
        }
      ],
      "stateMutability": "view",
      "type": "function"
    },
    {
      "inputs": [],
      "name": "owner",
      "outputs": [
        {
          "internalType": "address",
          "name": "",
          "type": "address"
        }
      ],
      "stateMutability": "view",
      "type": "function"
    },
    {
      "inputs": [
        {
          "internalType": "uint256",
          "name": "tokenId",
          "type": "uint256"
        }
      ],
      "name": "ownerOf",
      "outputs": [
        {
          "internalType": "address",
          "name": "",
          "type": "address"
        }
      ],
      "stateMutability": "view",
      "type": "function"
    },
    {
      "inputs": [
        {
          "internalType": "uint256",
          "name": "tokenId",
          "type": "uint256"
        }
      ],
      "name": "positions",
      "outputs": [
        {
          "internalType": "address",
          "name": "token0",
          "type": "address"
        },
        {
          "internalType": "address",
          "name": "token1",
          "type": "address"
        },
        {
          "internalType": "address",
          "name": "pairAddr",
          "type": "address"
        },
        {
          "internalType": "uint256",
          "name": "totalShare",
          "type": "uint256"
        },
        {
          "internalType": "uint256",
          "name": "centerId",
          "type": "uint256"
        },
        {
          "internalType": "uint256[]",
          "name": "liquidityMinted",
          "type": "uint256[]"
        }
      ],
      "stateMutability": "view",
      "type": "function"
    },
    {
      "inputs": [],
      "name": "renounceOwnership",
      "outputs": [],
      "stateMutability": "nonpayable",
      "type": "function"
    },
    {
      "inputs": [],
      "name": "sPrime",
      "outputs": [
        {
          "internalType": "address",
          "name": "",
          "type": "address"
        }
      ],
      "stateMutability": "view",
      "type": "function"
    },
    {
      "inputs": [
        {
          "internalType": "address",
          "name": "from",
          "type": "address"
        },
        {
          "internalType": "address",
          "name": "to",
          "type": "address"
        },
        {
          "internalType": "uint256",
          "name": "tokenId",
          "type": "uint256"
        }
      ],
      "name": "safeTransferFrom",
      "outputs": [],
      "stateMutability": "nonpayable",
      "type": "function"
    },
    {
      "inputs": [
        {
          "internalType": "address",
          "name": "from",
          "type": "address"
        },
        {
          "internalType": "address",
          "name": "to",
          "type": "address"
        },
        {
          "internalType": "uint256",
          "name": "tokenId",
          "type": "uint256"
        },
        {
          "internalType": "bytes",
          "name": "data",
          "type": "bytes"
        }
      ],
      "name": "safeTransferFrom",
      "outputs": [],
      "stateMutability": "nonpayable",
      "type": "function"
    },
    {
      "inputs": [
        {
          "internalType": "address",
          "name": "operator",
          "type": "address"
        },
        {
          "internalType": "bool",
          "name": "approved",
          "type": "bool"
        }
      ],
      "name": "setApprovalForAll",
      "outputs": [],
      "stateMutability": "nonpayable",
      "type": "function"
    },
    {
      "inputs": [
        {
          "internalType": "address",
          "name": "sPrime_",
          "type": "address"
        }
      ],
      "name": "setSPrime",
      "outputs": [],
      "stateMutability": "nonpayable",
      "type": "function"
    },
    {
      "inputs": [
        {
          "internalType": "bytes4",
          "name": "interfaceId",
          "type": "bytes4"
        }
      ],
      "name": "supportsInterface",
      "outputs": [
        {
          "internalType": "bool",
          "name": "",
          "type": "bool"
        }
      ],
      "stateMutability": "view",
      "type": "function"
    },
    {
      "inputs": [],
      "name": "symbol",
      "outputs": [
        {
          "internalType": "string",
          "name": "",
          "type": "string"
        }
      ],
      "stateMutability": "view",
      "type": "function"
    },
    {
      "inputs": [
        {
          "internalType": "uint256",
          "name": "index",
          "type": "uint256"
        }
      ],
      "name": "tokenByIndex",
      "outputs": [
        {
          "internalType": "uint256",
          "name": "",
          "type": "uint256"
        }
      ],
      "stateMutability": "view",
      "type": "function"
    },
    {
      "inputs": [
        {
          "internalType": "address",
          "name": "owner",
          "type": "address"
        },
        {
          "internalType": "uint256",
          "name": "index",
          "type": "uint256"
        }
      ],
      "name": "tokenOfOwnerByIndex",
      "outputs": [
        {
          "internalType": "uint256",
          "name": "",
          "type": "uint256"
        }
      ],
      "stateMutability": "view",
      "type": "function"
    },
    {
      "inputs": [
        {
          "internalType": "uint256",
          "name": "tokenId",
          "type": "uint256"
        }
      ],
      "name": "tokenURI",
      "outputs": [
        {
          "internalType": "string",
          "name": "",
          "type": "string"
        }
      ],
      "stateMutability": "view",
      "type": "function"
    },
    {
      "inputs": [],
      "name": "totalSupply",
      "outputs": [
        {
          "internalType": "uint256",
          "name": "",
          "type": "uint256"
        }
      ],
      "stateMutability": "view",
      "type": "function"
    },
    {
      "inputs": [
        {
          "internalType": "address",
          "name": "from",
          "type": "address"
        },
        {
          "internalType": "address",
          "name": "to",
          "type": "address"
        },
        {
          "internalType": "uint256",
          "name": "tokenId",
          "type": "uint256"
        }
      ],
      "name": "transferFrom",
      "outputs": [],
      "stateMutability": "nonpayable",
      "type": "function"
    },
    {
      "inputs": [
        {
          "internalType": "address",
          "name": "newOwner",
          "type": "address"
        }
      ],
      "name": "transferOwnership",
      "outputs": [],
      "stateMutability": "nonpayable",
      "type": "function"
    },
    {
      "inputs": [
        {
          "components": [
            {
              "internalType": "uint256",
              "name": "tokenId",
              "type": "uint256"
            },
            {
              "internalType": "uint256",
              "name": "share",
              "type": "uint256"
            },
            {
              "internalType": "uint256[]",
              "name": "liquidityAmounts",
              "type": "uint256[]"
            },
            {
              "internalType": "bool",
              "name": "isAdd",
              "type": "bool"
            }
          ],
          "internalType": "struct IPositionManager.UpdateParams",
          "name": "params",
          "type": "tuple"
        }
      ],
      "name": "update",
      "outputs": [],
      "stateMutability": "nonpayable",
      "type": "function"
    }
  ],
  "transactionHash": "0xff5590934b5d00199bde4d267472b88365d2318788c765d67cf47e97e5657d1e",
  "args": [],
  "numDeployments": 1,
  "solcInputHash": "01fe686261569f821de8b085ae2c141c",
  "bytecode": "0x6080604052600d80546001600160b01b03191660011790553480156200002457600080fd5b506040518060400160405280601381526020017f535072696d6520506f736974696f6e204e4654000000000000000000000000008152506040518060400160405280600a815260200169535052494d452d504f5360b01b81525081600090816200008f9190620001bc565b5060016200009e8282620001bc565b505050620000bb620000b5620000c160201b60201c565b620000c5565b62000288565b3390565b600a80546001600160a01b038381166001600160a01b0319831681179093556040519116919082907f8be0079c531659141344cd1fd0a4f28419497f9722a3daafe3b4186f6b6457e090600090a35050565b634e487b7160e01b600052604160045260246000fd5b600181811c908216806200014257607f821691505b6020821081036200016357634e487b7160e01b600052602260045260246000fd5b50919050565b601f821115620001b757600081815260208120601f850160051c81016020861015620001925750805b601f850160051c820191505b81811015620001b3578281556001016200019e565b5050505b505050565b81516001600160401b03811115620001d857620001d862000117565b620001f081620001e984546200012d565b8462000169565b602080601f8311600181146200022857600084156200020f5750858301515b600019600386901b1c1916600185901b178555620001b3565b600085815260208120601f198616915b82811015620002595788860151825594840194600190910190840162000238565b5085821015620002785787850151600019600388901b60f8161c191681555b5050505050600190811b01905550565b61235d80620002986000396000f3fe608060405234801561001057600080fd5b50600436106101545760003560e01c806301ffc9a71461015957806306fdde0314610181578063081812fc14610196578063095ea7b3146101c157806312431a63146101d6578063124f70a9146101f657806318160ddd1461021757806323b872dd1461021f5780632f745c591461023257806333bebb771461024557806342842e0e1461025857806342966c681461026b5780634f6ccce71461027e5780635d75169e146102915780636352211e146102a457806370a08231146102b7578063715018a6146102ca5780638da5cb5b146102d257806395d89b41146102da57806397e71374146102e257806399fbab88146102f5578063a22cb4651461031a578063b88d4fde1461032d578063b91e526f14610340578063c87b56dd14610353578063e985e9c514610366578063f2fde38b14610379578063face292d1461038c575b600080fd5b61016c610167366004611b76565b61039f565b60405190151581526020015b60405180910390f35b6101896103ca565b6040516101789190611be0565b6101a96101a4366004611bf3565b61045c565b6040516001600160a01b039091168152602001610178565b6101d46101cf366004611c21565b610483565b005b6101e96101e4366004611bf3565b61059d565b6040516101789190611c4d565b610209610204366004611ce2565b61067b565b604051908152602001610178565b600854610209565b6101d461022d366004611d1c565b6107fc565b610209610240366004611c21565b61082d565b6101d4610253366004611d1c565b6108c3565b6101d4610266366004611d1c565b6108ed565b6101d4610279366004611bf3565b610908565b61020961028c366004611bf3565b610966565b600e546101a9906001600160a01b031681565b6101a96102b2366004611bf3565b6109f9565b6102096102c5366004611d5d565b610a2d565b6101d4610ab3565b6101a9610ac7565b610189610ad6565b6101d46102f0366004611d7a565b610ae5565b610308610303366004611bf3565b610c7a565b60405161017896959493929190611db4565b6101d4610328366004611e42565b610ea4565b6101d461033b366004611e8d565b610eaf565b6101e961034e366004611bf3565b610ee7565b610189610361366004611bf3565b610fb5565b61016c610374366004611f6c565b610fdd565b6101d4610387366004611d5d565b61100b565b6101d461039a366004611d5d565b611081565b60006001600160e01b0319821663780e9d6360e01b14806103c457506103c4826110ab565b92915050565b6060600080546103d990611fa5565b80601f016020809104026020016040519081016040528092919081815260200182805461040590611fa5565b80156104525780601f1061042757610100808354040283529160200191610452565b820191906000526020600020905b81548152906001019060200180831161043557829003601f168201915b5050505050905090565b6000610467826110fb565b506000908152600460205260409020546001600160a01b031690565b600061048e826109f9565b9050806001600160a01b0316836001600160a01b0316036105005760405162461bcd60e51b815260206004820152602160248201527f4552433732313a20617070726f76616c20746f2063757272656e74206f776e656044820152603960f91b60648201526084015b60405180910390fd5b336001600160a01b038216148061051c575061051c8133610fdd565b61058e5760405162461bcd60e51b815260206004820152603d60248201527f4552433732313a20617070726f76652063616c6c6572206973206e6f7420746f60448201527f6b656e206f776e6572206f7220617070726f76656420666f7220616c6c00000060648201526084016104f7565b6105988383611120565b505050565b6105a5611a91565b6000828152600b6020908152604080832060010154808452600c83529281902081518154606094810282018501845292810183815290939192849284919084018282801561061257602002820191906000526020600020905b8154815260200190600101908083116105fe575b505050505081526020016001820180548060200260200160405190810160405280929190818152602001828054801561066a57602002820191906000526020600020905b815481526020019060010190808311610656575b505050505081525050915050919050565b600e546000906001600160a01b031633146106a85760405162461bcd60e51b81526004016104f790611fd9565b6107066106b86020840184611d5d565b600d80546001600160b01b03169060006106d183612013565b91906101000a8154816001600160b01b0302191690836001600160b01b031602179055506001600160b01b031692508261118e565b604051806060016040528083602001358152602001836040013581526020018380606001906107359190612041565b808060200260200160405190810160405280939291908181526020018383602002808284376000920182905250939094525050838152600b6020908152604091829020845181558482015160018201559184015180519293506107a19260028501929190910190611aab565b5050506040808301356000908152600c60205290812080549091036107f6576107cd60a0840184612041565b6107d8918391611af6565b506107e66080840184612041565b6107f4916001840191611af6565b505b50919050565b6108063382611297565b6108225760405162461bcd60e51b81526004016104f790612091565b6105988383836112f6565b600061083883610a2d565b821061089a5760405162461bcd60e51b815260206004820152602b60248201527f455243373231456e756d657261626c653a206f776e657220696e646578206f7560448201526a74206f6620626f756e647360a81b60648201526084016104f7565b506001600160a01b03919091166000908152600660209081526040808320938352929052205490565b600e546001600160a01b031633146108225760405162461bcd60e51b81526004016104f7906120de565b61059883838360405180602001604052806000815250610eaf565b600e546001600160a01b031633146109325760405162461bcd60e51b81526004016104f7906120de565b6000818152600b6020526040812081815560018101829055906109586002830182611b31565b505061096381611455565b50565b600061097160085490565b82106109d45760405162461bcd60e51b815260206004820152602c60248201527f455243373231456e756d657261626c653a20676c6f62616c20696e646578206f60448201526b7574206f6620626f756e647360a01b60648201526084016104f7565b600882815481106109e7576109e761210b565b90600052602060002001549050919050565b600080610a05836114e6565b90506001600160a01b0381166103c45760405162461bcd60e51b81526004016104f790612121565b60006001600160a01b038216610a975760405162461bcd60e51b815260206004820152602960248201527f4552433732313a2061646472657373207a65726f206973206e6f7420612076616044820152683634b21037bbb732b960b91b60648201526084016104f7565b506001600160a01b031660009081526003602052604090205490565b610abb611501565b610ac56000611560565b565b600a546001600160a01b031690565b6060600180546103d990611fa5565b600e546001600160a01b03163314610b0f5760405162461bcd60e51b81526004016104f790611fd9565b80356000908152600b60205260409020610b2f6080830160608401612153565b15610bd5578160200135816000016000828254610b4c919061216e565b90915550600090505b610b626040840184612041565b905081101561059857610b786040840184612041565b82818110610b8857610b8861210b565b90506020020135826002018281548110610ba457610ba461210b565b906000526020600020016000828254610bbd919061216e565b90915550819050610bcd81612181565b915050610b55565b8160200135816000016000828254610bed919061219a565b90915550600090505b610c036040840184612041565b905081101561059857610c196040840184612041565b82818110610c2957610c2961210b565b90506020020135826002018281548110610c4557610c4561210b565b906000526020600020016000828254610c5e919061219a565b90915550819050610c6e81612181565b915050610bf6565b5050565b600080600080600060606000600b6000898152602001908152602001600020604051806060016040529081600082015481526020016001820154815260200160028201805480602002602001604051908101604052809291908181526020018280548015610d0757602002820191906000526020600020905b815481526020019060010190808311610cf3575b50505050508152505090506000600e60009054906101000a90046001600160a01b03166001600160a01b0316635f9c01b16040518163ffffffff1660e01b8152600401602060405180830381865afa158015610d67573d6000803e3d6000fd5b505050506040513d601f19601f82011682018060405250810190610d8b91906121ad565b90506000600e60009054906101000a90046001600160a01b03166001600160a01b03166305e8746d6040518163ffffffff1660e01b8152600401602060405180830381865afa158015610de2573d6000803e3d6000fd5b505050506040513d601f19601f82011682018060405250810190610e0691906121ad565b90506000600e60009054906101000a90046001600160a01b03166001600160a01b031663da10610c6040518163ffffffff1660e01b8152600401602060405180830381865afa158015610e5d573d6000803e3d6000fd5b505050506040513d601f19601f82011682018060405250810190610e8191906121ad565b84516020860151604090960151939d919c50939a50929850929650945092505050565b610c763383836115b2565b610eb93383611297565b610ed55760405162461bcd60e51b81526004016104f790612091565b610ee18484848461167c565b50505050565b610eef611a91565b6000828152600c60209081526040918290208251815460609381028201840185529381018481529093919284928491840182828015610f4d57602002820191906000526020600020905b815481526020019060010190808311610f39575b5050505050815260200160018201805480602002602001604051908101604052809291908181526020018280548015610fa557602002820191906000526020600020905b815481526020019060010190808311610f91575b5050505050815250509050919050565b6060610fc0826116af565b610fc957600080fd5b505060408051602081019091526000815290565b6001600160a01b03918216600090815260056020908152604080832093909416825291909152205460ff1690565b611013611501565b6001600160a01b0381166110785760405162461bcd60e51b815260206004820152602660248201527f4f776e61626c653a206e6577206f776e657220697320746865207a65726f206160448201526564647265737360d01b60648201526084016104f7565b61096381611560565b611089611501565b600e80546001600160a01b0319166001600160a01b0392909216919091179055565b60006001600160e01b031982166380ac58cd60e01b14806110dc57506001600160e01b03198216635b5e139f60e01b145b806103c457506301ffc9a760e01b6001600160e01b03198316146103c4565b611104816116af565b6109635760405162461bcd60e51b81526004016104f790612121565b600081815260046020526040902080546001600160a01b0319166001600160a01b0384169081179091558190611155826109f9565b6001600160a01b03167f8c5be1e5ebec7d5bd14f71427d1e84f3dd0314c0f7b2291e5b200ac8c7c3b92560405160405180910390a45050565b6001600160a01b0382166111e45760405162461bcd60e51b815260206004820181905260248201527f4552433732313a206d696e7420746f20746865207a65726f206164647265737360448201526064016104f7565b6111ed816116af565b1561120a5760405162461bcd60e51b81526004016104f7906121ca565b6112186000838360016116cc565b611221816116af565b1561123e5760405162461bcd60e51b81526004016104f7906121ca565b6001600160a01b038216600081815260036020908152604080832080546001019055848352600290915280822080546001600160a01b031916841790555183929190600080516020612308833981519152908290a45050565b6000806112a3836109f9565b9050806001600160a01b0316846001600160a01b031614806112ca57506112ca8185610fdd565b806112ee5750836001600160a01b03166112e38461045c565b6001600160a01b0316145b949350505050565b826001600160a01b0316611309826109f9565b6001600160a01b03161461132f5760405162461bcd60e51b81526004016104f790612200565b6001600160a01b0382166113915760405162461bcd60e51b8152602060048201526024808201527f4552433732313a207472616e7366657220746f20746865207a65726f206164646044820152637265737360e01b60648201526084016104f7565b61139e83838360016116cc565b826001600160a01b03166113b1826109f9565b6001600160a01b0316146113d75760405162461bcd60e51b81526004016104f790612200565b600081815260046020908152604080832080546001600160a01b03199081169091556001600160a01b03878116808652600385528386208054600019019055908716808652838620805460010190558686526002909452828520805490921684179091559051849360008051602061230883398151915291a4505050565b6000611460826109f9565b90506114708160008460016116cc565b611479826109f9565b600083815260046020908152604080832080546001600160a01b03199081169091556001600160a01b038516808552600384528285208054600019019055878552600290935281842080549091169055519293508492600080516020612308833981519152908390a45050565b6000908152600260205260409020546001600160a01b031690565b3361150a610ac7565b6001600160a01b031614610ac55760405162461bcd60e51b815260206004820181905260248201527f4f776e61626c653a2063616c6c6572206973206e6f7420746865206f776e657260448201526064016104f7565b600a80546001600160a01b038381166001600160a01b0319831681179093556040519116919082907f8be0079c531659141344cd1fd0a4f28419497f9722a3daafe3b4186f6b6457e090600090a35050565b816001600160a01b0316836001600160a01b03160361160f5760405162461bcd60e51b815260206004820152601960248201527822a9219b99189d1030b8383937bb32903a379031b0b63632b960391b60448201526064016104f7565b6001600160a01b03838116600081815260056020908152604080832094871680845294825291829020805460ff191686151590811790915591519182527f17307eab39ab6107e8899845ad3d59bd9653f200f220920489ca2b5937696c31910160405180910390a3505050565b6116878484846112f6565b61169384848484611800565b610ee15760405162461bcd60e51b81526004016104f790612245565b6000806116bb836114e6565b6001600160a01b0316141592915050565b600181111561173b5760405162461bcd60e51b815260206004820152603560248201527f455243373231456e756d657261626c653a20636f6e7365637574697665207472604482015274185b9cd9995c9cc81b9bdd081cdd5c1c1bdc9d1959605a1b60648201526084016104f7565b816001600160a01b0385166117975761179281600880546000838152600960205260408120829055600182018355919091527ff3f7a9fe364faab93b216da50a3214154f22a0a2b415b23a84c8169e8b636ee30155565b6117ba565b836001600160a01b0316856001600160a01b0316146117ba576117ba8582611901565b6001600160a01b0384166117d6576117d18161199e565b6117f9565b846001600160a01b0316846001600160a01b0316146117f9576117f98482611a4d565b5050505050565b60006001600160a01b0384163b156118f657604051630a85bd0160e11b81526001600160a01b0385169063150b7a0290611844903390899088908890600401612297565b6020604051808303816000875af192505050801561187f575060408051601f3d908101601f1916820190925261187c918101906122d4565b60015b6118dc573d8080156118ad576040519150601f19603f3d011682016040523d82523d6000602084013e6118b2565b606091505b5080516000036118d45760405162461bcd60e51b81526004016104f790612245565b805181602001fd5b6001600160e01b031916630a85bd0160e11b1490506112ee565b506001949350505050565b6000600161190e84610a2d565b611918919061219a565b60008381526007602052604090205490915080821461196b576001600160a01b03841660009081526006602090815260408083208584528252808320548484528184208190558352600790915290208190555b5060009182526007602090815260408084208490556001600160a01b039094168352600681528383209183525290812055565b6008546000906119b09060019061219a565b600083815260096020526040812054600880549394509092849081106119d8576119d861210b565b9060005260206000200154905080600883815481106119f9576119f961210b565b6000918252602080832090910192909255828152600990915260408082208490558582528120556008805480611a3157611a316122f1565b6001900381819060005260206000200160009055905550505050565b6000611a5883610a2d565b6001600160a01b039093166000908152600660209081526040808320868452825280832085905593825260079052919091209190915550565b604051806040016040528060608152602001606081525090565b828054828255906000526020600020908101928215611ae6579160200282015b82811115611ae6578251825591602001919060010190611acb565b50611af2929150611b4b565b5090565b828054828255906000526020600020908101928215611ae6579160200282015b82811115611ae6578235825591602001919060010190611b16565b508054600082559060005260206000209081019061096391905b5b80821115611af25760008155600101611b4c565b6001600160e01b03198116811461096357600080fd5b600060208284031215611b8857600080fd5b8135611b9381611b60565b9392505050565b6000815180845260005b81811015611bc057602081850181015186830182015201611ba4565b506000602082860101526020601f19601f83011685010191505092915050565b602081526000611b936020830184611b9a565b600060208284031215611c0557600080fd5b5035919050565b6001600160a01b038116811461096357600080fd5b60008060408385031215611c3457600080fd5b8235611c3f81611c0c565b946020939093013593505050565b6020808252825160408383015280516060840181905260009291820190839060808601905b80831015611c925783518252928401926001929092019190840190611c72565b5086840151868203601f190160408801528051808352908501935090840191506000905b80821015611cd65783518352928401929184019160019190910190611cb6565b50909695505050505050565b600060208284031215611cf457600080fd5b81356001600160401b03811115611d0a57600080fd5b820160c08185031215611b9357600080fd5b600080600060608486031215611d3157600080fd5b8335611d3c81611c0c565b92506020840135611d4c81611c0c565b929592945050506040919091013590565b600060208284031215611d6f57600080fd5b8135611b9381611c0c565b600060208284031215611d8c57600080fd5b81356001600160401b03811115611da257600080fd5b820160808185031215611b9357600080fd5b600060c0820160018060a01b03808a1684526020818a1681860152818916604086015287606086015286608086015260c060a0860152829150855180845260e086019250818701935060005b81811015611e1c57845184529382019392820192600101611e00565b50919b9a5050505050505050505050565b80358015158114611e3d57600080fd5b919050565b60008060408385031215611e5557600080fd5b8235611e6081611c0c565b9150611e6e60208401611e2d565b90509250929050565b634e487b7160e01b600052604160045260246000fd5b60008060008060808587031215611ea357600080fd5b8435611eae81611c0c565b93506020850135611ebe81611c0c565b92506040850135915060608501356001600160401b0380821115611ee157600080fd5b818701915087601f830112611ef557600080fd5b813581811115611f0757611f07611e77565b604051601f8201601f19908116603f01168101908382118183101715611f2f57611f2f611e77565b816040528281528a6020848701011115611f4857600080fd5b82602086016020830137600060208483010152809550505050505092959194509250565b60008060408385031215611f7f57600080fd5b8235611f8a81611c0c565b91506020830135611f9a81611c0c565b809150509250929050565b600181811c90821680611fb957607f821691505b6020821081036107f657634e487b7160e01b600052602260045260246000fd5b6020808252600a90820152694e6f7420735072696d6560b01b604082015260600190565b634e487b7160e01b600052601160045260246000fd5b60006001600160b01b038281166002600160b01b0319810161203757612037611ffd565b6001019392505050565b6000808335601e1984360301811261205857600080fd5b8301803591506001600160401b0382111561207257600080fd5b6020019150600581901b360382131561208a57600080fd5b9250929050565b6020808252602d908201527f4552433732313a2063616c6c6572206973206e6f7420746f6b656e206f776e6560408201526c1c881bdc88185c1c1c9bdd9959609a1b606082015260800190565b6020808252601390820152724f6e6c7920616c6c6f77656420535072696d6560681b604082015260600190565b634e487b7160e01b600052603260045260246000fd5b602080825260189082015277115490cdcc8c4e881a5b9d985b1a59081d1bdad95b88125160421b604082015260600190565b60006020828403121561216557600080fd5b611b9382611e2d565b808201808211156103c4576103c4611ffd565b60006001820161219357612193611ffd565b5060010190565b818103818111156103c4576103c4611ffd565b6000602082840312156121bf57600080fd5b8151611b9381611c0c565b6020808252601c908201527b115490cdcc8c4e881d1bdad95b88185b1c9958591e481b5a5b9d195960221b604082015260600190565b60208082526025908201527f4552433732313a207472616e736665722066726f6d20696e636f72726563742060408201526437bbb732b960d91b606082015260800190565b60208082526032908201527f4552433732313a207472616e7366657220746f206e6f6e20455243373231526560408201527131b2b4bb32b91034b6b83632b6b2b73a32b960711b606082015260800190565b6001600160a01b03858116825284166020820152604081018390526080606082018190526000906122ca90830184611b9a565b9695505050505050565b6000602082840312156122e657600080fd5b8151611b9381611b60565b634e487b7160e01b600052603160045260246000fdfeddf252ad1be2c89b69c2b068fc378daa952ba7f163c4a11628f55a4df523b3efa26469706673582212204c68ca87de622e8a2e54701f532b832666ea7bfcd497ac571259f06077c23d7f64736f6c63430008110033",
  "devdoc": {
    "kind": "dev",
    "methods": {
      "approve(address,uint256)": {
        "details": "See {IERC721-approve}."
      },
      "balanceOf(address)": {
        "details": "See {IERC721-balanceOf}."
      },
      "getApproved(uint256)": {
        "details": "See {IERC721-getApproved}."
      },
      "isApprovedForAll(address,address)": {
        "details": "See {IERC721-isApprovedForAll}."
      },
      "name()": {
        "details": "See {IERC721Metadata-name}."
      },
      "owner()": {
        "details": "Returns the address of the current owner."
      },
      "ownerOf(uint256)": {
        "details": "See {IERC721-ownerOf}."
      },
      "renounceOwnership()": {
        "details": "Leaves the contract without owner. It will not be possible to call `onlyOwner` functions. Can only be called by the current owner. NOTE: Renouncing ownership will leave the contract without an owner, thereby disabling any functionality that is only available to the owner."
      },
      "safeTransferFrom(address,address,uint256)": {
        "details": "See {IERC721-safeTransferFrom}."
      },
      "safeTransferFrom(address,address,uint256,bytes)": {
        "details": "See {IERC721-safeTransferFrom}."
      },
      "setApprovalForAll(address,bool)": {
        "details": "See {IERC721-setApprovalForAll}."
      },
      "supportsInterface(bytes4)": {
        "details": "See {IERC165-supportsInterface}."
      },
      "symbol()": {
        "details": "See {IERC721Metadata-symbol}."
      },
      "tokenByIndex(uint256)": {
        "details": "See {IERC721Enumerable-tokenByIndex}."
      },
      "tokenOfOwnerByIndex(address,uint256)": {
        "details": "See {IERC721Enumerable-tokenOfOwnerByIndex}."
      },
      "tokenURI(uint256)": {
        "details": "See {IERC721Metadata-tokenURI}."
      },
      "totalSupply()": {
        "details": "See {IERC721Enumerable-totalSupply}."
      },
      "transferFrom(address,address,uint256)": {
        "details": "See {IERC721-transferFrom}."
      },
      "transferOwnership(address)": {
        "details": "Transfers ownership of the contract to a new account (`newOwner`). Can only be called by the current owner."
      }
    },
    "title": "NFT positions",
    "version": 1
  },
  "userdoc": {
    "kind": "user",
    "methods": {},
    "version": 1
  },
  "storageLayout": {
    "storage": [
      {
        "astId": 216,
        "contract": "contracts/token/NonfungibleNFT/PositionManager.sol:PositionManager",
        "label": "_name",
        "offset": 0,
        "slot": "0",
        "type": "t_string_storage"
      },
      {
        "astId": 218,
        "contract": "contracts/token/NonfungibleNFT/PositionManager.sol:PositionManager",
        "label": "_symbol",
        "offset": 0,
        "slot": "1",
        "type": "t_string_storage"
      },
      {
        "astId": 222,
        "contract": "contracts/token/NonfungibleNFT/PositionManager.sol:PositionManager",
        "label": "_owners",
        "offset": 0,
        "slot": "2",
        "type": "t_mapping(t_uint256,t_address)"
      },
      {
        "astId": 226,
        "contract": "contracts/token/NonfungibleNFT/PositionManager.sol:PositionManager",
        "label": "_balances",
        "offset": 0,
        "slot": "3",
        "type": "t_mapping(t_address,t_uint256)"
      },
      {
        "astId": 230,
        "contract": "contracts/token/NonfungibleNFT/PositionManager.sol:PositionManager",
        "label": "_tokenApprovals",
        "offset": 0,
        "slot": "4",
        "type": "t_mapping(t_uint256,t_address)"
      },
      {
        "astId": 236,
        "contract": "contracts/token/NonfungibleNFT/PositionManager.sol:PositionManager",
        "label": "_operatorApprovals",
        "offset": 0,
        "slot": "5",
        "type": "t_mapping(t_address,t_mapping(t_address,t_bool))"
      },
      {
        "astId": 1266,
        "contract": "contracts/token/NonfungibleNFT/PositionManager.sol:PositionManager",
        "label": "_ownedTokens",
        "offset": 0,
        "slot": "6",
        "type": "t_mapping(t_address,t_mapping(t_uint256,t_uint256))"
      },
      {
        "astId": 1270,
        "contract": "contracts/token/NonfungibleNFT/PositionManager.sol:PositionManager",
        "label": "_ownedTokensIndex",
        "offset": 0,
        "slot": "7",
        "type": "t_mapping(t_uint256,t_uint256)"
      },
      {
        "astId": 1273,
        "contract": "contracts/token/NonfungibleNFT/PositionManager.sol:PositionManager",
        "label": "_allTokens",
        "offset": 0,
        "slot": "8",
        "type": "t_array(t_uint256)dyn_storage"
      },
      {
        "astId": 1277,
        "contract": "contracts/token/NonfungibleNFT/PositionManager.sol:PositionManager",
        "label": "_allTokensIndex",
        "offset": 0,
        "slot": "9",
        "type": "t_mapping(t_uint256,t_uint256)"
      },
      {
        "astId": 7,
        "contract": "contracts/token/NonfungibleNFT/PositionManager.sol:PositionManager",
        "label": "_owner",
        "offset": 0,
        "slot": "10",
        "type": "t_address"
      },
      {
        "astId": 6431,
        "contract": "contracts/token/NonfungibleNFT/PositionManager.sol:PositionManager",
        "label": "_positions",
        "offset": 0,
        "slot": "11",
        "type": "t_mapping(t_uint256,t_struct(Position)3264_storage)"
      },
      {
        "astId": 6436,
        "contract": "contracts/token/NonfungibleNFT/PositionManager.sol:PositionManager",
        "label": "_binInfo",
        "offset": 0,
        "slot": "12",
        "type": "t_mapping(t_uint256,t_struct(DepositConfig)3271_storage)"
      },
      {
        "astId": 6439,
        "contract": "contracts/token/NonfungibleNFT/PositionManager.sol:PositionManager",
        "label": "_nextId",
        "offset": 0,
        "slot": "13",
        "type": "t_uint176"
      },
      {
        "astId": 6441,
        "contract": "contracts/token/NonfungibleNFT/PositionManager.sol:PositionManager",
        "label": "sPrime",
        "offset": 0,
        "slot": "14",
        "type": "t_address"
      }
    ],
    "types": {
      "t_address": {
        "encoding": "inplace",
        "label": "address",
        "numberOfBytes": "20"
      },
      "t_array(t_bytes32)dyn_storage": {
        "base": "t_bytes32",
        "encoding": "dynamic_array",
        "label": "bytes32[]",
        "numberOfBytes": "32"
      },
      "t_array(t_uint256)dyn_storage": {
        "base": "t_uint256",
        "encoding": "dynamic_array",
        "label": "uint256[]",
        "numberOfBytes": "32"
      },
      "t_bool": {
        "encoding": "inplace",
        "label": "bool",
        "numberOfBytes": "1"
      },
      "t_bytes32": {
        "encoding": "inplace",
        "label": "bytes32",
        "numberOfBytes": "32"
      },
      "t_mapping(t_address,t_bool)": {
        "encoding": "mapping",
        "key": "t_address",
        "label": "mapping(address => bool)",
        "numberOfBytes": "32",
        "value": "t_bool"
      },
      "t_mapping(t_address,t_mapping(t_address,t_bool))": {
        "encoding": "mapping",
        "key": "t_address",
        "label": "mapping(address => mapping(address => bool))",
        "numberOfBytes": "32",
        "value": "t_mapping(t_address,t_bool)"
      },
      "t_mapping(t_address,t_mapping(t_uint256,t_uint256))": {
        "encoding": "mapping",
        "key": "t_address",
        "label": "mapping(address => mapping(uint256 => uint256))",
        "numberOfBytes": "32",
        "value": "t_mapping(t_uint256,t_uint256)"
      },
      "t_mapping(t_address,t_uint256)": {
        "encoding": "mapping",
        "key": "t_address",
        "label": "mapping(address => uint256)",
        "numberOfBytes": "32",
        "value": "t_uint256"
      },
      "t_mapping(t_uint256,t_address)": {
        "encoding": "mapping",
        "key": "t_uint256",
        "label": "mapping(uint256 => address)",
        "numberOfBytes": "32",
        "value": "t_address"
      },
      "t_mapping(t_uint256,t_struct(DepositConfig)3271_storage)": {
        "encoding": "mapping",
        "key": "t_uint256",
        "label": "mapping(uint256 => struct IPositionManager.DepositConfig)",
        "numberOfBytes": "32",
        "value": "t_struct(DepositConfig)3271_storage"
      },
      "t_mapping(t_uint256,t_struct(Position)3264_storage)": {
        "encoding": "mapping",
        "key": "t_uint256",
        "label": "mapping(uint256 => struct IPositionManager.Position)",
        "numberOfBytes": "32",
        "value": "t_struct(Position)3264_storage"
      },
      "t_mapping(t_uint256,t_uint256)": {
        "encoding": "mapping",
        "key": "t_uint256",
        "label": "mapping(uint256 => uint256)",
        "numberOfBytes": "32",
        "value": "t_uint256"
      },
      "t_string_storage": {
        "encoding": "bytes",
        "label": "string",
        "numberOfBytes": "32"
      },
      "t_struct(DepositConfig)3271_storage": {
        "encoding": "inplace",
        "label": "struct IPositionManager.DepositConfig",
        "members": [
          {
            "astId": 3267,
            "contract": "contracts/token/NonfungibleNFT/PositionManager.sol:PositionManager",
            "label": "depositIds",
            "offset": 0,
            "slot": "0",
            "type": "t_array(t_uint256)dyn_storage"
          },
          {
            "astId": 3270,
            "contract": "contracts/token/NonfungibleNFT/PositionManager.sol:PositionManager",
            "label": "liquidityConfigs",
            "offset": 0,
            "slot": "1",
            "type": "t_array(t_bytes32)dyn_storage"
          }
        ],
        "numberOfBytes": "64"
      },
      "t_struct(Position)3264_storage": {
        "encoding": "inplace",
        "label": "struct IPositionManager.Position",
        "members": [
          {
            "astId": 3258,
            "contract": "contracts/token/NonfungibleNFT/PositionManager.sol:PositionManager",
            "label": "totalShare",
            "offset": 0,
            "slot": "0",
            "type": "t_uint256"
          },
          {
            "astId": 3260,
            "contract": "contracts/token/NonfungibleNFT/PositionManager.sol:PositionManager",
            "label": "centerId",
            "offset": 0,
            "slot": "1",
            "type": "t_uint256"
          },
          {
            "astId": 3263,
            "contract": "contracts/token/NonfungibleNFT/PositionManager.sol:PositionManager",
            "label": "liquidityMinted",
            "offset": 0,
            "slot": "2",
            "type": "t_array(t_uint256)dyn_storage"
          }
        ],
        "numberOfBytes": "96"
      },
      "t_uint176": {
        "encoding": "inplace",
        "label": "uint176",
        "numberOfBytes": "22"
      },
      "t_uint256": {
        "encoding": "inplace",
        "label": "uint256",
        "numberOfBytes": "32"
      }
    }
  }
}