{
  "address": "0x3De81CE90f5A27C5E6A5aDb04b54ABA488a6d14E",
  "abi": [
    {
      "inputs": [
        {
          "internalType": "string",
          "name": "_name",
          "type": "string"
        },
        {
          "internalType": "string",
          "name": "_symbol",
          "type": "string"
        },
        {
          "internalType": "uint8",
          "name": "_sharedDecimals",
          "type": "uint8"
        },
        {
          "internalType": "address",
          "name": "_lzEndpoint",
          "type": "address"
        }
      ],
      "stateMutability": "nonpayable",
      "type": "constructor"
    },
    {
      "anonymous": false,
      "inputs": [
        {
          "indexed": true,
          "internalType": "address",
          "name": "owner",
          "type": "address"
        },
        {
          "indexed": true,
          "internalType": "address",
          "name": "spender",
          "type": "address"
        },
        {
          "indexed": false,
          "internalType": "uint256",
          "name": "value",
          "type": "uint256"
        }
      ],
      "name": "Approval",
      "type": "event"
    },
    {
      "anonymous": false,
      "inputs": [
        {
          "indexed": true,
          "internalType": "uint16",
          "name": "_srcChainId",
          "type": "uint16"
        },
        {
          "indexed": false,
          "internalType": "bytes",
          "name": "_srcAddress",
          "type": "bytes"
        },
        {
          "indexed": false,
          "internalType": "uint64",
          "name": "_nonce",
          "type": "uint64"
        },
        {
          "indexed": false,
          "internalType": "bytes32",
          "name": "_hash",
          "type": "bytes32"
        }
      ],
      "name": "CallOFTReceivedSuccess",
      "type": "event"
    },
    {
      "anonymous": false,
      "inputs": [
        {
          "indexed": false,
          "internalType": "uint16",
          "name": "_srcChainId",
          "type": "uint16"
        },
        {
          "indexed": false,
          "internalType": "bytes",
          "name": "_srcAddress",
          "type": "bytes"
        },
        {
          "indexed": false,
          "internalType": "uint64",
          "name": "_nonce",
          "type": "uint64"
        },
        {
          "indexed": false,
          "internalType": "bytes",
          "name": "_payload",
          "type": "bytes"
        },
        {
          "indexed": false,
          "internalType": "bytes",
          "name": "_reason",
          "type": "bytes"
        }
      ],
      "name": "MessageFailed",
      "type": "event"
    },
    {
      "anonymous": false,
      "inputs": [
        {
          "indexed": false,
          "internalType": "address",
          "name": "_address",
          "type": "address"
        }
      ],
      "name": "NonContractAddress",
      "type": "event"
    },
    {
      "anonymous": false,
      "inputs": [
        {
          "indexed": true,
          "internalType": "address",
          "name": "previousOwner",
          "type": "address"
        },
        {
          "indexed": true,
          "internalType": "address",
          "name": "newOwner",
          "type": "address"
        }
      ],
      "name": "OwnershipTransferred",
      "type": "event"
    },
    {
      "anonymous": false,
      "inputs": [
        {
          "indexed": true,
          "internalType": "uint16",
          "name": "_srcChainId",
          "type": "uint16"
        },
        {
          "indexed": true,
          "internalType": "address",
          "name": "_to",
          "type": "address"
        },
        {
          "indexed": false,
          "internalType": "uint256",
          "name": "_amount",
          "type": "uint256"
        }
      ],
      "name": "ReceiveFromChain",
      "type": "event"
    },
    {
      "anonymous": false,
      "inputs": [
        {
          "indexed": false,
          "internalType": "uint16",
          "name": "_srcChainId",
          "type": "uint16"
        },
        {
          "indexed": false,
          "internalType": "bytes",
          "name": "_srcAddress",
          "type": "bytes"
        },
        {
          "indexed": false,
          "internalType": "uint64",
          "name": "_nonce",
          "type": "uint64"
        },
        {
          "indexed": false,
          "internalType": "bytes32",
          "name": "_payloadHash",
          "type": "bytes32"
        }
      ],
      "name": "RetryMessageSuccess",
      "type": "event"
    },
    {
      "anonymous": false,
      "inputs": [
        {
          "indexed": true,
          "internalType": "uint16",
          "name": "_dstChainId",
          "type": "uint16"
        },
        {
          "indexed": true,
          "internalType": "address",
          "name": "_from",
          "type": "address"
        },
        {
          "indexed": true,
          "internalType": "bytes32",
          "name": "_toAddress",
          "type": "bytes32"
        },
        {
          "indexed": false,
          "internalType": "uint256",
          "name": "_amount",
          "type": "uint256"
        }
      ],
      "name": "SendToChain",
      "type": "event"
    },
    {
      "anonymous": false,
      "inputs": [
        {
          "indexed": false,
          "internalType": "uint16",
          "name": "_dstChainId",
          "type": "uint16"
        },
        {
          "indexed": false,
          "internalType": "uint16",
          "name": "_type",
          "type": "uint16"
        },
        {
          "indexed": false,
          "internalType": "uint256",
          "name": "_minDstGas",
          "type": "uint256"
        }
      ],
      "name": "SetMinDstGas",
      "type": "event"
    },
    {
      "anonymous": false,
      "inputs": [
        {
          "indexed": false,
          "internalType": "address",
          "name": "precrime",
          "type": "address"
        }
      ],
      "name": "SetPrecrime",
      "type": "event"
    },
    {
      "anonymous": false,
      "inputs": [
        {
          "indexed": false,
          "internalType": "uint16",
          "name": "_remoteChainId",
          "type": "uint16"
        },
        {
          "indexed": false,
          "internalType": "bytes",
          "name": "_path",
          "type": "bytes"
        }
      ],
      "name": "SetTrustedRemote",
      "type": "event"
    },
    {
      "anonymous": false,
      "inputs": [
        {
          "indexed": false,
          "internalType": "uint16",
          "name": "_remoteChainId",
          "type": "uint16"
        },
        {
          "indexed": false,
          "internalType": "bytes",
          "name": "_remoteAddress",
          "type": "bytes"
        }
      ],
      "name": "SetTrustedRemoteAddress",
      "type": "event"
    },
    {
      "anonymous": false,
      "inputs": [
        {
          "indexed": true,
          "internalType": "address",
          "name": "from",
          "type": "address"
        },
        {
          "indexed": true,
          "internalType": "address",
          "name": "to",
          "type": "address"
        },
        {
          "indexed": false,
          "internalType": "uint256",
          "name": "value",
          "type": "uint256"
        }
      ],
      "name": "Transfer",
      "type": "event"
    },
    {
      "inputs": [],
      "name": "DEFAULT_PAYLOAD_SIZE_LIMIT",
      "outputs": [
        {
          "internalType": "uint256",
          "name": "",
          "type": "uint256"
        }
      ],
      "stateMutability": "view",
      "type": "function"
    },
    {
      "inputs": [],
      "name": "NO_EXTRA_GAS",
      "outputs": [
        {
          "internalType": "uint256",
          "name": "",
          "type": "uint256"
        }
      ],
      "stateMutability": "view",
      "type": "function"
    },
    {
      "inputs": [],
      "name": "PT_SEND",
      "outputs": [
        {
          "internalType": "uint8",
          "name": "",
          "type": "uint8"
        }
      ],
      "stateMutability": "view",
      "type": "function"
    },
    {
      "inputs": [],
      "name": "PT_SEND_AND_CALL",
      "outputs": [
        {
          "internalType": "uint8",
          "name": "",
          "type": "uint8"
        }
      ],
      "stateMutability": "view",
      "type": "function"
    },
    {
      "inputs": [
        {
          "internalType": "address",
          "name": "owner",
          "type": "address"
        },
        {
          "internalType": "address",
          "name": "spender",
          "type": "address"
        }
      ],
      "name": "allowance",
      "outputs": [
        {
          "internalType": "uint256",
          "name": "",
          "type": "uint256"
        }
      ],
      "stateMutability": "view",
      "type": "function"
    },
    {
      "inputs": [
        {
          "internalType": "address",
          "name": "spender",
          "type": "address"
        },
        {
          "internalType": "uint256",
          "name": "amount",
          "type": "uint256"
        }
      ],
      "name": "approve",
      "outputs": [
        {
          "internalType": "bool",
          "name": "",
          "type": "bool"
        }
      ],
      "stateMutability": "nonpayable",
      "type": "function"
    },
    {
      "inputs": [
        {
          "internalType": "address",
          "name": "account",
          "type": "address"
        }
      ],
      "name": "balanceOf",
      "outputs": [
        {
          "internalType": "uint256",
          "name": "",
          "type": "uint256"
        }
      ],
      "stateMutability": "view",
      "type": "function"
    },
    {
      "inputs": [
        {
          "internalType": "uint16",
          "name": "_srcChainId",
          "type": "uint16"
        },
        {
          "internalType": "bytes",
          "name": "_srcAddress",
          "type": "bytes"
        },
        {
          "internalType": "uint64",
          "name": "_nonce",
          "type": "uint64"
        },
        {
          "internalType": "bytes32",
          "name": "_from",
          "type": "bytes32"
        },
        {
          "internalType": "address",
          "name": "_to",
          "type": "address"
        },
        {
          "internalType": "uint256",
          "name": "_amount",
          "type": "uint256"
        },
        {
          "internalType": "bytes",
          "name": "_payload",
          "type": "bytes"
        },
        {
          "internalType": "uint256",
          "name": "_gasForCall",
          "type": "uint256"
        }
      ],
      "name": "callOnOFTReceived",
      "outputs": [],
      "stateMutability": "nonpayable",
      "type": "function"
    },
    {
      "inputs": [],
      "name": "circulatingSupply",
      "outputs": [
        {
          "internalType": "uint256",
          "name": "",
          "type": "uint256"
        }
      ],
      "stateMutability": "view",
      "type": "function"
    },
    {
      "inputs": [
        {
          "internalType": "uint16",
          "name": "",
          "type": "uint16"
        },
        {
          "internalType": "bytes",
          "name": "",
          "type": "bytes"
        },
        {
          "internalType": "uint64",
          "name": "",
          "type": "uint64"
        }
      ],
      "name": "creditedPackets",
      "outputs": [
        {
          "internalType": "bool",
          "name": "",
          "type": "bool"
        }
      ],
      "stateMutability": "view",
      "type": "function"
    },
    {
      "inputs": [],
      "name": "decimals",
      "outputs": [
        {
          "internalType": "uint8",
          "name": "",
          "type": "uint8"
        }
      ],
      "stateMutability": "view",
      "type": "function"
    },
    {
      "inputs": [
        {
          "internalType": "address",
          "name": "spender",
          "type": "address"
        },
        {
          "internalType": "uint256",
          "name": "subtractedValue",
          "type": "uint256"
        }
      ],
      "name": "decreaseAllowance",
      "outputs": [
        {
          "internalType": "bool",
          "name": "",
          "type": "bool"
        }
      ],
      "stateMutability": "nonpayable",
      "type": "function"
    },
    {
      "inputs": [
        {
          "internalType": "uint16",
          "name": "_dstChainId",
          "type": "uint16"
        },
        {
          "internalType": "bytes32",
          "name": "_toAddress",
          "type": "bytes32"
        },
        {
          "internalType": "uint256",
          "name": "_amount",
          "type": "uint256"
        },
        {
          "internalType": "bytes",
          "name": "_payload",
          "type": "bytes"
        },
        {
          "internalType": "uint64",
          "name": "_dstGasForCall",
          "type": "uint64"
        },
        {
          "internalType": "bool",
          "name": "_useZro",
          "type": "bool"
        },
        {
          "internalType": "bytes",
          "name": "_adapterParams",
          "type": "bytes"
        }
      ],
      "name": "estimateSendAndCallFee",
      "outputs": [
        {
          "internalType": "uint256",
          "name": "nativeFee",
          "type": "uint256"
        },
        {
          "internalType": "uint256",
          "name": "zroFee",
          "type": "uint256"
        }
      ],
      "stateMutability": "view",
      "type": "function"
    },
    {
      "inputs": [
        {
          "internalType": "uint16",
          "name": "_dstChainId",
          "type": "uint16"
        },
        {
          "internalType": "bytes32",
          "name": "_toAddress",
          "type": "bytes32"
        },
        {
          "internalType": "uint256",
          "name": "_amount",
          "type": "uint256"
        },
        {
          "internalType": "bool",
          "name": "_useZro",
          "type": "bool"
        },
        {
          "internalType": "bytes",
          "name": "_adapterParams",
          "type": "bytes"
        }
      ],
      "name": "estimateSendFee",
      "outputs": [
        {
          "internalType": "uint256",
          "name": "nativeFee",
          "type": "uint256"
        },
        {
          "internalType": "uint256",
          "name": "zroFee",
          "type": "uint256"
        }
      ],
      "stateMutability": "view",
      "type": "function"
    },
    {
      "inputs": [
        {
          "internalType": "uint16",
          "name": "",
          "type": "uint16"
        },
        {
          "internalType": "bytes",
          "name": "",
          "type": "bytes"
        },
        {
          "internalType": "uint64",
          "name": "",
          "type": "uint64"
        }
      ],
      "name": "failedMessages",
      "outputs": [
        {
          "internalType": "bytes32",
          "name": "",
          "type": "bytes32"
        }
      ],
      "stateMutability": "view",
      "type": "function"
    },
    {
      "inputs": [
        {
          "internalType": "uint16",
          "name": "_srcChainId",
          "type": "uint16"
        },
        {
          "internalType": "bytes",
          "name": "_srcAddress",
          "type": "bytes"
        }
      ],
      "name": "forceResumeReceive",
      "outputs": [],
      "stateMutability": "nonpayable",
      "type": "function"
    },
    {
      "inputs": [
        {
          "internalType": "uint16",
          "name": "_version",
          "type": "uint16"
        },
        {
          "internalType": "uint16",
          "name": "_chainId",
          "type": "uint16"
        },
        {
          "internalType": "address",
          "name": "",
          "type": "address"
        },
        {
          "internalType": "uint256",
          "name": "_configType",
          "type": "uint256"
        }
      ],
      "name": "getConfig",
      "outputs": [
        {
          "internalType": "bytes",
          "name": "",
          "type": "bytes"
        }
      ],
      "stateMutability": "view",
      "type": "function"
    },
    {
      "inputs": [
        {
          "internalType": "uint16",
          "name": "_remoteChainId",
          "type": "uint16"
        }
      ],
      "name": "getTrustedRemoteAddress",
      "outputs": [
        {
          "internalType": "bytes",
          "name": "",
          "type": "bytes"
        }
      ],
      "stateMutability": "view",
      "type": "function"
    },
    {
      "inputs": [
        {
          "internalType": "address",
          "name": "spender",
          "type": "address"
        },
        {
          "internalType": "uint256",
          "name": "addedValue",
          "type": "uint256"
        }
      ],
      "name": "increaseAllowance",
      "outputs": [
        {
          "internalType": "bool",
          "name": "",
          "type": "bool"
        }
      ],
      "stateMutability": "nonpayable",
      "type": "function"
    },
    {
      "inputs": [
        {
          "internalType": "uint16",
          "name": "_srcChainId",
          "type": "uint16"
        },
        {
          "internalType": "bytes",
          "name": "_srcAddress",
          "type": "bytes"
        }
      ],
      "name": "isTrustedRemote",
      "outputs": [
        {
          "internalType": "bool",
          "name": "",
          "type": "bool"
        }
      ],
      "stateMutability": "view",
      "type": "function"
    },
    {
      "inputs": [],
      "name": "lzEndpoint",
      "outputs": [
        {
          "internalType": "contract ILayerZeroEndpoint",
          "name": "",
          "type": "address"
        }
      ],
      "stateMutability": "view",
      "type": "function"
    },
    {
      "inputs": [
        {
          "internalType": "uint16",
          "name": "_srcChainId",
          "type": "uint16"
        },
        {
          "internalType": "bytes",
          "name": "_srcAddress",
          "type": "bytes"
        },
        {
          "internalType": "uint64",
          "name": "_nonce",
          "type": "uint64"
        },
        {
          "internalType": "bytes",
          "name": "_payload",
          "type": "bytes"
        }
      ],
      "name": "lzReceive",
      "outputs": [],
      "stateMutability": "nonpayable",
      "type": "function"
    },
    {
      "inputs": [
        {
          "internalType": "uint16",
          "name": "",
          "type": "uint16"
        },
        {
          "internalType": "uint16",
          "name": "",
          "type": "uint16"
        }
      ],
      "name": "minDstGasLookup",
      "outputs": [
        {
          "internalType": "uint256",
          "name": "",
          "type": "uint256"
        }
      ],
      "stateMutability": "view",
      "type": "function"
    },
    {
      "inputs": [],
      "name": "name",
      "outputs": [
        {
          "internalType": "string",
          "name": "",
          "type": "string"
        }
      ],
      "stateMutability": "view",
      "type": "function"
    },
    {
      "inputs": [
        {
          "internalType": "uint16",
          "name": "_srcChainId",
          "type": "uint16"
        },
        {
          "internalType": "bytes",
          "name": "_srcAddress",
          "type": "bytes"
        },
        {
          "internalType": "uint64",
          "name": "_nonce",
          "type": "uint64"
        },
        {
          "internalType": "bytes",
          "name": "_payload",
          "type": "bytes"
        }
      ],
      "name": "nonblockingLzReceive",
      "outputs": [],
      "stateMutability": "nonpayable",
      "type": "function"
    },
    {
      "inputs": [],
      "name": "owner",
      "outputs": [
        {
          "internalType": "address",
          "name": "",
          "type": "address"
        }
      ],
      "stateMutability": "view",
      "type": "function"
    },
    {
      "inputs": [
        {
          "internalType": "uint16",
          "name": "",
          "type": "uint16"
        }
      ],
      "name": "payloadSizeLimitLookup",
      "outputs": [
        {
          "internalType": "uint256",
          "name": "",
          "type": "uint256"
        }
      ],
      "stateMutability": "view",
      "type": "function"
    },
    {
      "inputs": [],
      "name": "precrime",
      "outputs": [
        {
          "internalType": "address",
          "name": "",
          "type": "address"
        }
      ],
      "stateMutability": "view",
      "type": "function"
    },
    {
      "inputs": [],
      "name": "renounceOwnership",
      "outputs": [],
      "stateMutability": "nonpayable",
      "type": "function"
    },
    {
      "inputs": [
        {
          "internalType": "uint16",
          "name": "_srcChainId",
          "type": "uint16"
        },
        {
          "internalType": "bytes",
          "name": "_srcAddress",
          "type": "bytes"
        },
        {
          "internalType": "uint64",
          "name": "_nonce",
          "type": "uint64"
        },
        {
          "internalType": "bytes",
          "name": "_payload",
          "type": "bytes"
        }
      ],
      "name": "retryMessage",
      "outputs": [],
      "stateMutability": "payable",
      "type": "function"
    },
    {
      "inputs": [
        {
          "internalType": "address",
          "name": "_from",
          "type": "address"
        },
        {
          "internalType": "uint16",
          "name": "_dstChainId",
          "type": "uint16"
        },
        {
          "internalType": "bytes32",
          "name": "_toAddress",
          "type": "bytes32"
        },
        {
          "internalType": "uint256",
          "name": "_amount",
          "type": "uint256"
        },
        {
          "internalType": "bytes",
          "name": "_payload",
          "type": "bytes"
        },
        {
          "internalType": "uint64",
          "name": "_dstGasForCall",
          "type": "uint64"
        },
        {
          "components": [
            {
              "internalType": "address payable",
              "name": "refundAddress",
              "type": "address"
            },
            {
              "internalType": "address",
              "name": "zroPaymentAddress",
              "type": "address"
            },
            {
              "internalType": "bytes",
              "name": "adapterParams",
              "type": "bytes"
            }
          ],
          "internalType": "struct ICommonOFT.LzCallParams",
          "name": "_callParams",
          "type": "tuple"
        }
      ],
      "name": "sendAndCall",
      "outputs": [],
      "stateMutability": "payable",
      "type": "function"
    },
    {
      "inputs": [
        {
          "internalType": "address",
          "name": "_from",
          "type": "address"
        },
        {
          "internalType": "uint16",
          "name": "_dstChainId",
          "type": "uint16"
        },
        {
          "internalType": "bytes32",
          "name": "_toAddress",
          "type": "bytes32"
        },
        {
          "internalType": "uint256",
          "name": "_amount",
          "type": "uint256"
        },
        {
          "components": [
            {
              "internalType": "address payable",
              "name": "refundAddress",
              "type": "address"
            },
            {
              "internalType": "address",
              "name": "zroPaymentAddress",
              "type": "address"
            },
            {
              "internalType": "bytes",
              "name": "adapterParams",
              "type": "bytes"
            }
          ],
          "internalType": "struct ICommonOFT.LzCallParams",
          "name": "_callParams",
          "type": "tuple"
        }
      ],
      "name": "sendFrom",
      "outputs": [],
      "stateMutability": "payable",
      "type": "function"
    },
    {
      "inputs": [
        {
          "internalType": "uint16",
          "name": "_version",
          "type": "uint16"
        },
        {
          "internalType": "uint16",
          "name": "_chainId",
          "type": "uint16"
        },
        {
          "internalType": "uint256",
          "name": "_configType",
          "type": "uint256"
        },
        {
          "internalType": "bytes",
          "name": "_config",
          "type": "bytes"
        }
      ],
      "name": "setConfig",
      "outputs": [],
      "stateMutability": "nonpayable",
      "type": "function"
    },
    {
      "inputs": [
        {
          "internalType": "uint16",
          "name": "_dstChainId",
          "type": "uint16"
        },
        {
          "internalType": "uint16",
          "name": "_packetType",
          "type": "uint16"
        },
        {
          "internalType": "uint256",
          "name": "_minGas",
          "type": "uint256"
        }
      ],
      "name": "setMinDstGas",
      "outputs": [],
      "stateMutability": "nonpayable",
      "type": "function"
    },
    {
      "inputs": [
        {
          "internalType": "uint16",
          "name": "_dstChainId",
          "type": "uint16"
        },
        {
          "internalType": "uint256",
          "name": "_size",
          "type": "uint256"
        }
      ],
      "name": "setPayloadSizeLimit",
      "outputs": [],
      "stateMutability": "nonpayable",
      "type": "function"
    },
    {
      "inputs": [
        {
          "internalType": "address",
          "name": "_precrime",
          "type": "address"
        }
      ],
      "name": "setPrecrime",
      "outputs": [],
      "stateMutability": "nonpayable",
      "type": "function"
    },
    {
      "inputs": [
        {
          "internalType": "uint16",
          "name": "_version",
          "type": "uint16"
        }
      ],
      "name": "setReceiveVersion",
      "outputs": [],
      "stateMutability": "nonpayable",
      "type": "function"
    },
    {
      "inputs": [
        {
          "internalType": "uint16",
          "name": "_version",
          "type": "uint16"
        }
      ],
      "name": "setSendVersion",
      "outputs": [],
      "stateMutability": "nonpayable",
      "type": "function"
    },
    {
      "inputs": [
        {
          "internalType": "uint16",
          "name": "_remoteChainId",
          "type": "uint16"
        },
        {
          "internalType": "bytes",
          "name": "_path",
          "type": "bytes"
        }
      ],
      "name": "setTrustedRemote",
      "outputs": [],
      "stateMutability": "nonpayable",
      "type": "function"
    },
    {
      "inputs": [
        {
          "internalType": "uint16",
          "name": "_remoteChainId",
          "type": "uint16"
        },
        {
          "internalType": "bytes",
          "name": "_remoteAddress",
          "type": "bytes"
        }
      ],
      "name": "setTrustedRemoteAddress",
      "outputs": [],
      "stateMutability": "nonpayable",
      "type": "function"
    },
    {
      "inputs": [],
      "name": "sharedDecimals",
      "outputs": [
        {
          "internalType": "uint8",
          "name": "",
          "type": "uint8"
        }
      ],
      "stateMutability": "view",
      "type": "function"
    },
    {
      "inputs": [
        {
          "internalType": "bytes4",
          "name": "interfaceId",
          "type": "bytes4"
        }
      ],
      "name": "supportsInterface",
      "outputs": [
        {
          "internalType": "bool",
          "name": "",
          "type": "bool"
        }
      ],
      "stateMutability": "view",
      "type": "function"
    },
    {
      "inputs": [],
      "name": "symbol",
      "outputs": [
        {
          "internalType": "string",
          "name": "",
          "type": "string"
        }
      ],
      "stateMutability": "view",
      "type": "function"
    },
    {
      "inputs": [],
      "name": "token",
      "outputs": [
        {
          "internalType": "address",
          "name": "",
          "type": "address"
        }
      ],
      "stateMutability": "view",
      "type": "function"
    },
    {
      "inputs": [],
      "name": "totalSupply",
      "outputs": [
        {
          "internalType": "uint256",
          "name": "",
          "type": "uint256"
        }
      ],
      "stateMutability": "view",
      "type": "function"
    },
    {
      "inputs": [
        {
          "internalType": "address",
          "name": "to",
          "type": "address"
        },
        {
          "internalType": "uint256",
          "name": "amount",
          "type": "uint256"
        }
      ],
      "name": "transfer",
      "outputs": [
        {
          "internalType": "bool",
          "name": "",
          "type": "bool"
        }
      ],
      "stateMutability": "nonpayable",
      "type": "function"
    },
    {
      "inputs": [
        {
          "internalType": "address",
          "name": "from",
          "type": "address"
        },
        {
          "internalType": "address",
          "name": "to",
          "type": "address"
        },
        {
          "internalType": "uint256",
          "name": "amount",
          "type": "uint256"
        }
      ],
      "name": "transferFrom",
      "outputs": [
        {
          "internalType": "bool",
          "name": "",
          "type": "bool"
        }
      ],
      "stateMutability": "nonpayable",
      "type": "function"
    },
    {
      "inputs": [
        {
          "internalType": "address",
          "name": "newOwner",
          "type": "address"
        }
      ],
      "name": "transferOwnership",
      "outputs": [],
      "stateMutability": "nonpayable",
      "type": "function"
    },
    {
      "inputs": [
        {
          "internalType": "uint16",
          "name": "",
          "type": "uint16"
        }
      ],
      "name": "trustedRemoteLookup",
      "outputs": [
        {
          "internalType": "bytes",
          "name": "",
          "type": "bytes"
        }
      ],
      "stateMutability": "view",
      "type": "function"
    }
  ],
  "transactionHash": "0x82299058c922f53a38f61ba666e7b021e2d9b7f93c3d8eee424cde533ed51f38",
  "args": [
    "DeltaPrime",
    "PRIME",
    6,
    "0x3c2269811836af69497E5F486A85D7316753cf62"
  ],
  "numDeployments": 2,
  "solcInputHash": "01856c8fc1e6e3dc60ab34bd32626fa0",
  "bytecode": "0x60e06040523480156200001157600080fd5b50604051620046d9380380620046d983398101604081905262000034916200023f565b8383838381818080620000473362000125565b6001600160a01b0316608052505060ff1660a05250600a90506200006c838262000372565b50600b6200007b828262000372565b5050506000620000906200017560201b60201c565b90508060ff168360ff161115620000fd5760405162461bcd60e51b815260206004820152602760248201527f4f46543a20736861726564446563696d616c73206d757374206265203c3d20646044820152666563696d616c7360c81b606482015260840160405180910390fd5b62000109838262000454565b6200011690600a62000573565b60c052506200058b9350505050565b600080546001600160a01b038381166001600160a01b0319831681178455604051919092169283917f8be0079c531659141344cd1fd0a4f28419497f9722a3daafe3b4186f6b6457e09190a35050565b601290565b634e487b7160e01b600052604160045260246000fd5b600082601f830112620001a257600080fd5b81516001600160401b0380821115620001bf57620001bf6200017a565b604051601f8301601f19908116603f01168101908282118183101715620001ea57620001ea6200017a565b816040528381526020925086838588010111156200020757600080fd5b600091505b838210156200022b57858201830151818301840152908201906200020c565b600093810190920192909252949350505050565b600080600080608085870312156200025657600080fd5b84516001600160401b03808211156200026e57600080fd5b6200027c8883890162000190565b955060208701519150808211156200029357600080fd5b50620002a28782880162000190565b935050604085015160ff81168114620002ba57600080fd5b60608601519092506001600160a01b0381168114620002d857600080fd5b939692955090935050565b600181811c90821680620002f857607f821691505b6020821081036200031957634e487b7160e01b600052602260045260246000fd5b50919050565b601f8211156200036d57600081815260208120601f850160051c81016020861015620003485750805b601f850160051c820191505b81811015620003695782815560010162000354565b5050505b505050565b81516001600160401b038111156200038e576200038e6200017a565b620003a6816200039f8454620002e3565b846200031f565b602080601f831160018114620003de5760008415620003c55750858301515b600019600386901b1c1916600185901b17855562000369565b600085815260208120601f198616915b828110156200040f57888601518255948401946001909101908401620003ee565b50858210156200042e5787850151600019600388901b60f8161c191681555b5050505050600190811b01905550565b634e487b7160e01b600052601160045260246000fd5b60ff82811682821603908111156200047057620004706200043e565b92915050565b600181815b80851115620004b75781600019048211156200049b576200049b6200043e565b80851615620004a957918102915b93841c93908002906200047b565b509250929050565b600082620004d05750600162000470565b81620004df5750600062000470565b8160018114620004f85760028114620005035762000523565b600191505062000470565b60ff8411156200051757620005176200043e565b50506001821b62000470565b5060208310610133831016604e8410600b841016171562000548575081810a62000470565b62000554838362000476565b80600019048211156200056b576200056b6200043e565b029392505050565b60006200058460ff841683620004bf565b9392505050565b60805160a05160c0516140df620005fa6000396000612b5a0152600061058a015260008181610754015281816108ca01528181610be201528181610ca201528181610e5f015281816114cc015281816119f301528181611eea015281816122ee0152612a9b01526140df6000f3fe60806040526004361061022d5760003560e01c80621d35671461023257806301ffc9a71461025457806306fdde031461028957806307e0db17146102ab578063095ea7b3146102cb5780630df37483146102eb57806310ddb1371461030b57806318160ddd1461032b57806323b872dd1461034a578063313ce5671461036a578063365260b41461038c57806339509351146103c15780633d8b38f6146103e15780633f1f4fa41461040157806342d65a8d1461042e578063447705151461044e5780634c42899a146104635780635b8c41e61461047857806366ad5c8a146104c7578063695ef6bf146104e757806370a08231146104fa578063715018a6146105305780637533d7881461054557806376203b4814610565578063857749b0146105785780638cfd8f5c146105ac5780638da5cb5b146105e45780639358928b14610606578063950c8a741461061b57806395d89b411461063b5780639bdb9812146106505780639f38369a146106a2578063a457c2d7146106c2578063a4c51df5146106e2578063a6c3d16514610702578063a9059cbb14610722578063b353aaa714610742578063baf3292d14610776578063c446183414610796578063cbed8b9c146107ac578063d1deba1f146107cc578063dd62ed3e146107df578063df2a5b3b146107ff578063e6a20ae61461081f578063eaffd49a14610834578063eb8d72b714610854578063f2fde38b14610874578063f5ecbdbc14610894578063fc0c546a146108b4575b600080fd5b34801561023e57600080fd5b5061025261024d3660046130c5565b6108c7565b005b34801561026057600080fd5b5061027461026f366004613158565b610af8565b60405190151581526020015b60405180910390f35b34801561029557600080fd5b5061029e610b2f565b60405161028091906131d2565b3480156102b757600080fd5b506102526102c63660046131e5565b610bc1565b3480156102d757600080fd5b506102746102e6366004613215565b610c4a565b3480156102f757600080fd5b50610252610306366004613241565b610c62565b34801561031757600080fd5b506102526103263660046131e5565b610c81565b34801561033757600080fd5b506009545b604051908152602001610280565b34801561035657600080fd5b5061027461036536600461325d565b610cd9565b34801561037657600080fd5b5060125b60405160ff9091168152602001610280565b34801561039857600080fd5b506103ac6103a73660046132ae565b610cfd565b60408051928352602083019190915201610280565b3480156103cd57600080fd5b506102746103dc366004613215565b610d52565b3480156103ed57600080fd5b506102746103fc366004613313565b610d74565b34801561040d57600080fd5b5061033c61041c3660046131e5565b60036020526000908152604090205481565b34801561043a57600080fd5b50610252610449366004613313565b610e40565b34801561045a57600080fd5b5061033c600081565b34801561046f57600080fd5b5061037a600081565b34801561048457600080fd5b5061033c6104933660046133d2565b6005602090815260009384526040808520845180860184018051928152908401958401959095209452929052825290205481565b3480156104d357600080fd5b506102526104e23660046130c5565b610ec6565b6102526104f536600461348a565b610fa2565b34801561050657600080fd5b5061033c6105153660046134fd565b6001600160a01b031660009081526007602052604090205490565b34801561053c57600080fd5b5061025261100d565b34801561055157600080fd5b5061029e6105603660046131e5565b611021565b61025261057336600461351a565b6110bb565b34801561058457600080fd5b5061037a7f000000000000000000000000000000000000000000000000000000000000000081565b3480156105b857600080fd5b5061033c6105c73660046135cc565b600260209081526000928352604080842090915290825290205481565b3480156105f057600080fd5b506105f961116a565b60405161028091906135ff565b34801561061257600080fd5b5061033c611179565b34801561062757600080fd5b506004546105f9906001600160a01b031681565b34801561064757600080fd5b5061029e611189565b34801561065c57600080fd5b5061027461066b3660046133d2565b6006602090815260009384526040808520845180860184018051928152908401958401959095209452929052825290205460ff1681565b3480156106ae57600080fd5b5061029e6106bd3660046131e5565b611198565b3480156106ce57600080fd5b506102746106dd366004613215565b6112ae565b3480156106ee57600080fd5b506103ac6106fd366004613613565b611329565b34801561070e57600080fd5b5061025261071d366004613313565b6113b8565b34801561072e57600080fd5b5061027461073d366004613215565b611441565b34801561074e57600080fd5b506105f97f000000000000000000000000000000000000000000000000000000000000000081565b34801561078257600080fd5b506102526107913660046134fd565b61144f565b3480156107a257600080fd5b5061033c61271081565b3480156107b857600080fd5b506102526107c73660046136cc565b6114ad565b6102526107da3660046130c5565b611537565b3480156107eb57600080fd5b5061033c6107fa36600461373a565b61174d565b34801561080b57600080fd5b5061025261081a366004613773565b611778565b34801561082b57600080fd5b5061037a600181565b34801561084057600080fd5b5061025261084f3660046137af565b6117e2565b34801561086057600080fd5b5061025261086f366004613313565b6118ef565b34801561088057600080fd5b5061025261088f3660046134fd565b611949565b3480156108a057600080fd5b5061029e6108af366004613877565b6119c2565b3480156108c057600080fd5b50306105f9565b337f00000000000000000000000000000000000000000000000000000000000000006001600160a01b0316146109445760405162461bcd60e51b815260206004820152601e60248201527f4c7a4170703a20696e76616c696420656e64706f696e742063616c6c6572000060448201526064015b60405180910390fd5b61ffff861660009081526001602052604081208054610962906138c4565b80601f016020809104026020016040519081016040528092919081815260200182805461098e906138c4565b80156109db5780601f106109b0576101008083540402835291602001916109db565b820191906000526020600020905b8154815290600101906020018083116109be57829003601f168201915b505050505090508051868690501480156109f6575060008151115b8015610a1e575080516020820120604051610a1490889088906138f8565b6040518091039020145b610a795760405162461bcd60e51b815260206004820152602660248201527f4c7a4170703a20696e76616c696420736f757263652073656e64696e6720636f6044820152651b9d1c9858dd60d21b606482015260840161093b565b610aef8787878080601f01602080910402602001604051908101604052809392919081815260200183838082843760009201919091525050604080516020601f8a018190048102820181019092528881528a935091508890889081908401838280828437600092019190915250611a7392505050565b50505050505050565b60006001600160e01b03198216631f7ecdf760e01b1480610b2957506301ffc9a760e01b6001600160e01b03198316145b92915050565b6060600a8054610b3e906138c4565b80601f0160208091040260200160405190810160405280929190818152602001828054610b6a906138c4565b8015610bb75780601f10610b8c57610100808354040283529160200191610bb7565b820191906000526020600020905b815481529060010190602001808311610b9a57829003601f168201915b5050505050905090565b610bc9611aec565b6040516307e0db1760e01b815261ffff821660048201527f00000000000000000000000000000000000000000000000000000000000000006001600160a01b0316906307e0db17906024015b600060405180830381600087803b158015610c2f57600080fd5b505af1158015610c43573d6000803e3d6000fd5b5050505050565b600033610c58818585611b4b565b5060019392505050565b610c6a611aec565b61ffff909116600090815260036020526040902055565b610c89611aec565b6040516310ddb13760e01b815261ffff821660048201527f00000000000000000000000000000000000000000000000000000000000000006001600160a01b0316906310ddb13790602401610c15565b600033610ce7858285611c6f565b610cf2858585611ce9565b506001949350505050565b600080610d438888888888888080601f016020809104026020016040519081016040528093929190818152602001838380828437600092019190915250611e8292505050565b91509150965096945050505050565b600033610c58818585610d65838361174d565b610d6f919061391e565b611b4b565b61ffff831660009081526001602052604081208054829190610d95906138c4565b80601f0160208091040260200160405190810160405280929190818152602001828054610dc1906138c4565b8015610e0e5780601f10610de357610100808354040283529160200191610e0e565b820191906000526020600020905b815481529060010190602001808311610df157829003601f168201915b505050505090508383604051610e259291906138f8565b60405180910390208180519060200120149150509392505050565b610e48611aec565b6040516342d65a8d60e01b81526001600160a01b037f000000000000000000000000000000000000000000000000000000000000000016906342d65a8d90610e989086908690869060040161395a565b600060405180830381600087803b158015610eb257600080fd5b505af1158015610aef573d6000803e3d6000fd5b333014610f245760405162461bcd60e51b815260206004820152602660248201527f4e6f6e626c6f636b696e674c7a4170703a2063616c6c6572206d7573742062656044820152650204c7a4170760d41b606482015260840161093b565b610f9a8686868080601f01602080910402602001604051908101604052809392919081815260200183838082843760009201919091525050604080516020601f890181900481028201810190925287815289935091508790879081908401838280828437600092019190915250611f7692505050565b505050505050565b610f9a85858585610fb660208701876134fd565b610fc660408801602089016134fd565b610fd36040890189613978565b8080601f016020809104026020016040519081016040528093929190818152602001838380828437600092019190915250611ffc92505050565b611015611aec565b61101f60006120a6565b565b6001602052600090815260409020805461103a906138c4565b80601f0160208091040260200160405190810160405280929190818152602001828054611066906138c4565b80156110b35780601f10611088576101008083540402835291602001916110b3565b820191906000526020600020905b81548152906001019060200180831161109657829003601f168201915b505050505081565b61115f8888888888888080601f0160208091040260200160405190810160405280939291908181526020018383808284376000920191909152508a925061110891505060208901896134fd565b61111860408a0160208b016134fd565b61112560408b018b613978565b8080601f0160208091040260200160405190810160405280939291908181526020018383808284376000920191909152506120f692505050565b505050505050505050565b6000546001600160a01b031690565b600061118460095490565b905090565b6060600b8054610b3e906138c4565b61ffff81166000908152600160205260408120805460609291906111bb906138c4565b80601f01602080910402602001604051908101604052809291908181526020018280546111e7906138c4565b80156112345780601f1061120957610100808354040283529160200191611234565b820191906000526020600020905b81548152906001019060200180831161121757829003601f168201915b50505050509050805160000361128c5760405162461bcd60e51b815260206004820152601d60248201527f4c7a4170703a206e6f20747275737465642070617468207265636f7264000000604482015260640161093b565b6112a760006014835161129f91906139be565b8391906121b4565b9392505050565b600033816112bc828661174d565b90508381101561131c5760405162461bcd60e51b815260206004820152602560248201527f45524332303a2064656372656173656420616c6c6f77616e63652062656c6f77604482015264207a65726f60d81b606482015260840161093b565b610cf28286868403611b4b565b6000806113a68b8b8b8b8b8080601f01602080910402602001604051908101604052809392919081815260200183838082843760009201919091525050604080516020601f8d018190048102820181019092528b81528e93508d9250908c908c90819084018382808284376000920191909152506122c192505050565b91509150995099975050505050505050565b6113c0611aec565b8181306040516020016113d5939291906139d1565b60408051601f1981840301815291815261ffff85166000908152600160205220906114009082613a4d565b507f8c0400cfe2d1199b1a725c78960bcc2a344d869b80590d0f2bd005db15a572ce8383836040516114349392919061395a565b60405180910390a1505050565b600033610c58818585611ce9565b611457611aec565b600480546001600160a01b0319166001600160a01b0383161790556040517f5db758e995a17ec1ad84bdef7e8c3293a0bd6179bcce400dff5d4c3d87db726b906114a29083906135ff565b60405180910390a150565b6114b5611aec565b6040516332fb62e760e21b81526001600160a01b037f0000000000000000000000000000000000000000000000000000000000000000169063cbed8b9c906115099088908890889088908890600401613b06565b600060405180830381600087803b15801561152357600080fd5b505af115801561115f573d6000803e3d6000fd5b61ffff8616600090815260056020526040808220905161155a90889088906138f8565b90815260408051602092819003830190206001600160401b038716600090815292529020549050806115da5760405162461bcd60e51b815260206004820152602360248201527f4e6f6e626c6f636b696e674c7a4170703a206e6f2073746f726564206d65737360448201526261676560e81b606482015260840161093b565b8083836040516115eb9291906138f8565b60405180910390201461164a5760405162461bcd60e51b815260206004820152602160248201527f4e6f6e626c6f636b696e674c7a4170703a20696e76616c6964207061796c6f616044820152601960fa1b606482015260840161093b565b61ffff8716600090815260056020526040808220905161166d90899089906138f8565b90815260408051602092819003830181206001600160401b038916600090815290845282902093909355601f88018290048202830182019052868252611705918991899089908190840183828082843760009201919091525050604080516020601f8a018190048102820181019092528881528a935091508890889081908401838280828437600092019190915250611f7692505050565b7fc264d91f3adc5588250e1551f547752ca0cfa8f6b530d243b9f9f4cab10ea8e5878787878560405161173c959493929190613b3f565b60405180910390a150505050505050565b6001600160a01b03918216600090815260086020908152604080832093909416825291909152205490565b611780611aec565b61ffff83811660008181526002602090815260408083209487168084529482529182902085905581519283528201929092529081018290527f9d5c7c0b934da8fefa9c7760c98383778a12dfbfc0c3b3106518f43fb9508ac090606001611434565b3330146118315760405162461bcd60e51b815260206004820152601f60248201527f4f4654436f72653a2063616c6c6572206d757374206265204f4654436f726500604482015260640161093b565b61183c30868661237c565b9350846001600160a01b03168a61ffff1660008051602061406a8339815191528660405161186c91815260200190565b60405180910390a3604051633fe79aed60e11b81526001600160a01b03861690637fcf35da9083906118b0908e908e908e908e908e908d908d908d90600401613b7a565b600060405180830381600088803b1580156118ca57600080fd5b5087f11580156118de573d6000803e3d6000fd5b505050505050505050505050505050565b6118f7611aec565b61ffff83166000908152600160205260409020611915828483613bd7565b507ffa41487ad5d6728f0b19276fa1eddc16558578f5109fc39d2dc33c3230470dab8383836040516114349392919061395a565b611951611aec565b6001600160a01b0381166119b65760405162461bcd60e51b815260206004820152602660248201527f4f776e61626c653a206e6577206f776e657220697320746865207a65726f206160448201526564647265737360d01b606482015260840161093b565b6119bf816120a6565b50565b604051633d7b2f6f60e21b815261ffff808616600483015284166024820152306044820152606481018290526060907f00000000000000000000000000000000000000000000000000000000000000006001600160a01b03169063f5ecbdbc90608401600060405180830381865afa158015611a42573d6000803e3d6000fd5b505050506040513d6000823e601f3d908101601f19168201604052611a6a9190810190613c90565b95945050505050565b600080611ad65a60966366ad5c8a60e01b89898989604051602401611a9b9493929190613cfd565b60408051601f198184030181529190526020810180516001600160e01b03166001600160e01b031990931692909217909152309291906123ce565b9150915081610f9a57610f9a8686868685612458565b33611af561116a565b6001600160a01b03161461101f5760405162461bcd60e51b815260206004820181905260248201527f4f776e61626c653a2063616c6c6572206973206e6f7420746865206f776e6572604482015260640161093b565b6001600160a01b038316611bad5760405162461bcd60e51b8152602060048201526024808201527f45524332303a20617070726f76652066726f6d20746865207a65726f206164646044820152637265737360e01b606482015260840161093b565b6001600160a01b038216611c0e5760405162461bcd60e51b815260206004820152602260248201527f45524332303a20617070726f766520746f20746865207a65726f206164647265604482015261737360f01b606482015260840161093b565b6001600160a01b0383811660008181526008602090815260408083209487168084529482529182902085905590518481527f8c5be1e5ebec7d5bd14f71427d1e84f3dd0314c0f7b2291e5b200ac8c7c3b925910160405180910390a3505050565b6000611c7b848461174d565b90506000198114611ce35781811015611cd65760405162461bcd60e51b815260206004820152601d60248201527f45524332303a20696e73756666696369656e7420616c6c6f77616e6365000000604482015260640161093b565b611ce38484848403611b4b565b50505050565b6001600160a01b038316611d4d5760405162461bcd60e51b815260206004820152602560248201527f45524332303a207472616e736665722066726f6d20746865207a65726f206164604482015264647265737360d81b606482015260840161093b565b6001600160a01b038216611daf5760405162461bcd60e51b815260206004820152602360248201527f45524332303a207472616e7366657220746f20746865207a65726f206164647260448201526265737360e81b606482015260840161093b565b6001600160a01b03831660009081526007602052604090205481811015611e275760405162461bcd60e51b815260206004820152602660248201527f45524332303a207472616e7366657220616d6f756e7420657863656564732062604482015265616c616e636560d01b606482015260840161093b565b6001600160a01b03808516600081815260076020526040808220868603905592861680825290839020805486019055915160008051602061408a83398151915290611e759086815260200190565b60405180910390a3611ce3565b6000806000611ed087611e94886124fa565b6040805160006020820152602181019390935260c09190911b6001600160c01b0319166041830152805160298184030181526049909201905290565b60405163040a7bb160e41b81529091506001600160a01b037f000000000000000000000000000000000000000000000000000000000000000016906340a7bb1090611f27908b90309086908b908b90600401613d3b565b6040805180830381865afa158015611f43573d6000803e3d6000fd5b505050506040513d601f19601f82011682018060405250810190611f679190613d8f565b92509250509550959350505050565b6000611f828282612565565b905060ff8116611f9d57611f98858585856125c1565b610c43565b60001960ff821601611fb557611f988585858561263f565b60405162461bcd60e51b815260206004820152601c60248201527b4f4654436f72653a20756e6b6e6f776e207061636b6574207479706560201b604482015260640161093b565b600061200a87828481612848565b61201385612918565b50905061202288888884612940565b9050600081116120445760405162461bcd60e51b815260040161093b90613db3565b600061205387611e94846124fa565b9050612063888287878734612972565b86896001600160a01b03168961ffff1660008051602061404a8339815191528560405161209291815260200190565b60405180910390a450979650505050505050565b600080546001600160a01b038381166001600160a01b0319831681178455604051919092169283917f8be0079c531659141344cd1fd0a4f28419497f9722a3daafe3b4186f6b6457e09190a35050565b600061210e896001846001600160401b038916612848565b61211787612918565b5090506121268a8a8a84612940565b9050600081116121485760405162461bcd60e51b815260040161093b90613db3565b600061215f338a612158856124fa565b8a8a612b17565b905061216f8a8287878734612972565b888b6001600160a01b03168b61ffff1660008051602061404a8339815191528560405161219e91815260200190565b60405180910390a4509998505050505050505050565b6060816121c281601f61391e565b10156122015760405162461bcd60e51b815260206004820152600e60248201526d736c6963655f6f766572666c6f7760901b604482015260640161093b565b61220b828461391e565b8451101561224f5760405162461bcd60e51b8152602060048201526011602482015270736c6963655f6f75744f66426f756e647360781b604482015260640161093b565b60608215801561226e57604051915060008252602082016040526122b8565b6040519150601f8416801560200281840101858101878315602002848b0101015b818310156122a757805183526020928301920161228f565b5050858452601f01601f1916604052505b50949350505050565b60008060006122d4338a6121588b6124fa565b60405163040a7bb160e41b81529091506001600160a01b037f000000000000000000000000000000000000000000000000000000000000000016906340a7bb109061232b908d90309086908b908b90600401613d3b565b6040805180830381865afa158015612347573d6000803e3d6000fd5b505050506040513d601f19601f8201168201806040525081019061236b9190613d8f565b925092505097509795505050505050565b600033306001600160a01b038616148015906123aa5750806001600160a01b0316856001600160a01b031614155b156123ba576123ba858285611c6f565b6123c5858585611ce9565b50909392505050565b6000606060008060008661ffff166001600160401b038111156123f3576123f3613365565b6040519080825280601f01601f19166020018201604052801561241d576020820181803683370190505b50905060008087516020890160008d8df191503d92508683111561243f578692505b828152826000602083013e909890975095505050505050565b8180519060200120600560008761ffff1661ffff168152602001908152602001600020856040516124899190613de6565b9081526040805191829003602090810183206001600160401b0388166000908152915220919091557fe183f33de2837795525b4792ca4cd60535bd77c53b7e7030060bfcf5734d6b0c906124e69087908790879087908790613e02565b60405180910390a15050505050565b505050565b600080612505612b58565b61250f9084613e6a565b90506001600160401b03811115610b295760405162461bcd60e51b815260206004820152601a6024820152794f4654436f72653a20616d6f756e745344206f766572666c6f7760301b604482015260640161093b565b600061257282600161391e565b835110156125b85760405162461bcd60e51b8152602060048201526013602482015272746f55696e74385f6f75744f66426f756e647360681b604482015260640161093b565b50016001015190565b6000806125cd83612b7c565b90925090506001600160a01b0382166125e65761dead91505b60006125f182612bd6565b90506125fe878483612bf3565b9050826001600160a01b03168761ffff1660008051602061406a8339815191528360405161262e91815260200190565b60405180910390a350505050505050565b600080600080600061265086612c06565b945094509450945094506000600660008b61ffff1661ffff168152602001908152602001600020896040516126859190613de6565b90815260408051602092819003830190206001600160401b038b166000908152925281205460ff1691506126b885612bd6565b905081612726576126ca8b3083612bf3565b61ffff8c166000908152600660205260409081902090519192506001916126f2908d90613de6565b90815260408051602092819003830190206001600160401b038d16600090815292529020805460ff19169115159190911790555b6001600160a01b0386163b612778577f9aedf5fdba8716db3b6705ca00150643309995d4f818a249ed6dde6677e7792d8660405161276491906135ff565b60405180910390a150505050505050611ce3565b8a8a8a8a8a8a868a60008a612796578b6001600160401b0316612798565b5a5b90506000806127ca5a609663eaffd49a60e01b8e8e8e8d8d8d8d8d604051602401611a9b989796959493929190613e7e565b915091508115612823578751602089012060405161ffff8d16907fb8890edbfc1c74692f527444645f95489c3703cc2df42e4a366f5d06fa6cd88490612815908e908e908690613ef2565b60405180910390a250612830565b6128308b8b8b8b85612458565b50505050505050505050505050505050505050505050565b600061285383612c92565b61ffff808716600090815260026020908152604080832093891683529290522054909150806128c15760405162461bcd60e51b815260206004820152601a602482015279131e905c1c0e881b5a5b91d85cd31a5b5a5d081b9bdd081cd95d60321b604482015260640161093b565b6128cb838261391e565b821015610f9a5760405162461bcd60e51b815260206004820152601b60248201527a4c7a4170703a20676173206c696d697420697320746f6f206c6f7760281b604482015260640161093b565b600080612923612b58565b61292d9084613f20565b905061293981846139be565b9150915091565b6000336001600160a01b038616811461295e5761295e868285611c6f565b6129688684612ced565b5090949350505050565b61ffff861660009081526001602052604081208054612990906138c4565b80601f01602080910402602001604051908101604052809291908181526020018280546129bc906138c4565b8015612a095780601f106129de57610100808354040283529160200191612a09565b820191906000526020600020905b8154815290600101906020018083116129ec57829003601f168201915b505050505090508051600003612a7a5760405162461bcd60e51b815260206004820152603060248201527f4c7a4170703a2064657374696e6174696f6e20636861696e206973206e6f742060448201526f61207472757374656420736f7572636560801b606482015260840161093b565b612a85878751612e0f565b60405162c5803160e81b81526001600160a01b037f0000000000000000000000000000000000000000000000000000000000000000169063c5803100908490612adc908b9086908c908c908c908c90600401613f34565b6000604051808303818588803b158015612af557600080fd5b505af1158015612b09573d6000803e3d6000fd5b505050505050505050505050565b6060600185856001600160a01b0389168587604051602001612b3e96959493929190613f9b565b604051602081830303815290604052905095945050505050565b7f000000000000000000000000000000000000000000000000000000000000000090565b60008080612b8a8482612565565b60ff16148015612b9b575082516029145b612bb75760405162461bcd60e51b815260040161093b90614000565b612bc283600d612e80565b9150612bcf836021612ee5565b9050915091565b6000612be0612b58565b610b29906001600160401b038416614032565b6000612bff8383612f42565b5092915050565b600080806060816001612c198783612565565b60ff1614612c395760405162461bcd60e51b815260040161093b90614000565b612c4486600d612e80565b9350612c51866021612ee5565b9250612c5e866029612ff1565b9450612c6b866049612ee5565b9050612c876051808851612c7f91906139be565b8891906121b4565b915091939590929450565b6000602282511015612ce55760405162461bcd60e51b815260206004820152601c60248201527b4c7a4170703a20696e76616c69642061646170746572506172616d7360201b604482015260640161093b565b506022015190565b6001600160a01b038216612d4d5760405162461bcd60e51b815260206004820152602160248201527f45524332303a206275726e2066726f6d20746865207a65726f206164647265736044820152607360f81b606482015260840161093b565b6001600160a01b03821660009081526007602052604090205481811015612dc15760405162461bcd60e51b815260206004820152602260248201527f45524332303a206275726e20616d6f756e7420657863656564732062616c616e604482015261636560f01b606482015260840161093b565b6001600160a01b038316600081815260076020908152604080832086860390556009805487900390555185815291929160008051602061408a833981519152910160405180910390a3505050565b61ffff821660009081526003602052604081205490819003612e3057506127105b808211156124f55760405162461bcd60e51b815260206004820181905260248201527f4c7a4170703a207061796c6f61642073697a6520697320746f6f206c61726765604482015260640161093b565b6000612e8d82601461391e565b83511015612ed55760405162461bcd60e51b8152602060048201526015602482015274746f416464726573735f6f75744f66426f756e647360581b604482015260640161093b565b500160200151600160601b900490565b6000612ef282600861391e565b83511015612f395760405162461bcd60e51b8152602060048201526014602482015273746f55696e7436345f6f75744f66426f756e647360601b604482015260640161093b565b50016008015190565b6001600160a01b038216612f985760405162461bcd60e51b815260206004820152601f60248201527f45524332303a206d696e7420746f20746865207a65726f206164647265737300604482015260640161093b565b8060096000828254612faa919061391e565b90915550506001600160a01b03821660008181526007602090815260408083208054860190555184815260008051602061408a833981519152910160405180910390a35050565b6000612ffe82602061391e565b835110156130465760405162461bcd60e51b8152602060048201526015602482015274746f427974657333325f6f75744f66426f756e647360581b604482015260640161093b565b50016020015190565b803561ffff8116811461306157600080fd5b919050565b60008083601f84011261307857600080fd5b5081356001600160401b0381111561308f57600080fd5b6020830191508360208285010111156130a757600080fd5b9250929050565b80356001600160401b038116811461306157600080fd5b600080600080600080608087890312156130de57600080fd5b6130e78761304f565b955060208701356001600160401b038082111561310357600080fd5b61310f8a838b01613066565b909750955085915061312360408a016130ae565b9450606089013591508082111561313957600080fd5b5061314689828a01613066565b979a9699509497509295939492505050565b60006020828403121561316a57600080fd5b81356001600160e01b0319811681146112a757600080fd5b60005b8381101561319d578181015183820152602001613185565b50506000910152565b600081518084526131be816020860160208601613182565b601f01601f19169290920160200192915050565b6020815260006112a760208301846131a6565b6000602082840312156131f757600080fd5b6112a78261304f565b6001600160a01b03811681146119bf57600080fd5b6000806040838503121561322857600080fd5b823561323381613200565b946020939093013593505050565b6000806040838503121561325457600080fd5b6132338361304f565b60008060006060848603121561327257600080fd5b833561327d81613200565b9250602084013561328d81613200565b929592945050506040919091013590565b8035801515811461306157600080fd5b60008060008060008060a087890312156132c757600080fd5b6132d08761304f565b955060208701359450604087013593506132ec6060880161329e565b925060808701356001600160401b0381111561330757600080fd5b61314689828a01613066565b60008060006040848603121561332857600080fd5b6133318461304f565b925060208401356001600160401b0381111561334c57600080fd5b61335886828701613066565b9497909650939450505050565b634e487b7160e01b600052604160045260246000fd5b604051601f8201601f191681016001600160401b03811182821017156133a3576133a3613365565b604052919050565b60006001600160401b038211156133c4576133c4613365565b50601f01601f191660200190565b6000806000606084860312156133e757600080fd5b6133f08461304f565b925060208401356001600160401b0381111561340b57600080fd5b8401601f8101861361341c57600080fd5b803561342f61342a826133ab565b61337b565b81815287602083850101111561344457600080fd5b81602084016020830137600060208383010152809450505050613469604085016130ae565b90509250925092565b60006060828403121561348457600080fd5b50919050565b600080600080600060a086880312156134a257600080fd5b85356134ad81613200565b94506134bb6020870161304f565b9350604086013592506060860135915060808601356001600160401b038111156134e457600080fd5b6134f088828901613472565b9150509295509295909350565b60006020828403121561350f57600080fd5b81356112a781613200565b60008060008060008060008060e0898b03121561353657600080fd5b883561354181613200565b975061354f60208a0161304f565b9650604089013595506060890135945060808901356001600160401b038082111561357957600080fd5b6135858c838d01613066565b909650945084915061359960a08c016130ae565b935060c08b01359150808211156135af57600080fd5b506135bc8b828c01613472565b9150509295985092959890939650565b600080604083850312156135df57600080fd5b6135e88361304f565b91506135f66020840161304f565b90509250929050565b6001600160a01b0391909116815260200190565b600080600080600080600080600060e08a8c03121561363157600080fd5b61363a8a61304f565b985060208a0135975060408a0135965060608a01356001600160401b038082111561366457600080fd5b6136708d838e01613066565b909850965086915061368460808d016130ae565b955061369260a08d0161329e565b945060c08c01359150808211156136a857600080fd5b506136b58c828d01613066565b915080935050809150509295985092959850929598565b6000806000806000608086880312156136e457600080fd5b6136ed8661304f565b94506136fb6020870161304f565b93506040860135925060608601356001600160401b0381111561371d57600080fd5b61372988828901613066565b969995985093965092949392505050565b6000806040838503121561374d57600080fd5b823561375881613200565b9150602083013561376881613200565b809150509250929050565b60008060006060848603121561378857600080fd5b6137918461304f565b925061379f6020850161304f565b9150604084013590509250925092565b6000806000806000806000806000806101008b8d0312156137cf57600080fd5b6137d88b61304f565b995060208b01356001600160401b03808211156137f457600080fd5b6138008e838f01613066565b909b50995089915061381460408e016130ae565b985060608d0135975060808d0135915061382d82613200565b90955060a08c0135945060c08c0135908082111561384a57600080fd5b506138578d828e01613066565b9150809450508092505060e08b013590509295989b9194979a5092959850565b6000806000806080858703121561388d57600080fd5b6138968561304f565b93506138a46020860161304f565b925060408501356138b481613200565b9396929550929360600135925050565b600181811c908216806138d857607f821691505b60208210810361348457634e487b7160e01b600052602260045260246000fd5b8183823760009101908152919050565b634e487b7160e01b600052601160045260246000fd5b80820180821115610b2957610b29613908565b81835281816020850137506000828201602090810191909152601f909101601f19169091010190565b61ffff84168152604060208201526000611a6a604083018486613931565b6000808335601e1984360301811261398f57600080fd5b8301803591506001600160401b038211156139a957600080fd5b6020019150368190038213156130a757600080fd5b81810381811115610b2957610b29613908565b8284823760609190911b6001600160601b0319169101908152601401919050565b601f8211156124f557600081815260208120601f850160051c81016020861015613a195750805b601f850160051c820191505b81811015610f9a57828155600101613a25565b600019600383901b1c191660019190911b1790565b81516001600160401b03811115613a6657613a66613365565b613a7a81613a7484546138c4565b846139f2565b602080601f831160018114613aa95760008415613a975750858301515b613aa18582613a38565b865550610f9a565b600085815260208120601f198616915b82811015613ad857888601518255948401946001909101908401613ab9565b5085821015613af65787850151600019600388901b60f8161c191681555b5050505050600190811b01905550565b600061ffff808816835280871660208401525084604083015260806060830152613b34608083018486613931565b979650505050505050565b61ffff86168152608060208201526000613b5d608083018688613931565b6001600160401b0394909416604083015250606001529392505050565b61ffff8916815260c060208201526000613b9860c08301898b613931565b6001600160401b0388166040840152606083018790526080830186905282810360a0840152613bc8818587613931565b9b9a5050505050505050505050565b6001600160401b03831115613bee57613bee613365565b613c0283613bfc83546138c4565b836139f2565b6000601f841160018114613c305760008515613c1e5750838201355b613c288682613a38565b845550610c43565b600083815260209020601f19861690835b82811015613c615786850135825560209485019460019092019101613c41565b5086821015613c7e5760001960f88860031b161c19848701351681555b505060018560011b0183555050505050565b600060208284031215613ca257600080fd5b81516001600160401b03811115613cb857600080fd5b8201601f81018413613cc957600080fd5b8051613cd761342a826133ab565b818152856020838501011115613cec57600080fd5b611a6a826020830160208601613182565b61ffff85168152608060208201526000613d1a60808301866131a6565b6001600160401b03851660408401528281036060840152613b3481856131a6565b61ffff861681526001600160a01b038516602082015260a060408201819052600090613d69908301866131a6565b84151560608401528281036080840152613d8381856131a6565b98975050505050505050565b60008060408385031215613da257600080fd5b505080516020909101519092909150565b60208082526019908201527813d19510dbdc994e88185b5bdd5b9d081d1bdbc81cdb585b1b603a1b604082015260600190565b60008251613df8818460208701613182565b9190910192915050565b61ffff8616815260a060208201526000613e1f60a08301876131a6565b6001600160401b03861660408401528281036060840152613e4081866131a6565b90508281036080840152613d8381856131a6565b634e487b7160e01b600052601260045260246000fd5b600082613e7957613e79613e54565b500490565b600061010061ffff8b168352806020840152613e9c8184018b6131a6565b6001600160401b038a166040850152606084018990526001600160a01b038816608085015260a0840187905283810360c08501529050613edc81866131a6565b9150508260e08301529998505050505050505050565b606081526000613f0560608301866131a6565b6001600160401b039490941660208301525060400152919050565b600082613f2f57613f2f613e54565b500690565b61ffff8716815260c060208201526000613f5160c08301886131a6565b8281036040840152613f6381886131a6565b6001600160a01b0387811660608601528616608085015283810360a08501529050613f8e81856131a6565b9998505050505050505050565b6001600160f81b031960f888901b168152600181018690526001600160c01b031960c086811b821660218401526029830186905284901b1660498201528151600090613fee816051850160208701613182565b91909101605101979650505050505050565b60208082526018908201527713d19510dbdc994e881a5b9d985b1a59081c185e5b1bd85960421b604082015260600190565b8082028115828204841417610b2957610b2961390856fed81fc9b8523134ed613870ed029d6170cbb73aa6a6bc311b9a642689fb9df59abf551ec93859b170f9b2141bd9298bf3f64322c6f7beb2543a0cb669834118bfddf252ad1be2c89b69c2b068fc378daa952ba7f163c4a11628f55a4df523b3efa26469706673582212209ce497e95f14aac322ac1698c3263c7e12d53e470ae42485cddf92c714eb672064736f6c63430008110033",
  "devdoc": {
    "kind": "dev",
    "methods": {
      "allowance(address,address)": {
        "details": "See {IERC20-allowance}."
      },
      "approve(address,uint256)": {
        "details": "See {IERC20-approve}. NOTE: If `amount` is the maximum `uint256`, the allowance is not updated on `transferFrom`. This is semantically equivalent to an infinite approval. Requirements: - `spender` cannot be the zero address."
      },
      "balanceOf(address)": {
        "details": "See {IERC20-balanceOf}."
      },
      "circulatingSupply()": {
        "details": "returns the circulating amount of tokens on current chain"
      },
      "decimals()": {
        "details": "Returns the number of decimals used to get its user representation. For example, if `decimals` equals `2`, a balance of `505` tokens should be displayed to a user as `5.05` (`505 / 10 ** 2`). Tokens usually opt for a value of 18, imitating the relationship between Ether and Wei. This is the default value returned by this function, unless it's overridden. NOTE: This information is only used for _display_ purposes: it in no way affects any of the arithmetic of the contract, including {IERC20-balanceOf} and {IERC20-transfer}."
      },
      "decreaseAllowance(address,uint256)": {
        "details": "Atomically decreases the allowance granted to `spender` by the caller. This is an alternative to {approve} that can be used as a mitigation for problems described in {IERC20-approve}. Emits an {Approval} event indicating the updated allowance. Requirements: - `spender` cannot be the zero address. - `spender` must have allowance for the caller of at least `subtractedValue`."
      },
      "estimateSendFee(uint16,bytes32,uint256,bool,bytes)": {
        "details": "estimate send token `_tokenId` to (`_dstChainId`, `_toAddress`) _dstChainId - L0 defined chain id to send tokens too _toAddress - dynamic bytes array which contains the address to whom you are sending tokens to on the dstChain _amount - amount of the tokens to transfer _useZro - indicates to use zro to pay L0 fees _adapterParam - flexible bytes array to indicate messaging adapter services in L0"
      },
      "increaseAllowance(address,uint256)": {
        "details": "Atomically increases the allowance granted to `spender` by the caller. This is an alternative to {approve} that can be used as a mitigation for problems described in {IERC20-approve}. Emits an {Approval} event indicating the updated allowance. Requirements: - `spender` cannot be the zero address."
      },
      "name()": {
        "details": "Returns the name of the token."
      },
      "owner()": {
        "details": "Returns the address of the current owner."
      },
      "renounceOwnership()": {
        "details": "Leaves the contract without owner. It will not be possible to call `onlyOwner` functions. Can only be called by the current owner. NOTE: Renouncing ownership will leave the contract without an owner, thereby disabling any functionality that is only available to the owner."
      },
      "sendFrom(address,uint16,bytes32,uint256,(address,address,bytes))": {
        "details": "send `_amount` amount of token to (`_dstChainId`, `_toAddress`) from `_from` `_from` the owner of token `_dstChainId` the destination chain identifier `_toAddress` can be any size depending on the `dstChainId`. `_amount` the quantity of tokens in wei `_refundAddress` the address LayerZero refunds if too much message fee is sent `_zroPaymentAddress` set to address(0x0) if not paying in ZRO (LayerZero Token) `_adapterParams` is a flexible bytes array to indicate messaging adapter services"
      },
      "symbol()": {
        "details": "Returns the symbol of the token, usually a shorter version of the name."
      },
      "token()": {
        "details": "returns the address of the ERC20 token"
      },
      "totalSupply()": {
        "details": "See {IERC20-totalSupply}."
      },
      "transfer(address,uint256)": {
        "details": "See {IERC20-transfer}. Requirements: - `to` cannot be the zero address. - the caller must have a balance of at least `amount`."
      },
      "transferFrom(address,address,uint256)": {
        "details": "See {IERC20-transferFrom}. Emits an {Approval} event indicating the updated allowance. This is not required by the EIP. See the note at the beginning of {ERC20}. NOTE: Does not update the allowance if the current allowance is the maximum `uint256`. Requirements: - `from` and `to` cannot be the zero address. - `from` must have a balance of at least `amount`. - the caller must have allowance for ``from``'s tokens of at least `amount`."
      },
      "transferOwnership(address)": {
        "details": "Transfers ownership of the contract to a new account (`newOwner`). Can only be called by the current owner."
      }
    },
    "version": 1
  },
  "userdoc": {
    "kind": "user",
    "methods": {},
    "version": 1
  },
  "storageLayout": {
    "storage": [
      {
        "astId": 2672,
        "contract": "contracts/token/Prime_L2.sol:Prime_L2",
        "label": "_owner",
        "offset": 0,
        "slot": "0",
        "type": "t_address"
      },
      {
        "astId": 455,
        "contract": "contracts/token/Prime_L2.sol:Prime_L2",
        "label": "trustedRemoteLookup",
        "offset": 0,
        "slot": "1",
        "type": "t_mapping(t_uint16,t_bytes_storage)"
      },
      {
        "astId": 461,
        "contract": "contracts/token/Prime_L2.sol:Prime_L2",
        "label": "minDstGasLookup",
        "offset": 0,
        "slot": "2",
        "type": "t_mapping(t_uint16,t_mapping(t_uint16,t_uint256))"
      },
      {
        "astId": 465,
        "contract": "contracts/token/Prime_L2.sol:Prime_L2",
        "label": "payloadSizeLimitLookup",
        "offset": 0,
        "slot": "3",
        "type": "t_mapping(t_uint16,t_uint256)"
      },
      {
        "astId": 467,
        "contract": "contracts/token/Prime_L2.sol:Prime_L2",
        "label": "precrime",
        "offset": 0,
        "slot": "4",
        "type": "t_address"
      },
      {
        "astId": 997,
        "contract": "contracts/token/Prime_L2.sol:Prime_L2",
        "label": "failedMessages",
        "offset": 0,
        "slot": "5",
        "type": "t_mapping(t_uint16,t_mapping(t_bytes_memory_ptr,t_mapping(t_uint64,t_bytes32)))"
      },
      {
        "astId": 1618,
        "contract": "contracts/token/Prime_L2.sol:Prime_L2",
        "label": "creditedPackets",
        "offset": 0,
        "slot": "6",
        "type": "t_mapping(t_uint16,t_mapping(t_bytes_memory_ptr,t_mapping(t_uint64,t_bool)))"
      },
      {
        "astId": 2793,
        "contract": "contracts/token/Prime_L2.sol:Prime_L2",
        "label": "_balances",
        "offset": 0,
        "slot": "7",
        "type": "t_mapping(t_address,t_uint256)"
      },
      {
        "astId": 2799,
        "contract": "contracts/token/Prime_L2.sol:Prime_L2",
        "label": "_allowances",
        "offset": 0,
        "slot": "8",
        "type": "t_mapping(t_address,t_mapping(t_address,t_uint256))"
      },
      {
        "astId": 2801,
        "contract": "contracts/token/Prime_L2.sol:Prime_L2",
        "label": "_totalSupply",
        "offset": 0,
        "slot": "9",
        "type": "t_uint256"
      },
      {
        "astId": 2803,
        "contract": "contracts/token/Prime_L2.sol:Prime_L2",
        "label": "_name",
        "offset": 0,
        "slot": "10",
        "type": "t_string_storage"
      },
      {
        "astId": 2805,
        "contract": "contracts/token/Prime_L2.sol:Prime_L2",
        "label": "_symbol",
        "offset": 0,
        "slot": "11",
        "type": "t_string_storage"
      }
    ],
    "types": {
      "t_address": {
        "encoding": "inplace",
        "label": "address",
        "numberOfBytes": "20"
      },
      "t_bool": {
        "encoding": "inplace",
        "label": "bool",
        "numberOfBytes": "1"
      },
      "t_bytes32": {
        "encoding": "inplace",
        "label": "bytes32",
        "numberOfBytes": "32"
      },
      "t_bytes_memory_ptr": {
        "encoding": "bytes",
        "label": "bytes",
        "numberOfBytes": "32"
      },
      "t_bytes_storage": {
        "encoding": "bytes",
        "label": "bytes",
        "numberOfBytes": "32"
      },
      "t_mapping(t_address,t_mapping(t_address,t_uint256))": {
        "encoding": "mapping",
        "key": "t_address",
        "label": "mapping(address => mapping(address => uint256))",
        "numberOfBytes": "32",
        "value": "t_mapping(t_address,t_uint256)"
      },
      "t_mapping(t_address,t_uint256)": {
        "encoding": "mapping",
        "key": "t_address",
        "label": "mapping(address => uint256)",
        "numberOfBytes": "32",
        "value": "t_uint256"
      },
      "t_mapping(t_bytes_memory_ptr,t_mapping(t_uint64,t_bool))": {
        "encoding": "mapping",
        "key": "t_bytes_memory_ptr",
        "label": "mapping(bytes => mapping(uint64 => bool))",
        "numberOfBytes": "32",
        "value": "t_mapping(t_uint64,t_bool)"
      },
      "t_mapping(t_bytes_memory_ptr,t_mapping(t_uint64,t_bytes32))": {
        "encoding": "mapping",
        "key": "t_bytes_memory_ptr",
        "label": "mapping(bytes => mapping(uint64 => bytes32))",
        "numberOfBytes": "32",
        "value": "t_mapping(t_uint64,t_bytes32)"
      },
      "t_mapping(t_uint16,t_bytes_storage)": {
        "encoding": "mapping",
        "key": "t_uint16",
        "label": "mapping(uint16 => bytes)",
        "numberOfBytes": "32",
        "value": "t_bytes_storage"
      },
      "t_mapping(t_uint16,t_mapping(t_bytes_memory_ptr,t_mapping(t_uint64,t_bool)))": {
        "encoding": "mapping",
        "key": "t_uint16",
        "label": "mapping(uint16 => mapping(bytes => mapping(uint64 => bool)))",
        "numberOfBytes": "32",
        "value": "t_mapping(t_bytes_memory_ptr,t_mapping(t_uint64,t_bool))"
      },
      "t_mapping(t_uint16,t_mapping(t_bytes_memory_ptr,t_mapping(t_uint64,t_bytes32)))": {
        "encoding": "mapping",
        "key": "t_uint16",
        "label": "mapping(uint16 => mapping(bytes => mapping(uint64 => bytes32)))",
        "numberOfBytes": "32",
        "value": "t_mapping(t_bytes_memory_ptr,t_mapping(t_uint64,t_bytes32))"
      },
      "t_mapping(t_uint16,t_mapping(t_uint16,t_uint256))": {
        "encoding": "mapping",
        "key": "t_uint16",
        "label": "mapping(uint16 => mapping(uint16 => uint256))",
        "numberOfBytes": "32",
        "value": "t_mapping(t_uint16,t_uint256)"
      },
      "t_mapping(t_uint16,t_uint256)": {
        "encoding": "mapping",
        "key": "t_uint16",
        "label": "mapping(uint16 => uint256)",
        "numberOfBytes": "32",
        "value": "t_uint256"
      },
      "t_mapping(t_uint64,t_bool)": {
        "encoding": "mapping",
        "key": "t_uint64",
        "label": "mapping(uint64 => bool)",
        "numberOfBytes": "32",
        "value": "t_bool"
      },
      "t_mapping(t_uint64,t_bytes32)": {
        "encoding": "mapping",
        "key": "t_uint64",
        "label": "mapping(uint64 => bytes32)",
        "numberOfBytes": "32",
        "value": "t_bytes32"
      },
      "t_string_storage": {
        "encoding": "bytes",
        "label": "string",
        "numberOfBytes": "32"
      },
      "t_uint16": {
        "encoding": "inplace",
        "label": "uint16",
        "numberOfBytes": "2"
      },
      "t_uint256": {
        "encoding": "inplace",
        "label": "uint256",
        "numberOfBytes": "32"
      },
      "t_uint64": {
        "encoding": "inplace",
        "label": "uint64",
        "numberOfBytes": "8"
      }
    }
  }
}