{
  "address": "0x62Cf82FB0484aF382714cD09296260edc1DC0c6c",
  "abi": [
    {
      "inputs": [
        {
          "internalType": "address",
          "name": "_contractOwner",
          "type": "address"
        },
        {
          "internalType": "address",
          "name": "_diamondCutFacet",
          "type": "address"
        }
      ],
      "stateMutability": "payable",
      "type": "constructor"
    },
    {
      "anonymous": false,
      "inputs": [
        {
          "indexed": true,
          "internalType": "address",
          "name": "newOwner",
          "type": "address"
        }
      ],
      "name": "OwnershipProposalAccepted",
      "type": "event"
    },
    {
      "anonymous": false,
      "inputs": [
        {
          "indexed": true,
          "internalType": "address",
          "name": "owner",
          "type": "address"
        },
        {
          "indexed": true,
          "internalType": "address",
          "name": "proposed",
          "type": "address"
        }
      ],
      "name": "OwnershipProposalCreated",
      "type": "event"
    },
    {
      "anonymous": false,
      "inputs": [
        {
          "indexed": true,
          "internalType": "address",
          "name": "newPauseAdmin",
          "type": "address"
        }
      ],
      "name": "PauseAdminOwnershipProposalAccepted",
      "type": "event"
    },
    {
      "anonymous": false,
      "inputs": [
        {
          "indexed": true,
          "internalType": "address",
          "name": "pauseAdmin",
          "type": "address"
        },
        {
          "indexed": true,
          "internalType": "address",
          "name": "proposed",
          "type": "address"
        }
      ],
      "name": "PauseAdminOwnershipProposalCreated",
      "type": "event"
    },
    {
      "stateMutability": "payable",
      "type": "fallback"
    },
    {
      "inputs": [],
      "name": "acceptBeaconOwnership",
      "outputs": [],
      "stateMutability": "nonpayable",
      "type": "function"
    },
    {
      "inputs": [],
      "name": "acceptBeaconPauseAdminOwnership",
      "outputs": [],
      "stateMutability": "nonpayable",
      "type": "function"
    },
    {
      "inputs": [
        {
          "internalType": "bytes4",
          "name": "methodSig",
          "type": "bytes4"
        }
      ],
      "name": "canBeExecutedWhenPaused",
      "outputs": [
        {
          "internalType": "bool",
          "name": "",
          "type": "bool"
        }
      ],
      "stateMutability": "view",
      "type": "function"
    },
    {
      "inputs": [],
      "name": "getStatus",
      "outputs": [
        {
          "internalType": "bool",
          "name": "",
          "type": "bool"
        }
      ],
      "stateMutability": "view",
      "type": "function"
    },
    {
      "inputs": [
        {
          "internalType": "bytes4",
          "name": "funcSignature",
          "type": "bytes4"
        }
      ],
      "name": "implementation",
      "outputs": [
        {
          "internalType": "address",
          "name": "",
          "type": "address"
        }
      ],
      "stateMutability": "view",
      "type": "function"
    },
    {
      "inputs": [],
      "name": "implementation",
      "outputs": [
        {
          "internalType": "address",
          "name": "",
          "type": "address"
        }
      ],
      "stateMutability": "view",
      "type": "function"
    },
    {
      "inputs": [
        {
          "internalType": "address",
          "name": "_newOwner",
          "type": "address"
        }
      ],
      "name": "proposeBeaconOwnershipTransfer",
      "outputs": [],
      "stateMutability": "nonpayable",
      "type": "function"
    },
    {
      "inputs": [
        {
          "internalType": "address",
          "name": "_newPauseAdmin",
          "type": "address"
        }
      ],
      "name": "proposeBeaconPauseAdminOwnershipTransfer",
      "outputs": [],
      "stateMutability": "nonpayable",
      "type": "function"
    },
    {
      "inputs": [
        {
          "internalType": "bytes4[]",
          "name": "methodSigs",
          "type": "bytes4[]"
        },
        {
          "internalType": "bool[]",
          "name": "values",
          "type": "bool[]"
        }
      ],
      "name": "setPausedMethodExemptions",
      "outputs": [],
      "stateMutability": "nonpayable",
      "type": "function"
    }
  ],
  "transactionHash": "0x7aa37bae3c2a7744178961e65563d55c134b67ac0db270ece418fa6ca6298ebf",
  "args": [
    "0xbAc44698844f13cF0AF423b19040659b688ef036",
    "0x44ac7Fdf6726777fa23cd39bA26a69593803CC77"
  ],
  "numDeployments": 1,
  "solcInputHash": "6ec66d19fb7ea16fdbc7d88b9e1b9190",
  "bytecode": "0x6080604052604051620033b2380380620033b2833981016040819052620000269162001320565b6200003c826200023c60201b620007291760201c565b6200005282620002d160201b620007ac1760201c565b604080516001808252818301909252600091816020015b6040805160608082018352600080835260208301529181019190915281526020019060019003908162000069575050604080516003808252608082019092529192506000919060208201606080368337019050509050631f931c1c60e01b81600081518110620000dd57620000dd62001358565b6001600160e01b0319909216602092830291909101909101528051638456cb5960e01b908290600190811062000117576200011762001358565b6001600160e01b0319909216602092830291909101909101528051631fa5d41d60e11b908290600290811062000151576200015162001358565b6001600160e01b031990921660209283029190910182015260408051606081019091526001600160a01b0385168152908101600081526020018281525082600081518110620001a457620001a462001358565b6020026020010181905250620001d7826000604051806020016040528060008152506200034260201b6200080b1760201c565b6000620001ee620005a460201b62000a231760201c565b6307e4c70760e21b600090815260049091016020526040808220805460ff199081166001908117909255631fa5d41d60e11b8452919092208054909116909117905550620015ae9350505050565b7f8d5bb42e0ac1496a2c326edc9c00758985246e6c2bb146d6c2f4a0d509e0960b80546001600160a01b031981166001600160a01b038481169182179093556040517f8d5bb42e0ac1496a2c326edc9c00758985246e6c2bb146d6c2f4a0d509e0960a939092169182907f8be0079c531659141344cd1fd0a4f28419497f9722a3daafe3b4186f6b6457e090600090a3505050565b7f8d5bb42e0ac1496a2c326edc9c00758985246e6c2bb146d6c2f4a0d509e0960a80546001600160a01b031981166001600160a01b03848116918217845560405192169182907fa9b6c2526b044187e4744e292867fd1f6b7e6be882e40ec94d7949b26f8088b290600090a3505050565b60005b83518110156200055557600084828151811062000366576200036662001358565b6020026020010151602001519050600060028111156200038a576200038a6200136e565b8160028111156200039f576200039f6200136e565b03620003fd57620003f7858381518110620003be57620003be62001358565b602002602001015160000151868481518110620003df57620003df62001358565b602002602001015160400151620005b760201b60201c565b6200053f565b60018160028111156200041457620004146200136e565b036200046c57620003f785838151811062000433576200043362001358565b60200260200101516000015186848151811062000454576200045462001358565b6020026020010151604001516200085260201b60201c565b60028160028111156200048357620004836200136e565b03620004db57620003f7858381518110620004a257620004a262001358565b602002602001015160000151868481518110620004c357620004c362001358565b60200260200101516040015162000af860201b60201c565b60405162461bcd60e51b815260206004820152602e60248201527f4469616d6f6e6453746f726167654c69624375743a20496e636f72726563742060448201526d2330b1b2ba21baba20b1ba34b7b760911b60648201526084015b60405180910390fd5b50806200054c816200139a565b91505062000345565b507f8faa70878671ccd212d20771b795c50af8fd3ff6cf27f4bde57e5d4de0aeb6738383836040516200058b939291906200140a565b60405180910390a16200059f828262000c65565b505050565b600080516020620032f883398151915290565b6000815111620006145760405162461bcd60e51b81526020600482015260326024820152600080516020620032d88339815191526044820152711c9cc81a5b88199858d95d081d1bc818dd5d60721b606482015260840162000536565b600080516020620032f88339815191526001600160a01b038316620006875760405162461bcd60e51b815260206004820152603360248201526000805160206200334383398151915260448201527263616e2774206265206164647265737328302960681b606482015260840162000536565b6001600160a01b0383166000908152600182016020526040812054906001600160601b0382169003620006c057620006c0828562000ea5565b60005b83518110156200084b576000848281518110620006e457620006e462001358565b6020908102919091018101516001600160e01b031981166000908152918690526040909120549091506001600160a01b031680156200078c5760405162461bcd60e51b815260206004820152603c60248201527f4469616d6f6e6453746f726167654c69624375743a2043616e2774206164642060448201527f66756e6374696f6e207468617420616c72656164792065786973747300000000606482015260840162000536565b6001600160e01b0319821660008181526020878152604080832080546001600160a01b03908116600160a01b6001600160601b038c16021782558c168085526001808c0185529285208054938401815585528385206008840401805463ffffffff60079095166004026101000a948502191660e08a901c94909402939093179092559390925287905281546001600160a01b03191617905583620008308162001511565b9450505050808062000842906200139a565b915050620006c3565b5050505050565b6000815111620008af5760405162461bcd60e51b81526020600482015260326024820152600080516020620032d88339815191526044820152711c9cc81a5b88199858d95d081d1bc818dd5d60721b606482015260840162000536565b600080516020620032f88339815191526001600160a01b038316620009225760405162461bcd60e51b815260206004820152603360248201526000805160206200334383398151915260448201527263616e2774206265206164647265737328302960681b606482015260840162000536565b6001600160a01b0383166000908152600182016020526040812054906001600160601b03821690036200095b576200095b828562000ea5565b60005b83518110156200084b5760008482815181106200097f576200097f62001358565b6020908102919091018101516001600160e01b031981166000908152918690526040909120549091506001600160a01b03908116908716810362000a2c5760405162461bcd60e51b815260206004820152603f60248201527f4469616d6f6e6453746f726167654c69624375743a2043616e2774207265706c60448201527f6163652066756e6374696f6e20776974682073616d652066756e6374696f6e00606482015260840162000536565b62000a3985828462000f12565b6001600160e01b0319821660008181526020878152604080832080546001600160a01b03908116600160a01b6001600160601b038c16021782558c168085526001808c0185529285208054938401815585528385206008840401805463ffffffff60079095166004026101000a948502191660e08a901c94909402939093179092559390925287905281546001600160a01b0319161790558362000add8162001511565b9450505050808062000aef906200139a565b9150506200095e565b600081511162000b555760405162461bcd60e51b81526020600482015260326024820152600080516020620032d88339815191526044820152711c9cc81a5b88199858d95d081d1bc818dd5d60721b606482015260840162000536565b600080516020620032f88339815191526001600160a01b0383161562000be45760405162461bcd60e51b815260206004820152603d60248201527f4469616d6f6e6453746f726167654c69624375743a2052656d6f76652066616360448201527f65742061646472657373206d7573742062652061646472657373283029000000606482015260840162000536565b60005b825181101562000c5f57600083828151811062000c085762000c0862001358565b6020908102919091018101516001600160e01b031981166000908152918590526040909120549091506001600160a01b031662000c4784828462000f12565b5050808062000c56906200139a565b91505062000be7565b50505050565b6001600160a01b03821662000cfb5780511562000cf75760405162461bcd60e51b815260206004820152604360248201527f4469616d6f6e6453746f726167654c69624375743a205f696e6974206973206160448201527f646472657373283029206275745f63616c6c64617461206973206e6f7420656d60648201526270747960e81b608482015260a40162000536565b5050565b600081511162000d825760405162461bcd60e51b8152602060048201526044602482018190527f4469616d6f6e6453746f726167654c69624375743a205f63616c6c6461746120908201527f697320656d70747920627574205f696e6974206973206e6f74206164647265736064820152637328302960e01b608482015260a40162000536565b6001600160a01b038216301462000db85762000db8826040518060600160405280602f815260200162003363602f9139620012df565b600080836001600160a01b03168360405162000dd5919062001542565b600060405180830381855af49150503d806000811462000e12576040519150601f19603f3d011682016040523d82523d6000602084013e62000e17565b606091505b50915091508162000c5f5780511562000e46578060405162461bcd60e51b815260040162000536919062001560565b60405162461bcd60e51b815260206004820152602d60248201527f4469616d6f6e6453746f726167654c69624375743a205f696e69742066756e6360448201526c1d1a5bdb881c995d995c9d1959609a1b606482015260840162000536565b62000eca816040518060600160405280602b815260200162003318602b9139620012df565b6002820180546001600160a01b0390921660008181526001948501602090815260408220860185905594840183559182529290200180546001600160a01b0319169091179055565b6001600160a01b03821662000f7f5760405162461bcd60e51b815260206004820152603e60248201526000805160206200339283398151915260448201527f76652066756e6374696f6e207468617420646f65736e27742065786973740000606482015260840162000536565b306001600160a01b0383160362000fee5760405162461bcd60e51b815260206004820152603560248201526000805160206200339283398151915260448201527f766520696d6d757461626c652066756e6374696f6e0000000000000000000000606482015260840162000536565b6001600160e01b03198116600090815260208481526040808320546001600160a01b0386168452600180880190935290832054600160a01b9091046001600160601b031692916200103f916200157c565b905080821462001138576001600160a01b0384166000908152600186016020526040812080548390811062001078576200107862001358565b600091825260208083206008830401546001600160a01b038916845260018a019091526040909220805460079092166004026101000a90920460e01b925082919085908110620010cc57620010cc62001358565b600091825260208083206008830401805463ffffffff60079094166004026101000a938402191660e09590951c929092029390931790556001600160e01b03199290921682528690526040902080546001600160a01b0316600160a01b6001600160601b038516021790555b6001600160a01b0384166000908152600186016020526040902080548062001164576200116462001598565b60008281526020808220600860001990940193840401805463ffffffff600460078716026101000a0219169055919092556001600160e01b031985168252869052604081208190558190036200084b576002850154600090620011ca906001906200157c565b6001600160a01b0386166000908152600180890160205260409091200154909150808214620012805760008760020183815481106200120d576200120d62001358565b6000918252602090912001546002890180546001600160a01b03909216925082918490811062001241576200124162001358565b600091825260208083209190910180546001600160a01b0319166001600160a01b03948516179055929091168152600189810190925260409020018190555b8660020180548062001296576200129662001598565b60008281526020808220830160001990810180546001600160a01b03191690559092019092556001600160a01b0388168252600189810190915260408220015550505050505050565b813b818162000c5f5760405162461bcd60e51b815260040162000536919062001560565b80516001600160a01b03811681146200131b57600080fd5b919050565b600080604083850312156200133457600080fd5b6200133f8362001303565b91506200134f6020840162001303565b90509250929050565b634e487b7160e01b600052603260045260246000fd5b634e487b7160e01b600052602160045260246000fd5b634e487b7160e01b600052601160045260246000fd5b600060018201620013af57620013af62001384565b5060010190565b60005b83811015620013d3578181015183820152602001620013b9565b50506000910152565b60008151808452620013f6816020860160208601620013b6565b601f01601f19169290920160200192915050565b60006060808301818452808751808352608092508286019150828160051b8701016020808b0160005b84811015620014df57898403607f19018652815180516001600160a01b031685528381015189860190600381106200147b57634e487b7160e01b600052602160045260246000fd5b868601526040918201519186018a905281519081905290840190600090898701905b80831015620014c95783516001600160e01b03191682529286019260019290920191908601906200149d565b5097850197955050509082019060010162001433565b50506001600160a01b038a16908801528681036040880152620015038189620013dc565b9a9950505050505050505050565b60006001600160601b038281166002600160601b0319810162001538576200153862001384565b6001019392505050565b6000825162001556818460208701620013b6565b9190910192915050565b602081526000620015756020830184620013dc565b9392505050565b8181038181111562001592576200159262001384565b92915050565b634e487b7160e01b600052603160045260246000fd5b611d1a80620015be6000396000f3fe6080604052600436106100865760003560e01c80638865752311610059578063886575231461015a578063b9e75c671461017a578063c83b58a01461018f578063df499fa5146101af578063edad0379146101c457610086565b80630d741577146100c55780634e69d560146101025780635c60da1b146101275780637aa071c01461013a575b600061009d6000356001600160e01b0319166101e4565b90503660008037600080366000845af43d6000803e8080156100be573d6000f35b3d6000fd5b005b3480156100d157600080fd5b506100e56100e0366004611763565b6101e4565b6040516001600160a01b0390911681526020015b60405180910390f35b34801561010e57600080fd5b506101176102fb565b60405190151581526020016100f9565b34801561013357600080fd5b50306100e5565b34801561014657600080fd5b506100c3610155366004611785565b610318565b34801561016657600080fd5b506100c3610175366004611893565b6103d1565b34801561018657600080fd5b506100c3610534565b34801561019b57600080fd5b506100c36101aa366004611785565b6105cc565b3480156101bb57600080fd5b506100c3610680565b3480156101d057600080fd5b506101176101df366004611763565b610718565b60008160006101f1610a23565b6005810154909150610100900460ff16610275576001600160e01b03198216600090815260048201602052604090205460ff166102755760405162461bcd60e51b815260206004820152601860248201527f50726f746f636f6c557067726164653a207061757365642e000000000000000060448201526064015b60405180910390fd5b600061027f610a23565b6001600160e01b031986166000908152602082905260409020549091506001600160a01b0316806102f25760405162461bcd60e51b815260206004820181905260248201527f4469616d6f6e643a2046756e6374696f6e20646f6573206e6f74206578697374604482015260640161026c565b95945050505050565b600080610306610a23565b60050154610100900460ff1692915050565b610320610a47565b336001600160a01b0382160361038f5760405162461bcd60e51b815260206004820152602e60248201527f43616e27742070726f706f7365206f6e6573656c66206173206120636f6e747260448201526d30b1ba103830bab9b2a0b236b4b760911b606482015260840161026c565b61039881610ac7565b6040516001600160a01b0382169033907f4df3b7624b06f776b815d2fefcdc202767d1b527b1449c2657d8f6951db44ddf90600090a350565b6103d9610b08565b60006103e3610a23565b905060005b835181101561052e5783818151811061040357610403611953565b60200260200101516001600160e01b031916633f4ba83a60e01b148015610444575082818151811061043757610437611953565b6020908102919091010151155b156104b75760405162461bcd60e51b815260206004820152603f60248201527f54686520756e70617573652829206d6574686f64206d7573742062652061766160448201527f696c61626c6520647572696e6720746865207061757365642073746174652e00606482015260840161026c565b8281815181106104c9576104c9611953565b60200260200101518260040160008684815181106104e9576104e9611953565b6020908102919091018101516001600160e01b0319168252810191909152604001600020805460ff1916911515919091179055806105268161197f565b9150506103e8565b50505050565b336105667f8d5bb42e0ac1496a2c326edc9c00758985246e6c2bb146d6c2f4a0d509e0960c546001600160a01b031690565b6001600160a01b03161461058c5760405162461bcd60e51b815260040161026c90611998565b61059533610729565b61059f6000610b84565b60405133907fd3c0f3a3e3f95e42614af3ba6af04f6a6df312e675ce644bf876e1ae420e3cc690600090a2565b6105d4610b08565b336001600160a01b0382160361063e5760405162461bcd60e51b815260206004820152602960248201527f43616e27742070726f706f7365206f6e6573656c66206173206120636f6e747260448201526830b1ba1037bbb732b960b91b606482015260840161026c565b61064781610b84565b6040516001600160a01b0382169033907f21deb7d724608c01da3d0b07a81834ec56f01dbf1263c6c878d360adf7b5f3dd90600090a350565b336106b27f8d5bb42e0ac1496a2c326edc9c00758985246e6c2bb146d6c2f4a0d509e0960d546001600160a01b031690565b6001600160a01b0316146106d85760405162461bcd60e51b815260040161026c90611998565b6106e1336107ac565b6106eb6000610ac7565b60405133907fe50a4f4f7511acadcc7bdb023559c8cc80d15be0d87fe6f7f6d28cceb1d3b7f890600090a2565b600061072382610bc5565b92915050565b7f8d5bb42e0ac1496a2c326edc9c00758985246e6c2bb146d6c2f4a0d509e0960b80546001600160a01b031981166001600160a01b03848116918217909355604051600080516020611cc5833981519152939092169182907f8be0079c531659141344cd1fd0a4f28419497f9722a3daafe3b4186f6b6457e090600090a3505050565b600080516020611cc583398151915280546001600160a01b031981166001600160a01b03848116918217845560405192169182907fa9b6c2526b044187e4744e292867fd1f6b7e6be882e40ec94d7949b26f8088b290600090a3505050565b60005b83518110156109d857600084828151811061082b5761082b611953565b60200260200101516020015190506000600281111561084c5761084c6119e1565b81600281111561085e5761085e6119e1565b036108ac576108a785838151811061087857610878611953565b60200260200101516000015186848151811061089657610896611953565b602002602001015160400151610bf6565b6109c5565b60018160028111156108c0576108c06119e1565b03610909576108a78583815181106108da576108da611953565b6020026020010151600001518684815181106108f8576108f8611953565b602002602001015160400151610d7a565b600281600281111561091d5761091d6119e1565b03610966576108a785838151811061093757610937611953565b60200260200101516000015186848151811061095557610955611953565b602002602001015160400151610f07565b60405162461bcd60e51b815260206004820152602e60248201527f4469616d6f6e6453746f726167654c69624375743a20496e636f72726563742060448201526d2330b1b2ba21baba20b1ba34b7b760911b606482015260840161026c565b50806109d08161197f565b91505061080e565b507f8faa70878671ccd212d20771b795c50af8fd3ff6cf27f4bde57e5d4de0aeb673838383604051610a0c93929190611a47565b60405180910390a1610a1e8282611023565b505050565b7fc8fcad8db84d3cc18b4c41d551ea0ee66dd599cde068d998e57d5e09332c131c90565b600080516020611cc5833981519152546001600160a01b03163314610ac55760405162461bcd60e51b815260206004820152602e60248201527f4469616d6f6e6453746f726167654c69623a204d75737420626520636f6e747260448201526d30b1ba103830bab9b2a0b236b4b760911b606482015260840161026c565b565b7f8d5bb42e0ac1496a2c326edc9c00758985246e6c2bb146d6c2f4a0d509e0960d80546001600160a01b0319166001600160a01b0392909216919091179055565b600080516020611cc5833981519152600101546001600160a01b03163314610ac55760405162461bcd60e51b815260206004820152602960248201527f4469616d6f6e6453746f726167654c69623a204d75737420626520636f6e747260448201526830b1ba1037bbb732b960b91b606482015260840161026c565b7f8d5bb42e0ac1496a2c326edc9c00758985246e6c2bb146d6c2f4a0d509e0960c80546001600160a01b0319166001600160a01b0392909216919091179055565b600080610bd0610a23565b6001600160e01b0319909316600090815260049093016020525050604090205460ff1690565b6000815111610c175760405162461bcd60e51b815260040161026c90611b47565b6000610c21610a23565b90506001600160a01b038316610c495760405162461bcd60e51b815260040161026c90611b99565b6001600160a01b0383166000908152600182016020526040812054906001600160601b0382169003610c7f57610c7f8285611251565b60005b8351811015610d73576000848281518110610c9f57610c9f611953565b6020908102919091018101516001600160e01b031981166000908152918690526040909120549091506001600160a01b03168015610d455760405162461bcd60e51b815260206004820152603c60248201527f4469616d6f6e6453746f726167654c69624375743a2043616e2774206164642060448201527f66756e6374696f6e207468617420616c72656164792065786973747300000000606482015260840161026c565b610d518583868a6112bb565b83610d5b81611bec565b94505050508080610d6b9061197f565b915050610c82565b5050505050565b6000815111610d9b5760405162461bcd60e51b815260040161026c90611b47565b6000610da5610a23565b90506001600160a01b038316610dcd5760405162461bcd60e51b815260040161026c90611b99565b6001600160a01b0383166000908152600182016020526040812054906001600160601b0382169003610e0357610e038285611251565b60005b8351811015610d73576000848281518110610e2357610e23611953565b6020908102919091018101516001600160e01b031981166000908152918690526040909120549091506001600160a01b039081169087168103610ece5760405162461bcd60e51b815260206004820152603f60248201527f4469616d6f6e6453746f726167654c69624375743a2043616e2774207265706c60448201527f6163652066756e6374696f6e20776974682073616d652066756e6374696f6e00606482015260840161026c565b610ed985828461135b565b610ee58583868a6112bb565b83610eef81611bec565b94505050508080610eff9061197f565b915050610e06565b6000815111610f285760405162461bcd60e51b815260040161026c90611b47565b6000610f32610a23565b90506001600160a01b03831615610fb15760405162461bcd60e51b815260206004820152603d60248201527f4469616d6f6e6453746f726167654c69624375743a2052656d6f76652066616360448201527f65742061646472657373206d7573742062652061646472657373283029000000606482015260840161026c565b60005b825181101561052e576000838281518110610fd157610fd1611953565b6020908102919091018101516001600160e01b031981166000908152918590526040909120549091506001600160a01b031661100e84828461135b565b5050808061101b9061197f565b915050610fb4565b6001600160a01b0382166110b6578051156110b25760405162461bcd60e51b815260206004820152604360248201527f4469616d6f6e6453746f726167654c69624375743a205f696e6974206973206160448201527f646472657373283029206275745f63616c6c64617461206973206e6f7420656d60648201526270747960e81b608482015260a40161026c565b5050565b600081511161113b5760405162461bcd60e51b8152602060048201526044602482018190527f4469616d6f6e6453746f726167654c69624375743a205f63616c6c6461746120908201527f697320656d70747920627574205f696e6974206973206e6f74206164647265736064820152637328302960e01b608482015260a40161026c565b6001600160a01b038216301461116d5761116d826040518060600160405280602f8152602001611c96602f9139611725565b600080836001600160a01b0316836040516111889190611c12565b600060405180830381855af49150503d80600081146111c3576040519150601f19603f3d011682016040523d82523d6000602084013e6111c8565b606091505b50915091508161052e578051156111f3578060405162461bcd60e51b815260040161026c9190611c2e565b60405162461bcd60e51b815260206004820152602d60248201527f4469616d6f6e6453746f726167654c69624375743a205f696e69742066756e6360448201526c1d1a5bdb881c995d995c9d1959609a1b606482015260840161026c565b611273816040518060600160405280602b8152602001611c6b602b9139611725565b6002820180546001600160a01b0390921660008181526001948501602090815260408220860185905594840183559182529290200180546001600160a01b0319169091179055565b6001600160e01b0319831660008181526020868152604080832080546001600160601b03909716600160a01b026001600160a01b0397881617815594909516808352600180890183529583208054968701815583528183206008870401805460e09890981c60046007909816979097026101000a96870263ffffffff9097021990971695909517909555529290915281546001600160a01b031916179055565b6001600160a01b0382166113d75760405162461bcd60e51b815260206004820152603e60248201527f4469616d6f6e6453746f726167654c69624375743a2043616e27742072656d6f60448201527f76652066756e6374696f6e207468617420646f65736e27742065786973740000606482015260840161026c565b306001600160a01b0383160361144d5760405162461bcd60e51b815260206004820152603560248201527f4469616d6f6e6453746f726167654c69624375743a2043616e27742072656d6f6044820152743b329034b6b6baba30b1363290333ab731ba34b7b760591b606482015260840161026c565b6001600160e01b03198116600090815260208481526040808320546001600160a01b0386168452600180880190935290832054600160a01b9091046001600160601b0316929161149c91611c41565b905080821461158e576001600160a01b038416600090815260018601602052604081208054839081106114d1576114d1611953565b600091825260208083206008830401546001600160a01b038916845260018a019091526040909220805460079092166004026101000a90920460e01b92508291908590811061152257611522611953565b600091825260208083206008830401805463ffffffff60079094166004026101000a938402191660e09590951c929092029390931790556001600160e01b03199290921682528690526040902080546001600160a01b0316600160a01b6001600160601b038516021790555b6001600160a01b038416600090815260018601602052604090208054806115b7576115b7611c54565b60008281526020808220600860001990940193840401805463ffffffff600460078716026101000a0219169055919092556001600160e01b03198516825286905260408120819055819003610d7357600285015460009061161a90600190611c41565b6001600160a01b03861660009081526001808901602052604090912001549091508082146116c957600087600201838154811061165957611659611953565b6000918252602090912001546002890180546001600160a01b03909216925082918490811061168a5761168a611953565b600091825260208083209190910180546001600160a01b0319166001600160a01b03948516179055929091168152600189810190925260409020018190555b866002018054806116dc576116dc611c54565b60008281526020808220830160001990810180546001600160a01b03191690559092019092556001600160a01b0388168252600189810190915260408220015550505050505050565b813b818161052e5760405162461bcd60e51b815260040161026c9190611c2e565b80356001600160e01b03198116811461175e57600080fd5b919050565b60006020828403121561177557600080fd5b61177e82611746565b9392505050565b60006020828403121561179757600080fd5b81356001600160a01b038116811461177e57600080fd5b634e487b7160e01b600052604160045260246000fd5b604051601f8201601f1916810167ffffffffffffffff811182821017156117ed576117ed6117ae565b604052919050565b600067ffffffffffffffff82111561180f5761180f6117ae565b5060051b60200190565b600082601f83011261182a57600080fd5b8135602061183f61183a836117f5565b6117c4565b82815260059290921b8401810191818101908684111561185e57600080fd5b8286015b84811015611888578035801515811461187b5760008081fd5b8352918301918301611862565b509695505050505050565b600080604083850312156118a657600080fd5b823567ffffffffffffffff808211156118be57600080fd5b818501915085601f8301126118d257600080fd5b813560206118e261183a836117f5565b82815260059290921b8401810191818101908984111561190157600080fd5b948201945b838610156119265761191786611746565b82529482019490820190611906565b9650508601359250508082111561193c57600080fd5b5061194985828601611819565b9150509250929050565b634e487b7160e01b600052603260045260246000fd5b634e487b7160e01b600052601160045260246000fd5b60006001820161199157611991611969565b5060010190565b60208082526029908201527f4f6e6c7920612070726f706f73656420757365722063616e206163636570742060408201526806f776e6572736869760bc1b606082015260800190565b634e487b7160e01b600052602160045260246000fd5b60005b83811015611a125781810151838201526020016119fa565b50506000910152565b60008151808452611a338160208601602086016119f7565b601f01601f19169290920160200192915050565b60006060808301818452808751808352608092508286019150828160051b8701016020808b0160005b84811015611b1757898403607f19018652815180516001600160a01b03168552838101518986019060038110611ab657634e487b7160e01b600052602160045260246000fd5b868601526040918201519186018a905281519081905290840190600090898701905b80831015611b025783516001600160e01b0319168252928601926001929092019190860190611ad8565b50978501979550505090820190600101611a70565b50506001600160a01b038a16908801528681036040880152611b398189611a1b565b9a9950505050505050505050565b60208082526032908201527f4469616d6f6e6453746f726167654c69624375743a204e6f2073656c6563746f6040820152711c9cc81a5b88199858d95d081d1bc818dd5d60721b606082015260800190565b60208082526033908201527f4469616d6f6e6453746f726167654c69624375743a204164642066616365742060408201527263616e2774206265206164647265737328302960681b606082015260800190565b60006001600160601b03808316818103611c0857611c08611969565b6001019392505050565b60008251611c248184602087016119f7565b9190910192915050565b60208152600061177e6020830184611a1b565b8181038181111561072357610723611969565b634e487b7160e01b600052603160045260246000fdfe4469616d6f6e6453746f726167654c69624375743a204e657720666163657420686173206e6f20636f64654469616d6f6e6453746f726167654c69624375743a205f696e6974206164647265737320686173206e6f20636f64658d5bb42e0ac1496a2c326edc9c00758985246e6c2bb146d6c2f4a0d509e0960aa2646970667358221220235fe6c3d8a05ca29f8a40d3b8fe285b29fda33816412c0c1323cbb1f4d3ef3864736f6c634300081100334469616d6f6e6453746f726167654c69624375743a204e6f2073656c6563746fc8fcad8db84d3cc18b4c41d551ea0ee66dd599cde068d998e57d5e09332c131c4469616d6f6e6453746f726167654c69624375743a204e657720666163657420686173206e6f20636f64654469616d6f6e6453746f726167654c69624375743a20416464206661636574204469616d6f6e6453746f726167654c69624375743a205f696e6974206164647265737320686173206e6f20636f64654469616d6f6e6453746f726167654c69624375743a2043616e27742072656d6f",
  "libraries": {},
  "devdoc": {
    "events": {
      "OwnershipProposalAccepted(address)": {
        "details": "emitted after accepting a ownership transfer proposal by the new owner",
        "params": {
          "newOwner": "address of the new owner*"
        }
      },
      "OwnershipProposalCreated(address,address)": {
        "details": "emitted after creating a ownership transfer proposal by the owner",
        "params": {
          "owner": "address of the current owner",
          "proposed": "address of the proposed owner*"
        }
      },
      "PauseAdminOwnershipProposalAccepted(address)": {
        "details": "emitted after accepting a pauseAdmin transfer proposal by the new pauseAdmin",
        "params": {
          "newPauseAdmin": "address of the new pauseAdmin*"
        }
      },
      "PauseAdminOwnershipProposalCreated(address,address)": {
        "details": "emitted after creating a pauseAdmin transfer proposal by the pauseAdmin",
        "params": {
          "pauseAdmin": "address of the current pauseAdmin",
          "proposed": "address of the proposed pauseAdmin*"
        }
      }
    },
    "kind": "dev",
    "methods": {},
    "title": "SmartLoanDiamondBeacon A contract that is authorised to borrow funds using delegated credit. It maintains solvency calculating the current value of assets and borrowings. In case the value of assets held drops below certain level, part of the funds may be forcibly repaid. It permits only a limited and safe token transfer.",
    "version": 1
  },
  "userdoc": {
    "kind": "user",
    "methods": {},
    "version": 1
  },
  "storageLayout": {
    "storage": [],
    "types": null
  }
}