{
  "address": "0x8B1e2420e0d453a718d4b70e3a043263Eab77851",
  "abi": [
    {
      "inputs": [],
      "name": "CalldataMustHaveValidPayload",
      "type": "error"
    },
    {
      "inputs": [],
      "name": "CalldataOverOrUnderFlow",
      "type": "error"
    },
    {
      "inputs": [],
      "name": "DataPackageTimestampMustNotBeZero",
      "type": "error"
    },
    {
      "inputs": [],
      "name": "DataPackageTimestampsMustBeEqual",
      "type": "error"
    },
    {
      "inputs": [],
      "name": "EachSignerMustProvideTheSameValue",
      "type": "error"
    },
    {
      "inputs": [],
      "name": "EmptyCalldataPointersArr",
      "type": "error"
    },
    {
      "inputs": [],
      "name": "IncorrectUnsignedMetadataSize",
      "type": "error"
    },
    {
      "inputs": [
        {
          "internalType": "uint256",
          "name": "receivedSignersCount",
          "type": "uint256"
        },
        {
          "internalType": "uint256",
          "name": "requiredSignersCount",
          "type": "uint256"
        }
      ],
      "name": "InsufficientNumberOfUniqueSigners",
      "type": "error"
    },
    {
      "inputs": [],
      "name": "InvalidCalldataPointer",
      "type": "error"
    },
    {
      "inputs": [
        {
          "internalType": "bytes",
          "name": "result",
          "type": "bytes"
        }
      ],
      "name": "ProxyCalldataFailedWithCustomError",
      "type": "error"
    },
    {
      "inputs": [
        {
          "internalType": "string",
          "name": "message",
          "type": "string"
        }
      ],
      "name": "ProxyCalldataFailedWithStringMessage",
      "type": "error"
    },
    {
      "inputs": [],
      "name": "ProxyCalldataFailedWithoutErrMsg",
      "type": "error"
    },
    {
      "inputs": [],
      "name": "RedstonePayloadMustHaveAtLeastOneDataPackage",
      "type": "error"
    },
    {
      "inputs": [],
      "name": "SafeCast__Exceeds24Bits",
      "type": "error"
    },
    {
      "inputs": [
        {
          "internalType": "address",
          "name": "receivedSigner",
          "type": "address"
        }
      ],
      "name": "SignerNotAuthorised",
      "type": "error"
    },
    {
      "inputs": [],
      "name": "Uint256x256Math__MulDivOverflow",
      "type": "error"
    },
    {
      "inputs": [],
      "name": "Uint256x256Math__MulShiftOverflow",
      "type": "error"
    },
    {
      "anonymous": false,
      "inputs": [
        {
          "indexed": true,
          "internalType": "address",
          "name": "owner",
          "type": "address"
        },
        {
          "indexed": true,
          "internalType": "address",
          "name": "spender",
          "type": "address"
        },
        {
          "indexed": false,
          "internalType": "uint256",
          "name": "value",
          "type": "uint256"
        }
      ],
      "name": "Approval",
      "type": "event"
    },
    {
      "anonymous": false,
      "inputs": [
        {
          "indexed": false,
          "internalType": "uint8",
          "name": "version",
          "type": "uint8"
        }
      ],
      "name": "Initialized",
      "type": "event"
    },
    {
      "anonymous": false,
      "inputs": [
        {
          "indexed": true,
          "internalType": "address",
          "name": "from",
          "type": "address"
        },
        {
          "indexed": true,
          "internalType": "address",
          "name": "to",
          "type": "address"
        }
      ],
      "name": "OwnershipTransferRequested",
      "type": "event"
    },
    {
      "anonymous": false,
      "inputs": [
        {
          "indexed": true,
          "internalType": "address",
          "name": "previousOwner",
          "type": "address"
        },
        {
          "indexed": true,
          "internalType": "address",
          "name": "newOwner",
          "type": "address"
        }
      ],
      "name": "OwnershipTransferred",
      "type": "event"
    },
    {
      "anonymous": false,
      "inputs": [
        {
          "indexed": true,
          "internalType": "address",
          "name": "from",
          "type": "address"
        },
        {
          "indexed": true,
          "internalType": "address",
          "name": "to",
          "type": "address"
        },
        {
          "indexed": false,
          "internalType": "uint256",
          "name": "value",
          "type": "uint256"
        }
      ],
      "name": "Transfer",
      "type": "event"
    },
    {
      "inputs": [],
      "name": "MAX_LOCK_TIME",
      "outputs": [
        {
          "internalType": "uint256",
          "name": "",
          "type": "uint256"
        }
      ],
      "stateMutability": "view",
      "type": "function"
    },
    {
      "inputs": [],
      "name": "acceptOwnership",
      "outputs": [],
      "stateMutability": "nonpayable",
      "type": "function"
    },
    {
      "inputs": [
        {
          "internalType": "address",
          "name": "owner",
          "type": "address"
        },
        {
          "internalType": "address",
          "name": "spender",
          "type": "address"
        }
      ],
      "name": "allowance",
      "outputs": [
        {
          "internalType": "uint256",
          "name": "",
          "type": "uint256"
        }
      ],
      "stateMutability": "view",
      "type": "function"
    },
    {
      "inputs": [
        {
          "internalType": "address",
          "name": "spender",
          "type": "address"
        },
        {
          "internalType": "uint256",
          "name": "amount",
          "type": "uint256"
        }
      ],
      "name": "approve",
      "outputs": [
        {
          "internalType": "bool",
          "name": "",
          "type": "bool"
        }
      ],
      "stateMutability": "nonpayable",
      "type": "function"
    },
    {
      "inputs": [
        {
          "internalType": "address",
          "name": "account",
          "type": "address"
        }
      ],
      "name": "balanceOf",
      "outputs": [
        {
          "internalType": "uint256",
          "name": "",
          "type": "uint256"
        }
      ],
      "stateMutability": "view",
      "type": "function"
    },
    {
      "inputs": [
        {
          "internalType": "address",
          "name": "user",
          "type": "address"
        }
      ],
      "name": "binInRange",
      "outputs": [
        {
          "internalType": "bool",
          "name": "",
          "type": "bool"
        }
      ],
      "stateMutability": "view",
      "type": "function"
    },
    {
      "inputs": [],
      "name": "decimals",
      "outputs": [
        {
          "internalType": "uint8",
          "name": "",
          "type": "uint8"
        }
      ],
      "stateMutability": "view",
      "type": "function"
    },
    {
      "inputs": [
        {
          "internalType": "address",
          "name": "spender",
          "type": "address"
        },
        {
          "internalType": "uint256",
          "name": "subtractedValue",
          "type": "uint256"
        }
      ],
      "name": "decreaseAllowance",
      "outputs": [
        {
          "internalType": "bool",
          "name": "",
          "type": "bool"
        }
      ],
      "stateMutability": "nonpayable",
      "type": "function"
    },
    {
      "inputs": [
        {
          "internalType": "uint256",
          "name": "activeIdDesired",
          "type": "uint256"
        },
        {
          "internalType": "uint256",
          "name": "idSlippage",
          "type": "uint256"
        },
        {
          "internalType": "uint256",
          "name": "amountX",
          "type": "uint256"
        },
        {
          "internalType": "uint256",
          "name": "amountY",
          "type": "uint256"
        },
        {
          "internalType": "bool",
          "name": "isRebalance",
          "type": "bool"
        },
        {
          "internalType": "uint256",
          "name": "swapSlippage",
          "type": "uint256"
        }
      ],
      "name": "deposit",
      "outputs": [],
      "stateMutability": "nonpayable",
      "type": "function"
    },
    {
      "inputs": [],
      "name": "extractTimestampsAndAssertAllAreEqual",
      "outputs": [
        {
          "internalType": "uint256",
          "name": "extractedTimestamp",
          "type": "uint256"
        }
      ],
      "stateMutability": "pure",
      "type": "function"
    },
    {
      "inputs": [
        {
          "internalType": "address",
          "name": "account",
          "type": "address"
        }
      ],
      "name": "getFullyVestedLockedBalance",
      "outputs": [
        {
          "internalType": "uint256",
          "name": "fullyVestedBalance",
          "type": "uint256"
        }
      ],
      "stateMutability": "view",
      "type": "function"
    },
    {
      "inputs": [],
      "name": "getJoeV2RouterAddress",
      "outputs": [
        {
          "internalType": "address",
          "name": "",
          "type": "address"
        }
      ],
      "stateMutability": "view",
      "type": "function"
    },
    {
      "inputs": [],
      "name": "getLBPair",
      "outputs": [
        {
          "internalType": "address",
          "name": "",
          "type": "address"
        }
      ],
      "stateMutability": "view",
      "type": "function"
    },
    {
      "inputs": [
        {
          "internalType": "address",
          "name": "account",
          "type": "address"
        }
      ],
      "name": "getLockedBalance",
      "outputs": [
        {
          "internalType": "uint256",
          "name": "",
          "type": "uint256"
        }
      ],
      "stateMutability": "view",
      "type": "function"
    },
    {
      "inputs": [],
      "name": "getTokenX",
      "outputs": [
        {
          "internalType": "address",
          "name": "",
          "type": "address"
        }
      ],
      "stateMutability": "view",
      "type": "function"
    },
    {
      "inputs": [],
      "name": "getTokenY",
      "outputs": [
        {
          "internalType": "address",
          "name": "",
          "type": "address"
        }
      ],
      "stateMutability": "view",
      "type": "function"
    },
    {
      "inputs": [
        {
          "internalType": "address",
          "name": "user",
          "type": "address"
        }
      ],
      "name": "getUserTokenId",
      "outputs": [
        {
          "internalType": "uint256",
          "name": "tokenId",
          "type": "uint256"
        }
      ],
      "stateMutability": "view",
      "type": "function"
    },
    {
      "inputs": [
        {
          "internalType": "address",
          "name": "user",
          "type": "address"
        }
      ],
      "name": "getUserValueInTokenY",
      "outputs": [
        {
          "internalType": "uint256",
          "name": "",
          "type": "uint256"
        }
      ],
      "stateMutability": "view",
      "type": "function"
    },
    {
      "inputs": [
        {
          "internalType": "address",
          "name": "spender",
          "type": "address"
        },
        {
          "internalType": "uint256",
          "name": "addedValue",
          "type": "uint256"
        }
      ],
      "name": "increaseAllowance",
      "outputs": [
        {
          "internalType": "bool",
          "name": "",
          "type": "bool"
        }
      ],
      "stateMutability": "nonpayable",
      "type": "function"
    },
    {
      "inputs": [
        {
          "internalType": "address",
          "name": "tokenX_",
          "type": "address"
        },
        {
          "internalType": "address",
          "name": "tokenY_",
          "type": "address"
        },
        {
          "internalType": "string",
          "name": "name_",
          "type": "string"
        },
        {
          "internalType": "uint256[]",
          "name": "distributionX_",
          "type": "uint256[]"
        },
        {
          "internalType": "uint256[]",
          "name": "distributionY_",
          "type": "uint256[]"
        },
        {
          "internalType": "int256[]",
          "name": "deltaIds_",
          "type": "int256[]"
        },
        {
          "internalType": "address",
          "name": "positionManager_",
          "type": "address"
        }
      ],
      "name": "initialize",
      "outputs": [],
      "stateMutability": "nonpayable",
      "type": "function"
    },
    {
      "inputs": [],
      "name": "lbPair",
      "outputs": [
        {
          "internalType": "contract ILBPair",
          "name": "",
          "type": "address"
        }
      ],
      "stateMutability": "view",
      "type": "function"
    },
    {
      "inputs": [
        {
          "internalType": "uint256",
          "name": "amount",
          "type": "uint256"
        },
        {
          "internalType": "uint256",
          "name": "lockPeriod",
          "type": "uint256"
        }
      ],
      "name": "lockBalance",
      "outputs": [],
      "stateMutability": "nonpayable",
      "type": "function"
    },
    {
      "inputs": [
        {
          "internalType": "address",
          "name": "",
          "type": "address"
        },
        {
          "internalType": "uint256",
          "name": "",
          "type": "uint256"
        }
      ],
      "name": "locks",
      "outputs": [
        {
          "internalType": "uint256",
          "name": "lockPeriod",
          "type": "uint256"
        },
        {
          "internalType": "uint256",
          "name": "amount",
          "type": "uint256"
        },
        {
          "internalType": "uint256",
          "name": "unlockTime",
          "type": "uint256"
        }
      ],
      "stateMutability": "view",
      "type": "function"
    },
    {
      "inputs": [],
      "name": "name",
      "outputs": [
        {
          "internalType": "string",
          "name": "",
          "type": "string"
        }
      ],
      "stateMutability": "view",
      "type": "function"
    },
    {
      "inputs": [],
      "name": "owner",
      "outputs": [
        {
          "internalType": "address",
          "name": "",
          "type": "address"
        }
      ],
      "stateMutability": "view",
      "type": "function"
    },
    {
      "inputs": [],
      "name": "pendingOwner",
      "outputs": [
        {
          "internalType": "address",
          "name": "",
          "type": "address"
        }
      ],
      "stateMutability": "view",
      "type": "function"
    },
    {
      "inputs": [],
      "name": "positionManager",
      "outputs": [
        {
          "internalType": "contract IPositionManager",
          "name": "",
          "type": "address"
        }
      ],
      "stateMutability": "view",
      "type": "function"
    },
    {
      "inputs": [
        {
          "internalType": "uint256",
          "name": "index",
          "type": "uint256"
        }
      ],
      "name": "releaseBalance",
      "outputs": [],
      "stateMutability": "nonpayable",
      "type": "function"
    },
    {
      "inputs": [],
      "name": "renounceOwnership",
      "outputs": [],
      "stateMutability": "nonpayable",
      "type": "function"
    },
    {
      "inputs": [
        {
          "internalType": "address",
          "name": "_vPrimeController",
          "type": "address"
        }
      ],
      "name": "setVPrimeControllerAddress",
      "outputs": [],
      "stateMutability": "nonpayable",
      "type": "function"
    },
    {
      "inputs": [],
      "name": "symbol",
      "outputs": [
        {
          "internalType": "string",
          "name": "",
          "type": "string"
        }
      ],
      "stateMutability": "view",
      "type": "function"
    },
    {
      "inputs": [],
      "name": "tokenX",
      "outputs": [
        {
          "internalType": "contract IERC20",
          "name": "",
          "type": "address"
        }
      ],
      "stateMutability": "view",
      "type": "function"
    },
    {
      "inputs": [],
      "name": "tokenY",
      "outputs": [
        {
          "internalType": "contract IERC20",
          "name": "",
          "type": "address"
        }
      ],
      "stateMutability": "view",
      "type": "function"
    },
    {
      "inputs": [],
      "name": "totalSupply",
      "outputs": [
        {
          "internalType": "uint256",
          "name": "",
          "type": "uint256"
        }
      ],
      "stateMutability": "view",
      "type": "function"
    },
    {
      "inputs": [
        {
          "internalType": "address",
          "name": "to",
          "type": "address"
        },
        {
          "internalType": "uint256",
          "name": "amount",
          "type": "uint256"
        }
      ],
      "name": "transfer",
      "outputs": [
        {
          "internalType": "bool",
          "name": "",
          "type": "bool"
        }
      ],
      "stateMutability": "nonpayable",
      "type": "function"
    },
    {
      "inputs": [
        {
          "internalType": "address",
          "name": "from",
          "type": "address"
        },
        {
          "internalType": "address",
          "name": "to",
          "type": "address"
        },
        {
          "internalType": "uint256",
          "name": "amount",
          "type": "uint256"
        }
      ],
      "name": "transferFrom",
      "outputs": [
        {
          "internalType": "bool",
          "name": "",
          "type": "bool"
        }
      ],
      "stateMutability": "nonpayable",
      "type": "function"
    },
    {
      "inputs": [
        {
          "internalType": "address",
          "name": "newOwner",
          "type": "address"
        }
      ],
      "name": "transferOwnership",
      "outputs": [],
      "stateMutability": "nonpayable",
      "type": "function"
    },
    {
      "inputs": [],
      "name": "vPrimeController",
      "outputs": [
        {
          "internalType": "address",
          "name": "",
          "type": "address"
        }
      ],
      "stateMutability": "view",
      "type": "function"
    },
    {
      "inputs": [
        {
          "internalType": "uint256",
          "name": "share",
          "type": "uint256"
        }
      ],
      "name": "withdraw",
      "outputs": [],
      "stateMutability": "nonpayable",
      "type": "function"
    }
  ],
  "transactionHash": "0x97fa0403b488ffdc23988bdbc601870c7d25d9a9b40c3a87a455c115689060cd",
  "args": [],
  "numDeployments": 1,
  "solcInputHash": "afbf41338c164803571462b1a9944b18",
  "bytecode": "0x608060405234801561001057600080fd5b5061529a806100206000396000f3fe608060405234801561001057600080fd5b50600436106101cd5760003560e01c806305e8746d146101d257806306fdde03146101f5578063095ea7b31461020a5780631436003c1461022d57806316dc165b1461024257806318160ddd14610255578063191723ed1461026757806320d2a1131461027a57806323b872dd1461028d5780632e1a7d4d146102a0578063313ce567146102b357806339509351146102c2578063447ff262146102d557806355a547d5146102e85780635f9c01b1146102f0578063625af7671461030157806370a0823114610314578063715018a61461032757806376079be31461032f578063791b98bc1461034257806379ba509714610355578063808d7c9b1461035d5780638da5cb5b1461037057806395d89b4114610378578063a457c2d714610380578063a9059cbb14610393578063b425f802146103a6578063b5db7961146103d4578063b7d19fc4146103e7578063c4086893146103fa578063c4ce63581461040d578063d0b4386314610420578063d9197fe314610428578063da10610c1461043b578063dd62ed3e1461044c578063e30c39781461045f578063f2fde38b14610467578063fa78668f1461047a578063fefd4e4f14610485575b600080fd5b60ca546001600160a01b03165b6040516101ec9190614410565b60405180910390f35b6101fd610498565b6040516101ec9190614474565b61021d6102183660046144a7565b61052a565b60405190151581526020016101ec565b61024061023b366004614616565b610544565b005b60ca546101df906001600160a01b031681565b6099545b6040519081526020016101ec565b6102406102753660046146f4565b610958565b610259610288366004614716565b610ae3565b61021d61029b366004614733565b610c10565b6102406102ae366004614774565b610c34565b604051601281526020016101ec565b61021d6102d03660046144a7565b610f24565b60ce546101df906001600160a01b031681565b610259610f46565b60cc546001600160a01b03166101df565b60cc546101df906001600160a01b031681565b610259610322366004614716565b61105e565b610240611079565b61024061033d366004614774565b61108d565b60cd546101df906001600160a01b031681565b61024061120d565b61024061036b366004614716565b61129f565b6101df6112c9565b6101fd6112d8565b61021d61038e3660046144a7565b6112e7565b61021d6103a13660046144a7565b611362565b6103b96103b43660046144a7565b611370565b604080519384526020840192909252908201526060016101ec565b6102406103e236600461479b565b6113b2565b60cb546101df906001600160a01b031681565b610259610408366004614716565b611826565b61025961041b366004614716565b6118f4565b6101df611a14565b61021d610436366004614716565b611a2c565b60cb546001600160a01b03166101df565b61025961045a3660046147f0565b611bd5565b6101df611c00565b610240610475366004614716565b611c0f565b6102596305a39a8081565b610259610493366004614716565b611cd6565b6060609a80546104a790614829565b80601f01602080910402602001604051908101604052809291908181526020018280546104d390614829565b80156105205780601f106104f557610100808354040283529160200191610520565b820191906000526020600020905b81548152906001019060200180831161050357829003601f168201915b5050505050905090565b600033610538818585611dce565b60019150505b92915050565b600054610100900460ff16158080156105645750600054600160ff909116105b80610585575061057330611ef2565b158015610585575060005460ff166001145b6105ed5760405162461bcd60e51b815260206004820152602e60248201527f496e697469616c697a61626c653a20636f6e747261637420697320616c72656160448201526d191e481a5b9a5d1a585b1a5e995960921b60648201526084015b60405180910390fd5b6000805460ff191660011790558015610610576000805461ff0019166101001790555b610618611f01565b610620611f30565b6106488660405180604001604052806006815260200165735072696d6560d01b815250611f5f565b8451835114801561065a575083518351145b6106985760405162461bcd60e51b815260206004820152600f60248201526e098cadccee8d0409ad2e6dac2e8c6d608b1b60448201526064016105e4565b60006106a2611a14565b90506000816001600160a01b03166388cc58e46040518163ffffffff1660e01b8152600401602060405180830381865afa1580156106e4573d6000803e3d6000fd5b505050506040513d601f19601f82011682018060405250810190610708919061485d565b60405163704037bd60e01b81526001600160a01b038c811660048301528b811660248301526019604483015291925060009183169063704037bd90606401608060405180830381865afa158015610763573d6000803e3d6000fd5b505050506040513d601f19601f82011682018060405250810190610787919061487a565b60208181015160cc80546001600160a01b0319166001600160a01b039092169182179055604080516305e8746d60e01b8152905193945090926305e8746d926004808401939192918290030181865afa1580156107e8573d6000803e3d6000fd5b505050506040513d601f19601f8201168201806040525081019061080c919061485d565b60ca80546001600160a01b0319166001600160a01b0392831617905560cc5460408051633684184360e21b81529051919092169163da10610c9160048083019260209291908290030181865afa15801561086a573d6000803e3d6000fd5b505050506040513d601f19601f8201168201806040525081019061088e919061485d565b60cb80546001600160a01b0319166001600160a01b039290921691909117905585516108c19060cf9060208901906143b0565b5087516108d59060d09060208b01906143b0565b5086516108e99060d19060208a01906143b0565b505060cd80546001600160a01b0319166001600160a01b0386161790555050801561094e576000805461ff0019169055604051600181527f7f26b83ff96e1f2b6a682f133852f6798a09c465da95921460cefb38474024989060200160405180910390a15b5050505050505050565b600061096333611826565b905061096f818461491b565b6109783361105e565b10156109c55760405162461bcd60e51b815260206004820152601c60248201527b496e73756666696369656e742062616c616e636520746f206c6f636b60201b60448201526064016105e4565b6305a39a80821115610a235760405162461bcd60e51b815260206004820152602160248201527f43616e6e6f74206c6f636b20666f72206d6f7265207468616e203320796561726044820152607360f81b60648201526084016105e4565b33600090815260c960209081526040918290208251606081018452858152918201869052918101610a54854261491b565b90528154600180820184556000938452602093849020835160039093020191825592820151928101929092556040015160029091015560ce54610add906001600160a01b0316335b604051602401610aac9190614410565b60408051601f198184030181529190526020810180516001600160e01b0316636cec346160e01b1790526000611f94565b50505050565b60cd54600090819081906001600160a01b03166399fbab88610b0486611cd6565b6040518263ffffffff1660e01b8152600401610b2291815260200190565b600060405180830381865afa158015610b3f573d6000803e3d6000fd5b505050506040513d6000823e601f3d908101601f19168201604052610b679190810190614989565b60cd5460405163b91e526f60e01b815260048101849052929850909650600095506001600160a01b0316935063b91e526f92506024019050600060405180830381865afa158015610bbc573d6000803e3d6000fd5b505050506040513d6000823e601f3d908101601f19168201604052610be49190810190614a13565b9050600080610bf783600001518561201d565b91509150610c0582826121ba565b979650505050505050565b600033610c1e8582856121da565b610c2985858561224e565b506001949350505050565b6000610c3f33611cd6565b905060008111610c8b5760405162461bcd60e51b81526020600482015260176024820152764e6f20506f736974696f6e20746f20776974686472617760481b60448201526064016105e4565b60cd5460405163133f757160e31b81526004810183905260009182916001600160a01b03909116906399fbab8890602401600060405180830381865afa158015610cd9573d6000803e3d6000fd5b505050506040513d6000823e601f3d908101601f19168201604052610d019190810190614989565b60cd5460405163b91e526f60e01b815260048101849052929850909650600095506001600160a01b0316935063b91e526f92506024019050600060405180830381865afa158015610d56573d6000803e3d6000fd5b505050506040513d6000823e601f3d908101601f19168201604052610d7e9190810190614a13565b90506000610d8b33611826565b9050610d97818761491b565b610da03361105e565b1015610de25760405162461bcd60e51b815260206004820152601160248201527010985b185b98d9481a5cc81b1bd8dad959607a1b60448201526064016105e4565b6000806000610df68560000151878b6123f2565b60cd54604080516080810182528d8152602081018f90528082018490526000606082015290516325f9c4dd60e21b81529497509295509093506001600160a01b0316916397e7137491610e4b91600401614af4565b600060405180830381600087803b158015610e6557600080fd5b505af1158015610e79573d6000803e3d6000fd5b5050505088610e886103223390565b03610eec5760cd54604051630852cd8d60e31b8152600481018a90526001600160a01b03909116906342966c6890602401600060405180830381600087803b158015610ed357600080fd5b505af1158015610ee7573d6000803e3d6000fd5b505050505b610ef6338a612862565b610f0230338585612990565b60ce54610f18906001600160a01b031633610a9c565b50505050505050505050565b600033610538818585610f378383611bd5565b610f41919061491b565b611dce565b600080610f51612a1b565b90506000610f5e82612ac9565b61ffff16905080600003610f8557604051632154bfcf60e21b815260040160405180910390fd5b610f9060028361491b565b915060005b81811015611058576000610fa884612b03565b9050600080610fb860688761491b565b90506000610fc68236614b3c565b9050803592508265ffffffffffff16600003610ff557604051630336dc9d60e41b815260040160405180910390fd5b8760000361100d578265ffffffffffff169750611035565b878365ffffffffffff16146110355760405163d9d1f46560e01b815260040160405180910390fd5b61103f848861491b565b965050505050808061105090614b4f565b915050610f95565b50505090565b6001600160a01b031660009081526097602052604090205490565b611081612b37565b61108b6000612b96565b565b33600090815260c9602052604090208054429190839081106110b1576110b1614b68565b906000526020600020906003020160020154111561110c5760405162461bcd60e51b815260206004820152601860248201527714dd1a5b1b081a5b881d1a19481b1bd8dac81c195c9a5bd960421b60448201526064016105e4565b33600090815260c960205260409020805490611129600183614b3c565b8154811061113957611139614b68565b906000526020600020906003020160c960006111523390565b6001600160a01b03166001600160a01b03168152602001908152602001600020838154811061118357611183614b68565b6000918252602080832084546003939093020191825560018085015490830155600293840154939091019290925533815260c9909152604090208054806111cc576111cc614b7e565b6000828152602081206003600019909301928302018181556001810182905560020155905560ce54611208906001600160a01b0316610a9c3390565b505050565b6000611217612be8565b9050336001600160a01b038216146112895760405162461bcd60e51b815260206004820152602f60248201527f50656e64696e674f776e61626c653a2063616c6c6572206973206e6f7420746860448201526e32903832b73234b7339037bbb732b960891b60648201526084016105e4565b61129281612b96565b61129c6000612bfb565b50565b6112a7612b37565b60ce80546001600160a01b0319166001600160a01b0392909216919091179055565b6065546001600160a01b031690565b6060609b80546104a790614829565b600033816112f58286611bd5565b9050838110156113555760405162461bcd60e51b815260206004820152602560248201527f45524332303a2064656372656173656420616c6c6f77616e63652062656c6f77604482015264207a65726f60d81b60648201526084016105e4565b610c298286868403611dce565b60003361053881858561224e565b60c9602052816000526040600020818154811061138c57600080fd5b600091825260209091206003909102018054600182015460029092015490935090915083565b600a8111156113f75760405162461bcd60e51b81526020600482015260116024820152700a6d8d2e0e0c2ceca40e8dede40d0d2ced607b1b60448201526064016105e4565b61140333308686612990565b600061140e33611cd6565b9050600060cc60009054906101000a90046001600160a01b03166001600160a01b031663dbe65edc6040518163ffffffff1660e01b8152600401602060405180830381865afa158015611465573d6000803e3d6000fd5b505050506040513d601f19601f820116820180604052508101906114899190614b94565b62ffffff169050811561163c5760cd5460405163133f757160e31b815260048101849052600091829182916001600160a01b0316906399fbab8890602401600060405180830381865afa1580156114e4573d6000803e3d6000fd5b505050506040513d6000823e601f3d908101601f1916820160405261150c9190810190614989565b95509550955050505081935086156116385760cd5460405163b91e526f60e01b8152600481018490526000916001600160a01b03169063b91e526f90602401600060405180830381865afa158015611568573d6000803e3d6000fd5b505050506040513d6000823e601f3d908101601f191682016040526115909190810190614a13565b90506000806115a4836000015185886123f2565b5060cd54604051630852cd8d60e31b8152600481018c90529294509092506001600160a01b0316906342966c6890602401600060405180830381600087803b1580156115ef57600080fd5b505af1158015611603573d6000803e3d6000fd5b505050506116176116113390565b87612862565b611621828d61491b565b61162b828d61491b565b909c509a50600097505050505b5050505b611647868685612c0d565b60cc54604080516336f997b760e21b815290519399509197506001600160a01b03169163dbe65edc916004808201926020929091908290030181865afa158015611695573d6000803e3d6000fd5b505050506040513d601f19601f820116820180604052508101906116b99190614b94565b62ffffff168114806116c9575081155b6117065760405162461bcd60e51b815260206004820152600e60248201526d109a5b881a590818da185b99d95960921b60448201526064016105e4565b60cc60009054906101000a90046001600160a01b03166001600160a01b031663dbe65edc6040518163ffffffff1660e01b8152600401602060405180830381865afa158015611759573d6000803e3d6000fd5b505050506040513d601f19601f8201168201806040525081019061177d9190614b94565b62ffffff1690508061178f888a61491b565b101580156117a65750876117a3888361491b565b10155b6117e25760405162461bcd60e51b815260206004820152600d60248201526c0a6d8d2e0e0c2ceca4090d2ced609b1b60448201526064016105e4565b60cc546117fb9030906001600160a01b03168888612990565b611805338261312f565b60ce5461181b906001600160a01b031633610a9c565b505050505050505050565b60008060005b6001600160a01b038416600090815260c960205260409020548110156118ed576001600160a01b038416600090815260c96020526040902080544291908390811061187957611879614b68565b90600052602060002090600302016002015411156118db576001600160a01b038416600090815260c9602052604090208054829081106118bb576118bb614b68565b906000526020600020906003020160010154826118d8919061491b565b91505b806118e581614b4f565b91505061182c565b5092915050565b6000805b6001600160a01b038316600090815260c96020526040902054811015611a0e576001600160a01b038316600090815260c96020526040902080544291908390811061194557611945614b68565b90600052602060002090600302016002015411156119fc576001600160a01b038316600090815260c96020526040902080546305a39a8091908390811061198e5761198e614b68565b600091825260208083206003909202909101546001600160a01b038716835260c990915260409091208054849081106119c9576119c9614b68565b9060005260206000209060030201600101546119e59190614bb9565b6119ef9190614be6565b6119f9908361491b565b91505b80611a0681614b4f565b9150506118f8565b50919050565b73b4315e873dbcf96ffd0acd8ea43f689d8c20fb3090565b600080611a3883611cd6565b905060008111611a785760405162461bcd60e51b815260206004820152600b60248201526a2737903837b9b4ba34b7b760a91b60448201526064016105e4565b60cd546040516312431a6360e01b8152600481018390526000916001600160a01b0316906312431a6390602401600060405180830381865afa158015611ac2573d6000803e3d6000fd5b505050506040513d6000823e601f3d908101601f19168201604052611aea9190810190614a13565b805160cc54604080516336f997b760e21b8152905193945091926000926001600160a01b039092169163dbe65edc9160048083019260209291908290030181865afa158015611b3d573d6000803e3d6000fd5b505050506040513d601f19601f82011682018060405250810190611b619190614b94565b62ffffff1690508082600081518110611b7c57611b7c614b68565b602002602001015111158015611bb85750808260018451611b9d9190614b3c565b81518110611bad57611bad614b68565b602002602001015110155b15611bc95750600195945050505050565b50600095945050505050565b6001600160a01b03918216600090815260986020908152604080832093909416825291909152205490565b6000611c0a612be8565b905090565b611c17612b37565b6001600160a01b038116611c835760405162461bcd60e51b815260206004820152602d60248201527f50656e64696e674f776e61626c653a206e6577206f776e65722069732074686560448201526c207a65726f206164647265737360981b60648201526084016105e4565b611c8c81612bfb565b806001600160a01b0316611c9e6112c9565b6001600160a01b03167fed8889f560326eb138920d842192f0eb3dd22b4f139c87a2c57538e05bae127860405160405180910390a350565b60cd546040516370a0823160e01b815260009182916001600160a01b03909116906370a0823190611d0b908690600401614410565b602060405180830381865afa158015611d28573d6000803e3d6000fd5b505050506040513d601f19601f82011682018060405250810190611d4c9190614c08565b1115611dc95760cd54604051632f745c5960e01b81526001600160a01b0390911690632f745c5990611d85908590600090600401614c21565b602060405180830381865afa158015611da2573d6000803e3d6000fd5b505050506040513d601f19601f82011682018060405250810190611dc69190614c08565b90505b919050565b6001600160a01b038316611e305760405162461bcd60e51b8152602060048201526024808201527f45524332303a20617070726f76652066726f6d20746865207a65726f206164646044820152637265737360e01b60648201526084016105e4565b6001600160a01b038216611e915760405162461bcd60e51b815260206004820152602260248201527f45524332303a20617070726f766520746f20746865207a65726f206164647265604482015261737360f01b60648201526084016105e4565b6001600160a01b0383811660008181526098602090815260408083209487168084529482529182902085905590518481527f8c5be1e5ebec7d5bd14f71427d1e84f3dd0314c0f7b2291e5b200ac8c7c3b925910160405180910390a3505050565b6001600160a01b03163b151590565b600054610100900460ff16611f285760405162461bcd60e51b81526004016105e490614c3a565b61108b6133f6565b600054610100900460ff16611f575760405162461bcd60e51b81526004016105e490614c3a565b61108b613425565b600054610100900460ff16611f865760405162461bcd60e51b81526004016105e490614c3a565b611f908282613452565b5050565b60606000611fa184613492565b9050600080866001600160a01b031685611fbc576000611fbe565b345b84604051611fcc9190614c85565b60006040518083038185875af1925050503d8060008114612009576040519150601f19603f3d011682016040523d82523d6000602084013e61200e565b606091505b5091509150610c058282613521565b60008060005b84518110156121b257600061205086838151811061204357612043614b68565b6020026020010151613598565b9050600085838151811061206657612066614b68565b602090810291909101015160cc54604051630157d2d160e31b815262ffffff8516600482015291925060009182916001600160a01b031690630abe9688906024016040805180830381865afa1580156120c3573d6000803e3d6000fd5b505050506040513d601f19601f820116820180604052508101906120e79190614cb8565b60cc5460405163bd85b03960e01b815262ffffff881660048201526001600160801b0393841695509190921692506000916001600160a01b03169063bd85b03990602401602060405180830381865afa158015612148573d6000803e3d6000fd5b505050506040513d601f19601f8201168201806040525081019061216c9190614c08565b90506121798484836135be565b612183908961491b565b97506121908483836135be565b61219a908861491b565b96505050505050806121ab90614b4f565b9050612023565b509250929050565b6000806121c6846135e8565b90506121d2818461491b565b949350505050565b60006121e68484611bd5565b90506000198114610add57818110156122415760405162461bcd60e51b815260206004820152601d60248201527f45524332303a20696e73756666696369656e7420616c6c6f77616e636500000060448201526064016105e4565b610add8484848403611dce565b6001600160a01b0383166122b25760405162461bcd60e51b815260206004820152602560248201527f45524332303a207472616e736665722066726f6d20746865207a65726f206164604482015264647265737360d81b60648201526084016105e4565b6001600160a01b0382166123145760405162461bcd60e51b815260206004820152602360248201527f45524332303a207472616e7366657220746f20746865207a65726f206164647260448201526265737360e81b60648201526084016105e4565b61231f83838361376b565b6001600160a01b038316600090815260976020526040902054818110156123975760405162461bcd60e51b815260206004820152602660248201527f45524332303a207472616e7366657220616d6f756e7420657863656564732062604482015265616c616e636560d01b60648201526084016105e4565b6001600160a01b038085166000818152609760205260408082208686039055928616808252908390208054860190559151600080516020615245833981519152906123e59086815260200190565b60405180910390a3610add565b600080606081806124023361105e565b88519091506000816001600160401b03811115612421576124216144d3565b60405190808252806020026020018201604052801561244a578160200160208202803683370190505b5090506000826001600160401b03811115612467576124676144d3565b604051908082528060200260200182016040528015612490578160200160208202803683370190505b509050826001600160401b038111156124ab576124ab6144d3565b6040519080825280602002602001820160405280156124d4578160200160208202803683370190505b50955060005b838110156125d65760008c82815181106124f6576124f6614b68565b60200260200101519050858b8d848151811061251457612514614b68565b60200260200101516125269190614bb9565b6125309190614be6565b88838151811061254257612542614b68565b60200260200101818152505087828151811061256057612560614b68565b60200260200101516000146125cd578084888151811061258257612582614b68565b6020026020010181815250508782815181106125a0576125a0614b68565b60200260200101518388815181106125ba576125ba614b68565b6020026020010181815250508660010196505b506001016124da565b5060ca546040516370a0823160e01b81526000916001600160a01b0316906370a0823190612608903090600401614410565b602060405180830381865afa158015612625573d6000803e3d6000fd5b505050506040513d601f19601f820116820180604052508101906126499190614c08565b60cb546040516370a0823160e01b81529192506000916001600160a01b03909116906370a082319061267f903090600401614410565b602060405180830381865afa15801561269c573d6000803e3d6000fd5b505050506040513d601f19601f820116820180604052508101906126c09190614c08565b90508615612755578487146126d6578684528683525b60cc546040516364c9cfaf60e11b81526001600160a01b039091169063c9939f5e9061270c903090819089908990600401614ceb565b6000604051808303816000875af115801561272b573d6000803e3d6000fd5b505050506040513d6000823e601f3d908101601f191682016040526127539190810190614d29565b505b60ca546040516370a0823160e01b815283916001600160a01b0316906370a0823190612785903090600401614410565b602060405180830381865afa1580156127a2573d6000803e3d6000fd5b505050506040513d601f19601f820116820180604052508101906127c69190614c08565b6127d09190614b3c565b60cb546040516370a0823160e01b8152919b5082916001600160a01b03909116906370a0823190612805903090600401614410565b602060405180830381865afa158015612822573d6000803e3d6000fd5b505050506040513d601f19601f820116820180604052508101906128469190614c08565b6128509190614b3c565b98505050505050505093509350939050565b6001600160a01b0382166128c25760405162461bcd60e51b815260206004820152602160248201527f45524332303a206275726e2066726f6d20746865207a65726f206164647265736044820152607360f81b60648201526084016105e4565b6128ce8260008361376b565b6001600160a01b038216600090815260976020526040902054818110156129425760405162461bcd60e51b815260206004820152602260248201527f45524332303a206275726e20616d6f756e7420657863656564732062616c616e604482015261636560f01b60648201526084016105e4565b6001600160a01b0383166000818152609760209081526040808320868603905560998054879003905551858152919291600080516020615245833981519152910160405180910390a3505050565b306001600160a01b038516036129df5781156129bd5760ca546129bd906001600160a01b03168484613b67565b80156129da5760cb546129da906001600160a01b03168483613b67565b610add565b81156129fd5760ca546129fd906001600160a01b0316858585613bbd565b8015610add5760cb54610add906001600160a01b0316858584613bbd565b60006602ed57011e0000601f1936013581161480612a4c576040516373bb264f60e11b815260040160405180910390fd5b60003660291115612a7057604051632bcb7bc560e11b815260040160405180910390fd5b5060281936013560006009612a8b600362ffffff851661491b565b612a95919061491b565b905036612aa360028361491b565b1115612ac25760405163c30a7bd760e01b815260040160405180910390fd5b9392505050565b600080612ad760208461491b565b905036811115612afa57604051632bcb7bc560e11b815260040160405180910390fd5b36033592915050565b6000806000612b1184613bde565b9092509050604e612b2382602061491b565b612b2d9084614bb9565b6121d2919061491b565b33612b406112c9565b6001600160a01b03161461108b5760405162461bcd60e51b815260206004820181905260248201527f4f776e61626c653a2063616c6c6572206973206e6f7420746865206f776e657260448201526064016105e4565b606580546001600160a01b038381166001600160a01b0319831681179093556040519116919082907f8be0079c531659141344cd1fd0a4f28419497f9722a3daafe3b4186f6b6457e090600090a35050565b6000805160206152258339815191525490565b60008051602061522583398151915255565b6000806000612c1b866135e8565b9050808510600081612c3657612c318388614b3c565b612c40565b612c408784614b3c565b9050806064612c5060058a614bb9565b612c5a9190614be6565b108015612c6f57506000831180612c6f575087155b156131235760cc54604080516336f997b760e21b815290516000928392612d5c926001600160a01b0390921691634c7cffbd91839163dbe65edc916004808201926020929091908290030181865afa158015612ccf573d6000803e3d6000fd5b505050506040513d601f19601f82011682018060405250810190612cf39190614b94565b6040516001600160e01b031960e084901b16815262ffffff9091166004820152602401602060405180830381865afa158015612d33573d6000803e3d6000fd5b505050506040513d601f19601f82011682018060405250810190612d579190614c08565b613c35565b905060cb60009054906101000a90046001600160a01b03166001600160a01b031663313ce5676040518163ffffffff1660e01b8152600401602060405180830381865afa158015612db1573d6000803e3d6000fd5b505050506040513d601f19601f82011682018060405250810190612dd59190614d5d565b612de090600a614e5c565b81612dec600286614be6565b612df69190614bb9565b612e009190614be6565b915060009050612e11600284614be6565b905083612e1f578082612e22565b81815b604080516002808252606082018352939550919350600092906020830190803683370190505090508415612ee65760ca5481516001600160a01b03909116908290600090612e7257612e72614b68565b6001600160a01b03928316602091820292909201015260cb54825191169082906001908110612ea357612ea3614b68565b60200260200101906001600160a01b031690816001600160a01b031681525050612ee1612ece611a14565b60ca546001600160a01b03169085613c4b565b612f77565b60cb5481516001600160a01b03909116908290600090612f0857612f08614b68565b6001600160a01b03928316602091820292909201015260ca54825191169082906001908110612f3957612f39614b68565b60200260200101906001600160a01b031690816001600160a01b031681525050612f77612f64611a14565b60cb546001600160a01b03169085613c4b565b60408051600180825281830190925260009160208083019080368337019050509050600281600081518110612fae57612fae614b68565b60200260200101906002811115612fc757612fc7614e6b565b90816002811115612fda57612fda614e6b565b90525060408051600180825281830190925260009160208083019080368337019050509050601961ffff168160008151811061301857613018614b68565b6020026020010181815250506000604051806060016040528083815260200184815260200185815250905061304b611a14565b6001600160a01b0316632a443fae8760648f60646130699190614b3c565b613073908a614bb9565b61307d9190614be6565b8430426040518663ffffffff1660e01b81526004016130a0959493929190614eba565b6020604051808303816000875af11580156130bf573d6000803e3d6000fd5b505050506040513d601f19601f820116820180604052508101906130e39190614c08565b945087613103576130f4858f61491b565b6130fe878f614b3c565b613117565b61310d868f614b3c565b613117868f61491b565b909e509c505050505050505b50959694955050505050565b60cd5460405163b91e526f60e01b8152600481018390526000916001600160a01b03169063b91e526f90602401600060405180830381865afa158015613179573d6000803e3d6000fd5b505050506040513d6000823e601f3d908101601f191682016040526131a19190810190614a13565b8051519091506000036131bf576131b782613d4f565b825260208201525b60cc54602082015160405163383d15c560e01b8152600092839283926001600160a01b039092169163383d15c5916131fe913091908b90600401614f8b565b6000604051808303816000875af115801561321d573d6000803e3d6000fd5b505050506040513d6000823e601f3d908101601f191682016040526132459190810190614fc0565b92509250925060006132a8613260846001600160801b031690565b613273906001600160801b038716615010565b6001600160801b03166132868560801c90565b6132908760801c90565b61329a9190615010565b6001600160801b03166121ba565b905060006132b588611cd6565b90508060000361336b5760cd546040805160c0810182526001600160a01b038b8116825260208083018790528284018c9052606083018890528a01516080830152895160a0830152915163124f70a960e01b8152919092169163124f70a9916133219190600401615030565b6020604051808303816000875af1158015613340573d6000803e3d6000fd5b505050506040513d601f19601f820116820180604052508101906133649190614c08565b90506133ec565b60cd5460408051608081018252838152602081018590528082018690526001606082015290516325f9c4dd60e21b81526001600160a01b03909216916397e71374916133b991600401614af4565b600060405180830381600087803b1580156133d357600080fd5b505af11580156133e7573d6000803e3d6000fd5b505050505b61094e8883613efb565b600054610100900460ff1661341d5760405162461bcd60e51b81526004016105e490614c3a565b61108b613fb6565b600054610100900460ff1661344c5760405162461bcd60e51b81526004016105e490614c3a565b60018055565b600054610100900460ff166134795760405162461bcd60e51b81526004016105e490614c3a565b609a61348583826150fc565b50609b61120882826150fc565b805160609060006134a1613fe6565b905060006134af828461491b565b9050368211156134d257604051632bcb7bc560e11b815260040160405180910390fd5b6060604051905081815285602001848101826020015b818310156135005782518152602092830192016134e8565b50505082833603856020018301379190920181016020016040529392505050565b606082611a0e57815160000361354a57604051632b3ff13d60e11b815260040160405180910390fd5b602082015162461bcd60e51b14801561357d576040516301efd04f60e31b815260448401906105e4908290600401614474565b8260405163fd36fde360e01b81526004016105e49190614474565b8062ffffff81168114611dc957604051639b63641560e01b815260040160405180910390fd5b60008060006135cd8686614051565b915091506135de8686868585614070565b9695505050505050565b60cc5460408051630240bc6b60e21b8152815160009384936001600160a01b0390911692630902f1ac92600480830193928290030181865afa158015613632573d6000803e3d6000fd5b505050506040513d601f19601f820116820180604052508101906136569190614cb8565b5090506001600160801b038116156137625760cc54604080516336f997b760e21b815290516000926136c1926001600160a01b0390911691634c7cffbd91839163dbe65edc916004808201926020929091908290030181865afa158015612ccf573d6000803e3d6000fd5b90508060cb60009054906101000a90046001600160a01b03166001600160a01b031663313ce5676040518163ffffffff1660e01b8152600401602060405180830381865afa158015613717573d6000803e3d6000fd5b505050506040513d601f19601f8201168201806040525081019061373b9190614d5d565b61374690600a614e5c565b6137509086614bb9565b61375a9190614be6565b925050611a0e565b50600092915050565b6001600160a01b0383161580159061378b57506001600160a01b03821615155b1561120857600061379b84611826565b90506137a7818361491b565b6137b08561105e565b10156137f55760405162461bcd60e51b8152602060048201526014602482015273496e73756666696369656e742042616c616e636560601b60448201526064016105e4565b6137fe83611cd6565b1561384b5760405162461bcd60e51b815260206004820152601e60248201527f526563656976657220616c726561647920686173206120706f7374696f6e000060448201526064016105e4565b600061385685611cd6565b9050826138628661105e565b036138d25760cd546040516333bebb7760e01b81526001600160a01b03909116906333bebb779061389b908890889086906004016151bb565b600060405180830381600087803b1580156138b557600080fd5b505af11580156138c9573d6000803e3d6000fd5b50505050613b60565b60cd5460405163133f757160e31b81526004810183905260009182916001600160a01b03909116906399fbab8890602401600060405180830381865afa158015613920573d6000803e3d6000fd5b505050506040513d6000823e601f3d908101601f191682016040526139489190810190614989565b60cd5460405163b91e526f60e01b815260048101849052929850909650600095506001600160a01b0316935063b91e526f92506024019050600060405180830381865afa15801561399d573d6000803e3d6000fd5b505050506040513d6000823e601f3d908101601f191682016040526139c59190810190614a13565b905060005b8251811015613a3a576139dc8961105e565b878483815181106139ef576139ef614b68565b6020026020010151613a019190614bb9565b613a0b9190614be6565b838281518110613a1d57613a1d614b68565b602090810291909101015280613a3281614b4f565b9150506139ca565b5060cd5460408051608081018252868152602081018990528082018590526000606082015290516325f9c4dd60e21b81526001600160a01b03909216916397e7137491613a8991600401614af4565b600060405180830381600087803b158015613aa357600080fd5b505af1158015613ab7573d6000803e3d6000fd5b505060cd546040805160c0810182526001600160a01b038c8116825260208083018d90528284018a9052606083018990528701516080830152865160a0830152915163124f70a960e01b815291909216935063124f70a99250613b1d9190600401615030565b6020604051808303816000875af1158015613b3c573d6000803e3d6000fd5b505050506040513d601f19601f8201168201806040525081019061181b9190614c08565b5050505050565b6112088363a9059cbb60e01b8484604051602401613b86929190614c21565b60408051601f198184030181529190526020810180516001600160e01b03166001600160e01b031990931692909217909152614120565b610add846323b872dd60e01b858585604051602401613b86939291906151bb565b600080808080613bef60418761491b565b90506000613c08613c0160208461491b565b36906141f5565b803594509050613c198160036141f5565b62ffffff9490941697933563ffffffff16965092945050505050565b6000611dc682670de0b6b3a76400006080614201565b801580613cc55750604051636eb1769f60e11b81523060048201526001600160a01b03838116602483015284169063dd62ed3e90604401602060405180830381865afa158015613c9f573d6000803e3d6000fd5b505050506040513d601f19601f82011682018060405250810190613cc39190614c08565b155b613d305760405162461bcd60e51b815260206004820152603660248201527f5361666545524332303a20617070726f76652066726f6d206e6f6e2d7a65726f60448201527520746f206e6f6e2d7a65726f20616c6c6f77616e636560501b60648201526084016105e4565b6112088363095ea7b360e01b8484604051602401613b86929190614c21565b60cf546060908190806001600160401b03811115613d6f57613d6f6144d3565b604051908082528060200260200182016040528015613d98578160200160208202803683370190505b509250806001600160401b03811115613db357613db36144d3565b604051908082528060200260200182016040528015613ddc578160200160208202803683370190505b50915060005b81811015613ef457600060cf8281548110613dff57613dff614b68565b906000526020600020015486613e1591906151df565b905060008112158015613e2b575062ffffff8111155b613e625760405162461bcd60e51b81526020600482015260086024820152674f766572666c6f7760c01b60448201526064016105e4565b80848381518110613e7557613e75614b68565b602002602001018181525050613ec660d08381548110613e9757613e97614b68565b906000526020600020015460d18481548110613eb557613eb5614b68565b90600052602060002001548361426f565b858381518110613ed857613ed8614b68565b602090810291909101015250613eed81614b4f565b9050613de2565b5050915091565b6001600160a01b038216613f515760405162461bcd60e51b815260206004820152601f60248201527f45524332303a206d696e7420746f20746865207a65726f20616464726573730060448201526064016105e4565b613f5d6000838361376b565b8060996000828254613f6f919061491b565b90915550506001600160a01b038216600081815260976020908152604080832080548601905551848152600080516020615245833981519152910160405180910390a35050565b600054610100900460ff16613fdd5760405162461bcd60e51b81526004016105e490614c3a565b61108b33612b96565b600080613ff1612a1b565b90506000613ffe82612ac9565b61ffff16905061400f60028361491b565b915060005b8181101561404957600061402784612b03565b9050614033818561491b565b935050808061404190614b4f565b915050614014565b509092915050565b6000806000198385098385029250828110838203039150509250929050565b6000816000036140915783838161408957614089614bd0565b049050614117565b8382106140b1576040516313eae71560e01b815260040160405180910390fd5b60008486880960018619810187169687900496600081900381900490910186831190950394850291909503949094049390931792505060026003840281188085028203028085028203028085028203028085028203028085028203028085029091030282025b95945050505050565b6000614175826040518060400160405280602081526020017f5361666545524332303a206c6f772d6c6576656c2063616c6c206661696c6564815250856001600160a01b031661429f9092919063ffffffff16565b90508051600014806141965750808060200190518101906141969190615207565b6112085760405162461bcd60e51b815260206004820152602a60248201527f5361666545524332303a204552433230206f7065726174696f6e20646964206e6044820152691bdd081cdd58d8d9595960b21b60648201526084016105e4565b6000612ac28284614b3c565b60008060006142108686614051565b9150915081600014614226578360ff1682901c92505b801561426657600160ff85161b811061425257604051638e471a8960e01b815260040160405180910390fd5b8360ff166101000361ffff1681901b830192505b50509392505050565b601882901b6301000000600160581b0316605884901b600160581b600160981b03161762ffffff821681176121d2565b60606121d2848460008585600080866001600160a01b031685876040516142c69190614c85565b60006040518083038185875af1925050503d8060008114614303576040519150601f19603f3d011682016040523d82523d6000602084013e614308565b606091505b5091509150610c05878383876060831561438157825160000361437a5761432e85611ef2565b61437a5760405162461bcd60e51b815260206004820152601d60248201527f416464726573733a2063616c6c20746f206e6f6e2d636f6e747261637400000060448201526064016105e4565b50816121d2565b6121d283838151156143965781518083602001fd5b8060405162461bcd60e51b81526004016105e49190614474565b8280548282559060005260206000209081019282156143eb579160200282015b828111156143eb5782518255916020019190600101906143d0565b506143f79291506143fb565b5090565b5b808211156143f757600081556001016143fc565b6001600160a01b0391909116815260200190565b60005b8381101561443f578181015183820152602001614427565b50506000910152565b60008151808452614460816020860160208601614424565b601f01601f19169290920160200192915050565b602081526000612ac26020830184614448565b6001600160a01b038116811461129c57600080fd5b8035611dc981614487565b600080604083850312156144ba57600080fd5b82356144c581614487565b946020939093013593505050565b634e487b7160e01b600052604160045260246000fd5b604051601f8201601f191681016001600160401b0381118282101715614511576145116144d3565b604052919050565b600082601f83011261452a57600080fd5b81356001600160401b03811115614543576145436144d3565b614556601f8201601f19166020016144e9565b81815284602083860101111561456b57600080fd5b816020850160208301376000918101602001919091529392505050565b60006001600160401b038211156145a1576145a16144d3565b5060051b60200190565b600082601f8301126145bc57600080fd5b813560206145d16145cc83614588565b6144e9565b82815260059290921b840181019181810190868411156145f057600080fd5b8286015b8481101561460b57803583529183019183016145f4565b509695505050505050565b600080600080600080600060e0888a03121561463157600080fd5b61463a8861449c565b96506146486020890161449c565b955060408801356001600160401b038082111561466457600080fd5b6146708b838c01614519565b965060608a013591508082111561468657600080fd5b6146928b838c016145ab565b955060808a01359150808211156146a857600080fd5b6146b48b838c016145ab565b945060a08a01359150808211156146ca57600080fd5b506146d78a828b016145ab565b9250506146e660c0890161449c565b905092959891949750929550565b6000806040838503121561470757600080fd5b50508035926020909101359150565b60006020828403121561472857600080fd5b8135612ac281614487565b60008060006060848603121561474857600080fd5b833561475381614487565b9250602084013561476381614487565b929592945050506040919091013590565b60006020828403121561478657600080fd5b5035919050565b801515811461129c57600080fd5b60008060008060008060c087890312156147b457600080fd5b8635955060208701359450604087013593506060870135925060808701356147db8161478d565b8092505060a087013590509295509295509295565b6000806040838503121561480357600080fd5b823561480e81614487565b9150602083013561481e81614487565b809150509250929050565b600181811c9082168061483d57607f821691505b602082108103611a0e57634e487b7160e01b600052602260045260246000fd5b60006020828403121561486f57600080fd5b8151612ac281614487565b60006080828403121561488c57600080fd5b604051608081016001600160401b03811182821017156148ae576148ae6144d3565b604052825161ffff811681146148c357600080fd5b815260208301516148d381614487565b602082015260408301516148e68161478d565b604082015260608301516148f98161478d565b60608201529392505050565b634e487b7160e01b600052601160045260246000fd5b8082018082111561053e5761053e614905565b600082601f83011261493f57600080fd5b8151602061494f6145cc83614588565b82815260059290921b8401810191818101908684111561496e57600080fd5b8286015b8481101561460b5780518352918301918301614972565b60008060008060008060c087890312156149a257600080fd5b86516149ad81614487565b60208801519096506149be81614487565b60408801519095506149cf81614487565b6060880151608089015160a08a015192965090945092506001600160401b038111156149fa57600080fd5b614a0689828a0161492e565b9150509295509295509295565b600060208284031215614a2557600080fd5b81516001600160401b0380821115614a3c57600080fd5b9083019060408286031215614a5057600080fd5b604051604081018181108382111715614a6b57614a6b6144d3565b604052825182811115614a7d57600080fd5b614a898782860161492e565b825250602083015182811115614a9e57600080fd5b614aaa8782860161492e565b60208301525095945050505050565b600081518084526020808501945080840160005b83811015614ae957815187529582019590820190600101614acd565b509495945050505050565b6020815281516020820152602082015160408201526000604083015160806060840152614b2460a0840182614ab9565b90506060840151151560808401528091505092915050565b8181038181111561053e5761053e614905565b600060018201614b6157614b61614905565b5060010190565b634e487b7160e01b600052603260045260246000fd5b634e487b7160e01b600052603160045260246000fd5b600060208284031215614ba657600080fd5b815162ffffff81168114612ac257600080fd5b808202811582820484141761053e5761053e614905565b634e487b7160e01b600052601260045260246000fd5b600082614c0357634e487b7160e01b600052601260045260246000fd5b500490565b600060208284031215614c1a57600080fd5b5051919050565b6001600160a01b03929092168252602082015260400190565b6020808252602b908201527f496e697469616c697a61626c653a20636f6e7472616374206973206e6f74206960408201526a6e697469616c697a696e6760a81b606082015260800190565b60008251614c97818460208701614424565b9190910192915050565b80516001600160801b0381168114611dc957600080fd5b60008060408385031215614ccb57600080fd5b614cd483614ca1565b9150614ce260208401614ca1565b90509250929050565b6001600160a01b03858116825284166020820152608060408201819052600090614d1790830185614ab9565b8281036060840152610c058185614ab9565b600060208284031215614d3b57600080fd5b81516001600160401b03811115614d5157600080fd5b6121d28482850161492e565b600060208284031215614d6f57600080fd5b815160ff81168114612ac257600080fd5b600181815b808511156121b2578160001904821115614da157614da1614905565b80851615614dae57918102915b93841c9390800290614d85565b600082614dca5750600161053e565b81614dd75750600061053e565b8160018114614ded5760028114614df757614e13565b600191505061053e565b60ff841115614e0857614e08614905565b50506001821b61053e565b5060208310610133831016604e8410600b8410161715614e36575081810a61053e565b614e408383614d80565b8060001904821115614e5457614e54614905565b029392505050565b6000612ac260ff841683614dbb565b634e487b7160e01b600052602160045260246000fd5b600081518084526020808501945080840160005b83811015614ae95781516001600160a01b031687529582019590820190600101614e95565b85815260006020868184015260a060408401528551606060a0850152614ee4610100850182614ab9565b82880151609f19868303810160c088015281518084529185019350600092909190850190835b81811015614f4257855160038110614f3057634e487b7160e01b86526021600452602486fd5b83529486019491860191600101614f0a565b505060408a01519450818782030160e0880152614f5f8186614e81565b95505050505050614f7b60608301856001600160a01b03169052565b8260808301529695505050505050565b600060018060a01b03808616835260606020840152614fad6060840186614ab9565b9150808416604084015250949350505050565b600080600060608486031215614fd557600080fd5b83516020850151604086015191945092506001600160401b03811115614ffa57600080fd5b6150068682870161492e565b9150509250925092565b6001600160801b038281168282160390808211156118ed576118ed614905565b6020815260018060a01b03825116602082015260208201516040820152604082015160608201526000606083015160c0608084015261507260e0840182614ab9565b90506080840151601f19808584030160a08601526150908383614ab9565b925060a08601519150808584030160c0860152506141178282614ab9565b601f82111561120857600081815260208120601f850160051c810160208610156150d55750805b601f850160051c820191505b818110156150f4578281556001016150e1565b505050505050565b81516001600160401b03811115615115576151156144d3565b615129816151238454614829565b846150ae565b602080601f83116001811461515e57600084156151465750858301515b600019600386901b1c1916600185901b1785556150f4565b600085815260208120601f198616915b8281101561518d5788860151825594840194600190910190840161516e565b50858210156151ab5787850151600019600388901b60f8161c191681555b5050505050600190811b01905550565b6001600160a01b039384168152919092166020820152604081019190915260600190565b80820182811260008312801582168215821617156151ff576151ff614905565b505092915050565b60006020828403121561521957600080fd5b8151612ac28161478d56fe63a0d9df49fae3f1b9d24f8dc819a568c429a1b11d0d8e9de63df53a0194acb2ddf252ad1be2c89b69c2b068fc378daa952ba7f163c4a11628f55a4df523b3efa2646970667358221220f05c81d5bf993dda9ad148c1ccc0606a6ec2c87c9673b21e80e858b59bab74e564736f6c63430008110033",
  "devdoc": {
    "kind": "dev",
    "methods": {
      "allowance(address,address)": {
        "details": "See {IERC20-allowance}."
      },
      "approve(address,uint256)": {
        "details": "See {IERC20-approve}. NOTE: If `amount` is the maximum `uint256`, the allowance is not updated on `transferFrom`. This is semantically equivalent to an infinite approval. Requirements: - `spender` cannot be the zero address."
      },
      "balanceOf(address)": {
        "details": "See {IERC20-balanceOf}."
      },
      "binInRange(address)": {
        "details": "Check if the active id is in the user position range",
        "params": {
          "user": "User Address."
        },
        "returns": {
          "_0": "status bin status"
        }
      },
      "decimals()": {
        "details": "Returns the number of decimals used to get its user representation. For example, if `decimals` equals `2`, a balance of `505` tokens should be displayed to a user as `5.05` (`505 / 10 ** 2`). Tokens usually opt for a value of 18, imitating the relationship between Ether and Wei. This is the default value returned by this function, unless it's overridden. NOTE: This information is only used for _display_ purposes: it in no way affects any of the arithmetic of the contract, including {IERC20-balanceOf} and {IERC20-transfer}."
      },
      "decreaseAllowance(address,uint256)": {
        "details": "Atomically decreases the allowance granted to `spender` by the caller. This is an alternative to {approve} that can be used as a mitigation for problems described in {IERC20-approve}. Emits an {Approval} event indicating the updated allowance. Requirements: - `spender` cannot be the zero address. - `spender` must have allowance for the caller of at least `subtractedValue`."
      },
      "deposit(uint256,uint256,uint256,uint256,bool,uint256)": {
        "details": "Users can use deposit function for depositing tokens to the specific bin.",
        "params": {
          "activeIdDesired": "The active id that user wants to add liquidity from",
          "amountX": "The amount of token X to deposit.",
          "amountY": "The amount of token Y to deposit.",
          "idSlippage": "The number of id that are allowed to slip",
          "isRebalance": "Rebalance the existing position with deposit.",
          "swapSlippage": "Slippage for the rebalance."
        }
      },
      "getFullyVestedLockedBalance(address)": {
        "details": "Returns the fully vested locked balance for an account.Full business logic description can be found in Pool::getFullyVestedLockedBalance() docstring",
        "params": {
          "account": "The address of the account."
        },
        "returns": {
          "fullyVestedBalance": "Fully vested locked balance"
        }
      },
      "getLockedBalance(address)": {
        "details": "Returns the total locked balance of an account.",
        "params": {
          "account": "The address of the account."
        },
        "returns": {
          "_0": "The total locked balance of the account."
        }
      },
      "getUserTokenId(address)": {
        "details": "Returns the token id for the user",
        "params": {
          "user": "The user address"
        },
        "returns": {
          "tokenId": "token id owned by the user"
        }
      },
      "getUserValueInTokenY(address)": {
        "details": "Returns the estimated USD value of the user position",
        "params": {
          "user": "User Address"
        },
        "returns": {
          "_0": "Total Value in tokenY amount for the user's position."
        }
      },
      "increaseAllowance(address,uint256)": {
        "details": "Atomically increases the allowance granted to `spender` by the caller. This is an alternative to {approve} that can be used as a mitigation for problems described in {IERC20-approve}. Emits an {Approval} event indicating the updated allowance. Requirements: - `spender` cannot be the zero address."
      },
      "initialize(address,address,string,uint256[],uint256[],int256[],address)": {
        "details": "initialize of the contract.",
        "params": {
          "deltaIds_": "Delta id for bins",
          "distributionX_": "Pre-defined distribution X",
          "distributionY_": "Pre-defined distribution Y",
          "name_": "The name of the SPrime token. ex: PRIME-USDC LP",
          "positionManager_": "Position Manager contract for sPrime",
          "tokenX_": "The address of the token X.",
          "tokenY_": "The address of the token Y."
        }
      },
      "lockBalance(uint256,uint256)": {
        "details": "Locks a specified amount of balance for a specified lock period.",
        "params": {
          "amount": "The amount of balance to be locked.",
          "lockPeriod": "The duration for which the balance will be locked."
        }
      },
      "name()": {
        "details": "Returns the name of the token."
      },
      "owner()": {
        "details": "Returns the address of the current owner."
      },
      "releaseBalance(uint256)": {
        "details": "Releases a locked balance at a specified index.",
        "params": {
          "index": "The index of the lock to be released."
        }
      },
      "renounceOwnership()": {
        "details": "Leaves the contract without owner. It will not be possible to call `onlyOwner` functions. Can only be called by the current owner. NOTE: Renouncing ownership will leave the contract without an owner, thereby disabling any functionality that is only available to the owner."
      },
      "symbol()": {
        "details": "Returns the symbol of the token, usually a shorter version of the name."
      },
      "totalSupply()": {
        "details": "See {IERC20-totalSupply}."
      },
      "transfer(address,uint256)": {
        "details": "See {IERC20-transfer}. Requirements: - `to` cannot be the zero address. - the caller must have a balance of at least `amount`."
      },
      "transferFrom(address,address,uint256)": {
        "details": "See {IERC20-transferFrom}. Emits an {Approval} event indicating the updated allowance. This is not required by the EIP. See the note at the beginning of {ERC20}. NOTE: Does not update the allowance if the current allowance is the maximum `uint256`. Requirements: - `from` and `to` cannot be the zero address. - `from` must have a balance of at least `amount`. - the caller must have allowance for ``from``'s tokens of at least `amount`."
      },
      "withdraw(uint256)": {
        "details": "Users can use withdraw function for withdrawing their share.",
        "params": {
          "share": "Amount to withdraw"
        }
      }
    },
    "version": 1
  },
  "userdoc": {
    "kind": "user",
    "methods": {
      "getJoeV2RouterAddress()": {
        "notice": "Public View Functions "
      }
    },
    "version": 1
  },
  "storageLayout": {
    "storage": [
      {
        "astId": 138,
        "contract": "contracts/token/sPrime.sol:SPrime",
        "label": "_initialized",
        "offset": 0,
        "slot": "0",
        "type": "t_uint8"
      },
      {
        "astId": 141,
        "contract": "contracts/token/sPrime.sol:SPrime",
        "label": "_initializing",
        "offset": 1,
        "slot": "0",
        "type": "t_bool"
      },
      {
        "astId": 314,
        "contract": "contracts/token/sPrime.sol:SPrime",
        "label": "_status",
        "offset": 0,
        "slot": "1",
        "type": "t_uint256"
      },
      {
        "astId": 383,
        "contract": "contracts/token/sPrime.sol:SPrime",
        "label": "__gap",
        "offset": 0,
        "slot": "2",
        "type": "t_array(t_uint256)49_storage"
      },
      {
        "astId": 1470,
        "contract": "contracts/token/sPrime.sol:SPrime",
        "label": "__gap",
        "offset": 0,
        "slot": "51",
        "type": "t_array(t_uint256)50_storage"
      },
      {
        "astId": 10,
        "contract": "contracts/token/sPrime.sol:SPrime",
        "label": "_owner",
        "offset": 0,
        "slot": "101",
        "type": "t_address"
      },
      {
        "astId": 130,
        "contract": "contracts/token/sPrime.sol:SPrime",
        "label": "__gap",
        "offset": 0,
        "slot": "102",
        "type": "t_array(t_uint256)49_storage"
      },
      {
        "astId": 403,
        "contract": "contracts/token/sPrime.sol:SPrime",
        "label": "_balances",
        "offset": 0,
        "slot": "151",
        "type": "t_mapping(t_address,t_uint256)"
      },
      {
        "astId": 409,
        "contract": "contracts/token/sPrime.sol:SPrime",
        "label": "_allowances",
        "offset": 0,
        "slot": "152",
        "type": "t_mapping(t_address,t_mapping(t_address,t_uint256))"
      },
      {
        "astId": 411,
        "contract": "contracts/token/sPrime.sol:SPrime",
        "label": "_totalSupply",
        "offset": 0,
        "slot": "153",
        "type": "t_uint256"
      },
      {
        "astId": 413,
        "contract": "contracts/token/sPrime.sol:SPrime",
        "label": "_name",
        "offset": 0,
        "slot": "154",
        "type": "t_string_storage"
      },
      {
        "astId": 415,
        "contract": "contracts/token/sPrime.sol:SPrime",
        "label": "_symbol",
        "offset": 0,
        "slot": "155",
        "type": "t_string_storage"
      },
      {
        "astId": 995,
        "contract": "contracts/token/sPrime.sol:SPrime",
        "label": "__gap",
        "offset": 0,
        "slot": "156",
        "type": "t_array(t_uint256)45_storage"
      },
      {
        "astId": 9467,
        "contract": "contracts/token/sPrime.sol:SPrime",
        "label": "locks",
        "offset": 0,
        "slot": "201",
        "type": "t_mapping(t_address,t_array(t_struct(LockDetails)3693_storage)dyn_storage)"
      },
      {
        "astId": 9470,
        "contract": "contracts/token/sPrime.sol:SPrime",
        "label": "tokenX",
        "offset": 0,
        "slot": "202",
        "type": "t_contract(IERC20)1549"
      },
      {
        "astId": 9473,
        "contract": "contracts/token/sPrime.sol:SPrime",
        "label": "tokenY",
        "offset": 0,
        "slot": "203",
        "type": "t_contract(IERC20)1549"
      },
      {
        "astId": 9476,
        "contract": "contracts/token/sPrime.sol:SPrime",
        "label": "lbPair",
        "offset": 0,
        "slot": "204",
        "type": "t_contract(ILBPair)5993"
      },
      {
        "astId": 9479,
        "contract": "contracts/token/sPrime.sol:SPrime",
        "label": "positionManager",
        "offset": 0,
        "slot": "205",
        "type": "t_contract(IPositionManager)3684"
      },
      {
        "astId": 9481,
        "contract": "contracts/token/sPrime.sol:SPrime",
        "label": "vPrimeController",
        "offset": 0,
        "slot": "206",
        "type": "t_address"
      },
      {
        "astId": 9484,
        "contract": "contracts/token/sPrime.sol:SPrime",
        "label": "deltaIds",
        "offset": 0,
        "slot": "207",
        "type": "t_array(t_int256)dyn_storage"
      },
      {
        "astId": 9487,
        "contract": "contracts/token/sPrime.sol:SPrime",
        "label": "distributionX",
        "offset": 0,
        "slot": "208",
        "type": "t_array(t_uint256)dyn_storage"
      },
      {
        "astId": 9490,
        "contract": "contracts/token/sPrime.sol:SPrime",
        "label": "distributionY",
        "offset": 0,
        "slot": "209",
        "type": "t_array(t_uint256)dyn_storage"
      }
    ],
    "types": {
      "t_address": {
        "encoding": "inplace",
        "label": "address",
        "numberOfBytes": "20"
      },
      "t_array(t_int256)dyn_storage": {
        "base": "t_int256",
        "encoding": "dynamic_array",
        "label": "int256[]",
        "numberOfBytes": "32"
      },
      "t_array(t_struct(LockDetails)3693_storage)dyn_storage": {
        "base": "t_struct(LockDetails)3693_storage",
        "encoding": "dynamic_array",
        "label": "struct ISPrime.LockDetails[]",
        "numberOfBytes": "32"
      },
      "t_array(t_uint256)45_storage": {
        "base": "t_uint256",
        "encoding": "inplace",
        "label": "uint256[45]",
        "numberOfBytes": "1440"
      },
      "t_array(t_uint256)49_storage": {
        "base": "t_uint256",
        "encoding": "inplace",
        "label": "uint256[49]",
        "numberOfBytes": "1568"
      },
      "t_array(t_uint256)50_storage": {
        "base": "t_uint256",
        "encoding": "inplace",
        "label": "uint256[50]",
        "numberOfBytes": "1600"
      },
      "t_array(t_uint256)dyn_storage": {
        "base": "t_uint256",
        "encoding": "dynamic_array",
        "label": "uint256[]",
        "numberOfBytes": "32"
      },
      "t_bool": {
        "encoding": "inplace",
        "label": "bool",
        "numberOfBytes": "1"
      },
      "t_contract(IERC20)1549": {
        "encoding": "inplace",
        "label": "contract IERC20",
        "numberOfBytes": "20"
      },
      "t_contract(ILBPair)5993": {
        "encoding": "inplace",
        "label": "contract ILBPair",
        "numberOfBytes": "20"
      },
      "t_contract(IPositionManager)3684": {
        "encoding": "inplace",
        "label": "contract IPositionManager",
        "numberOfBytes": "20"
      },
      "t_int256": {
        "encoding": "inplace",
        "label": "int256",
        "numberOfBytes": "32"
      },
      "t_mapping(t_address,t_array(t_struct(LockDetails)3693_storage)dyn_storage)": {
        "encoding": "mapping",
        "key": "t_address",
        "label": "mapping(address => struct ISPrime.LockDetails[])",
        "numberOfBytes": "32",
        "value": "t_array(t_struct(LockDetails)3693_storage)dyn_storage"
      },
      "t_mapping(t_address,t_mapping(t_address,t_uint256))": {
        "encoding": "mapping",
        "key": "t_address",
        "label": "mapping(address => mapping(address => uint256))",
        "numberOfBytes": "32",
        "value": "t_mapping(t_address,t_uint256)"
      },
      "t_mapping(t_address,t_uint256)": {
        "encoding": "mapping",
        "key": "t_address",
        "label": "mapping(address => uint256)",
        "numberOfBytes": "32",
        "value": "t_uint256"
      },
      "t_string_storage": {
        "encoding": "bytes",
        "label": "string",
        "numberOfBytes": "32"
      },
      "t_struct(LockDetails)3693_storage": {
        "encoding": "inplace",
        "label": "struct ISPrime.LockDetails",
        "members": [
          {
            "astId": 3688,
            "contract": "contracts/token/sPrime.sol:SPrime",
            "label": "lockPeriod",
            "offset": 0,
            "slot": "0",
            "type": "t_uint256"
          },
          {
            "astId": 3690,
            "contract": "contracts/token/sPrime.sol:SPrime",
            "label": "amount",
            "offset": 0,
            "slot": "1",
            "type": "t_uint256"
          },
          {
            "astId": 3692,
            "contract": "contracts/token/sPrime.sol:SPrime",
            "label": "unlockTime",
            "offset": 0,
            "slot": "2",
            "type": "t_uint256"
          }
        ],
        "numberOfBytes": "96"
      },
      "t_uint256": {
        "encoding": "inplace",
        "label": "uint256",
        "numberOfBytes": "32"
      },
      "t_uint8": {
        "encoding": "inplace",
        "label": "uint8",
        "numberOfBytes": "1"
      }
    }
  }
}