{
  "address": "0xdBA9003eF859eC11b8bCB0Ea2D2950A660D9f773",
  "abi": [
    {
      "inputs": [
        {
          "internalType": "address",
          "name": "sPrimeUniswap_",
          "type": "address"
        }
      ],
      "stateMutability": "nonpayable",
      "type": "constructor"
    },
    {
      "inputs": [
        {
          "internalType": "address",
          "name": "user",
          "type": "address"
        },
        {
          "internalType": "uint256",
          "name": "poolPrice",
          "type": "uint256"
        }
      ],
      "name": "getUserValueInTokenY",
      "outputs": [
        {
          "internalType": "uint256",
          "name": "amountY",
          "type": "uint256"
        }
      ],
      "stateMutability": "view",
      "type": "function"
    },
    {
      "inputs": [],
      "name": "sPrime",
      "outputs": [
        {
          "internalType": "address",
          "name": "",
          "type": "address"
        }
      ],
      "stateMutability": "view",
      "type": "function"
    },
    {
      "inputs": [
        {
          "internalType": "uint256",
          "name": "tokenId",
          "type": "uint256"
        }
      ],
      "name": "tickInRange",
      "outputs": [
        {
          "internalType": "bool",
          "name": "",
          "type": "bool"
        }
      ],
      "stateMutability": "view",
      "type": "function"
    }
  ],
  "transactionHash": "0x9fbb7471dbc639a71ee3bd480f4a91784765a854e9a22b798fb1b9be1e9d036c",
  "args": [
    "0x04d36A9aAD2072C69E4B0Cb2A403D8a893064945"
  ],
  "numDeployments": 2,
  "solcInputHash": "29edacb22f612a961cf37a3be941cbff",
  "bytecode": "0x608060405234801561001057600080fd5b50604051611d20380380611d2083398101604081905261002f91610054565b600080546001600160a01b0319166001600160a01b0392909216919091179055610084565b60006020828403121561006657600080fd5b81516001600160a01b038116811461007d57600080fd5b9392505050565b611c8d806100936000396000f3fe608060405234801561001057600080fd5b50600436106100415760003560e01c80635d75169e14610046578063d76ca19b1461006f578063eddeebf314610092575b600080fd5b600054610059906001600160a01b031681565b60405161006691906116d0565b60405180910390f35b61008261007d3660046116e4565b6100b3565b6040519015158152602001610066565b6100a56100a0366004611715565b6101e0565b604051908152602001610066565b6000806100be61072a565b905060006100ca6107a7565b90506000826001600160a01b0316633850c7bd6040518163ffffffff1660e01b815260040160e060405180830381865afa15801561010c573d6000803e3d6000fd5b505050506040513d601f19601f820116820180604052508101906101309190611786565b5050505050915050600080836001600160a01b03166399fbab88886040518263ffffffff1660e01b815260040161016991815260200190565b61018060405180830381865afa158015610187573d6000803e3d6000fd5b505050506040513d601f19601f820116820180604052508101906101ab9190611843565b50505050509650965050505050508260020b8260020b131580156101d557508060020b8360020b13155b979650505050505050565b6000806101ec846107fb565b905060006101f861072a565b905060008060009054906101000a90046001600160a01b03166001600160a01b03166305e8746d6040518163ffffffff1660e01b8152600401602060405180830381865afa15801561024e573d6000803e3d6000fd5b505050506040513d601f19601f82011682018060405250810190610272919061191f565b905060008060009054906101000a90046001600160a01b03166001600160a01b031663da10610c6040518163ffffffff1660e01b8152600401602060405180830381865afa1580156102c8573d6000803e3d6000fd5b505050506040513d601f19601f820116820180604052508101906102ec919061191f565b90506000836001600160a01b0316630dfe16816040518163ffffffff1660e01b8152600401602060405180830381865afa15801561032e573d6000803e3d6000fd5b505050506040513d601f19601f82011682018060405250810190610352919061191f565b90506000846001600160a01b031663d21220a76040518163ffffffff1660e01b8152600401602060405180830381865afa158015610394573d6000803e3d6000fd5b505050506040513d601f19601f820116820180604052508101906103b8919061191f565b905060006103c46107a7565b9050861561071c57886001600160a01b038481169087161461046a5780836001600160a01b031663313ce5676040518163ffffffff1660e01b8152600401602060405180830381865afa15801561041f573d6000803e3d6000fd5b505050506040513d601f19601f82011682018060405250810190610443919061193c565b61044e90600861196d565b61045990600a611a6a565b6104639190611a8f565b90506104e8565b6104e581846001600160a01b031663313ce5676040518163ffffffff1660e01b8152600401602060405180830381865afa1580156104ac573d6000803e3d6000fd5b505050506040513d601f19601f820116820180604052508101906104d0919061193c565b6104db90600a611a6a565b6305f5e10061086d565b90505b60006002846001600160a01b031663313ce5676040518163ffffffff1660e01b8152600401602060405180830381865afa15801561052a573d6000803e3d6000fd5b505050506040513d601f19601f8201168201806040525081019061054e919061193c565b6105589190611aa3565b61056390600a611a6a565b61056c836109e8565b61057a90600160601b611ac5565b6105849190611a8f565b9050600061059c6001600160a01b0385168b84610a58565b9b5090506001600160a01b03868116908916146105b557995b6000886001600160a01b031663313ce5676040518163ffffffff1660e01b8152600401602060405180830381865afa1580156105f5573d6000803e3d6000fd5b505050506040513d601f19601f82011682018060405250810190610619919061193c565b90506000886001600160a01b031663313ce5676040518163ffffffff1660e01b8152600401602060405180830381865afa15801561065b573d6000803e3d6000fd5b505050506040513d601f19601f8201168201806040525081019061067f919061193c565b905061068c82600861196d565b60ff168160ff16106106de5760086106a48383611adc565b6106ae9190611adc565b6106b990600a611a6a565b6106c38f85611ac5565b6106cd9190611ac5565b6106d7908e611af5565b9c50610716565b610709838f836106ef86600861196d565b6106f99190611adc565b61070490600a611a6a565b61086d565b610713908e611af5565b9c505b50505050505b505050505050505b92915050565b60008060009054906101000a90046001600160a01b03166001600160a01b03166316f0115b6040518163ffffffff1660e01b8152600401602060405180830381865afa15801561077e573d6000803e3d6000fd5b505050506040513d601f19601f820116820180604052508101906107a2919061191f565b905090565b60008060009054906101000a90046001600160a01b03166001600160a01b031663791b98bc6040518163ffffffff1660e01b8152600401602060405180830381865afa15801561077e573d6000803e3d6000fd5b600080546040516338ae52a160e11b81526001600160a01b039091169063715ca5429061082c9085906004016116d0565b602060405180830381865afa158015610849573d6000803e3d6000fd5b505050506040513d601f19601f820116820180604052508101906107249190611b08565b60008080600019858709858702925082811083820303915050806000036108a6576000841161089b57600080fd5b5082900490506109e1565b8084116108b257600080fd5b60008486880980840393811190920391905060006108d286196001611af5565b86169586900495938490049360008190030460010190506108f38184611ac5565b909317926000610904876003611ac5565b60021890506109138188611ac5565b61091e906002611b21565b6109289082611ac5565b90506109348188611ac5565b61093f906002611b21565b6109499082611ac5565b90506109558188611ac5565b610960906002611b21565b61096a9082611ac5565b90506109768188611ac5565b610981906002611b21565b61098b9082611ac5565b90506109978188611ac5565b6109a2906002611b21565b6109ac9082611ac5565b90506109b88188611ac5565b6109c3906002611b21565b6109cd9082611ac5565b90506109d98186611ac5565b955050505050505b9392505050565b60006003821115610a495750806000610a02600283611a8f565b610a0d906001611af5565b90505b81811015610a4357905080600281610a288186611a8f565b610a329190611af5565b610a3c9190611a8f565b9050610a10565b50919050565b8115610a53575060015b919050565b600080600080610a69878787610aa3565b91509150600080610a7a8989610b55565b9092509050610a898285611af5565b610a938285611af5565b9550955050505050935093915050565b6000806000806000876001600160a01b03166399fbab88886040518263ffffffff1660e01b8152600401610ad991815260200190565b61018060405180830381865afa158015610af7573d6000803e3d6000fd5b505050506040513d601f19601f82011682018060405250810190610b1b9190611843565b505050509750975097505050505050610b4686610b3785610c89565b610b4085610c89565b846110a2565b94509450505050935093915050565b6000806000806000806000806000806000808d6001600160a01b03166399fbab888e6040518263ffffffff1660e01b8152600401610b9591815260200190565b61018060405180830381865afa158015610bb3573d6000803e3d6000fd5b505050506040513d601f19601f82011682018060405250810190610bd79190611843565b6001600160801b03169b506001600160801b03169b509b509b509b509b509b509b509b509b505050610c748e6040518061014001604052808d6001600160a01b031681526020018c6001600160a01b031681526020018b62ffffff1681526020018a60020b81526020018960020b8152602001886001600160801b031681526020018781526020018681526020018581526020018481525061113e565b9b509b50505050505050505050509250929050565b60008060008360020b12610ca0578260020b610cad565b8260020b610cad90611b34565b9050610cbc620d89e719611b50565b60020b811115610cf65760405162461bcd60e51b81526020600482015260016024820152601560fa1b604482015260640160405180910390fd5b600081600116600003610d0d57600160801b610d1f565b6ffffcb933bd6fad37aa2d162d1a5940015b6001600160881b031690506002821615610d54576080610d4f826ffff97272373d413259a46990580e213a611ac5565b901c90505b6004821615610d7e576080610d79826ffff2e50f5f656932ef12357cf3c7fdcc611ac5565b901c90505b6008821615610da8576080610da3826fffe5caca7e10e4e61c3624eaa0941cd0611ac5565b901c90505b6010821615610dd2576080610dcd826fffcb9843d60f6159c9db58835c926644611ac5565b901c90505b6020821615610dfc576080610df7826fff973b41fa98c081472e6896dfb254c0611ac5565b901c90505b6040821615610e26576080610e21826fff2ea16466c96a3843ec78b326b52861611ac5565b901c90505b6080821615610e50576080610e4b826ffe5dee046a99a2a811c461f1969c3053611ac5565b901c90505b610100821615610e7b576080610e76826ffcbe86c7900a88aedcffc83b479aa3a4611ac5565b901c90505b610200821615610ea6576080610ea1826ff987a7253ac413176f2b074cf7815e54611ac5565b901c90505b610400821615610ed1576080610ecc826ff3392b0822b70005940c7a398e4b70f3611ac5565b901c90505b610800821615610efc576080610ef7826fe7159475a2c29b7443b29c7fa6e889d9611ac5565b901c90505b611000821615610f27576080610f22826fd097f3bdfd2022b8845ad8f792aa5825611ac5565b901c90505b612000821615610f52576080610f4d826fa9f746462d870fdf8a65dc1f90e061e5611ac5565b901c90505b614000821615610f7d576080610f78826f70d869a156d2a1b890bb3df62baf32f7611ac5565b901c90505b618000821615610fa8576080610fa3826f31be135f97d08fd981231505542fcfa6611ac5565b901c90505b62010000821615610fd4576080610fcf826f09aa508b5b7a84e1c677de54f3e99bc9611ac5565b901c90505b62020000821615610fff576080610ffa826e5d6af8dedb81196699c329225ee604611ac5565b901c90505b62040000821615611029576080611024826d2216e584f5fa1ea926041bedfe98611ac5565b901c90505b6208000082161561105157608061104c826b048a170391f7dc42444e8fa2611ac5565b901c90505b60008460020b131561106c5761106981600019611a8f565b90505b61107a600160201b82611b72565b15611086576001611089565b60005b61109a9060ff16602083901c611af5565b949350505050565b600080836001600160a01b0316856001600160a01b031611156110c3579293925b846001600160a01b0316866001600160a01b0316116110ee576110e785858561126d565b9150611135565b836001600160a01b0316866001600160a01b031610156111275761111386858561126d565b91506111208587856112d7565b9050611135565b6111328585856112d7565b90505b94509492505050565b6000806000806111fe6111ef876001600160a01b031663c45a01556040518163ffffffff1660e01b8152600401602060405180830381865afa158015611188573d6000803e3d6000fd5b505050506040513d601f19601f820116820180604052508101906111ac919061191f565b604051806060016040528089600001516001600160a01b0316815260200189602001516001600160a01b03168152602001896040015162ffffff16815250611321565b86606001518760800151611405565b915091508461010001516112338660c001518461121b9190611b21565b8760a001516001600160801b0316600160801b61086d565b61123d9190611af5565b93508461012001516112588660e001518361121b9190611b21565b6112629190611af5565b925050509250929050565b6000826001600160a01b0316846001600160a01b0316111561128d579192915b6001600160a01b0384166112cd600160601b600160e01b03606085901b166112b58787611b86565b6001600160a01b0316866001600160a01b031661086d565b61109a9190611a8f565b6000826001600160a01b0316846001600160a01b031611156112f7579192915b61109a6001600160801b03831661130e8686611b86565b6001600160a01b0316600160601b61086d565b600081602001516001600160a01b031682600001516001600160a01b03161061134957600080fd5b815160208084015160408086015181516001600160a01b0395861681860152949092168482015262ffffff90911660608085019190915281518085038201815260808501909252815191909201206001600160f81b031960a08401529085901b6001600160601b03191660a183015260b58201527fe34f199b19b2b4f47f68442619d555527d244f78a3297ea89325f843f87b8b5460d582015260f50160408051601f1981840301815291905280516020909101209392505050565b6000806000856001600160a01b0316633850c7bd6040518163ffffffff1660e01b815260040160e060405180830381865afa158015611448573d6000803e3d6000fd5b505050506040513d601f19601f8201168201806040525081019061146c9190611786565b505060405163f30dba9360e01b815260028b900b60048201529395506000945084936001600160a01b038c16935063f30dba939250602401905061010060405180830381865afa1580156114c4573d6000803e3d6000fd5b505050506040513d601f19601f820116820180604052508101906114e89190611bad565b505060405163f30dba9360e01b815260028d900b600482015293975091955060009450849350506001600160a01b038c169163f30dba93915060240161010060405180830381865afa158015611542573d6000803e3d6000fd5b505050506040513d601f19601f820116820180604052508101906115669190611bad565b505050509350935050508860020b8560020b121561159b576115888285611b21565b96506115948184611b21565b95506116c3565b8760020b8560020b12156116aa5760008a6001600160a01b031663f30583996040518163ffffffff1660e01b8152600401602060405180830381865afa1580156115e9573d6000803e3d6000fd5b505050506040513d601f19601f8201168201806040525081019061160d9190611b08565b905060008b6001600160a01b031663461413196040518163ffffffff1660e01b8152600401602060405180830381865afa15801561164f573d6000803e3d6000fd5b505050506040513d601f19601f820116820180604052508101906116739190611b08565b9050836116808784611b21565b61168a9190611b21565b9850826116978683611b21565b6116a19190611b21565b975050506116c3565b6116b48483611b21565b96506116c08382611b21565b95505b5050505050935093915050565b6001600160a01b0391909116815260200190565b6000602082840312156116f657600080fd5b5035919050565b6001600160a01b038116811461171257600080fd5b50565b6000806040838503121561172857600080fd5b8235611733816116fd565b946020939093013593505050565b8051600281900b8114610a5357600080fd5b805161ffff81168114610a5357600080fd5b805160ff81168114610a5357600080fd5b80518015158114610a5357600080fd5b600080600080600080600060e0888a0312156117a157600080fd5b87516117ac816116fd565b96506117ba60208901611741565b95506117c860408901611753565b94506117d660608901611753565b93506117e460808901611753565b92506117f260a08901611765565b915061180060c08901611776565b905092959891949750929550565b8051610a53816116fd565b805162ffffff81168114610a5357600080fd5b80516001600160801b0381168114610a5357600080fd5b6000806000806000806000806000806000806101808d8f03121561186657600080fd5b8c516001600160601b038116811461187d57600080fd5b9b5061188b60208e0161180e565b9a5061189960408e0161180e565b99506118a760608e0161180e565b98506118b560808e01611819565b97506118c360a08e01611741565b96506118d160c08e01611741565b95506118df60e08e0161182c565b94506101008d015193506101208d015192506118fe6101408e0161182c565b915061190d6101608e0161182c565b90509295989b509295989b509295989b565b60006020828403121561193157600080fd5b81516109e1816116fd565b60006020828403121561194e57600080fd5b6109e182611765565b634e487b7160e01b600052601160045260246000fd5b60ff818116838216019081111561072457610724611957565b600181815b808511156119c15781600019048211156119a7576119a7611957565b808516156119b457918102915b93841c939080029061198b565b509250929050565b6000826119d857506001610724565b816119e557506000610724565b81600181146119fb5760028114611a0557611a21565b6001915050610724565b60ff841115611a1657611a16611957565b50506001821b610724565b5060208310610133831016604e8410600b8410161715611a44575081810a610724565b611a4e8383611986565b8060001904821115611a6257611a62611957565b029392505050565b60006109e160ff8416836119c9565b634e487b7160e01b600052601260045260246000fd5b600082611a9e57611a9e611a79565b500490565b600060ff831680611ab657611ab6611a79565b8060ff84160491505092915050565b808202811582820484141761072457610724611957565b60ff828116828216039081111561072457610724611957565b8082018082111561072457610724611957565b600060208284031215611b1a57600080fd5b5051919050565b8181038181111561072457610724611957565b6000600160ff1b8201611b4957611b49611957565b5060000390565b60008160020b627fffff198103611b6957611b69611957565b60000392915050565b600082611b8157611b81611a79565b500690565b6001600160a01b03828116828216039080821115611ba657611ba6611957565b5092915050565b600080600080600080600080610100898b031215611bca57600080fd5b611bd38961182c565b9750602089015180600f0b8114611be957600080fd5b80975050604089015195506060890151945060808901518060060b8114611c0f57600080fd5b60a08a0151909450611c20816116fd565b60c08a015190935063ffffffff81168114611c3a57600080fd5b9150611c4860e08a01611776565b9050929598509295989093965056fea264697066735822122065f15fa2e65a300518cd8bfb47ed95aafdd770cdaabbb84561ee9eab0f27979b64736f6c63430008110033",
  "devdoc": {
    "kind": "dev",
    "methods": {
      "getUserValueInTokenY(address,uint256)": {
        "details": "Returns the estimated USD value of the user position",
        "params": {
          "poolPrice": "Pool Price or oracle price for calculating proper token amount",
          "user": "User Address"
        },
        "returns": {
          "amountY": "Total Value in tokenY amount for the user's position."
        }
      }
    },
    "version": 1
  },
  "userdoc": {
    "kind": "user",
    "methods": {},
    "version": 1
  },
  "storageLayout": {
    "storage": [
      {
        "astId": 9112,
        "contract": "contracts/token/sPrimeUniswapImpl.sol:sPrimeUniswapImpl",
        "label": "sPrime",
        "offset": 0,
        "slot": "0",
        "type": "t_address"
      }
    ],
    "types": {
      "t_address": {
        "encoding": "inplace",
        "label": "address",
        "numberOfBytes": "20"
      }
    }
  }
}