{
  "address": "0x8117775542311FdB5f1E1B4DceB826b4BB82DE79",
  "abi": [
    {
      "inputs": [],
      "name": "BalanceLocked",
      "type": "error"
    },
    {
      "inputs": [],
      "name": "CalldataMustHaveValidPayload",
      "type": "error"
    },
    {
      "inputs": [],
      "name": "CalldataOverOrUnderFlow",
      "type": "error"
    },
    {
      "inputs": [],
      "name": "DataPackageTimestampMustNotBeZero",
      "type": "error"
    },
    {
      "inputs": [],
      "name": "DataPackageTimestampsMustBeEqual",
      "type": "error"
    },
    {
      "inputs": [],
      "name": "EachSignerMustProvideTheSameValue",
      "type": "error"
    },
    {
      "inputs": [],
      "name": "EmptyCalldataPointersArr",
      "type": "error"
    },
    {
      "inputs": [],
      "name": "IncorrectUnsignedMetadataSize",
      "type": "error"
    },
    {
      "inputs": [],
      "name": "InsufficientBalance",
      "type": "error"
    },
    {
      "inputs": [],
      "name": "InsufficientBalanceToLock",
      "type": "error"
    },
    {
      "inputs": [
        {
          "internalType": "uint256",
          "name": "receivedSignersCount",
          "type": "uint256"
        },
        {
          "internalType": "uint256",
          "name": "requiredSignersCount",
          "type": "uint256"
        }
      ],
      "name": "InsufficientNumberOfUniqueSigners",
      "type": "error"
    },
    {
      "inputs": [],
      "name": "InvalidCalldataPointer",
      "type": "error"
    },
    {
      "inputs": [],
      "name": "LengthMismatch",
      "type": "error"
    },
    {
      "inputs": [],
      "name": "LockPeriodExceeded",
      "type": "error"
    },
    {
      "inputs": [],
      "name": "NoPosition",
      "type": "error"
    },
    {
      "inputs": [],
      "name": "NoPositionToWithdraw",
      "type": "error"
    },
    {
      "inputs": [],
      "name": "PoolNotExisting",
      "type": "error"
    },
    {
      "inputs": [
        {
          "internalType": "bytes",
          "name": "result",
          "type": "bytes"
        }
      ],
      "name": "ProxyCalldataFailedWithCustomError",
      "type": "error"
    },
    {
      "inputs": [
        {
          "internalType": "string",
          "name": "message",
          "type": "string"
        }
      ],
      "name": "ProxyCalldataFailedWithStringMessage",
      "type": "error"
    },
    {
      "inputs": [],
      "name": "ProxyCalldataFailedWithoutErrMsg",
      "type": "error"
    },
    {
      "inputs": [],
      "name": "ReceiverAlreadyHasPosition",
      "type": "error"
    },
    {
      "inputs": [],
      "name": "RedstonePayloadMustHaveAtLeastOneDataPackage",
      "type": "error"
    },
    {
      "inputs": [
        {
          "internalType": "address",
          "name": "receivedSigner",
          "type": "address"
        }
      ],
      "name": "SignerNotAuthorised",
      "type": "error"
    },
    {
      "inputs": [],
      "name": "SlippageTooHigh",
      "type": "error"
    },
    {
      "inputs": [],
      "name": "StillInLockPeriod",
      "type": "error"
    },
    {
      "inputs": [],
      "name": "TotalLockMismatch",
      "type": "error"
    },
    {
      "inputs": [],
      "name": "UserAlreadyHasPosition",
      "type": "error"
    },
    {
      "anonymous": false,
      "inputs": [
        {
          "indexed": true,
          "internalType": "address",
          "name": "owner",
          "type": "address"
        },
        {
          "indexed": true,
          "internalType": "address",
          "name": "spender",
          "type": "address"
        },
        {
          "indexed": false,
          "internalType": "uint256",
          "name": "value",
          "type": "uint256"
        }
      ],
      "name": "Approval",
      "type": "event"
    },
    {
      "anonymous": false,
      "inputs": [
        {
          "indexed": false,
          "internalType": "uint8",
          "name": "version",
          "type": "uint8"
        }
      ],
      "name": "Initialized",
      "type": "event"
    },
    {
      "anonymous": false,
      "inputs": [
        {
          "indexed": true,
          "internalType": "address",
          "name": "from",
          "type": "address"
        },
        {
          "indexed": true,
          "internalType": "address",
          "name": "to",
          "type": "address"
        }
      ],
      "name": "OwnershipTransferRequested",
      "type": "event"
    },
    {
      "anonymous": false,
      "inputs": [
        {
          "indexed": true,
          "internalType": "address",
          "name": "previousOwner",
          "type": "address"
        },
        {
          "indexed": true,
          "internalType": "address",
          "name": "newOwner",
          "type": "address"
        }
      ],
      "name": "OwnershipTransferred",
      "type": "event"
    },
    {
      "anonymous": false,
      "inputs": [
        {
          "indexed": true,
          "internalType": "address",
          "name": "from",
          "type": "address"
        },
        {
          "indexed": true,
          "internalType": "address",
          "name": "to",
          "type": "address"
        },
        {
          "indexed": false,
          "internalType": "uint256",
          "name": "value",
          "type": "uint256"
        }
      ],
      "name": "Transfer",
      "type": "event"
    },
    {
      "inputs": [],
      "name": "MAX_LOCK_TIME",
      "outputs": [
        {
          "internalType": "uint256",
          "name": "",
          "type": "uint256"
        }
      ],
      "stateMutability": "view",
      "type": "function"
    },
    {
      "inputs": [],
      "name": "PRECISION",
      "outputs": [
        {
          "internalType": "uint256",
          "name": "",
          "type": "uint256"
        }
      ],
      "stateMutability": "view",
      "type": "function"
    },
    {
      "inputs": [],
      "name": "acceptOwnership",
      "outputs": [],
      "stateMutability": "nonpayable",
      "type": "function"
    },
    {
      "inputs": [
        {
          "internalType": "address",
          "name": "owner",
          "type": "address"
        },
        {
          "internalType": "address",
          "name": "spender",
          "type": "address"
        }
      ],
      "name": "allowance",
      "outputs": [
        {
          "internalType": "uint256",
          "name": "",
          "type": "uint256"
        }
      ],
      "stateMutability": "view",
      "type": "function"
    },
    {
      "inputs": [
        {
          "internalType": "address",
          "name": "spender",
          "type": "address"
        },
        {
          "internalType": "uint256",
          "name": "amount",
          "type": "uint256"
        }
      ],
      "name": "approve",
      "outputs": [
        {
          "internalType": "bool",
          "name": "",
          "type": "bool"
        }
      ],
      "stateMutability": "nonpayable",
      "type": "function"
    },
    {
      "inputs": [
        {
          "internalType": "address",
          "name": "account",
          "type": "address"
        }
      ],
      "name": "balanceOf",
      "outputs": [
        {
          "internalType": "uint256",
          "name": "",
          "type": "uint256"
        }
      ],
      "stateMutability": "view",
      "type": "function"
    },
    {
      "inputs": [],
      "name": "containsOracleCalldata",
      "outputs": [
        {
          "internalType": "bool",
          "name": "",
          "type": "bool"
        }
      ],
      "stateMutability": "view",
      "type": "function"
    },
    {
      "inputs": [],
      "name": "decimals",
      "outputs": [
        {
          "internalType": "uint8",
          "name": "",
          "type": "uint8"
        }
      ],
      "stateMutability": "view",
      "type": "function"
    },
    {
      "inputs": [
        {
          "internalType": "address",
          "name": "spender",
          "type": "address"
        },
        {
          "internalType": "uint256",
          "name": "subtractedValue",
          "type": "uint256"
        }
      ],
      "name": "decreaseAllowance",
      "outputs": [
        {
          "internalType": "bool",
          "name": "",
          "type": "bool"
        }
      ],
      "stateMutability": "nonpayable",
      "type": "function"
    },
    {
      "inputs": [
        {
          "internalType": "int24",
          "name": "tickDesired",
          "type": "int24"
        },
        {
          "internalType": "int24",
          "name": "tickSlippage",
          "type": "int24"
        },
        {
          "internalType": "uint256",
          "name": "amountX",
          "type": "uint256"
        },
        {
          "internalType": "uint256",
          "name": "amountY",
          "type": "uint256"
        },
        {
          "internalType": "bool",
          "name": "isRebalance",
          "type": "bool"
        },
        {
          "internalType": "uint256",
          "name": "swapSlippage",
          "type": "uint256"
        }
      ],
      "name": "deposit",
      "outputs": [],
      "stateMutability": "nonpayable",
      "type": "function"
    },
    {
      "inputs": [],
      "name": "extractTimestampsAndAssertAllAreEqual",
      "outputs": [
        {
          "internalType": "uint256",
          "name": "extractedTimestamp",
          "type": "uint256"
        }
      ],
      "stateMutability": "pure",
      "type": "function"
    },
    {
      "inputs": [],
      "name": "feeTier",
      "outputs": [
        {
          "internalType": "uint24",
          "name": "",
          "type": "uint24"
        }
      ],
      "stateMutability": "view",
      "type": "function"
    },
    {
      "inputs": [
        {
          "internalType": "address",
          "name": "account",
          "type": "address"
        }
      ],
      "name": "getFullyVestedLockedBalance",
      "outputs": [
        {
          "internalType": "uint256",
          "name": "fullyVestedBalance",
          "type": "uint256"
        }
      ],
      "stateMutability": "view",
      "type": "function"
    },
    {
      "inputs": [
        {
          "internalType": "address",
          "name": "account",
          "type": "address"
        }
      ],
      "name": "getLockedBalance",
      "outputs": [
        {
          "internalType": "uint256",
          "name": "",
          "type": "uint256"
        }
      ],
      "stateMutability": "view",
      "type": "function"
    },
    {
      "inputs": [],
      "name": "getPoolPrice",
      "outputs": [
        {
          "internalType": "uint256",
          "name": "",
          "type": "uint256"
        }
      ],
      "stateMutability": "view",
      "type": "function"
    },
    {
      "inputs": [],
      "name": "getTokenX",
      "outputs": [
        {
          "internalType": "contract IERC20",
          "name": "",
          "type": "address"
        }
      ],
      "stateMutability": "view",
      "type": "function"
    },
    {
      "inputs": [],
      "name": "getTokenY",
      "outputs": [
        {
          "internalType": "contract IERC20",
          "name": "",
          "type": "address"
        }
      ],
      "stateMutability": "view",
      "type": "function"
    },
    {
      "inputs": [
        {
          "internalType": "address",
          "name": "user",
          "type": "address"
        }
      ],
      "name": "getUserValueInTokenY",
      "outputs": [
        {
          "internalType": "uint256",
          "name": "",
          "type": "uint256"
        }
      ],
      "stateMutability": "view",
      "type": "function"
    },
    {
      "inputs": [
        {
          "internalType": "address",
          "name": "user",
          "type": "address"
        },
        {
          "internalType": "uint256",
          "name": "poolPrice",
          "type": "uint256"
        }
      ],
      "name": "getUserValueInTokenY",
      "outputs": [
        {
          "internalType": "uint256",
          "name": "amountY",
          "type": "uint256"
        }
      ],
      "stateMutability": "view",
      "type": "function"
    },
    {
      "inputs": [
        {
          "internalType": "address",
          "name": "spender",
          "type": "address"
        },
        {
          "internalType": "uint256",
          "name": "addedValue",
          "type": "uint256"
        }
      ],
      "name": "increaseAllowance",
      "outputs": [
        {
          "internalType": "bool",
          "name": "",
          "type": "bool"
        }
      ],
      "stateMutability": "nonpayable",
      "type": "function"
    },
    {
      "inputs": [
        {
          "internalType": "contract IERC20Metadata",
          "name": "tokenX_",
          "type": "address"
        },
        {
          "internalType": "contract IERC20Metadata",
          "name": "tokenY_",
          "type": "address"
        },
        {
          "internalType": "string",
          "name": "name_",
          "type": "string"
        },
        {
          "internalType": "uint24",
          "name": "feeTier_",
          "type": "uint24"
        },
        {
          "internalType": "int24",
          "name": "deltaId_",
          "type": "int24"
        },
        {
          "internalType": "contract INonfungiblePositionManager",
          "name": "positionManager_",
          "type": "address"
        },
        {
          "internalType": "contract ISwapRouter",
          "name": "swapRouter_",
          "type": "address"
        },
        {
          "internalType": "contract IUniswapV3Factory",
          "name": "uniV3Factory_",
          "type": "address"
        }
      ],
      "name": "initialize",
      "outputs": [],
      "stateMutability": "nonpayable",
      "type": "function"
    },
    {
      "inputs": [
        {
          "internalType": "uint256",
          "name": "amount",
          "type": "uint256"
        },
        {
          "internalType": "uint256",
          "name": "lockPeriod",
          "type": "uint256"
        }
      ],
      "name": "lockBalance",
      "outputs": [],
      "stateMutability": "nonpayable",
      "type": "function"
    },
    {
      "inputs": [
        {
          "internalType": "address",
          "name": "",
          "type": "address"
        },
        {
          "internalType": "uint256",
          "name": "",
          "type": "uint256"
        }
      ],
      "name": "locks",
      "outputs": [
        {
          "internalType": "uint256",
          "name": "lockPeriod",
          "type": "uint256"
        },
        {
          "internalType": "uint256",
          "name": "amount",
          "type": "uint256"
        },
        {
          "internalType": "uint256",
          "name": "unlockTime",
          "type": "uint256"
        }
      ],
      "stateMutability": "view",
      "type": "function"
    },
    {
      "inputs": [
        {
          "internalType": "uint256",
          "name": "tokenId",
          "type": "uint256"
        },
        {
          "internalType": "int24",
          "name": "tickDesired",
          "type": "int24"
        },
        {
          "internalType": "int24",
          "name": "tickSlippage",
          "type": "int24"
        },
        {
          "internalType": "uint256",
          "name": "swapSlippage",
          "type": "uint256"
        }
      ],
      "name": "migrateLiquidity",
      "outputs": [],
      "stateMutability": "nonpayable",
      "type": "function"
    },
    {
      "inputs": [
        {
          "internalType": "address",
          "name": "user",
          "type": "address"
        },
        {
          "internalType": "uint256[]",
          "name": "percentForLocks",
          "type": "uint256[]"
        },
        {
          "internalType": "uint256[]",
          "name": "lockPeriods",
          "type": "uint256[]"
        },
        {
          "internalType": "uint256",
          "name": "amountX",
          "type": "uint256"
        },
        {
          "internalType": "uint256",
          "name": "amountY",
          "type": "uint256"
        }
      ],
      "name": "mintForUserAndLock",
      "outputs": [],
      "stateMutability": "nonpayable",
      "type": "function"
    },
    {
      "inputs": [],
      "name": "name",
      "outputs": [
        {
          "internalType": "string",
          "name": "",
          "type": "string"
        }
      ],
      "stateMutability": "view",
      "type": "function"
    },
    {
      "inputs": [
        {
          "internalType": "address",
          "name": "",
          "type": "address"
        },
        {
          "internalType": "address",
          "name": "",
          "type": "address"
        },
        {
          "internalType": "uint256",
          "name": "",
          "type": "uint256"
        },
        {
          "internalType": "bytes",
          "name": "",
          "type": "bytes"
        }
      ],
      "name": "onERC721Received",
      "outputs": [
        {
          "internalType": "bytes4",
          "name": "",
          "type": "bytes4"
        }
      ],
      "stateMutability": "nonpayable",
      "type": "function"
    },
    {
      "inputs": [],
      "name": "owner",
      "outputs": [
        {
          "internalType": "address",
          "name": "",
          "type": "address"
        }
      ],
      "stateMutability": "view",
      "type": "function"
    },
    {
      "inputs": [],
      "name": "pendingOwner",
      "outputs": [
        {
          "internalType": "address",
          "name": "",
          "type": "address"
        }
      ],
      "stateMutability": "view",
      "type": "function"
    },
    {
      "inputs": [],
      "name": "pool",
      "outputs": [
        {
          "internalType": "contract IUniswapV3Pool",
          "name": "",
          "type": "address"
        }
      ],
      "stateMutability": "view",
      "type": "function"
    },
    {
      "inputs": [],
      "name": "positionManager",
      "outputs": [
        {
          "internalType": "contract INonfungiblePositionManager",
          "name": "",
          "type": "address"
        }
      ],
      "stateMutability": "view",
      "type": "function"
    },
    {
      "inputs": [],
      "name": "renounceOwnership",
      "outputs": [],
      "stateMutability": "nonpayable",
      "type": "function"
    },
    {
      "inputs": [
        {
          "internalType": "contract IVPrimeController",
          "name": "_vPrimeController",
          "type": "address"
        }
      ],
      "name": "setVPrimeControllerAddress",
      "outputs": [],
      "stateMutability": "nonpayable",
      "type": "function"
    },
    {
      "inputs": [],
      "name": "swapRouter",
      "outputs": [
        {
          "internalType": "contract ISwapRouter",
          "name": "",
          "type": "address"
        }
      ],
      "stateMutability": "view",
      "type": "function"
    },
    {
      "inputs": [],
      "name": "symbol",
      "outputs": [
        {
          "internalType": "string",
          "name": "",
          "type": "string"
        }
      ],
      "stateMutability": "view",
      "type": "function"
    },
    {
      "inputs": [
        {
          "internalType": "address",
          "name": "user",
          "type": "address"
        }
      ],
      "name": "tickInRange",
      "outputs": [
        {
          "internalType": "bool",
          "name": "",
          "type": "bool"
        }
      ],
      "stateMutability": "view",
      "type": "function"
    },
    {
      "inputs": [],
      "name": "tickSpacing",
      "outputs": [
        {
          "internalType": "int24",
          "name": "",
          "type": "int24"
        }
      ],
      "stateMutability": "view",
      "type": "function"
    },
    {
      "inputs": [],
      "name": "tokenDecimals",
      "outputs": [
        {
          "internalType": "uint8",
          "name": "",
          "type": "uint8"
        }
      ],
      "stateMutability": "view",
      "type": "function"
    },
    {
      "inputs": [],
      "name": "tokenSequence",
      "outputs": [
        {
          "internalType": "bool",
          "name": "",
          "type": "bool"
        }
      ],
      "stateMutability": "view",
      "type": "function"
    },
    {
      "inputs": [],
      "name": "tokenX",
      "outputs": [
        {
          "internalType": "contract IERC20Metadata",
          "name": "",
          "type": "address"
        }
      ],
      "stateMutability": "view",
      "type": "function"
    },
    {
      "inputs": [],
      "name": "tokenY",
      "outputs": [
        {
          "internalType": "contract IERC20Metadata",
          "name": "",
          "type": "address"
        }
      ],
      "stateMutability": "view",
      "type": "function"
    },
    {
      "inputs": [],
      "name": "totalSupply",
      "outputs": [
        {
          "internalType": "uint256",
          "name": "",
          "type": "uint256"
        }
      ],
      "stateMutability": "view",
      "type": "function"
    },
    {
      "inputs": [
        {
          "internalType": "address",
          "name": "to",
          "type": "address"
        },
        {
          "internalType": "uint256",
          "name": "amount",
          "type": "uint256"
        }
      ],
      "name": "transfer",
      "outputs": [
        {
          "internalType": "bool",
          "name": "",
          "type": "bool"
        }
      ],
      "stateMutability": "nonpayable",
      "type": "function"
    },
    {
      "inputs": [
        {
          "internalType": "address",
          "name": "from",
          "type": "address"
        },
        {
          "internalType": "address",
          "name": "to",
          "type": "address"
        },
        {
          "internalType": "uint256",
          "name": "amount",
          "type": "uint256"
        }
      ],
      "name": "transferFrom",
      "outputs": [
        {
          "internalType": "bool",
          "name": "",
          "type": "bool"
        }
      ],
      "stateMutability": "nonpayable",
      "type": "function"
    },
    {
      "inputs": [
        {
          "internalType": "address",
          "name": "newOwner",
          "type": "address"
        }
      ],
      "name": "transferOwnership",
      "outputs": [],
      "stateMutability": "nonpayable",
      "type": "function"
    },
    {
      "inputs": [
        {
          "internalType": "address",
          "name": "",
          "type": "address"
        }
      ],
      "name": "userTokenId",
      "outputs": [
        {
          "internalType": "uint256",
          "name": "",
          "type": "uint256"
        }
      ],
      "stateMutability": "view",
      "type": "function"
    },
    {
      "inputs": [],
      "name": "vPrimeController",
      "outputs": [
        {
          "internalType": "contract IVPrimeController",
          "name": "",
          "type": "address"
        }
      ],
      "stateMutability": "view",
      "type": "function"
    },
    {
      "inputs": [
        {
          "internalType": "uint256",
          "name": "share",
          "type": "uint256"
        }
      ],
      "name": "withdraw",
      "outputs": [],
      "stateMutability": "nonpayable",
      "type": "function"
    }
  ],
  "transactionHash": "0x6fc95ee30ae2edaffdc8a9d2f90bbf560c807978a15d72eb74c5c2aac9db5950",
  "args": [],
  "numDeployments": 4,
  "solcInputHash": "668545445dedcc9b763ab121a865af56",
  "bytecode": "0x608060405234801561001057600080fd5b50615ea380620000216000396000f3fe608060405234801561001057600080fd5b50600436106102305760003560e01c806305e8746d1461023557806306fdde0314610258578063095ea7b31461026d5780630d1870df14610290578063150b7a021461029857806316dc165b146102c457806316f0115b146102d757806318160ddd146102ea578063191723ed146102fc5780631d648fd11461031157806320d2a1131461032457806323b872dd1461033757806328581f291461034a5780632e1a7d4d1461035f578063313ce5671461037257806339509351146103915780633b97e856146103a4578063447ff262146103b857806355a547d5146103cc57806358b81ffd146103d457806370a08231146103e7578063715018a6146103fa578063715ca5421461040257806372f5d98a14610422578063791b98bc1461044c57806379ba509714610460578063808d7c9b14610468578063885a08e01461047b5780638da5cb5b1461048357806395d89b411461048b5780639e95c5fc14610493578063a457c2d7146104a6578063a9059cbb146104b9578063aaf5eb68146104cc578063b425f802146104d4578063b7d19fc414610502578063b9b3010b14610515578063bf9ee48314610528578063c31c9c071461053b578063c40868931461054f578063c4ce635814610562578063d0c93a7c14610575578063da10610c1461059c578063dd62ed3e146105ad578063e30c3978146105c0578063eddeebf3146105c8578063f2fde38b146105db578063fa78668f146105ee575b600080fd5b60fd546001600160a01b03165b60405161024f9190614f7d565b60405180910390f35b6102606105f9565b60405161024f9190614fe1565b61028061027b366004615009565b61068b565b604051901515815260200161024f565b6102806106a5565b6102ab6102a63660046150c0565b6106b9565b6040516001600160e01b0319909116815260200161024f565b60fd54610242906001600160a01b031681565b60ff54610242906001600160a01b031681565b6099545b60405190815260200161024f565b61030f61030a36600461513f565b6106ca565b005b61030f61031f3660046151a5565b6107bf565b6102ee610332366004615236565b610b24565b610280610345366004615253565b610b42565b6101025461028090600160a01b900460ff1681565b61030f61036d366004615294565b610b66565b60ff8054600160a01b9004165b60405160ff909116815260200161024f565b61028061039f366004615009565b610dd1565b60ff805461037f91600160a01b9091041681565b61010254610242906001600160a01b031681565b6102ee610df3565b61030f6103e23660046152c7565b610f0b565b6102ee6103f5366004615236565b610f5a565b61030f610f75565b6102ee610410366004615236565b60fc6020526000908152604090205481565b60ff5461043890600160a81b900462ffffff1681565b60405162ffffff909116815260200161024f565b61010054610242906001600160a01b031681565b61030f610f89565b61030f610476366004615236565b611018565b6102ee611043565b6102426111fe565b61026061120d565b61030f6104a136600461532a565b61121c565b6102806104b4366004615009565b61124f565b6102806104c7366004615009565b6112ca565b6102ee601481565b6104e76104e2366004615009565b6112d8565b6040805193845260208401929092529082015260600161024f565b60fe54610242906001600160a01b031681565b61030f6105233660046153b8565b61131a565b610280610536366004615236565b6116c6565b61010154610242906001600160a01b031681565b6102ee61055d366004615236565b61181f565b6102ee610570366004615236565b6118eb565b60fe5461058990600160a01b900460020b81565b60405160029190910b815260200161024f565b60fe546001600160a01b0316610242565b6102ee6105bb366004615481565b611a09565b610242611a34565b6102ee6105d6366004615009565b611a43565b61030f6105e9366004615236565b611dc0565b6102ee6305a39a8081565b6060609a8054610608906154ba565b80601f0160208091040260200160405190810160405280929190818152602001828054610634906154ba565b80156106815780601f1061065657610100808354040283529160200191610681565b820191906000526020600020905b81548152906001019060200180831161066457829003601f168201915b5050505050905090565b600033610699818585611e87565b60019150505b92915050565b6602ed57011e0000601f1936013581161490565b630a85bd0160e11b5b949350505050565b6106d2611fab565b3360006106de8261181f565b90506106ea8185615504565b6106f383610f5a565b101561071257604051635d4fa00b60e11b815260040160405180910390fd5b6305a39a8083111561073757604051633821834560e01b815260040160405180910390fd5b6001600160a01b038216600090815260fb602090815260409182902082516060810184528681529182018790529181016107718642615504565b9052815460018181018455600093845260209384902083516003909302019182559282015192810192909255604001516002909101556107b082612004565b50506107bb60018055565b5050565b6107c7611fab565b336107d4813085856120e3565b6107dd88610f5a565b156107fb5760405163433060d560e11b815260040160405180910390fd5b8386811461081f576040516001621398b960e31b0319815260040160405180910390fd5b61082c84846101f461216e565b60ff5460408051633850c7bd60e01b815290519397509195506000926001600160a01b0390911691633850c7bd9160048083019260e09291908290030181865afa15801561087e573d6000803e3d6000fd5b505050506040513d601f19601f820116820180604052508101906108a29190615550565b50505050509150506108b3816123c7565b60fe5490915061091b908b906108de90600160b81b8104600290810b91600160a01b9004900b6155df565b6108e890846155ff565b60fe5461090a90600160b81b8104600290810b91600160a01b9004900b6155df565b6109149085615624565b88886123eb565b506000805b828160ff16146109635789898260ff1681811061093f5761093f615649565b90506020020135826109519190615504565b915061095c8161565f565b9050610920565b5080606414610985576040516305f502a160e01b815260040160405180910390fd5b60006109908b610f5a565b90506000915060005b838160ff1614610b04576305a39a8089898360ff168181106109bd576109bd615649565b9050602002013511156109e357604051633821834560e01b815260040160405180910390fd5b60006109f060018661567e565b8260ff1614610a315760648c8c8460ff16818110610a1057610a10615649565b9050602002013584610a229190615691565b610a2c91906156be565b610a3b565b610a3b848461567e565b6001600160a01b038e16600090815260fb602052604090819020815160608101909252919250808c8c60ff8716818110610a7757610a77615649565b9050602002013581526020018381526020018c8c8660ff16818110610a9e57610a9e615649565b9050602002013542610ab09190615504565b905281546001818101845560009384526020938490208351600390930201918255928201519281019290925560400151600290910155610af08185615504565b93505080610afd9061565f565b9050610999565b50610b0e8b612004565b50505050610b1b60018055565b50505050505050565b600080610b2f611043565b9050610b3b8382611a43565b9392505050565b600033610b50858285612650565b610b5b8585856126c4565b506001949350505050565b610b6e611fab565b33600081815260fc602052604081205490819003610b9f576040516350fbff7d60e11b815260040160405180910390fd5b6101005460405163133f757160e31b8152600481018390526000916001600160a01b0316906399fbab889060240161018060405180830381865afa158015610beb573d6000803e3d6000fd5b505050506040513d601f19601f82011682018060405250810190610c0f91906156ff565b505050509750505050505050506000610c2784610f5a565b9050610c328461181f565b610c3c9086615504565b811015610c5c5760405163298f11cf60e11b815260040160405180910390fd5b610100546040805160a081019091528481526001600160a01b0390911690630c49ccbe906020810184610c988a6001600160801b038916615691565b610ca291906156be565b6001600160801b031681526020016000815260200160008152602001428152506040518263ffffffff1660e01b8152600401610cde91906157db565b60408051808303816000875af1158015610cfc573d6000803e3d6000fd5b505050506040513d601f19601f82011682018060405250810190610d209190615819565b5050610d2c838561286e565b5050848103610dae5761010054604051630852cd8d60e31b8152600481018590526001600160a01b03909116906342966c6890602401600060405180830381600087803b158015610d7c57600080fd5b505af1158015610d90573d6000803e3d6000fd5b5050506001600160a01b038516600090815260fc6020526040812055505b610db88486612933565b610dc184612004565b50505050610dce60018055565b50565b600033610699818585610de48383611a09565b610dee9190615504565b611e87565b600080610dfe612a6d565b90506000610e0b82612b14565b61ffff16905080600003610e3257604051632154bfcf60e21b815260040160405180910390fd5b610e3d600283615504565b915060005b81811015610f05576000610e5584612b4e565b9050600080610e65606887615504565b90506000610e73823661567e565b9050803592508265ffffffffffff16600003610ea257604051630336dc9d60e41b815260040160405180910390fd5b87600003610eba578265ffffffffffff169750610ee2565b878365ffffffffffff1614610ee25760405163d9d1f46560e01b815260040160405180910390fd5b610eec8488615504565b9650505050508080610efd9061583d565b915050610e42565b50505090565b610f13611fab565b60405162461bcd60e51b815260206004820152601160248201527046756e6374696f6e20696e61637469766560781b60448201526064015b60405180910390fd5b50505050565b6001600160a01b031660009081526097602052604090205490565b610f7d612b82565b610f876000612be1565b565b6000610f93612c33565b9050336001600160a01b038216146110055760405162461bcd60e51b815260206004820152602f60248201527f50656e64696e674f776e61626c653a2063616c6c6572206973206e6f7420746860448201526e32903832b73234b7339037bbb732b960891b6064820152608401610f4b565b61100e81612be1565b610dce6000612c46565b611020612b82565b61010280546001600160a01b0319166001600160a01b0392909216919091179055565b60008060ff60009054906101000a90046001600160a01b03166001600160a01b0316633850c7bd6040518163ffffffff1660e01b815260040160e060405180830381865afa158015611099573d6000803e3d6000fd5b505050506040513d601f19601f820116820180604052508101906110bd9190615550565b505050505091505060006111658260fd60009054906101000a90046001600160a01b03166001600160a01b031663313ce5676040518163ffffffff1660e01b8152600401602060405180830381865afa15801561111e573d6000803e3d6000fd5b505050506040513d601f19601f820116820180604052508101906111429190615856565b61114d90600a615955565b60fd5460fe546001600160a01b039182169116612c58565b90506111f7816305f5e10060fe60009054906101000a90046001600160a01b03166001600160a01b031663313ce5676040518163ffffffff1660e01b8152600401602060405180830381865afa1580156111c3573d6000803e3d6000fd5b505050506040513d601f19601f820116820180604052508101906111e79190615856565b6111f290600a615955565b612d61565b9250505090565b6065546001600160a01b031690565b6060609b8054610608906154ba565b611224611fab565b611230333086866120e3565b61123e868686868686612eda565b61124760018055565b505050505050565b6000338161125d8286611a09565b9050838110156112bd5760405162461bcd60e51b815260206004820152602560248201527f45524332303a2064656372656173656420616c6c6f77616e63652062656c6f77604482015264207a65726f60d81b6064820152608401610f4b565b610b5b8286868403611e87565b6000336106998185856126c4565b60fb60205281600052604060002081815481106112f457600080fd5b600091825260209091206003909102018054600182015460029092015490935090915083565b600054610100900460ff161580801561133a5750600054600160ff909116105b8061135b575061134930613289565b15801561135b575060005460ff166001145b6113be5760405162461bcd60e51b815260206004820152602e60248201527f496e697469616c697a61626c653a20636f6e747261637420697320616c72656160448201526d191e481a5b9a5d1a585b1a5e995960921b6064820152608401610f4b565b6000805460ff1916600117905580156113e1576000805461ff0019166101001790555b6113e9613298565b6113f16132c7565b6114198760405180604001604052806006815260200165735072696d6560d01b8152506132ee565b61142161332e565b876001600160a01b031663313ce5676040518163ffffffff1660e01b8152600401602060405180830381865afa15801561145f573d6000803e3d6000fd5b505050506040513d601f19601f820116820180604052508101906114839190615856565b60ff805461010280546001600160a01b03808e168f8216818111600160a01b90810260ff60a01b19959095169490941790945560fd80546001600160a01b0319908116909517905560fe80548516909117905562ffffff8c16600160a81b0262ffffff60a81b199686169092029590951663ffffffff60a01b199093169290921791909117909155610100805487841690831617905561010180548684169216919091179055604051630b4c774160e11b8152600091841690631698ee8290611554908d908d908c90600401615964565b602060405180830381865afa158015611571573d6000803e3d6000fd5b505050506040513d601f19601f82011682018060405250810190611595919061598c565b90506001600160a01b0381166115be5760405163ce6390eb60e01b815260040160405180910390fd5b60ff80546001600160a01b0319166001600160a01b038316908117909155604080516334324e9f60e21b8152905163d0c93a7c916004808201926020929091908290030181865afa158015611617573d6000803e3d6000fd5b505050506040513d601f19601f8201168201806040525081019061163b91906159a9565b60fe805465ffffffffffff60a01b1916600160a01b62ffffff9384160262ffffff60b81b191617600160b81b928916929092029190911790555080156116bb576000805461ff0019169055604051600181527f7f26b83ff96e1f2b6a682f133852f6798a09c465da95921460cefb38474024989060200160405180910390a15b505050505050505050565b6001600160a01b038116600090815260fc60205260408120548082036116ff57604051632afc3c0d60e21b815260040160405180910390fd5b60ff5460408051633850c7bd60e01b815290516000926001600160a01b031691633850c7bd9160048083019260e09291908290030181865afa158015611749573d6000803e3d6000fd5b505050506040513d601f19601f8201168201806040525081019061176d9190615550565b50506101005460405163133f757160e31b8152600481018990529496506000955085946001600160a01b0390911693506399fbab889250602401905061018060405180830381865afa1580156117c7573d6000803e3d6000fd5b505050506040513d601f19601f820116820180604052508101906117eb91906156ff565b50505050509650965050505050508260020b8260020b1315801561181557508060020b8360020b13155b9695505050505050565b6001600160a01b038116600090815260fb60205260408120548190815b8181146118e2576001600160a01b038516600090815260fb6020526040902080544291908390811061187057611870615649565b90600052602060002090600302016002015411156118d2576001600160a01b038516600090815260fb602052604090208054829081106118b2576118b2615649565b906000526020600020906003020160010154836118cf9190615504565b92505b6118db8161583d565b905061183c565b50909392505050565b6001600160a01b038116600090815260fb6020526040812054815b818114611a02576001600160a01b038416600090815260fb6020526040902080544291908390811061193a5761193a615649565b90600052602060002090600302016002015411156119f2576001600160a01b038416600090815260fb6020526040902080546119e591908390811061198157611981615649565b90600052602060002090600302016001015460fb6000876001600160a01b03166001600160a01b0316815260200190815260200160002083815481106119c9576119c9615649565b9060005260206000209060030201600001546305a39a80612d61565b6119ef9084615504565b92505b6119fb8161583d565b9050611906565b5050919050565b6001600160a01b03918216600090815260986020908152604080832093909416825291909152205490565b6000611a3e612c33565b905090565b6001600160a01b038216600090815260fc60205260408120548015611db95760fd5460fe54610102546001600160a01b0392831692909116908590600160a01b900460ff1615611aa85760fe5460fd546001600160a01b039182169450169150611abc565b611ab981662386f26fc100006156be565b90505b6008836001600160a01b031663313ce5676040518163ffffffff1660e01b8152600401602060405180830381865afa158015611afc573d6000803e3d6000fd5b505050506040513d601f19601f82011682018060405250810190611b209190615856565b60ff16836001600160a01b031663313ce5676040518163ffffffff1660e01b8152600401602060405180830381865afa158015611b61573d6000803e3d6000fd5b505050506040513d601f19601f82011682018060405250810190611b859190615856565b611b939060ff166014615504565b611b9d919061567e565b611ba7919061567e565b611bb290600a6159c6565b611bbc9082615691565b90506000611bcc600260146156be565b611bd790600a6159c6565b611be083613355565b611bee90600160601b615691565b611bf891906156be565b61010054909150600090611c16906001600160a01b031687846133c5565b61010254909850909150600160a01b900460ff16611c35578087611c38565b86815b60fd546040805163313ce56760e01b81529051929a509293506000926001600160a01b039091169163313ce567916004808201926020929091908290030181865afa158015611c8b573d6000803e3d6000fd5b505050506040513d601f19601f82011682018060405250810190611caf9190615856565b9050600060fe60009054906101000a90046001600160a01b03166001600160a01b031663313ce5676040518163ffffffff1660e01b8152600401602060405180830381865afa158015611d06573d6000803e3d6000fd5b505050506040513d601f19601f82011682018060405250810190611d2a9190615856565b9050611d378260086159d2565b60ff168160ff1610611d89576008611d4f83836159eb565b611d5991906159eb565b611d6490600a615955565b611d6e8b85615691565b611d789190615691565b611d82908a615504565b9850611db1565b611da4838b83611d9a8660086159d2565b6111e791906159eb565b611dae908a615504565b98505b505050505050505b5092915050565b611dc8612b82565b6001600160a01b038116611e345760405162461bcd60e51b815260206004820152602d60248201527f50656e64696e674f776e61626c653a206e6577206f776e65722069732074686560448201526c207a65726f206164647265737360981b6064820152608401610f4b565b611e3d81612c46565b806001600160a01b0316611e4f6111fe565b6001600160a01b03167fed8889f560326eb138920d842192f0eb3dd22b4f139c87a2c57538e05bae127860405160405180910390a350565b6001600160a01b038316611ee95760405162461bcd60e51b8152602060048201526024808201527f45524332303a20617070726f76652066726f6d20746865207a65726f206164646044820152637265737360e01b6064820152608401610f4b565b6001600160a01b038216611f4a5760405162461bcd60e51b815260206004820152602260248201527f45524332303a20617070726f766520746f20746865207a65726f206164647265604482015261737360f01b6064820152608401610f4b565b6001600160a01b0383811660008181526098602090815260408083209487168084529482529182902085905590518481527f8c5be1e5ebec7d5bd14f71427d1e84f3dd0314c0f7b2291e5b200ac8c7c3b925910160405180910390a3505050565b600260015403611ffd5760405162461bcd60e51b815260206004820152601f60248201527f5265656e7472616e637947756172643a207265656e7472616e742063616c6c006044820152606401610f4b565b6002600155565b610102546001600160a01b031615610dce5761201e6106a5565b1561207757610102546040516107bb916001600160a01b031690612046908490602401614f7d565b60408051601f198184030181529190526020810180516001600160e01b0316636cec346160e01b1790526000613410565b6101025460405163bf18c23960e01b81526001600160a01b039091169063bf18c239906120a8908490600401614f7d565b600060405180830381600087803b1580156120c257600080fd5b505af11580156120d6573d6000803e3d6000fd5b5050505050565b60018055565b306001600160a01b038516036121325781156121105760fd54612110906001600160a01b031684846134a4565b801561212d5760fe5461212d906001600160a01b031684836134a4565b610f54565b81156121505760fd54612150906001600160a01b03168585856134fa565b8015610f545760fe54610f54906001600160a01b03168585846134fa565b600080600061217c86613532565b905080851060008161219757612192838861567e565b6121a1565b6121a1878461567e565b90508060646121b160058a615691565b6121bb91906156be565b1080156121d0575060008311806121d0575087155b156123bb5760008060ff60009054906101000a90046001600160a01b03166001600160a01b0316633850c7bd6040518163ffffffff1660e01b815260040160e060405180830381865afa15801561222b573d6000803e3d6000fd5b505050506040513d601f19601f8201168201806040525081019061224f9190615550565b50505050509150506122808160028561226891906156be565b60fe5460fd546001600160a01b039182169116612c58565b9150600090506122916002846156be565b9050600080856122a25782846122a5565b83835b909450925085156122ca57505060fd5460fe546001600160a01b0391821691166122e0565b505060fe5460fd546001600160a01b0391821691165b61010154612326906001600160a01b03166000886123095760fe546001600160a01b0316612316565b60fd546001600160a01b03165b6001600160a01b031691906135d6565b6101015461234e906001600160a01b031685886123095760fe546001600160a01b0316612316565b61237a8282866127106123618f8261567e565b61236b9089615691565b61237591906156be565b6136da565b90945092508561239d5761238e838d615504565b612398858d61567e565b6123b1565b6123a7848d61567e565b6123b1848d615504565b909c509a50505050505b50959694955050505050565b60fe54600090600160a01b900460020b6123e18184615a04565b61069f91906155df565b6001600160a01b03808616600090815260fc60205260408120546101005460fd549193839261241f929082169116876138c4565b6101005460fe5461243d916001600160a01b039182169116866138c4565b82600003612550576101008054604080516101608101825260fd546001600160a01b03908116825260fe548116602083015260ff54600160a81b900462ffffff168284015260028c810b60608401528b900b608083015260a082018a905260c08201899052600060e083018190529482019490945230610120820152426101408201529051634418b22b60e11b815292909116916388316456916124e391600401615a3e565b6080604051808303816000875af1158015612502573d6000803e3d6000fd5b505050506040513d601f19601f820116820180604052508101906125269190615af4565b6001600160a01b038c16600090815260fc60205260409020849055929550935090915061261a9050565b610100546040805160c08101825285815260208101888152818301888152600060608401818152608085019182524260a08601908152955163219f5d1760e01b815294516004860152925160248501529051604484015290516064830152516084820152905160a48201526001600160a01b039091169063219f5d179060c4016060604051808303816000875af11580156125ef573d6000803e3d6000fd5b505050506040513d601f19601f820116820180604052508101906126139190615b30565b9093509150505b6000612626838361395d565b9050612646308a612637868a61567e565b612641868a61567e565b6120e3565b6116bb8982613975565b600061265c8484611a09565b90506000198114610f5457818110156126b75760405162461bcd60e51b815260206004820152601d60248201527f45524332303a20696e73756666696369656e7420616c6c6f77616e63650000006044820152606401610f4b565b610f548484848403611e87565b6001600160a01b0383166127285760405162461bcd60e51b815260206004820152602560248201527f45524332303a207472616e736665722066726f6d20746865207a65726f206164604482015264647265737360d81b6064820152608401610f4b565b6001600160a01b03821661278a5760405162461bcd60e51b815260206004820152602360248201527f45524332303a207472616e7366657220746f20746865207a65726f206164647260448201526265737360e81b6064820152608401610f4b565b612795838383613a38565b6001600160a01b0383166000908152609760205260409020548181101561280d5760405162461bcd60e51b815260206004820152602660248201527f45524332303a207472616e7366657220616d6f756e7420657863656564732062604482015265616c616e636560d01b6064820152608401610f4b565b6001600160a01b038085166000818152609760205260408082208686039055928616808252908390208054860190559151600080516020615e4e8339815191529061285b9086815260200190565b60405180910390a3610f54848484613aa1565b61010054604080516080810182528481526001600160a01b03848116602083019081526001600160801b0383850181815260608501828152955163fc6f786560e01b815294516004860152915183166024850152905181166044840152925190921660648201526000928392169063fc6f78659060840160408051808303816000875af1158015612903573d6000803e3d6000fd5b505050506040513d601f19601f820116820180604052508101906129279190615819565b915091505b9250929050565b6001600160a01b0382166129935760405162461bcd60e51b815260206004820152602160248201527f45524332303a206275726e2066726f6d20746865207a65726f206164647265736044820152607360f81b6064820152608401610f4b565b61299f82600083613a38565b6001600160a01b03821660009081526097602052604090205481811015612a135760405162461bcd60e51b815260206004820152602260248201527f45524332303a206275726e20616d6f756e7420657863656564732062616c616e604482015261636560f01b6064820152608401610f4b565b6001600160a01b0383166000818152609760209081526040808320868603905560998054879003905551858152919291600080516020615e4e833981519152910160405180910390a3612a6883600084613aa1565b505050565b60006602ed57011e0000601f1936013581161480612a9e576040516373bb264f60e11b815260040160405180910390fd5b60003660291115612ac257604051632bcb7bc560e11b815260040160405180910390fd5b5060281936013560006009612add600362ffffff8516615504565b612ae79190615504565b905036612af5600283615504565b1115610b3b5760405163c30a7bd760e01b815260040160405180910390fd5b600080612b22602084615504565b905036811115612b4557604051632bcb7bc560e11b815260040160405180910390fd5b36033592915050565b6000806000612b5c84613e41565b9092509050604e612b6e826020615504565b612b789084615691565b6106c29190615504565b33612b8b6111fe565b6001600160a01b031614610f875760405162461bcd60e51b815260206004820181905260248201527f4f776e61626c653a2063616c6c6572206973206e6f7420746865206f776e65726044820152606401610f4b565b606580546001600160a01b038381166001600160a01b0319831681179093556040519116919082907f8be0079c531659141344cd1fd0a4f28419497f9722a3daafe3b4186f6b6457e090600090a35050565b600080516020615e2e8339815191525490565b600080516020615e2e83398151915255565b600080612c6486613e98565b90506001600160801b036001600160a01b03821611612cea576000612c926001600160a01b03831680615691565b9050836001600160a01b0316856001600160a01b031610612cca57612cc5600160c01b876001600160801b031683612d61565b612ce2565b612ce281876001600160801b0316600160c01b612d61565b925050612d58565b6000612d046001600160a01b03831680600160401b612d61565b9050836001600160a01b0316856001600160a01b031610612d3c57612d37600160801b876001600160801b031683612d61565b612d54565b612d5481876001600160801b0316600160801b612d61565b9250505b50949350505050565b6000808060001985870985870292508281108382030391505080600003612d9a5760008411612d8f57600080fd5b508290049050610b3b565b808411612da657600080fd5b6000848688098084039381119092039190506000612dc686196001615504565b8616958690049593849004936000819003046001019050612de78184615691565b909317926000612df8876003615691565b6002189050612e078188615691565b612e1290600261567e565b612e1c9082615691565b9050612e288188615691565b612e3390600261567e565b612e3d9082615691565b9050612e498188615691565b612e5490600261567e565b612e5e9082615691565b9050612e6a8188615691565b612e7590600261567e565b612e7f9082615691565b9050612e8b8188615691565b612e9690600261567e565b612ea09082615691565b9050612eac8188615691565b612eb790600261567e565b612ec19082615691565b9050612ecd8186615691565b9998505050505050505050565b6101f4811115612efd5760405163428637bb60e11b815260040160405180910390fd5b33600081815260fc60205260408120549091829182919080156130fe576101005460405163133f757160e31b8152600481018390526000916001600160a01b0316906399fbab889060240161018060405180830381865afa158015612f66573d6000803e3d6000fd5b505050506040513d601f19601f82011682018060405250810190612f8a91906156ff565b50949e50929c50909850508e1596506130fc9550505050505057610100546040805160a0810182528481526001600160801b0384166020820152600081830181905260608201524260808201529051630624e65f60e11b81526001600160a01b0390921691630c49ccbe91613001916004016157db565b60408051808303816000875af115801561301f573d6000803e3d6000fd5b505050506040513d601f19601f820116820180604052508101906130439190615819565b5050600080613052843061286e565b915091506130688561306387610f5a565b612933565b61010054604051630852cd8d60e31b8152600481018690526001600160a01b03909116906342966c6890602401600060405180830381600087803b1580156130af57600080fd5b505af11580156130c3573d6000803e3d6000fd5b5050506001600160a01b038616600090815260fc6020526040812055506130ea828d615504565b6130f4828d615504565b909c509a5050505b505b61310989898861216e565b6001600160a01b038416600090815260fc6020526040812054929b50909950036132665760ff60009054906101000a90046001600160a01b03166001600160a01b0316633850c7bd6040518163ffffffff1660e01b815260040160e060405180830381865afa158015613180573d6000803e3d6000fd5b505050506040513d601f19601f820116820180604052508101906131a49190615550565b509399506131b994508993506123c792505050565b9450600285900b6131ca8b8d615624565b60020b121580156131eb575060028b900b6131e58b87615624565b60020b12155b6132085760405163428637bb60e11b815260040160405180910390fd5b60fe5461322a90600160b81b8104600290810b91600160a01b9004900b6155df565b61323490866155ff565b60fe5490945061325990600160b81b8104600290810b91600160a01b9004900b6155df565b6132639086615624565b92505b6132738285858c8c6123eb565b61327c82612004565b5050505050505050505050565b6001600160a01b03163b151590565b600054610100900460ff166132bf5760405162461bcd60e51b8152600401610f4b90615b65565b610f876142a5565b600054610100900460ff166120dd5760405162461bcd60e51b8152600401610f4b90615b65565b600054610100900460ff166133155760405162461bcd60e51b8152600401610f4b90615b65565b609a6133218382615bf6565b50609b612a688282615bf6565b600054610100900460ff16610f875760405162461bcd60e51b8152600401610f4b90615b65565b600060038211156133b6575080600061336f6002836156be565b61337a906001615504565b90505b818110156133b05790508060028161339581866156be565b61339f9190615504565b6133a991906156be565b905061337d565b50919050565b81156133c0575060015b919050565b6000806000806133d68787876142d4565b915091506000806133e78989614386565b90925090506133f68285615504565b6134008285615504565b9550955050505050935093915050565b6060600061341d846144ba565b9050600080866001600160a01b03168561343857600061343a565b345b846040516134489190615cb5565b60006040518083038185875af1925050503d8060008114613485576040519150601f19603f3d011682016040523d82523d6000602084013e61348a565b606091505b50915091506134998282614549565b979650505050505050565b612a688363a9059cbb60e01b84846040516024016134c3929190615cd1565b60408051601f198184030181529190526020810180516001600160e01b03166001600160e01b0319909316929092179091526145c0565b6040516001600160a01b0380851660248301528316604482015260648101829052610f549085906323b872dd60e01b906084016134c3565b60008060ff60009054906101000a90046001600160a01b03166001600160a01b0316633850c7bd6040518163ffffffff1660e01b815260040160e060405180830381865afa158015613588573d6000803e3d6000fd5b505050506040513d601f19601f820116820180604052508101906135ac9190615550565b505060fd5460fe54949650610b3b955086948994506001600160a01b039182169350169050612c58565b8015806136505750604051636eb1769f60e11b81523060048201526001600160a01b03838116602483015284169063dd62ed3e90604401602060405180830381865afa15801561362a573d6000803e3d6000fd5b505050506040513d601f19601f8201168201806040525081019061364e9190615cea565b155b6136bb5760405162461bcd60e51b815260206004820152603660248201527f5361666545524332303a20617070726f76652066726f6d206e6f6e2d7a65726f60448201527520746f206e6f6e2d7a65726f20616c6c6f77616e636560501b6064820152608401610f4b565b612a688363095ea7b360e01b84846040516024016134c3929190615cd1565b6000806000866001600160a01b03166370a08231306040518263ffffffff1660e01b815260040161370b9190614f7d565b602060405180830381865afa158015613728573d6000803e3d6000fd5b505050506040513d601f19601f8201168201806040525081019061374c9190615cea565b610101546040805160e0810182526001600160a01b038b811682528a81166020830190815260ff54600160a81b900462ffffff9081168486019081523060608601908152608086018e815260a087018e8152600060c0890190815298516304e45aaf60e01b8152975187166004890152945186166024880152915190921660448601529051831660648501525160848401525160a48301529151821660c482015292935016906304e45aaf9060e4016020604051808303816000875af115801561381a573d6000803e3d6000fd5b505050506040513d601f19601f8201168201806040525081019061383e9190615cea565b6040516370a0823160e01b81529092506001600160a01b038816906370a082319061386d903090600401614f7d565b602060405180830381865afa15801561388a573d6000803e3d6000fd5b505050506040513d601f19601f820116820180604052508101906138ae9190615cea565b6138b8908261567e565b92505094509492505050565b600063095ea7b360e01b83836040516024016138e1929190615cd1565b60408051601f198184030181529190526020810180516001600160e01b03166001600160e01b031990931692909217909152905061391f8482614695565b610f54576040516001600160a01b03841660248201526000604482015261395390859063095ea7b360e01b906064016134c3565b610f5484826145c0565b60008061396984613532565b90506106c28184615504565b6001600160a01b0382166139cb5760405162461bcd60e51b815260206004820152601f60248201527f45524332303a206d696e7420746f20746865207a65726f2061646472657373006044820152606401610f4b565b6139d760008383613a38565b80609960008282546139e99190615504565b90915550506001600160a01b038216600081815260976020908152604080832080548601905551848152600080516020615e4e833981519152910160405180910390a36107bb60008383613aa1565b6001600160a01b03831615801590613a5857506001600160a01b03821615155b15612a68576000613a688461181f565b90506000613a7585610f5a565b9050613a818284615504565b8110156120d657604051631e9acf1760e31b815260040160405180910390fd5b6001600160a01b03831615801590613ac157506001600160a01b03821615155b15612a68576000613ad184610f5a565b6001600160a01b038416600090815260fc602052604090205490915015613b0b5760405163433060d560e11b815260040160405180910390fd5b6001600160a01b038416600090815260fc6020526040902054613b2e818661286e565b5050828203613b69576001600160a01b03808616600081815260fc602052604080822080549489168352908220939093559081529055613e2f565b6101005460405163133f757160e31b815260048101839052600091829182916001600160a01b0316906399fbab889060240161018060405180830381865afa158015613bb9573d6000803e3d6000fd5b505050506040513d601f19601f82011682018060405250810190613bdd91906156ff565b50505050975097509750505050505061010060009054906101000a90046001600160a01b03166001600160a01b0316630c49ccbe6040518060a00160405280878152602001888a866001600160801b0316613c389190615691565b613c4291906156be565b6001600160801b031681526020016000815260200160008152602001428152506040518263ffffffff1660e01b8152600401613c7e91906157db565b60408051808303816000875af1158015613c9c573d6000803e3d6000fd5b505050506040513d601f19601f82011682018060405250810190613cc09190615819565b5050600080613ccf863061286e565b6101008054604080516101608101825260fd546001600160a01b03908116825260fe548116602083015260ff54600160a81b900462ffffff168284015260028c810b60608401528b900b608083015260a0820187905260c08201869052600060e0830181905294820185905230610120830152426101408301529151634418b22b60e11b815295975093955091938493849390921691638831645691613d789190600401615a3e565b6080604051808303816000875af1158015613d97573d6000803e3d6000fd5b505050506040513d601f19601f82011682018060405250810190613dbb9190615af4565b935093505092506000613dce838361395d565b9050808c1115613deb57613de68d613063838f61567e565b613dfe565b613dfe8d613df98e8461567e565b613975565b613e0d308e612637868a61567e565b5050506001600160a01b038a16600090815260fc602052604090205550505050505b613e3885612004565b6120d684612004565b600080808080613e52604187615504565b90506000613e6b613e64602084615504565b3690614737565b803594509050613e7c816003614737565b62ffffff9490941697933563ffffffff16965092945050505050565b60008060008360020b12613eaf578260020b613ebc565b8260020b613ebc90615d03565b9050613ecb620d89e719615d1f565b60020b811115613f015760405162461bcd60e51b81526020600482015260016024820152601560fa1b6044820152606401610f4b565b600081600116600003613f1857600160801b613f2a565b6ffffcb933bd6fad37aa2d162d1a5940015b6001600160881b031690506002821615613f5f576080613f5a826ffff97272373d413259a46990580e213a615691565b901c90505b6004821615613f89576080613f84826ffff2e50f5f656932ef12357cf3c7fdcc615691565b901c90505b6008821615613fb3576080613fae826fffe5caca7e10e4e61c3624eaa0941cd0615691565b901c90505b6010821615613fdd576080613fd8826fffcb9843d60f6159c9db58835c926644615691565b901c90505b6020821615614007576080614002826fff973b41fa98c081472e6896dfb254c0615691565b901c90505b604082161561403157608061402c826fff2ea16466c96a3843ec78b326b52861615691565b901c90505b608082161561405b576080614056826ffe5dee046a99a2a811c461f1969c3053615691565b901c90505b610100821615614086576080614081826ffcbe86c7900a88aedcffc83b479aa3a4615691565b901c90505b6102008216156140b15760806140ac826ff987a7253ac413176f2b074cf7815e54615691565b901c90505b6104008216156140dc5760806140d7826ff3392b0822b70005940c7a398e4b70f3615691565b901c90505b610800821615614107576080614102826fe7159475a2c29b7443b29c7fa6e889d9615691565b901c90505b61100082161561413257608061412d826fd097f3bdfd2022b8845ad8f792aa5825615691565b901c90505b61200082161561415d576080614158826fa9f746462d870fdf8a65dc1f90e061e5615691565b901c90505b614000821615614188576080614183826f70d869a156d2a1b890bb3df62baf32f7615691565b901c90505b6180008216156141b35760806141ae826f31be135f97d08fd981231505542fcfa6615691565b901c90505b620100008216156141df5760806141da826f09aa508b5b7a84e1c677de54f3e99bc9615691565b901c90505b6202000082161561420a576080614205826e5d6af8dedb81196699c329225ee604615691565b901c90505b6204000082161561423457608061422f826d2216e584f5fa1ea926041bedfe98615691565b901c90505b6208000082161561425c576080614257826b048a170391f7dc42444e8fa2615691565b901c90505b60008460020b131561427757614274816000196156be565b90505b614285600160201b82615d41565b15614291576001614294565b60005b6106c29060ff16602083901c615504565b600054610100900460ff166142cc5760405162461bcd60e51b8152600401610f4b90615b65565b610f87614743565b6000806000806000876001600160a01b03166399fbab88886040518263ffffffff1660e01b815260040161430a91815260200190565b61018060405180830381865afa158015614328573d6000803e3d6000fd5b505050506040513d601f19601f8201168201806040525081019061434c91906156ff565b5050505097509750975050505050506143778661436885613e98565b61437185613e98565b84614773565b94509450505050935093915050565b6000806000806000806000806000806000808d6001600160a01b03166399fbab888e6040518263ffffffff1660e01b81526004016143c691815260200190565b61018060405180830381865afa1580156143e4573d6000803e3d6000fd5b505050506040513d601f19601f8201168201806040525081019061440891906156ff565b6001600160801b03169b506001600160801b03169b509b509b509b509b509b509b509b509b5050506144a58e6040518061014001604052808d6001600160a01b031681526020018c6001600160a01b031681526020018b62ffffff1681526020018a60020b81526020018960020b8152602001886001600160801b031681526020018781526020018681526020018581526020018481525061480f565b9b509b50505050505050505050509250929050565b805160609060006144c961493e565b905060006144d78284615504565b9050368211156144fa57604051632bcb7bc560e11b815260040160405180910390fd5b6060604051905081815285602001848101826020015b81831015614528578251815260209283019201614510565b50505082833603856020018301379190920181016020016040529392505050565b6060826133b057815160000361457257604051632b3ff13d60e11b815260040160405180910390fd5b602082015162461bcd60e51b1480156145a5576040516301efd04f60e31b81526044840190610f4b908290600401614fe1565b8260405163fd36fde360e01b8152600401610f4b9190614fe1565b6000614615826040518060400160405280602081526020017f5361666545524332303a206c6f772d6c6576656c2063616c6c206661696c6564815250856001600160a01b03166149a99092919063ffffffff16565b90508051600014806146365750808060200190518101906146369190615d55565b612a685760405162461bcd60e51b815260206004820152602a60248201527f5361666545524332303a204552433230206f7065726174696f6e20646964206e6044820152691bdd081cdd58d8d9595960b21b6064820152608401610f4b565b6000806000846001600160a01b0316846040516146b29190615cb5565b6000604051808303816000865af19150503d80600081146146ef576040519150601f19603f3d011682016040523d82523d6000602084013e6146f4565b606091505b509150915081801561471e57508051158061471e57508080602001905181019061471e9190615d55565b801561472e575061472e85613289565b95945050505050565b6000610b3b828461567e565b600054610100900460ff1661476a5760405162461bcd60e51b8152600401610f4b90615b65565b610f8733612be1565b600080836001600160a01b0316856001600160a01b03161115614794579293925b846001600160a01b0316866001600160a01b0316116147bf576147b88585856149b8565b9150614806565b836001600160a01b0316866001600160a01b031610156147f8576147e48685856149b8565b91506147f1858785614a22565b9050614806565b614803858585614a22565b90505b94509492505050565b6000806000806148cf6148c0876001600160a01b031663c45a01556040518163ffffffff1660e01b8152600401602060405180830381865afa158015614859573d6000803e3d6000fd5b505050506040513d601f19601f8201168201806040525081019061487d919061598c565b604051806060016040528089600001516001600160a01b0316815260200189602001516001600160a01b03168152602001896040015162ffffff16815250614a6c565b86606001518760800151614b4b565b915091508461010001516149048660c00151846148ec919061567e565b8760a001516001600160801b0316600160801b612d61565b61490e9190615504565b93508461012001516149298660e00151836148ec919061567e565b6149339190615504565b925050509250929050565b600080614949612a6d565b9050600061495682612b14565b61ffff169050614967600283615504565b915060005b818110156149a157600061497f84612b4e565b905061498b8185615504565b93505080806149999061583d565b91505061496c565b509092915050565b60606106c28484600085614e16565b6000826001600160a01b0316846001600160a01b031611156149d8579192915b6001600160a01b038416614a18600160601b600160e01b03606085901b16614a008787615d72565b6001600160a01b0316866001600160a01b0316612d61565b6106c291906156be565b6000826001600160a01b0316846001600160a01b03161115614a42579192915b6106c26001600160801b038316614a598686615d72565b6001600160a01b0316600160601b612d61565b600081602001516001600160a01b031682600001516001600160a01b031610614a9457600080fd5b82826000015183602001518460400151604051602001614ab693929190615964565b60408051601f19818403018152908290528051602091820120614b2c939290917fe34f199b19b2b4f47f68442619d555527d244f78a3297ea89325f843f87b8b5491016001600160f81b0319815260609390931b6001600160601b03191660018401526015830191909152603582015260550190565b60408051601f1981840301815291905280516020909101209392505050565b6000806000856001600160a01b0316633850c7bd6040518163ffffffff1660e01b815260040160e060405180830381865afa158015614b8e573d6000803e3d6000fd5b505050506040513d601f19601f82011682018060405250810190614bb29190615550565b505060405163f30dba9360e01b815260028b900b60048201529395506000945084936001600160a01b038c16935063f30dba939250602401905061010060405180830381865afa158015614c0a573d6000803e3d6000fd5b505050506040513d601f19601f82011682018060405250810190614c2e9190615d92565b505060405163f30dba9360e01b815260028d900b600482015293975091955060009450849350506001600160a01b038c169163f30dba93915060240161010060405180830381865afa158015614c88573d6000803e3d6000fd5b505050506040513d601f19601f82011682018060405250810190614cac9190615d92565b505050509350935050508860020b8560020b1215614ce157614cce828561567e565b9650614cda818461567e565b9550614e09565b8760020b8560020b1215614df05760008a6001600160a01b031663f30583996040518163ffffffff1660e01b8152600401602060405180830381865afa158015614d2f573d6000803e3d6000fd5b505050506040513d601f19601f82011682018060405250810190614d539190615cea565b905060008b6001600160a01b031663461413196040518163ffffffff1660e01b8152600401602060405180830381865afa158015614d95573d6000803e3d6000fd5b505050506040513d601f19601f82011682018060405250810190614db99190615cea565b905083614dc6878461567e565b614dd0919061567e565b985082614ddd868361567e565b614de7919061567e565b97505050614e09565b614dfa848361567e565b9650614e06838261567e565b95505b5050505050935093915050565b606082471015614e775760405162461bcd60e51b815260206004820152602660248201527f416464726573733a20696e73756666696369656e742062616c616e636520666f6044820152651c8818d85b1b60d21b6064820152608401610f4b565b600080866001600160a01b03168587604051614e939190615cb5565b60006040518083038185875af1925050503d8060008114614ed0576040519150601f19603f3d011682016040523d82523d6000602084013e614ed5565b606091505b5091509150612d548783838760608315614f4e578251600003614f4757614efb85613289565b614f475760405162461bcd60e51b815260206004820152601d60248201527f416464726573733a2063616c6c20746f206e6f6e2d636f6e74726163740000006044820152606401610f4b565b50816106c2565b6106c28383815115614f635781518083602001fd5b8060405162461bcd60e51b8152600401610f4b9190614fe1565b6001600160a01b0391909116815260200190565b60005b83811015614fac578181015183820152602001614f94565b50506000910152565b60008151808452614fcd816020860160208601614f91565b601f01601f19169290920160200192915050565b602081526000610b3b6020830184614fb5565b6001600160a01b0381168114610dce57600080fd5b6000806040838503121561501c57600080fd5b823561502781614ff4565b946020939093013593505050565b634e487b7160e01b600052604160045260246000fd5b60006001600160401b038084111561506557615065615035565b604051601f8501601f19908116603f0116810190828211818310171561508d5761508d615035565b816040528093508581528686860111156150a657600080fd5b858560208301376000602087830101525050509392505050565b600080600080608085870312156150d657600080fd5b84356150e181614ff4565b935060208501356150f181614ff4565b92506040850135915060608501356001600160401b0381111561511357600080fd5b8501601f8101871361512457600080fd5b6151338782356020840161504b565b91505092959194509250565b6000806040838503121561515257600080fd5b50508035926020909101359150565b60008083601f84011261517357600080fd5b5081356001600160401b0381111561518a57600080fd5b6020830191508360208260051b850101111561292c57600080fd5b600080600080600080600060a0888a0312156151c057600080fd5b87356151cb81614ff4565b965060208801356001600160401b03808211156151e757600080fd5b6151f38b838c01615161565b909850965060408a013591508082111561520c57600080fd5b506152198a828b01615161565b989b979a5095989597966060870135966080013595509350505050565b60006020828403121561524857600080fd5b8135610b3b81614ff4565b60008060006060848603121561526857600080fd5b833561527381614ff4565b9250602084013561528381614ff4565b929592945050506040919091013590565b6000602082840312156152a657600080fd5b5035919050565b8060020b8114610dce57600080fd5b80356133c0816152ad565b600080600080608085870312156152dd57600080fd5b8435935060208501356152ef816152ad565b925060408501356152ff816152ad565b9396929550929360600135925050565b6001600160a01b03169052565b8015158114610dce57600080fd5b60008060008060008060c0878903121561534357600080fd5b863561534e816152ad565b9550602087013561535e816152ad565b94506040870135935060608701359250608087013561537c8161531c565b8092505060a087013590509295509295509295565b62ffffff81168114610dce57600080fd5b80356133c081615391565b80356133c081614ff4565b600080600080600080600080610100898b0312156153d557600080fd5b88356153e081614ff4565b975060208901356153f081614ff4565b965060408901356001600160401b0381111561540b57600080fd5b8901601f81018b1361541c57600080fd5b61542b8b82356020840161504b565b96505061543a60608a016153a2565b945061544860808a016152bc565b935061545660a08a016153ad565b925061546460c08a016153ad565b915061547260e08a016153ad565b90509295985092959890939650565b6000806040838503121561549457600080fd5b823561549f81614ff4565b915060208301356154af81614ff4565b809150509250929050565b600181811c908216806154ce57607f821691505b6020821081036133b057634e487b7160e01b600052602260045260246000fd5b634e487b7160e01b600052601160045260246000fd5b8082018082111561069f5761069f6154ee565b80516133c0816152ad565b805161ffff811681146133c057600080fd5b805160ff811681146133c057600080fd5b80516133c08161531c565b600080600080600080600060e0888a03121561556b57600080fd5b875161557681614ff4565b6020890151909750615587816152ad565b955061559560408901615522565b94506155a360608901615522565b93506155b160808901615522565b92506155bf60a08901615534565b915060c08801516155cf8161531c565b8091505092959891949750929550565b60008260020b8260020b028060020b9150808214611db957611db96154ee565b600282810b9082900b03627fffff198112627fffff8213171561069f5761069f6154ee565b600281810b9083900b01627fffff8113627fffff198212171561069f5761069f6154ee565b634e487b7160e01b600052603260045260246000fd5b600060ff821660ff8103615675576156756154ee565b60010192915050565b8181038181111561069f5761069f6154ee565b808202811582820484141761069f5761069f6154ee565b634e487b7160e01b600052601260045260246000fd5b6000826156cd576156cd6156a8565b500490565b80516133c081614ff4565b80516133c081615391565b80516001600160801b03811681146133c057600080fd5b6000806000806000806000806000806000806101808d8f03121561572257600080fd5b8c516001600160601b038116811461573957600080fd5b9b5061574760208e016156d2565b9a5061575560408e016156d2565b995061576360608e016156d2565b985061577160808e016156dd565b975061577f60a08e01615517565b965061578d60c08e01615517565b955061579b60e08e016156e8565b94506101008d015193506101208d015192506157ba6101408e016156e8565b91506157c96101608e016156e8565b90509295989b509295989b509295989b565b815181526020808301516001600160801b03169082015260408083015190820152606080830151908201526080918201519181019190915260a00190565b6000806040838503121561582c57600080fd5b505080516020909101519092909150565b60006001820161584f5761584f6154ee565b5060010190565b60006020828403121561586857600080fd5b610b3b82615534565b600181815b808511156158ac578160001904821115615892576158926154ee565b8085161561589f57918102915b93841c9390800290615876565b509250929050565b6000826158c35750600161069f565b816158d05750600061069f565b81600181146158e657600281146158f05761590c565b600191505061069f565b60ff841115615901576159016154ee565b50506001821b61069f565b5060208310610133831016604e8410600b841016171561592f575081810a61069f565b6159398383615871565b806000190482111561594d5761594d6154ee565b029392505050565b6000610b3b60ff8416836158b4565b6001600160a01b03938416815291909216602082015262ffffff909116604082015260600190565b60006020828403121561599e57600080fd5b8151610b3b81614ff4565b6000602082840312156159bb57600080fd5b8151610b3b816152ad565b6000610b3b83836158b4565b60ff818116838216019081111561069f5761069f6154ee565b60ff828116828216039081111561069f5761069f6154ee565b60008160020b8360020b80615a1b57615a1b6156a8565b627fffff19821460001982141615615a3557615a356154ee565b90059392505050565b600061016082019050615a5282845161530f565b6020830151615a64602084018261530f565b506040830151615a7b604084018262ffffff169052565b506060830151615a90606084018260020b9052565b506080830151615aa5608084018260020b9052565b5060a083015160a083015260c083015160c083015260e083015160e083015261010080840151818401525061012080840151615ae38285018261530f565b505061014092830151919092015290565b60008060008060808587031215615b0a57600080fd5b84519350615b1a602086016156e8565b6040860151606090960151949790965092505050565b600080600060608486031215615b4557600080fd5b615b4e846156e8565b925060208401519150604084015190509250925092565b6020808252602b908201527f496e697469616c697a61626c653a20636f6e7472616374206973206e6f74206960408201526a6e697469616c697a696e6760a81b606082015260800190565b601f821115612a6857600081815260208120601f850160051c81016020861015615bd75750805b601f850160051c820191505b8181101561124757828155600101615be3565b81516001600160401b03811115615c0f57615c0f615035565b615c2381615c1d84546154ba565b84615bb0565b602080601f831160018114615c585760008415615c405750858301515b600019600386901b1c1916600185901b178555611247565b600085815260208120601f198616915b82811015615c8757888601518255948401946001909101908401615c68565b5085821015615ca55787850151600019600388901b60f8161c191681555b5050505050600190811b01905550565b60008251615cc7818460208701614f91565b9190910192915050565b6001600160a01b03929092168252602082015260400190565b600060208284031215615cfc57600080fd5b5051919050565b6000600160ff1b8201615d1857615d186154ee565b5060000390565b60008160020b627fffff198103615d3857615d386154ee565b60000392915050565b600082615d5057615d506156a8565b500690565b600060208284031215615d6757600080fd5b8151610b3b8161531c565b6001600160a01b03828116828216039080821115611db957611db96154ee565b600080600080600080600080610100898b031215615daf57600080fd5b615db8896156e8565b9750602089015180600f0b8114615dce57600080fd5b80975050604089015195506060890151945060808901518060060b8114615df457600080fd5b60a08a0151909450615e0581614ff4565b60c08a015190935063ffffffff81168114615e1f57600080fd5b915061547260e08a0161554556fe63a0d9df49fae3f1b9d24f8dc819a568c429a1b11d0d8e9de63df53a0194acb2ddf252ad1be2c89b69c2b068fc378daa952ba7f163c4a11628f55a4df523b3efa2646970667358221220da9fdd203e05d2c8390735f44aa57bb38264569c22d13da13078d92a2ae79f0164736f6c63430008110033",
  "devdoc": {
    "kind": "dev",
    "methods": {
      "allowance(address,address)": {
        "details": "See {IERC20-allowance}."
      },
      "approve(address,uint256)": {
        "details": "See {IERC20-approve}. NOTE: If `amount` is the maximum `uint256`, the allowance is not updated on `transferFrom`. This is semantically equivalent to an infinite approval. Requirements: - `spender` cannot be the zero address."
      },
      "balanceOf(address)": {
        "details": "See {IERC20-balanceOf}."
      },
      "decimals()": {
        "details": "Returns the number of decimals used to get its user representation. For example, if `decimals` equals `2`, a balance of `505` tokens should be displayed to a user as `5.05` (`505 / 10 ** 2`). Tokens usually opt for a value of 18, imitating the relationship between Ether and Wei. This is the default value returned by this function, unless it's overridden. NOTE: This information is only used for _display_ purposes: it in no way affects any of the arithmetic of the contract, including {IERC20-balanceOf} and {IERC20-transfer}."
      },
      "decreaseAllowance(address,uint256)": {
        "details": "Atomically decreases the allowance granted to `spender` by the caller. This is an alternative to {approve} that can be used as a mitigation for problems described in {IERC20-approve}. Emits an {Approval} event indicating the updated allowance. Requirements: - `spender` cannot be the zero address. - `spender` must have allowance for the caller of at least `subtractedValue`."
      },
      "deposit(int24,int24,uint256,uint256,bool,uint256)": {
        "details": "Users can use deposit function for depositing tokens to the specific bin.",
        "params": {
          "amountX": "The amount of token X to deposit.",
          "amountY": "The amount of token Y to deposit.",
          "isRebalance": "Rebalance the existing position with deposit.",
          "swapSlippage": "Slippage for the rebalance.",
          "tickDesired": "The tick that user wants to add liquidity from",
          "tickSlippage": "The tick slippage that are allowed to slip"
        }
      },
      "getFullyVestedLockedBalance(address)": {
        "details": "Returns the fully vested locked balance for an account.Full business logic description can be found in Pool::getFullyVestedLockedBalance() docstring",
        "params": {
          "account": "The address of the account."
        },
        "returns": {
          "fullyVestedBalance": "Fully vested locked balance"
        }
      },
      "getLockedBalance(address)": {
        "details": "Returns the total locked balance of an account.",
        "params": {
          "account": "The address of the account."
        },
        "returns": {
          "_0": "The total locked balance of the account."
        }
      },
      "getUserValueInTokenY(address)": {
        "details": "Returns the estimated USD value of the user position",
        "params": {
          "user": "User Address"
        },
        "returns": {
          "_0": "Total Value in tokenY amount for the user's position."
        }
      },
      "getUserValueInTokenY(address,uint256)": {
        "details": "Returns the estimated USD value of the user position",
        "params": {
          "poolPrice": "Pool Price or oracle price for calculating proper token amount",
          "user": "User Address"
        },
        "returns": {
          "amountY": "Total Value in tokenY amount for the user's position."
        }
      },
      "increaseAllowance(address,uint256)": {
        "details": "Atomically increases the allowance granted to `spender` by the caller. This is an alternative to {approve} that can be used as a mitigation for problems described in {IERC20-approve}. Emits an {Approval} event indicating the updated allowance. Requirements: - `spender` cannot be the zero address."
      },
      "initialize(address,address,string,uint24,int24,address,address,address)": {
        "details": "Initializer of the contract.",
        "params": {
          "deltaId_": "Delta id for tick lower and tick upper",
          "feeTier_": "Fee Tier of Uniswap V3 Pool",
          "name_": "The name of the SPrime token. ex: PRIME-USDC LP",
          "positionManager_": "Uniswap v3 NonfungiblePositionManager contract",
          "swapRouter_": "Uniswap V3 Swap Router contract",
          "tokenX_": "The address of the token X.",
          "tokenY_": "The address of the token Y.",
          "uniV3Factory_": "Uniswap V3 Factory contract"
        }
      },
      "lockBalance(uint256,uint256)": {
        "details": "Locks a specified amount of balance for a specified lock period.",
        "params": {
          "amount": "The amount of balance to be locked.",
          "lockPeriod": "The duration for which the balance will be locked."
        }
      },
      "migrateLiquidity(uint256,int24,int24,uint256)": {
        "details": "Users can use deposit function for depositing tokens to the specific bin.",
        "params": {
          "swapSlippage": "Slippage for the rebalance.",
          "tickDesired": "The tick that user wants to add liquidity from",
          "tickSlippage": "The tick slippage that are allowed to slip",
          "tokenId": "Token ID from UniswapPositionManager"
        }
      },
      "mintForUserAndLock(address,uint256[],uint256[],uint256,uint256)": {
        "details": "Users can use deposit function for depositing tokens to the specific bin.",
        "params": {
          "amountX": "The amount of token X to deposit.",
          "amountY": "The amount of token Y to deposit.",
          "lockPeriods": "Lock period to Lock for each amount",
          "percentForLocks": "sPrime amount % to lock",
          "user": "The active id that user wants to add liquidity from"
        }
      },
      "name()": {
        "details": "Returns the name of the token."
      },
      "onERC721Received(address,address,uint256,bytes)": {
        "details": "See {IERC721Receiver-onERC721Received}. Always returns `IERC721Receiver.onERC721Received.selector`."
      },
      "owner()": {
        "details": "Returns the address of the current owner."
      },
      "renounceOwnership()": {
        "details": "Leaves the contract without owner. It will not be possible to call `onlyOwner` functions. Can only be called by the current owner. NOTE: Renouncing ownership will leave the contract without an owner, thereby disabling any functionality that is only available to the owner."
      },
      "symbol()": {
        "details": "Returns the symbol of the token, usually a shorter version of the name."
      },
      "tickInRange(address)": {
        "details": "Check if the tick is in the user position range",
        "params": {
          "user": "User Address."
        },
        "returns": {
          "_0": "status tick status"
        }
      },
      "totalSupply()": {
        "details": "See {IERC20-totalSupply}."
      },
      "transfer(address,uint256)": {
        "details": "See {IERC20-transfer}. Requirements: - `to` cannot be the zero address. - the caller must have a balance of at least `amount`."
      },
      "transferFrom(address,address,uint256)": {
        "details": "See {IERC20-transferFrom}. Emits an {Approval} event indicating the updated allowance. This is not required by the EIP. See the note at the beginning of {ERC20}. NOTE: Does not update the allowance if the current allowance is the maximum `uint256`. Requirements: - `from` and `to` cannot be the zero address. - `from` must have a balance of at least `amount`. - the caller must have allowance for ``from``'s tokens of at least `amount`."
      },
      "withdraw(uint256)": {
        "details": "Users can use withdraw function for withdrawing their share.",
        "params": {
          "share": "Amount to withdraw"
        }
      }
    },
    "version": 1
  },
  "userdoc": {
    "kind": "user",
    "methods": {},
    "version": 1
  },
  "storageLayout": {
    "storage": [
      {
        "astId": 138,
        "contract": "contracts/token/sPrimeUniswap.sol:sPrimeUniswap",
        "label": "_initialized",
        "offset": 0,
        "slot": "0",
        "type": "t_uint8"
      },
      {
        "astId": 141,
        "contract": "contracts/token/sPrimeUniswap.sol:sPrimeUniswap",
        "label": "_initializing",
        "offset": 1,
        "slot": "0",
        "type": "t_bool"
      },
      {
        "astId": 314,
        "contract": "contracts/token/sPrimeUniswap.sol:sPrimeUniswap",
        "label": "_status",
        "offset": 0,
        "slot": "1",
        "type": "t_uint256"
      },
      {
        "astId": 383,
        "contract": "contracts/token/sPrimeUniswap.sol:sPrimeUniswap",
        "label": "__gap",
        "offset": 0,
        "slot": "2",
        "type": "t_array(t_uint256)49_storage"
      },
      {
        "astId": 1535,
        "contract": "contracts/token/sPrimeUniswap.sol:sPrimeUniswap",
        "label": "__gap",
        "offset": 0,
        "slot": "51",
        "type": "t_array(t_uint256)50_storage"
      },
      {
        "astId": 10,
        "contract": "contracts/token/sPrimeUniswap.sol:sPrimeUniswap",
        "label": "_owner",
        "offset": 0,
        "slot": "101",
        "type": "t_address"
      },
      {
        "astId": 130,
        "contract": "contracts/token/sPrimeUniswap.sol:sPrimeUniswap",
        "label": "__gap",
        "offset": 0,
        "slot": "102",
        "type": "t_array(t_uint256)49_storage"
      },
      {
        "astId": 403,
        "contract": "contracts/token/sPrimeUniswap.sol:sPrimeUniswap",
        "label": "_balances",
        "offset": 0,
        "slot": "151",
        "type": "t_mapping(t_address,t_uint256)"
      },
      {
        "astId": 409,
        "contract": "contracts/token/sPrimeUniswap.sol:sPrimeUniswap",
        "label": "_allowances",
        "offset": 0,
        "slot": "152",
        "type": "t_mapping(t_address,t_mapping(t_address,t_uint256))"
      },
      {
        "astId": 411,
        "contract": "contracts/token/sPrimeUniswap.sol:sPrimeUniswap",
        "label": "_totalSupply",
        "offset": 0,
        "slot": "153",
        "type": "t_uint256"
      },
      {
        "astId": 413,
        "contract": "contracts/token/sPrimeUniswap.sol:sPrimeUniswap",
        "label": "_name",
        "offset": 0,
        "slot": "154",
        "type": "t_string_storage"
      },
      {
        "astId": 415,
        "contract": "contracts/token/sPrimeUniswap.sol:sPrimeUniswap",
        "label": "_symbol",
        "offset": 0,
        "slot": "155",
        "type": "t_string_storage"
      },
      {
        "astId": 995,
        "contract": "contracts/token/sPrimeUniswap.sol:sPrimeUniswap",
        "label": "__gap",
        "offset": 0,
        "slot": "156",
        "type": "t_array(t_uint256)45_storage"
      },
      {
        "astId": 1163,
        "contract": "contracts/token/sPrimeUniswap.sol:sPrimeUniswap",
        "label": "__gap",
        "offset": 0,
        "slot": "201",
        "type": "t_array(t_uint256)50_storage"
      },
      {
        "astId": 6857,
        "contract": "contracts/token/sPrimeUniswap.sol:sPrimeUniswap",
        "label": "locks",
        "offset": 0,
        "slot": "251",
        "type": "t_mapping(t_address,t_array(t_struct(LockDetails)3636_storage)dyn_storage)"
      },
      {
        "astId": 6861,
        "contract": "contracts/token/sPrimeUniswap.sol:sPrimeUniswap",
        "label": "userTokenId",
        "offset": 0,
        "slot": "252",
        "type": "t_mapping(t_address,t_uint256)"
      },
      {
        "astId": 6864,
        "contract": "contracts/token/sPrimeUniswap.sol:sPrimeUniswap",
        "label": "tokenX",
        "offset": 0,
        "slot": "253",
        "type": "t_contract(IERC20Metadata)1639"
      },
      {
        "astId": 6867,
        "contract": "contracts/token/sPrimeUniswap.sol:sPrimeUniswap",
        "label": "tokenY",
        "offset": 0,
        "slot": "254",
        "type": "t_contract(IERC20Metadata)1639"
      },
      {
        "astId": 6869,
        "contract": "contracts/token/sPrimeUniswap.sol:sPrimeUniswap",
        "label": "tickSpacing",
        "offset": 20,
        "slot": "254",
        "type": "t_int24"
      },
      {
        "astId": 6871,
        "contract": "contracts/token/sPrimeUniswap.sol:sPrimeUniswap",
        "label": "deltaId",
        "offset": 23,
        "slot": "254",
        "type": "t_int24"
      },
      {
        "astId": 6874,
        "contract": "contracts/token/sPrimeUniswap.sol:sPrimeUniswap",
        "label": "pool",
        "offset": 0,
        "slot": "255",
        "type": "t_contract(IUniswapV3Pool)4130"
      },
      {
        "astId": 6876,
        "contract": "contracts/token/sPrimeUniswap.sol:sPrimeUniswap",
        "label": "tokenDecimals",
        "offset": 20,
        "slot": "255",
        "type": "t_uint8"
      },
      {
        "astId": 6878,
        "contract": "contracts/token/sPrimeUniswap.sol:sPrimeUniswap",
        "label": "feeTier",
        "offset": 21,
        "slot": "255",
        "type": "t_uint24"
      },
      {
        "astId": 6881,
        "contract": "contracts/token/sPrimeUniswap.sol:sPrimeUniswap",
        "label": "positionManager",
        "offset": 0,
        "slot": "256",
        "type": "t_contract(INonfungiblePositionManager)3911"
      },
      {
        "astId": 6884,
        "contract": "contracts/token/sPrimeUniswap.sol:sPrimeUniswap",
        "label": "swapRouter",
        "offset": 0,
        "slot": "257",
        "type": "t_contract(ISwapRouter)4025"
      },
      {
        "astId": 6887,
        "contract": "contracts/token/sPrimeUniswap.sol:sPrimeUniswap",
        "label": "vPrimeController",
        "offset": 0,
        "slot": "258",
        "type": "t_contract(IVPrimeController)3724"
      },
      {
        "astId": 6889,
        "contract": "contracts/token/sPrimeUniswap.sol:sPrimeUniswap",
        "label": "tokenSequence",
        "offset": 20,
        "slot": "258",
        "type": "t_bool"
      }
    ],
    "types": {
      "t_address": {
        "encoding": "inplace",
        "label": "address",
        "numberOfBytes": "20"
      },
      "t_array(t_struct(LockDetails)3636_storage)dyn_storage": {
        "base": "t_struct(LockDetails)3636_storage",
        "encoding": "dynamic_array",
        "label": "struct ISPrime.LockDetails[]",
        "numberOfBytes": "32"
      },
      "t_array(t_uint256)45_storage": {
        "base": "t_uint256",
        "encoding": "inplace",
        "label": "uint256[45]",
        "numberOfBytes": "1440"
      },
      "t_array(t_uint256)49_storage": {
        "base": "t_uint256",
        "encoding": "inplace",
        "label": "uint256[49]",
        "numberOfBytes": "1568"
      },
      "t_array(t_uint256)50_storage": {
        "base": "t_uint256",
        "encoding": "inplace",
        "label": "uint256[50]",
        "numberOfBytes": "1600"
      },
      "t_bool": {
        "encoding": "inplace",
        "label": "bool",
        "numberOfBytes": "1"
      },
      "t_contract(IERC20Metadata)1639": {
        "encoding": "inplace",
        "label": "contract IERC20Metadata",
        "numberOfBytes": "20"
      },
      "t_contract(INonfungiblePositionManager)3911": {
        "encoding": "inplace",
        "label": "contract INonfungiblePositionManager",
        "numberOfBytes": "20"
      },
      "t_contract(ISwapRouter)4025": {
        "encoding": "inplace",
        "label": "contract ISwapRouter",
        "numberOfBytes": "20"
      },
      "t_contract(IUniswapV3Pool)4130": {
        "encoding": "inplace",
        "label": "contract IUniswapV3Pool",
        "numberOfBytes": "20"
      },
      "t_contract(IVPrimeController)3724": {
        "encoding": "inplace",
        "label": "contract IVPrimeController",
        "numberOfBytes": "20"
      },
      "t_int24": {
        "encoding": "inplace",
        "label": "int24",
        "numberOfBytes": "3"
      },
      "t_mapping(t_address,t_array(t_struct(LockDetails)3636_storage)dyn_storage)": {
        "encoding": "mapping",
        "key": "t_address",
        "label": "mapping(address => struct ISPrime.LockDetails[])",
        "numberOfBytes": "32",
        "value": "t_array(t_struct(LockDetails)3636_storage)dyn_storage"
      },
      "t_mapping(t_address,t_mapping(t_address,t_uint256))": {
        "encoding": "mapping",
        "key": "t_address",
        "label": "mapping(address => mapping(address => uint256))",
        "numberOfBytes": "32",
        "value": "t_mapping(t_address,t_uint256)"
      },
      "t_mapping(t_address,t_uint256)": {
        "encoding": "mapping",
        "key": "t_address",
        "label": "mapping(address => uint256)",
        "numberOfBytes": "32",
        "value": "t_uint256"
      },
      "t_string_storage": {
        "encoding": "bytes",
        "label": "string",
        "numberOfBytes": "32"
      },
      "t_struct(LockDetails)3636_storage": {
        "encoding": "inplace",
        "label": "struct ISPrime.LockDetails",
        "members": [
          {
            "astId": 3631,
            "contract": "contracts/token/sPrimeUniswap.sol:sPrimeUniswap",
            "label": "lockPeriod",
            "offset": 0,
            "slot": "0",
            "type": "t_uint256"
          },
          {
            "astId": 3633,
            "contract": "contracts/token/sPrimeUniswap.sol:sPrimeUniswap",
            "label": "amount",
            "offset": 0,
            "slot": "1",
            "type": "t_uint256"
          },
          {
            "astId": 3635,
            "contract": "contracts/token/sPrimeUniswap.sol:sPrimeUniswap",
            "label": "unlockTime",
            "offset": 0,
            "slot": "2",
            "type": "t_uint256"
          }
        ],
        "numberOfBytes": "96"
      },
      "t_uint24": {
        "encoding": "inplace",
        "label": "uint24",
        "numberOfBytes": "3"
      },
      "t_uint256": {
        "encoding": "inplace",
        "label": "uint256",
        "numberOfBytes": "32"
      },
      "t_uint8": {
        "encoding": "inplace",
        "label": "uint8",
        "numberOfBytes": "1"
      }
    }
  }
}