{
  "address": "0xbAdC83c88D486FB919E5E4360F96954c1b4a52E1",
  "abi": [
    {
      "anonymous": false,
      "inputs": [
        {
          "indexed": true,
          "internalType": "address",
          "name": "previousOwner",
          "type": "address"
        },
        {
          "indexed": true,
          "internalType": "address",
          "name": "newOwner",
          "type": "address"
        }
      ],
      "name": "OwnershipTransferred",
      "type": "event"
    },
    {
      "anonymous": false,
      "inputs": [
        {
          "indexed": true,
          "internalType": "address",
          "name": "user",
          "type": "address"
        },
        {
          "indexed": false,
          "internalType": "address",
          "name": "token",
          "type": "address"
        },
        {
          "indexed": false,
          "internalType": "uint256",
          "name": "timestamp",
          "type": "uint256"
        }
      ],
      "name": "TokenDelisted",
      "type": "event"
    },
    {
      "anonymous": false,
      "inputs": [
        {
          "indexed": true,
          "internalType": "address",
          "name": "user",
          "type": "address"
        },
        {
          "indexed": false,
          "internalType": "address",
          "name": "token",
          "type": "address"
        },
        {
          "indexed": false,
          "internalType": "uint256",
          "name": "timestamp",
          "type": "uint256"
        }
      ],
      "name": "TokenWhitelisted",
      "type": "event"
    },
    {
      "inputs": [
        {
          "internalType": "address",
          "name": "tokenA",
          "type": "address"
        },
        {
          "internalType": "address",
          "name": "tokenB",
          "type": "address"
        },
        {
          "internalType": "uint256",
          "name": "amountA",
          "type": "uint256"
        },
        {
          "internalType": "uint256",
          "name": "amountB",
          "type": "uint256"
        },
        {
          "internalType": "uint256",
          "name": "amountAMin",
          "type": "uint256"
        },
        {
          "internalType": "uint256",
          "name": "amountBMin",
          "type": "uint256"
        }
      ],
      "name": "addLiquidity",
      "outputs": [
        {
          "internalType": "address",
          "name": "",
          "type": "address"
        },
        {
          "internalType": "uint256",
          "name": "",
          "type": "uint256"
        },
        {
          "internalType": "uint256",
          "name": "",
          "type": "uint256"
        },
        {
          "internalType": "uint256",
          "name": "",
          "type": "uint256"
        }
      ],
      "stateMutability": "nonpayable",
      "type": "function"
    },
    {
      "inputs": [
        {
          "internalType": "address[]",
          "name": "tokensToDelist",
          "type": "address[]"
        }
      ],
      "name": "delistTokens",
      "outputs": [],
      "stateMutability": "nonpayable",
      "type": "function"
    },
    {
      "inputs": [],
      "name": "getAllWhitelistedTokens",
      "outputs": [
        {
          "internalType": "address[]",
          "name": "",
          "type": "address[]"
        }
      ],
      "stateMutability": "view",
      "type": "function"
    },
    {
      "inputs": [
        {
          "internalType": "uint256",
          "name": "_amountIn",
          "type": "uint256"
        },
        {
          "internalType": "address",
          "name": "_soldToken",
          "type": "address"
        },
        {
          "internalType": "address",
          "name": "_boughtToken",
          "type": "address"
        }
      ],
      "name": "getMaximumTokensReceived",
      "outputs": [
        {
          "internalType": "uint256",
          "name": "",
          "type": "uint256"
        }
      ],
      "stateMutability": "view",
      "type": "function"
    },
    {
      "inputs": [
        {
          "internalType": "uint256",
          "name": "_exactAmountOut",
          "type": "uint256"
        },
        {
          "internalType": "address",
          "name": "_soldToken",
          "type": "address"
        },
        {
          "internalType": "address",
          "name": "_boughtToken",
          "type": "address"
        }
      ],
      "name": "getMinimumTokensNeeded",
      "outputs": [
        {
          "internalType": "uint256",
          "name": "",
          "type": "uint256"
        }
      ],
      "stateMutability": "view",
      "type": "function"
    },
    {
      "inputs": [
        {
          "internalType": "address",
          "name": "_token1",
          "type": "address"
        },
        {
          "internalType": "address",
          "name": "_token2",
          "type": "address"
        }
      ],
      "name": "getPair",
      "outputs": [
        {
          "internalType": "address",
          "name": "",
          "type": "address"
        }
      ],
      "stateMutability": "view",
      "type": "function"
    },
    {
      "inputs": [
        {
          "internalType": "address",
          "name": "_router",
          "type": "address"
        },
        {
          "internalType": "address",
          "name": "_tokenManager",
          "type": "address"
        },
        {
          "internalType": "address[]",
          "name": "_whitelistedTokens",
          "type": "address[]"
        }
      ],
      "name": "initialize",
      "outputs": [],
      "stateMutability": "nonpayable",
      "type": "function"
    },
    {
      "inputs": [],
      "name": "owner",
      "outputs": [
        {
          "internalType": "address",
          "name": "",
          "type": "address"
        }
      ],
      "stateMutability": "view",
      "type": "function"
    },
    {
      "inputs": [
        {
          "internalType": "address",
          "name": "tokenA",
          "type": "address"
        },
        {
          "internalType": "address",
          "name": "tokenB",
          "type": "address"
        },
        {
          "internalType": "uint256",
          "name": "liquidity",
          "type": "uint256"
        },
        {
          "internalType": "uint256",
          "name": "amountA",
          "type": "uint256"
        },
        {
          "internalType": "uint256",
          "name": "amountB",
          "type": "uint256"
        }
      ],
      "name": "removeLiquidity",
      "outputs": [
        {
          "internalType": "uint256",
          "name": "",
          "type": "uint256"
        },
        {
          "internalType": "uint256",
          "name": "",
          "type": "uint256"
        }
      ],
      "stateMutability": "nonpayable",
      "type": "function"
    },
    {
      "inputs": [],
      "name": "renounceOwnership",
      "outputs": [],
      "stateMutability": "nonpayable",
      "type": "function"
    },
    {
      "inputs": [
        {
          "internalType": "address",
          "name": "_soldToken",
          "type": "address"
        },
        {
          "internalType": "address",
          "name": "_boughtToken",
          "type": "address"
        },
        {
          "internalType": "uint256",
          "name": "_exactSold",
          "type": "uint256"
        },
        {
          "internalType": "uint256",
          "name": "_minimumBought",
          "type": "uint256"
        }
      ],
      "name": "swap",
      "outputs": [
        {
          "internalType": "uint256[]",
          "name": "amounts",
          "type": "uint256[]"
        }
      ],
      "stateMutability": "nonpayable",
      "type": "function"
    },
    {
      "inputs": [
        {
          "internalType": "address",
          "name": "newOwner",
          "type": "address"
        }
      ],
      "name": "transferOwnership",
      "outputs": [],
      "stateMutability": "nonpayable",
      "type": "function"
    },
    {
      "inputs": [
        {
          "internalType": "address[]",
          "name": "tokensToWhitelist",
          "type": "address[]"
        }
      ],
      "name": "whitelistTokens",
      "outputs": [],
      "stateMutability": "nonpayable",
      "type": "function"
    },
    {
      "stateMutability": "payable",
      "type": "receive"
    }
  ],
  "transactionHash": "0x02a6cfa781a9b478dbd14f455612cfb4ca40cd65981711802de75cb2bb1b35d5",
  "args": [],
  "numDeployments": 1,
  "solcInputHash": "a90acd77f583fc9c4e4d2e896b5e7542",
  "bytecode": "0x608060405234801561001057600080fd5b5060016068556127c0806100256000396000f3fe6080604052600436106100c65760003560e01c80638da5cb5b1161007f578063e2dc85dc11610059578063e2dc85dc1461023a578063e6a439051461026f578063f2fde38b1461028f578063fe029156146102af57600080fd5b80638da5cb5b146101c657806390e292fd146101f85780639991033c1461021857600080fd5b80631197e9c7146100d257806319b9fbbf146101055780633351733f146101255780634cb1e9e31461016f578063715018a61461019157806377a24f36146101a657600080fd5b366100cd57005b600080fd5b3480156100de57600080fd5b506100f26100ed3660046120bd565b6102dc565b6040519081526020015b60405180910390f35b34801561011157600080fd5b506100f26101203660046120bd565b61042b565b34801561013157600080fd5b506101456101403660046120ff565b6104d4565b604080516001600160a01b03909516855260208501939093529183015260608201526080016100fc565b34801561017b57600080fd5b5061018f61018a366004612237565b610be8565b005b34801561019d57600080fd5b5061018f610ca0565b3480156101b257600080fd5b5061018f6101c1366004612274565b610cd6565b3480156101d257600080fd5b506033546001600160a01b03165b6040516001600160a01b0390911681526020016100fc565b34801561020457600080fd5b5061018f610213366004612237565b610e48565b34801561022457600080fd5b5061022d610ef9565b6040516100fc919061231a565b34801561024657600080fd5b5061025a61025536600461232d565b610f5b565b604080519283526020830191909152016100fc565b34801561027b57600080fd5b506101e061028a36600461237e565b6113d0565b34801561029b57600080fd5b5061018f6102aa3660046123b7565b611450565b3480156102bb57600080fd5b506102cf6102ca3660046123d4565b6114eb565b6040516100fc919061241a565b6000806102e984846117b7565b60695460405191925060009182916001600160a01b031690610311908990869060240161245e565b60408051601f198184030181529181526020820180516001600160e01b03166307c0329d60e21b179052516103469190612477565b600060405180830381855afa9150503d8060008114610381576040519150601f19603f3d011682016040523d82523d6000602084013e610386565b606091505b5091509150816103eb5760405162461bcd60e51b815260206004820152602560248201527f4572726f72207768656e2063616c63756c6174696e6720616d6f756e7473206e604482015264195959195960da1b60648201526084015b60405180910390fd5b60008180602001905181019061040191906124a6565b90508060008151811061041657610416612537565b60200260200101519450505050509392505050565b60008061043884846117b7565b60695460405163d06ca61f60e01b81529192506001600160a01b03169063d06ca61f9061046b908890859060040161245e565b600060405180830381865afa158015610488573d6000803e3d6000fd5b505050506040513d6000823e601f3d908101601f191682016040526104b091908101906124a6565b6001815181106104c2576104c2612537565b60200260200101519150509392505050565b6000808080807f1c85eba10a4cf2d29c83fc15f97931886b9fd3caeb70d8c377aeedc58b919e3b8054909150600119016105205760405162461bcd60e51b81526004016103e29061254d565b60028155886105815760405162461bcd60e51b815260206004820152602760248201527f616d6f756e7441446573697265642068617320746f20626520677265617465726044820152660207468616e20360cc1b60648201526084016103e2565b600088116105e95760405162461bcd60e51b815260206004820152602f60248201527f616d6f756e74424465736972656420746f2073656c6c2068617320746f20626560448201526e02067726561746572207468616e203608c1b60648201526084016103e2565b600087116106455760405162461bcd60e51b815260206004820152602360248201527f616d6f756e74414d696e2068617320746f20626520677265617465722074686160448201526206e20360ec1b60648201526084016103e2565b600086116106a15760405162461bcd60e51b815260206004820152602360248201527f616d6f756e74424d696e2068617320746f20626520677265617465722074686160448201526206e20360ec1b60648201526084016103e2565b6069546106bc906001600160a01b038d811691166000611966565b6069546106d6906001600160a01b038d811691168b611966565b6069546106f1906001600160a01b038c811691166000611966565b60695461070b906001600160a01b038c811691168a611966565b60006107178c8c6113d0565b6001600160a01b038d1660009081526065602052604090205490915060ff166107825760405162461bcd60e51b815260206004820152601e60248201527f547279696e6720746f204c5020756e737570706f7274656420746f6b656e000060448201526064016103e2565b6001600160a01b038b1660009081526065602052604090205460ff166107ea5760405162461bcd60e51b815260206004820152601e60248201527f547279696e6720746f204c5020756e737570706f7274656420746f6b656e000060448201526064016103e2565b606b546040516335923e0360e01b81526001600160a01b038381166004830152909116906335923e0390602401602060405180830381865afa158015610834573d6000803e3d6000fd5b505050506040513d601f19601f820116820180604052508101906108589190612584565b6108af5760405162461bcd60e51b815260206004820152602260248201527f547279696e6720746f2061646420756e737570706f72746564204c5020746f6b60448201526132b760f11b60648201526084016103e2565b60695460405162e8e33760e81b81526001600160a01b038e811660048301528d81166024830152604482018d9052606482018c9052608482018b905260a482018a90523060c48301524260e4830152600092169063e8e3370090610104016060604051808303816000875af115801561092c573d6000803e3d6000fd5b505050506040513d601f19601f8201168201806040525081019061095091906125a6565b6040516370a0823160e01b8152306004820152929d50909b5091506109d79033906001600160a01b038516906370a0823190602401602060405180830381865afa1580156109a2573d6000803e3d6000fd5b505050506040513d601f19601f820116820180604052508101906109c691906125d4565b6001600160a01b0385169190611a95565b6040516370a0823160e01b81523060048201526000906001600160a01b038f16906370a0823190602401602060405180830381865afa158015610a1e573d6000803e3d6000fd5b505050506040513d601f19601f82011682018060405250810190610a4291906125d4565b1115610ae157610ae1338e6001600160a01b03166370a08231306040518263ffffffff1660e01b8152600401610a8791906001600160a01b0391909116815260200190565b602060405180830381865afa158015610aa4573d6000803e3d6000fd5b505050506040513d601f19601f82011682018060405250810190610ac891906125d4565b8f6001600160a01b0316611a959092919063ffffffff16565b6040516370a0823160e01b81523060048201526000906001600160a01b038e16906370a0823190602401602060405180830381865afa158015610b28573d6000803e3d6000fd5b505050506040513d601f19601f82011682018060405250810190610b4c91906125d4565b1115610bd1576040516370a0823160e01b8152306004820152610bd19033906001600160a01b038f16906370a0823190602401602060405180830381865afa158015610b9c573d6000803e3d6000fd5b505050506040513d601f19601f82011682018060405250810190610bc091906125d4565b6001600160a01b038f169190611a95565b60019092559b989a50969850959695505050505050565b6033546001600160a01b03163314610c125760405162461bcd60e51b81526004016103e2906125ed565b60005b8151811015610c9c57610c42828281518110610c3357610c33612537565b60200260200101516001611bbf565b610c8a5760405162461bcd60e51b815260206004820152601960248201527815da1a5d195b1a5cdd1a5b99c81d1bdad95b8819985a5b1959603a1b60448201526064016103e2565b80610c9481612638565b915050610c15565b5050565b6033546001600160a01b03163314610cca5760405162461bcd60e51b81526004016103e2906125ed565b610cd46000611d59565b565b600054610100900460ff16610cf15760005460ff1615610cf5565b303b155b610d585760405162461bcd60e51b815260206004820152602e60248201527f496e697469616c697a61626c653a20636f6e747261637420697320616c72656160448201526d191e481a5b9a5d1a585b1a5e995960921b60648201526084016103e2565b600054610100900460ff16158015610d7a576000805461ffff19166101011790555b606b80546001600160a01b038086166001600160a01b0319928316179092556069805492871692909116821790556040805163c45a015560e01b8152905163c45a0155916004808201926020929091908290030181865afa158015610de3573d6000803e3d6000fd5b505050506040513d601f19601f82011682018060405250810190610e079190612651565b606a80546001600160a01b0319166001600160a01b0392909216919091179055610e3082611dab565b8015610e42576000805461ff00191690555b50505050565b6033546001600160a01b03163314610e725760405162461bcd60e51b81526004016103e2906125ed565b60005b8151811015610c9c57610ea2828281518110610e9357610e93612537565b60200260200101516001611e65565b610ee75760405162461bcd60e51b815260206004820152601660248201527511195b1a5cdd1a5b99c81d1bdad95b8819985a5b195960521b60448201526064016103e2565b80610ef181612638565b915050610e75565b60606067805480602002602001604051908101604052809291908181526020018280548015610f5157602002820191906000526020600020905b81546001600160a01b03168152600190910190602001808311610f33575b5050505050905090565b7f1c85eba10a4cf2d29c83fc15f97931886b9fd3caeb70d8c377aeedc58b919e3b8054600091829160011901610fa35760405162461bcd60e51b81526004016103e29061254d565b6002815584610ff45760405162461bcd60e51b815260206004820181905260248201527f616d6f756e74412068617320746f2062652067726561746572207468616e203060448201526064016103e2565b600084116110445760405162461bcd60e51b815260206004820181905260248201527f616d6f756e74422068617320746f2062652067726561746572207468616e203060448201526064016103e2565b600061105089896113d0565b60695490915061106d906001600160a01b03808416911689611966565b6001600160a01b03891660009081526065602052604090205460ff166110a55760405162461bcd60e51b81526004016103e29061266e565b6001600160a01b03881660009081526065602052604090205460ff166110dd5760405162461bcd60e51b81526004016103e29061266e565b606b546040516335923e0360e01b81526001600160a01b038381166004830152909116906335923e0390602401602060405180830381865afa158015611127573d6000803e3d6000fd5b505050506040513d601f19601f8201168201806040525081019061114b9190612584565b6111a55760405162461bcd60e51b815260206004820152602560248201527f547279696e6720746f2072656d6f766520756e737570706f72746564204c50206044820152643a37b5b2b760d91b60648201526084016103e2565b606954604051635d5155ef60e11b81526001600160a01b038b811660048301528a81166024830152604482018a905260648201899052608482018890523060a48301524260c48301529091169063baa2abde9060e40160408051808303816000875af1158015611219573d6000803e3d6000fd5b505050506040513d601f19601f8201168201806040525081019061123d91906126b6565b6040516370a0823160e01b815230600482015291975095506112c19033906001600160a01b038416906370a0823190602401602060405180830381865afa15801561128c573d6000803e3d6000fd5b505050506040513d601f19601f820116820180604052508101906112b091906125d4565b6001600160a01b0384169190611a95565b6040516370a0823160e01b81523060048201526113409033906001600160a01b038c16906370a0823190602401602060405180830381865afa15801561130b573d6000803e3d6000fd5b505050506040513d601f19601f8201168201806040525081019061132f91906125d4565b6001600160a01b038c169190611a95565b6040516370a0823160e01b81523060048201526113bf9033906001600160a01b038b16906370a0823190602401602060405180830381865afa15801561138a573d6000803e3d6000fd5b505050506040513d601f19601f820116820180604052508101906113ae91906125d4565b6001600160a01b038b169190611a95565b506001905550919590945092505050565b606a5460405163e6a4390560e01b81526001600160a01b0384811660048301528381166024830152600092169063e6a4390590604401602060405180830381865afa158015611423573d6000803e3d6000fd5b505050506040513d601f19601f820116820180604052508101906114479190612651565b90505b92915050565b6033546001600160a01b0316331461147a5760405162461bcd60e51b81526004016103e2906125ed565b6001600160a01b0381166114df5760405162461bcd60e51b815260206004820152602660248201527f4f776e61626c653a206e6577206f776e657220697320746865207a65726f206160448201526564647265737360d01b60648201526084016103e2565b6114e881611d59565b50565b7f1c85eba10a4cf2d29c83fc15f97931886b9fd3caeb70d8c377aeedc58b919e3b805460609190600119016115325760405162461bcd60e51b81526004016103e29061254d565b600281558361159d5760405162461bcd60e51b815260206004820152603160248201527f416d6f756e74206f6620746f6b656e7320746f2073656c6c2068617320746f20604482015270062652067726561746572207468616e203607c1b60648201526084016103e2565b6069546115b8906001600160a01b0388811691166000611966565b6069546115d2906001600160a01b03888116911686611966565b6001600160a01b03851660009081526065602052604090205460ff1661163a5760405162461bcd60e51b815260206004820152601f60248201527f547279696e6720746f2062757920756e737570706f7274656420746f6b656e0060448201526064016103e2565b821561169a5761164b8387876102dc565b84101561169a5760405162461bcd60e51b815260206004820152601e60248201527f4e6f7420656e6f7567682066756e647320776572652070726f7669646564000060448201526064016103e2565b6069546001600160a01b03166338ed173985856116b78a8a6117b7565b33426040518663ffffffff1660e01b81526004016116d99594939291906126da565b6000604051808303816000875af11580156116f8573d6000803e3d6000fd5b505050506040513d6000823e601f3d908101601f1916820160405261172091908101906124a6565b6040516370a0823160e01b81523060048201529092506000906001600160a01b038816906370a0823190602401602060405180830381865afa15801561176a573d6000803e3d6000fd5b505050506040513d601f19601f8201168201806040525081019061178e91906125d4565b905080156117aa576117aa6001600160a01b0388163383611a95565b5060019055949350505050565b6060806001600160a01b0384167382af49447d8a07e3bd95bd0d56f35241523fbab11480159061180457506001600160a01b0383167382af49447d8a07e3bd95bd0d56f35241523fbab114155b156118d757604080516003808252608082019092529060208201606080368337019050509050838160008151811061183e5761183e612537565b6001600160a01b03909216602092830291909101909101527382af49447d8a07e3bd95bd0d56f35241523fbab18160018151811061187e5761187e612537565b60200260200101906001600160a01b031690816001600160a01b03168152505082816002815181106118b2576118b2612537565b60200260200101906001600160a01b031690816001600160a01b031681525050611447565b6040805160028082526060820183529091602083019080368337019050509050838160008151811061190b5761190b612537565b60200260200101906001600160a01b031690816001600160a01b031681525050828160018151811061193f5761193f612537565b60200260200101906001600160a01b031690816001600160a01b0316815250509392505050565b604080516001600160a01b038481166024830152604480830185905283518084039091018152606490920183526020820180516001600160e01b031663095ea7b360e01b17905291516000928392908716916119c29190612477565b6000604051808303816000865af19150503d80600081146119ff576040519150601f19603f3d011682016040523d82523d6000602084013e611a04565b606091505b5091509150818015611a2e575080511580611a2e575080806020019051810190611a2e9190612584565b611a8e5760405162461bcd60e51b815260206004820152602b60248201527f5472616e7366657248656c7065723a3a73616665417070726f76653a2061707060448201526a1c9bdd994819985a5b195960aa1b60648201526084016103e2565b5050505050565b604080516001600160a01b038481166024830152604480830185905283518084039091018152606490920183526020820180516001600160e01b031663a9059cbb60e01b1790529151600092839290871691611af19190612477565b6000604051808303816000865af19150503d8060008114611b2e576040519150601f19603f3d011682016040523d82523d6000602084013e611b33565b606091505b5091509150818015611b5d575080511580611b5d575080806020019051810190611b5d9190612584565b611a8e5760405162461bcd60e51b815260206004820152602d60248201527f5472616e7366657248656c7065723a3a736166655472616e736665723a20747260448201526c185b9cd9995c8819985a5b1959609a1b60648201526084016103e2565b60006001600160a01b038316611c175760405162461bcd60e51b815260206004820152601f60248201527f43616e6e6f742077686974656c6973742061207a65726f20616464726573730060448201526064016103e2565b6001600160a01b03831660009081526065602052604090205460ff16611d0257606780546001808201835560008390527f9787eeb91fe3101235e4a76063c7023ecb40f923f97916639c598592fa30d6ae90910180546001600160a01b0319166001600160a01b0387161790559054611c909190612716565b6001600160a01b0384166000818152606660209081526040808320949094556065815290839020805460ff191660011790558251918252429082015233917f25c34e2a97ecce6a643e2876ba21f43208b744c0a1f017fe999208638c7fecdc91015b60405180910390a250600161144a565b8115611d505760405162461bcd60e51b815260206004820152601960248201527f546f6b656e20616c72656164792077686974656c69737465640000000000000060448201526064016103e2565b50600092915050565b603380546001600160a01b038381166001600160a01b0319831681179093556040519116919082907f8be0079c531659141344cd1fd0a4f28419497f9722a3daafe3b4186f6b6457e090600090a35050565b600054610100900460ff16611dd25760405162461bcd60e51b81526004016103e290612729565b60005b8151811015611e5c57611e02828281518110611df357611df3612537565b60200260200101516000611bbf565b611e4a5760405162461bcd60e51b815260206004820152601960248201527815da1a5d195b1a5cdd1a5b99c81d1bdad95b8819985a5b1959603a1b60448201526064016103e2565b80611e5481612638565b915050611dd5565b506114e8611f35565b6001600160a01b03821660009081526065602052604081205460ff1615611ee757611e8f83611f64565b6001600160a01b038316600081815260656020908152604091829020805460ff191690558151928352429083015233917f8b0c6321e5164295041a4799b97bc74477465912d8e906efc761ff81bf530b279101611cf2565b8115611d505760405162461bcd60e51b815260206004820181905260248201527f546f6b656e20776173206e6f742077686974656c6973746564206265666f726560448201526064016103e2565b600054610100900460ff16611f5c5760405162461bcd60e51b81526004016103e290612729565b610cd4612078565b6001600160a01b038116600090815260666020526040902054606754611f8c90600190612716565b8114612026576067805460009190611fa690600190612716565b81548110611fb657611fb6612537565b60009182526020808320909101546001600160a01b03168083526066909152604090912083905560678054919250829184908110611ff657611ff6612537565b9060005260206000200160006101000a8154816001600160a01b0302191690836001600160a01b03160217905550505b606780548061203757612037612774565b60008281526020808220830160001990810180546001600160a01b03191690559092019092556001600160a01b039390931681526066909252506040812055565b600054610100900460ff1661209f5760405162461bcd60e51b81526004016103e290612729565b610cd433611d59565b6001600160a01b03811681146114e857600080fd5b6000806000606084860312156120d257600080fd5b8335925060208401356120e4816120a8565b915060408401356120f4816120a8565b809150509250925092565b60008060008060008060c0878903121561211857600080fd5b8635612123816120a8565b95506020870135612133816120a8565b95989597505050506040840135936060810135936080820135935060a0909101359150565b634e487b7160e01b600052604160045260246000fd5b604051601f8201601f1916810167ffffffffffffffff8111828210171561219757612197612158565b604052919050565b600067ffffffffffffffff8211156121b9576121b9612158565b5060051b60200190565b600082601f8301126121d457600080fd5b813560206121e96121e48361219f565b61216e565b82815260059290921b8401810191818101908684111561220857600080fd5b8286015b8481101561222c57803561221f816120a8565b835291830191830161220c565b509695505050505050565b60006020828403121561224957600080fd5b813567ffffffffffffffff81111561226057600080fd5b61226c848285016121c3565b949350505050565b60008060006060848603121561228957600080fd5b8335612294816120a8565b925060208401356122a4816120a8565b9150604084013567ffffffffffffffff8111156122c057600080fd5b6122cc868287016121c3565b9150509250925092565b600081518084526020808501945080840160005b8381101561230f5781516001600160a01b0316875295820195908201906001016122ea565b509495945050505050565b60208152600061144760208301846122d6565b600080600080600060a0868803121561234557600080fd5b8535612350816120a8565b94506020860135612360816120a8565b94979496505050506040830135926060810135926080909101359150565b6000806040838503121561239157600080fd5b823561239c816120a8565b915060208301356123ac816120a8565b809150509250929050565b6000602082840312156123c957600080fd5b8135611447816120a8565b600080600080608085870312156123ea57600080fd5b84356123f5816120a8565b93506020850135612405816120a8565b93969395505050506040820135916060013590565b6020808252825182820181905260009190848201906040850190845b8181101561245257835183529284019291840191600101612436565b50909695505050505050565b82815260406020820152600061226c60408301846122d6565b6000825160005b81811015612498576020818601810151858301520161247e565b506000920191825250919050565b600060208083850312156124b957600080fd5b825167ffffffffffffffff8111156124d057600080fd5b8301601f810185136124e157600080fd5b80516124ef6121e48261219f565b81815260059190911b8201830190838101908783111561250e57600080fd5b928401925b8284101561252c57835182529284019290840190612513565b979650505050505050565b634e487b7160e01b600052603260045260246000fd5b6020808252601f908201527f5265656e7472616e637947756172643a207265656e7472616e742063616c6c00604082015260600190565b60006020828403121561259657600080fd5b8151801515811461144757600080fd5b6000806000606084860312156125bb57600080fd5b8351925060208401519150604084015190509250925092565b6000602082840312156125e657600080fd5b5051919050565b6020808252818101527f4f776e61626c653a2063616c6c6572206973206e6f7420746865206f776e6572604082015260600190565b634e487b7160e01b600052601160045260246000fd5b60006001820161264a5761264a612622565b5060010190565b60006020828403121561266357600080fd5b8151611447816120a8565b60208082526028908201527f547279696e6720746f2072656d6f7665204c50206f6620756e737570706f727460408201526732b2103a37b5b2b760c11b606082015260800190565b600080604083850312156126c957600080fd5b505080516020909101519092909150565b85815284602082015260a0604082015260006126f960a08301866122d6565b6001600160a01b0394909416606083015250608001529392505050565b8181038181111561144a5761144a612622565b6020808252602b908201527f496e697469616c697a61626c653a20636f6e7472616374206973206e6f74206960408201526a6e697469616c697a696e6760a81b606082015260800190565b634e487b7160e01b600052603160045260246000fdfea2646970667358221220286b36a76956cde4caf58b3172ef5f82bd9508dbe6a38e669b799ddbcd01984f64736f6c63430008110033",
  "devdoc": {
    "details": "Contract allows user to swap ERC20 tokens on DEX This implementation uses the SushiSwap DEX",
    "kind": "dev",
    "methods": {
      "getPair(address,address)": {
        "params": {
          "_token1": "ERC20 token's address",
          "_token2": "ERC20 token's address*"
        }
      },
      "owner()": {
        "details": "Returns the address of the current owner."
      },
      "renounceOwnership()": {
        "details": "Leaves the contract without owner. It will not be possible to call `onlyOwner` functions anymore. Can only be called by the current owner. NOTE: Renouncing ownership will leave the contract without an owner, thereby removing any functionality that is only available to the owner."
      },
      "transferOwnership(address)": {
        "details": "Transfers ownership of the contract to a new account (`newOwner`). Can only be called by the current owner."
      }
    },
    "title": "SushiSwapIntermediary",
    "version": 1
  },
  "userdoc": {
    "kind": "user",
    "methods": {
      "getMaximumTokensReceived(uint256,address,address)": {
        "notice": "Returns the maximum _boughtToken amount that will be obtained in the event of selling _amountIn of _soldToken token.*"
      },
      "getMinimumTokensNeeded(uint256,address,address)": {
        "notice": "Returns the minimum _soldToken amount that is required to be sold to receive _exactAmountOut of a _boughtToken. Can revert due to insufficient liquidity*"
      },
      "getPair(address,address)": {
        "notice": "Returns an address of LP token"
      }
    },
    "version": 1
  },
  "storageLayout": {
    "storage": [
      {
        "astId": 130,
        "contract": "contracts/integrations/arbitrum/SushiSwapIntermediary.sol:SushiSwapIntermediary",
        "label": "_initialized",
        "offset": 0,
        "slot": "0",
        "type": "t_bool"
      },
      {
        "astId": 133,
        "contract": "contracts/integrations/arbitrum/SushiSwapIntermediary.sol:SushiSwapIntermediary",
        "label": "_initializing",
        "offset": 1,
        "slot": "0",
        "type": "t_bool"
      },
      {
        "astId": 481,
        "contract": "contracts/integrations/arbitrum/SushiSwapIntermediary.sol:SushiSwapIntermediary",
        "label": "__gap",
        "offset": 0,
        "slot": "1",
        "type": "t_array(t_uint256)50_storage"
      },
      {
        "astId": 10,
        "contract": "contracts/integrations/arbitrum/SushiSwapIntermediary.sol:SushiSwapIntermediary",
        "label": "_owner",
        "offset": 0,
        "slot": "51",
        "type": "t_address"
      },
      {
        "astId": 122,
        "contract": "contracts/integrations/arbitrum/SushiSwapIntermediary.sol:SushiSwapIntermediary",
        "label": "__gap",
        "offset": 0,
        "slot": "52",
        "type": "t_array(t_uint256)49_storage"
      },
      {
        "astId": 1919,
        "contract": "contracts/integrations/arbitrum/SushiSwapIntermediary.sol:SushiSwapIntermediary",
        "label": "isTokenWhitelisted",
        "offset": 0,
        "slot": "101",
        "type": "t_mapping(t_address,t_bool)"
      },
      {
        "astId": 1923,
        "contract": "contracts/integrations/arbitrum/SushiSwapIntermediary.sol:SushiSwapIntermediary",
        "label": "tokenPositionInList",
        "offset": 0,
        "slot": "102",
        "type": "t_mapping(t_address,t_uint256)"
      },
      {
        "astId": 1926,
        "contract": "contracts/integrations/arbitrum/SushiSwapIntermediary.sol:SushiSwapIntermediary",
        "label": "whitelistedTokensList",
        "offset": 0,
        "slot": "103",
        "type": "t_array(t_address)dyn_storage"
      },
      {
        "astId": 1867,
        "contract": "contracts/integrations/arbitrum/SushiSwapIntermediary.sol:SushiSwapIntermediary",
        "label": "_status",
        "offset": 0,
        "slot": "104",
        "type": "t_uint256"
      },
      {
        "astId": 2243,
        "contract": "contracts/integrations/arbitrum/SushiSwapIntermediary.sol:SushiSwapIntermediary",
        "label": "router",
        "offset": 0,
        "slot": "105",
        "type": "t_contract(IUniswapV2Router01)1854"
      },
      {
        "astId": 2246,
        "contract": "contracts/integrations/arbitrum/SushiSwapIntermediary.sol:SushiSwapIntermediary",
        "label": "factory",
        "offset": 0,
        "slot": "106",
        "type": "t_contract(IUniswapV2Factory)1546"
      },
      {
        "astId": 2249,
        "contract": "contracts/integrations/arbitrum/SushiSwapIntermediary.sol:SushiSwapIntermediary",
        "label": "tokenManager",
        "offset": 0,
        "slot": "107",
        "type": "t_contract(ITokenManager)3324"
      }
    ],
    "types": {
      "t_address": {
        "encoding": "inplace",
        "label": "address",
        "numberOfBytes": "20"
      },
      "t_array(t_address)dyn_storage": {
        "base": "t_address",
        "encoding": "dynamic_array",
        "label": "address[]",
        "numberOfBytes": "32"
      },
      "t_array(t_uint256)49_storage": {
        "base": "t_uint256",
        "encoding": "inplace",
        "label": "uint256[49]",
        "numberOfBytes": "1568"
      },
      "t_array(t_uint256)50_storage": {
        "base": "t_uint256",
        "encoding": "inplace",
        "label": "uint256[50]",
        "numberOfBytes": "1600"
      },
      "t_bool": {
        "encoding": "inplace",
        "label": "bool",
        "numberOfBytes": "1"
      },
      "t_contract(ITokenManager)3324": {
        "encoding": "inplace",
        "label": "contract ITokenManager",
        "numberOfBytes": "20"
      },
      "t_contract(IUniswapV2Factory)1546": {
        "encoding": "inplace",
        "label": "contract IUniswapV2Factory",
        "numberOfBytes": "20"
      },
      "t_contract(IUniswapV2Router01)1854": {
        "encoding": "inplace",
        "label": "contract IUniswapV2Router01",
        "numberOfBytes": "20"
      },
      "t_mapping(t_address,t_bool)": {
        "encoding": "mapping",
        "key": "t_address",
        "label": "mapping(address => bool)",
        "numberOfBytes": "32",
        "value": "t_bool"
      },
      "t_mapping(t_address,t_uint256)": {
        "encoding": "mapping",
        "key": "t_address",
        "label": "mapping(address => uint256)",
        "numberOfBytes": "32",
        "value": "t_uint256"
      },
      "t_uint256": {
        "encoding": "inplace",
        "label": "uint256",
        "numberOfBytes": "32"
      }
    }
  }
}