{
  "address": "0xE24E0ae2d17376B4ba650AF60c81B28b0e42Ed18",
  "abi": [
    {
      "anonymous": false,
      "inputs": [
        {
          "indexed": true,
          "internalType": "address",
          "name": "performer",
          "type": "address"
        },
        {
          "indexed": true,
          "internalType": "bytes32",
          "name": "identifier",
          "type": "bytes32"
        },
        {
          "indexed": true,
          "internalType": "bytes32",
          "name": "exposureGroup",
          "type": "bytes32"
        },
        {
          "indexed": false,
          "internalType": "uint256",
          "name": "timestamp",
          "type": "uint256"
        }
      ],
      "name": "IdentifierToExposureGroupSet",
      "type": "event"
    },
    {
      "anonymous": false,
      "inputs": [
        {
          "indexed": false,
          "internalType": "uint8",
          "name": "version",
          "type": "uint8"
        }
      ],
      "name": "Initialized",
      "type": "event"
    },
    {
      "anonymous": false,
      "inputs": [
        {
          "indexed": true,
          "internalType": "address",
          "name": "previousOwner",
          "type": "address"
        },
        {
          "indexed": true,
          "internalType": "address",
          "name": "newOwner",
          "type": "address"
        }
      ],
      "name": "OwnershipTransferred",
      "type": "event"
    },
    {
      "anonymous": false,
      "inputs": [
        {
          "indexed": true,
          "internalType": "address",
          "name": "performer",
          "type": "address"
        },
        {
          "indexed": true,
          "internalType": "bytes32",
          "name": "poolAsset",
          "type": "bytes32"
        },
        {
          "indexed": false,
          "internalType": "address",
          "name": "poolAddress",
          "type": "address"
        },
        {
          "indexed": false,
          "internalType": "uint256",
          "name": "timestamp",
          "type": "uint256"
        }
      ],
      "name": "PoolAssetAdded",
      "type": "event"
    },
    {
      "anonymous": false,
      "inputs": [
        {
          "indexed": true,
          "internalType": "address",
          "name": "performer",
          "type": "address"
        },
        {
          "indexed": true,
          "internalType": "bytes32",
          "name": "poolAsset",
          "type": "bytes32"
        },
        {
          "indexed": false,
          "internalType": "address",
          "name": "poolAddress",
          "type": "address"
        },
        {
          "indexed": false,
          "internalType": "uint256",
          "name": "timestamp",
          "type": "uint256"
        }
      ],
      "name": "PoolAssetRemoved",
      "type": "event"
    },
    {
      "anonymous": false,
      "inputs": [
        {
          "indexed": true,
          "internalType": "address",
          "name": "performer",
          "type": "address"
        },
        {
          "indexed": true,
          "internalType": "bytes32",
          "name": "groupIdentifier",
          "type": "bytes32"
        },
        {
          "indexed": false,
          "internalType": "uint256",
          "name": "prevCurrentExposure",
          "type": "uint256"
        },
        {
          "indexed": false,
          "internalType": "uint256",
          "name": "newCurrentExposure",
          "type": "uint256"
        },
        {
          "indexed": false,
          "internalType": "uint256",
          "name": "timestamp",
          "type": "uint256"
        }
      ],
      "name": "ProtocolCurrentExposureSet",
      "type": "event"
    },
    {
      "anonymous": false,
      "inputs": [
        {
          "indexed": true,
          "internalType": "address",
          "name": "performer",
          "type": "address"
        },
        {
          "indexed": true,
          "internalType": "bytes32",
          "name": "identifier",
          "type": "bytes32"
        },
        {
          "indexed": false,
          "internalType": "uint256",
          "name": "newExposure",
          "type": "uint256"
        },
        {
          "indexed": false,
          "internalType": "uint256",
          "name": "timestamp",
          "type": "uint256"
        }
      ],
      "name": "ProtocolExposureChanged",
      "type": "event"
    },
    {
      "anonymous": false,
      "inputs": [
        {
          "indexed": true,
          "internalType": "address",
          "name": "performer",
          "type": "address"
        },
        {
          "indexed": true,
          "internalType": "bytes32",
          "name": "groupIdentifier",
          "type": "bytes32"
        },
        {
          "indexed": false,
          "internalType": "uint256",
          "name": "prevMaxExposure",
          "type": "uint256"
        },
        {
          "indexed": false,
          "internalType": "uint256",
          "name": "newMaxExposure",
          "type": "uint256"
        },
        {
          "indexed": false,
          "internalType": "uint256",
          "name": "currentExposure",
          "type": "uint256"
        },
        {
          "indexed": false,
          "internalType": "uint256",
          "name": "timestamp",
          "type": "uint256"
        }
      ],
      "name": "ProtocolExposureSet",
      "type": "event"
    },
    {
      "anonymous": false,
      "inputs": [
        {
          "indexed": true,
          "internalType": "address",
          "name": "performer",
          "type": "address"
        },
        {
          "indexed": false,
          "internalType": "address",
          "name": "assetAddress",
          "type": "address"
        },
        {
          "indexed": false,
          "internalType": "uint256",
          "name": "timestamp",
          "type": "uint256"
        }
      ],
      "name": "TokenAssetActivated",
      "type": "event"
    },
    {
      "anonymous": false,
      "inputs": [
        {
          "indexed": true,
          "internalType": "address",
          "name": "performer",
          "type": "address"
        },
        {
          "indexed": true,
          "internalType": "bytes32",
          "name": "tokenAsset",
          "type": "bytes32"
        },
        {
          "indexed": false,
          "internalType": "address",
          "name": "assetAddress",
          "type": "address"
        },
        {
          "indexed": false,
          "internalType": "uint256",
          "name": "timestamp",
          "type": "uint256"
        }
      ],
      "name": "TokenAssetAdded",
      "type": "event"
    },
    {
      "anonymous": false,
      "inputs": [
        {
          "indexed": true,
          "internalType": "address",
          "name": "performer",
          "type": "address"
        },
        {
          "indexed": false,
          "internalType": "address",
          "name": "assetAddress",
          "type": "address"
        },
        {
          "indexed": false,
          "internalType": "uint256",
          "name": "timestamp",
          "type": "uint256"
        }
      ],
      "name": "TokenAssetDeactivated",
      "type": "event"
    },
    {
      "anonymous": false,
      "inputs": [
        {
          "indexed": true,
          "internalType": "address",
          "name": "performer",
          "type": "address"
        },
        {
          "indexed": true,
          "internalType": "bytes32",
          "name": "tokenAsset",
          "type": "bytes32"
        },
        {
          "indexed": false,
          "internalType": "uint256",
          "name": "timestamp",
          "type": "uint256"
        }
      ],
      "name": "TokenAssetRemoved",
      "type": "event"
    },
    {
      "inputs": [
        {
          "internalType": "address",
          "name": "token",
          "type": "address"
        }
      ],
      "name": "activateToken",
      "outputs": [],
      "stateMutability": "nonpayable",
      "type": "function"
    },
    {
      "inputs": [
        {
          "components": [
            {
              "internalType": "bytes32",
              "name": "asset",
              "type": "bytes32"
            },
            {
              "internalType": "address",
              "name": "poolAddress",
              "type": "address"
            }
          ],
          "internalType": "struct TokenManager.poolAsset[]",
          "name": "poolAssets",
          "type": "tuple[]"
        }
      ],
      "name": "addPoolAssets",
      "outputs": [],
      "stateMutability": "nonpayable",
      "type": "function"
    },
    {
      "inputs": [
        {
          "components": [
            {
              "internalType": "bytes32",
              "name": "asset",
              "type": "bytes32"
            },
            {
              "internalType": "address",
              "name": "assetAddress",
              "type": "address"
            },
            {
              "internalType": "uint256",
              "name": "debtCoverage",
              "type": "uint256"
            }
          ],
          "internalType": "struct TokenManager.Asset[]",
          "name": "tokenAssets",
          "type": "tuple[]"
        }
      ],
      "name": "addTokenAssets",
      "outputs": [],
      "stateMutability": "nonpayable",
      "type": "function"
    },
    {
      "inputs": [
        {
          "internalType": "address",
          "name": "token",
          "type": "address"
        }
      ],
      "name": "deactivateToken",
      "outputs": [],
      "stateMutability": "nonpayable",
      "type": "function"
    },
    {
      "inputs": [
        {
          "internalType": "address",
          "name": "",
          "type": "address"
        }
      ],
      "name": "debtCoverage",
      "outputs": [
        {
          "internalType": "uint256",
          "name": "",
          "type": "uint256"
        }
      ],
      "stateMutability": "view",
      "type": "function"
    },
    {
      "inputs": [
        {
          "internalType": "bytes32",
          "name": "",
          "type": "bytes32"
        }
      ],
      "name": "debtCoverageStaked",
      "outputs": [
        {
          "internalType": "uint256",
          "name": "",
          "type": "uint256"
        }
      ],
      "stateMutability": "view",
      "type": "function"
    },
    {
      "inputs": [
        {
          "internalType": "bytes32",
          "name": "assetIdentifier",
          "type": "bytes32"
        },
        {
          "internalType": "uint256",
          "name": "exposureDecrease",
          "type": "uint256"
        }
      ],
      "name": "decreaseProtocolExposure",
      "outputs": [],
      "stateMutability": "nonpayable",
      "type": "function"
    },
    {
      "inputs": [],
      "name": "getAllPoolAssets",
      "outputs": [
        {
          "internalType": "bytes32[]",
          "name": "result",
          "type": "bytes32[]"
        }
      ],
      "stateMutability": "view",
      "type": "function"
    },
    {
      "inputs": [],
      "name": "getAllTokenAssets",
      "outputs": [
        {
          "internalType": "bytes32[]",
          "name": "result",
          "type": "bytes32[]"
        }
      ],
      "stateMutability": "view",
      "type": "function"
    },
    {
      "inputs": [
        {
          "internalType": "bytes32",
          "name": "_asset",
          "type": "bytes32"
        },
        {
          "internalType": "bool",
          "name": "allowInactive",
          "type": "bool"
        }
      ],
      "name": "getAssetAddress",
      "outputs": [
        {
          "internalType": "address",
          "name": "",
          "type": "address"
        }
      ],
      "stateMutability": "view",
      "type": "function"
    },
    {
      "inputs": [
        {
          "internalType": "bytes32",
          "name": "_asset",
          "type": "bytes32"
        }
      ],
      "name": "getPoolAddress",
      "outputs": [
        {
          "internalType": "address",
          "name": "",
          "type": "address"
        }
      ],
      "stateMutability": "view",
      "type": "function"
    },
    {
      "inputs": [],
      "name": "getSmartLoansFactoryAddress",
      "outputs": [
        {
          "internalType": "address",
          "name": "",
          "type": "address"
        }
      ],
      "stateMutability": "view",
      "type": "function"
    },
    {
      "inputs": [],
      "name": "getSupportedTokensAddresses",
      "outputs": [
        {
          "internalType": "address[]",
          "name": "",
          "type": "address[]"
        }
      ],
      "stateMutability": "view",
      "type": "function"
    },
    {
      "inputs": [],
      "name": "getVPrimeControllerAddress",
      "outputs": [
        {
          "internalType": "address",
          "name": "",
          "type": "address"
        }
      ],
      "stateMutability": "view",
      "type": "function"
    },
    {
      "inputs": [
        {
          "internalType": "bytes32",
          "name": "",
          "type": "bytes32"
        }
      ],
      "name": "groupToExposure",
      "outputs": [
        {
          "internalType": "uint256",
          "name": "current",
          "type": "uint256"
        },
        {
          "internalType": "uint256",
          "name": "max",
          "type": "uint256"
        }
      ],
      "stateMutability": "view",
      "type": "function"
    },
    {
      "inputs": [
        {
          "internalType": "bytes32",
          "name": "",
          "type": "bytes32"
        }
      ],
      "name": "identifierToExposureGroup",
      "outputs": [
        {
          "internalType": "bytes32",
          "name": "",
          "type": "bytes32"
        }
      ],
      "stateMutability": "view",
      "type": "function"
    },
    {
      "inputs": [
        {
          "internalType": "bytes32",
          "name": "assetIdentifier",
          "type": "bytes32"
        },
        {
          "internalType": "address",
          "name": "user",
          "type": "address"
        },
        {
          "internalType": "uint256",
          "name": "amount",
          "type": "uint256"
        }
      ],
      "name": "increasePendingExposure",
      "outputs": [],
      "stateMutability": "nonpayable",
      "type": "function"
    },
    {
      "inputs": [
        {
          "internalType": "bytes32",
          "name": "assetIdentifier",
          "type": "bytes32"
        },
        {
          "internalType": "uint256",
          "name": "exposureIncrease",
          "type": "uint256"
        }
      ],
      "name": "increaseProtocolExposure",
      "outputs": [],
      "stateMutability": "nonpayable",
      "type": "function"
    },
    {
      "inputs": [
        {
          "components": [
            {
              "internalType": "bytes32",
              "name": "asset",
              "type": "bytes32"
            },
            {
              "internalType": "address",
              "name": "assetAddress",
              "type": "address"
            },
            {
              "internalType": "uint256",
              "name": "debtCoverage",
              "type": "uint256"
            }
          ],
          "internalType": "struct TokenManager.Asset[]",
          "name": "tokenAssets",
          "type": "tuple[]"
        },
        {
          "components": [
            {
              "internalType": "bytes32",
              "name": "asset",
              "type": "bytes32"
            },
            {
              "internalType": "address",
              "name": "poolAddress",
              "type": "address"
            }
          ],
          "internalType": "struct TokenManager.poolAsset[]",
          "name": "poolAssets",
          "type": "tuple[]"
        }
      ],
      "name": "initialize",
      "outputs": [],
      "stateMutability": "nonpayable",
      "type": "function"
    },
    {
      "inputs": [
        {
          "internalType": "address",
          "name": "token",
          "type": "address"
        }
      ],
      "name": "isTokenAssetActive",
      "outputs": [
        {
          "internalType": "bool",
          "name": "",
          "type": "bool"
        }
      ],
      "stateMutability": "view",
      "type": "function"
    },
    {
      "inputs": [],
      "name": "owner",
      "outputs": [
        {
          "internalType": "address",
          "name": "",
          "type": "address"
        }
      ],
      "stateMutability": "view",
      "type": "function"
    },
    {
      "inputs": [
        {
          "internalType": "bytes32",
          "name": "",
          "type": "bytes32"
        }
      ],
      "name": "pendingProtocolExposure",
      "outputs": [
        {
          "internalType": "uint256",
          "name": "",
          "type": "uint256"
        }
      ],
      "stateMutability": "view",
      "type": "function"
    },
    {
      "inputs": [
        {
          "internalType": "address",
          "name": "",
          "type": "address"
        },
        {
          "internalType": "bytes32",
          "name": "",
          "type": "bytes32"
        }
      ],
      "name": "pendingUserExposure",
      "outputs": [
        {
          "internalType": "uint256",
          "name": "",
          "type": "uint256"
        }
      ],
      "stateMutability": "view",
      "type": "function"
    },
    {
      "inputs": [
        {
          "internalType": "bytes32[]",
          "name": "_poolAssets",
          "type": "bytes32[]"
        }
      ],
      "name": "removePoolAssets",
      "outputs": [],
      "stateMutability": "nonpayable",
      "type": "function"
    },
    {
      "inputs": [
        {
          "internalType": "bytes32[]",
          "name": "_tokenAssets",
          "type": "bytes32[]"
        }
      ],
      "name": "removeTokenAssets",
      "outputs": [],
      "stateMutability": "nonpayable",
      "type": "function"
    },
    {
      "inputs": [],
      "name": "renounceOwnership",
      "outputs": [],
      "stateMutability": "nonpayable",
      "type": "function"
    },
    {
      "inputs": [
        {
          "internalType": "bytes32[]",
          "name": "groupIdentifiers",
          "type": "bytes32[]"
        },
        {
          "internalType": "uint256[]",
          "name": "currentExposures",
          "type": "uint256[]"
        }
      ],
      "name": "setCurrentProtocolExposure",
      "outputs": [],
      "stateMutability": "nonpayable",
      "type": "function"
    },
    {
      "inputs": [
        {
          "internalType": "address",
          "name": "token",
          "type": "address"
        },
        {
          "internalType": "uint256",
          "name": "coverage",
          "type": "uint256"
        }
      ],
      "name": "setDebtCoverage",
      "outputs": [],
      "stateMutability": "nonpayable",
      "type": "function"
    },
    {
      "inputs": [
        {
          "internalType": "bytes32",
          "name": "stakedAsset",
          "type": "bytes32"
        },
        {
          "internalType": "uint256",
          "name": "coverage",
          "type": "uint256"
        }
      ],
      "name": "setDebtCoverageStaked",
      "outputs": [],
      "stateMutability": "nonpayable",
      "type": "function"
    },
    {
      "inputs": [
        {
          "internalType": "bytes32[]",
          "name": "identifiers",
          "type": "bytes32[]"
        },
        {
          "internalType": "bytes32[]",
          "name": "exposureGroups",
          "type": "bytes32[]"
        }
      ],
      "name": "setIdentifiersToExposureGroups",
      "outputs": [],
      "stateMutability": "nonpayable",
      "type": "function"
    },
    {
      "inputs": [
        {
          "internalType": "bytes32[]",
          "name": "groupIdentifiers",
          "type": "bytes32[]"
        },
        {
          "internalType": "uint256[]",
          "name": "maxExposures",
          "type": "uint256[]"
        }
      ],
      "name": "setMaxProtocolsExposure",
      "outputs": [],
      "stateMutability": "nonpayable",
      "type": "function"
    },
    {
      "inputs": [
        {
          "internalType": "bytes32",
          "name": "assetIdentifier",
          "type": "bytes32"
        },
        {
          "internalType": "address",
          "name": "user",
          "type": "address"
        }
      ],
      "name": "setPendingExposureToZero",
      "outputs": [],
      "stateMutability": "nonpayable",
      "type": "function"
    },
    {
      "inputs": [
        {
          "internalType": "address",
          "name": "_vPrimeControllerAddress",
          "type": "address"
        }
      ],
      "name": "setVPrimeControllerAddress",
      "outputs": [],
      "stateMutability": "nonpayable",
      "type": "function"
    },
    {
      "inputs": [
        {
          "internalType": "uint256",
          "name": "",
          "type": "uint256"
        }
      ],
      "name": "supportedTokensList",
      "outputs": [
        {
          "internalType": "address",
          "name": "",
          "type": "address"
        }
      ],
      "stateMutability": "view",
      "type": "function"
    },
    {
      "inputs": [
        {
          "internalType": "address",
          "name": "",
          "type": "address"
        }
      ],
      "name": "tokenAddressToSymbol",
      "outputs": [
        {
          "internalType": "bytes32",
          "name": "",
          "type": "bytes32"
        }
      ],
      "stateMutability": "view",
      "type": "function"
    },
    {
      "inputs": [
        {
          "internalType": "address",
          "name": "",
          "type": "address"
        }
      ],
      "name": "tokenToStatus",
      "outputs": [
        {
          "internalType": "uint256",
          "name": "",
          "type": "uint256"
        }
      ],
      "stateMutability": "view",
      "type": "function"
    },
    {
      "inputs": [
        {
          "internalType": "address",
          "name": "newOwner",
          "type": "address"
        }
      ],
      "name": "transferOwnership",
      "outputs": [],
      "stateMutability": "nonpayable",
      "type": "function"
    },
    {
      "inputs": [],
      "name": "vPrimeControllerAddress",
      "outputs": [
        {
          "internalType": "address",
          "name": "",
          "type": "address"
        }
      ],
      "stateMutability": "view",
      "type": "function"
    }
  ],
  "transactionHash": "0x400113eee64a961a997086a62d4f29a905757979aefeee8ac124f9d318cab230",
  "args": [],
  "numDeployments": 1,
  "solcInputHash": "4ad9682ffe074e697107ed79185fffb9",
  "bytecode": "0x608060405234801561001057600080fd5b506127b3806100206000396000f3fe608060405234801561001057600080fd5b50600436106101c25760003560e01c806303223bb4146101c75780630d1ce2d2146101dc5780630e8b514b146101ef5780630edc25b61461022d57806321f880971461024d57806325eb876f146102625780632caeffe21461027557806331e7866c1461027d578063326c2e971461029057806335923e03146102b05780633f8ef5c8146102ec57806363c918771461030c57806366273c191461031f57806368173bcf146103345780636953c06c14610347578063715018a6146101da578063726cd41514610367578063762b887a14610378578063808d7c9b1461038b578063831046671461039e578063869c490d146103be5780638ce76c05146103c65780638da5cb5b146103d9578063942b0477146103e15780639ab52045146103f4578063a2d2793314610407578063adfe6a0f1461041a578063c3cc6c7a1461042d578063d195f04714610440578063d1bc083114610453578063e0117bdd14610466578063ecfc19a014610486578063ed0994cd14610499578063f2fde38b146104ac578063f38555aa146104bf578063f823f1e0146104d2578063fda4963b146104f2578063fff3d39a14610505575b600080fd5b6101da6101d536600461203f565b610541565b005b6101da6101ea3660046120be565b610657565b61021a6101fd3660046120d9565b607360209081526000928352604080842090915290825290205481565b6040519081526020015b60405180910390f35b61024061023b366004612103565b610715565b604051610224919061211c565b61025561077e565b6040516102249190612130565b61024061027036600461218b565b6107e0565b6102406108a3565b6101da61028b3660046120d9565b6108bb565b61021a61029e366004612103565b60716020526000908152604090205481565b6102dc6102be3660046120be565b6001600160a01b03166000908152606f602052604090205460021490565b6040519015158152602001610224565b61021a6102fa366004612103565b60706020526000908152604090205481565b61024061031a366004612103565b610907565b610327610931565b60405161022491906121bb565b6101da6103423660046120be565b610987565b61021a6103553660046120be565b606d6020526000908152604090205481565b6075546001600160a01b0316610240565b6101da610386366004612314565b610a3a565b6101da6103993660046120be565b610b65565b61021a6103ac366004612103565b60746020526000908152604090205481565b610327610b8f565b6101da6103d436600461236d565b610be4565b610240610c67565b607554610240906001600160a01b031681565b6101da610402366004612427565b610c76565b6101da61041536600461245c565b610dd0565b6101da610428366004612490565b610e5c565b6101da61043b366004612490565b610f8d565b6101da61044e36600461236d565b6110ff565b6101da6104613660046124b2565b611182565b61021a6104743660046120be565b606f6020526000908152604090205481565b6101da610494366004612490565b6111ca565b6101da6104a73660046124e6565b61120c565b6101da6104ba3660046120be565b611331565b6101da6104cd366004612512565b6113aa565b61021a6104e03660046120be565b606b6020526000908152604090205481565b6101da6105003660046124b2565b611414565b61052c610513366004612103565b6072602052600090815260409020805460019091015482565b60408051928352602083019190915201610224565b61054961145c565b80518251146105735760405162461bcd60e51b815260040161056a90612546565b60405180910390fd5b60005b82518110156106525781818151811061059157610591612577565b6020026020010151607160008584815181106105af576105af612577565b60200260200101518152602001908152602001600020819055508181815181106105db576105db612577565b60200260200101518382815181106105f5576105f5612577565b6020026020010151336001600160a01b03167f6185e65460908e4de770553685b03f20921bc24a081923fc2ca1f0ba7d18cd5f4260405161063891815260200190565b60405180910390a48061064a816125a3565b915050610576565b505050565b61065f61145c565b6001600160a01b0381166000908152606f60205260409020546001146106ba5760405162461bcd60e51b815260206004820152601060248201526f4d75737420626520696e61637469766560801b604482015260640161056a565b6001600160a01b0381166000908152606f602052604090819020600290555133907febd9f0d5b5df9f4d5180bbeec65fda8d99982e273d2a7365431b2a869aa826d49061070a90849042906125bc565b60405180910390a250565b6000806107236065846114bb565b9150506001600160a01b0381166107785760405162461bcd60e51b81526020600482015260196024820152782837b7b61030b9b9b2ba103737ba1039bab83837b93a32b21760391b604482015260640161056a565b92915050565b6060606e8054806020026020016040519081016040528092919081815260200182805480156107d657602002820191906000526020600020905b81546001600160a01b031681526001909101906020018083116107b8575b5050505050905090565b6000806107ee6068856114bb565b9150506001600160a01b03811661083e5760405162461bcd60e51b815260206004820152601460248201527320b9b9b2ba103737ba1039bab83837b93a32b21760611b604482015260640161056a565b8261089c576001600160a01b0381166000908152606f602052604090205460021461089c5760405162461bcd60e51b815260206004820152600e60248201526d417373657420696e61637469766560901b604482015260640161056a565b9392505050565b73ff5e3ddaeff411a1dc6cce00014e4bca39265c2090565b6108c361145c565b670b90984060d355558111156108eb5760405162461bcd60e51b815260040161056a906125d5565b6001600160a01b039091166000908152606d6020526040902055565b606e818154811061091757600080fd5b6000918252602090912001546001600160a01b0316905081565b6065805460408051602080840282018101909252828152606093909290918301828280156107d657602002820191906000526020600020905b81548152602001906001019080831161096a575050505050905090565b61098f61145c565b6001600160a01b0381166000908152606f60205260409020546002146109e85760405162461bcd60e51b815260206004820152600e60248201526d4d7573742062652061637469766560901b604482015260640161056a565b6001600160a01b0381166000908152606f602052604090819020600190555133907fbf0b0e2d837fddaee4742e91f53ca36bac9fdebdd571738027abb2b5f7c9a2f09061070a90849042906125bc565b565b600054610100900460ff1615808015610a5a5750600054600160ff909116105b80610a7b5750610a69306114d9565b158015610a7b575060005460ff166001145b610ade5760405162461bcd60e51b815260206004820152602e60248201527f496e697469616c697a61626c653a20636f6e747261637420697320616c72656160448201526d191e481a5b9a5d1a585b1a5e995960921b606482015260840161056a565b6000805460ff191660011790558015610b01576000805461ff0019166101001790555b610b096114e8565b610b1283610dd0565b610b1b826113aa565b8015610652576000805461ff0019169055604051600181527f7f26b83ff96e1f2b6a682f133852f6798a09c465da95921460cefb38474024989060200160405180910390a1505050565b610b6d61145c565b607580546001600160a01b0319166001600160a01b0392909216919091179055565b6068805460408051602080840282018101909252828152606093909290918301828280156107d6576020028201919060005260206000209081548152602001906001019080831161096a575050505050905090565b610bec61145c565b8051825114610c0d5760405162461bcd60e51b815260040161056a90612546565b60005b825181101561065257610c55838281518110610c2e57610c2e612577565b6020026020010151838381518110610c4857610c48612577565b6020026020010151611517565b80610c5f816125a3565b915050610c10565b6033546001600160a01b031690565b6000610c806108a3565b60405163039ff21960e21b81529091506001600160a01b03821690630e7fc86490610caf90339060040161211c565b602060405180830381865afa158015610ccc573d6000803e3d6000fd5b505050506040513d601f19601f82011682018060405250810190610cf09190612621565b80610d0a575033610cff610c67565b6001600160a01b0316145b610d265760405162461bcd60e51b815260040161056a9061263e565b6001600160a01b038316600090815260736020908152604080832087845290915281208054849290610d59908490612695565b909155505060008481526074602052604081208054849290610d7c908490612695565b90915550610d8b905084611599565b610dca5760405162461bcd60e51b815260206004820152601060248201526f4c61636b206f66204578706f7375726560801b604482015260640161056a565b50505050565b610dd861145c565b60005b8151811015610e5857610e46828281518110610df957610df9612577565b602002602001015160000151838381518110610e1757610e17612577565b602002602001015160200151848481518110610e3557610e35612577565b602002602001015160400151611615565b80610e50816125a3565b915050610ddb565b5050565b6000610e666108a3565b60405163039ff21960e21b81529091506001600160a01b03821690630e7fc86490610e9590339060040161211c565b602060405180830381865afa158015610eb2573d6000803e3d6000fd5b505050506040513d601f19601f82011682018060405250810190610ed69190612621565b80610ef0575033610ee5610c67565b6001600160a01b0316145b610f0c5760405162461bcd60e51b815260040161056a9061263e565b6000838152607160205260409020548015610dca576000818152607260205260409020600181015415610f86578054841015610f54578054610f4f9085906126a8565b610f57565b60005b808255604080519182524260208301528391339160008051602061275e83398151915291015b60405180910390a35b5050505050565b6000610f976108a3565b60405163039ff21960e21b81529091506001600160a01b03821690630e7fc86490610fc690339060040161211c565b602060405180830381865afa158015610fe3573d6000803e3d6000fd5b505050506040513d601f19601f820116820180604052508101906110079190612621565b80611021575033611016610c67565b6001600160a01b0316145b61103d5760405162461bcd60e51b815260040161056a9061263e565b6000838152607160205260409020548015610dca576000818152607260205260409020600181015415610f86578381600001600082825461107e9190612695565b90915550506001810154815411156110d65760405162461bcd60e51b815260206004820152601b60248201527a13585e08185cdcd95d08195e1c1bdcdd5c9948189c995858da1959602a1b604482015260640161056a565b8054604080519182524260208301528391339160008051602061275e8339815191529101610f7d565b61110761145c565b80518251146111285760405162461bcd60e51b815260040161056a90612546565b60005b82518110156106525761117083828151811061114957611149612577565b602002602001015183838151811061116357611163612577565b6020026020010151611828565b8061117a816125a3565b91505061112b565b61118a61145c565b60005b8151811015610e58576111b88282815181106111ab576111ab612577565b60200260200101516118ac565b806111c2816125a3565b91505061118d565b6111d261145c565b670b90984060d355558111156111fa5760405162461bcd60e51b815260040161056a906125d5565b60009182526070602052604090912055565b60006112166108a3565b60405163039ff21960e21b81529091506001600160a01b03821690630e7fc8649061124590339060040161211c565b602060405180830381865afa158015611262573d6000803e3d6000fd5b505050506040513d601f19601f820116820180604052508101906112869190612621565b806112a0575033611295610c67565b6001600160a01b0316145b6112bc5760405162461bcd60e51b815260040161056a9061263e565b6001600160a01b03821660009081526073602090815260408083208684529091529020548015610dca57600084815260746020526040812080548392906113049084906126a8565b909155505050506001600160a01b0316600090815260736020908152604080832093835292905290812055565b61133961145c565b6001600160a01b03811661139e5760405162461bcd60e51b815260206004820152602660248201527f4f776e61626c653a206e6577206f776e657220697320746865207a65726f206160448201526564647265737360d01b606482015260840161056a565b6113a78161193c565b50565b6113b261145c565b60005b8151811015610e58576114028282815181106113d3576113d3612577565b6020026020010151600001518383815181106113f1576113f1612577565b60200260200101516020015161198e565b8061140c816125a3565b9150506113b5565b61141c61145c565b60005b8151811015610e585761144a82828151811061143d5761143d612577565b6020026020010151611a90565b80611454816125a3565b91505061141f565b33611465610c67565b6001600160a01b031614610a385760405162461bcd60e51b815260206004820181905260248201527f4f776e61626c653a2063616c6c6572206973206e6f7420746865206f776e6572604482015260640161056a565b60008080806114ca8686611ae5565b909450925050505b9250929050565b6001600160a01b03163b151590565b600054610100900460ff1661150f5760405162461bcd60e51b815260040161056a906126bb565b610a38611b1f565b816000036115375760405162461bcd60e51b815260040161056a90612706565b60008281526072602090815260409182902080549084905582518181529182018490524292820192909252839033907f073dc16e9ad72465ac9c9d5249ac0b1ba512ca440e461ff67a34c38e29c3413e906060015b60405180910390a3505050565b600081815260716020526040812054801561160c57600081815260726020908152604091829020825180840190935280548352600101549082018190521561160a5760008481526074602052604090205481516115f69190612695565b81602001511161160a575060009392505050565b505b50600192915050565b826000036116355760405162461bcd60e51b815260040161056a90612706565b6001600160a01b03821661168a5760405162461bcd60e51b815260206004820152601c60248201527b21b0b73737ba1039b2ba1030b71032b6b83a3c9030b2323932b9b99760211b604482015260640161056a565b611695606884611b4f565b156116e15760405162461bcd60e51b815260206004820152601c60248201527b4173736574277320746f6b656e20616c72656164792065786973747360201b604482015260640161056a565b6001600160a01b0382166000908152606b6020526040902054156117475760405162461bcd60e51b815260206004820152601f60248201527f4173736574206164647265737320697320616c726561647920696e2075736500604482015260640161056a565b61175182826108bb565b61175d60688484611b5b565b506001600160a01b0382166000818152606b60209081526040808320879055606f909152812060029055606e805460018181018355928290527f9930d9ff0dee0ef5ca2f7710ea66b8f84dd0f5f5351ecffe72b952cd9db7142a0180546001600160a01b03191690931790925590546117d691906126a8565b6001600160a01b0383166000908152606c6020526040908190209190915551839033907ff73be6b27198eab18ec5fe07c2d7b2fbf4f05ffa1a05c94ca202531d7aa8c5b69061158c90869042906125bc565b816000036118485760405162461bcd60e51b815260040161056a90612706565b600082815260726020908152604091829020600181018054908590559054835182815292830185905292820192909252426060820152839033907f4e3db1a563ebfee7c496974d792038536dc8311892551dc36d19116131e3dd3c9060800161158c565b60006118b98260016107e0565b90506118c6606883611b79565b506001600160a01b0381166000908152606b60209081526040808320839055606f8252808320839055606d90915281205561190081611b85565b604051428152829033907f228e158b51be6445b7bd2f4121209717a371d44c7c53d4085ae7f5e496153a93906020015b60405180910390a35050565b603380546001600160a01b038381166001600160a01b0319831681179093556040519116919082907f8be0079c531659141344cd1fd0a4f28419497f9722a3daafe3b4186f6b6457e090600090a35050565b611997816114d9565b6119f15760405162461bcd60e51b815260206004820152602560248201527f546f6b656e4d616e616765723a20506f6f6c206d757374206265206120636f6e6044820152641d1c9858dd60da1b606482015260840161056a565b6119fc606583611b4f565b15611a475760405162461bcd60e51b815260206004820152601b60248201527a4173736574277320706f6f6c20616c72656164792065786973747360281b604482015260640161056a565b611a5360658383611b5b565b5081336001600160a01b03167fcfbf9a4f33420379df003923a1d986358bb97d4b3455baae186db1d5d35cda3e83426040516119309291906125bc565b6000611a9b82610715565b9050611aa8606583611b79565b5081336001600160a01b03167ff658b7b16fbc2f0f51a3320cc57763ccd8d13f554c4eb34ff0f5b49624b32e8383426040516119309291906125bc565b6000818152600283016020526040812054819080611b1457611b078585611d62565b9250600091506114d29050565b6001925090506114d2565b600054610100900460ff16611b465760405162461bcd60e51b815260040161056a906126bb565b610a383361193c565b600061089c8383611d62565b6000611b7184846001600160a01b038516611d6e565b949350505050565b600061089c8383611d8b565b6001600160a01b0381166000908152606c6020526040902054606e548110611be45760405162461bcd60e51b8152602060048201526012602482015271496e646578206f7574206f662072616e676560701b604482015260640161056a565b80158015611c235750816001600160a01b0316606e600081548110611c0b57611c0b612577565b6000918252602090912001546001600160a01b031614155b15611c675760405162461bcd60e51b8152602060048201526014602482015273151bdad95b88191bd95cc81b9bdd08195e1a5cdd60621b604482015260640161056a565b606e54611c76906001906126a8565b8114611d1057606e805460009190611c90906001906126a8565b81548110611ca057611ca0612577565b60009182526020808320909101546001600160a01b0316808352606c9091526040909120839055606e8054919250829184908110611ce057611ce0612577565b9060005260206000200160006101000a8154816001600160a01b0302191690836001600160a01b03160217905550505b606e805480611d2157611d21612747565b60008281526020808220830160001990810180546001600160a01b03191690559092019092556001600160a01b03939093168152606c909252506040812055565b600061089c8383611da8565b60008281526002840160205260408120829055611b718484611db4565b6000818152600283016020526040812081905561089c8383611dc0565b600061089c8383611dcc565b600061089c8383611de4565b600061089c8383611e2e565b60009081526001919091016020526040902054151590565b6000611df08383611dcc565b611e2657508154600181810184556000848152602080822090930184905584548482528286019093526040902091909155610778565b506000610778565b60008181526001830160205260408120548015611f17576000611e526001836126a8565b8554909150600090611e66906001906126a8565b9050818114611ecb576000866000018281548110611e8657611e86612577565b9060005260206000200154905080876000018481548110611ea957611ea9612577565b6000918252602080832090910192909255918252600188019052604090208390555b8554869080611edc57611edc612747565b600190038181906000526020600020016000905590558560010160008681526020019081526020016000206000905560019350505050610778565b6000915050610778565b634e487b7160e01b600052604160045260246000fd5b604051606081016001600160401b0381118282101715611f5957611f59611f21565b60405290565b604080519081016001600160401b0381118282101715611f5957611f59611f21565b604051601f8201601f191681016001600160401b0381118282101715611fa957611fa9611f21565b604052919050565b60006001600160401b03821115611fca57611fca611f21565b5060051b60200190565b600082601f830112611fe557600080fd5b81356020611ffa611ff583611fb1565b611f81565b82815260059290921b8401810191818101908684111561201957600080fd5b8286015b84811015612034578035835291830191830161201d565b509695505050505050565b6000806040838503121561205257600080fd5b82356001600160401b038082111561206957600080fd5b61207586838701611fd4565b9350602085013591508082111561208b57600080fd5b5061209885828601611fd4565b9150509250929050565b80356001600160a01b03811681146120b957600080fd5b919050565b6000602082840312156120d057600080fd5b61089c826120a2565b600080604083850312156120ec57600080fd5b6120f5836120a2565b946020939093013593505050565b60006020828403121561211557600080fd5b5035919050565b6001600160a01b0391909116815260200190565b6020808252825182820181905260009190848201906040850190845b818110156121715783516001600160a01b03168352928401929184019160010161214c565b50909695505050505050565b80151581146113a757600080fd5b6000806040838503121561219e57600080fd5b8235915060208301356121b08161217d565b809150509250929050565b6020808252825182820181905260009190848201906040850190845b81811015612171578351835292840192918401916001016121d7565b600082601f83011261220457600080fd5b81356020612214611ff583611fb1565b8281526060928302850182019282820191908785111561223357600080fd5b8387015b858110156122815781818a03121561224f5760008081fd5b612257611f37565b813581526122668683016120a2565b81870152604082810135908201528452928401928101612237565b5090979650505050505050565b600082601f83011261229f57600080fd5b813560206122af611ff583611fb1565b82815260069290921b840181019181810190868411156122ce57600080fd5b8286015b8481101561203457604081890312156122eb5760008081fd5b6122f3611f5f565b813581526123028583016120a2565b818601528352918301916040016122d2565b6000806040838503121561232757600080fd5b82356001600160401b038082111561233e57600080fd5b61234a868387016121f3565b9350602085013591508082111561236057600080fd5b506120988582860161228e565b6000806040838503121561238057600080fd5b82356001600160401b038082111561239757600080fd5b6123a386838701611fd4565b93506020915081850135818111156123ba57600080fd5b85019050601f810186136123cd57600080fd5b80356123db611ff582611fb1565b81815260059190911b820183019083810190888311156123fa57600080fd5b928401925b82841015612418578335825292840192908401906123ff565b80955050505050509250929050565b60008060006060848603121561243c57600080fd5b8335925061244c602085016120a2565b9150604084013590509250925092565b60006020828403121561246e57600080fd5b81356001600160401b0381111561248457600080fd5b611b71848285016121f3565b600080604083850312156124a357600080fd5b50508035926020909101359150565b6000602082840312156124c457600080fd5b81356001600160401b038111156124da57600080fd5b611b7184828501611fd4565b600080604083850312156124f957600080fd5b82359150612509602084016120a2565b90509250929050565b60006020828403121561252457600080fd5b81356001600160401b0381111561253a57600080fd5b611b718482850161228e565b602080825260179082015276082e4e4c2f2e640d8cadccee8d0e640dad2e6dac2e8c6d604b1b604082015260600190565b634e487b7160e01b600052603260045260246000fd5b634e487b7160e01b600052601160045260246000fd5b6000600182016125b5576125b561258d565b5060010190565b6001600160a01b03929092168252602082015260400190565b6020808252602c908201527f4465627420636f76657261676520686967686572207468616e206d6178696d7560408201526b6d2061636365707461626c6560a01b606082015260800190565b60006020828403121561263357600080fd5b815161089c8161217d565b60208082526037908201527f4f6e6c79205072696d654163636f756e74206f72206f776e65722063616e206360408201527668616e67652070726f746f636f6c206578706f7375726560481b606082015260800190565b808201808211156107785761077861258d565b818103818111156107785761077861258d565b6020808252602b908201527f496e697469616c697a61626c653a20636f6e7472616374206973206e6f74206960408201526a6e697469616c697a696e6760a81b606082015260800190565b60208082526021908201527f43616e6e6f742073657420616e20656d70747920737472696e672061737365746040820152601760f91b606082015260800190565b634e487b7160e01b600052603160045260246000fdfe45262a952f63661e3b881eb82a0d0bd391ab35692bd26023356b06e452230d43a26469706673582212208a6aa934554438224aac27c851ef3f1d53ca87689f5f636c1a2e2d99718dd59a64736f6c63430008110033",
  "devdoc": {
    "events": {
      "IdentifierToExposureGroupSet(address,bytes32,bytes32,uint256)": {
        "details": "emitted after associating identifier with a exposure group",
        "params": {
          "exposureGroup": "exposure group identifier",
          "identifier": "asset identifier",
          "performer": "an address of the wallet setting max exposure",
          "timestamp": "time of associating identifier with a exposure group*"
        }
      },
      "PoolAssetAdded(address,bytes32,address,uint256)": {
        "details": "emitted after adding a pool asset",
        "params": {
          "performer": "an address of wallet adding the pool asset",
          "poolAddress": "an address of the pool asset",
          "poolAsset": "pool asset",
          "timestamp": "time of the pool asset addition*"
        }
      },
      "PoolAssetRemoved(address,bytes32,address,uint256)": {
        "details": "emitted after removing a pool asset",
        "params": {
          "performer": "an address of wallet removing the pool asset",
          "poolAddress": "an address of the pool asset",
          "poolAsset": "pool asset",
          "timestamp": "time of a pool asset removal*"
        }
      },
      "ProtocolCurrentExposureSet(address,bytes32,uint256,uint256,uint256)": {
        "details": "emitted after setting max exposure for a given protocol.",
        "params": {
          "groupIdentifier": "exposure group identifier",
          "newCurrentExposure": "new max protocol exposure",
          "performer": "an address of the wallet setting max exposure",
          "prevCurrentExposure": "previous max protocol exposure",
          "timestamp": "time of setting max exposure*"
        }
      },
      "ProtocolExposureChanged(address,bytes32,uint256,uint256)": {
        "details": "emitted after changing current protocol exposure",
        "params": {
          "identifier": "group identifier",
          "newExposure": "new current protocol exposure",
          "performer": "an address of the wallet changing the exposure",
          "timestamp": "time of associating identifier with a exposure group*"
        }
      },
      "ProtocolExposureSet(address,bytes32,uint256,uint256,uint256,uint256)": {
        "details": "emitted after setting max exposure for a given protocol.",
        "params": {
          "currentExposure": "current protocol exposure",
          "groupIdentifier": "exposure group identifier",
          "newMaxExposure": "new max protocol exposure",
          "performer": "an address of the wallet setting max exposure",
          "prevMaxExposure": "previous max protocol exposure",
          "timestamp": "time of setting max exposure*"
        }
      },
      "TokenAssetActivated(address,address,uint256)": {
        "details": "emitted after activating a token asset",
        "params": {
          "assetAddress": "an address of the token asset",
          "performer": "an address of the wallet activating a token asset",
          "timestamp": "time of activating a token asset*"
        }
      },
      "TokenAssetAdded(address,bytes32,address,uint256)": {
        "details": "emitted after adding a token asset",
        "params": {
          "assetAddress": "an address of the token asset",
          "performer": "an address of the wallet adding a token asset",
          "timestamp": "time of adding a token asset*",
          "tokenAsset": "token asset"
        }
      },
      "TokenAssetDeactivated(address,address,uint256)": {
        "details": "emitted after deactivating a token asset",
        "params": {
          "assetAddress": "an address of the token asset",
          "performer": "an address of the wallet deactivating a token asset",
          "timestamp": "time of deactivating a token asset*"
        }
      },
      "TokenAssetRemoved(address,bytes32,uint256)": {
        "details": "emitted after removing a token asset",
        "params": {
          "performer": "an address of the wallet removing a token asset",
          "timestamp": "time a token asset removal*",
          "tokenAsset": "token asset"
        }
      }
    },
    "kind": "dev",
    "methods": {
      "owner()": {
        "details": "Returns the address of the current owner."
      },
      "renounceOwnership()": {
        "details": "Leaves the contract without owner. It will not be possible to call `onlyOwner` functions. Can only be called by the current owner. NOTE: Renouncing ownership will leave the contract without an owner, thereby disabling any functionality that is only available to the owner."
      },
      "transferOwnership(address)": {
        "details": "Transfers ownership of the contract to a new account (`newOwner`). Can only be called by the current owner."
      }
    },
    "version": 1
  },
  "userdoc": {
    "kind": "user",
    "methods": {
      "getAssetAddress(bytes32,bool)": {
        "notice": "Returns address of an asset*"
      },
      "getPoolAddress(bytes32)": {
        "notice": "Returns address of an asset's lending pool*"
      },
      "getVPrimeControllerAddress()": {
        "notice": "Returns the address of the vPrimeController contract"
      },
      "setVPrimeControllerAddress(address)": {
        "notice": "Sets the address of the vPrimeController contract"
      }
    },
    "version": 1
  },
  "storageLayout": {
    "storage": [
      {
        "astId": 138,
        "contract": "contracts/TokenManager.sol:TokenManager",
        "label": "_initialized",
        "offset": 0,
        "slot": "0",
        "type": "t_uint8"
      },
      {
        "astId": 141,
        "contract": "contracts/TokenManager.sol:TokenManager",
        "label": "_initializing",
        "offset": 1,
        "slot": "0",
        "type": "t_bool"
      },
      {
        "astId": 671,
        "contract": "contracts/TokenManager.sol:TokenManager",
        "label": "__gap",
        "offset": 0,
        "slot": "1",
        "type": "t_array(t_uint256)50_storage"
      },
      {
        "astId": 10,
        "contract": "contracts/TokenManager.sol:TokenManager",
        "label": "_owner",
        "offset": 0,
        "slot": "51",
        "type": "t_address"
      },
      {
        "astId": 130,
        "contract": "contracts/TokenManager.sol:TokenManager",
        "label": "__gap",
        "offset": 0,
        "slot": "52",
        "type": "t_array(t_uint256)49_storage"
      },
      {
        "astId": 1747,
        "contract": "contracts/TokenManager.sol:TokenManager",
        "label": "assetToPoolAddress",
        "offset": 0,
        "slot": "101",
        "type": "t_struct(Bytes32ToAddressMap)6728_storage"
      },
      {
        "astId": 1750,
        "contract": "contracts/TokenManager.sol:TokenManager",
        "label": "assetToTokenAddress",
        "offset": 0,
        "slot": "104",
        "type": "t_struct(Bytes32ToAddressMap)6728_storage"
      },
      {
        "astId": 1754,
        "contract": "contracts/TokenManager.sol:TokenManager",
        "label": "tokenAddressToSymbol",
        "offset": 0,
        "slot": "107",
        "type": "t_mapping(t_address,t_bytes32)"
      },
      {
        "astId": 1758,
        "contract": "contracts/TokenManager.sol:TokenManager",
        "label": "tokenPositionInList",
        "offset": 0,
        "slot": "108",
        "type": "t_mapping(t_address,t_uint256)"
      },
      {
        "astId": 1762,
        "contract": "contracts/TokenManager.sol:TokenManager",
        "label": "debtCoverage",
        "offset": 0,
        "slot": "109",
        "type": "t_mapping(t_address,t_uint256)"
      },
      {
        "astId": 1765,
        "contract": "contracts/TokenManager.sol:TokenManager",
        "label": "supportedTokensList",
        "offset": 0,
        "slot": "110",
        "type": "t_array(t_address)dyn_storage"
      },
      {
        "astId": 1769,
        "contract": "contracts/TokenManager.sol:TokenManager",
        "label": "tokenToStatus",
        "offset": 0,
        "slot": "111",
        "type": "t_mapping(t_address,t_uint256)"
      },
      {
        "astId": 1773,
        "contract": "contracts/TokenManager.sol:TokenManager",
        "label": "debtCoverageStaked",
        "offset": 0,
        "slot": "112",
        "type": "t_mapping(t_bytes32,t_uint256)"
      },
      {
        "astId": 1777,
        "contract": "contracts/TokenManager.sol:TokenManager",
        "label": "identifierToExposureGroup",
        "offset": 0,
        "slot": "113",
        "type": "t_mapping(t_bytes32,t_bytes32)"
      },
      {
        "astId": 1782,
        "contract": "contracts/TokenManager.sol:TokenManager",
        "label": "groupToExposure",
        "offset": 0,
        "slot": "114",
        "type": "t_mapping(t_bytes32,t_struct(Exposure)1731_storage)"
      },
      {
        "astId": 1788,
        "contract": "contracts/TokenManager.sol:TokenManager",
        "label": "pendingUserExposure",
        "offset": 0,
        "slot": "115",
        "type": "t_mapping(t_address,t_mapping(t_bytes32,t_uint256))"
      },
      {
        "astId": 1792,
        "contract": "contracts/TokenManager.sol:TokenManager",
        "label": "pendingProtocolExposure",
        "offset": 0,
        "slot": "116",
        "type": "t_mapping(t_bytes32,t_uint256)"
      },
      {
        "astId": 1794,
        "contract": "contracts/TokenManager.sol:TokenManager",
        "label": "vPrimeControllerAddress",
        "offset": 0,
        "slot": "117",
        "type": "t_address"
      }
    ],
    "types": {
      "t_address": {
        "encoding": "inplace",
        "label": "address",
        "numberOfBytes": "20"
      },
      "t_array(t_address)dyn_storage": {
        "base": "t_address",
        "encoding": "dynamic_array",
        "label": "address[]",
        "numberOfBytes": "32"
      },
      "t_array(t_bytes32)dyn_storage": {
        "base": "t_bytes32",
        "encoding": "dynamic_array",
        "label": "bytes32[]",
        "numberOfBytes": "32"
      },
      "t_array(t_uint256)49_storage": {
        "base": "t_uint256",
        "encoding": "inplace",
        "label": "uint256[49]",
        "numberOfBytes": "1568"
      },
      "t_array(t_uint256)50_storage": {
        "base": "t_uint256",
        "encoding": "inplace",
        "label": "uint256[50]",
        "numberOfBytes": "1600"
      },
      "t_bool": {
        "encoding": "inplace",
        "label": "bool",
        "numberOfBytes": "1"
      },
      "t_bytes32": {
        "encoding": "inplace",
        "label": "bytes32",
        "numberOfBytes": "32"
      },
      "t_mapping(t_address,t_bytes32)": {
        "encoding": "mapping",
        "key": "t_address",
        "label": "mapping(address => bytes32)",
        "numberOfBytes": "32",
        "value": "t_bytes32"
      },
      "t_mapping(t_address,t_mapping(t_bytes32,t_uint256))": {
        "encoding": "mapping",
        "key": "t_address",
        "label": "mapping(address => mapping(bytes32 => uint256))",
        "numberOfBytes": "32",
        "value": "t_mapping(t_bytes32,t_uint256)"
      },
      "t_mapping(t_address,t_uint256)": {
        "encoding": "mapping",
        "key": "t_address",
        "label": "mapping(address => uint256)",
        "numberOfBytes": "32",
        "value": "t_uint256"
      },
      "t_mapping(t_bytes32,t_bytes32)": {
        "encoding": "mapping",
        "key": "t_bytes32",
        "label": "mapping(bytes32 => bytes32)",
        "numberOfBytes": "32",
        "value": "t_bytes32"
      },
      "t_mapping(t_bytes32,t_struct(Exposure)1731_storage)": {
        "encoding": "mapping",
        "key": "t_bytes32",
        "label": "mapping(bytes32 => struct TokenManager.Exposure)",
        "numberOfBytes": "32",
        "value": "t_struct(Exposure)1731_storage"
      },
      "t_mapping(t_bytes32,t_uint256)": {
        "encoding": "mapping",
        "key": "t_bytes32",
        "label": "mapping(bytes32 => uint256)",
        "numberOfBytes": "32",
        "value": "t_uint256"
      },
      "t_struct(Bytes32Set)1297_storage": {
        "encoding": "inplace",
        "label": "struct EnumerableSet.Bytes32Set",
        "members": [
          {
            "astId": 1296,
            "contract": "contracts/TokenManager.sol:TokenManager",
            "label": "_inner",
            "offset": 0,
            "slot": "0",
            "type": "t_struct(Set)1103_storage"
          }
        ],
        "numberOfBytes": "64"
      },
      "t_struct(Bytes32ToAddressMap)6728_storage": {
        "encoding": "inplace",
        "label": "struct EnumerableMap.Bytes32ToAddressMap",
        "members": [
          {
            "astId": 6727,
            "contract": "contracts/TokenManager.sol:TokenManager",
            "label": "_inner",
            "offset": 0,
            "slot": "0",
            "type": "t_struct(Map)6498_storage"
          }
        ],
        "numberOfBytes": "96"
      },
      "t_struct(Exposure)1731_storage": {
        "encoding": "inplace",
        "label": "struct TokenManager.Exposure",
        "members": [
          {
            "astId": 1728,
            "contract": "contracts/TokenManager.sol:TokenManager",
            "label": "current",
            "offset": 0,
            "slot": "0",
            "type": "t_uint256"
          },
          {
            "astId": 1730,
            "contract": "contracts/TokenManager.sol:TokenManager",
            "label": "max",
            "offset": 0,
            "slot": "1",
            "type": "t_uint256"
          }
        ],
        "numberOfBytes": "64"
      },
      "t_struct(Map)6498_storage": {
        "encoding": "inplace",
        "label": "struct EnumerableMap.Map",
        "members": [
          {
            "astId": 6493,
            "contract": "contracts/TokenManager.sol:TokenManager",
            "label": "_keys",
            "offset": 0,
            "slot": "0",
            "type": "t_struct(Bytes32Set)1297_storage"
          },
          {
            "astId": 6497,
            "contract": "contracts/TokenManager.sol:TokenManager",
            "label": "_values",
            "offset": 0,
            "slot": "2",
            "type": "t_mapping(t_bytes32,t_bytes32)"
          }
        ],
        "numberOfBytes": "96"
      },
      "t_struct(Set)1103_storage": {
        "encoding": "inplace",
        "label": "struct EnumerableSet.Set",
        "members": [
          {
            "astId": 1098,
            "contract": "contracts/TokenManager.sol:TokenManager",
            "label": "_values",
            "offset": 0,
            "slot": "0",
            "type": "t_array(t_bytes32)dyn_storage"
          },
          {
            "astId": 1102,
            "contract": "contracts/TokenManager.sol:TokenManager",
            "label": "_indexes",
            "offset": 0,
            "slot": "1",
            "type": "t_mapping(t_bytes32,t_uint256)"
          }
        ],
        "numberOfBytes": "64"
      },
      "t_uint256": {
        "encoding": "inplace",
        "label": "uint256",
        "numberOfBytes": "32"
      },
      "t_uint8": {
        "encoding": "inplace",
        "label": "uint8",
        "numberOfBytes": "1"
      }
    }
  }
}