{
  "address": "0x8463b7D47cF404c59A7318719fd8625433a823de",
  "abi": [
    {
      "anonymous": false,
      "inputs": [
        {
          "indexed": true,
          "internalType": "address",
          "name": "performer",
          "type": "address"
        },
        {
          "indexed": true,
          "internalType": "bytes32",
          "name": "identifier",
          "type": "bytes32"
        },
        {
          "indexed": true,
          "internalType": "bytes32",
          "name": "exposureGroup",
          "type": "bytes32"
        },
        {
          "indexed": false,
          "internalType": "uint256",
          "name": "timestamp",
          "type": "uint256"
        }
      ],
      "name": "IdentifierToExposureGroupSet",
      "type": "event"
    },
    {
      "anonymous": false,
      "inputs": [
        {
          "indexed": true,
          "internalType": "address",
          "name": "previousOwner",
          "type": "address"
        },
        {
          "indexed": true,
          "internalType": "address",
          "name": "newOwner",
          "type": "address"
        }
      ],
      "name": "OwnershipTransferred",
      "type": "event"
    },
    {
      "anonymous": false,
      "inputs": [
        {
          "indexed": true,
          "internalType": "address",
          "name": "performer",
          "type": "address"
        },
        {
          "indexed": true,
          "internalType": "bytes32",
          "name": "poolAsset",
          "type": "bytes32"
        },
        {
          "indexed": false,
          "internalType": "address",
          "name": "poolAddress",
          "type": "address"
        },
        {
          "indexed": false,
          "internalType": "uint256",
          "name": "timestamp",
          "type": "uint256"
        }
      ],
      "name": "PoolAssetAdded",
      "type": "event"
    },
    {
      "anonymous": false,
      "inputs": [
        {
          "indexed": true,
          "internalType": "address",
          "name": "performer",
          "type": "address"
        },
        {
          "indexed": true,
          "internalType": "bytes32",
          "name": "poolAsset",
          "type": "bytes32"
        },
        {
          "indexed": false,
          "internalType": "address",
          "name": "poolAddress",
          "type": "address"
        },
        {
          "indexed": false,
          "internalType": "uint256",
          "name": "timestamp",
          "type": "uint256"
        }
      ],
      "name": "PoolAssetRemoved",
      "type": "event"
    },
    {
      "anonymous": false,
      "inputs": [
        {
          "indexed": true,
          "internalType": "address",
          "name": "performer",
          "type": "address"
        },
        {
          "indexed": true,
          "internalType": "bytes32",
          "name": "groupIdentifier",
          "type": "bytes32"
        },
        {
          "indexed": false,
          "internalType": "uint256",
          "name": "prevCurrentExposure",
          "type": "uint256"
        },
        {
          "indexed": false,
          "internalType": "uint256",
          "name": "newCurrentExposure",
          "type": "uint256"
        },
        {
          "indexed": false,
          "internalType": "uint256",
          "name": "timestamp",
          "type": "uint256"
        }
      ],
      "name": "ProtocolCurrentExposureSet",
      "type": "event"
    },
    {
      "anonymous": false,
      "inputs": [
        {
          "indexed": true,
          "internalType": "address",
          "name": "performer",
          "type": "address"
        },
        {
          "indexed": true,
          "internalType": "bytes32",
          "name": "identifier",
          "type": "bytes32"
        },
        {
          "indexed": false,
          "internalType": "uint256",
          "name": "newExposure",
          "type": "uint256"
        },
        {
          "indexed": false,
          "internalType": "uint256",
          "name": "timestamp",
          "type": "uint256"
        }
      ],
      "name": "ProtocolExposureChanged",
      "type": "event"
    },
    {
      "anonymous": false,
      "inputs": [
        {
          "indexed": true,
          "internalType": "address",
          "name": "performer",
          "type": "address"
        },
        {
          "indexed": true,
          "internalType": "bytes32",
          "name": "groupIdentifier",
          "type": "bytes32"
        },
        {
          "indexed": false,
          "internalType": "uint256",
          "name": "prevMaxExposure",
          "type": "uint256"
        },
        {
          "indexed": false,
          "internalType": "uint256",
          "name": "newMaxExposure",
          "type": "uint256"
        },
        {
          "indexed": false,
          "internalType": "uint256",
          "name": "currentExposure",
          "type": "uint256"
        },
        {
          "indexed": false,
          "internalType": "uint256",
          "name": "timestamp",
          "type": "uint256"
        }
      ],
      "name": "ProtocolExposureSet",
      "type": "event"
    },
    {
      "anonymous": false,
      "inputs": [
        {
          "indexed": true,
          "internalType": "address",
          "name": "performer",
          "type": "address"
        },
        {
          "indexed": false,
          "internalType": "address",
          "name": "assetAddress",
          "type": "address"
        },
        {
          "indexed": false,
          "internalType": "uint256",
          "name": "timestamp",
          "type": "uint256"
        }
      ],
      "name": "TokenAssetActivated",
      "type": "event"
    },
    {
      "anonymous": false,
      "inputs": [
        {
          "indexed": true,
          "internalType": "address",
          "name": "performer",
          "type": "address"
        },
        {
          "indexed": true,
          "internalType": "bytes32",
          "name": "tokenAsset",
          "type": "bytes32"
        },
        {
          "indexed": false,
          "internalType": "address",
          "name": "assetAddress",
          "type": "address"
        },
        {
          "indexed": false,
          "internalType": "uint256",
          "name": "timestamp",
          "type": "uint256"
        }
      ],
      "name": "TokenAssetAdded",
      "type": "event"
    },
    {
      "anonymous": false,
      "inputs": [
        {
          "indexed": true,
          "internalType": "address",
          "name": "performer",
          "type": "address"
        },
        {
          "indexed": false,
          "internalType": "address",
          "name": "assetAddress",
          "type": "address"
        },
        {
          "indexed": false,
          "internalType": "uint256",
          "name": "timestamp",
          "type": "uint256"
        }
      ],
      "name": "TokenAssetDeactivated",
      "type": "event"
    },
    {
      "anonymous": false,
      "inputs": [
        {
          "indexed": true,
          "internalType": "address",
          "name": "performer",
          "type": "address"
        },
        {
          "indexed": true,
          "internalType": "bytes32",
          "name": "tokenAsset",
          "type": "bytes32"
        },
        {
          "indexed": false,
          "internalType": "uint256",
          "name": "timestamp",
          "type": "uint256"
        }
      ],
      "name": "TokenAssetRemoved",
      "type": "event"
    },
    {
      "inputs": [
        {
          "internalType": "address",
          "name": "token",
          "type": "address"
        }
      ],
      "name": "activateToken",
      "outputs": [],
      "stateMutability": "nonpayable",
      "type": "function"
    },
    {
      "inputs": [
        {
          "components": [
            {
              "internalType": "bytes32",
              "name": "asset",
              "type": "bytes32"
            },
            {
              "internalType": "address",
              "name": "poolAddress",
              "type": "address"
            }
          ],
          "internalType": "struct TokenManager.poolAsset[]",
          "name": "poolAssets",
          "type": "tuple[]"
        }
      ],
      "name": "addPoolAssets",
      "outputs": [],
      "stateMutability": "nonpayable",
      "type": "function"
    },
    {
      "inputs": [
        {
          "components": [
            {
              "internalType": "bytes32",
              "name": "asset",
              "type": "bytes32"
            },
            {
              "internalType": "address",
              "name": "assetAddress",
              "type": "address"
            },
            {
              "internalType": "uint256",
              "name": "debtCoverage",
              "type": "uint256"
            }
          ],
          "internalType": "struct TokenManager.Asset[]",
          "name": "tokenAssets",
          "type": "tuple[]"
        }
      ],
      "name": "addTokenAssets",
      "outputs": [],
      "stateMutability": "nonpayable",
      "type": "function"
    },
    {
      "inputs": [
        {
          "internalType": "address",
          "name": "token",
          "type": "address"
        }
      ],
      "name": "deactivateToken",
      "outputs": [],
      "stateMutability": "nonpayable",
      "type": "function"
    },
    {
      "inputs": [
        {
          "internalType": "address",
          "name": "",
          "type": "address"
        }
      ],
      "name": "debtCoverage",
      "outputs": [
        {
          "internalType": "uint256",
          "name": "",
          "type": "uint256"
        }
      ],
      "stateMutability": "view",
      "type": "function"
    },
    {
      "inputs": [
        {
          "internalType": "bytes32",
          "name": "",
          "type": "bytes32"
        }
      ],
      "name": "debtCoverageStaked",
      "outputs": [
        {
          "internalType": "uint256",
          "name": "",
          "type": "uint256"
        }
      ],
      "stateMutability": "view",
      "type": "function"
    },
    {
      "inputs": [
        {
          "internalType": "bytes32",
          "name": "assetIdentifier",
          "type": "bytes32"
        },
        {
          "internalType": "uint256",
          "name": "exposureDecrease",
          "type": "uint256"
        }
      ],
      "name": "decreaseProtocolExposure",
      "outputs": [],
      "stateMutability": "nonpayable",
      "type": "function"
    },
    {
      "inputs": [],
      "name": "getAllPoolAssets",
      "outputs": [
        {
          "internalType": "bytes32[]",
          "name": "result",
          "type": "bytes32[]"
        }
      ],
      "stateMutability": "view",
      "type": "function"
    },
    {
      "inputs": [],
      "name": "getAllTokenAssets",
      "outputs": [
        {
          "internalType": "bytes32[]",
          "name": "result",
          "type": "bytes32[]"
        }
      ],
      "stateMutability": "view",
      "type": "function"
    },
    {
      "inputs": [
        {
          "internalType": "bytes32",
          "name": "_asset",
          "type": "bytes32"
        },
        {
          "internalType": "bool",
          "name": "allowInactive",
          "type": "bool"
        }
      ],
      "name": "getAssetAddress",
      "outputs": [
        {
          "internalType": "address",
          "name": "",
          "type": "address"
        }
      ],
      "stateMutability": "view",
      "type": "function"
    },
    {
      "inputs": [
        {
          "internalType": "bytes32",
          "name": "_asset",
          "type": "bytes32"
        }
      ],
      "name": "getPoolAddress",
      "outputs": [
        {
          "internalType": "address",
          "name": "",
          "type": "address"
        }
      ],
      "stateMutability": "view",
      "type": "function"
    },
    {
      "inputs": [],
      "name": "getSmartLoansFactoryAddress",
      "outputs": [
        {
          "internalType": "address",
          "name": "",
          "type": "address"
        }
      ],
      "stateMutability": "view",
      "type": "function"
    },
    {
      "inputs": [],
      "name": "getSupportedTokensAddresses",
      "outputs": [
        {
          "internalType": "address[]",
          "name": "",
          "type": "address[]"
        }
      ],
      "stateMutability": "view",
      "type": "function"
    },
    {
      "inputs": [
        {
          "internalType": "bytes32",
          "name": "",
          "type": "bytes32"
        }
      ],
      "name": "groupToExposure",
      "outputs": [
        {
          "internalType": "uint256",
          "name": "current",
          "type": "uint256"
        },
        {
          "internalType": "uint256",
          "name": "max",
          "type": "uint256"
        }
      ],
      "stateMutability": "view",
      "type": "function"
    },
    {
      "inputs": [
        {
          "internalType": "bytes32",
          "name": "",
          "type": "bytes32"
        }
      ],
      "name": "identifierToExposureGroup",
      "outputs": [
        {
          "internalType": "bytes32",
          "name": "",
          "type": "bytes32"
        }
      ],
      "stateMutability": "view",
      "type": "function"
    },
    {
      "inputs": [
        {
          "internalType": "bytes32",
          "name": "assetIdentifier",
          "type": "bytes32"
        },
        {
          "internalType": "uint256",
          "name": "exposureIncrease",
          "type": "uint256"
        }
      ],
      "name": "increaseProtocolExposure",
      "outputs": [],
      "stateMutability": "nonpayable",
      "type": "function"
    },
    {
      "inputs": [
        {
          "components": [
            {
              "internalType": "bytes32",
              "name": "asset",
              "type": "bytes32"
            },
            {
              "internalType": "address",
              "name": "assetAddress",
              "type": "address"
            },
            {
              "internalType": "uint256",
              "name": "debtCoverage",
              "type": "uint256"
            }
          ],
          "internalType": "struct TokenManager.Asset[]",
          "name": "tokenAssets",
          "type": "tuple[]"
        },
        {
          "components": [
            {
              "internalType": "bytes32",
              "name": "asset",
              "type": "bytes32"
            },
            {
              "internalType": "address",
              "name": "poolAddress",
              "type": "address"
            }
          ],
          "internalType": "struct TokenManager.poolAsset[]",
          "name": "poolAssets",
          "type": "tuple[]"
        }
      ],
      "name": "initialize",
      "outputs": [],
      "stateMutability": "nonpayable",
      "type": "function"
    },
    {
      "inputs": [
        {
          "internalType": "address",
          "name": "token",
          "type": "address"
        }
      ],
      "name": "isTokenAssetActive",
      "outputs": [
        {
          "internalType": "bool",
          "name": "",
          "type": "bool"
        }
      ],
      "stateMutability": "view",
      "type": "function"
    },
    {
      "inputs": [],
      "name": "owner",
      "outputs": [
        {
          "internalType": "address",
          "name": "",
          "type": "address"
        }
      ],
      "stateMutability": "view",
      "type": "function"
    },
    {
      "inputs": [
        {
          "internalType": "bytes32[]",
          "name": "_poolAssets",
          "type": "bytes32[]"
        }
      ],
      "name": "removePoolAssets",
      "outputs": [],
      "stateMutability": "nonpayable",
      "type": "function"
    },
    {
      "inputs": [
        {
          "internalType": "bytes32[]",
          "name": "_tokenAssets",
          "type": "bytes32[]"
        }
      ],
      "name": "removeTokenAssets",
      "outputs": [],
      "stateMutability": "nonpayable",
      "type": "function"
    },
    {
      "inputs": [],
      "name": "renounceOwnership",
      "outputs": [],
      "stateMutability": "nonpayable",
      "type": "function"
    },
    {
      "inputs": [
        {
          "internalType": "bytes32[]",
          "name": "groupIdentifiers",
          "type": "bytes32[]"
        },
        {
          "internalType": "uint256[]",
          "name": "currentExposures",
          "type": "uint256[]"
        }
      ],
      "name": "setCurrentProtocolExposure",
      "outputs": [],
      "stateMutability": "nonpayable",
      "type": "function"
    },
    {
      "inputs": [
        {
          "internalType": "address",
          "name": "token",
          "type": "address"
        },
        {
          "internalType": "uint256",
          "name": "coverage",
          "type": "uint256"
        }
      ],
      "name": "setDebtCoverage",
      "outputs": [],
      "stateMutability": "nonpayable",
      "type": "function"
    },
    {
      "inputs": [
        {
          "internalType": "bytes32",
          "name": "stakedAsset",
          "type": "bytes32"
        },
        {
          "internalType": "uint256",
          "name": "coverage",
          "type": "uint256"
        }
      ],
      "name": "setDebtCoverageStaked",
      "outputs": [],
      "stateMutability": "nonpayable",
      "type": "function"
    },
    {
      "inputs": [
        {
          "internalType": "bytes32[]",
          "name": "identifiers",
          "type": "bytes32[]"
        },
        {
          "internalType": "bytes32[]",
          "name": "exposureGroups",
          "type": "bytes32[]"
        }
      ],
      "name": "setIdentifiersToExposureGroups",
      "outputs": [],
      "stateMutability": "nonpayable",
      "type": "function"
    },
    {
      "inputs": [
        {
          "internalType": "bytes32[]",
          "name": "groupIdentifiers",
          "type": "bytes32[]"
        },
        {
          "internalType": "uint256[]",
          "name": "maxExposures",
          "type": "uint256[]"
        }
      ],
      "name": "setMaxProtocolsExposure",
      "outputs": [],
      "stateMutability": "nonpayable",
      "type": "function"
    },
    {
      "inputs": [
        {
          "internalType": "uint256",
          "name": "",
          "type": "uint256"
        }
      ],
      "name": "supportedTokensList",
      "outputs": [
        {
          "internalType": "address",
          "name": "",
          "type": "address"
        }
      ],
      "stateMutability": "view",
      "type": "function"
    },
    {
      "inputs": [
        {
          "internalType": "address",
          "name": "",
          "type": "address"
        }
      ],
      "name": "tokenAddressToSymbol",
      "outputs": [
        {
          "internalType": "bytes32",
          "name": "",
          "type": "bytes32"
        }
      ],
      "stateMutability": "view",
      "type": "function"
    },
    {
      "inputs": [
        {
          "internalType": "address",
          "name": "",
          "type": "address"
        }
      ],
      "name": "tokenToStatus",
      "outputs": [
        {
          "internalType": "uint256",
          "name": "",
          "type": "uint256"
        }
      ],
      "stateMutability": "view",
      "type": "function"
    },
    {
      "inputs": [
        {
          "internalType": "address",
          "name": "newOwner",
          "type": "address"
        }
      ],
      "name": "transferOwnership",
      "outputs": [],
      "stateMutability": "nonpayable",
      "type": "function"
    }
  ],
  "transactionHash": "0xcaeea6ba050d2e364915f147674fa8cf28bb023a98de0900b46f805440317996",
  "args": [],
  "numDeployments": 2,
  "solcInputHash": "f4eb301990cf190107ecf86dc0ace825",
  "bytecode": "0x608060405234801561001057600080fd5b506123f3806100206000396000f3fe608060405234801561001057600080fd5b50600436106101e55760003560e01c8063762b887a1161010f578063d1bc0831116100a2578063f38555aa11610071578063f38555aa14610460578063f823f1e014610473578063fda4963b14610493578063fff3d39a146104a657600080fd5b8063d1bc083114610407578063e0117bdd1461041a578063ecfc19a01461043a578063f2fde38b1461044d57600080fd5b8063a2d27933116100de578063a2d27933146103bb578063adfe6a0f146103ce578063c3cc6c7a146103e1578063d195f047146103f457600080fd5b8063762b887a1461037c578063869c490d1461038f5780638ce76c05146103975780638da5cb5b146103aa57600080fd5b8063326c2e971161018757806366273c191161015657806366273c191461033457806368173bcf146103495780636953c06c1461035c578063715018a6146101fd57600080fd5b8063326c2e971461029757806335923e03146102c55780633f8ef5c81461030157806363c918771461032157600080fd5b806321f88097116101c357806321f880971461024257806325eb876f146102575780632caeffe21461026a57806331e7866c1461028457600080fd5b806303223bb4146101ea5780630d1ce2d2146101ff5780630edc25b614610212575b600080fd5b6101fd6101f8366004611ce6565b6104e2565b005b6101fd61020d366004611d66565b61061a565b610225610220366004611d81565b6106fa565b6040516001600160a01b0390911681526020015b60405180910390f35b61024a610767565b6040516102399190611d9a565b610225610265366004611df5565b6107c9565b73ff5e3ddaeff411a1dc6cce00014e4bca39265c20610225565b6101fd610292366004611e25565b61088c565b6102b76102a5366004611d81565b60716020526000908152604090205481565b604051908152602001610239565b6102f16102d3366004611d66565b6001600160a01b03166000908152606f602052604090205460021490565b6040519015158152602001610239565b6102b761030f366004611d81565b60706020526000908152604090205481565b61022561032f366004611d81565b6108fa565b61033c610924565b6040516102399190611e4f565b6101fd610357366004611d66565b61097a565b6102b761036a366004611d66565b606d6020526000908152604090205481565b6101fd61038a366004611fa8565b610a53565b61033c610b27565b6101fd6103a5366004612002565b610b7c565b6033546001600160a01b0316610225565b6101fd6103c93660046120bd565b610c21565b6101fd6103dc3660046120f2565b610ccf565b6101fd6103ef3660046120f2565b610e15565b6101fd610402366004612002565b610f9c565b6101fd610415366004612114565b611041565b6102b7610428366004611d66565b606f6020526000908152604090205481565b6101fd6104483660046120f2565b6110ab565b6101fd61045b366004611d66565b61110f565b6101fd61046e366004612149565b6111aa565b6102b7610481366004611d66565b606b6020526000908152604090205481565b6101fd6104a1366004612114565b611236565b6104cd6104b4366004611d81565b6072602052600090815260409020805460019091015482565b60408051928352602083019190915201610239565b6033546001600160a01b031633146105155760405162461bcd60e51b815260040161050c9061217e565b60405180910390fd5b80518251146105365760405162461bcd60e51b815260040161050c906121b3565b60005b825181101561061557818181518110610554576105546121ea565b602002602001015160716000858481518110610572576105726121ea565b602002602001015181526020019081526020016000208190555081818151811061059e5761059e6121ea565b60200260200101518382815181106105b8576105b86121ea565b6020026020010151336001600160a01b03167f6185e65460908e4de770553685b03f20921bc24a081923fc2ca1f0ba7d18cd5f426040516105fb91815260200190565b60405180910390a48061060d81612216565b915050610539565b505050565b6033546001600160a01b031633146106445760405162461bcd60e51b815260040161050c9061217e565b6001600160a01b0381166000908152606f602052604090205460011461069f5760405162461bcd60e51b815260206004820152601060248201526f4d75737420626520696e61637469766560801b604482015260640161050c565b6001600160a01b0381166000818152606f6020908152604091829020600290558151928352429083015233917febd9f0d5b5df9f4d5180bbeec65fda8d99982e273d2a7365431b2a869aa826d491015b60405180910390a250565b6000806107086065846112a0565b9150506001600160a01b0381166107615760405162461bcd60e51b815260206004820152601960248201527f506f6f6c206173736574206e6f7420737570706f727465642e00000000000000604482015260640161050c565b92915050565b6060606e8054806020026020016040519081016040528092919081815260200182805480156107bf57602002820191906000526020600020905b81546001600160a01b031681526001909101906020018083116107a1575b5050505050905090565b6000806107d76068856112a0565b9150506001600160a01b0381166108275760405162461bcd60e51b815260206004820152601460248201527320b9b9b2ba103737ba1039bab83837b93a32b21760611b604482015260640161050c565b82610885576001600160a01b0381166000908152606f60205260409020546002146108855760405162461bcd60e51b815260206004820152600e60248201526d417373657420696e61637469766560901b604482015260640161050c565b9392505050565b6033546001600160a01b031633146108b65760405162461bcd60e51b815260040161050c9061217e565b670b90984060d355558111156108de5760405162461bcd60e51b815260040161050c9061222f565b6001600160a01b039091166000908152606d6020526040902055565b606e818154811061090a57600080fd5b6000918252602090912001546001600160a01b0316905081565b6065805460408051602080840282018101909252828152606093909290918301828280156107bf57602002820191906000526020600020905b81548152602001906001019080831161095d575050505050905090565b6033546001600160a01b031633146109a45760405162461bcd60e51b815260040161050c9061217e565b6001600160a01b0381166000908152606f60205260409020546002146109fd5760405162461bcd60e51b815260206004820152600e60248201526d4d7573742062652061637469766560901b604482015260640161050c565b6001600160a01b0381166000818152606f6020908152604091829020600190558151928352429083015233917fbf0b0e2d837fddaee4742e91f53ca36bac9fdebdd571738027abb2b5f7c9a2f091016106ef565b565b600054610100900460ff16610a6e5760005460ff1615610a72565b303b155b610ad55760405162461bcd60e51b815260206004820152602e60248201527f496e697469616c697a61626c653a20636f6e747261637420697320616c72656160448201526d191e481a5b9a5d1a585b1a5e995960921b606482015260840161050c565b600054610100900460ff16158015610af7576000805461ffff19166101011790555b610aff6112be565b610b0883610c21565b610b11826111aa565b8015610615576000805461ff0019169055505050565b6068805460408051602080840282018101909252828152606093909290918301828280156107bf576020028201919060005260206000209081548152602001906001019080831161095d575050505050905090565b6033546001600160a01b03163314610ba65760405162461bcd60e51b815260040161050c9061217e565b8051825114610bc75760405162461bcd60e51b815260040161050c906121b3565b60005b825181101561061557610c0f838281518110610be857610be86121ea565b6020026020010151838381518110610c0257610c026121ea565b60200260200101516112ed565b80610c1981612216565b915050610bca565b6033546001600160a01b03163314610c4b5760405162461bcd60e51b815260040161050c9061217e565b60005b8151811015610ccb57610cb9828281518110610c6c57610c6c6121ea565b602002602001015160000151838381518110610c8a57610c8a6121ea565b602002602001015160200151848481518110610ca857610ca86121ea565b60200260200101516040015161136f565b80610cc381612216565b915050610c4e565b5050565b600073ff5e3ddaeff411a1dc6cce00014e4bca39265c2060405163039ff21960e21b81523360048201529091506001600160a01b03821690630e7fc86490602401602060405180830381865afa158015610d2d573d6000803e3d6000fd5b505050506040513d601f19601f82011682018060405250810190610d51919061227b565b80610d6657506033546001600160a01b031633145b610d825760405162461bcd60e51b815260040161050c90612298565b6000838152607160205260409020548015610e0f576000818152607260205260409020600181015415610e0d578054841015610dca578054610dc59085906122f5565b610dcd565b60005b815560408051858152426020820152839133917f45262a952f63661e3b881eb82a0d0bd391ab35692bd26023356b06e452230d4391015b60405180910390a35b505b50505050565b600073ff5e3ddaeff411a1dc6cce00014e4bca39265c2060405163039ff21960e21b81523360048201529091506001600160a01b03821690630e7fc86490602401602060405180830381865afa158015610e73573d6000803e3d6000fd5b505050506040513d601f19601f82011682018060405250810190610e97919061227b565b80610eac57506033546001600160a01b031633145b610ec85760405162461bcd60e51b815260040161050c90612298565b6000838152607160205260409020548015610e0f576000818152607260205260409020600181015415610e0d5783816000016000828254610f099190612308565b9091555050600181015481541115610f635760405162461bcd60e51b815260206004820152601b60248201527f4d6178206173736574206578706f737572652062726561636865640000000000604482015260640161050c565b60408051858152426020820152839133917f45262a952f63661e3b881eb82a0d0bd391ab35692bd26023356b06e452230d439101610e04565b6033546001600160a01b03163314610fc65760405162461bcd60e51b815260040161050c9061217e565b8051825114610fe75760405162461bcd60e51b815260040161050c906121b3565b60005b82518110156106155761102f838281518110611008576110086121ea565b6020026020010151838381518110611022576110226121ea565b602002602001015161158b565b8061103981612216565b915050610fea565b6033546001600160a01b0316331461106b5760405162461bcd60e51b815260040161050c9061217e565b60005b8151811015610ccb5761109982828151811061108c5761108c6121ea565b602002602001015161160f565b806110a381612216565b91505061106e565b6033546001600160a01b031633146110d55760405162461bcd60e51b815260040161050c9061217e565b670b90984060d355558111156110fd5760405162461bcd60e51b815260040161050c9061222f565b60009182526070602052604090912055565b6033546001600160a01b031633146111395760405162461bcd60e51b815260040161050c9061217e565b6001600160a01b03811661119e5760405162461bcd60e51b815260206004820152602660248201527f4f776e61626c653a206e6577206f776e657220697320746865207a65726f206160448201526564647265737360d01b606482015260840161050c565b6111a78161169f565b50565b6033546001600160a01b031633146111d45760405162461bcd60e51b815260040161050c9061217e565b60005b8151811015610ccb576112248282815181106111f5576111f56121ea565b602002602001015160000151838381518110611213576112136121ea565b6020026020010151602001516116f1565b8061122e81612216565b9150506111d7565b6033546001600160a01b031633146112605760405162461bcd60e51b815260040161050c9061217e565b60005b8151811015610ccb5761128e828281518110611281576112816121ea565b60200260200101516117fd565b8061129881612216565b915050611263565b60008080806112af8686611858565b909450925050505b9250929050565b600054610100900460ff166112e55760405162461bcd60e51b815260040161050c9061231b565b610a51611892565b8160000361130d5760405162461bcd60e51b815260040161050c90612366565b60008281526072602090815260409182902080549084905582518181529182018490524292820192909252839033907f073dc16e9ad72465ac9c9d5249ac0b1ba512ca440e461ff67a34c38e29c3413e906060015b60405180910390a3505050565b8260000361138f5760405162461bcd60e51b815260040161050c90612366565b6001600160a01b0382166113e55760405162461bcd60e51b815260206004820152601c60248201527f43616e6e6f742073657420616e20656d70747920616464726573732e00000000604482015260640161050c565b6113f06068846118c2565b1561143d5760405162461bcd60e51b815260206004820152601c60248201527f4173736574277320746f6b656e20616c72656164792065786973747300000000604482015260640161050c565b6001600160a01b0382166000908152606b6020526040902054156114a35760405162461bcd60e51b815260206004820152601f60248201527f4173736574206164647265737320697320616c726561647920696e2075736500604482015260640161050c565b6114ad828261088c565b6114b9606884846118ce565b506001600160a01b0382166000818152606b60209081526040808320879055606f909152812060029055606e805460018181018355928290527f9930d9ff0dee0ef5ca2f7710ea66b8f84dd0f5f5351ecffe72b952cd9db7142a0180546001600160a01b031916909317909255905461153291906122f5565b6001600160a01b0383166000818152606c60209081526040918290209390935580519182524292820192909252849133917ff73be6b27198eab18ec5fe07c2d7b2fbf4f05ffa1a05c94ca202531d7aa8c5b69101611362565b816000036115ab5760405162461bcd60e51b815260040161050c90612366565b600082815260726020908152604091829020600181018054908590559054835182815292830185905292820192909252426060820152839033907f4e3db1a563ebfee7c496974d792038536dc8311892551dc36d19116131e3dd3c90608001611362565b600061161c8260016107c9565b90506116296068836118ec565b506001600160a01b0381166000908152606b60209081526040808320839055606f8252808320839055606d909152812055611663816118f8565b604051428152829033907f228e158b51be6445b7bd2f4121209717a371d44c7c53d4085ae7f5e496153a93906020015b60405180910390a35050565b603380546001600160a01b038381166001600160a01b0319831681179093556040519116919082907f8be0079c531659141344cd1fd0a4f28419497f9722a3daafe3b4186f6b6457e090600090a35050565b6001600160a01b0381163b6117565760405162461bcd60e51b815260206004820152602560248201527f546f6b656e4d616e616765723a20506f6f6c206d757374206265206120636f6e6044820152641d1c9858dd60da1b606482015260840161050c565b6117616065836118c2565b156117ae5760405162461bcd60e51b815260206004820152601b60248201527f4173736574277320706f6f6c20616c7265616479206578697374730000000000604482015260640161050c565b6117ba606583836118ce565b50604080516001600160a01b0383168152426020820152839133917fcfbf9a4f33420379df003923a1d986358bb97d4b3455baae186db1d5d35cda3e9101611693565b6000611808826106fa565b90506118156065836118ec565b50604080516001600160a01b0383168152426020820152839133917ff658b7b16fbc2f0f51a3320cc57763ccd8d13f554c4eb34ff0f5b49624b32e839101611693565b60008181526002830160205260408120548190806118875761187a8585611a0c565b9250600091506112b79050565b6001925090506112b7565b600054610100900460ff166118b95760405162461bcd60e51b815260040161050c9061231b565b610a513361169f565b60006108858383611a0c565b60006118e484846001600160a01b038516611a18565b949350505050565b60006108858383611a35565b6001600160a01b0381166000908152606c6020526040902054606e54611920906001906122f5565b81146119ba57606e80546000919061193a906001906122f5565b8154811061194a5761194a6121ea565b60009182526020808320909101546001600160a01b0316808352606c9091526040909120839055606e805491925082918490811061198a5761198a6121ea565b9060005260206000200160006101000a8154816001600160a01b0302191690836001600160a01b03160217905550505b606e8054806119cb576119cb6123a7565b60008281526020808220830160001990810180546001600160a01b03191690559092019092556001600160a01b03939093168152606c909252506040812055565b60006108858383611a52565b600082815260028401602052604081208290556118e48484611a6a565b600081815260028301602052604081208190556108858383611a76565b60008181526001830160205260408120541515610885565b60006108858383611a82565b60006108858383611ad1565b6000818152600183016020526040812054611ac957508154600181810184556000848152602080822090930184905584548482528286019093526040902091909155610761565b506000610761565b60008181526001830160205260408120548015611bba576000611af56001836122f5565b8554909150600090611b09906001906122f5565b9050818114611b6e576000866000018281548110611b2957611b296121ea565b9060005260206000200154905080876000018481548110611b4c57611b4c6121ea565b6000918252602080832090910192909255918252600188019052604090208390555b8554869080611b7f57611b7f6123a7565b600190038181906000526020600020016000905590558560010160008681526020019081526020016000206000905560019350505050610761565b6000915050610761565b634e487b7160e01b600052604160045260246000fd5b6040516060810167ffffffffffffffff81118282101715611bfd57611bfd611bc4565b60405290565b6040805190810167ffffffffffffffff81118282101715611bfd57611bfd611bc4565b604051601f8201601f1916810167ffffffffffffffff81118282101715611c4f57611c4f611bc4565b604052919050565b600067ffffffffffffffff821115611c7157611c71611bc4565b5060051b60200190565b600082601f830112611c8c57600080fd5b81356020611ca1611c9c83611c57565b611c26565b82815260059290921b84018101918181019086841115611cc057600080fd5b8286015b84811015611cdb5780358352918301918301611cc4565b509695505050505050565b60008060408385031215611cf957600080fd5b823567ffffffffffffffff80821115611d1157600080fd5b611d1d86838701611c7b565b93506020850135915080821115611d3357600080fd5b50611d4085828601611c7b565b9150509250929050565b80356001600160a01b0381168114611d6157600080fd5b919050565b600060208284031215611d7857600080fd5b61088582611d4a565b600060208284031215611d9357600080fd5b5035919050565b6020808252825182820181905260009190848201906040850190845b81811015611ddb5783516001600160a01b031683529284019291840191600101611db6565b50909695505050505050565b80151581146111a757600080fd5b60008060408385031215611e0857600080fd5b823591506020830135611e1a81611de7565b809150509250929050565b60008060408385031215611e3857600080fd5b611e4183611d4a565b946020939093013593505050565b6020808252825182820181905260009190848201906040850190845b81811015611ddb57835183529284019291840191600101611e6b565b600082601f830112611e9857600080fd5b81356020611ea8611c9c83611c57565b82815260609283028501820192828201919087851115611ec757600080fd5b8387015b85811015611f155781818a031215611ee35760008081fd5b611eeb611bda565b81358152611efa868301611d4a565b81870152604082810135908201528452928401928101611ecb565b5090979650505050505050565b600082601f830112611f3357600080fd5b81356020611f43611c9c83611c57565b82815260069290921b84018101918181019086841115611f6257600080fd5b8286015b84811015611cdb5760408189031215611f7f5760008081fd5b611f87611c03565b81358152611f96858301611d4a565b81860152835291830191604001611f66565b60008060408385031215611fbb57600080fd5b823567ffffffffffffffff80821115611fd357600080fd5b611fdf86838701611e87565b93506020850135915080821115611ff557600080fd5b50611d4085828601611f22565b6000806040838503121561201557600080fd5b823567ffffffffffffffff8082111561202d57600080fd5b61203986838701611c7b565b935060209150818501358181111561205057600080fd5b85019050601f8101861361206357600080fd5b8035612071611c9c82611c57565b81815260059190911b8201830190838101908883111561209057600080fd5b928401925b828410156120ae57833582529284019290840190612095565b80955050505050509250929050565b6000602082840312156120cf57600080fd5b813567ffffffffffffffff8111156120e657600080fd5b6118e484828501611e87565b6000806040838503121561210557600080fd5b50508035926020909101359150565b60006020828403121561212657600080fd5b813567ffffffffffffffff81111561213d57600080fd5b6118e484828501611c7b565b60006020828403121561215b57600080fd5b813567ffffffffffffffff81111561217257600080fd5b6118e484828501611f22565b6020808252818101527f4f776e61626c653a2063616c6c6572206973206e6f7420746865206f776e6572604082015260600190565b60208082526017908201527f417272617973206c656e67746873206d69736d61746368000000000000000000604082015260600190565b634e487b7160e01b600052603260045260246000fd5b634e487b7160e01b600052601160045260246000fd5b60006001820161222857612228612200565b5060010190565b6020808252602c908201527f4465627420636f76657261676520686967686572207468616e206d6178696d7560408201526b6d2061636365707461626c6560a01b606082015260800190565b60006020828403121561228d57600080fd5b815161088581611de7565b60208082526037908201527f4f6e6c79205072696d654163636f756e74206f72206f776e65722063616e206360408201527f68616e67652070726f746f636f6c206578706f73757265000000000000000000606082015260800190565b8181038181111561076157610761612200565b8082018082111561076157610761612200565b6020808252602b908201527f496e697469616c697a61626c653a20636f6e7472616374206973206e6f74206960408201526a6e697469616c697a696e6760a81b606082015260800190565b60208082526021908201527f43616e6e6f742073657420616e20656d70747920737472696e672061737365746040820152601760f91b606082015260800190565b634e487b7160e01b600052603160045260246000fdfea26469706673582212208fc8a4610d384744f54f494787bf119ec504541c8fceefa0eacd2f03fb91352064736f6c63430008110033",
  "devdoc": {
    "events": {
      "IdentifierToExposureGroupSet(address,bytes32,bytes32,uint256)": {
        "details": "emitted after associating identifier with a exposure group",
        "params": {
          "exposureGroup": "exposure group identifier",
          "identifier": "asset identifier",
          "performer": "an address of the wallet setting max exposure",
          "timestamp": "time of associating identifier with a exposure group*"
        }
      },
      "PoolAssetAdded(address,bytes32,address,uint256)": {
        "details": "emitted after adding a pool asset",
        "params": {
          "performer": "an address of wallet adding the pool asset",
          "poolAddress": "an address of the pool asset",
          "poolAsset": "pool asset",
          "timestamp": "time of the pool asset addition*"
        }
      },
      "PoolAssetRemoved(address,bytes32,address,uint256)": {
        "details": "emitted after removing a pool asset",
        "params": {
          "performer": "an address of wallet removing the pool asset",
          "poolAddress": "an address of the pool asset",
          "poolAsset": "pool asset",
          "timestamp": "time of a pool asset removal*"
        }
      },
      "ProtocolCurrentExposureSet(address,bytes32,uint256,uint256,uint256)": {
        "details": "emitted after setting max exposure for a given protocol.",
        "params": {
          "groupIdentifier": "exposure group identifier",
          "newCurrentExposure": "new max protocol exposure",
          "performer": "an address of the wallet setting max exposure",
          "prevCurrentExposure": "previous max protocol exposure",
          "timestamp": "time of setting max exposure*"
        }
      },
      "ProtocolExposureChanged(address,bytes32,uint256,uint256)": {
        "details": "emitted after changing current protocol exposure",
        "params": {
          "identifier": "group identifier",
          "newExposure": "new current protocol exposure",
          "performer": "an address of the wallet changing the exposure",
          "timestamp": "time of associating identifier with a exposure group*"
        }
      },
      "ProtocolExposureSet(address,bytes32,uint256,uint256,uint256,uint256)": {
        "details": "emitted after setting max exposure for a given protocol.",
        "params": {
          "currentExposure": "current protocol exposure",
          "groupIdentifier": "exposure group identifier",
          "newMaxExposure": "new max protocol exposure",
          "performer": "an address of the wallet setting max exposure",
          "prevMaxExposure": "previous max protocol exposure",
          "timestamp": "time of setting max exposure*"
        }
      },
      "TokenAssetActivated(address,address,uint256)": {
        "details": "emitted after activating a token asset",
        "params": {
          "assetAddress": "an address of the token asset",
          "performer": "an address of the wallet activating a token asset",
          "timestamp": "time of activating a token asset*"
        }
      },
      "TokenAssetAdded(address,bytes32,address,uint256)": {
        "details": "emitted after adding a token asset",
        "params": {
          "assetAddress": "an address of the token asset",
          "performer": "an address of the wallet adding a token asset",
          "timestamp": "time of adding a token asset*",
          "tokenAsset": "token asset"
        }
      },
      "TokenAssetDeactivated(address,address,uint256)": {
        "details": "emitted after deactivating a token asset",
        "params": {
          "assetAddress": "an address of the token asset",
          "performer": "an address of the wallet deactivating a token asset",
          "timestamp": "time of deactivating a token asset*"
        }
      },
      "TokenAssetRemoved(address,bytes32,uint256)": {
        "details": "emitted after removing a token asset",
        "params": {
          "performer": "an address of the wallet removing a token asset",
          "timestamp": "time a token asset removal*",
          "tokenAsset": "token asset"
        }
      }
    },
    "kind": "dev",
    "methods": {
      "owner()": {
        "details": "Returns the address of the current owner."
      },
      "renounceOwnership()": {
        "details": "Leaves the contract without owner. It will not be possible to call `onlyOwner` functions anymore. Can only be called by the current owner. NOTE: Renouncing ownership will leave the contract without an owner, thereby removing any functionality that is only available to the owner."
      },
      "transferOwnership(address)": {
        "details": "Transfers ownership of the contract to a new account (`newOwner`). Can only be called by the current owner."
      }
    },
    "version": 1
  },
  "userdoc": {
    "kind": "user",
    "methods": {
      "getAssetAddress(bytes32,bool)": {
        "notice": "Returns address of an asset*"
      },
      "getPoolAddress(bytes32)": {
        "notice": "Returns address of an asset's lending pool*"
      }
    },
    "version": 1
  },
  "storageLayout": {
    "storage": [
      {
        "astId": 130,
        "contract": "contracts/TokenManager.sol:TokenManager",
        "label": "_initialized",
        "offset": 0,
        "slot": "0",
        "type": "t_bool"
      },
      {
        "astId": 133,
        "contract": "contracts/TokenManager.sol:TokenManager",
        "label": "_initializing",
        "offset": 1,
        "slot": "0",
        "type": "t_bool"
      },
      {
        "astId": 481,
        "contract": "contracts/TokenManager.sol:TokenManager",
        "label": "__gap",
        "offset": 0,
        "slot": "1",
        "type": "t_array(t_uint256)50_storage"
      },
      {
        "astId": 10,
        "contract": "contracts/TokenManager.sol:TokenManager",
        "label": "_owner",
        "offset": 0,
        "slot": "51",
        "type": "t_address"
      },
      {
        "astId": 122,
        "contract": "contracts/TokenManager.sol:TokenManager",
        "label": "__gap",
        "offset": 0,
        "slot": "52",
        "type": "t_array(t_uint256)49_storage"
      },
      {
        "astId": 1417,
        "contract": "contracts/TokenManager.sol:TokenManager",
        "label": "assetToPoolAddress",
        "offset": 0,
        "slot": "101",
        "type": "t_struct(Bytes32ToAddressMap)2861_storage"
      },
      {
        "astId": 1420,
        "contract": "contracts/TokenManager.sol:TokenManager",
        "label": "assetToTokenAddress",
        "offset": 0,
        "slot": "104",
        "type": "t_struct(Bytes32ToAddressMap)2861_storage"
      },
      {
        "astId": 1424,
        "contract": "contracts/TokenManager.sol:TokenManager",
        "label": "tokenAddressToSymbol",
        "offset": 0,
        "slot": "107",
        "type": "t_mapping(t_address,t_bytes32)"
      },
      {
        "astId": 1428,
        "contract": "contracts/TokenManager.sol:TokenManager",
        "label": "tokenPositionInList",
        "offset": 0,
        "slot": "108",
        "type": "t_mapping(t_address,t_uint256)"
      },
      {
        "astId": 1432,
        "contract": "contracts/TokenManager.sol:TokenManager",
        "label": "debtCoverage",
        "offset": 0,
        "slot": "109",
        "type": "t_mapping(t_address,t_uint256)"
      },
      {
        "astId": 1435,
        "contract": "contracts/TokenManager.sol:TokenManager",
        "label": "supportedTokensList",
        "offset": 0,
        "slot": "110",
        "type": "t_array(t_address)dyn_storage"
      },
      {
        "astId": 1439,
        "contract": "contracts/TokenManager.sol:TokenManager",
        "label": "tokenToStatus",
        "offset": 0,
        "slot": "111",
        "type": "t_mapping(t_address,t_uint256)"
      },
      {
        "astId": 1443,
        "contract": "contracts/TokenManager.sol:TokenManager",
        "label": "debtCoverageStaked",
        "offset": 0,
        "slot": "112",
        "type": "t_mapping(t_bytes32,t_uint256)"
      },
      {
        "astId": 1447,
        "contract": "contracts/TokenManager.sol:TokenManager",
        "label": "identifierToExposureGroup",
        "offset": 0,
        "slot": "113",
        "type": "t_mapping(t_bytes32,t_bytes32)"
      },
      {
        "astId": 1452,
        "contract": "contracts/TokenManager.sol:TokenManager",
        "label": "groupToExposure",
        "offset": 0,
        "slot": "114",
        "type": "t_mapping(t_bytes32,t_struct(Exposure)1401_storage)"
      }
    ],
    "types": {
      "t_address": {
        "encoding": "inplace",
        "label": "address",
        "numberOfBytes": "20"
      },
      "t_array(t_address)dyn_storage": {
        "base": "t_address",
        "encoding": "dynamic_array",
        "label": "address[]",
        "numberOfBytes": "32"
      },
      "t_array(t_bytes32)dyn_storage": {
        "base": "t_bytes32",
        "encoding": "dynamic_array",
        "label": "bytes32[]",
        "numberOfBytes": "32"
      },
      "t_array(t_uint256)49_storage": {
        "base": "t_uint256",
        "encoding": "inplace",
        "label": "uint256[49]",
        "numberOfBytes": "1568"
      },
      "t_array(t_uint256)50_storage": {
        "base": "t_uint256",
        "encoding": "inplace",
        "label": "uint256[50]",
        "numberOfBytes": "1600"
      },
      "t_bool": {
        "encoding": "inplace",
        "label": "bool",
        "numberOfBytes": "1"
      },
      "t_bytes32": {
        "encoding": "inplace",
        "label": "bytes32",
        "numberOfBytes": "32"
      },
      "t_mapping(t_address,t_bytes32)": {
        "encoding": "mapping",
        "key": "t_address",
        "label": "mapping(address => bytes32)",
        "numberOfBytes": "32",
        "value": "t_bytes32"
      },
      "t_mapping(t_address,t_uint256)": {
        "encoding": "mapping",
        "key": "t_address",
        "label": "mapping(address => uint256)",
        "numberOfBytes": "32",
        "value": "t_uint256"
      },
      "t_mapping(t_bytes32,t_bytes32)": {
        "encoding": "mapping",
        "key": "t_bytes32",
        "label": "mapping(bytes32 => bytes32)",
        "numberOfBytes": "32",
        "value": "t_bytes32"
      },
      "t_mapping(t_bytes32,t_struct(Exposure)1401_storage)": {
        "encoding": "mapping",
        "key": "t_bytes32",
        "label": "mapping(bytes32 => struct TokenManager.Exposure)",
        "numberOfBytes": "32",
        "value": "t_struct(Exposure)1401_storage"
      },
      "t_mapping(t_bytes32,t_uint256)": {
        "encoding": "mapping",
        "key": "t_bytes32",
        "label": "mapping(bytes32 => uint256)",
        "numberOfBytes": "32",
        "value": "t_uint256"
      },
      "t_struct(Bytes32Set)982_storage": {
        "encoding": "inplace",
        "label": "struct EnumerableSet.Bytes32Set",
        "members": [
          {
            "astId": 981,
            "contract": "contracts/TokenManager.sol:TokenManager",
            "label": "_inner",
            "offset": 0,
            "slot": "0",
            "type": "t_struct(Set)788_storage"
          }
        ],
        "numberOfBytes": "64"
      },
      "t_struct(Bytes32ToAddressMap)2861_storage": {
        "encoding": "inplace",
        "label": "struct EnumerableMap.Bytes32ToAddressMap",
        "members": [
          {
            "astId": 2860,
            "contract": "contracts/TokenManager.sol:TokenManager",
            "label": "_inner",
            "offset": 0,
            "slot": "0",
            "type": "t_struct(Map)2631_storage"
          }
        ],
        "numberOfBytes": "96"
      },
      "t_struct(Exposure)1401_storage": {
        "encoding": "inplace",
        "label": "struct TokenManager.Exposure",
        "members": [
          {
            "astId": 1398,
            "contract": "contracts/TokenManager.sol:TokenManager",
            "label": "current",
            "offset": 0,
            "slot": "0",
            "type": "t_uint256"
          },
          {
            "astId": 1400,
            "contract": "contracts/TokenManager.sol:TokenManager",
            "label": "max",
            "offset": 0,
            "slot": "1",
            "type": "t_uint256"
          }
        ],
        "numberOfBytes": "64"
      },
      "t_struct(Map)2631_storage": {
        "encoding": "inplace",
        "label": "struct EnumerableMap.Map",
        "members": [
          {
            "astId": 2626,
            "contract": "contracts/TokenManager.sol:TokenManager",
            "label": "_keys",
            "offset": 0,
            "slot": "0",
            "type": "t_struct(Bytes32Set)982_storage"
          },
          {
            "astId": 2630,
            "contract": "contracts/TokenManager.sol:TokenManager",
            "label": "_values",
            "offset": 0,
            "slot": "2",
            "type": "t_mapping(t_bytes32,t_bytes32)"
          }
        ],
        "numberOfBytes": "96"
      },
      "t_struct(Set)788_storage": {
        "encoding": "inplace",
        "label": "struct EnumerableSet.Set",
        "members": [
          {
            "astId": 783,
            "contract": "contracts/TokenManager.sol:TokenManager",
            "label": "_values",
            "offset": 0,
            "slot": "0",
            "type": "t_array(t_bytes32)dyn_storage"
          },
          {
            "astId": 787,
            "contract": "contracts/TokenManager.sol:TokenManager",
            "label": "_indexes",
            "offset": 0,
            "slot": "1",
            "type": "t_mapping(t_bytes32,t_uint256)"
          }
        ],
        "numberOfBytes": "64"
      },
      "t_uint256": {
        "encoding": "inplace",
        "label": "uint256",
        "numberOfBytes": "32"
      }
    }
  }
}