{
  "address": "0xb03B333a26F7F57db4Dde975Ce024374c87343a1",
  "abi": [
    {
      "anonymous": false,
      "inputs": [
        {
          "indexed": true,
          "internalType": "address",
          "name": "previousOwner",
          "type": "address"
        },
        {
          "indexed": true,
          "internalType": "address",
          "name": "newOwner",
          "type": "address"
        }
      ],
      "name": "OwnershipTransferred",
      "type": "event"
    },
    {
      "anonymous": false,
      "inputs": [
        {
          "indexed": true,
          "internalType": "address",
          "name": "performer",
          "type": "address"
        },
        {
          "indexed": false,
          "internalType": "uint256",
          "name": "newSpread",
          "type": "uint256"
        },
        {
          "indexed": false,
          "internalType": "uint256",
          "name": "timestamp",
          "type": "uint256"
        }
      ],
      "name": "SpreadChanged",
      "type": "event"
    },
    {
      "inputs": [],
      "name": "BREAKPOINT_1",
      "outputs": [
        {
          "internalType": "uint256",
          "name": "",
          "type": "uint256"
        }
      ],
      "stateMutability": "view",
      "type": "function"
    },
    {
      "inputs": [],
      "name": "BREAKPOINT_2",
      "outputs": [
        {
          "internalType": "uint256",
          "name": "",
          "type": "uint256"
        }
      ],
      "stateMutability": "view",
      "type": "function"
    },
    {
      "inputs": [],
      "name": "BREAKPOINT_3",
      "outputs": [
        {
          "internalType": "uint256",
          "name": "",
          "type": "uint256"
        }
      ],
      "stateMutability": "view",
      "type": "function"
    },
    {
      "inputs": [],
      "name": "MAX_RATE",
      "outputs": [
        {
          "internalType": "uint256",
          "name": "",
          "type": "uint256"
        }
      ],
      "stateMutability": "view",
      "type": "function"
    },
    {
      "inputs": [],
      "name": "OFFSET_1",
      "outputs": [
        {
          "internalType": "uint256",
          "name": "",
          "type": "uint256"
        }
      ],
      "stateMutability": "view",
      "type": "function"
    },
    {
      "inputs": [],
      "name": "OFFSET_2",
      "outputs": [
        {
          "internalType": "uint256",
          "name": "",
          "type": "uint256"
        }
      ],
      "stateMutability": "view",
      "type": "function"
    },
    {
      "inputs": [],
      "name": "OFFSET_3",
      "outputs": [
        {
          "internalType": "uint256",
          "name": "",
          "type": "uint256"
        }
      ],
      "stateMutability": "view",
      "type": "function"
    },
    {
      "inputs": [],
      "name": "OFFSET_4",
      "outputs": [
        {
          "internalType": "uint256",
          "name": "",
          "type": "uint256"
        }
      ],
      "stateMutability": "view",
      "type": "function"
    },
    {
      "inputs": [],
      "name": "SLOPE_1",
      "outputs": [
        {
          "internalType": "uint256",
          "name": "",
          "type": "uint256"
        }
      ],
      "stateMutability": "view",
      "type": "function"
    },
    {
      "inputs": [],
      "name": "SLOPE_2",
      "outputs": [
        {
          "internalType": "uint256",
          "name": "",
          "type": "uint256"
        }
      ],
      "stateMutability": "view",
      "type": "function"
    },
    {
      "inputs": [],
      "name": "SLOPE_3",
      "outputs": [
        {
          "internalType": "uint256",
          "name": "",
          "type": "uint256"
        }
      ],
      "stateMutability": "view",
      "type": "function"
    },
    {
      "inputs": [],
      "name": "SLOPE_4",
      "outputs": [
        {
          "internalType": "uint256",
          "name": "",
          "type": "uint256"
        }
      ],
      "stateMutability": "view",
      "type": "function"
    },
    {
      "inputs": [
        {
          "internalType": "uint256",
          "name": "totalLoans",
          "type": "uint256"
        },
        {
          "internalType": "uint256",
          "name": "totalDeposits",
          "type": "uint256"
        }
      ],
      "name": "calculateBorrowingRate",
      "outputs": [
        {
          "internalType": "uint256",
          "name": "",
          "type": "uint256"
        }
      ],
      "stateMutability": "pure",
      "type": "function"
    },
    {
      "inputs": [
        {
          "internalType": "uint256",
          "name": "_totalLoans",
          "type": "uint256"
        },
        {
          "internalType": "uint256",
          "name": "_totalDeposits",
          "type": "uint256"
        }
      ],
      "name": "calculateDepositRate",
      "outputs": [
        {
          "internalType": "uint256",
          "name": "",
          "type": "uint256"
        }
      ],
      "stateMutability": "view",
      "type": "function"
    },
    {
      "inputs": [
        {
          "internalType": "uint256",
          "name": "_totalLoans",
          "type": "uint256"
        },
        {
          "internalType": "uint256",
          "name": "_totalDeposits",
          "type": "uint256"
        }
      ],
      "name": "getPoolUtilisation",
      "outputs": [
        {
          "internalType": "uint256",
          "name": "",
          "type": "uint256"
        }
      ],
      "stateMutability": "pure",
      "type": "function"
    },
    {
      "inputs": [],
      "name": "owner",
      "outputs": [
        {
          "internalType": "address",
          "name": "",
          "type": "address"
        }
      ],
      "stateMutability": "view",
      "type": "function"
    },
    {
      "inputs": [],
      "name": "renounceOwnership",
      "outputs": [],
      "stateMutability": "nonpayable",
      "type": "function"
    },
    {
      "inputs": [
        {
          "internalType": "uint256",
          "name": "_spread",
          "type": "uint256"
        }
      ],
      "name": "setSpread",
      "outputs": [],
      "stateMutability": "nonpayable",
      "type": "function"
    },
    {
      "inputs": [],
      "name": "spread",
      "outputs": [
        {
          "internalType": "uint256",
          "name": "",
          "type": "uint256"
        }
      ],
      "stateMutability": "view",
      "type": "function"
    },
    {
      "inputs": [
        {
          "internalType": "address",
          "name": "newOwner",
          "type": "address"
        }
      ],
      "name": "transferOwnership",
      "outputs": [],
      "stateMutability": "nonpayable",
      "type": "function"
    }
  ],
  "transactionHash": "0x8be3963f8e6dd2c66407bc93aed81ea8a1ce8e819bdf07c27038b63b2d3830b9",
  "args": [],
  "numDeployments": 2,
  "solcInputHash": "132bab142a990f16ddcd2efcced250e8",
  "bytecode": "0x608060405264e8d4a5100060015534801561001957600080fd5b5061002333610028565b610078565b600080546001600160a01b038381166001600160a01b0319831681178455604051919092169283917f8be0079c531659141344cd1fd0a4f28419497f9722a3daafe3b4186f6b6457e09190a35050565b6107c8806100876000396000f3fe608060405234801561001057600080fd5b506004361061012c5760003560e01c80637cd08331116100ad578063b66a261c11610071578063b66a261c1461021f578063bfe7cfd214610232578063c24dbebd14610210578063df841eec14610241578063f2fde38b1461025457600080fd5b80637cd08331146101c05780638da5cb5b146101d35780639a6fc9dc146101ee5780639ceca965146101fd578063b5f78b051461021057600080fd5b806356f21639116100f457806356f21639146101885780635c25c76c146101975780636e28a05d146101a057806370935a50146101af578063715018a6146101be57600080fd5b806301a5e5a01461013157806318c544b114610153578063321105fb1461015b5780633bf42d4b1461016a57806349d94fee14610179575b600080fd5b610140670853a0d2313c000081565b6040519081526020015b60405180910390f35b610140600081565b6101406702514d9d7d7d800081565b6101406703782dace9d9000081565b610140675fc1b9713632000081565b610140670494654067e1000081565b61014060015481565b61014067013fbe85edc9000081565b610140670b1a2bc2ec50000081565b005b6101406101ce3660046106a0565b610269565b6000546040516001600160a01b03909116815260200161014a565b610140675a34a38fc00a000081565b61014061020b3660046106a0565b610383565b610140670c7d713b49da000081565b6101be61022d3660046106c2565b6103b9565b610140670de0b6b3a764000081565b61014061024f3660046106a0565b61045f565b6101be6102623660046106db565b61057d565b565b60008160000361027b5750600061037d565b8183106102c457670de0b6b3a7640000600154670de0b6b3a76400006102a1919061071a565b6102b390670c7d713b49da000061072d565b6102bd9190610744565b905061037d565b60006102d883670de0b6b3a764000061072d565b84600154670de0b6b3a76400006102ef919061071a565b6040516337e107bb60e21b81526004810188905260248101879052309063df841eec90604401602060405180830381865afa158015610332573d6000803e3d6000fd5b505050506040513d601f19601f820116820180604052508101906103569190610766565b610360919061072d565b61036a919061072d565b6103749190610744565b915061037d9050565b92915050565b6000816000036103955750600061037d565b816103a884670de0b6b3a764000061072d565b6103b29190610744565b9392505050565b6103c16105f6565b670de0b6b3a7640000811061041d5760405162461bcd60e51b815260206004820181905260248201527f537072656164206d75737420626520736d616c6c6572207468616e203165313860448201526064015b60405180910390fd5b60018190556040805182815242602082015233917f9e606dc778840dd5372c982cb6a54acae1e2f85905de7f64d37c63a0c5830e22910160405180910390a250565b6000816000036104715750600061037d565b600061047d8484610383565b9050670de0b6b3a7640000811061049f57670c7d713b49da000091505061037d565b670853a0d2313c000081116104e7576000670de0b6b3a76400006104cb6702514d9d7d7d80008461072d565b6104d59190610744565b6104df919061077f565b91505061037d565b670b1a2bc2ec500000811161052e5767013fbe85edc90000670de0b6b3a764000061051a6703782dace9d900008461072d565b6105249190610744565b6104df919061071a565b670c7d713b49da0000811161055957670494654067e10000670de0b6b3a764000061051a818461072d565b675fc1b97136320000670de0b6b3a764000061051a675a34a38fc00a00008461072d565b6105856105f6565b6001600160a01b0381166105ea5760405162461bcd60e51b815260206004820152602660248201527f4f776e61626c653a206e6577206f776e657220697320746865207a65726f206160448201526564647265737360d01b6064820152608401610414565b6105f381610650565b50565b6000546001600160a01b031633146102675760405162461bcd60e51b815260206004820181905260248201527f4f776e61626c653a2063616c6c6572206973206e6f7420746865206f776e65726044820152606401610414565b600080546001600160a01b038381166001600160a01b0319831681178455604051919092169283917f8be0079c531659141344cd1fd0a4f28419497f9722a3daafe3b4186f6b6457e09190a35050565b600080604083850312156106b357600080fd5b50508035926020909101359150565b6000602082840312156106d457600080fd5b5035919050565b6000602082840312156106ed57600080fd5b81356001600160a01b03811681146103b257600080fd5b634e487b7160e01b600052601160045260246000fd5b8181038181111561037d5761037d610704565b808202811582820484141761037d5761037d610704565b60008261076157634e487b7160e01b600052601260045260246000fd5b500490565b60006020828403121561077857600080fd5b5051919050565b8082018082111561037d5761037d61070456fea26469706673582212204a1fae8883833903378019b0d9e787c2892160828cb0f4bd9d8231078ae1e4e564736f6c63430008110033",
  "devdoc": {
    "details": "Contract which calculates the interest rates based on pool utilisation. Utilisation is computed as the ratio between funds borrowed and funds deposited to the pool. Borrowing rates are calculated using a piecewise linear function. The first piece is defined by SLOPE_1 and OFFSET (shift). Second piece is defined by SLOPE_2 (calculated off-chain), BREAKPOINT (threshold value above which second piece is considered) and MAX_RATE (value at pool utilisation of 1).*",
    "events": {
      "SpreadChanged(address,uint256,uint256)": {
        "details": "emitted after changing the spread",
        "params": {
          "newSpread": "new spread",
          "performer": "an address of wallet setting a new spread",
          "timestamp": "time of a spread change*"
        }
      }
    },
    "kind": "dev",
    "methods": {
      "calculateBorrowingRate(uint256,uint256)": {
        "details": "_totalLoans total value of loans_totalDeposits total value of deposits*"
      },
      "calculateDepositRate(uint256,uint256)": {
        "details": "_totalLoans total value of loans_totalDeposits total value of deposits*"
      },
      "getPoolUtilisation(uint256,uint256)": {
        "details": "_totalLoans total value of loans_totalDeposits total value of deposits*"
      },
      "owner()": {
        "details": "Returns the address of the current owner."
      },
      "renounceOwnership()": {
        "details": "Leaves the contract without owner. It will not be possible to call `onlyOwner` functions. Can only be called by the current owner. NOTE: Renouncing ownership will leave the contract without an owner, thereby disabling any functionality that is only available to the owner."
      },
      "setSpread(uint256)": {
        "params": {
          "_spread": "spread defined by user*"
        }
      },
      "transferOwnership(address)": {
        "details": "Transfers ownership of the contract to a new account (`newOwner`). Can only be called by the current owner."
      }
    },
    "title": "UsdcVariableUtilisationRatesCalculator",
    "version": 1
  },
  "userdoc": {
    "kind": "user",
    "methods": {
      "calculateBorrowingRate(uint256,uint256)": {
        "notice": "Returns the current borrowing rate The value is based on the pool utilisation according to the piecewise linear formula: 1) for pool utilisation lower than or equal to breakpoint: borrowing_rate = SLOPE_1 * utilisation + OFFSET 2) for pool utilisation greater than breakpoint: borrowing_rate = SLOPE_2 * utilisation + MAX_RATE - SLOPE_2"
      },
      "calculateDepositRate(uint256,uint256)": {
        "notice": "Returns the current deposit rate The value is based on the current borrowing rate and satisfies the invariant: value_of_loans * borrowing_rate = value_of_deposits * deposit_rate"
      },
      "getPoolUtilisation(uint256,uint256)": {
        "notice": "Returns the pool utilisation, which is a ratio between loans and deposits utilisation = value_of_loans / value_of_deposits"
      },
      "setSpread(uint256)": {
        "notice": "Sets the spread between deposit and borrow rate, number between 0 and 1e18"
      }
    },
    "version": 1
  },
  "storageLayout": {
    "storage": [
      {
        "astId": 7,
        "contract": "contracts/deployment/arbitrum/UsdcVariableUtilisationRatesCalculator.sol:UsdcVariableUtilisationRatesCalculator",
        "label": "_owner",
        "offset": 0,
        "slot": "0",
        "type": "t_address"
      },
      {
        "astId": 182,
        "contract": "contracts/deployment/arbitrum/UsdcVariableUtilisationRatesCalculator.sol:UsdcVariableUtilisationRatesCalculator",
        "label": "spread",
        "offset": 0,
        "slot": "1",
        "type": "t_uint256"
      }
    ],
    "types": {
      "t_address": {
        "encoding": "inplace",
        "label": "address",
        "numberOfBytes": "20"
      },
      "t_uint256": {
        "encoding": "inplace",
        "label": "uint256",
        "numberOfBytes": "32"
      }
    }
  }
}