{
  "address": "0x2323dAC85C6Ab9bd6a8B5Fb75B0581E31232d12b",
  "abi": [
    {
      "inputs": [],
      "name": "CalldataMustHaveValidPayload",
      "type": "error"
    },
    {
      "inputs": [],
      "name": "CalldataOverOrUnderFlow",
      "type": "error"
    },
    {
      "inputs": [],
      "name": "CanNotPickMedianOfEmptyArray",
      "type": "error"
    },
    {
      "inputs": [],
      "name": "DataPackageTimestampMustNotBeZero",
      "type": "error"
    },
    {
      "inputs": [],
      "name": "DataPackageTimestampsMustBeEqual",
      "type": "error"
    },
    {
      "inputs": [],
      "name": "EachSignerMustProvideTheSameValue",
      "type": "error"
    },
    {
      "inputs": [],
      "name": "EmptyCalldataPointersArr",
      "type": "error"
    },
    {
      "inputs": [],
      "name": "GetDataServiceIdNotImplemented",
      "type": "error"
    },
    {
      "inputs": [],
      "name": "IncorrectUnsignedMetadataSize",
      "type": "error"
    },
    {
      "inputs": [
        {
          "internalType": "uint256",
          "name": "receivedSignersCount",
          "type": "uint256"
        },
        {
          "internalType": "uint256",
          "name": "requiredSignersCount",
          "type": "uint256"
        }
      ],
      "name": "InsufficientNumberOfUniqueSigners",
      "type": "error"
    },
    {
      "inputs": [],
      "name": "InvalidCalldataPointer",
      "type": "error"
    },
    {
      "inputs": [],
      "name": "RedstonePayloadMustHaveAtLeastOneDataPackage",
      "type": "error"
    },
    {
      "inputs": [
        {
          "internalType": "address",
          "name": "receivedSigner",
          "type": "address"
        }
      ],
      "name": "SignerNotAuthorised",
      "type": "error"
    },
    {
      "inputs": [
        {
          "internalType": "uint256",
          "name": "receivedTimestampSeconds",
          "type": "uint256"
        },
        {
          "internalType": "uint256",
          "name": "blockTimestamp",
          "type": "uint256"
        }
      ],
      "name": "TimestampFromTooLongFuture",
      "type": "error"
    },
    {
      "inputs": [
        {
          "internalType": "uint256",
          "name": "receivedTimestampSeconds",
          "type": "uint256"
        },
        {
          "internalType": "uint256",
          "name": "blockTimestamp",
          "type": "uint256"
        }
      ],
      "name": "TimestampIsTooOld",
      "type": "error"
    },
    {
      "anonymous": false,
      "inputs": [
        {
          "indexed": false,
          "internalType": "uint8",
          "name": "version",
          "type": "uint8"
        }
      ],
      "name": "Initialized",
      "type": "event"
    },
    {
      "anonymous": false,
      "inputs": [
        {
          "indexed": true,
          "internalType": "address",
          "name": "from",
          "type": "address"
        },
        {
          "indexed": true,
          "internalType": "address",
          "name": "to",
          "type": "address"
        }
      ],
      "name": "OwnershipTransferRequested",
      "type": "event"
    },
    {
      "anonymous": false,
      "inputs": [
        {
          "indexed": true,
          "internalType": "address",
          "name": "previousOwner",
          "type": "address"
        },
        {
          "indexed": true,
          "internalType": "address",
          "name": "newOwner",
          "type": "address"
        }
      ],
      "name": "OwnershipTransferred",
      "type": "event"
    },
    {
      "anonymous": false,
      "inputs": [
        {
          "indexed": false,
          "internalType": "contract ITokenManager",
          "name": "newTokenManager",
          "type": "address"
        },
        {
          "indexed": false,
          "internalType": "address",
          "name": "userAddress",
          "type": "address"
        },
        {
          "indexed": false,
          "internalType": "uint256",
          "name": "timestamp",
          "type": "uint256"
        }
      ],
      "name": "TokenManagerUpdated",
      "type": "event"
    },
    {
      "anonymous": false,
      "inputs": [
        {
          "indexed": false,
          "internalType": "bool",
          "name": "_useOraclePrimeFeed",
          "type": "bool"
        },
        {
          "indexed": false,
          "internalType": "address",
          "name": "userAddress",
          "type": "address"
        },
        {
          "indexed": false,
          "internalType": "uint256",
          "name": "timestamp",
          "type": "uint256"
        }
      ],
      "name": "UseOraclePrimeFeedUpdated",
      "type": "event"
    },
    {
      "anonymous": false,
      "inputs": [
        {
          "indexed": false,
          "internalType": "contract ISPrime[]",
          "name": "newWhitelistedSPrimeContracts",
          "type": "address[]"
        },
        {
          "indexed": false,
          "internalType": "address",
          "name": "userAddress",
          "type": "address"
        },
        {
          "indexed": false,
          "internalType": "uint256",
          "name": "timestamp",
          "type": "uint256"
        }
      ],
      "name": "WhitelistedSPrimeContractsUpdated",
      "type": "event"
    },
    {
      "inputs": [],
      "name": "BORROWER_YEARLY_V_PRIME_RATE",
      "outputs": [
        {
          "internalType": "uint256",
          "name": "",
          "type": "uint256"
        }
      ],
      "stateMutability": "view",
      "type": "function"
    },
    {
      "inputs": [],
      "name": "DEPOSITOR_YEARLY_V_PRIME_RATE",
      "outputs": [
        {
          "internalType": "uint256",
          "name": "",
          "type": "uint256"
        }
      ],
      "stateMutability": "view",
      "type": "function"
    },
    {
      "inputs": [],
      "name": "MAX_V_PRIME_VESTING_YEARS",
      "outputs": [
        {
          "internalType": "uint256",
          "name": "",
          "type": "uint256"
        }
      ],
      "stateMutability": "view",
      "type": "function"
    },
    {
      "inputs": [],
      "name": "RS_PRICE_PRECISION_1e18_COMPLEMENT",
      "outputs": [
        {
          "internalType": "uint256",
          "name": "",
          "type": "uint256"
        }
      ],
      "stateMutability": "view",
      "type": "function"
    },
    {
      "inputs": [],
      "name": "V_PRIME_DETERIORATION_DAYS",
      "outputs": [
        {
          "internalType": "uint256",
          "name": "",
          "type": "uint256"
        }
      ],
      "stateMutability": "view",
      "type": "function"
    },
    {
      "inputs": [],
      "name": "V_PRIME_PAIR_RATIO",
      "outputs": [
        {
          "internalType": "uint256",
          "name": "",
          "type": "uint256"
        }
      ],
      "stateMutability": "view",
      "type": "function"
    },
    {
      "inputs": [],
      "name": "acceptOwnership",
      "outputs": [],
      "stateMutability": "nonpayable",
      "type": "function"
    },
    {
      "inputs": [
        {
          "internalType": "uint256[]",
          "name": "values",
          "type": "uint256[]"
        }
      ],
      "name": "aggregateValues",
      "outputs": [
        {
          "internalType": "uint256",
          "name": "",
          "type": "uint256"
        }
      ],
      "stateMutability": "view",
      "type": "function"
    },
    {
      "inputs": [],
      "name": "borrowersRegistry",
      "outputs": [
        {
          "internalType": "contract IBorrowersRegistry",
          "name": "",
          "type": "address"
        }
      ],
      "stateMutability": "view",
      "type": "function"
    },
    {
      "inputs": [],
      "name": "extractTimestampsAndAssertAllAreEqual",
      "outputs": [
        {
          "internalType": "uint256",
          "name": "extractedTimestamp",
          "type": "uint256"
        }
      ],
      "stateMutability": "pure",
      "type": "function"
    },
    {
      "inputs": [
        {
          "internalType": "address",
          "name": "signerAddress",
          "type": "address"
        }
      ],
      "name": "getAuthorisedSignerIndex",
      "outputs": [
        {
          "internalType": "uint8",
          "name": "",
          "type": "uint8"
        }
      ],
      "stateMutability": "view",
      "type": "function"
    },
    {
      "inputs": [],
      "name": "getDataServiceId",
      "outputs": [
        {
          "internalType": "string",
          "name": "",
          "type": "string"
        }
      ],
      "stateMutability": "view",
      "type": "function"
    },
    {
      "inputs": [
        {
          "internalType": "address",
          "name": "userAddress",
          "type": "address"
        }
      ],
      "name": "getPrimeAccountBorrowedDollarValueAcrossWhitelistedPools",
      "outputs": [
        {
          "internalType": "uint256",
          "name": "",
          "type": "uint256"
        }
      ],
      "stateMutability": "view",
      "type": "function"
    },
    {
      "inputs": [
        {
          "internalType": "contract ISPrime",
          "name": "sPrimeContract",
          "type": "address"
        },
        {
          "internalType": "uint256",
          "name": "tokenYPrice",
          "type": "uint256"
        }
      ],
      "name": "getPrimeTokenPoolPrice",
      "outputs": [
        {
          "internalType": "uint256",
          "name": "",
          "type": "uint256"
        }
      ],
      "stateMutability": "view",
      "type": "function"
    },
    {
      "inputs": [],
      "name": "getUniqueSignersThreshold",
      "outputs": [
        {
          "internalType": "uint8",
          "name": "",
          "type": "uint8"
        }
      ],
      "stateMutability": "view",
      "type": "function"
    },
    {
      "inputs": [
        {
          "internalType": "address",
          "name": "userAddress",
          "type": "address"
        }
      ],
      "name": "getUserDepositDollarValueAcrossWhiteListedPoolsVestedAndNonVested",
      "outputs": [
        {
          "internalType": "uint256",
          "name": "fullyVestedDollarValue",
          "type": "uint256"
        },
        {
          "internalType": "uint256",
          "name": "nonVestedDollarValue",
          "type": "uint256"
        }
      ],
      "stateMutability": "view",
      "type": "function"
    },
    {
      "inputs": [
        {
          "internalType": "address",
          "name": "userAddress",
          "type": "address"
        }
      ],
      "name": "getUserSPrimeDollarValueVestedAndNonVested",
      "outputs": [
        {
          "internalType": "uint256",
          "name": "fullyVestedDollarValue",
          "type": "uint256"
        },
        {
          "internalType": "uint256",
          "name": "nonVestedDollarValue",
          "type": "uint256"
        }
      ],
      "stateMutability": "view",
      "type": "function"
    },
    {
      "inputs": [
        {
          "internalType": "address",
          "name": "userAddress",
          "type": "address"
        }
      ],
      "name": "getUserVPrimeRateAndMaxCap",
      "outputs": [
        {
          "internalType": "int256",
          "name": "",
          "type": "int256"
        },
        {
          "internalType": "uint256",
          "name": "",
          "type": "uint256"
        },
        {
          "internalType": "uint256",
          "name": "",
          "type": "uint256"
        }
      ],
      "stateMutability": "view",
      "type": "function"
    },
    {
      "inputs": [],
      "name": "getWhitelistedPools",
      "outputs": [
        {
          "internalType": "contract IPool[]",
          "name": "",
          "type": "address[]"
        }
      ],
      "stateMutability": "view",
      "type": "function"
    },
    {
      "inputs": [
        {
          "internalType": "contract ISPrime[]",
          "name": "_whitelistedSPrimeContracts",
          "type": "address[]"
        },
        {
          "internalType": "contract ITokenManager",
          "name": "_tokenManager",
          "type": "address"
        },
        {
          "internalType": "contract vPrime",
          "name": "_vPrime",
          "type": "address"
        },
        {
          "internalType": "bool",
          "name": "_useOraclePrimeFeed",
          "type": "bool"
        }
      ],
      "name": "initialize",
      "outputs": [],
      "stateMutability": "nonpayable",
      "type": "function"
    },
    {
      "inputs": [],
      "name": "owner",
      "outputs": [
        {
          "internalType": "address",
          "name": "",
          "type": "address"
        }
      ],
      "stateMutability": "view",
      "type": "function"
    },
    {
      "inputs": [],
      "name": "pendingOwner",
      "outputs": [
        {
          "internalType": "address",
          "name": "",
          "type": "address"
        }
      ],
      "stateMutability": "view",
      "type": "function"
    },
    {
      "inputs": [],
      "name": "renounceOwnership",
      "outputs": [],
      "stateMutability": "nonpayable",
      "type": "function"
    },
    {
      "inputs": [
        {
          "internalType": "bool",
          "name": "_useOraclePrimeFeed",
          "type": "bool"
        }
      ],
      "name": "setUseOraclePrimeFeed",
      "outputs": [],
      "stateMutability": "nonpayable",
      "type": "function"
    },
    {
      "inputs": [
        {
          "internalType": "address",
          "name": "userAddress",
          "type": "address"
        }
      ],
      "name": "setUserNeedsUpdate",
      "outputs": [],
      "stateMutability": "nonpayable",
      "type": "function"
    },
    {
      "inputs": [],
      "name": "tokenManager",
      "outputs": [
        {
          "internalType": "contract ITokenManager",
          "name": "",
          "type": "address"
        }
      ],
      "stateMutability": "view",
      "type": "function"
    },
    {
      "inputs": [
        {
          "internalType": "address",
          "name": "newOwner",
          "type": "address"
        }
      ],
      "name": "transferOwnership",
      "outputs": [],
      "stateMutability": "nonpayable",
      "type": "function"
    },
    {
      "inputs": [
        {
          "internalType": "contract IBorrowersRegistry",
          "name": "newBorrowersRegistry",
          "type": "address"
        }
      ],
      "name": "updateBorrowersRegistry",
      "outputs": [],
      "stateMutability": "nonpayable",
      "type": "function"
    },
    {
      "inputs": [
        {
          "internalType": "contract ITokenManager",
          "name": "newTokenManager",
          "type": "address"
        }
      ],
      "name": "updateTokenManager",
      "outputs": [],
      "stateMutability": "nonpayable",
      "type": "function"
    },
    {
      "inputs": [
        {
          "internalType": "address",
          "name": "userAddress",
          "type": "address"
        }
      ],
      "name": "updateVPrimeSnapshot",
      "outputs": [],
      "stateMutability": "nonpayable",
      "type": "function"
    },
    {
      "inputs": [
        {
          "internalType": "address[]",
          "name": "accounts",
          "type": "address[]"
        }
      ],
      "name": "updateVPrimeSnapshotsForAccounts",
      "outputs": [],
      "stateMutability": "nonpayable",
      "type": "function"
    },
    {
      "inputs": [
        {
          "internalType": "contract ISPrime[]",
          "name": "newWhitelistedSPrimeContracts",
          "type": "address[]"
        }
      ],
      "name": "updateWhitelistedSPrimeContracts",
      "outputs": [],
      "stateMutability": "nonpayable",
      "type": "function"
    },
    {
      "inputs": [],
      "name": "useOraclePrimeFeed",
      "outputs": [
        {
          "internalType": "bool",
          "name": "",
          "type": "bool"
        }
      ],
      "stateMutability": "view",
      "type": "function"
    },
    {
      "inputs": [],
      "name": "vPrimeContract",
      "outputs": [
        {
          "internalType": "contract vPrime",
          "name": "",
          "type": "address"
        }
      ],
      "stateMutability": "view",
      "type": "function"
    },
    {
      "inputs": [
        {
          "internalType": "uint256",
          "name": "receivedTimestampMilliseconds",
          "type": "uint256"
        }
      ],
      "name": "validateTimestamp",
      "outputs": [],
      "stateMutability": "view",
      "type": "function"
    },
    {
      "inputs": [
        {
          "internalType": "uint256",
          "name": "",
          "type": "uint256"
        }
      ],
      "name": "whitelistedSPrimeContracts",
      "outputs": [
        {
          "internalType": "contract ISPrime",
          "name": "",
          "type": "address"
        }
      ],
      "stateMutability": "view",
      "type": "function"
    }
  ],
  "transactionHash": "0x6426ec6fb1f3b7b22c2e0a4fd14809cbbda599e70df500b3a7e23c95dafcb813",
  "args": [],
  "numDeployments": 2,
  "solcInputHash": "5f9b4066677330f96d37c849c3cc66a6",
  "bytecode": "0x608060405234801561001057600080fd5b5061350b806100206000396000f3fe608060405234801561001057600080fd5b50600436106101ac5760003560e01c806319a63896146101b1578063255d77ba146101da5780632808db58146101ef5780632a709b14146102055780632f589aaf14610225578063364fa2da1461023857806336d863c81461024057806338454a11146102485780633ce142f5146102505780634764f8fc146102755780634f01e51b1461028857806355a547d51461029b5780635be95d78146102a35780635f5c578c146102cb5780636415f7d9146102de578063684572bb146102f15780636cec3461146102f9578063715018a61461030c578063760a8c521461031457806379ba509714610327578063812744d71461032f5780638cb64e29146103425780638da5cb5b14610355578063a21b36ca1461035d578063a760520d14610369578063b07c0a561461037c578063b24ebfcc146103aa578063bf18c239146103bd578063c274583a146103d0578063d06dca8914610408578063d4c9b9051461041b578063e30c39781461042e578063f2fde38b14610436578063f50b2efe14610449578063f90c49241461045c578063fb13605d14610463575b600080fd5b6068546101c590600160a01b900460ff1681565b60405190151581526020015b60405180910390f35b6101ed6101e8366004612e20565b610478565b005b6101f7600181565b6040519081526020016101d1565b606654610218906001600160a01b031681565b6040516101d19190612e54565b6101ed610233366004612e68565b6104d2565b6101f7600381565b6101f7600e81565b6101f7600581565b61026361025e366004612e68565b6104fc565b60405160ff90911681526020016101d1565b6101f7610283366004612e85565b610603565b6101ed610296366004612e68565b6106f8565b6101f761075a565b6102b66102b1366004612e68565b610872565b604080519283526020830191909152016101d1565b6101f76102d9366004612e68565b610d02565b606754610218906001600160a01b031681565b6101f7600a81565b6101ed610307366004612e68565b611094565b6101ed61119c565b610218610322366004612eb1565b6111b0565b6101ed6111da565b6102b661033d366004612e68565b61126c565b6101ed610350366004612eda565b6114bc565b61021861162e565b6101f76402540be40081565b6101ed610377366004612f4c565b61163d565b61038f61038a366004612e68565b61169e565b604080519384526020840192909252908201526060016101d1565b6101f76103b8366004612f67565b611a03565b6101ed6103cb366004612e68565b611a0e565b60408051808201825260168152751c99591cdd1bdb994b585c989a5d1c9d5b4b5c1c9bd960521b602082015290516101d19190612ff7565b606854610218906001600160a01b031681565b6101ed610429366004613045565b611b9c565b610218611be0565b6101ed610444366004612e68565b611bef565b6101ed610457366004612eb1565b611cb6565b6003610263565b61046b611cbf565b6040516101d191906130d3565b610480611e5f565b8051610493906065906020840190612cb4565b507f113ac889396ba7fb22b98d97cc6e90f009ca8ea79a91f79f25f789e1e087fa4d8133426040516104c793929190613120565b60405180910390a150565b6104da611e5f565b606880546001600160a01b0319166001600160a01b0392909216919091179055565b60006001600160a01b03821673345efd26098e173f811e3b9af1b0e0a11872b38b0361052a57506000919050565b6001600160a01b03821673bd0c5ccd85d5831b10e3e49527b8cd67e2efaf390361055657506001919050565b6001600160a01b038216732f3e8ec88c01593d10ca9461c807660ff2d8db280361058257506002919050565b6001600160a01b03821673b7f154bb5491565d215f4eb1c3fe3e84960627af036105ae57506003919050565b6001600160a01b03821673e6b0de8f4b31f137d3c59b5a0a71e66e7d504ef9036105da57506004919050565b816040516303b1166f60e61b81526004016105f59190612e54565b60405180910390fd5b919050565b606854600090600160a01b900460ff161561065057645052494d4560d81b600061062c82611ebe565b90508361063d826305f5e100613195565b61064791906131c2565b925050506106f2565b6000836001600160a01b031663885a08e06040518163ffffffff1660e01b8152600401602060405180830381865afa158015610690573d6000803e3d6000fd5b505050506040513d601f19601f820116820180604052508101906106b491906131d6565b9050634e3b29206305f5e1006106ca8584613195565b6106d491906131c2565b11156106ef576106ec836701d24b2dfac520006131c2565b90505b90505b92915050565b610700611e5f565b606680546001600160a01b0319166001600160a01b0383169081179091556040805191825233602083015242908201527f0fce8ca0e21ef947788ca67a8b70d53df8a6eec19241eca622a0f4a695ac3eca906060016104c7565b600080610765611f2e565b9050600061077282611fdc565b61ffff1690508060000361079957604051632154bfcf60e21b815260040160405180910390fd5b6107a46002836131ef565b915060005b8181101561086c5760006107bc84612016565b90506000806107cc6068876131ef565b905060006107da8236613202565b9050803592508265ffffffffffff1660000361080957604051630336dc9d60e41b815260040160405180910390fd5b87600003610821578265ffffffffffff169750610849565b878365ffffffffffff16146108495760405163d9d1f46560e01b815260040160405180910390fd5b61085384886131ef565b965050505050808061086490613215565b9150506107a9565b50505090565b600080805b606554811015610cfc57606654606580546000926001600160a01b03169163f823f1e091859081106108ab576108ab61322e565b6000918252602091829020015460408051633684184360e21b815290516001600160a01b039092169263da10610c926004808401938290030181865afa1580156108f9573d6000803e3d6000fd5b505050506040513d601f19601f8201168201806040525081019061091d9190613244565b6040518263ffffffff1660e01b81526004016109399190612e54565b602060405180830381865afa158015610956573d6000803e3d6000fd5b505050506040513d601f19601f8201168201806040525081019061097a91906131d6565b90506000606583815481106109915761099161322e565b6000918252602091829020015460408051633684184360e21b815290516001600160a01b039092169263da10610c926004808401938290030181865afa1580156109df573d6000803e3d6000fd5b505050506040513d601f19601f82011682018060405250810190610a039190613244565b6001600160a01b031663313ce5676040518163ffffffff1660e01b8152600401602060405180830381865afa158015610a40573d6000803e3d6000fd5b505050506040513d601f19601f82011682018060405250810190610a649190613261565b60ff1690506000610a7483611ebe565b90506000610aa960658681548110610a8e57610a8e61322e565b6000918252602090912001546001600160a01b031683610603565b9050600060658681548110610ac057610ac061322e565b6000918252602090912001546040516370a0823160e01b81526001600160a01b03909116906370a0823190610af9908c90600401612e54565b602060405180830381865afa158015610b16573d6000803e3d6000fd5b505050506040513d601f19601f82011682018060405250810190610b3a91906131d6565b9050600060658781548110610b5157610b5161322e565b600091825260209091200154604051631899cc6b60e31b81526001600160a01b039091169063c4ce635890610b8a908d90600401612e54565b602060405180830381865afa158015610ba7573d6000803e3d6000fd5b505050506040513d601f19601f82011682018060405250810190610bcb91906131d6565b90506000610bd98284613202565b9050600060658981548110610bf057610bf061322e565b60009182526020909120015460405163eddeebf360e01b81526001600160a01b038e81166004830152602482018890529091169063eddeebf390604401602060405180830381865afa158015610c4a573d6000803e3d6000fd5b505050506040513d601f19601f82011682018060405250810190610c6e91906131d6565b90508315610ce1576000610c8388600a613368565b610c8d9086613195565b9050610cb38285610ca36402540be4008b613195565b610cad9190613195565b83612052565b610cbd908d6131ef565b9b50610cd38284610ca36402540be4008b613195565b610cdd908c6131ef565b9a50505b50505050505050508080610cf490613215565b915050610877565b50915091565b606854604051633344a55560e01b8152600091829182916001600160a01b031690633344a55590610d37908790600401612e54565b602060405180830381865afa158015610d54573d6000803e3d6000fd5b505050506040513d601f19601f82011682018060405250810190610d789190613244565b90506001600160a01b0381161561108d576000610d93611cbf565b9050600081516001600160401b03811115610db057610db0612d2e565b604051908082528060200260200182016040528015610dd9578160200160208202803683370190505b50905060005b8251811015610f065760665483516001600160a01b039091169063f823f1e090859084908110610e1157610e1161322e565b60200260200101516001600160a01b0316639d76ea586040518163ffffffff1660e01b8152600401602060405180830381865afa158015610e56573d6000803e3d6000fd5b505050506040513d601f19601f82011682018060405250810190610e7a9190613244565b6040518263ffffffff1660e01b8152600401610e969190612e54565b602060405180830381865afa158015610eb3573d6000803e3d6000fd5b505050506040513d601f19601f82011682018060405250810190610ed791906131d6565b828281518110610ee957610ee961322e565b602090810291909101015280610efe81613215565b915050610ddf565b506000610f12826121cb565b905060005b8351811015611088576000848281518110610f3457610f3461322e565b60200260200101516001600160a01b0316636011163e876040518263ffffffff1660e01b8152600401610f679190612e54565b602060405180830381865afa158015610f84573d6000803e3d6000fd5b505050506040513d601f19601f82011682018060405250810190610fa891906131d6565b90506000611065826402540be400868681518110610fc857610fc861322e565b6020026020010151610fda9190613195565b888681518110610fec57610fec61322e565b60200260200101516001600160a01b031663313ce5676040518163ffffffff1660e01b8152600401602060405180830381865afa158015611031573d6000803e3d6000fd5b505050506040513d601f19601f820116820180604052508101906110559190613261565b61106090600a613374565b612052565b905061107181896131ef565b97505050808061108090613215565b915050610f17565b505050505b5092915050565b60008060006110a28461169e565b9194509250905080156111285760675460405163011c0de760e61b81526001600160a01b0386811660048301526024820186905260448201859052606482018490529091169063470379c090608401600060405180830381600087803b15801561110b57600080fd5b505af115801561111f573d6000803e3d6000fd5b50505050611196565b606754604051631f859d6760e31b81526001600160a01b03868116600483015260248201869052604482018590529091169063fc2ceb3890606401600060405180830381600087803b15801561117d57600080fd5b505af1158015611191573d6000803e3d6000fd5b505050505b50505050565b6111a4611e5f565b6111ae60006121d6565b565b606581815481106111c057600080fd5b6000918252602090912001546001600160a01b0316905081565b60006111e4612228565b9050336001600160a01b038216146112565760405162461bcd60e51b815260206004820152602f60248201527f50656e64696e674f776e61626c653a2063616c6c6572206973206e6f7420746860448201526e32903832b73234b7339037bbb732b960891b60648201526084016105f5565b61125f816121d6565b611269600061223b565b50565b60008080611278611cbf565b905060006112858261224d565b905060005b82518110156114b45760008382815181106112a7576112a761322e565b60200260200101516001600160a01b031663c4ce6358886040518263ffffffff1660e01b81526004016112da9190612e54565b602060405180830381865afa1580156112f7573d6000803e3d6000fd5b505050506040513d601f19601f8201168201806040525081019061131b91906131d6565b90506000818584815181106113325761133261322e565b60200260200101516001600160a01b03166370a082318a6040518263ffffffff1660e01b81526004016113659190612e54565b602060405180830381865afa158015611382573d6000803e3d6000fd5b505050506040513d601f19601f820116820180604052508101906113a691906131d6565b6113b09190613202565b905060008584815181106113c6576113c661322e565b60200260200101516001600160a01b031663313ce5676040518163ffffffff1660e01b8152600401602060405180830381865afa15801561140b573d6000803e3d6000fd5b505050506040513d601f19601f8201168201806040525081019061142f9190613261565b61143a90600a613374565b905061146a836402540be4008787815181106114585761145861322e565b6020026020010151610cad9190613195565b61147490896131ef565b9750611492826402540be4008787815181106114585761145861322e565b61149c90886131ef565b965050505080806114ac90613215565b91505061128a565b505050915091565b600054610100900460ff16158080156114dc5750600054600160ff909116105b806114f65750303b1580156114f6575060005460ff166001145b6115595760405162461bcd60e51b815260206004820152602e60248201527f496e697469616c697a61626c653a20636f6e747261637420697320616c72656160448201526d191e481a5b9a5d1a585b1a5e995960921b60648201526084016105f5565b6000805460ff19166001179055801561157c576000805461ff0019166101001790555b845161158f906065906020880190612cb4565b50606680546001600160a01b038087166001600160a01b031992831617909255606780549286169290911691909117905560688054831515600160a01b0260ff60a01b199091161790556115e16123ca565b8015611627576000805461ff0019169055604051600181527f7f26b83ff96e1f2b6a682f133852f6798a09c465da95921460cefb38474024989060200160405180910390a15b5050505050565b6033546001600160a01b031690565b611645611e5f565b6068805460ff60a01b1916600160a01b831515908102919091179091556040805191825233602083015242908201527ff85e9b14a3442aa137bf4cddc5f7039bf877c99d78b161457a577242f7ec96ac906060016104c7565b60008060008060405180610100016040528060008152602001600081526020016000815260200160008152602001600081526020016000815260200160008152602001600081525090506000806116f487610872565b915091506000806117048961126c565b9150915060006117138a610d02565b606087018690526080870185905260a08701939093525060c085015260e0840152600091670de0b6b3a76400009161174a916131ef565b61175491906131c2565b90506000670de0b6b3a7640000600a8460c001518560a0015161177791906131ef565b61178191906131c2565b61178b91906131c2565b90506000670de0b6b3a7640000600a8560e001516117a991906131c2565b6117b391906131c2565b905060006117c184846123f9565b905060006117d86117d28387613202565b846123f9565b9050811561188d57600060036117ef600585613195565b6117f99190613195565b61180b90670de0b6b3a7640000613195565b9050808760200181815161181f91906131ef565b90525060a0870151600090670de0b6b3a76400009061184e9061184490600a906131c2565b8a606001516123f9565b61185891906131c2565b9050801561188a578361186b8284613195565b61187591906131c2565b8860400181815161188691906131ef565b9052505b50505b80156118d15760036118a0600183613195565b6118aa9190613195565b6118bc90670de0b6b3a7640000613195565b866020018181516118cd91906131ef565b9052505b6067546040516370a0823160e01b81526000916001600160a01b0316906370a0823190611902908e90600401612e54565b602060405180830381865afa15801561191f573d6000803e3d6000fd5b505050506040513d601f19601f8201168201806040525081019061194391906131d6565b90506000876040015182101561195d575050604086015160015b600082896020015161196f9190613383565b9050600081121561199a5762015180611989600e836133a3565b61199391906133a3565b89526119b7565b6301e133806119aa6003836133a3565b6119b491906133a3565b89525b81156119e057886000015189602001518a604001519b509b509b505050505050505050506119fc565b8860000151896020015160009b509b509b505050505050505050505b9193909250565b60006106f28261240f565b6000611a18611cbf565b90506000805b8251811015611a7457336001600160a01b0316838281518110611a4357611a4361322e565b60200260200101516001600160a01b031603611a625760019150611a74565b80611a6c81613215565b915050611a1e565b5060005b606554811015611ad457336001600160a01b031660658281548110611a9f57611a9f61322e565b6000918252602090912001546001600160a01b031603611ac25760019150611ad4565b80611acc81613215565b915050611a78565b5080611b355760405162461bcd60e51b815260206004820152602a60248201527f4f6e6c7920506f6f6c206f7220735072696d652063616e2063616c6c207468696044820152693990333ab731ba34b7b760b11b60648201526084016105f5565b60675460405163bf18c23960e01b81526001600160a01b039091169063bf18c23990611b65908690600401612e54565b600060405180830381600087803b158015611b7f57600080fd5b505af1158015611b93573d6000803e3d6000fd5b50505050505050565b60005b8151811015611bdc57611bca828281518110611bbd57611bbd61322e565b6020026020010151611094565b80611bd481613215565b915050611b9f565b5050565b6000611bea612228565b905090565b611bf7611e5f565b6001600160a01b038116611c635760405162461bcd60e51b815260206004820152602d60248201527f50656e64696e674f776e61626c653a206e6577206f776e65722069732074686560448201526c207a65726f206164647265737360981b60648201526084016105f5565b611c6c8161223b565b806001600160a01b0316611c7e61162e565b6001600160a01b03167fed8889f560326eb138920d842192f0eb3dd22b4f139c87a2c57538e05bae127860405160405180910390a350565b6112698161241a565b60606000606660009054906101000a90046001600160a01b03166001600160a01b03166366273c196040518163ffffffff1660e01b8152600401600060405180830381865afa158015611d16573d6000803e3d6000fd5b505050506040513d6000823e601f3d908101601f19168201604052611d3e91908101906133d1565b9050600081516001600160401b03811115611d5b57611d5b612d2e565b604051908082528060200260200182016040528015611d84578160200160208202803683370190505b50905060005b825181101561108d5760665483516001600160a01b0390911690630edc25b690859084908110611dbc57611dbc61322e565b60200260200101516040518263ffffffff1660e01b8152600401611de291815260200190565b602060405180830381865afa158015611dff573d6000803e3d6000fd5b505050506040513d601f19601f82011682018060405250810190611e239190613244565b828281518110611e3557611e3561322e565b6001600160a01b039092166020928302919091019091015280611e5781613215565b915050611d8a565b33611e6861162e565b6001600160a01b0316146111ae5760405162461bcd60e51b815260206004820181905260248201527f4f776e61626c653a2063616c6c6572206973206e6f7420746865206f776e657260448201526064016105f5565b604080516001808252818301909252600091829190602080830190803683370190505090508281600081518110611ef757611ef761322e565b602002602001018181525050611f0c816121cb565b600081518110611f1e57611f1e61322e565b6020026020010151915050919050565b60006602ed57011e0000601f1936013581161480611f5f576040516373bb264f60e11b815260040160405180910390fd5b60003660291115611f8357604051632bcb7bc560e11b815260040160405180910390fd5b5060281936013560006009611f9e600362ffffff85166131ef565b611fa891906131ef565b905036611fb66002836131ef565b1115611fd55760405163c30a7bd760e01b815260040160405180910390fd5b9392505050565b600080611fea6020846131ef565b90503681111561200d57604051632bcb7bc560e11b815260040160405180910390fd5b36033592915050565b60008060006120248461249a565b9092509050604e6120368260206131ef565b6120409084613195565b61204a91906131ef565b949350505050565b600080806000198587098587029250828110838203039150508060000361208b576000841161208057600080fd5b508290049050611fd5565b80841161209757600080fd5b60008486880980840393811190920391905060006120b7861960016131ef565b86169586900495938490049360008190030460010190506120d88184613195565b9093179260006120e9876003613195565b60021890506120f88188613195565b612103906002613202565b61210d9082613195565b90506121198188613195565b612124906002613202565b61212e9082613195565b905061213a8188613195565b612145906002613202565b61214f9082613195565b905061215b8188613195565b612166906002613202565b6121709082613195565b905061217c8188613195565b612187906002613202565b6121919082613195565b905061219d8188613195565b6121a8906002613202565b6121b29082613195565b90506121be8186613195565b9998505050505050505050565b60606106f2826124f1565b603380546001600160a01b038381166001600160a01b0319831681179093556040519116919082907f8be0079c531659141344cd1fd0a4f28419497f9722a3daafe3b4186f6b6457e090600090a35050565b6000805160206134b68339815191525490565b6000805160206134b683398151915255565b6060600082516001600160401b0381111561226a5761226a612d2e565b604051908082528060200260200182016040528015612293578160200160208202803683370190505b50905060005b83518110156123c05760665484516001600160a01b039091169063f823f1e0908690849081106122cb576122cb61322e565b60200260200101516001600160a01b0316639d76ea586040518163ffffffff1660e01b8152600401602060405180830381865afa158015612310573d6000803e3d6000fd5b505050506040513d601f19601f820116820180604052508101906123349190613244565b6040518263ffffffff1660e01b81526004016123509190612e54565b602060405180830381865afa15801561236d573d6000803e3d6000fd5b505050506040513d601f19601f8201168201806040525081019061239191906131d6565b8282815181106123a3576123a361322e565b6020908102919091010152806123b881613215565b915050612299565b50611fd5816121cb565b600054610100900460ff166123f15760405162461bcd60e51b81526004016105f590613456565b6111ae6126b3565b600081831061240857816106ef565b5090919050565b60006106f2826126e2565b60006124286103e8836131c2565b90508042101561246657603c61243e4283613202565b1115611bdc5760405163b6b0916d60e01b8152600481018290524260248201526044016105f5565b60b46124728242613202565b1115611bdc57604051630321d0b560e01b8152600481018290524260248201526044016105f5565b6000808080806124ab6041876131ef565b905060006124c46124bd6020846131ef565b369061279d565b8035945090506124d581600361279d565b62ffffff9490941697933563ffffffff16965092945050505050565b6060600082516001600160401b0381111561250e5761250e612d2e565b604051908082528060200260200182016040528015612537578160200160208202803683370190505b509050600083516001600160401b0381111561255557612555612d2e565b60405190808252806020026020018201604052801561257e578160200160208202803683370190505b509050600084516001600160401b0381111561259c5761259c612d2e565b6040519080825280602002602001820160405280156125cf57816020015b60608152602001906001900390816125ba5790505b50905060005b855181101561262d576040805160038082526080820190925290602082016060803683370190505082828151811061260f5761260f61322e565b6020026020010181905250808061262590613215565b9150506125d5565b506000612638611f2e565b9050600061264582611fdc565b61ffff1690506126566002836131ef565b60405190925060005b8281101561269c5760006126768a898989896127a9565b905061268281866131ef565b94508260405250808061269490613215565b91505061265f565b506126a78487612a35565b98975050505050505050565b600054610100900460ff166126da5760405162461bcd60e51b81526004016105f590613456565b6111ae612b4d565b6000815160000361270657604051639e198af960e01b815260040160405180910390fd5b61270f82612b7d565b60006002835161271f91906131c2565b90506002835161272f91906134a1565b60000361278b57600061277e84612747600185613202565b815181106127575761275761322e565b60200260200101518584815181106127715761277161322e565b6020026020010151612bc5565b905061204a6002826131c2565b828181518110611f1e57611f1e61322e565b60006106ef8284613202565b6000806000806127b88561249a565b909250905060008080606081600d6127db6127d46020896131ef565b8990612bd1565b6127e591906131ef565b905060006127f76124bd60688d6131ef565b905060006128148361280a60418f6131ef565b6124bd91906131ef565b90506128208382612833565b9350826020850120945081359650612857565b60408051838152602081850181019092526000910183838237601f19019392505050565b6128688765ffffffffffff16611cb6565b61287c8561287760418f6131ef565b612bdd565b9550612887866104fc565b60ff1699505050505050505060008060005b84811015612a0f576128ac888583612c55565b909350915060005b8c518110156129fc578c81815181106128cf576128cf61322e565b602002602001015184036129ea5760008b82815181106128f1576128f161322e565b6020026020010151905061290a81896001901b16151590565b1580156129335750600360ff168d83815181106129295761292961322e565b6020026020010151105b156129e4578c828151811061294a5761294a61322e565b60200260200101805180919061295f90613215565b81525050838b83815181106129765761297661322e565b602002602001015160018f85815181106129925761299261322e565b60200260200101516129a49190613202565b815181106129b4576129b461322e565b60209081029190910101526001881b81178c83815181106129d7576129d761322e565b6020026020010181815250505b506129fc565b806129f481613215565b9150506128b4565b5080612a0781613215565b915050612899565b50505081602082612a2091906131ef565b612a2a9190613195565b6121be90604e6131ef565b6060600083516001600160401b03811115612a5257612a52612d2e565b604051908082528060200260200182016040528015612a7b578160200160208202803683370190505b509050600360005b8551811015612b435781858281518110612a9f57612a9f61322e565b60200260200101511015612aec57848181518110612abf57612abf61322e565b602002602001015182604051632b13aef560e01b81526004016105f5929190918252602082015260400190565b6000612b10878381518110612b0357612b0361322e565b6020026020010151611a03565b905080848381518110612b2557612b2561322e565b60209081029190910101525080612b3b81613215565b915050612a83565b5090949350505050565b600054610100900460ff16612b745760405162461bcd60e51b81526004016105f590613456565b6111ae336121d6565b8051602082016020820281019150805b8281101561119657815b81811015612bbc578151815180821015612bb2578084528183525b5050602001612b97565b50602001612b8d565b60006106ef82846131ef565b60006106ef8284613195565b60408051600080825260208083018085528690523685900380850135831a948401859052803560608501819052910135608084018190529193909260019060a0016020604051602081039080840390855afa158015612c40573d6000803e3d6000fd5b5050604051601f190151979650505050505050565b60008080612c64604e876131ef565b90506000612c91612c8a612c796020896131ef565b612c848860016131ef565b90612bd1565b8390612bc5565b90506000612c9f368361279d565b80359960209091013598509650505050505050565b828054828255906000526020600020908101928215612d09579160200282015b82811115612d0957825182546001600160a01b0319166001600160a01b03909116178255602090920191600190910190612cd4565b50612d15929150612d19565b5090565b5b80821115612d155760008155600101612d1a565b634e487b7160e01b600052604160045260246000fd5b604051601f8201601f191681016001600160401b0381118282101715612d6c57612d6c612d2e565b604052919050565b60006001600160401b03821115612d8d57612d8d612d2e565b5060051b60200190565b6001600160a01b038116811461126957600080fd5b600082601f830112612dbd57600080fd5b81356020612dd2612dcd83612d74565b612d44565b82815260059290921b84018101918181019086841115612df157600080fd5b8286015b84811015612e15578035612e0881612d97565b8352918301918301612df5565b509695505050505050565b600060208284031215612e3257600080fd5b81356001600160401b03811115612e4857600080fd5b61204a84828501612dac565b6001600160a01b0391909116815260200190565b600060208284031215612e7a57600080fd5b8135611fd581612d97565b60008060408385031215612e9857600080fd5b8235612ea381612d97565b946020939093013593505050565b600060208284031215612ec357600080fd5b5035919050565b803580151581146105fe57600080fd5b60008060008060808587031215612ef057600080fd5b84356001600160401b03811115612f0657600080fd5b612f1287828801612dac565b9450506020850135612f2381612d97565b92506040850135612f3381612d97565b9150612f4160608601612eca565b905092959194509250565b600060208284031215612f5e57600080fd5b6106ef82612eca565b60006020808385031215612f7a57600080fd5b82356001600160401b03811115612f9057600080fd5b8301601f81018513612fa157600080fd5b8035612faf612dcd82612d74565b81815260059190911b82018301908381019087831115612fce57600080fd5b928401925b82841015612fec57833582529284019290840190612fd3565b979650505050505050565b600060208083528351808285015260005b8181101561302457858101830151858201604001528201613008565b506000604082860101526040601f19601f8301168501019250505092915050565b6000602080838503121561305857600080fd5b82356001600160401b0381111561306e57600080fd5b8301601f8101851361307f57600080fd5b803561308d612dcd82612d74565b81815260059190911b820183019083810190878311156130ac57600080fd5b928401925b82841015612fec5783356130c481612d97565b825292840192908401906130b1565b6020808252825182820181905260009190848201906040850190845b818110156131145783516001600160a01b0316835292840192918401916001016130ef565b50909695505050505050565b606080825284519082018190526000906020906080840190828801845b828110156131625781516001600160a01b03168452928401929084019060010161313d565b5050506001600160a01b0395909516908301525060400152919050565b634e487b7160e01b600052601160045260246000fd5b80820281158282048414176106f2576106f261317f565b634e487b7160e01b600052601260045260246000fd5b6000826131d1576131d16131ac565b500490565b6000602082840312156131e857600080fd5b5051919050565b808201808211156106f2576106f261317f565b818103818111156106f2576106f261317f565b6000600182016132275761322761317f565b5060010190565b634e487b7160e01b600052603260045260246000fd5b60006020828403121561325657600080fd5b8151611fd581612d97565b60006020828403121561327357600080fd5b815160ff81168114611fd557600080fd5b600181815b808511156132bf5781600019048211156132a5576132a561317f565b808516156132b257918102915b93841c9390800290613289565b509250929050565b6000826132d6575060016106f2565b816132e3575060006106f2565b81600181146132f957600281146133035761331f565b60019150506106f2565b60ff8411156133145761331461317f565b50506001821b6106f2565b5060208310610133831016604e8410600b8410161715613342575081810a6106f2565b61334c8383613284565b80600019048211156133605761336061317f565b029392505050565b60006106ef83836132c7565b60006106ef60ff8416836132c7565b818103600083128015838313168383128216171561108d5761108d61317f565b6000826133b2576133b26131ac565b600160ff1b8214600019841416156133cc576133cc61317f565b500590565b600060208083850312156133e457600080fd5b82516001600160401b038111156133fa57600080fd5b8301601f8101851361340b57600080fd5b8051613419612dcd82612d74565b81815260059190911b8201830190838101908783111561343857600080fd5b928401925b82841015612fec5783518252928401929084019061343d565b6020808252602b908201527f496e697469616c697a61626c653a20636f6e7472616374206973206e6f74206960408201526a6e697469616c697a696e6760a81b606082015260800190565b6000826134b0576134b06131ac565b50069056fe63a0d9df49fae3f1b9d24f8dc819a568c429a1b11d0d8e9de63df53a0194acb2a2646970667358221220f312e236d70a4b9a2846e3af563452777336d9ca12f9e36f96a28a49d8f6d46b64736f6c63430008110033",
  "devdoc": {
    "kind": "dev",
    "methods": {
      "aggregateValues(uint256[])": {
        "details": "This function may be overridden by the child consumer contract. It should aggregate values from different signers to a single uint value. By default, it calculates the median value",
        "params": {
          "values": "An array of uint256 values from different signers"
        },
        "returns": {
          "_0": "Result of the aggregation in the form of a single number"
        }
      },
      "getDataServiceId()": {
        "details": "This function must be implemented by the child consumer contract. It should return dataServiceId which DataServiceWrapper will use if not provided explicitly . If not overridden, value will always have to be provided explicitly in DataServiceWrapper.",
        "returns": {
          "_0": "dataServiceId being consumed by contract"
        }
      },
      "getUniqueSignersThreshold()": {
        "details": "This function should be overridden by the child consumer contract.",
        "returns": {
          "_0": "The minimum required value of unique authorised signers"
        }
      },
      "owner()": {
        "details": "Returns the address of the current owner."
      },
      "renounceOwnership()": {
        "details": "Leaves the contract without owner. It will not be possible to call `onlyOwner` functions. Can only be called by the current owner. NOTE: Renouncing ownership will leave the contract without an owner, thereby disabling any functionality that is only available to the owner."
      },
      "updateBorrowersRegistry(address)": {
        "details": "Can only be called by the contract owner.",
        "params": {
          "newBorrowersRegistry": "The address of the new borrowers registry contract."
        }
      },
      "updateTokenManager(address)": {
        "details": "Can only be called by the contract owner.",
        "params": {
          "newTokenManager": "The address of the new token manager contract."
        }
      },
      "updateWhitelistedSPrimeContracts(address[])": {
        "details": "Can only be called by the contract owner.",
        "params": {
          "newWhitelistedSPrimeContracts": "An array of addresses representing the new list of whitelisted sPrime contracts."
        }
      },
      "validateTimestamp(uint256)": {
        "details": "This function may be overridden by the child consumer contract. It should validate the timestamp against the current time (block.timestamp) It should revert with a helpful message if the timestamp is not valid",
        "params": {
          "receivedTimestampMilliseconds": "Timestamp extracted from calldata"
        }
      }
    },
    "version": 1
  },
  "userdoc": {
    "kind": "user",
    "methods": {
      "updateBorrowersRegistry(address)": {
        "notice": "Updates the borrowers registry contract."
      },
      "updateTokenManager(address)": {
        "notice": "Updates the token manager contract."
      },
      "updateWhitelistedSPrimeContracts(address[])": {
        "notice": "Updates the list of whitelisted sPrime contracts."
      }
    },
    "version": 1
  },
  "storageLayout": {
    "storage": [
      {
        "astId": 138,
        "contract": "contracts/token/vPrimeControllerArbitrum.sol:vPrimeControllerArbitrum",
        "label": "_initialized",
        "offset": 0,
        "slot": "0",
        "type": "t_uint8"
      },
      {
        "astId": 141,
        "contract": "contracts/token/vPrimeControllerArbitrum.sol:vPrimeControllerArbitrum",
        "label": "_initializing",
        "offset": 1,
        "slot": "0",
        "type": "t_bool"
      },
      {
        "astId": 755,
        "contract": "contracts/token/vPrimeControllerArbitrum.sol:vPrimeControllerArbitrum",
        "label": "__gap",
        "offset": 0,
        "slot": "1",
        "type": "t_array(t_uint256)50_storage"
      },
      {
        "astId": 10,
        "contract": "contracts/token/vPrimeControllerArbitrum.sol:vPrimeControllerArbitrum",
        "label": "_owner",
        "offset": 0,
        "slot": "51",
        "type": "t_address"
      },
      {
        "astId": 130,
        "contract": "contracts/token/vPrimeControllerArbitrum.sol:vPrimeControllerArbitrum",
        "label": "__gap",
        "offset": 0,
        "slot": "52",
        "type": "t_array(t_uint256)49_storage"
      },
      {
        "astId": 7153,
        "contract": "contracts/token/vPrimeControllerArbitrum.sol:vPrimeControllerArbitrum",
        "label": "whitelistedSPrimeContracts",
        "offset": 0,
        "slot": "101",
        "type": "t_array(t_contract(ISPrime)5592)dyn_storage"
      },
      {
        "astId": 7156,
        "contract": "contracts/token/vPrimeControllerArbitrum.sol:vPrimeControllerArbitrum",
        "label": "tokenManager",
        "offset": 0,
        "slot": "102",
        "type": "t_contract(ITokenManager)5816"
      },
      {
        "astId": 7159,
        "contract": "contracts/token/vPrimeControllerArbitrum.sol:vPrimeControllerArbitrum",
        "label": "vPrimeContract",
        "offset": 0,
        "slot": "103",
        "type": "t_contract(vPrime)7132"
      },
      {
        "astId": 7162,
        "contract": "contracts/token/vPrimeControllerArbitrum.sol:vPrimeControllerArbitrum",
        "label": "borrowersRegistry",
        "offset": 0,
        "slot": "104",
        "type": "t_contract(IBorrowersRegistry)5256"
      },
      {
        "astId": 7164,
        "contract": "contracts/token/vPrimeControllerArbitrum.sol:vPrimeControllerArbitrum",
        "label": "useOraclePrimeFeed",
        "offset": 20,
        "slot": "104",
        "type": "t_bool"
      }
    ],
    "types": {
      "t_address": {
        "encoding": "inplace",
        "label": "address",
        "numberOfBytes": "20"
      },
      "t_array(t_contract(ISPrime)5592)dyn_storage": {
        "base": "t_contract(ISPrime)5592",
        "encoding": "dynamic_array",
        "label": "contract ISPrime[]",
        "numberOfBytes": "32"
      },
      "t_array(t_uint256)49_storage": {
        "base": "t_uint256",
        "encoding": "inplace",
        "label": "uint256[49]",
        "numberOfBytes": "1568"
      },
      "t_array(t_uint256)50_storage": {
        "base": "t_uint256",
        "encoding": "inplace",
        "label": "uint256[50]",
        "numberOfBytes": "1600"
      },
      "t_bool": {
        "encoding": "inplace",
        "label": "bool",
        "numberOfBytes": "1"
      },
      "t_contract(IBorrowersRegistry)5256": {
        "encoding": "inplace",
        "label": "contract IBorrowersRegistry",
        "numberOfBytes": "20"
      },
      "t_contract(ISPrime)5592": {
        "encoding": "inplace",
        "label": "contract ISPrime",
        "numberOfBytes": "20"
      },
      "t_contract(ITokenManager)5816": {
        "encoding": "inplace",
        "label": "contract ITokenManager",
        "numberOfBytes": "20"
      },
      "t_contract(vPrime)7132": {
        "encoding": "inplace",
        "label": "contract vPrime",
        "numberOfBytes": "20"
      },
      "t_uint256": {
        "encoding": "inplace",
        "label": "uint256",
        "numberOfBytes": "32"
      },
      "t_uint8": {
        "encoding": "inplace",
        "label": "uint8",
        "numberOfBytes": "1"
      }
    }
  }
}