{
  "address": "0x28739d2A05D754b51F3441cBF64d4D2635ccfABC",
  "abi": [
    {
      "anonymous": false,
      "inputs": [
        {
          "indexed": false,
          "internalType": "uint8",
          "name": "version",
          "type": "uint8"
        }
      ],
      "name": "Initialized",
      "type": "event"
    },
    {
      "anonymous": false,
      "inputs": [
        {
          "indexed": true,
          "internalType": "address",
          "name": "oldVPrimeControllerAddress",
          "type": "address"
        },
        {
          "indexed": true,
          "internalType": "address",
          "name": "newVPrimeControllerAddress",
          "type": "address"
        },
        {
          "indexed": true,
          "internalType": "address",
          "name": "sender",
          "type": "address"
        },
        {
          "indexed": false,
          "internalType": "uint256",
          "name": "timestamp",
          "type": "uint256"
        }
      ],
      "name": "NewVPrimeControllerSet",
      "type": "event"
    },
    {
      "anonymous": false,
      "inputs": [
        {
          "indexed": true,
          "internalType": "address",
          "name": "from",
          "type": "address"
        },
        {
          "indexed": true,
          "internalType": "address",
          "name": "to",
          "type": "address"
        }
      ],
      "name": "OwnershipTransferRequested",
      "type": "event"
    },
    {
      "anonymous": false,
      "inputs": [
        {
          "indexed": true,
          "internalType": "address",
          "name": "previousOwner",
          "type": "address"
        },
        {
          "indexed": true,
          "internalType": "address",
          "name": "newOwner",
          "type": "address"
        }
      ],
      "name": "OwnershipTransferred",
      "type": "event"
    },
    {
      "anonymous": false,
      "inputs": [
        {
          "indexed": true,
          "internalType": "address",
          "name": "user",
          "type": "address"
        },
        {
          "indexed": true,
          "internalType": "address",
          "name": "sender",
          "type": "address"
        },
        {
          "indexed": false,
          "internalType": "uint256",
          "name": "timestamp",
          "type": "uint256"
        }
      ],
      "name": "UserNeedsUpdateCleared",
      "type": "event"
    },
    {
      "anonymous": false,
      "inputs": [
        {
          "indexed": true,
          "internalType": "address",
          "name": "user",
          "type": "address"
        },
        {
          "indexed": true,
          "internalType": "address",
          "name": "sender",
          "type": "address"
        },
        {
          "indexed": false,
          "internalType": "uint256",
          "name": "timestamp",
          "type": "uint256"
        }
      ],
      "name": "UserNeedsUpdateSet",
      "type": "event"
    },
    {
      "inputs": [],
      "name": "CLOCK_MODE",
      "outputs": [
        {
          "internalType": "string",
          "name": "",
          "type": "string"
        }
      ],
      "stateMutability": "pure",
      "type": "function"
    },
    {
      "inputs": [],
      "name": "acceptOwnership",
      "outputs": [],
      "stateMutability": "nonpayable",
      "type": "function"
    },
    {
      "inputs": [
        {
          "internalType": "address",
          "name": "user",
          "type": "address"
        },
        {
          "internalType": "int256",
          "name": "rate",
          "type": "int256"
        },
        {
          "internalType": "uint256",
          "name": "newBalanceLimit",
          "type": "uint256"
        }
      ],
      "name": "adjustRateAndCap",
      "outputs": [],
      "stateMutability": "nonpayable",
      "type": "function"
    },
    {
      "inputs": [
        {
          "internalType": "address",
          "name": "user",
          "type": "address"
        },
        {
          "internalType": "int256",
          "name": "rate",
          "type": "int256"
        },
        {
          "internalType": "uint256",
          "name": "newBalanceLimit",
          "type": "uint256"
        },
        {
          "internalType": "uint256",
          "name": "balance",
          "type": "uint256"
        }
      ],
      "name": "adjustRateCapAndBalance",
      "outputs": [],
      "stateMutability": "nonpayable",
      "type": "function"
    },
    {
      "inputs": [
        {
          "internalType": "address",
          "name": "account",
          "type": "address"
        }
      ],
      "name": "balanceOf",
      "outputs": [
        {
          "internalType": "uint256",
          "name": "",
          "type": "uint256"
        }
      ],
      "stateMutability": "view",
      "type": "function"
    },
    {
      "inputs": [],
      "name": "borrowersRegistry",
      "outputs": [
        {
          "internalType": "contract IBorrowersRegistry",
          "name": "",
          "type": "address"
        }
      ],
      "stateMutability": "view",
      "type": "function"
    },
    {
      "inputs": [
        {
          "internalType": "address",
          "name": "account",
          "type": "address"
        },
        {
          "internalType": "uint32",
          "name": "pos",
          "type": "uint32"
        }
      ],
      "name": "checkpoints",
      "outputs": [
        {
          "components": [
            {
              "internalType": "uint32",
              "name": "blockTimestamp",
              "type": "uint32"
            },
            {
              "internalType": "uint256",
              "name": "balance",
              "type": "uint256"
            },
            {
              "internalType": "int256",
              "name": "rate",
              "type": "int256"
            },
            {
              "internalType": "uint256",
              "name": "balanceLimit",
              "type": "uint256"
            }
          ],
          "internalType": "struct vPrime.Checkpoint",
          "name": "",
          "type": "tuple"
        }
      ],
      "stateMutability": "view",
      "type": "function"
    },
    {
      "inputs": [],
      "name": "clock",
      "outputs": [
        {
          "internalType": "uint48",
          "name": "",
          "type": "uint48"
        }
      ],
      "stateMutability": "view",
      "type": "function"
    },
    {
      "inputs": [],
      "name": "getLastRecordedTotalSupply",
      "outputs": [
        {
          "internalType": "uint256",
          "name": "",
          "type": "uint256"
        }
      ],
      "stateMutability": "view",
      "type": "function"
    },
    {
      "inputs": [
        {
          "internalType": "uint256",
          "name": "timestamp",
          "type": "uint256"
        }
      ],
      "name": "getPastTotalSupply",
      "outputs": [
        {
          "internalType": "uint256",
          "name": "",
          "type": "uint256"
        }
      ],
      "stateMutability": "view",
      "type": "function"
    },
    {
      "inputs": [
        {
          "internalType": "address",
          "name": "account",
          "type": "address"
        },
        {
          "internalType": "uint256",
          "name": "timestamp",
          "type": "uint256"
        }
      ],
      "name": "getPastVotes",
      "outputs": [
        {
          "internalType": "uint256",
          "name": "",
          "type": "uint256"
        }
      ],
      "stateMutability": "view",
      "type": "function"
    },
    {
      "inputs": [
        {
          "internalType": "address",
          "name": "account",
          "type": "address"
        }
      ],
      "name": "getVotes",
      "outputs": [
        {
          "internalType": "uint256",
          "name": "",
          "type": "uint256"
        }
      ],
      "stateMutability": "view",
      "type": "function"
    },
    {
      "inputs": [
        {
          "internalType": "contract IBorrowersRegistry",
          "name": "_borrowersRegistry",
          "type": "address"
        }
      ],
      "name": "initialize",
      "outputs": [],
      "stateMutability": "nonpayable",
      "type": "function"
    },
    {
      "inputs": [
        {
          "internalType": "address",
          "name": "",
          "type": "address"
        }
      ],
      "name": "needsUpdate",
      "outputs": [
        {
          "internalType": "bool",
          "name": "",
          "type": "bool"
        }
      ],
      "stateMutability": "view",
      "type": "function"
    },
    {
      "inputs": [
        {
          "internalType": "address",
          "name": "account",
          "type": "address"
        }
      ],
      "name": "numCheckpoints",
      "outputs": [
        {
          "internalType": "uint32",
          "name": "",
          "type": "uint32"
        }
      ],
      "stateMutability": "view",
      "type": "function"
    },
    {
      "inputs": [],
      "name": "owner",
      "outputs": [
        {
          "internalType": "address",
          "name": "",
          "type": "address"
        }
      ],
      "stateMutability": "view",
      "type": "function"
    },
    {
      "inputs": [],
      "name": "pendingOwner",
      "outputs": [
        {
          "internalType": "address",
          "name": "",
          "type": "address"
        }
      ],
      "stateMutability": "view",
      "type": "function"
    },
    {
      "inputs": [],
      "name": "renounceOwnership",
      "outputs": [],
      "stateMutability": "nonpayable",
      "type": "function"
    },
    {
      "inputs": [
        {
          "internalType": "address",
          "name": "user",
          "type": "address"
        }
      ],
      "name": "setUserNeedsUpdate",
      "outputs": [],
      "stateMutability": "nonpayable",
      "type": "function"
    },
    {
      "inputs": [
        {
          "internalType": "address",
          "name": "_vPrimeControllerAddress",
          "type": "address"
        }
      ],
      "name": "setVPrimeControllerAddress",
      "outputs": [],
      "stateMutability": "nonpayable",
      "type": "function"
    },
    {
      "inputs": [
        {
          "internalType": "address",
          "name": "newOwner",
          "type": "address"
        }
      ],
      "name": "transferOwnership",
      "outputs": [],
      "stateMutability": "nonpayable",
      "type": "function"
    },
    {
      "inputs": [],
      "name": "vPrimeControllerAddress",
      "outputs": [
        {
          "internalType": "address",
          "name": "",
          "type": "address"
        }
      ],
      "stateMutability": "view",
      "type": "function"
    }
  ],
  "transactionHash": "0x7eda164d48335446223fab0b4ad40bbda12f687ab957e4d76dadda05037ed23b",
  "args": [],
  "numDeployments": 2,
  "solcInputHash": "5a15ee69687c5c79459aa87b82475021",
  "bytecode": "0x608060405234801561001057600080fd5b506119fb806100206000396000f3fe608060405234801561001057600080fd5b50600436106101125760003560e01c8063023d9529146101175780633a46b1a81461014f578063470379c0146101705780634bf5d7e9146101855780636fcfff45146101b557806370a08231146101dd578063715018a6146101f057806379ba5097146101f8578063808d7c9b146102005780638da5cb5b146102135780638e539e8c1461023357806391ddadf414610246578063942b04771461025c5780639ab24eb01461026f578063aa635e4414610282578063bf18c2391461028a578063c4d66de81461029d578063d06dca89146102b0578063e30c3978146102c3578063f1127ed8146102cb578063f2fde38b14610317578063fc2ceb381461032a575b600080fd5b61013a6101253660046116a1565b609a6020526000908152604090205460ff1681565b60405190151581526020015b60405180910390f35b61016261015d3660046116be565b61033d565b604051908152602001610146565b61018361017e3660046116ea565b61039a565b005b604080518082018252600e81526d06d6f64653d74696d657374616d760941b602082015290516101469190611725565b6101c86101c33660046116a1565b61049b565b60405163ffffffff9091168152602001610146565b6101626101eb3660046116a1565b6104bd565b61018361064b565b61018361065f565b61018361020e3660046116a1565b6106f1565b61021b6107c8565b6040516001600160a01b039091168152602001610146565b610162610241366004611773565b6107d7565b60405165ffffffffffff42168152602001610146565b60985461021b906001600160a01b031681565b61016261027d3660046116a1565b610819565b610162610887565b6101836102983660046116a1565b6108e2565b6101836102ab3660046116a1565b610978565b60975461021b906001600160a01b031681565b61021b610aa5565b6102de6102d936600461178c565b610ab4565b6040516101469190815163ffffffff16815260208083015190820152604080830151908201526060918201519181019190915260800190565b6101836103253660046116a1565b610b64565b6101836103383660046117ce565b610c2b565b60004265ffffffffffff16821061036f5760405162461bcd60e51b815260040161036690611803565b60405180910390fd5b6001600160a01b03831660009081526099602052604090206103919083610d69565b90505b92915050565b6098546001600160a01b0316336001600160a01b0316146103cd5760405162461bcd60e51b81526004016103669061182a565b6103d5610e34565b60006103e085610819565b905060006103ed82610e8d565b6103f684610e8d565b610400919061188c565b9050600081131561043f5761041481610efb565b6001600160a01b038616600090815260996020526040902061043890848787610f8f565b5050610480565b600081121561045957610414610454826118b3565b611107565b6001600160a01b038616600090815260996020526040902061047d90838787610f8f565b50505b61048986611126565b50506104956001606555565b50505050565b6001600160a01b0381166000908152609960205260408120546103949061117b565b6001600160a01b0381166000908152609960205260408120548082036104e65750600092915050565b6001600160a01b03831660009081526099602052604081206105096001846118cf565b81548110610519576105196118e2565b60009182526020808320604080516080810182526004909402909101805463ffffffff1684526001810154848401526002810154848301526003015460608401526001600160a01b0388168452609a9091529091205490915060ff161561058557602001519392505050565b805160009061059a9063ffffffff16426118cf565b90506000808360400151126105f15760008284604001516105bb91906118f8565b90508084602001516105cd919061190f565b9150836060015182116105e057816105e6565b83606001515b979650505050505050565b6000828460400151610602906118b3565b61060c91906118f8565b9050836020015181111561062857505050606001519392505050565b80846020015161063891906118cf565b9150836060015182106105e057816105e6565b6106536111e0565b61065d600061123f565b565b6000610669611291565b9050336001600160a01b038216146106db5760405162461bcd60e51b815260206004820152602f60248201527f50656e64696e674f776e61626c653a2063616c6c6572206973206e6f7420746860448201526e32903832b73234b7339037bbb732b960891b6064820152608401610366565b6106e48161123f565b6106ee60006112a4565b50565b6106f96111e0565b6001600160a01b0381166107645760405162461bcd60e51b815260206004820152602c60248201527f765072696d653a20765072696d65436f6e74726f6c6c6572206164647265737360448201526b02063616e6e6f7420626520360a41b6064820152608401610366565b609880546001600160a01b038381166001600160a01b031983168117909355604051911691339183907fbc0692a6c2643d1ba3230b1d8110e0b7ad297b7c4bd1bc2666706e2a0b92f2cb906107bc9042815260200190565b60405180910390a45050565b6033546001600160a01b031690565b60004265ffffffffffff1682106108005760405162461bcd60e51b815260040161036690611803565b3060009081526099602052604090206103949083610d69565b6001600160a01b038116600090815260996020526040812054801561087d576001600160a01b038316600090815260996020526040902080546000198301908110610866576108666118e2565b906000526020600020906004020160010154610880565b60005b9392505050565b3060009081526099602052604081205480156108d957306000908152609960205260409020805460001983019081106108c2576108c26118e2565b9060005260206000209060040201600101546108dc565b60005b91505090565b6098546001600160a01b0316336001600160a01b0316146109155760405162461bcd60e51b81526004016103669061182a565b6001600160a01b0381166000818152609a602052604090819020805460ff19166001179055513391907fd46537282dac363eb39ee0a441dec0b5a5020dad1e27b8a760fb1de42e1b05af9061096d9042815260200190565b60405180910390a350565b600054610100900460ff16158080156109985750600054600160ff909116105b806109b25750303b1580156109b2575060005460ff166001145b610a155760405162461bcd60e51b815260206004820152602e60248201527f496e697469616c697a61626c653a20636f6e747261637420697320616c72656160448201526d191e481a5b9a5d1a585b1a5e995960921b6064820152608401610366565b6000805460ff191660011790558015610a38576000805461ff0019166101001790555b609780546001600160a01b0319166001600160a01b038416179055610a5b6112b6565b8015610aa1576000805461ff0019169055604051600181527f7f26b83ff96e1f2b6a682f133852f6798a09c465da95921460cefb38474024989060200160405180910390a15b5050565b6000610aaf611291565b905090565b610ae56040518060800160405280600063ffffffff1681526020016000815260200160008152602001600081525090565b6001600160a01b0383166000908152609960205260409020805463ffffffff8416908110610b1557610b156118e2565b6000918252602091829020604080516080810182526004909302909101805463ffffffff1683526001810154938301939093526002830154908201526003909101546060820152905092915050565b610b6c6111e0565b6001600160a01b038116610bd85760405162461bcd60e51b815260206004820152602d60248201527f50656e64696e674f776e61626c653a206e6577206f776e65722069732074686560448201526c207a65726f206164647265737360981b6064820152608401610366565b610be1816112a4565b806001600160a01b0316610bf36107c8565b6001600160a01b03167fed8889f560326eb138920d842192f0eb3dd22b4f139c87a2c57538e05bae127860405160405180910390a350565b6098546001600160a01b0316336001600160a01b031614610c5e5760405162461bcd60e51b81526004016103669061182a565b610c66610e34565b6000610c7184610819565b90506000610c7e856104bd565b90506000610c8b83610e8d565b610c9483610e8d565b610c9e919061188c565b90506000811315610ce057610cb281610efb565b6001600160a01b0386166000908152609960205260409020610cd9906112e58388886112f1565b5050610d4e565b6000811215610d2457610cf5610454826118b3565b6001600160a01b0386166000908152609960205260409020610cd990611474610d1d846118b3565b88886112f1565b6001600160a01b0386166000908152609960205260408120610d4b916112e59088886112f1565b50505b610d5786611126565b505050610d646001606555565b505050565b815460009081816005811115610dc3576000610d8484611480565b610d8e90856118cf565b600088815260209020909150869082015463ffffffff161115610db357809150610dc1565b610dbe81600161190f565b92505b505b80821015610e10576000610dd78383611568565b600088815260209020909150869082015463ffffffff161115610dfc57809150610e0a565b610e0781600161190f565b92505b50610dc3565b8015610e2757600086815260209020810154610e2a565b60005b9695505050505050565b600260655403610e865760405162461bcd60e51b815260206004820152601f60248201527f5265656e7472616e637947756172643a207265656e7472616e742063616c6c006044820152606401610366565b6002606555565b60006001600160ff1b03821115610ef75760405162461bcd60e51b815260206004820152602860248201527f53616665436173743a2076616c756520646f65736e27742066697420696e2061604482015267371034b73a191a9b60c11b6064820152608401610366565b5090565b6001600160e01b0381610f0c610887565b610f16919061190f565b1115610f705760405162461bcd60e51b8152602060048201526024808201527f546f74616c20737570706c79207269736b73206f766572666c6f77696e6720766044820152636f74657360e01b6064820152608401610366565b306000908152609960205260408120610d64916112e5908490806112f1565b835460009081908181156110055787610fa96001846118cf565b81548110610fb957610fb96118e2565b6000918252602091829020604080516080810182526004909302909101805463ffffffff1683526001810154938301939093526002830154908201526003909101546060820152611031565b6040518060800160405280600063ffffffff168152602001600081526020016000815260200160008152505b90506000821180156110515750805163ffffffff1665ffffffffffff4216145b15611070576020810187905260408101869052606081018590526110fc565b8760405180608001604052806110936110864290565b65ffffffffffff1661117b565b63ffffffff908116825260208083018c905260408084018c905260609384018b90528554600180820188556000978852968390208651600490920201805463ffffffff191691909416178355908401519482019490945592820151600284015501516003909101555b505094509492505050565b306000908152609960205260408120610d6491611474908490806112f1565b6001600160a01b0381166000818152609a602052604090819020805460ff19169055513391907ff9c9a93d8a693774a2d670454b0dcb5664c8b826803bf07442f3cf96eb31687f9061096d9042815260200190565b600063ffffffff821115610ef75760405162461bcd60e51b815260206004820152602660248201527f53616665436173743a2076616c756520646f65736e27742066697420696e203360448201526532206269747360d01b6064820152608401610366565b336111e96107c8565b6001600160a01b03161461065d5760405162461bcd60e51b815260206004820181905260248201527f4f776e61626c653a2063616c6c6572206973206e6f7420746865206f776e65726044820152606401610366565b603380546001600160a01b038381166001600160a01b0319831681179093556040519116919082907f8be0079c531659141344cd1fd0a4f28419497f9722a3daafe3b4186f6b6457e090600090a35050565b6000805160206119a68339815191525490565b6000805160206119a683398151915255565b600054610100900460ff166112dd5760405162461bcd60e51b815260040161036690611922565b61065d611583565b6000610391828461190f565b84546000908190818115611367578861130b6001846118cf565b8154811061131b5761131b6118e2565b6000918252602091829020604080516080810182526004909302909101805463ffffffff1683526001810154938301939093526002830154908201526003909101546060820152611393565b6040518060800160405280600063ffffffff168152602001600081526020016000815260200160008152505b9050806020015193506113aa84888a63ffffffff16565b92506000821180156113ca5750805163ffffffff1665ffffffffffff4216145b156113e957602081018390526040810186905260608101859052611468565b8860405180608001604052806113ff6110864290565b63ffffffff9081168252602080830188905260408084018c905260609384018b90528554600180820188556000978852968390208651600490920201805463ffffffff191691909416178355908401519482019490945592820151600284015501516003909101555b50509550959350505050565b600061039182846118cf565b60008160000361149257506000919050565b6000600161149f846115b2565b901c6001901b905060018184816114b8576114b861196d565b048201901c905060018184816114d0576114d061196d565b048201901c905060018184816114e8576114e861196d565b048201901c905060018184816115005761150061196d565b048201901c905060018184816115185761151861196d565b048201901c905060018184816115305761153061196d565b048201901c905060018184816115485761154861196d565b048201901c9050610880818285816115625761156261196d565b04611646565b60006115776002848418611983565b6103919084841661190f565b600054610100900460ff166115aa5760405162461bcd60e51b815260040161036690611922565b61065d61165c565b600080608083901c156115c757608092831c92015b604083901c156115d957604092831c92015b602083901c156115eb57602092831c92015b601083901c156115fd57601092831c92015b600883901c1561160f57600892831c92015b600483901c1561162157600492831c92015b600283901c1561163357600292831c92015b600183901c156103945760010192915050565b60008183106116555781610391565b5090919050565b600054610100900460ff166116835760405162461bcd60e51b815260040161036690611922565b61065d3361123f565b6001600160a01b03811681146106ee57600080fd5b6000602082840312156116b357600080fd5b81356108808161168c565b600080604083850312156116d157600080fd5b82356116dc8161168c565b946020939093013593505050565b6000806000806080858703121561170057600080fd5b843561170b8161168c565b966020860135965060408601359560600135945092505050565b600060208083528351808285015260005b8181101561175257858101830151858201604001528201611736565b506000604082860101526040601f19601f8301168501019250505092915050565b60006020828403121561178557600080fd5b5035919050565b6000806040838503121561179f57600080fd5b82356117aa8161168c565b9150602083013563ffffffff811681146117c357600080fd5b809150509250929050565b6000806000606084860312156117e357600080fd5b83356117ee8161168c565b95602085013595506040909401359392505050565b6020808252600d908201526c0467574757265206c6f6f6b757609c1b604082015260600190565b6020808252602c908201527f4f6e6c7920765072696d65436f6e74726f6c6c65722063616e2063616c6c207460408201526b3434b990333ab731ba34b7b760a11b606082015260800190565b634e487b7160e01b600052601160045260246000fd5b81810360008312801583831316838312821617156118ac576118ac611876565b5092915050565b6000600160ff1b82016118c8576118c8611876565b5060000390565b8181038181111561039457610394611876565b634e487b7160e01b600052603260045260246000fd5b808202811582820484141761039457610394611876565b8082018082111561039457610394611876565b6020808252602b908201527f496e697469616c697a61626c653a20636f6e7472616374206973206e6f74206960408201526a6e697469616c697a696e6760a81b606082015260800190565b634e487b7160e01b600052601260045260246000fd5b6000826119a057634e487b7160e01b600052601260045260246000fd5b50049056fe63a0d9df49fae3f1b9d24f8dc819a568c429a1b11d0d8e9de63df53a0194acb2a2646970667358221220b33838c3a75d1c58ded26adfe5745fab3ab4ef886c0ca1dabf6fc3c2ad79717564736f6c63430008110033",
  "devdoc": {
    "kind": "dev",
    "methods": {
      "CLOCK_MODE()": {
        "details": "Description of the clockx"
      },
      "checkpoints(address,uint32)": {
        "details": "Get the `pos`-th checkpoint for `account`."
      },
      "clock()": {
        "details": "Clock used for flagging checkpoints. Can be overridden to implement timestamp based checkpoints (and voting)."
      },
      "getPastTotalSupply(uint256)": {
        "details": "Retrieve the `totalSupply` at the end of `timestamp`. Note, this value is the sum of all balances. It is NOT the sum of all the delegated votes! Requirements: - `timestamp` must be in the past"
      },
      "getPastVotes(address,uint256)": {
        "details": "Retrieve the number of votes for `account` at the end of `timestamp`. Requirements: - `timestamp` must be in the past"
      },
      "getVotes(address)": {
        "details": "Gets the last recorded votes balance for `account`"
      },
      "numCheckpoints(address)": {
        "details": "Get number of checkpoints for `account`."
      },
      "owner()": {
        "details": "Returns the address of the current owner."
      },
      "renounceOwnership()": {
        "details": "Leaves the contract without owner. It will not be possible to call `onlyOwner` functions. Can only be called by the current owner. NOTE: Renouncing ownership will leave the contract without an owner, thereby disabling any functionality that is only available to the owner."
      },
      "setVPrimeControllerAddress(address)": {
        "details": "Can only be called by the contract owner.",
        "params": {
          "_vPrimeControllerAddress": "The address of the vPrimeController contract."
        }
      }
    },
    "version": 1
  },
  "userdoc": {
    "kind": "user",
    "methods": {
      "setVPrimeControllerAddress(address)": {
        "notice": "Sets the address of the vPrimeController contract."
      }
    },
    "version": 1
  },
  "storageLayout": {
    "storage": [
      {
        "astId": 138,
        "contract": "contracts/token/vPrime.sol:vPrime",
        "label": "_initialized",
        "offset": 0,
        "slot": "0",
        "type": "t_uint8"
      },
      {
        "astId": 141,
        "contract": "contracts/token/vPrime.sol:vPrime",
        "label": "_initializing",
        "offset": 1,
        "slot": "0",
        "type": "t_bool"
      },
      {
        "astId": 755,
        "contract": "contracts/token/vPrime.sol:vPrime",
        "label": "__gap",
        "offset": 0,
        "slot": "1",
        "type": "t_array(t_uint256)50_storage"
      },
      {
        "astId": 10,
        "contract": "contracts/token/vPrime.sol:vPrime",
        "label": "_owner",
        "offset": 0,
        "slot": "51",
        "type": "t_address"
      },
      {
        "astId": 130,
        "contract": "contracts/token/vPrime.sol:vPrime",
        "label": "__gap",
        "offset": 0,
        "slot": "52",
        "type": "t_array(t_uint256)49_storage"
      },
      {
        "astId": 314,
        "contract": "contracts/token/vPrime.sol:vPrime",
        "label": "_status",
        "offset": 0,
        "slot": "101",
        "type": "t_uint256"
      },
      {
        "astId": 383,
        "contract": "contracts/token/vPrime.sol:vPrime",
        "label": "__gap",
        "offset": 0,
        "slot": "102",
        "type": "t_array(t_uint256)49_storage"
      },
      {
        "astId": 22680,
        "contract": "contracts/token/vPrime.sol:vPrime",
        "label": "borrowersRegistry",
        "offset": 0,
        "slot": "151",
        "type": "t_contract(IBorrowersRegistry)13023"
      },
      {
        "astId": 22682,
        "contract": "contracts/token/vPrime.sol:vPrime",
        "label": "vPrimeControllerAddress",
        "offset": 0,
        "slot": "152",
        "type": "t_address"
      },
      {
        "astId": 22688,
        "contract": "contracts/token/vPrime.sol:vPrime",
        "label": "_checkpoints",
        "offset": 0,
        "slot": "153",
        "type": "t_mapping(t_address,t_array(t_struct(Checkpoint)22677_storage)dyn_storage)"
      },
      {
        "astId": 22692,
        "contract": "contracts/token/vPrime.sol:vPrime",
        "label": "needsUpdate",
        "offset": 0,
        "slot": "154",
        "type": "t_mapping(t_address,t_bool)"
      }
    ],
    "types": {
      "t_address": {
        "encoding": "inplace",
        "label": "address",
        "numberOfBytes": "20"
      },
      "t_array(t_struct(Checkpoint)22677_storage)dyn_storage": {
        "base": "t_struct(Checkpoint)22677_storage",
        "encoding": "dynamic_array",
        "label": "struct vPrime.Checkpoint[]",
        "numberOfBytes": "32"
      },
      "t_array(t_uint256)49_storage": {
        "base": "t_uint256",
        "encoding": "inplace",
        "label": "uint256[49]",
        "numberOfBytes": "1568"
      },
      "t_array(t_uint256)50_storage": {
        "base": "t_uint256",
        "encoding": "inplace",
        "label": "uint256[50]",
        "numberOfBytes": "1600"
      },
      "t_bool": {
        "encoding": "inplace",
        "label": "bool",
        "numberOfBytes": "1"
      },
      "t_contract(IBorrowersRegistry)13023": {
        "encoding": "inplace",
        "label": "contract IBorrowersRegistry",
        "numberOfBytes": "20"
      },
      "t_int256": {
        "encoding": "inplace",
        "label": "int256",
        "numberOfBytes": "32"
      },
      "t_mapping(t_address,t_array(t_struct(Checkpoint)22677_storage)dyn_storage)": {
        "encoding": "mapping",
        "key": "t_address",
        "label": "mapping(address => struct vPrime.Checkpoint[])",
        "numberOfBytes": "32",
        "value": "t_array(t_struct(Checkpoint)22677_storage)dyn_storage"
      },
      "t_mapping(t_address,t_bool)": {
        "encoding": "mapping",
        "key": "t_address",
        "label": "mapping(address => bool)",
        "numberOfBytes": "32",
        "value": "t_bool"
      },
      "t_struct(Checkpoint)22677_storage": {
        "encoding": "inplace",
        "label": "struct vPrime.Checkpoint",
        "members": [
          {
            "astId": 22670,
            "contract": "contracts/token/vPrime.sol:vPrime",
            "label": "blockTimestamp",
            "offset": 0,
            "slot": "0",
            "type": "t_uint32"
          },
          {
            "astId": 22672,
            "contract": "contracts/token/vPrime.sol:vPrime",
            "label": "balance",
            "offset": 0,
            "slot": "1",
            "type": "t_uint256"
          },
          {
            "astId": 22674,
            "contract": "contracts/token/vPrime.sol:vPrime",
            "label": "rate",
            "offset": 0,
            "slot": "2",
            "type": "t_int256"
          },
          {
            "astId": 22676,
            "contract": "contracts/token/vPrime.sol:vPrime",
            "label": "balanceLimit",
            "offset": 0,
            "slot": "3",
            "type": "t_uint256"
          }
        ],
        "numberOfBytes": "128"
      },
      "t_uint256": {
        "encoding": "inplace",
        "label": "uint256",
        "numberOfBytes": "32"
      },
      "t_uint32": {
        "encoding": "inplace",
        "label": "uint32",
        "numberOfBytes": "4"
      },
      "t_uint8": {
        "encoding": "inplace",
        "label": "uint8",
        "numberOfBytes": "1"
      }
    }
  }
}