{
  "address": "0xa1F7fF2b2Fd98a04CfC459600a8397Fa46609Fd5",
  "abi": [
    {
      "inputs": [],
      "name": "BorrowersRegistryNotConfigured",
      "type": "error"
    },
    {
      "inputs": [],
      "name": "BurnAmountExceedsAvailableForUser",
      "type": "error"
    },
    {
      "inputs": [],
      "name": "BurnAmountExceedsBalance",
      "type": "error"
    },
    {
      "inputs": [],
      "name": "CalldataMustHaveValidPayload",
      "type": "error"
    },
    {
      "inputs": [],
      "name": "CalldataOverOrUnderFlow",
      "type": "error"
    },
    {
      "inputs": [],
      "name": "DataPackageTimestampMustNotBeZero",
      "type": "error"
    },
    {
      "inputs": [],
      "name": "DataPackageTimestampsMustBeEqual",
      "type": "error"
    },
    {
      "inputs": [],
      "name": "EachSignerMustProvideTheSameValue",
      "type": "error"
    },
    {
      "inputs": [],
      "name": "EmptyCalldataPointersArr",
      "type": "error"
    },
    {
      "inputs": [],
      "name": "IncorrectUnsignedMetadataSize",
      "type": "error"
    },
    {
      "inputs": [
        {
          "internalType": "uint256",
          "name": "requested",
          "type": "uint256"
        },
        {
          "internalType": "uint256",
          "name": "allowance",
          "type": "uint256"
        }
      ],
      "name": "InsufficientAllowance",
      "type": "error"
    },
    {
      "inputs": [
        {
          "internalType": "uint256",
          "name": "receivedSignersCount",
          "type": "uint256"
        },
        {
          "internalType": "uint256",
          "name": "requiredSignersCount",
          "type": "uint256"
        }
      ],
      "name": "InsufficientNumberOfUniqueSigners",
      "type": "error"
    },
    {
      "inputs": [],
      "name": "InsufficientPoolFunds",
      "type": "error"
    },
    {
      "inputs": [],
      "name": "InsufficientSurplus",
      "type": "error"
    },
    {
      "inputs": [],
      "name": "InvalidCalldataPointer",
      "type": "error"
    },
    {
      "inputs": [],
      "name": "MaxPoolUtilisationBreached",
      "type": "error"
    },
    {
      "inputs": [],
      "name": "MintToAddressZero",
      "type": "error"
    },
    {
      "inputs": [
        {
          "internalType": "address",
          "name": "target",
          "type": "address"
        }
      ],
      "name": "NotAContract",
      "type": "error"
    },
    {
      "inputs": [],
      "name": "NotAuthorizedToBorrow",
      "type": "error"
    },
    {
      "inputs": [],
      "name": "PoolFrozen",
      "type": "error"
    },
    {
      "inputs": [
        {
          "internalType": "bytes",
          "name": "result",
          "type": "bytes"
        }
      ],
      "name": "ProxyCalldataFailedWithCustomError",
      "type": "error"
    },
    {
      "inputs": [
        {
          "internalType": "string",
          "name": "message",
          "type": "string"
        }
      ],
      "name": "ProxyCalldataFailedWithStringMessage",
      "type": "error"
    },
    {
      "inputs": [],
      "name": "ProxyCalldataFailedWithoutErrMsg",
      "type": "error"
    },
    {
      "inputs": [],
      "name": "RedstonePayloadMustHaveAtLeastOneDataPackage",
      "type": "error"
    },
    {
      "inputs": [],
      "name": "RepayingMoreThanWasBorrowed",
      "type": "error"
    },
    {
      "inputs": [
        {
          "internalType": "address",
          "name": "receivedSigner",
          "type": "address"
        }
      ],
      "name": "SignerNotAuthorised",
      "type": "error"
    },
    {
      "inputs": [],
      "name": "SpenderZeroAddress",
      "type": "error"
    },
    {
      "inputs": [],
      "name": "TotalSupplyCapBreached",
      "type": "error"
    },
    {
      "inputs": [
        {
          "internalType": "uint256",
          "name": "amount",
          "type": "uint256"
        },
        {
          "internalType": "uint256",
          "name": "balance",
          "type": "uint256"
        }
      ],
      "name": "TransferAmountExceedsBalance",
      "type": "error"
    },
    {
      "inputs": [],
      "name": "TransferToPoolAddress",
      "type": "error"
    },
    {
      "inputs": [],
      "name": "TransferToZeroAddress",
      "type": "error"
    },
    {
      "inputs": [],
      "name": "ZeroDepositAmount",
      "type": "error"
    },
    {
      "anonymous": false,
      "inputs": [
        {
          "indexed": true,
          "internalType": "address",
          "name": "owner",
          "type": "address"
        },
        {
          "indexed": true,
          "internalType": "address",
          "name": "spender",
          "type": "address"
        },
        {
          "indexed": false,
          "internalType": "uint256",
          "name": "value",
          "type": "uint256"
        }
      ],
      "name": "Approval",
      "type": "event"
    },
    {
      "anonymous": false,
      "inputs": [
        {
          "indexed": true,
          "internalType": "address",
          "name": "user",
          "type": "address"
        },
        {
          "indexed": true,
          "internalType": "address",
          "name": "borrower",
          "type": "address"
        },
        {
          "indexed": false,
          "internalType": "uint256",
          "name": "value",
          "type": "uint256"
        },
        {
          "indexed": false,
          "internalType": "uint256",
          "name": "timestamp",
          "type": "uint256"
        }
      ],
      "name": "BorrowerInitialized",
      "type": "event"
    },
    {
      "anonymous": false,
      "inputs": [
        {
          "indexed": true,
          "internalType": "address",
          "name": "registry",
          "type": "address"
        },
        {
          "indexed": false,
          "internalType": "uint256",
          "name": "timestamp",
          "type": "uint256"
        }
      ],
      "name": "BorrowersRegistryChanged",
      "type": "event"
    },
    {
      "anonymous": false,
      "inputs": [
        {
          "indexed": true,
          "internalType": "address",
          "name": "user",
          "type": "address"
        },
        {
          "indexed": false,
          "internalType": "uint256",
          "name": "value",
          "type": "uint256"
        },
        {
          "indexed": false,
          "internalType": "uint256",
          "name": "timestamp",
          "type": "uint256"
        }
      ],
      "name": "Borrowing",
      "type": "event"
    },
    {
      "anonymous": false,
      "inputs": [
        {
          "indexed": true,
          "internalType": "address",
          "name": "user",
          "type": "address"
        },
        {
          "indexed": false,
          "internalType": "uint256",
          "name": "value",
          "type": "uint256"
        },
        {
          "indexed": false,
          "internalType": "uint256",
          "name": "timestamp",
          "type": "uint256"
        }
      ],
      "name": "Deposit",
      "type": "event"
    },
    {
      "anonymous": false,
      "inputs": [
        {
          "indexed": true,
          "internalType": "address",
          "name": "user",
          "type": "address"
        },
        {
          "indexed": false,
          "internalType": "uint256",
          "name": "amount",
          "type": "uint256"
        },
        {
          "indexed": false,
          "internalType": "uint256",
          "name": "lockTime",
          "type": "uint256"
        },
        {
          "indexed": false,
          "internalType": "uint256",
          "name": "unlockTime",
          "type": "uint256"
        }
      ],
      "name": "DepositLocked",
      "type": "event"
    },
    {
      "anonymous": false,
      "inputs": [
        {
          "indexed": true,
          "internalType": "address",
          "name": "user",
          "type": "address"
        },
        {
          "indexed": true,
          "internalType": "address",
          "name": "_of",
          "type": "address"
        },
        {
          "indexed": false,
          "internalType": "uint256",
          "name": "value",
          "type": "uint256"
        },
        {
          "indexed": false,
          "internalType": "uint256",
          "name": "timestamp",
          "type": "uint256"
        }
      ],
      "name": "DepositOnBehalfOf",
      "type": "event"
    },
    {
      "anonymous": false,
      "inputs": [
        {
          "indexed": true,
          "internalType": "address",
          "name": "user",
          "type": "address"
        },
        {
          "indexed": true,
          "internalType": "address",
          "name": "depositor",
          "type": "address"
        },
        {
          "indexed": false,
          "internalType": "uint256",
          "name": "value",
          "type": "uint256"
        },
        {
          "indexed": false,
          "internalType": "uint256",
          "name": "timestamp",
          "type": "uint256"
        }
      ],
      "name": "DepositorInitialized",
      "type": "event"
    },
    {
      "anonymous": false,
      "inputs": [
        {
          "indexed": false,
          "internalType": "uint8",
          "name": "version",
          "type": "uint8"
        }
      ],
      "name": "Initialized",
      "type": "event"
    },
    {
      "anonymous": false,
      "inputs": [
        {
          "indexed": true,
          "internalType": "address",
          "name": "user",
          "type": "address"
        },
        {
          "indexed": false,
          "internalType": "uint256",
          "name": "value",
          "type": "uint256"
        },
        {
          "indexed": false,
          "internalType": "uint256",
          "name": "timestamp",
          "type": "uint256"
        }
      ],
      "name": "InterestCollected",
      "type": "event"
    },
    {
      "anonymous": false,
      "inputs": [
        {
          "indexed": true,
          "internalType": "address",
          "name": "from",
          "type": "address"
        },
        {
          "indexed": true,
          "internalType": "address",
          "name": "to",
          "type": "address"
        }
      ],
      "name": "OwnershipTransferRequested",
      "type": "event"
    },
    {
      "anonymous": false,
      "inputs": [
        {
          "indexed": true,
          "internalType": "address",
          "name": "previousOwner",
          "type": "address"
        },
        {
          "indexed": true,
          "internalType": "address",
          "name": "newOwner",
          "type": "address"
        }
      ],
      "name": "OwnershipTransferred",
      "type": "event"
    },
    {
      "anonymous": false,
      "inputs": [
        {
          "indexed": true,
          "internalType": "address",
          "name": "poolRewarder",
          "type": "address"
        },
        {
          "indexed": false,
          "internalType": "uint256",
          "name": "timestamp",
          "type": "uint256"
        }
      ],
      "name": "PoolRewarderChanged",
      "type": "event"
    },
    {
      "anonymous": false,
      "inputs": [
        {
          "indexed": true,
          "internalType": "address",
          "name": "calculator",
          "type": "address"
        },
        {
          "indexed": false,
          "internalType": "uint256",
          "name": "timestamp",
          "type": "uint256"
        }
      ],
      "name": "RatesCalculatorChanged",
      "type": "event"
    },
    {
      "anonymous": false,
      "inputs": [
        {
          "indexed": true,
          "internalType": "address",
          "name": "user",
          "type": "address"
        },
        {
          "indexed": false,
          "internalType": "uint256",
          "name": "value",
          "type": "uint256"
        },
        {
          "indexed": false,
          "internalType": "uint256",
          "name": "timestamp",
          "type": "uint256"
        }
      ],
      "name": "Repayment",
      "type": "event"
    },
    {
      "anonymous": false,
      "inputs": [
        {
          "indexed": true,
          "internalType": "address",
          "name": "from",
          "type": "address"
        },
        {
          "indexed": true,
          "internalType": "address",
          "name": "to",
          "type": "address"
        },
        {
          "indexed": false,
          "internalType": "uint256",
          "name": "value",
          "type": "uint256"
        }
      ],
      "name": "Transfer",
      "type": "event"
    },
    {
      "anonymous": false,
      "inputs": [
        {
          "indexed": true,
          "internalType": "address",
          "name": "distributor",
          "type": "address"
        },
        {
          "indexed": false,
          "internalType": "uint256",
          "name": "timestamp",
          "type": "uint256"
        }
      ],
      "name": "VestingDistributorChanged",
      "type": "event"
    },
    {
      "anonymous": false,
      "inputs": [
        {
          "indexed": true,
          "internalType": "address",
          "name": "user",
          "type": "address"
        },
        {
          "indexed": false,
          "internalType": "uint256",
          "name": "value",
          "type": "uint256"
        },
        {
          "indexed": false,
          "internalType": "uint256",
          "name": "timestamp",
          "type": "uint256"
        }
      ],
      "name": "Withdrawal",
      "type": "event"
    },
    {
      "inputs": [],
      "name": "MAX_LOCK_TIME",
      "outputs": [
        {
          "internalType": "uint256",
          "name": "",
          "type": "uint256"
        }
      ],
      "stateMutability": "view",
      "type": "function"
    },
    {
      "inputs": [],
      "name": "acceptOwnership",
      "outputs": [],
      "stateMutability": "nonpayable",
      "type": "function"
    },
    {
      "inputs": [
        {
          "internalType": "address",
          "name": "owner",
          "type": "address"
        },
        {
          "internalType": "address",
          "name": "spender",
          "type": "address"
        }
      ],
      "name": "allowance",
      "outputs": [
        {
          "internalType": "uint256",
          "name": "",
          "type": "uint256"
        }
      ],
      "stateMutability": "view",
      "type": "function"
    },
    {
      "inputs": [
        {
          "internalType": "address",
          "name": "spender",
          "type": "address"
        },
        {
          "internalType": "uint256",
          "name": "amount",
          "type": "uint256"
        }
      ],
      "name": "approve",
      "outputs": [
        {
          "internalType": "bool",
          "name": "",
          "type": "bool"
        }
      ],
      "stateMutability": "nonpayable",
      "type": "function"
    },
    {
      "inputs": [
        {
          "internalType": "address",
          "name": "user",
          "type": "address"
        }
      ],
      "name": "balanceOf",
      "outputs": [
        {
          "internalType": "uint256",
          "name": "",
          "type": "uint256"
        }
      ],
      "stateMutability": "view",
      "type": "function"
    },
    {
      "inputs": [
        {
          "internalType": "uint256",
          "name": "_amount",
          "type": "uint256"
        }
      ],
      "name": "borrow",
      "outputs": [],
      "stateMutability": "nonpayable",
      "type": "function"
    },
    {
      "inputs": [],
      "name": "borrowIndex",
      "outputs": [
        {
          "internalType": "contract IIndex",
          "name": "",
          "type": "address"
        }
      ],
      "stateMutability": "view",
      "type": "function"
    },
    {
      "inputs": [
        {
          "internalType": "address",
          "name": "",
          "type": "address"
        }
      ],
      "name": "borrowed",
      "outputs": [
        {
          "internalType": "uint256",
          "name": "",
          "type": "uint256"
        }
      ],
      "stateMutability": "view",
      "type": "function"
    },
    {
      "inputs": [],
      "name": "borrowersRegistry",
      "outputs": [
        {
          "internalType": "contract IBorrowersRegistry",
          "name": "",
          "type": "address"
        }
      ],
      "stateMutability": "view",
      "type": "function"
    },
    {
      "inputs": [],
      "name": "checkRewards",
      "outputs": [
        {
          "internalType": "uint256",
          "name": "",
          "type": "uint256"
        }
      ],
      "stateMutability": "view",
      "type": "function"
    },
    {
      "inputs": [],
      "name": "containsOracleCalldata",
      "outputs": [
        {
          "internalType": "bool",
          "name": "",
          "type": "bool"
        }
      ],
      "stateMutability": "view",
      "type": "function"
    },
    {
      "inputs": [],
      "name": "decimals",
      "outputs": [
        {
          "internalType": "uint8",
          "name": "decimals",
          "type": "uint8"
        }
      ],
      "stateMutability": "pure",
      "type": "function"
    },
    {
      "inputs": [
        {
          "internalType": "address",
          "name": "spender",
          "type": "address"
        },
        {
          "internalType": "uint256",
          "name": "subtractedValue",
          "type": "uint256"
        }
      ],
      "name": "decreaseAllowance",
      "outputs": [
        {
          "internalType": "bool",
          "name": "",
          "type": "bool"
        }
      ],
      "stateMutability": "nonpayable",
      "type": "function"
    },
    {
      "inputs": [
        {
          "internalType": "uint256",
          "name": "_amount",
          "type": "uint256"
        }
      ],
      "name": "deposit",
      "outputs": [],
      "stateMutability": "nonpayable",
      "type": "function"
    },
    {
      "inputs": [],
      "name": "depositIndex",
      "outputs": [
        {
          "internalType": "contract IIndex",
          "name": "",
          "type": "address"
        }
      ],
      "stateMutability": "view",
      "type": "function"
    },
    {
      "inputs": [],
      "name": "depositNativeToken",
      "outputs": [],
      "stateMutability": "payable",
      "type": "function"
    },
    {
      "inputs": [
        {
          "internalType": "uint256",
          "name": "_amount",
          "type": "uint256"
        },
        {
          "internalType": "address",
          "name": "_of",
          "type": "address"
        }
      ],
      "name": "depositOnBehalf",
      "outputs": [],
      "stateMutability": "nonpayable",
      "type": "function"
    },
    {
      "inputs": [],
      "name": "extractTimestampsAndAssertAllAreEqual",
      "outputs": [
        {
          "internalType": "uint256",
          "name": "extractedTimestamp",
          "type": "uint256"
        }
      ],
      "stateMutability": "pure",
      "type": "function"
    },
    {
      "inputs": [
        {
          "internalType": "address",
          "name": "_user",
          "type": "address"
        }
      ],
      "name": "getBorrowed",
      "outputs": [
        {
          "internalType": "uint256",
          "name": "",
          "type": "uint256"
        }
      ],
      "stateMutability": "view",
      "type": "function"
    },
    {
      "inputs": [],
      "name": "getBorrowingRate",
      "outputs": [
        {
          "internalType": "uint256",
          "name": "",
          "type": "uint256"
        }
      ],
      "stateMutability": "view",
      "type": "function"
    },
    {
      "inputs": [],
      "name": "getDepositRate",
      "outputs": [
        {
          "internalType": "uint256",
          "name": "",
          "type": "uint256"
        }
      ],
      "stateMutability": "view",
      "type": "function"
    },
    {
      "inputs": [],
      "name": "getFullPoolStatus",
      "outputs": [
        {
          "internalType": "uint256[5]",
          "name": "",
          "type": "uint256[5]"
        }
      ],
      "stateMutability": "view",
      "type": "function"
    },
    {
      "inputs": [
        {
          "internalType": "address",
          "name": "account",
          "type": "address"
        }
      ],
      "name": "getFullyVestedLockedBalance",
      "outputs": [
        {
          "internalType": "uint256",
          "name": "fullyVestedBalance",
          "type": "uint256"
        }
      ],
      "stateMutability": "view",
      "type": "function"
    },
    {
      "inputs": [
        {
          "internalType": "address",
          "name": "account",
          "type": "address"
        }
      ],
      "name": "getLockedBalance",
      "outputs": [
        {
          "internalType": "uint256",
          "name": "",
          "type": "uint256"
        }
      ],
      "stateMutability": "view",
      "type": "function"
    },
    {
      "inputs": [],
      "name": "getMaxPoolUtilisationForBorrowing",
      "outputs": [
        {
          "internalType": "uint256",
          "name": "",
          "type": "uint256"
        }
      ],
      "stateMutability": "view",
      "type": "function"
    },
    {
      "inputs": [
        {
          "internalType": "address",
          "name": "account",
          "type": "address"
        }
      ],
      "name": "getNotLockedBalance",
      "outputs": [
        {
          "internalType": "uint256",
          "name": "notLockedBalance",
          "type": "uint256"
        }
      ],
      "stateMutability": "view",
      "type": "function"
    },
    {
      "inputs": [],
      "name": "getRewards",
      "outputs": [],
      "stateMutability": "nonpayable",
      "type": "function"
    },
    {
      "inputs": [],
      "name": "getVPrimeControllerAddress",
      "outputs": [
        {
          "internalType": "address",
          "name": "",
          "type": "address"
        }
      ],
      "stateMutability": "view",
      "type": "function"
    },
    {
      "inputs": [
        {
          "internalType": "address",
          "name": "spender",
          "type": "address"
        },
        {
          "internalType": "uint256",
          "name": "addedValue",
          "type": "uint256"
        }
      ],
      "name": "increaseAllowance",
      "outputs": [
        {
          "internalType": "bool",
          "name": "",
          "type": "bool"
        }
      ],
      "stateMutability": "nonpayable",
      "type": "function"
    },
    {
      "inputs": [
        {
          "internalType": "contract IRatesCalculator",
          "name": "ratesCalculator_",
          "type": "address"
        },
        {
          "internalType": "contract IBorrowersRegistry",
          "name": "borrowersRegistry_",
          "type": "address"
        },
        {
          "internalType": "contract IIndex",
          "name": "depositIndex_",
          "type": "address"
        },
        {
          "internalType": "contract IIndex",
          "name": "borrowIndex_",
          "type": "address"
        },
        {
          "internalType": "address payable",
          "name": "tokenAddress_",
          "type": "address"
        },
        {
          "internalType": "contract IPoolRewarder",
          "name": "poolRewarder_",
          "type": "address"
        },
        {
          "internalType": "uint256",
          "name": "totalSupplyCap_",
          "type": "uint256"
        }
      ],
      "name": "initialize",
      "outputs": [],
      "stateMutability": "nonpayable",
      "type": "function"
    },
    {
      "inputs": [
        {
          "internalType": "address[]",
          "name": "borrowers",
          "type": "address[]"
        },
        {
          "internalType": "uint256[]",
          "name": "amounts",
          "type": "uint256[]"
        }
      ],
      "name": "initializeBorrows",
      "outputs": [],
      "stateMutability": "nonpayable",
      "type": "function"
    },
    {
      "inputs": [
        {
          "internalType": "address[]",
          "name": "depositors",
          "type": "address[]"
        },
        {
          "internalType": "uint256[]",
          "name": "depositAmounts",
          "type": "uint256[]"
        }
      ],
      "name": "initializeDeposits",
      "outputs": [],
      "stateMutability": "nonpayable",
      "type": "function"
    },
    {
      "inputs": [
        {
          "internalType": "address",
          "name": "account",
          "type": "address"
        },
        {
          "internalType": "uint256",
          "name": "amount",
          "type": "uint256"
        }
      ],
      "name": "isWithdrawalAmountAvailable",
      "outputs": [
        {
          "internalType": "bool",
          "name": "",
          "type": "bool"
        }
      ],
      "stateMutability": "view",
      "type": "function"
    },
    {
      "inputs": [
        {
          "internalType": "uint256",
          "name": "amount",
          "type": "uint256"
        },
        {
          "internalType": "uint256",
          "name": "lockTime",
          "type": "uint256"
        }
      ],
      "name": "lockDeposit",
      "outputs": [],
      "stateMutability": "nonpayable",
      "type": "function"
    },
    {
      "inputs": [
        {
          "internalType": "address",
          "name": "",
          "type": "address"
        },
        {
          "internalType": "uint256",
          "name": "",
          "type": "uint256"
        }
      ],
      "name": "locks",
      "outputs": [
        {
          "internalType": "uint256",
          "name": "lockTime",
          "type": "uint256"
        },
        {
          "internalType": "uint256",
          "name": "amount",
          "type": "uint256"
        },
        {
          "internalType": "uint256",
          "name": "unlockTime",
          "type": "uint256"
        }
      ],
      "stateMutability": "view",
      "type": "function"
    },
    {
      "inputs": [],
      "name": "name",
      "outputs": [
        {
          "internalType": "string",
          "name": "_name",
          "type": "string"
        }
      ],
      "stateMutability": "pure",
      "type": "function"
    },
    {
      "inputs": [],
      "name": "owner",
      "outputs": [
        {
          "internalType": "address",
          "name": "",
          "type": "address"
        }
      ],
      "stateMutability": "view",
      "type": "function"
    },
    {
      "inputs": [],
      "name": "pendingOwner",
      "outputs": [
        {
          "internalType": "address",
          "name": "",
          "type": "address"
        }
      ],
      "stateMutability": "view",
      "type": "function"
    },
    {
      "inputs": [],
      "name": "poolRewarder",
      "outputs": [
        {
          "internalType": "contract IPoolRewarder",
          "name": "",
          "type": "address"
        }
      ],
      "stateMutability": "view",
      "type": "function"
    },
    {
      "inputs": [],
      "name": "ratesCalculator",
      "outputs": [
        {
          "internalType": "contract IRatesCalculator",
          "name": "",
          "type": "address"
        }
      ],
      "stateMutability": "view",
      "type": "function"
    },
    {
      "inputs": [
        {
          "internalType": "uint256",
          "name": "amount",
          "type": "uint256"
        },
        {
          "internalType": "address",
          "name": "account",
          "type": "address"
        }
      ],
      "name": "recoverSurplus",
      "outputs": [],
      "stateMutability": "nonpayable",
      "type": "function"
    },
    {
      "inputs": [],
      "name": "renounceOwnership",
      "outputs": [],
      "stateMutability": "nonpayable",
      "type": "function"
    },
    {
      "inputs": [
        {
          "internalType": "uint256",
          "name": "amount",
          "type": "uint256"
        }
      ],
      "name": "repay",
      "outputs": [],
      "stateMutability": "nonpayable",
      "type": "function"
    },
    {
      "inputs": [
        {
          "internalType": "contract IBorrowersRegistry",
          "name": "borrowersRegistry_",
          "type": "address"
        }
      ],
      "name": "setBorrowersRegistry",
      "outputs": [],
      "stateMutability": "nonpayable",
      "type": "function"
    },
    {
      "inputs": [
        {
          "internalType": "contract IPoolRewarder",
          "name": "_poolRewarder",
          "type": "address"
        }
      ],
      "name": "setPoolRewarder",
      "outputs": [],
      "stateMutability": "nonpayable",
      "type": "function"
    },
    {
      "inputs": [
        {
          "internalType": "contract IRatesCalculator",
          "name": "ratesCalculator_",
          "type": "address"
        }
      ],
      "name": "setRatesCalculator",
      "outputs": [],
      "stateMutability": "nonpayable",
      "type": "function"
    },
    {
      "inputs": [
        {
          "internalType": "contract ITokenManager",
          "name": "_tokenManager",
          "type": "address"
        }
      ],
      "name": "setTokenManager",
      "outputs": [],
      "stateMutability": "nonpayable",
      "type": "function"
    },
    {
      "inputs": [
        {
          "internalType": "uint256",
          "name": "_newTotalSupplyCap",
          "type": "uint256"
        }
      ],
      "name": "setTotalSupplyCap",
      "outputs": [],
      "stateMutability": "nonpayable",
      "type": "function"
    },
    {
      "inputs": [
        {
          "internalType": "address",
          "name": "_distributor",
          "type": "address"
        }
      ],
      "name": "setVestingDistributor",
      "outputs": [],
      "stateMutability": "nonpayable",
      "type": "function"
    },
    {
      "inputs": [],
      "name": "symbol",
      "outputs": [
        {
          "internalType": "string",
          "name": "_symbol",
          "type": "string"
        }
      ],
      "stateMutability": "pure",
      "type": "function"
    },
    {
      "inputs": [],
      "name": "tokenAddress",
      "outputs": [
        {
          "internalType": "address payable",
          "name": "",
          "type": "address"
        }
      ],
      "stateMutability": "view",
      "type": "function"
    },
    {
      "inputs": [],
      "name": "tokenManager",
      "outputs": [
        {
          "internalType": "contract ITokenManager",
          "name": "",
          "type": "address"
        }
      ],
      "stateMutability": "view",
      "type": "function"
    },
    {
      "inputs": [],
      "name": "totalBorrowed",
      "outputs": [
        {
          "internalType": "uint256",
          "name": "",
          "type": "uint256"
        }
      ],
      "stateMutability": "view",
      "type": "function"
    },
    {
      "inputs": [],
      "name": "totalSupply",
      "outputs": [
        {
          "internalType": "uint256",
          "name": "",
          "type": "uint256"
        }
      ],
      "stateMutability": "view",
      "type": "function"
    },
    {
      "inputs": [],
      "name": "totalSupplyCap",
      "outputs": [
        {
          "internalType": "uint256",
          "name": "",
          "type": "uint256"
        }
      ],
      "stateMutability": "view",
      "type": "function"
    },
    {
      "inputs": [
        {
          "internalType": "address",
          "name": "recipient",
          "type": "address"
        },
        {
          "internalType": "uint256",
          "name": "amount",
          "type": "uint256"
        }
      ],
      "name": "transfer",
      "outputs": [
        {
          "internalType": "bool",
          "name": "",
          "type": "bool"
        }
      ],
      "stateMutability": "nonpayable",
      "type": "function"
    },
    {
      "inputs": [
        {
          "internalType": "address",
          "name": "sender",
          "type": "address"
        },
        {
          "internalType": "address",
          "name": "recipient",
          "type": "address"
        },
        {
          "internalType": "uint256",
          "name": "amount",
          "type": "uint256"
        }
      ],
      "name": "transferFrom",
      "outputs": [
        {
          "internalType": "bool",
          "name": "",
          "type": "bool"
        }
      ],
      "stateMutability": "nonpayable",
      "type": "function"
    },
    {
      "inputs": [
        {
          "internalType": "address",
          "name": "newOwner",
          "type": "address"
        }
      ],
      "name": "transferOwnership",
      "outputs": [],
      "stateMutability": "nonpayable",
      "type": "function"
    },
    {
      "inputs": [],
      "name": "vestingDistributor",
      "outputs": [
        {
          "internalType": "contract VestingDistributor",
          "name": "",
          "type": "address"
        }
      ],
      "stateMutability": "view",
      "type": "function"
    },
    {
      "inputs": [
        {
          "internalType": "uint256",
          "name": "_amount",
          "type": "uint256"
        }
      ],
      "name": "withdraw",
      "outputs": [],
      "stateMutability": "nonpayable",
      "type": "function"
    },
    {
      "inputs": [
        {
          "internalType": "uint256",
          "name": "_amount",
          "type": "uint256"
        }
      ],
      "name": "withdrawNativeToken",
      "outputs": [],
      "stateMutability": "nonpayable",
      "type": "function"
    },
    {
      "stateMutability": "payable",
      "type": "receive"
    }
  ],
  "transactionHash": "0x57dfe4e87593da6d5cd06ef38525c2d207bf7462d65cdecfcd902cc252be1a1a",
  "args": [],
  "numDeployments": 1,
  "solcInputHash": "cb369fffc6bf10169b4070f9bb9b6c6b",
  "bytecode": "0x608060405234801561001057600080fd5b50614b8b806100206000396000f3fe6080604052600436106102c65760003560e01c8063726cd41511610177578063726cd4151461069c57806379433d8b146106b157806379ba5097146106b95780637b898939146106ce5780637cb2b79c146106ee5780637f75ad0f1461070e5780638c1a38111461072e5780638da5cb5b1461074e57806395d89b41146107635780639d76ea5814610792578063a457c2d7146107b2578063a9059cbb146107d2578063aa5af0fd146107f2578063ab9eb14814610812578063b425f80214610832578063b6b55f251461086d578063b75c42bd1461088d578063b790634e146108af578063bb102aea146108c4578063c4086893146108da578063c4ce6358146108fa578063c5ebeaec1461091a578063d06dca891461093a578063dd62ed3e1461095a578063e2b9442e146109a0578063e30c3978146109c0578063ee61bd6e146109d5578063f2fde38b146109f5578063f36b242514610a15578063fa78668f14610a2a578063fc68f66114610a4257600080fd5b80630572b0cc146102d257806306fdde03146102e95780630790ef9a1461033857806307bbebdd146103585780630941cb3d14610385578063095ea7b3146103c05780630d1870df146103f05780631457db34146104055780631460e3901461042557806317e0f2521461044557806318160ddd1461046557806323b872dd1461047a57806329194a7c1461049a5780632a709b14146104ba5780632aeaa291146104da5780632e1a7d4d146104ef578063313ce5671461050f57806331d05b111461052b578063371fd8e61461054b578063395093511461056b57806341da9b541461058b5780634c19386c146105ab57806355a547d5146105c05780636011163e146105d557806361215aa8146105f55780636ca6d5d0146106105780636cf55ea21461063057806370a082311461065057806370d4cea014610670578063715018a61461069057600080fd5b366102cd57005b600080fd5b3480156102de57600080fd5b506102e7610a62565b005b3480156102f557600080fd5b50604080518082019091526014815273088cad8e8c2a0e4d2dacaaee4c2e0e0cac88aa8960631b60208201525b60405161032f91906145b3565b60405180910390f35b34801561034457600080fd5b506102e76103533660046145db565b610ac6565b34801561036457600080fd5b5060a154610378906001600160a01b031681565b60405161032f919061460b565b34801561039157600080fd5b506103b26103a036600461461f565b609a6020526000908152604090205481565b60405190815260200161032f565b3480156103cc57600080fd5b506103e06103db36600461463c565b610bce565b604051901515815260200161032f565b3480156103fc57600080fd5b506103e0610c4a565b34801561041157600080fd5b506102e761042036600461461f565b610c5e565b34801561043157600080fd5b506102e7610440366004614668565b610d02565b34801561045157600080fd5b506102e76104603660046146f5565b610fae565b34801561047157600080fd5b506103b26111f6565b34801561048657600080fd5b506103e061049536600461470e565b611206565b3480156104a657600080fd5b506102e76104b536600461479a565b61153b565b3480156104c657600080fd5b5060a354610378906001600160a01b031681565b3480156104e657600080fd5b506103b2611718565b3480156104fb57600080fd5b506102e761050a3660046146f5565b611788565b34801561051b57600080fd5b506040516012815260200161032f565b34801561053757600080fd5b506102e76105463660046146f5565b6119d2565b34801561055757600080fd5b506102e76105663660046146f5565b6119df565b34801561057757600080fd5b506103e061058636600461463c565b611ab6565b34801561059757600080fd5b506103e06105a636600461463c565b611b63565b3480156105b757600080fd5b506103b2611b78565b3480156105cc57600080fd5b506103b2611b83565b3480156105e157600080fd5b506103b26105f036600461461f565b611c9b565b34801561060157600080fd5b50670cd64299613c80006103b2565b34801561061c57600080fd5b50609d54610378906001600160a01b031681565b34801561063c57600080fd5b506102e761064b3660046145db565b611d22565b34801561065c57600080fd5b506103b261066b36600461461f565b611f90565b34801561067c57600080fd5b506102e761068b36600461461f565b611fd6565b3480156102e757600080fd5b3480156106a857600080fd5b50610378612084565b6102e7612115565b3480156106c557600080fd5b506102e76122fc565b3480156106da57600080fd5b50609e54610378906001600160a01b031681565b3480156106fa57600080fd5b506102e761070936600461461f565b61238b565b34801561071a57600080fd5b506103b261072936600461461f565b6123b5565b34801561073a57600080fd5b506102e761074936600461461f565b6123fa565b34801561075a57600080fd5b5061037861248e565b34801561076f57600080fd5b50604080518082019091526006815265088a0ae8aa8960d31b6020820152610322565b34801561079e57600080fd5b5060a054610378906001600160a01b031681565b3480156107be57600080fd5b506103e06107cd36600461463c565b61249d565b3480156107de57600080fd5b506103e06107ed36600461463c565b612571565b3480156107fe57600080fd5b50609f54610378906001600160a01b031681565b34801561081e57600080fd5b506102e761082d36600461479a565b6127ef565b34801561083e57600080fd5b5061085261084d36600461463c565b612ac0565b6040805193845260208401929092529082015260600161032f565b34801561087957600080fd5b506102e76108883660046146f5565b612b02565b34801561089957600080fd5b506108a2612b0c565b60405161032f9190614805565b3480156108bb57600080fd5b506103b2612b63565b3480156108d057600080fd5b506103b260975481565b3480156108e657600080fd5b506103b26108f536600461461f565b612ba4565b34801561090657600080fd5b506103b261091536600461461f565b612c71565b34801561092657600080fd5b506102e76109353660046146f5565b612d91565b34801561094657600080fd5b50609c54610378906001600160a01b031681565b34801561096657600080fd5b506103b2610975366004614836565b6001600160a01b03918216600090815260986020908152604080832093909416825291909152205490565b3480156109ac57600080fd5b506102e76109bb366004614864565b61300e565b3480156109cc57600080fd5b5061037861317f565b3480156109e157600080fd5b50609b54610378906001600160a01b031681565b348015610a0157600080fd5b506102e7610a1036600461461f565b613189565b348015610a2157600080fd5b506103b2613250565b348015610a3657600080fd5b506103b26305a39a8081565b348015610a4e57600080fd5b506102e7610a5d36600461461f565b61326c565b609d546040516311305c1f60e11b81526001600160a01b0390911690632260b83e90610a9290339060040161460b565b600060405180830381600087803b158015610aac57600080fd5b505af1158015610ac0573d6000803e3d6000fd5b50505050565b610ace6132ea565b610ad6613349565b60a0546040516370a0823160e01b81526000916001600160a01b0316906370a0823190610b0790309060040161460b565b602060405180830381865afa158015610b24573d6000803e3d6000fd5b505050506040513d601f19601f82011682018060405250810190610b489190614886565b90506000610b546111f6565b610b5c611b78565b610b6690846148b5565b610b7091906148c8565b905081841115610b93576040516316d5c93f60e21b815260040160405180910390fd5b83811015610bb4576040516394290ab960e01b815260040160405180910390fd5b610bbe83856133a2565b5050610bca6001606555565b5050565b60006001600160a01b038316610bf757604051633d6601c760e11b815260040160405180910390fd5b3360008181526098602090815260408083206001600160a01b0388168085529083529281902086905551858152919291600080516020614b16833981519152910160405180910390a35060015b92915050565b6602ed57011e0000601f1936013581161490565b610c666132ea565b610c6f816133c0565b158015610c8457506001600160a01b03811615155b15610cad57806040516322a2d07b60e21b8152600401610ca4919061460b565b60405180910390fd5b609d80546001600160a01b0319166001600160a01b0383169081179091556040514281527f85796821ee1d670b0fdb986f256b5c1a29b9019038831c7f09df2061879cf9e5906020015b60405180910390a250565b600054610100900460ff1615808015610d225750600054600160ff909116105b80610d435750610d31306133c0565b158015610d43575060005460ff166001145b610da65760405162461bcd60e51b815260206004820152602e60248201527f496e697469616c697a61626c653a20636f6e747261637420697320616c72656160448201526d191e481a5b9a5d1a585b1a5e995960921b6064820152608401610ca4565b6000805460ff191660011790558015610dc9576000805461ff0019166101001790555b610dd2886133c0565b8015610de25750610de2876133c0565b8015610df25750610df2866133c0565b8015610e025750610e02856133c0565b8015610e245750610e12836133c0565b80610e2457506001600160a01b038316155b610e675760405162461bcd60e51b815260206004820152601460248201527357726f6e6720696e697420617267756d656e747360601b6044820152606401610ca4565b609c80546001600160a01b03199081166001600160a01b038a811691909117909255609b805482168b8416179055609e80548216898416179055609f80548216888416179055609d8054821686841617905560a08054909116918616918217905560978390556040805163313ce56760e01b8152905163313ce567916004818101926020929091908290030181865afa158015610f08573d6000803e3d6000fd5b505050506040513d601f19601f82011682018060405250810190610f2c91906148db565b60a160146101000a81548160ff021916908360ff160217905550610f4e6133cf565b610f566133fe565b610f5e61342d565b8015610fa4576000805461ff0019169055604051600181527f7f26b83ff96e1f2b6a682f133852f6798a09c465da95921460cefb38474024989060200160405180910390a15b5050505050505050565b610fb6613349565b60a0546040516370a0823160e01b81526001600160a01b03909116906370a0823190610fe690309060040161460b565b602060405180830381865afa158015611003573d6000803e3d6000fd5b505050506040513d601f19601f820116820180604052508101906110279190614886565b811115611047576040516316d5c93f60e21b815260040160405180910390fd5b61105033613610565b3060009081526099602052604090205481111561108057604051630bba337f60e11b815260040160405180910390fd5b306000908152609960205260409020805482900390556110a0338261373b565b6110a861342d565b60a054604051632e1a7d4d60e01b8152600481018390526001600160a01b0390911690632e1a7d4d90602401600060405180830381600087803b1580156110ee57600080fd5b505af1158015611102573d6000803e3d6000fd5b5061111392503391508390506137f8565b609d546001600160a01b0316158015906111335750611131336138d7565b155b156111af57609d54604051630d5dbdb360e21b81526001600160a01b0390911690633576f6cc9061116a90849033906004016148fe565b6020604051808303816000875af1158015611189573d6000803e3d6000fd5b505050506040513d601f19601f820116820180604052508101906111ad9190614886565b505b6111b833613983565b336001600160a01b0316600080516020614b3683398151915282426040516111e1929190614915565b60405180910390a26111f36001606555565b50565b600061120130611f90565b905090565b6000611210613349565b6001600160a01b038416600090815260986020908152604080832033845290915290205482111561127b576001600160a01b03841660009081526098602090815260408083203384529091529081902054905163054365bb60e31b8152610ca4918491600401614915565b6001600160a01b0383166112a257604051633a954ecd60e21b815260040160405180910390fd5b306001600160a01b038416036112cb5760405163ed728e5760e01b815260040160405180910390fd5b6112d484613610565b6000806112e086613a1d565b91509150808411156113095783816040516350d2479d60e11b8152600401610ca4929190614915565b611314868584613b70565b6001600160a01b0386166000908152609960205260408120805486929061133c9084906148c8565b90915550506001600160a01b0386166000908152609860209081526040808320338452909152812080548692906113749084906148c8565b90915550611383905085613610565b6001600160a01b038516600090815260996020526040812080548692906113ab9084906148b5565b9091555050609d546001600160a01b0316158015906113c957508315155b80156113db57506113d9866138d7565b155b80156113ed57506113eb856138d7565b155b156114d757609d54604051630d5dbdb360e21b81526000916001600160a01b031690633576f6cc906114259088908b906004016148fe565b6020604051808303816000875af1158015611444573d6000803e3d6000fd5b505050506040513d601f19601f820116820180604052508101906114689190614886565b905080156114d557609d546040516328ba35d960e11b81526001600160a01b03909116906351746bb2906114a29084908a906004016148fe565b600060405180830381600087803b1580156114bc57600080fd5b505af11580156114d0573d6000803e3d6000fd5b505050505b505b846001600160a01b0316866001600160a01b0316600080516020614af68339815191528660405161150a91815260200190565b60405180910390a361151b86613983565b61152485613983565b6001925050506115346001606555565b9392505050565b611543613349565b61154b6132ea565b82811461156a5760405162461bcd60e51b8152600401610ca490614923565b60005b8381101561170d57600085858381811061158957611589614953565b905060200201602081019061159e919061461f565b905060008484848181106115b4576115b4614953565b9050602002013590506115c682613c1b565b6115e357604051637582fa9b60e11b815260040160405180910390fd5b6001600160a01b0382166000908152609a6020526040902054156116485760405162461bcd60e51b815260206004820152601c60248201527b109bdc9c9bddd95c88185b1c9958591e481a5b9a5d1a585b1a5e995960221b6044820152606401610ca4565b61165182613cdd565b6001600160a01b0382166000908152609a6020526040812080548392906116799084906148b5565b9091555050306000908152609a60205260408120805483929061169d9084906148b5565b909155506116ab905061342d565b816001600160a01b0316336001600160a01b03167f3b9a3aee39a2a7e2a67dfc91feeddddff04dccb47d2f13be4d8938e08ffae5c983426040516116f0929190614915565b60405180910390a35050808061170590614969565b91505061156d565b50610ac06001606555565b609d546040516246613160e11b81526000916001600160a01b031690628cc2629061174790339060040161460b565b602060405180830381865afa158015611764573d6000803e3d6000fd5b505050506040513d601f19601f820116820180604052508101906112019190614886565b611790613349565b61179a3382611b63565b6117da5760405162461bcd60e51b815260206004820152601160248201527010985b185b98d9481a5cc81b1bd8dad959607a1b6044820152606401610ca4565b6117e333613610565b336000908152609960205260409020546117fe908290613de3565b60a0546040516370a0823160e01b81529192506001600160a01b0316906370a082319061182f90309060040161460b565b602060405180830381865afa15801561184c573d6000803e3d6000fd5b505050506040513d601f19601f820116820180604052508101906118709190614886565b811115611890576040516316d5c93f60e21b815260040160405180910390fd5b306000908152609960205260409020548111156118c057604051630bba337f60e11b815260040160405180910390fd5b306000908152609960205260409020805482900390556118e0338261373b565b6118e861342d565b6118f233826133a2565b609d546001600160a01b0316158015906119125750611910336138d7565b155b1561198e57609d54604051630d5dbdb360e21b81526001600160a01b0390911690633576f6cc9061194990849033906004016148fe565b6020604051808303816000875af1158015611968573d6000803e3d6000fd5b505050506040513d601f19601f8201168201806040525081019061198c9190614886565b505b336001600160a01b0316600080516020614b3683398151915282426040516119b7929190614915565b60405180910390a26119c833613983565b6111f36001606555565b6119da6132ea565b609755565b6119e7613349565b6119f033613cdd565b336000908152609a6020526040902054811115611a2057604051630dcad43360e11b815260040160405180910390fd5b611a2a3382613df9565b336000908152609a602052604081208054839290611a499084906148c8565b9091555050306000908152609a602052604081208054839290611a6d9084906148c8565b90915550611a7b905061342d565b336001600160a01b03167f24fcca58a997b1b2eff6db8107e860458544c09ddd3693b3b779e1df6c0d6c5d82426040516111e1929190614915565b60006001600160a01b038316611adf57604051633d6601c760e11b815260040160405180910390fd5b3360009081526098602090815260408083206001600160a01b0387168452909152812054611b0e9084906148b5565b3360008181526098602090815260408083206001600160a01b038a1680855290835292819020859055518481529394509092600080516020614b16833981519152910160405180910390a35060019392505050565b6000611b6e836123b5565b9091111592915050565b600061120130611c9b565b600080611b8e613e11565b90506000611b9b82613eb8565b61ffff16905080600003611bc257604051632154bfcf60e21b815260040160405180910390fd5b611bcd6002836148b5565b915060005b81811015611c95576000611be584613ef2565b9050600080611bf56068876148b5565b90506000611c0382366148c8565b9050803592508265ffffffffffff16600003611c3257604051630336dc9d60e41b815260040160405180910390fd5b87600003611c4a578265ffffffffffff169750611c72565b878365ffffffffffff1614611c725760405163d9d1f46560e01b815260040160405180910390fd5b611c7c84886148b5565b9650505050508080611c8d90614969565b915050611bd2565b50505090565b609f546001600160a01b038281166000908152609a602052604080822054905163966da88960e01b81529193929092169163966da88991611ce1919086906004016148fe565b602060405180830381865afa158015611cfe573d6000803e3d6000fd5b505050506040513d601f19601f82011682018060405250810190610c449190614886565b611d2a613349565b81600003611d4b5760405163078e1d8560e01b815260040160405180910390fd5b6001600160a01b038116611d715760405162461bcd60e51b8152600401610ca490614982565b306001600160a01b03821603611d995760405162461bcd60e51b8152600401610ca4906149a8565b60a0546040516370a0823160e01b8152611e159184916001600160a01b03909116906370a0823190611dcf90339060040161460b565b602060405180830381865afa158015611dec573d6000803e3d6000fd5b505050506040513d601f19601f82011682018060405250810190611e109190614886565b613de3565b9150611e2081613610565b60975415611e655760975430600090815260996020526040902054611e469084906148b5565b1115611e6557604051633f27d61760e01b815260040160405180910390fd5b611e6f3383613df9565b611e798183613f26565b3060009081526099602052604081208054849290611e989084906148b5565b90915550611ea6905061342d565b609d546001600160a01b031615801590611ec65750611ec4816138d7565b155b15611f3057609d546040516328ba35d960e11b81526001600160a01b03909116906351746bb290611efd90859085906004016148fe565b600060405180830381600087803b158015611f1757600080fd5b505af1158015611f2b573d6000803e3d6000fd5b505050505b806001600160a01b0316336001600160a01b03167fef0ada5ca19bede6a40b575865a6ce451938d26835b7215e6a5e03bb2c4392128442604051611f75929190614915565b60405180910390a3611f8681613983565b610bca6001606555565b609e546001600160a01b0382811660009081526099602052604080822054905163966da88960e01b81529193929092169163966da88991611ce1919086906004016148fe565b611fde6132ea565b611fe7816133c0565b158015611ffc57506001600160a01b03811615155b1561201c57806040516322a2d07b60e21b8152600401610ca4919061460b565b609b80546001600160a01b0319166001600160a01b038316908117909155156120475761204761342d565b806001600160a01b03167fef1b7e9216e08b283cc613824ccb26ea505227777839a4f3c6810d64594e018242604051610cf791815260200190565b565b60a3546000906001600160a01b03161561210f5760a360009054906101000a90046001600160a01b03166001600160a01b031663726cd4156040518163ffffffff1660e01b8152600401602060405180830381865afa1580156120eb573d6000803e3d6000fd5b505050506040513d601f19601f8201168201806040525081019061120191906149dd565b50600090565b346000036121365760405163078e1d8560e01b815260040160405180910390fd5b61213f33613610565b6097541561218457609754306000908152609960205260409020546121659034906148b5565b111561218457604051633f27d61760e01b815260040160405180910390fd5b60a060009054906101000a90046001600160a01b03166001600160a01b031663d0e30db0346040518263ffffffff1660e01b81526004016000604051808303818588803b1580156121d457600080fd5b505af11580156121e8573d6000803e3d6000fd5b50505050506121f73334613f26565b30600090815260996020526040812080543492906122169084906148b5565b90915550612224905061342d565b609d546001600160a01b0316158015906122445750612242336138d7565b155b156122ae57609d546040516328ba35d960e11b81526001600160a01b03909116906351746bb29061227b90349033906004016148fe565b600060405180830381600087803b15801561229557600080fd5b505af11580156122a9573d6000803e3d6000fd5b505050505b6122b733613983565b336001600160a01b03167f90890809c654f11d6e72a28fa60149770a0d11ec6c92319d6ceb2bb0a4ea1a1534426040516122f2929190614915565b60405180910390a2565b6000612306613fad565b9050336001600160a01b038216146123785760405162461bcd60e51b815260206004820152602f60248201527f50656e64696e674f776e61626c653a2063616c6c6572206973206e6f7420746860448201526e32903832b73234b7339037bbb732b960891b6064820152608401610ca4565b61238181613fc0565b6111f36000614012565b6123936132ea565b60a380546001600160a01b0319166001600160a01b0392909216919091179055565b6000806123c183612ba4565b905060006123ce84611f90565b9050818110156123e157600092506123f3565b6123eb82826148c8565b949350505050565b5050919050565b6124026132ea565b61240b816133c0565b15801561242057506001600160a01b03811615155b1561244057806040516322a2d07b60e21b8152600401610ca4919061460b565b60a180546001600160a01b0319166001600160a01b0383169081179091556040514281527f8e6481d1924c9bb8cdfd9d6140f3e5570c34c6c580d915144728bbbf394eed0a90602001610cf7565b6033546001600160a01b031690565b60006001600160a01b0383166124c657604051633d6601c760e11b815260040160405180910390fd5b3360009081526098602090815260408083206001600160a01b03871684529091529020548281101561250f57828160405163054365bb60e31b8152600401610ca4929190614915565b600061251b84836148c8565b3360008181526098602090815260408083206001600160a01b038b1680855290835292819020859055518481529394509092600080516020614b16833981519152910160405180910390a3506001949350505050565b600061257b613349565b6001600160a01b0383166125a257604051633a954ecd60e21b815260040160405180910390fd5b306001600160a01b038416036125cb5760405163ed728e5760e01b815260040160405180910390fd5b336125d581613610565b6000806125e183613a1d565b915091508085111561260a5784816040516350d2479d60e11b8152600401610ca4929190614915565b612615838684613b70565b6001600160a01b03831660009081526099602052604090208054869003905561263d86613610565b6001600160a01b038616600090815260996020526040812080548792906126659084906148b5565b9091555050609d546001600160a01b03161580159061268357508415155b80156126955750612693836138d7565b155b80156126a757506126a5866138d7565b155b1561279157609d54604051630d5dbdb360e21b81526000916001600160a01b031690633576f6cc906126df90899088906004016148fe565b6020604051808303816000875af11580156126fe573d6000803e3d6000fd5b505050506040513d601f19601f820116820180604052508101906127229190614886565b9050801561278f57609d546040516328ba35d960e11b81526001600160a01b03909116906351746bb29061275c9084908b906004016148fe565b600060405180830381600087803b15801561277657600080fd5b505af115801561278a573d6000803e3d6000fd5b505050505b505b856001600160a01b0316836001600160a01b0316600080516020614af6833981519152876040516127c491815260200190565b60405180910390a36127d533613983565b6127de86613983565b60019350505050610c446001606555565b6127f7613349565b6127ff6132ea565b80831461281e5760405162461bcd60e51b8152600401610ca490614923565b60005b8381101561170d57600083838381811061283d5761283d614953565b905060200201359050600086868481811061285a5761285a614953565b905060200201602081019061286f919061461f565b9050816000036128925760405163078e1d8560e01b815260040160405180910390fd5b6001600160a01b0381166128b85760405162461bcd60e51b8152600401610ca490614982565b306001600160a01b038216036128e05760405162461bcd60e51b8152600401610ca4906149a8565b6001600160a01b038116600090815260996020526040902054156129465760405162461bcd60e51b815260206004820152601d60248201527f4465706f7369746f7220616c726561647920696e697469616c697a65640000006044820152606401610ca4565b61294f81613610565b6097541561299457609754306000908152609960205260409020546129759084906148b5565b111561299457604051633f27d61760e01b815260040160405180910390fd5b61299e8183613f26565b30600090815260996020526040812080548492906129bd9084906148b5565b909155506129cb905061342d565b609d546001600160a01b0316158015906129eb57506129e9816138d7565b155b15612a5557609d546040516328ba35d960e11b81526001600160a01b03909116906351746bb290612a2290859085906004016148fe565b600060405180830381600087803b158015612a3c57600080fd5b505af1158015612a50573d6000803e3d6000fd5b505050505b806001600160a01b0316336001600160a01b03167fb5a680d9a22629ee5eef8f54bfbe6204ddb674ca26425ddadb06cb4b53313d568442604051612a9a929190614915565b60405180910390a3612aab81613983565b50508080612ab890614969565b915050612821565b60a26020528160005260406000208181548110612adc57600080fd5b600091825260209091206003909102018054600182015460029092015490935090915083565b6111f38133611d22565b612b14614545565b6040518060a00160405280612b276111f6565b8152602001612b34612b63565b8152602001612b41613250565b8152602001612b4e611b78565b8152602001670cd64299613c80009052919050565b609b546000906001600160a01b0316637cd08331612b7f611b78565b612b876111f6565b6040518363ffffffff1660e01b8152600401611747929190614915565b600080805b6001600160a01b038416600090815260a26020526040902054811015612c6a576001600160a01b038416600090815260a260205260409020805442919083908110612bf657612bf6614953565b9060005260206000209060030201600201541115612c58576001600160a01b038416600090815260a260205260409020805482908110612c3857612c38614953565b90600052602060002090600302016001015482612c5591906148b5565b91505b80612c6281614969565b915050612ba9565b5092915050565b6000805b6001600160a01b038316600090815260a26020526040902054811015612d8b576001600160a01b038316600090815260a260205260409020805442919083908110612cc257612cc2614953565b9060005260206000209060030201600201541115612d79576001600160a01b038316600090815260a26020526040902080546305a39a80919083908110612d0b57612d0b614953565b600091825260208083206003909202909101546001600160a01b038716835260a29091526040909120805484908110612d4657612d46614953565b906000526020600020906003020160010154612d6291906149fa565b612d6c9190614a11565b612d7690836148b5565b91505b80612d8381614969565b915050612c75565b50919050565b609c546001600160a01b0316612dba57604051631c038dab60e21b815260040160405180910390fd5b609c5460405163039ff21960e21b81526001600160a01b0390911690630e7fc86490612dea90339060040161460b565b602060405180830381865afa158015612e07573d6000803e3d6000fd5b505050506040513d601f19601f82011682018060405250810190612e2b9190614a33565b612e4857604051637582fa9b60e11b815260040160405180910390fd5b612e506111f6565b600003612e70576040516316d5c93f60e21b815260040160405180910390fd5b612e78613349565b60a0546040516370a0823160e01b81526001600160a01b03909116906370a0823190612ea890309060040161460b565b602060405180830381865afa158015612ec5573d6000803e3d6000fd5b505050506040513d601f19601f82011682018060405250810190612ee99190614886565b811115612f09576040516316d5c93f60e21b815260040160405180910390fd5b612f1233613cdd565b336000908152609a602052604081208054839290612f319084906148b5565b9091555050306000908152609a602052604081208054839290612f559084906148b5565b90915550612f65905033826133a2565b612f6d61342d565b336001600160a01b03167fd6b37be10b58108f696d9ed067fedad0bff7cb417ef4c28d2f8a25d6d83c98d58242604051612fa8929190614915565b60405180910390a2612fba6001606555565b670cd64299613c8000612fcb6111f6565b612fd3611b78565b612fe590670de0b6b3a76400006149fa565b612fef9190614a11565b11156111f3576040516372b9ce3f60e11b815260040160405180910390fd5b81613018336123b5565b10156130655760405162461bcd60e51b815260206004820152601c60248201527b496e73756666696369656e742062616c616e636520746f206c6f636b60201b6044820152606401610ca4565b6305a39a808111156130c35760405162461bcd60e51b815260206004820152602160248201527f43616e6e6f74206c6f636b20666f72206d6f7265207468616e203320796561726044820152607360f81b6064820152608401610ca4565b33600090815260a2602090815260409182902082516060810184528481529182018590529181016130f484426148b5565b905281546001818101845560009384526020938490208351600390930201918255928201519281019290925560400151600290910155337fada80de846c2fa6289ae8db8bd0145346851ca76d49946df18240ebbf97200a7838361315881426148b5565b6040805193845260208401929092529082015260600160405180910390a2610bca33613983565b6000611201613fad565b6131916132ea565b6001600160a01b0381166131fd5760405162461bcd60e51b815260206004820152602d60248201527f50656e64696e674f776e61626c653a206e6577206f776e65722069732074686560448201526c207a65726f206164647265737360981b6064820152608401610ca4565b61320681614012565b806001600160a01b031661321861248e565b6001600160a01b03167fed8889f560326eb138920d842192f0eb3dd22b4f139c87a2c57538e05bae127860405160405180910390a350565b609b546000906001600160a01b031663df841eec612b7f611b78565b6132746132ea565b61327d816133c0565b61329c57806040516322a2d07b60e21b8152600401610ca4919061460b565b609c80546001600160a01b0319166001600160a01b0383169081179091556040514281527f04dce7d074f7e287a2e6e3516c802271d58d5c14e0dede83a49719eb6b92046990602001610cf7565b336132f361248e565b6001600160a01b0316146120825760405162461bcd60e51b815260206004820181905260248201527f4f776e61626c653a2063616c6c6572206973206e6f7420746865206f776e65726044820152606401610ca4565b60026065540361339b5760405162461bcd60e51b815260206004820152601f60248201527f5265656e7472616e637947756172643a207265656e7472616e742063616c6c006044820152606401610ca4565b6002606555565b60a054610bca906001600160a01b03168383614024565b6001606555565b6001600160a01b03163b151590565b600054610100900460ff166133f65760405162461bcd60e51b8152600401610ca490614a55565b612082614150565b600054610100900460ff166134255760405162461bcd60e51b8152600401610ca490614a55565b612082614180565b6000613437611b78565b905060006134436111f6565b609b549091506001600160a01b031661346f5760405163fd4851e960e01b815260040160405180910390fd5b609e54609b54604051637cd0833160e01b81526001600160a01b03928316926334fcf437921690637cd08331906134ac9087908790600401614915565b602060405180830381865afa1580156134c9573d6000803e3d6000fd5b505050506040513d601f19601f820116820180604052508101906134ed9190614886565b6040518263ffffffff1660e01b815260040161350b91815260200190565b600060405180830381600087803b15801561352557600080fd5b505af1158015613539573d6000803e3d6000fd5b5050609f54609b546040516337e107bb60e21b81526001600160a01b0392831694506334fcf437935091169063df841eec9061357b9087908790600401614915565b602060405180830381865afa158015613598573d6000803e3d6000fd5b505050506040513d601f19601f820116820180604052508101906135bc9190614886565b6040518263ffffffff1660e01b81526004016135da91815260200190565b600060405180830381600087803b1580156135f457600080fd5b505af1158015613608573d6000803e3d6000fd5b505050505050565b6001600160a01b03811660009081526099602052604081205461363283611f90565b61363c91906148c8565b90506136488282613f26565b61365130611f90565b306000908152609960205260409081902091909155516001600160a01b038316907f9bbd517758fbae61197f1c1c04c8614064e89512dbaf4350dcdf76fcaa5e2161906136a19084904290614915565b60405180910390a2609e54604051637681d99b60e11b81526001600160a01b039091169063ed03b336906136d990859060040161460b565b600060405180830381600087803b1580156136f357600080fd5b505af1158015613707573d6000803e3d6000fd5b5050609e54604051637681d99b60e11b81526001600160a01b03909116925063ed03b33691506135da90309060040161460b565b6001600160a01b03821660009081526099602052604090205481111561377457604051630bba337f60e11b815260040160405180910390fd5b60008061378084613a1d565b91509150808311156137a55760405163a06a83a160e01b815260040160405180910390fd5b6137b0848484613b70565b6001600160a01b03841660008181526099602090815260408083208054889003905551868152919291600080516020614af6833981519152910160405180910390a350505050565b604080516000808252602082019092526001600160a01b0384169083906040516138229190614aa0565b60006040518083038185875af1925050503d806000811461385f576040519150601f19603f3d011682016040523d82523d6000602084013e613864565b606091505b50509050806138d25760405162461bcd60e51b815260206004820152603460248201527f5472616e7366657248656c7065723a3a736166655472616e736665724554483a60448201527308115512081d1c985b9cd9995c8819985a5b195960621b6064820152608401610ca4565b505050565b6000731d3b1350026195670f8b228711977561fe3e60016001600160a01b0383161480613920575073f03e2984e549ddc747bc709e6c6ef4791882a5026001600160a01b038316145b806139475750736edba4a5dbb3aec671f2e1b16a67fa3a076a2ed86001600160a01b038316145b8061396e575073114989e03993edc97a5946bbb7be885ef0aee9eb6001600160a01b038316145b1561397b57506001919050565b506000919050565b600061398d612084565b90506001600160a01b03811615610bca576139a6610c4a565b156139f1576138d281836040516024016139c0919061460b565b60408051601f198184030181529190526020810180516001600160e01b0316636cec346160e01b17905260006141a7565b60405163bf18c23960e01b81526001600160a01b0382169063bf18c239906135da90859060040161460b565b60a15460009081906001600160a01b031615613b515760a15460405163cbf9fe5f60e01b81526001600160a01b039091169063cbf9fe5f90613a6390869060040161460b565b602060405180830381865afa158015613a80573d6000803e3d6000fd5b505050506040513d601f19601f82011682018060405250810190613aa49190614886565b91508115613b515760a15460405163512edc6760e11b81526001600160a01b039091169063a25db8ce90613adc90869060040161460b565b602060405180830381865afa158015613af9573d6000803e3d6000fd5b505050506040513d601f19601f82011682018060405250810190613b1d9190614886565b613b2790836148c8565b6001600160a01b038416600090815260996020526040902054613b4a91906148c8565b9050915091565b506001600160a01b038216600090815260996020526040902054915091565b6001600160a01b038316600090815260996020526040812054613b949083906148c8565b90508083118015613baf575060a1546001600160a01b031615155b15610ac05760a1546001600160a01b03166349c1de3f85613bd084876148c8565b6040518363ffffffff1660e01b8152600401613bed929190614abc565b600060405180830381600087803b158015613c0757600080fd5b505af1158015610fa4573d6000803e3d6000fd5b609c546000906001600160a01b0316613c4757604051631c038dab60e21b815260040160405180910390fd5b609c5460405163039ff21960e21b81526001600160a01b0390911690630e7fc86490613c7790859060040161460b565b602060405180830381865afa158015613c94573d6000803e3d6000fd5b505050506040513d601f19601f82011682018060405250810190613cb89190614a33565b613cd557604051637582fa9b60e11b815260040160405180910390fd5b506001919050565b613ce681611c9b565b6001600160a01b0382166000908152609a6020526040902055613d0830611c9b565b306000908152609a60205260409081902091909155609f549051637681d99b60e11b81526001600160a01b039091169063ed03b33690613d4c90849060040161460b565b600060405180830381600087803b158015613d6657600080fd5b505af1158015613d7a573d6000803e3d6000fd5b5050609f54604051637681d99b60e11b81526001600160a01b03909116925063ed03b3369150613dae90309060040161460b565b600060405180830381600087803b158015613dc857600080fd5b505af1158015613ddc573d6000803e3d6000fd5b5050505050565b6000818310613df25781611534565b5090919050565b60a054610bca906001600160a01b031683308461423b565b60006602ed57011e0000601f1936013581161480613e42576040516373bb264f60e11b815260040160405180910390fd5b60003660291115613e6657604051632bcb7bc560e11b815260040160405180910390fd5b5060281936013560006009613e81600362ffffff85166148b5565b613e8b91906148b5565b905036613e996002836148b5565b11156115345760405163c30a7bd760e01b815260040160405180910390fd5b600080613ec66020846148b5565b905036811115613ee957604051632bcb7bc560e11b815260040160405180910390fd5b36033592915050565b6000806000613f0084614371565b9092509050604e613f128260206148b5565b613f1c90846149fa565b6123eb91906148b5565b6001600160a01b038216613f4d576040516346dbfb6d60e11b815260040160405180910390fd5b6001600160a01b03821660009081526099602052604081208054839290613f759084906148b5565b90915550506040518181526001600160a01b03831690600090600080516020614af68339815191529060200160405180910390a35050565b600080516020614ad68339815191525490565b603380546001600160a01b038381166001600160a01b0319831681179093556040519116919082907f8be0079c531659141344cd1fd0a4f28419497f9722a3daafe3b4186f6b6457e090600090a35050565b600080516020614ad683398151915255565b600080846001600160a01b031663a9059cbb8585604051602401614049929190614abc565b6040516020818303038152906040529060e01b6020820180516001600160e01b0383818316178352505050506040516140829190614aa0565b6000604051808303816000865af19150503d80600081146140bf576040519150601f19603f3d011682016040523d82523d6000602084013e6140c4565b606091505b50915091508180156140ee5750805115806140ee5750808060200190518101906140ee9190614a33565b613ddc5760405162461bcd60e51b815260206004820152602d60248201527f5472616e7366657248656c7065723a3a736166655472616e736665723a20747260448201526c185b9cd9995c8819985a5b1959609a1b6064820152608401610ca4565b600054610100900460ff166141775760405162461bcd60e51b8152600401610ca490614a55565b61208233613fc0565b600054610100900460ff166133b95760405162461bcd60e51b8152600401610ca490614a55565b606060006141b4846143c8565b9050600080866001600160a01b0316856141cf5760006141d1565b345b846040516141df9190614aa0565b60006040518083038185875af1925050503d806000811461421c576040519150601f19603f3d011682016040523d82523d6000602084013e614221565b606091505b50915091506142308282614457565b979650505050505050565b604080516001600160a01b0385811660248301528481166044830152606480830185905283518084039091018152608490920183526020820180516001600160e01b03166323b872dd60e01b179052915160009283929088169161429f9190614aa0565b6000604051808303816000865af19150503d80600081146142dc576040519150601f19603f3d011682016040523d82523d6000602084013e6142e1565b606091505b509150915081801561430b57508051158061430b57508080602001905181019061430b9190614a33565b6136085760405162461bcd60e51b815260206004820152603160248201527f5472616e7366657248656c7065723a3a7472616e7366657246726f6d3a207472604482015270185b9cd9995c919c9bdb4819985a5b1959607a1b6064820152608401610ca4565b6000808080806143826041876148b5565b9050600061439b6143946020846148b5565b36906144ce565b8035945090506143ac8160036144ce565b62ffffff9490941697933563ffffffff16965092945050505050565b805160609060006143d76144da565b905060006143e582846148b5565b90503682111561440857604051632bcb7bc560e11b815260040160405180910390fd5b6060604051905081815285602001848101826020015b8183101561443657825181526020928301920161441e565b50505082833603856020018301379190920181016020016040529392505050565b606082612d8b57815160000361448057604051632b3ff13d60e11b815260040160405180910390fd5b602082015162461bcd60e51b1480156144b3576040516301efd04f60e31b81526044840190610ca49082906004016145b3565b8260405163fd36fde360e01b8152600401610ca491906145b3565b600061153482846148c8565b6000806144e5613e11565b905060006144f282613eb8565b61ffff1690506145036002836148b5565b915060005b8181101561453d57600061451b84613ef2565b905061452781856148b5565b935050808061453590614969565b915050614508565b509092915050565b6040518060a001604052806005906020820280368337509192915050565b60005b8381101561457e578181015183820152602001614566565b50506000910152565b6000815180845261459f816020860160208601614563565b601f01601f19169290920160200192915050565b6020815260006115346020830184614587565b6001600160a01b03811681146111f357600080fd5b600080604083850312156145ee57600080fd5b823591506020830135614600816145c6565b809150509250929050565b6001600160a01b0391909116815260200190565b60006020828403121561463157600080fd5b8135611534816145c6565b6000806040838503121561464f57600080fd5b823561465a816145c6565b946020939093013593505050565b600080600080600080600060e0888a03121561468357600080fd5b873561468e816145c6565b9650602088013561469e816145c6565b955060408801356146ae816145c6565b945060608801356146be816145c6565b935060808801356146ce816145c6565b925060a08801356146de816145c6565b8092505060c0880135905092959891949750929550565b60006020828403121561470757600080fd5b5035919050565b60008060006060848603121561472357600080fd5b833561472e816145c6565b9250602084013561473e816145c6565b929592945050506040919091013590565b60008083601f84011261476157600080fd5b5081356001600160401b0381111561477857600080fd5b6020830191508360208260051b850101111561479357600080fd5b9250929050565b600080600080604085870312156147b057600080fd5b84356001600160401b03808211156147c757600080fd5b6147d38883890161474f565b909650945060208701359150808211156147ec57600080fd5b506147f98782880161474f565b95989497509550505050565b60a08101818360005b600581101561482d57815183526020928301929091019060010161480e565b50505092915050565b6000806040838503121561484957600080fd5b8235614854816145c6565b91506020830135614600816145c6565b6000806040838503121561487757600080fd5b50508035926020909101359150565b60006020828403121561489857600080fd5b5051919050565b634e487b7160e01b600052601160045260246000fd5b80820180821115610c4457610c4461489f565b81810381811115610c4457610c4461489f565b6000602082840312156148ed57600080fd5b815160ff8116811461153457600080fd5b9182526001600160a01b0316602082015260400190565b918252602082015260400190565b602080825260169082015275082e4e4c2f2e640d8cadccee8d040dad2e6dac2e8c6d60531b604082015260600190565b634e487b7160e01b600052603260045260246000fd5b60006001820161497b5761497b61489f565b5060010190565b6020808252600c908201526b41646472657373207a65726f60a01b604082015260600190565b6020808252818101527f43616e6e6f74206465706f736974206f6e20626568616c66206f6620706f6f6c604082015260600190565b6000602082840312156149ef57600080fd5b8151611534816145c6565b8082028115828204841417610c4457610c4461489f565b600082614a2e57634e487b7160e01b600052601260045260246000fd5b500490565b600060208284031215614a4557600080fd5b8151801515811461153457600080fd5b6020808252602b908201527f496e697469616c697a61626c653a20636f6e7472616374206973206e6f74206960408201526a6e697469616c697a696e6760a81b606082015260800190565b60008251614ab2818460208701614563565b9190910192915050565b6001600160a01b0392909216825260208201526040019056fe63a0d9df49fae3f1b9d24f8dc819a568c429a1b11d0d8e9de63df53a0194acb2ddf252ad1be2c89b69c2b068fc378daa952ba7f163c4a11628f55a4df523b3ef8c5be1e5ebec7d5bd14f71427d1e84f3dd0314c0f7b2291e5b200ac8c7c3b925df273cb619d95419a9cd0ec88123a0538c85064229baa6363788f743fff90deba264697066735822122055217c06978996e18602b386d45d7e04cd2cc8159a300930598956c8a8b4bccc64736f6c63430008110033",
  "devdoc": {
    "details": "Contract allowing user to deposit to and borrow WETH from a dedicated user account",
    "errors": {
      "InsufficientAllowance(uint256,uint256)": [
        {
          "params": {
            "allowance": "current allowance",
            "requested": "requested transfer amount"
          }
        }
      ],
      "TransferAmountExceedsBalance(uint256,uint256)": [
        {
          "params": {
            "amount": "transfer amount",
            "balance": "available balance"
          }
        }
      ]
    },
    "kind": "dev",
    "methods": {
      "allowance(address,address)": {
        "details": "Returns the remaining number of tokens that `spender` will be allowed to spend on behalf of `owner` through {transferFrom}. This is zero by default. This value changes when {approve} or {transferFrom} are called."
      },
      "approve(address,uint256)": {
        "details": "Sets `amount` as the allowance of `spender` over the caller's tokens. Returns a boolean value indicating whether the operation succeeded. IMPORTANT: Beware that changing an allowance with this method brings the risk that someone may use both the old and the new allowance by unfortunate transaction ordering. One possible solution to mitigate this race condition is to first reduce the spender's allowance to 0 and set the desired value afterwards: https://github.com/ethereum/EIPs/issues/20#issuecomment-263524729 Emits an {Approval} event."
      },
      "balanceOf(address)": {
        "details": "_user the address of queried depositor*"
      },
      "borrow(uint256)": {
        "details": "_amount the amount to be borrowedIt is only meant to be used by a SmartLoanDiamondProxy*"
      },
      "getFullyVestedLockedBalance(address)": {
        "details": "The fully vested locked balance is used in the governance mechanism of the system, specifically for the allocation of vPrime tokens. The method calculates the fully vested locked balance by iterating over all the locks of the account and summing up the amounts of those locks that are still active (i.e., their `unlockTime` is greater than the current block timestamp). However, the amount of each lock is scaled by the ratio of its `lockTime` to the `MAX_LOCK_TIME` (3 years). This means that the longer the lock time, the larger the contribution of the lock to the fully vested locked balance. The fully vested locked balance is used to calculate the maximum vPrime allocation for a user. Users accrue vPrime over a period of 3 years, from 0 to the maximum vPrime based on their 10-1 pairs of pool-deposit and sPrime. Locking pool deposits and sPrime immediately vests the vPrime.",
        "params": {
          "account": "The address of the account for which to calculate the fully vested locked balance."
        },
        "returns": {
          "fullyVestedBalance": "The fully vested locked balance of the provided account."
        }
      },
      "owner()": {
        "details": "Returns the address of the current owner."
      },
      "renounceOwnership()": {
        "details": "Leaves the contract without owner. It will not be possible to call `onlyOwner` functions. Can only be called by the current owner. NOTE: Renouncing ownership will leave the contract without an owner, thereby disabling any functionality that is only available to the owner."
      },
      "repay(uint256)": {
        "details": "It is only meant to be used by a SmartLoanDiamondProxy*"
      },
      "setBorrowersRegistry(address)": {
        "details": "borrowersRegistry the address of borrowers registry*"
      },
      "setPoolRewarder(address)": {
        "details": "_poolRewarder the address of PoolRewarder*"
      },
      "setRatesCalculator(address)": {
        "details": "ratesCalculator the address of rates calculator*"
      },
      "setTotalSupplyCap(uint256)": {
        "details": "_newTotalSupplyCap new deposit cap*"
      },
      "setVestingDistributor(address)": {
        "details": "_distributor the address of vestingDistributor*"
      },
      "totalSupply()": {
        "details": "Returns the amount of tokens in existence."
      },
      "withdraw(uint256)": {
        "details": "_amount the amount to be withdrawn*"
      },
      "withdrawNativeToken(uint256)": {
        "details": "_amount the amount to be withdrawn*"
      }
    },
    "title": "WethPool",
    "version": 1
  },
  "userdoc": {
    "kind": "user",
    "methods": {
      "balanceOf(address)": {
        "notice": "Returns the current deposited amount for the given user The value includes the interest rates earned at the current moment"
      },
      "borrow(uint256)": {
        "notice": "Borrows the specified amount It updates user borrowed balance, total borrowed amount and rates"
      },
      "deposit(uint256)": {
        "notice": "Deposits the amount It updates user deposited balance, total deposited and rates*"
      },
      "depositNativeToken()": {
        "notice": "Wraps and deposits amount attached to the transaction*"
      },
      "depositOnBehalf(uint256,address)": {
        "notice": "Deposits the amount on behalf of `_of` user. It updates `_of` user deposited balance, total deposited and rates*"
      },
      "getBorrowingRate()": {
        "notice": "Returns the current interest rate for borrowings*"
      },
      "getDepositRate()": {
        "notice": "Returns the current interest rate for deposits*"
      },
      "getFullPoolStatus()": {
        "notice": "Returns full pool status"
      },
      "getFullyVestedLockedBalance(address)": {
        "notice": "Calculates and returns the fully vested locked balance for a given account."
      },
      "recoverSurplus(uint256,address)": {
        "notice": "Recovers the surplus funds resultant from difference between deposit and borrowing rates*"
      },
      "repay(uint256)": {
        "notice": "Repays the amount It updates user borrowed balance, total borrowed amount and rates"
      },
      "setBorrowersRegistry(address)": {
        "notice": "Sets the new borrowers registry contract. The borrowers registry decides if an account can borrow funds. Only the owner of the Contract can execute this function."
      },
      "setPoolRewarder(address)": {
        "notice": "Sets the new Pool Rewarder. The IPoolRewarder that distributes additional token rewards to people having a stake in this pool proportionally to their stake and time of participance. Only the owner of the Contract can execute this function."
      },
      "setRatesCalculator(address)": {
        "notice": "Sets the new rate calculator. The calculator is an external contract that contains the logic for calculating deposit and borrowing rates. Only the owner of the Contract can execute this function."
      },
      "setTotalSupplyCap(uint256)": {
        "notice": "Sets new totalSupplyCap limiting how much in total can be deposited to the Pool. Only the owner of the Contract can execute this function."
      },
      "setVestingDistributor(address)": {
        "notice": "Sets the new Vesting Distributor. Only the owner of the Contract can execute this function."
      },
      "withdraw(uint256)": {
        "notice": "Withdraws selected amount from the user deposits"
      },
      "withdrawNativeToken(uint256)": {
        "notice": "Unwraps and withdraws selected amount from the user deposits"
      }
    },
    "version": 1
  },
  "storageLayout": {
    "storage": [
      {
        "astId": 3226,
        "contract": "contracts/deployment/arbitrum/WethPool.sol:WethPool",
        "label": "_initialized",
        "offset": 0,
        "slot": "0",
        "type": "t_uint8"
      },
      {
        "astId": 3229,
        "contract": "contracts/deployment/arbitrum/WethPool.sol:WethPool",
        "label": "_initializing",
        "offset": 1,
        "slot": "0",
        "type": "t_bool"
      },
      {
        "astId": 4623,
        "contract": "contracts/deployment/arbitrum/WethPool.sol:WethPool",
        "label": "__gap",
        "offset": 0,
        "slot": "1",
        "type": "t_array(t_uint256)50_storage"
      },
      {
        "astId": 3098,
        "contract": "contracts/deployment/arbitrum/WethPool.sol:WethPool",
        "label": "_owner",
        "offset": 0,
        "slot": "51",
        "type": "t_address"
      },
      {
        "astId": 3218,
        "contract": "contracts/deployment/arbitrum/WethPool.sol:WethPool",
        "label": "__gap",
        "offset": 0,
        "slot": "52",
        "type": "t_array(t_uint256)49_storage"
      },
      {
        "astId": 3402,
        "contract": "contracts/deployment/arbitrum/WethPool.sol:WethPool",
        "label": "_status",
        "offset": 0,
        "slot": "101",
        "type": "t_uint256"
      },
      {
        "astId": 3471,
        "contract": "contracts/deployment/arbitrum/WethPool.sol:WethPool",
        "label": "__gap",
        "offset": 0,
        "slot": "102",
        "type": "t_array(t_uint256)49_storage"
      },
      {
        "astId": 18219,
        "contract": "contracts/deployment/arbitrum/WethPool.sol:WethPool",
        "label": "totalSupplyCap",
        "offset": 0,
        "slot": "151",
        "type": "t_uint256"
      },
      {
        "astId": 18225,
        "contract": "contracts/deployment/arbitrum/WethPool.sol:WethPool",
        "label": "_allowed",
        "offset": 0,
        "slot": "152",
        "type": "t_mapping(t_address,t_mapping(t_address,t_uint256))"
      },
      {
        "astId": 18229,
        "contract": "contracts/deployment/arbitrum/WethPool.sol:WethPool",
        "label": "_deposited",
        "offset": 0,
        "slot": "153",
        "type": "t_mapping(t_address,t_uint256)"
      },
      {
        "astId": 18233,
        "contract": "contracts/deployment/arbitrum/WethPool.sol:WethPool",
        "label": "borrowed",
        "offset": 0,
        "slot": "154",
        "type": "t_mapping(t_address,t_uint256)"
      },
      {
        "astId": 18236,
        "contract": "contracts/deployment/arbitrum/WethPool.sol:WethPool",
        "label": "ratesCalculator",
        "offset": 0,
        "slot": "155",
        "type": "t_contract(IRatesCalculator)72584"
      },
      {
        "astId": 18239,
        "contract": "contracts/deployment/arbitrum/WethPool.sol:WethPool",
        "label": "borrowersRegistry",
        "offset": 0,
        "slot": "156",
        "type": "t_contract(IBorrowersRegistry)71863"
      },
      {
        "astId": 18242,
        "contract": "contracts/deployment/arbitrum/WethPool.sol:WethPool",
        "label": "poolRewarder",
        "offset": 0,
        "slot": "157",
        "type": "t_contract(IPoolRewarder)72444"
      },
      {
        "astId": 18245,
        "contract": "contracts/deployment/arbitrum/WethPool.sol:WethPool",
        "label": "depositIndex",
        "offset": 0,
        "slot": "158",
        "type": "t_contract(IIndex)72108"
      },
      {
        "astId": 18248,
        "contract": "contracts/deployment/arbitrum/WethPool.sol:WethPool",
        "label": "borrowIndex",
        "offset": 0,
        "slot": "159",
        "type": "t_contract(IIndex)72108"
      },
      {
        "astId": 18250,
        "contract": "contracts/deployment/arbitrum/WethPool.sol:WethPool",
        "label": "tokenAddress",
        "offset": 0,
        "slot": "160",
        "type": "t_address_payable"
      },
      {
        "astId": 18253,
        "contract": "contracts/deployment/arbitrum/WethPool.sol:WethPool",
        "label": "vestingDistributor",
        "offset": 0,
        "slot": "161",
        "type": "t_contract(VestingDistributor)26969"
      },
      {
        "astId": 18255,
        "contract": "contracts/deployment/arbitrum/WethPool.sol:WethPool",
        "label": "_decimals",
        "offset": 20,
        "slot": "161",
        "type": "t_uint8"
      },
      {
        "astId": 18268,
        "contract": "contracts/deployment/arbitrum/WethPool.sol:WethPool",
        "label": "locks",
        "offset": 0,
        "slot": "162",
        "type": "t_mapping(t_address,t_array(t_struct(LockDetails)18262_storage)dyn_storage)"
      },
      {
        "astId": 18276,
        "contract": "contracts/deployment/arbitrum/WethPool.sol:WethPool",
        "label": "tokenManager",
        "offset": 0,
        "slot": "163",
        "type": "t_contract(ITokenManager)73017"
      }
    ],
    "types": {
      "t_address": {
        "encoding": "inplace",
        "label": "address",
        "numberOfBytes": "20"
      },
      "t_address_payable": {
        "encoding": "inplace",
        "label": "address payable",
        "numberOfBytes": "20"
      },
      "t_array(t_struct(LockDetails)18262_storage)dyn_storage": {
        "base": "t_struct(LockDetails)18262_storage",
        "encoding": "dynamic_array",
        "label": "struct Pool.LockDetails[]",
        "numberOfBytes": "32"
      },
      "t_array(t_uint256)49_storage": {
        "base": "t_uint256",
        "encoding": "inplace",
        "label": "uint256[49]",
        "numberOfBytes": "1568"
      },
      "t_array(t_uint256)50_storage": {
        "base": "t_uint256",
        "encoding": "inplace",
        "label": "uint256[50]",
        "numberOfBytes": "1600"
      },
      "t_bool": {
        "encoding": "inplace",
        "label": "bool",
        "numberOfBytes": "1"
      },
      "t_contract(IBorrowersRegistry)71863": {
        "encoding": "inplace",
        "label": "contract IBorrowersRegistry",
        "numberOfBytes": "20"
      },
      "t_contract(IIndex)72108": {
        "encoding": "inplace",
        "label": "contract IIndex",
        "numberOfBytes": "20"
      },
      "t_contract(IPoolRewarder)72444": {
        "encoding": "inplace",
        "label": "contract IPoolRewarder",
        "numberOfBytes": "20"
      },
      "t_contract(IRatesCalculator)72584": {
        "encoding": "inplace",
        "label": "contract IRatesCalculator",
        "numberOfBytes": "20"
      },
      "t_contract(ITokenManager)73017": {
        "encoding": "inplace",
        "label": "contract ITokenManager",
        "numberOfBytes": "20"
      },
      "t_contract(VestingDistributor)26969": {
        "encoding": "inplace",
        "label": "contract VestingDistributor",
        "numberOfBytes": "20"
      },
      "t_mapping(t_address,t_array(t_struct(LockDetails)18262_storage)dyn_storage)": {
        "encoding": "mapping",
        "key": "t_address",
        "label": "mapping(address => struct Pool.LockDetails[])",
        "numberOfBytes": "32",
        "value": "t_array(t_struct(LockDetails)18262_storage)dyn_storage"
      },
      "t_mapping(t_address,t_mapping(t_address,t_uint256))": {
        "encoding": "mapping",
        "key": "t_address",
        "label": "mapping(address => mapping(address => uint256))",
        "numberOfBytes": "32",
        "value": "t_mapping(t_address,t_uint256)"
      },
      "t_mapping(t_address,t_uint256)": {
        "encoding": "mapping",
        "key": "t_address",
        "label": "mapping(address => uint256)",
        "numberOfBytes": "32",
        "value": "t_uint256"
      },
      "t_struct(LockDetails)18262_storage": {
        "encoding": "inplace",
        "label": "struct Pool.LockDetails",
        "members": [
          {
            "astId": 18257,
            "contract": "contracts/deployment/arbitrum/WethPool.sol:WethPool",
            "label": "lockTime",
            "offset": 0,
            "slot": "0",
            "type": "t_uint256"
          },
          {
            "astId": 18259,
            "contract": "contracts/deployment/arbitrum/WethPool.sol:WethPool",
            "label": "amount",
            "offset": 0,
            "slot": "1",
            "type": "t_uint256"
          },
          {
            "astId": 18261,
            "contract": "contracts/deployment/arbitrum/WethPool.sol:WethPool",
            "label": "unlockTime",
            "offset": 0,
            "slot": "2",
            "type": "t_uint256"
          }
        ],
        "numberOfBytes": "96"
      },
      "t_uint256": {
        "encoding": "inplace",
        "label": "uint256",
        "numberOfBytes": "32"
      },
      "t_uint8": {
        "encoding": "inplace",
        "label": "uint8",
        "numberOfBytes": "1"
      }
    }
  }
}