{
  "_format": "hh-sol-artifact-1",
  "contractName": "SmartLoanSinglePriceAware",
  "sourceName": "contracts/deprecated/SmartLoanSinglePriceAware.sol",
  "abi": [
    {
      "anonymous": false,
      "inputs": [
        {
          "indexed": true,
          "internalType": "address",
          "name": "borrower",
          "type": "address"
        },
        {
          "indexed": false,
          "internalType": "uint256",
          "name": "amount",
          "type": "uint256"
        },
        {
          "indexed": false,
          "internalType": "uint256",
          "name": "timestamp",
          "type": "uint256"
        }
      ],
      "name": "Borrowed",
      "type": "event"
    },
    {
      "anonymous": false,
      "inputs": [
        {
          "indexed": true,
          "internalType": "address",
          "name": "funder",
          "type": "address"
        },
        {
          "indexed": false,
          "internalType": "uint256",
          "name": "amount",
          "type": "uint256"
        },
        {
          "indexed": false,
          "internalType": "uint256",
          "name": "timestamp",
          "type": "uint256"
        }
      ],
      "name": "Funded",
      "type": "event"
    },
    {
      "anonymous": false,
      "inputs": [
        {
          "indexed": true,
          "internalType": "address",
          "name": "investor",
          "type": "address"
        },
        {
          "indexed": true,
          "internalType": "bytes32",
          "name": "asset",
          "type": "bytes32"
        },
        {
          "indexed": false,
          "internalType": "uint256",
          "name": "amount",
          "type": "uint256"
        },
        {
          "indexed": false,
          "internalType": "uint256",
          "name": "timestamp",
          "type": "uint256"
        }
      ],
      "name": "Invested",
      "type": "event"
    },
    {
      "anonymous": false,
      "inputs": [
        {
          "indexed": true,
          "internalType": "address",
          "name": "previousOwner",
          "type": "address"
        },
        {
          "indexed": true,
          "internalType": "address",
          "name": "newOwner",
          "type": "address"
        }
      ],
      "name": "OwnershipTransferred",
      "type": "event"
    },
    {
      "anonymous": false,
      "inputs": [
        {
          "indexed": true,
          "internalType": "address",
          "name": "newSigner",
          "type": "address"
        }
      ],
      "name": "TrustedSignerChanged",
      "type": "event"
    },
    {
      "inputs": [
        {
          "internalType": "address",
          "name": "_trustedSigner",
          "type": "address"
        }
      ],
      "name": "authorizeSigner",
      "outputs": [],
      "stateMutability": "nonpayable",
      "type": "function"
    },
    {
      "inputs": [
        {
          "internalType": "uint256",
          "name": "_amount",
          "type": "uint256"
        }
      ],
      "name": "borrow",
      "outputs": [],
      "stateMutability": "nonpayable",
      "type": "function"
    },
    {
      "inputs": [],
      "name": "executeGetAllAssetsPrices",
      "outputs": [
        {
          "internalType": "uint256[]",
          "name": "",
          "type": "uint256[]"
        }
      ],
      "stateMutability": "nonpayable",
      "type": "function"
    },
    {
      "inputs": [],
      "name": "executeGetTotalValue",
      "outputs": [
        {
          "internalType": "uint256",
          "name": "",
          "type": "uint256"
        }
      ],
      "stateMutability": "nonpayable",
      "type": "function"
    },
    {
      "inputs": [],
      "name": "fund",
      "outputs": [],
      "stateMutability": "payable",
      "type": "function"
    },
    {
      "inputs": [],
      "name": "getAllAssetsBalances",
      "outputs": [
        {
          "internalType": "uint256[]",
          "name": "",
          "type": "uint256[]"
        }
      ],
      "stateMutability": "view",
      "type": "function"
    },
    {
      "inputs": [],
      "name": "getAllAssetsPrices",
      "outputs": [
        {
          "internalType": "uint256[]",
          "name": "",
          "type": "uint256[]"
        }
      ],
      "stateMutability": "view",
      "type": "function"
    },
    {
      "inputs": [
        {
          "internalType": "bytes32",
          "name": "_asset",
          "type": "bytes32"
        }
      ],
      "name": "getAssetValue",
      "outputs": [
        {
          "internalType": "uint256",
          "name": "",
          "type": "uint256"
        }
      ],
      "stateMutability": "view",
      "type": "function"
    },
    {
      "inputs": [
        {
          "internalType": "address",
          "name": "_user",
          "type": "address"
        },
        {
          "internalType": "bytes32",
          "name": "_asset",
          "type": "bytes32"
        }
      ],
      "name": "getBalance",
      "outputs": [
        {
          "internalType": "uint256",
          "name": "",
          "type": "uint256"
        }
      ],
      "stateMutability": "view",
      "type": "function"
    },
    {
      "inputs": [],
      "name": "getDebt",
      "outputs": [
        {
          "internalType": "uint256",
          "name": "",
          "type": "uint256"
        }
      ],
      "stateMutability": "view",
      "type": "function"
    },
    {
      "inputs": [],
      "name": "getExchange",
      "outputs": [
        {
          "internalType": "contract IAssetsExchange",
          "name": "",
          "type": "address"
        }
      ],
      "stateMutability": "view",
      "type": "function"
    },
    {
      "inputs": [],
      "name": "getFullLoanStatus",
      "outputs": [
        {
          "internalType": "uint256[4]",
          "name": "",
          "type": "uint256[4]"
        }
      ],
      "stateMutability": "view",
      "type": "function"
    },
    {
      "inputs": [],
      "name": "getLTV",
      "outputs": [
        {
          "internalType": "uint256",
          "name": "",
          "type": "uint256"
        }
      ],
      "stateMutability": "view",
      "type": "function"
    },
    {
      "inputs": [],
      "name": "getLiquidationBonus",
      "outputs": [
        {
          "internalType": "uint256",
          "name": "",
          "type": "uint256"
        }
      ],
      "stateMutability": "view",
      "type": "function"
    },
    {
      "inputs": [],
      "name": "getMaxLtv",
      "outputs": [
        {
          "internalType": "uint256",
          "name": "",
          "type": "uint256"
        }
      ],
      "stateMutability": "view",
      "type": "function"
    },
    {
      "inputs": [],
      "name": "getMinSelloutLtv",
      "outputs": [
        {
          "internalType": "uint256",
          "name": "",
          "type": "uint256"
        }
      ],
      "stateMutability": "view",
      "type": "function"
    },
    {
      "inputs": [],
      "name": "getPercentagePrecision",
      "outputs": [
        {
          "internalType": "uint256",
          "name": "",
          "type": "uint256"
        }
      ],
      "stateMutability": "view",
      "type": "function"
    },
    {
      "inputs": [],
      "name": "getPool",
      "outputs": [
        {
          "internalType": "contract Pool",
          "name": "",
          "type": "address"
        }
      ],
      "stateMutability": "view",
      "type": "function"
    },
    {
      "inputs": [],
      "name": "getPriceProvider1",
      "outputs": [
        {
          "internalType": "address",
          "name": "",
          "type": "address"
        }
      ],
      "stateMutability": "view",
      "type": "function"
    },
    {
      "inputs": [],
      "name": "getPriceProvider2",
      "outputs": [
        {
          "internalType": "address",
          "name": "",
          "type": "address"
        }
      ],
      "stateMutability": "view",
      "type": "function"
    },
    {
      "inputs": [],
      "name": "getTotalValue",
      "outputs": [
        {
          "internalType": "uint256",
          "name": "",
          "type": "uint256"
        }
      ],
      "stateMutability": "view",
      "type": "function"
    },
    {
      "inputs": [],
      "name": "getTrustedSigner",
      "outputs": [
        {
          "internalType": "address",
          "name": "",
          "type": "address"
        }
      ],
      "stateMutability": "view",
      "type": "function"
    },
    {
      "inputs": [],
      "name": "initialize",
      "outputs": [],
      "stateMutability": "nonpayable",
      "type": "function"
    },
    {
      "inputs": [
        {
          "internalType": "bytes32",
          "name": "_asset",
          "type": "bytes32"
        },
        {
          "internalType": "uint256",
          "name": "_exactERC20AmountOut",
          "type": "uint256"
        },
        {
          "internalType": "uint256",
          "name": "_maxAvaxAmountIn",
          "type": "uint256"
        }
      ],
      "name": "invest",
      "outputs": [],
      "stateMutability": "nonpayable",
      "type": "function"
    },
    {
      "inputs": [],
      "name": "isSolvent",
      "outputs": [
        {
          "internalType": "bool",
          "name": "",
          "type": "bool"
        }
      ],
      "stateMutability": "view",
      "type": "function"
    },
    {
      "inputs": [],
      "name": "maxDelay",
      "outputs": [
        {
          "internalType": "uint256",
          "name": "",
          "type": "uint256"
        }
      ],
      "stateMutability": "view",
      "type": "function"
    },
    {
      "inputs": [],
      "name": "owner",
      "outputs": [
        {
          "internalType": "address",
          "name": "",
          "type": "address"
        }
      ],
      "stateMutability": "view",
      "type": "function"
    },
    {
      "inputs": [],
      "name": "renounceOwnership",
      "outputs": [],
      "stateMutability": "nonpayable",
      "type": "function"
    },
    {
      "inputs": [
        {
          "internalType": "uint256",
          "name": "_maxDelay",
          "type": "uint256"
        }
      ],
      "name": "setMaxDelay",
      "outputs": [],
      "stateMutability": "nonpayable",
      "type": "function"
    },
    {
      "inputs": [
        {
          "internalType": "address",
          "name": "newOwner",
          "type": "address"
        }
      ],
      "name": "transferOwnership",
      "outputs": [],
      "stateMutability": "nonpayable",
      "type": "function"
    },
    {
      "stateMutability": "payable",
      "type": "receive"
    }
  ],
  "bytecode": "0x60806040526000609960006101000a81548160ff02191690831515021790555034801561002b57600080fd5b5061383e8061003b6000396000f3fe6080604052600436106101d15760003560e01c80638da5cb5b116100f7578063c5ebeaec11610095578063d5f4728911610064578063d5f472891461060e578063ed49d2f814610639578063f2fde38b14610664578063f807cd221461068d576101d8565b8063c5ebeaec14610552578063c79d5ec51461057b578063caa648b4146105b8578063d44e282b146105e3576101d8565b8063b5dbd7f0116100d1578063b5dbd7f0146104b7578063b60d4288146104e2578063bfe51c10146104ec578063c1878cd414610515576101d8565b80638da5cb5b146104365780639ee90e0d14610461578063a935310f1461048c576101d8565b80634fcaf08f1161016f5780636b6c92d91161013e5780636b6c92d9146103b4578063715018a6146103df5780638129fc1c146103f65780638a027cb31461040d576101d8565b80634fcaf08f1461030857806352154a261461033357806359aa9e721461035e5780635ce2395014610389576101d8565b806314a6bf0f116101ab57806314a6bf0f1461025c57806319bfb5ff146102875780632802fdc8146102b25780634ed2b8ac146102dd576101d8565b8063026b1d5f146101dd578063106ca3c314610208578063132e1d3914610231576101d8565b366101d857005b600080fd5b3480156101e957600080fd5b506101f26106b8565b6040516101ff9190612be5565b60405180910390f35b34801561021457600080fd5b5061022f600480360381019061022a91906126a1565b6106d4565b005b34801561023d57600080fd5b5061024661075a565b6040516102539190612de0565b60405180910390f35b34801561026857600080fd5b50610271610764565b60405161027e9190612de0565b60405180910390f35b34801561029357600080fd5b5061029c6107fb565b6040516102a99190612ace565b60405180910390f35b3480156102be57600080fd5b506102c7610817565b6040516102d49190612ace565b60405180910390f35b3480156102e957600080fd5b506102f2610833565b6040516102ff9190612de0565b60405180910390f35b34801561031457600080fd5b5061031d6108aa565b60405161032a9190612ace565b60405180910390f35b34801561033f57600080fd5b506103486108c6565b6040516103559190612de0565b60405180910390f35b34801561036a57600080fd5b506103736108d0565b6040516103809190612de0565b60405180910390f35b34801561039557600080fd5b5061039e6108d9565b6040516103ab9190612b26565b60405180910390f35b3480156103c057600080fd5b506103c96108f1565b6040516103d69190612b04565b60405180910390f35b3480156103eb57600080fd5b506103f4610aac565b005b34801561040257600080fd5b5061040b610b34565b005b34801561041957600080fd5b50610434600480360381019061042f9190612652565b610c28565b005b34801561044257600080fd5b5061044b610eb4565b6040516104589190612ace565b60405180910390f35b34801561046d57600080fd5b50610476610ede565b6040516104839190612de0565b60405180910390f35b34801561049857600080fd5b506104a1610eed565b6040516104ae9190612b04565b60405180910390f35b3480156104c357600080fd5b506104cc6110a7565b6040516104d99190612de0565b60405180910390f35b6104ea6110b1565b005b3480156104f857600080fd5b50610513600480360381019061050e9190612531565b611103565b005b34801561052157600080fd5b5061053c60048036038101906105379190612629565b611262565b6040516105499190612de0565b60405180910390f35b34801561055e57600080fd5b50610579600480360381019061057491906126a1565b611344565b005b34801561058757600080fd5b506105a2600480360381019061059d9190612583565b6114cc565b6040516105af9190612de0565b60405180910390f35b3480156105c457600080fd5b506105cd6115f3565b6040516105da9190612de0565b60405180910390f35b3480156105ef57600080fd5b506105f8611705565b6040516106059190612ae9565b60405180910390f35b34801561061a57600080fd5b5061062361175d565b6040516106309190612b04565b60405180910390f35b34801561064557600080fd5b5061064e61176c565b60405161065b9190612de0565b60405180910390f35b34801561067057600080fd5b5061068b60048036038101906106869190612531565b611772565b005b34801561069957600080fd5b506106a261186a565b6040516106af9190612bca565b60405180910390f35b6000735ff1de6091871adaae64e2ec4fed754628482868905090565b6106dc611886565b73ffffffffffffffffffffffffffffffffffffffff166106fa610eb4565b73ffffffffffffffffffffffffffffffffffffffff1614610750576040517f08c379a000000000000000000000000000000000000000000000000000000000815260040161074790612ce0565b60405180910390fd5b8060658190555050565b60006103e8905090565b600061076e6106b8565b73ffffffffffffffffffffffffffffffffffffffff16636011163e306040518263ffffffff1660e01b81526004016107a69190612ace565b60206040518083038186803b1580156107be57600080fd5b505afa1580156107d2573d6000803e3d6000fd5b505050506040513d601f19601f820116820180604052508101906107f691906126ca565b905090565b600073fe71e9691b9524bc932c23d0eed5c9ce41161884905090565b600073981bda8276ae93f567922497153de7a5683708d3905090565b60008061083e610764565b9050600061084a6115f3565b90506000821415610860576000925050506108a7565b8082101561089a57818161087491906131bd565b61087c61075a565b836108879190613163565b6108919190612f85565b925050506108a7565b6108a26110a7565b925050505b90565b6000733befdd935b50f172e696a5187dbacfef0d208e48905090565b6000610fa0905090565b60006064905090565b60006108e36110a7565b6108eb610833565b10905090565b606060006108fd61186a565b73ffffffffffffffffffffffffffffffffffffffff16632acada4d6040518163ffffffff1660e01b815260040160006040518083038186803b15801561094257600080fd5b505afa158015610956573d6000803e3d6000fd5b505050506040513d6000823e3d601f19601f8201168201806040525081019061097f91906125bf565b90506000815167ffffffffffffffff8111156109c4577f4e487b7100000000000000000000000000000000000000000000000000000000600052604160045260246000fd5b6040519080825280602002602001820160405280156109f25781602001602082028036833780820191505090505b50905060005b8251811015610aa357610a4b30848381518110610a3e577f4e487b7100000000000000000000000000000000000000000000000000000000600052603260045260246000fd5b60200260200101516114cc565b828281518110610a84577f4e487b7100000000000000000000000000000000000000000000000000000000600052603260045260246000fd5b6020026020010181815250508080610a9b906132d7565b9150506109f8565b50809250505090565b610ab4611886565b73ffffffffffffffffffffffffffffffffffffffff16610ad2610eb4565b73ffffffffffffffffffffffffffffffffffffffff1614610b28576040517f08c379a0000000000000000000000000000000000000000000000000000000008152600401610b1f90612ce0565b60405180910390fd5b610b32600061188e565b565b600060019054906101000a900460ff16610b5c5760008054906101000a900460ff1615610b65565b610b64611954565b5b610ba4576040517f08c379a0000000000000000000000000000000000000000000000000000000008152600401610b9b90612ca0565b60405180910390fd5b60008060019054906101000a900460ff161590508015610bf4576001600060016101000a81548160ff02191690831515021790555060016000806101000a81548160ff0219169083151502179055505b610bfc611965565b610c046119be565b8015610c255760008060016101000a81548160ff0219169083151502179055505b50565b610c30611886565b73ffffffffffffffffffffffffffffffffffffffff16610c4e610eb4565b73ffffffffffffffffffffffffffffffffffffffff1614610ca4576040517f08c379a0000000000000000000000000000000000000000000000000000000008152600401610c9b90612ce0565b60405180910390fd5b60026067541415610cea576040517f08c379a0000000000000000000000000000000000000000000000000000000008152600401610ce190612dc0565b60405180910390fd5b600260678190555080471015610d35576040517f08c379a0000000000000000000000000000000000000000000000000000000008152600401610d2c90612d80565b60405180910390fd5b6000610d3f61186a565b73ffffffffffffffffffffffffffffffffffffffff16635d8874e98386866040518463ffffffff1660e01b8152600401610d7a929190612b5c565b6020604051808303818588803b158015610d9357600080fd5b505af1158015610da7573d6000803e3d6000fd5b50505050506040513d601f19601f82011682018060405250810190610dcc9190612600565b905080610e0e576040517f08c379a0000000000000000000000000000000000000000000000000000000008152600401610e0590612da0565b60405180910390fd5b833373ffffffffffffffffffffffffffffffffffffffff167f8c4f7b2f9ad7fde21c3ebf69d91938c2731761edd5820e45c17ea61d9c2ab90a8542604051610e57929190612dfb565b60405180910390a350610e686108d9565b610ea7576040517f08c379a0000000000000000000000000000000000000000000000000000000008152600401610e9e90612d00565b60405180910390fd5b6001606781905550505050565b6000603360009054906101000a900473ffffffffffffffffffffffffffffffffffffffff16905090565b6000610ee86115f3565b905090565b60606000610ef961186a565b73ffffffffffffffffffffffffffffffffffffffff16632acada4d6040518163ffffffff1660e01b815260040160006040518083038186803b158015610f3e57600080fd5b505afa158015610f52573d6000803e3d6000fd5b505050506040513d6000823e3d601f19601f82011682018060405250810190610f7b91906125bf565b90506000815167ffffffffffffffff811115610fc0577f4e487b7100000000000000000000000000000000000000000000000000000000600052604160045260246000fd5b604051908082528060200260200182016040528015610fee5781602001602082028036833780820191505090505b50905060005b825181101561109e57611046838281518110611039577f4e487b7100000000000000000000000000000000000000000000000000000000600052603260045260246000fd5b6020026020010151611aaa565b82828151811061107f577f4e487b7100000000000000000000000000000000000000000000000000000000600052603260045260246000fd5b6020026020010181815250508080611096906132d7565b915050610ff4565b50809250505090565b6000611388905090565b3373ffffffffffffffffffffffffffffffffffffffff167fcd909ec339185c4598a4096e174308fbdf136d117f230960f873a2f2e81f63af34426040516110f9929190612dfb565b60405180910390a2565b61110b611886565b73ffffffffffffffffffffffffffffffffffffffff16611129610eb4565b73ffffffffffffffffffffffffffffffffffffffff161461117f576040517f08c379a000000000000000000000000000000000000000000000000000000000815260040161117690612ce0565b60405180910390fd5b600073ffffffffffffffffffffffffffffffffffffffff168173ffffffffffffffffffffffffffffffffffffffff1614156111b957600080fd5b80606660006101000a81548173ffffffffffffffffffffffffffffffffffffffff021916908373ffffffffffffffffffffffffffffffffffffffff160217905550606660009054906101000a900473ffffffffffffffffffffffffffffffffffffffff1673ffffffffffffffffffffffffffffffffffffffff167ffc34663d6e481c3ed985715061d3e369aa003416efd09293880e20cf2e8f53b560405160405180910390a250565b60008061126e83611b64565b9050600061127c30856114cc565b90506000811115611338578173ffffffffffffffffffffffffffffffffffffffff1663313ce5676040518163ffffffff1660e01b815260040160206040518083038186803b1580156112cd57600080fd5b505afa1580156112e1573d6000803e3d6000fd5b505050506040513d601f19601f8201168201806040525081019061130591906126f3565b600a6113119190613009565b8161131b86611aaa565b6113259190613163565b61132f9190612f85565b9250505061133f565b6000925050505b919050565b61134c611886565b73ffffffffffffffffffffffffffffffffffffffff1661136a610eb4565b73ffffffffffffffffffffffffffffffffffffffff16146113c0576040517f08c379a00000000000000000000000000000000000000000000000000000000081526004016113b790612ce0565b60405180910390fd5b6113c86106b8565b73ffffffffffffffffffffffffffffffffffffffff1663c5ebeaec826040518263ffffffff1660e01b81526004016114009190612de0565b600060405180830381600087803b15801561141a57600080fd5b505af115801561142e573d6000803e3d6000fd5b505050503373ffffffffffffffffffffffffffffffffffffffff167feae9cfbc77fdd40ca899f36b608256063b2bc9d8178b0220f7ad513e178d6730824260405161147a929190612dfb565b60405180910390a261148a6108d9565b6114c9576040517f08c379a00000000000000000000000000000000000000000000000000000000081526004016114c090612d00565b60405180910390fd5b50565b6000806114d761186a565b73ffffffffffffffffffffffffffffffffffffffff166376d02895846040518263ffffffff1660e01b815260040161150f9190612b41565b60206040518083038186803b15801561152757600080fd5b505afa15801561153b573d6000803e3d6000fd5b505050506040513d601f19601f8201168201806040525081019061155f919061255a565b90508073ffffffffffffffffffffffffffffffffffffffff166370a08231856040518263ffffffff1660e01b815260040161159a9190612ace565b60206040518083038186803b1580156115b257600080fd5b505afa1580156115c6573d6000803e3d6000fd5b505050506040513d601f19601f820116820180604052508101906115ea91906126ca565b91505092915050565b600080479050600061160361186a565b73ffffffffffffffffffffffffffffffffffffffff16632acada4d6040518163ffffffff1660e01b815260040160006040518083038186803b15801561164857600080fd5b505afa15801561165c573d6000803e3d6000fd5b505050506040513d6000823e3d601f19601f8201168201806040525081019061168591906125bf565b905060005b81518110156116fc576116dc8282815181106116cf577f4e487b7100000000000000000000000000000000000000000000000000000000600052603260045260246000fd5b6020026020010151611262565b836116e79190612f2f565b925080806116f4906132d7565b91505061168a565b50819250505090565b61170d6123d1565b60405180608001604052806117206115f3565b815260200161172d610764565b815260200161173a610833565b81526020016117476108d9565b611752576000611755565b60015b815250905090565b6060611767610eed565b905090565b60655481565b61177a611886565b73ffffffffffffffffffffffffffffffffffffffff16611798610eb4565b73ffffffffffffffffffffffffffffffffffffffff16146117ee576040517f08c379a00000000000000000000000000000000000000000000000000000000081526004016117e590612ce0565b60405180910390fd5b600073ffffffffffffffffffffffffffffffffffffffff168173ffffffffffffffffffffffffffffffffffffffff16141561185e576040517f08c379a000000000000000000000000000000000000000000000000000000000815260040161185590612c40565b60405180910390fd5b6118678161188e565b50565b6000730278438423f433e277f65d14c0e002b8828702ba905090565b600033905090565b6000603360009054906101000a900473ffffffffffffffffffffffffffffffffffffffff16905081603360006101000a81548173ffffffffffffffffffffffffffffffffffffffff021916908373ffffffffffffffffffffffffffffffffffffffff1602179055508173ffffffffffffffffffffffffffffffffffffffff168173ffffffffffffffffffffffffffffffffffffffff167f8be0079c531659141344cd1fd0a4f28419497f9722a3daafe3b4186f6b6457e060405160405180910390a35050565b600061195f30611c08565b15905090565b600060019054906101000a900460ff166119b4576040517f08c379a00000000000000000000000000000000000000000000000000000000081526004016119ab90612d40565b60405180910390fd5b6119bc611c2b565b565b600060019054906101000a900460ff166119e65760008054906101000a900460ff16156119ef565b6119ee611954565b5b611a2e576040517f08c379a0000000000000000000000000000000000000000000000000000000008152600401611a2590612ca0565b60405180910390fd5b60008060019054906101000a900460ff161590508015611a7e576001600060016101000a81548160ff02191690831515021790555060016000806101000a81548160ff0219169083151502179055505b60b46065819055508015611aa75760008060016101000a81548160ff0219169083151502179055505b50565b600080611ab683611c8c565b90506000611ae37f4156415800000000000000000000000000000000000000000000000000000000611c8c565b905060008214158015611af7575060008114155b611b36576040517f08c379a0000000000000000000000000000000000000000000000000000000008152600401611b2d90612d60565b60405180910390fd5b600081670de0b6b3a764000084611b4d9190613163565b611b579190612f85565b9050809350505050919050565b600080611b6f61186a565b73ffffffffffffffffffffffffffffffffffffffff166376d02895846040518263ffffffff1660e01b8152600401611ba79190612b41565b60206040518083038186803b158015611bbf57600080fd5b505afa158015611bd3573d6000803e3d6000fd5b505050506040513d601f19601f82011682018060405250810190611bf7919061255a565b905060008190508092505050919050565b6000808273ffffffffffffffffffffffffffffffffffffffff163b119050919050565b600060019054906101000a900460ff16611c7a576040517f08c379a0000000000000000000000000000000000000000000000000000000008152600401611c7190612d40565b60405180910390fd5b611c8a611c85611886565b61188e565b565b600080606136033590506000602060408360ff16611caa9190613127565b611cb49190612ef7565b90506060604051905081815281604283013603602083013760208101604052600081805190602001209050600081604051602001611cf29190612aa8565b604051602081830303815290604052805190602001209050606060405190506041815260418036036020830137602081016040526000611d3b8284611e6a90919063ffffffff16565b9050611d456107fb565b73ffffffffffffffffffffffffffffffffffffffff168173ffffffffffffffffffffffffffffffffffffffff1614611db2576040517f08c379a0000000000000000000000000000000000000000000000000000000008152600401611da990612c60565b60405180910390fd5b6000606236033590506065548142611dca91906131bd565b10611e0a576040517f08c379a0000000000000000000000000000000000000000000000000000000008152600401611e0190612d20565b60405180910390fd5b6000808960ff16905060008060428b013603600091505b83821015611e55576040820281013592508e831415611e4a576040820260200181013594508391505b600182019150611e21565b50839c50505050505050505050505050919050565b6000806000611e798585611e91565b91509150611e8681611f14565b819250505092915050565b600080604183511415611ed35760008060006020860151925060408601519150606086015160001a9050611ec787828585612265565b94509450505050611f0d565b604083511415611f04576000806020850151915060408501519050611ef9868383612372565b935093505050611f0d565b60006002915091505b9250929050565b60006004811115611f4e577f4e487b7100000000000000000000000000000000000000000000000000000000600052602160045260246000fd5b816004811115611f87577f4e487b7100000000000000000000000000000000000000000000000000000000600052602160045260246000fd5b1415611f9257612262565b60016004811115611fcc577f4e487b7100000000000000000000000000000000000000000000000000000000600052602160045260246000fd5b816004811115612005577f4e487b7100000000000000000000000000000000000000000000000000000000600052602160045260246000fd5b1415612046576040517f08c379a000000000000000000000000000000000000000000000000000000000815260040161203d90612c00565b60405180910390fd5b60026004811115612080577f4e487b7100000000000000000000000000000000000000000000000000000000600052602160045260246000fd5b8160048111156120b9577f4e487b7100000000000000000000000000000000000000000000000000000000600052602160045260246000fd5b14156120fa576040517f08c379a00000000000000000000000000000000000000000000000000000000081526004016120f190612c20565b60405180910390fd5b60036004811115612134577f4e487b7100000000000000000000000000000000000000000000000000000000600052602160045260246000fd5b81600481111561216d577f4e487b7100000000000000000000000000000000000000000000000000000000600052602160045260246000fd5b14156121ae576040517f08c379a00000000000000000000000000000000000000000000000000000000081526004016121a590612c80565b60405180910390fd5b6004808111156121e7577f4e487b7100000000000000000000000000000000000000000000000000000000600052602160045260246000fd5b816004811115612220577f4e487b7100000000000000000000000000000000000000000000000000000000600052602160045260246000fd5b1415612261576040517f08c379a000000000000000000000000000000000000000000000000000000000815260040161225890612cc0565b60405180910390fd5b5b50565b6000807f7fffffffffffffffffffffffffffffff5d576e7357a4501ddfe92f46681b20a08360001c11156122a0576000600391509150612369565b601b8560ff16141580156122b85750601c8560ff1614155b156122ca576000600491509150612369565b6000600187878787604051600081526020016040526040516122ef9493929190612b85565b6020604051602081039080840390855afa158015612311573d6000803e3d6000fd5b505050602060405103519050600073ffffffffffffffffffffffffffffffffffffffff168173ffffffffffffffffffffffffffffffffffffffff16141561236057600060019250925050612369565b80600092509250505b94509492505050565b60008060007f7fffffffffffffffffffffffffffffffffffffffffffffffffffffffffffffff60001b841690506000601b60ff8660001c901c6123b59190612f2f565b90506123c387828885612265565b935093505050935093915050565b6040518060800160405280600490602082028036833780820191505090505090565b600061240661240184612e49565b612e24565b9050808382526020820190508285602086028201111561242557600080fd5b60005b85811015612455578161243b88826124dd565b845260208401935060208301925050600181019050612428565b5050509392505050565b60008135905061246e81613795565b92915050565b60008151905061248381613795565b92915050565b600082601f83011261249a57600080fd5b81516124aa8482602086016123f3565b91505092915050565b6000815190506124c2816137ac565b92915050565b6000813590506124d7816137c3565b92915050565b6000815190506124ec816137c3565b92915050565b600081359050612501816137da565b92915050565b600081519050612516816137da565b92915050565b60008151905061252b816137f1565b92915050565b60006020828403121561254357600080fd5b60006125518482850161245f565b91505092915050565b60006020828403121561256c57600080fd5b600061257a84828501612474565b91505092915050565b6000806040838503121561259657600080fd5b60006125a48582860161245f565b92505060206125b5858286016124c8565b9150509250929050565b6000602082840312156125d157600080fd5b600082015167ffffffffffffffff8111156125eb57600080fd5b6125f784828501612489565b91505092915050565b60006020828403121561261257600080fd5b6000612620848285016124b3565b91505092915050565b60006020828403121561263b57600080fd5b6000612649848285016124c8565b91505092915050565b60008060006060848603121561266757600080fd5b6000612675868287016124c8565b9350506020612686868287016124f2565b9250506040612697868287016124f2565b9150509250925092565b6000602082840312156126b357600080fd5b60006126c1848285016124f2565b91505092915050565b6000602082840312156126dc57600080fd5b60006126ea84828501612507565b91505092915050565b60006020828403121561270557600080fd5b60006127138482850161251c565b91505092915050565b60006127288383612a7b565b60208301905092915050565b61273d816131f1565b82525050565b61274c81612e8f565b6127568184612ebf565b925061276182612e75565b8060005b83811015612792578151612779878261271c565b965061278483612ea5565b925050600181019050612765565b505050505050565b60006127a582612e9a565b6127af8185612eca565b93506127ba83612e7f565b8060005b838110156127eb5781516127d2888261271c565b97506127dd83612eb2565b9250506001810190506127be565b5085935050505092915050565b61280181613203565b82525050565b6128108161320f565b82525050565b6128276128228261320f565b613320565b82525050565b6128368161325e565b82525050565b61284581613282565b82525050565b6000612858601883612edb565b9150612863826133d5565b602082019050919050565b600061287b601f83612edb565b9150612886826133fe565b602082019050919050565b600061289e601c83612eec565b91506128a982613427565b601c82019050919050565b60006128c1602683612edb565b91506128cc82613450565b604082019050919050565b60006128e4601583612edb565b91506128ef8261349f565b602082019050919050565b6000612907602283612edb565b9150612912826134c8565b604082019050919050565b600061292a602e83612edb565b915061293582613517565b604082019050919050565b600061294d602283612edb565b915061295882613566565b604082019050919050565b6000612970602083612edb565b915061297b826135b5565b602082019050919050565b6000612993603383612edb565b915061299e826135de565b604082019050919050565b60006129b6600f83612edb565b91506129c18261362d565b602082019050919050565b60006129d9602b83612edb565b91506129e482613656565b604082019050919050565b60006129fc602283612edb565b9150612a07826136a5565b604082019050919050565b6000612a1f603483612edb565b9150612a2a826136f4565b604082019050919050565b6000612a42601183612edb565b9150612a4d82613743565b602082019050919050565b6000612a65601f83612edb565b9150612a708261376c565b602082019050919050565b612a8481613247565b82525050565b612a9381613247565b82525050565b612aa281613251565b82525050565b6000612ab382612891565b9150612abf8284612816565b60208201915081905092915050565b6000602082019050612ae36000830184612734565b92915050565b6000608082019050612afe6000830184612743565b92915050565b60006020820190508181036000830152612b1e818461279a565b905092915050565b6000602082019050612b3b60008301846127f8565b92915050565b6000602082019050612b566000830184612807565b92915050565b6000604082019050612b716000830185612807565b612b7e6020830184612a8a565b9392505050565b6000608082019050612b9a6000830187612807565b612ba76020830186612a99565b612bb46040830185612807565b612bc16060830184612807565b95945050505050565b6000602082019050612bdf600083018461282d565b92915050565b6000602082019050612bfa600083018461283c565b92915050565b60006020820190508181036000830152612c198161284b565b9050919050565b60006020820190508181036000830152612c398161286e565b9050919050565b60006020820190508181036000830152612c59816128b4565b9050919050565b60006020820190508181036000830152612c79816128d7565b9050919050565b60006020820190508181036000830152612c99816128fa565b9050919050565b60006020820190508181036000830152612cb98161291d565b9050919050565b60006020820190508181036000830152612cd981612940565b9050919050565b60006020820190508181036000830152612cf981612963565b9050919050565b60006020820190508181036000830152612d1981612986565b9050919050565b60006020820190508181036000830152612d39816129a9565b9050919050565b60006020820190508181036000830152612d59816129cc565b9050919050565b60006020820190508181036000830152612d79816129ef565b9050919050565b60006020820190508181036000830152612d9981612a12565b9050919050565b60006020820190508181036000830152612db981612a35565b9050919050565b60006020820190508181036000830152612dd981612a58565b9050919050565b6000602082019050612df56000830184612a8a565b92915050565b6000604082019050612e106000830185612a8a565b612e1d6020830184612a8a565b9392505050565b6000612e2e612e3f565b9050612e3a82826132a6565b919050565b6000604051905090565b600067ffffffffffffffff821115612e6457612e63613388565b5b602082029050602081019050919050565b6000819050919050565b6000819050602082019050919050565b600060049050919050565b600081519050919050565b6000602082019050919050565b6000602082019050919050565b600081905092915050565b600082825260208201905092915050565b600082825260208201905092915050565b600081905092915050565b6000612f0282613219565b9150612f0d83613219565b92508261ffff03821115612f2457612f2361332a565b5b828201905092915050565b6000612f3a82613247565b9150612f4583613247565b9250827fffffffffffffffffffffffffffffffffffffffffffffffffffffffffffffffff03821115612f7a57612f7961332a565b5b828201905092915050565b6000612f9082613247565b9150612f9b83613247565b925082612fab57612faa613359565b5b828204905092915050565b6000808291508390505b600185111561300057808604811115612fdc57612fdb61332a565b5b6001851615612feb5780820291505b8081029050612ff9856133c8565b9450612fc0565b94509492505050565b600061301482613247565b915061301f83613251565b925061304c7fffffffffffffffffffffffffffffffffffffffffffffffffffffffffffffffff8484613054565b905092915050565b6000826130645760019050613120565b816130725760009050613120565b81600181146130885760028114613092576130c1565b6001915050613120565b60ff8411156130a4576130a361332a565b5b8360020a9150848211156130bb576130ba61332a565b5b50613120565b5060208310610133831016604e8410600b84101617156130f65782820a9050838111156130f1576130f061332a565b5b613120565b6131038484846001612fb6565b9250905081840481111561311a5761311961332a565b5b81810290505b9392505050565b600061313282613219565b915061313d83613219565b92508161ffff04831182151516156131585761315761332a565b5b828202905092915050565b600061316e82613247565b915061317983613247565b9250817fffffffffffffffffffffffffffffffffffffffffffffffffffffffffffffffff04831182151516156131b2576131b161332a565b5b828202905092915050565b60006131c882613247565b91506131d383613247565b9250828210156131e6576131e561332a565b5b828203905092915050565b60006131fc82613227565b9050919050565b60008115159050919050565b6000819050919050565b600061ffff82169050919050565b600073ffffffffffffffffffffffffffffffffffffffff82169050919050565b6000819050919050565b600060ff82169050919050565b600061326982613270565b9050919050565b600061327b82613227565b9050919050565b600061328d82613294565b9050919050565b600061329f82613227565b9050919050565b6132af826133b7565b810181811067ffffffffffffffff821117156132ce576132cd613388565b5b80604052505050565b60006132e282613247565b91507fffffffffffffffffffffffffffffffffffffffffffffffffffffffffffffffff8214156133155761331461332a565b5b600182019050919050565b6000819050919050565b7f4e487b7100000000000000000000000000000000000000000000000000000000600052601160045260246000fd5b7f4e487b7100000000000000000000000000000000000000000000000000000000600052601260045260246000fd5b7f4e487b7100000000000000000000000000000000000000000000000000000000600052604160045260246000fd5b6000601f19601f8301169050919050565b60008160011c9050919050565b7f45434453413a20696e76616c6964207369676e61747572650000000000000000600082015250565b7f45434453413a20696e76616c6964207369676e6174757265206c656e67746800600082015250565b7f19457468657265756d205369676e6564204d6573736167653a0a333200000000600082015250565b7f4f776e61626c653a206e6577206f776e657220697320746865207a65726f206160008201527f6464726573730000000000000000000000000000000000000000000000000000602082015250565b7f5369676e6572206e6f7420617574686f72697a65640000000000000000000000600082015250565b7f45434453413a20696e76616c6964207369676e6174757265202773272076616c60008201527f7565000000000000000000000000000000000000000000000000000000000000602082015250565b7f496e697469616c697a61626c653a20636f6e747261637420697320616c72656160008201527f647920696e697469616c697a6564000000000000000000000000000000000000602082015250565b7f45434453413a20696e76616c6964207369676e6174757265202776272076616c60008201527f7565000000000000000000000000000000000000000000000000000000000000602082015250565b7f4f776e61626c653a2063616c6c6572206973206e6f7420746865206f776e6572600082015250565b7f54686520616374696f6e206d617920636175736520616e206163636f756e742060008201527f746f206265636f6d6520696e736f6c76656e7400000000000000000000000000602082015250565b7f4461746120697320746f6f206f6c640000000000000000000000000000000000600082015250565b7f496e697469616c697a61626c653a20636f6e7472616374206973206e6f74206960008201527f6e697469616c697a696e67000000000000000000000000000000000000000000602082015250565b7f507269636520666f7220612063686f73656e206173736574206e6f7420666f7560008201527f6e64000000000000000000000000000000000000000000000000000000000000602082015250565b7f4e6f7420656e6f7567682066756e64732061726520617661696c61626c65207460008201527f6f20696e7665737420696e20616e206173736574000000000000000000000000602082015250565b7f496e766573746d656e74206661696c6564000000000000000000000000000000600082015250565b7f5265656e7472616e637947756172643a207265656e7472616e742063616c6c00600082015250565b61379e816131f1565b81146137a957600080fd5b50565b6137b581613203565b81146137c057600080fd5b50565b6137cc8161320f565b81146137d757600080fd5b50565b6137e381613247565b81146137ee57600080fd5b50565b6137fa81613251565b811461380557600080fd5b5056fea2646970667358221220fde25a09e24b578857eff0ca7d09e2f0682648663a0b19172a9bd4063a5439a264736f6c63430008040033",
  "linkReferences": {},
  "deployedLinkReferences": {}
}