{
  "_format": "hh-sol-artifact-1",
  "contractName": "MockUpgradedGettersSmartLoan",
  "sourceName": "contracts/mock/MockUpgradedGettersSmartLoan.sol",
  "abi": [
    {
      "anonymous": false,
      "inputs": [
        {
          "indexed": true,
          "internalType": "address",
          "name": "borrower",
          "type": "address"
        },
        {
          "indexed": false,
          "internalType": "uint256",
          "name": "amount",
          "type": "uint256"
        },
        {
          "indexed": false,
          "internalType": "uint256",
          "name": "timestamp",
          "type": "uint256"
        }
      ],
      "name": "Borrowed",
      "type": "event"
    },
    {
      "anonymous": false,
      "inputs": [
        {
          "indexed": true,
          "internalType": "address",
          "name": "funder",
          "type": "address"
        },
        {
          "indexed": false,
          "internalType": "uint256",
          "name": "amount",
          "type": "uint256"
        },
        {
          "indexed": false,
          "internalType": "uint256",
          "name": "timestamp",
          "type": "uint256"
        }
      ],
      "name": "Funded",
      "type": "event"
    },
    {
      "anonymous": false,
      "inputs": [
        {
          "indexed": true,
          "internalType": "address",
          "name": "investor",
          "type": "address"
        },
        {
          "indexed": true,
          "internalType": "bytes32",
          "name": "asset",
          "type": "bytes32"
        },
        {
          "indexed": false,
          "internalType": "uint256",
          "name": "amount",
          "type": "uint256"
        },
        {
          "indexed": false,
          "internalType": "uint256",
          "name": "timestamp",
          "type": "uint256"
        }
      ],
      "name": "Invested",
      "type": "event"
    },
    {
      "anonymous": false,
      "inputs": [
        {
          "indexed": true,
          "internalType": "address",
          "name": "liquidator",
          "type": "address"
        },
        {
          "indexed": false,
          "internalType": "uint256",
          "name": "repayAmount",
          "type": "uint256"
        },
        {
          "indexed": false,
          "internalType": "uint256",
          "name": "bonus",
          "type": "uint256"
        },
        {
          "indexed": false,
          "internalType": "uint256",
          "name": "ltv",
          "type": "uint256"
        },
        {
          "indexed": false,
          "internalType": "uint256",
          "name": "timestamp",
          "type": "uint256"
        }
      ],
      "name": "Liquidated",
      "type": "event"
    },
    {
      "anonymous": false,
      "inputs": [
        {
          "indexed": false,
          "internalType": "uint256",
          "name": "debtRepaid",
          "type": "uint256"
        },
        {
          "indexed": false,
          "internalType": "uint256",
          "name": "withdrawalAmount",
          "type": "uint256"
        },
        {
          "indexed": false,
          "internalType": "uint256",
          "name": "timestamp",
          "type": "uint256"
        }
      ],
      "name": "LoanClosed",
      "type": "event"
    },
    {
      "anonymous": false,
      "inputs": [
        {
          "indexed": true,
          "internalType": "address",
          "name": "previousOwner",
          "type": "address"
        },
        {
          "indexed": true,
          "internalType": "address",
          "name": "newOwner",
          "type": "address"
        }
      ],
      "name": "OwnershipTransferred",
      "type": "event"
    },
    {
      "anonymous": false,
      "inputs": [
        {
          "indexed": true,
          "internalType": "address",
          "name": "investor",
          "type": "address"
        },
        {
          "indexed": true,
          "internalType": "bytes32",
          "name": "asset",
          "type": "bytes32"
        },
        {
          "indexed": false,
          "internalType": "uint256",
          "name": "amount",
          "type": "uint256"
        },
        {
          "indexed": false,
          "internalType": "uint256",
          "name": "timestamp",
          "type": "uint256"
        }
      ],
      "name": "Redeemed",
      "type": "event"
    },
    {
      "anonymous": false,
      "inputs": [
        {
          "indexed": true,
          "internalType": "address",
          "name": "borrower",
          "type": "address"
        },
        {
          "indexed": false,
          "internalType": "uint256",
          "name": "amount",
          "type": "uint256"
        },
        {
          "indexed": false,
          "internalType": "uint256",
          "name": "timestamp",
          "type": "uint256"
        }
      ],
      "name": "Repaid",
      "type": "event"
    },
    {
      "anonymous": false,
      "inputs": [
        {
          "indexed": true,
          "internalType": "address",
          "name": "owner",
          "type": "address"
        },
        {
          "indexed": false,
          "internalType": "uint256",
          "name": "amount",
          "type": "uint256"
        },
        {
          "indexed": false,
          "internalType": "uint256",
          "name": "timestamp",
          "type": "uint256"
        }
      ],
      "name": "Withdrawn",
      "type": "event"
    },
    {
      "inputs": [
        {
          "internalType": "uint256",
          "name": "_amount",
          "type": "uint256"
        }
      ],
      "name": "borrow",
      "outputs": [],
      "stateMutability": "nonpayable",
      "type": "function"
    },
    {
      "inputs": [],
      "name": "closeLoan",
      "outputs": [],
      "stateMutability": "payable",
      "type": "function"
    },
    {
      "inputs": [],
      "name": "executeGetAllAssetsPrices",
      "outputs": [
        {
          "internalType": "uint256[]",
          "name": "",
          "type": "uint256[]"
        }
      ],
      "stateMutability": "nonpayable",
      "type": "function"
    },
    {
      "inputs": [],
      "name": "executeGetTotalValue",
      "outputs": [
        {
          "internalType": "uint256",
          "name": "",
          "type": "uint256"
        }
      ],
      "stateMutability": "nonpayable",
      "type": "function"
    },
    {
      "inputs": [],
      "name": "fund",
      "outputs": [],
      "stateMutability": "payable",
      "type": "function"
    },
    {
      "inputs": [],
      "name": "getAllAssetsBalances",
      "outputs": [
        {
          "internalType": "uint256[]",
          "name": "",
          "type": "uint256[]"
        }
      ],
      "stateMutability": "view",
      "type": "function"
    },
    {
      "inputs": [],
      "name": "getAllAssetsPrices",
      "outputs": [
        {
          "internalType": "uint256[]",
          "name": "",
          "type": "uint256[]"
        }
      ],
      "stateMutability": "view",
      "type": "function"
    },
    {
      "inputs": [
        {
          "internalType": "address",
          "name": "_user",
          "type": "address"
        },
        {
          "internalType": "bytes32",
          "name": "_asset",
          "type": "bytes32"
        }
      ],
      "name": "getBalance",
      "outputs": [
        {
          "internalType": "uint256",
          "name": "",
          "type": "uint256"
        }
      ],
      "stateMutability": "view",
      "type": "function"
    },
    {
      "inputs": [],
      "name": "getDebt",
      "outputs": [
        {
          "internalType": "uint256",
          "name": "",
          "type": "uint256"
        }
      ],
      "stateMutability": "view",
      "type": "function"
    },
    {
      "inputs": [],
      "name": "getExchange",
      "outputs": [
        {
          "internalType": "contract IAssetsExchange",
          "name": "",
          "type": "address"
        }
      ],
      "stateMutability": "view",
      "type": "function"
    },
    {
      "inputs": [],
      "name": "getFullLoanStatus",
      "outputs": [
        {
          "internalType": "uint256[4]",
          "name": "",
          "type": "uint256[4]"
        }
      ],
      "stateMutability": "view",
      "type": "function"
    },
    {
      "inputs": [],
      "name": "getLTV",
      "outputs": [
        {
          "internalType": "uint256",
          "name": "",
          "type": "uint256"
        }
      ],
      "stateMutability": "view",
      "type": "function"
    },
    {
      "inputs": [],
      "name": "getLiquidationBonus",
      "outputs": [
        {
          "internalType": "uint256",
          "name": "",
          "type": "uint256"
        }
      ],
      "stateMutability": "view",
      "type": "function"
    },
    {
      "inputs": [],
      "name": "getMaxBlockTimestampDelay",
      "outputs": [
        {
          "internalType": "uint256",
          "name": "",
          "type": "uint256"
        }
      ],
      "stateMutability": "view",
      "type": "function"
    },
    {
      "inputs": [],
      "name": "getMaxDataTimestampDelay",
      "outputs": [
        {
          "internalType": "uint256",
          "name": "",
          "type": "uint256"
        }
      ],
      "stateMutability": "view",
      "type": "function"
    },
    {
      "inputs": [],
      "name": "getMaxLtv",
      "outputs": [
        {
          "internalType": "uint256",
          "name": "",
          "type": "uint256"
        }
      ],
      "stateMutability": "pure",
      "type": "function"
    },
    {
      "inputs": [],
      "name": "getMinSelloutLtv",
      "outputs": [
        {
          "internalType": "uint256",
          "name": "",
          "type": "uint256"
        }
      ],
      "stateMutability": "pure",
      "type": "function"
    },
    {
      "inputs": [],
      "name": "getPercentagePrecision",
      "outputs": [
        {
          "internalType": "uint256",
          "name": "",
          "type": "uint256"
        }
      ],
      "stateMutability": "pure",
      "type": "function"
    },
    {
      "inputs": [],
      "name": "getPool",
      "outputs": [
        {
          "internalType": "contract Pool",
          "name": "",
          "type": "address"
        }
      ],
      "stateMutability": "view",
      "type": "function"
    },
    {
      "inputs": [],
      "name": "getPriceProvider1",
      "outputs": [
        {
          "internalType": "address",
          "name": "",
          "type": "address"
        }
      ],
      "stateMutability": "view",
      "type": "function"
    },
    {
      "inputs": [],
      "name": "getPriceProvider2",
      "outputs": [
        {
          "internalType": "address",
          "name": "",
          "type": "address"
        }
      ],
      "stateMutability": "view",
      "type": "function"
    },
    {
      "inputs": [],
      "name": "getTotalValue",
      "outputs": [
        {
          "internalType": "uint256",
          "name": "",
          "type": "uint256"
        }
      ],
      "stateMutability": "pure",
      "type": "function"
    },
    {
      "inputs": [],
      "name": "initialize",
      "outputs": [],
      "stateMutability": "nonpayable",
      "type": "function"
    },
    {
      "inputs": [
        {
          "internalType": "bytes32",
          "name": "_asset",
          "type": "bytes32"
        },
        {
          "internalType": "uint256",
          "name": "_exactERC20AmountOut",
          "type": "uint256"
        },
        {
          "internalType": "uint256",
          "name": "_maxAvaxAmountIn",
          "type": "uint256"
        }
      ],
      "name": "invest",
      "outputs": [],
      "stateMutability": "nonpayable",
      "type": "function"
    },
    {
      "inputs": [
        {
          "internalType": "address",
          "name": "_receivedSigner",
          "type": "address"
        }
      ],
      "name": "isSignerAuthorized",
      "outputs": [
        {
          "internalType": "bool",
          "name": "",
          "type": "bool"
        }
      ],
      "stateMutability": "view",
      "type": "function"
    },
    {
      "inputs": [],
      "name": "isSolvent",
      "outputs": [
        {
          "internalType": "bool",
          "name": "",
          "type": "bool"
        }
      ],
      "stateMutability": "view",
      "type": "function"
    },
    {
      "inputs": [
        {
          "internalType": "uint256",
          "name": "_receivedTimestamp",
          "type": "uint256"
        }
      ],
      "name": "isTimestampValid",
      "outputs": [
        {
          "internalType": "bool",
          "name": "",
          "type": "bool"
        }
      ],
      "stateMutability": "view",
      "type": "function"
    },
    {
      "inputs": [
        {
          "internalType": "uint256",
          "name": "repayAmount",
          "type": "uint256"
        }
      ],
      "name": "liquidateLoan",
      "outputs": [],
      "stateMutability": "payable",
      "type": "function"
    },
    {
      "inputs": [],
      "name": "owner",
      "outputs": [
        {
          "internalType": "address",
          "name": "",
          "type": "address"
        }
      ],
      "stateMutability": "view",
      "type": "function"
    },
    {
      "inputs": [
        {
          "internalType": "bytes32",
          "name": "_asset",
          "type": "bytes32"
        },
        {
          "internalType": "uint256",
          "name": "_exactERC20AmountIn",
          "type": "uint256"
        },
        {
          "internalType": "uint256",
          "name": "_minAvaxAmountOut",
          "type": "uint256"
        }
      ],
      "name": "redeem",
      "outputs": [],
      "stateMutability": "nonpayable",
      "type": "function"
    },
    {
      "inputs": [],
      "name": "renounceOwnership",
      "outputs": [],
      "stateMutability": "nonpayable",
      "type": "function"
    },
    {
      "inputs": [
        {
          "internalType": "uint256",
          "name": "_amount",
          "type": "uint256"
        }
      ],
      "name": "repay",
      "outputs": [],
      "stateMutability": "payable",
      "type": "function"
    },
    {
      "inputs": [
        {
          "internalType": "address",
          "name": "newOwner",
          "type": "address"
        }
      ],
      "name": "transferOwnership",
      "outputs": [],
      "stateMutability": "nonpayable",
      "type": "function"
    },
    {
      "inputs": [
        {
          "internalType": "uint256",
          "name": "_amount",
          "type": "uint256"
        }
      ],
      "name": "withdraw",
      "outputs": [],
      "stateMutability": "nonpayable",
      "type": "function"
    },
    {
      "inputs": [
        {
          "internalType": "bytes32",
          "name": "asset",
          "type": "bytes32"
        },
        {
          "internalType": "uint256",
          "name": "amount",
          "type": "uint256"
        }
      ],
      "name": "withdrawAsset",
      "outputs": [],
      "stateMutability": "nonpayable",
      "type": "function"
    },
    {
      "stateMutability": "payable",
      "type": "receive"
    }
  ],
  "bytecode": "0x608060405260008060006101000a81548160ff02191690831515021790555034801561002a57600080fd5b50614d6c8061003a6000396000f3fe6080604052600436106102085760003560e01c80637505820511610118578063c79d5ec5116100a0578063d44e282b1161006f578063d44e282b146106c2578063d5f47289146106ed578063f2fde38b14610718578063f31a210a14610741578063f807cd221461076c5761020f565b8063c79d5ec514610615578063caa648b414610652578063ccdd9f5d1461067d578063d2b29d70146106995761020f565b80639ee90e0d116100e75780639ee90e0d14610561578063a935310f1461058c578063b5dbd7f0146105b7578063b60d4288146105e2578063c5ebeaec146105ec5761020f565b806375058205146104b95780638129fc1c146104f65780638a027cb31461050d5780638da5cb5b146105365761020f565b8063371fd8e61161019b57806352154a261161016a57806352154a26146103f657806359aa9e72146104215780635ce239501461044c5780636b6c92d914610477578063715018a6146104a25761020f565b8063371fd8e6146103595780634ed2b8ac146103755780634fcaf08f146103a05780635118af5a146103cb5761020f565b806314a6bf0f116101d757806314a6bf0f146102d0578063232fa733146102fb5780632802fdc8146103055780632e1a7d4d146103305761020f565b8063026b1d5f1461021457806305d58c211461023f57806311c89b1014610268578063132e1d39146102a55761020f565b3661020f57005b600080fd5b34801561022057600080fd5b50610229610797565b6040516102369190613d61565b60405180910390f35b34801561024b57600080fd5b50610266600480360381019061026191906135d8565b61079c565b005b34801561027457600080fd5b5061028f600480360381019061028a91906134e0565b6108f2565b60405161029c9190613c6b565b60405180910390f35b3480156102b157600080fd5b506102ba61096e565b6040516102c7919061407c565b60405180910390f35b3480156102dc57600080fd5b506102e5610978565b6040516102f2919061407c565b60405180910390f35b610303610a0f565b005b34801561031157600080fd5b5061031a610e22565b6040516103279190613bea565b60405180910390f35b34801561033c57600080fd5b5061035760048036038101906103529190613663565b610e3e565b005b610373600480360381019061036e9190613663565b611016565b005b34801561038157600080fd5b5061038a611191565b604051610397919061407c565b60405180910390f35b3480156103ac57600080fd5b506103b5611208565b6040516103c29190613bea565b60405180910390f35b3480156103d757600080fd5b506103e0611224565b6040516103ed919061407c565b60405180910390f35b34801561040257600080fd5b5061040b61122e565b604051610418919061407c565b60405180910390f35b34801561042d57600080fd5b50610436611238565b604051610443919061407c565b60405180910390f35b34801561045857600080fd5b50610461611241565b60405161046e9190613c6b565b60405180910390f35b34801561048357600080fd5b5061048c611259565b6040516104999190613c49565b60405180910390f35b3480156104ae57600080fd5b506104b7611414565b005b3480156104c557600080fd5b506104e060048036038101906104db9190613663565b61149c565b6040516104ed9190613c6b565b60405180910390f35b34801561050257600080fd5b5061050b611518565b005b34801561051957600080fd5b50610534600480360381019061052f9190613614565b61160f565b005b34801561054257600080fd5b5061054b61189b565b6040516105589190613bea565b60405180910390f35b34801561056d57600080fd5b506105766118c5565b604051610583919061407c565b60405180910390f35b34801561059857600080fd5b506105a16118d4565b6040516105ae9190613c49565b60405180910390f35b3480156105c357600080fd5b506105cc611973565b6040516105d9919061407c565b60405180910390f35b6105ea61197c565b005b3480156105f857600080fd5b50610613600480360381019061060e9190613663565b6119ce565b005b34801561062157600080fd5b5061063c60048036038101906106379190613532565b611b56565b604051610649919061407c565b60405180910390f35b34801561065e57600080fd5b50610667611c7d565b604051610674919061407c565b60405180910390f35b61069760048036038101906106929190613663565b611c87565b005b3480156106a557600080fd5b506106c060048036038101906106bb9190613614565b611f01565b005b3480156106ce57600080fd5b506106d761218b565b6040516106e49190613c2e565b60405180910390f35b3480156106f957600080fd5b506107026121e3565b60405161070f9190613c49565b60405180910390f35b34801561072457600080fd5b5061073f600480360381019061073a91906134e0565b6121f2565b005b34801561074d57600080fd5b506107566122ea565b604051610763919061407c565b60405180910390f35b34801561077857600080fd5b506107816122f3565b60405161078e9190613d46565b60405180910390f35b600090565b6107a46122f8565b73ffffffffffffffffffffffffffffffffffffffff166107c261189b565b73ffffffffffffffffffffffffffffffffffffffff1614610818576040517f08c379a000000000000000000000000000000000000000000000000000000000815260040161080f90613f5c565b60405180910390fd5b6002606554141561085e576040517f08c379a00000000000000000000000000000000000000000000000000000000081526004016108559061405c565b60405180910390fd5b6002606581905550600061087183612300565b905061089e33838373ffffffffffffffffffffffffffffffffffffffff166123a49092919063ffffffff16565b506108a7611241565b6108e6576040517f08c379a00000000000000000000000000000000000000000000000000000000081526004016108dd90613f7c565b60405180910390fd5b60016065819055505050565b60006108fc610e22565b73ffffffffffffffffffffffffffffffffffffffff168273ffffffffffffffffffffffffffffffffffffffff1614806109675750610938611208565b73ffffffffffffffffffffffffffffffffffffffff168273ffffffffffffffffffffffffffffffffffffffff16145b9050919050565b60006103e9905090565b6000610982610797565b73ffffffffffffffffffffffffffffffffffffffff16636011163e306040518263ffffffff1660e01b81526004016109ba9190613bea565b60206040518083038186803b1580156109d257600080fd5b505afa1580156109e6573d6000803e3d6000fd5b505050506040513d601f19601f82011682018060405250810190610a0a919061368c565b905090565b610a176122f8565b73ffffffffffffffffffffffffffffffffffffffff16610a3561189b565b73ffffffffffffffffffffffffffffffffffffffff1614610a8b576040517f08c379a0000000000000000000000000000000000000000000000000000000008152600401610a8290613f5c565b60405180910390fd5b60026065541415610ad1576040517f08c379a0000000000000000000000000000000000000000000000000000000008152600401610ac89061405c565b60405180910390fd5b60026065819055506000610ae36122f3565b73ffffffffffffffffffffffffffffffffffffffff16632acada4d6040518163ffffffff1660e01b815260040160006040518083038186803b158015610b2857600080fd5b505afa158015610b3c573d6000803e3d6000fd5b505050506040513d6000823e3d601f19601f82011682018060405250810190610b65919061356e565b905060005b8151811015610cb2576000610bbe838381518110610bb1577f4e487b7100000000000000000000000000000000000000000000000000000000600052603260045260246000fd5b6020026020010151612300565b73ffffffffffffffffffffffffffffffffffffffff166370a08231306040518263ffffffff1660e01b8152600401610bf69190613bea565b60206040518083038186803b158015610c0e57600080fd5b505afa158015610c22573d6000803e3d6000fd5b505050506040513d601f19601f82011682018060405250810190610c46919061368c565b90506000811115610c9e57610c9d838381518110610c8d577f4e487b7100000000000000000000000000000000000000000000000000000000600052603260045260246000fd5b60200260200101518260006124da565b5b508080610caa906144f0565b915050610b6a565b506000610cbd610978565b905080471015610d02576040517f08c379a0000000000000000000000000000000000000000000000000000000008152600401610cf990613ddc565b60405180910390fd5b610d0b81611016565b7f4acb957de3799dd3d95bb7da6bcfbca6f5a33812d69ad37816ed87e79b6327d6814742604051610d3e939291906140e9565b60405180910390a160004790506000811115610dce57610d7d813373ffffffffffffffffffffffffffffffffffffffff166125b690919063ffffffff16565b3373ffffffffffffffffffffffffffffffffffffffff167f92ccf450a286a957af52509bc1c9939d1a6a481783e142e41e2499f0bb66ebc68242604051610dc59291906140c0565b60405180910390a25b505050610dd9611241565b610e18576040517f08c379a0000000000000000000000000000000000000000000000000000000008152600401610e0f90613f7c565b60405180910390fd5b6001606581905550565b600073fe71e9691b9524bc932c23d0eed5c9ce41161884905090565b610e466122f8565b73ffffffffffffffffffffffffffffffffffffffff16610e6461189b565b73ffffffffffffffffffffffffffffffffffffffff1614610eba576040517f08c379a0000000000000000000000000000000000000000000000000000000008152600401610eb190613f5c565b60405180910390fd5b60026065541415610f00576040517f08c379a0000000000000000000000000000000000000000000000000000000008152600401610ef79061405c565b60405180910390fd5b600260658190555080471015610f4b576040517f08c379a0000000000000000000000000000000000000000000000000000000008152600401610f4290613edc565b60405180910390fd5b610f74813373ffffffffffffffffffffffffffffffffffffffff166125b690919063ffffffff16565b3373ffffffffffffffffffffffffffffffffffffffff167f92ccf450a286a957af52509bc1c9939d1a6a481783e142e41e2499f0bb66ebc68242604051610fbc9291906140c0565b60405180910390a2610fcc611241565b61100b576040517f08c379a000000000000000000000000000000000000000000000000000000000815260040161100290613f7c565b60405180910390fd5b600160658190555050565b61101e611241565b801561103b57506000151560008054906101000a900460ff161515145b156110805761104861189b565b73ffffffffffffffffffffffffffffffffffffffff163373ffffffffffffffffffffffffffffffffffffffff161461107f57600080fd5b5b6110918161108c610978565b6126dc565b9050804710156110d6576040517f08c379a00000000000000000000000000000000000000000000000000000000081526004016110cd90613dfc565b60405180910390fd5b6110de610797565b73ffffffffffffffffffffffffffffffffffffffff1663402d8883826040518263ffffffff1660e01b81526004016000604051808303818588803b15801561112557600080fd5b505af1158015611139573d6000803e3d6000fd5b50505050503373ffffffffffffffffffffffffffffffffffffffff167f1b8cd61ed43bec7c6bdad3a18ffee613f99c853d16c50678d248d879e1b4343882426040516111869291906140c0565b60405180910390a250565b60008061119c610978565b905060006111a8611c7d565b905060008214156111be57600092505050611205565b808210156111f85781816111d291906143a3565b6111da61096e565b836111e59190614349565b6111ef91906142dc565b92505050611205565b611200611973565b925050505b90565b6000733befdd935b50f172e696a5187dbacfef0d208e48905090565b600061012c905090565b6000610190905090565b60006064905090565b600061124b611973565b611253611191565b10905090565b606060006112656122f3565b73ffffffffffffffffffffffffffffffffffffffff16632acada4d6040518163ffffffff1660e01b815260040160006040518083038186803b1580156112aa57600080fd5b505afa1580156112be573d6000803e3d6000fd5b505050506040513d6000823e3d601f19601f820116820180604052508101906112e7919061356e565b90506000815167ffffffffffffffff81111561132c577f4e487b7100000000000000000000000000000000000000000000000000000000600052604160045260246000fd5b60405190808252806020026020018201604052801561135a5781602001602082028036833780820191505090505b50905060005b825181101561140b576113b3308483815181106113a6577f4e487b7100000000000000000000000000000000000000000000000000000000600052603260045260246000fd5b6020026020010151611b56565b8282815181106113ec577f4e487b7100000000000000000000000000000000000000000000000000000000600052603260045260246000fd5b6020026020010181815250508080611403906144f0565b915050611360565b50809250505090565b61141c6122f8565b73ffffffffffffffffffffffffffffffffffffffff1661143a61189b565b73ffffffffffffffffffffffffffffffffffffffff1614611490576040517f08c379a000000000000000000000000000000000000000000000000000000000815260040161148790613f5c565b60405180910390fd5b61149a60006126f5565b565b6000816114a7611224565b426114b29190614286565b116114f2576040517f08c379a00000000000000000000000000000000000000000000000000000000081526004016114e990613fdc565b60405180910390fd5b8142108061151157506115036122ea565b824261150f91906143a3565b105b9050919050565b600060029054906101000a900460ff1661154257600060019054906101000a900460ff161561154b565b61154a6127bb565b5b61158a576040517f08c379a000000000000000000000000000000000000000000000000000000000815260040161158190613efc565b60405180910390fd5b60008060029054906101000a900460ff1615905080156115db576001600060026101000a81548160ff0219169083151502179055506001600060016101000a81548160ff0219169083151502179055505b6115e36127cc565b6115eb612825565b801561160c5760008060026101000a81548160ff0219169083151502179055505b50565b6116176122f8565b73ffffffffffffffffffffffffffffffffffffffff1661163561189b565b73ffffffffffffffffffffffffffffffffffffffff161461168b576040517f08c379a000000000000000000000000000000000000000000000000000000000815260040161168290613f5c565b60405180910390fd5b600260655414156116d1576040517f08c379a00000000000000000000000000000000000000000000000000000000081526004016116c89061405c565b60405180910390fd5b60026065819055508047101561171c576040517f08c379a00000000000000000000000000000000000000000000000000000000081526004016117139061401c565b60405180910390fd5b60006117266122f3565b73ffffffffffffffffffffffffffffffffffffffff16635d8874e98386866040518463ffffffff1660e01b8152600401611761929190613ca1565b6020604051808303818588803b15801561177a57600080fd5b505af115801561178e573d6000803e3d6000fd5b50505050506040513d601f19601f820116820180604052508101906117b391906135af565b9050806117f5576040517f08c379a00000000000000000000000000000000000000000000000000000000081526004016117ec9061403c565b60405180910390fd5b833373ffffffffffffffffffffffffffffffffffffffff167f8c4f7b2f9ad7fde21c3ebf69d91938c2731761edd5820e45c17ea61d9c2ab90a854260405161183e9291906140c0565b60405180910390a35061184f611241565b61188e576040517f08c379a000000000000000000000000000000000000000000000000000000000815260040161188590613f7c565b60405180910390fd5b6001606581905550505050565b6000603360009054906101000a900473ffffffffffffffffffffffffffffffffffffffff16905090565b60006118cf611c7d565b905090565b606060006118e06122f3565b73ffffffffffffffffffffffffffffffffffffffff16632acada4d6040518163ffffffff1660e01b815260040160006040518083038186803b15801561192557600080fd5b505afa158015611939573d6000803e3d6000fd5b505050506040513d6000823e3d601f19601f82011682018060405250810190611962919061356e565b905061196d8161287e565b91505090565b600060c8905090565b3373ffffffffffffffffffffffffffffffffffffffff167fcd909ec339185c4598a4096e174308fbdf136d117f230960f873a2f2e81f63af34426040516119c49291906140c0565b60405180910390a2565b6119d66122f8565b73ffffffffffffffffffffffffffffffffffffffff166119f461189b565b73ffffffffffffffffffffffffffffffffffffffff1614611a4a576040517f08c379a0000000000000000000000000000000000000000000000000000000008152600401611a4190613f5c565b60405180910390fd5b611a52610797565b73ffffffffffffffffffffffffffffffffffffffff1663c5ebeaec826040518263ffffffff1660e01b8152600401611a8a919061407c565b600060405180830381600087803b158015611aa457600080fd5b505af1158015611ab8573d6000803e3d6000fd5b505050503373ffffffffffffffffffffffffffffffffffffffff167feae9cfbc77fdd40ca899f36b608256063b2bc9d8178b0220f7ad513e178d67308242604051611b049291906140c0565b60405180910390a2611b14611241565b611b53576040517f08c379a0000000000000000000000000000000000000000000000000000000008152600401611b4a90613f7c565b60405180910390fd5b50565b600080611b616122f3565b73ffffffffffffffffffffffffffffffffffffffff166376d02895846040518263ffffffff1660e01b8152600401611b999190613c86565b60206040518083038186803b158015611bb157600080fd5b505afa158015611bc5573d6000803e3d6000fd5b505050506040513d601f19601f82011682018060405250810190611be99190613509565b90508073ffffffffffffffffffffffffffffffffffffffff166370a08231856040518263ffffffff1660e01b8152600401611c249190613bea565b60206040518083038186803b158015611c3c57600080fd5b505afa158015611c50573d6000803e3d6000fd5b505050506040513d601f19601f82011682018060405250810190611c74919061368c565b91505092915050565b6000610309905090565b60026065541415611ccd576040517f08c379a0000000000000000000000000000000000000000000000000000000008152600401611cc49061405c565b60405180910390fd5b6002606581905550611cdd611241565b15611d1d576040517f08c379a0000000000000000000000000000000000000000000000000000000008152600401611d1490613e9c565b60405180910390fd5b60016000806101000a81548160ff0219169083151502179055506000611d41610978565b905080821115611d4f578091505b6000611d5961096e565b611d61611238565b84611d6c9190614349565b611d7691906142dc565b905060008184611d869190614286565b9050611d91816129e6565b611d9a84612af9565b611da382612b0e565b3373ffffffffffffffffffffffffffffffffffffffff167f7abe212d4944ae75cf0a0477af92aa0db98c15aaf21d06c37c97c641427b8eb38584611de5611191565b42604051611df69493929190614120565b60405180910390a25050506000611e0b611191565b9050611e1561189b565b73ffffffffffffffffffffffffffffffffffffffff163373ffffffffffffffffffffffffffffffffffffffff1614611e9257611e4f61122e565b811015611e91576040517f08c379a0000000000000000000000000000000000000000000000000000000008152600401611e8890613f3c565b60405180910390fd5b5b611e9a611973565b8110611edb576040517f08c379a0000000000000000000000000000000000000000000000000000000008152600401611ed290613e5c565b60405180910390fd5b60008060006101000a81548160ff02191690831515021790555050600160658190555050565b60026065541415611f47576040517f08c379a0000000000000000000000000000000000000000000000000000000008152600401611f3e9061405c565b60405180910390fd5b6002606581905550611f576122f8565b73ffffffffffffffffffffffffffffffffffffffff16611f7561189b565b73ffffffffffffffffffffffffffffffffffffffff1614611fcb576040517f08c379a0000000000000000000000000000000000000000000000000000000008152600401611fc290613f5c565b60405180910390fd5b6000611fd684612300565b905061200a611fe36122f3565b848373ffffffffffffffffffffffffffffffffffffffff166123a49092919063ffffffff16565b60006120146122f3565b73ffffffffffffffffffffffffffffffffffffffff166348eedd6b8686866040518463ffffffff1660e01b815260040161205093929190613cca565b602060405180830381600087803b15801561206a57600080fd5b505af115801561207e573d6000803e3d6000fd5b505050506040513d601f19601f820116820180604052508101906120a291906135af565b9050806120e4576040517f08c379a00000000000000000000000000000000000000000000000000000000081526004016120db90613f9c565b60405180910390fd5b843373ffffffffffffffffffffffffffffffffffffffff167fc95bd7ebbed9b9c3e9477753bcb60d02b328f1e5bce8b1a25986d6c73991c182864260405161212d9291906140c0565b60405180910390a3505061213f611241565b61217e576040517f08c379a000000000000000000000000000000000000000000000000000000000815260040161217590613f7c565b60405180910390fd5b6001606581905550505050565b612193613395565b60405180608001604052806121a6611c7d565b81526020016121b3610978565b81526020016121c0611191565b81526020016121cd611241565b6121d85760006121db565b60015b815250905090565b60606121ed6118d4565b905090565b6121fa6122f8565b73ffffffffffffffffffffffffffffffffffffffff1661221861189b565b73ffffffffffffffffffffffffffffffffffffffff161461226e576040517f08c379a000000000000000000000000000000000000000000000000000000000815260040161226590613f5c565b60405180910390fd5b600073ffffffffffffffffffffffffffffffffffffffff168173ffffffffffffffffffffffffffffffffffffffff1614156122de576040517f08c379a00000000000000000000000000000000000000000000000000000000081526004016122d590613e1c565b60405180910390fd5b6122e7816126f5565b50565b600060b4905090565b600090565b600033905090565b60008061230b6122f3565b73ffffffffffffffffffffffffffffffffffffffff166376d02895846040518263ffffffff1660e01b81526004016123439190613c86565b60206040518083038186803b15801561235b57600080fd5b505afa15801561236f573d6000803e3d6000fd5b505050506040513d601f19601f820116820180604052508101906123939190613509565b905060008190508092505050919050565b6000808473ffffffffffffffffffffffffffffffffffffffff1663a9059cbb85856040516024016123d6929190613c05565b6040516020818303038152906040529060e01b6020820180517bffffffffffffffffffffffffffffffffffffffffffffffffffffffff83818316178352505050506040516124249190613bad565b6000604051808303816000865af19150503d8060008114612461576040519150601f19603f3d011682016040523d82523d6000602084013e612466565b606091505b5091509150818015612494575060008151148061249357508080602001905181019061249291906135af565b5b5b6124d3576040517f08c379a00000000000000000000000000000000000000000000000000000000081526004016124ca90613ffc565b60405180910390fd5b5050505050565b60006124e584612300565b90506125196124f26122f3565b848373ffffffffffffffffffffffffffffffffffffffff166123a49092919063ffffffff16565b6125216122f3565b73ffffffffffffffffffffffffffffffffffffffff166348eedd6b8585856040518463ffffffff1660e01b815260040161255d93929190613cca565b602060405180830381600087803b15801561257757600080fd5b505af115801561258b573d6000803e3d6000fd5b505050506040513d601f19601f820116820180604052508101906125af91906135af565b5050505050565b60008273ffffffffffffffffffffffffffffffffffffffff1682600067ffffffffffffffff811115612611577f4e487b7100000000000000000000000000000000000000000000000000000000600052604160045260246000fd5b6040519080825280601f01601f1916602001820160405280156126435781602001600182028036833780820191505090505b506040516126519190613bad565b60006040518083038185875af1925050503d806000811461268e576040519150601f19603f3d011682016040523d82523d6000602084013e612693565b606091505b50509050806126d7576040517f08c379a00000000000000000000000000000000000000000000000000000000081526004016126ce90613e7c565b60405180910390fd5b505050565b60008183106126eb57816126ed565b825b905092915050565b6000603360009054906101000a900473ffffffffffffffffffffffffffffffffffffffff16905081603360006101000a81548173ffffffffffffffffffffffffffffffffffffffff021916908373ffffffffffffffffffffffffffffffffffffffff1602179055508173ffffffffffffffffffffffffffffffffffffffff168173ffffffffffffffffffffffffffffffffffffffff167f8be0079c531659141344cd1fd0a4f28419497f9722a3daafe3b4186f6b6457e060405160405180910390a35050565b60006127c630612b43565b15905090565b600060029054906101000a900460ff1661281b576040517f08c379a000000000000000000000000000000000000000000000000000000000815260040161281290613fbc565b60405180910390fd5b612823612b66565b565b600060029054906101000a900460ff16612874576040517f08c379a000000000000000000000000000000000000000000000000000000000815260040161286b90613fbc565b60405180910390fd5b61287c612bc7565b565b60606000606136033590506000602060408360ff1661289d919061430d565b6128a7919061424e565b905060606040519050818152816042830136036020830137602081016040526000818051906020012090506000816040516020016128e59190613bc4565b60405160208183030381529060405280519060200120905060606040519050604181526041803603602083013760208101604052600061292e8284612c2090919063ffffffff16565b9050612939816108f2565b612978576040517f08c379a000000000000000000000000000000000000000000000000000000000815260040161296f90613e3c565b60405180910390fd5b60006062360335905061298a8161149c565b6129c9576040517f08c379a00000000000000000000000000000000000000000000000000000000081526004016129c090613dbc565b60405180910390fd5b6129d78a8960ff1689612c47565b98505050505050505050919050565b60006129f06122f3565b73ffffffffffffffffffffffffffffffffffffffff16632acada4d6040518163ffffffff1660e01b815260040160006040518083038186803b158015612a3557600080fd5b505afa158015612a49573d6000803e3d6000fd5b505050506040513d6000823e3d601f19601f82011682018060405250810190612a72919061356e565b905060005b8151811015612af457824710612a8c57612af4565b612ae1828281518110612ac8577f4e487b7100000000000000000000000000000000000000000000000000000000600052603260045260246000fd5b60200260200101514785612adc91906143a3565b612ced565b8080612aec906144f0565b915050612a77565b505050565b612b0b612b0647836126dc565b611016565b50565b612b40612b1b82476126dc565b3373ffffffffffffffffffffffffffffffffffffffff166125b690919063ffffffff16565b50565b6000808273ffffffffffffffffffffffffffffffffffffffff163b119050919050565b600060029054906101000a900460ff16612bb5576040517f08c379a0000000000000000000000000000000000000000000000000000000008152600401612bac90613fbc565b60405180910390fd5b612bc5612bc06122f8565b6126f5565b565b600060029054906101000a900460ff16612c16576040517f08c379a0000000000000000000000000000000000000000000000000000000008152600401612c0d90613fbc565b60405180910390fd5b6001606581905550565b6000806000612c2f8585612e55565b91509150612c3c81612ed8565b819250505092915050565b6060806000806000806042870136035995508951865260208a51026020870101604052600094505b88851015612cdd57604085028101359150600093505b8951841015612cd257816020850260208c0101511415612cba5760206040860282010135602085026020880101526001830192505b8951831415612cc7578894505b600184019350612c85565b600185019450612c6f565b5084955050505050509392505050565b6000612cf883612300565b905060008173ffffffffffffffffffffffffffffffffffffffff166370a08231306040518263ffffffff1660e01b8152600401612d359190613bea565b60206040518083038186803b158015612d4d57600080fd5b505afa158015612d61573d6000803e3d6000fd5b505050506040513d601f19601f82011682018060405250810190612d85919061368c565b90506000811115612e4f576000612d9a6122f3565b73ffffffffffffffffffffffffffffffffffffffff16639ac34dd385856040518363ffffffff1660e01b8152600401612dd4929190614097565b602060405180830381600087803b158015612dee57600080fd5b505af1158015612e02573d6000803e3d6000fd5b505050506040513d601f19601f82011682018060405250810190612e26919061368c565b905080821015612e4157612e3c858360006124da565b612e4d565b612e4c8582866124da565b5b505b50505050565b600080604183511415612e975760008060006020860151925060408601519150606086015160001a9050612e8b87828585613229565b94509450505050612ed1565b604083511415612ec8576000806020850151915060408501519050612ebd868383613336565b935093505050612ed1565b60006002915091505b9250929050565b60006004811115612f12577f4e487b7100000000000000000000000000000000000000000000000000000000600052602160045260246000fd5b816004811115612f4b577f4e487b7100000000000000000000000000000000000000000000000000000000600052602160045260246000fd5b1415612f5657613226565b60016004811115612f90577f4e487b7100000000000000000000000000000000000000000000000000000000600052602160045260246000fd5b816004811115612fc9577f4e487b7100000000000000000000000000000000000000000000000000000000600052602160045260246000fd5b141561300a576040517f08c379a000000000000000000000000000000000000000000000000000000000815260040161300190613d7c565b60405180910390fd5b60026004811115613044577f4e487b7100000000000000000000000000000000000000000000000000000000600052602160045260246000fd5b81600481111561307d577f4e487b7100000000000000000000000000000000000000000000000000000000600052602160045260246000fd5b14156130be576040517f08c379a00000000000000000000000000000000000000000000000000000000081526004016130b590613d9c565b60405180910390fd5b600360048111156130f8577f4e487b7100000000000000000000000000000000000000000000000000000000600052602160045260246000fd5b816004811115613131577f4e487b7100000000000000000000000000000000000000000000000000000000600052602160045260246000fd5b1415613172576040517f08c379a000000000000000000000000000000000000000000000000000000000815260040161316990613ebc565b60405180910390fd5b6004808111156131ab577f4e487b7100000000000000000000000000000000000000000000000000000000600052602160045260246000fd5b8160048111156131e4577f4e487b7100000000000000000000000000000000000000000000000000000000600052602160045260246000fd5b1415613225576040517f08c379a000000000000000000000000000000000000000000000000000000000815260040161321c90613f1c565b60405180910390fd5b5b50565b6000807f7fffffffffffffffffffffffffffffff5d576e7357a4501ddfe92f46681b20a08360001c111561326457600060039150915061332d565b601b8560ff161415801561327c5750601c8560ff1614155b1561328e57600060049150915061332d565b6000600187878787604051600081526020016040526040516132b39493929190613d01565b6020604051602081039080840390855afa1580156132d5573d6000803e3d6000fd5b505050602060405103519050600073ffffffffffffffffffffffffffffffffffffffff168173ffffffffffffffffffffffffffffffffffffffff1614156133245760006001925092505061332d565b80600092509250505b94509492505050565b60008060007f7fffffffffffffffffffffffffffffffffffffffffffffffffffffffffffffff60001b841690506000601b60ff8660001c901c6133799190614286565b905061338787828885613229565b935093505050935093915050565b6040518060800160405280600490602082028036833780820191505090505090565b60006133ca6133c58461418a565b614165565b905080838252602082019050828560208602820111156133e957600080fd5b60005b8581101561341957816133ff88826134a1565b8452602084019350602083019250506001810190506133ec565b5050509392505050565b60008135905061343281614cda565b92915050565b60008151905061344781614cda565b92915050565b600082601f83011261345e57600080fd5b815161346e8482602086016133b7565b91505092915050565b60008151905061348681614cf1565b92915050565b60008135905061349b81614d08565b92915050565b6000815190506134b081614d08565b92915050565b6000813590506134c581614d1f565b92915050565b6000815190506134da81614d1f565b92915050565b6000602082840312156134f257600080fd5b600061350084828501613423565b91505092915050565b60006020828403121561351b57600080fd5b600061352984828501613438565b91505092915050565b6000806040838503121561354557600080fd5b600061355385828601613423565b92505060206135648582860161348c565b9150509250929050565b60006020828403121561358057600080fd5b600082015167ffffffffffffffff81111561359a57600080fd5b6135a68482850161344d565b91505092915050565b6000602082840312156135c157600080fd5b60006135cf84828501613477565b91505092915050565b600080604083850312156135eb57600080fd5b60006135f98582860161348c565b925050602061360a858286016134b6565b9150509250929050565b60008060006060848603121561362957600080fd5b60006136378682870161348c565b9350506020613648868287016134b6565b9250506040613659868287016134b6565b9150509250925092565b60006020828403121561367557600080fd5b6000613683848285016134b6565b91505092915050565b60006020828403121561369e57600080fd5b60006136ac848285016134cb565b91505092915050565b60006136c18383613b80565b60208301905092915050565b6136d6816143d7565b82525050565b6136e5816141d0565b6136ef818461420b565b92506136fa826141b6565b8060005b8381101561372b57815161371287826136b5565b965061371d836141f1565b9250506001810190506136fe565b505050505050565b600061373e826141db565b6137488185614216565b9350613753836141c0565b8060005b8381101561378457815161376b88826136b5565b9750613776836141fe565b925050600181019050613757565b5085935050505092915050565b61379a816143e9565b82525050565b6137a9816143f5565b82525050565b6137c06137bb826143f5565b614539565b82525050565b60006137d1826141e6565b6137db8185614227565b93506137eb81856020860161448c565b80840191505092915050565b61380081614444565b82525050565b61380f81614468565b82525050565b6000613822601883614232565b915061382d826145e1565b602082019050919050565b6000613845601f83614232565b91506138508261460a565b602082019050919050565b6000613868601c83614243565b915061387382614633565b601c82019050919050565b600061388b601983614232565b91506138968261465c565b602082019050919050565b60006138ae604583614232565b91506138b982614685565b606082019050919050565b60006138d1602b83614232565b91506138dc826146fa565b604082019050919050565b60006138f4602683614232565b91506138ff82614749565b604082019050919050565b6000613917601583614232565b915061392282614798565b602082019050919050565b600061393a604c83614232565b9150613945826147c1565b606082019050919050565b600061395d603483614232565b915061396882614836565b604082019050919050565b6000613980602083614232565b915061398b82614885565b602082019050919050565b60006139a3602283614232565b91506139ae826148ae565b604082019050919050565b60006139c6602583614232565b91506139d1826148fd565b604082019050919050565b60006139e9602e83614232565b91506139f48261494c565b604082019050919050565b6000613a0c602283614232565b9150613a178261499b565b604082019050919050565b6000613a2f609283614232565b9150613a3a826149ea565b60a082019050919050565b6000613a52602083614232565b9150613a5d82614aab565b602082019050919050565b6000613a75603383614232565b9150613a8082614ad4565b604082019050919050565b6000613a98601183614232565b9150613aa382614b23565b602082019050919050565b6000613abb602b83614232565b9150613ac682614b4c565b604082019050919050565b6000613ade602a83614232565b9150613ae982614b9b565b604082019050919050565b6000613b01602d83614232565b9150613b0c82614bea565b604082019050919050565b6000613b24603483614232565b9150613b2f82614c39565b604082019050919050565b6000613b47601183614232565b9150613b5282614c88565b602082019050919050565b6000613b6a601f83614232565b9150613b7582614cb1565b602082019050919050565b613b898161442d565b82525050565b613b988161442d565b82525050565b613ba781614437565b82525050565b6000613bb982846137c6565b915081905092915050565b6000613bcf8261385b565b9150613bdb82846137af565b60208201915081905092915050565b6000602082019050613bff60008301846136cd565b92915050565b6000604082019050613c1a60008301856136cd565b613c276020830184613b8f565b9392505050565b6000608082019050613c4360008301846136dc565b92915050565b60006020820190508181036000830152613c638184613733565b905092915050565b6000602082019050613c806000830184613791565b92915050565b6000602082019050613c9b60008301846137a0565b92915050565b6000604082019050613cb660008301856137a0565b613cc36020830184613b8f565b9392505050565b6000606082019050613cdf60008301866137a0565b613cec6020830185613b8f565b613cf96040830184613b8f565b949350505050565b6000608082019050613d1660008301876137a0565b613d236020830186613b9e565b613d3060408301856137a0565b613d3d60608301846137a0565b95945050505050565b6000602082019050613d5b60008301846137f7565b92915050565b6000602082019050613d766000830184613806565b92915050565b60006020820190508181036000830152613d9581613815565b9050919050565b60006020820190508181036000830152613db581613838565b9050919050565b60006020820190508181036000830152613dd58161387e565b9050919050565b60006020820190508181036000830152613df5816138a1565b9050919050565b60006020820190508181036000830152613e15816138c4565b9050919050565b60006020820190508181036000830152613e35816138e7565b9050919050565b60006020820190508181036000830152613e558161390a565b9050919050565b60006020820190508181036000830152613e758161392d565b9050919050565b60006020820190508181036000830152613e9581613950565b9050919050565b60006020820190508181036000830152613eb581613973565b9050919050565b60006020820190508181036000830152613ed581613996565b9050919050565b60006020820190508181036000830152613ef5816139b9565b9050919050565b60006020820190508181036000830152613f15816139dc565b9050919050565b60006020820190508181036000830152613f35816139ff565b9050919050565b60006020820190508181036000830152613f5581613a22565b9050919050565b60006020820190508181036000830152613f7581613a45565b9050919050565b60006020820190508181036000830152613f9581613a68565b9050919050565b60006020820190508181036000830152613fb581613a8b565b9050919050565b60006020820190508181036000830152613fd581613aae565b9050919050565b60006020820190508181036000830152613ff581613ad1565b9050919050565b6000602082019050818103600083015261401581613af4565b9050919050565b6000602082019050818103600083015261403581613b17565b9050919050565b6000602082019050818103600083015261405581613b3a565b9050919050565b6000602082019050818103600083015261407581613b5d565b9050919050565b60006020820190506140916000830184613b8f565b92915050565b60006040820190506140ac6000830185613b8f565b6140b960208301846136cd565b9392505050565b60006040820190506140d56000830185613b8f565b6140e26020830184613b8f565b9392505050565b60006060820190506140fe6000830186613b8f565b61410b6020830185613b8f565b6141186040830184613b8f565b949350505050565b60006080820190506141356000830187613b8f565b6141426020830186613b8f565b61414f6040830185613b8f565b61415c6060830184613b8f565b95945050505050565b600061416f614180565b905061417b82826144bf565b919050565b6000604051905090565b600067ffffffffffffffff8211156141a5576141a46145a1565b5b602082029050602081019050919050565b6000819050919050565b6000819050602082019050919050565b600060049050919050565b600081519050919050565b600081519050919050565b6000602082019050919050565b6000602082019050919050565b600081905092915050565b600082825260208201905092915050565b600081905092915050565b600082825260208201905092915050565b600081905092915050565b6000614259826143ff565b9150614264836143ff565b92508261ffff0382111561427b5761427a614543565b5b828201905092915050565b60006142918261442d565b915061429c8361442d565b9250827fffffffffffffffffffffffffffffffffffffffffffffffffffffffffffffffff038211156142d1576142d0614543565b5b828201905092915050565b60006142e78261442d565b91506142f28361442d565b92508261430257614301614572565b5b828204905092915050565b6000614318826143ff565b9150614323836143ff565b92508161ffff048311821515161561433e5761433d614543565b5b828202905092915050565b60006143548261442d565b915061435f8361442d565b9250817fffffffffffffffffffffffffffffffffffffffffffffffffffffffffffffffff048311821515161561439857614397614543565b5b828202905092915050565b60006143ae8261442d565b91506143b98361442d565b9250828210156143cc576143cb614543565b5b828203905092915050565b60006143e28261440d565b9050919050565b60008115159050919050565b6000819050919050565b600061ffff82169050919050565b600073ffffffffffffffffffffffffffffffffffffffff82169050919050565b6000819050919050565b600060ff82169050919050565b600061444f82614456565b9050919050565b60006144618261440d565b9050919050565b60006144738261447a565b9050919050565b60006144858261440d565b9050919050565b60005b838110156144aa57808201518184015260208101905061448f565b838111156144b9576000848401525b50505050565b6144c8826145d0565b810181811067ffffffffffffffff821117156144e7576144e66145a1565b5b80604052505050565b60006144fb8261442d565b91507fffffffffffffffffffffffffffffffffffffffffffffffffffffffffffffffff82141561452e5761452d614543565b5b600182019050919050565b6000819050919050565b7f4e487b7100000000000000000000000000000000000000000000000000000000600052601160045260246000fd5b7f4e487b7100000000000000000000000000000000000000000000000000000000600052601260045260246000fd5b7f4e487b7100000000000000000000000000000000000000000000000000000000600052604160045260246000fd5b6000601f19601f8301169050919050565b7f45434453413a20696e76616c6964207369676e61747572650000000000000000600082015250565b7f45434453413a20696e76616c6964207369676e6174757265206c656e67746800600082015250565b7f19457468657265756d205369676e6564204d6573736167653a0a333200000000600082015250565b7f446174612074696d657374616d7020697320696e76616c696400000000000000600082015250565b7f53656c6c696e67206f757420616c6c2061737365747320776974686f7574207260008201527f65706179696e67207468652077686f6c652064656274206973206e6f7420616c60208201527f6c6f776564000000000000000000000000000000000000000000000000000000604082015250565b7f5468657265206973206e6f7420656e6f7567682066756e647320746f2072657060008201527f617920746865206c6f616e000000000000000000000000000000000000000000602082015250565b7f4f776e61626c653a206e6577206f776e657220697320746865207a65726f206160008201527f6464726573730000000000000000000000000000000000000000000000000000602082015250565b7f5369676e6572206e6f7420617574686f72697a65640000000000000000000000600082015250565b7f54686973206f7065726174696f6e20776f756c64206e6f7420726573756c742060008201527f696e206272696e67696e6720746865206c6f616e206261636b20746f2061207360208201527f6f6c76656e742073746174650000000000000000000000000000000000000000604082015250565b7f5472616e7366657248656c7065723a3a736166655472616e736665724554483a60008201527f20455448207472616e73666572206661696c6564000000000000000000000000602082015250565b7f43616e6e6f742073656c6c6f7574206120736f6c76656e74206163636f756e74600082015250565b7f45434453413a20696e76616c6964207369676e6174757265202773272076616c60008201527f7565000000000000000000000000000000000000000000000000000000000000602082015250565b7f5468657265206973206e6f7420656e6f7567682066756e647320746f2077697460008201527f6864726177000000000000000000000000000000000000000000000000000000602082015250565b7f496e697469616c697a61626c653a20636f6e747261637420697320616c72656160008201527f647920696e697469616c697a6564000000000000000000000000000000000000602082015250565b7f45434453413a20696e76616c6964207369676e6174757265202776272076616c60008201527f7565000000000000000000000000000000000000000000000000000000000000602082015250565b7f54686973206f7065726174696f6e20776f756c6420726573756c7420696e206160008201527f206c6f616e2077697468204c5456206c6f776572207468616e204d696e696d6160208201527f6c2053656c6c6f7574204c545620776869636820776f756c6420707574206c6f60408201527f616e2773206f776e657220696e2061207269736b206f6620616e20756e6e656360608201527f6573736172696c792068696768206c6f73730000000000000000000000000000608082015250565b7f4f776e61626c653a2063616c6c6572206973206e6f7420746865206f776e6572600082015250565b7f54686520616374696f6e206d617920636175736520616e206163636f756e742060008201527f746f206265636f6d6520696e736f6c76656e7400000000000000000000000000602082015250565b7f526564656d7074696f6e206661696c6564000000000000000000000000000000600082015250565b7f496e697469616c697a61626c653a20636f6e7472616374206973206e6f74206960008201527f6e697469616c697a696e67000000000000000000000000000000000000000000602082015250565b7f446174612077697468206675747572652074696d657374616d7073206973206e60008201527f6f7420616c6c6f77656400000000000000000000000000000000000000000000602082015250565b7f5472616e7366657248656c7065723a3a736166655472616e736665723a20747260008201527f616e73666572206661696c656400000000000000000000000000000000000000602082015250565b7f4e6f7420656e6f7567682066756e64732061726520617661696c61626c65207460008201527f6f20696e7665737420696e20616e206173736574000000000000000000000000602082015250565b7f496e766573746d656e74206661696c6564000000000000000000000000000000600082015250565b7f5265656e7472616e637947756172643a207265656e7472616e742063616c6c00600082015250565b614ce3816143d7565b8114614cee57600080fd5b50565b614cfa816143e9565b8114614d0557600080fd5b50565b614d11816143f5565b8114614d1c57600080fd5b50565b614d288161442d565b8114614d3357600080fd5b5056fea26469706673582212200d0d900975476fe91ecb3e999bfb1fe18a08a714d6a00a753f7830bb69a7df1464736f6c63430008040033",
  "linkReferences": {},
  "deployedLinkReferences": {}
}